{"contracts/Community Contracts/Community.sol":{"Community":{"abi":[{"inputs":[{"internalType":"address[]","name":"_reviewers","type":"address[]"}],"stateMutability":"nonpayable","type":"constructor"},{"inputs":[],"name":"AccessControlBadConfirmation","type":"error"},{"inputs":[{"internalType":"address","name":"account","type":"address"},{"internalType":"bytes32","name":"neededRole","type":"bytes32"}],"name":"AccessControlUnauthorizedAccount","type":"error"},{"inputs":[{"internalType":"address","name":"spender","type":"address"},{"internalType":"uint256","name":"allowance","type":"uint256"},{"internalType":"uint256","name":"needed","type":"uint256"}],"name":"ERC20InsufficientAllowance","type":"error"},{"inputs":[{"internalType":"address","name":"sender","type":"address"},{"internalType":"uint256","name":"balance","type":"uint256"},{"internalType":"uint256","name":"needed","type":"uint256"}],"name":"ERC20InsufficientBalance","type":"error"},{"inputs":[{"internalType":"address","name":"approver","type":"address"}],"name":"ERC20InvalidApprover","type":"error"},{"inputs":[{"internalType":"address","name":"receiver","type":"address"}],"name":"ERC20InvalidReceiver","type":"error"},{"inputs":[{"internalType":"address","name":"sender","type":"address"}],"name":"ERC20InvalidSender","type":"error"},{"inputs":[{"internalType":"address","name":"spender","type":"address"}],"name":"ERC20InvalidSpender","type":"error"},{"inputs":[],"name":"ReentrancyGuardReentrantCall","type":"error"},{"anonymous":false,"inputs":[{"indexed":true,"internalType":"uint256","name":"_amount","type":"uint256"},{"indexed":false,"internalType":"uint256","name":"_numberOfEarlyAdopters","type":"uint256"}],"name":"AirdropDistributeSuccess","type":"event"},{"anonymous":false,"inputs":[{"indexed":true,"internalType":"address","name":"owner","type":"address"},{"indexed":true,"internalType":"address","name":"spender","type":"address"},{"indexed":false,"internalType":"uint256","name":"value","type":"uint256"}],"name":"Approval","type":"event"},{"anonymous":false,"inputs":[{"indexed":true,"internalType":"address","name":"member","type":"address"},{"indexed":false,"internalType":"enum CommunityBadgeSystem.BadgeLevel","name":"badge","type":"uint8"}],"name":"BadgeAwarded","type":"event"},{"anonymous":false,"inputs":[{"indexed":true,"internalType":"address","name":"_account","type":"address"},{"indexed":false,"internalType":"uint256","name":"_amount","type":"uint256"}],"name":"BurnSuccess","type":"event"},{"anonymous":false,"inputs":[{"indexed":true,"internalType":"address","name":"_to","type":"address"},{"indexed":true,"internalType":"uint256","name":"_amount","type":"uint256"}],"name":"CommunityPoolUpdate","type":"event"},{"anonymous":false,"inputs":[{"indexed":true,"internalType":"address","name":"project","type":"address"},{"indexed":false,"internalType":"uint256","name":"amount","type":"uint256"}],"name":"CommunityProjectFunded","type":"event"},{"anonymous":false,"inputs":[{"indexed":true,"internalType":"uint256","name":"eventId","type":"uint256"},{"indexed":false,"internalType":"string","name":"name","type":"string"},{"indexed":false,"internalType":"address","name":"creator","type":"address"},{"indexed":false,"internalType":"bool","name":"isOnline","type":"bool"},{"indexed":false,"internalType":"string","name":"location","type":"string"}],"name":"EventCreated","type":"event"},{"anonymous":false,"inputs":[{"indexed":true,"internalType":"uint256","name":"eventId","type":"uint256"},{"indexed":false,"internalType":"address","name":"participant","type":"address"}],"name":"EventParticipation","type":"event"},{"anonymous":false,"inputs":[{"indexed":true,"internalType":"address","name":"member","type":"address"},{"indexed":false,"internalType":"uint256","name":"totalEvents","type":"uint256"}],"name":"EventParticipationRecorded","type":"event"},{"anonymous":false,"inputs":[{"indexed":true,"internalType":"address","name":"_address","type":"address"}],"name":"JoinSuccess","type":"event"},{"anonymous":false,"inputs":[{"indexed":true,"internalType":"address","name":"member","type":"address"}],"name":"MemberRegistered","type":"event"},{"anonymous":false,"inputs":[{"indexed":true,"internalType":"address","name":"_to","type":"address"},{"indexed":true,"internalType":"uint256","name":"_amount","type":"uint256"}],"name":"MintSuccess","type":"event"},{"anonymous":false,"inputs":[{"indexed":true,"internalType":"uint256","name":"proposalId","type":"uint256"},{"indexed":false,"internalType":"address","name":"approver","type":"address"}],"name":"MultiSigProposalApproved","type":"event"},{"anonymous":false,"inputs":[{"indexed":true,"internalType":"uint256","name":"proposalId","type":"uint256"},{"indexed":false,"internalType":"address","name":"proposer","type":"address"}],"name":"MultiSigProposalCreated","type":"event"},{"anonymous":false,"inputs":[{"indexed":true,"internalType":"uint256","name":"proposalId","type":"uint256"}],"name":"MultiSigProposalExecuted","type":"event"},{"anonymous":false,"inputs":[{"indexed":true,"internalType":"address","name":"reviewer","type":"address"}],"name":"ReviewerAddedToPool","type":"event"},{"anonymous":false,"inputs":[{"indexed":true,"internalType":"address","name":"reviewer","type":"address"}],"name":"ReviewerRemovedFromPool","type":"event"},{"anonymous":false,"inputs":[{"indexed":true,"internalType":"bytes32","name":"role","type":"bytes32"},{"indexed":true,"internalType":"bytes32","name":"previousAdminRole","type":"bytes32"},{"indexed":true,"internalType":"bytes32","name":"newAdminRole","type":"bytes32"}],"name":"RoleAdminChanged","type":"event"},{"anonymous":false,"inputs":[{"indexed":true,"internalType":"bytes32","name":"role","type":"bytes32"},{"indexed":true,"internalType":"address","name":"account","type":"address"},{"indexed":true,"internalType":"address","name":"sender","type":"address"}],"name":"RoleGranted","type":"event"},{"anonymous":false,"inputs":[{"indexed":true,"internalType":"bytes32","name":"role","type":"bytes32"},{"indexed":true,"internalType":"address","name":"account","type":"address"},{"indexed":true,"internalType":"address","name":"sender","type":"address"}],"name":"RoleRevoked","type":"event"},{"anonymous":false,"inputs":[{"indexed":true,"internalType":"address","name":"from","type":"address"},{"indexed":true,"internalType":"address","name":"to","type":"address"},{"indexed":false,"internalType":"uint256","name":"value","type":"uint256"}],"name":"Transfer","type":"event"},{"inputs":[],"name":"CHAMPION_BADGE_THRESHOLD","outputs":[{"internalType":"uint256","name":"","type":"uint256"}],"stateMutability":"view","type":"function"},{"inputs":[],"name":"COMMUNITY_MANAGER","outputs":[{"internalType":"bytes32","name":"","type":"bytes32"}],"stateMutability":"view","type":"function"},{"inputs":[],"name":"COMMUNITY_POOL","outputs":[{"internalType":"uint256","name":"","type":"uint256"}],"stateMutability":"view","type":"function"},{"inputs":[],"name":"CONTRIBUTOR_BADGE_THRESHOLD","outputs":[{"internalType":"uint256","name":"","type":"uint256"}],"stateMutability":"view","type":"function"},{"inputs":[],"name":"DEFAULT_ADMIN_ROLE","outputs":[{"internalType":"bytes32","name":"","type":"bytes32"}],"stateMutability":"view","type":"function"},{"inputs":[],"name":"EVENT_PARTICIPATION_REWARD","outputs":[{"internalType":"uint256","name":"","type":"uint256"}],"stateMutability":"view","type":"function"},{"inputs":[],"name":"LEADER_BADGE_THRESHOLD","outputs":[{"internalType":"uint256","name":"","type":"uint256"}],"stateMutability":"view","type":"function"},{"inputs":[],"name":"MAX_COMMUNITY_PROJECT_FUNDING","outputs":[{"internalType":"uint256","name":"","type":"uint256"}],"stateMutability":"view","type":"function"},{"inputs":[],"name":"MAX_SUPPLY","outputs":[{"internalType":"uint256","name":"","type":"uint256"}],"stateMutability":"view","type":"function"},{"inputs":[],"name":"MULTISIG_APPROVER","outputs":[{"internalType":"bytes32","name":"","type":"bytes32"}],"stateMutability":"view","type":"function"},{"inputs":[],"name":"PARTICIPANT_BADGE_THRESHOLD","outputs":[{"internalType":"uint256","name":"","type":"uint256"}],"stateMutability":"view","type":"function"},{"inputs":[],"name":"REVIEWER_ROLE","outputs":[{"internalType":"bytes32","name":"","type":"bytes32"}],"stateMutability":"view","type":"function"},{"inputs":[{"internalType":"uint256","name":"","type":"uint256"}],"name":"abyaCommunity","outputs":[{"internalType":"address","name":"","type":"address"}],"stateMutability":"view","type":"function"},{"inputs":[{"internalType":"address","name":"newReviewer","type":"address"}],"name":"addReviewer","outputs":[],"stateMutability":"nonpayable","type":"function"},{"inputs":[{"internalType":"address","name":"owner","type":"address"},{"internalType":"address","name":"spender","type":"address"}],"name":"allowance","outputs":[{"internalType":"uint256","name":"","type":"uint256"}],"stateMutability":"view","type":"function"},{"inputs":[{"internalType":"address","name":"spender","type":"address"},{"internalType":"uint256","name":"value","type":"uint256"}],"name":"approve","outputs":[{"internalType":"bool","name":"","type":"bool"}],"stateMutability":"nonpayable","type":"function"},{"inputs":[{"internalType":"uint256","name":"_proposalId","type":"uint256"}],"name":"approveMultiSigProposal","outputs":[],"stateMutability":"nonpayable","type":"function"},{"inputs":[{"internalType":"enum CommunityBadgeSystem.BadgeLevel","name":"","type":"uint8"}],"name":"badgeMetadata","outputs":[{"internalType":"string","name":"name","type":"string"},{"internalType":"string","name":"iconURI","type":"string"},{"internalType":"uint256","name":"tokenReward","type":"uint256"}],"stateMutability":"view","type":"function"},{"inputs":[{"internalType":"address","name":"account","type":"address"}],"name":"balanceOf","outputs":[{"internalType":"uint256","name":"","type":"uint256"}],"stateMutability":"view","type":"function"},{"inputs":[],"name":"checkMemberBadge","outputs":[{"internalType":"enum CommunityBadgeSystem.BadgeLevel","name":"","type":"uint8"}],"stateMutability":"view","type":"function"},{"inputs":[],"name":"claimBadgeRewards","outputs":[],"stateMutability":"nonpayable","type":"function"},{"inputs":[{"internalType":"address","name":"","type":"address"}],"name":"communityContributorRewards","outputs":[{"internalType":"uint256","name":"","type":"uint256"}],"stateMutability":"view","type":"function"},{"inputs":[{"internalType":"uint256","name":"","type":"uint256"}],"name":"communityEvents","outputs":[{"internalType":"uint256","name":"id","type":"uint256"},{"internalType":"string","name":"name","type":"string"},{"internalType":"address","name":"creator","type":"address"},{"internalType":"uint256","name":"startTime","type":"uint256"},{"internalType":"uint256","name":"endTime","type":"uint256"},{"internalType":"uint256","name":"maxParticipants","type":"uint256"},{"internalType":"uint256","name":"currentParticipants","type":"uint256"},{"internalType":"bool","name":"isActive","type":"bool"},{"internalType":"bool","name":"isOnline","type":"bool"},{"internalType":"string","name":"location","type":"string"},{"internalType":"string","name":"additionalDetails","type":"string"}],"stateMutability":"view","type":"function"},{"inputs":[{"internalType":"address","name":"","type":"address"}],"name":"communityMembers","outputs":[{"internalType":"uint256","name":"totalEventsAttended","type":"uint256"},{"internalType":"uint256","name":"totalContributions","type":"uint256"},{"internalType":"enum CommunityBadgeSystem.BadgeLevel","name":"currentBadge","type":"uint8"}],"stateMutability":"view","type":"function"},{"inputs":[],"name":"communityPoolSupply","outputs":[{"internalType":"uint256","name":"","type":"uint256"}],"stateMutability":"view","type":"function"},{"inputs":[],"name":"communityProjectFunds","outputs":[{"internalType":"uint256","name":"","type":"uint256"}],"stateMutability":"view","type":"function"},{"inputs":[{"internalType":"string","name":"_name","type":"string"},{"internalType":"uint256","name":"_startTime","type":"uint256"},{"internalType":"uint256","name":"_endTime","type":"uint256"},{"internalType":"uint256","name":"_maxParticipants","type":"uint256"},{"internalType":"bool","name":"_isOnline","type":"bool"},{"internalType":"string","name":"_location","type":"string"},{"internalType":"string","name":"_additionalDetails","type":"string"}],"name":"createEvent","outputs":[{"internalType":"uint256","name":"","type":"uint256"}],"stateMutability":"nonpayable","type":"function"},{"inputs":[],"name":"decimals","outputs":[{"internalType":"uint8","name":"","type":"uint8"}],"stateMutability":"view","type":"function"},{"inputs":[{"internalType":"uint256","name":"_amount","type":"uint256"},{"internalType":"address[]","name":"earlyAdopters","type":"address[]"}],"name":"distributeAirdrops","outputs":[{"internalType":"bool","name":"","type":"bool"}],"stateMutability":"nonpayable","type":"function"},{"inputs":[{"internalType":"address","name":"_projectAddress","type":"address"},{"internalType":"uint256","name":"_amount","type":"uint256"}],"name":"fundCommunityProjects","outputs":[],"stateMutability":"nonpayable","type":"function"},{"inputs":[],"name":"getAllCommunityEvents","outputs":[{"components":[{"internalType":"uint256","name":"id","type":"uint256"},{"internalType":"string","name":"name","type":"string"},{"internalType":"address","name":"creator","type":"address"},{"internalType":"uint256","name":"startTime","type":"uint256"},{"internalType":"uint256","name":"endTime","type":"uint256"},{"internalType":"uint256","name":"maxParticipants","type":"uint256"},{"internalType":"uint256","name":"currentParticipants","type":"uint256"},{"internalType":"bool","name":"isActive","type":"bool"},{"internalType":"bool","name":"isOnline","type":"bool"},{"internalType":"string","name":"location","type":"string"},{"internalType":"string","name":"additionalDetails","type":"string"}],"internalType":"struct Community.CommunityEvent[]","name":"","type":"tuple[]"}],"stateMutability":"view","type":"function"},{"inputs":[],"name":"getAllCommunityMembers","outputs":[{"internalType":"address[]","name":"","type":"address[]"}],"stateMutability":"view","type":"function"},{"inputs":[{"internalType":"enum CommunityBadgeSystem.BadgeLevel","name":"_level","type":"uint8"}],"name":"getBadgeMetadata","outputs":[{"components":[{"internalType":"string","name":"name","type":"string"},{"internalType":"string","name":"iconURI","type":"string"},{"internalType":"uint256","name":"tokenReward","type":"uint256"}],"internalType":"struct CommunityBadgeSystem.BadgeMetadata","name":"","type":"tuple"}],"stateMutability":"view","type":"function"},{"inputs":[{"internalType":"address","name":"_member","type":"address"}],"name":"getMemberBadge","outputs":[{"internalType":"enum CommunityBadgeSystem.BadgeLevel","name":"","type":"uint8"}],"stateMutability":"view","type":"function"},{"inputs":[{"internalType":"address","name":"_member","type":"address"}],"name":"getMemberBadgeDetails","outputs":[{"internalType":"enum CommunityBadgeSystem.BadgeLevel","name":"currentBadge","type":"uint8"},{"internalType":"string","name":"badgeName","type":"string"},{"internalType":"string","name":"iconURI","type":"string"},{"internalType":"uint256","name":"tokenReward","type":"uint256"},{"internalType":"uint256","name":"totalEventsAttended","type":"uint256"}],"stateMutability":"view","type":"function"},{"inputs":[{"internalType":"bytes32","name":"role","type":"bytes32"}],"name":"getRoleAdmin","outputs":[{"internalType":"bytes32","name":"","type":"bytes32"}],"stateMutability":"view","type":"function"},{"inputs":[{"internalType":"address","name":"_member","type":"address"}],"name":"getTotalEventsAttended","outputs":[{"internalType":"uint256","name":"","type":"uint256"}],"stateMutability":"view","type":"function"},{"inputs":[{"internalType":"bytes32","name":"role","type":"bytes32"},{"internalType":"address","name":"account","type":"address"}],"name":"grantRole","outputs":[],"stateMutability":"nonpayable","type":"function"},{"inputs":[{"internalType":"address","name":"_member","type":"address"},{"internalType":"enum CommunityBadgeSystem.BadgeLevel","name":"_badgeLevel","type":"uint8"}],"name":"hasBadge","outputs":[{"internalType":"bool","name":"","type":"bool"}],"stateMutability":"view","type":"function"},{"inputs":[{"internalType":"bytes32","name":"role","type":"bytes32"},{"internalType":"address","name":"account","type":"address"}],"name":"hasRole","outputs":[{"internalType":"bool","name":"","type":"bool"}],"stateMutability":"view","type":"function"},{"inputs":[{"internalType":"address","name":"","type":"address"}],"name":"isCommunityMember","outputs":[{"internalType":"bool","name":"","type":"bool"}],"stateMutability":"view","type":"function"},{"inputs":[{"internalType":"address","name":"","type":"address"}],"name":"isInReviewerPool","outputs":[{"internalType":"bool","name":"","type":"bool"}],"stateMutability":"view","type":"function"},{"inputs":[{"internalType":"address","name":"account","type":"address"}],"name":"isReviewer","outputs":[{"internalType":"bool","name":"","type":"bool"}],"stateMutability":"view","type":"function"},{"inputs":[],"name":"joinCommunity","outputs":[{"internalType":"bool","name":"","type":"bool"}],"stateMutability":"nonpayable","type":"function"},{"inputs":[{"internalType":"uint256","name":"","type":"uint256"}],"name":"multiSigProposals","outputs":[{"internalType":"uint256","name":"id","type":"uint256"},{"internalType":"address","name":"proposer","type":"address"},{"internalType":"address","name":"targetContract","type":"address"},{"internalType":"bytes","name":"data","type":"bytes"},{"internalType":"uint256","name":"approvalCount","type":"uint256"},{"internalType":"bool","name":"executed","type":"bool"}],"stateMutability":"view","type":"function"},{"inputs":[],"name":"name","outputs":[{"internalType":"string","name":"","type":"string"}],"stateMutability":"view","type":"function"},{"inputs":[{"internalType":"uint256","name":"_eventId","type":"uint256"}],"name":"participateInEvent","outputs":[],"stateMutability":"nonpayable","type":"function"},{"inputs":[{"internalType":"uint256","name":"_amount","type":"uint256"},{"internalType":"address[]","name":"earlyAdopters","type":"address[]"}],"name":"performAirdrop","outputs":[],"stateMutability":"nonpayable","type":"function"},{"inputs":[{"internalType":"address[]","name":"_eligibleAddresses","type":"address[]"},{"internalType":"uint256","name":"_amount","type":"uint256"}],"name":"performPeriodicAirdrop","outputs":[],"stateMutability":"nonpayable","type":"function"},{"inputs":[{"internalType":"address[]","name":"_eligibleAddresses","type":"address[]"},{"internalType":"uint256","name":"_amount","type":"uint256"}],"name":"periodicAirdrops","outputs":[],"stateMutability":"nonpayable","type":"function"},{"inputs":[{"internalType":"address","name":"_contributor","type":"address"},{"internalType":"uint256","name":"_rewardAmount","type":"uint256"}],"name":"processCommunityRewards","outputs":[],"stateMutability":"nonpayable","type":"function"},{"inputs":[{"internalType":"address","name":"reviewer","type":"address"}],"name":"removeReviewer","outputs":[],"stateMutability":"nonpayable","type":"function"},{"inputs":[{"internalType":"bytes32","name":"role","type":"bytes32"},{"internalType":"address","name":"callerConfirmation","type":"address"}],"name":"renounceRole","outputs":[],"stateMutability":"nonpayable","type":"function"},{"inputs":[{"internalType":"uint256","name":"","type":"uint256"}],"name":"reviewerPool","outputs":[{"internalType":"address","name":"","type":"address"}],"stateMutability":"view","type":"function"},{"inputs":[{"internalType":"bytes32","name":"role","type":"bytes32"},{"internalType":"address","name":"account","type":"address"}],"name":"revokeRole","outputs":[],"stateMutability":"nonpayable","type":"function"},{"inputs":[{"internalType":"bytes4","name":"interfaceId","type":"bytes4"}],"name":"supportsInterface","outputs":[{"internalType":"bool","name":"","type":"bool"}],"stateMutability":"view","type":"function"},{"inputs":[],"name":"symbol","outputs":[{"internalType":"string","name":"","type":"string"}],"stateMutability":"view","type":"function"},{"inputs":[],"name":"totalSupply","outputs":[{"internalType":"uint256","name":"","type":"uint256"}],"stateMutability":"view","type":"function"},{"inputs":[{"internalType":"address","name":"to","type":"address"},{"internalType":"uint256","name":"value","type":"uint256"}],"name":"transfer","outputs":[{"internalType":"bool","name":"","type":"bool"}],"stateMutability":"nonpayable","type":"function"},{"inputs":[{"internalType":"address","name":"from","type":"address"},{"internalType":"address","name":"to","type":"address"},{"internalType":"uint256","name":"value","type":"uint256"}],"name":"transferFrom","outputs":[{"internalType":"bool","name":"","type":"bool"}],"stateMutability":"nonpayable","type":"function"},{"inputs":[{"internalType":"address","name":"_projectAddress","type":"address"},{"internalType":"uint256","name":"_amount","type":"uint256"}],"name":"transferFunds","outputs":[],"stateMutability":"nonpayable","type":"function"}],"evm":{"bytecode":{"linkReferences":{},"object":"608060405234801561001057600080fd5b5060405161768438038061768483398181016040528101906100329190610b4d565b806040518060400160405280600a81526020017f4142594120544f4b454e000000000000000000000000000000000000000000008152506040518060400160405280600681526020017f414259544b4e000000000000000000000000000000000000000000000000000081525081600390816100ae9190610db7565b5080600490816100be9190610db7565b505050600160068190555060048151101561010e576040517f08c379a000000000000000000000000000000000000000000000000000000000815260040161010590610f0c565b60405180910390fd5b6101216000801b3361081160201b60201c565b506101527fdf1425bae297c2f52b4f15d18a50b1fc8cb5b981a981b1d213ed3ff92681b64d3361081160201b60201c565b5060005b81518110156102a6576101a97fc10c77be35aff266144ed64c26a1fa104bae2f284ae99ac4a34203454704a18583838151811061019657610195610f2c565b5b602002602001015161081160201b60201c565b5060078282815181106101bf576101be610f2c565b5b60200260200101519080600181540180825580915050600190039060005260206000200160009091909190916101000a81548173ffffffffffffffffffffffffffffffffffffffff021916908373ffffffffffffffffffffffffffffffffffffffff1602179055506001600960008484815181106102405761023f610f2c565b5b602002602001015173ffffffffffffffffffffffffffffffffffffffff1673ffffffffffffffffffffffffffffffffffffffff16815260200190815260200160002060006101000a81548160ff0219169083151502179055508080600101915050610156565b505060405180606001604052806040518060400160405280600881526020017f4e6577636f6d657200000000000000000000000000000000000000000000000081525081526020016040518060400160405280601a81526020017f697066733a2f2f6e6577636f6d65722d62616467652d69636f6e00000000000081525081526020016000815250600c600080600481111561034557610344610f5b565b5b600481111561035757610356610f5b565b5b8152602001908152602001600020600082015181600001908161037a9190610db7565b5060208201518160010190816103909190610db7565b506040820151816002015590505060405180606001604052806040518060400160405280600b81526020017f5061727469636970616e7400000000000000000000000000000000000000000081525081526020016040518060400160405280601d81526020017f697066733a2f2f7061727469636970616e742d62616467652d69636f6e0000008152508152602001670de0b6b3a7640000815250600c60006001600481111561044357610442610f5b565b5b600481111561045557610454610f5b565b5b815260200190815260200160002060008201518160000190816104789190610db7565b50602082015181600101908161048e9190610db7565b506040820151816002015590505060405180606001604052806040518060400160405280600b81526020017f436f6e7472696275746f7200000000000000000000000000000000000000000081525081526020016040518060400160405280601d81526020017f697066733a2f2f636f6e7472696275746f722d62616467652d69636f6e0000008152508152602001671bc16d674ec80000815250600c60006002600481111561054157610540610f5b565b5b600481111561055357610552610f5b565b5b815260200190815260200160002060008201518160000190816105769190610db7565b50602082015181600101908161058c9190610db7565b506040820151816002015590505060405180606001604052806040518060400160405280600681526020017f4c6561646572000000000000000000000000000000000000000000000000000081525081526020016040518060400160405280601881526020017f697066733a2f2f6c65616465722d62616467652d69636f6e000000000000000081525081526020016729a2241af62c0000815250600c60006003600481111561063f5761063e610f5b565b5b600481111561065157610650610f5b565b5b815260200190815260200160002060008201518160000190816106749190610db7565b50602082015181600101908161068a9190610db7565b506040820151816002015590505060405180606001604052806040518060400160405280600881526020017f4368616d70696f6e00000000000000000000000000000000000000000000000081525081526020016040518060400160405280601a81526020017f697066733a2f2f6368616d70696f6e2d62616467652d69636f6e0000000000008152508152602001673782dace9d900000815250600c600060048081111561073c5761073b610f5b565b5b600481111561074e5761074d610f5b565b5b815260200190815260200160002060008201518160000190816107719190610db7565b5060208201518160010190816107879190610db7565b50604082015181600201559050506107a86000801b3361081160201b60201c565b506107d97fc295d8a2f69016465f61012796a38346423f02058e9c426f8bc1d946bc8c84703361081160201b60201c565b5061080a7fdf1425bae297c2f52b4f15d18a50b1fc8cb5b981a981b1d213ed3ff92681b64d3361081160201b60201c565b5050610f8a565b6000610823838361090f60201b60201c565b6109045760016005600085815260200190815260200160002060000160008473ffffffffffffffffffffffffffffffffffffffff1673ffffffffffffffffffffffffffffffffffffffff16815260200190815260200160002060006101000a81548160ff0219169083151502179055506108a161097a60201b60201c565b73ffffffffffffffffffffffffffffffffffffffff168273ffffffffffffffffffffffffffffffffffffffff16847f2f8788117e7eff1d82e926ec794901d17c78024a50270940304540a733656f0d60405160405180910390a460019050610909565b600090505b92915050565b60006005600084815260200190815260200160002060000160008373ffffffffffffffffffffffffffffffffffffffff1673ffffffffffffffffffffffffffffffffffffffff16815260200190815260200160002060009054906101000a900460ff16905092915050565b600033905090565b6000604051905090565b600080fd5b600080fd5b600080fd5b6000601f19601f8301169050919050565b7f4e487b7100000000000000000000000000000000000000000000000000000000600052604160045260246000fd5b6109e48261099b565b810181811067ffffffffffffffff82111715610a0357610a026109ac565b5b80604052505050565b6000610a16610982565b9050610a2282826109db565b919050565b600067ffffffffffffffff821115610a4257610a416109ac565b5b602082029050602081019050919050565b600080fd5b600073ffffffffffffffffffffffffffffffffffffffff82169050919050565b6000610a8382610a58565b9050919050565b610a9381610a78565b8114610a9e57600080fd5b50565b600081519050610ab081610a8a565b92915050565b6000610ac9610ac484610a27565b610a0c565b90508083825260208201905060208402830185811115610aec57610aeb610a53565b5b835b81811015610b155780610b018882610aa1565b845260208401935050602081019050610aee565b5050509392505050565b600082601f830112610b3457610b33610996565b5b8151610b44848260208601610ab6565b91505092915050565b600060208284031215610b6357610b6261098c565b5b600082015167ffffffffffffffff811115610b8157610b80610991565b5b610b8d84828501610b1f565b91505092915050565b600081519050919050565b7f4e487b7100000000000000000000000000000000000000000000000000000000600052602260045260246000fd5b60006002820490506001821680610be857607f821691505b602082108103610bfb57610bfa610ba1565b5b50919050565b60008190508160005260206000209050919050565b60006020601f8301049050919050565b600082821b905092915050565b600060088302610c637fffffffffffffffffffffffffffffffffffffffffffffffffffffffffffffffff82610c26565b610c6d8683610c26565b95508019841693508086168417925050509392505050565b6000819050919050565b6000819050919050565b6000610cb4610caf610caa84610c85565b610c8f565b610c85565b9050919050565b6000819050919050565b610cce83610c99565b610ce2610cda82610cbb565b848454610c33565b825550505050565b600090565b610cf7610cea565b610d02818484610cc5565b505050565b5b81811015610d2657610d1b600082610cef565b600181019050610d08565b5050565b601f821115610d6b57610d3c81610c01565b610d4584610c16565b81016020851015610d54578190505b610d68610d6085610c16565b830182610d07565b50505b505050565b600082821c905092915050565b6000610d8e60001984600802610d70565b1980831691505092915050565b6000610da78383610d7d565b9150826002028217905092915050565b610dc082610b96565b67ffffffffffffffff811115610dd957610dd86109ac565b5b610de38254610bd0565b610dee828285610d2a565b600060209050601f831160018114610e215760008415610e0f578287015190505b610e198582610d9b565b865550610e81565b601f198416610e2f86610c01565b60005b82811015610e5757848901518255600182019150602085019450602081019050610e32565b86831015610e745784890151610e70601f891682610d7d565b8355505b6001600288020188555050505b505050505050565b600082825260208201905092915050565b7f4174206c6561737420342072657669657765727320617265207265717569726560008201527f6400000000000000000000000000000000000000000000000000000000000000602082015250565b6000610ef6602183610e89565b9150610f0182610e9a565b604082019050919050565b60006020820190508181036000830152610f2581610ee9565b9050919050565b7f4e487b7100000000000000000000000000000000000000000000000000000000600052603260045260246000fd5b7f4e487b7100000000000000000000000000000000000000000000000000000000600052602160045260246000fd5b6166eb80610f996000396000f3fe608060405234801561001057600080fd5b50600436106103ae5760003560e01c806361ac05e2116101f4578063b51934251161011a578063d7b999c7116100ad578063fba2e3101161007c578063fba2e31014610bea578063fd55dd9214610c1a578063fdc6258a14610c38578063ff4d712814610c68576103ae565b8063d7b999c714610b62578063dcdc510c14610b80578063dd62ed3e14610b9e578063fad2c5f214610bce576103ae565b8063c9442dac116100e9578063c9442dac14610adc578063ca98e49e14610af8578063d171d04914610b28578063d547741f14610b46576103ae565b8063b519342514610a54578063bad0dd6514610a72578063bfa0536114610a8e578063c491b04c14610aac576103ae565b80638c95aef911610192578063990dc9db11610161578063990dc9db146109cc578063a217fddf146109e8578063a9059cbb14610a06578063aeb47e2a14610a36576103ae565b80638c95aef91461091c578063914e72a61461094e57806391d148541461097e57806395d89b41146109ae576103ae565b806370a08231116101ce57806370a08231146108805780637125a07b146108b057806373a82b5f146108e45780637ac6692214610900576103ae565b806361ac05e21461081257806361ac7e61146108305780637025aac61461084e576103ae565b80632899df2b116102d957806336568abe116102775780634e860496116102465780634e8604961461079457806350447e5e146107b057806352994e2f146107ba5780635fc61001146107d8576103ae565b806336568abe146106f55780633af0c688146107115780633b129a561461074157806340932bf81461075f576103ae565b8063313ce567116102b3578063313ce5671461066b57806332cb6b0c146106895780633387f0c5146106a7578063354c4e13146106c5576103ae565b80632899df2b146105ef5780632f2ff15d1461061f5780632f676b651461063b576103ae565b806318160ddd116103515780632298de01116103205780632298de011461052f57806323b872dd1461055f578063248a9ca31461058f578063248cd810146105bf576103ae565b806318160ddd146104a757806318a8c3f2146104c557806319f102ec146104e15780631e3edfd914610511576103ae565b8063095ea7b31161038d578063095ea7b31461041f5780630ed1d5cb1461044f5780630fb6d46a1461046d57806315f42df41461048b576103ae565b8062b16fee146103b357806301ffc9a7146103d157806306fdde0314610401575b600080fd5b6103bb610c84565b6040516103c89190614619565b60405180910390f35b6103eb60048036038101906103e691906146a0565b610e21565b6040516103f89190614619565b60405180910390f35b610409610e9b565b604051610416919061475d565b60405180910390f35b61043960048036038101906104349190614813565b610f2d565b6040516104469190614619565b60405180910390f35b610457610f50565b6040516104649190614862565b60405180910390f35b610475610f55565b6040516104829190614862565b60405180910390f35b6104a560048036038101906104a091906149c5565b610f5a565b005b6104af610f9d565b6040516104bc9190614862565b60405180910390f35b6104df60048036038101906104da91906149c5565b610fa7565b005b6104fb60048036038101906104f69190614a21565b6110ba565b6040516105089190614a5d565b60405180910390f35b6105196110f9565b6040516105269190614862565b60405180910390f35b61054960048036038101906105449190614a21565b611105565b6040516105569190614a5d565b60405180910390f35b61057960048036038101906105749190614a78565b611144565b6040516105869190614619565b60405180910390f35b6105a960048036038101906105a49190614b01565b611173565b6040516105b69190614b3d565b60405180910390f35b6105d960048036038101906105d49190614c39565b611193565b6040516105e69190614862565b60405180910390f35b61060960048036038101906106049190614d54565b611316565b6040516106169190614e31565b60405180910390f35b61063960048036038101906106349190614e53565b611495565b005b61065560048036038101906106509190614e93565b6114b7565b6040516106629190614619565b60405180910390f35b6106736114d7565b6040516106809190614edc565b60405180910390f35b6106916114e0565b60405161069e9190614862565b60405180910390f35b6106af6114f0565b6040516106bc9190614fb5565b60405180910390f35b6106df60048036038101906106da9190614fd7565b61157e565b6040516106ec9190614619565b60405180910390f35b61070f600480360381019061070a9190614e53565b6116ea565b005b61072b60048036038101906107269190615033565b611765565b6040516107389190614619565b60405180910390f35b6107496117e6565b6040516107569190614b3d565b60405180910390f35b61077960048036038101906107749190614a21565b61180a565b60405161078b969594939291906150c8565b60405180910390f35b6107ae60048036038101906107a99190614a21565b61191b565b005b6107b8611aa6565b005b6107c2611b0f565b6040516107cf9190614b3d565b60405180910390f35b6107f260048036038101906107ed9190614a21565b611b33565b6040516108099b9a99989796959493929190615130565b60405180910390f35b61081a611d5f565b6040516108279190614862565b60405180910390f35b610838611d9f565b6040516108459190614b3d565b60405180910390f35b61086860048036038101906108639190614d54565b611dc3565b604051610877939291906151f0565b60405180910390f35b61089a60048036038101906108959190614e93565b611efd565b6040516108a79190614862565b60405180910390f35b6108ca60048036038101906108c59190614e93565b611f45565b6040516108db9594939291906152ac565b60405180910390f35b6108fe60048036038101906108f99190614e93565b612145565b005b61091a60048036038101906109159190614813565b612329565b005b61093660048036038101906109319190614e93565b61256a565b6040516109459392919061530d565b60405180910390f35b61096860048036038101906109639190614e93565b6125a1565b6040516109759190614862565b60405180910390f35b61099860048036038101906109939190614e53565b6125ed565b6040516109a59190614619565b60405180910390f35b6109b6612658565b6040516109c3919061475d565b60405180910390f35b6109e660048036038101906109e19190614813565b6126ea565b005b6109f0612804565b6040516109fd9190614b3d565b60405180910390f35b610a206004803603810190610a1b9190614813565b61280b565b604051610a2d9190614619565b60405180910390f35b610a3e61282e565b604051610a4b9190614862565b60405180910390f35b610a5c612856565b604051610a699190614862565b60405180910390f35b610a8c6004803603810190610a879190614a21565b61285b565b005b610a96612b5a565b604051610aa39190614862565b60405180910390f35b610ac66004803603810190610ac19190614e93565b612b5f565b604051610ad39190614619565b60405180910390f35b610af66004803603810190610af19190614e93565b612b7f565b005b610b126004803603810190610b0d9190614e93565b612e69565b604051610b1f9190615344565b60405180910390f35b610b30612ec2565b604051610b3d9190614862565b60405180910390f35b610b606004803603810190610b5b9190614e53565b612ec8565b005b610b6a612eea565b604051610b779190614862565b60405180910390f35b610b88612ef0565b604051610b95919061552d565b60405180910390f35b610bb86004803603810190610bb3919061554f565b613223565b604051610bc59190614862565b60405180910390f35b610be86004803603810190610be39190614813565b6132aa565b005b610c046004803603810190610bff9190614e93565b61337d565b604051610c119190614862565b60405180910390f35b610c22613395565b604051610c2f9190615344565b60405180910390f35b610c526004803603810190610c4d9190614e93565b6133a5565b604051610c5f9190614619565b60405180910390f35b610c826004803603810190610c7d9190614fd7565b6133d8565b005b6000601160003373ffffffffffffffffffffffffffffffffffffffff1673ffffffffffffffffffffffffffffffffffffffff16815260200190815260200160002060009054906101000a900460ff1615610d13576040517f08c379a0000000000000000000000000000000000000000000000000000000008152600401610d0a906155db565b60405180910390fd5b6014339080600181540180825580915050600190039060005260206000200160009091909190916101000a81548173ffffffffffffffffffffffffffffffffffffffff021916908373ffffffffffffffffffffffffffffffffffffffff1602179055506001601160003373ffffffffffffffffffffffffffffffffffffffff1673ffffffffffffffffffffffffffffffffffffffff16815260200190815260200160002060006101000a81548160ff021916908315150217905550610dd733613454565b3373ffffffffffffffffffffffffffffffffffffffff167f49b628a727a909471e7c6bcba2122134da6a8e649acce3b2cd8df34ffb98c86c60405160405180910390a26001905090565b60007f7965db0b000000000000000000000000000000000000000000000000000000007bffffffffffffffffffffffffffffffffffffffffffffffffffffffff1916827bffffffffffffffffffffffffffffffffffffffffffffffffffffffff19161480610e945750610e938261351a565b5b9050919050565b606060038054610eaa9061562a565b80601f0160208091040260200160405190810160405280929190818152602001828054610ed69061562a565b8015610f235780601f10610ef857610100808354040283529160200191610f23565b820191906000526020600020905b815481529060010190602001808311610f0657829003601f168201915b5050505050905090565b600080610f38613584565b9050610f4581858561358c565b600191505092915050565b600381565b600181565b60005b8251811015610f9857610f8a838281518110610f7c57610f7b61565b565b5b60200260200101518361359e565b508080600101915050610f5d565b505050565b6000600254905090565b7fc295d8a2f69016465f61012796a38346423f02058e9c426f8bc1d946bc8c8470610fd1816136fa565b6000835111611015576040517f08c379a000000000000000000000000000000000000000000000000000000000815260040161100c906156d6565b60405180910390fd5b6000838360405160240161102a9291906156f6565b6040516020818303038152906040527f15f42df4000000000000000000000000000000000000000000000000000000007bffffffffffffffffffffffffffffffffffffffffffffffffffffffff19166020820180517bffffffffffffffffffffffffffffffffffffffffffffffffffffffff838183161783525050505090506110b3308261370e565b5050505050565b600781815481106110ca57600080fd5b906000526020600020016000915054906101000a900473ffffffffffffffffffffffffffffffffffffffff1681565b6729a2241af62c000081565b6014818154811061111557600080fd5b906000526020600020016000915054906101000a900473ffffffffffffffffffffffffffffffffffffffff1681565b60008061114f613584565b905061115c8582856138fd565b611167858585613992565b60019150509392505050565b600060056000838152602001908152602001600020600101549050919050565b60007fc295d8a2f69016465f61012796a38346423f02058e9c426f8bc1d946bc8c84706111bf816136fa565b6000601260008154809291906111d490615755565b9190505590506000600f600083815260200190815260200160002090508181600001819055508a81600101908161120b9190615949565b50338160020160006101000a81548173ffffffffffffffffffffffffffffffffffffffff021916908373ffffffffffffffffffffffffffffffffffffffff16021790555089816003018190555088816004018190555087816005018190555060018160070160006101000a81548160ff021916908315150217905550868160070160016101000a81548160ff021916908315150217905550858160080190816112b49190615949565b50848160090190816112c69190615949565b50817fec38f747b0aa7c21a8a9bdec175eb246baf6e36e70d7e24434e272b2ba6a362a8c338a8a6040516112fd9493929190615a1b565b60405180910390a2819350505050979650505050505050565b61131e614569565b600c600083600481111561133557611334615235565b5b600481111561134757611346615235565b5b81526020019081526020016000206040518060600160405290816000820180546113709061562a565b80601f016020809104026020016040519081016040528092919081815260200182805461139c9061562a565b80156113e95780601f106113be576101008083540402835291602001916113e9565b820191906000526020600020905b8154815290600101906020018083116113cc57829003601f168201915b505050505081526020016001820180546114029061562a565b80601f016020809104026020016040519081016040528092919081815260200182805461142e9061562a565b801561147b5780601f106114505761010080835404028352916020019161147b565b820191906000526020600020905b81548152906001019060200180831161145e57829003601f168201915b505050505081526020016002820154815250509050919050565b61149e82611173565b6114a7816136fa565b6114b18383613a86565b50505050565b60116020528060005260406000206000915054906101000a900460ff1681565b60006012905090565b6b204fce5e3e2502611000000081565b6060601480548060200260200160405190810160405280929190818152602001828054801561157457602002820191906000526020600020905b8160009054906101000a900473ffffffffffffffffffffffffffffffffffffffff1673ffffffffffffffffffffffffffffffffffffffff168152602001906001019080831161152a575b5050505050905090565b60007fc295d8a2f69016465f61012796a38346423f02058e9c426f8bc1d946bc8c84706115aa816136fa565b60026064600a6b204fce5e3e250261100000006115c79190615a6e565b6115d19190615adf565b6115db9190615adf565b6115e3613b78565b8585516115f09190615a6e565b6115fa9190615b10565b111561163b576040517f08c379a000000000000000000000000000000000000000000000000000000000815260040161163290615b90565b60405180910390fd5b60008484604051602401611650929190615bb0565b6040516020818303038152906040527fff4d7128000000000000000000000000000000000000000000000000000000007bffffffffffffffffffffffffffffffffffffffffffffffffffffffff19166020820180517bffffffffffffffffffffffffffffffffffffffffffffffffffffffff8381831617835250505050905060006116db308361370e565b90506001935050505092915050565b6116f2613584565b73ffffffffffffffffffffffffffffffffffffffff168173ffffffffffffffffffffffffffffffffffffffff1614611756576040517f6697b23200000000000000000000000000000000000000000000000000000000815260040160405180910390fd5b6117608282613b82565b505050565b600081600481111561177a57611779615235565b5b600b60008573ffffffffffffffffffffffffffffffffffffffff1673ffffffffffffffffffffffffffffffffffffffff16815260200190815260200160002060020160009054906101000a900460ff1660048111156117dc576117db615235565b5b1015905092915050565b7fc10c77be35aff266144ed64c26a1fa104bae2f284ae99ac4a34203454704a18581565b600a6020528060005260406000206000915090508060000154908060010160009054906101000a900473ffffffffffffffffffffffffffffffffffffffff16908060020160009054906101000a900473ffffffffffffffffffffffffffffffffffffffff169080600301805461187f9061562a565b80601f01602080910402602001604051908101604052809291908181526020018280546118ab9061562a565b80156118f85780601f106118cd576101008083540402835291602001916118f8565b820191906000526020600020905b8154815290600101906020018083116118db57829003601f168201915b5050505050908060040154908060050160009054906101000a900460ff16905086565b611923613c75565b6000600f600083815260200190815260200160002090508060070160009054906101000a900460ff1661198b576040517f08c379a000000000000000000000000000000000000000000000000000000000815260040161198290615c2c565b60405180910390fd5b806003015442101580156119a3575080600401544211155b6119e2576040517f08c379a00000000000000000000000000000000000000000000000000000000081526004016119d990615c98565b60405180910390fd5b8060050154816006015410611a2c576040517f08c379a0000000000000000000000000000000000000000000000000000000008152600401611a2390615d04565b60405180910390fd5b806006016000815480929190611a4190615755565b9190505550611a4f33613454565b611a61336729a2241af62c000061359e565b50817f1f74d05223b014a6b1d3023900443d2b2a4a803f39310427d60b87fc476dac0333604051611a929190614a5d565b60405180910390a250611aa3613cbb565b50565b6000600b60003373ffffffffffffffffffffffffffffffffffffffff1673ffffffffffffffffffffffffffffffffffffffff16815260200190815260200160002090506000611af433613cc5565b90506000811115611b0b57611b09338261359e565b505b5050565b7fdf1425bae297c2f52b4f15d18a50b1fc8cb5b981a981b1d213ed3ff92681b64d81565b600f602052806000526040600020600091509050806000015490806001018054611b5c9061562a565b80601f0160208091040260200160405190810160405280929190818152602001828054611b889061562a565b8015611bd55780601f10611baa57610100808354040283529160200191611bd5565b820191906000526020600020905b815481529060010190602001808311611bb857829003601f168201915b5050505050908060020160009054906101000a900473ffffffffffffffffffffffffffffffffffffffff16908060030154908060040154908060050154908060060154908060070160009054906101000a900460ff16908060070160019054906101000a900460ff1690806008018054611c4e9061562a565b80601f0160208091040260200160405190810160405280929190818152602001828054611c7a9061562a565b8015611cc75780601f10611c9c57610100808354040283529160200191611cc7565b820191906000526020600020905b815481529060010190602001808311611caa57829003601f168201915b505050505090806009018054611cdc9061562a565b80601f0160208091040260200160405190810160405280929190818152602001828054611d089061562a565b8015611d555780601f10611d2a57610100808354040283529160200191611d55565b820191906000526020600020905b815481529060010190602001808311611d3857829003601f168201915b505050505090508b565b606460056064600a6b204fce5e3e25026110000000611d7e9190615a6e565b611d889190615adf565b611d929190615a6e565b611d9c9190615adf565b81565b7fc295d8a2f69016465f61012796a38346423f02058e9c426f8bc1d946bc8c847081565b600c602052806000526040600020600091509050806000018054611de69061562a565b80601f0160208091040260200160405190810160405280929190818152602001828054611e129061562a565b8015611e5f5780601f10611e3457610100808354040283529160200191611e5f565b820191906000526020600020905b815481529060010190602001808311611e4257829003601f168201915b505050505090806001018054611e749061562a565b80601f0160208091040260200160405190810160405280929190818152602001828054611ea09061562a565b8015611eed5780601f10611ec257610100808354040283529160200191611eed565b820191906000526020600020905b815481529060010190602001808311611ed057829003601f168201915b5050505050908060020154905083565b60008060008373ffffffffffffffffffffffffffffffffffffffff1673ffffffffffffffffffffffffffffffffffffffff168152602001908152602001600020549050919050565b60006060806000806000600b60008873ffffffffffffffffffffffffffffffffffffffff1673ffffffffffffffffffffffffffffffffffffffff168152602001908152602001600020905060008160020160009054906101000a900460ff1690506000600c6000836004811115611fbf57611fbe615235565b5b6004811115611fd157611fd0615235565b5b8152602001908152602001600020604051806060016040529081600082018054611ffa9061562a565b80601f01602080910402602001604051908101604052809291908181526020018280546120269061562a565b80156120735780601f1061204857610100808354040283529160200191612073565b820191906000526020600020905b81548152906001019060200180831161205657829003601f168201915b5050505050815260200160018201805461208c9061562a565b80601f01602080910402602001604051908101604052809291908181526020018280546120b89061562a565b80156121055780601f106120da57610100808354040283529160200191612105565b820191906000526020600020905b8154815290600101906020018083116120e857829003601f168201915b5050505050815260200160028201548152505090508181600001518260200151836040015186600001549750975097509750975050505091939590929450565b7fc10c77be35aff266144ed64c26a1fa104bae2f284ae99ac4a34203454704a18561216f816136fa565b600960008373ffffffffffffffffffffffffffffffffffffffff1673ffffffffffffffffffffffffffffffffffffffff16815260200190815260200160002060009054906101000a900460ff16156121fc576040517f08c379a00000000000000000000000000000000000000000000000000000000081526004016121f390615d70565b60405180910390fd5b6122267fc10c77be35aff266144ed64c26a1fa104bae2f284ae99ac4a34203454704a18583613a86565b506007829080600181540180825580915050600190039060005260206000200160009091909190916101000a81548173ffffffffffffffffffffffffffffffffffffffff021916908373ffffffffffffffffffffffffffffffffffffffff1602179055506001600960008473ffffffffffffffffffffffffffffffffffffffff1673ffffffffffffffffffffffffffffffffffffffff16815260200190815260200160002060006101000a81548160ff0219169083151502179055508173ffffffffffffffffffffffffffffffffffffffff167fe1cb5e1230cc02e62c60b81c1aa5ade512f3eac296edb28628b4cf344f47f93160405160405180910390a25050565b7fc295d8a2f69016465f61012796a38346423f02058e9c426f8bc1d946bc8c8470612353816136fa565b606460056064600a6b204fce5e3e250261100000006123729190615a6e565b61237c9190615adf565b6123869190615a6e565b6123909190615adf565b8211156123d2576040517f08c379a00000000000000000000000000000000000000000000000000000000081526004016123c990615ddc565b60405180910390fd5b606460056064600a6b204fce5e3e250261100000006123f19190615a6e565b6123fb9190615adf565b6124059190615a6e565b61240f9190615adf565b82600e5461241d9190615b10565b111561245e576040517f08c379a000000000000000000000000000000000000000000000000000000000815260040161245590615e6e565b60405180910390fd5b60008383604051602401612473929190615e8e565b6040516020818303038152906040527f990dc9db000000000000000000000000000000000000000000000000000000007bffffffffffffffffffffffffffffffffffffffffffffffffffffffff19166020820180517bffffffffffffffffffffffffffffffffffffffffffffffffffffffff838183161783525050505090506124fc308261370e565b5082600e600082825461250f9190615b10565b925050819055508373ffffffffffffffffffffffffffffffffffffffff167fe15b96646136ede2ea2abfc9baa96fbbab0c3d44e1750c3defc005a4492a691b8460405161255c9190614862565b60405180910390a250505050565b600b6020528060005260406000206000915090508060000154908060010154908060020160009054906101000a900460ff16905083565b6000600b60008373ffffffffffffffffffffffffffffffffffffffff1673ffffffffffffffffffffffffffffffffffffffff168152602001908152602001600020600001549050919050565b60006005600084815260200190815260200160002060000160008373ffffffffffffffffffffffffffffffffffffffff1673ffffffffffffffffffffffffffffffffffffffff16815260200190815260200160002060009054906101000a900460ff16905092915050565b6060600480546126679061562a565b80601f01602080910402602001604051908101604052809291908181526020018280546126939061562a565b80156126e05780601f106126b5576101008083540402835291602001916126e0565b820191906000526020600020905b8154815290600101906020018083116126c357829003601f168201915b5050505050905090565b6127147fc295d8a2f69016465f61012796a38346423f02058e9c426f8bc1d946bc8c8470336125ed565b612753576040517f08c379a000000000000000000000000000000000000000000000000000000000815260040161274a90615f03565b60405180910390fd5b60008273ffffffffffffffffffffffffffffffffffffffff168260405161277990615f54565b60006040518083038185875af1925050503d80600081146127b6576040519150601f19603f3d011682016040523d82523d6000602084013e6127bb565b606091505b50509050806127ff576040517f08c379a00000000000000000000000000000000000000000000000000000000081526004016127f690615fb5565b60405180910390fd5b505050565b6000801b81565b600080612816613584565b9050612823818585613992565b600191505092915050565b6064600a6b204fce5e3e250261100000006128499190615a6e565b6128539190615adf565b81565b600581565b7fdf1425bae297c2f52b4f15d18a50b1fc8cb5b981a981b1d213ed3ff92681b64d612885816136fa565b6000600a600084815260200190815260200160002090508060050160009054906101000a900460ff16156128ee576040517f08c379a00000000000000000000000000000000000000000000000000000000081526004016128e590616021565b60405180910390fd5b8060060160003373ffffffffffffffffffffffffffffffffffffffff1673ffffffffffffffffffffffffffffffffffffffff16815260200190815260200160002060009054906101000a900460ff161561297d576040517f08c379a00000000000000000000000000000000000000000000000000000000081526004016129749061608d565b60405180910390fd5b60018160060160003373ffffffffffffffffffffffffffffffffffffffff1673ffffffffffffffffffffffffffffffffffffffff16815260200190815260200160002060006101000a81548160ff0219169083151502179055508060040160008154809291906129ec90615755565b9190505550827f5d4ccf5f92566d140246f4ae3b9cb35dc06fff109a7748602ad77f6260fd9a6133604051612a219190614a5d565b60405180910390a26003816004015410612b555760008160020160009054906101000a900473ffffffffffffffffffffffffffffffffffffffff1673ffffffffffffffffffffffffffffffffffffffff1682600301604051612a839190616145565b6000604051808303816000865af19150503d8060008114612ac0576040519150601f19603f3d011682016040523d82523d6000602084013e612ac5565b606091505b5050905080612b09576040517f08c379a0000000000000000000000000000000000000000000000000000000008152600401612b00906161a8565b60405180910390fd5b60018260050160006101000a81548160ff021916908315150217905550837f7770356c29230b95943aec59d47ead11eb426a728bf5b57f7fd8597f3c0e29ba60405160405180910390a2505b505050565b600a81565b60096020528060005260406000206000915054906101000a900460ff1681565b6000801b612b8c816136fa565b600960008373ffffffffffffffffffffffffffffffffffffffff1673ffffffffffffffffffffffffffffffffffffffff16815260200190815260200160002060009054906101000a900460ff16612c18576040517f08c379a0000000000000000000000000000000000000000000000000000000008152600401612c0f90616214565b60405180910390fd5b60005b600780549050811015612d9e578273ffffffffffffffffffffffffffffffffffffffff1660078281548110612c5357612c5261565b565b5b9060005260206000200160009054906101000a900473ffffffffffffffffffffffffffffffffffffffff1673ffffffffffffffffffffffffffffffffffffffff1603612d915760076001600780549050612cad9190616234565b81548110612cbe57612cbd61565b565b5b9060005260206000200160009054906101000a900473ffffffffffffffffffffffffffffffffffffffff1660078281548110612cfd57612cfc61565b565b5b9060005260206000200160006101000a81548173ffffffffffffffffffffffffffffffffffffffff021916908373ffffffffffffffffffffffffffffffffffffffff1602179055506007805480612d5757612d56616268565b5b6001900381819060005260206000200160006101000a81549073ffffffffffffffffffffffffffffffffffffffff02191690559055612d9e565b8080600101915050612c1b565b506000600960008473ffffffffffffffffffffffffffffffffffffffff1673ffffffffffffffffffffffffffffffffffffffff16815260200190815260200160002060006101000a81548160ff021916908315150217905550612e217fc10c77be35aff266144ed64c26a1fa104bae2f284ae99ac4a34203454704a18583613b82565b508173ffffffffffffffffffffffffffffffffffffffff167f55dba9d79522b91b615629d5f3b10c2fad2d258f1768614f4a52e937ada0d0ba60405160405180910390a25050565b6000600b60008373ffffffffffffffffffffffffffffffffffffffff1673ffffffffffffffffffffffffffffffffffffffff16815260200190815260200160002060020160009054906101000a900460ff169050919050565b600d5481565b612ed182611173565b612eda816136fa565b612ee48383613b82565b50505050565b600e5481565b60606000601254905060008167ffffffffffffffff811115612f1557612f14614882565b5b604051908082528060200260200182016040528015612f4e57816020015b612f3b61458a565b815260200190600190039081612f335790505b50905060005b8281101561321a57600f60008281526020019081526020016000206040518061016001604052908160008201548152602001600182018054612f959061562a565b80601f0160208091040260200160405190810160405280929190818152602001828054612fc19061562a565b801561300e5780601f10612fe35761010080835404028352916020019161300e565b820191906000526020600020905b815481529060010190602001808311612ff157829003601f168201915b505050505081526020016002820160009054906101000a900473ffffffffffffffffffffffffffffffffffffffff1673ffffffffffffffffffffffffffffffffffffffff1673ffffffffffffffffffffffffffffffffffffffff168152602001600382015481526020016004820154815260200160058201548152602001600682015481526020016007820160009054906101000a900460ff161515151581526020016007820160019054906101000a900460ff161515151581526020016008820180546130db9061562a565b80601f01602080910402602001604051908101604052809291908181526020018280546131079061562a565b80156131545780601f1061312957610100808354040283529160200191613154565b820191906000526020600020905b81548152906001019060200180831161313757829003601f168201915b5050505050815260200160098201805461316d9061562a565b80601f01602080910402602001604051908101604052809291908181526020018280546131999061562a565b80156131e65780601f106131bb576101008083540402835291602001916131e6565b820191906000526020600020905b8154815290600101906020018083116131c957829003601f168201915b5050505050815250508282815181106132025761320161565b565b5b60200260200101819052508080600101915050612f54565b50809250505090565b6000600160008473ffffffffffffffffffffffffffffffffffffffff1673ffffffffffffffffffffffffffffffffffffffff16815260200190815260200160002060008373ffffffffffffffffffffffffffffffffffffffff1673ffffffffffffffffffffffffffffffffffffffff16815260200190815260200160002054905092915050565b7fc295d8a2f69016465f61012796a38346423f02058e9c426f8bc1d946bc8c84706132d4816136fa565b60008211613317576040517f08c379a000000000000000000000000000000000000000000000000000000000815260040161330e906162e3565b60405180910390fd5b613321838361359e565b5081601060008573ffffffffffffffffffffffffffffffffffffffff1673ffffffffffffffffffffffffffffffffffffffff16815260200190815260200160002060008282546133719190615b10565b92505081905550505050565b60106020528060005260406000206000915090505481565b60006133a033612e69565b905090565b60006133d17fc10c77be35aff266144ed64c26a1fa104bae2f284ae99ac4a34203454704a185836125ed565b9050919050565b60005b8151811015613416576134088282815181106133fa576133f961565b565b5b60200260200101518461359e565b5080806001019150506133db565b50817fb88d01f589e949ad7233aadbcfbadcca2b7f247555fa6423bc3d5d2563bd156382516040516134489190614862565b60405180910390a25050565b61345d81613ec4565b6000600b60008373ffffffffffffffffffffffffffffffffffffffff1673ffffffffffffffffffffffffffffffffffffffff16815260200190815260200160002090508060000160008154809291906134b590615755565b91905055506134c382613cc5565b508173ffffffffffffffffffffffffffffffffffffffff167ff18beef583f71b01f816b888b2fb4012abc44a95618cbc737287866909e7abd7826000015460405161350e9190614862565b60405180910390a25050565b60007f01ffc9a7000000000000000000000000000000000000000000000000000000007bffffffffffffffffffffffffffffffffffffffffffffffffffffffff1916827bffffffffffffffffffffffffffffffffffffffffffffffffffffffff1916149050919050565b600033905090565b6135998383836001613fdf565b505050565b60006064600a6b204fce5e3e250261100000006135bb9190615a6e565b6135c59190615adf565b6135cd613b78565b836135d89190615b10565b1115613619576040517f08c379a000000000000000000000000000000000000000000000000000000000815260040161361090616375565b60405180910390fd5b600073ffffffffffffffffffffffffffffffffffffffff168373ffffffffffffffffffffffffffffffffffffffff1603613688576040517f08c379a000000000000000000000000000000000000000000000000000000000815260040161367f90616407565b60405180910390fd5b61369283836141b6565b5081600d60008282546136a59190615b10565b92505081905550818373ffffffffffffffffffffffffffffffffffffffff167fffd50653ccb3020c797c5cba8c53bebb40e00eeb76593dedcf4a157b3ea6cb5160405160405180910390a36001905092915050565b61370b81613706613584565b614271565b50565b60007fdf1425bae297c2f52b4f15d18a50b1fc8cb5b981a981b1d213ed3ff92681b64d61373a816136fa565b7fc10c77be35aff266144ed64c26a1fa104bae2f284ae99ac4a34203454704a185613764816136fa565b60006008600081548092919061377990615755565b9190505590506000600a60008381526020019081526020016000209050818160000181905550338160010160006101000a81548173ffffffffffffffffffffffffffffffffffffffff021916908373ffffffffffffffffffffffffffffffffffffffff160217905550868160020160006101000a81548173ffffffffffffffffffffffffffffffffffffffff021916908373ffffffffffffffffffffffffffffffffffffffff16021790555085816003019081613836919061646d565b506001816004018190555060008160050160006101000a81548160ff02191690831515021790555060018160060160003373ffffffffffffffffffffffffffffffffffffffff1673ffffffffffffffffffffffffffffffffffffffff16815260200190815260200160002060006101000a81548160ff021916908315150217905550817fbcc43907be1d435f496e2233697a9a9fead2fb5639dac8459c53d7114829b8be336040516138e89190614a5d565b60405180910390a28194505050505092915050565b60006139098484613223565b90507fffffffffffffffffffffffffffffffffffffffffffffffffffffffffffffffff81101561398c578181101561397c578281836040517ffb8f41b20000000000000000000000000000000000000000000000000000000081526004016139739392919061653f565b60405180910390fd5b61398b84848484036000613fdf565b5b50505050565b600073ffffffffffffffffffffffffffffffffffffffff168373ffffffffffffffffffffffffffffffffffffffff1603613a045760006040517f96c6fd1e0000000000000000000000000000000000000000000000000000000081526004016139fb9190614a5d565b60405180910390fd5b600073ffffffffffffffffffffffffffffffffffffffff168273ffffffffffffffffffffffffffffffffffffffff1603613a765760006040517fec442f05000000000000000000000000000000000000000000000000000000008152600401613a6d9190614a5d565b60405180910390fd5b613a818383836142c2565b505050565b6000613a9283836125ed565b613b6d5760016005600085815260200190815260200160002060000160008473ffffffffffffffffffffffffffffffffffffffff1673ffffffffffffffffffffffffffffffffffffffff16815260200190815260200160002060006101000a81548160ff021916908315150217905550613b0a613584565b73ffffffffffffffffffffffffffffffffffffffff168273ffffffffffffffffffffffffffffffffffffffff16847f2f8788117e7eff1d82e926ec794901d17c78024a50270940304540a733656f0d60405160405180910390a460019050613b72565b600090505b92915050565b6000600d54905090565b6000613b8e83836125ed565b15613c6a5760006005600085815260200190815260200160002060000160008473ffffffffffffffffffffffffffffffffffffffff1673ffffffffffffffffffffffffffffffffffffffff16815260200190815260200160002060006101000a81548160ff021916908315150217905550613c07613584565b73ffffffffffffffffffffffffffffffffffffffff168273ffffffffffffffffffffffffffffffffffffffff16847ff6391f5c32d9c69d2a47ea670b442974b53935d1edc7fd64eb21e047a839171b60405160405180910390a460019050613c6f565b600090505b92915050565b600260065403613cb1576040517f3ee5aeb500000000000000000000000000000000000000000000000000000000815260040160405180910390fd5b6002600681905550565b6001600681905550565b600080600b60008473ffffffffffffffffffffffffffffffffffffffff1673ffffffffffffffffffffffffffffffffffffffff168152602001908152602001600020905060008160020160009054906101000a900460ff1690506000600a836000015410613d365760049050613d7d565b6005836000015410613d4b5760039050613d7c565b6003836000015410613d605760029050613d7b565b6001836000015410613d755760019050613d7a565b600090505b5b5b5b816004811115613d9057613d8f615235565b5b816004811115613da357613da2615235565b5b14613ebc57808360020160006101000a81548160ff02191690836004811115613dcf57613dce615235565b5b0217905550600c6000826004811115613deb57613dea615235565b5b6004811115613dfd57613dfc615235565b5b815260200190815260200160002060020154935060008582604051602001613e269291906165f4565b604051602081830303815290604052805190602001209050600184600301600083815260200190815260200160002060006101000a81548160ff0219169083151502179055508573ffffffffffffffffffffffffffffffffffffffff167f285a0f2deff4dbdd3719bae595cb2c8b27a45f0814e4db2b1946ab8df9bc548b83604051613eb29190615344565b60405180910390a2505b505050919050565b6000600b60008373ffffffffffffffffffffffffffffffffffffffff1673ffffffffffffffffffffffffffffffffffffffff168152602001908152602001600020905060006004811115613f1b57613f1a615235565b5b6004811115613f2d57613f2c615235565b5b8160020160009054906101000a900460ff166004811115613f5157613f50615235565b5b03613fdb5760008160020160006101000a81548160ff02191690836004811115613f7e57613f7d615235565b5b021790555060008160000181905550600081600101819055508173ffffffffffffffffffffffffffffffffffffffff167f92fabfa210df88d92c2f5a07ddd43a985b208d8b19b7a78ba1284aa4b287d86260405160405180910390a25b5050565b600073ffffffffffffffffffffffffffffffffffffffff168473ffffffffffffffffffffffffffffffffffffffff16036140515760006040517fe602df050000000000000000000000000000000000000000000000000000000081526004016140489190614a5d565b60405180910390fd5b600073ffffffffffffffffffffffffffffffffffffffff168373ffffffffffffffffffffffffffffffffffffffff16036140c35760006040517f94280d620000000000000000000000000000000000000000000000000000000081526004016140ba9190614a5d565b60405180910390fd5b81600160008673ffffffffffffffffffffffffffffffffffffffff1673ffffffffffffffffffffffffffffffffffffffff16815260200190815260200160002060008573ffffffffffffffffffffffffffffffffffffffff1673ffffffffffffffffffffffffffffffffffffffff1681526020019081526020016000208190555080156141b0578273ffffffffffffffffffffffffffffffffffffffff168473ffffffffffffffffffffffffffffffffffffffff167f8c5be1e5ebec7d5bd14f71427d1e84f3dd0314c0f7b2291e5b200ac8c7c3b925846040516141a79190614862565b60405180910390a35b50505050565b60006b204fce5e3e250261100000006141cd610f9d565b836141d89190615b10565b1115614219576040517f08c379a00000000000000000000000000000000000000000000000000000000081526004016142109061666c565b60405180910390fd5b61422383836144e7565b818373ffffffffffffffffffffffffffffffffffffffff167fcda531bfd68624f13205c0a23cd4d5a7f09792cbb399603114f2b04aaa1bf5cf60405160405180910390a36001905092915050565b61427b82826125ed565b6142be5780826040517fe2517d3f0000000000000000000000000000000000000000000000000000000081526004016142b592919061668c565b60405180910390fd5b5050565b600073ffffffffffffffffffffffffffffffffffffffff168373ffffffffffffffffffffffffffffffffffffffff16036143145780600260008282546143089190615b10565b925050819055506143e7565b60008060008573ffffffffffffffffffffffffffffffffffffffff1673ffffffffffffffffffffffffffffffffffffffff168152602001908152602001600020549050818110156143a0578381836040517fe450d38c0000000000000000000000000000000000000000000000000000000081526004016143979392919061653f565b60405180910390fd5b8181036000808673ffffffffffffffffffffffffffffffffffffffff1673ffffffffffffffffffffffffffffffffffffffff16815260200190815260200160002081905550505b600073ffffffffffffffffffffffffffffffffffffffff168273ffffffffffffffffffffffffffffffffffffffff1603614430578060026000828254039250508190555061447d565b806000808473ffffffffffffffffffffffffffffffffffffffff1673ffffffffffffffffffffffffffffffffffffffff168152602001908152602001600020600082825401925050819055505b8173ffffffffffffffffffffffffffffffffffffffff168373ffffffffffffffffffffffffffffffffffffffff167fddf252ad1be2c89b69c2b068fc378daa952ba7f163c4a11628f55a4df523b3ef836040516144da9190614862565b60405180910390a3505050565b600073ffffffffffffffffffffffffffffffffffffffff168273ffffffffffffffffffffffffffffffffffffffff16036145595760006040517fec442f050000000000000000000000000000000000000000000000000000000081526004016145509190614a5d565b60405180910390fd5b614565600083836142c2565b5050565b60405180606001604052806060815260200160608152602001600081525090565b6040518061016001604052806000815260200160608152602001600073ffffffffffffffffffffffffffffffffffffffff1681526020016000815260200160008152602001600081526020016000815260200160001515815260200160001515815260200160608152602001606081525090565b60008115159050919050565b614613816145fe565b82525050565b600060208201905061462e600083018461460a565b92915050565b6000604051905090565b600080fd5b600080fd5b60007fffffffff0000000000000000000000000000000000000000000000000000000082169050919050565b61467d81614648565b811461468857600080fd5b50565b60008135905061469a81614674565b92915050565b6000602082840312156146b6576146b561463e565b5b60006146c48482850161468b565b91505092915050565b600081519050919050565b600082825260208201905092915050565b60005b838110156147075780820151818401526020810190506146ec565b60008484015250505050565b6000601f19601f8301169050919050565b600061472f826146cd565b61473981856146d8565b93506147498185602086016146e9565b61475281614713565b840191505092915050565b600060208201905081810360008301526147778184614724565b905092915050565b600073ffffffffffffffffffffffffffffffffffffffff82169050919050565b60006147aa8261477f565b9050919050565b6147ba8161479f565b81146147c557600080fd5b50565b6000813590506147d7816147b1565b92915050565b6000819050919050565b6147f0816147dd565b81146147fb57600080fd5b50565b60008135905061480d816147e7565b92915050565b6000806040838503121561482a5761482961463e565b5b6000614838858286016147c8565b9250506020614849858286016147fe565b9150509250929050565b61485c816147dd565b82525050565b60006020820190506148776000830184614853565b92915050565b600080fd5b7f4e487b7100000000000000000000000000000000000000000000000000000000600052604160045260246000fd5b6148ba82614713565b810181811067ffffffffffffffff821117156148d9576148d8614882565b5b80604052505050565b60006148ec614634565b90506148f882826148b1565b919050565b600067ffffffffffffffff82111561491857614917614882565b5b602082029050602081019050919050565b600080fd5b600061494161493c846148fd565b6148e2565b9050808382526020820190506020840283018581111561496457614963614929565b5b835b8181101561498d578061497988826147c8565b845260208401935050602081019050614966565b5050509392505050565b600082601f8301126149ac576149ab61487d565b5b81356149bc84826020860161492e565b91505092915050565b600080604083850312156149dc576149db61463e565b5b600083013567ffffffffffffffff8111156149fa576149f9614643565b5b614a0685828601614997565b9250506020614a17858286016147fe565b9150509250929050565b600060208284031215614a3757614a3661463e565b5b6000614a45848285016147fe565b91505092915050565b614a578161479f565b82525050565b6000602082019050614a726000830184614a4e565b92915050565b600080600060608486031215614a9157614a9061463e565b5b6000614a9f868287016147c8565b9350506020614ab0868287016147c8565b9250506040614ac1868287016147fe565b9150509250925092565b6000819050919050565b614ade81614acb565b8114614ae957600080fd5b50565b600081359050614afb81614ad5565b92915050565b600060208284031215614b1757614b1661463e565b5b6000614b2584828501614aec565b91505092915050565b614b3781614acb565b82525050565b6000602082019050614b526000830184614b2e565b92915050565b600080fd5b600067ffffffffffffffff821115614b7857614b77614882565b5b614b8182614713565b9050602081019050919050565b82818337600083830152505050565b6000614bb0614bab84614b5d565b6148e2565b905082815260208101848484011115614bcc57614bcb614b58565b5b614bd7848285614b8e565b509392505050565b600082601f830112614bf457614bf361487d565b5b8135614c04848260208601614b9d565b91505092915050565b614c16816145fe565b8114614c2157600080fd5b50565b600081359050614c3381614c0d565b92915050565b600080600080600080600060e0888a031215614c5857614c5761463e565b5b600088013567ffffffffffffffff811115614c7657614c75614643565b5b614c828a828b01614bdf565b9750506020614c938a828b016147fe565b9650506040614ca48a828b016147fe565b9550506060614cb58a828b016147fe565b9450506080614cc68a828b01614c24565b93505060a088013567ffffffffffffffff811115614ce757614ce6614643565b5b614cf38a828b01614bdf565b92505060c088013567ffffffffffffffff811115614d1457614d13614643565b5b614d208a828b01614bdf565b91505092959891949750929550565b60058110614d3c57600080fd5b50565b600081359050614d4e81614d2f565b92915050565b600060208284031215614d6a57614d6961463e565b5b6000614d7884828501614d3f565b91505092915050565b600082825260208201905092915050565b6000614d9d826146cd565b614da78185614d81565b9350614db78185602086016146e9565b614dc081614713565b840191505092915050565b614dd4816147dd565b82525050565b60006060830160008301518482036000860152614df78282614d92565b91505060208301518482036020860152614e118282614d92565b9150506040830151614e266040860182614dcb565b508091505092915050565b60006020820190508181036000830152614e4b8184614dda565b905092915050565b60008060408385031215614e6a57614e6961463e565b5b6000614e7885828601614aec565b9250506020614e89858286016147c8565b9150509250929050565b600060208284031215614ea957614ea861463e565b5b6000614eb7848285016147c8565b91505092915050565b600060ff82169050919050565b614ed681614ec0565b82525050565b6000602082019050614ef16000830184614ecd565b92915050565b600081519050919050565b600082825260208201905092915050565b6000819050602082019050919050565b614f2c8161479f565b82525050565b6000614f3e8383614f23565b60208301905092915050565b6000602082019050919050565b6000614f6282614ef7565b614f6c8185614f02565b9350614f7783614f13565b8060005b83811015614fa8578151614f8f8882614f32565b9750614f9a83614f4a565b925050600181019050614f7b565b5085935050505092915050565b60006020820190508181036000830152614fcf8184614f57565b905092915050565b60008060408385031215614fee57614fed61463e565b5b6000614ffc858286016147fe565b925050602083013567ffffffffffffffff81111561501d5761501c614643565b5b61502985828601614997565b9150509250929050565b6000806040838503121561504a5761504961463e565b5b6000615058858286016147c8565b925050602061506985828601614d3f565b9150509250929050565b600081519050919050565b600082825260208201905092915050565b600061509a82615073565b6150a4818561507e565b93506150b48185602086016146e9565b6150bd81614713565b840191505092915050565b600060c0820190506150dd6000830189614853565b6150ea6020830188614a4e565b6150f76040830187614a4e565b8181036060830152615109818661508f565b90506151186080830185614853565b61512560a083018461460a565b979650505050505050565b600061016082019050615146600083018e614853565b8181036020830152615158818d614724565b9050615167604083018c614a4e565b615174606083018b614853565b615181608083018a614853565b61518e60a0830189614853565b61519b60c0830188614853565b6151a860e083018761460a565b6151b661010083018661460a565b8181036101208301526151c98185614724565b90508181036101408301526151de8184614724565b90509c9b505050505050505050505050565b6000606082019050818103600083015261520a8186614724565b9050818103602083015261521e8185614724565b905061522d6040830184614853565b949350505050565b7f4e487b7100000000000000000000000000000000000000000000000000000000600052602160045260246000fd5b6005811061527557615274615235565b5b50565b600081905061528682615264565b919050565b600061529682615278565b9050919050565b6152a68161528b565b82525050565b600060a0820190506152c1600083018861529d565b81810360208301526152d38187614724565b905081810360408301526152e78186614724565b90506152f66060830185614853565b6153036080830184614853565b9695505050505050565b60006060820190506153226000830186614853565b61532f6020830185614853565b61533c604083018461529d565b949350505050565b6000602082019050615359600083018461529d565b92915050565b600081519050919050565b600082825260208201905092915050565b6000819050602082019050919050565b615394816145fe565b82525050565b6000610160830160008301516153b36000860182614dcb565b50602083015184820360208601526153cb8282614d92565b91505060408301516153e06040860182614f23565b5060608301516153f36060860182614dcb565b5060808301516154066080860182614dcb565b5060a083015161541960a0860182614dcb565b5060c083015161542c60c0860182614dcb565b5060e083015161543f60e086018261538b565b5061010083015161545461010086018261538b565b5061012083015184820361012086015261546e8282614d92565b91505061014083015184820361014086015261548a8282614d92565b9150508091505092915050565b60006154a3838361539a565b905092915050565b6000602082019050919050565b60006154c38261535f565b6154cd818561536a565b9350836020820285016154df8561537b565b8060005b8581101561551b57848403895281516154fc8582615497565b9450615507836154ab565b925060208a019950506001810190506154e3565b50829750879550505050505092915050565b6000602082019050818103600083015261554781846154b8565b905092915050565b600080604083850312156155665761556561463e565b5b6000615574858286016147c8565b9250506020615585858286016147c8565b9150509250929050565b7f416c72656164792061206d656d62657221000000000000000000000000000000600082015250565b60006155c56011836146d8565b91506155d08261558f565b602082019050919050565b600060208201905081810360008301526155f4816155b8565b9050919050565b7f4e487b7100000000000000000000000000000000000000000000000000000000600052602260045260246000fd5b6000600282049050600182168061564257607f821691505b602082108103615655576156546155fb565b5b50919050565b7f4e487b7100000000000000000000000000000000000000000000000000000000600052603260045260246000fd5b7f4e6f20656c696769626c65206164647265737365730000000000000000000000600082015250565b60006156c06015836146d8565b91506156cb8261568a565b602082019050919050565b600060208201905081810360008301526156ef816156b3565b9050919050565b600060408201905081810360008301526157108185614f57565b905061571f6020830184614853565b9392505050565b7f4e487b7100000000000000000000000000000000000000000000000000000000600052601160045260246000fd5b6000615760826147dd565b91507fffffffffffffffffffffffffffffffffffffffffffffffffffffffffffffffff820361579257615791615726565b5b600182019050919050565b60008190508160005260206000209050919050565b60006020601f8301049050919050565b600082821b905092915050565b6000600883026157ff7fffffffffffffffffffffffffffffffffffffffffffffffffffffffffffffffff826157c2565b61580986836157c2565b95508019841693508086168417925050509392505050565b6000819050919050565b600061584661584161583c846147dd565b615821565b6147dd565b9050919050565b6000819050919050565b6158608361582b565b61587461586c8261584d565b8484546157cf565b825550505050565b600090565b61588961587c565b615894818484615857565b505050565b5b818110156158b8576158ad600082615881565b60018101905061589a565b5050565b601f8211156158fd576158ce8161579d565b6158d7846157b2565b810160208510156158e6578190505b6158fa6158f2856157b2565b830182615899565b50505b505050565b600082821c905092915050565b600061592060001984600802615902565b1980831691505092915050565b6000615939838361590f565b9150826002028217905092915050565b615952826146cd565b67ffffffffffffffff81111561596b5761596a614882565b5b615975825461562a565b6159808282856158bc565b600060209050601f8311600181146159b357600084156159a1578287015190505b6159ab858261592d565b865550615a13565b601f1984166159c18661579d565b60005b828110156159e9578489015182556001820191506020850194506020810190506159c4565b86831015615a065784890151615a02601f89168261590f565b8355505b6001600288020188555050505b505050505050565b60006080820190508181036000830152615a358187614724565b9050615a446020830186614a4e565b615a51604083018561460a565b8181036060830152615a638184614724565b905095945050505050565b6000615a79826147dd565b9150615a84836147dd565b9250828202615a92816147dd565b91508282048414831517615aa957615aa8615726565b5b5092915050565b7f4e487b7100000000000000000000000000000000000000000000000000000000600052601260045260246000fd5b6000615aea826147dd565b9150615af5836147dd565b925082615b0557615b04615ab0565b5b828204905092915050565b6000615b1b826147dd565b9150615b26836147dd565b9250828201905080821115615b3e57615b3d615726565b5b92915050565b7f436f6d6d756e6974793a20496e73756666696369656e7420746f6b656e730000600082015250565b6000615b7a601e836146d8565b9150615b8582615b44565b602082019050919050565b60006020820190508181036000830152615ba981615b6d565b9050919050565b6000604082019050615bc56000830185614853565b8181036020830152615bd78184614f57565b90509392505050565b7f4576656e74206973206e6f742061637469766500000000000000000000000000600082015250565b6000615c166013836146d8565b9150615c2182615be0565b602082019050919050565b60006020820190508181036000830152615c4581615c09565b9050919050565b7f4576656e74206e6f7420696e2070726f67726573730000000000000000000000600082015250565b6000615c826015836146d8565b9150615c8d82615c4c565b602082019050919050565b60006020820190508181036000830152615cb181615c75565b9050919050565b7f4576656e742069732066756c6c00000000000000000000000000000000000000600082015250565b6000615cee600d836146d8565b9150615cf982615cb8565b602082019050919050565b60006020820190508181036000830152615d1d81615ce1565b9050919050565b7f416c726561647920696e20726576696577657220706f6f6c0000000000000000600082015250565b6000615d5a6018836146d8565b9150615d6582615d24565b602082019050919050565b60006020820190508181036000830152615d8981615d4d565b9050919050565b7f45786365656473206d61782070726f6a6563742066756e64696e670000000000600082015250565b6000615dc6601b836146d8565b9150615dd182615d90565b602082019050919050565b60006020820190508181036000830152615df581615db9565b9050919050565b7f496e73756666696369656e7420636f6d6d756e6974792070726f6a656374206660008201527f756e647300000000000000000000000000000000000000000000000000000000602082015250565b6000615e586024836146d8565b9150615e6382615dfc565b604082019050919050565b60006020820190508181036000830152615e8781615e4b565b9050919050565b6000604082019050615ea36000830185614a4e565b615eb06020830184614853565b9392505050565b7f4e6f7420617574686f72697a6564000000000000000000000000000000000000600082015250565b6000615eed600e836146d8565b9150615ef882615eb7565b602082019050919050565b60006020820190508181036000830152615f1c81615ee0565b9050919050565b600081905092915050565b50565b6000615f3e600083615f23565b9150615f4982615f2e565b600082019050919050565b6000615f5f82615f31565b9150819050919050565b7f5472616e73666572206661696c65640000000000000000000000000000000000600082015250565b6000615f9f600f836146d8565b9150615faa82615f69565b602082019050919050565b60006020820190508181036000830152615fce81615f92565b9050919050565b7f50726f706f73616c20616c726561647920657865637574656400000000000000600082015250565b600061600b6019836146d8565b915061601682615fd5565b602082019050919050565b6000602082019050818103600083015261603a81615ffe565b9050919050565b7f416c726561647920617070726f76656400000000000000000000000000000000600082015250565b60006160776010836146d8565b915061608282616041565b602082019050919050565b600060208201905081810360008301526160a68161606a565b9050919050565b60008190508160005260206000209050919050565b600081546160cf8161562a565b6160d98186615f23565b945060018216600081146160f457600181146161095761613c565b60ff198316865281151582028601935061613c565b616112856160ad565b60005b8381101561613457815481890152600182019150602081019050616115565b838801955050505b50505092915050565b600061615182846160c2565b915081905092915050565b7f50726f706f73616c20657865637574696f6e206661696c656400000000000000600082015250565b60006161926019836146d8565b915061619d8261615c565b602082019050919050565b600060208201905081810360008301526161c181616185565b9050919050565b7f4e6f7420696e20726576696577657220706f6f6c000000000000000000000000600082015250565b60006161fe6014836146d8565b9150616209826161c8565b602082019050919050565b6000602082019050818103600083015261622d816161f1565b9050919050565b600061623f826147dd565b915061624a836147dd565b925082820390508181111561626257616261615726565b5b92915050565b7f4e487b7100000000000000000000000000000000000000000000000000000000600052603160045260246000fd5b7f496e76616c69642072657761726420616d6f756e740000000000000000000000600082015250565b60006162cd6015836146d8565b91506162d882616297565b602082019050919050565b600060208201905081810360008301526162fc816162c0565b9050919050565b7f436f6d6d756e6974793a204d696e74696e67206c696d6974206578636565646560008201527f6400000000000000000000000000000000000000000000000000000000000000602082015250565b600061635f6021836146d8565b915061636a82616303565b604082019050919050565b6000602082019050818103600083015261638e81616352565b9050919050565b7f436f6d6d756e6974793a2043616e6e6f74206d696e7420746f207a65726f206160008201527f6464726573730000000000000000000000000000000000000000000000000000602082015250565b60006163f16026836146d8565b91506163fc82616395565b604082019050919050565b60006020820190508181036000830152616420816163e4565b9050919050565b601f82111561646857616439816160ad565b616442846157b2565b81016020851015616451578190505b61646561645d856157b2565b830182615899565b50505b505050565b61647682615073565b67ffffffffffffffff81111561648f5761648e614882565b5b616499825461562a565b6164a4828285616427565b600060209050601f8311600181146164d757600084156164c5578287015190505b6164cf858261592d565b865550616537565b601f1984166164e5866160ad565b60005b8281101561650d578489015182556001820191506020850194506020810190506164e8565b8683101561652a5784890151616526601f89168261590f565b8355505b6001600288020188555050505b505050505050565b60006060820190506165546000830186614a4e565b6165616020830185614853565b61656e6040830184614853565b949350505050565b60008160601b9050919050565b600061658e82616576565b9050919050565b60006165a082616583565b9050919050565b6165b86165b38261479f565b616595565b82525050565b60008160f81b9050919050565b60006165d6826165be565b9050919050565b6165ee6165e98261528b565b6165cb565b82525050565b600061660082856165a7565b60148201915061661082846165dd565b6001820191508190509392505050565b7f4c696d6974204578636565646564210000000000000000000000000000000000600082015250565b6000616656600f836146d8565b915061666182616620565b602082019050919050565b6000602082019050818103600083015261668581616649565b9050919050565b60006040820190506166a16000830185614a4e565b6166ae6020830184614b2e565b939250505056fea26469706673582212200b7833fc7770f652866c66f767543ebb41c723a1dba4d2a3ed5a1cba2856368064736f6c634300081b0033","opcodes":"PUSH1 0x80 PUSH1 0x40 MSTORE CALLVALUE DUP1 ISZERO PUSH2 0x10 JUMPI PUSH1 0x0 DUP1 REVERT JUMPDEST POP PUSH1 0x40 MLOAD PUSH2 0x7684 CODESIZE SUB DUP1 PUSH2 0x7684 DUP4 CODECOPY DUP2 DUP2 ADD PUSH1 0x40 MSTORE DUP2 ADD SWAP1 PUSH2 0x32 SWAP2 SWAP1 PUSH2 0xB4D JUMP JUMPDEST DUP1 PUSH1 0x40 MLOAD DUP1 PUSH1 0x40 ADD PUSH1 0x40 MSTORE DUP1 PUSH1 0xA DUP2 MSTORE PUSH1 0x20 ADD PUSH32 0x4142594120544F4B454E00000000000000000000000000000000000000000000 DUP2 MSTORE POP PUSH1 0x40 MLOAD DUP1 PUSH1 0x40 ADD PUSH1 0x40 MSTORE DUP1 PUSH1 0x6 DUP2 MSTORE PUSH1 0x20 ADD PUSH32 0x414259544B4E0000000000000000000000000000000000000000000000000000 DUP2 MSTORE POP DUP2 PUSH1 0x3 SWAP1 DUP2 PUSH2 0xAE SWAP2 SWAP1 PUSH2 0xDB7 JUMP JUMPDEST POP DUP1 PUSH1 0x4 SWAP1 DUP2 PUSH2 0xBE SWAP2 SWAP1 PUSH2 0xDB7 JUMP JUMPDEST POP POP POP PUSH1 0x1 PUSH1 0x6 DUP2 SWAP1 SSTORE POP PUSH1 0x4 DUP2 MLOAD LT ISZERO PUSH2 0x10E JUMPI PUSH1 0x40 MLOAD PUSH32 0x8C379A000000000000000000000000000000000000000000000000000000000 DUP2 MSTORE PUSH1 0x4 ADD PUSH2 0x105 SWAP1 PUSH2 0xF0C JUMP JUMPDEST PUSH1 0x40 MLOAD DUP1 SWAP2 SUB SWAP1 REVERT JUMPDEST PUSH2 0x121 PUSH1 0x0 DUP1 SHL CALLER PUSH2 0x811 PUSH1 0x20 SHL PUSH1 0x20 SHR JUMP JUMPDEST POP PUSH2 0x152 PUSH32 0xDF1425BAE297C2F52B4F15D18A50B1FC8CB5B981A981B1D213ED3FF92681B64D CALLER PUSH2 0x811 PUSH1 0x20 SHL PUSH1 0x20 SHR JUMP JUMPDEST POP PUSH1 0x0 JUMPDEST DUP2 MLOAD DUP2 LT ISZERO PUSH2 0x2A6 JUMPI PUSH2 0x1A9 PUSH32 0xC10C77BE35AFF266144ED64C26A1FA104BAE2F284AE99AC4A34203454704A185 DUP4 DUP4 DUP2 MLOAD DUP2 LT PUSH2 0x196 JUMPI PUSH2 0x195 PUSH2 0xF2C JUMP JUMPDEST JUMPDEST PUSH1 0x20 MUL PUSH1 0x20 ADD ADD MLOAD PUSH2 0x811 PUSH1 0x20 SHL PUSH1 0x20 SHR JUMP JUMPDEST POP PUSH1 0x7 DUP3 DUP3 DUP2 MLOAD DUP2 LT PUSH2 0x1BF JUMPI PUSH2 0x1BE PUSH2 0xF2C JUMP JUMPDEST JUMPDEST PUSH1 0x20 MUL PUSH1 0x20 ADD ADD MLOAD SWAP1 DUP1 PUSH1 0x1 DUP2 SLOAD ADD DUP1 DUP3 SSTORE DUP1 SWAP2 POP POP PUSH1 0x1 SWAP1 SUB SWAP1 PUSH1 0x0 MSTORE PUSH1 0x20 PUSH1 0x0 KECCAK256 ADD PUSH1 0x0 SWAP1 SWAP2 SWAP1 SWAP2 SWAP1 SWAP2 PUSH2 0x100 EXP DUP2 SLOAD DUP2 PUSH20 0xFFFFFFFFFFFFFFFFFFFFFFFFFFFFFFFFFFFFFFFF MUL NOT AND SWAP1 DUP4 PUSH20 0xFFFFFFFFFFFFFFFFFFFFFFFFFFFFFFFFFFFFFFFF AND MUL OR SWAP1 SSTORE POP PUSH1 0x1 PUSH1 0x9 PUSH1 0x0 DUP5 DUP5 DUP2 MLOAD DUP2 LT PUSH2 0x240 JUMPI PUSH2 0x23F PUSH2 0xF2C JUMP JUMPDEST JUMPDEST PUSH1 0x20 MUL PUSH1 0x20 ADD ADD MLOAD PUSH20 0xFFFFFFFFFFFFFFFFFFFFFFFFFFFFFFFFFFFFFFFF AND PUSH20 0xFFFFFFFFFFFFFFFFFFFFFFFFFFFFFFFFFFFFFFFF AND DUP2 MSTORE PUSH1 0x20 ADD SWAP1 DUP2 MSTORE PUSH1 0x20 ADD PUSH1 0x0 KECCAK256 PUSH1 0x0 PUSH2 0x100 EXP DUP2 SLOAD DUP2 PUSH1 0xFF MUL NOT AND SWAP1 DUP4 ISZERO ISZERO MUL OR SWAP1 SSTORE POP DUP1 DUP1 PUSH1 0x1 ADD SWAP2 POP POP PUSH2 0x156 JUMP JUMPDEST POP POP PUSH1 0x40 MLOAD DUP1 PUSH1 0x60 ADD PUSH1 0x40 MSTORE DUP1 PUSH1 0x40 MLOAD DUP1 PUSH1 0x40 ADD PUSH1 0x40 MSTORE DUP1 PUSH1 0x8 DUP2 MSTORE PUSH1 0x20 ADD PUSH32 0x4E6577636F6D6572000000000000000000000000000000000000000000000000 DUP2 MSTORE POP DUP2 MSTORE PUSH1 0x20 ADD PUSH1 0x40 MLOAD DUP1 PUSH1 0x40 ADD PUSH1 0x40 MSTORE DUP1 PUSH1 0x1A DUP2 MSTORE PUSH1 0x20 ADD PUSH32 0x697066733A2F2F6E6577636F6D65722D62616467652D69636F6E000000000000 DUP2 MSTORE POP DUP2 MSTORE PUSH1 0x20 ADD PUSH1 0x0 DUP2 MSTORE POP PUSH1 0xC PUSH1 0x0 DUP1 PUSH1 0x4 DUP2 GT ISZERO PUSH2 0x345 JUMPI PUSH2 0x344 PUSH2 0xF5B JUMP JUMPDEST JUMPDEST PUSH1 0x4 DUP2 GT ISZERO PUSH2 0x357 JUMPI PUSH2 0x356 PUSH2 0xF5B JUMP JUMPDEST JUMPDEST DUP2 MSTORE PUSH1 0x20 ADD SWAP1 DUP2 MSTORE PUSH1 0x20 ADD PUSH1 0x0 KECCAK256 PUSH1 0x0 DUP3 ADD MLOAD DUP2 PUSH1 0x0 ADD SWAP1 DUP2 PUSH2 0x37A SWAP2 SWAP1 PUSH2 0xDB7 JUMP JUMPDEST POP PUSH1 0x20 DUP3 ADD MLOAD DUP2 PUSH1 0x1 ADD SWAP1 DUP2 PUSH2 0x390 SWAP2 SWAP1 PUSH2 0xDB7 JUMP JUMPDEST POP PUSH1 0x40 DUP3 ADD MLOAD DUP2 PUSH1 0x2 ADD SSTORE SWAP1 POP POP PUSH1 0x40 MLOAD DUP1 PUSH1 0x60 ADD PUSH1 0x40 MSTORE DUP1 PUSH1 0x40 MLOAD DUP1 PUSH1 0x40 ADD PUSH1 0x40 MSTORE DUP1 PUSH1 0xB DUP2 MSTORE PUSH1 0x20 ADD PUSH32 0x5061727469636970616E74000000000000000000000000000000000000000000 DUP2 MSTORE POP DUP2 MSTORE PUSH1 0x20 ADD PUSH1 0x40 MLOAD DUP1 PUSH1 0x40 ADD PUSH1 0x40 MSTORE DUP1 PUSH1 0x1D DUP2 MSTORE PUSH1 0x20 ADD PUSH32 0x697066733A2F2F7061727469636970616E742D62616467652D69636F6E000000 DUP2 MSTORE POP DUP2 MSTORE PUSH1 0x20 ADD PUSH8 0xDE0B6B3A7640000 DUP2 MSTORE POP PUSH1 0xC PUSH1 0x0 PUSH1 0x1 PUSH1 0x4 DUP2 GT ISZERO PUSH2 0x443 JUMPI PUSH2 0x442 PUSH2 0xF5B JUMP JUMPDEST JUMPDEST PUSH1 0x4 DUP2 GT ISZERO PUSH2 0x455 JUMPI PUSH2 0x454 PUSH2 0xF5B JUMP JUMPDEST JUMPDEST DUP2 MSTORE PUSH1 0x20 ADD SWAP1 DUP2 MSTORE PUSH1 0x20 ADD PUSH1 0x0 KECCAK256 PUSH1 0x0 DUP3 ADD MLOAD DUP2 PUSH1 0x0 ADD SWAP1 DUP2 PUSH2 0x478 SWAP2 SWAP1 PUSH2 0xDB7 JUMP JUMPDEST POP PUSH1 0x20 DUP3 ADD MLOAD DUP2 PUSH1 0x1 ADD SWAP1 DUP2 PUSH2 0x48E SWAP2 SWAP1 PUSH2 0xDB7 JUMP JUMPDEST POP PUSH1 0x40 DUP3 ADD MLOAD DUP2 PUSH1 0x2 ADD SSTORE SWAP1 POP POP PUSH1 0x40 MLOAD DUP1 PUSH1 0x60 ADD PUSH1 0x40 MSTORE DUP1 PUSH1 0x40 MLOAD DUP1 PUSH1 0x40 ADD PUSH1 0x40 MSTORE DUP1 PUSH1 0xB DUP2 MSTORE PUSH1 0x20 ADD PUSH32 0x436F6E7472696275746F72000000000000000000000000000000000000000000 DUP2 MSTORE POP DUP2 MSTORE PUSH1 0x20 ADD PUSH1 0x40 MLOAD DUP1 PUSH1 0x40 ADD PUSH1 0x40 MSTORE DUP1 PUSH1 0x1D DUP2 MSTORE PUSH1 0x20 ADD PUSH32 0x697066733A2F2F636F6E7472696275746F722D62616467652D69636F6E000000 DUP2 MSTORE POP DUP2 MSTORE PUSH1 0x20 ADD PUSH8 0x1BC16D674EC80000 DUP2 MSTORE POP PUSH1 0xC PUSH1 0x0 PUSH1 0x2 PUSH1 0x4 DUP2 GT ISZERO PUSH2 0x541 JUMPI PUSH2 0x540 PUSH2 0xF5B JUMP JUMPDEST JUMPDEST PUSH1 0x4 DUP2 GT ISZERO PUSH2 0x553 JUMPI PUSH2 0x552 PUSH2 0xF5B JUMP JUMPDEST JUMPDEST DUP2 MSTORE PUSH1 0x20 ADD SWAP1 DUP2 MSTORE PUSH1 0x20 ADD PUSH1 0x0 KECCAK256 PUSH1 0x0 DUP3 ADD MLOAD DUP2 PUSH1 0x0 ADD SWAP1 DUP2 PUSH2 0x576 SWAP2 SWAP1 PUSH2 0xDB7 JUMP JUMPDEST POP PUSH1 0x20 DUP3 ADD MLOAD DUP2 PUSH1 0x1 ADD SWAP1 DUP2 PUSH2 0x58C SWAP2 SWAP1 PUSH2 0xDB7 JUMP JUMPDEST POP PUSH1 0x40 DUP3 ADD MLOAD DUP2 PUSH1 0x2 ADD SSTORE SWAP1 POP POP PUSH1 0x40 MLOAD DUP1 PUSH1 0x60 ADD PUSH1 0x40 MSTORE DUP1 PUSH1 0x40 MLOAD DUP1 PUSH1 0x40 ADD PUSH1 0x40 MSTORE DUP1 PUSH1 0x6 DUP2 MSTORE PUSH1 0x20 ADD PUSH32 0x4C65616465720000000000000000000000000000000000000000000000000000 DUP2 MSTORE POP DUP2 MSTORE PUSH1 0x20 ADD PUSH1 0x40 MLOAD DUP1 PUSH1 0x40 ADD PUSH1 0x40 MSTORE DUP1 PUSH1 0x18 DUP2 MSTORE PUSH1 0x20 ADD PUSH32 0x697066733A2F2F6C65616465722D62616467652D69636F6E0000000000000000 DUP2 MSTORE POP DUP2 MSTORE PUSH1 0x20 ADD PUSH8 0x29A2241AF62C0000 DUP2 MSTORE POP PUSH1 0xC PUSH1 0x0 PUSH1 0x3 PUSH1 0x4 DUP2 GT ISZERO PUSH2 0x63F JUMPI PUSH2 0x63E PUSH2 0xF5B JUMP JUMPDEST JUMPDEST PUSH1 0x4 DUP2 GT ISZERO PUSH2 0x651 JUMPI PUSH2 0x650 PUSH2 0xF5B JUMP JUMPDEST JUMPDEST DUP2 MSTORE PUSH1 0x20 ADD SWAP1 DUP2 MSTORE PUSH1 0x20 ADD PUSH1 0x0 KECCAK256 PUSH1 0x0 DUP3 ADD MLOAD DUP2 PUSH1 0x0 ADD SWAP1 DUP2 PUSH2 0x674 SWAP2 SWAP1 PUSH2 0xDB7 JUMP JUMPDEST POP PUSH1 0x20 DUP3 ADD MLOAD DUP2 PUSH1 0x1 ADD SWAP1 DUP2 PUSH2 0x68A SWAP2 SWAP1 PUSH2 0xDB7 JUMP JUMPDEST POP PUSH1 0x40 DUP3 ADD MLOAD DUP2 PUSH1 0x2 ADD SSTORE SWAP1 POP POP PUSH1 0x40 MLOAD DUP1 PUSH1 0x60 ADD PUSH1 0x40 MSTORE DUP1 PUSH1 0x40 MLOAD DUP1 PUSH1 0x40 ADD PUSH1 0x40 MSTORE DUP1 PUSH1 0x8 DUP2 MSTORE PUSH1 0x20 ADD PUSH32 0x4368616D70696F6E000000000000000000000000000000000000000000000000 DUP2 MSTORE POP DUP2 MSTORE PUSH1 0x20 ADD PUSH1 0x40 MLOAD DUP1 PUSH1 0x40 ADD PUSH1 0x40 MSTORE DUP1 PUSH1 0x1A DUP2 MSTORE PUSH1 0x20 ADD PUSH32 0x697066733A2F2F6368616D70696F6E2D62616467652D69636F6E000000000000 DUP2 MSTORE POP DUP2 MSTORE PUSH1 0x20 ADD PUSH8 0x3782DACE9D900000 DUP2 MSTORE POP PUSH1 0xC PUSH1 0x0 PUSH1 0x4 DUP1 DUP2 GT ISZERO PUSH2 0x73C JUMPI PUSH2 0x73B PUSH2 0xF5B JUMP JUMPDEST JUMPDEST PUSH1 0x4 DUP2 GT ISZERO PUSH2 0x74E JUMPI PUSH2 0x74D PUSH2 0xF5B JUMP JUMPDEST JUMPDEST DUP2 MSTORE PUSH1 0x20 ADD SWAP1 DUP2 MSTORE PUSH1 0x20 ADD PUSH1 0x0 KECCAK256 PUSH1 0x0 DUP3 ADD MLOAD DUP2 PUSH1 0x0 ADD SWAP1 DUP2 PUSH2 0x771 SWAP2 SWAP1 PUSH2 0xDB7 JUMP JUMPDEST POP PUSH1 0x20 DUP3 ADD MLOAD DUP2 PUSH1 0x1 ADD SWAP1 DUP2 PUSH2 0x787 SWAP2 SWAP1 PUSH2 0xDB7 JUMP JUMPDEST POP PUSH1 0x40 DUP3 ADD MLOAD DUP2 PUSH1 0x2 ADD SSTORE SWAP1 POP POP PUSH2 0x7A8 PUSH1 0x0 DUP1 SHL CALLER PUSH2 0x811 PUSH1 0x20 SHL PUSH1 0x20 SHR JUMP JUMPDEST POP PUSH2 0x7D9 PUSH32 0xC295D8A2F69016465F61012796A38346423F02058E9C426F8BC1D946BC8C8470 CALLER PUSH2 0x811 PUSH1 0x20 SHL PUSH1 0x20 SHR JUMP JUMPDEST POP PUSH2 0x80A PUSH32 0xDF1425BAE297C2F52B4F15D18A50B1FC8CB5B981A981B1D213ED3FF92681B64D CALLER PUSH2 0x811 PUSH1 0x20 SHL PUSH1 0x20 SHR JUMP JUMPDEST POP POP PUSH2 0xF8A JUMP JUMPDEST PUSH1 0x0 PUSH2 0x823 DUP4 DUP4 PUSH2 0x90F PUSH1 0x20 SHL PUSH1 0x20 SHR JUMP JUMPDEST PUSH2 0x904 JUMPI PUSH1 0x1 PUSH1 0x5 PUSH1 0x0 DUP6 DUP2 MSTORE PUSH1 0x20 ADD SWAP1 DUP2 MSTORE PUSH1 0x20 ADD PUSH1 0x0 KECCAK256 PUSH1 0x0 ADD PUSH1 0x0 DUP5 PUSH20 0xFFFFFFFFFFFFFFFFFFFFFFFFFFFFFFFFFFFFFFFF AND PUSH20 0xFFFFFFFFFFFFFFFFFFFFFFFFFFFFFFFFFFFFFFFF AND DUP2 MSTORE PUSH1 0x20 ADD SWAP1 DUP2 MSTORE PUSH1 0x20 ADD PUSH1 0x0 KECCAK256 PUSH1 0x0 PUSH2 0x100 EXP DUP2 SLOAD DUP2 PUSH1 0xFF MUL NOT AND SWAP1 DUP4 ISZERO ISZERO MUL OR SWAP1 SSTORE POP PUSH2 0x8A1 PUSH2 0x97A PUSH1 0x20 SHL PUSH1 0x20 SHR JUMP JUMPDEST PUSH20 0xFFFFFFFFFFFFFFFFFFFFFFFFFFFFFFFFFFFFFFFF AND DUP3 PUSH20 0xFFFFFFFFFFFFFFFFFFFFFFFFFFFFFFFFFFFFFFFF AND DUP5 PUSH32 0x2F8788117E7EFF1D82E926EC794901D17C78024A50270940304540A733656F0D PUSH1 0x40 MLOAD PUSH1 0x40 MLOAD DUP1 SWAP2 SUB SWAP1 LOG4 PUSH1 0x1 SWAP1 POP PUSH2 0x909 JUMP JUMPDEST PUSH1 0x0 SWAP1 POP JUMPDEST SWAP3 SWAP2 POP POP JUMP JUMPDEST PUSH1 0x0 PUSH1 0x5 PUSH1 0x0 DUP5 DUP2 MSTORE PUSH1 0x20 ADD SWAP1 DUP2 MSTORE PUSH1 0x20 ADD PUSH1 0x0 KECCAK256 PUSH1 0x0 ADD PUSH1 0x0 DUP4 PUSH20 0xFFFFFFFFFFFFFFFFFFFFFFFFFFFFFFFFFFFFFFFF AND PUSH20 0xFFFFFFFFFFFFFFFFFFFFFFFFFFFFFFFFFFFFFFFF AND DUP2 MSTORE PUSH1 0x20 ADD SWAP1 DUP2 MSTORE PUSH1 0x20 ADD PUSH1 0x0 KECCAK256 PUSH1 0x0 SWAP1 SLOAD SWAP1 PUSH2 0x100 EXP SWAP1 DIV PUSH1 0xFF AND SWAP1 POP SWAP3 SWAP2 POP POP JUMP JUMPDEST PUSH1 0x0 CALLER SWAP1 POP SWAP1 JUMP JUMPDEST PUSH1 0x0 PUSH1 0x40 MLOAD SWAP1 POP SWAP1 JUMP JUMPDEST PUSH1 0x0 DUP1 REVERT JUMPDEST PUSH1 0x0 DUP1 REVERT JUMPDEST PUSH1 0x0 DUP1 REVERT JUMPDEST PUSH1 0x0 PUSH1 0x1F NOT PUSH1 0x1F DUP4 ADD AND SWAP1 POP SWAP2 SWAP1 POP JUMP JUMPDEST PUSH32 0x4E487B7100000000000000000000000000000000000000000000000000000000 PUSH1 0x0 MSTORE PUSH1 0x41 PUSH1 0x4 MSTORE PUSH1 0x24 PUSH1 0x0 REVERT JUMPDEST PUSH2 0x9E4 DUP3 PUSH2 0x99B JUMP JUMPDEST DUP2 ADD DUP2 DUP2 LT PUSH8 0xFFFFFFFFFFFFFFFF DUP3 GT OR ISZERO PUSH2 0xA03 JUMPI PUSH2 0xA02 PUSH2 0x9AC JUMP JUMPDEST JUMPDEST DUP1 PUSH1 0x40 MSTORE POP POP POP JUMP JUMPDEST PUSH1 0x0 PUSH2 0xA16 PUSH2 0x982 JUMP JUMPDEST SWAP1 POP PUSH2 0xA22 DUP3 DUP3 PUSH2 0x9DB JUMP JUMPDEST SWAP2 SWAP1 POP JUMP JUMPDEST PUSH1 0x0 PUSH8 0xFFFFFFFFFFFFFFFF DUP3 GT ISZERO PUSH2 0xA42 JUMPI PUSH2 0xA41 PUSH2 0x9AC JUMP JUMPDEST JUMPDEST PUSH1 0x20 DUP3 MUL SWAP1 POP PUSH1 0x20 DUP2 ADD SWAP1 POP SWAP2 SWAP1 POP JUMP JUMPDEST PUSH1 0x0 DUP1 REVERT JUMPDEST PUSH1 0x0 PUSH20 0xFFFFFFFFFFFFFFFFFFFFFFFFFFFFFFFFFFFFFFFF DUP3 AND SWAP1 POP SWAP2 SWAP1 POP JUMP JUMPDEST PUSH1 0x0 PUSH2 0xA83 DUP3 PUSH2 0xA58 JUMP JUMPDEST SWAP1 POP SWAP2 SWAP1 POP JUMP JUMPDEST PUSH2 0xA93 DUP2 PUSH2 0xA78 JUMP JUMPDEST DUP2 EQ PUSH2 0xA9E JUMPI PUSH1 0x0 DUP1 REVERT JUMPDEST POP JUMP JUMPDEST PUSH1 0x0 DUP2 MLOAD SWAP1 POP PUSH2 0xAB0 DUP2 PUSH2 0xA8A JUMP JUMPDEST SWAP3 SWAP2 POP POP JUMP JUMPDEST PUSH1 0x0 PUSH2 0xAC9 PUSH2 0xAC4 DUP5 PUSH2 0xA27 JUMP JUMPDEST PUSH2 0xA0C JUMP JUMPDEST SWAP1 POP DUP1 DUP4 DUP3 MSTORE PUSH1 0x20 DUP3 ADD SWAP1 POP PUSH1 0x20 DUP5 MUL DUP4 ADD DUP6 DUP2 GT ISZERO PUSH2 0xAEC JUMPI PUSH2 0xAEB PUSH2 0xA53 JUMP JUMPDEST JUMPDEST DUP4 JUMPDEST DUP2 DUP2 LT ISZERO PUSH2 0xB15 JUMPI DUP1 PUSH2 0xB01 DUP9 DUP3 PUSH2 0xAA1 JUMP JUMPDEST DUP5 MSTORE PUSH1 0x20 DUP5 ADD SWAP4 POP POP PUSH1 0x20 DUP2 ADD SWAP1 POP PUSH2 0xAEE JUMP JUMPDEST POP POP POP SWAP4 SWAP3 POP POP POP JUMP JUMPDEST PUSH1 0x0 DUP3 PUSH1 0x1F DUP4 ADD SLT PUSH2 0xB34 JUMPI PUSH2 0xB33 PUSH2 0x996 JUMP JUMPDEST JUMPDEST DUP2 MLOAD PUSH2 0xB44 DUP5 DUP3 PUSH1 0x20 DUP7 ADD PUSH2 0xAB6 JUMP JUMPDEST SWAP2 POP POP SWAP3 SWAP2 POP POP JUMP JUMPDEST PUSH1 0x0 PUSH1 0x20 DUP3 DUP5 SUB SLT ISZERO PUSH2 0xB63 JUMPI PUSH2 0xB62 PUSH2 0x98C JUMP JUMPDEST JUMPDEST PUSH1 0x0 DUP3 ADD MLOAD PUSH8 0xFFFFFFFFFFFFFFFF DUP2 GT ISZERO PUSH2 0xB81 JUMPI PUSH2 0xB80 PUSH2 0x991 JUMP JUMPDEST JUMPDEST PUSH2 0xB8D DUP5 DUP3 DUP6 ADD PUSH2 0xB1F JUMP JUMPDEST SWAP2 POP POP SWAP3 SWAP2 POP POP JUMP JUMPDEST PUSH1 0x0 DUP2 MLOAD SWAP1 POP SWAP2 SWAP1 POP JUMP JUMPDEST PUSH32 0x4E487B7100000000000000000000000000000000000000000000000000000000 PUSH1 0x0 MSTORE PUSH1 0x22 PUSH1 0x4 MSTORE PUSH1 0x24 PUSH1 0x0 REVERT JUMPDEST PUSH1 0x0 PUSH1 0x2 DUP3 DIV SWAP1 POP PUSH1 0x1 DUP3 AND DUP1 PUSH2 0xBE8 JUMPI PUSH1 0x7F DUP3 AND SWAP2 POP JUMPDEST PUSH1 0x20 DUP3 LT DUP2 SUB PUSH2 0xBFB JUMPI PUSH2 0xBFA PUSH2 0xBA1 JUMP JUMPDEST JUMPDEST POP SWAP2 SWAP1 POP JUMP JUMPDEST PUSH1 0x0 DUP2 SWAP1 POP DUP2 PUSH1 0x0 MSTORE PUSH1 0x20 PUSH1 0x0 KECCAK256 SWAP1 POP SWAP2 SWAP1 POP JUMP JUMPDEST PUSH1 0x0 PUSH1 0x20 PUSH1 0x1F DUP4 ADD DIV SWAP1 POP SWAP2 SWAP1 POP JUMP JUMPDEST PUSH1 0x0 DUP3 DUP3 SHL SWAP1 POP SWAP3 SWAP2 POP POP JUMP JUMPDEST PUSH1 0x0 PUSH1 0x8 DUP4 MUL PUSH2 0xC63 PUSH32 0xFFFFFFFFFFFFFFFFFFFFFFFFFFFFFFFFFFFFFFFFFFFFFFFFFFFFFFFFFFFFFFFF DUP3 PUSH2 0xC26 JUMP JUMPDEST PUSH2 0xC6D DUP7 DUP4 PUSH2 0xC26 JUMP JUMPDEST SWAP6 POP DUP1 NOT DUP5 AND SWAP4 POP DUP1 DUP7 AND DUP5 OR SWAP3 POP POP POP SWAP4 SWAP3 POP POP POP JUMP JUMPDEST PUSH1 0x0 DUP2 SWAP1 POP SWAP2 SWAP1 POP JUMP JUMPDEST PUSH1 0x0 DUP2 SWAP1 POP SWAP2 SWAP1 POP JUMP JUMPDEST PUSH1 0x0 PUSH2 0xCB4 PUSH2 0xCAF PUSH2 0xCAA DUP5 PUSH2 0xC85 JUMP JUMPDEST PUSH2 0xC8F JUMP JUMPDEST PUSH2 0xC85 JUMP JUMPDEST SWAP1 POP SWAP2 SWAP1 POP JUMP JUMPDEST PUSH1 0x0 DUP2 SWAP1 POP SWAP2 SWAP1 POP JUMP JUMPDEST PUSH2 0xCCE DUP4 PUSH2 0xC99 JUMP JUMPDEST PUSH2 0xCE2 PUSH2 0xCDA DUP3 PUSH2 0xCBB JUMP JUMPDEST DUP5 DUP5 SLOAD PUSH2 0xC33 JUMP JUMPDEST DUP3 SSTORE POP POP POP POP JUMP JUMPDEST PUSH1 0x0 SWAP1 JUMP JUMPDEST PUSH2 0xCF7 PUSH2 0xCEA JUMP JUMPDEST PUSH2 0xD02 DUP2 DUP5 DUP5 PUSH2 0xCC5 JUMP JUMPDEST POP POP POP JUMP JUMPDEST JUMPDEST DUP2 DUP2 LT ISZERO PUSH2 0xD26 JUMPI PUSH2 0xD1B PUSH1 0x0 DUP3 PUSH2 0xCEF JUMP JUMPDEST PUSH1 0x1 DUP2 ADD SWAP1 POP PUSH2 0xD08 JUMP JUMPDEST POP POP JUMP JUMPDEST PUSH1 0x1F DUP3 GT ISZERO PUSH2 0xD6B JUMPI PUSH2 0xD3C DUP2 PUSH2 0xC01 JUMP JUMPDEST PUSH2 0xD45 DUP5 PUSH2 0xC16 JUMP JUMPDEST DUP2 ADD PUSH1 0x20 DUP6 LT ISZERO PUSH2 0xD54 JUMPI DUP2 SWAP1 POP JUMPDEST PUSH2 0xD68 PUSH2 0xD60 DUP6 PUSH2 0xC16 JUMP JUMPDEST DUP4 ADD DUP3 PUSH2 0xD07 JUMP JUMPDEST POP POP JUMPDEST POP POP POP JUMP JUMPDEST PUSH1 0x0 DUP3 DUP3 SHR SWAP1 POP SWAP3 SWAP2 POP POP JUMP JUMPDEST PUSH1 0x0 PUSH2 0xD8E PUSH1 0x0 NOT DUP5 PUSH1 0x8 MUL PUSH2 0xD70 JUMP JUMPDEST NOT DUP1 DUP4 AND SWAP2 POP POP SWAP3 SWAP2 POP POP JUMP JUMPDEST PUSH1 0x0 PUSH2 0xDA7 DUP4 DUP4 PUSH2 0xD7D JUMP JUMPDEST SWAP2 POP DUP3 PUSH1 0x2 MUL DUP3 OR SWAP1 POP SWAP3 SWAP2 POP POP JUMP JUMPDEST PUSH2 0xDC0 DUP3 PUSH2 0xB96 JUMP JUMPDEST PUSH8 0xFFFFFFFFFFFFFFFF DUP2 GT ISZERO PUSH2 0xDD9 JUMPI PUSH2 0xDD8 PUSH2 0x9AC JUMP JUMPDEST JUMPDEST PUSH2 0xDE3 DUP3 SLOAD PUSH2 0xBD0 JUMP JUMPDEST PUSH2 0xDEE DUP3 DUP3 DUP6 PUSH2 0xD2A JUMP JUMPDEST PUSH1 0x0 PUSH1 0x20 SWAP1 POP PUSH1 0x1F DUP4 GT PUSH1 0x1 DUP2 EQ PUSH2 0xE21 JUMPI PUSH1 0x0 DUP5 ISZERO PUSH2 0xE0F JUMPI DUP3 DUP8 ADD MLOAD SWAP1 POP JUMPDEST PUSH2 0xE19 DUP6 DUP3 PUSH2 0xD9B JUMP JUMPDEST DUP7 SSTORE POP PUSH2 0xE81 JUMP JUMPDEST PUSH1 0x1F NOT DUP5 AND PUSH2 0xE2F DUP7 PUSH2 0xC01 JUMP JUMPDEST PUSH1 0x0 JUMPDEST DUP3 DUP2 LT ISZERO PUSH2 0xE57 JUMPI DUP5 DUP10 ADD MLOAD DUP3 SSTORE PUSH1 0x1 DUP3 ADD SWAP2 POP PUSH1 0x20 DUP6 ADD SWAP5 POP PUSH1 0x20 DUP2 ADD SWAP1 POP PUSH2 0xE32 JUMP JUMPDEST DUP7 DUP4 LT ISZERO PUSH2 0xE74 JUMPI DUP5 DUP10 ADD MLOAD PUSH2 0xE70 PUSH1 0x1F DUP10 AND DUP3 PUSH2 0xD7D JUMP JUMPDEST DUP4 SSTORE POP JUMPDEST PUSH1 0x1 PUSH1 0x2 DUP9 MUL ADD DUP9 SSTORE POP POP POP JUMPDEST POP POP POP POP POP POP JUMP JUMPDEST PUSH1 0x0 DUP3 DUP3 MSTORE PUSH1 0x20 DUP3 ADD SWAP1 POP SWAP3 SWAP2 POP POP JUMP JUMPDEST PUSH32 0x4174206C65617374203420726576696577657273206172652072657175697265 PUSH1 0x0 DUP3 ADD MSTORE PUSH32 0x6400000000000000000000000000000000000000000000000000000000000000 PUSH1 0x20 DUP3 ADD MSTORE POP JUMP JUMPDEST PUSH1 0x0 PUSH2 0xEF6 PUSH1 0x21 DUP4 PUSH2 0xE89 JUMP JUMPDEST SWAP2 POP PUSH2 0xF01 DUP3 PUSH2 0xE9A JUMP JUMPDEST PUSH1 0x40 DUP3 ADD SWAP1 POP SWAP2 SWAP1 POP JUMP JUMPDEST PUSH1 0x0 PUSH1 0x20 DUP3 ADD SWAP1 POP DUP2 DUP2 SUB PUSH1 0x0 DUP4 ADD MSTORE PUSH2 0xF25 DUP2 PUSH2 0xEE9 JUMP JUMPDEST SWAP1 POP SWAP2 SWAP1 POP JUMP JUMPDEST PUSH32 0x4E487B7100000000000000000000000000000000000000000000000000000000 PUSH1 0x0 MSTORE PUSH1 0x32 PUSH1 0x4 MSTORE PUSH1 0x24 PUSH1 0x0 REVERT JUMPDEST PUSH32 0x4E487B7100000000000000000000000000000000000000000000000000000000 PUSH1 0x0 MSTORE PUSH1 0x21 PUSH1 0x4 MSTORE PUSH1 0x24 PUSH1 0x0 REVERT JUMPDEST PUSH2 0x66EB DUP1 PUSH2 0xF99 PUSH1 0x0 CODECOPY PUSH1 0x0 RETURN INVALID PUSH1 0x80 PUSH1 0x40 MSTORE CALLVALUE DUP1 ISZERO PUSH2 0x10 JUMPI PUSH1 0x0 DUP1 REVERT JUMPDEST POP PUSH1 0x4 CALLDATASIZE LT PUSH2 0x3AE JUMPI PUSH1 0x0 CALLDATALOAD PUSH1 0xE0 SHR DUP1 PUSH4 0x61AC05E2 GT PUSH2 0x1F4 JUMPI DUP1 PUSH4 0xB5193425 GT PUSH2 0x11A JUMPI DUP1 PUSH4 0xD7B999C7 GT PUSH2 0xAD JUMPI DUP1 PUSH4 0xFBA2E310 GT PUSH2 0x7C JUMPI DUP1 PUSH4 0xFBA2E310 EQ PUSH2 0xBEA JUMPI DUP1 PUSH4 0xFD55DD92 EQ PUSH2 0xC1A JUMPI DUP1 PUSH4 0xFDC6258A EQ PUSH2 0xC38 JUMPI DUP1 PUSH4 0xFF4D7128 EQ PUSH2 0xC68 JUMPI PUSH2 0x3AE JUMP JUMPDEST DUP1 PUSH4 0xD7B999C7 EQ PUSH2 0xB62 JUMPI DUP1 PUSH4 0xDCDC510C EQ PUSH2 0xB80 JUMPI DUP1 PUSH4 0xDD62ED3E EQ PUSH2 0xB9E JUMPI DUP1 PUSH4 0xFAD2C5F2 EQ PUSH2 0xBCE JUMPI PUSH2 0x3AE JUMP JUMPDEST DUP1 PUSH4 0xC9442DAC GT PUSH2 0xE9 JUMPI DUP1 PUSH4 0xC9442DAC EQ PUSH2 0xADC JUMPI DUP1 PUSH4 0xCA98E49E EQ PUSH2 0xAF8 JUMPI DUP1 PUSH4 0xD171D049 EQ PUSH2 0xB28 JUMPI DUP1 PUSH4 0xD547741F EQ PUSH2 0xB46 JUMPI PUSH2 0x3AE JUMP JUMPDEST DUP1 PUSH4 0xB5193425 EQ PUSH2 0xA54 JUMPI DUP1 PUSH4 0xBAD0DD65 EQ PUSH2 0xA72 JUMPI DUP1 PUSH4 0xBFA05361 EQ PUSH2 0xA8E JUMPI DUP1 PUSH4 0xC491B04C EQ PUSH2 0xAAC JUMPI PUSH2 0x3AE JUMP JUMPDEST DUP1 PUSH4 0x8C95AEF9 GT PUSH2 0x192 JUMPI DUP1 PUSH4 0x990DC9DB GT PUSH2 0x161 JUMPI DUP1 PUSH4 0x990DC9DB EQ PUSH2 0x9CC JUMPI DUP1 PUSH4 0xA217FDDF EQ PUSH2 0x9E8 JUMPI DUP1 PUSH4 0xA9059CBB EQ PUSH2 0xA06 JUMPI DUP1 PUSH4 0xAEB47E2A EQ PUSH2 0xA36 JUMPI PUSH2 0x3AE JUMP JUMPDEST DUP1 PUSH4 0x8C95AEF9 EQ PUSH2 0x91C JUMPI DUP1 PUSH4 0x914E72A6 EQ PUSH2 0x94E JUMPI DUP1 PUSH4 0x91D14854 EQ PUSH2 0x97E JUMPI DUP1 PUSH4 0x95D89B41 EQ PUSH2 0x9AE JUMPI PUSH2 0x3AE JUMP JUMPDEST DUP1 PUSH4 0x70A08231 GT PUSH2 0x1CE JUMPI DUP1 PUSH4 0x70A08231 EQ PUSH2 0x880 JUMPI DUP1 PUSH4 0x7125A07B EQ PUSH2 0x8B0 JUMPI DUP1 PUSH4 0x73A82B5F EQ PUSH2 0x8E4 JUMPI DUP1 PUSH4 0x7AC66922 EQ PUSH2 0x900 JUMPI PUSH2 0x3AE JUMP JUMPDEST DUP1 PUSH4 0x61AC05E2 EQ PUSH2 0x812 JUMPI DUP1 PUSH4 0x61AC7E61 EQ PUSH2 0x830 JUMPI DUP1 PUSH4 0x7025AAC6 EQ PUSH2 0x84E JUMPI PUSH2 0x3AE JUMP JUMPDEST DUP1 PUSH4 0x2899DF2B GT PUSH2 0x2D9 JUMPI DUP1 PUSH4 0x36568ABE GT PUSH2 0x277 JUMPI DUP1 PUSH4 0x4E860496 GT PUSH2 0x246 JUMPI DUP1 PUSH4 0x4E860496 EQ PUSH2 0x794 JUMPI DUP1 PUSH4 0x50447E5E EQ PUSH2 0x7B0 JUMPI DUP1 PUSH4 0x52994E2F EQ PUSH2 0x7BA JUMPI DUP1 PUSH4 0x5FC61001 EQ PUSH2 0x7D8 JUMPI PUSH2 0x3AE JUMP JUMPDEST DUP1 PUSH4 0x36568ABE EQ PUSH2 0x6F5 JUMPI DUP1 PUSH4 0x3AF0C688 EQ PUSH2 0x711 JUMPI DUP1 PUSH4 0x3B129A56 EQ PUSH2 0x741 JUMPI DUP1 PUSH4 0x40932BF8 EQ PUSH2 0x75F JUMPI PUSH2 0x3AE JUMP JUMPDEST DUP1 PUSH4 0x313CE567 GT PUSH2 0x2B3 JUMPI DUP1 PUSH4 0x313CE567 EQ PUSH2 0x66B JUMPI DUP1 PUSH4 0x32CB6B0C EQ PUSH2 0x689 JUMPI DUP1 PUSH4 0x3387F0C5 EQ PUSH2 0x6A7 JUMPI DUP1 PUSH4 0x354C4E13 EQ PUSH2 0x6C5 JUMPI PUSH2 0x3AE JUMP JUMPDEST DUP1 PUSH4 0x2899DF2B EQ PUSH2 0x5EF JUMPI DUP1 PUSH4 0x2F2FF15D EQ PUSH2 0x61F JUMPI DUP1 PUSH4 0x2F676B65 EQ PUSH2 0x63B JUMPI PUSH2 0x3AE JUMP JUMPDEST DUP1 PUSH4 0x18160DDD GT PUSH2 0x351 JUMPI DUP1 PUSH4 0x2298DE01 GT PUSH2 0x320 JUMPI DUP1 PUSH4 0x2298DE01 EQ PUSH2 0x52F JUMPI DUP1 PUSH4 0x23B872DD EQ PUSH2 0x55F JUMPI DUP1 PUSH4 0x248A9CA3 EQ PUSH2 0x58F JUMPI DUP1 PUSH4 0x248CD810 EQ PUSH2 0x5BF JUMPI PUSH2 0x3AE JUMP JUMPDEST DUP1 PUSH4 0x18160DDD EQ PUSH2 0x4A7 JUMPI DUP1 PUSH4 0x18A8C3F2 EQ PUSH2 0x4C5 JUMPI DUP1 PUSH4 0x19F102EC EQ PUSH2 0x4E1 JUMPI DUP1 PUSH4 0x1E3EDFD9 EQ PUSH2 0x511 JUMPI PUSH2 0x3AE JUMP JUMPDEST DUP1 PUSH4 0x95EA7B3 GT PUSH2 0x38D JUMPI DUP1 PUSH4 0x95EA7B3 EQ PUSH2 0x41F JUMPI DUP1 PUSH4 0xED1D5CB EQ PUSH2 0x44F JUMPI DUP1 PUSH4 0xFB6D46A EQ PUSH2 0x46D JUMPI DUP1 PUSH4 0x15F42DF4 EQ PUSH2 0x48B JUMPI PUSH2 0x3AE JUMP JUMPDEST DUP1 PUSH3 0xB16FEE EQ PUSH2 0x3B3 JUMPI DUP1 PUSH4 0x1FFC9A7 EQ PUSH2 0x3D1 JUMPI DUP1 PUSH4 0x6FDDE03 EQ PUSH2 0x401 JUMPI JUMPDEST PUSH1 0x0 DUP1 REVERT JUMPDEST PUSH2 0x3BB PUSH2 0xC84 JUMP JUMPDEST PUSH1 0x40 MLOAD PUSH2 0x3C8 SWAP2 SWAP1 PUSH2 0x4619 JUMP JUMPDEST PUSH1 0x40 MLOAD DUP1 SWAP2 SUB SWAP1 RETURN JUMPDEST PUSH2 0x3EB PUSH1 0x4 DUP1 CALLDATASIZE SUB DUP2 ADD SWAP1 PUSH2 0x3E6 SWAP2 SWAP1 PUSH2 0x46A0 JUMP JUMPDEST PUSH2 0xE21 JUMP JUMPDEST PUSH1 0x40 MLOAD PUSH2 0x3F8 SWAP2 SWAP1 PUSH2 0x4619 JUMP JUMPDEST PUSH1 0x40 MLOAD DUP1 SWAP2 SUB SWAP1 RETURN JUMPDEST PUSH2 0x409 PUSH2 0xE9B JUMP JUMPDEST PUSH1 0x40 MLOAD PUSH2 0x416 SWAP2 SWAP1 PUSH2 0x475D JUMP JUMPDEST PUSH1 0x40 MLOAD DUP1 SWAP2 SUB SWAP1 RETURN JUMPDEST PUSH2 0x439 PUSH1 0x4 DUP1 CALLDATASIZE SUB DUP2 ADD SWAP1 PUSH2 0x434 SWAP2 SWAP1 PUSH2 0x4813 JUMP JUMPDEST PUSH2 0xF2D JUMP JUMPDEST PUSH1 0x40 MLOAD PUSH2 0x446 SWAP2 SWAP1 PUSH2 0x4619 JUMP JUMPDEST PUSH1 0x40 MLOAD DUP1 SWAP2 SUB SWAP1 RETURN JUMPDEST PUSH2 0x457 PUSH2 0xF50 JUMP JUMPDEST PUSH1 0x40 MLOAD PUSH2 0x464 SWAP2 SWAP1 PUSH2 0x4862 JUMP JUMPDEST PUSH1 0x40 MLOAD DUP1 SWAP2 SUB SWAP1 RETURN JUMPDEST PUSH2 0x475 PUSH2 0xF55 JUMP JUMPDEST PUSH1 0x40 MLOAD PUSH2 0x482 SWAP2 SWAP1 PUSH2 0x4862 JUMP JUMPDEST PUSH1 0x40 MLOAD DUP1 SWAP2 SUB SWAP1 RETURN JUMPDEST PUSH2 0x4A5 PUSH1 0x4 DUP1 CALLDATASIZE SUB DUP2 ADD SWAP1 PUSH2 0x4A0 SWAP2 SWAP1 PUSH2 0x49C5 JUMP JUMPDEST PUSH2 0xF5A JUMP JUMPDEST STOP JUMPDEST PUSH2 0x4AF PUSH2 0xF9D JUMP JUMPDEST PUSH1 0x40 MLOAD PUSH2 0x4BC SWAP2 SWAP1 PUSH2 0x4862 JUMP JUMPDEST PUSH1 0x40 MLOAD DUP1 SWAP2 SUB SWAP1 RETURN JUMPDEST PUSH2 0x4DF PUSH1 0x4 DUP1 CALLDATASIZE SUB DUP2 ADD SWAP1 PUSH2 0x4DA SWAP2 SWAP1 PUSH2 0x49C5 JUMP JUMPDEST PUSH2 0xFA7 JUMP JUMPDEST STOP JUMPDEST PUSH2 0x4FB PUSH1 0x4 DUP1 CALLDATASIZE SUB DUP2 ADD SWAP1 PUSH2 0x4F6 SWAP2 SWAP1 PUSH2 0x4A21 JUMP JUMPDEST PUSH2 0x10BA JUMP JUMPDEST PUSH1 0x40 MLOAD PUSH2 0x508 SWAP2 SWAP1 PUSH2 0x4A5D JUMP JUMPDEST PUSH1 0x40 MLOAD DUP1 SWAP2 SUB SWAP1 RETURN JUMPDEST PUSH2 0x519 PUSH2 0x10F9 JUMP JUMPDEST PUSH1 0x40 MLOAD PUSH2 0x526 SWAP2 SWAP1 PUSH2 0x4862 JUMP JUMPDEST PUSH1 0x40 MLOAD DUP1 SWAP2 SUB SWAP1 RETURN JUMPDEST PUSH2 0x549 PUSH1 0x4 DUP1 CALLDATASIZE SUB DUP2 ADD SWAP1 PUSH2 0x544 SWAP2 SWAP1 PUSH2 0x4A21 JUMP JUMPDEST PUSH2 0x1105 JUMP JUMPDEST PUSH1 0x40 MLOAD PUSH2 0x556 SWAP2 SWAP1 PUSH2 0x4A5D JUMP JUMPDEST PUSH1 0x40 MLOAD DUP1 SWAP2 SUB SWAP1 RETURN JUMPDEST PUSH2 0x579 PUSH1 0x4 DUP1 CALLDATASIZE SUB DUP2 ADD SWAP1 PUSH2 0x574 SWAP2 SWAP1 PUSH2 0x4A78 JUMP JUMPDEST PUSH2 0x1144 JUMP JUMPDEST PUSH1 0x40 MLOAD PUSH2 0x586 SWAP2 SWAP1 PUSH2 0x4619 JUMP JUMPDEST PUSH1 0x40 MLOAD DUP1 SWAP2 SUB SWAP1 RETURN JUMPDEST PUSH2 0x5A9 PUSH1 0x4 DUP1 CALLDATASIZE SUB DUP2 ADD SWAP1 PUSH2 0x5A4 SWAP2 SWAP1 PUSH2 0x4B01 JUMP JUMPDEST PUSH2 0x1173 JUMP JUMPDEST PUSH1 0x40 MLOAD PUSH2 0x5B6 SWAP2 SWAP1 PUSH2 0x4B3D JUMP JUMPDEST PUSH1 0x40 MLOAD DUP1 SWAP2 SUB SWAP1 RETURN JUMPDEST PUSH2 0x5D9 PUSH1 0x4 DUP1 CALLDATASIZE SUB DUP2 ADD SWAP1 PUSH2 0x5D4 SWAP2 SWAP1 PUSH2 0x4C39 JUMP JUMPDEST PUSH2 0x1193 JUMP JUMPDEST PUSH1 0x40 MLOAD PUSH2 0x5E6 SWAP2 SWAP1 PUSH2 0x4862 JUMP JUMPDEST PUSH1 0x40 MLOAD DUP1 SWAP2 SUB SWAP1 RETURN JUMPDEST PUSH2 0x609 PUSH1 0x4 DUP1 CALLDATASIZE SUB DUP2 ADD SWAP1 PUSH2 0x604 SWAP2 SWAP1 PUSH2 0x4D54 JUMP JUMPDEST PUSH2 0x1316 JUMP JUMPDEST PUSH1 0x40 MLOAD PUSH2 0x616 SWAP2 SWAP1 PUSH2 0x4E31 JUMP JUMPDEST PUSH1 0x40 MLOAD DUP1 SWAP2 SUB SWAP1 RETURN JUMPDEST PUSH2 0x639 PUSH1 0x4 DUP1 CALLDATASIZE SUB DUP2 ADD SWAP1 PUSH2 0x634 SWAP2 SWAP1 PUSH2 0x4E53 JUMP JUMPDEST PUSH2 0x1495 JUMP JUMPDEST STOP JUMPDEST PUSH2 0x655 PUSH1 0x4 DUP1 CALLDATASIZE SUB DUP2 ADD SWAP1 PUSH2 0x650 SWAP2 SWAP1 PUSH2 0x4E93 JUMP JUMPDEST PUSH2 0x14B7 JUMP JUMPDEST PUSH1 0x40 MLOAD PUSH2 0x662 SWAP2 SWAP1 PUSH2 0x4619 JUMP JUMPDEST PUSH1 0x40 MLOAD DUP1 SWAP2 SUB SWAP1 RETURN JUMPDEST PUSH2 0x673 PUSH2 0x14D7 JUMP JUMPDEST PUSH1 0x40 MLOAD PUSH2 0x680 SWAP2 SWAP1 PUSH2 0x4EDC JUMP JUMPDEST PUSH1 0x40 MLOAD DUP1 SWAP2 SUB SWAP1 RETURN JUMPDEST PUSH2 0x691 PUSH2 0x14E0 JUMP JUMPDEST PUSH1 0x40 MLOAD PUSH2 0x69E SWAP2 SWAP1 PUSH2 0x4862 JUMP JUMPDEST PUSH1 0x40 MLOAD DUP1 SWAP2 SUB SWAP1 RETURN JUMPDEST PUSH2 0x6AF PUSH2 0x14F0 JUMP JUMPDEST PUSH1 0x40 MLOAD PUSH2 0x6BC SWAP2 SWAP1 PUSH2 0x4FB5 JUMP JUMPDEST PUSH1 0x40 MLOAD DUP1 SWAP2 SUB SWAP1 RETURN JUMPDEST PUSH2 0x6DF PUSH1 0x4 DUP1 CALLDATASIZE SUB DUP2 ADD SWAP1 PUSH2 0x6DA SWAP2 SWAP1 PUSH2 0x4FD7 JUMP JUMPDEST PUSH2 0x157E JUMP JUMPDEST PUSH1 0x40 MLOAD PUSH2 0x6EC SWAP2 SWAP1 PUSH2 0x4619 JUMP JUMPDEST PUSH1 0x40 MLOAD DUP1 SWAP2 SUB SWAP1 RETURN JUMPDEST PUSH2 0x70F PUSH1 0x4 DUP1 CALLDATASIZE SUB DUP2 ADD SWAP1 PUSH2 0x70A SWAP2 SWAP1 PUSH2 0x4E53 JUMP JUMPDEST PUSH2 0x16EA JUMP JUMPDEST STOP JUMPDEST PUSH2 0x72B PUSH1 0x4 DUP1 CALLDATASIZE SUB DUP2 ADD SWAP1 PUSH2 0x726 SWAP2 SWAP1 PUSH2 0x5033 JUMP JUMPDEST PUSH2 0x1765 JUMP JUMPDEST PUSH1 0x40 MLOAD PUSH2 0x738 SWAP2 SWAP1 PUSH2 0x4619 JUMP JUMPDEST PUSH1 0x40 MLOAD DUP1 SWAP2 SUB SWAP1 RETURN JUMPDEST PUSH2 0x749 PUSH2 0x17E6 JUMP JUMPDEST PUSH1 0x40 MLOAD PUSH2 0x756 SWAP2 SWAP1 PUSH2 0x4B3D JUMP JUMPDEST PUSH1 0x40 MLOAD DUP1 SWAP2 SUB SWAP1 RETURN JUMPDEST PUSH2 0x779 PUSH1 0x4 DUP1 CALLDATASIZE SUB DUP2 ADD SWAP1 PUSH2 0x774 SWAP2 SWAP1 PUSH2 0x4A21 JUMP JUMPDEST PUSH2 0x180A JUMP JUMPDEST PUSH1 0x40 MLOAD PUSH2 0x78B SWAP7 SWAP6 SWAP5 SWAP4 SWAP3 SWAP2 SWAP1 PUSH2 0x50C8 JUMP JUMPDEST PUSH1 0x40 MLOAD DUP1 SWAP2 SUB SWAP1 RETURN JUMPDEST PUSH2 0x7AE PUSH1 0x4 DUP1 CALLDATASIZE SUB DUP2 ADD SWAP1 PUSH2 0x7A9 SWAP2 SWAP1 PUSH2 0x4A21 JUMP JUMPDEST PUSH2 0x191B JUMP JUMPDEST STOP JUMPDEST PUSH2 0x7B8 PUSH2 0x1AA6 JUMP JUMPDEST STOP JUMPDEST PUSH2 0x7C2 PUSH2 0x1B0F JUMP JUMPDEST PUSH1 0x40 MLOAD PUSH2 0x7CF SWAP2 SWAP1 PUSH2 0x4B3D JUMP JUMPDEST PUSH1 0x40 MLOAD DUP1 SWAP2 SUB SWAP1 RETURN JUMPDEST PUSH2 0x7F2 PUSH1 0x4 DUP1 CALLDATASIZE SUB DUP2 ADD SWAP1 PUSH2 0x7ED SWAP2 SWAP1 PUSH2 0x4A21 JUMP JUMPDEST PUSH2 0x1B33 JUMP JUMPDEST PUSH1 0x40 MLOAD PUSH2 0x809 SWAP12 SWAP11 SWAP10 SWAP9 SWAP8 SWAP7 SWAP6 SWAP5 SWAP4 SWAP3 SWAP2 SWAP1 PUSH2 0x5130 JUMP JUMPDEST PUSH1 0x40 MLOAD DUP1 SWAP2 SUB SWAP1 RETURN JUMPDEST PUSH2 0x81A PUSH2 0x1D5F JUMP JUMPDEST PUSH1 0x40 MLOAD PUSH2 0x827 SWAP2 SWAP1 PUSH2 0x4862 JUMP JUMPDEST PUSH1 0x40 MLOAD DUP1 SWAP2 SUB SWAP1 RETURN JUMPDEST PUSH2 0x838 PUSH2 0x1D9F JUMP JUMPDEST PUSH1 0x40 MLOAD PUSH2 0x845 SWAP2 SWAP1 PUSH2 0x4B3D JUMP JUMPDEST PUSH1 0x40 MLOAD DUP1 SWAP2 SUB SWAP1 RETURN JUMPDEST PUSH2 0x868 PUSH1 0x4 DUP1 CALLDATASIZE SUB DUP2 ADD SWAP1 PUSH2 0x863 SWAP2 SWAP1 PUSH2 0x4D54 JUMP JUMPDEST PUSH2 0x1DC3 JUMP JUMPDEST PUSH1 0x40 MLOAD PUSH2 0x877 SWAP4 SWAP3 SWAP2 SWAP1 PUSH2 0x51F0 JUMP JUMPDEST PUSH1 0x40 MLOAD DUP1 SWAP2 SUB SWAP1 RETURN JUMPDEST PUSH2 0x89A PUSH1 0x4 DUP1 CALLDATASIZE SUB DUP2 ADD SWAP1 PUSH2 0x895 SWAP2 SWAP1 PUSH2 0x4E93 JUMP JUMPDEST PUSH2 0x1EFD JUMP JUMPDEST PUSH1 0x40 MLOAD PUSH2 0x8A7 SWAP2 SWAP1 PUSH2 0x4862 JUMP JUMPDEST PUSH1 0x40 MLOAD DUP1 SWAP2 SUB SWAP1 RETURN JUMPDEST PUSH2 0x8CA PUSH1 0x4 DUP1 CALLDATASIZE SUB DUP2 ADD SWAP1 PUSH2 0x8C5 SWAP2 SWAP1 PUSH2 0x4E93 JUMP JUMPDEST PUSH2 0x1F45 JUMP JUMPDEST PUSH1 0x40 MLOAD PUSH2 0x8DB SWAP6 SWAP5 SWAP4 SWAP3 SWAP2 SWAP1 PUSH2 0x52AC JUMP JUMPDEST PUSH1 0x40 MLOAD DUP1 SWAP2 SUB SWAP1 RETURN JUMPDEST PUSH2 0x8FE PUSH1 0x4 DUP1 CALLDATASIZE SUB DUP2 ADD SWAP1 PUSH2 0x8F9 SWAP2 SWAP1 PUSH2 0x4E93 JUMP JUMPDEST PUSH2 0x2145 JUMP JUMPDEST STOP JUMPDEST PUSH2 0x91A PUSH1 0x4 DUP1 CALLDATASIZE SUB DUP2 ADD SWAP1 PUSH2 0x915 SWAP2 SWAP1 PUSH2 0x4813 JUMP JUMPDEST PUSH2 0x2329 JUMP JUMPDEST STOP JUMPDEST PUSH2 0x936 PUSH1 0x4 DUP1 CALLDATASIZE SUB DUP2 ADD SWAP1 PUSH2 0x931 SWAP2 SWAP1 PUSH2 0x4E93 JUMP JUMPDEST PUSH2 0x256A JUMP JUMPDEST PUSH1 0x40 MLOAD PUSH2 0x945 SWAP4 SWAP3 SWAP2 SWAP1 PUSH2 0x530D JUMP JUMPDEST PUSH1 0x40 MLOAD DUP1 SWAP2 SUB SWAP1 RETURN JUMPDEST PUSH2 0x968 PUSH1 0x4 DUP1 CALLDATASIZE SUB DUP2 ADD SWAP1 PUSH2 0x963 SWAP2 SWAP1 PUSH2 0x4E93 JUMP JUMPDEST PUSH2 0x25A1 JUMP JUMPDEST PUSH1 0x40 MLOAD PUSH2 0x975 SWAP2 SWAP1 PUSH2 0x4862 JUMP JUMPDEST PUSH1 0x40 MLOAD DUP1 SWAP2 SUB SWAP1 RETURN JUMPDEST PUSH2 0x998 PUSH1 0x4 DUP1 CALLDATASIZE SUB DUP2 ADD SWAP1 PUSH2 0x993 SWAP2 SWAP1 PUSH2 0x4E53 JUMP JUMPDEST PUSH2 0x25ED JUMP JUMPDEST PUSH1 0x40 MLOAD PUSH2 0x9A5 SWAP2 SWAP1 PUSH2 0x4619 JUMP JUMPDEST PUSH1 0x40 MLOAD DUP1 SWAP2 SUB SWAP1 RETURN JUMPDEST PUSH2 0x9B6 PUSH2 0x2658 JUMP JUMPDEST PUSH1 0x40 MLOAD PUSH2 0x9C3 SWAP2 SWAP1 PUSH2 0x475D JUMP JUMPDEST PUSH1 0x40 MLOAD DUP1 SWAP2 SUB SWAP1 RETURN JUMPDEST PUSH2 0x9E6 PUSH1 0x4 DUP1 CALLDATASIZE SUB DUP2 ADD SWAP1 PUSH2 0x9E1 SWAP2 SWAP1 PUSH2 0x4813 JUMP JUMPDEST PUSH2 0x26EA JUMP JUMPDEST STOP JUMPDEST PUSH2 0x9F0 PUSH2 0x2804 JUMP JUMPDEST PUSH1 0x40 MLOAD PUSH2 0x9FD SWAP2 SWAP1 PUSH2 0x4B3D JUMP JUMPDEST PUSH1 0x40 MLOAD DUP1 SWAP2 SUB SWAP1 RETURN JUMPDEST PUSH2 0xA20 PUSH1 0x4 DUP1 CALLDATASIZE SUB DUP2 ADD SWAP1 PUSH2 0xA1B SWAP2 SWAP1 PUSH2 0x4813 JUMP JUMPDEST PUSH2 0x280B JUMP JUMPDEST PUSH1 0x40 MLOAD PUSH2 0xA2D SWAP2 SWAP1 PUSH2 0x4619 JUMP JUMPDEST PUSH1 0x40 MLOAD DUP1 SWAP2 SUB SWAP1 RETURN JUMPDEST PUSH2 0xA3E PUSH2 0x282E JUMP JUMPDEST PUSH1 0x40 MLOAD PUSH2 0xA4B SWAP2 SWAP1 PUSH2 0x4862 JUMP JUMPDEST PUSH1 0x40 MLOAD DUP1 SWAP2 SUB SWAP1 RETURN JUMPDEST PUSH2 0xA5C PUSH2 0x2856 JUMP JUMPDEST PUSH1 0x40 MLOAD PUSH2 0xA69 SWAP2 SWAP1 PUSH2 0x4862 JUMP JUMPDEST PUSH1 0x40 MLOAD DUP1 SWAP2 SUB SWAP1 RETURN JUMPDEST PUSH2 0xA8C PUSH1 0x4 DUP1 CALLDATASIZE SUB DUP2 ADD SWAP1 PUSH2 0xA87 SWAP2 SWAP1 PUSH2 0x4A21 JUMP JUMPDEST PUSH2 0x285B JUMP JUMPDEST STOP JUMPDEST PUSH2 0xA96 PUSH2 0x2B5A JUMP JUMPDEST PUSH1 0x40 MLOAD PUSH2 0xAA3 SWAP2 SWAP1 PUSH2 0x4862 JUMP JUMPDEST PUSH1 0x40 MLOAD DUP1 SWAP2 SUB SWAP1 RETURN JUMPDEST PUSH2 0xAC6 PUSH1 0x4 DUP1 CALLDATASIZE SUB DUP2 ADD SWAP1 PUSH2 0xAC1 SWAP2 SWAP1 PUSH2 0x4E93 JUMP JUMPDEST PUSH2 0x2B5F JUMP JUMPDEST PUSH1 0x40 MLOAD PUSH2 0xAD3 SWAP2 SWAP1 PUSH2 0x4619 JUMP JUMPDEST PUSH1 0x40 MLOAD DUP1 SWAP2 SUB SWAP1 RETURN JUMPDEST PUSH2 0xAF6 PUSH1 0x4 DUP1 CALLDATASIZE SUB DUP2 ADD SWAP1 PUSH2 0xAF1 SWAP2 SWAP1 PUSH2 0x4E93 JUMP JUMPDEST PUSH2 0x2B7F JUMP JUMPDEST STOP JUMPDEST PUSH2 0xB12 PUSH1 0x4 DUP1 CALLDATASIZE SUB DUP2 ADD SWAP1 PUSH2 0xB0D SWAP2 SWAP1 PUSH2 0x4E93 JUMP JUMPDEST PUSH2 0x2E69 JUMP JUMPDEST PUSH1 0x40 MLOAD PUSH2 0xB1F SWAP2 SWAP1 PUSH2 0x5344 JUMP JUMPDEST PUSH1 0x40 MLOAD DUP1 SWAP2 SUB SWAP1 RETURN JUMPDEST PUSH2 0xB30 PUSH2 0x2EC2 JUMP JUMPDEST PUSH1 0x40 MLOAD PUSH2 0xB3D SWAP2 SWAP1 PUSH2 0x4862 JUMP JUMPDEST PUSH1 0x40 MLOAD DUP1 SWAP2 SUB SWAP1 RETURN JUMPDEST PUSH2 0xB60 PUSH1 0x4 DUP1 CALLDATASIZE SUB DUP2 ADD SWAP1 PUSH2 0xB5B SWAP2 SWAP1 PUSH2 0x4E53 JUMP JUMPDEST PUSH2 0x2EC8 JUMP JUMPDEST STOP JUMPDEST PUSH2 0xB6A PUSH2 0x2EEA JUMP JUMPDEST PUSH1 0x40 MLOAD PUSH2 0xB77 SWAP2 SWAP1 PUSH2 0x4862 JUMP JUMPDEST PUSH1 0x40 MLOAD DUP1 SWAP2 SUB SWAP1 RETURN JUMPDEST PUSH2 0xB88 PUSH2 0x2EF0 JUMP JUMPDEST PUSH1 0x40 MLOAD PUSH2 0xB95 SWAP2 SWAP1 PUSH2 0x552D JUMP JUMPDEST PUSH1 0x40 MLOAD DUP1 SWAP2 SUB SWAP1 RETURN JUMPDEST PUSH2 0xBB8 PUSH1 0x4 DUP1 CALLDATASIZE SUB DUP2 ADD SWAP1 PUSH2 0xBB3 SWAP2 SWAP1 PUSH2 0x554F JUMP JUMPDEST PUSH2 0x3223 JUMP JUMPDEST PUSH1 0x40 MLOAD PUSH2 0xBC5 SWAP2 SWAP1 PUSH2 0x4862 JUMP JUMPDEST PUSH1 0x40 MLOAD DUP1 SWAP2 SUB SWAP1 RETURN JUMPDEST PUSH2 0xBE8 PUSH1 0x4 DUP1 CALLDATASIZE SUB DUP2 ADD SWAP1 PUSH2 0xBE3 SWAP2 SWAP1 PUSH2 0x4813 JUMP JUMPDEST PUSH2 0x32AA JUMP JUMPDEST STOP JUMPDEST PUSH2 0xC04 PUSH1 0x4 DUP1 CALLDATASIZE SUB DUP2 ADD SWAP1 PUSH2 0xBFF SWAP2 SWAP1 PUSH2 0x4E93 JUMP JUMPDEST PUSH2 0x337D JUMP JUMPDEST PUSH1 0x40 MLOAD PUSH2 0xC11 SWAP2 SWAP1 PUSH2 0x4862 JUMP JUMPDEST PUSH1 0x40 MLOAD DUP1 SWAP2 SUB SWAP1 RETURN JUMPDEST PUSH2 0xC22 PUSH2 0x3395 JUMP JUMPDEST PUSH1 0x40 MLOAD PUSH2 0xC2F SWAP2 SWAP1 PUSH2 0x5344 JUMP JUMPDEST PUSH1 0x40 MLOAD DUP1 SWAP2 SUB SWAP1 RETURN JUMPDEST PUSH2 0xC52 PUSH1 0x4 DUP1 CALLDATASIZE SUB DUP2 ADD SWAP1 PUSH2 0xC4D SWAP2 SWAP1 PUSH2 0x4E93 JUMP JUMPDEST PUSH2 0x33A5 JUMP JUMPDEST PUSH1 0x40 MLOAD PUSH2 0xC5F SWAP2 SWAP1 PUSH2 0x4619 JUMP JUMPDEST PUSH1 0x40 MLOAD DUP1 SWAP2 SUB SWAP1 RETURN JUMPDEST PUSH2 0xC82 PUSH1 0x4 DUP1 CALLDATASIZE SUB DUP2 ADD SWAP1 PUSH2 0xC7D SWAP2 SWAP1 PUSH2 0x4FD7 JUMP JUMPDEST PUSH2 0x33D8 JUMP JUMPDEST STOP JUMPDEST PUSH1 0x0 PUSH1 0x11 PUSH1 0x0 CALLER PUSH20 0xFFFFFFFFFFFFFFFFFFFFFFFFFFFFFFFFFFFFFFFF AND PUSH20 0xFFFFFFFFFFFFFFFFFFFFFFFFFFFFFFFFFFFFFFFF AND DUP2 MSTORE PUSH1 0x20 ADD SWAP1 DUP2 MSTORE PUSH1 0x20 ADD PUSH1 0x0 KECCAK256 PUSH1 0x0 SWAP1 SLOAD SWAP1 PUSH2 0x100 EXP SWAP1 DIV PUSH1 0xFF AND ISZERO PUSH2 0xD13 JUMPI PUSH1 0x40 MLOAD PUSH32 0x8C379A000000000000000000000000000000000000000000000000000000000 DUP2 MSTORE PUSH1 0x4 ADD PUSH2 0xD0A SWAP1 PUSH2 0x55DB JUMP JUMPDEST PUSH1 0x40 MLOAD DUP1 SWAP2 SUB SWAP1 REVERT JUMPDEST PUSH1 0x14 CALLER SWAP1 DUP1 PUSH1 0x1 DUP2 SLOAD ADD DUP1 DUP3 SSTORE DUP1 SWAP2 POP POP PUSH1 0x1 SWAP1 SUB SWAP1 PUSH1 0x0 MSTORE PUSH1 0x20 PUSH1 0x0 KECCAK256 ADD PUSH1 0x0 SWAP1 SWAP2 SWAP1 SWAP2 SWAP1 SWAP2 PUSH2 0x100 EXP DUP2 SLOAD DUP2 PUSH20 0xFFFFFFFFFFFFFFFFFFFFFFFFFFFFFFFFFFFFFFFF MUL NOT AND SWAP1 DUP4 PUSH20 0xFFFFFFFFFFFFFFFFFFFFFFFFFFFFFFFFFFFFFFFF AND MUL OR SWAP1 SSTORE POP PUSH1 0x1 PUSH1 0x11 PUSH1 0x0 CALLER PUSH20 0xFFFFFFFFFFFFFFFFFFFFFFFFFFFFFFFFFFFFFFFF AND PUSH20 0xFFFFFFFFFFFFFFFFFFFFFFFFFFFFFFFFFFFFFFFF AND DUP2 MSTORE PUSH1 0x20 ADD SWAP1 DUP2 MSTORE PUSH1 0x20 ADD PUSH1 0x0 KECCAK256 PUSH1 0x0 PUSH2 0x100 EXP DUP2 SLOAD DUP2 PUSH1 0xFF MUL NOT AND SWAP1 DUP4 ISZERO ISZERO MUL OR SWAP1 SSTORE POP PUSH2 0xDD7 CALLER PUSH2 0x3454 JUMP JUMPDEST CALLER PUSH20 0xFFFFFFFFFFFFFFFFFFFFFFFFFFFFFFFFFFFFFFFF AND PUSH32 0x49B628A727A909471E7C6BCBA2122134DA6A8E649ACCE3B2CD8DF34FFB98C86C PUSH1 0x40 MLOAD PUSH1 0x40 MLOAD DUP1 SWAP2 SUB SWAP1 LOG2 PUSH1 0x1 SWAP1 POP SWAP1 JUMP JUMPDEST PUSH1 0x0 PUSH32 0x7965DB0B00000000000000000000000000000000000000000000000000000000 PUSH28 0xFFFFFFFFFFFFFFFFFFFFFFFFFFFFFFFFFFFFFFFFFFFFFFFFFFFFFFFF NOT AND DUP3 PUSH28 0xFFFFFFFFFFFFFFFFFFFFFFFFFFFFFFFFFFFFFFFFFFFFFFFFFFFFFFFF NOT AND EQ DUP1 PUSH2 0xE94 JUMPI POP PUSH2 0xE93 DUP3 PUSH2 0x351A JUMP JUMPDEST JUMPDEST SWAP1 POP SWAP2 SWAP1 POP JUMP JUMPDEST PUSH1 0x60 PUSH1 0x3 DUP1 SLOAD PUSH2 0xEAA SWAP1 PUSH2 0x562A JUMP JUMPDEST DUP1 PUSH1 0x1F ADD PUSH1 0x20 DUP1 SWAP2 DIV MUL PUSH1 0x20 ADD PUSH1 0x40 MLOAD SWAP1 DUP2 ADD PUSH1 0x40 MSTORE DUP1 SWAP3 SWAP2 SWAP1 DUP2 DUP2 MSTORE PUSH1 0x20 ADD DUP3 DUP1 SLOAD PUSH2 0xED6 SWAP1 PUSH2 0x562A JUMP JUMPDEST DUP1 ISZERO PUSH2 0xF23 JUMPI DUP1 PUSH1 0x1F LT PUSH2 0xEF8 JUMPI PUSH2 0x100 DUP1 DUP4 SLOAD DIV MUL DUP4 MSTORE SWAP2 PUSH1 0x20 ADD SWAP2 PUSH2 0xF23 JUMP JUMPDEST DUP3 ADD SWAP2 SWAP1 PUSH1 0x0 MSTORE PUSH1 0x20 PUSH1 0x0 KECCAK256 SWAP1 JUMPDEST DUP2 SLOAD DUP2 MSTORE SWAP1 PUSH1 0x1 ADD SWAP1 PUSH1 0x20 ADD DUP1 DUP4 GT PUSH2 0xF06 JUMPI DUP3 SWAP1 SUB PUSH1 0x1F AND DUP3 ADD SWAP2 JUMPDEST POP POP POP POP POP SWAP1 POP SWAP1 JUMP JUMPDEST PUSH1 0x0 DUP1 PUSH2 0xF38 PUSH2 0x3584 JUMP JUMPDEST SWAP1 POP PUSH2 0xF45 DUP2 DUP6 DUP6 PUSH2 0x358C JUMP JUMPDEST PUSH1 0x1 SWAP2 POP POP SWAP3 SWAP2 POP POP JUMP JUMPDEST PUSH1 0x3 DUP2 JUMP JUMPDEST PUSH1 0x1 DUP2 JUMP JUMPDEST PUSH1 0x0 JUMPDEST DUP3 MLOAD DUP2 LT ISZERO PUSH2 0xF98 JUMPI PUSH2 0xF8A DUP4 DUP3 DUP2 MLOAD DUP2 LT PUSH2 0xF7C JUMPI PUSH2 0xF7B PUSH2 0x565B JUMP JUMPDEST JUMPDEST PUSH1 0x20 MUL PUSH1 0x20 ADD ADD MLOAD DUP4 PUSH2 0x359E JUMP JUMPDEST POP DUP1 DUP1 PUSH1 0x1 ADD SWAP2 POP POP PUSH2 0xF5D JUMP JUMPDEST POP POP POP JUMP JUMPDEST PUSH1 0x0 PUSH1 0x2 SLOAD SWAP1 POP SWAP1 JUMP JUMPDEST PUSH32 0xC295D8A2F69016465F61012796A38346423F02058E9C426F8BC1D946BC8C8470 PUSH2 0xFD1 DUP2 PUSH2 0x36FA JUMP JUMPDEST PUSH1 0x0 DUP4 MLOAD GT PUSH2 0x1015 JUMPI PUSH1 0x40 MLOAD PUSH32 0x8C379A000000000000000000000000000000000000000000000000000000000 DUP2 MSTORE PUSH1 0x4 ADD PUSH2 0x100C SWAP1 PUSH2 0x56D6 JUMP JUMPDEST PUSH1 0x40 MLOAD DUP1 SWAP2 SUB SWAP1 REVERT JUMPDEST PUSH1 0x0 DUP4 DUP4 PUSH1 0x40 MLOAD PUSH1 0x24 ADD PUSH2 0x102A SWAP3 SWAP2 SWAP1 PUSH2 0x56F6 JUMP JUMPDEST PUSH1 0x40 MLOAD PUSH1 0x20 DUP2 DUP4 SUB SUB DUP2 MSTORE SWAP1 PUSH1 0x40 MSTORE PUSH32 0x15F42DF400000000000000000000000000000000000000000000000000000000 PUSH28 0xFFFFFFFFFFFFFFFFFFFFFFFFFFFFFFFFFFFFFFFFFFFFFFFFFFFFFFFF NOT AND PUSH1 0x20 DUP3 ADD DUP1 MLOAD PUSH28 0xFFFFFFFFFFFFFFFFFFFFFFFFFFFFFFFFFFFFFFFFFFFFFFFFFFFFFFFF DUP4 DUP2 DUP4 AND OR DUP4 MSTORE POP POP POP POP SWAP1 POP PUSH2 0x10B3 ADDRESS DUP3 PUSH2 0x370E JUMP JUMPDEST POP POP POP POP POP JUMP JUMPDEST PUSH1 0x7 DUP2 DUP2 SLOAD DUP2 LT PUSH2 0x10CA JUMPI PUSH1 0x0 DUP1 REVERT JUMPDEST SWAP1 PUSH1 0x0 MSTORE PUSH1 0x20 PUSH1 0x0 KECCAK256 ADD PUSH1 0x0 SWAP2 POP SLOAD SWAP1 PUSH2 0x100 EXP SWAP1 DIV PUSH20 0xFFFFFFFFFFFFFFFFFFFFFFFFFFFFFFFFFFFFFFFF AND DUP2 JUMP JUMPDEST PUSH8 0x29A2241AF62C0000 DUP2 JUMP JUMPDEST PUSH1 0x14 DUP2 DUP2 SLOAD DUP2 LT PUSH2 0x1115 JUMPI PUSH1 0x0 DUP1 REVERT JUMPDEST SWAP1 PUSH1 0x0 MSTORE PUSH1 0x20 PUSH1 0x0 KECCAK256 ADD PUSH1 0x0 SWAP2 POP SLOAD SWAP1 PUSH2 0x100 EXP SWAP1 DIV PUSH20 0xFFFFFFFFFFFFFFFFFFFFFFFFFFFFFFFFFFFFFFFF AND DUP2 JUMP JUMPDEST PUSH1 0x0 DUP1 PUSH2 0x114F PUSH2 0x3584 JUMP JUMPDEST SWAP1 POP PUSH2 0x115C DUP6 DUP3 DUP6 PUSH2 0x38FD JUMP JUMPDEST PUSH2 0x1167 DUP6 DUP6 DUP6 PUSH2 0x3992 JUMP JUMPDEST PUSH1 0x1 SWAP2 POP POP SWAP4 SWAP3 POP POP POP JUMP JUMPDEST PUSH1 0x0 PUSH1 0x5 PUSH1 0x0 DUP4 DUP2 MSTORE PUSH1 0x20 ADD SWAP1 DUP2 MSTORE PUSH1 0x20 ADD PUSH1 0x0 KECCAK256 PUSH1 0x1 ADD SLOAD SWAP1 POP SWAP2 SWAP1 POP JUMP JUMPDEST PUSH1 0x0 PUSH32 0xC295D8A2F69016465F61012796A38346423F02058E9C426F8BC1D946BC8C8470 PUSH2 0x11BF DUP2 PUSH2 0x36FA JUMP JUMPDEST PUSH1 0x0 PUSH1 0x12 PUSH1 0x0 DUP2 SLOAD DUP1 SWAP3 SWAP2 SWAP1 PUSH2 0x11D4 SWAP1 PUSH2 0x5755 JUMP JUMPDEST SWAP2 SWAP1 POP SSTORE SWAP1 POP PUSH1 0x0 PUSH1 0xF PUSH1 0x0 DUP4 DUP2 MSTORE PUSH1 0x20 ADD SWAP1 DUP2 MSTORE PUSH1 0x20 ADD PUSH1 0x0 KECCAK256 SWAP1 POP DUP2 DUP2 PUSH1 0x0 ADD DUP2 SWAP1 SSTORE POP DUP11 DUP2 PUSH1 0x1 ADD SWAP1 DUP2 PUSH2 0x120B SWAP2 SWAP1 PUSH2 0x5949 JUMP JUMPDEST POP CALLER DUP2 PUSH1 0x2 ADD PUSH1 0x0 PUSH2 0x100 EXP DUP2 SLOAD DUP2 PUSH20 0xFFFFFFFFFFFFFFFFFFFFFFFFFFFFFFFFFFFFFFFF MUL NOT AND SWAP1 DUP4 PUSH20 0xFFFFFFFFFFFFFFFFFFFFFFFFFFFFFFFFFFFFFFFF AND MUL OR SWAP1 SSTORE POP DUP10 DUP2 PUSH1 0x3 ADD DUP2 SWAP1 SSTORE POP DUP9 DUP2 PUSH1 0x4 ADD DUP2 SWAP1 SSTORE POP DUP8 DUP2 PUSH1 0x5 ADD DUP2 SWAP1 SSTORE POP PUSH1 0x1 DUP2 PUSH1 0x7 ADD PUSH1 0x0 PUSH2 0x100 EXP DUP2 SLOAD DUP2 PUSH1 0xFF MUL NOT AND SWAP1 DUP4 ISZERO ISZERO MUL OR SWAP1 SSTORE POP DUP7 DUP2 PUSH1 0x7 ADD PUSH1 0x1 PUSH2 0x100 EXP DUP2 SLOAD DUP2 PUSH1 0xFF MUL NOT AND SWAP1 DUP4 ISZERO ISZERO MUL OR SWAP1 SSTORE POP DUP6 DUP2 PUSH1 0x8 ADD SWAP1 DUP2 PUSH2 0x12B4 SWAP2 SWAP1 PUSH2 0x5949 JUMP JUMPDEST POP DUP5 DUP2 PUSH1 0x9 ADD SWAP1 DUP2 PUSH2 0x12C6 SWAP2 SWAP1 PUSH2 0x5949 JUMP JUMPDEST POP DUP2 PUSH32 0xEC38F747B0AA7C21A8A9BDEC175EB246BAF6E36E70D7E24434E272B2BA6A362A DUP13 CALLER DUP11 DUP11 PUSH1 0x40 MLOAD PUSH2 0x12FD SWAP5 SWAP4 SWAP3 SWAP2 SWAP1 PUSH2 0x5A1B JUMP JUMPDEST PUSH1 0x40 MLOAD DUP1 SWAP2 SUB SWAP1 LOG2 DUP2 SWAP4 POP POP POP POP SWAP8 SWAP7 POP POP POP POP POP POP POP JUMP JUMPDEST PUSH2 0x131E PUSH2 0x4569 JUMP JUMPDEST PUSH1 0xC PUSH1 0x0 DUP4 PUSH1 0x4 DUP2 GT ISZERO PUSH2 0x1335 JUMPI PUSH2 0x1334 PUSH2 0x5235 JUMP JUMPDEST JUMPDEST PUSH1 0x4 DUP2 GT ISZERO PUSH2 0x1347 JUMPI PUSH2 0x1346 PUSH2 0x5235 JUMP JUMPDEST JUMPDEST DUP2 MSTORE PUSH1 0x20 ADD SWAP1 DUP2 MSTORE PUSH1 0x20 ADD PUSH1 0x0 KECCAK256 PUSH1 0x40 MLOAD DUP1 PUSH1 0x60 ADD PUSH1 0x40 MSTORE SWAP1 DUP2 PUSH1 0x0 DUP3 ADD DUP1 SLOAD PUSH2 0x1370 SWAP1 PUSH2 0x562A JUMP JUMPDEST DUP1 PUSH1 0x1F ADD PUSH1 0x20 DUP1 SWAP2 DIV MUL PUSH1 0x20 ADD PUSH1 0x40 MLOAD SWAP1 DUP2 ADD PUSH1 0x40 MSTORE DUP1 SWAP3 SWAP2 SWAP1 DUP2 DUP2 MSTORE PUSH1 0x20 ADD DUP3 DUP1 SLOAD PUSH2 0x139C SWAP1 PUSH2 0x562A JUMP JUMPDEST DUP1 ISZERO PUSH2 0x13E9 JUMPI DUP1 PUSH1 0x1F LT PUSH2 0x13BE JUMPI PUSH2 0x100 DUP1 DUP4 SLOAD DIV MUL DUP4 MSTORE SWAP2 PUSH1 0x20 ADD SWAP2 PUSH2 0x13E9 JUMP JUMPDEST DUP3 ADD SWAP2 SWAP1 PUSH1 0x0 MSTORE PUSH1 0x20 PUSH1 0x0 KECCAK256 SWAP1 JUMPDEST DUP2 SLOAD DUP2 MSTORE SWAP1 PUSH1 0x1 ADD SWAP1 PUSH1 0x20 ADD DUP1 DUP4 GT PUSH2 0x13CC JUMPI DUP3 SWAP1 SUB PUSH1 0x1F AND DUP3 ADD SWAP2 JUMPDEST POP POP POP POP POP DUP2 MSTORE PUSH1 0x20 ADD PUSH1 0x1 DUP3 ADD DUP1 SLOAD PUSH2 0x1402 SWAP1 PUSH2 0x562A JUMP JUMPDEST DUP1 PUSH1 0x1F ADD PUSH1 0x20 DUP1 SWAP2 DIV MUL PUSH1 0x20 ADD PUSH1 0x40 MLOAD SWAP1 DUP2 ADD PUSH1 0x40 MSTORE DUP1 SWAP3 SWAP2 SWAP1 DUP2 DUP2 MSTORE PUSH1 0x20 ADD DUP3 DUP1 SLOAD PUSH2 0x142E SWAP1 PUSH2 0x562A JUMP JUMPDEST DUP1 ISZERO PUSH2 0x147B JUMPI DUP1 PUSH1 0x1F LT PUSH2 0x1450 JUMPI PUSH2 0x100 DUP1 DUP4 SLOAD DIV MUL DUP4 MSTORE SWAP2 PUSH1 0x20 ADD SWAP2 PUSH2 0x147B JUMP JUMPDEST DUP3 ADD SWAP2 SWAP1 PUSH1 0x0 MSTORE PUSH1 0x20 PUSH1 0x0 KECCAK256 SWAP1 JUMPDEST DUP2 SLOAD DUP2 MSTORE SWAP1 PUSH1 0x1 ADD SWAP1 PUSH1 0x20 ADD DUP1 DUP4 GT PUSH2 0x145E JUMPI DUP3 SWAP1 SUB PUSH1 0x1F AND DUP3 ADD SWAP2 JUMPDEST POP POP POP POP POP DUP2 MSTORE PUSH1 0x20 ADD PUSH1 0x2 DUP3 ADD SLOAD DUP2 MSTORE POP POP SWAP1 POP SWAP2 SWAP1 POP JUMP JUMPDEST PUSH2 0x149E DUP3 PUSH2 0x1173 JUMP JUMPDEST PUSH2 0x14A7 DUP2 PUSH2 0x36FA JUMP JUMPDEST PUSH2 0x14B1 DUP4 DUP4 PUSH2 0x3A86 JUMP JUMPDEST POP POP POP POP JUMP JUMPDEST PUSH1 0x11 PUSH1 0x20 MSTORE DUP1 PUSH1 0x0 MSTORE PUSH1 0x40 PUSH1 0x0 KECCAK256 PUSH1 0x0 SWAP2 POP SLOAD SWAP1 PUSH2 0x100 EXP SWAP1 DIV PUSH1 0xFF AND DUP2 JUMP JUMPDEST PUSH1 0x0 PUSH1 0x12 SWAP1 POP SWAP1 JUMP JUMPDEST PUSH12 0x204FCE5E3E25026110000000 DUP2 JUMP JUMPDEST PUSH1 0x60 PUSH1 0x14 DUP1 SLOAD DUP1 PUSH1 0x20 MUL PUSH1 0x20 ADD PUSH1 0x40 MLOAD SWAP1 DUP2 ADD PUSH1 0x40 MSTORE DUP1 SWAP3 SWAP2 SWAP1 DUP2 DUP2 MSTORE PUSH1 0x20 ADD DUP3 DUP1 SLOAD DUP1 ISZERO PUSH2 0x1574 JUMPI PUSH1 0x20 MUL DUP3 ADD SWAP2 SWAP1 PUSH1 0x0 MSTORE PUSH1 0x20 PUSH1 0x0 KECCAK256 SWAP1 JUMPDEST DUP2 PUSH1 0x0 SWAP1 SLOAD SWAP1 PUSH2 0x100 EXP SWAP1 DIV PUSH20 0xFFFFFFFFFFFFFFFFFFFFFFFFFFFFFFFFFFFFFFFF AND PUSH20 0xFFFFFFFFFFFFFFFFFFFFFFFFFFFFFFFFFFFFFFFF AND DUP2 MSTORE PUSH1 0x20 ADD SWAP1 PUSH1 0x1 ADD SWAP1 DUP1 DUP4 GT PUSH2 0x152A JUMPI JUMPDEST POP POP POP POP POP SWAP1 POP SWAP1 JUMP JUMPDEST PUSH1 0x0 PUSH32 0xC295D8A2F69016465F61012796A38346423F02058E9C426F8BC1D946BC8C8470 PUSH2 0x15AA DUP2 PUSH2 0x36FA JUMP JUMPDEST PUSH1 0x2 PUSH1 0x64 PUSH1 0xA PUSH12 0x204FCE5E3E25026110000000 PUSH2 0x15C7 SWAP2 SWAP1 PUSH2 0x5A6E JUMP JUMPDEST PUSH2 0x15D1 SWAP2 SWAP1 PUSH2 0x5ADF JUMP JUMPDEST PUSH2 0x15DB SWAP2 SWAP1 PUSH2 0x5ADF JUMP JUMPDEST PUSH2 0x15E3 PUSH2 0x3B78 JUMP JUMPDEST DUP6 DUP6 MLOAD PUSH2 0x15F0 SWAP2 SWAP1 PUSH2 0x5A6E JUMP JUMPDEST PUSH2 0x15FA SWAP2 SWAP1 PUSH2 0x5B10 JUMP JUMPDEST GT ISZERO PUSH2 0x163B JUMPI PUSH1 0x40 MLOAD PUSH32 0x8C379A000000000000000000000000000000000000000000000000000000000 DUP2 MSTORE PUSH1 0x4 ADD PUSH2 0x1632 SWAP1 PUSH2 0x5B90 JUMP JUMPDEST PUSH1 0x40 MLOAD DUP1 SWAP2 SUB SWAP1 REVERT JUMPDEST PUSH1 0x0 DUP5 DUP5 PUSH1 0x40 MLOAD PUSH1 0x24 ADD PUSH2 0x1650 SWAP3 SWAP2 SWAP1 PUSH2 0x5BB0 JUMP JUMPDEST PUSH1 0x40 MLOAD PUSH1 0x20 DUP2 DUP4 SUB SUB DUP2 MSTORE SWAP1 PUSH1 0x40 MSTORE PUSH32 0xFF4D712800000000000000000000000000000000000000000000000000000000 PUSH28 0xFFFFFFFFFFFFFFFFFFFFFFFFFFFFFFFFFFFFFFFFFFFFFFFFFFFFFFFF NOT AND PUSH1 0x20 DUP3 ADD DUP1 MLOAD PUSH28 0xFFFFFFFFFFFFFFFFFFFFFFFFFFFFFFFFFFFFFFFFFFFFFFFFFFFFFFFF DUP4 DUP2 DUP4 AND OR DUP4 MSTORE POP POP POP POP SWAP1 POP PUSH1 0x0 PUSH2 0x16DB ADDRESS DUP4 PUSH2 0x370E JUMP JUMPDEST SWAP1 POP PUSH1 0x1 SWAP4 POP POP POP POP SWAP3 SWAP2 POP POP JUMP JUMPDEST PUSH2 0x16F2 PUSH2 0x3584 JUMP JUMPDEST PUSH20 0xFFFFFFFFFFFFFFFFFFFFFFFFFFFFFFFFFFFFFFFF AND DUP2 PUSH20 0xFFFFFFFFFFFFFFFFFFFFFFFFFFFFFFFFFFFFFFFF AND EQ PUSH2 0x1756 JUMPI PUSH1 0x40 MLOAD PUSH32 0x6697B23200000000000000000000000000000000000000000000000000000000 DUP2 MSTORE PUSH1 0x4 ADD PUSH1 0x40 MLOAD DUP1 SWAP2 SUB SWAP1 REVERT JUMPDEST PUSH2 0x1760 DUP3 DUP3 PUSH2 0x3B82 JUMP JUMPDEST POP POP POP JUMP JUMPDEST PUSH1 0x0 DUP2 PUSH1 0x4 DUP2 GT ISZERO PUSH2 0x177A JUMPI PUSH2 0x1779 PUSH2 0x5235 JUMP JUMPDEST JUMPDEST PUSH1 0xB PUSH1 0x0 DUP6 PUSH20 0xFFFFFFFFFFFFFFFFFFFFFFFFFFFFFFFFFFFFFFFF AND PUSH20 0xFFFFFFFFFFFFFFFFFFFFFFFFFFFFFFFFFFFFFFFF AND DUP2 MSTORE PUSH1 0x20 ADD SWAP1 DUP2 MSTORE PUSH1 0x20 ADD PUSH1 0x0 KECCAK256 PUSH1 0x2 ADD PUSH1 0x0 SWAP1 SLOAD SWAP1 PUSH2 0x100 EXP SWAP1 DIV PUSH1 0xFF AND PUSH1 0x4 DUP2 GT ISZERO PUSH2 0x17DC JUMPI PUSH2 0x17DB PUSH2 0x5235 JUMP JUMPDEST JUMPDEST LT ISZERO SWAP1 POP SWAP3 SWAP2 POP POP JUMP JUMPDEST PUSH32 0xC10C77BE35AFF266144ED64C26A1FA104BAE2F284AE99AC4A34203454704A185 DUP2 JUMP JUMPDEST PUSH1 0xA PUSH1 0x20 MSTORE DUP1 PUSH1 0x0 MSTORE PUSH1 0x40 PUSH1 0x0 KECCAK256 PUSH1 0x0 SWAP2 POP SWAP1 POP DUP1 PUSH1 0x0 ADD SLOAD SWAP1 DUP1 PUSH1 0x1 ADD PUSH1 0x0 SWAP1 SLOAD SWAP1 PUSH2 0x100 EXP SWAP1 DIV PUSH20 0xFFFFFFFFFFFFFFFFFFFFFFFFFFFFFFFFFFFFFFFF AND SWAP1 DUP1 PUSH1 0x2 ADD PUSH1 0x0 SWAP1 SLOAD SWAP1 PUSH2 0x100 EXP SWAP1 DIV PUSH20 0xFFFFFFFFFFFFFFFFFFFFFFFFFFFFFFFFFFFFFFFF AND SWAP1 DUP1 PUSH1 0x3 ADD DUP1 SLOAD PUSH2 0x187F SWAP1 PUSH2 0x562A JUMP JUMPDEST DUP1 PUSH1 0x1F ADD PUSH1 0x20 DUP1 SWAP2 DIV MUL PUSH1 0x20 ADD PUSH1 0x40 MLOAD SWAP1 DUP2 ADD PUSH1 0x40 MSTORE DUP1 SWAP3 SWAP2 SWAP1 DUP2 DUP2 MSTORE PUSH1 0x20 ADD DUP3 DUP1 SLOAD PUSH2 0x18AB SWAP1 PUSH2 0x562A JUMP JUMPDEST DUP1 ISZERO PUSH2 0x18F8 JUMPI DUP1 PUSH1 0x1F LT PUSH2 0x18CD JUMPI PUSH2 0x100 DUP1 DUP4 SLOAD DIV MUL DUP4 MSTORE SWAP2 PUSH1 0x20 ADD SWAP2 PUSH2 0x18F8 JUMP JUMPDEST DUP3 ADD SWAP2 SWAP1 PUSH1 0x0 MSTORE PUSH1 0x20 PUSH1 0x0 KECCAK256 SWAP1 JUMPDEST DUP2 SLOAD DUP2 MSTORE SWAP1 PUSH1 0x1 ADD SWAP1 PUSH1 0x20 ADD DUP1 DUP4 GT PUSH2 0x18DB JUMPI DUP3 SWAP1 SUB PUSH1 0x1F AND DUP3 ADD SWAP2 JUMPDEST POP POP POP POP POP SWAP1 DUP1 PUSH1 0x4 ADD SLOAD SWAP1 DUP1 PUSH1 0x5 ADD PUSH1 0x0 SWAP1 SLOAD SWAP1 PUSH2 0x100 EXP SWAP1 DIV PUSH1 0xFF AND SWAP1 POP DUP7 JUMP JUMPDEST PUSH2 0x1923 PUSH2 0x3C75 JUMP JUMPDEST PUSH1 0x0 PUSH1 0xF PUSH1 0x0 DUP4 DUP2 MSTORE PUSH1 0x20 ADD SWAP1 DUP2 MSTORE PUSH1 0x20 ADD PUSH1 0x0 KECCAK256 SWAP1 POP DUP1 PUSH1 0x7 ADD PUSH1 0x0 SWAP1 SLOAD SWAP1 PUSH2 0x100 EXP SWAP1 DIV PUSH1 0xFF AND PUSH2 0x198B JUMPI PUSH1 0x40 MLOAD PUSH32 0x8C379A000000000000000000000000000000000000000000000000000000000 DUP2 MSTORE PUSH1 0x4 ADD PUSH2 0x1982 SWAP1 PUSH2 0x5C2C JUMP JUMPDEST PUSH1 0x40 MLOAD DUP1 SWAP2 SUB SWAP1 REVERT JUMPDEST DUP1 PUSH1 0x3 ADD SLOAD TIMESTAMP LT ISZERO DUP1 ISZERO PUSH2 0x19A3 JUMPI POP DUP1 PUSH1 0x4 ADD SLOAD TIMESTAMP GT ISZERO JUMPDEST PUSH2 0x19E2 JUMPI PUSH1 0x40 MLOAD PUSH32 0x8C379A000000000000000000000000000000000000000000000000000000000 DUP2 MSTORE PUSH1 0x4 ADD PUSH2 0x19D9 SWAP1 PUSH2 0x5C98 JUMP JUMPDEST PUSH1 0x40 MLOAD DUP1 SWAP2 SUB SWAP1 REVERT JUMPDEST DUP1 PUSH1 0x5 ADD SLOAD DUP2 PUSH1 0x6 ADD SLOAD LT PUSH2 0x1A2C JUMPI PUSH1 0x40 MLOAD PUSH32 0x8C379A000000000000000000000000000000000000000000000000000000000 DUP2 MSTORE PUSH1 0x4 ADD PUSH2 0x1A23 SWAP1 PUSH2 0x5D04 JUMP JUMPDEST PUSH1 0x40 MLOAD DUP1 SWAP2 SUB SWAP1 REVERT JUMPDEST DUP1 PUSH1 0x6 ADD PUSH1 0x0 DUP2 SLOAD DUP1 SWAP3 SWAP2 SWAP1 PUSH2 0x1A41 SWAP1 PUSH2 0x5755 JUMP JUMPDEST SWAP2 SWAP1 POP SSTORE POP PUSH2 0x1A4F CALLER PUSH2 0x3454 JUMP JUMPDEST PUSH2 0x1A61 CALLER PUSH8 0x29A2241AF62C0000 PUSH2 0x359E JUMP JUMPDEST POP DUP2 PUSH32 0x1F74D05223B014A6B1D3023900443D2B2A4A803F39310427D60B87FC476DAC03 CALLER PUSH1 0x40 MLOAD PUSH2 0x1A92 SWAP2 SWAP1 PUSH2 0x4A5D JUMP JUMPDEST PUSH1 0x40 MLOAD DUP1 SWAP2 SUB SWAP1 LOG2 POP PUSH2 0x1AA3 PUSH2 0x3CBB JUMP JUMPDEST POP JUMP JUMPDEST PUSH1 0x0 PUSH1 0xB PUSH1 0x0 CALLER PUSH20 0xFFFFFFFFFFFFFFFFFFFFFFFFFFFFFFFFFFFFFFFF AND PUSH20 0xFFFFFFFFFFFFFFFFFFFFFFFFFFFFFFFFFFFFFFFF AND DUP2 MSTORE PUSH1 0x20 ADD SWAP1 DUP2 MSTORE PUSH1 0x20 ADD PUSH1 0x0 KECCAK256 SWAP1 POP PUSH1 0x0 PUSH2 0x1AF4 CALLER PUSH2 0x3CC5 JUMP JUMPDEST SWAP1 POP PUSH1 0x0 DUP2 GT ISZERO PUSH2 0x1B0B JUMPI PUSH2 0x1B09 CALLER DUP3 PUSH2 0x359E JUMP JUMPDEST POP JUMPDEST POP POP JUMP JUMPDEST PUSH32 0xDF1425BAE297C2F52B4F15D18A50B1FC8CB5B981A981B1D213ED3FF92681B64D DUP2 JUMP JUMPDEST PUSH1 0xF PUSH1 0x20 MSTORE DUP1 PUSH1 0x0 MSTORE PUSH1 0x40 PUSH1 0x0 KECCAK256 PUSH1 0x0 SWAP2 POP SWAP1 POP DUP1 PUSH1 0x0 ADD SLOAD SWAP1 DUP1 PUSH1 0x1 ADD DUP1 SLOAD PUSH2 0x1B5C SWAP1 PUSH2 0x562A JUMP JUMPDEST DUP1 PUSH1 0x1F ADD PUSH1 0x20 DUP1 SWAP2 DIV MUL PUSH1 0x20 ADD PUSH1 0x40 MLOAD SWAP1 DUP2 ADD PUSH1 0x40 MSTORE DUP1 SWAP3 SWAP2 SWAP1 DUP2 DUP2 MSTORE PUSH1 0x20 ADD DUP3 DUP1 SLOAD PUSH2 0x1B88 SWAP1 PUSH2 0x562A JUMP JUMPDEST DUP1 ISZERO PUSH2 0x1BD5 JUMPI DUP1 PUSH1 0x1F LT PUSH2 0x1BAA JUMPI PUSH2 0x100 DUP1 DUP4 SLOAD DIV MUL DUP4 MSTORE SWAP2 PUSH1 0x20 ADD SWAP2 PUSH2 0x1BD5 JUMP JUMPDEST DUP3 ADD SWAP2 SWAP1 PUSH1 0x0 MSTORE PUSH1 0x20 PUSH1 0x0 KECCAK256 SWAP1 JUMPDEST DUP2 SLOAD DUP2 MSTORE SWAP1 PUSH1 0x1 ADD SWAP1 PUSH1 0x20 ADD DUP1 DUP4 GT PUSH2 0x1BB8 JUMPI DUP3 SWAP1 SUB PUSH1 0x1F AND DUP3 ADD SWAP2 JUMPDEST POP POP POP POP POP SWAP1 DUP1 PUSH1 0x2 ADD PUSH1 0x0 SWAP1 SLOAD SWAP1 PUSH2 0x100 EXP SWAP1 DIV PUSH20 0xFFFFFFFFFFFFFFFFFFFFFFFFFFFFFFFFFFFFFFFF AND SWAP1 DUP1 PUSH1 0x3 ADD SLOAD SWAP1 DUP1 PUSH1 0x4 ADD SLOAD SWAP1 DUP1 PUSH1 0x5 ADD SLOAD SWAP1 DUP1 PUSH1 0x6 ADD SLOAD SWAP1 DUP1 PUSH1 0x7 ADD PUSH1 0x0 SWAP1 SLOAD SWAP1 PUSH2 0x100 EXP SWAP1 DIV PUSH1 0xFF AND SWAP1 DUP1 PUSH1 0x7 ADD PUSH1 0x1 SWAP1 SLOAD SWAP1 PUSH2 0x100 EXP SWAP1 DIV PUSH1 0xFF AND SWAP1 DUP1 PUSH1 0x8 ADD DUP1 SLOAD PUSH2 0x1C4E SWAP1 PUSH2 0x562A JUMP JUMPDEST DUP1 PUSH1 0x1F ADD PUSH1 0x20 DUP1 SWAP2 DIV MUL PUSH1 0x20 ADD PUSH1 0x40 MLOAD SWAP1 DUP2 ADD PUSH1 0x40 MSTORE DUP1 SWAP3 SWAP2 SWAP1 DUP2 DUP2 MSTORE PUSH1 0x20 ADD DUP3 DUP1 SLOAD PUSH2 0x1C7A SWAP1 PUSH2 0x562A JUMP JUMPDEST DUP1 ISZERO PUSH2 0x1CC7 JUMPI DUP1 PUSH1 0x1F LT PUSH2 0x1C9C JUMPI PUSH2 0x100 DUP1 DUP4 SLOAD DIV MUL DUP4 MSTORE SWAP2 PUSH1 0x20 ADD SWAP2 PUSH2 0x1CC7 JUMP JUMPDEST DUP3 ADD SWAP2 SWAP1 PUSH1 0x0 MSTORE PUSH1 0x20 PUSH1 0x0 KECCAK256 SWAP1 JUMPDEST DUP2 SLOAD DUP2 MSTORE SWAP1 PUSH1 0x1 ADD SWAP1 PUSH1 0x20 ADD DUP1 DUP4 GT PUSH2 0x1CAA JUMPI DUP3 SWAP1 SUB PUSH1 0x1F AND DUP3 ADD SWAP2 JUMPDEST POP POP POP POP POP SWAP1 DUP1 PUSH1 0x9 ADD DUP1 SLOAD PUSH2 0x1CDC SWAP1 PUSH2 0x562A JUMP JUMPDEST DUP1 PUSH1 0x1F ADD PUSH1 0x20 DUP1 SWAP2 DIV MUL PUSH1 0x20 ADD PUSH1 0x40 MLOAD SWAP1 DUP2 ADD PUSH1 0x40 MSTORE DUP1 SWAP3 SWAP2 SWAP1 DUP2 DUP2 MSTORE PUSH1 0x20 ADD DUP3 DUP1 SLOAD PUSH2 0x1D08 SWAP1 PUSH2 0x562A JUMP JUMPDEST DUP1 ISZERO PUSH2 0x1D55 JUMPI DUP1 PUSH1 0x1F LT PUSH2 0x1D2A JUMPI PUSH2 0x100 DUP1 DUP4 SLOAD DIV MUL DUP4 MSTORE SWAP2 PUSH1 0x20 ADD SWAP2 PUSH2 0x1D55 JUMP JUMPDEST DUP3 ADD SWAP2 SWAP1 PUSH1 0x0 MSTORE PUSH1 0x20 PUSH1 0x0 KECCAK256 SWAP1 JUMPDEST DUP2 SLOAD DUP2 MSTORE SWAP1 PUSH1 0x1 ADD SWAP1 PUSH1 0x20 ADD DUP1 DUP4 GT PUSH2 0x1D38 JUMPI DUP3 SWAP1 SUB PUSH1 0x1F AND DUP3 ADD SWAP2 JUMPDEST POP POP POP POP POP SWAP1 POP DUP12 JUMP JUMPDEST PUSH1 0x64 PUSH1 0x5 PUSH1 0x64 PUSH1 0xA PUSH12 0x204FCE5E3E25026110000000 PUSH2 0x1D7E SWAP2 SWAP1 PUSH2 0x5A6E JUMP JUMPDEST PUSH2 0x1D88 SWAP2 SWAP1 PUSH2 0x5ADF JUMP JUMPDEST PUSH2 0x1D92 SWAP2 SWAP1 PUSH2 0x5A6E JUMP JUMPDEST PUSH2 0x1D9C SWAP2 SWAP1 PUSH2 0x5ADF JUMP JUMPDEST DUP2 JUMP JUMPDEST PUSH32 0xC295D8A2F69016465F61012796A38346423F02058E9C426F8BC1D946BC8C8470 DUP2 JUMP JUMPDEST PUSH1 0xC PUSH1 0x20 MSTORE DUP1 PUSH1 0x0 MSTORE PUSH1 0x40 PUSH1 0x0 KECCAK256 PUSH1 0x0 SWAP2 POP SWAP1 POP DUP1 PUSH1 0x0 ADD DUP1 SLOAD PUSH2 0x1DE6 SWAP1 PUSH2 0x562A JUMP JUMPDEST DUP1 PUSH1 0x1F ADD PUSH1 0x20 DUP1 SWAP2 DIV MUL PUSH1 0x20 ADD PUSH1 0x40 MLOAD SWAP1 DUP2 ADD PUSH1 0x40 MSTORE DUP1 SWAP3 SWAP2 SWAP1 DUP2 DUP2 MSTORE PUSH1 0x20 ADD DUP3 DUP1 SLOAD PUSH2 0x1E12 SWAP1 PUSH2 0x562A JUMP JUMPDEST DUP1 ISZERO PUSH2 0x1E5F JUMPI DUP1 PUSH1 0x1F LT PUSH2 0x1E34 JUMPI PUSH2 0x100 DUP1 DUP4 SLOAD DIV MUL DUP4 MSTORE SWAP2 PUSH1 0x20 ADD SWAP2 PUSH2 0x1E5F JUMP JUMPDEST DUP3 ADD SWAP2 SWAP1 PUSH1 0x0 MSTORE PUSH1 0x20 PUSH1 0x0 KECCAK256 SWAP1 JUMPDEST DUP2 SLOAD DUP2 MSTORE SWAP1 PUSH1 0x1 ADD SWAP1 PUSH1 0x20 ADD DUP1 DUP4 GT PUSH2 0x1E42 JUMPI DUP3 SWAP1 SUB PUSH1 0x1F AND DUP3 ADD SWAP2 JUMPDEST POP POP POP POP POP SWAP1 DUP1 PUSH1 0x1 ADD DUP1 SLOAD PUSH2 0x1E74 SWAP1 PUSH2 0x562A JUMP JUMPDEST DUP1 PUSH1 0x1F ADD PUSH1 0x20 DUP1 SWAP2 DIV MUL PUSH1 0x20 ADD PUSH1 0x40 MLOAD SWAP1 DUP2 ADD PUSH1 0x40 MSTORE DUP1 SWAP3 SWAP2 SWAP1 DUP2 DUP2 MSTORE PUSH1 0x20 ADD DUP3 DUP1 SLOAD PUSH2 0x1EA0 SWAP1 PUSH2 0x562A JUMP JUMPDEST DUP1 ISZERO PUSH2 0x1EED JUMPI DUP1 PUSH1 0x1F LT PUSH2 0x1EC2 JUMPI PUSH2 0x100 DUP1 DUP4 SLOAD DIV MUL DUP4 MSTORE SWAP2 PUSH1 0x20 ADD SWAP2 PUSH2 0x1EED JUMP JUMPDEST DUP3 ADD SWAP2 SWAP1 PUSH1 0x0 MSTORE PUSH1 0x20 PUSH1 0x0 KECCAK256 SWAP1 JUMPDEST DUP2 SLOAD DUP2 MSTORE SWAP1 PUSH1 0x1 ADD SWAP1 PUSH1 0x20 ADD DUP1 DUP4 GT PUSH2 0x1ED0 JUMPI DUP3 SWAP1 SUB PUSH1 0x1F AND DUP3 ADD SWAP2 JUMPDEST POP POP POP POP POP SWAP1 DUP1 PUSH1 0x2 ADD SLOAD SWAP1 POP DUP4 JUMP JUMPDEST PUSH1 0x0 DUP1 PUSH1 0x0 DUP4 PUSH20 0xFFFFFFFFFFFFFFFFFFFFFFFFFFFFFFFFFFFFFFFF AND PUSH20 0xFFFFFFFFFFFFFFFFFFFFFFFFFFFFFFFFFFFFFFFF AND DUP2 MSTORE PUSH1 0x20 ADD SWAP1 DUP2 MSTORE PUSH1 0x20 ADD PUSH1 0x0 KECCAK256 SLOAD SWAP1 POP SWAP2 SWAP1 POP JUMP JUMPDEST PUSH1 0x0 PUSH1 0x60 DUP1 PUSH1 0x0 DUP1 PUSH1 0x0 PUSH1 0xB PUSH1 0x0 DUP9 PUSH20 0xFFFFFFFFFFFFFFFFFFFFFFFFFFFFFFFFFFFFFFFF AND PUSH20 0xFFFFFFFFFFFFFFFFFFFFFFFFFFFFFFFFFFFFFFFF AND DUP2 MSTORE PUSH1 0x20 ADD SWAP1 DUP2 MSTORE PUSH1 0x20 ADD PUSH1 0x0 KECCAK256 SWAP1 POP PUSH1 0x0 DUP2 PUSH1 0x2 ADD PUSH1 0x0 SWAP1 SLOAD SWAP1 PUSH2 0x100 EXP SWAP1 DIV PUSH1 0xFF AND SWAP1 POP PUSH1 0x0 PUSH1 0xC PUSH1 0x0 DUP4 PUSH1 0x4 DUP2 GT ISZERO PUSH2 0x1FBF JUMPI PUSH2 0x1FBE PUSH2 0x5235 JUMP JUMPDEST JUMPDEST PUSH1 0x4 DUP2 GT ISZERO PUSH2 0x1FD1 JUMPI PUSH2 0x1FD0 PUSH2 0x5235 JUMP JUMPDEST JUMPDEST DUP2 MSTORE PUSH1 0x20 ADD SWAP1 DUP2 MSTORE PUSH1 0x20 ADD PUSH1 0x0 KECCAK256 PUSH1 0x40 MLOAD DUP1 PUSH1 0x60 ADD PUSH1 0x40 MSTORE SWAP1 DUP2 PUSH1 0x0 DUP3 ADD DUP1 SLOAD PUSH2 0x1FFA SWAP1 PUSH2 0x562A JUMP JUMPDEST DUP1 PUSH1 0x1F ADD PUSH1 0x20 DUP1 SWAP2 DIV MUL PUSH1 0x20 ADD PUSH1 0x40 MLOAD SWAP1 DUP2 ADD PUSH1 0x40 MSTORE DUP1 SWAP3 SWAP2 SWAP1 DUP2 DUP2 MSTORE PUSH1 0x20 ADD DUP3 DUP1 SLOAD PUSH2 0x2026 SWAP1 PUSH2 0x562A JUMP JUMPDEST DUP1 ISZERO PUSH2 0x2073 JUMPI DUP1 PUSH1 0x1F LT PUSH2 0x2048 JUMPI PUSH2 0x100 DUP1 DUP4 SLOAD DIV MUL DUP4 MSTORE SWAP2 PUSH1 0x20 ADD SWAP2 PUSH2 0x2073 JUMP JUMPDEST DUP3 ADD SWAP2 SWAP1 PUSH1 0x0 MSTORE PUSH1 0x20 PUSH1 0x0 KECCAK256 SWAP1 JUMPDEST DUP2 SLOAD DUP2 MSTORE SWAP1 PUSH1 0x1 ADD SWAP1 PUSH1 0x20 ADD DUP1 DUP4 GT PUSH2 0x2056 JUMPI DUP3 SWAP1 SUB PUSH1 0x1F AND DUP3 ADD SWAP2 JUMPDEST POP POP POP POP POP DUP2 MSTORE PUSH1 0x20 ADD PUSH1 0x1 DUP3 ADD DUP1 SLOAD PUSH2 0x208C SWAP1 PUSH2 0x562A JUMP JUMPDEST DUP1 PUSH1 0x1F ADD PUSH1 0x20 DUP1 SWAP2 DIV MUL PUSH1 0x20 ADD PUSH1 0x40 MLOAD SWAP1 DUP2 ADD PUSH1 0x40 MSTORE DUP1 SWAP3 SWAP2 SWAP1 DUP2 DUP2 MSTORE PUSH1 0x20 ADD DUP3 DUP1 SLOAD PUSH2 0x20B8 SWAP1 PUSH2 0x562A JUMP JUMPDEST DUP1 ISZERO PUSH2 0x2105 JUMPI DUP1 PUSH1 0x1F LT PUSH2 0x20DA JUMPI PUSH2 0x100 DUP1 DUP4 SLOAD DIV MUL DUP4 MSTORE SWAP2 PUSH1 0x20 ADD SWAP2 PUSH2 0x2105 JUMP JUMPDEST DUP3 ADD SWAP2 SWAP1 PUSH1 0x0 MSTORE PUSH1 0x20 PUSH1 0x0 KECCAK256 SWAP1 JUMPDEST DUP2 SLOAD DUP2 MSTORE SWAP1 PUSH1 0x1 ADD SWAP1 PUSH1 0x20 ADD DUP1 DUP4 GT PUSH2 0x20E8 JUMPI DUP3 SWAP1 SUB PUSH1 0x1F AND DUP3 ADD SWAP2 JUMPDEST POP POP POP POP POP DUP2 MSTORE PUSH1 0x20 ADD PUSH1 0x2 DUP3 ADD SLOAD DUP2 MSTORE POP POP SWAP1 POP DUP2 DUP2 PUSH1 0x0 ADD MLOAD DUP3 PUSH1 0x20 ADD MLOAD DUP4 PUSH1 0x40 ADD MLOAD DUP7 PUSH1 0x0 ADD SLOAD SWAP8 POP SWAP8 POP SWAP8 POP SWAP8 POP SWAP8 POP POP POP POP SWAP2 SWAP4 SWAP6 SWAP1 SWAP3 SWAP5 POP JUMP JUMPDEST PUSH32 0xC10C77BE35AFF266144ED64C26A1FA104BAE2F284AE99AC4A34203454704A185 PUSH2 0x216F DUP2 PUSH2 0x36FA JUMP JUMPDEST PUSH1 0x9 PUSH1 0x0 DUP4 PUSH20 0xFFFFFFFFFFFFFFFFFFFFFFFFFFFFFFFFFFFFFFFF AND PUSH20 0xFFFFFFFFFFFFFFFFFFFFFFFFFFFFFFFFFFFFFFFF AND DUP2 MSTORE PUSH1 0x20 ADD SWAP1 DUP2 MSTORE PUSH1 0x20 ADD PUSH1 0x0 KECCAK256 PUSH1 0x0 SWAP1 SLOAD SWAP1 PUSH2 0x100 EXP SWAP1 DIV PUSH1 0xFF AND ISZERO PUSH2 0x21FC JUMPI PUSH1 0x40 MLOAD PUSH32 0x8C379A000000000000000000000000000000000000000000000000000000000 DUP2 MSTORE PUSH1 0x4 ADD PUSH2 0x21F3 SWAP1 PUSH2 0x5D70 JUMP JUMPDEST PUSH1 0x40 MLOAD DUP1 SWAP2 SUB SWAP1 REVERT JUMPDEST PUSH2 0x2226 PUSH32 0xC10C77BE35AFF266144ED64C26A1FA104BAE2F284AE99AC4A34203454704A185 DUP4 PUSH2 0x3A86 JUMP JUMPDEST POP PUSH1 0x7 DUP3 SWAP1 DUP1 PUSH1 0x1 DUP2 SLOAD ADD DUP1 DUP3 SSTORE DUP1 SWAP2 POP POP PUSH1 0x1 SWAP1 SUB SWAP1 PUSH1 0x0 MSTORE PUSH1 0x20 PUSH1 0x0 KECCAK256 ADD PUSH1 0x0 SWAP1 SWAP2 SWAP1 SWAP2 SWAP1 SWAP2 PUSH2 0x100 EXP DUP2 SLOAD DUP2 PUSH20 0xFFFFFFFFFFFFFFFFFFFFFFFFFFFFFFFFFFFFFFFF MUL NOT AND SWAP1 DUP4 PUSH20 0xFFFFFFFFFFFFFFFFFFFFFFFFFFFFFFFFFFFFFFFF AND MUL OR SWAP1 SSTORE POP PUSH1 0x1 PUSH1 0x9 PUSH1 0x0 DUP5 PUSH20 0xFFFFFFFFFFFFFFFFFFFFFFFFFFFFFFFFFFFFFFFF AND PUSH20 0xFFFFFFFFFFFFFFFFFFFFFFFFFFFFFFFFFFFFFFFF AND DUP2 MSTORE PUSH1 0x20 ADD SWAP1 DUP2 MSTORE PUSH1 0x20 ADD PUSH1 0x0 KECCAK256 PUSH1 0x0 PUSH2 0x100 EXP DUP2 SLOAD DUP2 PUSH1 0xFF MUL NOT AND SWAP1 DUP4 ISZERO ISZERO MUL OR SWAP1 SSTORE POP DUP2 PUSH20 0xFFFFFFFFFFFFFFFFFFFFFFFFFFFFFFFFFFFFFFFF AND PUSH32 0xE1CB5E1230CC02E62C60B81C1AA5ADE512F3EAC296EDB28628B4CF344F47F931 PUSH1 0x40 MLOAD PUSH1 0x40 MLOAD DUP1 SWAP2 SUB SWAP1 LOG2 POP POP JUMP JUMPDEST PUSH32 0xC295D8A2F69016465F61012796A38346423F02058E9C426F8BC1D946BC8C8470 PUSH2 0x2353 DUP2 PUSH2 0x36FA JUMP JUMPDEST PUSH1 0x64 PUSH1 0x5 PUSH1 0x64 PUSH1 0xA PUSH12 0x204FCE5E3E25026110000000 PUSH2 0x2372 SWAP2 SWAP1 PUSH2 0x5A6E JUMP JUMPDEST PUSH2 0x237C SWAP2 SWAP1 PUSH2 0x5ADF JUMP JUMPDEST PUSH2 0x2386 SWAP2 SWAP1 PUSH2 0x5A6E JUMP JUMPDEST PUSH2 0x2390 SWAP2 SWAP1 PUSH2 0x5ADF JUMP JUMPDEST DUP3 GT ISZERO PUSH2 0x23D2 JUMPI PUSH1 0x40 MLOAD PUSH32 0x8C379A000000000000000000000000000000000000000000000000000000000 DUP2 MSTORE PUSH1 0x4 ADD PUSH2 0x23C9 SWAP1 PUSH2 0x5DDC JUMP JUMPDEST PUSH1 0x40 MLOAD DUP1 SWAP2 SUB SWAP1 REVERT JUMPDEST PUSH1 0x64 PUSH1 0x5 PUSH1 0x64 PUSH1 0xA PUSH12 0x204FCE5E3E25026110000000 PUSH2 0x23F1 SWAP2 SWAP1 PUSH2 0x5A6E JUMP JUMPDEST PUSH2 0x23FB SWAP2 SWAP1 PUSH2 0x5ADF JUMP JUMPDEST PUSH2 0x2405 SWAP2 SWAP1 PUSH2 0x5A6E JUMP JUMPDEST PUSH2 0x240F SWAP2 SWAP1 PUSH2 0x5ADF JUMP JUMPDEST DUP3 PUSH1 0xE SLOAD PUSH2 0x241D SWAP2 SWAP1 PUSH2 0x5B10 JUMP JUMPDEST GT ISZERO PUSH2 0x245E JUMPI PUSH1 0x40 MLOAD PUSH32 0x8C379A000000000000000000000000000000000000000000000000000000000 DUP2 MSTORE PUSH1 0x4 ADD PUSH2 0x2455 SWAP1 PUSH2 0x5E6E JUMP JUMPDEST PUSH1 0x40 MLOAD DUP1 SWAP2 SUB SWAP1 REVERT JUMPDEST PUSH1 0x0 DUP4 DUP4 PUSH1 0x40 MLOAD PUSH1 0x24 ADD PUSH2 0x2473 SWAP3 SWAP2 SWAP1 PUSH2 0x5E8E JUMP JUMPDEST PUSH1 0x40 MLOAD PUSH1 0x20 DUP2 DUP4 SUB SUB DUP2 MSTORE SWAP1 PUSH1 0x40 MSTORE PUSH32 0x990DC9DB00000000000000000000000000000000000000000000000000000000 PUSH28 0xFFFFFFFFFFFFFFFFFFFFFFFFFFFFFFFFFFFFFFFFFFFFFFFFFFFFFFFF NOT AND PUSH1 0x20 DUP3 ADD DUP1 MLOAD PUSH28 0xFFFFFFFFFFFFFFFFFFFFFFFFFFFFFFFFFFFFFFFFFFFFFFFFFFFFFFFF DUP4 DUP2 DUP4 AND OR DUP4 MSTORE POP POP POP POP SWAP1 POP PUSH2 0x24FC ADDRESS DUP3 PUSH2 0x370E JUMP JUMPDEST POP DUP3 PUSH1 0xE PUSH1 0x0 DUP3 DUP3 SLOAD PUSH2 0x250F SWAP2 SWAP1 PUSH2 0x5B10 JUMP JUMPDEST SWAP3 POP POP DUP2 SWAP1 SSTORE POP DUP4 PUSH20 0xFFFFFFFFFFFFFFFFFFFFFFFFFFFFFFFFFFFFFFFF AND PUSH32 0xE15B96646136EDE2EA2ABFC9BAA96FBBAB0C3D44E1750C3DEFC005A4492A691B DUP5 PUSH1 0x40 MLOAD PUSH2 0x255C SWAP2 SWAP1 PUSH2 0x4862 JUMP JUMPDEST PUSH1 0x40 MLOAD DUP1 SWAP2 SUB SWAP1 LOG2 POP POP POP POP JUMP JUMPDEST PUSH1 0xB PUSH1 0x20 MSTORE DUP1 PUSH1 0x0 MSTORE PUSH1 0x40 PUSH1 0x0 KECCAK256 PUSH1 0x0 SWAP2 POP SWAP1 POP DUP1 PUSH1 0x0 ADD SLOAD SWAP1 DUP1 PUSH1 0x1 ADD SLOAD SWAP1 DUP1 PUSH1 0x2 ADD PUSH1 0x0 SWAP1 SLOAD SWAP1 PUSH2 0x100 EXP SWAP1 DIV PUSH1 0xFF AND SWAP1 POP DUP4 JUMP JUMPDEST PUSH1 0x0 PUSH1 0xB PUSH1 0x0 DUP4 PUSH20 0xFFFFFFFFFFFFFFFFFFFFFFFFFFFFFFFFFFFFFFFF AND PUSH20 0xFFFFFFFFFFFFFFFFFFFFFFFFFFFFFFFFFFFFFFFF AND DUP2 MSTORE PUSH1 0x20 ADD SWAP1 DUP2 MSTORE PUSH1 0x20 ADD PUSH1 0x0 KECCAK256 PUSH1 0x0 ADD SLOAD SWAP1 POP SWAP2 SWAP1 POP JUMP JUMPDEST PUSH1 0x0 PUSH1 0x5 PUSH1 0x0 DUP5 DUP2 MSTORE PUSH1 0x20 ADD SWAP1 DUP2 MSTORE PUSH1 0x20 ADD PUSH1 0x0 KECCAK256 PUSH1 0x0 ADD PUSH1 0x0 DUP4 PUSH20 0xFFFFFFFFFFFFFFFFFFFFFFFFFFFFFFFFFFFFFFFF AND PUSH20 0xFFFFFFFFFFFFFFFFFFFFFFFFFFFFFFFFFFFFFFFF AND DUP2 MSTORE PUSH1 0x20 ADD SWAP1 DUP2 MSTORE PUSH1 0x20 ADD PUSH1 0x0 KECCAK256 PUSH1 0x0 SWAP1 SLOAD SWAP1 PUSH2 0x100 EXP SWAP1 DIV PUSH1 0xFF AND SWAP1 POP SWAP3 SWAP2 POP POP JUMP JUMPDEST PUSH1 0x60 PUSH1 0x4 DUP1 SLOAD PUSH2 0x2667 SWAP1 PUSH2 0x562A JUMP JUMPDEST DUP1 PUSH1 0x1F ADD PUSH1 0x20 DUP1 SWAP2 DIV MUL PUSH1 0x20 ADD PUSH1 0x40 MLOAD SWAP1 DUP2 ADD PUSH1 0x40 MSTORE DUP1 SWAP3 SWAP2 SWAP1 DUP2 DUP2 MSTORE PUSH1 0x20 ADD DUP3 DUP1 SLOAD PUSH2 0x2693 SWAP1 PUSH2 0x562A JUMP JUMPDEST DUP1 ISZERO PUSH2 0x26E0 JUMPI DUP1 PUSH1 0x1F LT PUSH2 0x26B5 JUMPI PUSH2 0x100 DUP1 DUP4 SLOAD DIV MUL DUP4 MSTORE SWAP2 PUSH1 0x20 ADD SWAP2 PUSH2 0x26E0 JUMP JUMPDEST DUP3 ADD SWAP2 SWAP1 PUSH1 0x0 MSTORE PUSH1 0x20 PUSH1 0x0 KECCAK256 SWAP1 JUMPDEST DUP2 SLOAD DUP2 MSTORE SWAP1 PUSH1 0x1 ADD SWAP1 PUSH1 0x20 ADD DUP1 DUP4 GT PUSH2 0x26C3 JUMPI DUP3 SWAP1 SUB PUSH1 0x1F AND DUP3 ADD SWAP2 JUMPDEST POP POP POP POP POP SWAP1 POP SWAP1 JUMP JUMPDEST PUSH2 0x2714 PUSH32 0xC295D8A2F69016465F61012796A38346423F02058E9C426F8BC1D946BC8C8470 CALLER PUSH2 0x25ED JUMP JUMPDEST PUSH2 0x2753 JUMPI PUSH1 0x40 MLOAD PUSH32 0x8C379A000000000000000000000000000000000000000000000000000000000 DUP2 MSTORE PUSH1 0x4 ADD PUSH2 0x274A SWAP1 PUSH2 0x5F03 JUMP JUMPDEST PUSH1 0x40 MLOAD DUP1 SWAP2 SUB SWAP1 REVERT JUMPDEST PUSH1 0x0 DUP3 PUSH20 0xFFFFFFFFFFFFFFFFFFFFFFFFFFFFFFFFFFFFFFFF AND DUP3 PUSH1 0x40 MLOAD PUSH2 0x2779 SWAP1 PUSH2 0x5F54 JUMP JUMPDEST PUSH1 0x0 PUSH1 0x40 MLOAD DUP1 DUP4 SUB DUP2 DUP6 DUP8 GAS CALL SWAP3 POP POP POP RETURNDATASIZE DUP1 PUSH1 0x0 DUP2 EQ PUSH2 0x27B6 JUMPI PUSH1 0x40 MLOAD SWAP2 POP PUSH1 0x1F NOT PUSH1 0x3F RETURNDATASIZE ADD AND DUP3 ADD PUSH1 0x40 MSTORE RETURNDATASIZE DUP3 MSTORE RETURNDATASIZE PUSH1 0x0 PUSH1 0x20 DUP5 ADD RETURNDATACOPY PUSH2 0x27BB JUMP JUMPDEST PUSH1 0x60 SWAP2 POP JUMPDEST POP POP SWAP1 POP DUP1 PUSH2 0x27FF JUMPI PUSH1 0x40 MLOAD PUSH32 0x8C379A000000000000000000000000000000000000000000000000000000000 DUP2 MSTORE PUSH1 0x4 ADD PUSH2 0x27F6 SWAP1 PUSH2 0x5FB5 JUMP JUMPDEST PUSH1 0x40 MLOAD DUP1 SWAP2 SUB SWAP1 REVERT JUMPDEST POP POP POP JUMP JUMPDEST PUSH1 0x0 DUP1 SHL DUP2 JUMP JUMPDEST PUSH1 0x0 DUP1 PUSH2 0x2816 PUSH2 0x3584 JUMP JUMPDEST SWAP1 POP PUSH2 0x2823 DUP2 DUP6 DUP6 PUSH2 0x3992 JUMP JUMPDEST PUSH1 0x1 SWAP2 POP POP SWAP3 SWAP2 POP POP JUMP JUMPDEST PUSH1 0x64 PUSH1 0xA PUSH12 0x204FCE5E3E25026110000000 PUSH2 0x2849 SWAP2 SWAP1 PUSH2 0x5A6E JUMP JUMPDEST PUSH2 0x2853 SWAP2 SWAP1 PUSH2 0x5ADF JUMP JUMPDEST DUP2 JUMP JUMPDEST PUSH1 0x5 DUP2 JUMP JUMPDEST PUSH32 0xDF1425BAE297C2F52B4F15D18A50B1FC8CB5B981A981B1D213ED3FF92681B64D PUSH2 0x2885 DUP2 PUSH2 0x36FA JUMP JUMPDEST PUSH1 0x0 PUSH1 0xA PUSH1 0x0 DUP5 DUP2 MSTORE PUSH1 0x20 ADD SWAP1 DUP2 MSTORE PUSH1 0x20 ADD PUSH1 0x0 KECCAK256 SWAP1 POP DUP1 PUSH1 0x5 ADD PUSH1 0x0 SWAP1 SLOAD SWAP1 PUSH2 0x100 EXP SWAP1 DIV PUSH1 0xFF AND ISZERO PUSH2 0x28EE JUMPI PUSH1 0x40 MLOAD PUSH32 0x8C379A000000000000000000000000000000000000000000000000000000000 DUP2 MSTORE PUSH1 0x4 ADD PUSH2 0x28E5 SWAP1 PUSH2 0x6021 JUMP JUMPDEST PUSH1 0x40 MLOAD DUP1 SWAP2 SUB SWAP1 REVERT JUMPDEST DUP1 PUSH1 0x6 ADD PUSH1 0x0 CALLER PUSH20 0xFFFFFFFFFFFFFFFFFFFFFFFFFFFFFFFFFFFFFFFF AND PUSH20 0xFFFFFFFFFFFFFFFFFFFFFFFFFFFFFFFFFFFFFFFF AND DUP2 MSTORE PUSH1 0x20 ADD SWAP1 DUP2 MSTORE PUSH1 0x20 ADD PUSH1 0x0 KECCAK256 PUSH1 0x0 SWAP1 SLOAD SWAP1 PUSH2 0x100 EXP SWAP1 DIV PUSH1 0xFF AND ISZERO PUSH2 0x297D JUMPI PUSH1 0x40 MLOAD PUSH32 0x8C379A000000000000000000000000000000000000000000000000000000000 DUP2 MSTORE PUSH1 0x4 ADD PUSH2 0x2974 SWAP1 PUSH2 0x608D JUMP JUMPDEST PUSH1 0x40 MLOAD DUP1 SWAP2 SUB SWAP1 REVERT JUMPDEST PUSH1 0x1 DUP2 PUSH1 0x6 ADD PUSH1 0x0 CALLER PUSH20 0xFFFFFFFFFFFFFFFFFFFFFFFFFFFFFFFFFFFFFFFF AND PUSH20 0xFFFFFFFFFFFFFFFFFFFFFFFFFFFFFFFFFFFFFFFF AND DUP2 MSTORE PUSH1 0x20 ADD SWAP1 DUP2 MSTORE PUSH1 0x20 ADD PUSH1 0x0 KECCAK256 PUSH1 0x0 PUSH2 0x100 EXP DUP2 SLOAD DUP2 PUSH1 0xFF MUL NOT AND SWAP1 DUP4 ISZERO ISZERO MUL OR SWAP1 SSTORE POP DUP1 PUSH1 0x4 ADD PUSH1 0x0 DUP2 SLOAD DUP1 SWAP3 SWAP2 SWAP1 PUSH2 0x29EC SWAP1 PUSH2 0x5755 JUMP JUMPDEST SWAP2 SWAP1 POP SSTORE POP DUP3 PUSH32 0x5D4CCF5F92566D140246F4AE3B9CB35DC06FFF109A7748602AD77F6260FD9A61 CALLER PUSH1 0x40 MLOAD PUSH2 0x2A21 SWAP2 SWAP1 PUSH2 0x4A5D JUMP JUMPDEST PUSH1 0x40 MLOAD DUP1 SWAP2 SUB SWAP1 LOG2 PUSH1 0x3 DUP2 PUSH1 0x4 ADD SLOAD LT PUSH2 0x2B55 JUMPI PUSH1 0x0 DUP2 PUSH1 0x2 ADD PUSH1 0x0 SWAP1 SLOAD SWAP1 PUSH2 0x100 EXP SWAP1 DIV PUSH20 0xFFFFFFFFFFFFFFFFFFFFFFFFFFFFFFFFFFFFFFFF AND PUSH20 0xFFFFFFFFFFFFFFFFFFFFFFFFFFFFFFFFFFFFFFFF AND DUP3 PUSH1 0x3 ADD PUSH1 0x40 MLOAD PUSH2 0x2A83 SWAP2 SWAP1 PUSH2 0x6145 JUMP JUMPDEST PUSH1 0x0 PUSH1 0x40 MLOAD DUP1 DUP4 SUB DUP2 PUSH1 0x0 DUP7 GAS CALL SWAP2 POP POP RETURNDATASIZE DUP1 PUSH1 0x0 DUP2 EQ PUSH2 0x2AC0 JUMPI PUSH1 0x40 MLOAD SWAP2 POP PUSH1 0x1F NOT PUSH1 0x3F RETURNDATASIZE ADD AND DUP3 ADD PUSH1 0x40 MSTORE RETURNDATASIZE DUP3 MSTORE RETURNDATASIZE PUSH1 0x0 PUSH1 0x20 DUP5 ADD RETURNDATACOPY PUSH2 0x2AC5 JUMP JUMPDEST PUSH1 0x60 SWAP2 POP JUMPDEST POP POP SWAP1 POP DUP1 PUSH2 0x2B09 JUMPI PUSH1 0x40 MLOAD PUSH32 0x8C379A000000000000000000000000000000000000000000000000000000000 DUP2 MSTORE PUSH1 0x4 ADD PUSH2 0x2B00 SWAP1 PUSH2 0x61A8 JUMP JUMPDEST PUSH1 0x40 MLOAD DUP1 SWAP2 SUB SWAP1 REVERT JUMPDEST PUSH1 0x1 DUP3 PUSH1 0x5 ADD PUSH1 0x0 PUSH2 0x100 EXP DUP2 SLOAD DUP2 PUSH1 0xFF MUL NOT AND SWAP1 DUP4 ISZERO ISZERO MUL OR SWAP1 SSTORE POP DUP4 PUSH32 0x7770356C29230B95943AEC59D47EAD11EB426A728BF5B57F7FD8597F3C0E29BA PUSH1 0x40 MLOAD PUSH1 0x40 MLOAD DUP1 SWAP2 SUB SWAP1 LOG2 POP JUMPDEST POP POP POP JUMP JUMPDEST PUSH1 0xA DUP2 JUMP JUMPDEST PUSH1 0x9 PUSH1 0x20 MSTORE DUP1 PUSH1 0x0 MSTORE PUSH1 0x40 PUSH1 0x0 KECCAK256 PUSH1 0x0 SWAP2 POP SLOAD SWAP1 PUSH2 0x100 EXP SWAP1 DIV PUSH1 0xFF AND DUP2 JUMP JUMPDEST PUSH1 0x0 DUP1 SHL PUSH2 0x2B8C DUP2 PUSH2 0x36FA JUMP JUMPDEST PUSH1 0x9 PUSH1 0x0 DUP4 PUSH20 0xFFFFFFFFFFFFFFFFFFFFFFFFFFFFFFFFFFFFFFFF AND PUSH20 0xFFFFFFFFFFFFFFFFFFFFFFFFFFFFFFFFFFFFFFFF AND DUP2 MSTORE PUSH1 0x20 ADD SWAP1 DUP2 MSTORE PUSH1 0x20 ADD PUSH1 0x0 KECCAK256 PUSH1 0x0 SWAP1 SLOAD SWAP1 PUSH2 0x100 EXP SWAP1 DIV PUSH1 0xFF AND PUSH2 0x2C18 JUMPI PUSH1 0x40 MLOAD PUSH32 0x8C379A000000000000000000000000000000000000000000000000000000000 DUP2 MSTORE PUSH1 0x4 ADD PUSH2 0x2C0F SWAP1 PUSH2 0x6214 JUMP JUMPDEST PUSH1 0x40 MLOAD DUP1 SWAP2 SUB SWAP1 REVERT JUMPDEST PUSH1 0x0 JUMPDEST PUSH1 0x7 DUP1 SLOAD SWAP1 POP DUP2 LT ISZERO PUSH2 0x2D9E JUMPI DUP3 PUSH20 0xFFFFFFFFFFFFFFFFFFFFFFFFFFFFFFFFFFFFFFFF AND PUSH1 0x7 DUP3 DUP2 SLOAD DUP2 LT PUSH2 0x2C53 JUMPI PUSH2 0x2C52 PUSH2 0x565B JUMP JUMPDEST JUMPDEST SWAP1 PUSH1 0x0 MSTORE PUSH1 0x20 PUSH1 0x0 KECCAK256 ADD PUSH1 0x0 SWAP1 SLOAD SWAP1 PUSH2 0x100 EXP SWAP1 DIV PUSH20 0xFFFFFFFFFFFFFFFFFFFFFFFFFFFFFFFFFFFFFFFF AND PUSH20 0xFFFFFFFFFFFFFFFFFFFFFFFFFFFFFFFFFFFFFFFF AND SUB PUSH2 0x2D91 JUMPI PUSH1 0x7 PUSH1 0x1 PUSH1 0x7 DUP1 SLOAD SWAP1 POP PUSH2 0x2CAD SWAP2 SWAP1 PUSH2 0x6234 JUMP JUMPDEST DUP2 SLOAD DUP2 LT PUSH2 0x2CBE JUMPI PUSH2 0x2CBD PUSH2 0x565B JUMP JUMPDEST JUMPDEST SWAP1 PUSH1 0x0 MSTORE PUSH1 0x20 PUSH1 0x0 KECCAK256 ADD PUSH1 0x0 SWAP1 SLOAD SWAP1 PUSH2 0x100 EXP SWAP1 DIV PUSH20 0xFFFFFFFFFFFFFFFFFFFFFFFFFFFFFFFFFFFFFFFF AND PUSH1 0x7 DUP3 DUP2 SLOAD DUP2 LT PUSH2 0x2CFD JUMPI PUSH2 0x2CFC PUSH2 0x565B JUMP JUMPDEST JUMPDEST SWAP1 PUSH1 0x0 MSTORE PUSH1 0x20 PUSH1 0x0 KECCAK256 ADD PUSH1 0x0 PUSH2 0x100 EXP DUP2 SLOAD DUP2 PUSH20 0xFFFFFFFFFFFFFFFFFFFFFFFFFFFFFFFFFFFFFFFF MUL NOT AND SWAP1 DUP4 PUSH20 0xFFFFFFFFFFFFFFFFFFFFFFFFFFFFFFFFFFFFFFFF AND MUL OR SWAP1 SSTORE POP PUSH1 0x7 DUP1 SLOAD DUP1 PUSH2 0x2D57 JUMPI PUSH2 0x2D56 PUSH2 0x6268 JUMP JUMPDEST JUMPDEST PUSH1 0x1 SWAP1 SUB DUP2 DUP2 SWAP1 PUSH1 0x0 MSTORE PUSH1 0x20 PUSH1 0x0 KECCAK256 ADD PUSH1 0x0 PUSH2 0x100 EXP DUP2 SLOAD SWAP1 PUSH20 0xFFFFFFFFFFFFFFFFFFFFFFFFFFFFFFFFFFFFFFFF MUL NOT AND SWAP1 SSTORE SWAP1 SSTORE PUSH2 0x2D9E JUMP JUMPDEST DUP1 DUP1 PUSH1 0x1 ADD SWAP2 POP POP PUSH2 0x2C1B JUMP JUMPDEST POP PUSH1 0x0 PUSH1 0x9 PUSH1 0x0 DUP5 PUSH20 0xFFFFFFFFFFFFFFFFFFFFFFFFFFFFFFFFFFFFFFFF AND PUSH20 0xFFFFFFFFFFFFFFFFFFFFFFFFFFFFFFFFFFFFFFFF AND DUP2 MSTORE PUSH1 0x20 ADD SWAP1 DUP2 MSTORE PUSH1 0x20 ADD PUSH1 0x0 KECCAK256 PUSH1 0x0 PUSH2 0x100 EXP DUP2 SLOAD DUP2 PUSH1 0xFF MUL NOT AND SWAP1 DUP4 ISZERO ISZERO MUL OR SWAP1 SSTORE POP PUSH2 0x2E21 PUSH32 0xC10C77BE35AFF266144ED64C26A1FA104BAE2F284AE99AC4A34203454704A185 DUP4 PUSH2 0x3B82 JUMP JUMPDEST POP DUP2 PUSH20 0xFFFFFFFFFFFFFFFFFFFFFFFFFFFFFFFFFFFFFFFF AND PUSH32 0x55DBA9D79522B91B615629D5F3B10C2FAD2D258F1768614F4A52E937ADA0D0BA PUSH1 0x40 MLOAD PUSH1 0x40 MLOAD DUP1 SWAP2 SUB SWAP1 LOG2 POP POP JUMP JUMPDEST PUSH1 0x0 PUSH1 0xB PUSH1 0x0 DUP4 PUSH20 0xFFFFFFFFFFFFFFFFFFFFFFFFFFFFFFFFFFFFFFFF AND PUSH20 0xFFFFFFFFFFFFFFFFFFFFFFFFFFFFFFFFFFFFFFFF AND DUP2 MSTORE PUSH1 0x20 ADD SWAP1 DUP2 MSTORE PUSH1 0x20 ADD PUSH1 0x0 KECCAK256 PUSH1 0x2 ADD PUSH1 0x0 SWAP1 SLOAD SWAP1 PUSH2 0x100 EXP SWAP1 DIV PUSH1 0xFF AND SWAP1 POP SWAP2 SWAP1 POP JUMP JUMPDEST PUSH1 0xD SLOAD DUP2 JUMP JUMPDEST PUSH2 0x2ED1 DUP3 PUSH2 0x1173 JUMP JUMPDEST PUSH2 0x2EDA DUP2 PUSH2 0x36FA JUMP JUMPDEST PUSH2 0x2EE4 DUP4 DUP4 PUSH2 0x3B82 JUMP JUMPDEST POP POP POP POP JUMP JUMPDEST PUSH1 0xE SLOAD DUP2 JUMP JUMPDEST PUSH1 0x60 PUSH1 0x0 PUSH1 0x12 SLOAD SWAP1 POP PUSH1 0x0 DUP2 PUSH8 0xFFFFFFFFFFFFFFFF DUP2 GT ISZERO PUSH2 0x2F15 JUMPI PUSH2 0x2F14 PUSH2 0x4882 JUMP JUMPDEST JUMPDEST PUSH1 0x40 MLOAD SWAP1 DUP1 DUP3 MSTORE DUP1 PUSH1 0x20 MUL PUSH1 0x20 ADD DUP3 ADD PUSH1 0x40 MSTORE DUP1 ISZERO PUSH2 0x2F4E JUMPI DUP2 PUSH1 0x20 ADD JUMPDEST PUSH2 0x2F3B PUSH2 0x458A JUMP JUMPDEST DUP2 MSTORE PUSH1 0x20 ADD SWAP1 PUSH1 0x1 SWAP1 SUB SWAP1 DUP2 PUSH2 0x2F33 JUMPI SWAP1 POP JUMPDEST POP SWAP1 POP PUSH1 0x0 JUMPDEST DUP3 DUP2 LT ISZERO PUSH2 0x321A JUMPI PUSH1 0xF PUSH1 0x0 DUP3 DUP2 MSTORE PUSH1 0x20 ADD SWAP1 DUP2 MSTORE PUSH1 0x20 ADD PUSH1 0x0 KECCAK256 PUSH1 0x40 MLOAD DUP1 PUSH2 0x160 ADD PUSH1 0x40 MSTORE SWAP1 DUP2 PUSH1 0x0 DUP3 ADD SLOAD DUP2 MSTORE PUSH1 0x20 ADD PUSH1 0x1 DUP3 ADD DUP1 SLOAD PUSH2 0x2F95 SWAP1 PUSH2 0x562A JUMP JUMPDEST DUP1 PUSH1 0x1F ADD PUSH1 0x20 DUP1 SWAP2 DIV MUL PUSH1 0x20 ADD PUSH1 0x40 MLOAD SWAP1 DUP2 ADD PUSH1 0x40 MSTORE DUP1 SWAP3 SWAP2 SWAP1 DUP2 DUP2 MSTORE PUSH1 0x20 ADD DUP3 DUP1 SLOAD PUSH2 0x2FC1 SWAP1 PUSH2 0x562A JUMP JUMPDEST DUP1 ISZERO PUSH2 0x300E JUMPI DUP1 PUSH1 0x1F LT PUSH2 0x2FE3 JUMPI PUSH2 0x100 DUP1 DUP4 SLOAD DIV MUL DUP4 MSTORE SWAP2 PUSH1 0x20 ADD SWAP2 PUSH2 0x300E JUMP JUMPDEST DUP3 ADD SWAP2 SWAP1 PUSH1 0x0 MSTORE PUSH1 0x20 PUSH1 0x0 KECCAK256 SWAP1 JUMPDEST DUP2 SLOAD DUP2 MSTORE SWAP1 PUSH1 0x1 ADD SWAP1 PUSH1 0x20 ADD DUP1 DUP4 GT PUSH2 0x2FF1 JUMPI DUP3 SWAP1 SUB PUSH1 0x1F AND DUP3 ADD SWAP2 JUMPDEST POP POP POP POP POP DUP2 MSTORE PUSH1 0x20 ADD PUSH1 0x2 DUP3 ADD PUSH1 0x0 SWAP1 SLOAD SWAP1 PUSH2 0x100 EXP SWAP1 DIV PUSH20 0xFFFFFFFFFFFFFFFFFFFFFFFFFFFFFFFFFFFFFFFF AND PUSH20 0xFFFFFFFFFFFFFFFFFFFFFFFFFFFFFFFFFFFFFFFF AND PUSH20 0xFFFFFFFFFFFFFFFFFFFFFFFFFFFFFFFFFFFFFFFF AND DUP2 MSTORE PUSH1 0x20 ADD PUSH1 0x3 DUP3 ADD SLOAD DUP2 MSTORE PUSH1 0x20 ADD PUSH1 0x4 DUP3 ADD SLOAD DUP2 MSTORE PUSH1 0x20 ADD PUSH1 0x5 DUP3 ADD SLOAD DUP2 MSTORE PUSH1 0x20 ADD PUSH1 0x6 DUP3 ADD SLOAD DUP2 MSTORE PUSH1 0x20 ADD PUSH1 0x7 DUP3 ADD PUSH1 0x0 SWAP1 SLOAD SWAP1 PUSH2 0x100 EXP SWAP1 DIV PUSH1 0xFF AND ISZERO ISZERO ISZERO ISZERO DUP2 MSTORE PUSH1 0x20 ADD PUSH1 0x7 DUP3 ADD PUSH1 0x1 SWAP1 SLOAD SWAP1 PUSH2 0x100 EXP SWAP1 DIV PUSH1 0xFF AND ISZERO ISZERO ISZERO ISZERO DUP2 MSTORE PUSH1 0x20 ADD PUSH1 0x8 DUP3 ADD DUP1 SLOAD PUSH2 0x30DB SWAP1 PUSH2 0x562A JUMP JUMPDEST DUP1 PUSH1 0x1F ADD PUSH1 0x20 DUP1 SWAP2 DIV MUL PUSH1 0x20 ADD PUSH1 0x40 MLOAD SWAP1 DUP2 ADD PUSH1 0x40 MSTORE DUP1 SWAP3 SWAP2 SWAP1 DUP2 DUP2 MSTORE PUSH1 0x20 ADD DUP3 DUP1 SLOAD PUSH2 0x3107 SWAP1 PUSH2 0x562A JUMP JUMPDEST DUP1 ISZERO PUSH2 0x3154 JUMPI DUP1 PUSH1 0x1F LT PUSH2 0x3129 JUMPI PUSH2 0x100 DUP1 DUP4 SLOAD DIV MUL DUP4 MSTORE SWAP2 PUSH1 0x20 ADD SWAP2 PUSH2 0x3154 JUMP JUMPDEST DUP3 ADD SWAP2 SWAP1 PUSH1 0x0 MSTORE PUSH1 0x20 PUSH1 0x0 KECCAK256 SWAP1 JUMPDEST DUP2 SLOAD DUP2 MSTORE SWAP1 PUSH1 0x1 ADD SWAP1 PUSH1 0x20 ADD DUP1 DUP4 GT PUSH2 0x3137 JUMPI DUP3 SWAP1 SUB PUSH1 0x1F AND DUP3 ADD SWAP2 JUMPDEST POP POP POP POP POP DUP2 MSTORE PUSH1 0x20 ADD PUSH1 0x9 DUP3 ADD DUP1 SLOAD PUSH2 0x316D SWAP1 PUSH2 0x562A JUMP JUMPDEST DUP1 PUSH1 0x1F ADD PUSH1 0x20 DUP1 SWAP2 DIV MUL PUSH1 0x20 ADD PUSH1 0x40 MLOAD SWAP1 DUP2 ADD PUSH1 0x40 MSTORE DUP1 SWAP3 SWAP2 SWAP1 DUP2 DUP2 MSTORE PUSH1 0x20 ADD DUP3 DUP1 SLOAD PUSH2 0x3199 SWAP1 PUSH2 0x562A JUMP JUMPDEST DUP1 ISZERO PUSH2 0x31E6 JUMPI DUP1 PUSH1 0x1F LT PUSH2 0x31BB JUMPI PUSH2 0x100 DUP1 DUP4 SLOAD DIV MUL DUP4 MSTORE SWAP2 PUSH1 0x20 ADD SWAP2 PUSH2 0x31E6 JUMP JUMPDEST DUP3 ADD SWAP2 SWAP1 PUSH1 0x0 MSTORE PUSH1 0x20 PUSH1 0x0 KECCAK256 SWAP1 JUMPDEST DUP2 SLOAD DUP2 MSTORE SWAP1 PUSH1 0x1 ADD SWAP1 PUSH1 0x20 ADD DUP1 DUP4 GT PUSH2 0x31C9 JUMPI DUP3 SWAP1 SUB PUSH1 0x1F AND DUP3 ADD SWAP2 JUMPDEST POP POP POP POP POP DUP2 MSTORE POP POP DUP3 DUP3 DUP2 MLOAD DUP2 LT PUSH2 0x3202 JUMPI PUSH2 0x3201 PUSH2 0x565B JUMP JUMPDEST JUMPDEST PUSH1 0x20 MUL PUSH1 0x20 ADD ADD DUP2 SWAP1 MSTORE POP DUP1 DUP1 PUSH1 0x1 ADD SWAP2 POP POP PUSH2 0x2F54 JUMP JUMPDEST POP DUP1 SWAP3 POP POP POP SWAP1 JUMP JUMPDEST PUSH1 0x0 PUSH1 0x1 PUSH1 0x0 DUP5 PUSH20 0xFFFFFFFFFFFFFFFFFFFFFFFFFFFFFFFFFFFFFFFF AND PUSH20 0xFFFFFFFFFFFFFFFFFFFFFFFFFFFFFFFFFFFFFFFF AND DUP2 MSTORE PUSH1 0x20 ADD SWAP1 DUP2 MSTORE PUSH1 0x20 ADD PUSH1 0x0 KECCAK256 PUSH1 0x0 DUP4 PUSH20 0xFFFFFFFFFFFFFFFFFFFFFFFFFFFFFFFFFFFFFFFF AND PUSH20 0xFFFFFFFFFFFFFFFFFFFFFFFFFFFFFFFFFFFFFFFF AND DUP2 MSTORE PUSH1 0x20 ADD SWAP1 DUP2 MSTORE PUSH1 0x20 ADD PUSH1 0x0 KECCAK256 SLOAD SWAP1 POP SWAP3 SWAP2 POP POP JUMP JUMPDEST PUSH32 0xC295D8A2F69016465F61012796A38346423F02058E9C426F8BC1D946BC8C8470 PUSH2 0x32D4 DUP2 PUSH2 0x36FA JUMP JUMPDEST PUSH1 0x0 DUP3 GT PUSH2 0x3317 JUMPI PUSH1 0x40 MLOAD PUSH32 0x8C379A000000000000000000000000000000000000000000000000000000000 DUP2 MSTORE PUSH1 0x4 ADD PUSH2 0x330E SWAP1 PUSH2 0x62E3 JUMP JUMPDEST PUSH1 0x40 MLOAD DUP1 SWAP2 SUB SWAP1 REVERT JUMPDEST PUSH2 0x3321 DUP4 DUP4 PUSH2 0x359E JUMP JUMPDEST POP DUP2 PUSH1 0x10 PUSH1 0x0 DUP6 PUSH20 0xFFFFFFFFFFFFFFFFFFFFFFFFFFFFFFFFFFFFFFFF AND PUSH20 0xFFFFFFFFFFFFFFFFFFFFFFFFFFFFFFFFFFFFFFFF AND DUP2 MSTORE PUSH1 0x20 ADD SWAP1 DUP2 MSTORE PUSH1 0x20 ADD PUSH1 0x0 KECCAK256 PUSH1 0x0 DUP3 DUP3 SLOAD PUSH2 0x3371 SWAP2 SWAP1 PUSH2 0x5B10 JUMP JUMPDEST SWAP3 POP POP DUP2 SWAP1 SSTORE POP POP POP POP JUMP JUMPDEST PUSH1 0x10 PUSH1 0x20 MSTORE DUP1 PUSH1 0x0 MSTORE PUSH1 0x40 PUSH1 0x0 KECCAK256 PUSH1 0x0 SWAP2 POP SWAP1 POP SLOAD DUP2 JUMP JUMPDEST PUSH1 0x0 PUSH2 0x33A0 CALLER PUSH2 0x2E69 JUMP JUMPDEST SWAP1 POP SWAP1 JUMP JUMPDEST PUSH1 0x0 PUSH2 0x33D1 PUSH32 0xC10C77BE35AFF266144ED64C26A1FA104BAE2F284AE99AC4A34203454704A185 DUP4 PUSH2 0x25ED JUMP JUMPDEST SWAP1 POP SWAP2 SWAP1 POP JUMP JUMPDEST PUSH1 0x0 JUMPDEST DUP2 MLOAD DUP2 LT ISZERO PUSH2 0x3416 JUMPI PUSH2 0x3408 DUP3 DUP3 DUP2 MLOAD DUP2 LT PUSH2 0x33FA JUMPI PUSH2 0x33F9 PUSH2 0x565B JUMP JUMPDEST JUMPDEST PUSH1 0x20 MUL PUSH1 0x20 ADD ADD MLOAD DUP5 PUSH2 0x359E JUMP JUMPDEST POP DUP1 DUP1 PUSH1 0x1 ADD SWAP2 POP POP PUSH2 0x33DB JUMP JUMPDEST POP DUP2 PUSH32 0xB88D01F589E949AD7233AADBCFBADCCA2B7F247555FA6423BC3D5D2563BD1563 DUP3 MLOAD PUSH1 0x40 MLOAD PUSH2 0x3448 SWAP2 SWAP1 PUSH2 0x4862 JUMP JUMPDEST PUSH1 0x40 MLOAD DUP1 SWAP2 SUB SWAP1 LOG2 POP POP JUMP JUMPDEST PUSH2 0x345D DUP2 PUSH2 0x3EC4 JUMP JUMPDEST PUSH1 0x0 PUSH1 0xB PUSH1 0x0 DUP4 PUSH20 0xFFFFFFFFFFFFFFFFFFFFFFFFFFFFFFFFFFFFFFFF AND PUSH20 0xFFFFFFFFFFFFFFFFFFFFFFFFFFFFFFFFFFFFFFFF AND DUP2 MSTORE PUSH1 0x20 ADD SWAP1 DUP2 MSTORE PUSH1 0x20 ADD PUSH1 0x0 KECCAK256 SWAP1 POP DUP1 PUSH1 0x0 ADD PUSH1 0x0 DUP2 SLOAD DUP1 SWAP3 SWAP2 SWAP1 PUSH2 0x34B5 SWAP1 PUSH2 0x5755 JUMP JUMPDEST SWAP2 SWAP1 POP SSTORE POP PUSH2 0x34C3 DUP3 PUSH2 0x3CC5 JUMP JUMPDEST POP DUP2 PUSH20 0xFFFFFFFFFFFFFFFFFFFFFFFFFFFFFFFFFFFFFFFF AND PUSH32 0xF18BEEF583F71B01F816B888B2FB4012ABC44A95618CBC737287866909E7ABD7 DUP3 PUSH1 0x0 ADD SLOAD PUSH1 0x40 MLOAD PUSH2 0x350E SWAP2 SWAP1 PUSH2 0x4862 JUMP JUMPDEST PUSH1 0x40 MLOAD DUP1 SWAP2 SUB SWAP1 LOG2 POP POP JUMP JUMPDEST PUSH1 0x0 PUSH32 0x1FFC9A700000000000000000000000000000000000000000000000000000000 PUSH28 0xFFFFFFFFFFFFFFFFFFFFFFFFFFFFFFFFFFFFFFFFFFFFFFFFFFFFFFFF NOT AND DUP3 PUSH28 0xFFFFFFFFFFFFFFFFFFFFFFFFFFFFFFFFFFFFFFFFFFFFFFFFFFFFFFFF NOT AND EQ SWAP1 POP SWAP2 SWAP1 POP JUMP JUMPDEST PUSH1 0x0 CALLER SWAP1 POP SWAP1 JUMP JUMPDEST PUSH2 0x3599 DUP4 DUP4 DUP4 PUSH1 0x1 PUSH2 0x3FDF JUMP JUMPDEST POP POP POP JUMP JUMPDEST PUSH1 0x0 PUSH1 0x64 PUSH1 0xA PUSH12 0x204FCE5E3E25026110000000 PUSH2 0x35BB SWAP2 SWAP1 PUSH2 0x5A6E JUMP JUMPDEST PUSH2 0x35C5 SWAP2 SWAP1 PUSH2 0x5ADF JUMP JUMPDEST PUSH2 0x35CD PUSH2 0x3B78 JUMP JUMPDEST DUP4 PUSH2 0x35D8 SWAP2 SWAP1 PUSH2 0x5B10 JUMP JUMPDEST GT ISZERO PUSH2 0x3619 JUMPI PUSH1 0x40 MLOAD PUSH32 0x8C379A000000000000000000000000000000000000000000000000000000000 DUP2 MSTORE PUSH1 0x4 ADD PUSH2 0x3610 SWAP1 PUSH2 0x6375 JUMP JUMPDEST PUSH1 0x40 MLOAD DUP1 SWAP2 SUB SWAP1 REVERT JUMPDEST PUSH1 0x0 PUSH20 0xFFFFFFFFFFFFFFFFFFFFFFFFFFFFFFFFFFFFFFFF AND DUP4 PUSH20 0xFFFFFFFFFFFFFFFFFFFFFFFFFFFFFFFFFFFFFFFF AND SUB PUSH2 0x3688 JUMPI PUSH1 0x40 MLOAD PUSH32 0x8C379A000000000000000000000000000000000000000000000000000000000 DUP2 MSTORE PUSH1 0x4 ADD PUSH2 0x367F SWAP1 PUSH2 0x6407 JUMP JUMPDEST PUSH1 0x40 MLOAD DUP1 SWAP2 SUB SWAP1 REVERT JUMPDEST PUSH2 0x3692 DUP4 DUP4 PUSH2 0x41B6 JUMP JUMPDEST POP DUP2 PUSH1 0xD PUSH1 0x0 DUP3 DUP3 SLOAD PUSH2 0x36A5 SWAP2 SWAP1 PUSH2 0x5B10 JUMP JUMPDEST SWAP3 POP POP DUP2 SWAP1 SSTORE POP DUP2 DUP4 PUSH20 0xFFFFFFFFFFFFFFFFFFFFFFFFFFFFFFFFFFFFFFFF AND PUSH32 0xFFD50653CCB3020C797C5CBA8C53BEBB40E00EEB76593DEDCF4A157B3EA6CB51 PUSH1 0x40 MLOAD PUSH1 0x40 MLOAD DUP1 SWAP2 SUB SWAP1 LOG3 PUSH1 0x1 SWAP1 POP SWAP3 SWAP2 POP POP JUMP JUMPDEST PUSH2 0x370B DUP2 PUSH2 0x3706 PUSH2 0x3584 JUMP JUMPDEST PUSH2 0x4271 JUMP JUMPDEST POP JUMP JUMPDEST PUSH1 0x0 PUSH32 0xDF1425BAE297C2F52B4F15D18A50B1FC8CB5B981A981B1D213ED3FF92681B64D PUSH2 0x373A DUP2 PUSH2 0x36FA JUMP JUMPDEST PUSH32 0xC10C77BE35AFF266144ED64C26A1FA104BAE2F284AE99AC4A34203454704A185 PUSH2 0x3764 DUP2 PUSH2 0x36FA JUMP JUMPDEST PUSH1 0x0 PUSH1 0x8 PUSH1 0x0 DUP2 SLOAD DUP1 SWAP3 SWAP2 SWAP1 PUSH2 0x3779 SWAP1 PUSH2 0x5755 JUMP JUMPDEST SWAP2 SWAP1 POP SSTORE SWAP1 POP PUSH1 0x0 PUSH1 0xA PUSH1 0x0 DUP4 DUP2 MSTORE PUSH1 0x20 ADD SWAP1 DUP2 MSTORE PUSH1 0x20 ADD PUSH1 0x0 KECCAK256 SWAP1 POP DUP2 DUP2 PUSH1 0x0 ADD DUP2 SWAP1 SSTORE POP CALLER DUP2 PUSH1 0x1 ADD PUSH1 0x0 PUSH2 0x100 EXP DUP2 SLOAD DUP2 PUSH20 0xFFFFFFFFFFFFFFFFFFFFFFFFFFFFFFFFFFFFFFFF MUL NOT AND SWAP1 DUP4 PUSH20 0xFFFFFFFFFFFFFFFFFFFFFFFFFFFFFFFFFFFFFFFF AND MUL OR SWAP1 SSTORE POP DUP7 DUP2 PUSH1 0x2 ADD PUSH1 0x0 PUSH2 0x100 EXP DUP2 SLOAD DUP2 PUSH20 0xFFFFFFFFFFFFFFFFFFFFFFFFFFFFFFFFFFFFFFFF MUL NOT AND SWAP1 DUP4 PUSH20 0xFFFFFFFFFFFFFFFFFFFFFFFFFFFFFFFFFFFFFFFF AND MUL OR SWAP1 SSTORE POP DUP6 DUP2 PUSH1 0x3 ADD SWAP1 DUP2 PUSH2 0x3836 SWAP2 SWAP1 PUSH2 0x646D JUMP JUMPDEST POP PUSH1 0x1 DUP2 PUSH1 0x4 ADD DUP2 SWAP1 SSTORE POP PUSH1 0x0 DUP2 PUSH1 0x5 ADD PUSH1 0x0 PUSH2 0x100 EXP DUP2 SLOAD DUP2 PUSH1 0xFF MUL NOT AND SWAP1 DUP4 ISZERO ISZERO MUL OR SWAP1 SSTORE POP PUSH1 0x1 DUP2 PUSH1 0x6 ADD PUSH1 0x0 CALLER PUSH20 0xFFFFFFFFFFFFFFFFFFFFFFFFFFFFFFFFFFFFFFFF AND PUSH20 0xFFFFFFFFFFFFFFFFFFFFFFFFFFFFFFFFFFFFFFFF AND DUP2 MSTORE PUSH1 0x20 ADD SWAP1 DUP2 MSTORE PUSH1 0x20 ADD PUSH1 0x0 KECCAK256 PUSH1 0x0 PUSH2 0x100 EXP DUP2 SLOAD DUP2 PUSH1 0xFF MUL NOT AND SWAP1 DUP4 ISZERO ISZERO MUL OR SWAP1 SSTORE POP DUP2 PUSH32 0xBCC43907BE1D435F496E2233697A9A9FEAD2FB5639DAC8459C53D7114829B8BE CALLER PUSH1 0x40 MLOAD PUSH2 0x38E8 SWAP2 SWAP1 PUSH2 0x4A5D JUMP JUMPDEST PUSH1 0x40 MLOAD DUP1 SWAP2 SUB SWAP1 LOG2 DUP2 SWAP5 POP POP POP POP POP SWAP3 SWAP2 POP POP JUMP JUMPDEST PUSH1 0x0 PUSH2 0x3909 DUP5 DUP5 PUSH2 0x3223 JUMP JUMPDEST SWAP1 POP PUSH32 0xFFFFFFFFFFFFFFFFFFFFFFFFFFFFFFFFFFFFFFFFFFFFFFFFFFFFFFFFFFFFFFFF DUP2 LT ISZERO PUSH2 0x398C JUMPI DUP2 DUP2 LT ISZERO PUSH2 0x397C JUMPI DUP3 DUP2 DUP4 PUSH1 0x40 MLOAD PUSH32 0xFB8F41B200000000000000000000000000000000000000000000000000000000 DUP2 MSTORE PUSH1 0x4 ADD PUSH2 0x3973 SWAP4 SWAP3 SWAP2 SWAP1 PUSH2 0x653F JUMP JUMPDEST PUSH1 0x40 MLOAD DUP1 SWAP2 SUB SWAP1 REVERT JUMPDEST PUSH2 0x398B DUP5 DUP5 DUP5 DUP5 SUB PUSH1 0x0 PUSH2 0x3FDF JUMP JUMPDEST JUMPDEST POP POP POP POP JUMP JUMPDEST PUSH1 0x0 PUSH20 0xFFFFFFFFFFFFFFFFFFFFFFFFFFFFFFFFFFFFFFFF AND DUP4 PUSH20 0xFFFFFFFFFFFFFFFFFFFFFFFFFFFFFFFFFFFFFFFF AND SUB PUSH2 0x3A04 JUMPI PUSH1 0x0 PUSH1 0x40 MLOAD PUSH32 0x96C6FD1E00000000000000000000000000000000000000000000000000000000 DUP2 MSTORE PUSH1 0x4 ADD PUSH2 0x39FB SWAP2 SWAP1 PUSH2 0x4A5D JUMP JUMPDEST PUSH1 0x40 MLOAD DUP1 SWAP2 SUB SWAP1 REVERT JUMPDEST PUSH1 0x0 PUSH20 0xFFFFFFFFFFFFFFFFFFFFFFFFFFFFFFFFFFFFFFFF AND DUP3 PUSH20 0xFFFFFFFFFFFFFFFFFFFFFFFFFFFFFFFFFFFFFFFF AND SUB PUSH2 0x3A76 JUMPI PUSH1 0x0 PUSH1 0x40 MLOAD PUSH32 0xEC442F0500000000000000000000000000000000000000000000000000000000 DUP2 MSTORE PUSH1 0x4 ADD PUSH2 0x3A6D SWAP2 SWAP1 PUSH2 0x4A5D JUMP JUMPDEST PUSH1 0x40 MLOAD DUP1 SWAP2 SUB SWAP1 REVERT JUMPDEST PUSH2 0x3A81 DUP4 DUP4 DUP4 PUSH2 0x42C2 JUMP JUMPDEST POP POP POP JUMP JUMPDEST PUSH1 0x0 PUSH2 0x3A92 DUP4 DUP4 PUSH2 0x25ED JUMP JUMPDEST PUSH2 0x3B6D JUMPI PUSH1 0x1 PUSH1 0x5 PUSH1 0x0 DUP6 DUP2 MSTORE PUSH1 0x20 ADD SWAP1 DUP2 MSTORE PUSH1 0x20 ADD PUSH1 0x0 KECCAK256 PUSH1 0x0 ADD PUSH1 0x0 DUP5 PUSH20 0xFFFFFFFFFFFFFFFFFFFFFFFFFFFFFFFFFFFFFFFF AND PUSH20 0xFFFFFFFFFFFFFFFFFFFFFFFFFFFFFFFFFFFFFFFF AND DUP2 MSTORE PUSH1 0x20 ADD SWAP1 DUP2 MSTORE PUSH1 0x20 ADD PUSH1 0x0 KECCAK256 PUSH1 0x0 PUSH2 0x100 EXP DUP2 SLOAD DUP2 PUSH1 0xFF MUL NOT AND SWAP1 DUP4 ISZERO ISZERO MUL OR SWAP1 SSTORE POP PUSH2 0x3B0A PUSH2 0x3584 JUMP JUMPDEST PUSH20 0xFFFFFFFFFFFFFFFFFFFFFFFFFFFFFFFFFFFFFFFF AND DUP3 PUSH20 0xFFFFFFFFFFFFFFFFFFFFFFFFFFFFFFFFFFFFFFFF AND DUP5 PUSH32 0x2F8788117E7EFF1D82E926EC794901D17C78024A50270940304540A733656F0D PUSH1 0x40 MLOAD PUSH1 0x40 MLOAD DUP1 SWAP2 SUB SWAP1 LOG4 PUSH1 0x1 SWAP1 POP PUSH2 0x3B72 JUMP JUMPDEST PUSH1 0x0 SWAP1 POP JUMPDEST SWAP3 SWAP2 POP POP JUMP JUMPDEST PUSH1 0x0 PUSH1 0xD SLOAD SWAP1 POP SWAP1 JUMP JUMPDEST PUSH1 0x0 PUSH2 0x3B8E DUP4 DUP4 PUSH2 0x25ED JUMP JUMPDEST ISZERO PUSH2 0x3C6A JUMPI PUSH1 0x0 PUSH1 0x5 PUSH1 0x0 DUP6 DUP2 MSTORE PUSH1 0x20 ADD SWAP1 DUP2 MSTORE PUSH1 0x20 ADD PUSH1 0x0 KECCAK256 PUSH1 0x0 ADD PUSH1 0x0 DUP5 PUSH20 0xFFFFFFFFFFFFFFFFFFFFFFFFFFFFFFFFFFFFFFFF AND PUSH20 0xFFFFFFFFFFFFFFFFFFFFFFFFFFFFFFFFFFFFFFFF AND DUP2 MSTORE PUSH1 0x20 ADD SWAP1 DUP2 MSTORE PUSH1 0x20 ADD PUSH1 0x0 KECCAK256 PUSH1 0x0 PUSH2 0x100 EXP DUP2 SLOAD DUP2 PUSH1 0xFF MUL NOT AND SWAP1 DUP4 ISZERO ISZERO MUL OR SWAP1 SSTORE POP PUSH2 0x3C07 PUSH2 0x3584 JUMP JUMPDEST PUSH20 0xFFFFFFFFFFFFFFFFFFFFFFFFFFFFFFFFFFFFFFFF AND DUP3 PUSH20 0xFFFFFFFFFFFFFFFFFFFFFFFFFFFFFFFFFFFFFFFF AND DUP5 PUSH32 0xF6391F5C32D9C69D2A47EA670B442974B53935D1EDC7FD64EB21E047A839171B PUSH1 0x40 MLOAD PUSH1 0x40 MLOAD DUP1 SWAP2 SUB SWAP1 LOG4 PUSH1 0x1 SWAP1 POP PUSH2 0x3C6F JUMP JUMPDEST PUSH1 0x0 SWAP1 POP JUMPDEST SWAP3 SWAP2 POP POP JUMP JUMPDEST PUSH1 0x2 PUSH1 0x6 SLOAD SUB PUSH2 0x3CB1 JUMPI PUSH1 0x40 MLOAD PUSH32 0x3EE5AEB500000000000000000000000000000000000000000000000000000000 DUP2 MSTORE PUSH1 0x4 ADD PUSH1 0x40 MLOAD DUP1 SWAP2 SUB SWAP1 REVERT JUMPDEST PUSH1 0x2 PUSH1 0x6 DUP2 SWAP1 SSTORE POP JUMP JUMPDEST PUSH1 0x1 PUSH1 0x6 DUP2 SWAP1 SSTORE POP JUMP JUMPDEST PUSH1 0x0 DUP1 PUSH1 0xB PUSH1 0x0 DUP5 PUSH20 0xFFFFFFFFFFFFFFFFFFFFFFFFFFFFFFFFFFFFFFFF AND PUSH20 0xFFFFFFFFFFFFFFFFFFFFFFFFFFFFFFFFFFFFFFFF AND DUP2 MSTORE PUSH1 0x20 ADD SWAP1 DUP2 MSTORE PUSH1 0x20 ADD PUSH1 0x0 KECCAK256 SWAP1 POP PUSH1 0x0 DUP2 PUSH1 0x2 ADD PUSH1 0x0 SWAP1 SLOAD SWAP1 PUSH2 0x100 EXP SWAP1 DIV PUSH1 0xFF AND SWAP1 POP PUSH1 0x0 PUSH1 0xA DUP4 PUSH1 0x0 ADD SLOAD LT PUSH2 0x3D36 JUMPI PUSH1 0x4 SWAP1 POP PUSH2 0x3D7D JUMP JUMPDEST PUSH1 0x5 DUP4 PUSH1 0x0 ADD SLOAD LT PUSH2 0x3D4B JUMPI PUSH1 0x3 SWAP1 POP PUSH2 0x3D7C JUMP JUMPDEST PUSH1 0x3 DUP4 PUSH1 0x0 ADD SLOAD LT PUSH2 0x3D60 JUMPI PUSH1 0x2 SWAP1 POP PUSH2 0x3D7B JUMP JUMPDEST PUSH1 0x1 DUP4 PUSH1 0x0 ADD SLOAD LT PUSH2 0x3D75 JUMPI PUSH1 0x1 SWAP1 POP PUSH2 0x3D7A JUMP JUMPDEST PUSH1 0x0 SWAP1 POP JUMPDEST JUMPDEST JUMPDEST JUMPDEST DUP2 PUSH1 0x4 DUP2 GT ISZERO PUSH2 0x3D90 JUMPI PUSH2 0x3D8F PUSH2 0x5235 JUMP JUMPDEST JUMPDEST DUP2 PUSH1 0x4 DUP2 GT ISZERO PUSH2 0x3DA3 JUMPI PUSH2 0x3DA2 PUSH2 0x5235 JUMP JUMPDEST JUMPDEST EQ PUSH2 0x3EBC JUMPI DUP1 DUP4 PUSH1 0x2 ADD PUSH1 0x0 PUSH2 0x100 EXP DUP2 SLOAD DUP2 PUSH1 0xFF MUL NOT AND SWAP1 DUP4 PUSH1 0x4 DUP2 GT ISZERO PUSH2 0x3DCF JUMPI PUSH2 0x3DCE PUSH2 0x5235 JUMP JUMPDEST JUMPDEST MUL OR SWAP1 SSTORE POP PUSH1 0xC PUSH1 0x0 DUP3 PUSH1 0x4 DUP2 GT ISZERO PUSH2 0x3DEB JUMPI PUSH2 0x3DEA PUSH2 0x5235 JUMP JUMPDEST JUMPDEST PUSH1 0x4 DUP2 GT ISZERO PUSH2 0x3DFD JUMPI PUSH2 0x3DFC PUSH2 0x5235 JUMP JUMPDEST JUMPDEST DUP2 MSTORE PUSH1 0x20 ADD SWAP1 DUP2 MSTORE PUSH1 0x20 ADD PUSH1 0x0 KECCAK256 PUSH1 0x2 ADD SLOAD SWAP4 POP PUSH1 0x0 DUP6 DUP3 PUSH1 0x40 MLOAD PUSH1 0x20 ADD PUSH2 0x3E26 SWAP3 SWAP2 SWAP1 PUSH2 0x65F4 JUMP JUMPDEST PUSH1 0x40 MLOAD PUSH1 0x20 DUP2 DUP4 SUB SUB DUP2 MSTORE SWAP1 PUSH1 0x40 MSTORE DUP1 MLOAD SWAP1 PUSH1 0x20 ADD KECCAK256 SWAP1 POP PUSH1 0x1 DUP5 PUSH1 0x3 ADD PUSH1 0x0 DUP4 DUP2 MSTORE PUSH1 0x20 ADD SWAP1 DUP2 MSTORE PUSH1 0x20 ADD PUSH1 0x0 KECCAK256 PUSH1 0x0 PUSH2 0x100 EXP DUP2 SLOAD DUP2 PUSH1 0xFF MUL NOT AND SWAP1 DUP4 ISZERO ISZERO MUL OR SWAP1 SSTORE POP DUP6 PUSH20 0xFFFFFFFFFFFFFFFFFFFFFFFFFFFFFFFFFFFFFFFF AND PUSH32 0x285A0F2DEFF4DBDD3719BAE595CB2C8B27A45F0814E4DB2B1946AB8DF9BC548B DUP4 PUSH1 0x40 MLOAD PUSH2 0x3EB2 SWAP2 SWAP1 PUSH2 0x5344 JUMP JUMPDEST PUSH1 0x40 MLOAD DUP1 SWAP2 SUB SWAP1 LOG2 POP JUMPDEST POP POP POP SWAP2 SWAP1 POP JUMP JUMPDEST PUSH1 0x0 PUSH1 0xB PUSH1 0x0 DUP4 PUSH20 0xFFFFFFFFFFFFFFFFFFFFFFFFFFFFFFFFFFFFFFFF AND PUSH20 0xFFFFFFFFFFFFFFFFFFFFFFFFFFFFFFFFFFFFFFFF AND DUP2 MSTORE PUSH1 0x20 ADD SWAP1 DUP2 MSTORE PUSH1 0x20 ADD PUSH1 0x0 KECCAK256 SWAP1 POP PUSH1 0x0 PUSH1 0x4 DUP2 GT ISZERO PUSH2 0x3F1B JUMPI PUSH2 0x3F1A PUSH2 0x5235 JUMP JUMPDEST JUMPDEST PUSH1 0x4 DUP2 GT ISZERO PUSH2 0x3F2D JUMPI PUSH2 0x3F2C PUSH2 0x5235 JUMP JUMPDEST JUMPDEST DUP2 PUSH1 0x2 ADD PUSH1 0x0 SWAP1 SLOAD SWAP1 PUSH2 0x100 EXP SWAP1 DIV PUSH1 0xFF AND PUSH1 0x4 DUP2 GT ISZERO PUSH2 0x3F51 JUMPI PUSH2 0x3F50 PUSH2 0x5235 JUMP JUMPDEST JUMPDEST SUB PUSH2 0x3FDB JUMPI PUSH1 0x0 DUP2 PUSH1 0x2 ADD PUSH1 0x0 PUSH2 0x100 EXP DUP2 SLOAD DUP2 PUSH1 0xFF MUL NOT AND SWAP1 DUP4 PUSH1 0x4 DUP2 GT ISZERO PUSH2 0x3F7E JUMPI PUSH2 0x3F7D PUSH2 0x5235 JUMP JUMPDEST JUMPDEST MUL OR SWAP1 SSTORE POP PUSH1 0x0 DUP2 PUSH1 0x0 ADD DUP2 SWAP1 SSTORE POP PUSH1 0x0 DUP2 PUSH1 0x1 ADD DUP2 SWAP1 SSTORE POP DUP2 PUSH20 0xFFFFFFFFFFFFFFFFFFFFFFFFFFFFFFFFFFFFFFFF AND PUSH32 0x92FABFA210DF88D92C2F5A07DDD43A985B208D8B19B7A78BA1284AA4B287D862 PUSH1 0x40 MLOAD PUSH1 0x40 MLOAD DUP1 SWAP2 SUB SWAP1 LOG2 JUMPDEST POP POP JUMP JUMPDEST PUSH1 0x0 PUSH20 0xFFFFFFFFFFFFFFFFFFFFFFFFFFFFFFFFFFFFFFFF AND DUP5 PUSH20 0xFFFFFFFFFFFFFFFFFFFFFFFFFFFFFFFFFFFFFFFF AND SUB PUSH2 0x4051 JUMPI PUSH1 0x0 PUSH1 0x40 MLOAD PUSH32 0xE602DF0500000000000000000000000000000000000000000000000000000000 DUP2 MSTORE PUSH1 0x4 ADD PUSH2 0x4048 SWAP2 SWAP1 PUSH2 0x4A5D JUMP JUMPDEST PUSH1 0x40 MLOAD DUP1 SWAP2 SUB SWAP1 REVERT JUMPDEST PUSH1 0x0 PUSH20 0xFFFFFFFFFFFFFFFFFFFFFFFFFFFFFFFFFFFFFFFF AND DUP4 PUSH20 0xFFFFFFFFFFFFFFFFFFFFFFFFFFFFFFFFFFFFFFFF AND SUB PUSH2 0x40C3 JUMPI PUSH1 0x0 PUSH1 0x40 MLOAD PUSH32 0x94280D6200000000000000000000000000000000000000000000000000000000 DUP2 MSTORE PUSH1 0x4 ADD PUSH2 0x40BA SWAP2 SWAP1 PUSH2 0x4A5D JUMP JUMPDEST PUSH1 0x40 MLOAD DUP1 SWAP2 SUB SWAP1 REVERT JUMPDEST DUP2 PUSH1 0x1 PUSH1 0x0 DUP7 PUSH20 0xFFFFFFFFFFFFFFFFFFFFFFFFFFFFFFFFFFFFFFFF AND PUSH20 0xFFFFFFFFFFFFFFFFFFFFFFFFFFFFFFFFFFFFFFFF AND DUP2 MSTORE PUSH1 0x20 ADD SWAP1 DUP2 MSTORE PUSH1 0x20 ADD PUSH1 0x0 KECCAK256 PUSH1 0x0 DUP6 PUSH20 0xFFFFFFFFFFFFFFFFFFFFFFFFFFFFFFFFFFFFFFFF AND PUSH20 0xFFFFFFFFFFFFFFFFFFFFFFFFFFFFFFFFFFFFFFFF AND DUP2 MSTORE PUSH1 0x20 ADD SWAP1 DUP2 MSTORE PUSH1 0x20 ADD PUSH1 0x0 KECCAK256 DUP2 SWAP1 SSTORE POP DUP1 ISZERO PUSH2 0x41B0 JUMPI DUP3 PUSH20 0xFFFFFFFFFFFFFFFFFFFFFFFFFFFFFFFFFFFFFFFF AND DUP5 PUSH20 0xFFFFFFFFFFFFFFFFFFFFFFFFFFFFFFFFFFFFFFFF AND PUSH32 0x8C5BE1E5EBEC7D5BD14F71427D1E84F3DD0314C0F7B2291E5B200AC8C7C3B925 DUP5 PUSH1 0x40 MLOAD PUSH2 0x41A7 SWAP2 SWAP1 PUSH2 0x4862 JUMP JUMPDEST PUSH1 0x40 MLOAD DUP1 SWAP2 SUB SWAP1 LOG3 JUMPDEST POP POP POP POP JUMP JUMPDEST PUSH1 0x0 PUSH12 0x204FCE5E3E25026110000000 PUSH2 0x41CD PUSH2 0xF9D JUMP JUMPDEST DUP4 PUSH2 0x41D8 SWAP2 SWAP1 PUSH2 0x5B10 JUMP JUMPDEST GT ISZERO PUSH2 0x4219 JUMPI PUSH1 0x40 MLOAD PUSH32 0x8C379A000000000000000000000000000000000000000000000000000000000 DUP2 MSTORE PUSH1 0x4 ADD PUSH2 0x4210 SWAP1 PUSH2 0x666C JUMP JUMPDEST PUSH1 0x40 MLOAD DUP1 SWAP2 SUB SWAP1 REVERT JUMPDEST PUSH2 0x4223 DUP4 DUP4 PUSH2 0x44E7 JUMP JUMPDEST DUP2 DUP4 PUSH20 0xFFFFFFFFFFFFFFFFFFFFFFFFFFFFFFFFFFFFFFFF AND PUSH32 0xCDA531BFD68624F13205C0A23CD4D5A7F09792CBB399603114F2B04AAA1BF5CF PUSH1 0x40 MLOAD PUSH1 0x40 MLOAD DUP1 SWAP2 SUB SWAP1 LOG3 PUSH1 0x1 SWAP1 POP SWAP3 SWAP2 POP POP JUMP JUMPDEST PUSH2 0x427B DUP3 DUP3 PUSH2 0x25ED JUMP JUMPDEST PUSH2 0x42BE JUMPI DUP1 DUP3 PUSH1 0x40 MLOAD PUSH32 0xE2517D3F00000000000000000000000000000000000000000000000000000000 DUP2 MSTORE PUSH1 0x4 ADD PUSH2 0x42B5 SWAP3 SWAP2 SWAP1 PUSH2 0x668C JUMP JUMPDEST PUSH1 0x40 MLOAD DUP1 SWAP2 SUB SWAP1 REVERT JUMPDEST POP POP JUMP JUMPDEST PUSH1 0x0 PUSH20 0xFFFFFFFFFFFFFFFFFFFFFFFFFFFFFFFFFFFFFFFF AND DUP4 PUSH20 0xFFFFFFFFFFFFFFFFFFFFFFFFFFFFFFFFFFFFFFFF AND SUB PUSH2 0x4314 JUMPI DUP1 PUSH1 0x2 PUSH1 0x0 DUP3 DUP3 SLOAD PUSH2 0x4308 SWAP2 SWAP1 PUSH2 0x5B10 JUMP JUMPDEST SWAP3 POP POP DUP2 SWAP1 SSTORE POP PUSH2 0x43E7 JUMP JUMPDEST PUSH1 0x0 DUP1 PUSH1 0x0 DUP6 PUSH20 0xFFFFFFFFFFFFFFFFFFFFFFFFFFFFFFFFFFFFFFFF AND PUSH20 0xFFFFFFFFFFFFFFFFFFFFFFFFFFFFFFFFFFFFFFFF AND DUP2 MSTORE PUSH1 0x20 ADD SWAP1 DUP2 MSTORE PUSH1 0x20 ADD PUSH1 0x0 KECCAK256 SLOAD SWAP1 POP DUP2 DUP2 LT ISZERO PUSH2 0x43A0 JUMPI DUP4 DUP2 DUP4 PUSH1 0x40 MLOAD PUSH32 0xE450D38C00000000000000000000000000000000000000000000000000000000 DUP2 MSTORE PUSH1 0x4 ADD PUSH2 0x4397 SWAP4 SWAP3 SWAP2 SWAP1 PUSH2 0x653F JUMP JUMPDEST PUSH1 0x40 MLOAD DUP1 SWAP2 SUB SWAP1 REVERT JUMPDEST DUP2 DUP2 SUB PUSH1 0x0 DUP1 DUP7 PUSH20 0xFFFFFFFFFFFFFFFFFFFFFFFFFFFFFFFFFFFFFFFF AND PUSH20 0xFFFFFFFFFFFFFFFFFFFFFFFFFFFFFFFFFFFFFFFF AND DUP2 MSTORE PUSH1 0x20 ADD SWAP1 DUP2 MSTORE PUSH1 0x20 ADD PUSH1 0x0 KECCAK256 DUP2 SWAP1 SSTORE POP POP JUMPDEST PUSH1 0x0 PUSH20 0xFFFFFFFFFFFFFFFFFFFFFFFFFFFFFFFFFFFFFFFF AND DUP3 PUSH20 0xFFFFFFFFFFFFFFFFFFFFFFFFFFFFFFFFFFFFFFFF AND SUB PUSH2 0x4430 JUMPI DUP1 PUSH1 0x2 PUSH1 0x0 DUP3 DUP3 SLOAD SUB SWAP3 POP POP DUP2 SWAP1 SSTORE POP PUSH2 0x447D JUMP JUMPDEST DUP1 PUSH1 0x0 DUP1 DUP5 PUSH20 0xFFFFFFFFFFFFFFFFFFFFFFFFFFFFFFFFFFFFFFFF AND PUSH20 0xFFFFFFFFFFFFFFFFFFFFFFFFFFFFFFFFFFFFFFFF AND DUP2 MSTORE PUSH1 0x20 ADD SWAP1 DUP2 MSTORE PUSH1 0x20 ADD PUSH1 0x0 KECCAK256 PUSH1 0x0 DUP3 DUP3 SLOAD ADD SWAP3 POP POP DUP2 SWAP1 SSTORE POP JUMPDEST DUP2 PUSH20 0xFFFFFFFFFFFFFFFFFFFFFFFFFFFFFFFFFFFFFFFF AND DUP4 PUSH20 0xFFFFFFFFFFFFFFFFFFFFFFFFFFFFFFFFFFFFFFFF AND PUSH32 0xDDF252AD1BE2C89B69C2B068FC378DAA952BA7F163C4A11628F55A4DF523B3EF DUP4 PUSH1 0x40 MLOAD PUSH2 0x44DA SWAP2 SWAP1 PUSH2 0x4862 JUMP JUMPDEST PUSH1 0x40 MLOAD DUP1 SWAP2 SUB SWAP1 LOG3 POP POP POP JUMP JUMPDEST PUSH1 0x0 PUSH20 0xFFFFFFFFFFFFFFFFFFFFFFFFFFFFFFFFFFFFFFFF AND DUP3 PUSH20 0xFFFFFFFFFFFFFFFFFFFFFFFFFFFFFFFFFFFFFFFF AND SUB PUSH2 0x4559 JUMPI PUSH1 0x0 PUSH1 0x40 MLOAD PUSH32 0xEC442F0500000000000000000000000000000000000000000000000000000000 DUP2 MSTORE PUSH1 0x4 ADD PUSH2 0x4550 SWAP2 SWAP1 PUSH2 0x4A5D JUMP JUMPDEST PUSH1 0x40 MLOAD DUP1 SWAP2 SUB SWAP1 REVERT JUMPDEST PUSH2 0x4565 PUSH1 0x0 DUP4 DUP4 PUSH2 0x42C2 JUMP JUMPDEST POP POP JUMP JUMPDEST PUSH1 0x40 MLOAD DUP1 PUSH1 0x60 ADD PUSH1 0x40 MSTORE DUP1 PUSH1 0x60 DUP2 MSTORE PUSH1 0x20 ADD PUSH1 0x60 DUP2 MSTORE PUSH1 0x20 ADD PUSH1 0x0 DUP2 MSTORE POP SWAP1 JUMP JUMPDEST PUSH1 0x40 MLOAD DUP1 PUSH2 0x160 ADD PUSH1 0x40 MSTORE DUP1 PUSH1 0x0 DUP2 MSTORE PUSH1 0x20 ADD PUSH1 0x60 DUP2 MSTORE PUSH1 0x20 ADD PUSH1 0x0 PUSH20 0xFFFFFFFFFFFFFFFFFFFFFFFFFFFFFFFFFFFFFFFF AND DUP2 MSTORE PUSH1 0x20 ADD PUSH1 0x0 DUP2 MSTORE PUSH1 0x20 ADD PUSH1 0x0 DUP2 MSTORE PUSH1 0x20 ADD PUSH1 0x0 DUP2 MSTORE PUSH1 0x20 ADD PUSH1 0x0 DUP2 MSTORE PUSH1 0x20 ADD PUSH1 0x0 ISZERO ISZERO DUP2 MSTORE PUSH1 0x20 ADD PUSH1 0x0 ISZERO ISZERO DUP2 MSTORE PUSH1 0x20 ADD PUSH1 0x60 DUP2 MSTORE PUSH1 0x20 ADD PUSH1 0x60 DUP2 MSTORE POP SWAP1 JUMP JUMPDEST PUSH1 0x0 DUP2 ISZERO ISZERO SWAP1 POP SWAP2 SWAP1 POP JUMP JUMPDEST PUSH2 0x4613 DUP2 PUSH2 0x45FE JUMP JUMPDEST DUP3 MSTORE POP POP JUMP JUMPDEST PUSH1 0x0 PUSH1 0x20 DUP3 ADD SWAP1 POP PUSH2 0x462E PUSH1 0x0 DUP4 ADD DUP5 PUSH2 0x460A JUMP JUMPDEST SWAP3 SWAP2 POP POP JUMP JUMPDEST PUSH1 0x0 PUSH1 0x40 MLOAD SWAP1 POP SWAP1 JUMP JUMPDEST PUSH1 0x0 DUP1 REVERT JUMPDEST PUSH1 0x0 DUP1 REVERT JUMPDEST PUSH1 0x0 PUSH32 0xFFFFFFFF00000000000000000000000000000000000000000000000000000000 DUP3 AND SWAP1 POP SWAP2 SWAP1 POP JUMP JUMPDEST PUSH2 0x467D DUP2 PUSH2 0x4648 JUMP JUMPDEST DUP2 EQ PUSH2 0x4688 JUMPI PUSH1 0x0 DUP1 REVERT JUMPDEST POP JUMP JUMPDEST PUSH1 0x0 DUP2 CALLDATALOAD SWAP1 POP PUSH2 0x469A DUP2 PUSH2 0x4674 JUMP JUMPDEST SWAP3 SWAP2 POP POP JUMP JUMPDEST PUSH1 0x0 PUSH1 0x20 DUP3 DUP5 SUB SLT ISZERO PUSH2 0x46B6 JUMPI PUSH2 0x46B5 PUSH2 0x463E JUMP JUMPDEST JUMPDEST PUSH1 0x0 PUSH2 0x46C4 DUP5 DUP3 DUP6 ADD PUSH2 0x468B JUMP JUMPDEST SWAP2 POP POP SWAP3 SWAP2 POP POP JUMP JUMPDEST PUSH1 0x0 DUP2 MLOAD SWAP1 POP SWAP2 SWAP1 POP JUMP JUMPDEST PUSH1 0x0 DUP3 DUP3 MSTORE PUSH1 0x20 DUP3 ADD SWAP1 POP SWAP3 SWAP2 POP POP JUMP JUMPDEST PUSH1 0x0 JUMPDEST DUP4 DUP2 LT ISZERO PUSH2 0x4707 JUMPI DUP1 DUP3 ADD MLOAD DUP2 DUP5 ADD MSTORE PUSH1 0x20 DUP2 ADD SWAP1 POP PUSH2 0x46EC JUMP JUMPDEST PUSH1 0x0 DUP5 DUP5 ADD MSTORE POP POP POP POP JUMP JUMPDEST PUSH1 0x0 PUSH1 0x1F NOT PUSH1 0x1F DUP4 ADD AND SWAP1 POP SWAP2 SWAP1 POP JUMP JUMPDEST PUSH1 0x0 PUSH2 0x472F DUP3 PUSH2 0x46CD JUMP JUMPDEST PUSH2 0x4739 DUP2 DUP6 PUSH2 0x46D8 JUMP JUMPDEST SWAP4 POP PUSH2 0x4749 DUP2 DUP6 PUSH1 0x20 DUP7 ADD PUSH2 0x46E9 JUMP JUMPDEST PUSH2 0x4752 DUP2 PUSH2 0x4713 JUMP JUMPDEST DUP5 ADD SWAP2 POP POP SWAP3 SWAP2 POP POP JUMP JUMPDEST PUSH1 0x0 PUSH1 0x20 DUP3 ADD SWAP1 POP DUP2 DUP2 SUB PUSH1 0x0 DUP4 ADD MSTORE PUSH2 0x4777 DUP2 DUP5 PUSH2 0x4724 JUMP JUMPDEST SWAP1 POP SWAP3 SWAP2 POP POP JUMP JUMPDEST PUSH1 0x0 PUSH20 0xFFFFFFFFFFFFFFFFFFFFFFFFFFFFFFFFFFFFFFFF DUP3 AND SWAP1 POP SWAP2 SWAP1 POP JUMP JUMPDEST PUSH1 0x0 PUSH2 0x47AA DUP3 PUSH2 0x477F JUMP JUMPDEST SWAP1 POP SWAP2 SWAP1 POP JUMP JUMPDEST PUSH2 0x47BA DUP2 PUSH2 0x479F JUMP JUMPDEST DUP2 EQ PUSH2 0x47C5 JUMPI PUSH1 0x0 DUP1 REVERT JUMPDEST POP JUMP JUMPDEST PUSH1 0x0 DUP2 CALLDATALOAD SWAP1 POP PUSH2 0x47D7 DUP2 PUSH2 0x47B1 JUMP JUMPDEST SWAP3 SWAP2 POP POP JUMP JUMPDEST PUSH1 0x0 DUP2 SWAP1 POP SWAP2 SWAP1 POP JUMP JUMPDEST PUSH2 0x47F0 DUP2 PUSH2 0x47DD JUMP JUMPDEST DUP2 EQ PUSH2 0x47FB JUMPI PUSH1 0x0 DUP1 REVERT JUMPDEST POP JUMP JUMPDEST PUSH1 0x0 DUP2 CALLDATALOAD SWAP1 POP PUSH2 0x480D DUP2 PUSH2 0x47E7 JUMP JUMPDEST SWAP3 SWAP2 POP POP JUMP JUMPDEST PUSH1 0x0 DUP1 PUSH1 0x40 DUP4 DUP6 SUB SLT ISZERO PUSH2 0x482A JUMPI PUSH2 0x4829 PUSH2 0x463E JUMP JUMPDEST JUMPDEST PUSH1 0x0 PUSH2 0x4838 DUP6 DUP3 DUP7 ADD PUSH2 0x47C8 JUMP JUMPDEST SWAP3 POP POP PUSH1 0x20 PUSH2 0x4849 DUP6 DUP3 DUP7 ADD PUSH2 0x47FE JUMP JUMPDEST SWAP2 POP POP SWAP3 POP SWAP3 SWAP1 POP JUMP JUMPDEST PUSH2 0x485C DUP2 PUSH2 0x47DD JUMP JUMPDEST DUP3 MSTORE POP POP JUMP JUMPDEST PUSH1 0x0 PUSH1 0x20 DUP3 ADD SWAP1 POP PUSH2 0x4877 PUSH1 0x0 DUP4 ADD DUP5 PUSH2 0x4853 JUMP JUMPDEST SWAP3 SWAP2 POP POP JUMP JUMPDEST PUSH1 0x0 DUP1 REVERT JUMPDEST PUSH32 0x4E487B7100000000000000000000000000000000000000000000000000000000 PUSH1 0x0 MSTORE PUSH1 0x41 PUSH1 0x4 MSTORE PUSH1 0x24 PUSH1 0x0 REVERT JUMPDEST PUSH2 0x48BA DUP3 PUSH2 0x4713 JUMP JUMPDEST DUP2 ADD DUP2 DUP2 LT PUSH8 0xFFFFFFFFFFFFFFFF DUP3 GT OR ISZERO PUSH2 0x48D9 JUMPI PUSH2 0x48D8 PUSH2 0x4882 JUMP JUMPDEST JUMPDEST DUP1 PUSH1 0x40 MSTORE POP POP POP JUMP JUMPDEST PUSH1 0x0 PUSH2 0x48EC PUSH2 0x4634 JUMP JUMPDEST SWAP1 POP PUSH2 0x48F8 DUP3 DUP3 PUSH2 0x48B1 JUMP JUMPDEST SWAP2 SWAP1 POP JUMP JUMPDEST PUSH1 0x0 PUSH8 0xFFFFFFFFFFFFFFFF DUP3 GT ISZERO PUSH2 0x4918 JUMPI PUSH2 0x4917 PUSH2 0x4882 JUMP JUMPDEST JUMPDEST PUSH1 0x20 DUP3 MUL SWAP1 POP PUSH1 0x20 DUP2 ADD SWAP1 POP SWAP2 SWAP1 POP JUMP JUMPDEST PUSH1 0x0 DUP1 REVERT JUMPDEST PUSH1 0x0 PUSH2 0x4941 PUSH2 0x493C DUP5 PUSH2 0x48FD JUMP JUMPDEST PUSH2 0x48E2 JUMP JUMPDEST SWAP1 POP DUP1 DUP4 DUP3 MSTORE PUSH1 0x20 DUP3 ADD SWAP1 POP PUSH1 0x20 DUP5 MUL DUP4 ADD DUP6 DUP2 GT ISZERO PUSH2 0x4964 JUMPI PUSH2 0x4963 PUSH2 0x4929 JUMP JUMPDEST JUMPDEST DUP4 JUMPDEST DUP2 DUP2 LT ISZERO PUSH2 0x498D JUMPI DUP1 PUSH2 0x4979 DUP9 DUP3 PUSH2 0x47C8 JUMP JUMPDEST DUP5 MSTORE PUSH1 0x20 DUP5 ADD SWAP4 POP POP PUSH1 0x20 DUP2 ADD SWAP1 POP PUSH2 0x4966 JUMP JUMPDEST POP POP POP SWAP4 SWAP3 POP POP POP JUMP JUMPDEST PUSH1 0x0 DUP3 PUSH1 0x1F DUP4 ADD SLT PUSH2 0x49AC JUMPI PUSH2 0x49AB PUSH2 0x487D JUMP JUMPDEST JUMPDEST DUP2 CALLDATALOAD PUSH2 0x49BC DUP5 DUP3 PUSH1 0x20 DUP7 ADD PUSH2 0x492E JUMP JUMPDEST SWAP2 POP POP SWAP3 SWAP2 POP POP JUMP JUMPDEST PUSH1 0x0 DUP1 PUSH1 0x40 DUP4 DUP6 SUB SLT ISZERO PUSH2 0x49DC JUMPI PUSH2 0x49DB PUSH2 0x463E JUMP JUMPDEST JUMPDEST PUSH1 0x0 DUP4 ADD CALLDATALOAD PUSH8 0xFFFFFFFFFFFFFFFF DUP2 GT ISZERO PUSH2 0x49FA JUMPI PUSH2 0x49F9 PUSH2 0x4643 JUMP JUMPDEST JUMPDEST PUSH2 0x4A06 DUP6 DUP3 DUP7 ADD PUSH2 0x4997 JUMP JUMPDEST SWAP3 POP POP PUSH1 0x20 PUSH2 0x4A17 DUP6 DUP3 DUP7 ADD PUSH2 0x47FE JUMP JUMPDEST SWAP2 POP POP SWAP3 POP SWAP3 SWAP1 POP JUMP JUMPDEST PUSH1 0x0 PUSH1 0x20 DUP3 DUP5 SUB SLT ISZERO PUSH2 0x4A37 JUMPI PUSH2 0x4A36 PUSH2 0x463E JUMP JUMPDEST JUMPDEST PUSH1 0x0 PUSH2 0x4A45 DUP5 DUP3 DUP6 ADD PUSH2 0x47FE JUMP JUMPDEST SWAP2 POP POP SWAP3 SWAP2 POP POP JUMP JUMPDEST PUSH2 0x4A57 DUP2 PUSH2 0x479F JUMP JUMPDEST DUP3 MSTORE POP POP JUMP JUMPDEST PUSH1 0x0 PUSH1 0x20 DUP3 ADD SWAP1 POP PUSH2 0x4A72 PUSH1 0x0 DUP4 ADD DUP5 PUSH2 0x4A4E JUMP JUMPDEST SWAP3 SWAP2 POP POP JUMP JUMPDEST PUSH1 0x0 DUP1 PUSH1 0x0 PUSH1 0x60 DUP5 DUP7 SUB SLT ISZERO PUSH2 0x4A91 JUMPI PUSH2 0x4A90 PUSH2 0x463E JUMP JUMPDEST JUMPDEST PUSH1 0x0 PUSH2 0x4A9F DUP7 DUP3 DUP8 ADD PUSH2 0x47C8 JUMP JUMPDEST SWAP4 POP POP PUSH1 0x20 PUSH2 0x4AB0 DUP7 DUP3 DUP8 ADD PUSH2 0x47C8 JUMP JUMPDEST SWAP3 POP POP PUSH1 0x40 PUSH2 0x4AC1 DUP7 DUP3 DUP8 ADD PUSH2 0x47FE JUMP JUMPDEST SWAP2 POP POP SWAP3 POP SWAP3 POP SWAP3 JUMP JUMPDEST PUSH1 0x0 DUP2 SWAP1 POP SWAP2 SWAP1 POP JUMP JUMPDEST PUSH2 0x4ADE DUP2 PUSH2 0x4ACB JUMP JUMPDEST DUP2 EQ PUSH2 0x4AE9 JUMPI PUSH1 0x0 DUP1 REVERT JUMPDEST POP JUMP JUMPDEST PUSH1 0x0 DUP2 CALLDATALOAD SWAP1 POP PUSH2 0x4AFB DUP2 PUSH2 0x4AD5 JUMP JUMPDEST SWAP3 SWAP2 POP POP JUMP JUMPDEST PUSH1 0x0 PUSH1 0x20 DUP3 DUP5 SUB SLT ISZERO PUSH2 0x4B17 JUMPI PUSH2 0x4B16 PUSH2 0x463E JUMP JUMPDEST JUMPDEST PUSH1 0x0 PUSH2 0x4B25 DUP5 DUP3 DUP6 ADD PUSH2 0x4AEC JUMP JUMPDEST SWAP2 POP POP SWAP3 SWAP2 POP POP JUMP JUMPDEST PUSH2 0x4B37 DUP2 PUSH2 0x4ACB JUMP JUMPDEST DUP3 MSTORE POP POP JUMP JUMPDEST PUSH1 0x0 PUSH1 0x20 DUP3 ADD SWAP1 POP PUSH2 0x4B52 PUSH1 0x0 DUP4 ADD DUP5 PUSH2 0x4B2E JUMP JUMPDEST SWAP3 SWAP2 POP POP JUMP JUMPDEST PUSH1 0x0 DUP1 REVERT JUMPDEST PUSH1 0x0 PUSH8 0xFFFFFFFFFFFFFFFF DUP3 GT ISZERO PUSH2 0x4B78 JUMPI PUSH2 0x4B77 PUSH2 0x4882 JUMP JUMPDEST JUMPDEST PUSH2 0x4B81 DUP3 PUSH2 0x4713 JUMP JUMPDEST SWAP1 POP PUSH1 0x20 DUP2 ADD SWAP1 POP SWAP2 SWAP1 POP JUMP JUMPDEST DUP3 DUP2 DUP4 CALLDATACOPY PUSH1 0x0 DUP4 DUP4 ADD MSTORE POP POP POP JUMP JUMPDEST PUSH1 0x0 PUSH2 0x4BB0 PUSH2 0x4BAB DUP5 PUSH2 0x4B5D JUMP JUMPDEST PUSH2 0x48E2 JUMP JUMPDEST SWAP1 POP DUP3 DUP2 MSTORE PUSH1 0x20 DUP2 ADD DUP5 DUP5 DUP5 ADD GT ISZERO PUSH2 0x4BCC JUMPI PUSH2 0x4BCB PUSH2 0x4B58 JUMP JUMPDEST JUMPDEST PUSH2 0x4BD7 DUP5 DUP3 DUP6 PUSH2 0x4B8E JUMP JUMPDEST POP SWAP4 SWAP3 POP POP POP JUMP JUMPDEST PUSH1 0x0 DUP3 PUSH1 0x1F DUP4 ADD SLT PUSH2 0x4BF4 JUMPI PUSH2 0x4BF3 PUSH2 0x487D JUMP JUMPDEST JUMPDEST DUP2 CALLDATALOAD PUSH2 0x4C04 DUP5 DUP3 PUSH1 0x20 DUP7 ADD PUSH2 0x4B9D JUMP JUMPDEST SWAP2 POP POP SWAP3 SWAP2 POP POP JUMP JUMPDEST PUSH2 0x4C16 DUP2 PUSH2 0x45FE JUMP JUMPDEST DUP2 EQ PUSH2 0x4C21 JUMPI PUSH1 0x0 DUP1 REVERT JUMPDEST POP JUMP JUMPDEST PUSH1 0x0 DUP2 CALLDATALOAD SWAP1 POP PUSH2 0x4C33 DUP2 PUSH2 0x4C0D JUMP JUMPDEST SWAP3 SWAP2 POP POP JUMP JUMPDEST PUSH1 0x0 DUP1 PUSH1 0x0 DUP1 PUSH1 0x0 DUP1 PUSH1 0x0 PUSH1 0xE0 DUP9 DUP11 SUB SLT ISZERO PUSH2 0x4C58 JUMPI PUSH2 0x4C57 PUSH2 0x463E JUMP JUMPDEST JUMPDEST PUSH1 0x0 DUP9 ADD CALLDATALOAD PUSH8 0xFFFFFFFFFFFFFFFF DUP2 GT ISZERO PUSH2 0x4C76 JUMPI PUSH2 0x4C75 PUSH2 0x4643 JUMP JUMPDEST JUMPDEST PUSH2 0x4C82 DUP11 DUP3 DUP12 ADD PUSH2 0x4BDF JUMP JUMPDEST SWAP8 POP POP PUSH1 0x20 PUSH2 0x4C93 DUP11 DUP3 DUP12 ADD PUSH2 0x47FE JUMP JUMPDEST SWAP7 POP POP PUSH1 0x40 PUSH2 0x4CA4 DUP11 DUP3 DUP12 ADD PUSH2 0x47FE JUMP JUMPDEST SWAP6 POP POP PUSH1 0x60 PUSH2 0x4CB5 DUP11 DUP3 DUP12 ADD PUSH2 0x47FE JUMP JUMPDEST SWAP5 POP POP PUSH1 0x80 PUSH2 0x4CC6 DUP11 DUP3 DUP12 ADD PUSH2 0x4C24 JUMP JUMPDEST SWAP4 POP POP PUSH1 0xA0 DUP9 ADD CALLDATALOAD PUSH8 0xFFFFFFFFFFFFFFFF DUP2 GT ISZERO PUSH2 0x4CE7 JUMPI PUSH2 0x4CE6 PUSH2 0x4643 JUMP JUMPDEST JUMPDEST PUSH2 0x4CF3 DUP11 DUP3 DUP12 ADD PUSH2 0x4BDF JUMP JUMPDEST SWAP3 POP POP PUSH1 0xC0 DUP9 ADD CALLDATALOAD PUSH8 0xFFFFFFFFFFFFFFFF DUP2 GT ISZERO PUSH2 0x4D14 JUMPI PUSH2 0x4D13 PUSH2 0x4643 JUMP JUMPDEST JUMPDEST PUSH2 0x4D20 DUP11 DUP3 DUP12 ADD PUSH2 0x4BDF JUMP JUMPDEST SWAP2 POP POP SWAP3 SWAP6 SWAP9 SWAP2 SWAP5 SWAP8 POP SWAP3 SWAP6 POP JUMP JUMPDEST PUSH1 0x5 DUP2 LT PUSH2 0x4D3C JUMPI PUSH1 0x0 DUP1 REVERT JUMPDEST POP JUMP JUMPDEST PUSH1 0x0 DUP2 CALLDATALOAD SWAP1 POP PUSH2 0x4D4E DUP2 PUSH2 0x4D2F JUMP JUMPDEST SWAP3 SWAP2 POP POP JUMP JUMPDEST PUSH1 0x0 PUSH1 0x20 DUP3 DUP5 SUB SLT ISZERO PUSH2 0x4D6A JUMPI PUSH2 0x4D69 PUSH2 0x463E JUMP JUMPDEST JUMPDEST PUSH1 0x0 PUSH2 0x4D78 DUP5 DUP3 DUP6 ADD PUSH2 0x4D3F JUMP JUMPDEST SWAP2 POP POP SWAP3 SWAP2 POP POP JUMP JUMPDEST PUSH1 0x0 DUP3 DUP3 MSTORE PUSH1 0x20 DUP3 ADD SWAP1 POP SWAP3 SWAP2 POP POP JUMP JUMPDEST PUSH1 0x0 PUSH2 0x4D9D DUP3 PUSH2 0x46CD JUMP JUMPDEST PUSH2 0x4DA7 DUP2 DUP6 PUSH2 0x4D81 JUMP JUMPDEST SWAP4 POP PUSH2 0x4DB7 DUP2 DUP6 PUSH1 0x20 DUP7 ADD PUSH2 0x46E9 JUMP JUMPDEST PUSH2 0x4DC0 DUP2 PUSH2 0x4713 JUMP JUMPDEST DUP5 ADD SWAP2 POP POP SWAP3 SWAP2 POP POP JUMP JUMPDEST PUSH2 0x4DD4 DUP2 PUSH2 0x47DD JUMP JUMPDEST DUP3 MSTORE POP POP JUMP JUMPDEST PUSH1 0x0 PUSH1 0x60 DUP4 ADD PUSH1 0x0 DUP4 ADD MLOAD DUP5 DUP3 SUB PUSH1 0x0 DUP7 ADD MSTORE PUSH2 0x4DF7 DUP3 DUP3 PUSH2 0x4D92 JUMP JUMPDEST SWAP2 POP POP PUSH1 0x20 DUP4 ADD MLOAD DUP5 DUP3 SUB PUSH1 0x20 DUP7 ADD MSTORE PUSH2 0x4E11 DUP3 DUP3 PUSH2 0x4D92 JUMP JUMPDEST SWAP2 POP POP PUSH1 0x40 DUP4 ADD MLOAD PUSH2 0x4E26 PUSH1 0x40 DUP7 ADD DUP3 PUSH2 0x4DCB JUMP JUMPDEST POP DUP1 SWAP2 POP POP SWAP3 SWAP2 POP POP JUMP JUMPDEST PUSH1 0x0 PUSH1 0x20 DUP3 ADD SWAP1 POP DUP2 DUP2 SUB PUSH1 0x0 DUP4 ADD MSTORE PUSH2 0x4E4B DUP2 DUP5 PUSH2 0x4DDA JUMP JUMPDEST SWAP1 POP SWAP3 SWAP2 POP POP JUMP JUMPDEST PUSH1 0x0 DUP1 PUSH1 0x40 DUP4 DUP6 SUB SLT ISZERO PUSH2 0x4E6A JUMPI PUSH2 0x4E69 PUSH2 0x463E JUMP JUMPDEST JUMPDEST PUSH1 0x0 PUSH2 0x4E78 DUP6 DUP3 DUP7 ADD PUSH2 0x4AEC JUMP JUMPDEST SWAP3 POP POP PUSH1 0x20 PUSH2 0x4E89 DUP6 DUP3 DUP7 ADD PUSH2 0x47C8 JUMP JUMPDEST SWAP2 POP POP SWAP3 POP SWAP3 SWAP1 POP JUMP JUMPDEST PUSH1 0x0 PUSH1 0x20 DUP3 DUP5 SUB SLT ISZERO PUSH2 0x4EA9 JUMPI PUSH2 0x4EA8 PUSH2 0x463E JUMP JUMPDEST JUMPDEST PUSH1 0x0 PUSH2 0x4EB7 DUP5 DUP3 DUP6 ADD PUSH2 0x47C8 JUMP JUMPDEST SWAP2 POP POP SWAP3 SWAP2 POP POP JUMP JUMPDEST PUSH1 0x0 PUSH1 0xFF DUP3 AND SWAP1 POP SWAP2 SWAP1 POP JUMP JUMPDEST PUSH2 0x4ED6 DUP2 PUSH2 0x4EC0 JUMP JUMPDEST DUP3 MSTORE POP POP JUMP JUMPDEST PUSH1 0x0 PUSH1 0x20 DUP3 ADD SWAP1 POP PUSH2 0x4EF1 PUSH1 0x0 DUP4 ADD DUP5 PUSH2 0x4ECD JUMP JUMPDEST SWAP3 SWAP2 POP POP JUMP JUMPDEST PUSH1 0x0 DUP2 MLOAD SWAP1 POP SWAP2 SWAP1 POP JUMP JUMPDEST PUSH1 0x0 DUP3 DUP3 MSTORE PUSH1 0x20 DUP3 ADD SWAP1 POP SWAP3 SWAP2 POP POP JUMP JUMPDEST PUSH1 0x0 DUP2 SWAP1 POP PUSH1 0x20 DUP3 ADD SWAP1 POP SWAP2 SWAP1 POP JUMP JUMPDEST PUSH2 0x4F2C DUP2 PUSH2 0x479F JUMP JUMPDEST DUP3 MSTORE POP POP JUMP JUMPDEST PUSH1 0x0 PUSH2 0x4F3E DUP4 DUP4 PUSH2 0x4F23 JUMP JUMPDEST PUSH1 0x20 DUP4 ADD SWAP1 POP SWAP3 SWAP2 POP POP JUMP JUMPDEST PUSH1 0x0 PUSH1 0x20 DUP3 ADD SWAP1 POP SWAP2 SWAP1 POP JUMP JUMPDEST PUSH1 0x0 PUSH2 0x4F62 DUP3 PUSH2 0x4EF7 JUMP JUMPDEST PUSH2 0x4F6C DUP2 DUP6 PUSH2 0x4F02 JUMP JUMPDEST SWAP4 POP PUSH2 0x4F77 DUP4 PUSH2 0x4F13 JUMP JUMPDEST DUP1 PUSH1 0x0 JUMPDEST DUP4 DUP2 LT ISZERO PUSH2 0x4FA8 JUMPI DUP2 MLOAD PUSH2 0x4F8F DUP9 DUP3 PUSH2 0x4F32 JUMP JUMPDEST SWAP8 POP PUSH2 0x4F9A DUP4 PUSH2 0x4F4A JUMP JUMPDEST SWAP3 POP POP PUSH1 0x1 DUP2 ADD SWAP1 POP PUSH2 0x4F7B JUMP JUMPDEST POP DUP6 SWAP4 POP POP POP POP SWAP3 SWAP2 POP POP JUMP JUMPDEST PUSH1 0x0 PUSH1 0x20 DUP3 ADD SWAP1 POP DUP2 DUP2 SUB PUSH1 0x0 DUP4 ADD MSTORE PUSH2 0x4FCF DUP2 DUP5 PUSH2 0x4F57 JUMP JUMPDEST SWAP1 POP SWAP3 SWAP2 POP POP JUMP JUMPDEST PUSH1 0x0 DUP1 PUSH1 0x40 DUP4 DUP6 SUB SLT ISZERO PUSH2 0x4FEE JUMPI PUSH2 0x4FED PUSH2 0x463E JUMP JUMPDEST JUMPDEST PUSH1 0x0 PUSH2 0x4FFC DUP6 DUP3 DUP7 ADD PUSH2 0x47FE JUMP JUMPDEST SWAP3 POP POP PUSH1 0x20 DUP4 ADD CALLDATALOAD PUSH8 0xFFFFFFFFFFFFFFFF DUP2 GT ISZERO PUSH2 0x501D JUMPI PUSH2 0x501C PUSH2 0x4643 JUMP JUMPDEST JUMPDEST PUSH2 0x5029 DUP6 DUP3 DUP7 ADD PUSH2 0x4997 JUMP JUMPDEST SWAP2 POP POP SWAP3 POP SWAP3 SWAP1 POP JUMP JUMPDEST PUSH1 0x0 DUP1 PUSH1 0x40 DUP4 DUP6 SUB SLT ISZERO PUSH2 0x504A JUMPI PUSH2 0x5049 PUSH2 0x463E JUMP JUMPDEST JUMPDEST PUSH1 0x0 PUSH2 0x5058 DUP6 DUP3 DUP7 ADD PUSH2 0x47C8 JUMP JUMPDEST SWAP3 POP POP PUSH1 0x20 PUSH2 0x5069 DUP6 DUP3 DUP7 ADD PUSH2 0x4D3F JUMP JUMPDEST SWAP2 POP POP SWAP3 POP SWAP3 SWAP1 POP JUMP JUMPDEST PUSH1 0x0 DUP2 MLOAD SWAP1 POP SWAP2 SWAP1 POP JUMP JUMPDEST PUSH1 0x0 DUP3 DUP3 MSTORE PUSH1 0x20 DUP3 ADD SWAP1 POP SWAP3 SWAP2 POP POP JUMP JUMPDEST PUSH1 0x0 PUSH2 0x509A DUP3 PUSH2 0x5073 JUMP JUMPDEST PUSH2 0x50A4 DUP2 DUP6 PUSH2 0x507E JUMP JUMPDEST SWAP4 POP PUSH2 0x50B4 DUP2 DUP6 PUSH1 0x20 DUP7 ADD PUSH2 0x46E9 JUMP JUMPDEST PUSH2 0x50BD DUP2 PUSH2 0x4713 JUMP JUMPDEST DUP5 ADD SWAP2 POP POP SWAP3 SWAP2 POP POP JUMP JUMPDEST PUSH1 0x0 PUSH1 0xC0 DUP3 ADD SWAP1 POP PUSH2 0x50DD PUSH1 0x0 DUP4 ADD DUP10 PUSH2 0x4853 JUMP JUMPDEST PUSH2 0x50EA PUSH1 0x20 DUP4 ADD DUP9 PUSH2 0x4A4E JUMP JUMPDEST PUSH2 0x50F7 PUSH1 0x40 DUP4 ADD DUP8 PUSH2 0x4A4E JUMP JUMPDEST DUP2 DUP2 SUB PUSH1 0x60 DUP4 ADD MSTORE PUSH2 0x5109 DUP2 DUP7 PUSH2 0x508F JUMP JUMPDEST SWAP1 POP PUSH2 0x5118 PUSH1 0x80 DUP4 ADD DUP6 PUSH2 0x4853 JUMP JUMPDEST PUSH2 0x5125 PUSH1 0xA0 DUP4 ADD DUP5 PUSH2 0x460A JUMP JUMPDEST SWAP8 SWAP7 POP POP POP POP POP POP POP JUMP JUMPDEST PUSH1 0x0 PUSH2 0x160 DUP3 ADD SWAP1 POP PUSH2 0x5146 PUSH1 0x0 DUP4 ADD DUP15 PUSH2 0x4853 JUMP JUMPDEST DUP2 DUP2 SUB PUSH1 0x20 DUP4 ADD MSTORE PUSH2 0x5158 DUP2 DUP14 PUSH2 0x4724 JUMP JUMPDEST SWAP1 POP PUSH2 0x5167 PUSH1 0x40 DUP4 ADD DUP13 PUSH2 0x4A4E JUMP JUMPDEST PUSH2 0x5174 PUSH1 0x60 DUP4 ADD DUP12 PUSH2 0x4853 JUMP JUMPDEST PUSH2 0x5181 PUSH1 0x80 DUP4 ADD DUP11 PUSH2 0x4853 JUMP JUMPDEST PUSH2 0x518E PUSH1 0xA0 DUP4 ADD DUP10 PUSH2 0x4853 JUMP JUMPDEST PUSH2 0x519B PUSH1 0xC0 DUP4 ADD DUP9 PUSH2 0x4853 JUMP JUMPDEST PUSH2 0x51A8 PUSH1 0xE0 DUP4 ADD DUP8 PUSH2 0x460A JUMP JUMPDEST PUSH2 0x51B6 PUSH2 0x100 DUP4 ADD DUP7 PUSH2 0x460A JUMP JUMPDEST DUP2 DUP2 SUB PUSH2 0x120 DUP4 ADD MSTORE PUSH2 0x51C9 DUP2 DUP6 PUSH2 0x4724 JUMP JUMPDEST SWAP1 POP DUP2 DUP2 SUB PUSH2 0x140 DUP4 ADD MSTORE PUSH2 0x51DE DUP2 DUP5 PUSH2 0x4724 JUMP JUMPDEST SWAP1 POP SWAP13 SWAP12 POP POP POP POP POP POP POP POP POP POP POP POP JUMP JUMPDEST PUSH1 0x0 PUSH1 0x60 DUP3 ADD SWAP1 POP DUP2 DUP2 SUB PUSH1 0x0 DUP4 ADD MSTORE PUSH2 0x520A DUP2 DUP7 PUSH2 0x4724 JUMP JUMPDEST SWAP1 POP DUP2 DUP2 SUB PUSH1 0x20 DUP4 ADD MSTORE PUSH2 0x521E DUP2 DUP6 PUSH2 0x4724 JUMP JUMPDEST SWAP1 POP PUSH2 0x522D PUSH1 0x40 DUP4 ADD DUP5 PUSH2 0x4853 JUMP JUMPDEST SWAP5 SWAP4 POP POP POP POP JUMP JUMPDEST PUSH32 0x4E487B7100000000000000000000000000000000000000000000000000000000 PUSH1 0x0 MSTORE PUSH1 0x21 PUSH1 0x4 MSTORE PUSH1 0x24 PUSH1 0x0 REVERT JUMPDEST PUSH1 0x5 DUP2 LT PUSH2 0x5275 JUMPI PUSH2 0x5274 PUSH2 0x5235 JUMP JUMPDEST JUMPDEST POP JUMP JUMPDEST PUSH1 0x0 DUP2 SWAP1 POP PUSH2 0x5286 DUP3 PUSH2 0x5264 JUMP JUMPDEST SWAP2 SWAP1 POP JUMP JUMPDEST PUSH1 0x0 PUSH2 0x5296 DUP3 PUSH2 0x5278 JUMP JUMPDEST SWAP1 POP SWAP2 SWAP1 POP JUMP JUMPDEST PUSH2 0x52A6 DUP2 PUSH2 0x528B JUMP JUMPDEST DUP3 MSTORE POP POP JUMP JUMPDEST PUSH1 0x0 PUSH1 0xA0 DUP3 ADD SWAP1 POP PUSH2 0x52C1 PUSH1 0x0 DUP4 ADD DUP9 PUSH2 0x529D JUMP JUMPDEST DUP2 DUP2 SUB PUSH1 0x20 DUP4 ADD MSTORE PUSH2 0x52D3 DUP2 DUP8 PUSH2 0x4724 JUMP JUMPDEST SWAP1 POP DUP2 DUP2 SUB PUSH1 0x40 DUP4 ADD MSTORE PUSH2 0x52E7 DUP2 DUP7 PUSH2 0x4724 JUMP JUMPDEST SWAP1 POP PUSH2 0x52F6 PUSH1 0x60 DUP4 ADD DUP6 PUSH2 0x4853 JUMP JUMPDEST PUSH2 0x5303 PUSH1 0x80 DUP4 ADD DUP5 PUSH2 0x4853 JUMP JUMPDEST SWAP7 SWAP6 POP POP POP POP POP POP JUMP JUMPDEST PUSH1 0x0 PUSH1 0x60 DUP3 ADD SWAP1 POP PUSH2 0x5322 PUSH1 0x0 DUP4 ADD DUP7 PUSH2 0x4853 JUMP JUMPDEST PUSH2 0x532F PUSH1 0x20 DUP4 ADD DUP6 PUSH2 0x4853 JUMP JUMPDEST PUSH2 0x533C PUSH1 0x40 DUP4 ADD DUP5 PUSH2 0x529D JUMP JUMPDEST SWAP5 SWAP4 POP POP POP POP JUMP JUMPDEST PUSH1 0x0 PUSH1 0x20 DUP3 ADD SWAP1 POP PUSH2 0x5359 PUSH1 0x0 DUP4 ADD DUP5 PUSH2 0x529D JUMP JUMPDEST SWAP3 SWAP2 POP POP JUMP JUMPDEST PUSH1 0x0 DUP2 MLOAD SWAP1 POP SWAP2 SWAP1 POP JUMP JUMPDEST PUSH1 0x0 DUP3 DUP3 MSTORE PUSH1 0x20 DUP3 ADD SWAP1 POP SWAP3 SWAP2 POP POP JUMP JUMPDEST PUSH1 0x0 DUP2 SWAP1 POP PUSH1 0x20 DUP3 ADD SWAP1 POP SWAP2 SWAP1 POP JUMP JUMPDEST PUSH2 0x5394 DUP2 PUSH2 0x45FE JUMP JUMPDEST DUP3 MSTORE POP POP JUMP JUMPDEST PUSH1 0x0 PUSH2 0x160 DUP4 ADD PUSH1 0x0 DUP4 ADD MLOAD PUSH2 0x53B3 PUSH1 0x0 DUP7 ADD DUP3 PUSH2 0x4DCB JUMP JUMPDEST POP PUSH1 0x20 DUP4 ADD MLOAD DUP5 DUP3 SUB PUSH1 0x20 DUP7 ADD MSTORE PUSH2 0x53CB DUP3 DUP3 PUSH2 0x4D92 JUMP JUMPDEST SWAP2 POP POP PUSH1 0x40 DUP4 ADD MLOAD PUSH2 0x53E0 PUSH1 0x40 DUP7 ADD DUP3 PUSH2 0x4F23 JUMP JUMPDEST POP PUSH1 0x60 DUP4 ADD MLOAD PUSH2 0x53F3 PUSH1 0x60 DUP7 ADD DUP3 PUSH2 0x4DCB JUMP JUMPDEST POP PUSH1 0x80 DUP4 ADD MLOAD PUSH2 0x5406 PUSH1 0x80 DUP7 ADD DUP3 PUSH2 0x4DCB JUMP JUMPDEST POP PUSH1 0xA0 DUP4 ADD MLOAD PUSH2 0x5419 PUSH1 0xA0 DUP7 ADD DUP3 PUSH2 0x4DCB JUMP JUMPDEST POP PUSH1 0xC0 DUP4 ADD MLOAD PUSH2 0x542C PUSH1 0xC0 DUP7 ADD DUP3 PUSH2 0x4DCB JUMP JUMPDEST POP PUSH1 0xE0 DUP4 ADD MLOAD PUSH2 0x543F PUSH1 0xE0 DUP7 ADD DUP3 PUSH2 0x538B JUMP JUMPDEST POP PUSH2 0x100 DUP4 ADD MLOAD PUSH2 0x5454 PUSH2 0x100 DUP7 ADD DUP3 PUSH2 0x538B JUMP JUMPDEST POP PUSH2 0x120 DUP4 ADD MLOAD DUP5 DUP3 SUB PUSH2 0x120 DUP7 ADD MSTORE PUSH2 0x546E DUP3 DUP3 PUSH2 0x4D92 JUMP JUMPDEST SWAP2 POP POP PUSH2 0x140 DUP4 ADD MLOAD DUP5 DUP3 SUB PUSH2 0x140 DUP7 ADD MSTORE PUSH2 0x548A DUP3 DUP3 PUSH2 0x4D92 JUMP JUMPDEST SWAP2 POP POP DUP1 SWAP2 POP POP SWAP3 SWAP2 POP POP JUMP JUMPDEST PUSH1 0x0 PUSH2 0x54A3 DUP4 DUP4 PUSH2 0x539A JUMP JUMPDEST SWAP1 POP SWAP3 SWAP2 POP POP JUMP JUMPDEST PUSH1 0x0 PUSH1 0x20 DUP3 ADD SWAP1 POP SWAP2 SWAP1 POP JUMP JUMPDEST PUSH1 0x0 PUSH2 0x54C3 DUP3 PUSH2 0x535F JUMP JUMPDEST PUSH2 0x54CD DUP2 DUP6 PUSH2 0x536A JUMP JUMPDEST SWAP4 POP DUP4 PUSH1 0x20 DUP3 MUL DUP6 ADD PUSH2 0x54DF DUP6 PUSH2 0x537B JUMP JUMPDEST DUP1 PUSH1 0x0 JUMPDEST DUP6 DUP2 LT ISZERO PUSH2 0x551B JUMPI DUP5 DUP5 SUB DUP10 MSTORE DUP2 MLOAD PUSH2 0x54FC DUP6 DUP3 PUSH2 0x5497 JUMP JUMPDEST SWAP5 POP PUSH2 0x5507 DUP4 PUSH2 0x54AB JUMP JUMPDEST SWAP3 POP PUSH1 0x20 DUP11 ADD SWAP10 POP POP PUSH1 0x1 DUP2 ADD SWAP1 POP PUSH2 0x54E3 JUMP JUMPDEST POP DUP3 SWAP8 POP DUP8 SWAP6 POP POP POP POP POP POP SWAP3 SWAP2 POP POP JUMP JUMPDEST PUSH1 0x0 PUSH1 0x20 DUP3 ADD SWAP1 POP DUP2 DUP2 SUB PUSH1 0x0 DUP4 ADD MSTORE PUSH2 0x5547 DUP2 DUP5 PUSH2 0x54B8 JUMP JUMPDEST SWAP1 POP SWAP3 SWAP2 POP POP JUMP JUMPDEST PUSH1 0x0 DUP1 PUSH1 0x40 DUP4 DUP6 SUB SLT ISZERO PUSH2 0x5566 JUMPI PUSH2 0x5565 PUSH2 0x463E JUMP JUMPDEST JUMPDEST PUSH1 0x0 PUSH2 0x5574 DUP6 DUP3 DUP7 ADD PUSH2 0x47C8 JUMP JUMPDEST SWAP3 POP POP PUSH1 0x20 PUSH2 0x5585 DUP6 DUP3 DUP7 ADD PUSH2 0x47C8 JUMP JUMPDEST SWAP2 POP POP SWAP3 POP SWAP3 SWAP1 POP JUMP JUMPDEST PUSH32 0x416C72656164792061206D656D62657221000000000000000000000000000000 PUSH1 0x0 DUP3 ADD MSTORE POP JUMP JUMPDEST PUSH1 0x0 PUSH2 0x55C5 PUSH1 0x11 DUP4 PUSH2 0x46D8 JUMP JUMPDEST SWAP2 POP PUSH2 0x55D0 DUP3 PUSH2 0x558F JUMP JUMPDEST PUSH1 0x20 DUP3 ADD SWAP1 POP SWAP2 SWAP1 POP JUMP JUMPDEST PUSH1 0x0 PUSH1 0x20 DUP3 ADD SWAP1 POP DUP2 DUP2 SUB PUSH1 0x0 DUP4 ADD MSTORE PUSH2 0x55F4 DUP2 PUSH2 0x55B8 JUMP JUMPDEST SWAP1 POP SWAP2 SWAP1 POP JUMP JUMPDEST PUSH32 0x4E487B7100000000000000000000000000000000000000000000000000000000 PUSH1 0x0 MSTORE PUSH1 0x22 PUSH1 0x4 MSTORE PUSH1 0x24 PUSH1 0x0 REVERT JUMPDEST PUSH1 0x0 PUSH1 0x2 DUP3 DIV SWAP1 POP PUSH1 0x1 DUP3 AND DUP1 PUSH2 0x5642 JUMPI PUSH1 0x7F DUP3 AND SWAP2 POP JUMPDEST PUSH1 0x20 DUP3 LT DUP2 SUB PUSH2 0x5655 JUMPI PUSH2 0x5654 PUSH2 0x55FB JUMP JUMPDEST JUMPDEST POP SWAP2 SWAP1 POP JUMP JUMPDEST PUSH32 0x4E487B7100000000000000000000000000000000000000000000000000000000 PUSH1 0x0 MSTORE PUSH1 0x32 PUSH1 0x4 MSTORE PUSH1 0x24 PUSH1 0x0 REVERT JUMPDEST PUSH32 0x4E6F20656C696769626C65206164647265737365730000000000000000000000 PUSH1 0x0 DUP3 ADD MSTORE POP JUMP JUMPDEST PUSH1 0x0 PUSH2 0x56C0 PUSH1 0x15 DUP4 PUSH2 0x46D8 JUMP JUMPDEST SWAP2 POP PUSH2 0x56CB DUP3 PUSH2 0x568A JUMP JUMPDEST PUSH1 0x20 DUP3 ADD SWAP1 POP SWAP2 SWAP1 POP JUMP JUMPDEST PUSH1 0x0 PUSH1 0x20 DUP3 ADD SWAP1 POP DUP2 DUP2 SUB PUSH1 0x0 DUP4 ADD MSTORE PUSH2 0x56EF DUP2 PUSH2 0x56B3 JUMP JUMPDEST SWAP1 POP SWAP2 SWAP1 POP JUMP JUMPDEST PUSH1 0x0 PUSH1 0x40 DUP3 ADD SWAP1 POP DUP2 DUP2 SUB PUSH1 0x0 DUP4 ADD MSTORE PUSH2 0x5710 DUP2 DUP6 PUSH2 0x4F57 JUMP JUMPDEST SWAP1 POP PUSH2 0x571F PUSH1 0x20 DUP4 ADD DUP5 PUSH2 0x4853 JUMP JUMPDEST SWAP4 SWAP3 POP POP POP JUMP JUMPDEST PUSH32 0x4E487B7100000000000000000000000000000000000000000000000000000000 PUSH1 0x0 MSTORE PUSH1 0x11 PUSH1 0x4 MSTORE PUSH1 0x24 PUSH1 0x0 REVERT JUMPDEST PUSH1 0x0 PUSH2 0x5760 DUP3 PUSH2 0x47DD JUMP JUMPDEST SWAP2 POP PUSH32 0xFFFFFFFFFFFFFFFFFFFFFFFFFFFFFFFFFFFFFFFFFFFFFFFFFFFFFFFFFFFFFFFF DUP3 SUB PUSH2 0x5792 JUMPI PUSH2 0x5791 PUSH2 0x5726 JUMP JUMPDEST JUMPDEST PUSH1 0x1 DUP3 ADD SWAP1 POP SWAP2 SWAP1 POP JUMP JUMPDEST PUSH1 0x0 DUP2 SWAP1 POP DUP2 PUSH1 0x0 MSTORE PUSH1 0x20 PUSH1 0x0 KECCAK256 SWAP1 POP SWAP2 SWAP1 POP JUMP JUMPDEST PUSH1 0x0 PUSH1 0x20 PUSH1 0x1F DUP4 ADD DIV SWAP1 POP SWAP2 SWAP1 POP JUMP JUMPDEST PUSH1 0x0 DUP3 DUP3 SHL SWAP1 POP SWAP3 SWAP2 POP POP JUMP JUMPDEST PUSH1 0x0 PUSH1 0x8 DUP4 MUL PUSH2 0x57FF PUSH32 0xFFFFFFFFFFFFFFFFFFFFFFFFFFFFFFFFFFFFFFFFFFFFFFFFFFFFFFFFFFFFFFFF DUP3 PUSH2 0x57C2 JUMP JUMPDEST PUSH2 0x5809 DUP7 DUP4 PUSH2 0x57C2 JUMP JUMPDEST SWAP6 POP DUP1 NOT DUP5 AND SWAP4 POP DUP1 DUP7 AND DUP5 OR SWAP3 POP POP POP SWAP4 SWAP3 POP POP POP JUMP JUMPDEST PUSH1 0x0 DUP2 SWAP1 POP SWAP2 SWAP1 POP JUMP JUMPDEST PUSH1 0x0 PUSH2 0x5846 PUSH2 0x5841 PUSH2 0x583C DUP5 PUSH2 0x47DD JUMP JUMPDEST PUSH2 0x5821 JUMP JUMPDEST PUSH2 0x47DD JUMP JUMPDEST SWAP1 POP SWAP2 SWAP1 POP JUMP JUMPDEST PUSH1 0x0 DUP2 SWAP1 POP SWAP2 SWAP1 POP JUMP JUMPDEST PUSH2 0x5860 DUP4 PUSH2 0x582B JUMP JUMPDEST PUSH2 0x5874 PUSH2 0x586C DUP3 PUSH2 0x584D JUMP JUMPDEST DUP5 DUP5 SLOAD PUSH2 0x57CF JUMP JUMPDEST DUP3 SSTORE POP POP POP POP JUMP JUMPDEST PUSH1 0x0 SWAP1 JUMP JUMPDEST PUSH2 0x5889 PUSH2 0x587C JUMP JUMPDEST PUSH2 0x5894 DUP2 DUP5 DUP5 PUSH2 0x5857 JUMP JUMPDEST POP POP POP JUMP JUMPDEST JUMPDEST DUP2 DUP2 LT ISZERO PUSH2 0x58B8 JUMPI PUSH2 0x58AD PUSH1 0x0 DUP3 PUSH2 0x5881 JUMP JUMPDEST PUSH1 0x1 DUP2 ADD SWAP1 POP PUSH2 0x589A JUMP JUMPDEST POP POP JUMP JUMPDEST PUSH1 0x1F DUP3 GT ISZERO PUSH2 0x58FD JUMPI PUSH2 0x58CE DUP2 PUSH2 0x579D JUMP JUMPDEST PUSH2 0x58D7 DUP5 PUSH2 0x57B2 JUMP JUMPDEST DUP2 ADD PUSH1 0x20 DUP6 LT ISZERO PUSH2 0x58E6 JUMPI DUP2 SWAP1 POP JUMPDEST PUSH2 0x58FA PUSH2 0x58F2 DUP6 PUSH2 0x57B2 JUMP JUMPDEST DUP4 ADD DUP3 PUSH2 0x5899 JUMP JUMPDEST POP POP JUMPDEST POP POP POP JUMP JUMPDEST PUSH1 0x0 DUP3 DUP3 SHR SWAP1 POP SWAP3 SWAP2 POP POP JUMP JUMPDEST PUSH1 0x0 PUSH2 0x5920 PUSH1 0x0 NOT DUP5 PUSH1 0x8 MUL PUSH2 0x5902 JUMP JUMPDEST NOT DUP1 DUP4 AND SWAP2 POP POP SWAP3 SWAP2 POP POP JUMP JUMPDEST PUSH1 0x0 PUSH2 0x5939 DUP4 DUP4 PUSH2 0x590F JUMP JUMPDEST SWAP2 POP DUP3 PUSH1 0x2 MUL DUP3 OR SWAP1 POP SWAP3 SWAP2 POP POP JUMP JUMPDEST PUSH2 0x5952 DUP3 PUSH2 0x46CD JUMP JUMPDEST PUSH8 0xFFFFFFFFFFFFFFFF DUP2 GT ISZERO PUSH2 0x596B JUMPI PUSH2 0x596A PUSH2 0x4882 JUMP JUMPDEST JUMPDEST PUSH2 0x5975 DUP3 SLOAD PUSH2 0x562A JUMP JUMPDEST PUSH2 0x5980 DUP3 DUP3 DUP6 PUSH2 0x58BC JUMP JUMPDEST PUSH1 0x0 PUSH1 0x20 SWAP1 POP PUSH1 0x1F DUP4 GT PUSH1 0x1 DUP2 EQ PUSH2 0x59B3 JUMPI PUSH1 0x0 DUP5 ISZERO PUSH2 0x59A1 JUMPI DUP3 DUP8 ADD MLOAD SWAP1 POP JUMPDEST PUSH2 0x59AB DUP6 DUP3 PUSH2 0x592D JUMP JUMPDEST DUP7 SSTORE POP PUSH2 0x5A13 JUMP JUMPDEST PUSH1 0x1F NOT DUP5 AND PUSH2 0x59C1 DUP7 PUSH2 0x579D JUMP JUMPDEST PUSH1 0x0 JUMPDEST DUP3 DUP2 LT ISZERO PUSH2 0x59E9 JUMPI DUP5 DUP10 ADD MLOAD DUP3 SSTORE PUSH1 0x1 DUP3 ADD SWAP2 POP PUSH1 0x20 DUP6 ADD SWAP5 POP PUSH1 0x20 DUP2 ADD SWAP1 POP PUSH2 0x59C4 JUMP JUMPDEST DUP7 DUP4 LT ISZERO PUSH2 0x5A06 JUMPI DUP5 DUP10 ADD MLOAD PUSH2 0x5A02 PUSH1 0x1F DUP10 AND DUP3 PUSH2 0x590F JUMP JUMPDEST DUP4 SSTORE POP JUMPDEST PUSH1 0x1 PUSH1 0x2 DUP9 MUL ADD DUP9 SSTORE POP POP POP JUMPDEST POP POP POP POP POP POP JUMP JUMPDEST PUSH1 0x0 PUSH1 0x80 DUP3 ADD SWAP1 POP DUP2 DUP2 SUB PUSH1 0x0 DUP4 ADD MSTORE PUSH2 0x5A35 DUP2 DUP8 PUSH2 0x4724 JUMP JUMPDEST SWAP1 POP PUSH2 0x5A44 PUSH1 0x20 DUP4 ADD DUP7 PUSH2 0x4A4E JUMP JUMPDEST PUSH2 0x5A51 PUSH1 0x40 DUP4 ADD DUP6 PUSH2 0x460A JUMP JUMPDEST DUP2 DUP2 SUB PUSH1 0x60 DUP4 ADD MSTORE PUSH2 0x5A63 DUP2 DUP5 PUSH2 0x4724 JUMP JUMPDEST SWAP1 POP SWAP6 SWAP5 POP POP POP POP POP JUMP JUMPDEST PUSH1 0x0 PUSH2 0x5A79 DUP3 PUSH2 0x47DD JUMP JUMPDEST SWAP2 POP PUSH2 0x5A84 DUP4 PUSH2 0x47DD JUMP JUMPDEST SWAP3 POP DUP3 DUP3 MUL PUSH2 0x5A92 DUP2 PUSH2 0x47DD JUMP JUMPDEST SWAP2 POP DUP3 DUP3 DIV DUP5 EQ DUP4 ISZERO OR PUSH2 0x5AA9 JUMPI PUSH2 0x5AA8 PUSH2 0x5726 JUMP JUMPDEST JUMPDEST POP SWAP3 SWAP2 POP POP JUMP JUMPDEST PUSH32 0x4E487B7100000000000000000000000000000000000000000000000000000000 PUSH1 0x0 MSTORE PUSH1 0x12 PUSH1 0x4 MSTORE PUSH1 0x24 PUSH1 0x0 REVERT JUMPDEST PUSH1 0x0 PUSH2 0x5AEA DUP3 PUSH2 0x47DD JUMP JUMPDEST SWAP2 POP PUSH2 0x5AF5 DUP4 PUSH2 0x47DD JUMP JUMPDEST SWAP3 POP DUP3 PUSH2 0x5B05 JUMPI PUSH2 0x5B04 PUSH2 0x5AB0 JUMP JUMPDEST JUMPDEST DUP3 DUP3 DIV SWAP1 POP SWAP3 SWAP2 POP POP JUMP JUMPDEST PUSH1 0x0 PUSH2 0x5B1B DUP3 PUSH2 0x47DD JUMP JUMPDEST SWAP2 POP PUSH2 0x5B26 DUP4 PUSH2 0x47DD JUMP JUMPDEST SWAP3 POP DUP3 DUP3 ADD SWAP1 POP DUP1 DUP3 GT ISZERO PUSH2 0x5B3E JUMPI PUSH2 0x5B3D PUSH2 0x5726 JUMP JUMPDEST JUMPDEST SWAP3 SWAP2 POP POP JUMP JUMPDEST PUSH32 0x436F6D6D756E6974793A20496E73756666696369656E7420746F6B656E730000 PUSH1 0x0 DUP3 ADD MSTORE POP JUMP JUMPDEST PUSH1 0x0 PUSH2 0x5B7A PUSH1 0x1E DUP4 PUSH2 0x46D8 JUMP JUMPDEST SWAP2 POP PUSH2 0x5B85 DUP3 PUSH2 0x5B44 JUMP JUMPDEST PUSH1 0x20 DUP3 ADD SWAP1 POP SWAP2 SWAP1 POP JUMP JUMPDEST PUSH1 0x0 PUSH1 0x20 DUP3 ADD SWAP1 POP DUP2 DUP2 SUB PUSH1 0x0 DUP4 ADD MSTORE PUSH2 0x5BA9 DUP2 PUSH2 0x5B6D JUMP JUMPDEST SWAP1 POP SWAP2 SWAP1 POP JUMP JUMPDEST PUSH1 0x0 PUSH1 0x40 DUP3 ADD SWAP1 POP PUSH2 0x5BC5 PUSH1 0x0 DUP4 ADD DUP6 PUSH2 0x4853 JUMP JUMPDEST DUP2 DUP2 SUB PUSH1 0x20 DUP4 ADD MSTORE PUSH2 0x5BD7 DUP2 DUP5 PUSH2 0x4F57 JUMP JUMPDEST SWAP1 POP SWAP4 SWAP3 POP POP POP JUMP JUMPDEST PUSH32 0x4576656E74206973206E6F742061637469766500000000000000000000000000 PUSH1 0x0 DUP3 ADD MSTORE POP JUMP JUMPDEST PUSH1 0x0 PUSH2 0x5C16 PUSH1 0x13 DUP4 PUSH2 0x46D8 JUMP JUMPDEST SWAP2 POP PUSH2 0x5C21 DUP3 PUSH2 0x5BE0 JUMP JUMPDEST PUSH1 0x20 DUP3 ADD SWAP1 POP SWAP2 SWAP1 POP JUMP JUMPDEST PUSH1 0x0 PUSH1 0x20 DUP3 ADD SWAP1 POP DUP2 DUP2 SUB PUSH1 0x0 DUP4 ADD MSTORE PUSH2 0x5C45 DUP2 PUSH2 0x5C09 JUMP JUMPDEST SWAP1 POP SWAP2 SWAP1 POP JUMP JUMPDEST PUSH32 0x4576656E74206E6F7420696E2070726F67726573730000000000000000000000 PUSH1 0x0 DUP3 ADD MSTORE POP JUMP JUMPDEST PUSH1 0x0 PUSH2 0x5C82 PUSH1 0x15 DUP4 PUSH2 0x46D8 JUMP JUMPDEST SWAP2 POP PUSH2 0x5C8D DUP3 PUSH2 0x5C4C JUMP JUMPDEST PUSH1 0x20 DUP3 ADD SWAP1 POP SWAP2 SWAP1 POP JUMP JUMPDEST PUSH1 0x0 PUSH1 0x20 DUP3 ADD SWAP1 POP DUP2 DUP2 SUB PUSH1 0x0 DUP4 ADD MSTORE PUSH2 0x5CB1 DUP2 PUSH2 0x5C75 JUMP JUMPDEST SWAP1 POP SWAP2 SWAP1 POP JUMP JUMPDEST PUSH32 0x4576656E742069732066756C6C00000000000000000000000000000000000000 PUSH1 0x0 DUP3 ADD MSTORE POP JUMP JUMPDEST PUSH1 0x0 PUSH2 0x5CEE PUSH1 0xD DUP4 PUSH2 0x46D8 JUMP JUMPDEST SWAP2 POP PUSH2 0x5CF9 DUP3 PUSH2 0x5CB8 JUMP JUMPDEST PUSH1 0x20 DUP3 ADD SWAP1 POP SWAP2 SWAP1 POP JUMP JUMPDEST PUSH1 0x0 PUSH1 0x20 DUP3 ADD SWAP1 POP DUP2 DUP2 SUB PUSH1 0x0 DUP4 ADD MSTORE PUSH2 0x5D1D DUP2 PUSH2 0x5CE1 JUMP JUMPDEST SWAP1 POP SWAP2 SWAP1 POP JUMP JUMPDEST PUSH32 0x416C726561647920696E20726576696577657220706F6F6C0000000000000000 PUSH1 0x0 DUP3 ADD MSTORE POP JUMP JUMPDEST PUSH1 0x0 PUSH2 0x5D5A PUSH1 0x18 DUP4 PUSH2 0x46D8 JUMP JUMPDEST SWAP2 POP PUSH2 0x5D65 DUP3 PUSH2 0x5D24 JUMP JUMPDEST PUSH1 0x20 DUP3 ADD SWAP1 POP SWAP2 SWAP1 POP JUMP JUMPDEST PUSH1 0x0 PUSH1 0x20 DUP3 ADD SWAP1 POP DUP2 DUP2 SUB PUSH1 0x0 DUP4 ADD MSTORE PUSH2 0x5D89 DUP2 PUSH2 0x5D4D JUMP JUMPDEST SWAP1 POP SWAP2 SWAP1 POP JUMP JUMPDEST PUSH32 0x45786365656473206D61782070726F6A6563742066756E64696E670000000000 PUSH1 0x0 DUP3 ADD MSTORE POP JUMP JUMPDEST PUSH1 0x0 PUSH2 0x5DC6 PUSH1 0x1B DUP4 PUSH2 0x46D8 JUMP JUMPDEST SWAP2 POP PUSH2 0x5DD1 DUP3 PUSH2 0x5D90 JUMP JUMPDEST PUSH1 0x20 DUP3 ADD SWAP1 POP SWAP2 SWAP1 POP JUMP JUMPDEST PUSH1 0x0 PUSH1 0x20 DUP3 ADD SWAP1 POP DUP2 DUP2 SUB PUSH1 0x0 DUP4 ADD MSTORE PUSH2 0x5DF5 DUP2 PUSH2 0x5DB9 JUMP JUMPDEST SWAP1 POP SWAP2 SWAP1 POP JUMP JUMPDEST PUSH32 0x496E73756666696369656E7420636F6D6D756E6974792070726F6A6563742066 PUSH1 0x0 DUP3 ADD MSTORE PUSH32 0x756E647300000000000000000000000000000000000000000000000000000000 PUSH1 0x20 DUP3 ADD MSTORE POP JUMP JUMPDEST PUSH1 0x0 PUSH2 0x5E58 PUSH1 0x24 DUP4 PUSH2 0x46D8 JUMP JUMPDEST SWAP2 POP PUSH2 0x5E63 DUP3 PUSH2 0x5DFC JUMP JUMPDEST PUSH1 0x40 DUP3 ADD SWAP1 POP SWAP2 SWAP1 POP JUMP JUMPDEST PUSH1 0x0 PUSH1 0x20 DUP3 ADD SWAP1 POP DUP2 DUP2 SUB PUSH1 0x0 DUP4 ADD MSTORE PUSH2 0x5E87 DUP2 PUSH2 0x5E4B JUMP JUMPDEST SWAP1 POP SWAP2 SWAP1 POP JUMP JUMPDEST PUSH1 0x0 PUSH1 0x40 DUP3 ADD SWAP1 POP PUSH2 0x5EA3 PUSH1 0x0 DUP4 ADD DUP6 PUSH2 0x4A4E JUMP JUMPDEST PUSH2 0x5EB0 PUSH1 0x20 DUP4 ADD DUP5 PUSH2 0x4853 JUMP JUMPDEST SWAP4 SWAP3 POP POP POP JUMP JUMPDEST PUSH32 0x4E6F7420617574686F72697A6564000000000000000000000000000000000000 PUSH1 0x0 DUP3 ADD MSTORE POP JUMP JUMPDEST PUSH1 0x0 PUSH2 0x5EED PUSH1 0xE DUP4 PUSH2 0x46D8 JUMP JUMPDEST SWAP2 POP PUSH2 0x5EF8 DUP3 PUSH2 0x5EB7 JUMP JUMPDEST PUSH1 0x20 DUP3 ADD SWAP1 POP SWAP2 SWAP1 POP JUMP JUMPDEST PUSH1 0x0 PUSH1 0x20 DUP3 ADD SWAP1 POP DUP2 DUP2 SUB PUSH1 0x0 DUP4 ADD MSTORE PUSH2 0x5F1C DUP2 PUSH2 0x5EE0 JUMP JUMPDEST SWAP1 POP SWAP2 SWAP1 POP JUMP JUMPDEST PUSH1 0x0 DUP2 SWAP1 POP SWAP3 SWAP2 POP POP JUMP JUMPDEST POP JUMP JUMPDEST PUSH1 0x0 PUSH2 0x5F3E PUSH1 0x0 DUP4 PUSH2 0x5F23 JUMP JUMPDEST SWAP2 POP PUSH2 0x5F49 DUP3 PUSH2 0x5F2E JUMP JUMPDEST PUSH1 0x0 DUP3 ADD SWAP1 POP SWAP2 SWAP1 POP JUMP JUMPDEST PUSH1 0x0 PUSH2 0x5F5F DUP3 PUSH2 0x5F31 JUMP JUMPDEST SWAP2 POP DUP2 SWAP1 POP SWAP2 SWAP1 POP JUMP JUMPDEST PUSH32 0x5472616E73666572206661696C65640000000000000000000000000000000000 PUSH1 0x0 DUP3 ADD MSTORE POP JUMP JUMPDEST PUSH1 0x0 PUSH2 0x5F9F PUSH1 0xF DUP4 PUSH2 0x46D8 JUMP JUMPDEST SWAP2 POP PUSH2 0x5FAA DUP3 PUSH2 0x5F69 JUMP JUMPDEST PUSH1 0x20 DUP3 ADD SWAP1 POP SWAP2 SWAP1 POP JUMP JUMPDEST PUSH1 0x0 PUSH1 0x20 DUP3 ADD SWAP1 POP DUP2 DUP2 SUB PUSH1 0x0 DUP4 ADD MSTORE PUSH2 0x5FCE DUP2 PUSH2 0x5F92 JUMP JUMPDEST SWAP1 POP SWAP2 SWAP1 POP JUMP JUMPDEST PUSH32 0x50726F706F73616C20616C726561647920657865637574656400000000000000 PUSH1 0x0 DUP3 ADD MSTORE POP JUMP JUMPDEST PUSH1 0x0 PUSH2 0x600B PUSH1 0x19 DUP4 PUSH2 0x46D8 JUMP JUMPDEST SWAP2 POP PUSH2 0x6016 DUP3 PUSH2 0x5FD5 JUMP JUMPDEST PUSH1 0x20 DUP3 ADD SWAP1 POP SWAP2 SWAP1 POP JUMP JUMPDEST PUSH1 0x0 PUSH1 0x20 DUP3 ADD SWAP1 POP DUP2 DUP2 SUB PUSH1 0x0 DUP4 ADD MSTORE PUSH2 0x603A DUP2 PUSH2 0x5FFE JUMP JUMPDEST SWAP1 POP SWAP2 SWAP1 POP JUMP JUMPDEST PUSH32 0x416C726561647920617070726F76656400000000000000000000000000000000 PUSH1 0x0 DUP3 ADD MSTORE POP JUMP JUMPDEST PUSH1 0x0 PUSH2 0x6077 PUSH1 0x10 DUP4 PUSH2 0x46D8 JUMP JUMPDEST SWAP2 POP PUSH2 0x6082 DUP3 PUSH2 0x6041 JUMP JUMPDEST PUSH1 0x20 DUP3 ADD SWAP1 POP SWAP2 SWAP1 POP JUMP JUMPDEST PUSH1 0x0 PUSH1 0x20 DUP3 ADD SWAP1 POP DUP2 DUP2 SUB PUSH1 0x0 DUP4 ADD MSTORE PUSH2 0x60A6 DUP2 PUSH2 0x606A JUMP JUMPDEST SWAP1 POP SWAP2 SWAP1 POP JUMP JUMPDEST PUSH1 0x0 DUP2 SWAP1 POP DUP2 PUSH1 0x0 MSTORE PUSH1 0x20 PUSH1 0x0 KECCAK256 SWAP1 POP SWAP2 SWAP1 POP JUMP JUMPDEST PUSH1 0x0 DUP2 SLOAD PUSH2 0x60CF DUP2 PUSH2 0x562A JUMP JUMPDEST PUSH2 0x60D9 DUP2 DUP7 PUSH2 0x5F23 JUMP JUMPDEST SWAP5 POP PUSH1 0x1 DUP3 AND PUSH1 0x0 DUP2 EQ PUSH2 0x60F4 JUMPI PUSH1 0x1 DUP2 EQ PUSH2 0x6109 JUMPI PUSH2 0x613C JUMP JUMPDEST PUSH1 0xFF NOT DUP4 AND DUP7 MSTORE DUP2 ISZERO ISZERO DUP3 MUL DUP7 ADD SWAP4 POP PUSH2 0x613C JUMP JUMPDEST PUSH2 0x6112 DUP6 PUSH2 0x60AD JUMP JUMPDEST PUSH1 0x0 JUMPDEST DUP4 DUP2 LT ISZERO PUSH2 0x6134 JUMPI DUP2 SLOAD DUP2 DUP10 ADD MSTORE PUSH1 0x1 DUP3 ADD SWAP2 POP PUSH1 0x20 DUP2 ADD SWAP1 POP PUSH2 0x6115 JUMP JUMPDEST DUP4 DUP9 ADD SWAP6 POP POP POP JUMPDEST POP POP POP SWAP3 SWAP2 POP POP JUMP JUMPDEST PUSH1 0x0 PUSH2 0x6151 DUP3 DUP5 PUSH2 0x60C2 JUMP JUMPDEST SWAP2 POP DUP2 SWAP1 POP SWAP3 SWAP2 POP POP JUMP JUMPDEST PUSH32 0x50726F706F73616C20657865637574696F6E206661696C656400000000000000 PUSH1 0x0 DUP3 ADD MSTORE POP JUMP JUMPDEST PUSH1 0x0 PUSH2 0x6192 PUSH1 0x19 DUP4 PUSH2 0x46D8 JUMP JUMPDEST SWAP2 POP PUSH2 0x619D DUP3 PUSH2 0x615C JUMP JUMPDEST PUSH1 0x20 DUP3 ADD SWAP1 POP SWAP2 SWAP1 POP JUMP JUMPDEST PUSH1 0x0 PUSH1 0x20 DUP3 ADD SWAP1 POP DUP2 DUP2 SUB PUSH1 0x0 DUP4 ADD MSTORE PUSH2 0x61C1 DUP2 PUSH2 0x6185 JUMP JUMPDEST SWAP1 POP SWAP2 SWAP1 POP JUMP JUMPDEST PUSH32 0x4E6F7420696E20726576696577657220706F6F6C000000000000000000000000 PUSH1 0x0 DUP3 ADD MSTORE POP JUMP JUMPDEST PUSH1 0x0 PUSH2 0x61FE PUSH1 0x14 DUP4 PUSH2 0x46D8 JUMP JUMPDEST SWAP2 POP PUSH2 0x6209 DUP3 PUSH2 0x61C8 JUMP JUMPDEST PUSH1 0x20 DUP3 ADD SWAP1 POP SWAP2 SWAP1 POP JUMP JUMPDEST PUSH1 0x0 PUSH1 0x20 DUP3 ADD SWAP1 POP DUP2 DUP2 SUB PUSH1 0x0 DUP4 ADD MSTORE PUSH2 0x622D DUP2 PUSH2 0x61F1 JUMP JUMPDEST SWAP1 POP SWAP2 SWAP1 POP JUMP JUMPDEST PUSH1 0x0 PUSH2 0x623F DUP3 PUSH2 0x47DD JUMP JUMPDEST SWAP2 POP PUSH2 0x624A DUP4 PUSH2 0x47DD JUMP JUMPDEST SWAP3 POP DUP3 DUP3 SUB SWAP1 POP DUP2 DUP2 GT ISZERO PUSH2 0x6262 JUMPI PUSH2 0x6261 PUSH2 0x5726 JUMP JUMPDEST JUMPDEST SWAP3 SWAP2 POP POP JUMP JUMPDEST PUSH32 0x4E487B7100000000000000000000000000000000000000000000000000000000 PUSH1 0x0 MSTORE PUSH1 0x31 PUSH1 0x4 MSTORE PUSH1 0x24 PUSH1 0x0 REVERT JUMPDEST PUSH32 0x496E76616C69642072657761726420616D6F756E740000000000000000000000 PUSH1 0x0 DUP3 ADD MSTORE POP JUMP JUMPDEST PUSH1 0x0 PUSH2 0x62CD PUSH1 0x15 DUP4 PUSH2 0x46D8 JUMP JUMPDEST SWAP2 POP PUSH2 0x62D8 DUP3 PUSH2 0x6297 JUMP JUMPDEST PUSH1 0x20 DUP3 ADD SWAP1 POP SWAP2 SWAP1 POP JUMP JUMPDEST PUSH1 0x0 PUSH1 0x20 DUP3 ADD SWAP1 POP DUP2 DUP2 SUB PUSH1 0x0 DUP4 ADD MSTORE PUSH2 0x62FC DUP2 PUSH2 0x62C0 JUMP JUMPDEST SWAP1 POP SWAP2 SWAP1 POP JUMP JUMPDEST PUSH32 0x436F6D6D756E6974793A204D696E74696E67206C696D69742065786365656465 PUSH1 0x0 DUP3 ADD MSTORE PUSH32 0x6400000000000000000000000000000000000000000000000000000000000000 PUSH1 0x20 DUP3 ADD MSTORE POP JUMP JUMPDEST PUSH1 0x0 PUSH2 0x635F PUSH1 0x21 DUP4 PUSH2 0x46D8 JUMP JUMPDEST SWAP2 POP PUSH2 0x636A DUP3 PUSH2 0x6303 JUMP JUMPDEST PUSH1 0x40 DUP3 ADD SWAP1 POP SWAP2 SWAP1 POP JUMP JUMPDEST PUSH1 0x0 PUSH1 0x20 DUP3 ADD SWAP1 POP DUP2 DUP2 SUB PUSH1 0x0 DUP4 ADD MSTORE PUSH2 0x638E DUP2 PUSH2 0x6352 JUMP JUMPDEST SWAP1 POP SWAP2 SWAP1 POP JUMP JUMPDEST PUSH32 0x436F6D6D756E6974793A2043616E6E6F74206D696E7420746F207A65726F2061 PUSH1 0x0 DUP3 ADD MSTORE PUSH32 0x6464726573730000000000000000000000000000000000000000000000000000 PUSH1 0x20 DUP3 ADD MSTORE POP JUMP JUMPDEST PUSH1 0x0 PUSH2 0x63F1 PUSH1 0x26 DUP4 PUSH2 0x46D8 JUMP JUMPDEST SWAP2 POP PUSH2 0x63FC DUP3 PUSH2 0x6395 JUMP JUMPDEST PUSH1 0x40 DUP3 ADD SWAP1 POP SWAP2 SWAP1 POP JUMP JUMPDEST PUSH1 0x0 PUSH1 0x20 DUP3 ADD SWAP1 POP DUP2 DUP2 SUB PUSH1 0x0 DUP4 ADD MSTORE PUSH2 0x6420 DUP2 PUSH2 0x63E4 JUMP JUMPDEST SWAP1 POP SWAP2 SWAP1 POP JUMP JUMPDEST PUSH1 0x1F DUP3 GT ISZERO PUSH2 0x6468 JUMPI PUSH2 0x6439 DUP2 PUSH2 0x60AD JUMP JUMPDEST PUSH2 0x6442 DUP5 PUSH2 0x57B2 JUMP JUMPDEST DUP2 ADD PUSH1 0x20 DUP6 LT ISZERO PUSH2 0x6451 JUMPI DUP2 SWAP1 POP JUMPDEST PUSH2 0x6465 PUSH2 0x645D DUP6 PUSH2 0x57B2 JUMP JUMPDEST DUP4 ADD DUP3 PUSH2 0x5899 JUMP JUMPDEST POP POP JUMPDEST POP POP POP JUMP JUMPDEST PUSH2 0x6476 DUP3 PUSH2 0x5073 JUMP JUMPDEST PUSH8 0xFFFFFFFFFFFFFFFF DUP2 GT ISZERO PUSH2 0x648F JUMPI PUSH2 0x648E PUSH2 0x4882 JUMP JUMPDEST JUMPDEST PUSH2 0x6499 DUP3 SLOAD PUSH2 0x562A JUMP JUMPDEST PUSH2 0x64A4 DUP3 DUP3 DUP6 PUSH2 0x6427 JUMP JUMPDEST PUSH1 0x0 PUSH1 0x20 SWAP1 POP PUSH1 0x1F DUP4 GT PUSH1 0x1 DUP2 EQ PUSH2 0x64D7 JUMPI PUSH1 0x0 DUP5 ISZERO PUSH2 0x64C5 JUMPI DUP3 DUP8 ADD MLOAD SWAP1 POP JUMPDEST PUSH2 0x64CF DUP6 DUP3 PUSH2 0x592D JUMP JUMPDEST DUP7 SSTORE POP PUSH2 0x6537 JUMP JUMPDEST PUSH1 0x1F NOT DUP5 AND PUSH2 0x64E5 DUP7 PUSH2 0x60AD JUMP JUMPDEST PUSH1 0x0 JUMPDEST DUP3 DUP2 LT ISZERO PUSH2 0x650D JUMPI DUP5 DUP10 ADD MLOAD DUP3 SSTORE PUSH1 0x1 DUP3 ADD SWAP2 POP PUSH1 0x20 DUP6 ADD SWAP5 POP PUSH1 0x20 DUP2 ADD SWAP1 POP PUSH2 0x64E8 JUMP JUMPDEST DUP7 DUP4 LT ISZERO PUSH2 0x652A JUMPI DUP5 DUP10 ADD MLOAD PUSH2 0x6526 PUSH1 0x1F DUP10 AND DUP3 PUSH2 0x590F JUMP JUMPDEST DUP4 SSTORE POP JUMPDEST PUSH1 0x1 PUSH1 0x2 DUP9 MUL ADD DUP9 SSTORE POP POP POP JUMPDEST POP POP POP POP POP POP JUMP JUMPDEST PUSH1 0x0 PUSH1 0x60 DUP3 ADD SWAP1 POP PUSH2 0x6554 PUSH1 0x0 DUP4 ADD DUP7 PUSH2 0x4A4E JUMP JUMPDEST PUSH2 0x6561 PUSH1 0x20 DUP4 ADD DUP6 PUSH2 0x4853 JUMP JUMPDEST PUSH2 0x656E PUSH1 0x40 DUP4 ADD DUP5 PUSH2 0x4853 JUMP JUMPDEST SWAP5 SWAP4 POP POP POP POP JUMP JUMPDEST PUSH1 0x0 DUP2 PUSH1 0x60 SHL SWAP1 POP SWAP2 SWAP1 POP JUMP JUMPDEST PUSH1 0x0 PUSH2 0x658E DUP3 PUSH2 0x6576 JUMP JUMPDEST SWAP1 POP SWAP2 SWAP1 POP JUMP JUMPDEST PUSH1 0x0 PUSH2 0x65A0 DUP3 PUSH2 0x6583 JUMP JUMPDEST SWAP1 POP SWAP2 SWAP1 POP JUMP JUMPDEST PUSH2 0x65B8 PUSH2 0x65B3 DUP3 PUSH2 0x479F JUMP JUMPDEST PUSH2 0x6595 JUMP JUMPDEST DUP3 MSTORE POP POP JUMP JUMPDEST PUSH1 0x0 DUP2 PUSH1 0xF8 SHL SWAP1 POP SWAP2 SWAP1 POP JUMP JUMPDEST PUSH1 0x0 PUSH2 0x65D6 DUP3 PUSH2 0x65BE JUMP JUMPDEST SWAP1 POP SWAP2 SWAP1 POP JUMP JUMPDEST PUSH2 0x65EE PUSH2 0x65E9 DUP3 PUSH2 0x528B JUMP JUMPDEST PUSH2 0x65CB JUMP JUMPDEST DUP3 MSTORE POP POP JUMP JUMPDEST PUSH1 0x0 PUSH2 0x6600 DUP3 DUP6 PUSH2 0x65A7 JUMP JUMPDEST PUSH1 0x14 DUP3 ADD SWAP2 POP PUSH2 0x6610 DUP3 DUP5 PUSH2 0x65DD JUMP JUMPDEST PUSH1 0x1 DUP3 ADD SWAP2 POP DUP2 SWAP1 POP SWAP4 SWAP3 POP POP POP JUMP JUMPDEST PUSH32 0x4C696D6974204578636565646564210000000000000000000000000000000000 PUSH1 0x0 DUP3 ADD MSTORE POP JUMP JUMPDEST PUSH1 0x0 PUSH2 0x6656 PUSH1 0xF DUP4 PUSH2 0x46D8 JUMP JUMPDEST SWAP2 POP PUSH2 0x6661 DUP3 PUSH2 0x6620 JUMP JUMPDEST PUSH1 0x20 DUP3 ADD SWAP1 POP SWAP2 SWAP1 POP JUMP JUMPDEST PUSH1 0x0 PUSH1 0x20 DUP3 ADD SWAP1 POP DUP2 DUP2 SUB PUSH1 0x0 DUP4 ADD MSTORE PUSH2 0x6685 DUP2 PUSH2 0x6649 JUMP JUMPDEST SWAP1 POP SWAP2 SWAP1 POP JUMP JUMPDEST PUSH1 0x0 PUSH1 0x40 DUP3 ADD SWAP1 POP PUSH2 0x66A1 PUSH1 0x0 DUP4 ADD DUP6 PUSH2 0x4A4E JUMP JUMPDEST PUSH2 0x66AE PUSH1 0x20 DUP4 ADD DUP5 PUSH2 0x4B2E JUMP JUMPDEST SWAP4 SWAP3 POP POP POP JUMP INVALID LOG2 PUSH5 0x6970667358 0x22 SLT KECCAK256 SIGNEXTEND PUSH25 0x33FC7770F652866C66F767543EBB41C723A1DBA4D2A3ED5A1C 0xBA 0x28 JUMP CALLDATASIZE DUP1 PUSH5 0x736F6C6343 STOP ADDMOD SHL STOP CALLER "},"methodIdentifiers":{"CHAMPION_BADGE_THRESHOLD()":"bfa05361","COMMUNITY_MANAGER()":"61ac7e61","COMMUNITY_POOL()":"aeb47e2a","CONTRIBUTOR_BADGE_THRESHOLD()":"0ed1d5cb","DEFAULT_ADMIN_ROLE()":"a217fddf","EVENT_PARTICIPATION_REWARD()":"1e3edfd9","LEADER_BADGE_THRESHOLD()":"b5193425","MAX_COMMUNITY_PROJECT_FUNDING()":"61ac05e2","MAX_SUPPLY()":"32cb6b0c","MULTISIG_APPROVER()":"52994e2f","PARTICIPANT_BADGE_THRESHOLD()":"0fb6d46a","REVIEWER_ROLE()":"3b129a56","abyaCommunity(uint256)":"2298de01","addReviewer(address)":"73a82b5f","allowance(address,address)":"dd62ed3e","approve(address,uint256)":"095ea7b3","approveMultiSigProposal(uint256)":"bad0dd65","badgeMetadata(uint8)":"7025aac6","balanceOf(address)":"70a08231","checkMemberBadge()":"fd55dd92","claimBadgeRewards()":"50447e5e","communityContributorRewards(address)":"fba2e310","communityEvents(uint256)":"5fc61001","communityMembers(address)":"8c95aef9","communityPoolSupply()":"d171d049","communityProjectFunds()":"d7b999c7","createEvent(string,uint256,uint256,uint256,bool,string,string)":"248cd810","decimals()":"313ce567","distributeAirdrops(uint256,address[])":"354c4e13","fundCommunityProjects(address,uint256)":"7ac66922","getAllCommunityEvents()":"dcdc510c","getAllCommunityMembers()":"3387f0c5","getBadgeMetadata(uint8)":"2899df2b","getMemberBadge(address)":"ca98e49e","getMemberBadgeDetails(address)":"7125a07b","getRoleAdmin(bytes32)":"248a9ca3","getTotalEventsAttended(address)":"914e72a6","grantRole(bytes32,address)":"2f2ff15d","hasBadge(address,uint8)":"3af0c688","hasRole(bytes32,address)":"91d14854","isCommunityMember(address)":"2f676b65","isInReviewerPool(address)":"c491b04c","isReviewer(address)":"fdc6258a","joinCommunity()":"00b16fee","multiSigProposals(uint256)":"40932bf8","name()":"06fdde03","participateInEvent(uint256)":"4e860496","performAirdrop(uint256,address[])":"ff4d7128","performPeriodicAirdrop(address[],uint256)":"15f42df4","periodicAirdrops(address[],uint256)":"18a8c3f2","processCommunityRewards(address,uint256)":"fad2c5f2","removeReviewer(address)":"c9442dac","renounceRole(bytes32,address)":"36568abe","reviewerPool(uint256)":"19f102ec","revokeRole(bytes32,address)":"d547741f","supportsInterface(bytes4)":"01ffc9a7","symbol()":"95d89b41","totalSupply()":"18160ddd","transfer(address,uint256)":"a9059cbb","transferFrom(address,address,uint256)":"23b872dd","transferFunds(address,uint256)":"990dc9db"}}}}}