{"contracts/DiamondProxy/DiamondLibrary/LibDiamond.sol":{"LibDiamond":{"abi":[{"inputs":[],"name":"COURSE_COMPLETION_REWARD","outputs":[{"internalType":"uint256","name":"","type":"uint256"}],"stateMutability":"view","type":"function"},{"inputs":[],"name":"CREATE_COURSE_REWARD","outputs":[{"internalType":"uint256","name":"","type":"uint256"}],"stateMutability":"view","type":"function"},{"inputs":[],"name":"ECOSYSTEM_POOL","outputs":[{"internalType":"uint256","name":"","type":"uint256"}],"stateMutability":"view","type":"function"},{"inputs":[],"name":"ENROLLMENT_REWARD","outputs":[{"internalType":"uint256","name":"","type":"uint256"}],"stateMutability":"view","type":"function"},{"inputs":[],"name":"MAX_SCORE","outputs":[{"internalType":"uint256","name":"","type":"uint256"}],"stateMutability":"view","type":"function"},{"inputs":[],"name":"MAX_SUPPLY","outputs":[{"internalType":"uint256","name":"","type":"uint256"}],"stateMutability":"view","type":"function"},{"inputs":[],"name":"MIN_APPROVAL_SCORE","outputs":[{"internalType":"uint256","name":"","type":"uint256"}],"stateMutability":"view","type":"function"},{"inputs":[],"name":"QUIZ_COMPLETION_REWARD","outputs":[{"internalType":"uint256","name":"","type":"uint256"}],"stateMutability":"view","type":"function"},{"inputs":[],"name":"REQUIRED_APPROVALS","outputs":[{"internalType":"uint256","name":"","type":"uint256"}],"stateMutability":"view","type":"function"}],"evm":{"bytecode":{"linkReferences":{},"object":"610362610052600b82828239805160001a6073146045577f4e487b7100000000000000000000000000000000000000000000000000000000600052600060045260246000fd5b30600052607381538281f3fe730000000000000000000000000000000000000000301460806040526004361061009d5760003560e01c80637ce17852116100705780637ce178521461011a578063846f8152146101385780639560bc8514610156578063ac957c6314610174578063d93f2caa146101925761009d565b8063274202f0146100a257806327ff6223146100c057806332cb6b0c146100de578063599c5533146100fc575b600080fd5b6100aa6101b0565b6040516100b79190610240565b60405180910390f35b6100c86101d8565b6040516100d59190610240565b60405180910390f35b6100e66101dd565b6040516100f39190610240565b60405180910390f35b6101046101ed565b6040516101119190610240565b60405180910390f35b6101226101f2565b60405161012f9190610240565b60405180910390f35b6101406101fe565b60405161014d9190610240565b60405180910390f35b61015e61020a565b60405161016b9190610240565b60405180910390f35b61017c610216565b6040516101899190610240565b60405180910390f35b61019a61021b565b6040516101a79190610240565b60405180910390f35b6064600f6b204fce5e3e250261100000006101cb919061028a565b6101d591906102fb565b81565b606481565b6b204fce5e3e2502611000000081565b600281565b671bc16d674ec8000081565b671bc16d674ec8000081565b670de0b6b3a764000081565b605081565b674563918244f4000081565b6000819050919050565b61023a81610227565b82525050565b60006020820190506102556000830184610231565b92915050565b7f4e487b7100000000000000000000000000000000000000000000000000000000600052601160045260246000fd5b600061029582610227565b91506102a083610227565b92508282026102ae81610227565b915082820484148315176102c5576102c461025b565b5b5092915050565b7f4e487b7100000000000000000000000000000000000000000000000000000000600052601260045260246000fd5b600061030682610227565b915061031183610227565b925082610321576103206102cc565b5b82820490509291505056fea26469706673582212203caa1617a20859a63cb9a03d6565c3425b938fd5fb03647bdcc44bdd71e98a4764736f6c634300081b0033","opcodes":"PUSH2 0x362 PUSH2 0x52 PUSH1 0xB DUP3 DUP3 DUP3 CODECOPY DUP1 MLOAD PUSH1 0x0 BYTE PUSH1 0x73 EQ PUSH1 0x45 JUMPI PUSH32 0x4E487B7100000000000000000000000000000000000000000000000000000000 PUSH1 0x0 MSTORE PUSH1 0x0 PUSH1 0x4 MSTORE PUSH1 0x24 PUSH1 0x0 REVERT JUMPDEST ADDRESS PUSH1 0x0 MSTORE PUSH1 0x73 DUP2 MSTORE8 DUP3 DUP2 RETURN INVALID PUSH20 0x0 ADDRESS EQ PUSH1 0x80 PUSH1 0x40 MSTORE PUSH1 0x4 CALLDATASIZE LT PUSH2 0x9D JUMPI PUSH1 0x0 CALLDATALOAD PUSH1 0xE0 SHR DUP1 PUSH4 0x7CE17852 GT PUSH2 0x70 JUMPI DUP1 PUSH4 0x7CE17852 EQ PUSH2 0x11A JUMPI DUP1 PUSH4 0x846F8152 EQ PUSH2 0x138 JUMPI DUP1 PUSH4 0x9560BC85 EQ PUSH2 0x156 JUMPI DUP1 PUSH4 0xAC957C63 EQ PUSH2 0x174 JUMPI DUP1 PUSH4 0xD93F2CAA EQ PUSH2 0x192 JUMPI PUSH2 0x9D JUMP JUMPDEST DUP1 PUSH4 0x274202F0 EQ PUSH2 0xA2 JUMPI DUP1 PUSH4 0x27FF6223 EQ PUSH2 0xC0 JUMPI DUP1 PUSH4 0x32CB6B0C EQ PUSH2 0xDE JUMPI DUP1 PUSH4 0x599C5533 EQ PUSH2 0xFC JUMPI JUMPDEST PUSH1 0x0 DUP1 REVERT JUMPDEST PUSH2 0xAA PUSH2 0x1B0 JUMP JUMPDEST PUSH1 0x40 MLOAD PUSH2 0xB7 SWAP2 SWAP1 PUSH2 0x240 JUMP JUMPDEST PUSH1 0x40 MLOAD DUP1 SWAP2 SUB SWAP1 RETURN JUMPDEST PUSH2 0xC8 PUSH2 0x1D8 JUMP JUMPDEST PUSH1 0x40 MLOAD PUSH2 0xD5 SWAP2 SWAP1 PUSH2 0x240 JUMP JUMPDEST PUSH1 0x40 MLOAD DUP1 SWAP2 SUB SWAP1 RETURN JUMPDEST PUSH2 0xE6 PUSH2 0x1DD JUMP JUMPDEST PUSH1 0x40 MLOAD PUSH2 0xF3 SWAP2 SWAP1 PUSH2 0x240 JUMP JUMPDEST PUSH1 0x40 MLOAD DUP1 SWAP2 SUB SWAP1 RETURN JUMPDEST PUSH2 0x104 PUSH2 0x1ED JUMP JUMPDEST PUSH1 0x40 MLOAD PUSH2 0x111 SWAP2 SWAP1 PUSH2 0x240 JUMP JUMPDEST PUSH1 0x40 MLOAD DUP1 SWAP2 SUB SWAP1 RETURN JUMPDEST PUSH2 0x122 PUSH2 0x1F2 JUMP JUMPDEST PUSH1 0x40 MLOAD PUSH2 0x12F SWAP2 SWAP1 PUSH2 0x240 JUMP JUMPDEST PUSH1 0x40 MLOAD DUP1 SWAP2 SUB SWAP1 RETURN JUMPDEST PUSH2 0x140 PUSH2 0x1FE JUMP JUMPDEST PUSH1 0x40 MLOAD PUSH2 0x14D SWAP2 SWAP1 PUSH2 0x240 JUMP JUMPDEST PUSH1 0x40 MLOAD DUP1 SWAP2 SUB SWAP1 RETURN JUMPDEST PUSH2 0x15E PUSH2 0x20A JUMP JUMPDEST PUSH1 0x40 MLOAD PUSH2 0x16B SWAP2 SWAP1 PUSH2 0x240 JUMP JUMPDEST PUSH1 0x40 MLOAD DUP1 SWAP2 SUB SWAP1 RETURN JUMPDEST PUSH2 0x17C PUSH2 0x216 JUMP JUMPDEST PUSH1 0x40 MLOAD PUSH2 0x189 SWAP2 SWAP1 PUSH2 0x240 JUMP JUMPDEST PUSH1 0x40 MLOAD DUP1 SWAP2 SUB SWAP1 RETURN JUMPDEST PUSH2 0x19A PUSH2 0x21B JUMP JUMPDEST PUSH1 0x40 MLOAD PUSH2 0x1A7 SWAP2 SWAP1 PUSH2 0x240 JUMP JUMPDEST PUSH1 0x40 MLOAD DUP1 SWAP2 SUB SWAP1 RETURN JUMPDEST PUSH1 0x64 PUSH1 0xF PUSH12 0x204FCE5E3E25026110000000 PUSH2 0x1CB SWAP2 SWAP1 PUSH2 0x28A JUMP JUMPDEST PUSH2 0x1D5 SWAP2 SWAP1 PUSH2 0x2FB JUMP JUMPDEST DUP2 JUMP JUMPDEST PUSH1 0x64 DUP2 JUMP JUMPDEST PUSH12 0x204FCE5E3E25026110000000 DUP2 JUMP JUMPDEST PUSH1 0x2 DUP2 JUMP JUMPDEST PUSH8 0x1BC16D674EC80000 DUP2 JUMP JUMPDEST PUSH8 0x1BC16D674EC80000 DUP2 JUMP JUMPDEST PUSH8 0xDE0B6B3A7640000 DUP2 JUMP JUMPDEST PUSH1 0x50 DUP2 JUMP JUMPDEST PUSH8 0x4563918244F40000 DUP2 JUMP JUMPDEST PUSH1 0x0 DUP2 SWAP1 POP SWAP2 SWAP1 POP JUMP JUMPDEST PUSH2 0x23A DUP2 PUSH2 0x227 JUMP JUMPDEST DUP3 MSTORE POP POP JUMP JUMPDEST PUSH1 0x0 PUSH1 0x20 DUP3 ADD SWAP1 POP PUSH2 0x255 PUSH1 0x0 DUP4 ADD DUP5 PUSH2 0x231 JUMP JUMPDEST SWAP3 SWAP2 POP POP JUMP JUMPDEST PUSH32 0x4E487B7100000000000000000000000000000000000000000000000000000000 PUSH1 0x0 MSTORE PUSH1 0x11 PUSH1 0x4 MSTORE PUSH1 0x24 PUSH1 0x0 REVERT JUMPDEST PUSH1 0x0 PUSH2 0x295 DUP3 PUSH2 0x227 JUMP JUMPDEST SWAP2 POP PUSH2 0x2A0 DUP4 PUSH2 0x227 JUMP JUMPDEST SWAP3 POP DUP3 DUP3 MUL PUSH2 0x2AE DUP2 PUSH2 0x227 JUMP JUMPDEST SWAP2 POP DUP3 DUP3 DIV DUP5 EQ DUP4 ISZERO OR PUSH2 0x2C5 JUMPI PUSH2 0x2C4 PUSH2 0x25B JUMP JUMPDEST JUMPDEST POP SWAP3 SWAP2 POP POP JUMP JUMPDEST PUSH32 0x4E487B7100000000000000000000000000000000000000000000000000000000 PUSH1 0x0 MSTORE PUSH1 0x12 PUSH1 0x4 MSTORE PUSH1 0x24 PUSH1 0x0 REVERT JUMPDEST PUSH1 0x0 PUSH2 0x306 DUP3 PUSH2 0x227 JUMP JUMPDEST SWAP2 POP PUSH2 0x311 DUP4 PUSH2 0x227 JUMP JUMPDEST SWAP3 POP DUP3 PUSH2 0x321 JUMPI PUSH2 0x320 PUSH2 0x2CC JUMP JUMPDEST JUMPDEST DUP3 DUP3 DIV SWAP1 POP SWAP3 SWAP2 POP POP JUMP INVALID LOG2 PUSH5 0x6970667358 0x22 SLT KECCAK256 EXTCODECOPY 0xAA AND OR LOG2 ADDMOD MSIZE 0xA6 EXTCODECOPY 0xB9 LOG0 RETURNDATASIZE PUSH6 0x65C3425B938F 0xD5 0xFB SUB PUSH5 0x7BDCC44BDD PUSH18 0xE98A4764736F6C634300081B003300000000 "},"methodIdentifiers":{"COURSE_COMPLETION_REWARD()":"7ce17852","CREATE_COURSE_REWARD()":"d93f2caa","ECOSYSTEM_POOL()":"274202f0","ENROLLMENT_REWARD()":"846f8152","MAX_SCORE()":"27ff6223","MAX_SUPPLY()":"32cb6b0c","MIN_APPROVAL_SCORE()":"ac957c63","QUIZ_COMPLETION_REWARD()":"9560bc85","REQUIRED_APPROVALS()":"599c5533"}}}}}