{"contracts/DiamondProxy/Ecosystem2Facet.sol":{"Ecosystem2Facet":{"abi":[{"inputs":[],"name":"AccessControlBadConfirmation","type":"error"},{"inputs":[{"internalType":"address","name":"account","type":"address"},{"internalType":"bytes32","name":"neededRole","type":"bytes32"}],"name":"AccessControlUnauthorizedAccount","type":"error"},{"inputs":[],"name":"ReentrancyGuardReentrantCall","type":"error"},{"anonymous":false,"inputs":[{"indexed":true,"internalType":"uint256","name":"_courseId","type":"uint256"},{"indexed":true,"internalType":"uint256","name":"_chaterId","type":"uint256"}],"name":"ChapterDeletedSuccess","type":"event"},{"anonymous":false,"inputs":[{"indexed":true,"internalType":"uint256","name":"_courseId","type":"uint256"},{"indexed":true,"internalType":"uint256","name":"_chapterId","type":"uint256"},{"indexed":false,"internalType":"string","name":"_chapterName","type":"string"}],"name":"ChapterEdited","type":"event"},{"anonymous":false,"inputs":[{"indexed":true,"internalType":"uint256","name":"_courseId","type":"uint256"},{"indexed":true,"internalType":"uint256","name":"numberOfChapters","type":"uint256"}],"name":"ChaptersAddedSuccessfully","type":"event"},{"anonymous":false,"inputs":[{"indexed":false,"internalType":"uint256","name":"questionId","type":"uint256"},{"indexed":false,"internalType":"uint256","name":"choiceId","type":"uint256"},{"indexed":false,"internalType":"string","name":"option","type":"string"}],"name":"ChoiceAdded","type":"event"},{"anonymous":false,"inputs":[{"indexed":true,"internalType":"address","name":"_to","type":"address"},{"indexed":true,"internalType":"uint256","name":"_amount","type":"uint256"}],"name":"EcosystemPoolUpdate","type":"event"},{"anonymous":false,"inputs":[{"indexed":true,"internalType":"uint256","name":"_courseId","type":"uint256"},{"indexed":true,"internalType":"address","name":"_by","type":"address"}],"name":"EnrollmentSuccess","type":"event"},{"anonymous":false,"inputs":[{"indexed":true,"internalType":"uint256","name":"_lessonId","type":"uint256"},{"indexed":true,"internalType":"string","name":"_lessonName","type":"string"},{"indexed":true,"internalType":"uint256","name":"_additonalResources","type":"uint256"}],"name":"LessonCreationSuccess","type":"event"},{"anonymous":false,"inputs":[{"indexed":true,"internalType":"uint256","name":"_chapterId","type":"uint256"},{"indexed":true,"internalType":"uint256","name":"_lessonId","type":"uint256"}],"name":"LessonDeleted","type":"event"},{"anonymous":false,"inputs":[{"indexed":true,"internalType":"uint256","name":"_lessonId","type":"uint256"},{"indexed":false,"internalType":"string","name":"_lessonName","type":"string"}],"name":"LessonEdited","type":"event"},{"anonymous":false,"inputs":[{"indexed":true,"internalType":"uint256","name":"_chapterId","type":"uint256"},{"indexed":true,"internalType":"uint256","name":"_lessonId","type":"uint256"},{"indexed":false,"internalType":"address","name":"learner","type":"address"}],"name":"LessonMarkedAsRead","type":"event"},{"anonymous":false,"inputs":[{"indexed":false,"internalType":"uint256","name":"quizId","type":"uint256"},{"indexed":false,"internalType":"uint256","name":"questionId","type":"uint256"},{"indexed":false,"internalType":"string","name":"questionText","type":"string"}],"name":"QuestionAdded","type":"event"},{"anonymous":false,"inputs":[{"indexed":true,"internalType":"uint256","name":"_quizId","type":"uint256"},{"indexed":true,"internalType":"uint256","name":"_questionId","type":"uint256"}],"name":"QuestionDeleted","type":"event"},{"anonymous":false,"inputs":[{"indexed":true,"internalType":"uint256","name":"_quizId","type":"uint256"},{"indexed":true,"internalType":"string","name":"_title","type":"string"}],"name":"QuizCreatedSuccess","type":"event"},{"anonymous":false,"inputs":[{"indexed":true,"internalType":"uint256","name":"_lessonId","type":"uint256"},{"indexed":true,"internalType":"uint256","name":"_quizId","type":"uint256"}],"name":"QuizDeleted","type":"event"},{"anonymous":false,"inputs":[{"indexed":true,"internalType":"uint256","name":"_lessonId","type":"uint256"},{"indexed":true,"internalType":"uint256","name":"_quizId","type":"uint256"},{"indexed":false,"internalType":"string","name":"_quizTitle","type":"string"}],"name":"QuizEdited","type":"event"},{"anonymous":false,"inputs":[{"indexed":true,"internalType":"uint256","name":"_quizId","type":"uint256"},{"indexed":true,"internalType":"address","name":"_user","type":"address"}],"name":"QuizLocked","type":"event"},{"anonymous":false,"inputs":[{"indexed":true,"internalType":"address","name":"learner","type":"address"},{"indexed":false,"internalType":"uint256","name":"quizId","type":"uint256"},{"indexed":false,"internalType":"uint256","name":"score","type":"uint256"}],"name":"QuizSubmitted","type":"event"},{"anonymous":false,"inputs":[{"indexed":true,"internalType":"uint256","name":"_lessonId","type":"uint256"},{"indexed":true,"internalType":"uint256","name":"resourceCount","type":"uint256"}],"name":"ResourceAddSuccess","type":"event"},{"anonymous":false,"inputs":[{"indexed":true,"internalType":"bytes32","name":"role","type":"bytes32"},{"indexed":true,"internalType":"bytes32","name":"previousAdminRole","type":"bytes32"},{"indexed":true,"internalType":"bytes32","name":"newAdminRole","type":"bytes32"}],"name":"RoleAdminChanged","type":"event"},{"anonymous":false,"inputs":[{"indexed":true,"internalType":"bytes32","name":"role","type":"bytes32"},{"indexed":true,"internalType":"address","name":"account","type":"address"},{"indexed":true,"internalType":"address","name":"sender","type":"address"}],"name":"RoleGranted","type":"event"},{"anonymous":false,"inputs":[{"indexed":true,"internalType":"bytes32","name":"role","type":"bytes32"},{"indexed":true,"internalType":"address","name":"account","type":"address"},{"indexed":true,"internalType":"address","name":"sender","type":"address"}],"name":"RoleRevoked","type":"event"},{"anonymous":false,"inputs":[{"indexed":true,"internalType":"uint256","name":"_courseId","type":"uint256"},{"indexed":true,"internalType":"address","name":"_by","type":"address"}],"name":"unEnrollmentSuccess","type":"event"},{"inputs":[],"name":"DEFAULT_ADMIN_ROLE","outputs":[{"internalType":"bytes32","name":"","type":"bytes32"}],"stateMutability":"view","type":"function"},{"inputs":[{"internalType":"uint256","name":"_courseId","type":"uint256"},{"internalType":"string[]","name":"_chapters","type":"string[]"},{"internalType":"uint256[]","name":"_durations","type":"uint256[]"}],"name":"addChapters","outputs":[{"internalType":"bool","name":"","type":"bool"}],"stateMutability":"nonpayable","type":"function"},{"inputs":[{"internalType":"uint256","name":"_chapterId","type":"uint256"},{"internalType":"string","name":"_lessonName","type":"string"},{"internalType":"string","name":"_lessonContent","type":"string"}],"name":"addLesson","outputs":[],"stateMutability":"nonpayable","type":"function"},{"inputs":[{"internalType":"uint256","name":"_lessonId","type":"uint256"},{"internalType":"enum LibDiamond.ContentType","name":"contentType","type":"uint8"},{"components":[{"internalType":"enum LibDiamond.ContentType","name":"contentType","type":"uint8"},{"internalType":"string","name":"url","type":"string"},{"internalType":"string","name":"name","type":"string"}],"internalType":"struct LibDiamond.Resource[]","name":"_resources","type":"tuple[]"}],"name":"addResourcesToLesson","outputs":[],"stateMutability":"nonpayable","type":"function"},{"inputs":[{"internalType":"uint256","name":"_quizId","type":"uint256"},{"internalType":"string","name":"_questionText","type":"string"},{"internalType":"string[]","name":"_options","type":"string[]"},{"internalType":"uint8","name":"_correctChoiceIndex","type":"uint8"}],"name":"createQuestionWithChoices","outputs":[],"stateMutability":"nonpayable","type":"function"},{"inputs":[{"internalType":"uint256","name":"_lessonId","type":"uint256"},{"internalType":"string","name":"_title","type":"string"}],"name":"createQuiz","outputs":[{"internalType":"uint256","name":"","type":"uint256"}],"stateMutability":"nonpayable","type":"function"},{"inputs":[{"internalType":"uint256","name":"_courseId","type":"uint256"},{"internalType":"uint256","name":"_chapterId","type":"uint256"}],"name":"deleteChapter","outputs":[{"internalType":"bool","name":"","type":"bool"}],"stateMutability":"nonpayable","type":"function"},{"inputs":[{"internalType":"uint256","name":"_chapterId","type":"uint256"},{"internalType":"uint256","name":"_lessonId","type":"uint256"}],"name":"deleteLesson","outputs":[{"internalType":"bool","name":"","type":"bool"}],"stateMutability":"nonpayable","type":"function"},{"inputs":[{"internalType":"uint256","name":"_quizId","type":"uint256"},{"internalType":"uint256","name":"_questionId","type":"uint256"}],"name":"deleteQuestion","outputs":[{"internalType":"bool","name":"","type":"bool"}],"stateMutability":"nonpayable","type":"function"},{"inputs":[{"internalType":"uint256","name":"_lessonId","type":"uint256"},{"internalType":"uint256","name":"_quizId","type":"uint256"}],"name":"deleteQuiz","outputs":[{"internalType":"bool","name":"","type":"bool"}],"stateMutability":"nonpayable","type":"function"},{"inputs":[{"internalType":"uint256","name":"_courseId","type":"uint256"},{"internalType":"uint256","name":"_chapterId","type":"uint256"},{"internalType":"string","name":"_chapterName","type":"string"}],"name":"editChapter","outputs":[{"internalType":"bool","name":"","type":"bool"}],"stateMutability":"nonpayable","type":"function"},{"inputs":[{"internalType":"uint256","name":"_lessonId","type":"uint256"},{"internalType":"string","name":"_lessonName","type":"string"},{"internalType":"string","name":"_lessonContent","type":"string"},{"components":[{"internalType":"enum LibDiamond.ContentType","name":"contentType","type":"uint8"},{"internalType":"string","name":"url","type":"string"},{"internalType":"string","name":"name","type":"string"}],"internalType":"struct LibDiamond.Resource[]","name":"_additionalResources","type":"tuple[]"}],"name":"editLesson","outputs":[{"internalType":"bool","name":"","type":"bool"}],"stateMutability":"nonpayable","type":"function"},{"inputs":[{"internalType":"uint256","name":"_lessonId","type":"uint256"},{"internalType":"uint256","name":"_quizId","type":"uint256"},{"internalType":"string","name":"_quizTitle","type":"string"}],"name":"editQuiz","outputs":[],"stateMutability":"nonpayable","type":"function"},{"inputs":[{"internalType":"uint256","name":"_courseId","type":"uint256"}],"name":"enroll","outputs":[{"internalType":"bool","name":"","type":"bool"}],"stateMutability":"nonpayable","type":"function"},{"inputs":[],"name":"getAllChapters","outputs":[{"components":[{"internalType":"uint256","name":"courseId","type":"uint256"},{"internalType":"uint256","name":"chapterId","type":"uint256"},{"internalType":"string","name":"chapterName","type":"string"},{"internalType":"uint256","name":"duration","type":"uint256"},{"internalType":"bool","name":"exists","type":"bool"}],"internalType":"struct LibDiamond.Chapter[]","name":"","type":"tuple[]"}],"stateMutability":"view","type":"function"},{"inputs":[],"name":"getAllLessons","outputs":[{"components":[{"internalType":"uint256","name":"chapterId","type":"uint256"},{"internalType":"uint256","name":"lessonId","type":"uint256"},{"internalType":"string","name":"lessonName","type":"string"},{"internalType":"string","name":"lessonContent","type":"string"},{"components":[{"internalType":"enum LibDiamond.ContentType","name":"contentType","type":"uint8"},{"internalType":"string","name":"url","type":"string"},{"internalType":"string","name":"name","type":"string"}],"internalType":"struct LibDiamond.Resource[10]","name":"additionalResources","type":"tuple[10]"},{"internalType":"uint256","name":"resourceCount","type":"uint256"},{"internalType":"bool","name":"exists","type":"bool"}],"internalType":"struct LibDiamond.Lesson[]","name":"","type":"tuple[]"}],"stateMutability":"view","type":"function"},{"inputs":[],"name":"getAllQuizzes","outputs":[{"components":[{"internalType":"uint256","name":"lessonId","type":"uint256"},{"internalType":"uint256","name":"quizId","type":"uint256"},{"internalType":"string","name":"quizTitle","type":"string"},{"components":[{"internalType":"uint256","name":"quizId","type":"uint256"},{"internalType":"uint256","name":"questionId","type":"uint256"},{"internalType":"string","name":"questionText","type":"string"},{"components":[{"internalType":"string","name":"option","type":"string"},{"internalType":"bool","name":"isCorrect","type":"bool"}],"internalType":"struct LibDiamond.Choice[]","name":"choices","type":"tuple[]"}],"internalType":"struct LibDiamond.Question[]","name":"questions","type":"tuple[]"},{"internalType":"bool","name":"exists","type":"bool"},{"internalType":"uint256","name":"lockTime","type":"uint256"}],"internalType":"struct LibDiamond.Quiz[]","name":"","type":"tuple[]"}],"stateMutability":"view","type":"function"},{"inputs":[{"internalType":"uint256","name":"_courseId","type":"uint256"}],"name":"getChapters","outputs":[{"components":[{"internalType":"uint256","name":"courseId","type":"uint256"},{"internalType":"uint256","name":"chapterId","type":"uint256"},{"internalType":"string","name":"chapterName","type":"string"},{"internalType":"uint256","name":"duration","type":"uint256"},{"internalType":"bool","name":"exists","type":"bool"}],"internalType":"struct LibDiamond.Chapter[]","name":"","type":"tuple[]"}],"stateMutability":"view","type":"function"},{"inputs":[{"internalType":"uint256","name":"_quizId","type":"uint256"}],"name":"getQuestionsForQuiz","outputs":[{"components":[{"internalType":"uint256","name":"quizId","type":"uint256"},{"internalType":"uint256","name":"questionId","type":"uint256"},{"internalType":"string","name":"questionText","type":"string"},{"components":[{"internalType":"string","name":"option","type":"string"},{"internalType":"bool","name":"isCorrect","type":"bool"}],"internalType":"struct LibDiamond.Choice[]","name":"choices","type":"tuple[]"}],"internalType":"struct LibDiamond.Question[]","name":"","type":"tuple[]"}],"stateMutability":"view","type":"function"},{"inputs":[{"internalType":"uint256","name":"_quizId","type":"uint256"}],"name":"getQuiz","outputs":[{"components":[{"internalType":"uint256","name":"lessonId","type":"uint256"},{"internalType":"uint256","name":"quizId","type":"uint256"},{"internalType":"string","name":"quizTitle","type":"string"},{"components":[{"internalType":"uint256","name":"quizId","type":"uint256"},{"internalType":"uint256","name":"questionId","type":"uint256"},{"internalType":"string","name":"questionText","type":"string"},{"components":[{"internalType":"string","name":"option","type":"string"},{"internalType":"bool","name":"isCorrect","type":"bool"}],"internalType":"struct LibDiamond.Choice[]","name":"choices","type":"tuple[]"}],"internalType":"struct LibDiamond.Question[]","name":"questions","type":"tuple[]"},{"internalType":"bool","name":"exists","type":"bool"},{"internalType":"uint256","name":"lockTime","type":"uint256"}],"internalType":"struct LibDiamond.Quiz","name":"","type":"tuple"}],"stateMutability":"view","type":"function"},{"inputs":[{"internalType":"uint256","name":"_quizId","type":"uint256"},{"internalType":"address","name":"_user","type":"address"}],"name":"getQuizLockTime","outputs":[{"internalType":"uint256","name":"","type":"uint256"}],"stateMutability":"view","type":"function"},{"inputs":[{"internalType":"bytes32","name":"role","type":"bytes32"}],"name":"getRoleAdmin","outputs":[{"internalType":"bytes32","name":"","type":"bytes32"}],"stateMutability":"view","type":"function"},{"inputs":[{"internalType":"uint256","name":"_courseId","type":"uint256"}],"name":"getUserCompletedLessonsByCourse","outputs":[{"internalType":"uint256[]","name":"","type":"uint256[]"}],"stateMutability":"view","type":"function"},{"inputs":[{"internalType":"uint256","name":"_courseId","type":"uint256"}],"name":"getUserCompletedQuizzesByCourse","outputs":[{"internalType":"uint256[]","name":"","type":"uint256[]"}],"stateMutability":"view","type":"function"},{"inputs":[{"internalType":"bytes32","name":"role","type":"bytes32"},{"internalType":"address","name":"account","type":"address"}],"name":"grantRole","outputs":[],"stateMutability":"nonpayable","type":"function"},{"inputs":[{"internalType":"bytes32","name":"role","type":"bytes32"},{"internalType":"address","name":"account","type":"address"}],"name":"hasRole","outputs":[{"internalType":"bool","name":"","type":"bool"}],"stateMutability":"view","type":"function"},{"inputs":[{"internalType":"uint256","name":"_courseId","type":"uint256"},{"internalType":"uint256","name":"_quizId","type":"uint256"}],"name":"lockQuiz","outputs":[],"stateMutability":"nonpayable","type":"function"},{"inputs":[{"internalType":"uint256","name":"_courseId","type":"uint256"},{"internalType":"uint256","name":"_chapterId","type":"uint256"},{"internalType":"uint256","name":"_lessonId","type":"uint256"}],"name":"markAsRead","outputs":[{"internalType":"bool","name":"","type":"bool"}],"stateMutability":"nonpayable","type":"function"},{"inputs":[{"internalType":"uint256","name":"_quizId","type":"uint256"}],"name":"quizExists","outputs":[{"internalType":"bool","name":"","type":"bool"}],"stateMutability":"view","type":"function"},{"inputs":[{"internalType":"bytes32","name":"role","type":"bytes32"},{"internalType":"address","name":"callerConfirmation","type":"address"}],"name":"renounceRole","outputs":[],"stateMutability":"nonpayable","type":"function"},{"inputs":[{"internalType":"bytes32","name":"role","type":"bytes32"},{"internalType":"address","name":"account","type":"address"}],"name":"revokeRole","outputs":[],"stateMutability":"nonpayable","type":"function"},{"inputs":[{"internalType":"uint256","name":"_courseId","type":"uint256"},{"internalType":"uint256","name":"_quizId","type":"uint256"},{"internalType":"uint256[]","name":"_answers","type":"uint256[]"},{"internalType":"uint256","name":"_score","type":"uint256"}],"name":"submitQuiz","outputs":[{"internalType":"bool","name":"","type":"bool"}],"stateMutability":"nonpayable","type":"function"},{"inputs":[{"internalType":"bytes4","name":"interfaceId","type":"bytes4"}],"name":"supportsInterface","outputs":[{"internalType":"bool","name":"","type":"bool"}],"stateMutability":"view","type":"function"},{"inputs":[{"internalType":"uint256","name":"_courseId","type":"uint256"}],"name":"unEnroll","outputs":[{"internalType":"bool","name":"","type":"bool"}],"stateMutability":"nonpayable","type":"function"}],"evm":{"bytecode":{"linkReferences":{},"object":"6080604052348015600f57600080fd5b506001600081905550617ddb806100276000396000f3fe608060405234801561001057600080fd5b50600436106102065760003560e01c806391d148541161011a578063b99a9030116100ad578063d547741f1161007c578063d547741f146106a7578063e09bcae3146106c3578063e8639751146106f3578063ea0978ad14610723578063f57d585b1461075357610206565b8063b99a9030146105fb578063d03646941461062b578063d214ba741461065b578063d3751bfc1461068b57610206565b8063a296ea58116100e9578063a296ea5814610561578063a3f7e0961461057f578063ac678a93146105af578063b31a4af3146105df57610206565b806391d14854146104c55780639bce5751146104f5578063a1051dfe14610513578063a217fddf1461054357610206565b806336568abe1161019d57806362cd79981161016c57806362cd7998146103fb578063632c224b1461042b5780636a4af0fa1461045b57806375b9d8691461047957806388a8270f1461049557610206565b806336568abe1461034f57806336c691521461036b5780634a474b9c1461039b5780635d6a12ec146103cb57610206565b80632f2ff15d116101d95780632f2ff15d146102b757806330a3549a146102d357806334359da91461030357806334f9b3fb1461033357610206565b806301ffc9a71461020b5780630526ba551461023b57806320bd031614610257578063248a9ca314610287575b600080fd5b6102256004803603810190610220919061543f565b610783565b6040516102329190615487565b60405180910390f35b610255600480360381019061025091906154d8565b6107fd565b005b610271600480360381019061026c9190615518565b610a2c565b60405161027e9190615487565b60405180910390f35b6102a1600480360381019061029c919061557b565b610c1e565b6040516102ae91906155b7565b60405180910390f35b6102d160048036038101906102cc9190615630565b610c3e565b005b6102ed60048036038101906102e89190615967565b610c60565b6040516102fa9190615487565b60405180910390f35b61031d60048036038101906103189190615518565b610eb5565b60405161032a9190615ae0565b60405180910390f35b61034d60048036038101906103489190615b02565b610f72565b005b61036960048036038101906103649190615630565b6110c3565b005b61038560048036038101906103809190615b71565b61113e565b6040516103929190615bc0565b60405180910390f35b6103b560048036038101906103b09190615518565b61120c565b6040516103c29190615e94565b60405180910390f35b6103e560048036038101906103e09190615f79565b6114a7565b6040516103f29190615487565b60405180910390f35b61041560048036038101906104109190615518565b6116ba565b6040516104229190615ae0565b60405180910390f35b61044560048036038101906104409190615ffc565b611777565b6040516104529190615bc0565b60405180910390f35b61046361196f565b6040516104709190616230565b60405180910390f35b610493600480360381019061048e9190616252565b611d2a565b005b6104af60048036038101906104aa91906154d8565b611f64565b6040516104bc9190615487565b60405180910390f35b6104df60048036038101906104da9190615630565b61221e565b6040516104ec9190615487565b60405180910390f35b6104fd612289565b60405161050a9190616415565b60405180910390f35b61052d600480360381019061052891906154d8565b612435565b60405161053a9190615487565b60405180910390f35b61054b612789565b60405161055891906155b7565b60405180910390f35b610569612790565b6040516105769190616727565b60405180910390f35b61059960048036038101906105949190615518565b612b79565b6040516105a691906167d9565b60405180910390f35b6105c960048036038101906105c49190615518565b612ef6565b6040516105d69190616415565b60405180910390f35b6105f960048036038101906105f49190616856565b613042565b005b61061560048036038101906106109190615518565b61341e565b6040516106229190615487565b60405180910390f35b610645600480360381019061064091906168ca565b613459565b6040516106529190615487565b60405180910390f35b610675600480360381019061067091906169fe565b6136fc565b6040516106829190615487565b60405180910390f35b6106a560048036038101906106a09190616ac2565b613a33565b005b6106c160048036038101906106bc9190615630565b613e60565b005b6106dd60048036038101906106d891906154d8565b613e82565b6040516106ea9190615487565b60405180910390f35b61070d60048036038101906107089190615b02565b614177565b60405161071a9190615487565b60405180910390f35b61073d600480360381019061073891906154d8565b614276565b60405161074a9190615487565b60405180910390f35b61076d60048036038101906107689190615518565b614595565b60405161077a9190615487565b60405180910390f35b60007f7965db0b000000000000000000000000000000000000000000000000000000007bffffffffffffffffffffffffffffffffffffffffffffffffffffffff1916827bffffffffffffffffffffffffffffffffffffffffffffffffffffffff191614806107f657506107f582614903565b5b9050919050565b600061080761496d565b905080600701600083815260200190815260200160002060040160009054906101000a900460ff1661086e576040517f08c379a000000000000000000000000000000000000000000000000000000000815260040161086590616bbe565b60405180910390fd5b60005b81600b0160003373ffffffffffffffffffffffffffffffffffffffff1673ffffffffffffffffffffffffffffffffffffffff16815260200190815260200160002060008581526020019081526020016000208054905081101561098b578282600b0160003373ffffffffffffffffffffffffffffffffffffffff1673ffffffffffffffffffffffffffffffffffffffff1681526020019081526020016000206000868152602001908152602001600020828154811061093357610932616bde565b5b90600052602060002001540361097e576040517f08c379a000000000000000000000000000000000000000000000000000000000815260040161097590616c59565b60405180910390fd5b8080600101915050610871565b504281600d0160003373ffffffffffffffffffffffffffffffffffffffff1673ffffffffffffffffffffffffffffffffffffffff1681526020019081526020016000206000848152602001908152602001600020819055503373ffffffffffffffffffffffffffffffffffffffff16827f7c8fb360d28a1dffdf468443423d871df382ddd64b5934cc55bd9bd18cd65f9c60405160405180910390a3505050565b6000610a3661499a565b6000610a4061496d565b90506000610a4c6149e0565b905081600901600085815260200190815260200160002060003373ffffffffffffffffffffffffffffffffffffffff1673ffffffffffffffffffffffffffffffffffffffff16815260200190815260200160002060009054906101000a900460ff16610aed576040517f08c379a0000000000000000000000000000000000000000000000000000000008152600401610ae490616cc5565b60405180910390fd5b60008160050160008681526020019081526020016000209050600082600e018681548110610b1e57610b1d616bde565b5b90600052602060002090600802019050610b3b8260060133614a0d565b610b488160060133614a0d565b600084600901600088815260200190815260200160002060003373ffffffffffffffffffffffffffffffffffffffff1673ffffffffffffffffffffffffffffffffffffffff16815260200190815260200160002060006101000a81548160ff021916908315150217905550610bc533671bc16d674ec80000614baa565b3373ffffffffffffffffffffffffffffffffffffffff16867f9b244c565b926d7f4e915b69f3a5c6afc2231322d0d44e821076ad8879d0d68360405160405180910390a36001945050505050610c19614be0565b919050565b600060016000838152602001908152602001600020600101549050919050565b610c4782610c1e565b610c5081614bea565b610c5a8383614bfe565b50505050565b60007fadb22091b155738d2e889eb96f509d2a7c93234236b30400927feb4a6a15ab00610c8c81614bea565b6000610c9661496d565b905060008160050160008981526020019081526020016000206001015403610cf3576040517f08c379a0000000000000000000000000000000000000000000000000000000008152600401610cea90616d31565b60405180910390fd5b858160050160008981526020019081526020016000206002019081610d189190616f5d565b50848160050160008981526020019081526020016000206003019081610d3e9190616f5d565b50600084511115610e6f57600a84511115610d8e576040517f08c379a0000000000000000000000000000000000000000000000000000000008152600401610d859061707b565b60405180910390fd5b60005b8451811015610e4f57848181518110610dad57610dac616bde565b5b60200260200101518260050160008a815260200190815260200160002060040182600a8110610ddf57610dde616bde565b5b6003020160008201518160000160006101000a81548160ff02191690836002811115610e0e57610e0d616483565b5b02179055506020820151816001019081610e289190616f5d565b506040820151816002019081610e3e9190616f5d565b509050508080600101915050610d91565b508351816005016000898152602001908152602001600020602201819055505b867f2a39a7cf20a19c3cd9811b72b89fab269dce3aa109f6d2a0631cd3e1f0457e5d87604051610e9f91906170d4565b60405180910390a2600192505050949350505050565b60606000610ec161496d565b905060008160020160003373ffffffffffffffffffffffffffffffffffffffff1673ffffffffffffffffffffffffffffffffffffffff1681526020019081526020016000206000858152602001908152602001600020805480602002602001604051908101604052809291908181526020018280548015610f6157602002820191906000526020600020905b815481526020019060010190808311610f4d575b505050505090508092505050919050565b7fadb22091b155738d2e889eb96f509d2a7c93234236b30400927feb4a6a15ab00610f9c81614bea565b6000610fa661496d565b905060008160070160008681526020019081526020016000206001015403611003576040517f08c379a0000000000000000000000000000000000000000000000000000000008152600401610ffa90617142565b60405180910390fd5b83816007016000868152602001908152602001600020600101541461105d576040517f08c379a0000000000000000000000000000000000000000000000000000000008152600401611054906171ae565b60405180910390fd5b8281600701600086815260200190815260200160002060020190816110829190616f5d565b5083857fad5fab99ac4d99e1061fd121b36537d5213be564a3dc6cc383897dc355e89ff5856040516110b491906170d4565b60405180910390a35050505050565b6110cb614cef565b73ffffffffffffffffffffffffffffffffffffffff168173ffffffffffffffffffffffffffffffffffffffff161461112f576040517f6697b23200000000000000000000000000000000000000000000000000000000815260040160405180910390fd5b6111398282614cf7565b505050565b60008061114961496d565b905080600701600085815260200190815260200160002060040160009054906101000a900460ff166111b0576040517f08c379a00000000000000000000000000000000000000000000000000000000081526004016111a790616bbe565b60405180910390fd5b80600d0160008473ffffffffffffffffffffffffffffffffffffffff1673ffffffffffffffffffffffffffffffffffffffff16815260200190815260200160002060008581526020019081526020016000205491505092915050565b6060600061121861496d565b905080600701600084815260200190815260200160002060040160009054906101000a900460ff1661127f576040517f08c379a000000000000000000000000000000000000000000000000000000000815260040161127690616bbe565b60405180910390fd5b806007016000848152602001908152602001600020600301805480602002602001604051908101604052809291908181526020016000905b8282101561149b578382906000526020600020906004020160405180608001604052908160008201548152602001600182015481526020016002820180546112fe90616d80565b80601f016020809104026020016040519081016040528092919081815260200182805461132a90616d80565b80156113775780601f1061134c57610100808354040283529160200191611377565b820191906000526020600020905b81548152906001019060200180831161135a57829003601f168201915b5050505050815260200160038201805480602002602001604051908101604052809291908181526020016000905b8282101561148457838290600052602060002090600202016040518060400160405290816000820180546113d890616d80565b80601f016020809104026020016040519081016040528092919081815260200182805461140490616d80565b80156114515780601f1061142657610100808354040283529160200191611451565b820191906000526020600020905b81548152906001019060200180831161143457829003601f168201915b505050505081526020016001820160009054906101000a900460ff161515151581525050815260200190600101906113a5565b5050505081525050815260200190600101906112b7565b50505050915050919050565b6000806114b261496d565b905080600701600086815260200190815260200160002060040160009054906101000a900460ff16611519576040517f08c379a000000000000000000000000000000000000000000000000000000000815260040161151090616bbe565b60405180910390fd5b604b831061165d57600181600a01600087815260200190815260200160002060003373ffffffffffffffffffffffffffffffffffffffff1673ffffffffffffffffffffffffffffffffffffffff16815260200190815260200160002060006101000a81548160ff0219169083151502179055508281600c0160003373ffffffffffffffffffffffffffffffffffffffff1673ffffffffffffffffffffffffffffffffffffffff16815260200190815260200160002060008781526020019081526020016000208190555080600b0160003373ffffffffffffffffffffffffffffffffffffffff1673ffffffffffffffffffffffffffffffffffffffff16815260200190815260200160002060008781526020019081526020016000208590806001815401808255809150506001900390600052602060002001600090919091909150555b3373ffffffffffffffffffffffffffffffffffffffff167fcce9b9ed7e05afc64f73f1ce3f6ff1011a740b718ae6277a14698a4ef2d62dbf86856040516116a59291906171ce565b60405180910390a26001915050949350505050565b606060006116c661496d565b9050600081600b0160003373ffffffffffffffffffffffffffffffffffffffff1673ffffffffffffffffffffffffffffffffffffffff168152602001908152602001600020600085815260200190815260200160002080548060200260200160405190810160405280929190818152602001828054801561176657602002820191906000526020600020905b815481526020019060010190808311611752575b505050505090508092505050919050565b60008061178261496d565b9050600061178e614dea565b905060008160000160030154905082600501600087815260200190815260200160002060230160009054906101000a900460ff16611801576040517f08c379a00000000000000000000000000000000000000000000000000000000081526004016117f890617243565b60405180910390fd5b600083600701600083815260200190815260200160002090508681600001819055508181600101819055508581600201908161183d9190616f5d565b5060018160040160006101000a81548160ff02191690831515021790555082600001600301600081548092919061187390617292565b9190505550836012018190806001815401808255809150506001900390600052602060002090600602016000909190919091506000820154816000015560018201548160010155600282018160020190816118ce91906172f0565b5060038201816003019080546118e5929190614f60565b506004820160009054906101000a900460ff168160040160006101000a81548160ff0219169083151502179055506005820154816005015550508560405161192d9190617414565b6040518091039020827fbf27702cefbc4aea50d7c73cfee96f84f5b908f62aeafcd8b0aeae202c15050960405160405180910390a38194505050505092915050565b6060600061197b61496d565b90506000611987614dea565b905060008160000160030154905060008167ffffffffffffffff8111156119b1576119b061568b565b5b6040519080825280602002602001820160405280156119ea57816020015b6119d7614ff8565b8152602001906001900390816119cf5790505b50905060005b82811015611d1f578460070160008281526020019081526020016000206040518060c00160405290816000820154815260200160018201548152602001600282018054611a3c90616d80565b80601f0160208091040260200160405190810160405280929190818152602001828054611a6890616d80565b8015611ab55780601f10611a8a57610100808354040283529160200191611ab5565b820191906000526020600020905b815481529060010190602001808311611a9857829003601f168201915b5050505050815260200160038201805480602002602001604051908101604052809291908181526020016000905b82821015611cc757838290600052602060002090600402016040518060800160405290816000820154815260200160018201548152602001600282018054611b2a90616d80565b80601f0160208091040260200160405190810160405280929190818152602001828054611b5690616d80565b8015611ba35780601f10611b7857610100808354040283529160200191611ba3565b820191906000526020600020905b815481529060010190602001808311611b8657829003601f168201915b5050505050815260200160038201805480602002602001604051908101604052809291908181526020016000905b82821015611cb05783829060005260206000209060020201604051806040016040529081600082018054611c0490616d80565b80601f0160208091040260200160405190810160405280929190818152602001828054611c3090616d80565b8015611c7d5780601f10611c5257610100808354040283529160200191611c7d565b820191906000526020600020905b815481529060010190602001808311611c6057829003601f168201915b505050505081526020016001820160009054906101000a900460ff16151515158152505081526020019060010190611bd1565b505050508152505081526020019060010190611ae3565b5050505081526020016004820160009054906101000a900460ff16151515158152602001600582015481525050828281518110611d0757611d06616bde565b5b602002602001018190525080806001019150506119f0565b508094505050505090565b6000611d3461496d565b90506000611d40614dea565b905060008160000160020154905082600301600087815260200190815260200160002060040160009054906101000a900460ff16611db3576040517f08c379a0000000000000000000000000000000000000000000000000000000008152600401611daa90617477565b60405180910390fd5b6000836005016000838152602001908152602001600020905086816000018190555081816001018190555085816002019081611def9190616f5d565b5084816003019081611e019190616f5d565b5060018160230160006101000a81548160ff02191690831515021790555060008160220181905550836010018460050160008481526020019081526020016000209080600181540180825580915050600190039060005260206000209060240201600090919091909150600082015481600001556001820154816001015560028201816002019081611e9391906172f0565b5060038201816003019081611ea891906172f0565b50600482018160040190600a611ebf929190615030565b50602282015481602201556023820160009054906101000a900460ff168160230160006101000a81548160ff0219169083151502179055505050826000016002016000815480929190611f1190617292565b9190505550600a86604051611f269190617414565b6040518091039020837f3387c3a40ec1df95e34d25a0e5564b40d01c331b71ccbafccccc66d36c84ad8360405160405180910390a450505050505050565b60007fadb22091b155738d2e889eb96f509d2a7c93234236b30400927feb4a6a15ab00611f9081614bea565b6000611f9a61496d565b905060008160070160008781526020019081526020016000206001015403611ff7576040517f08c379a0000000000000000000000000000000000000000000000000000000008152600401611fee90616bbe565b60405180910390fd5b60008160080160008681526020019081526020016000206001015403612052576040517f08c379a0000000000000000000000000000000000000000000000000000000008152600401612049906174e3565b60405180910390fd5b60005b816013018054905081101561219b578482601301828154811061207b5761207a616bde565b5b9060005260206000209060040201600101540361218e5781601301600183601301805490506120aa9190617503565b815481106120bb576120ba616bde565b5b90600052602060002090600402018260130182815481106120df576120de616bde565b5b906000526020600020906004020160008201548160000155600182015481600101556002820181600201908161211591906172f0565b50600382018160030190805461212c9291906150da565b509050508160130180548061214457612143617537565b5b600190038181906000526020600020906004020160008082016000905560018201600090556002820160006121799190615174565b60038201600061218991906151b4565b505090555b8080600101915050612055565b5080600801600085815260200190815260200160002060008082016000905560018201600090556002820160006121d29190615174565b6003820160006121e291906151b4565b505083857ff084fa19916f58d56801346cc04ca2d2c28a5531dc7db17ebd2323685518b12660405160405180910390a360019250505092915050565b60006001600084815260200190815260200160002060000160008373ffffffffffffffffffffffffffffffffffffffff1673ffffffffffffffffffffffffffffffffffffffff16815260200190815260200160002060009054906101000a900460ff16905092915050565b6060600061229561496d565b9050600081600f0180549050905060008167ffffffffffffffff8111156122bf576122be61568b565b5b6040519080825280602002602001820160405280156122f857816020015b6122e56151d8565b8152602001906001900390816122dd5790505b50905060005b8281101561242b5783600f01818154811061231c5761231b616bde565b5b90600052602060002090600502016040518060a0016040529081600082015481526020016001820154815260200160028201805461235990616d80565b80601f016020809104026020016040519081016040528092919081815260200182805461238590616d80565b80156123d25780601f106123a7576101008083540402835291602001916123d2565b820191906000526020600020905b8154815290600101906020018083116123b557829003601f168201915b50505050508152602001600382015481526020016004820160009054906101000a900460ff16151515158152505082828151811061241357612412616bde565b5b602002602001018190525080806001019150506122fe565b5080935050505090565b60007fadb22091b155738d2e889eb96f509d2a7c93234236b30400927feb4a6a15ab0061246181614bea565b600061246b61496d565b9050600081600301600087815260200190815260200160002060010154036124c8576040517f08c379a00000000000000000000000000000000000000000000000000000000081526004016124bf906175b2565b60405180910390fd5b60008160050160008681526020019081526020016000206001015403612523576040517f08c379a000000000000000000000000000000000000000000000000000000000815260040161251a9061761e565b60405180910390fd5b60005b81600f018054905081116126da578482600501600083815260200190815260200160002060010154036126c757816010016001836010018054905061256b9190617503565b8154811061257c5761257b616bde565b5b90600052602060002090602402018260100182815481106125a05761259f616bde565b5b90600052602060002090602402016000820154816000015560018201548160010155600282018160020190816125d691906172f0565b50600382018160030190816125eb91906172f0565b50600482018160040190600a612602929190615030565b50602282015481602201556023820160009054906101000a900460ff168160230160006101000a81548160ff0219169083151502179055509050508160100180548061265157612650617537565b5b600190038181906000526020600020906024020160008082016000905560018201600090556002820160006126869190615174565b6003820160006126969190615174565b6004820160006126a69190615209565b60228201600090556023820160006101000a81549060ff0219169055505090555b80806126d290617292565b915050612526565b5080600501600085815260200190815260200160002060008082016000905560018201600090556002820160006127119190615174565b6003820160006127219190615174565b6004820160006127319190615209565b60228201600090556023820160006101000a81549060ff0219169055505083857f1cdc2ff39034471047dd6d36512a12b5c2e9a30137b2e45daecd05383221d97b60405160405180910390a360019250505092915050565b6000801b81565b6060600061279c61496d565b905060008160100180549050905060008167ffffffffffffffff8111156127c6576127c561568b565b5b6040519080825280602002602001820160405280156127ff57816020015b6127ec61521f565b8152602001906001900390816127e45790505b50905060005b82811015612b6f5783601001818154811061282357612822616bde565b5b90600052602060002090602402016040518060e0016040529081600082015481526020016001820154815260200160028201805461286090616d80565b80601f016020809104026020016040519081016040528092919081815260200182805461288c90616d80565b80156128d95780601f106128ae576101008083540402835291602001916128d9565b820191906000526020600020905b8154815290600101906020018083116128bc57829003601f168201915b505050505081526020016003820180546128f290616d80565b80601f016020809104026020016040519081016040528092919081815260200182805461291e90616d80565b801561296b5780601f106129405761010080835404028352916020019161296b565b820191906000526020600020905b81548152906001019060200180831161294e57829003601f168201915b5050505050815260200160048201600a80602002604051908101604052809291906000905b82821015612b17578382600302016040518060600160405290816000820160009054906101000a900460ff1660028111156129ce576129cd616483565b5b60028111156129e0576129df616483565b5b81526020016001820180546129f490616d80565b80601f0160208091040260200160405190810160405280929190818152602001828054612a2090616d80565b8015612a6d5780601f10612a4257610100808354040283529160200191612a6d565b820191906000526020600020905b815481529060010190602001808311612a5057829003601f168201915b50505050508152602001600282018054612a8690616d80565b80601f0160208091040260200160405190810160405280929190818152602001828054612ab290616d80565b8015612aff5780601f10612ad457610100808354040283529160200191612aff565b820191906000526020600020905b815481529060010190602001808311612ae257829003601f168201915b50505050508152505081526020019060010190612990565b505050508152602001602282015481526020016023820160009054906101000a900460ff161515151581525050828281518110612b5757612b56616bde565b5b60200260200101819052508080600101915050612805565b5080935050505090565b612b81614ff8565b6000612b8b61496d565b905080600701600084815260200190815260200160002060040160009054906101000a900460ff16612bf2576040517f08c379a0000000000000000000000000000000000000000000000000000000008152600401612be990616bbe565b60405180910390fd5b8060070160008481526020019081526020016000206040518060c00160405290816000820154815260200160018201548152602001600282018054612c3690616d80565b80601f0160208091040260200160405190810160405280929190818152602001828054612c6290616d80565b8015612caf5780601f10612c8457610100808354040283529160200191612caf565b820191906000526020600020905b815481529060010190602001808311612c9257829003601f168201915b5050505050815260200160038201805480602002602001604051908101604052809291908181526020016000905b82821015612ec157838290600052602060002090600402016040518060800160405290816000820154815260200160018201548152602001600282018054612d2490616d80565b80601f0160208091040260200160405190810160405280929190818152602001828054612d5090616d80565b8015612d9d5780601f10612d7257610100808354040283529160200191612d9d565b820191906000526020600020905b815481529060010190602001808311612d8057829003601f168201915b5050505050815260200160038201805480602002602001604051908101604052809291908181526020016000905b82821015612eaa5783829060005260206000209060020201604051806040016040529081600082018054612dfe90616d80565b80601f0160208091040260200160405190810160405280929190818152602001828054612e2a90616d80565b8015612e775780601f10612e4c57610100808354040283529160200191612e77565b820191906000526020600020905b815481529060010190602001808311612e5a57829003601f168201915b505050505081526020016001820160009054906101000a900460ff16151515158152505081526020019060010190612dcb565b505050508152505081526020019060010190612cdd565b5050505081526020016004820160009054906101000a900460ff16151515158152602001600582015481525050915050919050565b60606000612f0261496d565b9050806004016000848152602001908152602001600020805480602002602001604051908101604052809291908181526020016000905b8282101561303657838290600052602060002090600502016040518060a00160405290816000820154815260200160018201548152602001600282018054612f8090616d80565b80601f0160208091040260200160405190810160405280929190818152602001828054612fac90616d80565b8015612ff95780601f10612fce57610100808354040283529160200191612ff9565b820191906000526020600020905b815481529060010190602001808311612fdc57829003601f168201915b50505050508152602001600382015481526020016004820160009054906101000a900460ff16151515158152505081526020019060010190612f39565b50505050915050919050565b600061304c61496d565b9050600081600501600087815260200190815260200160002090508060230160009054906101000a900460ff166130b8576040517f08c379a00000000000000000000000000000000000000000000000000000000081526004016130af9061768a565b60405180910390fd5b600081602201549050600a85859050826130d291906176aa565b1115613113576040517f08c379a000000000000000000000000000000000000000000000000000000000815260040161310a9061772a565b60405180910390fd5b60005b8585905081101561330457604051806060016040528087878481811061313f5761313e616bde565b5b90506020028101906131519190617759565b60000160208101906131639190617781565b600281111561317557613174616483565b5b815260200187878481811061318d5761318c616bde565b5b905060200281019061319f9190617759565b80602001906131ae91906177ae565b8080601f016020809104026020016040519081016040528093929190818152602001838380828437600081840152601f19601f82011690508083019250505050505050815260200187878481811061320957613208616bde565b5b905060200281019061321b9190617759565b806040019061322a91906177ae565b8080601f016020809104026020016040519081016040528093929190818152602001838380828437600081840152601f19601f820116905080830192505050505050508152508360040183600a811061328657613285616bde565b5b6003020160008201518160000160006101000a81548160ff021916908360028111156132b5576132b4616483565b5b021790555060208201518160010190816132cf9190616f5d565b5060408201518160020190816132e59190616f5d565b5090505081806132f490617292565b9250508080600101915050613116565b5080826022018190555060005b8360100180549050811015613414578784601001828154811061333757613336616bde565b5b90600052602060002090602402016001015403613407578284601001828154811061336557613364616bde565b5b906000526020600020906024020160008201548160000155600182015481600101556002820181600201908161339b91906172f0565b50600382018160030190816133b091906172f0565b50600482018160040190600a6133c7929190615030565b50602282015481602201556023820160009054906101000a900460ff168160230160006101000a81548160ff021916908315150217905550905050613414565b8080600101915050613311565b5050505050505050565b60008061342961496d565b905080600701600084815260200190815260200160002060040160009054906101000a900460ff16915050919050565b60008061346461496d565b905080600001600084815260200190815260200160002060003373ffffffffffffffffffffffffffffffffffffffff1673ffffffffffffffffffffffffffffffffffffffff16815260200190815260200160002060009054906101000a900460ff1615613506576040517f08c379a00000000000000000000000000000000000000000000000000000000081526004016134fd9061785d565b60405180910390fd5b80600501600084815260200190815260200160002060230160009054906101000a900460ff1661356b576040517f08c379a00000000000000000000000000000000000000000000000000000000081526004016135629061761e565b60405180910390fd5b600181600001600085815260200190815260200160002060003373ffffffffffffffffffffffffffffffffffffffff1673ffffffffffffffffffffffffffffffffffffffff16815260200190815260200160002060006101000a81548160ff0219169083151502179055508060010160003373ffffffffffffffffffffffffffffffffffffffff1673ffffffffffffffffffffffffffffffffffffffff1681526020019081526020016000208390806001815401808255809150506001900390600052602060002001600090919091909150558060020160003373ffffffffffffffffffffffffffffffffffffffff1673ffffffffffffffffffffffffffffffffffffffff168152602001908152602001600020600086815260200190815260200160002083908060018154018082558091505060019003906000526020600020016000909190919091505582847f2479aa0d18311382446edb0fa11d0dbd5bab1be78b1e60b343ffe4d2a5f798ad336040516136e8919061788c565b60405180910390a360019150509392505050565b60008061370761496d565b905060006137136149e0565b9050600061371f614dea565b9050600073ffffffffffffffffffffffffffffffffffffffff1682600501600089815260200190815260200160002060050160009054906101000a900473ffffffffffffffffffffffffffffffffffffffff1673ffffffffffffffffffffffffffffffffffffffff16036137c8576040517f08c379a00000000000000000000000000000000000000000000000000000000081526004016137bf906178f3565b60405180910390fd5b60005b86518110156139f55760006040518060a001604052808a81526020018460000160010154815260200189848151811061380757613806616bde565b5b6020026020010151815260200188848151811061382757613826616bde565b5b6020026020010151815260200160011515815250905084600f01819080600181540180825580915050600190039060005260206000209060050201600090919091909150600082015181600001556020820151816001015560408201518160020190816138949190616f5d565b506060820151816003015560808201518160040160006101000a81548160ff02191690831515021790555050508085600301600085600001600101548152602001908152602001600020600082015181600001556020820151816001015560408201518160020190816139079190616f5d565b506060820151816003015560808201518160040160006101000a81548160ff0219169083151502179055509050508460040160008a81526020019081526020016000208190806001815401808255809150506001900390600052602060002090600502016000909190919091506000820151816000015560208201518160010155604082015181600201908161399d9190616f5d565b506060820151816003015560808201518160040160006101000a81548160ff02191690831515021790555050508260000160010160008154809291906139e290617292565b91905055505080806001019150506137cb565b508551877f1eb97e969f52c132bb6c79817d1f9001078fff0cd328ce625628e1fb4cc0e7de60405160405180910390a3600193505050509392505050565b6000613a3d61496d565b90506000613a49614dea565b905081600701600087815260200190815260200160002060040160009054906101000a900460ff16613ab0576040517f08c379a0000000000000000000000000000000000000000000000000000000008152600401613aa790616bbe565b60405180910390fd5b60008451118015613ac357506004845111155b613b02576040517f08c379a0000000000000000000000000000000000000000000000000000000008152600401613af99061795f565b60405180910390fd5b83518360ff1610613b48576040517f08c379a0000000000000000000000000000000000000000000000000000000008152600401613b3f906179cb565b60405180910390fd5b6000816000016004015490506000836008016000838152602001908152602001600020905087816000018190555081816001018190555086816002019081613b909190616f5d565b5060005b86518160ff161015613c5a5760006040518060400160405280898460ff1681518110613bc357613bc2616bde565b5b602002602001015181526020018860ff168460ff161415158152509050826003018190806001815401808255809150506001900390600052602060002090600202016000909190919091506000820151816000019081613c239190616f5d565b5060208201518160010160006101000a81548160ff0219169083151502179055505050508080613c52906179eb565b915050613b94565b50836007016000898152602001908152602001600020600301819080600181540180825580915050600190039060005260206000209060040201600090919091909150600082015481600001556001820154816001015560028201816002019081613cc591906172f0565b506003820181600301908054613cdc9291906150da565b505050826000016004016000815480929190613cf790617292565b919050555083601301819080600181540180825580915050600190039060005260206000209060040201600090919091909150600082015481600001556001820154816001015560028201816002019081613d5291906172f0565b506003820181600301908054613d699291906150da565b5050507fa5bdacf4d1324fdd584bc65cf0315e4975d00b33a7ca0e6d0a73c88df8430b95888389604051613d9f93929190617a14565b60405180910390a160005b86518160ff161015613e36577f06ef0ba2ad58c9f8eef2fc98c08fd18d801c4a971eeb45afd07f0fee3f9d60c4838260ff168660000160050154613dee91906176aa565b898460ff1681518110613e0457613e03616bde565b5b6020026020010151604051613e1b93929190617a14565b60405180910390a18080613e2e906179eb565b915050613daa565b508551836000016005016000828254613e4f91906176aa565b925050819055505050505050505050565b613e6982610c1e565b613e7281614bea565b613e7c8383614cf7565b50505050565b60007fadb22091b155738d2e889eb96f509d2a7c93234236b30400927feb4a6a15ab00613eae81614bea565b6000613eb861496d565b90506000613ec46149e0565b905060008160050160008881526020019081526020016000206000015403613f21576040517f08c379a0000000000000000000000000000000000000000000000000000000008152600401613f1890617a9e565b60405180910390fd5b60008260030160008781526020019081526020016000206001015403613f7c576040517f08c379a0000000000000000000000000000000000000000000000000000000008152600401613f73906175b2565b60405180910390fd5b60005b82600f018054905081116140e7578583600301600083815260200190815260200160002060010154036140d45782600f01600184600f0180549050613fc49190617503565b81548110613fd557613fd4616bde565b5b906000526020600020906005020183600f018281548110613ff957613ff8616bde565b5b906000526020600020906005020160008201548160000155600182015481600101556002820181600201908161402f91906172f0565b50600382015481600301556004820160009054906101000a900460ff168160040160006101000a81548160ff02191690831515021790555090505082600f0180548061407e5761407d617537565b5b600190038181906000526020600020906005020160008082016000905560018201600090556002820160006140b39190615174565b60038201600090556004820160006101000a81549060ff0219169055505090555b80806140df90617292565b915050613f7f565b50816003016000868152602001908152602001600020600080820160009055600182016000905560028201600061411e9190615174565b60038201600090556004820160006101000a81549060ff0219169055505084867fab6d08543726a41eac26ac96d0b4591127baed3bfb915d2603ccb9fb2440c42560405160405180910390a36001935050505092915050565b60007fadb22091b155738d2e889eb96f509d2a7c93234236b30400927feb4a6a15ab006141a381614bea565b60006141ad61496d565b90506000816003016000878152602001908152602001600020600101540361420a576040517f08c379a000000000000000000000000000000000000000000000000000000000815260040161420190617b0a565b60405180910390fd5b83816003016000878152602001908152602001600020600201908161422f9190616f5d565b5084867f7714a2fe2221824dfd5cd15f7cc29e38ffefcf9b6ad62c216321afcde79cbcfb8660405161426191906170d4565b60405180910390a36001925050509392505050565b60007fadb22091b155738d2e889eb96f509d2a7c93234236b30400927feb4a6a15ab006142a281614bea565b60006142ac61496d565b905060008160050160008781526020019081526020016000206001015403614309576040517f08c379a00000000000000000000000000000000000000000000000000000000081526004016143009061761e565b60405180910390fd5b60008160070160008681526020019081526020016000206001015403614364576040517f08c379a000000000000000000000000000000000000000000000000000000000815260040161435b90617b76565b60405180910390fd5b60005b81600f018054905081116144f6578482600701600087815260200190815260200160002060010154036144e35781601201600183601201805490506143ac9190617503565b815481106143bd576143bc616bde565b5b90600052602060002090600602018260120182815481106143e1576143e0616bde565b5b906000526020600020906006020160008201548160000155600182015481600101556002820181600201908161441791906172f0565b50600382018160030190805461442e929190614f60565b506004820160009054906101000a900460ff168160040160006101000a81548160ff021916908315150217905550600582015481600501559050508160120180548061447d5761447c617537565b5b600190038181906000526020600020906006020160008082016000905560018201600090556002820160006144b29190615174565b6003820160006144c29190615264565b6004820160006101000a81549060ff02191690556005820160009055505090555b80806144ee90617292565b915050614367565b50806007016000858152602001908152602001600020600080820160009055600182016000905560028201600061452d9190615174565b60038201600061453d9190615264565b6004820160006101000a81549060ff02191690556005820160009055505083857f22a69f3183c2804ef4ff588b6321a6351c1863419286c584919ab8f923cbd5a460405160405180910390a360019250505092915050565b600061459f61499a565b60006145a961496d565b905060006145b56149e0565b905080600501600085815260200190815260200160002060030160009054906101000a900460ff1661461c576040517f08c379a000000000000000000000000000000000000000000000000000000000815260040161461390617be2565b60405180910390fd5b81600901600085815260200190815260200160002060003373ffffffffffffffffffffffffffffffffffffffff1673ffffffffffffffffffffffffffffffffffffffff16815260200190815260200160002060009054906101000a900460ff16156146bc576040517f08c379a00000000000000000000000000000000000000000000000000000000081526004016146b390617c4e565b60405180910390fd5b80600501600085815260200190815260200160002060050160149054906101000a900460ff16614721576040517f08c379a0000000000000000000000000000000000000000000000000000000008152600401614718906178f3565b60405180910390fd5b60008160050160008681526020019081526020016000209050600083600e01868154811061475257614751616bde565b5b9060005260206000209060080201905081600601339080600181540180825580915050600190039060005260206000200160009091909190916101000a81548173ffffffffffffffffffffffffffffffffffffffff021916908373ffffffffffffffffffffffffffffffffffffffff16021790555080600601339080600181540180825580915050600190039060005260206000200160009091909190916101000a81548173ffffffffffffffffffffffffffffffffffffffff021916908373ffffffffffffffffffffffffffffffffffffffff160217905550600184600901600088815260200190815260200160002060003373ffffffffffffffffffffffffffffffffffffffff1673ffffffffffffffffffffffffffffffffffffffff16815260200190815260200160002060006101000a81548160ff0219169083151502179055506148a933671bc16d674ec80000614e17565b503373ffffffffffffffffffffffffffffffffffffffff16867f4bf249f6b0ca5630ea4816c04b928b864a2065cb51658fd6223d83b727fd326b60405160405180910390a360019450505050506148fe614be0565b919050565b60007f01ffc9a7000000000000000000000000000000000000000000000000000000007bffffffffffffffffffffffffffffffffffffffffffffffffffffffff1916827bffffffffffffffffffffffffffffffffffffffffffffffffffffffff1916149050919050565b6000807f8c155b85251bd93c1fc2d59b5c65d36e3727b021d99d01ebea73246bff7e4a5890508091505090565b6002600054036149d6576040517f3ee5aeb500000000000000000000000000000000000000000000000000000000815260040160405180910390fd5b6002600081905550565b6000807f5d9ab6191fe9d5041816fb24ec4281e2d3989236339577e7fbbaf91315a1bb7190508091505090565b60005b8280549050811015614ba5578173ffffffffffffffffffffffffffffffffffffffff16838281548110614a4657614a45616bde565b5b9060005260206000200160009054906101000a900473ffffffffffffffffffffffffffffffffffffffff1673ffffffffffffffffffffffffffffffffffffffff1603614b985760018380549050614a9d9190617503565b8114614b4d578260018480549050614ab59190617503565b81548110614ac657614ac5616bde565b5b9060005260206000200160009054906101000a900473ffffffffffffffffffffffffffffffffffffffff16838281548110614b0457614b03616bde565b5b9060005260206000200160006101000a81548173ffffffffffffffffffffffffffffffffffffffff021916908373ffffffffffffffffffffffffffffffffffffffff1602179055505b82805480614b5e57614b5d617537565b5b6001900381819060005260206000200160006101000a81549073ffffffffffffffffffffffffffffffffffffffff02191690559055614ba5565b8080600101915050614a10565b505050565b6000614bb46149e0565b9050614bc08383614baa565b81816000016000828254614bd49190617503565b92505081905550505050565b6001600081905550565b614bfb81614bf6614cef565b614f0f565b50565b6000614c0a838361221e565b614ce457600180600085815260200190815260200160002060000160008473ffffffffffffffffffffffffffffffffffffffff1673ffffffffffffffffffffffffffffffffffffffff16815260200190815260200160002060006101000a81548160ff021916908315150217905550614c81614cef565b73ffffffffffffffffffffffffffffffffffffffff168273ffffffffffffffffffffffffffffffffffffffff16847f2f8788117e7eff1d82e926ec794901d17c78024a50270940304540a733656f0d60405160405180910390a460019050614ce9565b600090505b92915050565b600033905090565b6000614d03838361221e565b15614ddf5760006001600085815260200190815260200160002060000160008473ffffffffffffffffffffffffffffffffffffffff1673ffffffffffffffffffffffffffffffffffffffff16815260200190815260200160002060006101000a81548160ff021916908315150217905550614d7c614cef565b73ffffffffffffffffffffffffffffffffffffffff168273ffffffffffffffffffffffffffffffffffffffff16847ff6391f5c32d9c69d2a47ea670b442974b53935d1edc7fd64eb21e047a839171b60405160405180910390a460019050614de4565b600090505b92915050565b6000807f636d7913eb18e82fce1c8b9d3fc385ed328eaeac9ef5b2ce0d984f1c4878ec8690508091505090565b600080614e226149e0565b90506064600f6b204fce5e3e25026110000000614e3f9190617c6e565b614e499190617cdf565b816000015484614e5991906176aa565b1115614e9a576040517f08c379a0000000000000000000000000000000000000000000000000000000008152600401614e9190617d5c565b60405180910390fd5b614ea48484614e17565b5082816000016000828254614eb991906176aa565b92505081905550828473ffffffffffffffffffffffffffffffffffffffff167fad6ef58d5c294f81258965738e7ae511124139834a8d0b8f8f7327086c82052a60405160405180910390a3600191505092915050565b614f19828261221e565b614f5c5780826040517fe2517d3f000000000000000000000000000000000000000000000000000000008152600401614f53929190617d7c565b60405180910390fd5b5050565b828054828255906000526020600020906004028101928215614fe75760005260206000209160040282015b82811115614fe6578282600082015481600001556001820154816001015560028201816002019081614fbd91906172f0565b506003820181600301908054614fd49291906150da565b50505091600401919060040190614f8b565b5b509050614ff49190615288565b5090565b6040518060c0016040528060008152602001600081526020016060815260200160608152602001600015158152602001600081525090565b82600a60030281019282156150c9579160030282015b828111156150c85782826000820160009054906101000a900460ff168160000160006101000a81548160ff0219169083600281111561508857615087616483565b5b0217905550600182018160010190816150a191906172f0565b50600282018160020190816150b691906172f0565b50505091600301919060030190615046565b5b5090506150d691906152cf565b5090565b8280548282559060005260206000209060020281019282156151635760005260206000209160020282015b828111156151625782826000820181600001908161512391906172f0565b506001820160009054906101000a900460ff168160010160006101000a81548160ff021916908315150217905550505091600201919060020190615105565b5b509050615170919061531a565b5090565b50805461518090616d80565b6000825580601f1061519257506151b1565b601f0160209004906000526020600020908101906151b09190615355565b5b50565b50805460008255600202906000526020600020908101906151d5919061531a565b50565b6040518060a00160405280600081526020016000815260200160608152602001600081526020016000151581525090565b5080600a600302019061521c91906152cf565b50565b6040518060e001604052806000815260200160008152602001606081526020016060815260200161524e615372565b8152602001600081526020016000151581525090565b50805460008255600402906000526020600020908101906152859190615288565b50565b5b808211156152cb5760008082016000905560018201600090556002820160006152b29190615174565b6003820160006152c291906151b4565b50600401615289565b5090565b5b8082111561531657600080820160006101000a81549060ff02191690556001820160006152fd9190615174565b60028201600061530d9190615174565b506003016152d0565b5090565b5b8082111561535157600080820160006153349190615174565b6001820160006101000a81549060ff02191690555060020161531b565b5090565b5b8082111561536e576000816000905550600101615356565b5090565b604051806101400160405280600a905b61538a6153a0565b8152602001906001900390816153825790505090565b6040518060600160405280600060028111156153bf576153be616483565b5b815260200160608152602001606081525090565b6000604051905090565b600080fd5b600080fd5b60007fffffffff0000000000000000000000000000000000000000000000000000000082169050919050565b61541c816153e7565b811461542757600080fd5b50565b60008135905061543981615413565b92915050565b600060208284031215615455576154546153dd565b5b60006154638482850161542a565b91505092915050565b60008115159050919050565b6154818161546c565b82525050565b600060208201905061549c6000830184615478565b92915050565b6000819050919050565b6154b5816154a2565b81146154c057600080fd5b50565b6000813590506154d2816154ac565b92915050565b600080604083850312156154ef576154ee6153dd565b5b60006154fd858286016154c3565b925050602061550e858286016154c3565b9150509250929050565b60006020828403121561552e5761552d6153dd565b5b600061553c848285016154c3565b91505092915050565b6000819050919050565b61555881615545565b811461556357600080fd5b50565b6000813590506155758161554f565b92915050565b600060208284031215615591576155906153dd565b5b600061559f84828501615566565b91505092915050565b6155b181615545565b82525050565b60006020820190506155cc60008301846155a8565b92915050565b600073ffffffffffffffffffffffffffffffffffffffff82169050919050565b60006155fd826155d2565b9050919050565b61560d816155f2565b811461561857600080fd5b50565b60008135905061562a81615604565b92915050565b60008060408385031215615647576156466153dd565b5b600061565585828601615566565b92505060206156668582860161561b565b9150509250929050565b600080fd5b600080fd5b6000601f19601f8301169050919050565b7f4e487b7100000000000000000000000000000000000000000000000000000000600052604160045260246000fd5b6156c38261567a565b810181811067ffffffffffffffff821117156156e2576156e161568b565b5b80604052505050565b60006156f56153d3565b905061570182826156ba565b919050565b600067ffffffffffffffff8211156157215761572061568b565b5b61572a8261567a565b9050602081019050919050565b82818337600083830152505050565b600061575961575484615706565b6156eb565b90508281526020810184848401111561577557615774615675565b5b615780848285615737565b509392505050565b600082601f83011261579d5761579c615670565b5b81356157ad848260208601615746565b91505092915050565b600067ffffffffffffffff8211156157d1576157d061568b565b5b602082029050602081019050919050565b600080fd5b600080fd5b600080fd5b600381106157fe57600080fd5b50565b600081359050615810816157f1565b92915050565b60006060828403121561582c5761582b6157e7565b5b61583660606156eb565b9050600061584684828501615801565b600083015250602082013567ffffffffffffffff81111561586a576158696157ec565b5b61587684828501615788565b602083015250604082013567ffffffffffffffff81111561589a576158996157ec565b5b6158a684828501615788565b60408301525092915050565b60006158c56158c0846157b6565b6156eb565b905080838252602082019050602084028301858111156158e8576158e76157e2565b5b835b8181101561592f57803567ffffffffffffffff81111561590d5761590c615670565b5b80860161591a8982615816565b855260208501945050506020810190506158ea565b5050509392505050565b600082601f83011261594e5761594d615670565b5b813561595e8482602086016158b2565b91505092915050565b60008060008060808587031215615981576159806153dd565b5b600061598f878288016154c3565b945050602085013567ffffffffffffffff8111156159b0576159af6153e2565b5b6159bc87828801615788565b935050604085013567ffffffffffffffff8111156159dd576159dc6153e2565b5b6159e987828801615788565b925050606085013567ffffffffffffffff811115615a0a57615a096153e2565b5b615a1687828801615939565b91505092959194509250565b600081519050919050565b600082825260208201905092915050565b6000819050602082019050919050565b615a57816154a2565b82525050565b6000615a698383615a4e565b60208301905092915050565b6000602082019050919050565b6000615a8d82615a22565b615a978185615a2d565b9350615aa283615a3e565b8060005b83811015615ad3578151615aba8882615a5d565b9750615ac583615a75565b925050600181019050615aa6565b5085935050505092915050565b60006020820190508181036000830152615afa8184615a82565b905092915050565b600080600060608486031215615b1b57615b1a6153dd565b5b6000615b29868287016154c3565b9350506020615b3a868287016154c3565b925050604084013567ffffffffffffffff811115615b5b57615b5a6153e2565b5b615b6786828701615788565b9150509250925092565b60008060408385031215615b8857615b876153dd565b5b6000615b96858286016154c3565b9250506020615ba78582860161561b565b9150509250929050565b615bba816154a2565b82525050565b6000602082019050615bd56000830184615bb1565b92915050565b600081519050919050565b600082825260208201905092915050565b6000819050602082019050919050565b600081519050919050565b600082825260208201905092915050565b60005b83811015615c41578082015181840152602081019050615c26565b60008484015250505050565b6000615c5882615c07565b615c628185615c12565b9350615c72818560208601615c23565b615c7b8161567a565b840191505092915050565b600081519050919050565b600082825260208201905092915050565b6000819050602082019050919050565b615cbb8161546c565b82525050565b60006040830160008301518482036000860152615cde8282615c4d565b9150506020830151615cf36020860182615cb2565b508091505092915050565b6000615d0a8383615cc1565b905092915050565b6000602082019050919050565b6000615d2a82615c86565b615d348185615c91565b935083602082028501615d4685615ca2565b8060005b85811015615d825784840389528151615d638582615cfe565b9450615d6e83615d12565b925060208a01995050600181019050615d4a565b50829750879550505050505092915050565b6000608083016000830151615dac6000860182615a4e565b506020830151615dbf6020860182615a4e565b5060408301518482036040860152615dd78282615c4d565b91505060608301518482036060860152615df18282615d1f565b9150508091505092915050565b6000615e0a8383615d94565b905092915050565b6000602082019050919050565b6000615e2a82615bdb565b615e348185615be6565b935083602082028501615e4685615bf7565b8060005b85811015615e825784840389528151615e638582615dfe565b9450615e6e83615e12565b925060208a01995050600181019050615e4a565b50829750879550505050505092915050565b60006020820190508181036000830152615eae8184615e1f565b905092915050565b600067ffffffffffffffff821115615ed157615ed061568b565b5b602082029050602081019050919050565b6000615ef5615ef084615eb6565b6156eb565b90508083825260208201905060208402830185811115615f1857615f176157e2565b5b835b81811015615f415780615f2d88826154c3565b845260208401935050602081019050615f1a565b5050509392505050565b600082601f830112615f6057615f5f615670565b5b8135615f70848260208601615ee2565b91505092915050565b60008060008060808587031215615f9357615f926153dd565b5b6000615fa1878288016154c3565b9450506020615fb2878288016154c3565b935050604085013567ffffffffffffffff811115615fd357615fd26153e2565b5b615fdf87828801615f4b565b9250506060615ff0878288016154c3565b91505092959194509250565b60008060408385031215616013576160126153dd565b5b6000616021858286016154c3565b925050602083013567ffffffffffffffff811115616042576160416153e2565b5b61604e85828601615788565b9150509250929050565b600081519050919050565b600082825260208201905092915050565b6000819050602082019050919050565b600082825260208201905092915050565b60006160a082615bdb565b6160aa8185616084565b9350836020820285016160bc85615bf7565b8060005b858110156160f857848403895281516160d98582615dfe565b94506160e483615e12565b925060208a019950506001810190506160c0565b50829750879550505050505092915050565b600060c0830160008301516161226000860182615a4e565b5060208301516161356020860182615a4e565b506040830151848203604086015261614d8282615c4d565b915050606083015184820360608601526161678282616095565b915050608083015161617c6080860182615cb2565b5060a083015161618f60a0860182615a4e565b508091505092915050565b60006161a6838361610a565b905092915050565b6000602082019050919050565b60006161c682616058565b6161d08185616063565b9350836020820285016161e285616074565b8060005b8581101561621e57848403895281516161ff858261619a565b945061620a836161ae565b925060208a019950506001810190506161e6565b50829750879550505050505092915050565b6000602082019050818103600083015261624a81846161bb565b905092915050565b60008060006060848603121561626b5761626a6153dd565b5b6000616279868287016154c3565b935050602084013567ffffffffffffffff81111561629a576162996153e2565b5b6162a686828701615788565b925050604084013567ffffffffffffffff8111156162c7576162c66153e2565b5b6162d386828701615788565b9150509250925092565b600081519050919050565b600082825260208201905092915050565b6000819050602082019050919050565b600060a0830160008301516163216000860182615a4e565b5060208301516163346020860182615a4e565b506040830151848203604086015261634c8282615c4d565b91505060608301516163616060860182615a4e565b5060808301516163746080860182615cb2565b508091505092915050565b600061638b8383616309565b905092915050565b6000602082019050919050565b60006163ab826162dd565b6163b581856162e8565b9350836020820285016163c7856162f9565b8060005b8581101561640357848403895281516163e4858261637f565b94506163ef83616393565b925060208a019950506001810190506163cb565b50829750879550505050505092915050565b6000602082019050818103600083015261642f81846163a0565b905092915050565b600081519050919050565b600082825260208201905092915050565b6000819050602082019050919050565b6000600a9050919050565b600081905092915050565b6000819050919050565b7f4e487b7100000000000000000000000000000000000000000000000000000000600052602160045260246000fd5b600381106164c3576164c2616483565b5b50565b60008190506164d4826164b2565b919050565b60006164e4826164c6565b9050919050565b6164f4816164d9565b82525050565b600060608301600083015161651260008601826164eb565b506020830151848203602086015261652a8282615c4d565b915050604083015184820360408601526165448282615c4d565b9150508091505092915050565b600061655d83836164fa565b905092915050565b6000602082019050919050565b600061657d82616463565b616587818561646e565b93508360208202850161659985616479565b8060005b858110156165d557848403895281516165b68582616551565b94506165c183616565565b925060208a0199505060018101905061659d565b50829750879550505050505092915050565b600060e0830160008301516165ff6000860182615a4e565b5060208301516166126020860182615a4e565b506040830151848203604086015261662a8282615c4d565b915050606083015184820360608601526166448282615c4d565b9150506080830151848203608086015261665e8282616572565b91505060a083015161667360a0860182615a4e565b5060c083015161668660c0860182615cb2565b508091505092915050565b600061669d83836165e7565b905092915050565b6000602082019050919050565b60006166bd82616437565b6166c78185616442565b9350836020820285016166d985616453565b8060005b8581101561671557848403895281516166f68582616691565b9450616701836166a5565b925060208a019950506001810190506166dd565b50829750879550505050505092915050565b6000602082019050818103600083015261674181846166b2565b905092915050565b600060c0830160008301516167616000860182615a4e565b5060208301516167746020860182615a4e565b506040830151848203604086015261678c8282615c4d565b915050606083015184820360608601526167a68282616095565b91505060808301516167bb6080860182615cb2565b5060a08301516167ce60a0860182615a4e565b508091505092915050565b600060208201905081810360008301526167f38184616749565b905092915050565b600080fd5b60008083601f84011261681657616815615670565b5b8235905067ffffffffffffffff811115616833576168326167fb565b5b60208301915083602082028301111561684f5761684e6157e2565b5b9250929050565b600080600080606085870312156168705761686f6153dd565b5b600061687e878288016154c3565b945050602061688f87828801615801565b935050604085013567ffffffffffffffff8111156168b0576168af6153e2565b5b6168bc87828801616800565b925092505092959194509250565b6000806000606084860312156168e3576168e26153dd565b5b60006168f1868287016154c3565b9350506020616902868287016154c3565b9250506040616913868287016154c3565b9150509250925092565b600067ffffffffffffffff8211156169385761693761568b565b5b602082029050602081019050919050565b600061695c6169578461691d565b6156eb565b9050808382526020820190506020840283018581111561697f5761697e6157e2565b5b835b818110156169c657803567ffffffffffffffff8111156169a4576169a3615670565b5b8086016169b18982615788565b85526020850194505050602081019050616981565b5050509392505050565b600082601f8301126169e5576169e4615670565b5b81356169f5848260208601616949565b91505092915050565b600080600060608486031215616a1757616a166153dd565b5b6000616a25868287016154c3565b935050602084013567ffffffffffffffff811115616a4657616a456153e2565b5b616a52868287016169d0565b925050604084013567ffffffffffffffff811115616a7357616a726153e2565b5b616a7f86828701615f4b565b9150509250925092565b600060ff82169050919050565b616a9f81616a89565b8114616aaa57600080fd5b50565b600081359050616abc81616a96565b92915050565b60008060008060808587031215616adc57616adb6153dd565b5b6000616aea878288016154c3565b945050602085013567ffffffffffffffff811115616b0b57616b0a6153e2565b5b616b1787828801615788565b935050604085013567ffffffffffffffff811115616b3857616b376153e2565b5b616b44878288016169d0565b9250506060616b5587828801616aad565b91505092959194509250565b600082825260208201905092915050565b7f5175697a20646f6573206e6f7420657869737400000000000000000000000000600082015250565b6000616ba8601383616b61565b9150616bb382616b72565b602082019050919050565b60006020820190508181036000830152616bd781616b9b565b9050919050565b7f4e487b7100000000000000000000000000000000000000000000000000000000600052603260045260246000fd5b7f5175697a20616c726561647920636f6d706c6574656400000000000000000000600082015250565b6000616c43601683616b61565b9150616c4e82616c0d565b602082019050919050565b60006020820190508181036000830152616c7281616c36565b9050919050565b7f4e6f7420656e726f6c6c65642100000000000000000000000000000000000000600082015250565b6000616caf600d83616b61565b9150616cba82616c79565b602082019050919050565b60006020820190508181036000830152616cde81616ca2565b9050919050565b7f4c6573736f6e20646f6573206e6f742065786973740000000000000000000000600082015250565b6000616d1b601583616b61565b9150616d2682616ce5565b602082019050919050565b60006020820190508181036000830152616d4a81616d0e565b9050919050565b7f4e487b7100000000000000000000000000000000000000000000000000000000600052602260045260246000fd5b60006002820490506001821680616d9857607f821691505b602082108103616dab57616daa616d51565b5b50919050565b60008190508160005260206000209050919050565b60006020601f8301049050919050565b600082821b905092915050565b600060088302616e137fffffffffffffffffffffffffffffffffffffffffffffffffffffffffffffffff82616dd6565b616e1d8683616dd6565b95508019841693508086168417925050509392505050565b6000819050919050565b6000616e5a616e55616e50846154a2565b616e35565b6154a2565b9050919050565b6000819050919050565b616e7483616e3f565b616e88616e8082616e61565b848454616de3565b825550505050565b600090565b616e9d616e90565b616ea8818484616e6b565b505050565b5b81811015616ecc57616ec1600082616e95565b600181019050616eae565b5050565b601f821115616f1157616ee281616db1565b616eeb84616dc6565b81016020851015616efa578190505b616f0e616f0685616dc6565b830182616ead565b50505b505050565b600082821c905092915050565b6000616f3460001984600802616f16565b1980831691505092915050565b6000616f4d8383616f23565b9150826002028217905092915050565b616f6682615c07565b67ffffffffffffffff811115616f7f57616f7e61568b565b5b616f898254616d80565b616f94828285616ed0565b600060209050601f831160018114616fc75760008415616fb5578287015190505b616fbf8582616f41565b865550617027565b601f198416616fd586616db1565b60005b82811015616ffd57848901518255600182019150602085019450602081019050616fd8565b8683101561701a5784890151617016601f891682616f23565b8355505b6001600288020188555050505b505050505050565b7f45786365656473206d6178696d756d20616c6c6f776564000000000000000000600082015250565b6000617065601783616b61565b91506170708261702f565b602082019050919050565b6000602082019050818103600083015261709481617058565b9050919050565b60006170a682615c07565b6170b08185616b61565b93506170c0818560208601615c23565b6170c98161567a565b840191505092915050565b600060208201905081810360008301526170ee818461709b565b905092915050565b7f5155697a20646f6573206e6f7420657869737400000000000000000000000000600082015250565b600061712c601383616b61565b9150617137826170f6565b602082019050919050565b6000602082019050818103600083015261715b8161711f565b9050919050565b7f4e6f74206578616374207175697a000000000000000000000000000000000000600082015250565b6000617198600e83616b61565b91506171a382617162565b602082019050919050565b600060208201905081810360008301526171c78161718b565b9050919050565b60006040820190506171e36000830185615bb1565b6171f06020830184615bb1565b9392505050565b7f4c6573736f6e20446f6573206e6f742065786973742100000000000000000000600082015250565b600061722d601683616b61565b9150617238826171f7565b602082019050919050565b6000602082019050818103600083015261725c81617220565b9050919050565b7f4e487b7100000000000000000000000000000000000000000000000000000000600052601160045260246000fd5b600061729d826154a2565b91507fffffffffffffffffffffffffffffffffffffffffffffffffffffffffffffffff82036172cf576172ce617263565b5b600182019050919050565b6000815490506172e981616d80565b9050919050565b8181036172fe5750506173d6565b617307826172da565b67ffffffffffffffff8111156173205761731f61568b565b5b61732a8254616d80565b617335828285616ed0565b6000601f8311600181146173645760008415617352578287015490505b61735c8582616f41565b8655506173cf565b601f19841661737287616db1565b965061737d86616db1565b60005b828110156173a557848901548255600182019150600185019450602081019050617380565b868310156173c257848901546173be601f891682616f23565b8355505b6001600288020188555050505b5050505050505b565b600081905092915050565b60006173ee82615c07565b6173f881856173d8565b9350617408818560208601615c23565b80840191505092915050565b600061742082846173e3565b915081905092915050565b7f4368617074657220646f6573206e6f7420657869737421000000000000000000600082015250565b6000617461601783616b61565b915061746c8261742b565b602082019050919050565b6000602082019050818103600083015261749081617454565b9050919050565b7f5175657374696f6e206e6f7420666f756e6420696e2074686973207175697a00600082015250565b60006174cd601f83616b61565b91506174d882617497565b602082019050919050565b600060208201905081810360008301526174fc816174c0565b9050919050565b600061750e826154a2565b9150617519836154a2565b925082820390508181111561753157617530617263565b5b92915050565b7f4e487b7100000000000000000000000000000000000000000000000000000000600052603160045260246000fd5b7f4368617074657220646f65736e27742065786973740000000000000000000000600082015250565b600061759c601583616b61565b91506175a782617566565b602082019050919050565b600060208201905081810360008301526175cb8161758f565b9050919050565b7f4c6573736f6e20646f65736e2774206578697374000000000000000000000000600082015250565b6000617608601483616b61565b9150617613826175d2565b602082019050919050565b60006020820190508181036000830152617637816175fb565b9050919050565b7f4c6573736f6e20646f6573206e6f742065786973742100000000000000000000600082015250565b6000617674601683616b61565b915061767f8261763e565b602082019050919050565b600060208201905081810360008301526176a381617667565b9050919050565b60006176b5826154a2565b91506176c0836154a2565b92508282019050808211156176d8576176d7617263565b5b92915050565b7f45786365656473206d6178696d756d207265736f757263657321000000000000600082015250565b6000617714601a83616b61565b915061771f826176de565b602082019050919050565b6000602082019050818103600083015261774381617707565b9050919050565b600080fd5b600080fd5b600080fd5b6000823560016060038336030381126177755761777461774a565b5b80830191505092915050565b600060208284031215617797576177966153dd565b5b60006177a584828501615801565b91505092915050565b600080833560016020038436030381126177cb576177ca61774a565b5b80840192508235915067ffffffffffffffff8211156177ed576177ec61774f565b5b60208301925060018202360383131561780957617808617754565b5b509250929050565b7f416c7265616479206d61726b6564000000000000000000000000000000000000600082015250565b6000617847600e83616b61565b915061785282617811565b602082019050919050565b600060208201905081810360008301526178768161783a565b9050919050565b617886816155f2565b82525050565b60006020820190506178a1600083018461787d565b92915050565b7f436f7572736520646f6573206e6f742065786973742100000000000000000000600082015250565b60006178dd601683616b61565b91506178e8826178a7565b602082019050919050565b6000602082019050818103600083015261790c816178d0565b9050919050565b7f496e76616c6964206e756d626572206f662063686f6963657300000000000000600082015250565b6000617949601983616b61565b915061795482617913565b602082019050919050565b600060208201905081810360008301526179788161793c565b9050919050565b7f496e76616c696420636f72726563742063686f69636520696e64657800000000600082015250565b60006179b5601c83616b61565b91506179c08261797f565b602082019050919050565b600060208201905081810360008301526179e4816179a8565b9050919050565b60006179f682616a89565b915060ff8203617a0957617a08617263565b5b600182019050919050565b6000606082019050617a296000830186615bb1565b617a366020830185615bb1565b8181036040830152617a48818461709b565b9050949350505050565b7f436f7572736520646f65736e2774206578697374000000000000000000000000600082015250565b6000617a88601483616b61565b9150617a9382617a52565b602082019050919050565b60006020820190508181036000830152617ab781617a7b565b9050919050565b7f4368617074657220646f65736e2774206e6f7420657869737400000000000000600082015250565b6000617af4601983616b61565b9150617aff82617abe565b602082019050919050565b60006020820190508181036000830152617b2381617ae7565b9050919050565b7f5175697a20646f65736e27742065786973740000000000000000000000000000600082015250565b6000617b60601283616b61565b9150617b6b82617b2a565b602082019050919050565b60006020820190508181036000830152617b8f81617b53565b9050919050565b7f436f75727365206e6f742079657420617070726f766564210000000000000000600082015250565b6000617bcc601883616b61565b9150617bd782617b96565b602082019050919050565b60006020820190508181036000830152617bfb81617bbf565b9050919050565b7f416c726561647920656e726f6c6c656400000000000000000000000000000000600082015250565b6000617c38601083616b61565b9150617c4382617c02565b602082019050919050565b60006020820190508181036000830152617c6781617c2b565b9050919050565b6000617c79826154a2565b9150617c84836154a2565b9250828202617c92816154a2565b91508282048414831517617ca957617ca8617263565b5b5092915050565b7f4e487b7100000000000000000000000000000000000000000000000000000000600052601260045260246000fd5b6000617cea826154a2565b9150617cf5836154a2565b925082617d0557617d04617cb0565b5b828204905092915050565b7f4c696d6974204578636565646564210000000000000000000000000000000000600082015250565b6000617d46600f83616b61565b9150617d5182617d10565b602082019050919050565b60006020820190508181036000830152617d7581617d39565b9050919050565b6000604082019050617d91600083018561787d565b617d9e60208301846155a8565b939250505056fea264697066735822122004e3f4d6927f20c24bff9f4eabe12e4e68d9d1f71108def14b2abd817ec9a40064736f6c634300081b0033","opcodes":"PUSH1 0x80 PUSH1 0x40 MSTORE CALLVALUE DUP1 ISZERO PUSH1 0xF JUMPI PUSH1 0x0 DUP1 REVERT JUMPDEST POP PUSH1 0x1 PUSH1 0x0 DUP2 SWAP1 SSTORE POP PUSH2 0x7DDB DUP1 PUSH2 0x27 PUSH1 0x0 CODECOPY PUSH1 0x0 RETURN INVALID PUSH1 0x80 PUSH1 0x40 MSTORE CALLVALUE DUP1 ISZERO PUSH2 0x10 JUMPI PUSH1 0x0 DUP1 REVERT JUMPDEST POP PUSH1 0x4 CALLDATASIZE LT PUSH2 0x206 JUMPI PUSH1 0x0 CALLDATALOAD PUSH1 0xE0 SHR DUP1 PUSH4 0x91D14854 GT PUSH2 0x11A JUMPI DUP1 PUSH4 0xB99A9030 GT PUSH2 0xAD JUMPI DUP1 PUSH4 0xD547741F GT PUSH2 0x7C JUMPI DUP1 PUSH4 0xD547741F EQ PUSH2 0x6A7 JUMPI DUP1 PUSH4 0xE09BCAE3 EQ PUSH2 0x6C3 JUMPI DUP1 PUSH4 0xE8639751 EQ PUSH2 0x6F3 JUMPI DUP1 PUSH4 0xEA0978AD EQ PUSH2 0x723 JUMPI DUP1 PUSH4 0xF57D585B EQ PUSH2 0x753 JUMPI PUSH2 0x206 JUMP JUMPDEST DUP1 PUSH4 0xB99A9030 EQ PUSH2 0x5FB JUMPI DUP1 PUSH4 0xD0364694 EQ PUSH2 0x62B JUMPI DUP1 PUSH4 0xD214BA74 EQ PUSH2 0x65B JUMPI DUP1 PUSH4 0xD3751BFC EQ PUSH2 0x68B JUMPI PUSH2 0x206 JUMP JUMPDEST DUP1 PUSH4 0xA296EA58 GT PUSH2 0xE9 JUMPI DUP1 PUSH4 0xA296EA58 EQ PUSH2 0x561 JUMPI DUP1 PUSH4 0xA3F7E096 EQ PUSH2 0x57F JUMPI DUP1 PUSH4 0xAC678A93 EQ PUSH2 0x5AF JUMPI DUP1 PUSH4 0xB31A4AF3 EQ PUSH2 0x5DF JUMPI PUSH2 0x206 JUMP JUMPDEST DUP1 PUSH4 0x91D14854 EQ PUSH2 0x4C5 JUMPI DUP1 PUSH4 0x9BCE5751 EQ PUSH2 0x4F5 JUMPI DUP1 PUSH4 0xA1051DFE EQ PUSH2 0x513 JUMPI DUP1 PUSH4 0xA217FDDF EQ PUSH2 0x543 JUMPI PUSH2 0x206 JUMP JUMPDEST DUP1 PUSH4 0x36568ABE GT PUSH2 0x19D JUMPI DUP1 PUSH4 0x62CD7998 GT PUSH2 0x16C JUMPI DUP1 PUSH4 0x62CD7998 EQ PUSH2 0x3FB JUMPI DUP1 PUSH4 0x632C224B EQ PUSH2 0x42B JUMPI DUP1 PUSH4 0x6A4AF0FA EQ PUSH2 0x45B JUMPI DUP1 PUSH4 0x75B9D869 EQ PUSH2 0x479 JUMPI DUP1 PUSH4 0x88A8270F EQ PUSH2 0x495 JUMPI PUSH2 0x206 JUMP JUMPDEST DUP1 PUSH4 0x36568ABE EQ PUSH2 0x34F JUMPI DUP1 PUSH4 0x36C69152 EQ PUSH2 0x36B JUMPI DUP1 PUSH4 0x4A474B9C EQ PUSH2 0x39B JUMPI DUP1 PUSH4 0x5D6A12EC EQ PUSH2 0x3CB JUMPI PUSH2 0x206 JUMP JUMPDEST DUP1 PUSH4 0x2F2FF15D GT PUSH2 0x1D9 JUMPI DUP1 PUSH4 0x2F2FF15D EQ PUSH2 0x2B7 JUMPI DUP1 PUSH4 0x30A3549A EQ PUSH2 0x2D3 JUMPI DUP1 PUSH4 0x34359DA9 EQ PUSH2 0x303 JUMPI DUP1 PUSH4 0x34F9B3FB EQ PUSH2 0x333 JUMPI PUSH2 0x206 JUMP JUMPDEST DUP1 PUSH4 0x1FFC9A7 EQ PUSH2 0x20B JUMPI DUP1 PUSH4 0x526BA55 EQ PUSH2 0x23B JUMPI DUP1 PUSH4 0x20BD0316 EQ PUSH2 0x257 JUMPI DUP1 PUSH4 0x248A9CA3 EQ PUSH2 0x287 JUMPI JUMPDEST PUSH1 0x0 DUP1 REVERT JUMPDEST PUSH2 0x225 PUSH1 0x4 DUP1 CALLDATASIZE SUB DUP2 ADD SWAP1 PUSH2 0x220 SWAP2 SWAP1 PUSH2 0x543F JUMP JUMPDEST PUSH2 0x783 JUMP JUMPDEST PUSH1 0x40 MLOAD PUSH2 0x232 SWAP2 SWAP1 PUSH2 0x5487 JUMP JUMPDEST PUSH1 0x40 MLOAD DUP1 SWAP2 SUB SWAP1 RETURN JUMPDEST PUSH2 0x255 PUSH1 0x4 DUP1 CALLDATASIZE SUB DUP2 ADD SWAP1 PUSH2 0x250 SWAP2 SWAP1 PUSH2 0x54D8 JUMP JUMPDEST PUSH2 0x7FD JUMP JUMPDEST STOP JUMPDEST PUSH2 0x271 PUSH1 0x4 DUP1 CALLDATASIZE SUB DUP2 ADD SWAP1 PUSH2 0x26C SWAP2 SWAP1 PUSH2 0x5518 JUMP JUMPDEST PUSH2 0xA2C JUMP JUMPDEST PUSH1 0x40 MLOAD PUSH2 0x27E SWAP2 SWAP1 PUSH2 0x5487 JUMP JUMPDEST PUSH1 0x40 MLOAD DUP1 SWAP2 SUB SWAP1 RETURN JUMPDEST PUSH2 0x2A1 PUSH1 0x4 DUP1 CALLDATASIZE SUB DUP2 ADD SWAP1 PUSH2 0x29C SWAP2 SWAP1 PUSH2 0x557B JUMP JUMPDEST PUSH2 0xC1E JUMP JUMPDEST PUSH1 0x40 MLOAD PUSH2 0x2AE SWAP2 SWAP1 PUSH2 0x55B7 JUMP JUMPDEST PUSH1 0x40 MLOAD DUP1 SWAP2 SUB SWAP1 RETURN JUMPDEST PUSH2 0x2D1 PUSH1 0x4 DUP1 CALLDATASIZE SUB DUP2 ADD SWAP1 PUSH2 0x2CC SWAP2 SWAP1 PUSH2 0x5630 JUMP JUMPDEST PUSH2 0xC3E JUMP JUMPDEST STOP JUMPDEST PUSH2 0x2ED PUSH1 0x4 DUP1 CALLDATASIZE SUB DUP2 ADD SWAP1 PUSH2 0x2E8 SWAP2 SWAP1 PUSH2 0x5967 JUMP JUMPDEST PUSH2 0xC60 JUMP JUMPDEST PUSH1 0x40 MLOAD PUSH2 0x2FA SWAP2 SWAP1 PUSH2 0x5487 JUMP JUMPDEST PUSH1 0x40 MLOAD DUP1 SWAP2 SUB SWAP1 RETURN JUMPDEST PUSH2 0x31D PUSH1 0x4 DUP1 CALLDATASIZE SUB DUP2 ADD SWAP1 PUSH2 0x318 SWAP2 SWAP1 PUSH2 0x5518 JUMP JUMPDEST PUSH2 0xEB5 JUMP JUMPDEST PUSH1 0x40 MLOAD PUSH2 0x32A SWAP2 SWAP1 PUSH2 0x5AE0 JUMP JUMPDEST PUSH1 0x40 MLOAD DUP1 SWAP2 SUB SWAP1 RETURN JUMPDEST PUSH2 0x34D PUSH1 0x4 DUP1 CALLDATASIZE SUB DUP2 ADD SWAP1 PUSH2 0x348 SWAP2 SWAP1 PUSH2 0x5B02 JUMP JUMPDEST PUSH2 0xF72 JUMP JUMPDEST STOP JUMPDEST PUSH2 0x369 PUSH1 0x4 DUP1 CALLDATASIZE SUB DUP2 ADD SWAP1 PUSH2 0x364 SWAP2 SWAP1 PUSH2 0x5630 JUMP JUMPDEST PUSH2 0x10C3 JUMP JUMPDEST STOP JUMPDEST PUSH2 0x385 PUSH1 0x4 DUP1 CALLDATASIZE SUB DUP2 ADD SWAP1 PUSH2 0x380 SWAP2 SWAP1 PUSH2 0x5B71 JUMP JUMPDEST PUSH2 0x113E JUMP JUMPDEST PUSH1 0x40 MLOAD PUSH2 0x392 SWAP2 SWAP1 PUSH2 0x5BC0 JUMP JUMPDEST PUSH1 0x40 MLOAD DUP1 SWAP2 SUB SWAP1 RETURN JUMPDEST PUSH2 0x3B5 PUSH1 0x4 DUP1 CALLDATASIZE SUB DUP2 ADD SWAP1 PUSH2 0x3B0 SWAP2 SWAP1 PUSH2 0x5518 JUMP JUMPDEST PUSH2 0x120C JUMP JUMPDEST PUSH1 0x40 MLOAD PUSH2 0x3C2 SWAP2 SWAP1 PUSH2 0x5E94 JUMP JUMPDEST PUSH1 0x40 MLOAD DUP1 SWAP2 SUB SWAP1 RETURN JUMPDEST PUSH2 0x3E5 PUSH1 0x4 DUP1 CALLDATASIZE SUB DUP2 ADD SWAP1 PUSH2 0x3E0 SWAP2 SWAP1 PUSH2 0x5F79 JUMP JUMPDEST PUSH2 0x14A7 JUMP JUMPDEST PUSH1 0x40 MLOAD PUSH2 0x3F2 SWAP2 SWAP1 PUSH2 0x5487 JUMP JUMPDEST PUSH1 0x40 MLOAD DUP1 SWAP2 SUB SWAP1 RETURN JUMPDEST PUSH2 0x415 PUSH1 0x4 DUP1 CALLDATASIZE SUB DUP2 ADD SWAP1 PUSH2 0x410 SWAP2 SWAP1 PUSH2 0x5518 JUMP JUMPDEST PUSH2 0x16BA JUMP JUMPDEST PUSH1 0x40 MLOAD PUSH2 0x422 SWAP2 SWAP1 PUSH2 0x5AE0 JUMP JUMPDEST PUSH1 0x40 MLOAD DUP1 SWAP2 SUB SWAP1 RETURN JUMPDEST PUSH2 0x445 PUSH1 0x4 DUP1 CALLDATASIZE SUB DUP2 ADD SWAP1 PUSH2 0x440 SWAP2 SWAP1 PUSH2 0x5FFC JUMP JUMPDEST PUSH2 0x1777 JUMP JUMPDEST PUSH1 0x40 MLOAD PUSH2 0x452 SWAP2 SWAP1 PUSH2 0x5BC0 JUMP JUMPDEST PUSH1 0x40 MLOAD DUP1 SWAP2 SUB SWAP1 RETURN JUMPDEST PUSH2 0x463 PUSH2 0x196F JUMP JUMPDEST PUSH1 0x40 MLOAD PUSH2 0x470 SWAP2 SWAP1 PUSH2 0x6230 JUMP JUMPDEST PUSH1 0x40 MLOAD DUP1 SWAP2 SUB SWAP1 RETURN JUMPDEST PUSH2 0x493 PUSH1 0x4 DUP1 CALLDATASIZE SUB DUP2 ADD SWAP1 PUSH2 0x48E SWAP2 SWAP1 PUSH2 0x6252 JUMP JUMPDEST PUSH2 0x1D2A JUMP JUMPDEST STOP JUMPDEST PUSH2 0x4AF PUSH1 0x4 DUP1 CALLDATASIZE SUB DUP2 ADD SWAP1 PUSH2 0x4AA SWAP2 SWAP1 PUSH2 0x54D8 JUMP JUMPDEST PUSH2 0x1F64 JUMP JUMPDEST PUSH1 0x40 MLOAD PUSH2 0x4BC SWAP2 SWAP1 PUSH2 0x5487 JUMP JUMPDEST PUSH1 0x40 MLOAD DUP1 SWAP2 SUB SWAP1 RETURN JUMPDEST PUSH2 0x4DF PUSH1 0x4 DUP1 CALLDATASIZE SUB DUP2 ADD SWAP1 PUSH2 0x4DA SWAP2 SWAP1 PUSH2 0x5630 JUMP JUMPDEST PUSH2 0x221E JUMP JUMPDEST PUSH1 0x40 MLOAD PUSH2 0x4EC SWAP2 SWAP1 PUSH2 0x5487 JUMP JUMPDEST PUSH1 0x40 MLOAD DUP1 SWAP2 SUB SWAP1 RETURN JUMPDEST PUSH2 0x4FD PUSH2 0x2289 JUMP JUMPDEST PUSH1 0x40 MLOAD PUSH2 0x50A SWAP2 SWAP1 PUSH2 0x6415 JUMP JUMPDEST PUSH1 0x40 MLOAD DUP1 SWAP2 SUB SWAP1 RETURN JUMPDEST PUSH2 0x52D PUSH1 0x4 DUP1 CALLDATASIZE SUB DUP2 ADD SWAP1 PUSH2 0x528 SWAP2 SWAP1 PUSH2 0x54D8 JUMP JUMPDEST PUSH2 0x2435 JUMP JUMPDEST PUSH1 0x40 MLOAD PUSH2 0x53A SWAP2 SWAP1 PUSH2 0x5487 JUMP JUMPDEST PUSH1 0x40 MLOAD DUP1 SWAP2 SUB SWAP1 RETURN JUMPDEST PUSH2 0x54B PUSH2 0x2789 JUMP JUMPDEST PUSH1 0x40 MLOAD PUSH2 0x558 SWAP2 SWAP1 PUSH2 0x55B7 JUMP JUMPDEST PUSH1 0x40 MLOAD DUP1 SWAP2 SUB SWAP1 RETURN JUMPDEST PUSH2 0x569 PUSH2 0x2790 JUMP JUMPDEST PUSH1 0x40 MLOAD PUSH2 0x576 SWAP2 SWAP1 PUSH2 0x6727 JUMP JUMPDEST PUSH1 0x40 MLOAD DUP1 SWAP2 SUB SWAP1 RETURN JUMPDEST PUSH2 0x599 PUSH1 0x4 DUP1 CALLDATASIZE SUB DUP2 ADD SWAP1 PUSH2 0x594 SWAP2 SWAP1 PUSH2 0x5518 JUMP JUMPDEST PUSH2 0x2B79 JUMP JUMPDEST PUSH1 0x40 MLOAD PUSH2 0x5A6 SWAP2 SWAP1 PUSH2 0x67D9 JUMP JUMPDEST PUSH1 0x40 MLOAD DUP1 SWAP2 SUB SWAP1 RETURN JUMPDEST PUSH2 0x5C9 PUSH1 0x4 DUP1 CALLDATASIZE SUB DUP2 ADD SWAP1 PUSH2 0x5C4 SWAP2 SWAP1 PUSH2 0x5518 JUMP JUMPDEST PUSH2 0x2EF6 JUMP JUMPDEST PUSH1 0x40 MLOAD PUSH2 0x5D6 SWAP2 SWAP1 PUSH2 0x6415 JUMP JUMPDEST PUSH1 0x40 MLOAD DUP1 SWAP2 SUB SWAP1 RETURN JUMPDEST PUSH2 0x5F9 PUSH1 0x4 DUP1 CALLDATASIZE SUB DUP2 ADD SWAP1 PUSH2 0x5F4 SWAP2 SWAP1 PUSH2 0x6856 JUMP JUMPDEST PUSH2 0x3042 JUMP JUMPDEST STOP JUMPDEST PUSH2 0x615 PUSH1 0x4 DUP1 CALLDATASIZE SUB DUP2 ADD SWAP1 PUSH2 0x610 SWAP2 SWAP1 PUSH2 0x5518 JUMP JUMPDEST PUSH2 0x341E JUMP JUMPDEST PUSH1 0x40 MLOAD PUSH2 0x622 SWAP2 SWAP1 PUSH2 0x5487 JUMP JUMPDEST PUSH1 0x40 MLOAD DUP1 SWAP2 SUB SWAP1 RETURN JUMPDEST PUSH2 0x645 PUSH1 0x4 DUP1 CALLDATASIZE SUB DUP2 ADD SWAP1 PUSH2 0x640 SWAP2 SWAP1 PUSH2 0x68CA JUMP JUMPDEST PUSH2 0x3459 JUMP JUMPDEST PUSH1 0x40 MLOAD PUSH2 0x652 SWAP2 SWAP1 PUSH2 0x5487 JUMP JUMPDEST PUSH1 0x40 MLOAD DUP1 SWAP2 SUB SWAP1 RETURN JUMPDEST PUSH2 0x675 PUSH1 0x4 DUP1 CALLDATASIZE SUB DUP2 ADD SWAP1 PUSH2 0x670 SWAP2 SWAP1 PUSH2 0x69FE JUMP JUMPDEST PUSH2 0x36FC JUMP JUMPDEST PUSH1 0x40 MLOAD PUSH2 0x682 SWAP2 SWAP1 PUSH2 0x5487 JUMP JUMPDEST PUSH1 0x40 MLOAD DUP1 SWAP2 SUB SWAP1 RETURN JUMPDEST PUSH2 0x6A5 PUSH1 0x4 DUP1 CALLDATASIZE SUB DUP2 ADD SWAP1 PUSH2 0x6A0 SWAP2 SWAP1 PUSH2 0x6AC2 JUMP JUMPDEST PUSH2 0x3A33 JUMP JUMPDEST STOP JUMPDEST PUSH2 0x6C1 PUSH1 0x4 DUP1 CALLDATASIZE SUB DUP2 ADD SWAP1 PUSH2 0x6BC SWAP2 SWAP1 PUSH2 0x5630 JUMP JUMPDEST PUSH2 0x3E60 JUMP JUMPDEST STOP JUMPDEST PUSH2 0x6DD PUSH1 0x4 DUP1 CALLDATASIZE SUB DUP2 ADD SWAP1 PUSH2 0x6D8 SWAP2 SWAP1 PUSH2 0x54D8 JUMP JUMPDEST PUSH2 0x3E82 JUMP JUMPDEST PUSH1 0x40 MLOAD PUSH2 0x6EA SWAP2 SWAP1 PUSH2 0x5487 JUMP JUMPDEST PUSH1 0x40 MLOAD DUP1 SWAP2 SUB SWAP1 RETURN JUMPDEST PUSH2 0x70D PUSH1 0x4 DUP1 CALLDATASIZE SUB DUP2 ADD SWAP1 PUSH2 0x708 SWAP2 SWAP1 PUSH2 0x5B02 JUMP JUMPDEST PUSH2 0x4177 JUMP JUMPDEST PUSH1 0x40 MLOAD PUSH2 0x71A SWAP2 SWAP1 PUSH2 0x5487 JUMP JUMPDEST PUSH1 0x40 MLOAD DUP1 SWAP2 SUB SWAP1 RETURN JUMPDEST PUSH2 0x73D PUSH1 0x4 DUP1 CALLDATASIZE SUB DUP2 ADD SWAP1 PUSH2 0x738 SWAP2 SWAP1 PUSH2 0x54D8 JUMP JUMPDEST PUSH2 0x4276 JUMP JUMPDEST PUSH1 0x40 MLOAD PUSH2 0x74A SWAP2 SWAP1 PUSH2 0x5487 JUMP JUMPDEST PUSH1 0x40 MLOAD DUP1 SWAP2 SUB SWAP1 RETURN JUMPDEST PUSH2 0x76D PUSH1 0x4 DUP1 CALLDATASIZE SUB DUP2 ADD SWAP1 PUSH2 0x768 SWAP2 SWAP1 PUSH2 0x5518 JUMP JUMPDEST PUSH2 0x4595 JUMP JUMPDEST PUSH1 0x40 MLOAD PUSH2 0x77A SWAP2 SWAP1 PUSH2 0x5487 JUMP JUMPDEST PUSH1 0x40 MLOAD DUP1 SWAP2 SUB SWAP1 RETURN JUMPDEST PUSH1 0x0 PUSH32 0x7965DB0B00000000000000000000000000000000000000000000000000000000 PUSH28 0xFFFFFFFFFFFFFFFFFFFFFFFFFFFFFFFFFFFFFFFFFFFFFFFFFFFFFFFF NOT AND DUP3 PUSH28 0xFFFFFFFFFFFFFFFFFFFFFFFFFFFFFFFFFFFFFFFFFFFFFFFFFFFFFFFF NOT AND EQ DUP1 PUSH2 0x7F6 JUMPI POP PUSH2 0x7F5 DUP3 PUSH2 0x4903 JUMP JUMPDEST JUMPDEST SWAP1 POP SWAP2 SWAP1 POP JUMP JUMPDEST PUSH1 0x0 PUSH2 0x807 PUSH2 0x496D JUMP JUMPDEST SWAP1 POP DUP1 PUSH1 0x7 ADD PUSH1 0x0 DUP4 DUP2 MSTORE PUSH1 0x20 ADD SWAP1 DUP2 MSTORE PUSH1 0x20 ADD PUSH1 0x0 KECCAK256 PUSH1 0x4 ADD PUSH1 0x0 SWAP1 SLOAD SWAP1 PUSH2 0x100 EXP SWAP1 DIV PUSH1 0xFF AND PUSH2 0x86E JUMPI PUSH1 0x40 MLOAD PUSH32 0x8C379A000000000000000000000000000000000000000000000000000000000 DUP2 MSTORE PUSH1 0x4 ADD PUSH2 0x865 SWAP1 PUSH2 0x6BBE JUMP JUMPDEST PUSH1 0x40 MLOAD DUP1 SWAP2 SUB SWAP1 REVERT JUMPDEST PUSH1 0x0 JUMPDEST DUP2 PUSH1 0xB ADD PUSH1 0x0 CALLER PUSH20 0xFFFFFFFFFFFFFFFFFFFFFFFFFFFFFFFFFFFFFFFF AND PUSH20 0xFFFFFFFFFFFFFFFFFFFFFFFFFFFFFFFFFFFFFFFF AND DUP2 MSTORE PUSH1 0x20 ADD SWAP1 DUP2 MSTORE PUSH1 0x20 ADD PUSH1 0x0 KECCAK256 PUSH1 0x0 DUP6 DUP2 MSTORE PUSH1 0x20 ADD SWAP1 DUP2 MSTORE PUSH1 0x20 ADD PUSH1 0x0 KECCAK256 DUP1 SLOAD SWAP1 POP DUP2 LT ISZERO PUSH2 0x98B JUMPI DUP3 DUP3 PUSH1 0xB ADD PUSH1 0x0 CALLER PUSH20 0xFFFFFFFFFFFFFFFFFFFFFFFFFFFFFFFFFFFFFFFF AND PUSH20 0xFFFFFFFFFFFFFFFFFFFFFFFFFFFFFFFFFFFFFFFF AND DUP2 MSTORE PUSH1 0x20 ADD SWAP1 DUP2 MSTORE PUSH1 0x20 ADD PUSH1 0x0 KECCAK256 PUSH1 0x0 DUP7 DUP2 MSTORE PUSH1 0x20 ADD SWAP1 DUP2 MSTORE PUSH1 0x20 ADD PUSH1 0x0 KECCAK256 DUP3 DUP2 SLOAD DUP2 LT PUSH2 0x933 JUMPI PUSH2 0x932 PUSH2 0x6BDE JUMP JUMPDEST JUMPDEST SWAP1 PUSH1 0x0 MSTORE PUSH1 0x20 PUSH1 0x0 KECCAK256 ADD SLOAD SUB PUSH2 0x97E JUMPI PUSH1 0x40 MLOAD PUSH32 0x8C379A000000000000000000000000000000000000000000000000000000000 DUP2 MSTORE PUSH1 0x4 ADD PUSH2 0x975 SWAP1 PUSH2 0x6C59 JUMP JUMPDEST PUSH1 0x40 MLOAD DUP1 SWAP2 SUB SWAP1 REVERT JUMPDEST DUP1 DUP1 PUSH1 0x1 ADD SWAP2 POP POP PUSH2 0x871 JUMP JUMPDEST POP TIMESTAMP DUP2 PUSH1 0xD ADD PUSH1 0x0 CALLER PUSH20 0xFFFFFFFFFFFFFFFFFFFFFFFFFFFFFFFFFFFFFFFF AND PUSH20 0xFFFFFFFFFFFFFFFFFFFFFFFFFFFFFFFFFFFFFFFF AND DUP2 MSTORE PUSH1 0x20 ADD SWAP1 DUP2 MSTORE PUSH1 0x20 ADD PUSH1 0x0 KECCAK256 PUSH1 0x0 DUP5 DUP2 MSTORE PUSH1 0x20 ADD SWAP1 DUP2 MSTORE PUSH1 0x20 ADD PUSH1 0x0 KECCAK256 DUP2 SWAP1 SSTORE POP CALLER PUSH20 0xFFFFFFFFFFFFFFFFFFFFFFFFFFFFFFFFFFFFFFFF AND DUP3 PUSH32 0x7C8FB360D28A1DFFDF468443423D871DF382DDD64B5934CC55BD9BD18CD65F9C PUSH1 0x40 MLOAD PUSH1 0x40 MLOAD DUP1 SWAP2 SUB SWAP1 LOG3 POP POP POP JUMP JUMPDEST PUSH1 0x0 PUSH2 0xA36 PUSH2 0x499A JUMP JUMPDEST PUSH1 0x0 PUSH2 0xA40 PUSH2 0x496D JUMP JUMPDEST SWAP1 POP PUSH1 0x0 PUSH2 0xA4C PUSH2 0x49E0 JUMP JUMPDEST SWAP1 POP DUP2 PUSH1 0x9 ADD PUSH1 0x0 DUP6 DUP2 MSTORE PUSH1 0x20 ADD SWAP1 DUP2 MSTORE PUSH1 0x20 ADD PUSH1 0x0 KECCAK256 PUSH1 0x0 CALLER PUSH20 0xFFFFFFFFFFFFFFFFFFFFFFFFFFFFFFFFFFFFFFFF AND PUSH20 0xFFFFFFFFFFFFFFFFFFFFFFFFFFFFFFFFFFFFFFFF AND DUP2 MSTORE PUSH1 0x20 ADD SWAP1 DUP2 MSTORE PUSH1 0x20 ADD PUSH1 0x0 KECCAK256 PUSH1 0x0 SWAP1 SLOAD SWAP1 PUSH2 0x100 EXP SWAP1 DIV PUSH1 0xFF AND PUSH2 0xAED JUMPI PUSH1 0x40 MLOAD PUSH32 0x8C379A000000000000000000000000000000000000000000000000000000000 DUP2 MSTORE PUSH1 0x4 ADD PUSH2 0xAE4 SWAP1 PUSH2 0x6CC5 JUMP JUMPDEST PUSH1 0x40 MLOAD DUP1 SWAP2 SUB SWAP1 REVERT JUMPDEST PUSH1 0x0 DUP2 PUSH1 0x5 ADD PUSH1 0x0 DUP7 DUP2 MSTORE PUSH1 0x20 ADD SWAP1 DUP2 MSTORE PUSH1 0x20 ADD PUSH1 0x0 KECCAK256 SWAP1 POP PUSH1 0x0 DUP3 PUSH1 0xE ADD DUP7 DUP2 SLOAD DUP2 LT PUSH2 0xB1E JUMPI PUSH2 0xB1D PUSH2 0x6BDE JUMP JUMPDEST JUMPDEST SWAP1 PUSH1 0x0 MSTORE PUSH1 0x20 PUSH1 0x0 KECCAK256 SWAP1 PUSH1 0x8 MUL ADD SWAP1 POP PUSH2 0xB3B DUP3 PUSH1 0x6 ADD CALLER PUSH2 0x4A0D JUMP JUMPDEST PUSH2 0xB48 DUP2 PUSH1 0x6 ADD CALLER PUSH2 0x4A0D JUMP JUMPDEST PUSH1 0x0 DUP5 PUSH1 0x9 ADD PUSH1 0x0 DUP9 DUP2 MSTORE PUSH1 0x20 ADD SWAP1 DUP2 MSTORE PUSH1 0x20 ADD PUSH1 0x0 KECCAK256 PUSH1 0x0 CALLER PUSH20 0xFFFFFFFFFFFFFFFFFFFFFFFFFFFFFFFFFFFFFFFF AND PUSH20 0xFFFFFFFFFFFFFFFFFFFFFFFFFFFFFFFFFFFFFFFF AND DUP2 MSTORE PUSH1 0x20 ADD SWAP1 DUP2 MSTORE PUSH1 0x20 ADD PUSH1 0x0 KECCAK256 PUSH1 0x0 PUSH2 0x100 EXP DUP2 SLOAD DUP2 PUSH1 0xFF MUL NOT AND SWAP1 DUP4 ISZERO ISZERO MUL OR SWAP1 SSTORE POP PUSH2 0xBC5 CALLER PUSH8 0x1BC16D674EC80000 PUSH2 0x4BAA JUMP JUMPDEST CALLER PUSH20 0xFFFFFFFFFFFFFFFFFFFFFFFFFFFFFFFFFFFFFFFF AND DUP7 PUSH32 0x9B244C565B926D7F4E915B69F3A5C6AFC2231322D0D44E821076AD8879D0D683 PUSH1 0x40 MLOAD PUSH1 0x40 MLOAD DUP1 SWAP2 SUB SWAP1 LOG3 PUSH1 0x1 SWAP5 POP POP POP POP POP PUSH2 0xC19 PUSH2 0x4BE0 JUMP JUMPDEST SWAP2 SWAP1 POP JUMP JUMPDEST PUSH1 0x0 PUSH1 0x1 PUSH1 0x0 DUP4 DUP2 MSTORE PUSH1 0x20 ADD SWAP1 DUP2 MSTORE PUSH1 0x20 ADD PUSH1 0x0 KECCAK256 PUSH1 0x1 ADD SLOAD SWAP1 POP SWAP2 SWAP1 POP JUMP JUMPDEST PUSH2 0xC47 DUP3 PUSH2 0xC1E JUMP JUMPDEST PUSH2 0xC50 DUP2 PUSH2 0x4BEA JUMP JUMPDEST PUSH2 0xC5A DUP4 DUP4 PUSH2 0x4BFE JUMP JUMPDEST POP POP POP POP JUMP JUMPDEST PUSH1 0x0 PUSH32 0xADB22091B155738D2E889EB96F509D2A7C93234236B30400927FEB4A6A15AB00 PUSH2 0xC8C DUP2 PUSH2 0x4BEA JUMP JUMPDEST PUSH1 0x0 PUSH2 0xC96 PUSH2 0x496D JUMP JUMPDEST SWAP1 POP PUSH1 0x0 DUP2 PUSH1 0x5 ADD PUSH1 0x0 DUP10 DUP2 MSTORE PUSH1 0x20 ADD SWAP1 DUP2 MSTORE PUSH1 0x20 ADD PUSH1 0x0 KECCAK256 PUSH1 0x1 ADD SLOAD SUB PUSH2 0xCF3 JUMPI PUSH1 0x40 MLOAD PUSH32 0x8C379A000000000000000000000000000000000000000000000000000000000 DUP2 MSTORE PUSH1 0x4 ADD PUSH2 0xCEA SWAP1 PUSH2 0x6D31 JUMP JUMPDEST PUSH1 0x40 MLOAD DUP1 SWAP2 SUB SWAP1 REVERT JUMPDEST DUP6 DUP2 PUSH1 0x5 ADD PUSH1 0x0 DUP10 DUP2 MSTORE PUSH1 0x20 ADD SWAP1 DUP2 MSTORE PUSH1 0x20 ADD PUSH1 0x0 KECCAK256 PUSH1 0x2 ADD SWAP1 DUP2 PUSH2 0xD18 SWAP2 SWAP1 PUSH2 0x6F5D JUMP JUMPDEST POP DUP5 DUP2 PUSH1 0x5 ADD PUSH1 0x0 DUP10 DUP2 MSTORE PUSH1 0x20 ADD SWAP1 DUP2 MSTORE PUSH1 0x20 ADD PUSH1 0x0 KECCAK256 PUSH1 0x3 ADD SWAP1 DUP2 PUSH2 0xD3E SWAP2 SWAP1 PUSH2 0x6F5D JUMP JUMPDEST POP PUSH1 0x0 DUP5 MLOAD GT ISZERO PUSH2 0xE6F JUMPI PUSH1 0xA DUP5 MLOAD GT ISZERO PUSH2 0xD8E JUMPI PUSH1 0x40 MLOAD PUSH32 0x8C379A000000000000000000000000000000000000000000000000000000000 DUP2 MSTORE PUSH1 0x4 ADD PUSH2 0xD85 SWAP1 PUSH2 0x707B JUMP JUMPDEST PUSH1 0x40 MLOAD DUP1 SWAP2 SUB SWAP1 REVERT JUMPDEST PUSH1 0x0 JUMPDEST DUP5 MLOAD DUP2 LT ISZERO PUSH2 0xE4F JUMPI DUP5 DUP2 DUP2 MLOAD DUP2 LT PUSH2 0xDAD JUMPI PUSH2 0xDAC PUSH2 0x6BDE JUMP JUMPDEST JUMPDEST PUSH1 0x20 MUL PUSH1 0x20 ADD ADD MLOAD DUP3 PUSH1 0x5 ADD PUSH1 0x0 DUP11 DUP2 MSTORE PUSH1 0x20 ADD SWAP1 DUP2 MSTORE PUSH1 0x20 ADD PUSH1 0x0 KECCAK256 PUSH1 0x4 ADD DUP3 PUSH1 0xA DUP2 LT PUSH2 0xDDF JUMPI PUSH2 0xDDE PUSH2 0x6BDE JUMP JUMPDEST JUMPDEST PUSH1 0x3 MUL ADD PUSH1 0x0 DUP3 ADD MLOAD DUP2 PUSH1 0x0 ADD PUSH1 0x0 PUSH2 0x100 EXP DUP2 SLOAD DUP2 PUSH1 0xFF MUL NOT AND SWAP1 DUP4 PUSH1 0x2 DUP2 GT ISZERO PUSH2 0xE0E JUMPI PUSH2 0xE0D PUSH2 0x6483 JUMP JUMPDEST JUMPDEST MUL OR SWAP1 SSTORE POP PUSH1 0x20 DUP3 ADD MLOAD DUP2 PUSH1 0x1 ADD SWAP1 DUP2 PUSH2 0xE28 SWAP2 SWAP1 PUSH2 0x6F5D JUMP JUMPDEST POP PUSH1 0x40 DUP3 ADD MLOAD DUP2 PUSH1 0x2 ADD SWAP1 DUP2 PUSH2 0xE3E SWAP2 SWAP1 PUSH2 0x6F5D JUMP JUMPDEST POP SWAP1 POP POP DUP1 DUP1 PUSH1 0x1 ADD SWAP2 POP POP PUSH2 0xD91 JUMP JUMPDEST POP DUP4 MLOAD DUP2 PUSH1 0x5 ADD PUSH1 0x0 DUP10 DUP2 MSTORE PUSH1 0x20 ADD SWAP1 DUP2 MSTORE PUSH1 0x20 ADD PUSH1 0x0 KECCAK256 PUSH1 0x22 ADD DUP2 SWAP1 SSTORE POP JUMPDEST DUP7 PUSH32 0x2A39A7CF20A19C3CD9811B72B89FAB269DCE3AA109F6D2A0631CD3E1F0457E5D DUP8 PUSH1 0x40 MLOAD PUSH2 0xE9F SWAP2 SWAP1 PUSH2 0x70D4 JUMP JUMPDEST PUSH1 0x40 MLOAD DUP1 SWAP2 SUB SWAP1 LOG2 PUSH1 0x1 SWAP3 POP POP POP SWAP5 SWAP4 POP POP POP POP JUMP JUMPDEST PUSH1 0x60 PUSH1 0x0 PUSH2 0xEC1 PUSH2 0x496D JUMP JUMPDEST SWAP1 POP PUSH1 0x0 DUP2 PUSH1 0x2 ADD PUSH1 0x0 CALLER PUSH20 0xFFFFFFFFFFFFFFFFFFFFFFFFFFFFFFFFFFFFFFFF AND PUSH20 0xFFFFFFFFFFFFFFFFFFFFFFFFFFFFFFFFFFFFFFFF AND DUP2 MSTORE PUSH1 0x20 ADD SWAP1 DUP2 MSTORE PUSH1 0x20 ADD PUSH1 0x0 KECCAK256 PUSH1 0x0 DUP6 DUP2 MSTORE PUSH1 0x20 ADD SWAP1 DUP2 MSTORE PUSH1 0x20 ADD PUSH1 0x0 KECCAK256 DUP1 SLOAD DUP1 PUSH1 0x20 MUL PUSH1 0x20 ADD PUSH1 0x40 MLOAD SWAP1 DUP2 ADD PUSH1 0x40 MSTORE DUP1 SWAP3 SWAP2 SWAP1 DUP2 DUP2 MSTORE PUSH1 0x20 ADD DUP3 DUP1 SLOAD DUP1 ISZERO PUSH2 0xF61 JUMPI PUSH1 0x20 MUL DUP3 ADD SWAP2 SWAP1 PUSH1 0x0 MSTORE PUSH1 0x20 PUSH1 0x0 KECCAK256 SWAP1 JUMPDEST DUP2 SLOAD DUP2 MSTORE PUSH1 0x20 ADD SWAP1 PUSH1 0x1 ADD SWAP1 DUP1 DUP4 GT PUSH2 0xF4D JUMPI JUMPDEST POP POP POP POP POP SWAP1 POP DUP1 SWAP3 POP POP POP SWAP2 SWAP1 POP JUMP JUMPDEST PUSH32 0xADB22091B155738D2E889EB96F509D2A7C93234236B30400927FEB4A6A15AB00 PUSH2 0xF9C DUP2 PUSH2 0x4BEA JUMP JUMPDEST PUSH1 0x0 PUSH2 0xFA6 PUSH2 0x496D JUMP JUMPDEST SWAP1 POP PUSH1 0x0 DUP2 PUSH1 0x7 ADD PUSH1 0x0 DUP7 DUP2 MSTORE PUSH1 0x20 ADD SWAP1 DUP2 MSTORE PUSH1 0x20 ADD PUSH1 0x0 KECCAK256 PUSH1 0x1 ADD SLOAD SUB PUSH2 0x1003 JUMPI PUSH1 0x40 MLOAD PUSH32 0x8C379A000000000000000000000000000000000000000000000000000000000 DUP2 MSTORE PUSH1 0x4 ADD PUSH2 0xFFA SWAP1 PUSH2 0x7142 JUMP JUMPDEST PUSH1 0x40 MLOAD DUP1 SWAP2 SUB SWAP1 REVERT JUMPDEST DUP4 DUP2 PUSH1 0x7 ADD PUSH1 0x0 DUP7 DUP2 MSTORE PUSH1 0x20 ADD SWAP1 DUP2 MSTORE PUSH1 0x20 ADD PUSH1 0x0 KECCAK256 PUSH1 0x1 ADD SLOAD EQ PUSH2 0x105D JUMPI PUSH1 0x40 MLOAD PUSH32 0x8C379A000000000000000000000000000000000000000000000000000000000 DUP2 MSTORE PUSH1 0x4 ADD PUSH2 0x1054 SWAP1 PUSH2 0x71AE JUMP JUMPDEST PUSH1 0x40 MLOAD DUP1 SWAP2 SUB SWAP1 REVERT JUMPDEST DUP3 DUP2 PUSH1 0x7 ADD PUSH1 0x0 DUP7 DUP2 MSTORE PUSH1 0x20 ADD SWAP1 DUP2 MSTORE PUSH1 0x20 ADD PUSH1 0x0 KECCAK256 PUSH1 0x2 ADD SWAP1 DUP2 PUSH2 0x1082 SWAP2 SWAP1 PUSH2 0x6F5D JUMP JUMPDEST POP DUP4 DUP6 PUSH32 0xAD5FAB99AC4D99E1061FD121B36537D5213BE564A3DC6CC383897DC355E89FF5 DUP6 PUSH1 0x40 MLOAD PUSH2 0x10B4 SWAP2 SWAP1 PUSH2 0x70D4 JUMP JUMPDEST PUSH1 0x40 MLOAD DUP1 SWAP2 SUB SWAP1 LOG3 POP POP POP POP POP JUMP JUMPDEST PUSH2 0x10CB PUSH2 0x4CEF JUMP JUMPDEST PUSH20 0xFFFFFFFFFFFFFFFFFFFFFFFFFFFFFFFFFFFFFFFF AND DUP2 PUSH20 0xFFFFFFFFFFFFFFFFFFFFFFFFFFFFFFFFFFFFFFFF AND EQ PUSH2 0x112F JUMPI PUSH1 0x40 MLOAD PUSH32 0x6697B23200000000000000000000000000000000000000000000000000000000 DUP2 MSTORE PUSH1 0x4 ADD PUSH1 0x40 MLOAD DUP1 SWAP2 SUB SWAP1 REVERT JUMPDEST PUSH2 0x1139 DUP3 DUP3 PUSH2 0x4CF7 JUMP JUMPDEST POP POP POP JUMP JUMPDEST PUSH1 0x0 DUP1 PUSH2 0x1149 PUSH2 0x496D JUMP JUMPDEST SWAP1 POP DUP1 PUSH1 0x7 ADD PUSH1 0x0 DUP6 DUP2 MSTORE PUSH1 0x20 ADD SWAP1 DUP2 MSTORE PUSH1 0x20 ADD PUSH1 0x0 KECCAK256 PUSH1 0x4 ADD PUSH1 0x0 SWAP1 SLOAD SWAP1 PUSH2 0x100 EXP SWAP1 DIV PUSH1 0xFF AND PUSH2 0x11B0 JUMPI PUSH1 0x40 MLOAD PUSH32 0x8C379A000000000000000000000000000000000000000000000000000000000 DUP2 MSTORE PUSH1 0x4 ADD PUSH2 0x11A7 SWAP1 PUSH2 0x6BBE JUMP JUMPDEST PUSH1 0x40 MLOAD DUP1 SWAP2 SUB SWAP1 REVERT JUMPDEST DUP1 PUSH1 0xD ADD PUSH1 0x0 DUP5 PUSH20 0xFFFFFFFFFFFFFFFFFFFFFFFFFFFFFFFFFFFFFFFF AND PUSH20 0xFFFFFFFFFFFFFFFFFFFFFFFFFFFFFFFFFFFFFFFF AND DUP2 MSTORE PUSH1 0x20 ADD SWAP1 DUP2 MSTORE PUSH1 0x20 ADD PUSH1 0x0 KECCAK256 PUSH1 0x0 DUP6 DUP2 MSTORE PUSH1 0x20 ADD SWAP1 DUP2 MSTORE PUSH1 0x20 ADD PUSH1 0x0 KECCAK256 SLOAD SWAP2 POP POP SWAP3 SWAP2 POP POP JUMP JUMPDEST PUSH1 0x60 PUSH1 0x0 PUSH2 0x1218 PUSH2 0x496D JUMP JUMPDEST SWAP1 POP DUP1 PUSH1 0x7 ADD PUSH1 0x0 DUP5 DUP2 MSTORE PUSH1 0x20 ADD SWAP1 DUP2 MSTORE PUSH1 0x20 ADD PUSH1 0x0 KECCAK256 PUSH1 0x4 ADD PUSH1 0x0 SWAP1 SLOAD SWAP1 PUSH2 0x100 EXP SWAP1 DIV PUSH1 0xFF AND PUSH2 0x127F JUMPI PUSH1 0x40 MLOAD PUSH32 0x8C379A000000000000000000000000000000000000000000000000000000000 DUP2 MSTORE PUSH1 0x4 ADD PUSH2 0x1276 SWAP1 PUSH2 0x6BBE JUMP JUMPDEST PUSH1 0x40 MLOAD DUP1 SWAP2 SUB SWAP1 REVERT JUMPDEST DUP1 PUSH1 0x7 ADD PUSH1 0x0 DUP5 DUP2 MSTORE PUSH1 0x20 ADD SWAP1 DUP2 MSTORE PUSH1 0x20 ADD PUSH1 0x0 KECCAK256 PUSH1 0x3 ADD DUP1 SLOAD DUP1 PUSH1 0x20 MUL PUSH1 0x20 ADD PUSH1 0x40 MLOAD SWAP1 DUP2 ADD PUSH1 0x40 MSTORE DUP1 SWAP3 SWAP2 SWAP1 DUP2 DUP2 MSTORE PUSH1 0x20 ADD PUSH1 0x0 SWAP1 JUMPDEST DUP3 DUP3 LT ISZERO PUSH2 0x149B JUMPI DUP4 DUP3 SWAP1 PUSH1 0x0 MSTORE PUSH1 0x20 PUSH1 0x0 KECCAK256 SWAP1 PUSH1 0x4 MUL ADD PUSH1 0x40 MLOAD DUP1 PUSH1 0x80 ADD PUSH1 0x40 MSTORE SWAP1 DUP2 PUSH1 0x0 DUP3 ADD SLOAD DUP2 MSTORE PUSH1 0x20 ADD PUSH1 0x1 DUP3 ADD SLOAD DUP2 MSTORE PUSH1 0x20 ADD PUSH1 0x2 DUP3 ADD DUP1 SLOAD PUSH2 0x12FE SWAP1 PUSH2 0x6D80 JUMP JUMPDEST DUP1 PUSH1 0x1F ADD PUSH1 0x20 DUP1 SWAP2 DIV MUL PUSH1 0x20 ADD PUSH1 0x40 MLOAD SWAP1 DUP2 ADD PUSH1 0x40 MSTORE DUP1 SWAP3 SWAP2 SWAP1 DUP2 DUP2 MSTORE PUSH1 0x20 ADD DUP3 DUP1 SLOAD PUSH2 0x132A SWAP1 PUSH2 0x6D80 JUMP JUMPDEST DUP1 ISZERO PUSH2 0x1377 JUMPI DUP1 PUSH1 0x1F LT PUSH2 0x134C JUMPI PUSH2 0x100 DUP1 DUP4 SLOAD DIV MUL DUP4 MSTORE SWAP2 PUSH1 0x20 ADD SWAP2 PUSH2 0x1377 JUMP JUMPDEST DUP3 ADD SWAP2 SWAP1 PUSH1 0x0 MSTORE PUSH1 0x20 PUSH1 0x0 KECCAK256 SWAP1 JUMPDEST DUP2 SLOAD DUP2 MSTORE SWAP1 PUSH1 0x1 ADD SWAP1 PUSH1 0x20 ADD DUP1 DUP4 GT PUSH2 0x135A JUMPI DUP3 SWAP1 SUB PUSH1 0x1F AND DUP3 ADD SWAP2 JUMPDEST POP POP POP POP POP DUP2 MSTORE PUSH1 0x20 ADD PUSH1 0x3 DUP3 ADD DUP1 SLOAD DUP1 PUSH1 0x20 MUL PUSH1 0x20 ADD PUSH1 0x40 MLOAD SWAP1 DUP2 ADD PUSH1 0x40 MSTORE DUP1 SWAP3 SWAP2 SWAP1 DUP2 DUP2 MSTORE PUSH1 0x20 ADD PUSH1 0x0 SWAP1 JUMPDEST DUP3 DUP3 LT ISZERO PUSH2 0x1484 JUMPI DUP4 DUP3 SWAP1 PUSH1 0x0 MSTORE PUSH1 0x20 PUSH1 0x0 KECCAK256 SWAP1 PUSH1 0x2 MUL ADD PUSH1 0x40 MLOAD DUP1 PUSH1 0x40 ADD PUSH1 0x40 MSTORE SWAP1 DUP2 PUSH1 0x0 DUP3 ADD DUP1 SLOAD PUSH2 0x13D8 SWAP1 PUSH2 0x6D80 JUMP JUMPDEST DUP1 PUSH1 0x1F ADD PUSH1 0x20 DUP1 SWAP2 DIV MUL PUSH1 0x20 ADD PUSH1 0x40 MLOAD SWAP1 DUP2 ADD PUSH1 0x40 MSTORE DUP1 SWAP3 SWAP2 SWAP1 DUP2 DUP2 MSTORE PUSH1 0x20 ADD DUP3 DUP1 SLOAD PUSH2 0x1404 SWAP1 PUSH2 0x6D80 JUMP JUMPDEST DUP1 ISZERO PUSH2 0x1451 JUMPI DUP1 PUSH1 0x1F LT PUSH2 0x1426 JUMPI PUSH2 0x100 DUP1 DUP4 SLOAD DIV MUL DUP4 MSTORE SWAP2 PUSH1 0x20 ADD SWAP2 PUSH2 0x1451 JUMP JUMPDEST DUP3 ADD SWAP2 SWAP1 PUSH1 0x0 MSTORE PUSH1 0x20 PUSH1 0x0 KECCAK256 SWAP1 JUMPDEST DUP2 SLOAD DUP2 MSTORE SWAP1 PUSH1 0x1 ADD SWAP1 PUSH1 0x20 ADD DUP1 DUP4 GT PUSH2 0x1434 JUMPI DUP3 SWAP1 SUB PUSH1 0x1F AND DUP3 ADD SWAP2 JUMPDEST POP POP POP POP POP DUP2 MSTORE PUSH1 0x20 ADD PUSH1 0x1 DUP3 ADD PUSH1 0x0 SWAP1 SLOAD SWAP1 PUSH2 0x100 EXP SWAP1 DIV PUSH1 0xFF AND ISZERO ISZERO ISZERO ISZERO DUP2 MSTORE POP POP DUP2 MSTORE PUSH1 0x20 ADD SWAP1 PUSH1 0x1 ADD SWAP1 PUSH2 0x13A5 JUMP JUMPDEST POP POP POP POP DUP2 MSTORE POP POP DUP2 MSTORE PUSH1 0x20 ADD SWAP1 PUSH1 0x1 ADD SWAP1 PUSH2 0x12B7 JUMP JUMPDEST POP POP POP POP SWAP2 POP POP SWAP2 SWAP1 POP JUMP JUMPDEST PUSH1 0x0 DUP1 PUSH2 0x14B2 PUSH2 0x496D JUMP JUMPDEST SWAP1 POP DUP1 PUSH1 0x7 ADD PUSH1 0x0 DUP7 DUP2 MSTORE PUSH1 0x20 ADD SWAP1 DUP2 MSTORE PUSH1 0x20 ADD PUSH1 0x0 KECCAK256 PUSH1 0x4 ADD PUSH1 0x0 SWAP1 SLOAD SWAP1 PUSH2 0x100 EXP SWAP1 DIV PUSH1 0xFF AND PUSH2 0x1519 JUMPI PUSH1 0x40 MLOAD PUSH32 0x8C379A000000000000000000000000000000000000000000000000000000000 DUP2 MSTORE PUSH1 0x4 ADD PUSH2 0x1510 SWAP1 PUSH2 0x6BBE JUMP JUMPDEST PUSH1 0x40 MLOAD DUP1 SWAP2 SUB SWAP1 REVERT JUMPDEST PUSH1 0x4B DUP4 LT PUSH2 0x165D JUMPI PUSH1 0x1 DUP2 PUSH1 0xA ADD PUSH1 0x0 DUP8 DUP2 MSTORE PUSH1 0x20 ADD SWAP1 DUP2 MSTORE PUSH1 0x20 ADD PUSH1 0x0 KECCAK256 PUSH1 0x0 CALLER PUSH20 0xFFFFFFFFFFFFFFFFFFFFFFFFFFFFFFFFFFFFFFFF AND PUSH20 0xFFFFFFFFFFFFFFFFFFFFFFFFFFFFFFFFFFFFFFFF AND DUP2 MSTORE PUSH1 0x20 ADD SWAP1 DUP2 MSTORE PUSH1 0x20 ADD PUSH1 0x0 KECCAK256 PUSH1 0x0 PUSH2 0x100 EXP DUP2 SLOAD DUP2 PUSH1 0xFF MUL NOT AND SWAP1 DUP4 ISZERO ISZERO MUL OR SWAP1 SSTORE POP DUP3 DUP2 PUSH1 0xC ADD PUSH1 0x0 CALLER PUSH20 0xFFFFFFFFFFFFFFFFFFFFFFFFFFFFFFFFFFFFFFFF AND PUSH20 0xFFFFFFFFFFFFFFFFFFFFFFFFFFFFFFFFFFFFFFFF AND DUP2 MSTORE PUSH1 0x20 ADD SWAP1 DUP2 MSTORE PUSH1 0x20 ADD PUSH1 0x0 KECCAK256 PUSH1 0x0 DUP8 DUP2 MSTORE PUSH1 0x20 ADD SWAP1 DUP2 MSTORE PUSH1 0x20 ADD PUSH1 0x0 KECCAK256 DUP2 SWAP1 SSTORE POP DUP1 PUSH1 0xB ADD PUSH1 0x0 CALLER PUSH20 0xFFFFFFFFFFFFFFFFFFFFFFFFFFFFFFFFFFFFFFFF AND PUSH20 0xFFFFFFFFFFFFFFFFFFFFFFFFFFFFFFFFFFFFFFFF AND DUP2 MSTORE PUSH1 0x20 ADD SWAP1 DUP2 MSTORE PUSH1 0x20 ADD PUSH1 0x0 KECCAK256 PUSH1 0x0 DUP8 DUP2 MSTORE PUSH1 0x20 ADD SWAP1 DUP2 MSTORE PUSH1 0x20 ADD PUSH1 0x0 KECCAK256 DUP6 SWAP1 DUP1 PUSH1 0x1 DUP2 SLOAD ADD DUP1 DUP3 SSTORE DUP1 SWAP2 POP POP PUSH1 0x1 SWAP1 SUB SWAP1 PUSH1 0x0 MSTORE PUSH1 0x20 PUSH1 0x0 KECCAK256 ADD PUSH1 0x0 SWAP1 SWAP2 SWAP1 SWAP2 SWAP1 SWAP2 POP SSTORE JUMPDEST CALLER PUSH20 0xFFFFFFFFFFFFFFFFFFFFFFFFFFFFFFFFFFFFFFFF AND PUSH32 0xCCE9B9ED7E05AFC64F73F1CE3F6FF1011A740B718AE6277A14698A4EF2D62DBF DUP7 DUP6 PUSH1 0x40 MLOAD PUSH2 0x16A5 SWAP3 SWAP2 SWAP1 PUSH2 0x71CE JUMP JUMPDEST PUSH1 0x40 MLOAD DUP1 SWAP2 SUB SWAP1 LOG2 PUSH1 0x1 SWAP2 POP POP SWAP5 SWAP4 POP POP POP POP JUMP JUMPDEST PUSH1 0x60 PUSH1 0x0 PUSH2 0x16C6 PUSH2 0x496D JUMP JUMPDEST SWAP1 POP PUSH1 0x0 DUP2 PUSH1 0xB ADD PUSH1 0x0 CALLER PUSH20 0xFFFFFFFFFFFFFFFFFFFFFFFFFFFFFFFFFFFFFFFF AND PUSH20 0xFFFFFFFFFFFFFFFFFFFFFFFFFFFFFFFFFFFFFFFF AND DUP2 MSTORE PUSH1 0x20 ADD SWAP1 DUP2 MSTORE PUSH1 0x20 ADD PUSH1 0x0 KECCAK256 PUSH1 0x0 DUP6 DUP2 MSTORE PUSH1 0x20 ADD SWAP1 DUP2 MSTORE PUSH1 0x20 ADD PUSH1 0x0 KECCAK256 DUP1 SLOAD DUP1 PUSH1 0x20 MUL PUSH1 0x20 ADD PUSH1 0x40 MLOAD SWAP1 DUP2 ADD PUSH1 0x40 MSTORE DUP1 SWAP3 SWAP2 SWAP1 DUP2 DUP2 MSTORE PUSH1 0x20 ADD DUP3 DUP1 SLOAD DUP1 ISZERO PUSH2 0x1766 JUMPI PUSH1 0x20 MUL DUP3 ADD SWAP2 SWAP1 PUSH1 0x0 MSTORE PUSH1 0x20 PUSH1 0x0 KECCAK256 SWAP1 JUMPDEST DUP2 SLOAD DUP2 MSTORE PUSH1 0x20 ADD SWAP1 PUSH1 0x1 ADD SWAP1 DUP1 DUP4 GT PUSH2 0x1752 JUMPI JUMPDEST POP POP POP POP POP SWAP1 POP DUP1 SWAP3 POP POP POP SWAP2 SWAP1 POP JUMP JUMPDEST PUSH1 0x0 DUP1 PUSH2 0x1782 PUSH2 0x496D JUMP JUMPDEST SWAP1 POP PUSH1 0x0 PUSH2 0x178E PUSH2 0x4DEA JUMP JUMPDEST SWAP1 POP PUSH1 0x0 DUP2 PUSH1 0x0 ADD PUSH1 0x3 ADD SLOAD SWAP1 POP DUP3 PUSH1 0x5 ADD PUSH1 0x0 DUP8 DUP2 MSTORE PUSH1 0x20 ADD SWAP1 DUP2 MSTORE PUSH1 0x20 ADD PUSH1 0x0 KECCAK256 PUSH1 0x23 ADD PUSH1 0x0 SWAP1 SLOAD SWAP1 PUSH2 0x100 EXP SWAP1 DIV PUSH1 0xFF AND PUSH2 0x1801 JUMPI PUSH1 0x40 MLOAD PUSH32 0x8C379A000000000000000000000000000000000000000000000000000000000 DUP2 MSTORE PUSH1 0x4 ADD PUSH2 0x17F8 SWAP1 PUSH2 0x7243 JUMP JUMPDEST PUSH1 0x40 MLOAD DUP1 SWAP2 SUB SWAP1 REVERT JUMPDEST PUSH1 0x0 DUP4 PUSH1 0x7 ADD PUSH1 0x0 DUP4 DUP2 MSTORE PUSH1 0x20 ADD SWAP1 DUP2 MSTORE PUSH1 0x20 ADD PUSH1 0x0 KECCAK256 SWAP1 POP DUP7 DUP2 PUSH1 0x0 ADD DUP2 SWAP1 SSTORE POP DUP2 DUP2 PUSH1 0x1 ADD DUP2 SWAP1 SSTORE POP DUP6 DUP2 PUSH1 0x2 ADD SWAP1 DUP2 PUSH2 0x183D SWAP2 SWAP1 PUSH2 0x6F5D JUMP JUMPDEST POP PUSH1 0x1 DUP2 PUSH1 0x4 ADD PUSH1 0x0 PUSH2 0x100 EXP DUP2 SLOAD DUP2 PUSH1 0xFF MUL NOT AND SWAP1 DUP4 ISZERO ISZERO MUL OR SWAP1 SSTORE POP DUP3 PUSH1 0x0 ADD PUSH1 0x3 ADD PUSH1 0x0 DUP2 SLOAD DUP1 SWAP3 SWAP2 SWAP1 PUSH2 0x1873 SWAP1 PUSH2 0x7292 JUMP JUMPDEST SWAP2 SWAP1 POP SSTORE POP DUP4 PUSH1 0x12 ADD DUP2 SWAP1 DUP1 PUSH1 0x1 DUP2 SLOAD ADD DUP1 DUP3 SSTORE DUP1 SWAP2 POP POP PUSH1 0x1 SWAP1 SUB SWAP1 PUSH1 0x0 MSTORE PUSH1 0x20 PUSH1 0x0 KECCAK256 SWAP1 PUSH1 0x6 MUL ADD PUSH1 0x0 SWAP1 SWAP2 SWAP1 SWAP2 SWAP1 SWAP2 POP PUSH1 0x0 DUP3 ADD SLOAD DUP2 PUSH1 0x0 ADD SSTORE PUSH1 0x1 DUP3 ADD SLOAD DUP2 PUSH1 0x1 ADD SSTORE PUSH1 0x2 DUP3 ADD DUP2 PUSH1 0x2 ADD SWAP1 DUP2 PUSH2 0x18CE SWAP2 SWAP1 PUSH2 0x72F0 JUMP JUMPDEST POP PUSH1 0x3 DUP3 ADD DUP2 PUSH1 0x3 ADD SWAP1 DUP1 SLOAD PUSH2 0x18E5 SWAP3 SWAP2 SWAP1 PUSH2 0x4F60 JUMP JUMPDEST POP PUSH1 0x4 DUP3 ADD PUSH1 0x0 SWAP1 SLOAD SWAP1 PUSH2 0x100 EXP SWAP1 DIV PUSH1 0xFF AND DUP2 PUSH1 0x4 ADD PUSH1 0x0 PUSH2 0x100 EXP DUP2 SLOAD DUP2 PUSH1 0xFF MUL NOT AND SWAP1 DUP4 ISZERO ISZERO MUL OR SWAP1 SSTORE POP PUSH1 0x5 DUP3 ADD SLOAD DUP2 PUSH1 0x5 ADD SSTORE POP POP DUP6 PUSH1 0x40 MLOAD PUSH2 0x192D SWAP2 SWAP1 PUSH2 0x7414 JUMP JUMPDEST PUSH1 0x40 MLOAD DUP1 SWAP2 SUB SWAP1 KECCAK256 DUP3 PUSH32 0xBF27702CEFBC4AEA50D7C73CFEE96F84F5B908F62AEAFCD8B0AEAE202C150509 PUSH1 0x40 MLOAD PUSH1 0x40 MLOAD DUP1 SWAP2 SUB SWAP1 LOG3 DUP2 SWAP5 POP POP POP POP POP SWAP3 SWAP2 POP POP JUMP JUMPDEST PUSH1 0x60 PUSH1 0x0 PUSH2 0x197B PUSH2 0x496D JUMP JUMPDEST SWAP1 POP PUSH1 0x0 PUSH2 0x1987 PUSH2 0x4DEA JUMP JUMPDEST SWAP1 POP PUSH1 0x0 DUP2 PUSH1 0x0 ADD PUSH1 0x3 ADD SLOAD SWAP1 POP PUSH1 0x0 DUP2 PUSH8 0xFFFFFFFFFFFFFFFF DUP2 GT ISZERO PUSH2 0x19B1 JUMPI PUSH2 0x19B0 PUSH2 0x568B JUMP JUMPDEST JUMPDEST PUSH1 0x40 MLOAD SWAP1 DUP1 DUP3 MSTORE DUP1 PUSH1 0x20 MUL PUSH1 0x20 ADD DUP3 ADD PUSH1 0x40 MSTORE DUP1 ISZERO PUSH2 0x19EA JUMPI DUP2 PUSH1 0x20 ADD JUMPDEST PUSH2 0x19D7 PUSH2 0x4FF8 JUMP JUMPDEST DUP2 MSTORE PUSH1 0x20 ADD SWAP1 PUSH1 0x1 SWAP1 SUB SWAP1 DUP2 PUSH2 0x19CF JUMPI SWAP1 POP JUMPDEST POP SWAP1 POP PUSH1 0x0 JUMPDEST DUP3 DUP2 LT ISZERO PUSH2 0x1D1F JUMPI DUP5 PUSH1 0x7 ADD PUSH1 0x0 DUP3 DUP2 MSTORE PUSH1 0x20 ADD SWAP1 DUP2 MSTORE PUSH1 0x20 ADD PUSH1 0x0 KECCAK256 PUSH1 0x40 MLOAD DUP1 PUSH1 0xC0 ADD PUSH1 0x40 MSTORE SWAP1 DUP2 PUSH1 0x0 DUP3 ADD SLOAD DUP2 MSTORE PUSH1 0x20 ADD PUSH1 0x1 DUP3 ADD SLOAD DUP2 MSTORE PUSH1 0x20 ADD PUSH1 0x2 DUP3 ADD DUP1 SLOAD PUSH2 0x1A3C SWAP1 PUSH2 0x6D80 JUMP JUMPDEST DUP1 PUSH1 0x1F ADD PUSH1 0x20 DUP1 SWAP2 DIV MUL PUSH1 0x20 ADD PUSH1 0x40 MLOAD SWAP1 DUP2 ADD PUSH1 0x40 MSTORE DUP1 SWAP3 SWAP2 SWAP1 DUP2 DUP2 MSTORE PUSH1 0x20 ADD DUP3 DUP1 SLOAD PUSH2 0x1A68 SWAP1 PUSH2 0x6D80 JUMP JUMPDEST DUP1 ISZERO PUSH2 0x1AB5 JUMPI DUP1 PUSH1 0x1F LT PUSH2 0x1A8A JUMPI PUSH2 0x100 DUP1 DUP4 SLOAD DIV MUL DUP4 MSTORE SWAP2 PUSH1 0x20 ADD SWAP2 PUSH2 0x1AB5 JUMP JUMPDEST DUP3 ADD SWAP2 SWAP1 PUSH1 0x0 MSTORE PUSH1 0x20 PUSH1 0x0 KECCAK256 SWAP1 JUMPDEST DUP2 SLOAD DUP2 MSTORE SWAP1 PUSH1 0x1 ADD SWAP1 PUSH1 0x20 ADD DUP1 DUP4 GT PUSH2 0x1A98 JUMPI DUP3 SWAP1 SUB PUSH1 0x1F AND DUP3 ADD SWAP2 JUMPDEST POP POP POP POP POP DUP2 MSTORE PUSH1 0x20 ADD PUSH1 0x3 DUP3 ADD DUP1 SLOAD DUP1 PUSH1 0x20 MUL PUSH1 0x20 ADD PUSH1 0x40 MLOAD SWAP1 DUP2 ADD PUSH1 0x40 MSTORE DUP1 SWAP3 SWAP2 SWAP1 DUP2 DUP2 MSTORE PUSH1 0x20 ADD PUSH1 0x0 SWAP1 JUMPDEST DUP3 DUP3 LT ISZERO PUSH2 0x1CC7 JUMPI DUP4 DUP3 SWAP1 PUSH1 0x0 MSTORE PUSH1 0x20 PUSH1 0x0 KECCAK256 SWAP1 PUSH1 0x4 MUL ADD PUSH1 0x40 MLOAD DUP1 PUSH1 0x80 ADD PUSH1 0x40 MSTORE SWAP1 DUP2 PUSH1 0x0 DUP3 ADD SLOAD DUP2 MSTORE PUSH1 0x20 ADD PUSH1 0x1 DUP3 ADD SLOAD DUP2 MSTORE PUSH1 0x20 ADD PUSH1 0x2 DUP3 ADD DUP1 SLOAD PUSH2 0x1B2A SWAP1 PUSH2 0x6D80 JUMP JUMPDEST DUP1 PUSH1 0x1F ADD PUSH1 0x20 DUP1 SWAP2 DIV MUL PUSH1 0x20 ADD PUSH1 0x40 MLOAD SWAP1 DUP2 ADD PUSH1 0x40 MSTORE DUP1 SWAP3 SWAP2 SWAP1 DUP2 DUP2 MSTORE PUSH1 0x20 ADD DUP3 DUP1 SLOAD PUSH2 0x1B56 SWAP1 PUSH2 0x6D80 JUMP JUMPDEST DUP1 ISZERO PUSH2 0x1BA3 JUMPI DUP1 PUSH1 0x1F LT PUSH2 0x1B78 JUMPI PUSH2 0x100 DUP1 DUP4 SLOAD DIV MUL DUP4 MSTORE SWAP2 PUSH1 0x20 ADD SWAP2 PUSH2 0x1BA3 JUMP JUMPDEST DUP3 ADD SWAP2 SWAP1 PUSH1 0x0 MSTORE PUSH1 0x20 PUSH1 0x0 KECCAK256 SWAP1 JUMPDEST DUP2 SLOAD DUP2 MSTORE SWAP1 PUSH1 0x1 ADD SWAP1 PUSH1 0x20 ADD DUP1 DUP4 GT PUSH2 0x1B86 JUMPI DUP3 SWAP1 SUB PUSH1 0x1F AND DUP3 ADD SWAP2 JUMPDEST POP POP POP POP POP DUP2 MSTORE PUSH1 0x20 ADD PUSH1 0x3 DUP3 ADD DUP1 SLOAD DUP1 PUSH1 0x20 MUL PUSH1 0x20 ADD PUSH1 0x40 MLOAD SWAP1 DUP2 ADD PUSH1 0x40 MSTORE DUP1 SWAP3 SWAP2 SWAP1 DUP2 DUP2 MSTORE PUSH1 0x20 ADD PUSH1 0x0 SWAP1 JUMPDEST DUP3 DUP3 LT ISZERO PUSH2 0x1CB0 JUMPI DUP4 DUP3 SWAP1 PUSH1 0x0 MSTORE PUSH1 0x20 PUSH1 0x0 KECCAK256 SWAP1 PUSH1 0x2 MUL ADD PUSH1 0x40 MLOAD DUP1 PUSH1 0x40 ADD PUSH1 0x40 MSTORE SWAP1 DUP2 PUSH1 0x0 DUP3 ADD DUP1 SLOAD PUSH2 0x1C04 SWAP1 PUSH2 0x6D80 JUMP JUMPDEST DUP1 PUSH1 0x1F ADD PUSH1 0x20 DUP1 SWAP2 DIV MUL PUSH1 0x20 ADD PUSH1 0x40 MLOAD SWAP1 DUP2 ADD PUSH1 0x40 MSTORE DUP1 SWAP3 SWAP2 SWAP1 DUP2 DUP2 MSTORE PUSH1 0x20 ADD DUP3 DUP1 SLOAD PUSH2 0x1C30 SWAP1 PUSH2 0x6D80 JUMP JUMPDEST DUP1 ISZERO PUSH2 0x1C7D JUMPI DUP1 PUSH1 0x1F LT PUSH2 0x1C52 JUMPI PUSH2 0x100 DUP1 DUP4 SLOAD DIV MUL DUP4 MSTORE SWAP2 PUSH1 0x20 ADD SWAP2 PUSH2 0x1C7D JUMP JUMPDEST DUP3 ADD SWAP2 SWAP1 PUSH1 0x0 MSTORE PUSH1 0x20 PUSH1 0x0 KECCAK256 SWAP1 JUMPDEST DUP2 SLOAD DUP2 MSTORE SWAP1 PUSH1 0x1 ADD SWAP1 PUSH1 0x20 ADD DUP1 DUP4 GT PUSH2 0x1C60 JUMPI DUP3 SWAP1 SUB PUSH1 0x1F AND DUP3 ADD SWAP2 JUMPDEST POP POP POP POP POP DUP2 MSTORE PUSH1 0x20 ADD PUSH1 0x1 DUP3 ADD PUSH1 0x0 SWAP1 SLOAD SWAP1 PUSH2 0x100 EXP SWAP1 DIV PUSH1 0xFF AND ISZERO ISZERO ISZERO ISZERO DUP2 MSTORE POP POP DUP2 MSTORE PUSH1 0x20 ADD SWAP1 PUSH1 0x1 ADD SWAP1 PUSH2 0x1BD1 JUMP JUMPDEST POP POP POP POP DUP2 MSTORE POP POP DUP2 MSTORE PUSH1 0x20 ADD SWAP1 PUSH1 0x1 ADD SWAP1 PUSH2 0x1AE3 JUMP JUMPDEST POP POP POP POP DUP2 MSTORE PUSH1 0x20 ADD PUSH1 0x4 DUP3 ADD PUSH1 0x0 SWAP1 SLOAD SWAP1 PUSH2 0x100 EXP SWAP1 DIV PUSH1 0xFF AND ISZERO ISZERO ISZERO ISZERO DUP2 MSTORE PUSH1 0x20 ADD PUSH1 0x5 DUP3 ADD SLOAD DUP2 MSTORE POP POP DUP3 DUP3 DUP2 MLOAD DUP2 LT PUSH2 0x1D07 JUMPI PUSH2 0x1D06 PUSH2 0x6BDE JUMP JUMPDEST JUMPDEST PUSH1 0x20 MUL PUSH1 0x20 ADD ADD DUP2 SWAP1 MSTORE POP DUP1 DUP1 PUSH1 0x1 ADD SWAP2 POP POP PUSH2 0x19F0 JUMP JUMPDEST POP DUP1 SWAP5 POP POP POP POP POP SWAP1 JUMP JUMPDEST PUSH1 0x0 PUSH2 0x1D34 PUSH2 0x496D JUMP JUMPDEST SWAP1 POP PUSH1 0x0 PUSH2 0x1D40 PUSH2 0x4DEA JUMP JUMPDEST SWAP1 POP PUSH1 0x0 DUP2 PUSH1 0x0 ADD PUSH1 0x2 ADD SLOAD SWAP1 POP DUP3 PUSH1 0x3 ADD PUSH1 0x0 DUP8 DUP2 MSTORE PUSH1 0x20 ADD SWAP1 DUP2 MSTORE PUSH1 0x20 ADD PUSH1 0x0 KECCAK256 PUSH1 0x4 ADD PUSH1 0x0 SWAP1 SLOAD SWAP1 PUSH2 0x100 EXP SWAP1 DIV PUSH1 0xFF AND PUSH2 0x1DB3 JUMPI PUSH1 0x40 MLOAD PUSH32 0x8C379A000000000000000000000000000000000000000000000000000000000 DUP2 MSTORE PUSH1 0x4 ADD PUSH2 0x1DAA SWAP1 PUSH2 0x7477 JUMP JUMPDEST PUSH1 0x40 MLOAD DUP1 SWAP2 SUB SWAP1 REVERT JUMPDEST PUSH1 0x0 DUP4 PUSH1 0x5 ADD PUSH1 0x0 DUP4 DUP2 MSTORE PUSH1 0x20 ADD SWAP1 DUP2 MSTORE PUSH1 0x20 ADD PUSH1 0x0 KECCAK256 SWAP1 POP DUP7 DUP2 PUSH1 0x0 ADD DUP2 SWAP1 SSTORE POP DUP2 DUP2 PUSH1 0x1 ADD DUP2 SWAP1 SSTORE POP DUP6 DUP2 PUSH1 0x2 ADD SWAP1 DUP2 PUSH2 0x1DEF SWAP2 SWAP1 PUSH2 0x6F5D JUMP JUMPDEST POP DUP5 DUP2 PUSH1 0x3 ADD SWAP1 DUP2 PUSH2 0x1E01 SWAP2 SWAP1 PUSH2 0x6F5D JUMP JUMPDEST POP PUSH1 0x1 DUP2 PUSH1 0x23 ADD PUSH1 0x0 PUSH2 0x100 EXP DUP2 SLOAD DUP2 PUSH1 0xFF MUL NOT AND SWAP1 DUP4 ISZERO ISZERO MUL OR SWAP1 SSTORE POP PUSH1 0x0 DUP2 PUSH1 0x22 ADD DUP2 SWAP1 SSTORE POP DUP4 PUSH1 0x10 ADD DUP5 PUSH1 0x5 ADD PUSH1 0x0 DUP5 DUP2 MSTORE PUSH1 0x20 ADD SWAP1 DUP2 MSTORE PUSH1 0x20 ADD PUSH1 0x0 KECCAK256 SWAP1 DUP1 PUSH1 0x1 DUP2 SLOAD ADD DUP1 DUP3 SSTORE DUP1 SWAP2 POP POP PUSH1 0x1 SWAP1 SUB SWAP1 PUSH1 0x0 MSTORE PUSH1 0x20 PUSH1 0x0 KECCAK256 SWAP1 PUSH1 0x24 MUL ADD PUSH1 0x0 SWAP1 SWAP2 SWAP1 SWAP2 SWAP1 SWAP2 POP PUSH1 0x0 DUP3 ADD SLOAD DUP2 PUSH1 0x0 ADD SSTORE PUSH1 0x1 DUP3 ADD SLOAD DUP2 PUSH1 0x1 ADD SSTORE PUSH1 0x2 DUP3 ADD DUP2 PUSH1 0x2 ADD SWAP1 DUP2 PUSH2 0x1E93 SWAP2 SWAP1 PUSH2 0x72F0 JUMP JUMPDEST POP PUSH1 0x3 DUP3 ADD DUP2 PUSH1 0x3 ADD SWAP1 DUP2 PUSH2 0x1EA8 SWAP2 SWAP1 PUSH2 0x72F0 JUMP JUMPDEST POP PUSH1 0x4 DUP3 ADD DUP2 PUSH1 0x4 ADD SWAP1 PUSH1 0xA PUSH2 0x1EBF SWAP3 SWAP2 SWAP1 PUSH2 0x5030 JUMP JUMPDEST POP PUSH1 0x22 DUP3 ADD SLOAD DUP2 PUSH1 0x22 ADD SSTORE PUSH1 0x23 DUP3 ADD PUSH1 0x0 SWAP1 SLOAD SWAP1 PUSH2 0x100 EXP SWAP1 DIV PUSH1 0xFF AND DUP2 PUSH1 0x23 ADD PUSH1 0x0 PUSH2 0x100 EXP DUP2 SLOAD DUP2 PUSH1 0xFF MUL NOT AND SWAP1 DUP4 ISZERO ISZERO MUL OR SWAP1 SSTORE POP POP POP DUP3 PUSH1 0x0 ADD PUSH1 0x2 ADD PUSH1 0x0 DUP2 SLOAD DUP1 SWAP3 SWAP2 SWAP1 PUSH2 0x1F11 SWAP1 PUSH2 0x7292 JUMP JUMPDEST SWAP2 SWAP1 POP SSTORE POP PUSH1 0xA DUP7 PUSH1 0x40 MLOAD PUSH2 0x1F26 SWAP2 SWAP1 PUSH2 0x7414 JUMP JUMPDEST PUSH1 0x40 MLOAD DUP1 SWAP2 SUB SWAP1 KECCAK256 DUP4 PUSH32 0x3387C3A40EC1DF95E34D25A0E5564B40D01C331B71CCBAFCCCCC66D36C84AD83 PUSH1 0x40 MLOAD PUSH1 0x40 MLOAD DUP1 SWAP2 SUB SWAP1 LOG4 POP POP POP POP POP POP POP JUMP JUMPDEST PUSH1 0x0 PUSH32 0xADB22091B155738D2E889EB96F509D2A7C93234236B30400927FEB4A6A15AB00 PUSH2 0x1F90 DUP2 PUSH2 0x4BEA JUMP JUMPDEST PUSH1 0x0 PUSH2 0x1F9A PUSH2 0x496D JUMP JUMPDEST SWAP1 POP PUSH1 0x0 DUP2 PUSH1 0x7 ADD PUSH1 0x0 DUP8 DUP2 MSTORE PUSH1 0x20 ADD SWAP1 DUP2 MSTORE PUSH1 0x20 ADD PUSH1 0x0 KECCAK256 PUSH1 0x1 ADD SLOAD SUB PUSH2 0x1FF7 JUMPI PUSH1 0x40 MLOAD PUSH32 0x8C379A000000000000000000000000000000000000000000000000000000000 DUP2 MSTORE PUSH1 0x4 ADD PUSH2 0x1FEE SWAP1 PUSH2 0x6BBE JUMP JUMPDEST PUSH1 0x40 MLOAD DUP1 SWAP2 SUB SWAP1 REVERT JUMPDEST PUSH1 0x0 DUP2 PUSH1 0x8 ADD PUSH1 0x0 DUP7 DUP2 MSTORE PUSH1 0x20 ADD SWAP1 DUP2 MSTORE PUSH1 0x20 ADD PUSH1 0x0 KECCAK256 PUSH1 0x1 ADD SLOAD SUB PUSH2 0x2052 JUMPI PUSH1 0x40 MLOAD PUSH32 0x8C379A000000000000000000000000000000000000000000000000000000000 DUP2 MSTORE PUSH1 0x4 ADD PUSH2 0x2049 SWAP1 PUSH2 0x74E3 JUMP JUMPDEST PUSH1 0x40 MLOAD DUP1 SWAP2 SUB SWAP1 REVERT JUMPDEST PUSH1 0x0 JUMPDEST DUP2 PUSH1 0x13 ADD DUP1 SLOAD SWAP1 POP DUP2 LT ISZERO PUSH2 0x219B JUMPI DUP5 DUP3 PUSH1 0x13 ADD DUP3 DUP2 SLOAD DUP2 LT PUSH2 0x207B JUMPI PUSH2 0x207A PUSH2 0x6BDE JUMP JUMPDEST JUMPDEST SWAP1 PUSH1 0x0 MSTORE PUSH1 0x20 PUSH1 0x0 KECCAK256 SWAP1 PUSH1 0x4 MUL ADD PUSH1 0x1 ADD SLOAD SUB PUSH2 0x218E JUMPI DUP2 PUSH1 0x13 ADD PUSH1 0x1 DUP4 PUSH1 0x13 ADD DUP1 SLOAD SWAP1 POP PUSH2 0x20AA SWAP2 SWAP1 PUSH2 0x7503 JUMP JUMPDEST DUP2 SLOAD DUP2 LT PUSH2 0x20BB JUMPI PUSH2 0x20BA PUSH2 0x6BDE JUMP JUMPDEST JUMPDEST SWAP1 PUSH1 0x0 MSTORE PUSH1 0x20 PUSH1 0x0 KECCAK256 SWAP1 PUSH1 0x4 MUL ADD DUP3 PUSH1 0x13 ADD DUP3 DUP2 SLOAD DUP2 LT PUSH2 0x20DF JUMPI PUSH2 0x20DE PUSH2 0x6BDE JUMP JUMPDEST JUMPDEST SWAP1 PUSH1 0x0 MSTORE PUSH1 0x20 PUSH1 0x0 KECCAK256 SWAP1 PUSH1 0x4 MUL ADD PUSH1 0x0 DUP3 ADD SLOAD DUP2 PUSH1 0x0 ADD SSTORE PUSH1 0x1 DUP3 ADD SLOAD DUP2 PUSH1 0x1 ADD SSTORE PUSH1 0x2 DUP3 ADD DUP2 PUSH1 0x2 ADD SWAP1 DUP2 PUSH2 0x2115 SWAP2 SWAP1 PUSH2 0x72F0 JUMP JUMPDEST POP PUSH1 0x3 DUP3 ADD DUP2 PUSH1 0x3 ADD SWAP1 DUP1 SLOAD PUSH2 0x212C SWAP3 SWAP2 SWAP1 PUSH2 0x50DA JUMP JUMPDEST POP SWAP1 POP POP DUP2 PUSH1 0x13 ADD DUP1 SLOAD DUP1 PUSH2 0x2144 JUMPI PUSH2 0x2143 PUSH2 0x7537 JUMP JUMPDEST JUMPDEST PUSH1 0x1 SWAP1 SUB DUP2 DUP2 SWAP1 PUSH1 0x0 MSTORE PUSH1 0x20 PUSH1 0x0 KECCAK256 SWAP1 PUSH1 0x4 MUL ADD PUSH1 0x0 DUP1 DUP3 ADD PUSH1 0x0 SWAP1 SSTORE PUSH1 0x1 DUP3 ADD PUSH1 0x0 SWAP1 SSTORE PUSH1 0x2 DUP3 ADD PUSH1 0x0 PUSH2 0x2179 SWAP2 SWAP1 PUSH2 0x5174 JUMP JUMPDEST PUSH1 0x3 DUP3 ADD PUSH1 0x0 PUSH2 0x2189 SWAP2 SWAP1 PUSH2 0x51B4 JUMP JUMPDEST POP POP SWAP1 SSTORE JUMPDEST DUP1 DUP1 PUSH1 0x1 ADD SWAP2 POP POP PUSH2 0x2055 JUMP JUMPDEST POP DUP1 PUSH1 0x8 ADD PUSH1 0x0 DUP6 DUP2 MSTORE PUSH1 0x20 ADD SWAP1 DUP2 MSTORE PUSH1 0x20 ADD PUSH1 0x0 KECCAK256 PUSH1 0x0 DUP1 DUP3 ADD PUSH1 0x0 SWAP1 SSTORE PUSH1 0x1 DUP3 ADD PUSH1 0x0 SWAP1 SSTORE PUSH1 0x2 DUP3 ADD PUSH1 0x0 PUSH2 0x21D2 SWAP2 SWAP1 PUSH2 0x5174 JUMP JUMPDEST PUSH1 0x3 DUP3 ADD PUSH1 0x0 PUSH2 0x21E2 SWAP2 SWAP1 PUSH2 0x51B4 JUMP JUMPDEST POP POP DUP4 DUP6 PUSH32 0xF084FA19916F58D56801346CC04CA2D2C28A5531DC7DB17EBD2323685518B126 PUSH1 0x40 MLOAD PUSH1 0x40 MLOAD DUP1 SWAP2 SUB SWAP1 LOG3 PUSH1 0x1 SWAP3 POP POP POP SWAP3 SWAP2 POP POP JUMP JUMPDEST PUSH1 0x0 PUSH1 0x1 PUSH1 0x0 DUP5 DUP2 MSTORE PUSH1 0x20 ADD SWAP1 DUP2 MSTORE PUSH1 0x20 ADD PUSH1 0x0 KECCAK256 PUSH1 0x0 ADD PUSH1 0x0 DUP4 PUSH20 0xFFFFFFFFFFFFFFFFFFFFFFFFFFFFFFFFFFFFFFFF AND PUSH20 0xFFFFFFFFFFFFFFFFFFFFFFFFFFFFFFFFFFFFFFFF AND DUP2 MSTORE PUSH1 0x20 ADD SWAP1 DUP2 MSTORE PUSH1 0x20 ADD PUSH1 0x0 KECCAK256 PUSH1 0x0 SWAP1 SLOAD SWAP1 PUSH2 0x100 EXP SWAP1 DIV PUSH1 0xFF AND SWAP1 POP SWAP3 SWAP2 POP POP JUMP JUMPDEST PUSH1 0x60 PUSH1 0x0 PUSH2 0x2295 PUSH2 0x496D JUMP JUMPDEST SWAP1 POP PUSH1 0x0 DUP2 PUSH1 0xF ADD DUP1 SLOAD SWAP1 POP SWAP1 POP PUSH1 0x0 DUP2 PUSH8 0xFFFFFFFFFFFFFFFF DUP2 GT ISZERO PUSH2 0x22BF JUMPI PUSH2 0x22BE PUSH2 0x568B JUMP JUMPDEST JUMPDEST PUSH1 0x40 MLOAD SWAP1 DUP1 DUP3 MSTORE DUP1 PUSH1 0x20 MUL PUSH1 0x20 ADD DUP3 ADD PUSH1 0x40 MSTORE DUP1 ISZERO PUSH2 0x22F8 JUMPI DUP2 PUSH1 0x20 ADD JUMPDEST PUSH2 0x22E5 PUSH2 0x51D8 JUMP JUMPDEST DUP2 MSTORE PUSH1 0x20 ADD SWAP1 PUSH1 0x1 SWAP1 SUB SWAP1 DUP2 PUSH2 0x22DD JUMPI SWAP1 POP JUMPDEST POP SWAP1 POP PUSH1 0x0 JUMPDEST DUP3 DUP2 LT ISZERO PUSH2 0x242B JUMPI DUP4 PUSH1 0xF ADD DUP2 DUP2 SLOAD DUP2 LT PUSH2 0x231C JUMPI PUSH2 0x231B PUSH2 0x6BDE JUMP JUMPDEST JUMPDEST SWAP1 PUSH1 0x0 MSTORE PUSH1 0x20 PUSH1 0x0 KECCAK256 SWAP1 PUSH1 0x5 MUL ADD PUSH1 0x40 MLOAD DUP1 PUSH1 0xA0 ADD PUSH1 0x40 MSTORE SWAP1 DUP2 PUSH1 0x0 DUP3 ADD SLOAD DUP2 MSTORE PUSH1 0x20 ADD PUSH1 0x1 DUP3 ADD SLOAD DUP2 MSTORE PUSH1 0x20 ADD PUSH1 0x2 DUP3 ADD DUP1 SLOAD PUSH2 0x2359 SWAP1 PUSH2 0x6D80 JUMP JUMPDEST DUP1 PUSH1 0x1F ADD PUSH1 0x20 DUP1 SWAP2 DIV MUL PUSH1 0x20 ADD PUSH1 0x40 MLOAD SWAP1 DUP2 ADD PUSH1 0x40 MSTORE DUP1 SWAP3 SWAP2 SWAP1 DUP2 DUP2 MSTORE PUSH1 0x20 ADD DUP3 DUP1 SLOAD PUSH2 0x2385 SWAP1 PUSH2 0x6D80 JUMP JUMPDEST DUP1 ISZERO PUSH2 0x23D2 JUMPI DUP1 PUSH1 0x1F LT PUSH2 0x23A7 JUMPI PUSH2 0x100 DUP1 DUP4 SLOAD DIV MUL DUP4 MSTORE SWAP2 PUSH1 0x20 ADD SWAP2 PUSH2 0x23D2 JUMP JUMPDEST DUP3 ADD SWAP2 SWAP1 PUSH1 0x0 MSTORE PUSH1 0x20 PUSH1 0x0 KECCAK256 SWAP1 JUMPDEST DUP2 SLOAD DUP2 MSTORE SWAP1 PUSH1 0x1 ADD SWAP1 PUSH1 0x20 ADD DUP1 DUP4 GT PUSH2 0x23B5 JUMPI DUP3 SWAP1 SUB PUSH1 0x1F AND DUP3 ADD SWAP2 JUMPDEST POP POP POP POP POP DUP2 MSTORE PUSH1 0x20 ADD PUSH1 0x3 DUP3 ADD SLOAD DUP2 MSTORE PUSH1 0x20 ADD PUSH1 0x4 DUP3 ADD PUSH1 0x0 SWAP1 SLOAD SWAP1 PUSH2 0x100 EXP SWAP1 DIV PUSH1 0xFF AND ISZERO ISZERO ISZERO ISZERO DUP2 MSTORE POP POP DUP3 DUP3 DUP2 MLOAD DUP2 LT PUSH2 0x2413 JUMPI PUSH2 0x2412 PUSH2 0x6BDE JUMP JUMPDEST JUMPDEST PUSH1 0x20 MUL PUSH1 0x20 ADD ADD DUP2 SWAP1 MSTORE POP DUP1 DUP1 PUSH1 0x1 ADD SWAP2 POP POP PUSH2 0x22FE JUMP JUMPDEST POP DUP1 SWAP4 POP POP POP POP SWAP1 JUMP JUMPDEST PUSH1 0x0 PUSH32 0xADB22091B155738D2E889EB96F509D2A7C93234236B30400927FEB4A6A15AB00 PUSH2 0x2461 DUP2 PUSH2 0x4BEA JUMP JUMPDEST PUSH1 0x0 PUSH2 0x246B PUSH2 0x496D JUMP JUMPDEST SWAP1 POP PUSH1 0x0 DUP2 PUSH1 0x3 ADD PUSH1 0x0 DUP8 DUP2 MSTORE PUSH1 0x20 ADD SWAP1 DUP2 MSTORE PUSH1 0x20 ADD PUSH1 0x0 KECCAK256 PUSH1 0x1 ADD SLOAD SUB PUSH2 0x24C8 JUMPI PUSH1 0x40 MLOAD PUSH32 0x8C379A000000000000000000000000000000000000000000000000000000000 DUP2 MSTORE PUSH1 0x4 ADD PUSH2 0x24BF SWAP1 PUSH2 0x75B2 JUMP JUMPDEST PUSH1 0x40 MLOAD DUP1 SWAP2 SUB SWAP1 REVERT JUMPDEST PUSH1 0x0 DUP2 PUSH1 0x5 ADD PUSH1 0x0 DUP7 DUP2 MSTORE PUSH1 0x20 ADD SWAP1 DUP2 MSTORE PUSH1 0x20 ADD PUSH1 0x0 KECCAK256 PUSH1 0x1 ADD SLOAD SUB PUSH2 0x2523 JUMPI PUSH1 0x40 MLOAD PUSH32 0x8C379A000000000000000000000000000000000000000000000000000000000 DUP2 MSTORE PUSH1 0x4 ADD PUSH2 0x251A SWAP1 PUSH2 0x761E JUMP JUMPDEST PUSH1 0x40 MLOAD DUP1 SWAP2 SUB SWAP1 REVERT JUMPDEST PUSH1 0x0 JUMPDEST DUP2 PUSH1 0xF ADD DUP1 SLOAD SWAP1 POP DUP2 GT PUSH2 0x26DA JUMPI DUP5 DUP3 PUSH1 0x5 ADD PUSH1 0x0 DUP4 DUP2 MSTORE PUSH1 0x20 ADD SWAP1 DUP2 MSTORE PUSH1 0x20 ADD PUSH1 0x0 KECCAK256 PUSH1 0x1 ADD SLOAD SUB PUSH2 0x26C7 JUMPI DUP2 PUSH1 0x10 ADD PUSH1 0x1 DUP4 PUSH1 0x10 ADD DUP1 SLOAD SWAP1 POP PUSH2 0x256B SWAP2 SWAP1 PUSH2 0x7503 JUMP JUMPDEST DUP2 SLOAD DUP2 LT PUSH2 0x257C JUMPI PUSH2 0x257B PUSH2 0x6BDE JUMP JUMPDEST JUMPDEST SWAP1 PUSH1 0x0 MSTORE PUSH1 0x20 PUSH1 0x0 KECCAK256 SWAP1 PUSH1 0x24 MUL ADD DUP3 PUSH1 0x10 ADD DUP3 DUP2 SLOAD DUP2 LT PUSH2 0x25A0 JUMPI PUSH2 0x259F PUSH2 0x6BDE JUMP JUMPDEST JUMPDEST SWAP1 PUSH1 0x0 MSTORE PUSH1 0x20 PUSH1 0x0 KECCAK256 SWAP1 PUSH1 0x24 MUL ADD PUSH1 0x0 DUP3 ADD SLOAD DUP2 PUSH1 0x0 ADD SSTORE PUSH1 0x1 DUP3 ADD SLOAD DUP2 PUSH1 0x1 ADD SSTORE PUSH1 0x2 DUP3 ADD DUP2 PUSH1 0x2 ADD SWAP1 DUP2 PUSH2 0x25D6 SWAP2 SWAP1 PUSH2 0x72F0 JUMP JUMPDEST POP PUSH1 0x3 DUP3 ADD DUP2 PUSH1 0x3 ADD SWAP1 DUP2 PUSH2 0x25EB SWAP2 SWAP1 PUSH2 0x72F0 JUMP JUMPDEST POP PUSH1 0x4 DUP3 ADD DUP2 PUSH1 0x4 ADD SWAP1 PUSH1 0xA PUSH2 0x2602 SWAP3 SWAP2 SWAP1 PUSH2 0x5030 JUMP JUMPDEST POP PUSH1 0x22 DUP3 ADD SLOAD DUP2 PUSH1 0x22 ADD SSTORE PUSH1 0x23 DUP3 ADD PUSH1 0x0 SWAP1 SLOAD SWAP1 PUSH2 0x100 EXP SWAP1 DIV PUSH1 0xFF AND DUP2 PUSH1 0x23 ADD PUSH1 0x0 PUSH2 0x100 EXP DUP2 SLOAD DUP2 PUSH1 0xFF MUL NOT AND SWAP1 DUP4 ISZERO ISZERO MUL OR SWAP1 SSTORE POP SWAP1 POP POP DUP2 PUSH1 0x10 ADD DUP1 SLOAD DUP1 PUSH2 0x2651 JUMPI PUSH2 0x2650 PUSH2 0x7537 JUMP JUMPDEST JUMPDEST PUSH1 0x1 SWAP1 SUB DUP2 DUP2 SWAP1 PUSH1 0x0 MSTORE PUSH1 0x20 PUSH1 0x0 KECCAK256 SWAP1 PUSH1 0x24 MUL ADD PUSH1 0x0 DUP1 DUP3 ADD PUSH1 0x0 SWAP1 SSTORE PUSH1 0x1 DUP3 ADD PUSH1 0x0 SWAP1 SSTORE PUSH1 0x2 DUP3 ADD PUSH1 0x0 PUSH2 0x2686 SWAP2 SWAP1 PUSH2 0x5174 JUMP JUMPDEST PUSH1 0x3 DUP3 ADD PUSH1 0x0 PUSH2 0x2696 SWAP2 SWAP1 PUSH2 0x5174 JUMP JUMPDEST PUSH1 0x4 DUP3 ADD PUSH1 0x0 PUSH2 0x26A6 SWAP2 SWAP1 PUSH2 0x5209 JUMP JUMPDEST PUSH1 0x22 DUP3 ADD PUSH1 0x0 SWAP1 SSTORE PUSH1 0x23 DUP3 ADD PUSH1 0x0 PUSH2 0x100 EXP DUP2 SLOAD SWAP1 PUSH1 0xFF MUL NOT AND SWAP1 SSTORE POP POP SWAP1 SSTORE JUMPDEST DUP1 DUP1 PUSH2 0x26D2 SWAP1 PUSH2 0x7292 JUMP JUMPDEST SWAP2 POP POP PUSH2 0x2526 JUMP JUMPDEST POP DUP1 PUSH1 0x5 ADD PUSH1 0x0 DUP6 DUP2 MSTORE PUSH1 0x20 ADD SWAP1 DUP2 MSTORE PUSH1 0x20 ADD PUSH1 0x0 KECCAK256 PUSH1 0x0 DUP1 DUP3 ADD PUSH1 0x0 SWAP1 SSTORE PUSH1 0x1 DUP3 ADD PUSH1 0x0 SWAP1 SSTORE PUSH1 0x2 DUP3 ADD PUSH1 0x0 PUSH2 0x2711 SWAP2 SWAP1 PUSH2 0x5174 JUMP JUMPDEST PUSH1 0x3 DUP3 ADD PUSH1 0x0 PUSH2 0x2721 SWAP2 SWAP1 PUSH2 0x5174 JUMP JUMPDEST PUSH1 0x4 DUP3 ADD PUSH1 0x0 PUSH2 0x2731 SWAP2 SWAP1 PUSH2 0x5209 JUMP JUMPDEST PUSH1 0x22 DUP3 ADD PUSH1 0x0 SWAP1 SSTORE PUSH1 0x23 DUP3 ADD PUSH1 0x0 PUSH2 0x100 EXP DUP2 SLOAD SWAP1 PUSH1 0xFF MUL NOT AND SWAP1 SSTORE POP POP DUP4 DUP6 PUSH32 0x1CDC2FF39034471047DD6D36512A12B5C2E9A30137B2E45DAECD05383221D97B PUSH1 0x40 MLOAD PUSH1 0x40 MLOAD DUP1 SWAP2 SUB SWAP1 LOG3 PUSH1 0x1 SWAP3 POP POP POP SWAP3 SWAP2 POP POP JUMP JUMPDEST PUSH1 0x0 DUP1 SHL DUP2 JUMP JUMPDEST PUSH1 0x60 PUSH1 0x0 PUSH2 0x279C PUSH2 0x496D JUMP JUMPDEST SWAP1 POP PUSH1 0x0 DUP2 PUSH1 0x10 ADD DUP1 SLOAD SWAP1 POP SWAP1 POP PUSH1 0x0 DUP2 PUSH8 0xFFFFFFFFFFFFFFFF DUP2 GT ISZERO PUSH2 0x27C6 JUMPI PUSH2 0x27C5 PUSH2 0x568B JUMP JUMPDEST JUMPDEST PUSH1 0x40 MLOAD SWAP1 DUP1 DUP3 MSTORE DUP1 PUSH1 0x20 MUL PUSH1 0x20 ADD DUP3 ADD PUSH1 0x40 MSTORE DUP1 ISZERO PUSH2 0x27FF JUMPI DUP2 PUSH1 0x20 ADD JUMPDEST PUSH2 0x27EC PUSH2 0x521F JUMP JUMPDEST DUP2 MSTORE PUSH1 0x20 ADD SWAP1 PUSH1 0x1 SWAP1 SUB SWAP1 DUP2 PUSH2 0x27E4 JUMPI SWAP1 POP JUMPDEST POP SWAP1 POP PUSH1 0x0 JUMPDEST DUP3 DUP2 LT ISZERO PUSH2 0x2B6F JUMPI DUP4 PUSH1 0x10 ADD DUP2 DUP2 SLOAD DUP2 LT PUSH2 0x2823 JUMPI PUSH2 0x2822 PUSH2 0x6BDE JUMP JUMPDEST JUMPDEST SWAP1 PUSH1 0x0 MSTORE PUSH1 0x20 PUSH1 0x0 KECCAK256 SWAP1 PUSH1 0x24 MUL ADD PUSH1 0x40 MLOAD DUP1 PUSH1 0xE0 ADD PUSH1 0x40 MSTORE SWAP1 DUP2 PUSH1 0x0 DUP3 ADD SLOAD DUP2 MSTORE PUSH1 0x20 ADD PUSH1 0x1 DUP3 ADD SLOAD DUP2 MSTORE PUSH1 0x20 ADD PUSH1 0x2 DUP3 ADD DUP1 SLOAD PUSH2 0x2860 SWAP1 PUSH2 0x6D80 JUMP JUMPDEST DUP1 PUSH1 0x1F ADD PUSH1 0x20 DUP1 SWAP2 DIV MUL PUSH1 0x20 ADD PUSH1 0x40 MLOAD SWAP1 DUP2 ADD PUSH1 0x40 MSTORE DUP1 SWAP3 SWAP2 SWAP1 DUP2 DUP2 MSTORE PUSH1 0x20 ADD DUP3 DUP1 SLOAD PUSH2 0x288C SWAP1 PUSH2 0x6D80 JUMP JUMPDEST DUP1 ISZERO PUSH2 0x28D9 JUMPI DUP1 PUSH1 0x1F LT PUSH2 0x28AE JUMPI PUSH2 0x100 DUP1 DUP4 SLOAD DIV MUL DUP4 MSTORE SWAP2 PUSH1 0x20 ADD SWAP2 PUSH2 0x28D9 JUMP JUMPDEST DUP3 ADD SWAP2 SWAP1 PUSH1 0x0 MSTORE PUSH1 0x20 PUSH1 0x0 KECCAK256 SWAP1 JUMPDEST DUP2 SLOAD DUP2 MSTORE SWAP1 PUSH1 0x1 ADD SWAP1 PUSH1 0x20 ADD DUP1 DUP4 GT PUSH2 0x28BC JUMPI DUP3 SWAP1 SUB PUSH1 0x1F AND DUP3 ADD SWAP2 JUMPDEST POP POP POP POP POP DUP2 MSTORE PUSH1 0x20 ADD PUSH1 0x3 DUP3 ADD DUP1 SLOAD PUSH2 0x28F2 SWAP1 PUSH2 0x6D80 JUMP JUMPDEST DUP1 PUSH1 0x1F ADD PUSH1 0x20 DUP1 SWAP2 DIV MUL PUSH1 0x20 ADD PUSH1 0x40 MLOAD SWAP1 DUP2 ADD PUSH1 0x40 MSTORE DUP1 SWAP3 SWAP2 SWAP1 DUP2 DUP2 MSTORE PUSH1 0x20 ADD DUP3 DUP1 SLOAD PUSH2 0x291E SWAP1 PUSH2 0x6D80 JUMP JUMPDEST DUP1 ISZERO PUSH2 0x296B JUMPI DUP1 PUSH1 0x1F LT PUSH2 0x2940 JUMPI PUSH2 0x100 DUP1 DUP4 SLOAD DIV MUL DUP4 MSTORE SWAP2 PUSH1 0x20 ADD SWAP2 PUSH2 0x296B JUMP JUMPDEST DUP3 ADD SWAP2 SWAP1 PUSH1 0x0 MSTORE PUSH1 0x20 PUSH1 0x0 KECCAK256 SWAP1 JUMPDEST DUP2 SLOAD DUP2 MSTORE SWAP1 PUSH1 0x1 ADD SWAP1 PUSH1 0x20 ADD DUP1 DUP4 GT PUSH2 0x294E JUMPI DUP3 SWAP1 SUB PUSH1 0x1F AND DUP3 ADD SWAP2 JUMPDEST POP POP POP POP POP DUP2 MSTORE PUSH1 0x20 ADD PUSH1 0x4 DUP3 ADD PUSH1 0xA DUP1 PUSH1 0x20 MUL PUSH1 0x40 MLOAD SWAP1 DUP2 ADD PUSH1 0x40 MSTORE DUP1 SWAP3 SWAP2 SWAP1 PUSH1 0x0 SWAP1 JUMPDEST DUP3 DUP3 LT ISZERO PUSH2 0x2B17 JUMPI DUP4 DUP3 PUSH1 0x3 MUL ADD PUSH1 0x40 MLOAD DUP1 PUSH1 0x60 ADD PUSH1 0x40 MSTORE SWAP1 DUP2 PUSH1 0x0 DUP3 ADD PUSH1 0x0 SWAP1 SLOAD SWAP1 PUSH2 0x100 EXP SWAP1 DIV PUSH1 0xFF AND PUSH1 0x2 DUP2 GT ISZERO PUSH2 0x29CE JUMPI PUSH2 0x29CD PUSH2 0x6483 JUMP JUMPDEST JUMPDEST PUSH1 0x2 DUP2 GT ISZERO PUSH2 0x29E0 JUMPI PUSH2 0x29DF PUSH2 0x6483 JUMP JUMPDEST JUMPDEST DUP2 MSTORE PUSH1 0x20 ADD PUSH1 0x1 DUP3 ADD DUP1 SLOAD PUSH2 0x29F4 SWAP1 PUSH2 0x6D80 JUMP JUMPDEST DUP1 PUSH1 0x1F ADD PUSH1 0x20 DUP1 SWAP2 DIV MUL PUSH1 0x20 ADD PUSH1 0x40 MLOAD SWAP1 DUP2 ADD PUSH1 0x40 MSTORE DUP1 SWAP3 SWAP2 SWAP1 DUP2 DUP2 MSTORE PUSH1 0x20 ADD DUP3 DUP1 SLOAD PUSH2 0x2A20 SWAP1 PUSH2 0x6D80 JUMP JUMPDEST DUP1 ISZERO PUSH2 0x2A6D JUMPI DUP1 PUSH1 0x1F LT PUSH2 0x2A42 JUMPI PUSH2 0x100 DUP1 DUP4 SLOAD DIV MUL DUP4 MSTORE SWAP2 PUSH1 0x20 ADD SWAP2 PUSH2 0x2A6D JUMP JUMPDEST DUP3 ADD SWAP2 SWAP1 PUSH1 0x0 MSTORE PUSH1 0x20 PUSH1 0x0 KECCAK256 SWAP1 JUMPDEST DUP2 SLOAD DUP2 MSTORE SWAP1 PUSH1 0x1 ADD SWAP1 PUSH1 0x20 ADD DUP1 DUP4 GT PUSH2 0x2A50 JUMPI DUP3 SWAP1 SUB PUSH1 0x1F AND DUP3 ADD SWAP2 JUMPDEST POP POP POP POP POP DUP2 MSTORE PUSH1 0x20 ADD PUSH1 0x2 DUP3 ADD DUP1 SLOAD PUSH2 0x2A86 SWAP1 PUSH2 0x6D80 JUMP JUMPDEST DUP1 PUSH1 0x1F ADD PUSH1 0x20 DUP1 SWAP2 DIV MUL PUSH1 0x20 ADD PUSH1 0x40 MLOAD SWAP1 DUP2 ADD PUSH1 0x40 MSTORE DUP1 SWAP3 SWAP2 SWAP1 DUP2 DUP2 MSTORE PUSH1 0x20 ADD DUP3 DUP1 SLOAD PUSH2 0x2AB2 SWAP1 PUSH2 0x6D80 JUMP JUMPDEST DUP1 ISZERO PUSH2 0x2AFF JUMPI DUP1 PUSH1 0x1F LT PUSH2 0x2AD4 JUMPI PUSH2 0x100 DUP1 DUP4 SLOAD DIV MUL DUP4 MSTORE SWAP2 PUSH1 0x20 ADD SWAP2 PUSH2 0x2AFF JUMP JUMPDEST DUP3 ADD SWAP2 SWAP1 PUSH1 0x0 MSTORE PUSH1 0x20 PUSH1 0x0 KECCAK256 SWAP1 JUMPDEST DUP2 SLOAD DUP2 MSTORE SWAP1 PUSH1 0x1 ADD SWAP1 PUSH1 0x20 ADD DUP1 DUP4 GT PUSH2 0x2AE2 JUMPI DUP3 SWAP1 SUB PUSH1 0x1F AND DUP3 ADD SWAP2 JUMPDEST POP POP POP POP POP DUP2 MSTORE POP POP DUP2 MSTORE PUSH1 0x20 ADD SWAP1 PUSH1 0x1 ADD SWAP1 PUSH2 0x2990 JUMP JUMPDEST POP POP POP POP DUP2 MSTORE PUSH1 0x20 ADD PUSH1 0x22 DUP3 ADD SLOAD DUP2 MSTORE PUSH1 0x20 ADD PUSH1 0x23 DUP3 ADD PUSH1 0x0 SWAP1 SLOAD SWAP1 PUSH2 0x100 EXP SWAP1 DIV PUSH1 0xFF AND ISZERO ISZERO ISZERO ISZERO DUP2 MSTORE POP POP DUP3 DUP3 DUP2 MLOAD DUP2 LT PUSH2 0x2B57 JUMPI PUSH2 0x2B56 PUSH2 0x6BDE JUMP JUMPDEST JUMPDEST PUSH1 0x20 MUL PUSH1 0x20 ADD ADD DUP2 SWAP1 MSTORE POP DUP1 DUP1 PUSH1 0x1 ADD SWAP2 POP POP PUSH2 0x2805 JUMP JUMPDEST POP DUP1 SWAP4 POP POP POP POP SWAP1 JUMP JUMPDEST PUSH2 0x2B81 PUSH2 0x4FF8 JUMP JUMPDEST PUSH1 0x0 PUSH2 0x2B8B PUSH2 0x496D JUMP JUMPDEST SWAP1 POP DUP1 PUSH1 0x7 ADD PUSH1 0x0 DUP5 DUP2 MSTORE PUSH1 0x20 ADD SWAP1 DUP2 MSTORE PUSH1 0x20 ADD PUSH1 0x0 KECCAK256 PUSH1 0x4 ADD PUSH1 0x0 SWAP1 SLOAD SWAP1 PUSH2 0x100 EXP SWAP1 DIV PUSH1 0xFF AND PUSH2 0x2BF2 JUMPI PUSH1 0x40 MLOAD PUSH32 0x8C379A000000000000000000000000000000000000000000000000000000000 DUP2 MSTORE PUSH1 0x4 ADD PUSH2 0x2BE9 SWAP1 PUSH2 0x6BBE JUMP JUMPDEST PUSH1 0x40 MLOAD DUP1 SWAP2 SUB SWAP1 REVERT JUMPDEST DUP1 PUSH1 0x7 ADD PUSH1 0x0 DUP5 DUP2 MSTORE PUSH1 0x20 ADD SWAP1 DUP2 MSTORE PUSH1 0x20 ADD PUSH1 0x0 KECCAK256 PUSH1 0x40 MLOAD DUP1 PUSH1 0xC0 ADD PUSH1 0x40 MSTORE SWAP1 DUP2 PUSH1 0x0 DUP3 ADD SLOAD DUP2 MSTORE PUSH1 0x20 ADD PUSH1 0x1 DUP3 ADD SLOAD DUP2 MSTORE PUSH1 0x20 ADD PUSH1 0x2 DUP3 ADD DUP1 SLOAD PUSH2 0x2C36 SWAP1 PUSH2 0x6D80 JUMP JUMPDEST DUP1 PUSH1 0x1F ADD PUSH1 0x20 DUP1 SWAP2 DIV MUL PUSH1 0x20 ADD PUSH1 0x40 MLOAD SWAP1 DUP2 ADD PUSH1 0x40 MSTORE DUP1 SWAP3 SWAP2 SWAP1 DUP2 DUP2 MSTORE PUSH1 0x20 ADD DUP3 DUP1 SLOAD PUSH2 0x2C62 SWAP1 PUSH2 0x6D80 JUMP JUMPDEST DUP1 ISZERO PUSH2 0x2CAF JUMPI DUP1 PUSH1 0x1F LT PUSH2 0x2C84 JUMPI PUSH2 0x100 DUP1 DUP4 SLOAD DIV MUL DUP4 MSTORE SWAP2 PUSH1 0x20 ADD SWAP2 PUSH2 0x2CAF JUMP JUMPDEST DUP3 ADD SWAP2 SWAP1 PUSH1 0x0 MSTORE PUSH1 0x20 PUSH1 0x0 KECCAK256 SWAP1 JUMPDEST DUP2 SLOAD DUP2 MSTORE SWAP1 PUSH1 0x1 ADD SWAP1 PUSH1 0x20 ADD DUP1 DUP4 GT PUSH2 0x2C92 JUMPI DUP3 SWAP1 SUB PUSH1 0x1F AND DUP3 ADD SWAP2 JUMPDEST POP POP POP POP POP DUP2 MSTORE PUSH1 0x20 ADD PUSH1 0x3 DUP3 ADD DUP1 SLOAD DUP1 PUSH1 0x20 MUL PUSH1 0x20 ADD PUSH1 0x40 MLOAD SWAP1 DUP2 ADD PUSH1 0x40 MSTORE DUP1 SWAP3 SWAP2 SWAP1 DUP2 DUP2 MSTORE PUSH1 0x20 ADD PUSH1 0x0 SWAP1 JUMPDEST DUP3 DUP3 LT ISZERO PUSH2 0x2EC1 JUMPI DUP4 DUP3 SWAP1 PUSH1 0x0 MSTORE PUSH1 0x20 PUSH1 0x0 KECCAK256 SWAP1 PUSH1 0x4 MUL ADD PUSH1 0x40 MLOAD DUP1 PUSH1 0x80 ADD PUSH1 0x40 MSTORE SWAP1 DUP2 PUSH1 0x0 DUP3 ADD SLOAD DUP2 MSTORE PUSH1 0x20 ADD PUSH1 0x1 DUP3 ADD SLOAD DUP2 MSTORE PUSH1 0x20 ADD PUSH1 0x2 DUP3 ADD DUP1 SLOAD PUSH2 0x2D24 SWAP1 PUSH2 0x6D80 JUMP JUMPDEST DUP1 PUSH1 0x1F ADD PUSH1 0x20 DUP1 SWAP2 DIV MUL PUSH1 0x20 ADD PUSH1 0x40 MLOAD SWAP1 DUP2 ADD PUSH1 0x40 MSTORE DUP1 SWAP3 SWAP2 SWAP1 DUP2 DUP2 MSTORE PUSH1 0x20 ADD DUP3 DUP1 SLOAD PUSH2 0x2D50 SWAP1 PUSH2 0x6D80 JUMP JUMPDEST DUP1 ISZERO PUSH2 0x2D9D JUMPI DUP1 PUSH1 0x1F LT PUSH2 0x2D72 JUMPI PUSH2 0x100 DUP1 DUP4 SLOAD DIV MUL DUP4 MSTORE SWAP2 PUSH1 0x20 ADD SWAP2 PUSH2 0x2D9D JUMP JUMPDEST DUP3 ADD SWAP2 SWAP1 PUSH1 0x0 MSTORE PUSH1 0x20 PUSH1 0x0 KECCAK256 SWAP1 JUMPDEST DUP2 SLOAD DUP2 MSTORE SWAP1 PUSH1 0x1 ADD SWAP1 PUSH1 0x20 ADD DUP1 DUP4 GT PUSH2 0x2D80 JUMPI DUP3 SWAP1 SUB PUSH1 0x1F AND DUP3 ADD SWAP2 JUMPDEST POP POP POP POP POP DUP2 MSTORE PUSH1 0x20 ADD PUSH1 0x3 DUP3 ADD DUP1 SLOAD DUP1 PUSH1 0x20 MUL PUSH1 0x20 ADD PUSH1 0x40 MLOAD SWAP1 DUP2 ADD PUSH1 0x40 MSTORE DUP1 SWAP3 SWAP2 SWAP1 DUP2 DUP2 MSTORE PUSH1 0x20 ADD PUSH1 0x0 SWAP1 JUMPDEST DUP3 DUP3 LT ISZERO PUSH2 0x2EAA JUMPI DUP4 DUP3 SWAP1 PUSH1 0x0 MSTORE PUSH1 0x20 PUSH1 0x0 KECCAK256 SWAP1 PUSH1 0x2 MUL ADD PUSH1 0x40 MLOAD DUP1 PUSH1 0x40 ADD PUSH1 0x40 MSTORE SWAP1 DUP2 PUSH1 0x0 DUP3 ADD DUP1 SLOAD PUSH2 0x2DFE SWAP1 PUSH2 0x6D80 JUMP JUMPDEST DUP1 PUSH1 0x1F ADD PUSH1 0x20 DUP1 SWAP2 DIV MUL PUSH1 0x20 ADD PUSH1 0x40 MLOAD SWAP1 DUP2 ADD PUSH1 0x40 MSTORE DUP1 SWAP3 SWAP2 SWAP1 DUP2 DUP2 MSTORE PUSH1 0x20 ADD DUP3 DUP1 SLOAD PUSH2 0x2E2A SWAP1 PUSH2 0x6D80 JUMP JUMPDEST DUP1 ISZERO PUSH2 0x2E77 JUMPI DUP1 PUSH1 0x1F LT PUSH2 0x2E4C JUMPI PUSH2 0x100 DUP1 DUP4 SLOAD DIV MUL DUP4 MSTORE SWAP2 PUSH1 0x20 ADD SWAP2 PUSH2 0x2E77 JUMP JUMPDEST DUP3 ADD SWAP2 SWAP1 PUSH1 0x0 MSTORE PUSH1 0x20 PUSH1 0x0 KECCAK256 SWAP1 JUMPDEST DUP2 SLOAD DUP2 MSTORE SWAP1 PUSH1 0x1 ADD SWAP1 PUSH1 0x20 ADD DUP1 DUP4 GT PUSH2 0x2E5A JUMPI DUP3 SWAP1 SUB PUSH1 0x1F AND DUP3 ADD SWAP2 JUMPDEST POP POP POP POP POP DUP2 MSTORE PUSH1 0x20 ADD PUSH1 0x1 DUP3 ADD PUSH1 0x0 SWAP1 SLOAD SWAP1 PUSH2 0x100 EXP SWAP1 DIV PUSH1 0xFF AND ISZERO ISZERO ISZERO ISZERO DUP2 MSTORE POP POP DUP2 MSTORE PUSH1 0x20 ADD SWAP1 PUSH1 0x1 ADD SWAP1 PUSH2 0x2DCB JUMP JUMPDEST POP POP POP POP DUP2 MSTORE POP POP DUP2 MSTORE PUSH1 0x20 ADD SWAP1 PUSH1 0x1 ADD SWAP1 PUSH2 0x2CDD JUMP JUMPDEST POP POP POP POP DUP2 MSTORE PUSH1 0x20 ADD PUSH1 0x4 DUP3 ADD PUSH1 0x0 SWAP1 SLOAD SWAP1 PUSH2 0x100 EXP SWAP1 DIV PUSH1 0xFF AND ISZERO ISZERO ISZERO ISZERO DUP2 MSTORE PUSH1 0x20 ADD PUSH1 0x5 DUP3 ADD SLOAD DUP2 MSTORE POP POP SWAP2 POP POP SWAP2 SWAP1 POP JUMP JUMPDEST PUSH1 0x60 PUSH1 0x0 PUSH2 0x2F02 PUSH2 0x496D JUMP JUMPDEST SWAP1 POP DUP1 PUSH1 0x4 ADD PUSH1 0x0 DUP5 DUP2 MSTORE PUSH1 0x20 ADD SWAP1 DUP2 MSTORE PUSH1 0x20 ADD PUSH1 0x0 KECCAK256 DUP1 SLOAD DUP1 PUSH1 0x20 MUL PUSH1 0x20 ADD PUSH1 0x40 MLOAD SWAP1 DUP2 ADD PUSH1 0x40 MSTORE DUP1 SWAP3 SWAP2 SWAP1 DUP2 DUP2 MSTORE PUSH1 0x20 ADD PUSH1 0x0 SWAP1 JUMPDEST DUP3 DUP3 LT ISZERO PUSH2 0x3036 JUMPI DUP4 DUP3 SWAP1 PUSH1 0x0 MSTORE PUSH1 0x20 PUSH1 0x0 KECCAK256 SWAP1 PUSH1 0x5 MUL ADD PUSH1 0x40 MLOAD DUP1 PUSH1 0xA0 ADD PUSH1 0x40 MSTORE SWAP1 DUP2 PUSH1 0x0 DUP3 ADD SLOAD DUP2 MSTORE PUSH1 0x20 ADD PUSH1 0x1 DUP3 ADD SLOAD DUP2 MSTORE PUSH1 0x20 ADD PUSH1 0x2 DUP3 ADD DUP1 SLOAD PUSH2 0x2F80 SWAP1 PUSH2 0x6D80 JUMP JUMPDEST DUP1 PUSH1 0x1F ADD PUSH1 0x20 DUP1 SWAP2 DIV MUL PUSH1 0x20 ADD PUSH1 0x40 MLOAD SWAP1 DUP2 ADD PUSH1 0x40 MSTORE DUP1 SWAP3 SWAP2 SWAP1 DUP2 DUP2 MSTORE PUSH1 0x20 ADD DUP3 DUP1 SLOAD PUSH2 0x2FAC SWAP1 PUSH2 0x6D80 JUMP JUMPDEST DUP1 ISZERO PUSH2 0x2FF9 JUMPI DUP1 PUSH1 0x1F LT PUSH2 0x2FCE JUMPI PUSH2 0x100 DUP1 DUP4 SLOAD DIV MUL DUP4 MSTORE SWAP2 PUSH1 0x20 ADD SWAP2 PUSH2 0x2FF9 JUMP JUMPDEST DUP3 ADD SWAP2 SWAP1 PUSH1 0x0 MSTORE PUSH1 0x20 PUSH1 0x0 KECCAK256 SWAP1 JUMPDEST DUP2 SLOAD DUP2 MSTORE SWAP1 PUSH1 0x1 ADD SWAP1 PUSH1 0x20 ADD DUP1 DUP4 GT PUSH2 0x2FDC JUMPI DUP3 SWAP1 SUB PUSH1 0x1F AND DUP3 ADD SWAP2 JUMPDEST POP POP POP POP POP DUP2 MSTORE PUSH1 0x20 ADD PUSH1 0x3 DUP3 ADD SLOAD DUP2 MSTORE PUSH1 0x20 ADD PUSH1 0x4 DUP3 ADD PUSH1 0x0 SWAP1 SLOAD SWAP1 PUSH2 0x100 EXP SWAP1 DIV PUSH1 0xFF AND ISZERO ISZERO ISZERO ISZERO DUP2 MSTORE POP POP DUP2 MSTORE PUSH1 0x20 ADD SWAP1 PUSH1 0x1 ADD SWAP1 PUSH2 0x2F39 JUMP JUMPDEST POP POP POP POP SWAP2 POP POP SWAP2 SWAP1 POP JUMP JUMPDEST PUSH1 0x0 PUSH2 0x304C PUSH2 0x496D JUMP JUMPDEST SWAP1 POP PUSH1 0x0 DUP2 PUSH1 0x5 ADD PUSH1 0x0 DUP8 DUP2 MSTORE PUSH1 0x20 ADD SWAP1 DUP2 MSTORE PUSH1 0x20 ADD PUSH1 0x0 KECCAK256 SWAP1 POP DUP1 PUSH1 0x23 ADD PUSH1 0x0 SWAP1 SLOAD SWAP1 PUSH2 0x100 EXP SWAP1 DIV PUSH1 0xFF AND PUSH2 0x30B8 JUMPI PUSH1 0x40 MLOAD PUSH32 0x8C379A000000000000000000000000000000000000000000000000000000000 DUP2 MSTORE PUSH1 0x4 ADD PUSH2 0x30AF SWAP1 PUSH2 0x768A JUMP JUMPDEST PUSH1 0x40 MLOAD DUP1 SWAP2 SUB SWAP1 REVERT JUMPDEST PUSH1 0x0 DUP2 PUSH1 0x22 ADD SLOAD SWAP1 POP PUSH1 0xA DUP6 DUP6 SWAP1 POP DUP3 PUSH2 0x30D2 SWAP2 SWAP1 PUSH2 0x76AA JUMP JUMPDEST GT ISZERO PUSH2 0x3113 JUMPI PUSH1 0x40 MLOAD PUSH32 0x8C379A000000000000000000000000000000000000000000000000000000000 DUP2 MSTORE PUSH1 0x4 ADD PUSH2 0x310A SWAP1 PUSH2 0x772A JUMP JUMPDEST PUSH1 0x40 MLOAD DUP1 SWAP2 SUB SWAP1 REVERT JUMPDEST PUSH1 0x0 JUMPDEST DUP6 DUP6 SWAP1 POP DUP2 LT ISZERO PUSH2 0x3304 JUMPI PUSH1 0x40 MLOAD DUP1 PUSH1 0x60 ADD PUSH1 0x40 MSTORE DUP1 DUP8 DUP8 DUP5 DUP2 DUP2 LT PUSH2 0x313F JUMPI PUSH2 0x313E PUSH2 0x6BDE JUMP JUMPDEST JUMPDEST SWAP1 POP PUSH1 0x20 MUL DUP2 ADD SWAP1 PUSH2 0x3151 SWAP2 SWAP1 PUSH2 0x7759 JUMP JUMPDEST PUSH1 0x0 ADD PUSH1 0x20 DUP2 ADD SWAP1 PUSH2 0x3163 SWAP2 SWAP1 PUSH2 0x7781 JUMP JUMPDEST PUSH1 0x2 DUP2 GT ISZERO PUSH2 0x3175 JUMPI PUSH2 0x3174 PUSH2 0x6483 JUMP JUMPDEST JUMPDEST DUP2 MSTORE PUSH1 0x20 ADD DUP8 DUP8 DUP5 DUP2 DUP2 LT PUSH2 0x318D JUMPI PUSH2 0x318C PUSH2 0x6BDE JUMP JUMPDEST JUMPDEST SWAP1 POP PUSH1 0x20 MUL DUP2 ADD SWAP1 PUSH2 0x319F SWAP2 SWAP1 PUSH2 0x7759 JUMP JUMPDEST DUP1 PUSH1 0x20 ADD SWAP1 PUSH2 0x31AE SWAP2 SWAP1 PUSH2 0x77AE JUMP JUMPDEST DUP1 DUP1 PUSH1 0x1F ADD PUSH1 0x20 DUP1 SWAP2 DIV MUL PUSH1 0x20 ADD PUSH1 0x40 MLOAD SWAP1 DUP2 ADD PUSH1 0x40 MSTORE DUP1 SWAP4 SWAP3 SWAP2 SWAP1 DUP2 DUP2 MSTORE PUSH1 0x20 ADD DUP4 DUP4 DUP1 DUP3 DUP5 CALLDATACOPY PUSH1 0x0 DUP2 DUP5 ADD MSTORE PUSH1 0x1F NOT PUSH1 0x1F DUP3 ADD AND SWAP1 POP DUP1 DUP4 ADD SWAP3 POP POP POP POP POP POP POP DUP2 MSTORE PUSH1 0x20 ADD DUP8 DUP8 DUP5 DUP2 DUP2 LT PUSH2 0x3209 JUMPI PUSH2 0x3208 PUSH2 0x6BDE JUMP JUMPDEST JUMPDEST SWAP1 POP PUSH1 0x20 MUL DUP2 ADD SWAP1 PUSH2 0x321B SWAP2 SWAP1 PUSH2 0x7759 JUMP JUMPDEST DUP1 PUSH1 0x40 ADD SWAP1 PUSH2 0x322A SWAP2 SWAP1 PUSH2 0x77AE JUMP JUMPDEST DUP1 DUP1 PUSH1 0x1F ADD PUSH1 0x20 DUP1 SWAP2 DIV MUL PUSH1 0x20 ADD PUSH1 0x40 MLOAD SWAP1 DUP2 ADD PUSH1 0x40 MSTORE DUP1 SWAP4 SWAP3 SWAP2 SWAP1 DUP2 DUP2 MSTORE PUSH1 0x20 ADD DUP4 DUP4 DUP1 DUP3 DUP5 CALLDATACOPY PUSH1 0x0 DUP2 DUP5 ADD MSTORE PUSH1 0x1F NOT PUSH1 0x1F DUP3 ADD AND SWAP1 POP DUP1 DUP4 ADD SWAP3 POP POP POP POP POP POP POP DUP2 MSTORE POP DUP4 PUSH1 0x4 ADD DUP4 PUSH1 0xA DUP2 LT PUSH2 0x3286 JUMPI PUSH2 0x3285 PUSH2 0x6BDE JUMP JUMPDEST JUMPDEST PUSH1 0x3 MUL ADD PUSH1 0x0 DUP3 ADD MLOAD DUP2 PUSH1 0x0 ADD PUSH1 0x0 PUSH2 0x100 EXP DUP2 SLOAD DUP2 PUSH1 0xFF MUL NOT AND SWAP1 DUP4 PUSH1 0x2 DUP2 GT ISZERO PUSH2 0x32B5 JUMPI PUSH2 0x32B4 PUSH2 0x6483 JUMP JUMPDEST JUMPDEST MUL OR SWAP1 SSTORE POP PUSH1 0x20 DUP3 ADD MLOAD DUP2 PUSH1 0x1 ADD SWAP1 DUP2 PUSH2 0x32CF SWAP2 SWAP1 PUSH2 0x6F5D JUMP JUMPDEST POP PUSH1 0x40 DUP3 ADD MLOAD DUP2 PUSH1 0x2 ADD SWAP1 DUP2 PUSH2 0x32E5 SWAP2 SWAP1 PUSH2 0x6F5D JUMP JUMPDEST POP SWAP1 POP POP DUP2 DUP1 PUSH2 0x32F4 SWAP1 PUSH2 0x7292 JUMP JUMPDEST SWAP3 POP POP DUP1 DUP1 PUSH1 0x1 ADD SWAP2 POP POP PUSH2 0x3116 JUMP JUMPDEST POP DUP1 DUP3 PUSH1 0x22 ADD DUP2 SWAP1 SSTORE POP PUSH1 0x0 JUMPDEST DUP4 PUSH1 0x10 ADD DUP1 SLOAD SWAP1 POP DUP2 LT ISZERO PUSH2 0x3414 JUMPI DUP8 DUP5 PUSH1 0x10 ADD DUP3 DUP2 SLOAD DUP2 LT PUSH2 0x3337 JUMPI PUSH2 0x3336 PUSH2 0x6BDE JUMP JUMPDEST JUMPDEST SWAP1 PUSH1 0x0 MSTORE PUSH1 0x20 PUSH1 0x0 KECCAK256 SWAP1 PUSH1 0x24 MUL ADD PUSH1 0x1 ADD SLOAD SUB PUSH2 0x3407 JUMPI DUP3 DUP5 PUSH1 0x10 ADD DUP3 DUP2 SLOAD DUP2 LT PUSH2 0x3365 JUMPI PUSH2 0x3364 PUSH2 0x6BDE JUMP JUMPDEST JUMPDEST SWAP1 PUSH1 0x0 MSTORE PUSH1 0x20 PUSH1 0x0 KECCAK256 SWAP1 PUSH1 0x24 MUL ADD PUSH1 0x0 DUP3 ADD SLOAD DUP2 PUSH1 0x0 ADD SSTORE PUSH1 0x1 DUP3 ADD SLOAD DUP2 PUSH1 0x1 ADD SSTORE PUSH1 0x2 DUP3 ADD DUP2 PUSH1 0x2 ADD SWAP1 DUP2 PUSH2 0x339B SWAP2 SWAP1 PUSH2 0x72F0 JUMP JUMPDEST POP PUSH1 0x3 DUP3 ADD DUP2 PUSH1 0x3 ADD SWAP1 DUP2 PUSH2 0x33B0 SWAP2 SWAP1 PUSH2 0x72F0 JUMP JUMPDEST POP PUSH1 0x4 DUP3 ADD DUP2 PUSH1 0x4 ADD SWAP1 PUSH1 0xA PUSH2 0x33C7 SWAP3 SWAP2 SWAP1 PUSH2 0x5030 JUMP JUMPDEST POP PUSH1 0x22 DUP3 ADD SLOAD DUP2 PUSH1 0x22 ADD SSTORE PUSH1 0x23 DUP3 ADD PUSH1 0x0 SWAP1 SLOAD SWAP1 PUSH2 0x100 EXP SWAP1 DIV PUSH1 0xFF AND DUP2 PUSH1 0x23 ADD PUSH1 0x0 PUSH2 0x100 EXP DUP2 SLOAD DUP2 PUSH1 0xFF MUL NOT AND SWAP1 DUP4 ISZERO ISZERO MUL OR SWAP1 SSTORE POP SWAP1 POP POP PUSH2 0x3414 JUMP JUMPDEST DUP1 DUP1 PUSH1 0x1 ADD SWAP2 POP POP PUSH2 0x3311 JUMP JUMPDEST POP POP POP POP POP POP POP POP JUMP JUMPDEST PUSH1 0x0 DUP1 PUSH2 0x3429 PUSH2 0x496D JUMP JUMPDEST SWAP1 POP DUP1 PUSH1 0x7 ADD PUSH1 0x0 DUP5 DUP2 MSTORE PUSH1 0x20 ADD SWAP1 DUP2 MSTORE PUSH1 0x20 ADD PUSH1 0x0 KECCAK256 PUSH1 0x4 ADD PUSH1 0x0 SWAP1 SLOAD SWAP1 PUSH2 0x100 EXP SWAP1 DIV PUSH1 0xFF AND SWAP2 POP POP SWAP2 SWAP1 POP JUMP JUMPDEST PUSH1 0x0 DUP1 PUSH2 0x3464 PUSH2 0x496D JUMP JUMPDEST SWAP1 POP DUP1 PUSH1 0x0 ADD PUSH1 0x0 DUP5 DUP2 MSTORE PUSH1 0x20 ADD SWAP1 DUP2 MSTORE PUSH1 0x20 ADD PUSH1 0x0 KECCAK256 PUSH1 0x0 CALLER PUSH20 0xFFFFFFFFFFFFFFFFFFFFFFFFFFFFFFFFFFFFFFFF AND PUSH20 0xFFFFFFFFFFFFFFFFFFFFFFFFFFFFFFFFFFFFFFFF AND DUP2 MSTORE PUSH1 0x20 ADD SWAP1 DUP2 MSTORE PUSH1 0x20 ADD PUSH1 0x0 KECCAK256 PUSH1 0x0 SWAP1 SLOAD SWAP1 PUSH2 0x100 EXP SWAP1 DIV PUSH1 0xFF AND ISZERO PUSH2 0x3506 JUMPI PUSH1 0x40 MLOAD PUSH32 0x8C379A000000000000000000000000000000000000000000000000000000000 DUP2 MSTORE PUSH1 0x4 ADD PUSH2 0x34FD SWAP1 PUSH2 0x785D JUMP JUMPDEST PUSH1 0x40 MLOAD DUP1 SWAP2 SUB SWAP1 REVERT JUMPDEST DUP1 PUSH1 0x5 ADD PUSH1 0x0 DUP5 DUP2 MSTORE PUSH1 0x20 ADD SWAP1 DUP2 MSTORE PUSH1 0x20 ADD PUSH1 0x0 KECCAK256 PUSH1 0x23 ADD PUSH1 0x0 SWAP1 SLOAD SWAP1 PUSH2 0x100 EXP SWAP1 DIV PUSH1 0xFF AND PUSH2 0x356B JUMPI PUSH1 0x40 MLOAD PUSH32 0x8C379A000000000000000000000000000000000000000000000000000000000 DUP2 MSTORE PUSH1 0x4 ADD PUSH2 0x3562 SWAP1 PUSH2 0x761E JUMP JUMPDEST PUSH1 0x40 MLOAD DUP1 SWAP2 SUB SWAP1 REVERT JUMPDEST PUSH1 0x1 DUP2 PUSH1 0x0 ADD PUSH1 0x0 DUP6 DUP2 MSTORE PUSH1 0x20 ADD SWAP1 DUP2 MSTORE PUSH1 0x20 ADD PUSH1 0x0 KECCAK256 PUSH1 0x0 CALLER PUSH20 0xFFFFFFFFFFFFFFFFFFFFFFFFFFFFFFFFFFFFFFFF AND PUSH20 0xFFFFFFFFFFFFFFFFFFFFFFFFFFFFFFFFFFFFFFFF AND DUP2 MSTORE PUSH1 0x20 ADD SWAP1 DUP2 MSTORE PUSH1 0x20 ADD PUSH1 0x0 KECCAK256 PUSH1 0x0 PUSH2 0x100 EXP DUP2 SLOAD DUP2 PUSH1 0xFF MUL NOT AND SWAP1 DUP4 ISZERO ISZERO MUL OR SWAP1 SSTORE POP DUP1 PUSH1 0x1 ADD PUSH1 0x0 CALLER PUSH20 0xFFFFFFFFFFFFFFFFFFFFFFFFFFFFFFFFFFFFFFFF AND PUSH20 0xFFFFFFFFFFFFFFFFFFFFFFFFFFFFFFFFFFFFFFFF AND DUP2 MSTORE PUSH1 0x20 ADD SWAP1 DUP2 MSTORE PUSH1 0x20 ADD PUSH1 0x0 KECCAK256 DUP4 SWAP1 DUP1 PUSH1 0x1 DUP2 SLOAD ADD DUP1 DUP3 SSTORE DUP1 SWAP2 POP POP PUSH1 0x1 SWAP1 SUB SWAP1 PUSH1 0x0 MSTORE PUSH1 0x20 PUSH1 0x0 KECCAK256 ADD PUSH1 0x0 SWAP1 SWAP2 SWAP1 SWAP2 SWAP1 SWAP2 POP SSTORE DUP1 PUSH1 0x2 ADD PUSH1 0x0 CALLER PUSH20 0xFFFFFFFFFFFFFFFFFFFFFFFFFFFFFFFFFFFFFFFF AND PUSH20 0xFFFFFFFFFFFFFFFFFFFFFFFFFFFFFFFFFFFFFFFF AND DUP2 MSTORE PUSH1 0x20 ADD SWAP1 DUP2 MSTORE PUSH1 0x20 ADD PUSH1 0x0 KECCAK256 PUSH1 0x0 DUP7 DUP2 MSTORE PUSH1 0x20 ADD SWAP1 DUP2 MSTORE PUSH1 0x20 ADD PUSH1 0x0 KECCAK256 DUP4 SWAP1 DUP1 PUSH1 0x1 DUP2 SLOAD ADD DUP1 DUP3 SSTORE DUP1 SWAP2 POP POP PUSH1 0x1 SWAP1 SUB SWAP1 PUSH1 0x0 MSTORE PUSH1 0x20 PUSH1 0x0 KECCAK256 ADD PUSH1 0x0 SWAP1 SWAP2 SWAP1 SWAP2 SWAP1 SWAP2 POP SSTORE DUP3 DUP5 PUSH32 0x2479AA0D18311382446EDB0FA11D0DBD5BAB1BE78B1E60B343FFE4D2A5F798AD CALLER PUSH1 0x40 MLOAD PUSH2 0x36E8 SWAP2 SWAP1 PUSH2 0x788C JUMP JUMPDEST PUSH1 0x40 MLOAD DUP1 SWAP2 SUB SWAP1 LOG3 PUSH1 0x1 SWAP2 POP POP SWAP4 SWAP3 POP POP POP JUMP JUMPDEST PUSH1 0x0 DUP1 PUSH2 0x3707 PUSH2 0x496D JUMP JUMPDEST SWAP1 POP PUSH1 0x0 PUSH2 0x3713 PUSH2 0x49E0 JUMP JUMPDEST SWAP1 POP PUSH1 0x0 PUSH2 0x371F PUSH2 0x4DEA JUMP JUMPDEST SWAP1 POP PUSH1 0x0 PUSH20 0xFFFFFFFFFFFFFFFFFFFFFFFFFFFFFFFFFFFFFFFF AND DUP3 PUSH1 0x5 ADD PUSH1 0x0 DUP10 DUP2 MSTORE PUSH1 0x20 ADD SWAP1 DUP2 MSTORE PUSH1 0x20 ADD PUSH1 0x0 KECCAK256 PUSH1 0x5 ADD PUSH1 0x0 SWAP1 SLOAD SWAP1 PUSH2 0x100 EXP SWAP1 DIV PUSH20 0xFFFFFFFFFFFFFFFFFFFFFFFFFFFFFFFFFFFFFFFF AND PUSH20 0xFFFFFFFFFFFFFFFFFFFFFFFFFFFFFFFFFFFFFFFF AND SUB PUSH2 0x37C8 JUMPI PUSH1 0x40 MLOAD PUSH32 0x8C379A000000000000000000000000000000000000000000000000000000000 DUP2 MSTORE PUSH1 0x4 ADD PUSH2 0x37BF SWAP1 PUSH2 0x78F3 JUMP JUMPDEST PUSH1 0x40 MLOAD DUP1 SWAP2 SUB SWAP1 REVERT JUMPDEST PUSH1 0x0 JUMPDEST DUP7 MLOAD DUP2 LT ISZERO PUSH2 0x39F5 JUMPI PUSH1 0x0 PUSH1 0x40 MLOAD DUP1 PUSH1 0xA0 ADD PUSH1 0x40 MSTORE DUP1 DUP11 DUP2 MSTORE PUSH1 0x20 ADD DUP5 PUSH1 0x0 ADD PUSH1 0x1 ADD SLOAD DUP2 MSTORE PUSH1 0x20 ADD DUP10 DUP5 DUP2 MLOAD DUP2 LT PUSH2 0x3807 JUMPI PUSH2 0x3806 PUSH2 0x6BDE JUMP JUMPDEST JUMPDEST PUSH1 0x20 MUL PUSH1 0x20 ADD ADD MLOAD DUP2 MSTORE PUSH1 0x20 ADD DUP9 DUP5 DUP2 MLOAD DUP2 LT PUSH2 0x3827 JUMPI PUSH2 0x3826 PUSH2 0x6BDE JUMP JUMPDEST JUMPDEST PUSH1 0x20 MUL PUSH1 0x20 ADD ADD MLOAD DUP2 MSTORE PUSH1 0x20 ADD PUSH1 0x1 ISZERO ISZERO DUP2 MSTORE POP SWAP1 POP DUP5 PUSH1 0xF ADD DUP2 SWAP1 DUP1 PUSH1 0x1 DUP2 SLOAD ADD DUP1 DUP3 SSTORE DUP1 SWAP2 POP POP PUSH1 0x1 SWAP1 SUB SWAP1 PUSH1 0x0 MSTORE PUSH1 0x20 PUSH1 0x0 KECCAK256 SWAP1 PUSH1 0x5 MUL ADD PUSH1 0x0 SWAP1 SWAP2 SWAP1 SWAP2 SWAP1 SWAP2 POP PUSH1 0x0 DUP3 ADD MLOAD DUP2 PUSH1 0x0 ADD SSTORE PUSH1 0x20 DUP3 ADD MLOAD DUP2 PUSH1 0x1 ADD SSTORE PUSH1 0x40 DUP3 ADD MLOAD DUP2 PUSH1 0x2 ADD SWAP1 DUP2 PUSH2 0x3894 SWAP2 SWAP1 PUSH2 0x6F5D JUMP JUMPDEST POP PUSH1 0x60 DUP3 ADD MLOAD DUP2 PUSH1 0x3 ADD SSTORE PUSH1 0x80 DUP3 ADD MLOAD DUP2 PUSH1 0x4 ADD PUSH1 0x0 PUSH2 0x100 EXP DUP2 SLOAD DUP2 PUSH1 0xFF MUL NOT AND SWAP1 DUP4 ISZERO ISZERO MUL OR SWAP1 SSTORE POP POP POP DUP1 DUP6 PUSH1 0x3 ADD PUSH1 0x0 DUP6 PUSH1 0x0 ADD PUSH1 0x1 ADD SLOAD DUP2 MSTORE PUSH1 0x20 ADD SWAP1 DUP2 MSTORE PUSH1 0x20 ADD PUSH1 0x0 KECCAK256 PUSH1 0x0 DUP3 ADD MLOAD DUP2 PUSH1 0x0 ADD SSTORE PUSH1 0x20 DUP3 ADD MLOAD DUP2 PUSH1 0x1 ADD SSTORE PUSH1 0x40 DUP3 ADD MLOAD DUP2 PUSH1 0x2 ADD SWAP1 DUP2 PUSH2 0x3907 SWAP2 SWAP1 PUSH2 0x6F5D JUMP JUMPDEST POP PUSH1 0x60 DUP3 ADD MLOAD DUP2 PUSH1 0x3 ADD SSTORE PUSH1 0x80 DUP3 ADD MLOAD DUP2 PUSH1 0x4 ADD PUSH1 0x0 PUSH2 0x100 EXP DUP2 SLOAD DUP2 PUSH1 0xFF MUL NOT AND SWAP1 DUP4 ISZERO ISZERO MUL OR SWAP1 SSTORE POP SWAP1 POP POP DUP5 PUSH1 0x4 ADD PUSH1 0x0 DUP11 DUP2 MSTORE PUSH1 0x20 ADD SWAP1 DUP2 MSTORE PUSH1 0x20 ADD PUSH1 0x0 KECCAK256 DUP2 SWAP1 DUP1 PUSH1 0x1 DUP2 SLOAD ADD DUP1 DUP3 SSTORE DUP1 SWAP2 POP POP PUSH1 0x1 SWAP1 SUB SWAP1 PUSH1 0x0 MSTORE PUSH1 0x20 PUSH1 0x0 KECCAK256 SWAP1 PUSH1 0x5 MUL ADD PUSH1 0x0 SWAP1 SWAP2 SWAP1 SWAP2 SWAP1 SWAP2 POP PUSH1 0x0 DUP3 ADD MLOAD DUP2 PUSH1 0x0 ADD SSTORE PUSH1 0x20 DUP3 ADD MLOAD DUP2 PUSH1 0x1 ADD SSTORE PUSH1 0x40 DUP3 ADD MLOAD DUP2 PUSH1 0x2 ADD SWAP1 DUP2 PUSH2 0x399D SWAP2 SWAP1 PUSH2 0x6F5D JUMP JUMPDEST POP PUSH1 0x60 DUP3 ADD MLOAD DUP2 PUSH1 0x3 ADD SSTORE PUSH1 0x80 DUP3 ADD MLOAD DUP2 PUSH1 0x4 ADD PUSH1 0x0 PUSH2 0x100 EXP DUP2 SLOAD DUP2 PUSH1 0xFF MUL NOT AND SWAP1 DUP4 ISZERO ISZERO MUL OR SWAP1 SSTORE POP POP POP DUP3 PUSH1 0x0 ADD PUSH1 0x1 ADD PUSH1 0x0 DUP2 SLOAD DUP1 SWAP3 SWAP2 SWAP1 PUSH2 0x39E2 SWAP1 PUSH2 0x7292 JUMP JUMPDEST SWAP2 SWAP1 POP SSTORE POP POP DUP1 DUP1 PUSH1 0x1 ADD SWAP2 POP POP PUSH2 0x37CB JUMP JUMPDEST POP DUP6 MLOAD DUP8 PUSH32 0x1EB97E969F52C132BB6C79817D1F9001078FFF0CD328CE625628E1FB4CC0E7DE PUSH1 0x40 MLOAD PUSH1 0x40 MLOAD DUP1 SWAP2 SUB SWAP1 LOG3 PUSH1 0x1 SWAP4 POP POP POP POP SWAP4 SWAP3 POP POP POP JUMP JUMPDEST PUSH1 0x0 PUSH2 0x3A3D PUSH2 0x496D JUMP JUMPDEST SWAP1 POP PUSH1 0x0 PUSH2 0x3A49 PUSH2 0x4DEA JUMP JUMPDEST SWAP1 POP DUP2 PUSH1 0x7 ADD PUSH1 0x0 DUP8 DUP2 MSTORE PUSH1 0x20 ADD SWAP1 DUP2 MSTORE PUSH1 0x20 ADD PUSH1 0x0 KECCAK256 PUSH1 0x4 ADD PUSH1 0x0 SWAP1 SLOAD SWAP1 PUSH2 0x100 EXP SWAP1 DIV PUSH1 0xFF AND PUSH2 0x3AB0 JUMPI PUSH1 0x40 MLOAD PUSH32 0x8C379A000000000000000000000000000000000000000000000000000000000 DUP2 MSTORE PUSH1 0x4 ADD PUSH2 0x3AA7 SWAP1 PUSH2 0x6BBE JUMP JUMPDEST PUSH1 0x40 MLOAD DUP1 SWAP2 SUB SWAP1 REVERT JUMPDEST PUSH1 0x0 DUP5 MLOAD GT DUP1 ISZERO PUSH2 0x3AC3 JUMPI POP PUSH1 0x4 DUP5 MLOAD GT ISZERO JUMPDEST PUSH2 0x3B02 JUMPI PUSH1 0x40 MLOAD PUSH32 0x8C379A000000000000000000000000000000000000000000000000000000000 DUP2 MSTORE PUSH1 0x4 ADD PUSH2 0x3AF9 SWAP1 PUSH2 0x795F JUMP JUMPDEST PUSH1 0x40 MLOAD DUP1 SWAP2 SUB SWAP1 REVERT JUMPDEST DUP4 MLOAD DUP4 PUSH1 0xFF AND LT PUSH2 0x3B48 JUMPI PUSH1 0x40 MLOAD PUSH32 0x8C379A000000000000000000000000000000000000000000000000000000000 DUP2 MSTORE PUSH1 0x4 ADD PUSH2 0x3B3F SWAP1 PUSH2 0x79CB JUMP JUMPDEST PUSH1 0x40 MLOAD DUP1 SWAP2 SUB SWAP1 REVERT JUMPDEST PUSH1 0x0 DUP2 PUSH1 0x0 ADD PUSH1 0x4 ADD SLOAD SWAP1 POP PUSH1 0x0 DUP4 PUSH1 0x8 ADD PUSH1 0x0 DUP4 DUP2 MSTORE PUSH1 0x20 ADD SWAP1 DUP2 MSTORE PUSH1 0x20 ADD PUSH1 0x0 KECCAK256 SWAP1 POP DUP8 DUP2 PUSH1 0x0 ADD DUP2 SWAP1 SSTORE POP DUP2 DUP2 PUSH1 0x1 ADD DUP2 SWAP1 SSTORE POP DUP7 DUP2 PUSH1 0x2 ADD SWAP1 DUP2 PUSH2 0x3B90 SWAP2 SWAP1 PUSH2 0x6F5D JUMP JUMPDEST POP PUSH1 0x0 JUMPDEST DUP7 MLOAD DUP2 PUSH1 0xFF AND LT ISZERO PUSH2 0x3C5A JUMPI PUSH1 0x0 PUSH1 0x40 MLOAD DUP1 PUSH1 0x40 ADD PUSH1 0x40 MSTORE DUP1 DUP10 DUP5 PUSH1 0xFF AND DUP2 MLOAD DUP2 LT PUSH2 0x3BC3 JUMPI PUSH2 0x3BC2 PUSH2 0x6BDE JUMP JUMPDEST JUMPDEST PUSH1 0x20 MUL PUSH1 0x20 ADD ADD MLOAD DUP2 MSTORE PUSH1 0x20 ADD DUP9 PUSH1 0xFF AND DUP5 PUSH1 0xFF AND EQ ISZERO ISZERO DUP2 MSTORE POP SWAP1 POP DUP3 PUSH1 0x3 ADD DUP2 SWAP1 DUP1 PUSH1 0x1 DUP2 SLOAD ADD DUP1 DUP3 SSTORE DUP1 SWAP2 POP POP PUSH1 0x1 SWAP1 SUB SWAP1 PUSH1 0x0 MSTORE PUSH1 0x20 PUSH1 0x0 KECCAK256 SWAP1 PUSH1 0x2 MUL ADD PUSH1 0x0 SWAP1 SWAP2 SWAP1 SWAP2 SWAP1 SWAP2 POP PUSH1 0x0 DUP3 ADD MLOAD DUP2 PUSH1 0x0 ADD SWAP1 DUP2 PUSH2 0x3C23 SWAP2 SWAP1 PUSH2 0x6F5D JUMP JUMPDEST POP PUSH1 0x20 DUP3 ADD MLOAD DUP2 PUSH1 0x1 ADD PUSH1 0x0 PUSH2 0x100 EXP DUP2 SLOAD DUP2 PUSH1 0xFF MUL NOT AND SWAP1 DUP4 ISZERO ISZERO MUL OR SWAP1 SSTORE POP POP POP POP DUP1 DUP1 PUSH2 0x3C52 SWAP1 PUSH2 0x79EB JUMP JUMPDEST SWAP2 POP POP PUSH2 0x3B94 JUMP JUMPDEST POP DUP4 PUSH1 0x7 ADD PUSH1 0x0 DUP10 DUP2 MSTORE PUSH1 0x20 ADD SWAP1 DUP2 MSTORE PUSH1 0x20 ADD PUSH1 0x0 KECCAK256 PUSH1 0x3 ADD DUP2 SWAP1 DUP1 PUSH1 0x1 DUP2 SLOAD ADD DUP1 DUP3 SSTORE DUP1 SWAP2 POP POP PUSH1 0x1 SWAP1 SUB SWAP1 PUSH1 0x0 MSTORE PUSH1 0x20 PUSH1 0x0 KECCAK256 SWAP1 PUSH1 0x4 MUL ADD PUSH1 0x0 SWAP1 SWAP2 SWAP1 SWAP2 SWAP1 SWAP2 POP PUSH1 0x0 DUP3 ADD SLOAD DUP2 PUSH1 0x0 ADD SSTORE PUSH1 0x1 DUP3 ADD SLOAD DUP2 PUSH1 0x1 ADD SSTORE PUSH1 0x2 DUP3 ADD DUP2 PUSH1 0x2 ADD SWAP1 DUP2 PUSH2 0x3CC5 SWAP2 SWAP1 PUSH2 0x72F0 JUMP JUMPDEST POP PUSH1 0x3 DUP3 ADD DUP2 PUSH1 0x3 ADD SWAP1 DUP1 SLOAD PUSH2 0x3CDC SWAP3 SWAP2 SWAP1 PUSH2 0x50DA JUMP JUMPDEST POP POP POP DUP3 PUSH1 0x0 ADD PUSH1 0x4 ADD PUSH1 0x0 DUP2 SLOAD DUP1 SWAP3 SWAP2 SWAP1 PUSH2 0x3CF7 SWAP1 PUSH2 0x7292 JUMP JUMPDEST SWAP2 SWAP1 POP SSTORE POP DUP4 PUSH1 0x13 ADD DUP2 SWAP1 DUP1 PUSH1 0x1 DUP2 SLOAD ADD DUP1 DUP3 SSTORE DUP1 SWAP2 POP POP PUSH1 0x1 SWAP1 SUB SWAP1 PUSH1 0x0 MSTORE PUSH1 0x20 PUSH1 0x0 KECCAK256 SWAP1 PUSH1 0x4 MUL ADD PUSH1 0x0 SWAP1 SWAP2 SWAP1 SWAP2 SWAP1 SWAP2 POP PUSH1 0x0 DUP3 ADD SLOAD DUP2 PUSH1 0x0 ADD SSTORE PUSH1 0x1 DUP3 ADD SLOAD DUP2 PUSH1 0x1 ADD SSTORE PUSH1 0x2 DUP3 ADD DUP2 PUSH1 0x2 ADD SWAP1 DUP2 PUSH2 0x3D52 SWAP2 SWAP1 PUSH2 0x72F0 JUMP JUMPDEST POP PUSH1 0x3 DUP3 ADD DUP2 PUSH1 0x3 ADD SWAP1 DUP1 SLOAD PUSH2 0x3D69 SWAP3 SWAP2 SWAP1 PUSH2 0x50DA JUMP JUMPDEST POP POP POP PUSH32 0xA5BDACF4D1324FDD584BC65CF0315E4975D00B33A7CA0E6D0A73C88DF8430B95 DUP9 DUP4 DUP10 PUSH1 0x40 MLOAD PUSH2 0x3D9F SWAP4 SWAP3 SWAP2 SWAP1 PUSH2 0x7A14 JUMP JUMPDEST PUSH1 0x40 MLOAD DUP1 SWAP2 SUB SWAP1 LOG1 PUSH1 0x0 JUMPDEST DUP7 MLOAD DUP2 PUSH1 0xFF AND LT ISZERO PUSH2 0x3E36 JUMPI PUSH32 0x6EF0BA2AD58C9F8EEF2FC98C08FD18D801C4A971EEB45AFD07F0FEE3F9D60C4 DUP4 DUP3 PUSH1 0xFF AND DUP7 PUSH1 0x0 ADD PUSH1 0x5 ADD SLOAD PUSH2 0x3DEE SWAP2 SWAP1 PUSH2 0x76AA JUMP JUMPDEST DUP10 DUP5 PUSH1 0xFF AND DUP2 MLOAD DUP2 LT PUSH2 0x3E04 JUMPI PUSH2 0x3E03 PUSH2 0x6BDE JUMP JUMPDEST JUMPDEST PUSH1 0x20 MUL PUSH1 0x20 ADD ADD MLOAD PUSH1 0x40 MLOAD PUSH2 0x3E1B SWAP4 SWAP3 SWAP2 SWAP1 PUSH2 0x7A14 JUMP JUMPDEST PUSH1 0x40 MLOAD DUP1 SWAP2 SUB SWAP1 LOG1 DUP1 DUP1 PUSH2 0x3E2E SWAP1 PUSH2 0x79EB JUMP JUMPDEST SWAP2 POP POP PUSH2 0x3DAA JUMP JUMPDEST POP DUP6 MLOAD DUP4 PUSH1 0x0 ADD PUSH1 0x5 ADD PUSH1 0x0 DUP3 DUP3 SLOAD PUSH2 0x3E4F SWAP2 SWAP1 PUSH2 0x76AA JUMP JUMPDEST SWAP3 POP POP DUP2 SWAP1 SSTORE POP POP POP POP POP POP POP POP POP JUMP JUMPDEST PUSH2 0x3E69 DUP3 PUSH2 0xC1E JUMP JUMPDEST PUSH2 0x3E72 DUP2 PUSH2 0x4BEA JUMP JUMPDEST PUSH2 0x3E7C DUP4 DUP4 PUSH2 0x4CF7 JUMP JUMPDEST POP POP POP POP JUMP JUMPDEST PUSH1 0x0 PUSH32 0xADB22091B155738D2E889EB96F509D2A7C93234236B30400927FEB4A6A15AB00 PUSH2 0x3EAE DUP2 PUSH2 0x4BEA JUMP JUMPDEST PUSH1 0x0 PUSH2 0x3EB8 PUSH2 0x496D JUMP JUMPDEST SWAP1 POP PUSH1 0x0 PUSH2 0x3EC4 PUSH2 0x49E0 JUMP JUMPDEST SWAP1 POP PUSH1 0x0 DUP2 PUSH1 0x5 ADD PUSH1 0x0 DUP9 DUP2 MSTORE PUSH1 0x20 ADD SWAP1 DUP2 MSTORE PUSH1 0x20 ADD PUSH1 0x0 KECCAK256 PUSH1 0x0 ADD SLOAD SUB PUSH2 0x3F21 JUMPI PUSH1 0x40 MLOAD PUSH32 0x8C379A000000000000000000000000000000000000000000000000000000000 DUP2 MSTORE PUSH1 0x4 ADD PUSH2 0x3F18 SWAP1 PUSH2 0x7A9E JUMP JUMPDEST PUSH1 0x40 MLOAD DUP1 SWAP2 SUB SWAP1 REVERT JUMPDEST PUSH1 0x0 DUP3 PUSH1 0x3 ADD PUSH1 0x0 DUP8 DUP2 MSTORE PUSH1 0x20 ADD SWAP1 DUP2 MSTORE PUSH1 0x20 ADD PUSH1 0x0 KECCAK256 PUSH1 0x1 ADD SLOAD SUB PUSH2 0x3F7C JUMPI PUSH1 0x40 MLOAD PUSH32 0x8C379A000000000000000000000000000000000000000000000000000000000 DUP2 MSTORE PUSH1 0x4 ADD PUSH2 0x3F73 SWAP1 PUSH2 0x75B2 JUMP JUMPDEST PUSH1 0x40 MLOAD DUP1 SWAP2 SUB SWAP1 REVERT JUMPDEST PUSH1 0x0 JUMPDEST DUP3 PUSH1 0xF ADD DUP1 SLOAD SWAP1 POP DUP2 GT PUSH2 0x40E7 JUMPI DUP6 DUP4 PUSH1 0x3 ADD PUSH1 0x0 DUP4 DUP2 MSTORE PUSH1 0x20 ADD SWAP1 DUP2 MSTORE PUSH1 0x20 ADD PUSH1 0x0 KECCAK256 PUSH1 0x1 ADD SLOAD SUB PUSH2 0x40D4 JUMPI DUP3 PUSH1 0xF ADD PUSH1 0x1 DUP5 PUSH1 0xF ADD DUP1 SLOAD SWAP1 POP PUSH2 0x3FC4 SWAP2 SWAP1 PUSH2 0x7503 JUMP JUMPDEST DUP2 SLOAD DUP2 LT PUSH2 0x3FD5 JUMPI PUSH2 0x3FD4 PUSH2 0x6BDE JUMP JUMPDEST JUMPDEST SWAP1 PUSH1 0x0 MSTORE PUSH1 0x20 PUSH1 0x0 KECCAK256 SWAP1 PUSH1 0x5 MUL ADD DUP4 PUSH1 0xF ADD DUP3 DUP2 SLOAD DUP2 LT PUSH2 0x3FF9 JUMPI PUSH2 0x3FF8 PUSH2 0x6BDE JUMP JUMPDEST JUMPDEST SWAP1 PUSH1 0x0 MSTORE PUSH1 0x20 PUSH1 0x0 KECCAK256 SWAP1 PUSH1 0x5 MUL ADD PUSH1 0x0 DUP3 ADD SLOAD DUP2 PUSH1 0x0 ADD SSTORE PUSH1 0x1 DUP3 ADD SLOAD DUP2 PUSH1 0x1 ADD SSTORE PUSH1 0x2 DUP3 ADD DUP2 PUSH1 0x2 ADD SWAP1 DUP2 PUSH2 0x402F SWAP2 SWAP1 PUSH2 0x72F0 JUMP JUMPDEST POP PUSH1 0x3 DUP3 ADD SLOAD DUP2 PUSH1 0x3 ADD SSTORE PUSH1 0x4 DUP3 ADD PUSH1 0x0 SWAP1 SLOAD SWAP1 PUSH2 0x100 EXP SWAP1 DIV PUSH1 0xFF AND DUP2 PUSH1 0x4 ADD PUSH1 0x0 PUSH2 0x100 EXP DUP2 SLOAD DUP2 PUSH1 0xFF MUL NOT AND SWAP1 DUP4 ISZERO ISZERO MUL OR SWAP1 SSTORE POP SWAP1 POP POP DUP3 PUSH1 0xF ADD DUP1 SLOAD DUP1 PUSH2 0x407E JUMPI PUSH2 0x407D PUSH2 0x7537 JUMP JUMPDEST JUMPDEST PUSH1 0x1 SWAP1 SUB DUP2 DUP2 SWAP1 PUSH1 0x0 MSTORE PUSH1 0x20 PUSH1 0x0 KECCAK256 SWAP1 PUSH1 0x5 MUL ADD PUSH1 0x0 DUP1 DUP3 ADD PUSH1 0x0 SWAP1 SSTORE PUSH1 0x1 DUP3 ADD PUSH1 0x0 SWAP1 SSTORE PUSH1 0x2 DUP3 ADD PUSH1 0x0 PUSH2 0x40B3 SWAP2 SWAP1 PUSH2 0x5174 JUMP JUMPDEST PUSH1 0x3 DUP3 ADD PUSH1 0x0 SWAP1 SSTORE PUSH1 0x4 DUP3 ADD PUSH1 0x0 PUSH2 0x100 EXP DUP2 SLOAD SWAP1 PUSH1 0xFF MUL NOT AND SWAP1 SSTORE POP POP SWAP1 SSTORE JUMPDEST DUP1 DUP1 PUSH2 0x40DF SWAP1 PUSH2 0x7292 JUMP JUMPDEST SWAP2 POP POP PUSH2 0x3F7F JUMP JUMPDEST POP DUP2 PUSH1 0x3 ADD PUSH1 0x0 DUP7 DUP2 MSTORE PUSH1 0x20 ADD SWAP1 DUP2 MSTORE PUSH1 0x20 ADD PUSH1 0x0 KECCAK256 PUSH1 0x0 DUP1 DUP3 ADD PUSH1 0x0 SWAP1 SSTORE PUSH1 0x1 DUP3 ADD PUSH1 0x0 SWAP1 SSTORE PUSH1 0x2 DUP3 ADD PUSH1 0x0 PUSH2 0x411E SWAP2 SWAP1 PUSH2 0x5174 JUMP JUMPDEST PUSH1 0x3 DUP3 ADD PUSH1 0x0 SWAP1 SSTORE PUSH1 0x4 DUP3 ADD PUSH1 0x0 PUSH2 0x100 EXP DUP2 SLOAD SWAP1 PUSH1 0xFF MUL NOT AND SWAP1 SSTORE POP POP DUP5 DUP7 PUSH32 0xAB6D08543726A41EAC26AC96D0B4591127BAED3BFB915D2603CCB9FB2440C425 PUSH1 0x40 MLOAD PUSH1 0x40 MLOAD DUP1 SWAP2 SUB SWAP1 LOG3 PUSH1 0x1 SWAP4 POP POP POP POP SWAP3 SWAP2 POP POP JUMP JUMPDEST PUSH1 0x0 PUSH32 0xADB22091B155738D2E889EB96F509D2A7C93234236B30400927FEB4A6A15AB00 PUSH2 0x41A3 DUP2 PUSH2 0x4BEA JUMP JUMPDEST PUSH1 0x0 PUSH2 0x41AD PUSH2 0x496D JUMP JUMPDEST SWAP1 POP PUSH1 0x0 DUP2 PUSH1 0x3 ADD PUSH1 0x0 DUP8 DUP2 MSTORE PUSH1 0x20 ADD SWAP1 DUP2 MSTORE PUSH1 0x20 ADD PUSH1 0x0 KECCAK256 PUSH1 0x1 ADD SLOAD SUB PUSH2 0x420A JUMPI PUSH1 0x40 MLOAD PUSH32 0x8C379A000000000000000000000000000000000000000000000000000000000 DUP2 MSTORE PUSH1 0x4 ADD PUSH2 0x4201 SWAP1 PUSH2 0x7B0A JUMP JUMPDEST PUSH1 0x40 MLOAD DUP1 SWAP2 SUB SWAP1 REVERT JUMPDEST DUP4 DUP2 PUSH1 0x3 ADD PUSH1 0x0 DUP8 DUP2 MSTORE PUSH1 0x20 ADD SWAP1 DUP2 MSTORE PUSH1 0x20 ADD PUSH1 0x0 KECCAK256 PUSH1 0x2 ADD SWAP1 DUP2 PUSH2 0x422F SWAP2 SWAP1 PUSH2 0x6F5D JUMP JUMPDEST POP DUP5 DUP7 PUSH32 0x7714A2FE2221824DFD5CD15F7CC29E38FFEFCF9B6AD62C216321AFCDE79CBCFB DUP7 PUSH1 0x40 MLOAD PUSH2 0x4261 SWAP2 SWAP1 PUSH2 0x70D4 JUMP JUMPDEST PUSH1 0x40 MLOAD DUP1 SWAP2 SUB SWAP1 LOG3 PUSH1 0x1 SWAP3 POP POP POP SWAP4 SWAP3 POP POP POP JUMP JUMPDEST PUSH1 0x0 PUSH32 0xADB22091B155738D2E889EB96F509D2A7C93234236B30400927FEB4A6A15AB00 PUSH2 0x42A2 DUP2 PUSH2 0x4BEA JUMP JUMPDEST PUSH1 0x0 PUSH2 0x42AC PUSH2 0x496D JUMP JUMPDEST SWAP1 POP PUSH1 0x0 DUP2 PUSH1 0x5 ADD PUSH1 0x0 DUP8 DUP2 MSTORE PUSH1 0x20 ADD SWAP1 DUP2 MSTORE PUSH1 0x20 ADD PUSH1 0x0 KECCAK256 PUSH1 0x1 ADD SLOAD SUB PUSH2 0x4309 JUMPI PUSH1 0x40 MLOAD PUSH32 0x8C379A000000000000000000000000000000000000000000000000000000000 DUP2 MSTORE PUSH1 0x4 ADD PUSH2 0x4300 SWAP1 PUSH2 0x761E JUMP JUMPDEST PUSH1 0x40 MLOAD DUP1 SWAP2 SUB SWAP1 REVERT JUMPDEST PUSH1 0x0 DUP2 PUSH1 0x7 ADD PUSH1 0x0 DUP7 DUP2 MSTORE PUSH1 0x20 ADD SWAP1 DUP2 MSTORE PUSH1 0x20 ADD PUSH1 0x0 KECCAK256 PUSH1 0x1 ADD SLOAD SUB PUSH2 0x4364 JUMPI PUSH1 0x40 MLOAD PUSH32 0x8C379A000000000000000000000000000000000000000000000000000000000 DUP2 MSTORE PUSH1 0x4 ADD PUSH2 0x435B SWAP1 PUSH2 0x7B76 JUMP JUMPDEST PUSH1 0x40 MLOAD DUP1 SWAP2 SUB SWAP1 REVERT JUMPDEST PUSH1 0x0 JUMPDEST DUP2 PUSH1 0xF ADD DUP1 SLOAD SWAP1 POP DUP2 GT PUSH2 0x44F6 JUMPI DUP5 DUP3 PUSH1 0x7 ADD PUSH1 0x0 DUP8 DUP2 MSTORE PUSH1 0x20 ADD SWAP1 DUP2 MSTORE PUSH1 0x20 ADD PUSH1 0x0 KECCAK256 PUSH1 0x1 ADD SLOAD SUB PUSH2 0x44E3 JUMPI DUP2 PUSH1 0x12 ADD PUSH1 0x1 DUP4 PUSH1 0x12 ADD DUP1 SLOAD SWAP1 POP PUSH2 0x43AC SWAP2 SWAP1 PUSH2 0x7503 JUMP JUMPDEST DUP2 SLOAD DUP2 LT PUSH2 0x43BD JUMPI PUSH2 0x43BC PUSH2 0x6BDE JUMP JUMPDEST JUMPDEST SWAP1 PUSH1 0x0 MSTORE PUSH1 0x20 PUSH1 0x0 KECCAK256 SWAP1 PUSH1 0x6 MUL ADD DUP3 PUSH1 0x12 ADD DUP3 DUP2 SLOAD DUP2 LT PUSH2 0x43E1 JUMPI PUSH2 0x43E0 PUSH2 0x6BDE JUMP JUMPDEST JUMPDEST SWAP1 PUSH1 0x0 MSTORE PUSH1 0x20 PUSH1 0x0 KECCAK256 SWAP1 PUSH1 0x6 MUL ADD PUSH1 0x0 DUP3 ADD SLOAD DUP2 PUSH1 0x0 ADD SSTORE PUSH1 0x1 DUP3 ADD SLOAD DUP2 PUSH1 0x1 ADD SSTORE PUSH1 0x2 DUP3 ADD DUP2 PUSH1 0x2 ADD SWAP1 DUP2 PUSH2 0x4417 SWAP2 SWAP1 PUSH2 0x72F0 JUMP JUMPDEST POP PUSH1 0x3 DUP3 ADD DUP2 PUSH1 0x3 ADD SWAP1 DUP1 SLOAD PUSH2 0x442E SWAP3 SWAP2 SWAP1 PUSH2 0x4F60 JUMP JUMPDEST POP PUSH1 0x4 DUP3 ADD PUSH1 0x0 SWAP1 SLOAD SWAP1 PUSH2 0x100 EXP SWAP1 DIV PUSH1 0xFF AND DUP2 PUSH1 0x4 ADD PUSH1 0x0 PUSH2 0x100 EXP DUP2 SLOAD DUP2 PUSH1 0xFF MUL NOT AND SWAP1 DUP4 ISZERO ISZERO MUL OR SWAP1 SSTORE POP PUSH1 0x5 DUP3 ADD SLOAD DUP2 PUSH1 0x5 ADD SSTORE SWAP1 POP POP DUP2 PUSH1 0x12 ADD DUP1 SLOAD DUP1 PUSH2 0x447D JUMPI PUSH2 0x447C PUSH2 0x7537 JUMP JUMPDEST JUMPDEST PUSH1 0x1 SWAP1 SUB DUP2 DUP2 SWAP1 PUSH1 0x0 MSTORE PUSH1 0x20 PUSH1 0x0 KECCAK256 SWAP1 PUSH1 0x6 MUL ADD PUSH1 0x0 DUP1 DUP3 ADD PUSH1 0x0 SWAP1 SSTORE PUSH1 0x1 DUP3 ADD PUSH1 0x0 SWAP1 SSTORE PUSH1 0x2 DUP3 ADD PUSH1 0x0 PUSH2 0x44B2 SWAP2 SWAP1 PUSH2 0x5174 JUMP JUMPDEST PUSH1 0x3 DUP3 ADD PUSH1 0x0 PUSH2 0x44C2 SWAP2 SWAP1 PUSH2 0x5264 JUMP JUMPDEST PUSH1 0x4 DUP3 ADD PUSH1 0x0 PUSH2 0x100 EXP DUP2 SLOAD SWAP1 PUSH1 0xFF MUL NOT AND SWAP1 SSTORE PUSH1 0x5 DUP3 ADD PUSH1 0x0 SWAP1 SSTORE POP POP SWAP1 SSTORE JUMPDEST DUP1 DUP1 PUSH2 0x44EE SWAP1 PUSH2 0x7292 JUMP JUMPDEST SWAP2 POP POP PUSH2 0x4367 JUMP JUMPDEST POP DUP1 PUSH1 0x7 ADD PUSH1 0x0 DUP6 DUP2 MSTORE PUSH1 0x20 ADD SWAP1 DUP2 MSTORE PUSH1 0x20 ADD PUSH1 0x0 KECCAK256 PUSH1 0x0 DUP1 DUP3 ADD PUSH1 0x0 SWAP1 SSTORE PUSH1 0x1 DUP3 ADD PUSH1 0x0 SWAP1 SSTORE PUSH1 0x2 DUP3 ADD PUSH1 0x0 PUSH2 0x452D SWAP2 SWAP1 PUSH2 0x5174 JUMP JUMPDEST PUSH1 0x3 DUP3 ADD PUSH1 0x0 PUSH2 0x453D SWAP2 SWAP1 PUSH2 0x5264 JUMP JUMPDEST PUSH1 0x4 DUP3 ADD PUSH1 0x0 PUSH2 0x100 EXP DUP2 SLOAD SWAP1 PUSH1 0xFF MUL NOT AND SWAP1 SSTORE PUSH1 0x5 DUP3 ADD PUSH1 0x0 SWAP1 SSTORE POP POP DUP4 DUP6 PUSH32 0x22A69F3183C2804EF4FF588B6321A6351C1863419286C584919AB8F923CBD5A4 PUSH1 0x40 MLOAD PUSH1 0x40 MLOAD DUP1 SWAP2 SUB SWAP1 LOG3 PUSH1 0x1 SWAP3 POP POP POP SWAP3 SWAP2 POP POP JUMP JUMPDEST PUSH1 0x0 PUSH2 0x459F PUSH2 0x499A JUMP JUMPDEST PUSH1 0x0 PUSH2 0x45A9 PUSH2 0x496D JUMP JUMPDEST SWAP1 POP PUSH1 0x0 PUSH2 0x45B5 PUSH2 0x49E0 JUMP JUMPDEST SWAP1 POP DUP1 PUSH1 0x5 ADD PUSH1 0x0 DUP6 DUP2 MSTORE PUSH1 0x20 ADD SWAP1 DUP2 MSTORE PUSH1 0x20 ADD PUSH1 0x0 KECCAK256 PUSH1 0x3 ADD PUSH1 0x0 SWAP1 SLOAD SWAP1 PUSH2 0x100 EXP SWAP1 DIV PUSH1 0xFF AND PUSH2 0x461C JUMPI PUSH1 0x40 MLOAD PUSH32 0x8C379A000000000000000000000000000000000000000000000000000000000 DUP2 MSTORE PUSH1 0x4 ADD PUSH2 0x4613 SWAP1 PUSH2 0x7BE2 JUMP JUMPDEST PUSH1 0x40 MLOAD DUP1 SWAP2 SUB SWAP1 REVERT JUMPDEST DUP2 PUSH1 0x9 ADD PUSH1 0x0 DUP6 DUP2 MSTORE PUSH1 0x20 ADD SWAP1 DUP2 MSTORE PUSH1 0x20 ADD PUSH1 0x0 KECCAK256 PUSH1 0x0 CALLER PUSH20 0xFFFFFFFFFFFFFFFFFFFFFFFFFFFFFFFFFFFFFFFF AND PUSH20 0xFFFFFFFFFFFFFFFFFFFFFFFFFFFFFFFFFFFFFFFF AND DUP2 MSTORE PUSH1 0x20 ADD SWAP1 DUP2 MSTORE PUSH1 0x20 ADD PUSH1 0x0 KECCAK256 PUSH1 0x0 SWAP1 SLOAD SWAP1 PUSH2 0x100 EXP SWAP1 DIV PUSH1 0xFF AND ISZERO PUSH2 0x46BC JUMPI PUSH1 0x40 MLOAD PUSH32 0x8C379A000000000000000000000000000000000000000000000000000000000 DUP2 MSTORE PUSH1 0x4 ADD PUSH2 0x46B3 SWAP1 PUSH2 0x7C4E JUMP JUMPDEST PUSH1 0x40 MLOAD DUP1 SWAP2 SUB SWAP1 REVERT JUMPDEST DUP1 PUSH1 0x5 ADD PUSH1 0x0 DUP6 DUP2 MSTORE PUSH1 0x20 ADD SWAP1 DUP2 MSTORE PUSH1 0x20 ADD PUSH1 0x0 KECCAK256 PUSH1 0x5 ADD PUSH1 0x14 SWAP1 SLOAD SWAP1 PUSH2 0x100 EXP SWAP1 DIV PUSH1 0xFF AND PUSH2 0x4721 JUMPI PUSH1 0x40 MLOAD PUSH32 0x8C379A000000000000000000000000000000000000000000000000000000000 DUP2 MSTORE PUSH1 0x4 ADD PUSH2 0x4718 SWAP1 PUSH2 0x78F3 JUMP JUMPDEST PUSH1 0x40 MLOAD DUP1 SWAP2 SUB SWAP1 REVERT JUMPDEST PUSH1 0x0 DUP2 PUSH1 0x5 ADD PUSH1 0x0 DUP7 DUP2 MSTORE PUSH1 0x20 ADD SWAP1 DUP2 MSTORE PUSH1 0x20 ADD PUSH1 0x0 KECCAK256 SWAP1 POP PUSH1 0x0 DUP4 PUSH1 0xE ADD DUP7 DUP2 SLOAD DUP2 LT PUSH2 0x4752 JUMPI PUSH2 0x4751 PUSH2 0x6BDE JUMP JUMPDEST JUMPDEST SWAP1 PUSH1 0x0 MSTORE PUSH1 0x20 PUSH1 0x0 KECCAK256 SWAP1 PUSH1 0x8 MUL ADD SWAP1 POP DUP2 PUSH1 0x6 ADD CALLER SWAP1 DUP1 PUSH1 0x1 DUP2 SLOAD ADD DUP1 DUP3 SSTORE DUP1 SWAP2 POP POP PUSH1 0x1 SWAP1 SUB SWAP1 PUSH1 0x0 MSTORE PUSH1 0x20 PUSH1 0x0 KECCAK256 ADD PUSH1 0x0 SWAP1 SWAP2 SWAP1 SWAP2 SWAP1 SWAP2 PUSH2 0x100 EXP DUP2 SLOAD DUP2 PUSH20 0xFFFFFFFFFFFFFFFFFFFFFFFFFFFFFFFFFFFFFFFF MUL NOT AND SWAP1 DUP4 PUSH20 0xFFFFFFFFFFFFFFFFFFFFFFFFFFFFFFFFFFFFFFFF AND MUL OR SWAP1 SSTORE POP DUP1 PUSH1 0x6 ADD CALLER SWAP1 DUP1 PUSH1 0x1 DUP2 SLOAD ADD DUP1 DUP3 SSTORE DUP1 SWAP2 POP POP PUSH1 0x1 SWAP1 SUB SWAP1 PUSH1 0x0 MSTORE PUSH1 0x20 PUSH1 0x0 KECCAK256 ADD PUSH1 0x0 SWAP1 SWAP2 SWAP1 SWAP2 SWAP1 SWAP2 PUSH2 0x100 EXP DUP2 SLOAD DUP2 PUSH20 0xFFFFFFFFFFFFFFFFFFFFFFFFFFFFFFFFFFFFFFFF MUL NOT AND SWAP1 DUP4 PUSH20 0xFFFFFFFFFFFFFFFFFFFFFFFFFFFFFFFFFFFFFFFF AND MUL OR SWAP1 SSTORE POP PUSH1 0x1 DUP5 PUSH1 0x9 ADD PUSH1 0x0 DUP9 DUP2 MSTORE PUSH1 0x20 ADD SWAP1 DUP2 MSTORE PUSH1 0x20 ADD PUSH1 0x0 KECCAK256 PUSH1 0x0 CALLER PUSH20 0xFFFFFFFFFFFFFFFFFFFFFFFFFFFFFFFFFFFFFFFF AND PUSH20 0xFFFFFFFFFFFFFFFFFFFFFFFFFFFFFFFFFFFFFFFF AND DUP2 MSTORE PUSH1 0x20 ADD SWAP1 DUP2 MSTORE PUSH1 0x20 ADD PUSH1 0x0 KECCAK256 PUSH1 0x0 PUSH2 0x100 EXP DUP2 SLOAD DUP2 PUSH1 0xFF MUL NOT AND SWAP1 DUP4 ISZERO ISZERO MUL OR SWAP1 SSTORE POP PUSH2 0x48A9 CALLER PUSH8 0x1BC16D674EC80000 PUSH2 0x4E17 JUMP JUMPDEST POP CALLER PUSH20 0xFFFFFFFFFFFFFFFFFFFFFFFFFFFFFFFFFFFFFFFF AND DUP7 PUSH32 0x4BF249F6B0CA5630EA4816C04B928B864A2065CB51658FD6223D83B727FD326B PUSH1 0x40 MLOAD PUSH1 0x40 MLOAD DUP1 SWAP2 SUB SWAP1 LOG3 PUSH1 0x1 SWAP5 POP POP POP POP POP PUSH2 0x48FE PUSH2 0x4BE0 JUMP JUMPDEST SWAP2 SWAP1 POP JUMP JUMPDEST PUSH1 0x0 PUSH32 0x1FFC9A700000000000000000000000000000000000000000000000000000000 PUSH28 0xFFFFFFFFFFFFFFFFFFFFFFFFFFFFFFFFFFFFFFFFFFFFFFFFFFFFFFFF NOT AND DUP3 PUSH28 0xFFFFFFFFFFFFFFFFFFFFFFFFFFFFFFFFFFFFFFFFFFFFFFFFFFFFFFFF NOT AND EQ SWAP1 POP SWAP2 SWAP1 POP JUMP JUMPDEST PUSH1 0x0 DUP1 PUSH32 0x8C155B85251BD93C1FC2D59B5C65D36E3727B021D99D01EBEA73246BFF7E4A58 SWAP1 POP DUP1 SWAP2 POP POP SWAP1 JUMP JUMPDEST PUSH1 0x2 PUSH1 0x0 SLOAD SUB PUSH2 0x49D6 JUMPI PUSH1 0x40 MLOAD PUSH32 0x3EE5AEB500000000000000000000000000000000000000000000000000000000 DUP2 MSTORE PUSH1 0x4 ADD PUSH1 0x40 MLOAD DUP1 SWAP2 SUB SWAP1 REVERT JUMPDEST PUSH1 0x2 PUSH1 0x0 DUP2 SWAP1 SSTORE POP JUMP JUMPDEST PUSH1 0x0 DUP1 PUSH32 0x5D9AB6191FE9D5041816FB24EC4281E2D3989236339577E7FBBAF91315A1BB71 SWAP1 POP DUP1 SWAP2 POP POP SWAP1 JUMP JUMPDEST PUSH1 0x0 JUMPDEST DUP3 DUP1 SLOAD SWAP1 POP DUP2 LT ISZERO PUSH2 0x4BA5 JUMPI DUP2 PUSH20 0xFFFFFFFFFFFFFFFFFFFFFFFFFFFFFFFFFFFFFFFF AND DUP4 DUP3 DUP2 SLOAD DUP2 LT PUSH2 0x4A46 JUMPI PUSH2 0x4A45 PUSH2 0x6BDE JUMP JUMPDEST JUMPDEST SWAP1 PUSH1 0x0 MSTORE PUSH1 0x20 PUSH1 0x0 KECCAK256 ADD PUSH1 0x0 SWAP1 SLOAD SWAP1 PUSH2 0x100 EXP SWAP1 DIV PUSH20 0xFFFFFFFFFFFFFFFFFFFFFFFFFFFFFFFFFFFFFFFF AND PUSH20 0xFFFFFFFFFFFFFFFFFFFFFFFFFFFFFFFFFFFFFFFF AND SUB PUSH2 0x4B98 JUMPI PUSH1 0x1 DUP4 DUP1 SLOAD SWAP1 POP PUSH2 0x4A9D SWAP2 SWAP1 PUSH2 0x7503 JUMP JUMPDEST DUP2 EQ PUSH2 0x4B4D JUMPI DUP3 PUSH1 0x1 DUP5 DUP1 SLOAD SWAP1 POP PUSH2 0x4AB5 SWAP2 SWAP1 PUSH2 0x7503 JUMP JUMPDEST DUP2 SLOAD DUP2 LT PUSH2 0x4AC6 JUMPI PUSH2 0x4AC5 PUSH2 0x6BDE JUMP JUMPDEST JUMPDEST SWAP1 PUSH1 0x0 MSTORE PUSH1 0x20 PUSH1 0x0 KECCAK256 ADD PUSH1 0x0 SWAP1 SLOAD SWAP1 PUSH2 0x100 EXP SWAP1 DIV PUSH20 0xFFFFFFFFFFFFFFFFFFFFFFFFFFFFFFFFFFFFFFFF AND DUP4 DUP3 DUP2 SLOAD DUP2 LT PUSH2 0x4B04 JUMPI PUSH2 0x4B03 PUSH2 0x6BDE JUMP JUMPDEST JUMPDEST SWAP1 PUSH1 0x0 MSTORE PUSH1 0x20 PUSH1 0x0 KECCAK256 ADD PUSH1 0x0 PUSH2 0x100 EXP DUP2 SLOAD DUP2 PUSH20 0xFFFFFFFFFFFFFFFFFFFFFFFFFFFFFFFFFFFFFFFF MUL NOT AND SWAP1 DUP4 PUSH20 0xFFFFFFFFFFFFFFFFFFFFFFFFFFFFFFFFFFFFFFFF AND MUL OR SWAP1 SSTORE POP JUMPDEST DUP3 DUP1 SLOAD DUP1 PUSH2 0x4B5E JUMPI PUSH2 0x4B5D PUSH2 0x7537 JUMP JUMPDEST JUMPDEST PUSH1 0x1 SWAP1 SUB DUP2 DUP2 SWAP1 PUSH1 0x0 MSTORE PUSH1 0x20 PUSH1 0x0 KECCAK256 ADD PUSH1 0x0 PUSH2 0x100 EXP DUP2 SLOAD SWAP1 PUSH20 0xFFFFFFFFFFFFFFFFFFFFFFFFFFFFFFFFFFFFFFFF MUL NOT AND SWAP1 SSTORE SWAP1 SSTORE PUSH2 0x4BA5 JUMP JUMPDEST DUP1 DUP1 PUSH1 0x1 ADD SWAP2 POP POP PUSH2 0x4A10 JUMP JUMPDEST POP POP POP JUMP JUMPDEST PUSH1 0x0 PUSH2 0x4BB4 PUSH2 0x49E0 JUMP JUMPDEST SWAP1 POP PUSH2 0x4BC0 DUP4 DUP4 PUSH2 0x4BAA JUMP JUMPDEST DUP2 DUP2 PUSH1 0x0 ADD PUSH1 0x0 DUP3 DUP3 SLOAD PUSH2 0x4BD4 SWAP2 SWAP1 PUSH2 0x7503 JUMP JUMPDEST SWAP3 POP POP DUP2 SWAP1 SSTORE POP POP POP POP JUMP JUMPDEST PUSH1 0x1 PUSH1 0x0 DUP2 SWAP1 SSTORE POP JUMP JUMPDEST PUSH2 0x4BFB DUP2 PUSH2 0x4BF6 PUSH2 0x4CEF JUMP JUMPDEST PUSH2 0x4F0F JUMP JUMPDEST POP JUMP JUMPDEST PUSH1 0x0 PUSH2 0x4C0A DUP4 DUP4 PUSH2 0x221E JUMP JUMPDEST PUSH2 0x4CE4 JUMPI PUSH1 0x1 DUP1 PUSH1 0x0 DUP6 DUP2 MSTORE PUSH1 0x20 ADD SWAP1 DUP2 MSTORE PUSH1 0x20 ADD PUSH1 0x0 KECCAK256 PUSH1 0x0 ADD PUSH1 0x0 DUP5 PUSH20 0xFFFFFFFFFFFFFFFFFFFFFFFFFFFFFFFFFFFFFFFF AND PUSH20 0xFFFFFFFFFFFFFFFFFFFFFFFFFFFFFFFFFFFFFFFF AND DUP2 MSTORE PUSH1 0x20 ADD SWAP1 DUP2 MSTORE PUSH1 0x20 ADD PUSH1 0x0 KECCAK256 PUSH1 0x0 PUSH2 0x100 EXP DUP2 SLOAD DUP2 PUSH1 0xFF MUL NOT AND SWAP1 DUP4 ISZERO ISZERO MUL OR SWAP1 SSTORE POP PUSH2 0x4C81 PUSH2 0x4CEF JUMP JUMPDEST PUSH20 0xFFFFFFFFFFFFFFFFFFFFFFFFFFFFFFFFFFFFFFFF AND DUP3 PUSH20 0xFFFFFFFFFFFFFFFFFFFFFFFFFFFFFFFFFFFFFFFF AND DUP5 PUSH32 0x2F8788117E7EFF1D82E926EC794901D17C78024A50270940304540A733656F0D PUSH1 0x40 MLOAD PUSH1 0x40 MLOAD DUP1 SWAP2 SUB SWAP1 LOG4 PUSH1 0x1 SWAP1 POP PUSH2 0x4CE9 JUMP JUMPDEST PUSH1 0x0 SWAP1 POP JUMPDEST SWAP3 SWAP2 POP POP JUMP JUMPDEST PUSH1 0x0 CALLER SWAP1 POP SWAP1 JUMP JUMPDEST PUSH1 0x0 PUSH2 0x4D03 DUP4 DUP4 PUSH2 0x221E JUMP JUMPDEST ISZERO PUSH2 0x4DDF JUMPI PUSH1 0x0 PUSH1 0x1 PUSH1 0x0 DUP6 DUP2 MSTORE PUSH1 0x20 ADD SWAP1 DUP2 MSTORE PUSH1 0x20 ADD PUSH1 0x0 KECCAK256 PUSH1 0x0 ADD PUSH1 0x0 DUP5 PUSH20 0xFFFFFFFFFFFFFFFFFFFFFFFFFFFFFFFFFFFFFFFF AND PUSH20 0xFFFFFFFFFFFFFFFFFFFFFFFFFFFFFFFFFFFFFFFF AND DUP2 MSTORE PUSH1 0x20 ADD SWAP1 DUP2 MSTORE PUSH1 0x20 ADD PUSH1 0x0 KECCAK256 PUSH1 0x0 PUSH2 0x100 EXP DUP2 SLOAD DUP2 PUSH1 0xFF MUL NOT AND SWAP1 DUP4 ISZERO ISZERO MUL OR SWAP1 SSTORE POP PUSH2 0x4D7C PUSH2 0x4CEF JUMP JUMPDEST PUSH20 0xFFFFFFFFFFFFFFFFFFFFFFFFFFFFFFFFFFFFFFFF AND DUP3 PUSH20 0xFFFFFFFFFFFFFFFFFFFFFFFFFFFFFFFFFFFFFFFF AND DUP5 PUSH32 0xF6391F5C32D9C69D2A47EA670B442974B53935D1EDC7FD64EB21E047A839171B PUSH1 0x40 MLOAD PUSH1 0x40 MLOAD DUP1 SWAP2 SUB SWAP1 LOG4 PUSH1 0x1 SWAP1 POP PUSH2 0x4DE4 JUMP JUMPDEST PUSH1 0x0 SWAP1 POP JUMPDEST SWAP3 SWAP2 POP POP JUMP JUMPDEST PUSH1 0x0 DUP1 PUSH32 0x636D7913EB18E82FCE1C8B9D3FC385ED328EAEAC9EF5B2CE0D984F1C4878EC86 SWAP1 POP DUP1 SWAP2 POP POP SWAP1 JUMP JUMPDEST PUSH1 0x0 DUP1 PUSH2 0x4E22 PUSH2 0x49E0 JUMP JUMPDEST SWAP1 POP PUSH1 0x64 PUSH1 0xF PUSH12 0x204FCE5E3E25026110000000 PUSH2 0x4E3F SWAP2 SWAP1 PUSH2 0x7C6E JUMP JUMPDEST PUSH2 0x4E49 SWAP2 SWAP1 PUSH2 0x7CDF JUMP JUMPDEST DUP2 PUSH1 0x0 ADD SLOAD DUP5 PUSH2 0x4E59 SWAP2 SWAP1 PUSH2 0x76AA JUMP JUMPDEST GT ISZERO PUSH2 0x4E9A JUMPI PUSH1 0x40 MLOAD PUSH32 0x8C379A000000000000000000000000000000000000000000000000000000000 DUP2 MSTORE PUSH1 0x4 ADD PUSH2 0x4E91 SWAP1 PUSH2 0x7D5C JUMP JUMPDEST PUSH1 0x40 MLOAD DUP1 SWAP2 SUB SWAP1 REVERT JUMPDEST PUSH2 0x4EA4 DUP5 DUP5 PUSH2 0x4E17 JUMP JUMPDEST POP DUP3 DUP2 PUSH1 0x0 ADD PUSH1 0x0 DUP3 DUP3 SLOAD PUSH2 0x4EB9 SWAP2 SWAP1 PUSH2 0x76AA JUMP JUMPDEST SWAP3 POP POP DUP2 SWAP1 SSTORE POP DUP3 DUP5 PUSH20 0xFFFFFFFFFFFFFFFFFFFFFFFFFFFFFFFFFFFFFFFF AND PUSH32 0xAD6EF58D5C294F81258965738E7AE511124139834A8D0B8F8F7327086C82052A PUSH1 0x40 MLOAD PUSH1 0x40 MLOAD DUP1 SWAP2 SUB SWAP1 LOG3 PUSH1 0x1 SWAP2 POP POP SWAP3 SWAP2 POP POP JUMP JUMPDEST PUSH2 0x4F19 DUP3 DUP3 PUSH2 0x221E JUMP JUMPDEST PUSH2 0x4F5C JUMPI DUP1 DUP3 PUSH1 0x40 MLOAD PUSH32 0xE2517D3F00000000000000000000000000000000000000000000000000000000 DUP2 MSTORE PUSH1 0x4 ADD PUSH2 0x4F53 SWAP3 SWAP2 SWAP1 PUSH2 0x7D7C JUMP JUMPDEST PUSH1 0x40 MLOAD DUP1 SWAP2 SUB SWAP1 REVERT JUMPDEST POP POP JUMP JUMPDEST DUP3 DUP1 SLOAD DUP3 DUP3 SSTORE SWAP1 PUSH1 0x0 MSTORE PUSH1 0x20 PUSH1 0x0 KECCAK256 SWAP1 PUSH1 0x4 MUL DUP2 ADD SWAP3 DUP3 ISZERO PUSH2 0x4FE7 JUMPI PUSH1 0x0 MSTORE PUSH1 0x20 PUSH1 0x0 KECCAK256 SWAP2 PUSH1 0x4 MUL DUP3 ADD JUMPDEST DUP3 DUP2 GT ISZERO PUSH2 0x4FE6 JUMPI DUP3 DUP3 PUSH1 0x0 DUP3 ADD SLOAD DUP2 PUSH1 0x0 ADD SSTORE PUSH1 0x1 DUP3 ADD SLOAD DUP2 PUSH1 0x1 ADD SSTORE PUSH1 0x2 DUP3 ADD DUP2 PUSH1 0x2 ADD SWAP1 DUP2 PUSH2 0x4FBD SWAP2 SWAP1 PUSH2 0x72F0 JUMP JUMPDEST POP PUSH1 0x3 DUP3 ADD DUP2 PUSH1 0x3 ADD SWAP1 DUP1 SLOAD PUSH2 0x4FD4 SWAP3 SWAP2 SWAP1 PUSH2 0x50DA JUMP JUMPDEST POP POP POP SWAP2 PUSH1 0x4 ADD SWAP2 SWAP1 PUSH1 0x4 ADD SWAP1 PUSH2 0x4F8B JUMP JUMPDEST JUMPDEST POP SWAP1 POP PUSH2 0x4FF4 SWAP2 SWAP1 PUSH2 0x5288 JUMP JUMPDEST POP SWAP1 JUMP JUMPDEST PUSH1 0x40 MLOAD DUP1 PUSH1 0xC0 ADD PUSH1 0x40 MSTORE DUP1 PUSH1 0x0 DUP2 MSTORE PUSH1 0x20 ADD PUSH1 0x0 DUP2 MSTORE PUSH1 0x20 ADD PUSH1 0x60 DUP2 MSTORE PUSH1 0x20 ADD PUSH1 0x60 DUP2 MSTORE PUSH1 0x20 ADD PUSH1 0x0 ISZERO ISZERO DUP2 MSTORE PUSH1 0x20 ADD PUSH1 0x0 DUP2 MSTORE POP SWAP1 JUMP JUMPDEST DUP3 PUSH1 0xA PUSH1 0x3 MUL DUP2 ADD SWAP3 DUP3 ISZERO PUSH2 0x50C9 JUMPI SWAP2 PUSH1 0x3 MUL DUP3 ADD JUMPDEST DUP3 DUP2 GT ISZERO PUSH2 0x50C8 JUMPI DUP3 DUP3 PUSH1 0x0 DUP3 ADD PUSH1 0x0 SWAP1 SLOAD SWAP1 PUSH2 0x100 EXP SWAP1 DIV PUSH1 0xFF AND DUP2 PUSH1 0x0 ADD PUSH1 0x0 PUSH2 0x100 EXP DUP2 SLOAD DUP2 PUSH1 0xFF MUL NOT AND SWAP1 DUP4 PUSH1 0x2 DUP2 GT ISZERO PUSH2 0x5088 JUMPI PUSH2 0x5087 PUSH2 0x6483 JUMP JUMPDEST JUMPDEST MUL OR SWAP1 SSTORE POP PUSH1 0x1 DUP3 ADD DUP2 PUSH1 0x1 ADD SWAP1 DUP2 PUSH2 0x50A1 SWAP2 SWAP1 PUSH2 0x72F0 JUMP JUMPDEST POP PUSH1 0x2 DUP3 ADD DUP2 PUSH1 0x2 ADD SWAP1 DUP2 PUSH2 0x50B6 SWAP2 SWAP1 PUSH2 0x72F0 JUMP JUMPDEST POP POP POP SWAP2 PUSH1 0x3 ADD SWAP2 SWAP1 PUSH1 0x3 ADD SWAP1 PUSH2 0x5046 JUMP JUMPDEST JUMPDEST POP SWAP1 POP PUSH2 0x50D6 SWAP2 SWAP1 PUSH2 0x52CF JUMP JUMPDEST POP SWAP1 JUMP JUMPDEST DUP3 DUP1 SLOAD DUP3 DUP3 SSTORE SWAP1 PUSH1 0x0 MSTORE PUSH1 0x20 PUSH1 0x0 KECCAK256 SWAP1 PUSH1 0x2 MUL DUP2 ADD SWAP3 DUP3 ISZERO PUSH2 0x5163 JUMPI PUSH1 0x0 MSTORE PUSH1 0x20 PUSH1 0x0 KECCAK256 SWAP2 PUSH1 0x2 MUL DUP3 ADD JUMPDEST DUP3 DUP2 GT ISZERO PUSH2 0x5162 JUMPI DUP3 DUP3 PUSH1 0x0 DUP3 ADD DUP2 PUSH1 0x0 ADD SWAP1 DUP2 PUSH2 0x5123 SWAP2 SWAP1 PUSH2 0x72F0 JUMP JUMPDEST POP PUSH1 0x1 DUP3 ADD PUSH1 0x0 SWAP1 SLOAD SWAP1 PUSH2 0x100 EXP SWAP1 DIV PUSH1 0xFF AND DUP2 PUSH1 0x1 ADD PUSH1 0x0 PUSH2 0x100 EXP DUP2 SLOAD DUP2 PUSH1 0xFF MUL NOT AND SWAP1 DUP4 ISZERO ISZERO MUL OR SWAP1 SSTORE POP POP POP SWAP2 PUSH1 0x2 ADD SWAP2 SWAP1 PUSH1 0x2 ADD SWAP1 PUSH2 0x5105 JUMP JUMPDEST JUMPDEST POP SWAP1 POP PUSH2 0x5170 SWAP2 SWAP1 PUSH2 0x531A JUMP JUMPDEST POP SWAP1 JUMP JUMPDEST POP DUP1 SLOAD PUSH2 0x5180 SWAP1 PUSH2 0x6D80 JUMP JUMPDEST PUSH1 0x0 DUP3 SSTORE DUP1 PUSH1 0x1F LT PUSH2 0x5192 JUMPI POP PUSH2 0x51B1 JUMP JUMPDEST PUSH1 0x1F ADD PUSH1 0x20 SWAP1 DIV SWAP1 PUSH1 0x0 MSTORE PUSH1 0x20 PUSH1 0x0 KECCAK256 SWAP1 DUP2 ADD SWAP1 PUSH2 0x51B0 SWAP2 SWAP1 PUSH2 0x5355 JUMP JUMPDEST JUMPDEST POP JUMP JUMPDEST POP DUP1 SLOAD PUSH1 0x0 DUP3 SSTORE PUSH1 0x2 MUL SWAP1 PUSH1 0x0 MSTORE PUSH1 0x20 PUSH1 0x0 KECCAK256 SWAP1 DUP2 ADD SWAP1 PUSH2 0x51D5 SWAP2 SWAP1 PUSH2 0x531A JUMP JUMPDEST POP JUMP JUMPDEST PUSH1 0x40 MLOAD DUP1 PUSH1 0xA0 ADD PUSH1 0x40 MSTORE DUP1 PUSH1 0x0 DUP2 MSTORE PUSH1 0x20 ADD PUSH1 0x0 DUP2 MSTORE PUSH1 0x20 ADD PUSH1 0x60 DUP2 MSTORE PUSH1 0x20 ADD PUSH1 0x0 DUP2 MSTORE PUSH1 0x20 ADD PUSH1 0x0 ISZERO ISZERO DUP2 MSTORE POP SWAP1 JUMP JUMPDEST POP DUP1 PUSH1 0xA PUSH1 0x3 MUL ADD SWAP1 PUSH2 0x521C SWAP2 SWAP1 PUSH2 0x52CF JUMP JUMPDEST POP JUMP JUMPDEST PUSH1 0x40 MLOAD DUP1 PUSH1 0xE0 ADD PUSH1 0x40 MSTORE DUP1 PUSH1 0x0 DUP2 MSTORE PUSH1 0x20 ADD PUSH1 0x0 DUP2 MSTORE PUSH1 0x20 ADD PUSH1 0x60 DUP2 MSTORE PUSH1 0x20 ADD PUSH1 0x60 DUP2 MSTORE PUSH1 0x20 ADD PUSH2 0x524E PUSH2 0x5372 JUMP JUMPDEST DUP2 MSTORE PUSH1 0x20 ADD PUSH1 0x0 DUP2 MSTORE PUSH1 0x20 ADD PUSH1 0x0 ISZERO ISZERO DUP2 MSTORE POP SWAP1 JUMP JUMPDEST POP DUP1 SLOAD PUSH1 0x0 DUP3 SSTORE PUSH1 0x4 MUL SWAP1 PUSH1 0x0 MSTORE PUSH1 0x20 PUSH1 0x0 KECCAK256 SWAP1 DUP2 ADD SWAP1 PUSH2 0x5285 SWAP2 SWAP1 PUSH2 0x5288 JUMP JUMPDEST POP JUMP JUMPDEST JUMPDEST DUP1 DUP3 GT ISZERO PUSH2 0x52CB JUMPI PUSH1 0x0 DUP1 DUP3 ADD PUSH1 0x0 SWAP1 SSTORE PUSH1 0x1 DUP3 ADD PUSH1 0x0 SWAP1 SSTORE PUSH1 0x2 DUP3 ADD PUSH1 0x0 PUSH2 0x52B2 SWAP2 SWAP1 PUSH2 0x5174 JUMP JUMPDEST PUSH1 0x3 DUP3 ADD PUSH1 0x0 PUSH2 0x52C2 SWAP2 SWAP1 PUSH2 0x51B4 JUMP JUMPDEST POP PUSH1 0x4 ADD PUSH2 0x5289 JUMP JUMPDEST POP SWAP1 JUMP JUMPDEST JUMPDEST DUP1 DUP3 GT ISZERO PUSH2 0x5316 JUMPI PUSH1 0x0 DUP1 DUP3 ADD PUSH1 0x0 PUSH2 0x100 EXP DUP2 SLOAD SWAP1 PUSH1 0xFF MUL NOT AND SWAP1 SSTORE PUSH1 0x1 DUP3 ADD PUSH1 0x0 PUSH2 0x52FD SWAP2 SWAP1 PUSH2 0x5174 JUMP JUMPDEST PUSH1 0x2 DUP3 ADD PUSH1 0x0 PUSH2 0x530D SWAP2 SWAP1 PUSH2 0x5174 JUMP JUMPDEST POP PUSH1 0x3 ADD PUSH2 0x52D0 JUMP JUMPDEST POP SWAP1 JUMP JUMPDEST JUMPDEST DUP1 DUP3 GT ISZERO PUSH2 0x5351 JUMPI PUSH1 0x0 DUP1 DUP3 ADD PUSH1 0x0 PUSH2 0x5334 SWAP2 SWAP1 PUSH2 0x5174 JUMP JUMPDEST PUSH1 0x1 DUP3 ADD PUSH1 0x0 PUSH2 0x100 EXP DUP2 SLOAD SWAP1 PUSH1 0xFF MUL NOT AND SWAP1 SSTORE POP PUSH1 0x2 ADD PUSH2 0x531B JUMP JUMPDEST POP SWAP1 JUMP JUMPDEST JUMPDEST DUP1 DUP3 GT ISZERO PUSH2 0x536E JUMPI PUSH1 0x0 DUP2 PUSH1 0x0 SWAP1 SSTORE POP PUSH1 0x1 ADD PUSH2 0x5356 JUMP JUMPDEST POP SWAP1 JUMP JUMPDEST PUSH1 0x40 MLOAD DUP1 PUSH2 0x140 ADD PUSH1 0x40 MSTORE DUP1 PUSH1 0xA SWAP1 JUMPDEST PUSH2 0x538A PUSH2 0x53A0 JUMP JUMPDEST DUP2 MSTORE PUSH1 0x20 ADD SWAP1 PUSH1 0x1 SWAP1 SUB SWAP1 DUP2 PUSH2 0x5382 JUMPI SWAP1 POP POP SWAP1 JUMP JUMPDEST PUSH1 0x40 MLOAD DUP1 PUSH1 0x60 ADD PUSH1 0x40 MSTORE DUP1 PUSH1 0x0 PUSH1 0x2 DUP2 GT ISZERO PUSH2 0x53BF JUMPI PUSH2 0x53BE PUSH2 0x6483 JUMP JUMPDEST JUMPDEST DUP2 MSTORE PUSH1 0x20 ADD PUSH1 0x60 DUP2 MSTORE PUSH1 0x20 ADD PUSH1 0x60 DUP2 MSTORE POP SWAP1 JUMP JUMPDEST PUSH1 0x0 PUSH1 0x40 MLOAD SWAP1 POP SWAP1 JUMP JUMPDEST PUSH1 0x0 DUP1 REVERT JUMPDEST PUSH1 0x0 DUP1 REVERT JUMPDEST PUSH1 0x0 PUSH32 0xFFFFFFFF00000000000000000000000000000000000000000000000000000000 DUP3 AND SWAP1 POP SWAP2 SWAP1 POP JUMP JUMPDEST PUSH2 0x541C DUP2 PUSH2 0x53E7 JUMP JUMPDEST DUP2 EQ PUSH2 0x5427 JUMPI PUSH1 0x0 DUP1 REVERT JUMPDEST POP JUMP JUMPDEST PUSH1 0x0 DUP2 CALLDATALOAD SWAP1 POP PUSH2 0x5439 DUP2 PUSH2 0x5413 JUMP JUMPDEST SWAP3 SWAP2 POP POP JUMP JUMPDEST PUSH1 0x0 PUSH1 0x20 DUP3 DUP5 SUB SLT ISZERO PUSH2 0x5455 JUMPI PUSH2 0x5454 PUSH2 0x53DD JUMP JUMPDEST JUMPDEST PUSH1 0x0 PUSH2 0x5463 DUP5 DUP3 DUP6 ADD PUSH2 0x542A JUMP JUMPDEST SWAP2 POP POP SWAP3 SWAP2 POP POP JUMP JUMPDEST PUSH1 0x0 DUP2 ISZERO ISZERO SWAP1 POP SWAP2 SWAP1 POP JUMP JUMPDEST PUSH2 0x5481 DUP2 PUSH2 0x546C JUMP JUMPDEST DUP3 MSTORE POP POP JUMP JUMPDEST PUSH1 0x0 PUSH1 0x20 DUP3 ADD SWAP1 POP PUSH2 0x549C PUSH1 0x0 DUP4 ADD DUP5 PUSH2 0x5478 JUMP JUMPDEST SWAP3 SWAP2 POP POP JUMP JUMPDEST PUSH1 0x0 DUP2 SWAP1 POP SWAP2 SWAP1 POP JUMP JUMPDEST PUSH2 0x54B5 DUP2 PUSH2 0x54A2 JUMP JUMPDEST DUP2 EQ PUSH2 0x54C0 JUMPI PUSH1 0x0 DUP1 REVERT JUMPDEST POP JUMP JUMPDEST PUSH1 0x0 DUP2 CALLDATALOAD SWAP1 POP PUSH2 0x54D2 DUP2 PUSH2 0x54AC JUMP JUMPDEST SWAP3 SWAP2 POP POP JUMP JUMPDEST PUSH1 0x0 DUP1 PUSH1 0x40 DUP4 DUP6 SUB SLT ISZERO PUSH2 0x54EF JUMPI PUSH2 0x54EE PUSH2 0x53DD JUMP JUMPDEST JUMPDEST PUSH1 0x0 PUSH2 0x54FD DUP6 DUP3 DUP7 ADD PUSH2 0x54C3 JUMP JUMPDEST SWAP3 POP POP PUSH1 0x20 PUSH2 0x550E DUP6 DUP3 DUP7 ADD PUSH2 0x54C3 JUMP JUMPDEST SWAP2 POP POP SWAP3 POP SWAP3 SWAP1 POP JUMP JUMPDEST PUSH1 0x0 PUSH1 0x20 DUP3 DUP5 SUB SLT ISZERO PUSH2 0x552E JUMPI PUSH2 0x552D PUSH2 0x53DD JUMP JUMPDEST JUMPDEST PUSH1 0x0 PUSH2 0x553C DUP5 DUP3 DUP6 ADD PUSH2 0x54C3 JUMP JUMPDEST SWAP2 POP POP SWAP3 SWAP2 POP POP JUMP JUMPDEST PUSH1 0x0 DUP2 SWAP1 POP SWAP2 SWAP1 POP JUMP JUMPDEST PUSH2 0x5558 DUP2 PUSH2 0x5545 JUMP JUMPDEST DUP2 EQ PUSH2 0x5563 JUMPI PUSH1 0x0 DUP1 REVERT JUMPDEST POP JUMP JUMPDEST PUSH1 0x0 DUP2 CALLDATALOAD SWAP1 POP PUSH2 0x5575 DUP2 PUSH2 0x554F JUMP JUMPDEST SWAP3 SWAP2 POP POP JUMP JUMPDEST PUSH1 0x0 PUSH1 0x20 DUP3 DUP5 SUB SLT ISZERO PUSH2 0x5591 JUMPI PUSH2 0x5590 PUSH2 0x53DD JUMP JUMPDEST JUMPDEST PUSH1 0x0 PUSH2 0x559F DUP5 DUP3 DUP6 ADD PUSH2 0x5566 JUMP JUMPDEST SWAP2 POP POP SWAP3 SWAP2 POP POP JUMP JUMPDEST PUSH2 0x55B1 DUP2 PUSH2 0x5545 JUMP JUMPDEST DUP3 MSTORE POP POP JUMP JUMPDEST PUSH1 0x0 PUSH1 0x20 DUP3 ADD SWAP1 POP PUSH2 0x55CC PUSH1 0x0 DUP4 ADD DUP5 PUSH2 0x55A8 JUMP JUMPDEST SWAP3 SWAP2 POP POP JUMP JUMPDEST PUSH1 0x0 PUSH20 0xFFFFFFFFFFFFFFFFFFFFFFFFFFFFFFFFFFFFFFFF DUP3 AND SWAP1 POP SWAP2 SWAP1 POP JUMP JUMPDEST PUSH1 0x0 PUSH2 0x55FD DUP3 PUSH2 0x55D2 JUMP JUMPDEST SWAP1 POP SWAP2 SWAP1 POP JUMP JUMPDEST PUSH2 0x560D DUP2 PUSH2 0x55F2 JUMP JUMPDEST DUP2 EQ PUSH2 0x5618 JUMPI PUSH1 0x0 DUP1 REVERT JUMPDEST POP JUMP JUMPDEST PUSH1 0x0 DUP2 CALLDATALOAD SWAP1 POP PUSH2 0x562A DUP2 PUSH2 0x5604 JUMP JUMPDEST SWAP3 SWAP2 POP POP JUMP JUMPDEST PUSH1 0x0 DUP1 PUSH1 0x40 DUP4 DUP6 SUB SLT ISZERO PUSH2 0x5647 JUMPI PUSH2 0x5646 PUSH2 0x53DD JUMP JUMPDEST JUMPDEST PUSH1 0x0 PUSH2 0x5655 DUP6 DUP3 DUP7 ADD PUSH2 0x5566 JUMP JUMPDEST SWAP3 POP POP PUSH1 0x20 PUSH2 0x5666 DUP6 DUP3 DUP7 ADD PUSH2 0x561B JUMP JUMPDEST SWAP2 POP POP SWAP3 POP SWAP3 SWAP1 POP JUMP JUMPDEST PUSH1 0x0 DUP1 REVERT JUMPDEST PUSH1 0x0 DUP1 REVERT JUMPDEST PUSH1 0x0 PUSH1 0x1F NOT PUSH1 0x1F DUP4 ADD AND SWAP1 POP SWAP2 SWAP1 POP JUMP JUMPDEST PUSH32 0x4E487B7100000000000000000000000000000000000000000000000000000000 PUSH1 0x0 MSTORE PUSH1 0x41 PUSH1 0x4 MSTORE PUSH1 0x24 PUSH1 0x0 REVERT JUMPDEST PUSH2 0x56C3 DUP3 PUSH2 0x567A JUMP JUMPDEST DUP2 ADD DUP2 DUP2 LT PUSH8 0xFFFFFFFFFFFFFFFF DUP3 GT OR ISZERO PUSH2 0x56E2 JUMPI PUSH2 0x56E1 PUSH2 0x568B JUMP JUMPDEST JUMPDEST DUP1 PUSH1 0x40 MSTORE POP POP POP JUMP JUMPDEST PUSH1 0x0 PUSH2 0x56F5 PUSH2 0x53D3 JUMP JUMPDEST SWAP1 POP PUSH2 0x5701 DUP3 DUP3 PUSH2 0x56BA JUMP JUMPDEST SWAP2 SWAP1 POP JUMP JUMPDEST PUSH1 0x0 PUSH8 0xFFFFFFFFFFFFFFFF DUP3 GT ISZERO PUSH2 0x5721 JUMPI PUSH2 0x5720 PUSH2 0x568B JUMP JUMPDEST JUMPDEST PUSH2 0x572A DUP3 PUSH2 0x567A JUMP JUMPDEST SWAP1 POP PUSH1 0x20 DUP2 ADD SWAP1 POP SWAP2 SWAP1 POP JUMP JUMPDEST DUP3 DUP2 DUP4 CALLDATACOPY PUSH1 0x0 DUP4 DUP4 ADD MSTORE POP POP POP JUMP JUMPDEST PUSH1 0x0 PUSH2 0x5759 PUSH2 0x5754 DUP5 PUSH2 0x5706 JUMP JUMPDEST PUSH2 0x56EB JUMP JUMPDEST SWAP1 POP DUP3 DUP2 MSTORE PUSH1 0x20 DUP2 ADD DUP5 DUP5 DUP5 ADD GT ISZERO PUSH2 0x5775 JUMPI PUSH2 0x5774 PUSH2 0x5675 JUMP JUMPDEST JUMPDEST PUSH2 0x5780 DUP5 DUP3 DUP6 PUSH2 0x5737 JUMP JUMPDEST POP SWAP4 SWAP3 POP POP POP JUMP JUMPDEST PUSH1 0x0 DUP3 PUSH1 0x1F DUP4 ADD SLT PUSH2 0x579D JUMPI PUSH2 0x579C PUSH2 0x5670 JUMP JUMPDEST JUMPDEST DUP2 CALLDATALOAD PUSH2 0x57AD DUP5 DUP3 PUSH1 0x20 DUP7 ADD PUSH2 0x5746 JUMP JUMPDEST SWAP2 POP POP SWAP3 SWAP2 POP POP JUMP JUMPDEST PUSH1 0x0 PUSH8 0xFFFFFFFFFFFFFFFF DUP3 GT ISZERO PUSH2 0x57D1 JUMPI PUSH2 0x57D0 PUSH2 0x568B JUMP JUMPDEST JUMPDEST PUSH1 0x20 DUP3 MUL SWAP1 POP PUSH1 0x20 DUP2 ADD SWAP1 POP SWAP2 SWAP1 POP JUMP JUMPDEST PUSH1 0x0 DUP1 REVERT JUMPDEST PUSH1 0x0 DUP1 REVERT JUMPDEST PUSH1 0x0 DUP1 REVERT JUMPDEST PUSH1 0x3 DUP2 LT PUSH2 0x57FE JUMPI PUSH1 0x0 DUP1 REVERT JUMPDEST POP JUMP JUMPDEST PUSH1 0x0 DUP2 CALLDATALOAD SWAP1 POP PUSH2 0x5810 DUP2 PUSH2 0x57F1 JUMP JUMPDEST SWAP3 SWAP2 POP POP JUMP JUMPDEST PUSH1 0x0 PUSH1 0x60 DUP3 DUP5 SUB SLT ISZERO PUSH2 0x582C JUMPI PUSH2 0x582B PUSH2 0x57E7 JUMP JUMPDEST JUMPDEST PUSH2 0x5836 PUSH1 0x60 PUSH2 0x56EB JUMP JUMPDEST SWAP1 POP PUSH1 0x0 PUSH2 0x5846 DUP5 DUP3 DUP6 ADD PUSH2 0x5801 JUMP JUMPDEST PUSH1 0x0 DUP4 ADD MSTORE POP PUSH1 0x20 DUP3 ADD CALLDATALOAD PUSH8 0xFFFFFFFFFFFFFFFF DUP2 GT ISZERO PUSH2 0x586A JUMPI PUSH2 0x5869 PUSH2 0x57EC JUMP JUMPDEST JUMPDEST PUSH2 0x5876 DUP5 DUP3 DUP6 ADD PUSH2 0x5788 JUMP JUMPDEST PUSH1 0x20 DUP4 ADD MSTORE POP PUSH1 0x40 DUP3 ADD CALLDATALOAD PUSH8 0xFFFFFFFFFFFFFFFF DUP2 GT ISZERO PUSH2 0x589A JUMPI PUSH2 0x5899 PUSH2 0x57EC JUMP JUMPDEST JUMPDEST PUSH2 0x58A6 DUP5 DUP3 DUP6 ADD PUSH2 0x5788 JUMP JUMPDEST PUSH1 0x40 DUP4 ADD MSTORE POP SWAP3 SWAP2 POP POP JUMP JUMPDEST PUSH1 0x0 PUSH2 0x58C5 PUSH2 0x58C0 DUP5 PUSH2 0x57B6 JUMP JUMPDEST PUSH2 0x56EB JUMP JUMPDEST SWAP1 POP DUP1 DUP4 DUP3 MSTORE PUSH1 0x20 DUP3 ADD SWAP1 POP PUSH1 0x20 DUP5 MUL DUP4 ADD DUP6 DUP2 GT ISZERO PUSH2 0x58E8 JUMPI PUSH2 0x58E7 PUSH2 0x57E2 JUMP JUMPDEST JUMPDEST DUP4 JUMPDEST DUP2 DUP2 LT ISZERO PUSH2 0x592F JUMPI DUP1 CALLDATALOAD PUSH8 0xFFFFFFFFFFFFFFFF DUP2 GT ISZERO PUSH2 0x590D JUMPI PUSH2 0x590C PUSH2 0x5670 JUMP JUMPDEST JUMPDEST DUP1 DUP7 ADD PUSH2 0x591A DUP10 DUP3 PUSH2 0x5816 JUMP JUMPDEST DUP6 MSTORE PUSH1 0x20 DUP6 ADD SWAP5 POP POP POP PUSH1 0x20 DUP2 ADD SWAP1 POP PUSH2 0x58EA JUMP JUMPDEST POP POP POP SWAP4 SWAP3 POP POP POP JUMP JUMPDEST PUSH1 0x0 DUP3 PUSH1 0x1F DUP4 ADD SLT PUSH2 0x594E JUMPI PUSH2 0x594D PUSH2 0x5670 JUMP JUMPDEST JUMPDEST DUP2 CALLDATALOAD PUSH2 0x595E DUP5 DUP3 PUSH1 0x20 DUP7 ADD PUSH2 0x58B2 JUMP JUMPDEST SWAP2 POP POP SWAP3 SWAP2 POP POP JUMP JUMPDEST PUSH1 0x0 DUP1 PUSH1 0x0 DUP1 PUSH1 0x80 DUP6 DUP8 SUB SLT ISZERO PUSH2 0x5981 JUMPI PUSH2 0x5980 PUSH2 0x53DD JUMP JUMPDEST JUMPDEST PUSH1 0x0 PUSH2 0x598F DUP8 DUP3 DUP9 ADD PUSH2 0x54C3 JUMP JUMPDEST SWAP5 POP POP PUSH1 0x20 DUP6 ADD CALLDATALOAD PUSH8 0xFFFFFFFFFFFFFFFF DUP2 GT ISZERO PUSH2 0x59B0 JUMPI PUSH2 0x59AF PUSH2 0x53E2 JUMP JUMPDEST JUMPDEST PUSH2 0x59BC DUP8 DUP3 DUP9 ADD PUSH2 0x5788 JUMP JUMPDEST SWAP4 POP POP PUSH1 0x40 DUP6 ADD CALLDATALOAD PUSH8 0xFFFFFFFFFFFFFFFF DUP2 GT ISZERO PUSH2 0x59DD JUMPI PUSH2 0x59DC PUSH2 0x53E2 JUMP JUMPDEST JUMPDEST PUSH2 0x59E9 DUP8 DUP3 DUP9 ADD PUSH2 0x5788 JUMP JUMPDEST SWAP3 POP POP PUSH1 0x60 DUP6 ADD CALLDATALOAD PUSH8 0xFFFFFFFFFFFFFFFF DUP2 GT ISZERO PUSH2 0x5A0A JUMPI PUSH2 0x5A09 PUSH2 0x53E2 JUMP JUMPDEST JUMPDEST PUSH2 0x5A16 DUP8 DUP3 DUP9 ADD PUSH2 0x5939 JUMP JUMPDEST SWAP2 POP POP SWAP3 SWAP6 SWAP2 SWAP5 POP SWAP3 POP JUMP JUMPDEST PUSH1 0x0 DUP2 MLOAD SWAP1 POP SWAP2 SWAP1 POP JUMP JUMPDEST PUSH1 0x0 DUP3 DUP3 MSTORE PUSH1 0x20 DUP3 ADD SWAP1 POP SWAP3 SWAP2 POP POP JUMP JUMPDEST PUSH1 0x0 DUP2 SWAP1 POP PUSH1 0x20 DUP3 ADD SWAP1 POP SWAP2 SWAP1 POP JUMP JUMPDEST PUSH2 0x5A57 DUP2 PUSH2 0x54A2 JUMP JUMPDEST DUP3 MSTORE POP POP JUMP JUMPDEST PUSH1 0x0 PUSH2 0x5A69 DUP4 DUP4 PUSH2 0x5A4E JUMP JUMPDEST PUSH1 0x20 DUP4 ADD SWAP1 POP SWAP3 SWAP2 POP POP JUMP JUMPDEST PUSH1 0x0 PUSH1 0x20 DUP3 ADD SWAP1 POP SWAP2 SWAP1 POP JUMP JUMPDEST PUSH1 0x0 PUSH2 0x5A8D DUP3 PUSH2 0x5A22 JUMP JUMPDEST PUSH2 0x5A97 DUP2 DUP6 PUSH2 0x5A2D JUMP JUMPDEST SWAP4 POP PUSH2 0x5AA2 DUP4 PUSH2 0x5A3E JUMP JUMPDEST DUP1 PUSH1 0x0 JUMPDEST DUP4 DUP2 LT ISZERO PUSH2 0x5AD3 JUMPI DUP2 MLOAD PUSH2 0x5ABA DUP9 DUP3 PUSH2 0x5A5D JUMP JUMPDEST SWAP8 POP PUSH2 0x5AC5 DUP4 PUSH2 0x5A75 JUMP JUMPDEST SWAP3 POP POP PUSH1 0x1 DUP2 ADD SWAP1 POP PUSH2 0x5AA6 JUMP JUMPDEST POP DUP6 SWAP4 POP POP POP POP SWAP3 SWAP2 POP POP JUMP JUMPDEST PUSH1 0x0 PUSH1 0x20 DUP3 ADD SWAP1 POP DUP2 DUP2 SUB PUSH1 0x0 DUP4 ADD MSTORE PUSH2 0x5AFA DUP2 DUP5 PUSH2 0x5A82 JUMP JUMPDEST SWAP1 POP SWAP3 SWAP2 POP POP JUMP JUMPDEST PUSH1 0x0 DUP1 PUSH1 0x0 PUSH1 0x60 DUP5 DUP7 SUB SLT ISZERO PUSH2 0x5B1B JUMPI PUSH2 0x5B1A PUSH2 0x53DD JUMP JUMPDEST JUMPDEST PUSH1 0x0 PUSH2 0x5B29 DUP7 DUP3 DUP8 ADD PUSH2 0x54C3 JUMP JUMPDEST SWAP4 POP POP PUSH1 0x20 PUSH2 0x5B3A DUP7 DUP3 DUP8 ADD PUSH2 0x54C3 JUMP JUMPDEST SWAP3 POP POP PUSH1 0x40 DUP5 ADD CALLDATALOAD PUSH8 0xFFFFFFFFFFFFFFFF DUP2 GT ISZERO PUSH2 0x5B5B JUMPI PUSH2 0x5B5A PUSH2 0x53E2 JUMP JUMPDEST JUMPDEST PUSH2 0x5B67 DUP7 DUP3 DUP8 ADD PUSH2 0x5788 JUMP JUMPDEST SWAP2 POP POP SWAP3 POP SWAP3 POP SWAP3 JUMP JUMPDEST PUSH1 0x0 DUP1 PUSH1 0x40 DUP4 DUP6 SUB SLT ISZERO PUSH2 0x5B88 JUMPI PUSH2 0x5B87 PUSH2 0x53DD JUMP JUMPDEST JUMPDEST PUSH1 0x0 PUSH2 0x5B96 DUP6 DUP3 DUP7 ADD PUSH2 0x54C3 JUMP JUMPDEST SWAP3 POP POP PUSH1 0x20 PUSH2 0x5BA7 DUP6 DUP3 DUP7 ADD PUSH2 0x561B JUMP JUMPDEST SWAP2 POP POP SWAP3 POP SWAP3 SWAP1 POP JUMP JUMPDEST PUSH2 0x5BBA DUP2 PUSH2 0x54A2 JUMP JUMPDEST DUP3 MSTORE POP POP JUMP JUMPDEST PUSH1 0x0 PUSH1 0x20 DUP3 ADD SWAP1 POP PUSH2 0x5BD5 PUSH1 0x0 DUP4 ADD DUP5 PUSH2 0x5BB1 JUMP JUMPDEST SWAP3 SWAP2 POP POP JUMP JUMPDEST PUSH1 0x0 DUP2 MLOAD SWAP1 POP SWAP2 SWAP1 POP JUMP JUMPDEST PUSH1 0x0 DUP3 DUP3 MSTORE PUSH1 0x20 DUP3 ADD SWAP1 POP SWAP3 SWAP2 POP POP JUMP JUMPDEST PUSH1 0x0 DUP2 SWAP1 POP PUSH1 0x20 DUP3 ADD SWAP1 POP SWAP2 SWAP1 POP JUMP JUMPDEST PUSH1 0x0 DUP2 MLOAD SWAP1 POP SWAP2 SWAP1 POP JUMP JUMPDEST PUSH1 0x0 DUP3 DUP3 MSTORE PUSH1 0x20 DUP3 ADD SWAP1 POP SWAP3 SWAP2 POP POP JUMP JUMPDEST PUSH1 0x0 JUMPDEST DUP4 DUP2 LT ISZERO PUSH2 0x5C41 JUMPI DUP1 DUP3 ADD MLOAD DUP2 DUP5 ADD MSTORE PUSH1 0x20 DUP2 ADD SWAP1 POP PUSH2 0x5C26 JUMP JUMPDEST PUSH1 0x0 DUP5 DUP5 ADD MSTORE POP POP POP POP JUMP JUMPDEST PUSH1 0x0 PUSH2 0x5C58 DUP3 PUSH2 0x5C07 JUMP JUMPDEST PUSH2 0x5C62 DUP2 DUP6 PUSH2 0x5C12 JUMP JUMPDEST SWAP4 POP PUSH2 0x5C72 DUP2 DUP6 PUSH1 0x20 DUP7 ADD PUSH2 0x5C23 JUMP JUMPDEST PUSH2 0x5C7B DUP2 PUSH2 0x567A JUMP JUMPDEST DUP5 ADD SWAP2 POP POP SWAP3 SWAP2 POP POP JUMP JUMPDEST PUSH1 0x0 DUP2 MLOAD SWAP1 POP SWAP2 SWAP1 POP JUMP JUMPDEST PUSH1 0x0 DUP3 DUP3 MSTORE PUSH1 0x20 DUP3 ADD SWAP1 POP SWAP3 SWAP2 POP POP JUMP JUMPDEST PUSH1 0x0 DUP2 SWAP1 POP PUSH1 0x20 DUP3 ADD SWAP1 POP SWAP2 SWAP1 POP JUMP JUMPDEST PUSH2 0x5CBB DUP2 PUSH2 0x546C JUMP JUMPDEST DUP3 MSTORE POP POP JUMP JUMPDEST PUSH1 0x0 PUSH1 0x40 DUP4 ADD PUSH1 0x0 DUP4 ADD MLOAD DUP5 DUP3 SUB PUSH1 0x0 DUP7 ADD MSTORE PUSH2 0x5CDE DUP3 DUP3 PUSH2 0x5C4D JUMP JUMPDEST SWAP2 POP POP PUSH1 0x20 DUP4 ADD MLOAD PUSH2 0x5CF3 PUSH1 0x20 DUP7 ADD DUP3 PUSH2 0x5CB2 JUMP JUMPDEST POP DUP1 SWAP2 POP POP SWAP3 SWAP2 POP POP JUMP JUMPDEST PUSH1 0x0 PUSH2 0x5D0A DUP4 DUP4 PUSH2 0x5CC1 JUMP JUMPDEST SWAP1 POP SWAP3 SWAP2 POP POP JUMP JUMPDEST PUSH1 0x0 PUSH1 0x20 DUP3 ADD SWAP1 POP SWAP2 SWAP1 POP JUMP JUMPDEST PUSH1 0x0 PUSH2 0x5D2A DUP3 PUSH2 0x5C86 JUMP JUMPDEST PUSH2 0x5D34 DUP2 DUP6 PUSH2 0x5C91 JUMP JUMPDEST SWAP4 POP DUP4 PUSH1 0x20 DUP3 MUL DUP6 ADD PUSH2 0x5D46 DUP6 PUSH2 0x5CA2 JUMP JUMPDEST DUP1 PUSH1 0x0 JUMPDEST DUP6 DUP2 LT ISZERO PUSH2 0x5D82 JUMPI DUP5 DUP5 SUB DUP10 MSTORE DUP2 MLOAD PUSH2 0x5D63 DUP6 DUP3 PUSH2 0x5CFE JUMP JUMPDEST SWAP5 POP PUSH2 0x5D6E DUP4 PUSH2 0x5D12 JUMP JUMPDEST SWAP3 POP PUSH1 0x20 DUP11 ADD SWAP10 POP POP PUSH1 0x1 DUP2 ADD SWAP1 POP PUSH2 0x5D4A JUMP JUMPDEST POP DUP3 SWAP8 POP DUP8 SWAP6 POP POP POP POP POP POP SWAP3 SWAP2 POP POP JUMP JUMPDEST PUSH1 0x0 PUSH1 0x80 DUP4 ADD PUSH1 0x0 DUP4 ADD MLOAD PUSH2 0x5DAC PUSH1 0x0 DUP7 ADD DUP3 PUSH2 0x5A4E JUMP JUMPDEST POP PUSH1 0x20 DUP4 ADD MLOAD PUSH2 0x5DBF PUSH1 0x20 DUP7 ADD DUP3 PUSH2 0x5A4E JUMP JUMPDEST POP PUSH1 0x40 DUP4 ADD MLOAD DUP5 DUP3 SUB PUSH1 0x40 DUP7 ADD MSTORE PUSH2 0x5DD7 DUP3 DUP3 PUSH2 0x5C4D JUMP JUMPDEST SWAP2 POP POP PUSH1 0x60 DUP4 ADD MLOAD DUP5 DUP3 SUB PUSH1 0x60 DUP7 ADD MSTORE PUSH2 0x5DF1 DUP3 DUP3 PUSH2 0x5D1F JUMP JUMPDEST SWAP2 POP POP DUP1 SWAP2 POP POP SWAP3 SWAP2 POP POP JUMP JUMPDEST PUSH1 0x0 PUSH2 0x5E0A DUP4 DUP4 PUSH2 0x5D94 JUMP JUMPDEST SWAP1 POP SWAP3 SWAP2 POP POP JUMP JUMPDEST PUSH1 0x0 PUSH1 0x20 DUP3 ADD SWAP1 POP SWAP2 SWAP1 POP JUMP JUMPDEST PUSH1 0x0 PUSH2 0x5E2A DUP3 PUSH2 0x5BDB JUMP JUMPDEST PUSH2 0x5E34 DUP2 DUP6 PUSH2 0x5BE6 JUMP JUMPDEST SWAP4 POP DUP4 PUSH1 0x20 DUP3 MUL DUP6 ADD PUSH2 0x5E46 DUP6 PUSH2 0x5BF7 JUMP JUMPDEST DUP1 PUSH1 0x0 JUMPDEST DUP6 DUP2 LT ISZERO PUSH2 0x5E82 JUMPI DUP5 DUP5 SUB DUP10 MSTORE DUP2 MLOAD PUSH2 0x5E63 DUP6 DUP3 PUSH2 0x5DFE JUMP JUMPDEST SWAP5 POP PUSH2 0x5E6E DUP4 PUSH2 0x5E12 JUMP JUMPDEST SWAP3 POP PUSH1 0x20 DUP11 ADD SWAP10 POP POP PUSH1 0x1 DUP2 ADD SWAP1 POP PUSH2 0x5E4A JUMP JUMPDEST POP DUP3 SWAP8 POP DUP8 SWAP6 POP POP POP POP POP POP SWAP3 SWAP2 POP POP JUMP JUMPDEST PUSH1 0x0 PUSH1 0x20 DUP3 ADD SWAP1 POP DUP2 DUP2 SUB PUSH1 0x0 DUP4 ADD MSTORE PUSH2 0x5EAE DUP2 DUP5 PUSH2 0x5E1F JUMP JUMPDEST SWAP1 POP SWAP3 SWAP2 POP POP JUMP JUMPDEST PUSH1 0x0 PUSH8 0xFFFFFFFFFFFFFFFF DUP3 GT ISZERO PUSH2 0x5ED1 JUMPI PUSH2 0x5ED0 PUSH2 0x568B JUMP JUMPDEST JUMPDEST PUSH1 0x20 DUP3 MUL SWAP1 POP PUSH1 0x20 DUP2 ADD SWAP1 POP SWAP2 SWAP1 POP JUMP JUMPDEST PUSH1 0x0 PUSH2 0x5EF5 PUSH2 0x5EF0 DUP5 PUSH2 0x5EB6 JUMP JUMPDEST PUSH2 0x56EB JUMP JUMPDEST SWAP1 POP DUP1 DUP4 DUP3 MSTORE PUSH1 0x20 DUP3 ADD SWAP1 POP PUSH1 0x20 DUP5 MUL DUP4 ADD DUP6 DUP2 GT ISZERO PUSH2 0x5F18 JUMPI PUSH2 0x5F17 PUSH2 0x57E2 JUMP JUMPDEST JUMPDEST DUP4 JUMPDEST DUP2 DUP2 LT ISZERO PUSH2 0x5F41 JUMPI DUP1 PUSH2 0x5F2D DUP9 DUP3 PUSH2 0x54C3 JUMP JUMPDEST DUP5 MSTORE PUSH1 0x20 DUP5 ADD SWAP4 POP POP PUSH1 0x20 DUP2 ADD SWAP1 POP PUSH2 0x5F1A JUMP JUMPDEST POP POP POP SWAP4 SWAP3 POP POP POP JUMP JUMPDEST PUSH1 0x0 DUP3 PUSH1 0x1F DUP4 ADD SLT PUSH2 0x5F60 JUMPI PUSH2 0x5F5F PUSH2 0x5670 JUMP JUMPDEST JUMPDEST DUP2 CALLDATALOAD PUSH2 0x5F70 DUP5 DUP3 PUSH1 0x20 DUP7 ADD PUSH2 0x5EE2 JUMP JUMPDEST SWAP2 POP POP SWAP3 SWAP2 POP POP JUMP JUMPDEST PUSH1 0x0 DUP1 PUSH1 0x0 DUP1 PUSH1 0x80 DUP6 DUP8 SUB SLT ISZERO PUSH2 0x5F93 JUMPI PUSH2 0x5F92 PUSH2 0x53DD JUMP JUMPDEST JUMPDEST PUSH1 0x0 PUSH2 0x5FA1 DUP8 DUP3 DUP9 ADD PUSH2 0x54C3 JUMP JUMPDEST SWAP5 POP POP PUSH1 0x20 PUSH2 0x5FB2 DUP8 DUP3 DUP9 ADD PUSH2 0x54C3 JUMP JUMPDEST SWAP4 POP POP PUSH1 0x40 DUP6 ADD CALLDATALOAD PUSH8 0xFFFFFFFFFFFFFFFF DUP2 GT ISZERO PUSH2 0x5FD3 JUMPI PUSH2 0x5FD2 PUSH2 0x53E2 JUMP JUMPDEST JUMPDEST PUSH2 0x5FDF DUP8 DUP3 DUP9 ADD PUSH2 0x5F4B JUMP JUMPDEST SWAP3 POP POP PUSH1 0x60 PUSH2 0x5FF0 DUP8 DUP3 DUP9 ADD PUSH2 0x54C3 JUMP JUMPDEST SWAP2 POP POP SWAP3 SWAP6 SWAP2 SWAP5 POP SWAP3 POP JUMP JUMPDEST PUSH1 0x0 DUP1 PUSH1 0x40 DUP4 DUP6 SUB SLT ISZERO PUSH2 0x6013 JUMPI PUSH2 0x6012 PUSH2 0x53DD JUMP JUMPDEST JUMPDEST PUSH1 0x0 PUSH2 0x6021 DUP6 DUP3 DUP7 ADD PUSH2 0x54C3 JUMP JUMPDEST SWAP3 POP POP PUSH1 0x20 DUP4 ADD CALLDATALOAD PUSH8 0xFFFFFFFFFFFFFFFF DUP2 GT ISZERO PUSH2 0x6042 JUMPI PUSH2 0x6041 PUSH2 0x53E2 JUMP JUMPDEST JUMPDEST PUSH2 0x604E DUP6 DUP3 DUP7 ADD PUSH2 0x5788 JUMP JUMPDEST SWAP2 POP POP SWAP3 POP SWAP3 SWAP1 POP JUMP JUMPDEST PUSH1 0x0 DUP2 MLOAD SWAP1 POP SWAP2 SWAP1 POP JUMP JUMPDEST PUSH1 0x0 DUP3 DUP3 MSTORE PUSH1 0x20 DUP3 ADD SWAP1 POP SWAP3 SWAP2 POP POP JUMP JUMPDEST PUSH1 0x0 DUP2 SWAP1 POP PUSH1 0x20 DUP3 ADD SWAP1 POP SWAP2 SWAP1 POP JUMP JUMPDEST PUSH1 0x0 DUP3 DUP3 MSTORE PUSH1 0x20 DUP3 ADD SWAP1 POP SWAP3 SWAP2 POP POP JUMP JUMPDEST PUSH1 0x0 PUSH2 0x60A0 DUP3 PUSH2 0x5BDB JUMP JUMPDEST PUSH2 0x60AA DUP2 DUP6 PUSH2 0x6084 JUMP JUMPDEST SWAP4 POP DUP4 PUSH1 0x20 DUP3 MUL DUP6 ADD PUSH2 0x60BC DUP6 PUSH2 0x5BF7 JUMP JUMPDEST DUP1 PUSH1 0x0 JUMPDEST DUP6 DUP2 LT ISZERO PUSH2 0x60F8 JUMPI DUP5 DUP5 SUB DUP10 MSTORE DUP2 MLOAD PUSH2 0x60D9 DUP6 DUP3 PUSH2 0x5DFE JUMP JUMPDEST SWAP5 POP PUSH2 0x60E4 DUP4 PUSH2 0x5E12 JUMP JUMPDEST SWAP3 POP PUSH1 0x20 DUP11 ADD SWAP10 POP POP PUSH1 0x1 DUP2 ADD SWAP1 POP PUSH2 0x60C0 JUMP JUMPDEST POP DUP3 SWAP8 POP DUP8 SWAP6 POP POP POP POP POP POP SWAP3 SWAP2 POP POP JUMP JUMPDEST PUSH1 0x0 PUSH1 0xC0 DUP4 ADD PUSH1 0x0 DUP4 ADD MLOAD PUSH2 0x6122 PUSH1 0x0 DUP7 ADD DUP3 PUSH2 0x5A4E JUMP JUMPDEST POP PUSH1 0x20 DUP4 ADD MLOAD PUSH2 0x6135 PUSH1 0x20 DUP7 ADD DUP3 PUSH2 0x5A4E JUMP JUMPDEST POP PUSH1 0x40 DUP4 ADD MLOAD DUP5 DUP3 SUB PUSH1 0x40 DUP7 ADD MSTORE PUSH2 0x614D DUP3 DUP3 PUSH2 0x5C4D JUMP JUMPDEST SWAP2 POP POP PUSH1 0x60 DUP4 ADD MLOAD DUP5 DUP3 SUB PUSH1 0x60 DUP7 ADD MSTORE PUSH2 0x6167 DUP3 DUP3 PUSH2 0x6095 JUMP JUMPDEST SWAP2 POP POP PUSH1 0x80 DUP4 ADD MLOAD PUSH2 0x617C PUSH1 0x80 DUP7 ADD DUP3 PUSH2 0x5CB2 JUMP JUMPDEST POP PUSH1 0xA0 DUP4 ADD MLOAD PUSH2 0x618F PUSH1 0xA0 DUP7 ADD DUP3 PUSH2 0x5A4E JUMP JUMPDEST POP DUP1 SWAP2 POP POP SWAP3 SWAP2 POP POP JUMP JUMPDEST PUSH1 0x0 PUSH2 0x61A6 DUP4 DUP4 PUSH2 0x610A JUMP JUMPDEST SWAP1 POP SWAP3 SWAP2 POP POP JUMP JUMPDEST PUSH1 0x0 PUSH1 0x20 DUP3 ADD SWAP1 POP SWAP2 SWAP1 POP JUMP JUMPDEST PUSH1 0x0 PUSH2 0x61C6 DUP3 PUSH2 0x6058 JUMP JUMPDEST PUSH2 0x61D0 DUP2 DUP6 PUSH2 0x6063 JUMP JUMPDEST SWAP4 POP DUP4 PUSH1 0x20 DUP3 MUL DUP6 ADD PUSH2 0x61E2 DUP6 PUSH2 0x6074 JUMP JUMPDEST DUP1 PUSH1 0x0 JUMPDEST DUP6 DUP2 LT ISZERO PUSH2 0x621E JUMPI DUP5 DUP5 SUB DUP10 MSTORE DUP2 MLOAD PUSH2 0x61FF DUP6 DUP3 PUSH2 0x619A JUMP JUMPDEST SWAP5 POP PUSH2 0x620A DUP4 PUSH2 0x61AE JUMP JUMPDEST SWAP3 POP PUSH1 0x20 DUP11 ADD SWAP10 POP POP PUSH1 0x1 DUP2 ADD SWAP1 POP PUSH2 0x61E6 JUMP JUMPDEST POP DUP3 SWAP8 POP DUP8 SWAP6 POP POP POP POP POP POP SWAP3 SWAP2 POP POP JUMP JUMPDEST PUSH1 0x0 PUSH1 0x20 DUP3 ADD SWAP1 POP DUP2 DUP2 SUB PUSH1 0x0 DUP4 ADD MSTORE PUSH2 0x624A DUP2 DUP5 PUSH2 0x61BB JUMP JUMPDEST SWAP1 POP SWAP3 SWAP2 POP POP JUMP JUMPDEST PUSH1 0x0 DUP1 PUSH1 0x0 PUSH1 0x60 DUP5 DUP7 SUB SLT ISZERO PUSH2 0x626B JUMPI PUSH2 0x626A PUSH2 0x53DD JUMP JUMPDEST JUMPDEST PUSH1 0x0 PUSH2 0x6279 DUP7 DUP3 DUP8 ADD PUSH2 0x54C3 JUMP JUMPDEST SWAP4 POP POP PUSH1 0x20 DUP5 ADD CALLDATALOAD PUSH8 0xFFFFFFFFFFFFFFFF DUP2 GT ISZERO PUSH2 0x629A JUMPI PUSH2 0x6299 PUSH2 0x53E2 JUMP JUMPDEST JUMPDEST PUSH2 0x62A6 DUP7 DUP3 DUP8 ADD PUSH2 0x5788 JUMP JUMPDEST SWAP3 POP POP PUSH1 0x40 DUP5 ADD CALLDATALOAD PUSH8 0xFFFFFFFFFFFFFFFF DUP2 GT ISZERO PUSH2 0x62C7 JUMPI PUSH2 0x62C6 PUSH2 0x53E2 JUMP JUMPDEST JUMPDEST PUSH2 0x62D3 DUP7 DUP3 DUP8 ADD PUSH2 0x5788 JUMP JUMPDEST SWAP2 POP POP SWAP3 POP SWAP3 POP SWAP3 JUMP JUMPDEST PUSH1 0x0 DUP2 MLOAD SWAP1 POP SWAP2 SWAP1 POP JUMP JUMPDEST PUSH1 0x0 DUP3 DUP3 MSTORE PUSH1 0x20 DUP3 ADD SWAP1 POP SWAP3 SWAP2 POP POP JUMP JUMPDEST PUSH1 0x0 DUP2 SWAP1 POP PUSH1 0x20 DUP3 ADD SWAP1 POP SWAP2 SWAP1 POP JUMP JUMPDEST PUSH1 0x0 PUSH1 0xA0 DUP4 ADD PUSH1 0x0 DUP4 ADD MLOAD PUSH2 0x6321 PUSH1 0x0 DUP7 ADD DUP3 PUSH2 0x5A4E JUMP JUMPDEST POP PUSH1 0x20 DUP4 ADD MLOAD PUSH2 0x6334 PUSH1 0x20 DUP7 ADD DUP3 PUSH2 0x5A4E JUMP JUMPDEST POP PUSH1 0x40 DUP4 ADD MLOAD DUP5 DUP3 SUB PUSH1 0x40 DUP7 ADD MSTORE PUSH2 0x634C DUP3 DUP3 PUSH2 0x5C4D JUMP JUMPDEST SWAP2 POP POP PUSH1 0x60 DUP4 ADD MLOAD PUSH2 0x6361 PUSH1 0x60 DUP7 ADD DUP3 PUSH2 0x5A4E JUMP JUMPDEST POP PUSH1 0x80 DUP4 ADD MLOAD PUSH2 0x6374 PUSH1 0x80 DUP7 ADD DUP3 PUSH2 0x5CB2 JUMP JUMPDEST POP DUP1 SWAP2 POP POP SWAP3 SWAP2 POP POP JUMP JUMPDEST PUSH1 0x0 PUSH2 0x638B DUP4 DUP4 PUSH2 0x6309 JUMP JUMPDEST SWAP1 POP SWAP3 SWAP2 POP POP JUMP JUMPDEST PUSH1 0x0 PUSH1 0x20 DUP3 ADD SWAP1 POP SWAP2 SWAP1 POP JUMP JUMPDEST PUSH1 0x0 PUSH2 0x63AB DUP3 PUSH2 0x62DD JUMP JUMPDEST PUSH2 0x63B5 DUP2 DUP6 PUSH2 0x62E8 JUMP JUMPDEST SWAP4 POP DUP4 PUSH1 0x20 DUP3 MUL DUP6 ADD PUSH2 0x63C7 DUP6 PUSH2 0x62F9 JUMP JUMPDEST DUP1 PUSH1 0x0 JUMPDEST DUP6 DUP2 LT ISZERO PUSH2 0x6403 JUMPI DUP5 DUP5 SUB DUP10 MSTORE DUP2 MLOAD PUSH2 0x63E4 DUP6 DUP3 PUSH2 0x637F JUMP JUMPDEST SWAP5 POP PUSH2 0x63EF DUP4 PUSH2 0x6393 JUMP JUMPDEST SWAP3 POP PUSH1 0x20 DUP11 ADD SWAP10 POP POP PUSH1 0x1 DUP2 ADD SWAP1 POP PUSH2 0x63CB JUMP JUMPDEST POP DUP3 SWAP8 POP DUP8 SWAP6 POP POP POP POP POP POP SWAP3 SWAP2 POP POP JUMP JUMPDEST PUSH1 0x0 PUSH1 0x20 DUP3 ADD SWAP1 POP DUP2 DUP2 SUB PUSH1 0x0 DUP4 ADD MSTORE PUSH2 0x642F DUP2 DUP5 PUSH2 0x63A0 JUMP JUMPDEST SWAP1 POP SWAP3 SWAP2 POP POP JUMP JUMPDEST PUSH1 0x0 DUP2 MLOAD SWAP1 POP SWAP2 SWAP1 POP JUMP JUMPDEST PUSH1 0x0 DUP3 DUP3 MSTORE PUSH1 0x20 DUP3 ADD SWAP1 POP SWAP3 SWAP2 POP POP JUMP JUMPDEST PUSH1 0x0 DUP2 SWAP1 POP PUSH1 0x20 DUP3 ADD SWAP1 POP SWAP2 SWAP1 POP JUMP JUMPDEST PUSH1 0x0 PUSH1 0xA SWAP1 POP SWAP2 SWAP1 POP JUMP JUMPDEST PUSH1 0x0 DUP2 SWAP1 POP SWAP3 SWAP2 POP POP JUMP JUMPDEST PUSH1 0x0 DUP2 SWAP1 POP SWAP2 SWAP1 POP JUMP JUMPDEST PUSH32 0x4E487B7100000000000000000000000000000000000000000000000000000000 PUSH1 0x0 MSTORE PUSH1 0x21 PUSH1 0x4 MSTORE PUSH1 0x24 PUSH1 0x0 REVERT JUMPDEST PUSH1 0x3 DUP2 LT PUSH2 0x64C3 JUMPI PUSH2 0x64C2 PUSH2 0x6483 JUMP JUMPDEST JUMPDEST POP JUMP JUMPDEST PUSH1 0x0 DUP2 SWAP1 POP PUSH2 0x64D4 DUP3 PUSH2 0x64B2 JUMP JUMPDEST SWAP2 SWAP1 POP JUMP JUMPDEST PUSH1 0x0 PUSH2 0x64E4 DUP3 PUSH2 0x64C6 JUMP JUMPDEST SWAP1 POP SWAP2 SWAP1 POP JUMP JUMPDEST PUSH2 0x64F4 DUP2 PUSH2 0x64D9 JUMP JUMPDEST DUP3 MSTORE POP POP JUMP JUMPDEST PUSH1 0x0 PUSH1 0x60 DUP4 ADD PUSH1 0x0 DUP4 ADD MLOAD PUSH2 0x6512 PUSH1 0x0 DUP7 ADD DUP3 PUSH2 0x64EB JUMP JUMPDEST POP PUSH1 0x20 DUP4 ADD MLOAD DUP5 DUP3 SUB PUSH1 0x20 DUP7 ADD MSTORE PUSH2 0x652A DUP3 DUP3 PUSH2 0x5C4D JUMP JUMPDEST SWAP2 POP POP PUSH1 0x40 DUP4 ADD MLOAD DUP5 DUP3 SUB PUSH1 0x40 DUP7 ADD MSTORE PUSH2 0x6544 DUP3 DUP3 PUSH2 0x5C4D JUMP JUMPDEST SWAP2 POP POP DUP1 SWAP2 POP POP SWAP3 SWAP2 POP POP JUMP JUMPDEST PUSH1 0x0 PUSH2 0x655D DUP4 DUP4 PUSH2 0x64FA JUMP JUMPDEST SWAP1 POP SWAP3 SWAP2 POP POP JUMP JUMPDEST PUSH1 0x0 PUSH1 0x20 DUP3 ADD SWAP1 POP SWAP2 SWAP1 POP JUMP JUMPDEST PUSH1 0x0 PUSH2 0x657D DUP3 PUSH2 0x6463 JUMP JUMPDEST PUSH2 0x6587 DUP2 DUP6 PUSH2 0x646E JUMP JUMPDEST SWAP4 POP DUP4 PUSH1 0x20 DUP3 MUL DUP6 ADD PUSH2 0x6599 DUP6 PUSH2 0x6479 JUMP JUMPDEST DUP1 PUSH1 0x0 JUMPDEST DUP6 DUP2 LT ISZERO PUSH2 0x65D5 JUMPI DUP5 DUP5 SUB DUP10 MSTORE DUP2 MLOAD PUSH2 0x65B6 DUP6 DUP3 PUSH2 0x6551 JUMP JUMPDEST SWAP5 POP PUSH2 0x65C1 DUP4 PUSH2 0x6565 JUMP JUMPDEST SWAP3 POP PUSH1 0x20 DUP11 ADD SWAP10 POP POP PUSH1 0x1 DUP2 ADD SWAP1 POP PUSH2 0x659D JUMP JUMPDEST POP DUP3 SWAP8 POP DUP8 SWAP6 POP POP POP POP POP POP SWAP3 SWAP2 POP POP JUMP JUMPDEST PUSH1 0x0 PUSH1 0xE0 DUP4 ADD PUSH1 0x0 DUP4 ADD MLOAD PUSH2 0x65FF PUSH1 0x0 DUP7 ADD DUP3 PUSH2 0x5A4E JUMP JUMPDEST POP PUSH1 0x20 DUP4 ADD MLOAD PUSH2 0x6612 PUSH1 0x20 DUP7 ADD DUP3 PUSH2 0x5A4E JUMP JUMPDEST POP PUSH1 0x40 DUP4 ADD MLOAD DUP5 DUP3 SUB PUSH1 0x40 DUP7 ADD MSTORE PUSH2 0x662A DUP3 DUP3 PUSH2 0x5C4D JUMP JUMPDEST SWAP2 POP POP PUSH1 0x60 DUP4 ADD MLOAD DUP5 DUP3 SUB PUSH1 0x60 DUP7 ADD MSTORE PUSH2 0x6644 DUP3 DUP3 PUSH2 0x5C4D JUMP JUMPDEST SWAP2 POP POP PUSH1 0x80 DUP4 ADD MLOAD DUP5 DUP3 SUB PUSH1 0x80 DUP7 ADD MSTORE PUSH2 0x665E DUP3 DUP3 PUSH2 0x6572 JUMP JUMPDEST SWAP2 POP POP PUSH1 0xA0 DUP4 ADD MLOAD PUSH2 0x6673 PUSH1 0xA0 DUP7 ADD DUP3 PUSH2 0x5A4E JUMP JUMPDEST POP PUSH1 0xC0 DUP4 ADD MLOAD PUSH2 0x6686 PUSH1 0xC0 DUP7 ADD DUP3 PUSH2 0x5CB2 JUMP JUMPDEST POP DUP1 SWAP2 POP POP SWAP3 SWAP2 POP POP JUMP JUMPDEST PUSH1 0x0 PUSH2 0x669D DUP4 DUP4 PUSH2 0x65E7 JUMP JUMPDEST SWAP1 POP SWAP3 SWAP2 POP POP JUMP JUMPDEST PUSH1 0x0 PUSH1 0x20 DUP3 ADD SWAP1 POP SWAP2 SWAP1 POP JUMP JUMPDEST PUSH1 0x0 PUSH2 0x66BD DUP3 PUSH2 0x6437 JUMP JUMPDEST PUSH2 0x66C7 DUP2 DUP6 PUSH2 0x6442 JUMP JUMPDEST SWAP4 POP DUP4 PUSH1 0x20 DUP3 MUL DUP6 ADD PUSH2 0x66D9 DUP6 PUSH2 0x6453 JUMP JUMPDEST DUP1 PUSH1 0x0 JUMPDEST DUP6 DUP2 LT ISZERO PUSH2 0x6715 JUMPI DUP5 DUP5 SUB DUP10 MSTORE DUP2 MLOAD PUSH2 0x66F6 DUP6 DUP3 PUSH2 0x6691 JUMP JUMPDEST SWAP5 POP PUSH2 0x6701 DUP4 PUSH2 0x66A5 JUMP JUMPDEST SWAP3 POP PUSH1 0x20 DUP11 ADD SWAP10 POP POP PUSH1 0x1 DUP2 ADD SWAP1 POP PUSH2 0x66DD JUMP JUMPDEST POP DUP3 SWAP8 POP DUP8 SWAP6 POP POP POP POP POP POP SWAP3 SWAP2 POP POP JUMP JUMPDEST PUSH1 0x0 PUSH1 0x20 DUP3 ADD SWAP1 POP DUP2 DUP2 SUB PUSH1 0x0 DUP4 ADD MSTORE PUSH2 0x6741 DUP2 DUP5 PUSH2 0x66B2 JUMP JUMPDEST SWAP1 POP SWAP3 SWAP2 POP POP JUMP JUMPDEST PUSH1 0x0 PUSH1 0xC0 DUP4 ADD PUSH1 0x0 DUP4 ADD MLOAD PUSH2 0x6761 PUSH1 0x0 DUP7 ADD DUP3 PUSH2 0x5A4E JUMP JUMPDEST POP PUSH1 0x20 DUP4 ADD MLOAD PUSH2 0x6774 PUSH1 0x20 DUP7 ADD DUP3 PUSH2 0x5A4E JUMP JUMPDEST POP PUSH1 0x40 DUP4 ADD MLOAD DUP5 DUP3 SUB PUSH1 0x40 DUP7 ADD MSTORE PUSH2 0x678C DUP3 DUP3 PUSH2 0x5C4D JUMP JUMPDEST SWAP2 POP POP PUSH1 0x60 DUP4 ADD MLOAD DUP5 DUP3 SUB PUSH1 0x60 DUP7 ADD MSTORE PUSH2 0x67A6 DUP3 DUP3 PUSH2 0x6095 JUMP JUMPDEST SWAP2 POP POP PUSH1 0x80 DUP4 ADD MLOAD PUSH2 0x67BB PUSH1 0x80 DUP7 ADD DUP3 PUSH2 0x5CB2 JUMP JUMPDEST POP PUSH1 0xA0 DUP4 ADD MLOAD PUSH2 0x67CE PUSH1 0xA0 DUP7 ADD DUP3 PUSH2 0x5A4E JUMP JUMPDEST POP DUP1 SWAP2 POP POP SWAP3 SWAP2 POP POP JUMP JUMPDEST PUSH1 0x0 PUSH1 0x20 DUP3 ADD SWAP1 POP DUP2 DUP2 SUB PUSH1 0x0 DUP4 ADD MSTORE PUSH2 0x67F3 DUP2 DUP5 PUSH2 0x6749 JUMP JUMPDEST SWAP1 POP SWAP3 SWAP2 POP POP JUMP JUMPDEST PUSH1 0x0 DUP1 REVERT JUMPDEST PUSH1 0x0 DUP1 DUP4 PUSH1 0x1F DUP5 ADD SLT PUSH2 0x6816 JUMPI PUSH2 0x6815 PUSH2 0x5670 JUMP JUMPDEST JUMPDEST DUP3 CALLDATALOAD SWAP1 POP PUSH8 0xFFFFFFFFFFFFFFFF DUP2 GT ISZERO PUSH2 0x6833 JUMPI PUSH2 0x6832 PUSH2 0x67FB JUMP JUMPDEST JUMPDEST PUSH1 0x20 DUP4 ADD SWAP2 POP DUP4 PUSH1 0x20 DUP3 MUL DUP4 ADD GT ISZERO PUSH2 0x684F JUMPI PUSH2 0x684E PUSH2 0x57E2 JUMP JUMPDEST JUMPDEST SWAP3 POP SWAP3 SWAP1 POP JUMP JUMPDEST PUSH1 0x0 DUP1 PUSH1 0x0 DUP1 PUSH1 0x60 DUP6 DUP8 SUB SLT ISZERO PUSH2 0x6870 JUMPI PUSH2 0x686F PUSH2 0x53DD JUMP JUMPDEST JUMPDEST PUSH1 0x0 PUSH2 0x687E DUP8 DUP3 DUP9 ADD PUSH2 0x54C3 JUMP JUMPDEST SWAP5 POP POP PUSH1 0x20 PUSH2 0x688F DUP8 DUP3 DUP9 ADD PUSH2 0x5801 JUMP JUMPDEST SWAP4 POP POP PUSH1 0x40 DUP6 ADD CALLDATALOAD PUSH8 0xFFFFFFFFFFFFFFFF DUP2 GT ISZERO PUSH2 0x68B0 JUMPI PUSH2 0x68AF PUSH2 0x53E2 JUMP JUMPDEST JUMPDEST PUSH2 0x68BC DUP8 DUP3 DUP9 ADD PUSH2 0x6800 JUMP JUMPDEST SWAP3 POP SWAP3 POP POP SWAP3 SWAP6 SWAP2 SWAP5 POP SWAP3 POP JUMP JUMPDEST PUSH1 0x0 DUP1 PUSH1 0x0 PUSH1 0x60 DUP5 DUP7 SUB SLT ISZERO PUSH2 0x68E3 JUMPI PUSH2 0x68E2 PUSH2 0x53DD JUMP JUMPDEST JUMPDEST PUSH1 0x0 PUSH2 0x68F1 DUP7 DUP3 DUP8 ADD PUSH2 0x54C3 JUMP JUMPDEST SWAP4 POP POP PUSH1 0x20 PUSH2 0x6902 DUP7 DUP3 DUP8 ADD PUSH2 0x54C3 JUMP JUMPDEST SWAP3 POP POP PUSH1 0x40 PUSH2 0x6913 DUP7 DUP3 DUP8 ADD PUSH2 0x54C3 JUMP JUMPDEST SWAP2 POP POP SWAP3 POP SWAP3 POP SWAP3 JUMP JUMPDEST PUSH1 0x0 PUSH8 0xFFFFFFFFFFFFFFFF DUP3 GT ISZERO PUSH2 0x6938 JUMPI PUSH2 0x6937 PUSH2 0x568B JUMP JUMPDEST JUMPDEST PUSH1 0x20 DUP3 MUL SWAP1 POP PUSH1 0x20 DUP2 ADD SWAP1 POP SWAP2 SWAP1 POP JUMP JUMPDEST PUSH1 0x0 PUSH2 0x695C PUSH2 0x6957 DUP5 PUSH2 0x691D JUMP JUMPDEST PUSH2 0x56EB JUMP JUMPDEST SWAP1 POP DUP1 DUP4 DUP3 MSTORE PUSH1 0x20 DUP3 ADD SWAP1 POP PUSH1 0x20 DUP5 MUL DUP4 ADD DUP6 DUP2 GT ISZERO PUSH2 0x697F JUMPI PUSH2 0x697E PUSH2 0x57E2 JUMP JUMPDEST JUMPDEST DUP4 JUMPDEST DUP2 DUP2 LT ISZERO PUSH2 0x69C6 JUMPI DUP1 CALLDATALOAD PUSH8 0xFFFFFFFFFFFFFFFF DUP2 GT ISZERO PUSH2 0x69A4 JUMPI PUSH2 0x69A3 PUSH2 0x5670 JUMP JUMPDEST JUMPDEST DUP1 DUP7 ADD PUSH2 0x69B1 DUP10 DUP3 PUSH2 0x5788 JUMP JUMPDEST DUP6 MSTORE PUSH1 0x20 DUP6 ADD SWAP5 POP POP POP PUSH1 0x20 DUP2 ADD SWAP1 POP PUSH2 0x6981 JUMP JUMPDEST POP POP POP SWAP4 SWAP3 POP POP POP JUMP JUMPDEST PUSH1 0x0 DUP3 PUSH1 0x1F DUP4 ADD SLT PUSH2 0x69E5 JUMPI PUSH2 0x69E4 PUSH2 0x5670 JUMP JUMPDEST JUMPDEST DUP2 CALLDATALOAD PUSH2 0x69F5 DUP5 DUP3 PUSH1 0x20 DUP7 ADD PUSH2 0x6949 JUMP JUMPDEST SWAP2 POP POP SWAP3 SWAP2 POP POP JUMP JUMPDEST PUSH1 0x0 DUP1 PUSH1 0x0 PUSH1 0x60 DUP5 DUP7 SUB SLT ISZERO PUSH2 0x6A17 JUMPI PUSH2 0x6A16 PUSH2 0x53DD JUMP JUMPDEST JUMPDEST PUSH1 0x0 PUSH2 0x6A25 DUP7 DUP3 DUP8 ADD PUSH2 0x54C3 JUMP JUMPDEST SWAP4 POP POP PUSH1 0x20 DUP5 ADD CALLDATALOAD PUSH8 0xFFFFFFFFFFFFFFFF DUP2 GT ISZERO PUSH2 0x6A46 JUMPI PUSH2 0x6A45 PUSH2 0x53E2 JUMP JUMPDEST JUMPDEST PUSH2 0x6A52 DUP7 DUP3 DUP8 ADD PUSH2 0x69D0 JUMP JUMPDEST SWAP3 POP POP PUSH1 0x40 DUP5 ADD CALLDATALOAD PUSH8 0xFFFFFFFFFFFFFFFF DUP2 GT ISZERO PUSH2 0x6A73 JUMPI PUSH2 0x6A72 PUSH2 0x53E2 JUMP JUMPDEST JUMPDEST PUSH2 0x6A7F DUP7 DUP3 DUP8 ADD PUSH2 0x5F4B JUMP JUMPDEST SWAP2 POP POP SWAP3 POP SWAP3 POP SWAP3 JUMP JUMPDEST PUSH1 0x0 PUSH1 0xFF DUP3 AND SWAP1 POP SWAP2 SWAP1 POP JUMP JUMPDEST PUSH2 0x6A9F DUP2 PUSH2 0x6A89 JUMP JUMPDEST DUP2 EQ PUSH2 0x6AAA JUMPI PUSH1 0x0 DUP1 REVERT JUMPDEST POP JUMP JUMPDEST PUSH1 0x0 DUP2 CALLDATALOAD SWAP1 POP PUSH2 0x6ABC DUP2 PUSH2 0x6A96 JUMP JUMPDEST SWAP3 SWAP2 POP POP JUMP JUMPDEST PUSH1 0x0 DUP1 PUSH1 0x0 DUP1 PUSH1 0x80 DUP6 DUP8 SUB SLT ISZERO PUSH2 0x6ADC JUMPI PUSH2 0x6ADB PUSH2 0x53DD JUMP JUMPDEST JUMPDEST PUSH1 0x0 PUSH2 0x6AEA DUP8 DUP3 DUP9 ADD PUSH2 0x54C3 JUMP JUMPDEST SWAP5 POP POP PUSH1 0x20 DUP6 ADD CALLDATALOAD PUSH8 0xFFFFFFFFFFFFFFFF DUP2 GT ISZERO PUSH2 0x6B0B JUMPI PUSH2 0x6B0A PUSH2 0x53E2 JUMP JUMPDEST JUMPDEST PUSH2 0x6B17 DUP8 DUP3 DUP9 ADD PUSH2 0x5788 JUMP JUMPDEST SWAP4 POP POP PUSH1 0x40 DUP6 ADD CALLDATALOAD PUSH8 0xFFFFFFFFFFFFFFFF DUP2 GT ISZERO PUSH2 0x6B38 JUMPI PUSH2 0x6B37 PUSH2 0x53E2 JUMP JUMPDEST JUMPDEST PUSH2 0x6B44 DUP8 DUP3 DUP9 ADD PUSH2 0x69D0 JUMP JUMPDEST SWAP3 POP POP PUSH1 0x60 PUSH2 0x6B55 DUP8 DUP3 DUP9 ADD PUSH2 0x6AAD JUMP JUMPDEST SWAP2 POP POP SWAP3 SWAP6 SWAP2 SWAP5 POP SWAP3 POP JUMP JUMPDEST PUSH1 0x0 DUP3 DUP3 MSTORE PUSH1 0x20 DUP3 ADD SWAP1 POP SWAP3 SWAP2 POP POP JUMP JUMPDEST PUSH32 0x5175697A20646F6573206E6F7420657869737400000000000000000000000000 PUSH1 0x0 DUP3 ADD MSTORE POP JUMP JUMPDEST PUSH1 0x0 PUSH2 0x6BA8 PUSH1 0x13 DUP4 PUSH2 0x6B61 JUMP JUMPDEST SWAP2 POP PUSH2 0x6BB3 DUP3 PUSH2 0x6B72 JUMP JUMPDEST PUSH1 0x20 DUP3 ADD SWAP1 POP SWAP2 SWAP1 POP JUMP JUMPDEST PUSH1 0x0 PUSH1 0x20 DUP3 ADD SWAP1 POP DUP2 DUP2 SUB PUSH1 0x0 DUP4 ADD MSTORE PUSH2 0x6BD7 DUP2 PUSH2 0x6B9B JUMP JUMPDEST SWAP1 POP SWAP2 SWAP1 POP JUMP JUMPDEST PUSH32 0x4E487B7100000000000000000000000000000000000000000000000000000000 PUSH1 0x0 MSTORE PUSH1 0x32 PUSH1 0x4 MSTORE PUSH1 0x24 PUSH1 0x0 REVERT JUMPDEST PUSH32 0x5175697A20616C726561647920636F6D706C6574656400000000000000000000 PUSH1 0x0 DUP3 ADD MSTORE POP JUMP JUMPDEST PUSH1 0x0 PUSH2 0x6C43 PUSH1 0x16 DUP4 PUSH2 0x6B61 JUMP JUMPDEST SWAP2 POP PUSH2 0x6C4E DUP3 PUSH2 0x6C0D JUMP JUMPDEST PUSH1 0x20 DUP3 ADD SWAP1 POP SWAP2 SWAP1 POP JUMP JUMPDEST PUSH1 0x0 PUSH1 0x20 DUP3 ADD SWAP1 POP DUP2 DUP2 SUB PUSH1 0x0 DUP4 ADD MSTORE PUSH2 0x6C72 DUP2 PUSH2 0x6C36 JUMP JUMPDEST SWAP1 POP SWAP2 SWAP1 POP JUMP JUMPDEST PUSH32 0x4E6F7420656E726F6C6C65642100000000000000000000000000000000000000 PUSH1 0x0 DUP3 ADD MSTORE POP JUMP JUMPDEST PUSH1 0x0 PUSH2 0x6CAF PUSH1 0xD DUP4 PUSH2 0x6B61 JUMP JUMPDEST SWAP2 POP PUSH2 0x6CBA DUP3 PUSH2 0x6C79 JUMP JUMPDEST PUSH1 0x20 DUP3 ADD SWAP1 POP SWAP2 SWAP1 POP JUMP JUMPDEST PUSH1 0x0 PUSH1 0x20 DUP3 ADD SWAP1 POP DUP2 DUP2 SUB PUSH1 0x0 DUP4 ADD MSTORE PUSH2 0x6CDE DUP2 PUSH2 0x6CA2 JUMP JUMPDEST SWAP1 POP SWAP2 SWAP1 POP JUMP JUMPDEST PUSH32 0x4C6573736F6E20646F6573206E6F742065786973740000000000000000000000 PUSH1 0x0 DUP3 ADD MSTORE POP JUMP JUMPDEST PUSH1 0x0 PUSH2 0x6D1B PUSH1 0x15 DUP4 PUSH2 0x6B61 JUMP JUMPDEST SWAP2 POP PUSH2 0x6D26 DUP3 PUSH2 0x6CE5 JUMP JUMPDEST PUSH1 0x20 DUP3 ADD SWAP1 POP SWAP2 SWAP1 POP JUMP JUMPDEST PUSH1 0x0 PUSH1 0x20 DUP3 ADD SWAP1 POP DUP2 DUP2 SUB PUSH1 0x0 DUP4 ADD MSTORE PUSH2 0x6D4A DUP2 PUSH2 0x6D0E JUMP JUMPDEST SWAP1 POP SWAP2 SWAP1 POP JUMP JUMPDEST PUSH32 0x4E487B7100000000000000000000000000000000000000000000000000000000 PUSH1 0x0 MSTORE PUSH1 0x22 PUSH1 0x4 MSTORE PUSH1 0x24 PUSH1 0x0 REVERT JUMPDEST PUSH1 0x0 PUSH1 0x2 DUP3 DIV SWAP1 POP PUSH1 0x1 DUP3 AND DUP1 PUSH2 0x6D98 JUMPI PUSH1 0x7F DUP3 AND SWAP2 POP JUMPDEST PUSH1 0x20 DUP3 LT DUP2 SUB PUSH2 0x6DAB JUMPI PUSH2 0x6DAA PUSH2 0x6D51 JUMP JUMPDEST JUMPDEST POP SWAP2 SWAP1 POP JUMP JUMPDEST PUSH1 0x0 DUP2 SWAP1 POP DUP2 PUSH1 0x0 MSTORE PUSH1 0x20 PUSH1 0x0 KECCAK256 SWAP1 POP SWAP2 SWAP1 POP JUMP JUMPDEST PUSH1 0x0 PUSH1 0x20 PUSH1 0x1F DUP4 ADD DIV SWAP1 POP SWAP2 SWAP1 POP JUMP JUMPDEST PUSH1 0x0 DUP3 DUP3 SHL SWAP1 POP SWAP3 SWAP2 POP POP JUMP JUMPDEST PUSH1 0x0 PUSH1 0x8 DUP4 MUL PUSH2 0x6E13 PUSH32 0xFFFFFFFFFFFFFFFFFFFFFFFFFFFFFFFFFFFFFFFFFFFFFFFFFFFFFFFFFFFFFFFF DUP3 PUSH2 0x6DD6 JUMP JUMPDEST PUSH2 0x6E1D DUP7 DUP4 PUSH2 0x6DD6 JUMP JUMPDEST SWAP6 POP DUP1 NOT DUP5 AND SWAP4 POP DUP1 DUP7 AND DUP5 OR SWAP3 POP POP POP SWAP4 SWAP3 POP POP POP JUMP JUMPDEST PUSH1 0x0 DUP2 SWAP1 POP SWAP2 SWAP1 POP JUMP JUMPDEST PUSH1 0x0 PUSH2 0x6E5A PUSH2 0x6E55 PUSH2 0x6E50 DUP5 PUSH2 0x54A2 JUMP JUMPDEST PUSH2 0x6E35 JUMP JUMPDEST PUSH2 0x54A2 JUMP JUMPDEST SWAP1 POP SWAP2 SWAP1 POP JUMP JUMPDEST PUSH1 0x0 DUP2 SWAP1 POP SWAP2 SWAP1 POP JUMP JUMPDEST PUSH2 0x6E74 DUP4 PUSH2 0x6E3F JUMP JUMPDEST PUSH2 0x6E88 PUSH2 0x6E80 DUP3 PUSH2 0x6E61 JUMP JUMPDEST DUP5 DUP5 SLOAD PUSH2 0x6DE3 JUMP JUMPDEST DUP3 SSTORE POP POP POP POP JUMP JUMPDEST PUSH1 0x0 SWAP1 JUMP JUMPDEST PUSH2 0x6E9D PUSH2 0x6E90 JUMP JUMPDEST PUSH2 0x6EA8 DUP2 DUP5 DUP5 PUSH2 0x6E6B JUMP JUMPDEST POP POP POP JUMP JUMPDEST JUMPDEST DUP2 DUP2 LT ISZERO PUSH2 0x6ECC JUMPI PUSH2 0x6EC1 PUSH1 0x0 DUP3 PUSH2 0x6E95 JUMP JUMPDEST PUSH1 0x1 DUP2 ADD SWAP1 POP PUSH2 0x6EAE JUMP JUMPDEST POP POP JUMP JUMPDEST PUSH1 0x1F DUP3 GT ISZERO PUSH2 0x6F11 JUMPI PUSH2 0x6EE2 DUP2 PUSH2 0x6DB1 JUMP JUMPDEST PUSH2 0x6EEB DUP5 PUSH2 0x6DC6 JUMP JUMPDEST DUP2 ADD PUSH1 0x20 DUP6 LT ISZERO PUSH2 0x6EFA JUMPI DUP2 SWAP1 POP JUMPDEST PUSH2 0x6F0E PUSH2 0x6F06 DUP6 PUSH2 0x6DC6 JUMP JUMPDEST DUP4 ADD DUP3 PUSH2 0x6EAD JUMP JUMPDEST POP POP JUMPDEST POP POP POP JUMP JUMPDEST PUSH1 0x0 DUP3 DUP3 SHR SWAP1 POP SWAP3 SWAP2 POP POP JUMP JUMPDEST PUSH1 0x0 PUSH2 0x6F34 PUSH1 0x0 NOT DUP5 PUSH1 0x8 MUL PUSH2 0x6F16 JUMP JUMPDEST NOT DUP1 DUP4 AND SWAP2 POP POP SWAP3 SWAP2 POP POP JUMP JUMPDEST PUSH1 0x0 PUSH2 0x6F4D DUP4 DUP4 PUSH2 0x6F23 JUMP JUMPDEST SWAP2 POP DUP3 PUSH1 0x2 MUL DUP3 OR SWAP1 POP SWAP3 SWAP2 POP POP JUMP JUMPDEST PUSH2 0x6F66 DUP3 PUSH2 0x5C07 JUMP JUMPDEST PUSH8 0xFFFFFFFFFFFFFFFF DUP2 GT ISZERO PUSH2 0x6F7F JUMPI PUSH2 0x6F7E PUSH2 0x568B JUMP JUMPDEST JUMPDEST PUSH2 0x6F89 DUP3 SLOAD PUSH2 0x6D80 JUMP JUMPDEST PUSH2 0x6F94 DUP3 DUP3 DUP6 PUSH2 0x6ED0 JUMP JUMPDEST PUSH1 0x0 PUSH1 0x20 SWAP1 POP PUSH1 0x1F DUP4 GT PUSH1 0x1 DUP2 EQ PUSH2 0x6FC7 JUMPI PUSH1 0x0 DUP5 ISZERO PUSH2 0x6FB5 JUMPI DUP3 DUP8 ADD MLOAD SWAP1 POP JUMPDEST PUSH2 0x6FBF DUP6 DUP3 PUSH2 0x6F41 JUMP JUMPDEST DUP7 SSTORE POP PUSH2 0x7027 JUMP JUMPDEST PUSH1 0x1F NOT DUP5 AND PUSH2 0x6FD5 DUP7 PUSH2 0x6DB1 JUMP JUMPDEST PUSH1 0x0 JUMPDEST DUP3 DUP2 LT ISZERO PUSH2 0x6FFD JUMPI DUP5 DUP10 ADD MLOAD DUP3 SSTORE PUSH1 0x1 DUP3 ADD SWAP2 POP PUSH1 0x20 DUP6 ADD SWAP5 POP PUSH1 0x20 DUP2 ADD SWAP1 POP PUSH2 0x6FD8 JUMP JUMPDEST DUP7 DUP4 LT ISZERO PUSH2 0x701A JUMPI DUP5 DUP10 ADD MLOAD PUSH2 0x7016 PUSH1 0x1F DUP10 AND DUP3 PUSH2 0x6F23 JUMP JUMPDEST DUP4 SSTORE POP JUMPDEST PUSH1 0x1 PUSH1 0x2 DUP9 MUL ADD DUP9 SSTORE POP POP POP JUMPDEST POP POP POP POP POP POP JUMP JUMPDEST PUSH32 0x45786365656473206D6178696D756D20616C6C6F776564000000000000000000 PUSH1 0x0 DUP3 ADD MSTORE POP JUMP JUMPDEST PUSH1 0x0 PUSH2 0x7065 PUSH1 0x17 DUP4 PUSH2 0x6B61 JUMP JUMPDEST SWAP2 POP PUSH2 0x7070 DUP3 PUSH2 0x702F JUMP JUMPDEST PUSH1 0x20 DUP3 ADD SWAP1 POP SWAP2 SWAP1 POP JUMP JUMPDEST PUSH1 0x0 PUSH1 0x20 DUP3 ADD SWAP1 POP DUP2 DUP2 SUB PUSH1 0x0 DUP4 ADD MSTORE PUSH2 0x7094 DUP2 PUSH2 0x7058 JUMP JUMPDEST SWAP1 POP SWAP2 SWAP1 POP JUMP JUMPDEST PUSH1 0x0 PUSH2 0x70A6 DUP3 PUSH2 0x5C07 JUMP JUMPDEST PUSH2 0x70B0 DUP2 DUP6 PUSH2 0x6B61 JUMP JUMPDEST SWAP4 POP PUSH2 0x70C0 DUP2 DUP6 PUSH1 0x20 DUP7 ADD PUSH2 0x5C23 JUMP JUMPDEST PUSH2 0x70C9 DUP2 PUSH2 0x567A JUMP JUMPDEST DUP5 ADD SWAP2 POP POP SWAP3 SWAP2 POP POP JUMP JUMPDEST PUSH1 0x0 PUSH1 0x20 DUP3 ADD SWAP1 POP DUP2 DUP2 SUB PUSH1 0x0 DUP4 ADD MSTORE PUSH2 0x70EE DUP2 DUP5 PUSH2 0x709B JUMP JUMPDEST SWAP1 POP SWAP3 SWAP2 POP POP JUMP JUMPDEST PUSH32 0x5155697A20646F6573206E6F7420657869737400000000000000000000000000 PUSH1 0x0 DUP3 ADD MSTORE POP JUMP JUMPDEST PUSH1 0x0 PUSH2 0x712C PUSH1 0x13 DUP4 PUSH2 0x6B61 JUMP JUMPDEST SWAP2 POP PUSH2 0x7137 DUP3 PUSH2 0x70F6 JUMP JUMPDEST PUSH1 0x20 DUP3 ADD SWAP1 POP SWAP2 SWAP1 POP JUMP JUMPDEST PUSH1 0x0 PUSH1 0x20 DUP3 ADD SWAP1 POP DUP2 DUP2 SUB PUSH1 0x0 DUP4 ADD MSTORE PUSH2 0x715B DUP2 PUSH2 0x711F JUMP JUMPDEST SWAP1 POP SWAP2 SWAP1 POP JUMP JUMPDEST PUSH32 0x4E6F74206578616374207175697A000000000000000000000000000000000000 PUSH1 0x0 DUP3 ADD MSTORE POP JUMP JUMPDEST PUSH1 0x0 PUSH2 0x7198 PUSH1 0xE DUP4 PUSH2 0x6B61 JUMP JUMPDEST SWAP2 POP PUSH2 0x71A3 DUP3 PUSH2 0x7162 JUMP JUMPDEST PUSH1 0x20 DUP3 ADD SWAP1 POP SWAP2 SWAP1 POP JUMP JUMPDEST PUSH1 0x0 PUSH1 0x20 DUP3 ADD SWAP1 POP DUP2 DUP2 SUB PUSH1 0x0 DUP4 ADD MSTORE PUSH2 0x71C7 DUP2 PUSH2 0x718B JUMP JUMPDEST SWAP1 POP SWAP2 SWAP1 POP JUMP JUMPDEST PUSH1 0x0 PUSH1 0x40 DUP3 ADD SWAP1 POP PUSH2 0x71E3 PUSH1 0x0 DUP4 ADD DUP6 PUSH2 0x5BB1 JUMP JUMPDEST PUSH2 0x71F0 PUSH1 0x20 DUP4 ADD DUP5 PUSH2 0x5BB1 JUMP JUMPDEST SWAP4 SWAP3 POP POP POP JUMP JUMPDEST PUSH32 0x4C6573736F6E20446F6573206E6F742065786973742100000000000000000000 PUSH1 0x0 DUP3 ADD MSTORE POP JUMP JUMPDEST PUSH1 0x0 PUSH2 0x722D PUSH1 0x16 DUP4 PUSH2 0x6B61 JUMP JUMPDEST SWAP2 POP PUSH2 0x7238 DUP3 PUSH2 0x71F7 JUMP JUMPDEST PUSH1 0x20 DUP3 ADD SWAP1 POP SWAP2 SWAP1 POP JUMP JUMPDEST PUSH1 0x0 PUSH1 0x20 DUP3 ADD SWAP1 POP DUP2 DUP2 SUB PUSH1 0x0 DUP4 ADD MSTORE PUSH2 0x725C DUP2 PUSH2 0x7220 JUMP JUMPDEST SWAP1 POP SWAP2 SWAP1 POP JUMP JUMPDEST PUSH32 0x4E487B7100000000000000000000000000000000000000000000000000000000 PUSH1 0x0 MSTORE PUSH1 0x11 PUSH1 0x4 MSTORE PUSH1 0x24 PUSH1 0x0 REVERT JUMPDEST PUSH1 0x0 PUSH2 0x729D DUP3 PUSH2 0x54A2 JUMP JUMPDEST SWAP2 POP PUSH32 0xFFFFFFFFFFFFFFFFFFFFFFFFFFFFFFFFFFFFFFFFFFFFFFFFFFFFFFFFFFFFFFFF DUP3 SUB PUSH2 0x72CF JUMPI PUSH2 0x72CE PUSH2 0x7263 JUMP JUMPDEST JUMPDEST PUSH1 0x1 DUP3 ADD SWAP1 POP SWAP2 SWAP1 POP JUMP JUMPDEST PUSH1 0x0 DUP2 SLOAD SWAP1 POP PUSH2 0x72E9 DUP2 PUSH2 0x6D80 JUMP JUMPDEST SWAP1 POP SWAP2 SWAP1 POP JUMP JUMPDEST DUP2 DUP2 SUB PUSH2 0x72FE JUMPI POP POP PUSH2 0x73D6 JUMP JUMPDEST PUSH2 0x7307 DUP3 PUSH2 0x72DA JUMP JUMPDEST PUSH8 0xFFFFFFFFFFFFFFFF DUP2 GT ISZERO PUSH2 0x7320 JUMPI PUSH2 0x731F PUSH2 0x568B JUMP JUMPDEST JUMPDEST PUSH2 0x732A DUP3 SLOAD PUSH2 0x6D80 JUMP JUMPDEST PUSH2 0x7335 DUP3 DUP3 DUP6 PUSH2 0x6ED0 JUMP JUMPDEST PUSH1 0x0 PUSH1 0x1F DUP4 GT PUSH1 0x1 DUP2 EQ PUSH2 0x7364 JUMPI PUSH1 0x0 DUP5 ISZERO PUSH2 0x7352 JUMPI DUP3 DUP8 ADD SLOAD SWAP1 POP JUMPDEST PUSH2 0x735C DUP6 DUP3 PUSH2 0x6F41 JUMP JUMPDEST DUP7 SSTORE POP PUSH2 0x73CF JUMP JUMPDEST PUSH1 0x1F NOT DUP5 AND PUSH2 0x7372 DUP8 PUSH2 0x6DB1 JUMP JUMPDEST SWAP7 POP PUSH2 0x737D DUP7 PUSH2 0x6DB1 JUMP JUMPDEST PUSH1 0x0 JUMPDEST DUP3 DUP2 LT ISZERO PUSH2 0x73A5 JUMPI DUP5 DUP10 ADD SLOAD DUP3 SSTORE PUSH1 0x1 DUP3 ADD SWAP2 POP PUSH1 0x1 DUP6 ADD SWAP5 POP PUSH1 0x20 DUP2 ADD SWAP1 POP PUSH2 0x7380 JUMP JUMPDEST DUP7 DUP4 LT ISZERO PUSH2 0x73C2 JUMPI DUP5 DUP10 ADD SLOAD PUSH2 0x73BE PUSH1 0x1F DUP10 AND DUP3 PUSH2 0x6F23 JUMP JUMPDEST DUP4 SSTORE POP JUMPDEST PUSH1 0x1 PUSH1 0x2 DUP9 MUL ADD DUP9 SSTORE POP POP POP JUMPDEST POP POP POP POP POP POP JUMPDEST JUMP JUMPDEST PUSH1 0x0 DUP2 SWAP1 POP SWAP3 SWAP2 POP POP JUMP JUMPDEST PUSH1 0x0 PUSH2 0x73EE DUP3 PUSH2 0x5C07 JUMP JUMPDEST PUSH2 0x73F8 DUP2 DUP6 PUSH2 0x73D8 JUMP JUMPDEST SWAP4 POP PUSH2 0x7408 DUP2 DUP6 PUSH1 0x20 DUP7 ADD PUSH2 0x5C23 JUMP JUMPDEST DUP1 DUP5 ADD SWAP2 POP POP SWAP3 SWAP2 POP POP JUMP JUMPDEST PUSH1 0x0 PUSH2 0x7420 DUP3 DUP5 PUSH2 0x73E3 JUMP JUMPDEST SWAP2 POP DUP2 SWAP1 POP SWAP3 SWAP2 POP POP JUMP JUMPDEST PUSH32 0x4368617074657220646F6573206E6F7420657869737421000000000000000000 PUSH1 0x0 DUP3 ADD MSTORE POP JUMP JUMPDEST PUSH1 0x0 PUSH2 0x7461 PUSH1 0x17 DUP4 PUSH2 0x6B61 JUMP JUMPDEST SWAP2 POP PUSH2 0x746C DUP3 PUSH2 0x742B JUMP JUMPDEST PUSH1 0x20 DUP3 ADD SWAP1 POP SWAP2 SWAP1 POP JUMP JUMPDEST PUSH1 0x0 PUSH1 0x20 DUP3 ADD SWAP1 POP DUP2 DUP2 SUB PUSH1 0x0 DUP4 ADD MSTORE PUSH2 0x7490 DUP2 PUSH2 0x7454 JUMP JUMPDEST SWAP1 POP SWAP2 SWAP1 POP JUMP JUMPDEST PUSH32 0x5175657374696F6E206E6F7420666F756E6420696E2074686973207175697A00 PUSH1 0x0 DUP3 ADD MSTORE POP JUMP JUMPDEST PUSH1 0x0 PUSH2 0x74CD PUSH1 0x1F DUP4 PUSH2 0x6B61 JUMP JUMPDEST SWAP2 POP PUSH2 0x74D8 DUP3 PUSH2 0x7497 JUMP JUMPDEST PUSH1 0x20 DUP3 ADD SWAP1 POP SWAP2 SWAP1 POP JUMP JUMPDEST PUSH1 0x0 PUSH1 0x20 DUP3 ADD SWAP1 POP DUP2 DUP2 SUB PUSH1 0x0 DUP4 ADD MSTORE PUSH2 0x74FC DUP2 PUSH2 0x74C0 JUMP JUMPDEST SWAP1 POP SWAP2 SWAP1 POP JUMP JUMPDEST PUSH1 0x0 PUSH2 0x750E DUP3 PUSH2 0x54A2 JUMP JUMPDEST SWAP2 POP PUSH2 0x7519 DUP4 PUSH2 0x54A2 JUMP JUMPDEST SWAP3 POP DUP3 DUP3 SUB SWAP1 POP DUP2 DUP2 GT ISZERO PUSH2 0x7531 JUMPI PUSH2 0x7530 PUSH2 0x7263 JUMP JUMPDEST JUMPDEST SWAP3 SWAP2 POP POP JUMP JUMPDEST PUSH32 0x4E487B7100000000000000000000000000000000000000000000000000000000 PUSH1 0x0 MSTORE PUSH1 0x31 PUSH1 0x4 MSTORE PUSH1 0x24 PUSH1 0x0 REVERT JUMPDEST PUSH32 0x4368617074657220646F65736E27742065786973740000000000000000000000 PUSH1 0x0 DUP3 ADD MSTORE POP JUMP JUMPDEST PUSH1 0x0 PUSH2 0x759C PUSH1 0x15 DUP4 PUSH2 0x6B61 JUMP JUMPDEST SWAP2 POP PUSH2 0x75A7 DUP3 PUSH2 0x7566 JUMP JUMPDEST PUSH1 0x20 DUP3 ADD SWAP1 POP SWAP2 SWAP1 POP JUMP JUMPDEST PUSH1 0x0 PUSH1 0x20 DUP3 ADD SWAP1 POP DUP2 DUP2 SUB PUSH1 0x0 DUP4 ADD MSTORE PUSH2 0x75CB DUP2 PUSH2 0x758F JUMP JUMPDEST SWAP1 POP SWAP2 SWAP1 POP JUMP JUMPDEST PUSH32 0x4C6573736F6E20646F65736E2774206578697374000000000000000000000000 PUSH1 0x0 DUP3 ADD MSTORE POP JUMP JUMPDEST PUSH1 0x0 PUSH2 0x7608 PUSH1 0x14 DUP4 PUSH2 0x6B61 JUMP JUMPDEST SWAP2 POP PUSH2 0x7613 DUP3 PUSH2 0x75D2 JUMP JUMPDEST PUSH1 0x20 DUP3 ADD SWAP1 POP SWAP2 SWAP1 POP JUMP JUMPDEST PUSH1 0x0 PUSH1 0x20 DUP3 ADD SWAP1 POP DUP2 DUP2 SUB PUSH1 0x0 DUP4 ADD MSTORE PUSH2 0x7637 DUP2 PUSH2 0x75FB JUMP JUMPDEST SWAP1 POP SWAP2 SWAP1 POP JUMP JUMPDEST PUSH32 0x4C6573736F6E20646F6573206E6F742065786973742100000000000000000000 PUSH1 0x0 DUP3 ADD MSTORE POP JUMP JUMPDEST PUSH1 0x0 PUSH2 0x7674 PUSH1 0x16 DUP4 PUSH2 0x6B61 JUMP JUMPDEST SWAP2 POP PUSH2 0x767F DUP3 PUSH2 0x763E JUMP JUMPDEST PUSH1 0x20 DUP3 ADD SWAP1 POP SWAP2 SWAP1 POP JUMP JUMPDEST PUSH1 0x0 PUSH1 0x20 DUP3 ADD SWAP1 POP DUP2 DUP2 SUB PUSH1 0x0 DUP4 ADD MSTORE PUSH2 0x76A3 DUP2 PUSH2 0x7667 JUMP JUMPDEST SWAP1 POP SWAP2 SWAP1 POP JUMP JUMPDEST PUSH1 0x0 PUSH2 0x76B5 DUP3 PUSH2 0x54A2 JUMP JUMPDEST SWAP2 POP PUSH2 0x76C0 DUP4 PUSH2 0x54A2 JUMP JUMPDEST SWAP3 POP DUP3 DUP3 ADD SWAP1 POP DUP1 DUP3 GT ISZERO PUSH2 0x76D8 JUMPI PUSH2 0x76D7 PUSH2 0x7263 JUMP JUMPDEST JUMPDEST SWAP3 SWAP2 POP POP JUMP JUMPDEST PUSH32 0x45786365656473206D6178696D756D207265736F757263657321000000000000 PUSH1 0x0 DUP3 ADD MSTORE POP JUMP JUMPDEST PUSH1 0x0 PUSH2 0x7714 PUSH1 0x1A DUP4 PUSH2 0x6B61 JUMP JUMPDEST SWAP2 POP PUSH2 0x771F DUP3 PUSH2 0x76DE JUMP JUMPDEST PUSH1 0x20 DUP3 ADD SWAP1 POP SWAP2 SWAP1 POP JUMP JUMPDEST PUSH1 0x0 PUSH1 0x20 DUP3 ADD SWAP1 POP DUP2 DUP2 SUB PUSH1 0x0 DUP4 ADD MSTORE PUSH2 0x7743 DUP2 PUSH2 0x7707 JUMP JUMPDEST SWAP1 POP SWAP2 SWAP1 POP JUMP JUMPDEST PUSH1 0x0 DUP1 REVERT JUMPDEST PUSH1 0x0 DUP1 REVERT JUMPDEST PUSH1 0x0 DUP1 REVERT JUMPDEST PUSH1 0x0 DUP3 CALLDATALOAD PUSH1 0x1 PUSH1 0x60 SUB DUP4 CALLDATASIZE SUB SUB DUP2 SLT PUSH2 0x7775 JUMPI PUSH2 0x7774 PUSH2 0x774A JUMP JUMPDEST JUMPDEST DUP1 DUP4 ADD SWAP2 POP POP SWAP3 SWAP2 POP POP JUMP JUMPDEST PUSH1 0x0 PUSH1 0x20 DUP3 DUP5 SUB SLT ISZERO PUSH2 0x7797 JUMPI PUSH2 0x7796 PUSH2 0x53DD JUMP JUMPDEST JUMPDEST PUSH1 0x0 PUSH2 0x77A5 DUP5 DUP3 DUP6 ADD PUSH2 0x5801 JUMP JUMPDEST SWAP2 POP POP SWAP3 SWAP2 POP POP JUMP JUMPDEST PUSH1 0x0 DUP1 DUP4 CALLDATALOAD PUSH1 0x1 PUSH1 0x20 SUB DUP5 CALLDATASIZE SUB SUB DUP2 SLT PUSH2 0x77CB JUMPI PUSH2 0x77CA PUSH2 0x774A JUMP JUMPDEST JUMPDEST DUP1 DUP5 ADD SWAP3 POP DUP3 CALLDATALOAD SWAP2 POP PUSH8 0xFFFFFFFFFFFFFFFF DUP3 GT ISZERO PUSH2 0x77ED JUMPI PUSH2 0x77EC PUSH2 0x774F JUMP JUMPDEST JUMPDEST PUSH1 0x20 DUP4 ADD SWAP3 POP PUSH1 0x1 DUP3 MUL CALLDATASIZE SUB DUP4 SGT ISZERO PUSH2 0x7809 JUMPI PUSH2 0x7808 PUSH2 0x7754 JUMP JUMPDEST JUMPDEST POP SWAP3 POP SWAP3 SWAP1 POP JUMP JUMPDEST PUSH32 0x416C7265616479206D61726B6564000000000000000000000000000000000000 PUSH1 0x0 DUP3 ADD MSTORE POP JUMP JUMPDEST PUSH1 0x0 PUSH2 0x7847 PUSH1 0xE DUP4 PUSH2 0x6B61 JUMP JUMPDEST SWAP2 POP PUSH2 0x7852 DUP3 PUSH2 0x7811 JUMP JUMPDEST PUSH1 0x20 DUP3 ADD SWAP1 POP SWAP2 SWAP1 POP JUMP JUMPDEST PUSH1 0x0 PUSH1 0x20 DUP3 ADD SWAP1 POP DUP2 DUP2 SUB PUSH1 0x0 DUP4 ADD MSTORE PUSH2 0x7876 DUP2 PUSH2 0x783A JUMP JUMPDEST SWAP1 POP SWAP2 SWAP1 POP JUMP JUMPDEST PUSH2 0x7886 DUP2 PUSH2 0x55F2 JUMP JUMPDEST DUP3 MSTORE POP POP JUMP JUMPDEST PUSH1 0x0 PUSH1 0x20 DUP3 ADD SWAP1 POP PUSH2 0x78A1 PUSH1 0x0 DUP4 ADD DUP5 PUSH2 0x787D JUMP JUMPDEST SWAP3 SWAP2 POP POP JUMP JUMPDEST PUSH32 0x436F7572736520646F6573206E6F742065786973742100000000000000000000 PUSH1 0x0 DUP3 ADD MSTORE POP JUMP JUMPDEST PUSH1 0x0 PUSH2 0x78DD PUSH1 0x16 DUP4 PUSH2 0x6B61 JUMP JUMPDEST SWAP2 POP PUSH2 0x78E8 DUP3 PUSH2 0x78A7 JUMP JUMPDEST PUSH1 0x20 DUP3 ADD SWAP1 POP SWAP2 SWAP1 POP JUMP JUMPDEST PUSH1 0x0 PUSH1 0x20 DUP3 ADD SWAP1 POP DUP2 DUP2 SUB PUSH1 0x0 DUP4 ADD MSTORE PUSH2 0x790C DUP2 PUSH2 0x78D0 JUMP JUMPDEST SWAP1 POP SWAP2 SWAP1 POP JUMP JUMPDEST PUSH32 0x496E76616C6964206E756D626572206F662063686F6963657300000000000000 PUSH1 0x0 DUP3 ADD MSTORE POP JUMP JUMPDEST PUSH1 0x0 PUSH2 0x7949 PUSH1 0x19 DUP4 PUSH2 0x6B61 JUMP JUMPDEST SWAP2 POP PUSH2 0x7954 DUP3 PUSH2 0x7913 JUMP JUMPDEST PUSH1 0x20 DUP3 ADD SWAP1 POP SWAP2 SWAP1 POP JUMP JUMPDEST PUSH1 0x0 PUSH1 0x20 DUP3 ADD SWAP1 POP DUP2 DUP2 SUB PUSH1 0x0 DUP4 ADD MSTORE PUSH2 0x7978 DUP2 PUSH2 0x793C JUMP JUMPDEST SWAP1 POP SWAP2 SWAP1 POP JUMP JUMPDEST PUSH32 0x496E76616C696420636F72726563742063686F69636520696E64657800000000 PUSH1 0x0 DUP3 ADD MSTORE POP JUMP JUMPDEST PUSH1 0x0 PUSH2 0x79B5 PUSH1 0x1C DUP4 PUSH2 0x6B61 JUMP JUMPDEST SWAP2 POP PUSH2 0x79C0 DUP3 PUSH2 0x797F JUMP JUMPDEST PUSH1 0x20 DUP3 ADD SWAP1 POP SWAP2 SWAP1 POP JUMP JUMPDEST PUSH1 0x0 PUSH1 0x20 DUP3 ADD SWAP1 POP DUP2 DUP2 SUB PUSH1 0x0 DUP4 ADD MSTORE PUSH2 0x79E4 DUP2 PUSH2 0x79A8 JUMP JUMPDEST SWAP1 POP SWAP2 SWAP1 POP JUMP JUMPDEST PUSH1 0x0 PUSH2 0x79F6 DUP3 PUSH2 0x6A89 JUMP JUMPDEST SWAP2 POP PUSH1 0xFF DUP3 SUB PUSH2 0x7A09 JUMPI PUSH2 0x7A08 PUSH2 0x7263 JUMP JUMPDEST JUMPDEST PUSH1 0x1 DUP3 ADD SWAP1 POP SWAP2 SWAP1 POP JUMP JUMPDEST PUSH1 0x0 PUSH1 0x60 DUP3 ADD SWAP1 POP PUSH2 0x7A29 PUSH1 0x0 DUP4 ADD DUP7 PUSH2 0x5BB1 JUMP JUMPDEST PUSH2 0x7A36 PUSH1 0x20 DUP4 ADD DUP6 PUSH2 0x5BB1 JUMP JUMPDEST DUP2 DUP2 SUB PUSH1 0x40 DUP4 ADD MSTORE PUSH2 0x7A48 DUP2 DUP5 PUSH2 0x709B JUMP JUMPDEST SWAP1 POP SWAP5 SWAP4 POP POP POP POP JUMP JUMPDEST PUSH32 0x436F7572736520646F65736E2774206578697374000000000000000000000000 PUSH1 0x0 DUP3 ADD MSTORE POP JUMP JUMPDEST PUSH1 0x0 PUSH2 0x7A88 PUSH1 0x14 DUP4 PUSH2 0x6B61 JUMP JUMPDEST SWAP2 POP PUSH2 0x7A93 DUP3 PUSH2 0x7A52 JUMP JUMPDEST PUSH1 0x20 DUP3 ADD SWAP1 POP SWAP2 SWAP1 POP JUMP JUMPDEST PUSH1 0x0 PUSH1 0x20 DUP3 ADD SWAP1 POP DUP2 DUP2 SUB PUSH1 0x0 DUP4 ADD MSTORE PUSH2 0x7AB7 DUP2 PUSH2 0x7A7B JUMP JUMPDEST SWAP1 POP SWAP2 SWAP1 POP JUMP JUMPDEST PUSH32 0x4368617074657220646F65736E2774206E6F7420657869737400000000000000 PUSH1 0x0 DUP3 ADD MSTORE POP JUMP JUMPDEST PUSH1 0x0 PUSH2 0x7AF4 PUSH1 0x19 DUP4 PUSH2 0x6B61 JUMP JUMPDEST SWAP2 POP PUSH2 0x7AFF DUP3 PUSH2 0x7ABE JUMP JUMPDEST PUSH1 0x20 DUP3 ADD SWAP1 POP SWAP2 SWAP1 POP JUMP JUMPDEST PUSH1 0x0 PUSH1 0x20 DUP3 ADD SWAP1 POP DUP2 DUP2 SUB PUSH1 0x0 DUP4 ADD MSTORE PUSH2 0x7B23 DUP2 PUSH2 0x7AE7 JUMP JUMPDEST SWAP1 POP SWAP2 SWAP1 POP JUMP JUMPDEST PUSH32 0x5175697A20646F65736E27742065786973740000000000000000000000000000 PUSH1 0x0 DUP3 ADD MSTORE POP JUMP JUMPDEST PUSH1 0x0 PUSH2 0x7B60 PUSH1 0x12 DUP4 PUSH2 0x6B61 JUMP JUMPDEST SWAP2 POP PUSH2 0x7B6B DUP3 PUSH2 0x7B2A JUMP JUMPDEST PUSH1 0x20 DUP3 ADD SWAP1 POP SWAP2 SWAP1 POP JUMP JUMPDEST PUSH1 0x0 PUSH1 0x20 DUP3 ADD SWAP1 POP DUP2 DUP2 SUB PUSH1 0x0 DUP4 ADD MSTORE PUSH2 0x7B8F DUP2 PUSH2 0x7B53 JUMP JUMPDEST SWAP1 POP SWAP2 SWAP1 POP JUMP JUMPDEST PUSH32 0x436F75727365206E6F742079657420617070726F766564210000000000000000 PUSH1 0x0 DUP3 ADD MSTORE POP JUMP JUMPDEST PUSH1 0x0 PUSH2 0x7BCC PUSH1 0x18 DUP4 PUSH2 0x6B61 JUMP JUMPDEST SWAP2 POP PUSH2 0x7BD7 DUP3 PUSH2 0x7B96 JUMP JUMPDEST PUSH1 0x20 DUP3 ADD SWAP1 POP SWAP2 SWAP1 POP JUMP JUMPDEST PUSH1 0x0 PUSH1 0x20 DUP3 ADD SWAP1 POP DUP2 DUP2 SUB PUSH1 0x0 DUP4 ADD MSTORE PUSH2 0x7BFB DUP2 PUSH2 0x7BBF JUMP JUMPDEST SWAP1 POP SWAP2 SWAP1 POP JUMP JUMPDEST PUSH32 0x416C726561647920656E726F6C6C656400000000000000000000000000000000 PUSH1 0x0 DUP3 ADD MSTORE POP JUMP JUMPDEST PUSH1 0x0 PUSH2 0x7C38 PUSH1 0x10 DUP4 PUSH2 0x6B61 JUMP JUMPDEST SWAP2 POP PUSH2 0x7C43 DUP3 PUSH2 0x7C02 JUMP JUMPDEST PUSH1 0x20 DUP3 ADD SWAP1 POP SWAP2 SWAP1 POP JUMP JUMPDEST PUSH1 0x0 PUSH1 0x20 DUP3 ADD SWAP1 POP DUP2 DUP2 SUB PUSH1 0x0 DUP4 ADD MSTORE PUSH2 0x7C67 DUP2 PUSH2 0x7C2B JUMP JUMPDEST SWAP1 POP SWAP2 SWAP1 POP JUMP JUMPDEST PUSH1 0x0 PUSH2 0x7C79 DUP3 PUSH2 0x54A2 JUMP JUMPDEST SWAP2 POP PUSH2 0x7C84 DUP4 PUSH2 0x54A2 JUMP JUMPDEST SWAP3 POP DUP3 DUP3 MUL PUSH2 0x7C92 DUP2 PUSH2 0x54A2 JUMP JUMPDEST SWAP2 POP DUP3 DUP3 DIV DUP5 EQ DUP4 ISZERO OR PUSH2 0x7CA9 JUMPI PUSH2 0x7CA8 PUSH2 0x7263 JUMP JUMPDEST JUMPDEST POP SWAP3 SWAP2 POP POP JUMP JUMPDEST PUSH32 0x4E487B7100000000000000000000000000000000000000000000000000000000 PUSH1 0x0 MSTORE PUSH1 0x12 PUSH1 0x4 MSTORE PUSH1 0x24 PUSH1 0x0 REVERT JUMPDEST PUSH1 0x0 PUSH2 0x7CEA DUP3 PUSH2 0x54A2 JUMP JUMPDEST SWAP2 POP PUSH2 0x7CF5 DUP4 PUSH2 0x54A2 JUMP JUMPDEST SWAP3 POP DUP3 PUSH2 0x7D05 JUMPI PUSH2 0x7D04 PUSH2 0x7CB0 JUMP JUMPDEST JUMPDEST DUP3 DUP3 DIV SWAP1 POP SWAP3 SWAP2 POP POP JUMP JUMPDEST PUSH32 0x4C696D6974204578636565646564210000000000000000000000000000000000 PUSH1 0x0 DUP3 ADD MSTORE POP JUMP JUMPDEST PUSH1 0x0 PUSH2 0x7D46 PUSH1 0xF DUP4 PUSH2 0x6B61 JUMP JUMPDEST SWAP2 POP PUSH2 0x7D51 DUP3 PUSH2 0x7D10 JUMP JUMPDEST PUSH1 0x20 DUP3 ADD SWAP1 POP SWAP2 SWAP1 POP JUMP JUMPDEST PUSH1 0x0 PUSH1 0x20 DUP3 ADD SWAP1 POP DUP2 DUP2 SUB PUSH1 0x0 DUP4 ADD MSTORE PUSH2 0x7D75 DUP2 PUSH2 0x7D39 JUMP JUMPDEST SWAP1 POP SWAP2 SWAP1 POP JUMP JUMPDEST PUSH1 0x0 PUSH1 0x40 DUP3 ADD SWAP1 POP PUSH2 0x7D91 PUSH1 0x0 DUP4 ADD DUP6 PUSH2 0x787D JUMP JUMPDEST PUSH2 0x7D9E PUSH1 0x20 DUP4 ADD DUP5 PUSH2 0x55A8 JUMP JUMPDEST SWAP4 SWAP3 POP POP POP JUMP INVALID LOG2 PUSH5 0x6970667358 0x22 SLT KECCAK256 DIV 0xE3 DELEGATECALL 0xD6 SWAP3 PUSH32 0x20C24BFF9F4EABE12E4E68D9D1F71108DEF14B2ABD817EC9A40064736F6C6343 STOP ADDMOD SHL STOP CALLER "},"methodIdentifiers":{"DEFAULT_ADMIN_ROLE()":"a217fddf","addChapters(uint256,string[],uint256[])":"d214ba74","addLesson(uint256,string,string)":"75b9d869","addResourcesToLesson(uint256,uint8,(uint8,string,string)[])":"b31a4af3","createQuestionWithChoices(uint256,string,string[],uint8)":"d3751bfc","createQuiz(uint256,string)":"632c224b","deleteChapter(uint256,uint256)":"e09bcae3","deleteLesson(uint256,uint256)":"a1051dfe","deleteQuestion(uint256,uint256)":"88a8270f","deleteQuiz(uint256,uint256)":"ea0978ad","editChapter(uint256,uint256,string)":"e8639751","editLesson(uint256,string,string,(uint8,string,string)[])":"30a3549a","editQuiz(uint256,uint256,string)":"34f9b3fb","enroll(uint256)":"f57d585b","getAllChapters()":"9bce5751","getAllLessons()":"a296ea58","getAllQuizzes()":"6a4af0fa","getChapters(uint256)":"ac678a93","getQuestionsForQuiz(uint256)":"4a474b9c","getQuiz(uint256)":"a3f7e096","getQuizLockTime(uint256,address)":"36c69152","getRoleAdmin(bytes32)":"248a9ca3","getUserCompletedLessonsByCourse(uint256)":"34359da9","getUserCompletedQuizzesByCourse(uint256)":"62cd7998","grantRole(bytes32,address)":"2f2ff15d","hasRole(bytes32,address)":"91d14854","lockQuiz(uint256,uint256)":"0526ba55","markAsRead(uint256,uint256,uint256)":"d0364694","quizExists(uint256)":"b99a9030","renounceRole(bytes32,address)":"36568abe","revokeRole(bytes32,address)":"d547741f","submitQuiz(uint256,uint256,uint256[],uint256)":"5d6a12ec","supportsInterface(bytes4)":"01ffc9a7","unEnroll(uint256)":"20bd0316"}}}}}