{"contracts/SFuelDistributor.sol":{"SFuelDistributor":{"abi":[{"inputs":[],"stateMutability":"nonpayable","type":"constructor"},{"inputs":[],"name":"AccessControlBadConfirmation","type":"error"},{"inputs":[{"internalType":"address","name":"account","type":"address"},{"internalType":"bytes32","name":"neededRole","type":"bytes32"}],"name":"AccessControlUnauthorizedAccount","type":"error"},{"inputs":[],"name":"ReentrancyGuardReentrantCall","type":"error"},{"anonymous":false,"inputs":[{"indexed":true,"internalType":"uint256","name":"originalAmount","type":"uint256"},{"indexed":true,"internalType":"uint256","name":"newAmount","type":"uint256"},{"indexed":true,"internalType":"address","name":"signer","type":"address"}],"name":"AmountUpdated","type":"event"},{"anonymous":false,"inputs":[{"indexed":true,"internalType":"uint256","name":"originalPeriod","type":"uint256"},{"indexed":true,"internalType":"uint256","name":"newPeriod","type":"uint256"}],"name":"CooldownUpdated","type":"event"},{"anonymous":false,"inputs":[{"indexed":true,"internalType":"bytes32","name":"role","type":"bytes32"},{"indexed":true,"internalType":"bytes32","name":"previousAdminRole","type":"bytes32"},{"indexed":true,"internalType":"bytes32","name":"newAdminRole","type":"bytes32"}],"name":"RoleAdminChanged","type":"event"},{"anonymous":false,"inputs":[{"indexed":true,"internalType":"bytes32","name":"role","type":"bytes32"},{"indexed":true,"internalType":"address","name":"account","type":"address"},{"indexed":true,"internalType":"address","name":"sender","type":"address"}],"name":"RoleGranted","type":"event"},{"anonymous":false,"inputs":[{"indexed":true,"internalType":"bytes32","name":"role","type":"bytes32"},{"indexed":true,"internalType":"address","name":"account","type":"address"},{"indexed":true,"internalType":"address","name":"sender","type":"address"}],"name":"RoleRevoked","type":"event"},{"anonymous":false,"inputs":[{"indexed":true,"internalType":"address","name":"to","type":"address"},{"indexed":false,"internalType":"uint256","name":"amount","type":"uint256"}],"name":"SFuelDistributed","type":"event"},{"anonymous":false,"inputs":[{"indexed":true,"internalType":"uint256","name":"originalThreshold","type":"uint256"},{"indexed":true,"internalType":"uint256","name":"newThreshold","type":"uint256"}],"name":"ThresholdUpdated","type":"event"},{"anonymous":false,"inputs":[{"indexed":true,"internalType":"address","name":"to","type":"address"}],"name":"Whitelist","type":"event"},{"inputs":[],"name":"DEFAULT_ADMIN_ROLE","outputs":[{"internalType":"bytes32","name":"","type":"bytes32"}],"stateMutability":"view","type":"function"},{"inputs":[],"name":"MANAGER_ROLE","outputs":[{"internalType":"bytes32","name":"","type":"bytes32"}],"stateMutability":"view","type":"function"},{"inputs":[],"name":"WHITELIST_ROLE","outputs":[{"internalType":"bytes32","name":"","type":"bytes32"}],"stateMutability":"view","type":"function"},{"inputs":[],"name":"cooldownPeriod","outputs":[{"internalType":"uint256","name":"","type":"uint256"}],"stateMutability":"view","type":"function"},{"inputs":[],"name":"distributionAmount","outputs":[{"internalType":"uint256","name":"","type":"uint256"}],"stateMutability":"view","type":"function"},{"inputs":[{"internalType":"bytes32","name":"role","type":"bytes32"}],"name":"getRoleAdmin","outputs":[{"internalType":"bytes32","name":"","type":"bytes32"}],"stateMutability":"view","type":"function"},{"inputs":[{"internalType":"bytes32","name":"role","type":"bytes32"},{"internalType":"address","name":"account","type":"address"}],"name":"grantRole","outputs":[],"stateMutability":"nonpayable","type":"function"},{"inputs":[{"internalType":"bytes32","name":"role","type":"bytes32"},{"internalType":"address","name":"account","type":"address"}],"name":"hasRole","outputs":[{"internalType":"bool","name":"","type":"bool"}],"stateMutability":"view","type":"function"},{"inputs":[{"internalType":"address","name":"user","type":"address"}],"name":"isEligibleForDistribution","outputs":[{"internalType":"bool","name":"","type":"bool"}],"stateMutability":"view","type":"function"},{"inputs":[{"internalType":"address","name":"","type":"address"}],"name":"lastDistribution","outputs":[{"internalType":"uint256","name":"","type":"uint256"}],"stateMutability":"view","type":"function"},{"inputs":[{"internalType":"address","name":"user","type":"address"}],"name":"removeFromWhitelist","outputs":[],"stateMutability":"nonpayable","type":"function"},{"inputs":[{"internalType":"bytes32","name":"role","type":"bytes32"},{"internalType":"address","name":"callerConfirmation","type":"address"}],"name":"renounceRole","outputs":[],"stateMutability":"nonpayable","type":"function"},{"inputs":[{"internalType":"bytes32","name":"role","type":"bytes32"},{"internalType":"address","name":"account","type":"address"}],"name":"revokeRole","outputs":[],"stateMutability":"nonpayable","type":"function"},{"inputs":[{"internalType":"bytes4","name":"interfaceId","type":"bytes4"}],"name":"supportsInterface","outputs":[{"internalType":"bool","name":"","type":"bool"}],"stateMutability":"view","type":"function"},{"inputs":[],"name":"threshold","outputs":[{"internalType":"uint256","name":"","type":"uint256"}],"stateMutability":"view","type":"function"},{"inputs":[{"internalType":"uint256","name":"newPeriod","type":"uint256"}],"name":"updateCooldownPeriod","outputs":[],"stateMutability":"nonpayable","type":"function"},{"inputs":[{"internalType":"uint256","name":"newAmount","type":"uint256"}],"name":"updateDistributionAmount","outputs":[],"stateMutability":"nonpayable","type":"function"},{"inputs":[{"internalType":"uint256","name":"newThreshold","type":"uint256"}],"name":"updateThreshold","outputs":[],"stateMutability":"nonpayable","type":"function"},{"inputs":[{"internalType":"address","name":"to","type":"address"}],"name":"whitelist","outputs":[],"stateMutability":"nonpayable","type":"function"},{"inputs":[],"name":"withdraw","outputs":[],"stateMutability":"nonpayable","type":"function"},{"stateMutability":"payable","type":"receive"}],"evm":{"bytecode":{"linkReferences":{},"object":"60806040526509184e72a00060025565048c273950006003556201518060045534801561002b57600080fd5b50600180819055506100466000801b3361007d60201b60201c565b506100777f241ecf16d79d0f8dbfb92cbc07fe17840425976cf0667f022fe9877caa831b083361007d60201b60201c565b506101ec565b600061008f838361017a60201b60201c565b61016f57600160008085815260200190815260200160002060000160008473ffffffffffffffffffffffffffffffffffffffff1673ffffffffffffffffffffffffffffffffffffffff16815260200190815260200160002060006101000a81548160ff02191690831515021790555061010c6101e460201b60201c565b73ffffffffffffffffffffffffffffffffffffffff168273ffffffffffffffffffffffffffffffffffffffff16847f2f8788117e7eff1d82e926ec794901d17c78024a50270940304540a733656f0d60405160405180910390a460019050610174565b600090505b92915050565b600080600084815260200190815260200160002060000160008373ffffffffffffffffffffffffffffffffffffffff1673ffffffffffffffffffffffffffffffffffffffff16815260200190815260200160002060009054906101000a900460ff16905092915050565b600033905090565b6118de806101fb6000396000f3fe6080604052600436106101235760003560e01c8063861f6bfd116100a0578063b0e0c68111610064578063b0e0c681146103dc578063c68e95de14610407578063d547741f14610444578063d7d7442f1461046d578063ec87621c146104965761012a565b8063861f6bfd146102f95780638ab1d6811461032257806391d148541461034b5780639b19251a14610388578063a217fddf146103b15761012a565b806336568abe116100e757806336568abe146102265780633ccfd60b1461024f57806342cde4e81461026657806344b50bfc146102915780637a997ab7146102ce5761012a565b806301ffc9a71461012f57806304646a491461016c5780631986236414610197578063248a9ca3146101c05780632f2ff15d146101fd5761012a565b3661012a57005b600080fd5b34801561013b57600080fd5b5061015660048036038101906101519190611104565b6104c1565b604051610163919061114c565b60405180910390f35b34801561017857600080fd5b5061018161053b565b60405161018e9190611180565b60405180910390f35b3480156101a357600080fd5b506101be60048036038101906101b991906111c7565b610541565b005b3480156101cc57600080fd5b506101e760048036038101906101e2919061122a565b610608565b6040516101f49190611266565b60405180910390f35b34801561020957600080fd5b50610224600480360381019061021f91906112df565b610627565b005b34801561023257600080fd5b5061024d600480360381019061024891906112df565b610649565b005b34801561025b57600080fd5b506102646106c4565b005b34801561027257600080fd5b5061027b6107ca565b6040516102889190611180565b60405180910390f35b34801561029d57600080fd5b506102b860048036038101906102b3919061131f565b6107d0565b6040516102c59190611180565b60405180910390f35b3480156102da57600080fd5b506102e36107e8565b6040516102f09190611266565b60405180910390f35b34801561030557600080fd5b50610320600480360381019061031b91906111c7565b61080c565b005b34801561032e57600080fd5b506103496004803603810190610344919061131f565b610879565b005b34801561035757600080fd5b50610372600480360381019061036d91906112df565b61093b565b60405161037f919061114c565b60405180910390f35b34801561039457600080fd5b506103af60048036038101906103aa919061131f565b6109a5565b005b3480156103bd57600080fd5b506103c6610c2a565b6040516103d39190611266565b60405180910390f35b3480156103e857600080fd5b506103f1610c31565b6040516103fe9190611180565b60405180910390f35b34801561041357600080fd5b5061042e6004803603810190610429919061131f565b610c37565b60405161043b919061114c565b60405180910390f35b34801561045057600080fd5b5061046b600480360381019061046691906112df565b610cf7565b005b34801561047957600080fd5b50610494600480360381019061048f91906111c7565b610d19565b005b3480156104a257600080fd5b506104ab610dc9565b6040516104b89190611266565b60405180910390f35b60007f7965db0b000000000000000000000000000000000000000000000000000000007bffffffffffffffffffffffffffffffffffffffffffffffffffffffff1916827bffffffffffffffffffffffffffffffffffffffffffffffffffffffff19161480610534575061053382610ded565b5b9050919050565b60045481565b7f241ecf16d79d0f8dbfb92cbc07fe17840425976cf0667f022fe9877caa831b0861056b81610e57565b600082116105ae576040517f08c379a00000000000000000000000000000000000000000000000000000000081526004016105a5906113a9565b60405180910390fd5b60006002549050826002819055503373ffffffffffffffffffffffffffffffffffffffff16600254827f32598843ebd8872cccdb9c21be935270ca4d457ae763774808d1b802e33f123360405160405180910390a4505050565b6000806000838152602001908152602001600020600101549050919050565b61063082610608565b61063981610e57565b6106438383610e6b565b50505050565b610651610f5c565b73ffffffffffffffffffffffffffffffffffffffff168173ffffffffffffffffffffffffffffffffffffffff16146106b5576040517f6697b23200000000000000000000000000000000000000000000000000000000815260040160405180910390fd5b6106bf8282610f64565b505050565b6000801b6106d181610e57565b600047905060008111610719576040517f08c379a00000000000000000000000000000000000000000000000000000000081526004016107109061143b565b60405180910390fd5b60003373ffffffffffffffffffffffffffffffffffffffff168260405161073f9061148c565b60006040518083038185875af1925050503d806000811461077c576040519150601f19603f3d011682016040523d82523d6000602084013e610781565b606091505b50509050806107c5576040517f08c379a00000000000000000000000000000000000000000000000000000000081526004016107bc90611513565b60405180910390fd5b505050565b60035481565b60056020528060005260406000206000915090505481565b7fdc72ed553f2544c34465af23b847953efeb813428162d767f9ba5f4013be676081565b7f241ecf16d79d0f8dbfb92cbc07fe17840425976cf0667f022fe9877caa831b0861083681610e57565b6000600454905082600481905550600454817f5953b565c074c2cce1866b4e69c9efc4908556bb6fca70f735907c94d940551560405160405180910390a3505050565b7f241ecf16d79d0f8dbfb92cbc07fe17840425976cf0667f022fe9877caa831b086108a381610e57565b6108cd7fdc72ed553f2544c34465af23b847953efeb813428162d767f9ba5f4013be67608361093b565b61090c576040517f08c379a0000000000000000000000000000000000000000000000000000000008152600401610903906115a5565b60405180910390fd5b6109367fdc72ed553f2544c34465af23b847953efeb813428162d767f9ba5f4013be676083610f64565b505050565b600080600084815260200190815260200160002060000160008373ffffffffffffffffffffffffffffffffffffffff1673ffffffffffffffffffffffffffffffffffffffff16815260200190815260200160002060009054906101000a900460ff16905092915050565b6109cf7fdc72ed553f2544c34465af23b847953efeb813428162d767f9ba5f4013be67608261093b565b15610a0f576040517f08c379a0000000000000000000000000000000000000000000000000000000008152600401610a0690611637565b60405180910390fd5b6003548173ffffffffffffffffffffffffffffffffffffffff16311015610bb957600254471015610a75576040517f08c379a0000000000000000000000000000000000000000000000000000000008152600401610a6c906116c9565b60405180910390fd5b42600560008373ffffffffffffffffffffffffffffffffffffffff1673ffffffffffffffffffffffffffffffffffffffff1681526020019081526020016000208190555060008173ffffffffffffffffffffffffffffffffffffffff16600254604051610ae19061148c565b60006040518083038185875af1925050503d8060008114610b1e576040519150601f19603f3d011682016040523d82523d6000602084013e610b23565b606091505b5050905080610b67576040517f08c379a0000000000000000000000000000000000000000000000000000000008152600401610b5e9061175b565b60405180910390fd5b8173ffffffffffffffffffffffffffffffffffffffff167fba4f995f4892d6e061ec6479355c03c1b2a422a3de6dc4ec6a32c009fc9f8aa5600254604051610baf9190611180565b60405180910390a2505b610be37fdc72ed553f2544c34465af23b847953efeb813428162d767f9ba5f4013be676082610e6b565b508073ffffffffffffffffffffffffffffffffffffffff167feb73900b98b6a3e2b8b01708fe544760cf570d21e7fbe5225f24e48b5b2b432e60405160405180910390a250565b6000801b81565b60025481565b6000806003548373ffffffffffffffffffffffffffffffffffffffff16311090506000600454600560008673ffffffffffffffffffffffffffffffffffffffff1673ffffffffffffffffffffffffffffffffffffffff16815260200190815260200160002054610ca791906117aa565b421190506000610cd77fdc72ed553f2544c34465af23b847953efeb813428162d767f9ba5f4013be67608661093b565b159050828015610ce45750815b8015610ced5750805b9350505050919050565b610d0082610608565b610d0981610e57565b610d138383610f64565b50505050565b7f241ecf16d79d0f8dbfb92cbc07fe17840425976cf0667f022fe9877caa831b08610d4381610e57565b60008211610d86576040517f08c379a0000000000000000000000000000000000000000000000000000000008152600401610d7d90611850565b60405180910390fd5b6000600354905082600381905550600354817fb06a54caabe58475c86c2bf9df3f2f06dd1213e9e10659c293117fe4893b274b60405160405180910390a3505050565b7f241ecf16d79d0f8dbfb92cbc07fe17840425976cf0667f022fe9877caa831b0881565b60007f01ffc9a7000000000000000000000000000000000000000000000000000000007bffffffffffffffffffffffffffffffffffffffffffffffffffffffff1916827bffffffffffffffffffffffffffffffffffffffffffffffffffffffff1916149050919050565b610e6881610e63610f5c565b611056565b50565b6000610e77838361093b565b610f5157600160008085815260200190815260200160002060000160008473ffffffffffffffffffffffffffffffffffffffff1673ffffffffffffffffffffffffffffffffffffffff16815260200190815260200160002060006101000a81548160ff021916908315150217905550610eee610f5c565b73ffffffffffffffffffffffffffffffffffffffff168273ffffffffffffffffffffffffffffffffffffffff16847f2f8788117e7eff1d82e926ec794901d17c78024a50270940304540a733656f0d60405160405180910390a460019050610f56565b600090505b92915050565b600033905090565b6000610f70838361093b565b1561104b57600080600085815260200190815260200160002060000160008473ffffffffffffffffffffffffffffffffffffffff1673ffffffffffffffffffffffffffffffffffffffff16815260200190815260200160002060006101000a81548160ff021916908315150217905550610fe8610f5c565b73ffffffffffffffffffffffffffffffffffffffff168273ffffffffffffffffffffffffffffffffffffffff16847ff6391f5c32d9c69d2a47ea670b442974b53935d1edc7fd64eb21e047a839171b60405160405180910390a460019050611050565b600090505b92915050565b611060828261093b565b6110a35780826040517fe2517d3f00000000000000000000000000000000000000000000000000000000815260040161109a92919061187f565b60405180910390fd5b5050565b600080fd5b60007fffffffff0000000000000000000000000000000000000000000000000000000082169050919050565b6110e1816110ac565b81146110ec57600080fd5b50565b6000813590506110fe816110d8565b92915050565b60006020828403121561111a576111196110a7565b5b6000611128848285016110ef565b91505092915050565b60008115159050919050565b61114681611131565b82525050565b6000602082019050611161600083018461113d565b92915050565b6000819050919050565b61117a81611167565b82525050565b60006020820190506111956000830184611171565b92915050565b6111a481611167565b81146111af57600080fd5b50565b6000813590506111c18161119b565b92915050565b6000602082840312156111dd576111dc6110a7565b5b60006111eb848285016111b2565b91505092915050565b6000819050919050565b611207816111f4565b811461121257600080fd5b50565b600081359050611224816111fe565b92915050565b6000602082840312156112405761123f6110a7565b5b600061124e84828501611215565b91505092915050565b611260816111f4565b82525050565b600060208201905061127b6000830184611257565b92915050565b600073ffffffffffffffffffffffffffffffffffffffff82169050919050565b60006112ac82611281565b9050919050565b6112bc816112a1565b81146112c757600080fd5b50565b6000813590506112d9816112b3565b92915050565b600080604083850312156112f6576112f56110a7565b5b600061130485828601611215565b9250506020611315858286016112ca565b9150509250929050565b600060208284031215611335576113346110a7565b5b6000611343848285016112ca565b91505092915050565b600082825260208201905092915050565b7f534675656c4469737472696275746f723a20496e76616c696420416d6f756e74600082015250565b600061139360208361134c565b915061139e8261135d565b602082019050919050565b600060208201905081810360008301526113c281611386565b9050919050565b7f534675656c4469737472696275746f723a204e6f2062616c616e636520746f2060008201527f7769746864726177000000000000000000000000000000000000000000000000602082015250565b600061142560288361134c565b9150611430826113c9565b604082019050919050565b6000602082019050818103600083015261145481611418565b9050919050565b600081905092915050565b50565b600061147660008361145b565b915061148182611466565b600082019050919050565b600061149782611469565b9150819050919050565b7f534675656c4469737472696275746f723a205769746864726177616c2066616960008201527f6c65640000000000000000000000000000000000000000000000000000000000602082015250565b60006114fd60238361134c565b9150611508826114a1565b604082019050919050565b6000602082019050818103600083015261152c816114f0565b9050919050565b7f534675656c4469737472696275746f723a204e6f742077686974656c6973746560008201527f6400000000000000000000000000000000000000000000000000000000000000602082015250565b600061158f60218361134c565b915061159a82611533565b604082019050919050565b600060208201905081810360008301526115be81611582565b9050919050565b7f534675656c4469737472696275746f723a20416c72656164792077686974656c60008201527f6973746564000000000000000000000000000000000000000000000000000000602082015250565b600061162160258361134c565b915061162c826115c5565b604082019050919050565b6000602082019050818103600083015261165081611614565b9050919050565b7f534675656c4469737472696275746f723a20436f6e7472616374206f7574206f60008201527f6620734655454c00000000000000000000000000000000000000000000000000602082015250565b60006116b360278361134c565b91506116be82611657565b604082019050919050565b600060208201905081810360008301526116e2816116a6565b9050919050565b7f534675656c4469737472696275746f723a20734655454c207472616e7366657260008201527f206661696c656400000000000000000000000000000000000000000000000000602082015250565b600061174560278361134c565b9150611750826116e9565b604082019050919050565b6000602082019050818103600083015261177481611738565b9050919050565b7f4e487b7100000000000000000000000000000000000000000000000000000000600052601160045260246000fd5b60006117b582611167565b91506117c083611167565b92508282019050808211156117d8576117d761177b565b5b92915050565b7f534675656c4469737472696275746f723a20496e76616c69642054687265736860008201527f6f6c640000000000000000000000000000000000000000000000000000000000602082015250565b600061183a60238361134c565b9150611845826117de565b604082019050919050565b600060208201905081810360008301526118698161182d565b9050919050565b611879816112a1565b82525050565b60006040820190506118946000830185611870565b6118a16020830184611257565b939250505056fea2646970667358221220beaf15e2e71cbbbdb2f40b85a1de033956e8109cb08f332379e528d4c279a55464736f6c634300081b0033","opcodes":"PUSH1 0x80 PUSH1 0x40 MSTORE PUSH6 0x9184E72A000 PUSH1 0x2 SSTORE PUSH6 0x48C27395000 PUSH1 0x3 SSTORE PUSH3 0x15180 PUSH1 0x4 SSTORE CALLVALUE DUP1 ISZERO PUSH2 0x2B JUMPI PUSH1 0x0 DUP1 REVERT JUMPDEST POP PUSH1 0x1 DUP1 DUP2 SWAP1 SSTORE POP PUSH2 0x46 PUSH1 0x0 DUP1 SHL CALLER PUSH2 0x7D PUSH1 0x20 SHL PUSH1 0x20 SHR JUMP JUMPDEST POP PUSH2 0x77 PUSH32 0x241ECF16D79D0F8DBFB92CBC07FE17840425976CF0667F022FE9877CAA831B08 CALLER PUSH2 0x7D PUSH1 0x20 SHL PUSH1 0x20 SHR JUMP JUMPDEST POP PUSH2 0x1EC JUMP JUMPDEST PUSH1 0x0 PUSH2 0x8F DUP4 DUP4 PUSH2 0x17A PUSH1 0x20 SHL PUSH1 0x20 SHR JUMP JUMPDEST PUSH2 0x16F JUMPI PUSH1 0x1 PUSH1 0x0 DUP1 DUP6 DUP2 MSTORE PUSH1 0x20 ADD SWAP1 DUP2 MSTORE PUSH1 0x20 ADD PUSH1 0x0 KECCAK256 PUSH1 0x0 ADD PUSH1 0x0 DUP5 PUSH20 0xFFFFFFFFFFFFFFFFFFFFFFFFFFFFFFFFFFFFFFFF AND PUSH20 0xFFFFFFFFFFFFFFFFFFFFFFFFFFFFFFFFFFFFFFFF AND DUP2 MSTORE PUSH1 0x20 ADD SWAP1 DUP2 MSTORE PUSH1 0x20 ADD PUSH1 0x0 KECCAK256 PUSH1 0x0 PUSH2 0x100 EXP DUP2 SLOAD DUP2 PUSH1 0xFF MUL NOT AND SWAP1 DUP4 ISZERO ISZERO MUL OR SWAP1 SSTORE POP PUSH2 0x10C PUSH2 0x1E4 PUSH1 0x20 SHL PUSH1 0x20 SHR JUMP JUMPDEST PUSH20 0xFFFFFFFFFFFFFFFFFFFFFFFFFFFFFFFFFFFFFFFF AND DUP3 PUSH20 0xFFFFFFFFFFFFFFFFFFFFFFFFFFFFFFFFFFFFFFFF AND DUP5 PUSH32 0x2F8788117E7EFF1D82E926EC794901D17C78024A50270940304540A733656F0D PUSH1 0x40 MLOAD PUSH1 0x40 MLOAD DUP1 SWAP2 SUB SWAP1 LOG4 PUSH1 0x1 SWAP1 POP PUSH2 0x174 JUMP JUMPDEST PUSH1 0x0 SWAP1 POP JUMPDEST SWAP3 SWAP2 POP POP JUMP JUMPDEST PUSH1 0x0 DUP1 PUSH1 0x0 DUP5 DUP2 MSTORE PUSH1 0x20 ADD SWAP1 DUP2 MSTORE PUSH1 0x20 ADD PUSH1 0x0 KECCAK256 PUSH1 0x0 ADD PUSH1 0x0 DUP4 PUSH20 0xFFFFFFFFFFFFFFFFFFFFFFFFFFFFFFFFFFFFFFFF AND PUSH20 0xFFFFFFFFFFFFFFFFFFFFFFFFFFFFFFFFFFFFFFFF AND DUP2 MSTORE PUSH1 0x20 ADD SWAP1 DUP2 MSTORE PUSH1 0x20 ADD PUSH1 0x0 KECCAK256 PUSH1 0x0 SWAP1 SLOAD SWAP1 PUSH2 0x100 EXP SWAP1 DIV PUSH1 0xFF AND SWAP1 POP SWAP3 SWAP2 POP POP JUMP JUMPDEST PUSH1 0x0 CALLER SWAP1 POP SWAP1 JUMP JUMPDEST PUSH2 0x18DE DUP1 PUSH2 0x1FB PUSH1 0x0 CODECOPY PUSH1 0x0 RETURN INVALID PUSH1 0x80 PUSH1 0x40 MSTORE PUSH1 0x4 CALLDATASIZE LT PUSH2 0x123 JUMPI PUSH1 0x0 CALLDATALOAD PUSH1 0xE0 SHR DUP1 PUSH4 0x861F6BFD GT PUSH2 0xA0 JUMPI DUP1 PUSH4 0xB0E0C681 GT PUSH2 0x64 JUMPI DUP1 PUSH4 0xB0E0C681 EQ PUSH2 0x3DC JUMPI DUP1 PUSH4 0xC68E95DE EQ PUSH2 0x407 JUMPI DUP1 PUSH4 0xD547741F EQ PUSH2 0x444 JUMPI DUP1 PUSH4 0xD7D7442F EQ PUSH2 0x46D JUMPI DUP1 PUSH4 0xEC87621C EQ PUSH2 0x496 JUMPI PUSH2 0x12A JUMP JUMPDEST DUP1 PUSH4 0x861F6BFD EQ PUSH2 0x2F9 JUMPI DUP1 PUSH4 0x8AB1D681 EQ PUSH2 0x322 JUMPI DUP1 PUSH4 0x91D14854 EQ PUSH2 0x34B JUMPI DUP1 PUSH4 0x9B19251A EQ PUSH2 0x388 JUMPI DUP1 PUSH4 0xA217FDDF EQ PUSH2 0x3B1 JUMPI PUSH2 0x12A JUMP JUMPDEST DUP1 PUSH4 0x36568ABE GT PUSH2 0xE7 JUMPI DUP1 PUSH4 0x36568ABE EQ PUSH2 0x226 JUMPI DUP1 PUSH4 0x3CCFD60B EQ PUSH2 0x24F JUMPI DUP1 PUSH4 0x42CDE4E8 EQ PUSH2 0x266 JUMPI DUP1 PUSH4 0x44B50BFC EQ PUSH2 0x291 JUMPI DUP1 PUSH4 0x7A997AB7 EQ PUSH2 0x2CE JUMPI PUSH2 0x12A JUMP JUMPDEST DUP1 PUSH4 0x1FFC9A7 EQ PUSH2 0x12F JUMPI DUP1 PUSH4 0x4646A49 EQ PUSH2 0x16C JUMPI DUP1 PUSH4 0x19862364 EQ PUSH2 0x197 JUMPI DUP1 PUSH4 0x248A9CA3 EQ PUSH2 0x1C0 JUMPI DUP1 PUSH4 0x2F2FF15D EQ PUSH2 0x1FD JUMPI PUSH2 0x12A JUMP JUMPDEST CALLDATASIZE PUSH2 0x12A JUMPI STOP JUMPDEST PUSH1 0x0 DUP1 REVERT JUMPDEST CALLVALUE DUP1 ISZERO PUSH2 0x13B JUMPI PUSH1 0x0 DUP1 REVERT JUMPDEST POP PUSH2 0x156 PUSH1 0x4 DUP1 CALLDATASIZE SUB DUP2 ADD SWAP1 PUSH2 0x151 SWAP2 SWAP1 PUSH2 0x1104 JUMP JUMPDEST PUSH2 0x4C1 JUMP JUMPDEST PUSH1 0x40 MLOAD PUSH2 0x163 SWAP2 SWAP1 PUSH2 0x114C JUMP JUMPDEST PUSH1 0x40 MLOAD DUP1 SWAP2 SUB SWAP1 RETURN JUMPDEST CALLVALUE DUP1 ISZERO PUSH2 0x178 JUMPI PUSH1 0x0 DUP1 REVERT JUMPDEST POP PUSH2 0x181 PUSH2 0x53B JUMP JUMPDEST PUSH1 0x40 MLOAD PUSH2 0x18E SWAP2 SWAP1 PUSH2 0x1180 JUMP JUMPDEST PUSH1 0x40 MLOAD DUP1 SWAP2 SUB SWAP1 RETURN JUMPDEST CALLVALUE DUP1 ISZERO PUSH2 0x1A3 JUMPI PUSH1 0x0 DUP1 REVERT JUMPDEST POP PUSH2 0x1BE PUSH1 0x4 DUP1 CALLDATASIZE SUB DUP2 ADD SWAP1 PUSH2 0x1B9 SWAP2 SWAP1 PUSH2 0x11C7 JUMP JUMPDEST PUSH2 0x541 JUMP JUMPDEST STOP JUMPDEST CALLVALUE DUP1 ISZERO PUSH2 0x1CC JUMPI PUSH1 0x0 DUP1 REVERT JUMPDEST POP PUSH2 0x1E7 PUSH1 0x4 DUP1 CALLDATASIZE SUB DUP2 ADD SWAP1 PUSH2 0x1E2 SWAP2 SWAP1 PUSH2 0x122A JUMP JUMPDEST PUSH2 0x608 JUMP JUMPDEST PUSH1 0x40 MLOAD PUSH2 0x1F4 SWAP2 SWAP1 PUSH2 0x1266 JUMP JUMPDEST PUSH1 0x40 MLOAD DUP1 SWAP2 SUB SWAP1 RETURN JUMPDEST CALLVALUE DUP1 ISZERO PUSH2 0x209 JUMPI PUSH1 0x0 DUP1 REVERT JUMPDEST POP PUSH2 0x224 PUSH1 0x4 DUP1 CALLDATASIZE SUB DUP2 ADD SWAP1 PUSH2 0x21F SWAP2 SWAP1 PUSH2 0x12DF JUMP JUMPDEST PUSH2 0x627 JUMP JUMPDEST STOP JUMPDEST CALLVALUE DUP1 ISZERO PUSH2 0x232 JUMPI PUSH1 0x0 DUP1 REVERT JUMPDEST POP PUSH2 0x24D PUSH1 0x4 DUP1 CALLDATASIZE SUB DUP2 ADD SWAP1 PUSH2 0x248 SWAP2 SWAP1 PUSH2 0x12DF JUMP JUMPDEST PUSH2 0x649 JUMP JUMPDEST STOP JUMPDEST CALLVALUE DUP1 ISZERO PUSH2 0x25B JUMPI PUSH1 0x0 DUP1 REVERT JUMPDEST POP PUSH2 0x264 PUSH2 0x6C4 JUMP JUMPDEST STOP JUMPDEST CALLVALUE DUP1 ISZERO PUSH2 0x272 JUMPI PUSH1 0x0 DUP1 REVERT JUMPDEST POP PUSH2 0x27B PUSH2 0x7CA JUMP JUMPDEST PUSH1 0x40 MLOAD PUSH2 0x288 SWAP2 SWAP1 PUSH2 0x1180 JUMP JUMPDEST PUSH1 0x40 MLOAD DUP1 SWAP2 SUB SWAP1 RETURN JUMPDEST CALLVALUE DUP1 ISZERO PUSH2 0x29D JUMPI PUSH1 0x0 DUP1 REVERT JUMPDEST POP PUSH2 0x2B8 PUSH1 0x4 DUP1 CALLDATASIZE SUB DUP2 ADD SWAP1 PUSH2 0x2B3 SWAP2 SWAP1 PUSH2 0x131F JUMP JUMPDEST PUSH2 0x7D0 JUMP JUMPDEST PUSH1 0x40 MLOAD PUSH2 0x2C5 SWAP2 SWAP1 PUSH2 0x1180 JUMP JUMPDEST PUSH1 0x40 MLOAD DUP1 SWAP2 SUB SWAP1 RETURN JUMPDEST CALLVALUE DUP1 ISZERO PUSH2 0x2DA JUMPI PUSH1 0x0 DUP1 REVERT JUMPDEST POP PUSH2 0x2E3 PUSH2 0x7E8 JUMP JUMPDEST PUSH1 0x40 MLOAD PUSH2 0x2F0 SWAP2 SWAP1 PUSH2 0x1266 JUMP JUMPDEST PUSH1 0x40 MLOAD DUP1 SWAP2 SUB SWAP1 RETURN JUMPDEST CALLVALUE DUP1 ISZERO PUSH2 0x305 JUMPI PUSH1 0x0 DUP1 REVERT JUMPDEST POP PUSH2 0x320 PUSH1 0x4 DUP1 CALLDATASIZE SUB DUP2 ADD SWAP1 PUSH2 0x31B SWAP2 SWAP1 PUSH2 0x11C7 JUMP JUMPDEST PUSH2 0x80C JUMP JUMPDEST STOP JUMPDEST CALLVALUE DUP1 ISZERO PUSH2 0x32E JUMPI PUSH1 0x0 DUP1 REVERT JUMPDEST POP PUSH2 0x349 PUSH1 0x4 DUP1 CALLDATASIZE SUB DUP2 ADD SWAP1 PUSH2 0x344 SWAP2 SWAP1 PUSH2 0x131F JUMP JUMPDEST PUSH2 0x879 JUMP JUMPDEST STOP JUMPDEST CALLVALUE DUP1 ISZERO PUSH2 0x357 JUMPI PUSH1 0x0 DUP1 REVERT JUMPDEST POP PUSH2 0x372 PUSH1 0x4 DUP1 CALLDATASIZE SUB DUP2 ADD SWAP1 PUSH2 0x36D SWAP2 SWAP1 PUSH2 0x12DF JUMP JUMPDEST PUSH2 0x93B JUMP JUMPDEST PUSH1 0x40 MLOAD PUSH2 0x37F SWAP2 SWAP1 PUSH2 0x114C JUMP JUMPDEST PUSH1 0x40 MLOAD DUP1 SWAP2 SUB SWAP1 RETURN JUMPDEST CALLVALUE DUP1 ISZERO PUSH2 0x394 JUMPI PUSH1 0x0 DUP1 REVERT JUMPDEST POP PUSH2 0x3AF PUSH1 0x4 DUP1 CALLDATASIZE SUB DUP2 ADD SWAP1 PUSH2 0x3AA SWAP2 SWAP1 PUSH2 0x131F JUMP JUMPDEST PUSH2 0x9A5 JUMP JUMPDEST STOP JUMPDEST CALLVALUE DUP1 ISZERO PUSH2 0x3BD JUMPI PUSH1 0x0 DUP1 REVERT JUMPDEST POP PUSH2 0x3C6 PUSH2 0xC2A JUMP JUMPDEST PUSH1 0x40 MLOAD PUSH2 0x3D3 SWAP2 SWAP1 PUSH2 0x1266 JUMP JUMPDEST PUSH1 0x40 MLOAD DUP1 SWAP2 SUB SWAP1 RETURN JUMPDEST CALLVALUE DUP1 ISZERO PUSH2 0x3E8 JUMPI PUSH1 0x0 DUP1 REVERT JUMPDEST POP PUSH2 0x3F1 PUSH2 0xC31 JUMP JUMPDEST PUSH1 0x40 MLOAD PUSH2 0x3FE SWAP2 SWAP1 PUSH2 0x1180 JUMP JUMPDEST PUSH1 0x40 MLOAD DUP1 SWAP2 SUB SWAP1 RETURN JUMPDEST CALLVALUE DUP1 ISZERO PUSH2 0x413 JUMPI PUSH1 0x0 DUP1 REVERT JUMPDEST POP PUSH2 0x42E PUSH1 0x4 DUP1 CALLDATASIZE SUB DUP2 ADD SWAP1 PUSH2 0x429 SWAP2 SWAP1 PUSH2 0x131F JUMP JUMPDEST PUSH2 0xC37 JUMP JUMPDEST PUSH1 0x40 MLOAD PUSH2 0x43B SWAP2 SWAP1 PUSH2 0x114C JUMP JUMPDEST PUSH1 0x40 MLOAD DUP1 SWAP2 SUB SWAP1 RETURN JUMPDEST CALLVALUE DUP1 ISZERO PUSH2 0x450 JUMPI PUSH1 0x0 DUP1 REVERT JUMPDEST POP PUSH2 0x46B PUSH1 0x4 DUP1 CALLDATASIZE SUB DUP2 ADD SWAP1 PUSH2 0x466 SWAP2 SWAP1 PUSH2 0x12DF JUMP JUMPDEST PUSH2 0xCF7 JUMP JUMPDEST STOP JUMPDEST CALLVALUE DUP1 ISZERO PUSH2 0x479 JUMPI PUSH1 0x0 DUP1 REVERT JUMPDEST POP PUSH2 0x494 PUSH1 0x4 DUP1 CALLDATASIZE SUB DUP2 ADD SWAP1 PUSH2 0x48F SWAP2 SWAP1 PUSH2 0x11C7 JUMP JUMPDEST PUSH2 0xD19 JUMP JUMPDEST STOP JUMPDEST CALLVALUE DUP1 ISZERO PUSH2 0x4A2 JUMPI PUSH1 0x0 DUP1 REVERT JUMPDEST POP PUSH2 0x4AB PUSH2 0xDC9 JUMP JUMPDEST PUSH1 0x40 MLOAD PUSH2 0x4B8 SWAP2 SWAP1 PUSH2 0x1266 JUMP JUMPDEST PUSH1 0x40 MLOAD DUP1 SWAP2 SUB SWAP1 RETURN JUMPDEST PUSH1 0x0 PUSH32 0x7965DB0B00000000000000000000000000000000000000000000000000000000 PUSH28 0xFFFFFFFFFFFFFFFFFFFFFFFFFFFFFFFFFFFFFFFFFFFFFFFFFFFFFFFF NOT AND DUP3 PUSH28 0xFFFFFFFFFFFFFFFFFFFFFFFFFFFFFFFFFFFFFFFFFFFFFFFFFFFFFFFF NOT AND EQ DUP1 PUSH2 0x534 JUMPI POP PUSH2 0x533 DUP3 PUSH2 0xDED JUMP JUMPDEST JUMPDEST SWAP1 POP SWAP2 SWAP1 POP JUMP JUMPDEST PUSH1 0x4 SLOAD DUP2 JUMP JUMPDEST PUSH32 0x241ECF16D79D0F8DBFB92CBC07FE17840425976CF0667F022FE9877CAA831B08 PUSH2 0x56B DUP2 PUSH2 0xE57 JUMP JUMPDEST PUSH1 0x0 DUP3 GT PUSH2 0x5AE JUMPI PUSH1 0x40 MLOAD PUSH32 0x8C379A000000000000000000000000000000000000000000000000000000000 DUP2 MSTORE PUSH1 0x4 ADD PUSH2 0x5A5 SWAP1 PUSH2 0x13A9 JUMP JUMPDEST PUSH1 0x40 MLOAD DUP1 SWAP2 SUB SWAP1 REVERT JUMPDEST PUSH1 0x0 PUSH1 0x2 SLOAD SWAP1 POP DUP3 PUSH1 0x2 DUP2 SWAP1 SSTORE POP CALLER PUSH20 0xFFFFFFFFFFFFFFFFFFFFFFFFFFFFFFFFFFFFFFFF AND PUSH1 0x2 SLOAD DUP3 PUSH32 0x32598843EBD8872CCCDB9C21BE935270CA4D457AE763774808D1B802E33F1233 PUSH1 0x40 MLOAD PUSH1 0x40 MLOAD DUP1 SWAP2 SUB SWAP1 LOG4 POP POP POP JUMP JUMPDEST PUSH1 0x0 DUP1 PUSH1 0x0 DUP4 DUP2 MSTORE PUSH1 0x20 ADD SWAP1 DUP2 MSTORE PUSH1 0x20 ADD PUSH1 0x0 KECCAK256 PUSH1 0x1 ADD SLOAD SWAP1 POP SWAP2 SWAP1 POP JUMP JUMPDEST PUSH2 0x630 DUP3 PUSH2 0x608 JUMP JUMPDEST PUSH2 0x639 DUP2 PUSH2 0xE57 JUMP JUMPDEST PUSH2 0x643 DUP4 DUP4 PUSH2 0xE6B JUMP JUMPDEST POP POP POP POP JUMP JUMPDEST PUSH2 0x651 PUSH2 0xF5C JUMP JUMPDEST PUSH20 0xFFFFFFFFFFFFFFFFFFFFFFFFFFFFFFFFFFFFFFFF AND DUP2 PUSH20 0xFFFFFFFFFFFFFFFFFFFFFFFFFFFFFFFFFFFFFFFF AND EQ PUSH2 0x6B5 JUMPI PUSH1 0x40 MLOAD PUSH32 0x6697B23200000000000000000000000000000000000000000000000000000000 DUP2 MSTORE PUSH1 0x4 ADD PUSH1 0x40 MLOAD DUP1 SWAP2 SUB SWAP1 REVERT JUMPDEST PUSH2 0x6BF DUP3 DUP3 PUSH2 0xF64 JUMP JUMPDEST POP POP POP JUMP JUMPDEST PUSH1 0x0 DUP1 SHL PUSH2 0x6D1 DUP2 PUSH2 0xE57 JUMP JUMPDEST PUSH1 0x0 SELFBALANCE SWAP1 POP PUSH1 0x0 DUP2 GT PUSH2 0x719 JUMPI PUSH1 0x40 MLOAD PUSH32 0x8C379A000000000000000000000000000000000000000000000000000000000 DUP2 MSTORE PUSH1 0x4 ADD PUSH2 0x710 SWAP1 PUSH2 0x143B JUMP JUMPDEST PUSH1 0x40 MLOAD DUP1 SWAP2 SUB SWAP1 REVERT JUMPDEST PUSH1 0x0 CALLER PUSH20 0xFFFFFFFFFFFFFFFFFFFFFFFFFFFFFFFFFFFFFFFF AND DUP3 PUSH1 0x40 MLOAD PUSH2 0x73F SWAP1 PUSH2 0x148C JUMP JUMPDEST PUSH1 0x0 PUSH1 0x40 MLOAD DUP1 DUP4 SUB DUP2 DUP6 DUP8 GAS CALL SWAP3 POP POP POP RETURNDATASIZE DUP1 PUSH1 0x0 DUP2 EQ PUSH2 0x77C JUMPI PUSH1 0x40 MLOAD SWAP2 POP PUSH1 0x1F NOT PUSH1 0x3F RETURNDATASIZE ADD AND DUP3 ADD PUSH1 0x40 MSTORE RETURNDATASIZE DUP3 MSTORE RETURNDATASIZE PUSH1 0x0 PUSH1 0x20 DUP5 ADD RETURNDATACOPY PUSH2 0x781 JUMP JUMPDEST PUSH1 0x60 SWAP2 POP JUMPDEST POP POP SWAP1 POP DUP1 PUSH2 0x7C5 JUMPI PUSH1 0x40 MLOAD PUSH32 0x8C379A000000000000000000000000000000000000000000000000000000000 DUP2 MSTORE PUSH1 0x4 ADD PUSH2 0x7BC SWAP1 PUSH2 0x1513 JUMP JUMPDEST PUSH1 0x40 MLOAD DUP1 SWAP2 SUB SWAP1 REVERT JUMPDEST POP POP POP JUMP JUMPDEST PUSH1 0x3 SLOAD DUP2 JUMP JUMPDEST PUSH1 0x5 PUSH1 0x20 MSTORE DUP1 PUSH1 0x0 MSTORE PUSH1 0x40 PUSH1 0x0 KECCAK256 PUSH1 0x0 SWAP2 POP SWAP1 POP SLOAD DUP2 JUMP JUMPDEST PUSH32 0xDC72ED553F2544C34465AF23B847953EFEB813428162D767F9BA5F4013BE6760 DUP2 JUMP JUMPDEST PUSH32 0x241ECF16D79D0F8DBFB92CBC07FE17840425976CF0667F022FE9877CAA831B08 PUSH2 0x836 DUP2 PUSH2 0xE57 JUMP JUMPDEST PUSH1 0x0 PUSH1 0x4 SLOAD SWAP1 POP DUP3 PUSH1 0x4 DUP2 SWAP1 SSTORE POP PUSH1 0x4 SLOAD DUP2 PUSH32 0x5953B565C074C2CCE1866B4E69C9EFC4908556BB6FCA70F735907C94D9405515 PUSH1 0x40 MLOAD PUSH1 0x40 MLOAD DUP1 SWAP2 SUB SWAP1 LOG3 POP POP POP JUMP JUMPDEST PUSH32 0x241ECF16D79D0F8DBFB92CBC07FE17840425976CF0667F022FE9877CAA831B08 PUSH2 0x8A3 DUP2 PUSH2 0xE57 JUMP JUMPDEST PUSH2 0x8CD PUSH32 0xDC72ED553F2544C34465AF23B847953EFEB813428162D767F9BA5F4013BE6760 DUP4 PUSH2 0x93B JUMP JUMPDEST PUSH2 0x90C JUMPI PUSH1 0x40 MLOAD PUSH32 0x8C379A000000000000000000000000000000000000000000000000000000000 DUP2 MSTORE PUSH1 0x4 ADD PUSH2 0x903 SWAP1 PUSH2 0x15A5 JUMP JUMPDEST PUSH1 0x40 MLOAD DUP1 SWAP2 SUB SWAP1 REVERT JUMPDEST PUSH2 0x936 PUSH32 0xDC72ED553F2544C34465AF23B847953EFEB813428162D767F9BA5F4013BE6760 DUP4 PUSH2 0xF64 JUMP JUMPDEST POP POP POP JUMP JUMPDEST PUSH1 0x0 DUP1 PUSH1 0x0 DUP5 DUP2 MSTORE PUSH1 0x20 ADD SWAP1 DUP2 MSTORE PUSH1 0x20 ADD PUSH1 0x0 KECCAK256 PUSH1 0x0 ADD PUSH1 0x0 DUP4 PUSH20 0xFFFFFFFFFFFFFFFFFFFFFFFFFFFFFFFFFFFFFFFF AND PUSH20 0xFFFFFFFFFFFFFFFFFFFFFFFFFFFFFFFFFFFFFFFF AND DUP2 MSTORE PUSH1 0x20 ADD SWAP1 DUP2 MSTORE PUSH1 0x20 ADD PUSH1 0x0 KECCAK256 PUSH1 0x0 SWAP1 SLOAD SWAP1 PUSH2 0x100 EXP SWAP1 DIV PUSH1 0xFF AND SWAP1 POP SWAP3 SWAP2 POP POP JUMP JUMPDEST PUSH2 0x9CF PUSH32 0xDC72ED553F2544C34465AF23B847953EFEB813428162D767F9BA5F4013BE6760 DUP3 PUSH2 0x93B JUMP JUMPDEST ISZERO PUSH2 0xA0F JUMPI PUSH1 0x40 MLOAD PUSH32 0x8C379A000000000000000000000000000000000000000000000000000000000 DUP2 MSTORE PUSH1 0x4 ADD PUSH2 0xA06 SWAP1 PUSH2 0x1637 JUMP JUMPDEST PUSH1 0x40 MLOAD DUP1 SWAP2 SUB SWAP1 REVERT JUMPDEST PUSH1 0x3 SLOAD DUP2 PUSH20 0xFFFFFFFFFFFFFFFFFFFFFFFFFFFFFFFFFFFFFFFF AND BALANCE LT ISZERO PUSH2 0xBB9 JUMPI PUSH1 0x2 SLOAD SELFBALANCE LT ISZERO PUSH2 0xA75 JUMPI PUSH1 0x40 MLOAD PUSH32 0x8C379A000000000000000000000000000000000000000000000000000000000 DUP2 MSTORE PUSH1 0x4 ADD PUSH2 0xA6C SWAP1 PUSH2 0x16C9 JUMP JUMPDEST PUSH1 0x40 MLOAD DUP1 SWAP2 SUB SWAP1 REVERT JUMPDEST TIMESTAMP PUSH1 0x5 PUSH1 0x0 DUP4 PUSH20 0xFFFFFFFFFFFFFFFFFFFFFFFFFFFFFFFFFFFFFFFF AND PUSH20 0xFFFFFFFFFFFFFFFFFFFFFFFFFFFFFFFFFFFFFFFF AND DUP2 MSTORE PUSH1 0x20 ADD SWAP1 DUP2 MSTORE PUSH1 0x20 ADD PUSH1 0x0 KECCAK256 DUP2 SWAP1 SSTORE POP PUSH1 0x0 DUP2 PUSH20 0xFFFFFFFFFFFFFFFFFFFFFFFFFFFFFFFFFFFFFFFF AND PUSH1 0x2 SLOAD PUSH1 0x40 MLOAD PUSH2 0xAE1 SWAP1 PUSH2 0x148C JUMP JUMPDEST PUSH1 0x0 PUSH1 0x40 MLOAD DUP1 DUP4 SUB DUP2 DUP6 DUP8 GAS CALL SWAP3 POP POP POP RETURNDATASIZE DUP1 PUSH1 0x0 DUP2 EQ PUSH2 0xB1E JUMPI PUSH1 0x40 MLOAD SWAP2 POP PUSH1 0x1F NOT PUSH1 0x3F RETURNDATASIZE ADD AND DUP3 ADD PUSH1 0x40 MSTORE RETURNDATASIZE DUP3 MSTORE RETURNDATASIZE PUSH1 0x0 PUSH1 0x20 DUP5 ADD RETURNDATACOPY PUSH2 0xB23 JUMP JUMPDEST PUSH1 0x60 SWAP2 POP JUMPDEST POP POP SWAP1 POP DUP1 PUSH2 0xB67 JUMPI PUSH1 0x40 MLOAD PUSH32 0x8C379A000000000000000000000000000000000000000000000000000000000 DUP2 MSTORE PUSH1 0x4 ADD PUSH2 0xB5E SWAP1 PUSH2 0x175B JUMP JUMPDEST PUSH1 0x40 MLOAD DUP1 SWAP2 SUB SWAP1 REVERT JUMPDEST DUP2 PUSH20 0xFFFFFFFFFFFFFFFFFFFFFFFFFFFFFFFFFFFFFFFF AND PUSH32 0xBA4F995F4892D6E061EC6479355C03C1B2A422A3DE6DC4EC6A32C009FC9F8AA5 PUSH1 0x2 SLOAD PUSH1 0x40 MLOAD PUSH2 0xBAF SWAP2 SWAP1 PUSH2 0x1180 JUMP JUMPDEST PUSH1 0x40 MLOAD DUP1 SWAP2 SUB SWAP1 LOG2 POP JUMPDEST PUSH2 0xBE3 PUSH32 0xDC72ED553F2544C34465AF23B847953EFEB813428162D767F9BA5F4013BE6760 DUP3 PUSH2 0xE6B JUMP JUMPDEST POP DUP1 PUSH20 0xFFFFFFFFFFFFFFFFFFFFFFFFFFFFFFFFFFFFFFFF AND PUSH32 0xEB73900B98B6A3E2B8B01708FE544760CF570D21E7FBE5225F24E48B5B2B432E PUSH1 0x40 MLOAD PUSH1 0x40 MLOAD DUP1 SWAP2 SUB SWAP1 LOG2 POP JUMP JUMPDEST PUSH1 0x0 DUP1 SHL DUP2 JUMP JUMPDEST PUSH1 0x2 SLOAD DUP2 JUMP JUMPDEST PUSH1 0x0 DUP1 PUSH1 0x3 SLOAD DUP4 PUSH20 0xFFFFFFFFFFFFFFFFFFFFFFFFFFFFFFFFFFFFFFFF AND BALANCE LT SWAP1 POP PUSH1 0x0 PUSH1 0x4 SLOAD PUSH1 0x5 PUSH1 0x0 DUP7 PUSH20 0xFFFFFFFFFFFFFFFFFFFFFFFFFFFFFFFFFFFFFFFF AND PUSH20 0xFFFFFFFFFFFFFFFFFFFFFFFFFFFFFFFFFFFFFFFF AND DUP2 MSTORE PUSH1 0x20 ADD SWAP1 DUP2 MSTORE PUSH1 0x20 ADD PUSH1 0x0 KECCAK256 SLOAD PUSH2 0xCA7 SWAP2 SWAP1 PUSH2 0x17AA JUMP JUMPDEST TIMESTAMP GT SWAP1 POP PUSH1 0x0 PUSH2 0xCD7 PUSH32 0xDC72ED553F2544C34465AF23B847953EFEB813428162D767F9BA5F4013BE6760 DUP7 PUSH2 0x93B JUMP JUMPDEST ISZERO SWAP1 POP DUP3 DUP1 ISZERO PUSH2 0xCE4 JUMPI POP DUP2 JUMPDEST DUP1 ISZERO PUSH2 0xCED JUMPI POP DUP1 JUMPDEST SWAP4 POP POP POP POP SWAP2 SWAP1 POP JUMP JUMPDEST PUSH2 0xD00 DUP3 PUSH2 0x608 JUMP JUMPDEST PUSH2 0xD09 DUP2 PUSH2 0xE57 JUMP JUMPDEST PUSH2 0xD13 DUP4 DUP4 PUSH2 0xF64 JUMP JUMPDEST POP POP POP POP JUMP JUMPDEST PUSH32 0x241ECF16D79D0F8DBFB92CBC07FE17840425976CF0667F022FE9877CAA831B08 PUSH2 0xD43 DUP2 PUSH2 0xE57 JUMP JUMPDEST PUSH1 0x0 DUP3 GT PUSH2 0xD86 JUMPI PUSH1 0x40 MLOAD PUSH32 0x8C379A000000000000000000000000000000000000000000000000000000000 DUP2 MSTORE PUSH1 0x4 ADD PUSH2 0xD7D SWAP1 PUSH2 0x1850 JUMP JUMPDEST PUSH1 0x40 MLOAD DUP1 SWAP2 SUB SWAP1 REVERT JUMPDEST PUSH1 0x0 PUSH1 0x3 SLOAD SWAP1 POP DUP3 PUSH1 0x3 DUP2 SWAP1 SSTORE POP PUSH1 0x3 SLOAD DUP2 PUSH32 0xB06A54CAABE58475C86C2BF9DF3F2F06DD1213E9E10659C293117FE4893B274B PUSH1 0x40 MLOAD PUSH1 0x40 MLOAD DUP1 SWAP2 SUB SWAP1 LOG3 POP POP POP JUMP JUMPDEST PUSH32 0x241ECF16D79D0F8DBFB92CBC07FE17840425976CF0667F022FE9877CAA831B08 DUP2 JUMP JUMPDEST PUSH1 0x0 PUSH32 0x1FFC9A700000000000000000000000000000000000000000000000000000000 PUSH28 0xFFFFFFFFFFFFFFFFFFFFFFFFFFFFFFFFFFFFFFFFFFFFFFFFFFFFFFFF NOT AND DUP3 PUSH28 0xFFFFFFFFFFFFFFFFFFFFFFFFFFFFFFFFFFFFFFFFFFFFFFFFFFFFFFFF NOT AND EQ SWAP1 POP SWAP2 SWAP1 POP JUMP JUMPDEST PUSH2 0xE68 DUP2 PUSH2 0xE63 PUSH2 0xF5C JUMP JUMPDEST PUSH2 0x1056 JUMP JUMPDEST POP JUMP JUMPDEST PUSH1 0x0 PUSH2 0xE77 DUP4 DUP4 PUSH2 0x93B JUMP JUMPDEST PUSH2 0xF51 JUMPI PUSH1 0x1 PUSH1 0x0 DUP1 DUP6 DUP2 MSTORE PUSH1 0x20 ADD SWAP1 DUP2 MSTORE PUSH1 0x20 ADD PUSH1 0x0 KECCAK256 PUSH1 0x0 ADD PUSH1 0x0 DUP5 PUSH20 0xFFFFFFFFFFFFFFFFFFFFFFFFFFFFFFFFFFFFFFFF AND PUSH20 0xFFFFFFFFFFFFFFFFFFFFFFFFFFFFFFFFFFFFFFFF AND DUP2 MSTORE PUSH1 0x20 ADD SWAP1 DUP2 MSTORE PUSH1 0x20 ADD PUSH1 0x0 KECCAK256 PUSH1 0x0 PUSH2 0x100 EXP DUP2 SLOAD DUP2 PUSH1 0xFF MUL NOT AND SWAP1 DUP4 ISZERO ISZERO MUL OR SWAP1 SSTORE POP PUSH2 0xEEE PUSH2 0xF5C JUMP JUMPDEST PUSH20 0xFFFFFFFFFFFFFFFFFFFFFFFFFFFFFFFFFFFFFFFF AND DUP3 PUSH20 0xFFFFFFFFFFFFFFFFFFFFFFFFFFFFFFFFFFFFFFFF AND DUP5 PUSH32 0x2F8788117E7EFF1D82E926EC794901D17C78024A50270940304540A733656F0D PUSH1 0x40 MLOAD PUSH1 0x40 MLOAD DUP1 SWAP2 SUB SWAP1 LOG4 PUSH1 0x1 SWAP1 POP PUSH2 0xF56 JUMP JUMPDEST PUSH1 0x0 SWAP1 POP JUMPDEST SWAP3 SWAP2 POP POP JUMP JUMPDEST PUSH1 0x0 CALLER SWAP1 POP SWAP1 JUMP JUMPDEST PUSH1 0x0 PUSH2 0xF70 DUP4 DUP4 PUSH2 0x93B JUMP JUMPDEST ISZERO PUSH2 0x104B JUMPI PUSH1 0x0 DUP1 PUSH1 0x0 DUP6 DUP2 MSTORE PUSH1 0x20 ADD SWAP1 DUP2 MSTORE PUSH1 0x20 ADD PUSH1 0x0 KECCAK256 PUSH1 0x0 ADD PUSH1 0x0 DUP5 PUSH20 0xFFFFFFFFFFFFFFFFFFFFFFFFFFFFFFFFFFFFFFFF AND PUSH20 0xFFFFFFFFFFFFFFFFFFFFFFFFFFFFFFFFFFFFFFFF AND DUP2 MSTORE PUSH1 0x20 ADD SWAP1 DUP2 MSTORE PUSH1 0x20 ADD PUSH1 0x0 KECCAK256 PUSH1 0x0 PUSH2 0x100 EXP DUP2 SLOAD DUP2 PUSH1 0xFF MUL NOT AND SWAP1 DUP4 ISZERO ISZERO MUL OR SWAP1 SSTORE POP PUSH2 0xFE8 PUSH2 0xF5C JUMP JUMPDEST PUSH20 0xFFFFFFFFFFFFFFFFFFFFFFFFFFFFFFFFFFFFFFFF AND DUP3 PUSH20 0xFFFFFFFFFFFFFFFFFFFFFFFFFFFFFFFFFFFFFFFF AND DUP5 PUSH32 0xF6391F5C32D9C69D2A47EA670B442974B53935D1EDC7FD64EB21E047A839171B PUSH1 0x40 MLOAD PUSH1 0x40 MLOAD DUP1 SWAP2 SUB SWAP1 LOG4 PUSH1 0x1 SWAP1 POP PUSH2 0x1050 JUMP JUMPDEST PUSH1 0x0 SWAP1 POP JUMPDEST SWAP3 SWAP2 POP POP JUMP JUMPDEST PUSH2 0x1060 DUP3 DUP3 PUSH2 0x93B JUMP JUMPDEST PUSH2 0x10A3 JUMPI DUP1 DUP3 PUSH1 0x40 MLOAD PUSH32 0xE2517D3F00000000000000000000000000000000000000000000000000000000 DUP2 MSTORE PUSH1 0x4 ADD PUSH2 0x109A SWAP3 SWAP2 SWAP1 PUSH2 0x187F JUMP JUMPDEST PUSH1 0x40 MLOAD DUP1 SWAP2 SUB SWAP1 REVERT JUMPDEST POP POP JUMP JUMPDEST PUSH1 0x0 DUP1 REVERT JUMPDEST PUSH1 0x0 PUSH32 0xFFFFFFFF00000000000000000000000000000000000000000000000000000000 DUP3 AND SWAP1 POP SWAP2 SWAP1 POP JUMP JUMPDEST PUSH2 0x10E1 DUP2 PUSH2 0x10AC JUMP JUMPDEST DUP2 EQ PUSH2 0x10EC JUMPI PUSH1 0x0 DUP1 REVERT JUMPDEST POP JUMP JUMPDEST PUSH1 0x0 DUP2 CALLDATALOAD SWAP1 POP PUSH2 0x10FE DUP2 PUSH2 0x10D8 JUMP JUMPDEST SWAP3 SWAP2 POP POP JUMP JUMPDEST PUSH1 0x0 PUSH1 0x20 DUP3 DUP5 SUB SLT ISZERO PUSH2 0x111A JUMPI PUSH2 0x1119 PUSH2 0x10A7 JUMP JUMPDEST JUMPDEST PUSH1 0x0 PUSH2 0x1128 DUP5 DUP3 DUP6 ADD PUSH2 0x10EF JUMP JUMPDEST SWAP2 POP POP SWAP3 SWAP2 POP POP JUMP JUMPDEST PUSH1 0x0 DUP2 ISZERO ISZERO SWAP1 POP SWAP2 SWAP1 POP JUMP JUMPDEST PUSH2 0x1146 DUP2 PUSH2 0x1131 JUMP JUMPDEST DUP3 MSTORE POP POP JUMP JUMPDEST PUSH1 0x0 PUSH1 0x20 DUP3 ADD SWAP1 POP PUSH2 0x1161 PUSH1 0x0 DUP4 ADD DUP5 PUSH2 0x113D JUMP JUMPDEST SWAP3 SWAP2 POP POP JUMP JUMPDEST PUSH1 0x0 DUP2 SWAP1 POP SWAP2 SWAP1 POP JUMP JUMPDEST PUSH2 0x117A DUP2 PUSH2 0x1167 JUMP JUMPDEST DUP3 MSTORE POP POP JUMP JUMPDEST PUSH1 0x0 PUSH1 0x20 DUP3 ADD SWAP1 POP PUSH2 0x1195 PUSH1 0x0 DUP4 ADD DUP5 PUSH2 0x1171 JUMP JUMPDEST SWAP3 SWAP2 POP POP JUMP JUMPDEST PUSH2 0x11A4 DUP2 PUSH2 0x1167 JUMP JUMPDEST DUP2 EQ PUSH2 0x11AF JUMPI PUSH1 0x0 DUP1 REVERT JUMPDEST POP JUMP JUMPDEST PUSH1 0x0 DUP2 CALLDATALOAD SWAP1 POP PUSH2 0x11C1 DUP2 PUSH2 0x119B JUMP JUMPDEST SWAP3 SWAP2 POP POP JUMP JUMPDEST PUSH1 0x0 PUSH1 0x20 DUP3 DUP5 SUB SLT ISZERO PUSH2 0x11DD JUMPI PUSH2 0x11DC PUSH2 0x10A7 JUMP JUMPDEST JUMPDEST PUSH1 0x0 PUSH2 0x11EB DUP5 DUP3 DUP6 ADD PUSH2 0x11B2 JUMP JUMPDEST SWAP2 POP POP SWAP3 SWAP2 POP POP JUMP JUMPDEST PUSH1 0x0 DUP2 SWAP1 POP SWAP2 SWAP1 POP JUMP JUMPDEST PUSH2 0x1207 DUP2 PUSH2 0x11F4 JUMP JUMPDEST DUP2 EQ PUSH2 0x1212 JUMPI PUSH1 0x0 DUP1 REVERT JUMPDEST POP JUMP JUMPDEST PUSH1 0x0 DUP2 CALLDATALOAD SWAP1 POP PUSH2 0x1224 DUP2 PUSH2 0x11FE JUMP JUMPDEST SWAP3 SWAP2 POP POP JUMP JUMPDEST PUSH1 0x0 PUSH1 0x20 DUP3 DUP5 SUB SLT ISZERO PUSH2 0x1240 JUMPI PUSH2 0x123F PUSH2 0x10A7 JUMP JUMPDEST JUMPDEST PUSH1 0x0 PUSH2 0x124E DUP5 DUP3 DUP6 ADD PUSH2 0x1215 JUMP JUMPDEST SWAP2 POP POP SWAP3 SWAP2 POP POP JUMP JUMPDEST PUSH2 0x1260 DUP2 PUSH2 0x11F4 JUMP JUMPDEST DUP3 MSTORE POP POP JUMP JUMPDEST PUSH1 0x0 PUSH1 0x20 DUP3 ADD SWAP1 POP PUSH2 0x127B PUSH1 0x0 DUP4 ADD DUP5 PUSH2 0x1257 JUMP JUMPDEST SWAP3 SWAP2 POP POP JUMP JUMPDEST PUSH1 0x0 PUSH20 0xFFFFFFFFFFFFFFFFFFFFFFFFFFFFFFFFFFFFFFFF DUP3 AND SWAP1 POP SWAP2 SWAP1 POP JUMP JUMPDEST PUSH1 0x0 PUSH2 0x12AC DUP3 PUSH2 0x1281 JUMP JUMPDEST SWAP1 POP SWAP2 SWAP1 POP JUMP JUMPDEST PUSH2 0x12BC DUP2 PUSH2 0x12A1 JUMP JUMPDEST DUP2 EQ PUSH2 0x12C7 JUMPI PUSH1 0x0 DUP1 REVERT JUMPDEST POP JUMP JUMPDEST PUSH1 0x0 DUP2 CALLDATALOAD SWAP1 POP PUSH2 0x12D9 DUP2 PUSH2 0x12B3 JUMP JUMPDEST SWAP3 SWAP2 POP POP JUMP JUMPDEST PUSH1 0x0 DUP1 PUSH1 0x40 DUP4 DUP6 SUB SLT ISZERO PUSH2 0x12F6 JUMPI PUSH2 0x12F5 PUSH2 0x10A7 JUMP JUMPDEST JUMPDEST PUSH1 0x0 PUSH2 0x1304 DUP6 DUP3 DUP7 ADD PUSH2 0x1215 JUMP JUMPDEST SWAP3 POP POP PUSH1 0x20 PUSH2 0x1315 DUP6 DUP3 DUP7 ADD PUSH2 0x12CA JUMP JUMPDEST SWAP2 POP POP SWAP3 POP SWAP3 SWAP1 POP JUMP JUMPDEST PUSH1 0x0 PUSH1 0x20 DUP3 DUP5 SUB SLT ISZERO PUSH2 0x1335 JUMPI PUSH2 0x1334 PUSH2 0x10A7 JUMP JUMPDEST JUMPDEST PUSH1 0x0 PUSH2 0x1343 DUP5 DUP3 DUP6 ADD PUSH2 0x12CA JUMP JUMPDEST SWAP2 POP POP SWAP3 SWAP2 POP POP JUMP JUMPDEST PUSH1 0x0 DUP3 DUP3 MSTORE PUSH1 0x20 DUP3 ADD SWAP1 POP SWAP3 SWAP2 POP POP JUMP JUMPDEST PUSH32 0x534675656C4469737472696275746F723A20496E76616C696420416D6F756E74 PUSH1 0x0 DUP3 ADD MSTORE POP JUMP JUMPDEST PUSH1 0x0 PUSH2 0x1393 PUSH1 0x20 DUP4 PUSH2 0x134C JUMP JUMPDEST SWAP2 POP PUSH2 0x139E DUP3 PUSH2 0x135D JUMP JUMPDEST PUSH1 0x20 DUP3 ADD SWAP1 POP SWAP2 SWAP1 POP JUMP JUMPDEST PUSH1 0x0 PUSH1 0x20 DUP3 ADD SWAP1 POP DUP2 DUP2 SUB PUSH1 0x0 DUP4 ADD MSTORE PUSH2 0x13C2 DUP2 PUSH2 0x1386 JUMP JUMPDEST SWAP1 POP SWAP2 SWAP1 POP JUMP JUMPDEST PUSH32 0x534675656C4469737472696275746F723A204E6F2062616C616E636520746F20 PUSH1 0x0 DUP3 ADD MSTORE PUSH32 0x7769746864726177000000000000000000000000000000000000000000000000 PUSH1 0x20 DUP3 ADD MSTORE POP JUMP JUMPDEST PUSH1 0x0 PUSH2 0x1425 PUSH1 0x28 DUP4 PUSH2 0x134C JUMP JUMPDEST SWAP2 POP PUSH2 0x1430 DUP3 PUSH2 0x13C9 JUMP JUMPDEST PUSH1 0x40 DUP3 ADD SWAP1 POP SWAP2 SWAP1 POP JUMP JUMPDEST PUSH1 0x0 PUSH1 0x20 DUP3 ADD SWAP1 POP DUP2 DUP2 SUB PUSH1 0x0 DUP4 ADD MSTORE PUSH2 0x1454 DUP2 PUSH2 0x1418 JUMP JUMPDEST SWAP1 POP SWAP2 SWAP1 POP JUMP JUMPDEST PUSH1 0x0 DUP2 SWAP1 POP SWAP3 SWAP2 POP POP JUMP JUMPDEST POP JUMP JUMPDEST PUSH1 0x0 PUSH2 0x1476 PUSH1 0x0 DUP4 PUSH2 0x145B JUMP JUMPDEST SWAP2 POP PUSH2 0x1481 DUP3 PUSH2 0x1466 JUMP JUMPDEST PUSH1 0x0 DUP3 ADD SWAP1 POP SWAP2 SWAP1 POP JUMP JUMPDEST PUSH1 0x0 PUSH2 0x1497 DUP3 PUSH2 0x1469 JUMP JUMPDEST SWAP2 POP DUP2 SWAP1 POP SWAP2 SWAP1 POP JUMP JUMPDEST PUSH32 0x534675656C4469737472696275746F723A205769746864726177616C20666169 PUSH1 0x0 DUP3 ADD MSTORE PUSH32 0x6C65640000000000000000000000000000000000000000000000000000000000 PUSH1 0x20 DUP3 ADD MSTORE POP JUMP JUMPDEST PUSH1 0x0 PUSH2 0x14FD PUSH1 0x23 DUP4 PUSH2 0x134C JUMP JUMPDEST SWAP2 POP PUSH2 0x1508 DUP3 PUSH2 0x14A1 JUMP JUMPDEST PUSH1 0x40 DUP3 ADD SWAP1 POP SWAP2 SWAP1 POP JUMP JUMPDEST PUSH1 0x0 PUSH1 0x20 DUP3 ADD SWAP1 POP DUP2 DUP2 SUB PUSH1 0x0 DUP4 ADD MSTORE PUSH2 0x152C DUP2 PUSH2 0x14F0 JUMP JUMPDEST SWAP1 POP SWAP2 SWAP1 POP JUMP JUMPDEST PUSH32 0x534675656C4469737472696275746F723A204E6F742077686974656C69737465 PUSH1 0x0 DUP3 ADD MSTORE PUSH32 0x6400000000000000000000000000000000000000000000000000000000000000 PUSH1 0x20 DUP3 ADD MSTORE POP JUMP JUMPDEST PUSH1 0x0 PUSH2 0x158F PUSH1 0x21 DUP4 PUSH2 0x134C JUMP JUMPDEST SWAP2 POP PUSH2 0x159A DUP3 PUSH2 0x1533 JUMP JUMPDEST PUSH1 0x40 DUP3 ADD SWAP1 POP SWAP2 SWAP1 POP JUMP JUMPDEST PUSH1 0x0 PUSH1 0x20 DUP3 ADD SWAP1 POP DUP2 DUP2 SUB PUSH1 0x0 DUP4 ADD MSTORE PUSH2 0x15BE DUP2 PUSH2 0x1582 JUMP JUMPDEST SWAP1 POP SWAP2 SWAP1 POP JUMP JUMPDEST PUSH32 0x534675656C4469737472696275746F723A20416C72656164792077686974656C PUSH1 0x0 DUP3 ADD MSTORE PUSH32 0x6973746564000000000000000000000000000000000000000000000000000000 PUSH1 0x20 DUP3 ADD MSTORE POP JUMP JUMPDEST PUSH1 0x0 PUSH2 0x1621 PUSH1 0x25 DUP4 PUSH2 0x134C JUMP JUMPDEST SWAP2 POP PUSH2 0x162C DUP3 PUSH2 0x15C5 JUMP JUMPDEST PUSH1 0x40 DUP3 ADD SWAP1 POP SWAP2 SWAP1 POP JUMP JUMPDEST PUSH1 0x0 PUSH1 0x20 DUP3 ADD SWAP1 POP DUP2 DUP2 SUB PUSH1 0x0 DUP4 ADD MSTORE PUSH2 0x1650 DUP2 PUSH2 0x1614 JUMP JUMPDEST SWAP1 POP SWAP2 SWAP1 POP JUMP JUMPDEST PUSH32 0x534675656C4469737472696275746F723A20436F6E7472616374206F7574206F PUSH1 0x0 DUP3 ADD MSTORE PUSH32 0x6620734655454C00000000000000000000000000000000000000000000000000 PUSH1 0x20 DUP3 ADD MSTORE POP JUMP JUMPDEST PUSH1 0x0 PUSH2 0x16B3 PUSH1 0x27 DUP4 PUSH2 0x134C JUMP JUMPDEST SWAP2 POP PUSH2 0x16BE DUP3 PUSH2 0x1657 JUMP JUMPDEST PUSH1 0x40 DUP3 ADD SWAP1 POP SWAP2 SWAP1 POP JUMP JUMPDEST PUSH1 0x0 PUSH1 0x20 DUP3 ADD SWAP1 POP DUP2 DUP2 SUB PUSH1 0x0 DUP4 ADD MSTORE PUSH2 0x16E2 DUP2 PUSH2 0x16A6 JUMP JUMPDEST SWAP1 POP SWAP2 SWAP1 POP JUMP JUMPDEST PUSH32 0x534675656C4469737472696275746F723A20734655454C207472616E73666572 PUSH1 0x0 DUP3 ADD MSTORE PUSH32 0x206661696C656400000000000000000000000000000000000000000000000000 PUSH1 0x20 DUP3 ADD MSTORE POP JUMP JUMPDEST PUSH1 0x0 PUSH2 0x1745 PUSH1 0x27 DUP4 PUSH2 0x134C JUMP JUMPDEST SWAP2 POP PUSH2 0x1750 DUP3 PUSH2 0x16E9 JUMP JUMPDEST PUSH1 0x40 DUP3 ADD SWAP1 POP SWAP2 SWAP1 POP JUMP JUMPDEST PUSH1 0x0 PUSH1 0x20 DUP3 ADD SWAP1 POP DUP2 DUP2 SUB PUSH1 0x0 DUP4 ADD MSTORE PUSH2 0x1774 DUP2 PUSH2 0x1738 JUMP JUMPDEST SWAP1 POP SWAP2 SWAP1 POP JUMP JUMPDEST PUSH32 0x4E487B7100000000000000000000000000000000000000000000000000000000 PUSH1 0x0 MSTORE PUSH1 0x11 PUSH1 0x4 MSTORE PUSH1 0x24 PUSH1 0x0 REVERT JUMPDEST PUSH1 0x0 PUSH2 0x17B5 DUP3 PUSH2 0x1167 JUMP JUMPDEST SWAP2 POP PUSH2 0x17C0 DUP4 PUSH2 0x1167 JUMP JUMPDEST SWAP3 POP DUP3 DUP3 ADD SWAP1 POP DUP1 DUP3 GT ISZERO PUSH2 0x17D8 JUMPI PUSH2 0x17D7 PUSH2 0x177B JUMP JUMPDEST JUMPDEST SWAP3 SWAP2 POP POP JUMP JUMPDEST PUSH32 0x534675656C4469737472696275746F723A20496E76616C696420546872657368 PUSH1 0x0 DUP3 ADD MSTORE PUSH32 0x6F6C640000000000000000000000000000000000000000000000000000000000 PUSH1 0x20 DUP3 ADD MSTORE POP JUMP JUMPDEST PUSH1 0x0 PUSH2 0x183A PUSH1 0x23 DUP4 PUSH2 0x134C JUMP JUMPDEST SWAP2 POP PUSH2 0x1845 DUP3 PUSH2 0x17DE JUMP JUMPDEST PUSH1 0x40 DUP3 ADD SWAP1 POP SWAP2 SWAP1 POP JUMP JUMPDEST PUSH1 0x0 PUSH1 0x20 DUP3 ADD SWAP1 POP DUP2 DUP2 SUB PUSH1 0x0 DUP4 ADD MSTORE PUSH2 0x1869 DUP2 PUSH2 0x182D JUMP JUMPDEST SWAP1 POP SWAP2 SWAP1 POP JUMP JUMPDEST PUSH2 0x1879 DUP2 PUSH2 0x12A1 JUMP JUMPDEST DUP3 MSTORE POP POP JUMP JUMPDEST PUSH1 0x0 PUSH1 0x40 DUP3 ADD SWAP1 POP PUSH2 0x1894 PUSH1 0x0 DUP4 ADD DUP6 PUSH2 0x1870 JUMP JUMPDEST PUSH2 0x18A1 PUSH1 0x20 DUP4 ADD DUP5 PUSH2 0x1257 JUMP JUMPDEST SWAP4 SWAP3 POP POP POP JUMP INVALID LOG2 PUSH5 0x6970667358 0x22 SLT KECCAK256 0xBE 0xAF ISZERO 0xE2 0xE7 SHR 0xBB 0xBD 0xB2 DELEGATECALL SIGNEXTEND DUP6 LOG1 0xDE SUB CODECOPY JUMP 0xE8 LT SWAP13 0xB0 DUP16 CALLER 0x23 PUSH26 0xE528D4C279A55464736F6C634300081B00330000000000000000 "},"methodIdentifiers":{"DEFAULT_ADMIN_ROLE()":"a217fddf","MANAGER_ROLE()":"ec87621c","WHITELIST_ROLE()":"7a997ab7","cooldownPeriod()":"04646a49","distributionAmount()":"b0e0c681","getRoleAdmin(bytes32)":"248a9ca3","grantRole(bytes32,address)":"2f2ff15d","hasRole(bytes32,address)":"91d14854","isEligibleForDistribution(address)":"c68e95de","lastDistribution(address)":"44b50bfc","removeFromWhitelist(address)":"8ab1d681","renounceRole(bytes32,address)":"36568abe","revokeRole(bytes32,address)":"d547741f","supportsInterface(bytes4)":"01ffc9a7","threshold()":"42cde4e8","updateCooldownPeriod(uint256)":"861f6bfd","updateDistributionAmount(uint256)":"19862364","updateThreshold(uint256)":"d7d7442f","whitelist(address)":"9b19251a","withdraw()":"3ccfd60b"}}}}}