{
  "_format": "hh-sol-artifact-1",
  "contractName": "LMSToken",
  "sourceName": "contracts/LMS Token.sol",
  "abi": [
    {
      "inputs": [
        {
          "internalType": "address[]",
          "name": "_reviewers",
          "type": "address[]"
        }
      ],
      "stateMutability": "nonpayable",
      "type": "constructor"
    },
    {
      "inputs": [],
      "name": "AccessControlBadConfirmation",
      "type": "error"
    },
    {
      "inputs": [
        {
          "internalType": "address",
          "name": "account",
          "type": "address"
        },
        {
          "internalType": "bytes32",
          "name": "neededRole",
          "type": "bytes32"
        }
      ],
      "name": "AccessControlUnauthorizedAccount",
      "type": "error"
    },
    {
      "inputs": [
        {
          "internalType": "address",
          "name": "spender",
          "type": "address"
        },
        {
          "internalType": "uint256",
          "name": "allowance",
          "type": "uint256"
        },
        {
          "internalType": "uint256",
          "name": "needed",
          "type": "uint256"
        }
      ],
      "name": "ERC20InsufficientAllowance",
      "type": "error"
    },
    {
      "inputs": [
        {
          "internalType": "address",
          "name": "sender",
          "type": "address"
        },
        {
          "internalType": "uint256",
          "name": "balance",
          "type": "uint256"
        },
        {
          "internalType": "uint256",
          "name": "needed",
          "type": "uint256"
        }
      ],
      "name": "ERC20InsufficientBalance",
      "type": "error"
    },
    {
      "inputs": [
        {
          "internalType": "address",
          "name": "approver",
          "type": "address"
        }
      ],
      "name": "ERC20InvalidApprover",
      "type": "error"
    },
    {
      "inputs": [
        {
          "internalType": "address",
          "name": "receiver",
          "type": "address"
        }
      ],
      "name": "ERC20InvalidReceiver",
      "type": "error"
    },
    {
      "inputs": [
        {
          "internalType": "address",
          "name": "sender",
          "type": "address"
        }
      ],
      "name": "ERC20InvalidSender",
      "type": "error"
    },
    {
      "inputs": [
        {
          "internalType": "address",
          "name": "spender",
          "type": "address"
        }
      ],
      "name": "ERC20InvalidSpender",
      "type": "error"
    },
    {
      "anonymous": false,
      "inputs": [
        {
          "indexed": true,
          "internalType": "address",
          "name": "owner",
          "type": "address"
        },
        {
          "indexed": true,
          "internalType": "address",
          "name": "spender",
          "type": "address"
        },
        {
          "indexed": false,
          "internalType": "uint256",
          "name": "value",
          "type": "uint256"
        }
      ],
      "name": "Approval",
      "type": "event"
    },
    {
      "anonymous": false,
      "inputs": [
        {
          "indexed": true,
          "internalType": "address",
          "name": "_account",
          "type": "address"
        },
        {
          "indexed": false,
          "internalType": "uint256",
          "name": "_amount",
          "type": "uint256"
        }
      ],
      "name": "BurnSuccess",
      "type": "event"
    },
    {
      "anonymous": false,
      "inputs": [
        {
          "indexed": true,
          "internalType": "address",
          "name": "_to",
          "type": "address"
        },
        {
          "indexed": true,
          "internalType": "uint256",
          "name": "_amount",
          "type": "uint256"
        }
      ],
      "name": "MintSuccess",
      "type": "event"
    },
    {
      "anonymous": false,
      "inputs": [
        {
          "indexed": true,
          "internalType": "uint256",
          "name": "proposalId",
          "type": "uint256"
        },
        {
          "indexed": false,
          "internalType": "address",
          "name": "approver",
          "type": "address"
        }
      ],
      "name": "MultiSigProposalApproved",
      "type": "event"
    },
    {
      "anonymous": false,
      "inputs": [
        {
          "indexed": true,
          "internalType": "uint256",
          "name": "proposalId",
          "type": "uint256"
        },
        {
          "indexed": false,
          "internalType": "address",
          "name": "proposer",
          "type": "address"
        }
      ],
      "name": "MultiSigProposalCreated",
      "type": "event"
    },
    {
      "anonymous": false,
      "inputs": [
        {
          "indexed": true,
          "internalType": "uint256",
          "name": "proposalId",
          "type": "uint256"
        }
      ],
      "name": "MultiSigProposalExecuted",
      "type": "event"
    },
    {
      "anonymous": false,
      "inputs": [
        {
          "indexed": true,
          "internalType": "address",
          "name": "reviewer",
          "type": "address"
        }
      ],
      "name": "ReviewerAddedToPool",
      "type": "event"
    },
    {
      "anonymous": false,
      "inputs": [
        {
          "indexed": true,
          "internalType": "address",
          "name": "reviewer",
          "type": "address"
        }
      ],
      "name": "ReviewerRemovedFromPool",
      "type": "event"
    },
    {
      "anonymous": false,
      "inputs": [
        {
          "indexed": true,
          "internalType": "bytes32",
          "name": "role",
          "type": "bytes32"
        },
        {
          "indexed": true,
          "internalType": "bytes32",
          "name": "previousAdminRole",
          "type": "bytes32"
        },
        {
          "indexed": true,
          "internalType": "bytes32",
          "name": "newAdminRole",
          "type": "bytes32"
        }
      ],
      "name": "RoleAdminChanged",
      "type": "event"
    },
    {
      "anonymous": false,
      "inputs": [
        {
          "indexed": true,
          "internalType": "bytes32",
          "name": "role",
          "type": "bytes32"
        },
        {
          "indexed": true,
          "internalType": "address",
          "name": "account",
          "type": "address"
        },
        {
          "indexed": true,
          "internalType": "address",
          "name": "sender",
          "type": "address"
        }
      ],
      "name": "RoleGranted",
      "type": "event"
    },
    {
      "anonymous": false,
      "inputs": [
        {
          "indexed": true,
          "internalType": "bytes32",
          "name": "role",
          "type": "bytes32"
        },
        {
          "indexed": true,
          "internalType": "address",
          "name": "account",
          "type": "address"
        },
        {
          "indexed": true,
          "internalType": "address",
          "name": "sender",
          "type": "address"
        }
      ],
      "name": "RoleRevoked",
      "type": "event"
    },
    {
      "anonymous": false,
      "inputs": [
        {
          "indexed": true,
          "internalType": "address",
          "name": "from",
          "type": "address"
        },
        {
          "indexed": true,
          "internalType": "address",
          "name": "to",
          "type": "address"
        },
        {
          "indexed": false,
          "internalType": "uint256",
          "name": "value",
          "type": "uint256"
        }
      ],
      "name": "Transfer",
      "type": "event"
    },
    {
      "inputs": [],
      "name": "DEFAULT_ADMIN_ROLE",
      "outputs": [
        {
          "internalType": "bytes32",
          "name": "",
          "type": "bytes32"
        }
      ],
      "stateMutability": "view",
      "type": "function"
    },
    {
      "inputs": [],
      "name": "MAX_SUPPLY",
      "outputs": [
        {
          "internalType": "uint256",
          "name": "",
          "type": "uint256"
        }
      ],
      "stateMutability": "view",
      "type": "function"
    },
    {
      "inputs": [],
      "name": "MULTISIG_APPROVER",
      "outputs": [
        {
          "internalType": "bytes32",
          "name": "",
          "type": "bytes32"
        }
      ],
      "stateMutability": "view",
      "type": "function"
    },
    {
      "inputs": [],
      "name": "REVIEWER_ROLE",
      "outputs": [
        {
          "internalType": "bytes32",
          "name": "",
          "type": "bytes32"
        }
      ],
      "stateMutability": "view",
      "type": "function"
    },
    {
      "inputs": [
        {
          "internalType": "address",
          "name": "newReviewer",
          "type": "address"
        }
      ],
      "name": "addReviewer",
      "outputs": [],
      "stateMutability": "nonpayable",
      "type": "function"
    },
    {
      "inputs": [
        {
          "internalType": "address",
          "name": "owner",
          "type": "address"
        },
        {
          "internalType": "address",
          "name": "spender",
          "type": "address"
        }
      ],
      "name": "allowance",
      "outputs": [
        {
          "internalType": "uint256",
          "name": "",
          "type": "uint256"
        }
      ],
      "stateMutability": "view",
      "type": "function"
    },
    {
      "inputs": [
        {
          "internalType": "address",
          "name": "spender",
          "type": "address"
        },
        {
          "internalType": "uint256",
          "name": "value",
          "type": "uint256"
        }
      ],
      "name": "approve",
      "outputs": [
        {
          "internalType": "bool",
          "name": "",
          "type": "bool"
        }
      ],
      "stateMutability": "nonpayable",
      "type": "function"
    },
    {
      "inputs": [
        {
          "internalType": "uint256",
          "name": "_proposalId",
          "type": "uint256"
        }
      ],
      "name": "approveMultiSigProposal",
      "outputs": [],
      "stateMutability": "nonpayable",
      "type": "function"
    },
    {
      "inputs": [
        {
          "internalType": "address",
          "name": "account",
          "type": "address"
        }
      ],
      "name": "balanceOf",
      "outputs": [
        {
          "internalType": "uint256",
          "name": "",
          "type": "uint256"
        }
      ],
      "stateMutability": "view",
      "type": "function"
    },
    {
      "inputs": [],
      "name": "decimals",
      "outputs": [
        {
          "internalType": "uint8",
          "name": "",
          "type": "uint8"
        }
      ],
      "stateMutability": "view",
      "type": "function"
    },
    {
      "inputs": [
        {
          "internalType": "bytes32",
          "name": "role",
          "type": "bytes32"
        }
      ],
      "name": "getRoleAdmin",
      "outputs": [
        {
          "internalType": "bytes32",
          "name": "",
          "type": "bytes32"
        }
      ],
      "stateMutability": "view",
      "type": "function"
    },
    {
      "inputs": [
        {
          "internalType": "bytes32",
          "name": "role",
          "type": "bytes32"
        },
        {
          "internalType": "address",
          "name": "account",
          "type": "address"
        }
      ],
      "name": "grantRole",
      "outputs": [],
      "stateMutability": "nonpayable",
      "type": "function"
    },
    {
      "inputs": [
        {
          "internalType": "bytes32",
          "name": "role",
          "type": "bytes32"
        },
        {
          "internalType": "address",
          "name": "account",
          "type": "address"
        }
      ],
      "name": "hasRole",
      "outputs": [
        {
          "internalType": "bool",
          "name": "",
          "type": "bool"
        }
      ],
      "stateMutability": "view",
      "type": "function"
    },
    {
      "inputs": [
        {
          "internalType": "address",
          "name": "",
          "type": "address"
        }
      ],
      "name": "isInReviewerPool",
      "outputs": [
        {
          "internalType": "bool",
          "name": "",
          "type": "bool"
        }
      ],
      "stateMutability": "view",
      "type": "function"
    },
    {
      "inputs": [
        {
          "internalType": "address",
          "name": "account",
          "type": "address"
        }
      ],
      "name": "isReviewer",
      "outputs": [
        {
          "internalType": "bool",
          "name": "",
          "type": "bool"
        }
      ],
      "stateMutability": "view",
      "type": "function"
    },
    {
      "inputs": [
        {
          "internalType": "uint256",
          "name": "",
          "type": "uint256"
        }
      ],
      "name": "multiSigProposals",
      "outputs": [
        {
          "internalType": "uint256",
          "name": "id",
          "type": "uint256"
        },
        {
          "internalType": "address",
          "name": "proposer",
          "type": "address"
        },
        {
          "internalType": "address",
          "name": "targetContract",
          "type": "address"
        },
        {
          "internalType": "bytes",
          "name": "data",
          "type": "bytes"
        },
        {
          "internalType": "uint256",
          "name": "approvalCount",
          "type": "uint256"
        },
        {
          "internalType": "bool",
          "name": "executed",
          "type": "bool"
        }
      ],
      "stateMutability": "view",
      "type": "function"
    },
    {
      "inputs": [],
      "name": "name",
      "outputs": [
        {
          "internalType": "string",
          "name": "",
          "type": "string"
        }
      ],
      "stateMutability": "view",
      "type": "function"
    },
    {
      "inputs": [
        {
          "internalType": "address",
          "name": "reviewer",
          "type": "address"
        }
      ],
      "name": "removeReviewer",
      "outputs": [],
      "stateMutability": "nonpayable",
      "type": "function"
    },
    {
      "inputs": [
        {
          "internalType": "bytes32",
          "name": "role",
          "type": "bytes32"
        },
        {
          "internalType": "address",
          "name": "callerConfirmation",
          "type": "address"
        }
      ],
      "name": "renounceRole",
      "outputs": [],
      "stateMutability": "nonpayable",
      "type": "function"
    },
    {
      "inputs": [
        {
          "internalType": "uint256",
          "name": "",
          "type": "uint256"
        }
      ],
      "name": "reviewerPool",
      "outputs": [
        {
          "internalType": "address",
          "name": "",
          "type": "address"
        }
      ],
      "stateMutability": "view",
      "type": "function"
    },
    {
      "inputs": [
        {
          "internalType": "bytes32",
          "name": "role",
          "type": "bytes32"
        },
        {
          "internalType": "address",
          "name": "account",
          "type": "address"
        }
      ],
      "name": "revokeRole",
      "outputs": [],
      "stateMutability": "nonpayable",
      "type": "function"
    },
    {
      "inputs": [
        {
          "internalType": "bytes4",
          "name": "interfaceId",
          "type": "bytes4"
        }
      ],
      "name": "supportsInterface",
      "outputs": [
        {
          "internalType": "bool",
          "name": "",
          "type": "bool"
        }
      ],
      "stateMutability": "view",
      "type": "function"
    },
    {
      "inputs": [],
      "name": "symbol",
      "outputs": [
        {
          "internalType": "string",
          "name": "",
          "type": "string"
        }
      ],
      "stateMutability": "view",
      "type": "function"
    },
    {
      "inputs": [],
      "name": "totalSupply",
      "outputs": [
        {
          "internalType": "uint256",
          "name": "",
          "type": "uint256"
        }
      ],
      "stateMutability": "view",
      "type": "function"
    },
    {
      "inputs": [
        {
          "internalType": "address",
          "name": "to",
          "type": "address"
        },
        {
          "internalType": "uint256",
          "name": "value",
          "type": "uint256"
        }
      ],
      "name": "transfer",
      "outputs": [
        {
          "internalType": "bool",
          "name": "",
          "type": "bool"
        }
      ],
      "stateMutability": "nonpayable",
      "type": "function"
    },
    {
      "inputs": [
        {
          "internalType": "address",
          "name": "from",
          "type": "address"
        },
        {
          "internalType": "address",
          "name": "to",
          "type": "address"
        },
        {
          "internalType": "uint256",
          "name": "value",
          "type": "uint256"
        }
      ],
      "name": "transferFrom",
      "outputs": [
        {
          "internalType": "bool",
          "name": "",
          "type": "bool"
        }
      ],
      "stateMutability": "nonpayable",
      "type": "function"
    }
  ],
  "bytecode": "0x608060405234801561001057600080fd5b5060405161301f38038061301f833981810160405281019061003291906105e0565b6040518060400160405280600a81526020017f4142594120544f4b454e000000000000000000000000000000000000000000008152506040518060400160405280600681526020017f414259544b4e000000000000000000000000000000000000000000000000000081525081600390816100ad919061084a565b5080600490816100bd919061084a565b505050600481511015610105576040517f08c379a00000000000000000000000000000000000000000000000000000000081526004016100fc9061099f565b60405180910390fd5b6101186000801b336102a460201b60201c565b506101497fdf1425bae297c2f52b4f15d18a50b1fc8cb5b981a981b1d213ed3ff92681b64d336102a460201b60201c565b5060005b815181101561029d576101a07fc10c77be35aff266144ed64c26a1fa104bae2f284ae99ac4a34203454704a18583838151811061018d5761018c6109bf565b5b60200260200101516102a460201b60201c565b5060068282815181106101b6576101b56109bf565b5b60200260200101519080600181540180825580915050600190039060005260206000200160009091909190916101000a81548173ffffffffffffffffffffffffffffffffffffffff021916908373ffffffffffffffffffffffffffffffffffffffff160217905550600160086000848481518110610237576102366109bf565b5b602002602001015173ffffffffffffffffffffffffffffffffffffffff1673ffffffffffffffffffffffffffffffffffffffff16815260200190815260200160002060006101000a81548160ff021916908315150217905550808060010191505061014d565b50506109ee565b60006102b683836103a260201b60201c565b6103975760016005600085815260200190815260200160002060000160008473ffffffffffffffffffffffffffffffffffffffff1673ffffffffffffffffffffffffffffffffffffffff16815260200190815260200160002060006101000a81548160ff02191690831515021790555061033461040d60201b60201c565b73ffffffffffffffffffffffffffffffffffffffff168273ffffffffffffffffffffffffffffffffffffffff16847f2f8788117e7eff1d82e926ec794901d17c78024a50270940304540a733656f0d60405160405180910390a46001905061039c565b600090505b92915050565b60006005600084815260200190815260200160002060000160008373ffffffffffffffffffffffffffffffffffffffff1673ffffffffffffffffffffffffffffffffffffffff16815260200190815260200160002060009054906101000a900460ff16905092915050565b600033905090565b6000604051905090565b600080fd5b600080fd5b600080fd5b6000601f19601f8301169050919050565b7f4e487b7100000000000000000000000000000000000000000000000000000000600052604160045260246000fd5b6104778261042e565b810181811067ffffffffffffffff821117156104965761049561043f565b5b80604052505050565b60006104a9610415565b90506104b5828261046e565b919050565b600067ffffffffffffffff8211156104d5576104d461043f565b5b602082029050602081019050919050565b600080fd5b600073ffffffffffffffffffffffffffffffffffffffff82169050919050565b6000610516826104eb565b9050919050565b6105268161050b565b811461053157600080fd5b50565b6000815190506105438161051d565b92915050565b600061055c610557846104ba565b61049f565b9050808382526020820190506020840283018581111561057f5761057e6104e6565b5b835b818110156105a857806105948882610534565b845260208401935050602081019050610581565b5050509392505050565b600082601f8301126105c7576105c6610429565b5b81516105d7848260208601610549565b91505092915050565b6000602082840312156105f6576105f561041f565b5b600082015167ffffffffffffffff81111561061457610613610424565b5b610620848285016105b2565b91505092915050565b600081519050919050565b7f4e487b7100000000000000000000000000000000000000000000000000000000600052602260045260246000fd5b6000600282049050600182168061067b57607f821691505b60208210810361068e5761068d610634565b5b50919050565b60008190508160005260206000209050919050565b60006020601f8301049050919050565b600082821b905092915050565b6000600883026106f67fffffffffffffffffffffffffffffffffffffffffffffffffffffffffffffffff826106b9565b61070086836106b9565b95508019841693508086168417925050509392505050565b6000819050919050565b6000819050919050565b600061074761074261073d84610718565b610722565b610718565b9050919050565b6000819050919050565b6107618361072c565b61077561076d8261074e565b8484546106c6565b825550505050565b600090565b61078a61077d565b610795818484610758565b505050565b5b818110156107b9576107ae600082610782565b60018101905061079b565b5050565b601f8211156107fe576107cf81610694565b6107d8846106a9565b810160208510156107e7578190505b6107fb6107f3856106a9565b83018261079a565b50505b505050565b600082821c905092915050565b600061082160001984600802610803565b1980831691505092915050565b600061083a8383610810565b9150826002028217905092915050565b61085382610629565b67ffffffffffffffff81111561086c5761086b61043f565b5b6108768254610663565b6108818282856107bd565b600060209050601f8311600181146108b457600084156108a2578287015190505b6108ac858261082e565b865550610914565b601f1984166108c286610694565b60005b828110156108ea578489015182556001820191506020850194506020810190506108c5565b868310156109075784890151610903601f891682610810565b8355505b6001600288020188555050505b505050505050565b600082825260208201905092915050565b7f4174206c6561737420342072657669657765727320617265207265717569726560008201527f6400000000000000000000000000000000000000000000000000000000000000602082015250565b600061098960218361091c565b91506109948261092d565b604082019050919050565b600060208201905081810360008301526109b88161097c565b9050919050565b7f4e487b7100000000000000000000000000000000000000000000000000000000600052603260045260246000fd5b612622806109fd6000396000f3fe608060405234801561001057600080fd5b506004361061018e5760003560e01c806352994e2f116100de578063a9059cbb11610097578063c9442dac11610071578063c9442dac146104d8578063d547741f146104f4578063dd62ed3e14610510578063fdc6258a146105405761018e565b8063a9059cbb1461045c578063bad0dd651461048c578063c491b04c146104a85761018e565b806352994e2f1461038657806370a08231146103a457806373a82b5f146103d457806391d14854146103f057806395d89b4114610420578063a217fddf1461043e5761018e565b8063248a9ca31161014b57806332cb6b0c1161012557806332cb6b0c146102f957806336568abe146103175780633b129a561461033357806340932bf8146103515761018e565b8063248a9ca31461028f5780632f2ff15d146102bf578063313ce567146102db5761018e565b806301ffc9a71461019357806306fdde03146101c3578063095ea7b3146101e157806318160ddd1461021157806319f102ec1461022f57806323b872dd1461025f575b600080fd5b6101ad60048036038101906101a89190611c2e565b610570565b6040516101ba9190611c76565b60405180910390f35b6101cb6105ea565b6040516101d89190611d21565b60405180910390f35b6101fb60048036038101906101f69190611dd7565b61067c565b6040516102089190611c76565b60405180910390f35b61021961069f565b6040516102269190611e26565b60405180910390f35b61024960048036038101906102449190611e41565b6106a9565b6040516102569190611e7d565b60405180910390f35b61027960048036038101906102749190611e98565b6106e8565b6040516102869190611c76565b60405180910390f35b6102a960048036038101906102a49190611f21565b610717565b6040516102b69190611f5d565b60405180910390f35b6102d960048036038101906102d49190611f78565b610737565b005b6102e3610759565b6040516102f09190611fd4565b60405180910390f35b610301610762565b60405161030e9190611e26565b60405180910390f35b610331600480360381019061032c9190611f78565b610772565b005b61033b6107ed565b6040516103489190611f5d565b60405180910390f35b61036b60048036038101906103669190611e41565b610811565b60405161037d96959493929190612044565b60405180910390f35b61038e610922565b60405161039b9190611f5d565b60405180910390f35b6103be60048036038101906103b991906120ac565b610946565b6040516103cb9190611e26565b60405180910390f35b6103ee60048036038101906103e991906120ac565b61098e565b005b61040a60048036038101906104059190611f78565b610b72565b6040516104179190611c76565b60405180910390f35b610428610bdd565b6040516104359190611d21565b60405180910390f35b610446610c6f565b6040516104539190611f5d565b60405180910390f35b61047660048036038101906104719190611dd7565b610c76565b6040516104839190611c76565b60405180910390f35b6104a660048036038101906104a19190611e41565b610c99565b005b6104c260048036038101906104bd91906120ac565b610f98565b6040516104cf9190611c76565b60405180910390f35b6104f260048036038101906104ed91906120ac565b610fb8565b005b61050e60048036038101906105099190611f78565b6112a2565b005b61052a600480360381019061052591906120d9565b6112c4565b6040516105379190611e26565b60405180910390f35b61055a600480360381019061055591906120ac565b61134b565b6040516105679190611c76565b60405180910390f35b60007f7965db0b000000000000000000000000000000000000000000000000000000007bffffffffffffffffffffffffffffffffffffffffffffffffffffffff1916827bffffffffffffffffffffffffffffffffffffffffffffffffffffffff191614806105e357506105e28261137e565b5b9050919050565b6060600380546105f990612148565b80601f016020809104026020016040519081016040528092919081815260200182805461062590612148565b80156106725780601f1061064757610100808354040283529160200191610672565b820191906000526020600020905b81548152906001019060200180831161065557829003601f168201915b5050505050905090565b6000806106876113e8565b90506106948185856113f0565b600191505092915050565b6000600254905090565b600681815481106106b957600080fd5b906000526020600020016000915054906101000a900473ffffffffffffffffffffffffffffffffffffffff1681565b6000806106f36113e8565b9050610700858285611402565b61070b858585611497565b60019150509392505050565b600060056000838152602001908152602001600020600101549050919050565b61074082610717565b6107498161158b565b610753838361159f565b50505050565b60006012905090565b6b204fce5e3e2502611000000081565b61077a6113e8565b73ffffffffffffffffffffffffffffffffffffffff168173ffffffffffffffffffffffffffffffffffffffff16146107de576040517f6697b23200000000000000000000000000000000000000000000000000000000815260040160405180910390fd5b6107e88282611691565b505050565b7fc10c77be35aff266144ed64c26a1fa104bae2f284ae99ac4a34203454704a18581565b60096020528060005260406000206000915090508060000154908060010160009054906101000a900473ffffffffffffffffffffffffffffffffffffffff16908060020160009054906101000a900473ffffffffffffffffffffffffffffffffffffffff169080600301805461088690612148565b80601f01602080910402602001604051908101604052809291908181526020018280546108b290612148565b80156108ff5780601f106108d4576101008083540402835291602001916108ff565b820191906000526020600020905b8154815290600101906020018083116108e257829003601f168201915b5050505050908060040154908060050160009054906101000a900460ff16905086565b7fdf1425bae297c2f52b4f15d18a50b1fc8cb5b981a981b1d213ed3ff92681b64d81565b60008060008373ffffffffffffffffffffffffffffffffffffffff1673ffffffffffffffffffffffffffffffffffffffff168152602001908152602001600020549050919050565b7fc10c77be35aff266144ed64c26a1fa104bae2f284ae99ac4a34203454704a1856109b88161158b565b600860008373ffffffffffffffffffffffffffffffffffffffff1673ffffffffffffffffffffffffffffffffffffffff16815260200190815260200160002060009054906101000a900460ff1615610a45576040517f08c379a0000000000000000000000000000000000000000000000000000000008152600401610a3c906121c5565b60405180910390fd5b610a6f7fc10c77be35aff266144ed64c26a1fa104bae2f284ae99ac4a34203454704a1858361159f565b506006829080600181540180825580915050600190039060005260206000200160009091909190916101000a81548173ffffffffffffffffffffffffffffffffffffffff021916908373ffffffffffffffffffffffffffffffffffffffff1602179055506001600860008473ffffffffffffffffffffffffffffffffffffffff1673ffffffffffffffffffffffffffffffffffffffff16815260200190815260200160002060006101000a81548160ff0219169083151502179055508173ffffffffffffffffffffffffffffffffffffffff167fe1cb5e1230cc02e62c60b81c1aa5ade512f3eac296edb28628b4cf344f47f93160405160405180910390a25050565b60006005600084815260200190815260200160002060000160008373ffffffffffffffffffffffffffffffffffffffff1673ffffffffffffffffffffffffffffffffffffffff16815260200190815260200160002060009054906101000a900460ff16905092915050565b606060048054610bec90612148565b80601f0160208091040260200160405190810160405280929190818152602001828054610c1890612148565b8015610c655780601f10610c3a57610100808354040283529160200191610c65565b820191906000526020600020905b815481529060010190602001808311610c4857829003601f168201915b5050505050905090565b6000801b81565b600080610c816113e8565b9050610c8e818585611497565b600191505092915050565b7fdf1425bae297c2f52b4f15d18a50b1fc8cb5b981a981b1d213ed3ff92681b64d610cc38161158b565b60006009600084815260200190815260200160002090508060050160009054906101000a900460ff1615610d2c576040517f08c379a0000000000000000000000000000000000000000000000000000000008152600401610d2390612231565b60405180910390fd5b8060060160003373ffffffffffffffffffffffffffffffffffffffff1673ffffffffffffffffffffffffffffffffffffffff16815260200190815260200160002060009054906101000a900460ff1615610dbb576040517f08c379a0000000000000000000000000000000000000000000000000000000008152600401610db29061229d565b60405180910390fd5b60018160060160003373ffffffffffffffffffffffffffffffffffffffff1673ffffffffffffffffffffffffffffffffffffffff16815260200190815260200160002060006101000a81548160ff021916908315150217905550806004016000815480929190610e2a906122ec565b9190505550827f5d4ccf5f92566d140246f4ae3b9cb35dc06fff109a7748602ad77f6260fd9a6133604051610e5f9190611e7d565b60405180910390a26003816004015410610f935760008160020160009054906101000a900473ffffffffffffffffffffffffffffffffffffffff1673ffffffffffffffffffffffffffffffffffffffff1682600301604051610ec191906123d7565b6000604051808303816000865af19150503d8060008114610efe576040519150601f19603f3d011682016040523d82523d6000602084013e610f03565b606091505b5050905080610f47576040517f08c379a0000000000000000000000000000000000000000000000000000000008152600401610f3e9061243a565b60405180910390fd5b60018260050160006101000a81548160ff021916908315150217905550837f7770356c29230b95943aec59d47ead11eb426a728bf5b57f7fd8597f3c0e29ba60405160405180910390a2505b505050565b60086020528060005260406000206000915054906101000a900460ff1681565b6000801b610fc58161158b565b600860008373ffffffffffffffffffffffffffffffffffffffff1673ffffffffffffffffffffffffffffffffffffffff16815260200190815260200160002060009054906101000a900460ff16611051576040517f08c379a0000000000000000000000000000000000000000000000000000000008152600401611048906124a6565b60405180910390fd5b60005b6006805490508110156111d7578273ffffffffffffffffffffffffffffffffffffffff166006828154811061108c5761108b6124c6565b5b9060005260206000200160009054906101000a900473ffffffffffffffffffffffffffffffffffffffff1673ffffffffffffffffffffffffffffffffffffffff16036111ca57600660016006805490506110e691906124f5565b815481106110f7576110f66124c6565b5b9060005260206000200160009054906101000a900473ffffffffffffffffffffffffffffffffffffffff1660068281548110611136576111356124c6565b5b9060005260206000200160006101000a81548173ffffffffffffffffffffffffffffffffffffffff021916908373ffffffffffffffffffffffffffffffffffffffff16021790555060068054806111905761118f612529565b5b6001900381819060005260206000200160006101000a81549073ffffffffffffffffffffffffffffffffffffffff021916905590556111d7565b8080600101915050611054565b506000600860008473ffffffffffffffffffffffffffffffffffffffff1673ffffffffffffffffffffffffffffffffffffffff16815260200190815260200160002060006101000a81548160ff02191690831515021790555061125a7fc10c77be35aff266144ed64c26a1fa104bae2f284ae99ac4a34203454704a18583611691565b508173ffffffffffffffffffffffffffffffffffffffff167f55dba9d79522b91b615629d5f3b10c2fad2d258f1768614f4a52e937ada0d0ba60405160405180910390a25050565b6112ab82610717565b6112b48161158b565b6112be8383611691565b50505050565b6000600160008473ffffffffffffffffffffffffffffffffffffffff1673ffffffffffffffffffffffffffffffffffffffff16815260200190815260200160002060008373ffffffffffffffffffffffffffffffffffffffff1673ffffffffffffffffffffffffffffffffffffffff16815260200190815260200160002054905092915050565b60006113777fc10c77be35aff266144ed64c26a1fa104bae2f284ae99ac4a34203454704a18583610b72565b9050919050565b60007f01ffc9a7000000000000000000000000000000000000000000000000000000007bffffffffffffffffffffffffffffffffffffffffffffffffffffffff1916827bffffffffffffffffffffffffffffffffffffffffffffffffffffffff1916149050919050565b600033905090565b6113fd8383836001611784565b505050565b600061140e84846112c4565b90507fffffffffffffffffffffffffffffffffffffffffffffffffffffffffffffffff8110156114915781811015611481578281836040517ffb8f41b200000000000000000000000000000000000000000000000000000000815260040161147893929190612558565b60405180910390fd5b61149084848484036000611784565b5b50505050565b600073ffffffffffffffffffffffffffffffffffffffff168373ffffffffffffffffffffffffffffffffffffffff16036115095760006040517f96c6fd1e0000000000000000000000000000000000000000000000000000000081526004016115009190611e7d565b60405180910390fd5b600073ffffffffffffffffffffffffffffffffffffffff168273ffffffffffffffffffffffffffffffffffffffff160361157b5760006040517fec442f050000000000000000000000000000000000000000000000000000000081526004016115729190611e7d565b60405180910390fd5b61158683838361195b565b505050565b61159c816115976113e8565b611b80565b50565b60006115ab8383610b72565b6116865760016005600085815260200190815260200160002060000160008473ffffffffffffffffffffffffffffffffffffffff1673ffffffffffffffffffffffffffffffffffffffff16815260200190815260200160002060006101000a81548160ff0219169083151502179055506116236113e8565b73ffffffffffffffffffffffffffffffffffffffff168273ffffffffffffffffffffffffffffffffffffffff16847f2f8788117e7eff1d82e926ec794901d17c78024a50270940304540a733656f0d60405160405180910390a46001905061168b565b600090505b92915050565b600061169d8383610b72565b156117795760006005600085815260200190815260200160002060000160008473ffffffffffffffffffffffffffffffffffffffff1673ffffffffffffffffffffffffffffffffffffffff16815260200190815260200160002060006101000a81548160ff0219169083151502179055506117166113e8565b73ffffffffffffffffffffffffffffffffffffffff168273ffffffffffffffffffffffffffffffffffffffff16847ff6391f5c32d9c69d2a47ea670b442974b53935d1edc7fd64eb21e047a839171b60405160405180910390a46001905061177e565b600090505b92915050565b600073ffffffffffffffffffffffffffffffffffffffff168473ffffffffffffffffffffffffffffffffffffffff16036117f65760006040517fe602df050000000000000000000000000000000000000000000000000000000081526004016117ed9190611e7d565b60405180910390fd5b600073ffffffffffffffffffffffffffffffffffffffff168373ffffffffffffffffffffffffffffffffffffffff16036118685760006040517f94280d6200000000000000000000000000000000000000000000000000000000815260040161185f9190611e7d565b60405180910390fd5b81600160008673ffffffffffffffffffffffffffffffffffffffff1673ffffffffffffffffffffffffffffffffffffffff16815260200190815260200160002060008573ffffffffffffffffffffffffffffffffffffffff1673ffffffffffffffffffffffffffffffffffffffff168152602001908152602001600020819055508015611955578273ffffffffffffffffffffffffffffffffffffffff168473ffffffffffffffffffffffffffffffffffffffff167f8c5be1e5ebec7d5bd14f71427d1e84f3dd0314c0f7b2291e5b200ac8c7c3b9258460405161194c9190611e26565b60405180910390a35b50505050565b600073ffffffffffffffffffffffffffffffffffffffff168373ffffffffffffffffffffffffffffffffffffffff16036119ad5780600260008282546119a1919061258f565b92505081905550611a80565b60008060008573ffffffffffffffffffffffffffffffffffffffff1673ffffffffffffffffffffffffffffffffffffffff16815260200190815260200160002054905081811015611a39578381836040517fe450d38c000000000000000000000000000000000000000000000000000000008152600401611a3093929190612558565b60405180910390fd5b8181036000808673ffffffffffffffffffffffffffffffffffffffff1673ffffffffffffffffffffffffffffffffffffffff16815260200190815260200160002081905550505b600073ffffffffffffffffffffffffffffffffffffffff168273ffffffffffffffffffffffffffffffffffffffff1603611ac95780600260008282540392505081905550611b16565b806000808473ffffffffffffffffffffffffffffffffffffffff1673ffffffffffffffffffffffffffffffffffffffff168152602001908152602001600020600082825401925050819055505b8173ffffffffffffffffffffffffffffffffffffffff168373ffffffffffffffffffffffffffffffffffffffff167fddf252ad1be2c89b69c2b068fc378daa952ba7f163c4a11628f55a4df523b3ef83604051611b739190611e26565b60405180910390a3505050565b611b8a8282610b72565b611bcd5780826040517fe2517d3f000000000000000000000000000000000000000000000000000000008152600401611bc49291906125c3565b60405180910390fd5b5050565b600080fd5b60007fffffffff0000000000000000000000000000000000000000000000000000000082169050919050565b611c0b81611bd6565b8114611c1657600080fd5b50565b600081359050611c2881611c02565b92915050565b600060208284031215611c4457611c43611bd1565b5b6000611c5284828501611c19565b91505092915050565b60008115159050919050565b611c7081611c5b565b82525050565b6000602082019050611c8b6000830184611c67565b92915050565b600081519050919050565b600082825260208201905092915050565b60005b83811015611ccb578082015181840152602081019050611cb0565b60008484015250505050565b6000601f19601f8301169050919050565b6000611cf382611c91565b611cfd8185611c9c565b9350611d0d818560208601611cad565b611d1681611cd7565b840191505092915050565b60006020820190508181036000830152611d3b8184611ce8565b905092915050565b600073ffffffffffffffffffffffffffffffffffffffff82169050919050565b6000611d6e82611d43565b9050919050565b611d7e81611d63565b8114611d8957600080fd5b50565b600081359050611d9b81611d75565b92915050565b6000819050919050565b611db481611da1565b8114611dbf57600080fd5b50565b600081359050611dd181611dab565b92915050565b60008060408385031215611dee57611ded611bd1565b5b6000611dfc85828601611d8c565b9250506020611e0d85828601611dc2565b9150509250929050565b611e2081611da1565b82525050565b6000602082019050611e3b6000830184611e17565b92915050565b600060208284031215611e5757611e56611bd1565b5b6000611e6584828501611dc2565b91505092915050565b611e7781611d63565b82525050565b6000602082019050611e926000830184611e6e565b92915050565b600080600060608486031215611eb157611eb0611bd1565b5b6000611ebf86828701611d8c565b9350506020611ed086828701611d8c565b9250506040611ee186828701611dc2565b9150509250925092565b6000819050919050565b611efe81611eeb565b8114611f0957600080fd5b50565b600081359050611f1b81611ef5565b92915050565b600060208284031215611f3757611f36611bd1565b5b6000611f4584828501611f0c565b91505092915050565b611f5781611eeb565b82525050565b6000602082019050611f726000830184611f4e565b92915050565b60008060408385031215611f8f57611f8e611bd1565b5b6000611f9d85828601611f0c565b9250506020611fae85828601611d8c565b9150509250929050565b600060ff82169050919050565b611fce81611fb8565b82525050565b6000602082019050611fe96000830184611fc5565b92915050565b600081519050919050565b600082825260208201905092915050565b600061201682611fef565b6120208185611ffa565b9350612030818560208601611cad565b61203981611cd7565b840191505092915050565b600060c0820190506120596000830189611e17565b6120666020830188611e6e565b6120736040830187611e6e565b8181036060830152612085818661200b565b90506120946080830185611e17565b6120a160a0830184611c67565b979650505050505050565b6000602082840312156120c2576120c1611bd1565b5b60006120d084828501611d8c565b91505092915050565b600080604083850312156120f0576120ef611bd1565b5b60006120fe85828601611d8c565b925050602061210f85828601611d8c565b9150509250929050565b7f4e487b7100000000000000000000000000000000000000000000000000000000600052602260045260246000fd5b6000600282049050600182168061216057607f821691505b60208210810361217357612172612119565b5b50919050565b7f416c726561647920696e20726576696577657220706f6f6c0000000000000000600082015250565b60006121af601883611c9c565b91506121ba82612179565b602082019050919050565b600060208201905081810360008301526121de816121a2565b9050919050565b7f50726f706f73616c20616c726561647920657865637574656400000000000000600082015250565b600061221b601983611c9c565b9150612226826121e5565b602082019050919050565b6000602082019050818103600083015261224a8161220e565b9050919050565b7f416c726561647920617070726f76656400000000000000000000000000000000600082015250565b6000612287601083611c9c565b915061229282612251565b602082019050919050565b600060208201905081810360008301526122b68161227a565b9050919050565b7f4e487b7100000000000000000000000000000000000000000000000000000000600052601160045260246000fd5b60006122f782611da1565b91507fffffffffffffffffffffffffffffffffffffffffffffffffffffffffffffffff8203612329576123286122bd565b5b600182019050919050565b600081905092915050565b60008190508160005260206000209050919050565b6000815461236181612148565b61236b8186612334565b94506001821660008114612386576001811461239b576123ce565b60ff19831686528115158202860193506123ce565b6123a48561233f565b60005b838110156123c6578154818901526001820191506020810190506123a7565b838801955050505b50505092915050565b60006123e38284612354565b915081905092915050565b7f50726f706f73616c20657865637574696f6e206661696c656400000000000000600082015250565b6000612424601983611c9c565b915061242f826123ee565b602082019050919050565b6000602082019050818103600083015261245381612417565b9050919050565b7f4e6f7420696e20726576696577657220706f6f6c000000000000000000000000600082015250565b6000612490601483611c9c565b915061249b8261245a565b602082019050919050565b600060208201905081810360008301526124bf81612483565b9050919050565b7f4e487b7100000000000000000000000000000000000000000000000000000000600052603260045260246000fd5b600061250082611da1565b915061250b83611da1565b9250828203905081811115612523576125226122bd565b5b92915050565b7f4e487b7100000000000000000000000000000000000000000000000000000000600052603160045260246000fd5b600060608201905061256d6000830186611e6e565b61257a6020830185611e17565b6125876040830184611e17565b949350505050565b600061259a82611da1565b91506125a583611da1565b92508282019050808211156125bd576125bc6122bd565b5b92915050565b60006040820190506125d86000830185611e6e565b6125e56020830184611f4e565b939250505056fea26469706673582212205de9c4ebd4841d1ccc6306d324e416c455c4d1074651f4d9e6635ad2078bddd964736f6c634300081b0033",
  "linkReferences": {},
  "deployedLinkReferences": {}
}