{
  "_format": "hh-sol-artifact-1",
  "contractName": "LMSToken",
  "sourceName": "contracts/LMS Token.sol",
  "abi": [
    {
      "inputs": [
        {
          "internalType": "address[]",
          "name": "_reviewers",
          "type": "address[]"
        }
      ],
      "stateMutability": "nonpayable",
      "type": "constructor"
    },
    {
      "inputs": [],
      "name": "AccessControlBadConfirmation",
      "type": "error"
    },
    {
      "inputs": [
        {
          "internalType": "address",
          "name": "account",
          "type": "address"
        },
        {
          "internalType": "bytes32",
          "name": "neededRole",
          "type": "bytes32"
        }
      ],
      "name": "AccessControlUnauthorizedAccount",
      "type": "error"
    },
    {
      "inputs": [
        {
          "internalType": "address",
          "name": "spender",
          "type": "address"
        },
        {
          "internalType": "uint256",
          "name": "allowance",
          "type": "uint256"
        },
        {
          "internalType": "uint256",
          "name": "needed",
          "type": "uint256"
        }
      ],
      "name": "ERC20InsufficientAllowance",
      "type": "error"
    },
    {
      "inputs": [
        {
          "internalType": "address",
          "name": "sender",
          "type": "address"
        },
        {
          "internalType": "uint256",
          "name": "balance",
          "type": "uint256"
        },
        {
          "internalType": "uint256",
          "name": "needed",
          "type": "uint256"
        }
      ],
      "name": "ERC20InsufficientBalance",
      "type": "error"
    },
    {
      "inputs": [
        {
          "internalType": "address",
          "name": "approver",
          "type": "address"
        }
      ],
      "name": "ERC20InvalidApprover",
      "type": "error"
    },
    {
      "inputs": [
        {
          "internalType": "address",
          "name": "receiver",
          "type": "address"
        }
      ],
      "name": "ERC20InvalidReceiver",
      "type": "error"
    },
    {
      "inputs": [
        {
          "internalType": "address",
          "name": "sender",
          "type": "address"
        }
      ],
      "name": "ERC20InvalidSender",
      "type": "error"
    },
    {
      "inputs": [
        {
          "internalType": "address",
          "name": "spender",
          "type": "address"
        }
      ],
      "name": "ERC20InvalidSpender",
      "type": "error"
    },
    {
      "anonymous": false,
      "inputs": [
        {
          "indexed": true,
          "internalType": "address",
          "name": "owner",
          "type": "address"
        },
        {
          "indexed": true,
          "internalType": "address",
          "name": "spender",
          "type": "address"
        },
        {
          "indexed": false,
          "internalType": "uint256",
          "name": "value",
          "type": "uint256"
        }
      ],
      "name": "Approval",
      "type": "event"
    },
    {
      "anonymous": false,
      "inputs": [
        {
          "indexed": true,
          "internalType": "address",
          "name": "_account",
          "type": "address"
        },
        {
          "indexed": false,
          "internalType": "uint256",
          "name": "_amount",
          "type": "uint256"
        }
      ],
      "name": "BurnSuccess",
      "type": "event"
    },
    {
      "anonymous": false,
      "inputs": [
        {
          "indexed": true,
          "internalType": "address",
          "name": "_to",
          "type": "address"
        },
        {
          "indexed": true,
          "internalType": "uint256",
          "name": "_amount",
          "type": "uint256"
        }
      ],
      "name": "MintSuccess",
      "type": "event"
    },
    {
      "anonymous": false,
      "inputs": [
        {
          "indexed": true,
          "internalType": "address",
          "name": "reviewer",
          "type": "address"
        }
      ],
      "name": "ReviewerAddedToPool",
      "type": "event"
    },
    {
      "anonymous": false,
      "inputs": [
        {
          "indexed": true,
          "internalType": "address",
          "name": "reviewer",
          "type": "address"
        }
      ],
      "name": "ReviewerRemovedFromPool",
      "type": "event"
    },
    {
      "anonymous": false,
      "inputs": [
        {
          "indexed": true,
          "internalType": "bytes32",
          "name": "role",
          "type": "bytes32"
        },
        {
          "indexed": true,
          "internalType": "bytes32",
          "name": "previousAdminRole",
          "type": "bytes32"
        },
        {
          "indexed": true,
          "internalType": "bytes32",
          "name": "newAdminRole",
          "type": "bytes32"
        }
      ],
      "name": "RoleAdminChanged",
      "type": "event"
    },
    {
      "anonymous": false,
      "inputs": [
        {
          "indexed": true,
          "internalType": "bytes32",
          "name": "role",
          "type": "bytes32"
        },
        {
          "indexed": true,
          "internalType": "address",
          "name": "account",
          "type": "address"
        },
        {
          "indexed": true,
          "internalType": "address",
          "name": "sender",
          "type": "address"
        }
      ],
      "name": "RoleGranted",
      "type": "event"
    },
    {
      "anonymous": false,
      "inputs": [
        {
          "indexed": true,
          "internalType": "bytes32",
          "name": "role",
          "type": "bytes32"
        },
        {
          "indexed": true,
          "internalType": "address",
          "name": "account",
          "type": "address"
        },
        {
          "indexed": true,
          "internalType": "address",
          "name": "sender",
          "type": "address"
        }
      ],
      "name": "RoleRevoked",
      "type": "event"
    },
    {
      "anonymous": false,
      "inputs": [
        {
          "indexed": true,
          "internalType": "address",
          "name": "from",
          "type": "address"
        },
        {
          "indexed": true,
          "internalType": "address",
          "name": "to",
          "type": "address"
        },
        {
          "indexed": false,
          "internalType": "uint256",
          "name": "value",
          "type": "uint256"
        }
      ],
      "name": "Transfer",
      "type": "event"
    },
    {
      "inputs": [],
      "name": "DEFAULT_ADMIN_ROLE",
      "outputs": [
        {
          "internalType": "bytes32",
          "name": "",
          "type": "bytes32"
        }
      ],
      "stateMutability": "view",
      "type": "function"
    },
    {
      "inputs": [],
      "name": "MAX_SUPPLY",
      "outputs": [
        {
          "internalType": "uint256",
          "name": "",
          "type": "uint256"
        }
      ],
      "stateMutability": "view",
      "type": "function"
    },
    {
      "inputs": [],
      "name": "REVIEWER_ROLE",
      "outputs": [
        {
          "internalType": "bytes32",
          "name": "",
          "type": "bytes32"
        }
      ],
      "stateMutability": "view",
      "type": "function"
    },
    {
      "inputs": [
        {
          "internalType": "address",
          "name": "newReviewer",
          "type": "address"
        }
      ],
      "name": "addReviewer",
      "outputs": [],
      "stateMutability": "nonpayable",
      "type": "function"
    },
    {
      "inputs": [
        {
          "internalType": "address",
          "name": "owner",
          "type": "address"
        },
        {
          "internalType": "address",
          "name": "spender",
          "type": "address"
        }
      ],
      "name": "allowance",
      "outputs": [
        {
          "internalType": "uint256",
          "name": "",
          "type": "uint256"
        }
      ],
      "stateMutability": "view",
      "type": "function"
    },
    {
      "inputs": [
        {
          "internalType": "address",
          "name": "spender",
          "type": "address"
        },
        {
          "internalType": "uint256",
          "name": "value",
          "type": "uint256"
        }
      ],
      "name": "approve",
      "outputs": [
        {
          "internalType": "bool",
          "name": "",
          "type": "bool"
        }
      ],
      "stateMutability": "nonpayable",
      "type": "function"
    },
    {
      "inputs": [
        {
          "internalType": "address",
          "name": "account",
          "type": "address"
        }
      ],
      "name": "balanceOf",
      "outputs": [
        {
          "internalType": "uint256",
          "name": "",
          "type": "uint256"
        }
      ],
      "stateMutability": "view",
      "type": "function"
    },
    {
      "inputs": [],
      "name": "decimals",
      "outputs": [
        {
          "internalType": "uint8",
          "name": "",
          "type": "uint8"
        }
      ],
      "stateMutability": "view",
      "type": "function"
    },
    {
      "inputs": [
        {
          "internalType": "bytes32",
          "name": "role",
          "type": "bytes32"
        }
      ],
      "name": "getRoleAdmin",
      "outputs": [
        {
          "internalType": "bytes32",
          "name": "",
          "type": "bytes32"
        }
      ],
      "stateMutability": "view",
      "type": "function"
    },
    {
      "inputs": [
        {
          "internalType": "bytes32",
          "name": "role",
          "type": "bytes32"
        },
        {
          "internalType": "address",
          "name": "account",
          "type": "address"
        }
      ],
      "name": "grantRole",
      "outputs": [],
      "stateMutability": "nonpayable",
      "type": "function"
    },
    {
      "inputs": [
        {
          "internalType": "bytes32",
          "name": "role",
          "type": "bytes32"
        },
        {
          "internalType": "address",
          "name": "account",
          "type": "address"
        }
      ],
      "name": "hasRole",
      "outputs": [
        {
          "internalType": "bool",
          "name": "",
          "type": "bool"
        }
      ],
      "stateMutability": "view",
      "type": "function"
    },
    {
      "inputs": [
        {
          "internalType": "address",
          "name": "",
          "type": "address"
        }
      ],
      "name": "isInReviewerPool",
      "outputs": [
        {
          "internalType": "bool",
          "name": "",
          "type": "bool"
        }
      ],
      "stateMutability": "view",
      "type": "function"
    },
    {
      "inputs": [
        {
          "internalType": "address",
          "name": "account",
          "type": "address"
        }
      ],
      "name": "isReviewer",
      "outputs": [
        {
          "internalType": "bool",
          "name": "",
          "type": "bool"
        }
      ],
      "stateMutability": "view",
      "type": "function"
    },
    {
      "inputs": [],
      "name": "name",
      "outputs": [
        {
          "internalType": "string",
          "name": "",
          "type": "string"
        }
      ],
      "stateMutability": "view",
      "type": "function"
    },
    {
      "inputs": [
        {
          "internalType": "address",
          "name": "reviewer",
          "type": "address"
        }
      ],
      "name": "removeReviewer",
      "outputs": [],
      "stateMutability": "nonpayable",
      "type": "function"
    },
    {
      "inputs": [
        {
          "internalType": "bytes32",
          "name": "role",
          "type": "bytes32"
        },
        {
          "internalType": "address",
          "name": "callerConfirmation",
          "type": "address"
        }
      ],
      "name": "renounceRole",
      "outputs": [],
      "stateMutability": "nonpayable",
      "type": "function"
    },
    {
      "inputs": [
        {
          "internalType": "uint256",
          "name": "",
          "type": "uint256"
        }
      ],
      "name": "reviewerPool",
      "outputs": [
        {
          "internalType": "address",
          "name": "",
          "type": "address"
        }
      ],
      "stateMutability": "view",
      "type": "function"
    },
    {
      "inputs": [
        {
          "internalType": "bytes32",
          "name": "role",
          "type": "bytes32"
        },
        {
          "internalType": "address",
          "name": "account",
          "type": "address"
        }
      ],
      "name": "revokeRole",
      "outputs": [],
      "stateMutability": "nonpayable",
      "type": "function"
    },
    {
      "inputs": [
        {
          "internalType": "bytes4",
          "name": "interfaceId",
          "type": "bytes4"
        }
      ],
      "name": "supportsInterface",
      "outputs": [
        {
          "internalType": "bool",
          "name": "",
          "type": "bool"
        }
      ],
      "stateMutability": "view",
      "type": "function"
    },
    {
      "inputs": [],
      "name": "symbol",
      "outputs": [
        {
          "internalType": "string",
          "name": "",
          "type": "string"
        }
      ],
      "stateMutability": "view",
      "type": "function"
    },
    {
      "inputs": [],
      "name": "totalSupply",
      "outputs": [
        {
          "internalType": "uint256",
          "name": "",
          "type": "uint256"
        }
      ],
      "stateMutability": "view",
      "type": "function"
    },
    {
      "inputs": [
        {
          "internalType": "address",
          "name": "to",
          "type": "address"
        },
        {
          "internalType": "uint256",
          "name": "value",
          "type": "uint256"
        }
      ],
      "name": "transfer",
      "outputs": [
        {
          "internalType": "bool",
          "name": "",
          "type": "bool"
        }
      ],
      "stateMutability": "nonpayable",
      "type": "function"
    },
    {
      "inputs": [
        {
          "internalType": "address",
          "name": "from",
          "type": "address"
        },
        {
          "internalType": "address",
          "name": "to",
          "type": "address"
        },
        {
          "internalType": "uint256",
          "name": "value",
          "type": "uint256"
        }
      ],
      "name": "transferFrom",
      "outputs": [
        {
          "internalType": "bool",
          "name": "",
          "type": "bool"
        }
      ],
      "stateMutability": "nonpayable",
      "type": "function"
    }
  ],
  "bytecode": "0x608060405234801561001057600080fd5b50604051612717380380612717833981810160405281019061003291906104c0565b6040518060400160405280600a81526020017f4142594120544f4b454e000000000000000000000000000000000000000000008152506040518060400160405280600681526020017f414259544b4e000000000000000000000000000000000000000000000000000081525081600390816100ad919061072a565b5080600490816100bd919061072a565b505050600481511015610105576040517f08c379a00000000000000000000000000000000000000000000000000000000081526004016100fc9061087f565b60405180910390fd5b6101186000801b3361018460201b60201c565b5060005b815181101561017d5761016f7fc10c77be35aff266144ed64c26a1fa104bae2f284ae99ac4a34203454704a18583838151811061015c5761015b61089f565b5b602002602001015161018460201b60201c565b50808060010191505061011c565b50506108ce565b6000610196838361028260201b60201c565b6102775760016005600085815260200190815260200160002060000160008473ffffffffffffffffffffffffffffffffffffffff1673ffffffffffffffffffffffffffffffffffffffff16815260200190815260200160002060006101000a81548160ff0219169083151502179055506102146102ed60201b60201c565b73ffffffffffffffffffffffffffffffffffffffff168273ffffffffffffffffffffffffffffffffffffffff16847f2f8788117e7eff1d82e926ec794901d17c78024a50270940304540a733656f0d60405160405180910390a46001905061027c565b600090505b92915050565b60006005600084815260200190815260200160002060000160008373ffffffffffffffffffffffffffffffffffffffff1673ffffffffffffffffffffffffffffffffffffffff16815260200190815260200160002060009054906101000a900460ff16905092915050565b600033905090565b6000604051905090565b600080fd5b600080fd5b600080fd5b6000601f19601f8301169050919050565b7f4e487b7100000000000000000000000000000000000000000000000000000000600052604160045260246000fd5b6103578261030e565b810181811067ffffffffffffffff821117156103765761037561031f565b5b80604052505050565b60006103896102f5565b9050610395828261034e565b919050565b600067ffffffffffffffff8211156103b5576103b461031f565b5b602082029050602081019050919050565b600080fd5b600073ffffffffffffffffffffffffffffffffffffffff82169050919050565b60006103f6826103cb565b9050919050565b610406816103eb565b811461041157600080fd5b50565b600081519050610423816103fd565b92915050565b600061043c6104378461039a565b61037f565b9050808382526020820190506020840283018581111561045f5761045e6103c6565b5b835b8181101561048857806104748882610414565b845260208401935050602081019050610461565b5050509392505050565b600082601f8301126104a7576104a6610309565b5b81516104b7848260208601610429565b91505092915050565b6000602082840312156104d6576104d56102ff565b5b600082015167ffffffffffffffff8111156104f4576104f3610304565b5b61050084828501610492565b91505092915050565b600081519050919050565b7f4e487b7100000000000000000000000000000000000000000000000000000000600052602260045260246000fd5b6000600282049050600182168061055b57607f821691505b60208210810361056e5761056d610514565b5b50919050565b60008190508160005260206000209050919050565b60006020601f8301049050919050565b600082821b905092915050565b6000600883026105d67fffffffffffffffffffffffffffffffffffffffffffffffffffffffffffffffff82610599565b6105e08683610599565b95508019841693508086168417925050509392505050565b6000819050919050565b6000819050919050565b600061062761062261061d846105f8565b610602565b6105f8565b9050919050565b6000819050919050565b6106418361060c565b61065561064d8261062e565b8484546105a6565b825550505050565b600090565b61066a61065d565b610675818484610638565b505050565b5b818110156106995761068e600082610662565b60018101905061067b565b5050565b601f8211156106de576106af81610574565b6106b884610589565b810160208510156106c7578190505b6106db6106d385610589565b83018261067a565b50505b505050565b600082821c905092915050565b6000610701600019846008026106e3565b1980831691505092915050565b600061071a83836106f0565b9150826002028217905092915050565b61073382610509565b67ffffffffffffffff81111561074c5761074b61031f565b5b6107568254610543565b61076182828561069d565b600060209050601f8311600181146107945760008415610782578287015190505b61078c858261070e565b8655506107f4565b601f1984166107a286610574565b60005b828110156107ca578489015182556001820191506020850194506020810190506107a5565b868310156107e757848901516107e3601f8916826106f0565b8355505b6001600288020188555050505b505050505050565b600082825260208201905092915050565b7f4174206c6561737420342072657669657765727320617265207265717569726560008201527f6400000000000000000000000000000000000000000000000000000000000000602082015250565b60006108696021836107fc565b91506108748261080d565b604082019050919050565b600060208201905081810360008301526108988161085c565b9050919050565b7f4e487b7100000000000000000000000000000000000000000000000000000000600052603260045260246000fd5b611e3a806108dd6000396000f3fe608060405234801561001057600080fd5b506004361061014d5760003560e01c80633b129a56116100c3578063a9059cbb1161007c578063a9059cbb146103c8578063c491b04c146103f8578063c9442dac14610428578063d547741f14610444578063dd62ed3e14610460578063fdc6258a146104905761014d565b80633b129a56146102f257806370a082311461031057806373a82b5f1461034057806391d148541461035c57806395d89b411461038c578063a217fddf146103aa5761014d565b806323b872dd1161011557806323b872dd1461021e578063248a9ca31461024e5780632f2ff15d1461027e578063313ce5671461029a57806332cb6b0c146102b857806336568abe146102d65761014d565b806301ffc9a71461015257806306fdde0314610182578063095ea7b3146101a057806318160ddd146101d057806319f102ec146101ee575b600080fd5b61016c60048036038101906101679190611749565b6104c0565b6040516101799190611791565b60405180910390f35b61018a61053a565b604051610197919061183c565b60405180910390f35b6101ba60048036038101906101b591906118f2565b6105cc565b6040516101c79190611791565b60405180910390f35b6101d86105ef565b6040516101e59190611941565b60405180910390f35b6102086004803603810190610203919061195c565b6105f9565b6040516102159190611998565b60405180910390f35b610238600480360381019061023391906119b3565b610638565b6040516102459190611791565b60405180910390f35b61026860048036038101906102639190611a3c565b610667565b6040516102759190611a78565b60405180910390f35b61029860048036038101906102939190611a93565b610687565b005b6102a26106a9565b6040516102af9190611aef565b60405180910390f35b6102c06106b2565b6040516102cd9190611941565b60405180910390f35b6102f060048036038101906102eb9190611a93565b6106c2565b005b6102fa61073d565b6040516103079190611a78565b60405180910390f35b61032a60048036038101906103259190611b0a565b610761565b6040516103379190611941565b60405180910390f35b61035a60048036038101906103559190611b0a565b6107a9565b005b61037660048036038101906103719190611a93565b61098d565b6040516103839190611791565b60405180910390f35b6103946109f8565b6040516103a1919061183c565b60405180910390f35b6103b2610a8a565b6040516103bf9190611a78565b60405180910390f35b6103e260048036038101906103dd91906118f2565b610a91565b6040516103ef9190611791565b60405180910390f35b610412600480360381019061040d9190611b0a565b610ab4565b60405161041f9190611791565b60405180910390f35b610442600480360381019061043d9190611b0a565b610ad4565b005b61045e60048036038101906104599190611a93565b610dbe565b005b61047a60048036038101906104759190611b37565b610de0565b6040516104879190611941565b60405180910390f35b6104aa60048036038101906104a59190611b0a565b610e67565b6040516104b79190611791565b60405180910390f35b60007f7965db0b000000000000000000000000000000000000000000000000000000007bffffffffffffffffffffffffffffffffffffffffffffffffffffffff1916827bffffffffffffffffffffffffffffffffffffffffffffffffffffffff19161480610533575061053282610e9a565b5b9050919050565b60606003805461054990611ba6565b80601f016020809104026020016040519081016040528092919081815260200182805461057590611ba6565b80156105c25780601f10610597576101008083540402835291602001916105c2565b820191906000526020600020905b8154815290600101906020018083116105a557829003601f168201915b5050505050905090565b6000806105d7610f04565b90506105e4818585610f0c565b600191505092915050565b6000600254905090565b6006818154811061060957600080fd5b906000526020600020016000915054906101000a900473ffffffffffffffffffffffffffffffffffffffff1681565b600080610643610f04565b9050610650858285610f1e565b61065b858585610fb2565b60019150509392505050565b600060056000838152602001908152602001600020600101549050919050565b61069082610667565b610699816110a6565b6106a383836110ba565b50505050565b60006012905090565b6b204fce5e3e2502611000000081565b6106ca610f04565b73ffffffffffffffffffffffffffffffffffffffff168173ffffffffffffffffffffffffffffffffffffffff161461072e576040517f6697b23200000000000000000000000000000000000000000000000000000000815260040160405180910390fd5b61073882826111ac565b505050565b7fc10c77be35aff266144ed64c26a1fa104bae2f284ae99ac4a34203454704a18581565b60008060008373ffffffffffffffffffffffffffffffffffffffff1673ffffffffffffffffffffffffffffffffffffffff168152602001908152602001600020549050919050565b7fc10c77be35aff266144ed64c26a1fa104bae2f284ae99ac4a34203454704a1856107d3816110a6565b600760008373ffffffffffffffffffffffffffffffffffffffff1673ffffffffffffffffffffffffffffffffffffffff16815260200190815260200160002060009054906101000a900460ff1615610860576040517f08c379a000000000000000000000000000000000000000000000000000000000815260040161085790611c23565b60405180910390fd5b61088a7fc10c77be35aff266144ed64c26a1fa104bae2f284ae99ac4a34203454704a185836110ba565b506006829080600181540180825580915050600190039060005260206000200160009091909190916101000a81548173ffffffffffffffffffffffffffffffffffffffff021916908373ffffffffffffffffffffffffffffffffffffffff1602179055506001600760008473ffffffffffffffffffffffffffffffffffffffff1673ffffffffffffffffffffffffffffffffffffffff16815260200190815260200160002060006101000a81548160ff0219169083151502179055508173ffffffffffffffffffffffffffffffffffffffff167fe1cb5e1230cc02e62c60b81c1aa5ade512f3eac296edb28628b4cf344f47f93160405160405180910390a25050565b60006005600084815260200190815260200160002060000160008373ffffffffffffffffffffffffffffffffffffffff1673ffffffffffffffffffffffffffffffffffffffff16815260200190815260200160002060009054906101000a900460ff16905092915050565b606060048054610a0790611ba6565b80601f0160208091040260200160405190810160405280929190818152602001828054610a3390611ba6565b8015610a805780601f10610a5557610100808354040283529160200191610a80565b820191906000526020600020905b815481529060010190602001808311610a6357829003601f168201915b5050505050905090565b6000801b81565b600080610a9c610f04565b9050610aa9818585610fb2565b600191505092915050565b60076020528060005260406000206000915054906101000a900460ff1681565b6000801b610ae1816110a6565b600760008373ffffffffffffffffffffffffffffffffffffffff1673ffffffffffffffffffffffffffffffffffffffff16815260200190815260200160002060009054906101000a900460ff16610b6d576040517f08c379a0000000000000000000000000000000000000000000000000000000008152600401610b6490611c8f565b60405180910390fd5b60005b600680549050811015610cf3578273ffffffffffffffffffffffffffffffffffffffff1660068281548110610ba857610ba7611caf565b5b9060005260206000200160009054906101000a900473ffffffffffffffffffffffffffffffffffffffff1673ffffffffffffffffffffffffffffffffffffffff1603610ce65760066001600680549050610c029190611d0d565b81548110610c1357610c12611caf565b5b9060005260206000200160009054906101000a900473ffffffffffffffffffffffffffffffffffffffff1660068281548110610c5257610c51611caf565b5b9060005260206000200160006101000a81548173ffffffffffffffffffffffffffffffffffffffff021916908373ffffffffffffffffffffffffffffffffffffffff1602179055506006805480610cac57610cab611d41565b5b6001900381819060005260206000200160006101000a81549073ffffffffffffffffffffffffffffffffffffffff02191690559055610cf3565b8080600101915050610b70565b506000600760008473ffffffffffffffffffffffffffffffffffffffff1673ffffffffffffffffffffffffffffffffffffffff16815260200190815260200160002060006101000a81548160ff021916908315150217905550610d767fc10c77be35aff266144ed64c26a1fa104bae2f284ae99ac4a34203454704a185836111ac565b508173ffffffffffffffffffffffffffffffffffffffff167f55dba9d79522b91b615629d5f3b10c2fad2d258f1768614f4a52e937ada0d0ba60405160405180910390a25050565b610dc782610667565b610dd0816110a6565b610dda83836111ac565b50505050565b6000600160008473ffffffffffffffffffffffffffffffffffffffff1673ffffffffffffffffffffffffffffffffffffffff16815260200190815260200160002060008373ffffffffffffffffffffffffffffffffffffffff1673ffffffffffffffffffffffffffffffffffffffff16815260200190815260200160002054905092915050565b6000610e937fc10c77be35aff266144ed64c26a1fa104bae2f284ae99ac4a34203454704a1858361098d565b9050919050565b60007f01ffc9a7000000000000000000000000000000000000000000000000000000007bffffffffffffffffffffffffffffffffffffffffffffffffffffffff1916827bffffffffffffffffffffffffffffffffffffffffffffffffffffffff1916149050919050565b600033905090565b610f19838383600161129f565b505050565b6000610f2a8484610de0565b90507fffffffffffffffffffffffffffffffffffffffffffffffffffffffffffffffff8114610fac5781811015610f9c578281836040517ffb8f41b2000000000000000000000000000000000000000000000000000000008152600401610f9393929190611d70565b60405180910390fd5b610fab8484848403600061129f565b5b50505050565b600073ffffffffffffffffffffffffffffffffffffffff168373ffffffffffffffffffffffffffffffffffffffff16036110245760006040517f96c6fd1e00000000000000000000000000000000000000000000000000000000815260040161101b9190611998565b60405180910390fd5b600073ffffffffffffffffffffffffffffffffffffffff168273ffffffffffffffffffffffffffffffffffffffff16036110965760006040517fec442f0500000000000000000000000000000000000000000000000000000000815260040161108d9190611998565b60405180910390fd5b6110a1838383611476565b505050565b6110b7816110b2610f04565b61169b565b50565b60006110c6838361098d565b6111a15760016005600085815260200190815260200160002060000160008473ffffffffffffffffffffffffffffffffffffffff1673ffffffffffffffffffffffffffffffffffffffff16815260200190815260200160002060006101000a81548160ff02191690831515021790555061113e610f04565b73ffffffffffffffffffffffffffffffffffffffff168273ffffffffffffffffffffffffffffffffffffffff16847f2f8788117e7eff1d82e926ec794901d17c78024a50270940304540a733656f0d60405160405180910390a4600190506111a6565b600090505b92915050565b60006111b8838361098d565b156112945760006005600085815260200190815260200160002060000160008473ffffffffffffffffffffffffffffffffffffffff1673ffffffffffffffffffffffffffffffffffffffff16815260200190815260200160002060006101000a81548160ff021916908315150217905550611231610f04565b73ffffffffffffffffffffffffffffffffffffffff168273ffffffffffffffffffffffffffffffffffffffff16847ff6391f5c32d9c69d2a47ea670b442974b53935d1edc7fd64eb21e047a839171b60405160405180910390a460019050611299565b600090505b92915050565b600073ffffffffffffffffffffffffffffffffffffffff168473ffffffffffffffffffffffffffffffffffffffff16036113115760006040517fe602df050000000000000000000000000000000000000000000000000000000081526004016113089190611998565b60405180910390fd5b600073ffffffffffffffffffffffffffffffffffffffff168373ffffffffffffffffffffffffffffffffffffffff16036113835760006040517f94280d6200000000000000000000000000000000000000000000000000000000815260040161137a9190611998565b60405180910390fd5b81600160008673ffffffffffffffffffffffffffffffffffffffff1673ffffffffffffffffffffffffffffffffffffffff16815260200190815260200160002060008573ffffffffffffffffffffffffffffffffffffffff1673ffffffffffffffffffffffffffffffffffffffff168152602001908152602001600020819055508015611470578273ffffffffffffffffffffffffffffffffffffffff168473ffffffffffffffffffffffffffffffffffffffff167f8c5be1e5ebec7d5bd14f71427d1e84f3dd0314c0f7b2291e5b200ac8c7c3b925846040516114679190611941565b60405180910390a35b50505050565b600073ffffffffffffffffffffffffffffffffffffffff168373ffffffffffffffffffffffffffffffffffffffff16036114c85780600260008282546114bc9190611da7565b9250508190555061159b565b60008060008573ffffffffffffffffffffffffffffffffffffffff1673ffffffffffffffffffffffffffffffffffffffff16815260200190815260200160002054905081811015611554578381836040517fe450d38c00000000000000000000000000000000000000000000000000000000815260040161154b93929190611d70565b60405180910390fd5b8181036000808673ffffffffffffffffffffffffffffffffffffffff1673ffffffffffffffffffffffffffffffffffffffff16815260200190815260200160002081905550505b600073ffffffffffffffffffffffffffffffffffffffff168273ffffffffffffffffffffffffffffffffffffffff16036115e45780600260008282540392505081905550611631565b806000808473ffffffffffffffffffffffffffffffffffffffff1673ffffffffffffffffffffffffffffffffffffffff168152602001908152602001600020600082825401925050819055505b8173ffffffffffffffffffffffffffffffffffffffff168373ffffffffffffffffffffffffffffffffffffffff167fddf252ad1be2c89b69c2b068fc378daa952ba7f163c4a11628f55a4df523b3ef8360405161168e9190611941565b60405180910390a3505050565b6116a5828261098d565b6116e85780826040517fe2517d3f0000000000000000000000000000000000000000000000000000000081526004016116df929190611ddb565b60405180910390fd5b5050565b600080fd5b60007fffffffff0000000000000000000000000000000000000000000000000000000082169050919050565b611726816116f1565b811461173157600080fd5b50565b6000813590506117438161171d565b92915050565b60006020828403121561175f5761175e6116ec565b5b600061176d84828501611734565b91505092915050565b60008115159050919050565b61178b81611776565b82525050565b60006020820190506117a66000830184611782565b92915050565b600081519050919050565b600082825260208201905092915050565b60005b838110156117e65780820151818401526020810190506117cb565b60008484015250505050565b6000601f19601f8301169050919050565b600061180e826117ac565b61181881856117b7565b93506118288185602086016117c8565b611831816117f2565b840191505092915050565b600060208201905081810360008301526118568184611803565b905092915050565b600073ffffffffffffffffffffffffffffffffffffffff82169050919050565b60006118898261185e565b9050919050565b6118998161187e565b81146118a457600080fd5b50565b6000813590506118b681611890565b92915050565b6000819050919050565b6118cf816118bc565b81146118da57600080fd5b50565b6000813590506118ec816118c6565b92915050565b60008060408385031215611909576119086116ec565b5b6000611917858286016118a7565b9250506020611928858286016118dd565b9150509250929050565b61193b816118bc565b82525050565b60006020820190506119566000830184611932565b92915050565b600060208284031215611972576119716116ec565b5b6000611980848285016118dd565b91505092915050565b6119928161187e565b82525050565b60006020820190506119ad6000830184611989565b92915050565b6000806000606084860312156119cc576119cb6116ec565b5b60006119da868287016118a7565b93505060206119eb868287016118a7565b92505060406119fc868287016118dd565b9150509250925092565b6000819050919050565b611a1981611a06565b8114611a2457600080fd5b50565b600081359050611a3681611a10565b92915050565b600060208284031215611a5257611a516116ec565b5b6000611a6084828501611a27565b91505092915050565b611a7281611a06565b82525050565b6000602082019050611a8d6000830184611a69565b92915050565b60008060408385031215611aaa57611aa96116ec565b5b6000611ab885828601611a27565b9250506020611ac9858286016118a7565b9150509250929050565b600060ff82169050919050565b611ae981611ad3565b82525050565b6000602082019050611b046000830184611ae0565b92915050565b600060208284031215611b2057611b1f6116ec565b5b6000611b2e848285016118a7565b91505092915050565b60008060408385031215611b4e57611b4d6116ec565b5b6000611b5c858286016118a7565b9250506020611b6d858286016118a7565b9150509250929050565b7f4e487b7100000000000000000000000000000000000000000000000000000000600052602260045260246000fd5b60006002820490506001821680611bbe57607f821691505b602082108103611bd157611bd0611b77565b5b50919050565b7f416c726561647920696e20726576696577657220706f6f6c0000000000000000600082015250565b6000611c0d6018836117b7565b9150611c1882611bd7565b602082019050919050565b60006020820190508181036000830152611c3c81611c00565b9050919050565b7f4e6f7420696e20726576696577657220706f6f6c000000000000000000000000600082015250565b6000611c796014836117b7565b9150611c8482611c43565b602082019050919050565b60006020820190508181036000830152611ca881611c6c565b9050919050565b7f4e487b7100000000000000000000000000000000000000000000000000000000600052603260045260246000fd5b7f4e487b7100000000000000000000000000000000000000000000000000000000600052601160045260246000fd5b6000611d18826118bc565b9150611d23836118bc565b9250828203905081811115611d3b57611d3a611cde565b5b92915050565b7f4e487b7100000000000000000000000000000000000000000000000000000000600052603160045260246000fd5b6000606082019050611d856000830186611989565b611d926020830185611932565b611d9f6040830184611932565b949350505050565b6000611db2826118bc565b9150611dbd836118bc565b9250828201905080821115611dd557611dd4611cde565b5b92915050565b6000604082019050611df06000830185611989565b611dfd6020830184611a69565b939250505056fea26469706673582212200efb42c146150b7db17b63166a6766e65647b19246d4a21d74f68367d50fc7d564736f6c634300081b0033",
  "linkReferences": {},
  "deployedLinkReferences": {}
}