{
  "_format": "hh-sol-artifact-1",
  "contractName": "Ecosystem2Facet",
  "sourceName": "contracts/DiamondProxy/Ecosystem2Facet.sol",
  "abi": [
    {
      "inputs": [],
      "name": "AccessControlBadConfirmation",
      "type": "error"
    },
    {
      "inputs": [
        {
          "internalType": "address",
          "name": "account",
          "type": "address"
        },
        {
          "internalType": "bytes32",
          "name": "neededRole",
          "type": "bytes32"
        }
      ],
      "name": "AccessControlUnauthorizedAccount",
      "type": "error"
    },
    {
      "inputs": [],
      "name": "ReentrancyGuardReentrantCall",
      "type": "error"
    },
    {
      "anonymous": false,
      "inputs": [
        {
          "indexed": true,
          "internalType": "uint256",
          "name": "_courseId",
          "type": "uint256"
        },
        {
          "indexed": true,
          "internalType": "uint256",
          "name": "_chaterId",
          "type": "uint256"
        }
      ],
      "name": "ChapterDeletedSuccess",
      "type": "event"
    },
    {
      "anonymous": false,
      "inputs": [
        {
          "indexed": true,
          "internalType": "uint256",
          "name": "_courseId",
          "type": "uint256"
        },
        {
          "indexed": true,
          "internalType": "uint256",
          "name": "_chapterId",
          "type": "uint256"
        },
        {
          "indexed": false,
          "internalType": "string",
          "name": "_chapterName",
          "type": "string"
        }
      ],
      "name": "ChapterEdited",
      "type": "event"
    },
    {
      "anonymous": false,
      "inputs": [
        {
          "indexed": true,
          "internalType": "uint256",
          "name": "_courseId",
          "type": "uint256"
        },
        {
          "indexed": true,
          "internalType": "uint256",
          "name": "numberOfChapters",
          "type": "uint256"
        }
      ],
      "name": "ChaptersAddedSuccessfully",
      "type": "event"
    },
    {
      "anonymous": false,
      "inputs": [
        {
          "indexed": false,
          "internalType": "uint256",
          "name": "questionId",
          "type": "uint256"
        },
        {
          "indexed": false,
          "internalType": "uint256",
          "name": "choiceId",
          "type": "uint256"
        },
        {
          "indexed": false,
          "internalType": "string",
          "name": "option",
          "type": "string"
        }
      ],
      "name": "ChoiceAdded",
      "type": "event"
    },
    {
      "anonymous": false,
      "inputs": [
        {
          "indexed": true,
          "internalType": "address",
          "name": "_to",
          "type": "address"
        },
        {
          "indexed": true,
          "internalType": "uint256",
          "name": "_amount",
          "type": "uint256"
        }
      ],
      "name": "EcosystemPoolUpdate",
      "type": "event"
    },
    {
      "anonymous": false,
      "inputs": [
        {
          "indexed": true,
          "internalType": "uint256",
          "name": "_courseId",
          "type": "uint256"
        },
        {
          "indexed": true,
          "internalType": "address",
          "name": "_by",
          "type": "address"
        }
      ],
      "name": "EnrollmentSuccess",
      "type": "event"
    },
    {
      "anonymous": false,
      "inputs": [
        {
          "indexed": true,
          "internalType": "uint256",
          "name": "_lessonId",
          "type": "uint256"
        },
        {
          "indexed": true,
          "internalType": "string",
          "name": "_lessonName",
          "type": "string"
        },
        {
          "indexed": true,
          "internalType": "uint256",
          "name": "_additonalResources",
          "type": "uint256"
        }
      ],
      "name": "LessonCreationSuccess",
      "type": "event"
    },
    {
      "anonymous": false,
      "inputs": [
        {
          "indexed": true,
          "internalType": "uint256",
          "name": "_chapterId",
          "type": "uint256"
        },
        {
          "indexed": true,
          "internalType": "uint256",
          "name": "_lessonId",
          "type": "uint256"
        }
      ],
      "name": "LessonDeleted",
      "type": "event"
    },
    {
      "anonymous": false,
      "inputs": [
        {
          "indexed": true,
          "internalType": "uint256",
          "name": "_lessonId",
          "type": "uint256"
        },
        {
          "indexed": false,
          "internalType": "string",
          "name": "_lessonName",
          "type": "string"
        }
      ],
      "name": "LessonEdited",
      "type": "event"
    },
    {
      "anonymous": false,
      "inputs": [
        {
          "indexed": true,
          "internalType": "uint256",
          "name": "_chapterId",
          "type": "uint256"
        },
        {
          "indexed": true,
          "internalType": "uint256",
          "name": "_lessonId",
          "type": "uint256"
        },
        {
          "indexed": false,
          "internalType": "address",
          "name": "learner",
          "type": "address"
        }
      ],
      "name": "LessonMarkedAsRead",
      "type": "event"
    },
    {
      "anonymous": false,
      "inputs": [
        {
          "indexed": false,
          "internalType": "uint256",
          "name": "quizId",
          "type": "uint256"
        },
        {
          "indexed": false,
          "internalType": "uint256",
          "name": "questionId",
          "type": "uint256"
        },
        {
          "indexed": false,
          "internalType": "string",
          "name": "questionText",
          "type": "string"
        }
      ],
      "name": "QuestionAdded",
      "type": "event"
    },
    {
      "anonymous": false,
      "inputs": [
        {
          "indexed": true,
          "internalType": "uint256",
          "name": "_quizId",
          "type": "uint256"
        },
        {
          "indexed": true,
          "internalType": "uint256",
          "name": "_questionId",
          "type": "uint256"
        }
      ],
      "name": "QuestionDeleted",
      "type": "event"
    },
    {
      "anonymous": false,
      "inputs": [
        {
          "indexed": true,
          "internalType": "uint256",
          "name": "_quizId",
          "type": "uint256"
        },
        {
          "indexed": true,
          "internalType": "string",
          "name": "_title",
          "type": "string"
        }
      ],
      "name": "QuizCreatedSuccess",
      "type": "event"
    },
    {
      "anonymous": false,
      "inputs": [
        {
          "indexed": true,
          "internalType": "uint256",
          "name": "_lessonId",
          "type": "uint256"
        },
        {
          "indexed": true,
          "internalType": "uint256",
          "name": "_quizId",
          "type": "uint256"
        }
      ],
      "name": "QuizDeleted",
      "type": "event"
    },
    {
      "anonymous": false,
      "inputs": [
        {
          "indexed": true,
          "internalType": "uint256",
          "name": "_lessonId",
          "type": "uint256"
        },
        {
          "indexed": true,
          "internalType": "uint256",
          "name": "_quizId",
          "type": "uint256"
        },
        {
          "indexed": false,
          "internalType": "string",
          "name": "_quizTitle",
          "type": "string"
        }
      ],
      "name": "QuizEdited",
      "type": "event"
    },
    {
      "anonymous": false,
      "inputs": [
        {
          "indexed": true,
          "internalType": "address",
          "name": "learner",
          "type": "address"
        },
        {
          "indexed": false,
          "internalType": "uint256",
          "name": "quizId",
          "type": "uint256"
        },
        {
          "indexed": false,
          "internalType": "uint256",
          "name": "score",
          "type": "uint256"
        }
      ],
      "name": "QuizSubmitted",
      "type": "event"
    },
    {
      "anonymous": false,
      "inputs": [
        {
          "indexed": true,
          "internalType": "uint256",
          "name": "_lessonId",
          "type": "uint256"
        },
        {
          "indexed": true,
          "internalType": "uint256",
          "name": "resourceCount",
          "type": "uint256"
        }
      ],
      "name": "ResourceAddSuccess",
      "type": "event"
    },
    {
      "anonymous": false,
      "inputs": [
        {
          "indexed": true,
          "internalType": "bytes32",
          "name": "role",
          "type": "bytes32"
        },
        {
          "indexed": true,
          "internalType": "bytes32",
          "name": "previousAdminRole",
          "type": "bytes32"
        },
        {
          "indexed": true,
          "internalType": "bytes32",
          "name": "newAdminRole",
          "type": "bytes32"
        }
      ],
      "name": "RoleAdminChanged",
      "type": "event"
    },
    {
      "anonymous": false,
      "inputs": [
        {
          "indexed": true,
          "internalType": "bytes32",
          "name": "role",
          "type": "bytes32"
        },
        {
          "indexed": true,
          "internalType": "address",
          "name": "account",
          "type": "address"
        },
        {
          "indexed": true,
          "internalType": "address",
          "name": "sender",
          "type": "address"
        }
      ],
      "name": "RoleGranted",
      "type": "event"
    },
    {
      "anonymous": false,
      "inputs": [
        {
          "indexed": true,
          "internalType": "bytes32",
          "name": "role",
          "type": "bytes32"
        },
        {
          "indexed": true,
          "internalType": "address",
          "name": "account",
          "type": "address"
        },
        {
          "indexed": true,
          "internalType": "address",
          "name": "sender",
          "type": "address"
        }
      ],
      "name": "RoleRevoked",
      "type": "event"
    },
    {
      "anonymous": false,
      "inputs": [
        {
          "indexed": true,
          "internalType": "uint256",
          "name": "_courseId",
          "type": "uint256"
        },
        {
          "indexed": true,
          "internalType": "address",
          "name": "_by",
          "type": "address"
        }
      ],
      "name": "unEnrollmentSuccess",
      "type": "event"
    },
    {
      "inputs": [],
      "name": "DEFAULT_ADMIN_ROLE",
      "outputs": [
        {
          "internalType": "bytes32",
          "name": "",
          "type": "bytes32"
        }
      ],
      "stateMutability": "view",
      "type": "function"
    },
    {
      "inputs": [
        {
          "internalType": "uint256",
          "name": "_courseId",
          "type": "uint256"
        },
        {
          "internalType": "string[]",
          "name": "_chapters",
          "type": "string[]"
        },
        {
          "internalType": "uint256[]",
          "name": "_durations",
          "type": "uint256[]"
        }
      ],
      "name": "addChapters",
      "outputs": [
        {
          "internalType": "bool",
          "name": "",
          "type": "bool"
        }
      ],
      "stateMutability": "nonpayable",
      "type": "function"
    },
    {
      "inputs": [
        {
          "internalType": "uint256",
          "name": "_chapterId",
          "type": "uint256"
        },
        {
          "internalType": "string",
          "name": "_lessonName",
          "type": "string"
        },
        {
          "internalType": "string",
          "name": "_lessonContent",
          "type": "string"
        }
      ],
      "name": "addLesson",
      "outputs": [],
      "stateMutability": "nonpayable",
      "type": "function"
    },
    {
      "inputs": [
        {
          "internalType": "uint256",
          "name": "_lessonId",
          "type": "uint256"
        },
        {
          "internalType": "enum LibDiamond.ContentType",
          "name": "contentType",
          "type": "uint8"
        },
        {
          "components": [
            {
              "internalType": "enum LibDiamond.ContentType",
              "name": "contentType",
              "type": "uint8"
            },
            {
              "internalType": "string",
              "name": "url",
              "type": "string"
            },
            {
              "internalType": "string",
              "name": "name",
              "type": "string"
            }
          ],
          "internalType": "struct LibDiamond.Resource[]",
          "name": "_resources",
          "type": "tuple[]"
        }
      ],
      "name": "addResourcesToLesson",
      "outputs": [],
      "stateMutability": "nonpayable",
      "type": "function"
    },
    {
      "inputs": [
        {
          "internalType": "uint256",
          "name": "_quizId",
          "type": "uint256"
        },
        {
          "internalType": "string",
          "name": "_questionText",
          "type": "string"
        },
        {
          "internalType": "string[]",
          "name": "_options",
          "type": "string[]"
        },
        {
          "internalType": "uint8",
          "name": "_correctChoiceIndex",
          "type": "uint8"
        }
      ],
      "name": "createQuestionWithChoices",
      "outputs": [],
      "stateMutability": "nonpayable",
      "type": "function"
    },
    {
      "inputs": [
        {
          "internalType": "uint256",
          "name": "_lessonId",
          "type": "uint256"
        },
        {
          "internalType": "string",
          "name": "_title",
          "type": "string"
        }
      ],
      "name": "createQuiz",
      "outputs": [
        {
          "internalType": "uint256",
          "name": "",
          "type": "uint256"
        }
      ],
      "stateMutability": "nonpayable",
      "type": "function"
    },
    {
      "inputs": [
        {
          "internalType": "uint256",
          "name": "_courseId",
          "type": "uint256"
        },
        {
          "internalType": "uint256",
          "name": "_chapterId",
          "type": "uint256"
        }
      ],
      "name": "deleteChapter",
      "outputs": [
        {
          "internalType": "bool",
          "name": "",
          "type": "bool"
        }
      ],
      "stateMutability": "nonpayable",
      "type": "function"
    },
    {
      "inputs": [
        {
          "internalType": "uint256",
          "name": "_chapterId",
          "type": "uint256"
        },
        {
          "internalType": "uint256",
          "name": "_lessonId",
          "type": "uint256"
        }
      ],
      "name": "deleteLesson",
      "outputs": [
        {
          "internalType": "bool",
          "name": "",
          "type": "bool"
        }
      ],
      "stateMutability": "nonpayable",
      "type": "function"
    },
    {
      "inputs": [
        {
          "internalType": "uint256",
          "name": "_quizId",
          "type": "uint256"
        },
        {
          "internalType": "uint256",
          "name": "_questionId",
          "type": "uint256"
        }
      ],
      "name": "deleteQuestion",
      "outputs": [
        {
          "internalType": "bool",
          "name": "",
          "type": "bool"
        }
      ],
      "stateMutability": "nonpayable",
      "type": "function"
    },
    {
      "inputs": [
        {
          "internalType": "uint256",
          "name": "_lessonId",
          "type": "uint256"
        },
        {
          "internalType": "uint256",
          "name": "_quizId",
          "type": "uint256"
        }
      ],
      "name": "deleteQuiz",
      "outputs": [
        {
          "internalType": "bool",
          "name": "",
          "type": "bool"
        }
      ],
      "stateMutability": "nonpayable",
      "type": "function"
    },
    {
      "inputs": [
        {
          "internalType": "uint256",
          "name": "_courseId",
          "type": "uint256"
        },
        {
          "internalType": "uint256",
          "name": "_chapterId",
          "type": "uint256"
        },
        {
          "internalType": "string",
          "name": "_chapterName",
          "type": "string"
        }
      ],
      "name": "editChapter",
      "outputs": [
        {
          "internalType": "bool",
          "name": "",
          "type": "bool"
        }
      ],
      "stateMutability": "nonpayable",
      "type": "function"
    },
    {
      "inputs": [
        {
          "internalType": "uint256",
          "name": "_lessonId",
          "type": "uint256"
        },
        {
          "internalType": "string",
          "name": "_lessonName",
          "type": "string"
        },
        {
          "internalType": "string",
          "name": "_lessonContent",
          "type": "string"
        },
        {
          "components": [
            {
              "internalType": "enum LibDiamond.ContentType",
              "name": "contentType",
              "type": "uint8"
            },
            {
              "internalType": "string",
              "name": "url",
              "type": "string"
            },
            {
              "internalType": "string",
              "name": "name",
              "type": "string"
            }
          ],
          "internalType": "struct LibDiamond.Resource[]",
          "name": "_additionalResources",
          "type": "tuple[]"
        }
      ],
      "name": "editLesson",
      "outputs": [
        {
          "internalType": "bool",
          "name": "",
          "type": "bool"
        }
      ],
      "stateMutability": "nonpayable",
      "type": "function"
    },
    {
      "inputs": [
        {
          "internalType": "uint256",
          "name": "_lessonId",
          "type": "uint256"
        },
        {
          "internalType": "uint256",
          "name": "_quizId",
          "type": "uint256"
        },
        {
          "internalType": "string",
          "name": "_quizTitle",
          "type": "string"
        }
      ],
      "name": "editQuiz",
      "outputs": [],
      "stateMutability": "nonpayable",
      "type": "function"
    },
    {
      "inputs": [
        {
          "internalType": "uint256",
          "name": "_courseId",
          "type": "uint256"
        }
      ],
      "name": "enroll",
      "outputs": [
        {
          "internalType": "bool",
          "name": "",
          "type": "bool"
        }
      ],
      "stateMutability": "nonpayable",
      "type": "function"
    },
    {
      "inputs": [],
      "name": "getAllChapters",
      "outputs": [
        {
          "components": [
            {
              "internalType": "uint256",
              "name": "courseId",
              "type": "uint256"
            },
            {
              "internalType": "uint256",
              "name": "chapterId",
              "type": "uint256"
            },
            {
              "internalType": "string",
              "name": "chapterName",
              "type": "string"
            },
            {
              "internalType": "uint256",
              "name": "duration",
              "type": "uint256"
            },
            {
              "internalType": "bool",
              "name": "exists",
              "type": "bool"
            }
          ],
          "internalType": "struct LibDiamond.Chapter[]",
          "name": "",
          "type": "tuple[]"
        }
      ],
      "stateMutability": "view",
      "type": "function"
    },
    {
      "inputs": [],
      "name": "getAllLessons",
      "outputs": [
        {
          "components": [
            {
              "internalType": "uint256",
              "name": "chapterId",
              "type": "uint256"
            },
            {
              "internalType": "uint256",
              "name": "lessonId",
              "type": "uint256"
            },
            {
              "internalType": "string",
              "name": "lessonName",
              "type": "string"
            },
            {
              "internalType": "string",
              "name": "lessonContent",
              "type": "string"
            },
            {
              "components": [
                {
                  "internalType": "enum LibDiamond.ContentType",
                  "name": "contentType",
                  "type": "uint8"
                },
                {
                  "internalType": "string",
                  "name": "url",
                  "type": "string"
                },
                {
                  "internalType": "string",
                  "name": "name",
                  "type": "string"
                }
              ],
              "internalType": "struct LibDiamond.Resource[10]",
              "name": "additionalResources",
              "type": "tuple[10]"
            },
            {
              "internalType": "uint256",
              "name": "resourceCount",
              "type": "uint256"
            },
            {
              "internalType": "bool",
              "name": "exists",
              "type": "bool"
            }
          ],
          "internalType": "struct LibDiamond.Lesson[]",
          "name": "",
          "type": "tuple[]"
        }
      ],
      "stateMutability": "view",
      "type": "function"
    },
    {
      "inputs": [],
      "name": "getAllQuizzes",
      "outputs": [
        {
          "components": [
            {
              "internalType": "uint256",
              "name": "lessonId",
              "type": "uint256"
            },
            {
              "internalType": "uint256",
              "name": "quizId",
              "type": "uint256"
            },
            {
              "internalType": "string",
              "name": "quizTitle",
              "type": "string"
            },
            {
              "components": [
                {
                  "internalType": "uint256",
                  "name": "quizId",
                  "type": "uint256"
                },
                {
                  "internalType": "uint256",
                  "name": "questionId",
                  "type": "uint256"
                },
                {
                  "internalType": "string",
                  "name": "questionText",
                  "type": "string"
                },
                {
                  "components": [
                    {
                      "internalType": "string",
                      "name": "option",
                      "type": "string"
                    },
                    {
                      "internalType": "bool",
                      "name": "isCorrect",
                      "type": "bool"
                    }
                  ],
                  "internalType": "struct LibDiamond.Choice[]",
                  "name": "choices",
                  "type": "tuple[]"
                }
              ],
              "internalType": "struct LibDiamond.Question[]",
              "name": "questions",
              "type": "tuple[]"
            },
            {
              "internalType": "bool",
              "name": "exists",
              "type": "bool"
            }
          ],
          "internalType": "struct LibDiamond.Quiz[]",
          "name": "",
          "type": "tuple[]"
        }
      ],
      "stateMutability": "view",
      "type": "function"
    },
    {
      "inputs": [
        {
          "internalType": "uint256",
          "name": "_courseId",
          "type": "uint256"
        }
      ],
      "name": "getChapters",
      "outputs": [
        {
          "components": [
            {
              "internalType": "uint256",
              "name": "courseId",
              "type": "uint256"
            },
            {
              "internalType": "uint256",
              "name": "chapterId",
              "type": "uint256"
            },
            {
              "internalType": "string",
              "name": "chapterName",
              "type": "string"
            },
            {
              "internalType": "uint256",
              "name": "duration",
              "type": "uint256"
            },
            {
              "internalType": "bool",
              "name": "exists",
              "type": "bool"
            }
          ],
          "internalType": "struct LibDiamond.Chapter[]",
          "name": "",
          "type": "tuple[]"
        }
      ],
      "stateMutability": "view",
      "type": "function"
    },
    {
      "inputs": [
        {
          "internalType": "uint256",
          "name": "_quizId",
          "type": "uint256"
        }
      ],
      "name": "getQuestionsForQuiz",
      "outputs": [
        {
          "components": [
            {
              "internalType": "uint256",
              "name": "quizId",
              "type": "uint256"
            },
            {
              "internalType": "uint256",
              "name": "questionId",
              "type": "uint256"
            },
            {
              "internalType": "string",
              "name": "questionText",
              "type": "string"
            },
            {
              "components": [
                {
                  "internalType": "string",
                  "name": "option",
                  "type": "string"
                },
                {
                  "internalType": "bool",
                  "name": "isCorrect",
                  "type": "bool"
                }
              ],
              "internalType": "struct LibDiamond.Choice[]",
              "name": "choices",
              "type": "tuple[]"
            }
          ],
          "internalType": "struct LibDiamond.Question[]",
          "name": "",
          "type": "tuple[]"
        }
      ],
      "stateMutability": "view",
      "type": "function"
    },
    {
      "inputs": [
        {
          "internalType": "uint256",
          "name": "_quizId",
          "type": "uint256"
        }
      ],
      "name": "getQuiz",
      "outputs": [
        {
          "components": [
            {
              "internalType": "uint256",
              "name": "lessonId",
              "type": "uint256"
            },
            {
              "internalType": "uint256",
              "name": "quizId",
              "type": "uint256"
            },
            {
              "internalType": "string",
              "name": "quizTitle",
              "type": "string"
            },
            {
              "components": [
                {
                  "internalType": "uint256",
                  "name": "quizId",
                  "type": "uint256"
                },
                {
                  "internalType": "uint256",
                  "name": "questionId",
                  "type": "uint256"
                },
                {
                  "internalType": "string",
                  "name": "questionText",
                  "type": "string"
                },
                {
                  "components": [
                    {
                      "internalType": "string",
                      "name": "option",
                      "type": "string"
                    },
                    {
                      "internalType": "bool",
                      "name": "isCorrect",
                      "type": "bool"
                    }
                  ],
                  "internalType": "struct LibDiamond.Choice[]",
                  "name": "choices",
                  "type": "tuple[]"
                }
              ],
              "internalType": "struct LibDiamond.Question[]",
              "name": "questions",
              "type": "tuple[]"
            },
            {
              "internalType": "bool",
              "name": "exists",
              "type": "bool"
            }
          ],
          "internalType": "struct LibDiamond.Quiz",
          "name": "",
          "type": "tuple"
        }
      ],
      "stateMutability": "view",
      "type": "function"
    },
    {
      "inputs": [
        {
          "internalType": "bytes32",
          "name": "role",
          "type": "bytes32"
        }
      ],
      "name": "getRoleAdmin",
      "outputs": [
        {
          "internalType": "bytes32",
          "name": "",
          "type": "bytes32"
        }
      ],
      "stateMutability": "view",
      "type": "function"
    },
    {
      "inputs": [
        {
          "internalType": "uint256",
          "name": "_courseId",
          "type": "uint256"
        }
      ],
      "name": "getUserCompletedLessonsByCourse",
      "outputs": [
        {
          "internalType": "uint256[]",
          "name": "",
          "type": "uint256[]"
        },
        {
          "internalType": "uint256",
          "name": "",
          "type": "uint256"
        }
      ],
      "stateMutability": "view",
      "type": "function"
    },
    {
      "inputs": [
        {
          "internalType": "bytes32",
          "name": "role",
          "type": "bytes32"
        },
        {
          "internalType": "address",
          "name": "account",
          "type": "address"
        }
      ],
      "name": "grantRole",
      "outputs": [],
      "stateMutability": "nonpayable",
      "type": "function"
    },
    {
      "inputs": [
        {
          "internalType": "bytes32",
          "name": "role",
          "type": "bytes32"
        },
        {
          "internalType": "address",
          "name": "account",
          "type": "address"
        }
      ],
      "name": "hasRole",
      "outputs": [
        {
          "internalType": "bool",
          "name": "",
          "type": "bool"
        }
      ],
      "stateMutability": "view",
      "type": "function"
    },
    {
      "inputs": [
        {
          "internalType": "uint256",
          "name": "_courseId",
          "type": "uint256"
        },
        {
          "internalType": "uint256",
          "name": "_chapterId",
          "type": "uint256"
        },
        {
          "internalType": "uint256",
          "name": "_lessonId",
          "type": "uint256"
        }
      ],
      "name": "markAsRead",
      "outputs": [
        {
          "internalType": "bool",
          "name": "",
          "type": "bool"
        }
      ],
      "stateMutability": "nonpayable",
      "type": "function"
    },
    {
      "inputs": [
        {
          "internalType": "bytes32",
          "name": "role",
          "type": "bytes32"
        },
        {
          "internalType": "address",
          "name": "callerConfirmation",
          "type": "address"
        }
      ],
      "name": "renounceRole",
      "outputs": [],
      "stateMutability": "nonpayable",
      "type": "function"
    },
    {
      "inputs": [
        {
          "internalType": "bytes32",
          "name": "role",
          "type": "bytes32"
        },
        {
          "internalType": "address",
          "name": "account",
          "type": "address"
        }
      ],
      "name": "revokeRole",
      "outputs": [],
      "stateMutability": "nonpayable",
      "type": "function"
    },
    {
      "inputs": [
        {
          "internalType": "uint256",
          "name": "_quizId",
          "type": "uint256"
        },
        {
          "internalType": "uint256[]",
          "name": "_answers",
          "type": "uint256[]"
        }
      ],
      "name": "submitQuiz",
      "outputs": [
        {
          "internalType": "uint256",
          "name": "score",
          "type": "uint256"
        }
      ],
      "stateMutability": "nonpayable",
      "type": "function"
    },
    {
      "inputs": [
        {
          "internalType": "bytes4",
          "name": "interfaceId",
          "type": "bytes4"
        }
      ],
      "name": "supportsInterface",
      "outputs": [
        {
          "internalType": "bool",
          "name": "",
          "type": "bool"
        }
      ],
      "stateMutability": "view",
      "type": "function"
    },
    {
      "inputs": [
        {
          "internalType": "uint256",
          "name": "_courseId",
          "type": "uint256"
        }
      ],
      "name": "unEnroll",
      "outputs": [
        {
          "internalType": "bool",
          "name": "",
          "type": "bool"
        }
      ],
      "stateMutability": "nonpayable",
      "type": "function"
    }
  ],
  "bytecode": "0x6080604052348015600f57600080fd5b5060016000819055506179b3806100276000396000f3fe608060405234801561001057600080fd5b50600436106101da5760003560e01c8063a1051dfe11610104578063d214ba74116100a2578063e09bcae311610071578063e09bcae3146105ec578063e86397511461061c578063ea0978ad1461064c578063f57d585b1461067c576101da565b8063d214ba7414610554578063d3751bfc14610584578063d547741f146105a0578063de5dc3a0146105bc576101da565b8063a3f7e096116100de578063a3f7e096146104a8578063ac678a93146104d8578063b31a4af314610508578063d036469414610524576101da565b8063a1051dfe1461043c578063a217fddf1461046c578063a296ea581461048a576101da565b806336568abe1161017c57806375b9d8691161014b57806375b9d869146103a257806388a8270f146103be57806391d14854146103ee5780639bce57511461041e576101da565b806336568abe146103085780634a474b9c14610324578063632c224b146103545780636a4af0fa14610384576101da565b80632f2ff15d116101b85780632f2ff15d1461026f57806330a3549a1461028b57806334359da9146102bb57806334f9b3fb146102ec576101da565b806301ffc9a7146101df57806320bd03161461020f578063248a9ca31461023f575b600080fd5b6101f960048036038101906101f49190615004565b6106ac565b604051610206919061504c565b60405180910390f35b6102296004803603810190610224919061509d565b610726565b604051610236919061504c565b60405180910390f35b61025960048036038101906102549190615100565b610918565b604051610266919061513c565b60405180910390f35b610289600480360381019061028491906151b5565b610938565b005b6102a560048036038101906102a091906154ec565b61095a565b6040516102b2919061504c565b60405180910390f35b6102d560048036038101906102d0919061509d565b610baf565b6040516102e3929190615674565b60405180910390f35b610306600480360381019061030191906156a4565b610c71565b005b610322600480360381019061031d91906151b5565b610dc2565b005b61033e6004803603810190610339919061509d565b610e3d565b60405161034b91906159cc565b60405180910390f35b61036e600480360381019061036991906159ee565b6110d8565b60405161037b9190615a4a565b60405180910390f35b61038c6112c6565b6040516103999190615c2a565b60405180910390f35b6103bc60048036038101906103b79190615c4c565b611677565b005b6103d860048036038101906103d39190615cd7565b6118b1565b6040516103e5919061504c565b60405180910390f35b610408600480360381019061040391906151b5565b611b6b565b604051610415919061504c565b60405180910390f35b610426611bd6565b6040516104339190615e4f565b60405180910390f35b61045660048036038101906104519190615cd7565b611d82565b604051610463919061504c565b60405180910390f35b6104746120d6565b604051610481919061513c565b60405180910390f35b6104926120dd565b60405161049f9190616161565b60405180910390f35b6104c260048036038101906104bd919061509d565b6124c6565b6040516104cf9190616200565b60405180910390f35b6104f260048036038101906104ed919061509d565b612839565b6040516104ff9190615e4f565b60405180910390f35b610522600480360381019061051d919061627d565b612985565b005b61053e600480360381019061053991906162f1565b612d8c565b60405161054b919061504c565b60405180910390f35b61056e600480360381019061056991906164e8565b613025565b60405161057b919061504c565b60405180910390f35b61059e600480360381019061059991906165ac565b61335c565b005b6105ba60048036038101906105b591906151b5565b613789565b005b6105d660048036038101906105d1919061664b565b6137ab565b6040516105e39190615a4a565b60405180910390f35b61060660048036038101906106019190615cd7565b613a68565b604051610613919061504c565b60405180910390f35b610636600480360381019061063191906156a4565b613d5d565b604051610643919061504c565b60405180910390f35b61066660048036038101906106619190615cd7565b613e5c565b604051610673919061504c565b60405180910390f35b6106966004803603810190610691919061509d565b614161565b6040516106a3919061504c565b60405180910390f35b60007f7965db0b000000000000000000000000000000000000000000000000000000007bffffffffffffffffffffffffffffffffffffffffffffffffffffffff1916827bffffffffffffffffffffffffffffffffffffffffffffffffffffffff1916148061071f575061071e826144cf565b5b9050919050565b6000610730614539565b600061073a61457f565b905060006107466145ac565b905081600901600085815260200190815260200160002060003373ffffffffffffffffffffffffffffffffffffffff1673ffffffffffffffffffffffffffffffffffffffff16815260200190815260200160002060009054906101000a900460ff166107e7576040517f08c379a00000000000000000000000000000000000000000000000000000000081526004016107de90616704565b60405180910390fd5b60008160050160008681526020019081526020016000209050600082600e01868154811061081857610817616724565b5b9060005260206000209060080201905061083582600601336145d9565b61084281600601336145d9565b600084600901600088815260200190815260200160002060003373ffffffffffffffffffffffffffffffffffffffff1673ffffffffffffffffffffffffffffffffffffffff16815260200190815260200160002060006101000a81548160ff0219169083151502179055506108bf33671bc16d674ec80000614776565b3373ffffffffffffffffffffffffffffffffffffffff16867f9b244c565b926d7f4e915b69f3a5c6afc2231322d0d44e821076ad8879d0d68360405160405180910390a360019450505050506109136147ac565b919050565b600060016000838152602001908152602001600020600101549050919050565b61094182610918565b61094a816147b6565b61095483836147ca565b50505050565b60007fadb22091b155738d2e889eb96f509d2a7c93234236b30400927feb4a6a15ab00610986816147b6565b600061099061457f565b9050600081600501600089815260200190815260200160002060010154036109ed576040517f08c379a00000000000000000000000000000000000000000000000000000000081526004016109e49061679f565b60405180910390fd5b858160050160008981526020019081526020016000206002019081610a1291906169cb565b50848160050160008981526020019081526020016000206003019081610a3891906169cb565b50600084511115610b6957600a84511115610a88576040517f08c379a0000000000000000000000000000000000000000000000000000000008152600401610a7f90616ae9565b60405180910390fd5b60005b8451811015610b4957848181518110610aa757610aa6616724565b5b60200260200101518260050160008a815260200190815260200160002060040182600a8110610ad957610ad8616724565b5b6003020160008201518160000160006101000a81548160ff02191690836002811115610b0857610b07615ebd565b5b02179055506020820151816001019081610b2291906169cb565b506040820151816002019081610b3891906169cb565b509050508080600101915050610a8b565b508351816005016000898152602001908152602001600020602201819055505b867f2a39a7cf20a19c3cd9811b72b89fab269dce3aa109f6d2a0631cd3e1f0457e5d87604051610b999190616b42565b60405180910390a2600192505050949350505050565b6060600080610bbc61457f565b905060008160020160003373ffffffffffffffffffffffffffffffffffffffff1673ffffffffffffffffffffffffffffffffffffffff1681526020019081526020016000206000868152602001908152602001600020805480602002602001604051908101604052809291908181526020018280548015610c5c57602002820191906000526020600020905b815481526020019060010190808311610c48575b50505050509050808151935093505050915091565b7fadb22091b155738d2e889eb96f509d2a7c93234236b30400927feb4a6a15ab00610c9b816147b6565b6000610ca561457f565b905060008160070160008681526020019081526020016000206001015403610d02576040517f08c379a0000000000000000000000000000000000000000000000000000000008152600401610cf990616bb0565b60405180910390fd5b838160070160008681526020019081526020016000206001015414610d5c576040517f08c379a0000000000000000000000000000000000000000000000000000000008152600401610d5390616c1c565b60405180910390fd5b828160070160008681526020019081526020016000206002019081610d8191906169cb565b5083857fad5fab99ac4d99e1061fd121b36537d5213be564a3dc6cc383897dc355e89ff585604051610db39190616b42565b60405180910390a35050505050565b610dca6148bb565b73ffffffffffffffffffffffffffffffffffffffff168173ffffffffffffffffffffffffffffffffffffffff1614610e2e576040517f6697b23200000000000000000000000000000000000000000000000000000000815260040160405180910390fd5b610e3882826148c3565b505050565b60606000610e4961457f565b905080600701600084815260200190815260200160002060040160009054906101000a900460ff16610eb0576040517f08c379a0000000000000000000000000000000000000000000000000000000008152600401610ea790616c88565b60405180910390fd5b806007016000848152602001908152602001600020600301805480602002602001604051908101604052809291908181526020016000905b828210156110cc57838290600052602060002090600402016040518060800160405290816000820154815260200160018201548152602001600282018054610f2f906167ee565b80601f0160208091040260200160405190810160405280929190818152602001828054610f5b906167ee565b8015610fa85780601f10610f7d57610100808354040283529160200191610fa8565b820191906000526020600020905b815481529060010190602001808311610f8b57829003601f168201915b5050505050815260200160038201805480602002602001604051908101604052809291908181526020016000905b828210156110b55783829060005260206000209060020201604051806040016040529081600082018054611009906167ee565b80601f0160208091040260200160405190810160405280929190818152602001828054611035906167ee565b80156110825780601f1061105757610100808354040283529160200191611082565b820191906000526020600020905b81548152906001019060200180831161106557829003601f168201915b505050505081526020016001820160009054906101000a900460ff16151515158152505081526020019060010190610fd6565b505050508152505081526020019060010190610ee8565b50505050915050919050565b6000806110e361457f565b905060006110ef6149b6565b905060008160000160030154905082600501600087815260200190815260200160002060230160009054906101000a900460ff16611162576040517f08c379a000000000000000000000000000000000000000000000000000000000815260040161115990616cf4565b60405180910390fd5b600083600701600083815260200190815260200160002090508681600001819055508181600101819055508581600201908161119e91906169cb565b5060018160040160006101000a81548160ff0219169083151502179055508260000160030160008154809291906111d490616d43565b91905055508360100181908060018154018082558091505060019003906000526020600020906005020160009091909190915060008201548160000155600182015481600101556002820181600201908161122f9190616da1565b506003820181600301908054611246929190614b2c565b506004820160009054906101000a900460ff168160040160006101000a81548160ff0219169083151502179055505050856040516112849190616ec5565b6040518091039020827fbf27702cefbc4aea50d7c73cfee96f84f5b908f62aeafcd8b0aeae202c15050960405160405180910390a38194505050505092915050565b606060006112d261457f565b905060006112de6149b6565b905060008160000160030154905060008167ffffffffffffffff81111561130857611307615210565b5b60405190808252806020026020018201604052801561134157816020015b61132e614bc4565b8152602001906001900390816113265790505b50905060005b8281101561166c578460070160008281526020019081526020016000206040518060a00160405290816000820154815260200160018201548152602001600282018054611393906167ee565b80601f01602080910402602001604051908101604052809291908181526020018280546113bf906167ee565b801561140c5780601f106113e15761010080835404028352916020019161140c565b820191906000526020600020905b8154815290600101906020018083116113ef57829003601f168201915b5050505050815260200160038201805480602002602001604051908101604052809291908181526020016000905b8282101561161e57838290600052602060002090600402016040518060800160405290816000820154815260200160018201548152602001600282018054611481906167ee565b80601f01602080910402602001604051908101604052809291908181526020018280546114ad906167ee565b80156114fa5780601f106114cf576101008083540402835291602001916114fa565b820191906000526020600020905b8154815290600101906020018083116114dd57829003601f168201915b5050505050815260200160038201805480602002602001604051908101604052809291908181526020016000905b82821015611607578382906000526020600020906002020160405180604001604052908160008201805461155b906167ee565b80601f0160208091040260200160405190810160405280929190818152602001828054611587906167ee565b80156115d45780601f106115a9576101008083540402835291602001916115d4565b820191906000526020600020905b8154815290600101906020018083116115b757829003601f168201915b505050505081526020016001820160009054906101000a900460ff16151515158152505081526020019060010190611528565b50505050815250508152602001906001019061143a565b5050505081526020016004820160009054906101000a900460ff16151515158152505082828151811061165457611653616724565b5b60200260200101819052508080600101915050611347565b508094505050505090565b600061168161457f565b9050600061168d6149b6565b905060008160000160020154905082600301600087815260200190815260200160002060040160009054906101000a900460ff16611700576040517f08c379a00000000000000000000000000000000000000000000000000000000081526004016116f790616f28565b60405180910390fd5b600083600501600083815260200190815260200160002090508681600001819055508181600101819055508581600201908161173c91906169cb565b508481600301908161174e91906169cb565b5060018160230160006101000a81548160ff0219169083151502179055506000816022018190555083600e0184600501600084815260200190815260200160002090806001815401808255809150506001900390600052602060002090602402016000909190919091506000820154816000015560018201548160010155600282018160020190816117e09190616da1565b50600382018160030190816117f59190616da1565b50600482018160040190600a61180c929190614bf5565b50602282015481602201556023820160009054906101000a900460ff168160230160006101000a81548160ff021916908315150217905550505082600001600201600081548092919061185e90616d43565b9190505550600a866040516118739190616ec5565b6040518091039020837f3387c3a40ec1df95e34d25a0e5564b40d01c331b71ccbafccccc66d36c84ad8360405160405180910390a450505050505050565b60007fadb22091b155738d2e889eb96f509d2a7c93234236b30400927feb4a6a15ab006118dd816147b6565b60006118e761457f565b905060008160070160008781526020019081526020016000206001015403611944576040517f08c379a000000000000000000000000000000000000000000000000000000000815260040161193b90616c88565b60405180910390fd5b6000816008016000868152602001908152602001600020600101540361199f576040517f08c379a000000000000000000000000000000000000000000000000000000000815260040161199690616f94565b60405180910390fd5b60005b8160110180549050811015611ae857848260110182815481106119c8576119c7616724565b5b90600052602060002090600402016001015403611adb5781601101600183601101805490506119f79190616fb4565b81548110611a0857611a07616724565b5b9060005260206000209060040201826011018281548110611a2c57611a2b616724565b5b9060005260206000209060040201600082015481600001556001820154816001015560028201816002019081611a629190616da1565b506003820181600301908054611a79929190614c9f565b5090505081601101805480611a9157611a90616fe8565b5b60019003818190600052602060002090600402016000808201600090556001820160009055600282016000611ac69190614d39565b600382016000611ad69190614d79565b505090555b80806001019150506119a2565b508060080160008581526020019081526020016000206000808201600090556001820160009055600282016000611b1f9190614d39565b600382016000611b2f9190614d79565b505083857ff084fa19916f58d56801346cc04ca2d2c28a5531dc7db17ebd2323685518b12660405160405180910390a360019250505092915050565b60006001600084815260200190815260200160002060000160008373ffffffffffffffffffffffffffffffffffffffff1673ffffffffffffffffffffffffffffffffffffffff16815260200190815260200160002060009054906101000a900460ff16905092915050565b60606000611be261457f565b9050600081600d0180549050905060008167ffffffffffffffff811115611c0c57611c0b615210565b5b604051908082528060200260200182016040528015611c4557816020015b611c32614d9d565b815260200190600190039081611c2a5790505b50905060005b82811015611d785783600d018181548110611c6957611c68616724565b5b90600052602060002090600502016040518060a00160405290816000820154815260200160018201548152602001600282018054611ca6906167ee565b80601f0160208091040260200160405190810160405280929190818152602001828054611cd2906167ee565b8015611d1f5780601f10611cf457610100808354040283529160200191611d1f565b820191906000526020600020905b815481529060010190602001808311611d0257829003601f168201915b50505050508152602001600382015481526020016004820160009054906101000a900460ff161515151581525050828281518110611d6057611d5f616724565b5b60200260200101819052508080600101915050611c4b565b5080935050505090565b60007fadb22091b155738d2e889eb96f509d2a7c93234236b30400927feb4a6a15ab00611dae816147b6565b6000611db861457f565b905060008160030160008781526020019081526020016000206001015403611e15576040517f08c379a0000000000000000000000000000000000000000000000000000000008152600401611e0c90617063565b60405180910390fd5b60008160050160008681526020019081526020016000206001015403611e70576040517f08c379a0000000000000000000000000000000000000000000000000000000008152600401611e67906170cf565b60405180910390fd5b60005b81600d01805490508111612027578482600501600083815260200190815260200160002060010154036120145781600e01600183600e0180549050611eb89190616fb4565b81548110611ec957611ec8616724565b5b906000526020600020906024020182600e018281548110611eed57611eec616724565b5b9060005260206000209060240201600082015481600001556001820154816001015560028201816002019081611f239190616da1565b5060038201816003019081611f389190616da1565b50600482018160040190600a611f4f929190614bf5565b50602282015481602201556023820160009054906101000a900460ff168160230160006101000a81548160ff02191690831515021790555090505081600e01805480611f9e57611f9d616fe8565b5b60019003818190600052602060002090602402016000808201600090556001820160009055600282016000611fd39190614d39565b600382016000611fe39190614d39565b600482016000611ff39190614dce565b60228201600090556023820160006101000a81549060ff0219169055505090555b808061201f90616d43565b915050611e73565b50806005016000858152602001908152602001600020600080820160009055600182016000905560028201600061205e9190614d39565b60038201600061206e9190614d39565b60048201600061207e9190614dce565b60228201600090556023820160006101000a81549060ff0219169055505083857f1cdc2ff39034471047dd6d36512a12b5c2e9a30137b2e45daecd05383221d97b60405160405180910390a360019250505092915050565b6000801b81565b606060006120e961457f565b9050600081600e0180549050905060008167ffffffffffffffff81111561211357612112615210565b5b60405190808252806020026020018201604052801561214c57816020015b612139614de4565b8152602001906001900390816121315790505b50905060005b828110156124bc5783600e0181815481106121705761216f616724565b5b90600052602060002090602402016040518060e001604052908160008201548152602001600182015481526020016002820180546121ad906167ee565b80601f01602080910402602001604051908101604052809291908181526020018280546121d9906167ee565b80156122265780601f106121fb57610100808354040283529160200191612226565b820191906000526020600020905b81548152906001019060200180831161220957829003601f168201915b5050505050815260200160038201805461223f906167ee565b80601f016020809104026020016040519081016040528092919081815260200182805461226b906167ee565b80156122b85780601f1061228d576101008083540402835291602001916122b8565b820191906000526020600020905b81548152906001019060200180831161229b57829003601f168201915b5050505050815260200160048201600a80602002604051908101604052809291906000905b82821015612464578382600302016040518060600160405290816000820160009054906101000a900460ff16600281111561231b5761231a615ebd565b5b600281111561232d5761232c615ebd565b5b8152602001600182018054612341906167ee565b80601f016020809104026020016040519081016040528092919081815260200182805461236d906167ee565b80156123ba5780601f1061238f576101008083540402835291602001916123ba565b820191906000526020600020905b81548152906001019060200180831161239d57829003601f168201915b505050505081526020016002820180546123d3906167ee565b80601f01602080910402602001604051908101604052809291908181526020018280546123ff906167ee565b801561244c5780601f106124215761010080835404028352916020019161244c565b820191906000526020600020905b81548152906001019060200180831161242f57829003601f168201915b505050505081525050815260200190600101906122dd565b505050508152602001602282015481526020016023820160009054906101000a900460ff1615151515815250508282815181106124a4576124a3616724565b5b60200260200101819052508080600101915050612152565b5080935050505090565b6124ce614bc4565b60006124d861457f565b905080600701600084815260200190815260200160002060040160009054906101000a900460ff1661253f576040517f08c379a000000000000000000000000000000000000000000000000000000000815260040161253690616c88565b60405180910390fd5b8060070160008481526020019081526020016000206040518060a00160405290816000820154815260200160018201548152602001600282018054612583906167ee565b80601f01602080910402602001604051908101604052809291908181526020018280546125af906167ee565b80156125fc5780601f106125d1576101008083540402835291602001916125fc565b820191906000526020600020905b8154815290600101906020018083116125df57829003601f168201915b5050505050815260200160038201805480602002602001604051908101604052809291908181526020016000905b8282101561280e57838290600052602060002090600402016040518060800160405290816000820154815260200160018201548152602001600282018054612671906167ee565b80601f016020809104026020016040519081016040528092919081815260200182805461269d906167ee565b80156126ea5780601f106126bf576101008083540402835291602001916126ea565b820191906000526020600020905b8154815290600101906020018083116126cd57829003601f168201915b5050505050815260200160038201805480602002602001604051908101604052809291908181526020016000905b828210156127f7578382906000526020600020906002020160405180604001604052908160008201805461274b906167ee565b80601f0160208091040260200160405190810160405280929190818152602001828054612777906167ee565b80156127c45780601f10612799576101008083540402835291602001916127c4565b820191906000526020600020905b8154815290600101906020018083116127a757829003601f168201915b505050505081526020016001820160009054906101000a900460ff16151515158152505081526020019060010190612718565b50505050815250508152602001906001019061262a565b5050505081526020016004820160009054906101000a900460ff161515151581525050915050919050565b6060600061284561457f565b9050806004016000848152602001908152602001600020805480602002602001604051908101604052809291908181526020016000905b8282101561297957838290600052602060002090600502016040518060a001604052908160008201548152602001600182015481526020016002820180546128c3906167ee565b80601f01602080910402602001604051908101604052809291908181526020018280546128ef906167ee565b801561293c5780601f106129115761010080835404028352916020019161293c565b820191906000526020600020905b81548152906001019060200180831161291f57829003601f168201915b50505050508152602001600382015481526020016004820160009054906101000a900460ff1615151515815250508152602001906001019061287c565b50505050915050919050565b7fadb22091b155738d2e889eb96f509d2a7c93234236b30400927feb4a6a15ab006129af816147b6565b60006129b961457f565b9050600081600501600088815260200190815260200160002090508060230160009054906101000a900460ff16612a25576040517f08c379a0000000000000000000000000000000000000000000000000000000008152600401612a1c9061713b565b60405180910390fd5b600081602201549050600a8686905082612a3f919061715b565b1115612a80576040517f08c379a0000000000000000000000000000000000000000000000000000000008152600401612a77906171db565b60405180910390fd5b60005b86869050811015612c71576040518060600160405280888884818110612aac57612aab616724565b5b9050602002810190612abe919061720a565b6000016020810190612ad09190617232565b6002811115612ae257612ae1615ebd565b5b8152602001888884818110612afa57612af9616724565b5b9050602002810190612b0c919061720a565b8060200190612b1b919061725f565b8080601f016020809104026020016040519081016040528093929190818152602001838380828437600081840152601f19601f820116905080830192505050505050508152602001888884818110612b7657612b75616724565b5b9050602002810190612b88919061720a565b8060400190612b97919061725f565b8080601f016020809104026020016040519081016040528093929190818152602001838380828437600081840152601f19601f820116905080830192505050505050508152508360040183600a8110612bf357612bf2616724565b5b6003020160008201518160000160006101000a81548160ff02191690836002811115612c2257612c21615ebd565b5b02179055506020820151816001019081612c3c91906169cb565b506040820151816002019081612c5291906169cb565b509050508180612c6190616d43565b9250508080600101915050612a83565b5080826022018190555060005b83600e0180549050811015612d81578884600e018281548110612ca457612ca3616724565b5b90600052602060002090602402016001015403612d74578284600e018281548110612cd257612cd1616724565b5b9060005260206000209060240201600082015481600001556001820154816001015560028201816002019081612d089190616da1565b5060038201816003019081612d1d9190616da1565b50600482018160040190600a612d34929190614bf5565b50602282015481602201556023820160009054906101000a900460ff168160230160006101000a81548160ff021916908315150217905550905050612d81565b8080600101915050612c7e565b505050505050505050565b600080612d9761457f565b905080600001600084815260200190815260200160002060003373ffffffffffffffffffffffffffffffffffffffff1673ffffffffffffffffffffffffffffffffffffffff16815260200190815260200160002060009054906101000a900460ff1615612e39576040517f08c379a0000000000000000000000000000000000000000000000000000000008152600401612e309061730e565b60405180910390fd5b60008160050160008581526020019081526020016000206001015403612e94576040517f08c379a0000000000000000000000000000000000000000000000000000000008152600401612e8b906170cf565b60405180910390fd5b600181600001600085815260200190815260200160002060003373ffffffffffffffffffffffffffffffffffffffff1673ffffffffffffffffffffffffffffffffffffffff16815260200190815260200160002060006101000a81548160ff0219169083151502179055508060010160003373ffffffffffffffffffffffffffffffffffffffff1673ffffffffffffffffffffffffffffffffffffffff1681526020019081526020016000208390806001815401808255809150506001900390600052602060002001600090919091909150558060020160003373ffffffffffffffffffffffffffffffffffffffff1673ffffffffffffffffffffffffffffffffffffffff168152602001908152602001600020600086815260200190815260200160002083908060018154018082558091505060019003906000526020600020016000909190919091505582847f2479aa0d18311382446edb0fa11d0dbd5bab1be78b1e60b343ffe4d2a5f798ad33604051613011919061733d565b60405180910390a360019150509392505050565b60008061303061457f565b9050600061303c6145ac565b905060006130486149b6565b9050600073ffffffffffffffffffffffffffffffffffffffff1682600501600089815260200190815260200160002060050160009054906101000a900473ffffffffffffffffffffffffffffffffffffffff1673ffffffffffffffffffffffffffffffffffffffff16036130f1576040517f08c379a00000000000000000000000000000000000000000000000000000000081526004016130e8906173a4565b60405180910390fd5b60005b865181101561331e5760006040518060a001604052808a8152602001846000016001015481526020018984815181106131305761312f616724565b5b602002602001015181526020018884815181106131505761314f616724565b5b6020026020010151815260200160011515815250905084600d01819080600181540180825580915050600190039060005260206000209060050201600090919091909150600082015181600001556020820151816001015560408201518160020190816131bd91906169cb565b506060820151816003015560808201518160040160006101000a81548160ff021916908315150217905550505080856003016000856000016001015481526020019081526020016000206000820151816000015560208201518160010155604082015181600201908161323091906169cb565b506060820151816003015560808201518160040160006101000a81548160ff0219169083151502179055509050508460040160008a8152602001908152602001600020819080600181540180825580915050600190039060005260206000209060050201600090919091909150600082015181600001556020820151816001015560408201518160020190816132c691906169cb565b506060820151816003015560808201518160040160006101000a81548160ff021916908315150217905550505082600001600101600081548092919061330b90616d43565b91905055505080806001019150506130f4565b508551877f1eb97e969f52c132bb6c79817d1f9001078fff0cd328ce625628e1fb4cc0e7de60405160405180910390a3600193505050509392505050565b600061336661457f565b905060006133726149b6565b905081600701600087815260200190815260200160002060040160009054906101000a900460ff166133d9576040517f08c379a00000000000000000000000000000000000000000000000000000000081526004016133d090616c88565b60405180910390fd5b600084511180156133ec57506004845111155b61342b576040517f08c379a000000000000000000000000000000000000000000000000000000000815260040161342290617410565b60405180910390fd5b83518360ff1610613471576040517f08c379a00000000000000000000000000000000000000000000000000000000081526004016134689061747c565b60405180910390fd5b60008160000160040154905060008360080160008381526020019081526020016000209050878160000181905550818160010181905550868160020190816134b991906169cb565b5060005b86518160ff1610156135835760006040518060400160405280898460ff16815181106134ec576134eb616724565b5b602002602001015181526020018860ff168460ff16141515815250905082600301819080600181540180825580915050600190039060005260206000209060020201600090919091909150600082015181600001908161354c91906169cb565b5060208201518160010160006101000a81548160ff021916908315150217905550505050808061357b9061749c565b9150506134bd565b508360070160008981526020019081526020016000206003018190806001815401808255809150506001900390600052602060002090600402016000909190919091506000820154816000015560018201548160010155600282018160020190816135ee9190616da1565b506003820181600301908054613605929190614c9f565b50505082600001600401600081548092919061362090616d43565b91905055508360110181908060018154018082558091505060019003906000526020600020906004020160009091909190915060008201548160000155600182015481600101556002820181600201908161367b9190616da1565b506003820181600301908054613692929190614c9f565b5050507fa5bdacf4d1324fdd584bc65cf0315e4975d00b33a7ca0e6d0a73c88df8430b958883896040516136c8939291906174c5565b60405180910390a160005b86518160ff16101561375f577f06ef0ba2ad58c9f8eef2fc98c08fd18d801c4a971eeb45afd07f0fee3f9d60c4838260ff168660000160050154613717919061715b565b898460ff168151811061372d5761372c616724565b5b6020026020010151604051613744939291906174c5565b60405180910390a180806137579061749c565b9150506136d3565b508551836000016005016000828254613778919061715b565b925050819055505050505050505050565b61379282610918565b61379b816147b6565b6137a583836148c3565b50505050565b6000806137b661457f565b905060008160070160008681526020019081526020016000209050600081600301805490509050600081865114613822576040517f08c379a000000000000000000000000000000000000000000000000000000000815260040161381990617575565b60405180910390fd5b60005b8281101561391557600084600301828154811061384557613844616724565b5b90600052602060002090600402019050600088838151811061386a57613869616724565b5b60200260200101519050816003018054905081106138bd576040517f08c379a00000000000000000000000000000000000000000000000000000000081526004016138b4906175e1565b60405180910390fd5b8160030181815481106138d3576138d2616724565b5b906000526020600020906002020160010160009054906101000a900460ff161561390657838061390290616d43565b9450505b50508080600101915050613825565b50816064826139249190617601565b61392e9190617672565b9450604b8510613a0e57600184600a01600089815260200190815260200160002060003373ffffffffffffffffffffffffffffffffffffffff1673ffffffffffffffffffffffffffffffffffffffff16815260200190815260200160002060006101000a81548160ff0219169083151502179055508484600b0160003373ffffffffffffffffffffffffffffffffffffffff1673ffffffffffffffffffffffffffffffffffffffff168152602001908152602001600020600089815260200190815260200160002081905550613a0c33670de0b6b3a76400006149e3565b505b3373ffffffffffffffffffffffffffffffffffffffff167fcce9b9ed7e05afc64f73f1ce3f6ff1011a740b718ae6277a14698a4ef2d62dbf8887604051613a569291906176a3565b60405180910390a25050505092915050565b60007fadb22091b155738d2e889eb96f509d2a7c93234236b30400927feb4a6a15ab00613a94816147b6565b6000613a9e61457f565b90506000613aaa6145ac565b905060008160050160008881526020019081526020016000206000015403613b07576040517f08c379a0000000000000000000000000000000000000000000000000000000008152600401613afe90617718565b60405180910390fd5b60008260030160008781526020019081526020016000206001015403613b62576040517f08c379a0000000000000000000000000000000000000000000000000000000008152600401613b5990617063565b60405180910390fd5b60005b82600d01805490508111613ccd57858360030160008381526020019081526020016000206001015403613cba5782600d01600184600d0180549050613baa9190616fb4565b81548110613bbb57613bba616724565b5b906000526020600020906005020183600d018281548110613bdf57613bde616724565b5b9060005260206000209060050201600082015481600001556001820154816001015560028201816002019081613c159190616da1565b50600382015481600301556004820160009054906101000a900460ff168160040160006101000a81548160ff02191690831515021790555090505082600d01805480613c6457613c63616fe8565b5b60019003818190600052602060002090600502016000808201600090556001820160009055600282016000613c999190614d39565b60038201600090556004820160006101000a81549060ff0219169055505090555b8080613cc590616d43565b915050613b65565b508160030160008681526020019081526020016000206000808201600090556001820160009055600282016000613d049190614d39565b60038201600090556004820160006101000a81549060ff0219169055505084867fab6d08543726a41eac26ac96d0b4591127baed3bfb915d2603ccb9fb2440c42560405160405180910390a36001935050505092915050565b60007fadb22091b155738d2e889eb96f509d2a7c93234236b30400927feb4a6a15ab00613d89816147b6565b6000613d9361457f565b905060008160030160008781526020019081526020016000206001015403613df0576040517f08c379a0000000000000000000000000000000000000000000000000000000008152600401613de790617784565b60405180910390fd5b838160030160008781526020019081526020016000206002019081613e1591906169cb565b5084867f7714a2fe2221824dfd5cd15f7cc29e38ffefcf9b6ad62c216321afcde79cbcfb86604051613e479190616b42565b60405180910390a36001925050509392505050565b60007fadb22091b155738d2e889eb96f509d2a7c93234236b30400927feb4a6a15ab00613e88816147b6565b6000613e9261457f565b905060008160050160008781526020019081526020016000206001015403613eef576040517f08c379a0000000000000000000000000000000000000000000000000000000008152600401613ee6906170cf565b60405180910390fd5b60008160070160008681526020019081526020016000206001015403613f4a576040517f08c379a0000000000000000000000000000000000000000000000000000000008152600401613f41906177f0565b60405180910390fd5b60005b81600d018054905081116140ca578482600701600087815260200190815260200160002060010154036140b7578160100160018360100180549050613f929190616fb4565b81548110613fa357613fa2616724565b5b9060005260206000209060050201826010018281548110613fc757613fc6616724565b5b9060005260206000209060050201600082015481600001556001820154816001015560028201816002019081613ffd9190616da1565b506003820181600301908054614014929190614b2c565b506004820160009054906101000a900460ff168160040160006101000a81548160ff0219169083151502179055509050508160100180548061405957614058616fe8565b5b6001900381819060005260206000209060050201600080820160009055600182016000905560028201600061408e9190614d39565b60038201600061409e9190614e29565b6004820160006101000a81549060ff0219169055505090555b80806140c290616d43565b915050613f4d565b5080600701600085815260200190815260200160002060008082016000905560018201600090556002820160006141019190614d39565b6003820160006141119190614e29565b6004820160006101000a81549060ff0219169055505083857f22a69f3183c2804ef4ff588b6321a6351c1863419286c584919ab8f923cbd5a460405160405180910390a360019250505092915050565b600061416b614539565b600061417561457f565b905060006141816145ac565b905080600501600085815260200190815260200160002060030160009054906101000a900460ff166141e8576040517f08c379a00000000000000000000000000000000000000000000000000000000081526004016141df9061785c565b60405180910390fd5b81600901600085815260200190815260200160002060003373ffffffffffffffffffffffffffffffffffffffff1673ffffffffffffffffffffffffffffffffffffffff16815260200190815260200160002060009054906101000a900460ff1615614288576040517f08c379a000000000000000000000000000000000000000000000000000000000815260040161427f906178c8565b60405180910390fd5b80600501600085815260200190815260200160002060050160149054906101000a900460ff166142ed576040517f08c379a00000000000000000000000000000000000000000000000000000000081526004016142e4906173a4565b60405180910390fd5b60008160050160008681526020019081526020016000209050600083600c01868154811061431e5761431d616724565b5b9060005260206000209060080201905081600601339080600181540180825580915050600190039060005260206000200160009091909190916101000a81548173ffffffffffffffffffffffffffffffffffffffff021916908373ffffffffffffffffffffffffffffffffffffffff16021790555080600601339080600181540180825580915050600190039060005260206000200160009091909190916101000a81548173ffffffffffffffffffffffffffffffffffffffff021916908373ffffffffffffffffffffffffffffffffffffffff160217905550600184600901600088815260200190815260200160002060003373ffffffffffffffffffffffffffffffffffffffff1673ffffffffffffffffffffffffffffffffffffffff16815260200190815260200160002060006101000a81548160ff02191690831515021790555061447533671bc16d674ec800006149e3565b503373ffffffffffffffffffffffffffffffffffffffff16867f4bf249f6b0ca5630ea4816c04b928b864a2065cb51658fd6223d83b727fd326b60405160405180910390a360019450505050506144ca6147ac565b919050565b60007f01ffc9a7000000000000000000000000000000000000000000000000000000007bffffffffffffffffffffffffffffffffffffffffffffffffffffffff1916827bffffffffffffffffffffffffffffffffffffffffffffffffffffffff1916149050919050565b600260005403614575576040517f3ee5aeb500000000000000000000000000000000000000000000000000000000815260040160405180910390fd5b6002600081905550565b6000807f8c155b85251bd93c1fc2d59b5c65d36e3727b021d99d01ebea73246bff7e4a5890508091505090565b6000807f5d9ab6191fe9d5041816fb24ec4281e2d3989236339577e7fbbaf91315a1bb7190508091505090565b60005b8280549050811015614771578173ffffffffffffffffffffffffffffffffffffffff1683828154811061461257614611616724565b5b9060005260206000200160009054906101000a900473ffffffffffffffffffffffffffffffffffffffff1673ffffffffffffffffffffffffffffffffffffffff160361476457600183805490506146699190616fb4565b81146147195782600184805490506146819190616fb4565b8154811061469257614691616724565b5b9060005260206000200160009054906101000a900473ffffffffffffffffffffffffffffffffffffffff168382815481106146d0576146cf616724565b5b9060005260206000200160006101000a81548173ffffffffffffffffffffffffffffffffffffffff021916908373ffffffffffffffffffffffffffffffffffffffff1602179055505b8280548061472a57614729616fe8565b5b6001900381819060005260206000200160006101000a81549073ffffffffffffffffffffffffffffffffffffffff02191690559055614771565b80806001019150506145dc565b505050565b60006147806145ac565b905061478c8383614776565b818160000160008282546147a09190616fb4565b92505081905550505050565b6001600081905550565b6147c7816147c26148bb565b614adb565b50565b60006147d68383611b6b565b6148b057600180600085815260200190815260200160002060000160008473ffffffffffffffffffffffffffffffffffffffff1673ffffffffffffffffffffffffffffffffffffffff16815260200190815260200160002060006101000a81548160ff02191690831515021790555061484d6148bb565b73ffffffffffffffffffffffffffffffffffffffff168273ffffffffffffffffffffffffffffffffffffffff16847f2f8788117e7eff1d82e926ec794901d17c78024a50270940304540a733656f0d60405160405180910390a4600190506148b5565b600090505b92915050565b600033905090565b60006148cf8383611b6b565b156149ab5760006001600085815260200190815260200160002060000160008473ffffffffffffffffffffffffffffffffffffffff1673ffffffffffffffffffffffffffffffffffffffff16815260200190815260200160002060006101000a81548160ff0219169083151502179055506149486148bb565b73ffffffffffffffffffffffffffffffffffffffff168273ffffffffffffffffffffffffffffffffffffffff16847ff6391f5c32d9c69d2a47ea670b442974b53935d1edc7fd64eb21e047a839171b60405160405180910390a4600190506149b0565b600090505b92915050565b6000807f636d7913eb18e82fce1c8b9d3fc385ed328eaeac9ef5b2ce0d984f1c4878ec8690508091505090565b6000806149ee6145ac565b90506064600f6b204fce5e3e25026110000000614a0b9190617601565b614a159190617672565b816000015484614a25919061715b565b1115614a66576040517f08c379a0000000000000000000000000000000000000000000000000000000008152600401614a5d90617934565b60405180910390fd5b614a7084846149e3565b5082816000016000828254614a85919061715b565b92505081905550828473ffffffffffffffffffffffffffffffffffffffff167fad6ef58d5c294f81258965738e7ae511124139834a8d0b8f8f7327086c82052a60405160405180910390a3600191505092915050565b614ae58282611b6b565b614b285780826040517fe2517d3f000000000000000000000000000000000000000000000000000000008152600401614b1f929190617954565b60405180910390fd5b5050565b828054828255906000526020600020906004028101928215614bb35760005260206000209160040282015b82811115614bb2578282600082015481600001556001820154816001015560028201816002019081614b899190616da1565b506003820181600301908054614ba0929190614c9f565b50505091600401919060040190614b57565b5b509050614bc09190614e4d565b5090565b6040518060a00160405280600081526020016000815260200160608152602001606081526020016000151581525090565b82600a6003028101928215614c8e579160030282015b82811115614c8d5782826000820160009054906101000a900460ff168160000160006101000a81548160ff02191690836002811115614c4d57614c4c615ebd565b5b021790555060018201816001019081614c669190616da1565b5060028201816002019081614c7b9190616da1565b50505091600301919060030190614c0b565b5b509050614c9b9190614e94565b5090565b828054828255906000526020600020906002028101928215614d285760005260206000209160020282015b82811115614d2757828260008201816000019081614ce89190616da1565b506001820160009054906101000a900460ff168160010160006101000a81548160ff021916908315150217905550505091600201919060020190614cca565b5b509050614d359190614edf565b5090565b508054614d45906167ee565b6000825580601f10614d575750614d76565b601f016020900490600052602060002090810190614d759190614f1a565b5b50565b5080546000825560020290600052602060002090810190614d9a9190614edf565b50565b6040518060a00160405280600081526020016000815260200160608152602001600081526020016000151581525090565b5080600a6003020190614de19190614e94565b50565b6040518060e0016040528060008152602001600081526020016060815260200160608152602001614e13614f37565b8152602001600081526020016000151581525090565b5080546000825560040290600052602060002090810190614e4a9190614e4d565b50565b5b80821115614e90576000808201600090556001820160009055600282016000614e779190614d39565b600382016000614e879190614d79565b50600401614e4e565b5090565b5b80821115614edb57600080820160006101000a81549060ff0219169055600182016000614ec29190614d39565b600282016000614ed29190614d39565b50600301614e95565b5090565b5b80821115614f165760008082016000614ef99190614d39565b6001820160006101000a81549060ff021916905550600201614ee0565b5090565b5b80821115614f33576000816000905550600101614f1b565b5090565b604051806101400160405280600a905b614f4f614f65565b815260200190600190039081614f475790505090565b604051806060016040528060006002811115614f8457614f83615ebd565b5b815260200160608152602001606081525090565b6000604051905090565b600080fd5b600080fd5b60007fffffffff0000000000000000000000000000000000000000000000000000000082169050919050565b614fe181614fac565b8114614fec57600080fd5b50565b600081359050614ffe81614fd8565b92915050565b60006020828403121561501a57615019614fa2565b5b600061502884828501614fef565b91505092915050565b60008115159050919050565b61504681615031565b82525050565b6000602082019050615061600083018461503d565b92915050565b6000819050919050565b61507a81615067565b811461508557600080fd5b50565b60008135905061509781615071565b92915050565b6000602082840312156150b3576150b2614fa2565b5b60006150c184828501615088565b91505092915050565b6000819050919050565b6150dd816150ca565b81146150e857600080fd5b50565b6000813590506150fa816150d4565b92915050565b60006020828403121561511657615115614fa2565b5b6000615124848285016150eb565b91505092915050565b615136816150ca565b82525050565b6000602082019050615151600083018461512d565b92915050565b600073ffffffffffffffffffffffffffffffffffffffff82169050919050565b600061518282615157565b9050919050565b61519281615177565b811461519d57600080fd5b50565b6000813590506151af81615189565b92915050565b600080604083850312156151cc576151cb614fa2565b5b60006151da858286016150eb565b92505060206151eb858286016151a0565b9150509250929050565b600080fd5b600080fd5b6000601f19601f8301169050919050565b7f4e487b7100000000000000000000000000000000000000000000000000000000600052604160045260246000fd5b615248826151ff565b810181811067ffffffffffffffff8211171561526757615266615210565b5b80604052505050565b600061527a614f98565b9050615286828261523f565b919050565b600067ffffffffffffffff8211156152a6576152a5615210565b5b6152af826151ff565b9050602081019050919050565b82818337600083830152505050565b60006152de6152d98461528b565b615270565b9050828152602081018484840111156152fa576152f96151fa565b5b6153058482856152bc565b509392505050565b600082601f830112615322576153216151f5565b5b81356153328482602086016152cb565b91505092915050565b600067ffffffffffffffff82111561535657615355615210565b5b602082029050602081019050919050565b600080fd5b600080fd5b600080fd5b6003811061538357600080fd5b50565b60008135905061539581615376565b92915050565b6000606082840312156153b1576153b061536c565b5b6153bb6060615270565b905060006153cb84828501615386565b600083015250602082013567ffffffffffffffff8111156153ef576153ee615371565b5b6153fb8482850161530d565b602083015250604082013567ffffffffffffffff81111561541f5761541e615371565b5b61542b8482850161530d565b60408301525092915050565b600061544a6154458461533b565b615270565b9050808382526020820190506020840283018581111561546d5761546c615367565b5b835b818110156154b457803567ffffffffffffffff811115615492576154916151f5565b5b80860161549f898261539b565b8552602085019450505060208101905061546f565b5050509392505050565b600082601f8301126154d3576154d26151f5565b5b81356154e3848260208601615437565b91505092915050565b6000806000806080858703121561550657615505614fa2565b5b600061551487828801615088565b945050602085013567ffffffffffffffff81111561553557615534614fa7565b5b6155418782880161530d565b935050604085013567ffffffffffffffff81111561556257615561614fa7565b5b61556e8782880161530d565b925050606085013567ffffffffffffffff81111561558f5761558e614fa7565b5b61559b878288016154be565b91505092959194509250565b600081519050919050565b600082825260208201905092915050565b6000819050602082019050919050565b6155dc81615067565b82525050565b60006155ee83836155d3565b60208301905092915050565b6000602082019050919050565b6000615612826155a7565b61561c81856155b2565b9350615627836155c3565b8060005b8381101561565857815161563f88826155e2565b975061564a836155fa565b92505060018101905061562b565b5085935050505092915050565b61566e81615067565b82525050565b6000604082019050818103600083015261568e8185615607565b905061569d6020830184615665565b9392505050565b6000806000606084860312156156bd576156bc614fa2565b5b60006156cb86828701615088565b93505060206156dc86828701615088565b925050604084013567ffffffffffffffff8111156156fd576156fc614fa7565b5b6157098682870161530d565b9150509250925092565b600081519050919050565b600082825260208201905092915050565b6000819050602082019050919050565b600081519050919050565b600082825260208201905092915050565b60005b8381101561577957808201518184015260208101905061575e565b60008484015250505050565b60006157908261573f565b61579a818561574a565b93506157aa81856020860161575b565b6157b3816151ff565b840191505092915050565b600081519050919050565b600082825260208201905092915050565b6000819050602082019050919050565b6157f381615031565b82525050565b600060408301600083015184820360008601526158168282615785565b915050602083015161582b60208601826157ea565b508091505092915050565b600061584283836157f9565b905092915050565b6000602082019050919050565b6000615862826157be565b61586c81856157c9565b93508360208202850161587e856157da565b8060005b858110156158ba578484038952815161589b8582615836565b94506158a68361584a565b925060208a01995050600181019050615882565b50829750879550505050505092915050565b60006080830160008301516158e460008601826155d3565b5060208301516158f760208601826155d3565b506040830151848203604086015261590f8282615785565b915050606083015184820360608601526159298282615857565b9150508091505092915050565b600061594283836158cc565b905092915050565b6000602082019050919050565b600061596282615713565b61596c818561571e565b93508360208202850161597e8561572f565b8060005b858110156159ba578484038952815161599b8582615936565b94506159a68361594a565b925060208a01995050600181019050615982565b50829750879550505050505092915050565b600060208201905081810360008301526159e68184615957565b905092915050565b60008060408385031215615a0557615a04614fa2565b5b6000615a1385828601615088565b925050602083013567ffffffffffffffff811115615a3457615a33614fa7565b5b615a408582860161530d565b9150509250929050565b6000602082019050615a5f6000830184615665565b92915050565b600081519050919050565b600082825260208201905092915050565b6000819050602082019050919050565b600082825260208201905092915050565b6000615aad82615713565b615ab78185615a91565b935083602082028501615ac98561572f565b8060005b85811015615b055784840389528151615ae68582615936565b9450615af18361594a565b925060208a01995050600181019050615acd565b50829750879550505050505092915050565b600060a083016000830151615b2f60008601826155d3565b506020830151615b4260208601826155d3565b5060408301518482036040860152615b5a8282615785565b91505060608301518482036060860152615b748282615aa2565b9150506080830151615b8960808601826157ea565b508091505092915050565b6000615ba08383615b17565b905092915050565b6000602082019050919050565b6000615bc082615a65565b615bca8185615a70565b935083602082028501615bdc85615a81565b8060005b85811015615c185784840389528151615bf98582615b94565b9450615c0483615ba8565b925060208a01995050600181019050615be0565b50829750879550505050505092915050565b60006020820190508181036000830152615c448184615bb5565b905092915050565b600080600060608486031215615c6557615c64614fa2565b5b6000615c7386828701615088565b935050602084013567ffffffffffffffff811115615c9457615c93614fa7565b5b615ca08682870161530d565b925050604084013567ffffffffffffffff811115615cc157615cc0614fa7565b5b615ccd8682870161530d565b9150509250925092565b60008060408385031215615cee57615ced614fa2565b5b6000615cfc85828601615088565b9250506020615d0d85828601615088565b9150509250929050565b600081519050919050565b600082825260208201905092915050565b6000819050602082019050919050565b600060a083016000830151615d5b60008601826155d3565b506020830151615d6e60208601826155d3565b5060408301518482036040860152615d868282615785565b9150506060830151615d9b60608601826155d3565b506080830151615dae60808601826157ea565b508091505092915050565b6000615dc58383615d43565b905092915050565b6000602082019050919050565b6000615de582615d17565b615def8185615d22565b935083602082028501615e0185615d33565b8060005b85811015615e3d5784840389528151615e1e8582615db9565b9450615e2983615dcd565b925060208a01995050600181019050615e05565b50829750879550505050505092915050565b60006020820190508181036000830152615e698184615dda565b905092915050565b600081519050919050565b600082825260208201905092915050565b6000819050602082019050919050565b6000600a9050919050565b600081905092915050565b6000819050919050565b7f4e487b7100000000000000000000000000000000000000000000000000000000600052602160045260246000fd5b60038110615efd57615efc615ebd565b5b50565b6000819050615f0e82615eec565b919050565b6000615f1e82615f00565b9050919050565b615f2e81615f13565b82525050565b6000606083016000830151615f4c6000860182615f25565b5060208301518482036020860152615f648282615785565b91505060408301518482036040860152615f7e8282615785565b9150508091505092915050565b6000615f978383615f34565b905092915050565b6000602082019050919050565b6000615fb782615e9d565b615fc18185615ea8565b935083602082028501615fd385615eb3565b8060005b8581101561600f5784840389528151615ff08582615f8b565b9450615ffb83615f9f565b925060208a01995050600181019050615fd7565b50829750879550505050505092915050565b600060e08301600083015161603960008601826155d3565b50602083015161604c60208601826155d3565b50604083015184820360408601526160648282615785565b9150506060830151848203606086015261607e8282615785565b915050608083015184820360808601526160988282615fac565b91505060a08301516160ad60a08601826155d3565b5060c08301516160c060c08601826157ea565b508091505092915050565b60006160d78383616021565b905092915050565b6000602082019050919050565b60006160f782615e71565b6161018185615e7c565b93508360208202850161611385615e8d565b8060005b8581101561614f578484038952815161613085826160cb565b945061613b836160df565b925060208a01995050600181019050616117565b50829750879550505050505092915050565b6000602082019050818103600083015261617b81846160ec565b905092915050565b600060a08301600083015161619b60008601826155d3565b5060208301516161ae60208601826155d3565b50604083015184820360408601526161c68282615785565b915050606083015184820360608601526161e08282615aa2565b91505060808301516161f560808601826157ea565b508091505092915050565b6000602082019050818103600083015261621a8184616183565b905092915050565b600080fd5b60008083601f84011261623d5761623c6151f5565b5b8235905067ffffffffffffffff81111561625a57616259616222565b5b60208301915083602082028301111561627657616275615367565b5b9250929050565b6000806000806060858703121561629757616296614fa2565b5b60006162a587828801615088565b94505060206162b687828801615386565b935050604085013567ffffffffffffffff8111156162d7576162d6614fa7565b5b6162e387828801616227565b925092505092959194509250565b60008060006060848603121561630a57616309614fa2565b5b600061631886828701615088565b935050602061632986828701615088565b925050604061633a86828701615088565b9150509250925092565b600067ffffffffffffffff82111561635f5761635e615210565b5b602082029050602081019050919050565b600061638361637e84616344565b615270565b905080838252602082019050602084028301858111156163a6576163a5615367565b5b835b818110156163ed57803567ffffffffffffffff8111156163cb576163ca6151f5565b5b8086016163d8898261530d565b855260208501945050506020810190506163a8565b5050509392505050565b600082601f83011261640c5761640b6151f5565b5b813561641c848260208601616370565b91505092915050565b600067ffffffffffffffff8211156164405761643f615210565b5b602082029050602081019050919050565b600061646461645f84616425565b615270565b9050808382526020820190506020840283018581111561648757616486615367565b5b835b818110156164b0578061649c8882615088565b845260208401935050602081019050616489565b5050509392505050565b600082601f8301126164cf576164ce6151f5565b5b81356164df848260208601616451565b91505092915050565b60008060006060848603121561650157616500614fa2565b5b600061650f86828701615088565b935050602084013567ffffffffffffffff8111156165305761652f614fa7565b5b61653c868287016163f7565b925050604084013567ffffffffffffffff81111561655d5761655c614fa7565b5b616569868287016164ba565b9150509250925092565b600060ff82169050919050565b61658981616573565b811461659457600080fd5b50565b6000813590506165a681616580565b92915050565b600080600080608085870312156165c6576165c5614fa2565b5b60006165d487828801615088565b945050602085013567ffffffffffffffff8111156165f5576165f4614fa7565b5b6166018782880161530d565b935050604085013567ffffffffffffffff81111561662257616621614fa7565b5b61662e878288016163f7565b925050606061663f87828801616597565b91505092959194509250565b6000806040838503121561666257616661614fa2565b5b600061667085828601615088565b925050602083013567ffffffffffffffff81111561669157616690614fa7565b5b61669d858286016164ba565b9150509250929050565b600082825260208201905092915050565b7f4e6f7420656e726f6c6c65642100000000000000000000000000000000000000600082015250565b60006166ee600d836166a7565b91506166f9826166b8565b602082019050919050565b6000602082019050818103600083015261671d816166e1565b9050919050565b7f4e487b7100000000000000000000000000000000000000000000000000000000600052603260045260246000fd5b7f4c6573736f6e20646f6573206e6f742065786973740000000000000000000000600082015250565b60006167896015836166a7565b915061679482616753565b602082019050919050565b600060208201905081810360008301526167b88161677c565b9050919050565b7f4e487b7100000000000000000000000000000000000000000000000000000000600052602260045260246000fd5b6000600282049050600182168061680657607f821691505b602082108103616819576168186167bf565b5b50919050565b60008190508160005260206000209050919050565b60006020601f8301049050919050565b600082821b905092915050565b6000600883026168817fffffffffffffffffffffffffffffffffffffffffffffffffffffffffffffffff82616844565b61688b8683616844565b95508019841693508086168417925050509392505050565b6000819050919050565b60006168c86168c36168be84615067565b6168a3565b615067565b9050919050565b6000819050919050565b6168e2836168ad565b6168f66168ee826168cf565b848454616851565b825550505050565b600090565b61690b6168fe565b6169168184846168d9565b505050565b5b8181101561693a5761692f600082616903565b60018101905061691c565b5050565b601f82111561697f576169508161681f565b61695984616834565b81016020851015616968578190505b61697c61697485616834565b83018261691b565b50505b505050565b600082821c905092915050565b60006169a260001984600802616984565b1980831691505092915050565b60006169bb8383616991565b9150826002028217905092915050565b6169d48261573f565b67ffffffffffffffff8111156169ed576169ec615210565b5b6169f782546167ee565b616a0282828561693e565b600060209050601f831160018114616a355760008415616a23578287015190505b616a2d85826169af565b865550616a95565b601f198416616a438661681f565b60005b82811015616a6b57848901518255600182019150602085019450602081019050616a46565b86831015616a885784890151616a84601f891682616991565b8355505b6001600288020188555050505b505050505050565b7f45786365656473206d6178696d756d20616c6c6f776564000000000000000000600082015250565b6000616ad36017836166a7565b9150616ade82616a9d565b602082019050919050565b60006020820190508181036000830152616b0281616ac6565b9050919050565b6000616b148261573f565b616b1e81856166a7565b9350616b2e81856020860161575b565b616b37816151ff565b840191505092915050565b60006020820190508181036000830152616b5c8184616b09565b905092915050565b7f5155697a20646f6573206e6f7420657869737400000000000000000000000000600082015250565b6000616b9a6013836166a7565b9150616ba582616b64565b602082019050919050565b60006020820190508181036000830152616bc981616b8d565b9050919050565b7f4e6f74206578616374207175697a000000000000000000000000000000000000600082015250565b6000616c06600e836166a7565b9150616c1182616bd0565b602082019050919050565b60006020820190508181036000830152616c3581616bf9565b9050919050565b7f5175697a20646f6573206e6f7420657869737400000000000000000000000000600082015250565b6000616c726013836166a7565b9150616c7d82616c3c565b602082019050919050565b60006020820190508181036000830152616ca181616c65565b9050919050565b7f4c6573736f6e20446f6573206e6f742065786973742100000000000000000000600082015250565b6000616cde6016836166a7565b9150616ce982616ca8565b602082019050919050565b60006020820190508181036000830152616d0d81616cd1565b9050919050565b7f4e487b7100000000000000000000000000000000000000000000000000000000600052601160045260246000fd5b6000616d4e82615067565b91507fffffffffffffffffffffffffffffffffffffffffffffffffffffffffffffffff8203616d8057616d7f616d14565b5b600182019050919050565b600081549050616d9a816167ee565b9050919050565b818103616daf575050616e87565b616db882616d8b565b67ffffffffffffffff811115616dd157616dd0615210565b5b616ddb82546167ee565b616de682828561693e565b6000601f831160018114616e155760008415616e03578287015490505b616e0d85826169af565b865550616e80565b601f198416616e238761681f565b9650616e2e8661681f565b60005b82811015616e5657848901548255600182019150600185019450602081019050616e31565b86831015616e735784890154616e6f601f891682616991565b8355505b6001600288020188555050505b5050505050505b565b600081905092915050565b6000616e9f8261573f565b616ea98185616e89565b9350616eb981856020860161575b565b80840191505092915050565b6000616ed18284616e94565b915081905092915050565b7f4368617074657220646f6573206e6f7420657869737421000000000000000000600082015250565b6000616f126017836166a7565b9150616f1d82616edc565b602082019050919050565b60006020820190508181036000830152616f4181616f05565b9050919050565b7f5175657374696f6e206e6f7420666f756e6420696e2074686973207175697a00600082015250565b6000616f7e601f836166a7565b9150616f8982616f48565b602082019050919050565b60006020820190508181036000830152616fad81616f71565b9050919050565b6000616fbf82615067565b9150616fca83615067565b9250828203905081811115616fe257616fe1616d14565b5b92915050565b7f4e487b7100000000000000000000000000000000000000000000000000000000600052603160045260246000fd5b7f4368617074657220646f65736e27742065786973740000000000000000000000600082015250565b600061704d6015836166a7565b915061705882617017565b602082019050919050565b6000602082019050818103600083015261707c81617040565b9050919050565b7f4c6573736f6e20646f65736e2774206578697374000000000000000000000000600082015250565b60006170b96014836166a7565b91506170c482617083565b602082019050919050565b600060208201905081810360008301526170e8816170ac565b9050919050565b7f4c6573736f6e20646f6573206e6f742065786973742100000000000000000000600082015250565b60006171256016836166a7565b9150617130826170ef565b602082019050919050565b6000602082019050818103600083015261715481617118565b9050919050565b600061716682615067565b915061717183615067565b925082820190508082111561718957617188616d14565b5b92915050565b7f45786365656473206d6178696d756d207265736f757263657321000000000000600082015250565b60006171c5601a836166a7565b91506171d08261718f565b602082019050919050565b600060208201905081810360008301526171f4816171b8565b9050919050565b600080fd5b600080fd5b600080fd5b600082356001606003833603038112617226576172256171fb565b5b80830191505092915050565b60006020828403121561724857617247614fa2565b5b600061725684828501615386565b91505092915050565b6000808335600160200384360303811261727c5761727b6171fb565b5b80840192508235915067ffffffffffffffff82111561729e5761729d617200565b5b6020830192506001820236038313156172ba576172b9617205565b5b509250929050565b7f416c7265616479206d61726b6564000000000000000000000000000000000000600082015250565b60006172f8600e836166a7565b9150617303826172c2565b602082019050919050565b60006020820190508181036000830152617327816172eb565b9050919050565b61733781615177565b82525050565b6000602082019050617352600083018461732e565b92915050565b7f436f7572736520646f6573206e6f742065786973742100000000000000000000600082015250565b600061738e6016836166a7565b915061739982617358565b602082019050919050565b600060208201905081810360008301526173bd81617381565b9050919050565b7f496e76616c6964206e756d626572206f662063686f6963657300000000000000600082015250565b60006173fa6019836166a7565b9150617405826173c4565b602082019050919050565b60006020820190508181036000830152617429816173ed565b9050919050565b7f496e76616c696420636f72726563742063686f69636520696e64657800000000600082015250565b6000617466601c836166a7565b915061747182617430565b602082019050919050565b6000602082019050818103600083015261749581617459565b9050919050565b60006174a782616573565b915060ff82036174ba576174b9616d14565b5b600182019050919050565b60006060820190506174da6000830186615665565b6174e76020830185615665565b81810360408301526174f98184616b09565b9050949350505050565b7f4e756d626572206f6620616e7377657273206d75737420657175616c206e756d60008201527f626572206f66207175657374696f6e7300000000000000000000000000000000602082015250565b600061755f6030836166a7565b915061756a82617503565b604082019050919050565b6000602082019050818103600083015261758e81617552565b9050919050565b7f496e76616c69642063686f6963652073656c6563746564000000000000000000600082015250565b60006175cb6017836166a7565b91506175d682617595565b602082019050919050565b600060208201905081810360008301526175fa816175be565b9050919050565b600061760c82615067565b915061761783615067565b925082820261762581615067565b9150828204841483151761763c5761763b616d14565b5b5092915050565b7f4e487b7100000000000000000000000000000000000000000000000000000000600052601260045260246000fd5b600061767d82615067565b915061768883615067565b92508261769857617697617643565b5b828204905092915050565b60006040820190506176b86000830185615665565b6176c56020830184615665565b9392505050565b7f436f7572736520646f65736e2774206578697374000000000000000000000000600082015250565b60006177026014836166a7565b915061770d826176cc565b602082019050919050565b60006020820190508181036000830152617731816176f5565b9050919050565b7f4368617074657220646f65736e2774206e6f7420657869737400000000000000600082015250565b600061776e6019836166a7565b915061777982617738565b602082019050919050565b6000602082019050818103600083015261779d81617761565b9050919050565b7f5175697a20646f65736e27742065786973740000000000000000000000000000600082015250565b60006177da6012836166a7565b91506177e5826177a4565b602082019050919050565b60006020820190508181036000830152617809816177cd565b9050919050565b7f436f75727365206e6f742079657420617070726f766564210000000000000000600082015250565b60006178466018836166a7565b915061785182617810565b602082019050919050565b6000602082019050818103600083015261787581617839565b9050919050565b7f416c726561647920656e726f6c6c656400000000000000000000000000000000600082015250565b60006178b26010836166a7565b91506178bd8261787c565b602082019050919050565b600060208201905081810360008301526178e1816178a5565b9050919050565b7f4c696d6974204578636565646564210000000000000000000000000000000000600082015250565b600061791e600f836166a7565b9150617929826178e8565b602082019050919050565b6000602082019050818103600083015261794d81617911565b9050919050565b6000604082019050617969600083018561732e565b617976602083018461512d565b939250505056fea2646970667358221220cd1066d2f51d1dbd8b762521360b45485640ee12f12531a4ebb754dc5d42456f64736f6c634300081b0033",
  "linkReferences": {},
  "deployedLinkReferences": {}
}