{
  "_format": "hh-sol-artifact-1",
  "contractName": "Ecosystem2Facet",
  "sourceName": "contracts/DiamondProxy/Ecosystem2Facet.sol",
  "abi": [
    {
      "inputs": [],
      "name": "AccessControlBadConfirmation",
      "type": "error"
    },
    {
      "inputs": [
        {
          "internalType": "address",
          "name": "account",
          "type": "address"
        },
        {
          "internalType": "bytes32",
          "name": "neededRole",
          "type": "bytes32"
        }
      ],
      "name": "AccessControlUnauthorizedAccount",
      "type": "error"
    },
    {
      "inputs": [],
      "name": "ReentrancyGuardReentrantCall",
      "type": "error"
    },
    {
      "anonymous": false,
      "inputs": [
        {
          "indexed": true,
          "internalType": "uint256",
          "name": "_courseId",
          "type": "uint256"
        },
        {
          "indexed": true,
          "internalType": "uint256",
          "name": "_chaterId",
          "type": "uint256"
        }
      ],
      "name": "ChapterDeletedSuccess",
      "type": "event"
    },
    {
      "anonymous": false,
      "inputs": [
        {
          "indexed": true,
          "internalType": "uint256",
          "name": "_courseId",
          "type": "uint256"
        },
        {
          "indexed": true,
          "internalType": "uint256",
          "name": "_chapterId",
          "type": "uint256"
        },
        {
          "indexed": false,
          "internalType": "string",
          "name": "_chapterName",
          "type": "string"
        }
      ],
      "name": "ChapterEdited",
      "type": "event"
    },
    {
      "anonymous": false,
      "inputs": [
        {
          "indexed": true,
          "internalType": "uint256",
          "name": "_courseId",
          "type": "uint256"
        },
        {
          "indexed": true,
          "internalType": "uint256",
          "name": "numberOfChapters",
          "type": "uint256"
        }
      ],
      "name": "ChaptersAddedSuccessfully",
      "type": "event"
    },
    {
      "anonymous": false,
      "inputs": [
        {
          "indexed": false,
          "internalType": "uint256",
          "name": "questionId",
          "type": "uint256"
        },
        {
          "indexed": false,
          "internalType": "uint256",
          "name": "choiceId",
          "type": "uint256"
        },
        {
          "indexed": false,
          "internalType": "string",
          "name": "option",
          "type": "string"
        }
      ],
      "name": "ChoiceAdded",
      "type": "event"
    },
    {
      "anonymous": false,
      "inputs": [
        {
          "indexed": true,
          "internalType": "address",
          "name": "_to",
          "type": "address"
        },
        {
          "indexed": true,
          "internalType": "uint256",
          "name": "_amount",
          "type": "uint256"
        }
      ],
      "name": "EcosystemPoolUpdate",
      "type": "event"
    },
    {
      "anonymous": false,
      "inputs": [
        {
          "indexed": true,
          "internalType": "uint256",
          "name": "_courseId",
          "type": "uint256"
        },
        {
          "indexed": true,
          "internalType": "address",
          "name": "_by",
          "type": "address"
        }
      ],
      "name": "EnrollmentSuccess",
      "type": "event"
    },
    {
      "anonymous": false,
      "inputs": [
        {
          "indexed": true,
          "internalType": "uint256",
          "name": "_lessonId",
          "type": "uint256"
        },
        {
          "indexed": true,
          "internalType": "string",
          "name": "_lessonName",
          "type": "string"
        },
        {
          "indexed": true,
          "internalType": "uint256",
          "name": "_additonalResources",
          "type": "uint256"
        }
      ],
      "name": "LessonCreationSuccess",
      "type": "event"
    },
    {
      "anonymous": false,
      "inputs": [
        {
          "indexed": true,
          "internalType": "uint256",
          "name": "_chapterId",
          "type": "uint256"
        },
        {
          "indexed": true,
          "internalType": "uint256",
          "name": "_lessonId",
          "type": "uint256"
        }
      ],
      "name": "LessonDeleted",
      "type": "event"
    },
    {
      "anonymous": false,
      "inputs": [
        {
          "indexed": true,
          "internalType": "uint256",
          "name": "_lessonId",
          "type": "uint256"
        },
        {
          "indexed": false,
          "internalType": "string",
          "name": "_lessonName",
          "type": "string"
        }
      ],
      "name": "LessonEdited",
      "type": "event"
    },
    {
      "anonymous": false,
      "inputs": [
        {
          "indexed": true,
          "internalType": "uint256",
          "name": "_chapterId",
          "type": "uint256"
        },
        {
          "indexed": true,
          "internalType": "uint256",
          "name": "_lessonId",
          "type": "uint256"
        },
        {
          "indexed": false,
          "internalType": "address",
          "name": "learner",
          "type": "address"
        }
      ],
      "name": "LessonMarkedAsRead",
      "type": "event"
    },
    {
      "anonymous": false,
      "inputs": [
        {
          "indexed": false,
          "internalType": "uint256",
          "name": "quizId",
          "type": "uint256"
        },
        {
          "indexed": false,
          "internalType": "uint256",
          "name": "questionId",
          "type": "uint256"
        },
        {
          "indexed": false,
          "internalType": "string",
          "name": "questionText",
          "type": "string"
        }
      ],
      "name": "QuestionAdded",
      "type": "event"
    },
    {
      "anonymous": false,
      "inputs": [
        {
          "indexed": true,
          "internalType": "uint256",
          "name": "_quizId",
          "type": "uint256"
        },
        {
          "indexed": true,
          "internalType": "uint256",
          "name": "_questionId",
          "type": "uint256"
        }
      ],
      "name": "QuestionDeleted",
      "type": "event"
    },
    {
      "anonymous": false,
      "inputs": [
        {
          "indexed": true,
          "internalType": "uint256",
          "name": "_quizId",
          "type": "uint256"
        },
        {
          "indexed": true,
          "internalType": "string",
          "name": "_title",
          "type": "string"
        }
      ],
      "name": "QuizCreatedSuccess",
      "type": "event"
    },
    {
      "anonymous": false,
      "inputs": [
        {
          "indexed": true,
          "internalType": "uint256",
          "name": "_lessonId",
          "type": "uint256"
        },
        {
          "indexed": true,
          "internalType": "uint256",
          "name": "_quizId",
          "type": "uint256"
        }
      ],
      "name": "QuizDeleted",
      "type": "event"
    },
    {
      "anonymous": false,
      "inputs": [
        {
          "indexed": true,
          "internalType": "uint256",
          "name": "_lessonId",
          "type": "uint256"
        },
        {
          "indexed": true,
          "internalType": "uint256",
          "name": "_quizId",
          "type": "uint256"
        },
        {
          "indexed": false,
          "internalType": "string",
          "name": "_quizTitle",
          "type": "string"
        }
      ],
      "name": "QuizEdited",
      "type": "event"
    },
    {
      "anonymous": false,
      "inputs": [
        {
          "indexed": true,
          "internalType": "uint256",
          "name": "_quizId",
          "type": "uint256"
        },
        {
          "indexed": true,
          "internalType": "address",
          "name": "_user",
          "type": "address"
        }
      ],
      "name": "QuizLocked",
      "type": "event"
    },
    {
      "anonymous": false,
      "inputs": [
        {
          "indexed": true,
          "internalType": "address",
          "name": "learner",
          "type": "address"
        },
        {
          "indexed": false,
          "internalType": "uint256",
          "name": "quizId",
          "type": "uint256"
        },
        {
          "indexed": false,
          "internalType": "uint256",
          "name": "score",
          "type": "uint256"
        }
      ],
      "name": "QuizSubmitted",
      "type": "event"
    },
    {
      "anonymous": false,
      "inputs": [
        {
          "indexed": true,
          "internalType": "uint256",
          "name": "_lessonId",
          "type": "uint256"
        },
        {
          "indexed": true,
          "internalType": "uint256",
          "name": "resourceCount",
          "type": "uint256"
        }
      ],
      "name": "ResourceAddSuccess",
      "type": "event"
    },
    {
      "anonymous": false,
      "inputs": [
        {
          "indexed": true,
          "internalType": "bytes32",
          "name": "role",
          "type": "bytes32"
        },
        {
          "indexed": true,
          "internalType": "bytes32",
          "name": "previousAdminRole",
          "type": "bytes32"
        },
        {
          "indexed": true,
          "internalType": "bytes32",
          "name": "newAdminRole",
          "type": "bytes32"
        }
      ],
      "name": "RoleAdminChanged",
      "type": "event"
    },
    {
      "anonymous": false,
      "inputs": [
        {
          "indexed": true,
          "internalType": "bytes32",
          "name": "role",
          "type": "bytes32"
        },
        {
          "indexed": true,
          "internalType": "address",
          "name": "account",
          "type": "address"
        },
        {
          "indexed": true,
          "internalType": "address",
          "name": "sender",
          "type": "address"
        }
      ],
      "name": "RoleGranted",
      "type": "event"
    },
    {
      "anonymous": false,
      "inputs": [
        {
          "indexed": true,
          "internalType": "bytes32",
          "name": "role",
          "type": "bytes32"
        },
        {
          "indexed": true,
          "internalType": "address",
          "name": "account",
          "type": "address"
        },
        {
          "indexed": true,
          "internalType": "address",
          "name": "sender",
          "type": "address"
        }
      ],
      "name": "RoleRevoked",
      "type": "event"
    },
    {
      "anonymous": false,
      "inputs": [
        {
          "indexed": true,
          "internalType": "uint256",
          "name": "_courseId",
          "type": "uint256"
        },
        {
          "indexed": true,
          "internalType": "address",
          "name": "_by",
          "type": "address"
        }
      ],
      "name": "unEnrollmentSuccess",
      "type": "event"
    },
    {
      "inputs": [],
      "name": "DEFAULT_ADMIN_ROLE",
      "outputs": [
        {
          "internalType": "bytes32",
          "name": "",
          "type": "bytes32"
        }
      ],
      "stateMutability": "view",
      "type": "function"
    },
    {
      "inputs": [
        {
          "internalType": "uint256",
          "name": "_courseId",
          "type": "uint256"
        },
        {
          "internalType": "string[]",
          "name": "_chapters",
          "type": "string[]"
        },
        {
          "internalType": "uint256[]",
          "name": "_durations",
          "type": "uint256[]"
        }
      ],
      "name": "addChapters",
      "outputs": [
        {
          "internalType": "bool",
          "name": "",
          "type": "bool"
        }
      ],
      "stateMutability": "nonpayable",
      "type": "function"
    },
    {
      "inputs": [
        {
          "internalType": "uint256",
          "name": "_chapterId",
          "type": "uint256"
        },
        {
          "internalType": "string",
          "name": "_lessonName",
          "type": "string"
        },
        {
          "internalType": "string",
          "name": "_lessonContent",
          "type": "string"
        }
      ],
      "name": "addLesson",
      "outputs": [],
      "stateMutability": "nonpayable",
      "type": "function"
    },
    {
      "inputs": [
        {
          "internalType": "uint256",
          "name": "_lessonId",
          "type": "uint256"
        },
        {
          "internalType": "enum LibDiamond.ContentType",
          "name": "contentType",
          "type": "uint8"
        },
        {
          "components": [
            {
              "internalType": "enum LibDiamond.ContentType",
              "name": "contentType",
              "type": "uint8"
            },
            {
              "internalType": "string",
              "name": "url",
              "type": "string"
            },
            {
              "internalType": "string",
              "name": "name",
              "type": "string"
            }
          ],
          "internalType": "struct LibDiamond.Resource[]",
          "name": "_resources",
          "type": "tuple[]"
        }
      ],
      "name": "addResourcesToLesson",
      "outputs": [],
      "stateMutability": "nonpayable",
      "type": "function"
    },
    {
      "inputs": [
        {
          "internalType": "uint256",
          "name": "_quizId",
          "type": "uint256"
        },
        {
          "internalType": "string",
          "name": "_questionText",
          "type": "string"
        },
        {
          "internalType": "string[]",
          "name": "_options",
          "type": "string[]"
        },
        {
          "internalType": "uint8",
          "name": "_correctChoiceIndex",
          "type": "uint8"
        }
      ],
      "name": "createQuestionWithChoices",
      "outputs": [],
      "stateMutability": "nonpayable",
      "type": "function"
    },
    {
      "inputs": [
        {
          "internalType": "uint256",
          "name": "_lessonId",
          "type": "uint256"
        },
        {
          "internalType": "string",
          "name": "_title",
          "type": "string"
        }
      ],
      "name": "createQuiz",
      "outputs": [
        {
          "internalType": "uint256",
          "name": "",
          "type": "uint256"
        }
      ],
      "stateMutability": "nonpayable",
      "type": "function"
    },
    {
      "inputs": [
        {
          "internalType": "uint256",
          "name": "_courseId",
          "type": "uint256"
        },
        {
          "internalType": "uint256",
          "name": "_chapterId",
          "type": "uint256"
        }
      ],
      "name": "deleteChapter",
      "outputs": [
        {
          "internalType": "bool",
          "name": "",
          "type": "bool"
        }
      ],
      "stateMutability": "nonpayable",
      "type": "function"
    },
    {
      "inputs": [
        {
          "internalType": "uint256",
          "name": "_chapterId",
          "type": "uint256"
        },
        {
          "internalType": "uint256",
          "name": "_lessonId",
          "type": "uint256"
        }
      ],
      "name": "deleteLesson",
      "outputs": [
        {
          "internalType": "bool",
          "name": "",
          "type": "bool"
        }
      ],
      "stateMutability": "nonpayable",
      "type": "function"
    },
    {
      "inputs": [
        {
          "internalType": "uint256",
          "name": "_quizId",
          "type": "uint256"
        },
        {
          "internalType": "uint256",
          "name": "_questionId",
          "type": "uint256"
        }
      ],
      "name": "deleteQuestion",
      "outputs": [
        {
          "internalType": "bool",
          "name": "",
          "type": "bool"
        }
      ],
      "stateMutability": "nonpayable",
      "type": "function"
    },
    {
      "inputs": [
        {
          "internalType": "uint256",
          "name": "_lessonId",
          "type": "uint256"
        },
        {
          "internalType": "uint256",
          "name": "_quizId",
          "type": "uint256"
        }
      ],
      "name": "deleteQuiz",
      "outputs": [
        {
          "internalType": "bool",
          "name": "",
          "type": "bool"
        }
      ],
      "stateMutability": "nonpayable",
      "type": "function"
    },
    {
      "inputs": [
        {
          "internalType": "uint256",
          "name": "_courseId",
          "type": "uint256"
        },
        {
          "internalType": "uint256",
          "name": "_chapterId",
          "type": "uint256"
        },
        {
          "internalType": "string",
          "name": "_chapterName",
          "type": "string"
        }
      ],
      "name": "editChapter",
      "outputs": [
        {
          "internalType": "bool",
          "name": "",
          "type": "bool"
        }
      ],
      "stateMutability": "nonpayable",
      "type": "function"
    },
    {
      "inputs": [
        {
          "internalType": "uint256",
          "name": "_lessonId",
          "type": "uint256"
        },
        {
          "internalType": "string",
          "name": "_lessonName",
          "type": "string"
        },
        {
          "internalType": "string",
          "name": "_lessonContent",
          "type": "string"
        },
        {
          "components": [
            {
              "internalType": "enum LibDiamond.ContentType",
              "name": "contentType",
              "type": "uint8"
            },
            {
              "internalType": "string",
              "name": "url",
              "type": "string"
            },
            {
              "internalType": "string",
              "name": "name",
              "type": "string"
            }
          ],
          "internalType": "struct LibDiamond.Resource[]",
          "name": "_additionalResources",
          "type": "tuple[]"
        }
      ],
      "name": "editLesson",
      "outputs": [
        {
          "internalType": "bool",
          "name": "",
          "type": "bool"
        }
      ],
      "stateMutability": "nonpayable",
      "type": "function"
    },
    {
      "inputs": [
        {
          "internalType": "uint256",
          "name": "_lessonId",
          "type": "uint256"
        },
        {
          "internalType": "uint256",
          "name": "_quizId",
          "type": "uint256"
        },
        {
          "internalType": "string",
          "name": "_quizTitle",
          "type": "string"
        }
      ],
      "name": "editQuiz",
      "outputs": [],
      "stateMutability": "nonpayable",
      "type": "function"
    },
    {
      "inputs": [
        {
          "internalType": "uint256",
          "name": "_courseId",
          "type": "uint256"
        }
      ],
      "name": "enroll",
      "outputs": [
        {
          "internalType": "bool",
          "name": "",
          "type": "bool"
        }
      ],
      "stateMutability": "nonpayable",
      "type": "function"
    },
    {
      "inputs": [],
      "name": "getAllChapters",
      "outputs": [
        {
          "components": [
            {
              "internalType": "uint256",
              "name": "courseId",
              "type": "uint256"
            },
            {
              "internalType": "uint256",
              "name": "chapterId",
              "type": "uint256"
            },
            {
              "internalType": "string",
              "name": "chapterName",
              "type": "string"
            },
            {
              "internalType": "uint256",
              "name": "duration",
              "type": "uint256"
            },
            {
              "internalType": "bool",
              "name": "exists",
              "type": "bool"
            }
          ],
          "internalType": "struct LibDiamond.Chapter[]",
          "name": "",
          "type": "tuple[]"
        }
      ],
      "stateMutability": "view",
      "type": "function"
    },
    {
      "inputs": [],
      "name": "getAllLessons",
      "outputs": [
        {
          "components": [
            {
              "internalType": "uint256",
              "name": "chapterId",
              "type": "uint256"
            },
            {
              "internalType": "uint256",
              "name": "lessonId",
              "type": "uint256"
            },
            {
              "internalType": "string",
              "name": "lessonName",
              "type": "string"
            },
            {
              "internalType": "string",
              "name": "lessonContent",
              "type": "string"
            },
            {
              "components": [
                {
                  "internalType": "enum LibDiamond.ContentType",
                  "name": "contentType",
                  "type": "uint8"
                },
                {
                  "internalType": "string",
                  "name": "url",
                  "type": "string"
                },
                {
                  "internalType": "string",
                  "name": "name",
                  "type": "string"
                }
              ],
              "internalType": "struct LibDiamond.Resource[10]",
              "name": "additionalResources",
              "type": "tuple[10]"
            },
            {
              "internalType": "uint256",
              "name": "resourceCount",
              "type": "uint256"
            },
            {
              "internalType": "bool",
              "name": "exists",
              "type": "bool"
            }
          ],
          "internalType": "struct LibDiamond.Lesson[]",
          "name": "",
          "type": "tuple[]"
        }
      ],
      "stateMutability": "view",
      "type": "function"
    },
    {
      "inputs": [],
      "name": "getAllQuizzes",
      "outputs": [
        {
          "components": [
            {
              "internalType": "uint256",
              "name": "lessonId",
              "type": "uint256"
            },
            {
              "internalType": "uint256",
              "name": "quizId",
              "type": "uint256"
            },
            {
              "internalType": "string",
              "name": "quizTitle",
              "type": "string"
            },
            {
              "components": [
                {
                  "internalType": "uint256",
                  "name": "quizId",
                  "type": "uint256"
                },
                {
                  "internalType": "uint256",
                  "name": "questionId",
                  "type": "uint256"
                },
                {
                  "internalType": "string",
                  "name": "questionText",
                  "type": "string"
                },
                {
                  "components": [
                    {
                      "internalType": "string",
                      "name": "option",
                      "type": "string"
                    },
                    {
                      "internalType": "bool",
                      "name": "isCorrect",
                      "type": "bool"
                    }
                  ],
                  "internalType": "struct LibDiamond.Choice[]",
                  "name": "choices",
                  "type": "tuple[]"
                }
              ],
              "internalType": "struct LibDiamond.Question[]",
              "name": "questions",
              "type": "tuple[]"
            },
            {
              "internalType": "bool",
              "name": "exists",
              "type": "bool"
            },
            {
              "internalType": "uint256",
              "name": "lockTime",
              "type": "uint256"
            }
          ],
          "internalType": "struct LibDiamond.Quiz[]",
          "name": "",
          "type": "tuple[]"
        }
      ],
      "stateMutability": "view",
      "type": "function"
    },
    {
      "inputs": [
        {
          "internalType": "uint256",
          "name": "_courseId",
          "type": "uint256"
        }
      ],
      "name": "getChapters",
      "outputs": [
        {
          "components": [
            {
              "internalType": "uint256",
              "name": "courseId",
              "type": "uint256"
            },
            {
              "internalType": "uint256",
              "name": "chapterId",
              "type": "uint256"
            },
            {
              "internalType": "string",
              "name": "chapterName",
              "type": "string"
            },
            {
              "internalType": "uint256",
              "name": "duration",
              "type": "uint256"
            },
            {
              "internalType": "bool",
              "name": "exists",
              "type": "bool"
            }
          ],
          "internalType": "struct LibDiamond.Chapter[]",
          "name": "",
          "type": "tuple[]"
        }
      ],
      "stateMutability": "view",
      "type": "function"
    },
    {
      "inputs": [
        {
          "internalType": "uint256",
          "name": "_quizId",
          "type": "uint256"
        }
      ],
      "name": "getQuestionsForQuiz",
      "outputs": [
        {
          "components": [
            {
              "internalType": "uint256",
              "name": "quizId",
              "type": "uint256"
            },
            {
              "internalType": "uint256",
              "name": "questionId",
              "type": "uint256"
            },
            {
              "internalType": "string",
              "name": "questionText",
              "type": "string"
            },
            {
              "components": [
                {
                  "internalType": "string",
                  "name": "option",
                  "type": "string"
                },
                {
                  "internalType": "bool",
                  "name": "isCorrect",
                  "type": "bool"
                }
              ],
              "internalType": "struct LibDiamond.Choice[]",
              "name": "choices",
              "type": "tuple[]"
            }
          ],
          "internalType": "struct LibDiamond.Question[]",
          "name": "",
          "type": "tuple[]"
        }
      ],
      "stateMutability": "view",
      "type": "function"
    },
    {
      "inputs": [
        {
          "internalType": "uint256",
          "name": "_quizId",
          "type": "uint256"
        }
      ],
      "name": "getQuiz",
      "outputs": [
        {
          "components": [
            {
              "internalType": "uint256",
              "name": "lessonId",
              "type": "uint256"
            },
            {
              "internalType": "uint256",
              "name": "quizId",
              "type": "uint256"
            },
            {
              "internalType": "string",
              "name": "quizTitle",
              "type": "string"
            },
            {
              "components": [
                {
                  "internalType": "uint256",
                  "name": "quizId",
                  "type": "uint256"
                },
                {
                  "internalType": "uint256",
                  "name": "questionId",
                  "type": "uint256"
                },
                {
                  "internalType": "string",
                  "name": "questionText",
                  "type": "string"
                },
                {
                  "components": [
                    {
                      "internalType": "string",
                      "name": "option",
                      "type": "string"
                    },
                    {
                      "internalType": "bool",
                      "name": "isCorrect",
                      "type": "bool"
                    }
                  ],
                  "internalType": "struct LibDiamond.Choice[]",
                  "name": "choices",
                  "type": "tuple[]"
                }
              ],
              "internalType": "struct LibDiamond.Question[]",
              "name": "questions",
              "type": "tuple[]"
            },
            {
              "internalType": "bool",
              "name": "exists",
              "type": "bool"
            },
            {
              "internalType": "uint256",
              "name": "lockTime",
              "type": "uint256"
            }
          ],
          "internalType": "struct LibDiamond.Quiz",
          "name": "",
          "type": "tuple"
        }
      ],
      "stateMutability": "view",
      "type": "function"
    },
    {
      "inputs": [
        {
          "internalType": "uint256",
          "name": "_quizId",
          "type": "uint256"
        },
        {
          "internalType": "address",
          "name": "_user",
          "type": "address"
        }
      ],
      "name": "getQuizLockTime",
      "outputs": [
        {
          "internalType": "uint256",
          "name": "",
          "type": "uint256"
        }
      ],
      "stateMutability": "view",
      "type": "function"
    },
    {
      "inputs": [
        {
          "internalType": "bytes32",
          "name": "role",
          "type": "bytes32"
        }
      ],
      "name": "getRoleAdmin",
      "outputs": [
        {
          "internalType": "bytes32",
          "name": "",
          "type": "bytes32"
        }
      ],
      "stateMutability": "view",
      "type": "function"
    },
    {
      "inputs": [
        {
          "internalType": "uint256",
          "name": "_courseId",
          "type": "uint256"
        }
      ],
      "name": "getUserCompletedLessonsByCourse",
      "outputs": [
        {
          "internalType": "uint256[]",
          "name": "",
          "type": "uint256[]"
        }
      ],
      "stateMutability": "view",
      "type": "function"
    },
    {
      "inputs": [
        {
          "internalType": "uint256",
          "name": "_courseId",
          "type": "uint256"
        }
      ],
      "name": "getUserCompletedQuizzesByCourse",
      "outputs": [
        {
          "internalType": "uint256[]",
          "name": "",
          "type": "uint256[]"
        }
      ],
      "stateMutability": "view",
      "type": "function"
    },
    {
      "inputs": [
        {
          "internalType": "bytes32",
          "name": "role",
          "type": "bytes32"
        },
        {
          "internalType": "address",
          "name": "account",
          "type": "address"
        }
      ],
      "name": "grantRole",
      "outputs": [],
      "stateMutability": "nonpayable",
      "type": "function"
    },
    {
      "inputs": [
        {
          "internalType": "bytes32",
          "name": "role",
          "type": "bytes32"
        },
        {
          "internalType": "address",
          "name": "account",
          "type": "address"
        }
      ],
      "name": "hasRole",
      "outputs": [
        {
          "internalType": "bool",
          "name": "",
          "type": "bool"
        }
      ],
      "stateMutability": "view",
      "type": "function"
    },
    {
      "inputs": [
        {
          "internalType": "uint256",
          "name": "_courseId",
          "type": "uint256"
        },
        {
          "internalType": "uint256",
          "name": "_quizId",
          "type": "uint256"
        }
      ],
      "name": "lockQuiz",
      "outputs": [],
      "stateMutability": "nonpayable",
      "type": "function"
    },
    {
      "inputs": [
        {
          "internalType": "uint256",
          "name": "_courseId",
          "type": "uint256"
        },
        {
          "internalType": "uint256",
          "name": "_chapterId",
          "type": "uint256"
        },
        {
          "internalType": "uint256",
          "name": "_lessonId",
          "type": "uint256"
        }
      ],
      "name": "markAsRead",
      "outputs": [
        {
          "internalType": "bool",
          "name": "",
          "type": "bool"
        }
      ],
      "stateMutability": "nonpayable",
      "type": "function"
    },
    {
      "inputs": [
        {
          "internalType": "uint256",
          "name": "_quizId",
          "type": "uint256"
        }
      ],
      "name": "quizExists",
      "outputs": [
        {
          "internalType": "bool",
          "name": "",
          "type": "bool"
        }
      ],
      "stateMutability": "view",
      "type": "function"
    },
    {
      "inputs": [
        {
          "internalType": "bytes32",
          "name": "role",
          "type": "bytes32"
        },
        {
          "internalType": "address",
          "name": "callerConfirmation",
          "type": "address"
        }
      ],
      "name": "renounceRole",
      "outputs": [],
      "stateMutability": "nonpayable",
      "type": "function"
    },
    {
      "inputs": [
        {
          "internalType": "bytes32",
          "name": "role",
          "type": "bytes32"
        },
        {
          "internalType": "address",
          "name": "account",
          "type": "address"
        }
      ],
      "name": "revokeRole",
      "outputs": [],
      "stateMutability": "nonpayable",
      "type": "function"
    },
    {
      "inputs": [
        {
          "internalType": "uint256",
          "name": "_courseId",
          "type": "uint256"
        },
        {
          "internalType": "uint256",
          "name": "_quizId",
          "type": "uint256"
        },
        {
          "internalType": "uint256[]",
          "name": "_answers",
          "type": "uint256[]"
        },
        {
          "internalType": "uint256",
          "name": "_score",
          "type": "uint256"
        }
      ],
      "name": "submitQuiz",
      "outputs": [
        {
          "internalType": "bool",
          "name": "",
          "type": "bool"
        }
      ],
      "stateMutability": "nonpayable",
      "type": "function"
    },
    {
      "inputs": [
        {
          "internalType": "bytes4",
          "name": "interfaceId",
          "type": "bytes4"
        }
      ],
      "name": "supportsInterface",
      "outputs": [
        {
          "internalType": "bool",
          "name": "",
          "type": "bool"
        }
      ],
      "stateMutability": "view",
      "type": "function"
    },
    {
      "inputs": [
        {
          "internalType": "uint256",
          "name": "_courseId",
          "type": "uint256"
        }
      ],
      "name": "unEnroll",
      "outputs": [
        {
          "internalType": "bool",
          "name": "",
          "type": "bool"
        }
      ],
      "stateMutability": "nonpayable",
      "type": "function"
    }
  ],
  "bytecode": "0x6080604052348015600f57600080fd5b506001600081905550617eb0806100276000396000f3fe608060405234801561001057600080fd5b50600436106102065760003560e01c806391d148541161011a578063b99a9030116100ad578063d547741f1161007c578063d547741f146106a7578063e09bcae3146106c3578063e8639751146106f3578063ea0978ad14610723578063f57d585b1461075357610206565b8063b99a9030146105fb578063d03646941461062b578063d214ba741461065b578063d3751bfc1461068b57610206565b8063a296ea58116100e9578063a296ea5814610561578063a3f7e0961461057f578063ac678a93146105af578063b31a4af3146105df57610206565b806391d14854146104c55780639bce5751146104f5578063a1051dfe14610513578063a217fddf1461054357610206565b806336568abe1161019d57806362cd79981161016c57806362cd7998146103fb578063632c224b1461042b5780636a4af0fa1461045b57806375b9d8691461047957806388a8270f1461049557610206565b806336568abe1461034f57806336c691521461036b5780634a474b9c1461039b5780635d6a12ec146103cb57610206565b80632f2ff15d116101d95780632f2ff15d146102b757806330a3549a146102d357806334359da91461030357806334f9b3fb1461033357610206565b806301ffc9a71461020b5780630526ba551461023b57806320bd031614610257578063248a9ca314610287575b600080fd5b61022560048036038101906102209190615514565b610783565b604051610232919061555c565b60405180910390f35b610255600480360381019061025091906155ad565b6107fd565b005b610271600480360381019061026c91906155ed565b610a2c565b60405161027e919061555c565b60405180910390f35b6102a1600480360381019061029c9190615650565b610c1e565b6040516102ae919061568c565b60405180910390f35b6102d160048036038101906102cc9190615705565b610c3e565b005b6102ed60048036038101906102e89190615a3c565b610c60565b6040516102fa919061555c565b60405180910390f35b61031d600480360381019061031891906155ed565b610eb5565b60405161032a9190615bb5565b60405180910390f35b61034d60048036038101906103489190615bd7565b610f72565b005b61036960048036038101906103649190615705565b6110c3565b005b61038560048036038101906103809190615c46565b61113e565b6040516103929190615c95565b60405180910390f35b6103b560048036038101906103b091906155ed565b61120c565b6040516103c29190615f69565b60405180910390f35b6103e560048036038101906103e0919061604e565b6114a7565b6040516103f2919061555c565b60405180910390f35b610415600480360381019061041091906155ed565b6116ba565b6040516104229190615bb5565b60405180910390f35b610445600480360381019061044091906160d1565b611777565b6040516104529190615c95565b60405180910390f35b6104636119b8565b6040516104709190616305565b60405180910390f35b610493600480360381019061048e9190616327565b611d73565b005b6104af60048036038101906104aa91906155ad565b611ff6565b6040516104bc919061555c565b60405180910390f35b6104df60048036038101906104da9190615705565b6122b0565b6040516104ec919061555c565b60405180910390f35b6104fd61231b565b60405161050a91906164ea565b60405180910390f35b61052d600480360381019061052891906155ad565b6124c7565b60405161053a919061555c565b60405180910390f35b61054b61281b565b604051610558919061568c565b60405180910390f35b610569612822565b60405161057691906167fc565b60405180910390f35b610599600480360381019061059491906155ed565b612c0b565b6040516105a691906168ae565b60405180910390f35b6105c960048036038101906105c491906155ed565b612f88565b6040516105d691906164ea565b60405180910390f35b6105f960048036038101906105f4919061692b565b6130d4565b005b610615600480360381019061061091906155ed565b6134b0565b604051610622919061555c565b60405180910390f35b6106456004803603810190610640919061699f565b6134eb565b604051610652919061555c565b60405180910390f35b61067560048036038101906106709190616ad3565b61378e565b604051610682919061555c565b60405180910390f35b6106a560048036038101906106a09190616b97565b613b08565b005b6106c160048036038101906106bc9190615705565b613f35565b005b6106dd60048036038101906106d891906155ad565b613f57565b6040516106ea919061555c565b60405180910390f35b61070d60048036038101906107089190615bd7565b61424c565b60405161071a919061555c565b60405180910390f35b61073d600480360381019061073891906155ad565b61434b565b60405161074a919061555c565b60405180910390f35b61076d600480360381019061076891906155ed565b61466a565b60405161077a919061555c565b60405180910390f35b60007f7965db0b000000000000000000000000000000000000000000000000000000007bffffffffffffffffffffffffffffffffffffffffffffffffffffffff1916827bffffffffffffffffffffffffffffffffffffffffffffffffffffffff191614806107f657506107f5826149d8565b5b9050919050565b6000610807614a42565b905080600701600083815260200190815260200160002060040160009054906101000a900460ff1661086e576040517f08c379a000000000000000000000000000000000000000000000000000000000815260040161086590616c93565b60405180910390fd5b60005b81600b0160003373ffffffffffffffffffffffffffffffffffffffff1673ffffffffffffffffffffffffffffffffffffffff16815260200190815260200160002060008581526020019081526020016000208054905081101561098b578282600b0160003373ffffffffffffffffffffffffffffffffffffffff1673ffffffffffffffffffffffffffffffffffffffff1681526020019081526020016000206000868152602001908152602001600020828154811061093357610932616cb3565b5b90600052602060002001540361097e576040517f08c379a000000000000000000000000000000000000000000000000000000000815260040161097590616d2e565b60405180910390fd5b8080600101915050610871565b504281600d0160003373ffffffffffffffffffffffffffffffffffffffff1673ffffffffffffffffffffffffffffffffffffffff1681526020019081526020016000206000848152602001908152602001600020819055503373ffffffffffffffffffffffffffffffffffffffff16827f7c8fb360d28a1dffdf468443423d871df382ddd64b5934cc55bd9bd18cd65f9c60405160405180910390a3505050565b6000610a36614a6f565b6000610a40614a42565b90506000610a4c614ab5565b905081600901600085815260200190815260200160002060003373ffffffffffffffffffffffffffffffffffffffff1673ffffffffffffffffffffffffffffffffffffffff16815260200190815260200160002060009054906101000a900460ff16610aed576040517f08c379a0000000000000000000000000000000000000000000000000000000008152600401610ae490616d9a565b60405180910390fd5b600081600c01600086815260200190815260200160002090506000826015018681548110610b1e57610b1d616cb3565b5b90600052602060002090600902019050610b3b8260060133614ae2565b610b488160060133614ae2565b600084600901600088815260200190815260200160002060003373ffffffffffffffffffffffffffffffffffffffff1673ffffffffffffffffffffffffffffffffffffffff16815260200190815260200160002060006101000a81548160ff021916908315150217905550610bc533671bc16d674ec80000614c7f565b3373ffffffffffffffffffffffffffffffffffffffff16867f9b244c565b926d7f4e915b69f3a5c6afc2231322d0d44e821076ad8879d0d68360405160405180910390a36001945050505050610c19614cb5565b919050565b600060016000838152602001908152602001600020600101549050919050565b610c4782610c1e565b610c5081614cbf565b610c5a8383614cd3565b50505050565b60007fadb22091b155738d2e889eb96f509d2a7c93234236b30400927feb4a6a15ab00610c8c81614cbf565b6000610c96614a42565b905060008160050160008981526020019081526020016000206001015403610cf3576040517f08c379a0000000000000000000000000000000000000000000000000000000008152600401610cea90616e06565b60405180910390fd5b858160050160008981526020019081526020016000206002019081610d189190617032565b50848160050160008981526020019081526020016000206003019081610d3e9190617032565b50600084511115610e6f57600a84511115610d8e576040517f08c379a0000000000000000000000000000000000000000000000000000000008152600401610d8590617150565b60405180910390fd5b60005b8451811015610e4f57848181518110610dad57610dac616cb3565b5b60200260200101518260050160008a815260200190815260200160002060040182600a8110610ddf57610dde616cb3565b5b6003020160008201518160000160006101000a81548160ff02191690836002811115610e0e57610e0d616558565b5b02179055506020820151816001019081610e289190617032565b506040820151816002019081610e3e9190617032565b509050508080600101915050610d91565b508351816005016000898152602001908152602001600020602201819055505b867f2a39a7cf20a19c3cd9811b72b89fab269dce3aa109f6d2a0631cd3e1f0457e5d87604051610e9f91906171a9565b60405180910390a2600192505050949350505050565b60606000610ec1614a42565b905060008160020160003373ffffffffffffffffffffffffffffffffffffffff1673ffffffffffffffffffffffffffffffffffffffff1681526020019081526020016000206000858152602001908152602001600020805480602002602001604051908101604052809291908181526020018280548015610f6157602002820191906000526020600020905b815481526020019060010190808311610f4d575b505050505090508092505050919050565b7fadb22091b155738d2e889eb96f509d2a7c93234236b30400927feb4a6a15ab00610f9c81614cbf565b6000610fa6614a42565b905060008160070160008681526020019081526020016000206001015403611003576040517f08c379a0000000000000000000000000000000000000000000000000000000008152600401610ffa90617217565b60405180910390fd5b83816007016000868152602001908152602001600020600101541461105d576040517f08c379a000000000000000000000000000000000000000000000000000000000815260040161105490617283565b60405180910390fd5b8281600701600086815260200190815260200160002060020190816110829190617032565b5083857fad5fab99ac4d99e1061fd121b36537d5213be564a3dc6cc383897dc355e89ff5856040516110b491906171a9565b60405180910390a35050505050565b6110cb614dc4565b73ffffffffffffffffffffffffffffffffffffffff168173ffffffffffffffffffffffffffffffffffffffff161461112f576040517f6697b23200000000000000000000000000000000000000000000000000000000815260040160405180910390fd5b6111398282614dcc565b505050565b600080611149614a42565b905080600701600085815260200190815260200160002060040160009054906101000a900460ff166111b0576040517f08c379a00000000000000000000000000000000000000000000000000000000081526004016111a790616c93565b60405180910390fd5b80600d0160008473ffffffffffffffffffffffffffffffffffffffff1673ffffffffffffffffffffffffffffffffffffffff16815260200190815260200160002060008581526020019081526020016000205491505092915050565b60606000611218614a42565b905080600701600084815260200190815260200160002060040160009054906101000a900460ff1661127f576040517f08c379a000000000000000000000000000000000000000000000000000000000815260040161127690616c93565b60405180910390fd5b806007016000848152602001908152602001600020600301805480602002602001604051908101604052809291908181526020016000905b8282101561149b578382906000526020600020906004020160405180608001604052908160008201548152602001600182015481526020016002820180546112fe90616e55565b80601f016020809104026020016040519081016040528092919081815260200182805461132a90616e55565b80156113775780601f1061134c57610100808354040283529160200191611377565b820191906000526020600020905b81548152906001019060200180831161135a57829003601f168201915b5050505050815260200160038201805480602002602001604051908101604052809291908181526020016000905b8282101561148457838290600052602060002090600202016040518060400160405290816000820180546113d890616e55565b80601f016020809104026020016040519081016040528092919081815260200182805461140490616e55565b80156114515780601f1061142657610100808354040283529160200191611451565b820191906000526020600020905b81548152906001019060200180831161143457829003601f168201915b505050505081526020016001820160009054906101000a900460ff161515151581525050815260200190600101906113a5565b5050505081525050815260200190600101906112b7565b50505050915050919050565b6000806114b2614a42565b905080600701600086815260200190815260200160002060040160009054906101000a900460ff16611519576040517f08c379a000000000000000000000000000000000000000000000000000000000815260040161151090616c93565b60405180910390fd5b604b831061165d57600181600a01600087815260200190815260200160002060003373ffffffffffffffffffffffffffffffffffffffff1673ffffffffffffffffffffffffffffffffffffffff16815260200190815260200160002060006101000a81548160ff0219169083151502179055508281600c0160003373ffffffffffffffffffffffffffffffffffffffff1673ffffffffffffffffffffffffffffffffffffffff16815260200190815260200160002060008781526020019081526020016000208190555080600b0160003373ffffffffffffffffffffffffffffffffffffffff1673ffffffffffffffffffffffffffffffffffffffff16815260200190815260200160002060008781526020019081526020016000208590806001815401808255809150506001900390600052602060002001600090919091909150555b3373ffffffffffffffffffffffffffffffffffffffff167fcce9b9ed7e05afc64f73f1ce3f6ff1011a740b718ae6277a14698a4ef2d62dbf86856040516116a59291906172a3565b60405180910390a26001915050949350505050565b606060006116c6614a42565b9050600081600b0160003373ffffffffffffffffffffffffffffffffffffffff1673ffffffffffffffffffffffffffffffffffffffff168152602001908152602001600020600085815260200190815260200160002080548060200260200160405190810160405280929190818152602001828054801561176657602002820191906000526020600020905b815481526020019060010190808311611752575b505050505090508092505050919050565b600080611782614a42565b9050600061178e614ebf565b9050600061179a614ab5565b905060008260000160030154905083600501600088815260200190815260200160002060230160009054906101000a900460ff1661180d576040517f08c379a000000000000000000000000000000000000000000000000000000000815260040161180490617318565b60405180910390fd5b60008460070160008381526020019081526020016000209050878160000181905550818160010181905550868160020190816118499190617032565b5060018160040160006101000a81548160ff02191690831515021790555083600001600301600081548092919061187f90617367565b9190505550846012018190806001815401808255809150506001900390600052602060002090600602016000909190919091506000820154816000015560018201548160010155600282018160020190816118da91906173c5565b5060038201816003019080546118f1929190615035565b506004820160009054906101000a900460ff168160040160006101000a81548160ff02191690831515021790555060058201548160050155505082600b0160008981526020019081526020016000208290806001815401808255809150506001900390600052602060002001600090919091909150558660405161197591906174e9565b6040518091039020827fbf27702cefbc4aea50d7c73cfee96f84f5b908f62aeafcd8b0aeae202c15050960405160405180910390a3819550505050505092915050565b606060006119c4614a42565b905060006119d0614ebf565b905060008160000160030154905060008167ffffffffffffffff8111156119fa576119f9615760565b5b604051908082528060200260200182016040528015611a3357816020015b611a206150cd565b815260200190600190039081611a185790505b50905060005b82811015611d68578460070160008281526020019081526020016000206040518060c00160405290816000820154815260200160018201548152602001600282018054611a8590616e55565b80601f0160208091040260200160405190810160405280929190818152602001828054611ab190616e55565b8015611afe5780601f10611ad357610100808354040283529160200191611afe565b820191906000526020600020905b815481529060010190602001808311611ae157829003601f168201915b5050505050815260200160038201805480602002602001604051908101604052809291908181526020016000905b82821015611d1057838290600052602060002090600402016040518060800160405290816000820154815260200160018201548152602001600282018054611b7390616e55565b80601f0160208091040260200160405190810160405280929190818152602001828054611b9f90616e55565b8015611bec5780601f10611bc157610100808354040283529160200191611bec565b820191906000526020600020905b815481529060010190602001808311611bcf57829003601f168201915b5050505050815260200160038201805480602002602001604051908101604052809291908181526020016000905b82821015611cf95783829060005260206000209060020201604051806040016040529081600082018054611c4d90616e55565b80601f0160208091040260200160405190810160405280929190818152602001828054611c7990616e55565b8015611cc65780601f10611c9b57610100808354040283529160200191611cc6565b820191906000526020600020905b815481529060010190602001808311611ca957829003601f168201915b505050505081526020016001820160009054906101000a900460ff16151515158152505081526020019060010190611c1a565b505050508152505081526020019060010190611b2c565b5050505081526020016004820160009054906101000a900460ff16151515158152602001600582015481525050828281518110611d5057611d4f616cb3565b5b60200260200101819052508080600101915050611a39565b508094505050505090565b6000611d7d614a42565b90506000611d89614ebf565b90506000611d95614ab5565b905060008260000160020154905083600301600088815260200190815260200160002060040160009054906101000a900460ff16611e08576040517f08c379a0000000000000000000000000000000000000000000000000000000008152600401611dff9061754c565b60405180910390fd5b6000846005016000838152602001908152602001600020905087816000018190555081816001018190555086816002019081611e449190617032565b5085816003019081611e569190617032565b5060018160230160006101000a81548160ff02191690831515021790555060008160220181905550846010018560050160008481526020019081526020016000209080600181540180825580915050600190039060005260206000209060240201600090919091909150600082015481600001556001820154816001015560028201816002019081611ee891906173c5565b5060038201816003019081611efd91906173c5565b50600482018160040190600a611f14929190615105565b50602282015481602201556023820160009054906101000a900460ff168160230160006101000a81548160ff021916908315150217905550505082600a016000898152602001908152602001600020829080600181540180825580915050600190039060005260206000200160009091909190915055836000016002016000815480929190611fa290617367565b9190505550600a87604051611fb791906174e9565b6040518091039020837f3387c3a40ec1df95e34d25a0e5564b40d01c331b71ccbafccccc66d36c84ad8360405160405180910390a45050505050505050565b60007fadb22091b155738d2e889eb96f509d2a7c93234236b30400927feb4a6a15ab0061202281614cbf565b600061202c614a42565b905060008160070160008781526020019081526020016000206001015403612089576040517f08c379a000000000000000000000000000000000000000000000000000000000815260040161208090616c93565b60405180910390fd5b600081600801600086815260200190815260200160002060010154036120e4576040517f08c379a00000000000000000000000000000000000000000000000000000000081526004016120db906175b8565b60405180910390fd5b60005b816013018054905081101561222d578482601301828154811061210d5761210c616cb3565b5b9060005260206000209060040201600101540361222057816013016001836013018054905061213c91906175d8565b8154811061214d5761214c616cb3565b5b906000526020600020906004020182601301828154811061217157612170616cb3565b5b90600052602060002090600402016000820154816000015560018201548160010155600282018160020190816121a791906173c5565b5060038201816003019080546121be9291906151af565b50905050816013018054806121d6576121d561760c565b5b6001900381819060005260206000209060040201600080820160009055600182016000905560028201600061220b9190615249565b60038201600061221b9190615289565b505090555b80806001019150506120e7565b5080600801600085815260200190815260200160002060008082016000905560018201600090556002820160006122649190615249565b6003820160006122749190615289565b505083857ff084fa19916f58d56801346cc04ca2d2c28a5531dc7db17ebd2323685518b12660405160405180910390a360019250505092915050565b60006001600084815260200190815260200160002060000160008373ffffffffffffffffffffffffffffffffffffffff1673ffffffffffffffffffffffffffffffffffffffff16815260200190815260200160002060009054906101000a900460ff16905092915050565b60606000612327614a42565b9050600081600f0180549050905060008167ffffffffffffffff81111561235157612350615760565b5b60405190808252806020026020018201604052801561238a57816020015b6123776152ad565b81526020019060019003908161236f5790505b50905060005b828110156124bd5783600f0181815481106123ae576123ad616cb3565b5b90600052602060002090600502016040518060a001604052908160008201548152602001600182015481526020016002820180546123eb90616e55565b80601f016020809104026020016040519081016040528092919081815260200182805461241790616e55565b80156124645780601f1061243957610100808354040283529160200191612464565b820191906000526020600020905b81548152906001019060200180831161244757829003601f168201915b50505050508152602001600382015481526020016004820160009054906101000a900460ff1615151515815250508282815181106124a5576124a4616cb3565b5b60200260200101819052508080600101915050612390565b5080935050505090565b60007fadb22091b155738d2e889eb96f509d2a7c93234236b30400927feb4a6a15ab006124f381614cbf565b60006124fd614a42565b90506000816003016000878152602001908152602001600020600101540361255a576040517f08c379a000000000000000000000000000000000000000000000000000000000815260040161255190617687565b60405180910390fd5b600081600501600086815260200190815260200160002060010154036125b5576040517f08c379a00000000000000000000000000000000000000000000000000000000081526004016125ac906176f3565b60405180910390fd5b60005b81600f0180549050811161276c578482600501600083815260200190815260200160002060010154036127595781601001600183601001805490506125fd91906175d8565b8154811061260e5761260d616cb3565b5b906000526020600020906024020182601001828154811061263257612631616cb3565b5b906000526020600020906024020160008201548160000155600182015481600101556002820181600201908161266891906173c5565b506003820181600301908161267d91906173c5565b50600482018160040190600a612694929190615105565b50602282015481602201556023820160009054906101000a900460ff168160230160006101000a81548160ff021916908315150217905550905050816010018054806126e3576126e261760c565b5b600190038181906000526020600020906024020160008082016000905560018201600090556002820160006127189190615249565b6003820160006127289190615249565b60048201600061273891906152de565b60228201600090556023820160006101000a81549060ff0219169055505090555b808061276490617367565b9150506125b8565b5080600501600085815260200190815260200160002060008082016000905560018201600090556002820160006127a39190615249565b6003820160006127b39190615249565b6004820160006127c391906152de565b60228201600090556023820160006101000a81549060ff0219169055505083857f1cdc2ff39034471047dd6d36512a12b5c2e9a30137b2e45daecd05383221d97b60405160405180910390a360019250505092915050565b6000801b81565b6060600061282e614a42565b905060008160100180549050905060008167ffffffffffffffff81111561285857612857615760565b5b60405190808252806020026020018201604052801561289157816020015b61287e6152f4565b8152602001906001900390816128765790505b50905060005b82811015612c01578360100181815481106128b5576128b4616cb3565b5b90600052602060002090602402016040518060e001604052908160008201548152602001600182015481526020016002820180546128f290616e55565b80601f016020809104026020016040519081016040528092919081815260200182805461291e90616e55565b801561296b5780601f106129405761010080835404028352916020019161296b565b820191906000526020600020905b81548152906001019060200180831161294e57829003601f168201915b5050505050815260200160038201805461298490616e55565b80601f01602080910402602001604051908101604052809291908181526020018280546129b090616e55565b80156129fd5780601f106129d2576101008083540402835291602001916129fd565b820191906000526020600020905b8154815290600101906020018083116129e057829003601f168201915b5050505050815260200160048201600a80602002604051908101604052809291906000905b82821015612ba9578382600302016040518060600160405290816000820160009054906101000a900460ff166002811115612a6057612a5f616558565b5b6002811115612a7257612a71616558565b5b8152602001600182018054612a8690616e55565b80601f0160208091040260200160405190810160405280929190818152602001828054612ab290616e55565b8015612aff5780601f10612ad457610100808354040283529160200191612aff565b820191906000526020600020905b815481529060010190602001808311612ae257829003601f168201915b50505050508152602001600282018054612b1890616e55565b80601f0160208091040260200160405190810160405280929190818152602001828054612b4490616e55565b8015612b915780601f10612b6657610100808354040283529160200191612b91565b820191906000526020600020905b815481529060010190602001808311612b7457829003601f168201915b50505050508152505081526020019060010190612a22565b505050508152602001602282015481526020016023820160009054906101000a900460ff161515151581525050828281518110612be957612be8616cb3565b5b60200260200101819052508080600101915050612897565b5080935050505090565b612c136150cd565b6000612c1d614a42565b905080600701600084815260200190815260200160002060040160009054906101000a900460ff16612c84576040517f08c379a0000000000000000000000000000000000000000000000000000000008152600401612c7b90616c93565b60405180910390fd5b8060070160008481526020019081526020016000206040518060c00160405290816000820154815260200160018201548152602001600282018054612cc890616e55565b80601f0160208091040260200160405190810160405280929190818152602001828054612cf490616e55565b8015612d415780601f10612d1657610100808354040283529160200191612d41565b820191906000526020600020905b815481529060010190602001808311612d2457829003601f168201915b5050505050815260200160038201805480602002602001604051908101604052809291908181526020016000905b82821015612f5357838290600052602060002090600402016040518060800160405290816000820154815260200160018201548152602001600282018054612db690616e55565b80601f0160208091040260200160405190810160405280929190818152602001828054612de290616e55565b8015612e2f5780601f10612e0457610100808354040283529160200191612e2f565b820191906000526020600020905b815481529060010190602001808311612e1257829003601f168201915b5050505050815260200160038201805480602002602001604051908101604052809291908181526020016000905b82821015612f3c5783829060005260206000209060020201604051806040016040529081600082018054612e9090616e55565b80601f0160208091040260200160405190810160405280929190818152602001828054612ebc90616e55565b8015612f095780601f10612ede57610100808354040283529160200191612f09565b820191906000526020600020905b815481529060010190602001808311612eec57829003601f168201915b505050505081526020016001820160009054906101000a900460ff16151515158152505081526020019060010190612e5d565b505050508152505081526020019060010190612d6f565b5050505081526020016004820160009054906101000a900460ff16151515158152602001600582015481525050915050919050565b60606000612f94614a42565b9050806004016000848152602001908152602001600020805480602002602001604051908101604052809291908181526020016000905b828210156130c857838290600052602060002090600502016040518060a0016040529081600082015481526020016001820154815260200160028201805461301290616e55565b80601f016020809104026020016040519081016040528092919081815260200182805461303e90616e55565b801561308b5780601f106130605761010080835404028352916020019161308b565b820191906000526020600020905b81548152906001019060200180831161306e57829003601f168201915b50505050508152602001600382015481526020016004820160009054906101000a900460ff16151515158152505081526020019060010190612fcb565b50505050915050919050565b60006130de614a42565b9050600081600501600087815260200190815260200160002090508060230160009054906101000a900460ff1661314a576040517f08c379a00000000000000000000000000000000000000000000000000000000081526004016131419061775f565b60405180910390fd5b600081602201549050600a8585905082613164919061777f565b11156131a5576040517f08c379a000000000000000000000000000000000000000000000000000000000815260040161319c906177ff565b60405180910390fd5b60005b858590508110156133965760405180606001604052808787848181106131d1576131d0616cb3565b5b90506020028101906131e3919061782e565b60000160208101906131f59190617856565b600281111561320757613206616558565b5b815260200187878481811061321f5761321e616cb3565b5b9050602002810190613231919061782e565b80602001906132409190617883565b8080601f016020809104026020016040519081016040528093929190818152602001838380828437600081840152601f19601f82011690508083019250505050505050815260200187878481811061329b5761329a616cb3565b5b90506020028101906132ad919061782e565b80604001906132bc9190617883565b8080601f016020809104026020016040519081016040528093929190818152602001838380828437600081840152601f19601f820116905080830192505050505050508152508360040183600a811061331857613317616cb3565b5b6003020160008201518160000160006101000a81548160ff0219169083600281111561334757613346616558565b5b021790555060208201518160010190816133619190617032565b5060408201518160020190816133779190617032565b50905050818061338690617367565b92505080806001019150506131a8565b5080826022018190555060005b83601001805490508110156134a657878460100182815481106133c9576133c8616cb3565b5b9060005260206000209060240201600101540361349957828460100182815481106133f7576133f6616cb3565b5b906000526020600020906024020160008201548160000155600182015481600101556002820181600201908161342d91906173c5565b506003820181600301908161344291906173c5565b50600482018160040190600a613459929190615105565b50602282015481602201556023820160009054906101000a900460ff168160230160006101000a81548160ff0219169083151502179055509050506134a6565b80806001019150506133a3565b5050505050505050565b6000806134bb614a42565b905080600701600084815260200190815260200160002060040160009054906101000a900460ff16915050919050565b6000806134f6614a42565b905080600001600084815260200190815260200160002060003373ffffffffffffffffffffffffffffffffffffffff1673ffffffffffffffffffffffffffffffffffffffff16815260200190815260200160002060009054906101000a900460ff1615613598576040517f08c379a000000000000000000000000000000000000000000000000000000000815260040161358f90617932565b60405180910390fd5b80600501600084815260200190815260200160002060230160009054906101000a900460ff166135fd576040517f08c379a00000000000000000000000000000000000000000000000000000000081526004016135f4906176f3565b60405180910390fd5b600181600001600085815260200190815260200160002060003373ffffffffffffffffffffffffffffffffffffffff1673ffffffffffffffffffffffffffffffffffffffff16815260200190815260200160002060006101000a81548160ff0219169083151502179055508060010160003373ffffffffffffffffffffffffffffffffffffffff1673ffffffffffffffffffffffffffffffffffffffff1681526020019081526020016000208390806001815401808255809150506001900390600052602060002001600090919091909150558060020160003373ffffffffffffffffffffffffffffffffffffffff1673ffffffffffffffffffffffffffffffffffffffff168152602001908152602001600020600086815260200190815260200160002083908060018154018082558091505060019003906000526020600020016000909190919091505582847f2479aa0d18311382446edb0fa11d0dbd5bab1be78b1e60b343ffe4d2a5f798ad3360405161377a9190617961565b60405180910390a360019150509392505050565b600080613799614a42565b905060006137a5614ab5565b905060006137b1614ebf565b9050600073ffffffffffffffffffffffffffffffffffffffff1682600c01600089815260200190815260200160002060050160009054906101000a900473ffffffffffffffffffffffffffffffffffffffff1673ffffffffffffffffffffffffffffffffffffffff160361385a576040517f08c379a0000000000000000000000000000000000000000000000000000000008152600401613851906179c8565b60405180910390fd5b60005b8651811015613aca5760006040518060a001604052808a81526020018460000160010154815260200189848151811061389957613898616cb3565b5b602002602001015181526020018884815181106138b9576138b8616cb3565b5b6020026020010151815260200160011515815250905084600f01819080600181540180825580915050600190039060005260206000209060050201600090919091909150600082015181600001556020820151816001015560408201518160020190816139269190617032565b506060820151816003015560808201518160040160006101000a81548160ff02191690831515021790555050508085600301600085600001600101548152602001908152602001600020600082015181600001556020820151816001015560408201518160020190816139999190617032565b506060820151816003015560808201518160040160006101000a81548160ff0219169083151502179055509050508460040160008a815260200190815260200160002081908060018154018082558091505060019003906000526020600020906005020160009091909190915060008201518160000155602082015181600101556040820151816002019081613a2f9190617032565b506060820151816003015560808201518160040160006101000a81548160ff02191690831515021790555050508360090160008a815260200190815260200160002083600001600101549080600181540180825580915050600190039060005260206000200160009091909190915055826000016001016000815480929190613ab790617367565b919050555050808060010191505061385d565b508551877f1eb97e969f52c132bb6c79817d1f9001078fff0cd328ce625628e1fb4cc0e7de60405160405180910390a3600193505050509392505050565b6000613b12614a42565b90506000613b1e614ebf565b905081600701600087815260200190815260200160002060040160009054906101000a900460ff16613b85576040517f08c379a0000000000000000000000000000000000000000000000000000000008152600401613b7c90616c93565b60405180910390fd5b60008451118015613b9857506004845111155b613bd7576040517f08c379a0000000000000000000000000000000000000000000000000000000008152600401613bce90617a34565b60405180910390fd5b83518360ff1610613c1d576040517f08c379a0000000000000000000000000000000000000000000000000000000008152600401613c1490617aa0565b60405180910390fd5b6000816000016004015490506000836008016000838152602001908152602001600020905087816000018190555081816001018190555086816002019081613c659190617032565b5060005b86518160ff161015613d2f5760006040518060400160405280898460ff1681518110613c9857613c97616cb3565b5b602002602001015181526020018860ff168460ff161415158152509050826003018190806001815401808255809150506001900390600052602060002090600202016000909190919091506000820151816000019081613cf89190617032565b5060208201518160010160006101000a81548160ff0219169083151502179055505050508080613d2790617ac0565b915050613c69565b50836007016000898152602001908152602001600020600301819080600181540180825580915050600190039060005260206000209060040201600090919091909150600082015481600001556001820154816001015560028201816002019081613d9a91906173c5565b506003820181600301908054613db19291906151af565b505050826000016004016000815480929190613dcc90617367565b919050555083601301819080600181540180825580915050600190039060005260206000209060040201600090919091909150600082015481600001556001820154816001015560028201816002019081613e2791906173c5565b506003820181600301908054613e3e9291906151af565b5050507fa5bdacf4d1324fdd584bc65cf0315e4975d00b33a7ca0e6d0a73c88df8430b95888389604051613e7493929190617ae9565b60405180910390a160005b86518160ff161015613f0b577f06ef0ba2ad58c9f8eef2fc98c08fd18d801c4a971eeb45afd07f0fee3f9d60c4838260ff168660000160050154613ec3919061777f565b898460ff1681518110613ed957613ed8616cb3565b5b6020026020010151604051613ef093929190617ae9565b60405180910390a18080613f0390617ac0565b915050613e7f565b508551836000016005016000828254613f24919061777f565b925050819055505050505050505050565b613f3e82610c1e565b613f4781614cbf565b613f518383614dcc565b50505050565b60007fadb22091b155738d2e889eb96f509d2a7c93234236b30400927feb4a6a15ab00613f8381614cbf565b6000613f8d614a42565b90506000613f99614ab5565b9050600081600c0160008881526020019081526020016000206000015403613ff6576040517f08c379a0000000000000000000000000000000000000000000000000000000008152600401613fed90617b73565b60405180910390fd5b60008260030160008781526020019081526020016000206001015403614051576040517f08c379a000000000000000000000000000000000000000000000000000000000815260040161404890617687565b60405180910390fd5b60005b82600f018054905081116141bc578583600301600083815260200190815260200160002060010154036141a95782600f01600184600f018054905061409991906175d8565b815481106140aa576140a9616cb3565b5b906000526020600020906005020183600f0182815481106140ce576140cd616cb3565b5b906000526020600020906005020160008201548160000155600182015481600101556002820181600201908161410491906173c5565b50600382015481600301556004820160009054906101000a900460ff168160040160006101000a81548160ff02191690831515021790555090505082600f018054806141535761415261760c565b5b600190038181906000526020600020906005020160008082016000905560018201600090556002820160006141889190615249565b60038201600090556004820160006101000a81549060ff0219169055505090555b80806141b490617367565b915050614054565b5081600301600086815260200190815260200160002060008082016000905560018201600090556002820160006141f39190615249565b60038201600090556004820160006101000a81549060ff0219169055505084867fab6d08543726a41eac26ac96d0b4591127baed3bfb915d2603ccb9fb2440c42560405160405180910390a36001935050505092915050565b60007fadb22091b155738d2e889eb96f509d2a7c93234236b30400927feb4a6a15ab0061427881614cbf565b6000614282614a42565b9050600081600301600087815260200190815260200160002060010154036142df576040517f08c379a00000000000000000000000000000000000000000000000000000000081526004016142d690617bdf565b60405180910390fd5b8381600301600087815260200190815260200160002060020190816143049190617032565b5084867f7714a2fe2221824dfd5cd15f7cc29e38ffefcf9b6ad62c216321afcde79cbcfb8660405161433691906171a9565b60405180910390a36001925050509392505050565b60007fadb22091b155738d2e889eb96f509d2a7c93234236b30400927feb4a6a15ab0061437781614cbf565b6000614381614a42565b9050600081600501600087815260200190815260200160002060010154036143de576040517f08c379a00000000000000000000000000000000000000000000000000000000081526004016143d5906176f3565b60405180910390fd5b60008160070160008681526020019081526020016000206001015403614439576040517f08c379a000000000000000000000000000000000000000000000000000000000815260040161443090617c4b565b60405180910390fd5b60005b81600f018054905081116145cb578482600701600087815260200190815260200160002060010154036145b857816012016001836012018054905061448191906175d8565b8154811061449257614491616cb3565b5b90600052602060002090600602018260120182815481106144b6576144b5616cb3565b5b90600052602060002090600602016000820154816000015560018201548160010155600282018160020190816144ec91906173c5565b506003820181600301908054614503929190615035565b506004820160009054906101000a900460ff168160040160006101000a81548160ff02191690831515021790555060058201548160050155905050816012018054806145525761455161760c565b5b600190038181906000526020600020906006020160008082016000905560018201600090556002820160006145879190615249565b6003820160006145979190615339565b6004820160006101000a81549060ff02191690556005820160009055505090555b80806145c390617367565b91505061443c565b5080600701600085815260200190815260200160002060008082016000905560018201600090556002820160006146029190615249565b6003820160006146129190615339565b6004820160006101000a81549060ff02191690556005820160009055505083857f22a69f3183c2804ef4ff588b6321a6351c1863419286c584919ab8f923cbd5a460405160405180910390a360019250505092915050565b6000614674614a6f565b600061467e614a42565b9050600061468a614ab5565b905080600c01600085815260200190815260200160002060030160009054906101000a900460ff166146f1576040517f08c379a00000000000000000000000000000000000000000000000000000000081526004016146e890617cb7565b60405180910390fd5b81600901600085815260200190815260200160002060003373ffffffffffffffffffffffffffffffffffffffff1673ffffffffffffffffffffffffffffffffffffffff16815260200190815260200160002060009054906101000a900460ff1615614791576040517f08c379a000000000000000000000000000000000000000000000000000000000815260040161478890617d23565b60405180910390fd5b80600c01600085815260200190815260200160002060050160149054906101000a900460ff166147f6576040517f08c379a00000000000000000000000000000000000000000000000000000000081526004016147ed906179c8565b60405180910390fd5b600081600c0160008681526020019081526020016000209050600083600e01868154811061482757614826616cb3565b5b9060005260206000209060090201905081600601339080600181540180825580915050600190039060005260206000200160009091909190916101000a81548173ffffffffffffffffffffffffffffffffffffffff021916908373ffffffffffffffffffffffffffffffffffffffff16021790555080600601339080600181540180825580915050600190039060005260206000200160009091909190916101000a81548173ffffffffffffffffffffffffffffffffffffffff021916908373ffffffffffffffffffffffffffffffffffffffff160217905550600184600901600088815260200190815260200160002060003373ffffffffffffffffffffffffffffffffffffffff1673ffffffffffffffffffffffffffffffffffffffff16815260200190815260200160002060006101000a81548160ff02191690831515021790555061497e33671bc16d674ec80000614eec565b503373ffffffffffffffffffffffffffffffffffffffff16867f4bf249f6b0ca5630ea4816c04b928b864a2065cb51658fd6223d83b727fd326b60405160405180910390a360019450505050506149d3614cb5565b919050565b60007f01ffc9a7000000000000000000000000000000000000000000000000000000007bffffffffffffffffffffffffffffffffffffffffffffffffffffffff1916827bffffffffffffffffffffffffffffffffffffffffffffffffffffffff1916149050919050565b6000807f8c155b85251bd93c1fc2d59b5c65d36e3727b021d99d01ebea73246bff7e4a5890508091505090565b600260005403614aab576040517f3ee5aeb500000000000000000000000000000000000000000000000000000000815260040160405180910390fd5b6002600081905550565b6000807f5d9ab6191fe9d5041816fb24ec4281e2d3989236339577e7fbbaf91315a1bb7190508091505090565b60005b8280549050811015614c7a578173ffffffffffffffffffffffffffffffffffffffff16838281548110614b1b57614b1a616cb3565b5b9060005260206000200160009054906101000a900473ffffffffffffffffffffffffffffffffffffffff1673ffffffffffffffffffffffffffffffffffffffff1603614c6d5760018380549050614b7291906175d8565b8114614c22578260018480549050614b8a91906175d8565b81548110614b9b57614b9a616cb3565b5b9060005260206000200160009054906101000a900473ffffffffffffffffffffffffffffffffffffffff16838281548110614bd957614bd8616cb3565b5b9060005260206000200160006101000a81548173ffffffffffffffffffffffffffffffffffffffff021916908373ffffffffffffffffffffffffffffffffffffffff1602179055505b82805480614c3357614c3261760c565b5b6001900381819060005260206000200160006101000a81549073ffffffffffffffffffffffffffffffffffffffff02191690559055614c7a565b8080600101915050614ae5565b505050565b6000614c89614ab5565b9050614c958383614c7f565b81816000016000828254614ca991906175d8565b92505081905550505050565b6001600081905550565b614cd081614ccb614dc4565b614fe4565b50565b6000614cdf83836122b0565b614db957600180600085815260200190815260200160002060000160008473ffffffffffffffffffffffffffffffffffffffff1673ffffffffffffffffffffffffffffffffffffffff16815260200190815260200160002060006101000a81548160ff021916908315150217905550614d56614dc4565b73ffffffffffffffffffffffffffffffffffffffff168273ffffffffffffffffffffffffffffffffffffffff16847f2f8788117e7eff1d82e926ec794901d17c78024a50270940304540a733656f0d60405160405180910390a460019050614dbe565b600090505b92915050565b600033905090565b6000614dd883836122b0565b15614eb45760006001600085815260200190815260200160002060000160008473ffffffffffffffffffffffffffffffffffffffff1673ffffffffffffffffffffffffffffffffffffffff16815260200190815260200160002060006101000a81548160ff021916908315150217905550614e51614dc4565b73ffffffffffffffffffffffffffffffffffffffff168273ffffffffffffffffffffffffffffffffffffffff16847ff6391f5c32d9c69d2a47ea670b442974b53935d1edc7fd64eb21e047a839171b60405160405180910390a460019050614eb9565b600090505b92915050565b6000807f636d7913eb18e82fce1c8b9d3fc385ed328eaeac9ef5b2ce0d984f1c4878ec8690508091505090565b600080614ef7614ab5565b90506064600f6b204fce5e3e25026110000000614f149190617d43565b614f1e9190617db4565b816000015484614f2e919061777f565b1115614f6f576040517f08c379a0000000000000000000000000000000000000000000000000000000008152600401614f6690617e31565b60405180910390fd5b614f798484614eec565b5082816000016000828254614f8e919061777f565b92505081905550828473ffffffffffffffffffffffffffffffffffffffff167fad6ef58d5c294f81258965738e7ae511124139834a8d0b8f8f7327086c82052a60405160405180910390a3600191505092915050565b614fee82826122b0565b6150315780826040517fe2517d3f000000000000000000000000000000000000000000000000000000008152600401615028929190617e51565b60405180910390fd5b5050565b8280548282559060005260206000209060040281019282156150bc5760005260206000209160040282015b828111156150bb57828260008201548160000155600182015481600101556002820181600201908161509291906173c5565b5060038201816003019080546150a99291906151af565b50505091600401919060040190615060565b5b5090506150c9919061535d565b5090565b6040518060c0016040528060008152602001600081526020016060815260200160608152602001600015158152602001600081525090565b82600a600302810192821561519e579160030282015b8281111561519d5782826000820160009054906101000a900460ff168160000160006101000a81548160ff0219169083600281111561515d5761515c616558565b5b02179055506001820181600101908161517691906173c5565b506002820181600201908161518b91906173c5565b5050509160030191906003019061511b565b5b5090506151ab91906153a4565b5090565b8280548282559060005260206000209060020281019282156152385760005260206000209160020282015b82811115615237578282600082018160000190816151f891906173c5565b506001820160009054906101000a900460ff168160010160006101000a81548160ff0219169083151502179055505050916002019190600201906151da565b5b50905061524591906153ef565b5090565b50805461525590616e55565b6000825580601f106152675750615286565b601f016020900490600052602060002090810190615285919061542a565b5b50565b50805460008255600202906000526020600020908101906152aa91906153ef565b50565b6040518060a00160405280600081526020016000815260200160608152602001600081526020016000151581525090565b5080600a60030201906152f191906153a4565b50565b6040518060e0016040528060008152602001600081526020016060815260200160608152602001615323615447565b8152602001600081526020016000151581525090565b508054600082556004029060005260206000209081019061535a919061535d565b50565b5b808211156153a05760008082016000905560018201600090556002820160006153879190615249565b6003820160006153979190615289565b5060040161535e565b5090565b5b808211156153eb57600080820160006101000a81549060ff02191690556001820160006153d29190615249565b6002820160006153e29190615249565b506003016153a5565b5090565b5b8082111561542657600080820160006154099190615249565b6001820160006101000a81549060ff0219169055506002016153f0565b5090565b5b8082111561544357600081600090555060010161542b565b5090565b604051806101400160405280600a905b61545f615475565b8152602001906001900390816154575790505090565b60405180606001604052806000600281111561549457615493616558565b5b815260200160608152602001606081525090565b6000604051905090565b600080fd5b600080fd5b60007fffffffff0000000000000000000000000000000000000000000000000000000082169050919050565b6154f1816154bc565b81146154fc57600080fd5b50565b60008135905061550e816154e8565b92915050565b60006020828403121561552a576155296154b2565b5b6000615538848285016154ff565b91505092915050565b60008115159050919050565b61555681615541565b82525050565b6000602082019050615571600083018461554d565b92915050565b6000819050919050565b61558a81615577565b811461559557600080fd5b50565b6000813590506155a781615581565b92915050565b600080604083850312156155c4576155c36154b2565b5b60006155d285828601615598565b92505060206155e385828601615598565b9150509250929050565b600060208284031215615603576156026154b2565b5b600061561184828501615598565b91505092915050565b6000819050919050565b61562d8161561a565b811461563857600080fd5b50565b60008135905061564a81615624565b92915050565b600060208284031215615666576156656154b2565b5b60006156748482850161563b565b91505092915050565b6156868161561a565b82525050565b60006020820190506156a1600083018461567d565b92915050565b600073ffffffffffffffffffffffffffffffffffffffff82169050919050565b60006156d2826156a7565b9050919050565b6156e2816156c7565b81146156ed57600080fd5b50565b6000813590506156ff816156d9565b92915050565b6000806040838503121561571c5761571b6154b2565b5b600061572a8582860161563b565b925050602061573b858286016156f0565b9150509250929050565b600080fd5b600080fd5b6000601f19601f8301169050919050565b7f4e487b7100000000000000000000000000000000000000000000000000000000600052604160045260246000fd5b6157988261574f565b810181811067ffffffffffffffff821117156157b7576157b6615760565b5b80604052505050565b60006157ca6154a8565b90506157d6828261578f565b919050565b600067ffffffffffffffff8211156157f6576157f5615760565b5b6157ff8261574f565b9050602081019050919050565b82818337600083830152505050565b600061582e615829846157db565b6157c0565b90508281526020810184848401111561584a5761584961574a565b5b61585584828561580c565b509392505050565b600082601f83011261587257615871615745565b5b813561588284826020860161581b565b91505092915050565b600067ffffffffffffffff8211156158a6576158a5615760565b5b602082029050602081019050919050565b600080fd5b600080fd5b600080fd5b600381106158d357600080fd5b50565b6000813590506158e5816158c6565b92915050565b600060608284031215615901576159006158bc565b5b61590b60606157c0565b9050600061591b848285016158d6565b600083015250602082013567ffffffffffffffff81111561593f5761593e6158c1565b5b61594b8482850161585d565b602083015250604082013567ffffffffffffffff81111561596f5761596e6158c1565b5b61597b8482850161585d565b60408301525092915050565b600061599a6159958461588b565b6157c0565b905080838252602082019050602084028301858111156159bd576159bc6158b7565b5b835b81811015615a0457803567ffffffffffffffff8111156159e2576159e1615745565b5b8086016159ef89826158eb565b855260208501945050506020810190506159bf565b5050509392505050565b600082601f830112615a2357615a22615745565b5b8135615a33848260208601615987565b91505092915050565b60008060008060808587031215615a5657615a556154b2565b5b6000615a6487828801615598565b945050602085013567ffffffffffffffff811115615a8557615a846154b7565b5b615a918782880161585d565b935050604085013567ffffffffffffffff811115615ab257615ab16154b7565b5b615abe8782880161585d565b925050606085013567ffffffffffffffff811115615adf57615ade6154b7565b5b615aeb87828801615a0e565b91505092959194509250565b600081519050919050565b600082825260208201905092915050565b6000819050602082019050919050565b615b2c81615577565b82525050565b6000615b3e8383615b23565b60208301905092915050565b6000602082019050919050565b6000615b6282615af7565b615b6c8185615b02565b9350615b7783615b13565b8060005b83811015615ba8578151615b8f8882615b32565b9750615b9a83615b4a565b925050600181019050615b7b565b5085935050505092915050565b60006020820190508181036000830152615bcf8184615b57565b905092915050565b600080600060608486031215615bf057615bef6154b2565b5b6000615bfe86828701615598565b9350506020615c0f86828701615598565b925050604084013567ffffffffffffffff811115615c3057615c2f6154b7565b5b615c3c8682870161585d565b9150509250925092565b60008060408385031215615c5d57615c5c6154b2565b5b6000615c6b85828601615598565b9250506020615c7c858286016156f0565b9150509250929050565b615c8f81615577565b82525050565b6000602082019050615caa6000830184615c86565b92915050565b600081519050919050565b600082825260208201905092915050565b6000819050602082019050919050565b600081519050919050565b600082825260208201905092915050565b60005b83811015615d16578082015181840152602081019050615cfb565b60008484015250505050565b6000615d2d82615cdc565b615d378185615ce7565b9350615d47818560208601615cf8565b615d508161574f565b840191505092915050565b600081519050919050565b600082825260208201905092915050565b6000819050602082019050919050565b615d9081615541565b82525050565b60006040830160008301518482036000860152615db38282615d22565b9150506020830151615dc86020860182615d87565b508091505092915050565b6000615ddf8383615d96565b905092915050565b6000602082019050919050565b6000615dff82615d5b565b615e098185615d66565b935083602082028501615e1b85615d77565b8060005b85811015615e575784840389528151615e388582615dd3565b9450615e4383615de7565b925060208a01995050600181019050615e1f565b50829750879550505050505092915050565b6000608083016000830151615e816000860182615b23565b506020830151615e946020860182615b23565b5060408301518482036040860152615eac8282615d22565b91505060608301518482036060860152615ec68282615df4565b9150508091505092915050565b6000615edf8383615e69565b905092915050565b6000602082019050919050565b6000615eff82615cb0565b615f098185615cbb565b935083602082028501615f1b85615ccc565b8060005b85811015615f575784840389528151615f388582615ed3565b9450615f4383615ee7565b925060208a01995050600181019050615f1f565b50829750879550505050505092915050565b60006020820190508181036000830152615f838184615ef4565b905092915050565b600067ffffffffffffffff821115615fa657615fa5615760565b5b602082029050602081019050919050565b6000615fca615fc584615f8b565b6157c0565b90508083825260208201905060208402830185811115615fed57615fec6158b7565b5b835b8181101561601657806160028882615598565b845260208401935050602081019050615fef565b5050509392505050565b600082601f83011261603557616034615745565b5b8135616045848260208601615fb7565b91505092915050565b60008060008060808587031215616068576160676154b2565b5b600061607687828801615598565b945050602061608787828801615598565b935050604085013567ffffffffffffffff8111156160a8576160a76154b7565b5b6160b487828801616020565b92505060606160c587828801615598565b91505092959194509250565b600080604083850312156160e8576160e76154b2565b5b60006160f685828601615598565b925050602083013567ffffffffffffffff811115616117576161166154b7565b5b6161238582860161585d565b9150509250929050565b600081519050919050565b600082825260208201905092915050565b6000819050602082019050919050565b600082825260208201905092915050565b600061617582615cb0565b61617f8185616159565b93508360208202850161619185615ccc565b8060005b858110156161cd57848403895281516161ae8582615ed3565b94506161b983615ee7565b925060208a01995050600181019050616195565b50829750879550505050505092915050565b600060c0830160008301516161f76000860182615b23565b50602083015161620a6020860182615b23565b50604083015184820360408601526162228282615d22565b9150506060830151848203606086015261623c828261616a565b91505060808301516162516080860182615d87565b5060a083015161626460a0860182615b23565b508091505092915050565b600061627b83836161df565b905092915050565b6000602082019050919050565b600061629b8261612d565b6162a58185616138565b9350836020820285016162b785616149565b8060005b858110156162f357848403895281516162d4858261626f565b94506162df83616283565b925060208a019950506001810190506162bb565b50829750879550505050505092915050565b6000602082019050818103600083015261631f8184616290565b905092915050565b6000806000606084860312156163405761633f6154b2565b5b600061634e86828701615598565b935050602084013567ffffffffffffffff81111561636f5761636e6154b7565b5b61637b8682870161585d565b925050604084013567ffffffffffffffff81111561639c5761639b6154b7565b5b6163a88682870161585d565b9150509250925092565b600081519050919050565b600082825260208201905092915050565b6000819050602082019050919050565b600060a0830160008301516163f66000860182615b23565b5060208301516164096020860182615b23565b50604083015184820360408601526164218282615d22565b91505060608301516164366060860182615b23565b5060808301516164496080860182615d87565b508091505092915050565b600061646083836163de565b905092915050565b6000602082019050919050565b6000616480826163b2565b61648a81856163bd565b93508360208202850161649c856163ce565b8060005b858110156164d857848403895281516164b98582616454565b94506164c483616468565b925060208a019950506001810190506164a0565b50829750879550505050505092915050565b600060208201905081810360008301526165048184616475565b905092915050565b600081519050919050565b600082825260208201905092915050565b6000819050602082019050919050565b6000600a9050919050565b600081905092915050565b6000819050919050565b7f4e487b7100000000000000000000000000000000000000000000000000000000600052602160045260246000fd5b6003811061659857616597616558565b5b50565b60008190506165a982616587565b919050565b60006165b98261659b565b9050919050565b6165c9816165ae565b82525050565b60006060830160008301516165e760008601826165c0565b50602083015184820360208601526165ff8282615d22565b915050604083015184820360408601526166198282615d22565b9150508091505092915050565b600061663283836165cf565b905092915050565b6000602082019050919050565b600061665282616538565b61665c8185616543565b93508360208202850161666e8561654e565b8060005b858110156166aa578484038952815161668b8582616626565b94506166968361663a565b925060208a01995050600181019050616672565b50829750879550505050505092915050565b600060e0830160008301516166d46000860182615b23565b5060208301516166e76020860182615b23565b50604083015184820360408601526166ff8282615d22565b915050606083015184820360608601526167198282615d22565b915050608083015184820360808601526167338282616647565b91505060a083015161674860a0860182615b23565b5060c083015161675b60c0860182615d87565b508091505092915050565b600061677283836166bc565b905092915050565b6000602082019050919050565b60006167928261650c565b61679c8185616517565b9350836020820285016167ae85616528565b8060005b858110156167ea57848403895281516167cb8582616766565b94506167d68361677a565b925060208a019950506001810190506167b2565b50829750879550505050505092915050565b600060208201905081810360008301526168168184616787565b905092915050565b600060c0830160008301516168366000860182615b23565b5060208301516168496020860182615b23565b50604083015184820360408601526168618282615d22565b9150506060830151848203606086015261687b828261616a565b91505060808301516168906080860182615d87565b5060a08301516168a360a0860182615b23565b508091505092915050565b600060208201905081810360008301526168c8818461681e565b905092915050565b600080fd5b60008083601f8401126168eb576168ea615745565b5b8235905067ffffffffffffffff811115616908576169076168d0565b5b602083019150836020820283011115616924576169236158b7565b5b9250929050565b60008060008060608587031215616945576169446154b2565b5b600061695387828801615598565b9450506020616964878288016158d6565b935050604085013567ffffffffffffffff811115616985576169846154b7565b5b616991878288016168d5565b925092505092959194509250565b6000806000606084860312156169b8576169b76154b2565b5b60006169c686828701615598565b93505060206169d786828701615598565b92505060406169e886828701615598565b9150509250925092565b600067ffffffffffffffff821115616a0d57616a0c615760565b5b602082029050602081019050919050565b6000616a31616a2c846169f2565b6157c0565b90508083825260208201905060208402830185811115616a5457616a536158b7565b5b835b81811015616a9b57803567ffffffffffffffff811115616a7957616a78615745565b5b808601616a86898261585d565b85526020850194505050602081019050616a56565b5050509392505050565b600082601f830112616aba57616ab9615745565b5b8135616aca848260208601616a1e565b91505092915050565b600080600060608486031215616aec57616aeb6154b2565b5b6000616afa86828701615598565b935050602084013567ffffffffffffffff811115616b1b57616b1a6154b7565b5b616b2786828701616aa5565b925050604084013567ffffffffffffffff811115616b4857616b476154b7565b5b616b5486828701616020565b9150509250925092565b600060ff82169050919050565b616b7481616b5e565b8114616b7f57600080fd5b50565b600081359050616b9181616b6b565b92915050565b60008060008060808587031215616bb157616bb06154b2565b5b6000616bbf87828801615598565b945050602085013567ffffffffffffffff811115616be057616bdf6154b7565b5b616bec8782880161585d565b935050604085013567ffffffffffffffff811115616c0d57616c0c6154b7565b5b616c1987828801616aa5565b9250506060616c2a87828801616b82565b91505092959194509250565b600082825260208201905092915050565b7f5175697a20646f6573206e6f7420657869737400000000000000000000000000600082015250565b6000616c7d601383616c36565b9150616c8882616c47565b602082019050919050565b60006020820190508181036000830152616cac81616c70565b9050919050565b7f4e487b7100000000000000000000000000000000000000000000000000000000600052603260045260246000fd5b7f5175697a20616c726561647920636f6d706c6574656400000000000000000000600082015250565b6000616d18601683616c36565b9150616d2382616ce2565b602082019050919050565b60006020820190508181036000830152616d4781616d0b565b9050919050565b7f4e6f7420656e726f6c6c65642100000000000000000000000000000000000000600082015250565b6000616d84600d83616c36565b9150616d8f82616d4e565b602082019050919050565b60006020820190508181036000830152616db381616d77565b9050919050565b7f4c6573736f6e20646f6573206e6f742065786973740000000000000000000000600082015250565b6000616df0601583616c36565b9150616dfb82616dba565b602082019050919050565b60006020820190508181036000830152616e1f81616de3565b9050919050565b7f4e487b7100000000000000000000000000000000000000000000000000000000600052602260045260246000fd5b60006002820490506001821680616e6d57607f821691505b602082108103616e8057616e7f616e26565b5b50919050565b60008190508160005260206000209050919050565b60006020601f8301049050919050565b600082821b905092915050565b600060088302616ee87fffffffffffffffffffffffffffffffffffffffffffffffffffffffffffffffff82616eab565b616ef28683616eab565b95508019841693508086168417925050509392505050565b6000819050919050565b6000616f2f616f2a616f2584615577565b616f0a565b615577565b9050919050565b6000819050919050565b616f4983616f14565b616f5d616f5582616f36565b848454616eb8565b825550505050565b600090565b616f72616f65565b616f7d818484616f40565b505050565b5b81811015616fa157616f96600082616f6a565b600181019050616f83565b5050565b601f821115616fe657616fb781616e86565b616fc084616e9b565b81016020851015616fcf578190505b616fe3616fdb85616e9b565b830182616f82565b50505b505050565b600082821c905092915050565b600061700960001984600802616feb565b1980831691505092915050565b60006170228383616ff8565b9150826002028217905092915050565b61703b82615cdc565b67ffffffffffffffff81111561705457617053615760565b5b61705e8254616e55565b617069828285616fa5565b600060209050601f83116001811461709c576000841561708a578287015190505b6170948582617016565b8655506170fc565b601f1984166170aa86616e86565b60005b828110156170d2578489015182556001820191506020850194506020810190506170ad565b868310156170ef57848901516170eb601f891682616ff8565b8355505b6001600288020188555050505b505050505050565b7f45786365656473206d6178696d756d20616c6c6f776564000000000000000000600082015250565b600061713a601783616c36565b915061714582617104565b602082019050919050565b600060208201905081810360008301526171698161712d565b9050919050565b600061717b82615cdc565b6171858185616c36565b9350617195818560208601615cf8565b61719e8161574f565b840191505092915050565b600060208201905081810360008301526171c38184617170565b905092915050565b7f5155697a20646f6573206e6f7420657869737400000000000000000000000000600082015250565b6000617201601383616c36565b915061720c826171cb565b602082019050919050565b60006020820190508181036000830152617230816171f4565b9050919050565b7f4e6f74206578616374207175697a000000000000000000000000000000000000600082015250565b600061726d600e83616c36565b915061727882617237565b602082019050919050565b6000602082019050818103600083015261729c81617260565b9050919050565b60006040820190506172b86000830185615c86565b6172c56020830184615c86565b9392505050565b7f4c6573736f6e20446f6573206e6f742065786973742100000000000000000000600082015250565b6000617302601683616c36565b915061730d826172cc565b602082019050919050565b60006020820190508181036000830152617331816172f5565b9050919050565b7f4e487b7100000000000000000000000000000000000000000000000000000000600052601160045260246000fd5b600061737282615577565b91507fffffffffffffffffffffffffffffffffffffffffffffffffffffffffffffffff82036173a4576173a3617338565b5b600182019050919050565b6000815490506173be81616e55565b9050919050565b8181036173d35750506174ab565b6173dc826173af565b67ffffffffffffffff8111156173f5576173f4615760565b5b6173ff8254616e55565b61740a828285616fa5565b6000601f8311600181146174395760008415617427578287015490505b6174318582617016565b8655506174a4565b601f19841661744787616e86565b965061745286616e86565b60005b8281101561747a57848901548255600182019150600185019450602081019050617455565b868310156174975784890154617493601f891682616ff8565b8355505b6001600288020188555050505b5050505050505b565b600081905092915050565b60006174c382615cdc565b6174cd81856174ad565b93506174dd818560208601615cf8565b80840191505092915050565b60006174f582846174b8565b915081905092915050565b7f4368617074657220646f6573206e6f7420657869737421000000000000000000600082015250565b6000617536601783616c36565b915061754182617500565b602082019050919050565b6000602082019050818103600083015261756581617529565b9050919050565b7f5175657374696f6e206e6f7420666f756e6420696e2074686973207175697a00600082015250565b60006175a2601f83616c36565b91506175ad8261756c565b602082019050919050565b600060208201905081810360008301526175d181617595565b9050919050565b60006175e382615577565b91506175ee83615577565b925082820390508181111561760657617605617338565b5b92915050565b7f4e487b7100000000000000000000000000000000000000000000000000000000600052603160045260246000fd5b7f4368617074657220646f65736e27742065786973740000000000000000000000600082015250565b6000617671601583616c36565b915061767c8261763b565b602082019050919050565b600060208201905081810360008301526176a081617664565b9050919050565b7f4c6573736f6e20646f65736e2774206578697374000000000000000000000000600082015250565b60006176dd601483616c36565b91506176e8826176a7565b602082019050919050565b6000602082019050818103600083015261770c816176d0565b9050919050565b7f4c6573736f6e20646f6573206e6f742065786973742100000000000000000000600082015250565b6000617749601683616c36565b915061775482617713565b602082019050919050565b600060208201905081810360008301526177788161773c565b9050919050565b600061778a82615577565b915061779583615577565b92508282019050808211156177ad576177ac617338565b5b92915050565b7f45786365656473206d6178696d756d207265736f757263657321000000000000600082015250565b60006177e9601a83616c36565b91506177f4826177b3565b602082019050919050565b60006020820190508181036000830152617818816177dc565b9050919050565b600080fd5b600080fd5b600080fd5b60008235600160600383360303811261784a5761784961781f565b5b80830191505092915050565b60006020828403121561786c5761786b6154b2565b5b600061787a848285016158d6565b91505092915050565b600080833560016020038436030381126178a05761789f61781f565b5b80840192508235915067ffffffffffffffff8211156178c2576178c1617824565b5b6020830192506001820236038313156178de576178dd617829565b5b509250929050565b7f416c7265616479206d61726b6564000000000000000000000000000000000000600082015250565b600061791c600e83616c36565b9150617927826178e6565b602082019050919050565b6000602082019050818103600083015261794b8161790f565b9050919050565b61795b816156c7565b82525050565b60006020820190506179766000830184617952565b92915050565b7f436f7572736520646f6573206e6f742065786973742100000000000000000000600082015250565b60006179b2601683616c36565b91506179bd8261797c565b602082019050919050565b600060208201905081810360008301526179e1816179a5565b9050919050565b7f496e76616c6964206e756d626572206f662063686f6963657300000000000000600082015250565b6000617a1e601983616c36565b9150617a29826179e8565b602082019050919050565b60006020820190508181036000830152617a4d81617a11565b9050919050565b7f496e76616c696420636f72726563742063686f69636520696e64657800000000600082015250565b6000617a8a601c83616c36565b9150617a9582617a54565b602082019050919050565b60006020820190508181036000830152617ab981617a7d565b9050919050565b6000617acb82616b5e565b915060ff8203617ade57617add617338565b5b600182019050919050565b6000606082019050617afe6000830186615c86565b617b0b6020830185615c86565b8181036040830152617b1d8184617170565b9050949350505050565b7f436f7572736520646f65736e2774206578697374000000000000000000000000600082015250565b6000617b5d601483616c36565b9150617b6882617b27565b602082019050919050565b60006020820190508181036000830152617b8c81617b50565b9050919050565b7f4368617074657220646f65736e2774206e6f7420657869737400000000000000600082015250565b6000617bc9601983616c36565b9150617bd482617b93565b602082019050919050565b60006020820190508181036000830152617bf881617bbc565b9050919050565b7f5175697a20646f65736e27742065786973740000000000000000000000000000600082015250565b6000617c35601283616c36565b9150617c4082617bff565b602082019050919050565b60006020820190508181036000830152617c6481617c28565b9050919050565b7f436f75727365206e6f742079657420617070726f766564210000000000000000600082015250565b6000617ca1601883616c36565b9150617cac82617c6b565b602082019050919050565b60006020820190508181036000830152617cd081617c94565b9050919050565b7f416c726561647920656e726f6c6c656400000000000000000000000000000000600082015250565b6000617d0d601083616c36565b9150617d1882617cd7565b602082019050919050565b60006020820190508181036000830152617d3c81617d00565b9050919050565b6000617d4e82615577565b9150617d5983615577565b9250828202617d6781615577565b91508282048414831517617d7e57617d7d617338565b5b5092915050565b7f4e487b7100000000000000000000000000000000000000000000000000000000600052601260045260246000fd5b6000617dbf82615577565b9150617dca83615577565b925082617dda57617dd9617d85565b5b828204905092915050565b7f4c696d6974204578636565646564210000000000000000000000000000000000600082015250565b6000617e1b600f83616c36565b9150617e2682617de5565b602082019050919050565b60006020820190508181036000830152617e4a81617e0e565b9050919050565b6000604082019050617e666000830185617952565b617e73602083018461567d565b939250505056fea26469706673582212204561630ee056734e4a5a63a886a65d5dc512a2a29acd6c02f2850950178b509d64736f6c634300081b0033",
  "linkReferences": {},
  "deployedLinkReferences": {}
}