{
  "_format": "hh-sol-artifact-1",
  "contractName": "Ecosystem2",
  "sourceName": "contracts/Ecosystem  Contracts/Ecosystem3.sol",
  "abi": [
    {
      "inputs": [
        {
          "internalType": "address[]",
          "name": "_admins",
          "type": "address[]"
        }
      ],
      "stateMutability": "nonpayable",
      "type": "constructor"
    },
    {
      "inputs": [],
      "name": "AccessControlBadConfirmation",
      "type": "error"
    },
    {
      "inputs": [
        {
          "internalType": "address",
          "name": "account",
          "type": "address"
        },
        {
          "internalType": "bytes32",
          "name": "neededRole",
          "type": "bytes32"
        }
      ],
      "name": "AccessControlUnauthorizedAccount",
      "type": "error"
    },
    {
      "inputs": [
        {
          "internalType": "address",
          "name": "spender",
          "type": "address"
        },
        {
          "internalType": "uint256",
          "name": "allowance",
          "type": "uint256"
        },
        {
          "internalType": "uint256",
          "name": "needed",
          "type": "uint256"
        }
      ],
      "name": "ERC20InsufficientAllowance",
      "type": "error"
    },
    {
      "inputs": [
        {
          "internalType": "address",
          "name": "sender",
          "type": "address"
        },
        {
          "internalType": "uint256",
          "name": "balance",
          "type": "uint256"
        },
        {
          "internalType": "uint256",
          "name": "needed",
          "type": "uint256"
        }
      ],
      "name": "ERC20InsufficientBalance",
      "type": "error"
    },
    {
      "inputs": [
        {
          "internalType": "address",
          "name": "approver",
          "type": "address"
        }
      ],
      "name": "ERC20InvalidApprover",
      "type": "error"
    },
    {
      "inputs": [
        {
          "internalType": "address",
          "name": "receiver",
          "type": "address"
        }
      ],
      "name": "ERC20InvalidReceiver",
      "type": "error"
    },
    {
      "inputs": [
        {
          "internalType": "address",
          "name": "sender",
          "type": "address"
        }
      ],
      "name": "ERC20InvalidSender",
      "type": "error"
    },
    {
      "inputs": [
        {
          "internalType": "address",
          "name": "spender",
          "type": "address"
        }
      ],
      "name": "ERC20InvalidSpender",
      "type": "error"
    },
    {
      "inputs": [],
      "name": "ReentrancyGuardReentrantCall",
      "type": "error"
    },
    {
      "anonymous": false,
      "inputs": [
        {
          "indexed": true,
          "internalType": "address",
          "name": "owner",
          "type": "address"
        },
        {
          "indexed": true,
          "internalType": "address",
          "name": "spender",
          "type": "address"
        },
        {
          "indexed": false,
          "internalType": "uint256",
          "name": "value",
          "type": "uint256"
        }
      ],
      "name": "Approval",
      "type": "event"
    },
    {
      "anonymous": false,
      "inputs": [
        {
          "indexed": true,
          "internalType": "address",
          "name": "_account",
          "type": "address"
        },
        {
          "indexed": false,
          "internalType": "uint256",
          "name": "_amount",
          "type": "uint256"
        }
      ],
      "name": "BurnSuccess",
      "type": "event"
    },
    {
      "anonymous": false,
      "inputs": [
        {
          "indexed": false,
          "internalType": "uint256",
          "name": "certificateId",
          "type": "uint256"
        },
        {
          "indexed": false,
          "internalType": "string",
          "name": "courseName",
          "type": "string"
        },
        {
          "indexed": false,
          "internalType": "string",
          "name": "cert_issuer",
          "type": "string"
        },
        {
          "indexed": false,
          "internalType": "string",
          "name": "learner",
          "type": "string"
        }
      ],
      "name": "CertificateIssued",
      "type": "event"
    },
    {
      "anonymous": false,
      "inputs": [
        {
          "indexed": true,
          "internalType": "uint256",
          "name": "_courseId",
          "type": "uint256"
        },
        {
          "indexed": true,
          "internalType": "uint256",
          "name": "_chaterId",
          "type": "uint256"
        }
      ],
      "name": "ChapterDeletedSuccess",
      "type": "event"
    },
    {
      "anonymous": false,
      "inputs": [
        {
          "indexed": true,
          "internalType": "uint256",
          "name": "_courseId",
          "type": "uint256"
        },
        {
          "indexed": true,
          "internalType": "uint256",
          "name": "_chapterId",
          "type": "uint256"
        },
        {
          "indexed": false,
          "internalType": "string",
          "name": "_chapterName",
          "type": "string"
        }
      ],
      "name": "ChapterEdited",
      "type": "event"
    },
    {
      "anonymous": false,
      "inputs": [
        {
          "indexed": true,
          "internalType": "uint256",
          "name": "_courseID",
          "type": "uint256"
        },
        {
          "indexed": true,
          "internalType": "string",
          "name": "_courseName",
          "type": "string"
        },
        {
          "indexed": false,
          "internalType": "bool",
          "name": "_approved",
          "type": "bool"
        }
      ],
      "name": "CourseCreationSuccess",
      "type": "event"
    },
    {
      "anonymous": false,
      "inputs": [
        {
          "indexed": true,
          "internalType": "uint256",
          "name": "_courseId",
          "type": "uint256"
        },
        {
          "indexed": false,
          "internalType": "address",
          "name": "owner",
          "type": "address"
        }
      ],
      "name": "CourseDeleteSuccess",
      "type": "event"
    },
    {
      "anonymous": false,
      "inputs": [
        {
          "indexed": true,
          "internalType": "uint256",
          "name": "_courseId",
          "type": "uint256"
        },
        {
          "indexed": false,
          "internalType": "string",
          "name": "_courseName",
          "type": "string"
        }
      ],
      "name": "CourseEdited",
      "type": "event"
    },
    {
      "anonymous": false,
      "inputs": [
        {
          "indexed": true,
          "internalType": "address",
          "name": "_to",
          "type": "address"
        },
        {
          "indexed": true,
          "internalType": "uint256",
          "name": "_amount",
          "type": "uint256"
        }
      ],
      "name": "EcosystemPoolUpdate",
      "type": "event"
    },
    {
      "anonymous": false,
      "inputs": [
        {
          "indexed": true,
          "internalType": "uint256",
          "name": "_courseId",
          "type": "uint256"
        },
        {
          "indexed": true,
          "internalType": "address",
          "name": "_by",
          "type": "address"
        }
      ],
      "name": "EnrollmentSuccess",
      "type": "event"
    },
    {
      "anonymous": false,
      "inputs": [
        {
          "indexed": true,
          "internalType": "uint256",
          "name": "_chapterId",
          "type": "uint256"
        },
        {
          "indexed": true,
          "internalType": "uint256",
          "name": "_lessonId",
          "type": "uint256"
        }
      ],
      "name": "LessonDeleted",
      "type": "event"
    },
    {
      "anonymous": false,
      "inputs": [
        {
          "indexed": true,
          "internalType": "uint256",
          "name": "_lessonId",
          "type": "uint256"
        },
        {
          "indexed": false,
          "internalType": "string",
          "name": "_lessonName",
          "type": "string"
        }
      ],
      "name": "LessonEdited",
      "type": "event"
    },
    {
      "anonymous": false,
      "inputs": [
        {
          "indexed": true,
          "internalType": "uint256",
          "name": "_chapterId",
          "type": "uint256"
        },
        {
          "indexed": true,
          "internalType": "uint256",
          "name": "_lessonId",
          "type": "uint256"
        },
        {
          "indexed": false,
          "internalType": "address",
          "name": "learner",
          "type": "address"
        }
      ],
      "name": "LessonMarkedAsRead",
      "type": "event"
    },
    {
      "anonymous": false,
      "inputs": [
        {
          "indexed": true,
          "internalType": "address",
          "name": "_to",
          "type": "address"
        },
        {
          "indexed": true,
          "internalType": "uint256",
          "name": "_amount",
          "type": "uint256"
        }
      ],
      "name": "MintSuccess",
      "type": "event"
    },
    {
      "anonymous": false,
      "inputs": [
        {
          "indexed": true,
          "internalType": "uint256",
          "name": "_quizId",
          "type": "uint256"
        },
        {
          "indexed": true,
          "internalType": "uint256",
          "name": "_questionId",
          "type": "uint256"
        }
      ],
      "name": "QuestionDeleted",
      "type": "event"
    },
    {
      "anonymous": false,
      "inputs": [
        {
          "indexed": true,
          "internalType": "uint256",
          "name": "_lessonId",
          "type": "uint256"
        },
        {
          "indexed": true,
          "internalType": "uint256",
          "name": "_quizId",
          "type": "uint256"
        }
      ],
      "name": "QuizDeleted",
      "type": "event"
    },
    {
      "anonymous": false,
      "inputs": [
        {
          "indexed": true,
          "internalType": "uint256",
          "name": "_lessonId",
          "type": "uint256"
        },
        {
          "indexed": true,
          "internalType": "uint256",
          "name": "_quizId",
          "type": "uint256"
        },
        {
          "indexed": false,
          "internalType": "string",
          "name": "_quizTitle",
          "type": "string"
        }
      ],
      "name": "QuizEdited",
      "type": "event"
    },
    {
      "anonymous": false,
      "inputs": [
        {
          "indexed": true,
          "internalType": "address",
          "name": "learner",
          "type": "address"
        },
        {
          "indexed": false,
          "internalType": "uint256",
          "name": "quizId",
          "type": "uint256"
        },
        {
          "indexed": false,
          "internalType": "uint256",
          "name": "score",
          "type": "uint256"
        }
      ],
      "name": "QuizSubmitted",
      "type": "event"
    },
    {
      "anonymous": false,
      "inputs": [
        {
          "indexed": true,
          "internalType": "bytes32",
          "name": "role",
          "type": "bytes32"
        },
        {
          "indexed": true,
          "internalType": "bytes32",
          "name": "previousAdminRole",
          "type": "bytes32"
        },
        {
          "indexed": true,
          "internalType": "bytes32",
          "name": "newAdminRole",
          "type": "bytes32"
        }
      ],
      "name": "RoleAdminChanged",
      "type": "event"
    },
    {
      "anonymous": false,
      "inputs": [
        {
          "indexed": true,
          "internalType": "bytes32",
          "name": "role",
          "type": "bytes32"
        },
        {
          "indexed": true,
          "internalType": "address",
          "name": "account",
          "type": "address"
        },
        {
          "indexed": true,
          "internalType": "address",
          "name": "sender",
          "type": "address"
        }
      ],
      "name": "RoleGranted",
      "type": "event"
    },
    {
      "anonymous": false,
      "inputs": [
        {
          "indexed": true,
          "internalType": "bytes32",
          "name": "role",
          "type": "bytes32"
        },
        {
          "indexed": true,
          "internalType": "address",
          "name": "account",
          "type": "address"
        },
        {
          "indexed": true,
          "internalType": "address",
          "name": "sender",
          "type": "address"
        }
      ],
      "name": "RoleRevoked",
      "type": "event"
    },
    {
      "anonymous": false,
      "inputs": [
        {
          "indexed": true,
          "internalType": "address",
          "name": "from",
          "type": "address"
        },
        {
          "indexed": true,
          "internalType": "address",
          "name": "to",
          "type": "address"
        },
        {
          "indexed": false,
          "internalType": "uint256",
          "name": "value",
          "type": "uint256"
        }
      ],
      "name": "Transfer",
      "type": "event"
    },
    {
      "anonymous": false,
      "inputs": [
        {
          "indexed": true,
          "internalType": "uint256",
          "name": "_courseId",
          "type": "uint256"
        },
        {
          "indexed": true,
          "internalType": "address",
          "name": "_by",
          "type": "address"
        }
      ],
      "name": "unEnrollmentSuccess",
      "type": "event"
    },
    {
      "inputs": [],
      "name": "ADMIN_ROLE",
      "outputs": [
        {
          "internalType": "bytes32",
          "name": "",
          "type": "bytes32"
        }
      ],
      "stateMutability": "view",
      "type": "function"
    },
    {
      "inputs": [],
      "name": "COURSE_COMPLETION_REWARD",
      "outputs": [
        {
          "internalType": "uint256",
          "name": "",
          "type": "uint256"
        }
      ],
      "stateMutability": "view",
      "type": "function"
    },
    {
      "inputs": [],
      "name": "COURSE_OWNER_ROLE",
      "outputs": [
        {
          "internalType": "bytes32",
          "name": "",
          "type": "bytes32"
        }
      ],
      "stateMutability": "view",
      "type": "function"
    },
    {
      "inputs": [],
      "name": "CREATE_COURSE_REWARD",
      "outputs": [
        {
          "internalType": "uint256",
          "name": "",
          "type": "uint256"
        }
      ],
      "stateMutability": "view",
      "type": "function"
    },
    {
      "inputs": [],
      "name": "DEFAULT_ADMIN_ROLE",
      "outputs": [
        {
          "internalType": "bytes32",
          "name": "",
          "type": "bytes32"
        }
      ],
      "stateMutability": "view",
      "type": "function"
    },
    {
      "inputs": [],
      "name": "ECOSYSTEM_POOL",
      "outputs": [
        {
          "internalType": "uint256",
          "name": "",
          "type": "uint256"
        }
      ],
      "stateMutability": "view",
      "type": "function"
    },
    {
      "inputs": [],
      "name": "ENROLLMENT_REWARD",
      "outputs": [
        {
          "internalType": "uint256",
          "name": "",
          "type": "uint256"
        }
      ],
      "stateMutability": "view",
      "type": "function"
    },
    {
      "inputs": [],
      "name": "MAX_SCORE",
      "outputs": [
        {
          "internalType": "uint256",
          "name": "",
          "type": "uint256"
        }
      ],
      "stateMutability": "view",
      "type": "function"
    },
    {
      "inputs": [],
      "name": "MAX_SUPPLY",
      "outputs": [
        {
          "internalType": "uint256",
          "name": "",
          "type": "uint256"
        }
      ],
      "stateMutability": "view",
      "type": "function"
    },
    {
      "inputs": [],
      "name": "MIN_APPROVAL_SCORE",
      "outputs": [
        {
          "internalType": "uint256",
          "name": "",
          "type": "uint256"
        }
      ],
      "stateMutability": "view",
      "type": "function"
    },
    {
      "inputs": [],
      "name": "QUIZ_COMPLETION_REWARD",
      "outputs": [
        {
          "internalType": "uint256",
          "name": "",
          "type": "uint256"
        }
      ],
      "stateMutability": "view",
      "type": "function"
    },
    {
      "inputs": [],
      "name": "REQUIRED_APPROVALS",
      "outputs": [
        {
          "internalType": "uint256",
          "name": "",
          "type": "uint256"
        }
      ],
      "stateMutability": "view",
      "type": "function"
    },
    {
      "inputs": [
        {
          "internalType": "address",
          "name": "",
          "type": "address"
        }
      ],
      "name": "accountCourses",
      "outputs": [
        {
          "internalType": "uint256",
          "name": "courseCount",
          "type": "uint256"
        }
      ],
      "stateMutability": "view",
      "type": "function"
    },
    {
      "inputs": [
        {
          "internalType": "address",
          "name": "newAdmin",
          "type": "address"
        }
      ],
      "name": "addAdmin",
      "outputs": [],
      "stateMutability": "nonpayable",
      "type": "function"
    },
    {
      "inputs": [
        {
          "internalType": "address",
          "name": "owner",
          "type": "address"
        },
        {
          "internalType": "address",
          "name": "spender",
          "type": "address"
        }
      ],
      "name": "allowance",
      "outputs": [
        {
          "internalType": "uint256",
          "name": "",
          "type": "uint256"
        }
      ],
      "stateMutability": "view",
      "type": "function"
    },
    {
      "inputs": [
        {
          "internalType": "address",
          "name": "",
          "type": "address"
        },
        {
          "internalType": "uint256",
          "name": "",
          "type": "uint256"
        }
      ],
      "name": "approvals",
      "outputs": [
        {
          "internalType": "bool",
          "name": "",
          "type": "bool"
        }
      ],
      "stateMutability": "view",
      "type": "function"
    },
    {
      "inputs": [
        {
          "internalType": "address",
          "name": "spender",
          "type": "address"
        },
        {
          "internalType": "uint256",
          "name": "value",
          "type": "uint256"
        }
      ],
      "name": "approve",
      "outputs": [
        {
          "internalType": "bool",
          "name": "",
          "type": "bool"
        }
      ],
      "stateMutability": "nonpayable",
      "type": "function"
    },
    {
      "inputs": [
        {
          "internalType": "uint256",
          "name": "_courseId",
          "type": "uint256"
        }
      ],
      "name": "approveCourse",
      "outputs": [],
      "stateMutability": "nonpayable",
      "type": "function"
    },
    {
      "inputs": [
        {
          "internalType": "address",
          "name": "account",
          "type": "address"
        }
      ],
      "name": "balanceOf",
      "outputs": [
        {
          "internalType": "uint256",
          "name": "",
          "type": "uint256"
        }
      ],
      "stateMutability": "view",
      "type": "function"
    },
    {
      "inputs": [
        {
          "internalType": "uint256",
          "name": "",
          "type": "uint256"
        }
      ],
      "name": "certificates",
      "outputs": [
        {
          "internalType": "uint256",
          "name": "certId",
          "type": "uint256"
        },
        {
          "internalType": "uint256",
          "name": "courseId",
          "type": "uint256"
        },
        {
          "internalType": "string",
          "name": "learner",
          "type": "string"
        },
        {
          "internalType": "string",
          "name": "cert_issuer",
          "type": "string"
        },
        {
          "internalType": "uint256",
          "name": "issue_date",
          "type": "uint256"
        },
        {
          "internalType": "string",
          "name": "courseName",
          "type": "string"
        },
        {
          "internalType": "address",
          "name": "owner",
          "type": "address"
        }
      ],
      "stateMutability": "view",
      "type": "function"
    },
    {
      "inputs": [
        {
          "internalType": "uint256",
          "name": "",
          "type": "uint256"
        }
      ],
      "name": "chapter",
      "outputs": [
        {
          "internalType": "uint256",
          "name": "chapterId",
          "type": "uint256"
        },
        {
          "internalType": "string",
          "name": "chapterName",
          "type": "string"
        }
      ],
      "stateMutability": "view",
      "type": "function"
    },
    {
      "inputs": [
        {
          "internalType": "uint256",
          "name": "",
          "type": "uint256"
        },
        {
          "internalType": "uint256",
          "name": "",
          "type": "uint256"
        }
      ],
      "name": "chapterLessons",
      "outputs": [
        {
          "internalType": "string",
          "name": "",
          "type": "string"
        }
      ],
      "stateMutability": "view",
      "type": "function"
    },
    {
      "inputs": [
        {
          "internalType": "uint256",
          "name": "",
          "type": "uint256"
        },
        {
          "internalType": "address",
          "name": "",
          "type": "address"
        }
      ],
      "name": "completedQuizzes",
      "outputs": [
        {
          "internalType": "bool",
          "name": "",
          "type": "bool"
        }
      ],
      "stateMutability": "view",
      "type": "function"
    },
    {
      "inputs": [
        {
          "internalType": "uint256",
          "name": "",
          "type": "uint256"
        },
        {
          "internalType": "uint256",
          "name": "",
          "type": "uint256"
        }
      ],
      "name": "courseChapters",
      "outputs": [
        {
          "internalType": "string",
          "name": "",
          "type": "string"
        }
      ],
      "stateMutability": "view",
      "type": "function"
    },
    {
      "inputs": [
        {
          "internalType": "uint256",
          "name": "",
          "type": "uint256"
        },
        {
          "internalType": "address",
          "name": "",
          "type": "address"
        }
      ],
      "name": "courseCompleted",
      "outputs": [
        {
          "internalType": "bool",
          "name": "",
          "type": "bool"
        }
      ],
      "stateMutability": "view",
      "type": "function"
    },
    {
      "inputs": [],
      "name": "courseCount",
      "outputs": [
        {
          "internalType": "uint256",
          "name": "",
          "type": "uint256"
        }
      ],
      "stateMutability": "view",
      "type": "function"
    },
    {
      "inputs": [
        {
          "internalType": "uint256",
          "name": "",
          "type": "uint256"
        }
      ],
      "name": "courseObject",
      "outputs": [
        {
          "internalType": "uint256",
          "name": "courseId",
          "type": "uint256"
        },
        {
          "internalType": "string",
          "name": "courseName",
          "type": "string"
        },
        {
          "internalType": "string",
          "name": "description",
          "type": "string"
        },
        {
          "internalType": "bool",
          "name": "approved",
          "type": "bool"
        },
        {
          "internalType": "uint256",
          "name": "approvalCount",
          "type": "uint256"
        },
        {
          "internalType": "address",
          "name": "creator",
          "type": "address"
        }
      ],
      "stateMutability": "view",
      "type": "function"
    },
    {
      "inputs": [
        {
          "internalType": "string",
          "name": "_courseName",
          "type": "string"
        },
        {
          "internalType": "string",
          "name": "_description",
          "type": "string"
        }
      ],
      "name": "createCourse",
      "outputs": [
        {
          "internalType": "bool",
          "name": "",
          "type": "bool"
        }
      ],
      "stateMutability": "nonpayable",
      "type": "function"
    },
    {
      "inputs": [],
      "name": "decimals",
      "outputs": [
        {
          "internalType": "uint8",
          "name": "",
          "type": "uint8"
        }
      ],
      "stateMutability": "view",
      "type": "function"
    },
    {
      "inputs": [
        {
          "internalType": "uint256",
          "name": "_courseId",
          "type": "uint256"
        },
        {
          "internalType": "uint256",
          "name": "_chapterId",
          "type": "uint256"
        }
      ],
      "name": "deleteChapter",
      "outputs": [
        {
          "internalType": "bool",
          "name": "",
          "type": "bool"
        }
      ],
      "stateMutability": "nonpayable",
      "type": "function"
    },
    {
      "inputs": [
        {
          "internalType": "uint256",
          "name": "_courseId",
          "type": "uint256"
        }
      ],
      "name": "deleteCourse",
      "outputs": [
        {
          "internalType": "bool",
          "name": "",
          "type": "bool"
        }
      ],
      "stateMutability": "nonpayable",
      "type": "function"
    },
    {
      "inputs": [
        {
          "internalType": "uint256",
          "name": "_chapterId",
          "type": "uint256"
        },
        {
          "internalType": "uint256",
          "name": "_lessonId",
          "type": "uint256"
        }
      ],
      "name": "deleteLesson",
      "outputs": [
        {
          "internalType": "bool",
          "name": "",
          "type": "bool"
        }
      ],
      "stateMutability": "nonpayable",
      "type": "function"
    },
    {
      "inputs": [
        {
          "internalType": "uint256",
          "name": "_quizId",
          "type": "uint256"
        },
        {
          "internalType": "uint256",
          "name": "_questionId",
          "type": "uint256"
        }
      ],
      "name": "deleteQuestion",
      "outputs": [
        {
          "internalType": "bool",
          "name": "",
          "type": "bool"
        }
      ],
      "stateMutability": "nonpayable",
      "type": "function"
    },
    {
      "inputs": [
        {
          "internalType": "uint256",
          "name": "_lessonId",
          "type": "uint256"
        },
        {
          "internalType": "uint256",
          "name": "_quizId",
          "type": "uint256"
        }
      ],
      "name": "deleteQuiz",
      "outputs": [
        {
          "internalType": "bool",
          "name": "",
          "type": "bool"
        }
      ],
      "stateMutability": "nonpayable",
      "type": "function"
    },
    {
      "inputs": [],
      "name": "ecosystemPoolSupply",
      "outputs": [
        {
          "internalType": "uint256",
          "name": "",
          "type": "uint256"
        }
      ],
      "stateMutability": "view",
      "type": "function"
    },
    {
      "inputs": [
        {
          "internalType": "uint256",
          "name": "_courseId",
          "type": "uint256"
        },
        {
          "internalType": "uint256",
          "name": "_chapterId",
          "type": "uint256"
        },
        {
          "internalType": "string",
          "name": "_chapterName",
          "type": "string"
        }
      ],
      "name": "editChapter",
      "outputs": [
        {
          "internalType": "bool",
          "name": "",
          "type": "bool"
        }
      ],
      "stateMutability": "nonpayable",
      "type": "function"
    },
    {
      "inputs": [
        {
          "internalType": "uint256",
          "name": "_courseId",
          "type": "uint256"
        },
        {
          "internalType": "string",
          "name": "_courseName",
          "type": "string"
        }
      ],
      "name": "editCourse",
      "outputs": [
        {
          "internalType": "bool",
          "name": "",
          "type": "bool"
        }
      ],
      "stateMutability": "nonpayable",
      "type": "function"
    },
    {
      "inputs": [
        {
          "internalType": "uint256",
          "name": "_lessonId",
          "type": "uint256"
        },
        {
          "internalType": "string",
          "name": "_lessonName",
          "type": "string"
        },
        {
          "internalType": "string",
          "name": "_lessonContent",
          "type": "string"
        },
        {
          "components": [
            {
              "internalType": "string",
              "name": "contentType",
              "type": "string"
            },
            {
              "internalType": "string",
              "name": "url",
              "type": "string"
            },
            {
              "internalType": "string",
              "name": "description",
              "type": "string"
            }
          ],
          "internalType": "struct Ecosystem.Resource[]",
          "name": "_additionalResources",
          "type": "tuple[]"
        }
      ],
      "name": "editLesson",
      "outputs": [
        {
          "internalType": "bool",
          "name": "",
          "type": "bool"
        }
      ],
      "stateMutability": "nonpayable",
      "type": "function"
    },
    {
      "inputs": [
        {
          "internalType": "uint256",
          "name": "_lessonId",
          "type": "uint256"
        },
        {
          "internalType": "uint256",
          "name": "_quizId",
          "type": "uint256"
        },
        {
          "internalType": "string",
          "name": "_quizTitle",
          "type": "string"
        }
      ],
      "name": "editQuiz",
      "outputs": [],
      "stateMutability": "nonpayable",
      "type": "function"
    },
    {
      "inputs": [
        {
          "internalType": "uint256",
          "name": "_courseId",
          "type": "uint256"
        }
      ],
      "name": "enroll",
      "outputs": [
        {
          "internalType": "bool",
          "name": "",
          "type": "bool"
        }
      ],
      "stateMutability": "nonpayable",
      "type": "function"
    },
    {
      "inputs": [],
      "name": "getAllCourses",
      "outputs": [
        {
          "components": [
            {
              "internalType": "uint256",
              "name": "courseId",
              "type": "uint256"
            },
            {
              "internalType": "string",
              "name": "courseName",
              "type": "string"
            },
            {
              "internalType": "string",
              "name": "description",
              "type": "string"
            },
            {
              "internalType": "bool",
              "name": "approved",
              "type": "bool"
            },
            {
              "internalType": "uint256",
              "name": "approvalCount",
              "type": "uint256"
            },
            {
              "internalType": "address",
              "name": "creator",
              "type": "address"
            }
          ],
          "internalType": "struct Ecosystem.Course[]",
          "name": "",
          "type": "tuple[]"
        }
      ],
      "stateMutability": "view",
      "type": "function"
    },
    {
      "inputs": [],
      "name": "getCurrentEcosystemPoolSupply",
      "outputs": [
        {
          "internalType": "uint256",
          "name": "",
          "type": "uint256"
        }
      ],
      "stateMutability": "view",
      "type": "function"
    },
    {
      "inputs": [
        {
          "internalType": "bytes32",
          "name": "role",
          "type": "bytes32"
        }
      ],
      "name": "getRoleAdmin",
      "outputs": [
        {
          "internalType": "bytes32",
          "name": "",
          "type": "bytes32"
        }
      ],
      "stateMutability": "view",
      "type": "function"
    },
    {
      "inputs": [
        {
          "internalType": "bytes32",
          "name": "role",
          "type": "bytes32"
        },
        {
          "internalType": "address",
          "name": "account",
          "type": "address"
        }
      ],
      "name": "grantRole",
      "outputs": [],
      "stateMutability": "nonpayable",
      "type": "function"
    },
    {
      "inputs": [
        {
          "internalType": "bytes32",
          "name": "role",
          "type": "bytes32"
        },
        {
          "internalType": "address",
          "name": "account",
          "type": "address"
        }
      ],
      "name": "hasRole",
      "outputs": [
        {
          "internalType": "bool",
          "name": "",
          "type": "bool"
        }
      ],
      "stateMutability": "view",
      "type": "function"
    },
    {
      "inputs": [
        {
          "internalType": "address",
          "name": "account",
          "type": "address"
        }
      ],
      "name": "isAdmin",
      "outputs": [
        {
          "internalType": "bool",
          "name": "",
          "type": "bool"
        }
      ],
      "stateMutability": "view",
      "type": "function"
    },
    {
      "inputs": [
        {
          "internalType": "uint256",
          "name": "",
          "type": "uint256"
        },
        {
          "internalType": "address",
          "name": "",
          "type": "address"
        }
      ],
      "name": "isEnrolled",
      "outputs": [
        {
          "internalType": "bool",
          "name": "",
          "type": "bool"
        }
      ],
      "stateMutability": "view",
      "type": "function"
    },
    {
      "inputs": [
        {
          "internalType": "uint256",
          "name": "_courseId",
          "type": "uint256"
        },
        {
          "internalType": "string",
          "name": "learner",
          "type": "string"
        },
        {
          "internalType": "string",
          "name": "courseName",
          "type": "string"
        },
        {
          "internalType": "string",
          "name": "cert_issuer",
          "type": "string"
        },
        {
          "internalType": "uint256",
          "name": "issue_date",
          "type": "uint256"
        }
      ],
      "name": "issueCertificate",
      "outputs": [
        {
          "internalType": "uint256",
          "name": "",
          "type": "uint256"
        },
        {
          "components": [
            {
              "internalType": "uint256",
              "name": "certId",
              "type": "uint256"
            },
            {
              "internalType": "uint256",
              "name": "courseId",
              "type": "uint256"
            },
            {
              "internalType": "string",
              "name": "learner",
              "type": "string"
            },
            {
              "internalType": "string",
              "name": "cert_issuer",
              "type": "string"
            },
            {
              "internalType": "uint256",
              "name": "issue_date",
              "type": "uint256"
            },
            {
              "internalType": "string",
              "name": "courseName",
              "type": "string"
            },
            {
              "internalType": "address",
              "name": "owner",
              "type": "address"
            }
          ],
          "internalType": "struct Ecosystem2.Certificate",
          "name": "",
          "type": "tuple"
        }
      ],
      "stateMutability": "nonpayable",
      "type": "function"
    },
    {
      "inputs": [
        {
          "internalType": "uint256",
          "name": "",
          "type": "uint256"
        }
      ],
      "name": "lesson",
      "outputs": [
        {
          "internalType": "uint256",
          "name": "lessonId",
          "type": "uint256"
        },
        {
          "internalType": "string",
          "name": "lessonName",
          "type": "string"
        },
        {
          "internalType": "string",
          "name": "lessonContent",
          "type": "string"
        },
        {
          "internalType": "uint256",
          "name": "resourceCount",
          "type": "uint256"
        }
      ],
      "stateMutability": "view",
      "type": "function"
    },
    {
      "inputs": [
        {
          "internalType": "uint256",
          "name": "",
          "type": "uint256"
        },
        {
          "internalType": "address",
          "name": "",
          "type": "address"
        }
      ],
      "name": "lessonRead",
      "outputs": [
        {
          "internalType": "bool",
          "name": "",
          "type": "bool"
        }
      ],
      "stateMutability": "view",
      "type": "function"
    },
    {
      "inputs": [
        {
          "internalType": "uint256",
          "name": "",
          "type": "uint256"
        }
      ],
      "name": "listOfChapters",
      "outputs": [
        {
          "internalType": "uint256",
          "name": "chapterId",
          "type": "uint256"
        },
        {
          "internalType": "string",
          "name": "chapterName",
          "type": "string"
        }
      ],
      "stateMutability": "view",
      "type": "function"
    },
    {
      "inputs": [
        {
          "internalType": "uint256",
          "name": "",
          "type": "uint256"
        }
      ],
      "name": "listOfCourses",
      "outputs": [
        {
          "internalType": "uint256",
          "name": "courseId",
          "type": "uint256"
        },
        {
          "internalType": "string",
          "name": "courseName",
          "type": "string"
        },
        {
          "internalType": "string",
          "name": "description",
          "type": "string"
        },
        {
          "internalType": "bool",
          "name": "approved",
          "type": "bool"
        },
        {
          "internalType": "uint256",
          "name": "approvalCount",
          "type": "uint256"
        },
        {
          "internalType": "address",
          "name": "creator",
          "type": "address"
        }
      ],
      "stateMutability": "view",
      "type": "function"
    },
    {
      "inputs": [
        {
          "internalType": "uint256",
          "name": "",
          "type": "uint256"
        }
      ],
      "name": "listOfLessons",
      "outputs": [
        {
          "internalType": "uint256",
          "name": "lessonId",
          "type": "uint256"
        },
        {
          "internalType": "string",
          "name": "lessonName",
          "type": "string"
        },
        {
          "internalType": "string",
          "name": "lessonContent",
          "type": "string"
        },
        {
          "internalType": "uint256",
          "name": "resourceCount",
          "type": "uint256"
        }
      ],
      "stateMutability": "view",
      "type": "function"
    },
    {
      "inputs": [
        {
          "internalType": "uint256",
          "name": "",
          "type": "uint256"
        }
      ],
      "name": "listOfQuestions",
      "outputs": [
        {
          "internalType": "uint256",
          "name": "questionId",
          "type": "uint256"
        },
        {
          "internalType": "string",
          "name": "questionText",
          "type": "string"
        }
      ],
      "stateMutability": "view",
      "type": "function"
    },
    {
      "inputs": [
        {
          "internalType": "uint256",
          "name": "",
          "type": "uint256"
        }
      ],
      "name": "listOfQuizzes",
      "outputs": [
        {
          "internalType": "uint256",
          "name": "quizId",
          "type": "uint256"
        },
        {
          "internalType": "string",
          "name": "quizTitle",
          "type": "string"
        }
      ],
      "stateMutability": "view",
      "type": "function"
    },
    {
      "inputs": [
        {
          "internalType": "uint256",
          "name": "",
          "type": "uint256"
        }
      ],
      "name": "listOfResource",
      "outputs": [
        {
          "internalType": "string",
          "name": "contentType",
          "type": "string"
        },
        {
          "internalType": "string",
          "name": "url",
          "type": "string"
        },
        {
          "internalType": "string",
          "name": "description",
          "type": "string"
        }
      ],
      "stateMutability": "view",
      "type": "function"
    },
    {
      "inputs": [
        {
          "internalType": "uint256",
          "name": "_chapterId",
          "type": "uint256"
        },
        {
          "internalType": "uint256",
          "name": "_lessonId",
          "type": "uint256"
        }
      ],
      "name": "markAsRead",
      "outputs": [
        {
          "internalType": "bool",
          "name": "",
          "type": "bool"
        }
      ],
      "stateMutability": "nonpayable",
      "type": "function"
    },
    {
      "inputs": [],
      "name": "name",
      "outputs": [
        {
          "internalType": "string",
          "name": "",
          "type": "string"
        }
      ],
      "stateMutability": "view",
      "type": "function"
    },
    {
      "inputs": [],
      "name": "nextChapterId",
      "outputs": [
        {
          "internalType": "uint256",
          "name": "",
          "type": "uint256"
        }
      ],
      "stateMutability": "view",
      "type": "function"
    },
    {
      "inputs": [],
      "name": "nextChoiceId",
      "outputs": [
        {
          "internalType": "uint256",
          "name": "",
          "type": "uint256"
        }
      ],
      "stateMutability": "view",
      "type": "function"
    },
    {
      "inputs": [],
      "name": "nextCourseId",
      "outputs": [
        {
          "internalType": "uint256",
          "name": "",
          "type": "uint256"
        }
      ],
      "stateMutability": "view",
      "type": "function"
    },
    {
      "inputs": [],
      "name": "nextCourseIdd",
      "outputs": [
        {
          "internalType": "uint256",
          "name": "",
          "type": "uint256"
        }
      ],
      "stateMutability": "view",
      "type": "function"
    },
    {
      "inputs": [],
      "name": "nextLessonId",
      "outputs": [
        {
          "internalType": "uint256",
          "name": "",
          "type": "uint256"
        }
      ],
      "stateMutability": "view",
      "type": "function"
    },
    {
      "inputs": [],
      "name": "nextQuestionId",
      "outputs": [
        {
          "internalType": "uint256",
          "name": "",
          "type": "uint256"
        }
      ],
      "stateMutability": "view",
      "type": "function"
    },
    {
      "inputs": [],
      "name": "nextQuizId",
      "outputs": [
        {
          "internalType": "uint256",
          "name": "",
          "type": "uint256"
        }
      ],
      "stateMutability": "view",
      "type": "function"
    },
    {
      "inputs": [
        {
          "internalType": "uint256",
          "name": "",
          "type": "uint256"
        }
      ],
      "name": "questions",
      "outputs": [
        {
          "internalType": "uint256",
          "name": "questionId",
          "type": "uint256"
        },
        {
          "internalType": "string",
          "name": "questionText",
          "type": "string"
        }
      ],
      "stateMutability": "view",
      "type": "function"
    },
    {
      "inputs": [
        {
          "internalType": "uint256",
          "name": "",
          "type": "uint256"
        }
      ],
      "name": "quizzes",
      "outputs": [
        {
          "internalType": "uint256",
          "name": "quizId",
          "type": "uint256"
        },
        {
          "internalType": "string",
          "name": "quizTitle",
          "type": "string"
        }
      ],
      "stateMutability": "view",
      "type": "function"
    },
    {
      "inputs": [
        {
          "internalType": "address",
          "name": "admin",
          "type": "address"
        }
      ],
      "name": "removeAdmin",
      "outputs": [],
      "stateMutability": "nonpayable",
      "type": "function"
    },
    {
      "inputs": [
        {
          "internalType": "bytes32",
          "name": "role",
          "type": "bytes32"
        },
        {
          "internalType": "address",
          "name": "callerConfirmation",
          "type": "address"
        }
      ],
      "name": "renounceRole",
      "outputs": [],
      "stateMutability": "nonpayable",
      "type": "function"
    },
    {
      "inputs": [
        {
          "internalType": "uint256",
          "name": "",
          "type": "uint256"
        },
        {
          "internalType": "address",
          "name": "",
          "type": "address"
        }
      ],
      "name": "reviews",
      "outputs": [
        {
          "internalType": "uint256",
          "name": "learnerAgency",
          "type": "uint256"
        },
        {
          "internalType": "uint256",
          "name": "criticalThinking",
          "type": "uint256"
        },
        {
          "internalType": "uint256",
          "name": "collaborativeLearning",
          "type": "uint256"
        },
        {
          "internalType": "uint256",
          "name": "reflectivePractice",
          "type": "uint256"
        },
        {
          "internalType": "uint256",
          "name": "adaptiveLearning",
          "type": "uint256"
        },
        {
          "internalType": "uint256",
          "name": "authenticLearning",
          "type": "uint256"
        },
        {
          "internalType": "uint256",
          "name": "technologyIntegration",
          "type": "uint256"
        },
        {
          "internalType": "uint256",
          "name": "learnerSupport",
          "type": "uint256"
        },
        {
          "internalType": "uint256",
          "name": "assessmentForLearning",
          "type": "uint256"
        },
        {
          "internalType": "uint256",
          "name": "engagementAndMotivation",
          "type": "uint256"
        },
        {
          "internalType": "bool",
          "name": "isSubmitted",
          "type": "bool"
        }
      ],
      "stateMutability": "view",
      "type": "function"
    },
    {
      "inputs": [
        {
          "internalType": "bytes32",
          "name": "role",
          "type": "bytes32"
        },
        {
          "internalType": "address",
          "name": "account",
          "type": "address"
        }
      ],
      "name": "revokeRole",
      "outputs": [],
      "stateMutability": "nonpayable",
      "type": "function"
    },
    {
      "inputs": [
        {
          "internalType": "uint256",
          "name": "_quizId",
          "type": "uint256"
        },
        {
          "internalType": "uint256[]",
          "name": "_answers",
          "type": "uint256[]"
        }
      ],
      "name": "submitQuiz",
      "outputs": [
        {
          "internalType": "uint256",
          "name": "score",
          "type": "uint256"
        }
      ],
      "stateMutability": "nonpayable",
      "type": "function"
    },
    {
      "inputs": [
        {
          "internalType": "uint256",
          "name": "courseId",
          "type": "uint256"
        },
        {
          "internalType": "uint256",
          "name": "learnerAgency",
          "type": "uint256"
        },
        {
          "internalType": "uint256",
          "name": "criticalThinking",
          "type": "uint256"
        },
        {
          "internalType": "uint256",
          "name": "collaborativeLearning",
          "type": "uint256"
        },
        {
          "internalType": "uint256",
          "name": "reflectivePractice",
          "type": "uint256"
        },
        {
          "internalType": "uint256",
          "name": "adaptiveLearning",
          "type": "uint256"
        },
        {
          "internalType": "uint256",
          "name": "authenticLearning",
          "type": "uint256"
        },
        {
          "internalType": "uint256",
          "name": "technologyIntegration",
          "type": "uint256"
        },
        {
          "internalType": "uint256",
          "name": "learnerSupport",
          "type": "uint256"
        },
        {
          "internalType": "uint256",
          "name": "assessmentForLearning",
          "type": "uint256"
        },
        {
          "internalType": "uint256",
          "name": "engagementAndMotivation",
          "type": "uint256"
        }
      ],
      "name": "submitReview",
      "outputs": [],
      "stateMutability": "nonpayable",
      "type": "function"
    },
    {
      "inputs": [
        {
          "internalType": "bytes4",
          "name": "interfaceId",
          "type": "bytes4"
        }
      ],
      "name": "supportsInterface",
      "outputs": [
        {
          "internalType": "bool",
          "name": "",
          "type": "bool"
        }
      ],
      "stateMutability": "view",
      "type": "function"
    },
    {
      "inputs": [],
      "name": "symbol",
      "outputs": [
        {
          "internalType": "string",
          "name": "",
          "type": "string"
        }
      ],
      "stateMutability": "view",
      "type": "function"
    },
    {
      "inputs": [],
      "name": "totalSupply",
      "outputs": [
        {
          "internalType": "uint256",
          "name": "",
          "type": "uint256"
        }
      ],
      "stateMutability": "view",
      "type": "function"
    },
    {
      "inputs": [
        {
          "internalType": "address",
          "name": "to",
          "type": "address"
        },
        {
          "internalType": "uint256",
          "name": "value",
          "type": "uint256"
        }
      ],
      "name": "transfer",
      "outputs": [
        {
          "internalType": "bool",
          "name": "",
          "type": "bool"
        }
      ],
      "stateMutability": "nonpayable",
      "type": "function"
    },
    {
      "inputs": [
        {
          "internalType": "address",
          "name": "from",
          "type": "address"
        },
        {
          "internalType": "address",
          "name": "to",
          "type": "address"
        },
        {
          "internalType": "uint256",
          "name": "value",
          "type": "uint256"
        }
      ],
      "name": "transferFrom",
      "outputs": [
        {
          "internalType": "bool",
          "name": "",
          "type": "bool"
        }
      ],
      "stateMutability": "nonpayable",
      "type": "function"
    },
    {
      "inputs": [
        {
          "internalType": "uint256",
          "name": "_courseId",
          "type": "uint256"
        }
      ],
      "name": "unEnroll",
      "outputs": [
        {
          "internalType": "bool",
          "name": "",
          "type": "bool"
        }
      ],
      "stateMutability": "nonpayable",
      "type": "function"
    },
    {
      "inputs": [
        {
          "internalType": "address",
          "name": "",
          "type": "address"
        },
        {
          "internalType": "uint256",
          "name": "",
          "type": "uint256"
        }
      ],
      "name": "userScores",
      "outputs": [
        {
          "internalType": "uint256",
          "name": "",
          "type": "uint256"
        }
      ],
      "stateMutability": "view",
      "type": "function"
    }
  ],
  "bytecode": "0x608060405234801561001057600080fd5b506040516192133803806192138339818101604052810190610032919061051b565b80806040518060400160405280600a81526020017f4142594120544f4b454e000000000000000000000000000000000000000000008152506040518060400160405280600681526020017f414259544b4e000000000000000000000000000000000000000000000000000081525081600390816100af9190610785565b5080600490816100bf9190610785565b505050600281511015610107576040517f08c379a00000000000000000000000000000000000000000000000000000000081526004016100fe906108b4565b60405180910390fd5b61011a6000801b336101a060201b60201c565b5060005b815181101561017f576101717fa49807205ce4d355092ef5a8a18f56e8913cf4a201fbe287825b095693c2177583838151811061015e5761015d6108d4565b5b60200260200101516101a060201b60201c565b50808060010191505061011e565b50506001600681905550610199600761029e60201b60201c565b5050610903565b60006101b283836102dd60201b60201c565b6102935760016005600085815260200190815260200160002060000160008473ffffffffffffffffffffffffffffffffffffffff1673ffffffffffffffffffffffffffffffffffffffff16815260200190815260200160002060006101000a81548160ff02191690831515021790555061023061034860201b60201c565b73ffffffffffffffffffffffffffffffffffffffff168273ffffffffffffffffffffffffffffffffffffffff16847f2f8788117e7eff1d82e926ec794901d17c78024a50270940304540a733656f0d60405160405180910390a460019050610298565b600090505b92915050565b60018160000181905550600181600101819055506001816002018190555060018160030181905550600181600401819055506001816005018190555050565b60006005600084815260200190815260200160002060000160008373ffffffffffffffffffffffffffffffffffffffff1673ffffffffffffffffffffffffffffffffffffffff16815260200190815260200160002060009054906101000a900460ff16905092915050565b600033905090565b6000604051905090565b600080fd5b600080fd5b600080fd5b6000601f19601f8301169050919050565b7f4e487b7100000000000000000000000000000000000000000000000000000000600052604160045260246000fd5b6103b282610369565b810181811067ffffffffffffffff821117156103d1576103d061037a565b5b80604052505050565b60006103e4610350565b90506103f082826103a9565b919050565b600067ffffffffffffffff8211156104105761040f61037a565b5b602082029050602081019050919050565b600080fd5b600073ffffffffffffffffffffffffffffffffffffffff82169050919050565b600061045182610426565b9050919050565b61046181610446565b811461046c57600080fd5b50565b60008151905061047e81610458565b92915050565b6000610497610492846103f5565b6103da565b905080838252602082019050602084028301858111156104ba576104b9610421565b5b835b818110156104e357806104cf888261046f565b8452602084019350506020810190506104bc565b5050509392505050565b600082601f83011261050257610501610364565b5b8151610512848260208601610484565b91505092915050565b6000602082840312156105315761053061035a565b5b600082015167ffffffffffffffff81111561054f5761054e61035f565b5b61055b848285016104ed565b91505092915050565b600081519050919050565b7f4e487b7100000000000000000000000000000000000000000000000000000000600052602260045260246000fd5b600060028204905060018216806105b657607f821691505b6020821081036105c9576105c861056f565b5b50919050565b60008190508160005260206000209050919050565b60006020601f8301049050919050565b600082821b905092915050565b6000600883026106317fffffffffffffffffffffffffffffffffffffffffffffffffffffffffffffffff826105f4565b61063b86836105f4565b95508019841693508086168417925050509392505050565b6000819050919050565b6000819050919050565b600061068261067d61067884610653565b61065d565b610653565b9050919050565b6000819050919050565b61069c83610667565b6106b06106a882610689565b848454610601565b825550505050565b600090565b6106c56106b8565b6106d0818484610693565b505050565b5b818110156106f4576106e96000826106bd565b6001810190506106d6565b5050565b601f8211156107395761070a816105cf565b610713846105e4565b81016020851015610722578190505b61073661072e856105e4565b8301826106d5565b50505b505050565b600082821c905092915050565b600061075c6000198460080261073e565b1980831691505092915050565b6000610775838361074b565b9150826002028217905092915050565b61078e82610564565b67ffffffffffffffff8111156107a7576107a661037a565b5b6107b1825461059e565b6107bc8282856106f8565b600060209050601f8311600181146107ef57600084156107dd578287015190505b6107e78582610769565b86555061084f565b601f1984166107fd866105cf565b60005b8281101561082557848901518255600182019150602085019450602081019050610800565b86831015610842578489015161083e601f89168261074b565b8355505b6001600288020188555050505b505050505050565b600082825260208201905092915050565b7f4174206c6561737420322061646d696e73206172652072657175697265640000600082015250565b600061089e601e83610857565b91506108a982610868565b602082019050919050565b600060208201905081810360008301526108cd81610891565b9050919050565b7f4e487b7100000000000000000000000000000000000000000000000000000000600052603260045260246000fd5b618901806109126000396000f3fe608060405234801561001057600080fd5b50600436106104805760003560e01c80637048027511610257578063ac957c6311610146578063ddfc79fb116100c3578063e863975111610087578063e86397511461104a578063ea0978ad1461107a578063eb264b9c146110aa578063f57d585b146110c8578063ffabc673146110f857610480565b8063ddfc79fb14610f7c578063de5dc3a014610fae578063ded5c18d14610fde578063e09bcae314610ffc578063e503f1081461102c57610480565b8063c97683151161010a578063c976831514610eb2578063cc44e73714610ee2578063d547741f14610f12578063d93f2caa14610f2e578063dd62ed3e14610f4c57610480565b8063ac957c6314610dd8578063bfd2f4c514610df6578063c12804fb14610e29578063c7954e4c14610e63578063c90c884d14610e8157610480565b80639560bc85116101d4578063a217fddf11610198578063a217fddf14610cf9578063a26a795314610d17578063a3ef204114610d47578063a9059cbb14610d78578063aa95da3a14610da857610480565b80639560bc8514610c3f57806395d89b4114610c5d5780639dad8d2214610c7b578063a1051dfe14610cab578063a14ecbdf14610cdb57610480565b80637d83daf21161021b5780637d83daf214610b72578063846f815214610b9057806388409afa14610bae57806388a8270f14610bdf57806391d1485414610c0f57610480565b80637048027514610ace57806370a0823114610aea5780637528499814610b1a57806375b238fc14610b365780637ce1785214610b5457610480565b8063313ce567116103735780634fb95abd116102f05780635cc2a14d116102b45780635cc2a14d146109f75780636605515914610a27578063663b3e2214610a455780636b000fa714610a7b5780636fdb67f714610a9957610480565b80634fb95abd1461092b57806351d93c811461095c57806358a3fa251461098d578063599c5533146109a95780635b680a45146109c757610480565b806334f9b3fb1161033757806334f9b3fb1461087557806336568abe146108915780633693dcfa146108ad5780634d42ef48146108cb5780634dd84b3c146108fb57610480565b8063313ce567146107a857806331b1b978146107c657806332cb6b0c146107f757806334b159dd1461081557806334ed4bdb1461084557610480565b8063248a9ca3116104015780632990db7c116103c55780632990db7c146106d657806329a0be651461070b5780632aac61ae146107295780632ec63a0e1461075c5780632f2ff15d1461078c57610480565b8063248a9ca31461060957806324d7806c14610639578063274202f01461066957806327ff622314610687578063295b825a146106a557610480565b806313e858111161044857806313e858111461053f5780631785f53c1461056f57806318160ddd1461058b57806320bd0316146105a957806323b872dd146105d957610480565b806301ffc9a71461048557806304e48bd1146104b5578063057f46bb146104d357806306fdde03146104f1578063095ea7b31461050f575b600080fd5b61049f600480360381019061049a9190616292565b611128565b6040516104ac91906162da565b60405180910390f35b6104bd6111a2565b6040516104ca9190616540565b60405180910390f35b6104db6114a4565b6040516104e89190616571565b60405180910390f35b6104f96114aa565b60405161050691906165d6565b60405180910390f35b61052960048036038101906105249190616650565b61153c565b60405161053691906162da565b60405180910390f35b61055960048036038101906105549190616690565b61155f565b60405161056691906162da565b60405180910390f35b610589600480360381019061058491906166d0565b61158e565b005b6105936115c9565b6040516105a09190616571565b60405180910390f35b6105c360048036038101906105be91906166fd565b6115d3565b6040516105d091906162da565b60405180910390f35b6105f360048036038101906105ee919061672a565b61174a565b60405161060091906162da565b60405180910390f35b610623600480360381019061061e91906167b3565b611779565b60405161063091906167ef565b60405180910390f35b610653600480360381019061064e91906166d0565b611799565b60405161066091906162da565b60405180910390f35b6106716117cc565b60405161067e9190616571565b60405180910390f35b61068f6117f4565b60405161069c9190616571565b60405180910390f35b6106bf60048036038101906106ba91906166fd565b6117f9565b6040516106cd92919061680a565b60405180910390f35b6106f060048036038101906106eb91906166fd565b6118b5565b60405161070296959493929190616849565b60405180910390f35b610713611a2e565b6040516107209190616571565b60405180910390f35b610743600480360381019061073e91906166fd565b611a34565b60405161075394939291906168b8565b60405180910390f35b6107766004803603810190610771919061690b565b611b84565b60405161078391906162da565b60405180910390f35b6107a660048036038101906107a1919061694b565b611d29565b005b6107b0611d4b565b6040516107bd91906169a7565b60405180910390f35b6107e060048036038101906107db91906166fd565b611d54565b6040516107ee92919061680a565b60405180910390f35b6107ff611e00565b60405161080c9190616571565b60405180910390f35b61082f600480360381019061082a9190616690565b611e10565b60405161083c91906162da565b60405180910390f35b61085f600480360381019061085a91906166d0565b611e3f565b60405161086c9190616571565b60405180910390f35b61088f600480360381019061088a9190616af7565b611e5d565b005b6108ab60048036038101906108a6919061694b565b611f9b565b005b6108b5612016565b6040516108c291906167ef565b60405180910390f35b6108e560048036038101906108e0919061690b565b61203a565b6040516108f291906165d6565b60405180910390f35b61091560048036038101906109109190616690565b6120f3565b60405161092291906162da565b60405180910390f35b61094560048036038101906109409190616b66565b612122565b604051610953929190616cdf565b60405180910390f35b610976600480360381019061097191906166fd565b612475565b60405161098492919061680a565b60405180910390f35b6109a760048036038101906109a29190616d0f565b612531565b005b6109b1612855565b6040516109be9190616571565b60405180910390f35b6109e160048036038101906109dc9190616650565b61285a565b6040516109ee9190616571565b60405180910390f35b610a116004803603810190610a0c9190616e03565b61287f565b604051610a1e91906162da565b60405180910390f35b610a2f61296b565b604051610a3c9190616571565b60405180910390f35b610a5f6004803603810190610a5a91906166fd565b612971565b604051610a729796959493929190616e5f565b60405180910390f35b610a83612b6b565b604051610a909190616571565b60405180910390f35b610ab36004803603810190610aae91906166fd565b612b71565b604051610ac596959493929190616849565b60405180910390f35b610ae86004803603810190610ae391906166d0565b612cfa565b005b610b046004803603810190610aff91906166d0565b612d53565b604051610b119190616571565b60405180910390f35b610b346004803603810190610b2f91906166fd565b612d9b565b005b610b3e612fb5565b604051610b4b91906167ef565b60405180910390f35b610b5c612fd9565b604051610b699190616571565b60405180910390f35b610b7a612fe5565b604051610b879190616571565b60405180910390f35b610b98612feb565b604051610ba59190616571565b60405180910390f35b610bc86004803603810190610bc391906166fd565b612ff7565b604051610bd692919061680a565b60405180910390f35b610bf96004803603810190610bf4919061690b565b6130a3565b604051610c0691906162da565b60405180910390f35b610c296004803603810190610c24919061694b565b613324565b604051610c3691906162da565b60405180910390f35b610c4761338f565b604051610c549190616571565b60405180910390f35b610c6561339b565b604051610c7291906165d6565b60405180910390f35b610c956004803603810190610c9091906166fd565b61342d565b604051610ca291906162da565b60405180910390f35b610cc56004803603810190610cc0919061690b565b613785565b604051610cd291906162da565b60405180910390f35b610ce3613a4b565b604051610cf09190616571565b60405180910390f35b610d01613a51565b604051610d0e91906167ef565b60405180910390f35b610d316004803603810190610d2c9190616ee3565b613a58565b604051610d3e91906162da565b60405180910390f35b610d616004803603810190610d5c91906166fd565b613e2f565b604051610d6f92919061680a565b60405180910390f35b610d926004803603810190610d8d9190616650565b613edb565b604051610d9f91906162da565b60405180910390f35b610dc26004803603810190610dbd919061690b565b613efe565b604051610dcf91906165d6565b60405180910390f35b610de0613fb7565b604051610ded9190616571565b60405180910390f35b610e106004803603810190610e0b91906166fd565b613fbc565b604051610e2094939291906168b8565b60405180910390f35b610e436004803603810190610e3e9190616690565b6140fc565b604051610e5a9b9a99989796959493929190616f5b565b60405180910390f35b610e6b614170565b604051610e789190616571565b60405180910390f35b610e9b6004803603810190610e9691906166fd565b61417a565b604051610ea992919061680a565b60405180910390f35b610ecc6004803603810190610ec79190616690565b614236565b604051610ed991906162da565b60405180910390f35b610efc6004803603810190610ef791906171ae565b614265565b604051610f0991906162da565b60405180910390f35b610f2c6004803603810190610f27919061694b565b614489565b005b610f366144ab565b604051610f439190616571565b60405180910390f35b610f666004803603810190610f619190617269565b6144b7565b604051610f739190616571565b60405180910390f35b610f966004803603810190610f9191906166fd565b61453e565b604051610fa5939291906172a9565b60405180910390f35b610fc86004803603810190610fc391906173b8565b614710565b604051610fd59190616571565b60405180910390f35b610fe66149ba565b604051610ff39190616571565b60405180910390f35b6110166004803603810190611011919061690b565b6149c7565b60405161102391906162da565b60405180910390f35b611034614c32565b6040516110419190616571565b60405180910390f35b611064600480360381019061105f9190616af7565b614c38565b60405161107191906162da565b60405180910390f35b611094600480360381019061108f919061690b565b614d26565b6040516110a191906162da565b60405180910390f35b6110b2614f9d565b6040516110bf9190616571565b60405180910390f35b6110e260048036038101906110dd91906166fd565b614fa3565b6040516110ef91906162da565b60405180910390f35b611112600480360381019061110d9190616650565b61517f565b60405161111f91906162da565b60405180910390f35b60007f7965db0b000000000000000000000000000000000000000000000000000000007bffffffffffffffffffffffffffffffffffffffffffffffffffffffff1916827bffffffffffffffffffffffffffffffffffffffffffffffffffffffff1916148061119b575061119a826151ae565b5b9050919050565b6060600060208054905067ffffffffffffffff8111156111c5576111c46169cc565b5b6040519080825280602002602001820160405280156111fe57816020015b6111eb615e5f565b8152602001906001900390816111e35790505b50905060005b60208054905081101561149c576040518060c00160405280602083815481106112305761122f617414565b5b90600052602060002090600602016000015481526020016020838154811061125b5761125a617414565b5b9060005260206000209060060201600101805461127790617472565b80601f01602080910402602001604051908101604052809291908181526020018280546112a390617472565b80156112f05780601f106112c5576101008083540402835291602001916112f0565b820191906000526020600020905b8154815290600101906020018083116112d357829003601f168201915b505050505081526020016020838154811061130e5761130d617414565b5b9060005260206000209060060201600201805461132a90617472565b80601f016020809104026020016040519081016040528092919081815260200182805461135690617472565b80156113a35780601f10611378576101008083540402835291602001916113a3565b820191906000526020600020905b81548152906001019060200180831161138657829003601f168201915b50505050508152602001602083815481106113c1576113c0617414565b5b906000526020600020906006020160030160009054906101000a900460ff1615158152602001602083815481106113fb576113fa617414565b5b90600052602060002090600602016004015481526020016020838154811061142657611425617414565b5b906000526020600020906006020160050160009054906101000a900473ffffffffffffffffffffffffffffffffffffffff1673ffffffffffffffffffffffffffffffffffffffff1681525082828151811061148457611483617414565b5b60200260200101819052508080600101915050611204565b508091505090565b60105481565b6060600380546114b990617472565b80601f01602080910402602001604051908101604052809291908181526020018280546114e590617472565b80156115325780601f1061150757610100808354040283529160200191611532565b820191906000526020600020905b81548152906001019060200180831161151557829003601f168201915b5050505050905090565b600080611547615218565b9050611554818585615220565b600191505092915050565b60276020528160005260406000206020528060005260406000206000915091509054906101000a900460ff1681565b6000801b61159b81615232565b6115c57fa49807205ce4d355092ef5a8a18f56e8913cf4a201fbe287825b095693c2177583614489565b5050565b6000600254905090565b60006115dd615246565b601f600083815260200190815260200160002060003373ffffffffffffffffffffffffffffffffffffffff1673ffffffffffffffffffffffffffffffffffffffff16815260200190815260200160002060009054906101000a900460ff1661167a576040517f08c379a000000000000000000000000000000000000000000000000000000000815260040161167190617515565b60405180910390fd5b6000601f600084815260200190815260200160002060003373ffffffffffffffffffffffffffffffffffffffff1673ffffffffffffffffffffffffffffffffffffffff16815260200190815260200160002060006101000a81548160ff0219169083151502179055506116f533671bc16d674ec8000061528c565b3373ffffffffffffffffffffffffffffffffffffffff16827f9b244c565b926d7f4e915b69f3a5c6afc2231322d0d44e821076ad8879d0d68360405160405180910390a3600190506117456152b3565b919050565b600080611755615218565b90506117628582856152bd565b61176d858585615351565b60019150509392505050565b600060056000838152602001908152602001600020600101549050919050565b60006117c57fa49807205ce4d355092ef5a8a18f56e8913cf4a201fbe287825b095693c2177583613324565b9050919050565b6064600f6b204fce5e3e250261100000006117e79190617564565b6117f191906175d5565b81565b606481565b6024818154811061180957600080fd5b906000526020600020906003020160009150905080600001549080600101805461183290617472565b80601f016020809104026020016040519081016040528092919081815260200182805461185e90617472565b80156118ab5780601f10611880576101008083540402835291602001916118ab565b820191906000526020600020905b81548152906001019060200180831161188e57829003601f168201915b5050505050905082565b60156020528060005260406000206000915090508060000154908060010180546118de90617472565b80601f016020809104026020016040519081016040528092919081815260200182805461190a90617472565b80156119575780601f1061192c57610100808354040283529160200191611957565b820191906000526020600020905b81548152906001019060200180831161193a57829003601f168201915b50505050509080600201805461196c90617472565b80601f016020809104026020016040519081016040528092919081815260200182805461199890617472565b80156119e55780601f106119ba576101008083540402835291602001916119e5565b820191906000526020600020905b8154815290600101906020018083116119c857829003601f168201915b5050505050908060030160009054906101000a900460ff16908060040154908060050160009054906101000a900473ffffffffffffffffffffffffffffffffffffffff16905086565b60115481565b60228181548110611a4457600080fd5b9060005260206000209060220201600091509050806000015490806001018054611a6d90617472565b80601f0160208091040260200160405190810160405280929190818152602001828054611a9990617472565b8015611ae65780601f10611abb57610100808354040283529160200191611ae6565b820191906000526020600020905b815481529060010190602001808311611ac957829003601f168201915b505050505090806002018054611afb90617472565b80601f0160208091040260200160405190810160405280929190818152602001828054611b2790617472565b8015611b745780601f10611b4957610100808354040283529160200191611b74565b820191906000526020600020905b815481529060010190602001808311611b5757829003601f168201915b5050505050908060210154905084565b60006027600083815260200190815260200160002060003373ffffffffffffffffffffffffffffffffffffffff1673ffffffffffffffffffffffffffffffffffffffff16815260200190815260200160002060009054906101000a900460ff1615611c24576040517f08c379a0000000000000000000000000000000000000000000000000000000008152600401611c1b90617678565b60405180910390fd5b6000601b60008481526020019081526020016000206000015403611c7d576040517f08c379a0000000000000000000000000000000000000000000000000000000008152600401611c74906176e4565b60405180910390fd5b60016027600084815260200190815260200160002060003373ffffffffffffffffffffffffffffffffffffffff1673ffffffffffffffffffffffffffffffffffffffff16815260200190815260200160002060006101000a81548160ff02191690831515021790555081837f2479aa0d18311382446edb0fa11d0dbd5bab1be78b1e60b343ffe4d2a5f798ad33604051611d179190617704565b60405180910390a36001905092915050565b611d3282611779565b611d3b81615232565b611d458383615445565b50505050565b60006012905090565b601e602052806000526040600020600091509050806000015490806001018054611d7d90617472565b80601f0160208091040260200160405190810160405280929190818152602001828054611da990617472565b8015611df65780601f10611dcb57610100808354040283529160200191611df6565b820191906000526020600020905b815481529060010190602001808311611dd957829003601f168201915b5050505050905082565b6b204fce5e3e2502611000000081565b60296020528160005260406000206020528060005260406000206000915091509054906101000a900460ff1681565b60176020528060005260406000206000915090508060000154905081565b7fadb22091b155738d2e889eb96f509d2a7c93234236b30400927feb4a6a15ab00611e8781615232565b6000601d60008581526020019081526020016000206000015403611ee0576040517f08c379a0000000000000000000000000000000000000000000000000000000008152600401611ed79061776b565b60405180910390fd5b82601d60008581526020019081526020016000206000015414611f38576040517f08c379a0000000000000000000000000000000000000000000000000000000008152600401611f2f906177d7565b60405180910390fd5b81601d60008581526020019081526020016000206001019081611f5b91906179a3565b5082847fad5fab99ac4d99e1061fd121b36537d5213be564a3dc6cc383897dc355e89ff584604051611f8d91906165d6565b60405180910390a350505050565b611fa3615218565b73ffffffffffffffffffffffffffffffffffffffff168173ffffffffffffffffffffffffffffffffffffffff1614612007576040517f6697b23200000000000000000000000000000000000000000000000000000000815260040160405180910390fd5b6120118282615537565b505050565b7fadb22091b155738d2e889eb96f509d2a7c93234236b30400927feb4a6a15ab0081565b601a602052816000526040600020818154811061205657600080fd5b9060005260206000200160009150915050805461207290617472565b80601f016020809104026020016040519081016040528092919081815260200182805461209e90617472565b80156120eb5780601f106120c0576101008083540402835291602001916120eb565b820191906000526020600020905b8154815290600101906020018083116120ce57829003601f168201915b505050505081565b60266020528160005260406000206020528060005260406000206000915091509054906101000a900460ff1681565b600061212c615ead565b601f600088815260200190815260200160002060003373ffffffffffffffffffffffffffffffffffffffff1673ffffffffffffffffffffffffffffffffffffffff16815260200190815260200160002060009054906101000a900460ff166121c9576040517f08c379a00000000000000000000000000000000000000000000000000000000081526004016121c090617ae7565b60405180910390fd5b6026600088815260200190815260200160002060003373ffffffffffffffffffffffffffffffffffffffff1673ffffffffffffffffffffffffffffffffffffffff16815260200190815260200160002060009054906101000a900460ff1615612267576040517f08c379a000000000000000000000000000000000000000000000000000000000815260040161225e90617b79565b60405180910390fd5b60016026600089815260200190815260200160002060003373ffffffffffffffffffffffffffffffffffffffff1673ffffffffffffffffffffffffffffffffffffffff16815260200190815260200160002060006101000a81548160ff0219169083151502179055506122e233671bc16d674ec8000061562a565b50600087878787874260405160200161230096959493929190617bf6565b6040516020818303038152906040528051906020012060001c905060006040518060e001604052808381526020018a81526020018981526020018781526020018681526020018881526020013373ffffffffffffffffffffffffffffffffffffffff16815250905080602a6000848152602001908152602001600020600082015181600001556020820151816001015560408201518160020190816123a591906179a3565b5060608201518160030190816123bb91906179a3565b506080820151816004015560a08201518160050190816123db91906179a3565b5060c08201518160060160006101000a81548173ffffffffffffffffffffffffffffffffffffffff021916908373ffffffffffffffffffffffffffffffffffffffff1602179055509050507f95ad50d6596337460bdce4b8db70313463e0615be9266b573e781327aef44e098288888b60405161245b9493929190617c5a565b60405180910390a181819350935050509550959350505050565b6025818154811061248557600080fd5b90600052602060002090600302016000915090508060000154908060010180546124ae90617472565b80601f01602080910402602001604051908101604052809291908181526020018280546124da90617472565b80156125275780601f106124fc57610100808354040283529160200191612527565b820191906000526020600020905b81548152906001019060200180831161250a57829003601f168201915b5050505050905082565b7fa49807205ce4d355092ef5a8a18f56e8913cf4a201fbe287825b095693c2177561255b81615232565b601660008d815260200190815260200160002060003373ffffffffffffffffffffffffffffffffffffffff1673ffffffffffffffffffffffffffffffffffffffff168152602001908152602001600020600a0160009054906101000a900460ff16156125fc576040517f08c379a00000000000000000000000000000000000000000000000000000000081526004016125f390617d26565b60405180910390fd5b600a8b1115801561260e5750600a8a11155b801561261b5750600a8911155b80156126285750600a8811155b80156126355750600a8711155b80156126425750600a8611155b801561264f5750600a8511155b801561265c5750600a8411155b80156126695750600a8311155b80156126765750600a8211155b6126b5576040517f08c379a00000000000000000000000000000000000000000000000000000000081526004016126ac90617d92565b60405180910390fd5b6040518061016001604052808c81526020018b81526020018a815260200189815260200188815260200187815260200186815260200185815260200184815260200183815260200160011515815250601660008e815260200190815260200160002060003373ffffffffffffffffffffffffffffffffffffffff1673ffffffffffffffffffffffffffffffffffffffff168152602001908152602001600020600082015181600001556020820151816001015560408201518160020155606082015181600301556080820151816004015560a0820151816005015560c0820151816006015560e082015181600701556101008201518160080155610120820151816009015561014082015181600a0160006101000a81548160ff0219169083151502179055509050506050612838601660008f815260200190815260200160002060003373ffffffffffffffffffffffffffffffffffffffff1673ffffffffffffffffffffffffffffffffffffffff168152602001908152602001600020615717565b10612847576128468c612d9b565b5b505050505050505050505050565b600281565b6028602052816000526040600020602052806000526040600020600091509150505481565b60007fadb22091b155738d2e889eb96f509d2a7c93234236b30400927feb4a6a15ab006128ab81615232565b6000601560008681526020019081526020016000206000015403612904576040517f08c379a00000000000000000000000000000000000000000000000000000000081526004016128fb90617dfe565b60405180910390fd5b8260156000868152602001908152602001600020600101908161292791906179a3565b50837f5c8c98b6b26236296c856fae8a5ca0c793bbb81c5f8b7c9a9ab99358f53fb0c08460405161295891906165d6565b60405180910390a2600191505092915050565b600e5481565b602a6020528060005260406000206000915090508060000154908060010154908060020180546129a090617472565b80601f01602080910402602001604051908101604052809291908181526020018280546129cc90617472565b8015612a195780601f106129ee57610100808354040283529160200191612a19565b820191906000526020600020905b8154815290600101906020018083116129fc57829003601f168201915b505050505090806003018054612a2e90617472565b80601f0160208091040260200160405190810160405280929190818152602001828054612a5a90617472565b8015612aa75780601f10612a7c57610100808354040283529160200191612aa7565b820191906000526020600020905b815481529060010190602001808311612a8a57829003601f168201915b505050505090806004015490806005018054612ac290617472565b80601f0160208091040260200160405190810160405280929190818152602001828054612aee90617472565b8015612b3b5780601f10612b1057610100808354040283529160200191612b3b565b820191906000526020600020905b815481529060010190602001808311612b1e57829003601f168201915b5050505050908060060160009054906101000a900473ffffffffffffffffffffffffffffffffffffffff16905087565b60145481565b60208181548110612b8157600080fd5b9060005260206000209060060201600091509050806000015490806001018054612baa90617472565b80601f0160208091040260200160405190810160405280929190818152602001828054612bd690617472565b8015612c235780601f10612bf857610100808354040283529160200191612c23565b820191906000526020600020905b815481529060010190602001808311612c0657829003601f168201915b505050505090806002018054612c3890617472565b80601f0160208091040260200160405190810160405280929190818152602001828054612c6490617472565b8015612cb15780601f10612c8657610100808354040283529160200191612cb1565b820191906000526020600020905b815481529060010190602001808311612c9457829003601f168201915b5050505050908060030160009054906101000a900460ff16908060040154908060050160009054906101000a900473ffffffffffffffffffffffffffffffffffffffff16905086565b7fa49807205ce4d355092ef5a8a18f56e8913cf4a201fbe287825b095693c21775612d2481615232565b612d4e7fa49807205ce4d355092ef5a8a18f56e8913cf4a201fbe287825b095693c2177583615445565b505050565b60008060008373ffffffffffffffffffffffffffffffffffffffff1673ffffffffffffffffffffffffffffffffffffffff168152602001908152602001600020549050919050565b7fa49807205ce4d355092ef5a8a18f56e8913cf4a201fbe287825b095693c21775612dc581615232565b60006015600084815260200190815260200160002090508060030160009054906101000a900460ff1615612e2e576040517f08c379a0000000000000000000000000000000000000000000000000000000008152600401612e2590617e6a565b60405180910390fd5b601860003373ffffffffffffffffffffffffffffffffffffffff1673ffffffffffffffffffffffffffffffffffffffff168152602001908152602001600020600084815260200190815260200160002060009054906101000a900460ff1615612ecc576040517f08c379a0000000000000000000000000000000000000000000000000000000008152600401612ec390617efc565b60405180910390fd5b6001601860003373ffffffffffffffffffffffffffffffffffffffff1673ffffffffffffffffffffffffffffffffffffffff168152602001908152602001600020600085815260200190815260200160002060006101000a81548160ff021916908315150217905550806004016000815480929190612f4a90617f1c565b91905055506002816004015410612fb05760018160030160006101000a81548160ff021916908315150217905550612fae8160050160009054906101000a900473ffffffffffffffffffffffffffffffffffffffff16674563918244f4000061562a565b505b505050565b7fa49807205ce4d355092ef5a8a18f56e8913cf4a201fbe287825b095693c2177581565b671bc16d674ec8000081565b600f5481565b671bc16d674ec8000081565b601d60205280600052604060002060009150905080600001549080600101805461302090617472565b80601f016020809104026020016040519081016040528092919081815260200182805461304c90617472565b80156130995780601f1061306e57610100808354040283529160200191613099565b820191906000526020600020905b81548152906001019060200180831161307c57829003601f168201915b5050505050905082565b60007fadb22091b155738d2e889eb96f509d2a7c93234236b30400927feb4a6a15ab006130cf81615232565b6000601d60008681526020019081526020016000206000015403613128576040517f08c379a000000000000000000000000000000000000000000000000000000000815260040161311f90617fb0565b60405180910390fd5b6000601e60008581526020019081526020016000206000015403613181576040517f08c379a00000000000000000000000000000000000000000000000000000000081526004016131789061801c565b60405180910390fd5b60005b6025805490508110156132ac5783602582815481106131a6576131a5617414565b5b9060005260206000209060030201600001540361329f57602560016025805490506131d1919061803c565b815481106131e2576131e1617414565b5b90600052602060002090600302016025828154811061320457613203617414565b5b906000526020600020906003020160008201548160000155600182018160010190816132309190618086565b506002820181600201908054613247929190615f00565b50905050602580548061325d5761325c61816e565b5b600190038181906000526020600020906003020160008082016000905560018201600061328a9190615f9a565b60028201600061329a9190615fda565b505090555b8080600101915050613184565b50601e60008481526020019081526020016000206000808201600090556001820160006132d99190615f9a565b6002820160006132e99190615fda565b505082847ff084fa19916f58d56801346cc04ca2d2c28a5531dc7db17ebd2323685518b12660405160405180910390a3600191505092915050565b60006005600084815260200190815260200160002060000160008373ffffffffffffffffffffffffffffffffffffffff1673ffffffffffffffffffffffffffffffffffffffff16815260200190815260200160002060009054906101000a900460ff16905092915050565b670de0b6b3a764000081565b6060600480546133aa90617472565b80601f01602080910402602001604051908101604052809291908181526020018280546133d690617472565b80156134235780601f106133f857610100808354040283529160200191613423565b820191906000526020600020905b81548152906001019060200180831161340657829003601f168201915b5050505050905090565b60007fadb22091b155738d2e889eb96f509d2a7c93234236b30400927feb4a6a15ab0061345981615232565b60006015600085815260200190815260200160002060000154036134b2576040517f08c379a00000000000000000000000000000000000000000000000000000000081526004016134a9906181e9565b60405180910390fd5b60005b60208054905081116136c15783602082815481106134d6576134d5617414565b5b906000526020600020906006020160000154036136ae5760206001602080549050613501919061803c565b8154811061351257613511617414565b5b90600052602060002090600602016020828154811061353457613533617414565b5b906000526020600020906006020160008201548160000155600182018160010190816135609190618086565b50600282018160020190816135759190618086565b506003820160009054906101000a900460ff168160030160006101000a81548160ff021916908315150217905550600482015481600401556005820160009054906101000a900473ffffffffffffffffffffffffffffffffffffffff168160050160006101000a81548173ffffffffffffffffffffffffffffffffffffffff021916908373ffffffffffffffffffffffffffffffffffffffff16021790555090505060208054806136295761362861816e565b5b60019003818190600052602060002090600602016000808201600090556001820160006136569190615f9a565b6002820160006136669190615f9a565b6003820160006101000a81549060ff021916905560048201600090556005820160006101000a81549073ffffffffffffffffffffffffffffffffffffffff0219169055505090555b80806136b990617f1c565b9150506134b5565b50601560008481526020019081526020016000206000808201600090556001820160006136ee9190615f9a565b6002820160006136fe9190615f9a565b6003820160006101000a81549060ff021916905560048201600090556005820160006101000a81549073ffffffffffffffffffffffffffffffffffffffff02191690555050827f50d94198096be9c8aad282f822173f9212251c4d4dc2731fa944f3941749a78d336040516137739190617704565b60405180910390a26001915050919050565b60007fadb22091b155738d2e889eb96f509d2a7c93234236b30400927feb4a6a15ab006137b181615232565b600060196000868152602001908152602001600020600001540361380a576040517f08c379a000000000000000000000000000000000000000000000000000000000815260040161380190618255565b60405180910390fd5b6000601b60008581526020019081526020016000206000015403613863576040517f08c379a000000000000000000000000000000000000000000000000000000000815260040161385a906176e4565b60405180910390fd5b60005b60218054905081116139bb5783601b600083815260200190815260200160002060000154036139a857602260016022805490506138a3919061803c565b815481106138b4576138b3617414565b5b9060005260206000209060220201602282815481106138d6576138d5617414565b5b906000526020600020906022020160008201548160000155600182018160010190816139029190618086565b50600282018160020190816139179190618086565b50600382018160030190600a61392e929190615ffe565b5060218201548160210155905050602280548061394e5761394d61816e565b5b600190038181906000526020600020906022020160008082016000905560018201600061397b9190615f9a565b60028201600061398b9190615f9a565b60038201600061399b9190616080565b6021820160009055505090555b80806139b390617f1c565b915050613866565b50601b60008481526020019081526020016000206000808201600090556001820160006139e89190615f9a565b6002820160006139f89190615f9a565b600382016000613a089190616080565b6021820160009055505082847f1cdc2ff39034471047dd6d36512a12b5c2e9a30137b2e45daecd05383221d97b60405160405180910390a3600191505092915050565b600d5481565b6000801b81565b60008073ffffffffffffffffffffffffffffffffffffffff1660156000600f54815260200190815260200160002060050160009054906101000a900473ffffffffffffffffffffffffffffffffffffffff1673ffffffffffffffffffffffffffffffffffffffff1614613b00576040517f08c379a0000000000000000000000000000000000000000000000000000000008152600401613af7906182c1565b60405180910390fd5b60006040518060c00160405280600f548152602001858152602001848152602001600015158152602001600081526020013373ffffffffffffffffffffffffffffffffffffffff1681525090508060156000600f548152602001908152602001600020600082015181600001556020820151816001019081613b8291906179a3565b506040820151816002019081613b9891906179a3565b5060608201518160030160006101000a81548160ff0219169083151502179055506080820151816004015560a08201518160050160006101000a81548173ffffffffffffffffffffffffffffffffffffffff021916908373ffffffffffffffffffffffffffffffffffffffff1602179055509050506020819080600181540180825580915050600190039060005260206000209060060201600090919091909150600082015181600001556020820151816001019081613c5891906179a3565b506040820151816002019081613c6e91906179a3565b5060608201518160030160006101000a81548160ff0219169083151502179055506080820151816004015560a08201518160050160006101000a81548173ffffffffffffffffffffffffffffffffffffffff021916908373ffffffffffffffffffffffffffffffffffffffff1602179055505050600e6000815480929190613cf590617f1c565b91905055506001601760003373ffffffffffffffffffffffffffffffffffffffff1673ffffffffffffffffffffffffffffffffffffffff1681526020019081526020016000206000016000828254613d4d91906182e1565b92505081905550600f6000815480929190613d6790617f1c565b9190505550613d967fadb22091b155738d2e889eb96f509d2a7c93234236b30400927feb4a6a15ab0033615445565b5083604051613da59190618315565b60405180910390206001600f54613dbc919061803c565b7f9c93a42b217373d37e6c66ace0a67fe1fa1f78c93164b62417de69c48c0f67e2601560006001600f54613df0919061803c565b815260200190815260200160002060030160009054906101000a900460ff16604051613e1c91906162da565b60405180910390a3600191505092915050565b6019602052806000526040600020600091509050806000015490806001018054613e5890617472565b80601f0160208091040260200160405190810160405280929190818152602001828054613e8490617472565b8015613ed15780601f10613ea657610100808354040283529160200191613ed1565b820191906000526020600020905b815481529060010190602001808311613eb457829003601f168201915b5050505050905082565b600080613ee6615218565b9050613ef3818585615351565b600191505092915050565b601c6020528160005260406000208181548110613f1a57600080fd5b90600052602060002001600091509150508054613f3690617472565b80601f0160208091040260200160405190810160405280929190818152602001828054613f6290617472565b8015613faf5780601f10613f8457610100808354040283529160200191613faf565b820191906000526020600020905b815481529060010190602001808311613f9257829003601f168201915b505050505081565b605081565b601b602052806000526040600020600091509050806000015490806001018054613fe590617472565b80601f016020809104026020016040519081016040528092919081815260200182805461401190617472565b801561405e5780601f106140335761010080835404028352916020019161405e565b820191906000526020600020905b81548152906001019060200180831161404157829003601f168201915b50505050509080600201805461407390617472565b80601f016020809104026020016040519081016040528092919081815260200182805461409f90617472565b80156140ec5780601f106140c1576101008083540402835291602001916140ec565b820191906000526020600020905b8154815290600101906020018083116140cf57829003601f168201915b5050505050908060210154905084565b60166020528160005260406000206020528060005260406000206000915091505080600001549080600101549080600201549080600301549080600401549080600501549080600601549080600701549080600801549080600901549080600a0160009054906101000a900460ff1690508b565b6000600d54905090565b6021818154811061418a57600080fd5b90600052602060002090600202016000915090508060000154908060010180546141b390617472565b80601f01602080910402602001604051908101604052809291908181526020018280546141df90617472565b801561422c5780601f106142015761010080835404028352916020019161422c565b820191906000526020600020905b81548152906001019060200180831161420f57829003601f168201915b5050505050905082565b601f6020528160005260406000206020528060005260406000206000915091509054906101000a900460ff1681565b60007fadb22091b155738d2e889eb96f509d2a7c93234236b30400927feb4a6a15ab0061429181615232565b6000601b600088815260200190815260200160002060000154036142ea576040517f08c379a00000000000000000000000000000000000000000000000000000000081526004016142e190618378565b60405180910390fd5b84601b6000888152602001908152602001600020600101908161430d91906179a3565b5083601b6000888152602001908152602001600020600201908161433191906179a3565b5060008351111561444457600a83511115614381576040517f08c379a00000000000000000000000000000000000000000000000000000000081526004016143789061840a565b60405180910390fd5b60005b8351811015614426578381815181106143a05761439f617414565b5b6020026020010151601b600089815260200190815260200160002060030182600a81106143d0576143cf617414565b5b6003020160008201518160000190816143e991906179a3565b5060208201518160010190816143ff91906179a3565b50604082015181600201908161441591906179a3565b509050508080600101915050614384565b508251601b6000888152602001908152602001600020602101819055505b857f2a39a7cf20a19c3cd9811b72b89fab269dce3aa109f6d2a0631cd3e1f0457e5d8660405161447491906165d6565b60405180910390a26001915050949350505050565b61449282611779565b61449b81615232565b6144a58383615537565b50505050565b674563918244f4000081565b6000600160008473ffffffffffffffffffffffffffffffffffffffff1673ffffffffffffffffffffffffffffffffffffffff16815260200190815260200160002060008373ffffffffffffffffffffffffffffffffffffffff1673ffffffffffffffffffffffffffffffffffffffff16815260200190815260200160002054905092915050565b6023818154811061454e57600080fd5b906000526020600020906003020160009150905080600001805461457190617472565b80601f016020809104026020016040519081016040528092919081815260200182805461459d90617472565b80156145ea5780601f106145bf576101008083540402835291602001916145ea565b820191906000526020600020905b8154815290600101906020018083116145cd57829003601f168201915b5050505050908060010180546145ff90617472565b80601f016020809104026020016040519081016040528092919081815260200182805461462b90617472565b80156146785780601f1061464d57610100808354040283529160200191614678565b820191906000526020600020905b81548152906001019060200180831161465b57829003601f168201915b50505050509080600201805461468d90617472565b80601f01602080910402602001604051908101604052809291908181526020018280546146b990617472565b80156147065780601f106146db57610100808354040283529160200191614706565b820191906000526020600020905b8154815290600101906020018083116146e957829003601f168201915b5050505050905083565b600080601d60008581526020019081526020016000209050600081600201805490509050600081855114614779576040517f08c379a00000000000000000000000000000000000000000000000000000000081526004016147709061849c565b60405180910390fd5b60005b8281101561486c57600084600201828154811061479c5761479b617414565b5b9060005260206000209060030201905060008783815181106147c1576147c0617414565b5b6020026020010151905081600201805490508110614814576040517f08c379a000000000000000000000000000000000000000000000000000000000815260040161480b90618508565b60405180910390fd5b81600201818154811061482a57614829617414565b5b906000526020600020906002020160010160009054906101000a900460ff161561485d57838061485990617f1c565b9450505b5050808060010191505061477c565b508160648261487b9190617564565b61488591906175d5565b9350604b84106149615760016029600088815260200190815260200160002060003373ffffffffffffffffffffffffffffffffffffffff1673ffffffffffffffffffffffffffffffffffffffff16815260200190815260200160002060006101000a81548160ff02191690831515021790555083602860003373ffffffffffffffffffffffffffffffffffffffff1673ffffffffffffffffffffffffffffffffffffffff16815260200190815260200160002060008881526020019081526020016000208190555061495f33670de0b6b3a764000061562a565b505b3373ffffffffffffffffffffffffffffffffffffffff167fcce9b9ed7e05afc64f73f1ce3f6ff1011a740b718ae6277a14698a4ef2d62dbf87866040516149a9929190618528565b60405180910390a250505092915050565b6000600760000154905090565b60007fadb22091b155738d2e889eb96f509d2a7c93234236b30400927feb4a6a15ab006149f381615232565b7fadb22091b155738d2e889eb96f509d2a7c93234236b30400927feb4a6a15ab00614a1d81615232565b6000601560008781526020019081526020016000206000015403614a76576040517f08c379a0000000000000000000000000000000000000000000000000000000008152600401614a6d9061859d565b60405180910390fd5b6000601960008681526020019081526020016000206000015403614acf576040517f08c379a0000000000000000000000000000000000000000000000000000000008152600401614ac690618255565b60405180910390fd5b60005b6021805490508111614bc95784601960008381526020019081526020016000206000015403614bb65760216001602180549050614b0f919061803c565b81548110614b2057614b1f617414565b5b906000526020600020906002020160218281548110614b4257614b41617414565b5b90600052602060002090600202016000820154816000015560018201816001019081614b6e9190618086565b509050506021805480614b8457614b8361816e565b5b6001900381819060005260206000209060020201600080820160009055600182016000614bb19190615f9a565b505090555b8080614bc190617f1c565b915050614ad2565b5060196000858152602001908152602001600020600080820160009055600182016000614bf69190615f9a565b505083857fab6d08543726a41eac26ac96d0b4591127baed3bfb915d2603ccb9fb2440c42560405160405180910390a360019250505092915050565b60125481565b60007fadb22091b155738d2e889eb96f509d2a7c93234236b30400927feb4a6a15ab00614c6481615232565b6000601960008681526020019081526020016000206000015403614cbd576040517f08c379a0000000000000000000000000000000000000000000000000000000008152600401614cb490618609565b60405180910390fd5b82601960008681526020019081526020016000206001019081614ce091906179a3565b5083857f7714a2fe2221824dfd5cd15f7cc29e38ffefcf9b6ad62c216321afcde79cbcfb85604051614d1291906165d6565b60405180910390a360019150509392505050565b60007fadb22091b155738d2e889eb96f509d2a7c93234236b30400927feb4a6a15ab00614d5281615232565b6000601b60008681526020019081526020016000206000015403614dab576040517f08c379a0000000000000000000000000000000000000000000000000000000008152600401614da2906176e4565b60405180910390fd5b6000601d60008581526020019081526020016000206000015403614e04576040517f08c379a0000000000000000000000000000000000000000000000000000000008152600401614dfb90618675565b60405180910390fd5b60005b6021805490508111614f255783601d60008681526020019081526020016000206000015403614f125760246001602480549050614e44919061803c565b81548110614e5557614e54617414565b5b906000526020600020906003020160248281548110614e7757614e76617414565b5b90600052602060002090600302016000820154816000015560018201816001019081614ea39190618086565b506002820181600201908054614eba929190616096565b509050506024805480614ed057614ecf61816e565b5b6001900381819060005260206000209060030201600080820160009055600182016000614efd9190615f9a565b600282016000614f0d9190616124565b505090555b8080614f1d90617f1c565b915050614e07565b50601d6000848152602001908152602001600020600080820160009055600182016000614f529190615f9a565b600282016000614f629190616124565b505082847f22a69f3183c2804ef4ff588b6321a6351c1863419286c584919ab8f923cbd5a460405160405180910390a3600191505092915050565b60135481565b6000614fad615246565b6015600083815260200190815260200160002060030160009054906101000a900460ff16615010576040517f08c379a0000000000000000000000000000000000000000000000000000000008152600401615007906186e1565b60405180910390fd5b601f600083815260200190815260200160002060003373ffffffffffffffffffffffffffffffffffffffff1673ffffffffffffffffffffffffffffffffffffffff16815260200190815260200160002060009054906101000a900460ff16156150ae576040517f08c379a00000000000000000000000000000000000000000000000000000000081526004016150a590618773565b60405180910390fd5b6001601f600084815260200190815260200160002060003373ffffffffffffffffffffffffffffffffffffffff1673ffffffffffffffffffffffffffffffffffffffff16815260200190815260200160002060006101000a81548160ff02191690831515021790555061512933671bc16d674ec8000061562a565b503373ffffffffffffffffffffffffffffffffffffffff16827f4bf249f6b0ca5630ea4816c04b928b864a2065cb51658fd6223d83b727fd326b60405160405180910390a36001905061517a6152b3565b919050565b60186020528160005260406000206020528060005260406000206000915091509054906101000a900460ff1681565b60007f01ffc9a7000000000000000000000000000000000000000000000000000000007bffffffffffffffffffffffffffffffffffffffffffffffffffffffff1916827bffffffffffffffffffffffffffffffffffffffffffffffffffffffff1916149050919050565b600033905090565b61522d83838360016157ac565b505050565b6152438161523e615218565b615983565b50565b600260065403615282576040517f3ee5aeb500000000000000000000000000000000000000000000000000000000815260040160405180910390fd5b6002600681905550565b61529682826159d4565b80600d60008282546152a8919061803c565b925050819055505050565b6001600681905550565b60006152c984846144b7565b90507fffffffffffffffffffffffffffffffffffffffffffffffffffffffffffffffff811461534b578181101561533b578281836040517ffb8f41b200000000000000000000000000000000000000000000000000000000815260040161533293929190618793565b60405180910390fd5b61534a848484840360006157ac565b5b50505050565b600073ffffffffffffffffffffffffffffffffffffffff168373ffffffffffffffffffffffffffffffffffffffff16036153c35760006040517f96c6fd1e0000000000000000000000000000000000000000000000000000000081526004016153ba9190617704565b60405180910390fd5b600073ffffffffffffffffffffffffffffffffffffffff168273ffffffffffffffffffffffffffffffffffffffff16036154355760006040517fec442f0500000000000000000000000000000000000000000000000000000000815260040161542c9190617704565b60405180910390fd5b615440838383615a7b565b505050565b60006154518383613324565b61552c5760016005600085815260200190815260200160002060000160008473ffffffffffffffffffffffffffffffffffffffff1673ffffffffffffffffffffffffffffffffffffffff16815260200190815260200160002060006101000a81548160ff0219169083151502179055506154c9615218565b73ffffffffffffffffffffffffffffffffffffffff168273ffffffffffffffffffffffffffffffffffffffff16847f2f8788117e7eff1d82e926ec794901d17c78024a50270940304540a733656f0d60405160405180910390a460019050615531565b600090505b92915050565b60006155438383613324565b1561561f5760006005600085815260200190815260200160002060000160008473ffffffffffffffffffffffffffffffffffffffff1673ffffffffffffffffffffffffffffffffffffffff16815260200190815260200160002060006101000a81548160ff0219169083151502179055506155bc615218565b73ffffffffffffffffffffffffffffffffffffffff168273ffffffffffffffffffffffffffffffffffffffff16847ff6391f5c32d9c69d2a47ea670b442974b53935d1edc7fd64eb21e047a839171b60405160405180910390a460019050615624565b600090505b92915050565b60006064600f6b204fce5e3e250261100000006156479190617564565b61565191906175d5565b615659614170565b8361566491906182e1565b11156156a5576040517f08c379a000000000000000000000000000000000000000000000000000000000815260040161569c90618816565b60405180910390fd5b6156af8383615ca0565b5081600d60008282546156c291906182e1565b92505081905550818373ffffffffffffffffffffffffffffffffffffffff167fad6ef58d5c294f81258965738e7ae511124139834a8d0b8f8f7327086c82052a60405160405180910390a36001905092915050565b60008160090154826008015483600701548460060154856005015486600401548760030154886002015489600101548a6000015461575591906182e1565b61575f91906182e1565b61576991906182e1565b61577391906182e1565b61577d91906182e1565b61578791906182e1565b61579191906182e1565b61579b91906182e1565b6157a591906182e1565b9050919050565b600073ffffffffffffffffffffffffffffffffffffffff168473ffffffffffffffffffffffffffffffffffffffff160361581e5760006040517fe602df050000000000000000000000000000000000000000000000000000000081526004016158159190617704565b60405180910390fd5b600073ffffffffffffffffffffffffffffffffffffffff168373ffffffffffffffffffffffffffffffffffffffff16036158905760006040517f94280d620000000000000000000000000000000000000000000000000000000081526004016158879190617704565b60405180910390fd5b81600160008673ffffffffffffffffffffffffffffffffffffffff1673ffffffffffffffffffffffffffffffffffffffff16815260200190815260200160002060008573ffffffffffffffffffffffffffffffffffffffff1673ffffffffffffffffffffffffffffffffffffffff16815260200190815260200160002081905550801561597d578273ffffffffffffffffffffffffffffffffffffffff168473ffffffffffffffffffffffffffffffffffffffff167f8c5be1e5ebec7d5bd14f71427d1e84f3dd0314c0f7b2291e5b200ac8c7c3b925846040516159749190616571565b60405180910390a35b50505050565b61598d8282613324565b6159d05780826040517fe2517d3f0000000000000000000000000000000000000000000000000000000081526004016159c7929190618836565b60405180910390fd5b5050565b806159de83612d53565b1015615a1f576040517f08c379a0000000000000000000000000000000000000000000000000000000008152600401615a16906188ab565b60405180910390fd5b615a298282615d5b565b8173ffffffffffffffffffffffffffffffffffffffff167f5b5d8478b570a79ab6b3bf13ff029fba19c02ab0d54d692d4ef0d9052d5cc85082604051615a6f9190616571565b60405180910390a25050565b600073ffffffffffffffffffffffffffffffffffffffff168373ffffffffffffffffffffffffffffffffffffffff1603615acd578060026000828254615ac191906182e1565b92505081905550615ba0565b60008060008573ffffffffffffffffffffffffffffffffffffffff1673ffffffffffffffffffffffffffffffffffffffff16815260200190815260200160002054905081811015615b59578381836040517fe450d38c000000000000000000000000000000000000000000000000000000008152600401615b5093929190618793565b60405180910390fd5b8181036000808673ffffffffffffffffffffffffffffffffffffffff1673ffffffffffffffffffffffffffffffffffffffff16815260200190815260200160002081905550505b600073ffffffffffffffffffffffffffffffffffffffff168273ffffffffffffffffffffffffffffffffffffffff1603615be95780600260008282540392505081905550615c36565b806000808473ffffffffffffffffffffffffffffffffffffffff1673ffffffffffffffffffffffffffffffffffffffff168152602001908152602001600020600082825401925050819055505b8173ffffffffffffffffffffffffffffffffffffffff168373ffffffffffffffffffffffffffffffffffffffff167fddf252ad1be2c89b69c2b068fc378daa952ba7f163c4a11628f55a4df523b3ef83604051615c939190616571565b60405180910390a3505050565b60006b204fce5e3e25026110000000615cb76115c9565b83615cc291906182e1565b1115615d03576040517f08c379a0000000000000000000000000000000000000000000000000000000008152600401615cfa90618816565b60405180910390fd5b615d0d8383615ddd565b818373ffffffffffffffffffffffffffffffffffffffff167fcda531bfd68624f13205c0a23cd4d5a7f09792cbb399603114f2b04aaa1bf5cf60405160405180910390a36001905092915050565b600073ffffffffffffffffffffffffffffffffffffffff168273ffffffffffffffffffffffffffffffffffffffff1603615dcd5760006040517f96c6fd1e000000000000000000000000000000000000000000000000000000008152600401615dc49190617704565b60405180910390fd5b615dd982600083615a7b565b5050565b600073ffffffffffffffffffffffffffffffffffffffff168273ffffffffffffffffffffffffffffffffffffffff1603615e4f5760006040517fec442f05000000000000000000000000000000000000000000000000000000008152600401615e469190617704565b60405180910390fd5b615e5b60008383615a7b565b5050565b6040518060c0016040528060008152602001606081526020016060815260200160001515815260200160008152602001600073ffffffffffffffffffffffffffffffffffffffff1681525090565b6040518060e00160405280600081526020016000815260200160608152602001606081526020016000815260200160608152602001600073ffffffffffffffffffffffffffffffffffffffff1681525090565b828054828255906000526020600020906002028101928215615f895760005260206000209160020282015b82811115615f8857828260008201816000019081615f499190618086565b506001820160009054906101000a900460ff168160010160006101000a81548160ff021916908315150217905550505091600201919060020190615f2b565b5b509050615f969190616148565b5090565b508054615fa690617472565b6000825580601f10615fb85750615fd7565b601f016020900490600052602060002090810190615fd69190616183565b5b50565b5080546000825560020290600052602060002090810190615ffb9190616148565b50565b82600a600302810192821561606f579160030282015b8281111561606e578282600082018160000190816160329190618086565b50600182018160010190816160479190618086565b506002820181600201908161605c9190618086565b50505091600301919060030190616014565b5b50905061607c91906161a0565b5090565b5080600a600302019061609391906161a0565b50565b8280548282559060005260206000209060030281019282156161135760005260206000209160030282015b8281111561611257828260008201548160000155600182018160010190816160e99190618086565b506002820181600201908054616100929190615f00565b505050916003019190600301906160c1565b5b50905061612091906161e7565b5090565b508054600082556003029060005260206000209081019061614591906161e7565b50565b5b8082111561617f57600080820160006161629190615f9a565b6001820160006101000a81549060ff021916905550600201616149565b5090565b5b8082111561619c576000816000905550600101616184565b5090565b5b808211156161e357600080820160006161ba9190615f9a565b6001820160006161ca9190615f9a565b6002820160006161da9190615f9a565b506003016161a1565b5090565b5b80821115616222576000808201600090556001820160006162099190615f9a565b6002820160006162199190615fda565b506003016161e8565b5090565b6000604051905090565b600080fd5b600080fd5b60007fffffffff0000000000000000000000000000000000000000000000000000000082169050919050565b61626f8161623a565b811461627a57600080fd5b50565b60008135905061628c81616266565b92915050565b6000602082840312156162a8576162a7616230565b5b60006162b68482850161627d565b91505092915050565b60008115159050919050565b6162d4816162bf565b82525050565b60006020820190506162ef60008301846162cb565b92915050565b600081519050919050565b600082825260208201905092915050565b6000819050602082019050919050565b6000819050919050565b61633481616321565b82525050565b600081519050919050565b600082825260208201905092915050565b60005b83811015616374578082015181840152602081019050616359565b60008484015250505050565b6000601f19601f8301169050919050565b600061639c8261633a565b6163a68185616345565b93506163b6818560208601616356565b6163bf81616380565b840191505092915050565b6163d3816162bf565b82525050565b600073ffffffffffffffffffffffffffffffffffffffff82169050919050565b6000616404826163d9565b9050919050565b616414816163f9565b82525050565b600060c083016000830151616432600086018261632b565b506020830151848203602086015261644a8282616391565b915050604083015184820360408601526164648282616391565b915050606083015161647960608601826163ca565b50608083015161648c608086018261632b565b5060a083015161649f60a086018261640b565b508091505092915050565b60006164b6838361641a565b905092915050565b6000602082019050919050565b60006164d6826162f5565b6164e08185616300565b9350836020820285016164f285616311565b8060005b8581101561652e578484038952815161650f85826164aa565b945061651a836164be565b925060208a019950506001810190506164f6565b50829750879550505050505092915050565b6000602082019050818103600083015261655a81846164cb565b905092915050565b61656b81616321565b82525050565b60006020820190506165866000830184616562565b92915050565b600082825260208201905092915050565b60006165a88261633a565b6165b2818561658c565b93506165c2818560208601616356565b6165cb81616380565b840191505092915050565b600060208201905081810360008301526165f0818461659d565b905092915050565b616601816163f9565b811461660c57600080fd5b50565b60008135905061661e816165f8565b92915050565b61662d81616321565b811461663857600080fd5b50565b60008135905061664a81616624565b92915050565b6000806040838503121561666757616666616230565b5b60006166758582860161660f565b92505060206166868582860161663b565b9150509250929050565b600080604083850312156166a7576166a6616230565b5b60006166b58582860161663b565b92505060206166c68582860161660f565b9150509250929050565b6000602082840312156166e6576166e5616230565b5b60006166f48482850161660f565b91505092915050565b60006020828403121561671357616712616230565b5b60006167218482850161663b565b91505092915050565b60008060006060848603121561674357616742616230565b5b60006167518682870161660f565b93505060206167628682870161660f565b92505060406167738682870161663b565b9150509250925092565b6000819050919050565b6167908161677d565b811461679b57600080fd5b50565b6000813590506167ad81616787565b92915050565b6000602082840312156167c9576167c8616230565b5b60006167d78482850161679e565b91505092915050565b6167e98161677d565b82525050565b600060208201905061680460008301846167e0565b92915050565b600060408201905061681f6000830185616562565b8181036020830152616831818461659d565b90509392505050565b616843816163f9565b82525050565b600060c08201905061685e6000830189616562565b8181036020830152616870818861659d565b90508181036040830152616884818761659d565b905061689360608301866162cb565b6168a06080830185616562565b6168ad60a083018461683a565b979650505050505050565b60006080820190506168cd6000830187616562565b81810360208301526168df818661659d565b905081810360408301526168f3818561659d565b90506169026060830184616562565b95945050505050565b6000806040838503121561692257616921616230565b5b60006169308582860161663b565b92505060206169418582860161663b565b9150509250929050565b6000806040838503121561696257616961616230565b5b60006169708582860161679e565b92505060206169818582860161660f565b9150509250929050565b600060ff82169050919050565b6169a18161698b565b82525050565b60006020820190506169bc6000830184616998565b92915050565b600080fd5b600080fd5b7f4e487b7100000000000000000000000000000000000000000000000000000000600052604160045260246000fd5b616a0482616380565b810181811067ffffffffffffffff82111715616a2357616a226169cc565b5b80604052505050565b6000616a36616226565b9050616a4282826169fb565b919050565b600067ffffffffffffffff821115616a6257616a616169cc565b5b616a6b82616380565b9050602081019050919050565b82818337600083830152505050565b6000616a9a616a9584616a47565b616a2c565b905082815260208101848484011115616ab657616ab56169c7565b5b616ac1848285616a78565b509392505050565b600082601f830112616ade57616add6169c2565b5b8135616aee848260208601616a87565b91505092915050565b600080600060608486031215616b1057616b0f616230565b5b6000616b1e8682870161663b565b9350506020616b2f8682870161663b565b925050604084013567ffffffffffffffff811115616b5057616b4f616235565b5b616b5c86828701616ac9565b9150509250925092565b600080600080600060a08688031215616b8257616b81616230565b5b6000616b908882890161663b565b955050602086013567ffffffffffffffff811115616bb157616bb0616235565b5b616bbd88828901616ac9565b945050604086013567ffffffffffffffff811115616bde57616bdd616235565b5b616bea88828901616ac9565b935050606086013567ffffffffffffffff811115616c0b57616c0a616235565b5b616c1788828901616ac9565b9250506080616c288882890161663b565b9150509295509295909350565b600060e083016000830151616c4d600086018261632b565b506020830151616c60602086018261632b565b5060408301518482036040860152616c788282616391565b91505060608301518482036060860152616c928282616391565b9150506080830151616ca7608086018261632b565b5060a083015184820360a0860152616cbf8282616391565b91505060c0830151616cd460c086018261640b565b508091505092915050565b6000604082019050616cf46000830185616562565b8181036020830152616d068184616c35565b90509392505050565b60008060008060008060008060008060006101608c8e031215616d3557616d34616230565b5b6000616d438e828f0161663b565b9b50506020616d548e828f0161663b565b9a50506040616d658e828f0161663b565b9950506060616d768e828f0161663b565b9850506080616d878e828f0161663b565b97505060a0616d988e828f0161663b565b96505060c0616da98e828f0161663b565b95505060e0616dba8e828f0161663b565b945050610100616dcc8e828f0161663b565b935050610120616dde8e828f0161663b565b925050610140616df08e828f0161663b565b9150509295989b509295989b9093969950565b60008060408385031215616e1a57616e19616230565b5b6000616e288582860161663b565b925050602083013567ffffffffffffffff811115616e4957616e48616235565b5b616e5585828601616ac9565b9150509250929050565b600060e082019050616e74600083018a616562565b616e816020830189616562565b8181036040830152616e93818861659d565b90508181036060830152616ea7818761659d565b9050616eb66080830186616562565b81810360a0830152616ec8818561659d565b9050616ed760c083018461683a565b98975050505050505050565b60008060408385031215616efa57616ef9616230565b5b600083013567ffffffffffffffff811115616f1857616f17616235565b5b616f2485828601616ac9565b925050602083013567ffffffffffffffff811115616f4557616f44616235565b5b616f5185828601616ac9565b9150509250929050565b600061016082019050616f71600083018e616562565b616f7e602083018d616562565b616f8b604083018c616562565b616f98606083018b616562565b616fa5608083018a616562565b616fb260a0830189616562565b616fbf60c0830188616562565b616fcc60e0830187616562565b616fda610100830186616562565b616fe8610120830185616562565b616ff66101408301846162cb565b9c9b505050505050505050505050565b600067ffffffffffffffff821115617021576170206169cc565b5b602082029050602081019050919050565b600080fd5b600080fd5b600080fd5b60006060828403121561705757617056617037565b5b6170616060616a2c565b9050600082013567ffffffffffffffff8111156170815761708061703c565b5b61708d84828501616ac9565b600083015250602082013567ffffffffffffffff8111156170b1576170b061703c565b5b6170bd84828501616ac9565b602083015250604082013567ffffffffffffffff8111156170e1576170e061703c565b5b6170ed84828501616ac9565b60408301525092915050565b600061710c61710784617006565b616a2c565b9050808382526020820190506020840283018581111561712f5761712e617032565b5b835b8181101561717657803567ffffffffffffffff811115617154576171536169c2565b5b8086016171618982617041565b85526020850194505050602081019050617131565b5050509392505050565b600082601f830112617195576171946169c2565b5b81356171a58482602086016170f9565b91505092915050565b600080600080608085870312156171c8576171c7616230565b5b60006171d68782880161663b565b945050602085013567ffffffffffffffff8111156171f7576171f6616235565b5b61720387828801616ac9565b935050604085013567ffffffffffffffff81111561722457617223616235565b5b61723087828801616ac9565b925050606085013567ffffffffffffffff81111561725157617250616235565b5b61725d87828801617180565b91505092959194509250565b600080604083850312156172805761727f616230565b5b600061728e8582860161660f565b925050602061729f8582860161660f565b9150509250929050565b600060608201905081810360008301526172c3818661659d565b905081810360208301526172d7818561659d565b905081810360408301526172eb818461659d565b9050949350505050565b600067ffffffffffffffff8211156173105761730f6169cc565b5b602082029050602081019050919050565b600061733461732f846172f5565b616a2c565b9050808382526020820190506020840283018581111561735757617356617032565b5b835b81811015617380578061736c888261663b565b845260208401935050602081019050617359565b5050509392505050565b600082601f83011261739f5761739e6169c2565b5b81356173af848260208601617321565b91505092915050565b600080604083850312156173cf576173ce616230565b5b60006173dd8582860161663b565b925050602083013567ffffffffffffffff8111156173fe576173fd616235565b5b61740a8582860161738a565b9150509250929050565b7f4e487b7100000000000000000000000000000000000000000000000000000000600052603260045260246000fd5b7f4e487b7100000000000000000000000000000000000000000000000000000000600052602260045260246000fd5b6000600282049050600182168061748a57607f821691505b60208210810361749d5761749c617443565b5b50919050565b7f596f7520617265206e6f7420656e726f6c6c656420696e207468697320636f7560008201527f7273652100000000000000000000000000000000000000000000000000000000602082015250565b60006174ff60248361658c565b915061750a826174a3565b604082019050919050565b6000602082019050818103600083015261752e816174f2565b9050919050565b7f4e487b7100000000000000000000000000000000000000000000000000000000600052601160045260246000fd5b600061756f82616321565b915061757a83616321565b925082820261758881616321565b9150828204841483151761759f5761759e617535565b5b5092915050565b7f4e487b7100000000000000000000000000000000000000000000000000000000600052601260045260246000fd5b60006175e082616321565b91506175eb83616321565b9250826175fb576175fa6175a6565b5b828204905092915050565b7f596f75206861766520616c7265616479206d61726b65642074686973206c657360008201527f736f6e2061732072656164000000000000000000000000000000000000000000602082015250565b6000617662602b8361658c565b915061766d82617606565b604082019050919050565b6000602082019050818103600083015261769181617655565b9050919050565b7f4c6573736f6e20646f65736e2774206578697374000000000000000000000000600082015250565b60006176ce60148361658c565b91506176d982617698565b602082019050919050565b600060208201905081810360008301526176fd816176c1565b9050919050565b6000602082019050617719600083018461683a565b92915050565b7f5155697a20646f6573206e6f7420657869737400000000000000000000000000600082015250565b600061775560138361658c565b91506177608261771f565b602082019050919050565b6000602082019050818103600083015261778481617748565b9050919050565b7f4e6f74206578616374207175697a000000000000000000000000000000000000600082015250565b60006177c1600e8361658c565b91506177cc8261778b565b602082019050919050565b600060208201905081810360008301526177f0816177b4565b9050919050565b60008190508160005260206000209050919050565b60006020601f8301049050919050565b600082821b905092915050565b6000600883026178597fffffffffffffffffffffffffffffffffffffffffffffffffffffffffffffffff8261781c565b617863868361781c565b95508019841693508086168417925050509392505050565b6000819050919050565b60006178a061789b61789684616321565b61787b565b616321565b9050919050565b6000819050919050565b6178ba83617885565b6178ce6178c6826178a7565b848454617829565b825550505050565b600090565b6178e36178d6565b6178ee8184846178b1565b505050565b5b81811015617912576179076000826178db565b6001810190506178f4565b5050565b601f82111561795757617928816177f7565b6179318461780c565b81016020851015617940578190505b61795461794c8561780c565b8301826178f3565b50505b505050565b600082821c905092915050565b600061797a6000198460080261795c565b1980831691505092915050565b60006179938383617969565b9150826002028217905092915050565b6179ac8261633a565b67ffffffffffffffff8111156179c5576179c46169cc565b5b6179cf8254617472565b6179da828285617916565b600060209050601f831160018114617a0d57600084156179fb578287015190505b617a058582617987565b865550617a6d565b601f198416617a1b866177f7565b60005b82811015617a4357848901518255600182019150602085019450602081019050617a1e565b86831015617a605784890151617a5c601f891682617969565b8355505b6001600288020188555050505b505050505050565b7f596f75206d75737420626520656e726f6c6c656420696e2074686520636f757260008201527f736520746f20636f6d706c657465206974000000000000000000000000000000602082015250565b6000617ad160318361658c565b9150617adc82617a75565b604082019050919050565b60006020820190508181036000830152617b0081617ac4565b9050919050565b7f596f75206861766520616c726561647920636f6d706c6574656420746869732060008201527f636f757273650000000000000000000000000000000000000000000000000000602082015250565b6000617b6360268361658c565b9150617b6e82617b07565b604082019050919050565b60006020820190508181036000830152617b9281617b56565b9050919050565b6000819050919050565b617bb4617baf82616321565b617b99565b82525050565b600081905092915050565b6000617bd08261633a565b617bda8185617bba565b9350617bea818560208601616356565b80840191505092915050565b6000617c028289617ba3565b602082019150617c128288617bc5565b9150617c1e8287617bc5565b9150617c2a8286617bc5565b9150617c368285617ba3565b602082019150617c468284617ba3565b602082019150819050979650505050505050565b6000608082019050617c6f6000830187616562565b8181036020830152617c81818661659d565b90508181036040830152617c95818561659d565b90508181036060830152617ca9818461659d565b905095945050505050565b7f52657669657720616c7265616479207375626d6974746564206279207468697360008201527f2072657669657765722e00000000000000000000000000000000000000000000602082015250565b6000617d10602a8361658c565b9150617d1b82617cb4565b604082019050919050565b60006020820190508181036000830152617d3f81617d03565b9050919050565b7f53636f726573206d757374206265206265747765656e203120616e642031302e600082015250565b6000617d7c60208361658c565b9150617d8782617d46565b602082019050919050565b60006020820190508181036000830152617dab81617d6f565b9050919050565b7f436f7572736520646f6573206e6f742065786973740000000000000000000000600082015250565b6000617de860158361658c565b9150617df382617db2565b602082019050919050565b60006020820190508181036000830152617e1781617ddb565b9050919050565b7f436f7572736520616c726561647920617070726f766564000000000000000000600082015250565b6000617e5460178361658c565b9150617e5f82617e1e565b602082019050919050565b60006020820190508181036000830152617e8381617e47565b9050919050565b7f596f75206861766520616c726561647920617070726f7665642074686973206360008201527f6f75727365000000000000000000000000000000000000000000000000000000602082015250565b6000617ee660258361658c565b9150617ef182617e8a565b604082019050919050565b60006020820190508181036000830152617f1581617ed9565b9050919050565b6000617f2782616321565b91507fffffffffffffffffffffffffffffffffffffffffffffffffffffffffffffffff8203617f5957617f58617535565b5b600182019050919050565b7f5175697a20646f6573206e6f7420657869737400000000000000000000000000600082015250565b6000617f9a60138361658c565b9150617fa582617f64565b602082019050919050565b60006020820190508181036000830152617fc981617f8d565b9050919050565b7f5175657374696f6e206e6f7420666f756e6420696e2074686973207175697a00600082015250565b6000618006601f8361658c565b915061801182617fd0565b602082019050919050565b6000602082019050818103600083015261803581617ff9565b9050919050565b600061804782616321565b915061805283616321565b925082820390508181111561806a57618069617535565b5b92915050565b60008154905061807f81617472565b9050919050565b81810361809457505061816c565b61809d82618070565b67ffffffffffffffff8111156180b6576180b56169cc565b5b6180c08254617472565b6180cb828285617916565b6000601f8311600181146180fa57600084156180e8578287015490505b6180f28582617987565b865550618165565b601f198416618108876177f7565b9650618113866177f7565b60005b8281101561813b57848901548255600182019150600185019450602081019050618116565b868310156181585784890154618154601f891682617969565b8355505b6001600288020188555050505b5050505050505b565b7f4e487b7100000000000000000000000000000000000000000000000000000000600052603160045260246000fd5b7f436f7572736520646f65736e2774206578697374210000000000000000000000600082015250565b60006181d360158361658c565b91506181de8261819d565b602082019050919050565b60006020820190508181036000830152618202816181c6565b9050919050565b7f4368617074657220646f65736e27742065786973740000000000000000000000600082015250565b600061823f60158361658c565b915061824a82618209565b602082019050919050565b6000602082019050818103600083015261826e81618232565b9050919050565b7f436f7572736520494420616c7265616479206578697374730000000000000000600082015250565b60006182ab60188361658c565b91506182b682618275565b602082019050919050565b600060208201905081810360008301526182da8161829e565b9050919050565b60006182ec82616321565b91506182f783616321565b925082820190508082111561830f5761830e617535565b5b92915050565b60006183218284617bc5565b915081905092915050565b7f4c6573736f6e20646f6573206e6f742065786973740000000000000000000000600082015250565b600061836260158361658c565b915061836d8261832c565b602082019050919050565b6000602082019050818103600083015261839181618355565b9050919050565b7f5265736f7572636520636f756e742065786365656473206d6178696d756d206160008201527f6c6c6f7765640000000000000000000000000000000000000000000000000000602082015250565b60006183f460268361658c565b91506183ff82618398565b604082019050919050565b60006020820190508181036000830152618423816183e7565b9050919050565b7f4e756d626572206f6620616e7377657273206d757374206d617463682074686560008201527f206e756d626572206f66207175657374696f6e73000000000000000000000000602082015250565b600061848660348361658c565b91506184918261842a565b604082019050919050565b600060208201905081810360008301526184b581618479565b9050919050565b7f496e76616c69642063686f6963652073656c6563746564000000000000000000600082015250565b60006184f260178361658c565b91506184fd826184bc565b602082019050919050565b60006020820190508181036000830152618521816184e5565b9050919050565b600060408201905061853d6000830185616562565b61854a6020830184616562565b9392505050565b7f436f7572736520646f65736e2774206578697374000000000000000000000000600082015250565b600061858760148361658c565b915061859282618551565b602082019050919050565b600060208201905081810360008301526185b68161857a565b9050919050565b7f4368617074657220646f65736e2774206e6f7420657869737400000000000000600082015250565b60006185f360198361658c565b91506185fe826185bd565b602082019050919050565b60006020820190508181036000830152618622816185e6565b9050919050565b7f5175697a20646f65736e27742065786973740000000000000000000000000000600082015250565b600061865f60128361658c565b915061866a82618629565b602082019050919050565b6000602082019050818103600083015261868e81618652565b9050919050565b7f436f75727365206e6f742079657420617070726f766564210000000000000000600082015250565b60006186cb60188361658c565b91506186d682618695565b602082019050919050565b600060208201905081810360008301526186fa816186be565b9050919050565b7f596f752061726520616c726561647920656e726f6c6c656420696e746f20746860008201527f697320636f757273650000000000000000000000000000000000000000000000602082015250565b600061875d60298361658c565b915061876882618701565b604082019050919050565b6000602082019050818103600083015261878c81618750565b9050919050565b60006060820190506187a8600083018661683a565b6187b56020830185616562565b6187c26040830184616562565b949350505050565b7f4c696d6974204578636565646564210000000000000000000000000000000000600082015250565b6000618800600f8361658c565b915061880b826187ca565b602082019050919050565b6000602082019050818103600083015261882f816187f3565b9050919050565b600060408201905061884b600083018561683a565b61885860208301846167e0565b9392505050565b7f496e73756666696369656e742062616c616e6365000000000000000000000000600082015250565b600061889560148361658c565b91506188a08261885f565b602082019050919050565b600060208201905081810360008301526188c481618888565b905091905056fea2646970667358221220e866463396b0d262d56c456da859bcd55482227cfb6e0a57439fd80516343b6064736f6c634300081b0033",
  "linkReferences": {},
  "deployedLinkReferences": {}
}