{
  "_format": "hh-sol-artifact-1",
  "contractName": "Ecosystem2",
  "sourceName": "contracts/Ecosystem  Contracts/Ecosystem3.sol",
  "abi": [
    {
      "inputs": [
        {
          "internalType": "address[]",
          "name": "_reviewers",
          "type": "address[]"
        }
      ],
      "stateMutability": "nonpayable",
      "type": "constructor"
    },
    {
      "inputs": [],
      "name": "AccessControlBadConfirmation",
      "type": "error"
    },
    {
      "inputs": [
        {
          "internalType": "address",
          "name": "account",
          "type": "address"
        },
        {
          "internalType": "bytes32",
          "name": "neededRole",
          "type": "bytes32"
        }
      ],
      "name": "AccessControlUnauthorizedAccount",
      "type": "error"
    },
    {
      "inputs": [
        {
          "internalType": "address",
          "name": "spender",
          "type": "address"
        },
        {
          "internalType": "uint256",
          "name": "allowance",
          "type": "uint256"
        },
        {
          "internalType": "uint256",
          "name": "needed",
          "type": "uint256"
        }
      ],
      "name": "ERC20InsufficientAllowance",
      "type": "error"
    },
    {
      "inputs": [
        {
          "internalType": "address",
          "name": "sender",
          "type": "address"
        },
        {
          "internalType": "uint256",
          "name": "balance",
          "type": "uint256"
        },
        {
          "internalType": "uint256",
          "name": "needed",
          "type": "uint256"
        }
      ],
      "name": "ERC20InsufficientBalance",
      "type": "error"
    },
    {
      "inputs": [
        {
          "internalType": "address",
          "name": "approver",
          "type": "address"
        }
      ],
      "name": "ERC20InvalidApprover",
      "type": "error"
    },
    {
      "inputs": [
        {
          "internalType": "address",
          "name": "receiver",
          "type": "address"
        }
      ],
      "name": "ERC20InvalidReceiver",
      "type": "error"
    },
    {
      "inputs": [
        {
          "internalType": "address",
          "name": "sender",
          "type": "address"
        }
      ],
      "name": "ERC20InvalidSender",
      "type": "error"
    },
    {
      "inputs": [
        {
          "internalType": "address",
          "name": "spender",
          "type": "address"
        }
      ],
      "name": "ERC20InvalidSpender",
      "type": "error"
    },
    {
      "inputs": [],
      "name": "ReentrancyGuardReentrantCall",
      "type": "error"
    },
    {
      "anonymous": false,
      "inputs": [
        {
          "indexed": true,
          "internalType": "address",
          "name": "owner",
          "type": "address"
        },
        {
          "indexed": true,
          "internalType": "address",
          "name": "spender",
          "type": "address"
        },
        {
          "indexed": false,
          "internalType": "uint256",
          "name": "value",
          "type": "uint256"
        }
      ],
      "name": "Approval",
      "type": "event"
    },
    {
      "anonymous": false,
      "inputs": [
        {
          "indexed": true,
          "internalType": "address",
          "name": "_account",
          "type": "address"
        },
        {
          "indexed": false,
          "internalType": "uint256",
          "name": "_amount",
          "type": "uint256"
        }
      ],
      "name": "BurnSuccess",
      "type": "event"
    },
    {
      "anonymous": false,
      "inputs": [
        {
          "indexed": false,
          "internalType": "uint256",
          "name": "certificateId",
          "type": "uint256"
        },
        {
          "indexed": false,
          "internalType": "string",
          "name": "courseName",
          "type": "string"
        },
        {
          "indexed": false,
          "internalType": "string",
          "name": "cert_issuer",
          "type": "string"
        },
        {
          "indexed": false,
          "internalType": "string",
          "name": "learner",
          "type": "string"
        }
      ],
      "name": "CertificateIssued",
      "type": "event"
    },
    {
      "anonymous": false,
      "inputs": [
        {
          "indexed": true,
          "internalType": "uint256",
          "name": "_courseId",
          "type": "uint256"
        },
        {
          "indexed": true,
          "internalType": "uint256",
          "name": "_chaterId",
          "type": "uint256"
        }
      ],
      "name": "ChapterDeletedSuccess",
      "type": "event"
    },
    {
      "anonymous": false,
      "inputs": [
        {
          "indexed": true,
          "internalType": "uint256",
          "name": "_courseId",
          "type": "uint256"
        },
        {
          "indexed": true,
          "internalType": "uint256",
          "name": "_chapterId",
          "type": "uint256"
        },
        {
          "indexed": false,
          "internalType": "string",
          "name": "_chapterName",
          "type": "string"
        }
      ],
      "name": "ChapterEdited",
      "type": "event"
    },
    {
      "anonymous": false,
      "inputs": [
        {
          "indexed": true,
          "internalType": "uint256",
          "name": "_courseID",
          "type": "uint256"
        },
        {
          "indexed": true,
          "internalType": "string",
          "name": "_courseName",
          "type": "string"
        },
        {
          "indexed": false,
          "internalType": "bool",
          "name": "_approved",
          "type": "bool"
        }
      ],
      "name": "CourseCreationSuccess",
      "type": "event"
    },
    {
      "anonymous": false,
      "inputs": [
        {
          "indexed": true,
          "internalType": "uint256",
          "name": "_courseId",
          "type": "uint256"
        },
        {
          "indexed": false,
          "internalType": "address",
          "name": "owner",
          "type": "address"
        }
      ],
      "name": "CourseDeleteSuccess",
      "type": "event"
    },
    {
      "anonymous": false,
      "inputs": [
        {
          "indexed": true,
          "internalType": "uint256",
          "name": "_courseId",
          "type": "uint256"
        },
        {
          "indexed": false,
          "internalType": "string",
          "name": "_courseName",
          "type": "string"
        }
      ],
      "name": "CourseEdited",
      "type": "event"
    },
    {
      "anonymous": false,
      "inputs": [
        {
          "indexed": true,
          "internalType": "address",
          "name": "_to",
          "type": "address"
        },
        {
          "indexed": true,
          "internalType": "uint256",
          "name": "_amount",
          "type": "uint256"
        }
      ],
      "name": "EcosystemPoolUpdate",
      "type": "event"
    },
    {
      "anonymous": false,
      "inputs": [
        {
          "indexed": true,
          "internalType": "uint256",
          "name": "_chapterId",
          "type": "uint256"
        },
        {
          "indexed": true,
          "internalType": "uint256",
          "name": "_lessonId",
          "type": "uint256"
        }
      ],
      "name": "LessonDeleted",
      "type": "event"
    },
    {
      "anonymous": false,
      "inputs": [
        {
          "indexed": true,
          "internalType": "uint256",
          "name": "_lessonId",
          "type": "uint256"
        },
        {
          "indexed": false,
          "internalType": "string",
          "name": "_lessonName",
          "type": "string"
        }
      ],
      "name": "LessonEdited",
      "type": "event"
    },
    {
      "anonymous": false,
      "inputs": [
        {
          "indexed": true,
          "internalType": "uint256",
          "name": "_chapterId",
          "type": "uint256"
        },
        {
          "indexed": true,
          "internalType": "uint256",
          "name": "_lessonId",
          "type": "uint256"
        },
        {
          "indexed": false,
          "internalType": "address",
          "name": "learner",
          "type": "address"
        }
      ],
      "name": "LessonMarkedAsRead",
      "type": "event"
    },
    {
      "anonymous": false,
      "inputs": [
        {
          "indexed": true,
          "internalType": "address",
          "name": "_to",
          "type": "address"
        },
        {
          "indexed": true,
          "internalType": "uint256",
          "name": "_amount",
          "type": "uint256"
        }
      ],
      "name": "MintSuccess",
      "type": "event"
    },
    {
      "anonymous": false,
      "inputs": [
        {
          "indexed": true,
          "internalType": "uint256",
          "name": "_quizId",
          "type": "uint256"
        },
        {
          "indexed": true,
          "internalType": "uint256",
          "name": "_questionId",
          "type": "uint256"
        }
      ],
      "name": "QuestionDeleted",
      "type": "event"
    },
    {
      "anonymous": false,
      "inputs": [
        {
          "indexed": true,
          "internalType": "uint256",
          "name": "_lessonId",
          "type": "uint256"
        },
        {
          "indexed": true,
          "internalType": "uint256",
          "name": "_quizId",
          "type": "uint256"
        }
      ],
      "name": "QuizDeleted",
      "type": "event"
    },
    {
      "anonymous": false,
      "inputs": [
        {
          "indexed": true,
          "internalType": "uint256",
          "name": "_lessonId",
          "type": "uint256"
        },
        {
          "indexed": true,
          "internalType": "uint256",
          "name": "_quizId",
          "type": "uint256"
        },
        {
          "indexed": false,
          "internalType": "string",
          "name": "_quizTitle",
          "type": "string"
        }
      ],
      "name": "QuizEdited",
      "type": "event"
    },
    {
      "anonymous": false,
      "inputs": [
        {
          "indexed": true,
          "internalType": "address",
          "name": "learner",
          "type": "address"
        },
        {
          "indexed": false,
          "internalType": "uint256",
          "name": "quizId",
          "type": "uint256"
        },
        {
          "indexed": false,
          "internalType": "uint256",
          "name": "score",
          "type": "uint256"
        }
      ],
      "name": "QuizSubmitted",
      "type": "event"
    },
    {
      "anonymous": false,
      "inputs": [
        {
          "indexed": true,
          "internalType": "address",
          "name": "reviewer",
          "type": "address"
        }
      ],
      "name": "ReviewerAddedToPool",
      "type": "event"
    },
    {
      "anonymous": false,
      "inputs": [
        {
          "indexed": true,
          "internalType": "address",
          "name": "reviewer",
          "type": "address"
        }
      ],
      "name": "ReviewerRemovedFromPool",
      "type": "event"
    },
    {
      "anonymous": false,
      "inputs": [
        {
          "indexed": true,
          "internalType": "uint256",
          "name": "courseId",
          "type": "uint256"
        },
        {
          "indexed": false,
          "internalType": "address[]",
          "name": "reviewers",
          "type": "address[]"
        }
      ],
      "name": "ReviewersSelected",
      "type": "event"
    },
    {
      "anonymous": false,
      "inputs": [
        {
          "indexed": true,
          "internalType": "bytes32",
          "name": "role",
          "type": "bytes32"
        },
        {
          "indexed": true,
          "internalType": "bytes32",
          "name": "previousAdminRole",
          "type": "bytes32"
        },
        {
          "indexed": true,
          "internalType": "bytes32",
          "name": "newAdminRole",
          "type": "bytes32"
        }
      ],
      "name": "RoleAdminChanged",
      "type": "event"
    },
    {
      "anonymous": false,
      "inputs": [
        {
          "indexed": true,
          "internalType": "bytes32",
          "name": "role",
          "type": "bytes32"
        },
        {
          "indexed": true,
          "internalType": "address",
          "name": "account",
          "type": "address"
        },
        {
          "indexed": true,
          "internalType": "address",
          "name": "sender",
          "type": "address"
        }
      ],
      "name": "RoleGranted",
      "type": "event"
    },
    {
      "anonymous": false,
      "inputs": [
        {
          "indexed": true,
          "internalType": "bytes32",
          "name": "role",
          "type": "bytes32"
        },
        {
          "indexed": true,
          "internalType": "address",
          "name": "account",
          "type": "address"
        },
        {
          "indexed": true,
          "internalType": "address",
          "name": "sender",
          "type": "address"
        }
      ],
      "name": "RoleRevoked",
      "type": "event"
    },
    {
      "anonymous": false,
      "inputs": [
        {
          "indexed": true,
          "internalType": "address",
          "name": "from",
          "type": "address"
        },
        {
          "indexed": true,
          "internalType": "address",
          "name": "to",
          "type": "address"
        },
        {
          "indexed": false,
          "internalType": "uint256",
          "name": "value",
          "type": "uint256"
        }
      ],
      "name": "Transfer",
      "type": "event"
    },
    {
      "inputs": [],
      "name": "COURSE_COMPLETION_REWARD",
      "outputs": [
        {
          "internalType": "uint256",
          "name": "",
          "type": "uint256"
        }
      ],
      "stateMutability": "view",
      "type": "function"
    },
    {
      "inputs": [],
      "name": "COURSE_OWNER_ROLE",
      "outputs": [
        {
          "internalType": "bytes32",
          "name": "",
          "type": "bytes32"
        }
      ],
      "stateMutability": "view",
      "type": "function"
    },
    {
      "inputs": [],
      "name": "CREATE_COURSE_REWARD",
      "outputs": [
        {
          "internalType": "uint256",
          "name": "",
          "type": "uint256"
        }
      ],
      "stateMutability": "view",
      "type": "function"
    },
    {
      "inputs": [],
      "name": "DEFAULT_ADMIN_ROLE",
      "outputs": [
        {
          "internalType": "bytes32",
          "name": "",
          "type": "bytes32"
        }
      ],
      "stateMutability": "view",
      "type": "function"
    },
    {
      "inputs": [],
      "name": "ECOSYSTEM_POOL",
      "outputs": [
        {
          "internalType": "uint256",
          "name": "",
          "type": "uint256"
        }
      ],
      "stateMutability": "view",
      "type": "function"
    },
    {
      "inputs": [],
      "name": "ENROLLMENT_REWARD",
      "outputs": [
        {
          "internalType": "uint256",
          "name": "",
          "type": "uint256"
        }
      ],
      "stateMutability": "view",
      "type": "function"
    },
    {
      "inputs": [],
      "name": "MAX_SCORE",
      "outputs": [
        {
          "internalType": "uint256",
          "name": "",
          "type": "uint256"
        }
      ],
      "stateMutability": "view",
      "type": "function"
    },
    {
      "inputs": [],
      "name": "MAX_SUPPLY",
      "outputs": [
        {
          "internalType": "uint256",
          "name": "",
          "type": "uint256"
        }
      ],
      "stateMutability": "view",
      "type": "function"
    },
    {
      "inputs": [],
      "name": "MIN_APPROVAL_SCORE",
      "outputs": [
        {
          "internalType": "uint256",
          "name": "",
          "type": "uint256"
        }
      ],
      "stateMutability": "view",
      "type": "function"
    },
    {
      "inputs": [],
      "name": "QUIZ_COMPLETION_REWARD",
      "outputs": [
        {
          "internalType": "uint256",
          "name": "",
          "type": "uint256"
        }
      ],
      "stateMutability": "view",
      "type": "function"
    },
    {
      "inputs": [],
      "name": "REQUIRED_APPROVALS",
      "outputs": [
        {
          "internalType": "uint256",
          "name": "",
          "type": "uint256"
        }
      ],
      "stateMutability": "view",
      "type": "function"
    },
    {
      "inputs": [],
      "name": "REVIEWER_ROLE",
      "outputs": [
        {
          "internalType": "bytes32",
          "name": "",
          "type": "bytes32"
        }
      ],
      "stateMutability": "view",
      "type": "function"
    },
    {
      "inputs": [
        {
          "internalType": "address",
          "name": "",
          "type": "address"
        }
      ],
      "name": "accountCourses",
      "outputs": [
        {
          "internalType": "uint256",
          "name": "courseCount",
          "type": "uint256"
        }
      ],
      "stateMutability": "view",
      "type": "function"
    },
    {
      "inputs": [
        {
          "internalType": "address",
          "name": "newReviewer",
          "type": "address"
        }
      ],
      "name": "addReviewer",
      "outputs": [],
      "stateMutability": "nonpayable",
      "type": "function"
    },
    {
      "inputs": [
        {
          "internalType": "address",
          "name": "owner",
          "type": "address"
        },
        {
          "internalType": "address",
          "name": "spender",
          "type": "address"
        }
      ],
      "name": "allowance",
      "outputs": [
        {
          "internalType": "uint256",
          "name": "",
          "type": "uint256"
        }
      ],
      "stateMutability": "view",
      "type": "function"
    },
    {
      "inputs": [
        {
          "internalType": "address",
          "name": "",
          "type": "address"
        },
        {
          "internalType": "uint256",
          "name": "",
          "type": "uint256"
        }
      ],
      "name": "approvals",
      "outputs": [
        {
          "internalType": "bool",
          "name": "",
          "type": "bool"
        }
      ],
      "stateMutability": "view",
      "type": "function"
    },
    {
      "inputs": [
        {
          "internalType": "address",
          "name": "spender",
          "type": "address"
        },
        {
          "internalType": "uint256",
          "name": "value",
          "type": "uint256"
        }
      ],
      "name": "approve",
      "outputs": [
        {
          "internalType": "bool",
          "name": "",
          "type": "bool"
        }
      ],
      "stateMutability": "nonpayable",
      "type": "function"
    },
    {
      "inputs": [
        {
          "internalType": "uint256",
          "name": "_courseId",
          "type": "uint256"
        }
      ],
      "name": "approveCourse",
      "outputs": [],
      "stateMutability": "nonpayable",
      "type": "function"
    },
    {
      "inputs": [
        {
          "internalType": "address",
          "name": "account",
          "type": "address"
        }
      ],
      "name": "balanceOf",
      "outputs": [
        {
          "internalType": "uint256",
          "name": "",
          "type": "uint256"
        }
      ],
      "stateMutability": "view",
      "type": "function"
    },
    {
      "inputs": [
        {
          "internalType": "uint256",
          "name": "",
          "type": "uint256"
        }
      ],
      "name": "certificates",
      "outputs": [
        {
          "internalType": "uint256",
          "name": "certId",
          "type": "uint256"
        },
        {
          "internalType": "uint256",
          "name": "courseId",
          "type": "uint256"
        },
        {
          "internalType": "string",
          "name": "learner",
          "type": "string"
        },
        {
          "internalType": "string",
          "name": "cert_issuer",
          "type": "string"
        },
        {
          "internalType": "uint256",
          "name": "issue_date",
          "type": "uint256"
        },
        {
          "internalType": "string",
          "name": "courseName",
          "type": "string"
        },
        {
          "internalType": "address",
          "name": "owner",
          "type": "address"
        }
      ],
      "stateMutability": "view",
      "type": "function"
    },
    {
      "inputs": [
        {
          "internalType": "uint256",
          "name": "",
          "type": "uint256"
        }
      ],
      "name": "chapter",
      "outputs": [
        {
          "internalType": "uint256",
          "name": "chapterId",
          "type": "uint256"
        },
        {
          "internalType": "string",
          "name": "chapterName",
          "type": "string"
        }
      ],
      "stateMutability": "view",
      "type": "function"
    },
    {
      "inputs": [
        {
          "internalType": "uint256",
          "name": "",
          "type": "uint256"
        },
        {
          "internalType": "uint256",
          "name": "",
          "type": "uint256"
        }
      ],
      "name": "chapterLessons",
      "outputs": [
        {
          "internalType": "string",
          "name": "",
          "type": "string"
        }
      ],
      "stateMutability": "view",
      "type": "function"
    },
    {
      "inputs": [
        {
          "internalType": "uint256",
          "name": "",
          "type": "uint256"
        },
        {
          "internalType": "address",
          "name": "",
          "type": "address"
        }
      ],
      "name": "completedQuizzes",
      "outputs": [
        {
          "internalType": "bool",
          "name": "",
          "type": "bool"
        }
      ],
      "stateMutability": "view",
      "type": "function"
    },
    {
      "inputs": [
        {
          "internalType": "uint256",
          "name": "",
          "type": "uint256"
        },
        {
          "internalType": "uint256",
          "name": "",
          "type": "uint256"
        }
      ],
      "name": "courseChapters",
      "outputs": [
        {
          "internalType": "string",
          "name": "",
          "type": "string"
        }
      ],
      "stateMutability": "view",
      "type": "function"
    },
    {
      "inputs": [
        {
          "internalType": "uint256",
          "name": "",
          "type": "uint256"
        },
        {
          "internalType": "address",
          "name": "",
          "type": "address"
        }
      ],
      "name": "courseCompleted",
      "outputs": [
        {
          "internalType": "bool",
          "name": "",
          "type": "bool"
        }
      ],
      "stateMutability": "view",
      "type": "function"
    },
    {
      "inputs": [],
      "name": "courseCount",
      "outputs": [
        {
          "internalType": "uint256",
          "name": "",
          "type": "uint256"
        }
      ],
      "stateMutability": "view",
      "type": "function"
    },
    {
      "inputs": [
        {
          "internalType": "uint256",
          "name": "",
          "type": "uint256"
        }
      ],
      "name": "courseObject",
      "outputs": [
        {
          "internalType": "uint256",
          "name": "courseId",
          "type": "uint256"
        },
        {
          "internalType": "string",
          "name": "courseName",
          "type": "string"
        },
        {
          "internalType": "string",
          "name": "description",
          "type": "string"
        },
        {
          "internalType": "bool",
          "name": "approved",
          "type": "bool"
        },
        {
          "internalType": "uint256",
          "name": "approvalCount",
          "type": "uint256"
        },
        {
          "internalType": "address",
          "name": "creator",
          "type": "address"
        }
      ],
      "stateMutability": "view",
      "type": "function"
    },
    {
      "inputs": [
        {
          "internalType": "uint256",
          "name": "",
          "type": "uint256"
        }
      ],
      "name": "courseReviewInitiated",
      "outputs": [
        {
          "internalType": "bool",
          "name": "",
          "type": "bool"
        }
      ],
      "stateMutability": "view",
      "type": "function"
    },
    {
      "inputs": [
        {
          "internalType": "uint256",
          "name": "",
          "type": "uint256"
        },
        {
          "internalType": "uint256",
          "name": "",
          "type": "uint256"
        }
      ],
      "name": "courseReviewers",
      "outputs": [
        {
          "internalType": "address",
          "name": "",
          "type": "address"
        }
      ],
      "stateMutability": "view",
      "type": "function"
    },
    {
      "inputs": [
        {
          "internalType": "string",
          "name": "_courseName",
          "type": "string"
        },
        {
          "internalType": "string",
          "name": "_description",
          "type": "string"
        }
      ],
      "name": "createCourse",
      "outputs": [
        {
          "internalType": "bool",
          "name": "",
          "type": "bool"
        }
      ],
      "stateMutability": "nonpayable",
      "type": "function"
    },
    {
      "inputs": [],
      "name": "decimals",
      "outputs": [
        {
          "internalType": "uint8",
          "name": "",
          "type": "uint8"
        }
      ],
      "stateMutability": "view",
      "type": "function"
    },
    {
      "inputs": [
        {
          "internalType": "uint256",
          "name": "_courseId",
          "type": "uint256"
        },
        {
          "internalType": "uint256",
          "name": "_chapterId",
          "type": "uint256"
        }
      ],
      "name": "deleteChapter",
      "outputs": [
        {
          "internalType": "bool",
          "name": "",
          "type": "bool"
        }
      ],
      "stateMutability": "nonpayable",
      "type": "function"
    },
    {
      "inputs": [
        {
          "internalType": "uint256",
          "name": "_courseId",
          "type": "uint256"
        }
      ],
      "name": "deleteCourse",
      "outputs": [
        {
          "internalType": "bool",
          "name": "",
          "type": "bool"
        }
      ],
      "stateMutability": "nonpayable",
      "type": "function"
    },
    {
      "inputs": [
        {
          "internalType": "uint256",
          "name": "_chapterId",
          "type": "uint256"
        },
        {
          "internalType": "uint256",
          "name": "_lessonId",
          "type": "uint256"
        }
      ],
      "name": "deleteLesson",
      "outputs": [
        {
          "internalType": "bool",
          "name": "",
          "type": "bool"
        }
      ],
      "stateMutability": "nonpayable",
      "type": "function"
    },
    {
      "inputs": [
        {
          "internalType": "uint256",
          "name": "_quizId",
          "type": "uint256"
        },
        {
          "internalType": "uint256",
          "name": "_questionId",
          "type": "uint256"
        }
      ],
      "name": "deleteQuestion",
      "outputs": [
        {
          "internalType": "bool",
          "name": "",
          "type": "bool"
        }
      ],
      "stateMutability": "nonpayable",
      "type": "function"
    },
    {
      "inputs": [
        {
          "internalType": "uint256",
          "name": "_lessonId",
          "type": "uint256"
        },
        {
          "internalType": "uint256",
          "name": "_quizId",
          "type": "uint256"
        }
      ],
      "name": "deleteQuiz",
      "outputs": [
        {
          "internalType": "bool",
          "name": "",
          "type": "bool"
        }
      ],
      "stateMutability": "nonpayable",
      "type": "function"
    },
    {
      "inputs": [],
      "name": "ecosystemPoolSupply",
      "outputs": [
        {
          "internalType": "uint256",
          "name": "",
          "type": "uint256"
        }
      ],
      "stateMutability": "view",
      "type": "function"
    },
    {
      "inputs": [
        {
          "internalType": "uint256",
          "name": "_courseId",
          "type": "uint256"
        },
        {
          "internalType": "uint256",
          "name": "_chapterId",
          "type": "uint256"
        },
        {
          "internalType": "string",
          "name": "_chapterName",
          "type": "string"
        }
      ],
      "name": "editChapter",
      "outputs": [
        {
          "internalType": "bool",
          "name": "",
          "type": "bool"
        }
      ],
      "stateMutability": "nonpayable",
      "type": "function"
    },
    {
      "inputs": [
        {
          "internalType": "uint256",
          "name": "_courseId",
          "type": "uint256"
        },
        {
          "internalType": "string",
          "name": "_courseName",
          "type": "string"
        }
      ],
      "name": "editCourse",
      "outputs": [
        {
          "internalType": "bool",
          "name": "",
          "type": "bool"
        }
      ],
      "stateMutability": "nonpayable",
      "type": "function"
    },
    {
      "inputs": [
        {
          "internalType": "uint256",
          "name": "_lessonId",
          "type": "uint256"
        },
        {
          "internalType": "string",
          "name": "_lessonName",
          "type": "string"
        },
        {
          "internalType": "string",
          "name": "_lessonContent",
          "type": "string"
        },
        {
          "components": [
            {
              "internalType": "string",
              "name": "contentType",
              "type": "string"
            },
            {
              "internalType": "string",
              "name": "url",
              "type": "string"
            },
            {
              "internalType": "string",
              "name": "description",
              "type": "string"
            }
          ],
          "internalType": "struct Ecosystem.Resource[]",
          "name": "_additionalResources",
          "type": "tuple[]"
        }
      ],
      "name": "editLesson",
      "outputs": [
        {
          "internalType": "bool",
          "name": "",
          "type": "bool"
        }
      ],
      "stateMutability": "nonpayable",
      "type": "function"
    },
    {
      "inputs": [
        {
          "internalType": "uint256",
          "name": "_lessonId",
          "type": "uint256"
        },
        {
          "internalType": "uint256",
          "name": "_quizId",
          "type": "uint256"
        },
        {
          "internalType": "string",
          "name": "_quizTitle",
          "type": "string"
        }
      ],
      "name": "editQuiz",
      "outputs": [],
      "stateMutability": "nonpayable",
      "type": "function"
    },
    {
      "inputs": [],
      "name": "getAllCourses",
      "outputs": [
        {
          "components": [
            {
              "internalType": "uint256",
              "name": "courseId",
              "type": "uint256"
            },
            {
              "internalType": "string",
              "name": "courseName",
              "type": "string"
            },
            {
              "internalType": "string",
              "name": "description",
              "type": "string"
            },
            {
              "internalType": "bool",
              "name": "approved",
              "type": "bool"
            },
            {
              "internalType": "uint256",
              "name": "approvalCount",
              "type": "uint256"
            },
            {
              "internalType": "address",
              "name": "creator",
              "type": "address"
            }
          ],
          "internalType": "struct Ecosystem.Course[]",
          "name": "",
          "type": "tuple[]"
        }
      ],
      "stateMutability": "view",
      "type": "function"
    },
    {
      "inputs": [
        {
          "internalType": "uint256",
          "name": "courseId",
          "type": "uint256"
        }
      ],
      "name": "getCourseReviewers",
      "outputs": [
        {
          "internalType": "address[]",
          "name": "",
          "type": "address[]"
        }
      ],
      "stateMutability": "view",
      "type": "function"
    },
    {
      "inputs": [],
      "name": "getCurrentEcosystemPoolSupply",
      "outputs": [
        {
          "internalType": "uint256",
          "name": "",
          "type": "uint256"
        }
      ],
      "stateMutability": "view",
      "type": "function"
    },
    {
      "inputs": [
        {
          "internalType": "bytes32",
          "name": "role",
          "type": "bytes32"
        }
      ],
      "name": "getRoleAdmin",
      "outputs": [
        {
          "internalType": "bytes32",
          "name": "",
          "type": "bytes32"
        }
      ],
      "stateMutability": "view",
      "type": "function"
    },
    {
      "inputs": [
        {
          "internalType": "bytes32",
          "name": "role",
          "type": "bytes32"
        },
        {
          "internalType": "address",
          "name": "account",
          "type": "address"
        }
      ],
      "name": "grantRole",
      "outputs": [],
      "stateMutability": "nonpayable",
      "type": "function"
    },
    {
      "inputs": [
        {
          "internalType": "bytes32",
          "name": "role",
          "type": "bytes32"
        },
        {
          "internalType": "address",
          "name": "account",
          "type": "address"
        }
      ],
      "name": "hasRole",
      "outputs": [
        {
          "internalType": "bool",
          "name": "",
          "type": "bool"
        }
      ],
      "stateMutability": "view",
      "type": "function"
    },
    {
      "inputs": [
        {
          "internalType": "uint256",
          "name": "",
          "type": "uint256"
        },
        {
          "internalType": "address",
          "name": "",
          "type": "address"
        }
      ],
      "name": "isEnrolled",
      "outputs": [
        {
          "internalType": "bool",
          "name": "",
          "type": "bool"
        }
      ],
      "stateMutability": "view",
      "type": "function"
    },
    {
      "inputs": [
        {
          "internalType": "address",
          "name": "",
          "type": "address"
        }
      ],
      "name": "isInReviewerPool",
      "outputs": [
        {
          "internalType": "bool",
          "name": "",
          "type": "bool"
        }
      ],
      "stateMutability": "view",
      "type": "function"
    },
    {
      "inputs": [
        {
          "internalType": "address",
          "name": "account",
          "type": "address"
        }
      ],
      "name": "isReviewer",
      "outputs": [
        {
          "internalType": "bool",
          "name": "",
          "type": "bool"
        }
      ],
      "stateMutability": "view",
      "type": "function"
    },
    {
      "inputs": [
        {
          "internalType": "uint256",
          "name": "_courseId",
          "type": "uint256"
        },
        {
          "internalType": "string",
          "name": "learner",
          "type": "string"
        },
        {
          "internalType": "string",
          "name": "courseName",
          "type": "string"
        },
        {
          "internalType": "string",
          "name": "cert_issuer",
          "type": "string"
        },
        {
          "internalType": "uint256",
          "name": "issue_date",
          "type": "uint256"
        }
      ],
      "name": "issueCertificate",
      "outputs": [
        {
          "internalType": "uint256",
          "name": "",
          "type": "uint256"
        },
        {
          "components": [
            {
              "internalType": "uint256",
              "name": "certId",
              "type": "uint256"
            },
            {
              "internalType": "uint256",
              "name": "courseId",
              "type": "uint256"
            },
            {
              "internalType": "string",
              "name": "learner",
              "type": "string"
            },
            {
              "internalType": "string",
              "name": "cert_issuer",
              "type": "string"
            },
            {
              "internalType": "uint256",
              "name": "issue_date",
              "type": "uint256"
            },
            {
              "internalType": "string",
              "name": "courseName",
              "type": "string"
            },
            {
              "internalType": "address",
              "name": "owner",
              "type": "address"
            }
          ],
          "internalType": "struct Ecosystem2.Certificate",
          "name": "",
          "type": "tuple"
        }
      ],
      "stateMutability": "nonpayable",
      "type": "function"
    },
    {
      "inputs": [
        {
          "internalType": "uint256",
          "name": "",
          "type": "uint256"
        }
      ],
      "name": "lesson",
      "outputs": [
        {
          "internalType": "uint256",
          "name": "lessonId",
          "type": "uint256"
        },
        {
          "internalType": "string",
          "name": "lessonName",
          "type": "string"
        },
        {
          "internalType": "string",
          "name": "lessonContent",
          "type": "string"
        },
        {
          "internalType": "uint256",
          "name": "resourceCount",
          "type": "uint256"
        }
      ],
      "stateMutability": "view",
      "type": "function"
    },
    {
      "inputs": [
        {
          "internalType": "uint256",
          "name": "",
          "type": "uint256"
        },
        {
          "internalType": "address",
          "name": "",
          "type": "address"
        }
      ],
      "name": "lessonRead",
      "outputs": [
        {
          "internalType": "bool",
          "name": "",
          "type": "bool"
        }
      ],
      "stateMutability": "view",
      "type": "function"
    },
    {
      "inputs": [
        {
          "internalType": "uint256",
          "name": "",
          "type": "uint256"
        }
      ],
      "name": "listOfChapters",
      "outputs": [
        {
          "internalType": "uint256",
          "name": "chapterId",
          "type": "uint256"
        },
        {
          "internalType": "string",
          "name": "chapterName",
          "type": "string"
        }
      ],
      "stateMutability": "view",
      "type": "function"
    },
    {
      "inputs": [
        {
          "internalType": "uint256",
          "name": "",
          "type": "uint256"
        }
      ],
      "name": "listOfCourses",
      "outputs": [
        {
          "internalType": "uint256",
          "name": "courseId",
          "type": "uint256"
        },
        {
          "internalType": "string",
          "name": "courseName",
          "type": "string"
        },
        {
          "internalType": "string",
          "name": "description",
          "type": "string"
        },
        {
          "internalType": "bool",
          "name": "approved",
          "type": "bool"
        },
        {
          "internalType": "uint256",
          "name": "approvalCount",
          "type": "uint256"
        },
        {
          "internalType": "address",
          "name": "creator",
          "type": "address"
        }
      ],
      "stateMutability": "view",
      "type": "function"
    },
    {
      "inputs": [
        {
          "internalType": "uint256",
          "name": "",
          "type": "uint256"
        }
      ],
      "name": "listOfLessons",
      "outputs": [
        {
          "internalType": "uint256",
          "name": "lessonId",
          "type": "uint256"
        },
        {
          "internalType": "string",
          "name": "lessonName",
          "type": "string"
        },
        {
          "internalType": "string",
          "name": "lessonContent",
          "type": "string"
        },
        {
          "internalType": "uint256",
          "name": "resourceCount",
          "type": "uint256"
        }
      ],
      "stateMutability": "view",
      "type": "function"
    },
    {
      "inputs": [
        {
          "internalType": "uint256",
          "name": "",
          "type": "uint256"
        }
      ],
      "name": "listOfQuestions",
      "outputs": [
        {
          "internalType": "uint256",
          "name": "questionId",
          "type": "uint256"
        },
        {
          "internalType": "string",
          "name": "questionText",
          "type": "string"
        }
      ],
      "stateMutability": "view",
      "type": "function"
    },
    {
      "inputs": [
        {
          "internalType": "uint256",
          "name": "",
          "type": "uint256"
        }
      ],
      "name": "listOfQuizzes",
      "outputs": [
        {
          "internalType": "uint256",
          "name": "quizId",
          "type": "uint256"
        },
        {
          "internalType": "string",
          "name": "quizTitle",
          "type": "string"
        }
      ],
      "stateMutability": "view",
      "type": "function"
    },
    {
      "inputs": [
        {
          "internalType": "uint256",
          "name": "",
          "type": "uint256"
        }
      ],
      "name": "listOfResource",
      "outputs": [
        {
          "internalType": "string",
          "name": "contentType",
          "type": "string"
        },
        {
          "internalType": "string",
          "name": "url",
          "type": "string"
        },
        {
          "internalType": "string",
          "name": "description",
          "type": "string"
        }
      ],
      "stateMutability": "view",
      "type": "function"
    },
    {
      "inputs": [
        {
          "internalType": "uint256",
          "name": "_chapterId",
          "type": "uint256"
        },
        {
          "internalType": "uint256",
          "name": "_lessonId",
          "type": "uint256"
        }
      ],
      "name": "markAsRead",
      "outputs": [
        {
          "internalType": "bool",
          "name": "",
          "type": "bool"
        }
      ],
      "stateMutability": "nonpayable",
      "type": "function"
    },
    {
      "inputs": [],
      "name": "name",
      "outputs": [
        {
          "internalType": "string",
          "name": "",
          "type": "string"
        }
      ],
      "stateMutability": "view",
      "type": "function"
    },
    {
      "inputs": [],
      "name": "nextChapterId",
      "outputs": [
        {
          "internalType": "uint256",
          "name": "",
          "type": "uint256"
        }
      ],
      "stateMutability": "view",
      "type": "function"
    },
    {
      "inputs": [],
      "name": "nextChoiceId",
      "outputs": [
        {
          "internalType": "uint256",
          "name": "",
          "type": "uint256"
        }
      ],
      "stateMutability": "view",
      "type": "function"
    },
    {
      "inputs": [],
      "name": "nextCourseId",
      "outputs": [
        {
          "internalType": "uint256",
          "name": "",
          "type": "uint256"
        }
      ],
      "stateMutability": "view",
      "type": "function"
    },
    {
      "inputs": [],
      "name": "nextCourseIdd",
      "outputs": [
        {
          "internalType": "uint256",
          "name": "",
          "type": "uint256"
        }
      ],
      "stateMutability": "view",
      "type": "function"
    },
    {
      "inputs": [],
      "name": "nextLessonId",
      "outputs": [
        {
          "internalType": "uint256",
          "name": "",
          "type": "uint256"
        }
      ],
      "stateMutability": "view",
      "type": "function"
    },
    {
      "inputs": [],
      "name": "nextQuestionId",
      "outputs": [
        {
          "internalType": "uint256",
          "name": "",
          "type": "uint256"
        }
      ],
      "stateMutability": "view",
      "type": "function"
    },
    {
      "inputs": [],
      "name": "nextQuizId",
      "outputs": [
        {
          "internalType": "uint256",
          "name": "",
          "type": "uint256"
        }
      ],
      "stateMutability": "view",
      "type": "function"
    },
    {
      "inputs": [
        {
          "internalType": "uint256",
          "name": "",
          "type": "uint256"
        }
      ],
      "name": "questions",
      "outputs": [
        {
          "internalType": "uint256",
          "name": "questionId",
          "type": "uint256"
        },
        {
          "internalType": "string",
          "name": "questionText",
          "type": "string"
        }
      ],
      "stateMutability": "view",
      "type": "function"
    },
    {
      "inputs": [
        {
          "internalType": "uint256",
          "name": "",
          "type": "uint256"
        }
      ],
      "name": "quizzes",
      "outputs": [
        {
          "internalType": "uint256",
          "name": "quizId",
          "type": "uint256"
        },
        {
          "internalType": "string",
          "name": "quizTitle",
          "type": "string"
        }
      ],
      "stateMutability": "view",
      "type": "function"
    },
    {
      "inputs": [
        {
          "internalType": "address",
          "name": "reviewer",
          "type": "address"
        }
      ],
      "name": "removeReviewer",
      "outputs": [],
      "stateMutability": "nonpayable",
      "type": "function"
    },
    {
      "inputs": [
        {
          "internalType": "bytes32",
          "name": "role",
          "type": "bytes32"
        },
        {
          "internalType": "address",
          "name": "callerConfirmation",
          "type": "address"
        }
      ],
      "name": "renounceRole",
      "outputs": [],
      "stateMutability": "nonpayable",
      "type": "function"
    },
    {
      "inputs": [
        {
          "internalType": "uint256",
          "name": "",
          "type": "uint256"
        }
      ],
      "name": "reviewerPool",
      "outputs": [
        {
          "internalType": "address",
          "name": "",
          "type": "address"
        }
      ],
      "stateMutability": "view",
      "type": "function"
    },
    {
      "inputs": [
        {
          "internalType": "uint256",
          "name": "",
          "type": "uint256"
        },
        {
          "internalType": "address",
          "name": "",
          "type": "address"
        }
      ],
      "name": "reviews",
      "outputs": [
        {
          "internalType": "uint256",
          "name": "learnerAgency",
          "type": "uint256"
        },
        {
          "internalType": "uint256",
          "name": "criticalThinking",
          "type": "uint256"
        },
        {
          "internalType": "uint256",
          "name": "collaborativeLearning",
          "type": "uint256"
        },
        {
          "internalType": "uint256",
          "name": "reflectivePractice",
          "type": "uint256"
        },
        {
          "internalType": "uint256",
          "name": "adaptiveLearning",
          "type": "uint256"
        },
        {
          "internalType": "uint256",
          "name": "authenticLearning",
          "type": "uint256"
        },
        {
          "internalType": "uint256",
          "name": "technologyIntegration",
          "type": "uint256"
        },
        {
          "internalType": "uint256",
          "name": "learnerSupport",
          "type": "uint256"
        },
        {
          "internalType": "uint256",
          "name": "assessmentForLearning",
          "type": "uint256"
        },
        {
          "internalType": "uint256",
          "name": "engagementAndMotivation",
          "type": "uint256"
        },
        {
          "internalType": "bool",
          "name": "isSubmitted",
          "type": "bool"
        }
      ],
      "stateMutability": "view",
      "type": "function"
    },
    {
      "inputs": [
        {
          "internalType": "bytes32",
          "name": "role",
          "type": "bytes32"
        },
        {
          "internalType": "address",
          "name": "account",
          "type": "address"
        }
      ],
      "name": "revokeRole",
      "outputs": [],
      "stateMutability": "nonpayable",
      "type": "function"
    },
    {
      "inputs": [
        {
          "internalType": "uint256",
          "name": "courseId",
          "type": "uint256"
        }
      ],
      "name": "selectCourseReviewers",
      "outputs": [],
      "stateMutability": "nonpayable",
      "type": "function"
    },
    {
      "inputs": [
        {
          "internalType": "uint256",
          "name": "_quizId",
          "type": "uint256"
        },
        {
          "internalType": "uint256[]",
          "name": "_answers",
          "type": "uint256[]"
        }
      ],
      "name": "submitQuiz",
      "outputs": [
        {
          "internalType": "uint256",
          "name": "score",
          "type": "uint256"
        }
      ],
      "stateMutability": "nonpayable",
      "type": "function"
    },
    {
      "inputs": [
        {
          "internalType": "uint256",
          "name": "courseId",
          "type": "uint256"
        },
        {
          "internalType": "uint256",
          "name": "learnerAgency",
          "type": "uint256"
        },
        {
          "internalType": "uint256",
          "name": "criticalThinking",
          "type": "uint256"
        },
        {
          "internalType": "uint256",
          "name": "collaborativeLearning",
          "type": "uint256"
        },
        {
          "internalType": "uint256",
          "name": "reflectivePractice",
          "type": "uint256"
        },
        {
          "internalType": "uint256",
          "name": "adaptiveLearning",
          "type": "uint256"
        },
        {
          "internalType": "uint256",
          "name": "authenticLearning",
          "type": "uint256"
        },
        {
          "internalType": "uint256",
          "name": "technologyIntegration",
          "type": "uint256"
        },
        {
          "internalType": "uint256",
          "name": "learnerSupport",
          "type": "uint256"
        },
        {
          "internalType": "uint256",
          "name": "assessmentForLearning",
          "type": "uint256"
        },
        {
          "internalType": "uint256",
          "name": "engagementAndMotivation",
          "type": "uint256"
        }
      ],
      "name": "submitReview",
      "outputs": [],
      "stateMutability": "nonpayable",
      "type": "function"
    },
    {
      "inputs": [
        {
          "internalType": "bytes4",
          "name": "interfaceId",
          "type": "bytes4"
        }
      ],
      "name": "supportsInterface",
      "outputs": [
        {
          "internalType": "bool",
          "name": "",
          "type": "bool"
        }
      ],
      "stateMutability": "view",
      "type": "function"
    },
    {
      "inputs": [],
      "name": "symbol",
      "outputs": [
        {
          "internalType": "string",
          "name": "",
          "type": "string"
        }
      ],
      "stateMutability": "view",
      "type": "function"
    },
    {
      "inputs": [],
      "name": "totalSupply",
      "outputs": [
        {
          "internalType": "uint256",
          "name": "",
          "type": "uint256"
        }
      ],
      "stateMutability": "view",
      "type": "function"
    },
    {
      "inputs": [
        {
          "internalType": "address",
          "name": "to",
          "type": "address"
        },
        {
          "internalType": "uint256",
          "name": "value",
          "type": "uint256"
        }
      ],
      "name": "transfer",
      "outputs": [
        {
          "internalType": "bool",
          "name": "",
          "type": "bool"
        }
      ],
      "stateMutability": "nonpayable",
      "type": "function"
    },
    {
      "inputs": [
        {
          "internalType": "address",
          "name": "from",
          "type": "address"
        },
        {
          "internalType": "address",
          "name": "to",
          "type": "address"
        },
        {
          "internalType": "uint256",
          "name": "value",
          "type": "uint256"
        }
      ],
      "name": "transferFrom",
      "outputs": [
        {
          "internalType": "bool",
          "name": "",
          "type": "bool"
        }
      ],
      "stateMutability": "nonpayable",
      "type": "function"
    },
    {
      "inputs": [
        {
          "internalType": "address",
          "name": "",
          "type": "address"
        },
        {
          "internalType": "uint256",
          "name": "",
          "type": "uint256"
        }
      ],
      "name": "userScores",
      "outputs": [
        {
          "internalType": "uint256",
          "name": "",
          "type": "uint256"
        }
      ],
      "stateMutability": "view",
      "type": "function"
    }
  ],
  "bytecode": "0x608060405234801561001057600080fd5b50604051619c15380380619c158339818101604052810190610032919061060a565b80806040518060400160405280600a81526020017f4142594120544f4b454e000000000000000000000000000000000000000000008152506040518060400160405280600681526020017f414259544b4e000000000000000000000000000000000000000000000000000081525081600390816100af9190610874565b5080600490816100bf9190610874565b505050600481511015610107576040517f08c379a00000000000000000000000000000000000000000000000000000000081526004016100fe906109c9565b60405180910390fd5b61011a6000801b3361028f60201b60201c565b5060005b815181101561026e576101717fc10c77be35aff266144ed64c26a1fa104bae2f284ae99ac4a34203454704a18583838151811061015e5761015d6109e9565b5b602002602001015161028f60201b60201c565b506006828281518110610187576101866109e9565b5b60200260200101519080600181540180825580915050600190039060005260206000200160009091909190916101000a81548173ffffffffffffffffffffffffffffffffffffffff021916908373ffffffffffffffffffffffffffffffffffffffff160217905550600160076000848481518110610208576102076109e9565b5b602002602001015173ffffffffffffffffffffffffffffffffffffffff1673ffffffffffffffffffffffffffffffffffffffff16815260200190815260200160002060006101000a81548160ff021916908315150217905550808060010191505061011e565b50506001600881905550610288600961038d60201b60201c565b5050610a18565b60006102a183836103cc60201b60201c565b6103825760016005600085815260200190815260200160002060000160008473ffffffffffffffffffffffffffffffffffffffff1673ffffffffffffffffffffffffffffffffffffffff16815260200190815260200160002060006101000a81548160ff02191690831515021790555061031f61043760201b60201c565b73ffffffffffffffffffffffffffffffffffffffff168273ffffffffffffffffffffffffffffffffffffffff16847f2f8788117e7eff1d82e926ec794901d17c78024a50270940304540a733656f0d60405160405180910390a460019050610387565b600090505b92915050565b60018160000181905550600181600101819055506001816002018190555060018160030181905550600181600401819055506001816005018190555050565b60006005600084815260200190815260200160002060000160008373ffffffffffffffffffffffffffffffffffffffff1673ffffffffffffffffffffffffffffffffffffffff16815260200190815260200160002060009054906101000a900460ff16905092915050565b600033905090565b6000604051905090565b600080fd5b600080fd5b600080fd5b6000601f19601f8301169050919050565b7f4e487b7100000000000000000000000000000000000000000000000000000000600052604160045260246000fd5b6104a182610458565b810181811067ffffffffffffffff821117156104c0576104bf610469565b5b80604052505050565b60006104d361043f565b90506104df8282610498565b919050565b600067ffffffffffffffff8211156104ff576104fe610469565b5b602082029050602081019050919050565b600080fd5b600073ffffffffffffffffffffffffffffffffffffffff82169050919050565b600061054082610515565b9050919050565b61055081610535565b811461055b57600080fd5b50565b60008151905061056d81610547565b92915050565b6000610586610581846104e4565b6104c9565b905080838252602082019050602084028301858111156105a9576105a8610510565b5b835b818110156105d257806105be888261055e565b8452602084019350506020810190506105ab565b5050509392505050565b600082601f8301126105f1576105f0610453565b5b8151610601848260208601610573565b91505092915050565b6000602082840312156106205761061f610449565b5b600082015167ffffffffffffffff81111561063e5761063d61044e565b5b61064a848285016105dc565b91505092915050565b600081519050919050565b7f4e487b7100000000000000000000000000000000000000000000000000000000600052602260045260246000fd5b600060028204905060018216806106a557607f821691505b6020821081036106b8576106b761065e565b5b50919050565b60008190508160005260206000209050919050565b60006020601f8301049050919050565b600082821b905092915050565b6000600883026107207fffffffffffffffffffffffffffffffffffffffffffffffffffffffffffffffff826106e3565b61072a86836106e3565b95508019841693508086168417925050509392505050565b6000819050919050565b6000819050919050565b600061077161076c61076784610742565b61074c565b610742565b9050919050565b6000819050919050565b61078b83610756565b61079f61079782610778565b8484546106f0565b825550505050565b600090565b6107b46107a7565b6107bf818484610782565b505050565b5b818110156107e3576107d86000826107ac565b6001810190506107c5565b5050565b601f821115610828576107f9816106be565b610802846106d3565b81016020851015610811578190505b61082561081d856106d3565b8301826107c4565b50505b505050565b600082821c905092915050565b600061084b6000198460080261082d565b1980831691505092915050565b6000610864838361083a565b9150826002028217905092915050565b61087d82610653565b67ffffffffffffffff81111561089657610895610469565b5b6108a0825461068d565b6108ab8282856107e7565b600060209050601f8311600181146108de57600084156108cc578287015190505b6108d68582610858565b86555061093e565b601f1984166108ec866106be565b60005b82811015610914578489015182556001820191506020850194506020810190506108ef565b86831015610931578489015161092d601f89168261083a565b8355505b6001600288020188555050505b505050505050565b600082825260208201905092915050565b7f4174206c6561737420342072657669657765727320617265207265717569726560008201527f6400000000000000000000000000000000000000000000000000000000000000602082015250565b60006109b3602183610946565b91506109be82610957565b604082019050919050565b600060208201905081810360008301526109e2816109a6565b9050919050565b7f4e487b7100000000000000000000000000000000000000000000000000000000600052603260045260246000fd5b6191ee80610a276000396000f3fe608060405234801561001057600080fd5b50600436106104ac5760003560e01c8063752849981161026d578063c12804fb11610151578063dd62ed3e116100ce578063e503f10811610092578063e503f10814611104578063e863975114611122578063ea0978ad14611152578063eb264b9c14611182578063fdc6258a146111a0578063ffabc673146111d0576104ac565b8063dd62ed3e14611024578063ddfc79fb14611054578063de5dc3a014611086578063ded5c18d146110b6578063e09bcae3146110d4576104ac565b8063c9442dac11610115578063c9442dac14610f6e578063c976831514610f8a578063cc44e73714610fba578063d547741f14610fea578063d93f2caa14611006576104ac565b8063c12804fb14610e85578063c293bbbe14610ebf578063c491b04c14610eef578063c7954e4c14610f1f578063c90c884d14610f3d576104ac565b80639dad8d22116101ea578063a26a7953116101ae578063a26a795314610d73578063a3ef204114610da3578063a9059cbb14610dd4578063aa95da3a14610e04578063ac957c6314610e34578063bfd2f4c514610e52576104ac565b80639dad8d2214610ca7578063a1051dfe14610cd7578063a14ecbdf14610d07578063a1cd05b114610d25578063a217fddf14610d55576104ac565b806388a8270f1161023157806388a8270f14610bef5780638ea6e2fd14610c1f57806391d1485414610c3b5780639560bc8514610c6b57806395d89b4114610c89576104ac565b80637528499814610b485780637ce1785214610b645780637d83daf214610b82578063846f815214610ba057806388409afa14610bbe576104ac565b806332cb6b0c1161039457806351d93c811161031157806366055159116102d55780636605515914610a55578063663b3e2214610a735780636b000fa714610aa95780636fdb67f714610ac757806370a0823114610afc57806373a82b5f14610b2c576104ac565b806351d93c811461098a57806358a3fa25146109bb578063599c5533146109d75780635b680a45146109f55780635cc2a14d14610a25576104ac565b80633693dcfa116103585780633693dcfa146108bd5780633b129a56146108db5780634d42ef48146108f95780634dd84b3c146109295780634fb95abd14610959576104ac565b806332cb6b0c1461080757806334b159dd1461082557806334ed4bdb1461085557806334f9b3fb1461088557806336568abe146108a1576104ac565b8063248a9ca31161042d57806329a0be65116103f157806329a0be651461071b5780632aac61ae146107395780632ec63a0e1461076c5780632f2ff15d1461079c578063313ce567146107b857806331b1b978146107d6576104ac565b8063248a9ca314610649578063274202f01461067957806327ff622314610697578063295b825a146106b55780632990db7c146106e6576104ac565b806311ce15df1161047457806311ce15df1461056b57806313e858111461059b57806318160ddd146105cb57806319f102ec146105e957806323b872dd14610619576104ac565b806301ffc9a7146104b157806304e48bd1146104e1578063057f46bb146104ff57806306fdde031461051d578063095ea7b31461053b575b600080fd5b6104cb60048036038101906104c691906168db565b611200565b6040516104d89190616923565b60405180910390f35b6104e961127a565b6040516104f69190616b89565b60405180910390f35b61050761157c565b6040516105149190616bba565b60405180910390f35b610525611582565b6040516105329190616c1f565b60405180910390f35b61055560048036038101906105509190616c99565b611614565b6040516105629190616923565b60405180910390f35b61058560048036038101906105809190616cd9565b611637565b6040516105929190616923565b60405180910390f35b6105b560048036038101906105b09190616d06565b611657565b6040516105c29190616923565b60405180910390f35b6105d3611686565b6040516105e09190616bba565b60405180910390f35b61060360048036038101906105fe9190616cd9565b611690565b6040516106109190616d55565b60405180910390f35b610633600480360381019061062e9190616d70565b6116cf565b6040516106409190616923565b60405180910390f35b610663600480360381019061065e9190616df9565b6116fe565b6040516106709190616e35565b60405180910390f35b61068161171e565b60405161068e9190616bba565b60405180910390f35b61069f611746565b6040516106ac9190616bba565b60405180910390f35b6106cf60048036038101906106ca9190616cd9565b61174b565b6040516106dd929190616e50565b60405180910390f35b61070060048036038101906106fb9190616cd9565b611807565b60405161071296959493929190616e80565b60405180910390f35b610723611980565b6040516107309190616bba565b60405180910390f35b610753600480360381019061074e9190616cd9565b611986565b6040516107639493929190616eef565b60405180910390f35b61078660048036038101906107819190616f42565b611ad6565b6040516107939190616923565b60405180910390f35b6107b660048036038101906107b19190616f82565b611c7b565b005b6107c0611c9d565b6040516107cd9190616fde565b60405180910390f35b6107f060048036038101906107eb9190616cd9565b611ca6565b6040516107fe929190616e50565b60405180910390f35b61080f611d51565b60405161081c9190616bba565b60405180910390f35b61083f600480360381019061083a9190616d06565b611d61565b60405161084c9190616923565b60405180910390f35b61086f600480360381019061086a9190616ff9565b611d90565b60405161087c9190616bba565b60405180910390f35b61089f600480360381019061089a919061715b565b611dae565b005b6108bb60048036038101906108b69190616f82565b611eec565b005b6108c5611f67565b6040516108d29190616e35565b60405180910390f35b6108e3611f8b565b6040516108f09190616e35565b60405180910390f35b610913600480360381019061090e9190616f42565b611faf565b6040516109209190616c1f565b60405180910390f35b610943600480360381019061093e9190616d06565b612068565b6040516109509190616923565b60405180910390f35b610973600480360381019061096e91906171ca565b612097565b604051610981929190617343565b60405180910390f35b6109a4600480360381019061099f9190616cd9565b6123ea565b6040516109b2929190616e50565b60405180910390f35b6109d560048036038101906109d09190617373565b6124a6565b005b6109df61276c565b6040516109ec9190616bba565b60405180910390f35b610a0f6004803603810190610a0a9190616c99565b612771565b604051610a1c9190616bba565b60405180910390f35b610a3f6004803603810190610a3a9190617467565b612796565b604051610a4c9190616923565b60405180910390f35b610a5d612882565b604051610a6a9190616bba565b60405180910390f35b610a8d6004803603810190610a889190616cd9565b612888565b604051610aa097969594939291906174c3565b60405180910390f35b610ab1612a82565b604051610abe9190616bba565b60405180910390f35b610ae16004803603810190610adc9190616cd9565b612a88565b604051610af396959493929190616e80565b60405180910390f35b610b166004803603810190610b119190616ff9565b612c11565b604051610b239190616bba565b60405180910390f35b610b466004803603810190610b419190616ff9565b612c59565b005b610b626004803603810190610b5d9190616cd9565b612e3d565b005b610b6c613057565b604051610b799190616bba565b60405180910390f35b610b8a613063565b604051610b979190616bba565b60405180910390f35b610ba8613069565b604051610bb59190616bba565b60405180910390f35b610bd86004803603810190610bd39190616cd9565b613075565b604051610be6929190616e50565b60405180910390f35b610c096004803603810190610c049190616f42565b613121565b604051610c169190616923565b60405180910390f35b610c396004803603810190610c349190616cd9565b6133a2565b005b610c556004803603810190610c509190616f82565b61370c565b604051610c629190616923565b60405180910390f35b610c73613777565b604051610c809190616bba565b60405180910390f35b610c91613783565b604051610c9e9190616c1f565b60405180910390f35b610cc16004803603810190610cbc9190616cd9565b613815565b604051610cce9190616923565b60405180910390f35b610cf16004803603810190610cec9190616f42565b613b6d565b604051610cfe9190616923565b60405180910390f35b610d0f613e33565b604051610d1c9190616bba565b60405180910390f35b610d3f6004803603810190610d3a9190616f42565b613e39565b604051610d4c9190616d55565b60405180910390f35b610d5d613e87565b604051610d6a9190616e35565b60405180910390f35b610d8d6004803603810190610d889190617547565b613e8e565b604051610d9a9190616923565b60405180910390f35b610dbd6004803603810190610db89190616cd9565b614265565b604051610dcb929190616e50565b60405180910390f35b610dee6004803603810190610de99190616c99565b614311565b604051610dfb9190616923565b60405180910390f35b610e1e6004803603810190610e199190616f42565b614334565b604051610e2b9190616c1f565b60405180910390f35b610e3c6143ed565b604051610e499190616bba565b60405180910390f35b610e6c6004803603810190610e679190616cd9565b6143f2565b604051610e7c9493929190616eef565b60405180910390f35b610e9f6004803603810190610e9a9190616d06565b614532565b604051610eb69b9a999897969594939291906175bf565b60405180910390f35b610ed96004803603810190610ed49190616cd9565b6145a6565b604051610ee69190617719565b60405180910390f35b610f096004803603810190610f049190616ff9565b614647565b604051610f169190616923565b60405180910390f35b610f27614667565b604051610f349190616bba565b60405180910390f35b610f576004803603810190610f529190616cd9565b614671565b604051610f65929190616e50565b60405180910390f35b610f886004803603810190610f839190616ff9565b61472d565b005b610fa46004803603810190610f9f9190616d06565b614a17565b604051610fb19190616923565b60405180910390f35b610fd46004803603810190610fcf91906178e3565b614a46565b604051610fe19190616923565b60405180910390f35b6110046004803603810190610fff9190616f82565b614c6a565b005b61100e614c8c565b60405161101b9190616bba565b60405180910390f35b61103e6004803603810190611039919061799e565b614c98565b60405161104b9190616bba565b60405180910390f35b61106e60048036038101906110699190616cd9565b614d1f565b60405161107d939291906179de565b60405180910390f35b6110a0600480360381019061109b9190617aed565b614ef1565b6040516110ad9190616bba565b60405180910390f35b6110be61519b565b6040516110cb9190616bba565b60405180910390f35b6110ee60048036038101906110e99190616f42565b6151a8565b6040516110fb9190616923565b60405180910390f35b61110c615413565b6040516111199190616bba565b60405180910390f35b61113c6004803603810190611137919061715b565b615419565b6040516111499190616923565b60405180910390f35b61116c60048036038101906111679190616f42565b615507565b6040516111799190616923565b60405180910390f35b61118a61577e565b6040516111979190616bba565b60405180910390f35b6111ba60048036038101906111b59190616ff9565b615784565b6040516111c79190616923565b60405180910390f35b6111ea60048036038101906111e59190616c99565b6157b7565b6040516111f79190616923565b60405180910390f35b60007f7965db0b000000000000000000000000000000000000000000000000000000007bffffffffffffffffffffffffffffffffffffffffffffffffffffffff1916827bffffffffffffffffffffffffffffffffffffffffffffffffffffffff191614806112735750611272826157e6565b5b9050919050565b6060600060248054905067ffffffffffffffff81111561129d5761129c617030565b5b6040519080825280602002602001820160405280156112d657816020015b6112c3616487565b8152602001906001900390816112bb5790505b50905060005b602480549050811015611574576040518060c001604052806024838154811061130857611307617b49565b5b90600052602060002090600602016000015481526020016024838154811061133357611332617b49565b5b9060005260206000209060060201600101805461134f90617ba7565b80601f016020809104026020016040519081016040528092919081815260200182805461137b90617ba7565b80156113c85780601f1061139d576101008083540402835291602001916113c8565b820191906000526020600020905b8154815290600101906020018083116113ab57829003601f168201915b50505050508152602001602483815481106113e6576113e5617b49565b5b9060005260206000209060060201600201805461140290617ba7565b80601f016020809104026020016040519081016040528092919081815260200182805461142e90617ba7565b801561147b5780601f106114505761010080835404028352916020019161147b565b820191906000526020600020905b81548152906001019060200180831161145e57829003601f168201915b505050505081526020016024838154811061149957611498617b49565b5b906000526020600020906006020160030160009054906101000a900460ff1615158152602001602483815481106114d3576114d2617b49565b5b9060005260206000209060060201600401548152602001602483815481106114fe576114fd617b49565b5b906000526020600020906006020160050160009054906101000a900473ffffffffffffffffffffffffffffffffffffffff1673ffffffffffffffffffffffffffffffffffffffff1681525082828151811061155c5761155b617b49565b5b602002602001018190525080806001019150506112dc565b508091505090565b60125481565b60606003805461159190617ba7565b80601f01602080910402602001604051908101604052809291908181526020018280546115bd90617ba7565b801561160a5780601f106115df5761010080835404028352916020019161160a565b820191906000526020600020905b8154815290600101906020018083116115ed57829003601f168201915b5050505050905090565b60008061161f615850565b905061162c818585615858565b600191505092915050565b60226020528060005260406000206000915054906101000a900460ff1681565b602b6020528160005260406000206020528060005260406000206000915091509054906101000a900460ff1681565b6000600254905090565b600681815481106116a057600080fd5b906000526020600020016000915054906101000a900473ffffffffffffffffffffffffffffffffffffffff1681565b6000806116da615850565b90506116e785828561586a565b6116f28585856158fe565b60019150509392505050565b600060056000838152602001908152602001600020600101549050919050565b6064600f6b204fce5e3e250261100000006117399190617c07565b6117439190617c78565b81565b606481565b6028818154811061175b57600080fd5b906000526020600020906003020160009150905080600001549080600101805461178490617ba7565b80601f01602080910402602001604051908101604052809291908181526020018280546117b090617ba7565b80156117fd5780601f106117d2576101008083540402835291602001916117fd565b820191906000526020600020905b8154815290600101906020018083116117e057829003601f168201915b5050505050905082565b601760205280600052604060002060009150905080600001549080600101805461183090617ba7565b80601f016020809104026020016040519081016040528092919081815260200182805461185c90617ba7565b80156118a95780601f1061187e576101008083540402835291602001916118a9565b820191906000526020600020905b81548152906001019060200180831161188c57829003601f168201915b5050505050908060020180546118be90617ba7565b80601f01602080910402602001604051908101604052809291908181526020018280546118ea90617ba7565b80156119375780601f1061190c57610100808354040283529160200191611937565b820191906000526020600020905b81548152906001019060200180831161191a57829003601f168201915b5050505050908060030160009054906101000a900460ff16908060040154908060050160009054906101000a900473ffffffffffffffffffffffffffffffffffffffff16905086565b60135481565b6026818154811061199657600080fd5b90600052602060002090602202016000915090508060000154908060010180546119bf90617ba7565b80601f01602080910402602001604051908101604052809291908181526020018280546119eb90617ba7565b8015611a385780601f10611a0d57610100808354040283529160200191611a38565b820191906000526020600020905b815481529060010190602001808311611a1b57829003601f168201915b505050505090806002018054611a4d90617ba7565b80601f0160208091040260200160405190810160405280929190818152602001828054611a7990617ba7565b8015611ac65780601f10611a9b57610100808354040283529160200191611ac6565b820191906000526020600020905b815481529060010190602001808311611aa957829003601f168201915b5050505050908060210154905084565b6000602b600083815260200190815260200160002060003373ffffffffffffffffffffffffffffffffffffffff1673ffffffffffffffffffffffffffffffffffffffff16815260200190815260200160002060009054906101000a900460ff1615611b76576040517f08c379a0000000000000000000000000000000000000000000000000000000008152600401611b6d90617d1b565b60405180910390fd5b6000601d60008481526020019081526020016000206000015403611bcf576040517f08c379a0000000000000000000000000000000000000000000000000000000008152600401611bc690617d87565b60405180910390fd5b6001602b600084815260200190815260200160002060003373ffffffffffffffffffffffffffffffffffffffff1673ffffffffffffffffffffffffffffffffffffffff16815260200190815260200160002060006101000a81548160ff02191690831515021790555081837f2479aa0d18311382446edb0fa11d0dbd5bab1be78b1e60b343ffe4d2a5f798ad33604051611c699190616d55565b60405180910390a36001905092915050565b611c84826116fe565b611c8d816159f2565b611c978383615a06565b50505050565b60006012905090565b60208052806000526040600020600091509050806000015490806001018054611cce90617ba7565b80601f0160208091040260200160405190810160405280929190818152602001828054611cfa90617ba7565b8015611d475780601f10611d1c57610100808354040283529160200191611d47565b820191906000526020600020905b815481529060010190602001808311611d2a57829003601f168201915b5050505050905082565b6b204fce5e3e2502611000000081565b602d6020528160005260406000206020528060005260406000206000915091509054906101000a900460ff1681565b60196020528060005260406000206000915090508060000154905081565b7fadb22091b155738d2e889eb96f509d2a7c93234236b30400927feb4a6a15ab00611dd8816159f2565b6000601f60008581526020019081526020016000206000015403611e31576040517f08c379a0000000000000000000000000000000000000000000000000000000008152600401611e2890617df3565b60405180910390fd5b82601f60008581526020019081526020016000206000015414611e89576040517f08c379a0000000000000000000000000000000000000000000000000000000008152600401611e8090617e5f565b60405180910390fd5b81601f60008581526020019081526020016000206001019081611eac919061802b565b5082847fad5fab99ac4d99e1061fd121b36537d5213be564a3dc6cc383897dc355e89ff584604051611ede9190616c1f565b60405180910390a350505050565b611ef4615850565b73ffffffffffffffffffffffffffffffffffffffff168173ffffffffffffffffffffffffffffffffffffffff1614611f58576040517f6697b23200000000000000000000000000000000000000000000000000000000815260040160405180910390fd5b611f628282615af8565b505050565b7fadb22091b155738d2e889eb96f509d2a7c93234236b30400927feb4a6a15ab0081565b7fc10c77be35aff266144ed64c26a1fa104bae2f284ae99ac4a34203454704a18581565b601c6020528160005260406000208181548110611fcb57600080fd5b90600052602060002001600091509150508054611fe790617ba7565b80601f016020809104026020016040519081016040528092919081815260200182805461201390617ba7565b80156120605780601f1061203557610100808354040283529160200191612060565b820191906000526020600020905b81548152906001019060200180831161204357829003601f168201915b505050505081565b602a6020528160005260406000206020528060005260406000206000915091509054906101000a900460ff1681565b60006120a16164d5565b6023600088815260200190815260200160002060003373ffffffffffffffffffffffffffffffffffffffff1673ffffffffffffffffffffffffffffffffffffffff16815260200190815260200160002060009054906101000a900460ff1661213e576040517f08c379a00000000000000000000000000000000000000000000000000000000081526004016121359061816f565b60405180910390fd5b602a600088815260200190815260200160002060003373ffffffffffffffffffffffffffffffffffffffff1673ffffffffffffffffffffffffffffffffffffffff16815260200190815260200160002060009054906101000a900460ff16156121dc576040517f08c379a00000000000000000000000000000000000000000000000000000000081526004016121d390618201565b60405180910390fd5b6001602a600089815260200190815260200160002060003373ffffffffffffffffffffffffffffffffffffffff1673ffffffffffffffffffffffffffffffffffffffff16815260200190815260200160002060006101000a81548160ff02191690831515021790555061225733671bc16d674ec80000615beb565b5060008787878787426040516020016122759695949392919061827e565b6040516020818303038152906040528051906020012060001c905060006040518060e001604052808381526020018a81526020018981526020018781526020018681526020018881526020013373ffffffffffffffffffffffffffffffffffffffff16815250905080602e60008481526020019081526020016000206000820151816000015560208201518160010155604082015181600201908161231a919061802b565b506060820151816003019081612330919061802b565b506080820151816004015560a0820151816005019081612350919061802b565b5060c08201518160060160006101000a81548173ffffffffffffffffffffffffffffffffffffffff021916908373ffffffffffffffffffffffffffffffffffffffff1602179055509050507f95ad50d6596337460bdce4b8db70313463e0615be9266b573e781327aef44e098288888b6040516123d094939291906182e2565b60405180910390a181819350935050509550959350505050565b602981815481106123fa57600080fd5b906000526020600020906003020160009150905080600001549080600101805461242390617ba7565b80601f016020809104026020016040519081016040528092919081815260200182805461244f90617ba7565b801561249c5780601f106124715761010080835404028352916020019161249c565b820191906000526020600020905b81548152906001019060200180831161247f57829003601f168201915b5050505050905082565b7fc10c77be35aff266144ed64c26a1fa104bae2f284ae99ac4a34203454704a1856124d0816159f2565b6124da8c33615cd8565b612519576040517f08c379a0000000000000000000000000000000000000000000000000000000008152600401612510906183ae565b60405180910390fd5b601860008d815260200190815260200160002060003373ffffffffffffffffffffffffffffffffffffffff1673ffffffffffffffffffffffffffffffffffffffff168152602001908152602001600020600a0160009054906101000a900460ff16156125ba576040517f08c379a00000000000000000000000000000000000000000000000000000000081526004016125b190618440565b60405180910390fd5b6125cc8b8b8b8b8b8b8b8b8b8b615da3565b6040518061016001604052808c81526020018b81526020018a815260200189815260200188815260200187815260200186815260200185815260200184815260200183815260200160011515815250601860008e815260200190815260200160002060003373ffffffffffffffffffffffffffffffffffffffff1673ffffffffffffffffffffffffffffffffffffffff168152602001908152602001600020600082015181600001556020820151816001015560408201518160020155606082015181600301556080820151816004015560a0820151816005015560c0820151816006015560e082015181600701556101008201518160080155610120820151816009015561014082015181600a0160006101000a81548160ff021916908315150217905550905050605061274f601860008f815260200190815260200160002060003373ffffffffffffffffffffffffffffffffffffffff1673ffffffffffffffffffffffffffffffffffffffff168152602001908152602001600020615e68565b1061275e5761275d8c612e3d565b5b505050505050505050505050565b600281565b602c602052816000526040600020602052806000526040600020600091509150505481565b60007fadb22091b155738d2e889eb96f509d2a7c93234236b30400927feb4a6a15ab006127c2816159f2565b600060176000868152602001908152602001600020600001540361281b576040517f08c379a0000000000000000000000000000000000000000000000000000000008152600401612812906184ac565b60405180910390fd5b8260176000868152602001908152602001600020600101908161283e919061802b565b50837f5c8c98b6b26236296c856fae8a5ca0c793bbb81c5f8b7c9a9ab99358f53fb0c08460405161286f9190616c1f565b60405180910390a2600191505092915050565b60105481565b602e6020528060005260406000206000915090508060000154908060010154908060020180546128b790617ba7565b80601f01602080910402602001604051908101604052809291908181526020018280546128e390617ba7565b80156129305780601f1061290557610100808354040283529160200191612930565b820191906000526020600020905b81548152906001019060200180831161291357829003601f168201915b50505050509080600301805461294590617ba7565b80601f016020809104026020016040519081016040528092919081815260200182805461297190617ba7565b80156129be5780601f10612993576101008083540402835291602001916129be565b820191906000526020600020905b8154815290600101906020018083116129a157829003601f168201915b5050505050908060040154908060050180546129d990617ba7565b80601f0160208091040260200160405190810160405280929190818152602001828054612a0590617ba7565b8015612a525780601f10612a2757610100808354040283529160200191612a52565b820191906000526020600020905b815481529060010190602001808311612a3557829003601f168201915b5050505050908060060160009054906101000a900473ffffffffffffffffffffffffffffffffffffffff16905087565b60165481565b60248181548110612a9857600080fd5b9060005260206000209060060201600091509050806000015490806001018054612ac190617ba7565b80601f0160208091040260200160405190810160405280929190818152602001828054612aed90617ba7565b8015612b3a5780601f10612b0f57610100808354040283529160200191612b3a565b820191906000526020600020905b815481529060010190602001808311612b1d57829003601f168201915b505050505090806002018054612b4f90617ba7565b80601f0160208091040260200160405190810160405280929190818152602001828054612b7b90617ba7565b8015612bc85780601f10612b9d57610100808354040283529160200191612bc8565b820191906000526020600020905b815481529060010190602001808311612bab57829003601f168201915b5050505050908060030160009054906101000a900460ff16908060040154908060050160009054906101000a900473ffffffffffffffffffffffffffffffffffffffff16905086565b60008060008373ffffffffffffffffffffffffffffffffffffffff1673ffffffffffffffffffffffffffffffffffffffff168152602001908152602001600020549050919050565b7fc10c77be35aff266144ed64c26a1fa104bae2f284ae99ac4a34203454704a185612c83816159f2565b600760008373ffffffffffffffffffffffffffffffffffffffff1673ffffffffffffffffffffffffffffffffffffffff16815260200190815260200160002060009054906101000a900460ff1615612d10576040517f08c379a0000000000000000000000000000000000000000000000000000000008152600401612d0790618518565b60405180910390fd5b612d3a7fc10c77be35aff266144ed64c26a1fa104bae2f284ae99ac4a34203454704a18583615a06565b506006829080600181540180825580915050600190039060005260206000200160009091909190916101000a81548173ffffffffffffffffffffffffffffffffffffffff021916908373ffffffffffffffffffffffffffffffffffffffff1602179055506001600760008473ffffffffffffffffffffffffffffffffffffffff1673ffffffffffffffffffffffffffffffffffffffff16815260200190815260200160002060006101000a81548160ff0219169083151502179055508173ffffffffffffffffffffffffffffffffffffffff167fe1cb5e1230cc02e62c60b81c1aa5ade512f3eac296edb28628b4cf344f47f93160405160405180910390a25050565b7fc10c77be35aff266144ed64c26a1fa104bae2f284ae99ac4a34203454704a185612e67816159f2565b60006017600084815260200190815260200160002090508060030160009054906101000a900460ff1615612ed0576040517f08c379a0000000000000000000000000000000000000000000000000000000008152600401612ec790618584565b60405180910390fd5b601a60003373ffffffffffffffffffffffffffffffffffffffff1673ffffffffffffffffffffffffffffffffffffffff168152602001908152602001600020600084815260200190815260200160002060009054906101000a900460ff1615612f6e576040517f08c379a0000000000000000000000000000000000000000000000000000000008152600401612f6590618616565b60405180910390fd5b6001601a60003373ffffffffffffffffffffffffffffffffffffffff1673ffffffffffffffffffffffffffffffffffffffff168152602001908152602001600020600085815260200190815260200160002060006101000a81548160ff021916908315150217905550806004016000815480929190612fec90618636565b919050555060028160040154106130525760018160030160006101000a81548160ff0219169083151502179055506130508160050160009054906101000a900473ffffffffffffffffffffffffffffffffffffffff16674563918244f40000615beb565b505b505050565b671bc16d674ec8000081565b60115481565b671bc16d674ec8000081565b601f60205280600052604060002060009150905080600001549080600101805461309e90617ba7565b80601f01602080910402602001604051908101604052809291908181526020018280546130ca90617ba7565b80156131175780601f106130ec57610100808354040283529160200191613117565b820191906000526020600020905b8154815290600101906020018083116130fa57829003601f168201915b5050505050905082565b60007fadb22091b155738d2e889eb96f509d2a7c93234236b30400927feb4a6a15ab0061314d816159f2565b6000601f600086815260200190815260200160002060000154036131a6576040517f08c379a000000000000000000000000000000000000000000000000000000000815260040161319d906186ca565b60405180910390fd5b60006020600085815260200190815260200160002060000154036131ff576040517f08c379a00000000000000000000000000000000000000000000000000000000081526004016131f690618736565b60405180910390fd5b60005b60298054905081101561332a57836029828154811061322457613223617b49565b5b9060005260206000209060030201600001540361331d576029600160298054905061324f9190618756565b815481106132605761325f617b49565b5b90600052602060002090600302016029828154811061328257613281617b49565b5b906000526020600020906003020160008201548160000155600182018160010190816132ae91906187a0565b5060028201816002019080546132c5929190616528565b5090505060298054806132db576132da618888565b5b600190038181906000526020600020906003020160008082016000905560018201600061330891906165c2565b6002820160006133189190616602565b505090555b8080600101915050613202565b506020600084815260200190815260200160002060008082016000905560018201600061335791906165c2565b6002820160006133679190616602565b505082847ff084fa19916f58d56801346cc04ca2d2c28a5531dc7db17ebd2323685518b12660405160405180910390a3600191505092915050565b7fc10c77be35aff266144ed64c26a1fa104bae2f284ae99ac4a34203454704a1856133cc816159f2565b6022600083815260200190815260200160002060009054906101000a900460ff161561342d576040517f08c379a000000000000000000000000000000000000000000000000000000000815260040161342490618903565b60405180910390fd5b60036006805490501015613476576040517f08c379a000000000000000000000000000000000000000000000000000000000815260040161346d9061896f565b60405180910390fd5b6021600083815260200190815260200160002060006134959190616626565b60005b60038110156136725760006006805490504244600680549050856040516020016134c5949392919061898f565b6040516020818303038152906040528051906020012060001c6134e891906189dd565b9050600060068281548110613500576134ff617b49565b5b9060005260206000200160009054906101000a900473ffffffffffffffffffffffffffffffffffffffff1690506000805b60216000888152602001908152602001600020805490508110156135e7578273ffffffffffffffffffffffffffffffffffffffff1660216000898152602001908152602001600020828154811061358b5761358a617b49565b5b9060005260206000200160009054906101000a900473ffffffffffffffffffffffffffffffffffffffff1673ffffffffffffffffffffffffffffffffffffffff16036135da57600191506135e7565b8080600101915050613531565b50806136625760216000878152602001908152602001600020829080600181540180825580915050600190039060005260206000200160009091909190916101000a81548173ffffffffffffffffffffffffffffffffffffffff021916908373ffffffffffffffffffffffffffffffffffffffff1602179055505b5050508080600101915050613498565b5060036021600084815260200190815260200160002080549050036136be5760016022600084815260200190815260200160002060006101000a81548160ff0219169083151502179055505b817fe205dff861c570b8df17e26f893778853f94bb25d2de318755e48eab0b403ff7602160008581526020019081526020016000206040516137009190618afa565b60405180910390a25050565b60006005600084815260200190815260200160002060000160008373ffffffffffffffffffffffffffffffffffffffff1673ffffffffffffffffffffffffffffffffffffffff16815260200190815260200160002060009054906101000a900460ff16905092915050565b670de0b6b3a764000081565b60606004805461379290617ba7565b80601f01602080910402602001604051908101604052809291908181526020018280546137be90617ba7565b801561380b5780601f106137e05761010080835404028352916020019161380b565b820191906000526020600020905b8154815290600101906020018083116137ee57829003601f168201915b5050505050905090565b60007fadb22091b155738d2e889eb96f509d2a7c93234236b30400927feb4a6a15ab00613841816159f2565b600060176000858152602001908152602001600020600001540361389a576040517f08c379a000000000000000000000000000000000000000000000000000000000815260040161389190618b68565b60405180910390fd5b60005b6024805490508111613aa95783602482815481106138be576138bd617b49565b5b90600052602060002090600602016000015403613a9657602460016024805490506138e99190618756565b815481106138fa576138f9617b49565b5b90600052602060002090600602016024828154811061391c5761391b617b49565b5b9060005260206000209060060201600082015481600001556001820181600101908161394891906187a0565b506002820181600201908161395d91906187a0565b506003820160009054906101000a900460ff168160030160006101000a81548160ff021916908315150217905550600482015481600401556005820160009054906101000a900473ffffffffffffffffffffffffffffffffffffffff168160050160006101000a81548173ffffffffffffffffffffffffffffffffffffffff021916908373ffffffffffffffffffffffffffffffffffffffff1602179055509050506024805480613a1157613a10618888565b5b6001900381819060005260206000209060060201600080820160009055600182016000613a3e91906165c2565b600282016000613a4e91906165c2565b6003820160006101000a81549060ff021916905560048201600090556005820160006101000a81549073ffffffffffffffffffffffffffffffffffffffff0219169055505090555b8080613aa190618636565b91505061389d565b5060176000848152602001908152602001600020600080820160009055600182016000613ad691906165c2565b600282016000613ae691906165c2565b6003820160006101000a81549060ff021916905560048201600090556005820160006101000a81549073ffffffffffffffffffffffffffffffffffffffff02191690555050827f50d94198096be9c8aad282f822173f9212251c4d4dc2731fa944f3941749a78d33604051613b5b9190616d55565b60405180910390a26001915050919050565b60007fadb22091b155738d2e889eb96f509d2a7c93234236b30400927feb4a6a15ab00613b99816159f2565b6000601b60008681526020019081526020016000206000015403613bf2576040517f08c379a0000000000000000000000000000000000000000000000000000000008152600401613be990618bd4565b60405180910390fd5b6000601d60008581526020019081526020016000206000015403613c4b576040517f08c379a0000000000000000000000000000000000000000000000000000000008152600401613c4290617d87565b60405180910390fd5b60005b6025805490508111613da35783601d60008381526020019081526020016000206000015403613d905760266001602680549050613c8b9190618756565b81548110613c9c57613c9b617b49565b5b906000526020600020906022020160268281548110613cbe57613cbd617b49565b5b90600052602060002090602202016000820154816000015560018201816001019081613cea91906187a0565b5060028201816002019081613cff91906187a0565b50600382018160030190600a613d16929190616647565b50602182015481602101559050506026805480613d3657613d35618888565b5b6001900381819060005260206000209060220201600080820160009055600182016000613d6391906165c2565b600282016000613d7391906165c2565b600382016000613d8391906166c9565b6021820160009055505090555b8080613d9b90618636565b915050613c4e565b50601d6000848152602001908152602001600020600080820160009055600182016000613dd091906165c2565b600282016000613de091906165c2565b600382016000613df091906166c9565b6021820160009055505082847f1cdc2ff39034471047dd6d36512a12b5c2e9a30137b2e45daecd05383221d97b60405160405180910390a3600191505092915050565b600f5481565b60216020528160005260406000208181548110613e5557600080fd5b906000526020600020016000915091509054906101000a900473ffffffffffffffffffffffffffffffffffffffff1681565b6000801b81565b60008073ffffffffffffffffffffffffffffffffffffffff1660176000601154815260200190815260200160002060050160009054906101000a900473ffffffffffffffffffffffffffffffffffffffff1673ffffffffffffffffffffffffffffffffffffffff1614613f36576040517f08c379a0000000000000000000000000000000000000000000000000000000008152600401613f2d90618c40565b60405180910390fd5b60006040518060c001604052806011548152602001858152602001848152602001600015158152602001600081526020013373ffffffffffffffffffffffffffffffffffffffff16815250905080601760006011548152602001908152602001600020600082015181600001556020820151816001019081613fb8919061802b565b506040820151816002019081613fce919061802b565b5060608201518160030160006101000a81548160ff0219169083151502179055506080820151816004015560a08201518160050160006101000a81548173ffffffffffffffffffffffffffffffffffffffff021916908373ffffffffffffffffffffffffffffffffffffffff160217905550905050602481908060018154018082558091505060019003906000526020600020906006020160009091909190915060008201518160000155602082015181600101908161408e919061802b565b5060408201518160020190816140a4919061802b565b5060608201518160030160006101000a81548160ff0219169083151502179055506080820151816004015560a08201518160050160006101000a81548173ffffffffffffffffffffffffffffffffffffffff021916908373ffffffffffffffffffffffffffffffffffffffff16021790555050506010600081548092919061412b90618636565b91905055506001601960003373ffffffffffffffffffffffffffffffffffffffff1673ffffffffffffffffffffffffffffffffffffffff16815260200190815260200160002060000160008282546141839190618c60565b925050819055506011600081548092919061419d90618636565b91905055506141cc7fadb22091b155738d2e889eb96f509d2a7c93234236b30400927feb4a6a15ab0033615a06565b50836040516141db9190618c94565b604051809103902060016011546141f29190618756565b7f9c93a42b217373d37e6c66ace0a67fe1fa1f78c93164b62417de69c48c0f67e26017600060016011546142269190618756565b815260200190815260200160002060030160009054906101000a900460ff166040516142529190616923565b60405180910390a3600191505092915050565b601b60205280600052604060002060009150905080600001549080600101805461428e90617ba7565b80601f01602080910402602001604051908101604052809291908181526020018280546142ba90617ba7565b80156143075780601f106142dc57610100808354040283529160200191614307565b820191906000526020600020905b8154815290600101906020018083116142ea57829003601f168201915b5050505050905082565b60008061431c615850565b90506143298185856158fe565b600191505092915050565b601e602052816000526040600020818154811061435057600080fd5b9060005260206000200160009150915050805461436c90617ba7565b80601f016020809104026020016040519081016040528092919081815260200182805461439890617ba7565b80156143e55780601f106143ba576101008083540402835291602001916143e5565b820191906000526020600020905b8154815290600101906020018083116143c857829003601f168201915b505050505081565b605081565b601d60205280600052604060002060009150905080600001549080600101805461441b90617ba7565b80601f016020809104026020016040519081016040528092919081815260200182805461444790617ba7565b80156144945780601f1061446957610100808354040283529160200191614494565b820191906000526020600020905b81548152906001019060200180831161447757829003601f168201915b5050505050908060020180546144a990617ba7565b80601f01602080910402602001604051908101604052809291908181526020018280546144d590617ba7565b80156145225780601f106144f757610100808354040283529160200191614522565b820191906000526020600020905b81548152906001019060200180831161450557829003601f168201915b5050505050908060210154905084565b60186020528160005260406000206020528060005260406000206000915091505080600001549080600101549080600201549080600301549080600401549080600501549080600601549080600701549080600801549080600901549080600a0160009054906101000a900460ff1690508b565b60606021600083815260200190815260200160002080548060200260200160405190810160405280929190818152602001828054801561463b57602002820191906000526020600020905b8160009054906101000a900473ffffffffffffffffffffffffffffffffffffffff1673ffffffffffffffffffffffffffffffffffffffff16815260200190600101908083116145f1575b50505050509050919050565b60076020528060005260406000206000915054906101000a900460ff1681565b6000600f54905090565b6025818154811061468157600080fd5b90600052602060002090600202016000915090508060000154908060010180546146aa90617ba7565b80601f01602080910402602001604051908101604052809291908181526020018280546146d690617ba7565b80156147235780601f106146f857610100808354040283529160200191614723565b820191906000526020600020905b81548152906001019060200180831161470657829003601f168201915b5050505050905082565b6000801b61473a816159f2565b600760008373ffffffffffffffffffffffffffffffffffffffff1673ffffffffffffffffffffffffffffffffffffffff16815260200190815260200160002060009054906101000a900460ff166147c6576040517f08c379a00000000000000000000000000000000000000000000000000000000081526004016147bd90618cf7565b60405180910390fd5b60005b60068054905081101561494c578273ffffffffffffffffffffffffffffffffffffffff166006828154811061480157614800617b49565b5b9060005260206000200160009054906101000a900473ffffffffffffffffffffffffffffffffffffffff1673ffffffffffffffffffffffffffffffffffffffff160361493f576006600160068054905061485b9190618756565b8154811061486c5761486b617b49565b5b9060005260206000200160009054906101000a900473ffffffffffffffffffffffffffffffffffffffff16600682815481106148ab576148aa617b49565b5b9060005260206000200160006101000a81548173ffffffffffffffffffffffffffffffffffffffff021916908373ffffffffffffffffffffffffffffffffffffffff160217905550600680548061490557614904618888565b5b6001900381819060005260206000200160006101000a81549073ffffffffffffffffffffffffffffffffffffffff0219169055905561494c565b80806001019150506147c9565b506000600760008473ffffffffffffffffffffffffffffffffffffffff1673ffffffffffffffffffffffffffffffffffffffff16815260200190815260200160002060006101000a81548160ff0219169083151502179055506149cf7fc10c77be35aff266144ed64c26a1fa104bae2f284ae99ac4a34203454704a18583615af8565b508173ffffffffffffffffffffffffffffffffffffffff167f55dba9d79522b91b615629d5f3b10c2fad2d258f1768614f4a52e937ada0d0ba60405160405180910390a25050565b60236020528160005260406000206020528060005260406000206000915091509054906101000a900460ff1681565b60007fadb22091b155738d2e889eb96f509d2a7c93234236b30400927feb4a6a15ab00614a72816159f2565b6000601d60008881526020019081526020016000206000015403614acb576040517f08c379a0000000000000000000000000000000000000000000000000000000008152600401614ac290618d63565b60405180910390fd5b84601d60008881526020019081526020016000206001019081614aee919061802b565b5083601d60008881526020019081526020016000206002019081614b12919061802b565b50600083511115614c2557600a83511115614b62576040517f08c379a0000000000000000000000000000000000000000000000000000000008152600401614b5990618df5565b60405180910390fd5b60005b8351811015614c0757838181518110614b8157614b80617b49565b5b6020026020010151601d600089815260200190815260200160002060030182600a8110614bb157614bb0617b49565b5b600302016000820151816000019081614bca919061802b565b506020820151816001019081614be0919061802b565b506040820151816002019081614bf6919061802b565b509050508080600101915050614b65565b508251601d6000888152602001908152602001600020602101819055505b857f2a39a7cf20a19c3cd9811b72b89fab269dce3aa109f6d2a0631cd3e1f0457e5d86604051614c559190616c1f565b60405180910390a26001915050949350505050565b614c73826116fe565b614c7c816159f2565b614c868383615af8565b50505050565b674563918244f4000081565b6000600160008473ffffffffffffffffffffffffffffffffffffffff1673ffffffffffffffffffffffffffffffffffffffff16815260200190815260200160002060008373ffffffffffffffffffffffffffffffffffffffff1673ffffffffffffffffffffffffffffffffffffffff16815260200190815260200160002054905092915050565b60278181548110614d2f57600080fd5b9060005260206000209060030201600091509050806000018054614d5290617ba7565b80601f0160208091040260200160405190810160405280929190818152602001828054614d7e90617ba7565b8015614dcb5780601f10614da057610100808354040283529160200191614dcb565b820191906000526020600020905b815481529060010190602001808311614dae57829003601f168201915b505050505090806001018054614de090617ba7565b80601f0160208091040260200160405190810160405280929190818152602001828054614e0c90617ba7565b8015614e595780601f10614e2e57610100808354040283529160200191614e59565b820191906000526020600020905b815481529060010190602001808311614e3c57829003601f168201915b505050505090806002018054614e6e90617ba7565b80601f0160208091040260200160405190810160405280929190818152602001828054614e9a90617ba7565b8015614ee75780601f10614ebc57610100808354040283529160200191614ee7565b820191906000526020600020905b815481529060010190602001808311614eca57829003601f168201915b5050505050905083565b600080601f60008581526020019081526020016000209050600081600201805490509050600081855114614f5a576040517f08c379a0000000000000000000000000000000000000000000000000000000008152600401614f5190618e87565b60405180910390fd5b60005b8281101561504d576000846002018281548110614f7d57614f7c617b49565b5b906000526020600020906003020190506000878381518110614fa257614fa1617b49565b5b6020026020010151905081600201805490508110614ff5576040517f08c379a0000000000000000000000000000000000000000000000000000000008152600401614fec90618ef3565b60405180910390fd5b81600201818154811061500b5761500a617b49565b5b906000526020600020906002020160010160009054906101000a900460ff161561503e57838061503a90618636565b9450505b50508080600101915050614f5d565b508160648261505c9190617c07565b6150669190617c78565b9350604b8410615142576001602d600088815260200190815260200160002060003373ffffffffffffffffffffffffffffffffffffffff1673ffffffffffffffffffffffffffffffffffffffff16815260200190815260200160002060006101000a81548160ff02191690831515021790555083602c60003373ffffffffffffffffffffffffffffffffffffffff1673ffffffffffffffffffffffffffffffffffffffff16815260200190815260200160002060008881526020019081526020016000208190555061514033670de0b6b3a7640000615beb565b505b3373ffffffffffffffffffffffffffffffffffffffff167fcce9b9ed7e05afc64f73f1ce3f6ff1011a740b718ae6277a14698a4ef2d62dbf878660405161518a929190618f13565b60405180910390a250505092915050565b6000600960000154905090565b60007fadb22091b155738d2e889eb96f509d2a7c93234236b30400927feb4a6a15ab006151d4816159f2565b7fadb22091b155738d2e889eb96f509d2a7c93234236b30400927feb4a6a15ab006151fe816159f2565b6000601760008781526020019081526020016000206000015403615257576040517f08c379a000000000000000000000000000000000000000000000000000000000815260040161524e90618f88565b60405180910390fd5b6000601b600086815260200190815260200160002060000154036152b0576040517f08c379a00000000000000000000000000000000000000000000000000000000081526004016152a790618bd4565b60405180910390fd5b60005b60258054905081116153aa5784601b6000838152602001908152602001600020600001540361539757602560016025805490506152f09190618756565b8154811061530157615300617b49565b5b90600052602060002090600202016025828154811061532357615322617b49565b5b9060005260206000209060020201600082015481600001556001820181600101908161534f91906187a0565b50905050602580548061536557615364618888565b5b600190038181906000526020600020906002020160008082016000905560018201600061539291906165c2565b505090555b80806153a290618636565b9150506152b3565b50601b60008581526020019081526020016000206000808201600090556001820160006153d791906165c2565b505083857fab6d08543726a41eac26ac96d0b4591127baed3bfb915d2603ccb9fb2440c42560405160405180910390a360019250505092915050565b60145481565b60007fadb22091b155738d2e889eb96f509d2a7c93234236b30400927feb4a6a15ab00615445816159f2565b6000601b6000868152602001908152602001600020600001540361549e576040517f08c379a000000000000000000000000000000000000000000000000000000000815260040161549590618ff4565b60405180910390fd5b82601b600086815260200190815260200160002060010190816154c1919061802b565b5083857f7714a2fe2221824dfd5cd15f7cc29e38ffefcf9b6ad62c216321afcde79cbcfb856040516154f39190616c1f565b60405180910390a360019150509392505050565b60007fadb22091b155738d2e889eb96f509d2a7c93234236b30400927feb4a6a15ab00615533816159f2565b6000601d6000868152602001908152602001600020600001540361558c576040517f08c379a000000000000000000000000000000000000000000000000000000000815260040161558390617d87565b60405180910390fd5b6000601f600085815260200190815260200160002060000154036155e5576040517f08c379a00000000000000000000000000000000000000000000000000000000081526004016155dc90619060565b60405180910390fd5b60005b60258054905081116157065783601f600086815260200190815260200160002060000154036156f357602860016028805490506156259190618756565b8154811061563657615635617b49565b5b90600052602060002090600302016028828154811061565857615657617b49565b5b9060005260206000209060030201600082015481600001556001820181600101908161568491906187a0565b50600282018160020190805461569b9291906166df565b5090505060288054806156b1576156b0618888565b5b60019003818190600052602060002090600302016000808201600090556001820160006156de91906165c2565b6002820160006156ee919061676d565b505090555b80806156fe90618636565b9150506155e8565b50601f600084815260200190815260200160002060008082016000905560018201600061573391906165c2565b600282016000615743919061676d565b505082847f22a69f3183c2804ef4ff588b6321a6351c1863419286c584919ab8f923cbd5a460405160405180910390a3600191505092915050565b60155481565b60006157b07fc10c77be35aff266144ed64c26a1fa104bae2f284ae99ac4a34203454704a1858361370c565b9050919050565b601a6020528160005260406000206020528060005260406000206000915091509054906101000a900460ff1681565b60007f01ffc9a7000000000000000000000000000000000000000000000000000000007bffffffffffffffffffffffffffffffffffffffffffffffffffffffff1916827bffffffffffffffffffffffffffffffffffffffffffffffffffffffff1916149050919050565b600033905090565b6158658383836001615efd565b505050565b60006158768484614c98565b90507fffffffffffffffffffffffffffffffffffffffffffffffffffffffffffffffff81146158f857818110156158e8578281836040517ffb8f41b20000000000000000000000000000000000000000000000000000000081526004016158df93929190619080565b60405180910390fd5b6158f784848484036000615efd565b5b50505050565b600073ffffffffffffffffffffffffffffffffffffffff168373ffffffffffffffffffffffffffffffffffffffff16036159705760006040517f96c6fd1e0000000000000000000000000000000000000000000000000000000081526004016159679190616d55565b60405180910390fd5b600073ffffffffffffffffffffffffffffffffffffffff168273ffffffffffffffffffffffffffffffffffffffff16036159e25760006040517fec442f050000000000000000000000000000000000000000000000000000000081526004016159d99190616d55565b60405180910390fd5b6159ed8383836160d4565b505050565b615a03816159fe615850565b6162f9565b50565b6000615a12838361370c565b615aed5760016005600085815260200190815260200160002060000160008473ffffffffffffffffffffffffffffffffffffffff1673ffffffffffffffffffffffffffffffffffffffff16815260200190815260200160002060006101000a81548160ff021916908315150217905550615a8a615850565b73ffffffffffffffffffffffffffffffffffffffff168273ffffffffffffffffffffffffffffffffffffffff16847f2f8788117e7eff1d82e926ec794901d17c78024a50270940304540a733656f0d60405160405180910390a460019050615af2565b600090505b92915050565b6000615b04838361370c565b15615be05760006005600085815260200190815260200160002060000160008473ffffffffffffffffffffffffffffffffffffffff1673ffffffffffffffffffffffffffffffffffffffff16815260200190815260200160002060006101000a81548160ff021916908315150217905550615b7d615850565b73ffffffffffffffffffffffffffffffffffffffff168273ffffffffffffffffffffffffffffffffffffffff16847ff6391f5c32d9c69d2a47ea670b442974b53935d1edc7fd64eb21e047a839171b60405160405180910390a460019050615be5565b600090505b92915050565b60006064600f6b204fce5e3e25026110000000615c089190617c07565b615c129190617c78565b615c1a614667565b83615c259190618c60565b1115615c66576040517f08c379a0000000000000000000000000000000000000000000000000000000008152600401615c5d90619103565b60405180910390fd5b615c70838361634a565b5081600f6000828254615c839190618c60565b92505081905550818373ffffffffffffffffffffffffffffffffffffffff167fad6ef58d5c294f81258965738e7ae511124139834a8d0b8f8f7327086c82052a60405160405180910390a36001905092915050565b600080600090505b6021600085815260200190815260200160002080549050811015615d97578273ffffffffffffffffffffffffffffffffffffffff16602160008681526020019081526020016000208281548110615d3a57615d39617b49565b5b9060005260206000200160009054906101000a900473ffffffffffffffffffffffffffffffffffffffff1673ffffffffffffffffffffffffffffffffffffffff1603615d8a576001915050615d9d565b8080600101915050615ce0565b50600090505b92915050565b600a8a11158015615db55750600a8911155b8015615dc25750600a8811155b8015615dcf5750600a8711155b8015615ddc5750600a8611155b8015615de95750600a8511155b8015615df65750600a8411155b8015615e035750600a8311155b8015615e105750600a8211155b8015615e1d5750600a8111155b615e5c576040517f08c379a0000000000000000000000000000000000000000000000000000000008152600401615e539061916f565b60405180910390fd5b50505050505050505050565b60008160090154826008015483600701548460060154856005015486600401548760030154886002015489600101548a60000154615ea69190618c60565b615eb09190618c60565b615eba9190618c60565b615ec49190618c60565b615ece9190618c60565b615ed89190618c60565b615ee29190618c60565b615eec9190618c60565b615ef69190618c60565b9050919050565b600073ffffffffffffffffffffffffffffffffffffffff168473ffffffffffffffffffffffffffffffffffffffff1603615f6f5760006040517fe602df05000000000000000000000000000000000000000000000000000000008152600401615f669190616d55565b60405180910390fd5b600073ffffffffffffffffffffffffffffffffffffffff168373ffffffffffffffffffffffffffffffffffffffff1603615fe15760006040517f94280d62000000000000000000000000000000000000000000000000000000008152600401615fd89190616d55565b60405180910390fd5b81600160008673ffffffffffffffffffffffffffffffffffffffff1673ffffffffffffffffffffffffffffffffffffffff16815260200190815260200160002060008573ffffffffffffffffffffffffffffffffffffffff1673ffffffffffffffffffffffffffffffffffffffff1681526020019081526020016000208190555080156160ce578273ffffffffffffffffffffffffffffffffffffffff168473ffffffffffffffffffffffffffffffffffffffff167f8c5be1e5ebec7d5bd14f71427d1e84f3dd0314c0f7b2291e5b200ac8c7c3b925846040516160c59190616bba565b60405180910390a35b50505050565b600073ffffffffffffffffffffffffffffffffffffffff168373ffffffffffffffffffffffffffffffffffffffff160361612657806002600082825461611a9190618c60565b925050819055506161f9565b60008060008573ffffffffffffffffffffffffffffffffffffffff1673ffffffffffffffffffffffffffffffffffffffff168152602001908152602001600020549050818110156161b2578381836040517fe450d38c0000000000000000000000000000000000000000000000000000000081526004016161a993929190619080565b60405180910390fd5b8181036000808673ffffffffffffffffffffffffffffffffffffffff1673ffffffffffffffffffffffffffffffffffffffff16815260200190815260200160002081905550505b600073ffffffffffffffffffffffffffffffffffffffff168273ffffffffffffffffffffffffffffffffffffffff1603616242578060026000828254039250508190555061628f565b806000808473ffffffffffffffffffffffffffffffffffffffff1673ffffffffffffffffffffffffffffffffffffffff168152602001908152602001600020600082825401925050819055505b8173ffffffffffffffffffffffffffffffffffffffff168373ffffffffffffffffffffffffffffffffffffffff167fddf252ad1be2c89b69c2b068fc378daa952ba7f163c4a11628f55a4df523b3ef836040516162ec9190616bba565b60405180910390a3505050565b616303828261370c565b6163465780826040517fe2517d3f00000000000000000000000000000000000000000000000000000000815260040161633d92919061918f565b60405180910390fd5b5050565b60006b204fce5e3e25026110000000616361611686565b8361636c9190618c60565b11156163ad576040517f08c379a00000000000000000000000000000000000000000000000000000000081526004016163a490619103565b60405180910390fd5b6163b78383616405565b818373ffffffffffffffffffffffffffffffffffffffff167fcda531bfd68624f13205c0a23cd4d5a7f09792cbb399603114f2b04aaa1bf5cf60405160405180910390a36001905092915050565b600073ffffffffffffffffffffffffffffffffffffffff168273ffffffffffffffffffffffffffffffffffffffff16036164775760006040517fec442f0500000000000000000000000000000000000000000000000000000000815260040161646e9190616d55565b60405180910390fd5b616483600083836160d4565b5050565b6040518060c0016040528060008152602001606081526020016060815260200160001515815260200160008152602001600073ffffffffffffffffffffffffffffffffffffffff1681525090565b6040518060e00160405280600081526020016000815260200160608152602001606081526020016000815260200160608152602001600073ffffffffffffffffffffffffffffffffffffffff1681525090565b8280548282559060005260206000209060020281019282156165b15760005260206000209160020282015b828111156165b05782826000820181600001908161657191906187a0565b506001820160009054906101000a900460ff168160010160006101000a81548160ff021916908315150217905550505091600201919060020190616553565b5b5090506165be9190616791565b5090565b5080546165ce90617ba7565b6000825580601f106165e057506165ff565b601f0160209004906000526020600020908101906165fe91906167cc565b5b50565b50805460008255600202906000526020600020908101906166239190616791565b50565b508054600082559060005260206000209081019061664491906167cc565b50565b82600a60030281019282156166b8579160030282015b828111156166b75782826000820181600001908161667b91906187a0565b506001820181600101908161669091906187a0565b50600282018160020190816166a591906187a0565b5050509160030191906003019061665d565b5b5090506166c591906167e9565b5090565b5080600a60030201906166dc91906167e9565b50565b82805482825590600052602060002090600302810192821561675c5760005260206000209160030282015b8281111561675b578282600082015481600001556001820181600101908161673291906187a0565b506002820181600201908054616749929190616528565b5050509160030191906003019061670a565b5b5090506167699190616830565b5090565b508054600082556003029060005260206000209081019061678e9190616830565b50565b5b808211156167c857600080820160006167ab91906165c2565b6001820160006101000a81549060ff021916905550600201616792565b5090565b5b808211156167e55760008160009055506001016167cd565b5090565b5b8082111561682c576000808201600061680391906165c2565b60018201600061681391906165c2565b60028201600061682391906165c2565b506003016167ea565b5090565b5b8082111561686b5760008082016000905560018201600061685291906165c2565b6002820160006168629190616602565b50600301616831565b5090565b6000604051905090565b600080fd5b600080fd5b60007fffffffff0000000000000000000000000000000000000000000000000000000082169050919050565b6168b881616883565b81146168c357600080fd5b50565b6000813590506168d5816168af565b92915050565b6000602082840312156168f1576168f0616879565b5b60006168ff848285016168c6565b91505092915050565b60008115159050919050565b61691d81616908565b82525050565b60006020820190506169386000830184616914565b92915050565b600081519050919050565b600082825260208201905092915050565b6000819050602082019050919050565b6000819050919050565b61697d8161696a565b82525050565b600081519050919050565b600082825260208201905092915050565b60005b838110156169bd5780820151818401526020810190506169a2565b60008484015250505050565b6000601f19601f8301169050919050565b60006169e582616983565b6169ef818561698e565b93506169ff81856020860161699f565b616a08816169c9565b840191505092915050565b616a1c81616908565b82525050565b600073ffffffffffffffffffffffffffffffffffffffff82169050919050565b6000616a4d82616a22565b9050919050565b616a5d81616a42565b82525050565b600060c083016000830151616a7b6000860182616974565b5060208301518482036020860152616a9382826169da565b91505060408301518482036040860152616aad82826169da565b9150506060830151616ac26060860182616a13565b506080830151616ad56080860182616974565b5060a0830151616ae860a0860182616a54565b508091505092915050565b6000616aff8383616a63565b905092915050565b6000602082019050919050565b6000616b1f8261693e565b616b298185616949565b935083602082028501616b3b8561695a565b8060005b85811015616b775784840389528151616b588582616af3565b9450616b6383616b07565b925060208a01995050600181019050616b3f565b50829750879550505050505092915050565b60006020820190508181036000830152616ba38184616b14565b905092915050565b616bb48161696a565b82525050565b6000602082019050616bcf6000830184616bab565b92915050565b600082825260208201905092915050565b6000616bf182616983565b616bfb8185616bd5565b9350616c0b81856020860161699f565b616c14816169c9565b840191505092915050565b60006020820190508181036000830152616c398184616be6565b905092915050565b616c4a81616a42565b8114616c5557600080fd5b50565b600081359050616c6781616c41565b92915050565b616c768161696a565b8114616c8157600080fd5b50565b600081359050616c9381616c6d565b92915050565b60008060408385031215616cb057616caf616879565b5b6000616cbe85828601616c58565b9250506020616ccf85828601616c84565b9150509250929050565b600060208284031215616cef57616cee616879565b5b6000616cfd84828501616c84565b91505092915050565b60008060408385031215616d1d57616d1c616879565b5b6000616d2b85828601616c84565b9250506020616d3c85828601616c58565b9150509250929050565b616d4f81616a42565b82525050565b6000602082019050616d6a6000830184616d46565b92915050565b600080600060608486031215616d8957616d88616879565b5b6000616d9786828701616c58565b9350506020616da886828701616c58565b9250506040616db986828701616c84565b9150509250925092565b6000819050919050565b616dd681616dc3565b8114616de157600080fd5b50565b600081359050616df381616dcd565b92915050565b600060208284031215616e0f57616e0e616879565b5b6000616e1d84828501616de4565b91505092915050565b616e2f81616dc3565b82525050565b6000602082019050616e4a6000830184616e26565b92915050565b6000604082019050616e656000830185616bab565b8181036020830152616e778184616be6565b90509392505050565b600060c082019050616e956000830189616bab565b8181036020830152616ea78188616be6565b90508181036040830152616ebb8187616be6565b9050616eca6060830186616914565b616ed76080830185616bab565b616ee460a0830184616d46565b979650505050505050565b6000608082019050616f046000830187616bab565b8181036020830152616f168186616be6565b90508181036040830152616f2a8185616be6565b9050616f396060830184616bab565b95945050505050565b60008060408385031215616f5957616f58616879565b5b6000616f6785828601616c84565b9250506020616f7885828601616c84565b9150509250929050565b60008060408385031215616f9957616f98616879565b5b6000616fa785828601616de4565b9250506020616fb885828601616c58565b9150509250929050565b600060ff82169050919050565b616fd881616fc2565b82525050565b6000602082019050616ff36000830184616fcf565b92915050565b60006020828403121561700f5761700e616879565b5b600061701d84828501616c58565b91505092915050565b600080fd5b600080fd5b7f4e487b7100000000000000000000000000000000000000000000000000000000600052604160045260246000fd5b617068826169c9565b810181811067ffffffffffffffff8211171561708757617086617030565b5b80604052505050565b600061709a61686f565b90506170a6828261705f565b919050565b600067ffffffffffffffff8211156170c6576170c5617030565b5b6170cf826169c9565b9050602081019050919050565b82818337600083830152505050565b60006170fe6170f9846170ab565b617090565b90508281526020810184848401111561711a5761711961702b565b5b6171258482856170dc565b509392505050565b600082601f83011261714257617141617026565b5b81356171528482602086016170eb565b91505092915050565b60008060006060848603121561717457617173616879565b5b600061718286828701616c84565b935050602061719386828701616c84565b925050604084013567ffffffffffffffff8111156171b4576171b361687e565b5b6171c08682870161712d565b9150509250925092565b600080600080600060a086880312156171e6576171e5616879565b5b60006171f488828901616c84565b955050602086013567ffffffffffffffff8111156172155761721461687e565b5b6172218882890161712d565b945050604086013567ffffffffffffffff8111156172425761724161687e565b5b61724e8882890161712d565b935050606086013567ffffffffffffffff81111561726f5761726e61687e565b5b61727b8882890161712d565b925050608061728c88828901616c84565b9150509295509295909350565b600060e0830160008301516172b16000860182616974565b5060208301516172c46020860182616974565b50604083015184820360408601526172dc82826169da565b915050606083015184820360608601526172f682826169da565b915050608083015161730b6080860182616974565b5060a083015184820360a086015261732382826169da565b91505060c083015161733860c0860182616a54565b508091505092915050565b60006040820190506173586000830185616bab565b818103602083015261736a8184617299565b90509392505050565b60008060008060008060008060008060006101608c8e03121561739957617398616879565b5b60006173a78e828f01616c84565b9b505060206173b88e828f01616c84565b9a505060406173c98e828f01616c84565b99505060606173da8e828f01616c84565b98505060806173eb8e828f01616c84565b97505060a06173fc8e828f01616c84565b96505060c061740d8e828f01616c84565b95505060e061741e8e828f01616c84565b9450506101006174308e828f01616c84565b9350506101206174428e828f01616c84565b9250506101406174548e828f01616c84565b9150509295989b509295989b9093969950565b6000806040838503121561747e5761747d616879565b5b600061748c85828601616c84565b925050602083013567ffffffffffffffff8111156174ad576174ac61687e565b5b6174b98582860161712d565b9150509250929050565b600060e0820190506174d8600083018a616bab565b6174e56020830189616bab565b81810360408301526174f78188616be6565b9050818103606083015261750b8187616be6565b905061751a6080830186616bab565b81810360a083015261752c8185616be6565b905061753b60c0830184616d46565b98975050505050505050565b6000806040838503121561755e5761755d616879565b5b600083013567ffffffffffffffff81111561757c5761757b61687e565b5b6175888582860161712d565b925050602083013567ffffffffffffffff8111156175a9576175a861687e565b5b6175b58582860161712d565b9150509250929050565b6000610160820190506175d5600083018e616bab565b6175e2602083018d616bab565b6175ef604083018c616bab565b6175fc606083018b616bab565b617609608083018a616bab565b61761660a0830189616bab565b61762360c0830188616bab565b61763060e0830187616bab565b61763e610100830186616bab565b61764c610120830185616bab565b61765a610140830184616914565b9c9b505050505050505050505050565b600081519050919050565b600082825260208201905092915050565b6000819050602082019050919050565b60006176a28383616a54565b60208301905092915050565b6000602082019050919050565b60006176c68261766a565b6176d08185617675565b93506176db83617686565b8060005b8381101561770c5781516176f38882617696565b97506176fe836176ae565b9250506001810190506176df565b5085935050505092915050565b6000602082019050818103600083015261773381846176bb565b905092915050565b600067ffffffffffffffff82111561775657617755617030565b5b602082029050602081019050919050565b600080fd5b600080fd5b600080fd5b60006060828403121561778c5761778b61776c565b5b6177966060617090565b9050600082013567ffffffffffffffff8111156177b6576177b5617771565b5b6177c28482850161712d565b600083015250602082013567ffffffffffffffff8111156177e6576177e5617771565b5b6177f28482850161712d565b602083015250604082013567ffffffffffffffff81111561781657617815617771565b5b6178228482850161712d565b60408301525092915050565b600061784161783c8461773b565b617090565b9050808382526020820190506020840283018581111561786457617863617767565b5b835b818110156178ab57803567ffffffffffffffff81111561788957617888617026565b5b8086016178968982617776565b85526020850194505050602081019050617866565b5050509392505050565b600082601f8301126178ca576178c9617026565b5b81356178da84826020860161782e565b91505092915050565b600080600080608085870312156178fd576178fc616879565b5b600061790b87828801616c84565b945050602085013567ffffffffffffffff81111561792c5761792b61687e565b5b6179388782880161712d565b935050604085013567ffffffffffffffff8111156179595761795861687e565b5b6179658782880161712d565b925050606085013567ffffffffffffffff8111156179865761798561687e565b5b617992878288016178b5565b91505092959194509250565b600080604083850312156179b5576179b4616879565b5b60006179c385828601616c58565b92505060206179d485828601616c58565b9150509250929050565b600060608201905081810360008301526179f88186616be6565b90508181036020830152617a0c8185616be6565b90508181036040830152617a208184616be6565b9050949350505050565b600067ffffffffffffffff821115617a4557617a44617030565b5b602082029050602081019050919050565b6000617a69617a6484617a2a565b617090565b90508083825260208201905060208402830185811115617a8c57617a8b617767565b5b835b81811015617ab55780617aa18882616c84565b845260208401935050602081019050617a8e565b5050509392505050565b600082601f830112617ad457617ad3617026565b5b8135617ae4848260208601617a56565b91505092915050565b60008060408385031215617b0457617b03616879565b5b6000617b1285828601616c84565b925050602083013567ffffffffffffffff811115617b3357617b3261687e565b5b617b3f85828601617abf565b9150509250929050565b7f4e487b7100000000000000000000000000000000000000000000000000000000600052603260045260246000fd5b7f4e487b7100000000000000000000000000000000000000000000000000000000600052602260045260246000fd5b60006002820490506001821680617bbf57607f821691505b602082108103617bd257617bd1617b78565b5b50919050565b7f4e487b7100000000000000000000000000000000000000000000000000000000600052601160045260246000fd5b6000617c128261696a565b9150617c1d8361696a565b9250828202617c2b8161696a565b91508282048414831517617c4257617c41617bd8565b5b5092915050565b7f4e487b7100000000000000000000000000000000000000000000000000000000600052601260045260246000fd5b6000617c838261696a565b9150617c8e8361696a565b925082617c9e57617c9d617c49565b5b828204905092915050565b7f596f75206861766520616c7265616479206d61726b65642074686973206c657360008201527f736f6e2061732072656164000000000000000000000000000000000000000000602082015250565b6000617d05602b83616bd5565b9150617d1082617ca9565b604082019050919050565b60006020820190508181036000830152617d3481617cf8565b9050919050565b7f4c6573736f6e20646f65736e2774206578697374000000000000000000000000600082015250565b6000617d71601483616bd5565b9150617d7c82617d3b565b602082019050919050565b60006020820190508181036000830152617da081617d64565b9050919050565b7f5155697a20646f6573206e6f7420657869737400000000000000000000000000600082015250565b6000617ddd601383616bd5565b9150617de882617da7565b602082019050919050565b60006020820190508181036000830152617e0c81617dd0565b9050919050565b7f4e6f74206578616374207175697a000000000000000000000000000000000000600082015250565b6000617e49600e83616bd5565b9150617e5482617e13565b602082019050919050565b60006020820190508181036000830152617e7881617e3c565b9050919050565b60008190508160005260206000209050919050565b60006020601f8301049050919050565b600082821b905092915050565b600060088302617ee17fffffffffffffffffffffffffffffffffffffffffffffffffffffffffffffffff82617ea4565b617eeb8683617ea4565b95508019841693508086168417925050509392505050565b6000819050919050565b6000617f28617f23617f1e8461696a565b617f03565b61696a565b9050919050565b6000819050919050565b617f4283617f0d565b617f56617f4e82617f2f565b848454617eb1565b825550505050565b600090565b617f6b617f5e565b617f76818484617f39565b505050565b5b81811015617f9a57617f8f600082617f63565b600181019050617f7c565b5050565b601f821115617fdf57617fb081617e7f565b617fb984617e94565b81016020851015617fc8578190505b617fdc617fd485617e94565b830182617f7b565b50505b505050565b600082821c905092915050565b600061800260001984600802617fe4565b1980831691505092915050565b600061801b8383617ff1565b9150826002028217905092915050565b61803482616983565b67ffffffffffffffff81111561804d5761804c617030565b5b6180578254617ba7565b618062828285617f9e565b600060209050601f8311600181146180955760008415618083578287015190505b61808d858261800f565b8655506180f5565b601f1984166180a386617e7f565b60005b828110156180cb578489015182556001820191506020850194506020810190506180a6565b868310156180e857848901516180e4601f891682617ff1565b8355505b6001600288020188555050505b505050505050565b7f596f75206d75737420626520656e726f6c6c656420696e2074686520636f757260008201527f736520746f20636f6d706c657465206974000000000000000000000000000000602082015250565b6000618159603183616bd5565b9150618164826180fd565b604082019050919050565b600060208201905081810360008301526181888161814c565b9050919050565b7f596f75206861766520616c726561647920636f6d706c6574656420746869732060008201527f636f757273650000000000000000000000000000000000000000000000000000602082015250565b60006181eb602683616bd5565b91506181f68261818f565b604082019050919050565b6000602082019050818103600083015261821a816181de565b9050919050565b6000819050919050565b61823c6182378261696a565b618221565b82525050565b600081905092915050565b600061825882616983565b6182628185618242565b935061827281856020860161699f565b80840191505092915050565b600061828a828961822b565b60208201915061829a828861824d565b91506182a6828761824d565b91506182b2828661824d565b91506182be828561822b565b6020820191506182ce828461822b565b602082019150819050979650505050505050565b60006080820190506182f76000830187616bab565b81810360208301526183098186616be6565b9050818103604083015261831d8185616be6565b905081810360608301526183318184616be6565b905095945050505050565b7f4e6f742073656c6563746564206173206120726576696577657220666f72207460008201527f68697320636f7572736500000000000000000000000000000000000000000000602082015250565b6000618398602a83616bd5565b91506183a38261833c565b604082019050919050565b600060208201905081810360008301526183c78161838b565b9050919050565b7f52657669657720616c7265616479207375626d6974746564206279207468697360008201527f2072657669657765722e00000000000000000000000000000000000000000000602082015250565b600061842a602a83616bd5565b9150618435826183ce565b604082019050919050565b600060208201905081810360008301526184598161841d565b9050919050565b7f436f7572736520646f6573206e6f742065786973740000000000000000000000600082015250565b6000618496601583616bd5565b91506184a182618460565b602082019050919050565b600060208201905081810360008301526184c581618489565b9050919050565b7f416c726561647920696e20726576696577657220706f6f6c0000000000000000600082015250565b6000618502601883616bd5565b915061850d826184cc565b602082019050919050565b60006020820190508181036000830152618531816184f5565b9050919050565b7f436f7572736520616c726561647920617070726f766564000000000000000000600082015250565b600061856e601783616bd5565b915061857982618538565b602082019050919050565b6000602082019050818103600083015261859d81618561565b9050919050565b7f596f75206861766520616c726561647920617070726f7665642074686973206360008201527f6f75727365000000000000000000000000000000000000000000000000000000602082015250565b6000618600602583616bd5565b915061860b826185a4565b604082019050919050565b6000602082019050818103600083015261862f816185f3565b9050919050565b60006186418261696a565b91507fffffffffffffffffffffffffffffffffffffffffffffffffffffffffffffffff820361867357618672617bd8565b5b600182019050919050565b7f5175697a20646f6573206e6f7420657869737400000000000000000000000000600082015250565b60006186b4601383616bd5565b91506186bf8261867e565b602082019050919050565b600060208201905081810360008301526186e3816186a7565b9050919050565b7f5175657374696f6e206e6f7420666f756e6420696e2074686973207175697a00600082015250565b6000618720601f83616bd5565b915061872b826186ea565b602082019050919050565b6000602082019050818103600083015261874f81618713565b9050919050565b60006187618261696a565b915061876c8361696a565b925082820390508181111561878457618783617bd8565b5b92915050565b60008154905061879981617ba7565b9050919050565b8181036187ae575050618886565b6187b78261878a565b67ffffffffffffffff8111156187d0576187cf617030565b5b6187da8254617ba7565b6187e5828285617f9e565b6000601f8311600181146188145760008415618802578287015490505b61880c858261800f565b86555061887f565b601f19841661882287617e7f565b965061882d86617e7f565b60005b8281101561885557848901548255600182019150600185019450602081019050618830565b86831015618872578489015461886e601f891682617ff1565b8355505b6001600288020188555050505b5050505050505b565b7f4e487b7100000000000000000000000000000000000000000000000000000000600052603160045260246000fd5b7f52657669657765727320616c72656164792073656c6563746564000000000000600082015250565b60006188ed601a83616bd5565b91506188f8826188b7565b602082019050919050565b6000602082019050818103600083015261891c816188e0565b9050919050565b7f4e6f7420656e6f7567682072657669657765727320696e2074686520706f6f6c600082015250565b6000618959602083616bd5565b915061896482618923565b602082019050919050565b600060208201905081810360008301526189888161894c565b9050919050565b600061899b828761822b565b6020820191506189ab828661822b565b6020820191506189bb828561822b565b6020820191506189cb828461822b565b60208201915081905095945050505050565b60006189e88261696a565b91506189f38361696a565b925082618a0357618a02617c49565b5b828206905092915050565b600081549050919050565b60008190508160005260206000209050919050565b60008160001c9050919050565b600073ffffffffffffffffffffffffffffffffffffffff82169050919050565b6000618a6e618a6983618a2e565b618a3b565b9050919050565b6000618a818254618a5b565b9050919050565b6000600182019050919050565b6000618aa082618a0e565b618aaa8185617675565b9350618ab583618a19565b8060005b83811015618aed57618aca82618a75565b618ad48882617696565b9750618adf83618a88565b925050600181019050618ab9565b5085935050505092915050565b60006020820190508181036000830152618b148184618a95565b905092915050565b7f436f7572736520646f65736e2774206578697374210000000000000000000000600082015250565b6000618b52601583616bd5565b9150618b5d82618b1c565b602082019050919050565b60006020820190508181036000830152618b8181618b45565b9050919050565b7f4368617074657220646f65736e27742065786973740000000000000000000000600082015250565b6000618bbe601583616bd5565b9150618bc982618b88565b602082019050919050565b60006020820190508181036000830152618bed81618bb1565b9050919050565b7f436f7572736520494420616c7265616479206578697374730000000000000000600082015250565b6000618c2a601883616bd5565b9150618c3582618bf4565b602082019050919050565b60006020820190508181036000830152618c5981618c1d565b9050919050565b6000618c6b8261696a565b9150618c768361696a565b9250828201905080821115618c8e57618c8d617bd8565b5b92915050565b6000618ca0828461824d565b915081905092915050565b7f4e6f7420696e20726576696577657220706f6f6c000000000000000000000000600082015250565b6000618ce1601483616bd5565b9150618cec82618cab565b602082019050919050565b60006020820190508181036000830152618d1081618cd4565b9050919050565b7f4c6573736f6e20646f6573206e6f742065786973740000000000000000000000600082015250565b6000618d4d601583616bd5565b9150618d5882618d17565b602082019050919050565b60006020820190508181036000830152618d7c81618d40565b9050919050565b7f5265736f7572636520636f756e742065786365656473206d6178696d756d206160008201527f6c6c6f7765640000000000000000000000000000000000000000000000000000602082015250565b6000618ddf602683616bd5565b9150618dea82618d83565b604082019050919050565b60006020820190508181036000830152618e0e81618dd2565b9050919050565b7f4e756d626572206f6620616e7377657273206d757374206d617463682074686560008201527f206e756d626572206f66207175657374696f6e73000000000000000000000000602082015250565b6000618e71603483616bd5565b9150618e7c82618e15565b604082019050919050565b60006020820190508181036000830152618ea081618e64565b9050919050565b7f496e76616c69642063686f6963652073656c6563746564000000000000000000600082015250565b6000618edd601783616bd5565b9150618ee882618ea7565b602082019050919050565b60006020820190508181036000830152618f0c81618ed0565b9050919050565b6000604082019050618f286000830185616bab565b618f356020830184616bab565b9392505050565b7f436f7572736520646f65736e2774206578697374000000000000000000000000600082015250565b6000618f72601483616bd5565b9150618f7d82618f3c565b602082019050919050565b60006020820190508181036000830152618fa181618f65565b9050919050565b7f4368617074657220646f65736e2774206e6f7420657869737400000000000000600082015250565b6000618fde601983616bd5565b9150618fe982618fa8565b602082019050919050565b6000602082019050818103600083015261900d81618fd1565b9050919050565b7f5175697a20646f65736e27742065786973740000000000000000000000000000600082015250565b600061904a601283616bd5565b915061905582619014565b602082019050919050565b600060208201905081810360008301526190798161903d565b9050919050565b60006060820190506190956000830186616d46565b6190a26020830185616bab565b6190af6040830184616bab565b949350505050565b7f4c696d6974204578636565646564210000000000000000000000000000000000600082015250565b60006190ed600f83616bd5565b91506190f8826190b7565b602082019050919050565b6000602082019050818103600083015261911c816190e0565b9050919050565b7f53636f726573206d757374206265206265747765656e203120616e642031302e600082015250565b6000619159602083616bd5565b915061916482619123565b602082019050919050565b600060208201905081810360008301526191888161914c565b9050919050565b60006040820190506191a46000830185616d46565b6191b16020830184616e26565b939250505056fea2646970667358221220d7f9c30e589959a98fd4d5cf1f84054b9cb17bff6380282d52bee40989af121064736f6c634300081b0033",
  "linkReferences": {},
  "deployedLinkReferences": {}
}