{
  "_format": "hh-sol-artifact-1",
  "contractName": "Ecosystem2",
  "sourceName": "contracts/Ecosystem  Contracts/Ecosystem3.sol",
  "abi": [
    {
      "inputs": [
        {
          "internalType": "address[]",
          "name": "_admins",
          "type": "address[]"
        }
      ],
      "stateMutability": "nonpayable",
      "type": "constructor"
    },
    {
      "inputs": [],
      "name": "AccessControlBadConfirmation",
      "type": "error"
    },
    {
      "inputs": [
        {
          "internalType": "address",
          "name": "account",
          "type": "address"
        },
        {
          "internalType": "bytes32",
          "name": "neededRole",
          "type": "bytes32"
        }
      ],
      "name": "AccessControlUnauthorizedAccount",
      "type": "error"
    },
    {
      "inputs": [
        {
          "internalType": "address",
          "name": "spender",
          "type": "address"
        },
        {
          "internalType": "uint256",
          "name": "allowance",
          "type": "uint256"
        },
        {
          "internalType": "uint256",
          "name": "needed",
          "type": "uint256"
        }
      ],
      "name": "ERC20InsufficientAllowance",
      "type": "error"
    },
    {
      "inputs": [
        {
          "internalType": "address",
          "name": "sender",
          "type": "address"
        },
        {
          "internalType": "uint256",
          "name": "balance",
          "type": "uint256"
        },
        {
          "internalType": "uint256",
          "name": "needed",
          "type": "uint256"
        }
      ],
      "name": "ERC20InsufficientBalance",
      "type": "error"
    },
    {
      "inputs": [
        {
          "internalType": "address",
          "name": "approver",
          "type": "address"
        }
      ],
      "name": "ERC20InvalidApprover",
      "type": "error"
    },
    {
      "inputs": [
        {
          "internalType": "address",
          "name": "receiver",
          "type": "address"
        }
      ],
      "name": "ERC20InvalidReceiver",
      "type": "error"
    },
    {
      "inputs": [
        {
          "internalType": "address",
          "name": "sender",
          "type": "address"
        }
      ],
      "name": "ERC20InvalidSender",
      "type": "error"
    },
    {
      "inputs": [
        {
          "internalType": "address",
          "name": "spender",
          "type": "address"
        }
      ],
      "name": "ERC20InvalidSpender",
      "type": "error"
    },
    {
      "inputs": [],
      "name": "ReentrancyGuardReentrantCall",
      "type": "error"
    },
    {
      "anonymous": false,
      "inputs": [
        {
          "indexed": true,
          "internalType": "address",
          "name": "owner",
          "type": "address"
        },
        {
          "indexed": true,
          "internalType": "address",
          "name": "spender",
          "type": "address"
        },
        {
          "indexed": false,
          "internalType": "uint256",
          "name": "value",
          "type": "uint256"
        }
      ],
      "name": "Approval",
      "type": "event"
    },
    {
      "anonymous": false,
      "inputs": [
        {
          "indexed": true,
          "internalType": "address",
          "name": "_account",
          "type": "address"
        },
        {
          "indexed": false,
          "internalType": "uint256",
          "name": "_amount",
          "type": "uint256"
        }
      ],
      "name": "BurnSuccess",
      "type": "event"
    },
    {
      "anonymous": false,
      "inputs": [
        {
          "indexed": false,
          "internalType": "uint256",
          "name": "certificateId",
          "type": "uint256"
        },
        {
          "indexed": false,
          "internalType": "string",
          "name": "courseName",
          "type": "string"
        },
        {
          "indexed": false,
          "internalType": "string",
          "name": "cert_issuer",
          "type": "string"
        },
        {
          "indexed": false,
          "internalType": "string",
          "name": "learner",
          "type": "string"
        }
      ],
      "name": "CertificateIssued",
      "type": "event"
    },
    {
      "anonymous": false,
      "inputs": [
        {
          "indexed": true,
          "internalType": "uint256",
          "name": "_courseId",
          "type": "uint256"
        },
        {
          "indexed": true,
          "internalType": "uint256",
          "name": "_chaterId",
          "type": "uint256"
        }
      ],
      "name": "ChapterDeletedSuccess",
      "type": "event"
    },
    {
      "anonymous": false,
      "inputs": [
        {
          "indexed": true,
          "internalType": "uint256",
          "name": "_courseId",
          "type": "uint256"
        },
        {
          "indexed": true,
          "internalType": "uint256",
          "name": "_chapterId",
          "type": "uint256"
        },
        {
          "indexed": false,
          "internalType": "string",
          "name": "_chapterName",
          "type": "string"
        }
      ],
      "name": "ChapterEdited",
      "type": "event"
    },
    {
      "anonymous": false,
      "inputs": [
        {
          "indexed": true,
          "internalType": "uint256",
          "name": "_courseId",
          "type": "uint256"
        },
        {
          "indexed": true,
          "internalType": "uint256",
          "name": "numberOfChapters",
          "type": "uint256"
        }
      ],
      "name": "ChaptersAddedSuccessfully",
      "type": "event"
    },
    {
      "anonymous": false,
      "inputs": [
        {
          "indexed": true,
          "internalType": "uint256",
          "name": "_courseID",
          "type": "uint256"
        },
        {
          "indexed": true,
          "internalType": "string",
          "name": "_courseName",
          "type": "string"
        },
        {
          "indexed": false,
          "internalType": "bool",
          "name": "_approved",
          "type": "bool"
        }
      ],
      "name": "CourseCreationSuccess",
      "type": "event"
    },
    {
      "anonymous": false,
      "inputs": [
        {
          "indexed": true,
          "internalType": "uint256",
          "name": "_courseId",
          "type": "uint256"
        },
        {
          "indexed": false,
          "internalType": "address",
          "name": "owner",
          "type": "address"
        }
      ],
      "name": "CourseDeleteSuccess",
      "type": "event"
    },
    {
      "anonymous": false,
      "inputs": [
        {
          "indexed": true,
          "internalType": "uint256",
          "name": "_courseId",
          "type": "uint256"
        },
        {
          "indexed": false,
          "internalType": "string",
          "name": "_courseName",
          "type": "string"
        }
      ],
      "name": "CourseEdited",
      "type": "event"
    },
    {
      "anonymous": false,
      "inputs": [
        {
          "indexed": true,
          "internalType": "address",
          "name": "_to",
          "type": "address"
        },
        {
          "indexed": true,
          "internalType": "uint256",
          "name": "_amount",
          "type": "uint256"
        }
      ],
      "name": "EcosystemPoolUpdate",
      "type": "event"
    },
    {
      "anonymous": false,
      "inputs": [
        {
          "indexed": true,
          "internalType": "uint256",
          "name": "_courseId",
          "type": "uint256"
        },
        {
          "indexed": true,
          "internalType": "address",
          "name": "_by",
          "type": "address"
        }
      ],
      "name": "EnrollmentSuccess",
      "type": "event"
    },
    {
      "anonymous": false,
      "inputs": [
        {
          "indexed": true,
          "internalType": "uint256",
          "name": "_lessonId",
          "type": "uint256"
        },
        {
          "indexed": true,
          "internalType": "string",
          "name": "_lessonName",
          "type": "string"
        },
        {
          "indexed": true,
          "internalType": "uint256",
          "name": "_additonalResources",
          "type": "uint256"
        }
      ],
      "name": "LessonCreationSuccess",
      "type": "event"
    },
    {
      "anonymous": false,
      "inputs": [
        {
          "indexed": true,
          "internalType": "uint256",
          "name": "_chapterId",
          "type": "uint256"
        },
        {
          "indexed": true,
          "internalType": "uint256",
          "name": "_lessonId",
          "type": "uint256"
        }
      ],
      "name": "LessonDeleted",
      "type": "event"
    },
    {
      "anonymous": false,
      "inputs": [
        {
          "indexed": true,
          "internalType": "uint256",
          "name": "_lessonId",
          "type": "uint256"
        },
        {
          "indexed": false,
          "internalType": "string",
          "name": "_lessonName",
          "type": "string"
        }
      ],
      "name": "LessonEdited",
      "type": "event"
    },
    {
      "anonymous": false,
      "inputs": [
        {
          "indexed": true,
          "internalType": "uint256",
          "name": "_chapterId",
          "type": "uint256"
        },
        {
          "indexed": true,
          "internalType": "uint256",
          "name": "_lessonId",
          "type": "uint256"
        },
        {
          "indexed": false,
          "internalType": "address",
          "name": "learner",
          "type": "address"
        }
      ],
      "name": "LessonMarkedAsRead",
      "type": "event"
    },
    {
      "anonymous": false,
      "inputs": [
        {
          "indexed": true,
          "internalType": "address",
          "name": "_to",
          "type": "address"
        },
        {
          "indexed": true,
          "internalType": "uint256",
          "name": "_amount",
          "type": "uint256"
        }
      ],
      "name": "MintSuccess",
      "type": "event"
    },
    {
      "anonymous": false,
      "inputs": [
        {
          "indexed": true,
          "internalType": "uint256",
          "name": "_quizId",
          "type": "uint256"
        },
        {
          "indexed": true,
          "internalType": "uint256",
          "name": "_questionId",
          "type": "uint256"
        }
      ],
      "name": "QuestionDeleted",
      "type": "event"
    },
    {
      "anonymous": false,
      "inputs": [
        {
          "indexed": true,
          "internalType": "uint256",
          "name": "_lessonId",
          "type": "uint256"
        },
        {
          "indexed": true,
          "internalType": "uint256",
          "name": "_quizId",
          "type": "uint256"
        }
      ],
      "name": "QuizDeleted",
      "type": "event"
    },
    {
      "anonymous": false,
      "inputs": [
        {
          "indexed": true,
          "internalType": "uint256",
          "name": "_lessonId",
          "type": "uint256"
        },
        {
          "indexed": true,
          "internalType": "uint256",
          "name": "_quizId",
          "type": "uint256"
        },
        {
          "indexed": false,
          "internalType": "string",
          "name": "_quizTitle",
          "type": "string"
        }
      ],
      "name": "QuizEdited",
      "type": "event"
    },
    {
      "anonymous": false,
      "inputs": [
        {
          "indexed": true,
          "internalType": "address",
          "name": "learner",
          "type": "address"
        },
        {
          "indexed": false,
          "internalType": "uint256",
          "name": "quizId",
          "type": "uint256"
        },
        {
          "indexed": false,
          "internalType": "uint256",
          "name": "score",
          "type": "uint256"
        }
      ],
      "name": "QuizSubmitted",
      "type": "event"
    },
    {
      "anonymous": false,
      "inputs": [
        {
          "indexed": true,
          "internalType": "uint256",
          "name": "_lessonId",
          "type": "uint256"
        },
        {
          "indexed": true,
          "internalType": "uint256",
          "name": "resourceCount",
          "type": "uint256"
        }
      ],
      "name": "ResourceAddSuccess",
      "type": "event"
    },
    {
      "anonymous": false,
      "inputs": [
        {
          "indexed": true,
          "internalType": "bytes32",
          "name": "role",
          "type": "bytes32"
        },
        {
          "indexed": true,
          "internalType": "bytes32",
          "name": "previousAdminRole",
          "type": "bytes32"
        },
        {
          "indexed": true,
          "internalType": "bytes32",
          "name": "newAdminRole",
          "type": "bytes32"
        }
      ],
      "name": "RoleAdminChanged",
      "type": "event"
    },
    {
      "anonymous": false,
      "inputs": [
        {
          "indexed": true,
          "internalType": "bytes32",
          "name": "role",
          "type": "bytes32"
        },
        {
          "indexed": true,
          "internalType": "address",
          "name": "account",
          "type": "address"
        },
        {
          "indexed": true,
          "internalType": "address",
          "name": "sender",
          "type": "address"
        }
      ],
      "name": "RoleGranted",
      "type": "event"
    },
    {
      "anonymous": false,
      "inputs": [
        {
          "indexed": true,
          "internalType": "bytes32",
          "name": "role",
          "type": "bytes32"
        },
        {
          "indexed": true,
          "internalType": "address",
          "name": "account",
          "type": "address"
        },
        {
          "indexed": true,
          "internalType": "address",
          "name": "sender",
          "type": "address"
        }
      ],
      "name": "RoleRevoked",
      "type": "event"
    },
    {
      "anonymous": false,
      "inputs": [
        {
          "indexed": true,
          "internalType": "address",
          "name": "from",
          "type": "address"
        },
        {
          "indexed": true,
          "internalType": "address",
          "name": "to",
          "type": "address"
        },
        {
          "indexed": false,
          "internalType": "uint256",
          "name": "value",
          "type": "uint256"
        }
      ],
      "name": "Transfer",
      "type": "event"
    },
    {
      "anonymous": false,
      "inputs": [
        {
          "indexed": true,
          "internalType": "uint256",
          "name": "_courseId",
          "type": "uint256"
        },
        {
          "indexed": true,
          "internalType": "address",
          "name": "_by",
          "type": "address"
        }
      ],
      "name": "unEnrollmentSuccess",
      "type": "event"
    },
    {
      "inputs": [],
      "name": "ADMIN_ROLE",
      "outputs": [
        {
          "internalType": "bytes32",
          "name": "",
          "type": "bytes32"
        }
      ],
      "stateMutability": "view",
      "type": "function"
    },
    {
      "inputs": [],
      "name": "COURSE_COMPLETION_REWARD",
      "outputs": [
        {
          "internalType": "uint256",
          "name": "",
          "type": "uint256"
        }
      ],
      "stateMutability": "view",
      "type": "function"
    },
    {
      "inputs": [],
      "name": "COURSE_OWNER_ROLE",
      "outputs": [
        {
          "internalType": "bytes32",
          "name": "",
          "type": "bytes32"
        }
      ],
      "stateMutability": "view",
      "type": "function"
    },
    {
      "inputs": [],
      "name": "CREATE_COURSE_REWARD",
      "outputs": [
        {
          "internalType": "uint256",
          "name": "",
          "type": "uint256"
        }
      ],
      "stateMutability": "view",
      "type": "function"
    },
    {
      "inputs": [],
      "name": "DEFAULT_ADMIN_ROLE",
      "outputs": [
        {
          "internalType": "bytes32",
          "name": "",
          "type": "bytes32"
        }
      ],
      "stateMutability": "view",
      "type": "function"
    },
    {
      "inputs": [],
      "name": "ECOSYSTEM_POOL",
      "outputs": [
        {
          "internalType": "uint256",
          "name": "",
          "type": "uint256"
        }
      ],
      "stateMutability": "view",
      "type": "function"
    },
    {
      "inputs": [],
      "name": "ENROLLMENT_REWARD",
      "outputs": [
        {
          "internalType": "uint256",
          "name": "",
          "type": "uint256"
        }
      ],
      "stateMutability": "view",
      "type": "function"
    },
    {
      "inputs": [],
      "name": "MAX_SCORE",
      "outputs": [
        {
          "internalType": "uint256",
          "name": "",
          "type": "uint256"
        }
      ],
      "stateMutability": "view",
      "type": "function"
    },
    {
      "inputs": [],
      "name": "MAX_SUPPLY",
      "outputs": [
        {
          "internalType": "uint256",
          "name": "",
          "type": "uint256"
        }
      ],
      "stateMutability": "view",
      "type": "function"
    },
    {
      "inputs": [],
      "name": "MIN_APPROVAL_SCORE",
      "outputs": [
        {
          "internalType": "uint256",
          "name": "",
          "type": "uint256"
        }
      ],
      "stateMutability": "view",
      "type": "function"
    },
    {
      "inputs": [],
      "name": "QUIZ_COMPLETION_REWARD",
      "outputs": [
        {
          "internalType": "uint256",
          "name": "",
          "type": "uint256"
        }
      ],
      "stateMutability": "view",
      "type": "function"
    },
    {
      "inputs": [],
      "name": "REQUIRED_APPROVALS",
      "outputs": [
        {
          "internalType": "uint256",
          "name": "",
          "type": "uint256"
        }
      ],
      "stateMutability": "view",
      "type": "function"
    },
    {
      "inputs": [
        {
          "internalType": "address",
          "name": "",
          "type": "address"
        }
      ],
      "name": "accountCourses",
      "outputs": [
        {
          "internalType": "uint256",
          "name": "courseCount",
          "type": "uint256"
        }
      ],
      "stateMutability": "view",
      "type": "function"
    },
    {
      "inputs": [
        {
          "internalType": "address",
          "name": "newAdmin",
          "type": "address"
        }
      ],
      "name": "addAdmin",
      "outputs": [],
      "stateMutability": "nonpayable",
      "type": "function"
    },
    {
      "inputs": [
        {
          "internalType": "uint256",
          "name": "_courseId",
          "type": "uint256"
        },
        {
          "internalType": "string[]",
          "name": "_chapters",
          "type": "string[]"
        }
      ],
      "name": "addChapters",
      "outputs": [
        {
          "internalType": "bool",
          "name": "",
          "type": "bool"
        }
      ],
      "stateMutability": "nonpayable",
      "type": "function"
    },
    {
      "inputs": [
        {
          "internalType": "address",
          "name": "owner",
          "type": "address"
        },
        {
          "internalType": "address",
          "name": "spender",
          "type": "address"
        }
      ],
      "name": "allowance",
      "outputs": [
        {
          "internalType": "uint256",
          "name": "",
          "type": "uint256"
        }
      ],
      "stateMutability": "view",
      "type": "function"
    },
    {
      "inputs": [
        {
          "internalType": "address",
          "name": "",
          "type": "address"
        },
        {
          "internalType": "uint256",
          "name": "",
          "type": "uint256"
        }
      ],
      "name": "approvals",
      "outputs": [
        {
          "internalType": "bool",
          "name": "",
          "type": "bool"
        }
      ],
      "stateMutability": "view",
      "type": "function"
    },
    {
      "inputs": [
        {
          "internalType": "address",
          "name": "spender",
          "type": "address"
        },
        {
          "internalType": "uint256",
          "name": "value",
          "type": "uint256"
        }
      ],
      "name": "approve",
      "outputs": [
        {
          "internalType": "bool",
          "name": "",
          "type": "bool"
        }
      ],
      "stateMutability": "nonpayable",
      "type": "function"
    },
    {
      "inputs": [
        {
          "internalType": "uint256",
          "name": "_courseId",
          "type": "uint256"
        }
      ],
      "name": "approveCourse",
      "outputs": [],
      "stateMutability": "nonpayable",
      "type": "function"
    },
    {
      "inputs": [
        {
          "internalType": "address",
          "name": "account",
          "type": "address"
        }
      ],
      "name": "balanceOf",
      "outputs": [
        {
          "internalType": "uint256",
          "name": "",
          "type": "uint256"
        }
      ],
      "stateMutability": "view",
      "type": "function"
    },
    {
      "inputs": [
        {
          "internalType": "uint256",
          "name": "",
          "type": "uint256"
        }
      ],
      "name": "certificates",
      "outputs": [
        {
          "internalType": "uint256",
          "name": "certId",
          "type": "uint256"
        },
        {
          "internalType": "uint256",
          "name": "courseId",
          "type": "uint256"
        },
        {
          "internalType": "string",
          "name": "learner",
          "type": "string"
        },
        {
          "internalType": "string",
          "name": "cert_issuer",
          "type": "string"
        },
        {
          "internalType": "uint256",
          "name": "issue_date",
          "type": "uint256"
        },
        {
          "internalType": "string",
          "name": "courseName",
          "type": "string"
        },
        {
          "internalType": "address",
          "name": "owner",
          "type": "address"
        }
      ],
      "stateMutability": "view",
      "type": "function"
    },
    {
      "inputs": [
        {
          "internalType": "uint256",
          "name": "",
          "type": "uint256"
        }
      ],
      "name": "chapter",
      "outputs": [
        {
          "internalType": "uint256",
          "name": "chapterId",
          "type": "uint256"
        },
        {
          "internalType": "string",
          "name": "chapterName",
          "type": "string"
        }
      ],
      "stateMutability": "view",
      "type": "function"
    },
    {
      "inputs": [
        {
          "internalType": "uint256",
          "name": "",
          "type": "uint256"
        },
        {
          "internalType": "uint256",
          "name": "",
          "type": "uint256"
        }
      ],
      "name": "chapterLessons",
      "outputs": [
        {
          "internalType": "string",
          "name": "",
          "type": "string"
        }
      ],
      "stateMutability": "view",
      "type": "function"
    },
    {
      "inputs": [
        {
          "internalType": "uint256",
          "name": "",
          "type": "uint256"
        },
        {
          "internalType": "address",
          "name": "",
          "type": "address"
        }
      ],
      "name": "completedQuizzes",
      "outputs": [
        {
          "internalType": "bool",
          "name": "",
          "type": "bool"
        }
      ],
      "stateMutability": "view",
      "type": "function"
    },
    {
      "inputs": [
        {
          "internalType": "uint256",
          "name": "",
          "type": "uint256"
        },
        {
          "internalType": "uint256",
          "name": "",
          "type": "uint256"
        }
      ],
      "name": "courseChapters",
      "outputs": [
        {
          "internalType": "string",
          "name": "",
          "type": "string"
        }
      ],
      "stateMutability": "view",
      "type": "function"
    },
    {
      "inputs": [
        {
          "internalType": "uint256",
          "name": "",
          "type": "uint256"
        },
        {
          "internalType": "address",
          "name": "",
          "type": "address"
        }
      ],
      "name": "courseCompleted",
      "outputs": [
        {
          "internalType": "bool",
          "name": "",
          "type": "bool"
        }
      ],
      "stateMutability": "view",
      "type": "function"
    },
    {
      "inputs": [],
      "name": "courseCount",
      "outputs": [
        {
          "internalType": "uint256",
          "name": "",
          "type": "uint256"
        }
      ],
      "stateMutability": "view",
      "type": "function"
    },
    {
      "inputs": [
        {
          "internalType": "uint256",
          "name": "",
          "type": "uint256"
        }
      ],
      "name": "courseObject",
      "outputs": [
        {
          "internalType": "uint256",
          "name": "courseId",
          "type": "uint256"
        },
        {
          "internalType": "string",
          "name": "courseName",
          "type": "string"
        },
        {
          "internalType": "string",
          "name": "description",
          "type": "string"
        },
        {
          "internalType": "bool",
          "name": "approved",
          "type": "bool"
        },
        {
          "internalType": "uint256",
          "name": "approvalCount",
          "type": "uint256"
        },
        {
          "internalType": "address",
          "name": "creator",
          "type": "address"
        }
      ],
      "stateMutability": "view",
      "type": "function"
    },
    {
      "inputs": [
        {
          "internalType": "string",
          "name": "_courseName",
          "type": "string"
        },
        {
          "internalType": "string",
          "name": "_description",
          "type": "string"
        }
      ],
      "name": "createCourse",
      "outputs": [
        {
          "internalType": "bool",
          "name": "",
          "type": "bool"
        }
      ],
      "stateMutability": "nonpayable",
      "type": "function"
    },
    {
      "inputs": [],
      "name": "decimals",
      "outputs": [
        {
          "internalType": "uint8",
          "name": "",
          "type": "uint8"
        }
      ],
      "stateMutability": "view",
      "type": "function"
    },
    {
      "inputs": [
        {
          "internalType": "uint256",
          "name": "_courseId",
          "type": "uint256"
        },
        {
          "internalType": "uint256",
          "name": "_chapterId",
          "type": "uint256"
        }
      ],
      "name": "deleteChapter",
      "outputs": [
        {
          "internalType": "bool",
          "name": "",
          "type": "bool"
        }
      ],
      "stateMutability": "nonpayable",
      "type": "function"
    },
    {
      "inputs": [
        {
          "internalType": "uint256",
          "name": "_courseId",
          "type": "uint256"
        }
      ],
      "name": "deleteCourse",
      "outputs": [
        {
          "internalType": "bool",
          "name": "",
          "type": "bool"
        }
      ],
      "stateMutability": "nonpayable",
      "type": "function"
    },
    {
      "inputs": [
        {
          "internalType": "uint256",
          "name": "_chapterId",
          "type": "uint256"
        },
        {
          "internalType": "uint256",
          "name": "_lessonId",
          "type": "uint256"
        }
      ],
      "name": "deleteLesson",
      "outputs": [
        {
          "internalType": "bool",
          "name": "",
          "type": "bool"
        }
      ],
      "stateMutability": "nonpayable",
      "type": "function"
    },
    {
      "inputs": [
        {
          "internalType": "uint256",
          "name": "_quizId",
          "type": "uint256"
        },
        {
          "internalType": "uint256",
          "name": "_questionId",
          "type": "uint256"
        }
      ],
      "name": "deleteQuestion",
      "outputs": [
        {
          "internalType": "bool",
          "name": "",
          "type": "bool"
        }
      ],
      "stateMutability": "nonpayable",
      "type": "function"
    },
    {
      "inputs": [
        {
          "internalType": "uint256",
          "name": "_lessonId",
          "type": "uint256"
        },
        {
          "internalType": "uint256",
          "name": "_quizId",
          "type": "uint256"
        }
      ],
      "name": "deleteQuiz",
      "outputs": [
        {
          "internalType": "bool",
          "name": "",
          "type": "bool"
        }
      ],
      "stateMutability": "nonpayable",
      "type": "function"
    },
    {
      "inputs": [],
      "name": "ecosystemPoolSupply",
      "outputs": [
        {
          "internalType": "uint256",
          "name": "",
          "type": "uint256"
        }
      ],
      "stateMutability": "view",
      "type": "function"
    },
    {
      "inputs": [
        {
          "internalType": "uint256",
          "name": "_courseId",
          "type": "uint256"
        },
        {
          "internalType": "uint256",
          "name": "_chapterId",
          "type": "uint256"
        },
        {
          "internalType": "string",
          "name": "_chapterName",
          "type": "string"
        }
      ],
      "name": "editChapter",
      "outputs": [
        {
          "internalType": "bool",
          "name": "",
          "type": "bool"
        }
      ],
      "stateMutability": "nonpayable",
      "type": "function"
    },
    {
      "inputs": [
        {
          "internalType": "uint256",
          "name": "_courseId",
          "type": "uint256"
        },
        {
          "internalType": "string",
          "name": "_courseName",
          "type": "string"
        }
      ],
      "name": "editCourse",
      "outputs": [
        {
          "internalType": "bool",
          "name": "",
          "type": "bool"
        }
      ],
      "stateMutability": "nonpayable",
      "type": "function"
    },
    {
      "inputs": [
        {
          "internalType": "uint256",
          "name": "_lessonId",
          "type": "uint256"
        },
        {
          "internalType": "string",
          "name": "_lessonName",
          "type": "string"
        },
        {
          "internalType": "string",
          "name": "_lessonContent",
          "type": "string"
        },
        {
          "components": [
            {
              "internalType": "string",
              "name": "contentType",
              "type": "string"
            },
            {
              "internalType": "string",
              "name": "url",
              "type": "string"
            },
            {
              "internalType": "string",
              "name": "description",
              "type": "string"
            }
          ],
          "internalType": "struct Ecosystem.Resource[]",
          "name": "_additionalResources",
          "type": "tuple[]"
        }
      ],
      "name": "editLesson",
      "outputs": [
        {
          "internalType": "bool",
          "name": "",
          "type": "bool"
        }
      ],
      "stateMutability": "nonpayable",
      "type": "function"
    },
    {
      "inputs": [
        {
          "internalType": "uint256",
          "name": "_lessonId",
          "type": "uint256"
        },
        {
          "internalType": "uint256",
          "name": "_quizId",
          "type": "uint256"
        },
        {
          "internalType": "string",
          "name": "_quizTitle",
          "type": "string"
        }
      ],
      "name": "editQuiz",
      "outputs": [],
      "stateMutability": "nonpayable",
      "type": "function"
    },
    {
      "inputs": [
        {
          "internalType": "uint256",
          "name": "_courseId",
          "type": "uint256"
        }
      ],
      "name": "enroll",
      "outputs": [
        {
          "internalType": "bool",
          "name": "",
          "type": "bool"
        }
      ],
      "stateMutability": "nonpayable",
      "type": "function"
    },
    {
      "inputs": [],
      "name": "getAllCourses",
      "outputs": [
        {
          "components": [
            {
              "internalType": "uint256",
              "name": "courseId",
              "type": "uint256"
            },
            {
              "internalType": "string",
              "name": "courseName",
              "type": "string"
            },
            {
              "internalType": "string",
              "name": "description",
              "type": "string"
            },
            {
              "internalType": "bool",
              "name": "approved",
              "type": "bool"
            },
            {
              "internalType": "uint256",
              "name": "approvalCount",
              "type": "uint256"
            },
            {
              "internalType": "address",
              "name": "creator",
              "type": "address"
            }
          ],
          "internalType": "struct Ecosystem.Course[]",
          "name": "",
          "type": "tuple[]"
        }
      ],
      "stateMutability": "view",
      "type": "function"
    },
    {
      "inputs": [],
      "name": "getCurrentEcosystemPoolSupply",
      "outputs": [
        {
          "internalType": "uint256",
          "name": "",
          "type": "uint256"
        }
      ],
      "stateMutability": "view",
      "type": "function"
    },
    {
      "inputs": [
        {
          "internalType": "bytes32",
          "name": "role",
          "type": "bytes32"
        }
      ],
      "name": "getRoleAdmin",
      "outputs": [
        {
          "internalType": "bytes32",
          "name": "",
          "type": "bytes32"
        }
      ],
      "stateMutability": "view",
      "type": "function"
    },
    {
      "inputs": [
        {
          "internalType": "bytes32",
          "name": "role",
          "type": "bytes32"
        },
        {
          "internalType": "address",
          "name": "account",
          "type": "address"
        }
      ],
      "name": "grantRole",
      "outputs": [],
      "stateMutability": "nonpayable",
      "type": "function"
    },
    {
      "inputs": [
        {
          "internalType": "bytes32",
          "name": "role",
          "type": "bytes32"
        },
        {
          "internalType": "address",
          "name": "account",
          "type": "address"
        }
      ],
      "name": "hasRole",
      "outputs": [
        {
          "internalType": "bool",
          "name": "",
          "type": "bool"
        }
      ],
      "stateMutability": "view",
      "type": "function"
    },
    {
      "inputs": [
        {
          "internalType": "address",
          "name": "account",
          "type": "address"
        }
      ],
      "name": "isAdmin",
      "outputs": [
        {
          "internalType": "bool",
          "name": "",
          "type": "bool"
        }
      ],
      "stateMutability": "view",
      "type": "function"
    },
    {
      "inputs": [
        {
          "internalType": "uint256",
          "name": "",
          "type": "uint256"
        },
        {
          "internalType": "address",
          "name": "",
          "type": "address"
        }
      ],
      "name": "isEnrolled",
      "outputs": [
        {
          "internalType": "bool",
          "name": "",
          "type": "bool"
        }
      ],
      "stateMutability": "view",
      "type": "function"
    },
    {
      "inputs": [
        {
          "internalType": "uint256",
          "name": "_courseId",
          "type": "uint256"
        },
        {
          "internalType": "string",
          "name": "learner",
          "type": "string"
        },
        {
          "internalType": "string",
          "name": "courseName",
          "type": "string"
        },
        {
          "internalType": "string",
          "name": "cert_issuer",
          "type": "string"
        },
        {
          "internalType": "uint256",
          "name": "issue_date",
          "type": "uint256"
        }
      ],
      "name": "issueCertificate",
      "outputs": [
        {
          "internalType": "uint256",
          "name": "",
          "type": "uint256"
        },
        {
          "components": [
            {
              "internalType": "uint256",
              "name": "certId",
              "type": "uint256"
            },
            {
              "internalType": "uint256",
              "name": "courseId",
              "type": "uint256"
            },
            {
              "internalType": "string",
              "name": "learner",
              "type": "string"
            },
            {
              "internalType": "string",
              "name": "cert_issuer",
              "type": "string"
            },
            {
              "internalType": "uint256",
              "name": "issue_date",
              "type": "uint256"
            },
            {
              "internalType": "string",
              "name": "courseName",
              "type": "string"
            },
            {
              "internalType": "address",
              "name": "owner",
              "type": "address"
            }
          ],
          "internalType": "struct Ecosystem2.Certificate",
          "name": "",
          "type": "tuple"
        }
      ],
      "stateMutability": "nonpayable",
      "type": "function"
    },
    {
      "inputs": [
        {
          "internalType": "uint256",
          "name": "",
          "type": "uint256"
        }
      ],
      "name": "lesson",
      "outputs": [
        {
          "internalType": "uint256",
          "name": "lessonId",
          "type": "uint256"
        },
        {
          "internalType": "string",
          "name": "lessonName",
          "type": "string"
        },
        {
          "internalType": "string",
          "name": "lessonContent",
          "type": "string"
        },
        {
          "internalType": "uint256",
          "name": "resourceCount",
          "type": "uint256"
        }
      ],
      "stateMutability": "view",
      "type": "function"
    },
    {
      "inputs": [
        {
          "internalType": "uint256",
          "name": "",
          "type": "uint256"
        },
        {
          "internalType": "address",
          "name": "",
          "type": "address"
        }
      ],
      "name": "lessonRead",
      "outputs": [
        {
          "internalType": "bool",
          "name": "",
          "type": "bool"
        }
      ],
      "stateMutability": "view",
      "type": "function"
    },
    {
      "inputs": [
        {
          "internalType": "uint256",
          "name": "",
          "type": "uint256"
        }
      ],
      "name": "listOfChapters",
      "outputs": [
        {
          "internalType": "uint256",
          "name": "chapterId",
          "type": "uint256"
        },
        {
          "internalType": "string",
          "name": "chapterName",
          "type": "string"
        }
      ],
      "stateMutability": "view",
      "type": "function"
    },
    {
      "inputs": [
        {
          "internalType": "uint256",
          "name": "",
          "type": "uint256"
        }
      ],
      "name": "listOfCourses",
      "outputs": [
        {
          "internalType": "uint256",
          "name": "courseId",
          "type": "uint256"
        },
        {
          "internalType": "string",
          "name": "courseName",
          "type": "string"
        },
        {
          "internalType": "string",
          "name": "description",
          "type": "string"
        },
        {
          "internalType": "bool",
          "name": "approved",
          "type": "bool"
        },
        {
          "internalType": "uint256",
          "name": "approvalCount",
          "type": "uint256"
        },
        {
          "internalType": "address",
          "name": "creator",
          "type": "address"
        }
      ],
      "stateMutability": "view",
      "type": "function"
    },
    {
      "inputs": [
        {
          "internalType": "uint256",
          "name": "",
          "type": "uint256"
        }
      ],
      "name": "listOfLessons",
      "outputs": [
        {
          "internalType": "uint256",
          "name": "lessonId",
          "type": "uint256"
        },
        {
          "internalType": "string",
          "name": "lessonName",
          "type": "string"
        },
        {
          "internalType": "string",
          "name": "lessonContent",
          "type": "string"
        },
        {
          "internalType": "uint256",
          "name": "resourceCount",
          "type": "uint256"
        }
      ],
      "stateMutability": "view",
      "type": "function"
    },
    {
      "inputs": [
        {
          "internalType": "uint256",
          "name": "",
          "type": "uint256"
        }
      ],
      "name": "listOfQuestions",
      "outputs": [
        {
          "internalType": "uint256",
          "name": "questionId",
          "type": "uint256"
        },
        {
          "internalType": "string",
          "name": "questionText",
          "type": "string"
        }
      ],
      "stateMutability": "view",
      "type": "function"
    },
    {
      "inputs": [
        {
          "internalType": "uint256",
          "name": "",
          "type": "uint256"
        }
      ],
      "name": "listOfQuizzes",
      "outputs": [
        {
          "internalType": "uint256",
          "name": "quizId",
          "type": "uint256"
        },
        {
          "internalType": "string",
          "name": "quizTitle",
          "type": "string"
        }
      ],
      "stateMutability": "view",
      "type": "function"
    },
    {
      "inputs": [
        {
          "internalType": "uint256",
          "name": "",
          "type": "uint256"
        }
      ],
      "name": "listOfResource",
      "outputs": [
        {
          "internalType": "string",
          "name": "contentType",
          "type": "string"
        },
        {
          "internalType": "string",
          "name": "url",
          "type": "string"
        },
        {
          "internalType": "string",
          "name": "description",
          "type": "string"
        }
      ],
      "stateMutability": "view",
      "type": "function"
    },
    {
      "inputs": [
        {
          "internalType": "uint256",
          "name": "_chapterId",
          "type": "uint256"
        },
        {
          "internalType": "uint256",
          "name": "_lessonId",
          "type": "uint256"
        }
      ],
      "name": "markAsRead",
      "outputs": [
        {
          "internalType": "bool",
          "name": "",
          "type": "bool"
        }
      ],
      "stateMutability": "nonpayable",
      "type": "function"
    },
    {
      "inputs": [],
      "name": "name",
      "outputs": [
        {
          "internalType": "string",
          "name": "",
          "type": "string"
        }
      ],
      "stateMutability": "view",
      "type": "function"
    },
    {
      "inputs": [],
      "name": "nextChapterId",
      "outputs": [
        {
          "internalType": "uint256",
          "name": "",
          "type": "uint256"
        }
      ],
      "stateMutability": "view",
      "type": "function"
    },
    {
      "inputs": [],
      "name": "nextChoiceId",
      "outputs": [
        {
          "internalType": "uint256",
          "name": "",
          "type": "uint256"
        }
      ],
      "stateMutability": "view",
      "type": "function"
    },
    {
      "inputs": [],
      "name": "nextCourseId",
      "outputs": [
        {
          "internalType": "uint256",
          "name": "",
          "type": "uint256"
        }
      ],
      "stateMutability": "view",
      "type": "function"
    },
    {
      "inputs": [],
      "name": "nextCourseIdd",
      "outputs": [
        {
          "internalType": "uint256",
          "name": "",
          "type": "uint256"
        }
      ],
      "stateMutability": "view",
      "type": "function"
    },
    {
      "inputs": [],
      "name": "nextLessonId",
      "outputs": [
        {
          "internalType": "uint256",
          "name": "",
          "type": "uint256"
        }
      ],
      "stateMutability": "view",
      "type": "function"
    },
    {
      "inputs": [],
      "name": "nextQuestionId",
      "outputs": [
        {
          "internalType": "uint256",
          "name": "",
          "type": "uint256"
        }
      ],
      "stateMutability": "view",
      "type": "function"
    },
    {
      "inputs": [],
      "name": "nextQuizId",
      "outputs": [
        {
          "internalType": "uint256",
          "name": "",
          "type": "uint256"
        }
      ],
      "stateMutability": "view",
      "type": "function"
    },
    {
      "inputs": [
        {
          "internalType": "uint256",
          "name": "",
          "type": "uint256"
        }
      ],
      "name": "questions",
      "outputs": [
        {
          "internalType": "uint256",
          "name": "questionId",
          "type": "uint256"
        },
        {
          "internalType": "string",
          "name": "questionText",
          "type": "string"
        }
      ],
      "stateMutability": "view",
      "type": "function"
    },
    {
      "inputs": [
        {
          "internalType": "uint256",
          "name": "",
          "type": "uint256"
        }
      ],
      "name": "quizzes",
      "outputs": [
        {
          "internalType": "uint256",
          "name": "quizId",
          "type": "uint256"
        },
        {
          "internalType": "string",
          "name": "quizTitle",
          "type": "string"
        }
      ],
      "stateMutability": "view",
      "type": "function"
    },
    {
      "inputs": [
        {
          "internalType": "address",
          "name": "admin",
          "type": "address"
        }
      ],
      "name": "removeAdmin",
      "outputs": [],
      "stateMutability": "nonpayable",
      "type": "function"
    },
    {
      "inputs": [
        {
          "internalType": "bytes32",
          "name": "role",
          "type": "bytes32"
        },
        {
          "internalType": "address",
          "name": "callerConfirmation",
          "type": "address"
        }
      ],
      "name": "renounceRole",
      "outputs": [],
      "stateMutability": "nonpayable",
      "type": "function"
    },
    {
      "inputs": [
        {
          "internalType": "uint256",
          "name": "",
          "type": "uint256"
        },
        {
          "internalType": "address",
          "name": "",
          "type": "address"
        }
      ],
      "name": "reviews",
      "outputs": [
        {
          "internalType": "uint256",
          "name": "learnerAgency",
          "type": "uint256"
        },
        {
          "internalType": "uint256",
          "name": "criticalThinking",
          "type": "uint256"
        },
        {
          "internalType": "uint256",
          "name": "collaborativeLearning",
          "type": "uint256"
        },
        {
          "internalType": "uint256",
          "name": "reflectivePractice",
          "type": "uint256"
        },
        {
          "internalType": "uint256",
          "name": "adaptiveLearning",
          "type": "uint256"
        },
        {
          "internalType": "uint256",
          "name": "authenticLearning",
          "type": "uint256"
        },
        {
          "internalType": "uint256",
          "name": "technologyIntegration",
          "type": "uint256"
        },
        {
          "internalType": "uint256",
          "name": "learnerSupport",
          "type": "uint256"
        },
        {
          "internalType": "uint256",
          "name": "assessmentForLearning",
          "type": "uint256"
        },
        {
          "internalType": "uint256",
          "name": "engagementAndMotivation",
          "type": "uint256"
        },
        {
          "internalType": "bool",
          "name": "isSubmitted",
          "type": "bool"
        }
      ],
      "stateMutability": "view",
      "type": "function"
    },
    {
      "inputs": [
        {
          "internalType": "bytes32",
          "name": "role",
          "type": "bytes32"
        },
        {
          "internalType": "address",
          "name": "account",
          "type": "address"
        }
      ],
      "name": "revokeRole",
      "outputs": [],
      "stateMutability": "nonpayable",
      "type": "function"
    },
    {
      "inputs": [
        {
          "internalType": "uint256",
          "name": "_quizId",
          "type": "uint256"
        },
        {
          "internalType": "uint256[]",
          "name": "_answers",
          "type": "uint256[]"
        }
      ],
      "name": "submitQuiz",
      "outputs": [
        {
          "internalType": "uint256",
          "name": "score",
          "type": "uint256"
        }
      ],
      "stateMutability": "nonpayable",
      "type": "function"
    },
    {
      "inputs": [
        {
          "internalType": "uint256",
          "name": "courseId",
          "type": "uint256"
        },
        {
          "internalType": "uint256",
          "name": "learnerAgency",
          "type": "uint256"
        },
        {
          "internalType": "uint256",
          "name": "criticalThinking",
          "type": "uint256"
        },
        {
          "internalType": "uint256",
          "name": "collaborativeLearning",
          "type": "uint256"
        },
        {
          "internalType": "uint256",
          "name": "reflectivePractice",
          "type": "uint256"
        },
        {
          "internalType": "uint256",
          "name": "adaptiveLearning",
          "type": "uint256"
        },
        {
          "internalType": "uint256",
          "name": "authenticLearning",
          "type": "uint256"
        },
        {
          "internalType": "uint256",
          "name": "technologyIntegration",
          "type": "uint256"
        },
        {
          "internalType": "uint256",
          "name": "learnerSupport",
          "type": "uint256"
        },
        {
          "internalType": "uint256",
          "name": "assessmentForLearning",
          "type": "uint256"
        },
        {
          "internalType": "uint256",
          "name": "engagementAndMotivation",
          "type": "uint256"
        }
      ],
      "name": "submitReview",
      "outputs": [],
      "stateMutability": "nonpayable",
      "type": "function"
    },
    {
      "inputs": [
        {
          "internalType": "bytes4",
          "name": "interfaceId",
          "type": "bytes4"
        }
      ],
      "name": "supportsInterface",
      "outputs": [
        {
          "internalType": "bool",
          "name": "",
          "type": "bool"
        }
      ],
      "stateMutability": "view",
      "type": "function"
    },
    {
      "inputs": [],
      "name": "symbol",
      "outputs": [
        {
          "internalType": "string",
          "name": "",
          "type": "string"
        }
      ],
      "stateMutability": "view",
      "type": "function"
    },
    {
      "inputs": [],
      "name": "totalSupply",
      "outputs": [
        {
          "internalType": "uint256",
          "name": "",
          "type": "uint256"
        }
      ],
      "stateMutability": "view",
      "type": "function"
    },
    {
      "inputs": [
        {
          "internalType": "address",
          "name": "to",
          "type": "address"
        },
        {
          "internalType": "uint256",
          "name": "value",
          "type": "uint256"
        }
      ],
      "name": "transfer",
      "outputs": [
        {
          "internalType": "bool",
          "name": "",
          "type": "bool"
        }
      ],
      "stateMutability": "nonpayable",
      "type": "function"
    },
    {
      "inputs": [
        {
          "internalType": "address",
          "name": "from",
          "type": "address"
        },
        {
          "internalType": "address",
          "name": "to",
          "type": "address"
        },
        {
          "internalType": "uint256",
          "name": "value",
          "type": "uint256"
        }
      ],
      "name": "transferFrom",
      "outputs": [
        {
          "internalType": "bool",
          "name": "",
          "type": "bool"
        }
      ],
      "stateMutability": "nonpayable",
      "type": "function"
    },
    {
      "inputs": [
        {
          "internalType": "uint256",
          "name": "_courseId",
          "type": "uint256"
        }
      ],
      "name": "unEnroll",
      "outputs": [
        {
          "internalType": "bool",
          "name": "",
          "type": "bool"
        }
      ],
      "stateMutability": "nonpayable",
      "type": "function"
    },
    {
      "inputs": [
        {
          "internalType": "address",
          "name": "",
          "type": "address"
        },
        {
          "internalType": "uint256",
          "name": "",
          "type": "uint256"
        }
      ],
      "name": "userScores",
      "outputs": [
        {
          "internalType": "uint256",
          "name": "",
          "type": "uint256"
        }
      ],
      "stateMutability": "view",
      "type": "function"
    }
  ],
  "bytecode": "0x608060405234801561001057600080fd5b506040516196a93803806196a98339818101604052810190610032919061051b565b80806040518060400160405280600a81526020017f4142594120544f4b454e000000000000000000000000000000000000000000008152506040518060400160405280600681526020017f414259544b4e000000000000000000000000000000000000000000000000000081525081600390816100af9190610785565b5080600490816100bf9190610785565b505050600281511015610107576040517f08c379a00000000000000000000000000000000000000000000000000000000081526004016100fe906108b4565b60405180910390fd5b61011a6000801b336101a060201b60201c565b5060005b815181101561017f576101717fa49807205ce4d355092ef5a8a18f56e8913cf4a201fbe287825b095693c2177583838151811061015e5761015d6108d4565b5b60200260200101516101a060201b60201c565b50808060010191505061011e565b50506001600681905550610199600761029e60201b60201c565b5050610903565b60006101b283836102dd60201b60201c565b6102935760016005600085815260200190815260200160002060000160008473ffffffffffffffffffffffffffffffffffffffff1673ffffffffffffffffffffffffffffffffffffffff16815260200190815260200160002060006101000a81548160ff02191690831515021790555061023061034860201b60201c565b73ffffffffffffffffffffffffffffffffffffffff168273ffffffffffffffffffffffffffffffffffffffff16847f2f8788117e7eff1d82e926ec794901d17c78024a50270940304540a733656f0d60405160405180910390a460019050610298565b600090505b92915050565b60018160000181905550600181600101819055506001816002018190555060018160030181905550600181600401819055506001816005018190555050565b60006005600084815260200190815260200160002060000160008373ffffffffffffffffffffffffffffffffffffffff1673ffffffffffffffffffffffffffffffffffffffff16815260200190815260200160002060009054906101000a900460ff16905092915050565b600033905090565b6000604051905090565b600080fd5b600080fd5b600080fd5b6000601f19601f8301169050919050565b7f4e487b7100000000000000000000000000000000000000000000000000000000600052604160045260246000fd5b6103b282610369565b810181811067ffffffffffffffff821117156103d1576103d061037a565b5b80604052505050565b60006103e4610350565b90506103f082826103a9565b919050565b600067ffffffffffffffff8211156104105761040f61037a565b5b602082029050602081019050919050565b600080fd5b600073ffffffffffffffffffffffffffffffffffffffff82169050919050565b600061045182610426565b9050919050565b61046181610446565b811461046c57600080fd5b50565b60008151905061047e81610458565b92915050565b6000610497610492846103f5565b6103da565b905080838252602082019050602084028301858111156104ba576104b9610421565b5b835b818110156104e357806104cf888261046f565b8452602084019350506020810190506104bc565b5050509392505050565b600082601f83011261050257610501610364565b5b8151610512848260208601610484565b91505092915050565b6000602082840312156105315761053061035a565b5b600082015167ffffffffffffffff81111561054f5761054e61035f565b5b61055b848285016104ed565b91505092915050565b600081519050919050565b7f4e487b7100000000000000000000000000000000000000000000000000000000600052602260045260246000fd5b600060028204905060018216806105b657607f821691505b6020821081036105c9576105c861056f565b5b50919050565b60008190508160005260206000209050919050565b60006020601f8301049050919050565b600082821b905092915050565b6000600883026106317fffffffffffffffffffffffffffffffffffffffffffffffffffffffffffffffff826105f4565b61063b86836105f4565b95508019841693508086168417925050509392505050565b6000819050919050565b6000819050919050565b600061068261067d61067884610653565b61065d565b610653565b9050919050565b6000819050919050565b61069c83610667565b6106b06106a882610689565b848454610601565b825550505050565b600090565b6106c56106b8565b6106d0818484610693565b505050565b5b818110156106f4576106e96000826106bd565b6001810190506106d6565b5050565b601f8211156107395761070a816105cf565b610713846105e4565b81016020851015610722578190505b61073661072e856105e4565b8301826106d5565b50505b505050565b600082821c905092915050565b600061075c6000198460080261073e565b1980831691505092915050565b6000610775838361074b565b9150826002028217905092915050565b61078e82610564565b67ffffffffffffffff8111156107a7576107a661037a565b5b6107b1825461059e565b6107bc8282856106f8565b600060209050601f8311600181146107ef57600084156107dd578287015190505b6107e78582610769565b86555061084f565b601f1984166107fd866105cf565b60005b8281101561082557848901518255600182019150602085019450602081019050610800565b86831015610842578489015161083e601f89168261074b565b8355505b6001600288020188555050505b505050505050565b600082825260208201905092915050565b7f4174206c6561737420322061646d696e73206172652072657175697265640000600082015250565b600061089e601e83610857565b91506108a982610868565b602082019050919050565b600060208201905081810360008301526108cd81610891565b9050919050565b7f4e487b7100000000000000000000000000000000000000000000000000000000600052603260045260246000fd5b618d97806109126000396000f3fe608060405234801561001057600080fd5b506004361061048b5760003560e01c80636fdb67f711610262578063aa95da3a11610151578063dd62ed3e116100ce578063e503f10811610092578063e503f10814611067578063e863975114611085578063ea0978ad146110b5578063eb264b9c146110e5578063f57d585b14611103578063ffabc673146111335761048b565b8063dd62ed3e14610f87578063ddfc79fb14610fb7578063de5dc3a014610fe9578063ded5c18d14611019578063e09bcae3146110375761048b565b8063c90c884d11610115578063c90c884d14610ebc578063c976831514610eed578063cc44e73714610f1d578063d547741f14610f4d578063d93f2caa14610f695761048b565b8063aa95da3a14610de3578063ac957c6314610e13578063bfd2f4c514610e31578063c12804fb14610e64578063c7954e4c14610e9e5761048b565b806391d14854116101df578063a14ecbdf116101a3578063a14ecbdf14610d16578063a217fddf14610d34578063a26a795314610d52578063a3ef204114610d82578063a9059cbb14610db35761048b565b806391d1485414610c4a5780639560bc8514610c7a57806395d89b4114610c985780639dad8d2214610cb6578063a1051dfe14610ce65761048b565b80637ce17852116102265780637ce1785214610b8f5780637d83daf214610bad578063846f815214610bcb57806388409afa14610be957806388a8270f14610c1a5761048b565b80636fdb67f714610ad45780637048027514610b0957806370a0823114610b255780637528499814610b5557806375b238fc14610b715761048b565b80632fab55af1161037e5780634dd84b3c116102fb5780635b680a45116102bf5780635b680a4514610a025780635cc2a14d14610a325780636605515914610a62578063663b3e2214610a805780636b000fa714610ab65761048b565b80634dd84b3c146109365780634fb95abd1461096657806351d93c811461099757806358a3fa25146109c8578063599c5533146109e45761048b565b806334ed4bdb1161034257806334ed4bdb1461088057806334f9b3fb146108b057806336568abe146108cc5780633693dcfa146108e85780634d42ef48146109065761048b565b80632fab55af146107b3578063313ce567146107e357806331b1b9781461080157806332cb6b0c1461083257806334b159dd146108505761048b565b8063248a9ca31161040c5780632990db7c116103d05780632990db7c146106e157806329a0be65146107165780632aac61ae146107345780632ec63a0e146107675780632f2ff15d146107975761048b565b8063248a9ca31461061457806324d7806c14610644578063274202f01461067457806327ff622314610692578063295b825a146106b05761048b565b806313e858111161045357806313e858111461054a5780631785f53c1461057a57806318160ddd1461059657806320bd0316146105b457806323b872dd146105e45761048b565b806301ffc9a71461049057806304e48bd1146104c0578063057f46bb146104de57806306fdde03146104fc578063095ea7b31461051a575b600080fd5b6104aa60048036038101906104a5919061657f565b611163565b6040516104b791906165c7565b60405180910390f35b6104c86111dd565b6040516104d5919061682d565b60405180910390f35b6104e66114df565b6040516104f3919061685e565b60405180910390f35b6105046114e5565b60405161051191906168c3565b60405180910390f35b610534600480360381019061052f919061693d565b611577565b60405161054191906165c7565b60405180910390f35b610564600480360381019061055f919061697d565b61159a565b60405161057191906165c7565b60405180910390f35b610594600480360381019061058f91906169bd565b6115c9565b005b61059e611604565b6040516105ab919061685e565b60405180910390f35b6105ce60048036038101906105c991906169ea565b61160e565b6040516105db91906165c7565b60405180910390f35b6105fe60048036038101906105f99190616a17565b611785565b60405161060b91906165c7565b60405180910390f35b61062e60048036038101906106299190616aa0565b6117b4565b60405161063b9190616adc565b60405180910390f35b61065e600480360381019061065991906169bd565b6117d4565b60405161066b91906165c7565b60405180910390f35b61067c611807565b604051610689919061685e565b60405180910390f35b61069a61182f565b6040516106a7919061685e565b60405180910390f35b6106ca60048036038101906106c591906169ea565b611834565b6040516106d8929190616af7565b60405180910390f35b6106fb60048036038101906106f691906169ea565b6118f0565b60405161070d96959493929190616b36565b60405180910390f35b61071e611a69565b60405161072b919061685e565b60405180910390f35b61074e600480360381019061074991906169ea565b611a6f565b60405161075e9493929190616ba5565b60405180910390f35b610781600480360381019061077c9190616bf8565b611bbf565b60405161078e91906165c7565b60405180910390f35b6107b160048036038101906107ac9190616c38565b611d64565b005b6107cd60048036038101906107c89190616e93565b611d86565b6040516107da91906165c7565b60405180910390f35b6107eb611ff3565b6040516107f89190616f0b565b60405180910390f35b61081b600480360381019061081691906169ea565b611ffc565b604051610829929190616af7565b60405180910390f35b61083a6120a8565b604051610847919061685e565b60405180910390f35b61086a6004803603810190610865919061697d565b6120b8565b60405161087791906165c7565b60405180910390f35b61089a600480360381019061089591906169bd565b6120e7565b6040516108a7919061685e565b60405180910390f35b6108ca60048036038101906108c59190616f26565b612105565b005b6108e660048036038101906108e19190616c38565b612243565b005b6108f06122be565b6040516108fd9190616adc565b60405180910390f35b610920600480360381019061091b9190616bf8565b6122e2565b60405161092d91906168c3565b60405180910390f35b610950600480360381019061094b919061697d565b61239b565b60405161095d91906165c7565b60405180910390f35b610980600480360381019061097b9190616f95565b6123ca565b60405161098e92919061710e565b60405180910390f35b6109b160048036038101906109ac91906169ea565b61271d565b6040516109bf929190616af7565b60405180910390f35b6109e260048036038101906109dd919061713e565b6127d9565b005b6109ec612afd565b6040516109f9919061685e565b60405180910390f35b610a1c6004803603810190610a17919061693d565b612b02565b604051610a29919061685e565b60405180910390f35b610a4c6004803603810190610a479190617232565b612b27565b604051610a5991906165c7565b60405180910390f35b610a6a612c13565b604051610a77919061685e565b60405180910390f35b610a9a6004803603810190610a9591906169ea565b612c19565b604051610aad979695949392919061728e565b60405180910390f35b610abe612e13565b604051610acb919061685e565b60405180910390f35b610aee6004803603810190610ae991906169ea565b612e19565b604051610b0096959493929190616b36565b60405180910390f35b610b236004803603810190610b1e91906169bd565b612fa2565b005b610b3f6004803603810190610b3a91906169bd565b612ffb565b604051610b4c919061685e565b60405180910390f35b610b6f6004803603810190610b6a91906169ea565b613043565b005b610b7961325d565b604051610b869190616adc565b60405180910390f35b610b97613281565b604051610ba4919061685e565b60405180910390f35b610bb561328d565b604051610bc2919061685e565b60405180910390f35b610bd3613293565b604051610be0919061685e565b60405180910390f35b610c036004803603810190610bfe91906169ea565b61329f565b604051610c11929190616af7565b60405180910390f35b610c346004803603810190610c2f9190616bf8565b61334b565b604051610c4191906165c7565b60405180910390f35b610c646004803603810190610c5f9190616c38565b6135cc565b604051610c7191906165c7565b60405180910390f35b610c82613637565b604051610c8f919061685e565b60405180910390f35b610ca0613643565b604051610cad91906168c3565b60405180910390f35b610cd06004803603810190610ccb91906169ea565b6136d5565b604051610cdd91906165c7565b60405180910390f35b610d006004803603810190610cfb9190616bf8565b613a2d565b604051610d0d91906165c7565b60405180910390f35b610d1e613cf3565b604051610d2b919061685e565b60405180910390f35b610d3c613cf9565b604051610d499190616adc565b60405180910390f35b610d6c6004803603810190610d679190617312565b613d00565b604051610d7991906165c7565b60405180910390f35b610d9c6004803603810190610d9791906169ea565b6140d7565b604051610daa929190616af7565b60405180910390f35b610dcd6004803603810190610dc8919061693d565b614183565b604051610dda91906165c7565b60405180910390f35b610dfd6004803603810190610df89190616bf8565b6141a6565b604051610e0a91906168c3565b60405180910390f35b610e1b61425f565b604051610e28919061685e565b60405180910390f35b610e4b6004803603810190610e4691906169ea565b614264565b604051610e5b9493929190616ba5565b60405180910390f35b610e7e6004803603810190610e79919061697d565b6143a4565b604051610e959b9a9998979695949392919061738a565b60405180910390f35b610ea6614418565b604051610eb3919061685e565b60405180910390f35b610ed66004803603810190610ed191906169ea565b614422565b604051610ee4929190616af7565b60405180910390f35b610f076004803603810190610f02919061697d565b6144de565b604051610f1491906165c7565b60405180910390f35b610f376004803603810190610f3291906175d8565b61450d565b604051610f4491906165c7565b60405180910390f35b610f676004803603810190610f629190616c38565b614731565b005b610f71614753565b604051610f7e919061685e565b60405180910390f35b610fa16004803603810190610f9c9190617693565b61475f565b604051610fae919061685e565b60405180910390f35b610fd16004803603810190610fcc91906169ea565b6147e6565b604051610fe0939291906176d3565b60405180910390f35b6110036004803603810190610ffe91906177e2565b6149b8565b604051611010919061685e565b60405180910390f35b611021614c62565b60405161102e919061685e565b60405180910390f35b611051600480360381019061104c9190616bf8565b614c6f565b60405161105e91906165c7565b60405180910390f35b61106f614eda565b60405161107c919061685e565b60405180910390f35b61109f600480360381019061109a9190616f26565b614ee0565b6040516110ac91906165c7565b60405180910390f35b6110cf60048036038101906110ca9190616bf8565b614fce565b6040516110dc91906165c7565b60405180910390f35b6110ed615245565b6040516110fa919061685e565b60405180910390f35b61111d600480360381019061111891906169ea565b61524b565b60405161112a91906165c7565b60405180910390f35b61114d6004803603810190611148919061693d565b615427565b60405161115a91906165c7565b60405180910390f35b60007f7965db0b000000000000000000000000000000000000000000000000000000007bffffffffffffffffffffffffffffffffffffffffffffffffffffffff1916827bffffffffffffffffffffffffffffffffffffffffffffffffffffffff191614806111d657506111d582615456565b5b9050919050565b6060600060208054905067ffffffffffffffff811115611200576111ff616c7d565b5b60405190808252806020026020018201604052801561123957816020015b611226616107565b81526020019060019003908161121e5790505b50905060005b6020805490508110156114d7576040518060c001604052806020838154811061126b5761126a61783e565b5b9060005260206000209060060201600001548152602001602083815481106112965761129561783e565b5b906000526020600020906006020160010180546112b29061789c565b80601f01602080910402602001604051908101604052809291908181526020018280546112de9061789c565b801561132b5780601f106113005761010080835404028352916020019161132b565b820191906000526020600020905b81548152906001019060200180831161130e57829003601f168201915b50505050508152602001602083815481106113495761134861783e565b5b906000526020600020906006020160020180546113659061789c565b80601f01602080910402602001604051908101604052809291908181526020018280546113919061789c565b80156113de5780601f106113b3576101008083540402835291602001916113de565b820191906000526020600020905b8154815290600101906020018083116113c157829003601f168201915b50505050508152602001602083815481106113fc576113fb61783e565b5b906000526020600020906006020160030160009054906101000a900460ff1615158152602001602083815481106114365761143561783e565b5b9060005260206000209060060201600401548152602001602083815481106114615761146061783e565b5b906000526020600020906006020160050160009054906101000a900473ffffffffffffffffffffffffffffffffffffffff1673ffffffffffffffffffffffffffffffffffffffff168152508282815181106114bf576114be61783e565b5b6020026020010181905250808060010191505061123f565b508091505090565b60105481565b6060600380546114f49061789c565b80601f01602080910402602001604051908101604052809291908181526020018280546115209061789c565b801561156d5780601f106115425761010080835404028352916020019161156d565b820191906000526020600020905b81548152906001019060200180831161155057829003601f168201915b5050505050905090565b6000806115826154c0565b905061158f8185856154c8565b600191505092915050565b60276020528160005260406000206020528060005260406000206000915091509054906101000a900460ff1681565b6000801b6115d6816154da565b6116007fa49807205ce4d355092ef5a8a18f56e8913cf4a201fbe287825b095693c2177583614731565b5050565b6000600254905090565b60006116186154ee565b601f600083815260200190815260200160002060003373ffffffffffffffffffffffffffffffffffffffff1673ffffffffffffffffffffffffffffffffffffffff16815260200190815260200160002060009054906101000a900460ff166116b5576040517f08c379a00000000000000000000000000000000000000000000000000000000081526004016116ac9061793f565b60405180910390fd5b6000601f600084815260200190815260200160002060003373ffffffffffffffffffffffffffffffffffffffff1673ffffffffffffffffffffffffffffffffffffffff16815260200190815260200160002060006101000a81548160ff02191690831515021790555061173033671bc16d674ec80000615534565b3373ffffffffffffffffffffffffffffffffffffffff16827f9b244c565b926d7f4e915b69f3a5c6afc2231322d0d44e821076ad8879d0d68360405160405180910390a36001905061178061555b565b919050565b6000806117906154c0565b905061179d858285615565565b6117a88585856155f9565b60019150509392505050565b600060056000838152602001908152602001600020600101549050919050565b60006118007fa49807205ce4d355092ef5a8a18f56e8913cf4a201fbe287825b095693c21775836135cc565b9050919050565b6064600f6b204fce5e3e25026110000000611822919061798e565b61182c91906179ff565b81565b606481565b6024818154811061184457600080fd5b906000526020600020906003020160009150905080600001549080600101805461186d9061789c565b80601f01602080910402602001604051908101604052809291908181526020018280546118999061789c565b80156118e65780601f106118bb576101008083540402835291602001916118e6565b820191906000526020600020905b8154815290600101906020018083116118c957829003601f168201915b5050505050905082565b60156020528060005260406000206000915090508060000154908060010180546119199061789c565b80601f01602080910402602001604051908101604052809291908181526020018280546119459061789c565b80156119925780601f1061196757610100808354040283529160200191611992565b820191906000526020600020905b81548152906001019060200180831161197557829003601f168201915b5050505050908060020180546119a79061789c565b80601f01602080910402602001604051908101604052809291908181526020018280546119d39061789c565b8015611a205780601f106119f557610100808354040283529160200191611a20565b820191906000526020600020905b815481529060010190602001808311611a0357829003601f168201915b5050505050908060030160009054906101000a900460ff16908060040154908060050160009054906101000a900473ffffffffffffffffffffffffffffffffffffffff16905086565b60115481565b60228181548110611a7f57600080fd5b9060005260206000209060220201600091509050806000015490806001018054611aa89061789c565b80601f0160208091040260200160405190810160405280929190818152602001828054611ad49061789c565b8015611b215780601f10611af657610100808354040283529160200191611b21565b820191906000526020600020905b815481529060010190602001808311611b0457829003601f168201915b505050505090806002018054611b369061789c565b80601f0160208091040260200160405190810160405280929190818152602001828054611b629061789c565b8015611baf5780601f10611b8457610100808354040283529160200191611baf565b820191906000526020600020905b815481529060010190602001808311611b9257829003601f168201915b5050505050908060210154905084565b60006027600083815260200190815260200160002060003373ffffffffffffffffffffffffffffffffffffffff1673ffffffffffffffffffffffffffffffffffffffff16815260200190815260200160002060009054906101000a900460ff1615611c5f576040517f08c379a0000000000000000000000000000000000000000000000000000000008152600401611c5690617aa2565b60405180910390fd5b6000601b60008481526020019081526020016000206000015403611cb8576040517f08c379a0000000000000000000000000000000000000000000000000000000008152600401611caf90617b0e565b60405180910390fd5b60016027600084815260200190815260200160002060003373ffffffffffffffffffffffffffffffffffffffff1673ffffffffffffffffffffffffffffffffffffffff16815260200190815260200160002060006101000a81548160ff02191690831515021790555081837f2479aa0d18311382446edb0fa11d0dbd5bab1be78b1e60b343ffe4d2a5f798ad33604051611d529190617b2e565b60405180910390a36001905092915050565b611d6d826117b4565b611d76816154da565b611d8083836156ed565b50505050565b60008073ffffffffffffffffffffffffffffffffffffffff166015600085815260200190815260200160002060050160009054906101000a900473ffffffffffffffffffffffffffffffffffffffff1673ffffffffffffffffffffffffffffffffffffffff1603611e2c576040517f08c379a0000000000000000000000000000000000000000000000000000000008152600401611e2390617b95565b60405180910390fd5b60005b8251811015611f2057600060405180604001604052806010548152602001858481518110611e6057611e5f61783e565b5b602002602001015181525090506021819080600181540180825580915050600190039060005260206000209060020201600090919091909150600082015181600001556020820151816001019081611eb89190617d61565b505050600060105490508160196000838152602001908152602001600020600082015181600001556020820151816001019081611ef59190617d61565b5090505060106000815480929190611f0c90617e33565b919050555050508080600101915050611e2f565b50601a60008481526020019081526020016000206000611f409190616155565b60005b8251811015611fb957601a6000858152602001908152602001600020838281518110611f7257611f7161783e565b5b6020026020010151908060018154018082558091505060019003906000526020600020016000909190919091509081611fab9190617d61565b508080600101915050611f43565b508151837f1eb97e969f52c132bb6c79817d1f9001078fff0cd328ce625628e1fb4cc0e7de60405160405180910390a36001905092915050565b60006012905090565b601e6020528060005260406000206000915090508060000154908060010180546120259061789c565b80601f01602080910402602001604051908101604052809291908181526020018280546120519061789c565b801561209e5780601f106120735761010080835404028352916020019161209e565b820191906000526020600020905b81548152906001019060200180831161208157829003601f168201915b5050505050905082565b6b204fce5e3e2502611000000081565b60296020528160005260406000206020528060005260406000206000915091509054906101000a900460ff1681565b60176020528060005260406000206000915090508060000154905081565b7fadb22091b155738d2e889eb96f509d2a7c93234236b30400927feb4a6a15ab0061212f816154da565b6000601d60008581526020019081526020016000206000015403612188576040517f08c379a000000000000000000000000000000000000000000000000000000000815260040161217f90617ec7565b60405180910390fd5b82601d600085815260200190815260200160002060000154146121e0576040517f08c379a00000000000000000000000000000000000000000000000000000000081526004016121d790617f33565b60405180910390fd5b81601d600085815260200190815260200160002060010190816122039190617d61565b5082847fad5fab99ac4d99e1061fd121b36537d5213be564a3dc6cc383897dc355e89ff58460405161223591906168c3565b60405180910390a350505050565b61224b6154c0565b73ffffffffffffffffffffffffffffffffffffffff168173ffffffffffffffffffffffffffffffffffffffff16146122af576040517f6697b23200000000000000000000000000000000000000000000000000000000815260040160405180910390fd5b6122b982826157df565b505050565b7fadb22091b155738d2e889eb96f509d2a7c93234236b30400927feb4a6a15ab0081565b601a60205281600052604060002081815481106122fe57600080fd5b9060005260206000200160009150915050805461231a9061789c565b80601f01602080910402602001604051908101604052809291908181526020018280546123469061789c565b80156123935780601f1061236857610100808354040283529160200191612393565b820191906000526020600020905b81548152906001019060200180831161237657829003601f168201915b505050505081565b60266020528160005260406000206020528060005260406000206000915091509054906101000a900460ff1681565b60006123d4616176565b601f600088815260200190815260200160002060003373ffffffffffffffffffffffffffffffffffffffff1673ffffffffffffffffffffffffffffffffffffffff16815260200190815260200160002060009054906101000a900460ff16612471576040517f08c379a000000000000000000000000000000000000000000000000000000000815260040161246890617fc5565b60405180910390fd5b6026600088815260200190815260200160002060003373ffffffffffffffffffffffffffffffffffffffff1673ffffffffffffffffffffffffffffffffffffffff16815260200190815260200160002060009054906101000a900460ff161561250f576040517f08c379a000000000000000000000000000000000000000000000000000000000815260040161250690618057565b60405180910390fd5b60016026600089815260200190815260200160002060003373ffffffffffffffffffffffffffffffffffffffff1673ffffffffffffffffffffffffffffffffffffffff16815260200190815260200160002060006101000a81548160ff02191690831515021790555061258a33671bc16d674ec800006158d2565b5060008787878787426040516020016125a8969594939291906180d4565b6040516020818303038152906040528051906020012060001c905060006040518060e001604052808381526020018a81526020018981526020018781526020018681526020018881526020013373ffffffffffffffffffffffffffffffffffffffff16815250905080602a60008481526020019081526020016000206000820151816000015560208201518160010155604082015181600201908161264d9190617d61565b5060608201518160030190816126639190617d61565b506080820151816004015560a08201518160050190816126839190617d61565b5060c08201518160060160006101000a81548173ffffffffffffffffffffffffffffffffffffffff021916908373ffffffffffffffffffffffffffffffffffffffff1602179055509050507f95ad50d6596337460bdce4b8db70313463e0615be9266b573e781327aef44e098288888b6040516127039493929190618138565b60405180910390a181819350935050509550959350505050565b6025818154811061272d57600080fd5b90600052602060002090600302016000915090508060000154908060010180546127569061789c565b80601f01602080910402602001604051908101604052809291908181526020018280546127829061789c565b80156127cf5780601f106127a4576101008083540402835291602001916127cf565b820191906000526020600020905b8154815290600101906020018083116127b257829003601f168201915b5050505050905082565b7fa49807205ce4d355092ef5a8a18f56e8913cf4a201fbe287825b095693c21775612803816154da565b601660008d815260200190815260200160002060003373ffffffffffffffffffffffffffffffffffffffff1673ffffffffffffffffffffffffffffffffffffffff168152602001908152602001600020600a0160009054906101000a900460ff16156128a4576040517f08c379a000000000000000000000000000000000000000000000000000000000815260040161289b90618204565b60405180910390fd5b600a8b111580156128b65750600a8a11155b80156128c35750600a8911155b80156128d05750600a8811155b80156128dd5750600a8711155b80156128ea5750600a8611155b80156128f75750600a8511155b80156129045750600a8411155b80156129115750600a8311155b801561291e5750600a8211155b61295d576040517f08c379a000000000000000000000000000000000000000000000000000000000815260040161295490618270565b60405180910390fd5b6040518061016001604052808c81526020018b81526020018a815260200189815260200188815260200187815260200186815260200185815260200184815260200183815260200160011515815250601660008e815260200190815260200160002060003373ffffffffffffffffffffffffffffffffffffffff1673ffffffffffffffffffffffffffffffffffffffff168152602001908152602001600020600082015181600001556020820151816001015560408201518160020155606082015181600301556080820151816004015560a0820151816005015560c0820151816006015560e082015181600701556101008201518160080155610120820151816009015561014082015181600a0160006101000a81548160ff0219169083151502179055509050506050612ae0601660008f815260200190815260200160002060003373ffffffffffffffffffffffffffffffffffffffff1673ffffffffffffffffffffffffffffffffffffffff1681526020019081526020016000206159bf565b10612aef57612aee8c613043565b5b505050505050505050505050565b600281565b6028602052816000526040600020602052806000526040600020600091509150505481565b60007fadb22091b155738d2e889eb96f509d2a7c93234236b30400927feb4a6a15ab00612b53816154da565b6000601560008681526020019081526020016000206000015403612bac576040517f08c379a0000000000000000000000000000000000000000000000000000000008152600401612ba3906182dc565b60405180910390fd5b82601560008681526020019081526020016000206001019081612bcf9190617d61565b50837f5c8c98b6b26236296c856fae8a5ca0c793bbb81c5f8b7c9a9ab99358f53fb0c084604051612c0091906168c3565b60405180910390a2600191505092915050565b600e5481565b602a602052806000526040600020600091509050806000015490806001015490806002018054612c489061789c565b80601f0160208091040260200160405190810160405280929190818152602001828054612c749061789c565b8015612cc15780601f10612c9657610100808354040283529160200191612cc1565b820191906000526020600020905b815481529060010190602001808311612ca457829003601f168201915b505050505090806003018054612cd69061789c565b80601f0160208091040260200160405190810160405280929190818152602001828054612d029061789c565b8015612d4f5780601f10612d2457610100808354040283529160200191612d4f565b820191906000526020600020905b815481529060010190602001808311612d3257829003601f168201915b505050505090806004015490806005018054612d6a9061789c565b80601f0160208091040260200160405190810160405280929190818152602001828054612d969061789c565b8015612de35780601f10612db857610100808354040283529160200191612de3565b820191906000526020600020905b815481529060010190602001808311612dc657829003601f168201915b5050505050908060060160009054906101000a900473ffffffffffffffffffffffffffffffffffffffff16905087565b60145481565b60208181548110612e2957600080fd5b9060005260206000209060060201600091509050806000015490806001018054612e529061789c565b80601f0160208091040260200160405190810160405280929190818152602001828054612e7e9061789c565b8015612ecb5780601f10612ea057610100808354040283529160200191612ecb565b820191906000526020600020905b815481529060010190602001808311612eae57829003601f168201915b505050505090806002018054612ee09061789c565b80601f0160208091040260200160405190810160405280929190818152602001828054612f0c9061789c565b8015612f595780601f10612f2e57610100808354040283529160200191612f59565b820191906000526020600020905b815481529060010190602001808311612f3c57829003601f168201915b5050505050908060030160009054906101000a900460ff16908060040154908060050160009054906101000a900473ffffffffffffffffffffffffffffffffffffffff16905086565b7fa49807205ce4d355092ef5a8a18f56e8913cf4a201fbe287825b095693c21775612fcc816154da565b612ff67fa49807205ce4d355092ef5a8a18f56e8913cf4a201fbe287825b095693c21775836156ed565b505050565b60008060008373ffffffffffffffffffffffffffffffffffffffff1673ffffffffffffffffffffffffffffffffffffffff168152602001908152602001600020549050919050565b7fa49807205ce4d355092ef5a8a18f56e8913cf4a201fbe287825b095693c2177561306d816154da565b60006015600084815260200190815260200160002090508060030160009054906101000a900460ff16156130d6576040517f08c379a00000000000000000000000000000000000000000000000000000000081526004016130cd90618348565b60405180910390fd5b601860003373ffffffffffffffffffffffffffffffffffffffff1673ffffffffffffffffffffffffffffffffffffffff168152602001908152602001600020600084815260200190815260200160002060009054906101000a900460ff1615613174576040517f08c379a000000000000000000000000000000000000000000000000000000000815260040161316b906183da565b60405180910390fd5b6001601860003373ffffffffffffffffffffffffffffffffffffffff1673ffffffffffffffffffffffffffffffffffffffff168152602001908152602001600020600085815260200190815260200160002060006101000a81548160ff0219169083151502179055508060040160008154809291906131f290617e33565b919050555060028160040154106132585760018160030160006101000a81548160ff0219169083151502179055506132568160050160009054906101000a900473ffffffffffffffffffffffffffffffffffffffff16674563918244f400006158d2565b505b505050565b7fa49807205ce4d355092ef5a8a18f56e8913cf4a201fbe287825b095693c2177581565b671bc16d674ec8000081565b600f5481565b671bc16d674ec8000081565b601d6020528060005260406000206000915090508060000154908060010180546132c89061789c565b80601f01602080910402602001604051908101604052809291908181526020018280546132f49061789c565b80156133415780601f1061331657610100808354040283529160200191613341565b820191906000526020600020905b81548152906001019060200180831161332457829003601f168201915b5050505050905082565b60007fadb22091b155738d2e889eb96f509d2a7c93234236b30400927feb4a6a15ab00613377816154da565b6000601d600086815260200190815260200160002060000154036133d0576040517f08c379a00000000000000000000000000000000000000000000000000000000081526004016133c790618446565b60405180910390fd5b6000601e60008581526020019081526020016000206000015403613429576040517f08c379a0000000000000000000000000000000000000000000000000000000008152600401613420906184b2565b60405180910390fd5b60005b60258054905081101561355457836025828154811061344e5761344d61783e565b5b90600052602060002090600302016000015403613547576025600160258054905061347991906184d2565b8154811061348a5761348961783e565b5b9060005260206000209060030201602582815481106134ac576134ab61783e565b5b906000526020600020906003020160008201548160000155600182018160010190816134d8919061851c565b5060028201816002019080546134ef9291906161c9565b50905050602580548061350557613504618604565b5b60019003818190600052602060002090600302016000808201600090556001820160006135329190616263565b60028201600061354291906162a3565b505090555b808060010191505061342c565b50601e60008481526020019081526020016000206000808201600090556001820160006135819190616263565b60028201600061359191906162a3565b505082847ff084fa19916f58d56801346cc04ca2d2c28a5531dc7db17ebd2323685518b12660405160405180910390a3600191505092915050565b60006005600084815260200190815260200160002060000160008373ffffffffffffffffffffffffffffffffffffffff1673ffffffffffffffffffffffffffffffffffffffff16815260200190815260200160002060009054906101000a900460ff16905092915050565b670de0b6b3a764000081565b6060600480546136529061789c565b80601f016020809104026020016040519081016040528092919081815260200182805461367e9061789c565b80156136cb5780601f106136a0576101008083540402835291602001916136cb565b820191906000526020600020905b8154815290600101906020018083116136ae57829003601f168201915b5050505050905090565b60007fadb22091b155738d2e889eb96f509d2a7c93234236b30400927feb4a6a15ab00613701816154da565b600060156000858152602001908152602001600020600001540361375a576040517f08c379a00000000000000000000000000000000000000000000000000000000081526004016137519061867f565b60405180910390fd5b60005b602080549050811161396957836020828154811061377e5761377d61783e565b5b9060005260206000209060060201600001540361395657602060016020805490506137a991906184d2565b815481106137ba576137b961783e565b5b9060005260206000209060060201602082815481106137dc576137db61783e565b5b90600052602060002090600602016000820154816000015560018201816001019081613808919061851c565b506002820181600201908161381d919061851c565b506003820160009054906101000a900460ff168160030160006101000a81548160ff021916908315150217905550600482015481600401556005820160009054906101000a900473ffffffffffffffffffffffffffffffffffffffff168160050160006101000a81548173ffffffffffffffffffffffffffffffffffffffff021916908373ffffffffffffffffffffffffffffffffffffffff16021790555090505060208054806138d1576138d0618604565b5b60019003818190600052602060002090600602016000808201600090556001820160006138fe9190616263565b60028201600061390e9190616263565b6003820160006101000a81549060ff021916905560048201600090556005820160006101000a81549073ffffffffffffffffffffffffffffffffffffffff0219169055505090555b808061396190617e33565b91505061375d565b50601560008481526020019081526020016000206000808201600090556001820160006139969190616263565b6002820160006139a69190616263565b6003820160006101000a81549060ff021916905560048201600090556005820160006101000a81549073ffffffffffffffffffffffffffffffffffffffff02191690555050827f50d94198096be9c8aad282f822173f9212251c4d4dc2731fa944f3941749a78d33604051613a1b9190617b2e565b60405180910390a26001915050919050565b60007fadb22091b155738d2e889eb96f509d2a7c93234236b30400927feb4a6a15ab00613a59816154da565b6000601960008681526020019081526020016000206000015403613ab2576040517f08c379a0000000000000000000000000000000000000000000000000000000008152600401613aa9906186eb565b60405180910390fd5b6000601b60008581526020019081526020016000206000015403613b0b576040517f08c379a0000000000000000000000000000000000000000000000000000000008152600401613b0290617b0e565b60405180910390fd5b60005b6021805490508111613c635783601b60008381526020019081526020016000206000015403613c505760226001602280549050613b4b91906184d2565b81548110613b5c57613b5b61783e565b5b906000526020600020906022020160228281548110613b7e57613b7d61783e565b5b90600052602060002090602202016000820154816000015560018201816001019081613baa919061851c565b5060028201816002019081613bbf919061851c565b50600382018160030190600a613bd69291906162c7565b50602182015481602101559050506022805480613bf657613bf5618604565b5b6001900381819060005260206000209060220201600080820160009055600182016000613c239190616263565b600282016000613c339190616263565b600382016000613c439190616349565b6021820160009055505090555b8080613c5b90617e33565b915050613b0e565b50601b6000848152602001908152602001600020600080820160009055600182016000613c909190616263565b600282016000613ca09190616263565b600382016000613cb09190616349565b6021820160009055505082847f1cdc2ff39034471047dd6d36512a12b5c2e9a30137b2e45daecd05383221d97b60405160405180910390a3600191505092915050565b600d5481565b6000801b81565b60008073ffffffffffffffffffffffffffffffffffffffff1660156000600f54815260200190815260200160002060050160009054906101000a900473ffffffffffffffffffffffffffffffffffffffff1673ffffffffffffffffffffffffffffffffffffffff1614613da8576040517f08c379a0000000000000000000000000000000000000000000000000000000008152600401613d9f90618757565b60405180910390fd5b60006040518060c00160405280600f548152602001858152602001848152602001600015158152602001600081526020013373ffffffffffffffffffffffffffffffffffffffff1681525090508060156000600f548152602001908152602001600020600082015181600001556020820151816001019081613e2a9190617d61565b506040820151816002019081613e409190617d61565b5060608201518160030160006101000a81548160ff0219169083151502179055506080820151816004015560a08201518160050160006101000a81548173ffffffffffffffffffffffffffffffffffffffff021916908373ffffffffffffffffffffffffffffffffffffffff1602179055509050506020819080600181540180825580915050600190039060005260206000209060060201600090919091909150600082015181600001556020820151816001019081613f009190617d61565b506040820151816002019081613f169190617d61565b5060608201518160030160006101000a81548160ff0219169083151502179055506080820151816004015560a08201518160050160006101000a81548173ffffffffffffffffffffffffffffffffffffffff021916908373ffffffffffffffffffffffffffffffffffffffff1602179055505050600e6000815480929190613f9d90617e33565b91905055506001601760003373ffffffffffffffffffffffffffffffffffffffff1673ffffffffffffffffffffffffffffffffffffffff1681526020019081526020016000206000016000828254613ff59190618777565b92505081905550600f600081548092919061400f90617e33565b919050555061403e7fadb22091b155738d2e889eb96f509d2a7c93234236b30400927feb4a6a15ab00336156ed565b508360405161404d91906187ab565b60405180910390206001600f5461406491906184d2565b7f9c93a42b217373d37e6c66ace0a67fe1fa1f78c93164b62417de69c48c0f67e2601560006001600f5461409891906184d2565b815260200190815260200160002060030160009054906101000a900460ff166040516140c491906165c7565b60405180910390a3600191505092915050565b60196020528060005260406000206000915090508060000154908060010180546141009061789c565b80601f016020809104026020016040519081016040528092919081815260200182805461412c9061789c565b80156141795780601f1061414e57610100808354040283529160200191614179565b820191906000526020600020905b81548152906001019060200180831161415c57829003601f168201915b5050505050905082565b60008061418e6154c0565b905061419b8185856155f9565b600191505092915050565b601c60205281600052604060002081815481106141c257600080fd5b906000526020600020016000915091505080546141de9061789c565b80601f016020809104026020016040519081016040528092919081815260200182805461420a9061789c565b80156142575780601f1061422c57610100808354040283529160200191614257565b820191906000526020600020905b81548152906001019060200180831161423a57829003601f168201915b505050505081565b605081565b601b60205280600052604060002060009150905080600001549080600101805461428d9061789c565b80601f01602080910402602001604051908101604052809291908181526020018280546142b99061789c565b80156143065780601f106142db57610100808354040283529160200191614306565b820191906000526020600020905b8154815290600101906020018083116142e957829003601f168201915b50505050509080600201805461431b9061789c565b80601f01602080910402602001604051908101604052809291908181526020018280546143479061789c565b80156143945780601f1061436957610100808354040283529160200191614394565b820191906000526020600020905b81548152906001019060200180831161437757829003601f168201915b5050505050908060210154905084565b60166020528160005260406000206020528060005260406000206000915091505080600001549080600101549080600201549080600301549080600401549080600501549080600601549080600701549080600801549080600901549080600a0160009054906101000a900460ff1690508b565b6000600d54905090565b6021818154811061443257600080fd5b906000526020600020906002020160009150905080600001549080600101805461445b9061789c565b80601f01602080910402602001604051908101604052809291908181526020018280546144879061789c565b80156144d45780601f106144a9576101008083540402835291602001916144d4565b820191906000526020600020905b8154815290600101906020018083116144b757829003601f168201915b5050505050905082565b601f6020528160005260406000206020528060005260406000206000915091509054906101000a900460ff1681565b60007fadb22091b155738d2e889eb96f509d2a7c93234236b30400927feb4a6a15ab00614539816154da565b6000601b60008881526020019081526020016000206000015403614592576040517f08c379a00000000000000000000000000000000000000000000000000000000081526004016145899061880e565b60405180910390fd5b84601b600088815260200190815260200160002060010190816145b59190617d61565b5083601b600088815260200190815260200160002060020190816145d99190617d61565b506000835111156146ec57600a83511115614629576040517f08c379a0000000000000000000000000000000000000000000000000000000008152600401614620906188a0565b60405180910390fd5b60005b83518110156146ce578381815181106146485761464761783e565b5b6020026020010151601b600089815260200190815260200160002060030182600a81106146785761467761783e565b5b6003020160008201518160000190816146919190617d61565b5060208201518160010190816146a79190617d61565b5060408201518160020190816146bd9190617d61565b50905050808060010191505061462c565b508251601b6000888152602001908152602001600020602101819055505b857f2a39a7cf20a19c3cd9811b72b89fab269dce3aa109f6d2a0631cd3e1f0457e5d8660405161471c91906168c3565b60405180910390a26001915050949350505050565b61473a826117b4565b614743816154da565b61474d83836157df565b50505050565b674563918244f4000081565b6000600160008473ffffffffffffffffffffffffffffffffffffffff1673ffffffffffffffffffffffffffffffffffffffff16815260200190815260200160002060008373ffffffffffffffffffffffffffffffffffffffff1673ffffffffffffffffffffffffffffffffffffffff16815260200190815260200160002054905092915050565b602381815481106147f657600080fd5b90600052602060002090600302016000915090508060000180546148199061789c565b80601f01602080910402602001604051908101604052809291908181526020018280546148459061789c565b80156148925780601f1061486757610100808354040283529160200191614892565b820191906000526020600020905b81548152906001019060200180831161487557829003601f168201915b5050505050908060010180546148a79061789c565b80601f01602080910402602001604051908101604052809291908181526020018280546148d39061789c565b80156149205780601f106148f557610100808354040283529160200191614920565b820191906000526020600020905b81548152906001019060200180831161490357829003601f168201915b5050505050908060020180546149359061789c565b80601f01602080910402602001604051908101604052809291908181526020018280546149619061789c565b80156149ae5780601f10614983576101008083540402835291602001916149ae565b820191906000526020600020905b81548152906001019060200180831161499157829003601f168201915b5050505050905083565b600080601d60008581526020019081526020016000209050600081600201805490509050600081855114614a21576040517f08c379a0000000000000000000000000000000000000000000000000000000008152600401614a1890618932565b60405180910390fd5b60005b82811015614b14576000846002018281548110614a4457614a4361783e565b5b906000526020600020906003020190506000878381518110614a6957614a6861783e565b5b6020026020010151905081600201805490508110614abc576040517f08c379a0000000000000000000000000000000000000000000000000000000008152600401614ab39061899e565b60405180910390fd5b816002018181548110614ad257614ad161783e565b5b906000526020600020906002020160010160009054906101000a900460ff1615614b05578380614b0190617e33565b9450505b50508080600101915050614a24565b5081606482614b23919061798e565b614b2d91906179ff565b9350604b8410614c095760016029600088815260200190815260200160002060003373ffffffffffffffffffffffffffffffffffffffff1673ffffffffffffffffffffffffffffffffffffffff16815260200190815260200160002060006101000a81548160ff02191690831515021790555083602860003373ffffffffffffffffffffffffffffffffffffffff1673ffffffffffffffffffffffffffffffffffffffff168152602001908152602001600020600088815260200190815260200160002081905550614c0733670de0b6b3a76400006158d2565b505b3373ffffffffffffffffffffffffffffffffffffffff167fcce9b9ed7e05afc64f73f1ce3f6ff1011a740b718ae6277a14698a4ef2d62dbf8786604051614c519291906189be565b60405180910390a250505092915050565b6000600760000154905090565b60007fadb22091b155738d2e889eb96f509d2a7c93234236b30400927feb4a6a15ab00614c9b816154da565b7fadb22091b155738d2e889eb96f509d2a7c93234236b30400927feb4a6a15ab00614cc5816154da565b6000601560008781526020019081526020016000206000015403614d1e576040517f08c379a0000000000000000000000000000000000000000000000000000000008152600401614d1590618a33565b60405180910390fd5b6000601960008681526020019081526020016000206000015403614d77576040517f08c379a0000000000000000000000000000000000000000000000000000000008152600401614d6e906186eb565b60405180910390fd5b60005b6021805490508111614e715784601960008381526020019081526020016000206000015403614e5e5760216001602180549050614db791906184d2565b81548110614dc857614dc761783e565b5b906000526020600020906002020160218281548110614dea57614de961783e565b5b90600052602060002090600202016000820154816000015560018201816001019081614e16919061851c565b509050506021805480614e2c57614e2b618604565b5b6001900381819060005260206000209060020201600080820160009055600182016000614e599190616263565b505090555b8080614e6990617e33565b915050614d7a565b5060196000858152602001908152602001600020600080820160009055600182016000614e9e9190616263565b505083857fab6d08543726a41eac26ac96d0b4591127baed3bfb915d2603ccb9fb2440c42560405160405180910390a360019250505092915050565b60125481565b60007fadb22091b155738d2e889eb96f509d2a7c93234236b30400927feb4a6a15ab00614f0c816154da565b6000601960008681526020019081526020016000206000015403614f65576040517f08c379a0000000000000000000000000000000000000000000000000000000008152600401614f5c90618a9f565b60405180910390fd5b82601960008681526020019081526020016000206001019081614f889190617d61565b5083857f7714a2fe2221824dfd5cd15f7cc29e38ffefcf9b6ad62c216321afcde79cbcfb85604051614fba91906168c3565b60405180910390a360019150509392505050565b60007fadb22091b155738d2e889eb96f509d2a7c93234236b30400927feb4a6a15ab00614ffa816154da565b6000601b60008681526020019081526020016000206000015403615053576040517f08c379a000000000000000000000000000000000000000000000000000000000815260040161504a90617b0e565b60405180910390fd5b6000601d600085815260200190815260200160002060000154036150ac576040517f08c379a00000000000000000000000000000000000000000000000000000000081526004016150a390618b0b565b60405180910390fd5b60005b60218054905081116151cd5783601d600086815260200190815260200160002060000154036151ba57602460016024805490506150ec91906184d2565b815481106150fd576150fc61783e565b5b90600052602060002090600302016024828154811061511f5761511e61783e565b5b9060005260206000209060030201600082015481600001556001820181600101908161514b919061851c565b50600282018160020190805461516292919061635f565b50905050602480548061517857615177618604565b5b60019003818190600052602060002090600302016000808201600090556001820160006151a59190616263565b6002820160006151b591906163ed565b505090555b80806151c590617e33565b9150506150af565b50601d60008481526020019081526020016000206000808201600090556001820160006151fa9190616263565b60028201600061520a91906163ed565b505082847f22a69f3183c2804ef4ff588b6321a6351c1863419286c584919ab8f923cbd5a460405160405180910390a3600191505092915050565b60135481565b60006152556154ee565b6015600083815260200190815260200160002060030160009054906101000a900460ff166152b8576040517f08c379a00000000000000000000000000000000000000000000000000000000081526004016152af90618b77565b60405180910390fd5b601f600083815260200190815260200160002060003373ffffffffffffffffffffffffffffffffffffffff1673ffffffffffffffffffffffffffffffffffffffff16815260200190815260200160002060009054906101000a900460ff1615615356576040517f08c379a000000000000000000000000000000000000000000000000000000000815260040161534d90618c09565b60405180910390fd5b6001601f600084815260200190815260200160002060003373ffffffffffffffffffffffffffffffffffffffff1673ffffffffffffffffffffffffffffffffffffffff16815260200190815260200160002060006101000a81548160ff0219169083151502179055506153d133671bc16d674ec800006158d2565b503373ffffffffffffffffffffffffffffffffffffffff16827f4bf249f6b0ca5630ea4816c04b928b864a2065cb51658fd6223d83b727fd326b60405160405180910390a36001905061542261555b565b919050565b60186020528160005260406000206020528060005260406000206000915091509054906101000a900460ff1681565b60007f01ffc9a7000000000000000000000000000000000000000000000000000000007bffffffffffffffffffffffffffffffffffffffffffffffffffffffff1916827bffffffffffffffffffffffffffffffffffffffffffffffffffffffff1916149050919050565b600033905090565b6154d58383836001615a54565b505050565b6154eb816154e66154c0565b615c2b565b50565b60026006540361552a576040517f3ee5aeb500000000000000000000000000000000000000000000000000000000815260040160405180910390fd5b6002600681905550565b61553e8282615c7c565b80600d600082825461555091906184d2565b925050819055505050565b6001600681905550565b6000615571848461475f565b90507fffffffffffffffffffffffffffffffffffffffffffffffffffffffffffffffff81146155f357818110156155e3578281836040517ffb8f41b20000000000000000000000000000000000000000000000000000000081526004016155da93929190618c29565b60405180910390fd5b6155f284848484036000615a54565b5b50505050565b600073ffffffffffffffffffffffffffffffffffffffff168373ffffffffffffffffffffffffffffffffffffffff160361566b5760006040517f96c6fd1e0000000000000000000000000000000000000000000000000000000081526004016156629190617b2e565b60405180910390fd5b600073ffffffffffffffffffffffffffffffffffffffff168273ffffffffffffffffffffffffffffffffffffffff16036156dd5760006040517fec442f050000000000000000000000000000000000000000000000000000000081526004016156d49190617b2e565b60405180910390fd5b6156e8838383615d23565b505050565b60006156f983836135cc565b6157d45760016005600085815260200190815260200160002060000160008473ffffffffffffffffffffffffffffffffffffffff1673ffffffffffffffffffffffffffffffffffffffff16815260200190815260200160002060006101000a81548160ff0219169083151502179055506157716154c0565b73ffffffffffffffffffffffffffffffffffffffff168273ffffffffffffffffffffffffffffffffffffffff16847f2f8788117e7eff1d82e926ec794901d17c78024a50270940304540a733656f0d60405160405180910390a4600190506157d9565b600090505b92915050565b60006157eb83836135cc565b156158c75760006005600085815260200190815260200160002060000160008473ffffffffffffffffffffffffffffffffffffffff1673ffffffffffffffffffffffffffffffffffffffff16815260200190815260200160002060006101000a81548160ff0219169083151502179055506158646154c0565b73ffffffffffffffffffffffffffffffffffffffff168273ffffffffffffffffffffffffffffffffffffffff16847ff6391f5c32d9c69d2a47ea670b442974b53935d1edc7fd64eb21e047a839171b60405160405180910390a4600190506158cc565b600090505b92915050565b60006064600f6b204fce5e3e250261100000006158ef919061798e565b6158f991906179ff565b615901614418565b8361590c9190618777565b111561594d576040517f08c379a000000000000000000000000000000000000000000000000000000000815260040161594490618cac565b60405180910390fd5b6159578383615f48565b5081600d600082825461596a9190618777565b92505081905550818373ffffffffffffffffffffffffffffffffffffffff167fad6ef58d5c294f81258965738e7ae511124139834a8d0b8f8f7327086c82052a60405160405180910390a36001905092915050565b60008160090154826008015483600701548460060154856005015486600401548760030154886002015489600101548a600001546159fd9190618777565b615a079190618777565b615a119190618777565b615a1b9190618777565b615a259190618777565b615a2f9190618777565b615a399190618777565b615a439190618777565b615a4d9190618777565b9050919050565b600073ffffffffffffffffffffffffffffffffffffffff168473ffffffffffffffffffffffffffffffffffffffff1603615ac65760006040517fe602df05000000000000000000000000000000000000000000000000000000008152600401615abd9190617b2e565b60405180910390fd5b600073ffffffffffffffffffffffffffffffffffffffff168373ffffffffffffffffffffffffffffffffffffffff1603615b385760006040517f94280d62000000000000000000000000000000000000000000000000000000008152600401615b2f9190617b2e565b60405180910390fd5b81600160008673ffffffffffffffffffffffffffffffffffffffff1673ffffffffffffffffffffffffffffffffffffffff16815260200190815260200160002060008573ffffffffffffffffffffffffffffffffffffffff1673ffffffffffffffffffffffffffffffffffffffff168152602001908152602001600020819055508015615c25578273ffffffffffffffffffffffffffffffffffffffff168473ffffffffffffffffffffffffffffffffffffffff167f8c5be1e5ebec7d5bd14f71427d1e84f3dd0314c0f7b2291e5b200ac8c7c3b92584604051615c1c919061685e565b60405180910390a35b50505050565b615c3582826135cc565b615c785780826040517fe2517d3f000000000000000000000000000000000000000000000000000000008152600401615c6f929190618ccc565b60405180910390fd5b5050565b80615c8683612ffb565b1015615cc7576040517f08c379a0000000000000000000000000000000000000000000000000000000008152600401615cbe90618d41565b60405180910390fd5b615cd18282616003565b8173ffffffffffffffffffffffffffffffffffffffff167f5b5d8478b570a79ab6b3bf13ff029fba19c02ab0d54d692d4ef0d9052d5cc85082604051615d17919061685e565b60405180910390a25050565b600073ffffffffffffffffffffffffffffffffffffffff168373ffffffffffffffffffffffffffffffffffffffff1603615d75578060026000828254615d699190618777565b92505081905550615e48565b60008060008573ffffffffffffffffffffffffffffffffffffffff1673ffffffffffffffffffffffffffffffffffffffff16815260200190815260200160002054905081811015615e01578381836040517fe450d38c000000000000000000000000000000000000000000000000000000008152600401615df893929190618c29565b60405180910390fd5b8181036000808673ffffffffffffffffffffffffffffffffffffffff1673ffffffffffffffffffffffffffffffffffffffff16815260200190815260200160002081905550505b600073ffffffffffffffffffffffffffffffffffffffff168273ffffffffffffffffffffffffffffffffffffffff1603615e915780600260008282540392505081905550615ede565b806000808473ffffffffffffffffffffffffffffffffffffffff1673ffffffffffffffffffffffffffffffffffffffff168152602001908152602001600020600082825401925050819055505b8173ffffffffffffffffffffffffffffffffffffffff168373ffffffffffffffffffffffffffffffffffffffff167fddf252ad1be2c89b69c2b068fc378daa952ba7f163c4a11628f55a4df523b3ef83604051615f3b919061685e565b60405180910390a3505050565b60006b204fce5e3e25026110000000615f5f611604565b83615f6a9190618777565b1115615fab576040517f08c379a0000000000000000000000000000000000000000000000000000000008152600401615fa290618cac565b60405180910390fd5b615fb58383616085565b818373ffffffffffffffffffffffffffffffffffffffff167fcda531bfd68624f13205c0a23cd4d5a7f09792cbb399603114f2b04aaa1bf5cf60405160405180910390a36001905092915050565b600073ffffffffffffffffffffffffffffffffffffffff168273ffffffffffffffffffffffffffffffffffffffff16036160755760006040517f96c6fd1e00000000000000000000000000000000000000000000000000000000815260040161606c9190617b2e565b60405180910390fd5b61608182600083615d23565b5050565b600073ffffffffffffffffffffffffffffffffffffffff168273ffffffffffffffffffffffffffffffffffffffff16036160f75760006040517fec442f050000000000000000000000000000000000000000000000000000000081526004016160ee9190617b2e565b60405180910390fd5b61610360008383615d23565b5050565b6040518060c0016040528060008152602001606081526020016060815260200160001515815260200160008152602001600073ffffffffffffffffffffffffffffffffffffffff1681525090565b50805460008255906000526020600020908101906161739190616411565b50565b6040518060e00160405280600081526020016000815260200160608152602001606081526020016000815260200160608152602001600073ffffffffffffffffffffffffffffffffffffffff1681525090565b8280548282559060005260206000209060020281019282156162525760005260206000209160020282015b8281111561625157828260008201816000019081616212919061851c565b506001820160009054906101000a900460ff168160010160006101000a81548160ff0219169083151502179055505050916002019190600201906161f4565b5b50905061625f9190616435565b5090565b50805461626f9061789c565b6000825580601f1061628157506162a0565b601f01602090049060005260206000209081019061629f9190616470565b5b50565b50805460008255600202906000526020600020908101906162c49190616435565b50565b82600a6003028101928215616338579160030282015b82811115616337578282600082018160000190816162fb919061851c565b5060018201816001019081616310919061851c565b5060028201816002019081616325919061851c565b505050916003019190600301906162dd565b5b509050616345919061648d565b5090565b5080600a600302019061635c919061648d565b50565b8280548282559060005260206000209060030281019282156163dc5760005260206000209160030282015b828111156163db57828260008201548160000155600182018160010190816163b2919061851c565b5060028201816002019080546163c99291906161c9565b5050509160030191906003019061638a565b5b5090506163e991906164d4565b5090565b508054600082556003029060005260206000209081019061640e91906164d4565b50565b5b8082111561643157600081816164289190616263565b50600101616412565b5090565b5b8082111561646c576000808201600061644f9190616263565b6001820160006101000a81549060ff021916905550600201616436565b5090565b5b80821115616489576000816000905550600101616471565b5090565b5b808211156164d057600080820160006164a79190616263565b6001820160006164b79190616263565b6002820160006164c79190616263565b5060030161648e565b5090565b5b8082111561650f576000808201600090556001820160006164f69190616263565b60028201600061650691906162a3565b506003016164d5565b5090565b6000604051905090565b600080fd5b600080fd5b60007fffffffff0000000000000000000000000000000000000000000000000000000082169050919050565b61655c81616527565b811461656757600080fd5b50565b60008135905061657981616553565b92915050565b6000602082840312156165955761659461651d565b5b60006165a38482850161656a565b91505092915050565b60008115159050919050565b6165c1816165ac565b82525050565b60006020820190506165dc60008301846165b8565b92915050565b600081519050919050565b600082825260208201905092915050565b6000819050602082019050919050565b6000819050919050565b6166218161660e565b82525050565b600081519050919050565b600082825260208201905092915050565b60005b83811015616661578082015181840152602081019050616646565b60008484015250505050565b6000601f19601f8301169050919050565b600061668982616627565b6166938185616632565b93506166a3818560208601616643565b6166ac8161666d565b840191505092915050565b6166c0816165ac565b82525050565b600073ffffffffffffffffffffffffffffffffffffffff82169050919050565b60006166f1826166c6565b9050919050565b616701816166e6565b82525050565b600060c08301600083015161671f6000860182616618565b5060208301518482036020860152616737828261667e565b91505060408301518482036040860152616751828261667e565b915050606083015161676660608601826166b7565b5060808301516167796080860182616618565b5060a083015161678c60a08601826166f8565b508091505092915050565b60006167a38383616707565b905092915050565b6000602082019050919050565b60006167c3826165e2565b6167cd81856165ed565b9350836020820285016167df856165fe565b8060005b8581101561681b57848403895281516167fc8582616797565b9450616807836167ab565b925060208a019950506001810190506167e3565b50829750879550505050505092915050565b6000602082019050818103600083015261684781846167b8565b905092915050565b6168588161660e565b82525050565b6000602082019050616873600083018461684f565b92915050565b600082825260208201905092915050565b600061689582616627565b61689f8185616879565b93506168af818560208601616643565b6168b88161666d565b840191505092915050565b600060208201905081810360008301526168dd818461688a565b905092915050565b6168ee816166e6565b81146168f957600080fd5b50565b60008135905061690b816168e5565b92915050565b61691a8161660e565b811461692557600080fd5b50565b60008135905061693781616911565b92915050565b600080604083850312156169545761695361651d565b5b6000616962858286016168fc565b925050602061697385828601616928565b9150509250929050565b600080604083850312156169945761699361651d565b5b60006169a285828601616928565b92505060206169b3858286016168fc565b9150509250929050565b6000602082840312156169d3576169d261651d565b5b60006169e1848285016168fc565b91505092915050565b600060208284031215616a00576169ff61651d565b5b6000616a0e84828501616928565b91505092915050565b600080600060608486031215616a3057616a2f61651d565b5b6000616a3e868287016168fc565b9350506020616a4f868287016168fc565b9250506040616a6086828701616928565b9150509250925092565b6000819050919050565b616a7d81616a6a565b8114616a8857600080fd5b50565b600081359050616a9a81616a74565b92915050565b600060208284031215616ab657616ab561651d565b5b6000616ac484828501616a8b565b91505092915050565b616ad681616a6a565b82525050565b6000602082019050616af16000830184616acd565b92915050565b6000604082019050616b0c600083018561684f565b8181036020830152616b1e818461688a565b90509392505050565b616b30816166e6565b82525050565b600060c082019050616b4b600083018961684f565b8181036020830152616b5d818861688a565b90508181036040830152616b71818761688a565b9050616b8060608301866165b8565b616b8d608083018561684f565b616b9a60a0830184616b27565b979650505050505050565b6000608082019050616bba600083018761684f565b8181036020830152616bcc818661688a565b90508181036040830152616be0818561688a565b9050616bef606083018461684f565b95945050505050565b60008060408385031215616c0f57616c0e61651d565b5b6000616c1d85828601616928565b9250506020616c2e85828601616928565b9150509250929050565b60008060408385031215616c4f57616c4e61651d565b5b6000616c5d85828601616a8b565b9250506020616c6e858286016168fc565b9150509250929050565b600080fd5b7f4e487b7100000000000000000000000000000000000000000000000000000000600052604160045260246000fd5b616cb58261666d565b810181811067ffffffffffffffff82111715616cd457616cd3616c7d565b5b80604052505050565b6000616ce7616513565b9050616cf38282616cac565b919050565b600067ffffffffffffffff821115616d1357616d12616c7d565b5b602082029050602081019050919050565b600080fd5b600080fd5b600067ffffffffffffffff821115616d4957616d48616c7d565b5b616d528261666d565b9050602081019050919050565b82818337600083830152505050565b6000616d81616d7c84616d2e565b616cdd565b905082815260208101848484011115616d9d57616d9c616d29565b5b616da8848285616d5f565b509392505050565b600082601f830112616dc557616dc4616c78565b5b8135616dd5848260208601616d6e565b91505092915050565b6000616df1616dec84616cf8565b616cdd565b90508083825260208201905060208402830185811115616e1457616e13616d24565b5b835b81811015616e5b57803567ffffffffffffffff811115616e3957616e38616c78565b5b808601616e468982616db0565b85526020850194505050602081019050616e16565b5050509392505050565b600082601f830112616e7a57616e79616c78565b5b8135616e8a848260208601616dde565b91505092915050565b60008060408385031215616eaa57616ea961651d565b5b6000616eb885828601616928565b925050602083013567ffffffffffffffff811115616ed957616ed8616522565b5b616ee585828601616e65565b9150509250929050565b600060ff82169050919050565b616f0581616eef565b82525050565b6000602082019050616f206000830184616efc565b92915050565b600080600060608486031215616f3f57616f3e61651d565b5b6000616f4d86828701616928565b9350506020616f5e86828701616928565b925050604084013567ffffffffffffffff811115616f7f57616f7e616522565b5b616f8b86828701616db0565b9150509250925092565b600080600080600060a08688031215616fb157616fb061651d565b5b6000616fbf88828901616928565b955050602086013567ffffffffffffffff811115616fe057616fdf616522565b5b616fec88828901616db0565b945050604086013567ffffffffffffffff81111561700d5761700c616522565b5b61701988828901616db0565b935050606086013567ffffffffffffffff81111561703a57617039616522565b5b61704688828901616db0565b925050608061705788828901616928565b9150509295509295909350565b600060e08301600083015161707c6000860182616618565b50602083015161708f6020860182616618565b50604083015184820360408601526170a7828261667e565b915050606083015184820360608601526170c1828261667e565b91505060808301516170d66080860182616618565b5060a083015184820360a08601526170ee828261667e565b91505060c083015161710360c08601826166f8565b508091505092915050565b6000604082019050617123600083018561684f565b81810360208301526171358184617064565b90509392505050565b60008060008060008060008060008060006101608c8e0312156171645761716361651d565b5b60006171728e828f01616928565b9b505060206171838e828f01616928565b9a505060406171948e828f01616928565b99505060606171a58e828f01616928565b98505060806171b68e828f01616928565b97505060a06171c78e828f01616928565b96505060c06171d88e828f01616928565b95505060e06171e98e828f01616928565b9450506101006171fb8e828f01616928565b93505061012061720d8e828f01616928565b92505061014061721f8e828f01616928565b9150509295989b509295989b9093969950565b600080604083850312156172495761724861651d565b5b600061725785828601616928565b925050602083013567ffffffffffffffff81111561727857617277616522565b5b61728485828601616db0565b9150509250929050565b600060e0820190506172a3600083018a61684f565b6172b0602083018961684f565b81810360408301526172c2818861688a565b905081810360608301526172d6818761688a565b90506172e5608083018661684f565b81810360a08301526172f7818561688a565b905061730660c0830184616b27565b98975050505050505050565b600080604083850312156173295761732861651d565b5b600083013567ffffffffffffffff81111561734757617346616522565b5b61735385828601616db0565b925050602083013567ffffffffffffffff81111561737457617373616522565b5b61738085828601616db0565b9150509250929050565b6000610160820190506173a0600083018e61684f565b6173ad602083018d61684f565b6173ba604083018c61684f565b6173c7606083018b61684f565b6173d4608083018a61684f565b6173e160a083018961684f565b6173ee60c083018861684f565b6173fb60e083018761684f565b61740961010083018661684f565b61741761012083018561684f565b6174256101408301846165b8565b9c9b505050505050505050505050565b600067ffffffffffffffff8211156174505761744f616c7d565b5b602082029050602081019050919050565b600080fd5b600080fd5b60006060828403121561748157617480617461565b5b61748b6060616cdd565b9050600082013567ffffffffffffffff8111156174ab576174aa617466565b5b6174b784828501616db0565b600083015250602082013567ffffffffffffffff8111156174db576174da617466565b5b6174e784828501616db0565b602083015250604082013567ffffffffffffffff81111561750b5761750a617466565b5b61751784828501616db0565b60408301525092915050565b600061753661753184617435565b616cdd565b9050808382526020820190506020840283018581111561755957617558616d24565b5b835b818110156175a057803567ffffffffffffffff81111561757e5761757d616c78565b5b80860161758b898261746b565b8552602085019450505060208101905061755b565b5050509392505050565b600082601f8301126175bf576175be616c78565b5b81356175cf848260208601617523565b91505092915050565b600080600080608085870312156175f2576175f161651d565b5b600061760087828801616928565b945050602085013567ffffffffffffffff81111561762157617620616522565b5b61762d87828801616db0565b935050604085013567ffffffffffffffff81111561764e5761764d616522565b5b61765a87828801616db0565b925050606085013567ffffffffffffffff81111561767b5761767a616522565b5b617687878288016175aa565b91505092959194509250565b600080604083850312156176aa576176a961651d565b5b60006176b8858286016168fc565b92505060206176c9858286016168fc565b9150509250929050565b600060608201905081810360008301526176ed818661688a565b90508181036020830152617701818561688a565b90508181036040830152617715818461688a565b9050949350505050565b600067ffffffffffffffff82111561773a57617739616c7d565b5b602082029050602081019050919050565b600061775e6177598461771f565b616cdd565b9050808382526020820190506020840283018581111561778157617780616d24565b5b835b818110156177aa57806177968882616928565b845260208401935050602081019050617783565b5050509392505050565b600082601f8301126177c9576177c8616c78565b5b81356177d984826020860161774b565b91505092915050565b600080604083850312156177f9576177f861651d565b5b600061780785828601616928565b925050602083013567ffffffffffffffff81111561782857617827616522565b5b617834858286016177b4565b9150509250929050565b7f4e487b7100000000000000000000000000000000000000000000000000000000600052603260045260246000fd5b7f4e487b7100000000000000000000000000000000000000000000000000000000600052602260045260246000fd5b600060028204905060018216806178b457607f821691505b6020821081036178c7576178c661786d565b5b50919050565b7f596f7520617265206e6f7420656e726f6c6c656420696e207468697320636f7560008201527f7273652100000000000000000000000000000000000000000000000000000000602082015250565b6000617929602483616879565b9150617934826178cd565b604082019050919050565b600060208201905081810360008301526179588161791c565b9050919050565b7f4e487b7100000000000000000000000000000000000000000000000000000000600052601160045260246000fd5b60006179998261660e565b91506179a48361660e565b92508282026179b28161660e565b915082820484148315176179c9576179c861795f565b5b5092915050565b7f4e487b7100000000000000000000000000000000000000000000000000000000600052601260045260246000fd5b6000617a0a8261660e565b9150617a158361660e565b925082617a2557617a246179d0565b5b828204905092915050565b7f596f75206861766520616c7265616479206d61726b65642074686973206c657360008201527f736f6e2061732072656164000000000000000000000000000000000000000000602082015250565b6000617a8c602b83616879565b9150617a9782617a30565b604082019050919050565b60006020820190508181036000830152617abb81617a7f565b9050919050565b7f4c6573736f6e20646f65736e2774206578697374000000000000000000000000600082015250565b6000617af8601483616879565b9150617b0382617ac2565b602082019050919050565b60006020820190508181036000830152617b2781617aeb565b9050919050565b6000602082019050617b436000830184616b27565b92915050565b7f436f7572736520646f6573206e6f742065786973742100000000000000000000600082015250565b6000617b7f601683616879565b9150617b8a82617b49565b602082019050919050565b60006020820190508181036000830152617bae81617b72565b9050919050565b60008190508160005260206000209050919050565b60006020601f8301049050919050565b600082821b905092915050565b600060088302617c177fffffffffffffffffffffffffffffffffffffffffffffffffffffffffffffffff82617bda565b617c218683617bda565b95508019841693508086168417925050509392505050565b6000819050919050565b6000617c5e617c59617c548461660e565b617c39565b61660e565b9050919050565b6000819050919050565b617c7883617c43565b617c8c617c8482617c65565b848454617be7565b825550505050565b600090565b617ca1617c94565b617cac818484617c6f565b505050565b5b81811015617cd057617cc5600082617c99565b600181019050617cb2565b5050565b601f821115617d1557617ce681617bb5565b617cef84617bca565b81016020851015617cfe578190505b617d12617d0a85617bca565b830182617cb1565b50505b505050565b600082821c905092915050565b6000617d3860001984600802617d1a565b1980831691505092915050565b6000617d518383617d27565b9150826002028217905092915050565b617d6a82616627565b67ffffffffffffffff811115617d8357617d82616c7d565b5b617d8d825461789c565b617d98828285617cd4565b600060209050601f831160018114617dcb5760008415617db9578287015190505b617dc38582617d45565b865550617e2b565b601f198416617dd986617bb5565b60005b82811015617e0157848901518255600182019150602085019450602081019050617ddc565b86831015617e1e5784890151617e1a601f891682617d27565b8355505b6001600288020188555050505b505050505050565b6000617e3e8261660e565b91507fffffffffffffffffffffffffffffffffffffffffffffffffffffffffffffffff8203617e7057617e6f61795f565b5b600182019050919050565b7f5155697a20646f6573206e6f7420657869737400000000000000000000000000600082015250565b6000617eb1601383616879565b9150617ebc82617e7b565b602082019050919050565b60006020820190508181036000830152617ee081617ea4565b9050919050565b7f4e6f74206578616374207175697a000000000000000000000000000000000000600082015250565b6000617f1d600e83616879565b9150617f2882617ee7565b602082019050919050565b60006020820190508181036000830152617f4c81617f10565b9050919050565b7f596f75206d75737420626520656e726f6c6c656420696e2074686520636f757260008201527f736520746f20636f6d706c657465206974000000000000000000000000000000602082015250565b6000617faf603183616879565b9150617fba82617f53565b604082019050919050565b60006020820190508181036000830152617fde81617fa2565b9050919050565b7f596f75206861766520616c726561647920636f6d706c6574656420746869732060008201527f636f757273650000000000000000000000000000000000000000000000000000602082015250565b6000618041602683616879565b915061804c82617fe5565b604082019050919050565b6000602082019050818103600083015261807081618034565b9050919050565b6000819050919050565b61809261808d8261660e565b618077565b82525050565b600081905092915050565b60006180ae82616627565b6180b88185618098565b93506180c8818560208601616643565b80840191505092915050565b60006180e08289618081565b6020820191506180f082886180a3565b91506180fc82876180a3565b915061810882866180a3565b91506181148285618081565b6020820191506181248284618081565b602082019150819050979650505050505050565b600060808201905061814d600083018761684f565b818103602083015261815f818661688a565b90508181036040830152618173818561688a565b90508181036060830152618187818461688a565b905095945050505050565b7f52657669657720616c7265616479207375626d6974746564206279207468697360008201527f2072657669657765722e00000000000000000000000000000000000000000000602082015250565b60006181ee602a83616879565b91506181f982618192565b604082019050919050565b6000602082019050818103600083015261821d816181e1565b9050919050565b7f53636f726573206d757374206265206265747765656e203120616e642031302e600082015250565b600061825a602083616879565b915061826582618224565b602082019050919050565b600060208201905081810360008301526182898161824d565b9050919050565b7f436f7572736520646f6573206e6f742065786973740000000000000000000000600082015250565b60006182c6601583616879565b91506182d182618290565b602082019050919050565b600060208201905081810360008301526182f5816182b9565b9050919050565b7f436f7572736520616c726561647920617070726f766564000000000000000000600082015250565b6000618332601783616879565b915061833d826182fc565b602082019050919050565b6000602082019050818103600083015261836181618325565b9050919050565b7f596f75206861766520616c726561647920617070726f7665642074686973206360008201527f6f75727365000000000000000000000000000000000000000000000000000000602082015250565b60006183c4602583616879565b91506183cf82618368565b604082019050919050565b600060208201905081810360008301526183f3816183b7565b9050919050565b7f5175697a20646f6573206e6f7420657869737400000000000000000000000000600082015250565b6000618430601383616879565b915061843b826183fa565b602082019050919050565b6000602082019050818103600083015261845f81618423565b9050919050565b7f5175657374696f6e206e6f7420666f756e6420696e2074686973207175697a00600082015250565b600061849c601f83616879565b91506184a782618466565b602082019050919050565b600060208201905081810360008301526184cb8161848f565b9050919050565b60006184dd8261660e565b91506184e88361660e565b9250828203905081811115618500576184ff61795f565b5b92915050565b6000815490506185158161789c565b9050919050565b81810361852a575050618602565b61853382618506565b67ffffffffffffffff81111561854c5761854b616c7d565b5b618556825461789c565b618561828285617cd4565b6000601f831160018114618590576000841561857e578287015490505b6185888582617d45565b8655506185fb565b601f19841661859e87617bb5565b96506185a986617bb5565b60005b828110156185d1578489015482556001820191506001850194506020810190506185ac565b868310156185ee57848901546185ea601f891682617d27565b8355505b6001600288020188555050505b5050505050505b565b7f4e487b7100000000000000000000000000000000000000000000000000000000600052603160045260246000fd5b7f436f7572736520646f65736e2774206578697374210000000000000000000000600082015250565b6000618669601583616879565b915061867482618633565b602082019050919050565b600060208201905081810360008301526186988161865c565b9050919050565b7f4368617074657220646f65736e27742065786973740000000000000000000000600082015250565b60006186d5601583616879565b91506186e08261869f565b602082019050919050565b60006020820190508181036000830152618704816186c8565b9050919050565b7f436f7572736520494420616c7265616479206578697374730000000000000000600082015250565b6000618741601883616879565b915061874c8261870b565b602082019050919050565b6000602082019050818103600083015261877081618734565b9050919050565b60006187828261660e565b915061878d8361660e565b92508282019050808211156187a5576187a461795f565b5b92915050565b60006187b782846180a3565b915081905092915050565b7f4c6573736f6e20646f6573206e6f742065786973740000000000000000000000600082015250565b60006187f8601583616879565b9150618803826187c2565b602082019050919050565b60006020820190508181036000830152618827816187eb565b9050919050565b7f5265736f7572636520636f756e742065786365656473206d6178696d756d206160008201527f6c6c6f7765640000000000000000000000000000000000000000000000000000602082015250565b600061888a602683616879565b91506188958261882e565b604082019050919050565b600060208201905081810360008301526188b98161887d565b9050919050565b7f4e756d626572206f6620616e7377657273206d757374206d617463682074686560008201527f206e756d626572206f66207175657374696f6e73000000000000000000000000602082015250565b600061891c603483616879565b9150618927826188c0565b604082019050919050565b6000602082019050818103600083015261894b8161890f565b9050919050565b7f496e76616c69642063686f6963652073656c6563746564000000000000000000600082015250565b6000618988601783616879565b915061899382618952565b602082019050919050565b600060208201905081810360008301526189b78161897b565b9050919050565b60006040820190506189d3600083018561684f565b6189e0602083018461684f565b9392505050565b7f436f7572736520646f65736e2774206578697374000000000000000000000000600082015250565b6000618a1d601483616879565b9150618a28826189e7565b602082019050919050565b60006020820190508181036000830152618a4c81618a10565b9050919050565b7f4368617074657220646f65736e2774206e6f7420657869737400000000000000600082015250565b6000618a89601983616879565b9150618a9482618a53565b602082019050919050565b60006020820190508181036000830152618ab881618a7c565b9050919050565b7f5175697a20646f65736e27742065786973740000000000000000000000000000600082015250565b6000618af5601283616879565b9150618b0082618abf565b602082019050919050565b60006020820190508181036000830152618b2481618ae8565b9050919050565b7f436f75727365206e6f742079657420617070726f766564210000000000000000600082015250565b6000618b61601883616879565b9150618b6c82618b2b565b602082019050919050565b60006020820190508181036000830152618b9081618b54565b9050919050565b7f596f752061726520616c726561647920656e726f6c6c656420696e746f20746860008201527f697320636f757273650000000000000000000000000000000000000000000000602082015250565b6000618bf3602983616879565b9150618bfe82618b97565b604082019050919050565b60006020820190508181036000830152618c2281618be6565b9050919050565b6000606082019050618c3e6000830186616b27565b618c4b602083018561684f565b618c58604083018461684f565b949350505050565b7f4c696d6974204578636565646564210000000000000000000000000000000000600082015250565b6000618c96600f83616879565b9150618ca182618c60565b602082019050919050565b60006020820190508181036000830152618cc581618c89565b9050919050565b6000604082019050618ce16000830185616b27565b618cee6020830184616acd565b9392505050565b7f496e73756666696369656e742062616c616e6365000000000000000000000000600082015250565b6000618d2b601483616879565b9150618d3682618cf5565b602082019050919050565b60006020820190508181036000830152618d5a81618d1e565b905091905056fea2646970667358221220cefdee48d710db74feb0acabccbb80554f5d1022e8b0f0d6b019d169b514a5b364736f6c634300081b0033",
  "linkReferences": {},
  "deployedLinkReferences": {}
}