{
  "_format": "hh-sol-artifact-1",
  "contractName": "Ecosystem",
  "sourceName": "contracts/Ecosystem.sol",
  "abi": [
    {
      "inputs": [
        {
          "internalType": "address[]",
          "name": "_admins",
          "type": "address[]"
        }
      ],
      "stateMutability": "nonpayable",
      "type": "constructor"
    },
    {
      "inputs": [
        {
          "internalType": "address",
          "name": "spender",
          "type": "address"
        },
        {
          "internalType": "uint256",
          "name": "allowance",
          "type": "uint256"
        },
        {
          "internalType": "uint256",
          "name": "needed",
          "type": "uint256"
        }
      ],
      "name": "ERC20InsufficientAllowance",
      "type": "error"
    },
    {
      "inputs": [
        {
          "internalType": "address",
          "name": "sender",
          "type": "address"
        },
        {
          "internalType": "uint256",
          "name": "balance",
          "type": "uint256"
        },
        {
          "internalType": "uint256",
          "name": "needed",
          "type": "uint256"
        }
      ],
      "name": "ERC20InsufficientBalance",
      "type": "error"
    },
    {
      "inputs": [
        {
          "internalType": "address",
          "name": "approver",
          "type": "address"
        }
      ],
      "name": "ERC20InvalidApprover",
      "type": "error"
    },
    {
      "inputs": [
        {
          "internalType": "address",
          "name": "receiver",
          "type": "address"
        }
      ],
      "name": "ERC20InvalidReceiver",
      "type": "error"
    },
    {
      "inputs": [
        {
          "internalType": "address",
          "name": "sender",
          "type": "address"
        }
      ],
      "name": "ERC20InvalidSender",
      "type": "error"
    },
    {
      "inputs": [
        {
          "internalType": "address",
          "name": "spender",
          "type": "address"
        }
      ],
      "name": "ERC20InvalidSpender",
      "type": "error"
    },
    {
      "inputs": [
        {
          "internalType": "address",
          "name": "owner",
          "type": "address"
        }
      ],
      "name": "OwnableInvalidOwner",
      "type": "error"
    },
    {
      "inputs": [
        {
          "internalType": "address",
          "name": "account",
          "type": "address"
        }
      ],
      "name": "OwnableUnauthorizedAccount",
      "type": "error"
    },
    {
      "anonymous": false,
      "inputs": [
        {
          "indexed": true,
          "internalType": "address",
          "name": "owner",
          "type": "address"
        },
        {
          "indexed": true,
          "internalType": "address",
          "name": "spender",
          "type": "address"
        },
        {
          "indexed": false,
          "internalType": "uint256",
          "name": "value",
          "type": "uint256"
        }
      ],
      "name": "Approval",
      "type": "event"
    },
    {
      "anonymous": false,
      "inputs": [
        {
          "indexed": true,
          "internalType": "address",
          "name": "_account",
          "type": "address"
        },
        {
          "indexed": false,
          "internalType": "uint256",
          "name": "_amount",
          "type": "uint256"
        }
      ],
      "name": "BurnSuccess",
      "type": "event"
    },
    {
      "anonymous": false,
      "inputs": [
        {
          "indexed": true,
          "internalType": "uint256",
          "name": "_courseID",
          "type": "uint256"
        },
        {
          "indexed": true,
          "internalType": "string",
          "name": "_courseName",
          "type": "string"
        },
        {
          "indexed": false,
          "internalType": "bool",
          "name": "_approved",
          "type": "bool"
        }
      ],
      "name": "CourseCreationSuccess",
      "type": "event"
    },
    {
      "anonymous": false,
      "inputs": [
        {
          "indexed": true,
          "internalType": "address",
          "name": "_to",
          "type": "address"
        },
        {
          "indexed": true,
          "internalType": "uint256",
          "name": "_amount",
          "type": "uint256"
        }
      ],
      "name": "EcosystemPoolUpdate",
      "type": "event"
    },
    {
      "anonymous": false,
      "inputs": [
        {
          "indexed": true,
          "internalType": "uint256",
          "name": "_courseId",
          "type": "uint256"
        },
        {
          "indexed": true,
          "internalType": "address",
          "name": "_by",
          "type": "address"
        }
      ],
      "name": "EnrollmentSuccess",
      "type": "event"
    },
    {
      "anonymous": false,
      "inputs": [
        {
          "indexed": true,
          "internalType": "address",
          "name": "_to",
          "type": "address"
        },
        {
          "indexed": true,
          "internalType": "uint256",
          "name": "_amount",
          "type": "uint256"
        }
      ],
      "name": "MintSuccess",
      "type": "event"
    },
    {
      "anonymous": false,
      "inputs": [
        {
          "indexed": true,
          "internalType": "address",
          "name": "previousOwner",
          "type": "address"
        },
        {
          "indexed": true,
          "internalType": "address",
          "name": "newOwner",
          "type": "address"
        }
      ],
      "name": "OwnershipTransferred",
      "type": "event"
    },
    {
      "anonymous": false,
      "inputs": [
        {
          "indexed": true,
          "internalType": "address",
          "name": "from",
          "type": "address"
        },
        {
          "indexed": true,
          "internalType": "address",
          "name": "to",
          "type": "address"
        },
        {
          "indexed": false,
          "internalType": "uint256",
          "name": "value",
          "type": "uint256"
        }
      ],
      "name": "Transfer",
      "type": "event"
    },
    {
      "anonymous": false,
      "inputs": [
        {
          "indexed": true,
          "internalType": "uint256",
          "name": "_courseId",
          "type": "uint256"
        },
        {
          "indexed": true,
          "internalType": "address",
          "name": "_by",
          "type": "address"
        }
      ],
      "name": "unEnrollmentSuccess",
      "type": "event"
    },
    {
      "inputs": [],
      "name": "CREATE_COURSE_REWARD",
      "outputs": [
        {
          "internalType": "uint256",
          "name": "",
          "type": "uint256"
        }
      ],
      "stateMutability": "view",
      "type": "function"
    },
    {
      "inputs": [],
      "name": "ECOSYSTEM_POOL",
      "outputs": [
        {
          "internalType": "uint256",
          "name": "",
          "type": "uint256"
        }
      ],
      "stateMutability": "view",
      "type": "function"
    },
    {
      "inputs": [],
      "name": "ENROLLMENT_REWARD",
      "outputs": [
        {
          "internalType": "uint256",
          "name": "",
          "type": "uint256"
        }
      ],
      "stateMutability": "view",
      "type": "function"
    },
    {
      "inputs": [],
      "name": "MAX_SCORE",
      "outputs": [
        {
          "internalType": "uint256",
          "name": "",
          "type": "uint256"
        }
      ],
      "stateMutability": "view",
      "type": "function"
    },
    {
      "inputs": [],
      "name": "MAX_SUPPLY",
      "outputs": [
        {
          "internalType": "uint256",
          "name": "",
          "type": "uint256"
        }
      ],
      "stateMutability": "view",
      "type": "function"
    },
    {
      "inputs": [],
      "name": "MIN_APPROVAL_SCORE",
      "outputs": [
        {
          "internalType": "uint256",
          "name": "",
          "type": "uint256"
        }
      ],
      "stateMutability": "view",
      "type": "function"
    },
    {
      "inputs": [],
      "name": "REQUIRED_APPROVALS",
      "outputs": [
        {
          "internalType": "uint256",
          "name": "",
          "type": "uint256"
        }
      ],
      "stateMutability": "view",
      "type": "function"
    },
    {
      "inputs": [
        {
          "internalType": "address",
          "name": "",
          "type": "address"
        }
      ],
      "name": "accountCourses",
      "outputs": [
        {
          "internalType": "uint256",
          "name": "courseCount",
          "type": "uint256"
        }
      ],
      "stateMutability": "view",
      "type": "function"
    },
    {
      "inputs": [
        {
          "internalType": "address",
          "name": "newAdmin",
          "type": "address"
        }
      ],
      "name": "addAdmin",
      "outputs": [],
      "stateMutability": "nonpayable",
      "type": "function"
    },
    {
      "inputs": [
        {
          "internalType": "uint256",
          "name": "",
          "type": "uint256"
        }
      ],
      "name": "admins",
      "outputs": [
        {
          "internalType": "address",
          "name": "",
          "type": "address"
        }
      ],
      "stateMutability": "view",
      "type": "function"
    },
    {
      "inputs": [
        {
          "internalType": "address",
          "name": "owner",
          "type": "address"
        },
        {
          "internalType": "address",
          "name": "spender",
          "type": "address"
        }
      ],
      "name": "allowance",
      "outputs": [
        {
          "internalType": "uint256",
          "name": "",
          "type": "uint256"
        }
      ],
      "stateMutability": "view",
      "type": "function"
    },
    {
      "inputs": [
        {
          "internalType": "address",
          "name": "",
          "type": "address"
        },
        {
          "internalType": "uint256",
          "name": "",
          "type": "uint256"
        }
      ],
      "name": "approvals",
      "outputs": [
        {
          "internalType": "bool",
          "name": "",
          "type": "bool"
        }
      ],
      "stateMutability": "view",
      "type": "function"
    },
    {
      "inputs": [
        {
          "internalType": "address",
          "name": "spender",
          "type": "address"
        },
        {
          "internalType": "uint256",
          "name": "value",
          "type": "uint256"
        }
      ],
      "name": "approve",
      "outputs": [
        {
          "internalType": "bool",
          "name": "",
          "type": "bool"
        }
      ],
      "stateMutability": "nonpayable",
      "type": "function"
    },
    {
      "inputs": [
        {
          "internalType": "address",
          "name": "account",
          "type": "address"
        }
      ],
      "name": "balanceOf",
      "outputs": [
        {
          "internalType": "uint256",
          "name": "",
          "type": "uint256"
        }
      ],
      "stateMutability": "view",
      "type": "function"
    },
    {
      "inputs": [
        {
          "internalType": "address",
          "name": "account",
          "type": "address"
        },
        {
          "internalType": "uint256",
          "name": "amount",
          "type": "uint256"
        }
      ],
      "name": "burn",
      "outputs": [],
      "stateMutability": "nonpayable",
      "type": "function"
    },
    {
      "inputs": [],
      "name": "courseCount",
      "outputs": [
        {
          "internalType": "uint256",
          "name": "",
          "type": "uint256"
        }
      ],
      "stateMutability": "view",
      "type": "function"
    },
    {
      "inputs": [
        {
          "internalType": "uint256",
          "name": "",
          "type": "uint256"
        }
      ],
      "name": "courseObject",
      "outputs": [
        {
          "internalType": "uint256",
          "name": "courseId",
          "type": "uint256"
        },
        {
          "internalType": "string",
          "name": "courseName",
          "type": "string"
        },
        {
          "internalType": "string",
          "name": "description",
          "type": "string"
        },
        {
          "internalType": "bool",
          "name": "approved",
          "type": "bool"
        },
        {
          "internalType": "uint256",
          "name": "approvalCount",
          "type": "uint256"
        },
        {
          "internalType": "address",
          "name": "creator",
          "type": "address"
        }
      ],
      "stateMutability": "view",
      "type": "function"
    },
    {
      "inputs": [
        {
          "internalType": "string",
          "name": "_courseName",
          "type": "string"
        },
        {
          "internalType": "string",
          "name": "_description",
          "type": "string"
        }
      ],
      "name": "createCourse",
      "outputs": [
        {
          "internalType": "bool",
          "name": "",
          "type": "bool"
        }
      ],
      "stateMutability": "nonpayable",
      "type": "function"
    },
    {
      "inputs": [],
      "name": "decimals",
      "outputs": [
        {
          "internalType": "uint8",
          "name": "",
          "type": "uint8"
        }
      ],
      "stateMutability": "view",
      "type": "function"
    },
    {
      "inputs": [],
      "name": "ecosystemPoolSupply",
      "outputs": [
        {
          "internalType": "uint256",
          "name": "",
          "type": "uint256"
        }
      ],
      "stateMutability": "view",
      "type": "function"
    },
    {
      "inputs": [
        {
          "internalType": "uint256",
          "name": "_courseId",
          "type": "uint256"
        }
      ],
      "name": "enroll",
      "outputs": [
        {
          "internalType": "bool",
          "name": "",
          "type": "bool"
        }
      ],
      "stateMutability": "nonpayable",
      "type": "function"
    },
    {
      "inputs": [],
      "name": "getCurrentEcosystemPoolSupply",
      "outputs": [
        {
          "internalType": "uint256",
          "name": "",
          "type": "uint256"
        }
      ],
      "stateMutability": "view",
      "type": "function"
    },
    {
      "inputs": [
        {
          "internalType": "address",
          "name": "",
          "type": "address"
        }
      ],
      "name": "isAdminMap",
      "outputs": [
        {
          "internalType": "bool",
          "name": "",
          "type": "bool"
        }
      ],
      "stateMutability": "view",
      "type": "function"
    },
    {
      "inputs": [
        {
          "internalType": "uint256",
          "name": "",
          "type": "uint256"
        }
      ],
      "name": "listOfCourses",
      "outputs": [
        {
          "internalType": "uint256",
          "name": "courseId",
          "type": "uint256"
        },
        {
          "internalType": "string",
          "name": "courseName",
          "type": "string"
        },
        {
          "internalType": "string",
          "name": "description",
          "type": "string"
        },
        {
          "internalType": "bool",
          "name": "approved",
          "type": "bool"
        },
        {
          "internalType": "uint256",
          "name": "approvalCount",
          "type": "uint256"
        },
        {
          "internalType": "address",
          "name": "creator",
          "type": "address"
        }
      ],
      "stateMutability": "view",
      "type": "function"
    },
    {
      "inputs": [
        {
          "internalType": "address",
          "name": "to",
          "type": "address"
        },
        {
          "internalType": "uint256",
          "name": "amount",
          "type": "uint256"
        }
      ],
      "name": "mintToken",
      "outputs": [
        {
          "internalType": "bool",
          "name": "",
          "type": "bool"
        }
      ],
      "stateMutability": "nonpayable",
      "type": "function"
    },
    {
      "inputs": [],
      "name": "name",
      "outputs": [
        {
          "internalType": "string",
          "name": "",
          "type": "string"
        }
      ],
      "stateMutability": "view",
      "type": "function"
    },
    {
      "inputs": [],
      "name": "nextCourseId",
      "outputs": [
        {
          "internalType": "uint256",
          "name": "",
          "type": "uint256"
        }
      ],
      "stateMutability": "view",
      "type": "function"
    },
    {
      "inputs": [],
      "name": "numberofEnrolledCourses",
      "outputs": [
        {
          "internalType": "uint256",
          "name": "",
          "type": "uint256"
        }
      ],
      "stateMutability": "view",
      "type": "function"
    },
    {
      "inputs": [],
      "name": "owner",
      "outputs": [
        {
          "internalType": "address",
          "name": "",
          "type": "address"
        }
      ],
      "stateMutability": "view",
      "type": "function"
    },
    {
      "inputs": [
        {
          "internalType": "address",
          "name": "admin",
          "type": "address"
        }
      ],
      "name": "removeAdmin",
      "outputs": [],
      "stateMutability": "nonpayable",
      "type": "function"
    },
    {
      "inputs": [],
      "name": "renounceOwnership",
      "outputs": [],
      "stateMutability": "nonpayable",
      "type": "function"
    },
    {
      "inputs": [
        {
          "internalType": "uint256",
          "name": "",
          "type": "uint256"
        },
        {
          "internalType": "address",
          "name": "",
          "type": "address"
        }
      ],
      "name": "reviews",
      "outputs": [
        {
          "internalType": "uint256",
          "name": "learnerAgency",
          "type": "uint256"
        },
        {
          "internalType": "uint256",
          "name": "criticalThinking",
          "type": "uint256"
        },
        {
          "internalType": "uint256",
          "name": "collaborativeLearning",
          "type": "uint256"
        },
        {
          "internalType": "uint256",
          "name": "reflectivePractice",
          "type": "uint256"
        },
        {
          "internalType": "uint256",
          "name": "adaptiveLearning",
          "type": "uint256"
        },
        {
          "internalType": "uint256",
          "name": "authenticLearning",
          "type": "uint256"
        },
        {
          "internalType": "uint256",
          "name": "technologyIntegration",
          "type": "uint256"
        },
        {
          "internalType": "uint256",
          "name": "learnerSupport",
          "type": "uint256"
        },
        {
          "internalType": "uint256",
          "name": "assessmentForLearning",
          "type": "uint256"
        },
        {
          "internalType": "uint256",
          "name": "engagementAndMotivation",
          "type": "uint256"
        },
        {
          "internalType": "bool",
          "name": "isSubmitted",
          "type": "bool"
        }
      ],
      "stateMutability": "view",
      "type": "function"
    },
    {
      "inputs": [
        {
          "internalType": "uint256",
          "name": "courseId",
          "type": "uint256"
        },
        {
          "internalType": "uint256",
          "name": "learnerAgency",
          "type": "uint256"
        },
        {
          "internalType": "uint256",
          "name": "criticalThinking",
          "type": "uint256"
        },
        {
          "internalType": "uint256",
          "name": "collaborativeLearning",
          "type": "uint256"
        },
        {
          "internalType": "uint256",
          "name": "reflectivePractice",
          "type": "uint256"
        },
        {
          "internalType": "uint256",
          "name": "adaptiveLearning",
          "type": "uint256"
        },
        {
          "internalType": "uint256",
          "name": "authenticLearning",
          "type": "uint256"
        },
        {
          "internalType": "uint256",
          "name": "technologyIntegration",
          "type": "uint256"
        },
        {
          "internalType": "uint256",
          "name": "learnerSupport",
          "type": "uint256"
        },
        {
          "internalType": "uint256",
          "name": "assessmentForLearning",
          "type": "uint256"
        },
        {
          "internalType": "uint256",
          "name": "engagementAndMotivation",
          "type": "uint256"
        }
      ],
      "name": "submitReview",
      "outputs": [],
      "stateMutability": "nonpayable",
      "type": "function"
    },
    {
      "inputs": [],
      "name": "symbol",
      "outputs": [
        {
          "internalType": "string",
          "name": "",
          "type": "string"
        }
      ],
      "stateMutability": "view",
      "type": "function"
    },
    {
      "inputs": [],
      "name": "totalSupply",
      "outputs": [
        {
          "internalType": "uint256",
          "name": "",
          "type": "uint256"
        }
      ],
      "stateMutability": "view",
      "type": "function"
    },
    {
      "inputs": [
        {
          "internalType": "address",
          "name": "to",
          "type": "address"
        },
        {
          "internalType": "uint256",
          "name": "value",
          "type": "uint256"
        }
      ],
      "name": "transfer",
      "outputs": [
        {
          "internalType": "bool",
          "name": "",
          "type": "bool"
        }
      ],
      "stateMutability": "nonpayable",
      "type": "function"
    },
    {
      "inputs": [
        {
          "internalType": "address",
          "name": "from",
          "type": "address"
        },
        {
          "internalType": "address",
          "name": "to",
          "type": "address"
        },
        {
          "internalType": "uint256",
          "name": "value",
          "type": "uint256"
        }
      ],
      "name": "transferFrom",
      "outputs": [
        {
          "internalType": "bool",
          "name": "",
          "type": "bool"
        }
      ],
      "stateMutability": "nonpayable",
      "type": "function"
    },
    {
      "inputs": [
        {
          "internalType": "address",
          "name": "newOwner",
          "type": "address"
        }
      ],
      "name": "transferOwnership",
      "outputs": [],
      "stateMutability": "nonpayable",
      "type": "function"
    },
    {
      "inputs": [
        {
          "internalType": "uint256",
          "name": "_courseId",
          "type": "uint256"
        }
      ],
      "name": "unEnroll",
      "outputs": [
        {
          "internalType": "bool",
          "name": "",
          "type": "bool"
        }
      ],
      "stateMutability": "nonpayable",
      "type": "function"
    }
  ],
  "bytecode": "0x608060405234801561001057600080fd5b50604051614b3e380380614b3e83398181016040528101906100329190610571565b336040518060400160405280600a81526020017f4142594120544f4b454e000000000000000000000000000000000000000000008152506040518060400160405280600681526020017f414259544b4e000000000000000000000000000000000000000000000000000081525081600390816100ae91906107db565b5080600490816100be91906107db565b505050600073ffffffffffffffffffffffffffffffffffffffff168173ffffffffffffffffffffffffffffffffffffffff16036101335760006040517f1e4fbdf700000000000000000000000000000000000000000000000000000000815260040161012a91906108bc565b60405180910390fd5b6101428161023960201b60201c565b50600281511015610188576040517f08c379a000000000000000000000000000000000000000000000000000000000815260040161017f90610934565b60405180910390fd5b80600a908051906020019061019e9291906102ff565b5060005b815181101561022a576001600f60008484815181106101c4576101c3610954565b5b602002602001015173ffffffffffffffffffffffffffffffffffffffff1673ffffffffffffffffffffffffffffffffffffffff16815260200190815260200160002060006101000a81548160ff02191690831515021790555080806001019150506101a2565b50600160088190555050610983565b6000600560009054906101000a900473ffffffffffffffffffffffffffffffffffffffff16905081600560006101000a81548173ffffffffffffffffffffffffffffffffffffffff021916908373ffffffffffffffffffffffffffffffffffffffff1602179055508173ffffffffffffffffffffffffffffffffffffffff168173ffffffffffffffffffffffffffffffffffffffff167f8be0079c531659141344cd1fd0a4f28419497f9722a3daafe3b4186f6b6457e060405160405180910390a35050565b828054828255906000526020600020908101928215610378579160200282015b828111156103775782518260006101000a81548173ffffffffffffffffffffffffffffffffffffffff021916908373ffffffffffffffffffffffffffffffffffffffff1602179055509160200191906001019061031f565b5b5090506103859190610389565b5090565b5b808211156103a257600081600090555060010161038a565b5090565b6000604051905090565b600080fd5b600080fd5b600080fd5b6000601f19601f8301169050919050565b7f4e487b7100000000000000000000000000000000000000000000000000000000600052604160045260246000fd5b610408826103bf565b810181811067ffffffffffffffff82111715610427576104266103d0565b5b80604052505050565b600061043a6103a6565b905061044682826103ff565b919050565b600067ffffffffffffffff821115610466576104656103d0565b5b602082029050602081019050919050565b600080fd5b600073ffffffffffffffffffffffffffffffffffffffff82169050919050565b60006104a78261047c565b9050919050565b6104b78161049c565b81146104c257600080fd5b50565b6000815190506104d4816104ae565b92915050565b60006104ed6104e88461044b565b610430565b905080838252602082019050602084028301858111156105105761050f610477565b5b835b81811015610539578061052588826104c5565b845260208401935050602081019050610512565b5050509392505050565b600082601f830112610558576105576103ba565b5b81516105688482602086016104da565b91505092915050565b600060208284031215610587576105866103b0565b5b600082015167ffffffffffffffff8111156105a5576105a46103b5565b5b6105b184828501610543565b91505092915050565b600081519050919050565b7f4e487b7100000000000000000000000000000000000000000000000000000000600052602260045260246000fd5b6000600282049050600182168061060c57607f821691505b60208210810361061f5761061e6105c5565b5b50919050565b60008190508160005260206000209050919050565b60006020601f8301049050919050565b600082821b905092915050565b6000600883026106877fffffffffffffffffffffffffffffffffffffffffffffffffffffffffffffffff8261064a565b610691868361064a565b95508019841693508086168417925050509392505050565b6000819050919050565b6000819050919050565b60006106d86106d36106ce846106a9565b6106b3565b6106a9565b9050919050565b6000819050919050565b6106f2836106bd565b6107066106fe826106df565b848454610657565b825550505050565b600090565b61071b61070e565b6107268184846106e9565b505050565b5b8181101561074a5761073f600082610713565b60018101905061072c565b5050565b601f82111561078f5761076081610625565b6107698461063a565b81016020851015610778578190505b61078c6107848561063a565b83018261072b565b50505b505050565b600082821c905092915050565b60006107b260001984600802610794565b1980831691505092915050565b60006107cb83836107a1565b9150826002028217905092915050565b6107e4826105ba565b67ffffffffffffffff8111156107fd576107fc6103d0565b5b61080782546105f4565b61081282828561074e565b600060209050601f8311600181146108455760008415610833578287015190505b61083d85826107bf565b8655506108a5565b601f19841661085386610625565b60005b8281101561087b57848901518255600182019150602085019450602081019050610856565b868310156108985784890151610894601f8916826107a1565b8355505b6001600288020188555050505b505050505050565b6108b68161049c565b82525050565b60006020820190506108d160008301846108ad565b92915050565b600082825260208201905092915050565b7f4174206c6561737420322061646d696e73206172652072657175697265640000600082015250565b600061091e601e836108d7565b9150610929826108e8565b602082019050919050565b6000602082019050818103600083015261094d81610911565b9050919050565b7f4e487b7100000000000000000000000000000000000000000000000000000000600052603260045260246000fd5b6141ac806109926000396000f3fe608060405234801561001057600080fd5b506004361061023d5760003560e01c806370a082311161013b578063a26a7953116100b8578063d93f2caa1161007c578063d93f2caa14610720578063dd62ed3e1461073e578063f2fde38b1461076e578063f57d585b1461078a578063ffabc673146107ba5761023d565b8063a26a79531461064a578063a9059cbb1461067a578063ac957c63146106aa578063c12804fb146106c8578063c7954e4c146107025761023d565b80638da5cb5b116100ff5780638da5cb5b146105a45780638e9a4c34146105c257806395d89b41146105f25780639dc29fac14610610578063a14ecbdf1461062c5761023d565b806370a08231146104fe578063715018a61461052e57806379c65068146105385780637d83daf214610568578063846f8152146105865761023d565b80632990db7c116101c9578063599c55331161018d578063599c553314610453578063660551591461047157806368d35afb1461048f5780636fdb67f7146104ad57806370480275146104e25761023d565b80632990db7c14610396578063313ce567146103cb57806332cb6b0c146103e957806334ed4bdb1461040757806358a3fa25146104375761023d565b806318160ddd1161021057806318160ddd146102dc57806320bd0316146102fa57806323b872dd1461032a578063274202f01461035a57806327ff6223146103785761023d565b806306fdde0314610242578063095ea7b31461026057806314bfd6d0146102905780631785f53c146102c0575b600080fd5b61024a6107ea565b6040516102579190612ead565b60405180910390f35b61027a60048036038101906102759190612f77565b61087c565b6040516102879190612fd2565b60405180910390f35b6102aa60048036038101906102a59190612fed565b61089f565b6040516102b79190613029565b60405180910390f35b6102da60048036038101906102d59190613044565b6108de565b005b6102e4610b54565b6040516102f19190613080565b60405180910390f35b610314600480360381019061030f9190612fed565b610b5e565b6040516103219190612fd2565b60405180910390f35b610344600480360381019061033f919061309b565b610dc6565b6040516103519190612fd2565b60405180910390f35b610362610df5565b60405161036f9190613080565b60405180910390f35b610380610e1d565b60405161038d9190613080565b60405180910390f35b6103b060048036038101906103ab9190612fed565b610e22565b6040516103c2969594939291906130ee565b60405180910390f35b6103d3610f9b565b6040516103e09190613179565b60405180910390f35b6103f1610fa4565b6040516103fe9190613080565b60405180910390f35b610421600480360381019061041c9190613044565b610fb4565b60405161042e9190613080565b60405180910390f35b610451600480360381019061044c9190613194565b610fd2565b005b61045b611357565b6040516104689190613080565b60405180910390f35b61047961135c565b6040516104869190613080565b60405180910390f35b610497611362565b6040516104a49190613080565b60405180910390f35b6104c760048036038101906104c29190612fed565b611368565b6040516104d9969594939291906130ee565b60405180910390f35b6104fc60048036038101906104f79190613044565b6114f1565b005b61051860048036038101906105139190613044565b6116c8565b6040516105259190613080565b60405180910390f35b610536611710565b005b610552600480360381019061054d9190612f77565b611724565b60405161055f9190612fd2565b60405180910390f35b610570611854565b60405161057d9190613080565b60405180910390f35b61058e61185a565b60405161059b9190613080565b60405180910390f35b6105ac61185f565b6040516105b99190613029565b60405180910390f35b6105dc60048036038101906105d79190613044565b611889565b6040516105e99190612fd2565b60405180910390f35b6105fa6118a9565b6040516106079190612ead565b60405180910390f35b61062a60048036038101906106259190612f77565b61193b565b005b6106346119fb565b6040516106419190613080565b60405180910390f35b610664600480360381019061065f91906133bd565b611a01565b6040516106719190612fd2565b60405180910390f35b610694600480360381019061068f9190612f77565b611e7b565b6040516106a19190612fd2565b60405180910390f35b6106b2611e9e565b6040516106bf9190613080565b60405180910390f35b6106e260048036038101906106dd9190613435565b611ea3565b6040516106f99b9a99989796959493929190613475565b60405180910390f35b61070a611f17565b6040516107179190613080565b60405180910390f35b610728611f21565b6040516107359190613080565b60405180910390f35b61075860048036038101906107539190613520565b611f2d565b6040516107659190613080565b60405180910390f35b61078860048036038101906107839190613044565b611fb4565b005b6107a4600480360381019061079f9190612fed565b61203a565b6040516107b19190612fd2565b60405180910390f35b6107d460048036038101906107cf9190612f77565b612248565b6040516107e19190612fd2565b60405180910390f35b6060600380546107f99061358f565b80601f01602080910402602001604051908101604052809291908181526020018280546108259061358f565b80156108725780601f1061084757610100808354040283529160200191610872565b820191906000526020600020905b81548152906001019060200180831161085557829003601f168201915b5050505050905090565b600080610887612277565b905061089481858561227f565b600191505092915050565b600a81815481106108af57600080fd5b906000526020600020016000915054906101000a900473ffffffffffffffffffffffffffffffffffffffff1681565b6108e6612291565b600f60008273ffffffffffffffffffffffffffffffffffffffff1673ffffffffffffffffffffffffffffffffffffffff16815260200190815260200160002060009054906101000a900460ff16610972576040517f08c379a00000000000000000000000000000000000000000000000000000000081526004016109699061360c565b60405180910390fd5b60005b600a80549050811015610b50578173ffffffffffffffffffffffffffffffffffffffff16600a82815481106109ad576109ac61362c565b5b9060005260206000200160009054906101000a900473ffffffffffffffffffffffffffffffffffffffff1673ffffffffffffffffffffffffffffffffffffffff1603610b4357600a6001600a80549050610a07919061368a565b81548110610a1857610a1761362c565b5b9060005260206000200160009054906101000a900473ffffffffffffffffffffffffffffffffffffffff16600a8281548110610a5757610a5661362c565b5b9060005260206000200160006101000a81548173ffffffffffffffffffffffffffffffffffffffff021916908373ffffffffffffffffffffffffffffffffffffffff160217905550600a805480610ab157610ab06136be565b5b6001900381819060005260206000200160006101000a81549073ffffffffffffffffffffffffffffffffffffffff021916905590556000600f60008473ffffffffffffffffffffffffffffffffffffffff1673ffffffffffffffffffffffffffffffffffffffff16815260200190815260200160002060006101000a81548160ff021916908315150217905550610b50565b8080600101915050610975565b5050565b6000600254905090565b600080600b6000848152602001908152602001600020905060008060005b8360060180549050811015610c17573373ffffffffffffffffffffffffffffffffffffffff16846006018281548110610bb857610bb761362c565b5b9060005260206000200160009054906101000a900473ffffffffffffffffffffffffffffffffffffffff1673ffffffffffffffffffffffffffffffffffffffff1603610c0a5760019250809150610c17565b8080600101915050610b7c565b5081610c58576040517f08c379a0000000000000000000000000000000000000000000000000000000008152600401610c4f9061375f565b60405180910390fd5b8260060160018460060180549050610c70919061368a565b81548110610c8157610c8061362c565b5b9060005260206000200160009054906101000a900473ffffffffffffffffffffffffffffffffffffffff16836006018281548110610cc257610cc161362c565b5b9060005260206000200160006101000a81548173ffffffffffffffffffffffffffffffffffffffff021916908373ffffffffffffffffffffffffffffffffffffffff16021790555082600601805480610d1e57610d1d6136be565b5b6001900381819060005260206000200160006101000a81549073ffffffffffffffffffffffffffffffffffffffff0219169055905560096000815480929190610d669061377f565b9190505550610d7633600261193b565b3373ffffffffffffffffffffffffffffffffffffffff16857f9b244c565b926d7f4e915b69f3a5c6afc2231322d0d44e821076ad8879d0d68360405160405180910390a360019350505050919050565b600080610dd1612277565b9050610dde858285612318565b610de98585856123ac565b60019150509392505050565b6064600f6b204fce5e3e25026110000000610e1091906137a8565b610e1a9190613819565b81565b606481565b600b602052806000526040600020600091509050806000015490806001018054610e4b9061358f565b80601f0160208091040260200160405190810160405280929190818152602001828054610e779061358f565b8015610ec45780601f10610e9957610100808354040283529160200191610ec4565b820191906000526020600020905b815481529060010190602001808311610ea757829003601f168201915b505050505090806002018054610ed99061358f565b80601f0160208091040260200160405190810160405280929190818152602001828054610f059061358f565b8015610f525780601f10610f2757610100808354040283529160200191610f52565b820191906000526020600020905b815481529060010190602001808311610f3557829003601f168201915b5050505050908060030160009054906101000a900460ff16908060040154908060050160009054906101000a900473ffffffffffffffffffffffffffffffffffffffff16905086565b60006012905090565b6b204fce5e3e2502611000000081565b600d6020528060005260406000206000915090508060000154905081565b600f60003373ffffffffffffffffffffffffffffffffffffffff1673ffffffffffffffffffffffffffffffffffffffff16815260200190815260200160002060009054906101000a900460ff1661105e576040517f08c379a000000000000000000000000000000000000000000000000000000000815260040161105590613896565b60405180910390fd5b600c60008c815260200190815260200160002060003373ffffffffffffffffffffffffffffffffffffffff1673ffffffffffffffffffffffffffffffffffffffff168152602001908152602001600020600a0160009054906101000a900460ff16156110ff576040517f08c379a00000000000000000000000000000000000000000000000000000000081526004016110f690613928565b60405180910390fd5b600a8a111580156111115750600a8911155b801561111e5750600a8811155b801561112b5750600a8711155b80156111385750600a8611155b80156111455750600a8511155b80156111525750600a8411155b801561115f5750600a8311155b801561116c5750600a8211155b80156111795750600a8111155b6111b8576040517f08c379a00000000000000000000000000000000000000000000000000000000081526004016111af90613994565b60405180910390fd5b6040518061016001604052808b81526020018a815260200189815260200188815260200187815260200186815260200185815260200184815260200183815260200182815260200160011515815250600c60008d815260200190815260200160002060003373ffffffffffffffffffffffffffffffffffffffff1673ffffffffffffffffffffffffffffffffffffffff168152602001908152602001600020600082015181600001556020820151816001015560408201518160020155606082015181600301556080820151816004015560a0820151816005015560c0820151816006015560e082015181600701556101008201518160080155610120820151816009015561014082015181600a0160006101000a81548160ff021916908315150217905550905050605061133b600c60008e815260200190815260200160002060003373ffffffffffffffffffffffffffffffffffffffff1673ffffffffffffffffffffffffffffffffffffffff1681526020019081526020016000206124a0565b1061134a576113498b612535565b5b5050505050505050505050565b600181565b60075481565b60095481565b6010818154811061137857600080fd5b90600052602060002090600702016000915090508060000154908060010180546113a19061358f565b80601f01602080910402602001604051908101604052809291908181526020018280546113cd9061358f565b801561141a5780601f106113ef5761010080835404028352916020019161141a565b820191906000526020600020905b8154815290600101906020018083116113fd57829003601f168201915b50505050509080600201805461142f9061358f565b80601f016020809104026020016040519081016040528092919081815260200182805461145b9061358f565b80156114a85780601f1061147d576101008083540402835291602001916114a8565b820191906000526020600020905b81548152906001019060200180831161148b57829003601f168201915b5050505050908060030160009054906101000a900460ff16908060040154908060050160009054906101000a900473ffffffffffffffffffffffffffffffffffffffff16905086565b600f60003373ffffffffffffffffffffffffffffffffffffffff1673ffffffffffffffffffffffffffffffffffffffff16815260200190815260200160002060009054906101000a900460ff1661157d576040517f08c379a000000000000000000000000000000000000000000000000000000000815260040161157490613896565b60405180910390fd5b600f60008273ffffffffffffffffffffffffffffffffffffffff1673ffffffffffffffffffffffffffffffffffffffff16815260200190815260200160002060009054906101000a900460ff161561160a576040517f08c379a000000000000000000000000000000000000000000000000000000000815260040161160190613a00565b60405180910390fd5b600a819080600181540180825580915050600190039060005260206000200160009091909190916101000a81548173ffffffffffffffffffffffffffffffffffffffff021916908373ffffffffffffffffffffffffffffffffffffffff1602179055506001600f60008373ffffffffffffffffffffffffffffffffffffffff1673ffffffffffffffffffffffffffffffffffffffff16815260200190815260200160002060006101000a81548160ff02191690831515021790555050565b60008060008373ffffffffffffffffffffffffffffffffffffffff1673ffffffffffffffffffffffffffffffffffffffff168152602001908152602001600020549050919050565b611718612291565b61172260006127b0565b565b60006064600f6b204fce5e3e2502611000000061174191906137a8565b61174b9190613819565b611753611f17565b8361175e9190613a20565b111561179f576040517f08c379a000000000000000000000000000000000000000000000000000000000815260040161179690613aa0565b60405180910390fd5b6117a98383612876565b81600660008282546117bb9190613a20565b92505081905550818373ffffffffffffffffffffffffffffffffffffffff167fcda531bfd68624f13205c0a23cd4d5a7f09792cbb399603114f2b04aaa1bf5cf60405160405180910390a3818373ffffffffffffffffffffffffffffffffffffffff167fad6ef58d5c294f81258965738e7ae511124139834a8d0b8f8f7327086c82052a60405160405180910390a36001905092915050565b60085481565b600281565b6000600560009054906101000a900473ffffffffffffffffffffffffffffffffffffffff16905090565b600f6020528060005260406000206000915054906101000a900460ff1681565b6060600480546118b89061358f565b80601f01602080910402602001604051908101604052809291908181526020018280546118e49061358f565b80156119315780601f1061190657610100808354040283529160200191611931565b820191906000526020600020905b81548152906001019060200180831161191457829003601f168201915b5050505050905090565b80611945836116c8565b1015611986576040517f08c379a000000000000000000000000000000000000000000000000000000000815260040161197d90613b0c565b60405180910390fd5b61199082826128f8565b80600660008282546119a2919061368a565b925050819055508173ffffffffffffffffffffffffffffffffffffffff167f5b5d8478b570a79ab6b3bf13ff029fba19c02ab0d54d692d4ef0d9052d5cc850826040516119ef9190613080565b60405180910390a25050565b60065481565b60008060085411611a47576040517f08c379a0000000000000000000000000000000000000000000000000000000008152600401611a3e90613b9e565b60405180910390fd5b600073ffffffffffffffffffffffffffffffffffffffff16600b6000600854815260200190815260200160002060050160009054906101000a900473ffffffffffffffffffffffffffffffffffffffff1673ffffffffffffffffffffffffffffffffffffffff1614611aee576040517f08c379a0000000000000000000000000000000000000000000000000000000008152600401611ae590613c0a565b60405180910390fd5b60006040518060e001604052806008548152602001858152602001848152602001600015158152602001600081526020013373ffffffffffffffffffffffffffffffffffffffff168152602001600067ffffffffffffffff811115611b5657611b55613292565b5b604051908082528060200260200182016040528015611b845781602001602082028036833780820191505090505b50815250905080600b60006008548152602001908152602001600020600082015181600001556020820151816001019081611bbf9190613dd6565b506040820151816002019081611bd59190613dd6565b5060608201518160030160006101000a81548160ff0219169083151502179055506080820151816004015560a08201518160050160006101000a81548173ffffffffffffffffffffffffffffffffffffffff021916908373ffffffffffffffffffffffffffffffffffffffff16021790555060c0820151816006019080519060200190611c63929190612d76565b509050506010819080600181540180825580915050600190039060005260206000209060070201600090919091909150600082015181600001556020820151816001019081611cb29190613dd6565b506040820151816002019081611cc89190613dd6565b5060608201518160030160006101000a81548160ff0219169083151502179055506080820151816004015560a08201518160050160006101000a81548173ffffffffffffffffffffffffffffffffffffffff021916908373ffffffffffffffffffffffffffffffffffffffff16021790555060c0820151816006019080519060200190611d56929190612d76565b50505060076000815480929190611d6c90613ea8565b91905055506001600d60003373ffffffffffffffffffffffffffffffffffffffff1673ffffffffffffffffffffffffffffffffffffffff1681526020019081526020016000206000016000828254611dc49190613a20565b9250508190555060086000815480929190611dde90613ea8565b919050555083604051611df19190613f2c565b60405180910390206001600854611e08919061368a565b7f9c93a42b217373d37e6c66ace0a67fe1fa1f78c93164b62417de69c48c0f67e2600b60006001600854611e3c919061368a565b815260200190815260200160002060030160009054906101000a900460ff16604051611e689190612fd2565b60405180910390a3600191505092915050565b600080611e86612277565b9050611e938185856123ac565b600191505092915050565b605081565b600c6020528160005260406000206020528060005260406000206000915091505080600001549080600101549080600201549080600301549080600401549080600501549080600601549080600701549080600801549080600901549080600a0160009054906101000a900460ff1690508b565b6000600654905090565b674563918244f4000081565b6000600160008473ffffffffffffffffffffffffffffffffffffffff1673ffffffffffffffffffffffffffffffffffffffff16815260200190815260200160002060008373ffffffffffffffffffffffffffffffffffffffff1673ffffffffffffffffffffffffffffffffffffffff16815260200190815260200160002054905092915050565b611fbc612291565b600073ffffffffffffffffffffffffffffffffffffffff168173ffffffffffffffffffffffffffffffffffffffff160361202e5760006040517f1e4fbdf70000000000000000000000000000000000000000000000000000000081526004016120259190613029565b60405180910390fd5b612037816127b0565b50565b600080600b600084815260200190815260200160002090508060030160009054906101000a900460ff166120a3576040517f08c379a000000000000000000000000000000000000000000000000000000000815260040161209a90613f8f565b60405180910390fd5b60005b8160060180549050811015612170573373ffffffffffffffffffffffffffffffffffffffff168260060182815481106120e2576120e161362c565b5b9060005260206000200160009054906101000a900473ffffffffffffffffffffffffffffffffffffffff1673ffffffffffffffffffffffffffffffffffffffff1603612163576040517f08c379a000000000000000000000000000000000000000000000000000000000815260040161215a90614021565b60405180910390fd5b80806001019150506120a6565b5080600601339080600181540180825580915050600190039060005260206000200160009091909190916101000a81548173ffffffffffffffffffffffffffffffffffffffff021916908373ffffffffffffffffffffffffffffffffffffffff160217905550600960008154809291906121e990613ea8565b91905055506121f9336002611724565b503373ffffffffffffffffffffffffffffffffffffffff16837f4bf249f6b0ca5630ea4816c04b928b864a2065cb51658fd6223d83b727fd326b60405160405180910390a36001915050919050565b600e6020528160005260406000206020528060005260406000206000915091509054906101000a900460ff1681565b600033905090565b61228c838383600161297a565b505050565b612299612277565b73ffffffffffffffffffffffffffffffffffffffff166122b761185f565b73ffffffffffffffffffffffffffffffffffffffff1614612316576122da612277565b6040517f118cdaa700000000000000000000000000000000000000000000000000000000815260040161230d9190613029565b60405180910390fd5b565b60006123248484611f2d565b90507fffffffffffffffffffffffffffffffffffffffffffffffffffffffffffffffff81146123a65781811015612396578281836040517ffb8f41b200000000000000000000000000000000000000000000000000000000815260040161238d93929190614041565b60405180910390fd5b6123a58484848403600061297a565b5b50505050565b600073ffffffffffffffffffffffffffffffffffffffff168373ffffffffffffffffffffffffffffffffffffffff160361241e5760006040517f96c6fd1e0000000000000000000000000000000000000000000000000000000081526004016124159190613029565b60405180910390fd5b600073ffffffffffffffffffffffffffffffffffffffff168273ffffffffffffffffffffffffffffffffffffffff16036124905760006040517fec442f050000000000000000000000000000000000000000000000000000000081526004016124879190613029565b60405180910390fd5b61249b838383612b51565b505050565b60008160090154826008015483600701548460060154856005015486600401548760030154886002015489600101548a600001546124de9190613a20565b6124e89190613a20565b6124f29190613a20565b6124fc9190613a20565b6125069190613a20565b6125109190613a20565b61251a9190613a20565b6125249190613a20565b61252e9190613a20565b9050919050565b600f60003373ffffffffffffffffffffffffffffffffffffffff1673ffffffffffffffffffffffffffffffffffffffff16815260200190815260200160002060009054906101000a900460ff166125c1576040517f08c379a00000000000000000000000000000000000000000000000000000000081526004016125b890613896565b60405180910390fd5b6000600b600083815260200190815260200160002090508060030160009054906101000a900460ff161561262a576040517f08c379a0000000000000000000000000000000000000000000000000000000008152600401612621906140c4565b60405180910390fd5b600e60003373ffffffffffffffffffffffffffffffffffffffff1673ffffffffffffffffffffffffffffffffffffffff168152602001908152602001600020600083815260200190815260200160002060009054906101000a900460ff16156126c8576040517f08c379a00000000000000000000000000000000000000000000000000000000081526004016126bf90614156565b60405180910390fd5b6001600e60003373ffffffffffffffffffffffffffffffffffffffff1673ffffffffffffffffffffffffffffffffffffffff168152602001908152602001600020600084815260200190815260200160002060006101000a81548160ff02191690831515021790555080600401600081548092919061274690613ea8565b919050555060018160040154106127ac5760018160030160006101000a81548160ff0219169083151502179055506127aa8160050160009054906101000a900473ffffffffffffffffffffffffffffffffffffffff16674563918244f40000611724565b505b5050565b6000600560009054906101000a900473ffffffffffffffffffffffffffffffffffffffff16905081600560006101000a81548173ffffffffffffffffffffffffffffffffffffffff021916908373ffffffffffffffffffffffffffffffffffffffff1602179055508173ffffffffffffffffffffffffffffffffffffffff168173ffffffffffffffffffffffffffffffffffffffff167f8be0079c531659141344cd1fd0a4f28419497f9722a3daafe3b4186f6b6457e060405160405180910390a35050565b600073ffffffffffffffffffffffffffffffffffffffff168273ffffffffffffffffffffffffffffffffffffffff16036128e85760006040517fec442f050000000000000000000000000000000000000000000000000000000081526004016128df9190613029565b60405180910390fd5b6128f460008383612b51565b5050565b600073ffffffffffffffffffffffffffffffffffffffff168273ffffffffffffffffffffffffffffffffffffffff160361296a5760006040517f96c6fd1e0000000000000000000000000000000000000000000000000000000081526004016129619190613029565b60405180910390fd5b61297682600083612b51565b5050565b600073ffffffffffffffffffffffffffffffffffffffff168473ffffffffffffffffffffffffffffffffffffffff16036129ec5760006040517fe602df050000000000000000000000000000000000000000000000000000000081526004016129e39190613029565b60405180910390fd5b600073ffffffffffffffffffffffffffffffffffffffff168373ffffffffffffffffffffffffffffffffffffffff1603612a5e5760006040517f94280d62000000000000000000000000000000000000000000000000000000008152600401612a559190613029565b60405180910390fd5b81600160008673ffffffffffffffffffffffffffffffffffffffff1673ffffffffffffffffffffffffffffffffffffffff16815260200190815260200160002060008573ffffffffffffffffffffffffffffffffffffffff1673ffffffffffffffffffffffffffffffffffffffff168152602001908152602001600020819055508015612b4b578273ffffffffffffffffffffffffffffffffffffffff168473ffffffffffffffffffffffffffffffffffffffff167f8c5be1e5ebec7d5bd14f71427d1e84f3dd0314c0f7b2291e5b200ac8c7c3b92584604051612b429190613080565b60405180910390a35b50505050565b600073ffffffffffffffffffffffffffffffffffffffff168373ffffffffffffffffffffffffffffffffffffffff1603612ba3578060026000828254612b979190613a20565b92505081905550612c76565b60008060008573ffffffffffffffffffffffffffffffffffffffff1673ffffffffffffffffffffffffffffffffffffffff16815260200190815260200160002054905081811015612c2f578381836040517fe450d38c000000000000000000000000000000000000000000000000000000008152600401612c2693929190614041565b60405180910390fd5b8181036000808673ffffffffffffffffffffffffffffffffffffffff1673ffffffffffffffffffffffffffffffffffffffff16815260200190815260200160002081905550505b600073ffffffffffffffffffffffffffffffffffffffff168273ffffffffffffffffffffffffffffffffffffffff1603612cbf5780600260008282540392505081905550612d0c565b806000808473ffffffffffffffffffffffffffffffffffffffff1673ffffffffffffffffffffffffffffffffffffffff168152602001908152602001600020600082825401925050819055505b8173ffffffffffffffffffffffffffffffffffffffff168373ffffffffffffffffffffffffffffffffffffffff167fddf252ad1be2c89b69c2b068fc378daa952ba7f163c4a11628f55a4df523b3ef83604051612d699190613080565b60405180910390a3505050565b828054828255906000526020600020908101928215612def579160200282015b82811115612dee5782518260006101000a81548173ffffffffffffffffffffffffffffffffffffffff021916908373ffffffffffffffffffffffffffffffffffffffff16021790555091602001919060010190612d96565b5b509050612dfc9190612e00565b5090565b5b80821115612e19576000816000905550600101612e01565b5090565b600081519050919050565b600082825260208201905092915050565b60005b83811015612e57578082015181840152602081019050612e3c565b60008484015250505050565b6000601f19601f8301169050919050565b6000612e7f82612e1d565b612e898185612e28565b9350612e99818560208601612e39565b612ea281612e63565b840191505092915050565b60006020820190508181036000830152612ec78184612e74565b905092915050565b6000604051905090565b600080fd5b600080fd5b600073ffffffffffffffffffffffffffffffffffffffff82169050919050565b6000612f0e82612ee3565b9050919050565b612f1e81612f03565b8114612f2957600080fd5b50565b600081359050612f3b81612f15565b92915050565b6000819050919050565b612f5481612f41565b8114612f5f57600080fd5b50565b600081359050612f7181612f4b565b92915050565b60008060408385031215612f8e57612f8d612ed9565b5b6000612f9c85828601612f2c565b9250506020612fad85828601612f62565b9150509250929050565b60008115159050919050565b612fcc81612fb7565b82525050565b6000602082019050612fe76000830184612fc3565b92915050565b60006020828403121561300357613002612ed9565b5b600061301184828501612f62565b91505092915050565b61302381612f03565b82525050565b600060208201905061303e600083018461301a565b92915050565b60006020828403121561305a57613059612ed9565b5b600061306884828501612f2c565b91505092915050565b61307a81612f41565b82525050565b60006020820190506130956000830184613071565b92915050565b6000806000606084860312156130b4576130b3612ed9565b5b60006130c286828701612f2c565b93505060206130d386828701612f2c565b92505060406130e486828701612f62565b9150509250925092565b600060c0820190506131036000830189613071565b81810360208301526131158188612e74565b905081810360408301526131298187612e74565b90506131386060830186612fc3565b6131456080830185613071565b61315260a083018461301a565b979650505050505050565b600060ff82169050919050565b6131738161315d565b82525050565b600060208201905061318e600083018461316a565b92915050565b60008060008060008060008060008060006101608c8e0312156131ba576131b9612ed9565b5b60006131c88e828f01612f62565b9b505060206131d98e828f01612f62565b9a505060406131ea8e828f01612f62565b99505060606131fb8e828f01612f62565b985050608061320c8e828f01612f62565b97505060a061321d8e828f01612f62565b96505060c061322e8e828f01612f62565b95505060e061323f8e828f01612f62565b9450506101006132518e828f01612f62565b9350506101206132638e828f01612f62565b9250506101406132758e828f01612f62565b9150509295989b509295989b9093969950565b600080fd5b600080fd5b7f4e487b7100000000000000000000000000000000000000000000000000000000600052604160045260246000fd5b6132ca82612e63565b810181811067ffffffffffffffff821117156132e9576132e8613292565b5b80604052505050565b60006132fc612ecf565b905061330882826132c1565b919050565b600067ffffffffffffffff82111561332857613327613292565b5b61333182612e63565b9050602081019050919050565b82818337600083830152505050565b600061336061335b8461330d565b6132f2565b90508281526020810184848401111561337c5761337b61328d565b5b61338784828561333e565b509392505050565b600082601f8301126133a4576133a3613288565b5b81356133b484826020860161334d565b91505092915050565b600080604083850312156133d4576133d3612ed9565b5b600083013567ffffffffffffffff8111156133f2576133f1612ede565b5b6133fe8582860161338f565b925050602083013567ffffffffffffffff81111561341f5761341e612ede565b5b61342b8582860161338f565b9150509250929050565b6000806040838503121561344c5761344b612ed9565b5b600061345a85828601612f62565b925050602061346b85828601612f2c565b9150509250929050565b60006101608201905061348b600083018e613071565b613498602083018d613071565b6134a5604083018c613071565b6134b2606083018b613071565b6134bf608083018a613071565b6134cc60a0830189613071565b6134d960c0830188613071565b6134e660e0830187613071565b6134f4610100830186613071565b613502610120830185613071565b613510610140830184612fc3565b9c9b505050505050505050505050565b6000806040838503121561353757613536612ed9565b5b600061354585828601612f2c565b925050602061355685828601612f2c565b9150509250929050565b7f4e487b7100000000000000000000000000000000000000000000000000000000600052602260045260246000fd5b600060028204905060018216806135a757607f821691505b6020821081036135ba576135b9613560565b5b50919050565b7f41646472657373206973206e6f7420616e2061646d696e000000000000000000600082015250565b60006135f6601783612e28565b9150613601826135c0565b602082019050919050565b60006020820190508181036000830152613625816135e9565b9050919050565b7f4e487b7100000000000000000000000000000000000000000000000000000000600052603260045260246000fd5b7f4e487b7100000000000000000000000000000000000000000000000000000000600052601160045260246000fd5b600061369582612f41565b91506136a083612f41565b92508282039050818111156136b8576136b761365b565b5b92915050565b7f4e487b7100000000000000000000000000000000000000000000000000000000600052603160045260246000fd5b7f596f7520617265206e6f7420656e726f6c6c656420696e207468697320636f7560008201527f7273652100000000000000000000000000000000000000000000000000000000602082015250565b6000613749602483612e28565b9150613754826136ed565b604082019050919050565b600060208201905081810360008301526137788161373c565b9050919050565b600061378a82612f41565b91506000820361379d5761379c61365b565b5b600182039050919050565b60006137b382612f41565b91506137be83612f41565b92508282026137cc81612f41565b915082820484148315176137e3576137e261365b565b5b5092915050565b7f4e487b7100000000000000000000000000000000000000000000000000000000600052601260045260246000fd5b600061382482612f41565b915061382f83612f41565b92508261383f5761383e6137ea565b5b828204905092915050565b7f43616c6c6572206973206e6f7420616e2061646d696e00000000000000000000600082015250565b6000613880601683612e28565b915061388b8261384a565b602082019050919050565b600060208201905081810360008301526138af81613873565b9050919050565b7f52657669657720616c7265616479207375626d6974746564206279207468697360008201527f2072657669657765722e00000000000000000000000000000000000000000000602082015250565b6000613912602a83612e28565b915061391d826138b6565b604082019050919050565b6000602082019050818103600083015261394181613905565b9050919050565b7f53636f726573206d757374206265206265747765656e203120616e642031302e600082015250565b600061397e602083612e28565b915061398982613948565b602082019050919050565b600060208201905081810360008301526139ad81613971565b9050919050565b7f4164647265737320697320616c726561647920616e2061646d696e0000000000600082015250565b60006139ea601b83612e28565b91506139f5826139b4565b602082019050919050565b60006020820190508181036000830152613a19816139dd565b9050919050565b6000613a2b82612f41565b9150613a3683612f41565b9250828201905080821115613a4e57613a4d61365b565b5b92915050565b7f4c696d6974204578636565646564210000000000000000000000000000000000600082015250565b6000613a8a600f83612e28565b9150613a9582613a54565b602082019050919050565b60006020820190508181036000830152613ab981613a7d565b9050919050565b7f496e73756666696369656e742062616c616e6365000000000000000000000000600082015250565b6000613af6601483612e28565b9150613b0182613ac0565b602082019050919050565b60006020820190508181036000830152613b2581613ae9565b9050919050565b7f416c6c20636f75727365204944732068617665206265656e2061737369676e6560008201527f6400000000000000000000000000000000000000000000000000000000000000602082015250565b6000613b88602183612e28565b9150613b9382613b2c565b604082019050919050565b60006020820190508181036000830152613bb781613b7b565b9050919050565b7f436f7572736520494420616c7265616479206578697374730000000000000000600082015250565b6000613bf4601883612e28565b9150613bff82613bbe565b602082019050919050565b60006020820190508181036000830152613c2381613be7565b9050919050565b60008190508160005260206000209050919050565b60006020601f8301049050919050565b600082821b905092915050565b600060088302613c8c7fffffffffffffffffffffffffffffffffffffffffffffffffffffffffffffffff82613c4f565b613c968683613c4f565b95508019841693508086168417925050509392505050565b6000819050919050565b6000613cd3613cce613cc984612f41565b613cae565b612f41565b9050919050565b6000819050919050565b613ced83613cb8565b613d01613cf982613cda565b848454613c5c565b825550505050565b600090565b613d16613d09565b613d21818484613ce4565b505050565b5b81811015613d4557613d3a600082613d0e565b600181019050613d27565b5050565b601f821115613d8a57613d5b81613c2a565b613d6484613c3f565b81016020851015613d73578190505b613d87613d7f85613c3f565b830182613d26565b50505b505050565b600082821c905092915050565b6000613dad60001984600802613d8f565b1980831691505092915050565b6000613dc68383613d9c565b9150826002028217905092915050565b613ddf82612e1d565b67ffffffffffffffff811115613df857613df7613292565b5b613e02825461358f565b613e0d828285613d49565b600060209050601f831160018114613e405760008415613e2e578287015190505b613e388582613dba565b865550613ea0565b601f198416613e4e86613c2a565b60005b82811015613e7657848901518255600182019150602085019450602081019050613e51565b86831015613e935784890151613e8f601f891682613d9c565b8355505b6001600288020188555050505b505050505050565b6000613eb382612f41565b91507fffffffffffffffffffffffffffffffffffffffffffffffffffffffffffffffff8203613ee557613ee461365b565b5b600182019050919050565b600081905092915050565b6000613f0682612e1d565b613f108185613ef0565b9350613f20818560208601612e39565b80840191505092915050565b6000613f388284613efb565b915081905092915050565b7f436f75727365206e6f742079657420617070726f766564210000000000000000600082015250565b6000613f79601883612e28565b9150613f8482613f43565b602082019050919050565b60006020820190508181036000830152613fa881613f6c565b9050919050565b7f596f752061726520616c726561647920656e726f6c6c656420696e207468697360008201527f20636f7572736521000000000000000000000000000000000000000000000000602082015250565b600061400b602883612e28565b915061401682613faf565b604082019050919050565b6000602082019050818103600083015261403a81613ffe565b9050919050565b6000606082019050614056600083018661301a565b6140636020830185613071565b6140706040830184613071565b949350505050565b7f436f7572736520616c726561647920617070726f766564000000000000000000600082015250565b60006140ae601783612e28565b91506140b982614078565b602082019050919050565b600060208201905081810360008301526140dd816140a1565b9050919050565b7f596f75206861766520616c726561647920617070726f7665642074686973206360008201527f6f75727365000000000000000000000000000000000000000000000000000000602082015250565b6000614140602583612e28565b915061414b826140e4565b604082019050919050565b6000602082019050818103600083015261416f81614133565b905091905056fea2646970667358221220fb2775d1c157d7b16d4e179fbd5f07a4051d952e2c85dce624dc46e9cfb46ddc64736f6c634300081b0033",
  "linkReferences": {},
  "deployedLinkReferences": {}
}