{
  "_format": "hh-sol-artifact-1",
  "contractName": "Ecosystem",
  "sourceName": "contracts/Ecosystem.sol",
  "abi": [
    {
      "inputs": [
        {
          "internalType": "address[]",
          "name": "_admins",
          "type": "address[]"
        }
      ],
      "stateMutability": "nonpayable",
      "type": "constructor"
    },
    {
      "inputs": [
        {
          "internalType": "address",
          "name": "spender",
          "type": "address"
        },
        {
          "internalType": "uint256",
          "name": "allowance",
          "type": "uint256"
        },
        {
          "internalType": "uint256",
          "name": "needed",
          "type": "uint256"
        }
      ],
      "name": "ERC20InsufficientAllowance",
      "type": "error"
    },
    {
      "inputs": [
        {
          "internalType": "address",
          "name": "sender",
          "type": "address"
        },
        {
          "internalType": "uint256",
          "name": "balance",
          "type": "uint256"
        },
        {
          "internalType": "uint256",
          "name": "needed",
          "type": "uint256"
        }
      ],
      "name": "ERC20InsufficientBalance",
      "type": "error"
    },
    {
      "inputs": [
        {
          "internalType": "address",
          "name": "approver",
          "type": "address"
        }
      ],
      "name": "ERC20InvalidApprover",
      "type": "error"
    },
    {
      "inputs": [
        {
          "internalType": "address",
          "name": "receiver",
          "type": "address"
        }
      ],
      "name": "ERC20InvalidReceiver",
      "type": "error"
    },
    {
      "inputs": [
        {
          "internalType": "address",
          "name": "sender",
          "type": "address"
        }
      ],
      "name": "ERC20InvalidSender",
      "type": "error"
    },
    {
      "inputs": [
        {
          "internalType": "address",
          "name": "spender",
          "type": "address"
        }
      ],
      "name": "ERC20InvalidSpender",
      "type": "error"
    },
    {
      "inputs": [
        {
          "internalType": "address",
          "name": "owner",
          "type": "address"
        }
      ],
      "name": "OwnableInvalidOwner",
      "type": "error"
    },
    {
      "inputs": [
        {
          "internalType": "address",
          "name": "account",
          "type": "address"
        }
      ],
      "name": "OwnableUnauthorizedAccount",
      "type": "error"
    },
    {
      "anonymous": false,
      "inputs": [
        {
          "indexed": true,
          "internalType": "address",
          "name": "owner",
          "type": "address"
        },
        {
          "indexed": true,
          "internalType": "address",
          "name": "spender",
          "type": "address"
        },
        {
          "indexed": false,
          "internalType": "uint256",
          "name": "value",
          "type": "uint256"
        }
      ],
      "name": "Approval",
      "type": "event"
    },
    {
      "anonymous": false,
      "inputs": [
        {
          "indexed": true,
          "internalType": "address",
          "name": "_account",
          "type": "address"
        },
        {
          "indexed": false,
          "internalType": "uint256",
          "name": "_amount",
          "type": "uint256"
        }
      ],
      "name": "BurnSuccess",
      "type": "event"
    },
    {
      "anonymous": false,
      "inputs": [
        {
          "indexed": true,
          "internalType": "uint256",
          "name": "_courseID",
          "type": "uint256"
        },
        {
          "indexed": true,
          "internalType": "string",
          "name": "_courseName",
          "type": "string"
        },
        {
          "indexed": false,
          "internalType": "bool",
          "name": "_approved",
          "type": "bool"
        }
      ],
      "name": "CourseCreationSuccess",
      "type": "event"
    },
    {
      "anonymous": false,
      "inputs": [
        {
          "indexed": true,
          "internalType": "address",
          "name": "_to",
          "type": "address"
        },
        {
          "indexed": true,
          "internalType": "uint256",
          "name": "_amount",
          "type": "uint256"
        }
      ],
      "name": "EcosystemPoolUpdate",
      "type": "event"
    },
    {
      "anonymous": false,
      "inputs": [
        {
          "indexed": true,
          "internalType": "uint256",
          "name": "_courseId",
          "type": "uint256"
        },
        {
          "indexed": true,
          "internalType": "address",
          "name": "_by",
          "type": "address"
        }
      ],
      "name": "EnrollmentSuccess",
      "type": "event"
    },
    {
      "anonymous": false,
      "inputs": [
        {
          "indexed": true,
          "internalType": "address",
          "name": "_to",
          "type": "address"
        },
        {
          "indexed": true,
          "internalType": "uint256",
          "name": "_amount",
          "type": "uint256"
        }
      ],
      "name": "MintSuccess",
      "type": "event"
    },
    {
      "anonymous": false,
      "inputs": [
        {
          "indexed": true,
          "internalType": "address",
          "name": "previousOwner",
          "type": "address"
        },
        {
          "indexed": true,
          "internalType": "address",
          "name": "newOwner",
          "type": "address"
        }
      ],
      "name": "OwnershipTransferred",
      "type": "event"
    },
    {
      "anonymous": false,
      "inputs": [
        {
          "indexed": true,
          "internalType": "address",
          "name": "from",
          "type": "address"
        },
        {
          "indexed": true,
          "internalType": "address",
          "name": "to",
          "type": "address"
        },
        {
          "indexed": false,
          "internalType": "uint256",
          "name": "value",
          "type": "uint256"
        }
      ],
      "name": "Transfer",
      "type": "event"
    },
    {
      "anonymous": false,
      "inputs": [
        {
          "indexed": true,
          "internalType": "uint256",
          "name": "_courseId",
          "type": "uint256"
        },
        {
          "indexed": true,
          "internalType": "address",
          "name": "_by",
          "type": "address"
        }
      ],
      "name": "unEnrollmentSuccess",
      "type": "event"
    },
    {
      "inputs": [],
      "name": "CREATE_COURSE_REWARD",
      "outputs": [
        {
          "internalType": "uint256",
          "name": "",
          "type": "uint256"
        }
      ],
      "stateMutability": "view",
      "type": "function"
    },
    {
      "inputs": [],
      "name": "ECOSYSTEM_POOL",
      "outputs": [
        {
          "internalType": "uint256",
          "name": "",
          "type": "uint256"
        }
      ],
      "stateMutability": "view",
      "type": "function"
    },
    {
      "inputs": [],
      "name": "ENROLLMENT_REWARD",
      "outputs": [
        {
          "internalType": "uint256",
          "name": "",
          "type": "uint256"
        }
      ],
      "stateMutability": "view",
      "type": "function"
    },
    {
      "inputs": [],
      "name": "MAX_SCORE",
      "outputs": [
        {
          "internalType": "uint256",
          "name": "",
          "type": "uint256"
        }
      ],
      "stateMutability": "view",
      "type": "function"
    },
    {
      "inputs": [],
      "name": "MAX_SUPPLY",
      "outputs": [
        {
          "internalType": "uint256",
          "name": "",
          "type": "uint256"
        }
      ],
      "stateMutability": "view",
      "type": "function"
    },
    {
      "inputs": [],
      "name": "MIN_APPROVAL_SCORE",
      "outputs": [
        {
          "internalType": "uint256",
          "name": "",
          "type": "uint256"
        }
      ],
      "stateMutability": "view",
      "type": "function"
    },
    {
      "inputs": [],
      "name": "REQUIRED_APPROVALS",
      "outputs": [
        {
          "internalType": "uint256",
          "name": "",
          "type": "uint256"
        }
      ],
      "stateMutability": "view",
      "type": "function"
    },
    {
      "inputs": [
        {
          "internalType": "address",
          "name": "",
          "type": "address"
        }
      ],
      "name": "accountCourses",
      "outputs": [
        {
          "internalType": "uint256",
          "name": "courseCount",
          "type": "uint256"
        }
      ],
      "stateMutability": "view",
      "type": "function"
    },
    {
      "inputs": [
        {
          "internalType": "address",
          "name": "newAdmin",
          "type": "address"
        }
      ],
      "name": "addAdmin",
      "outputs": [],
      "stateMutability": "nonpayable",
      "type": "function"
    },
    {
      "inputs": [
        {
          "internalType": "uint256",
          "name": "",
          "type": "uint256"
        }
      ],
      "name": "admins",
      "outputs": [
        {
          "internalType": "address",
          "name": "",
          "type": "address"
        }
      ],
      "stateMutability": "view",
      "type": "function"
    },
    {
      "inputs": [
        {
          "internalType": "address",
          "name": "owner",
          "type": "address"
        },
        {
          "internalType": "address",
          "name": "spender",
          "type": "address"
        }
      ],
      "name": "allowance",
      "outputs": [
        {
          "internalType": "uint256",
          "name": "",
          "type": "uint256"
        }
      ],
      "stateMutability": "view",
      "type": "function"
    },
    {
      "inputs": [
        {
          "internalType": "address",
          "name": "",
          "type": "address"
        },
        {
          "internalType": "uint256",
          "name": "",
          "type": "uint256"
        }
      ],
      "name": "approvals",
      "outputs": [
        {
          "internalType": "bool",
          "name": "",
          "type": "bool"
        }
      ],
      "stateMutability": "view",
      "type": "function"
    },
    {
      "inputs": [
        {
          "internalType": "address",
          "name": "spender",
          "type": "address"
        },
        {
          "internalType": "uint256",
          "name": "value",
          "type": "uint256"
        }
      ],
      "name": "approve",
      "outputs": [
        {
          "internalType": "bool",
          "name": "",
          "type": "bool"
        }
      ],
      "stateMutability": "nonpayable",
      "type": "function"
    },
    {
      "inputs": [
        {
          "internalType": "uint256",
          "name": "_courseId",
          "type": "uint256"
        }
      ],
      "name": "approveCourse",
      "outputs": [],
      "stateMutability": "nonpayable",
      "type": "function"
    },
    {
      "inputs": [
        {
          "internalType": "address",
          "name": "account",
          "type": "address"
        }
      ],
      "name": "balanceOf",
      "outputs": [
        {
          "internalType": "uint256",
          "name": "",
          "type": "uint256"
        }
      ],
      "stateMutability": "view",
      "type": "function"
    },
    {
      "inputs": [
        {
          "internalType": "address",
          "name": "account",
          "type": "address"
        },
        {
          "internalType": "uint256",
          "name": "amount",
          "type": "uint256"
        }
      ],
      "name": "burn",
      "outputs": [],
      "stateMutability": "nonpayable",
      "type": "function"
    },
    {
      "inputs": [],
      "name": "courseCount",
      "outputs": [
        {
          "internalType": "uint256",
          "name": "",
          "type": "uint256"
        }
      ],
      "stateMutability": "view",
      "type": "function"
    },
    {
      "inputs": [
        {
          "internalType": "uint256",
          "name": "",
          "type": "uint256"
        }
      ],
      "name": "courseObject",
      "outputs": [
        {
          "internalType": "uint256",
          "name": "courseId",
          "type": "uint256"
        },
        {
          "internalType": "string",
          "name": "courseName",
          "type": "string"
        },
        {
          "internalType": "string",
          "name": "description",
          "type": "string"
        },
        {
          "internalType": "bool",
          "name": "approved",
          "type": "bool"
        },
        {
          "internalType": "uint256",
          "name": "approvalCount",
          "type": "uint256"
        },
        {
          "internalType": "address",
          "name": "creator",
          "type": "address"
        }
      ],
      "stateMutability": "view",
      "type": "function"
    },
    {
      "inputs": [
        {
          "internalType": "string",
          "name": "_courseName",
          "type": "string"
        },
        {
          "internalType": "string",
          "name": "_description",
          "type": "string"
        }
      ],
      "name": "createCourse",
      "outputs": [
        {
          "internalType": "bool",
          "name": "",
          "type": "bool"
        }
      ],
      "stateMutability": "nonpayable",
      "type": "function"
    },
    {
      "inputs": [],
      "name": "decimals",
      "outputs": [
        {
          "internalType": "uint8",
          "name": "",
          "type": "uint8"
        }
      ],
      "stateMutability": "view",
      "type": "function"
    },
    {
      "inputs": [],
      "name": "ecosystemPoolSupply",
      "outputs": [
        {
          "internalType": "uint256",
          "name": "",
          "type": "uint256"
        }
      ],
      "stateMutability": "view",
      "type": "function"
    },
    {
      "inputs": [
        {
          "internalType": "uint256",
          "name": "_courseId",
          "type": "uint256"
        }
      ],
      "name": "enroll",
      "outputs": [
        {
          "internalType": "bool",
          "name": "",
          "type": "bool"
        }
      ],
      "stateMutability": "nonpayable",
      "type": "function"
    },
    {
      "inputs": [],
      "name": "getCurrentEcosystemPoolSupply",
      "outputs": [
        {
          "internalType": "uint256",
          "name": "",
          "type": "uint256"
        }
      ],
      "stateMutability": "view",
      "type": "function"
    },
    {
      "inputs": [
        {
          "internalType": "address",
          "name": "",
          "type": "address"
        }
      ],
      "name": "isAdminMap",
      "outputs": [
        {
          "internalType": "bool",
          "name": "",
          "type": "bool"
        }
      ],
      "stateMutability": "view",
      "type": "function"
    },
    {
      "inputs": [
        {
          "internalType": "uint256",
          "name": "",
          "type": "uint256"
        }
      ],
      "name": "listOfCourses",
      "outputs": [
        {
          "internalType": "uint256",
          "name": "courseId",
          "type": "uint256"
        },
        {
          "internalType": "string",
          "name": "courseName",
          "type": "string"
        },
        {
          "internalType": "string",
          "name": "description",
          "type": "string"
        },
        {
          "internalType": "bool",
          "name": "approved",
          "type": "bool"
        },
        {
          "internalType": "uint256",
          "name": "approvalCount",
          "type": "uint256"
        },
        {
          "internalType": "address",
          "name": "creator",
          "type": "address"
        }
      ],
      "stateMutability": "view",
      "type": "function"
    },
    {
      "inputs": [
        {
          "internalType": "address",
          "name": "to",
          "type": "address"
        },
        {
          "internalType": "uint256",
          "name": "amount",
          "type": "uint256"
        }
      ],
      "name": "mintToken",
      "outputs": [
        {
          "internalType": "bool",
          "name": "",
          "type": "bool"
        }
      ],
      "stateMutability": "nonpayable",
      "type": "function"
    },
    {
      "inputs": [],
      "name": "name",
      "outputs": [
        {
          "internalType": "string",
          "name": "",
          "type": "string"
        }
      ],
      "stateMutability": "view",
      "type": "function"
    },
    {
      "inputs": [],
      "name": "nextCourseId",
      "outputs": [
        {
          "internalType": "uint256",
          "name": "",
          "type": "uint256"
        }
      ],
      "stateMutability": "view",
      "type": "function"
    },
    {
      "inputs": [],
      "name": "numberofEnrolledCourses",
      "outputs": [
        {
          "internalType": "uint256",
          "name": "",
          "type": "uint256"
        }
      ],
      "stateMutability": "view",
      "type": "function"
    },
    {
      "inputs": [],
      "name": "owner",
      "outputs": [
        {
          "internalType": "address",
          "name": "",
          "type": "address"
        }
      ],
      "stateMutability": "view",
      "type": "function"
    },
    {
      "inputs": [
        {
          "internalType": "address",
          "name": "admin",
          "type": "address"
        }
      ],
      "name": "removeAdmin",
      "outputs": [],
      "stateMutability": "nonpayable",
      "type": "function"
    },
    {
      "inputs": [],
      "name": "renounceOwnership",
      "outputs": [],
      "stateMutability": "nonpayable",
      "type": "function"
    },
    {
      "inputs": [
        {
          "internalType": "uint256",
          "name": "",
          "type": "uint256"
        },
        {
          "internalType": "address",
          "name": "",
          "type": "address"
        }
      ],
      "name": "reviews",
      "outputs": [
        {
          "internalType": "uint256",
          "name": "learnerAgency",
          "type": "uint256"
        },
        {
          "internalType": "uint256",
          "name": "criticalThinking",
          "type": "uint256"
        },
        {
          "internalType": "uint256",
          "name": "collaborativeLearning",
          "type": "uint256"
        },
        {
          "internalType": "uint256",
          "name": "reflectivePractice",
          "type": "uint256"
        },
        {
          "internalType": "uint256",
          "name": "adaptiveLearning",
          "type": "uint256"
        },
        {
          "internalType": "uint256",
          "name": "authenticLearning",
          "type": "uint256"
        },
        {
          "internalType": "uint256",
          "name": "technologyIntegration",
          "type": "uint256"
        },
        {
          "internalType": "uint256",
          "name": "learnerSupport",
          "type": "uint256"
        },
        {
          "internalType": "uint256",
          "name": "assessmentForLearning",
          "type": "uint256"
        },
        {
          "internalType": "uint256",
          "name": "engagementAndMotivation",
          "type": "uint256"
        },
        {
          "internalType": "bool",
          "name": "isSubmitted",
          "type": "bool"
        }
      ],
      "stateMutability": "view",
      "type": "function"
    },
    {
      "inputs": [
        {
          "internalType": "uint256",
          "name": "courseId",
          "type": "uint256"
        },
        {
          "internalType": "uint256",
          "name": "learnerAgency",
          "type": "uint256"
        },
        {
          "internalType": "uint256",
          "name": "criticalThinking",
          "type": "uint256"
        },
        {
          "internalType": "uint256",
          "name": "collaborativeLearning",
          "type": "uint256"
        },
        {
          "internalType": "uint256",
          "name": "reflectivePractice",
          "type": "uint256"
        },
        {
          "internalType": "uint256",
          "name": "adaptiveLearning",
          "type": "uint256"
        },
        {
          "internalType": "uint256",
          "name": "authenticLearning",
          "type": "uint256"
        },
        {
          "internalType": "uint256",
          "name": "technologyIntegration",
          "type": "uint256"
        },
        {
          "internalType": "uint256",
          "name": "learnerSupport",
          "type": "uint256"
        },
        {
          "internalType": "uint256",
          "name": "assessmentForLearning",
          "type": "uint256"
        },
        {
          "internalType": "uint256",
          "name": "engagementAndMotivation",
          "type": "uint256"
        }
      ],
      "name": "submitReview",
      "outputs": [],
      "stateMutability": "nonpayable",
      "type": "function"
    },
    {
      "inputs": [],
      "name": "symbol",
      "outputs": [
        {
          "internalType": "string",
          "name": "",
          "type": "string"
        }
      ],
      "stateMutability": "view",
      "type": "function"
    },
    {
      "inputs": [],
      "name": "totalSupply",
      "outputs": [
        {
          "internalType": "uint256",
          "name": "",
          "type": "uint256"
        }
      ],
      "stateMutability": "view",
      "type": "function"
    },
    {
      "inputs": [
        {
          "internalType": "address",
          "name": "to",
          "type": "address"
        },
        {
          "internalType": "uint256",
          "name": "value",
          "type": "uint256"
        }
      ],
      "name": "transfer",
      "outputs": [
        {
          "internalType": "bool",
          "name": "",
          "type": "bool"
        }
      ],
      "stateMutability": "nonpayable",
      "type": "function"
    },
    {
      "inputs": [
        {
          "internalType": "address",
          "name": "from",
          "type": "address"
        },
        {
          "internalType": "address",
          "name": "to",
          "type": "address"
        },
        {
          "internalType": "uint256",
          "name": "value",
          "type": "uint256"
        }
      ],
      "name": "transferFrom",
      "outputs": [
        {
          "internalType": "bool",
          "name": "",
          "type": "bool"
        }
      ],
      "stateMutability": "nonpayable",
      "type": "function"
    },
    {
      "inputs": [
        {
          "internalType": "address",
          "name": "newOwner",
          "type": "address"
        }
      ],
      "name": "transferOwnership",
      "outputs": [],
      "stateMutability": "nonpayable",
      "type": "function"
    },
    {
      "inputs": [
        {
          "internalType": "uint256",
          "name": "_courseId",
          "type": "uint256"
        }
      ],
      "name": "unEnroll",
      "outputs": [
        {
          "internalType": "bool",
          "name": "",
          "type": "bool"
        }
      ],
      "stateMutability": "nonpayable",
      "type": "function"
    }
  ],
  "bytecode": "0x608060405234801561001057600080fd5b50604051614b65380380614b6583398181016040528101906100329190610571565b336040518060400160405280600a81526020017f4142594120544f4b454e000000000000000000000000000000000000000000008152506040518060400160405280600681526020017f414259544b4e000000000000000000000000000000000000000000000000000081525081600390816100ae91906107db565b5080600490816100be91906107db565b505050600073ffffffffffffffffffffffffffffffffffffffff168173ffffffffffffffffffffffffffffffffffffffff16036101335760006040517f1e4fbdf700000000000000000000000000000000000000000000000000000000815260040161012a91906108bc565b60405180910390fd5b6101428161023960201b60201c565b50600281511015610188576040517f08c379a000000000000000000000000000000000000000000000000000000000815260040161017f90610934565b60405180910390fd5b80600a908051906020019061019e9291906102ff565b5060005b815181101561022a576001600f60008484815181106101c4576101c3610954565b5b602002602001015173ffffffffffffffffffffffffffffffffffffffff1673ffffffffffffffffffffffffffffffffffffffff16815260200190815260200160002060006101000a81548160ff02191690831515021790555080806001019150506101a2565b50600160088190555050610983565b6000600560009054906101000a900473ffffffffffffffffffffffffffffffffffffffff16905081600560006101000a81548173ffffffffffffffffffffffffffffffffffffffff021916908373ffffffffffffffffffffffffffffffffffffffff1602179055508173ffffffffffffffffffffffffffffffffffffffff168173ffffffffffffffffffffffffffffffffffffffff167f8be0079c531659141344cd1fd0a4f28419497f9722a3daafe3b4186f6b6457e060405160405180910390a35050565b828054828255906000526020600020908101928215610378579160200282015b828111156103775782518260006101000a81548173ffffffffffffffffffffffffffffffffffffffff021916908373ffffffffffffffffffffffffffffffffffffffff1602179055509160200191906001019061031f565b5b5090506103859190610389565b5090565b5b808211156103a257600081600090555060010161038a565b5090565b6000604051905090565b600080fd5b600080fd5b600080fd5b6000601f19601f8301169050919050565b7f4e487b7100000000000000000000000000000000000000000000000000000000600052604160045260246000fd5b610408826103bf565b810181811067ffffffffffffffff82111715610427576104266103d0565b5b80604052505050565b600061043a6103a6565b905061044682826103ff565b919050565b600067ffffffffffffffff821115610466576104656103d0565b5b602082029050602081019050919050565b600080fd5b600073ffffffffffffffffffffffffffffffffffffffff82169050919050565b60006104a78261047c565b9050919050565b6104b78161049c565b81146104c257600080fd5b50565b6000815190506104d4816104ae565b92915050565b60006104ed6104e88461044b565b610430565b905080838252602082019050602084028301858111156105105761050f610477565b5b835b81811015610539578061052588826104c5565b845260208401935050602081019050610512565b5050509392505050565b600082601f830112610558576105576103ba565b5b81516105688482602086016104da565b91505092915050565b600060208284031215610587576105866103b0565b5b600082015167ffffffffffffffff8111156105a5576105a46103b5565b5b6105b184828501610543565b91505092915050565b600081519050919050565b7f4e487b7100000000000000000000000000000000000000000000000000000000600052602260045260246000fd5b6000600282049050600182168061060c57607f821691505b60208210810361061f5761061e6105c5565b5b50919050565b60008190508160005260206000209050919050565b60006020601f8301049050919050565b600082821b905092915050565b6000600883026106877fffffffffffffffffffffffffffffffffffffffffffffffffffffffffffffffff8261064a565b610691868361064a565b95508019841693508086168417925050509392505050565b6000819050919050565b6000819050919050565b60006106d86106d36106ce846106a9565b6106b3565b6106a9565b9050919050565b6000819050919050565b6106f2836106bd565b6107066106fe826106df565b848454610657565b825550505050565b600090565b61071b61070e565b6107268184846106e9565b505050565b5b8181101561074a5761073f600082610713565b60018101905061072c565b5050565b601f82111561078f5761076081610625565b6107698461063a565b81016020851015610778578190505b61078c6107848561063a565b83018261072b565b50505b505050565b600082821c905092915050565b60006107b260001984600802610794565b1980831691505092915050565b60006107cb83836107a1565b9150826002028217905092915050565b6107e4826105ba565b67ffffffffffffffff8111156107fd576107fc6103d0565b5b61080782546105f4565b61081282828561074e565b600060209050601f8311600181146108455760008415610833578287015190505b61083d85826107bf565b8655506108a5565b601f19841661085386610625565b60005b8281101561087b57848901518255600182019150602085019450602081019050610856565b868310156108985784890151610894601f8916826107a1565b8355505b6001600288020188555050505b505050505050565b6108b68161049c565b82525050565b60006020820190506108d160008301846108ad565b92915050565b600082825260208201905092915050565b7f4174206c6561737420322061646d696e73206172652072657175697265640000600082015250565b600061091e601e836108d7565b9150610929826108e8565b602082019050919050565b6000602082019050818103600083015261094d81610911565b9050919050565b7f4e487b7100000000000000000000000000000000000000000000000000000000600052603260045260246000fd5b6141d3806109926000396000f3fe608060405234801561001057600080fd5b50600436106102485760003560e01c8063715018a61161013b578063a26a7953116100b8578063d93f2caa1161007c578063d93f2caa14610747578063dd62ed3e14610765578063f2fde38b14610795578063f57d585b146107b1578063ffabc673146107e157610248565b8063a26a795314610671578063a9059cbb146106a1578063ac957c63146106d1578063c12804fb146106ef578063c7954e4c1461072957610248565b80638da5cb5b116100ff5780638da5cb5b146105cb5780638e9a4c34146105e957806395d89b41146106195780639dc29fac14610637578063a14ecbdf1461065357610248565b8063715018a614610539578063752849981461054357806379c650681461055f5780637d83daf21461058f578063846f8152146105ad57610248565b8063313ce567116101c9578063660551591161018d578063660551591461047c57806368d35afb1461049a5780636fdb67f7146104b857806370480275146104ed57806370a082311461050957610248565b8063313ce567146103d657806332cb6b0c146103f457806334ed4bdb1461041257806358a3fa2514610442578063599c55331461045e57610248565b806320bd03161161021057806320bd03161461030557806323b872dd14610335578063274202f01461036557806327ff6223146103835780632990db7c146103a157610248565b806306fdde031461024d578063095ea7b31461026b57806314bfd6d01461029b5780631785f53c146102cb57806318160ddd146102e7575b600080fd5b610255610811565b6040516102629190612ed4565b60405180910390f35b61028560048036038101906102809190612f9e565b6108a3565b6040516102929190612ff9565b60405180910390f35b6102b560048036038101906102b09190613014565b6108c6565b6040516102c29190613050565b60405180910390f35b6102e560048036038101906102e0919061306b565b610905565b005b6102ef610b7b565b6040516102fc91906130a7565b60405180910390f35b61031f600480360381019061031a9190613014565b610b85565b60405161032c9190612ff9565b60405180910390f35b61034f600480360381019061034a91906130c2565b610ded565b60405161035c9190612ff9565b60405180910390f35b61036d610e1c565b60405161037a91906130a7565b60405180910390f35b61038b610e44565b60405161039891906130a7565b60405180910390f35b6103bb60048036038101906103b69190613014565b610e49565b6040516103cd96959493929190613115565b60405180910390f35b6103de610fc2565b6040516103eb91906131a0565b60405180910390f35b6103fc610fcb565b60405161040991906130a7565b60405180910390f35b61042c6004803603810190610427919061306b565b610fdb565b60405161043991906130a7565b60405180910390f35b61045c600480360381019061045791906131bb565b610ff9565b005b61046661137e565b60405161047391906130a7565b60405180910390f35b610484611383565b60405161049191906130a7565b60405180910390f35b6104a2611389565b6040516104af91906130a7565b60405180910390f35b6104d260048036038101906104cd9190613014565b61138f565b6040516104e496959493929190613115565b60405180910390f35b6105076004803603810190610502919061306b565b611518565b005b610523600480360381019061051e919061306b565b6116ef565b60405161053091906130a7565b60405180910390f35b610541611737565b005b61055d60048036038101906105589190613014565b61174b565b005b61057960048036038101906105749190612f9e565b6119c6565b6040516105869190612ff9565b60405180910390f35b610597611af6565b6040516105a491906130a7565b60405180910390f35b6105b5611afc565b6040516105c291906130a7565b60405180910390f35b6105d3611b01565b6040516105e09190613050565b60405180910390f35b61060360048036038101906105fe919061306b565b611b2b565b6040516106109190612ff9565b60405180910390f35b610621611b4b565b60405161062e9190612ed4565b60405180910390f35b610651600480360381019061064c9190612f9e565b611bdd565b005b61065b611c9d565b60405161066891906130a7565b60405180910390f35b61068b600480360381019061068691906133e4565b611ca3565b6040516106989190612ff9565b60405180910390f35b6106bb60048036038101906106b69190612f9e565b61211d565b6040516106c89190612ff9565b60405180910390f35b6106d9612140565b6040516106e691906130a7565b60405180910390f35b6107096004803603810190610704919061345c565b612145565b6040516107209b9a9998979695949392919061349c565b60405180910390f35b6107316121b9565b60405161073e91906130a7565b60405180910390f35b61074f6121c3565b60405161075c91906130a7565b60405180910390f35b61077f600480360381019061077a9190613547565b6121cf565b60405161078c91906130a7565b60405180910390f35b6107af60048036038101906107aa919061306b565b612256565b005b6107cb60048036038101906107c69190613014565b6122dc565b6040516107d89190612ff9565b60405180910390f35b6107fb60048036038101906107f69190612f9e565b6124ea565b6040516108089190612ff9565b60405180910390f35b606060038054610820906135b6565b80601f016020809104026020016040519081016040528092919081815260200182805461084c906135b6565b80156108995780601f1061086e57610100808354040283529160200191610899565b820191906000526020600020905b81548152906001019060200180831161087c57829003601f168201915b5050505050905090565b6000806108ae612519565b90506108bb818585612521565b600191505092915050565b600a81815481106108d657600080fd5b906000526020600020016000915054906101000a900473ffffffffffffffffffffffffffffffffffffffff1681565b61090d612533565b600f60008273ffffffffffffffffffffffffffffffffffffffff1673ffffffffffffffffffffffffffffffffffffffff16815260200190815260200160002060009054906101000a900460ff16610999576040517f08c379a000000000000000000000000000000000000000000000000000000000815260040161099090613633565b60405180910390fd5b60005b600a80549050811015610b77578173ffffffffffffffffffffffffffffffffffffffff16600a82815481106109d4576109d3613653565b5b9060005260206000200160009054906101000a900473ffffffffffffffffffffffffffffffffffffffff1673ffffffffffffffffffffffffffffffffffffffff1603610b6a57600a6001600a80549050610a2e91906136b1565b81548110610a3f57610a3e613653565b5b9060005260206000200160009054906101000a900473ffffffffffffffffffffffffffffffffffffffff16600a8281548110610a7e57610a7d613653565b5b9060005260206000200160006101000a81548173ffffffffffffffffffffffffffffffffffffffff021916908373ffffffffffffffffffffffffffffffffffffffff160217905550600a805480610ad857610ad76136e5565b5b6001900381819060005260206000200160006101000a81549073ffffffffffffffffffffffffffffffffffffffff021916905590556000600f60008473ffffffffffffffffffffffffffffffffffffffff1673ffffffffffffffffffffffffffffffffffffffff16815260200190815260200160002060006101000a81548160ff021916908315150217905550610b77565b808060010191505061099c565b5050565b6000600254905090565b600080600b6000848152602001908152602001600020905060008060005b8360060180549050811015610c3e573373ffffffffffffffffffffffffffffffffffffffff16846006018281548110610bdf57610bde613653565b5b9060005260206000200160009054906101000a900473ffffffffffffffffffffffffffffffffffffffff1673ffffffffffffffffffffffffffffffffffffffff1603610c315760019250809150610c3e565b8080600101915050610ba3565b5081610c7f576040517f08c379a0000000000000000000000000000000000000000000000000000000008152600401610c7690613786565b60405180910390fd5b8260060160018460060180549050610c9791906136b1565b81548110610ca857610ca7613653565b5b9060005260206000200160009054906101000a900473ffffffffffffffffffffffffffffffffffffffff16836006018281548110610ce957610ce8613653565b5b9060005260206000200160006101000a81548173ffffffffffffffffffffffffffffffffffffffff021916908373ffffffffffffffffffffffffffffffffffffffff16021790555082600601805480610d4557610d446136e5565b5b6001900381819060005260206000200160006101000a81549073ffffffffffffffffffffffffffffffffffffffff0219169055905560096000815480929190610d8d906137a6565b9190505550610d9d336002611bdd565b3373ffffffffffffffffffffffffffffffffffffffff16857f9b244c565b926d7f4e915b69f3a5c6afc2231322d0d44e821076ad8879d0d68360405160405180910390a360019350505050919050565b600080610df8612519565b9050610e058582856125ba565b610e1085858561264e565b60019150509392505050565b6064600f6b204fce5e3e25026110000000610e3791906137cf565b610e419190613840565b81565b606481565b600b602052806000526040600020600091509050806000015490806001018054610e72906135b6565b80601f0160208091040260200160405190810160405280929190818152602001828054610e9e906135b6565b8015610eeb5780601f10610ec057610100808354040283529160200191610eeb565b820191906000526020600020905b815481529060010190602001808311610ece57829003601f168201915b505050505090806002018054610f00906135b6565b80601f0160208091040260200160405190810160405280929190818152602001828054610f2c906135b6565b8015610f795780601f10610f4e57610100808354040283529160200191610f79565b820191906000526020600020905b815481529060010190602001808311610f5c57829003601f168201915b5050505050908060030160009054906101000a900460ff16908060040154908060050160009054906101000a900473ffffffffffffffffffffffffffffffffffffffff16905086565b60006012905090565b6b204fce5e3e2502611000000081565b600d6020528060005260406000206000915090508060000154905081565b600f60003373ffffffffffffffffffffffffffffffffffffffff1673ffffffffffffffffffffffffffffffffffffffff16815260200190815260200160002060009054906101000a900460ff16611085576040517f08c379a000000000000000000000000000000000000000000000000000000000815260040161107c906138bd565b60405180910390fd5b600c60008c815260200190815260200160002060003373ffffffffffffffffffffffffffffffffffffffff1673ffffffffffffffffffffffffffffffffffffffff168152602001908152602001600020600a0160009054906101000a900460ff1615611126576040517f08c379a000000000000000000000000000000000000000000000000000000000815260040161111d9061394f565b60405180910390fd5b600a8a111580156111385750600a8911155b80156111455750600a8811155b80156111525750600a8711155b801561115f5750600a8611155b801561116c5750600a8511155b80156111795750600a8411155b80156111865750600a8311155b80156111935750600a8211155b80156111a05750600a8111155b6111df576040517f08c379a00000000000000000000000000000000000000000000000000000000081526004016111d6906139bb565b60405180910390fd5b6040518061016001604052808b81526020018a815260200189815260200188815260200187815260200186815260200185815260200184815260200183815260200182815260200160011515815250600c60008d815260200190815260200160002060003373ffffffffffffffffffffffffffffffffffffffff1673ffffffffffffffffffffffffffffffffffffffff168152602001908152602001600020600082015181600001556020820151816001015560408201518160020155606082015181600301556080820151816004015560a0820151816005015560c0820151816006015560e082015181600701556101008201518160080155610120820151816009015561014082015181600a0160006101000a81548160ff0219169083151502179055509050506050611362600c60008e815260200190815260200160002060003373ffffffffffffffffffffffffffffffffffffffff1673ffffffffffffffffffffffffffffffffffffffff168152602001908152602001600020612742565b10611371576113708b61174b565b5b5050505050505050505050565b600181565b60075481565b60095481565b6010818154811061139f57600080fd5b90600052602060002090600702016000915090508060000154908060010180546113c8906135b6565b80601f01602080910402602001604051908101604052809291908181526020018280546113f4906135b6565b80156114415780601f1061141657610100808354040283529160200191611441565b820191906000526020600020905b81548152906001019060200180831161142457829003601f168201915b505050505090806002018054611456906135b6565b80601f0160208091040260200160405190810160405280929190818152602001828054611482906135b6565b80156114cf5780601f106114a4576101008083540402835291602001916114cf565b820191906000526020600020905b8154815290600101906020018083116114b257829003601f168201915b5050505050908060030160009054906101000a900460ff16908060040154908060050160009054906101000a900473ffffffffffffffffffffffffffffffffffffffff16905086565b600f60003373ffffffffffffffffffffffffffffffffffffffff1673ffffffffffffffffffffffffffffffffffffffff16815260200190815260200160002060009054906101000a900460ff166115a4576040517f08c379a000000000000000000000000000000000000000000000000000000000815260040161159b906138bd565b60405180910390fd5b600f60008273ffffffffffffffffffffffffffffffffffffffff1673ffffffffffffffffffffffffffffffffffffffff16815260200190815260200160002060009054906101000a900460ff1615611631576040517f08c379a000000000000000000000000000000000000000000000000000000000815260040161162890613a27565b60405180910390fd5b600a819080600181540180825580915050600190039060005260206000200160009091909190916101000a81548173ffffffffffffffffffffffffffffffffffffffff021916908373ffffffffffffffffffffffffffffffffffffffff1602179055506001600f60008373ffffffffffffffffffffffffffffffffffffffff1673ffffffffffffffffffffffffffffffffffffffff16815260200190815260200160002060006101000a81548160ff02191690831515021790555050565b60008060008373ffffffffffffffffffffffffffffffffffffffff1673ffffffffffffffffffffffffffffffffffffffff168152602001908152602001600020549050919050565b61173f612533565b61174960006127d7565b565b600f60003373ffffffffffffffffffffffffffffffffffffffff1673ffffffffffffffffffffffffffffffffffffffff16815260200190815260200160002060009054906101000a900460ff166117d7576040517f08c379a00000000000000000000000000000000000000000000000000000000081526004016117ce906138bd565b60405180910390fd5b6000600b600083815260200190815260200160002090508060030160009054906101000a900460ff1615611840576040517f08c379a000000000000000000000000000000000000000000000000000000000815260040161183790613a93565b60405180910390fd5b600e60003373ffffffffffffffffffffffffffffffffffffffff1673ffffffffffffffffffffffffffffffffffffffff168152602001908152602001600020600083815260200190815260200160002060009054906101000a900460ff16156118de576040517f08c379a00000000000000000000000000000000000000000000000000000000081526004016118d590613b25565b60405180910390fd5b6001600e60003373ffffffffffffffffffffffffffffffffffffffff1673ffffffffffffffffffffffffffffffffffffffff168152602001908152602001600020600084815260200190815260200160002060006101000a81548160ff02191690831515021790555080600401600081548092919061195c90613b45565b919050555060018160040154106119c25760018160030160006101000a81548160ff0219169083151502179055506119c08160050160009054906101000a900473ffffffffffffffffffffffffffffffffffffffff16674563918244f400006119c6565b505b5050565b60006064600f6b204fce5e3e250261100000006119e391906137cf565b6119ed9190613840565b6119f56121b9565b83611a009190613b8d565b1115611a41576040517f08c379a0000000000000000000000000000000000000000000000000000000008152600401611a3890613c0d565b60405180910390fd5b611a4b838361289d565b8160066000828254611a5d9190613b8d565b92505081905550818373ffffffffffffffffffffffffffffffffffffffff167fcda531bfd68624f13205c0a23cd4d5a7f09792cbb399603114f2b04aaa1bf5cf60405160405180910390a3818373ffffffffffffffffffffffffffffffffffffffff167fad6ef58d5c294f81258965738e7ae511124139834a8d0b8f8f7327086c82052a60405160405180910390a36001905092915050565b60085481565b600281565b6000600560009054906101000a900473ffffffffffffffffffffffffffffffffffffffff16905090565b600f6020528060005260406000206000915054906101000a900460ff1681565b606060048054611b5a906135b6565b80601f0160208091040260200160405190810160405280929190818152602001828054611b86906135b6565b8015611bd35780601f10611ba857610100808354040283529160200191611bd3565b820191906000526020600020905b815481529060010190602001808311611bb657829003601f168201915b5050505050905090565b80611be7836116ef565b1015611c28576040517f08c379a0000000000000000000000000000000000000000000000000000000008152600401611c1f90613c79565b60405180910390fd5b611c32828261291f565b8060066000828254611c4491906136b1565b925050819055508173ffffffffffffffffffffffffffffffffffffffff167f5b5d8478b570a79ab6b3bf13ff029fba19c02ab0d54d692d4ef0d9052d5cc85082604051611c9191906130a7565b60405180910390a25050565b60065481565b60008060085411611ce9576040517f08c379a0000000000000000000000000000000000000000000000000000000008152600401611ce090613d0b565b60405180910390fd5b600073ffffffffffffffffffffffffffffffffffffffff16600b6000600854815260200190815260200160002060050160009054906101000a900473ffffffffffffffffffffffffffffffffffffffff1673ffffffffffffffffffffffffffffffffffffffff1614611d90576040517f08c379a0000000000000000000000000000000000000000000000000000000008152600401611d8790613d77565b60405180910390fd5b60006040518060e001604052806008548152602001858152602001848152602001600015158152602001600081526020013373ffffffffffffffffffffffffffffffffffffffff168152602001600067ffffffffffffffff811115611df857611df76132b9565b5b604051908082528060200260200182016040528015611e265781602001602082028036833780820191505090505b50815250905080600b60006008548152602001908152602001600020600082015181600001556020820151816001019081611e619190613f43565b506040820151816002019081611e779190613f43565b5060608201518160030160006101000a81548160ff0219169083151502179055506080820151816004015560a08201518160050160006101000a81548173ffffffffffffffffffffffffffffffffffffffff021916908373ffffffffffffffffffffffffffffffffffffffff16021790555060c0820151816006019080519060200190611f05929190612d9d565b509050506010819080600181540180825580915050600190039060005260206000209060070201600090919091909150600082015181600001556020820151816001019081611f549190613f43565b506040820151816002019081611f6a9190613f43565b5060608201518160030160006101000a81548160ff0219169083151502179055506080820151816004015560a08201518160050160006101000a81548173ffffffffffffffffffffffffffffffffffffffff021916908373ffffffffffffffffffffffffffffffffffffffff16021790555060c0820151816006019080519060200190611ff8929190612d9d565b5050506007600081548092919061200e90613b45565b91905055506001600d60003373ffffffffffffffffffffffffffffffffffffffff1673ffffffffffffffffffffffffffffffffffffffff16815260200190815260200160002060000160008282546120669190613b8d565b925050819055506008600081548092919061208090613b45565b9190505550836040516120939190614051565b604051809103902060016008546120aa91906136b1565b7f9c93a42b217373d37e6c66ace0a67fe1fa1f78c93164b62417de69c48c0f67e2600b600060016008546120de91906136b1565b815260200190815260200160002060030160009054906101000a900460ff1660405161210a9190612ff9565b60405180910390a3600191505092915050565b600080612128612519565b905061213581858561264e565b600191505092915050565b605081565b600c6020528160005260406000206020528060005260406000206000915091505080600001549080600101549080600201549080600301549080600401549080600501549080600601549080600701549080600801549080600901549080600a0160009054906101000a900460ff1690508b565b6000600654905090565b674563918244f4000081565b6000600160008473ffffffffffffffffffffffffffffffffffffffff1673ffffffffffffffffffffffffffffffffffffffff16815260200190815260200160002060008373ffffffffffffffffffffffffffffffffffffffff1673ffffffffffffffffffffffffffffffffffffffff16815260200190815260200160002054905092915050565b61225e612533565b600073ffffffffffffffffffffffffffffffffffffffff168173ffffffffffffffffffffffffffffffffffffffff16036122d05760006040517f1e4fbdf70000000000000000000000000000000000000000000000000000000081526004016122c79190613050565b60405180910390fd5b6122d9816127d7565b50565b600080600b600084815260200190815260200160002090508060030160009054906101000a900460ff16612345576040517f08c379a000000000000000000000000000000000000000000000000000000000815260040161233c906140b4565b60405180910390fd5b60005b8160060180549050811015612412573373ffffffffffffffffffffffffffffffffffffffff1682600601828154811061238457612383613653565b5b9060005260206000200160009054906101000a900473ffffffffffffffffffffffffffffffffffffffff1673ffffffffffffffffffffffffffffffffffffffff1603612405576040517f08c379a00000000000000000000000000000000000000000000000000000000081526004016123fc90614146565b60405180910390fd5b8080600101915050612348565b5080600601339080600181540180825580915050600190039060005260206000200160009091909190916101000a81548173ffffffffffffffffffffffffffffffffffffffff021916908373ffffffffffffffffffffffffffffffffffffffff1602179055506009600081548092919061248b90613b45565b919050555061249b3360026119c6565b503373ffffffffffffffffffffffffffffffffffffffff16837f4bf249f6b0ca5630ea4816c04b928b864a2065cb51658fd6223d83b727fd326b60405160405180910390a36001915050919050565b600e6020528160005260406000206020528060005260406000206000915091509054906101000a900460ff1681565b600033905090565b61252e83838360016129a1565b505050565b61253b612519565b73ffffffffffffffffffffffffffffffffffffffff16612559611b01565b73ffffffffffffffffffffffffffffffffffffffff16146125b85761257c612519565b6040517f118cdaa70000000000000000000000000000000000000000000000000000000081526004016125af9190613050565b60405180910390fd5b565b60006125c684846121cf565b90507fffffffffffffffffffffffffffffffffffffffffffffffffffffffffffffffff81146126485781811015612638578281836040517ffb8f41b200000000000000000000000000000000000000000000000000000000815260040161262f93929190614166565b60405180910390fd5b612647848484840360006129a1565b5b50505050565b600073ffffffffffffffffffffffffffffffffffffffff168373ffffffffffffffffffffffffffffffffffffffff16036126c05760006040517f96c6fd1e0000000000000000000000000000000000000000000000000000000081526004016126b79190613050565b60405180910390fd5b600073ffffffffffffffffffffffffffffffffffffffff168273ffffffffffffffffffffffffffffffffffffffff16036127325760006040517fec442f050000000000000000000000000000000000000000000000000000000081526004016127299190613050565b60405180910390fd5b61273d838383612b78565b505050565b60008160090154826008015483600701548460060154856005015486600401548760030154886002015489600101548a600001546127809190613b8d565b61278a9190613b8d565b6127949190613b8d565b61279e9190613b8d565b6127a89190613b8d565b6127b29190613b8d565b6127bc9190613b8d565b6127c69190613b8d565b6127d09190613b8d565b9050919050565b6000600560009054906101000a900473ffffffffffffffffffffffffffffffffffffffff16905081600560006101000a81548173ffffffffffffffffffffffffffffffffffffffff021916908373ffffffffffffffffffffffffffffffffffffffff1602179055508173ffffffffffffffffffffffffffffffffffffffff168173ffffffffffffffffffffffffffffffffffffffff167f8be0079c531659141344cd1fd0a4f28419497f9722a3daafe3b4186f6b6457e060405160405180910390a35050565b600073ffffffffffffffffffffffffffffffffffffffff168273ffffffffffffffffffffffffffffffffffffffff160361290f5760006040517fec442f050000000000000000000000000000000000000000000000000000000081526004016129069190613050565b60405180910390fd5b61291b60008383612b78565b5050565b600073ffffffffffffffffffffffffffffffffffffffff168273ffffffffffffffffffffffffffffffffffffffff16036129915760006040517f96c6fd1e0000000000000000000000000000000000000000000000000000000081526004016129889190613050565b60405180910390fd5b61299d82600083612b78565b5050565b600073ffffffffffffffffffffffffffffffffffffffff168473ffffffffffffffffffffffffffffffffffffffff1603612a135760006040517fe602df05000000000000000000000000000000000000000000000000000000008152600401612a0a9190613050565b60405180910390fd5b600073ffffffffffffffffffffffffffffffffffffffff168373ffffffffffffffffffffffffffffffffffffffff1603612a855760006040517f94280d62000000000000000000000000000000000000000000000000000000008152600401612a7c9190613050565b60405180910390fd5b81600160008673ffffffffffffffffffffffffffffffffffffffff1673ffffffffffffffffffffffffffffffffffffffff16815260200190815260200160002060008573ffffffffffffffffffffffffffffffffffffffff1673ffffffffffffffffffffffffffffffffffffffff168152602001908152602001600020819055508015612b72578273ffffffffffffffffffffffffffffffffffffffff168473ffffffffffffffffffffffffffffffffffffffff167f8c5be1e5ebec7d5bd14f71427d1e84f3dd0314c0f7b2291e5b200ac8c7c3b92584604051612b6991906130a7565b60405180910390a35b50505050565b600073ffffffffffffffffffffffffffffffffffffffff168373ffffffffffffffffffffffffffffffffffffffff1603612bca578060026000828254612bbe9190613b8d565b92505081905550612c9d565b60008060008573ffffffffffffffffffffffffffffffffffffffff1673ffffffffffffffffffffffffffffffffffffffff16815260200190815260200160002054905081811015612c56578381836040517fe450d38c000000000000000000000000000000000000000000000000000000008152600401612c4d93929190614166565b60405180910390fd5b8181036000808673ffffffffffffffffffffffffffffffffffffffff1673ffffffffffffffffffffffffffffffffffffffff16815260200190815260200160002081905550505b600073ffffffffffffffffffffffffffffffffffffffff168273ffffffffffffffffffffffffffffffffffffffff1603612ce65780600260008282540392505081905550612d33565b806000808473ffffffffffffffffffffffffffffffffffffffff1673ffffffffffffffffffffffffffffffffffffffff168152602001908152602001600020600082825401925050819055505b8173ffffffffffffffffffffffffffffffffffffffff168373ffffffffffffffffffffffffffffffffffffffff167fddf252ad1be2c89b69c2b068fc378daa952ba7f163c4a11628f55a4df523b3ef83604051612d9091906130a7565b60405180910390a3505050565b828054828255906000526020600020908101928215612e16579160200282015b82811115612e155782518260006101000a81548173ffffffffffffffffffffffffffffffffffffffff021916908373ffffffffffffffffffffffffffffffffffffffff16021790555091602001919060010190612dbd565b5b509050612e239190612e27565b5090565b5b80821115612e40576000816000905550600101612e28565b5090565b600081519050919050565b600082825260208201905092915050565b60005b83811015612e7e578082015181840152602081019050612e63565b60008484015250505050565b6000601f19601f8301169050919050565b6000612ea682612e44565b612eb08185612e4f565b9350612ec0818560208601612e60565b612ec981612e8a565b840191505092915050565b60006020820190508181036000830152612eee8184612e9b565b905092915050565b6000604051905090565b600080fd5b600080fd5b600073ffffffffffffffffffffffffffffffffffffffff82169050919050565b6000612f3582612f0a565b9050919050565b612f4581612f2a565b8114612f5057600080fd5b50565b600081359050612f6281612f3c565b92915050565b6000819050919050565b612f7b81612f68565b8114612f8657600080fd5b50565b600081359050612f9881612f72565b92915050565b60008060408385031215612fb557612fb4612f00565b5b6000612fc385828601612f53565b9250506020612fd485828601612f89565b9150509250929050565b60008115159050919050565b612ff381612fde565b82525050565b600060208201905061300e6000830184612fea565b92915050565b60006020828403121561302a57613029612f00565b5b600061303884828501612f89565b91505092915050565b61304a81612f2a565b82525050565b60006020820190506130656000830184613041565b92915050565b60006020828403121561308157613080612f00565b5b600061308f84828501612f53565b91505092915050565b6130a181612f68565b82525050565b60006020820190506130bc6000830184613098565b92915050565b6000806000606084860312156130db576130da612f00565b5b60006130e986828701612f53565b93505060206130fa86828701612f53565b925050604061310b86828701612f89565b9150509250925092565b600060c08201905061312a6000830189613098565b818103602083015261313c8188612e9b565b905081810360408301526131508187612e9b565b905061315f6060830186612fea565b61316c6080830185613098565b61317960a0830184613041565b979650505050505050565b600060ff82169050919050565b61319a81613184565b82525050565b60006020820190506131b56000830184613191565b92915050565b60008060008060008060008060008060006101608c8e0312156131e1576131e0612f00565b5b60006131ef8e828f01612f89565b9b505060206132008e828f01612f89565b9a505060406132118e828f01612f89565b99505060606132228e828f01612f89565b98505060806132338e828f01612f89565b97505060a06132448e828f01612f89565b96505060c06132558e828f01612f89565b95505060e06132668e828f01612f89565b9450506101006132788e828f01612f89565b93505061012061328a8e828f01612f89565b92505061014061329c8e828f01612f89565b9150509295989b509295989b9093969950565b600080fd5b600080fd5b7f4e487b7100000000000000000000000000000000000000000000000000000000600052604160045260246000fd5b6132f182612e8a565b810181811067ffffffffffffffff821117156133105761330f6132b9565b5b80604052505050565b6000613323612ef6565b905061332f82826132e8565b919050565b600067ffffffffffffffff82111561334f5761334e6132b9565b5b61335882612e8a565b9050602081019050919050565b82818337600083830152505050565b600061338761338284613334565b613319565b9050828152602081018484840111156133a3576133a26132b4565b5b6133ae848285613365565b509392505050565b600082601f8301126133cb576133ca6132af565b5b81356133db848260208601613374565b91505092915050565b600080604083850312156133fb576133fa612f00565b5b600083013567ffffffffffffffff81111561341957613418612f05565b5b613425858286016133b6565b925050602083013567ffffffffffffffff81111561344657613445612f05565b5b613452858286016133b6565b9150509250929050565b6000806040838503121561347357613472612f00565b5b600061348185828601612f89565b925050602061349285828601612f53565b9150509250929050565b6000610160820190506134b2600083018e613098565b6134bf602083018d613098565b6134cc604083018c613098565b6134d9606083018b613098565b6134e6608083018a613098565b6134f360a0830189613098565b61350060c0830188613098565b61350d60e0830187613098565b61351b610100830186613098565b613529610120830185613098565b613537610140830184612fea565b9c9b505050505050505050505050565b6000806040838503121561355e5761355d612f00565b5b600061356c85828601612f53565b925050602061357d85828601612f53565b9150509250929050565b7f4e487b7100000000000000000000000000000000000000000000000000000000600052602260045260246000fd5b600060028204905060018216806135ce57607f821691505b6020821081036135e1576135e0613587565b5b50919050565b7f41646472657373206973206e6f7420616e2061646d696e000000000000000000600082015250565b600061361d601783612e4f565b9150613628826135e7565b602082019050919050565b6000602082019050818103600083015261364c81613610565b9050919050565b7f4e487b7100000000000000000000000000000000000000000000000000000000600052603260045260246000fd5b7f4e487b7100000000000000000000000000000000000000000000000000000000600052601160045260246000fd5b60006136bc82612f68565b91506136c783612f68565b92508282039050818111156136df576136de613682565b5b92915050565b7f4e487b7100000000000000000000000000000000000000000000000000000000600052603160045260246000fd5b7f596f7520617265206e6f7420656e726f6c6c656420696e207468697320636f7560008201527f7273652100000000000000000000000000000000000000000000000000000000602082015250565b6000613770602483612e4f565b915061377b82613714565b604082019050919050565b6000602082019050818103600083015261379f81613763565b9050919050565b60006137b182612f68565b9150600082036137c4576137c3613682565b5b600182039050919050565b60006137da82612f68565b91506137e583612f68565b92508282026137f381612f68565b9150828204841483151761380a57613809613682565b5b5092915050565b7f4e487b7100000000000000000000000000000000000000000000000000000000600052601260045260246000fd5b600061384b82612f68565b915061385683612f68565b92508261386657613865613811565b5b828204905092915050565b7f43616c6c6572206973206e6f7420616e2061646d696e00000000000000000000600082015250565b60006138a7601683612e4f565b91506138b282613871565b602082019050919050565b600060208201905081810360008301526138d68161389a565b9050919050565b7f52657669657720616c7265616479207375626d6974746564206279207468697360008201527f2072657669657765722e00000000000000000000000000000000000000000000602082015250565b6000613939602a83612e4f565b9150613944826138dd565b604082019050919050565b600060208201905081810360008301526139688161392c565b9050919050565b7f53636f726573206d757374206265206265747765656e203120616e642031302e600082015250565b60006139a5602083612e4f565b91506139b08261396f565b602082019050919050565b600060208201905081810360008301526139d481613998565b9050919050565b7f4164647265737320697320616c726561647920616e2061646d696e0000000000600082015250565b6000613a11601b83612e4f565b9150613a1c826139db565b602082019050919050565b60006020820190508181036000830152613a4081613a04565b9050919050565b7f436f7572736520616c726561647920617070726f766564000000000000000000600082015250565b6000613a7d601783612e4f565b9150613a8882613a47565b602082019050919050565b60006020820190508181036000830152613aac81613a70565b9050919050565b7f596f75206861766520616c726561647920617070726f7665642074686973206360008201527f6f75727365000000000000000000000000000000000000000000000000000000602082015250565b6000613b0f602583612e4f565b9150613b1a82613ab3565b604082019050919050565b60006020820190508181036000830152613b3e81613b02565b9050919050565b6000613b5082612f68565b91507fffffffffffffffffffffffffffffffffffffffffffffffffffffffffffffffff8203613b8257613b81613682565b5b600182019050919050565b6000613b9882612f68565b9150613ba383612f68565b9250828201905080821115613bbb57613bba613682565b5b92915050565b7f4c696d6974204578636565646564210000000000000000000000000000000000600082015250565b6000613bf7600f83612e4f565b9150613c0282613bc1565b602082019050919050565b60006020820190508181036000830152613c2681613bea565b9050919050565b7f496e73756666696369656e742062616c616e6365000000000000000000000000600082015250565b6000613c63601483612e4f565b9150613c6e82613c2d565b602082019050919050565b60006020820190508181036000830152613c9281613c56565b9050919050565b7f416c6c20636f75727365204944732068617665206265656e2061737369676e6560008201527f6400000000000000000000000000000000000000000000000000000000000000602082015250565b6000613cf5602183612e4f565b9150613d0082613c99565b604082019050919050565b60006020820190508181036000830152613d2481613ce8565b9050919050565b7f436f7572736520494420616c7265616479206578697374730000000000000000600082015250565b6000613d61601883612e4f565b9150613d6c82613d2b565b602082019050919050565b60006020820190508181036000830152613d9081613d54565b9050919050565b60008190508160005260206000209050919050565b60006020601f8301049050919050565b600082821b905092915050565b600060088302613df97fffffffffffffffffffffffffffffffffffffffffffffffffffffffffffffffff82613dbc565b613e038683613dbc565b95508019841693508086168417925050509392505050565b6000819050919050565b6000613e40613e3b613e3684612f68565b613e1b565b612f68565b9050919050565b6000819050919050565b613e5a83613e25565b613e6e613e6682613e47565b848454613dc9565b825550505050565b600090565b613e83613e76565b613e8e818484613e51565b505050565b5b81811015613eb257613ea7600082613e7b565b600181019050613e94565b5050565b601f821115613ef757613ec881613d97565b613ed184613dac565b81016020851015613ee0578190505b613ef4613eec85613dac565b830182613e93565b50505b505050565b600082821c905092915050565b6000613f1a60001984600802613efc565b1980831691505092915050565b6000613f338383613f09565b9150826002028217905092915050565b613f4c82612e44565b67ffffffffffffffff811115613f6557613f646132b9565b5b613f6f82546135b6565b613f7a828285613eb6565b600060209050601f831160018114613fad5760008415613f9b578287015190505b613fa58582613f27565b86555061400d565b601f198416613fbb86613d97565b60005b82811015613fe357848901518255600182019150602085019450602081019050613fbe565b868310156140005784890151613ffc601f891682613f09565b8355505b6001600288020188555050505b505050505050565b600081905092915050565b600061402b82612e44565b6140358185614015565b9350614045818560208601612e60565b80840191505092915050565b600061405d8284614020565b915081905092915050565b7f436f75727365206e6f742079657420617070726f766564210000000000000000600082015250565b600061409e601883612e4f565b91506140a982614068565b602082019050919050565b600060208201905081810360008301526140cd81614091565b9050919050565b7f596f752061726520616c726561647920656e726f6c6c656420696e207468697360008201527f20636f7572736521000000000000000000000000000000000000000000000000602082015250565b6000614130602883612e4f565b915061413b826140d4565b604082019050919050565b6000602082019050818103600083015261415f81614123565b9050919050565b600060608201905061417b6000830186613041565b6141886020830185613098565b6141956040830184613098565b94935050505056fea2646970667358221220e5c1f5ef6daaff3e06fdc44905766d03c3c3fde6a1bf01c06d117dd8024e3fa564736f6c634300081b0033",
  "linkReferences": {},
  "deployedLinkReferences": {}
}