{
  "_format": "hh-sol-artifact-1",
  "contractName": "Nemezis",
  "sourceName": "contracts/Profile.sol",
  "abi": [
    {
      "anonymous": false,
      "inputs": [
        {
          "indexed": true,
          "internalType": "uint256",
          "name": "profileId",
          "type": "uint256"
        },
        {
          "indexed": true,
          "internalType": "string",
          "name": "email",
          "type": "string"
        },
        {
          "indexed": false,
          "internalType": "address",
          "name": "account",
          "type": "address"
        }
      ],
      "name": "ProfileCreated",
      "type": "event"
    },
    {
      "anonymous": false,
      "inputs": [
        {
          "indexed": true,
          "internalType": "uint256",
          "name": "profileId",
          "type": "uint256"
        }
      ],
      "name": "ProfileDeactivated",
      "type": "event"
    },
    {
      "anonymous": false,
      "inputs": [
        {
          "indexed": true,
          "internalType": "uint256",
          "name": "profileId",
          "type": "uint256"
        }
      ],
      "name": "ProfileReactivated",
      "type": "event"
    },
    {
      "anonymous": false,
      "inputs": [
        {
          "indexed": true,
          "internalType": "uint256",
          "name": "profileId",
          "type": "uint256"
        }
      ],
      "name": "ProfileUpdated",
      "type": "event"
    },
    {
      "inputs": [
        {
          "internalType": "string",
          "name": "_fname",
          "type": "string"
        },
        {
          "internalType": "string",
          "name": "_lname",
          "type": "string"
        },
        {
          "internalType": "string",
          "name": "_email",
          "type": "string"
        }
      ],
      "name": "createProfile",
      "outputs": [
        {
          "internalType": "uint256",
          "name": "",
          "type": "uint256"
        }
      ],
      "stateMutability": "nonpayable",
      "type": "function"
    },
    {
      "inputs": [
        {
          "internalType": "uint256",
          "name": "_profileId",
          "type": "uint256"
        }
      ],
      "name": "deactivateProfile",
      "outputs": [],
      "stateMutability": "nonpayable",
      "type": "function"
    },
    {
      "inputs": [],
      "name": "getAllProfiles",
      "outputs": [
        {
          "components": [
            {
              "internalType": "uint256",
              "name": "id",
              "type": "uint256"
            },
            {
              "internalType": "string",
              "name": "fname",
              "type": "string"
            },
            {
              "internalType": "string",
              "name": "lname",
              "type": "string"
            },
            {
              "internalType": "string",
              "name": "email",
              "type": "string"
            },
            {
              "internalType": "address",
              "name": "account",
              "type": "address"
            },
            {
              "internalType": "bool",
              "name": "active",
              "type": "bool"
            },
            {
              "internalType": "uint256",
              "name": "createdAt",
              "type": "uint256"
            },
            {
              "internalType": "uint256",
              "name": "updatedAt",
              "type": "uint256"
            }
          ],
          "internalType": "struct Nemezis.Profile[]",
          "name": "",
          "type": "tuple[]"
        }
      ],
      "stateMutability": "view",
      "type": "function"
    },
    {
      "inputs": [
        {
          "internalType": "uint256",
          "name": "_profileId",
          "type": "uint256"
        }
      ],
      "name": "getProfile",
      "outputs": [
        {
          "components": [
            {
              "internalType": "uint256",
              "name": "id",
              "type": "uint256"
            },
            {
              "internalType": "string",
              "name": "fname",
              "type": "string"
            },
            {
              "internalType": "string",
              "name": "lname",
              "type": "string"
            },
            {
              "internalType": "string",
              "name": "email",
              "type": "string"
            },
            {
              "internalType": "address",
              "name": "account",
              "type": "address"
            },
            {
              "internalType": "bool",
              "name": "active",
              "type": "bool"
            },
            {
              "internalType": "uint256",
              "name": "createdAt",
              "type": "uint256"
            },
            {
              "internalType": "uint256",
              "name": "updatedAt",
              "type": "uint256"
            }
          ],
          "internalType": "struct Nemezis.Profile",
          "name": "",
          "type": "tuple"
        }
      ],
      "stateMutability": "view",
      "type": "function"
    },
    {
      "inputs": [
        {
          "internalType": "address",
          "name": "_account",
          "type": "address"
        }
      ],
      "name": "getProfilesByAccount",
      "outputs": [
        {
          "components": [
            {
              "internalType": "uint256",
              "name": "id",
              "type": "uint256"
            },
            {
              "internalType": "string",
              "name": "fname",
              "type": "string"
            },
            {
              "internalType": "string",
              "name": "lname",
              "type": "string"
            },
            {
              "internalType": "string",
              "name": "email",
              "type": "string"
            },
            {
              "internalType": "address",
              "name": "account",
              "type": "address"
            },
            {
              "internalType": "bool",
              "name": "active",
              "type": "bool"
            },
            {
              "internalType": "uint256",
              "name": "createdAt",
              "type": "uint256"
            },
            {
              "internalType": "uint256",
              "name": "updatedAt",
              "type": "uint256"
            }
          ],
          "internalType": "struct Nemezis.Profile[]",
          "name": "",
          "type": "tuple[]"
        }
      ],
      "stateMutability": "view",
      "type": "function"
    },
    {
      "inputs": [
        {
          "internalType": "string",
          "name": "",
          "type": "string"
        }
      ],
      "name": "profileIdByEmail",
      "outputs": [
        {
          "internalType": "uint256",
          "name": "",
          "type": "uint256"
        }
      ],
      "stateMutability": "view",
      "type": "function"
    },
    {
      "inputs": [
        {
          "internalType": "address",
          "name": "",
          "type": "address"
        },
        {
          "internalType": "uint256",
          "name": "",
          "type": "uint256"
        }
      ],
      "name": "profileIdsByAccount",
      "outputs": [
        {
          "internalType": "uint256",
          "name": "",
          "type": "uint256"
        }
      ],
      "stateMutability": "view",
      "type": "function"
    },
    {
      "inputs": [
        {
          "internalType": "uint256",
          "name": "",
          "type": "uint256"
        }
      ],
      "name": "profilesById",
      "outputs": [
        {
          "internalType": "uint256",
          "name": "id",
          "type": "uint256"
        },
        {
          "internalType": "string",
          "name": "fname",
          "type": "string"
        },
        {
          "internalType": "string",
          "name": "lname",
          "type": "string"
        },
        {
          "internalType": "string",
          "name": "email",
          "type": "string"
        },
        {
          "internalType": "address",
          "name": "account",
          "type": "address"
        },
        {
          "internalType": "bool",
          "name": "active",
          "type": "bool"
        },
        {
          "internalType": "uint256",
          "name": "createdAt",
          "type": "uint256"
        },
        {
          "internalType": "uint256",
          "name": "updatedAt",
          "type": "uint256"
        }
      ],
      "stateMutability": "view",
      "type": "function"
    },
    {
      "inputs": [
        {
          "internalType": "uint256",
          "name": "_profileId",
          "type": "uint256"
        }
      ],
      "name": "reactivateProfile",
      "outputs": [],
      "stateMutability": "nonpayable",
      "type": "function"
    }
  ],
  "bytecode": "0x60806040526001600355348015601457600080fd5b5061237b806100246000396000f3fe608060405234801561001057600080fd5b50600436106100935760003560e01c8063986350741161006657806398635074146101465780639973651a14610162578063cb3044f514610192578063d70980cf146101ae578063f08f4f64146101e557610093565b80630b1fe784146100985780634bac551b146100b657806381206e42146100e65780639841c82c14610116575b600080fd5b6100a0610215565b6040516100ad9190611711565b60405180910390f35b6100d060048036038101906100cb919061187c565b61054e565b6040516100dd91906118d4565b60405180910390f35b61010060048036038101906100fb919061191b565b61057c565b60405161010d9190611711565b60405180910390f35b610130600480360381019061012b9190611948565b610928565b60405161013d91906118d4565b60405180910390f35b610160600480360381019061015b9190611a1b565b610bc0565b005b61017c60048036038101906101779190611a48565b610daa565b60405161018991906118d4565b60405180910390f35b6101ac60048036038101906101a79190611a1b565b610ddb565b005b6101c860048036038101906101c39190611a1b565b610f58565b6040516101dc989796959493929190611af0565b60405180910390f35b6101ff60048036038101906101fa9190611a1b565b611165565b60405161020c9190611c41565b60405180910390f35b6060600060016003546102289190611c92565b67ffffffffffffffff81111561024157610240611751565b5b60405190808252806020026020018201604052801561027a57816020015b61026761142f565b81526020019060019003908161025f5790505b5090506000600190505b60035481101561054657600080600083815260200190815260200160002060000154146105395760008082815260200190815260200160002060405180610100016040529081600082015481526020016001820180546102e390611cf5565b80601f016020809104026020016040519081016040528092919081815260200182805461030f90611cf5565b801561035c5780601f106103315761010080835404028352916020019161035c565b820191906000526020600020905b81548152906001019060200180831161033f57829003601f168201915b5050505050815260200160028201805461037590611cf5565b80601f01602080910402602001604051908101604052809291908181526020018280546103a190611cf5565b80156103ee5780601f106103c3576101008083540402835291602001916103ee565b820191906000526020600020905b8154815290600101906020018083116103d157829003601f168201915b5050505050815260200160038201805461040790611cf5565b80601f016020809104026020016040519081016040528092919081815260200182805461043390611cf5565b80156104805780601f1061045557610100808354040283529160200191610480565b820191906000526020600020905b81548152906001019060200180831161046357829003601f168201915b505050505081526020016004820160009054906101000a900473ffffffffffffffffffffffffffffffffffffffff1673ffffffffffffffffffffffffffffffffffffffff1673ffffffffffffffffffffffffffffffffffffffff1681526020016004820160149054906101000a900460ff16151515158152602001600582015481526020016006820154815250508260018361051c9190611c92565b8151811061052d5761052c611d26565b5b60200260200101819052505b8080600101915050610284565b508091505090565b6001818051602081018201805184825260208301602085012081835280955050505050506000915090505481565b60606000600260008473ffffffffffffffffffffffffffffffffffffffff1673ffffffffffffffffffffffffffffffffffffffff16815260200190815260200160002080548060200260200160405190810160405280929190818152602001828054801561060957602002820191906000526020600020905b8154815260200190600101908083116105f5575b505050505090506000815167ffffffffffffffff81111561062d5761062c611751565b5b60405190808252806020026020018201604052801561066657816020015b61065361142f565b81526020019060019003908161064b5790505b50905060005b825181101561091d5760008084838151811061068b5761068a611d26565b5b6020026020010151815260200190815260200160002060405180610100016040529081600082015481526020016001820180546106c790611cf5565b80601f01602080910402602001604051908101604052809291908181526020018280546106f390611cf5565b80156107405780601f1061071557610100808354040283529160200191610740565b820191906000526020600020905b81548152906001019060200180831161072357829003601f168201915b5050505050815260200160028201805461075990611cf5565b80601f016020809104026020016040519081016040528092919081815260200182805461078590611cf5565b80156107d25780601f106107a7576101008083540402835291602001916107d2565b820191906000526020600020905b8154815290600101906020018083116107b557829003601f168201915b505050505081526020016003820180546107eb90611cf5565b80601f016020809104026020016040519081016040528092919081815260200182805461081790611cf5565b80156108645780601f1061083957610100808354040283529160200191610864565b820191906000526020600020905b81548152906001019060200180831161084757829003601f168201915b505050505081526020016004820160009054906101000a900473ffffffffffffffffffffffffffffffffffffffff1673ffffffffffffffffffffffffffffffffffffffff1673ffffffffffffffffffffffffffffffffffffffff1681526020016004820160149054906101000a900460ff161515151581526020016005820154815260200160068201548152505082828151811061090557610904611d26565b5b6020026020010181905250808060010191505061066c565b508092505050919050565b60008060018360405161093b9190611d91565b9081526020016040518091039020541461098a576040517f08c379a000000000000000000000000000000000000000000000000000000000815260040161098190611df4565b60405180910390fd5b6000600354905060006040518061010001604052808381526020018781526020018681526020018581526020013373ffffffffffffffffffffffffffffffffffffffff16815260200160011515815260200142815260200142815250905080600080848152602001908152602001600020600082015181600001556020820151816001019081610a1a9190611fc0565b506040820151816002019081610a309190611fc0565b506060820151816003019081610a469190611fc0565b5060808201518160040160006101000a81548173ffffffffffffffffffffffffffffffffffffffff021916908373ffffffffffffffffffffffffffffffffffffffff16021790555060a08201518160040160146101000a81548160ff02191690831515021790555060c0820151816005015560e0820151816006015590505081600185604051610ad69190611d91565b908152602001604051809103902081905550600260003373ffffffffffffffffffffffffffffffffffffffff1673ffffffffffffffffffffffffffffffffffffffff16815260200190815260200160002082908060018154018082558091505060019003906000526020600020016000909190919091505560036000815480929190610b6190612092565b919050555083604051610b749190611d91565b6040518091039020827f3c98a8055fb1f0d721830447db4ec316d500c8d7a5d04c5371bef5fe8280a02633604051610bac91906120da565b60405180910390a381925050509392505050565b3373ffffffffffffffffffffffffffffffffffffffff1660008083815260200190815260200160002060040160009054906101000a900473ffffffffffffffffffffffffffffffffffffffff1673ffffffffffffffffffffffffffffffffffffffff1614610c63576040517f08c379a0000000000000000000000000000000000000000000000000000000008152600401610c5a90612141565b60405180910390fd5b60008082815260200190815260200160002060040160149054906101000a900460ff1615610cc6576040517f08c379a0000000000000000000000000000000000000000000000000000000008152600401610cbd906121ad565b60405180910390fd5b600080600083815260200190815260200160002060060154905062278d0081610cef91906121cd565b421115610d31576040517f08c379a0000000000000000000000000000000000000000000000000000000008152600401610d289061224d565b60405180910390fd5b600160008084815260200190815260200160002060040160146101000a81548160ff0219169083151502179055504260008084815260200190815260200160002060060181905550817f06ac8ff5d7684497a6367fb56997b952097e886f1482a4fd4d80be22df06f8a660405160405180910390a25050565b60026020528160005260406000208181548110610dc657600080fd5b90600052602060002001600091509150505481565b3373ffffffffffffffffffffffffffffffffffffffff1660008083815260200190815260200160002060040160009054906101000a900473ffffffffffffffffffffffffffffffffffffffff1673ffffffffffffffffffffffffffffffffffffffff1614610e7e576040517f08c379a0000000000000000000000000000000000000000000000000000000008152600401610e7590612141565b60405180910390fd5b60008082815260200190815260200160002060040160149054906101000a900460ff16610ee0576040517f08c379a0000000000000000000000000000000000000000000000000000000008152600401610ed7906122b9565b60405180910390fd5b600080600083815260200190815260200160002060040160146101000a81548160ff0219169083151502179055504260008083815260200190815260200160002060060181905550807ffaccdb7b397916a1b9bb4922bfad1945779c79029c5605adbc7becae0d50689e60405160405180910390a250565b6000602052806000526040600020600091509050806000015490806001018054610f8190611cf5565b80601f0160208091040260200160405190810160405280929190818152602001828054610fad90611cf5565b8015610ffa5780601f10610fcf57610100808354040283529160200191610ffa565b820191906000526020600020905b815481529060010190602001808311610fdd57829003601f168201915b50505050509080600201805461100f90611cf5565b80601f016020809104026020016040519081016040528092919081815260200182805461103b90611cf5565b80156110885780601f1061105d57610100808354040283529160200191611088565b820191906000526020600020905b81548152906001019060200180831161106b57829003601f168201915b50505050509080600301805461109d90611cf5565b80601f01602080910402602001604051908101604052809291908181526020018280546110c990611cf5565b80156111165780601f106110eb57610100808354040283529160200191611116565b820191906000526020600020905b8154815290600101906020018083116110f957829003601f168201915b5050505050908060040160009054906101000a900473ffffffffffffffffffffffffffffffffffffffff16908060040160149054906101000a900460ff16908060050154908060060154905088565b61116d61142f565b600080600084815260200190815260200160002060000154036111c5576040517f08c379a00000000000000000000000000000000000000000000000000000000081526004016111bc90612325565b60405180910390fd5b60008083815260200190815260200160002060405180610100016040529081600082015481526020016001820180546111fd90611cf5565b80601f016020809104026020016040519081016040528092919081815260200182805461122990611cf5565b80156112765780601f1061124b57610100808354040283529160200191611276565b820191906000526020600020905b81548152906001019060200180831161125957829003601f168201915b5050505050815260200160028201805461128f90611cf5565b80601f01602080910402602001604051908101604052809291908181526020018280546112bb90611cf5565b80156113085780601f106112dd57610100808354040283529160200191611308565b820191906000526020600020905b8154815290600101906020018083116112eb57829003601f168201915b5050505050815260200160038201805461132190611cf5565b80601f016020809104026020016040519081016040528092919081815260200182805461134d90611cf5565b801561139a5780601f1061136f5761010080835404028352916020019161139a565b820191906000526020600020905b81548152906001019060200180831161137d57829003601f168201915b505050505081526020016004820160009054906101000a900473ffffffffffffffffffffffffffffffffffffffff1673ffffffffffffffffffffffffffffffffffffffff1673ffffffffffffffffffffffffffffffffffffffff1681526020016004820160149054906101000a900460ff16151515158152602001600582015481526020016006820154815250509050919050565b60405180610100016040528060008152602001606081526020016060815260200160608152602001600073ffffffffffffffffffffffffffffffffffffffff16815260200160001515815260200160008152602001600081525090565b600081519050919050565b600082825260208201905092915050565b6000819050602082019050919050565b6000819050919050565b6114cb816114b8565b82525050565b600081519050919050565b600082825260208201905092915050565b60005b8381101561150b5780820151818401526020810190506114f0565b60008484015250505050565b6000601f19601f8301169050919050565b6000611533826114d1565b61153d81856114dc565b935061154d8185602086016114ed565b61155681611517565b840191505092915050565b600073ffffffffffffffffffffffffffffffffffffffff82169050919050565b600061158c82611561565b9050919050565b61159c81611581565b82525050565b60008115159050919050565b6115b7816115a2565b82525050565b6000610100830160008301516115d660008601826114c2565b50602083015184820360208601526115ee8282611528565b915050604083015184820360408601526116088282611528565b915050606083015184820360608601526116228282611528565b91505060808301516116376080860182611593565b5060a083015161164a60a08601826115ae565b5060c083015161165d60c08601826114c2565b5060e083015161167060e08601826114c2565b508091505092915050565b600061168783836115bd565b905092915050565b6000602082019050919050565b60006116a78261148c565b6116b18185611497565b9350836020820285016116c3856114a8565b8060005b858110156116ff57848403895281516116e0858261167b565b94506116eb8361168f565b925060208a019950506001810190506116c7565b50829750879550505050505092915050565b6000602082019050818103600083015261172b818461169c565b905092915050565b6000604051905090565b600080fd5b600080fd5b600080fd5b600080fd5b7f4e487b7100000000000000000000000000000000000000000000000000000000600052604160045260246000fd5b61178982611517565b810181811067ffffffffffffffff821117156117a8576117a7611751565b5b80604052505050565b60006117bb611733565b90506117c78282611780565b919050565b600067ffffffffffffffff8211156117e7576117e6611751565b5b6117f082611517565b9050602081019050919050565b82818337600083830152505050565b600061181f61181a846117cc565b6117b1565b90508281526020810184848401111561183b5761183a61174c565b5b6118468482856117fd565b509392505050565b600082601f83011261186357611862611747565b5b813561187384826020860161180c565b91505092915050565b6000602082840312156118925761189161173d565b5b600082013567ffffffffffffffff8111156118b0576118af611742565b5b6118bc8482850161184e565b91505092915050565b6118ce816114b8565b82525050565b60006020820190506118e960008301846118c5565b92915050565b6118f881611581565b811461190357600080fd5b50565b600081359050611915816118ef565b92915050565b6000602082840312156119315761193061173d565b5b600061193f84828501611906565b91505092915050565b6000806000606084860312156119615761196061173d565b5b600084013567ffffffffffffffff81111561197f5761197e611742565b5b61198b8682870161184e565b935050602084013567ffffffffffffffff8111156119ac576119ab611742565b5b6119b88682870161184e565b925050604084013567ffffffffffffffff8111156119d9576119d8611742565b5b6119e58682870161184e565b9150509250925092565b6119f8816114b8565b8114611a0357600080fd5b50565b600081359050611a15816119ef565b92915050565b600060208284031215611a3157611a3061173d565b5b6000611a3f84828501611a06565b91505092915050565b60008060408385031215611a5f57611a5e61173d565b5b6000611a6d85828601611906565b9250506020611a7e85828601611a06565b9150509250929050565b600082825260208201905092915050565b6000611aa4826114d1565b611aae8185611a88565b9350611abe8185602086016114ed565b611ac781611517565b840191505092915050565b611adb81611581565b82525050565b611aea816115a2565b82525050565b600061010082019050611b06600083018b6118c5565b8181036020830152611b18818a611a99565b90508181036040830152611b2c8189611a99565b90508181036060830152611b408188611a99565b9050611b4f6080830187611ad2565b611b5c60a0830186611ae1565b611b6960c08301856118c5565b611b7660e08301846118c5565b9998505050505050505050565b600061010083016000830151611b9c60008601826114c2565b5060208301518482036020860152611bb48282611528565b91505060408301518482036040860152611bce8282611528565b91505060608301518482036060860152611be88282611528565b9150506080830151611bfd6080860182611593565b5060a0830151611c1060a08601826115ae565b5060c0830151611c2360c08601826114c2565b5060e0830151611c3660e08601826114c2565b508091505092915050565b60006020820190508181036000830152611c5b8184611b83565b905092915050565b7f4e487b7100000000000000000000000000000000000000000000000000000000600052601160045260246000fd5b6000611c9d826114b8565b9150611ca8836114b8565b9250828203905081811115611cc057611cbf611c63565b5b92915050565b7f4e487b7100000000000000000000000000000000000000000000000000000000600052602260045260246000fd5b60006002820490506001821680611d0d57607f821691505b602082108103611d2057611d1f611cc6565b5b50919050565b7f4e487b7100000000000000000000000000000000000000000000000000000000600052603260045260246000fd5b600081905092915050565b6000611d6b826114d1565b611d758185611d55565b9350611d858185602086016114ed565b80840191505092915050565b6000611d9d8284611d60565b915081905092915050565b7f456d61696c20616c726561647920657869737473000000000000000000000000600082015250565b6000611dde601483611a88565b9150611de982611da8565b602082019050919050565b60006020820190508181036000830152611e0d81611dd1565b9050919050565b60008190508160005260206000209050919050565b60006020601f8301049050919050565b600082821b905092915050565b600060088302611e767fffffffffffffffffffffffffffffffffffffffffffffffffffffffffffffffff82611e39565b611e808683611e39565b95508019841693508086168417925050509392505050565b6000819050919050565b6000611ebd611eb8611eb3846114b8565b611e98565b6114b8565b9050919050565b6000819050919050565b611ed783611ea2565b611eeb611ee382611ec4565b848454611e46565b825550505050565b600090565b611f00611ef3565b611f0b818484611ece565b505050565b5b81811015611f2f57611f24600082611ef8565b600181019050611f11565b5050565b601f821115611f7457611f4581611e14565b611f4e84611e29565b81016020851015611f5d578190505b611f71611f6985611e29565b830182611f10565b50505b505050565b600082821c905092915050565b6000611f9760001984600802611f79565b1980831691505092915050565b6000611fb08383611f86565b9150826002028217905092915050565b611fc9826114d1565b67ffffffffffffffff811115611fe257611fe1611751565b5b611fec8254611cf5565b611ff7828285611f33565b600060209050601f83116001811461202a5760008415612018578287015190505b6120228582611fa4565b86555061208a565b601f19841661203886611e14565b60005b828110156120605784890151825560018201915060208501945060208101905061203b565b8683101561207d5784890151612079601f891682611f86565b8355505b6001600288020188555050505b505050505050565b600061209d826114b8565b91507fffffffffffffffffffffffffffffffffffffffffffffffffffffffffffffffff82036120cf576120ce611c63565b5b600182019050919050565b60006020820190506120ef6000830184611ad2565b92915050565b7f4e6f742070726f66696c65206f776e6572000000000000000000000000000000600082015250565b600061212b601183611a88565b9150612136826120f5565b602082019050919050565b6000602082019050818103600083015261215a8161211e565b9050919050565b7f50726f66696c6520616c72656164792061637469766500000000000000000000600082015250565b6000612197601683611a88565b91506121a282612161565b602082019050919050565b600060208201905081810360008301526121c68161218a565b9050919050565b60006121d8826114b8565b91506121e3836114b8565b92508282019050808211156121fb576121fa611c63565b5b92915050565b7f5265616374697661746520706572696f64206578706972656400000000000000600082015250565b6000612237601983611a88565b915061224282612201565b602082019050919050565b600060208201905081810360008301526122668161222a565b9050919050565b7f50726f66696c6520616c726561647920696e6163746976650000000000000000600082015250565b60006122a3601883611a88565b91506122ae8261226d565b602082019050919050565b600060208201905081810360008301526122d281612296565b9050919050565b7f50726f66696c6520646f6573206e6f7420657869737400000000000000000000600082015250565b600061230f601683611a88565b915061231a826122d9565b602082019050919050565b6000602082019050818103600083015261233e81612302565b905091905056fea2646970667358221220f5108509dbc79226b3b0b3b3682eb662408c31d45f03f2891837ac91fd343a9b64736f6c634300081b0033",
  "linkReferences": {},
  "deployedLinkReferences": {}
}