{
  "_format": "hh-sol-artifact-1",
  "contractName": "Nemezis",
  "sourceName": "contracts/Profile.sol",
  "abi": [
    {
      "anonymous": false,
      "inputs": [
        {
          "indexed": true,
          "internalType": "uint256",
          "name": "profileId",
          "type": "uint256"
        },
        {
          "indexed": true,
          "internalType": "string",
          "name": "email",
          "type": "string"
        },
        {
          "indexed": false,
          "internalType": "address",
          "name": "account",
          "type": "address"
        }
      ],
      "name": "ProfileCreated",
      "type": "event"
    },
    {
      "anonymous": false,
      "inputs": [
        {
          "indexed": true,
          "internalType": "uint256",
          "name": "profileId",
          "type": "uint256"
        }
      ],
      "name": "ProfileDeactivated",
      "type": "event"
    },
    {
      "anonymous": false,
      "inputs": [
        {
          "indexed": true,
          "internalType": "uint256",
          "name": "profileId",
          "type": "uint256"
        }
      ],
      "name": "ProfileReactivated",
      "type": "event"
    },
    {
      "anonymous": false,
      "inputs": [
        {
          "indexed": true,
          "internalType": "uint256",
          "name": "profileId",
          "type": "uint256"
        }
      ],
      "name": "ProfileUpdated",
      "type": "event"
    },
    {
      "inputs": [
        {
          "internalType": "string",
          "name": "_fname",
          "type": "string"
        },
        {
          "internalType": "string",
          "name": "_lname",
          "type": "string"
        },
        {
          "internalType": "string",
          "name": "_email",
          "type": "string"
        }
      ],
      "name": "createProfile",
      "outputs": [
        {
          "internalType": "uint256",
          "name": "",
          "type": "uint256"
        }
      ],
      "stateMutability": "nonpayable",
      "type": "function"
    },
    {
      "inputs": [
        {
          "internalType": "uint256",
          "name": "_profileId",
          "type": "uint256"
        }
      ],
      "name": "deactivateProfile",
      "outputs": [],
      "stateMutability": "nonpayable",
      "type": "function"
    },
    {
      "inputs": [],
      "name": "getAllProfiles",
      "outputs": [
        {
          "components": [
            {
              "internalType": "uint256",
              "name": "id",
              "type": "uint256"
            },
            {
              "internalType": "string",
              "name": "fname",
              "type": "string"
            },
            {
              "internalType": "string",
              "name": "lname",
              "type": "string"
            },
            {
              "internalType": "string",
              "name": "email",
              "type": "string"
            },
            {
              "internalType": "address",
              "name": "account",
              "type": "address"
            },
            {
              "internalType": "bool",
              "name": "active",
              "type": "bool"
            },
            {
              "internalType": "uint256",
              "name": "createdAt",
              "type": "uint256"
            },
            {
              "internalType": "uint256",
              "name": "updatedAt",
              "type": "uint256"
            }
          ],
          "internalType": "struct Nemezis.Profile[]",
          "name": "",
          "type": "tuple[]"
        }
      ],
      "stateMutability": "view",
      "type": "function"
    },
    {
      "inputs": [
        {
          "internalType": "uint256",
          "name": "_profileId",
          "type": "uint256"
        }
      ],
      "name": "getProfile",
      "outputs": [
        {
          "components": [
            {
              "internalType": "uint256",
              "name": "id",
              "type": "uint256"
            },
            {
              "internalType": "string",
              "name": "fname",
              "type": "string"
            },
            {
              "internalType": "string",
              "name": "lname",
              "type": "string"
            },
            {
              "internalType": "string",
              "name": "email",
              "type": "string"
            },
            {
              "internalType": "address",
              "name": "account",
              "type": "address"
            },
            {
              "internalType": "bool",
              "name": "active",
              "type": "bool"
            },
            {
              "internalType": "uint256",
              "name": "createdAt",
              "type": "uint256"
            },
            {
              "internalType": "uint256",
              "name": "updatedAt",
              "type": "uint256"
            }
          ],
          "internalType": "struct Nemezis.Profile",
          "name": "",
          "type": "tuple"
        }
      ],
      "stateMutability": "view",
      "type": "function"
    },
    {
      "inputs": [
        {
          "internalType": "address",
          "name": "_account",
          "type": "address"
        }
      ],
      "name": "getProfilesByAccount",
      "outputs": [
        {
          "components": [
            {
              "internalType": "uint256",
              "name": "id",
              "type": "uint256"
            },
            {
              "internalType": "string",
              "name": "fname",
              "type": "string"
            },
            {
              "internalType": "string",
              "name": "lname",
              "type": "string"
            },
            {
              "internalType": "string",
              "name": "email",
              "type": "string"
            },
            {
              "internalType": "address",
              "name": "account",
              "type": "address"
            },
            {
              "internalType": "bool",
              "name": "active",
              "type": "bool"
            },
            {
              "internalType": "uint256",
              "name": "createdAt",
              "type": "uint256"
            },
            {
              "internalType": "uint256",
              "name": "updatedAt",
              "type": "uint256"
            }
          ],
          "internalType": "struct Nemezis.Profile[]",
          "name": "",
          "type": "tuple[]"
        }
      ],
      "stateMutability": "view",
      "type": "function"
    },
    {
      "inputs": [
        {
          "internalType": "string",
          "name": "",
          "type": "string"
        }
      ],
      "name": "profileIdByEmail",
      "outputs": [
        {
          "internalType": "uint256",
          "name": "",
          "type": "uint256"
        }
      ],
      "stateMutability": "view",
      "type": "function"
    },
    {
      "inputs": [
        {
          "internalType": "address",
          "name": "",
          "type": "address"
        },
        {
          "internalType": "uint256",
          "name": "",
          "type": "uint256"
        }
      ],
      "name": "profileIdsByAccount",
      "outputs": [
        {
          "internalType": "uint256",
          "name": "",
          "type": "uint256"
        }
      ],
      "stateMutability": "view",
      "type": "function"
    },
    {
      "inputs": [
        {
          "internalType": "uint256",
          "name": "",
          "type": "uint256"
        }
      ],
      "name": "profilesById",
      "outputs": [
        {
          "internalType": "uint256",
          "name": "id",
          "type": "uint256"
        },
        {
          "internalType": "string",
          "name": "fname",
          "type": "string"
        },
        {
          "internalType": "string",
          "name": "lname",
          "type": "string"
        },
        {
          "internalType": "string",
          "name": "email",
          "type": "string"
        },
        {
          "internalType": "address",
          "name": "account",
          "type": "address"
        },
        {
          "internalType": "bool",
          "name": "active",
          "type": "bool"
        },
        {
          "internalType": "uint256",
          "name": "createdAt",
          "type": "uint256"
        },
        {
          "internalType": "uint256",
          "name": "updatedAt",
          "type": "uint256"
        }
      ],
      "stateMutability": "view",
      "type": "function"
    },
    {
      "inputs": [
        {
          "internalType": "uint256",
          "name": "_profileId",
          "type": "uint256"
        }
      ],
      "name": "reactivateProfile",
      "outputs": [],
      "stateMutability": "nonpayable",
      "type": "function"
    }
  ],
  "bytecode": "0x60808060405234601a57600160035561109390816100208239f35b600080fdfe6080604052600436101561001257600080fd5b60003560e01c80630b1fe78414610b645780634bac551b14610b0757806381206e4214610a2a5780639841c82c1461048657806398635074146103245780639973651a146102cb578063cb3044f5146101e7578063d70980cf146101235763f08f4f641461007f57600080fd5b3461011e57602036600319011261011e5760043561009b610efd565b50806000526000602052604060002054156100e05760005260006020526100dc6100c86040600020610fa0565b604051918291602083526020830190610c4e565b0390f35b60405162461bcd60e51b8152602060048201526016602482015275141c9bd99a5b1948191bd95cc81b9bdd08195e1a5cdd60521b6044820152606490fd5b600080fd5b3461011e57602036600319011261011e5760043560005260006020526040600020805461015260018301610e41565b9161015f60028201610e41565b61016b60038301610e41565b9160ff6101bf6004830154946101b160066005860154950154956101a36040519a8b9a8b5261010060208c01526101008b0190610c29565b9089820360408b0152610c29565b908782036060890152610c29565b9360018060a01b038116608087015260a01c16151560a085015260c084015260e08301520390f35b3461011e57602036600319011261011e5760043580600052600060205261021f60018060a01b0360046040600020015416331461101d565b80600052600060205260ff60046040600020015460a01c161561028657600081815260208190526040812060048101805460ff60a01b19169055426006909101557ffaccdb7b397916a1b9bb4922bfad1945779c79029c5605adbc7becae0d50689e9080a2005b60405162461bcd60e51b815260206004820152601860248201527f50726f66696c6520616c726561647920696e61637469766500000000000000006044820152606490fd5b3461011e57604036600319011261011e576102e4610dc3565b6001600160a01b031660009081526002602052604090208054602435919082101561011e5760209161031591610dd9565b90549060031b1c604051908152f35b3461011e57602036600319011261011e5760043580600052600060205261035c60018060a01b0360046040600020015416331461101d565b80600052600060205260ff60046040600020015460a01c166104485780600052600060205260066040600020015462278d0081018091116104325742116103ed57600081815260208190526040812060048101805460ff60a01b1916600160a01b179055426006909101557f06ac8ff5d7684497a6367fb56997b952097e886f1482a4fd4d80be22df06f8a69080a2005b60405162461bcd60e51b815260206004820152601960248201527f5265616374697661746520706572696f642065787069726564000000000000006044820152606490fd5b634e487b7160e01b600052601160045260246000fd5b60405162461bcd60e51b815260206004820152601660248201527550726f66696c6520616c72656164792061637469766560501b6044820152606490fd5b3461011e57606036600319011261011e5760043567ffffffffffffffff811161011e576104b7903690600401610d6c565b60243567ffffffffffffffff811161011e576104d7903690600401610d6c565b9060443567ffffffffffffffff811161011e576104f8903690600401610d6c565b9060405182519060208181860193610511818387610c06565b81016001815203019020546109ee57600354916040519061053182610d2d565b838252602082019081526040820195865260608201958587526080830133815260a084016001815260c085019242845260e086019442865288600052600060205260406000209651875560018701905180519067ffffffffffffffff821161079357819061059f8454610e07565b601f811161099b575b50602090601f83116001146109365760009261092b575b50508160011b916000199060031b1c19161790555b518051600287019167ffffffffffffffff82116107935781906105f78454610e07565b601f81116108d8575b50602090601f831160011461087357600092610868575b50508160011b916000199060031b1c19161790555b60038501985198895167ffffffffffffffff81116107935761064e8254610e07565b601f8111610820575b506020601f82116001146107b4578190600698999a9b9c6000926107a9575b50508160011b916000199060031b1c19161790555b9051600486018054925160ff60a01b90151560a01b166001600160a01b039092166001600160a81b03199093169290921717905551600584015551910155604051835183919060209082906106e1818388610c06565b810160018152030190205533600052600260205260406000208054680100000000000000008110156107935761071c91600182018155610dd9565b81549060031b9084821b91600019901b191617905560035490600019821461043257602093600161075c9301600355604051928392839251928391610c06565b8101039020817f3c98a8055fb1f0d721830447db4ec316d500c8d7a5d04c5371bef5fe8280a02684604051338152a3604051908152f35b634e487b7160e01b600052604160045260246000fd5b015190508c80610676565b601f1982169b83600052816000209c60005b8181106108085750916006999a9b9c9d918460019594106107ef575b505050811b01905561068b565b015160001960f88460031b161c191690558c80806107e2565b838301518f556001909e019d602093840193016107c6565b826000526020600020601f830160051c8101916020841061085e575b601f0160051c01905b8181106108525750610657565b60008155600101610845565b909150819061083c565b015190508c80610617565b60008581528281209350601f198516905b8181106108c057509084600195949392106108a7575b505050811b01905561062c565b015160001960f88460031b161c191690558c808061089a565b92936020600181928786015181550195019301610884565b909150836000526020600020601f840160051c81019160208510610921575b90601f859493920160051c01905b8181106109125750610600565b60008155849350600101610905565b90915081906108f7565b015190508d806105bf565b60008581528281209350601f198516905b818110610983575090846001959493921061096a575b505050811b0190556105d4565b015160001960f88460031b161c191690558d808061095d565b92936020600181928786015181550195019301610947565b909150836000526020600020601f840160051c810191602085106109e4575b90601f859493920160051c01905b8181106109d557506105a8565b600081558493506001016109c8565b90915081906109ba565b60405162461bcd60e51b8152602060048201526014602482015273456d61696c20616c72656164792065786973747360601b6044820152606490fd5b3461011e57602036600319011261011e576001600160a01b03610a4b610dc3565b16600052600260205260406000206040518082602082945493848152019060005260206000209260005b818110610aee575050610a8a92500382610d4a565b610a948151610f3c565b9060005b8151811015610ae05780610aae60019284610f8c565b516000526000602052610ac46040600020610fa0565b610ace8286610f8c565b52610ad98185610f8c565b5001610a98565b604051806100dc8582610ccd565b8454835260019485019486945060209093019201610a75565b3461011e57602036600319011261011e5760043567ffffffffffffffff811161011e57610b516020610b3e81933690600401610d6c565b8160405193828580945193849201610c06565b8101600181520301902054604051908152f35b3461011e57600036600319011261011e57600354600019810181811161043257610b8d90610f3c565b9060015b818110610ba657604051806100dc8582610ccd565b806000526000602052604060002054610bc2575b600101610b91565b80600052600060205260406000209060001981019181831161043257600192610bed610bfe92610fa0565b610bf78288610f8c565b5285610f8c565b509050610bba565b60005b838110610c195750506000910152565b8181015183820152602001610c09565b90602091610c4281518092818552858086019101610c06565b601f01601f1916010190565b908151815260e080610c9b610c89610c7760208701516101006020880152610100870190610c29565b60408701518682036040880152610c29565b60608601518582036060870152610c29565b6080808601516001600160a01b03169085015260a08086015115159085015260c0808601519085015293015191015290565b602081016020825282518091526040820191602060408360051b8301019401926000915b838310610d0057505050505090565b9091929394602080610d1e600193603f198682030187528951610c4e565b97019301930191939290610cf1565b610100810190811067ffffffffffffffff82111761079357604052565b90601f8019910116810190811067ffffffffffffffff82111761079357604052565b81601f8201121561011e5780359067ffffffffffffffff82116107935760405192610da1601f8401601f191660200185610d4a565b8284526020838301011161011e57816000926020809301838601378301015290565b600435906001600160a01b038216820361011e57565b8054821015610df15760005260206000200190600090565b634e487b7160e01b600052603260045260246000fd5b90600182811c92168015610e37575b6020831014610e2157565b634e487b7160e01b600052602260045260246000fd5b91607f1691610e16565b9060405191826000825492610e5584610e07565b8084529360018116908115610ec35750600114610e7c575b50610e7a92500383610d4a565b565b90506000929192526020600020906000915b818310610ea7575050906020610e7a9282010138610e6d565b6020919350806001915483858901015201910190918492610e8e565b905060209250610e7a94915060ff191682840152151560051b82010138610e6d565b67ffffffffffffffff81116107935760051b60200190565b60405190610f0a82610d2d565b600060e08382815260606020820152606060408201526060808201528260808201528260a08201528260c08201520152565b90610f4682610ee5565b610f536040519182610d4a565b8281528092610f64601f1991610ee5565b019060005b828110610f7557505050565b602090610f80610efd565b82828501015201610f69565b8051821015610df15760209160051b010190565b90604051610fad81610d2d565b60e06006829480548452610fc360018201610e41565b6020850152610fd460028201610e41565b6040850152610fe560038201610e41565b606085015260048101546001600160a01b038116608086015260a090811c60ff16151590850152600581015460c08501520154910152565b1561102457565b60405162461bcd60e51b81526020600482015260116024820152702737ba10383937b334b6329037bbb732b960791b6044820152606490fdfea26469706673582212205c492965b6814a1e6291cce3b8388430ab114c8bde5c49c501421ed5b8bc8c8964736f6c634300081b0033",
  "linkReferences": {},
  "deployedLinkReferences": {}
}