{
  "_format": "hh-sol-artifact-1",
  "contractName": "VestingFacet",
  "sourceName": "contracts/VestingFacet.sol",
  "abi": [
    {
      "inputs": [],
      "name": "ReentrancyGuardReentrantCall",
      "type": "error"
    },
    {
      "anonymous": false,
      "inputs": [
        {
          "indexed": true,
          "internalType": "address",
          "name": "ambassador",
          "type": "address"
        },
        {
          "indexed": false,
          "internalType": "uint256",
          "name": "amount",
          "type": "uint256"
        },
        {
          "indexed": false,
          "internalType": "uint256",
          "name": "timestamp",
          "type": "uint256"
        }
      ],
      "name": "TokensClaimed",
      "type": "event"
    },
    {
      "anonymous": false,
      "inputs": [
        {
          "indexed": true,
          "internalType": "address",
          "name": "ambassador",
          "type": "address"
        },
        {
          "indexed": false,
          "internalType": "uint256",
          "name": "amount",
          "type": "uint256"
        },
        {
          "indexed": false,
          "internalType": "uint256",
          "name": "purchaseId",
          "type": "uint256"
        },
        {
          "indexed": false,
          "internalType": "uint8",
          "name": "ambassadorLevel",
          "type": "uint8"
        },
        {
          "indexed": false,
          "internalType": "uint256",
          "name": "timestamp",
          "type": "uint256"
        }
      ],
      "name": "TokensEarned",
      "type": "event"
    },
    {
      "anonymous": false,
      "inputs": [
        {
          "indexed": true,
          "internalType": "address",
          "name": "ambassador",
          "type": "address"
        },
        {
          "indexed": false,
          "internalType": "uint256",
          "name": "amount",
          "type": "uint256"
        },
        {
          "indexed": false,
          "internalType": "uint256",
          "name": "timestamp",
          "type": "uint256"
        }
      ],
      "name": "TokensVested",
      "type": "event"
    },
    {
      "inputs": [],
      "name": "claimTokens",
      "outputs": [],
      "stateMutability": "nonpayable",
      "type": "function"
    },
    {
      "inputs": [
        {
          "internalType": "uint256",
          "name": "_purchaseId",
          "type": "uint256"
        },
        {
          "internalType": "address",
          "name": "_buyer",
          "type": "address"
        }
      ],
      "name": "distributeTokenRewards",
      "outputs": [],
      "stateMutability": "nonpayable",
      "type": "function"
    },
    {
      "inputs": [
        {
          "internalType": "address",
          "name": "_ambassador",
          "type": "address"
        }
      ],
      "name": "getTokenBalance",
      "outputs": [
        {
          "internalType": "uint256",
          "name": "vested",
          "type": "uint256"
        },
        {
          "internalType": "uint256",
          "name": "unvested",
          "type": "uint256"
        },
        {
          "internalType": "uint256",
          "name": "claimed",
          "type": "uint256"
        },
        {
          "internalType": "uint256",
          "name": "lifetime",
          "type": "uint256"
        }
      ],
      "stateMutability": "view",
      "type": "function"
    },
    {
      "inputs": [
        {
          "internalType": "address",
          "name": "_ambassador",
          "type": "address"
        }
      ],
      "name": "getVestingSchedule",
      "outputs": [
        {
          "internalType": "uint256",
          "name": "startTime",
          "type": "uint256"
        },
        {
          "internalType": "uint256",
          "name": "duration",
          "type": "uint256"
        },
        {
          "internalType": "uint256",
          "name": "elapsed",
          "type": "uint256"
        },
        {
          "internalType": "uint256",
          "name": "percentVested",
          "type": "uint256"
        }
      ],
      "stateMutability": "view",
      "type": "function"
    },
    {
      "inputs": [
        {
          "internalType": "address",
          "name": "_ambassador",
          "type": "address"
        }
      ],
      "name": "updateVesting",
      "outputs": [],
      "stateMutability": "nonpayable",
      "type": "function"
    }
  ],
  "bytecode": "0x6080806040523461001b5760016000556108de90816100218239f35b600080fdfe6040608081526004908136101561001557600080fd5b600091823560e01c9081633aecd0e31461043057816348c54b9d146102215781639f82906314610154578163b868035214610112575063e42144711461005a57600080fd5b3461010e57602036600319011261010e576100736104c2565b9060018060a01b03906100ae828416938486526000805160206108898339815191526020526100a983872094855416151561050d565b610729565b806100b7578480f35b600b83600c7fe37037c1b3b5a7099de9b4ff0b386af195061ad990fcf5c0c5f84b95d328f76695016100ea848254610500565b9055016100f88282546104dd565b90558151908152426020820152a2388080808480f35b5080fd5b919050346101505736600319011261010e576024356001600160a01b038116810361015057610149916101436107eb565b3561056d565b6001815580f35b8280fd5b83833461010e57602036600319011261010e5761016f6104c2565b6001600160a01b03168252600080516020610889833981519152602052808220600e810154600f90910154929091906101a88342610500565b908482106101e257506101de92939450612710915b51948594859094939260609260808301968352602083015260408201520152565b0390f35b6127109081830291838304148315171561020e5750846101de949596506102089161054d565b916101bd565b634e487b7160e01b815260118752602490fd5b9190503461015057826003193601126101505761023c6107eb565b33835260209060008051602061088983398151915282528084209261026b60018060a01b03855416151561050d565b61027433610729565b806103d9575b50600b84019384549485156103a1579086600d92550161029b8582546104dd565b90558151633cbc766960e11b81526002828201523360248201526044810185905260806064820152600d60848201526c56657374696e6720636c61696d60981b60a482015290838260c48189305af180156103975761032d575b50507f9923b4306c6c030f2bdfbf156517d5983b87e15b96176da122cd4f2effa4ba7b91815193845242908401523392a26001815580f35b83903d851161038f575b601f8201601f191683019067ffffffffffffffff82118483101761037c5750849183918552810103126103785751801515036103745738806102f5565b8380fd5b8480fd5b634e487b7160e01b885260419052602487fd5b3d9150610337565b83513d88823e3d90fd5b835162461bcd60e51b815280840186905260126024820152714e6f20746f6b656e7320746f20636c61696d60701b6044820152606490fd5b600c85016103e8828254610500565b9055600b85016103f98282546104dd565b9055825190815242848201527fe37037c1b3b5a7099de9b4ff0b386af195061ad990fcf5c0c5f84b95d328f766833392a23861027a565b50503461010e57602036600319011261010e576101de610478826104526104c2565b6001600160a01b0381168652600080516020610889833981519152602052942093610729565b9161049561048a84600b8701546104dd565b93600c860154610500565b93600a600d8201549101549151948594859094939260609260808301968352602083015260408201520152565b600435906001600160a01b03821682036104d857565b600080fd5b919082018092116104ea57565b634e487b7160e01b600052601160045260246000fd5b919082039182116104ea57565b1561051457565b60405162461bcd60e51b81526020600482015260116024820152702737ba1030b71030b6b130b9b9b0b237b960791b6044820152606490fd5b8115610557570490565b634e487b7160e01b600052601260045260246000fd5b6000908082526020907fe73faffa5bcab50ff8b24161d8feb15dcb77896c58c1b1c0777efe3ca6ebb17e60205260018060a01b03604094818686205416156106f25781168452600080516020610889833981519152918260205285852082815416156106e957600280910154918360089360081c16948488965b1695861561063557898685898b9a8d52858b52838d209060ff9b8c9586601285015416610655575b5050500154871c16911687811461064157600160649101978816116106355785906105e7565b50505050505050505050565b634e487b7160e01b8a52601160045260248afd5b7f93e9ee973f580f71df4b96f0e1862615555bd210e5f47510c865e119adbe096891608091888787015416908c6106968b60048a015460a81c16809461080e565b93600c89016106a68682546104dd565b9055600a89016106b78682546104dd565b9055600e89018054156106e0575b508251948552840152820152426060820152a2388c8f61060f565b429055386106c5565b50505050505050565b855162461bcd60e51b815260206004820152601060248201526f496e76616c696420707572636861736560801b6044820152606490fd5b6001600160a01b0316600090815260008051602061088983398151915260205260408120600e81015480156107e657600a8201549081156107e05761076e9042610500565b600f83015491908281106107ae57506107949150915b600d600b820154910154906104dd565b908181116107a157505090565b6107ab9250610500565b90565b808202918204036107cc57610794916107c69161054d565b91610784565b634e487b7160e01b84526011600452602484fd5b50505090565b505090565b6002600054146107fc576002600055565b604051633ee5aeb560e01b8152600490fd5b6003811015610872576002146108655760ff1660009081527fe73faffa5bcab50ff8b24161d8feb15dcb77896c58c1b1c0777efe3ca6ebb18b602052604090205480156108585790565b50674563918244f4000090565b50678ac7230489e8000090565b634e487b7160e01b600052602160045260246000fdfee73faffa5bcab50ff8b24161d8feb15dcb77896c58c1b1c0777efe3ca6ebb17da2646970667358221220eac4cf52cb687583d3e8a0b43c7ed8df04fc2168df0ba9595ac6ce8f94b0c2db64736f6c63430008180033",
  "linkReferences": {},
  "deployedLinkReferences": {}
}