{
  "_format": "hh-sol-artifact-1",
  "contractName": "VestingFacet",
  "sourceName": "contracts/VestingFacet.sol",
  "abi": [
    {
      "inputs": [],
      "name": "ReentrancyGuardReentrantCall",
      "type": "error"
    },
    {
      "anonymous": false,
      "inputs": [
        {
          "indexed": true,
          "internalType": "address",
          "name": "ambassador",
          "type": "address"
        },
        {
          "indexed": false,
          "internalType": "uint256",
          "name": "amount",
          "type": "uint256"
        },
        {
          "indexed": false,
          "internalType": "uint256",
          "name": "timestamp",
          "type": "uint256"
        }
      ],
      "name": "TokensClaimed",
      "type": "event"
    },
    {
      "anonymous": false,
      "inputs": [
        {
          "indexed": true,
          "internalType": "address",
          "name": "ambassador",
          "type": "address"
        },
        {
          "indexed": false,
          "internalType": "uint256",
          "name": "amount",
          "type": "uint256"
        },
        {
          "indexed": false,
          "internalType": "uint256",
          "name": "purchaseId",
          "type": "uint256"
        },
        {
          "indexed": false,
          "internalType": "uint8",
          "name": "ambassadorLevel",
          "type": "uint8"
        },
        {
          "indexed": false,
          "internalType": "uint256",
          "name": "timestamp",
          "type": "uint256"
        }
      ],
      "name": "TokensEarned",
      "type": "event"
    },
    {
      "anonymous": false,
      "inputs": [
        {
          "indexed": true,
          "internalType": "address",
          "name": "ambassador",
          "type": "address"
        },
        {
          "indexed": false,
          "internalType": "uint256",
          "name": "amount",
          "type": "uint256"
        },
        {
          "indexed": false,
          "internalType": "uint256",
          "name": "timestamp",
          "type": "uint256"
        }
      ],
      "name": "TokensVested",
      "type": "event"
    },
    {
      "inputs": [],
      "name": "claimTokens",
      "outputs": [],
      "stateMutability": "nonpayable",
      "type": "function"
    },
    {
      "inputs": [
        {
          "internalType": "uint256",
          "name": "_purchaseId",
          "type": "uint256"
        },
        {
          "internalType": "address",
          "name": "_buyer",
          "type": "address"
        }
      ],
      "name": "distributeTokenRewards",
      "outputs": [],
      "stateMutability": "nonpayable",
      "type": "function"
    },
    {
      "inputs": [
        {
          "internalType": "address",
          "name": "_ambassador",
          "type": "address"
        }
      ],
      "name": "getTokenBalance",
      "outputs": [
        {
          "internalType": "uint256",
          "name": "vested",
          "type": "uint256"
        },
        {
          "internalType": "uint256",
          "name": "unvested",
          "type": "uint256"
        },
        {
          "internalType": "uint256",
          "name": "claimed",
          "type": "uint256"
        },
        {
          "internalType": "uint256",
          "name": "lifetime",
          "type": "uint256"
        }
      ],
      "stateMutability": "view",
      "type": "function"
    },
    {
      "inputs": [
        {
          "internalType": "address",
          "name": "_ambassador",
          "type": "address"
        }
      ],
      "name": "getVestingSchedule",
      "outputs": [
        {
          "internalType": "uint256",
          "name": "startTime",
          "type": "uint256"
        },
        {
          "internalType": "uint256",
          "name": "duration",
          "type": "uint256"
        },
        {
          "internalType": "uint256",
          "name": "elapsed",
          "type": "uint256"
        },
        {
          "internalType": "uint256",
          "name": "percentVested",
          "type": "uint256"
        }
      ],
      "stateMutability": "view",
      "type": "function"
    },
    {
      "inputs": [
        {
          "internalType": "address",
          "name": "_ambassador",
          "type": "address"
        }
      ],
      "name": "updateVesting",
      "outputs": [],
      "stateMutability": "nonpayable",
      "type": "function"
    }
  ],
  "bytecode": "0x6080806040523461001b5760016000556108c190816100218239f35b600080fdfe6040608081526004908136101561001557600080fd5b600091823560e01c9081633aecd0e31461043657816348c54b9d146102155781639f82906314610148578163b868035214610112575063e42144711461005a57600080fd5b3461010e57602036600319011261010e576100736104c8565b9060018060a01b03906100ae8284169384865260008051602061086c8339815191526020526100a9838720948554161515610513565b61072f565b806100b7578480f35b600b83600c7fe37037c1b3b5a7099de9b4ff0b386af195061ad990fcf5c0c5f84b95d328f76695016100ea848254610506565b9055016100f88282546104e3565b90558151908152426020820152a2388080808480f35b5080fd5b919050346101445736600319011261010e576024356001600160a01b0381168103610144576101419135610573565b80f35b8280fd5b83833461010e57602036600319011261010e576101636104c8565b6001600160a01b0316825260008051602061086c833981519152602052808220600e810154600f909101549290919061019c8342610506565b908482106101d657506101d292939450612710915b51948594859094939260609260808301968352602083015260408201520152565b0390f35b612710908183029183830414831517156102025750846101d2949596506101fc91610553565b916101b1565b634e487b7160e01b815260118752602490fd5b919050346101445782600319360112610144576002835414610429576002835533835260209060008051602061086c83398151915282528084209261026460018060a01b038554161515610513565b61026d3361072f565b806103d2575b50600b840193845494851561039a579086600d9255016102948582546104e3565b90558151633cbc766960e11b81526002828201523360248201526044810185905260806064820152600d60848201526c56657374696e6720636c61696d60981b60a482015290838260c48189305af1801561039057610326575b50507f9923b4306c6c030f2bdfbf156517d5983b87e15b96176da122cd4f2effa4ba7b91815193845242908401523392a26001815580f35b83903d8511610388575b601f8201601f191683019067ffffffffffffffff82118483101761037557508491839185528101031261037157518015150361036d5738806102ee565b8380fd5b8480fd5b634e487b7160e01b885260419052602487fd5b3d9150610330565b83513d88823e3d90fd5b835162461bcd60e51b815280840186905260126024820152714e6f20746f6b656e7320746f20636c61696d60701b6044820152606490fd5b600c85016103e1828254610506565b9055600b85016103f28282546104e3565b9055825190815242848201527fe37037c1b3b5a7099de9b4ff0b386af195061ad990fcf5c0c5f84b95d328f766833392a238610273565b51633ee5aeb560e01b8152fd5b50503461010e57602036600319011261010e576101d261047e826104586104c8565b6001600160a01b038116865260008051602061086c83398151915260205294209361072f565b9161049b61049084600b8701546104e3565b93600c860154610506565b93600a600d8201549101549151948594859094939260609260808301968352602083015260408201520152565b600435906001600160a01b03821682036104de57565b600080fd5b919082018092116104f057565b634e487b7160e01b600052601160045260246000fd5b919082039182116104f057565b1561051a57565b60405162461bcd60e51b81526020600482015260116024820152702737ba1030b71030b6b130b9b9b0b237b960791b6044820152606490fd5b811561055d570490565b634e487b7160e01b600052601260045260246000fd5b6000908082526020907fe73faffa5bcab50ff8b24161d8feb15dcb77896c58c1b1c0777efe3ca6ebb17e60205260018060a01b03604094818686205416156106f8578116845260008051602061086c833981519152918260205285852082815416156106ef57600280910154918360089360081c16948488965b1695861561063b57898685898b9a8d52858b52838d209060ff9b8c958660128501541661065b575b5050500154871c169116878114610647576001606491019788161161063b5785906105ed565b50505050505050505050565b634e487b7160e01b8a52601160045260248afd5b7f93e9ee973f580f71df4b96f0e1862615555bd210e5f47510c865e119adbe096891608091888787015416908c61069c8b60048a015460a81c1680946107f1565b93600c89016106ac8682546104e3565b9055600a89016106bd8682546104e3565b9055600e89018054156106e6575b508251948552840152820152426060820152a2388c8f610615565b429055386106cb565b50505050505050565b855162461bcd60e51b815260206004820152601060248201526f496e76616c696420707572636861736560801b6044820152606490fd5b6001600160a01b0316600090815260008051602061086c83398151915260205260408120600e81015480156107ec57600a8201549081156107e6576107749042610506565b600f83015491908281106107b4575061079a9150915b600d600b820154910154906104e3565b908181116107a757505090565b6107b19250610506565b90565b808202918204036107d25761079a916107cc91610553565b9161078a565b634e487b7160e01b84526011600452602484fd5b50505090565b505090565b6003811015610855576002146108485760ff1660009081527fe73faffa5bcab50ff8b24161d8feb15dcb77896c58c1b1c0777efe3ca6ebb18b6020526040902054801561083b5790565b50674563918244f4000090565b50678ac7230489e8000090565b634e487b7160e01b600052602160045260246000fdfee73faffa5bcab50ff8b24161d8feb15dcb77896c58c1b1c0777efe3ca6ebb17da2646970667358221220f3214407635585fce83822677e40fb6a375598fe59df683a2d1efc33796a13b464736f6c63430008180033",
  "linkReferences": {},
  "deployedLinkReferences": {}
}