{
  "_format": "hh-sol-artifact-1",
  "contractName": "TokenManagementFacet",
  "sourceName": "contracts/TokenManagementFacet.sol",
  "abi": [
    {
      "inputs": [
        {
          "internalType": "address",
          "name": "account",
          "type": "address"
        },
        {
          "internalType": "uint256",
          "name": "requested",
          "type": "uint256"
        },
        {
          "internalType": "uint256",
          "name": "available",
          "type": "uint256"
        }
      ],
      "name": "InsufficientBalance",
      "type": "error"
    },
    {
      "inputs": [
        {
          "internalType": "enum LibDiamond.PoolId",
          "name": "pool",
          "type": "uint8"
        },
        {
          "internalType": "uint256",
          "name": "requested",
          "type": "uint256"
        },
        {
          "internalType": "uint256",
          "name": "minted",
          "type": "uint256"
        }
      ],
      "name": "PoolBurnExceedsMinted",
      "type": "error"
    },
    {
      "inputs": [
        {
          "internalType": "enum LibDiamond.PoolId",
          "name": "pool",
          "type": "uint8"
        },
        {
          "internalType": "uint256",
          "name": "requested",
          "type": "uint256"
        },
        {
          "internalType": "uint256",
          "name": "available",
          "type": "uint256"
        }
      ],
      "name": "PoolLimitExceeded",
      "type": "error"
    },
    {
      "inputs": [
        {
          "internalType": "address",
          "name": "caller",
          "type": "address"
        }
      ],
      "name": "UnauthorizedFacet",
      "type": "error"
    },
    {
      "anonymous": false,
      "inputs": [
        {
          "indexed": true,
          "internalType": "enum LibDiamond.PoolId",
          "name": "pool",
          "type": "uint8"
        },
        {
          "indexed": false,
          "internalType": "uint256",
          "name": "newSupply",
          "type": "uint256"
        }
      ],
      "name": "PoolSupplyUpdated",
      "type": "event"
    },
    {
      "anonymous": false,
      "inputs": [
        {
          "indexed": true,
          "internalType": "address",
          "name": "from",
          "type": "address"
        },
        {
          "indexed": false,
          "internalType": "uint256",
          "name": "amount",
          "type": "uint256"
        },
        {
          "indexed": false,
          "internalType": "string",
          "name": "reason",
          "type": "string"
        }
      ],
      "name": "TokenBurned",
      "type": "event"
    },
    {
      "anonymous": false,
      "inputs": [
        {
          "indexed": true,
          "internalType": "address",
          "name": "to",
          "type": "address"
        },
        {
          "indexed": false,
          "internalType": "uint256",
          "name": "amount",
          "type": "uint256"
        },
        {
          "indexed": false,
          "internalType": "string",
          "name": "reason",
          "type": "string"
        }
      ],
      "name": "TokenMinted",
      "type": "event"
    },
    {
      "inputs": [
        {
          "internalType": "enum LibDiamond.PoolId",
          "name": "pool",
          "type": "uint8"
        },
        {
          "internalType": "address",
          "name": "from",
          "type": "address"
        },
        {
          "internalType": "uint256",
          "name": "amount",
          "type": "uint256"
        },
        {
          "internalType": "string",
          "name": "reason",
          "type": "string"
        }
      ],
      "name": "burnFromPool",
      "outputs": [
        {
          "internalType": "bool",
          "name": "",
          "type": "bool"
        }
      ],
      "stateMutability": "nonpayable",
      "type": "function"
    },
    {
      "inputs": [
        {
          "internalType": "address",
          "name": "from",
          "type": "address"
        },
        {
          "internalType": "uint256",
          "name": "amount",
          "type": "uint256"
        },
        {
          "internalType": "string",
          "name": "reason",
          "type": "string"
        }
      ],
      "name": "burnTokens",
      "outputs": [
        {
          "internalType": "bool",
          "name": "",
          "type": "bool"
        }
      ],
      "stateMutability": "nonpayable",
      "type": "function"
    },
    {
      "inputs": [],
      "name": "getCurrentEcosystemPoolSupply",
      "outputs": [
        {
          "internalType": "uint256",
          "name": "",
          "type": "uint256"
        }
      ],
      "stateMutability": "view",
      "type": "function"
    },
    {
      "inputs": [],
      "name": "getEcosystemPoolAllocation",
      "outputs": [
        {
          "internalType": "uint256",
          "name": "",
          "type": "uint256"
        }
      ],
      "stateMutability": "pure",
      "type": "function"
    },
    {
      "inputs": [],
      "name": "getMaxSupply",
      "outputs": [
        {
          "internalType": "uint256",
          "name": "",
          "type": "uint256"
        }
      ],
      "stateMutability": "pure",
      "type": "function"
    },
    {
      "inputs": [
        {
          "internalType": "enum LibDiamond.PoolId",
          "name": "pool",
          "type": "uint8"
        }
      ],
      "name": "getPoolCap",
      "outputs": [
        {
          "internalType": "uint256",
          "name": "",
          "type": "uint256"
        }
      ],
      "stateMutability": "view",
      "type": "function"
    },
    {
      "inputs": [
        {
          "internalType": "enum LibDiamond.PoolId",
          "name": "pool",
          "type": "uint8"
        }
      ],
      "name": "getPoolMinted",
      "outputs": [
        {
          "internalType": "uint256",
          "name": "",
          "type": "uint256"
        }
      ],
      "stateMutability": "view",
      "type": "function"
    },
    {
      "inputs": [
        {
          "internalType": "enum LibDiamond.PoolId",
          "name": "pool",
          "type": "uint8"
        }
      ],
      "name": "getPoolRemaining",
      "outputs": [
        {
          "internalType": "uint256",
          "name": "",
          "type": "uint256"
        }
      ],
      "stateMutability": "view",
      "type": "function"
    },
    {
      "inputs": [],
      "name": "getRemainingEcosystemPoolCapacity",
      "outputs": [
        {
          "internalType": "uint256",
          "name": "",
          "type": "uint256"
        }
      ],
      "stateMutability": "view",
      "type": "function"
    },
    {
      "inputs": [
        {
          "internalType": "address",
          "name": "account",
          "type": "address"
        }
      ],
      "name": "getTokenBalance",
      "outputs": [
        {
          "internalType": "uint256",
          "name": "",
          "type": "uint256"
        }
      ],
      "stateMutability": "view",
      "type": "function"
    },
    {
      "inputs": [],
      "name": "getTotalSupply",
      "outputs": [
        {
          "internalType": "uint256",
          "name": "",
          "type": "uint256"
        }
      ],
      "stateMutability": "view",
      "type": "function"
    },
    {
      "inputs": [
        {
          "internalType": "enum LibDiamond.PoolId",
          "name": "pool",
          "type": "uint8"
        },
        {
          "internalType": "address",
          "name": "to",
          "type": "address"
        },
        {
          "internalType": "uint256",
          "name": "amount",
          "type": "uint256"
        },
        {
          "internalType": "string",
          "name": "reason",
          "type": "string"
        }
      ],
      "name": "mintFromPool",
      "outputs": [
        {
          "internalType": "bool",
          "name": "",
          "type": "bool"
        }
      ],
      "stateMutability": "nonpayable",
      "type": "function"
    },
    {
      "inputs": [
        {
          "internalType": "address",
          "name": "to",
          "type": "address"
        },
        {
          "internalType": "uint256",
          "name": "rewardType",
          "type": "uint256"
        },
        {
          "internalType": "string",
          "name": "reason",
          "type": "string"
        }
      ],
      "name": "mintReward",
      "outputs": [
        {
          "internalType": "bool",
          "name": "",
          "type": "bool"
        }
      ],
      "stateMutability": "nonpayable",
      "type": "function"
    },
    {
      "inputs": [
        {
          "internalType": "address",
          "name": "to",
          "type": "address"
        },
        {
          "internalType": "uint256",
          "name": "amount",
          "type": "uint256"
        },
        {
          "internalType": "string",
          "name": "reason",
          "type": "string"
        }
      ],
      "name": "mintTokens",
      "outputs": [
        {
          "internalType": "bool",
          "name": "",
          "type": "bool"
        }
      ],
      "stateMutability": "nonpayable",
      "type": "function"
    }
  ],
  "bytecode": "0x6080806040523461001657610c18908161001c8239f35b600080fdfe608060408181526004918236101561001657600080fd5b600092833560e01c918263025dfee814610641575081633aecd0e3146106105781634c0f38c2146105e9578163578bc69e146105b457816372b155f7146105795781637978ecd2146103f5578163857a03b1146103bb578163891197a8146102d6578163a0062657146101e3578163bf5aa69514610179578163c4e41b2214610155578163c7954e4c1461011f578163da302148146100e6575063e67524a3146100bf57600080fd5b346100e2576020906100d96100d33661075b565b91610931565b90519015158152f35b5080fd5b90503461011b57602036600319011261011b57359160058310156101185750610110602092610855565b549051908152f35b80fd5b8280fd5b5050346100e257816003193601126100e257600181838060209552600080516020610bc383398151915285522001549051908152f35b5050346100e257816003193601126100e257602090610172610b31565b9051908152f35b5050346100e2576020907faa3ee6226b1f996ba4690b41b52df54a5a7e5dcd135525a497161f9dca4cbaf06101ad3661075b565b9092916101c26101bd8583610b73565b610ae5565b6101d9855192839260018060a01b031695836108df565b0390a25160018152f35b828434610118576101f336610707565b600161020185969495610855565b019384548084116102b55750908161023d6101bd857faa3ee6226b1f996ba4690b41b52df54a5a7e5dcd135525a497161f9dca4cbaf095610b73565b610248848754610891565b809655610262885192839260018060a01b031695836108df565b0390a260058310156102a257602084847f4f9f48cb4e5a2ccf89f6b0e83ce738c9039f40a14c407308fbfefa0c1dda62f983868451908152a25160018152f35b634e487b7160e01b815260218552602490fd5b8751630906850b60e21b81529081906102d290868a848e016108c1565b0390fd5b90508234610118576102e73661075b565b939192506001810361030c575050602092916100d991674563918244f4000090610931565b6002810361032d575050602092916100d991671bc16d674ec8000090610931565b6003810361034e575050602092916100d991671bc16d674ec8000090610931565b810361036c5750602092916100d991670de0b6b3a764000090610931565b608490602085519162461bcd60e51b83528201526024808201527f546f6b656e4d616e6167656d656e743a20496e76616c696420726577617264206044820152637479706560e01b6064820152fd5b90503461011b57602036600319011261011b573591600583101561011857506101726103e8602093610855565b6001815491015490610891565b8284346101185761040536610707565b610410849594610855565b92600184019384549061042382866108b4565b9054809111610552575083610437916108b4565b84558651630f38ca0d60e31b602082019081526001600160a01b038316602483015260448201859052869182919061047c81606481015b03601f198101835282610667565b519082305af161048a61079e565b501561050f5786516001600160a01b03909116927fdf92894dc4675a7333caa5903b69cf5d8e8ec0d3f361c88207b6688e525703bb9282916104cd9190836108df565b0390a2549060058310156102a257602084847f4f9f48cb4e5a2ccf89f6b0e83ce738c9039f40a14c407308fbfefa0c1dda62f983868451908152a25160018152f35b865162461bcd60e51b81526020818a0152601c60248201527f546f6b656e4d616e6167656d656e743a204d696e74206661696c6564000000006044820152606490fd5b6102d289866105638b958e95610891565b915163929d1e0b60e01b815294859485016108c1565b5050346100e257816003193601126100e25761017281838060209552600080516020610bc38339815191528552206001815491015490610891565b90503461011b57602036600319011261011b5735916005831015610118575060016105e0602093610855565b01549051908152f35b5050346100e257816003193601126100e257602090516b204fce5e3e250261100000008152f35b90503461011b57602036600319011261011b5735916001600160a01b038316830361011857506101726020926107ce565b8490346100e257816003193601126100e257806b04d8c55aefb8c05b5c00000060209252f35b90601f8019910116810190811067ffffffffffffffff82111761068957604052565b634e487b7160e01b600052604160045260246000fd5b67ffffffffffffffff811161068957601f01601f191660200190565b81601f82011215610702578035906106d28261069f565b926106e06040519485610667565b8284526020838301011161070257816000926020809301838601378301015290565b600080fd5b90608060031983011261070257600435600581101561070257916024356001600160a01b03811681036107025791604435916064359067ffffffffffffffff821161070257610758916004016106bb565b90565b6060600319820112610702576004356001600160a01b03811681036107025791602435916044359067ffffffffffffffff821161070257610758916004016106bb565b3d156107c9573d906107af8261069f565b916107bd6040519384610667565b82523d6000602084013e565b606090565b6040516370a0823160e01b602082019081526001600160a01b03909216602480830191909152815290606082019067ffffffffffffffff8211838310176106895760009283926040525190305afa61082461079e565b9080610849575b6108355750600090565b602081805181010312610702576020015190565b5060208151101561082b565b600581101561087b57600052600080516020610bc3833981519152602052604060002090565b634e487b7160e01b600052602160045260246000fd5b9190820391821161089e57565b634e487b7160e01b600052601160045260246000fd5b9190820180921161089e57565b60608101949392600583101561087b57604092825260208201520152565b9092919281526020926040602083015280519081604084015260005b82811061091d57505060609293506000838284010152601f8019910116010190565b8181018601518482016060015285016108fb565b6000808052600080516020610bc38339815191526020527fbd6f7ac83cce562ebd9425cdec1ee14dd2fc4eaf7663d7789d8875d5822db76980549194604094919391929091907fbd6f7ac83cce562ebd9425cdec1ee14dd2fc4eaf7663d7789d8875d5822db7686109a282866108b4565b9054809111610ab85750836109b6916108b4565b84558451630f38ca0d60e31b602082019081526001600160a01b03831660248301526044820185905287918291906109f1816064810161046e565b519082305af16109ff61079e565b5015610a7457917fdf92894dc4675a7333caa5903b69cf5d8e8ec0d3f361c88207b6688e525703bb602094928694610a657f4f9f48cb4e5a2ccf89f6b0e83ce738c9039f40a14c407308fbfefa0c1dda62f9985192839260018060a01b031695836108df565b0390a2549051908152a2600190565b845162461bcd60e51b815260206004820152601c60248201527f546f6b656e4d616e6167656d656e743a204d696e74206661696c6564000000006044820152606490fd5b8685610ac76064948b94610891565b91519263929d1e0b60e01b8452600484015260248301526044820152fd5b15610aec57565b60405162461bcd60e51b815260206004820152601c60248201527f546f6b656e4d616e6167656d656e743a204275726e206661696c6564000000006044820152606490fd5b604051602081016318160ddd60e01b815260048252604082019082821067ffffffffffffffff8311176106895760009283926040525190305afa61082461079e565b604051632770a7eb60e21b602082019081526001600160a01b0390921660248201526044810192909252600091829190610bb0816064810161046e565b519082305af1610bbe61079e565b509056fe5f4b01a82f51ff5f752f261b711b3421e9b55c9bbf3baf3402602555a9a09994a2646970667358221220c35224be3cfbf00af9e6f6a2d41c21c82e2e1934e62b735397cf087658df401564736f6c63430008180033",
  "linkReferences": {},
  "deployedLinkReferences": {}
}