{
  "_format": "hh-sol-artifact-1",
  "contractName": "TokenManagementFacet",
  "sourceName": "contracts/TokenManagementFacet.sol",
  "abi": [
    {
      "inputs": [
        {
          "internalType": "uint256",
          "name": "requested",
          "type": "uint256"
        },
        {
          "internalType": "uint256",
          "name": "available",
          "type": "uint256"
        }
      ],
      "name": "EcosystemPoolLimitExceeded",
      "type": "error"
    },
    {
      "inputs": [
        {
          "internalType": "address",
          "name": "account",
          "type": "address"
        },
        {
          "internalType": "uint256",
          "name": "requested",
          "type": "uint256"
        },
        {
          "internalType": "uint256",
          "name": "available",
          "type": "uint256"
        }
      ],
      "name": "InsufficientBalance",
      "type": "error"
    },
    {
      "inputs": [
        {
          "internalType": "address",
          "name": "caller",
          "type": "address"
        }
      ],
      "name": "UnauthorizedFacet",
      "type": "error"
    },
    {
      "anonymous": false,
      "inputs": [
        {
          "indexed": false,
          "internalType": "uint256",
          "name": "newSupply",
          "type": "uint256"
        }
      ],
      "name": "EcosystemPoolUpdated",
      "type": "event"
    },
    {
      "anonymous": false,
      "inputs": [
        {
          "indexed": true,
          "internalType": "address",
          "name": "from",
          "type": "address"
        },
        {
          "indexed": false,
          "internalType": "uint256",
          "name": "amount",
          "type": "uint256"
        },
        {
          "indexed": false,
          "internalType": "string",
          "name": "reason",
          "type": "string"
        }
      ],
      "name": "TokenBurned",
      "type": "event"
    },
    {
      "anonymous": false,
      "inputs": [
        {
          "indexed": true,
          "internalType": "address",
          "name": "to",
          "type": "address"
        },
        {
          "indexed": false,
          "internalType": "uint256",
          "name": "amount",
          "type": "uint256"
        },
        {
          "indexed": false,
          "internalType": "string",
          "name": "reason",
          "type": "string"
        }
      ],
      "name": "TokenMinted",
      "type": "event"
    },
    {
      "inputs": [
        {
          "internalType": "address",
          "name": "from",
          "type": "address"
        },
        {
          "internalType": "uint256",
          "name": "amount",
          "type": "uint256"
        },
        {
          "internalType": "string",
          "name": "reason",
          "type": "string"
        }
      ],
      "name": "burnTokens",
      "outputs": [
        {
          "internalType": "bool",
          "name": "",
          "type": "bool"
        }
      ],
      "stateMutability": "nonpayable",
      "type": "function"
    },
    {
      "inputs": [],
      "name": "getCurrentEcosystemPoolSupply",
      "outputs": [
        {
          "internalType": "uint256",
          "name": "",
          "type": "uint256"
        }
      ],
      "stateMutability": "view",
      "type": "function"
    },
    {
      "inputs": [],
      "name": "getEcosystemPoolAllocation",
      "outputs": [
        {
          "internalType": "uint256",
          "name": "",
          "type": "uint256"
        }
      ],
      "stateMutability": "pure",
      "type": "function"
    },
    {
      "inputs": [],
      "name": "getMaxSupply",
      "outputs": [
        {
          "internalType": "uint256",
          "name": "",
          "type": "uint256"
        }
      ],
      "stateMutability": "pure",
      "type": "function"
    },
    {
      "inputs": [],
      "name": "getRemainingEcosystemPoolCapacity",
      "outputs": [
        {
          "internalType": "uint256",
          "name": "",
          "type": "uint256"
        }
      ],
      "stateMutability": "view",
      "type": "function"
    },
    {
      "inputs": [
        {
          "internalType": "address",
          "name": "account",
          "type": "address"
        }
      ],
      "name": "getTokenBalance",
      "outputs": [
        {
          "internalType": "uint256",
          "name": "",
          "type": "uint256"
        }
      ],
      "stateMutability": "view",
      "type": "function"
    },
    {
      "inputs": [],
      "name": "getTotalSupply",
      "outputs": [
        {
          "internalType": "uint256",
          "name": "",
          "type": "uint256"
        }
      ],
      "stateMutability": "view",
      "type": "function"
    },
    {
      "inputs": [
        {
          "internalType": "address",
          "name": "to",
          "type": "address"
        },
        {
          "internalType": "uint256",
          "name": "rewardType",
          "type": "uint256"
        },
        {
          "internalType": "string",
          "name": "reason",
          "type": "string"
        }
      ],
      "name": "mintReward",
      "outputs": [
        {
          "internalType": "bool",
          "name": "",
          "type": "bool"
        }
      ],
      "stateMutability": "nonpayable",
      "type": "function"
    },
    {
      "inputs": [
        {
          "internalType": "address",
          "name": "to",
          "type": "address"
        },
        {
          "internalType": "uint256",
          "name": "amount",
          "type": "uint256"
        },
        {
          "internalType": "string",
          "name": "reason",
          "type": "string"
        }
      ],
      "name": "mintTokens",
      "outputs": [
        {
          "internalType": "bool",
          "name": "",
          "type": "bool"
        }
      ],
      "stateMutability": "nonpayable",
      "type": "function"
    }
  ],
  "bytecode": "0x608080604052346100165761086b908161001c8239f35b600080fdfe608060408181526004918236101561001657600080fd5b600092833560e01c918263025dfee81461043f575081633aecd0e31461040a5781634c0f38c2146103e357816372b155f71461038c578163891197a8146102a7578163bf5aa695146100fd57508063c4e41b22146100da578063c7954e4c146100af5763e67524a31461008857600080fd5b346100ab576020906100a261009c366104b9565b916106ad565b90519015158152f35b5080fd5b50346100ab57816003193601126100ab57602090600080516020610816833981519152549051908152f35b50346100ab57816003193601126100ab576020906100f6610648565b9051908152f35b8284346102a45761010d366104b9565b8451632770a7eb60e21b602082019081526001600160a01b03851660248301526044820184905292939192859182919061015481606481015b03601f198101835282610465565b519082305af161016261053f565b50156102615760008051602061081683398151915293845490848210156101f6575b6020877fca450fa8e49477130908834db5de94e61c75ab6e0de7f870e3e3c987154bc65e8289897faa3ee6226b1f996ba4690b41b52df54a5a7e5dcd135525a497161f9dca4cbaf08a8a6101e5885192839260018060a01b031695836105f6565b0390a2548351908152a15160018152f35b84820391821161024e57508455602095507faa3ee6226b1f996ba4690b41b52df54a5a7e5dcd135525a497161f9dca4cbaf07fca450fa8e49477130908834db5de94e61c75ab6e0de7f870e3e3c987154bc65e610184565b634e487b7160e01b815260118852602490fd5b845162461bcd60e51b8152602081880152601c60248201527f546f6b656e4d616e6167656d656e743a204275726e206661696c6564000000006044820152606490fd5b80fd5b905082346102a4576102b8366104b9565b93919250600181036102dd575050602092916100a291674563918244f40000906106ad565b600281036102fe575050602092916100a291671bc16d674ec80000906106ad565b6003810361031f575050602092916100a291671bc16d674ec80000906106ad565b810361033d5750602092916100a291670de0b6b3a7640000906106ad565b608490602085519162461bcd60e51b83528201526024808201527f546f6b656e4d616e6167656d656e743a20496e76616c696420726577617264206044820152637479706560e01b6064820152fd5b8383346100ab57816003193601126100ab5760008051602061081683398151915254916b04d8c55aefb8c05b5c0000009283039283116103d0576020838351908152f35b634e487b7160e01b815260118452602490fd5b5050346100ab57816003193601126100ab57602090516b204fce5e3e250261100000008152f35b90503461043b57602036600319011261043b5735916001600160a01b03831683036102a457506100f660209261056f565b8280fd5b8490346100ab57816003193601126100ab57806b04d8c55aefb8c05b5c00000060209252f35b90601f8019910116810190811067ffffffffffffffff82111761048757604052565b634e487b7160e01b600052604160045260246000fd5b67ffffffffffffffff811161048757601f01601f191660200190565b606060031982011261053a576004356001600160a01b038116810361053a57916024359160443567ffffffffffffffff811161053a578160238201121561053a578060040135906105098261049d565b926105176040519485610465565b8284526024838301011161053a5781600092602460209301838601378301015290565b600080fd5b3d1561056a573d906105508261049d565b9161055e6040519384610465565b82523d6000602084013e565b606090565b6040516370a0823160e01b602082019081526001600160a01b03909216602480830191909152815290606082019067ffffffffffffffff8211838310176104875760009283926040525190305afa6105c561053f565b90806105ea575b6105d65750600090565b60208180518101031261053a576020015190565b506020815110156105cc565b9092919281526020926040602083015280519081604084015260005b82811061063457505060609293506000838284010152601f8019910116010190565b818101860151848201606001528501610612565b604051602081016318160ddd60e01b815260048252604082019082821067ffffffffffffffff8311176104875760009283926040525190305afa6105c561053f565b9190820180921161069757565b634e487b7160e01b600052601160045260246000fd5b91906000805160206108168339815191529081546b04d8c55aefb8c05b5c000000806106d9838561068a565b116107ed5750816106e99161068a565b8255604051630f38ca0d60e31b602082019081526001600160a01b0386166024830152604482018390526000918291906107268160648101610146565b519082305af161073461053f565b50156107a8577fdf92894dc4675a7333caa5903b69cf5d8e8ec0d3f361c88207b6688e525703bb6020937fca450fa8e49477130908834db5de94e61c75ab6e0de7f870e3e3c987154bc65e9561079860405192839260018060a01b031695836105f6565b0390a254604051908152a1600190565b60405162461bcd60e51b815260206004820152601c60248201527f546f6b656e4d616e6167656d656e743a204d696e74206661696c6564000000006044820152606490fd5b809350039182116106975760449160405191636de45be160e01b835260048301526024820152fdfe5d9ab6191fe9d5041816fb24ec4281e2d3989236339577e7fbbaf91315a1bb71a2646970667358221220d62cad953c8d55744b4725209710ca6016eb9909ed17af7608416309a71aba0164736f6c63430008180033",
  "linkReferences": {},
  "deployedLinkReferences": {}
}