{
  "_format": "hh-sol-artifact-1",
  "contractName": "Ecosystem2",
  "sourceName": "contracts/Ecosystem  Contracts/Ecosystem2.sol",
  "abi": [
    {
      "inputs": [
        {
          "internalType": "address[]",
          "name": "_reviewers",
          "type": "address[]"
        }
      ],
      "stateMutability": "nonpayable",
      "type": "constructor"
    },
    {
      "inputs": [],
      "name": "AccessControlBadConfirmation",
      "type": "error"
    },
    {
      "inputs": [
        {
          "internalType": "address",
          "name": "account",
          "type": "address"
        },
        {
          "internalType": "bytes32",
          "name": "neededRole",
          "type": "bytes32"
        }
      ],
      "name": "AccessControlUnauthorizedAccount",
      "type": "error"
    },
    {
      "inputs": [
        {
          "internalType": "address",
          "name": "spender",
          "type": "address"
        },
        {
          "internalType": "uint256",
          "name": "allowance",
          "type": "uint256"
        },
        {
          "internalType": "uint256",
          "name": "needed",
          "type": "uint256"
        }
      ],
      "name": "ERC20InsufficientAllowance",
      "type": "error"
    },
    {
      "inputs": [
        {
          "internalType": "address",
          "name": "sender",
          "type": "address"
        },
        {
          "internalType": "uint256",
          "name": "balance",
          "type": "uint256"
        },
        {
          "internalType": "uint256",
          "name": "needed",
          "type": "uint256"
        }
      ],
      "name": "ERC20InsufficientBalance",
      "type": "error"
    },
    {
      "inputs": [
        {
          "internalType": "address",
          "name": "approver",
          "type": "address"
        }
      ],
      "name": "ERC20InvalidApprover",
      "type": "error"
    },
    {
      "inputs": [
        {
          "internalType": "address",
          "name": "receiver",
          "type": "address"
        }
      ],
      "name": "ERC20InvalidReceiver",
      "type": "error"
    },
    {
      "inputs": [
        {
          "internalType": "address",
          "name": "sender",
          "type": "address"
        }
      ],
      "name": "ERC20InvalidSender",
      "type": "error"
    },
    {
      "inputs": [
        {
          "internalType": "address",
          "name": "spender",
          "type": "address"
        }
      ],
      "name": "ERC20InvalidSpender",
      "type": "error"
    },
    {
      "inputs": [],
      "name": "ReentrancyGuardReentrantCall",
      "type": "error"
    },
    {
      "anonymous": false,
      "inputs": [
        {
          "indexed": true,
          "internalType": "address",
          "name": "owner",
          "type": "address"
        },
        {
          "indexed": true,
          "internalType": "address",
          "name": "spender",
          "type": "address"
        },
        {
          "indexed": false,
          "internalType": "uint256",
          "name": "value",
          "type": "uint256"
        }
      ],
      "name": "Approval",
      "type": "event"
    },
    {
      "anonymous": false,
      "inputs": [
        {
          "indexed": true,
          "internalType": "address",
          "name": "_account",
          "type": "address"
        },
        {
          "indexed": false,
          "internalType": "uint256",
          "name": "_amount",
          "type": "uint256"
        }
      ],
      "name": "BurnSuccess",
      "type": "event"
    },
    {
      "anonymous": false,
      "inputs": [
        {
          "indexed": true,
          "internalType": "uint256",
          "name": "_courseId",
          "type": "uint256"
        },
        {
          "indexed": true,
          "internalType": "uint256",
          "name": "numberOfChapters",
          "type": "uint256"
        }
      ],
      "name": "ChaptersAddedSuccessfully",
      "type": "event"
    },
    {
      "anonymous": false,
      "inputs": [
        {
          "indexed": false,
          "internalType": "uint256",
          "name": "questionId",
          "type": "uint256"
        },
        {
          "indexed": false,
          "internalType": "uint256",
          "name": "choiceId",
          "type": "uint256"
        },
        {
          "indexed": false,
          "internalType": "string",
          "name": "option",
          "type": "string"
        }
      ],
      "name": "ChoiceAdded",
      "type": "event"
    },
    {
      "anonymous": false,
      "inputs": [
        {
          "indexed": true,
          "internalType": "uint256",
          "name": "_courseID",
          "type": "uint256"
        },
        {
          "indexed": true,
          "internalType": "string",
          "name": "_courseName",
          "type": "string"
        },
        {
          "indexed": false,
          "internalType": "bool",
          "name": "_approved",
          "type": "bool"
        }
      ],
      "name": "CourseCreationSuccess",
      "type": "event"
    },
    {
      "anonymous": false,
      "inputs": [
        {
          "indexed": true,
          "internalType": "address",
          "name": "_to",
          "type": "address"
        },
        {
          "indexed": true,
          "internalType": "uint256",
          "name": "_amount",
          "type": "uint256"
        }
      ],
      "name": "EcosystemPoolUpdate",
      "type": "event"
    },
    {
      "anonymous": false,
      "inputs": [
        {
          "indexed": true,
          "internalType": "uint256",
          "name": "_courseId",
          "type": "uint256"
        },
        {
          "indexed": true,
          "internalType": "address",
          "name": "_by",
          "type": "address"
        }
      ],
      "name": "EnrollmentSuccess",
      "type": "event"
    },
    {
      "anonymous": false,
      "inputs": [
        {
          "indexed": true,
          "internalType": "uint256",
          "name": "_lessonId",
          "type": "uint256"
        },
        {
          "indexed": true,
          "internalType": "string",
          "name": "_lessonName",
          "type": "string"
        },
        {
          "indexed": true,
          "internalType": "uint256",
          "name": "_additonalResources",
          "type": "uint256"
        }
      ],
      "name": "LessonCreationSuccess",
      "type": "event"
    },
    {
      "anonymous": false,
      "inputs": [
        {
          "indexed": true,
          "internalType": "address",
          "name": "_to",
          "type": "address"
        },
        {
          "indexed": true,
          "internalType": "uint256",
          "name": "_amount",
          "type": "uint256"
        }
      ],
      "name": "MintSuccess",
      "type": "event"
    },
    {
      "anonymous": false,
      "inputs": [
        {
          "indexed": false,
          "internalType": "uint256",
          "name": "quizId",
          "type": "uint256"
        },
        {
          "indexed": false,
          "internalType": "uint256",
          "name": "questionId",
          "type": "uint256"
        },
        {
          "indexed": false,
          "internalType": "string",
          "name": "questionText",
          "type": "string"
        }
      ],
      "name": "QuestionAdded",
      "type": "event"
    },
    {
      "anonymous": false,
      "inputs": [
        {
          "indexed": true,
          "internalType": "uint256",
          "name": "_quizId",
          "type": "uint256"
        },
        {
          "indexed": true,
          "internalType": "string",
          "name": "_title",
          "type": "string"
        }
      ],
      "name": "QuizCreatedSuccess",
      "type": "event"
    },
    {
      "anonymous": false,
      "inputs": [
        {
          "indexed": true,
          "internalType": "uint256",
          "name": "_lessonId",
          "type": "uint256"
        },
        {
          "indexed": true,
          "internalType": "uint256",
          "name": "resourceCount",
          "type": "uint256"
        }
      ],
      "name": "ResourceAddSuccess",
      "type": "event"
    },
    {
      "anonymous": false,
      "inputs": [
        {
          "indexed": true,
          "internalType": "address",
          "name": "reviewer",
          "type": "address"
        }
      ],
      "name": "ReviewerAddedToPool",
      "type": "event"
    },
    {
      "anonymous": false,
      "inputs": [
        {
          "indexed": true,
          "internalType": "address",
          "name": "reviewer",
          "type": "address"
        }
      ],
      "name": "ReviewerRemovedFromPool",
      "type": "event"
    },
    {
      "anonymous": false,
      "inputs": [
        {
          "indexed": true,
          "internalType": "uint256",
          "name": "courseId",
          "type": "uint256"
        },
        {
          "indexed": false,
          "internalType": "address[]",
          "name": "reviewers",
          "type": "address[]"
        }
      ],
      "name": "ReviewersSelected",
      "type": "event"
    },
    {
      "anonymous": false,
      "inputs": [
        {
          "indexed": true,
          "internalType": "bytes32",
          "name": "role",
          "type": "bytes32"
        },
        {
          "indexed": true,
          "internalType": "bytes32",
          "name": "previousAdminRole",
          "type": "bytes32"
        },
        {
          "indexed": true,
          "internalType": "bytes32",
          "name": "newAdminRole",
          "type": "bytes32"
        }
      ],
      "name": "RoleAdminChanged",
      "type": "event"
    },
    {
      "anonymous": false,
      "inputs": [
        {
          "indexed": true,
          "internalType": "bytes32",
          "name": "role",
          "type": "bytes32"
        },
        {
          "indexed": true,
          "internalType": "address",
          "name": "account",
          "type": "address"
        },
        {
          "indexed": true,
          "internalType": "address",
          "name": "sender",
          "type": "address"
        }
      ],
      "name": "RoleGranted",
      "type": "event"
    },
    {
      "anonymous": false,
      "inputs": [
        {
          "indexed": true,
          "internalType": "bytes32",
          "name": "role",
          "type": "bytes32"
        },
        {
          "indexed": true,
          "internalType": "address",
          "name": "account",
          "type": "address"
        },
        {
          "indexed": true,
          "internalType": "address",
          "name": "sender",
          "type": "address"
        }
      ],
      "name": "RoleRevoked",
      "type": "event"
    },
    {
      "anonymous": false,
      "inputs": [
        {
          "indexed": true,
          "internalType": "address",
          "name": "from",
          "type": "address"
        },
        {
          "indexed": true,
          "internalType": "address",
          "name": "to",
          "type": "address"
        },
        {
          "indexed": false,
          "internalType": "uint256",
          "name": "value",
          "type": "uint256"
        }
      ],
      "name": "Transfer",
      "type": "event"
    },
    {
      "anonymous": false,
      "inputs": [
        {
          "indexed": true,
          "internalType": "uint256",
          "name": "_courseId",
          "type": "uint256"
        },
        {
          "indexed": true,
          "internalType": "address",
          "name": "_by",
          "type": "address"
        }
      ],
      "name": "unEnrollmentSuccess",
      "type": "event"
    },
    {
      "inputs": [],
      "name": "COURSE_OWNER_ROLE",
      "outputs": [
        {
          "internalType": "bytes32",
          "name": "",
          "type": "bytes32"
        }
      ],
      "stateMutability": "view",
      "type": "function"
    },
    {
      "inputs": [],
      "name": "CREATE_COURSE_REWARD",
      "outputs": [
        {
          "internalType": "uint256",
          "name": "",
          "type": "uint256"
        }
      ],
      "stateMutability": "view",
      "type": "function"
    },
    {
      "inputs": [],
      "name": "DEFAULT_ADMIN_ROLE",
      "outputs": [
        {
          "internalType": "bytes32",
          "name": "",
          "type": "bytes32"
        }
      ],
      "stateMutability": "view",
      "type": "function"
    },
    {
      "inputs": [],
      "name": "ECOSYSTEM_POOL",
      "outputs": [
        {
          "internalType": "uint256",
          "name": "",
          "type": "uint256"
        }
      ],
      "stateMutability": "view",
      "type": "function"
    },
    {
      "inputs": [],
      "name": "ENROLLMENT_REWARD",
      "outputs": [
        {
          "internalType": "uint256",
          "name": "",
          "type": "uint256"
        }
      ],
      "stateMutability": "view",
      "type": "function"
    },
    {
      "inputs": [],
      "name": "MAX_SCORE",
      "outputs": [
        {
          "internalType": "uint256",
          "name": "",
          "type": "uint256"
        }
      ],
      "stateMutability": "view",
      "type": "function"
    },
    {
      "inputs": [],
      "name": "MAX_SUPPLY",
      "outputs": [
        {
          "internalType": "uint256",
          "name": "",
          "type": "uint256"
        }
      ],
      "stateMutability": "view",
      "type": "function"
    },
    {
      "inputs": [],
      "name": "MIN_APPROVAL_SCORE",
      "outputs": [
        {
          "internalType": "uint256",
          "name": "",
          "type": "uint256"
        }
      ],
      "stateMutability": "view",
      "type": "function"
    },
    {
      "inputs": [],
      "name": "REQUIRED_APPROVALS",
      "outputs": [
        {
          "internalType": "uint256",
          "name": "",
          "type": "uint256"
        }
      ],
      "stateMutability": "view",
      "type": "function"
    },
    {
      "inputs": [],
      "name": "REVIEWER_ROLE",
      "outputs": [
        {
          "internalType": "bytes32",
          "name": "",
          "type": "bytes32"
        }
      ],
      "stateMutability": "view",
      "type": "function"
    },
    {
      "inputs": [
        {
          "internalType": "address",
          "name": "",
          "type": "address"
        }
      ],
      "name": "accountCourses",
      "outputs": [
        {
          "internalType": "uint256",
          "name": "courseCount",
          "type": "uint256"
        }
      ],
      "stateMutability": "view",
      "type": "function"
    },
    {
      "inputs": [
        {
          "internalType": "uint256",
          "name": "_courseId",
          "type": "uint256"
        },
        {
          "internalType": "string[]",
          "name": "_chapters",
          "type": "string[]"
        }
      ],
      "name": "addChapters",
      "outputs": [
        {
          "internalType": "bool",
          "name": "",
          "type": "bool"
        }
      ],
      "stateMutability": "nonpayable",
      "type": "function"
    },
    {
      "inputs": [
        {
          "internalType": "uint256",
          "name": "_chapterId",
          "type": "uint256"
        },
        {
          "internalType": "string",
          "name": "_lessonName",
          "type": "string"
        },
        {
          "internalType": "string",
          "name": "_lessonContent",
          "type": "string"
        }
      ],
      "name": "addLesson",
      "outputs": [],
      "stateMutability": "nonpayable",
      "type": "function"
    },
    {
      "inputs": [
        {
          "internalType": "uint256",
          "name": "_lessonId",
          "type": "uint256"
        },
        {
          "components": [
            {
              "internalType": "string",
              "name": "contentType",
              "type": "string"
            },
            {
              "internalType": "string",
              "name": "url",
              "type": "string"
            },
            {
              "internalType": "string",
              "name": "description",
              "type": "string"
            }
          ],
          "internalType": "struct Ecosystem.Resource[]",
          "name": "_resources",
          "type": "tuple[]"
        }
      ],
      "name": "addResourcesToLesson",
      "outputs": [],
      "stateMutability": "nonpayable",
      "type": "function"
    },
    {
      "inputs": [
        {
          "internalType": "address",
          "name": "newReviewer",
          "type": "address"
        }
      ],
      "name": "addReviewer",
      "outputs": [],
      "stateMutability": "nonpayable",
      "type": "function"
    },
    {
      "inputs": [
        {
          "internalType": "address",
          "name": "owner",
          "type": "address"
        },
        {
          "internalType": "address",
          "name": "spender",
          "type": "address"
        }
      ],
      "name": "allowance",
      "outputs": [
        {
          "internalType": "uint256",
          "name": "",
          "type": "uint256"
        }
      ],
      "stateMutability": "view",
      "type": "function"
    },
    {
      "inputs": [
        {
          "internalType": "address",
          "name": "",
          "type": "address"
        },
        {
          "internalType": "uint256",
          "name": "",
          "type": "uint256"
        }
      ],
      "name": "approvals",
      "outputs": [
        {
          "internalType": "bool",
          "name": "",
          "type": "bool"
        }
      ],
      "stateMutability": "view",
      "type": "function"
    },
    {
      "inputs": [
        {
          "internalType": "address",
          "name": "spender",
          "type": "address"
        },
        {
          "internalType": "uint256",
          "name": "value",
          "type": "uint256"
        }
      ],
      "name": "approve",
      "outputs": [
        {
          "internalType": "bool",
          "name": "",
          "type": "bool"
        }
      ],
      "stateMutability": "nonpayable",
      "type": "function"
    },
    {
      "inputs": [
        {
          "internalType": "uint256",
          "name": "_courseId",
          "type": "uint256"
        }
      ],
      "name": "approveCourse",
      "outputs": [],
      "stateMutability": "nonpayable",
      "type": "function"
    },
    {
      "inputs": [
        {
          "internalType": "address",
          "name": "account",
          "type": "address"
        }
      ],
      "name": "balanceOf",
      "outputs": [
        {
          "internalType": "uint256",
          "name": "",
          "type": "uint256"
        }
      ],
      "stateMutability": "view",
      "type": "function"
    },
    {
      "inputs": [
        {
          "internalType": "uint256",
          "name": "",
          "type": "uint256"
        }
      ],
      "name": "chapter",
      "outputs": [
        {
          "internalType": "uint256",
          "name": "chapterId",
          "type": "uint256"
        },
        {
          "internalType": "string",
          "name": "chapterName",
          "type": "string"
        }
      ],
      "stateMutability": "view",
      "type": "function"
    },
    {
      "inputs": [
        {
          "internalType": "uint256",
          "name": "",
          "type": "uint256"
        },
        {
          "internalType": "uint256",
          "name": "",
          "type": "uint256"
        }
      ],
      "name": "chapterLessons",
      "outputs": [
        {
          "internalType": "string",
          "name": "",
          "type": "string"
        }
      ],
      "stateMutability": "view",
      "type": "function"
    },
    {
      "inputs": [
        {
          "internalType": "uint256",
          "name": "",
          "type": "uint256"
        },
        {
          "internalType": "uint256",
          "name": "",
          "type": "uint256"
        }
      ],
      "name": "courseChapters",
      "outputs": [
        {
          "internalType": "string",
          "name": "",
          "type": "string"
        }
      ],
      "stateMutability": "view",
      "type": "function"
    },
    {
      "inputs": [],
      "name": "courseCount",
      "outputs": [
        {
          "internalType": "uint256",
          "name": "",
          "type": "uint256"
        }
      ],
      "stateMutability": "view",
      "type": "function"
    },
    {
      "inputs": [
        {
          "internalType": "uint256",
          "name": "",
          "type": "uint256"
        }
      ],
      "name": "courseObject",
      "outputs": [
        {
          "internalType": "uint256",
          "name": "courseId",
          "type": "uint256"
        },
        {
          "internalType": "string",
          "name": "courseName",
          "type": "string"
        },
        {
          "internalType": "string",
          "name": "description",
          "type": "string"
        },
        {
          "internalType": "bool",
          "name": "approved",
          "type": "bool"
        },
        {
          "internalType": "uint256",
          "name": "approvalCount",
          "type": "uint256"
        },
        {
          "internalType": "address",
          "name": "creator",
          "type": "address"
        }
      ],
      "stateMutability": "view",
      "type": "function"
    },
    {
      "inputs": [
        {
          "internalType": "uint256",
          "name": "",
          "type": "uint256"
        }
      ],
      "name": "courseReviewInitiated",
      "outputs": [
        {
          "internalType": "bool",
          "name": "",
          "type": "bool"
        }
      ],
      "stateMutability": "view",
      "type": "function"
    },
    {
      "inputs": [
        {
          "internalType": "uint256",
          "name": "",
          "type": "uint256"
        },
        {
          "internalType": "uint256",
          "name": "",
          "type": "uint256"
        }
      ],
      "name": "courseReviewers",
      "outputs": [
        {
          "internalType": "address",
          "name": "",
          "type": "address"
        }
      ],
      "stateMutability": "view",
      "type": "function"
    },
    {
      "inputs": [
        {
          "internalType": "string",
          "name": "_courseName",
          "type": "string"
        },
        {
          "internalType": "string",
          "name": "_description",
          "type": "string"
        }
      ],
      "name": "createCourse",
      "outputs": [
        {
          "internalType": "bool",
          "name": "",
          "type": "bool"
        }
      ],
      "stateMutability": "nonpayable",
      "type": "function"
    },
    {
      "inputs": [
        {
          "internalType": "uint256",
          "name": "_quizId",
          "type": "uint256"
        },
        {
          "internalType": "string",
          "name": "_questionText",
          "type": "string"
        },
        {
          "internalType": "string[]",
          "name": "_options",
          "type": "string[]"
        },
        {
          "internalType": "uint8",
          "name": "_correctChoiceIndex",
          "type": "uint8"
        }
      ],
      "name": "createQuestionWithChoices",
      "outputs": [],
      "stateMutability": "nonpayable",
      "type": "function"
    },
    {
      "inputs": [
        {
          "internalType": "uint256",
          "name": "_lessonId",
          "type": "uint256"
        },
        {
          "internalType": "string",
          "name": "_title",
          "type": "string"
        }
      ],
      "name": "createQuiz",
      "outputs": [
        {
          "internalType": "uint256",
          "name": "",
          "type": "uint256"
        }
      ],
      "stateMutability": "nonpayable",
      "type": "function"
    },
    {
      "inputs": [],
      "name": "decimals",
      "outputs": [
        {
          "internalType": "uint8",
          "name": "",
          "type": "uint8"
        }
      ],
      "stateMutability": "view",
      "type": "function"
    },
    {
      "inputs": [],
      "name": "ecosystemPoolSupply",
      "outputs": [
        {
          "internalType": "uint256",
          "name": "",
          "type": "uint256"
        }
      ],
      "stateMutability": "view",
      "type": "function"
    },
    {
      "inputs": [
        {
          "internalType": "uint256",
          "name": "_courseId",
          "type": "uint256"
        }
      ],
      "name": "enroll",
      "outputs": [
        {
          "internalType": "bool",
          "name": "",
          "type": "bool"
        }
      ],
      "stateMutability": "nonpayable",
      "type": "function"
    },
    {
      "inputs": [],
      "name": "getAllCourses",
      "outputs": [
        {
          "components": [
            {
              "internalType": "uint256",
              "name": "courseId",
              "type": "uint256"
            },
            {
              "internalType": "string",
              "name": "courseName",
              "type": "string"
            },
            {
              "internalType": "string",
              "name": "description",
              "type": "string"
            },
            {
              "internalType": "bool",
              "name": "approved",
              "type": "bool"
            },
            {
              "internalType": "uint256",
              "name": "approvalCount",
              "type": "uint256"
            },
            {
              "internalType": "address",
              "name": "creator",
              "type": "address"
            }
          ],
          "internalType": "struct Ecosystem.Course[]",
          "name": "",
          "type": "tuple[]"
        }
      ],
      "stateMutability": "view",
      "type": "function"
    },
    {
      "inputs": [],
      "name": "getAllLessons",
      "outputs": [
        {
          "components": [
            {
              "internalType": "uint256",
              "name": "lessonId",
              "type": "uint256"
            },
            {
              "internalType": "string",
              "name": "lessonName",
              "type": "string"
            },
            {
              "internalType": "string",
              "name": "lessonContent",
              "type": "string"
            },
            {
              "components": [
                {
                  "internalType": "string",
                  "name": "contentType",
                  "type": "string"
                },
                {
                  "internalType": "string",
                  "name": "url",
                  "type": "string"
                },
                {
                  "internalType": "string",
                  "name": "description",
                  "type": "string"
                }
              ],
              "internalType": "struct Ecosystem.Resource[10]",
              "name": "additionalResources",
              "type": "tuple[10]"
            },
            {
              "internalType": "uint256",
              "name": "resourceCount",
              "type": "uint256"
            }
          ],
          "internalType": "struct Ecosystem.Lesson[]",
          "name": "",
          "type": "tuple[]"
        }
      ],
      "stateMutability": "view",
      "type": "function"
    },
    {
      "inputs": [
        {
          "internalType": "uint256",
          "name": "_courseId",
          "type": "uint256"
        }
      ],
      "name": "getChapters",
      "outputs": [
        {
          "components": [
            {
              "internalType": "uint256",
              "name": "chapterId",
              "type": "uint256"
            },
            {
              "internalType": "string",
              "name": "chapterName",
              "type": "string"
            }
          ],
          "internalType": "struct Ecosystem.Chapter[]",
          "name": "",
          "type": "tuple[]"
        }
      ],
      "stateMutability": "view",
      "type": "function"
    },
    {
      "inputs": [
        {
          "internalType": "uint256",
          "name": "courseId",
          "type": "uint256"
        }
      ],
      "name": "getCourseReviewers",
      "outputs": [
        {
          "internalType": "address[]",
          "name": "",
          "type": "address[]"
        }
      ],
      "stateMutability": "view",
      "type": "function"
    },
    {
      "inputs": [],
      "name": "getCurrentEcosystemPoolSupply",
      "outputs": [
        {
          "internalType": "uint256",
          "name": "",
          "type": "uint256"
        }
      ],
      "stateMutability": "view",
      "type": "function"
    },
    {
      "inputs": [
        {
          "internalType": "uint256",
          "name": "_quizId",
          "type": "uint256"
        }
      ],
      "name": "getQuiz",
      "outputs": [
        {
          "components": [
            {
              "internalType": "uint256",
              "name": "quizId",
              "type": "uint256"
            },
            {
              "internalType": "string",
              "name": "quizTitle",
              "type": "string"
            },
            {
              "components": [
                {
                  "internalType": "uint256",
                  "name": "questionId",
                  "type": "uint256"
                },
                {
                  "internalType": "string",
                  "name": "questionText",
                  "type": "string"
                },
                {
                  "components": [
                    {
                      "internalType": "string",
                      "name": "option",
                      "type": "string"
                    },
                    {
                      "internalType": "bool",
                      "name": "isCorrect",
                      "type": "bool"
                    }
                  ],
                  "internalType": "struct Ecosystem.Choice[]",
                  "name": "choices",
                  "type": "tuple[]"
                }
              ],
              "internalType": "struct Ecosystem.Question[]",
              "name": "questions",
              "type": "tuple[]"
            }
          ],
          "internalType": "struct Ecosystem.Quiz",
          "name": "",
          "type": "tuple"
        }
      ],
      "stateMutability": "view",
      "type": "function"
    },
    {
      "inputs": [
        {
          "internalType": "bytes32",
          "name": "role",
          "type": "bytes32"
        }
      ],
      "name": "getRoleAdmin",
      "outputs": [
        {
          "internalType": "bytes32",
          "name": "",
          "type": "bytes32"
        }
      ],
      "stateMutability": "view",
      "type": "function"
    },
    {
      "inputs": [
        {
          "internalType": "bytes32",
          "name": "role",
          "type": "bytes32"
        },
        {
          "internalType": "address",
          "name": "account",
          "type": "address"
        }
      ],
      "name": "grantRole",
      "outputs": [],
      "stateMutability": "nonpayable",
      "type": "function"
    },
    {
      "inputs": [
        {
          "internalType": "bytes32",
          "name": "role",
          "type": "bytes32"
        },
        {
          "internalType": "address",
          "name": "account",
          "type": "address"
        }
      ],
      "name": "hasRole",
      "outputs": [
        {
          "internalType": "bool",
          "name": "",
          "type": "bool"
        }
      ],
      "stateMutability": "view",
      "type": "function"
    },
    {
      "inputs": [
        {
          "internalType": "uint256",
          "name": "",
          "type": "uint256"
        },
        {
          "internalType": "address",
          "name": "",
          "type": "address"
        }
      ],
      "name": "isEnrolled",
      "outputs": [
        {
          "internalType": "bool",
          "name": "",
          "type": "bool"
        }
      ],
      "stateMutability": "view",
      "type": "function"
    },
    {
      "inputs": [
        {
          "internalType": "address",
          "name": "",
          "type": "address"
        }
      ],
      "name": "isInReviewerPool",
      "outputs": [
        {
          "internalType": "bool",
          "name": "",
          "type": "bool"
        }
      ],
      "stateMutability": "view",
      "type": "function"
    },
    {
      "inputs": [
        {
          "internalType": "address",
          "name": "account",
          "type": "address"
        }
      ],
      "name": "isReviewer",
      "outputs": [
        {
          "internalType": "bool",
          "name": "",
          "type": "bool"
        }
      ],
      "stateMutability": "view",
      "type": "function"
    },
    {
      "inputs": [
        {
          "internalType": "uint256",
          "name": "",
          "type": "uint256"
        }
      ],
      "name": "lesson",
      "outputs": [
        {
          "internalType": "uint256",
          "name": "lessonId",
          "type": "uint256"
        },
        {
          "internalType": "string",
          "name": "lessonName",
          "type": "string"
        },
        {
          "internalType": "string",
          "name": "lessonContent",
          "type": "string"
        },
        {
          "internalType": "uint256",
          "name": "resourceCount",
          "type": "uint256"
        }
      ],
      "stateMutability": "view",
      "type": "function"
    },
    {
      "inputs": [
        {
          "internalType": "uint256",
          "name": "",
          "type": "uint256"
        }
      ],
      "name": "listOfChapters",
      "outputs": [
        {
          "internalType": "uint256",
          "name": "chapterId",
          "type": "uint256"
        },
        {
          "internalType": "string",
          "name": "chapterName",
          "type": "string"
        }
      ],
      "stateMutability": "view",
      "type": "function"
    },
    {
      "inputs": [
        {
          "internalType": "uint256",
          "name": "",
          "type": "uint256"
        }
      ],
      "name": "listOfCourses",
      "outputs": [
        {
          "internalType": "uint256",
          "name": "courseId",
          "type": "uint256"
        },
        {
          "internalType": "string",
          "name": "courseName",
          "type": "string"
        },
        {
          "internalType": "string",
          "name": "description",
          "type": "string"
        },
        {
          "internalType": "bool",
          "name": "approved",
          "type": "bool"
        },
        {
          "internalType": "uint256",
          "name": "approvalCount",
          "type": "uint256"
        },
        {
          "internalType": "address",
          "name": "creator",
          "type": "address"
        }
      ],
      "stateMutability": "view",
      "type": "function"
    },
    {
      "inputs": [
        {
          "internalType": "uint256",
          "name": "",
          "type": "uint256"
        }
      ],
      "name": "listOfLessons",
      "outputs": [
        {
          "internalType": "uint256",
          "name": "lessonId",
          "type": "uint256"
        },
        {
          "internalType": "string",
          "name": "lessonName",
          "type": "string"
        },
        {
          "internalType": "string",
          "name": "lessonContent",
          "type": "string"
        },
        {
          "internalType": "uint256",
          "name": "resourceCount",
          "type": "uint256"
        }
      ],
      "stateMutability": "view",
      "type": "function"
    },
    {
      "inputs": [
        {
          "internalType": "uint256",
          "name": "",
          "type": "uint256"
        }
      ],
      "name": "listOfQuestions",
      "outputs": [
        {
          "internalType": "uint256",
          "name": "questionId",
          "type": "uint256"
        },
        {
          "internalType": "string",
          "name": "questionText",
          "type": "string"
        }
      ],
      "stateMutability": "view",
      "type": "function"
    },
    {
      "inputs": [
        {
          "internalType": "uint256",
          "name": "",
          "type": "uint256"
        }
      ],
      "name": "listOfQuizzes",
      "outputs": [
        {
          "internalType": "uint256",
          "name": "quizId",
          "type": "uint256"
        },
        {
          "internalType": "string",
          "name": "quizTitle",
          "type": "string"
        }
      ],
      "stateMutability": "view",
      "type": "function"
    },
    {
      "inputs": [
        {
          "internalType": "uint256",
          "name": "",
          "type": "uint256"
        }
      ],
      "name": "listOfResource",
      "outputs": [
        {
          "internalType": "string",
          "name": "contentType",
          "type": "string"
        },
        {
          "internalType": "string",
          "name": "url",
          "type": "string"
        },
        {
          "internalType": "string",
          "name": "description",
          "type": "string"
        }
      ],
      "stateMutability": "view",
      "type": "function"
    },
    {
      "inputs": [],
      "name": "name",
      "outputs": [
        {
          "internalType": "string",
          "name": "",
          "type": "string"
        }
      ],
      "stateMutability": "view",
      "type": "function"
    },
    {
      "inputs": [],
      "name": "nextChapterId",
      "outputs": [
        {
          "internalType": "uint256",
          "name": "",
          "type": "uint256"
        }
      ],
      "stateMutability": "view",
      "type": "function"
    },
    {
      "inputs": [],
      "name": "nextChoiceId",
      "outputs": [
        {
          "internalType": "uint256",
          "name": "",
          "type": "uint256"
        }
      ],
      "stateMutability": "view",
      "type": "function"
    },
    {
      "inputs": [],
      "name": "nextCourseId",
      "outputs": [
        {
          "internalType": "uint256",
          "name": "",
          "type": "uint256"
        }
      ],
      "stateMutability": "view",
      "type": "function"
    },
    {
      "inputs": [],
      "name": "nextCourseIdd",
      "outputs": [
        {
          "internalType": "uint256",
          "name": "",
          "type": "uint256"
        }
      ],
      "stateMutability": "view",
      "type": "function"
    },
    {
      "inputs": [],
      "name": "nextLessonId",
      "outputs": [
        {
          "internalType": "uint256",
          "name": "",
          "type": "uint256"
        }
      ],
      "stateMutability": "view",
      "type": "function"
    },
    {
      "inputs": [],
      "name": "nextQuestionId",
      "outputs": [
        {
          "internalType": "uint256",
          "name": "",
          "type": "uint256"
        }
      ],
      "stateMutability": "view",
      "type": "function"
    },
    {
      "inputs": [],
      "name": "nextQuizId",
      "outputs": [
        {
          "internalType": "uint256",
          "name": "",
          "type": "uint256"
        }
      ],
      "stateMutability": "view",
      "type": "function"
    },
    {
      "inputs": [
        {
          "internalType": "uint256",
          "name": "",
          "type": "uint256"
        }
      ],
      "name": "questions",
      "outputs": [
        {
          "internalType": "uint256",
          "name": "questionId",
          "type": "uint256"
        },
        {
          "internalType": "string",
          "name": "questionText",
          "type": "string"
        }
      ],
      "stateMutability": "view",
      "type": "function"
    },
    {
      "inputs": [
        {
          "internalType": "uint256",
          "name": "",
          "type": "uint256"
        }
      ],
      "name": "quizzes",
      "outputs": [
        {
          "internalType": "uint256",
          "name": "quizId",
          "type": "uint256"
        },
        {
          "internalType": "string",
          "name": "quizTitle",
          "type": "string"
        }
      ],
      "stateMutability": "view",
      "type": "function"
    },
    {
      "inputs": [
        {
          "internalType": "address",
          "name": "reviewer",
          "type": "address"
        }
      ],
      "name": "removeReviewer",
      "outputs": [],
      "stateMutability": "nonpayable",
      "type": "function"
    },
    {
      "inputs": [
        {
          "internalType": "bytes32",
          "name": "role",
          "type": "bytes32"
        },
        {
          "internalType": "address",
          "name": "callerConfirmation",
          "type": "address"
        }
      ],
      "name": "renounceRole",
      "outputs": [],
      "stateMutability": "nonpayable",
      "type": "function"
    },
    {
      "inputs": [
        {
          "internalType": "uint256",
          "name": "",
          "type": "uint256"
        }
      ],
      "name": "reviewerPool",
      "outputs": [
        {
          "internalType": "address",
          "name": "",
          "type": "address"
        }
      ],
      "stateMutability": "view",
      "type": "function"
    },
    {
      "inputs": [
        {
          "internalType": "uint256",
          "name": "",
          "type": "uint256"
        },
        {
          "internalType": "address",
          "name": "",
          "type": "address"
        }
      ],
      "name": "reviews",
      "outputs": [
        {
          "internalType": "uint256",
          "name": "learnerAgency",
          "type": "uint256"
        },
        {
          "internalType": "uint256",
          "name": "criticalThinking",
          "type": "uint256"
        },
        {
          "internalType": "uint256",
          "name": "collaborativeLearning",
          "type": "uint256"
        },
        {
          "internalType": "uint256",
          "name": "reflectivePractice",
          "type": "uint256"
        },
        {
          "internalType": "uint256",
          "name": "adaptiveLearning",
          "type": "uint256"
        },
        {
          "internalType": "uint256",
          "name": "authenticLearning",
          "type": "uint256"
        },
        {
          "internalType": "uint256",
          "name": "technologyIntegration",
          "type": "uint256"
        },
        {
          "internalType": "uint256",
          "name": "learnerSupport",
          "type": "uint256"
        },
        {
          "internalType": "uint256",
          "name": "assessmentForLearning",
          "type": "uint256"
        },
        {
          "internalType": "uint256",
          "name": "engagementAndMotivation",
          "type": "uint256"
        },
        {
          "internalType": "bool",
          "name": "isSubmitted",
          "type": "bool"
        }
      ],
      "stateMutability": "view",
      "type": "function"
    },
    {
      "inputs": [
        {
          "internalType": "bytes32",
          "name": "role",
          "type": "bytes32"
        },
        {
          "internalType": "address",
          "name": "account",
          "type": "address"
        }
      ],
      "name": "revokeRole",
      "outputs": [],
      "stateMutability": "nonpayable",
      "type": "function"
    },
    {
      "inputs": [
        {
          "internalType": "uint256",
          "name": "courseId",
          "type": "uint256"
        }
      ],
      "name": "selectCourseReviewers",
      "outputs": [],
      "stateMutability": "nonpayable",
      "type": "function"
    },
    {
      "inputs": [
        {
          "internalType": "uint256",
          "name": "courseId",
          "type": "uint256"
        },
        {
          "internalType": "uint256",
          "name": "learnerAgency",
          "type": "uint256"
        },
        {
          "internalType": "uint256",
          "name": "criticalThinking",
          "type": "uint256"
        },
        {
          "internalType": "uint256",
          "name": "collaborativeLearning",
          "type": "uint256"
        },
        {
          "internalType": "uint256",
          "name": "reflectivePractice",
          "type": "uint256"
        },
        {
          "internalType": "uint256",
          "name": "adaptiveLearning",
          "type": "uint256"
        },
        {
          "internalType": "uint256",
          "name": "authenticLearning",
          "type": "uint256"
        },
        {
          "internalType": "uint256",
          "name": "technologyIntegration",
          "type": "uint256"
        },
        {
          "internalType": "uint256",
          "name": "learnerSupport",
          "type": "uint256"
        },
        {
          "internalType": "uint256",
          "name": "assessmentForLearning",
          "type": "uint256"
        },
        {
          "internalType": "uint256",
          "name": "engagementAndMotivation",
          "type": "uint256"
        }
      ],
      "name": "submitReview",
      "outputs": [],
      "stateMutability": "nonpayable",
      "type": "function"
    },
    {
      "inputs": [
        {
          "internalType": "bytes4",
          "name": "interfaceId",
          "type": "bytes4"
        }
      ],
      "name": "supportsInterface",
      "outputs": [
        {
          "internalType": "bool",
          "name": "",
          "type": "bool"
        }
      ],
      "stateMutability": "view",
      "type": "function"
    },
    {
      "inputs": [],
      "name": "symbol",
      "outputs": [
        {
          "internalType": "string",
          "name": "",
          "type": "string"
        }
      ],
      "stateMutability": "view",
      "type": "function"
    },
    {
      "inputs": [],
      "name": "totalSupply",
      "outputs": [
        {
          "internalType": "uint256",
          "name": "",
          "type": "uint256"
        }
      ],
      "stateMutability": "view",
      "type": "function"
    },
    {
      "inputs": [
        {
          "internalType": "address",
          "name": "to",
          "type": "address"
        },
        {
          "internalType": "uint256",
          "name": "value",
          "type": "uint256"
        }
      ],
      "name": "transfer",
      "outputs": [
        {
          "internalType": "bool",
          "name": "",
          "type": "bool"
        }
      ],
      "stateMutability": "nonpayable",
      "type": "function"
    },
    {
      "inputs": [
        {
          "internalType": "address",
          "name": "from",
          "type": "address"
        },
        {
          "internalType": "address",
          "name": "to",
          "type": "address"
        },
        {
          "internalType": "uint256",
          "name": "value",
          "type": "uint256"
        }
      ],
      "name": "transferFrom",
      "outputs": [
        {
          "internalType": "bool",
          "name": "",
          "type": "bool"
        }
      ],
      "stateMutability": "nonpayable",
      "type": "function"
    },
    {
      "inputs": [
        {
          "internalType": "uint256",
          "name": "_courseId",
          "type": "uint256"
        }
      ],
      "name": "unEnroll",
      "outputs": [
        {
          "internalType": "bool",
          "name": "",
          "type": "bool"
        }
      ],
      "stateMutability": "nonpayable",
      "type": "function"
    }
  ],
  "bytecode": "0x608060405234801561001057600080fd5b506040516198953803806198958339818101604052810190610032919061060a565b80806040518060400160405280600a81526020017f4142594120544f4b454e000000000000000000000000000000000000000000008152506040518060400160405280600681526020017f414259544b4e000000000000000000000000000000000000000000000000000081525081600390816100af9190610874565b5080600490816100bf9190610874565b505050600481511015610107576040517f08c379a00000000000000000000000000000000000000000000000000000000081526004016100fe906109c9565b60405180910390fd5b61011a6000801b3361028f60201b60201c565b5060005b815181101561026e576101717fc10c77be35aff266144ed64c26a1fa104bae2f284ae99ac4a34203454704a18583838151811061015e5761015d6109e9565b5b602002602001015161028f60201b60201c565b506006828281518110610187576101866109e9565b5b60200260200101519080600181540180825580915050600190039060005260206000200160009091909190916101000a81548173ffffffffffffffffffffffffffffffffffffffff021916908373ffffffffffffffffffffffffffffffffffffffff160217905550600160076000848481518110610208576102076109e9565b5b602002602001015173ffffffffffffffffffffffffffffffffffffffff1673ffffffffffffffffffffffffffffffffffffffff16815260200190815260200160002060006101000a81548160ff021916908315150217905550808060010191505061011e565b50506001600881905550610288600961038d60201b60201c565b5050610a18565b60006102a183836103cc60201b60201c565b6103825760016005600085815260200190815260200160002060000160008473ffffffffffffffffffffffffffffffffffffffff1673ffffffffffffffffffffffffffffffffffffffff16815260200190815260200160002060006101000a81548160ff02191690831515021790555061031f61043760201b60201c565b73ffffffffffffffffffffffffffffffffffffffff168273ffffffffffffffffffffffffffffffffffffffff16847f2f8788117e7eff1d82e926ec794901d17c78024a50270940304540a733656f0d60405160405180910390a460019050610387565b600090505b92915050565b60018160000181905550600181600101819055506001816002018190555060018160030181905550600181600401819055506001816005018190555050565b60006005600084815260200190815260200160002060000160008373ffffffffffffffffffffffffffffffffffffffff1673ffffffffffffffffffffffffffffffffffffffff16815260200190815260200160002060009054906101000a900460ff16905092915050565b600033905090565b6000604051905090565b600080fd5b600080fd5b600080fd5b6000601f19601f8301169050919050565b7f4e487b7100000000000000000000000000000000000000000000000000000000600052604160045260246000fd5b6104a182610458565b810181811067ffffffffffffffff821117156104c0576104bf610469565b5b80604052505050565b60006104d361043f565b90506104df8282610498565b919050565b600067ffffffffffffffff8211156104ff576104fe610469565b5b602082029050602081019050919050565b600080fd5b600073ffffffffffffffffffffffffffffffffffffffff82169050919050565b600061054082610515565b9050919050565b61055081610535565b811461055b57600080fd5b50565b60008151905061056d81610547565b92915050565b6000610586610581846104e4565b6104c9565b905080838252602082019050602084028301858111156105a9576105a8610510565b5b835b818110156105d257806105be888261055e565b8452602084019350506020810190506105ab565b5050509392505050565b600082601f8301126105f1576105f0610453565b5b8151610601848260208601610573565b91505092915050565b6000602082840312156106205761061f610449565b5b600082015167ffffffffffffffff81111561063e5761063d61044e565b5b61064a848285016105dc565b91505092915050565b600081519050919050565b7f4e487b7100000000000000000000000000000000000000000000000000000000600052602260045260246000fd5b600060028204905060018216806106a557607f821691505b6020821081036106b8576106b761065e565b5b50919050565b60008190508160005260206000209050919050565b60006020601f8301049050919050565b600082821b905092915050565b6000600883026107207fffffffffffffffffffffffffffffffffffffffffffffffffffffffffffffffff826106e3565b61072a86836106e3565b95508019841693508086168417925050509392505050565b6000819050919050565b6000819050919050565b600061077161076c61076784610742565b61074c565b610742565b9050919050565b6000819050919050565b61078b83610756565b61079f61079782610778565b8484546106f0565b825550505050565b600090565b6107b46107a7565b6107bf818484610782565b505050565b5b818110156107e3576107d86000826107ac565b6001810190506107c5565b5050565b601f821115610828576107f9816106be565b610802846106d3565b81016020851015610811578190505b61082561081d856106d3565b8301826107c4565b50505b505050565b600082821c905092915050565b600061084b6000198460080261082d565b1980831691505092915050565b6000610864838361083a565b9150826002028217905092915050565b61087d82610653565b67ffffffffffffffff81111561089657610895610469565b5b6108a0825461068d565b6108ab8282856107e7565b600060209050601f8311600181146108de57600084156108cc578287015190505b6108d68582610858565b86555061093e565b601f1984166108ec866106be565b60005b82811015610914578489015182556001820191506020850194506020810190506108ef565b86831015610931578489015161092d601f89168261083a565b8355505b6001600288020188555050505b505050505050565b600082825260208201905092915050565b7f4174206c6561737420342072657669657765727320617265207265717569726560008201527f6400000000000000000000000000000000000000000000000000000000000000602082015250565b60006109b3602183610946565b91506109be82610957565b604082019050919050565b600060208201905081810360008301526109e2816109a6565b9050919050565b7f4e487b7100000000000000000000000000000000000000000000000000000000600052603260045260246000fd5b618e6e80610a276000396000f3fe608060405234801561001057600080fd5b50600436106104495760003560e01c80637528499811610241578063bfd2f4c51161013b578063d547741f116100c3578063e503f10811610087578063e503f10814610f04578063eb264b9c14610f22578063f57d585b14610f40578063fdc6258a14610f70578063ffabc67314610fa057610449565b8063d547741f14610e4a578063d93f2caa14610e66578063dd62ed3e14610e84578063ddfc79fb14610eb4578063ded5c18d14610ee657610449565b8063c7954e4c1161010a578063c7954e4c14610d93578063c90c884d14610db1578063c9442dac14610de2578063c976831514610dfe578063d3751bfc14610e2e57610449565b8063bfd2f4c514610cc6578063c12804fb14610cf9578063c293bbbe14610d33578063c491b04c14610d6357610449565b8063a1cd05b1116101c9578063a3f7e0961161018d578063a3f7e09614610be8578063a9059cbb14610c18578063aa95da3a14610c48578063ac678a9314610c78578063ac957c6314610ca857610449565b8063a1cd05b114610b1b578063a217fddf14610b4b578063a26a795314610b69578063a296ea5814610b99578063a3ef204114610bb757610449565b806388409afa1161021057806388409afa14610a625780638ea6e2fd14610a9357806391d1485414610aaf57806395d89b4114610adf578063a14ecbdf14610afd57610449565b806375284998146109ee57806375b9d86914610a0a5780637d83daf214610a26578063846f815214610a4457610449565b80632fab55af1161035257806351d93c81116102da578063660551591161029e57806366055159146109315780636b000fa71461094f5780636fdb67f71461096d57806370a08231146109a257806373a82b5f146109d257610449565b806351d93c811461087a57806358a3fa25146108ab578063599c5533146108c75780635d33d452146108e5578063632c224b1461090157610449565b806334ed4bdb1161032157806334ed4bdb146107c257806336568abe146107f25780633693dcfa1461080e5780633b129a561461082c5780634d42ef481461084a57610449565b80632fab55af14610725578063313ce5671461075557806331b1b9781461077357806332cb6b0c146107a457610449565b806323b872dd116103d5578063295b825a116103a4578063295b825a146106525780632990db7c1461068357806329a0be65146106b85780632aac61ae146106d65780632f2ff15d1461070957610449565b806323b872dd146105b6578063248a9ca3146105e6578063274202f01461061657806327ff62231461063457610449565b8063095ea7b31161041c578063095ea7b3146104d857806311ce15df1461050857806318160ddd1461053857806319f102ec1461055657806320bd03161461058657610449565b806301ffc9a71461044e57806304e48bd11461047e578063057f46bb1461049c57806306fdde03146104ba575b600080fd5b610468600480360381019061046391906164d8565b610fd0565b6040516104759190616520565b60405180910390f35b61048661104a565b6040516104939190616786565b60405180910390f35b6104a461134c565b6040516104b191906167b7565b60405180910390f35b6104c2611352565b6040516104cf919061681c565b60405180910390f35b6104f260048036038101906104ed9190616896565b6113e4565b6040516104ff9190616520565b60405180910390f35b610522600480360381019061051d91906168d6565b611407565b60405161052f9190616520565b60405180910390f35b610540611427565b60405161054d91906167b7565b60405180910390f35b610570600480360381019061056b91906168d6565b611431565b60405161057d9190616912565b60405180910390f35b6105a0600480360381019061059b91906168d6565b611470565b6040516105ad9190616520565b60405180910390f35b6105d060048036038101906105cb919061692d565b6115e7565b6040516105dd9190616520565b60405180910390f35b61060060048036038101906105fb91906169b6565b611616565b60405161060d91906169f2565b60405180910390f35b61061e611636565b60405161062b91906167b7565b60405180910390f35b61063c61165e565b60405161064991906167b7565b60405180910390f35b61066c600480360381019061066791906168d6565b611663565b60405161067a929190616a0d565b60405180910390f35b61069d600480360381019061069891906168d6565b61171f565b6040516106af96959493929190616a3d565b60405180910390f35b6106c0611898565b6040516106cd91906167b7565b60405180910390f35b6106f060048036038101906106eb91906168d6565b61189e565b6040516107009493929190616aac565b60405180910390f35b610723600480360381019061071e9190616aff565b6119ee565b005b61073f600480360381019061073a9190616d5a565b611a10565b60405161074c9190616520565b60405180910390f35b61075d611c7d565b60405161076a9190616dd2565b60405180910390f35b61078d600480360381019061078891906168d6565b611c86565b60405161079b929190616a0d565b60405180910390f35b6107ac611d31565b6040516107b991906167b7565b60405180910390f35b6107dc60048036038101906107d79190616ded565b611d41565b6040516107e991906167b7565b60405180910390f35b61080c60048036038101906108079190616aff565b611d5f565b005b610816611dda565b60405161082391906169f2565b60405180910390f35b610834611dfe565b60405161084191906169f2565b60405180910390f35b610864600480360381019061085f9190616e1a565b611e22565b604051610871919061681c565b60405180910390f35b610894600480360381019061088f91906168d6565b611edb565b6040516108a2929190616a0d565b60405180910390f35b6108c560048036038101906108c09190616e5a565b611f97565b005b6108cf61225d565b6040516108dc91906167b7565b60405180910390f35b6108ff60048036038101906108fa9190616fa9565b612262565b005b61091b60048036038101906109169190617009565b6125fb565b60405161092891906167b7565b60405180910390f35b610939612758565b60405161094691906167b7565b60405180910390f35b61095761275e565b60405161096491906167b7565b60405180910390f35b610987600480360381019061098291906168d6565b612764565b60405161099996959493929190616a3d565b60405180910390f35b6109bc60048036038101906109b79190616ded565b6128ed565b6040516109c991906167b7565b60405180910390f35b6109ec60048036038101906109e79190616ded565b612935565b005b610a086004803603810190610a0391906168d6565b612b19565b005b610a246004803603810190610a1f9190617065565b612d33565b005b610a2e612eda565b604051610a3b91906167b7565b60405180910390f35b610a4c612ee0565b604051610a5991906167b7565b60405180910390f35b610a7c6004803603810190610a7791906168d6565b612eec565b604051610a8a929190616a0d565b60405180910390f35b610aad6004803603810190610aa891906168d6565b612f98565b005b610ac96004803603810190610ac49190616aff565b613302565b604051610ad69190616520565b60405180910390f35b610ae761336d565b604051610af4919061681c565b60405180910390f35b610b056133ff565b604051610b1291906167b7565b60405180910390f35b610b356004803603810190610b309190616e1a565b613405565b604051610b429190616912565b60405180910390f35b610b53613453565b604051610b6091906169f2565b60405180910390f35b610b836004803603810190610b7e91906170f0565b61345a565b604051610b909190616520565b60405180910390f35b610ba1613831565b604051610bae91906173c2565b60405180910390f35b610bd16004803603810190610bcc91906168d6565b613c3b565b604051610bdf929190616a0d565b60405180910390f35b610c026004803603810190610bfd91906168d6565b613ce7565b604051610c0f9190617653565b60405180910390f35b610c326004803603810190610c2d9190616896565b614010565b604051610c3f9190616520565b60405180910390f35b610c626004803603810190610c5d9190616e1a565b614033565b604051610c6f919061681c565b60405180910390f35b610c926004803603810190610c8d91906168d6565b6140ec565b604051610c9f9190617774565b60405180910390f35b610cb0614284565b604051610cbd91906167b7565b60405180910390f35b610ce06004803603810190610cdb91906168d6565b614289565b604051610cf09493929190616aac565b60405180910390f35b610d136004803603810190610d0e9190617796565b6143c9565b604051610d2a9b9a999897969594939291906177d6565b60405180910390f35b610d4d6004803603810190610d4891906168d6565b61443d565b604051610d5a9190617930565b60405180910390f35b610d7d6004803603810190610d789190616ded565b6144de565b604051610d8a9190616520565b60405180910390f35b610d9b6144fe565b604051610da891906167b7565b60405180910390f35b610dcb6004803603810190610dc691906168d6565b614508565b604051610dd9929190616a0d565b60405180910390f35b610dfc6004803603810190610df79190616ded565b6145c4565b005b610e186004803603810190610e139190617796565b6148ae565b604051610e259190616520565b60405180910390f35b610e486004803603810190610e43919061797e565b6148dd565b005b610e646004803603810190610e5f9190616aff565b614cee565b005b610e6e614d10565b604051610e7b91906167b7565b60405180910390f35b610e9e6004803603810190610e999190617a1d565b614d1c565b604051610eab91906167b7565b60405180910390f35b610ece6004803603810190610ec991906168d6565b614da3565b604051610edd93929190617a5d565b60405180910390f35b610eee614f75565b604051610efb91906167b7565b60405180910390f35b610f0c614f82565b604051610f1991906167b7565b60405180910390f35b610f2a614f88565b604051610f3791906167b7565b60405180910390f35b610f5a6004803603810190610f5591906168d6565b614f8e565b604051610f679190616520565b60405180910390f35b610f8a6004803603810190610f859190616ded565b61516a565b604051610f979190616520565b60405180910390f35b610fba6004803603810190610fb59190616896565b61519d565b604051610fc79190616520565b60405180910390f35b60007f7965db0b000000000000000000000000000000000000000000000000000000007bffffffffffffffffffffffffffffffffffffffffffffffffffffffff1916827bffffffffffffffffffffffffffffffffffffffffffffffffffffffff191614806110435750611042826151cc565b5b9050919050565b6060600060248054905067ffffffffffffffff81111561106d5761106c616b44565b5b6040519080825280602002602001820160405280156110a657816020015b61109361600d565b81526020019060019003908161108b5790505b50905060005b602480549050811015611344576040518060c00160405280602483815481106110d8576110d7617aa9565b5b90600052602060002090600602016000015481526020016024838154811061110357611102617aa9565b5b9060005260206000209060060201600101805461111f90617b07565b80601f016020809104026020016040519081016040528092919081815260200182805461114b90617b07565b80156111985780601f1061116d57610100808354040283529160200191611198565b820191906000526020600020905b81548152906001019060200180831161117b57829003601f168201915b50505050508152602001602483815481106111b6576111b5617aa9565b5b906000526020600020906006020160020180546111d290617b07565b80601f01602080910402602001604051908101604052809291908181526020018280546111fe90617b07565b801561124b5780601f106112205761010080835404028352916020019161124b565b820191906000526020600020905b81548152906001019060200180831161122e57829003601f168201915b505050505081526020016024838154811061126957611268617aa9565b5b906000526020600020906006020160030160009054906101000a900460ff1615158152602001602483815481106112a3576112a2617aa9565b5b9060005260206000209060060201600401548152602001602483815481106112ce576112cd617aa9565b5b906000526020600020906006020160050160009054906101000a900473ffffffffffffffffffffffffffffffffffffffff1673ffffffffffffffffffffffffffffffffffffffff1681525082828151811061132c5761132b617aa9565b5b602002602001018190525080806001019150506110ac565b508091505090565b60125481565b60606003805461136190617b07565b80601f016020809104026020016040519081016040528092919081815260200182805461138d90617b07565b80156113da5780601f106113af576101008083540402835291602001916113da565b820191906000526020600020905b8154815290600101906020018083116113bd57829003601f168201915b5050505050905090565b6000806113ef615236565b90506113fc81858561523e565b600191505092915050565b60226020528060005260406000206000915054906101000a900460ff1681565b6000600254905090565b6006818154811061144157600080fd5b906000526020600020016000915054906101000a900473ffffffffffffffffffffffffffffffffffffffff1681565b600061147a615250565b6023600083815260200190815260200160002060003373ffffffffffffffffffffffffffffffffffffffff1673ffffffffffffffffffffffffffffffffffffffff16815260200190815260200160002060009054906101000a900460ff16611517576040517f08c379a000000000000000000000000000000000000000000000000000000000815260040161150e90617baa565b60405180910390fd5b60006023600084815260200190815260200160002060003373ffffffffffffffffffffffffffffffffffffffff1673ffffffffffffffffffffffffffffffffffffffff16815260200190815260200160002060006101000a81548160ff02191690831515021790555061159233671bc16d674ec80000615296565b3373ffffffffffffffffffffffffffffffffffffffff16827f9b244c565b926d7f4e915b69f3a5c6afc2231322d0d44e821076ad8879d0d68360405160405180910390a3600190506115e26152bd565b919050565b6000806115f2615236565b90506115ff8582856152c7565b61160a85858561535b565b60019150509392505050565b600060056000838152602001908152602001600020600101549050919050565b6064600f6b204fce5e3e250261100000006116519190617bf9565b61165b9190617c6a565b81565b606481565b6028818154811061167357600080fd5b906000526020600020906003020160009150905080600001549080600101805461169c90617b07565b80601f01602080910402602001604051908101604052809291908181526020018280546116c890617b07565b80156117155780601f106116ea57610100808354040283529160200191611715565b820191906000526020600020905b8154815290600101906020018083116116f857829003601f168201915b5050505050905082565b601760205280600052604060002060009150905080600001549080600101805461174890617b07565b80601f016020809104026020016040519081016040528092919081815260200182805461177490617b07565b80156117c15780601f10611796576101008083540402835291602001916117c1565b820191906000526020600020905b8154815290600101906020018083116117a457829003601f168201915b5050505050908060020180546117d690617b07565b80601f016020809104026020016040519081016040528092919081815260200182805461180290617b07565b801561184f5780601f106118245761010080835404028352916020019161184f565b820191906000526020600020905b81548152906001019060200180831161183257829003601f168201915b5050505050908060030160009054906101000a900460ff16908060040154908060050160009054906101000a900473ffffffffffffffffffffffffffffffffffffffff16905086565b60135481565b602681815481106118ae57600080fd5b90600052602060002090602202016000915090508060000154908060010180546118d790617b07565b80601f016020809104026020016040519081016040528092919081815260200182805461190390617b07565b80156119505780601f1061192557610100808354040283529160200191611950565b820191906000526020600020905b81548152906001019060200180831161193357829003601f168201915b50505050509080600201805461196590617b07565b80601f016020809104026020016040519081016040528092919081815260200182805461199190617b07565b80156119de5780601f106119b3576101008083540402835291602001916119de565b820191906000526020600020905b8154815290600101906020018083116119c157829003601f168201915b5050505050908060210154905084565b6119f782611616565b611a008161544f565b611a0a8383615463565b50505050565b60008073ffffffffffffffffffffffffffffffffffffffff166017600085815260200190815260200160002060050160009054906101000a900473ffffffffffffffffffffffffffffffffffffffff1673ffffffffffffffffffffffffffffffffffffffff1603611ab6576040517f08c379a0000000000000000000000000000000000000000000000000000000008152600401611aad90617ce7565b60405180910390fd5b60005b8251811015611baa57600060405180604001604052806012548152602001858481518110611aea57611ae9617aa9565b5b602002602001015181525090506025819080600181540180825580915050600190039060005260206000209060020201600090919091909150600082015181600001556020820151816001019081611b429190617eb3565b5050506000601254905081601b6000838152602001908152602001600020600082015181600001556020820151816001019081611b7f9190617eb3565b5090505060126000815480929190611b9690617f85565b919050555050508080600101915050611ab9565b50601c60008481526020019081526020016000206000611bca919061605b565b60005b8251811015611c4357601c6000858152602001908152602001600020838281518110611bfc57611bfb617aa9565b5b6020026020010151908060018154018082558091505060019003906000526020600020016000909190919091509081611c359190617eb3565b508080600101915050611bcd565b508151837f1eb97e969f52c132bb6c79817d1f9001078fff0cd328ce625628e1fb4cc0e7de60405160405180910390a36001905092915050565b60006012905090565b60208052806000526040600020600091509050806000015490806001018054611cae90617b07565b80601f0160208091040260200160405190810160405280929190818152602001828054611cda90617b07565b8015611d275780601f10611cfc57610100808354040283529160200191611d27565b820191906000526020600020905b815481529060010190602001808311611d0a57829003601f168201915b5050505050905082565b6b204fce5e3e2502611000000081565b60196020528060005260406000206000915090508060000154905081565b611d67615236565b73ffffffffffffffffffffffffffffffffffffffff168173ffffffffffffffffffffffffffffffffffffffff1614611dcb576040517f6697b23200000000000000000000000000000000000000000000000000000000815260040160405180910390fd5b611dd58282615555565b505050565b7fadb22091b155738d2e889eb96f509d2a7c93234236b30400927feb4a6a15ab0081565b7fc10c77be35aff266144ed64c26a1fa104bae2f284ae99ac4a34203454704a18581565b601c6020528160005260406000208181548110611e3e57600080fd5b90600052602060002001600091509150508054611e5a90617b07565b80601f0160208091040260200160405190810160405280929190818152602001828054611e8690617b07565b8015611ed35780601f10611ea857610100808354040283529160200191611ed3565b820191906000526020600020905b815481529060010190602001808311611eb657829003601f168201915b505050505081565b60298181548110611eeb57600080fd5b9060005260206000209060030201600091509050806000015490806001018054611f1490617b07565b80601f0160208091040260200160405190810160405280929190818152602001828054611f4090617b07565b8015611f8d5780601f10611f6257610100808354040283529160200191611f8d565b820191906000526020600020905b815481529060010190602001808311611f7057829003601f168201915b5050505050905082565b7fc10c77be35aff266144ed64c26a1fa104bae2f284ae99ac4a34203454704a185611fc18161544f565b611fcb8c33615648565b61200a576040517f08c379a00000000000000000000000000000000000000000000000000000000081526004016120019061803f565b60405180910390fd5b601860008d815260200190815260200160002060003373ffffffffffffffffffffffffffffffffffffffff1673ffffffffffffffffffffffffffffffffffffffff168152602001908152602001600020600a0160009054906101000a900460ff16156120ab576040517f08c379a00000000000000000000000000000000000000000000000000000000081526004016120a2906180d1565b60405180910390fd5b6120bd8b8b8b8b8b8b8b8b8b8b615713565b6040518061016001604052808c81526020018b81526020018a815260200189815260200188815260200187815260200186815260200185815260200184815260200183815260200160011515815250601860008e815260200190815260200160002060003373ffffffffffffffffffffffffffffffffffffffff1673ffffffffffffffffffffffffffffffffffffffff168152602001908152602001600020600082015181600001556020820151816001015560408201518160020155606082015181600301556080820151816004015560a0820151816005015560c0820151816006015560e082015181600701556101008201518160080155610120820151816009015561014082015181600a0160006101000a81548160ff0219169083151502179055509050506050612240601860008f815260200190815260200160002060003373ffffffffffffffffffffffffffffffffffffffff1673ffffffffffffffffffffffffffffffffffffffff1681526020019081526020016000206157d8565b1061224f5761224e8c612b19565b5b505050505050505050505050565b600281565b6000601d6000858152602001908152602001600020905060008160000154036122c0576040517f08c379a00000000000000000000000000000000000000000000000000000000081526004016122b79061813d565b60405180910390fd5b600081602101549050600a84849050826122da919061815d565b111561231b576040517f08c379a0000000000000000000000000000000000000000000000000000000008152600401612312906181dd565b60405180910390fd5b60005b8484905081101561252057604051806060016040528086868481811061234757612346617aa9565b5b9050602002810190612359919061820c565b80600001906123689190618234565b8080601f016020809104026020016040519081016040528093929190818152602001838380828437600081840152601f19601f8201169050808301925050505050505081526020018686848181106123c3576123c2617aa9565b5b90506020028101906123d5919061820c565b80602001906123e49190618234565b8080601f016020809104026020016040519081016040528093929190818152602001838380828437600081840152601f19601f82011690508083019250505050505050815260200186868481811061243f5761243e617aa9565b5b9050602002810190612451919061820c565b80604001906124609190618234565b8080601f016020809104026020016040519081016040528093929190818152602001838380828437600081840152601f19601f820116905080830192505050505050508152508360030183600a81106124bc576124bb617aa9565b5b6003020160008201518160000190816124d59190617eb3565b5060208201518160010190816124eb9190617eb3565b5060408201518160020190816125019190617eb3565b50905050818061251090617f85565b925050808060010191505061231e565b5080826021018190555060005b6026805490508110156125f357856026828154811061254f5761254e617aa9565b5b906000526020600020906022020160000154036125e657826026828154811061257b5761257a617aa9565b5b906000526020600020906022020160008201548160000155600182018160010190816125a791906182ad565b50600282018160020190816125bc91906182ad565b50600382018160030190600a6125d392919061607c565b50602182015481602101559050506125f3565b808060010191505061252d565b505050505050565b60008060145490506000601d6000868152602001908152602001600020600001540361265c576040517f08c379a0000000000000000000000000000000000000000000000000000000008152600401612653906183e1565b60405180910390fd5b6000601f600083815260200190815260200160002090508181600001819055508381600101908161268d9190617eb3565b50601460008154809291906126a190617f85565b9190505550602881908060018154018082558091505060019003906000526020600020906003020160009091909190915060008201548160000155600182018160010190816126f091906182ad565b5060028201816002019080546127079291906160fe565b50505083604051612718919061843d565b6040518091039020827fbf27702cefbc4aea50d7c73cfee96f84f5b908f62aeafcd8b0aeae202c15050960405160405180910390a3819250505092915050565b60105481565b60165481565b6024818154811061277457600080fd5b906000526020600020906006020160009150905080600001549080600101805461279d90617b07565b80601f01602080910402602001604051908101604052809291908181526020018280546127c990617b07565b80156128165780601f106127eb57610100808354040283529160200191612816565b820191906000526020600020905b8154815290600101906020018083116127f957829003601f168201915b50505050509080600201805461282b90617b07565b80601f016020809104026020016040519081016040528092919081815260200182805461285790617b07565b80156128a45780601f10612879576101008083540402835291602001916128a4565b820191906000526020600020905b81548152906001019060200180831161288757829003601f168201915b5050505050908060030160009054906101000a900460ff16908060040154908060050160009054906101000a900473ffffffffffffffffffffffffffffffffffffffff16905086565b60008060008373ffffffffffffffffffffffffffffffffffffffff1673ffffffffffffffffffffffffffffffffffffffff168152602001908152602001600020549050919050565b7fc10c77be35aff266144ed64c26a1fa104bae2f284ae99ac4a34203454704a18561295f8161544f565b600760008373ffffffffffffffffffffffffffffffffffffffff1673ffffffffffffffffffffffffffffffffffffffff16815260200190815260200160002060009054906101000a900460ff16156129ec576040517f08c379a00000000000000000000000000000000000000000000000000000000081526004016129e3906184a0565b60405180910390fd5b612a167fc10c77be35aff266144ed64c26a1fa104bae2f284ae99ac4a34203454704a18583615463565b506006829080600181540180825580915050600190039060005260206000200160009091909190916101000a81548173ffffffffffffffffffffffffffffffffffffffff021916908373ffffffffffffffffffffffffffffffffffffffff1602179055506001600760008473ffffffffffffffffffffffffffffffffffffffff1673ffffffffffffffffffffffffffffffffffffffff16815260200190815260200160002060006101000a81548160ff0219169083151502179055508173ffffffffffffffffffffffffffffffffffffffff167fe1cb5e1230cc02e62c60b81c1aa5ade512f3eac296edb28628b4cf344f47f93160405160405180910390a25050565b7fc10c77be35aff266144ed64c26a1fa104bae2f284ae99ac4a34203454704a185612b438161544f565b60006017600084815260200190815260200160002090508060030160009054906101000a900460ff1615612bac576040517f08c379a0000000000000000000000000000000000000000000000000000000008152600401612ba39061850c565b60405180910390fd5b601a60003373ffffffffffffffffffffffffffffffffffffffff1673ffffffffffffffffffffffffffffffffffffffff168152602001908152602001600020600084815260200190815260200160002060009054906101000a900460ff1615612c4a576040517f08c379a0000000000000000000000000000000000000000000000000000000008152600401612c419061859e565b60405180910390fd5b6001601a60003373ffffffffffffffffffffffffffffffffffffffff1673ffffffffffffffffffffffffffffffffffffffff168152602001908152602001600020600085815260200190815260200160002060006101000a81548160ff021916908315150217905550806004016000815480929190612cc890617f85565b91905055506002816004015410612d2e5760018160030160006101000a81548160ff021916908315150217905550612d2c8160050160009054906101000a900473ffffffffffffffffffffffffffffffffffffffff16674563918244f4000061586d565b505b505050565b600060135490506000601b60008681526020019081526020016000206000015403612d93576040517f08c379a0000000000000000000000000000000000000000000000000000000008152600401612d8a9061860a565b60405180910390fd5b6000601d6000838152602001908152602001600020905081816000018190555083816001019081612dc49190617eb3565b5082816002019081612dd69190617eb3565b50600081602101819055506026601d600084815260200190815260200160002090806001815401808255809150506001900390600052602060002090602202016000909190919091506000820154816000015560018201816001019081612e3d91906182ad565b5060028201816002019081612e5291906182ad565b50600382018160030190600a612e6992919061607c565b5060218201548160210155505060136000815480929190612e8990617f85565b9190505550600a84604051612e9e919061843d565b6040518091039020837f3387c3a40ec1df95e34d25a0e5564b40d01c331b71ccbafccccc66d36c84ad8360405160405180910390a45050505050565b60115481565b671bc16d674ec8000081565b601f602052806000526040600020600091509050806000015490806001018054612f1590617b07565b80601f0160208091040260200160405190810160405280929190818152602001828054612f4190617b07565b8015612f8e5780601f10612f6357610100808354040283529160200191612f8e565b820191906000526020600020905b815481529060010190602001808311612f7157829003601f168201915b5050505050905082565b7fc10c77be35aff266144ed64c26a1fa104bae2f284ae99ac4a34203454704a185612fc28161544f565b6022600083815260200190815260200160002060009054906101000a900460ff1615613023576040517f08c379a000000000000000000000000000000000000000000000000000000000815260040161301a90618676565b60405180910390fd5b6003600680549050101561306c576040517f08c379a0000000000000000000000000000000000000000000000000000000008152600401613063906186e2565b60405180910390fd5b60216000838152602001908152602001600020600061308b919061618c565b60005b60038110156132685760006006805490504244600680549050856040516020016130bb9493929190618723565b6040516020818303038152906040528051906020012060001c6130de9190618771565b90506000600682815481106130f6576130f5617aa9565b5b9060005260206000200160009054906101000a900473ffffffffffffffffffffffffffffffffffffffff1690506000805b60216000888152602001908152602001600020805490508110156131dd578273ffffffffffffffffffffffffffffffffffffffff1660216000898152602001908152602001600020828154811061318157613180617aa9565b5b9060005260206000200160009054906101000a900473ffffffffffffffffffffffffffffffffffffffff1673ffffffffffffffffffffffffffffffffffffffff16036131d057600191506131dd565b8080600101915050613127565b50806132585760216000878152602001908152602001600020829080600181540180825580915050600190039060005260206000200160009091909190916101000a81548173ffffffffffffffffffffffffffffffffffffffff021916908373ffffffffffffffffffffffffffffffffffffffff1602179055505b505050808060010191505061308e565b5060036021600084815260200190815260200160002080549050036132b45760016022600084815260200190815260200160002060006101000a81548160ff0219169083151502179055505b817fe205dff861c570b8df17e26f893778853f94bb25d2de318755e48eab0b403ff7602160008581526020019081526020016000206040516132f6919061888e565b60405180910390a25050565b60006005600084815260200190815260200160002060000160008373ffffffffffffffffffffffffffffffffffffffff1673ffffffffffffffffffffffffffffffffffffffff16815260200190815260200160002060009054906101000a900460ff16905092915050565b60606004805461337c90617b07565b80601f01602080910402602001604051908101604052809291908181526020018280546133a890617b07565b80156133f55780601f106133ca576101008083540402835291602001916133f5565b820191906000526020600020905b8154815290600101906020018083116133d857829003601f168201915b5050505050905090565b600f5481565b6021602052816000526040600020818154811061342157600080fd5b906000526020600020016000915091509054906101000a900473ffffffffffffffffffffffffffffffffffffffff1681565b6000801b81565b60008073ffffffffffffffffffffffffffffffffffffffff1660176000601154815260200190815260200160002060050160009054906101000a900473ffffffffffffffffffffffffffffffffffffffff1673ffffffffffffffffffffffffffffffffffffffff1614613502576040517f08c379a00000000000000000000000000000000000000000000000000000000081526004016134f9906188fc565b60405180910390fd5b60006040518060c001604052806011548152602001858152602001848152602001600015158152602001600081526020013373ffffffffffffffffffffffffffffffffffffffff168152509050806017600060115481526020019081526020016000206000820151816000015560208201518160010190816135849190617eb3565b50604082015181600201908161359a9190617eb3565b5060608201518160030160006101000a81548160ff0219169083151502179055506080820151816004015560a08201518160050160006101000a81548173ffffffffffffffffffffffffffffffffffffffff021916908373ffffffffffffffffffffffffffffffffffffffff160217905550905050602481908060018154018082558091505060019003906000526020600020906006020160009091909190915060008201518160000155602082015181600101908161365a9190617eb3565b5060408201518160020190816136709190617eb3565b5060608201518160030160006101000a81548160ff0219169083151502179055506080820151816004015560a08201518160050160006101000a81548173ffffffffffffffffffffffffffffffffffffffff021916908373ffffffffffffffffffffffffffffffffffffffff1602179055505050601060008154809291906136f790617f85565b91905055506001601960003373ffffffffffffffffffffffffffffffffffffffff1673ffffffffffffffffffffffffffffffffffffffff168152602001908152602001600020600001600082825461374f919061815d565b925050819055506011600081548092919061376990617f85565b91905055506137987fadb22091b155738d2e889eb96f509d2a7c93234236b30400927feb4a6a15ab0033615463565b50836040516137a7919061843d565b604051809103902060016011546137be919061891c565b7f9c93a42b217373d37e6c66ace0a67fe1fa1f78c93164b62417de69c48c0f67e26017600060016011546137f2919061891c565b815260200190815260200160002060030160009054906101000a900460ff1660405161381e9190616520565b60405180910390a3600191505092915050565b60606000602680549050905060008167ffffffffffffffff81111561385957613858616b44565b5b60405190808252806020026020018201604052801561389257816020015b61387f6161ad565b8152602001906001900390816138775790505b50905060005b82811015613c3257602681815481106138b4576138b3617aa9565b5b90600052602060002090602202016040518060a0016040529081600082015481526020016001820180546138e790617b07565b80601f016020809104026020016040519081016040528092919081815260200182805461391390617b07565b80156139605780601f1061393557610100808354040283529160200191613960565b820191906000526020600020905b81548152906001019060200180831161394357829003601f168201915b5050505050815260200160028201805461397990617b07565b80601f01602080910402602001604051908101604052809291908181526020018280546139a590617b07565b80156139f25780601f106139c7576101008083540402835291602001916139f2565b820191906000526020600020905b8154815290600101906020018083116139d557829003601f168201915b5050505050815260200160038201600a80602002604051908101604052809291906000905b82821015613bf557838260030201604051806060016040529081600082018054613a4090617b07565b80601f0160208091040260200160405190810160405280929190818152602001828054613a6c90617b07565b8015613ab95780601f10613a8e57610100808354040283529160200191613ab9565b820191906000526020600020905b815481529060010190602001808311613a9c57829003601f168201915b50505050508152602001600182018054613ad290617b07565b80601f0160208091040260200160405190810160405280929190818152602001828054613afe90617b07565b8015613b4b5780601f10613b2057610100808354040283529160200191613b4b565b820191906000526020600020905b815481529060010190602001808311613b2e57829003601f168201915b50505050508152602001600282018054613b6490617b07565b80601f0160208091040260200160405190810160405280929190818152602001828054613b9090617b07565b8015613bdd5780601f10613bb257610100808354040283529160200191613bdd565b820191906000526020600020905b815481529060010190602001808311613bc057829003601f168201915b50505050508152505081526020019060010190613a17565b505050508152602001602182015481525050828281518110613c1a57613c19617aa9565b5b60200260200101819052508080600101915050613898565b50809250505090565b601b602052806000526040600020600091509050806000015490806001018054613c6490617b07565b80601f0160208091040260200160405190810160405280929190818152602001828054613c9090617b07565b8015613cdd5780601f10613cb257610100808354040283529160200191613cdd565b820191906000526020600020905b815481529060010190602001808311613cc057829003601f168201915b5050505050905082565b613cef6161e2565b6000601f60008481526020019081526020016000206000015403613d48576040517f08c379a0000000000000000000000000000000000000000000000000000000008152600401613d3f9061899c565b60405180910390fd5b601f600083815260200190815260200160002060405180606001604052908160008201548152602001600182018054613d8090617b07565b80601f0160208091040260200160405190810160405280929190818152602001828054613dac90617b07565b8015613df95780601f10613dce57610100808354040283529160200191613df9565b820191906000526020600020905b815481529060010190602001808311613ddc57829003601f168201915b5050505050815260200160028201805480602002602001604051908101604052809291908181526020016000905b82821015614001578382906000526020600020906003020160405180606001604052908160008201548152602001600182018054613e6490617b07565b80601f0160208091040260200160405190810160405280929190818152602001828054613e9090617b07565b8015613edd5780601f10613eb257610100808354040283529160200191613edd565b820191906000526020600020905b815481529060010190602001808311613ec057829003601f168201915b5050505050815260200160028201805480602002602001604051908101604052809291908181526020016000905b82821015613fea5783829060005260206000209060020201604051806040016040529081600082018054613f3e90617b07565b80601f0160208091040260200160405190810160405280929190818152602001828054613f6a90617b07565b8015613fb75780601f10613f8c57610100808354040283529160200191613fb7565b820191906000526020600020905b815481529060010190602001808311613f9a57829003601f168201915b505050505081526020016001820160009054906101000a900460ff16151515158152505081526020019060010190613f0b565b505050508152505081526020019060010190613e27565b50505050815250509050919050565b60008061401b615236565b905061402881858561535b565b600191505092915050565b601e602052816000526040600020818154811061404f57600080fd5b9060005260206000200160009150915050805461406b90617b07565b80601f016020809104026020016040519081016040528092919081815260200182805461409790617b07565b80156140e45780601f106140b9576101008083540402835291602001916140e4565b820191906000526020600020905b8154815290600101906020018083116140c757829003601f168201915b505050505081565b60606000601c600084815260200190815260200160002080549050905060008167ffffffffffffffff81111561412557614124616b44565b5b60405190808252806020026020018201604052801561415e57816020015b61414b616203565b8152602001906001900390816141435790505b50905060005b82811015614279576040518060400160405280601b6000888152602001908152602001600020600001548152602001601c600088815260200190815260200160002083815481106141b8576141b7617aa9565b5b9060005260206000200180546141cd90617b07565b80601f01602080910402602001604051908101604052809291908181526020018280546141f990617b07565b80156142465780601f1061421b57610100808354040283529160200191614246565b820191906000526020600020905b81548152906001019060200180831161422957829003601f168201915b505050505081525082828151811061426157614260617aa9565b5b60200260200101819052508080600101915050614164565b508092505050919050565b605081565b601d6020528060005260406000206000915090508060000154908060010180546142b290617b07565b80601f01602080910402602001604051908101604052809291908181526020018280546142de90617b07565b801561432b5780601f106143005761010080835404028352916020019161432b565b820191906000526020600020905b81548152906001019060200180831161430e57829003601f168201915b50505050509080600201805461434090617b07565b80601f016020809104026020016040519081016040528092919081815260200182805461436c90617b07565b80156143b95780601f1061438e576101008083540402835291602001916143b9565b820191906000526020600020905b81548152906001019060200180831161439c57829003601f168201915b5050505050908060210154905084565b60186020528160005260406000206020528060005260406000206000915091505080600001549080600101549080600201549080600301549080600401549080600501549080600601549080600701549080600801549080600901549080600a0160009054906101000a900460ff1690508b565b6060602160008381526020019081526020016000208054806020026020016040519081016040528092919081815260200182805480156144d257602002820191906000526020600020905b8160009054906101000a900473ffffffffffffffffffffffffffffffffffffffff1673ffffffffffffffffffffffffffffffffffffffff1681526020019060010190808311614488575b50505050509050919050565b60076020528060005260406000206000915054906101000a900460ff1681565b6000600f54905090565b6025818154811061451857600080fd5b906000526020600020906002020160009150905080600001549080600101805461454190617b07565b80601f016020809104026020016040519081016040528092919081815260200182805461456d90617b07565b80156145ba5780601f1061458f576101008083540402835291602001916145ba565b820191906000526020600020905b81548152906001019060200180831161459d57829003601f168201915b5050505050905082565b6000801b6145d18161544f565b600760008373ffffffffffffffffffffffffffffffffffffffff1673ffffffffffffffffffffffffffffffffffffffff16815260200190815260200160002060009054906101000a900460ff1661465d576040517f08c379a000000000000000000000000000000000000000000000000000000000815260040161465490618a08565b60405180910390fd5b60005b6006805490508110156147e3578273ffffffffffffffffffffffffffffffffffffffff166006828154811061469857614697617aa9565b5b9060005260206000200160009054906101000a900473ffffffffffffffffffffffffffffffffffffffff1673ffffffffffffffffffffffffffffffffffffffff16036147d657600660016006805490506146f2919061891c565b8154811061470357614702617aa9565b5b9060005260206000200160009054906101000a900473ffffffffffffffffffffffffffffffffffffffff166006828154811061474257614741617aa9565b5b9060005260206000200160006101000a81548173ffffffffffffffffffffffffffffffffffffffff021916908373ffffffffffffffffffffffffffffffffffffffff160217905550600680548061479c5761479b618a28565b5b6001900381819060005260206000200160006101000a81549073ffffffffffffffffffffffffffffffffffffffff021916905590556147e3565b8080600101915050614660565b506000600760008473ffffffffffffffffffffffffffffffffffffffff1673ffffffffffffffffffffffffffffffffffffffff16815260200190815260200160002060006101000a81548160ff0219169083151502179055506148667fc10c77be35aff266144ed64c26a1fa104bae2f284ae99ac4a34203454704a18583615555565b508173ffffffffffffffffffffffffffffffffffffffff167f55dba9d79522b91b615629d5f3b10c2fad2d258f1768614f4a52e937ada0d0ba60405160405180910390a25050565b60236020528160005260406000206020528060005260406000206000915091509054906101000a900460ff1681565b6000601f60008681526020019081526020016000206000015403614936576040517f08c379a000000000000000000000000000000000000000000000000000000000815260040161492d9061899c565b60405180910390fd5b6000825111801561494957506004825111155b614988576040517f08c379a000000000000000000000000000000000000000000000000000000000815260040161497f90618aa3565b60405180910390fd5b81518160ff16106149ce576040517f08c379a00000000000000000000000000000000000000000000000000000000081526004016149c590618b0f565b60405180910390fd5b600060155490506000601f6000878152602001908152602001600020600201600181600181540180825580915050039060005260206000209060030201905081816000018190555084816001019081614a279190617eb3565b5080602060008481526020019081526020016000206000820154816000015560018201816001019081614a5a91906182ad565b506002820181600201908054614a7192919061621d565b5090505060156000815480929190614a8890617f85565b919050555060298190806001815401808255809150506001900390600052602060002090600302016000909190919091506000820154816000015560018201816001019081614ad791906182ad565b506002820181600201908054614aee92919061621d565b5050507fa5bdacf4d1324fdd584bc65cf0315e4975d00b33a7ca0e6d0a73c88df8430b95868387604051614b2493929190618b2f565b60405180910390a160005b84518160ff161015614ce5576000601654905060006040518060400160405280888560ff1681518110614b6557614b64617aa9565b5b602002602001015181526020018760ff168560ff161415158152509050836002018190806001815401808255809150506001900390600052602060002090600202016000909190919091506000820151816000019081614bc59190617eb3565b5060208201518160010160006101000a81548160ff0219169083151502179055505050602060008681526020019081526020016000206002018190806001815401808255809150506001900390600052602060002090600202016000909190919091506000820151816000019081614c3d9190617eb3565b5060208201518160010160006101000a81548160ff021916908315150217905550505060166000815480929190614c7390617f85565b91905055507f06ef0ba2ad58c9f8eef2fc98c08fd18d801c4a971eeb45afd07f0fee3f9d60c48583898660ff1681518110614cb157614cb0617aa9565b5b6020026020010151604051614cc893929190618b2f565b60405180910390a150508080614cdd90618b6d565b915050614b2f565b50505050505050565b614cf782611616565b614d008161544f565b614d0a8383615555565b50505050565b674563918244f4000081565b6000600160008473ffffffffffffffffffffffffffffffffffffffff1673ffffffffffffffffffffffffffffffffffffffff16815260200190815260200160002060008373ffffffffffffffffffffffffffffffffffffffff1673ffffffffffffffffffffffffffffffffffffffff16815260200190815260200160002054905092915050565b60278181548110614db357600080fd5b9060005260206000209060030201600091509050806000018054614dd690617b07565b80601f0160208091040260200160405190810160405280929190818152602001828054614e0290617b07565b8015614e4f5780601f10614e2457610100808354040283529160200191614e4f565b820191906000526020600020905b815481529060010190602001808311614e3257829003601f168201915b505050505090806001018054614e6490617b07565b80601f0160208091040260200160405190810160405280929190818152602001828054614e9090617b07565b8015614edd5780601f10614eb257610100808354040283529160200191614edd565b820191906000526020600020905b815481529060010190602001808311614ec057829003601f168201915b505050505090806002018054614ef290617b07565b80601f0160208091040260200160405190810160405280929190818152602001828054614f1e90617b07565b8015614f6b5780601f10614f4057610100808354040283529160200191614f6b565b820191906000526020600020905b815481529060010190602001808311614f4e57829003601f168201915b5050505050905083565b6000600960000154905090565b60145481565b60155481565b6000614f98615250565b6017600083815260200190815260200160002060030160009054906101000a900460ff16614ffb576040517f08c379a0000000000000000000000000000000000000000000000000000000008152600401614ff290618be2565b60405180910390fd5b6023600083815260200190815260200160002060003373ffffffffffffffffffffffffffffffffffffffff1673ffffffffffffffffffffffffffffffffffffffff16815260200190815260200160002060009054906101000a900460ff1615615099576040517f08c379a000000000000000000000000000000000000000000000000000000000815260040161509090618c74565b60405180910390fd5b60016023600084815260200190815260200160002060003373ffffffffffffffffffffffffffffffffffffffff1673ffffffffffffffffffffffffffffffffffffffff16815260200190815260200160002060006101000a81548160ff02191690831515021790555061511433671bc16d674ec8000061586d565b503373ffffffffffffffffffffffffffffffffffffffff16827f4bf249f6b0ca5630ea4816c04b928b864a2065cb51658fd6223d83b727fd326b60405160405180910390a3600190506151656152bd565b919050565b60006151967fc10c77be35aff266144ed64c26a1fa104bae2f284ae99ac4a34203454704a18583613302565b9050919050565b601a6020528160005260406000206020528060005260406000206000915091509054906101000a900460ff1681565b60007f01ffc9a7000000000000000000000000000000000000000000000000000000007bffffffffffffffffffffffffffffffffffffffffffffffffffffffff1916827bffffffffffffffffffffffffffffffffffffffffffffffffffffffff1916149050919050565b600033905090565b61524b838383600161595a565b505050565b60026008540361528c576040517f3ee5aeb500000000000000000000000000000000000000000000000000000000815260040160405180910390fd5b6002600881905550565b6152a08282615b31565b80600f60008282546152b2919061891c565b925050819055505050565b6001600881905550565b60006152d38484614d1c565b90507fffffffffffffffffffffffffffffffffffffffffffffffffffffffffffffffff81146153555781811015615345578281836040517ffb8f41b200000000000000000000000000000000000000000000000000000000815260040161533c93929190618c94565b60405180910390fd5b6153548484848403600061595a565b5b50505050565b600073ffffffffffffffffffffffffffffffffffffffff168373ffffffffffffffffffffffffffffffffffffffff16036153cd5760006040517f96c6fd1e0000000000000000000000000000000000000000000000000000000081526004016153c49190616912565b60405180910390fd5b600073ffffffffffffffffffffffffffffffffffffffff168273ffffffffffffffffffffffffffffffffffffffff160361543f5760006040517fec442f050000000000000000000000000000000000000000000000000000000081526004016154369190616912565b60405180910390fd5b61544a838383615bd8565b505050565b6154608161545b615236565b615dfd565b50565b600061546f8383613302565b61554a5760016005600085815260200190815260200160002060000160008473ffffffffffffffffffffffffffffffffffffffff1673ffffffffffffffffffffffffffffffffffffffff16815260200190815260200160002060006101000a81548160ff0219169083151502179055506154e7615236565b73ffffffffffffffffffffffffffffffffffffffff168273ffffffffffffffffffffffffffffffffffffffff16847f2f8788117e7eff1d82e926ec794901d17c78024a50270940304540a733656f0d60405160405180910390a46001905061554f565b600090505b92915050565b60006155618383613302565b1561563d5760006005600085815260200190815260200160002060000160008473ffffffffffffffffffffffffffffffffffffffff1673ffffffffffffffffffffffffffffffffffffffff16815260200190815260200160002060006101000a81548160ff0219169083151502179055506155da615236565b73ffffffffffffffffffffffffffffffffffffffff168273ffffffffffffffffffffffffffffffffffffffff16847ff6391f5c32d9c69d2a47ea670b442974b53935d1edc7fd64eb21e047a839171b60405160405180910390a460019050615642565b600090505b92915050565b600080600090505b6021600085815260200190815260200160002080549050811015615707578273ffffffffffffffffffffffffffffffffffffffff166021600086815260200190815260200160002082815481106156aa576156a9617aa9565b5b9060005260206000200160009054906101000a900473ffffffffffffffffffffffffffffffffffffffff1673ffffffffffffffffffffffffffffffffffffffff16036156fa57600191505061570d565b8080600101915050615650565b50600090505b92915050565b600a8a111580156157255750600a8911155b80156157325750600a8811155b801561573f5750600a8711155b801561574c5750600a8611155b80156157595750600a8511155b80156157665750600a8411155b80156157735750600a8311155b80156157805750600a8211155b801561578d5750600a8111155b6157cc576040517f08c379a00000000000000000000000000000000000000000000000000000000081526004016157c390618d17565b60405180910390fd5b50505050505050505050565b60008160090154826008015483600701548460060154856005015486600401548760030154886002015489600101548a60000154615816919061815d565b615820919061815d565b61582a919061815d565b615834919061815d565b61583e919061815d565b615848919061815d565b615852919061815d565b61585c919061815d565b615866919061815d565b9050919050565b60006064600f6b204fce5e3e2502611000000061588a9190617bf9565b6158949190617c6a565b61589c6144fe565b836158a7919061815d565b11156158e8576040517f08c379a00000000000000000000000000000000000000000000000000000000081526004016158df90618d83565b60405180910390fd5b6158f28383615e4e565b5081600f6000828254615905919061815d565b92505081905550818373ffffffffffffffffffffffffffffffffffffffff167fad6ef58d5c294f81258965738e7ae511124139834a8d0b8f8f7327086c82052a60405160405180910390a36001905092915050565b600073ffffffffffffffffffffffffffffffffffffffff168473ffffffffffffffffffffffffffffffffffffffff16036159cc5760006040517fe602df050000000000000000000000000000000000000000000000000000000081526004016159c39190616912565b60405180910390fd5b600073ffffffffffffffffffffffffffffffffffffffff168373ffffffffffffffffffffffffffffffffffffffff1603615a3e5760006040517f94280d62000000000000000000000000000000000000000000000000000000008152600401615a359190616912565b60405180910390fd5b81600160008673ffffffffffffffffffffffffffffffffffffffff1673ffffffffffffffffffffffffffffffffffffffff16815260200190815260200160002060008573ffffffffffffffffffffffffffffffffffffffff1673ffffffffffffffffffffffffffffffffffffffff168152602001908152602001600020819055508015615b2b578273ffffffffffffffffffffffffffffffffffffffff168473ffffffffffffffffffffffffffffffffffffffff167f8c5be1e5ebec7d5bd14f71427d1e84f3dd0314c0f7b2291e5b200ac8c7c3b92584604051615b2291906167b7565b60405180910390a35b50505050565b80615b3b836128ed565b1015615b7c576040517f08c379a0000000000000000000000000000000000000000000000000000000008152600401615b7390618def565b60405180910390fd5b615b868282615f09565b8173ffffffffffffffffffffffffffffffffffffffff167f5b5d8478b570a79ab6b3bf13ff029fba19c02ab0d54d692d4ef0d9052d5cc85082604051615bcc91906167b7565b60405180910390a25050565b600073ffffffffffffffffffffffffffffffffffffffff168373ffffffffffffffffffffffffffffffffffffffff1603615c2a578060026000828254615c1e919061815d565b92505081905550615cfd565b60008060008573ffffffffffffffffffffffffffffffffffffffff1673ffffffffffffffffffffffffffffffffffffffff16815260200190815260200160002054905081811015615cb6578381836040517fe450d38c000000000000000000000000000000000000000000000000000000008152600401615cad93929190618c94565b60405180910390fd5b8181036000808673ffffffffffffffffffffffffffffffffffffffff1673ffffffffffffffffffffffffffffffffffffffff16815260200190815260200160002081905550505b600073ffffffffffffffffffffffffffffffffffffffff168273ffffffffffffffffffffffffffffffffffffffff1603615d465780600260008282540392505081905550615d93565b806000808473ffffffffffffffffffffffffffffffffffffffff1673ffffffffffffffffffffffffffffffffffffffff168152602001908152602001600020600082825401925050819055505b8173ffffffffffffffffffffffffffffffffffffffff168373ffffffffffffffffffffffffffffffffffffffff167fddf252ad1be2c89b69c2b068fc378daa952ba7f163c4a11628f55a4df523b3ef83604051615df091906167b7565b60405180910390a3505050565b615e078282613302565b615e4a5780826040517fe2517d3f000000000000000000000000000000000000000000000000000000008152600401615e41929190618e0f565b60405180910390fd5b5050565b60006b204fce5e3e25026110000000615e65611427565b83615e70919061815d565b1115615eb1576040517f08c379a0000000000000000000000000000000000000000000000000000000008152600401615ea890618d83565b60405180910390fd5b615ebb8383615f8b565b818373ffffffffffffffffffffffffffffffffffffffff167fcda531bfd68624f13205c0a23cd4d5a7f09792cbb399603114f2b04aaa1bf5cf60405160405180910390a36001905092915050565b600073ffffffffffffffffffffffffffffffffffffffff168273ffffffffffffffffffffffffffffffffffffffff1603615f7b5760006040517f96c6fd1e000000000000000000000000000000000000000000000000000000008152600401615f729190616912565b60405180910390fd5b615f8782600083615bd8565b5050565b600073ffffffffffffffffffffffffffffffffffffffff168273ffffffffffffffffffffffffffffffffffffffff1603615ffd5760006040517fec442f05000000000000000000000000000000000000000000000000000000008152600401615ff49190616912565b60405180910390fd5b61600960008383615bd8565b5050565b6040518060c0016040528060008152602001606081526020016060815260200160001515815260200160008152602001600073ffffffffffffffffffffffffffffffffffffffff1681525090565b508054600082559060005260206000209081019061607991906162b7565b50565b82600a60030281019282156160ed579160030282015b828111156160ec578282600082018160000190816160b091906182ad565b50600182018160010190816160c591906182ad565b50600282018160020190816160da91906182ad565b50505091600301919060030190616092565b5b5090506160fa91906162db565b5090565b82805482825590600052602060002090600302810192821561617b5760005260206000209160030282015b8281111561617a578282600082015481600001556001820181600101908161615191906182ad565b50600282018160020190805461616892919061621d565b50505091600301919060030190616129565b5b5090506161889190616322565b5090565b50805460008255906000526020600020908101906161aa9190616361565b50565b6040518060a001604052806000815260200160608152602001606081526020016161d561637e565b8152602001600081525090565b60405180606001604052806000815260200160608152602001606081525090565b604051806040016040528060008152602001606081525090565b8280548282559060005260206000209060020281019282156162a65760005260206000209160020282015b828111156162a55782826000820181600001908161626691906182ad565b506001820160009054906101000a900460ff168160010160006101000a81548160ff021916908315150217905550505091600201919060020190616248565b5b5090506162b391906163ac565b5090565b5b808211156162d757600081816162ce91906163e7565b506001016162b8565b5090565b5b8082111561631e57600080820160006162f591906163e7565b60018201600061630591906163e7565b60028201600061631591906163e7565b506003016162dc565b5090565b5b8082111561635d5760008082016000905560018201600061634491906163e7565b6002820160006163549190616427565b50600301616323565b5090565b5b8082111561637a576000816000905550600101616362565b5090565b604051806101400160405280600a905b61639661644b565b81526020019060019003908161638e5790505090565b5b808211156163e357600080820160006163c691906163e7565b6001820160006101000a81549060ff0219169055506002016163ad565b5090565b5080546163f390617b07565b6000825580601f106164055750616424565b601f0160209004906000526020600020908101906164239190616361565b5b50565b508054600082556002029060005260206000209081019061644891906163ac565b50565b60405180606001604052806060815260200160608152602001606081525090565b6000604051905090565b600080fd5b600080fd5b60007fffffffff0000000000000000000000000000000000000000000000000000000082169050919050565b6164b581616480565b81146164c057600080fd5b50565b6000813590506164d2816164ac565b92915050565b6000602082840312156164ee576164ed616476565b5b60006164fc848285016164c3565b91505092915050565b60008115159050919050565b61651a81616505565b82525050565b60006020820190506165356000830184616511565b92915050565b600081519050919050565b600082825260208201905092915050565b6000819050602082019050919050565b6000819050919050565b61657a81616567565b82525050565b600081519050919050565b600082825260208201905092915050565b60005b838110156165ba57808201518184015260208101905061659f565b60008484015250505050565b6000601f19601f8301169050919050565b60006165e282616580565b6165ec818561658b565b93506165fc81856020860161659c565b616605816165c6565b840191505092915050565b61661981616505565b82525050565b600073ffffffffffffffffffffffffffffffffffffffff82169050919050565b600061664a8261661f565b9050919050565b61665a8161663f565b82525050565b600060c0830160008301516166786000860182616571565b506020830151848203602086015261669082826165d7565b915050604083015184820360408601526166aa82826165d7565b91505060608301516166bf6060860182616610565b5060808301516166d26080860182616571565b5060a08301516166e560a0860182616651565b508091505092915050565b60006166fc8383616660565b905092915050565b6000602082019050919050565b600061671c8261653b565b6167268185616546565b93508360208202850161673885616557565b8060005b85811015616774578484038952815161675585826166f0565b945061676083616704565b925060208a0199505060018101905061673c565b50829750879550505050505092915050565b600060208201905081810360008301526167a08184616711565b905092915050565b6167b181616567565b82525050565b60006020820190506167cc60008301846167a8565b92915050565b600082825260208201905092915050565b60006167ee82616580565b6167f881856167d2565b935061680881856020860161659c565b616811816165c6565b840191505092915050565b6000602082019050818103600083015261683681846167e3565b905092915050565b6168478161663f565b811461685257600080fd5b50565b6000813590506168648161683e565b92915050565b61687381616567565b811461687e57600080fd5b50565b6000813590506168908161686a565b92915050565b600080604083850312156168ad576168ac616476565b5b60006168bb85828601616855565b92505060206168cc85828601616881565b9150509250929050565b6000602082840312156168ec576168eb616476565b5b60006168fa84828501616881565b91505092915050565b61690c8161663f565b82525050565b60006020820190506169276000830184616903565b92915050565b60008060006060848603121561694657616945616476565b5b600061695486828701616855565b935050602061696586828701616855565b925050604061697686828701616881565b9150509250925092565b6000819050919050565b61699381616980565b811461699e57600080fd5b50565b6000813590506169b08161698a565b92915050565b6000602082840312156169cc576169cb616476565b5b60006169da848285016169a1565b91505092915050565b6169ec81616980565b82525050565b6000602082019050616a0760008301846169e3565b92915050565b6000604082019050616a2260008301856167a8565b8181036020830152616a3481846167e3565b90509392505050565b600060c082019050616a5260008301896167a8565b8181036020830152616a6481886167e3565b90508181036040830152616a7881876167e3565b9050616a876060830186616511565b616a9460808301856167a8565b616aa160a0830184616903565b979650505050505050565b6000608082019050616ac160008301876167a8565b8181036020830152616ad381866167e3565b90508181036040830152616ae781856167e3565b9050616af660608301846167a8565b95945050505050565b60008060408385031215616b1657616b15616476565b5b6000616b24858286016169a1565b9250506020616b3585828601616855565b9150509250929050565b600080fd5b7f4e487b7100000000000000000000000000000000000000000000000000000000600052604160045260246000fd5b616b7c826165c6565b810181811067ffffffffffffffff82111715616b9b57616b9a616b44565b5b80604052505050565b6000616bae61646c565b9050616bba8282616b73565b919050565b600067ffffffffffffffff821115616bda57616bd9616b44565b5b602082029050602081019050919050565b600080fd5b600080fd5b600067ffffffffffffffff821115616c1057616c0f616b44565b5b616c19826165c6565b9050602081019050919050565b82818337600083830152505050565b6000616c48616c4384616bf5565b616ba4565b905082815260208101848484011115616c6457616c63616bf0565b5b616c6f848285616c26565b509392505050565b600082601f830112616c8c57616c8b616b3f565b5b8135616c9c848260208601616c35565b91505092915050565b6000616cb8616cb384616bbf565b616ba4565b90508083825260208201905060208402830185811115616cdb57616cda616beb565b5b835b81811015616d2257803567ffffffffffffffff811115616d0057616cff616b3f565b5b808601616d0d8982616c77565b85526020850194505050602081019050616cdd565b5050509392505050565b600082601f830112616d4157616d40616b3f565b5b8135616d51848260208601616ca5565b91505092915050565b60008060408385031215616d7157616d70616476565b5b6000616d7f85828601616881565b925050602083013567ffffffffffffffff811115616da057616d9f61647b565b5b616dac85828601616d2c565b9150509250929050565b600060ff82169050919050565b616dcc81616db6565b82525050565b6000602082019050616de76000830184616dc3565b92915050565b600060208284031215616e0357616e02616476565b5b6000616e1184828501616855565b91505092915050565b60008060408385031215616e3157616e30616476565b5b6000616e3f85828601616881565b9250506020616e5085828601616881565b9150509250929050565b60008060008060008060008060008060006101608c8e031215616e8057616e7f616476565b5b6000616e8e8e828f01616881565b9b50506020616e9f8e828f01616881565b9a50506040616eb08e828f01616881565b9950506060616ec18e828f01616881565b9850506080616ed28e828f01616881565b97505060a0616ee38e828f01616881565b96505060c0616ef48e828f01616881565b95505060e0616f058e828f01616881565b945050610100616f178e828f01616881565b935050610120616f298e828f01616881565b925050610140616f3b8e828f01616881565b9150509295989b509295989b9093969950565b600080fd5b60008083601f840112616f6957616f68616b3f565b5b8235905067ffffffffffffffff811115616f8657616f85616f4e565b5b602083019150836020820283011115616fa257616fa1616beb565b5b9250929050565b600080600060408486031215616fc257616fc1616476565b5b6000616fd086828701616881565b935050602084013567ffffffffffffffff811115616ff157616ff061647b565b5b616ffd86828701616f53565b92509250509250925092565b600080604083850312156170205761701f616476565b5b600061702e85828601616881565b925050602083013567ffffffffffffffff81111561704f5761704e61647b565b5b61705b85828601616c77565b9150509250929050565b60008060006060848603121561707e5761707d616476565b5b600061708c86828701616881565b935050602084013567ffffffffffffffff8111156170ad576170ac61647b565b5b6170b986828701616c77565b925050604084013567ffffffffffffffff8111156170da576170d961647b565b5b6170e686828701616c77565b9150509250925092565b6000806040838503121561710757617106616476565b5b600083013567ffffffffffffffff8111156171255761712461647b565b5b61713185828601616c77565b925050602083013567ffffffffffffffff8111156171525761715161647b565b5b61715e85828601616c77565b9150509250929050565b600081519050919050565b600082825260208201905092915050565b6000819050602082019050919050565b6000600a9050919050565b600081905092915050565b6000819050919050565b600060608301600083015184820360008601526171d182826165d7565b915050602083015184820360208601526171eb82826165d7565b9150506040830151848203604086015261720582826165d7565b9150508091505092915050565b600061721e83836171b4565b905092915050565b6000602082019050919050565b600061723e82617194565b617248818561719f565b93508360208202850161725a856171aa565b8060005b8581101561729657848403895281516172778582617212565b945061728283617226565b925060208a0199505060018101905061725e565b50829750879550505050505092915050565b600060a0830160008301516172c06000860182616571565b50602083015184820360208601526172d882826165d7565b915050604083015184820360408601526172f282826165d7565b9150506060830151848203606086015261730c8282617233565b91505060808301516173216080860182616571565b508091505092915050565b600061733883836172a8565b905092915050565b6000602082019050919050565b600061735882617168565b6173628185617173565b93508360208202850161737485617184565b8060005b858110156173b05784840389528151617391858261732c565b945061739c83617340565b925060208a01995050600181019050617378565b50829750879550505050505092915050565b600060208201905081810360008301526173dc818461734d565b905092915050565b600081519050919050565b600082825260208201905092915050565b6000819050602082019050919050565b600081519050919050565b600082825260208201905092915050565b6000819050602082019050919050565b6000604083016000830151848203600086015261745982826165d7565b915050602083015161746e6020860182616610565b508091505092915050565b6000617485838361743c565b905092915050565b6000602082019050919050565b60006174a582617410565b6174af818561741b565b9350836020820285016174c18561742c565b8060005b858110156174fd57848403895281516174de8582617479565b94506174e98361748d565b925060208a019950506001810190506174c5565b50829750879550505050505092915050565b60006060830160008301516175276000860182616571565b506020830151848203602086015261753f82826165d7565b91505060408301518482036040860152617559828261749a565b9150508091505092915050565b6000617572838361750f565b905092915050565b6000602082019050919050565b6000617592826173e4565b61759c81856173ef565b9350836020820285016175ae85617400565b8060005b858110156175ea57848403895281516175cb8582617566565b94506175d68361757a565b925060208a019950506001810190506175b2565b50829750879550505050505092915050565b60006060830160008301516176146000860182616571565b506020830151848203602086015261762c82826165d7565b915050604083015184820360408601526176468282617587565b9150508091505092915050565b6000602082019050818103600083015261766d81846175fc565b905092915050565b600081519050919050565b600082825260208201905092915050565b6000819050602082019050919050565b60006040830160008301516176b96000860182616571565b50602083015184820360208601526176d182826165d7565b9150508091505092915050565b60006176ea83836176a1565b905092915050565b6000602082019050919050565b600061770a82617675565b6177148185617680565b93508360208202850161772685617691565b8060005b85811015617762578484038952815161774385826176de565b945061774e836176f2565b925060208a0199505060018101905061772a565b50829750879550505050505092915050565b6000602082019050818103600083015261778e81846176ff565b905092915050565b600080604083850312156177ad576177ac616476565b5b60006177bb85828601616881565b92505060206177cc85828601616855565b9150509250929050565b6000610160820190506177ec600083018e6167a8565b6177f9602083018d6167a8565b617806604083018c6167a8565b617813606083018b6167a8565b617820608083018a6167a8565b61782d60a08301896167a8565b61783a60c08301886167a8565b61784760e08301876167a8565b6178556101008301866167a8565b6178636101208301856167a8565b617871610140830184616511565b9c9b505050505050505050505050565b600081519050919050565b600082825260208201905092915050565b6000819050602082019050919050565b60006178b98383616651565b60208301905092915050565b6000602082019050919050565b60006178dd82617881565b6178e7818561788c565b93506178f28361789d565b8060005b8381101561792357815161790a88826178ad565b9750617915836178c5565b9250506001810190506178f6565b5085935050505092915050565b6000602082019050818103600083015261794a81846178d2565b905092915050565b61795b81616db6565b811461796657600080fd5b50565b60008135905061797881617952565b92915050565b6000806000806080858703121561799857617997616476565b5b60006179a687828801616881565b945050602085013567ffffffffffffffff8111156179c7576179c661647b565b5b6179d387828801616c77565b935050604085013567ffffffffffffffff8111156179f4576179f361647b565b5b617a0087828801616d2c565b9250506060617a1187828801617969565b91505092959194509250565b60008060408385031215617a3457617a33616476565b5b6000617a4285828601616855565b9250506020617a5385828601616855565b9150509250929050565b60006060820190508181036000830152617a7781866167e3565b90508181036020830152617a8b81856167e3565b90508181036040830152617a9f81846167e3565b9050949350505050565b7f4e487b7100000000000000000000000000000000000000000000000000000000600052603260045260246000fd5b7f4e487b7100000000000000000000000000000000000000000000000000000000600052602260045260246000fd5b60006002820490506001821680617b1f57607f821691505b602082108103617b3257617b31617ad8565b5b50919050565b7f596f7520617265206e6f7420656e726f6c6c656420696e207468697320636f7560008201527f7273652100000000000000000000000000000000000000000000000000000000602082015250565b6000617b946024836167d2565b9150617b9f82617b38565b604082019050919050565b60006020820190508181036000830152617bc381617b87565b9050919050565b7f4e487b7100000000000000000000000000000000000000000000000000000000600052601160045260246000fd5b6000617c0482616567565b9150617c0f83616567565b9250828202617c1d81616567565b91508282048414831517617c3457617c33617bca565b5b5092915050565b7f4e487b7100000000000000000000000000000000000000000000000000000000600052601260045260246000fd5b6000617c7582616567565b9150617c8083616567565b925082617c9057617c8f617c3b565b5b828204905092915050565b7f436f7572736520646f6573206e6f742065786973742100000000000000000000600082015250565b6000617cd16016836167d2565b9150617cdc82617c9b565b602082019050919050565b60006020820190508181036000830152617d0081617cc4565b9050919050565b60008190508160005260206000209050919050565b60006020601f8301049050919050565b600082821b905092915050565b600060088302617d697fffffffffffffffffffffffffffffffffffffffffffffffffffffffffffffffff82617d2c565b617d738683617d2c565b95508019841693508086168417925050509392505050565b6000819050919050565b6000617db0617dab617da684616567565b617d8b565b616567565b9050919050565b6000819050919050565b617dca83617d95565b617dde617dd682617db7565b848454617d39565b825550505050565b600090565b617df3617de6565b617dfe818484617dc1565b505050565b5b81811015617e2257617e17600082617deb565b600181019050617e04565b5050565b601f821115617e6757617e3881617d07565b617e4184617d1c565b81016020851015617e50578190505b617e64617e5c85617d1c565b830182617e03565b50505b505050565b600082821c905092915050565b6000617e8a60001984600802617e6c565b1980831691505092915050565b6000617ea38383617e79565b9150826002028217905092915050565b617ebc82616580565b67ffffffffffffffff811115617ed557617ed4616b44565b5b617edf8254617b07565b617eea828285617e26565b600060209050601f831160018114617f1d5760008415617f0b578287015190505b617f158582617e97565b865550617f7d565b601f198416617f2b86617d07565b60005b82811015617f5357848901518255600182019150602085019450602081019050617f2e565b86831015617f705784890151617f6c601f891682617e79565b8355505b6001600288020188555050505b505050505050565b6000617f9082616567565b91507fffffffffffffffffffffffffffffffffffffffffffffffffffffffffffffffff8203617fc257617fc1617bca565b5b600182019050919050565b7f4e6f742073656c6563746564206173206120726576696577657220666f72207460008201527f68697320636f7572736500000000000000000000000000000000000000000000602082015250565b6000618029602a836167d2565b915061803482617fcd565b604082019050919050565b600060208201905081810360008301526180588161801c565b9050919050565b7f52657669657720616c7265616479207375626d6974746564206279207468697360008201527f2072657669657765722e00000000000000000000000000000000000000000000602082015250565b60006180bb602a836167d2565b91506180c68261805f565b604082019050919050565b600060208201905081810360008301526180ea816180ae565b9050919050565b7f4c6573736f6e20646f6573206e6f742065786973742100000000000000000000600082015250565b60006181276016836167d2565b9150618132826180f1565b602082019050919050565b600060208201905081810360008301526181568161811a565b9050919050565b600061816882616567565b915061817383616567565b925082820190508082111561818b5761818a617bca565b5b92915050565b7f45786365656473206d6178696d756d207265736f757263657321000000000000600082015250565b60006181c7601a836167d2565b91506181d282618191565b602082019050919050565b600060208201905081810360008301526181f6816181ba565b9050919050565b600080fd5b600080fd5b600080fd5b600082356001606003833603038112618228576182276181fd565b5b80830191505092915050565b60008083356001602003843603038112618251576182506181fd565b5b80840192508235915067ffffffffffffffff82111561827357618272618202565b5b60208301925060018202360383131561828f5761828e618207565b5b509250929050565b6000815490506182a681617b07565b9050919050565b8181036182bb575050618393565b6182c482618297565b67ffffffffffffffff8111156182dd576182dc616b44565b5b6182e78254617b07565b6182f2828285617e26565b6000601f831160018114618321576000841561830f578287015490505b6183198582617e97565b86555061838c565b601f19841661832f87617d07565b965061833a86617d07565b60005b828110156183625784890154825560018201915060018501945060208101905061833d565b8683101561837f578489015461837b601f891682617e79565b8355505b6001600288020188555050505b5050505050505b565b7f4c6573736f6e20446f6573206e6f742065786973742100000000000000000000600082015250565b60006183cb6016836167d2565b91506183d682618395565b602082019050919050565b600060208201905081810360008301526183fa816183be565b9050919050565b600081905092915050565b600061841782616580565b6184218185618401565b935061843181856020860161659c565b80840191505092915050565b6000618449828461840c565b915081905092915050565b7f416c726561647920696e20726576696577657220706f6f6c0000000000000000600082015250565b600061848a6018836167d2565b915061849582618454565b602082019050919050565b600060208201905081810360008301526184b98161847d565b9050919050565b7f436f7572736520616c726561647920617070726f766564000000000000000000600082015250565b60006184f66017836167d2565b9150618501826184c0565b602082019050919050565b60006020820190508181036000830152618525816184e9565b9050919050565b7f596f75206861766520616c726561647920617070726f7665642074686973206360008201527f6f75727365000000000000000000000000000000000000000000000000000000602082015250565b60006185886025836167d2565b91506185938261852c565b604082019050919050565b600060208201905081810360008301526185b78161857b565b9050919050565b7f4368617074657220646f6573206e6f7420657869737421000000000000000000600082015250565b60006185f46017836167d2565b91506185ff826185be565b602082019050919050565b60006020820190508181036000830152618623816185e7565b9050919050565b7f52657669657765727320616c72656164792073656c6563746564000000000000600082015250565b6000618660601a836167d2565b915061866b8261862a565b602082019050919050565b6000602082019050818103600083015261868f81618653565b9050919050565b7f4e6f7420656e6f7567682072657669657765727320696e2074686520706f6f6c600082015250565b60006186cc6020836167d2565b91506186d782618696565b602082019050919050565b600060208201905081810360008301526186fb816186bf565b9050919050565b6000819050919050565b61871d61871882616567565b618702565b82525050565b600061872f828761870c565b60208201915061873f828661870c565b60208201915061874f828561870c565b60208201915061875f828461870c565b60208201915081905095945050505050565b600061877c82616567565b915061878783616567565b92508261879757618796617c3b565b5b828206905092915050565b600081549050919050565b60008190508160005260206000209050919050565b60008160001c9050919050565b600073ffffffffffffffffffffffffffffffffffffffff82169050919050565b60006188026187fd836187c2565b6187cf565b9050919050565b600061881582546187ef565b9050919050565b6000600182019050919050565b6000618834826187a2565b61883e818561788c565b9350618849836187ad565b8060005b838110156188815761885e82618809565b61886888826178ad565b97506188738361881c565b92505060018101905061884d565b5085935050505092915050565b600060208201905081810360008301526188a88184618829565b905092915050565b7f436f7572736520494420616c7265616479206578697374730000000000000000600082015250565b60006188e66018836167d2565b91506188f1826188b0565b602082019050919050565b60006020820190508181036000830152618915816188d9565b9050919050565b600061892782616567565b915061893283616567565b925082820390508181111561894a57618949617bca565b5b92915050565b7f5175697a20646f6573206e6f7420657869737400000000000000000000000000600082015250565b60006189866013836167d2565b915061899182618950565b602082019050919050565b600060208201905081810360008301526189b581618979565b9050919050565b7f4e6f7420696e20726576696577657220706f6f6c000000000000000000000000600082015250565b60006189f26014836167d2565b91506189fd826189bc565b602082019050919050565b60006020820190508181036000830152618a21816189e5565b9050919050565b7f4e487b7100000000000000000000000000000000000000000000000000000000600052603160045260246000fd5b7f496e76616c6964206e756d626572206f662063686f6963657300000000000000600082015250565b6000618a8d6019836167d2565b9150618a9882618a57565b602082019050919050565b60006020820190508181036000830152618abc81618a80565b9050919050565b7f496e76616c696420636f72726563742063686f69636520696e64657800000000600082015250565b6000618af9601c836167d2565b9150618b0482618ac3565b602082019050919050565b60006020820190508181036000830152618b2881618aec565b9050919050565b6000606082019050618b4460008301866167a8565b618b5160208301856167a8565b8181036040830152618b6381846167e3565b9050949350505050565b6000618b7882616db6565b915060ff8203618b8b57618b8a617bca565b5b600182019050919050565b7f436f75727365206e6f742079657420617070726f766564210000000000000000600082015250565b6000618bcc6018836167d2565b9150618bd782618b96565b602082019050919050565b60006020820190508181036000830152618bfb81618bbf565b9050919050565b7f596f752061726520616c726561647920656e726f6c6c656420696e746f20746860008201527f697320636f757273650000000000000000000000000000000000000000000000602082015250565b6000618c5e6029836167d2565b9150618c6982618c02565b604082019050919050565b60006020820190508181036000830152618c8d81618c51565b9050919050565b6000606082019050618ca96000830186616903565b618cb660208301856167a8565b618cc360408301846167a8565b949350505050565b7f53636f726573206d757374206265206265747765656e203120616e642031302e600082015250565b6000618d016020836167d2565b9150618d0c82618ccb565b602082019050919050565b60006020820190508181036000830152618d3081618cf4565b9050919050565b7f4c696d6974204578636565646564210000000000000000000000000000000000600082015250565b6000618d6d600f836167d2565b9150618d7882618d37565b602082019050919050565b60006020820190508181036000830152618d9c81618d60565b9050919050565b7f496e73756666696369656e742062616c616e6365000000000000000000000000600082015250565b6000618dd96014836167d2565b9150618de482618da3565b602082019050919050565b60006020820190508181036000830152618e0881618dcc565b9050919050565b6000604082019050618e246000830185616903565b618e3160208301846169e3565b939250505056fea2646970667358221220a5b852467596b586193e97fc88088d31a648cb4e59fafc84fdcfced5bc6b7a6164736f6c634300081b0033",
  "linkReferences": {},
  "deployedLinkReferences": {}
}