{
  "_format": "hh-sol-artifact-1",
  "contractName": "Ecosystem2",
  "sourceName": "contracts/Ecosystem  Contracts/Ecosystem2.sol",
  "abi": [
    {
      "inputs": [
        {
          "internalType": "address[]",
          "name": "_admins",
          "type": "address[]"
        }
      ],
      "stateMutability": "nonpayable",
      "type": "constructor"
    },
    {
      "inputs": [],
      "name": "AccessControlBadConfirmation",
      "type": "error"
    },
    {
      "inputs": [
        {
          "internalType": "address",
          "name": "account",
          "type": "address"
        },
        {
          "internalType": "bytes32",
          "name": "neededRole",
          "type": "bytes32"
        }
      ],
      "name": "AccessControlUnauthorizedAccount",
      "type": "error"
    },
    {
      "inputs": [
        {
          "internalType": "address",
          "name": "spender",
          "type": "address"
        },
        {
          "internalType": "uint256",
          "name": "allowance",
          "type": "uint256"
        },
        {
          "internalType": "uint256",
          "name": "needed",
          "type": "uint256"
        }
      ],
      "name": "ERC20InsufficientAllowance",
      "type": "error"
    },
    {
      "inputs": [
        {
          "internalType": "address",
          "name": "sender",
          "type": "address"
        },
        {
          "internalType": "uint256",
          "name": "balance",
          "type": "uint256"
        },
        {
          "internalType": "uint256",
          "name": "needed",
          "type": "uint256"
        }
      ],
      "name": "ERC20InsufficientBalance",
      "type": "error"
    },
    {
      "inputs": [
        {
          "internalType": "address",
          "name": "approver",
          "type": "address"
        }
      ],
      "name": "ERC20InvalidApprover",
      "type": "error"
    },
    {
      "inputs": [
        {
          "internalType": "address",
          "name": "receiver",
          "type": "address"
        }
      ],
      "name": "ERC20InvalidReceiver",
      "type": "error"
    },
    {
      "inputs": [
        {
          "internalType": "address",
          "name": "sender",
          "type": "address"
        }
      ],
      "name": "ERC20InvalidSender",
      "type": "error"
    },
    {
      "inputs": [
        {
          "internalType": "address",
          "name": "spender",
          "type": "address"
        }
      ],
      "name": "ERC20InvalidSpender",
      "type": "error"
    },
    {
      "inputs": [],
      "name": "ReentrancyGuardReentrantCall",
      "type": "error"
    },
    {
      "anonymous": false,
      "inputs": [
        {
          "indexed": true,
          "internalType": "address",
          "name": "owner",
          "type": "address"
        },
        {
          "indexed": true,
          "internalType": "address",
          "name": "spender",
          "type": "address"
        },
        {
          "indexed": false,
          "internalType": "uint256",
          "name": "value",
          "type": "uint256"
        }
      ],
      "name": "Approval",
      "type": "event"
    },
    {
      "anonymous": false,
      "inputs": [
        {
          "indexed": true,
          "internalType": "address",
          "name": "_account",
          "type": "address"
        },
        {
          "indexed": false,
          "internalType": "uint256",
          "name": "_amount",
          "type": "uint256"
        }
      ],
      "name": "BurnSuccess",
      "type": "event"
    },
    {
      "anonymous": false,
      "inputs": [
        {
          "indexed": true,
          "internalType": "uint256",
          "name": "_courseId",
          "type": "uint256"
        },
        {
          "indexed": true,
          "internalType": "uint256",
          "name": "numberOfChapters",
          "type": "uint256"
        }
      ],
      "name": "ChaptersAddedSuccessfully",
      "type": "event"
    },
    {
      "anonymous": false,
      "inputs": [
        {
          "indexed": false,
          "internalType": "uint256",
          "name": "questionId",
          "type": "uint256"
        },
        {
          "indexed": false,
          "internalType": "uint256",
          "name": "choiceId",
          "type": "uint256"
        },
        {
          "indexed": false,
          "internalType": "string",
          "name": "option",
          "type": "string"
        }
      ],
      "name": "ChoiceAdded",
      "type": "event"
    },
    {
      "anonymous": false,
      "inputs": [
        {
          "indexed": true,
          "internalType": "uint256",
          "name": "_courseID",
          "type": "uint256"
        },
        {
          "indexed": true,
          "internalType": "string",
          "name": "_courseName",
          "type": "string"
        },
        {
          "indexed": false,
          "internalType": "bool",
          "name": "_approved",
          "type": "bool"
        }
      ],
      "name": "CourseCreationSuccess",
      "type": "event"
    },
    {
      "anonymous": false,
      "inputs": [
        {
          "indexed": true,
          "internalType": "address",
          "name": "_to",
          "type": "address"
        },
        {
          "indexed": true,
          "internalType": "uint256",
          "name": "_amount",
          "type": "uint256"
        }
      ],
      "name": "EcosystemPoolUpdate",
      "type": "event"
    },
    {
      "anonymous": false,
      "inputs": [
        {
          "indexed": true,
          "internalType": "uint256",
          "name": "_courseId",
          "type": "uint256"
        },
        {
          "indexed": true,
          "internalType": "address",
          "name": "_by",
          "type": "address"
        }
      ],
      "name": "EnrollmentSuccess",
      "type": "event"
    },
    {
      "anonymous": false,
      "inputs": [
        {
          "indexed": true,
          "internalType": "uint256",
          "name": "_lessonId",
          "type": "uint256"
        },
        {
          "indexed": true,
          "internalType": "string",
          "name": "_lessonName",
          "type": "string"
        },
        {
          "indexed": true,
          "internalType": "uint256",
          "name": "_additonalResources",
          "type": "uint256"
        }
      ],
      "name": "LessonCreationSuccess",
      "type": "event"
    },
    {
      "anonymous": false,
      "inputs": [
        {
          "indexed": true,
          "internalType": "address",
          "name": "_to",
          "type": "address"
        },
        {
          "indexed": true,
          "internalType": "uint256",
          "name": "_amount",
          "type": "uint256"
        }
      ],
      "name": "MintSuccess",
      "type": "event"
    },
    {
      "anonymous": false,
      "inputs": [
        {
          "indexed": false,
          "internalType": "uint256",
          "name": "quizId",
          "type": "uint256"
        },
        {
          "indexed": false,
          "internalType": "uint256",
          "name": "questionId",
          "type": "uint256"
        },
        {
          "indexed": false,
          "internalType": "string",
          "name": "questionText",
          "type": "string"
        }
      ],
      "name": "QuestionAdded",
      "type": "event"
    },
    {
      "anonymous": false,
      "inputs": [
        {
          "indexed": true,
          "internalType": "uint256",
          "name": "_quizId",
          "type": "uint256"
        },
        {
          "indexed": true,
          "internalType": "string",
          "name": "_title",
          "type": "string"
        }
      ],
      "name": "QuizCreatedSuccess",
      "type": "event"
    },
    {
      "anonymous": false,
      "inputs": [
        {
          "indexed": true,
          "internalType": "uint256",
          "name": "_lessonId",
          "type": "uint256"
        },
        {
          "indexed": true,
          "internalType": "uint256",
          "name": "resourceCount",
          "type": "uint256"
        }
      ],
      "name": "ResourceAddSuccess",
      "type": "event"
    },
    {
      "anonymous": false,
      "inputs": [
        {
          "indexed": true,
          "internalType": "bytes32",
          "name": "role",
          "type": "bytes32"
        },
        {
          "indexed": true,
          "internalType": "bytes32",
          "name": "previousAdminRole",
          "type": "bytes32"
        },
        {
          "indexed": true,
          "internalType": "bytes32",
          "name": "newAdminRole",
          "type": "bytes32"
        }
      ],
      "name": "RoleAdminChanged",
      "type": "event"
    },
    {
      "anonymous": false,
      "inputs": [
        {
          "indexed": true,
          "internalType": "bytes32",
          "name": "role",
          "type": "bytes32"
        },
        {
          "indexed": true,
          "internalType": "address",
          "name": "account",
          "type": "address"
        },
        {
          "indexed": true,
          "internalType": "address",
          "name": "sender",
          "type": "address"
        }
      ],
      "name": "RoleGranted",
      "type": "event"
    },
    {
      "anonymous": false,
      "inputs": [
        {
          "indexed": true,
          "internalType": "bytes32",
          "name": "role",
          "type": "bytes32"
        },
        {
          "indexed": true,
          "internalType": "address",
          "name": "account",
          "type": "address"
        },
        {
          "indexed": true,
          "internalType": "address",
          "name": "sender",
          "type": "address"
        }
      ],
      "name": "RoleRevoked",
      "type": "event"
    },
    {
      "anonymous": false,
      "inputs": [
        {
          "indexed": true,
          "internalType": "address",
          "name": "from",
          "type": "address"
        },
        {
          "indexed": true,
          "internalType": "address",
          "name": "to",
          "type": "address"
        },
        {
          "indexed": false,
          "internalType": "uint256",
          "name": "value",
          "type": "uint256"
        }
      ],
      "name": "Transfer",
      "type": "event"
    },
    {
      "anonymous": false,
      "inputs": [
        {
          "indexed": true,
          "internalType": "uint256",
          "name": "_courseId",
          "type": "uint256"
        },
        {
          "indexed": true,
          "internalType": "address",
          "name": "_by",
          "type": "address"
        }
      ],
      "name": "unEnrollmentSuccess",
      "type": "event"
    },
    {
      "inputs": [],
      "name": "ADMIN_ROLE",
      "outputs": [
        {
          "internalType": "bytes32",
          "name": "",
          "type": "bytes32"
        }
      ],
      "stateMutability": "view",
      "type": "function"
    },
    {
      "inputs": [],
      "name": "COURSE_OWNER_ROLE",
      "outputs": [
        {
          "internalType": "bytes32",
          "name": "",
          "type": "bytes32"
        }
      ],
      "stateMutability": "view",
      "type": "function"
    },
    {
      "inputs": [],
      "name": "CREATE_COURSE_REWARD",
      "outputs": [
        {
          "internalType": "uint256",
          "name": "",
          "type": "uint256"
        }
      ],
      "stateMutability": "view",
      "type": "function"
    },
    {
      "inputs": [],
      "name": "DEFAULT_ADMIN_ROLE",
      "outputs": [
        {
          "internalType": "bytes32",
          "name": "",
          "type": "bytes32"
        }
      ],
      "stateMutability": "view",
      "type": "function"
    },
    {
      "inputs": [],
      "name": "ECOSYSTEM_POOL",
      "outputs": [
        {
          "internalType": "uint256",
          "name": "",
          "type": "uint256"
        }
      ],
      "stateMutability": "view",
      "type": "function"
    },
    {
      "inputs": [],
      "name": "ENROLLMENT_REWARD",
      "outputs": [
        {
          "internalType": "uint256",
          "name": "",
          "type": "uint256"
        }
      ],
      "stateMutability": "view",
      "type": "function"
    },
    {
      "inputs": [],
      "name": "MAX_SCORE",
      "outputs": [
        {
          "internalType": "uint256",
          "name": "",
          "type": "uint256"
        }
      ],
      "stateMutability": "view",
      "type": "function"
    },
    {
      "inputs": [],
      "name": "MAX_SUPPLY",
      "outputs": [
        {
          "internalType": "uint256",
          "name": "",
          "type": "uint256"
        }
      ],
      "stateMutability": "view",
      "type": "function"
    },
    {
      "inputs": [],
      "name": "MIN_APPROVAL_SCORE",
      "outputs": [
        {
          "internalType": "uint256",
          "name": "",
          "type": "uint256"
        }
      ],
      "stateMutability": "view",
      "type": "function"
    },
    {
      "inputs": [],
      "name": "REQUIRED_APPROVALS",
      "outputs": [
        {
          "internalType": "uint256",
          "name": "",
          "type": "uint256"
        }
      ],
      "stateMutability": "view",
      "type": "function"
    },
    {
      "inputs": [
        {
          "internalType": "address",
          "name": "",
          "type": "address"
        }
      ],
      "name": "accountCourses",
      "outputs": [
        {
          "internalType": "uint256",
          "name": "courseCount",
          "type": "uint256"
        }
      ],
      "stateMutability": "view",
      "type": "function"
    },
    {
      "inputs": [
        {
          "internalType": "address",
          "name": "newAdmin",
          "type": "address"
        }
      ],
      "name": "addAdmin",
      "outputs": [],
      "stateMutability": "nonpayable",
      "type": "function"
    },
    {
      "inputs": [
        {
          "internalType": "uint256",
          "name": "_courseId",
          "type": "uint256"
        },
        {
          "internalType": "string[]",
          "name": "_chapters",
          "type": "string[]"
        }
      ],
      "name": "addChapters",
      "outputs": [
        {
          "internalType": "bool",
          "name": "",
          "type": "bool"
        }
      ],
      "stateMutability": "nonpayable",
      "type": "function"
    },
    {
      "inputs": [
        {
          "internalType": "uint256",
          "name": "_chapterId",
          "type": "uint256"
        },
        {
          "internalType": "string",
          "name": "_lessonName",
          "type": "string"
        },
        {
          "internalType": "string",
          "name": "_lessonContent",
          "type": "string"
        }
      ],
      "name": "addLesson",
      "outputs": [],
      "stateMutability": "nonpayable",
      "type": "function"
    },
    {
      "inputs": [
        {
          "internalType": "uint256",
          "name": "_lessonId",
          "type": "uint256"
        },
        {
          "components": [
            {
              "internalType": "string",
              "name": "contentType",
              "type": "string"
            },
            {
              "internalType": "string",
              "name": "url",
              "type": "string"
            },
            {
              "internalType": "string",
              "name": "description",
              "type": "string"
            }
          ],
          "internalType": "struct Ecosystem.Resource[]",
          "name": "_resources",
          "type": "tuple[]"
        }
      ],
      "name": "addResourcesToLesson",
      "outputs": [],
      "stateMutability": "nonpayable",
      "type": "function"
    },
    {
      "inputs": [
        {
          "internalType": "address",
          "name": "owner",
          "type": "address"
        },
        {
          "internalType": "address",
          "name": "spender",
          "type": "address"
        }
      ],
      "name": "allowance",
      "outputs": [
        {
          "internalType": "uint256",
          "name": "",
          "type": "uint256"
        }
      ],
      "stateMutability": "view",
      "type": "function"
    },
    {
      "inputs": [
        {
          "internalType": "address",
          "name": "",
          "type": "address"
        },
        {
          "internalType": "uint256",
          "name": "",
          "type": "uint256"
        }
      ],
      "name": "approvals",
      "outputs": [
        {
          "internalType": "bool",
          "name": "",
          "type": "bool"
        }
      ],
      "stateMutability": "view",
      "type": "function"
    },
    {
      "inputs": [
        {
          "internalType": "address",
          "name": "spender",
          "type": "address"
        },
        {
          "internalType": "uint256",
          "name": "value",
          "type": "uint256"
        }
      ],
      "name": "approve",
      "outputs": [
        {
          "internalType": "bool",
          "name": "",
          "type": "bool"
        }
      ],
      "stateMutability": "nonpayable",
      "type": "function"
    },
    {
      "inputs": [
        {
          "internalType": "uint256",
          "name": "_courseId",
          "type": "uint256"
        }
      ],
      "name": "approveCourse",
      "outputs": [],
      "stateMutability": "nonpayable",
      "type": "function"
    },
    {
      "inputs": [
        {
          "internalType": "address",
          "name": "account",
          "type": "address"
        }
      ],
      "name": "balanceOf",
      "outputs": [
        {
          "internalType": "uint256",
          "name": "",
          "type": "uint256"
        }
      ],
      "stateMutability": "view",
      "type": "function"
    },
    {
      "inputs": [
        {
          "internalType": "uint256",
          "name": "",
          "type": "uint256"
        }
      ],
      "name": "chapter",
      "outputs": [
        {
          "internalType": "uint256",
          "name": "chapterId",
          "type": "uint256"
        },
        {
          "internalType": "string",
          "name": "chapterName",
          "type": "string"
        }
      ],
      "stateMutability": "view",
      "type": "function"
    },
    {
      "inputs": [
        {
          "internalType": "uint256",
          "name": "",
          "type": "uint256"
        },
        {
          "internalType": "uint256",
          "name": "",
          "type": "uint256"
        }
      ],
      "name": "chapterLessons",
      "outputs": [
        {
          "internalType": "string",
          "name": "",
          "type": "string"
        }
      ],
      "stateMutability": "view",
      "type": "function"
    },
    {
      "inputs": [
        {
          "internalType": "uint256",
          "name": "",
          "type": "uint256"
        },
        {
          "internalType": "uint256",
          "name": "",
          "type": "uint256"
        }
      ],
      "name": "courseChapters",
      "outputs": [
        {
          "internalType": "string",
          "name": "",
          "type": "string"
        }
      ],
      "stateMutability": "view",
      "type": "function"
    },
    {
      "inputs": [],
      "name": "courseCount",
      "outputs": [
        {
          "internalType": "uint256",
          "name": "",
          "type": "uint256"
        }
      ],
      "stateMutability": "view",
      "type": "function"
    },
    {
      "inputs": [
        {
          "internalType": "uint256",
          "name": "",
          "type": "uint256"
        }
      ],
      "name": "courseObject",
      "outputs": [
        {
          "internalType": "uint256",
          "name": "courseId",
          "type": "uint256"
        },
        {
          "internalType": "string",
          "name": "courseName",
          "type": "string"
        },
        {
          "internalType": "string",
          "name": "description",
          "type": "string"
        },
        {
          "internalType": "bool",
          "name": "approved",
          "type": "bool"
        },
        {
          "internalType": "uint256",
          "name": "approvalCount",
          "type": "uint256"
        },
        {
          "internalType": "address",
          "name": "creator",
          "type": "address"
        }
      ],
      "stateMutability": "view",
      "type": "function"
    },
    {
      "inputs": [
        {
          "internalType": "string",
          "name": "_courseName",
          "type": "string"
        },
        {
          "internalType": "string",
          "name": "_description",
          "type": "string"
        }
      ],
      "name": "createCourse",
      "outputs": [
        {
          "internalType": "bool",
          "name": "",
          "type": "bool"
        }
      ],
      "stateMutability": "nonpayable",
      "type": "function"
    },
    {
      "inputs": [
        {
          "internalType": "uint256",
          "name": "_quizId",
          "type": "uint256"
        },
        {
          "internalType": "string",
          "name": "_questionText",
          "type": "string"
        },
        {
          "internalType": "string[]",
          "name": "_options",
          "type": "string[]"
        },
        {
          "internalType": "uint8",
          "name": "_correctChoiceIndex",
          "type": "uint8"
        }
      ],
      "name": "createQuestionWithChoices",
      "outputs": [],
      "stateMutability": "nonpayable",
      "type": "function"
    },
    {
      "inputs": [
        {
          "internalType": "uint256",
          "name": "_lessonId",
          "type": "uint256"
        },
        {
          "internalType": "string",
          "name": "_title",
          "type": "string"
        }
      ],
      "name": "createQuiz",
      "outputs": [
        {
          "internalType": "uint256",
          "name": "",
          "type": "uint256"
        }
      ],
      "stateMutability": "nonpayable",
      "type": "function"
    },
    {
      "inputs": [],
      "name": "decimals",
      "outputs": [
        {
          "internalType": "uint8",
          "name": "",
          "type": "uint8"
        }
      ],
      "stateMutability": "view",
      "type": "function"
    },
    {
      "inputs": [],
      "name": "ecosystemPoolSupply",
      "outputs": [
        {
          "internalType": "uint256",
          "name": "",
          "type": "uint256"
        }
      ],
      "stateMutability": "view",
      "type": "function"
    },
    {
      "inputs": [
        {
          "internalType": "uint256",
          "name": "_courseId",
          "type": "uint256"
        }
      ],
      "name": "enroll",
      "outputs": [
        {
          "internalType": "bool",
          "name": "",
          "type": "bool"
        }
      ],
      "stateMutability": "nonpayable",
      "type": "function"
    },
    {
      "inputs": [],
      "name": "getAllCourses",
      "outputs": [
        {
          "components": [
            {
              "internalType": "uint256",
              "name": "courseId",
              "type": "uint256"
            },
            {
              "internalType": "string",
              "name": "courseName",
              "type": "string"
            },
            {
              "internalType": "string",
              "name": "description",
              "type": "string"
            },
            {
              "internalType": "bool",
              "name": "approved",
              "type": "bool"
            },
            {
              "internalType": "uint256",
              "name": "approvalCount",
              "type": "uint256"
            },
            {
              "internalType": "address",
              "name": "creator",
              "type": "address"
            }
          ],
          "internalType": "struct Ecosystem.Course[]",
          "name": "",
          "type": "tuple[]"
        }
      ],
      "stateMutability": "view",
      "type": "function"
    },
    {
      "inputs": [],
      "name": "getAllLessons",
      "outputs": [
        {
          "components": [
            {
              "internalType": "uint256",
              "name": "lessonId",
              "type": "uint256"
            },
            {
              "internalType": "string",
              "name": "lessonName",
              "type": "string"
            },
            {
              "internalType": "string",
              "name": "lessonContent",
              "type": "string"
            },
            {
              "components": [
                {
                  "internalType": "string",
                  "name": "contentType",
                  "type": "string"
                },
                {
                  "internalType": "string",
                  "name": "url",
                  "type": "string"
                },
                {
                  "internalType": "string",
                  "name": "description",
                  "type": "string"
                }
              ],
              "internalType": "struct Ecosystem.Resource[10]",
              "name": "additionalResources",
              "type": "tuple[10]"
            },
            {
              "internalType": "uint256",
              "name": "resourceCount",
              "type": "uint256"
            }
          ],
          "internalType": "struct Ecosystem.Lesson[]",
          "name": "",
          "type": "tuple[]"
        }
      ],
      "stateMutability": "view",
      "type": "function"
    },
    {
      "inputs": [
        {
          "internalType": "uint256",
          "name": "_courseId",
          "type": "uint256"
        }
      ],
      "name": "getChapters",
      "outputs": [
        {
          "components": [
            {
              "internalType": "uint256",
              "name": "chapterId",
              "type": "uint256"
            },
            {
              "internalType": "string",
              "name": "chapterName",
              "type": "string"
            }
          ],
          "internalType": "struct Ecosystem.Chapter[]",
          "name": "",
          "type": "tuple[]"
        }
      ],
      "stateMutability": "view",
      "type": "function"
    },
    {
      "inputs": [],
      "name": "getCurrentEcosystemPoolSupply",
      "outputs": [
        {
          "internalType": "uint256",
          "name": "",
          "type": "uint256"
        }
      ],
      "stateMutability": "view",
      "type": "function"
    },
    {
      "inputs": [
        {
          "internalType": "uint256",
          "name": "_quizId",
          "type": "uint256"
        }
      ],
      "name": "getQuiz",
      "outputs": [
        {
          "components": [
            {
              "internalType": "uint256",
              "name": "quizId",
              "type": "uint256"
            },
            {
              "internalType": "string",
              "name": "quizTitle",
              "type": "string"
            },
            {
              "components": [
                {
                  "internalType": "uint256",
                  "name": "questionId",
                  "type": "uint256"
                },
                {
                  "internalType": "string",
                  "name": "questionText",
                  "type": "string"
                },
                {
                  "components": [
                    {
                      "internalType": "string",
                      "name": "option",
                      "type": "string"
                    },
                    {
                      "internalType": "bool",
                      "name": "isCorrect",
                      "type": "bool"
                    }
                  ],
                  "internalType": "struct Ecosystem.Choice[]",
                  "name": "choices",
                  "type": "tuple[]"
                }
              ],
              "internalType": "struct Ecosystem.Question[]",
              "name": "questions",
              "type": "tuple[]"
            }
          ],
          "internalType": "struct Ecosystem.Quiz",
          "name": "",
          "type": "tuple"
        }
      ],
      "stateMutability": "view",
      "type": "function"
    },
    {
      "inputs": [
        {
          "internalType": "bytes32",
          "name": "role",
          "type": "bytes32"
        }
      ],
      "name": "getRoleAdmin",
      "outputs": [
        {
          "internalType": "bytes32",
          "name": "",
          "type": "bytes32"
        }
      ],
      "stateMutability": "view",
      "type": "function"
    },
    {
      "inputs": [
        {
          "internalType": "bytes32",
          "name": "role",
          "type": "bytes32"
        },
        {
          "internalType": "address",
          "name": "account",
          "type": "address"
        }
      ],
      "name": "grantRole",
      "outputs": [],
      "stateMutability": "nonpayable",
      "type": "function"
    },
    {
      "inputs": [
        {
          "internalType": "bytes32",
          "name": "role",
          "type": "bytes32"
        },
        {
          "internalType": "address",
          "name": "account",
          "type": "address"
        }
      ],
      "name": "hasRole",
      "outputs": [
        {
          "internalType": "bool",
          "name": "",
          "type": "bool"
        }
      ],
      "stateMutability": "view",
      "type": "function"
    },
    {
      "inputs": [
        {
          "internalType": "address",
          "name": "account",
          "type": "address"
        }
      ],
      "name": "isAdmin",
      "outputs": [
        {
          "internalType": "bool",
          "name": "",
          "type": "bool"
        }
      ],
      "stateMutability": "view",
      "type": "function"
    },
    {
      "inputs": [
        {
          "internalType": "uint256",
          "name": "",
          "type": "uint256"
        },
        {
          "internalType": "address",
          "name": "",
          "type": "address"
        }
      ],
      "name": "isEnrolled",
      "outputs": [
        {
          "internalType": "bool",
          "name": "",
          "type": "bool"
        }
      ],
      "stateMutability": "view",
      "type": "function"
    },
    {
      "inputs": [
        {
          "internalType": "uint256",
          "name": "",
          "type": "uint256"
        }
      ],
      "name": "lesson",
      "outputs": [
        {
          "internalType": "uint256",
          "name": "lessonId",
          "type": "uint256"
        },
        {
          "internalType": "string",
          "name": "lessonName",
          "type": "string"
        },
        {
          "internalType": "string",
          "name": "lessonContent",
          "type": "string"
        },
        {
          "internalType": "uint256",
          "name": "resourceCount",
          "type": "uint256"
        }
      ],
      "stateMutability": "view",
      "type": "function"
    },
    {
      "inputs": [
        {
          "internalType": "uint256",
          "name": "",
          "type": "uint256"
        }
      ],
      "name": "listOfChapters",
      "outputs": [
        {
          "internalType": "uint256",
          "name": "chapterId",
          "type": "uint256"
        },
        {
          "internalType": "string",
          "name": "chapterName",
          "type": "string"
        }
      ],
      "stateMutability": "view",
      "type": "function"
    },
    {
      "inputs": [
        {
          "internalType": "uint256",
          "name": "",
          "type": "uint256"
        }
      ],
      "name": "listOfCourses",
      "outputs": [
        {
          "internalType": "uint256",
          "name": "courseId",
          "type": "uint256"
        },
        {
          "internalType": "string",
          "name": "courseName",
          "type": "string"
        },
        {
          "internalType": "string",
          "name": "description",
          "type": "string"
        },
        {
          "internalType": "bool",
          "name": "approved",
          "type": "bool"
        },
        {
          "internalType": "uint256",
          "name": "approvalCount",
          "type": "uint256"
        },
        {
          "internalType": "address",
          "name": "creator",
          "type": "address"
        }
      ],
      "stateMutability": "view",
      "type": "function"
    },
    {
      "inputs": [
        {
          "internalType": "uint256",
          "name": "",
          "type": "uint256"
        }
      ],
      "name": "listOfLessons",
      "outputs": [
        {
          "internalType": "uint256",
          "name": "lessonId",
          "type": "uint256"
        },
        {
          "internalType": "string",
          "name": "lessonName",
          "type": "string"
        },
        {
          "internalType": "string",
          "name": "lessonContent",
          "type": "string"
        },
        {
          "internalType": "uint256",
          "name": "resourceCount",
          "type": "uint256"
        }
      ],
      "stateMutability": "view",
      "type": "function"
    },
    {
      "inputs": [
        {
          "internalType": "uint256",
          "name": "",
          "type": "uint256"
        }
      ],
      "name": "listOfQuestions",
      "outputs": [
        {
          "internalType": "uint256",
          "name": "questionId",
          "type": "uint256"
        },
        {
          "internalType": "string",
          "name": "questionText",
          "type": "string"
        }
      ],
      "stateMutability": "view",
      "type": "function"
    },
    {
      "inputs": [
        {
          "internalType": "uint256",
          "name": "",
          "type": "uint256"
        }
      ],
      "name": "listOfQuizzes",
      "outputs": [
        {
          "internalType": "uint256",
          "name": "quizId",
          "type": "uint256"
        },
        {
          "internalType": "string",
          "name": "quizTitle",
          "type": "string"
        }
      ],
      "stateMutability": "view",
      "type": "function"
    },
    {
      "inputs": [
        {
          "internalType": "uint256",
          "name": "",
          "type": "uint256"
        }
      ],
      "name": "listOfResource",
      "outputs": [
        {
          "internalType": "string",
          "name": "contentType",
          "type": "string"
        },
        {
          "internalType": "string",
          "name": "url",
          "type": "string"
        },
        {
          "internalType": "string",
          "name": "description",
          "type": "string"
        }
      ],
      "stateMutability": "view",
      "type": "function"
    },
    {
      "inputs": [],
      "name": "name",
      "outputs": [
        {
          "internalType": "string",
          "name": "",
          "type": "string"
        }
      ],
      "stateMutability": "view",
      "type": "function"
    },
    {
      "inputs": [],
      "name": "nextChapterId",
      "outputs": [
        {
          "internalType": "uint256",
          "name": "",
          "type": "uint256"
        }
      ],
      "stateMutability": "view",
      "type": "function"
    },
    {
      "inputs": [],
      "name": "nextChoiceId",
      "outputs": [
        {
          "internalType": "uint256",
          "name": "",
          "type": "uint256"
        }
      ],
      "stateMutability": "view",
      "type": "function"
    },
    {
      "inputs": [],
      "name": "nextCourseId",
      "outputs": [
        {
          "internalType": "uint256",
          "name": "",
          "type": "uint256"
        }
      ],
      "stateMutability": "view",
      "type": "function"
    },
    {
      "inputs": [],
      "name": "nextCourseIdd",
      "outputs": [
        {
          "internalType": "uint256",
          "name": "",
          "type": "uint256"
        }
      ],
      "stateMutability": "view",
      "type": "function"
    },
    {
      "inputs": [],
      "name": "nextLessonId",
      "outputs": [
        {
          "internalType": "uint256",
          "name": "",
          "type": "uint256"
        }
      ],
      "stateMutability": "view",
      "type": "function"
    },
    {
      "inputs": [],
      "name": "nextQuestionId",
      "outputs": [
        {
          "internalType": "uint256",
          "name": "",
          "type": "uint256"
        }
      ],
      "stateMutability": "view",
      "type": "function"
    },
    {
      "inputs": [],
      "name": "nextQuizId",
      "outputs": [
        {
          "internalType": "uint256",
          "name": "",
          "type": "uint256"
        }
      ],
      "stateMutability": "view",
      "type": "function"
    },
    {
      "inputs": [
        {
          "internalType": "uint256",
          "name": "",
          "type": "uint256"
        }
      ],
      "name": "questions",
      "outputs": [
        {
          "internalType": "uint256",
          "name": "questionId",
          "type": "uint256"
        },
        {
          "internalType": "string",
          "name": "questionText",
          "type": "string"
        }
      ],
      "stateMutability": "view",
      "type": "function"
    },
    {
      "inputs": [
        {
          "internalType": "uint256",
          "name": "",
          "type": "uint256"
        }
      ],
      "name": "quizzes",
      "outputs": [
        {
          "internalType": "uint256",
          "name": "quizId",
          "type": "uint256"
        },
        {
          "internalType": "string",
          "name": "quizTitle",
          "type": "string"
        }
      ],
      "stateMutability": "view",
      "type": "function"
    },
    {
      "inputs": [
        {
          "internalType": "address",
          "name": "admin",
          "type": "address"
        }
      ],
      "name": "removeAdmin",
      "outputs": [],
      "stateMutability": "nonpayable",
      "type": "function"
    },
    {
      "inputs": [
        {
          "internalType": "bytes32",
          "name": "role",
          "type": "bytes32"
        },
        {
          "internalType": "address",
          "name": "callerConfirmation",
          "type": "address"
        }
      ],
      "name": "renounceRole",
      "outputs": [],
      "stateMutability": "nonpayable",
      "type": "function"
    },
    {
      "inputs": [
        {
          "internalType": "uint256",
          "name": "",
          "type": "uint256"
        },
        {
          "internalType": "address",
          "name": "",
          "type": "address"
        }
      ],
      "name": "reviews",
      "outputs": [
        {
          "internalType": "uint256",
          "name": "learnerAgency",
          "type": "uint256"
        },
        {
          "internalType": "uint256",
          "name": "criticalThinking",
          "type": "uint256"
        },
        {
          "internalType": "uint256",
          "name": "collaborativeLearning",
          "type": "uint256"
        },
        {
          "internalType": "uint256",
          "name": "reflectivePractice",
          "type": "uint256"
        },
        {
          "internalType": "uint256",
          "name": "adaptiveLearning",
          "type": "uint256"
        },
        {
          "internalType": "uint256",
          "name": "authenticLearning",
          "type": "uint256"
        },
        {
          "internalType": "uint256",
          "name": "technologyIntegration",
          "type": "uint256"
        },
        {
          "internalType": "uint256",
          "name": "learnerSupport",
          "type": "uint256"
        },
        {
          "internalType": "uint256",
          "name": "assessmentForLearning",
          "type": "uint256"
        },
        {
          "internalType": "uint256",
          "name": "engagementAndMotivation",
          "type": "uint256"
        },
        {
          "internalType": "bool",
          "name": "isSubmitted",
          "type": "bool"
        }
      ],
      "stateMutability": "view",
      "type": "function"
    },
    {
      "inputs": [
        {
          "internalType": "bytes32",
          "name": "role",
          "type": "bytes32"
        },
        {
          "internalType": "address",
          "name": "account",
          "type": "address"
        }
      ],
      "name": "revokeRole",
      "outputs": [],
      "stateMutability": "nonpayable",
      "type": "function"
    },
    {
      "inputs": [
        {
          "internalType": "uint256",
          "name": "courseId",
          "type": "uint256"
        },
        {
          "internalType": "uint256",
          "name": "learnerAgency",
          "type": "uint256"
        },
        {
          "internalType": "uint256",
          "name": "criticalThinking",
          "type": "uint256"
        },
        {
          "internalType": "uint256",
          "name": "collaborativeLearning",
          "type": "uint256"
        },
        {
          "internalType": "uint256",
          "name": "reflectivePractice",
          "type": "uint256"
        },
        {
          "internalType": "uint256",
          "name": "adaptiveLearning",
          "type": "uint256"
        },
        {
          "internalType": "uint256",
          "name": "authenticLearning",
          "type": "uint256"
        },
        {
          "internalType": "uint256",
          "name": "technologyIntegration",
          "type": "uint256"
        },
        {
          "internalType": "uint256",
          "name": "learnerSupport",
          "type": "uint256"
        },
        {
          "internalType": "uint256",
          "name": "assessmentForLearning",
          "type": "uint256"
        },
        {
          "internalType": "uint256",
          "name": "engagementAndMotivation",
          "type": "uint256"
        }
      ],
      "name": "submitReview",
      "outputs": [],
      "stateMutability": "nonpayable",
      "type": "function"
    },
    {
      "inputs": [
        {
          "internalType": "bytes4",
          "name": "interfaceId",
          "type": "bytes4"
        }
      ],
      "name": "supportsInterface",
      "outputs": [
        {
          "internalType": "bool",
          "name": "",
          "type": "bool"
        }
      ],
      "stateMutability": "view",
      "type": "function"
    },
    {
      "inputs": [],
      "name": "symbol",
      "outputs": [
        {
          "internalType": "string",
          "name": "",
          "type": "string"
        }
      ],
      "stateMutability": "view",
      "type": "function"
    },
    {
      "inputs": [],
      "name": "totalSupply",
      "outputs": [
        {
          "internalType": "uint256",
          "name": "",
          "type": "uint256"
        }
      ],
      "stateMutability": "view",
      "type": "function"
    },
    {
      "inputs": [
        {
          "internalType": "address",
          "name": "to",
          "type": "address"
        },
        {
          "internalType": "uint256",
          "name": "value",
          "type": "uint256"
        }
      ],
      "name": "transfer",
      "outputs": [
        {
          "internalType": "bool",
          "name": "",
          "type": "bool"
        }
      ],
      "stateMutability": "nonpayable",
      "type": "function"
    },
    {
      "inputs": [
        {
          "internalType": "address",
          "name": "from",
          "type": "address"
        },
        {
          "internalType": "address",
          "name": "to",
          "type": "address"
        },
        {
          "internalType": "uint256",
          "name": "value",
          "type": "uint256"
        }
      ],
      "name": "transferFrom",
      "outputs": [
        {
          "internalType": "bool",
          "name": "",
          "type": "bool"
        }
      ],
      "stateMutability": "nonpayable",
      "type": "function"
    },
    {
      "inputs": [
        {
          "internalType": "uint256",
          "name": "_courseId",
          "type": "uint256"
        }
      ],
      "name": "unEnroll",
      "outputs": [
        {
          "internalType": "bool",
          "name": "",
          "type": "bool"
        }
      ],
      "stateMutability": "nonpayable",
      "type": "function"
    }
  ],
  "bytecode": "0x608060405234801561001057600080fd5b506040516186de3803806186de8339818101604052810190610032919061051b565b80806040518060400160405280600a81526020017f4142594120544f4b454e000000000000000000000000000000000000000000008152506040518060400160405280600681526020017f414259544b4e000000000000000000000000000000000000000000000000000081525081600390816100af9190610785565b5080600490816100bf9190610785565b505050600281511015610107576040517f08c379a00000000000000000000000000000000000000000000000000000000081526004016100fe906108b4565b60405180910390fd5b61011a6000801b336101a060201b60201c565b5060005b815181101561017f576101717fa49807205ce4d355092ef5a8a18f56e8913cf4a201fbe287825b095693c2177583838151811061015e5761015d6108d4565b5b60200260200101516101a060201b60201c565b50808060010191505061011e565b50506001600681905550610199600761029e60201b60201c565b5050610903565b60006101b283836102dd60201b60201c565b6102935760016005600085815260200190815260200160002060000160008473ffffffffffffffffffffffffffffffffffffffff1673ffffffffffffffffffffffffffffffffffffffff16815260200190815260200160002060006101000a81548160ff02191690831515021790555061023061034860201b60201c565b73ffffffffffffffffffffffffffffffffffffffff168273ffffffffffffffffffffffffffffffffffffffff16847f2f8788117e7eff1d82e926ec794901d17c78024a50270940304540a733656f0d60405160405180910390a460019050610298565b600090505b92915050565b60018160000181905550600181600101819055506001816002018190555060018160030181905550600181600401819055506001816005018190555050565b60006005600084815260200190815260200160002060000160008373ffffffffffffffffffffffffffffffffffffffff1673ffffffffffffffffffffffffffffffffffffffff16815260200190815260200160002060009054906101000a900460ff16905092915050565b600033905090565b6000604051905090565b600080fd5b600080fd5b600080fd5b6000601f19601f8301169050919050565b7f4e487b7100000000000000000000000000000000000000000000000000000000600052604160045260246000fd5b6103b282610369565b810181811067ffffffffffffffff821117156103d1576103d061037a565b5b80604052505050565b60006103e4610350565b90506103f082826103a9565b919050565b600067ffffffffffffffff8211156104105761040f61037a565b5b602082029050602081019050919050565b600080fd5b600073ffffffffffffffffffffffffffffffffffffffff82169050919050565b600061045182610426565b9050919050565b61046181610446565b811461046c57600080fd5b50565b60008151905061047e81610458565b92915050565b6000610497610492846103f5565b6103da565b905080838252602082019050602084028301858111156104ba576104b9610421565b5b835b818110156104e357806104cf888261046f565b8452602084019350506020810190506104bc565b5050509392505050565b600082601f83011261050257610501610364565b5b8151610512848260208601610484565b91505092915050565b6000602082840312156105315761053061035a565b5b600082015167ffffffffffffffff81111561054f5761054e61035f565b5b61055b848285016104ed565b91505092915050565b600081519050919050565b7f4e487b7100000000000000000000000000000000000000000000000000000000600052602260045260246000fd5b600060028204905060018216806105b657607f821691505b6020821081036105c9576105c861056f565b5b50919050565b60008190508160005260206000209050919050565b60006020601f8301049050919050565b600082821b905092915050565b6000600883026106317fffffffffffffffffffffffffffffffffffffffffffffffffffffffffffffffff826105f4565b61063b86836105f4565b95508019841693508086168417925050509392505050565b6000819050919050565b6000819050919050565b600061068261067d61067884610653565b61065d565b610653565b9050919050565b6000819050919050565b61069c83610667565b6106b06106a882610689565b848454610601565b825550505050565b600090565b6106c56106b8565b6106d0818484610693565b505050565b5b818110156106f4576106e96000826106bd565b6001810190506106d6565b5050565b601f8211156107395761070a816105cf565b610713846105e4565b81016020851015610722578190505b61073661072e856105e4565b8301826106d5565b50505b505050565b600082821c905092915050565b600061075c6000198460080261073e565b1980831691505092915050565b6000610775838361074b565b9150826002028217905092915050565b61078e82610564565b67ffffffffffffffff8111156107a7576107a661037a565b5b6107b1825461059e565b6107bc8282856106f8565b600060209050601f8311600181146107ef57600084156107dd578287015190505b6107e78582610769565b86555061084f565b601f1984166107fd866105cf565b60005b8281101561082557848901518255600182019150602085019450602081019050610800565b86831015610842578489015161083e601f89168261074b565b8355505b6001600288020188555050505b505050505050565b600082825260208201905092915050565b7f4174206c6561737420322061646d696e73206172652072657175697265640000600082015250565b600061089e601e83610857565b91506108a982610868565b602082019050919050565b600060208201905081810360008301526108cd81610891565b9050919050565b7f4e487b7100000000000000000000000000000000000000000000000000000000600052603260045260246000fd5b617dcc806109126000396000f3fe608060405234801561001057600080fd5b50600436106104075760003560e01c80637048027511610220578063aa95da3a11610130578063d547741f116100b8578063ded5c18d11610087578063ded5c18d14610dc8578063e503f10814610de6578063eb264b9c14610e04578063f57d585b14610e22578063ffabc67314610e5257610407565b8063d547741f14610d2c578063d93f2caa14610d48578063dd62ed3e14610d66578063ddfc79fb14610d9657610407565b8063c12804fb116100ff578063c12804fb14610c57578063c7954e4c14610c91578063c90c884d14610caf578063c976831514610ce0578063d3751bfc14610d1057610407565b8063aa95da3a14610ba6578063ac678a9314610bd6578063ac957c6314610c06578063bfd2f4c514610c2457610407565b806391d14854116101b3578063a26a795311610182578063a26a795314610ac7578063a296ea5814610af7578063a3ef204114610b15578063a3f7e09614610b46578063a9059cbb14610b7657610407565b806391d1485414610a3d57806395d89b4114610a6d578063a14ecbdf14610a8b578063a217fddf14610aa957610407565b806375b9d869116101ef57806375b9d869146109b45780637d83daf2146109d0578063846f8152146109ee57806388409afa14610a0c57610407565b8063704802751461092e57806370a082311461094a578063752849981461097a57806375b238fc1461099657610407565b80632f2ff15d1161031b5780634d42ef48116102ae5780635d33d4521161027d5780635d33d45214610871578063632c224b1461088d57806366055159146108bd5780636b000fa7146108db5780636fdb67f7146108f957610407565b80634d42ef48146107d657806351d93c811461080657806358a3fa2514610837578063599c55331461085357610407565b806332cb6b0c116102ea57806332cb6b0c1461074e57806334ed4bdb1461076c57806336568abe1461079c5780633693dcfa146107b857610407565b80632f2ff15d146106b35780632fab55af146106cf578063313ce567146106ff57806331b1b9781461071d57610407565b806323b872dd1161039e57806327ff62231161036d57806327ff6223146105de578063295b825a146105fc5780632990db7c1461062d57806329a0be65146106625780632aac61ae1461068057610407565b806323b872dd14610530578063248a9ca31461056057806324d7806c14610590578063274202f0146105c057610407565b8063095ea7b3116103da578063095ea7b3146104965780631785f53c146104c657806318160ddd146104e257806320bd03161461050057610407565b806301ffc9a71461040c57806304e48bd11461043c578063057f46bb1461045a57806306fdde0314610478575b600080fd5b61042660048036038101906104219190615926565b610e82565b604051610433919061596e565b60405180910390f35b610444610efc565b6040516104519190615bd4565b60405180910390f35b6104626111fe565b60405161046f9190615c05565b60405180910390f35b610480611204565b60405161048d9190615c6a565b60405180910390f35b6104b060048036038101906104ab9190615ce4565b611296565b6040516104bd919061596e565b60405180910390f35b6104e060048036038101906104db9190615d24565b6112b9565b005b6104ea6112f4565b6040516104f79190615c05565b60405180910390f35b61051a60048036038101906105159190615d51565b6112fe565b604051610527919061596e565b60405180910390f35b61054a60048036038101906105459190615d7e565b611475565b604051610557919061596e565b60405180910390f35b61057a60048036038101906105759190615e07565b6114a4565b6040516105879190615e43565b60405180910390f35b6105aa60048036038101906105a59190615d24565b6114c4565b6040516105b7919061596e565b60405180910390f35b6105c86114f7565b6040516105d59190615c05565b60405180910390f35b6105e661151f565b6040516105f39190615c05565b60405180910390f35b61061660048036038101906106119190615d51565b611524565b604051610624929190615e5e565b60405180910390f35b61064760048036038101906106429190615d51565b6115e0565b60405161065996959493929190615e9d565b60405180910390f35b61066a611759565b6040516106779190615c05565b60405180910390f35b61069a60048036038101906106959190615d51565b61175f565b6040516106aa9493929190615f0c565b60405180910390f35b6106cd60048036038101906106c89190615f5f565b6118af565b005b6106e960048036038101906106e491906161ba565b6118d1565b6040516106f6919061596e565b60405180910390f35b610707611b3e565b6040516107149190616232565b60405180910390f35b61073760048036038101906107329190615d51565b611b47565b604051610745929190615e5e565b60405180910390f35b610756611bf3565b6040516107639190615c05565b60405180910390f35b61078660048036038101906107819190615d24565b611c03565b6040516107939190615c05565b60405180910390f35b6107b660048036038101906107b19190615f5f565b611c21565b005b6107c0611c9c565b6040516107cd9190615e43565b60405180910390f35b6107f060048036038101906107eb919061624d565b611cc0565b6040516107fd9190615c6a565b60405180910390f35b610820600480360381019061081b9190615d51565b611d79565b60405161082e929190615e5e565b60405180910390f35b610851600480360381019061084c919061628d565b611e35565b005b61085b612159565b6040516108689190615c05565b60405180910390f35b61088b600480360381019061088691906163dc565b61215e565b005b6108a760048036038101906108a2919061643c565b6124f7565b6040516108b49190615c05565b60405180910390f35b6108c5612654565b6040516108d29190615c05565b60405180910390f35b6108e361265a565b6040516108f09190615c05565b60405180910390f35b610913600480360381019061090e9190615d51565b612660565b60405161092596959493929190615e9d565b60405180910390f35b61094860048036038101906109439190615d24565b6127e9565b005b610964600480360381019061095f9190615d24565b612842565b6040516109719190615c05565b60405180910390f35b610994600480360381019061098f9190615d51565b61288a565b005b61099e612aa4565b6040516109ab9190615e43565b60405180910390f35b6109ce60048036038101906109c99190616498565b612ac8565b005b6109d8612c6f565b6040516109e59190615c05565b60405180910390f35b6109f6612c75565b604051610a039190615c05565b60405180910390f35b610a266004803603810190610a219190615d51565b612c81565b604051610a34929190615e5e565b60405180910390f35b610a576004803603810190610a529190615f5f565b612d2d565b604051610a64919061596e565b60405180910390f35b610a75612d98565b604051610a829190615c6a565b60405180910390f35b610a93612e2a565b604051610aa09190615c05565b60405180910390f35b610ab1612e30565b604051610abe9190615e43565b60405180910390f35b610ae16004803603810190610adc9190616523565b612e37565b604051610aee919061596e565b60405180910390f35b610aff61320e565b604051610b0c91906167f5565b60405180910390f35b610b2f6004803603810190610b2a9190615d51565b613618565b604051610b3d929190615e5e565b60405180910390f35b610b606004803603810190610b5b9190615d51565b6136c4565b604051610b6d9190616a86565b60405180910390f35b610b906004803603810190610b8b9190615ce4565b6139ed565b604051610b9d919061596e565b60405180910390f35b610bc06004803603810190610bbb919061624d565b613a10565b604051610bcd9190615c6a565b60405180910390f35b610bf06004803603810190610beb9190615d51565b613ac9565b604051610bfd9190616ba7565b60405180910390f35b610c0e613c61565b604051610c1b9190615c05565b60405180910390f35b610c3e6004803603810190610c399190615d51565b613c66565b604051610c4e9493929190615f0c565b60405180910390f35b610c716004803603810190610c6c9190616bc9565b613da6565b604051610c889b9a99989796959493929190616c09565b60405180910390f35b610c99613e1a565b604051610ca69190615c05565b60405180910390f35b610cc96004803603810190610cc49190615d51565b613e24565b604051610cd7929190615e5e565b60405180910390f35b610cfa6004803603810190610cf59190616bc9565b613ee0565b604051610d07919061596e565b60405180910390f35b610d2a6004803603810190610d259190616ce0565b613f0f565b005b610d466004803603810190610d419190615f5f565b614320565b005b610d50614342565b604051610d5d9190615c05565b60405180910390f35b610d806004803603810190610d7b9190616d7f565b61434e565b604051610d8d9190615c05565b60405180910390f35b610db06004803603810190610dab9190615d51565b6143d5565b604051610dbf93929190616dbf565b60405180910390f35b610dd06145a7565b604051610ddd9190615c05565b60405180910390f35b610dee6145b4565b604051610dfb9190615c05565b60405180910390f35b610e0c6145ba565b604051610e199190615c05565b60405180910390f35b610e3c6004803603810190610e379190615d51565b6145c0565b604051610e49919061596e565b60405180910390f35b610e6c6004803603810190610e679190615ce4565b61479c565b604051610e79919061596e565b60405180910390f35b60007f7965db0b000000000000000000000000000000000000000000000000000000007bffffffffffffffffffffffffffffffffffffffffffffffffffffffff1916827bffffffffffffffffffffffffffffffffffffffffffffffffffffffff19161480610ef55750610ef4826147cb565b5b9050919050565b6060600060208054905067ffffffffffffffff811115610f1f57610f1e615fa4565b5b604051908082528060200260200182016040528015610f5857816020015b610f4561547c565b815260200190600190039081610f3d5790505b50905060005b6020805490508110156111f6576040518060c0016040528060208381548110610f8a57610f89616e0b565b5b906000526020600020906006020160000154815260200160208381548110610fb557610fb4616e0b565b5b90600052602060002090600602016001018054610fd190616e69565b80601f0160208091040260200160405190810160405280929190818152602001828054610ffd90616e69565b801561104a5780601f1061101f5761010080835404028352916020019161104a565b820191906000526020600020905b81548152906001019060200180831161102d57829003601f168201915b505050505081526020016020838154811061106857611067616e0b565b5b9060005260206000209060060201600201805461108490616e69565b80601f01602080910402602001604051908101604052809291908181526020018280546110b090616e69565b80156110fd5780601f106110d2576101008083540402835291602001916110fd565b820191906000526020600020905b8154815290600101906020018083116110e057829003601f168201915b505050505081526020016020838154811061111b5761111a616e0b565b5b906000526020600020906006020160030160009054906101000a900460ff16151581526020016020838154811061115557611154616e0b565b5b9060005260206000209060060201600401548152602001602083815481106111805761117f616e0b565b5b906000526020600020906006020160050160009054906101000a900473ffffffffffffffffffffffffffffffffffffffff1673ffffffffffffffffffffffffffffffffffffffff168152508282815181106111de576111dd616e0b565b5b60200260200101819052508080600101915050610f5e565b508091505090565b60105481565b60606003805461121390616e69565b80601f016020809104026020016040519081016040528092919081815260200182805461123f90616e69565b801561128c5780601f106112615761010080835404028352916020019161128c565b820191906000526020600020905b81548152906001019060200180831161126f57829003601f168201915b5050505050905090565b6000806112a1614835565b90506112ae81858561483d565b600191505092915050565b6000801b6112c68161484f565b6112f07fa49807205ce4d355092ef5a8a18f56e8913cf4a201fbe287825b095693c2177583614320565b5050565b6000600254905090565b6000611308614863565b601f600083815260200190815260200160002060003373ffffffffffffffffffffffffffffffffffffffff1673ffffffffffffffffffffffffffffffffffffffff16815260200190815260200160002060009054906101000a900460ff166113a5576040517f08c379a000000000000000000000000000000000000000000000000000000000815260040161139c90616f0c565b60405180910390fd5b6000601f600084815260200190815260200160002060003373ffffffffffffffffffffffffffffffffffffffff1673ffffffffffffffffffffffffffffffffffffffff16815260200190815260200160002060006101000a81548160ff02191690831515021790555061142033671bc16d674ec800006148a9565b3373ffffffffffffffffffffffffffffffffffffffff16827f9b244c565b926d7f4e915b69f3a5c6afc2231322d0d44e821076ad8879d0d68360405160405180910390a3600190506114706148d0565b919050565b600080611480614835565b905061148d8582856148da565b61149885858561496e565b60019150509392505050565b600060056000838152602001908152602001600020600101549050919050565b60006114f07fa49807205ce4d355092ef5a8a18f56e8913cf4a201fbe287825b095693c2177583612d2d565b9050919050565b6064600f6b204fce5e3e250261100000006115129190616f5b565b61151c9190616fcc565b81565b606481565b6024818154811061153457600080fd5b906000526020600020906003020160009150905080600001549080600101805461155d90616e69565b80601f016020809104026020016040519081016040528092919081815260200182805461158990616e69565b80156115d65780601f106115ab576101008083540402835291602001916115d6565b820191906000526020600020905b8154815290600101906020018083116115b957829003601f168201915b5050505050905082565b601560205280600052604060002060009150905080600001549080600101805461160990616e69565b80601f016020809104026020016040519081016040528092919081815260200182805461163590616e69565b80156116825780601f1061165757610100808354040283529160200191611682565b820191906000526020600020905b81548152906001019060200180831161166557829003601f168201915b50505050509080600201805461169790616e69565b80601f01602080910402602001604051908101604052809291908181526020018280546116c390616e69565b80156117105780601f106116e557610100808354040283529160200191611710565b820191906000526020600020905b8154815290600101906020018083116116f357829003601f168201915b5050505050908060030160009054906101000a900460ff16908060040154908060050160009054906101000a900473ffffffffffffffffffffffffffffffffffffffff16905086565b60115481565b6022818154811061176f57600080fd5b906000526020600020906022020160009150905080600001549080600101805461179890616e69565b80601f01602080910402602001604051908101604052809291908181526020018280546117c490616e69565b80156118115780601f106117e657610100808354040283529160200191611811565b820191906000526020600020905b8154815290600101906020018083116117f457829003601f168201915b50505050509080600201805461182690616e69565b80601f016020809104026020016040519081016040528092919081815260200182805461185290616e69565b801561189f5780601f106118745761010080835404028352916020019161189f565b820191906000526020600020905b81548152906001019060200180831161188257829003601f168201915b5050505050908060210154905084565b6118b8826114a4565b6118c18161484f565b6118cb8383614a62565b50505050565b60008073ffffffffffffffffffffffffffffffffffffffff166015600085815260200190815260200160002060050160009054906101000a900473ffffffffffffffffffffffffffffffffffffffff1673ffffffffffffffffffffffffffffffffffffffff1603611977576040517f08c379a000000000000000000000000000000000000000000000000000000000815260040161196e90617049565b60405180910390fd5b60005b8251811015611a6b576000604051806040016040528060105481526020018584815181106119ab576119aa616e0b565b5b602002602001015181525090506021819080600181540180825580915050600190039060005260206000209060020201600090919091909150600082015181600001556020820151816001019081611a039190617215565b505050600060105490508160196000838152602001908152602001600020600082015181600001556020820151816001019081611a409190617215565b5090505060106000815480929190611a57906172e7565b91905055505050808060010191505061197a565b50601a60008481526020019081526020016000206000611a8b91906154ca565b60005b8251811015611b0457601a6000858152602001908152602001600020838281518110611abd57611abc616e0b565b5b6020026020010151908060018154018082558091505060019003906000526020600020016000909190919091509081611af69190617215565b508080600101915050611a8e565b508151837f1eb97e969f52c132bb6c79817d1f9001078fff0cd328ce625628e1fb4cc0e7de60405160405180910390a36001905092915050565b60006012905090565b601e602052806000526040600020600091509050806000015490806001018054611b7090616e69565b80601f0160208091040260200160405190810160405280929190818152602001828054611b9c90616e69565b8015611be95780601f10611bbe57610100808354040283529160200191611be9565b820191906000526020600020905b815481529060010190602001808311611bcc57829003601f168201915b5050505050905082565b6b204fce5e3e2502611000000081565b60176020528060005260406000206000915090508060000154905081565b611c29614835565b73ffffffffffffffffffffffffffffffffffffffff168173ffffffffffffffffffffffffffffffffffffffff1614611c8d576040517f6697b23200000000000000000000000000000000000000000000000000000000815260040160405180910390fd5b611c978282614b54565b505050565b7fadb22091b155738d2e889eb96f509d2a7c93234236b30400927feb4a6a15ab0081565b601a6020528160005260406000208181548110611cdc57600080fd5b90600052602060002001600091509150508054611cf890616e69565b80601f0160208091040260200160405190810160405280929190818152602001828054611d2490616e69565b8015611d715780601f10611d4657610100808354040283529160200191611d71565b820191906000526020600020905b815481529060010190602001808311611d5457829003601f168201915b505050505081565b60258181548110611d8957600080fd5b9060005260206000209060030201600091509050806000015490806001018054611db290616e69565b80601f0160208091040260200160405190810160405280929190818152602001828054611dde90616e69565b8015611e2b5780601f10611e0057610100808354040283529160200191611e2b565b820191906000526020600020905b815481529060010190602001808311611e0e57829003601f168201915b5050505050905082565b7fa49807205ce4d355092ef5a8a18f56e8913cf4a201fbe287825b095693c21775611e5f8161484f565b601660008d815260200190815260200160002060003373ffffffffffffffffffffffffffffffffffffffff1673ffffffffffffffffffffffffffffffffffffffff168152602001908152602001600020600a0160009054906101000a900460ff1615611f00576040517f08c379a0000000000000000000000000000000000000000000000000000000008152600401611ef7906173a1565b60405180910390fd5b600a8b11158015611f125750600a8a11155b8015611f1f5750600a8911155b8015611f2c5750600a8811155b8015611f395750600a8711155b8015611f465750600a8611155b8015611f535750600a8511155b8015611f605750600a8411155b8015611f6d5750600a8311155b8015611f7a5750600a8211155b611fb9576040517f08c379a0000000000000000000000000000000000000000000000000000000008152600401611fb09061740d565b60405180910390fd5b6040518061016001604052808c81526020018b81526020018a815260200189815260200188815260200187815260200186815260200185815260200184815260200183815260200160011515815250601660008e815260200190815260200160002060003373ffffffffffffffffffffffffffffffffffffffff1673ffffffffffffffffffffffffffffffffffffffff168152602001908152602001600020600082015181600001556020820151816001015560408201518160020155606082015181600301556080820151816004015560a0820151816005015560c0820151816006015560e082015181600701556101008201518160080155610120820151816009015561014082015181600a0160006101000a81548160ff021916908315150217905550905050605061213c601660008f815260200190815260200160002060003373ffffffffffffffffffffffffffffffffffffffff1673ffffffffffffffffffffffffffffffffffffffff168152602001908152602001600020614c47565b1061214b5761214a8c61288a565b5b505050505050505050505050565b600281565b6000601b6000858152602001908152602001600020905060008160000154036121bc576040517f08c379a00000000000000000000000000000000000000000000000000000000081526004016121b390617479565b60405180910390fd5b600081602101549050600a84849050826121d69190617499565b1115612217576040517f08c379a000000000000000000000000000000000000000000000000000000000815260040161220e90617519565b60405180910390fd5b60005b8484905081101561241c57604051806060016040528086868481811061224357612242616e0b565b5b90506020028101906122559190617548565b80600001906122649190617570565b8080601f016020809104026020016040519081016040528093929190818152602001838380828437600081840152601f19601f8201169050808301925050505050505081526020018686848181106122bf576122be616e0b565b5b90506020028101906122d19190617548565b80602001906122e09190617570565b8080601f016020809104026020016040519081016040528093929190818152602001838380828437600081840152601f19601f82011690508083019250505050505050815260200186868481811061233b5761233a616e0b565b5b905060200281019061234d9190617548565b806040019061235c9190617570565b8080601f016020809104026020016040519081016040528093929190818152602001838380828437600081840152601f19601f820116905080830192505050505050508152508360030183600a81106123b8576123b7616e0b565b5b6003020160008201518160000190816123d19190617215565b5060208201518160010190816123e79190617215565b5060408201518160020190816123fd9190617215565b50905050818061240c906172e7565b925050808060010191505061221a565b5080826021018190555060005b6022805490508110156124ef57856022828154811061244b5761244a616e0b565b5b906000526020600020906022020160000154036124e257826022828154811061247757612476616e0b565b5b906000526020600020906022020160008201548160000155600182018160010190816124a391906175e9565b50600282018160020190816124b891906175e9565b50600382018160030190600a6124cf9291906154eb565b50602182015481602101559050506124ef565b8080600101915050612429565b505050505050565b60008060125490506000601b60008681526020019081526020016000206000015403612558576040517f08c379a000000000000000000000000000000000000000000000000000000000815260040161254f9061771d565b60405180910390fd5b6000601d60008381526020019081526020016000209050818160000181905550838160010190816125899190617215565b506012600081548092919061259d906172e7565b9190505550602481908060018154018082558091505060019003906000526020600020906003020160009091909190915060008201548160000155600182018160010190816125ec91906175e9565b50600282018160020190805461260392919061556d565b505050836040516126149190617779565b6040518091039020827fbf27702cefbc4aea50d7c73cfee96f84f5b908f62aeafcd8b0aeae202c15050960405160405180910390a3819250505092915050565b600e5481565b60145481565b6020818154811061267057600080fd5b906000526020600020906006020160009150905080600001549080600101805461269990616e69565b80601f01602080910402602001604051908101604052809291908181526020018280546126c590616e69565b80156127125780601f106126e757610100808354040283529160200191612712565b820191906000526020600020905b8154815290600101906020018083116126f557829003601f168201915b50505050509080600201805461272790616e69565b80601f016020809104026020016040519081016040528092919081815260200182805461275390616e69565b80156127a05780601f10612775576101008083540402835291602001916127a0565b820191906000526020600020905b81548152906001019060200180831161278357829003601f168201915b5050505050908060030160009054906101000a900460ff16908060040154908060050160009054906101000a900473ffffffffffffffffffffffffffffffffffffffff16905086565b7fa49807205ce4d355092ef5a8a18f56e8913cf4a201fbe287825b095693c217756128138161484f565b61283d7fa49807205ce4d355092ef5a8a18f56e8913cf4a201fbe287825b095693c2177583614a62565b505050565b60008060008373ffffffffffffffffffffffffffffffffffffffff1673ffffffffffffffffffffffffffffffffffffffff168152602001908152602001600020549050919050565b7fa49807205ce4d355092ef5a8a18f56e8913cf4a201fbe287825b095693c217756128b48161484f565b60006015600084815260200190815260200160002090508060030160009054906101000a900460ff161561291d576040517f08c379a0000000000000000000000000000000000000000000000000000000008152600401612914906177dc565b60405180910390fd5b601860003373ffffffffffffffffffffffffffffffffffffffff1673ffffffffffffffffffffffffffffffffffffffff168152602001908152602001600020600084815260200190815260200160002060009054906101000a900460ff16156129bb576040517f08c379a00000000000000000000000000000000000000000000000000000000081526004016129b29061786e565b60405180910390fd5b6001601860003373ffffffffffffffffffffffffffffffffffffffff1673ffffffffffffffffffffffffffffffffffffffff168152602001908152602001600020600085815260200190815260200160002060006101000a81548160ff021916908315150217905550806004016000815480929190612a39906172e7565b91905055506002816004015410612a9f5760018160030160006101000a81548160ff021916908315150217905550612a9d8160050160009054906101000a900473ffffffffffffffffffffffffffffffffffffffff16674563918244f40000614cdc565b505b505050565b7fa49807205ce4d355092ef5a8a18f56e8913cf4a201fbe287825b095693c2177581565b600060115490506000601960008681526020019081526020016000206000015403612b28576040517f08c379a0000000000000000000000000000000000000000000000000000000008152600401612b1f906178da565b60405180910390fd5b6000601b6000838152602001908152602001600020905081816000018190555083816001019081612b599190617215565b5082816002019081612b6b9190617215565b50600081602101819055506022601b600084815260200190815260200160002090806001815401808255809150506001900390600052602060002090602202016000909190919091506000820154816000015560018201816001019081612bd291906175e9565b5060028201816002019081612be791906175e9565b50600382018160030190600a612bfe9291906154eb565b5060218201548160210155505060116000815480929190612c1e906172e7565b9190505550600a84604051612c339190617779565b6040518091039020837f3387c3a40ec1df95e34d25a0e5564b40d01c331b71ccbafccccc66d36c84ad8360405160405180910390a45050505050565b600f5481565b671bc16d674ec8000081565b601d602052806000526040600020600091509050806000015490806001018054612caa90616e69565b80601f0160208091040260200160405190810160405280929190818152602001828054612cd690616e69565b8015612d235780601f10612cf857610100808354040283529160200191612d23565b820191906000526020600020905b815481529060010190602001808311612d0657829003601f168201915b5050505050905082565b60006005600084815260200190815260200160002060000160008373ffffffffffffffffffffffffffffffffffffffff1673ffffffffffffffffffffffffffffffffffffffff16815260200190815260200160002060009054906101000a900460ff16905092915050565b606060048054612da790616e69565b80601f0160208091040260200160405190810160405280929190818152602001828054612dd390616e69565b8015612e205780601f10612df557610100808354040283529160200191612e20565b820191906000526020600020905b815481529060010190602001808311612e0357829003601f168201915b5050505050905090565b600d5481565b6000801b81565b60008073ffffffffffffffffffffffffffffffffffffffff1660156000600f54815260200190815260200160002060050160009054906101000a900473ffffffffffffffffffffffffffffffffffffffff1673ffffffffffffffffffffffffffffffffffffffff1614612edf576040517f08c379a0000000000000000000000000000000000000000000000000000000008152600401612ed690617946565b60405180910390fd5b60006040518060c00160405280600f548152602001858152602001848152602001600015158152602001600081526020013373ffffffffffffffffffffffffffffffffffffffff1681525090508060156000600f548152602001908152602001600020600082015181600001556020820151816001019081612f619190617215565b506040820151816002019081612f779190617215565b5060608201518160030160006101000a81548160ff0219169083151502179055506080820151816004015560a08201518160050160006101000a81548173ffffffffffffffffffffffffffffffffffffffff021916908373ffffffffffffffffffffffffffffffffffffffff16021790555090505060208190806001815401808255809150506001900390600052602060002090600602016000909190919091506000820151816000015560208201518160010190816130379190617215565b50604082015181600201908161304d9190617215565b5060608201518160030160006101000a81548160ff0219169083151502179055506080820151816004015560a08201518160050160006101000a81548173ffffffffffffffffffffffffffffffffffffffff021916908373ffffffffffffffffffffffffffffffffffffffff1602179055505050600e60008154809291906130d4906172e7565b91905055506001601760003373ffffffffffffffffffffffffffffffffffffffff1673ffffffffffffffffffffffffffffffffffffffff168152602001908152602001600020600001600082825461312c9190617499565b92505081905550600f6000815480929190613146906172e7565b91905055506131757fadb22091b155738d2e889eb96f509d2a7c93234236b30400927feb4a6a15ab0033614a62565b50836040516131849190617779565b60405180910390206001600f5461319b9190617966565b7f9c93a42b217373d37e6c66ace0a67fe1fa1f78c93164b62417de69c48c0f67e2601560006001600f546131cf9190617966565b815260200190815260200160002060030160009054906101000a900460ff166040516131fb919061596e565b60405180910390a3600191505092915050565b60606000602280549050905060008167ffffffffffffffff81111561323657613235615fa4565b5b60405190808252806020026020018201604052801561326f57816020015b61325c6155fb565b8152602001906001900390816132545790505b50905060005b8281101561360f576022818154811061329157613290616e0b565b5b90600052602060002090602202016040518060a0016040529081600082015481526020016001820180546132c490616e69565b80601f01602080910402602001604051908101604052809291908181526020018280546132f090616e69565b801561333d5780601f106133125761010080835404028352916020019161333d565b820191906000526020600020905b81548152906001019060200180831161332057829003601f168201915b5050505050815260200160028201805461335690616e69565b80601f016020809104026020016040519081016040528092919081815260200182805461338290616e69565b80156133cf5780601f106133a4576101008083540402835291602001916133cf565b820191906000526020600020905b8154815290600101906020018083116133b257829003601f168201915b5050505050815260200160038201600a80602002604051908101604052809291906000905b828210156135d25783826003020160405180606001604052908160008201805461341d90616e69565b80601f016020809104026020016040519081016040528092919081815260200182805461344990616e69565b80156134965780601f1061346b57610100808354040283529160200191613496565b820191906000526020600020905b81548152906001019060200180831161347957829003601f168201915b505050505081526020016001820180546134af90616e69565b80601f01602080910402602001604051908101604052809291908181526020018280546134db90616e69565b80156135285780601f106134fd57610100808354040283529160200191613528565b820191906000526020600020905b81548152906001019060200180831161350b57829003601f168201915b5050505050815260200160028201805461354190616e69565b80601f016020809104026020016040519081016040528092919081815260200182805461356d90616e69565b80156135ba5780601f1061358f576101008083540402835291602001916135ba565b820191906000526020600020905b81548152906001019060200180831161359d57829003601f168201915b505050505081525050815260200190600101906133f4565b5050505081526020016021820154815250508282815181106135f7576135f6616e0b565b5b60200260200101819052508080600101915050613275565b50809250505090565b601960205280600052604060002060009150905080600001549080600101805461364190616e69565b80601f016020809104026020016040519081016040528092919081815260200182805461366d90616e69565b80156136ba5780601f1061368f576101008083540402835291602001916136ba565b820191906000526020600020905b81548152906001019060200180831161369d57829003601f168201915b5050505050905082565b6136cc615630565b6000601d60008481526020019081526020016000206000015403613725576040517f08c379a000000000000000000000000000000000000000000000000000000000815260040161371c906179e6565b60405180910390fd5b601d60008381526020019081526020016000206040518060600160405290816000820154815260200160018201805461375d90616e69565b80601f016020809104026020016040519081016040528092919081815260200182805461378990616e69565b80156137d65780601f106137ab576101008083540402835291602001916137d6565b820191906000526020600020905b8154815290600101906020018083116137b957829003601f168201915b5050505050815260200160028201805480602002602001604051908101604052809291908181526020016000905b828210156139de57838290600052602060002090600302016040518060600160405290816000820154815260200160018201805461384190616e69565b80601f016020809104026020016040519081016040528092919081815260200182805461386d90616e69565b80156138ba5780601f1061388f576101008083540402835291602001916138ba565b820191906000526020600020905b81548152906001019060200180831161389d57829003601f168201915b5050505050815260200160028201805480602002602001604051908101604052809291908181526020016000905b828210156139c7578382906000526020600020906002020160405180604001604052908160008201805461391b90616e69565b80601f016020809104026020016040519081016040528092919081815260200182805461394790616e69565b80156139945780601f1061396957610100808354040283529160200191613994565b820191906000526020600020905b81548152906001019060200180831161397757829003601f168201915b505050505081526020016001820160009054906101000a900460ff161515151581525050815260200190600101906138e8565b505050508152505081526020019060010190613804565b50505050815250509050919050565b6000806139f8614835565b9050613a0581858561496e565b600191505092915050565b601c6020528160005260406000208181548110613a2c57600080fd5b90600052602060002001600091509150508054613a4890616e69565b80601f0160208091040260200160405190810160405280929190818152602001828054613a7490616e69565b8015613ac15780601f10613a9657610100808354040283529160200191613ac1565b820191906000526020600020905b815481529060010190602001808311613aa457829003601f168201915b505050505081565b60606000601a600084815260200190815260200160002080549050905060008167ffffffffffffffff811115613b0257613b01615fa4565b5b604051908082528060200260200182016040528015613b3b57816020015b613b28615651565b815260200190600190039081613b205790505b50905060005b82811015613c5657604051806040016040528060196000888152602001908152602001600020600001548152602001601a60008881526020019081526020016000208381548110613b9557613b94616e0b565b5b906000526020600020018054613baa90616e69565b80601f0160208091040260200160405190810160405280929190818152602001828054613bd690616e69565b8015613c235780601f10613bf857610100808354040283529160200191613c23565b820191906000526020600020905b815481529060010190602001808311613c0657829003601f168201915b5050505050815250828281518110613c3e57613c3d616e0b565b5b60200260200101819052508080600101915050613b41565b508092505050919050565b605081565b601b602052806000526040600020600091509050806000015490806001018054613c8f90616e69565b80601f0160208091040260200160405190810160405280929190818152602001828054613cbb90616e69565b8015613d085780601f10613cdd57610100808354040283529160200191613d08565b820191906000526020600020905b815481529060010190602001808311613ceb57829003601f168201915b505050505090806002018054613d1d90616e69565b80601f0160208091040260200160405190810160405280929190818152602001828054613d4990616e69565b8015613d965780601f10613d6b57610100808354040283529160200191613d96565b820191906000526020600020905b815481529060010190602001808311613d7957829003601f168201915b5050505050908060210154905084565b60166020528160005260406000206020528060005260406000206000915091505080600001549080600101549080600201549080600301549080600401549080600501549080600601549080600701549080600801549080600901549080600a0160009054906101000a900460ff1690508b565b6000600d54905090565b60218181548110613e3457600080fd5b9060005260206000209060020201600091509050806000015490806001018054613e5d90616e69565b80601f0160208091040260200160405190810160405280929190818152602001828054613e8990616e69565b8015613ed65780601f10613eab57610100808354040283529160200191613ed6565b820191906000526020600020905b815481529060010190602001808311613eb957829003601f168201915b5050505050905082565b601f6020528160005260406000206020528060005260406000206000915091509054906101000a900460ff1681565b6000601d60008681526020019081526020016000206000015403613f68576040517f08c379a0000000000000000000000000000000000000000000000000000000008152600401613f5f906179e6565b60405180910390fd5b60008251118015613f7b57506004825111155b613fba576040517f08c379a0000000000000000000000000000000000000000000000000000000008152600401613fb190617a52565b60405180910390fd5b81518160ff1610614000576040517f08c379a0000000000000000000000000000000000000000000000000000000008152600401613ff790617abe565b60405180910390fd5b600060135490506000601d60008781526020019081526020016000206002016001816001815401808255809150500390600052602060002090600302019050818160000181905550848160010190816140599190617215565b5080601e6000848152602001908152602001600020600082015481600001556001820181600101908161408c91906175e9565b5060028201816002019080546140a392919061566b565b50905050601360008154809291906140ba906172e7565b91905055506025819080600181540180825580915050600190039060005260206000209060030201600090919091909150600082015481600001556001820181600101908161410991906175e9565b50600282018160020190805461412092919061566b565b5050507fa5bdacf4d1324fdd584bc65cf0315e4975d00b33a7ca0e6d0a73c88df8430b9586838760405161415693929190617ade565b60405180910390a160005b84518160ff161015614317576000601454905060006040518060400160405280888560ff168151811061419757614196616e0b565b5b602002602001015181526020018760ff168560ff1614151581525090508360020181908060018154018082558091505060019003906000526020600020906002020160009091909190915060008201518160000190816141f79190617215565b5060208201518160010160006101000a81548160ff0219169083151502179055505050601e6000868152602001908152602001600020600201819080600181540180825580915050600190039060005260206000209060020201600090919091909150600082015181600001908161426f9190617215565b5060208201518160010160006101000a81548160ff0219169083151502179055505050601460008154809291906142a5906172e7565b91905055507f06ef0ba2ad58c9f8eef2fc98c08fd18d801c4a971eeb45afd07f0fee3f9d60c48583898660ff16815181106142e3576142e2616e0b565b5b60200260200101516040516142fa93929190617ade565b60405180910390a15050808061430f90617b1c565b915050614161565b50505050505050565b614329826114a4565b6143328161484f565b61433c8383614b54565b50505050565b674563918244f4000081565b6000600160008473ffffffffffffffffffffffffffffffffffffffff1673ffffffffffffffffffffffffffffffffffffffff16815260200190815260200160002060008373ffffffffffffffffffffffffffffffffffffffff1673ffffffffffffffffffffffffffffffffffffffff16815260200190815260200160002054905092915050565b602381815481106143e557600080fd5b906000526020600020906003020160009150905080600001805461440890616e69565b80601f016020809104026020016040519081016040528092919081815260200182805461443490616e69565b80156144815780601f1061445657610100808354040283529160200191614481565b820191906000526020600020905b81548152906001019060200180831161446457829003601f168201915b50505050509080600101805461449690616e69565b80601f01602080910402602001604051908101604052809291908181526020018280546144c290616e69565b801561450f5780601f106144e45761010080835404028352916020019161450f565b820191906000526020600020905b8154815290600101906020018083116144f257829003601f168201915b50505050509080600201805461452490616e69565b80601f016020809104026020016040519081016040528092919081815260200182805461455090616e69565b801561459d5780601f106145725761010080835404028352916020019161459d565b820191906000526020600020905b81548152906001019060200180831161458057829003601f168201915b5050505050905083565b6000600760000154905090565b60125481565b60135481565b60006145ca614863565b6015600083815260200190815260200160002060030160009054906101000a900460ff1661462d576040517f08c379a000000000000000000000000000000000000000000000000000000000815260040161462490617b91565b60405180910390fd5b601f600083815260200190815260200160002060003373ffffffffffffffffffffffffffffffffffffffff1673ffffffffffffffffffffffffffffffffffffffff16815260200190815260200160002060009054906101000a900460ff16156146cb576040517f08c379a00000000000000000000000000000000000000000000000000000000081526004016146c290617c23565b60405180910390fd5b6001601f600084815260200190815260200160002060003373ffffffffffffffffffffffffffffffffffffffff1673ffffffffffffffffffffffffffffffffffffffff16815260200190815260200160002060006101000a81548160ff02191690831515021790555061474633671bc16d674ec80000614cdc565b503373ffffffffffffffffffffffffffffffffffffffff16827f4bf249f6b0ca5630ea4816c04b928b864a2065cb51658fd6223d83b727fd326b60405160405180910390a3600190506147976148d0565b919050565b60186020528160005260406000206020528060005260406000206000915091509054906101000a900460ff1681565b60007f01ffc9a7000000000000000000000000000000000000000000000000000000007bffffffffffffffffffffffffffffffffffffffffffffffffffffffff1916827bffffffffffffffffffffffffffffffffffffffffffffffffffffffff1916149050919050565b600033905090565b61484a8383836001614dc9565b505050565b6148608161485b614835565b614fa0565b50565b60026006540361489f576040517f3ee5aeb500000000000000000000000000000000000000000000000000000000815260040160405180910390fd5b6002600681905550565b6148b38282614ff1565b80600d60008282546148c59190617966565b925050819055505050565b6001600681905550565b60006148e6848461434e565b90507fffffffffffffffffffffffffffffffffffffffffffffffffffffffffffffffff81146149685781811015614958578281836040517ffb8f41b200000000000000000000000000000000000000000000000000000000815260040161494f93929190617c43565b60405180910390fd5b61496784848484036000614dc9565b5b50505050565b600073ffffffffffffffffffffffffffffffffffffffff168373ffffffffffffffffffffffffffffffffffffffff16036149e05760006040517f96c6fd1e0000000000000000000000000000000000000000000000000000000081526004016149d79190617c7a565b60405180910390fd5b600073ffffffffffffffffffffffffffffffffffffffff168273ffffffffffffffffffffffffffffffffffffffff1603614a525760006040517fec442f05000000000000000000000000000000000000000000000000000000008152600401614a499190617c7a565b60405180910390fd5b614a5d838383615098565b505050565b6000614a6e8383612d2d565b614b495760016005600085815260200190815260200160002060000160008473ffffffffffffffffffffffffffffffffffffffff1673ffffffffffffffffffffffffffffffffffffffff16815260200190815260200160002060006101000a81548160ff021916908315150217905550614ae6614835565b73ffffffffffffffffffffffffffffffffffffffff168273ffffffffffffffffffffffffffffffffffffffff16847f2f8788117e7eff1d82e926ec794901d17c78024a50270940304540a733656f0d60405160405180910390a460019050614b4e565b600090505b92915050565b6000614b608383612d2d565b15614c3c5760006005600085815260200190815260200160002060000160008473ffffffffffffffffffffffffffffffffffffffff1673ffffffffffffffffffffffffffffffffffffffff16815260200190815260200160002060006101000a81548160ff021916908315150217905550614bd9614835565b73ffffffffffffffffffffffffffffffffffffffff168273ffffffffffffffffffffffffffffffffffffffff16847ff6391f5c32d9c69d2a47ea670b442974b53935d1edc7fd64eb21e047a839171b60405160405180910390a460019050614c41565b600090505b92915050565b60008160090154826008015483600701548460060154856005015486600401548760030154886002015489600101548a60000154614c859190617499565b614c8f9190617499565b614c999190617499565b614ca39190617499565b614cad9190617499565b614cb79190617499565b614cc19190617499565b614ccb9190617499565b614cd59190617499565b9050919050565b60006064600f6b204fce5e3e25026110000000614cf99190616f5b565b614d039190616fcc565b614d0b613e1a565b83614d169190617499565b1115614d57576040517f08c379a0000000000000000000000000000000000000000000000000000000008152600401614d4e90617ce1565b60405180910390fd5b614d6183836152bd565b5081600d6000828254614d749190617499565b92505081905550818373ffffffffffffffffffffffffffffffffffffffff167fad6ef58d5c294f81258965738e7ae511124139834a8d0b8f8f7327086c82052a60405160405180910390a36001905092915050565b600073ffffffffffffffffffffffffffffffffffffffff168473ffffffffffffffffffffffffffffffffffffffff1603614e3b5760006040517fe602df05000000000000000000000000000000000000000000000000000000008152600401614e329190617c7a565b60405180910390fd5b600073ffffffffffffffffffffffffffffffffffffffff168373ffffffffffffffffffffffffffffffffffffffff1603614ead5760006040517f94280d62000000000000000000000000000000000000000000000000000000008152600401614ea49190617c7a565b60405180910390fd5b81600160008673ffffffffffffffffffffffffffffffffffffffff1673ffffffffffffffffffffffffffffffffffffffff16815260200190815260200160002060008573ffffffffffffffffffffffffffffffffffffffff1673ffffffffffffffffffffffffffffffffffffffff168152602001908152602001600020819055508015614f9a578273ffffffffffffffffffffffffffffffffffffffff168473ffffffffffffffffffffffffffffffffffffffff167f8c5be1e5ebec7d5bd14f71427d1e84f3dd0314c0f7b2291e5b200ac8c7c3b92584604051614f919190615c05565b60405180910390a35b50505050565b614faa8282612d2d565b614fed5780826040517fe2517d3f000000000000000000000000000000000000000000000000000000008152600401614fe4929190617d01565b60405180910390fd5b5050565b80614ffb83612842565b101561503c576040517f08c379a000000000000000000000000000000000000000000000000000000000815260040161503390617d76565b60405180910390fd5b6150468282615378565b8173ffffffffffffffffffffffffffffffffffffffff167f5b5d8478b570a79ab6b3bf13ff029fba19c02ab0d54d692d4ef0d9052d5cc8508260405161508c9190615c05565b60405180910390a25050565b600073ffffffffffffffffffffffffffffffffffffffff168373ffffffffffffffffffffffffffffffffffffffff16036150ea5780600260008282546150de9190617499565b925050819055506151bd565b60008060008573ffffffffffffffffffffffffffffffffffffffff1673ffffffffffffffffffffffffffffffffffffffff16815260200190815260200160002054905081811015615176578381836040517fe450d38c00000000000000000000000000000000000000000000000000000000815260040161516d93929190617c43565b60405180910390fd5b8181036000808673ffffffffffffffffffffffffffffffffffffffff1673ffffffffffffffffffffffffffffffffffffffff16815260200190815260200160002081905550505b600073ffffffffffffffffffffffffffffffffffffffff168273ffffffffffffffffffffffffffffffffffffffff16036152065780600260008282540392505081905550615253565b806000808473ffffffffffffffffffffffffffffffffffffffff1673ffffffffffffffffffffffffffffffffffffffff168152602001908152602001600020600082825401925050819055505b8173ffffffffffffffffffffffffffffffffffffffff168373ffffffffffffffffffffffffffffffffffffffff167fddf252ad1be2c89b69c2b068fc378daa952ba7f163c4a11628f55a4df523b3ef836040516152b09190615c05565b60405180910390a3505050565b60006b204fce5e3e250261100000006152d46112f4565b836152df9190617499565b1115615320576040517f08c379a000000000000000000000000000000000000000000000000000000000815260040161531790617ce1565b60405180910390fd5b61532a83836153fa565b818373ffffffffffffffffffffffffffffffffffffffff167fcda531bfd68624f13205c0a23cd4d5a7f09792cbb399603114f2b04aaa1bf5cf60405160405180910390a36001905092915050565b600073ffffffffffffffffffffffffffffffffffffffff168273ffffffffffffffffffffffffffffffffffffffff16036153ea5760006040517f96c6fd1e0000000000000000000000000000000000000000000000000000000081526004016153e19190617c7a565b60405180910390fd5b6153f682600083615098565b5050565b600073ffffffffffffffffffffffffffffffffffffffff168273ffffffffffffffffffffffffffffffffffffffff160361546c5760006040517fec442f050000000000000000000000000000000000000000000000000000000081526004016154639190617c7a565b60405180910390fd5b61547860008383615098565b5050565b6040518060c0016040528060008152602001606081526020016060815260200160001515815260200160008152602001600073ffffffffffffffffffffffffffffffffffffffff1681525090565b50805460008255906000526020600020908101906154e89190615705565b50565b82600a600302810192821561555c579160030282015b8281111561555b5782826000820181600001908161551f91906175e9565b506001820181600101908161553491906175e9565b506002820181600201908161554991906175e9565b50505091600301919060030190615501565b5b5090506155699190615729565b5090565b8280548282559060005260206000209060030281019282156155ea5760005260206000209160030282015b828111156155e957828260008201548160000155600182018160010190816155c091906175e9565b5060028201816002019080546155d792919061566b565b50505091600301919060030190615598565b5b5090506155f79190615770565b5090565b6040518060a001604052806000815260200160608152602001606081526020016156236157af565b8152602001600081525090565b60405180606001604052806000815260200160608152602001606081525090565b604051806040016040528060008152602001606081525090565b8280548282559060005260206000209060020281019282156156f45760005260206000209160020282015b828111156156f3578282600082018160000190816156b491906175e9565b506001820160009054906101000a900460ff168160010160006101000a81548160ff021916908315150217905550505091600201919060020190615696565b5b50905061570191906157dd565b5090565b5b80821115615725576000818161571c9190615818565b50600101615706565b5090565b5b8082111561576c57600080820160006157439190615818565b6001820160006157539190615818565b6002820160006157639190615818565b5060030161572a565b5090565b5b808211156157ab576000808201600090556001820160006157929190615818565b6002820160006157a29190615858565b50600301615771565b5090565b604051806101400160405280600a905b6157c761587c565b8152602001906001900390816157bf5790505090565b5b8082111561581457600080820160006157f79190615818565b6001820160006101000a81549060ff0219169055506002016157de565b5090565b50805461582490616e69565b6000825580601f106158365750615855565b601f016020900490600052602060002090810190615854919061589d565b5b50565b508054600082556002029060005260206000209081019061587991906157dd565b50565b60405180606001604052806060815260200160608152602001606081525090565b5b808211156158b657600081600090555060010161589e565b5090565b6000604051905090565b600080fd5b600080fd5b60007fffffffff0000000000000000000000000000000000000000000000000000000082169050919050565b615903816158ce565b811461590e57600080fd5b50565b600081359050615920816158fa565b92915050565b60006020828403121561593c5761593b6158c4565b5b600061594a84828501615911565b91505092915050565b60008115159050919050565b61596881615953565b82525050565b6000602082019050615983600083018461595f565b92915050565b600081519050919050565b600082825260208201905092915050565b6000819050602082019050919050565b6000819050919050565b6159c8816159b5565b82525050565b600081519050919050565b600082825260208201905092915050565b60005b83811015615a085780820151818401526020810190506159ed565b60008484015250505050565b6000601f19601f8301169050919050565b6000615a30826159ce565b615a3a81856159d9565b9350615a4a8185602086016159ea565b615a5381615a14565b840191505092915050565b615a6781615953565b82525050565b600073ffffffffffffffffffffffffffffffffffffffff82169050919050565b6000615a9882615a6d565b9050919050565b615aa881615a8d565b82525050565b600060c083016000830151615ac660008601826159bf565b5060208301518482036020860152615ade8282615a25565b91505060408301518482036040860152615af88282615a25565b9150506060830151615b0d6060860182615a5e565b506080830151615b2060808601826159bf565b5060a0830151615b3360a0860182615a9f565b508091505092915050565b6000615b4a8383615aae565b905092915050565b6000602082019050919050565b6000615b6a82615989565b615b748185615994565b935083602082028501615b86856159a5565b8060005b85811015615bc25784840389528151615ba38582615b3e565b9450615bae83615b52565b925060208a01995050600181019050615b8a565b50829750879550505050505092915050565b60006020820190508181036000830152615bee8184615b5f565b905092915050565b615bff816159b5565b82525050565b6000602082019050615c1a6000830184615bf6565b92915050565b600082825260208201905092915050565b6000615c3c826159ce565b615c468185615c20565b9350615c568185602086016159ea565b615c5f81615a14565b840191505092915050565b60006020820190508181036000830152615c848184615c31565b905092915050565b615c9581615a8d565b8114615ca057600080fd5b50565b600081359050615cb281615c8c565b92915050565b615cc1816159b5565b8114615ccc57600080fd5b50565b600081359050615cde81615cb8565b92915050565b60008060408385031215615cfb57615cfa6158c4565b5b6000615d0985828601615ca3565b9250506020615d1a85828601615ccf565b9150509250929050565b600060208284031215615d3a57615d396158c4565b5b6000615d4884828501615ca3565b91505092915050565b600060208284031215615d6757615d666158c4565b5b6000615d7584828501615ccf565b91505092915050565b600080600060608486031215615d9757615d966158c4565b5b6000615da586828701615ca3565b9350506020615db686828701615ca3565b9250506040615dc786828701615ccf565b9150509250925092565b6000819050919050565b615de481615dd1565b8114615def57600080fd5b50565b600081359050615e0181615ddb565b92915050565b600060208284031215615e1d57615e1c6158c4565b5b6000615e2b84828501615df2565b91505092915050565b615e3d81615dd1565b82525050565b6000602082019050615e586000830184615e34565b92915050565b6000604082019050615e736000830185615bf6565b8181036020830152615e858184615c31565b90509392505050565b615e9781615a8d565b82525050565b600060c082019050615eb26000830189615bf6565b8181036020830152615ec48188615c31565b90508181036040830152615ed88187615c31565b9050615ee7606083018661595f565b615ef46080830185615bf6565b615f0160a0830184615e8e565b979650505050505050565b6000608082019050615f216000830187615bf6565b8181036020830152615f338186615c31565b90508181036040830152615f478185615c31565b9050615f566060830184615bf6565b95945050505050565b60008060408385031215615f7657615f756158c4565b5b6000615f8485828601615df2565b9250506020615f9585828601615ca3565b9150509250929050565b600080fd5b7f4e487b7100000000000000000000000000000000000000000000000000000000600052604160045260246000fd5b615fdc82615a14565b810181811067ffffffffffffffff82111715615ffb57615ffa615fa4565b5b80604052505050565b600061600e6158ba565b905061601a8282615fd3565b919050565b600067ffffffffffffffff82111561603a57616039615fa4565b5b602082029050602081019050919050565b600080fd5b600080fd5b600067ffffffffffffffff8211156160705761606f615fa4565b5b61607982615a14565b9050602081019050919050565b82818337600083830152505050565b60006160a86160a384616055565b616004565b9050828152602081018484840111156160c4576160c3616050565b5b6160cf848285616086565b509392505050565b600082601f8301126160ec576160eb615f9f565b5b81356160fc848260208601616095565b91505092915050565b60006161186161138461601f565b616004565b9050808382526020820190506020840283018581111561613b5761613a61604b565b5b835b8181101561618257803567ffffffffffffffff8111156161605761615f615f9f565b5b80860161616d89826160d7565b8552602085019450505060208101905061613d565b5050509392505050565b600082601f8301126161a1576161a0615f9f565b5b81356161b1848260208601616105565b91505092915050565b600080604083850312156161d1576161d06158c4565b5b60006161df85828601615ccf565b925050602083013567ffffffffffffffff811115616200576161ff6158c9565b5b61620c8582860161618c565b9150509250929050565b600060ff82169050919050565b61622c81616216565b82525050565b60006020820190506162476000830184616223565b92915050565b60008060408385031215616264576162636158c4565b5b600061627285828601615ccf565b925050602061628385828601615ccf565b9150509250929050565b60008060008060008060008060008060006101608c8e0312156162b3576162b26158c4565b5b60006162c18e828f01615ccf565b9b505060206162d28e828f01615ccf565b9a505060406162e38e828f01615ccf565b99505060606162f48e828f01615ccf565b98505060806163058e828f01615ccf565b97505060a06163168e828f01615ccf565b96505060c06163278e828f01615ccf565b95505060e06163388e828f01615ccf565b94505061010061634a8e828f01615ccf565b93505061012061635c8e828f01615ccf565b92505061014061636e8e828f01615ccf565b9150509295989b509295989b9093969950565b600080fd5b60008083601f84011261639c5761639b615f9f565b5b8235905067ffffffffffffffff8111156163b9576163b8616381565b5b6020830191508360208202830111156163d5576163d461604b565b5b9250929050565b6000806000604084860312156163f5576163f46158c4565b5b600061640386828701615ccf565b935050602084013567ffffffffffffffff811115616424576164236158c9565b5b61643086828701616386565b92509250509250925092565b60008060408385031215616453576164526158c4565b5b600061646185828601615ccf565b925050602083013567ffffffffffffffff811115616482576164816158c9565b5b61648e858286016160d7565b9150509250929050565b6000806000606084860312156164b1576164b06158c4565b5b60006164bf86828701615ccf565b935050602084013567ffffffffffffffff8111156164e0576164df6158c9565b5b6164ec868287016160d7565b925050604084013567ffffffffffffffff81111561650d5761650c6158c9565b5b616519868287016160d7565b9150509250925092565b6000806040838503121561653a576165396158c4565b5b600083013567ffffffffffffffff811115616558576165576158c9565b5b616564858286016160d7565b925050602083013567ffffffffffffffff811115616585576165846158c9565b5b616591858286016160d7565b9150509250929050565b600081519050919050565b600082825260208201905092915050565b6000819050602082019050919050565b6000600a9050919050565b600081905092915050565b6000819050919050565b600060608301600083015184820360008601526166048282615a25565b9150506020830151848203602086015261661e8282615a25565b915050604083015184820360408601526166388282615a25565b9150508091505092915050565b600061665183836165e7565b905092915050565b6000602082019050919050565b6000616671826165c7565b61667b81856165d2565b93508360208202850161668d856165dd565b8060005b858110156166c957848403895281516166aa8582616645565b94506166b583616659565b925060208a01995050600181019050616691565b50829750879550505050505092915050565b600060a0830160008301516166f360008601826159bf565b506020830151848203602086015261670b8282615a25565b915050604083015184820360408601526167258282615a25565b9150506060830151848203606086015261673f8282616666565b915050608083015161675460808601826159bf565b508091505092915050565b600061676b83836166db565b905092915050565b6000602082019050919050565b600061678b8261659b565b61679581856165a6565b9350836020820285016167a7856165b7565b8060005b858110156167e357848403895281516167c4858261675f565b94506167cf83616773565b925060208a019950506001810190506167ab565b50829750879550505050505092915050565b6000602082019050818103600083015261680f8184616780565b905092915050565b600081519050919050565b600082825260208201905092915050565b6000819050602082019050919050565b600081519050919050565b600082825260208201905092915050565b6000819050602082019050919050565b6000604083016000830151848203600086015261688c8282615a25565b91505060208301516168a16020860182615a5e565b508091505092915050565b60006168b8838361686f565b905092915050565b6000602082019050919050565b60006168d882616843565b6168e2818561684e565b9350836020820285016168f48561685f565b8060005b85811015616930578484038952815161691185826168ac565b945061691c836168c0565b925060208a019950506001810190506168f8565b50829750879550505050505092915050565b600060608301600083015161695a60008601826159bf565b50602083015184820360208601526169728282615a25565b9150506040830151848203604086015261698c82826168cd565b9150508091505092915050565b60006169a58383616942565b905092915050565b6000602082019050919050565b60006169c582616817565b6169cf8185616822565b9350836020820285016169e185616833565b8060005b85811015616a1d57848403895281516169fe8582616999565b9450616a09836169ad565b925060208a019950506001810190506169e5565b50829750879550505050505092915050565b6000606083016000830151616a4760008601826159bf565b5060208301518482036020860152616a5f8282615a25565b91505060408301518482036040860152616a7982826169ba565b9150508091505092915050565b60006020820190508181036000830152616aa08184616a2f565b905092915050565b600081519050919050565b600082825260208201905092915050565b6000819050602082019050919050565b6000604083016000830151616aec60008601826159bf565b5060208301518482036020860152616b048282615a25565b9150508091505092915050565b6000616b1d8383616ad4565b905092915050565b6000602082019050919050565b6000616b3d82616aa8565b616b478185616ab3565b935083602082028501616b5985616ac4565b8060005b85811015616b955784840389528151616b768582616b11565b9450616b8183616b25565b925060208a01995050600181019050616b5d565b50829750879550505050505092915050565b60006020820190508181036000830152616bc18184616b32565b905092915050565b60008060408385031215616be057616bdf6158c4565b5b6000616bee85828601615ccf565b9250506020616bff85828601615ca3565b9150509250929050565b600061016082019050616c1f600083018e615bf6565b616c2c602083018d615bf6565b616c39604083018c615bf6565b616c46606083018b615bf6565b616c53608083018a615bf6565b616c6060a0830189615bf6565b616c6d60c0830188615bf6565b616c7a60e0830187615bf6565b616c88610100830186615bf6565b616c96610120830185615bf6565b616ca461014083018461595f565b9c9b505050505050505050505050565b616cbd81616216565b8114616cc857600080fd5b50565b600081359050616cda81616cb4565b92915050565b60008060008060808587031215616cfa57616cf96158c4565b5b6000616d0887828801615ccf565b945050602085013567ffffffffffffffff811115616d2957616d286158c9565b5b616d35878288016160d7565b935050604085013567ffffffffffffffff811115616d5657616d556158c9565b5b616d628782880161618c565b9250506060616d7387828801616ccb565b91505092959194509250565b60008060408385031215616d9657616d956158c4565b5b6000616da485828601615ca3565b9250506020616db585828601615ca3565b9150509250929050565b60006060820190508181036000830152616dd98186615c31565b90508181036020830152616ded8185615c31565b90508181036040830152616e018184615c31565b9050949350505050565b7f4e487b7100000000000000000000000000000000000000000000000000000000600052603260045260246000fd5b7f4e487b7100000000000000000000000000000000000000000000000000000000600052602260045260246000fd5b60006002820490506001821680616e8157607f821691505b602082108103616e9457616e93616e3a565b5b50919050565b7f596f7520617265206e6f7420656e726f6c6c656420696e207468697320636f7560008201527f7273652100000000000000000000000000000000000000000000000000000000602082015250565b6000616ef6602483615c20565b9150616f0182616e9a565b604082019050919050565b60006020820190508181036000830152616f2581616ee9565b9050919050565b7f4e487b7100000000000000000000000000000000000000000000000000000000600052601160045260246000fd5b6000616f66826159b5565b9150616f71836159b5565b9250828202616f7f816159b5565b91508282048414831517616f9657616f95616f2c565b5b5092915050565b7f4e487b7100000000000000000000000000000000000000000000000000000000600052601260045260246000fd5b6000616fd7826159b5565b9150616fe2836159b5565b925082616ff257616ff1616f9d565b5b828204905092915050565b7f436f7572736520646f6573206e6f742065786973742100000000000000000000600082015250565b6000617033601683615c20565b915061703e82616ffd565b602082019050919050565b6000602082019050818103600083015261706281617026565b9050919050565b60008190508160005260206000209050919050565b60006020601f8301049050919050565b600082821b905092915050565b6000600883026170cb7fffffffffffffffffffffffffffffffffffffffffffffffffffffffffffffffff8261708e565b6170d5868361708e565b95508019841693508086168417925050509392505050565b6000819050919050565b600061711261710d617108846159b5565b6170ed565b6159b5565b9050919050565b6000819050919050565b61712c836170f7565b61714061713882617119565b84845461709b565b825550505050565b600090565b617155617148565b617160818484617123565b505050565b5b818110156171845761717960008261714d565b600181019050617166565b5050565b601f8211156171c95761719a81617069565b6171a38461707e565b810160208510156171b2578190505b6171c66171be8561707e565b830182617165565b50505b505050565b600082821c905092915050565b60006171ec600019846008026171ce565b1980831691505092915050565b600061720583836171db565b9150826002028217905092915050565b61721e826159ce565b67ffffffffffffffff81111561723757617236615fa4565b5b6172418254616e69565b61724c828285617188565b600060209050601f83116001811461727f576000841561726d578287015190505b61727785826171f9565b8655506172df565b601f19841661728d86617069565b60005b828110156172b557848901518255600182019150602085019450602081019050617290565b868310156172d257848901516172ce601f8916826171db565b8355505b6001600288020188555050505b505050505050565b60006172f2826159b5565b91507fffffffffffffffffffffffffffffffffffffffffffffffffffffffffffffffff820361732457617323616f2c565b5b600182019050919050565b7f52657669657720616c7265616479207375626d6974746564206279207468697360008201527f2072657669657765722e00000000000000000000000000000000000000000000602082015250565b600061738b602a83615c20565b91506173968261732f565b604082019050919050565b600060208201905081810360008301526173ba8161737e565b9050919050565b7f53636f726573206d757374206265206265747765656e203120616e642031302e600082015250565b60006173f7602083615c20565b9150617402826173c1565b602082019050919050565b60006020820190508181036000830152617426816173ea565b9050919050565b7f4c6573736f6e20646f6573206e6f742065786973742100000000000000000000600082015250565b6000617463601683615c20565b915061746e8261742d565b602082019050919050565b6000602082019050818103600083015261749281617456565b9050919050565b60006174a4826159b5565b91506174af836159b5565b92508282019050808211156174c7576174c6616f2c565b5b92915050565b7f45786365656473206d6178696d756d207265736f757263657321000000000000600082015250565b6000617503601a83615c20565b915061750e826174cd565b602082019050919050565b60006020820190508181036000830152617532816174f6565b9050919050565b600080fd5b600080fd5b600080fd5b60008235600160600383360303811261756457617563617539565b5b80830191505092915050565b6000808335600160200384360303811261758d5761758c617539565b5b80840192508235915067ffffffffffffffff8211156175af576175ae61753e565b5b6020830192506001820236038313156175cb576175ca617543565b5b509250929050565b6000815490506175e281616e69565b9050919050565b8181036175f75750506176cf565b617600826175d3565b67ffffffffffffffff81111561761957617618615fa4565b5b6176238254616e69565b61762e828285617188565b6000601f83116001811461765d576000841561764b578287015490505b61765585826171f9565b8655506176c8565b601f19841661766b87617069565b965061767686617069565b60005b8281101561769e57848901548255600182019150600185019450602081019050617679565b868310156176bb57848901546176b7601f8916826171db565b8355505b6001600288020188555050505b5050505050505b565b7f4c6573736f6e20446f6573206e6f742065786973742100000000000000000000600082015250565b6000617707601683615c20565b9150617712826176d1565b602082019050919050565b60006020820190508181036000830152617736816176fa565b9050919050565b600081905092915050565b6000617753826159ce565b61775d818561773d565b935061776d8185602086016159ea565b80840191505092915050565b60006177858284617748565b915081905092915050565b7f436f7572736520616c726561647920617070726f766564000000000000000000600082015250565b60006177c6601783615c20565b91506177d182617790565b602082019050919050565b600060208201905081810360008301526177f5816177b9565b9050919050565b7f596f75206861766520616c726561647920617070726f7665642074686973206360008201527f6f75727365000000000000000000000000000000000000000000000000000000602082015250565b6000617858602583615c20565b9150617863826177fc565b604082019050919050565b600060208201905081810360008301526178878161784b565b9050919050565b7f4368617074657220646f6573206e6f7420657869737421000000000000000000600082015250565b60006178c4601783615c20565b91506178cf8261788e565b602082019050919050565b600060208201905081810360008301526178f3816178b7565b9050919050565b7f436f7572736520494420616c7265616479206578697374730000000000000000600082015250565b6000617930601883615c20565b915061793b826178fa565b602082019050919050565b6000602082019050818103600083015261795f81617923565b9050919050565b6000617971826159b5565b915061797c836159b5565b925082820390508181111561799457617993616f2c565b5b92915050565b7f5175697a20646f6573206e6f7420657869737400000000000000000000000000600082015250565b60006179d0601383615c20565b91506179db8261799a565b602082019050919050565b600060208201905081810360008301526179ff816179c3565b9050919050565b7f496e76616c6964206e756d626572206f662063686f6963657300000000000000600082015250565b6000617a3c601983615c20565b9150617a4782617a06565b602082019050919050565b60006020820190508181036000830152617a6b81617a2f565b9050919050565b7f496e76616c696420636f72726563742063686f69636520696e64657800000000600082015250565b6000617aa8601c83615c20565b9150617ab382617a72565b602082019050919050565b60006020820190508181036000830152617ad781617a9b565b9050919050565b6000606082019050617af36000830186615bf6565b617b006020830185615bf6565b8181036040830152617b128184615c31565b9050949350505050565b6000617b2782616216565b915060ff8203617b3a57617b39616f2c565b5b600182019050919050565b7f436f75727365206e6f742079657420617070726f766564210000000000000000600082015250565b6000617b7b601883615c20565b9150617b8682617b45565b602082019050919050565b60006020820190508181036000830152617baa81617b6e565b9050919050565b7f596f752061726520616c726561647920656e726f6c6c656420696e746f20746860008201527f697320636f757273650000000000000000000000000000000000000000000000602082015250565b6000617c0d602983615c20565b9150617c1882617bb1565b604082019050919050565b60006020820190508181036000830152617c3c81617c00565b9050919050565b6000606082019050617c586000830186615e8e565b617c656020830185615bf6565b617c726040830184615bf6565b949350505050565b6000602082019050617c8f6000830184615e8e565b92915050565b7f4c696d6974204578636565646564210000000000000000000000000000000000600082015250565b6000617ccb600f83615c20565b9150617cd682617c95565b602082019050919050565b60006020820190508181036000830152617cfa81617cbe565b9050919050565b6000604082019050617d166000830185615e8e565b617d236020830184615e34565b9392505050565b7f496e73756666696369656e742062616c616e6365000000000000000000000000600082015250565b6000617d60601483615c20565b9150617d6b82617d2a565b602082019050919050565b60006020820190508181036000830152617d8f81617d53565b905091905056fea2646970667358221220d2c3dcca897c6b70af0e90cb1eb12cb86b0218105be94ff5cdda8817e8754e5064736f6c634300081b0033",
  "linkReferences": {},
  "deployedLinkReferences": {}
}