{
  "_format": "hh-sol-artifact-1",
  "contractName": "LiquidityContract",
  "sourceName": "contracts/LiquidityContract.sol",
  "abi": [
    {
      "inputs": [
        {
          "internalType": "address[]",
          "name": "_reviewers",
          "type": "address[]"
        }
      ],
      "stateMutability": "nonpayable",
      "type": "constructor"
    },
    {
      "inputs": [],
      "name": "AccessControlBadConfirmation",
      "type": "error"
    },
    {
      "inputs": [
        {
          "internalType": "address",
          "name": "account",
          "type": "address"
        },
        {
          "internalType": "bytes32",
          "name": "neededRole",
          "type": "bytes32"
        }
      ],
      "name": "AccessControlUnauthorizedAccount",
      "type": "error"
    },
    {
      "inputs": [
        {
          "internalType": "address",
          "name": "spender",
          "type": "address"
        },
        {
          "internalType": "uint256",
          "name": "allowance",
          "type": "uint256"
        },
        {
          "internalType": "uint256",
          "name": "needed",
          "type": "uint256"
        }
      ],
      "name": "ERC20InsufficientAllowance",
      "type": "error"
    },
    {
      "inputs": [
        {
          "internalType": "address",
          "name": "sender",
          "type": "address"
        },
        {
          "internalType": "uint256",
          "name": "balance",
          "type": "uint256"
        },
        {
          "internalType": "uint256",
          "name": "needed",
          "type": "uint256"
        }
      ],
      "name": "ERC20InsufficientBalance",
      "type": "error"
    },
    {
      "inputs": [
        {
          "internalType": "address",
          "name": "approver",
          "type": "address"
        }
      ],
      "name": "ERC20InvalidApprover",
      "type": "error"
    },
    {
      "inputs": [
        {
          "internalType": "address",
          "name": "receiver",
          "type": "address"
        }
      ],
      "name": "ERC20InvalidReceiver",
      "type": "error"
    },
    {
      "inputs": [
        {
          "internalType": "address",
          "name": "sender",
          "type": "address"
        }
      ],
      "name": "ERC20InvalidSender",
      "type": "error"
    },
    {
      "inputs": [
        {
          "internalType": "address",
          "name": "spender",
          "type": "address"
        }
      ],
      "name": "ERC20InvalidSpender",
      "type": "error"
    },
    {
      "anonymous": false,
      "inputs": [
        {
          "indexed": true,
          "internalType": "address",
          "name": "owner",
          "type": "address"
        },
        {
          "indexed": true,
          "internalType": "address",
          "name": "spender",
          "type": "address"
        },
        {
          "indexed": false,
          "internalType": "uint256",
          "name": "value",
          "type": "uint256"
        }
      ],
      "name": "Approval",
      "type": "event"
    },
    {
      "anonymous": false,
      "inputs": [
        {
          "indexed": true,
          "internalType": "address",
          "name": "_account",
          "type": "address"
        },
        {
          "indexed": false,
          "internalType": "uint256",
          "name": "_amount",
          "type": "uint256"
        }
      ],
      "name": "BurnSuccess",
      "type": "event"
    },
    {
      "anonymous": false,
      "inputs": [
        {
          "indexed": false,
          "internalType": "uint256",
          "name": "nativeTokenAmount",
          "type": "uint256"
        },
        {
          "indexed": false,
          "internalType": "uint256",
          "name": "stableCoinAmount",
          "type": "uint256"
        }
      ],
      "name": "LiquidityAdded",
      "type": "event"
    },
    {
      "anonymous": false,
      "inputs": [
        {
          "indexed": true,
          "internalType": "address",
          "name": "_to",
          "type": "address"
        },
        {
          "indexed": true,
          "internalType": "uint256",
          "name": "_amount",
          "type": "uint256"
        }
      ],
      "name": "MintSuccess",
      "type": "event"
    },
    {
      "anonymous": false,
      "inputs": [
        {
          "indexed": true,
          "internalType": "uint256",
          "name": "proposalId",
          "type": "uint256"
        },
        {
          "indexed": false,
          "internalType": "address",
          "name": "approver",
          "type": "address"
        }
      ],
      "name": "MultiSigProposalApproved",
      "type": "event"
    },
    {
      "anonymous": false,
      "inputs": [
        {
          "indexed": true,
          "internalType": "uint256",
          "name": "proposalId",
          "type": "uint256"
        },
        {
          "indexed": false,
          "internalType": "address",
          "name": "proposer",
          "type": "address"
        }
      ],
      "name": "MultiSigProposalCreated",
      "type": "event"
    },
    {
      "anonymous": false,
      "inputs": [
        {
          "indexed": true,
          "internalType": "uint256",
          "name": "proposalId",
          "type": "uint256"
        }
      ],
      "name": "MultiSigProposalExecuted",
      "type": "event"
    },
    {
      "anonymous": false,
      "inputs": [
        {
          "indexed": true,
          "internalType": "address",
          "name": "reviewer",
          "type": "address"
        }
      ],
      "name": "ReviewerAddedToPool",
      "type": "event"
    },
    {
      "anonymous": false,
      "inputs": [
        {
          "indexed": true,
          "internalType": "address",
          "name": "reviewer",
          "type": "address"
        }
      ],
      "name": "ReviewerRemovedFromPool",
      "type": "event"
    },
    {
      "anonymous": false,
      "inputs": [
        {
          "indexed": true,
          "internalType": "address",
          "name": "user",
          "type": "address"
        },
        {
          "indexed": false,
          "internalType": "uint256",
          "name": "amount",
          "type": "uint256"
        }
      ],
      "name": "RewardsClaimed",
      "type": "event"
    },
    {
      "anonymous": false,
      "inputs": [
        {
          "indexed": true,
          "internalType": "bytes32",
          "name": "role",
          "type": "bytes32"
        },
        {
          "indexed": true,
          "internalType": "bytes32",
          "name": "previousAdminRole",
          "type": "bytes32"
        },
        {
          "indexed": true,
          "internalType": "bytes32",
          "name": "newAdminRole",
          "type": "bytes32"
        }
      ],
      "name": "RoleAdminChanged",
      "type": "event"
    },
    {
      "anonymous": false,
      "inputs": [
        {
          "indexed": true,
          "internalType": "bytes32",
          "name": "role",
          "type": "bytes32"
        },
        {
          "indexed": true,
          "internalType": "address",
          "name": "account",
          "type": "address"
        },
        {
          "indexed": true,
          "internalType": "address",
          "name": "sender",
          "type": "address"
        }
      ],
      "name": "RoleGranted",
      "type": "event"
    },
    {
      "anonymous": false,
      "inputs": [
        {
          "indexed": true,
          "internalType": "bytes32",
          "name": "role",
          "type": "bytes32"
        },
        {
          "indexed": true,
          "internalType": "address",
          "name": "account",
          "type": "address"
        },
        {
          "indexed": true,
          "internalType": "address",
          "name": "sender",
          "type": "address"
        }
      ],
      "name": "RoleRevoked",
      "type": "event"
    },
    {
      "anonymous": false,
      "inputs": [
        {
          "indexed": true,
          "internalType": "address",
          "name": "user",
          "type": "address"
        },
        {
          "indexed": false,
          "internalType": "uint256",
          "name": "amount",
          "type": "uint256"
        }
      ],
      "name": "StakeDeposited",
      "type": "event"
    },
    {
      "anonymous": false,
      "inputs": [
        {
          "indexed": true,
          "internalType": "address",
          "name": "user",
          "type": "address"
        },
        {
          "indexed": false,
          "internalType": "uint256",
          "name": "amount",
          "type": "uint256"
        }
      ],
      "name": "StakeWithdrawn",
      "type": "event"
    },
    {
      "anonymous": false,
      "inputs": [
        {
          "indexed": true,
          "internalType": "address",
          "name": "from",
          "type": "address"
        },
        {
          "indexed": true,
          "internalType": "address",
          "name": "to",
          "type": "address"
        },
        {
          "indexed": false,
          "internalType": "uint256",
          "name": "value",
          "type": "uint256"
        }
      ],
      "name": "Transfer",
      "type": "event"
    },
    {
      "inputs": [],
      "name": "DEFAULT_ADMIN_ROLE",
      "outputs": [
        {
          "internalType": "bytes32",
          "name": "",
          "type": "bytes32"
        }
      ],
      "stateMutability": "view",
      "type": "function"
    },
    {
      "inputs": [],
      "name": "LIQUIDITY_MANAGER",
      "outputs": [
        {
          "internalType": "bytes32",
          "name": "",
          "type": "bytes32"
        }
      ],
      "stateMutability": "view",
      "type": "function"
    },
    {
      "inputs": [],
      "name": "LIQUIDITY_POOL",
      "outputs": [
        {
          "internalType": "uint256",
          "name": "",
          "type": "uint256"
        }
      ],
      "stateMutability": "view",
      "type": "function"
    },
    {
      "inputs": [],
      "name": "MAX_SUPPLY",
      "outputs": [
        {
          "internalType": "uint256",
          "name": "",
          "type": "uint256"
        }
      ],
      "stateMutability": "view",
      "type": "function"
    },
    {
      "inputs": [],
      "name": "MULTISIG_APPROVER",
      "outputs": [
        {
          "internalType": "bytes32",
          "name": "",
          "type": "bytes32"
        }
      ],
      "stateMutability": "view",
      "type": "function"
    },
    {
      "inputs": [],
      "name": "PROTOCOL_FEE_PERCENTAGE",
      "outputs": [
        {
          "internalType": "uint256",
          "name": "",
          "type": "uint256"
        }
      ],
      "stateMutability": "view",
      "type": "function"
    },
    {
      "inputs": [],
      "name": "REVIEWER_ROLE",
      "outputs": [
        {
          "internalType": "bytes32",
          "name": "",
          "type": "bytes32"
        }
      ],
      "stateMutability": "view",
      "type": "function"
    },
    {
      "inputs": [
        {
          "internalType": "address",
          "name": "",
          "type": "address"
        }
      ],
      "name": "accumulatedRewards",
      "outputs": [
        {
          "internalType": "uint256",
          "name": "",
          "type": "uint256"
        }
      ],
      "stateMutability": "view",
      "type": "function"
    },
    {
      "inputs": [
        {
          "internalType": "uint256",
          "name": "nativeTokenAmount",
          "type": "uint256"
        },
        {
          "internalType": "uint256",
          "name": "stableCoinAmount",
          "type": "uint256"
        },
        {
          "internalType": "uint160",
          "name": "sqrtPriceLimitX96",
          "type": "uint160"
        }
      ],
      "name": "addLiquidity",
      "outputs": [],
      "stateMutability": "nonpayable",
      "type": "function"
    },
    {
      "inputs": [
        {
          "internalType": "address",
          "name": "newReviewer",
          "type": "address"
        }
      ],
      "name": "addReviewer",
      "outputs": [],
      "stateMutability": "nonpayable",
      "type": "function"
    },
    {
      "inputs": [
        {
          "internalType": "address",
          "name": "owner",
          "type": "address"
        },
        {
          "internalType": "address",
          "name": "spender",
          "type": "address"
        }
      ],
      "name": "allowance",
      "outputs": [
        {
          "internalType": "uint256",
          "name": "",
          "type": "uint256"
        }
      ],
      "stateMutability": "view",
      "type": "function"
    },
    {
      "inputs": [
        {
          "internalType": "address",
          "name": "spender",
          "type": "address"
        },
        {
          "internalType": "uint256",
          "name": "value",
          "type": "uint256"
        }
      ],
      "name": "approve",
      "outputs": [
        {
          "internalType": "bool",
          "name": "",
          "type": "bool"
        }
      ],
      "stateMutability": "nonpayable",
      "type": "function"
    },
    {
      "inputs": [
        {
          "internalType": "uint256",
          "name": "_proposalId",
          "type": "uint256"
        }
      ],
      "name": "approveMultiSigProposal",
      "outputs": [],
      "stateMutability": "nonpayable",
      "type": "function"
    },
    {
      "inputs": [
        {
          "internalType": "address",
          "name": "account",
          "type": "address"
        }
      ],
      "name": "balanceOf",
      "outputs": [
        {
          "internalType": "uint256",
          "name": "",
          "type": "uint256"
        }
      ],
      "stateMutability": "view",
      "type": "function"
    },
    {
      "inputs": [],
      "name": "decimals",
      "outputs": [
        {
          "internalType": "uint8",
          "name": "",
          "type": "uint8"
        }
      ],
      "stateMutability": "view",
      "type": "function"
    },
    {
      "inputs": [
        {
          "internalType": "bytes32",
          "name": "role",
          "type": "bytes32"
        }
      ],
      "name": "getRoleAdmin",
      "outputs": [
        {
          "internalType": "bytes32",
          "name": "",
          "type": "bytes32"
        }
      ],
      "stateMutability": "view",
      "type": "function"
    },
    {
      "inputs": [
        {
          "internalType": "bytes32",
          "name": "role",
          "type": "bytes32"
        },
        {
          "internalType": "address",
          "name": "account",
          "type": "address"
        }
      ],
      "name": "grantRole",
      "outputs": [],
      "stateMutability": "nonpayable",
      "type": "function"
    },
    {
      "inputs": [
        {
          "internalType": "bytes32",
          "name": "role",
          "type": "bytes32"
        },
        {
          "internalType": "address",
          "name": "account",
          "type": "address"
        }
      ],
      "name": "hasRole",
      "outputs": [
        {
          "internalType": "bool",
          "name": "",
          "type": "bool"
        }
      ],
      "stateMutability": "view",
      "type": "function"
    },
    {
      "inputs": [
        {
          "internalType": "address",
          "name": "",
          "type": "address"
        }
      ],
      "name": "isInReviewerPool",
      "outputs": [
        {
          "internalType": "bool",
          "name": "",
          "type": "bool"
        }
      ],
      "stateMutability": "view",
      "type": "function"
    },
    {
      "inputs": [
        {
          "internalType": "address",
          "name": "account",
          "type": "address"
        }
      ],
      "name": "isReviewer",
      "outputs": [
        {
          "internalType": "bool",
          "name": "",
          "type": "bool"
        }
      ],
      "stateMutability": "view",
      "type": "function"
    },
    {
      "inputs": [
        {
          "internalType": "uint256",
          "name": "",
          "type": "uint256"
        }
      ],
      "name": "multiSigProposals",
      "outputs": [
        {
          "internalType": "uint256",
          "name": "id",
          "type": "uint256"
        },
        {
          "internalType": "address",
          "name": "proposer",
          "type": "address"
        },
        {
          "internalType": "address",
          "name": "targetContract",
          "type": "address"
        },
        {
          "internalType": "bytes",
          "name": "data",
          "type": "bytes"
        },
        {
          "internalType": "uint256",
          "name": "approvalCount",
          "type": "uint256"
        },
        {
          "internalType": "bool",
          "name": "executed",
          "type": "bool"
        }
      ],
      "stateMutability": "view",
      "type": "function"
    },
    {
      "inputs": [],
      "name": "name",
      "outputs": [
        {
          "internalType": "string",
          "name": "",
          "type": "string"
        }
      ],
      "stateMutability": "view",
      "type": "function"
    },
    {
      "inputs": [],
      "name": "nativeToken",
      "outputs": [
        {
          "internalType": "contract IERC20",
          "name": "",
          "type": "address"
        }
      ],
      "stateMutability": "view",
      "type": "function"
    },
    {
      "inputs": [
        {
          "internalType": "address",
          "name": "reviewer",
          "type": "address"
        }
      ],
      "name": "removeReviewer",
      "outputs": [],
      "stateMutability": "nonpayable",
      "type": "function"
    },
    {
      "inputs": [
        {
          "internalType": "bytes32",
          "name": "role",
          "type": "bytes32"
        },
        {
          "internalType": "address",
          "name": "callerConfirmation",
          "type": "address"
        }
      ],
      "name": "renounceRole",
      "outputs": [],
      "stateMutability": "nonpayable",
      "type": "function"
    },
    {
      "inputs": [
        {
          "internalType": "uint256",
          "name": "",
          "type": "uint256"
        }
      ],
      "name": "reviewerPool",
      "outputs": [
        {
          "internalType": "address",
          "name": "",
          "type": "address"
        }
      ],
      "stateMutability": "view",
      "type": "function"
    },
    {
      "inputs": [
        {
          "internalType": "bytes32",
          "name": "role",
          "type": "bytes32"
        },
        {
          "internalType": "address",
          "name": "account",
          "type": "address"
        }
      ],
      "name": "revokeRole",
      "outputs": [],
      "stateMutability": "nonpayable",
      "type": "function"
    },
    {
      "inputs": [],
      "name": "rewardRate",
      "outputs": [
        {
          "internalType": "uint256",
          "name": "",
          "type": "uint256"
        }
      ],
      "stateMutability": "view",
      "type": "function"
    },
    {
      "inputs": [],
      "name": "stableCoin",
      "outputs": [
        {
          "internalType": "contract IERC20",
          "name": "",
          "type": "address"
        }
      ],
      "stateMutability": "view",
      "type": "function"
    },
    {
      "inputs": [
        {
          "internalType": "uint256",
          "name": "amount",
          "type": "uint256"
        }
      ],
      "name": "stake",
      "outputs": [],
      "stateMutability": "nonpayable",
      "type": "function"
    },
    {
      "inputs": [
        {
          "internalType": "address",
          "name": "",
          "type": "address"
        }
      ],
      "name": "stakedBalances",
      "outputs": [
        {
          "internalType": "uint256",
          "name": "",
          "type": "uint256"
        }
      ],
      "stateMutability": "view",
      "type": "function"
    },
    {
      "inputs": [
        {
          "internalType": "bytes4",
          "name": "interfaceId",
          "type": "bytes4"
        }
      ],
      "name": "supportsInterface",
      "outputs": [
        {
          "internalType": "bool",
          "name": "",
          "type": "bool"
        }
      ],
      "stateMutability": "view",
      "type": "function"
    },
    {
      "inputs": [],
      "name": "swapRouter",
      "outputs": [
        {
          "internalType": "contract ISwapRouter",
          "name": "",
          "type": "address"
        }
      ],
      "stateMutability": "view",
      "type": "function"
    },
    {
      "inputs": [],
      "name": "symbol",
      "outputs": [
        {
          "internalType": "string",
          "name": "",
          "type": "string"
        }
      ],
      "stateMutability": "view",
      "type": "function"
    },
    {
      "inputs": [],
      "name": "totalLiquidityProvided",
      "outputs": [
        {
          "internalType": "uint256",
          "name": "",
          "type": "uint256"
        }
      ],
      "stateMutability": "view",
      "type": "function"
    },
    {
      "inputs": [],
      "name": "totalStaked",
      "outputs": [
        {
          "internalType": "uint256",
          "name": "",
          "type": "uint256"
        }
      ],
      "stateMutability": "view",
      "type": "function"
    },
    {
      "inputs": [],
      "name": "totalSupply",
      "outputs": [
        {
          "internalType": "uint256",
          "name": "",
          "type": "uint256"
        }
      ],
      "stateMutability": "view",
      "type": "function"
    },
    {
      "inputs": [
        {
          "internalType": "address",
          "name": "to",
          "type": "address"
        },
        {
          "internalType": "uint256",
          "name": "value",
          "type": "uint256"
        }
      ],
      "name": "transfer",
      "outputs": [
        {
          "internalType": "bool",
          "name": "",
          "type": "bool"
        }
      ],
      "stateMutability": "nonpayable",
      "type": "function"
    },
    {
      "inputs": [
        {
          "internalType": "address",
          "name": "from",
          "type": "address"
        },
        {
          "internalType": "address",
          "name": "to",
          "type": "address"
        },
        {
          "internalType": "uint256",
          "name": "value",
          "type": "uint256"
        }
      ],
      "name": "transferFrom",
      "outputs": [
        {
          "internalType": "bool",
          "name": "",
          "type": "bool"
        }
      ],
      "stateMutability": "nonpayable",
      "type": "function"
    },
    {
      "inputs": [
        {
          "internalType": "uint256",
          "name": "amount",
          "type": "uint256"
        }
      ],
      "name": "unstake",
      "outputs": [],
      "stateMutability": "nonpayable",
      "type": "function"
    }
  ],
  "bytecode": "0x60c060405234801561001057600080fd5b50604051614ab0380380614ab083398181016040528101906100329190610a56565b806040518060400160405280600a81526020017f4142594120544f4b454e000000000000000000000000000000000000000000008152506040518060400160405280600681526020017f414259544b4e000000000000000000000000000000000000000000000000000081525081600390816100ae9190610cc0565b5080600490816100be9190610cc0565b505050600481511015610106576040517f08c379a00000000000000000000000000000000000000000000000000000000081526004016100fd90610e15565b60405180910390fd5b6101196000801b3361039c60201b60201c565b5061014a7fdf1425bae297c2f52b4f15d18a50b1fc8cb5b981a981b1d213ed3ff92681b64d3361039c60201b60201c565b5060005b815181101561029e576101a17fc10c77be35aff266144ed64c26a1fa104bae2f284ae99ac4a34203454704a18583838151811061018e5761018d610e35565b5b602002602001015161039c60201b60201c565b5060068282815181106101b7576101b6610e35565b5b60200260200101519080600181540180825580915050600190039060005260206000200160009091909190916101000a81548173ffffffffffffffffffffffffffffffffffffffff021916908373ffffffffffffffffffffffffffffffffffffffff16021790555060016008600084848151811061023857610237610e35565b5b602002602001015173ffffffffffffffffffffffffffffffffffffffff1673ffffffffffffffffffffffffffffffffffffffff16815260200190815260200160002060006101000a81548160ff021916908315150217905550808060010191505061014e565b505073e592427a0aece92de3edee1f18e0157c0586156473ffffffffffffffffffffffffffffffffffffffff1660808173ffffffffffffffffffffffffffffffffffffffff16815250503073ffffffffffffffffffffffffffffffffffffffff1660a08173ffffffffffffffffffffffffffffffffffffffff168152505061032f6000801b3361039c60201b60201c565b506103607f0cec6da01a27fe07ab86bff79c774dbe9a125d8ca3c22761c68442756bf154853361039c60201b60201c565b50610395306064600a6b204fce5e3e250261100000006103809190610e93565b61038a9190610f04565b61049a60201b60201c565b5050611060565b60006103ae838361056160201b60201c565b61048f5760016005600085815260200190815260200160002060000160008473ffffffffffffffffffffffffffffffffffffffff1673ffffffffffffffffffffffffffffffffffffffff16815260200190815260200160002060006101000a81548160ff02191690831515021790555061042c6105cc60201b60201c565b73ffffffffffffffffffffffffffffffffffffffff168273ffffffffffffffffffffffffffffffffffffffff16847f2f8788117e7eff1d82e926ec794901d17c78024a50270940304540a733656f0d60405160405180910390a460019050610494565b600090505b92915050565b60006b204fce5e3e250261100000006104b76105d460201b60201c565b836104c29190610f35565b1115610503576040517f08c379a00000000000000000000000000000000000000000000000000000000081526004016104fa90610fb5565b60405180910390fd5b61051383836105de60201b60201c565b818373ffffffffffffffffffffffffffffffffffffffff167fcda531bfd68624f13205c0a23cd4d5a7f09792cbb399603114f2b04aaa1bf5cf60405160405180910390a36001905092915050565b60006005600084815260200190815260200160002060000160008373ffffffffffffffffffffffffffffffffffffffff1673ffffffffffffffffffffffffffffffffffffffff16815260200190815260200160002060009054906101000a900460ff16905092915050565b600033905090565b6000600254905090565b600073ffffffffffffffffffffffffffffffffffffffff168273ffffffffffffffffffffffffffffffffffffffff16036106505760006040517fec442f050000000000000000000000000000000000000000000000000000000081526004016106479190610fe4565b60405180910390fd5b6106626000838361066660201b60201c565b5050565b600073ffffffffffffffffffffffffffffffffffffffff168373ffffffffffffffffffffffffffffffffffffffff16036106b85780600260008282546106ac9190610f35565b9250508190555061078b565b60008060008573ffffffffffffffffffffffffffffffffffffffff1673ffffffffffffffffffffffffffffffffffffffff16815260200190815260200160002054905081811015610744578381836040517fe450d38c00000000000000000000000000000000000000000000000000000000815260040161073b9392919061100e565b60405180910390fd5b8181036000808673ffffffffffffffffffffffffffffffffffffffff1673ffffffffffffffffffffffffffffffffffffffff16815260200190815260200160002081905550505b600073ffffffffffffffffffffffffffffffffffffffff168273ffffffffffffffffffffffffffffffffffffffff16036107d45780600260008282540392505081905550610821565b806000808473ffffffffffffffffffffffffffffffffffffffff1673ffffffffffffffffffffffffffffffffffffffff168152602001908152602001600020600082825401925050819055505b8173ffffffffffffffffffffffffffffffffffffffff168373ffffffffffffffffffffffffffffffffffffffff167fddf252ad1be2c89b69c2b068fc378daa952ba7f163c4a11628f55a4df523b3ef8360405161087e9190611045565b60405180910390a3505050565b6000604051905090565b600080fd5b600080fd5b600080fd5b6000601f19601f8301169050919050565b7f4e487b7100000000000000000000000000000000000000000000000000000000600052604160045260246000fd5b6108ed826108a4565b810181811067ffffffffffffffff8211171561090c5761090b6108b5565b5b80604052505050565b600061091f61088b565b905061092b82826108e4565b919050565b600067ffffffffffffffff82111561094b5761094a6108b5565b5b602082029050602081019050919050565b600080fd5b600073ffffffffffffffffffffffffffffffffffffffff82169050919050565b600061098c82610961565b9050919050565b61099c81610981565b81146109a757600080fd5b50565b6000815190506109b981610993565b92915050565b60006109d26109cd84610930565b610915565b905080838252602082019050602084028301858111156109f5576109f461095c565b5b835b81811015610a1e5780610a0a88826109aa565b8452602084019350506020810190506109f7565b5050509392505050565b600082601f830112610a3d57610a3c61089f565b5b8151610a4d8482602086016109bf565b91505092915050565b600060208284031215610a6c57610a6b610895565b5b600082015167ffffffffffffffff811115610a8a57610a8961089a565b5b610a9684828501610a28565b91505092915050565b600081519050919050565b7f4e487b7100000000000000000000000000000000000000000000000000000000600052602260045260246000fd5b60006002820490506001821680610af157607f821691505b602082108103610b0457610b03610aaa565b5b50919050565b60008190508160005260206000209050919050565b60006020601f8301049050919050565b600082821b905092915050565b600060088302610b6c7fffffffffffffffffffffffffffffffffffffffffffffffffffffffffffffffff82610b2f565b610b768683610b2f565b95508019841693508086168417925050509392505050565b6000819050919050565b6000819050919050565b6000610bbd610bb8610bb384610b8e565b610b98565b610b8e565b9050919050565b6000819050919050565b610bd783610ba2565b610beb610be382610bc4565b848454610b3c565b825550505050565b600090565b610c00610bf3565b610c0b818484610bce565b505050565b5b81811015610c2f57610c24600082610bf8565b600181019050610c11565b5050565b601f821115610c7457610c4581610b0a565b610c4e84610b1f565b81016020851015610c5d578190505b610c71610c6985610b1f565b830182610c10565b50505b505050565b600082821c905092915050565b6000610c9760001984600802610c79565b1980831691505092915050565b6000610cb08383610c86565b9150826002028217905092915050565b610cc982610a9f565b67ffffffffffffffff811115610ce257610ce16108b5565b5b610cec8254610ad9565b610cf7828285610c33565b600060209050601f831160018114610d2a5760008415610d18578287015190505b610d228582610ca4565b865550610d8a565b601f198416610d3886610b0a565b60005b82811015610d6057848901518255600182019150602085019450602081019050610d3b565b86831015610d7d5784890151610d79601f891682610c86565b8355505b6001600288020188555050505b505050505050565b600082825260208201905092915050565b7f4174206c6561737420342072657669657765727320617265207265717569726560008201527f6400000000000000000000000000000000000000000000000000000000000000602082015250565b6000610dff602183610d92565b9150610e0a82610da3565b604082019050919050565b60006020820190508181036000830152610e2e81610df2565b9050919050565b7f4e487b7100000000000000000000000000000000000000000000000000000000600052603260045260246000fd5b7f4e487b7100000000000000000000000000000000000000000000000000000000600052601160045260246000fd5b6000610e9e82610b8e565b9150610ea983610b8e565b9250828202610eb781610b8e565b91508282048414831517610ece57610ecd610e64565b5b5092915050565b7f4e487b7100000000000000000000000000000000000000000000000000000000600052601260045260246000fd5b6000610f0f82610b8e565b9150610f1a83610b8e565b925082610f2a57610f29610ed5565b5b828204905092915050565b6000610f4082610b8e565b9150610f4b83610b8e565b9250828201905080821115610f6357610f62610e64565b5b92915050565b7f4c696d6974204578636565646564210000000000000000000000000000000000600082015250565b6000610f9f600f83610d92565b9150610faa82610f69565b602082019050919050565b60006020820190508181036000830152610fce81610f92565b9050919050565b610fde81610981565b82525050565b6000602082019050610ff96000830184610fd5565b92915050565b61100881610b8e565b82525050565b60006060820190506110236000830186610fd5565b6110306020830185610fff565b61103d6040830184610fff565b949350505050565b600060208201905061105a6000830184610fff565b92915050565b60805160a0516139fa6110b660003960008181610b02015281816111ba01528181611920015281816119b50152611c1d0152600081816115c501528181611941015281816119800152611a7801526139fa6000f3fe608060405234801561001057600080fd5b50600436106102485760003560e01c806373f273fc1161013b578063c31c9c07116100b8578063dd62ed3e1161007c578063dd62ed3e14610732578063dfed134814610762578063e1758bd814610780578063e4d7d6dc1461079e578063fdc6258a146107bc57610248565b8063c31c9c0714610690578063c491b04c146106ae578063c9442dac146106de578063cd7711f4146106fa578063d547741f1461071657610248565b8063992642e5116100ff578063992642e5146105ec578063a217fddf1461060a578063a694fc3a14610628578063a9059cbb14610644578063bad0dd651461067457610248565b806373f273fc146105325780637b0a47ee14610562578063817b1cd21461058057806391d148541461059e57806395d89b41146105ce57610248565b80632f2ff15d116101c95780633b129a561161018d5780633b129a561461047557806340932bf81461049357806352994e2f146104c857806370a08231146104e657806373a82b5f1461051657610248565b80632f2ff15d146103e3578063313ce567146103ff578063328ad4671461041d57806332cb6b0c1461043b57806336568abe1461045957610248565b806319f102ec1161021057806319f102ec1461031957806323b872dd14610349578063248a9ca3146103795780632cca9dfd146103a95780632e17de78146103c757610248565b806301ffc9a71461024d57806306fdde031461027d578063095ea7b31461029b5780631460fa87146102cb57806318160ddd146102fb575b600080fd5b6102676004803603810190610262919061299e565b6107ec565b60405161027491906129e6565b60405180910390f35b610285610866565b6040516102929190612a91565b60405180910390f35b6102b560048036038101906102b09190612b47565b6108f8565b6040516102c291906129e6565b60405180910390f35b6102e560048036038101906102e09190612b87565b61091b565b6040516102f29190612bc3565b60405180910390f35b610303610933565b6040516103109190612bc3565b60405180910390f35b610333600480360381019061032e9190612bde565b61093d565b6040516103409190612c1a565b60405180910390f35b610363600480360381019061035e9190612c35565b61097c565b60405161037091906129e6565b60405180910390f35b610393600480360381019061038e9190612cbe565b6109ab565b6040516103a09190612cfa565b60405180910390f35b6103b16109cb565b6040516103be9190612bc3565b60405180910390f35b6103e160048036038101906103dc9190612bde565b6109f3565b005b6103fd60048036038101906103f89190612d15565b610bd3565b005b610407610bf5565b6040516104149190612d71565b60405180910390f35b610425610bfe565b6040516104329190612cfa565b60405180910390f35b610443610c22565b6040516104509190612bc3565b60405180910390f35b610473600480360381019061046e9190612d15565b610c32565b005b61047d610cad565b60405161048a9190612cfa565b60405180910390f35b6104ad60048036038101906104a89190612bde565b610cd1565b6040516104bf96959493929190612de1565b60405180910390f35b6104d0610de2565b6040516104dd9190612cfa565b60405180910390f35b61050060048036038101906104fb9190612b87565b610e06565b60405161050d9190612bc3565b60405180910390f35b610530600480360381019061052b9190612b87565b610e4e565b005b61054c60048036038101906105479190612b87565b611032565b6040516105599190612bc3565b60405180910390f35b61056a61104a565b6040516105779190612bc3565b60405180910390f35b610588611050565b6040516105959190612bc3565b60405180910390f35b6105b860048036038101906105b39190612d15565b611056565b6040516105c591906129e6565b60405180910390f35b6105d66110c1565b6040516105e39190612a91565b60405180910390f35b6105f4611153565b6040516106019190612ea8565b60405180910390f35b61061261116b565b60405161061f9190612cfa565b60405180910390f35b610642600480360381019061063d9190612bde565b611172565b005b61065e60048036038101906106599190612b47565b6112a1565b60405161066b91906129e6565b60405180910390f35b61068e60048036038101906106899190612bde565b6112c4565b005b6106986115c3565b6040516106a59190612ee4565b60405180910390f35b6106c860048036038101906106c39190612b87565b6115e7565b6040516106d591906129e6565b60405180910390f35b6106f860048036038101906106f39190612b87565b611607565b005b610714600480360381019061070f9190612f2b565b6118f1565b005b610730600480360381019061072b9190612d15565b611b6c565b005b61074c60048036038101906107479190612f7e565b611b8e565b6040516107599190612bc3565b60405180910390f35b61076a611c15565b6040516107779190612bc3565b60405180910390f35b610788611c1b565b6040516107959190612ea8565b60405180910390f35b6107a6611c3f565b6040516107b39190612bc3565b60405180910390f35b6107d660048036038101906107d19190612b87565b611c44565b6040516107e391906129e6565b60405180910390f35b60007f7965db0b000000000000000000000000000000000000000000000000000000007bffffffffffffffffffffffffffffffffffffffffffffffffffffffff1916827bffffffffffffffffffffffffffffffffffffffffffffffffffffffff1916148061085f575061085e82611c77565b5b9050919050565b60606003805461087590612fed565b80601f01602080910402602001604051908101604052809291908181526020018280546108a190612fed565b80156108ee5780601f106108c3576101008083540402835291602001916108ee565b820191906000526020600020905b8154815290600101906020018083116108d157829003601f168201915b5050505050905090565b600080610903611ce1565b9050610910818585611ce9565b600191505092915050565b600d6020528060005260406000206000915090505481565b6000600254905090565b6006818154811061094d57600080fd5b906000526020600020016000915054906101000a900473ffffffffffffffffffffffffffffffffffffffff1681565b600080610987611ce1565b9050610994858285611cfb565b61099f858585611d90565b60019150509392505050565b600060056000838152602001908152602001600020600101549050919050565b6064600a6b204fce5e3e250261100000006109e6919061304d565b6109f091906130be565b81565b600081118015610a425750600d60003373ffffffffffffffffffffffffffffffffffffffff1673ffffffffffffffffffffffffffffffffffffffff168152602001908152602001600020548111155b610a81576040517f08c379a0000000000000000000000000000000000000000000000000000000008152600401610a789061313b565b60405180910390fd5b6000610a8c33611e84565b905081600d60003373ffffffffffffffffffffffffffffffffffffffff1673ffffffffffffffffffffffffffffffffffffffff1681526020019081526020016000206000828254610add919061315b565b9250508190555081600b6000828254610af6919061315b565b92505081905550610b337f0000000000000000000000000000000000000000000000000000000000000000338385610b2e919061318f565b611ef9565b3373ffffffffffffffffffffffffffffffffffffffff167f8108595eb6bad3acefa9da467d90cc2217686d5c5ac85460f8b7849c840645fc83604051610b799190612bc3565b60405180910390a23373ffffffffffffffffffffffffffffffffffffffff167ffc30cddea38e2bf4d6ea7d3f9ed3b6ad7f176419f4963bd81318067a4aee73fe82604051610bc79190612bc3565b60405180910390a25050565b610bdc826109ab565b610be58161204e565b610bef8383612062565b50505050565b60006012905090565b7f0cec6da01a27fe07ab86bff79c774dbe9a125d8ca3c22761c68442756bf1548581565b6b204fce5e3e2502611000000081565b610c3a611ce1565b73ffffffffffffffffffffffffffffffffffffffff168173ffffffffffffffffffffffffffffffffffffffff1614610c9e576040517f6697b23200000000000000000000000000000000000000000000000000000000815260040160405180910390fd5b610ca88282612154565b505050565b7fc10c77be35aff266144ed64c26a1fa104bae2f284ae99ac4a34203454704a18581565b60096020528060005260406000206000915090508060000154908060010160009054906101000a900473ffffffffffffffffffffffffffffffffffffffff16908060020160009054906101000a900473ffffffffffffffffffffffffffffffffffffffff1690806003018054610d4690612fed565b80601f0160208091040260200160405190810160405280929190818152602001828054610d7290612fed565b8015610dbf5780601f10610d9457610100808354040283529160200191610dbf565b820191906000526020600020905b815481529060010190602001808311610da257829003601f168201915b5050505050908060040154908060050160009054906101000a900460ff16905086565b7fdf1425bae297c2f52b4f15d18a50b1fc8cb5b981a981b1d213ed3ff92681b64d81565b60008060008373ffffffffffffffffffffffffffffffffffffffff1673ffffffffffffffffffffffffffffffffffffffff168152602001908152602001600020549050919050565b7fc10c77be35aff266144ed64c26a1fa104bae2f284ae99ac4a34203454704a185610e788161204e565b600860008373ffffffffffffffffffffffffffffffffffffffff1673ffffffffffffffffffffffffffffffffffffffff16815260200190815260200160002060009054906101000a900460ff1615610f05576040517f08c379a0000000000000000000000000000000000000000000000000000000008152600401610efc9061320f565b60405180910390fd5b610f2f7fc10c77be35aff266144ed64c26a1fa104bae2f284ae99ac4a34203454704a18583612062565b506006829080600181540180825580915050600190039060005260206000200160009091909190916101000a81548173ffffffffffffffffffffffffffffffffffffffff021916908373ffffffffffffffffffffffffffffffffffffffff1602179055506001600860008473ffffffffffffffffffffffffffffffffffffffff1673ffffffffffffffffffffffffffffffffffffffff16815260200190815260200160002060006101000a81548160ff0219169083151502179055508173ffffffffffffffffffffffffffffffffffffffff167fe1cb5e1230cc02e62c60b81c1aa5ade512f3eac296edb28628b4cf344f47f93160405160405180910390a25050565b600e6020528060005260406000206000915090505481565b600c5481565b600b5481565b60006005600084815260200190815260200160002060000160008373ffffffffffffffffffffffffffffffffffffffff1673ffffffffffffffffffffffffffffffffffffffff16815260200190815260200160002060009054906101000a900460ff16905092915050565b6060600480546110d090612fed565b80601f01602080910402602001604051908101604052809291908181526020018280546110fc90612fed565b80156111495780601f1061111e57610100808354040283529160200191611149565b820191906000526020600020905b81548152906001019060200180831161112c57829003601f168201915b5050505050905090565b7307865c6e87b9f70255377e024ace6630c1eaa37f81565b6000801b81565b600081116111b5576040517f08c379a00000000000000000000000000000000000000000000000000000000081526004016111ac9061327b565b60405180910390fd5b6111e17f0000000000000000000000000000000000000000000000000000000000000000333084612247565b80600d60003373ffffffffffffffffffffffffffffffffffffffff1673ffffffffffffffffffffffffffffffffffffffff1681526020019081526020016000206000828254611230919061318f565b9250508190555080600b6000828254611249919061318f565b925050819055503373ffffffffffffffffffffffffffffffffffffffff167f0a7bb2e28cc4698aac06db79cf9163bfcc20719286cf59fa7d492ceda1b8edc2826040516112969190612bc3565b60405180910390a250565b6000806112ac611ce1565b90506112b9818585611d90565b600191505092915050565b7fdf1425bae297c2f52b4f15d18a50b1fc8cb5b981a981b1d213ed3ff92681b64d6112ee8161204e565b60006009600084815260200190815260200160002090508060050160009054906101000a900460ff1615611357576040517f08c379a000000000000000000000000000000000000000000000000000000000815260040161134e906132e7565b60405180910390fd5b8060060160003373ffffffffffffffffffffffffffffffffffffffff1673ffffffffffffffffffffffffffffffffffffffff16815260200190815260200160002060009054906101000a900460ff16156113e6576040517f08c379a00000000000000000000000000000000000000000000000000000000081526004016113dd90613353565b60405180910390fd5b60018160060160003373ffffffffffffffffffffffffffffffffffffffff1673ffffffffffffffffffffffffffffffffffffffff16815260200190815260200160002060006101000a81548160ff02191690831515021790555080600401600081548092919061145590613373565b9190505550827f5d4ccf5f92566d140246f4ae3b9cb35dc06fff109a7748602ad77f6260fd9a613360405161148a9190612c1a565b60405180910390a260038160040154106115be5760008160020160009054906101000a900473ffffffffffffffffffffffffffffffffffffffff1673ffffffffffffffffffffffffffffffffffffffff16826003016040516114ec919061345e565b6000604051808303816000865af19150503d8060008114611529576040519150601f19603f3d011682016040523d82523d6000602084013e61152e565b606091505b5050905080611572576040517f08c379a0000000000000000000000000000000000000000000000000000000008152600401611569906134c1565b60405180910390fd5b60018260050160006101000a81548160ff021916908315150217905550837f7770356c29230b95943aec59d47ead11eb426a728bf5b57f7fd8597f3c0e29ba60405160405180910390a2505b505050565b7f000000000000000000000000000000000000000000000000000000000000000081565b60086020528060005260406000206000915054906101000a900460ff1681565b6000801b6116148161204e565b600860008373ffffffffffffffffffffffffffffffffffffffff1673ffffffffffffffffffffffffffffffffffffffff16815260200190815260200160002060009054906101000a900460ff166116a0576040517f08c379a00000000000000000000000000000000000000000000000000000000081526004016116979061352d565b60405180910390fd5b60005b600680549050811015611826578273ffffffffffffffffffffffffffffffffffffffff16600682815481106116db576116da61354d565b5b9060005260206000200160009054906101000a900473ffffffffffffffffffffffffffffffffffffffff1673ffffffffffffffffffffffffffffffffffffffff16036118195760066001600680549050611735919061315b565b815481106117465761174561354d565b5b9060005260206000200160009054906101000a900473ffffffffffffffffffffffffffffffffffffffff16600682815481106117855761178461354d565b5b9060005260206000200160006101000a81548173ffffffffffffffffffffffffffffffffffffffff021916908373ffffffffffffffffffffffffffffffffffffffff16021790555060068054806117df576117de61357c565b5b6001900381819060005260206000200160006101000a81549073ffffffffffffffffffffffffffffffffffffffff02191690559055611826565b80806001019150506116a3565b506000600860008473ffffffffffffffffffffffffffffffffffffffff1673ffffffffffffffffffffffffffffffffffffffff16815260200190815260200160002060006101000a81548160ff0219169083151502179055506118a97fc10c77be35aff266144ed64c26a1fa104bae2f284ae99ac4a34203454704a18583612154565b508173ffffffffffffffffffffffffffffffffffffffff167f55dba9d79522b91b615629d5f3b10c2fad2d258f1768614f4a52e937ada0d0ba60405160405180910390a25050565b7f0cec6da01a27fe07ab86bff79c774dbe9a125d8ca3c22761c68442756bf1548561191b8161204e565b6119667f00000000000000000000000000000000000000000000000000000000000000007f00000000000000000000000000000000000000000000000000000000000000008661239f565b6119a57307865c6e87b9f70255377e024ace6630c1eaa37f7f00000000000000000000000000000000000000000000000000000000000000008561239f565b60006040518061010001604052807f000000000000000000000000000000000000000000000000000000000000000073ffffffffffffffffffffffffffffffffffffffff1681526020017307865c6e87b9f70255377e024ace6630c1eaa37f73ffffffffffffffffffffffffffffffffffffffff168152602001610bb862ffffff1681526020013073ffffffffffffffffffffffffffffffffffffffff1681526020014281526020018681526020018581526020018473ffffffffffffffffffffffffffffffffffffffff1681525090507f000000000000000000000000000000000000000000000000000000000000000073ffffffffffffffffffffffffffffffffffffffff1663414bf389826040518263ffffffff1660e01b8152600401611acf9190613698565b6020604051808303816000875af1158015611aee573d6000803e3d6000fd5b505050506040513d601f19601f82011682018060405250810190611b1291906136c9565b5084600a6000828254611b25919061318f565b925050819055507f38f8a0c92f4c5b0b6877f878cb4c0c8d348a47b76d716c8e78f425043df9515b8585604051611b5d9291906136f6565b60405180910390a15050505050565b611b75826109ab565b611b7e8161204e565b611b888383612154565b50505050565b6000600160008473ffffffffffffffffffffffffffffffffffffffff1673ffffffffffffffffffffffffffffffffffffffff16815260200190815260200160002060008373ffffffffffffffffffffffffffffffffffffffff1673ffffffffffffffffffffffffffffffffffffffff16815260200190815260200160002054905092915050565b600a5481565b7f000000000000000000000000000000000000000000000000000000000000000081565b600381565b6000611c707fc10c77be35aff266144ed64c26a1fa104bae2f284ae99ac4a34203454704a18583611056565b9050919050565b60007f01ffc9a7000000000000000000000000000000000000000000000000000000007bffffffffffffffffffffffffffffffffffffffffffffffffffffffff1916827bffffffffffffffffffffffffffffffffffffffffffffffffffffffff1916149050919050565b600033905090565b611cf683838360016124f4565b505050565b6000611d078484611b8e565b90507fffffffffffffffffffffffffffffffffffffffffffffffffffffffffffffffff811015611d8a5781811015611d7a578281836040517ffb8f41b2000000000000000000000000000000000000000000000000000000008152600401611d719392919061371f565b60405180910390fd5b611d89848484840360006124f4565b5b50505050565b600073ffffffffffffffffffffffffffffffffffffffff168373ffffffffffffffffffffffffffffffffffffffff1603611e025760006040517f96c6fd1e000000000000000000000000000000000000000000000000000000008152600401611df99190612c1a565b60405180910390fd5b600073ffffffffffffffffffffffffffffffffffffffff168273ffffffffffffffffffffffffffffffffffffffff1603611e745760006040517fec442f05000000000000000000000000000000000000000000000000000000008152600401611e6b9190612c1a565b60405180910390fd5b611e7f8383836126cb565b505050565b600080600b5403611e985760009050611ef4565b600b546003600d60008573ffffffffffffffffffffffffffffffffffffffff1673ffffffffffffffffffffffffffffffffffffffff16815260200190815260200160002054611ee7919061304d565b611ef191906130be565b90505b919050565b6000808473ffffffffffffffffffffffffffffffffffffffff1663a9059cbb60e01b8585604051602401611f2e929190613756565b604051602081830303815290604052907bffffffffffffffffffffffffffffffffffffffffffffffffffffffff19166020820180517bffffffffffffffffffffffffffffffffffffffffffffffffffffffff8381831617835250505050604051611f9891906137b0565b6000604051808303816000865af19150503d8060008114611fd5576040519150601f19603f3d011682016040523d82523d6000602084013e611fda565b606091505b5091509150818015612008575060008151148061200757508080602001905181019061200691906137f3565b5b5b612047576040517f08c379a000000000000000000000000000000000000000000000000000000000815260040161203e9061386c565b60405180910390fd5b5050505050565b61205f8161205a611ce1565b6128f0565b50565b600061206e8383611056565b6121495760016005600085815260200190815260200160002060000160008473ffffffffffffffffffffffffffffffffffffffff1673ffffffffffffffffffffffffffffffffffffffff16815260200190815260200160002060006101000a81548160ff0219169083151502179055506120e6611ce1565b73ffffffffffffffffffffffffffffffffffffffff168273ffffffffffffffffffffffffffffffffffffffff16847f2f8788117e7eff1d82e926ec794901d17c78024a50270940304540a733656f0d60405160405180910390a46001905061214e565b600090505b92915050565b60006121608383611056565b1561223c5760006005600085815260200190815260200160002060000160008473ffffffffffffffffffffffffffffffffffffffff1673ffffffffffffffffffffffffffffffffffffffff16815260200190815260200160002060006101000a81548160ff0219169083151502179055506121d9611ce1565b73ffffffffffffffffffffffffffffffffffffffff168273ffffffffffffffffffffffffffffffffffffffff16847ff6391f5c32d9c69d2a47ea670b442974b53935d1edc7fd64eb21e047a839171b60405160405180910390a460019050612241565b600090505b92915050565b6000808573ffffffffffffffffffffffffffffffffffffffff166323b872dd60e01b86868660405160240161227e9392919061388c565b604051602081830303815290604052907bffffffffffffffffffffffffffffffffffffffffffffffffffffffff19166020820180517bffffffffffffffffffffffffffffffffffffffffffffffffffffffff83818316178352505050506040516122e891906137b0565b6000604051808303816000865af19150503d8060008114612325576040519150601f19603f3d011682016040523d82523d6000602084013e61232a565b606091505b5091509150818015612358575060008151148061235757508080602001905181019061235691906137f3565b5b5b612397576040517f08c379a000000000000000000000000000000000000000000000000000000000815260040161238e9061390f565b60405180910390fd5b505050505050565b6000808473ffffffffffffffffffffffffffffffffffffffff1663095ea7b360e01b85856040516024016123d4929190613756565b604051602081830303815290604052907bffffffffffffffffffffffffffffffffffffffffffffffffffffffff19166020820180517bffffffffffffffffffffffffffffffffffffffffffffffffffffffff838183161783525050505060405161243e91906137b0565b6000604051808303816000865af19150503d806000811461247b576040519150601f19603f3d011682016040523d82523d6000602084013e612480565b606091505b50915091508180156124ae57506000815114806124ad5750808060200190518101906124ac91906137f3565b5b5b6124ed576040517f08c379a00000000000000000000000000000000000000000000000000000000081526004016124e49061397b565b60405180910390fd5b5050505050565b600073ffffffffffffffffffffffffffffffffffffffff168473ffffffffffffffffffffffffffffffffffffffff16036125665760006040517fe602df0500000000000000000000000000000000000000000000000000000000815260040161255d9190612c1a565b60405180910390fd5b600073ffffffffffffffffffffffffffffffffffffffff168373ffffffffffffffffffffffffffffffffffffffff16036125d85760006040517f94280d620000000000000000000000000000000000000000000000000000000081526004016125cf9190612c1a565b60405180910390fd5b81600160008673ffffffffffffffffffffffffffffffffffffffff1673ffffffffffffffffffffffffffffffffffffffff16815260200190815260200160002060008573ffffffffffffffffffffffffffffffffffffffff1673ffffffffffffffffffffffffffffffffffffffff1681526020019081526020016000208190555080156126c5578273ffffffffffffffffffffffffffffffffffffffff168473ffffffffffffffffffffffffffffffffffffffff167f8c5be1e5ebec7d5bd14f71427d1e84f3dd0314c0f7b2291e5b200ac8c7c3b925846040516126bc9190612bc3565b60405180910390a35b50505050565b600073ffffffffffffffffffffffffffffffffffffffff168373ffffffffffffffffffffffffffffffffffffffff160361271d578060026000828254612711919061318f565b925050819055506127f0565b60008060008573ffffffffffffffffffffffffffffffffffffffff1673ffffffffffffffffffffffffffffffffffffffff168152602001908152602001600020549050818110156127a9578381836040517fe450d38c0000000000000000000000000000000000000000000000000000000081526004016127a09392919061371f565b60405180910390fd5b8181036000808673ffffffffffffffffffffffffffffffffffffffff1673ffffffffffffffffffffffffffffffffffffffff16815260200190815260200160002081905550505b600073ffffffffffffffffffffffffffffffffffffffff168273ffffffffffffffffffffffffffffffffffffffff16036128395780600260008282540392505081905550612886565b806000808473ffffffffffffffffffffffffffffffffffffffff1673ffffffffffffffffffffffffffffffffffffffff168152602001908152602001600020600082825401925050819055505b8173ffffffffffffffffffffffffffffffffffffffff168373ffffffffffffffffffffffffffffffffffffffff167fddf252ad1be2c89b69c2b068fc378daa952ba7f163c4a11628f55a4df523b3ef836040516128e39190612bc3565b60405180910390a3505050565b6128fa8282611056565b61293d5780826040517fe2517d3f00000000000000000000000000000000000000000000000000000000815260040161293492919061399b565b60405180910390fd5b5050565b600080fd5b60007fffffffff0000000000000000000000000000000000000000000000000000000082169050919050565b61297b81612946565b811461298657600080fd5b50565b60008135905061299881612972565b92915050565b6000602082840312156129b4576129b3612941565b5b60006129c284828501612989565b91505092915050565b60008115159050919050565b6129e0816129cb565b82525050565b60006020820190506129fb60008301846129d7565b92915050565b600081519050919050565b600082825260208201905092915050565b60005b83811015612a3b578082015181840152602081019050612a20565b60008484015250505050565b6000601f19601f8301169050919050565b6000612a6382612a01565b612a6d8185612a0c565b9350612a7d818560208601612a1d565b612a8681612a47565b840191505092915050565b60006020820190508181036000830152612aab8184612a58565b905092915050565b600073ffffffffffffffffffffffffffffffffffffffff82169050919050565b6000612ade82612ab3565b9050919050565b612aee81612ad3565b8114612af957600080fd5b50565b600081359050612b0b81612ae5565b92915050565b6000819050919050565b612b2481612b11565b8114612b2f57600080fd5b50565b600081359050612b4181612b1b565b92915050565b60008060408385031215612b5e57612b5d612941565b5b6000612b6c85828601612afc565b9250506020612b7d85828601612b32565b9150509250929050565b600060208284031215612b9d57612b9c612941565b5b6000612bab84828501612afc565b91505092915050565b612bbd81612b11565b82525050565b6000602082019050612bd86000830184612bb4565b92915050565b600060208284031215612bf457612bf3612941565b5b6000612c0284828501612b32565b91505092915050565b612c1481612ad3565b82525050565b6000602082019050612c2f6000830184612c0b565b92915050565b600080600060608486031215612c4e57612c4d612941565b5b6000612c5c86828701612afc565b9350506020612c6d86828701612afc565b9250506040612c7e86828701612b32565b9150509250925092565b6000819050919050565b612c9b81612c88565b8114612ca657600080fd5b50565b600081359050612cb881612c92565b92915050565b600060208284031215612cd457612cd3612941565b5b6000612ce284828501612ca9565b91505092915050565b612cf481612c88565b82525050565b6000602082019050612d0f6000830184612ceb565b92915050565b60008060408385031215612d2c57612d2b612941565b5b6000612d3a85828601612ca9565b9250506020612d4b85828601612afc565b9150509250929050565b600060ff82169050919050565b612d6b81612d55565b82525050565b6000602082019050612d866000830184612d62565b92915050565b600081519050919050565b600082825260208201905092915050565b6000612db382612d8c565b612dbd8185612d97565b9350612dcd818560208601612a1d565b612dd681612a47565b840191505092915050565b600060c082019050612df66000830189612bb4565b612e036020830188612c0b565b612e106040830187612c0b565b8181036060830152612e228186612da8565b9050612e316080830185612bb4565b612e3e60a08301846129d7565b979650505050505050565b6000819050919050565b6000612e6e612e69612e6484612ab3565b612e49565b612ab3565b9050919050565b6000612e8082612e53565b9050919050565b6000612e9282612e75565b9050919050565b612ea281612e87565b82525050565b6000602082019050612ebd6000830184612e99565b92915050565b6000612ece82612e75565b9050919050565b612ede81612ec3565b82525050565b6000602082019050612ef96000830184612ed5565b92915050565b612f0881612ab3565b8114612f1357600080fd5b50565b600081359050612f2581612eff565b92915050565b600080600060608486031215612f4457612f43612941565b5b6000612f5286828701612b32565b9350506020612f6386828701612b32565b9250506040612f7486828701612f16565b9150509250925092565b60008060408385031215612f9557612f94612941565b5b6000612fa385828601612afc565b9250506020612fb485828601612afc565b9150509250929050565b7f4e487b7100000000000000000000000000000000000000000000000000000000600052602260045260246000fd5b6000600282049050600182168061300557607f821691505b60208210810361301857613017612fbe565b5b50919050565b7f4e487b7100000000000000000000000000000000000000000000000000000000600052601160045260246000fd5b600061305882612b11565b915061306383612b11565b925082820261307181612b11565b915082820484148315176130885761308761301e565b5b5092915050565b7f4e487b7100000000000000000000000000000000000000000000000000000000600052601260045260246000fd5b60006130c982612b11565b91506130d483612b11565b9250826130e4576130e361308f565b5b828204905092915050565b7f496e76616c696420756e7374616b6520616d6f756e7400000000000000000000600082015250565b6000613125601683612a0c565b9150613130826130ef565b602082019050919050565b6000602082019050818103600083015261315481613118565b9050919050565b600061316682612b11565b915061317183612b11565b92508282039050818111156131895761318861301e565b5b92915050565b600061319a82612b11565b91506131a583612b11565b92508282019050808211156131bd576131bc61301e565b5b92915050565b7f416c726561647920696e20726576696577657220706f6f6c0000000000000000600082015250565b60006131f9601883612a0c565b9150613204826131c3565b602082019050919050565b60006020820190508181036000830152613228816131ec565b9050919050565b7f496e76616c6964207374616b6520616d6f756e74000000000000000000000000600082015250565b6000613265601483612a0c565b91506132708261322f565b602082019050919050565b6000602082019050818103600083015261329481613258565b9050919050565b7f50726f706f73616c20616c726561647920657865637574656400000000000000600082015250565b60006132d1601983612a0c565b91506132dc8261329b565b602082019050919050565b60006020820190508181036000830152613300816132c4565b9050919050565b7f416c726561647920617070726f76656400000000000000000000000000000000600082015250565b600061333d601083612a0c565b915061334882613307565b602082019050919050565b6000602082019050818103600083015261336c81613330565b9050919050565b600061337e82612b11565b91507fffffffffffffffffffffffffffffffffffffffffffffffffffffffffffffffff82036133b0576133af61301e565b5b600182019050919050565b600081905092915050565b60008190508160005260206000209050919050565b600081546133e881612fed565b6133f281866133bb565b9450600182166000811461340d576001811461342257613455565b60ff1983168652811515820286019350613455565b61342b856133c6565b60005b8381101561344d5781548189015260018201915060208101905061342e565b838801955050505b50505092915050565b600061346a82846133db565b915081905092915050565b7f50726f706f73616c20657865637574696f6e206661696c656400000000000000600082015250565b60006134ab601983612a0c565b91506134b682613475565b602082019050919050565b600060208201905081810360008301526134da8161349e565b9050919050565b7f4e6f7420696e20726576696577657220706f6f6c000000000000000000000000600082015250565b6000613517601483612a0c565b9150613522826134e1565b602082019050919050565b600060208201905081810360008301526135468161350a565b9050919050565b7f4e487b7100000000000000000000000000000000000000000000000000000000600052603260045260246000fd5b7f4e487b7100000000000000000000000000000000000000000000000000000000600052603160045260246000fd5b6135b481612ad3565b82525050565b600062ffffff82169050919050565b6135d2816135ba565b82525050565b6135e181612b11565b82525050565b6135f081612ab3565b82525050565b6101008201600082015161360d60008501826135ab565b50602082015161362060208501826135ab565b50604082015161363360408501826135c9565b50606082015161364660608501826135ab565b50608082015161365960808501826135d8565b5060a082015161366c60a08501826135d8565b5060c082015161367f60c08501826135d8565b5060e082015161369260e08501826135e7565b50505050565b6000610100820190506136ae60008301846135f6565b92915050565b6000815190506136c381612b1b565b92915050565b6000602082840312156136df576136de612941565b5b60006136ed848285016136b4565b91505092915050565b600060408201905061370b6000830185612bb4565b6137186020830184612bb4565b9392505050565b60006060820190506137346000830186612c0b565b6137416020830185612bb4565b61374e6040830184612bb4565b949350505050565b600060408201905061376b6000830185612c0b565b6137786020830184612bb4565b9392505050565b600061378a82612d8c565b61379481856133bb565b93506137a4818560208601612a1d565b80840191505092915050565b60006137bc828461377f565b915081905092915050565b6137d0816129cb565b81146137db57600080fd5b50565b6000815190506137ed816137c7565b92915050565b60006020828403121561380957613808612941565b5b6000613817848285016137de565b91505092915050565b7f5354000000000000000000000000000000000000000000000000000000000000600082015250565b6000613856600283612a0c565b915061386182613820565b602082019050919050565b6000602082019050818103600083015261388581613849565b9050919050565b60006060820190506138a16000830186612c0b565b6138ae6020830185612c0b565b6138bb6040830184612bb4565b949350505050565b7f5354460000000000000000000000000000000000000000000000000000000000600082015250565b60006138f9600383612a0c565b9150613904826138c3565b602082019050919050565b60006020820190508181036000830152613928816138ec565b9050919050565b7f5341000000000000000000000000000000000000000000000000000000000000600082015250565b6000613965600283612a0c565b91506139708261392f565b602082019050919050565b6000602082019050818103600083015261399481613958565b9050919050565b60006040820190506139b06000830185612c0b565b6139bd6020830184612ceb565b939250505056fea26469706673582212204fe71bf45de5985b85377822a4a607a14c09e1632e3f1fda97afb5953c8276a764736f6c634300081b0033",
  "linkReferences": {},
  "deployedLinkReferences": {}
}