{
  "_format": "hh-sol-artifact-1",
  "contractName": "LiquidityContract",
  "sourceName": "contracts/LiquidityContract.sol",
  "abi": [
    {
      "inputs": [
        {
          "internalType": "address[]",
          "name": "_reviewers",
          "type": "address[]"
        }
      ],
      "stateMutability": "nonpayable",
      "type": "constructor"
    },
    {
      "inputs": [],
      "name": "AccessControlBadConfirmation",
      "type": "error"
    },
    {
      "inputs": [
        {
          "internalType": "address",
          "name": "account",
          "type": "address"
        },
        {
          "internalType": "bytes32",
          "name": "neededRole",
          "type": "bytes32"
        }
      ],
      "name": "AccessControlUnauthorizedAccount",
      "type": "error"
    },
    {
      "inputs": [
        {
          "internalType": "address",
          "name": "spender",
          "type": "address"
        },
        {
          "internalType": "uint256",
          "name": "allowance",
          "type": "uint256"
        },
        {
          "internalType": "uint256",
          "name": "needed",
          "type": "uint256"
        }
      ],
      "name": "ERC20InsufficientAllowance",
      "type": "error"
    },
    {
      "inputs": [
        {
          "internalType": "address",
          "name": "sender",
          "type": "address"
        },
        {
          "internalType": "uint256",
          "name": "balance",
          "type": "uint256"
        },
        {
          "internalType": "uint256",
          "name": "needed",
          "type": "uint256"
        }
      ],
      "name": "ERC20InsufficientBalance",
      "type": "error"
    },
    {
      "inputs": [
        {
          "internalType": "address",
          "name": "approver",
          "type": "address"
        }
      ],
      "name": "ERC20InvalidApprover",
      "type": "error"
    },
    {
      "inputs": [
        {
          "internalType": "address",
          "name": "receiver",
          "type": "address"
        }
      ],
      "name": "ERC20InvalidReceiver",
      "type": "error"
    },
    {
      "inputs": [
        {
          "internalType": "address",
          "name": "sender",
          "type": "address"
        }
      ],
      "name": "ERC20InvalidSender",
      "type": "error"
    },
    {
      "inputs": [
        {
          "internalType": "address",
          "name": "spender",
          "type": "address"
        }
      ],
      "name": "ERC20InvalidSpender",
      "type": "error"
    },
    {
      "anonymous": false,
      "inputs": [
        {
          "indexed": true,
          "internalType": "address",
          "name": "owner",
          "type": "address"
        },
        {
          "indexed": true,
          "internalType": "address",
          "name": "spender",
          "type": "address"
        },
        {
          "indexed": false,
          "internalType": "uint256",
          "name": "value",
          "type": "uint256"
        }
      ],
      "name": "Approval",
      "type": "event"
    },
    {
      "anonymous": false,
      "inputs": [
        {
          "indexed": true,
          "internalType": "address",
          "name": "_account",
          "type": "address"
        },
        {
          "indexed": false,
          "internalType": "uint256",
          "name": "_amount",
          "type": "uint256"
        }
      ],
      "name": "BurnSuccess",
      "type": "event"
    },
    {
      "anonymous": false,
      "inputs": [
        {
          "indexed": false,
          "internalType": "uint256",
          "name": "nativeTokenAmount",
          "type": "uint256"
        },
        {
          "indexed": false,
          "internalType": "uint256",
          "name": "stableCoinAmount",
          "type": "uint256"
        }
      ],
      "name": "LiquidityAdded",
      "type": "event"
    },
    {
      "anonymous": false,
      "inputs": [
        {
          "indexed": true,
          "internalType": "address",
          "name": "_to",
          "type": "address"
        },
        {
          "indexed": true,
          "internalType": "uint256",
          "name": "_amount",
          "type": "uint256"
        }
      ],
      "name": "MintSuccess",
      "type": "event"
    },
    {
      "anonymous": false,
      "inputs": [
        {
          "indexed": true,
          "internalType": "address",
          "name": "reviewer",
          "type": "address"
        }
      ],
      "name": "ReviewerAddedToPool",
      "type": "event"
    },
    {
      "anonymous": false,
      "inputs": [
        {
          "indexed": true,
          "internalType": "address",
          "name": "reviewer",
          "type": "address"
        }
      ],
      "name": "ReviewerRemovedFromPool",
      "type": "event"
    },
    {
      "anonymous": false,
      "inputs": [
        {
          "indexed": true,
          "internalType": "address",
          "name": "user",
          "type": "address"
        },
        {
          "indexed": false,
          "internalType": "uint256",
          "name": "amount",
          "type": "uint256"
        }
      ],
      "name": "RewardsClaimed",
      "type": "event"
    },
    {
      "anonymous": false,
      "inputs": [
        {
          "indexed": true,
          "internalType": "bytes32",
          "name": "role",
          "type": "bytes32"
        },
        {
          "indexed": true,
          "internalType": "bytes32",
          "name": "previousAdminRole",
          "type": "bytes32"
        },
        {
          "indexed": true,
          "internalType": "bytes32",
          "name": "newAdminRole",
          "type": "bytes32"
        }
      ],
      "name": "RoleAdminChanged",
      "type": "event"
    },
    {
      "anonymous": false,
      "inputs": [
        {
          "indexed": true,
          "internalType": "bytes32",
          "name": "role",
          "type": "bytes32"
        },
        {
          "indexed": true,
          "internalType": "address",
          "name": "account",
          "type": "address"
        },
        {
          "indexed": true,
          "internalType": "address",
          "name": "sender",
          "type": "address"
        }
      ],
      "name": "RoleGranted",
      "type": "event"
    },
    {
      "anonymous": false,
      "inputs": [
        {
          "indexed": true,
          "internalType": "bytes32",
          "name": "role",
          "type": "bytes32"
        },
        {
          "indexed": true,
          "internalType": "address",
          "name": "account",
          "type": "address"
        },
        {
          "indexed": true,
          "internalType": "address",
          "name": "sender",
          "type": "address"
        }
      ],
      "name": "RoleRevoked",
      "type": "event"
    },
    {
      "anonymous": false,
      "inputs": [
        {
          "indexed": true,
          "internalType": "address",
          "name": "user",
          "type": "address"
        },
        {
          "indexed": false,
          "internalType": "uint256",
          "name": "amount",
          "type": "uint256"
        }
      ],
      "name": "StakeDeposited",
      "type": "event"
    },
    {
      "anonymous": false,
      "inputs": [
        {
          "indexed": true,
          "internalType": "address",
          "name": "user",
          "type": "address"
        },
        {
          "indexed": false,
          "internalType": "uint256",
          "name": "amount",
          "type": "uint256"
        }
      ],
      "name": "StakeWithdrawn",
      "type": "event"
    },
    {
      "anonymous": false,
      "inputs": [
        {
          "indexed": true,
          "internalType": "address",
          "name": "from",
          "type": "address"
        },
        {
          "indexed": true,
          "internalType": "address",
          "name": "to",
          "type": "address"
        },
        {
          "indexed": false,
          "internalType": "uint256",
          "name": "value",
          "type": "uint256"
        }
      ],
      "name": "Transfer",
      "type": "event"
    },
    {
      "inputs": [],
      "name": "DEFAULT_ADMIN_ROLE",
      "outputs": [
        {
          "internalType": "bytes32",
          "name": "",
          "type": "bytes32"
        }
      ],
      "stateMutability": "view",
      "type": "function"
    },
    {
      "inputs": [],
      "name": "LIQUIDITY_MANAGER",
      "outputs": [
        {
          "internalType": "bytes32",
          "name": "",
          "type": "bytes32"
        }
      ],
      "stateMutability": "view",
      "type": "function"
    },
    {
      "inputs": [],
      "name": "LIQUIDITY_POOL",
      "outputs": [
        {
          "internalType": "uint256",
          "name": "",
          "type": "uint256"
        }
      ],
      "stateMutability": "view",
      "type": "function"
    },
    {
      "inputs": [],
      "name": "MAX_SUPPLY",
      "outputs": [
        {
          "internalType": "uint256",
          "name": "",
          "type": "uint256"
        }
      ],
      "stateMutability": "view",
      "type": "function"
    },
    {
      "inputs": [],
      "name": "PROTOCOL_FEE_PERCENTAGE",
      "outputs": [
        {
          "internalType": "uint256",
          "name": "",
          "type": "uint256"
        }
      ],
      "stateMutability": "view",
      "type": "function"
    },
    {
      "inputs": [],
      "name": "REVIEWER_ROLE",
      "outputs": [
        {
          "internalType": "bytes32",
          "name": "",
          "type": "bytes32"
        }
      ],
      "stateMutability": "view",
      "type": "function"
    },
    {
      "inputs": [
        {
          "internalType": "address",
          "name": "",
          "type": "address"
        }
      ],
      "name": "accumulatedRewards",
      "outputs": [
        {
          "internalType": "uint256",
          "name": "",
          "type": "uint256"
        }
      ],
      "stateMutability": "view",
      "type": "function"
    },
    {
      "inputs": [
        {
          "internalType": "uint256",
          "name": "nativeTokenAmount",
          "type": "uint256"
        },
        {
          "internalType": "uint256",
          "name": "stableCoinAmount",
          "type": "uint256"
        },
        {
          "internalType": "uint160",
          "name": "sqrtPriceLimitX96",
          "type": "uint160"
        }
      ],
      "name": "addLiquidity",
      "outputs": [],
      "stateMutability": "nonpayable",
      "type": "function"
    },
    {
      "inputs": [
        {
          "internalType": "address",
          "name": "newReviewer",
          "type": "address"
        }
      ],
      "name": "addReviewer",
      "outputs": [],
      "stateMutability": "nonpayable",
      "type": "function"
    },
    {
      "inputs": [
        {
          "internalType": "address",
          "name": "owner",
          "type": "address"
        },
        {
          "internalType": "address",
          "name": "spender",
          "type": "address"
        }
      ],
      "name": "allowance",
      "outputs": [
        {
          "internalType": "uint256",
          "name": "",
          "type": "uint256"
        }
      ],
      "stateMutability": "view",
      "type": "function"
    },
    {
      "inputs": [
        {
          "internalType": "address",
          "name": "spender",
          "type": "address"
        },
        {
          "internalType": "uint256",
          "name": "value",
          "type": "uint256"
        }
      ],
      "name": "approve",
      "outputs": [
        {
          "internalType": "bool",
          "name": "",
          "type": "bool"
        }
      ],
      "stateMutability": "nonpayable",
      "type": "function"
    },
    {
      "inputs": [
        {
          "internalType": "address",
          "name": "account",
          "type": "address"
        }
      ],
      "name": "balanceOf",
      "outputs": [
        {
          "internalType": "uint256",
          "name": "",
          "type": "uint256"
        }
      ],
      "stateMutability": "view",
      "type": "function"
    },
    {
      "inputs": [],
      "name": "decimals",
      "outputs": [
        {
          "internalType": "uint8",
          "name": "",
          "type": "uint8"
        }
      ],
      "stateMutability": "view",
      "type": "function"
    },
    {
      "inputs": [
        {
          "internalType": "bytes32",
          "name": "role",
          "type": "bytes32"
        }
      ],
      "name": "getRoleAdmin",
      "outputs": [
        {
          "internalType": "bytes32",
          "name": "",
          "type": "bytes32"
        }
      ],
      "stateMutability": "view",
      "type": "function"
    },
    {
      "inputs": [
        {
          "internalType": "bytes32",
          "name": "role",
          "type": "bytes32"
        },
        {
          "internalType": "address",
          "name": "account",
          "type": "address"
        }
      ],
      "name": "grantRole",
      "outputs": [],
      "stateMutability": "nonpayable",
      "type": "function"
    },
    {
      "inputs": [
        {
          "internalType": "bytes32",
          "name": "role",
          "type": "bytes32"
        },
        {
          "internalType": "address",
          "name": "account",
          "type": "address"
        }
      ],
      "name": "hasRole",
      "outputs": [
        {
          "internalType": "bool",
          "name": "",
          "type": "bool"
        }
      ],
      "stateMutability": "view",
      "type": "function"
    },
    {
      "inputs": [
        {
          "internalType": "address",
          "name": "",
          "type": "address"
        }
      ],
      "name": "isInReviewerPool",
      "outputs": [
        {
          "internalType": "bool",
          "name": "",
          "type": "bool"
        }
      ],
      "stateMutability": "view",
      "type": "function"
    },
    {
      "inputs": [
        {
          "internalType": "address",
          "name": "account",
          "type": "address"
        }
      ],
      "name": "isReviewer",
      "outputs": [
        {
          "internalType": "bool",
          "name": "",
          "type": "bool"
        }
      ],
      "stateMutability": "view",
      "type": "function"
    },
    {
      "inputs": [],
      "name": "name",
      "outputs": [
        {
          "internalType": "string",
          "name": "",
          "type": "string"
        }
      ],
      "stateMutability": "view",
      "type": "function"
    },
    {
      "inputs": [],
      "name": "nativeToken",
      "outputs": [
        {
          "internalType": "contract IERC20",
          "name": "",
          "type": "address"
        }
      ],
      "stateMutability": "view",
      "type": "function"
    },
    {
      "inputs": [
        {
          "internalType": "address",
          "name": "reviewer",
          "type": "address"
        }
      ],
      "name": "removeReviewer",
      "outputs": [],
      "stateMutability": "nonpayable",
      "type": "function"
    },
    {
      "inputs": [
        {
          "internalType": "bytes32",
          "name": "role",
          "type": "bytes32"
        },
        {
          "internalType": "address",
          "name": "callerConfirmation",
          "type": "address"
        }
      ],
      "name": "renounceRole",
      "outputs": [],
      "stateMutability": "nonpayable",
      "type": "function"
    },
    {
      "inputs": [
        {
          "internalType": "uint256",
          "name": "",
          "type": "uint256"
        }
      ],
      "name": "reviewerPool",
      "outputs": [
        {
          "internalType": "address",
          "name": "",
          "type": "address"
        }
      ],
      "stateMutability": "view",
      "type": "function"
    },
    {
      "inputs": [
        {
          "internalType": "bytes32",
          "name": "role",
          "type": "bytes32"
        },
        {
          "internalType": "address",
          "name": "account",
          "type": "address"
        }
      ],
      "name": "revokeRole",
      "outputs": [],
      "stateMutability": "nonpayable",
      "type": "function"
    },
    {
      "inputs": [],
      "name": "rewardRate",
      "outputs": [
        {
          "internalType": "uint256",
          "name": "",
          "type": "uint256"
        }
      ],
      "stateMutability": "view",
      "type": "function"
    },
    {
      "inputs": [],
      "name": "stableCoin",
      "outputs": [
        {
          "internalType": "contract IERC20",
          "name": "",
          "type": "address"
        }
      ],
      "stateMutability": "view",
      "type": "function"
    },
    {
      "inputs": [
        {
          "internalType": "uint256",
          "name": "amount",
          "type": "uint256"
        }
      ],
      "name": "stake",
      "outputs": [],
      "stateMutability": "nonpayable",
      "type": "function"
    },
    {
      "inputs": [
        {
          "internalType": "address",
          "name": "",
          "type": "address"
        }
      ],
      "name": "stakedBalances",
      "outputs": [
        {
          "internalType": "uint256",
          "name": "",
          "type": "uint256"
        }
      ],
      "stateMutability": "view",
      "type": "function"
    },
    {
      "inputs": [
        {
          "internalType": "bytes4",
          "name": "interfaceId",
          "type": "bytes4"
        }
      ],
      "name": "supportsInterface",
      "outputs": [
        {
          "internalType": "bool",
          "name": "",
          "type": "bool"
        }
      ],
      "stateMutability": "view",
      "type": "function"
    },
    {
      "inputs": [],
      "name": "swapRouter",
      "outputs": [
        {
          "internalType": "contract ISwapRouter",
          "name": "",
          "type": "address"
        }
      ],
      "stateMutability": "view",
      "type": "function"
    },
    {
      "inputs": [],
      "name": "symbol",
      "outputs": [
        {
          "internalType": "string",
          "name": "",
          "type": "string"
        }
      ],
      "stateMutability": "view",
      "type": "function"
    },
    {
      "inputs": [],
      "name": "totalLiquidityProvided",
      "outputs": [
        {
          "internalType": "uint256",
          "name": "",
          "type": "uint256"
        }
      ],
      "stateMutability": "view",
      "type": "function"
    },
    {
      "inputs": [],
      "name": "totalStaked",
      "outputs": [
        {
          "internalType": "uint256",
          "name": "",
          "type": "uint256"
        }
      ],
      "stateMutability": "view",
      "type": "function"
    },
    {
      "inputs": [],
      "name": "totalSupply",
      "outputs": [
        {
          "internalType": "uint256",
          "name": "",
          "type": "uint256"
        }
      ],
      "stateMutability": "view",
      "type": "function"
    },
    {
      "inputs": [
        {
          "internalType": "address",
          "name": "to",
          "type": "address"
        },
        {
          "internalType": "uint256",
          "name": "value",
          "type": "uint256"
        }
      ],
      "name": "transfer",
      "outputs": [
        {
          "internalType": "bool",
          "name": "",
          "type": "bool"
        }
      ],
      "stateMutability": "nonpayable",
      "type": "function"
    },
    {
      "inputs": [
        {
          "internalType": "address",
          "name": "from",
          "type": "address"
        },
        {
          "internalType": "address",
          "name": "to",
          "type": "address"
        },
        {
          "internalType": "uint256",
          "name": "value",
          "type": "uint256"
        }
      ],
      "name": "transferFrom",
      "outputs": [
        {
          "internalType": "bool",
          "name": "",
          "type": "bool"
        }
      ],
      "stateMutability": "nonpayable",
      "type": "function"
    },
    {
      "inputs": [
        {
          "internalType": "uint256",
          "name": "amount",
          "type": "uint256"
        }
      ],
      "name": "unstake",
      "outputs": [],
      "stateMutability": "nonpayable",
      "type": "function"
    }
  ],
  "bytecode": "0x60c060405234801561001057600080fd5b506040516142cd3803806142cd83398181016040528101906100329190610a25565b806040518060400160405280600a81526020017f4142594120544f4b454e000000000000000000000000000000000000000000008152506040518060400160405280600681526020017f414259544b4e000000000000000000000000000000000000000000000000000081525081600390816100ae9190610c8f565b5080600490816100be9190610c8f565b505050600481511015610106576040517f08c379a00000000000000000000000000000000000000000000000000000000081526004016100fd90610de4565b60405180910390fd5b6101196000801b3361036b60201b60201c565b5060005b815181101561026d576101707fc10c77be35aff266144ed64c26a1fa104bae2f284ae99ac4a34203454704a18583838151811061015d5761015c610e04565b5b602002602001015161036b60201b60201c565b50600682828151811061018657610185610e04565b5b60200260200101519080600181540180825580915050600190039060005260206000200160009091909190916101000a81548173ffffffffffffffffffffffffffffffffffffffff021916908373ffffffffffffffffffffffffffffffffffffffff16021790555060016007600084848151811061020757610206610e04565b5b602002602001015173ffffffffffffffffffffffffffffffffffffffff1673ffffffffffffffffffffffffffffffffffffffff16815260200190815260200160002060006101000a81548160ff021916908315150217905550808060010191505061011d565b505073e592427a0aece92de3edee1f18e0157c0586156473ffffffffffffffffffffffffffffffffffffffff1660808173ffffffffffffffffffffffffffffffffffffffff16815250503073ffffffffffffffffffffffffffffffffffffffff1660a08173ffffffffffffffffffffffffffffffffffffffff16815250506102fe6000801b3361036b60201b60201c565b5061032f7f0cec6da01a27fe07ab86bff79c774dbe9a125d8ca3c22761c68442756bf154853361036b60201b60201c565b50610364306064600a6b204fce5e3e2502611000000061034f9190610e62565b6103599190610ed3565b61046960201b60201c565b505061102f565b600061037d838361053060201b60201c565b61045e5760016005600085815260200190815260200160002060000160008473ffffffffffffffffffffffffffffffffffffffff1673ffffffffffffffffffffffffffffffffffffffff16815260200190815260200160002060006101000a81548160ff0219169083151502179055506103fb61059b60201b60201c565b73ffffffffffffffffffffffffffffffffffffffff168273ffffffffffffffffffffffffffffffffffffffff16847f2f8788117e7eff1d82e926ec794901d17c78024a50270940304540a733656f0d60405160405180910390a460019050610463565b600090505b92915050565b60006b204fce5e3e250261100000006104866105a360201b60201c565b836104919190610f04565b11156104d2576040517f08c379a00000000000000000000000000000000000000000000000000000000081526004016104c990610f84565b60405180910390fd5b6104e283836105ad60201b60201c565b818373ffffffffffffffffffffffffffffffffffffffff167fcda531bfd68624f13205c0a23cd4d5a7f09792cbb399603114f2b04aaa1bf5cf60405160405180910390a36001905092915050565b60006005600084815260200190815260200160002060000160008373ffffffffffffffffffffffffffffffffffffffff1673ffffffffffffffffffffffffffffffffffffffff16815260200190815260200160002060009054906101000a900460ff16905092915050565b600033905090565b6000600254905090565b600073ffffffffffffffffffffffffffffffffffffffff168273ffffffffffffffffffffffffffffffffffffffff160361061f5760006040517fec442f050000000000000000000000000000000000000000000000000000000081526004016106169190610fb3565b60405180910390fd5b6106316000838361063560201b60201c565b5050565b600073ffffffffffffffffffffffffffffffffffffffff168373ffffffffffffffffffffffffffffffffffffffff160361068757806002600082825461067b9190610f04565b9250508190555061075a565b60008060008573ffffffffffffffffffffffffffffffffffffffff1673ffffffffffffffffffffffffffffffffffffffff16815260200190815260200160002054905081811015610713578381836040517fe450d38c00000000000000000000000000000000000000000000000000000000815260040161070a93929190610fdd565b60405180910390fd5b8181036000808673ffffffffffffffffffffffffffffffffffffffff1673ffffffffffffffffffffffffffffffffffffffff16815260200190815260200160002081905550505b600073ffffffffffffffffffffffffffffffffffffffff168273ffffffffffffffffffffffffffffffffffffffff16036107a357806002600082825403925050819055506107f0565b806000808473ffffffffffffffffffffffffffffffffffffffff1673ffffffffffffffffffffffffffffffffffffffff168152602001908152602001600020600082825401925050819055505b8173ffffffffffffffffffffffffffffffffffffffff168373ffffffffffffffffffffffffffffffffffffffff167fddf252ad1be2c89b69c2b068fc378daa952ba7f163c4a11628f55a4df523b3ef8360405161084d9190611014565b60405180910390a3505050565b6000604051905090565b600080fd5b600080fd5b600080fd5b6000601f19601f8301169050919050565b7f4e487b7100000000000000000000000000000000000000000000000000000000600052604160045260246000fd5b6108bc82610873565b810181811067ffffffffffffffff821117156108db576108da610884565b5b80604052505050565b60006108ee61085a565b90506108fa82826108b3565b919050565b600067ffffffffffffffff82111561091a57610919610884565b5b602082029050602081019050919050565b600080fd5b600073ffffffffffffffffffffffffffffffffffffffff82169050919050565b600061095b82610930565b9050919050565b61096b81610950565b811461097657600080fd5b50565b60008151905061098881610962565b92915050565b60006109a161099c846108ff565b6108e4565b905080838252602082019050602084028301858111156109c4576109c361092b565b5b835b818110156109ed57806109d98882610979565b8452602084019350506020810190506109c6565b5050509392505050565b600082601f830112610a0c57610a0b61086e565b5b8151610a1c84826020860161098e565b91505092915050565b600060208284031215610a3b57610a3a610864565b5b600082015167ffffffffffffffff811115610a5957610a58610869565b5b610a65848285016109f7565b91505092915050565b600081519050919050565b7f4e487b7100000000000000000000000000000000000000000000000000000000600052602260045260246000fd5b60006002820490506001821680610ac057607f821691505b602082108103610ad357610ad2610a79565b5b50919050565b60008190508160005260206000209050919050565b60006020601f8301049050919050565b600082821b905092915050565b600060088302610b3b7fffffffffffffffffffffffffffffffffffffffffffffffffffffffffffffffff82610afe565b610b458683610afe565b95508019841693508086168417925050509392505050565b6000819050919050565b6000819050919050565b6000610b8c610b87610b8284610b5d565b610b67565b610b5d565b9050919050565b6000819050919050565b610ba683610b71565b610bba610bb282610b93565b848454610b0b565b825550505050565b600090565b610bcf610bc2565b610bda818484610b9d565b505050565b5b81811015610bfe57610bf3600082610bc7565b600181019050610be0565b5050565b601f821115610c4357610c1481610ad9565b610c1d84610aee565b81016020851015610c2c578190505b610c40610c3885610aee565b830182610bdf565b50505b505050565b600082821c905092915050565b6000610c6660001984600802610c48565b1980831691505092915050565b6000610c7f8383610c55565b9150826002028217905092915050565b610c9882610a6e565b67ffffffffffffffff811115610cb157610cb0610884565b5b610cbb8254610aa8565b610cc6828285610c02565b600060209050601f831160018114610cf95760008415610ce7578287015190505b610cf18582610c73565b865550610d59565b601f198416610d0786610ad9565b60005b82811015610d2f57848901518255600182019150602085019450602081019050610d0a565b86831015610d4c5784890151610d48601f891682610c55565b8355505b6001600288020188555050505b505050505050565b600082825260208201905092915050565b7f4174206c6561737420342072657669657765727320617265207265717569726560008201527f6400000000000000000000000000000000000000000000000000000000000000602082015250565b6000610dce602183610d61565b9150610dd982610d72565b604082019050919050565b60006020820190508181036000830152610dfd81610dc1565b9050919050565b7f4e487b7100000000000000000000000000000000000000000000000000000000600052603260045260246000fd5b7f4e487b7100000000000000000000000000000000000000000000000000000000600052601160045260246000fd5b6000610e6d82610b5d565b9150610e7883610b5d565b9250828202610e8681610b5d565b91508282048414831517610e9d57610e9c610e33565b5b5092915050565b7f4e487b7100000000000000000000000000000000000000000000000000000000600052601260045260246000fd5b6000610ede82610b5d565b9150610ee983610b5d565b925082610ef957610ef8610ea4565b5b828204905092915050565b6000610f0f82610b5d565b9150610f1a83610b5d565b9250828201905080821115610f3257610f31610e33565b5b92915050565b7f4c696d6974204578636565646564210000000000000000000000000000000000600082015250565b6000610f6e600f83610d61565b9150610f7982610f38565b602082019050919050565b60006020820190508181036000830152610f9d81610f61565b9050919050565b610fad81610950565b82525050565b6000602082019050610fc86000830184610fa4565b92915050565b610fd781610b5d565b82525050565b6000606082019050610ff26000830186610fa4565b610fff6020830185610fce565b61100c6040830184610fce565b949350505050565b60006020820190506110296000830184610fce565b92915050565b60805160a05161324861108560003960008181610a7201528181610ff50152818161145c015281816114f101526117590152600081816111010152818161147d015281816114bc01526115b401526132486000f3fe608060405234801561001057600080fd5b50600436106102275760003560e01c806373f273fc11610130578063c31c9c07116100b8578063dd62ed3e1161007c578063dd62ed3e146106a2578063dfed1348146106d2578063e1758bd8146106f0578063e4d7d6dc1461070e578063fdc6258a1461072c57610227565b8063c31c9c0714610600578063c491b04c1461061e578063c9442dac1461064e578063cd7711f41461066a578063d547741f1461068657610227565b806395d89b41116100ff57806395d89b411461055a578063992642e514610578578063a217fddf14610596578063a694fc3a146105b4578063a9059cbb146105d057610227565b806373f273fc146104be5780637b0a47ee146104ee578063817b1cd21461050c57806391d148541461052a57610227565b80632e17de78116101b357806332cb6b0c1161018257806332cb6b0c1461041a57806336568abe146104385780633b129a561461045457806370a082311461047257806373a82b5f146104a257610227565b80632e17de78146103a65780632f2ff15d146103c2578063313ce567146103de578063328ad467146103fc57610227565b806318160ddd116101fa57806318160ddd146102da57806319f102ec146102f857806323b872dd14610328578063248a9ca3146103585780632cca9dfd1461038857610227565b806301ffc9a71461022c57806306fdde031461025c578063095ea7b31461027a5780631460fa87146102aa575b600080fd5b610246600480360381019061024191906124d9565b61075c565b6040516102539190612521565b60405180910390f35b6102646107d6565b60405161027191906125cc565b60405180910390f35b610294600480360381019061028f9190612682565b610868565b6040516102a19190612521565b60405180910390f35b6102c460048036038101906102bf91906126c2565b61088b565b6040516102d191906126fe565b60405180910390f35b6102e26108a3565b6040516102ef91906126fe565b60405180910390f35b610312600480360381019061030d9190612719565b6108ad565b60405161031f9190612755565b60405180910390f35b610342600480360381019061033d9190612770565b6108ec565b60405161034f9190612521565b60405180910390f35b610372600480360381019061036d91906127f9565b61091b565b60405161037f9190612835565b60405180910390f35b61039061093b565b60405161039d91906126fe565b60405180910390f35b6103c060048036038101906103bb9190612719565b610963565b005b6103dc60048036038101906103d79190612850565b610b43565b005b6103e6610b65565b6040516103f391906128ac565b60405180910390f35b610404610b6e565b6040516104119190612835565b60405180910390f35b610422610b92565b60405161042f91906126fe565b60405180910390f35b610452600480360381019061044d9190612850565b610ba2565b005b61045c610c1d565b6040516104699190612835565b60405180910390f35b61048c600480360381019061048791906126c2565b610c41565b60405161049991906126fe565b60405180910390f35b6104bc60048036038101906104b791906126c2565b610c89565b005b6104d860048036038101906104d391906126c2565b610e6d565b6040516104e591906126fe565b60405180910390f35b6104f6610e85565b60405161050391906126fe565b60405180910390f35b610514610e8b565b60405161052191906126fe565b60405180910390f35b610544600480360381019061053f9190612850565b610e91565b6040516105519190612521565b60405180910390f35b610562610efc565b60405161056f91906125cc565b60405180910390f35b610580610f8e565b60405161058d9190612926565b60405180910390f35b61059e610fa6565b6040516105ab9190612835565b60405180910390f35b6105ce60048036038101906105c99190612719565b610fad565b005b6105ea60048036038101906105e59190612682565b6110dc565b6040516105f79190612521565b60405180910390f35b6106086110ff565b6040516106159190612962565b60405180910390f35b610638600480360381019061063391906126c2565b611123565b6040516106459190612521565b60405180910390f35b610668600480360381019061066391906126c2565b611143565b005b610684600480360381019061067f91906129a9565b61142d565b005b6106a0600480360381019061069b9190612850565b6116a8565b005b6106bc60048036038101906106b791906129fc565b6116ca565b6040516106c991906126fe565b60405180910390f35b6106da611751565b6040516106e791906126fe565b60405180910390f35b6106f8611757565b6040516107059190612926565b60405180910390f35b61071661177b565b60405161072391906126fe565b60405180910390f35b610746600480360381019061074191906126c2565b611780565b6040516107539190612521565b60405180910390f35b60007f7965db0b000000000000000000000000000000000000000000000000000000007bffffffffffffffffffffffffffffffffffffffffffffffffffffffff1916827bffffffffffffffffffffffffffffffffffffffffffffffffffffffff191614806107cf57506107ce826117b3565b5b9050919050565b6060600380546107e590612a6b565b80601f016020809104026020016040519081016040528092919081815260200182805461081190612a6b565b801561085e5780601f106108335761010080835404028352916020019161085e565b820191906000526020600020905b81548152906001019060200180831161084157829003601f168201915b5050505050905090565b60008061087361181d565b9050610880818585611825565b600191505092915050565b600b6020528060005260406000206000915090505481565b6000600254905090565b600681815481106108bd57600080fd5b906000526020600020016000915054906101000a900473ffffffffffffffffffffffffffffffffffffffff1681565b6000806108f761181d565b9050610904858285611837565b61090f8585856118cb565b60019150509392505050565b600060056000838152602001908152602001600020600101549050919050565b6064600a6b204fce5e3e250261100000006109569190612acb565b6109609190612b3c565b81565b6000811180156109b25750600b60003373ffffffffffffffffffffffffffffffffffffffff1673ffffffffffffffffffffffffffffffffffffffff168152602001908152602001600020548111155b6109f1576040517f08c379a00000000000000000000000000000000000000000000000000000000081526004016109e890612bb9565b60405180910390fd5b60006109fc336119bf565b905081600b60003373ffffffffffffffffffffffffffffffffffffffff1673ffffffffffffffffffffffffffffffffffffffff1681526020019081526020016000206000828254610a4d9190612bd9565b925050819055508160096000828254610a669190612bd9565b92505081905550610aa37f0000000000000000000000000000000000000000000000000000000000000000338385610a9e9190612c0d565b611a34565b3373ffffffffffffffffffffffffffffffffffffffff167f8108595eb6bad3acefa9da467d90cc2217686d5c5ac85460f8b7849c840645fc83604051610ae991906126fe565b60405180910390a23373ffffffffffffffffffffffffffffffffffffffff167ffc30cddea38e2bf4d6ea7d3f9ed3b6ad7f176419f4963bd81318067a4aee73fe82604051610b3791906126fe565b60405180910390a25050565b610b4c8261091b565b610b5581611b89565b610b5f8383611b9d565b50505050565b60006012905090565b7f0cec6da01a27fe07ab86bff79c774dbe9a125d8ca3c22761c68442756bf1548581565b6b204fce5e3e2502611000000081565b610baa61181d565b73ffffffffffffffffffffffffffffffffffffffff168173ffffffffffffffffffffffffffffffffffffffff1614610c0e576040517f6697b23200000000000000000000000000000000000000000000000000000000815260040160405180910390fd5b610c188282611c8f565b505050565b7fc10c77be35aff266144ed64c26a1fa104bae2f284ae99ac4a34203454704a18581565b60008060008373ffffffffffffffffffffffffffffffffffffffff1673ffffffffffffffffffffffffffffffffffffffff168152602001908152602001600020549050919050565b7fc10c77be35aff266144ed64c26a1fa104bae2f284ae99ac4a34203454704a185610cb381611b89565b600760008373ffffffffffffffffffffffffffffffffffffffff1673ffffffffffffffffffffffffffffffffffffffff16815260200190815260200160002060009054906101000a900460ff1615610d40576040517f08c379a0000000000000000000000000000000000000000000000000000000008152600401610d3790612c8d565b60405180910390fd5b610d6a7fc10c77be35aff266144ed64c26a1fa104bae2f284ae99ac4a34203454704a18583611b9d565b506006829080600181540180825580915050600190039060005260206000200160009091909190916101000a81548173ffffffffffffffffffffffffffffffffffffffff021916908373ffffffffffffffffffffffffffffffffffffffff1602179055506001600760008473ffffffffffffffffffffffffffffffffffffffff1673ffffffffffffffffffffffffffffffffffffffff16815260200190815260200160002060006101000a81548160ff0219169083151502179055508173ffffffffffffffffffffffffffffffffffffffff167fe1cb5e1230cc02e62c60b81c1aa5ade512f3eac296edb28628b4cf344f47f93160405160405180910390a25050565b600c6020528060005260406000206000915090505481565b600a5481565b60095481565b60006005600084815260200190815260200160002060000160008373ffffffffffffffffffffffffffffffffffffffff1673ffffffffffffffffffffffffffffffffffffffff16815260200190815260200160002060009054906101000a900460ff16905092915050565b606060048054610f0b90612a6b565b80601f0160208091040260200160405190810160405280929190818152602001828054610f3790612a6b565b8015610f845780601f10610f5957610100808354040283529160200191610f84565b820191906000526020600020905b815481529060010190602001808311610f6757829003601f168201915b5050505050905090565b7307865c6e87b9f70255377e024ace6630c1eaa37f81565b6000801b81565b60008111610ff0576040517f08c379a0000000000000000000000000000000000000000000000000000000008152600401610fe790612cf9565b60405180910390fd5b61101c7f0000000000000000000000000000000000000000000000000000000000000000333084611d82565b80600b60003373ffffffffffffffffffffffffffffffffffffffff1673ffffffffffffffffffffffffffffffffffffffff168152602001908152602001600020600082825461106b9190612c0d565b9250508190555080600960008282546110849190612c0d565b925050819055503373ffffffffffffffffffffffffffffffffffffffff167f0a7bb2e28cc4698aac06db79cf9163bfcc20719286cf59fa7d492ceda1b8edc2826040516110d191906126fe565b60405180910390a250565b6000806110e761181d565b90506110f48185856118cb565b600191505092915050565b7f000000000000000000000000000000000000000000000000000000000000000081565b60076020528060005260406000206000915054906101000a900460ff1681565b6000801b61115081611b89565b600760008373ffffffffffffffffffffffffffffffffffffffff1673ffffffffffffffffffffffffffffffffffffffff16815260200190815260200160002060009054906101000a900460ff166111dc576040517f08c379a00000000000000000000000000000000000000000000000000000000081526004016111d390612d65565b60405180910390fd5b60005b600680549050811015611362578273ffffffffffffffffffffffffffffffffffffffff166006828154811061121757611216612d85565b5b9060005260206000200160009054906101000a900473ffffffffffffffffffffffffffffffffffffffff1673ffffffffffffffffffffffffffffffffffffffff160361135557600660016006805490506112719190612bd9565b8154811061128257611281612d85565b5b9060005260206000200160009054906101000a900473ffffffffffffffffffffffffffffffffffffffff16600682815481106112c1576112c0612d85565b5b9060005260206000200160006101000a81548173ffffffffffffffffffffffffffffffffffffffff021916908373ffffffffffffffffffffffffffffffffffffffff160217905550600680548061131b5761131a612db4565b5b6001900381819060005260206000200160006101000a81549073ffffffffffffffffffffffffffffffffffffffff02191690559055611362565b80806001019150506111df565b506000600760008473ffffffffffffffffffffffffffffffffffffffff1673ffffffffffffffffffffffffffffffffffffffff16815260200190815260200160002060006101000a81548160ff0219169083151502179055506113e57fc10c77be35aff266144ed64c26a1fa104bae2f284ae99ac4a34203454704a18583611c8f565b508173ffffffffffffffffffffffffffffffffffffffff167f55dba9d79522b91b615629d5f3b10c2fad2d258f1768614f4a52e937ada0d0ba60405160405180910390a25050565b7f0cec6da01a27fe07ab86bff79c774dbe9a125d8ca3c22761c68442756bf1548561145781611b89565b6114a27f00000000000000000000000000000000000000000000000000000000000000007f000000000000000000000000000000000000000000000000000000000000000086611eda565b6114e17307865c6e87b9f70255377e024ace6630c1eaa37f7f000000000000000000000000000000000000000000000000000000000000000085611eda565b60006040518061010001604052807f000000000000000000000000000000000000000000000000000000000000000073ffffffffffffffffffffffffffffffffffffffff1681526020017307865c6e87b9f70255377e024ace6630c1eaa37f73ffffffffffffffffffffffffffffffffffffffff168152602001610bb862ffffff1681526020013073ffffffffffffffffffffffffffffffffffffffff1681526020014281526020018681526020018581526020018473ffffffffffffffffffffffffffffffffffffffff1681525090507f000000000000000000000000000000000000000000000000000000000000000073ffffffffffffffffffffffffffffffffffffffff1663414bf389826040518263ffffffff1660e01b815260040161160b9190612ed0565b6020604051808303816000875af115801561162a573d6000803e3d6000fd5b505050506040513d601f19601f8201168201806040525081019061164e9190612f01565b5084600860008282546116619190612c0d565b925050819055507f38f8a0c92f4c5b0b6877f878cb4c0c8d348a47b76d716c8e78f425043df9515b8585604051611699929190612f2e565b60405180910390a15050505050565b6116b18261091b565b6116ba81611b89565b6116c48383611c8f565b50505050565b6000600160008473ffffffffffffffffffffffffffffffffffffffff1673ffffffffffffffffffffffffffffffffffffffff16815260200190815260200160002060008373ffffffffffffffffffffffffffffffffffffffff1673ffffffffffffffffffffffffffffffffffffffff16815260200190815260200160002054905092915050565b60085481565b7f000000000000000000000000000000000000000000000000000000000000000081565b600381565b60006117ac7fc10c77be35aff266144ed64c26a1fa104bae2f284ae99ac4a34203454704a18583610e91565b9050919050565b60007f01ffc9a7000000000000000000000000000000000000000000000000000000007bffffffffffffffffffffffffffffffffffffffffffffffffffffffff1916827bffffffffffffffffffffffffffffffffffffffffffffffffffffffff1916149050919050565b600033905090565b611832838383600161202f565b505050565b600061184384846116ca565b90507fffffffffffffffffffffffffffffffffffffffffffffffffffffffffffffffff81146118c557818110156118b5578281836040517ffb8f41b20000000000000000000000000000000000000000000000000000000081526004016118ac93929190612f57565b60405180910390fd5b6118c48484848403600061202f565b5b50505050565b600073ffffffffffffffffffffffffffffffffffffffff168373ffffffffffffffffffffffffffffffffffffffff160361193d5760006040517f96c6fd1e0000000000000000000000000000000000000000000000000000000081526004016119349190612755565b60405180910390fd5b600073ffffffffffffffffffffffffffffffffffffffff168273ffffffffffffffffffffffffffffffffffffffff16036119af5760006040517fec442f050000000000000000000000000000000000000000000000000000000081526004016119a69190612755565b60405180910390fd5b6119ba838383612206565b505050565b600080600954036119d35760009050611a2f565b6009546003600b60008573ffffffffffffffffffffffffffffffffffffffff1673ffffffffffffffffffffffffffffffffffffffff16815260200190815260200160002054611a229190612acb565b611a2c9190612b3c565b90505b919050565b6000808473ffffffffffffffffffffffffffffffffffffffff1663a9059cbb60e01b8585604051602401611a69929190612f8e565b604051602081830303815290604052907bffffffffffffffffffffffffffffffffffffffffffffffffffffffff19166020820180517bffffffffffffffffffffffffffffffffffffffffffffffffffffffff8381831617835250505050604051611ad39190612ffe565b6000604051808303816000865af19150503d8060008114611b10576040519150601f19603f3d011682016040523d82523d6000602084013e611b15565b606091505b5091509150818015611b435750600081511480611b42575080806020019051810190611b419190613041565b5b5b611b82576040517f08c379a0000000000000000000000000000000000000000000000000000000008152600401611b79906130ba565b60405180910390fd5b5050505050565b611b9a81611b9561181d565b61242b565b50565b6000611ba98383610e91565b611c845760016005600085815260200190815260200160002060000160008473ffffffffffffffffffffffffffffffffffffffff1673ffffffffffffffffffffffffffffffffffffffff16815260200190815260200160002060006101000a81548160ff021916908315150217905550611c2161181d565b73ffffffffffffffffffffffffffffffffffffffff168273ffffffffffffffffffffffffffffffffffffffff16847f2f8788117e7eff1d82e926ec794901d17c78024a50270940304540a733656f0d60405160405180910390a460019050611c89565b600090505b92915050565b6000611c9b8383610e91565b15611d775760006005600085815260200190815260200160002060000160008473ffffffffffffffffffffffffffffffffffffffff1673ffffffffffffffffffffffffffffffffffffffff16815260200190815260200160002060006101000a81548160ff021916908315150217905550611d1461181d565b73ffffffffffffffffffffffffffffffffffffffff168273ffffffffffffffffffffffffffffffffffffffff16847ff6391f5c32d9c69d2a47ea670b442974b53935d1edc7fd64eb21e047a839171b60405160405180910390a460019050611d7c565b600090505b92915050565b6000808573ffffffffffffffffffffffffffffffffffffffff166323b872dd60e01b868686604051602401611db9939291906130da565b604051602081830303815290604052907bffffffffffffffffffffffffffffffffffffffffffffffffffffffff19166020820180517bffffffffffffffffffffffffffffffffffffffffffffffffffffffff8381831617835250505050604051611e239190612ffe565b6000604051808303816000865af19150503d8060008114611e60576040519150601f19603f3d011682016040523d82523d6000602084013e611e65565b606091505b5091509150818015611e935750600081511480611e92575080806020019051810190611e919190613041565b5b5b611ed2576040517f08c379a0000000000000000000000000000000000000000000000000000000008152600401611ec99061315d565b60405180910390fd5b505050505050565b6000808473ffffffffffffffffffffffffffffffffffffffff1663095ea7b360e01b8585604051602401611f0f929190612f8e565b604051602081830303815290604052907bffffffffffffffffffffffffffffffffffffffffffffffffffffffff19166020820180517bffffffffffffffffffffffffffffffffffffffffffffffffffffffff8381831617835250505050604051611f799190612ffe565b6000604051808303816000865af19150503d8060008114611fb6576040519150601f19603f3d011682016040523d82523d6000602084013e611fbb565b606091505b5091509150818015611fe95750600081511480611fe8575080806020019051810190611fe79190613041565b5b5b612028576040517f08c379a000000000000000000000000000000000000000000000000000000000815260040161201f906131c9565b60405180910390fd5b5050505050565b600073ffffffffffffffffffffffffffffffffffffffff168473ffffffffffffffffffffffffffffffffffffffff16036120a15760006040517fe602df050000000000000000000000000000000000000000000000000000000081526004016120989190612755565b60405180910390fd5b600073ffffffffffffffffffffffffffffffffffffffff168373ffffffffffffffffffffffffffffffffffffffff16036121135760006040517f94280d6200000000000000000000000000000000000000000000000000000000815260040161210a9190612755565b60405180910390fd5b81600160008673ffffffffffffffffffffffffffffffffffffffff1673ffffffffffffffffffffffffffffffffffffffff16815260200190815260200160002060008573ffffffffffffffffffffffffffffffffffffffff1673ffffffffffffffffffffffffffffffffffffffff168152602001908152602001600020819055508015612200578273ffffffffffffffffffffffffffffffffffffffff168473ffffffffffffffffffffffffffffffffffffffff167f8c5be1e5ebec7d5bd14f71427d1e84f3dd0314c0f7b2291e5b200ac8c7c3b925846040516121f791906126fe565b60405180910390a35b50505050565b600073ffffffffffffffffffffffffffffffffffffffff168373ffffffffffffffffffffffffffffffffffffffff160361225857806002600082825461224c9190612c0d565b9250508190555061232b565b60008060008573ffffffffffffffffffffffffffffffffffffffff1673ffffffffffffffffffffffffffffffffffffffff168152602001908152602001600020549050818110156122e4578381836040517fe450d38c0000000000000000000000000000000000000000000000000000000081526004016122db93929190612f57565b60405180910390fd5b8181036000808673ffffffffffffffffffffffffffffffffffffffff1673ffffffffffffffffffffffffffffffffffffffff16815260200190815260200160002081905550505b600073ffffffffffffffffffffffffffffffffffffffff168273ffffffffffffffffffffffffffffffffffffffff160361237457806002600082825403925050819055506123c1565b806000808473ffffffffffffffffffffffffffffffffffffffff1673ffffffffffffffffffffffffffffffffffffffff168152602001908152602001600020600082825401925050819055505b8173ffffffffffffffffffffffffffffffffffffffff168373ffffffffffffffffffffffffffffffffffffffff167fddf252ad1be2c89b69c2b068fc378daa952ba7f163c4a11628f55a4df523b3ef8360405161241e91906126fe565b60405180910390a3505050565b6124358282610e91565b6124785780826040517fe2517d3f00000000000000000000000000000000000000000000000000000000815260040161246f9291906131e9565b60405180910390fd5b5050565b600080fd5b60007fffffffff0000000000000000000000000000000000000000000000000000000082169050919050565b6124b681612481565b81146124c157600080fd5b50565b6000813590506124d3816124ad565b92915050565b6000602082840312156124ef576124ee61247c565b5b60006124fd848285016124c4565b91505092915050565b60008115159050919050565b61251b81612506565b82525050565b60006020820190506125366000830184612512565b92915050565b600081519050919050565b600082825260208201905092915050565b60005b8381101561257657808201518184015260208101905061255b565b60008484015250505050565b6000601f19601f8301169050919050565b600061259e8261253c565b6125a88185612547565b93506125b8818560208601612558565b6125c181612582565b840191505092915050565b600060208201905081810360008301526125e68184612593565b905092915050565b600073ffffffffffffffffffffffffffffffffffffffff82169050919050565b6000612619826125ee565b9050919050565b6126298161260e565b811461263457600080fd5b50565b60008135905061264681612620565b92915050565b6000819050919050565b61265f8161264c565b811461266a57600080fd5b50565b60008135905061267c81612656565b92915050565b600080604083850312156126995761269861247c565b5b60006126a785828601612637565b92505060206126b88582860161266d565b9150509250929050565b6000602082840312156126d8576126d761247c565b5b60006126e684828501612637565b91505092915050565b6126f88161264c565b82525050565b600060208201905061271360008301846126ef565b92915050565b60006020828403121561272f5761272e61247c565b5b600061273d8482850161266d565b91505092915050565b61274f8161260e565b82525050565b600060208201905061276a6000830184612746565b92915050565b6000806000606084860312156127895761278861247c565b5b600061279786828701612637565b93505060206127a886828701612637565b92505060406127b98682870161266d565b9150509250925092565b6000819050919050565b6127d6816127c3565b81146127e157600080fd5b50565b6000813590506127f3816127cd565b92915050565b60006020828403121561280f5761280e61247c565b5b600061281d848285016127e4565b91505092915050565b61282f816127c3565b82525050565b600060208201905061284a6000830184612826565b92915050565b600080604083850312156128675761286661247c565b5b6000612875858286016127e4565b925050602061288685828601612637565b9150509250929050565b600060ff82169050919050565b6128a681612890565b82525050565b60006020820190506128c1600083018461289d565b92915050565b6000819050919050565b60006128ec6128e76128e2846125ee565b6128c7565b6125ee565b9050919050565b60006128fe826128d1565b9050919050565b6000612910826128f3565b9050919050565b61292081612905565b82525050565b600060208201905061293b6000830184612917565b92915050565b600061294c826128f3565b9050919050565b61295c81612941565b82525050565b60006020820190506129776000830184612953565b92915050565b612986816125ee565b811461299157600080fd5b50565b6000813590506129a38161297d565b92915050565b6000806000606084860312156129c2576129c161247c565b5b60006129d08682870161266d565b93505060206129e18682870161266d565b92505060406129f286828701612994565b9150509250925092565b60008060408385031215612a1357612a1261247c565b5b6000612a2185828601612637565b9250506020612a3285828601612637565b9150509250929050565b7f4e487b7100000000000000000000000000000000000000000000000000000000600052602260045260246000fd5b60006002820490506001821680612a8357607f821691505b602082108103612a9657612a95612a3c565b5b50919050565b7f4e487b7100000000000000000000000000000000000000000000000000000000600052601160045260246000fd5b6000612ad68261264c565b9150612ae18361264c565b9250828202612aef8161264c565b91508282048414831517612b0657612b05612a9c565b5b5092915050565b7f4e487b7100000000000000000000000000000000000000000000000000000000600052601260045260246000fd5b6000612b478261264c565b9150612b528361264c565b925082612b6257612b61612b0d565b5b828204905092915050565b7f496e76616c696420756e7374616b6520616d6f756e7400000000000000000000600082015250565b6000612ba3601683612547565b9150612bae82612b6d565b602082019050919050565b60006020820190508181036000830152612bd281612b96565b9050919050565b6000612be48261264c565b9150612bef8361264c565b9250828203905081811115612c0757612c06612a9c565b5b92915050565b6000612c188261264c565b9150612c238361264c565b9250828201905080821115612c3b57612c3a612a9c565b5b92915050565b7f416c726561647920696e20726576696577657220706f6f6c0000000000000000600082015250565b6000612c77601883612547565b9150612c8282612c41565b602082019050919050565b60006020820190508181036000830152612ca681612c6a565b9050919050565b7f496e76616c6964207374616b6520616d6f756e74000000000000000000000000600082015250565b6000612ce3601483612547565b9150612cee82612cad565b602082019050919050565b60006020820190508181036000830152612d1281612cd6565b9050919050565b7f4e6f7420696e20726576696577657220706f6f6c000000000000000000000000600082015250565b6000612d4f601483612547565b9150612d5a82612d19565b602082019050919050565b60006020820190508181036000830152612d7e81612d42565b9050919050565b7f4e487b7100000000000000000000000000000000000000000000000000000000600052603260045260246000fd5b7f4e487b7100000000000000000000000000000000000000000000000000000000600052603160045260246000fd5b612dec8161260e565b82525050565b600062ffffff82169050919050565b612e0a81612df2565b82525050565b612e198161264c565b82525050565b612e28816125ee565b82525050565b61010082016000820151612e456000850182612de3565b506020820151612e586020850182612de3565b506040820151612e6b6040850182612e01565b506060820151612e7e6060850182612de3565b506080820151612e916080850182612e10565b5060a0820151612ea460a0850182612e10565b5060c0820151612eb760c0850182612e10565b5060e0820151612eca60e0850182612e1f565b50505050565b600061010082019050612ee66000830184612e2e565b92915050565b600081519050612efb81612656565b92915050565b600060208284031215612f1757612f1661247c565b5b6000612f2584828501612eec565b91505092915050565b6000604082019050612f4360008301856126ef565b612f5060208301846126ef565b9392505050565b6000606082019050612f6c6000830186612746565b612f7960208301856126ef565b612f8660408301846126ef565b949350505050565b6000604082019050612fa36000830185612746565b612fb060208301846126ef565b9392505050565b600081519050919050565b600081905092915050565b6000612fd882612fb7565b612fe28185612fc2565b9350612ff2818560208601612558565b80840191505092915050565b600061300a8284612fcd565b915081905092915050565b61301e81612506565b811461302957600080fd5b50565b60008151905061303b81613015565b92915050565b6000602082840312156130575761305661247c565b5b60006130658482850161302c565b91505092915050565b7f5354000000000000000000000000000000000000000000000000000000000000600082015250565b60006130a4600283612547565b91506130af8261306e565b602082019050919050565b600060208201905081810360008301526130d381613097565b9050919050565b60006060820190506130ef6000830186612746565b6130fc6020830185612746565b61310960408301846126ef565b949350505050565b7f5354460000000000000000000000000000000000000000000000000000000000600082015250565b6000613147600383612547565b915061315282613111565b602082019050919050565b600060208201905081810360008301526131768161313a565b9050919050565b7f5341000000000000000000000000000000000000000000000000000000000000600082015250565b60006131b3600283612547565b91506131be8261317d565b602082019050919050565b600060208201905081810360008301526131e2816131a6565b9050919050565b60006040820190506131fe6000830185612746565b61320b6020830184612826565b939250505056fea2646970667358221220e4e54565f1a644b7ce708ab41d8aa5579ac3cd64d7438ee396584e9a383b11d664736f6c634300081b0033",
  "linkReferences": {},
  "deployedLinkReferences": {}
}