{
  "_format": "hh-sol-artifact-1",
  "contractName": "LiquidityContract",
  "sourceName": "contracts/LiquidityContract.sol",
  "abi": [
    {
      "inputs": [
        {
          "internalType": "address[]",
          "name": "_reviewers",
          "type": "address[]"
        }
      ],
      "stateMutability": "nonpayable",
      "type": "constructor"
    },
    {
      "inputs": [],
      "name": "AccessControlBadConfirmation",
      "type": "error"
    },
    {
      "inputs": [
        {
          "internalType": "address",
          "name": "account",
          "type": "address"
        },
        {
          "internalType": "bytes32",
          "name": "neededRole",
          "type": "bytes32"
        }
      ],
      "name": "AccessControlUnauthorizedAccount",
      "type": "error"
    },
    {
      "inputs": [
        {
          "internalType": "address",
          "name": "spender",
          "type": "address"
        },
        {
          "internalType": "uint256",
          "name": "allowance",
          "type": "uint256"
        },
        {
          "internalType": "uint256",
          "name": "needed",
          "type": "uint256"
        }
      ],
      "name": "ERC20InsufficientAllowance",
      "type": "error"
    },
    {
      "inputs": [
        {
          "internalType": "address",
          "name": "sender",
          "type": "address"
        },
        {
          "internalType": "uint256",
          "name": "balance",
          "type": "uint256"
        },
        {
          "internalType": "uint256",
          "name": "needed",
          "type": "uint256"
        }
      ],
      "name": "ERC20InsufficientBalance",
      "type": "error"
    },
    {
      "inputs": [
        {
          "internalType": "address",
          "name": "approver",
          "type": "address"
        }
      ],
      "name": "ERC20InvalidApprover",
      "type": "error"
    },
    {
      "inputs": [
        {
          "internalType": "address",
          "name": "receiver",
          "type": "address"
        }
      ],
      "name": "ERC20InvalidReceiver",
      "type": "error"
    },
    {
      "inputs": [
        {
          "internalType": "address",
          "name": "sender",
          "type": "address"
        }
      ],
      "name": "ERC20InvalidSender",
      "type": "error"
    },
    {
      "inputs": [
        {
          "internalType": "address",
          "name": "spender",
          "type": "address"
        }
      ],
      "name": "ERC20InvalidSpender",
      "type": "error"
    },
    {
      "anonymous": false,
      "inputs": [
        {
          "indexed": true,
          "internalType": "address",
          "name": "owner",
          "type": "address"
        },
        {
          "indexed": true,
          "internalType": "address",
          "name": "spender",
          "type": "address"
        },
        {
          "indexed": false,
          "internalType": "uint256",
          "name": "value",
          "type": "uint256"
        }
      ],
      "name": "Approval",
      "type": "event"
    },
    {
      "anonymous": false,
      "inputs": [
        {
          "indexed": true,
          "internalType": "address",
          "name": "_account",
          "type": "address"
        },
        {
          "indexed": false,
          "internalType": "uint256",
          "name": "_amount",
          "type": "uint256"
        }
      ],
      "name": "BurnSuccess",
      "type": "event"
    },
    {
      "anonymous": false,
      "inputs": [
        {
          "indexed": false,
          "internalType": "uint256",
          "name": "nativeTokenAmount",
          "type": "uint256"
        },
        {
          "indexed": false,
          "internalType": "uint256",
          "name": "stableCoinAmount",
          "type": "uint256"
        }
      ],
      "name": "LiquidityAdded",
      "type": "event"
    },
    {
      "anonymous": false,
      "inputs": [
        {
          "indexed": true,
          "internalType": "address",
          "name": "_to",
          "type": "address"
        },
        {
          "indexed": true,
          "internalType": "uint256",
          "name": "_amount",
          "type": "uint256"
        }
      ],
      "name": "MintSuccess",
      "type": "event"
    },
    {
      "anonymous": false,
      "inputs": [
        {
          "indexed": true,
          "internalType": "uint256",
          "name": "proposalId",
          "type": "uint256"
        },
        {
          "indexed": false,
          "internalType": "address",
          "name": "approver",
          "type": "address"
        }
      ],
      "name": "MultiSigProposalApproved",
      "type": "event"
    },
    {
      "anonymous": false,
      "inputs": [
        {
          "indexed": true,
          "internalType": "uint256",
          "name": "proposalId",
          "type": "uint256"
        },
        {
          "indexed": false,
          "internalType": "address",
          "name": "proposer",
          "type": "address"
        }
      ],
      "name": "MultiSigProposalCreated",
      "type": "event"
    },
    {
      "anonymous": false,
      "inputs": [
        {
          "indexed": true,
          "internalType": "uint256",
          "name": "proposalId",
          "type": "uint256"
        }
      ],
      "name": "MultiSigProposalExecuted",
      "type": "event"
    },
    {
      "anonymous": false,
      "inputs": [
        {
          "indexed": true,
          "internalType": "address",
          "name": "reviewer",
          "type": "address"
        }
      ],
      "name": "ReviewerAddedToPool",
      "type": "event"
    },
    {
      "anonymous": false,
      "inputs": [
        {
          "indexed": true,
          "internalType": "address",
          "name": "reviewer",
          "type": "address"
        }
      ],
      "name": "ReviewerRemovedFromPool",
      "type": "event"
    },
    {
      "anonymous": false,
      "inputs": [
        {
          "indexed": true,
          "internalType": "address",
          "name": "user",
          "type": "address"
        },
        {
          "indexed": false,
          "internalType": "uint256",
          "name": "amount",
          "type": "uint256"
        }
      ],
      "name": "RewardsClaimed",
      "type": "event"
    },
    {
      "anonymous": false,
      "inputs": [
        {
          "indexed": true,
          "internalType": "bytes32",
          "name": "role",
          "type": "bytes32"
        },
        {
          "indexed": true,
          "internalType": "bytes32",
          "name": "previousAdminRole",
          "type": "bytes32"
        },
        {
          "indexed": true,
          "internalType": "bytes32",
          "name": "newAdminRole",
          "type": "bytes32"
        }
      ],
      "name": "RoleAdminChanged",
      "type": "event"
    },
    {
      "anonymous": false,
      "inputs": [
        {
          "indexed": true,
          "internalType": "bytes32",
          "name": "role",
          "type": "bytes32"
        },
        {
          "indexed": true,
          "internalType": "address",
          "name": "account",
          "type": "address"
        },
        {
          "indexed": true,
          "internalType": "address",
          "name": "sender",
          "type": "address"
        }
      ],
      "name": "RoleGranted",
      "type": "event"
    },
    {
      "anonymous": false,
      "inputs": [
        {
          "indexed": true,
          "internalType": "bytes32",
          "name": "role",
          "type": "bytes32"
        },
        {
          "indexed": true,
          "internalType": "address",
          "name": "account",
          "type": "address"
        },
        {
          "indexed": true,
          "internalType": "address",
          "name": "sender",
          "type": "address"
        }
      ],
      "name": "RoleRevoked",
      "type": "event"
    },
    {
      "anonymous": false,
      "inputs": [
        {
          "indexed": true,
          "internalType": "address",
          "name": "user",
          "type": "address"
        },
        {
          "indexed": false,
          "internalType": "uint256",
          "name": "amount",
          "type": "uint256"
        }
      ],
      "name": "StakeDeposited",
      "type": "event"
    },
    {
      "anonymous": false,
      "inputs": [
        {
          "indexed": true,
          "internalType": "address",
          "name": "user",
          "type": "address"
        },
        {
          "indexed": false,
          "internalType": "uint256",
          "name": "amount",
          "type": "uint256"
        }
      ],
      "name": "StakeWithdrawn",
      "type": "event"
    },
    {
      "anonymous": false,
      "inputs": [
        {
          "indexed": true,
          "internalType": "address",
          "name": "from",
          "type": "address"
        },
        {
          "indexed": true,
          "internalType": "address",
          "name": "to",
          "type": "address"
        },
        {
          "indexed": false,
          "internalType": "uint256",
          "name": "value",
          "type": "uint256"
        }
      ],
      "name": "Transfer",
      "type": "event"
    },
    {
      "inputs": [],
      "name": "DEFAULT_ADMIN_ROLE",
      "outputs": [
        {
          "internalType": "bytes32",
          "name": "",
          "type": "bytes32"
        }
      ],
      "stateMutability": "view",
      "type": "function"
    },
    {
      "inputs": [],
      "name": "LIQUIDITY_MANAGER",
      "outputs": [
        {
          "internalType": "bytes32",
          "name": "",
          "type": "bytes32"
        }
      ],
      "stateMutability": "view",
      "type": "function"
    },
    {
      "inputs": [],
      "name": "LIQUIDITY_POOL",
      "outputs": [
        {
          "internalType": "uint256",
          "name": "",
          "type": "uint256"
        }
      ],
      "stateMutability": "view",
      "type": "function"
    },
    {
      "inputs": [],
      "name": "MAX_SUPPLY",
      "outputs": [
        {
          "internalType": "uint256",
          "name": "",
          "type": "uint256"
        }
      ],
      "stateMutability": "view",
      "type": "function"
    },
    {
      "inputs": [],
      "name": "MULTISIG_APPROVER",
      "outputs": [
        {
          "internalType": "bytes32",
          "name": "",
          "type": "bytes32"
        }
      ],
      "stateMutability": "view",
      "type": "function"
    },
    {
      "inputs": [],
      "name": "PROTOCOL_FEE_PERCENTAGE",
      "outputs": [
        {
          "internalType": "uint256",
          "name": "",
          "type": "uint256"
        }
      ],
      "stateMutability": "view",
      "type": "function"
    },
    {
      "inputs": [],
      "name": "REVIEWER_ROLE",
      "outputs": [
        {
          "internalType": "bytes32",
          "name": "",
          "type": "bytes32"
        }
      ],
      "stateMutability": "view",
      "type": "function"
    },
    {
      "inputs": [
        {
          "internalType": "address",
          "name": "",
          "type": "address"
        }
      ],
      "name": "accumulatedRewards",
      "outputs": [
        {
          "internalType": "uint256",
          "name": "",
          "type": "uint256"
        }
      ],
      "stateMutability": "view",
      "type": "function"
    },
    {
      "inputs": [
        {
          "internalType": "uint256",
          "name": "nativeTokenAmount",
          "type": "uint256"
        },
        {
          "internalType": "uint256",
          "name": "stableCoinAmount",
          "type": "uint256"
        },
        {
          "internalType": "uint160",
          "name": "sqrtPriceLimitX96",
          "type": "uint160"
        }
      ],
      "name": "addLiquidity",
      "outputs": [],
      "stateMutability": "nonpayable",
      "type": "function"
    },
    {
      "inputs": [
        {
          "internalType": "address",
          "name": "newApprover",
          "type": "address"
        }
      ],
      "name": "addMultiSigApprover",
      "outputs": [],
      "stateMutability": "nonpayable",
      "type": "function"
    },
    {
      "inputs": [
        {
          "internalType": "address",
          "name": "newReviewer",
          "type": "address"
        }
      ],
      "name": "addReviewer",
      "outputs": [],
      "stateMutability": "nonpayable",
      "type": "function"
    },
    {
      "inputs": [
        {
          "internalType": "address",
          "name": "owner",
          "type": "address"
        },
        {
          "internalType": "address",
          "name": "spender",
          "type": "address"
        }
      ],
      "name": "allowance",
      "outputs": [
        {
          "internalType": "uint256",
          "name": "",
          "type": "uint256"
        }
      ],
      "stateMutability": "view",
      "type": "function"
    },
    {
      "inputs": [
        {
          "internalType": "address",
          "name": "spender",
          "type": "address"
        },
        {
          "internalType": "uint256",
          "name": "value",
          "type": "uint256"
        }
      ],
      "name": "approve",
      "outputs": [
        {
          "internalType": "bool",
          "name": "",
          "type": "bool"
        }
      ],
      "stateMutability": "nonpayable",
      "type": "function"
    },
    {
      "inputs": [
        {
          "internalType": "uint256",
          "name": "_proposalId",
          "type": "uint256"
        }
      ],
      "name": "approveMultiSigProposal",
      "outputs": [],
      "stateMutability": "nonpayable",
      "type": "function"
    },
    {
      "inputs": [
        {
          "internalType": "address",
          "name": "account",
          "type": "address"
        }
      ],
      "name": "balanceOf",
      "outputs": [
        {
          "internalType": "uint256",
          "name": "",
          "type": "uint256"
        }
      ],
      "stateMutability": "view",
      "type": "function"
    },
    {
      "inputs": [],
      "name": "decimals",
      "outputs": [
        {
          "internalType": "uint8",
          "name": "",
          "type": "uint8"
        }
      ],
      "stateMutability": "view",
      "type": "function"
    },
    {
      "inputs": [
        {
          "internalType": "bytes32",
          "name": "role",
          "type": "bytes32"
        }
      ],
      "name": "getRoleAdmin",
      "outputs": [
        {
          "internalType": "bytes32",
          "name": "",
          "type": "bytes32"
        }
      ],
      "stateMutability": "view",
      "type": "function"
    },
    {
      "inputs": [
        {
          "internalType": "bytes32",
          "name": "role",
          "type": "bytes32"
        },
        {
          "internalType": "address",
          "name": "account",
          "type": "address"
        }
      ],
      "name": "grantRole",
      "outputs": [],
      "stateMutability": "nonpayable",
      "type": "function"
    },
    {
      "inputs": [
        {
          "internalType": "bytes32",
          "name": "role",
          "type": "bytes32"
        },
        {
          "internalType": "address",
          "name": "account",
          "type": "address"
        }
      ],
      "name": "hasRole",
      "outputs": [
        {
          "internalType": "bool",
          "name": "",
          "type": "bool"
        }
      ],
      "stateMutability": "view",
      "type": "function"
    },
    {
      "inputs": [
        {
          "internalType": "address",
          "name": "",
          "type": "address"
        }
      ],
      "name": "isInReviewerPool",
      "outputs": [
        {
          "internalType": "bool",
          "name": "",
          "type": "bool"
        }
      ],
      "stateMutability": "view",
      "type": "function"
    },
    {
      "inputs": [
        {
          "internalType": "address",
          "name": "account",
          "type": "address"
        }
      ],
      "name": "isReviewer",
      "outputs": [
        {
          "internalType": "bool",
          "name": "",
          "type": "bool"
        }
      ],
      "stateMutability": "view",
      "type": "function"
    },
    {
      "inputs": [
        {
          "internalType": "uint256",
          "name": "",
          "type": "uint256"
        }
      ],
      "name": "multiSigProposals",
      "outputs": [
        {
          "internalType": "uint256",
          "name": "id",
          "type": "uint256"
        },
        {
          "internalType": "address",
          "name": "proposer",
          "type": "address"
        },
        {
          "internalType": "address",
          "name": "targetContract",
          "type": "address"
        },
        {
          "internalType": "bytes",
          "name": "data",
          "type": "bytes"
        },
        {
          "internalType": "uint256",
          "name": "approvalCount",
          "type": "uint256"
        },
        {
          "internalType": "bool",
          "name": "executed",
          "type": "bool"
        }
      ],
      "stateMutability": "view",
      "type": "function"
    },
    {
      "inputs": [],
      "name": "name",
      "outputs": [
        {
          "internalType": "string",
          "name": "",
          "type": "string"
        }
      ],
      "stateMutability": "view",
      "type": "function"
    },
    {
      "inputs": [],
      "name": "nativeToken",
      "outputs": [
        {
          "internalType": "contract IERC20",
          "name": "",
          "type": "address"
        }
      ],
      "stateMutability": "view",
      "type": "function"
    },
    {
      "inputs": [
        {
          "internalType": "address",
          "name": "approver",
          "type": "address"
        }
      ],
      "name": "removeMultiSigApprover",
      "outputs": [],
      "stateMutability": "nonpayable",
      "type": "function"
    },
    {
      "inputs": [
        {
          "internalType": "address",
          "name": "reviewer",
          "type": "address"
        }
      ],
      "name": "removeReviewer",
      "outputs": [],
      "stateMutability": "nonpayable",
      "type": "function"
    },
    {
      "inputs": [
        {
          "internalType": "bytes32",
          "name": "role",
          "type": "bytes32"
        },
        {
          "internalType": "address",
          "name": "callerConfirmation",
          "type": "address"
        }
      ],
      "name": "renounceRole",
      "outputs": [],
      "stateMutability": "nonpayable",
      "type": "function"
    },
    {
      "inputs": [
        {
          "internalType": "uint256",
          "name": "",
          "type": "uint256"
        }
      ],
      "name": "reviewerPool",
      "outputs": [
        {
          "internalType": "address",
          "name": "",
          "type": "address"
        }
      ],
      "stateMutability": "view",
      "type": "function"
    },
    {
      "inputs": [
        {
          "internalType": "bytes32",
          "name": "role",
          "type": "bytes32"
        },
        {
          "internalType": "address",
          "name": "account",
          "type": "address"
        }
      ],
      "name": "revokeRole",
      "outputs": [],
      "stateMutability": "nonpayable",
      "type": "function"
    },
    {
      "inputs": [],
      "name": "rewardRate",
      "outputs": [
        {
          "internalType": "uint256",
          "name": "",
          "type": "uint256"
        }
      ],
      "stateMutability": "view",
      "type": "function"
    },
    {
      "inputs": [],
      "name": "stableCoin",
      "outputs": [
        {
          "internalType": "contract IERC20",
          "name": "",
          "type": "address"
        }
      ],
      "stateMutability": "view",
      "type": "function"
    },
    {
      "inputs": [
        {
          "internalType": "uint256",
          "name": "amount",
          "type": "uint256"
        }
      ],
      "name": "stake",
      "outputs": [],
      "stateMutability": "nonpayable",
      "type": "function"
    },
    {
      "inputs": [
        {
          "internalType": "address",
          "name": "",
          "type": "address"
        }
      ],
      "name": "stakedBalances",
      "outputs": [
        {
          "internalType": "uint256",
          "name": "",
          "type": "uint256"
        }
      ],
      "stateMutability": "view",
      "type": "function"
    },
    {
      "inputs": [
        {
          "internalType": "bytes4",
          "name": "interfaceId",
          "type": "bytes4"
        }
      ],
      "name": "supportsInterface",
      "outputs": [
        {
          "internalType": "bool",
          "name": "",
          "type": "bool"
        }
      ],
      "stateMutability": "view",
      "type": "function"
    },
    {
      "inputs": [],
      "name": "swapRouter",
      "outputs": [
        {
          "internalType": "contract ISwapRouter",
          "name": "",
          "type": "address"
        }
      ],
      "stateMutability": "view",
      "type": "function"
    },
    {
      "inputs": [],
      "name": "symbol",
      "outputs": [
        {
          "internalType": "string",
          "name": "",
          "type": "string"
        }
      ],
      "stateMutability": "view",
      "type": "function"
    },
    {
      "inputs": [],
      "name": "totalLiquidityProvided",
      "outputs": [
        {
          "internalType": "uint256",
          "name": "",
          "type": "uint256"
        }
      ],
      "stateMutability": "view",
      "type": "function"
    },
    {
      "inputs": [],
      "name": "totalStaked",
      "outputs": [
        {
          "internalType": "uint256",
          "name": "",
          "type": "uint256"
        }
      ],
      "stateMutability": "view",
      "type": "function"
    },
    {
      "inputs": [],
      "name": "totalSupply",
      "outputs": [
        {
          "internalType": "uint256",
          "name": "",
          "type": "uint256"
        }
      ],
      "stateMutability": "view",
      "type": "function"
    },
    {
      "inputs": [
        {
          "internalType": "address",
          "name": "to",
          "type": "address"
        },
        {
          "internalType": "uint256",
          "name": "value",
          "type": "uint256"
        }
      ],
      "name": "transfer",
      "outputs": [
        {
          "internalType": "bool",
          "name": "",
          "type": "bool"
        }
      ],
      "stateMutability": "nonpayable",
      "type": "function"
    },
    {
      "inputs": [
        {
          "internalType": "address",
          "name": "from",
          "type": "address"
        },
        {
          "internalType": "address",
          "name": "to",
          "type": "address"
        },
        {
          "internalType": "uint256",
          "name": "value",
          "type": "uint256"
        }
      ],
      "name": "transferFrom",
      "outputs": [
        {
          "internalType": "bool",
          "name": "",
          "type": "bool"
        }
      ],
      "stateMutability": "nonpayable",
      "type": "function"
    },
    {
      "inputs": [
        {
          "internalType": "uint256",
          "name": "amount",
          "type": "uint256"
        }
      ],
      "name": "unstake",
      "outputs": [],
      "stateMutability": "nonpayable",
      "type": "function"
    }
  ],
  "bytecode": "0x60c060405234801561001057600080fd5b50604051614b76380380614b7683398181016040528101906100329190610a56565b806040518060400160405280600a81526020017f4142594120544f4b454e000000000000000000000000000000000000000000008152506040518060400160405280600681526020017f414259544b4e000000000000000000000000000000000000000000000000000081525081600390816100ae9190610cc0565b5080600490816100be9190610cc0565b505050600481511015610106576040517f08c379a00000000000000000000000000000000000000000000000000000000081526004016100fd90610e15565b60405180910390fd5b6101196000801b3361039c60201b60201c565b5061014a7fdf1425bae297c2f52b4f15d18a50b1fc8cb5b981a981b1d213ed3ff92681b64d3361039c60201b60201c565b5060005b815181101561029e576101a17fc10c77be35aff266144ed64c26a1fa104bae2f284ae99ac4a34203454704a18583838151811061018e5761018d610e35565b5b602002602001015161039c60201b60201c565b5060068282815181106101b7576101b6610e35565b5b60200260200101519080600181540180825580915050600190039060005260206000200160009091909190916101000a81548173ffffffffffffffffffffffffffffffffffffffff021916908373ffffffffffffffffffffffffffffffffffffffff16021790555060016008600084848151811061023857610237610e35565b5b602002602001015173ffffffffffffffffffffffffffffffffffffffff1673ffffffffffffffffffffffffffffffffffffffff16815260200190815260200160002060006101000a81548160ff021916908315150217905550808060010191505061014e565b505073e592427a0aece92de3edee1f18e0157c0586156473ffffffffffffffffffffffffffffffffffffffff1660808173ffffffffffffffffffffffffffffffffffffffff16815250503073ffffffffffffffffffffffffffffffffffffffff1660a08173ffffffffffffffffffffffffffffffffffffffff168152505061032f6000801b3361039c60201b60201c565b506103607f0cec6da01a27fe07ab86bff79c774dbe9a125d8ca3c22761c68442756bf154853361039c60201b60201c565b50610395306064600a6b204fce5e3e250261100000006103809190610e93565b61038a9190610f04565b61049a60201b60201c565b5050611060565b60006103ae838361056160201b60201c565b61048f5760016005600085815260200190815260200160002060000160008473ffffffffffffffffffffffffffffffffffffffff1673ffffffffffffffffffffffffffffffffffffffff16815260200190815260200160002060006101000a81548160ff02191690831515021790555061042c6105cc60201b60201c565b73ffffffffffffffffffffffffffffffffffffffff168273ffffffffffffffffffffffffffffffffffffffff16847f2f8788117e7eff1d82e926ec794901d17c78024a50270940304540a733656f0d60405160405180910390a460019050610494565b600090505b92915050565b60006b204fce5e3e250261100000006104b76105d460201b60201c565b836104c29190610f35565b1115610503576040517f08c379a00000000000000000000000000000000000000000000000000000000081526004016104fa90610fb5565b60405180910390fd5b61051383836105de60201b60201c565b818373ffffffffffffffffffffffffffffffffffffffff167fcda531bfd68624f13205c0a23cd4d5a7f09792cbb399603114f2b04aaa1bf5cf60405160405180910390a36001905092915050565b60006005600084815260200190815260200160002060000160008373ffffffffffffffffffffffffffffffffffffffff1673ffffffffffffffffffffffffffffffffffffffff16815260200190815260200160002060009054906101000a900460ff16905092915050565b600033905090565b6000600254905090565b600073ffffffffffffffffffffffffffffffffffffffff168273ffffffffffffffffffffffffffffffffffffffff16036106505760006040517fec442f050000000000000000000000000000000000000000000000000000000081526004016106479190610fe4565b60405180910390fd5b6106626000838361066660201b60201c565b5050565b600073ffffffffffffffffffffffffffffffffffffffff168373ffffffffffffffffffffffffffffffffffffffff16036106b85780600260008282546106ac9190610f35565b9250508190555061078b565b60008060008573ffffffffffffffffffffffffffffffffffffffff1673ffffffffffffffffffffffffffffffffffffffff16815260200190815260200160002054905081811015610744578381836040517fe450d38c00000000000000000000000000000000000000000000000000000000815260040161073b9392919061100e565b60405180910390fd5b8181036000808673ffffffffffffffffffffffffffffffffffffffff1673ffffffffffffffffffffffffffffffffffffffff16815260200190815260200160002081905550505b600073ffffffffffffffffffffffffffffffffffffffff168273ffffffffffffffffffffffffffffffffffffffff16036107d45780600260008282540392505081905550610821565b806000808473ffffffffffffffffffffffffffffffffffffffff1673ffffffffffffffffffffffffffffffffffffffff168152602001908152602001600020600082825401925050819055505b8173ffffffffffffffffffffffffffffffffffffffff168373ffffffffffffffffffffffffffffffffffffffff167fddf252ad1be2c89b69c2b068fc378daa952ba7f163c4a11628f55a4df523b3ef8360405161087e9190611045565b60405180910390a3505050565b6000604051905090565b600080fd5b600080fd5b600080fd5b6000601f19601f8301169050919050565b7f4e487b7100000000000000000000000000000000000000000000000000000000600052604160045260246000fd5b6108ed826108a4565b810181811067ffffffffffffffff8211171561090c5761090b6108b5565b5b80604052505050565b600061091f61088b565b905061092b82826108e4565b919050565b600067ffffffffffffffff82111561094b5761094a6108b5565b5b602082029050602081019050919050565b600080fd5b600073ffffffffffffffffffffffffffffffffffffffff82169050919050565b600061098c82610961565b9050919050565b61099c81610981565b81146109a757600080fd5b50565b6000815190506109b981610993565b92915050565b60006109d26109cd84610930565b610915565b905080838252602082019050602084028301858111156109f5576109f461095c565b5b835b81811015610a1e5780610a0a88826109aa565b8452602084019350506020810190506109f7565b5050509392505050565b600082601f830112610a3d57610a3c61089f565b5b8151610a4d8482602086016109bf565b91505092915050565b600060208284031215610a6c57610a6b610895565b5b600082015167ffffffffffffffff811115610a8a57610a8961089a565b5b610a9684828501610a28565b91505092915050565b600081519050919050565b7f4e487b7100000000000000000000000000000000000000000000000000000000600052602260045260246000fd5b60006002820490506001821680610af157607f821691505b602082108103610b0457610b03610aaa565b5b50919050565b60008190508160005260206000209050919050565b60006020601f8301049050919050565b600082821b905092915050565b600060088302610b6c7fffffffffffffffffffffffffffffffffffffffffffffffffffffffffffffffff82610b2f565b610b768683610b2f565b95508019841693508086168417925050509392505050565b6000819050919050565b6000819050919050565b6000610bbd610bb8610bb384610b8e565b610b98565b610b8e565b9050919050565b6000819050919050565b610bd783610ba2565b610beb610be382610bc4565b848454610b3c565b825550505050565b600090565b610c00610bf3565b610c0b818484610bce565b505050565b5b81811015610c2f57610c24600082610bf8565b600181019050610c11565b5050565b601f821115610c7457610c4581610b0a565b610c4e84610b1f565b81016020851015610c5d578190505b610c71610c6985610b1f565b830182610c10565b50505b505050565b600082821c905092915050565b6000610c9760001984600802610c79565b1980831691505092915050565b6000610cb08383610c86565b9150826002028217905092915050565b610cc982610a9f565b67ffffffffffffffff811115610ce257610ce16108b5565b5b610cec8254610ad9565b610cf7828285610c33565b600060209050601f831160018114610d2a5760008415610d18578287015190505b610d228582610ca4565b865550610d8a565b601f198416610d3886610b0a565b60005b82811015610d6057848901518255600182019150602085019450602081019050610d3b565b86831015610d7d5784890151610d79601f891682610c86565b8355505b6001600288020188555050505b505050505050565b600082825260208201905092915050565b7f4174206c6561737420342072657669657765727320617265207265717569726560008201527f6400000000000000000000000000000000000000000000000000000000000000602082015250565b6000610dff602183610d92565b9150610e0a82610da3565b604082019050919050565b60006020820190508181036000830152610e2e81610df2565b9050919050565b7f4e487b7100000000000000000000000000000000000000000000000000000000600052603260045260246000fd5b7f4e487b7100000000000000000000000000000000000000000000000000000000600052601160045260246000fd5b6000610e9e82610b8e565b9150610ea983610b8e565b9250828202610eb781610b8e565b91508282048414831517610ece57610ecd610e64565b5b5092915050565b7f4e487b7100000000000000000000000000000000000000000000000000000000600052601260045260246000fd5b6000610f0f82610b8e565b9150610f1a83610b8e565b925082610f2a57610f29610ed5565b5b828204905092915050565b6000610f4082610b8e565b9150610f4b83610b8e565b9250828201905080821115610f6357610f62610e64565b5b92915050565b7f4c696d6974204578636565646564210000000000000000000000000000000000600082015250565b6000610f9f600f83610d92565b9150610faa82610f69565b602082019050919050565b60006020820190508181036000830152610fce81610f92565b9050919050565b610fde81610981565b82525050565b6000602082019050610ff96000830184610fd5565b92915050565b61100881610b8e565b82525050565b60006060820190506110236000830186610fd5565b6110306020830185610fff565b61103d6040830184610fff565b949350505050565b600060208201905061105a6000830184610fff565b92915050565b60805160a051613ac06110b660003960008181610b8c01528181611280015281816119e601528181611a7b0152611ce301526000818161168b01528181611a0701528181611a460152611b3e0152613ac06000f3fe608060405234801561001057600080fd5b506004361061025e5760003560e01c806373a82b5f11610146578063bad0dd65116100c3578063d547741f11610087578063d547741f14610764578063dd62ed3e14610780578063dfed1348146107b0578063e1758bd8146107ce578063e4d7d6dc146107ec578063fdc6258a1461080a5761025e565b8063bad0dd65146106c2578063c31c9c07146106de578063c491b04c146106fc578063c9442dac1461072c578063cd7711f4146107485761025e565b806395d89b411161010a57806395d89b411461061c578063992642e51461063a578063a217fddf14610658578063a694fc3a14610676578063a9059cbb146106925761025e565b806373a82b5f1461056457806373f273fc146105805780637b0a47ee146105b0578063817b1cd2146105ce57806391d14854146105ec5761025e565b80632e17de78116101df57806336568abe116101a357806336568abe1461048b5780633b129a56146104a757806340932bf8146104c55780634d6ca5d5146104fa57806352994e2f1461051657806370a08231146105345761025e565b80632e17de78146103f95780632f2ff15d14610415578063313ce56714610431578063328ad4671461044f57806332cb6b0c1461046d5761025e565b806319656f7b1161022657806319656f7b1461032f57806319f102ec1461034b57806323b872dd1461037b578063248a9ca3146103ab5780632cca9dfd146103db5761025e565b806301ffc9a71461026357806306fdde0314610293578063095ea7b3146102b15780631460fa87146102e157806318160ddd14610311575b600080fd5b61027d60048036038101906102789190612a64565b61083a565b60405161028a9190612aac565b60405180910390f35b61029b6108b4565b6040516102a89190612b57565b60405180910390f35b6102cb60048036038101906102c69190612c0d565b610946565b6040516102d89190612aac565b60405180910390f35b6102fb60048036038101906102f69190612c4d565b610969565b6040516103089190612c89565b60405180910390f35b610319610981565b6040516103269190612c89565b60405180910390f35b61034960048036038101906103449190612c4d565b61098b565b005b61036560048036038101906103609190612ca4565b6109c7565b6040516103729190612ce0565b60405180910390f35b61039560048036038101906103909190612cfb565b610a06565b6040516103a29190612aac565b60405180910390f35b6103c560048036038101906103c09190612d84565b610a35565b6040516103d29190612dc0565b60405180910390f35b6103e3610a55565b6040516103f09190612c89565b60405180910390f35b610413600480360381019061040e9190612ca4565b610a7d565b005b61042f600480360381019061042a9190612ddb565b610c5d565b005b610439610c7f565b6040516104469190612e37565b60405180910390f35b610457610c88565b6040516104649190612dc0565b60405180910390f35b610475610cac565b6040516104829190612c89565b60405180910390f35b6104a560048036038101906104a09190612ddb565b610cbc565b005b6104af610d37565b6040516104bc9190612dc0565b60405180910390f35b6104df60048036038101906104da9190612ca4565b610d5b565b6040516104f196959493929190612ea7565b60405180910390f35b610514600480360381019061050f9190612c4d565b610e6c565b005b61051e610ea8565b60405161052b9190612dc0565b60405180910390f35b61054e60048036038101906105499190612c4d565b610ecc565b60405161055b9190612c89565b60405180910390f35b61057e60048036038101906105799190612c4d565b610f14565b005b61059a60048036038101906105959190612c4d565b6110f8565b6040516105a79190612c89565b60405180910390f35b6105b8611110565b6040516105c59190612c89565b60405180910390f35b6105d6611116565b6040516105e39190612c89565b60405180910390f35b61060660048036038101906106019190612ddb565b61111c565b6040516106139190612aac565b60405180910390f35b610624611187565b6040516106319190612b57565b60405180910390f35b610642611219565b60405161064f9190612f6e565b60405180910390f35b610660611231565b60405161066d9190612dc0565b60405180910390f35b610690600480360381019061068b9190612ca4565b611238565b005b6106ac60048036038101906106a79190612c0d565b611367565b6040516106b99190612aac565b60405180910390f35b6106dc60048036038101906106d79190612ca4565b61138a565b005b6106e6611689565b6040516106f39190612faa565b60405180910390f35b61071660048036038101906107119190612c4d565b6116ad565b6040516107239190612aac565b60405180910390f35b61074660048036038101906107419190612c4d565b6116cd565b005b610762600480360381019061075d9190612ff1565b6119b7565b005b61077e60048036038101906107799190612ddb565b611c32565b005b61079a60048036038101906107959190613044565b611c54565b6040516107a79190612c89565b60405180910390f35b6107b8611cdb565b6040516107c59190612c89565b60405180910390f35b6107d6611ce1565b6040516107e39190612f6e565b60405180910390f35b6107f4611d05565b6040516108019190612c89565b60405180910390f35b610824600480360381019061081f9190612c4d565b611d0a565b6040516108319190612aac565b60405180910390f35b60007f7965db0b000000000000000000000000000000000000000000000000000000007bffffffffffffffffffffffffffffffffffffffffffffffffffffffff1916827bffffffffffffffffffffffffffffffffffffffffffffffffffffffff191614806108ad57506108ac82611d3d565b5b9050919050565b6060600380546108c3906130b3565b80601f01602080910402602001604051908101604052809291908181526020018280546108ef906130b3565b801561093c5780601f106109115761010080835404028352916020019161093c565b820191906000526020600020905b81548152906001019060200180831161091f57829003601f168201915b5050505050905090565b600080610951611da7565b905061095e818585611daf565b600191505092915050565b600d6020528060005260406000206000915090505481565b6000600254905090565b6000801b61099881611dc1565b6109c27fdf1425bae297c2f52b4f15d18a50b1fc8cb5b981a981b1d213ed3ff92681b64d83611dd5565b505050565b600681815481106109d757600080fd5b906000526020600020016000915054906101000a900473ffffffffffffffffffffffffffffffffffffffff1681565b600080610a11611da7565b9050610a1e858285611ec8565b610a29858585611f5d565b60019150509392505050565b600060056000838152602001908152602001600020600101549050919050565b6064600a6b204fce5e3e25026110000000610a709190613113565b610a7a9190613184565b81565b600081118015610acc5750600d60003373ffffffffffffffffffffffffffffffffffffffff1673ffffffffffffffffffffffffffffffffffffffff168152602001908152602001600020548111155b610b0b576040517f08c379a0000000000000000000000000000000000000000000000000000000008152600401610b0290613201565b60405180910390fd5b6000610b1633612051565b905081600d60003373ffffffffffffffffffffffffffffffffffffffff1673ffffffffffffffffffffffffffffffffffffffff1681526020019081526020016000206000828254610b679190613221565b9250508190555081600b6000828254610b809190613221565b92505081905550610bbd7f0000000000000000000000000000000000000000000000000000000000000000338385610bb89190613255565b6120c6565b3373ffffffffffffffffffffffffffffffffffffffff167f8108595eb6bad3acefa9da467d90cc2217686d5c5ac85460f8b7849c840645fc83604051610c039190612c89565b60405180910390a23373ffffffffffffffffffffffffffffffffffffffff167ffc30cddea38e2bf4d6ea7d3f9ed3b6ad7f176419f4963bd81318067a4aee73fe82604051610c519190612c89565b60405180910390a25050565b610c6682610a35565b610c6f81611dc1565b610c79838361221b565b50505050565b60006012905090565b7f0cec6da01a27fe07ab86bff79c774dbe9a125d8ca3c22761c68442756bf1548581565b6b204fce5e3e2502611000000081565b610cc4611da7565b73ffffffffffffffffffffffffffffffffffffffff168173ffffffffffffffffffffffffffffffffffffffff1614610d28576040517f6697b23200000000000000000000000000000000000000000000000000000000815260040160405180910390fd5b610d328282611dd5565b505050565b7fc10c77be35aff266144ed64c26a1fa104bae2f284ae99ac4a34203454704a18581565b60096020528060005260406000206000915090508060000154908060010160009054906101000a900473ffffffffffffffffffffffffffffffffffffffff16908060020160009054906101000a900473ffffffffffffffffffffffffffffffffffffffff1690806003018054610dd0906130b3565b80601f0160208091040260200160405190810160405280929190818152602001828054610dfc906130b3565b8015610e495780601f10610e1e57610100808354040283529160200191610e49565b820191906000526020600020905b815481529060010190602001808311610e2c57829003601f168201915b5050505050908060040154908060050160009054906101000a900460ff16905086565b6000801b610e7981611dc1565b610ea37fdf1425bae297c2f52b4f15d18a50b1fc8cb5b981a981b1d213ed3ff92681b64d8361221b565b505050565b7fdf1425bae297c2f52b4f15d18a50b1fc8cb5b981a981b1d213ed3ff92681b64d81565b60008060008373ffffffffffffffffffffffffffffffffffffffff1673ffffffffffffffffffffffffffffffffffffffff168152602001908152602001600020549050919050565b7fc10c77be35aff266144ed64c26a1fa104bae2f284ae99ac4a34203454704a185610f3e81611dc1565b600860008373ffffffffffffffffffffffffffffffffffffffff1673ffffffffffffffffffffffffffffffffffffffff16815260200190815260200160002060009054906101000a900460ff1615610fcb576040517f08c379a0000000000000000000000000000000000000000000000000000000008152600401610fc2906132d5565b60405180910390fd5b610ff57fc10c77be35aff266144ed64c26a1fa104bae2f284ae99ac4a34203454704a1858361221b565b506006829080600181540180825580915050600190039060005260206000200160009091909190916101000a81548173ffffffffffffffffffffffffffffffffffffffff021916908373ffffffffffffffffffffffffffffffffffffffff1602179055506001600860008473ffffffffffffffffffffffffffffffffffffffff1673ffffffffffffffffffffffffffffffffffffffff16815260200190815260200160002060006101000a81548160ff0219169083151502179055508173ffffffffffffffffffffffffffffffffffffffff167fe1cb5e1230cc02e62c60b81c1aa5ade512f3eac296edb28628b4cf344f47f93160405160405180910390a25050565b600e6020528060005260406000206000915090505481565b600c5481565b600b5481565b60006005600084815260200190815260200160002060000160008373ffffffffffffffffffffffffffffffffffffffff1673ffffffffffffffffffffffffffffffffffffffff16815260200190815260200160002060009054906101000a900460ff16905092915050565b606060048054611196906130b3565b80601f01602080910402602001604051908101604052809291908181526020018280546111c2906130b3565b801561120f5780601f106111e45761010080835404028352916020019161120f565b820191906000526020600020905b8154815290600101906020018083116111f257829003601f168201915b5050505050905090565b7307865c6e87b9f70255377e024ace6630c1eaa37f81565b6000801b81565b6000811161127b576040517f08c379a000000000000000000000000000000000000000000000000000000000815260040161127290613341565b60405180910390fd5b6112a77f000000000000000000000000000000000000000000000000000000000000000033308461230d565b80600d60003373ffffffffffffffffffffffffffffffffffffffff1673ffffffffffffffffffffffffffffffffffffffff16815260200190815260200160002060008282546112f69190613255565b9250508190555080600b600082825461130f9190613255565b925050819055503373ffffffffffffffffffffffffffffffffffffffff167f0a7bb2e28cc4698aac06db79cf9163bfcc20719286cf59fa7d492ceda1b8edc28260405161135c9190612c89565b60405180910390a250565b600080611372611da7565b905061137f818585611f5d565b600191505092915050565b7fdf1425bae297c2f52b4f15d18a50b1fc8cb5b981a981b1d213ed3ff92681b64d6113b481611dc1565b60006009600084815260200190815260200160002090508060050160009054906101000a900460ff161561141d576040517f08c379a0000000000000000000000000000000000000000000000000000000008152600401611414906133ad565b60405180910390fd5b8060060160003373ffffffffffffffffffffffffffffffffffffffff1673ffffffffffffffffffffffffffffffffffffffff16815260200190815260200160002060009054906101000a900460ff16156114ac576040517f08c379a00000000000000000000000000000000000000000000000000000000081526004016114a390613419565b60405180910390fd5b60018160060160003373ffffffffffffffffffffffffffffffffffffffff1673ffffffffffffffffffffffffffffffffffffffff16815260200190815260200160002060006101000a81548160ff02191690831515021790555080600401600081548092919061151b90613439565b9190505550827f5d4ccf5f92566d140246f4ae3b9cb35dc06fff109a7748602ad77f6260fd9a61336040516115509190612ce0565b60405180910390a260038160040154106116845760008160020160009054906101000a900473ffffffffffffffffffffffffffffffffffffffff1673ffffffffffffffffffffffffffffffffffffffff16826003016040516115b29190613524565b6000604051808303816000865af19150503d80600081146115ef576040519150601f19603f3d011682016040523d82523d6000602084013e6115f4565b606091505b5050905080611638576040517f08c379a000000000000000000000000000000000000000000000000000000000815260040161162f90613587565b60405180910390fd5b60018260050160006101000a81548160ff021916908315150217905550837f7770356c29230b95943aec59d47ead11eb426a728bf5b57f7fd8597f3c0e29ba60405160405180910390a2505b505050565b7f000000000000000000000000000000000000000000000000000000000000000081565b60086020528060005260406000206000915054906101000a900460ff1681565b6000801b6116da81611dc1565b600860008373ffffffffffffffffffffffffffffffffffffffff1673ffffffffffffffffffffffffffffffffffffffff16815260200190815260200160002060009054906101000a900460ff16611766576040517f08c379a000000000000000000000000000000000000000000000000000000000815260040161175d906135f3565b60405180910390fd5b60005b6006805490508110156118ec578273ffffffffffffffffffffffffffffffffffffffff16600682815481106117a1576117a0613613565b5b9060005260206000200160009054906101000a900473ffffffffffffffffffffffffffffffffffffffff1673ffffffffffffffffffffffffffffffffffffffff16036118df57600660016006805490506117fb9190613221565b8154811061180c5761180b613613565b5b9060005260206000200160009054906101000a900473ffffffffffffffffffffffffffffffffffffffff166006828154811061184b5761184a613613565b5b9060005260206000200160006101000a81548173ffffffffffffffffffffffffffffffffffffffff021916908373ffffffffffffffffffffffffffffffffffffffff16021790555060068054806118a5576118a4613642565b5b6001900381819060005260206000200160006101000a81549073ffffffffffffffffffffffffffffffffffffffff021916905590556118ec565b8080600101915050611769565b506000600860008473ffffffffffffffffffffffffffffffffffffffff1673ffffffffffffffffffffffffffffffffffffffff16815260200190815260200160002060006101000a81548160ff02191690831515021790555061196f7fc10c77be35aff266144ed64c26a1fa104bae2f284ae99ac4a34203454704a18583611dd5565b508173ffffffffffffffffffffffffffffffffffffffff167f55dba9d79522b91b615629d5f3b10c2fad2d258f1768614f4a52e937ada0d0ba60405160405180910390a25050565b7f0cec6da01a27fe07ab86bff79c774dbe9a125d8ca3c22761c68442756bf154856119e181611dc1565b611a2c7f00000000000000000000000000000000000000000000000000000000000000007f000000000000000000000000000000000000000000000000000000000000000086612465565b611a6b7307865c6e87b9f70255377e024ace6630c1eaa37f7f000000000000000000000000000000000000000000000000000000000000000085612465565b60006040518061010001604052807f000000000000000000000000000000000000000000000000000000000000000073ffffffffffffffffffffffffffffffffffffffff1681526020017307865c6e87b9f70255377e024ace6630c1eaa37f73ffffffffffffffffffffffffffffffffffffffff168152602001610bb862ffffff1681526020013073ffffffffffffffffffffffffffffffffffffffff1681526020014281526020018681526020018581526020018473ffffffffffffffffffffffffffffffffffffffff1681525090507f000000000000000000000000000000000000000000000000000000000000000073ffffffffffffffffffffffffffffffffffffffff1663414bf389826040518263ffffffff1660e01b8152600401611b95919061375e565b6020604051808303816000875af1158015611bb4573d6000803e3d6000fd5b505050506040513d601f19601f82011682018060405250810190611bd8919061378f565b5084600a6000828254611beb9190613255565b925050819055507f38f8a0c92f4c5b0b6877f878cb4c0c8d348a47b76d716c8e78f425043df9515b8585604051611c239291906137bc565b60405180910390a15050505050565b611c3b82610a35565b611c4481611dc1565b611c4e8383611dd5565b50505050565b6000600160008473ffffffffffffffffffffffffffffffffffffffff1673ffffffffffffffffffffffffffffffffffffffff16815260200190815260200160002060008373ffffffffffffffffffffffffffffffffffffffff1673ffffffffffffffffffffffffffffffffffffffff16815260200190815260200160002054905092915050565b600a5481565b7f000000000000000000000000000000000000000000000000000000000000000081565b600381565b6000611d367fc10c77be35aff266144ed64c26a1fa104bae2f284ae99ac4a34203454704a1858361111c565b9050919050565b60007f01ffc9a7000000000000000000000000000000000000000000000000000000007bffffffffffffffffffffffffffffffffffffffffffffffffffffffff1916827bffffffffffffffffffffffffffffffffffffffffffffffffffffffff1916149050919050565b600033905090565b611dbc83838360016125ba565b505050565b611dd281611dcd611da7565b612791565b50565b6000611de1838361111c565b15611ebd5760006005600085815260200190815260200160002060000160008473ffffffffffffffffffffffffffffffffffffffff1673ffffffffffffffffffffffffffffffffffffffff16815260200190815260200160002060006101000a81548160ff021916908315150217905550611e5a611da7565b73ffffffffffffffffffffffffffffffffffffffff168273ffffffffffffffffffffffffffffffffffffffff16847ff6391f5c32d9c69d2a47ea670b442974b53935d1edc7fd64eb21e047a839171b60405160405180910390a460019050611ec2565b600090505b92915050565b6000611ed48484611c54565b90507fffffffffffffffffffffffffffffffffffffffffffffffffffffffffffffffff811015611f575781811015611f47578281836040517ffb8f41b2000000000000000000000000000000000000000000000000000000008152600401611f3e939291906137e5565b60405180910390fd5b611f56848484840360006125ba565b5b50505050565b600073ffffffffffffffffffffffffffffffffffffffff168373ffffffffffffffffffffffffffffffffffffffff1603611fcf5760006040517f96c6fd1e000000000000000000000000000000000000000000000000000000008152600401611fc69190612ce0565b60405180910390fd5b600073ffffffffffffffffffffffffffffffffffffffff168273ffffffffffffffffffffffffffffffffffffffff16036120415760006040517fec442f050000000000000000000000000000000000000000000000000000000081526004016120389190612ce0565b60405180910390fd5b61204c8383836127e2565b505050565b600080600b540361206557600090506120c1565b600b546003600d60008573ffffffffffffffffffffffffffffffffffffffff1673ffffffffffffffffffffffffffffffffffffffff168152602001908152602001600020546120b49190613113565b6120be9190613184565b90505b919050565b6000808473ffffffffffffffffffffffffffffffffffffffff1663a9059cbb60e01b85856040516024016120fb92919061381c565b604051602081830303815290604052907bffffffffffffffffffffffffffffffffffffffffffffffffffffffff19166020820180517bffffffffffffffffffffffffffffffffffffffffffffffffffffffff83818316178352505050506040516121659190613876565b6000604051808303816000865af19150503d80600081146121a2576040519150601f19603f3d011682016040523d82523d6000602084013e6121a7565b606091505b50915091508180156121d557506000815114806121d45750808060200190518101906121d391906138b9565b5b5b612214576040517f08c379a000000000000000000000000000000000000000000000000000000000815260040161220b90613932565b60405180910390fd5b5050505050565b6000612227838361111c565b6123025760016005600085815260200190815260200160002060000160008473ffffffffffffffffffffffffffffffffffffffff1673ffffffffffffffffffffffffffffffffffffffff16815260200190815260200160002060006101000a81548160ff02191690831515021790555061229f611da7565b73ffffffffffffffffffffffffffffffffffffffff168273ffffffffffffffffffffffffffffffffffffffff16847f2f8788117e7eff1d82e926ec794901d17c78024a50270940304540a733656f0d60405160405180910390a460019050612307565b600090505b92915050565b6000808573ffffffffffffffffffffffffffffffffffffffff166323b872dd60e01b86868660405160240161234493929190613952565b604051602081830303815290604052907bffffffffffffffffffffffffffffffffffffffffffffffffffffffff19166020820180517bffffffffffffffffffffffffffffffffffffffffffffffffffffffff83818316178352505050506040516123ae9190613876565b6000604051808303816000865af19150503d80600081146123eb576040519150601f19603f3d011682016040523d82523d6000602084013e6123f0565b606091505b509150915081801561241e575060008151148061241d57508080602001905181019061241c91906138b9565b5b5b61245d576040517f08c379a0000000000000000000000000000000000000000000000000000000008152600401612454906139d5565b60405180910390fd5b505050505050565b6000808473ffffffffffffffffffffffffffffffffffffffff1663095ea7b360e01b858560405160240161249a92919061381c565b604051602081830303815290604052907bffffffffffffffffffffffffffffffffffffffffffffffffffffffff19166020820180517bffffffffffffffffffffffffffffffffffffffffffffffffffffffff83818316178352505050506040516125049190613876565b6000604051808303816000865af19150503d8060008114612541576040519150601f19603f3d011682016040523d82523d6000602084013e612546565b606091505b5091509150818015612574575060008151148061257357508080602001905181019061257291906138b9565b5b5b6125b3576040517f08c379a00000000000000000000000000000000000000000000000000000000081526004016125aa90613a41565b60405180910390fd5b5050505050565b600073ffffffffffffffffffffffffffffffffffffffff168473ffffffffffffffffffffffffffffffffffffffff160361262c5760006040517fe602df050000000000000000000000000000000000000000000000000000000081526004016126239190612ce0565b60405180910390fd5b600073ffffffffffffffffffffffffffffffffffffffff168373ffffffffffffffffffffffffffffffffffffffff160361269e5760006040517f94280d620000000000000000000000000000000000000000000000000000000081526004016126959190612ce0565b60405180910390fd5b81600160008673ffffffffffffffffffffffffffffffffffffffff1673ffffffffffffffffffffffffffffffffffffffff16815260200190815260200160002060008573ffffffffffffffffffffffffffffffffffffffff1673ffffffffffffffffffffffffffffffffffffffff16815260200190815260200160002081905550801561278b578273ffffffffffffffffffffffffffffffffffffffff168473ffffffffffffffffffffffffffffffffffffffff167f8c5be1e5ebec7d5bd14f71427d1e84f3dd0314c0f7b2291e5b200ac8c7c3b925846040516127829190612c89565b60405180910390a35b50505050565b61279b828261111c565b6127de5780826040517fe2517d3f0000000000000000000000000000000000000000000000000000000081526004016127d5929190613a61565b60405180910390fd5b5050565b600073ffffffffffffffffffffffffffffffffffffffff168373ffffffffffffffffffffffffffffffffffffffff16036128345780600260008282546128289190613255565b92505081905550612907565b60008060008573ffffffffffffffffffffffffffffffffffffffff1673ffffffffffffffffffffffffffffffffffffffff168152602001908152602001600020549050818110156128c0578381836040517fe450d38c0000000000000000000000000000000000000000000000000000000081526004016128b7939291906137e5565b60405180910390fd5b8181036000808673ffffffffffffffffffffffffffffffffffffffff1673ffffffffffffffffffffffffffffffffffffffff16815260200190815260200160002081905550505b600073ffffffffffffffffffffffffffffffffffffffff168273ffffffffffffffffffffffffffffffffffffffff1603612950578060026000828254039250508190555061299d565b806000808473ffffffffffffffffffffffffffffffffffffffff1673ffffffffffffffffffffffffffffffffffffffff168152602001908152602001600020600082825401925050819055505b8173ffffffffffffffffffffffffffffffffffffffff168373ffffffffffffffffffffffffffffffffffffffff167fddf252ad1be2c89b69c2b068fc378daa952ba7f163c4a11628f55a4df523b3ef836040516129fa9190612c89565b60405180910390a3505050565b600080fd5b60007fffffffff0000000000000000000000000000000000000000000000000000000082169050919050565b612a4181612a0c565b8114612a4c57600080fd5b50565b600081359050612a5e81612a38565b92915050565b600060208284031215612a7a57612a79612a07565b5b6000612a8884828501612a4f565b91505092915050565b60008115159050919050565b612aa681612a91565b82525050565b6000602082019050612ac16000830184612a9d565b92915050565b600081519050919050565b600082825260208201905092915050565b60005b83811015612b01578082015181840152602081019050612ae6565b60008484015250505050565b6000601f19601f8301169050919050565b6000612b2982612ac7565b612b338185612ad2565b9350612b43818560208601612ae3565b612b4c81612b0d565b840191505092915050565b60006020820190508181036000830152612b718184612b1e565b905092915050565b600073ffffffffffffffffffffffffffffffffffffffff82169050919050565b6000612ba482612b79565b9050919050565b612bb481612b99565b8114612bbf57600080fd5b50565b600081359050612bd181612bab565b92915050565b6000819050919050565b612bea81612bd7565b8114612bf557600080fd5b50565b600081359050612c0781612be1565b92915050565b60008060408385031215612c2457612c23612a07565b5b6000612c3285828601612bc2565b9250506020612c4385828601612bf8565b9150509250929050565b600060208284031215612c6357612c62612a07565b5b6000612c7184828501612bc2565b91505092915050565b612c8381612bd7565b82525050565b6000602082019050612c9e6000830184612c7a565b92915050565b600060208284031215612cba57612cb9612a07565b5b6000612cc884828501612bf8565b91505092915050565b612cda81612b99565b82525050565b6000602082019050612cf56000830184612cd1565b92915050565b600080600060608486031215612d1457612d13612a07565b5b6000612d2286828701612bc2565b9350506020612d3386828701612bc2565b9250506040612d4486828701612bf8565b9150509250925092565b6000819050919050565b612d6181612d4e565b8114612d6c57600080fd5b50565b600081359050612d7e81612d58565b92915050565b600060208284031215612d9a57612d99612a07565b5b6000612da884828501612d6f565b91505092915050565b612dba81612d4e565b82525050565b6000602082019050612dd56000830184612db1565b92915050565b60008060408385031215612df257612df1612a07565b5b6000612e0085828601612d6f565b9250506020612e1185828601612bc2565b9150509250929050565b600060ff82169050919050565b612e3181612e1b565b82525050565b6000602082019050612e4c6000830184612e28565b92915050565b600081519050919050565b600082825260208201905092915050565b6000612e7982612e52565b612e838185612e5d565b9350612e93818560208601612ae3565b612e9c81612b0d565b840191505092915050565b600060c082019050612ebc6000830189612c7a565b612ec96020830188612cd1565b612ed66040830187612cd1565b8181036060830152612ee88186612e6e565b9050612ef76080830185612c7a565b612f0460a0830184612a9d565b979650505050505050565b6000819050919050565b6000612f34612f2f612f2a84612b79565b612f0f565b612b79565b9050919050565b6000612f4682612f19565b9050919050565b6000612f5882612f3b565b9050919050565b612f6881612f4d565b82525050565b6000602082019050612f836000830184612f5f565b92915050565b6000612f9482612f3b565b9050919050565b612fa481612f89565b82525050565b6000602082019050612fbf6000830184612f9b565b92915050565b612fce81612b79565b8114612fd957600080fd5b50565b600081359050612feb81612fc5565b92915050565b60008060006060848603121561300a57613009612a07565b5b600061301886828701612bf8565b935050602061302986828701612bf8565b925050604061303a86828701612fdc565b9150509250925092565b6000806040838503121561305b5761305a612a07565b5b600061306985828601612bc2565b925050602061307a85828601612bc2565b9150509250929050565b7f4e487b7100000000000000000000000000000000000000000000000000000000600052602260045260246000fd5b600060028204905060018216806130cb57607f821691505b6020821081036130de576130dd613084565b5b50919050565b7f4e487b7100000000000000000000000000000000000000000000000000000000600052601160045260246000fd5b600061311e82612bd7565b915061312983612bd7565b925082820261313781612bd7565b9150828204841483151761314e5761314d6130e4565b5b5092915050565b7f4e487b7100000000000000000000000000000000000000000000000000000000600052601260045260246000fd5b600061318f82612bd7565b915061319a83612bd7565b9250826131aa576131a9613155565b5b828204905092915050565b7f496e76616c696420756e7374616b6520616d6f756e7400000000000000000000600082015250565b60006131eb601683612ad2565b91506131f6826131b5565b602082019050919050565b6000602082019050818103600083015261321a816131de565b9050919050565b600061322c82612bd7565b915061323783612bd7565b925082820390508181111561324f5761324e6130e4565b5b92915050565b600061326082612bd7565b915061326b83612bd7565b9250828201905080821115613283576132826130e4565b5b92915050565b7f416c726561647920696e20726576696577657220706f6f6c0000000000000000600082015250565b60006132bf601883612ad2565b91506132ca82613289565b602082019050919050565b600060208201905081810360008301526132ee816132b2565b9050919050565b7f496e76616c6964207374616b6520616d6f756e74000000000000000000000000600082015250565b600061332b601483612ad2565b9150613336826132f5565b602082019050919050565b6000602082019050818103600083015261335a8161331e565b9050919050565b7f50726f706f73616c20616c726561647920657865637574656400000000000000600082015250565b6000613397601983612ad2565b91506133a282613361565b602082019050919050565b600060208201905081810360008301526133c68161338a565b9050919050565b7f416c726561647920617070726f76656400000000000000000000000000000000600082015250565b6000613403601083612ad2565b915061340e826133cd565b602082019050919050565b60006020820190508181036000830152613432816133f6565b9050919050565b600061344482612bd7565b91507fffffffffffffffffffffffffffffffffffffffffffffffffffffffffffffffff8203613476576134756130e4565b5b600182019050919050565b600081905092915050565b60008190508160005260206000209050919050565b600081546134ae816130b3565b6134b88186613481565b945060018216600081146134d357600181146134e85761351b565b60ff198316865281151582028601935061351b565b6134f18561348c565b60005b83811015613513578154818901526001820191506020810190506134f4565b838801955050505b50505092915050565b600061353082846134a1565b915081905092915050565b7f50726f706f73616c20657865637574696f6e206661696c656400000000000000600082015250565b6000613571601983612ad2565b915061357c8261353b565b602082019050919050565b600060208201905081810360008301526135a081613564565b9050919050565b7f4e6f7420696e20726576696577657220706f6f6c000000000000000000000000600082015250565b60006135dd601483612ad2565b91506135e8826135a7565b602082019050919050565b6000602082019050818103600083015261360c816135d0565b9050919050565b7f4e487b7100000000000000000000000000000000000000000000000000000000600052603260045260246000fd5b7f4e487b7100000000000000000000000000000000000000000000000000000000600052603160045260246000fd5b61367a81612b99565b82525050565b600062ffffff82169050919050565b61369881613680565b82525050565b6136a781612bd7565b82525050565b6136b681612b79565b82525050565b610100820160008201516136d36000850182613671565b5060208201516136e66020850182613671565b5060408201516136f9604085018261368f565b50606082015161370c6060850182613671565b50608082015161371f608085018261369e565b5060a082015161373260a085018261369e565b5060c082015161374560c085018261369e565b5060e082015161375860e08501826136ad565b50505050565b60006101008201905061377460008301846136bc565b92915050565b60008151905061378981612be1565b92915050565b6000602082840312156137a5576137a4612a07565b5b60006137b38482850161377a565b91505092915050565b60006040820190506137d16000830185612c7a565b6137de6020830184612c7a565b9392505050565b60006060820190506137fa6000830186612cd1565b6138076020830185612c7a565b6138146040830184612c7a565b949350505050565b60006040820190506138316000830185612cd1565b61383e6020830184612c7a565b9392505050565b600061385082612e52565b61385a8185613481565b935061386a818560208601612ae3565b80840191505092915050565b60006138828284613845565b915081905092915050565b61389681612a91565b81146138a157600080fd5b50565b6000815190506138b38161388d565b92915050565b6000602082840312156138cf576138ce612a07565b5b60006138dd848285016138a4565b91505092915050565b7f5354000000000000000000000000000000000000000000000000000000000000600082015250565b600061391c600283612ad2565b9150613927826138e6565b602082019050919050565b6000602082019050818103600083015261394b8161390f565b9050919050565b60006060820190506139676000830186612cd1565b6139746020830185612cd1565b6139816040830184612c7a565b949350505050565b7f5354460000000000000000000000000000000000000000000000000000000000600082015250565b60006139bf600383612ad2565b91506139ca82613989565b602082019050919050565b600060208201905081810360008301526139ee816139b2565b9050919050565b7f5341000000000000000000000000000000000000000000000000000000000000600082015250565b6000613a2b600283612ad2565b9150613a36826139f5565b602082019050919050565b60006020820190508181036000830152613a5a81613a1e565b9050919050565b6000604082019050613a766000830185612cd1565b613a836020830184612db1565b939250505056fea264697066735822122036c21a3548cc0c842d6dae7498409d43b745925ee2edcd4b454515941c9a818d64736f6c634300081b0033",
  "linkReferences": {},
  "deployedLinkReferences": {}
}