{
  "_format": "hh-sol-artifact-1",
  "contractName": "EcosystemDiamond",
  "sourceName": "contracts/DiamondProxy/EcosystemDiamond.sol",
  "abi": [
    {
      "inputs": [
        {
          "internalType": "address[]",
          "name": "_reviewers",
          "type": "address[]"
        },
        {
          "internalType": "address",
          "name": "_owner",
          "type": "address"
        }
      ],
      "stateMutability": "nonpayable",
      "type": "constructor"
    },
    {
      "inputs": [],
      "name": "AccessControlBadConfirmation",
      "type": "error"
    },
    {
      "inputs": [
        {
          "internalType": "address",
          "name": "account",
          "type": "address"
        },
        {
          "internalType": "bytes32",
          "name": "neededRole",
          "type": "bytes32"
        }
      ],
      "name": "AccessControlUnauthorizedAccount",
      "type": "error"
    },
    {
      "inputs": [
        {
          "internalType": "address",
          "name": "spender",
          "type": "address"
        },
        {
          "internalType": "uint256",
          "name": "allowance",
          "type": "uint256"
        },
        {
          "internalType": "uint256",
          "name": "needed",
          "type": "uint256"
        }
      ],
      "name": "ERC20InsufficientAllowance",
      "type": "error"
    },
    {
      "inputs": [
        {
          "internalType": "address",
          "name": "sender",
          "type": "address"
        },
        {
          "internalType": "uint256",
          "name": "balance",
          "type": "uint256"
        },
        {
          "internalType": "uint256",
          "name": "needed",
          "type": "uint256"
        }
      ],
      "name": "ERC20InsufficientBalance",
      "type": "error"
    },
    {
      "inputs": [
        {
          "internalType": "address",
          "name": "approver",
          "type": "address"
        }
      ],
      "name": "ERC20InvalidApprover",
      "type": "error"
    },
    {
      "inputs": [
        {
          "internalType": "address",
          "name": "receiver",
          "type": "address"
        }
      ],
      "name": "ERC20InvalidReceiver",
      "type": "error"
    },
    {
      "inputs": [
        {
          "internalType": "address",
          "name": "sender",
          "type": "address"
        }
      ],
      "name": "ERC20InvalidSender",
      "type": "error"
    },
    {
      "inputs": [
        {
          "internalType": "address",
          "name": "spender",
          "type": "address"
        }
      ],
      "name": "ERC20InvalidSpender",
      "type": "error"
    },
    {
      "anonymous": false,
      "inputs": [
        {
          "indexed": true,
          "internalType": "address",
          "name": "owner",
          "type": "address"
        },
        {
          "indexed": true,
          "internalType": "address",
          "name": "spender",
          "type": "address"
        },
        {
          "indexed": false,
          "internalType": "uint256",
          "name": "value",
          "type": "uint256"
        }
      ],
      "name": "Approval",
      "type": "event"
    },
    {
      "anonymous": false,
      "inputs": [
        {
          "indexed": true,
          "internalType": "address",
          "name": "_account",
          "type": "address"
        },
        {
          "indexed": false,
          "internalType": "uint256",
          "name": "_amount",
          "type": "uint256"
        }
      ],
      "name": "BurnSuccess",
      "type": "event"
    },
    {
      "anonymous": false,
      "inputs": [
        {
          "indexed": true,
          "internalType": "address",
          "name": "_to",
          "type": "address"
        },
        {
          "indexed": true,
          "internalType": "uint256",
          "name": "_amount",
          "type": "uint256"
        }
      ],
      "name": "MintSuccess",
      "type": "event"
    },
    {
      "anonymous": false,
      "inputs": [
        {
          "indexed": true,
          "internalType": "uint256",
          "name": "proposalId",
          "type": "uint256"
        },
        {
          "indexed": false,
          "internalType": "address",
          "name": "approver",
          "type": "address"
        }
      ],
      "name": "MultiSigProposalApproved",
      "type": "event"
    },
    {
      "anonymous": false,
      "inputs": [
        {
          "indexed": true,
          "internalType": "uint256",
          "name": "proposalId",
          "type": "uint256"
        },
        {
          "indexed": false,
          "internalType": "address",
          "name": "proposer",
          "type": "address"
        }
      ],
      "name": "MultiSigProposalCreated",
      "type": "event"
    },
    {
      "anonymous": false,
      "inputs": [
        {
          "indexed": true,
          "internalType": "uint256",
          "name": "proposalId",
          "type": "uint256"
        }
      ],
      "name": "MultiSigProposalExecuted",
      "type": "event"
    },
    {
      "anonymous": false,
      "inputs": [
        {
          "indexed": true,
          "internalType": "address",
          "name": "reviewer",
          "type": "address"
        }
      ],
      "name": "ReviewerAddedToPool",
      "type": "event"
    },
    {
      "anonymous": false,
      "inputs": [
        {
          "indexed": true,
          "internalType": "address",
          "name": "reviewer",
          "type": "address"
        }
      ],
      "name": "ReviewerRemovedFromPool",
      "type": "event"
    },
    {
      "anonymous": false,
      "inputs": [
        {
          "indexed": true,
          "internalType": "bytes32",
          "name": "role",
          "type": "bytes32"
        },
        {
          "indexed": true,
          "internalType": "bytes32",
          "name": "previousAdminRole",
          "type": "bytes32"
        },
        {
          "indexed": true,
          "internalType": "bytes32",
          "name": "newAdminRole",
          "type": "bytes32"
        }
      ],
      "name": "RoleAdminChanged",
      "type": "event"
    },
    {
      "anonymous": false,
      "inputs": [
        {
          "indexed": true,
          "internalType": "bytes32",
          "name": "role",
          "type": "bytes32"
        },
        {
          "indexed": true,
          "internalType": "address",
          "name": "account",
          "type": "address"
        },
        {
          "indexed": true,
          "internalType": "address",
          "name": "sender",
          "type": "address"
        }
      ],
      "name": "RoleGranted",
      "type": "event"
    },
    {
      "anonymous": false,
      "inputs": [
        {
          "indexed": true,
          "internalType": "bytes32",
          "name": "role",
          "type": "bytes32"
        },
        {
          "indexed": true,
          "internalType": "address",
          "name": "account",
          "type": "address"
        },
        {
          "indexed": true,
          "internalType": "address",
          "name": "sender",
          "type": "address"
        }
      ],
      "name": "RoleRevoked",
      "type": "event"
    },
    {
      "anonymous": false,
      "inputs": [
        {
          "indexed": true,
          "internalType": "address",
          "name": "from",
          "type": "address"
        },
        {
          "indexed": true,
          "internalType": "address",
          "name": "to",
          "type": "address"
        },
        {
          "indexed": false,
          "internalType": "uint256",
          "name": "value",
          "type": "uint256"
        }
      ],
      "name": "Transfer",
      "type": "event"
    },
    {
      "stateMutability": "payable",
      "type": "fallback"
    },
    {
      "inputs": [],
      "name": "DEFAULT_ADMIN_ROLE",
      "outputs": [
        {
          "internalType": "bytes32",
          "name": "",
          "type": "bytes32"
        }
      ],
      "stateMutability": "view",
      "type": "function"
    },
    {
      "inputs": [],
      "name": "MAX_SUPPLY",
      "outputs": [
        {
          "internalType": "uint256",
          "name": "",
          "type": "uint256"
        }
      ],
      "stateMutability": "view",
      "type": "function"
    },
    {
      "inputs": [],
      "name": "MULTISIG_APPROVER",
      "outputs": [
        {
          "internalType": "bytes32",
          "name": "",
          "type": "bytes32"
        }
      ],
      "stateMutability": "view",
      "type": "function"
    },
    {
      "inputs": [],
      "name": "REVIEWER_ROLE",
      "outputs": [
        {
          "internalType": "bytes32",
          "name": "",
          "type": "bytes32"
        }
      ],
      "stateMutability": "view",
      "type": "function"
    },
    {
      "inputs": [
        {
          "internalType": "address",
          "name": "newReviewer",
          "type": "address"
        }
      ],
      "name": "addReviewer",
      "outputs": [],
      "stateMutability": "nonpayable",
      "type": "function"
    },
    {
      "inputs": [
        {
          "internalType": "address",
          "name": "owner",
          "type": "address"
        },
        {
          "internalType": "address",
          "name": "spender",
          "type": "address"
        }
      ],
      "name": "allowance",
      "outputs": [
        {
          "internalType": "uint256",
          "name": "",
          "type": "uint256"
        }
      ],
      "stateMutability": "view",
      "type": "function"
    },
    {
      "inputs": [
        {
          "internalType": "address",
          "name": "spender",
          "type": "address"
        },
        {
          "internalType": "uint256",
          "name": "value",
          "type": "uint256"
        }
      ],
      "name": "approve",
      "outputs": [
        {
          "internalType": "bool",
          "name": "",
          "type": "bool"
        }
      ],
      "stateMutability": "nonpayable",
      "type": "function"
    },
    {
      "inputs": [
        {
          "internalType": "uint256",
          "name": "_proposalId",
          "type": "uint256"
        }
      ],
      "name": "approveMultiSigProposal",
      "outputs": [],
      "stateMutability": "nonpayable",
      "type": "function"
    },
    {
      "inputs": [
        {
          "internalType": "address",
          "name": "account",
          "type": "address"
        }
      ],
      "name": "balanceOf",
      "outputs": [
        {
          "internalType": "uint256",
          "name": "",
          "type": "uint256"
        }
      ],
      "stateMutability": "view",
      "type": "function"
    },
    {
      "inputs": [],
      "name": "decimals",
      "outputs": [
        {
          "internalType": "uint8",
          "name": "",
          "type": "uint8"
        }
      ],
      "stateMutability": "view",
      "type": "function"
    },
    {
      "inputs": [
        {
          "internalType": "bytes32",
          "name": "role",
          "type": "bytes32"
        }
      ],
      "name": "getRoleAdmin",
      "outputs": [
        {
          "internalType": "bytes32",
          "name": "",
          "type": "bytes32"
        }
      ],
      "stateMutability": "view",
      "type": "function"
    },
    {
      "inputs": [
        {
          "internalType": "bytes32",
          "name": "role",
          "type": "bytes32"
        },
        {
          "internalType": "address",
          "name": "account",
          "type": "address"
        }
      ],
      "name": "grantRole",
      "outputs": [],
      "stateMutability": "nonpayable",
      "type": "function"
    },
    {
      "inputs": [
        {
          "internalType": "bytes32",
          "name": "role",
          "type": "bytes32"
        },
        {
          "internalType": "address",
          "name": "account",
          "type": "address"
        }
      ],
      "name": "hasRole",
      "outputs": [
        {
          "internalType": "bool",
          "name": "",
          "type": "bool"
        }
      ],
      "stateMutability": "view",
      "type": "function"
    },
    {
      "inputs": [
        {
          "internalType": "address",
          "name": "",
          "type": "address"
        }
      ],
      "name": "isInReviewerPool",
      "outputs": [
        {
          "internalType": "bool",
          "name": "",
          "type": "bool"
        }
      ],
      "stateMutability": "view",
      "type": "function"
    },
    {
      "inputs": [
        {
          "internalType": "address",
          "name": "account",
          "type": "address"
        }
      ],
      "name": "isReviewer",
      "outputs": [
        {
          "internalType": "bool",
          "name": "",
          "type": "bool"
        }
      ],
      "stateMutability": "view",
      "type": "function"
    },
    {
      "inputs": [
        {
          "internalType": "uint256",
          "name": "",
          "type": "uint256"
        }
      ],
      "name": "multiSigProposals",
      "outputs": [
        {
          "internalType": "uint256",
          "name": "id",
          "type": "uint256"
        },
        {
          "internalType": "address",
          "name": "proposer",
          "type": "address"
        },
        {
          "internalType": "address",
          "name": "targetContract",
          "type": "address"
        },
        {
          "internalType": "bytes",
          "name": "data",
          "type": "bytes"
        },
        {
          "internalType": "uint256",
          "name": "approvalCount",
          "type": "uint256"
        },
        {
          "internalType": "bool",
          "name": "executed",
          "type": "bool"
        }
      ],
      "stateMutability": "view",
      "type": "function"
    },
    {
      "inputs": [],
      "name": "name",
      "outputs": [
        {
          "internalType": "string",
          "name": "",
          "type": "string"
        }
      ],
      "stateMutability": "view",
      "type": "function"
    },
    {
      "inputs": [
        {
          "internalType": "address",
          "name": "reviewer",
          "type": "address"
        }
      ],
      "name": "removeReviewer",
      "outputs": [],
      "stateMutability": "nonpayable",
      "type": "function"
    },
    {
      "inputs": [
        {
          "internalType": "bytes32",
          "name": "role",
          "type": "bytes32"
        },
        {
          "internalType": "address",
          "name": "callerConfirmation",
          "type": "address"
        }
      ],
      "name": "renounceRole",
      "outputs": [],
      "stateMutability": "nonpayable",
      "type": "function"
    },
    {
      "inputs": [
        {
          "internalType": "uint256",
          "name": "",
          "type": "uint256"
        }
      ],
      "name": "reviewerPool",
      "outputs": [
        {
          "internalType": "address",
          "name": "",
          "type": "address"
        }
      ],
      "stateMutability": "view",
      "type": "function"
    },
    {
      "inputs": [
        {
          "internalType": "bytes32",
          "name": "role",
          "type": "bytes32"
        },
        {
          "internalType": "address",
          "name": "account",
          "type": "address"
        }
      ],
      "name": "revokeRole",
      "outputs": [],
      "stateMutability": "nonpayable",
      "type": "function"
    },
    {
      "inputs": [
        {
          "internalType": "bytes4",
          "name": "interfaceId",
          "type": "bytes4"
        }
      ],
      "name": "supportsInterface",
      "outputs": [
        {
          "internalType": "bool",
          "name": "",
          "type": "bool"
        }
      ],
      "stateMutability": "view",
      "type": "function"
    },
    {
      "inputs": [],
      "name": "symbol",
      "outputs": [
        {
          "internalType": "string",
          "name": "",
          "type": "string"
        }
      ],
      "stateMutability": "view",
      "type": "function"
    },
    {
      "inputs": [],
      "name": "totalSupply",
      "outputs": [
        {
          "internalType": "uint256",
          "name": "",
          "type": "uint256"
        }
      ],
      "stateMutability": "view",
      "type": "function"
    },
    {
      "inputs": [
        {
          "internalType": "address",
          "name": "to",
          "type": "address"
        },
        {
          "internalType": "uint256",
          "name": "value",
          "type": "uint256"
        }
      ],
      "name": "transfer",
      "outputs": [
        {
          "internalType": "bool",
          "name": "",
          "type": "bool"
        }
      ],
      "stateMutability": "nonpayable",
      "type": "function"
    },
    {
      "inputs": [
        {
          "internalType": "address",
          "name": "from",
          "type": "address"
        },
        {
          "internalType": "address",
          "name": "to",
          "type": "address"
        },
        {
          "internalType": "uint256",
          "name": "value",
          "type": "uint256"
        }
      ],
      "name": "transferFrom",
      "outputs": [
        {
          "internalType": "bool",
          "name": "",
          "type": "bool"
        }
      ],
      "stateMutability": "nonpayable",
      "type": "function"
    },
    {
      "stateMutability": "payable",
      "type": "receive"
    }
  ],
  "bytecode": "0x608060405234801561001057600080fd5b5060405161361f38038061361f833981810160405281019061003291906108bb565b816040518060400160405280600a81526020017f4142594120544f4b454e000000000000000000000000000000000000000000008152506040518060400160405280600681526020017f414259544b4e000000000000000000000000000000000000000000000000000081525081600390816100ae9190610b38565b5080600490816100be9190610b38565b505050600481511015610106576040517f08c379a00000000000000000000000000000000000000000000000000000000081526004016100fd90610c8d565b60405180910390fd5b6101196000801b336104f960201b60201c565b5061014a7fdf1425bae297c2f52b4f15d18a50b1fc8cb5b981a981b1d213ed3ff92681b64d336104f960201b60201c565b5060005b815181101561029e576101a17fc10c77be35aff266144ed64c26a1fa104bae2f284ae99ac4a34203454704a18583838151811061018e5761018d610cad565b5b60200260200101516104f960201b60201c565b5060068282815181106101b7576101b6610cad565b5b60200260200101519080600181540180825580915050600190039060005260206000200160009091909190916101000a81548173ffffffffffffffffffffffffffffffffffffffff021916908373ffffffffffffffffffffffffffffffffffffffff16021790555060016008600084848151811061023857610237610cad565b5b602002602001015173ffffffffffffffffffffffffffffffffffffffff1673ffffffffffffffffffffffffffffffffffffffff16815260200190815260200160002060006101000a81548160ff021916908315150217905550808060010191505061014e565b50506102af816105f760201b60201c565b60006102bf61065060201b60201c565b9050600181600a0160007f01ffc9a7000000000000000000000000000000000000000000000000000000007bffffffffffffffffffffffffffffffffffffffffffffffffffffffff19167bffffffffffffffffffffffffffffffffffffffffffffffffffffffff1916815260200190815260200160002060006101000a81548160ff021916908315150217905550600181600a0160007f1f931c1c000000000000000000000000000000000000000000000000000000007bffffffffffffffffffffffffffffffffffffffffffffffffffffffff19167bffffffffffffffffffffffffffffffffffffffffffffffffffffffff1916815260200190815260200160002060006101000a81548160ff021916908315150217905550600181600a0160007f48e2b093000000000000000000000000000000000000000000000000000000007bffffffffffffffffffffffffffffffffffffffffffffffffffffffff19167bffffffffffffffffffffffffffffffffffffffffffffffffffffffff1916815260200190815260200160002060006101000a81548160ff021916908315150217905550600181600a0160007f7f5828d0000000000000000000000000000000000000000000000000000000007bffffffffffffffffffffffffffffffffffffffffffffffffffffffff19167bffffffffffffffffffffffffffffffffffffffffffffffffffffffff1916815260200190815260200160002060006101000a81548160ff021916908315150217905550505050610cdc565b600061050b838361067d60201b60201c565b6105ec5760016005600085815260200190815260200160002060000160008473ffffffffffffffffffffffffffffffffffffffff1673ffffffffffffffffffffffffffffffffffffffff16815260200190815260200160002060006101000a81548160ff0219169083151502179055506105896106e860201b60201c565b73ffffffffffffffffffffffffffffffffffffffff168273ffffffffffffffffffffffffffffffffffffffff16847f2f8788117e7eff1d82e926ec794901d17c78024a50270940304540a733656f0d60405160405180910390a4600190506105f1565b600090505b92915050565b600061060761065060201b60201c565b9050818160010160006101000a81548173ffffffffffffffffffffffffffffffffffffffff021916908373ffffffffffffffffffffffffffffffffffffffff1602179055505050565b6000807fc8fcad8db84d3cc18b4c41d551ea0ee66dd599cde068d998e57d5e09332c131c90508091505090565b60006005600084815260200190815260200160002060000160008373ffffffffffffffffffffffffffffffffffffffff1673ffffffffffffffffffffffffffffffffffffffff16815260200190815260200160002060009054906101000a900460ff16905092915050565b600033905090565b6000604051905090565b600080fd5b600080fd5b600080fd5b6000601f19601f8301169050919050565b7f4e487b7100000000000000000000000000000000000000000000000000000000600052604160045260246000fd5b61075282610709565b810181811067ffffffffffffffff821117156107715761077061071a565b5b80604052505050565b60006107846106f0565b90506107908282610749565b919050565b600067ffffffffffffffff8211156107b0576107af61071a565b5b602082029050602081019050919050565b600080fd5b600073ffffffffffffffffffffffffffffffffffffffff82169050919050565b60006107f1826107c6565b9050919050565b610801816107e6565b811461080c57600080fd5b50565b60008151905061081e816107f8565b92915050565b600061083761083284610795565b61077a565b9050808382526020820190506020840283018581111561085a576108596107c1565b5b835b81811015610883578061086f888261080f565b84526020840193505060208101905061085c565b5050509392505050565b600082601f8301126108a2576108a1610704565b5b81516108b2848260208601610824565b91505092915050565b600080604083850312156108d2576108d16106fa565b5b600083015167ffffffffffffffff8111156108f0576108ef6106ff565b5b6108fc8582860161088d565b925050602061090d8582860161080f565b9150509250929050565b600081519050919050565b7f4e487b7100000000000000000000000000000000000000000000000000000000600052602260045260246000fd5b6000600282049050600182168061096957607f821691505b60208210810361097c5761097b610922565b5b50919050565b60008190508160005260206000209050919050565b60006020601f8301049050919050565b600082821b905092915050565b6000600883026109e47fffffffffffffffffffffffffffffffffffffffffffffffffffffffffffffffff826109a7565b6109ee86836109a7565b95508019841693508086168417925050509392505050565b6000819050919050565b6000819050919050565b6000610a35610a30610a2b84610a06565b610a10565b610a06565b9050919050565b6000819050919050565b610a4f83610a1a565b610a63610a5b82610a3c565b8484546109b4565b825550505050565b600090565b610a78610a6b565b610a83818484610a46565b505050565b5b81811015610aa757610a9c600082610a70565b600181019050610a89565b5050565b601f821115610aec57610abd81610982565b610ac684610997565b81016020851015610ad5578190505b610ae9610ae185610997565b830182610a88565b50505b505050565b600082821c905092915050565b6000610b0f60001984600802610af1565b1980831691505092915050565b6000610b288383610afe565b9150826002028217905092915050565b610b4182610917565b67ffffffffffffffff811115610b5a57610b5961071a565b5b610b648254610951565b610b6f828285610aab565b600060209050601f831160018114610ba25760008415610b90578287015190505b610b9a8582610b1c565b865550610c02565b601f198416610bb086610982565b60005b82811015610bd857848901518255600182019150602085019450602081019050610bb3565b86831015610bf55784890151610bf1601f891682610afe565b8355505b6001600288020188555050505b505050505050565b600082825260208201905092915050565b7f4174206c6561737420342072657669657765727320617265207265717569726560008201527f6400000000000000000000000000000000000000000000000000000000000000602082015250565b6000610c77602183610c0a565b9150610c8282610c1b565b604082019050919050565b60006020820190508181036000830152610ca681610c6a565b9050919050565b7f4e487b7100000000000000000000000000000000000000000000000000000000600052603260045260246000fd5b61293480610ceb6000396000f3fe6080604052600436106101855760003560e01c806352994e2f116100d1578063a9059cbb1161008a578063c9442dac11610064578063c9442dac1461074b578063d547741f14610774578063dd62ed3e1461079d578063fdc6258a146107da5761018c565b8063a9059cbb146106a8578063bad0dd65146106e5578063c491b04c1461070e5761018c565b806352994e2f1461058457806370a08231146105af57806373a82b5f146105ec57806391d148541461061557806395d89b4114610652578063a217fddf1461067d5761018c565b8063248a9ca31161013e57806332cb6b0c1161011857806332cb6b0c146104c357806336568abe146104ee5780633b129a561461051757806340932bf8146105425761018c565b8063248a9ca3146104325780632f2ff15d1461046f578063313ce567146104985761018c565b806301ffc9a7146102e857806306fdde0314610325578063095ea7b31461035057806318160ddd1461038d57806319f102ec146103b857806323b872dd146103f55761018c565b3661018c57005b6000807fc8fcad8db84d3cc18b4c41d551ea0ee66dd599cde068d998e57d5e09332c131c9050809150600082600701600080357fffffffff00000000000000000000000000000000000000000000000000000000167bffffffffffffffffffffffffffffffffffffffffffffffffffffffff19167bffffffffffffffffffffffffffffffffffffffffffffffffffffffff1916815260200190815260200160002060000160009054906101000a900473ffffffffffffffffffffffffffffffffffffffff169050600073ffffffffffffffffffffffffffffffffffffffff168173ffffffffffffffffffffffffffffffffffffffff16036102c2576040517f08c379a00000000000000000000000000000000000000000000000000000000081526004016102b990611ed4565b60405180910390fd5b3660008037600080366000845af43d6000803e80600081146102e3573d6000f35b3d6000fd5b3480156102f457600080fd5b5061030f600480360381019061030a9190611f51565b610817565b60405161031c9190611f99565b60405180910390f35b34801561033157600080fd5b5061033a610891565b6040516103479190612033565b60405180910390f35b34801561035c57600080fd5b50610377600480360381019061037291906120e9565b610923565b6040516103849190611f99565b60405180910390f35b34801561039957600080fd5b506103a2610946565b6040516103af9190612138565b60405180910390f35b3480156103c457600080fd5b506103df60048036038101906103da9190612153565b610950565b6040516103ec919061218f565b60405180910390f35b34801561040157600080fd5b5061041c600480360381019061041791906121aa565b61098f565b6040516104299190611f99565b60405180910390f35b34801561043e57600080fd5b5061045960048036038101906104549190612233565b6109be565b604051610466919061226f565b60405180910390f35b34801561047b57600080fd5b506104966004803603810190610491919061228a565b6109de565b005b3480156104a457600080fd5b506104ad610a00565b6040516104ba91906122e6565b60405180910390f35b3480156104cf57600080fd5b506104d8610a09565b6040516104e59190612138565b60405180910390f35b3480156104fa57600080fd5b506105156004803603810190610510919061228a565b610a19565b005b34801561052357600080fd5b5061052c610a94565b604051610539919061226f565b60405180910390f35b34801561054e57600080fd5b5061056960048036038101906105649190612153565b610ab8565b60405161057b96959493929190612356565b60405180910390f35b34801561059057600080fd5b50610599610bc9565b6040516105a6919061226f565b60405180910390f35b3480156105bb57600080fd5b506105d660048036038101906105d191906123be565b610bed565b6040516105e39190612138565b60405180910390f35b3480156105f857600080fd5b50610613600480360381019061060e91906123be565b610c35565b005b34801561062157600080fd5b5061063c6004803603810190610637919061228a565b610e19565b6040516106499190611f99565b60405180910390f35b34801561065e57600080fd5b50610667610e84565b6040516106749190612033565b60405180910390f35b34801561068957600080fd5b50610692610f16565b60405161069f919061226f565b60405180910390f35b3480156106b457600080fd5b506106cf60048036038101906106ca91906120e9565b610f1d565b6040516106dc9190611f99565b60405180910390f35b3480156106f157600080fd5b5061070c60048036038101906107079190612153565b610f40565b005b34801561071a57600080fd5b50610735600480360381019061073091906123be565b61123f565b6040516107429190611f99565b60405180910390f35b34801561075757600080fd5b50610772600480360381019061076d91906123be565b61125f565b005b34801561078057600080fd5b5061079b6004803603810190610796919061228a565b611549565b005b3480156107a957600080fd5b506107c460048036038101906107bf91906123eb565b61156b565b6040516107d19190612138565b60405180910390f35b3480156107e657600080fd5b5061080160048036038101906107fc91906123be565b6115f2565b60405161080e9190611f99565b60405180910390f35b60007f7965db0b000000000000000000000000000000000000000000000000000000007bffffffffffffffffffffffffffffffffffffffffffffffffffffffff1916827bffffffffffffffffffffffffffffffffffffffffffffffffffffffff1916148061088a575061088982611625565b5b9050919050565b6060600380546108a09061245a565b80601f01602080910402602001604051908101604052809291908181526020018280546108cc9061245a565b80156109195780601f106108ee57610100808354040283529160200191610919565b820191906000526020600020905b8154815290600101906020018083116108fc57829003601f168201915b5050505050905090565b60008061092e61168f565b905061093b818585611697565b600191505092915050565b6000600254905090565b6006818154811061096057600080fd5b906000526020600020016000915054906101000a900473ffffffffffffffffffffffffffffffffffffffff1681565b60008061099a61168f565b90506109a78582856116a9565b6109b285858561173d565b60019150509392505050565b600060056000838152602001908152602001600020600101549050919050565b6109e7826109be565b6109f081611831565b6109fa8383611845565b50505050565b60006012905090565b6b204fce5e3e2502611000000081565b610a2161168f565b73ffffffffffffffffffffffffffffffffffffffff168173ffffffffffffffffffffffffffffffffffffffff1614610a85576040517f6697b23200000000000000000000000000000000000000000000000000000000815260040160405180910390fd5b610a8f8282611937565b505050565b7fc10c77be35aff266144ed64c26a1fa104bae2f284ae99ac4a34203454704a18581565b60096020528060005260406000206000915090508060000154908060010160009054906101000a900473ffffffffffffffffffffffffffffffffffffffff16908060020160009054906101000a900473ffffffffffffffffffffffffffffffffffffffff1690806003018054610b2d9061245a565b80601f0160208091040260200160405190810160405280929190818152602001828054610b599061245a565b8015610ba65780601f10610b7b57610100808354040283529160200191610ba6565b820191906000526020600020905b815481529060010190602001808311610b8957829003601f168201915b5050505050908060040154908060050160009054906101000a900460ff16905086565b7fdf1425bae297c2f52b4f15d18a50b1fc8cb5b981a981b1d213ed3ff92681b64d81565b60008060008373ffffffffffffffffffffffffffffffffffffffff1673ffffffffffffffffffffffffffffffffffffffff168152602001908152602001600020549050919050565b7fc10c77be35aff266144ed64c26a1fa104bae2f284ae99ac4a34203454704a185610c5f81611831565b600860008373ffffffffffffffffffffffffffffffffffffffff1673ffffffffffffffffffffffffffffffffffffffff16815260200190815260200160002060009054906101000a900460ff1615610cec576040517f08c379a0000000000000000000000000000000000000000000000000000000008152600401610ce3906124d7565b60405180910390fd5b610d167fc10c77be35aff266144ed64c26a1fa104bae2f284ae99ac4a34203454704a18583611845565b506006829080600181540180825580915050600190039060005260206000200160009091909190916101000a81548173ffffffffffffffffffffffffffffffffffffffff021916908373ffffffffffffffffffffffffffffffffffffffff1602179055506001600860008473ffffffffffffffffffffffffffffffffffffffff1673ffffffffffffffffffffffffffffffffffffffff16815260200190815260200160002060006101000a81548160ff0219169083151502179055508173ffffffffffffffffffffffffffffffffffffffff167fe1cb5e1230cc02e62c60b81c1aa5ade512f3eac296edb28628b4cf344f47f93160405160405180910390a25050565b60006005600084815260200190815260200160002060000160008373ffffffffffffffffffffffffffffffffffffffff1673ffffffffffffffffffffffffffffffffffffffff16815260200190815260200160002060009054906101000a900460ff16905092915050565b606060048054610e939061245a565b80601f0160208091040260200160405190810160405280929190818152602001828054610ebf9061245a565b8015610f0c5780601f10610ee157610100808354040283529160200191610f0c565b820191906000526020600020905b815481529060010190602001808311610eef57829003601f168201915b5050505050905090565b6000801b81565b600080610f2861168f565b9050610f3581858561173d565b600191505092915050565b7fdf1425bae297c2f52b4f15d18a50b1fc8cb5b981a981b1d213ed3ff92681b64d610f6a81611831565b60006009600084815260200190815260200160002090508060050160009054906101000a900460ff1615610fd3576040517f08c379a0000000000000000000000000000000000000000000000000000000008152600401610fca90612543565b60405180910390fd5b8060060160003373ffffffffffffffffffffffffffffffffffffffff1673ffffffffffffffffffffffffffffffffffffffff16815260200190815260200160002060009054906101000a900460ff1615611062576040517f08c379a0000000000000000000000000000000000000000000000000000000008152600401611059906125af565b60405180910390fd5b60018160060160003373ffffffffffffffffffffffffffffffffffffffff1673ffffffffffffffffffffffffffffffffffffffff16815260200190815260200160002060006101000a81548160ff0219169083151502179055508060040160008154809291906110d1906125fe565b9190505550827f5d4ccf5f92566d140246f4ae3b9cb35dc06fff109a7748602ad77f6260fd9a6133604051611106919061218f565b60405180910390a2600381600401541061123a5760008160020160009054906101000a900473ffffffffffffffffffffffffffffffffffffffff1673ffffffffffffffffffffffffffffffffffffffff168260030160405161116891906126e9565b6000604051808303816000865af19150503d80600081146111a5576040519150601f19603f3d011682016040523d82523d6000602084013e6111aa565b606091505b50509050806111ee576040517f08c379a00000000000000000000000000000000000000000000000000000000081526004016111e59061274c565b60405180910390fd5b60018260050160006101000a81548160ff021916908315150217905550837f7770356c29230b95943aec59d47ead11eb426a728bf5b57f7fd8597f3c0e29ba60405160405180910390a2505b505050565b60086020528060005260406000206000915054906101000a900460ff1681565b6000801b61126c81611831565b600860008373ffffffffffffffffffffffffffffffffffffffff1673ffffffffffffffffffffffffffffffffffffffff16815260200190815260200160002060009054906101000a900460ff166112f8576040517f08c379a00000000000000000000000000000000000000000000000000000000081526004016112ef906127b8565b60405180910390fd5b60005b60068054905081101561147e578273ffffffffffffffffffffffffffffffffffffffff1660068281548110611333576113326127d8565b5b9060005260206000200160009054906101000a900473ffffffffffffffffffffffffffffffffffffffff1673ffffffffffffffffffffffffffffffffffffffff1603611471576006600160068054905061138d9190612807565b8154811061139e5761139d6127d8565b5b9060005260206000200160009054906101000a900473ffffffffffffffffffffffffffffffffffffffff16600682815481106113dd576113dc6127d8565b5b9060005260206000200160006101000a81548173ffffffffffffffffffffffffffffffffffffffff021916908373ffffffffffffffffffffffffffffffffffffffff16021790555060068054806114375761143661283b565b5b6001900381819060005260206000200160006101000a81549073ffffffffffffffffffffffffffffffffffffffff0219169055905561147e565b80806001019150506112fb565b506000600860008473ffffffffffffffffffffffffffffffffffffffff1673ffffffffffffffffffffffffffffffffffffffff16815260200190815260200160002060006101000a81548160ff0219169083151502179055506115017fc10c77be35aff266144ed64c26a1fa104bae2f284ae99ac4a34203454704a18583611937565b508173ffffffffffffffffffffffffffffffffffffffff167f55dba9d79522b91b615629d5f3b10c2fad2d258f1768614f4a52e937ada0d0ba60405160405180910390a25050565b611552826109be565b61155b81611831565b6115658383611937565b50505050565b6000600160008473ffffffffffffffffffffffffffffffffffffffff1673ffffffffffffffffffffffffffffffffffffffff16815260200190815260200160002060008373ffffffffffffffffffffffffffffffffffffffff1673ffffffffffffffffffffffffffffffffffffffff16815260200190815260200160002054905092915050565b600061161e7fc10c77be35aff266144ed64c26a1fa104bae2f284ae99ac4a34203454704a18583610e19565b9050919050565b60007f01ffc9a7000000000000000000000000000000000000000000000000000000007bffffffffffffffffffffffffffffffffffffffffffffffffffffffff1916827bffffffffffffffffffffffffffffffffffffffffffffffffffffffff1916149050919050565b600033905090565b6116a48383836001611a2a565b505050565b60006116b5848461156b565b90507fffffffffffffffffffffffffffffffffffffffffffffffffffffffffffffffff81146117375781811015611727578281836040517ffb8f41b200000000000000000000000000000000000000000000000000000000815260040161171e9392919061286a565b60405180910390fd5b61173684848484036000611a2a565b5b50505050565b600073ffffffffffffffffffffffffffffffffffffffff168373ffffffffffffffffffffffffffffffffffffffff16036117af5760006040517f96c6fd1e0000000000000000000000000000000000000000000000000000000081526004016117a6919061218f565b60405180910390fd5b600073ffffffffffffffffffffffffffffffffffffffff168273ffffffffffffffffffffffffffffffffffffffff16036118215760006040517fec442f05000000000000000000000000000000000000000000000000000000008152600401611818919061218f565b60405180910390fd5b61182c838383611c01565b505050565b6118428161183d61168f565b611e26565b50565b60006118518383610e19565b61192c5760016005600085815260200190815260200160002060000160008473ffffffffffffffffffffffffffffffffffffffff1673ffffffffffffffffffffffffffffffffffffffff16815260200190815260200160002060006101000a81548160ff0219169083151502179055506118c961168f565b73ffffffffffffffffffffffffffffffffffffffff168273ffffffffffffffffffffffffffffffffffffffff16847f2f8788117e7eff1d82e926ec794901d17c78024a50270940304540a733656f0d60405160405180910390a460019050611931565b600090505b92915050565b60006119438383610e19565b15611a1f5760006005600085815260200190815260200160002060000160008473ffffffffffffffffffffffffffffffffffffffff1673ffffffffffffffffffffffffffffffffffffffff16815260200190815260200160002060006101000a81548160ff0219169083151502179055506119bc61168f565b73ffffffffffffffffffffffffffffffffffffffff168273ffffffffffffffffffffffffffffffffffffffff16847ff6391f5c32d9c69d2a47ea670b442974b53935d1edc7fd64eb21e047a839171b60405160405180910390a460019050611a24565b600090505b92915050565b600073ffffffffffffffffffffffffffffffffffffffff168473ffffffffffffffffffffffffffffffffffffffff1603611a9c5760006040517fe602df05000000000000000000000000000000000000000000000000000000008152600401611a93919061218f565b60405180910390fd5b600073ffffffffffffffffffffffffffffffffffffffff168373ffffffffffffffffffffffffffffffffffffffff1603611b0e5760006040517f94280d62000000000000000000000000000000000000000000000000000000008152600401611b05919061218f565b60405180910390fd5b81600160008673ffffffffffffffffffffffffffffffffffffffff1673ffffffffffffffffffffffffffffffffffffffff16815260200190815260200160002060008573ffffffffffffffffffffffffffffffffffffffff1673ffffffffffffffffffffffffffffffffffffffff168152602001908152602001600020819055508015611bfb578273ffffffffffffffffffffffffffffffffffffffff168473ffffffffffffffffffffffffffffffffffffffff167f8c5be1e5ebec7d5bd14f71427d1e84f3dd0314c0f7b2291e5b200ac8c7c3b92584604051611bf29190612138565b60405180910390a35b50505050565b600073ffffffffffffffffffffffffffffffffffffffff168373ffffffffffffffffffffffffffffffffffffffff1603611c53578060026000828254611c4791906128a1565b92505081905550611d26565b60008060008573ffffffffffffffffffffffffffffffffffffffff1673ffffffffffffffffffffffffffffffffffffffff16815260200190815260200160002054905081811015611cdf578381836040517fe450d38c000000000000000000000000000000000000000000000000000000008152600401611cd69392919061286a565b60405180910390fd5b8181036000808673ffffffffffffffffffffffffffffffffffffffff1673ffffffffffffffffffffffffffffffffffffffff16815260200190815260200160002081905550505b600073ffffffffffffffffffffffffffffffffffffffff168273ffffffffffffffffffffffffffffffffffffffff1603611d6f5780600260008282540392505081905550611dbc565b806000808473ffffffffffffffffffffffffffffffffffffffff1673ffffffffffffffffffffffffffffffffffffffff168152602001908152602001600020600082825401925050819055505b8173ffffffffffffffffffffffffffffffffffffffff168373ffffffffffffffffffffffffffffffffffffffff167fddf252ad1be2c89b69c2b068fc378daa952ba7f163c4a11628f55a4df523b3ef83604051611e199190612138565b60405180910390a3505050565b611e308282610e19565b611e735780826040517fe2517d3f000000000000000000000000000000000000000000000000000000008152600401611e6a9291906128d5565b60405180910390fd5b5050565b600082825260208201905092915050565b7f4469616d6f6e643a2046756e6374696f6e20646f6573206e6f74206578697374600082015250565b6000611ebe602083611e77565b9150611ec982611e88565b602082019050919050565b60006020820190508181036000830152611eed81611eb1565b9050919050565b600080fd5b60007fffffffff0000000000000000000000000000000000000000000000000000000082169050919050565b611f2e81611ef9565b8114611f3957600080fd5b50565b600081359050611f4b81611f25565b92915050565b600060208284031215611f6757611f66611ef4565b5b6000611f7584828501611f3c565b91505092915050565b60008115159050919050565b611f9381611f7e565b82525050565b6000602082019050611fae6000830184611f8a565b92915050565b600081519050919050565b60005b83811015611fdd578082015181840152602081019050611fc2565b60008484015250505050565b6000601f19601f8301169050919050565b600061200582611fb4565b61200f8185611e77565b935061201f818560208601611fbf565b61202881611fe9565b840191505092915050565b6000602082019050818103600083015261204d8184611ffa565b905092915050565b600073ffffffffffffffffffffffffffffffffffffffff82169050919050565b600061208082612055565b9050919050565b61209081612075565b811461209b57600080fd5b50565b6000813590506120ad81612087565b92915050565b6000819050919050565b6120c6816120b3565b81146120d157600080fd5b50565b6000813590506120e3816120bd565b92915050565b60008060408385031215612100576120ff611ef4565b5b600061210e8582860161209e565b925050602061211f858286016120d4565b9150509250929050565b612132816120b3565b82525050565b600060208201905061214d6000830184612129565b92915050565b60006020828403121561216957612168611ef4565b5b6000612177848285016120d4565b91505092915050565b61218981612075565b82525050565b60006020820190506121a46000830184612180565b92915050565b6000806000606084860312156121c3576121c2611ef4565b5b60006121d18682870161209e565b93505060206121e28682870161209e565b92505060406121f3868287016120d4565b9150509250925092565b6000819050919050565b612210816121fd565b811461221b57600080fd5b50565b60008135905061222d81612207565b92915050565b60006020828403121561224957612248611ef4565b5b60006122578482850161221e565b91505092915050565b612269816121fd565b82525050565b60006020820190506122846000830184612260565b92915050565b600080604083850312156122a1576122a0611ef4565b5b60006122af8582860161221e565b92505060206122c08582860161209e565b9150509250929050565b600060ff82169050919050565b6122e0816122ca565b82525050565b60006020820190506122fb60008301846122d7565b92915050565b600081519050919050565b600082825260208201905092915050565b600061232882612301565b612332818561230c565b9350612342818560208601611fbf565b61234b81611fe9565b840191505092915050565b600060c08201905061236b6000830189612129565b6123786020830188612180565b6123856040830187612180565b8181036060830152612397818661231d565b90506123a66080830185612129565b6123b360a0830184611f8a565b979650505050505050565b6000602082840312156123d4576123d3611ef4565b5b60006123e28482850161209e565b91505092915050565b6000806040838503121561240257612401611ef4565b5b60006124108582860161209e565b92505060206124218582860161209e565b9150509250929050565b7f4e487b7100000000000000000000000000000000000000000000000000000000600052602260045260246000fd5b6000600282049050600182168061247257607f821691505b6020821081036124855761248461242b565b5b50919050565b7f416c726561647920696e20726576696577657220706f6f6c0000000000000000600082015250565b60006124c1601883611e77565b91506124cc8261248b565b602082019050919050565b600060208201905081810360008301526124f0816124b4565b9050919050565b7f50726f706f73616c20616c726561647920657865637574656400000000000000600082015250565b600061252d601983611e77565b9150612538826124f7565b602082019050919050565b6000602082019050818103600083015261255c81612520565b9050919050565b7f416c726561647920617070726f76656400000000000000000000000000000000600082015250565b6000612599601083611e77565b91506125a482612563565b602082019050919050565b600060208201905081810360008301526125c88161258c565b9050919050565b7f4e487b7100000000000000000000000000000000000000000000000000000000600052601160045260246000fd5b6000612609826120b3565b91507fffffffffffffffffffffffffffffffffffffffffffffffffffffffffffffffff820361263b5761263a6125cf565b5b600182019050919050565b600081905092915050565b60008190508160005260206000209050919050565b600081546126738161245a565b61267d8186612646565b9450600182166000811461269857600181146126ad576126e0565b60ff19831686528115158202860193506126e0565b6126b685612651565b60005b838110156126d8578154818901526001820191506020810190506126b9565b838801955050505b50505092915050565b60006126f58284612666565b915081905092915050565b7f50726f706f73616c20657865637574696f6e206661696c656400000000000000600082015250565b6000612736601983611e77565b915061274182612700565b602082019050919050565b6000602082019050818103600083015261276581612729565b9050919050565b7f4e6f7420696e20726576696577657220706f6f6c000000000000000000000000600082015250565b60006127a2601483611e77565b91506127ad8261276c565b602082019050919050565b600060208201905081810360008301526127d181612795565b9050919050565b7f4e487b7100000000000000000000000000000000000000000000000000000000600052603260045260246000fd5b6000612812826120b3565b915061281d836120b3565b9250828203905081811115612835576128346125cf565b5b92915050565b7f4e487b7100000000000000000000000000000000000000000000000000000000600052603160045260246000fd5b600060608201905061287f6000830186612180565b61288c6020830185612129565b6128996040830184612129565b949350505050565b60006128ac826120b3565b91506128b7836120b3565b92508282019050808211156128cf576128ce6125cf565b5b92915050565b60006040820190506128ea6000830185612180565b6128f76020830184612260565b939250505056fea2646970667358221220a45f499d193404cd22e2aad8a95aa4f30acaba2a27673b9a57e4511c84971b9664736f6c634300081b0033",
  "linkReferences": {},
  "deployedLinkReferences": {}
}