{
  "_format": "hh-sol-artifact-1",
  "contractName": "Ecosystem1Facet",
  "sourceName": "contracts/DiamondProxy/Ecosystem1Facet.sol",
  "abi": [
    {
      "inputs": [],
      "name": "ReentrancyGuardReentrantCall",
      "type": "error"
    },
    {
      "anonymous": false,
      "inputs": [
        {
          "indexed": true,
          "internalType": "uint256",
          "name": "courseId",
          "type": "uint256"
        },
        {
          "indexed": false,
          "internalType": "uint256",
          "name": "approvalCount",
          "type": "uint256"
        }
      ],
      "name": "CourseApproved",
      "type": "event"
    },
    {
      "anonymous": false,
      "inputs": [
        {
          "indexed": true,
          "internalType": "uint256",
          "name": "courseId",
          "type": "uint256"
        },
        {
          "indexed": false,
          "internalType": "string",
          "name": "courseName",
          "type": "string"
        },
        {
          "indexed": false,
          "internalType": "address",
          "name": "creator",
          "type": "address"
        }
      ],
      "name": "CourseCreated",
      "type": "event"
    },
    {
      "anonymous": false,
      "inputs": [
        {
          "indexed": true,
          "internalType": "uint256",
          "name": "_courseID",
          "type": "uint256"
        },
        {
          "indexed": true,
          "internalType": "string",
          "name": "_courseName",
          "type": "string"
        },
        {
          "indexed": false,
          "internalType": "bool",
          "name": "_approved",
          "type": "bool"
        }
      ],
      "name": "CourseCreationSuccess",
      "type": "event"
    },
    {
      "anonymous": false,
      "inputs": [
        {
          "indexed": true,
          "internalType": "uint256",
          "name": "_courseId",
          "type": "uint256"
        },
        {
          "indexed": false,
          "internalType": "address",
          "name": "owner",
          "type": "address"
        }
      ],
      "name": "CourseDeleteSuccess",
      "type": "event"
    },
    {
      "anonymous": false,
      "inputs": [
        {
          "indexed": true,
          "internalType": "uint256",
          "name": "_courseId",
          "type": "uint256"
        },
        {
          "indexed": false,
          "internalType": "string",
          "name": "_courseName",
          "type": "string"
        }
      ],
      "name": "CourseEdited",
      "type": "event"
    },
    {
      "anonymous": false,
      "inputs": [
        {
          "indexed": false,
          "internalType": "address",
          "name": "account",
          "type": "address"
        },
        {
          "indexed": false,
          "internalType": "bytes32",
          "name": "role",
          "type": "bytes32"
        },
        {
          "indexed": false,
          "internalType": "bool",
          "name": "hasRole",
          "type": "bool"
        }
      ],
      "name": "DebugRoleCheck",
      "type": "event"
    },
    {
      "anonymous": false,
      "inputs": [
        {
          "indexed": false,
          "internalType": "address",
          "name": "account",
          "type": "address"
        },
        {
          "indexed": false,
          "internalType": "bytes32",
          "name": "role",
          "type": "bytes32"
        },
        {
          "indexed": false,
          "internalType": "bool",
          "name": "roleValue",
          "type": "bool"
        }
      ],
      "name": "DebugStorageAccess",
      "type": "event"
    },
    {
      "anonymous": false,
      "inputs": [
        {
          "indexed": true,
          "internalType": "address",
          "name": "_to",
          "type": "address"
        },
        {
          "indexed": true,
          "internalType": "uint256",
          "name": "_amount",
          "type": "uint256"
        }
      ],
      "name": "EcosystemPoolUpdate",
      "type": "event"
    },
    {
      "anonymous": false,
      "inputs": [
        {
          "indexed": true,
          "internalType": "uint256",
          "name": "courseId",
          "type": "uint256"
        },
        {
          "indexed": false,
          "internalType": "address",
          "name": "reviewer",
          "type": "address"
        }
      ],
      "name": "ReviewSubmitted",
      "type": "event"
    },
    {
      "anonymous": false,
      "inputs": [
        {
          "indexed": true,
          "internalType": "uint256",
          "name": "courseId",
          "type": "uint256"
        },
        {
          "indexed": false,
          "internalType": "address[]",
          "name": "reviewers",
          "type": "address[]"
        }
      ],
      "name": "ReviewersAssigned",
      "type": "event"
    },
    {
      "anonymous": false,
      "inputs": [
        {
          "indexed": true,
          "internalType": "address",
          "name": "account",
          "type": "address"
        },
        {
          "indexed": true,
          "internalType": "bytes32",
          "name": "role",
          "type": "bytes32"
        }
      ],
      "name": "RoleGranted",
      "type": "event"
    },
    {
      "inputs": [],
      "name": "COURSE_OWNER_ROLE",
      "outputs": [
        {
          "internalType": "bytes32",
          "name": "",
          "type": "bytes32"
        }
      ],
      "stateMutability": "view",
      "type": "function"
    },
    {
      "inputs": [
        {
          "internalType": "uint256",
          "name": "courseId",
          "type": "uint256"
        }
      ],
      "name": "approveCourse",
      "outputs": [],
      "stateMutability": "nonpayable",
      "type": "function"
    },
    {
      "inputs": [
        {
          "internalType": "address",
          "name": "account",
          "type": "address"
        },
        {
          "internalType": "bytes32",
          "name": "role",
          "type": "bytes32"
        }
      ],
      "name": "checkRole",
      "outputs": [
        {
          "internalType": "bool",
          "name": "",
          "type": "bool"
        }
      ],
      "stateMutability": "view",
      "type": "function"
    },
    {
      "inputs": [
        {
          "internalType": "string",
          "name": "_courseName",
          "type": "string"
        },
        {
          "internalType": "string",
          "name": "_description",
          "type": "string"
        },
        {
          "internalType": "enum LibDiamond.DifficultyLevel",
          "name": "_difficultyLevel",
          "type": "uint8"
        }
      ],
      "name": "createCourse",
      "outputs": [
        {
          "internalType": "bool",
          "name": "",
          "type": "bool"
        }
      ],
      "stateMutability": "nonpayable",
      "type": "function"
    },
    {
      "inputs": [
        {
          "internalType": "uint256",
          "name": "_courseId",
          "type": "uint256"
        }
      ],
      "name": "deleteCourse",
      "outputs": [
        {
          "internalType": "bool",
          "name": "",
          "type": "bool"
        }
      ],
      "stateMutability": "nonpayable",
      "type": "function"
    },
    {
      "inputs": [
        {
          "internalType": "uint256",
          "name": "_courseId",
          "type": "uint256"
        },
        {
          "internalType": "string",
          "name": "_courseName",
          "type": "string"
        }
      ],
      "name": "editCourse",
      "outputs": [
        {
          "internalType": "bool",
          "name": "",
          "type": "bool"
        }
      ],
      "stateMutability": "nonpayable",
      "type": "function"
    },
    {
      "inputs": [],
      "name": "getAllCourses",
      "outputs": [
        {
          "components": [
            {
              "internalType": "uint256",
              "name": "courseId",
              "type": "uint256"
            },
            {
              "internalType": "string",
              "name": "courseName",
              "type": "string"
            },
            {
              "internalType": "string",
              "name": "description",
              "type": "string"
            },
            {
              "internalType": "bool",
              "name": "approved",
              "type": "bool"
            },
            {
              "internalType": "uint256",
              "name": "approvalCount",
              "type": "uint256"
            },
            {
              "internalType": "address",
              "name": "creator",
              "type": "address"
            },
            {
              "internalType": "bool",
              "name": "exists",
              "type": "bool"
            },
            {
              "internalType": "address[]",
              "name": "enrolledStudents",
              "type": "address[]"
            },
            {
              "internalType": "enum LibDiamond.DifficultyLevel",
              "name": "difficultyLevel",
              "type": "uint8"
            }
          ],
          "internalType": "struct LibDiamond.Course[]",
          "name": "",
          "type": "tuple[]"
        }
      ],
      "stateMutability": "view",
      "type": "function"
    },
    {
      "inputs": [
        {
          "internalType": "uint256",
          "name": "courseId",
          "type": "uint256"
        }
      ],
      "name": "getCourseReviewers",
      "outputs": [
        {
          "internalType": "address[]",
          "name": "",
          "type": "address[]"
        }
      ],
      "stateMutability": "view",
      "type": "function"
    },
    {
      "inputs": [],
      "name": "getCurrentEcosystemPoolSupply",
      "outputs": [
        {
          "internalType": "uint256",
          "name": "",
          "type": "uint256"
        }
      ],
      "stateMutability": "view",
      "type": "function"
    },
    {
      "inputs": [
        {
          "internalType": "bytes32",
          "name": "role",
          "type": "bytes32"
        },
        {
          "internalType": "address",
          "name": "account",
          "type": "address"
        }
      ],
      "name": "grantRole",
      "outputs": [],
      "stateMutability": "nonpayable",
      "type": "function"
    },
    {
      "inputs": [
        {
          "internalType": "address",
          "name": "account",
          "type": "address"
        }
      ],
      "name": "hasCourseOwnerRole",
      "outputs": [
        {
          "internalType": "bool",
          "name": "",
          "type": "bool"
        }
      ],
      "stateMutability": "view",
      "type": "function"
    },
    {
      "inputs": [
        {
          "internalType": "bytes32",
          "name": "role",
          "type": "bytes32"
        }
      ],
      "name": "onlyRoleCheck",
      "outputs": [
        {
          "internalType": "bool",
          "name": "",
          "type": "bool"
        }
      ],
      "stateMutability": "view",
      "type": "function"
    },
    {
      "inputs": [
        {
          "internalType": "uint256",
          "name": "courseId",
          "type": "uint256"
        }
      ],
      "name": "selectCourseReviewers",
      "outputs": [],
      "stateMutability": "nonpayable",
      "type": "function"
    },
    {
      "inputs": [
        {
          "internalType": "uint256",
          "name": "courseId",
          "type": "uint256"
        },
        {
          "internalType": "uint256[10]",
          "name": "scores",
          "type": "uint256[10]"
        }
      ],
      "name": "submitReview",
      "outputs": [],
      "stateMutability": "nonpayable",
      "type": "function"
    }
  ],
  "bytecode": "0x6080604052348015600f57600080fd5b506001600081905550614269806100276000396000f3fe608060405234801561001057600080fd5b50600436106100ea5760003560e01c8063752849981161008c5780639dad8d22116100665780639dad8d221461025b578063b0959e321461028b578063c293bbbe146102bb578063c7954e4c146102eb576100ea565b806375284998146101f35780638a2492bb1461020f5780638ea6e2fd1461023f576100ea565b80632f2ff15d116100c85780632f2ff15d146101595780633693dcfa14610175578063550e1da0146101935780635cc2a14d146101c3576100ea565b806304e48bd1146100ef57806317fe7d631461010d5780632ae8a7e314610129575b600080fd5b6100f7610309565b6040516101049190612e3c565b60405180910390f35b61012760048036038101906101229190612fd4565b610762565b005b610143600480360381019061013e9190613077565b610bc0565b60405161015091906130c6565b60405180910390f35b610173600480360381019061016e91906130e1565b610c36565b005b61017d610dd4565b60405161018a9190613130565b60405180910390f35b6101ad60048036038101906101a8919061314b565b610df8565b6040516101ba91906130c6565b60405180910390f35b6101dd60048036038101906101d8919061322d565b610e8d565b6040516101ea91906130c6565b60405180910390f35b61020d60048036038101906102089190613289565b61102d565b005b610229600480360381019061022491906132db565b611339565b60405161023691906130c6565b60405180910390f35b61025960048036038101906102549190613289565b611ad1565b005b61027560048036038101906102709190613289565b611e8b565b60405161028291906130c6565b60405180910390f35b6102a560048036038101906102a09190613366565b612394565b6040516102b291906130c6565b60405180910390f35b6102d560048036038101906102d09190613289565b612409565b6040516102e29190613402565b60405180910390f35b6102f36124b9565b6040516103009190613433565b60405180910390f35b606060006103156124d1565b9050600081600e018054905067ffffffffffffffff81111561033a57610339612ea3565b5b60405190808252806020026020018201604052801561037357816020015b6103606128aa565b8152602001906001900390816103585790505b50905060005b82600e01805490508110156107595760405180610120016040528084600e0183815481106103aa576103a961344e565b5b906000526020600020906008020160000154815260200184600e0183815481106103d7576103d661344e565b5b906000526020600020906008020160010180546103f3906134ac565b80601f016020809104026020016040519081016040528092919081815260200182805461041f906134ac565b801561046c5780601f106104415761010080835404028352916020019161046c565b820191906000526020600020905b81548152906001019060200180831161044f57829003601f168201915b5050505050815260200184600e01838154811061048c5761048b61344e565b5b906000526020600020906008020160020180546104a8906134ac565b80601f01602080910402602001604051908101604052809291908181526020018280546104d4906134ac565b80156105215780601f106104f657610100808354040283529160200191610521565b820191906000526020600020905b81548152906001019060200180831161050457829003601f168201915b5050505050815260200184600e0183815481106105415761054061344e565b5b906000526020600020906008020160030160009054906101000a900460ff161515815260200184600e01838154811061057d5761057c61344e565b5b906000526020600020906008020160040154815260200184600e0183815481106105aa576105a961344e565b5b906000526020600020906008020160050160009054906101000a900473ffffffffffffffffffffffffffffffffffffffff1673ffffffffffffffffffffffffffffffffffffffff16815260200184600e01838154811061060d5761060c61344e565b5b906000526020600020906008020160050160149054906101000a900460ff161515815260200184600e0183815481106106495761064861344e565b5b90600052602060002090600802016006018054806020026020016040519081016040528092919081815260200182805480156106da57602002820191906000526020600020905b8160009054906101000a900473ffffffffffffffffffffffffffffffffffffffff1673ffffffffffffffffffffffffffffffffffffffff1681526020019060010190808311610690575b5050505050815260200184600e0183815481106106fa576106f961344e565b5b906000526020600020906008020160070160009054906101000a900460ff16600281111561072b5761072a612c5c565b5b8152508282815181106107415761074061344e565b5b60200260200101819052508080600101915050610379565b50809250505090565b7fc10c77be35aff266144ed64c26a1fa104bae2f284ae99ac4a34203454704a185600061078d6124fe565b905080600c01600083815260200190815260200160002060003373ffffffffffffffffffffffffffffffffffffffff1673ffffffffffffffffffffffffffffffffffffffff16815260200190815260200160002060009054906101000a900460ff1661082e576040517f08c379a000000000000000000000000000000000000000000000000000000000815260040161082590613560565b60405180910390fd5b60006108386124d1565b9050610844853361252b565b610883576040517f08c379a000000000000000000000000000000000000000000000000000000000815260040161087a906135cc565b60405180910390fd5b600a80146108c6576040517f08c379a00000000000000000000000000000000000000000000000000000000081526004016108bd9061365e565b60405180910390fd5b6109c8846000600a81106108dd576108dc61344e565b5b6020020151856001600a81106108f6576108f561344e565b5b6020020151866002600a811061090f5761090e61344e565b5b6020020151876003600a81106109285761092761344e565b5b6020020151886004600a81106109415761094061344e565b5b6020020151896005600a811061095a5761095961344e565b5b60200201518a6006600a81106109735761097261344e565b5b60200201518b6007600a811061098c5761098b61344e565b5b60200201518c6008600a81106109a5576109a461344e565b5b60200201518d6009600a81106109be576109bd61344e565b5b60200201516125f7565b600081600a0160008781526020019081526020016000206001816001815401808255809150500390600052602060002090600b02019050846000600a8110610a1357610a1261344e565b5b60200201518160000181905550846001600a8110610a3457610a3361344e565b5b60200201518160010181905550846002600a8110610a5557610a5461344e565b5b60200201518160020181905550846003600a8110610a7657610a7561344e565b5b60200201518160030181905550846004600a8110610a9757610a9661344e565b5b60200201518160040181905550846005600a8110610ab857610ab761344e565b5b60200201518160050181905550846006600a8110610ad957610ad861344e565b5b60200201518160060181905550846007600a8110610afa57610af961344e565b5b60200201518160070181905550846008600a8110610b1b57610b1a61344e565b5b60200201518160080181905550846009600a8110610b3c57610b3b61344e565b5b60200201518160090181905550600181600a0160006101000a81548160ff021916908315150217905550857f049c6bc670988ed0fe782ccafb4e8cf96eb4fed5e99f7ba5b64d9bb78210707733604051610b96919061368d565b60405180910390a26050610ba9826126bc565b10610bb857610bb78661102d565b5b505050505050565b600080610bcb6124fe565b905080600c01600084815260200190815260200160002060008573ffffffffffffffffffffffffffffffffffffffff1673ffffffffffffffffffffffffffffffffffffffff16815260200190815260200160002060009054906101000a900460ff1691505092915050565b6000610c406124fe565b9050600181600c01600085815260200190815260200160002060008473ffffffffffffffffffffffffffffffffffffffff1673ffffffffffffffffffffffffffffffffffffffff16815260200190815260200160002060006101000a81548160ff021916908315150217905550828273ffffffffffffffffffffffffffffffffffffffff167fcf7afa953eac742fc7c2e2985cce7875d0ff3b2e3952b4526a780c7777bbe9af60405160405180910390a3828273ffffffffffffffffffffffffffffffffffffffff167fcf7afa953eac742fc7c2e2985cce7875d0ff3b2e3952b4526a780c7777bbe9af60405160405180910390a37f1fc3c915a961e15ecb336b79577e7d9e3e6a15f024fc98418ce8875699a37026828483600c01600087815260200190815260200160002060008673ffffffffffffffffffffffffffffffffffffffff1673ffffffffffffffffffffffffffffffffffffffff16815260200190815260200160002060009054906101000a900460ff16604051610dc7939291906136a8565b60405180910390a1505050565b7fadb22091b155738d2e889eb96f509d2a7c93234236b30400927feb4a6a15ab0081565b600080610e036124fe565b905080600c0160007fadb22091b155738d2e889eb96f509d2a7c93234236b30400927feb4a6a15ab00815260200190815260200160002060008473ffffffffffffffffffffffffffffffffffffffff1673ffffffffffffffffffffffffffffffffffffffff16815260200190815260200160002060009054906101000a900460ff16915050919050565b60007fadb22091b155738d2e889eb96f509d2a7c93234236b30400927feb4a6a15ab006000610eba6124fe565b905080600c01600083815260200190815260200160002060003373ffffffffffffffffffffffffffffffffffffffff1673ffffffffffffffffffffffffffffffffffffffff16815260200190815260200160002060009054906101000a900460ff16610f5b576040517f08c379a0000000000000000000000000000000000000000000000000000000008152600401610f5290613560565b60405180910390fd5b6000610f656124d1565b905060008160050160008881526020019081526020016000206000015403610fc2576040517f08c379a0000000000000000000000000000000000000000000000000000000008152600401610fb99061372b565b60405180910390fd5b848160050160008881526020019081526020016000206001019081610fe791906138f7565b50857f5c8c98b6b26236296c856fae8a5ca0c793bbb81c5f8b7c9a9ab99358f53fb0c0866040516110189190613a02565b60405180910390a26001935050505092915050565b7fc10c77be35aff266144ed64c26a1fa104bae2f284ae99ac4a34203454704a18560006110586124fe565b905080600c01600083815260200190815260200160002060003373ffffffffffffffffffffffffffffffffffffffff1673ffffffffffffffffffffffffffffffffffffffff16815260200190815260200160002060009054906101000a900460ff166110f9576040517f08c379a00000000000000000000000000000000000000000000000000000000081526004016110f090613560565b60405180910390fd5b60006111036124d1565b9050600081600901600086815260200190815260200160002090508060030160009054906101000a900460ff1615611170576040517f08c379a000000000000000000000000000000000000000000000000000000000815260040161116790613a70565b60405180910390fd5b81600d01600086815260200190815260200160002060003373ffffffffffffffffffffffffffffffffffffffff1673ffffffffffffffffffffffffffffffffffffffff16815260200190815260200160002060009054906101000a900460ff1615611210576040517f08c379a000000000000000000000000000000000000000000000000000000000815260040161120790613adc565b60405180910390fd5b600182600d01600087815260200190815260200160002060003373ffffffffffffffffffffffffffffffffffffffff1673ffffffffffffffffffffffffffffffffffffffff16815260200190815260200160002060006101000a81548160ff02191690831515021790555080600401600081548092919061129090613b2b565b919050555060028160040154106113325760018160030160006101000a81548160ff021916908315150217905550847fbcfbdd19bcb0c6ac01ca9ac647b43defbbf1a1c1df54bb29041dfb09ffb31efa82600401546040516112f29190613433565b60405180910390a26113308160050160009054906101000a900473ffffffffffffffffffffffffffffffffffffffff16674563918244f40000612751565b505b5050505050565b6000806113446124d1565b905060006113506124fe565b90508160050160008360020154815260200190815260200160002060050160149054906101000a900460ff16156113bc576040517f08c379a00000000000000000000000000000000000000000000000000000000081526004016113b390613bbf565b60405180910390fd5b600060405180610120016040528084600201548152602001888152602001878152602001600015158152602001600081526020013373ffffffffffffffffffffffffffffffffffffffff168152602001600115158152602001600067ffffffffffffffff8111156114305761142f612ea3565b5b60405190808252806020026020018201604052801561145e5781602001602082028036833780820191505090505b50815260200186600281111561147757611476612c5c565b5b815250905080836005016000856002015481526020019081526020016000206000820151816000015560208201518160010190816114b591906138f7565b5060408201518160020190816114cb91906138f7565b5060608201518160030160006101000a81548160ff0219169083151502179055506080820151816004015560a08201518160050160006101000a81548173ffffffffffffffffffffffffffffffffffffffff021916908373ffffffffffffffffffffffffffffffffffffffff16021790555060c08201518160050160146101000a81548160ff02191690831515021790555060e0820151816006019080519060200190611579929190612922565b506101008201518160070160006101000a81548160ff021916908360028111156115a6576115a5612c5c565b5b021790555090505082600e018190806001815401808255809150506001900390600052602060002090600802016000909190919091506000820151816000015560208201518160010190816115fb91906138f7565b50604082015181600201908161161191906138f7565b5060608201518160030160006101000a81548160ff0219169083151502179055506080820151816004015560a08201518160050160006101000a81548173ffffffffffffffffffffffffffffffffffffffff021916908373ffffffffffffffffffffffffffffffffffffffff16021790555060c08201518160050160146101000a81548160ff02191690831515021790555060e08201518160060190805190602001906116bf929190612922565b506101008201518160070160006101000a81548160ff021916908360028111156116ec576116eb612c5c565b5b0217905550505082600101600081548092919061170890613b2b565b919050555060018360070160003373ffffffffffffffffffffffffffffffffffffffff1673ffffffffffffffffffffffffffffffffffffffff16815260200190815260200160002060000160008282546117629190613bdf565b92505081905550600182600c0160007fadb22091b155738d2e889eb96f509d2a7c93234236b30400927feb4a6a15ab00815260200190815260200160002060003373ffffffffffffffffffffffffffffffffffffffff1673ffffffffffffffffffffffffffffffffffffffff16815260200190815260200160002060006101000a81548160ff0219169083151502179055507fa1aaf973820fd7a3abdaae535d869180a70e91db43a9acda74f1f57ea6aa7104337fadb22091b155738d2e889eb96f509d2a7c93234236b30400927feb4a6a15ab0084600c0160007fadb22091b155738d2e889eb96f509d2a7c93234236b30400927feb4a6a15ab00815260200190815260200160002060003373ffffffffffffffffffffffffffffffffffffffff1673ffffffffffffffffffffffffffffffffffffffff16815260200190815260200160002060009054906101000a900460ff166040516118c6939291906136a8565b60405180910390a16118f87fadb22091b155738d2e889eb96f509d2a7c93234236b30400927feb4a6a15ab003361282e565b6000611924337fadb22091b155738d2e889eb96f509d2a7c93234236b30400927feb4a6a15ab00610bc0565b90507f1fc3c915a961e15ecb336b79577e7d9e3e6a15f024fc98418ce8875699a37026337fadb22091b155738d2e889eb96f509d2a7c93234236b30400927feb4a6a15ab0083604051611979939291906136a8565b60405180910390a183600201600081548092919061199690613b2b565b9190505550876040516119a99190613c4f565b6040518091039020600185600201546119c29190613c66565b7f9c93a42b217373d37e6c66ace0a67fe1fa1f78c93164b62417de69c48c0f67e260006040516119f291906130c6565b60405180910390a37fadb22091b155738d2e889eb96f509d2a7c93234236b30400927feb4a6a15ab003373ffffffffffffffffffffffffffffffffffffffff167fcf7afa953eac742fc7c2e2985cce7875d0ff3b2e3952b4526a780c7777bbe9af60405160405180910390a37fadb22091b155738d2e889eb96f509d2a7c93234236b30400927feb4a6a15ab003373ffffffffffffffffffffffffffffffffffffffff167fcf7afa953eac742fc7c2e2985cce7875d0ff3b2e3952b4526a780c7777bbe9af60405160405180910390a360019450505050509392505050565b7fadb22091b155738d2e889eb96f509d2a7c93234236b30400927feb4a6a15ab006000611afc6124fe565b905080600c01600083815260200190815260200160002060003373ffffffffffffffffffffffffffffffffffffffff1673ffffffffffffffffffffffffffffffffffffffff16815260200190815260200160002060009054906101000a900460ff16611b9d576040517f08c379a0000000000000000000000000000000000000000000000000000000008152600401611b9490613560565b60405180910390fd5b6000611ba76124d1565b9050600081600b0160008681526020019081526020016000208054905014611c04576040517f08c379a0000000000000000000000000000000000000000000000000000000008152600401611bfb90613ce6565b60405180910390fd5b600381600301805490501015611c4f576040517f08c379a0000000000000000000000000000000000000000000000000000000008152600401611c4690613d52565b60405180910390fd5b60005b6003811015611e3857600082600301805490504244856003018054905085604051602001611c839493929190613d93565b6040516020818303038152906040528051906020012060001c611ca69190613e10565b90506000836003018281548110611cc057611cbf61344e565b5b9060005260206000200160009054906101000a900473ffffffffffffffffffffffffffffffffffffffff1690506000805b85600b0160008a815260200190815260200160002080549050811015611dab578273ffffffffffffffffffffffffffffffffffffffff1686600b0160008b81526020019081526020016000208281548110611d4f57611d4e61344e565b5b9060005260206000200160009054906101000a900473ffffffffffffffffffffffffffffffffffffffff1673ffffffffffffffffffffffffffffffffffffffff1603611d9e5760019150611dab565b8080600101915050611cf1565b5080611e285784600b016000898152602001908152602001600020829080600181540180825580915050600190039060005260206000200160009091909190916101000a81548173ffffffffffffffffffffffffffffffffffffffff021916908373ffffffffffffffffffffffffffffffffffffffff1602179055505b5050508080600101915050611c52565b50837f4b8fdabac7f3012213d917c1ab7ed9ad12ca775fadd33741c49237b3e649e27d82600b016000878152602001908152602001600020604051611e7d9190613f2d565b60405180910390a250505050565b60007fadb22091b155738d2e889eb96f509d2a7c93234236b30400927feb4a6a15ab006000611eb86124fe565b905080600c01600083815260200190815260200160002060003373ffffffffffffffffffffffffffffffffffffffff1673ffffffffffffffffffffffffffffffffffffffff16815260200190815260200160002060009054906101000a900460ff16611f59576040517f08c379a0000000000000000000000000000000000000000000000000000000008152600401611f5090613560565b60405180910390fd5b6000611f636124d1565b905060008160050160008781526020019081526020016000206000015403611fc0576040517f08c379a0000000000000000000000000000000000000000000000000000000008152600401611fb790613f9b565b60405180910390fd5b60005b81600e01805490508111612294578582600e018281548110611fe857611fe761344e565b5b906000526020600020906008020160000154036122815781600e01600183600e01805490506120179190613c66565b815481106120285761202761344e565b5b906000526020600020906008020182600e01828154811061204c5761204b61344e565b5b906000526020600020906008020160008201548160000155600182018160010190816120789190613fd1565b506002820181600201908161208d9190613fd1565b506003820160009054906101000a900460ff168160030160006101000a81548160ff021916908315150217905550600482015481600401556005820160009054906101000a900473ffffffffffffffffffffffffffffffffffffffff168160050160006101000a81548173ffffffffffffffffffffffffffffffffffffffff021916908373ffffffffffffffffffffffffffffffffffffffff1602179055506005820160149054906101000a900460ff168160050160146101000a81548160ff021916908315150217905550600682018160060190805461216f9291906129ac565b506007820160009054906101000a900460ff168160070160006101000a81548160ff021916908360028111156121a8576121a7612c5c565b5b021790555090505081600e018054806121c4576121c36140b9565b5b60019003818190600052602060002090600802016000808201600090556001820160006121f191906129fe565b60028201600061220191906129fe565b6003820160006101000a81549060ff021916905560048201600090556005820160006101000a81549073ffffffffffffffffffffffffffffffffffffffff02191690556005820160146101000a81549060ff02191690556006820160006122689190612a3e565b6007820160006101000a81549060ff0219169055505090555b808061228c90613b2b565b915050611fc3565b508060050160008681526020019081526020016000206000808201600090556001820160006122c391906129fe565b6002820160006122d391906129fe565b6003820160006101000a81549060ff021916905560048201600090556005820160006101000a81549073ffffffffffffffffffffffffffffffffffffffff02191690556005820160146101000a81549060ff021916905560068201600061233a9190612a3e565b6007820160006101000a81549060ff02191690555050847f50d94198096be9c8aad282f822173f9212251c4d4dc2731fa944f3941749a78d33604051612380919061368d565b60405180910390a260019350505050919050565b60008061239f6124fe565b905080600c01600084815260200190815260200160002060003373ffffffffffffffffffffffffffffffffffffffff1673ffffffffffffffffffffffffffffffffffffffff16815260200190815260200160002060009054906101000a900460ff16915050919050565b606060006124156124d1565b905080600b0160008481526020019081526020016000208054806020026020016040519081016040528092919081815260200182805480156124ac57602002820191906000526020600020905b8160009054906101000a900473ffffffffffffffffffffffffffffffffffffffff1673ffffffffffffffffffffffffffffffffffffffff1681526020019060010190808311612462575b5050505050915050919050565b6000806124c46124d1565b9050806000015491505090565b6000807f5d9ab6191fe9d5041816fb24ec4281e2d3989236339577e7fbbaf91315a1bb7190508091505090565b6000807fc8fcad8db84d3cc18b4c41d551ea0ee66dd599cde068d998e57d5e09332c131c90508091505090565b6000806125366124d1565b9050600081600b016000868152602001908152602001600020905060005b81805490508110156125e9578473ffffffffffffffffffffffffffffffffffffffff1682828154811061258a5761258961344e565b5b9060005260206000200160009054906101000a900473ffffffffffffffffffffffffffffffffffffffff1673ffffffffffffffffffffffffffffffffffffffff16036125dc57600193505050506125f1565b8080600101915050612554565b506000925050505b92915050565b600a8a111580156126095750600a8911155b80156126165750600a8811155b80156126235750600a8711155b80156126305750600a8611155b801561263d5750600a8511155b801561264a5750600a8411155b80156126575750600a8311155b80156126645750600a8211155b80156126715750600a8111155b6126b0576040517f08c379a00000000000000000000000000000000000000000000000000000000081526004016126a790614134565b60405180910390fd5b50505050505050505050565b60008160090154826008015483600701548460060154856005015486600401548760030154886002015489600101548a600001546126fa9190613bdf565b6127049190613bdf565b61270e9190613bdf565b6127189190613bdf565b6127229190613bdf565b61272c9190613bdf565b6127369190613bdf565b6127409190613bdf565b61274a9190613bdf565b9050919050565b60008061275c6124d1565b90506064600f6b204fce5e3e250261100000006127799190614154565b6127839190614196565b8160000154846127939190613bdf565b11156127d4576040517f08c379a00000000000000000000000000000000000000000000000000000000081526004016127cb90614213565b60405180910390fd5b6127de8484612751565b50828473ffffffffffffffffffffffffffffffffffffffff167fad6ef58d5c294f81258965738e7ae511124139834a8d0b8f8f7327086c82052a60405160405180910390a3600191505092915050565b60006128386124fe565b9050600181600c01600085815260200190815260200160002060008473ffffffffffffffffffffffffffffffffffffffff1673ffffffffffffffffffffffffffffffffffffffff16815260200190815260200160002060006101000a81548160ff021916908315150217905550505050565b60405180610120016040528060008152602001606081526020016060815260200160001515815260200160008152602001600073ffffffffffffffffffffffffffffffffffffffff168152602001600015158152602001606081526020016000600281111561291c5761291b612c5c565b5b81525090565b82805482825590600052602060002090810192821561299b579160200282015b8281111561299a5782518260006101000a81548173ffffffffffffffffffffffffffffffffffffffff021916908373ffffffffffffffffffffffffffffffffffffffff16021790555091602001919060010190612942565b5b5090506129a89190612a5f565b5090565b8280548282559060005260206000209081019282156129ed5760005260206000209182015b828111156129ec5782548255916001019190600101906129d1565b5b5090506129fa9190612a5f565b5090565b508054612a0a906134ac565b6000825580601f10612a1c5750612a3b565b601f016020900490600052602060002090810190612a3a9190612a5f565b5b50565b5080546000825590600052602060002090810190612a5c9190612a5f565b50565b5b80821115612a78576000816000905550600101612a60565b5090565b600081519050919050565b600082825260208201905092915050565b6000819050602082019050919050565b6000819050919050565b612abb81612aa8565b82525050565b600081519050919050565b600082825260208201905092915050565b60005b83811015612afb578082015181840152602081019050612ae0565b60008484015250505050565b6000601f19601f8301169050919050565b6000612b2382612ac1565b612b2d8185612acc565b9350612b3d818560208601612add565b612b4681612b07565b840191505092915050565b60008115159050919050565b612b6681612b51565b82525050565b600073ffffffffffffffffffffffffffffffffffffffff82169050919050565b6000612b9782612b6c565b9050919050565b612ba781612b8c565b82525050565b600081519050919050565b600082825260208201905092915050565b6000819050602082019050919050565b6000612be58383612b9e565b60208301905092915050565b6000602082019050919050565b6000612c0982612bad565b612c138185612bb8565b9350612c1e83612bc9565b8060005b83811015612c4f578151612c368882612bd9565b9750612c4183612bf1565b925050600181019050612c22565b5085935050505092915050565b7f4e487b7100000000000000000000000000000000000000000000000000000000600052602160045260246000fd5b60038110612c9c57612c9b612c5c565b5b50565b6000819050612cad82612c8b565b919050565b6000612cbd82612c9f565b9050919050565b612ccd81612cb2565b82525050565b600061012083016000830151612cec6000860182612ab2565b5060208301518482036020860152612d048282612b18565b91505060408301518482036040860152612d1e8282612b18565b9150506060830151612d336060860182612b5d565b506080830151612d466080860182612ab2565b5060a0830151612d5960a0860182612b9e565b5060c0830151612d6c60c0860182612b5d565b5060e083015184820360e0860152612d848282612bfe565b915050610100830151612d9b610100860182612cc4565b508091505092915050565b6000612db28383612cd3565b905092915050565b6000602082019050919050565b6000612dd282612a7c565b612ddc8185612a87565b935083602082028501612dee85612a98565b8060005b85811015612e2a5784840389528151612e0b8582612da6565b9450612e1683612dba565b925060208a01995050600181019050612df2565b50829750879550505050505092915050565b60006020820190508181036000830152612e568184612dc7565b905092915050565b6000604051905090565b600080fd5b600080fd5b612e7b81612aa8565b8114612e8657600080fd5b50565b600081359050612e9881612e72565b92915050565b600080fd5b7f4e487b7100000000000000000000000000000000000000000000000000000000600052604160045260246000fd5b612edb82612b07565b810181811067ffffffffffffffff82111715612efa57612ef9612ea3565b5b80604052505050565b6000612f0d612e5e565b9050612f198282612ed2565b919050565b600067ffffffffffffffff821115612f3957612f38612ea3565b5b602082029050919050565b600080fd5b6000612f5c612f5784612f1e565b612f03565b90508060208402830185811115612f7657612f75612f44565b5b835b81811015612f9f5780612f8b8882612e89565b845260208401935050602081019050612f78565b5050509392505050565b600082601f830112612fbe57612fbd612e9e565b5b600a612fcb848285612f49565b91505092915050565b6000806101608385031215612fec57612feb612e68565b5b6000612ffa85828601612e89565b925050602061300b85828601612fa9565b9150509250929050565b61301e81612b8c565b811461302957600080fd5b50565b60008135905061303b81613015565b92915050565b6000819050919050565b61305481613041565b811461305f57600080fd5b50565b6000813590506130718161304b565b92915050565b6000806040838503121561308e5761308d612e68565b5b600061309c8582860161302c565b92505060206130ad85828601613062565b9150509250929050565b6130c081612b51565b82525050565b60006020820190506130db60008301846130b7565b92915050565b600080604083850312156130f8576130f7612e68565b5b600061310685828601613062565b92505060206131178582860161302c565b9150509250929050565b61312a81613041565b82525050565b60006020820190506131456000830184613121565b92915050565b60006020828403121561316157613160612e68565b5b600061316f8482850161302c565b91505092915050565b600080fd5b600067ffffffffffffffff82111561319857613197612ea3565b5b6131a182612b07565b9050602081019050919050565b82818337600083830152505050565b60006131d06131cb8461317d565b612f03565b9050828152602081018484840111156131ec576131eb613178565b5b6131f78482856131ae565b509392505050565b600082601f83011261321457613213612e9e565b5b81356132248482602086016131bd565b91505092915050565b6000806040838503121561324457613243612e68565b5b600061325285828601612e89565b925050602083013567ffffffffffffffff81111561327357613272612e6d565b5b61327f858286016131ff565b9150509250929050565b60006020828403121561329f5761329e612e68565b5b60006132ad84828501612e89565b91505092915050565b600381106132c357600080fd5b50565b6000813590506132d5816132b6565b92915050565b6000806000606084860312156132f4576132f3612e68565b5b600084013567ffffffffffffffff81111561331257613311612e6d565b5b61331e868287016131ff565b935050602084013567ffffffffffffffff81111561333f5761333e612e6d565b5b61334b868287016131ff565b925050604061335c868287016132c6565b9150509250925092565b60006020828403121561337c5761337b612e68565b5b600061338a84828501613062565b91505092915050565b600082825260208201905092915050565b60006133af82612bad565b6133b98185613393565b93506133c483612bc9565b8060005b838110156133f55781516133dc8882612bd9565b97506133e783612bf1565b9250506001810190506133c8565b5085935050505092915050565b6000602082019050818103600083015261341c81846133a4565b905092915050565b61342d81612aa8565b82525050565b60006020820190506134486000830184613424565b92915050565b7f4e487b7100000000000000000000000000000000000000000000000000000000600052603260045260246000fd5b7f4e487b7100000000000000000000000000000000000000000000000000000000600052602260045260246000fd5b600060028204905060018216806134c457607f821691505b6020821081036134d7576134d661347d565b5b50919050565b600082825260208201905092915050565b7f43616c6c657220646f6573206e6f74206861766520726571756972656420726f60008201527f6c65000000000000000000000000000000000000000000000000000000000000602082015250565b600061354a6022836134dd565b9150613555826134ee565b604082019050919050565b600060208201905081810360008301526135798161353d565b9050919050565b7f4e6f74206120726576696577657220666f72207468697320636f757273650000600082015250565b60006135b6601e836134dd565b91506135c182613580565b602082019050919050565b600060208201905081810360008301526135e5816135a9565b9050919050565b7f53636f726573206172726179206d757374206861766520313020656c656d656e60008201527f7473000000000000000000000000000000000000000000000000000000000000602082015250565b60006136486022836134dd565b9150613653826135ec565b604082019050919050565b600060208201905081810360008301526136778161363b565b9050919050565b61368781612b8c565b82525050565b60006020820190506136a2600083018461367e565b92915050565b60006060820190506136bd600083018661367e565b6136ca6020830185613121565b6136d760408301846130b7565b949350505050565b7f436f7572736520646f6573206e6f742065786973740000000000000000000000600082015250565b60006137156015836134dd565b9150613720826136df565b602082019050919050565b6000602082019050818103600083015261374481613708565b9050919050565b60008190508160005260206000209050919050565b60006020601f8301049050919050565b600082821b905092915050565b6000600883026137ad7fffffffffffffffffffffffffffffffffffffffffffffffffffffffffffffffff82613770565b6137b78683613770565b95508019841693508086168417925050509392505050565b6000819050919050565b60006137f46137ef6137ea84612aa8565b6137cf565b612aa8565b9050919050565b6000819050919050565b61380e836137d9565b61382261381a826137fb565b84845461377d565b825550505050565b600090565b61383761382a565b613842818484613805565b505050565b5b818110156138665761385b60008261382f565b600181019050613848565b5050565b601f8211156138ab5761387c8161374b565b61388584613760565b81016020851015613894578190505b6138a86138a085613760565b830182613847565b50505b505050565b600082821c905092915050565b60006138ce600019846008026138b0565b1980831691505092915050565b60006138e783836138bd565b9150826002028217905092915050565b61390082612ac1565b67ffffffffffffffff81111561391957613918612ea3565b5b61392382546134ac565b61392e82828561386a565b600060209050601f831160018114613961576000841561394f578287015190505b61395985826138db565b8655506139c1565b601f19841661396f8661374b565b60005b8281101561399757848901518255600182019150602085019450602081019050613972565b868310156139b457848901516139b0601f8916826138bd565b8355505b6001600288020188555050505b505050505050565b60006139d482612ac1565b6139de81856134dd565b93506139ee818560208601612add565b6139f781612b07565b840191505092915050565b60006020820190508181036000830152613a1c81846139c9565b905092915050565b7f436f7572736520616c726561647920617070726f766564000000000000000000600082015250565b6000613a5a6017836134dd565b9150613a6582613a24565b602082019050919050565b60006020820190508181036000830152613a8981613a4d565b9050919050565b7f416c726561647920617070726f76656400000000000000000000000000000000600082015250565b6000613ac66010836134dd565b9150613ad182613a90565b602082019050919050565b60006020820190508181036000830152613af581613ab9565b9050919050565b7f4e487b7100000000000000000000000000000000000000000000000000000000600052601160045260246000fd5b6000613b3682612aa8565b91507fffffffffffffffffffffffffffffffffffffffffffffffffffffffffffffffff8203613b6857613b67613afc565b5b600182019050919050565b7f436f7572736520616c7265616479206578697374730000000000000000000000600082015250565b6000613ba96015836134dd565b9150613bb482613b73565b602082019050919050565b60006020820190508181036000830152613bd881613b9c565b9050919050565b6000613bea82612aa8565b9150613bf583612aa8565b9250828201905080821115613c0d57613c0c613afc565b5b92915050565b600081905092915050565b6000613c2982612ac1565b613c338185613c13565b9350613c43818560208601612add565b80840191505092915050565b6000613c5b8284613c1e565b915081905092915050565b6000613c7182612aa8565b9150613c7c83612aa8565b9250828203905081811115613c9457613c93613afc565b5b92915050565b7f52657669657765727320616c72656164792073656c6563746564000000000000600082015250565b6000613cd0601a836134dd565b9150613cdb82613c9a565b602082019050919050565b60006020820190508181036000830152613cff81613cc3565b9050919050565b7f4e6f7420656e6f7567682072657669657765727320696e2074686520706f6f6c600082015250565b6000613d3c6020836134dd565b9150613d4782613d06565b602082019050919050565b60006020820190508181036000830152613d6b81613d2f565b9050919050565b6000819050919050565b613d8d613d8882612aa8565b613d72565b82525050565b6000613d9f8287613d7c565b602082019150613daf8286613d7c565b602082019150613dbf8285613d7c565b602082019150613dcf8284613d7c565b60208201915081905095945050505050565b7f4e487b7100000000000000000000000000000000000000000000000000000000600052601260045260246000fd5b6000613e1b82612aa8565b9150613e2683612aa8565b925082613e3657613e35613de1565b5b828206905092915050565b600081549050919050565b60008190508160005260206000209050919050565b60008160001c9050919050565b600073ffffffffffffffffffffffffffffffffffffffff82169050919050565b6000613ea1613e9c83613e61565b613e6e565b9050919050565b6000613eb48254613e8e565b9050919050565b6000600182019050919050565b6000613ed382613e41565b613edd8185613393565b9350613ee883613e4c565b8060005b83811015613f2057613efd82613ea8565b613f078882612bd9565b9750613f1283613ebb565b925050600181019050613eec565b5085935050505092915050565b60006020820190508181036000830152613f478184613ec8565b905092915050565b7f436f7572736520646f65736e2774206578697374210000000000000000000000600082015250565b6000613f856015836134dd565b9150613f9082613f4f565b602082019050919050565b60006020820190508181036000830152613fb481613f78565b9050919050565b600081549050613fca816134ac565b9050919050565b818103613fdf5750506140b7565b613fe882613fbb565b67ffffffffffffffff81111561400157614000612ea3565b5b61400b82546134ac565b61401682828561386a565b6000601f8311600181146140455760008415614033578287015490505b61403d85826138db565b8655506140b0565b601f1984166140538761374b565b965061405e8661374b565b60005b8281101561408657848901548255600182019150600185019450602081019050614061565b868310156140a3578489015461409f601f8916826138bd565b8355505b6001600288020188555050505b5050505050505b565b7f4e487b7100000000000000000000000000000000000000000000000000000000600052603160045260246000fd5b7f53636f726573206d757374206265206265747765656e203120616e642031302e600082015250565b600061411e6020836134dd565b9150614129826140e8565b602082019050919050565b6000602082019050818103600083015261414d81614111565b9050919050565b600061415f82612aa8565b915061416a83612aa8565b925082820261417881612aa8565b9150828204841483151761418f5761418e613afc565b5b5092915050565b60006141a182612aa8565b91506141ac83612aa8565b9250826141bc576141bb613de1565b5b828204905092915050565b7f4c696d6974204578636565646564210000000000000000000000000000000000600082015250565b60006141fd600f836134dd565b9150614208826141c7565b602082019050919050565b6000602082019050818103600083015261422c816141f0565b905091905056fea264697066735822122041be299aef3b42ecacb9c2cc0786b188cde9bee5e2d7c1559ffe5c4fcad53dad64736f6c634300081b0033",
  "linkReferences": {},
  "deployedLinkReferences": {}
}