{
  "_format": "hh-sol-artifact-1",
  "contractName": "Ecosystem1Facet",
  "sourceName": "contracts/DiamondProxy/Ecosystem1Facet.sol",
  "abi": [
    {
      "inputs": [],
      "name": "AccessControlBadConfirmation",
      "type": "error"
    },
    {
      "inputs": [
        {
          "internalType": "address",
          "name": "account",
          "type": "address"
        },
        {
          "internalType": "bytes32",
          "name": "neededRole",
          "type": "bytes32"
        }
      ],
      "name": "AccessControlUnauthorizedAccount",
      "type": "error"
    },
    {
      "inputs": [],
      "name": "ReentrancyGuardReentrantCall",
      "type": "error"
    },
    {
      "anonymous": false,
      "inputs": [
        {
          "indexed": true,
          "internalType": "uint256",
          "name": "courseId",
          "type": "uint256"
        },
        {
          "indexed": false,
          "internalType": "uint256",
          "name": "approvalCount",
          "type": "uint256"
        }
      ],
      "name": "CourseApproved",
      "type": "event"
    },
    {
      "anonymous": false,
      "inputs": [
        {
          "indexed": true,
          "internalType": "uint256",
          "name": "courseId",
          "type": "uint256"
        },
        {
          "indexed": false,
          "internalType": "string",
          "name": "courseName",
          "type": "string"
        },
        {
          "indexed": false,
          "internalType": "address",
          "name": "creator",
          "type": "address"
        }
      ],
      "name": "CourseCreated",
      "type": "event"
    },
    {
      "anonymous": false,
      "inputs": [
        {
          "indexed": true,
          "internalType": "uint256",
          "name": "_courseID",
          "type": "uint256"
        },
        {
          "indexed": true,
          "internalType": "string",
          "name": "_courseName",
          "type": "string"
        },
        {
          "indexed": false,
          "internalType": "bool",
          "name": "_approved",
          "type": "bool"
        }
      ],
      "name": "CourseCreationSuccess",
      "type": "event"
    },
    {
      "anonymous": false,
      "inputs": [
        {
          "indexed": true,
          "internalType": "uint256",
          "name": "_courseId",
          "type": "uint256"
        },
        {
          "indexed": false,
          "internalType": "address",
          "name": "owner",
          "type": "address"
        }
      ],
      "name": "CourseDeleteSuccess",
      "type": "event"
    },
    {
      "anonymous": false,
      "inputs": [
        {
          "indexed": true,
          "internalType": "uint256",
          "name": "_courseId",
          "type": "uint256"
        },
        {
          "indexed": false,
          "internalType": "string",
          "name": "_courseName",
          "type": "string"
        }
      ],
      "name": "CourseEdited",
      "type": "event"
    },
    {
      "anonymous": false,
      "inputs": [
        {
          "indexed": true,
          "internalType": "address",
          "name": "_to",
          "type": "address"
        },
        {
          "indexed": true,
          "internalType": "uint256",
          "name": "_amount",
          "type": "uint256"
        }
      ],
      "name": "EcosystemPoolUpdate",
      "type": "event"
    },
    {
      "anonymous": false,
      "inputs": [
        {
          "indexed": true,
          "internalType": "uint256",
          "name": "courseId",
          "type": "uint256"
        },
        {
          "indexed": false,
          "internalType": "address",
          "name": "reviewer",
          "type": "address"
        }
      ],
      "name": "ReviewSubmitted",
      "type": "event"
    },
    {
      "anonymous": false,
      "inputs": [
        {
          "indexed": true,
          "internalType": "uint256",
          "name": "courseId",
          "type": "uint256"
        },
        {
          "indexed": false,
          "internalType": "address[]",
          "name": "reviewers",
          "type": "address[]"
        }
      ],
      "name": "ReviewersAssigned",
      "type": "event"
    },
    {
      "anonymous": false,
      "inputs": [
        {
          "indexed": true,
          "internalType": "bytes32",
          "name": "role",
          "type": "bytes32"
        },
        {
          "indexed": true,
          "internalType": "bytes32",
          "name": "previousAdminRole",
          "type": "bytes32"
        },
        {
          "indexed": true,
          "internalType": "bytes32",
          "name": "newAdminRole",
          "type": "bytes32"
        }
      ],
      "name": "RoleAdminChanged",
      "type": "event"
    },
    {
      "anonymous": false,
      "inputs": [
        {
          "indexed": true,
          "internalType": "bytes32",
          "name": "role",
          "type": "bytes32"
        },
        {
          "indexed": true,
          "internalType": "address",
          "name": "account",
          "type": "address"
        },
        {
          "indexed": true,
          "internalType": "address",
          "name": "sender",
          "type": "address"
        }
      ],
      "name": "RoleGranted",
      "type": "event"
    },
    {
      "anonymous": false,
      "inputs": [
        {
          "indexed": true,
          "internalType": "bytes32",
          "name": "role",
          "type": "bytes32"
        },
        {
          "indexed": true,
          "internalType": "address",
          "name": "account",
          "type": "address"
        },
        {
          "indexed": true,
          "internalType": "address",
          "name": "sender",
          "type": "address"
        }
      ],
      "name": "RoleRevoked",
      "type": "event"
    },
    {
      "inputs": [],
      "name": "COURSE_OWNER_ROLE",
      "outputs": [
        {
          "internalType": "bytes32",
          "name": "",
          "type": "bytes32"
        }
      ],
      "stateMutability": "view",
      "type": "function"
    },
    {
      "inputs": [],
      "name": "DEFAULT_ADMIN_ROLE",
      "outputs": [
        {
          "internalType": "bytes32",
          "name": "",
          "type": "bytes32"
        }
      ],
      "stateMutability": "view",
      "type": "function"
    },
    {
      "inputs": [
        {
          "internalType": "uint256",
          "name": "courseId",
          "type": "uint256"
        }
      ],
      "name": "approveCourse",
      "outputs": [],
      "stateMutability": "nonpayable",
      "type": "function"
    },
    {
      "inputs": [
        {
          "internalType": "string",
          "name": "_courseName",
          "type": "string"
        },
        {
          "internalType": "string",
          "name": "_description",
          "type": "string"
        },
        {
          "internalType": "enum LibDiamond.DifficultyLevel",
          "name": "_difficultyLevel",
          "type": "uint8"
        }
      ],
      "name": "createCourse",
      "outputs": [
        {
          "internalType": "bool",
          "name": "",
          "type": "bool"
        }
      ],
      "stateMutability": "nonpayable",
      "type": "function"
    },
    {
      "inputs": [
        {
          "internalType": "uint256",
          "name": "_courseId",
          "type": "uint256"
        }
      ],
      "name": "deleteCourse",
      "outputs": [
        {
          "internalType": "bool",
          "name": "",
          "type": "bool"
        }
      ],
      "stateMutability": "nonpayable",
      "type": "function"
    },
    {
      "inputs": [
        {
          "internalType": "uint256",
          "name": "_courseId",
          "type": "uint256"
        },
        {
          "internalType": "string",
          "name": "_courseName",
          "type": "string"
        }
      ],
      "name": "editCourse",
      "outputs": [
        {
          "internalType": "bool",
          "name": "",
          "type": "bool"
        }
      ],
      "stateMutability": "nonpayable",
      "type": "function"
    },
    {
      "inputs": [],
      "name": "getAllCourses",
      "outputs": [
        {
          "components": [
            {
              "internalType": "uint256",
              "name": "courseId",
              "type": "uint256"
            },
            {
              "internalType": "string",
              "name": "courseName",
              "type": "string"
            },
            {
              "internalType": "string",
              "name": "description",
              "type": "string"
            },
            {
              "internalType": "bool",
              "name": "approved",
              "type": "bool"
            },
            {
              "internalType": "uint256",
              "name": "approvalCount",
              "type": "uint256"
            },
            {
              "internalType": "address",
              "name": "creator",
              "type": "address"
            },
            {
              "internalType": "bool",
              "name": "exists",
              "type": "bool"
            },
            {
              "internalType": "address[]",
              "name": "enrolledStudents",
              "type": "address[]"
            },
            {
              "internalType": "enum LibDiamond.DifficultyLevel",
              "name": "difficultyLevel",
              "type": "uint8"
            }
          ],
          "internalType": "struct LibDiamond.Course[]",
          "name": "",
          "type": "tuple[]"
        }
      ],
      "stateMutability": "view",
      "type": "function"
    },
    {
      "inputs": [
        {
          "internalType": "uint256",
          "name": "courseId",
          "type": "uint256"
        }
      ],
      "name": "getCourseReviewers",
      "outputs": [
        {
          "internalType": "address[]",
          "name": "",
          "type": "address[]"
        }
      ],
      "stateMutability": "view",
      "type": "function"
    },
    {
      "inputs": [],
      "name": "getCurrentEcosystemPoolSupply",
      "outputs": [
        {
          "internalType": "uint256",
          "name": "",
          "type": "uint256"
        }
      ],
      "stateMutability": "view",
      "type": "function"
    },
    {
      "inputs": [
        {
          "internalType": "bytes32",
          "name": "role",
          "type": "bytes32"
        }
      ],
      "name": "getRoleAdmin",
      "outputs": [
        {
          "internalType": "bytes32",
          "name": "",
          "type": "bytes32"
        }
      ],
      "stateMutability": "view",
      "type": "function"
    },
    {
      "inputs": [
        {
          "internalType": "bytes32",
          "name": "role",
          "type": "bytes32"
        },
        {
          "internalType": "address",
          "name": "account",
          "type": "address"
        }
      ],
      "name": "grantRole",
      "outputs": [],
      "stateMutability": "nonpayable",
      "type": "function"
    },
    {
      "inputs": [
        {
          "internalType": "bytes32",
          "name": "role",
          "type": "bytes32"
        },
        {
          "internalType": "address",
          "name": "account",
          "type": "address"
        }
      ],
      "name": "hasRole",
      "outputs": [
        {
          "internalType": "bool",
          "name": "",
          "type": "bool"
        }
      ],
      "stateMutability": "view",
      "type": "function"
    },
    {
      "inputs": [
        {
          "internalType": "bytes32",
          "name": "role",
          "type": "bytes32"
        },
        {
          "internalType": "address",
          "name": "callerConfirmation",
          "type": "address"
        }
      ],
      "name": "renounceRole",
      "outputs": [],
      "stateMutability": "nonpayable",
      "type": "function"
    },
    {
      "inputs": [
        {
          "internalType": "bytes32",
          "name": "role",
          "type": "bytes32"
        },
        {
          "internalType": "address",
          "name": "account",
          "type": "address"
        }
      ],
      "name": "revokeRole",
      "outputs": [],
      "stateMutability": "nonpayable",
      "type": "function"
    },
    {
      "inputs": [
        {
          "internalType": "uint256",
          "name": "courseId",
          "type": "uint256"
        }
      ],
      "name": "selectCourseReviewers",
      "outputs": [],
      "stateMutability": "nonpayable",
      "type": "function"
    },
    {
      "inputs": [
        {
          "internalType": "uint256",
          "name": "courseId",
          "type": "uint256"
        },
        {
          "internalType": "uint256[10]",
          "name": "scores",
          "type": "uint256[10]"
        }
      ],
      "name": "submitReview",
      "outputs": [],
      "stateMutability": "nonpayable",
      "type": "function"
    },
    {
      "inputs": [
        {
          "internalType": "bytes4",
          "name": "interfaceId",
          "type": "bytes4"
        }
      ],
      "name": "supportsInterface",
      "outputs": [
        {
          "internalType": "bool",
          "name": "",
          "type": "bool"
        }
      ],
      "stateMutability": "view",
      "type": "function"
    }
  ],
  "bytecode": "0x6080604052348015600f57600080fd5b506001600081905550613d40806100276000396000f3fe608060405234801561001057600080fd5b506004361061010b5760003560e01c806375284998116100a25780639dad8d22116100715780639dad8d22146102c8578063a217fddf146102f8578063c293bbbe14610316578063c7954e4c14610346578063d547741f146103645761010b565b806375284998146102305780638a2492bb1461024c5780638ea6e2fd1461027c57806391d14854146102985761010b565b80632f2ff15d116100de5780632f2ff15d146101aa57806336568abe146101c65780633693dcfa146101e25780635cc2a14d146102005761010b565b806301ffc9a71461011057806304e48bd11461014057806317fe7d631461015e578063248a9ca31461017a575b600080fd5b61012a60048036038101906101259190612647565b610380565b604051610137919061268f565b60405180910390f35b6101486103fa565b6040516101559190612a5e565b60405180910390f35b61017860048036038101906101739190612be2565b610853565b005b610194600480360381019061018f9190612c59565b610c0e565b6040516101a19190612c95565b60405180910390f35b6101c460048036038101906101bf9190612cdc565b610c2e565b005b6101e060048036038101906101db9190612cdc565b610c50565b005b6101ea610ccb565b6040516101f79190612c95565b60405180910390f35b61021a60048036038101906102159190612dd1565b610cef565b604051610227919061268f565b60405180910390f35b61024a60048036038101906102459190612e2d565b610dec565b005b61026660048036038101906102619190612e7f565b611055565b604051610273919061268f565b60405180910390f35b61029660048036038101906102919190612e2d565b61152a565b005b6102b260048036038101906102ad9190612cdc565b611841565b6040516102bf919061268f565b60405180910390f35b6102e260048036038101906102dd9190612e2d565b6118ac565b6040516102ef919061268f565b60405180910390f35b610300611d12565b60405161030d9190612c95565b60405180910390f35b610330600480360381019061032b9190612e2d565b611d19565b60405161033d9190612f79565b60405180910390f35b61034e611dc9565b60405161035b9190612faa565b60405180910390f35b61037e60048036038101906103799190612cdc565b611de1565b005b60007f7965db0b000000000000000000000000000000000000000000000000000000007bffffffffffffffffffffffffffffffffffffffffffffffffffffffff1916827bffffffffffffffffffffffffffffffffffffffffffffffffffffffff191614806103f357506103f282611e03565b5b9050919050565b60606000610406611e6d565b9050600081600e018054905067ffffffffffffffff81111561042b5761042a612ab1565b5b60405190808252806020026020018201604052801561046457816020015b610451612409565b8152602001906001900390816104495790505b50905060005b82600e018054905081101561084a5760405180610120016040528084600e01838154811061049b5761049a612fc5565b5b906000526020600020906008020160000154815260200184600e0183815481106104c8576104c7612fc5565b5b906000526020600020906008020160010180546104e490613023565b80601f016020809104026020016040519081016040528092919081815260200182805461051090613023565b801561055d5780601f106105325761010080835404028352916020019161055d565b820191906000526020600020905b81548152906001019060200180831161054057829003601f168201915b5050505050815260200184600e01838154811061057d5761057c612fc5565b5b9060005260206000209060080201600201805461059990613023565b80601f01602080910402602001604051908101604052809291908181526020018280546105c590613023565b80156106125780601f106105e757610100808354040283529160200191610612565b820191906000526020600020905b8154815290600101906020018083116105f557829003601f168201915b5050505050815260200184600e01838154811061063257610631612fc5565b5b906000526020600020906008020160030160009054906101000a900460ff161515815260200184600e01838154811061066e5761066d612fc5565b5b906000526020600020906008020160040154815260200184600e01838154811061069b5761069a612fc5565b5b906000526020600020906008020160050160009054906101000a900473ffffffffffffffffffffffffffffffffffffffff1673ffffffffffffffffffffffffffffffffffffffff16815260200184600e0183815481106106fe576106fd612fc5565b5b906000526020600020906008020160050160149054906101000a900460ff161515815260200184600e01838154811061073a57610739612fc5565b5b90600052602060002090600802016006018054806020026020016040519081016040528092919081815260200182805480156107cb57602002820191906000526020600020905b8160009054906101000a900473ffffffffffffffffffffffffffffffffffffffff1673ffffffffffffffffffffffffffffffffffffffff1681526020019060010190808311610781575b5050505050815260200184600e0183815481106107eb576107ea612fc5565b5b906000526020600020906008020160070160009054906101000a900460ff16600281111561081c5761081b61287e565b5b81525082828151811061083257610831612fc5565b5b6020026020010181905250808060010191505061046a565b50809250505090565b7fc10c77be35aff266144ed64c26a1fa104bae2f284ae99ac4a34203454704a18561087d81611e9a565b6000610887611e6d565b90506108938433611eae565b6108d2576040517f08c379a00000000000000000000000000000000000000000000000000000000081526004016108c9906130b1565b60405180910390fd5b600a8014610915576040517f08c379a000000000000000000000000000000000000000000000000000000000815260040161090c90613143565b60405180910390fd5b610a17836000600a811061092c5761092b612fc5565b5b6020020151846001600a811061094557610944612fc5565b5b6020020151856002600a811061095e5761095d612fc5565b5b6020020151866003600a811061097757610976612fc5565b5b6020020151876004600a81106109905761098f612fc5565b5b6020020151886005600a81106109a9576109a8612fc5565b5b6020020151896006600a81106109c2576109c1612fc5565b5b60200201518a6007600a81106109db576109da612fc5565b5b60200201518b6008600a81106109f4576109f3612fc5565b5b60200201518c6009600a8110610a0d57610a0c612fc5565b5b6020020151611f7a565b600081600a0160008681526020019081526020016000206001816001815401808255809150500390600052602060002090600b02019050836000600a8110610a6257610a61612fc5565b5b60200201518160000181905550836001600a8110610a8357610a82612fc5565b5b60200201518160010181905550836002600a8110610aa457610aa3612fc5565b5b60200201518160020181905550836003600a8110610ac557610ac4612fc5565b5b60200201518160030181905550836004600a8110610ae657610ae5612fc5565b5b60200201518160040181905550836005600a8110610b0757610b06612fc5565b5b60200201518160050181905550836006600a8110610b2857610b27612fc5565b5b60200201518160060181905550836007600a8110610b4957610b48612fc5565b5b60200201518160070181905550836008600a8110610b6a57610b69612fc5565b5b60200201518160080181905550836009600a8110610b8b57610b8a612fc5565b5b60200201518160090181905550600181600a0160006101000a81548160ff021916908315150217905550847f049c6bc670988ed0fe782ccafb4e8cf96eb4fed5e99f7ba5b64d9bb78210707733604051610be59190613172565b60405180910390a26050610bf88261203f565b10610c0757610c0685610dec565b5b5050505050565b600060016000838152602001908152602001600020600101549050919050565b610c3782610c0e565b610c4081611e9a565b610c4a83836120d4565b50505050565b610c586121c5565b73ffffffffffffffffffffffffffffffffffffffff168173ffffffffffffffffffffffffffffffffffffffff1614610cbc576040517f6697b23200000000000000000000000000000000000000000000000000000000815260040160405180910390fd5b610cc682826121cd565b505050565b7fadb22091b155738d2e889eb96f509d2a7c93234236b30400927feb4a6a15ab0081565b60007fadb22091b155738d2e889eb96f509d2a7c93234236b30400927feb4a6a15ab00610d1b81611e9a565b6000610d25611e6d565b905060008160050160008781526020019081526020016000206000015403610d82576040517f08c379a0000000000000000000000000000000000000000000000000000000008152600401610d79906131d9565b60405180910390fd5b838160050160008781526020019081526020016000206001019081610da791906133a5565b50847f5c8c98b6b26236296c856fae8a5ca0c793bbb81c5f8b7c9a9ab99358f53fb0c085604051610dd891906134b0565b60405180910390a260019250505092915050565b7fc10c77be35aff266144ed64c26a1fa104bae2f284ae99ac4a34203454704a185610e1681611e9a565b6000610e20611e6d565b9050600081600901600085815260200190815260200160002090508060030160009054906101000a900460ff1615610e8d576040517f08c379a0000000000000000000000000000000000000000000000000000000008152600401610e849061351e565b60405180910390fd5b81600d01600085815260200190815260200160002060003373ffffffffffffffffffffffffffffffffffffffff1673ffffffffffffffffffffffffffffffffffffffff16815260200190815260200160002060009054906101000a900460ff1615610f2d576040517f08c379a0000000000000000000000000000000000000000000000000000000008152600401610f249061358a565b60405180910390fd5b600182600d01600086815260200190815260200160002060003373ffffffffffffffffffffffffffffffffffffffff1673ffffffffffffffffffffffffffffffffffffffff16815260200190815260200160002060006101000a81548160ff021916908315150217905550806004016000815480929190610fad906135d9565b9190505550600281600401541061104f5760018160030160006101000a81548160ff021916908315150217905550837fbcfbdd19bcb0c6ac01ca9ac647b43defbbf1a1c1df54bb29041dfb09ffb31efa826004015460405161100f9190612faa565b60405180910390a261104d8160050160009054906101000a900473ffffffffffffffffffffffffffffffffffffffff16674563918244f400006122c0565b505b50505050565b600080611060611e6d565b90508060050160008260020154815260200190815260200160002060050160149054906101000a900460ff16156110cc576040517f08c379a00000000000000000000000000000000000000000000000000000000081526004016110c39061366d565b60405180910390fd5b600060405180610120016040528083600201548152602001878152602001868152602001600015158152602001600081526020013373ffffffffffffffffffffffffffffffffffffffff168152602001600115158152602001600067ffffffffffffffff8111156111405761113f612ab1565b5b60405190808252806020026020018201604052801561116e5781602001602082028036833780820191505090505b5081526020018560028111156111875761118661287e565b5b815250905080826005016000846002015481526020019081526020016000206000820151816000015560208201518160010190816111c591906133a5565b5060408201518160020190816111db91906133a5565b5060608201518160030160006101000a81548160ff0219169083151502179055506080820151816004015560a08201518160050160006101000a81548173ffffffffffffffffffffffffffffffffffffffff021916908373ffffffffffffffffffffffffffffffffffffffff16021790555060c08201518160050160146101000a81548160ff02191690831515021790555060e0820151816006019080519060200190611289929190612481565b506101008201518160070160006101000a81548160ff021916908360028111156112b6576112b561287e565b5b021790555090505081600e0181908060018154018082558091505060019003906000526020600020906008020160009091909190915060008201518160000155602082015181600101908161130b91906133a5565b50604082015181600201908161132191906133a5565b5060608201518160030160006101000a81548160ff0219169083151502179055506080820151816004015560a08201518160050160006101000a81548173ffffffffffffffffffffffffffffffffffffffff021916908373ffffffffffffffffffffffffffffffffffffffff16021790555060c08201518160050160146101000a81548160ff02191690831515021790555060e08201518160060190805190602001906113cf929190612481565b506101008201518160070160006101000a81548160ff021916908360028111156113fc576113fb61287e565b5b02179055505050816001016000815480929190611418906135d9565b919050555060018260070160003373ffffffffffffffffffffffffffffffffffffffff1673ffffffffffffffffffffffffffffffffffffffff1681526020019081526020016000206000016000828254611472919061368d565b9250508190555081600201600081548092919061148e906135d9565b91905055506114bd7fadb22091b155738d2e889eb96f509d2a7c93234236b30400927feb4a6a15ab00336120d4565b50856040516114cc91906136fd565b6040518091039020600183600201546114e59190613714565b7f9c93a42b217373d37e6c66ace0a67fe1fa1f78c93164b62417de69c48c0f67e26000604051611515919061268f565b60405180910390a36001925050509392505050565b7fadb22091b155738d2e889eb96f509d2a7c93234236b30400927feb4a6a15ab0061155481611e9a565b600061155e611e6d565b9050600081600b01600085815260200190815260200160002080549050146115bb576040517f08c379a00000000000000000000000000000000000000000000000000000000081526004016115b290613794565b60405180910390fd5b600381600301805490501015611606576040517f08c379a00000000000000000000000000000000000000000000000000000000081526004016115fd90613800565b60405180910390fd5b60005b60038110156117ef5760008260030180549050424485600301805490508560405160200161163a9493929190613841565b6040516020818303038152906040528051906020012060001c61165d91906138be565b9050600083600301828154811061167757611676612fc5565b5b9060005260206000200160009054906101000a900473ffffffffffffffffffffffffffffffffffffffff1690506000805b85600b01600089815260200190815260200160002080549050811015611762578273ffffffffffffffffffffffffffffffffffffffff1686600b0160008a8152602001908152602001600020828154811061170657611705612fc5565b5b9060005260206000200160009054906101000a900473ffffffffffffffffffffffffffffffffffffffff1673ffffffffffffffffffffffffffffffffffffffff16036117555760019150611762565b80806001019150506116a8565b50806117df5784600b016000888152602001908152602001600020829080600181540180825580915050600190039060005260206000200160009091909190916101000a81548173ffffffffffffffffffffffffffffffffffffffff021916908373ffffffffffffffffffffffffffffffffffffffff1602179055505b5050508080600101915050611609565b50827f4b8fdabac7f3012213d917c1ab7ed9ad12ca775fadd33741c49237b3e649e27d82600b01600086815260200190815260200160002060405161183491906139db565b60405180910390a2505050565b60006001600084815260200190815260200160002060000160008373ffffffffffffffffffffffffffffffffffffffff1673ffffffffffffffffffffffffffffffffffffffff16815260200190815260200160002060009054906101000a900460ff16905092915050565b60007fadb22091b155738d2e889eb96f509d2a7c93234236b30400927feb4a6a15ab006118d881611e9a565b60006118e2611e6d565b90506000816005016000868152602001908152602001600020600001540361193f576040517f08c379a000000000000000000000000000000000000000000000000000000000815260040161193690613a49565b60405180910390fd5b60005b81600e01805490508111611c13578482600e01828154811061196757611966612fc5565b5b90600052602060002090600802016000015403611c005781600e01600183600e01805490506119969190613714565b815481106119a7576119a6612fc5565b5b906000526020600020906008020182600e0182815481106119cb576119ca612fc5565b5b906000526020600020906008020160008201548160000155600182018160010190816119f79190613a7f565b5060028201816002019081611a0c9190613a7f565b506003820160009054906101000a900460ff168160030160006101000a81548160ff021916908315150217905550600482015481600401556005820160009054906101000a900473ffffffffffffffffffffffffffffffffffffffff168160050160006101000a81548173ffffffffffffffffffffffffffffffffffffffff021916908373ffffffffffffffffffffffffffffffffffffffff1602179055506005820160149054906101000a900460ff168160050160146101000a81548160ff0219169083151502179055506006820181600601908054611aee92919061250b565b506007820160009054906101000a900460ff168160070160006101000a81548160ff02191690836002811115611b2757611b2661287e565b5b021790555090505081600e01805480611b4357611b42613b67565b5b6001900381819060005260206000209060080201600080820160009055600182016000611b70919061255d565b600282016000611b80919061255d565b6003820160006101000a81549060ff021916905560048201600090556005820160006101000a81549073ffffffffffffffffffffffffffffffffffffffff02191690556005820160146101000a81549060ff0219169055600682016000611be7919061259d565b6007820160006101000a81549060ff0219169055505090555b8080611c0b906135d9565b915050611942565b50806005016000858152602001908152602001600020600080820160009055600182016000611c42919061255d565b600282016000611c52919061255d565b6003820160006101000a81549060ff021916905560048201600090556005820160006101000a81549073ffffffffffffffffffffffffffffffffffffffff02191690556005820160146101000a81549060ff0219169055600682016000611cb9919061259d565b6007820160006101000a81549060ff02191690555050837f50d94198096be9c8aad282f822173f9212251c4d4dc2731fa944f3941749a78d33604051611cff9190613172565b60405180910390a2600192505050919050565b6000801b81565b60606000611d25611e6d565b905080600b016000848152602001908152602001600020805480602002602001604051908101604052809291908181526020018280548015611dbc57602002820191906000526020600020905b8160009054906101000a900473ffffffffffffffffffffffffffffffffffffffff1673ffffffffffffffffffffffffffffffffffffffff1681526020019060010190808311611d72575b5050505050915050919050565b600080611dd4611e6d565b9050806000015491505090565b611dea82610c0e565b611df381611e9a565b611dfd83836121cd565b50505050565b60007f01ffc9a7000000000000000000000000000000000000000000000000000000007bffffffffffffffffffffffffffffffffffffffffffffffffffffffff1916827bffffffffffffffffffffffffffffffffffffffffffffffffffffffff1916149050919050565b6000807f5d9ab6191fe9d5041816fb24ec4281e2d3989236339577e7fbbaf91315a1bb7190508091505090565b611eab81611ea66121c5565b6123b8565b50565b600080611eb9611e6d565b9050600081600b016000868152602001908152602001600020905060005b8180549050811015611f6c578473ffffffffffffffffffffffffffffffffffffffff16828281548110611f0d57611f0c612fc5565b5b9060005260206000200160009054906101000a900473ffffffffffffffffffffffffffffffffffffffff1673ffffffffffffffffffffffffffffffffffffffff1603611f5f5760019350505050611f74565b8080600101915050611ed7565b506000925050505b92915050565b600a8a11158015611f8c5750600a8911155b8015611f995750600a8811155b8015611fa65750600a8711155b8015611fb35750600a8611155b8015611fc05750600a8511155b8015611fcd5750600a8411155b8015611fda5750600a8311155b8015611fe75750600a8211155b8015611ff45750600a8111155b612033576040517f08c379a000000000000000000000000000000000000000000000000000000000815260040161202a90613be2565b60405180910390fd5b50505050505050505050565b60008160090154826008015483600701548460060154856005015486600401548760030154886002015489600101548a6000015461207d919061368d565b612087919061368d565b612091919061368d565b61209b919061368d565b6120a5919061368d565b6120af919061368d565b6120b9919061368d565b6120c3919061368d565b6120cd919061368d565b9050919050565b60006120e08383611841565b6121ba57600180600085815260200190815260200160002060000160008473ffffffffffffffffffffffffffffffffffffffff1673ffffffffffffffffffffffffffffffffffffffff16815260200190815260200160002060006101000a81548160ff0219169083151502179055506121576121c5565b73ffffffffffffffffffffffffffffffffffffffff168273ffffffffffffffffffffffffffffffffffffffff16847f2f8788117e7eff1d82e926ec794901d17c78024a50270940304540a733656f0d60405160405180910390a4600190506121bf565b600090505b92915050565b600033905090565b60006121d98383611841565b156122b55760006001600085815260200190815260200160002060000160008473ffffffffffffffffffffffffffffffffffffffff1673ffffffffffffffffffffffffffffffffffffffff16815260200190815260200160002060006101000a81548160ff0219169083151502179055506122526121c5565b73ffffffffffffffffffffffffffffffffffffffff168273ffffffffffffffffffffffffffffffffffffffff16847ff6391f5c32d9c69d2a47ea670b442974b53935d1edc7fd64eb21e047a839171b60405160405180910390a4600190506122ba565b600090505b92915050565b6000806122cb611e6d565b90506064600f6b204fce5e3e250261100000006122e89190613c02565b6122f29190613c44565b816000015484612302919061368d565b1115612343576040517f08c379a000000000000000000000000000000000000000000000000000000000815260040161233a90613cc1565b60405180910390fd5b61234d84846122c0565b5082816000016000828254612362919061368d565b92505081905550828473ffffffffffffffffffffffffffffffffffffffff167fad6ef58d5c294f81258965738e7ae511124139834a8d0b8f8f7327086c82052a60405160405180910390a3600191505092915050565b6123c28282611841565b6124055780826040517fe2517d3f0000000000000000000000000000000000000000000000000000000081526004016123fc929190613ce1565b60405180910390fd5b5050565b60405180610120016040528060008152602001606081526020016060815260200160001515815260200160008152602001600073ffffffffffffffffffffffffffffffffffffffff168152602001600015158152602001606081526020016000600281111561247b5761247a61287e565b5b81525090565b8280548282559060005260206000209081019282156124fa579160200282015b828111156124f95782518260006101000a81548173ffffffffffffffffffffffffffffffffffffffff021916908373ffffffffffffffffffffffffffffffffffffffff160217905550916020019190600101906124a1565b5b50905061250791906125be565b5090565b82805482825590600052602060002090810192821561254c5760005260206000209182015b8281111561254b578254825591600101919060010190612530565b5b50905061255991906125be565b5090565b50805461256990613023565b6000825580601f1061257b575061259a565b601f01602090049060005260206000209081019061259991906125be565b5b50565b50805460008255906000526020600020908101906125bb91906125be565b50565b5b808211156125d75760008160009055506001016125bf565b5090565b6000604051905090565b600080fd5b600080fd5b60007fffffffff0000000000000000000000000000000000000000000000000000000082169050919050565b612624816125ef565b811461262f57600080fd5b50565b6000813590506126418161261b565b92915050565b60006020828403121561265d5761265c6125e5565b5b600061266b84828501612632565b91505092915050565b60008115159050919050565b61268981612674565b82525050565b60006020820190506126a46000830184612680565b92915050565b600081519050919050565b600082825260208201905092915050565b6000819050602082019050919050565b6000819050919050565b6126e9816126d6565b82525050565b600081519050919050565b600082825260208201905092915050565b60005b8381101561272957808201518184015260208101905061270e565b60008484015250505050565b6000601f19601f8301169050919050565b6000612751826126ef565b61275b81856126fa565b935061276b81856020860161270b565b61277481612735565b840191505092915050565b61278881612674565b82525050565b600073ffffffffffffffffffffffffffffffffffffffff82169050919050565b60006127b98261278e565b9050919050565b6127c9816127ae565b82525050565b600081519050919050565b600082825260208201905092915050565b6000819050602082019050919050565b600061280783836127c0565b60208301905092915050565b6000602082019050919050565b600061282b826127cf565b61283581856127da565b9350612840836127eb565b8060005b8381101561287157815161285888826127fb565b975061286383612813565b925050600181019050612844565b5085935050505092915050565b7f4e487b7100000000000000000000000000000000000000000000000000000000600052602160045260246000fd5b600381106128be576128bd61287e565b5b50565b60008190506128cf826128ad565b919050565b60006128df826128c1565b9050919050565b6128ef816128d4565b82525050565b60006101208301600083015161290e60008601826126e0565b50602083015184820360208601526129268282612746565b915050604083015184820360408601526129408282612746565b9150506060830151612955606086018261277f565b50608083015161296860808601826126e0565b5060a083015161297b60a08601826127c0565b5060c083015161298e60c086018261277f565b5060e083015184820360e08601526129a68282612820565b9150506101008301516129bd6101008601826128e6565b508091505092915050565b60006129d483836128f5565b905092915050565b6000602082019050919050565b60006129f4826126aa565b6129fe81856126b5565b935083602082028501612a10856126c6565b8060005b85811015612a4c5784840389528151612a2d85826129c8565b9450612a38836129dc565b925060208a01995050600181019050612a14565b50829750879550505050505092915050565b60006020820190508181036000830152612a7881846129e9565b905092915050565b612a89816126d6565b8114612a9457600080fd5b50565b600081359050612aa681612a80565b92915050565b600080fd5b7f4e487b7100000000000000000000000000000000000000000000000000000000600052604160045260246000fd5b612ae982612735565b810181811067ffffffffffffffff82111715612b0857612b07612ab1565b5b80604052505050565b6000612b1b6125db565b9050612b278282612ae0565b919050565b600067ffffffffffffffff821115612b4757612b46612ab1565b5b602082029050919050565b600080fd5b6000612b6a612b6584612b2c565b612b11565b90508060208402830185811115612b8457612b83612b52565b5b835b81811015612bad5780612b998882612a97565b845260208401935050602081019050612b86565b5050509392505050565b600082601f830112612bcc57612bcb612aac565b5b600a612bd9848285612b57565b91505092915050565b6000806101608385031215612bfa57612bf96125e5565b5b6000612c0885828601612a97565b9250506020612c1985828601612bb7565b9150509250929050565b6000819050919050565b612c3681612c23565b8114612c4157600080fd5b50565b600081359050612c5381612c2d565b92915050565b600060208284031215612c6f57612c6e6125e5565b5b6000612c7d84828501612c44565b91505092915050565b612c8f81612c23565b82525050565b6000602082019050612caa6000830184612c86565b92915050565b612cb9816127ae565b8114612cc457600080fd5b50565b600081359050612cd681612cb0565b92915050565b60008060408385031215612cf357612cf26125e5565b5b6000612d0185828601612c44565b9250506020612d1285828601612cc7565b9150509250929050565b600080fd5b600067ffffffffffffffff821115612d3c57612d3b612ab1565b5b612d4582612735565b9050602081019050919050565b82818337600083830152505050565b6000612d74612d6f84612d21565b612b11565b905082815260208101848484011115612d9057612d8f612d1c565b5b612d9b848285612d52565b509392505050565b600082601f830112612db857612db7612aac565b5b8135612dc8848260208601612d61565b91505092915050565b60008060408385031215612de857612de76125e5565b5b6000612df685828601612a97565b925050602083013567ffffffffffffffff811115612e1757612e166125ea565b5b612e2385828601612da3565b9150509250929050565b600060208284031215612e4357612e426125e5565b5b6000612e5184828501612a97565b91505092915050565b60038110612e6757600080fd5b50565b600081359050612e7981612e5a565b92915050565b600080600060608486031215612e9857612e976125e5565b5b600084013567ffffffffffffffff811115612eb657612eb56125ea565b5b612ec286828701612da3565b935050602084013567ffffffffffffffff811115612ee357612ee26125ea565b5b612eef86828701612da3565b9250506040612f0086828701612e6a565b9150509250925092565b600082825260208201905092915050565b6000612f26826127cf565b612f308185612f0a565b9350612f3b836127eb565b8060005b83811015612f6c578151612f5388826127fb565b9750612f5e83612813565b925050600181019050612f3f565b5085935050505092915050565b60006020820190508181036000830152612f938184612f1b565b905092915050565b612fa4816126d6565b82525050565b6000602082019050612fbf6000830184612f9b565b92915050565b7f4e487b7100000000000000000000000000000000000000000000000000000000600052603260045260246000fd5b7f4e487b7100000000000000000000000000000000000000000000000000000000600052602260045260246000fd5b6000600282049050600182168061303b57607f821691505b60208210810361304e5761304d612ff4565b5b50919050565b600082825260208201905092915050565b7f4e6f74206120726576696577657220666f72207468697320636f757273650000600082015250565b600061309b601e83613054565b91506130a682613065565b602082019050919050565b600060208201905081810360008301526130ca8161308e565b9050919050565b7f53636f726573206172726179206d757374206861766520313020656c656d656e60008201527f7473000000000000000000000000000000000000000000000000000000000000602082015250565b600061312d602283613054565b9150613138826130d1565b604082019050919050565b6000602082019050818103600083015261315c81613120565b9050919050565b61316c816127ae565b82525050565b60006020820190506131876000830184613163565b92915050565b7f436f7572736520646f6573206e6f742065786973740000000000000000000000600082015250565b60006131c3601583613054565b91506131ce8261318d565b602082019050919050565b600060208201905081810360008301526131f2816131b6565b9050919050565b60008190508160005260206000209050919050565b60006020601f8301049050919050565b600082821b905092915050565b60006008830261325b7fffffffffffffffffffffffffffffffffffffffffffffffffffffffffffffffff8261321e565b613265868361321e565b95508019841693508086168417925050509392505050565b6000819050919050565b60006132a261329d613298846126d6565b61327d565b6126d6565b9050919050565b6000819050919050565b6132bc83613287565b6132d06132c8826132a9565b84845461322b565b825550505050565b600090565b6132e56132d8565b6132f08184846132b3565b505050565b5b81811015613314576133096000826132dd565b6001810190506132f6565b5050565b601f8211156133595761332a816131f9565b6133338461320e565b81016020851015613342578190505b61335661334e8561320e565b8301826132f5565b50505b505050565b600082821c905092915050565b600061337c6000198460080261335e565b1980831691505092915050565b6000613395838361336b565b9150826002028217905092915050565b6133ae826126ef565b67ffffffffffffffff8111156133c7576133c6612ab1565b5b6133d18254613023565b6133dc828285613318565b600060209050601f83116001811461340f57600084156133fd578287015190505b6134078582613389565b86555061346f565b601f19841661341d866131f9565b60005b8281101561344557848901518255600182019150602085019450602081019050613420565b86831015613462578489015161345e601f89168261336b565b8355505b6001600288020188555050505b505050505050565b6000613482826126ef565b61348c8185613054565b935061349c81856020860161270b565b6134a581612735565b840191505092915050565b600060208201905081810360008301526134ca8184613477565b905092915050565b7f436f7572736520616c726561647920617070726f766564000000000000000000600082015250565b6000613508601783613054565b9150613513826134d2565b602082019050919050565b60006020820190508181036000830152613537816134fb565b9050919050565b7f416c726561647920617070726f76656400000000000000000000000000000000600082015250565b6000613574601083613054565b915061357f8261353e565b602082019050919050565b600060208201905081810360008301526135a381613567565b9050919050565b7f4e487b7100000000000000000000000000000000000000000000000000000000600052601160045260246000fd5b60006135e4826126d6565b91507fffffffffffffffffffffffffffffffffffffffffffffffffffffffffffffffff8203613616576136156135aa565b5b600182019050919050565b7f436f7572736520616c7265616479206578697374730000000000000000000000600082015250565b6000613657601583613054565b915061366282613621565b602082019050919050565b600060208201905081810360008301526136868161364a565b9050919050565b6000613698826126d6565b91506136a3836126d6565b92508282019050808211156136bb576136ba6135aa565b5b92915050565b600081905092915050565b60006136d7826126ef565b6136e181856136c1565b93506136f181856020860161270b565b80840191505092915050565b600061370982846136cc565b915081905092915050565b600061371f826126d6565b915061372a836126d6565b9250828203905081811115613742576137416135aa565b5b92915050565b7f52657669657765727320616c72656164792073656c6563746564000000000000600082015250565b600061377e601a83613054565b915061378982613748565b602082019050919050565b600060208201905081810360008301526137ad81613771565b9050919050565b7f4e6f7420656e6f7567682072657669657765727320696e2074686520706f6f6c600082015250565b60006137ea602083613054565b91506137f5826137b4565b602082019050919050565b60006020820190508181036000830152613819816137dd565b9050919050565b6000819050919050565b61383b613836826126d6565b613820565b82525050565b600061384d828761382a565b60208201915061385d828661382a565b60208201915061386d828561382a565b60208201915061387d828461382a565b60208201915081905095945050505050565b7f4e487b7100000000000000000000000000000000000000000000000000000000600052601260045260246000fd5b60006138c9826126d6565b91506138d4836126d6565b9250826138e4576138e361388f565b5b828206905092915050565b600081549050919050565b60008190508160005260206000209050919050565b60008160001c9050919050565b600073ffffffffffffffffffffffffffffffffffffffff82169050919050565b600061394f61394a8361390f565b61391c565b9050919050565b6000613962825461393c565b9050919050565b6000600182019050919050565b6000613981826138ef565b61398b8185612f0a565b9350613996836138fa565b8060005b838110156139ce576139ab82613956565b6139b588826127fb565b97506139c083613969565b92505060018101905061399a565b5085935050505092915050565b600060208201905081810360008301526139f58184613976565b905092915050565b7f436f7572736520646f65736e2774206578697374210000000000000000000000600082015250565b6000613a33601583613054565b9150613a3e826139fd565b602082019050919050565b60006020820190508181036000830152613a6281613a26565b9050919050565b600081549050613a7881613023565b9050919050565b818103613a8d575050613b65565b613a9682613a69565b67ffffffffffffffff811115613aaf57613aae612ab1565b5b613ab98254613023565b613ac4828285613318565b6000601f831160018114613af35760008415613ae1578287015490505b613aeb8582613389565b865550613b5e565b601f198416613b01876131f9565b9650613b0c866131f9565b60005b82811015613b3457848901548255600182019150600185019450602081019050613b0f565b86831015613b515784890154613b4d601f89168261336b565b8355505b6001600288020188555050505b5050505050505b565b7f4e487b7100000000000000000000000000000000000000000000000000000000600052603160045260246000fd5b7f53636f726573206d757374206265206265747765656e203120616e642031302e600082015250565b6000613bcc602083613054565b9150613bd782613b96565b602082019050919050565b60006020820190508181036000830152613bfb81613bbf565b9050919050565b6000613c0d826126d6565b9150613c18836126d6565b9250828202613c26816126d6565b91508282048414831517613c3d57613c3c6135aa565b5b5092915050565b6000613c4f826126d6565b9150613c5a836126d6565b925082613c6a57613c6961388f565b5b828204905092915050565b7f4c696d6974204578636565646564210000000000000000000000000000000000600082015250565b6000613cab600f83613054565b9150613cb682613c75565b602082019050919050565b60006020820190508181036000830152613cda81613c9e565b9050919050565b6000604082019050613cf66000830185613163565b613d036020830184612c86565b939250505056fea26469706673582212202c29d924c7a976bc4092fa6cf4fd3820c01242161a5f72bb42e49f43205d63bd64736f6c634300081b0033",
  "linkReferences": {},
  "deployedLinkReferences": {}
}