{
  "_format": "hh-sol-artifact-1",
  "contractName": "Ecosystem1Facet",
  "sourceName": "contracts/DiamondProxy/Ecosystem1Facet.sol",
  "abi": [
    {
      "inputs": [],
      "name": "ReentrancyGuardReentrantCall",
      "type": "error"
    },
    {
      "anonymous": false,
      "inputs": [
        {
          "indexed": true,
          "internalType": "uint256",
          "name": "courseId",
          "type": "uint256"
        },
        {
          "indexed": false,
          "internalType": "bool",
          "name": "approved",
          "type": "bool"
        }
      ],
      "name": "CourseApproved",
      "type": "event"
    },
    {
      "anonymous": false,
      "inputs": [
        {
          "indexed": true,
          "internalType": "uint256",
          "name": "courseId",
          "type": "uint256"
        },
        {
          "indexed": false,
          "internalType": "string",
          "name": "courseName",
          "type": "string"
        },
        {
          "indexed": false,
          "internalType": "address",
          "name": "creator",
          "type": "address"
        }
      ],
      "name": "CourseCreated",
      "type": "event"
    },
    {
      "anonymous": false,
      "inputs": [
        {
          "indexed": true,
          "internalType": "uint256",
          "name": "_courseID",
          "type": "uint256"
        },
        {
          "indexed": true,
          "internalType": "string",
          "name": "_courseName",
          "type": "string"
        },
        {
          "indexed": false,
          "internalType": "bool",
          "name": "_approved",
          "type": "bool"
        }
      ],
      "name": "CourseCreationSuccess",
      "type": "event"
    },
    {
      "anonymous": false,
      "inputs": [
        {
          "indexed": true,
          "internalType": "uint256",
          "name": "_courseId",
          "type": "uint256"
        },
        {
          "indexed": false,
          "internalType": "address",
          "name": "owner",
          "type": "address"
        }
      ],
      "name": "CourseDeleteSuccess",
      "type": "event"
    },
    {
      "anonymous": false,
      "inputs": [
        {
          "indexed": true,
          "internalType": "uint256",
          "name": "_courseId",
          "type": "uint256"
        },
        {
          "indexed": false,
          "internalType": "string",
          "name": "_courseName",
          "type": "string"
        }
      ],
      "name": "CourseEdited",
      "type": "event"
    },
    {
      "anonymous": false,
      "inputs": [
        {
          "indexed": true,
          "internalType": "uint256",
          "name": "courseId",
          "type": "uint256"
        },
        {
          "indexed": false,
          "internalType": "bool",
          "name": "eligible",
          "type": "bool"
        }
      ],
      "name": "CourseEligibilityChecked",
      "type": "event"
    },
    {
      "anonymous": false,
      "inputs": [
        {
          "indexed": true,
          "internalType": "uint256",
          "name": "courseId",
          "type": "uint256"
        },
        {
          "indexed": false,
          "internalType": "string",
          "name": "feedback",
          "type": "string"
        }
      ],
      "name": "CourseFeedbackAdded",
      "type": "event"
    },
    {
      "anonymous": false,
      "inputs": [
        {
          "indexed": true,
          "internalType": "uint256",
          "name": "courseId",
          "type": "uint256"
        },
        {
          "indexed": false,
          "internalType": "string",
          "name": "reason",
          "type": "string"
        }
      ],
      "name": "CourseRejected",
      "type": "event"
    },
    {
      "anonymous": false,
      "inputs": [
        {
          "indexed": false,
          "internalType": "string",
          "name": "message",
          "type": "string"
        },
        {
          "indexed": false,
          "internalType": "uint256",
          "name": "courseId",
          "type": "uint256"
        },
        {
          "indexed": false,
          "internalType": "uint256",
          "name": "value",
          "type": "uint256"
        }
      ],
      "name": "DebugLog",
      "type": "event"
    },
    {
      "anonymous": false,
      "inputs": [
        {
          "indexed": false,
          "internalType": "address",
          "name": "account",
          "type": "address"
        },
        {
          "indexed": false,
          "internalType": "bytes32",
          "name": "role",
          "type": "bytes32"
        },
        {
          "indexed": false,
          "internalType": "bool",
          "name": "hasRole",
          "type": "bool"
        }
      ],
      "name": "DebugRoleCheck",
      "type": "event"
    },
    {
      "anonymous": false,
      "inputs": [
        {
          "indexed": false,
          "internalType": "address",
          "name": "account",
          "type": "address"
        },
        {
          "indexed": false,
          "internalType": "bytes32",
          "name": "role",
          "type": "bytes32"
        },
        {
          "indexed": false,
          "internalType": "bool",
          "name": "roleValue",
          "type": "bool"
        }
      ],
      "name": "DebugStorageAccess",
      "type": "event"
    },
    {
      "anonymous": false,
      "inputs": [
        {
          "indexed": true,
          "internalType": "address",
          "name": "_to",
          "type": "address"
        },
        {
          "indexed": true,
          "internalType": "uint256",
          "name": "_amount",
          "type": "uint256"
        }
      ],
      "name": "EcosystemPoolUpdate",
      "type": "event"
    },
    {
      "inputs": [
        {
          "internalType": "uint256",
          "name": "_courseId",
          "type": "uint256"
        },
        {
          "internalType": "uint256",
          "name": "score",
          "type": "uint256"
        },
        {
          "components": [
            {
              "internalType": "uint256",
              "name": "learnerAgency",
              "type": "uint256"
            },
            {
              "internalType": "uint256",
              "name": "criticalThinking",
              "type": "uint256"
            },
            {
              "internalType": "uint256",
              "name": "collaborativeLearning",
              "type": "uint256"
            },
            {
              "internalType": "uint256",
              "name": "reflectivePractice",
              "type": "uint256"
            },
            {
              "internalType": "uint256",
              "name": "adaptiveLearning",
              "type": "uint256"
            },
            {
              "internalType": "uint256",
              "name": "authenticLearning",
              "type": "uint256"
            },
            {
              "internalType": "uint256",
              "name": "technologyIntegration",
              "type": "uint256"
            },
            {
              "internalType": "uint256",
              "name": "learnerSupport",
              "type": "uint256"
            },
            {
              "internalType": "uint256",
              "name": "assessmentForLearning",
              "type": "uint256"
            },
            {
              "internalType": "uint256",
              "name": "engagementAndMotivation",
              "type": "uint256"
            },
            {
              "internalType": "bool",
              "name": "isSubmitted",
              "type": "bool"
            },
            {
              "internalType": "string",
              "name": "category",
              "type": "string"
            },
            {
              "internalType": "uint256",
              "name": "score",
              "type": "uint256"
            },
            {
              "internalType": "bool",
              "name": "passed",
              "type": "bool"
            }
          ],
          "internalType": "struct LibDiamond.Review",
          "name": "review",
          "type": "tuple"
        }
      ],
      "name": "approveCourse",
      "outputs": [],
      "stateMutability": "nonpayable",
      "type": "function"
    },
    {
      "inputs": [
        {
          "internalType": "uint256",
          "name": "courseId",
          "type": "uint256"
        }
      ],
      "name": "checkCourseEligibility",
      "outputs": [
        {
          "internalType": "bool",
          "name": "",
          "type": "bool"
        },
        {
          "internalType": "string",
          "name": "",
          "type": "string"
        }
      ],
      "stateMutability": "view",
      "type": "function"
    },
    {
      "inputs": [
        {
          "internalType": "uint256",
          "name": "courseId",
          "type": "uint256"
        }
      ],
      "name": "checkCourseEligibilityAfterDelay",
      "outputs": [],
      "stateMutability": "nonpayable",
      "type": "function"
    },
    {
      "inputs": [
        {
          "internalType": "address",
          "name": "account",
          "type": "address"
        },
        {
          "internalType": "bytes32",
          "name": "role",
          "type": "bytes32"
        }
      ],
      "name": "checkRole",
      "outputs": [
        {
          "internalType": "bool",
          "name": "",
          "type": "bool"
        }
      ],
      "stateMutability": "view",
      "type": "function"
    },
    {
      "inputs": [
        {
          "internalType": "string",
          "name": "_courseName",
          "type": "string"
        },
        {
          "internalType": "string",
          "name": "_description",
          "type": "string"
        },
        {
          "internalType": "enum LibDiamond.DifficultyLevel",
          "name": "_difficultyLevel",
          "type": "uint8"
        }
      ],
      "name": "createCourse",
      "outputs": [
        {
          "internalType": "bool",
          "name": "",
          "type": "bool"
        }
      ],
      "stateMutability": "nonpayable",
      "type": "function"
    },
    {
      "inputs": [
        {
          "internalType": "uint256",
          "name": "_courseId",
          "type": "uint256"
        }
      ],
      "name": "deleteCourse",
      "outputs": [
        {
          "internalType": "bool",
          "name": "",
          "type": "bool"
        }
      ],
      "stateMutability": "nonpayable",
      "type": "function"
    },
    {
      "inputs": [
        {
          "internalType": "uint256",
          "name": "_courseId",
          "type": "uint256"
        },
        {
          "internalType": "string",
          "name": "_courseName",
          "type": "string"
        }
      ],
      "name": "editCourse",
      "outputs": [
        {
          "internalType": "bool",
          "name": "",
          "type": "bool"
        }
      ],
      "stateMutability": "nonpayable",
      "type": "function"
    },
    {
      "inputs": [
        {
          "internalType": "uint256",
          "name": "courseId",
          "type": "uint256"
        }
      ],
      "name": "getAllCourseReviews",
      "outputs": [
        {
          "components": [
            {
              "internalType": "uint256",
              "name": "learnerAgency",
              "type": "uint256"
            },
            {
              "internalType": "uint256",
              "name": "criticalThinking",
              "type": "uint256"
            },
            {
              "internalType": "uint256",
              "name": "collaborativeLearning",
              "type": "uint256"
            },
            {
              "internalType": "uint256",
              "name": "reflectivePractice",
              "type": "uint256"
            },
            {
              "internalType": "uint256",
              "name": "adaptiveLearning",
              "type": "uint256"
            },
            {
              "internalType": "uint256",
              "name": "authenticLearning",
              "type": "uint256"
            },
            {
              "internalType": "uint256",
              "name": "technologyIntegration",
              "type": "uint256"
            },
            {
              "internalType": "uint256",
              "name": "learnerSupport",
              "type": "uint256"
            },
            {
              "internalType": "uint256",
              "name": "assessmentForLearning",
              "type": "uint256"
            },
            {
              "internalType": "uint256",
              "name": "engagementAndMotivation",
              "type": "uint256"
            },
            {
              "internalType": "bool",
              "name": "isSubmitted",
              "type": "bool"
            },
            {
              "internalType": "string",
              "name": "category",
              "type": "string"
            },
            {
              "internalType": "uint256",
              "name": "score",
              "type": "uint256"
            },
            {
              "internalType": "bool",
              "name": "passed",
              "type": "bool"
            }
          ],
          "internalType": "struct LibDiamond.Review[]",
          "name": "",
          "type": "tuple[]"
        }
      ],
      "stateMutability": "view",
      "type": "function"
    },
    {
      "inputs": [],
      "name": "getAllCourses",
      "outputs": [
        {
          "components": [
            {
              "internalType": "uint256",
              "name": "courseId",
              "type": "uint256"
            },
            {
              "internalType": "string",
              "name": "courseName",
              "type": "string"
            },
            {
              "internalType": "string",
              "name": "description",
              "type": "string"
            },
            {
              "internalType": "bool",
              "name": "approved",
              "type": "bool"
            },
            {
              "internalType": "uint256",
              "name": "score",
              "type": "uint256"
            },
            {
              "internalType": "address",
              "name": "creator",
              "type": "address"
            },
            {
              "internalType": "bool",
              "name": "exists",
              "type": "bool"
            },
            {
              "internalType": "address[]",
              "name": "enrolledStudents",
              "type": "address[]"
            },
            {
              "internalType": "enum LibDiamond.DifficultyLevel",
              "name": "difficultyLevel",
              "type": "uint8"
            },
            {
              "internalType": "uint256",
              "name": "creationTime",
              "type": "uint256"
            }
          ],
          "internalType": "struct LibDiamond.Course[]",
          "name": "",
          "type": "tuple[]"
        }
      ],
      "stateMutability": "view",
      "type": "function"
    },
    {
      "inputs": [
        {
          "internalType": "uint256",
          "name": "courseId",
          "type": "uint256"
        }
      ],
      "name": "getCourse",
      "outputs": [
        {
          "components": [
            {
              "internalType": "uint256",
              "name": "courseId",
              "type": "uint256"
            },
            {
              "internalType": "string",
              "name": "courseName",
              "type": "string"
            },
            {
              "internalType": "string",
              "name": "description",
              "type": "string"
            },
            {
              "internalType": "bool",
              "name": "approved",
              "type": "bool"
            },
            {
              "internalType": "uint256",
              "name": "score",
              "type": "uint256"
            },
            {
              "internalType": "address",
              "name": "creator",
              "type": "address"
            },
            {
              "internalType": "bool",
              "name": "exists",
              "type": "bool"
            },
            {
              "internalType": "address[]",
              "name": "enrolledStudents",
              "type": "address[]"
            },
            {
              "internalType": "enum LibDiamond.DifficultyLevel",
              "name": "difficultyLevel",
              "type": "uint8"
            },
            {
              "internalType": "uint256",
              "name": "creationTime",
              "type": "uint256"
            }
          ],
          "internalType": "struct LibDiamond.Course",
          "name": "",
          "type": "tuple"
        }
      ],
      "stateMutability": "view",
      "type": "function"
    },
    {
      "inputs": [
        {
          "internalType": "uint256",
          "name": "courseId",
          "type": "uint256"
        }
      ],
      "name": "getCourseFeedback",
      "outputs": [
        {
          "internalType": "string",
          "name": "",
          "type": "string"
        }
      ],
      "stateMutability": "view",
      "type": "function"
    },
    {
      "inputs": [],
      "name": "getCurrentEcosystemPoolSupply",
      "outputs": [
        {
          "internalType": "uint256",
          "name": "",
          "type": "uint256"
        }
      ],
      "stateMutability": "view",
      "type": "function"
    },
    {
      "inputs": [
        {
          "internalType": "uint256",
          "name": "courseId",
          "type": "uint256"
        }
      ],
      "name": "getLatestCourseReview",
      "outputs": [
        {
          "components": [
            {
              "internalType": "uint256",
              "name": "learnerAgency",
              "type": "uint256"
            },
            {
              "internalType": "uint256",
              "name": "criticalThinking",
              "type": "uint256"
            },
            {
              "internalType": "uint256",
              "name": "collaborativeLearning",
              "type": "uint256"
            },
            {
              "internalType": "uint256",
              "name": "reflectivePractice",
              "type": "uint256"
            },
            {
              "internalType": "uint256",
              "name": "adaptiveLearning",
              "type": "uint256"
            },
            {
              "internalType": "uint256",
              "name": "authenticLearning",
              "type": "uint256"
            },
            {
              "internalType": "uint256",
              "name": "technologyIntegration",
              "type": "uint256"
            },
            {
              "internalType": "uint256",
              "name": "learnerSupport",
              "type": "uint256"
            },
            {
              "internalType": "uint256",
              "name": "assessmentForLearning",
              "type": "uint256"
            },
            {
              "internalType": "uint256",
              "name": "engagementAndMotivation",
              "type": "uint256"
            },
            {
              "internalType": "bool",
              "name": "isSubmitted",
              "type": "bool"
            },
            {
              "internalType": "string",
              "name": "category",
              "type": "string"
            },
            {
              "internalType": "uint256",
              "name": "score",
              "type": "uint256"
            },
            {
              "internalType": "bool",
              "name": "passed",
              "type": "bool"
            }
          ],
          "internalType": "struct LibDiamond.Review",
          "name": "",
          "type": "tuple"
        }
      ],
      "stateMutability": "view",
      "type": "function"
    },
    {
      "inputs": [
        {
          "internalType": "address",
          "name": "account",
          "type": "address"
        },
        {
          "internalType": "bytes32",
          "name": "role",
          "type": "bytes32"
        }
      ],
      "name": "getRoleStatus",
      "outputs": [
        {
          "internalType": "bool",
          "name": "",
          "type": "bool"
        }
      ],
      "stateMutability": "view",
      "type": "function"
    },
    {
      "inputs": [
        {
          "internalType": "address",
          "name": "account",
          "type": "address"
        }
      ],
      "name": "hasCourseOwnerRole",
      "outputs": [
        {
          "internalType": "bool",
          "name": "",
          "type": "bool"
        }
      ],
      "stateMutability": "view",
      "type": "function"
    },
    {
      "inputs": [
        {
          "internalType": "uint256",
          "name": "courseId",
          "type": "uint256"
        }
      ],
      "name": "isCourseReadyForEligibilityCheck",
      "outputs": [
        {
          "internalType": "bool",
          "name": "",
          "type": "bool"
        }
      ],
      "stateMutability": "view",
      "type": "function"
    },
    {
      "inputs": [
        {
          "internalType": "bytes32",
          "name": "role",
          "type": "bytes32"
        }
      ],
      "name": "onlyRoleCheck",
      "outputs": [
        {
          "internalType": "bool",
          "name": "",
          "type": "bool"
        }
      ],
      "stateMutability": "view",
      "type": "function"
    },
    {
      "inputs": [
        {
          "internalType": "uint256",
          "name": "courseId",
          "type": "uint256"
        },
        {
          "internalType": "string",
          "name": "feedback",
          "type": "string"
        }
      ],
      "name": "provideFeedback",
      "outputs": [],
      "stateMutability": "nonpayable",
      "type": "function"
    }
  ],
  "bytecode": "0x6080604052348015600f57600080fd5b506001600081905550615507806100276000396000f3fe608060405234801561001057600080fd5b50600436106101165760003560e01c80638a2492bb116100a2578063b0959e3211610071578063b0959e3214610352578063b197f2eb14610382578063c7954e4c146103b2578063d1c39957146103d0578063dc76fb661461040057610116565b80638a2492bb146102925780638f973533146102c25780639dad8d22146102f2578063ad50aba01461032257610116565b806339ba0eef116100e957806339ba0eef146101c9578063550e1da0146101e55780635cc2a14d14610215578063671a59f1146102455780637cbfc7621461026157610116565b806304e48bd11461011b57806307547ed5146101395780630b91e28d146101695780632ae8a7e314610199575b600080fd5b61012361041c565b6040516101309190613698565b60405180910390f35b610153600480360381019061014e91906136fa565b6108a2565b6040516101609190613917565b60405180910390f35b610183600480360381019061017e91906136fa565b610abf565b6040516101909190613a21565b60405180910390f35b6101b360048036038101906101ae9190613aa5565b610df8565b6040516101c09190613af4565b60405180910390f35b6101e360048036038101906101de91906136fa565b610e6e565b005b6101ff60048036038101906101fa9190613b0f565b611060565b60405161020c9190613af4565b60405180910390f35b61022f600480360381019061022a9190613c71565b6110f5565b60405161023c9190613af4565b60405180910390f35b61025f600480360381019061025a9190613e6d565b6113bc565b005b61027b600480360381019061027691906136fa565b611afc565b604051610289929190613f26565b60405180910390f35b6102ac60048036038101906102a79190613f7b565b611bdd565b6040516102b99190613af4565b60405180910390f35b6102dc60048036038101906102d791906136fa565b6121ff565b6040516102e99190614134565b60405180910390f35b61030c600480360381019061030791906136fa565b612476565b6040516103199190613af4565b60405180910390f35b61033c600480360381019061033791906136fa565b612a21565b6040516103499190614156565b60405180910390f35b61036c60048036038101906103679190614178565b612b3a565b6040516103799190613af4565b60405180910390f35b61039c60048036038101906103979190613aa5565b612baf565b6040516103a99190613af4565b60405180910390f35b6103ba612c25565b6040516103c791906141b4565b60405180910390f35b6103ea60048036038101906103e591906136fa565b612c3d565b6040516103f79190613af4565b60405180910390f35b61041a60048036038101906104159190613c71565b612cd9565b005b60606000610428612d59565b90506000816015018054905067ffffffffffffffff81111561044d5761044c613b46565b5b60405190808252806020026020018201604052801561048657816020015b610473613077565b81526020019060019003908161046b5790505b50905060005b8260150180549050811015610899576040518061014001604052808460150183815481106104bd576104bc6141cf565b5b90600052602060002090600902016000015481526020018460150183815481106104ea576104e96141cf565b5b906000526020600020906009020160010180546105069061422d565b80601f01602080910402602001604051908101604052809291908181526020018280546105329061422d565b801561057f5780601f106105545761010080835404028352916020019161057f565b820191906000526020600020905b81548152906001019060200180831161056257829003601f168201915b5050505050815260200184601501838154811061059f5761059e6141cf565b5b906000526020600020906009020160020180546105bb9061422d565b80601f01602080910402602001604051908101604052809291908181526020018280546105e79061422d565b80156106345780601f1061060957610100808354040283529160200191610634565b820191906000526020600020905b81548152906001019060200180831161061757829003601f168201915b50505050508152602001846015018381548110610654576106536141cf565b5b906000526020600020906009020160030160009054906101000a900460ff16151581526020018460150183815481106106905761068f6141cf565b5b90600052602060002090600902016004015481526020018460150183815481106106bd576106bc6141cf565b5b906000526020600020906009020160050160009054906101000a900473ffffffffffffffffffffffffffffffffffffffff1673ffffffffffffffffffffffffffffffffffffffff1681526020018460150183815481106107205761071f6141cf565b5b906000526020600020906009020160050160149054906101000a900460ff161515815260200184601501838154811061075c5761075b6141cf565b5b90600052602060002090600902016006018054806020026020016040519081016040528092919081815260200182805480156107ed57602002820191906000526020600020905b8160009054906101000a900473ffffffffffffffffffffffffffffffffffffffff1673ffffffffffffffffffffffffffffffffffffffff16815260200190600101908083116107a3575b5050505050815260200184601501838154811061080d5761080c6141cf565b5b906000526020600020906009020160070160009054906101000a900460ff16600281111561083e5761083d6134a3565b5b8152602001846015018381548110610859576108586141cf565b5b906000526020600020906009020160080154815250828281518110610881576108806141cf565b5b6020026020010181905250808060010191505061048c565b50809250505090565b606060006108ae612d59565b905080600c01600084815260200190815260200160002060050160149054906101000a900460ff16610915576040517f08c379a000000000000000000000000000000000000000000000000000000000815260040161090c906142aa565b60405180910390fd5b806011016000848152602001908152602001600020805480602002602001604051908101604052809291908181526020016000905b82821015610ab357838290600052602060002090600e0201604051806101c001604052908160008201548152602001600182015481526020016002820154815260200160038201548152602001600482015481526020016005820154815260200160068201548152602001600782015481526020016008820154815260200160098201548152602001600a820160009054906101000a900460ff16151515158152602001600b820180546109fd9061422d565b80601f0160208091040260200160405190810160405280929190818152602001828054610a299061422d565b8015610a765780601f10610a4b57610100808354040283529160200191610a76565b820191906000526020600020905b815481529060010190602001808311610a5957829003601f168201915b50505050508152602001600c8201548152602001600d820160009054906101000a900460ff1615151515815250508152602001906001019061094a565b50505050915050919050565b610ac7613077565b6000610ad1612d59565b905080600c01600084815260200190815260200160002060050160149054906101000a900460ff16610b38576040517f08c379a0000000000000000000000000000000000000000000000000000000008152600401610b2f906142aa565b60405180910390fd5b80600c0160008481526020019081526020016000206040518061014001604052908160008201548152602001600182018054610b739061422d565b80601f0160208091040260200160405190810160405280929190818152602001828054610b9f9061422d565b8015610bec5780601f10610bc157610100808354040283529160200191610bec565b820191906000526020600020905b815481529060010190602001808311610bcf57829003601f168201915b50505050508152602001600282018054610c059061422d565b80601f0160208091040260200160405190810160405280929190818152602001828054610c319061422d565b8015610c7e5780601f10610c5357610100808354040283529160200191610c7e565b820191906000526020600020905b815481529060010190602001808311610c6157829003601f168201915b505050505081526020016003820160009054906101000a900460ff16151515158152602001600482015481526020016005820160009054906101000a900473ffffffffffffffffffffffffffffffffffffffff1673ffffffffffffffffffffffffffffffffffffffff1673ffffffffffffffffffffffffffffffffffffffff1681526020016005820160149054906101000a900460ff1615151515815260200160068201805480602002602001604051908101604052809291908181526020018280548015610da257602002820191906000526020600020905b8160009054906101000a900473ffffffffffffffffffffffffffffffffffffffff1673ffffffffffffffffffffffffffffffffffffffff1681526020019060010190808311610d58575b505050505081526020016007820160009054906101000a900460ff166002811115610dd057610dcf6134a3565b5b6002811115610de257610de16134a3565b5b8152602001600882015481525050915050919050565b600080610e03612d86565b905080600c01600084815260200190815260200160002060008573ffffffffffffffffffffffffffffffffffffffff1673ffffffffffffffffffffffffffffffffffffffff16815260200190815260200160002060009054906101000a900460ff1691505092915050565b6000610e78612d59565b905080600c01600083815260200190815260200160002060050160149054906101000a900460ff16610edf576040517f08c379a0000000000000000000000000000000000000000000000000000000008152600401610ed6906142aa565b60405180910390fd5b61025881600501600084815260200190815260200160002054610f0291906142f9565b421015610f44576040517f08c379a0000000000000000000000000000000000000000000000000000000008152600401610f3b9061439f565b60405180910390fd5b80600601600083815260200190815260200160002060009054906101000a900460ff1615610fa7576040517f08c379a0000000000000000000000000000000000000000000000000000000008152600401610f9e9061440b565b60405180910390fd5b600080610fb384611afc565b915091508183600701600086815260200190815260200160002060006101000a81548160ff021916908315150217905550600183600601600086815260200190815260200160002060006101000a81548160ff02191690831515021790555081611022576110218482612db3565b5b837fccb5986e60175020b7dcbdfe029250ee0e1a191f5854986704a909ed2c722c68836040516110529190613af4565b60405180910390a250505050565b60008061106b612d86565b905080600c0160007fadb22091b155738d2e889eb96f509d2a7c93234236b30400927feb4a6a15ab00815260200190815260200160002060008473ffffffffffffffffffffffffffffffffffffffff1673ffffffffffffffffffffffffffffffffffffffff16815260200190815260200160002060009054906101000a900460ff16915050919050565b60007fadb22091b155738d2e889eb96f509d2a7c93234236b30400927feb4a6a15ab006111228133612e1f565b611161576040517f08c379a00000000000000000000000000000000000000000000000000000000081526004016111589061449d565b60405180910390fd5b600061116b612d59565b9050600081600c01600087815260200190815260200160002060000154036111c8576040517f08c379a00000000000000000000000000000000000000000000000000000000081526004016111bf906142aa565b60405180910390fd5b3373ffffffffffffffffffffffffffffffffffffffff1681600c01600087815260200190815260200160002060050160009054906101000a900473ffffffffffffffffffffffffffffffffffffffff1673ffffffffffffffffffffffffffffffffffffffff161461126e576040517f08c379a00000000000000000000000000000000000000000000000000000000081526004016112659061452f565b60405180910390fd5b8381600c016000878152602001908152602001600020600101908161129391906146fb565b5080600c01600086815260200190815260200160002060030160009054906101000a900460ff161561137857600081600c01600087815260200190815260200160002060030160006101000a81548160ff021916908315150217905550600081600c01600087815260200190815260200160002060040181905550600081600701600087815260200190815260200160002060006101000a81548160ff0219169083151502179055506040518060600160405280602581526020016154ad60259139816008016000878152602001908152602001600020908161137691906146fb565b505b847f5c8c98b6b26236296c856fae8a5ca0c793bbb81c5f8b7c9a9ab99358f53fb0c0856040516113a89190614156565b60405180910390a260019250505092915050565b60006113c6612d59565b905080600c01600085815260200190815260200160002060050160149054906101000a900460ff1661142d576040517f08c379a0000000000000000000000000000000000000000000000000000000008152600401611424906142aa565b60405180910390fd5b80600c01600085815260200190815260200160002060030160009054906101000a900460ff1615611493576040517f08c379a000000000000000000000000000000000000000000000000000000000815260040161148a90614819565b60405180910390fd5b80600601600085815260200190815260200160002060009054906101000a900460ff161580156114e55750610258816005016000868152602001908152602001600020546114e191906142f9565b4210155b15611617576000806114f686611afc565b915091508183600701600088815260200190815260200160002060006101000a81548160ff021916908315150217905550600183600601600088815260200190815260200160002060006101000a81548160ff021916908315150217905550816115dc576115648682612db3565b857fccb5986e60175020b7dcbdfe029250ee0e1a191f5854986704a909ed2c722c68836040516115949190613af4565b60405180910390a2857f3a9e47b985ba7ba4d4efeda2b1aa3beb262ac19ca4fa9219394d5574cfd424be826040516115cc9190614156565b60405180910390a2505050611af7565b857fccb5986e60175020b7dcbdfe029250ee0e1a191f5854986704a909ed2c722c688360405161160c9190613af4565b60405180910390a250505b80600601600085815260200190815260200160002060009054906101000a900460ff16611679576040517f08c379a0000000000000000000000000000000000000000000000000000000008152600401611670906148ab565b60405180910390fd5b80600701600085815260200190815260200160002060009054906101000a900460ff166116db576040517f08c379a00000000000000000000000000000000000000000000000000000000081526004016116d29061493d565b60405180910390fd5b8060110160008581526020019081526020016000208290806001815401808255809150506001900390600052602060002090600e0201600090919091909150600082015181600001556020820151816001015560408201518160020155606082015181600301556080820151816004015560a0820151816005015560c0820151816006015560e082015181600701556101008201518160080155610120820151816009015561014082015181600a0160006101000a81548160ff02191690831515021790555061016082015181600b0190816117b791906146fb565b5061018082015181600c01556101a082015181600d0160006101000a81548160ff0219169083151502179055505050604b6064846117f5919061498c565b1061188657600181600c01600086815260200190815260200160002060030160006101000a81548160ff0219169083151502179055508281600c01600086815260200190815260200160002060040181905550837f4a595d8b22f642a2c59fa39a2098244b31745d3a57615834b2b31739d7e67bba60016040516118799190613af4565b60405180910390a2611af5565b600060405180606001604052806031815260200161547c6031913990506046836000015110156118d357806040516020016118c19190614a45565b60405160208183030381529060405290505b60468360200151101561190357806040516020016118f19190614ab3565b60405160208183030381529060405290505b60468360400151101561193357806040516020016119219190614b21565b60405160208183030381529060405290505b60468360600151101561196357806040516020016119519190614b8f565b60405160208183030381529060405290505b60468360800151101561199357806040516020016119819190614bfd565b60405160208183030381529060405290505b60468360a0015110156119c357806040516020016119b19190614c6b565b60405160208183030381529060405290505b60468360c0015110156119f357806040516020016119e19190614cd9565b60405160208183030381529060405290505b60468360e001511015611a235780604051602001611a119190614d47565b60405160208183030381529060405290505b60468361010001511015611a545780604051602001611a429190614db5565b60405160208183030381529060405290505b60468361012001511015611a855780604051602001611a739190614e23565b60405160208183030381529060405290505b80611a8f85612e95565b604051602001611aa0929190614edd565b6040516020818303038152906040529050611abb8582612db3565b847f3a9e47b985ba7ba4d4efeda2b1aa3beb262ac19ca4fa9219394d5574cfd424be82604051611aeb9190614156565b60405180910390a2505b505b505050565b600060606000611b0a612d59565b905080600c01600085815260200190815260200160002060050160149054906101000a900460ff16611b71576040517f08c379a0000000000000000000000000000000000000000000000000000000008152600401611b68906142aa565b60405180910390fd5b6001816009016000868152602001908152602001600020805490501015611bb757600060405180606001604052806021815260200161543a602191399250925050611bd8565b600160405180606001604052806021815260200161545b6021913992509250505b915091565b600080611be8612d59565b905080600c0160008260020154815260200190815260200160002060050160149054906101000a900460ff1615611c54576040517f08c379a0000000000000000000000000000000000000000000000000000000008152600401611c4b90614f63565b60405180910390fd5b600060405180610140016040528083600201548152602001878152602001868152602001600015158152602001600081526020013373ffffffffffffffffffffffffffffffffffffffff168152602001600115158152602001600067ffffffffffffffff811115611cc857611cc7613b46565b5b604051908082528060200260200182016040528015611cf65781602001602082028036833780820191505090505b508152602001856002811115611d0f57611d0e6134a3565b5b81526020014281525090508082600c01600084600201548152602001908152602001600020600082015181600001556020820151816001019081611d5391906146fb565b506040820151816002019081611d6991906146fb565b5060608201518160030160006101000a81548160ff0219169083151502179055506080820151816004015560a08201518160050160006101000a81548173ffffffffffffffffffffffffffffffffffffffff021916908373ffffffffffffffffffffffffffffffffffffffff16021790555060c08201518160050160146101000a81548160ff02191690831515021790555060e0820151816006019080519060200190611e179291906130f6565b506101008201518160070160006101000a81548160ff02191690836002811115611e4457611e436134a3565b5b0217905550610120820151816008015590505081601501819080600181540180825580915050600190039060005260206000209060090201600090919091909150600082015181600001556020820151816001019081611ea491906146fb565b506040820151816002019081611eba91906146fb565b5060608201518160030160006101000a81548160ff0219169083151502179055506080820151816004015560a08201518160050160006101000a81548173ffffffffffffffffffffffffffffffffffffffff021916908373ffffffffffffffffffffffffffffffffffffffff16021790555060c08201518160050160146101000a81548160ff02191690831515021790555060e0820151816006019080519060200190611f689291906130f6565b506101008201518160070160006101000a81548160ff02191690836002811115611f9557611f946134a3565b5b021790555061012082015181600801555050816001016000815480929190611fbc90614f83565b9190505550600182600e0160003373ffffffffffffffffffffffffffffffffffffffff1673ffffffffffffffffffffffffffffffffffffffff168152602001908152602001600020600001600082825461201691906142f9565b925050819055506120477fadb22091b155738d2e889eb96f509d2a7c93234236b30400927feb4a6a15ab0033612ffb565b60006120737fadb22091b155738d2e889eb96f509d2a7c93234236b30400927feb4a6a15ab0033612e1f565b9050806120b5576040517f08c379a00000000000000000000000000000000000000000000000000000000081526004016120ac9061503d565b60405180910390fd5b4283600501600085600201548152602001908152602001600020819055507f1fc3c915a961e15ecb336b79577e7d9e3e6a15f024fc98418ce8875699a37026337fadb22091b155738d2e889eb96f509d2a7c93234236b30400927feb4a6a15ab00836040516121269392919061507b565b60405180910390a182600201600081548092919061214390614f83565b91905055508660405161215691906150b2565b60405180910390206001846002015461216f91906150c9565b7f9c93a42b217373d37e6c66ace0a67fe1fa1f78c93164b62417de69c48c0f67e2600060405161219f9190613af4565b60405180910390a3600183600201546121b891906150c9565b7fdb3fafffbb284e95f813ac0a83dbcafbbe522f0facb2ca6ed137fb6b807f314988336040516121e99291906150fd565b60405180910390a2600193505050509392505050565b612207613180565b6000612211612d59565b905080600c01600084815260200190815260200160002060050160149054906101000a900460ff16612278576040517f08c379a000000000000000000000000000000000000000000000000000000000815260040161226f906142aa565b60405180910390fd5b600081601101600085815260200190815260200160002080549050116122d3576040517f08c379a00000000000000000000000000000000000000000000000000000000081526004016122ca90615179565b60405180910390fd5b80601101600084815260200190815260200160002060018260110160008681526020019081526020016000208054905061230d91906150c9565b8154811061231e5761231d6141cf565b5b90600052602060002090600e0201604051806101c001604052908160008201548152602001600182015481526020016002820154815260200160038201548152602001600482015481526020016005820154815260200160068201548152602001600782015481526020016008820154815260200160098201548152602001600a820160009054906101000a900460ff16151515158152602001600b820180546123c79061422d565b80601f01602080910402602001604051908101604052809291908181526020018280546123f39061422d565b80156124405780601f1061241557610100808354040283529160200191612440565b820191906000526020600020905b81548152906001019060200180831161242357829003601f168201915b50505050508152602001600c8201548152602001600d820160009054906101000a900460ff161515151581525050915050919050565b60007fadb22091b155738d2e889eb96f509d2a7c93234236b30400927feb4a6a15ab006124a38133612e1f565b6124e2576040517f08c379a00000000000000000000000000000000000000000000000000000000081526004016124d99061449d565b60405180910390fd5b60006124ec612d59565b9050600081600c0160008681526020019081526020016000206000015403612549576040517f08c379a0000000000000000000000000000000000000000000000000000000008152600401612540906151e5565b60405180910390fd5b3373ffffffffffffffffffffffffffffffffffffffff1681600c01600086815260200190815260200160002060050160009054906101000a900473ffffffffffffffffffffffffffffffffffffffff1673ffffffffffffffffffffffffffffffffffffffff16146125ef576040517f08c379a00000000000000000000000000000000000000000000000000000000081526004016125e690615277565b60405180910390fd5b60005b81601501805490508110156128d45784826015018281548110612618576126176141cf565b5b906000526020600020906009020160000154036128c757816015016001836015018054905061264791906150c9565b81548110612658576126576141cf565b5b906000526020600020906009020182601501828154811061267c5761267b6141cf565b5b906000526020600020906009020160008201548160000155600182018160010190816126a891906152ad565b50600282018160020190816126bd91906152ad565b506003820160009054906101000a900460ff168160030160006101000a81548160ff021916908315150217905550600482015481600401556005820160009054906101000a900473ffffffffffffffffffffffffffffffffffffffff168160050160006101000a81548173ffffffffffffffffffffffffffffffffffffffff021916908373ffffffffffffffffffffffffffffffffffffffff1602179055506005820160149054906101000a900460ff168160050160146101000a81548160ff021916908315150217905550600682018160060190805461279f9291906131f3565b506007820160009054906101000a900460ff168160070160006101000a81548160ff021916908360028111156127d8576127d76134a3565b5b021790555060088201548160080155905050816015018054806127fe576127fd615395565b5b600190038181906000526020600020906009020160008082016000905560018201600061282b9190613245565b60028201600061283b9190613245565b6003820160006101000a81549060ff021916905560048201600090556005820160006101000a81549073ffffffffffffffffffffffffffffffffffffffff02191690556005820160146101000a81549060ff02191690556006820160006128a29190613285565b6007820160006101000a81549060ff02191690556008820160009055505090556128d4565b80806001019150506125f2565b5080600701600085815260200190815260200160002060006101000a81549060ff0219169055806008016000858152602001908152602001600020600061291b9190613245565b80600c0160008581526020019081526020016000206000808201600090556001820160006129499190613245565b6002820160006129599190613245565b6003820160006101000a81549060ff021916905560048201600090556005820160006101000a81549073ffffffffffffffffffffffffffffffffffffffff02191690556005820160146101000a81549060ff02191690556006820160006129c09190613285565b6007820160006101000a81549060ff021916905560088201600090555050837f50d94198096be9c8aad282f822173f9212251c4d4dc2731fa944f3941749a78d33604051612a0e91906153c4565b60405180910390a2600192505050919050565b60606000612a2d612d59565b905080600c01600084815260200190815260200160002060050160149054906101000a900460ff16612a94576040517f08c379a0000000000000000000000000000000000000000000000000000000008152600401612a8b906142aa565b60405180910390fd5b8060080160008481526020019081526020016000208054612ab49061422d565b80601f0160208091040260200160405190810160405280929190818152602001828054612ae09061422d565b8015612b2d5780601f10612b0257610100808354040283529160200191612b2d565b820191906000526020600020905b815481529060010190602001808311612b1057829003601f168201915b5050505050915050919050565b600080612b45612d86565b905080600c01600084815260200190815260200160002060003373ffffffffffffffffffffffffffffffffffffffff1673ffffffffffffffffffffffffffffffffffffffff16815260200190815260200160002060009054906101000a900460ff16915050919050565b600080612bba612d86565b905080600c01600084815260200190815260200160002060008573ffffffffffffffffffffffffffffffffffffffff1673ffffffffffffffffffffffffffffffffffffffff16815260200190815260200160002060009054906101000a900460ff1691505092915050565b600080612c30612d59565b9050806000015491505090565b600080612c48612d59565b905080600c01600084815260200190815260200160002060050160149054906101000a900460ff16612c7e576000915050612cd4565b61025881600501600085815260200190815260200160002054612ca191906142f9565b4210158015612cd0575080600601600084815260200190815260200160002060009054906101000a900460ff16155b9150505b919050565b6000612ce3612d59565b905080600c01600084815260200190815260200160002060050160149054906101000a900460ff16612d4a576040517f08c379a0000000000000000000000000000000000000000000000000000000008152600401612d41906142aa565b60405180910390fd5b612d548383612db3565b505050565b6000807f5d9ab6191fe9d5041816fb24ec4281e2d3989236339577e7fbbaf91315a1bb7190508091505090565b6000807fc8fcad8db84d3cc18b4c41d551ea0ee66dd599cde068d998e57d5e09332c131c90508091505090565b6000612dbd612d59565b9050818160080160008581526020019081526020016000209081612de191906146fb565b50827f8dd7b461840a47803ee3902a10556a81b94c59c30438b815a9fa279cf199175883604051612e129190614156565b60405180910390a2505050565b600080612e2a612d86565b905080600c01600085815260200190815260200160002060008473ffffffffffffffffffffffffffffffffffffffff1673ffffffffffffffffffffffffffffffffffffffff16815260200190815260200160002060009054906101000a900460ff1691505092915050565b606060008203612edc576040518060400160405280600181526020017f30000000000000000000000000000000000000000000000000000000000000008152509050612ff6565b600082905060005b60008214612f0e578080612ef790614f83565b915050600a82612f07919061498c565b9150612ee4565b60008167ffffffffffffffff811115612f2a57612f29613b46565b5b6040519080825280601f01601f191660200182016040528015612f5c5781602001600182028036833780820191505090505b50905060008290508593505b60008414612fee57600a84612f7d91906153df565b6030612f8991906142f9565b60f81b8282612f9790615410565b92508281518110612fab57612faa6141cf565b5b60200101907effffffffffffffffffffffffffffffffffffffffffffffffffffffffffffff1916908160001a905350600a84612fe7919061498c565b9350612f68565b819450505050505b919050565b6000613005612d86565b9050600181600c01600085815260200190815260200160002060008473ffffffffffffffffffffffffffffffffffffffff1673ffffffffffffffffffffffffffffffffffffffff16815260200190815260200160002060006101000a81548160ff021916908315150217905550505050565b60405180610140016040528060008152602001606081526020016060815260200160001515815260200160008152602001600073ffffffffffffffffffffffffffffffffffffffff16815260200160001515815260200160608152602001600060028111156130e9576130e86134a3565b5b8152602001600081525090565b82805482825590600052602060002090810192821561316f579160200282015b8281111561316e5782518260006101000a81548173ffffffffffffffffffffffffffffffffffffffff021916908373ffffffffffffffffffffffffffffffffffffffff16021790555091602001919060010190613116565b5b50905061317c91906132a6565b5090565b604051806101c001604052806000815260200160008152602001600081526020016000815260200160008152602001600081526020016000815260200160008152602001600081526020016000815260200160001515815260200160608152602001600081526020016000151581525090565b8280548282559060005260206000209081019282156132345760005260206000209182015b82811115613233578254825591600101919060010190613218565b5b50905061324191906132a6565b5090565b5080546132519061422d565b6000825580601f106132635750613282565b601f01602090049060005260206000209081019061328191906132a6565b5b50565b50805460008255906000526020600020908101906132a391906132a6565b50565b5b808211156132bf5760008160009055506001016132a7565b5090565b600081519050919050565b600082825260208201905092915050565b6000819050602082019050919050565b6000819050919050565b613302816132ef565b82525050565b600081519050919050565b600082825260208201905092915050565b60005b83811015613342578082015181840152602081019050613327565b60008484015250505050565b6000601f19601f8301169050919050565b600061336a82613308565b6133748185613313565b9350613384818560208601613324565b61338d8161334e565b840191505092915050565b60008115159050919050565b6133ad81613398565b82525050565b600073ffffffffffffffffffffffffffffffffffffffff82169050919050565b60006133de826133b3565b9050919050565b6133ee816133d3565b82525050565b600081519050919050565b600082825260208201905092915050565b6000819050602082019050919050565b600061342c83836133e5565b60208301905092915050565b6000602082019050919050565b6000613450826133f4565b61345a81856133ff565b935061346583613410565b8060005b8381101561349657815161347d8882613420565b975061348883613438565b925050600181019050613469565b5085935050505092915050565b7f4e487b7100000000000000000000000000000000000000000000000000000000600052602160045260246000fd5b600381106134e3576134e26134a3565b5b50565b60008190506134f4826134d2565b919050565b6000613504826134e6565b9050919050565b613514816134f9565b82525050565b60006101408301600083015161353360008601826132f9565b506020830151848203602086015261354b828261335f565b91505060408301518482036040860152613565828261335f565b915050606083015161357a60608601826133a4565b50608083015161358d60808601826132f9565b5060a08301516135a060a08601826133e5565b5060c08301516135b360c08601826133a4565b5060e083015184820360e08601526135cb8282613445565b9150506101008301516135e261010086018261350b565b506101208301516135f76101208601826132f9565b508091505092915050565b600061360e838361351a565b905092915050565b6000602082019050919050565b600061362e826132c3565b61363881856132ce565b93508360208202850161364a856132df565b8060005b8581101561368657848403895281516136678582613602565b945061367283613616565b925060208a0199505060018101905061364e565b50829750879550505050505092915050565b600060208201905081810360008301526136b28184613623565b905092915050565b6000604051905090565b600080fd5b600080fd5b6136d7816132ef565b81146136e257600080fd5b50565b6000813590506136f4816136ce565b92915050565b6000602082840312156137105761370f6136c4565b5b600061371e848285016136e5565b91505092915050565b600081519050919050565b600082825260208201905092915050565b6000819050602082019050919050565b60006101c08301600083015161376c60008601826132f9565b50602083015161377f60208601826132f9565b50604083015161379260408601826132f9565b5060608301516137a560608601826132f9565b5060808301516137b860808601826132f9565b5060a08301516137cb60a08601826132f9565b5060c08301516137de60c08601826132f9565b5060e08301516137f160e08601826132f9565b506101008301516138066101008601826132f9565b5061012083015161381b6101208601826132f9565b506101408301516138306101408601826133a4565b5061016083015184820361016086015261384a828261335f565b9150506101808301516138616101808601826132f9565b506101a08301516138766101a08601826133a4565b508091505092915050565b600061388d8383613753565b905092915050565b6000602082019050919050565b60006138ad82613727565b6138b78185613732565b9350836020820285016138c985613743565b8060005b8581101561390557848403895281516138e68582613881565b94506138f183613895565b925060208a019950506001810190506138cd565b50829750879550505050505092915050565b6000602082019050818103600083015261393181846138a2565b905092915050565b60006101408301600083015161395260008601826132f9565b506020830151848203602086015261396a828261335f565b91505060408301518482036040860152613984828261335f565b915050606083015161399960608601826133a4565b5060808301516139ac60808601826132f9565b5060a08301516139bf60a08601826133e5565b5060c08301516139d260c08601826133a4565b5060e083015184820360e08601526139ea8282613445565b915050610100830151613a0161010086018261350b565b50610120830151613a166101208601826132f9565b508091505092915050565b60006020820190508181036000830152613a3b8184613939565b905092915050565b613a4c816133d3565b8114613a5757600080fd5b50565b600081359050613a6981613a43565b92915050565b6000819050919050565b613a8281613a6f565b8114613a8d57600080fd5b50565b600081359050613a9f81613a79565b92915050565b60008060408385031215613abc57613abb6136c4565b5b6000613aca85828601613a5a565b9250506020613adb85828601613a90565b9150509250929050565b613aee81613398565b82525050565b6000602082019050613b096000830184613ae5565b92915050565b600060208284031215613b2557613b246136c4565b5b6000613b3384828501613a5a565b91505092915050565b600080fd5b600080fd5b7f4e487b7100000000000000000000000000000000000000000000000000000000600052604160045260246000fd5b613b7e8261334e565b810181811067ffffffffffffffff82111715613b9d57613b9c613b46565b5b80604052505050565b6000613bb06136ba565b9050613bbc8282613b75565b919050565b600067ffffffffffffffff821115613bdc57613bdb613b46565b5b613be58261334e565b9050602081019050919050565b82818337600083830152505050565b6000613c14613c0f84613bc1565b613ba6565b905082815260208101848484011115613c3057613c2f613b41565b5b613c3b848285613bf2565b509392505050565b600082601f830112613c5857613c57613b3c565b5b8135613c68848260208601613c01565b91505092915050565b60008060408385031215613c8857613c876136c4565b5b6000613c96858286016136e5565b925050602083013567ffffffffffffffff811115613cb757613cb66136c9565b5b613cc385828601613c43565b9150509250929050565b600080fd5b600080fd5b613ce081613398565b8114613ceb57600080fd5b50565b600081359050613cfd81613cd7565b92915050565b60006101c08284031215613d1a57613d19613ccd565b5b613d256101c0613ba6565b90506000613d35848285016136e5565b6000830152506020613d49848285016136e5565b6020830152506040613d5d848285016136e5565b6040830152506060613d71848285016136e5565b6060830152506080613d85848285016136e5565b60808301525060a0613d99848285016136e5565b60a08301525060c0613dad848285016136e5565b60c08301525060e0613dc1848285016136e5565b60e083015250610100613dd6848285016136e5565b61010083015250610120613dec848285016136e5565b61012083015250610140613e0284828501613cee565b6101408301525061016082013567ffffffffffffffff811115613e2857613e27613cd2565b5b613e3484828501613c43565b61016083015250610180613e4a848285016136e5565b610180830152506101a0613e6084828501613cee565b6101a08301525092915050565b600080600060608486031215613e8657613e856136c4565b5b6000613e94868287016136e5565b9350506020613ea5868287016136e5565b925050604084013567ffffffffffffffff811115613ec657613ec56136c9565b5b613ed286828701613d03565b9150509250925092565b600082825260208201905092915050565b6000613ef882613308565b613f028185613edc565b9350613f12818560208601613324565b613f1b8161334e565b840191505092915050565b6000604082019050613f3b6000830185613ae5565b8181036020830152613f4d8184613eed565b90509392505050565b60038110613f6357600080fd5b50565b600081359050613f7581613f56565b92915050565b600080600060608486031215613f9457613f936136c4565b5b600084013567ffffffffffffffff811115613fb257613fb16136c9565b5b613fbe86828701613c43565b935050602084013567ffffffffffffffff811115613fdf57613fde6136c9565b5b613feb86828701613c43565b9250506040613ffc86828701613f66565b9150509250925092565b60006101c08301600083015161401f60008601826132f9565b50602083015161403260208601826132f9565b50604083015161404560408601826132f9565b50606083015161405860608601826132f9565b50608083015161406b60808601826132f9565b5060a083015161407e60a08601826132f9565b5060c083015161409160c08601826132f9565b5060e08301516140a460e08601826132f9565b506101008301516140b96101008601826132f9565b506101208301516140ce6101208601826132f9565b506101408301516140e36101408601826133a4565b506101608301518482036101608601526140fd828261335f565b9150506101808301516141146101808601826132f9565b506101a08301516141296101a08601826133a4565b508091505092915050565b6000602082019050818103600083015261414e8184614006565b905092915050565b600060208201905081810360008301526141708184613eed565b905092915050565b60006020828403121561418e5761418d6136c4565b5b600061419c84828501613a90565b91505092915050565b6141ae816132ef565b82525050565b60006020820190506141c960008301846141a5565b92915050565b7f4e487b7100000000000000000000000000000000000000000000000000000000600052603260045260246000fd5b7f4e487b7100000000000000000000000000000000000000000000000000000000600052602260045260246000fd5b6000600282049050600182168061424557607f821691505b602082108103614258576142576141fe565b5b50919050565b7f436f7572736520646f6573206e6f742065786973740000000000000000000000600082015250565b6000614294601583613edc565b915061429f8261425e565b602082019050919050565b600060208201905081810360008301526142c381614287565b9050919050565b7f4e487b7100000000000000000000000000000000000000000000000000000000600052601160045260246000fd5b6000614304826132ef565b915061430f836132ef565b9250828201905080821115614327576143266142ca565b5b92915050565b7f456c69676962696c69747920636865636b206f6e6c7920617661696c61626c6560008201527f206166746572203120686f757200000000000000000000000000000000000000602082015250565b6000614389602d83613edc565b91506143948261432d565b604082019050919050565b600060208201905081810360008301526143b88161437c565b9050919050565b7f456c69676962696c69747920616c726561647920636865636b65640000000000600082015250565b60006143f5601b83613edc565b9150614400826143bf565b602082019050919050565b60006020820190508181036000830152614424816143e8565b9050919050565b7f43616c6c657220646f65736e2774206861766520726571756972656420726f6c60008201527f6500000000000000000000000000000000000000000000000000000000000000602082015250565b6000614487602183613edc565b91506144928261442b565b604082019050919050565b600060208201905081810360008301526144b68161447a565b9050919050565b7f4f6e6c7920636f757273652063726561746f722063616e20656469742074686560008201527f20636f7572736500000000000000000000000000000000000000000000000000602082015250565b6000614519602783613edc565b9150614524826144bd565b604082019050919050565b600060208201905081810360008301526145488161450c565b9050919050565b60008190508160005260206000209050919050565b60006020601f8301049050919050565b600082821b905092915050565b6000600883026145b17fffffffffffffffffffffffffffffffffffffffffffffffffffffffffffffffff82614574565b6145bb8683614574565b95508019841693508086168417925050509392505050565b6000819050919050565b60006145f86145f36145ee846132ef565b6145d3565b6132ef565b9050919050565b6000819050919050565b614612836145dd565b61462661461e826145ff565b848454614581565b825550505050565b600090565b61463b61462e565b614646818484614609565b505050565b5b8181101561466a5761465f600082614633565b60018101905061464c565b5050565b601f8211156146af576146808161454f565b61468984614564565b81016020851015614698578190505b6146ac6146a485614564565b83018261464b565b50505b505050565b600082821c905092915050565b60006146d2600019846008026146b4565b1980831691505092915050565b60006146eb83836146c1565b9150826002028217905092915050565b61470482613308565b67ffffffffffffffff81111561471d5761471c613b46565b5b614727825461422d565b61473282828561466e565b600060209050601f8311600181146147655760008415614753578287015190505b61475d85826146df565b8655506147c5565b601f1984166147738661454f565b60005b8281101561479b57848901518255600182019150602085019450602081019050614776565b868310156147b857848901516147b4601f8916826146c1565b8355505b6001600288020188555050505b505050505050565b7f436f7572736520616c726561647920617070726f766564000000000000000000600082015250565b6000614803601783613edc565b915061480e826147cd565b602082019050919050565b60006020820190508181036000830152614832816147f6565b9050919050565b7f436f7572736520656c69676962696c697479206e6f7420636865636b6564207960008201527f6574000000000000000000000000000000000000000000000000000000000000602082015250565b6000614895602283613edc565b91506148a082614839565b604082019050919050565b600060208201905081810360008301526148c481614888565b9050919050565b7f436f7572736520646964206e6f74207061737320656c69676962696c6974792060008201527f636865636b000000000000000000000000000000000000000000000000000000602082015250565b6000614927602583613edc565b9150614932826148cb565b604082019050919050565b600060208201905081810360008301526149568161491a565b9050919050565b7f4e487b7100000000000000000000000000000000000000000000000000000000600052601260045260246000fd5b6000614997826132ef565b91506149a2836132ef565b9250826149b2576149b161495d565b5b828204905092915050565b600081905092915050565b60006149d382613308565b6149dd81856149bd565b93506149ed818560208601613324565b80840191505092915050565b7f4c6561726e6572204167656e63792c2000000000000000000000000000000000600082015250565b6000614a2f6010836149bd565b9150614a3a826149f9565b601082019050919050565b6000614a5182846149c8565b9150614a5c82614a22565b915081905092915050565b7f437269746963616c205468696e6b696e672c2000000000000000000000000000600082015250565b6000614a9d6013836149bd565b9150614aa882614a67565b601382019050919050565b6000614abf82846149c8565b9150614aca82614a90565b915081905092915050565b7f436f6c6c61626f726174697665204c6561726e696e672c200000000000000000600082015250565b6000614b0b6018836149bd565b9150614b1682614ad5565b601882019050919050565b6000614b2d82846149c8565b9150614b3882614afe565b915081905092915050565b7f5265666c6563746976652050726163746963652c200000000000000000000000600082015250565b6000614b796015836149bd565b9150614b8482614b43565b601582019050919050565b6000614b9b82846149c8565b9150614ba682614b6c565b915081905092915050565b7f4164617074697665204c6561726e696e672c2000000000000000000000000000600082015250565b6000614be76013836149bd565b9150614bf282614bb1565b601382019050919050565b6000614c0982846149c8565b9150614c1482614bda565b915081905092915050565b7f41757468656e746963204c6561726e696e672c20000000000000000000000000600082015250565b6000614c556014836149bd565b9150614c6082614c1f565b601482019050919050565b6000614c7782846149c8565b9150614c8282614c48565b915081905092915050565b7f546563686e6f6c6f677920496e746567726174696f6e2c200000000000000000600082015250565b6000614cc36018836149bd565b9150614cce82614c8d565b601882019050919050565b6000614ce582846149c8565b9150614cf082614cb6565b915081905092915050565b7f4c6561726e657220537570706f72742c20000000000000000000000000000000600082015250565b6000614d316011836149bd565b9150614d3c82614cfb565b601182019050919050565b6000614d5382846149c8565b9150614d5e82614d24565b915081905092915050565b7f4173736573736d656e7420666f72204c6561726e696e672c2000000000000000600082015250565b6000614d9f6019836149bd565b9150614daa82614d69565b601982019050919050565b6000614dc182846149c8565b9150614dcc82614d92565b915081905092915050565b7f456e676167656d656e7420616e64204d6f7469766174696f6e2c200000000000600082015250565b6000614e0d601b836149bd565b9150614e1882614dd7565b601b82019050919050565b6000614e2f82846149c8565b9150614e3a82614e00565b915081905092915050565b7f46696e616c2073636f72653a2000000000000000000000000000000000000000600082015250565b6000614e7b600d836149bd565b9150614e8682614e45565b600d82019050919050565b7f2500000000000000000000000000000000000000000000000000000000000000600082015250565b6000614ec76001836149bd565b9150614ed282614e91565b600182019050919050565b6000614ee982856149c8565b9150614ef482614e6e565b9150614f0082846149c8565b9150614f0b82614eba565b91508190509392505050565b7f436f7572736520616c7265616479206578697374730000000000000000000000600082015250565b6000614f4d601583613edc565b9150614f5882614f17565b602082019050919050565b60006020820190508181036000830152614f7c81614f40565b9050919050565b6000614f8e826132ef565b91507fffffffffffffffffffffffffffffffffffffffffffffffffffffffffffffffff8203614fc057614fbf6142ca565b5b600182019050919050565b7f4661696c656420746f206772616e7420434f555253455f4f574e45525f524f4c60008201527f4500000000000000000000000000000000000000000000000000000000000000602082015250565b6000615027602183613edc565b915061503282614fcb565b604082019050919050565b600060208201905081810360008301526150568161501a565b9050919050565b615066816133d3565b82525050565b61507581613a6f565b82525050565b6000606082019050615090600083018661505d565b61509d602083018561506c565b6150aa6040830184613ae5565b949350505050565b60006150be82846149c8565b915081905092915050565b60006150d4826132ef565b91506150df836132ef565b92508282039050818111156150f7576150f66142ca565b5b92915050565b600060408201905081810360008301526151178185613eed565b9050615126602083018461505d565b9392505050565b7f4e6f207265766965777320666f72207468697320636f75727365000000000000600082015250565b6000615163601a83613edc565b915061516e8261512d565b602082019050919050565b6000602082019050818103600083015261519281615156565b9050919050565b7f436f7572736520646f65736e2774206578697374210000000000000000000000600082015250565b60006151cf601583613edc565b91506151da82615199565b602082019050919050565b600060208201905081810360008301526151fe816151c2565b9050919050565b7f4f6e6c7920636f757273652063726561746f722063616e2064656c657465207460008201527f686520636f757273650000000000000000000000000000000000000000000000602082015250565b6000615261602983613edc565b915061526c82615205565b604082019050919050565b6000602082019050818103600083015261529081615254565b9050919050565b6000815490506152a68161422d565b9050919050565b8181036152bb575050615393565b6152c482615297565b67ffffffffffffffff8111156152dd576152dc613b46565b5b6152e7825461422d565b6152f282828561466e565b6000601f831160018114615321576000841561530f578287015490505b61531985826146df565b86555061538c565b601f19841661532f8761454f565b965061533a8661454f565b60005b828110156153625784890154825560018201915060018501945060208101905061533d565b8683101561537f578489015461537b601f8916826146c1565b8355505b6001600288020188555050505b5050505050505b565b7f4e487b7100000000000000000000000000000000000000000000000000000000600052603160045260246000fd5b60006020820190506153d9600083018461505d565b92915050565b60006153ea826132ef565b91506153f5836132ef565b9250826154055761540461495d565b5b828206905092915050565b600061541b826132ef565b91506000820361542e5761542d6142ca565b5b60018203905091905056fe436f75727365206e65656473206174206c65617374206f6e652063686170746572436f75727365206d6565747320656c69676962696c697479206372697465726961436f75727365206e6565647320696d70726f76656d656e7420696e2074686520666f6c6c6f77696e672061726561733a20436f757273652065646974656420616e64207265717569726573206e657720726576696577a26469706673582212202e4d70fe7293456f62d655d1705a0df76e98121719e1de59b00e124062ab1d2464736f6c634300081b0033",
  "linkReferences": {},
  "deployedLinkReferences": {}
}