{
  "_format": "hh-sol-artifact-1",
  "contractName": "Ecosystem1Facet",
  "sourceName": "contracts/DiamondProxy/Ecosystem1Facet.sol",
  "abi": [
    {
      "inputs": [],
      "name": "ReentrancyGuardReentrantCall",
      "type": "error"
    },
    {
      "anonymous": false,
      "inputs": [
        {
          "indexed": true,
          "internalType": "uint256",
          "name": "courseId",
          "type": "uint256"
        },
        {
          "indexed": false,
          "internalType": "uint256",
          "name": "approvalCount",
          "type": "uint256"
        }
      ],
      "name": "CourseApproved",
      "type": "event"
    },
    {
      "anonymous": false,
      "inputs": [
        {
          "indexed": true,
          "internalType": "uint256",
          "name": "courseId",
          "type": "uint256"
        },
        {
          "indexed": false,
          "internalType": "string",
          "name": "courseName",
          "type": "string"
        },
        {
          "indexed": false,
          "internalType": "address",
          "name": "creator",
          "type": "address"
        }
      ],
      "name": "CourseCreated",
      "type": "event"
    },
    {
      "anonymous": false,
      "inputs": [
        {
          "indexed": true,
          "internalType": "uint256",
          "name": "_courseID",
          "type": "uint256"
        },
        {
          "indexed": true,
          "internalType": "string",
          "name": "_courseName",
          "type": "string"
        },
        {
          "indexed": false,
          "internalType": "bool",
          "name": "_approved",
          "type": "bool"
        }
      ],
      "name": "CourseCreationSuccess",
      "type": "event"
    },
    {
      "anonymous": false,
      "inputs": [
        {
          "indexed": true,
          "internalType": "uint256",
          "name": "_courseId",
          "type": "uint256"
        },
        {
          "indexed": false,
          "internalType": "address",
          "name": "owner",
          "type": "address"
        }
      ],
      "name": "CourseDeleteSuccess",
      "type": "event"
    },
    {
      "anonymous": false,
      "inputs": [
        {
          "indexed": true,
          "internalType": "uint256",
          "name": "_courseId",
          "type": "uint256"
        },
        {
          "indexed": false,
          "internalType": "string",
          "name": "_courseName",
          "type": "string"
        }
      ],
      "name": "CourseEdited",
      "type": "event"
    },
    {
      "anonymous": false,
      "inputs": [
        {
          "indexed": false,
          "internalType": "string",
          "name": "message",
          "type": "string"
        },
        {
          "indexed": false,
          "internalType": "uint256",
          "name": "courseId",
          "type": "uint256"
        },
        {
          "indexed": false,
          "internalType": "uint256",
          "name": "value",
          "type": "uint256"
        }
      ],
      "name": "DebugLog",
      "type": "event"
    },
    {
      "anonymous": false,
      "inputs": [
        {
          "indexed": false,
          "internalType": "address",
          "name": "account",
          "type": "address"
        },
        {
          "indexed": false,
          "internalType": "bytes32",
          "name": "role",
          "type": "bytes32"
        },
        {
          "indexed": false,
          "internalType": "bool",
          "name": "hasRole",
          "type": "bool"
        }
      ],
      "name": "DebugRoleCheck",
      "type": "event"
    },
    {
      "anonymous": false,
      "inputs": [
        {
          "indexed": false,
          "internalType": "address",
          "name": "account",
          "type": "address"
        },
        {
          "indexed": false,
          "internalType": "bytes32",
          "name": "role",
          "type": "bytes32"
        },
        {
          "indexed": false,
          "internalType": "bool",
          "name": "roleValue",
          "type": "bool"
        }
      ],
      "name": "DebugStorageAccess",
      "type": "event"
    },
    {
      "anonymous": false,
      "inputs": [
        {
          "indexed": true,
          "internalType": "address",
          "name": "_to",
          "type": "address"
        },
        {
          "indexed": true,
          "internalType": "uint256",
          "name": "_amount",
          "type": "uint256"
        }
      ],
      "name": "EcosystemPoolUpdate",
      "type": "event"
    },
    {
      "anonymous": false,
      "inputs": [
        {
          "indexed": true,
          "internalType": "uint256",
          "name": "courseId",
          "type": "uint256"
        },
        {
          "indexed": false,
          "internalType": "address",
          "name": "reviewer",
          "type": "address"
        }
      ],
      "name": "ReviewSubmitted",
      "type": "event"
    },
    {
      "anonymous": false,
      "inputs": [
        {
          "indexed": true,
          "internalType": "uint256",
          "name": "courseId",
          "type": "uint256"
        },
        {
          "indexed": false,
          "internalType": "address[]",
          "name": "reviewers",
          "type": "address[]"
        }
      ],
      "name": "ReviewersAssigned",
      "type": "event"
    },
    {
      "inputs": [
        {
          "internalType": "uint256",
          "name": "courseId",
          "type": "uint256"
        }
      ],
      "name": "approveCourse",
      "outputs": [],
      "stateMutability": "nonpayable",
      "type": "function"
    },
    {
      "inputs": [
        {
          "internalType": "address",
          "name": "account",
          "type": "address"
        },
        {
          "internalType": "bytes32",
          "name": "role",
          "type": "bytes32"
        }
      ],
      "name": "checkRole",
      "outputs": [
        {
          "internalType": "bool",
          "name": "",
          "type": "bool"
        }
      ],
      "stateMutability": "view",
      "type": "function"
    },
    {
      "inputs": [
        {
          "internalType": "string",
          "name": "_courseName",
          "type": "string"
        },
        {
          "internalType": "string",
          "name": "_description",
          "type": "string"
        },
        {
          "internalType": "enum LibDiamond.DifficultyLevel",
          "name": "_difficultyLevel",
          "type": "uint8"
        }
      ],
      "name": "createCourse",
      "outputs": [
        {
          "internalType": "bool",
          "name": "",
          "type": "bool"
        }
      ],
      "stateMutability": "nonpayable",
      "type": "function"
    },
    {
      "inputs": [
        {
          "internalType": "uint256",
          "name": "_courseId",
          "type": "uint256"
        }
      ],
      "name": "deleteCourse",
      "outputs": [
        {
          "internalType": "bool",
          "name": "",
          "type": "bool"
        }
      ],
      "stateMutability": "nonpayable",
      "type": "function"
    },
    {
      "inputs": [
        {
          "internalType": "uint256",
          "name": "_courseId",
          "type": "uint256"
        },
        {
          "internalType": "string",
          "name": "_courseName",
          "type": "string"
        }
      ],
      "name": "editCourse",
      "outputs": [
        {
          "internalType": "bool",
          "name": "",
          "type": "bool"
        }
      ],
      "stateMutability": "nonpayable",
      "type": "function"
    },
    {
      "inputs": [],
      "name": "getAllCourses",
      "outputs": [
        {
          "components": [
            {
              "internalType": "uint256",
              "name": "courseId",
              "type": "uint256"
            },
            {
              "internalType": "string",
              "name": "courseName",
              "type": "string"
            },
            {
              "internalType": "string",
              "name": "description",
              "type": "string"
            },
            {
              "internalType": "bool",
              "name": "approved",
              "type": "bool"
            },
            {
              "internalType": "uint256",
              "name": "approvalCount",
              "type": "uint256"
            },
            {
              "internalType": "address",
              "name": "creator",
              "type": "address"
            },
            {
              "internalType": "bool",
              "name": "exists",
              "type": "bool"
            },
            {
              "internalType": "address[]",
              "name": "enrolledStudents",
              "type": "address[]"
            },
            {
              "internalType": "enum LibDiamond.DifficultyLevel",
              "name": "difficultyLevel",
              "type": "uint8"
            }
          ],
          "internalType": "struct LibDiamond.Course[]",
          "name": "",
          "type": "tuple[]"
        }
      ],
      "stateMutability": "view",
      "type": "function"
    },
    {
      "inputs": [
        {
          "internalType": "uint256",
          "name": "courseId",
          "type": "uint256"
        }
      ],
      "name": "getCourse",
      "outputs": [
        {
          "components": [
            {
              "internalType": "uint256",
              "name": "courseId",
              "type": "uint256"
            },
            {
              "internalType": "string",
              "name": "courseName",
              "type": "string"
            },
            {
              "internalType": "string",
              "name": "description",
              "type": "string"
            },
            {
              "internalType": "bool",
              "name": "approved",
              "type": "bool"
            },
            {
              "internalType": "uint256",
              "name": "approvalCount",
              "type": "uint256"
            },
            {
              "internalType": "address",
              "name": "creator",
              "type": "address"
            },
            {
              "internalType": "bool",
              "name": "exists",
              "type": "bool"
            },
            {
              "internalType": "address[]",
              "name": "enrolledStudents",
              "type": "address[]"
            },
            {
              "internalType": "enum LibDiamond.DifficultyLevel",
              "name": "difficultyLevel",
              "type": "uint8"
            }
          ],
          "internalType": "struct LibDiamond.Course",
          "name": "",
          "type": "tuple"
        }
      ],
      "stateMutability": "view",
      "type": "function"
    },
    {
      "inputs": [
        {
          "internalType": "uint256",
          "name": "courseId",
          "type": "uint256"
        }
      ],
      "name": "getCourseReviewers",
      "outputs": [
        {
          "internalType": "address[]",
          "name": "",
          "type": "address[]"
        }
      ],
      "stateMutability": "view",
      "type": "function"
    },
    {
      "inputs": [],
      "name": "getCurrentEcosystemPoolSupply",
      "outputs": [
        {
          "internalType": "uint256",
          "name": "",
          "type": "uint256"
        }
      ],
      "stateMutability": "view",
      "type": "function"
    },
    {
      "inputs": [
        {
          "internalType": "address",
          "name": "account",
          "type": "address"
        },
        {
          "internalType": "bytes32",
          "name": "role",
          "type": "bytes32"
        }
      ],
      "name": "getRoleStatus",
      "outputs": [
        {
          "internalType": "bool",
          "name": "",
          "type": "bool"
        }
      ],
      "stateMutability": "view",
      "type": "function"
    },
    {
      "inputs": [
        {
          "internalType": "address",
          "name": "account",
          "type": "address"
        }
      ],
      "name": "hasCourseOwnerRole",
      "outputs": [
        {
          "internalType": "bool",
          "name": "",
          "type": "bool"
        }
      ],
      "stateMutability": "view",
      "type": "function"
    },
    {
      "inputs": [
        {
          "internalType": "bytes32",
          "name": "role",
          "type": "bytes32"
        }
      ],
      "name": "onlyRoleCheck",
      "outputs": [
        {
          "internalType": "bool",
          "name": "",
          "type": "bool"
        }
      ],
      "stateMutability": "view",
      "type": "function"
    },
    {
      "inputs": [],
      "name": "reviewerPoolLength",
      "outputs": [
        {
          "internalType": "uint256",
          "name": "",
          "type": "uint256"
        }
      ],
      "stateMutability": "view",
      "type": "function"
    },
    {
      "inputs": [
        {
          "internalType": "uint256",
          "name": "courseId",
          "type": "uint256"
        }
      ],
      "name": "selectCourseReviewers",
      "outputs": [],
      "stateMutability": "nonpayable",
      "type": "function"
    },
    {
      "inputs": [
        {
          "internalType": "uint256",
          "name": "courseId",
          "type": "uint256"
        },
        {
          "internalType": "uint256[10]",
          "name": "scores",
          "type": "uint256[10]"
        }
      ],
      "name": "submitReview",
      "outputs": [],
      "stateMutability": "nonpayable",
      "type": "function"
    }
  ],
  "bytecode": "0x6080604052348015600f57600080fd5b5060016000819055506149fc806100276000396000f3fe608060405234801561001057600080fd5b50600436106100f55760003560e01c80637528499811610097578063b0959e3211610066578063b0959e32146102aa578063b197f2eb146102da578063c293bbbe1461030a578063c7954e4c1461033a576100f5565b806375284998146102125780638a2492bb1461022e5780638ea6e2fd1461025e5780639dad8d221461027a576100f5565b80632ae8a7e3116100d35780632ae8a7e3146101645780634caf6e8314610194578063550e1da0146101b25780635cc2a14d146101e2576100f5565b806304e48bd1146100fa5780630b91e28d1461011857806317fe7d6314610148575b600080fd5b610102610358565b60405161010f9190613239565b60405180910390f35b610132600480360381019061012d919061329b565b6107b1565b60405161013f919061339b565b60405180910390f35b610162600480360381019061015d91906134f3565b610ae0565b005b61017e60048036038101906101799190613596565b61112e565b60405161018b91906135e5565b60405180910390f35b61019c6111a4565b6040516101a9919061360f565b60405180910390f35b6101cc60048036038101906101c7919061362a565b6111bf565b6040516101d991906135e5565b60405180910390f35b6101fc60048036038101906101f7919061370c565b611254565b60405161020991906135e5565b60405180910390f35b61022c6004803603810190610227919061329b565b6113f4565b005b6102486004803603810190610243919061378d565b611700565b60405161025591906135e5565b60405180910390f35b6102786004803603810190610273919061329b565b611c9e565b005b610294600480360381019061028f919061329b565b612246565b6040516102a191906135e5565b60405180910390f35b6102c460048036038101906102bf9190613818565b61274f565b6040516102d191906135e5565b60405180910390f35b6102f460048036038101906102ef9190613596565b6127c4565b60405161030191906135e5565b60405180910390f35b610324600480360381019061031f919061329b565b61283a565b60405161033191906138b4565b60405180910390f35b6103426128ea565b60405161034f919061360f565b60405180910390f35b60606000610364612902565b9050600081600e018054905067ffffffffffffffff811115610389576103886133c2565b5b6040519080825280602002602001820160405280156103c257816020015b6103af612ca7565b8152602001906001900390816103a75790505b50905060005b82600e01805490508110156107a85760405180610120016040528084600e0183815481106103f9576103f86138d6565b5b906000526020600020906008020160000154815260200184600e018381548110610426576104256138d6565b5b9060005260206000209060080201600101805461044290613934565b80601f016020809104026020016040519081016040528092919081815260200182805461046e90613934565b80156104bb5780601f10610490576101008083540402835291602001916104bb565b820191906000526020600020905b81548152906001019060200180831161049e57829003601f168201915b5050505050815260200184600e0183815481106104db576104da6138d6565b5b906000526020600020906008020160020180546104f790613934565b80601f016020809104026020016040519081016040528092919081815260200182805461052390613934565b80156105705780601f1061054557610100808354040283529160200191610570565b820191906000526020600020905b81548152906001019060200180831161055357829003601f168201915b5050505050815260200184600e0183815481106105905761058f6138d6565b5b906000526020600020906008020160030160009054906101000a900460ff161515815260200184600e0183815481106105cc576105cb6138d6565b5b906000526020600020906008020160040154815260200184600e0183815481106105f9576105f86138d6565b5b906000526020600020906008020160050160009054906101000a900473ffffffffffffffffffffffffffffffffffffffff1673ffffffffffffffffffffffffffffffffffffffff16815260200184600e01838154811061065c5761065b6138d6565b5b906000526020600020906008020160050160149054906101000a900460ff161515815260200184600e018381548110610698576106976138d6565b5b906000526020600020906008020160060180548060200260200160405190810160405280929190818152602001828054801561072957602002820191906000526020600020905b8160009054906101000a900473ffffffffffffffffffffffffffffffffffffffff1673ffffffffffffffffffffffffffffffffffffffff16815260200190600101908083116106df575b5050505050815260200184600e018381548110610749576107486138d6565b5b906000526020600020906008020160070160009054906101000a900460ff16600281111561077a57610779613059565b5b8152508282815181106107905761078f6138d6565b5b602002602001018190525080806001019150506103c8565b50809250505090565b6107b9612ca7565b60006107c3612902565b905080600501600084815260200190815260200160002060050160149054906101000a900460ff1661082a576040517f08c379a0000000000000000000000000000000000000000000000000000000008152600401610821906139c2565b60405180910390fd5b806005016000848152602001908152602001600020604051806101200160405290816000820154815260200160018201805461086590613934565b80601f016020809104026020016040519081016040528092919081815260200182805461089190613934565b80156108de5780601f106108b3576101008083540402835291602001916108de565b820191906000526020600020905b8154815290600101906020018083116108c157829003601f168201915b505050505081526020016002820180546108f790613934565b80601f016020809104026020016040519081016040528092919081815260200182805461092390613934565b80156109705780601f1061094557610100808354040283529160200191610970565b820191906000526020600020905b81548152906001019060200180831161095357829003601f168201915b505050505081526020016003820160009054906101000a900460ff16151515158152602001600482015481526020016005820160009054906101000a900473ffffffffffffffffffffffffffffffffffffffff1673ffffffffffffffffffffffffffffffffffffffff1673ffffffffffffffffffffffffffffffffffffffff1681526020016005820160149054906101000a900460ff1615151515815260200160068201805480602002602001604051908101604052809291908181526020018280548015610a9457602002820191906000526020600020905b8160009054906101000a900473ffffffffffffffffffffffffffffffffffffffff1673ffffffffffffffffffffffffffffffffffffffff1681526020019060010190808311610a4a575b505050505081526020016007820160009054906101000a900460ff166002811115610ac257610ac1613059565b5b6002811115610ad457610ad3613059565b5b81525050915050919050565b7fc10c77be35aff266144ed64c26a1fa104bae2f284ae99ac4a34203454704a1856000610b0b61292f565b905080600c01600083815260200190815260200160002060003373ffffffffffffffffffffffffffffffffffffffff1673ffffffffffffffffffffffffffffffffffffffff16815260200190815260200160002060009054906101000a900460ff16610bac576040517f08c379a0000000000000000000000000000000000000000000000000000000008152600401610ba390613a54565b60405180910390fd5b6000610bb6612902565b905080600501600086815260200190815260200160002060050160149054906101000a900460ff16610c1d576040517f08c379a0000000000000000000000000000000000000000000000000000000008152600401610c14906139c2565b60405180910390fd5b600081600b0160008781526020019081526020016000208054905011610c78576040517f08c379a0000000000000000000000000000000000000000000000000000000008152600401610c6f90613ae6565b60405180910390fd5b610c82853361295c565b610cc1576040517f08c379a0000000000000000000000000000000000000000000000000000000008152600401610cb890613b52565b60405180910390fd5b80600601600086815260200190815260200160002060003373ffffffffffffffffffffffffffffffffffffffff1673ffffffffffffffffffffffffffffffffffffffff168152602001908152602001600020600a0160009054906101000a900460ff1615610d64576040517f08c379a0000000000000000000000000000000000000000000000000000000008152600401610d5b90613bbe565b60405180910390fd5b600a8014610da7576040517f08c379a0000000000000000000000000000000000000000000000000000000008152600401610d9e90613c50565b60405180910390fd5b60005b600a811015610e3e57600a8582600a8110610dc857610dc76138d6565b5b602002015111158015610df2575060008582600a8110610deb57610dea6138d6565b5b6020020151115b610e31576040517f08c379a0000000000000000000000000000000000000000000000000000000008152600401610e2890613cbc565b60405180910390fd5b8080600101915050610daa565b50600081600601600087815260200190815260200160002060003373ffffffffffffffffffffffffffffffffffffffff1673ffffffffffffffffffffffffffffffffffffffff1681526020019081526020016000209050846000600a8110610ea957610ea86138d6565b5b60200201518160000181905550846001600a8110610eca57610ec96138d6565b5b60200201518160010181905550846002600a8110610eeb57610eea6138d6565b5b60200201518160020181905550846003600a8110610f0c57610f0b6138d6565b5b60200201518160030181905550846004600a8110610f2d57610f2c6138d6565b5b60200201518160040181905550846005600a8110610f4e57610f4d6138d6565b5b60200201518160050181905550846006600a8110610f6f57610f6e6138d6565b5b60200201518160060181905550846007600a8110610f9057610f8f6138d6565b5b60200201518160070181905550846008600a8110610fb157610fb06138d6565b5b60200201518160080181905550846009600a8110610fd257610fd16138d6565b5b60200201518160090181905550600181600a0160006101000a81548160ff02191690831515021790555081600a0160008781526020019081526020016000208190806001815401808255809150506001900390600052602060002090600b020160009091909190915060008201548160000155600182015481600101556002820154816002015560038201548160030155600482015481600401556005820154816005015560068201548160060155600782015481600701556008820154816008015560098201548160090155600a820160009054906101000a900460ff1681600a0160006101000a81548160ff0219169083151502179055505050857f049c6bc670988ed0fe782ccafb4e8cf96eb4fed5e99f7ba5b64d9bb782107077336040516110fe9190613ceb565b60405180910390a2600061111182612a28565b90506050811061112557611124876113f4565b5b50505050505050565b60008061113961292f565b905080600c01600084815260200190815260200160002060008573ffffffffffffffffffffffffffffffffffffffff1673ffffffffffffffffffffffffffffffffffffffff16815260200190815260200160002060009054906101000a900460ff1691505092915050565b6000806111af612902565b9050806003018054905091505090565b6000806111ca61292f565b905080600c0160007fadb22091b155738d2e889eb96f509d2a7c93234236b30400927feb4a6a15ab00815260200190815260200160002060008473ffffffffffffffffffffffffffffffffffffffff1673ffffffffffffffffffffffffffffffffffffffff16815260200190815260200160002060009054906101000a900460ff16915050919050565b60007fadb22091b155738d2e889eb96f509d2a7c93234236b30400927feb4a6a15ab00600061128161292f565b905080600c01600083815260200190815260200160002060003373ffffffffffffffffffffffffffffffffffffffff1673ffffffffffffffffffffffffffffffffffffffff16815260200190815260200160002060009054906101000a900460ff16611322576040517f08c379a000000000000000000000000000000000000000000000000000000000815260040161131990613a54565b60405180910390fd5b600061132c612902565b905060008160050160008881526020019081526020016000206000015403611389576040517f08c379a0000000000000000000000000000000000000000000000000000000008152600401611380906139c2565b60405180910390fd5b8481600501600088815260200190815260200160002060010190816113ae9190613eb2565b50857f5c8c98b6b26236296c856fae8a5ca0c793bbb81c5f8b7c9a9ab99358f53fb0c0866040516113df9190613fbd565b60405180910390a26001935050505092915050565b7fc10c77be35aff266144ed64c26a1fa104bae2f284ae99ac4a34203454704a185600061141f61292f565b905080600c01600083815260200190815260200160002060003373ffffffffffffffffffffffffffffffffffffffff1673ffffffffffffffffffffffffffffffffffffffff16815260200190815260200160002060009054906101000a900460ff166114c0576040517f08c379a00000000000000000000000000000000000000000000000000000000081526004016114b790613a54565b60405180910390fd5b60006114ca612902565b9050600081600901600086815260200190815260200160002090508060030160009054906101000a900460ff1615611537576040517f08c379a000000000000000000000000000000000000000000000000000000000815260040161152e9061402b565b60405180910390fd5b81600d01600086815260200190815260200160002060003373ffffffffffffffffffffffffffffffffffffffff1673ffffffffffffffffffffffffffffffffffffffff16815260200190815260200160002060009054906101000a900460ff16156115d7576040517f08c379a00000000000000000000000000000000000000000000000000000000081526004016115ce90614097565b60405180910390fd5b600182600d01600087815260200190815260200160002060003373ffffffffffffffffffffffffffffffffffffffff1673ffffffffffffffffffffffffffffffffffffffff16815260200190815260200160002060006101000a81548160ff021916908315150217905550806004016000815480929190611657906140e6565b919050555060028160040154106116f95760018160030160006101000a81548160ff021916908315150217905550847fbcfbdd19bcb0c6ac01ca9ac647b43defbbf1a1c1df54bb29041dfb09ffb31efa82600401546040516116b9919061360f565b60405180910390a26116f78160050160009054906101000a900473ffffffffffffffffffffffffffffffffffffffff16674563918244f40000612abd565b505b5050505050565b60008061170b612902565b90508060050160008260020154815260200190815260200160002060050160149054906101000a900460ff1615611777576040517f08c379a000000000000000000000000000000000000000000000000000000000815260040161176e9061417a565b60405180910390fd5b600060405180610120016040528083600201548152602001878152602001868152602001600015158152602001600081526020013373ffffffffffffffffffffffffffffffffffffffff168152602001600115158152602001600067ffffffffffffffff8111156117eb576117ea6133c2565b5b6040519080825280602002602001820160405280156118195781602001602082028036833780820191505090505b50815260200185600281111561183257611831613059565b5b815250905080826005016000846002015481526020019081526020016000206000820151816000015560208201518160010190816118709190613eb2565b5060408201518160020190816118869190613eb2565b5060608201518160030160006101000a81548160ff0219169083151502179055506080820151816004015560a08201518160050160006101000a81548173ffffffffffffffffffffffffffffffffffffffff021916908373ffffffffffffffffffffffffffffffffffffffff16021790555060c08201518160050160146101000a81548160ff02191690831515021790555060e0820151816006019080519060200190611934929190612d1f565b506101008201518160070160006101000a81548160ff0219169083600281111561196157611960613059565b5b021790555090505081600e018190806001815401808255809150506001900390600052602060002090600802016000909190919091506000820151816000015560208201518160010190816119b69190613eb2565b5060408201518160020190816119cc9190613eb2565b5060608201518160030160006101000a81548160ff0219169083151502179055506080820151816004015560a08201518160050160006101000a81548173ffffffffffffffffffffffffffffffffffffffff021916908373ffffffffffffffffffffffffffffffffffffffff16021790555060c08201518160050160146101000a81548160ff02191690831515021790555060e0820151816006019080519060200190611a7a929190612d1f565b506101008201518160070160006101000a81548160ff02191690836002811115611aa757611aa6613059565b5b02179055505050816001016000815480929190611ac3906140e6565b919050555060018260070160003373ffffffffffffffffffffffffffffffffffffffff1673ffffffffffffffffffffffffffffffffffffffff1681526020019081526020016000206000016000828254611b1d919061419a565b92505081905550611b4e7fadb22091b155738d2e889eb96f509d2a7c93234236b30400927feb4a6a15ab0033612bb5565b6000611b7a7fadb22091b155738d2e889eb96f509d2a7c93234236b30400927feb4a6a15ab0033612c31565b905080611bbc576040517f08c379a0000000000000000000000000000000000000000000000000000000008152600401611bb390614240565b60405180910390fd5b7f1fc3c915a961e15ecb336b79577e7d9e3e6a15f024fc98418ce8875699a37026337fadb22091b155738d2e889eb96f509d2a7c93234236b30400927feb4a6a15ab0083604051611c0f9392919061426f565b60405180910390a1826002016000815480929190611c2c906140e6565b919050555086604051611c3f91906142e2565b604051809103902060018460020154611c5891906142f9565b7f9c93a42b217373d37e6c66ace0a67fe1fa1f78c93164b62417de69c48c0f67e26000604051611c8891906135e5565b60405180910390a3600193505050509392505050565b7fadb22091b155738d2e889eb96f509d2a7c93234236b30400927feb4a6a15ab006000611cc961292f565b905080600c01600083815260200190815260200160002060003373ffffffffffffffffffffffffffffffffffffffff1673ffffffffffffffffffffffffffffffffffffffff16815260200190815260200160002060009054906101000a900460ff16611d6a576040517f08c379a0000000000000000000000000000000000000000000000000000000008152600401611d6190613a54565b60405180910390fd5b6000611d74612902565b905080600501600085815260200190815260200160002060050160149054906101000a900460ff16611ddb576040517f08c379a0000000000000000000000000000000000000000000000000000000008152600401611dd2906139c2565b60405180910390fd5b3373ffffffffffffffffffffffffffffffffffffffff1681600501600086815260200190815260200160002060050160009054906101000a900473ffffffffffffffffffffffffffffffffffffffff1673ffffffffffffffffffffffffffffffffffffffff1614611e81576040517f08c379a0000000000000000000000000000000000000000000000000000000008152600401611e789061439f565b60405180910390fd5b600081600b0160008681526020019081526020016000208054905014611edc576040517f08c379a0000000000000000000000000000000000000000000000000000000008152600401611ed39061440b565b60405180910390fd5b600381600301805490501015611f27576040517f08c379a0000000000000000000000000000000000000000000000000000000008152600401611f1e90614477565b60405180910390fd5b60008060028360030180549050611f3e9190614497565b905060008084600d01600089815260200190815260200160002090505b600384108015611f6a57508282105b156121ad578180611f7a906140e6565b9250506000856003018054905042443386604051602001611f9e9493929190614542565b6040516020818303038152906040528051906020012060001c611fc191906145bf565b90506000866003018281548110611fdb57611fda6138d6565b5b9060005260206000200160009054906101000a900473ffffffffffffffffffffffffffffffffffffffff1690508260008273ffffffffffffffffffffffffffffffffffffffff1673ffffffffffffffffffffffffffffffffffffffff16815260200190815260200160002060009054906101000a900460ff161580156120c557508660050160008b815260200190815260200160002060050160009054906101000a900473ffffffffffffffffffffffffffffffffffffffff1673ffffffffffffffffffffffffffffffffffffffff168173ffffffffffffffffffffffffffffffffffffffff1614155b156121a65786600b0160008b8152602001908152602001600020819080600181540180825580915050600190039060005260206000200160009091909190916101000a81548173ffffffffffffffffffffffffffffffffffffffff021916908373ffffffffffffffffffffffffffffffffffffffff16021790555060018360008373ffffffffffffffffffffffffffffffffffffffff1673ffffffffffffffffffffffffffffffffffffffff16815260200190815260200160002060006101000a81548160ff02191690831515021790555085806121a2906140e6565b9650505b5050611f5b565b600384146121f0576040517f08c379a00000000000000000000000000000000000000000000000000000000081526004016121e790614662565b60405180910390fd5b877f4b8fdabac7f3012213d917c1ab7ed9ad12ca775fadd33741c49237b3e649e27d86600b0160008b8152602001908152602001600020604051612234919061476e565b60405180910390a25050505050505050565b60007fadb22091b155738d2e889eb96f509d2a7c93234236b30400927feb4a6a15ab00600061227361292f565b905080600c01600083815260200190815260200160002060003373ffffffffffffffffffffffffffffffffffffffff1673ffffffffffffffffffffffffffffffffffffffff16815260200190815260200160002060009054906101000a900460ff16612314576040517f08c379a000000000000000000000000000000000000000000000000000000000815260040161230b90613a54565b60405180910390fd5b600061231e612902565b90506000816005016000878152602001908152602001600020600001540361237b576040517f08c379a0000000000000000000000000000000000000000000000000000000008152600401612372906147dc565b60405180910390fd5b60005b81600e0180549050811161264f578582600e0182815481106123a3576123a26138d6565b5b9060005260206000209060080201600001540361263c5781600e01600183600e01805490506123d291906142f9565b815481106123e3576123e26138d6565b5b906000526020600020906008020182600e018281548110612407576124066138d6565b5b906000526020600020906008020160008201548160000155600182018160010190816124339190614812565b50600282018160020190816124489190614812565b506003820160009054906101000a900460ff168160030160006101000a81548160ff021916908315150217905550600482015481600401556005820160009054906101000a900473ffffffffffffffffffffffffffffffffffffffff168160050160006101000a81548173ffffffffffffffffffffffffffffffffffffffff021916908373ffffffffffffffffffffffffffffffffffffffff1602179055506005820160149054906101000a900460ff168160050160146101000a81548160ff021916908315150217905550600682018160060190805461252a929190612da9565b506007820160009054906101000a900460ff168160070160006101000a81548160ff0219169083600281111561256357612562613059565b5b021790555090505081600e0180548061257f5761257e6148fa565b5b60019003818190600052602060002090600802016000808201600090556001820160006125ac9190612dfb565b6002820160006125bc9190612dfb565b6003820160006101000a81549060ff021916905560048201600090556005820160006101000a81549073ffffffffffffffffffffffffffffffffffffffff02191690556005820160146101000a81549060ff02191690556006820160006126239190612e3b565b6007820160006101000a81549060ff0219169055505090555b8080612647906140e6565b91505061237e565b5080600501600086815260200190815260200160002060008082016000905560018201600061267e9190612dfb565b60028201600061268e9190612dfb565b6003820160006101000a81549060ff021916905560048201600090556005820160006101000a81549073ffffffffffffffffffffffffffffffffffffffff02191690556005820160146101000a81549060ff02191690556006820160006126f59190612e3b565b6007820160006101000a81549060ff02191690555050847f50d94198096be9c8aad282f822173f9212251c4d4dc2731fa944f3941749a78d3360405161273b9190613ceb565b60405180910390a260019350505050919050565b60008061275a61292f565b905080600c01600084815260200190815260200160002060003373ffffffffffffffffffffffffffffffffffffffff1673ffffffffffffffffffffffffffffffffffffffff16815260200190815260200160002060009054906101000a900460ff16915050919050565b6000806127cf61292f565b905080600c01600084815260200190815260200160002060008573ffffffffffffffffffffffffffffffffffffffff1673ffffffffffffffffffffffffffffffffffffffff16815260200190815260200160002060009054906101000a900460ff1691505092915050565b60606000612846612902565b905080600b0160008481526020019081526020016000208054806020026020016040519081016040528092919081815260200182805480156128dd57602002820191906000526020600020905b8160009054906101000a900473ffffffffffffffffffffffffffffffffffffffff1673ffffffffffffffffffffffffffffffffffffffff1681526020019060010190808311612893575b5050505050915050919050565b6000806128f5612902565b9050806000015491505090565b6000807f5d9ab6191fe9d5041816fb24ec4281e2d3989236339577e7fbbaf91315a1bb7190508091505090565b6000807fc8fcad8db84d3cc18b4c41d551ea0ee66dd599cde068d998e57d5e09332c131c90508091505090565b600080612967612902565b9050600081600b016000868152602001908152602001600020905060005b8180549050811015612a1a578473ffffffffffffffffffffffffffffffffffffffff168282815481106129bb576129ba6138d6565b5b9060005260206000200160009054906101000a900473ffffffffffffffffffffffffffffffffffffffff1673ffffffffffffffffffffffffffffffffffffffff1603612a0d5760019350505050612a22565b8080600101915050612985565b506000925050505b92915050565b60008160090154826008015483600701548460060154856005015486600401548760030154886002015489600101548a60000154612a66919061419a565b612a70919061419a565b612a7a919061419a565b612a84919061419a565b612a8e919061419a565b612a98919061419a565b612aa2919061419a565b612aac919061419a565b612ab6919061419a565b9050919050565b600080612ac8612902565b90506064600f6b204fce5e3e25026110000000612ae59190614497565b612aef9190614929565b816000015484612aff919061419a565b1115612b40576040517f08c379a0000000000000000000000000000000000000000000000000000000008152600401612b37906149a6565b60405180910390fd5b612b4a8484612abd565b5082816000016000828254612b5f919061419a565b92505081905550828473ffffffffffffffffffffffffffffffffffffffff167fad6ef58d5c294f81258965738e7ae511124139834a8d0b8f8f7327086c82052a60405160405180910390a3600191505092915050565b6000612bbf61292f565b9050600181600c01600085815260200190815260200160002060008473ffffffffffffffffffffffffffffffffffffffff1673ffffffffffffffffffffffffffffffffffffffff16815260200190815260200160002060006101000a81548160ff021916908315150217905550505050565b600080612c3c61292f565b905080600c01600085815260200190815260200160002060008473ffffffffffffffffffffffffffffffffffffffff1673ffffffffffffffffffffffffffffffffffffffff16815260200190815260200160002060009054906101000a900460ff1691505092915050565b60405180610120016040528060008152602001606081526020016060815260200160001515815260200160008152602001600073ffffffffffffffffffffffffffffffffffffffff1681526020016000151581526020016060815260200160006002811115612d1957612d18613059565b5b81525090565b828054828255906000526020600020908101928215612d98579160200282015b82811115612d975782518260006101000a81548173ffffffffffffffffffffffffffffffffffffffff021916908373ffffffffffffffffffffffffffffffffffffffff16021790555091602001919060010190612d3f565b5b509050612da59190612e5c565b5090565b828054828255906000526020600020908101928215612dea5760005260206000209182015b82811115612de9578254825591600101919060010190612dce565b5b509050612df79190612e5c565b5090565b508054612e0790613934565b6000825580601f10612e195750612e38565b601f016020900490600052602060002090810190612e379190612e5c565b5b50565b5080546000825590600052602060002090810190612e599190612e5c565b50565b5b80821115612e75576000816000905550600101612e5d565b5090565b600081519050919050565b600082825260208201905092915050565b6000819050602082019050919050565b6000819050919050565b612eb881612ea5565b82525050565b600081519050919050565b600082825260208201905092915050565b60005b83811015612ef8578082015181840152602081019050612edd565b60008484015250505050565b6000601f19601f8301169050919050565b6000612f2082612ebe565b612f2a8185612ec9565b9350612f3a818560208601612eda565b612f4381612f04565b840191505092915050565b60008115159050919050565b612f6381612f4e565b82525050565b600073ffffffffffffffffffffffffffffffffffffffff82169050919050565b6000612f9482612f69565b9050919050565b612fa481612f89565b82525050565b600081519050919050565b600082825260208201905092915050565b6000819050602082019050919050565b6000612fe28383612f9b565b60208301905092915050565b6000602082019050919050565b600061300682612faa565b6130108185612fb5565b935061301b83612fc6565b8060005b8381101561304c5781516130338882612fd6565b975061303e83612fee565b92505060018101905061301f565b5085935050505092915050565b7f4e487b7100000000000000000000000000000000000000000000000000000000600052602160045260246000fd5b6003811061309957613098613059565b5b50565b60008190506130aa82613088565b919050565b60006130ba8261309c565b9050919050565b6130ca816130af565b82525050565b6000610120830160008301516130e96000860182612eaf565b50602083015184820360208601526131018282612f15565b9150506040830151848203604086015261311b8282612f15565b91505060608301516131306060860182612f5a565b5060808301516131436080860182612eaf565b5060a083015161315660a0860182612f9b565b5060c083015161316960c0860182612f5a565b5060e083015184820360e08601526131818282612ffb565b9150506101008301516131986101008601826130c1565b508091505092915050565b60006131af83836130d0565b905092915050565b6000602082019050919050565b60006131cf82612e79565b6131d98185612e84565b9350836020820285016131eb85612e95565b8060005b85811015613227578484038952815161320885826131a3565b9450613213836131b7565b925060208a019950506001810190506131ef565b50829750879550505050505092915050565b6000602082019050818103600083015261325381846131c4565b905092915050565b6000604051905090565b600080fd5b600080fd5b61327881612ea5565b811461328357600080fd5b50565b6000813590506132958161326f565b92915050565b6000602082840312156132b1576132b0613265565b5b60006132bf84828501613286565b91505092915050565b6000610120830160008301516132e16000860182612eaf565b50602083015184820360208601526132f98282612f15565b915050604083015184820360408601526133138282612f15565b91505060608301516133286060860182612f5a565b50608083015161333b6080860182612eaf565b5060a083015161334e60a0860182612f9b565b5060c083015161336160c0860182612f5a565b5060e083015184820360e08601526133798282612ffb565b9150506101008301516133906101008601826130c1565b508091505092915050565b600060208201905081810360008301526133b581846132c8565b905092915050565b600080fd5b7f4e487b7100000000000000000000000000000000000000000000000000000000600052604160045260246000fd5b6133fa82612f04565b810181811067ffffffffffffffff82111715613419576134186133c2565b5b80604052505050565b600061342c61325b565b905061343882826133f1565b919050565b600067ffffffffffffffff821115613458576134576133c2565b5b602082029050919050565b600080fd5b600061347b6134768461343d565b613422565b9050806020840283018581111561349557613494613463565b5b835b818110156134be57806134aa8882613286565b845260208401935050602081019050613497565b5050509392505050565b600082601f8301126134dd576134dc6133bd565b5b600a6134ea848285613468565b91505092915050565b600080610160838503121561350b5761350a613265565b5b600061351985828601613286565b925050602061352a858286016134c8565b9150509250929050565b61353d81612f89565b811461354857600080fd5b50565b60008135905061355a81613534565b92915050565b6000819050919050565b61357381613560565b811461357e57600080fd5b50565b6000813590506135908161356a565b92915050565b600080604083850312156135ad576135ac613265565b5b60006135bb8582860161354b565b92505060206135cc85828601613581565b9150509250929050565b6135df81612f4e565b82525050565b60006020820190506135fa60008301846135d6565b92915050565b61360981612ea5565b82525050565b60006020820190506136246000830184613600565b92915050565b6000602082840312156136405761363f613265565b5b600061364e8482850161354b565b91505092915050565b600080fd5b600067ffffffffffffffff821115613677576136766133c2565b5b61368082612f04565b9050602081019050919050565b82818337600083830152505050565b60006136af6136aa8461365c565b613422565b9050828152602081018484840111156136cb576136ca613657565b5b6136d684828561368d565b509392505050565b600082601f8301126136f3576136f26133bd565b5b813561370384826020860161369c565b91505092915050565b6000806040838503121561372357613722613265565b5b600061373185828601613286565b925050602083013567ffffffffffffffff8111156137525761375161326a565b5b61375e858286016136de565b9150509250929050565b6003811061377557600080fd5b50565b60008135905061378781613768565b92915050565b6000806000606084860312156137a6576137a5613265565b5b600084013567ffffffffffffffff8111156137c4576137c361326a565b5b6137d0868287016136de565b935050602084013567ffffffffffffffff8111156137f1576137f061326a565b5b6137fd868287016136de565b925050604061380e86828701613778565b9150509250925092565b60006020828403121561382e5761382d613265565b5b600061383c84828501613581565b91505092915050565b600082825260208201905092915050565b600061386182612faa565b61386b8185613845565b935061387683612fc6565b8060005b838110156138a757815161388e8882612fd6565b975061389983612fee565b92505060018101905061387a565b5085935050505092915050565b600060208201905081810360008301526138ce8184613856565b905092915050565b7f4e487b7100000000000000000000000000000000000000000000000000000000600052603260045260246000fd5b7f4e487b7100000000000000000000000000000000000000000000000000000000600052602260045260246000fd5b6000600282049050600182168061394c57607f821691505b60208210810361395f5761395e613905565b5b50919050565b600082825260208201905092915050565b7f436f7572736520646f6573206e6f742065786973740000000000000000000000600082015250565b60006139ac601583613965565b91506139b782613976565b602082019050919050565b600060208201905081810360008301526139db8161399f565b9050919050565b7f43616c6c657220646f6573206e6f74206861766520726571756972656420726f60008201527f6c65000000000000000000000000000000000000000000000000000000000000602082015250565b6000613a3e602283613965565b9150613a49826139e2565b604082019050919050565b60006020820190508181036000830152613a6d81613a31565b9050919050565b7f4e6f207265766965776572732061737369676e656420746f207468697320636f60008201527f7572736500000000000000000000000000000000000000000000000000000000602082015250565b6000613ad0602483613965565b9150613adb82613a74565b604082019050919050565b60006020820190508181036000830152613aff81613ac3565b9050919050565b7f4e6f74206120726576696577657220666f72207468697320636f757273650000600082015250565b6000613b3c601e83613965565b9150613b4782613b06565b602082019050919050565b60006020820190508181036000830152613b6b81613b2f565b9050919050565b7f52657669657720616c7265616479207375626d69747465640000000000000000600082015250565b6000613ba8601883613965565b9150613bb382613b72565b602082019050919050565b60006020820190508181036000830152613bd781613b9b565b9050919050565b7f53636f726573206172726179206d757374206861766520313020656c656d656e60008201527f7473000000000000000000000000000000000000000000000000000000000000602082015250565b6000613c3a602283613965565b9150613c4582613bde565b604082019050919050565b60006020820190508181036000830152613c6981613c2d565b9050919050565b7f53636f726573206d757374206265206265747765656e203120616e6420313000600082015250565b6000613ca6601f83613965565b9150613cb182613c70565b602082019050919050565b60006020820190508181036000830152613cd581613c99565b9050919050565b613ce581612f89565b82525050565b6000602082019050613d006000830184613cdc565b92915050565b60008190508160005260206000209050919050565b60006020601f8301049050919050565b600082821b905092915050565b600060088302613d687fffffffffffffffffffffffffffffffffffffffffffffffffffffffffffffffff82613d2b565b613d728683613d2b565b95508019841693508086168417925050509392505050565b6000819050919050565b6000613daf613daa613da584612ea5565b613d8a565b612ea5565b9050919050565b6000819050919050565b613dc983613d94565b613ddd613dd582613db6565b848454613d38565b825550505050565b600090565b613df2613de5565b613dfd818484613dc0565b505050565b5b81811015613e2157613e16600082613dea565b600181019050613e03565b5050565b601f821115613e6657613e3781613d06565b613e4084613d1b565b81016020851015613e4f578190505b613e63613e5b85613d1b565b830182613e02565b50505b505050565b600082821c905092915050565b6000613e8960001984600802613e6b565b1980831691505092915050565b6000613ea28383613e78565b9150826002028217905092915050565b613ebb82612ebe565b67ffffffffffffffff811115613ed457613ed36133c2565b5b613ede8254613934565b613ee9828285613e25565b600060209050601f831160018114613f1c5760008415613f0a578287015190505b613f148582613e96565b865550613f7c565b601f198416613f2a86613d06565b60005b82811015613f5257848901518255600182019150602085019450602081019050613f2d565b86831015613f6f5784890151613f6b601f891682613e78565b8355505b6001600288020188555050505b505050505050565b6000613f8f82612ebe565b613f998185613965565b9350613fa9818560208601612eda565b613fb281612f04565b840191505092915050565b60006020820190508181036000830152613fd78184613f84565b905092915050565b7f436f7572736520616c726561647920617070726f766564000000000000000000600082015250565b6000614015601783613965565b915061402082613fdf565b602082019050919050565b6000602082019050818103600083015261404481614008565b9050919050565b7f416c726561647920617070726f76656400000000000000000000000000000000600082015250565b6000614081601083613965565b915061408c8261404b565b602082019050919050565b600060208201905081810360008301526140b081614074565b9050919050565b7f4e487b7100000000000000000000000000000000000000000000000000000000600052601160045260246000fd5b60006140f182612ea5565b91507fffffffffffffffffffffffffffffffffffffffffffffffffffffffffffffffff8203614123576141226140b7565b5b600182019050919050565b7f436f7572736520616c7265616479206578697374730000000000000000000000600082015250565b6000614164601583613965565b915061416f8261412e565b602082019050919050565b6000602082019050818103600083015261419381614157565b9050919050565b60006141a582612ea5565b91506141b083612ea5565b92508282019050808211156141c8576141c76140b7565b5b92915050565b7f4661696c656420746f206772616e7420434f555253455f4f574e45525f524f4c60008201527f4500000000000000000000000000000000000000000000000000000000000000602082015250565b600061422a602183613965565b9150614235826141ce565b604082019050919050565b600060208201905081810360008301526142598161421d565b9050919050565b61426981613560565b82525050565b60006060820190506142846000830186613cdc565b6142916020830185614260565b61429e60408301846135d6565b949350505050565b600081905092915050565b60006142bc82612ebe565b6142c681856142a6565b93506142d6818560208601612eda565b80840191505092915050565b60006142ee82846142b1565b915081905092915050565b600061430482612ea5565b915061430f83612ea5565b9250828203905081811115614327576143266140b7565b5b92915050565b7f4f6e6c7920636f757273652063726561746f722063616e2073656c656374207260008201527f6576696577657273000000000000000000000000000000000000000000000000602082015250565b6000614389602883613965565b91506143948261432d565b604082019050919050565b600060208201905081810360008301526143b88161437c565b9050919050565b7f52657669657765727320616c72656164792073656c6563746564000000000000600082015250565b60006143f5601a83613965565b9150614400826143bf565b602082019050919050565b60006020820190508181036000830152614424816143e8565b9050919050565b7f4e6f7420656e6f7567682072657669657765727320696e2074686520706f6f6c600082015250565b6000614461602083613965565b915061446c8261442b565b602082019050919050565b6000602082019050818103600083015261449081614454565b9050919050565b60006144a282612ea5565b91506144ad83612ea5565b92508282026144bb81612ea5565b915082820484148315176144d2576144d16140b7565b5b5092915050565b6000819050919050565b6144f46144ef82612ea5565b6144d9565b82525050565b60008160601b9050919050565b6000614512826144fa565b9050919050565b600061452482614507565b9050919050565b61453c61453782612f89565b614519565b82525050565b600061454e82876144e3565b60208201915061455e82866144e3565b60208201915061456e828561452b565b60148201915061457e82846144e3565b60208201915081905095945050505050565b7f4e487b7100000000000000000000000000000000000000000000000000000000600052601260045260246000fd5b60006145ca82612ea5565b91506145d583612ea5565b9250826145e5576145e4614590565b5b828206905092915050565b7f4661696c656420746f2073656c65637420656e6f75676820756e69717565207260008201527f6576696577657273000000000000000000000000000000000000000000000000602082015250565b600061464c602883613965565b9150614657826145f0565b604082019050919050565b6000602082019050818103600083015261467b8161463f565b9050919050565b600081549050919050565b60008190508160005260206000209050919050565b60008160001c9050919050565b600073ffffffffffffffffffffffffffffffffffffffff82169050919050565b60006146e26146dd836146a2565b6146af565b9050919050565b60006146f582546146cf565b9050919050565b6000600182019050919050565b600061471482614682565b61471e8185613845565b93506147298361468d565b8060005b838110156147615761473e826146e9565b6147488882612fd6565b9750614753836146fc565b92505060018101905061472d565b5085935050505092915050565b600060208201905081810360008301526147888184614709565b905092915050565b7f436f7572736520646f65736e2774206578697374210000000000000000000000600082015250565b60006147c6601583613965565b91506147d182614790565b602082019050919050565b600060208201905081810360008301526147f5816147b9565b9050919050565b60008154905061480b81613934565b9050919050565b8181036148205750506148f8565b614829826147fc565b67ffffffffffffffff811115614842576148416133c2565b5b61484c8254613934565b614857828285613e25565b6000601f8311600181146148865760008415614874578287015490505b61487e8582613e96565b8655506148f1565b601f19841661489487613d06565b965061489f86613d06565b60005b828110156148c7578489015482556001820191506001850194506020810190506148a2565b868310156148e457848901546148e0601f891682613e78565b8355505b6001600288020188555050505b5050505050505b565b7f4e487b7100000000000000000000000000000000000000000000000000000000600052603160045260246000fd5b600061493482612ea5565b915061493f83612ea5565b92508261494f5761494e614590565b5b828204905092915050565b7f4c696d6974204578636565646564210000000000000000000000000000000000600082015250565b6000614990600f83613965565b915061499b8261495a565b602082019050919050565b600060208201905081810360008301526149bf81614983565b905091905056fea26469706673582212206b936b933220ab92784ea9d6b7ec5c83226734e648f78046413c78e1259a9c6964736f6c634300081b0033",
  "linkReferences": {},
  "deployedLinkReferences": {}
}