{
  "_format": "hh-sol-artifact-1",
  "contractName": "Ecosystem1Facet",
  "sourceName": "contracts/DiamondProxy/Ecosystem1Facet.sol",
  "abi": [
    {
      "inputs": [],
      "name": "ReentrancyGuardReentrantCall",
      "type": "error"
    },
    {
      "anonymous": false,
      "inputs": [
        {
          "indexed": true,
          "internalType": "uint256",
          "name": "courseId",
          "type": "uint256"
        },
        {
          "indexed": false,
          "internalType": "uint256",
          "name": "approvalCount",
          "type": "uint256"
        }
      ],
      "name": "CourseApproved",
      "type": "event"
    },
    {
      "anonymous": false,
      "inputs": [
        {
          "indexed": true,
          "internalType": "uint256",
          "name": "courseId",
          "type": "uint256"
        },
        {
          "indexed": false,
          "internalType": "string",
          "name": "courseName",
          "type": "string"
        },
        {
          "indexed": false,
          "internalType": "address",
          "name": "creator",
          "type": "address"
        }
      ],
      "name": "CourseCreated",
      "type": "event"
    },
    {
      "anonymous": false,
      "inputs": [
        {
          "indexed": true,
          "internalType": "uint256",
          "name": "_courseID",
          "type": "uint256"
        },
        {
          "indexed": true,
          "internalType": "string",
          "name": "_courseName",
          "type": "string"
        },
        {
          "indexed": false,
          "internalType": "bool",
          "name": "_approved",
          "type": "bool"
        }
      ],
      "name": "CourseCreationSuccess",
      "type": "event"
    },
    {
      "anonymous": false,
      "inputs": [
        {
          "indexed": true,
          "internalType": "uint256",
          "name": "_courseId",
          "type": "uint256"
        },
        {
          "indexed": false,
          "internalType": "address",
          "name": "owner",
          "type": "address"
        }
      ],
      "name": "CourseDeleteSuccess",
      "type": "event"
    },
    {
      "anonymous": false,
      "inputs": [
        {
          "indexed": true,
          "internalType": "uint256",
          "name": "_courseId",
          "type": "uint256"
        },
        {
          "indexed": false,
          "internalType": "string",
          "name": "_courseName",
          "type": "string"
        }
      ],
      "name": "CourseEdited",
      "type": "event"
    },
    {
      "anonymous": false,
      "inputs": [
        {
          "indexed": false,
          "internalType": "string",
          "name": "message",
          "type": "string"
        },
        {
          "indexed": false,
          "internalType": "uint256",
          "name": "courseId",
          "type": "uint256"
        },
        {
          "indexed": false,
          "internalType": "uint256",
          "name": "value",
          "type": "uint256"
        }
      ],
      "name": "DebugLog",
      "type": "event"
    },
    {
      "anonymous": false,
      "inputs": [
        {
          "indexed": false,
          "internalType": "address",
          "name": "account",
          "type": "address"
        },
        {
          "indexed": false,
          "internalType": "bytes32",
          "name": "role",
          "type": "bytes32"
        },
        {
          "indexed": false,
          "internalType": "bool",
          "name": "hasRole",
          "type": "bool"
        }
      ],
      "name": "DebugRoleCheck",
      "type": "event"
    },
    {
      "anonymous": false,
      "inputs": [
        {
          "indexed": false,
          "internalType": "address",
          "name": "account",
          "type": "address"
        },
        {
          "indexed": false,
          "internalType": "bytes32",
          "name": "role",
          "type": "bytes32"
        },
        {
          "indexed": false,
          "internalType": "bool",
          "name": "roleValue",
          "type": "bool"
        }
      ],
      "name": "DebugStorageAccess",
      "type": "event"
    },
    {
      "anonymous": false,
      "inputs": [
        {
          "indexed": true,
          "internalType": "address",
          "name": "_to",
          "type": "address"
        },
        {
          "indexed": true,
          "internalType": "uint256",
          "name": "_amount",
          "type": "uint256"
        }
      ],
      "name": "EcosystemPoolUpdate",
      "type": "event"
    },
    {
      "anonymous": false,
      "inputs": [
        {
          "indexed": true,
          "internalType": "uint256",
          "name": "courseId",
          "type": "uint256"
        },
        {
          "indexed": false,
          "internalType": "address",
          "name": "reviewer",
          "type": "address"
        }
      ],
      "name": "ReviewSubmitted",
      "type": "event"
    },
    {
      "anonymous": false,
      "inputs": [
        {
          "indexed": true,
          "internalType": "uint256",
          "name": "courseId",
          "type": "uint256"
        },
        {
          "indexed": false,
          "internalType": "address[]",
          "name": "reviewers",
          "type": "address[]"
        }
      ],
      "name": "ReviewersAssigned",
      "type": "event"
    },
    {
      "inputs": [
        {
          "internalType": "uint256",
          "name": "courseId",
          "type": "uint256"
        }
      ],
      "name": "approveCourse",
      "outputs": [],
      "stateMutability": "nonpayable",
      "type": "function"
    },
    {
      "inputs": [
        {
          "internalType": "address",
          "name": "account",
          "type": "address"
        },
        {
          "internalType": "bytes32",
          "name": "role",
          "type": "bytes32"
        }
      ],
      "name": "checkRole",
      "outputs": [
        {
          "internalType": "bool",
          "name": "",
          "type": "bool"
        }
      ],
      "stateMutability": "view",
      "type": "function"
    },
    {
      "inputs": [
        {
          "internalType": "string",
          "name": "_courseName",
          "type": "string"
        },
        {
          "internalType": "string",
          "name": "_description",
          "type": "string"
        },
        {
          "internalType": "enum LibDiamond.DifficultyLevel",
          "name": "_difficultyLevel",
          "type": "uint8"
        }
      ],
      "name": "createCourse",
      "outputs": [
        {
          "internalType": "bool",
          "name": "",
          "type": "bool"
        }
      ],
      "stateMutability": "nonpayable",
      "type": "function"
    },
    {
      "inputs": [
        {
          "internalType": "uint256",
          "name": "_courseId",
          "type": "uint256"
        }
      ],
      "name": "deleteCourse",
      "outputs": [
        {
          "internalType": "bool",
          "name": "",
          "type": "bool"
        }
      ],
      "stateMutability": "nonpayable",
      "type": "function"
    },
    {
      "inputs": [
        {
          "internalType": "uint256",
          "name": "_courseId",
          "type": "uint256"
        },
        {
          "internalType": "string",
          "name": "_courseName",
          "type": "string"
        }
      ],
      "name": "editCourse",
      "outputs": [
        {
          "internalType": "bool",
          "name": "",
          "type": "bool"
        }
      ],
      "stateMutability": "nonpayable",
      "type": "function"
    },
    {
      "inputs": [],
      "name": "getAllCourses",
      "outputs": [
        {
          "components": [
            {
              "internalType": "uint256",
              "name": "courseId",
              "type": "uint256"
            },
            {
              "internalType": "string",
              "name": "courseName",
              "type": "string"
            },
            {
              "internalType": "string",
              "name": "description",
              "type": "string"
            },
            {
              "internalType": "bool",
              "name": "approved",
              "type": "bool"
            },
            {
              "internalType": "uint256",
              "name": "approvalCount",
              "type": "uint256"
            },
            {
              "internalType": "address",
              "name": "creator",
              "type": "address"
            },
            {
              "internalType": "bool",
              "name": "exists",
              "type": "bool"
            },
            {
              "internalType": "address[]",
              "name": "enrolledStudents",
              "type": "address[]"
            },
            {
              "internalType": "enum LibDiamond.DifficultyLevel",
              "name": "difficultyLevel",
              "type": "uint8"
            }
          ],
          "internalType": "struct LibDiamond.Course[]",
          "name": "",
          "type": "tuple[]"
        }
      ],
      "stateMutability": "view",
      "type": "function"
    },
    {
      "inputs": [
        {
          "internalType": "uint256",
          "name": "courseId",
          "type": "uint256"
        }
      ],
      "name": "getCourse",
      "outputs": [
        {
          "components": [
            {
              "internalType": "uint256",
              "name": "courseId",
              "type": "uint256"
            },
            {
              "internalType": "string",
              "name": "courseName",
              "type": "string"
            },
            {
              "internalType": "string",
              "name": "description",
              "type": "string"
            },
            {
              "internalType": "bool",
              "name": "approved",
              "type": "bool"
            },
            {
              "internalType": "uint256",
              "name": "approvalCount",
              "type": "uint256"
            },
            {
              "internalType": "address",
              "name": "creator",
              "type": "address"
            },
            {
              "internalType": "bool",
              "name": "exists",
              "type": "bool"
            },
            {
              "internalType": "address[]",
              "name": "enrolledStudents",
              "type": "address[]"
            },
            {
              "internalType": "enum LibDiamond.DifficultyLevel",
              "name": "difficultyLevel",
              "type": "uint8"
            }
          ],
          "internalType": "struct LibDiamond.Course",
          "name": "",
          "type": "tuple"
        }
      ],
      "stateMutability": "view",
      "type": "function"
    },
    {
      "inputs": [
        {
          "internalType": "uint256",
          "name": "courseId",
          "type": "uint256"
        }
      ],
      "name": "getCourseReviewers",
      "outputs": [
        {
          "internalType": "address[]",
          "name": "",
          "type": "address[]"
        }
      ],
      "stateMutability": "view",
      "type": "function"
    },
    {
      "inputs": [],
      "name": "getCurrentEcosystemPoolSupply",
      "outputs": [
        {
          "internalType": "uint256",
          "name": "",
          "type": "uint256"
        }
      ],
      "stateMutability": "view",
      "type": "function"
    },
    {
      "inputs": [
        {
          "internalType": "address",
          "name": "account",
          "type": "address"
        },
        {
          "internalType": "bytes32",
          "name": "role",
          "type": "bytes32"
        }
      ],
      "name": "getRoleStatus",
      "outputs": [
        {
          "internalType": "bool",
          "name": "",
          "type": "bool"
        }
      ],
      "stateMutability": "view",
      "type": "function"
    },
    {
      "inputs": [
        {
          "internalType": "address",
          "name": "account",
          "type": "address"
        }
      ],
      "name": "hasCourseOwnerRole",
      "outputs": [
        {
          "internalType": "bool",
          "name": "",
          "type": "bool"
        }
      ],
      "stateMutability": "view",
      "type": "function"
    },
    {
      "inputs": [
        {
          "internalType": "bytes32",
          "name": "role",
          "type": "bytes32"
        }
      ],
      "name": "onlyRoleCheck",
      "outputs": [
        {
          "internalType": "bool",
          "name": "",
          "type": "bool"
        }
      ],
      "stateMutability": "view",
      "type": "function"
    },
    {
      "inputs": [],
      "name": "reviewerPoolLength",
      "outputs": [
        {
          "internalType": "uint256",
          "name": "",
          "type": "uint256"
        }
      ],
      "stateMutability": "view",
      "type": "function"
    },
    {
      "inputs": [
        {
          "internalType": "uint256",
          "name": "courseId",
          "type": "uint256"
        }
      ],
      "name": "selectCourseReviewers",
      "outputs": [],
      "stateMutability": "nonpayable",
      "type": "function"
    },
    {
      "inputs": [
        {
          "internalType": "uint256",
          "name": "courseId",
          "type": "uint256"
        },
        {
          "internalType": "uint256[10]",
          "name": "scores",
          "type": "uint256[10]"
        }
      ],
      "name": "submitReview",
      "outputs": [],
      "stateMutability": "nonpayable",
      "type": "function"
    }
  ],
  "bytecode": "0x6080604052348015600f57600080fd5b506001600081905550614830806100276000396000f3fe608060405234801561001057600080fd5b50600436106100f55760003560e01c80637528499811610097578063b0959e3211610066578063b0959e32146102aa578063b197f2eb146102da578063c293bbbe1461030a578063c7954e4c1461033a576100f5565b806375284998146102125780638a2492bb1461022e5780638ea6e2fd1461025e5780639dad8d221461027a576100f5565b80632ae8a7e3116100d35780632ae8a7e3146101645780634caf6e8314610194578063550e1da0146101b25780635cc2a14d146101e2576100f5565b806304e48bd1146100fa5780630b91e28d1461011857806317fe7d6314610148575b600080fd5b610102610358565b60405161010f919061310a565b60405180910390f35b610132600480360381019061012d919061316c565b6107b1565b60405161013f919061326c565b60405180910390f35b610162600480360381019061015d91906133c4565b610ae0565b005b61017e60048036038101906101799190613467565b61112e565b60405161018b91906134b6565b60405180910390f35b61019c6111a4565b6040516101a991906134e0565b60405180910390f35b6101cc60048036038101906101c791906134fb565b6111bf565b6040516101d991906134b6565b60405180910390f35b6101fc60048036038101906101f791906135dd565b611254565b60405161020991906134b6565b60405180910390f35b61022c6004803603810190610227919061316c565b6113f4565b005b6102486004803603810190610243919061365e565b6116c9565b60405161025591906134b6565b60405180910390f35b6102786004803603810190610273919061316c565b611c67565b005b610294600480360381019061028f919061316c565b61220f565b6040516102a191906134b6565b60405180910390f35b6102c460048036038101906102bf91906136e9565b612718565b6040516102d191906134b6565b60405180910390f35b6102f460048036038101906102ef9190613467565b61278d565b60405161030191906134b6565b60405180910390f35b610324600480360381019061031f919061316c565b612803565b6040516103319190613785565b60405180910390f35b6103426128b3565b60405161034f91906134e0565b60405180910390f35b606060006103646128cb565b9050600081600e018054905067ffffffffffffffff81111561038957610388613293565b5b6040519080825280602002602001820160405280156103c257816020015b6103af612b78565b8152602001906001900390816103a75790505b50905060005b82600e01805490508110156107a85760405180610120016040528084600e0183815481106103f9576103f86137a7565b5b906000526020600020906008020160000154815260200184600e018381548110610426576104256137a7565b5b9060005260206000209060080201600101805461044290613805565b80601f016020809104026020016040519081016040528092919081815260200182805461046e90613805565b80156104bb5780601f10610490576101008083540402835291602001916104bb565b820191906000526020600020905b81548152906001019060200180831161049e57829003601f168201915b5050505050815260200184600e0183815481106104db576104da6137a7565b5b906000526020600020906008020160020180546104f790613805565b80601f016020809104026020016040519081016040528092919081815260200182805461052390613805565b80156105705780601f1061054557610100808354040283529160200191610570565b820191906000526020600020905b81548152906001019060200180831161055357829003601f168201915b5050505050815260200184600e0183815481106105905761058f6137a7565b5b906000526020600020906008020160030160009054906101000a900460ff161515815260200184600e0183815481106105cc576105cb6137a7565b5b906000526020600020906008020160040154815260200184600e0183815481106105f9576105f86137a7565b5b906000526020600020906008020160050160009054906101000a900473ffffffffffffffffffffffffffffffffffffffff1673ffffffffffffffffffffffffffffffffffffffff16815260200184600e01838154811061065c5761065b6137a7565b5b906000526020600020906008020160050160149054906101000a900460ff161515815260200184600e018381548110610698576106976137a7565b5b906000526020600020906008020160060180548060200260200160405190810160405280929190818152602001828054801561072957602002820191906000526020600020905b8160009054906101000a900473ffffffffffffffffffffffffffffffffffffffff1673ffffffffffffffffffffffffffffffffffffffff16815260200190600101908083116106df575b5050505050815260200184600e018381548110610749576107486137a7565b5b906000526020600020906008020160070160009054906101000a900460ff16600281111561077a57610779612f2a565b5b8152508282815181106107905761078f6137a7565b5b602002602001018190525080806001019150506103c8565b50809250505090565b6107b9612b78565b60006107c36128cb565b905080600501600084815260200190815260200160002060050160149054906101000a900460ff1661082a576040517f08c379a000000000000000000000000000000000000000000000000000000000815260040161082190613893565b60405180910390fd5b806005016000848152602001908152602001600020604051806101200160405290816000820154815260200160018201805461086590613805565b80601f016020809104026020016040519081016040528092919081815260200182805461089190613805565b80156108de5780601f106108b3576101008083540402835291602001916108de565b820191906000526020600020905b8154815290600101906020018083116108c157829003601f168201915b505050505081526020016002820180546108f790613805565b80601f016020809104026020016040519081016040528092919081815260200182805461092390613805565b80156109705780601f1061094557610100808354040283529160200191610970565b820191906000526020600020905b81548152906001019060200180831161095357829003601f168201915b505050505081526020016003820160009054906101000a900460ff16151515158152602001600482015481526020016005820160009054906101000a900473ffffffffffffffffffffffffffffffffffffffff1673ffffffffffffffffffffffffffffffffffffffff1673ffffffffffffffffffffffffffffffffffffffff1681526020016005820160149054906101000a900460ff1615151515815260200160068201805480602002602001604051908101604052809291908181526020018280548015610a9457602002820191906000526020600020905b8160009054906101000a900473ffffffffffffffffffffffffffffffffffffffff1673ffffffffffffffffffffffffffffffffffffffff1681526020019060010190808311610a4a575b505050505081526020016007820160009054906101000a900460ff166002811115610ac257610ac1612f2a565b5b6002811115610ad457610ad3612f2a565b5b81525050915050919050565b7fc10c77be35aff266144ed64c26a1fa104bae2f284ae99ac4a34203454704a1856000610b0b6128f8565b905080600c01600083815260200190815260200160002060003373ffffffffffffffffffffffffffffffffffffffff1673ffffffffffffffffffffffffffffffffffffffff16815260200190815260200160002060009054906101000a900460ff16610bac576040517f08c379a0000000000000000000000000000000000000000000000000000000008152600401610ba390613925565b60405180910390fd5b6000610bb66128cb565b905080600501600086815260200190815260200160002060050160149054906101000a900460ff16610c1d576040517f08c379a0000000000000000000000000000000000000000000000000000000008152600401610c1490613893565b60405180910390fd5b600081600b0160008781526020019081526020016000208054905011610c78576040517f08c379a0000000000000000000000000000000000000000000000000000000008152600401610c6f906139b7565b60405180910390fd5b610c828533612925565b610cc1576040517f08c379a0000000000000000000000000000000000000000000000000000000008152600401610cb890613a23565b60405180910390fd5b80600601600086815260200190815260200160002060003373ffffffffffffffffffffffffffffffffffffffff1673ffffffffffffffffffffffffffffffffffffffff168152602001908152602001600020600a0160009054906101000a900460ff1615610d64576040517f08c379a0000000000000000000000000000000000000000000000000000000008152600401610d5b90613a8f565b60405180910390fd5b600a8014610da7576040517f08c379a0000000000000000000000000000000000000000000000000000000008152600401610d9e90613b21565b60405180910390fd5b60005b600a811015610e3e57600a8582600a8110610dc857610dc76137a7565b5b602002015111158015610df2575060008582600a8110610deb57610dea6137a7565b5b6020020151115b610e31576040517f08c379a0000000000000000000000000000000000000000000000000000000008152600401610e2890613b8d565b60405180910390fd5b8080600101915050610daa565b50600081600601600087815260200190815260200160002060003373ffffffffffffffffffffffffffffffffffffffff1673ffffffffffffffffffffffffffffffffffffffff1681526020019081526020016000209050846000600a8110610ea957610ea86137a7565b5b60200201518160000181905550846001600a8110610eca57610ec96137a7565b5b60200201518160010181905550846002600a8110610eeb57610eea6137a7565b5b60200201518160020181905550846003600a8110610f0c57610f0b6137a7565b5b60200201518160030181905550846004600a8110610f2d57610f2c6137a7565b5b60200201518160040181905550846005600a8110610f4e57610f4d6137a7565b5b60200201518160050181905550846006600a8110610f6f57610f6e6137a7565b5b60200201518160060181905550846007600a8110610f9057610f8f6137a7565b5b60200201518160070181905550846008600a8110610fb157610fb06137a7565b5b60200201518160080181905550846009600a8110610fd257610fd16137a7565b5b60200201518160090181905550600181600a0160006101000a81548160ff02191690831515021790555081600a0160008781526020019081526020016000208190806001815401808255809150506001900390600052602060002090600b020160009091909190915060008201548160000155600182015481600101556002820154816002015560038201548160030155600482015481600401556005820154816005015560068201548160060155600782015481600701556008820154816008015560098201548160090155600a820160009054906101000a900460ff1681600a0160006101000a81548160ff0219169083151502179055505050857f049c6bc670988ed0fe782ccafb4e8cf96eb4fed5e99f7ba5b64d9bb782107077336040516110fe9190613bbc565b60405180910390a26000611111826129f1565b90506050811061112557611124876113f4565b5b50505050505050565b6000806111396128f8565b905080600c01600084815260200190815260200160002060008573ffffffffffffffffffffffffffffffffffffffff1673ffffffffffffffffffffffffffffffffffffffff16815260200190815260200160002060009054906101000a900460ff1691505092915050565b6000806111af6128cb565b9050806003018054905091505090565b6000806111ca6128f8565b905080600c0160007fadb22091b155738d2e889eb96f509d2a7c93234236b30400927feb4a6a15ab00815260200190815260200160002060008473ffffffffffffffffffffffffffffffffffffffff1673ffffffffffffffffffffffffffffffffffffffff16815260200190815260200160002060009054906101000a900460ff16915050919050565b60007fadb22091b155738d2e889eb96f509d2a7c93234236b30400927feb4a6a15ab0060006112816128f8565b905080600c01600083815260200190815260200160002060003373ffffffffffffffffffffffffffffffffffffffff1673ffffffffffffffffffffffffffffffffffffffff16815260200190815260200160002060009054906101000a900460ff16611322576040517f08c379a000000000000000000000000000000000000000000000000000000000815260040161131990613925565b60405180910390fd5b600061132c6128cb565b905060008160050160008881526020019081526020016000206000015403611389576040517f08c379a000000000000000000000000000000000000000000000000000000000815260040161138090613893565b60405180910390fd5b8481600501600088815260200190815260200160002060010190816113ae9190613d83565b50857f5c8c98b6b26236296c856fae8a5ca0c793bbb81c5f8b7c9a9ab99358f53fb0c0866040516113df9190613e8e565b60405180910390a26001935050505092915050565b7fc10c77be35aff266144ed64c26a1fa104bae2f284ae99ac4a34203454704a185600061141f6128f8565b905080600c01600083815260200190815260200160002060003373ffffffffffffffffffffffffffffffffffffffff1673ffffffffffffffffffffffffffffffffffffffff16815260200190815260200160002060009054906101000a900460ff166114c0576040517f08c379a00000000000000000000000000000000000000000000000000000000081526004016114b790613925565b60405180910390fd5b60006114ca6128cb565b9050600081600901600086815260200190815260200160002090508060030160009054906101000a900460ff1615611537576040517f08c379a000000000000000000000000000000000000000000000000000000000815260040161152e90613efc565b60405180910390fd5b81600d01600086815260200190815260200160002060003373ffffffffffffffffffffffffffffffffffffffff1673ffffffffffffffffffffffffffffffffffffffff16815260200190815260200160002060009054906101000a900460ff16156115d7576040517f08c379a00000000000000000000000000000000000000000000000000000000081526004016115ce90613f68565b60405180910390fd5b600182600d01600087815260200190815260200160002060003373ffffffffffffffffffffffffffffffffffffffff1673ffffffffffffffffffffffffffffffffffffffff16815260200190815260200160002060006101000a81548160ff02191690831515021790555080600401600081548092919061165790613fb7565b919050555060028160040154106116c25760018160030160006101000a81548160ff021916908315150217905550847fbcfbdd19bcb0c6ac01ca9ac647b43defbbf1a1c1df54bb29041dfb09ffb31efa82600401546040516116b991906134e0565b60405180910390a25b5050505050565b6000806116d46128cb565b90508060050160008260020154815260200190815260200160002060050160149054906101000a900460ff1615611740576040517f08c379a00000000000000000000000000000000000000000000000000000000081526004016117379061404b565b60405180910390fd5b600060405180610120016040528083600201548152602001878152602001868152602001600015158152602001600081526020013373ffffffffffffffffffffffffffffffffffffffff168152602001600115158152602001600067ffffffffffffffff8111156117b4576117b3613293565b5b6040519080825280602002602001820160405280156117e25781602001602082028036833780820191505090505b5081526020018560028111156117fb576117fa612f2a565b5b815250905080826005016000846002015481526020019081526020016000206000820151816000015560208201518160010190816118399190613d83565b50604082015181600201908161184f9190613d83565b5060608201518160030160006101000a81548160ff0219169083151502179055506080820151816004015560a08201518160050160006101000a81548173ffffffffffffffffffffffffffffffffffffffff021916908373ffffffffffffffffffffffffffffffffffffffff16021790555060c08201518160050160146101000a81548160ff02191690831515021790555060e08201518160060190805190602001906118fd929190612bf0565b506101008201518160070160006101000a81548160ff0219169083600281111561192a57611929612f2a565b5b021790555090505081600e0181908060018154018082558091505060019003906000526020600020906008020160009091909190915060008201518160000155602082015181600101908161197f9190613d83565b5060408201518160020190816119959190613d83565b5060608201518160030160006101000a81548160ff0219169083151502179055506080820151816004015560a08201518160050160006101000a81548173ffffffffffffffffffffffffffffffffffffffff021916908373ffffffffffffffffffffffffffffffffffffffff16021790555060c08201518160050160146101000a81548160ff02191690831515021790555060e0820151816006019080519060200190611a43929190612bf0565b506101008201518160070160006101000a81548160ff02191690836002811115611a7057611a6f612f2a565b5b02179055505050816001016000815480929190611a8c90613fb7565b919050555060018260070160003373ffffffffffffffffffffffffffffffffffffffff1673ffffffffffffffffffffffffffffffffffffffff1681526020019081526020016000206000016000828254611ae6919061406b565b92505081905550611b177fadb22091b155738d2e889eb96f509d2a7c93234236b30400927feb4a6a15ab0033612a86565b6000611b437fadb22091b155738d2e889eb96f509d2a7c93234236b30400927feb4a6a15ab0033612b02565b905080611b85576040517f08c379a0000000000000000000000000000000000000000000000000000000008152600401611b7c90614111565b60405180910390fd5b7f1fc3c915a961e15ecb336b79577e7d9e3e6a15f024fc98418ce8875699a37026337fadb22091b155738d2e889eb96f509d2a7c93234236b30400927feb4a6a15ab0083604051611bd893929190614140565b60405180910390a1826002016000815480929190611bf590613fb7565b919050555086604051611c0891906141b3565b604051809103902060018460020154611c2191906141ca565b7f9c93a42b217373d37e6c66ace0a67fe1fa1f78c93164b62417de69c48c0f67e26000604051611c5191906134b6565b60405180910390a3600193505050509392505050565b7fadb22091b155738d2e889eb96f509d2a7c93234236b30400927feb4a6a15ab006000611c926128f8565b905080600c01600083815260200190815260200160002060003373ffffffffffffffffffffffffffffffffffffffff1673ffffffffffffffffffffffffffffffffffffffff16815260200190815260200160002060009054906101000a900460ff16611d33576040517f08c379a0000000000000000000000000000000000000000000000000000000008152600401611d2a90613925565b60405180910390fd5b6000611d3d6128cb565b905080600501600085815260200190815260200160002060050160149054906101000a900460ff16611da4576040517f08c379a0000000000000000000000000000000000000000000000000000000008152600401611d9b90613893565b60405180910390fd5b3373ffffffffffffffffffffffffffffffffffffffff1681600501600086815260200190815260200160002060050160009054906101000a900473ffffffffffffffffffffffffffffffffffffffff1673ffffffffffffffffffffffffffffffffffffffff1614611e4a576040517f08c379a0000000000000000000000000000000000000000000000000000000008152600401611e4190614270565b60405180910390fd5b600081600b0160008681526020019081526020016000208054905014611ea5576040517f08c379a0000000000000000000000000000000000000000000000000000000008152600401611e9c906142dc565b60405180910390fd5b600381600301805490501015611ef0576040517f08c379a0000000000000000000000000000000000000000000000000000000008152600401611ee790614348565b60405180910390fd5b60008060028360030180549050611f079190614368565b905060008084600d01600089815260200190815260200160002090505b600384108015611f3357508282105b15612176578180611f4390613fb7565b9250506000856003018054905042443386604051602001611f679493929190614413565b6040516020818303038152906040528051906020012060001c611f8a9190614490565b90506000866003018281548110611fa457611fa36137a7565b5b9060005260206000200160009054906101000a900473ffffffffffffffffffffffffffffffffffffffff1690508260008273ffffffffffffffffffffffffffffffffffffffff1673ffffffffffffffffffffffffffffffffffffffff16815260200190815260200160002060009054906101000a900460ff1615801561208e57508660050160008b815260200190815260200160002060050160009054906101000a900473ffffffffffffffffffffffffffffffffffffffff1673ffffffffffffffffffffffffffffffffffffffff168173ffffffffffffffffffffffffffffffffffffffff1614155b1561216f5786600b0160008b8152602001908152602001600020819080600181540180825580915050600190039060005260206000200160009091909190916101000a81548173ffffffffffffffffffffffffffffffffffffffff021916908373ffffffffffffffffffffffffffffffffffffffff16021790555060018360008373ffffffffffffffffffffffffffffffffffffffff1673ffffffffffffffffffffffffffffffffffffffff16815260200190815260200160002060006101000a81548160ff021916908315150217905550858061216b90613fb7565b9650505b5050611f24565b600384146121b9576040517f08c379a00000000000000000000000000000000000000000000000000000000081526004016121b090614533565b60405180910390fd5b877f4b8fdabac7f3012213d917c1ab7ed9ad12ca775fadd33741c49237b3e649e27d86600b0160008b81526020019081526020016000206040516121fd919061463f565b60405180910390a25050505050505050565b60007fadb22091b155738d2e889eb96f509d2a7c93234236b30400927feb4a6a15ab00600061223c6128f8565b905080600c01600083815260200190815260200160002060003373ffffffffffffffffffffffffffffffffffffffff1673ffffffffffffffffffffffffffffffffffffffff16815260200190815260200160002060009054906101000a900460ff166122dd576040517f08c379a00000000000000000000000000000000000000000000000000000000081526004016122d490613925565b60405180910390fd5b60006122e76128cb565b905060008160050160008781526020019081526020016000206000015403612344576040517f08c379a000000000000000000000000000000000000000000000000000000000815260040161233b906146ad565b60405180910390fd5b60005b81600e01805490508111612618578582600e01828154811061236c5761236b6137a7565b5b906000526020600020906008020160000154036126055781600e01600183600e018054905061239b91906141ca565b815481106123ac576123ab6137a7565b5b906000526020600020906008020182600e0182815481106123d0576123cf6137a7565b5b906000526020600020906008020160008201548160000155600182018160010190816123fc91906146e3565b506002820181600201908161241191906146e3565b506003820160009054906101000a900460ff168160030160006101000a81548160ff021916908315150217905550600482015481600401556005820160009054906101000a900473ffffffffffffffffffffffffffffffffffffffff168160050160006101000a81548173ffffffffffffffffffffffffffffffffffffffff021916908373ffffffffffffffffffffffffffffffffffffffff1602179055506005820160149054906101000a900460ff168160050160146101000a81548160ff02191690831515021790555060068201816006019080546124f3929190612c7a565b506007820160009054906101000a900460ff168160070160006101000a81548160ff0219169083600281111561252c5761252b612f2a565b5b021790555090505081600e01805480612548576125476147cb565b5b60019003818190600052602060002090600802016000808201600090556001820160006125759190612ccc565b6002820160006125859190612ccc565b6003820160006101000a81549060ff021916905560048201600090556005820160006101000a81549073ffffffffffffffffffffffffffffffffffffffff02191690556005820160146101000a81549060ff02191690556006820160006125ec9190612d0c565b6007820160006101000a81549060ff0219169055505090555b808061261090613fb7565b915050612347565b508060050160008681526020019081526020016000206000808201600090556001820160006126479190612ccc565b6002820160006126579190612ccc565b6003820160006101000a81549060ff021916905560048201600090556005820160006101000a81549073ffffffffffffffffffffffffffffffffffffffff02191690556005820160146101000a81549060ff02191690556006820160006126be9190612d0c565b6007820160006101000a81549060ff02191690555050847f50d94198096be9c8aad282f822173f9212251c4d4dc2731fa944f3941749a78d336040516127049190613bbc565b60405180910390a260019350505050919050565b6000806127236128f8565b905080600c01600084815260200190815260200160002060003373ffffffffffffffffffffffffffffffffffffffff1673ffffffffffffffffffffffffffffffffffffffff16815260200190815260200160002060009054906101000a900460ff16915050919050565b6000806127986128f8565b905080600c01600084815260200190815260200160002060008573ffffffffffffffffffffffffffffffffffffffff1673ffffffffffffffffffffffffffffffffffffffff16815260200190815260200160002060009054906101000a900460ff1691505092915050565b6060600061280f6128cb565b905080600b0160008481526020019081526020016000208054806020026020016040519081016040528092919081815260200182805480156128a657602002820191906000526020600020905b8160009054906101000a900473ffffffffffffffffffffffffffffffffffffffff1673ffffffffffffffffffffffffffffffffffffffff168152602001906001019080831161285c575b5050505050915050919050565b6000806128be6128cb565b9050806000015491505090565b6000807f5d9ab6191fe9d5041816fb24ec4281e2d3989236339577e7fbbaf91315a1bb7190508091505090565b6000807fc8fcad8db84d3cc18b4c41d551ea0ee66dd599cde068d998e57d5e09332c131c90508091505090565b6000806129306128cb565b9050600081600b016000868152602001908152602001600020905060005b81805490508110156129e3578473ffffffffffffffffffffffffffffffffffffffff16828281548110612984576129836137a7565b5b9060005260206000200160009054906101000a900473ffffffffffffffffffffffffffffffffffffffff1673ffffffffffffffffffffffffffffffffffffffff16036129d657600193505050506129eb565b808060010191505061294e565b506000925050505b92915050565b60008160090154826008015483600701548460060154856005015486600401548760030154886002015489600101548a60000154612a2f919061406b565b612a39919061406b565b612a43919061406b565b612a4d919061406b565b612a57919061406b565b612a61919061406b565b612a6b919061406b565b612a75919061406b565b612a7f919061406b565b9050919050565b6000612a906128f8565b9050600181600c01600085815260200190815260200160002060008473ffffffffffffffffffffffffffffffffffffffff1673ffffffffffffffffffffffffffffffffffffffff16815260200190815260200160002060006101000a81548160ff021916908315150217905550505050565b600080612b0d6128f8565b905080600c01600085815260200190815260200160002060008473ffffffffffffffffffffffffffffffffffffffff1673ffffffffffffffffffffffffffffffffffffffff16815260200190815260200160002060009054906101000a900460ff1691505092915050565b60405180610120016040528060008152602001606081526020016060815260200160001515815260200160008152602001600073ffffffffffffffffffffffffffffffffffffffff1681526020016000151581526020016060815260200160006002811115612bea57612be9612f2a565b5b81525090565b828054828255906000526020600020908101928215612c69579160200282015b82811115612c685782518260006101000a81548173ffffffffffffffffffffffffffffffffffffffff021916908373ffffffffffffffffffffffffffffffffffffffff16021790555091602001919060010190612c10565b5b509050612c769190612d2d565b5090565b828054828255906000526020600020908101928215612cbb5760005260206000209182015b82811115612cba578254825591600101919060010190612c9f565b5b509050612cc89190612d2d565b5090565b508054612cd890613805565b6000825580601f10612cea5750612d09565b601f016020900490600052602060002090810190612d089190612d2d565b5b50565b5080546000825590600052602060002090810190612d2a9190612d2d565b50565b5b80821115612d46576000816000905550600101612d2e565b5090565b600081519050919050565b600082825260208201905092915050565b6000819050602082019050919050565b6000819050919050565b612d8981612d76565b82525050565b600081519050919050565b600082825260208201905092915050565b60005b83811015612dc9578082015181840152602081019050612dae565b60008484015250505050565b6000601f19601f8301169050919050565b6000612df182612d8f565b612dfb8185612d9a565b9350612e0b818560208601612dab565b612e1481612dd5565b840191505092915050565b60008115159050919050565b612e3481612e1f565b82525050565b600073ffffffffffffffffffffffffffffffffffffffff82169050919050565b6000612e6582612e3a565b9050919050565b612e7581612e5a565b82525050565b600081519050919050565b600082825260208201905092915050565b6000819050602082019050919050565b6000612eb38383612e6c565b60208301905092915050565b6000602082019050919050565b6000612ed782612e7b565b612ee18185612e86565b9350612eec83612e97565b8060005b83811015612f1d578151612f048882612ea7565b9750612f0f83612ebf565b925050600181019050612ef0565b5085935050505092915050565b7f4e487b7100000000000000000000000000000000000000000000000000000000600052602160045260246000fd5b60038110612f6a57612f69612f2a565b5b50565b6000819050612f7b82612f59565b919050565b6000612f8b82612f6d565b9050919050565b612f9b81612f80565b82525050565b600061012083016000830151612fba6000860182612d80565b5060208301518482036020860152612fd28282612de6565b91505060408301518482036040860152612fec8282612de6565b91505060608301516130016060860182612e2b565b5060808301516130146080860182612d80565b5060a083015161302760a0860182612e6c565b5060c083015161303a60c0860182612e2b565b5060e083015184820360e08601526130528282612ecc565b915050610100830151613069610100860182612f92565b508091505092915050565b60006130808383612fa1565b905092915050565b6000602082019050919050565b60006130a082612d4a565b6130aa8185612d55565b9350836020820285016130bc85612d66565b8060005b858110156130f857848403895281516130d98582613074565b94506130e483613088565b925060208a019950506001810190506130c0565b50829750879550505050505092915050565b600060208201905081810360008301526131248184613095565b905092915050565b6000604051905090565b600080fd5b600080fd5b61314981612d76565b811461315457600080fd5b50565b60008135905061316681613140565b92915050565b60006020828403121561318257613181613136565b5b600061319084828501613157565b91505092915050565b6000610120830160008301516131b26000860182612d80565b50602083015184820360208601526131ca8282612de6565b915050604083015184820360408601526131e48282612de6565b91505060608301516131f96060860182612e2b565b50608083015161320c6080860182612d80565b5060a083015161321f60a0860182612e6c565b5060c083015161323260c0860182612e2b565b5060e083015184820360e086015261324a8282612ecc565b915050610100830151613261610100860182612f92565b508091505092915050565b600060208201905081810360008301526132868184613199565b905092915050565b600080fd5b7f4e487b7100000000000000000000000000000000000000000000000000000000600052604160045260246000fd5b6132cb82612dd5565b810181811067ffffffffffffffff821117156132ea576132e9613293565b5b80604052505050565b60006132fd61312c565b905061330982826132c2565b919050565b600067ffffffffffffffff82111561332957613328613293565b5b602082029050919050565b600080fd5b600061334c6133478461330e565b6132f3565b9050806020840283018581111561336657613365613334565b5b835b8181101561338f578061337b8882613157565b845260208401935050602081019050613368565b5050509392505050565b600082601f8301126133ae576133ad61328e565b5b600a6133bb848285613339565b91505092915050565b60008061016083850312156133dc576133db613136565b5b60006133ea85828601613157565b92505060206133fb85828601613399565b9150509250929050565b61340e81612e5a565b811461341957600080fd5b50565b60008135905061342b81613405565b92915050565b6000819050919050565b61344481613431565b811461344f57600080fd5b50565b6000813590506134618161343b565b92915050565b6000806040838503121561347e5761347d613136565b5b600061348c8582860161341c565b925050602061349d85828601613452565b9150509250929050565b6134b081612e1f565b82525050565b60006020820190506134cb60008301846134a7565b92915050565b6134da81612d76565b82525050565b60006020820190506134f560008301846134d1565b92915050565b60006020828403121561351157613510613136565b5b600061351f8482850161341c565b91505092915050565b600080fd5b600067ffffffffffffffff82111561354857613547613293565b5b61355182612dd5565b9050602081019050919050565b82818337600083830152505050565b600061358061357b8461352d565b6132f3565b90508281526020810184848401111561359c5761359b613528565b5b6135a784828561355e565b509392505050565b600082601f8301126135c4576135c361328e565b5b81356135d484826020860161356d565b91505092915050565b600080604083850312156135f4576135f3613136565b5b600061360285828601613157565b925050602083013567ffffffffffffffff8111156136235761362261313b565b5b61362f858286016135af565b9150509250929050565b6003811061364657600080fd5b50565b60008135905061365881613639565b92915050565b60008060006060848603121561367757613676613136565b5b600084013567ffffffffffffffff8111156136955761369461313b565b5b6136a1868287016135af565b935050602084013567ffffffffffffffff8111156136c2576136c161313b565b5b6136ce868287016135af565b92505060406136df86828701613649565b9150509250925092565b6000602082840312156136ff576136fe613136565b5b600061370d84828501613452565b91505092915050565b600082825260208201905092915050565b600061373282612e7b565b61373c8185613716565b935061374783612e97565b8060005b8381101561377857815161375f8882612ea7565b975061376a83612ebf565b92505060018101905061374b565b5085935050505092915050565b6000602082019050818103600083015261379f8184613727565b905092915050565b7f4e487b7100000000000000000000000000000000000000000000000000000000600052603260045260246000fd5b7f4e487b7100000000000000000000000000000000000000000000000000000000600052602260045260246000fd5b6000600282049050600182168061381d57607f821691505b6020821081036138305761382f6137d6565b5b50919050565b600082825260208201905092915050565b7f436f7572736520646f6573206e6f742065786973740000000000000000000000600082015250565b600061387d601583613836565b915061388882613847565b602082019050919050565b600060208201905081810360008301526138ac81613870565b9050919050565b7f43616c6c657220646f6573206e6f74206861766520726571756972656420726f60008201527f6c65000000000000000000000000000000000000000000000000000000000000602082015250565b600061390f602283613836565b915061391a826138b3565b604082019050919050565b6000602082019050818103600083015261393e81613902565b9050919050565b7f4e6f207265766965776572732061737369676e656420746f207468697320636f60008201527f7572736500000000000000000000000000000000000000000000000000000000602082015250565b60006139a1602483613836565b91506139ac82613945565b604082019050919050565b600060208201905081810360008301526139d081613994565b9050919050565b7f4e6f74206120726576696577657220666f72207468697320636f757273650000600082015250565b6000613a0d601e83613836565b9150613a18826139d7565b602082019050919050565b60006020820190508181036000830152613a3c81613a00565b9050919050565b7f52657669657720616c7265616479207375626d69747465640000000000000000600082015250565b6000613a79601883613836565b9150613a8482613a43565b602082019050919050565b60006020820190508181036000830152613aa881613a6c565b9050919050565b7f53636f726573206172726179206d757374206861766520313020656c656d656e60008201527f7473000000000000000000000000000000000000000000000000000000000000602082015250565b6000613b0b602283613836565b9150613b1682613aaf565b604082019050919050565b60006020820190508181036000830152613b3a81613afe565b9050919050565b7f53636f726573206d757374206265206265747765656e203120616e6420313000600082015250565b6000613b77601f83613836565b9150613b8282613b41565b602082019050919050565b60006020820190508181036000830152613ba681613b6a565b9050919050565b613bb681612e5a565b82525050565b6000602082019050613bd16000830184613bad565b92915050565b60008190508160005260206000209050919050565b60006020601f8301049050919050565b600082821b905092915050565b600060088302613c397fffffffffffffffffffffffffffffffffffffffffffffffffffffffffffffffff82613bfc565b613c438683613bfc565b95508019841693508086168417925050509392505050565b6000819050919050565b6000613c80613c7b613c7684612d76565b613c5b565b612d76565b9050919050565b6000819050919050565b613c9a83613c65565b613cae613ca682613c87565b848454613c09565b825550505050565b600090565b613cc3613cb6565b613cce818484613c91565b505050565b5b81811015613cf257613ce7600082613cbb565b600181019050613cd4565b5050565b601f821115613d3757613d0881613bd7565b613d1184613bec565b81016020851015613d20578190505b613d34613d2c85613bec565b830182613cd3565b50505b505050565b600082821c905092915050565b6000613d5a60001984600802613d3c565b1980831691505092915050565b6000613d738383613d49565b9150826002028217905092915050565b613d8c82612d8f565b67ffffffffffffffff811115613da557613da4613293565b5b613daf8254613805565b613dba828285613cf6565b600060209050601f831160018114613ded5760008415613ddb578287015190505b613de58582613d67565b865550613e4d565b601f198416613dfb86613bd7565b60005b82811015613e2357848901518255600182019150602085019450602081019050613dfe565b86831015613e405784890151613e3c601f891682613d49565b8355505b6001600288020188555050505b505050505050565b6000613e6082612d8f565b613e6a8185613836565b9350613e7a818560208601612dab565b613e8381612dd5565b840191505092915050565b60006020820190508181036000830152613ea88184613e55565b905092915050565b7f436f7572736520616c726561647920617070726f766564000000000000000000600082015250565b6000613ee6601783613836565b9150613ef182613eb0565b602082019050919050565b60006020820190508181036000830152613f1581613ed9565b9050919050565b7f416c726561647920617070726f76656400000000000000000000000000000000600082015250565b6000613f52601083613836565b9150613f5d82613f1c565b602082019050919050565b60006020820190508181036000830152613f8181613f45565b9050919050565b7f4e487b7100000000000000000000000000000000000000000000000000000000600052601160045260246000fd5b6000613fc282612d76565b91507fffffffffffffffffffffffffffffffffffffffffffffffffffffffffffffffff8203613ff457613ff3613f88565b5b600182019050919050565b7f436f7572736520616c7265616479206578697374730000000000000000000000600082015250565b6000614035601583613836565b915061404082613fff565b602082019050919050565b6000602082019050818103600083015261406481614028565b9050919050565b600061407682612d76565b915061408183612d76565b925082820190508082111561409957614098613f88565b5b92915050565b7f4661696c656420746f206772616e7420434f555253455f4f574e45525f524f4c60008201527f4500000000000000000000000000000000000000000000000000000000000000602082015250565b60006140fb602183613836565b91506141068261409f565b604082019050919050565b6000602082019050818103600083015261412a816140ee565b9050919050565b61413a81613431565b82525050565b60006060820190506141556000830186613bad565b6141626020830185614131565b61416f60408301846134a7565b949350505050565b600081905092915050565b600061418d82612d8f565b6141978185614177565b93506141a7818560208601612dab565b80840191505092915050565b60006141bf8284614182565b915081905092915050565b60006141d582612d76565b91506141e083612d76565b92508282039050818111156141f8576141f7613f88565b5b92915050565b7f4f6e6c7920636f757273652063726561746f722063616e2073656c656374207260008201527f6576696577657273000000000000000000000000000000000000000000000000602082015250565b600061425a602883613836565b9150614265826141fe565b604082019050919050565b600060208201905081810360008301526142898161424d565b9050919050565b7f52657669657765727320616c72656164792073656c6563746564000000000000600082015250565b60006142c6601a83613836565b91506142d182614290565b602082019050919050565b600060208201905081810360008301526142f5816142b9565b9050919050565b7f4e6f7420656e6f7567682072657669657765727320696e2074686520706f6f6c600082015250565b6000614332602083613836565b915061433d826142fc565b602082019050919050565b6000602082019050818103600083015261436181614325565b9050919050565b600061437382612d76565b915061437e83612d76565b925082820261438c81612d76565b915082820484148315176143a3576143a2613f88565b5b5092915050565b6000819050919050565b6143c56143c082612d76565b6143aa565b82525050565b60008160601b9050919050565b60006143e3826143cb565b9050919050565b60006143f5826143d8565b9050919050565b61440d61440882612e5a565b6143ea565b82525050565b600061441f82876143b4565b60208201915061442f82866143b4565b60208201915061443f82856143fc565b60148201915061444f82846143b4565b60208201915081905095945050505050565b7f4e487b7100000000000000000000000000000000000000000000000000000000600052601260045260246000fd5b600061449b82612d76565b91506144a683612d76565b9250826144b6576144b5614461565b5b828206905092915050565b7f4661696c656420746f2073656c65637420656e6f75676820756e69717565207260008201527f6576696577657273000000000000000000000000000000000000000000000000602082015250565b600061451d602883613836565b9150614528826144c1565b604082019050919050565b6000602082019050818103600083015261454c81614510565b9050919050565b600081549050919050565b60008190508160005260206000209050919050565b60008160001c9050919050565b600073ffffffffffffffffffffffffffffffffffffffff82169050919050565b60006145b36145ae83614573565b614580565b9050919050565b60006145c682546145a0565b9050919050565b6000600182019050919050565b60006145e582614553565b6145ef8185613716565b93506145fa8361455e565b8060005b838110156146325761460f826145ba565b6146198882612ea7565b9750614624836145cd565b9250506001810190506145fe565b5085935050505092915050565b6000602082019050818103600083015261465981846145da565b905092915050565b7f436f7572736520646f65736e2774206578697374210000000000000000000000600082015250565b6000614697601583613836565b91506146a282614661565b602082019050919050565b600060208201905081810360008301526146c68161468a565b9050919050565b6000815490506146dc81613805565b9050919050565b8181036146f15750506147c9565b6146fa826146cd565b67ffffffffffffffff81111561471357614712613293565b5b61471d8254613805565b614728828285613cf6565b6000601f8311600181146147575760008415614745578287015490505b61474f8582613d67565b8655506147c2565b601f19841661476587613bd7565b965061477086613bd7565b60005b8281101561479857848901548255600182019150600185019450602081019050614773565b868310156147b557848901546147b1601f891682613d49565b8355505b6001600288020188555050505b5050505050505b565b7f4e487b7100000000000000000000000000000000000000000000000000000000600052603160045260246000fdfea2646970667358221220ccd07e1bf5b9bd4574ea9aa8b16e5f959b461e5f5912428146bd9b0811b5c31464736f6c634300081b0033",
  "linkReferences": {},
  "deployedLinkReferences": {}
}