{
  "_format": "hh-sol-artifact-1",
  "contractName": "Ecosystem3Facet",
  "sourceName": "contracts/Ecosystem3Facet.sol",
  "abi": [
    {
      "inputs": [],
      "name": "ReentrancyGuardReentrantCall",
      "type": "error"
    },
    {
      "anonymous": false,
      "inputs": [
        {
          "indexed": false,
          "internalType": "uint256",
          "name": "certificateId",
          "type": "uint256"
        },
        {
          "indexed": false,
          "internalType": "string",
          "name": "courseName",
          "type": "string"
        },
        {
          "indexed": false,
          "internalType": "string",
          "name": "cert_issuer",
          "type": "string"
        },
        {
          "indexed": false,
          "internalType": "string",
          "name": "learner",
          "type": "string"
        }
      ],
      "name": "CertificateIssued",
      "type": "event"
    },
    {
      "anonymous": false,
      "inputs": [
        {
          "indexed": true,
          "internalType": "uint256",
          "name": "_courseId",
          "type": "uint256"
        },
        {
          "indexed": true,
          "internalType": "uint256",
          "name": "_chaterId",
          "type": "uint256"
        }
      ],
      "name": "ChapterDeletedSuccess",
      "type": "event"
    },
    {
      "anonymous": false,
      "inputs": [
        {
          "indexed": true,
          "internalType": "uint256",
          "name": "_courseId",
          "type": "uint256"
        },
        {
          "indexed": true,
          "internalType": "uint256",
          "name": "_chapterId",
          "type": "uint256"
        },
        {
          "indexed": false,
          "internalType": "string",
          "name": "_chapterName",
          "type": "string"
        }
      ],
      "name": "ChapterEdited",
      "type": "event"
    },
    {
      "anonymous": false,
      "inputs": [
        {
          "indexed": true,
          "internalType": "uint256",
          "name": "_courseId",
          "type": "uint256"
        },
        {
          "indexed": false,
          "internalType": "address",
          "name": "owner",
          "type": "address"
        }
      ],
      "name": "CourseDeleteSuccess",
      "type": "event"
    },
    {
      "anonymous": false,
      "inputs": [
        {
          "indexed": true,
          "internalType": "uint256",
          "name": "_courseId",
          "type": "uint256"
        },
        {
          "indexed": false,
          "internalType": "string",
          "name": "_courseName",
          "type": "string"
        }
      ],
      "name": "CourseEdited",
      "type": "event"
    },
    {
      "anonymous": false,
      "inputs": [
        {
          "indexed": true,
          "internalType": "address",
          "name": "_to",
          "type": "address"
        },
        {
          "indexed": true,
          "internalType": "uint256",
          "name": "_amount",
          "type": "uint256"
        }
      ],
      "name": "EcosystemPoolUpdate",
      "type": "event"
    },
    {
      "anonymous": false,
      "inputs": [
        {
          "indexed": true,
          "internalType": "uint256",
          "name": "_chapterId",
          "type": "uint256"
        },
        {
          "indexed": true,
          "internalType": "uint256",
          "name": "_lessonId",
          "type": "uint256"
        }
      ],
      "name": "LessonDeleted",
      "type": "event"
    },
    {
      "anonymous": false,
      "inputs": [
        {
          "indexed": true,
          "internalType": "uint256",
          "name": "_lessonId",
          "type": "uint256"
        },
        {
          "indexed": false,
          "internalType": "string",
          "name": "_lessonName",
          "type": "string"
        }
      ],
      "name": "LessonEdited",
      "type": "event"
    },
    {
      "anonymous": false,
      "inputs": [
        {
          "indexed": true,
          "internalType": "uint256",
          "name": "_quizId",
          "type": "uint256"
        },
        {
          "indexed": true,
          "internalType": "uint256",
          "name": "_questionId",
          "type": "uint256"
        }
      ],
      "name": "QuestionDeleted",
      "type": "event"
    },
    {
      "anonymous": false,
      "inputs": [
        {
          "indexed": true,
          "internalType": "uint256",
          "name": "_lessonId",
          "type": "uint256"
        },
        {
          "indexed": true,
          "internalType": "uint256",
          "name": "_quizId",
          "type": "uint256"
        }
      ],
      "name": "QuizDeleted",
      "type": "event"
    },
    {
      "anonymous": false,
      "inputs": [
        {
          "indexed": true,
          "internalType": "uint256",
          "name": "_lessonId",
          "type": "uint256"
        },
        {
          "indexed": true,
          "internalType": "uint256",
          "name": "_quizId",
          "type": "uint256"
        },
        {
          "indexed": false,
          "internalType": "string",
          "name": "_quizTitle",
          "type": "string"
        }
      ],
      "name": "QuizEdited",
      "type": "event"
    },
    {
      "anonymous": false,
      "inputs": [
        {
          "indexed": true,
          "internalType": "address",
          "name": "learner",
          "type": "address"
        },
        {
          "indexed": false,
          "internalType": "uint256",
          "name": "quizId",
          "type": "uint256"
        },
        {
          "indexed": false,
          "internalType": "uint256",
          "name": "score",
          "type": "uint256"
        }
      ],
      "name": "QuizSubmitted",
      "type": "event"
    },
    {
      "inputs": [],
      "name": "COURSE_COMPLETION_REWARD",
      "outputs": [
        {
          "internalType": "uint256",
          "name": "",
          "type": "uint256"
        }
      ],
      "stateMutability": "view",
      "type": "function"
    },
    {
      "inputs": [],
      "name": "QUIZ_COMPLETION_REWARD",
      "outputs": [
        {
          "internalType": "uint256",
          "name": "",
          "type": "uint256"
        }
      ],
      "stateMutability": "view",
      "type": "function"
    },
    {
      "inputs": [
        {
          "internalType": "address",
          "name": "_owner",
          "type": "address"
        }
      ],
      "name": "getCertificates",
      "outputs": [
        {
          "components": [
            {
              "internalType": "uint256",
              "name": "certId",
              "type": "uint256"
            },
            {
              "internalType": "uint256",
              "name": "courseId",
              "type": "uint256"
            },
            {
              "internalType": "string",
              "name": "learner",
              "type": "string"
            },
            {
              "internalType": "string",
              "name": "cert_issuer",
              "type": "string"
            },
            {
              "internalType": "uint256",
              "name": "issue_date",
              "type": "uint256"
            },
            {
              "internalType": "string",
              "name": "courseName",
              "type": "string"
            },
            {
              "internalType": "address",
              "name": "owner",
              "type": "address"
            }
          ],
          "internalType": "struct LibDiamond.Certificate[]",
          "name": "",
          "type": "tuple[]"
        }
      ],
      "stateMutability": "view",
      "type": "function"
    },
    {
      "inputs": [
        {
          "internalType": "uint256",
          "name": "_courseId",
          "type": "uint256"
        },
        {
          "internalType": "string",
          "name": "learner",
          "type": "string"
        },
        {
          "internalType": "string",
          "name": "courseName",
          "type": "string"
        },
        {
          "internalType": "string",
          "name": "cert_issuer",
          "type": "string"
        },
        {
          "internalType": "uint256",
          "name": "issue_date",
          "type": "uint256"
        }
      ],
      "name": "issueCertificate",
      "outputs": [
        {
          "internalType": "uint256",
          "name": "",
          "type": "uint256"
        },
        {
          "components": [
            {
              "internalType": "uint256",
              "name": "certId",
              "type": "uint256"
            },
            {
              "internalType": "uint256",
              "name": "courseId",
              "type": "uint256"
            },
            {
              "internalType": "string",
              "name": "learner",
              "type": "string"
            },
            {
              "internalType": "string",
              "name": "cert_issuer",
              "type": "string"
            },
            {
              "internalType": "uint256",
              "name": "issue_date",
              "type": "uint256"
            },
            {
              "internalType": "string",
              "name": "courseName",
              "type": "string"
            },
            {
              "internalType": "address",
              "name": "owner",
              "type": "address"
            }
          ],
          "internalType": "struct LibDiamond.Certificate",
          "name": "",
          "type": "tuple"
        }
      ],
      "stateMutability": "nonpayable",
      "type": "function"
    }
  ],
  "bytecode": "0x6080806040523461001b576001600055610d5290816100218239f35b600080fdfe60406080815260048036101561001457600080fd5b600090813560e01c80634fb95abd146102985780637ce17852146102755780639560bc85146102525763f1c49c621461004c57600080fd5b3461024e576020918260031936011261024b576001600160a01b039180358381169081900361024757829383927f9678e342c7a34bfe5ad1b5d563e2e6bc8acab7b355ab22b43ab10176c7c41d8054935b84811061021457506100c66100b187610c4b565b966100be8a519889610689565b808852610c4b565b601f190187865b8281106101fe575050508491855b8581106101415750505050505083519280840190808552835180925280868601968360051b870101940192955b8287106101155785850386f35b909192938280610131600193603f198a8203018652885161074f565b9601920196019592919092610108565b8861014b82610bb6565b508b87856006809401541614610167575b5050506001016100db565b91848497926101f39461017b600197610bb6565b509080519461018986610657565b8254865288830154908601526101a160028301610c77565b908501526101b160038201610c77565b60608501528881015460808501526101cb60058201610c77565b60a085015201541660c08201526101e2828c610c63565b526101ed818b610c63565b50610c26565b93905088388b61015c565b6102066107c0565b82828b0101520188906100cd565b8383600661022184610bb6565b5001541614610233575b60010161009d565b9561023f600191610c26565b96905061022b565b8280fd5b80fd5b5080fd5b82843461024e578160031936011261024e5760209051670de0b6b3a76400008152f35b82843461024e578160031936011261024e5760209051671bc16d674ec800008152f35b5082346102475760a03660031901126102475767ffffffffffffffff928235919060248035868111610247576102d190369087016106ab565b9160443587811161024e576102e990369088016106ab565b9060643588811161024e5761030190369089016106ab565b926084359761030e6107c0565b508783527f9678e342c7a34bfe5ad1b5d563e2e6bc8acab7b355ab22b43ab10176c7c41d7c9960209a808c528885203386528c5260ff898620541661061557856103d660808a8f8f8f968f928e91898e528152838d208d3390528152838d20600160ff198254161790556103bd84519889968388019b8c5261039881518092868a8c019101610707565b87016103ac82518093868a85019101610707565b019183519384918785019101610707565b0191820152426060820152036060810184520182610689565b519020998851996103e68b610657565b8b8b528c8b015287898b01528660608b015260808a01528460a08a01523360c08a01528984527f9678e342c7a34bfe5ad1b5d563e2e6bc8acab7b355ab22b43ab10176c7c41d7f8b5261043b89898620610833565b7f9678e342c7a34bfe5ad1b5d563e2e6bc8acab7b355ab22b43ab10176c7c41d80805490680100000000000000008210156106035760018201905561047f90610bb6565b6105f2578961048d91610833565b875190818901908111828210176105e057916104fd600394928d948b52601881527f436f7572736520636f6d706c6574696f6e207265776172640000000000000000858201528a51958694859463112232f560e31b8652339086015284015260606044840152606483019061072a565b038185305af180156105d6579189959391899593610597575b505085949261056f7f95ad50d6596337460bdce4b8db70313463e0615be9266b573e781327aef44e09959361056261057d9460806105939c9b519889988952880152608087019061072a565b908582038987015261072a565b90838203606085015261072a565b0390a1808051958695865285015283019061074f565b0390f35b8681939597929496503d83116105cf575b6105b28183610689565b8101031261024e57518015150361024b5791879391838894610516565b503d6105a8565b86513d84823e3d90fd5b634e487b7160e01b8552604183528385fd5b634e487b7160e01b85528483528385fd5b634e487b7160e01b8652604184528486fd5b885162461bcd60e51b81528084018d9052601d818601527f416c726561647920636f6d706c65746564207468697320636f757273650000006044820152606490fd5b60e0810190811067ffffffffffffffff82111761067357604052565b634e487b7160e01b600052604160045260246000fd5b90601f8019910116810190811067ffffffffffffffff82111761067357604052565b81601f820112156107025780359067ffffffffffffffff821161067357604051926106e0601f8401601f191660200185610689565b8284526020838301011161070257816000926020809301838601378301015290565b600080fd5b60005b83811061071a5750506000910152565b818101518382015260200161070a565b9060209161074381518092818552858086019101610707565b601f01601f1916010190565b90815181526020820151602082015260c06107ad61079161077f604086015160e0604087015260e086019061072a565b6060860151858203606087015261072a565b6080850151608085015260a085015184820360a086015261072a565b928101516001600160a01b031691015290565b604051906107cd82610657565b600060c08382815282602082015260606040820152606080820152826080820152606060a08201520152565b90600182811c92168015610829575b602083101461081357565b634e487b7160e01b600052602260045260246000fd5b91607f1691610808565b919080518355600192602080830151858301556002820194604084015180519667ffffffffffffffff97888111610673578061086f83546107f9565b93601f94858111610b62575b508690858311600114610aff57600092610af4575b5050600019600383901b1c191690841b1790555b6003840160608601518051908982116106735781906108c384546107f9565b858111610aa3575b508690858311600114610a4057600092610a35575b5050600019600383901b1c191690841b1790555b60808501516004850155600584019260a08601519081519889116106735761091c85546107f9565b8381116109ef575b508092891160011461098757509680928192600697989960009461097c575b50501b916000199060031b1c19161790555b019060c060018060a01b03910151166bffffffffffffffffffffffff60a01b825416179055565b015192503880610943565b909791601f198316988560005282600020926000905b8b82106109d857505083600698999a106109bf575b505050811b019055610955565b015160001960f88460031b161c191690553880806109b2565b80878596829496860151815501950193019061099d565b856000528160002084808c0160051c820192848d10610a2c575b0160051c019085905b828110610a20575050610924565b60008155018590610a12565b92508192610a09565b0151905038806108e0565b90869350601f1983169185600052886000209260005b8a828210610a8d5750508411610a74575b505050811b0190556108f4565b015160001960f88460031b161c19169055388080610a67565b8385015186558a97909501949384019301610a56565b90915083600052866000208580850160051c820192898610610aeb575b918891869594930160051c01915b828110610adc5750506108cb565b60008155859450889101610ace565b92508192610ac0565b015190503880610890565b90869350601f1983169185600052886000209260005b8a828210610b4c5750508411610b33575b505050811b0190556108a4565b015160001960f88460031b161c19169055388080610b26565b8385015186558a97909501949384019301610b15565b909150600084600052876000208680860160051c8201938a8710610bad575b91899187969594930160051c01925b838110610b9f5750505061087b565b828155869550899101610b90565b93508193610b81565b7f9678e342c7a34bfe5ad1b5d563e2e6bc8acab7b355ab22b43ab10176c7c41d80908154811015610c1057600791600052027f3219afb23a1b9187898d8921f57b0034479b3b866faca1d01ec9654e0c0a3ce90190600090565b634e487b7160e01b600052603260045260246000fd5b6000198114610c355760010190565b634e487b7160e01b600052601160045260246000fd5b67ffffffffffffffff81116106735760051b60200190565b8051821015610c105760209160051b010190565b90604051918260008254610c8a816107f9565b90818452602094600191600181169081600014610cfa5750600114610cbb575b505050610cb992500383610689565b565b600090815285812095935091905b818310610ce2575050610cb99350820101388080610caa565b85548884018501529485019487945091830191610cc9565b92505050610cb994925060ff191682840152151560051b820101388080610caa56fea26469706673582212204988d092dadf55d2037ed46dbb6b201b45ef0bd6fa40e8041ac792d8052880b064736f6c63430008180033",
  "linkReferences": {},
  "deployedLinkReferences": {}
}