{
  "_format": "hh-sol-artifact-1",
  "contractName": "Ecosystem3Facet",
  "sourceName": "contracts/Ecosystem3Facet.sol",
  "abi": [
    {
      "inputs": [],
      "name": "ReentrancyGuardReentrantCall",
      "type": "error"
    },
    {
      "anonymous": false,
      "inputs": [
        {
          "indexed": false,
          "internalType": "uint256",
          "name": "certificateId",
          "type": "uint256"
        },
        {
          "indexed": false,
          "internalType": "string",
          "name": "courseName",
          "type": "string"
        },
        {
          "indexed": false,
          "internalType": "string",
          "name": "cert_issuer",
          "type": "string"
        },
        {
          "indexed": false,
          "internalType": "string",
          "name": "learner",
          "type": "string"
        }
      ],
      "name": "CertificateIssued",
      "type": "event"
    },
    {
      "anonymous": false,
      "inputs": [
        {
          "indexed": true,
          "internalType": "uint256",
          "name": "_courseId",
          "type": "uint256"
        },
        {
          "indexed": true,
          "internalType": "uint256",
          "name": "_chaterId",
          "type": "uint256"
        }
      ],
      "name": "ChapterDeletedSuccess",
      "type": "event"
    },
    {
      "anonymous": false,
      "inputs": [
        {
          "indexed": true,
          "internalType": "uint256",
          "name": "_courseId",
          "type": "uint256"
        },
        {
          "indexed": true,
          "internalType": "uint256",
          "name": "_chapterId",
          "type": "uint256"
        },
        {
          "indexed": false,
          "internalType": "string",
          "name": "_chapterName",
          "type": "string"
        }
      ],
      "name": "ChapterEdited",
      "type": "event"
    },
    {
      "anonymous": false,
      "inputs": [
        {
          "indexed": true,
          "internalType": "uint256",
          "name": "_courseId",
          "type": "uint256"
        },
        {
          "indexed": false,
          "internalType": "address",
          "name": "owner",
          "type": "address"
        }
      ],
      "name": "CourseDeleteSuccess",
      "type": "event"
    },
    {
      "anonymous": false,
      "inputs": [
        {
          "indexed": true,
          "internalType": "uint256",
          "name": "_courseId",
          "type": "uint256"
        },
        {
          "indexed": false,
          "internalType": "string",
          "name": "_courseName",
          "type": "string"
        }
      ],
      "name": "CourseEdited",
      "type": "event"
    },
    {
      "anonymous": false,
      "inputs": [
        {
          "indexed": true,
          "internalType": "address",
          "name": "_to",
          "type": "address"
        },
        {
          "indexed": true,
          "internalType": "uint256",
          "name": "_amount",
          "type": "uint256"
        }
      ],
      "name": "EcosystemPoolUpdate",
      "type": "event"
    },
    {
      "anonymous": false,
      "inputs": [
        {
          "indexed": true,
          "internalType": "uint256",
          "name": "_chapterId",
          "type": "uint256"
        },
        {
          "indexed": true,
          "internalType": "uint256",
          "name": "_lessonId",
          "type": "uint256"
        }
      ],
      "name": "LessonDeleted",
      "type": "event"
    },
    {
      "anonymous": false,
      "inputs": [
        {
          "indexed": true,
          "internalType": "uint256",
          "name": "_lessonId",
          "type": "uint256"
        },
        {
          "indexed": false,
          "internalType": "string",
          "name": "_lessonName",
          "type": "string"
        }
      ],
      "name": "LessonEdited",
      "type": "event"
    },
    {
      "anonymous": false,
      "inputs": [
        {
          "indexed": true,
          "internalType": "uint256",
          "name": "_quizId",
          "type": "uint256"
        },
        {
          "indexed": true,
          "internalType": "uint256",
          "name": "_questionId",
          "type": "uint256"
        }
      ],
      "name": "QuestionDeleted",
      "type": "event"
    },
    {
      "anonymous": false,
      "inputs": [
        {
          "indexed": true,
          "internalType": "uint256",
          "name": "_lessonId",
          "type": "uint256"
        },
        {
          "indexed": true,
          "internalType": "uint256",
          "name": "_quizId",
          "type": "uint256"
        }
      ],
      "name": "QuizDeleted",
      "type": "event"
    },
    {
      "anonymous": false,
      "inputs": [
        {
          "indexed": true,
          "internalType": "uint256",
          "name": "_lessonId",
          "type": "uint256"
        },
        {
          "indexed": true,
          "internalType": "uint256",
          "name": "_quizId",
          "type": "uint256"
        },
        {
          "indexed": false,
          "internalType": "string",
          "name": "_quizTitle",
          "type": "string"
        }
      ],
      "name": "QuizEdited",
      "type": "event"
    },
    {
      "anonymous": false,
      "inputs": [
        {
          "indexed": true,
          "internalType": "address",
          "name": "learner",
          "type": "address"
        },
        {
          "indexed": false,
          "internalType": "uint256",
          "name": "quizId",
          "type": "uint256"
        },
        {
          "indexed": false,
          "internalType": "uint256",
          "name": "score",
          "type": "uint256"
        }
      ],
      "name": "QuizSubmitted",
      "type": "event"
    },
    {
      "anonymous": false,
      "inputs": [
        {
          "indexed": true,
          "internalType": "address",
          "name": "from",
          "type": "address"
        },
        {
          "indexed": true,
          "internalType": "address",
          "name": "to",
          "type": "address"
        },
        {
          "indexed": true,
          "internalType": "uint256",
          "name": "tokenId",
          "type": "uint256"
        }
      ],
      "name": "Transfer",
      "type": "event"
    },
    {
      "inputs": [],
      "name": "COURSE_COMPLETION_REWARD",
      "outputs": [
        {
          "internalType": "uint256",
          "name": "",
          "type": "uint256"
        }
      ],
      "stateMutability": "view",
      "type": "function"
    },
    {
      "inputs": [],
      "name": "QUIZ_COMPLETION_REWARD",
      "outputs": [
        {
          "internalType": "uint256",
          "name": "",
          "type": "uint256"
        }
      ],
      "stateMutability": "view",
      "type": "function"
    },
    {
      "inputs": [
        {
          "internalType": "address",
          "name": "",
          "type": "address"
        },
        {
          "internalType": "uint256",
          "name": "",
          "type": "uint256"
        }
      ],
      "name": "approve",
      "outputs": [],
      "stateMutability": "pure",
      "type": "function"
    },
    {
      "inputs": [
        {
          "internalType": "address",
          "name": "owner",
          "type": "address"
        }
      ],
      "name": "balanceOf",
      "outputs": [
        {
          "internalType": "uint256",
          "name": "",
          "type": "uint256"
        }
      ],
      "stateMutability": "view",
      "type": "function"
    },
    {
      "inputs": [
        {
          "internalType": "uint256",
          "name": "",
          "type": "uint256"
        }
      ],
      "name": "getApproved",
      "outputs": [
        {
          "internalType": "address",
          "name": "",
          "type": "address"
        }
      ],
      "stateMutability": "pure",
      "type": "function"
    },
    {
      "inputs": [
        {
          "internalType": "address",
          "name": "_owner",
          "type": "address"
        }
      ],
      "name": "getCertificates",
      "outputs": [
        {
          "components": [
            {
              "internalType": "uint256",
              "name": "certId",
              "type": "uint256"
            },
            {
              "internalType": "uint256",
              "name": "courseId",
              "type": "uint256"
            },
            {
              "internalType": "string",
              "name": "learner",
              "type": "string"
            },
            {
              "internalType": "string",
              "name": "cert_issuer",
              "type": "string"
            },
            {
              "internalType": "uint256",
              "name": "issue_date",
              "type": "uint256"
            },
            {
              "internalType": "string",
              "name": "courseName",
              "type": "string"
            },
            {
              "internalType": "address",
              "name": "owner",
              "type": "address"
            }
          ],
          "internalType": "struct LibDiamond.Certificate[]",
          "name": "",
          "type": "tuple[]"
        }
      ],
      "stateMutability": "view",
      "type": "function"
    },
    {
      "inputs": [
        {
          "internalType": "address",
          "name": "",
          "type": "address"
        },
        {
          "internalType": "address",
          "name": "",
          "type": "address"
        }
      ],
      "name": "isApprovedForAll",
      "outputs": [
        {
          "internalType": "bool",
          "name": "",
          "type": "bool"
        }
      ],
      "stateMutability": "pure",
      "type": "function"
    },
    {
      "inputs": [
        {
          "internalType": "uint256",
          "name": "_courseId",
          "type": "uint256"
        },
        {
          "internalType": "string",
          "name": "learner",
          "type": "string"
        },
        {
          "internalType": "string",
          "name": "courseName",
          "type": "string"
        },
        {
          "internalType": "string",
          "name": "cert_issuer",
          "type": "string"
        },
        {
          "internalType": "uint256",
          "name": "issue_date",
          "type": "uint256"
        },
        {
          "internalType": "string",
          "name": "_tokenURI",
          "type": "string"
        }
      ],
      "name": "issueCertificate",
      "outputs": [
        {
          "internalType": "uint256",
          "name": "",
          "type": "uint256"
        },
        {
          "components": [
            {
              "internalType": "uint256",
              "name": "certId",
              "type": "uint256"
            },
            {
              "internalType": "uint256",
              "name": "courseId",
              "type": "uint256"
            },
            {
              "internalType": "string",
              "name": "learner",
              "type": "string"
            },
            {
              "internalType": "string",
              "name": "cert_issuer",
              "type": "string"
            },
            {
              "internalType": "uint256",
              "name": "issue_date",
              "type": "uint256"
            },
            {
              "internalType": "string",
              "name": "courseName",
              "type": "string"
            },
            {
              "internalType": "address",
              "name": "owner",
              "type": "address"
            }
          ],
          "internalType": "struct LibDiamond.Certificate",
          "name": "",
          "type": "tuple"
        }
      ],
      "stateMutability": "nonpayable",
      "type": "function"
    },
    {
      "inputs": [],
      "name": "name",
      "outputs": [
        {
          "internalType": "string",
          "name": "",
          "type": "string"
        }
      ],
      "stateMutability": "pure",
      "type": "function"
    },
    {
      "inputs": [
        {
          "internalType": "uint256",
          "name": "tokenId",
          "type": "uint256"
        }
      ],
      "name": "ownerOf",
      "outputs": [
        {
          "internalType": "address",
          "name": "",
          "type": "address"
        }
      ],
      "stateMutability": "view",
      "type": "function"
    },
    {
      "inputs": [
        {
          "internalType": "address",
          "name": "",
          "type": "address"
        },
        {
          "internalType": "address",
          "name": "",
          "type": "address"
        },
        {
          "internalType": "uint256",
          "name": "",
          "type": "uint256"
        }
      ],
      "name": "safeTransferFrom",
      "outputs": [],
      "stateMutability": "pure",
      "type": "function"
    },
    {
      "inputs": [
        {
          "internalType": "address",
          "name": "",
          "type": "address"
        },
        {
          "internalType": "address",
          "name": "",
          "type": "address"
        },
        {
          "internalType": "uint256",
          "name": "",
          "type": "uint256"
        },
        {
          "internalType": "bytes",
          "name": "",
          "type": "bytes"
        }
      ],
      "name": "safeTransferFrom",
      "outputs": [],
      "stateMutability": "pure",
      "type": "function"
    },
    {
      "inputs": [
        {
          "internalType": "address",
          "name": "",
          "type": "address"
        },
        {
          "internalType": "bool",
          "name": "",
          "type": "bool"
        }
      ],
      "name": "setApprovalForAll",
      "outputs": [],
      "stateMutability": "pure",
      "type": "function"
    },
    {
      "inputs": [],
      "name": "symbol",
      "outputs": [
        {
          "internalType": "string",
          "name": "",
          "type": "string"
        }
      ],
      "stateMutability": "pure",
      "type": "function"
    },
    {
      "inputs": [
        {
          "internalType": "uint256",
          "name": "tokenId",
          "type": "uint256"
        }
      ],
      "name": "tokenURI",
      "outputs": [
        {
          "internalType": "string",
          "name": "",
          "type": "string"
        }
      ],
      "stateMutability": "view",
      "type": "function"
    },
    {
      "inputs": [],
      "name": "totalSupply",
      "outputs": [
        {
          "internalType": "uint256",
          "name": "",
          "type": "uint256"
        }
      ],
      "stateMutability": "view",
      "type": "function"
    },
    {
      "inputs": [
        {
          "internalType": "address",
          "name": "",
          "type": "address"
        },
        {
          "internalType": "address",
          "name": "",
          "type": "address"
        },
        {
          "internalType": "uint256",
          "name": "",
          "type": "uint256"
        }
      ],
      "name": "transferFrom",
      "outputs": [],
      "stateMutability": "pure",
      "type": "function"
    }
  ],
  "bytecode": "0x6080806040523461001b57600160005561156b90816100218239f35b600080fdfe608060409080825260048036101561001657600080fd5b600091823560e01c90816306fdde0314610cdf57508063081812fc14610cc9578063095ea7b314610caa57806318160ddd14610c6c57806323b872dd14610c6757806342842e0e14610c675780636352211e14610c0a57806365824c421461056f57806370a08231146104c65780637ce17852146104a35780639560bc851461048057806395d89b411461043c578063a22cb46514610414578063b88d4fde146103b3578063c87b56dd1461030e578063e985e9c5146102e05763f1c49c62146100df57600080fd5b346102dc57602091826003193601126102d9576100fa610d75565b7f9678e342c7a34bfe5ad1b5d563e2e6bc8acab7b355ab22b43ab10176c7c41d805491928392916001600160a01b0390811691845b8481106102a6575061015861014387611509565b966101508a519889610e28565b808852611509565b601f190187865b828110610290575050508491855b8581106101d35750505050505083519280840190808552835180925280868601968360051b870101940192955b8287106101a75785850386f35b9091929382806101c3600193603f198a82030186528851610ea1565b960192019601959291909261019a565b886101dd826113cf565b508b878560068094015416146101f9575b50505060010161016d565b91848497926102859461020d6001976113cf565b509080519461021b86610dda565b8254865288830154908601526102336002830161143f565b908501526102436003820161143f565b606085015288810154608085015261025d6005820161143f565b60a085015201541660c0820152610274828c611521565b5261027f818b611521565b506114e4565b93905088388b6101ee565b610298610fd9565b82828b01015201889061015f565b838360066102b3846113cf565b50015416146102c5575b60010161012f565b956102d16001916114e4565b9690506102bd565b80fd5b5080fd5b8284346102dc57806003193601126102dc57906020916102fe610d75565b50610307610d90565b5051908152f35b508290346103af5760203660031901126103af57358083527f9678e342c7a34bfe5ad1b5d563e2e6bc8acab7b355ab22b43ab10176c7c41d81602052818320546103ab9361039892849261036c906001600160a01b03161515610f94565b81527f9678e342c7a34bfe5ad1b5d563e2e6bc8acab7b355ab22b43ab10176c7c41d836020522061143f565b9051918291602083526020830190610d50565b0390f35b8280fd5b50346102dc5760803660031901126102dc576103cd610d75565b506103d6610d90565b506064359067ffffffffffffffff908183116104105736602384011215610410578201359081116103af573691016024011115610f575780fd5b8380fd5b8284346102dc573660031901126102d95761042d610d75565b5060243580151514610f125780fd5b5082346103af57826003193601126103af576103ab925080519161045f83610e0c565b82526310d1549560e21b602083015251918291602083526020830190610d50565b8284346102dc57816003193601126102dc5760209051670de0b6b3a76400008152f35b8284346102dc57816003193601126102dc5760209051671bc16d674ec800008152f35b5090346102d95760203660031901126102d957506104e2610d75565b906001600160a01b03821615610538576020836105308460018060a01b03166000527f9678e342c7a34bfe5ad1b5d563e2e6bc8acab7b355ab22b43ab10176c7c41d82602052604060002090565b549051908152f35b606490602084519162461bcd60e51b835282015260116024820152705342543a207a65726f206164647265737360781b6044820152fd5b5091346102dc5760c03660031901126102dc5782359060249283359467ffffffffffffffff958681116103af576105a99036908301610e4a565b90604435878111610410576105c19036908301610e4a565b606435888111610c06576105d89036908401610e4a565b916084359760a4358a8111610c02576105f49036908401610e4a565b6105fc610fd9565b508887527f9678e342c7a34bfe5ad1b5d563e2e6bc8acab7b355ab22b43ab10176c7c41d7c9a60209b808d52898920338a528d5260ff8a8a205416610bbf57856106c860808f8f8f95908f918f938f948f929085918b82528352818120338252835220600160ff198254161790556106af84519889968388019b8c5261068a81518092868a8c019101610d2d565b870161069e82518093868a85019101610d2d565b019183519384918785019101610d2d565b0191820152426060820152036060810184520182610e28565b5190209a89519a6106d88c610dda565b8c8c528d8c0152878a8c01528660608c015260808b01528460a08b01523360c08b01528a88527f9678e342c7a34bfe5ad1b5d563e2e6bc8acab7b355ab22b43ab10176c7c41d7f8c5261072d8a8a8a2061104c565b7f9678e342c7a34bfe5ad1b5d563e2e6bc8acab7b355ab22b43ab10176c7c41d8080549068010000000000000000821015610bad57600182019055610771906113cf565b610b9c578a61077f9161104c565b6107e38c8a5161078e81610e0c565b601881527f436f7572736520636f6d706c6574696f6e207265776172640000000000000000828201528b518093819263112232f560e31b8352338a840152600389840152606060448401526064830190610d50565b03818c305af18015610b9257610b57575b503315610b15578a88527f9678e342c7a34bfe5ad1b5d563e2e6bc8acab7b355ab22b43ab10176c7c41d81808d52898920546001600160a01b0316610ad2578b89528c5288882080546001600160a01b0319163390811790915560009081527f9678e342c7a34bfe5ad1b5d563e2e6bc8acab7b355ab22b43ab10176c7c41d826020526040902080549060018201809211610ac057558a88527f9678e342c7a34bfe5ad1b5d563e2e6bc8acab7b355ab22b43ab10176c7c41d838c52888820918051918211610aae578c82916108ca8554611012565b601f8111610a57575b5081601f84116001146109f157508a926109e6575b50508160011b916000199060031b1c19161790555b7f9678e342c7a34bfe5ad1b5d563e2e6bc8acab7b355ab22b43ab10176c7c41d8490815492600184018094116109d5575050936109b189946109a46103ab9a99989560808e6109bf977f95ad50d6596337460bdce4b8db70313463e0615be9266b573e781327aef44e099b55898c519a8b9a33907fddf252ad1be2c89b69c2b068fc378daa952ba7f163c4a11628f55a4df523b3ef8180a489528801526080870190610d50565b9085820389870152610d50565b908382036060850152610d50565b0390a18080519586958652850152830190610ea1565b634e487b7160e01b88526011905286fd5b0151905038806108e8565b858c52808c209350601f198516908c905b828210610a3f575050908460019594939210610a26575b505050811b0190556108fd565b015160001960f88460031b161c19169055388080610a19565b80600186978294978701518155019601940190610a02565b858c52828c20919350601f850160051c8201928510610aa4575b918f9291601f8695930160051c01905b818110610a8e57506108d3565b90925060019193508b815501918e918493610a81565b9091508190610a71565b634e487b7160e01b8952604185528389fd5b634e487b7160e01b8a5260118652848afd5b50885162461bcd60e51b81528085018d90526019818501527f5342543a20746f6b656e20616c7265616479206d696e746564000000000000006044820152606490fd5b885162461bcd60e51b81528085018d90526019818501527f5342543a206d696e7420746f207a65726f2061646472657373000000000000006044820152606490fd5b8c81813d8311610b8b575b610b6c8183610e28565b81010312610b87575180151503610b8357386107f4565b8780fd5b8880fd5b503d610b62565b8a513d8b823e3d90fd5b634e487b7160e01b89528885528389fd5b634e487b7160e01b8a5260418652848afd5b50885162461bcd60e51b81528085018d9052601d818501527f416c726561647920636f6d706c65746564207468697320636f757273650000006044820152606490fd5b8680fd5b8480fd5b508290346103af5760203660031901126103af573582527f9678e342c7a34bfe5ad1b5d563e2e6bc8acab7b355ab22b43ab10176c7c41d81602090815291819020546001600160a01b031690610c61821515610f94565b51908152f35b610da6565b8284346102dc57816003193601126102dc576020907f9678e342c7a34bfe5ad1b5d563e2e6bc8acab7b355ab22b43ab10176c7c41d84549051908152f35b8284346102dc573660031901126102d957610cc3610d75565b50610f12565b82346102d957602036600319011215610f125780fd5b839085346103af57826003193601126103af576103ab9250610d0082610e0c565b600e82526d10d95c9d1a599a58d85d1954d09560921b602083015251918291602083526020830190610d50565b60005b838110610d405750506000910152565b8181015183820152602001610d30565b90602091610d6981518092818552858086019101610d2d565b601f01601f1916010190565b600435906001600160a01b0382168203610d8b57565b600080fd5b602435906001600160a01b0382168203610d8b57565b34610d8b576060366003190112610d8b576001600160a01b0360043581811603610d8b5760243590811614610f5757600080fd5b60e0810190811067ffffffffffffffff821117610df657604052565b634e487b7160e01b600052604160045260246000fd5b6040810190811067ffffffffffffffff821117610df657604052565b90601f8019910116810190811067ffffffffffffffff821117610df657604052565b81601f82011215610d8b5780359067ffffffffffffffff8211610df65760405192610e7f601f8401601f191660200185610e28565b82845260208383010111610d8b57816000926020809301838601378301015290565b90815181526020820151602082015260c0610eff610ee3610ed1604086015160e0604087015260e0860190610d50565b60608601518582036060870152610d50565b6080850151608085015260a085015184820360a0860152610d50565b928101516001600160a01b031691015290565b60405162461bcd60e51b815260206004820152601760248201527f5342543a20617070726f76616c732064697361626c65640000000000000000006044820152606490fd5b60405162461bcd60e51b81526020600482015260156024820152745342543a206e6f6e2d7472616e7366657261626c6560581b6044820152606490fd5b15610f9b57565b60405162461bcd60e51b815260206004820152601660248201527529a12a1d103737b732bc34b9ba32b73a103a37b5b2b760511b6044820152606490fd5b60405190610fe682610dda565b600060c08382815282602082015260606040820152606080820152826080820152606060a08201520152565b90600182811c92168015611042575b602083101461102c57565b634e487b7160e01b600052602260045260246000fd5b91607f1691611021565b919080518355600192602080830151858301556002820194604084015180519667ffffffffffffffff97888111610df657806110888354611012565b93601f9485811161137b575b5086908583116001146113185760009261130d575b5050600019600383901b1c191690841b1790555b600384016060860151805190898211610df65781906110dc8454611012565b8581116112bc575b5086908583116001146112595760009261124e575b5050600019600383901b1c191690841b1790555b60808501516004850155600584019260a0860151908151988911610df6576111358554611012565b838111611208575b50809289116001146111a0575096809281926006979899600094611195575b50501b916000199060031b1c19161790555b019060c060018060a01b03910151166bffffffffffffffffffffffff60a01b825416179055565b01519250388061115c565b909791601f198316988560005282600020926000905b8b82106111f157505083600698999a106111d8575b505050811b01905561116e565b015160001960f88460031b161c191690553880806111cb565b8087859682949686015181550195019301906111b6565b856000528160002084808c0160051c820192848d10611245575b0160051c019085905b82811061123957505061113d565b6000815501859061122b565b92508192611222565b0151905038806110f9565b90869350601f1983169185600052886000209260005b8a8282106112a6575050841161128d575b505050811b01905561110d565b015160001960f88460031b161c19169055388080611280565b8385015186558a9790950194938401930161126f565b90915083600052866000208580850160051c820192898610611304575b918891869594930160051c01915b8281106112f55750506110e4565b600081558594508891016112e7565b925081926112d9565b0151905038806110a9565b90869350601f1983169185600052886000209260005b8a828210611365575050841161134c575b505050811b0190556110bd565b015160001960f88460031b161c1916905538808061133f565b8385015186558a9790950194938401930161132e565b909150600084600052876000208680860160051c8201938a87106113c6575b91899187969594930160051c01925b8381106113b857505050611094565b8281558695508991016113a9565b9350819361139a565b7f9678e342c7a34bfe5ad1b5d563e2e6bc8acab7b355ab22b43ab10176c7c41d8090815481101561142957600791600052027f3219afb23a1b9187898d8921f57b0034479b3b866faca1d01ec9654e0c0a3ce90190600090565b634e487b7160e01b600052603260045260246000fd5b9060405191826000825461145281611012565b908184526020946001916001811690816000146114c25750600114611483575b50505061148192500383610e28565b565b600090815285812095935091905b8183106114aa5750506114819350820101388080611472565b85548884018501529485019487945091830191611491565b9250505061148194925060ff191682840152151560051b820101388080611472565b60001981146114f35760010190565b634e487b7160e01b600052601160045260246000fd5b67ffffffffffffffff8111610df65760051b60200190565b80518210156114295760209160051b01019056fea2646970667358221220254409fa93bb7ba4f11f0f382ecfa6c37941286dfb30728cfcf7b8c3af54ce0164736f6c63430008180033",
  "linkReferences": {},
  "deployedLinkReferences": {}
}