{
  "_format": "hh-sol-artifact-1",
  "contractName": "Ecosystem3Facet",
  "sourceName": "contracts/Ecosystem3Facet.sol",
  "abi": [
    {
      "inputs": [],
      "name": "ReentrancyGuardReentrantCall",
      "type": "error"
    },
    {
      "anonymous": false,
      "inputs": [
        {
          "indexed": false,
          "internalType": "uint256",
          "name": "certificateId",
          "type": "uint256"
        },
        {
          "indexed": false,
          "internalType": "string",
          "name": "courseName",
          "type": "string"
        },
        {
          "indexed": false,
          "internalType": "string",
          "name": "cert_issuer",
          "type": "string"
        },
        {
          "indexed": false,
          "internalType": "string",
          "name": "learner",
          "type": "string"
        }
      ],
      "name": "CertificateIssued",
      "type": "event"
    },
    {
      "anonymous": false,
      "inputs": [
        {
          "indexed": true,
          "internalType": "uint256",
          "name": "_courseId",
          "type": "uint256"
        },
        {
          "indexed": true,
          "internalType": "uint256",
          "name": "_chaterId",
          "type": "uint256"
        }
      ],
      "name": "ChapterDeletedSuccess",
      "type": "event"
    },
    {
      "anonymous": false,
      "inputs": [
        {
          "indexed": true,
          "internalType": "uint256",
          "name": "_courseId",
          "type": "uint256"
        },
        {
          "indexed": true,
          "internalType": "uint256",
          "name": "_chapterId",
          "type": "uint256"
        },
        {
          "indexed": false,
          "internalType": "string",
          "name": "_chapterName",
          "type": "string"
        }
      ],
      "name": "ChapterEdited",
      "type": "event"
    },
    {
      "anonymous": false,
      "inputs": [
        {
          "indexed": true,
          "internalType": "uint256",
          "name": "_courseId",
          "type": "uint256"
        },
        {
          "indexed": false,
          "internalType": "address",
          "name": "owner",
          "type": "address"
        }
      ],
      "name": "CourseDeleteSuccess",
      "type": "event"
    },
    {
      "anonymous": false,
      "inputs": [
        {
          "indexed": true,
          "internalType": "uint256",
          "name": "_courseId",
          "type": "uint256"
        },
        {
          "indexed": false,
          "internalType": "string",
          "name": "_courseName",
          "type": "string"
        }
      ],
      "name": "CourseEdited",
      "type": "event"
    },
    {
      "anonymous": false,
      "inputs": [
        {
          "indexed": true,
          "internalType": "address",
          "name": "_to",
          "type": "address"
        },
        {
          "indexed": true,
          "internalType": "uint256",
          "name": "_amount",
          "type": "uint256"
        }
      ],
      "name": "EcosystemPoolUpdate",
      "type": "event"
    },
    {
      "anonymous": false,
      "inputs": [
        {
          "indexed": true,
          "internalType": "uint256",
          "name": "_chapterId",
          "type": "uint256"
        },
        {
          "indexed": true,
          "internalType": "uint256",
          "name": "_lessonId",
          "type": "uint256"
        }
      ],
      "name": "LessonDeleted",
      "type": "event"
    },
    {
      "anonymous": false,
      "inputs": [
        {
          "indexed": true,
          "internalType": "uint256",
          "name": "_lessonId",
          "type": "uint256"
        },
        {
          "indexed": false,
          "internalType": "string",
          "name": "_lessonName",
          "type": "string"
        }
      ],
      "name": "LessonEdited",
      "type": "event"
    },
    {
      "anonymous": false,
      "inputs": [
        {
          "indexed": true,
          "internalType": "uint256",
          "name": "_quizId",
          "type": "uint256"
        },
        {
          "indexed": true,
          "internalType": "uint256",
          "name": "_questionId",
          "type": "uint256"
        }
      ],
      "name": "QuestionDeleted",
      "type": "event"
    },
    {
      "anonymous": false,
      "inputs": [
        {
          "indexed": true,
          "internalType": "uint256",
          "name": "_lessonId",
          "type": "uint256"
        },
        {
          "indexed": true,
          "internalType": "uint256",
          "name": "_quizId",
          "type": "uint256"
        }
      ],
      "name": "QuizDeleted",
      "type": "event"
    },
    {
      "anonymous": false,
      "inputs": [
        {
          "indexed": true,
          "internalType": "uint256",
          "name": "_lessonId",
          "type": "uint256"
        },
        {
          "indexed": true,
          "internalType": "uint256",
          "name": "_quizId",
          "type": "uint256"
        },
        {
          "indexed": false,
          "internalType": "string",
          "name": "_quizTitle",
          "type": "string"
        }
      ],
      "name": "QuizEdited",
      "type": "event"
    },
    {
      "anonymous": false,
      "inputs": [
        {
          "indexed": true,
          "internalType": "address",
          "name": "learner",
          "type": "address"
        },
        {
          "indexed": false,
          "internalType": "uint256",
          "name": "quizId",
          "type": "uint256"
        },
        {
          "indexed": false,
          "internalType": "uint256",
          "name": "score",
          "type": "uint256"
        }
      ],
      "name": "QuizSubmitted",
      "type": "event"
    },
    {
      "anonymous": false,
      "inputs": [
        {
          "indexed": true,
          "internalType": "address",
          "name": "from",
          "type": "address"
        },
        {
          "indexed": true,
          "internalType": "address",
          "name": "to",
          "type": "address"
        },
        {
          "indexed": true,
          "internalType": "uint256",
          "name": "tokenId",
          "type": "uint256"
        }
      ],
      "name": "Transfer",
      "type": "event"
    },
    {
      "anonymous": false,
      "inputs": [
        {
          "indexed": false,
          "internalType": "uint256",
          "name": "credentialId",
          "type": "uint256"
        },
        {
          "indexed": false,
          "internalType": "string",
          "name": "issuer",
          "type": "string"
        },
        {
          "indexed": false,
          "internalType": "string",
          "name": "subject",
          "type": "string"
        }
      ],
      "name": "VerifiableCredentialIssued",
      "type": "event"
    },
    {
      "inputs": [],
      "name": "COURSE_COMPLETION_REWARD",
      "outputs": [
        {
          "internalType": "uint256",
          "name": "",
          "type": "uint256"
        }
      ],
      "stateMutability": "view",
      "type": "function"
    },
    {
      "inputs": [],
      "name": "QUIZ_COMPLETION_REWARD",
      "outputs": [
        {
          "internalType": "uint256",
          "name": "",
          "type": "uint256"
        }
      ],
      "stateMutability": "view",
      "type": "function"
    },
    {
      "inputs": [
        {
          "internalType": "address",
          "name": "",
          "type": "address"
        },
        {
          "internalType": "uint256",
          "name": "",
          "type": "uint256"
        }
      ],
      "name": "approve",
      "outputs": [],
      "stateMutability": "pure",
      "type": "function"
    },
    {
      "inputs": [
        {
          "internalType": "address",
          "name": "owner",
          "type": "address"
        }
      ],
      "name": "balanceOf",
      "outputs": [
        {
          "internalType": "uint256",
          "name": "",
          "type": "uint256"
        }
      ],
      "stateMutability": "view",
      "type": "function"
    },
    {
      "inputs": [],
      "name": "getAllVerifiableCredentials",
      "outputs": [
        {
          "components": [
            {
              "internalType": "address",
              "name": "owner",
              "type": "address"
            },
            {
              "internalType": "uint256",
              "name": "credentialID",
              "type": "uint256"
            },
            {
              "internalType": "string",
              "name": "issuer",
              "type": "string"
            },
            {
              "internalType": "string",
              "name": "issuerDID",
              "type": "string"
            },
            {
              "internalType": "string",
              "name": "subject",
              "type": "string"
            },
            {
              "internalType": "string",
              "name": "subjectDID",
              "type": "string"
            },
            {
              "internalType": "string",
              "name": "course",
              "type": "string"
            },
            {
              "internalType": "string[]",
              "name": "credentialType",
              "type": "string[]"
            },
            {
              "internalType": "uint256",
              "name": "issuanceDate",
              "type": "uint256"
            }
          ],
          "internalType": "struct LibDiamond.VerifiableCredential[]",
          "name": "",
          "type": "tuple[]"
        }
      ],
      "stateMutability": "view",
      "type": "function"
    },
    {
      "inputs": [
        {
          "internalType": "uint256",
          "name": "",
          "type": "uint256"
        }
      ],
      "name": "getApproved",
      "outputs": [
        {
          "internalType": "address",
          "name": "",
          "type": "address"
        }
      ],
      "stateMutability": "pure",
      "type": "function"
    },
    {
      "inputs": [
        {
          "internalType": "address",
          "name": "_owner",
          "type": "address"
        }
      ],
      "name": "getCertificates",
      "outputs": [
        {
          "components": [
            {
              "internalType": "uint256",
              "name": "certId",
              "type": "uint256"
            },
            {
              "internalType": "uint256",
              "name": "courseId",
              "type": "uint256"
            },
            {
              "internalType": "string",
              "name": "learner",
              "type": "string"
            },
            {
              "internalType": "string",
              "name": "cert_issuer",
              "type": "string"
            },
            {
              "internalType": "uint256",
              "name": "issue_date",
              "type": "uint256"
            },
            {
              "internalType": "string",
              "name": "courseName",
              "type": "string"
            },
            {
              "internalType": "address",
              "name": "owner",
              "type": "address"
            }
          ],
          "internalType": "struct LibDiamond.Certificate[]",
          "name": "",
          "type": "tuple[]"
        }
      ],
      "stateMutability": "view",
      "type": "function"
    },
    {
      "inputs": [
        {
          "internalType": "address",
          "name": "owner",
          "type": "address"
        }
      ],
      "name": "getVerifiableCredentials",
      "outputs": [
        {
          "components": [
            {
              "internalType": "address",
              "name": "owner",
              "type": "address"
            },
            {
              "internalType": "uint256",
              "name": "credentialID",
              "type": "uint256"
            },
            {
              "internalType": "string",
              "name": "issuer",
              "type": "string"
            },
            {
              "internalType": "string",
              "name": "issuerDID",
              "type": "string"
            },
            {
              "internalType": "string",
              "name": "subject",
              "type": "string"
            },
            {
              "internalType": "string",
              "name": "subjectDID",
              "type": "string"
            },
            {
              "internalType": "string",
              "name": "course",
              "type": "string"
            },
            {
              "internalType": "string[]",
              "name": "credentialType",
              "type": "string[]"
            },
            {
              "internalType": "uint256",
              "name": "issuanceDate",
              "type": "uint256"
            }
          ],
          "internalType": "struct LibDiamond.VerifiableCredential[]",
          "name": "",
          "type": "tuple[]"
        }
      ],
      "stateMutability": "view",
      "type": "function"
    },
    {
      "inputs": [
        {
          "internalType": "address",
          "name": "",
          "type": "address"
        },
        {
          "internalType": "address",
          "name": "",
          "type": "address"
        }
      ],
      "name": "isApprovedForAll",
      "outputs": [
        {
          "internalType": "bool",
          "name": "",
          "type": "bool"
        }
      ],
      "stateMutability": "pure",
      "type": "function"
    },
    {
      "inputs": [
        {
          "internalType": "uint256",
          "name": "_courseId",
          "type": "uint256"
        },
        {
          "internalType": "string",
          "name": "learner",
          "type": "string"
        },
        {
          "internalType": "string",
          "name": "courseName",
          "type": "string"
        },
        {
          "internalType": "string",
          "name": "cert_issuer",
          "type": "string"
        },
        {
          "internalType": "uint256",
          "name": "issue_date",
          "type": "uint256"
        },
        {
          "internalType": "string",
          "name": "_tokenURI",
          "type": "string"
        }
      ],
      "name": "issueCertificate",
      "outputs": [
        {
          "internalType": "uint256",
          "name": "",
          "type": "uint256"
        },
        {
          "components": [
            {
              "internalType": "uint256",
              "name": "certId",
              "type": "uint256"
            },
            {
              "internalType": "uint256",
              "name": "courseId",
              "type": "uint256"
            },
            {
              "internalType": "string",
              "name": "learner",
              "type": "string"
            },
            {
              "internalType": "string",
              "name": "cert_issuer",
              "type": "string"
            },
            {
              "internalType": "uint256",
              "name": "issue_date",
              "type": "uint256"
            },
            {
              "internalType": "string",
              "name": "courseName",
              "type": "string"
            },
            {
              "internalType": "address",
              "name": "owner",
              "type": "address"
            }
          ],
          "internalType": "struct LibDiamond.Certificate",
          "name": "",
          "type": "tuple"
        }
      ],
      "stateMutability": "nonpayable",
      "type": "function"
    },
    {
      "inputs": [
        {
          "internalType": "address",
          "name": "owner",
          "type": "address"
        },
        {
          "internalType": "string",
          "name": "issuer",
          "type": "string"
        },
        {
          "internalType": "string",
          "name": "issuerDID",
          "type": "string"
        },
        {
          "internalType": "string",
          "name": "subject",
          "type": "string"
        },
        {
          "internalType": "string",
          "name": "subjectDID",
          "type": "string"
        },
        {
          "internalType": "string",
          "name": "credentialType",
          "type": "string"
        },
        {
          "internalType": "uint256",
          "name": "issue_date",
          "type": "uint256"
        },
        {
          "internalType": "string",
          "name": "_course",
          "type": "string"
        }
      ],
      "name": "issueVerifiableCredential",
      "outputs": [
        {
          "internalType": "bool",
          "name": "",
          "type": "bool"
        }
      ],
      "stateMutability": "nonpayable",
      "type": "function"
    },
    {
      "inputs": [],
      "name": "name",
      "outputs": [
        {
          "internalType": "string",
          "name": "",
          "type": "string"
        }
      ],
      "stateMutability": "pure",
      "type": "function"
    },
    {
      "inputs": [
        {
          "internalType": "uint256",
          "name": "tokenId",
          "type": "uint256"
        }
      ],
      "name": "ownerOf",
      "outputs": [
        {
          "internalType": "address",
          "name": "",
          "type": "address"
        }
      ],
      "stateMutability": "view",
      "type": "function"
    },
    {
      "inputs": [
        {
          "internalType": "address",
          "name": "",
          "type": "address"
        },
        {
          "internalType": "address",
          "name": "",
          "type": "address"
        },
        {
          "internalType": "uint256",
          "name": "",
          "type": "uint256"
        }
      ],
      "name": "safeTransferFrom",
      "outputs": [],
      "stateMutability": "pure",
      "type": "function"
    },
    {
      "inputs": [
        {
          "internalType": "address",
          "name": "",
          "type": "address"
        },
        {
          "internalType": "address",
          "name": "",
          "type": "address"
        },
        {
          "internalType": "uint256",
          "name": "",
          "type": "uint256"
        },
        {
          "internalType": "bytes",
          "name": "",
          "type": "bytes"
        }
      ],
      "name": "safeTransferFrom",
      "outputs": [],
      "stateMutability": "pure",
      "type": "function"
    },
    {
      "inputs": [
        {
          "internalType": "address",
          "name": "",
          "type": "address"
        },
        {
          "internalType": "bool",
          "name": "",
          "type": "bool"
        }
      ],
      "name": "setApprovalForAll",
      "outputs": [],
      "stateMutability": "pure",
      "type": "function"
    },
    {
      "inputs": [],
      "name": "symbol",
      "outputs": [
        {
          "internalType": "string",
          "name": "",
          "type": "string"
        }
      ],
      "stateMutability": "pure",
      "type": "function"
    },
    {
      "inputs": [
        {
          "internalType": "uint256",
          "name": "tokenId",
          "type": "uint256"
        }
      ],
      "name": "tokenURI",
      "outputs": [
        {
          "internalType": "string",
          "name": "",
          "type": "string"
        }
      ],
      "stateMutability": "view",
      "type": "function"
    },
    {
      "inputs": [],
      "name": "totalSupply",
      "outputs": [
        {
          "internalType": "uint256",
          "name": "",
          "type": "uint256"
        }
      ],
      "stateMutability": "view",
      "type": "function"
    },
    {
      "inputs": [
        {
          "internalType": "address",
          "name": "",
          "type": "address"
        },
        {
          "internalType": "address",
          "name": "",
          "type": "address"
        },
        {
          "internalType": "uint256",
          "name": "",
          "type": "uint256"
        }
      ],
      "name": "transferFrom",
      "outputs": [],
      "stateMutability": "pure",
      "type": "function"
    }
  ],
  "bytecode": "0x6080806040523461001b57600160005561238e90816100218239f35b600080fdfe60806040908082526004908136101561001757600080fd5b60009160e0833560e01c92836306fdde03146111cc57508263081812fc146111b6578263095ea7b31461119757826318160ddd1461115957826323b872dd1461115457826342842e0e146111545782636352211e146110f757826365824c4214610a7d57826365a0debf14610964575081636cdbeee01461064257816370a08231146105985781637ce17852146105755781639560bc851461055257816395d89b411461050d578163a22cb465146104e5578163b88d4fde14610483578163c87b56dd146103e2578163e985e9c5146103b4578163f1c49c62146101b4575063f7ee43cc1461010557600080fd5b346101b157806003193601126101b1577f9678e342c7a34bfe5ad1b5d563e2e6bc8acab7b355ab22b43ab10176c7c41d8480549061014282611a5f565b9261014f85519485611332565b82845290815260207f28ace290b948779414a2bde94b28bab18367cb5e82b0f18d9437bb86c01146b78185015b84841061019457865180610190888261141c565b0390f35b6009836001926101a385611b55565b81520192019301929061017c565b80fd5b9050346103b057602091826003193601126101b1576101d1611262565b7f9678e342c7a34bfe5ad1b5d563e2e6bc8acab7b355ab22b43ab10176c7c41d835491928392916001600160a01b0390811691845b84811061037d575061022f61021a87611a5f565b966102278a519889611332565b808852611a5f565b601f190187865b828110610367575050508491855b8581106102aa5750505050505083519280840190808552835180925280868601968360051b870101940192955b82871061027e5785850386f35b90919293828061029a600193603f198a820301865288516113ab565b9601920196019592919092610271565b886102b4826119ef565b508b878560068094015416146102d0575b505050600101610244565b918484979261035c946102e46001976119ef565b50908051946102f2866112c7565b82548652888301549086015261030a60028301611ab0565b9085015261031a60038201611ab0565b606085015288810154608085015261033460058201611ab0565b60a085015201541660c082015261034b828c611a9c565b52610356818b611a9c565b50611c41565b93905088388b6102c5565b61036f611631565b82828b010152018890610236565b8383600661038a846119ef565b500154161461039c575b600101610206565b956103a8600191611c41565b969050610394565b5080fd5b8284346103b057806003193601126103b057906020916103d2611262565b506103db61127d565b5051908152f35b8391503461047f57602036600319011261047f57358083527f9678e342c7a34bfe5ad1b5d563e2e6bc8acab7b355ab22b43ab10176c7c41d85602052818320546101909361046c928492610440906001600160a01b031615156115ec565b81527f9678e342c7a34bfe5ad1b5d563e2e6bc8acab7b355ab22b43ab10176c7c41d8760205220611ab0565b905191829160208352602083019061123d565b8280fd5b9050346103b05760803660031901126103b05761049e611262565b506104a761127d565b506064359067ffffffffffffffff908183116104e157366023840112156104e15782013590811161047f5736910160240111156115af5780fd5b8380fd5b8284346103b0573660031901126101b1576104fe611262565b506024358015151461156a5780fd5b9050823461047f578260031936011261047f57610190925080519161053183611316565b82526310d1549560e21b60208301525191829160208352602083019061123d565b8284346103b057816003193601126103b05760209051670de0b6b3a76400008152f35b8284346103b057816003193601126103b05760209051671bc16d674ec800008152f35b919050346101b15760203660031901126101b157506105b5611262565b906001600160a01b0382161561060b576020836106038460018060a01b03166000527f9678e342c7a34bfe5ad1b5d563e2e6bc8acab7b355ab22b43ab10176c7c41d86602052604060002090565b549051908152f35b606490602084519162461bcd60e51b835282015260116024820152705342543a207a65726f206164647265737360781b6044820152fd5b9050823461047f5761010091826003193601126104e157610661611262565b916024359367ffffffffffffffff94858111610960576106849036908501611354565b9060443586811161095c5761069c9036908601611354565b606435878111610958576106b39036908701611354565b90608435888111610954576106cb9036908801611354565b9860a4358981116103b0576106e39036908901611354565b9860e4359081116103b0576106fb9036908901611354565b977f9678e342c7a34bfe5ad1b5d563e2e6bc8acab7b355ab22b43ab10176c7c41d7c9485549561072a87611c41565b90558751996107388b611316565b60018b52835b60208082101561075957906060602092828f0101520161073e565b50508a908d8d61076884611a8f565b5261077283611a8f565b508a519661077f886112f9565b3388528960208901528a8c890152606088015287608088015260a087015260c086015260e085015260c435908401528482527f9678e342c7a34bfe5ad1b5d563e2e6bc8acab7b355ab22b43ab10176c7c41d816020526107e183888420611c66565b7f9678e342c7a34bfe5ad1b5d563e2e6bc8acab7b355ab22b43ab10176c7c41d84928354600160401b9485821015610941576001820180825582101561092e579160096108579261089095948752027f28ace290b948779414a2bde94b28bab18367cb5e82b0f18d9437bb86c01146b701611c66565b6001600160a01b031660009081527f9678e342c7a34bfe5ad1b5d563e2e6bc8acab7b355ab22b43ab10176c7c41d826020526040902090565b9081549283101561091b576020877f910431b275ccd55d9670c790a832f6f9f3e9ede745c61df9a0629fec129ecf358888610911896108d58a8a600182018155611a77565b81549060031b9085821b91600019901b191617905561090486519485948552606089860152606085019061123d565b908382038785015261123d565b0390a15160018152f35b634e487b7160e01b815260418852602490fd5b634e487b7160e01b855260328b52602485fd5b634e487b7160e01b855260418b52602485fd5b8980fd5b8880fd5b8780fd5b8680fd5b8390853461047f576020806003193601126104e157610984610857611262565b9081549161099183611a5f565b9461099e85519687611332565b838652601f196109ad85611a5f565b019083885b838110610a335750505050855b8381106109d357845180610190888261141c565b806109e060019284611a77565b90549060031b1c88527f9678e342c7a34bfe5ad1b5d563e2e6bc8acab7b355ab22b43ab10176c7c41d818452610a17868920611b55565b610a218289611a9c565b52610a2c8188611a9c565b50016109bf565b8751610a3e816112f9565b8a81528a838201526060808a83015280808301528060808301528060a08301528060c0830152848201528a61010082015282828b0101520184906109b2565b8382863461047f5760c036600319011261047f5781359060249384359367ffffffffffffffff9485811161047f57610ab89036908301611354565b906044358681116104e157610ad09036908301611354565b6064358781116110f357610ae79036908401611354565b916084359760a43581811161096057610b039036908401611354565b610b0b611631565b508887527f9678e342c7a34bfe5ad1b5d563e2e6bc8acab7b355ab22b43ab10176c7c41d7d9960209a808c52898920338a528c5260ff8a8a2054166110b15791818b878e9f95829f9e8f9998968f8f918f928f90808f610be29860809887945281528282209033835252209d60019e8f60ff19825416179055610bc984519889968388019b8c52610ba481518092868a8c01910161121a565b8701610bb882518093868a8501910161121a565b01918351938491878501910161121a565b0191820152426060820152036060810184520182611332565b5190209c8d9c8c519d8e610bf5816112c7565b528d0152888b8d01528760608d015260808c01528560a08c01523360c08c01528b89527f9678e342c7a34bfe5ad1b5d563e2e6bc8acab7b355ab22b43ab10176c7c41d808d52610c478b8b8b206116bb565b7f9678e342c7a34bfe5ad1b5d563e2e6bc8acab7b355ab22b43ab10176c7c41d83805490600160401b82101561109f578682019055610c85906119ef565b61108e578b610c93916116bb565b610cf78d8b51610ca281611316565b601881527f436f7572736520636f6d706c6574696f6e207265776172640000000000000000828201528c518093819263112232f560e31b8352338a84015260038984015260606044840152606483019061123d565b03818d305af1801561108457611051575b50331561100e578b89527f9678e342c7a34bfe5ad1b5d563e2e6bc8acab7b355ab22b43ab10176c7c41d85808e528a8a20546001600160a01b0316610fcc578c8a528d5289892080546001600160a01b0319163390811790915560009081527f9678e342c7a34bfe5ad1b5d563e2e6bc8acab7b355ab22b43ab10176c7c41d8660205260409020805490868201809211610fba57558b89527f9678e342c7a34bfe5ad1b5d563e2e6bc8acab7b355ab22b43ab10176c7c41d878d52898920918151908111610fa8578d610ddb845461166a565b90601f8211610f6f575b50508d80601f8311600114610f0c57508190610e17938c92610f01575b50508160011b916000199060031b1c19161790565b90555b7f9678e342c7a34bfe5ad1b5d563e2e6bc8acab7b355ab22b43ab10176c7c41d88918254938401809411610ef057505093610ecc8994610ebf6101909a99989560808e610eda977f95ad50d6596337460bdce4b8db70313463e0615be9266b573e781327aef44e099b55898c519a8b9a33907fddf252ad1be2c89b69c2b068fc378daa952ba7f163c4a11628f55a4df523b3ef8180a48952880152608087019061123d565b908582038987015261123d565b90838203606085015261123d565b0390a180805195869586528501528301906113ab565b634e487b7160e01b88526011905286fd5b015190508f80610e02565b848c52808c208894909291601f198516908e905b828210610f565750508411610f3d575b505050811b019055610e1a565b015160001960f88460031b161c191690558e8080610f30565b8484015186558b97909501949384019390810190610f20565b848c52808c20610f9792601f850160051c8201928510610f9e575b601f0160051c01906116a4565b8e8e610de5565b9091508190610f8a565b634e487b7160e01b8a5260418552838afd5b634e487b7160e01b8b5260118652848bfd5b8a5162461bcd60e51b81528086018f90526019818601527f5342543a20746f6b656e20616c7265616479206d696e746564000000000000006044820152606490fd5b50885162461bcd60e51b81528084018d90526019818401527f5342543a206d696e7420746f207a65726f2061646472657373000000000000006044820152606490fd5b8d81813d831161107d575b6110668183611332565b81010312610954575180151503610958578d610d08565b503d61105c565b8b513d8c823e3d90fd5b634e487b7160e01b8a52898552838afd5b634e487b7160e01b8b5260418652848bfd5b895162461bcd60e51b81528086018d9052601d818f01527f416c726561647920636f6d706c65746564207468697320636f757273650000006044820152606490fd5b8480fd5b8385833461047f57602036600319011261047f573582527f9678e342c7a34bfe5ad1b5d563e2e6bc8acab7b355ab22b43ab10176c7c41d85602090815291819020546001600160a01b03169061114e8215156115ec565b51908152f35b611293565b8385346103b057816003193601126103b0576020907f9678e342c7a34bfe5ad1b5d563e2e6bc8acab7b355ab22b43ab10176c7c41d88549051908152f35b8385346103b0573660031901126101b1576111b0611262565b5061156a565b83346101b15760203660031901121561156a5780fd5b8490863461047f578260031936011261047f5761019092506111ed82611316565b600e82526d10d95c9d1a599a58d85d1954d09560921b60208301525191829160208352602083019061123d565b60005b83811061122d5750506000910152565b818101518382015260200161121d565b906020916112568151809281855285808601910161121a565b601f01601f1916010190565b600435906001600160a01b038216820361127857565b600080fd5b602435906001600160a01b038216820361127857565b34611278576060366003190112611278576001600160a01b036004358181160361127857602435908116146115af57600080fd5b60e0810190811067ffffffffffffffff8211176112e357604052565b634e487b7160e01b600052604160045260246000fd5b610120810190811067ffffffffffffffff8211176112e357604052565b6040810190811067ffffffffffffffff8211176112e357604052565b90601f8019910116810190811067ffffffffffffffff8211176112e357604052565b81601f820112156112785780359067ffffffffffffffff82116112e35760405192611389601f8401601f191660200185611332565b8284526020838301011161127857816000926020809301838601378301015290565b90815181526020820151602082015260c06114096113ed6113db604086015160e0604087015260e086019061123d565b6060860151858203606087015261123d565b6080850151608085015260a085015184820360a086015261123d565b928101516001600160a01b031691015290565b602081016020825282518091526040820191602060408360051b8301019401926000915b83831061144f57505050505090565b9091929394603f198282030183528551906114e86114d56114c26114af61149c61012060018060a01b0388511687526020880151602088015260408801519080604089015287019061123d565b606080880151908783039088015261123d565b608080870151908683039087015261123d565b60a080860151908583039086015261123d565b60c080850151908483039085015261123d565b9160e092838201519383820390840152835180825260208201906020808260051b85010196019260005b82811061153f57505050505060019260209283926101008091015191015297019301930191939290611440565b909192939660208061155d600193601f198782030189528b5161123d565b9901950193929101611512565b60405162461bcd60e51b815260206004820152601760248201527f5342543a20617070726f76616c732064697361626c65640000000000000000006044820152606490fd5b60405162461bcd60e51b81526020600482015260156024820152745342543a206e6f6e2d7472616e7366657261626c6560581b6044820152606490fd5b156115f357565b60405162461bcd60e51b815260206004820152601660248201527529a12a1d103737b732bc34b9ba32b73a103a37b5b2b760511b6044820152606490fd5b6040519061163e826112c7565b600060c08382815282602082015260606040820152606080820152826080820152606060a08201520152565b90600182811c9216801561169a575b602083101461168457565b634e487b7160e01b600052602260045260246000fd5b91607f1691611679565b8181106116af575050565b600081556001016116a4565b919080518355600192602093848301518183015560028201604084015180519167ffffffffffffffff928381116112e3576116f6825461166a565b92601f938a8582116119c0575b5050899084831160011461195c5761173392916000918361181e5750508160011b916000199060031b1c19161790565b90555b6003840160608601518051908482116112e357611753835461166a565b8a85821161192d575b505089908483116001146118c95761178c92916000918361181e5750508160011b916000199060031b1c19161790565b90555b60808501516004850155600584019260a08601519788519384116112e3576117b7855461166a565b838111611891575b508092841160011461182957505090806117f492600696979860009261181e5750508160011b916000199060031b1c19161790565b90555b019060c060018060a01b03910151166bffffffffffffffffffffffff60a01b825416179055565b015190503880610e02565b909291601f198316988560005282600020926000905b8b821061187a57505083600698999a10611861575b505050811b0190556117f7565b015160001960f88460031b161c19169055388080611854565b80878596829496860151815501950193019061183f565b6118ba9086600052826000208580880160051c8201928589106118c0575b0160051c01906116a4565b386117bf565b925081926118af565b869291601f19831691856000528c600020928d6000905b82821061191657505084116118fd575b505050811b01905561178f565b015160001960f88460031b161c191690553880806118f0565b8385015186558b979095019493840193018e6118e0565b611955918560005286826000209181870160051c83019387106118c0570160051c01906116a4565b388a61175c565b869291601f19831691856000528c600020928d6000905b8282106119a95750508411611990575b505050811b019055611736565b015160001960f88460031b161c19169055388080611983565b8385015186558b979095019493840193018e611973565b6119e8918560005286826000209181870160051c83019387106118c0570160051c01906116a4565b388a611703565b7f9678e342c7a34bfe5ad1b5d563e2e6bc8acab7b355ab22b43ab10176c7c41d83908154811015611a4957600791600052027f743d71fed9e5e4813803f5d0fd172d23e84b512efea4d93f9f45a61445cea91d0190600090565b634e487b7160e01b600052603260045260246000fd5b67ffffffffffffffff81116112e35760051b60200190565b8054821015611a495760005260206000200190600090565b805115611a495760200190565b8051821015611a495760209160051b010190565b90604051918260008254611ac38161166a565b90818452602094600191600181169081600014611b335750600114611af4575b505050611af292500383611332565b565b600090815285812095935091905b818310611b1b575050611af29350820101388080611ae3565b85548884018501529485019487945091830191611b02565b92505050611af294925060ff191682840152151560051b820101388080611ae3565b90604051611b62816112f9565b809260018060a01b038154168252600180820154906020916020850152611b8b60028401611ab0565b6040850152611b9c60038401611ab0565b6060850152611bad60048401611ab0565b6080850152611bbe60058401611ab0565b60a0850152611bcf60068401611ab0565b60c085015260078301805490611be482611a5f565b93611bf26040519586611332565b828552602085019160005260206000206000925b848410611c26575050505050506101009160089160e08501520154910152565b85838192611c3385611ab0565b815201920193019290611c06565b6000198114611c505760010190565b634e487b7160e01b600052601160045260246000fd5b9060018060a01b038151166bffffffffffffffffffffffff60a01b835416178255600160209081830151818501556002840191604084015180519367ffffffffffffffff948581116112e357611cbc825461166a565b92601f9384811161232a575b5084908483116001146122c857611cf792916000918361181e5750508160011b916000199060031b1c19161790565b90555b60039182870160608701518051908782116112e357611d19835461166a565b85811161229a575b50839085831160011461223957611d5092916000918361181e5750508160011b916000199060031b1c19161790565b90555b6004808801608088015180519088821161222457611d71835461166a565b8681116121f6575b50849086831160011461219557611da892916000918361181e5750508160011b916000199060031b1c19161790565b90555b60059283890160a08901518051908982116120f357611dca835461166a565b848111612169575b50859084831160011461210857611e0192916000918361181e5750508160011b916000199060031b1c19161790565b90555b6006890160c08901518051908982116120f357611e21835461166a565b8481116120bd575b50859084831160011461205c57611e5892916000918361181e5750508160011b916000199060031b1c19161790565b90555b600789019160e089015195865196600160401b88116120475785908554898755808a10611fce575b506000958652868620959791015b888810611eb05750505050505050505050506101006008910151910155565b80519081518c8111611fb9578b918991611eca8a5461166a565b898111611f83575b508294898211600114611f125790808596611f039360009261181e5750508160011b916000199060031b1c19161790565b89555b01960197019694611e91565b94601f198216908b600052846000209160005b818110611f605750908697848895949310611f48575b505050811b018955611f06565b0151600019838b1b60f8161c19169055388080611f3b565b9497939686929691938786015181550195019301928f95929693918d9592611f25565b611faa908b600052846000208b8085018a1c820192878610611fb0575b01891c01906116a4565b38611ed2565b92508192611fa0565b604186634e487b7160e01b6000525260246000fd5b866000528a8a8460002092830192015b828110611fec575050611e83565b9091929350611ffb815461166a565b8061200d575b5001908a889392611fde565b8781116001146120235750600081555b38612001565b60009082825261203e898c842092018d1c82018583016116a4565b8183555561201d565b604183634e487b7160e01b6000525260246000fd5b899291601f1983169185600052886000209260005b8a8282106120a7575050841161208f575b505050811b019055611e5b565b0151600019838b1b60f8161c19169055388080612082565b8385015186558e97909501949384019301612071565b6120e4908460005287600020868086018b1c8201928a87106120ea575b018a1c01906116a4565b38611e29565b925081926120da565b604185634e487b7160e01b6000525260246000fd5b899291601f1983169185600052886000209260005b8a828210612153575050841161213b575b505050811b019055611e04565b0151600019838b1b60f8161c1916905538808061212e565b8385015186558e9790950194938401930161211d565b61218f908460005287600020868086018b1c8201928a87106120ea57018a1c01906116a4565b38611dd2565b889291601f1983169185600052876000209260005b898282106121e057505084116121c8575b505050811b019055611dab565b0151600019838a1b60f8161c191690553880806121bb565b8385015186558d979095019493840193016121aa565b61221e9084600052866000208880860160051c8201928987106118c0570160051c01906116a4565b38611d79565b604184634e487b7160e01b6000525260246000fd5b879291601f1983169185600052866000209260005b88828210612284575050841161226c575b505050811b019055611d53565b015160001983891b60f8161c1916905538808061225f565b8385015186558c9790950194938401930161224e565b6122c29084600052856000208780860160051c8201928887106118c0570160051c01906116a4565b38611d21565b869291601f1983169185600052876000209260005b8982821061231457505084116122fb575b505050811b019055611cfa565b015160001960f88460031b161c191690553880806122ee565b8385015186558b979095019493840193016122dd565b6123529084600052866000208680860160051c8201928987106118c0570160051c01906116a4565b38611cc856fea2646970667358221220cc1a8994b3450669119f2b73ca49578e47677d4a189878fc8d74fe49368dc76564736f6c63430008180033",
  "linkReferences": {},
  "deployedLinkReferences": {}
}