{
  "_format": "hh-sol-artifact-1",
  "contractName": "Add_Swap_Contract",
  "sourceName": "contracts/Add_Swap_Contract.sol",
  "abi": [
    {
      "inputs": [
        {
          "internalType": "address",
          "name": "_swapRouter",
          "type": "address"
        },
        {
          "internalType": "address",
          "name": "_positionManager",
          "type": "address"
        },
        {
          "internalType": "address",
          "name": "_pool",
          "type": "address"
        }
      ],
      "stateMutability": "nonpayable",
      "type": "constructor"
    },
    {
      "anonymous": false,
      "inputs": [
        {
          "indexed": true,
          "internalType": "uint256",
          "name": "id",
          "type": "uint256"
        },
        {
          "indexed": true,
          "internalType": "enum Add_Swap_Contract.TransactionType",
          "name": "transactionType",
          "type": "uint8"
        },
        {
          "indexed": false,
          "internalType": "bytes32",
          "name": "txHash",
          "type": "bytes32"
        },
        {
          "indexed": true,
          "internalType": "address",
          "name": "user",
          "type": "address"
        }
      ],
      "name": "TransactionAdded",
      "type": "event"
    },
    {
      "inputs": [
        {
          "internalType": "uint256",
          "name": "amount0Desired",
          "type": "uint256"
        },
        {
          "internalType": "uint256",
          "name": "amount1Desired",
          "type": "uint256"
        }
      ],
      "name": "addLiquidity",
      "outputs": [
        {
          "internalType": "uint256",
          "name": "tokenId",
          "type": "uint256"
        }
      ],
      "stateMutability": "nonpayable",
      "type": "function"
    },
    {
      "inputs": [
        {
          "internalType": "uint256",
          "name": "amount0Desired",
          "type": "uint256"
        },
        {
          "internalType": "uint256",
          "name": "amount1Desired",
          "type": "uint256"
        },
        {
          "internalType": "int24",
          "name": "tickLower",
          "type": "int24"
        },
        {
          "internalType": "int24",
          "name": "tickUpper",
          "type": "int24"
        }
      ],
      "name": "addLiquidityWithRange",
      "outputs": [
        {
          "internalType": "uint256",
          "name": "tokenId",
          "type": "uint256"
        }
      ],
      "stateMutability": "nonpayable",
      "type": "function"
    },
    {
      "inputs": [
        {
          "internalType": "enum Add_Swap_Contract.TransactionType",
          "name": "transactionType",
          "type": "uint8"
        },
        {
          "internalType": "string",
          "name": "fromToken",
          "type": "string"
        },
        {
          "internalType": "string",
          "name": "toToken",
          "type": "string"
        },
        {
          "internalType": "uint256",
          "name": "fromAmount",
          "type": "uint256"
        },
        {
          "internalType": "uint256",
          "name": "toAmount",
          "type": "uint256"
        },
        {
          "internalType": "bytes32",
          "name": "txHash",
          "type": "bytes32"
        }
      ],
      "name": "addTransactionToHistory",
      "outputs": [],
      "stateMutability": "nonpayable",
      "type": "function"
    },
    {
      "inputs": [
        {
          "internalType": "uint256",
          "name": "",
          "type": "uint256"
        }
      ],
      "name": "allTransactions",
      "outputs": [
        {
          "internalType": "uint256",
          "name": "id",
          "type": "uint256"
        },
        {
          "internalType": "enum Add_Swap_Contract.TransactionType",
          "name": "transactionType",
          "type": "uint8"
        },
        {
          "internalType": "string",
          "name": "fromToken",
          "type": "string"
        },
        {
          "internalType": "string",
          "name": "toToken",
          "type": "string"
        },
        {
          "internalType": "uint256",
          "name": "fromAmount",
          "type": "uint256"
        },
        {
          "internalType": "uint256",
          "name": "toAmount",
          "type": "uint256"
        },
        {
          "internalType": "uint256",
          "name": "timestamp",
          "type": "uint256"
        },
        {
          "internalType": "bytes32",
          "name": "hash",
          "type": "bytes32"
        },
        {
          "internalType": "string",
          "name": "status",
          "type": "string"
        }
      ],
      "stateMutability": "view",
      "type": "function"
    },
    {
      "inputs": [
        {
          "internalType": "uint256",
          "name": "tokenId",
          "type": "uint256"
        }
      ],
      "name": "approvePositionManager",
      "outputs": [],
      "stateMutability": "nonpayable",
      "type": "function"
    },
    {
      "inputs": [
        {
          "internalType": "uint256",
          "name": "tokenId",
          "type": "uint256"
        }
      ],
      "name": "collectFees",
      "outputs": [
        {
          "internalType": "uint256",
          "name": "amount0",
          "type": "uint256"
        },
        {
          "internalType": "uint256",
          "name": "amount1",
          "type": "uint256"
        }
      ],
      "stateMutability": "nonpayable",
      "type": "function"
    },
    {
      "inputs": [],
      "name": "fee",
      "outputs": [
        {
          "internalType": "uint24",
          "name": "",
          "type": "uint24"
        }
      ],
      "stateMutability": "view",
      "type": "function"
    },
    {
      "inputs": [],
      "name": "getAllTransactionHistory",
      "outputs": [
        {
          "components": [
            {
              "internalType": "uint256",
              "name": "id",
              "type": "uint256"
            },
            {
              "internalType": "enum Add_Swap_Contract.TransactionType",
              "name": "transactionType",
              "type": "uint8"
            },
            {
              "internalType": "string",
              "name": "fromToken",
              "type": "string"
            },
            {
              "internalType": "string",
              "name": "toToken",
              "type": "string"
            },
            {
              "internalType": "uint256",
              "name": "fromAmount",
              "type": "uint256"
            },
            {
              "internalType": "uint256",
              "name": "toAmount",
              "type": "uint256"
            },
            {
              "internalType": "uint256",
              "name": "timestamp",
              "type": "uint256"
            },
            {
              "internalType": "bytes32",
              "name": "hash",
              "type": "bytes32"
            },
            {
              "internalType": "string",
              "name": "status",
              "type": "string"
            }
          ],
          "internalType": "struct Add_Swap_Contract.Transaction[]",
          "name": "",
          "type": "tuple[]"
        }
      ],
      "stateMutability": "view",
      "type": "function"
    },
    {
      "inputs": [],
      "name": "getCurrentTick",
      "outputs": [
        {
          "internalType": "int24",
          "name": "tick",
          "type": "int24"
        }
      ],
      "stateMutability": "view",
      "type": "function"
    },
    {
      "inputs": [],
      "name": "getPool",
      "outputs": [
        {
          "internalType": "address",
          "name": "",
          "type": "address"
        }
      ],
      "stateMutability": "view",
      "type": "function"
    },
    {
      "inputs": [],
      "name": "getPoolBalances",
      "outputs": [
        {
          "internalType": "uint256",
          "name": "bal0",
          "type": "uint256"
        },
        {
          "internalType": "uint256",
          "name": "bal1",
          "type": "uint256"
        }
      ],
      "stateMutability": "view",
      "type": "function"
    },
    {
      "inputs": [],
      "name": "getPoolInfo",
      "outputs": [
        {
          "internalType": "uint160",
          "name": "sqrtPriceX96",
          "type": "uint160"
        },
        {
          "internalType": "int24",
          "name": "tick",
          "type": "int24"
        },
        {
          "internalType": "uint128",
          "name": "liquidity",
          "type": "uint128"
        }
      ],
      "stateMutability": "view",
      "type": "function"
    },
    {
      "inputs": [
        {
          "internalType": "uint256",
          "name": "tokenId",
          "type": "uint256"
        }
      ],
      "name": "getPosition",
      "outputs": [
        {
          "internalType": "uint128",
          "name": "liquidity",
          "type": "uint128"
        }
      ],
      "stateMutability": "view",
      "type": "function"
    },
    {
      "inputs": [
        {
          "internalType": "uint256",
          "name": "tokenId",
          "type": "uint256"
        }
      ],
      "name": "getPositionDetails",
      "outputs": [
        {
          "internalType": "address",
          "name": "positionToken0",
          "type": "address"
        },
        {
          "internalType": "address",
          "name": "positionToken1",
          "type": "address"
        },
        {
          "internalType": "uint128",
          "name": "liquidity",
          "type": "uint128"
        },
        {
          "internalType": "uint256",
          "name": "feeGrowthInside0LastX128",
          "type": "uint256"
        },
        {
          "internalType": "uint256",
          "name": "feeGrowthInside1LastX128",
          "type": "uint256"
        },
        {
          "internalType": "uint128",
          "name": "tokensOwed0",
          "type": "uint128"
        },
        {
          "internalType": "uint128",
          "name": "tokensOwed1",
          "type": "uint128"
        }
      ],
      "stateMutability": "view",
      "type": "function"
    },
    {
      "inputs": [
        {
          "internalType": "uint256",
          "name": "tokenId",
          "type": "uint256"
        }
      ],
      "name": "getPositionFees",
      "outputs": [
        {
          "internalType": "uint256",
          "name": "fees0",
          "type": "uint256"
        },
        {
          "internalType": "uint256",
          "name": "fees1",
          "type": "uint256"
        }
      ],
      "stateMutability": "view",
      "type": "function"
    },
    {
      "inputs": [],
      "name": "getTokenPrice",
      "outputs": [
        {
          "internalType": "uint256",
          "name": "price",
          "type": "uint256"
        }
      ],
      "stateMutability": "view",
      "type": "function"
    },
    {
      "inputs": [
        {
          "internalType": "address",
          "name": "_user",
          "type": "address"
        }
      ],
      "name": "getUserPositions",
      "outputs": [
        {
          "internalType": "uint256[]",
          "name": "",
          "type": "uint256[]"
        }
      ],
      "stateMutability": "view",
      "type": "function"
    },
    {
      "inputs": [
        {
          "internalType": "address",
          "name": "_user",
          "type": "address"
        }
      ],
      "name": "getUserTransactionHistory",
      "outputs": [
        {
          "components": [
            {
              "internalType": "uint256",
              "name": "id",
              "type": "uint256"
            },
            {
              "internalType": "enum Add_Swap_Contract.TransactionType",
              "name": "transactionType",
              "type": "uint8"
            },
            {
              "internalType": "string",
              "name": "fromToken",
              "type": "string"
            },
            {
              "internalType": "string",
              "name": "toToken",
              "type": "string"
            },
            {
              "internalType": "uint256",
              "name": "fromAmount",
              "type": "uint256"
            },
            {
              "internalType": "uint256",
              "name": "toAmount",
              "type": "uint256"
            },
            {
              "internalType": "uint256",
              "name": "timestamp",
              "type": "uint256"
            },
            {
              "internalType": "bytes32",
              "name": "hash",
              "type": "bytes32"
            },
            {
              "internalType": "string",
              "name": "status",
              "type": "string"
            }
          ],
          "internalType": "struct Add_Swap_Contract.Transaction[]",
          "name": "",
          "type": "tuple[]"
        }
      ],
      "stateMutability": "view",
      "type": "function"
    },
    {
      "inputs": [
        {
          "internalType": "address",
          "name": "user",
          "type": "address"
        },
        {
          "internalType": "uint256",
          "name": "tokenId",
          "type": "uint256"
        }
      ],
      "name": "ownsPosition",
      "outputs": [
        {
          "internalType": "bool",
          "name": "",
          "type": "bool"
        }
      ],
      "stateMutability": "view",
      "type": "function"
    },
    {
      "inputs": [],
      "name": "pool",
      "outputs": [
        {
          "internalType": "contract IUniswapV3Pool",
          "name": "",
          "type": "address"
        }
      ],
      "stateMutability": "view",
      "type": "function"
    },
    {
      "inputs": [],
      "name": "positionManager",
      "outputs": [
        {
          "internalType": "contract INonfungiblePositionManager",
          "name": "",
          "type": "address"
        }
      ],
      "stateMutability": "view",
      "type": "function"
    },
    {
      "inputs": [
        {
          "internalType": "uint256",
          "name": "tokenId",
          "type": "uint256"
        },
        {
          "internalType": "uint128",
          "name": "liquidity",
          "type": "uint128"
        }
      ],
      "name": "removeLiquidity",
      "outputs": [
        {
          "internalType": "uint256",
          "name": "amount0",
          "type": "uint256"
        },
        {
          "internalType": "uint256",
          "name": "amount1",
          "type": "uint256"
        }
      ],
      "stateMutability": "nonpayable",
      "type": "function"
    },
    {
      "inputs": [
        {
          "internalType": "address",
          "name": "inputToken",
          "type": "address"
        },
        {
          "internalType": "address",
          "name": "outputToken",
          "type": "address"
        },
        {
          "internalType": "uint256",
          "name": "amountIn",
          "type": "uint256"
        }
      ],
      "name": "swapExactInputSingle",
      "outputs": [
        {
          "internalType": "uint256",
          "name": "amountOut",
          "type": "uint256"
        }
      ],
      "stateMutability": "nonpayable",
      "type": "function"
    },
    {
      "inputs": [],
      "name": "swapRouter",
      "outputs": [
        {
          "internalType": "contract ISwapRouter",
          "name": "",
          "type": "address"
        }
      ],
      "stateMutability": "view",
      "type": "function"
    },
    {
      "inputs": [],
      "name": "token0",
      "outputs": [
        {
          "internalType": "address",
          "name": "",
          "type": "address"
        }
      ],
      "stateMutability": "view",
      "type": "function"
    },
    {
      "inputs": [],
      "name": "token1",
      "outputs": [
        {
          "internalType": "address",
          "name": "",
          "type": "address"
        }
      ],
      "stateMutability": "view",
      "type": "function"
    }
  ],
  "bytecode": "0x60e06040523462000102576200001f62000018620001c6565b9162000357565b604051613c7a6200052c8239608051818181610a6601528181613079015261315a015260a05181818161085c01528181611979015281816119f301528181611cb901528181611d9a01528181611fe701528181612565015281816127ea015281816128e201528181612b5501528181612ba201528181612c8601528181612d06015281816135100152818161360b01526136f3015260c0518181816102b001528181610ebe015281816115620152818161169201528181611774015281816118000152818161184c015281816120460152818161209d015261383d0152613c7a90f35b600080fd5b634e487b7160e01b600052604160045260246000fd5b90601f01601f191681019081106001600160401b038211176200013f57604052565b62000107565b906200015c6200015460405190565b92836200011d565b565b6001600160a01b031690565b90565b6001600160a01b0381165b036200010257565b905051906200015c826200016d565b909160608284031262000102576200016a620001ac848462000180565b93620001bc816020860162000180565b9360400162000180565b620001e9620041a680380380620001dd8162000145565b9283398101906200018f565b909192565b9062ffffff60a01b9060a01b5b9181191691161790565b620002156200016a6200016a9290565b62ffffff1690565b90620002316200016a620002399262000205565b8254620001ee565b9055565b6200016a906200015e906001600160a01b031682565b6200016a906200023d565b6200016a9062000253565b516001600160a01b031690565b9060208282031262000102576200016a9162000180565b6040513d6000823e3d90fd5b906001600160a01b0390620001fb565b90620002bd6200016a62000239926200025e565b825462000299565b62ffffff811662000178565b905051906200015c82620002c5565b9060208282031262000102576200016a91620002d1565b620002156200016a6200016a9262ffffff1690565b90620002316200016a6200023992620002f7565b6200016a6200016a6200016a9290565b9060001990620001fb565b906200034f6200016a620002399262000320565b825462000330565b6200038d92916200037b6200038492620003756101f460016200021d565b6200025e565b6080526200025e565b60a0526200025e565b60c052620003bf6020620003a66200037560c062000269565b630dfe168190620003b660405190565b93849260e01b90565b825260049082905afa8015620004cd57620003e69160009162000508575b506000620002a9565b6200040c6020620003fc6200037560c062000269565b63d21220a790620003b660405190565b825260049082905afa8015620004cd576200043391600091620004d3575b506001620002a9565b620004596020620004496200037560c062000269565b63ddca3f4390620003b660405190565b825260049082905afa8015620004cd57620004809160009162000498575b5060016200030c565b6200015c62000490600162000320565b60046200033b565b620004be915060203d8111620004c5575b620004b581836200011d565b810190620002e0565b3862000477565b503d620004a9565b6200028d565b620004f9915060203d811162000500575b620004f081836200011d565b81019062000276565b386200042a565b503d620004e4565b62000524915060203d81116200050057620004f081836200011d565b38620003dd56fe6080604052600436101561001257600080fd5b60003560e01c8063026b1d5f146101b25780630dfe1681146101ad57806316f0115b146101a85780632a6bc2dd146101a35780634abf5dc11461019e5780634b94f50e1461019957806352375bb11461019457806353aad1d91461018f57806360246c881461018a5780636307970314610185578063784394bc14610180578063791b98bc1461017b578063911757ba14610176578063972960c5146101715780639cd441da1461016c5780639ecceb5e14610167578063a3a8d0b614610162578063b17acdcd1461015d578063c31c9c0714610158578063c51309db14610153578063ceb920121461014e578063d21220a714610149578063d7ff071414610144578063ddca3f431461013f578063eb02c3011461013a5763fa1b8025036101c257610e9a565b610e09565b610dd8565b610d79565b610afd565b610ad5565b610a8a565b610a51565b610a39565b610a0b565b6109bd565b61091c565b6108e1565b6108c8565b610847565b610820565b61064f565b610611565b61059f565b610571565b610533565b61050f565b61037a565b61029b565b61023f565b6101dc565b60009103126101c257565b600080fd5b6001600160a01b031690565b90565b9052565b565b346101c2576101ec3660046101b7565b6102116101f7610eb9565b604051918291826001600160a01b03909116815260200190565b0390f35b6101d3916008021c6001600160a01b031690565b906101d39154610215565b6101d3600080610229565b346101c25761024f3660046101b7565b6102116101f7610234565b6101c76101d36101d3926001600160a01b031690565b6101d39061025a565b6101d390610270565b6101d690610279565b6020810192916101da9190610282565b346101c2576102ab3660046101b7565b6102117f00000000000000000000000000000000000000000000000000000000000000005b6040519182918261028b565b6001600160a01b0381165b036101c257565b905035906101da826102dc565b906020828203126101c2576101d3916102ee565b0190565b9061033361032c610322845190565b8084529260200190565b9260200190565b9060005b8181106103445750505090565b90919261036161035a6001928651815260200190565b9460200190565b929101610337565b60208082526101d392910190610313565b346101c2576102116103956103903660046102fb565b610f7f565b60405191829182610369565b600211156101c257565b905035906101da826103a1565b634e487b7160e01b600052604160045260246000fd5b90601f01601f1916810190811067ffffffffffffffff8211176103f057604052565b6103b8565b906101da61040260405190565b92836103ce565b67ffffffffffffffff81116103f057602090601f01601f19160190565b90826000939282370152565b9092919261044761044282610409565b6103f5565b938185526020850190828401116101c2576101da92610426565b9080601f830112156101c2578160206101d393359101610432565b806102e7565b905035906101da8261047c565b909160c0828403126101c2576104a583836103ab565b92602083013567ffffffffffffffff81116101c257816104c6918501610461565b92604081013567ffffffffffffffff81116101c257826104e7918301610461565b926101d36104f88460608501610482565b936105068160808601610482565b9360a001610482565b346101c25761052e61052236600461048f565b94939093929192611331565b604051005b346101c2576105433660046101b7565b61021161054e611558565b6040519182918290815260200190565b9081526040810192916101da9160200152565b346101c2576105813660046101b7565b61058961166a565b9061021161059660405190565b9283928361055e565b346101c2576105af3660046101b7565b6102116105ba61176a565b6040519182918260029190910b815260200190565b6001600160a01b0390911681526060810193926101da9290916040916105f99060020b6020830152565b01906fffffffffffffffffffffffffffffffff169052565b346101c2576106213660046101b7565b61021161062c6117f6565b604051919391938493846105cf565b906020828203126101c2576101d391610482565b346101c25761052e61066236600461063b565b61196f565b634e487b7160e01b600052602160045260246000fd5b6002111561068757565b610667565b906101da8261067d565b6101d39061068c565b6101d690610696565b60005b8381106106bb5750506000910152565b81810151838201526020016106ab565b6106ec6106f560209361030f936106e0815190565b80835293849260200190565b958691016106a8565b601f01601f191690565b805182526101d39161010061074b61073961012084016107276020870151602087019061069f565b604086015185820360408701526106cb565b606085015184820360608601526106cb565b9261075b60808201516080850152565b61076a60a082015160a0850152565b61077960c082015160c0850152565b61078860e082015160e0850152565b0151906101008184039101526106cb565b906101d3916106ff565b906107b96107af835190565b8083529160200190565b90816107cb6020830284019460200190565b926000915b8383106107df57505050505090565b909192939460206108026107fb83856001950387528951610799565b9760200190565b93019301919392906107d0565b60208082526101d3929101906107a3565b346101c2576108303660046101b7565b61021161083b611c0a565b6040519182918261080f565b346101c2576108573660046101b7565b6102117f00000000000000000000000000000000000000000000000000000000000000006102d0565b6fffffffffffffffffffffffffffffffff81166102e7565b905035906101da82610880565b91906040838203126101c2576101d3906108bf8185610482565b93602001610898565b346101c2576105896108db3660046108a5565b90611cad565b346101c2576105896108f436600461063b565b611fce565b91906040838203126101c2576101d3906109138185610482565b93602001610482565b346101c25761021161054e6109323660046108f9565b90612456565b949290979695939160e08601986000870161095a916001600160a01b03169052565b6001600160a01b031660208601526fffffffffffffffffffffffffffffffff166040850152606084015260808301526fffffffffffffffffffffffffffffffff1660a082015260c0016101da916fffffffffffffffffffffffffffffffff169052565b346101c2576102116109d86109d336600461063b565b612981565b936109e897959793919360405190565b97889788610938565b91906040838203126101c2576101d39061091381856102ee565b346101c257610211610a27610a213660046109f1565b90612a0b565b60405191829182901515815260200190565b346101c257610589610a4c36600461063b565b612b4b565b346101c257610a613660046101b7565b6102117f00000000000000000000000000000000000000000000000000000000000000006102d0565b346101c25761021161083b610aa03660046102fb565b612dde565b90916060828403126101c2576101d3610abe84846102ee565b93610acc81602086016102ee565b93604001610482565b346101c25761021161054e610aeb366004610aa5565b91612fba565b6101d360006001610229565b346101c257610b0d3660046101b7565b6102116101f7610af1565b634e487b7160e01b600052603260045260246000fd5b8054821015610b5157610b48600991600052602060002090565b91020190600090565b610b18565b6101d39081565b6101d39054610b56565b6101d3905b60ff1690565b6101d39054610b67565b634e487b7160e01b600052602260045260246000fd5b9060016002830492168015610bb2575b6020831014610bad57565b610b7c565b91607f1691610ba2565b80546000939291610bd9610bcf83610b92565b8085529360200190565b9160018116908115610c2b5750600114610bf257505050565b610c059192939450600052602060002090565b916000925b818410610c175750500190565b805484840152602090930192600101610c0a565b92949550505060ff1916825215156020020190565b906101d391610bbc565b906101da610c6492610c5b60405190565b93848092610c40565b03836103ce565b600590610c76825490565b8110156101c257610c8691610b2e565b50610c9081610b5d565b91610c9d60018301610b72565b91610caa60028201610c4a565b91610cb760038301610c4a565b91610cc460048201610b5d565b91610cd160058301610b5d565b91610cde60068201610b5d565b916101d36008610cf060078501610b5d565b9301610c4a565b95610d56610d4e610d6b979a96610d40610d5d95610d64986101d39f9d98610d339060208f610d2c6101208201966000830152565b019061069f565b8c820360408e01526106cb565b908a820360608c01526106cb565b996080890152565b60a0870152565b60c0850152565b60e0830152565b6101008184039101526106cb565b346101c257610211610d94610d8f36600461063b565b610c6b565b95610da799979995919594929460405190565b998a998a610cf7565b6101d3916008021c5b62ffffff1690565b906101d39154610db0565b6101d360146001610dc1565b346101c257610de83660046101b7565b610211610df3610dcc565b6040519182918262ffffff909116815260200190565b346101c257610211610e24610e1f36600461063b565b613346565b604051918291826fffffffffffffffffffffffffffffffff909116815260200190565b6102e78160020b90565b905035906101da82610e47565b6080818303126101c257610e728282610482565b926101d3610e838460208501610482565b93610e918160408601610e51565b93606001610e51565b346101c25761021161054e610eb0366004610e5e565b929190916133df565b6101d37f0000000000000000000000000000000000000000000000000000000000000000610279565b90610eec90610279565b600052602052604060002090565b90610f15610f09610322845490565b92600052602060002090565b9060005b818110610f265750505090565b909192610f4a610f43600192610f3b87610b5d565b815260200190565b9460010190565b929101610f19565b906101d391610efa565b906101da610c6492610f6d60405190565b93848092610f52565b6101d390610f5c565b610f966101d391610f8e606090565b506003610ee2565b610f76565b6101d36101206103f5565b906101d69061068c565b90610fbd61044283610409565b918252565b610fcc6009610fb0565b7f636f6e6669726d65640000000000000000000000000000000000000000000000602082015290565b6101d3610fc2565b634e487b7160e01b600052600060045260246000fd5b90600019905b9181191691161790565b6101d36101d36101d39290565b906110406101d361104792611023565b8254611013565b9055565b6101d3905161068c565b9060ff90611019565b9061106e6101d361104792610696565b8254611055565b9190600861101991029161108a600019841b90565b921b90565b91906110a06101d361104793611023565b908354611075565b6101da9160009161108f565b8181106110bf575050565b806110cd60006001936110a8565b016110b4565b9190601f81116110e257505050565b6110f46101da93600052602060002090565b906020601f840181900483019310611116575b6020601f9091010401906110b4565b9091508190611107565b90611129815190565b9067ffffffffffffffff82116103f05761114d826111478554610b92565b856110d3565b602090601f83116001146111885761104792916000918361117d575b5050600019600883021c1916906002021790565b015190503880611169565b601f1983169161119d85600052602060002090565b9260005b8181106111db575091600293918560019694106111c2575b50505002019055565b01516000196008601f8516021c191690553880806111b9565b919360206001819287870151815501950192016111a1565b906101da91611120565b906110406101d36110479290565b6101da9190611258906101009060089061122d81611227875190565b90611030565b611246600182016112406020880161104b565b9061105e565b61125e60028201611258604088015190565b906111f3565b61127060038201611258606088015190565b61128260048201611227608088015190565b6112946005820161122760a088015190565b6112a66006820161122760c088015190565b6112be600782016112b860e088015190565b906111fd565b0192015190565b91906112d4576101da9161120b565b610ffd565b90815491680100000000000000008310156103f057826113019160016101da95018155610b2e565b906112c5565b634e487b7160e01b600052601160045260246000fd5b600019811461132c5760010190565b611307565b93929190916113406004610b5d565b93869342939192919087611352610f9b565b9788526113629060208901610fa6565b60408701526060860152608085015260a084015260c083015260e0820152611388610ff5565b6101008201526113998160056112d9565b6113a4336002610ee2565b816113ae916112d9565b6113b86004610b5d565b6113c19061131d565b6113cc906004611030565b519033917f19c7fb851f92c8d4f19411743a614909b5753cf16d0ef77d269c04e51eaa7f0e906113fb90611023565b9161140590610696565b9261140f90610279565b9361141960405190565b908152602090a4565b6001600160a01b0381166102e7565b905051906101da82611422565b905051906101da82610e47565b61ffff81166102e7565b905051906101da8261144b565b60ff81166102e7565b905051906101da82611462565b8015156102e7565b905051906101da82611478565b60e0818303126101c2576114a18282611431565b926114af836020840161143e565b926114bd8160408501611455565b926114cb8260608301611455565b926101d36114dc8460808501611455565b936114ea8160a0860161146b565b9360c001611480565b6040513d6000823e3d90fd5b6101d36101d36101d3926001600160a01b031690565b8181029291811591840414171561132c57565b634e487b7160e01b600052601260045260246000fd5b90611548565b9190565b908115611553570490565b611528565b61159e60e06115867f0000000000000000000000000000000000000000000000000000000000000000610279565b633850c7bd9061159560405190565b93849260e01b90565b825260049082905afa908115611631576101d3916115d7916000916115ff575b506115d16115cb826114ff565b916114ff565b90611515565b6115f97801000000000000000000000000000000000000000000000000611023565b9061153e565b611620915060e03d811161162a575b61161881836103ce565b81019061148d565b50505050506115be565b503d61160e565b6114f3565b6101d3906101c7565b6101d39054611636565b905051906101da8261047c565b906020828203126101c2576101d391611649565b6116e4602061168461167f61167f600061163f565b610279565b6370a08231906116cd6116b67f0000000000000000000000000000000000000000000000000000000000000000610279565b926116c060405190565b9586948593849360e01b90565b83526001600160a01b031660048301526024820190565b03915afa9081156116315760009161174c575b509061170e602061168461167f61167f600161163f565b03915afa90811561163157600091611724575090565b6101d3915060203d8111611745575b61173d81836103ce565b810190611656565b503d611733565b611764915060203d81116117455761173d81836103ce565b386116f7565b61179860e06115867f0000000000000000000000000000000000000000000000000000000000000000610279565b825260049082905afa908115611631576000916117b3575090565b6117cb915060e03d811161162a5761161881836103ce565b5050505050905090565b905051906101da82610880565b906020828203126101c2576101d3916117d5565b61182460e06115867f0000000000000000000000000000000000000000000000000000000000000000610279565b825260049082905afa908115611631576000809190926118c2575b50909161187f60206118707f0000000000000000000000000000000000000000000000000000000000000000610279565b631a6865029061159560405190565b825260049082905afa9081156116315760009161189a575090565b6101d3915060203d81116118bb575b6118b381836103ce565b8101906117e2565b503d6118a9565b90506118dc915060e03d811161162a5761161881836103ce565b5050505061183f565b905051906101da826102dc565b906020828203126101c2576101d3916118e5565b1561190d57565b60405162461bcd60e51b815260206004820152601260248201527f4e6f7420706f736974696f6e206f776e657200000000000000000000000000006044820152606490fd5b6001600160a01b0390911681526040810192916101da9160200152565b6119bf602061199d7f0000000000000000000000000000000000000000000000000000000000000000610279565b636352211e906119b185926116c060405190565b835260048301526024820190565b03915afa8015611631576119ee91600091611a84575b506119e8335b916001600160a01b031690565b14611906565b611a177f0000000000000000000000000000000000000000000000000000000000000000610279565b9063095ea7b390611a2730610279565b9092803b156101c257611a5060008094611a5b611a4360405190565b9788968795869460e01b90565b845260048401611952565b03925af1801561163157611a6c5750565b6101da906000611a7c81836103ce565b8101906101b7565b611aa5915060203d8111611aab575b611a9d81836103ce565b8101906118f2565b386119d5565b503d611a93565b67ffffffffffffffff81116103f05760208091020190565b90610fbd61044283611ab2565b906101da611b9b6008611ae8610f9b565b94611af9611af582610b5d565b8752565b611b11611b0860018301610b72565b60208801610fa6565b611b27611b2060028301610c4a565b6040880152565b611b3d611b3660038301610c4a565b6060880152565b611b53611b4c60048301610b5d565b6080880152565b611b69611b6260058301610b5d565b60a0880152565b611b7f611b7860068301610b5d565b60c0880152565b611b95611b8e60078301610b5d565b60e0880152565b01610c4a565b610100840152565b6101d390611ad7565b90611bb5825490565b611bbe81611aca565b92611bd26020850191600052602060002090565b6000915b838310611be35750505050565b60096020600192611bf385611ba3565b815201920192019190611bd6565b6101d390611bac565b6101d36005611c01565b9190820180921161132c57565b6101d360a06103f5565b91906040838203126101c2576101d390611c458185611649565b93602001611649565b805182526101da919060809081906020818101516fffffffffffffffffffffffffffffffff1690850152611c8760408201516040860152565b611c9660608201516060860152565b0151910152565b60a0810192916101da9190611c4e565b91611cfe916020611cdd7f0000000000000000000000000000000000000000000000000000000000000000610279565b636352211e906119b18792611cf160405190565b9788948593849360e01b90565b03915afa90811561163157611d24604092611de995600091611a8457506119e8336119db565b611d958591611d8e611d876000611d7c611d81600092611d7c611d5242611d4c61012c611023565b90611c14565b97611d63611d5e611c21565b9b8c52565b6fffffffffffffffffffffffffffffffff1660208b0152565b611023565b88880152565b6060850152565b6080830152565b611dbe7f0000000000000000000000000000000000000000000000000000000000000000610279565b611dde6000630c49ccbe611dd160405190565b9788958694859360e01b90565b835260048301611c9d565b03925af191821561163157600080919093611e6d575b506040611e31919394611e1130610279565b6119b1600063b17acdcd611e2460405190565b9687958694859360e01b90565b03925af1801561163157611e425750565b611e629060403d8111611e66575b611e5a81836103ce565b810190611c2b565b5050565b503d611e50565b60409350611e319150611e8c90843d8111611e6657611e5a81836103ce565b915092611dff565b6bffffffffffffffffffffffff81166102e7565b905051906101da82611e94565b62ffffff81166102e7565b905051906101da82611eb5565b9091610180828403126101c257611ee48383611ea8565b92611ef281602085016118e5565b92611f0082604083016118e5565b92611f0e83606084016118e5565b92611f1c8160808501611ec0565b92611f2a8260a0830161143e565b92611f388360c0840161143e565b92611f468160e085016117d5565b92611f55826101008301611649565b926101d3611f67846101208501611649565b93611f768161014086016117d5565b93610160016117d5565b6101d36101d36101d3926fffffffffffffffffffffffffffffffff1690565b611fac6101d36101d39290565b6fffffffffffffffffffffffffffffffff1690565b9190820391821161132c57565b61018061201c91611fdd600090565b5060005b5061200b7f0000000000000000000000000000000000000000000000000000000000000000610279565b6119b16399fbab886116c060405190565b03915afa9182156116315760009283928391829182916121f5575b5091949093612079602061206a7f0000000000000000000000000000000000000000000000000000000000000000610279565b63f30583999061159560405190565b825260049082905afa908115611631576000916121d7575b50956120d060206120c17f0000000000000000000000000000000000000000000000000000000000000000610279565b63461413199061159560405190565b825260049082905afa8015611631576120f2916000916121b9575b5096611f80565b96846121176121016000611f9f565b916fffffffffffffffffffffffffffffffff1690565b1161218a575b505061212890611f80565b93826121376121016000611f9f565b1161214157505050565b6121806121666101d39596946115d1612160611d4c9661218596611fc1565b91611f80565b6115f9700100000000000000000000000000000000611023565b611f9f565b611f80565b96611d4c6121856121806121666121a86121b196612128989d611fc1565b6115d18a611f80565b95903861211d565b6121d1915060203d81116117455761173d81836103ce565b386120eb565b6121ef915060203d81116117455761173d81836103ce565b38612091565b93955050505061221d91506101803d811161222e575b61221581836103ce565b810190611ecd565b9a5096509997509550925050612037565b503d61220b565b1561223c57565b60405162461bcd60e51b815260206004820152601c60248201527f4d7573742070726f76696465206e6f6e2d7a65726f20616d6f756e74000000006044820152606490fd5b906020828203126101c2576101d391611480565b6001600160a01b039182168152911660208201526060810192916101da9160400152565b6101d39060a01c610db9565b6101d390546122b9565b6101d36101606103f5565b6080818303126101c2576122ee8282611649565b926101d36122ff84602085016117d5565b9361230d8160408601611649565b93606001611649565b80516001600160a01b031682526101da91906101409081906020818101516001600160a01b03169085015260408181015162ffffff169085015260608181015160020b9085015260808181015160020b9085015261237960a082015160a0860152565b61238860c082015160c0860152565b61239760e082015160e0860152565b6123a8610100820151610100860152565b610120818101516001600160a01b031690850152611c96565b610160810192916101da9190612316565b8054821015610b5157610b48600191600052602060002090565b90815491680100000000000000008310156103f057826124149160016101da950181556123d2565b9061108f565b6101d6906001600160a01b031660601b90565b602061030f9461245082809998959661245060148761245061245099869c61241a565b01918252565b806124646115446000611023565b118015612967575b61247590612235565b806124836115446000611023565b1161287f575b816124976115446000611023565b1161276f575b6124a5613833565b6124af600061163f565b916124ba600161163f565b916124c560016122c5565b339260009283928992899291426124dd61012c611023565b6124e691611c14565b986124ef6122cf565b6001600160a01b03909b168b526001600160a01b031660208b015262ffffff1660408a015260020b606089015260020b608088015260a087015260c086015261253790611023565b60e085015261254590611023565b6101008401526001600160a01b03166101208301526101408201526125897f0000000000000000000000000000000000000000000000000000000000000000610279565b638831645661259760405190565b80936125a4829360e01b90565b82526125b390600483016123c1565b03815a608094600091f190811561163157600091612740575b50916125d9336003610ee2565b836125e3916123ec565b334283918386906125f360405190565b948594612603946020870161242d565b60208201810382520361261690826103ce565b805190602001206126276004610b5d565b92600092612635600061163f565b61263e90613982565b91612649600161163f565b61265290613982565b909192429495612660610f9b565b9788526126709060208901610fa6565b60408701526060860152608085015260a084015260c083015260e0820152612696610ff5565b6101008201526126a78160056112d9565b6126b2336002610ee2565b816126bc916112d9565b6126c66004610b5d565b6126cf9061131d565b6126da906004611030565b805160009160e0016126ea905190565b9133917f19c7fb851f92c8d4f19411743a614909b5753cf16d0ef77d269c04e51eaa7f0e9061271890611023565b9161272290610696565b9261272c90610279565b9361273660405190565b908152602090a490565b612761915060803d8111612768575b61275981836103ce565b8101906122da565b50506125cc565b503d61274f565b61277f61167f61167f600161163f565b60206323b872dd9133906127b2600061279730610279565b956127bd896127a560405190565b9889978896879560e01b90565b855260048501612295565b03925af1801561163157612863575b506127dd61167f61167f600161163f565b602063095ea7b39161280e7f0000000000000000000000000000000000000000000000000000000000000000610279565b90611a5060008795612822611a4360405190565b03925af1801561163157612837575b5061249d565b6128579060203d811161285c575b61284f81836103ce565b810190612281565b612831565b503d612845565b61287a9060203d811161285c5761284f81836103ce565b6127cc565b61288f61167f61167f600061163f565b60206323b872dd9133906127b260006128a730610279565b956128b5886127a560405190565b03925af180156116315761294b575b506128d561167f61167f600061163f565b602063095ea7b3916129067f0000000000000000000000000000000000000000000000000000000000000000610279565b90611a506000869561291a611a4360405190565b03925af180156116315761292f575b50612489565b6129469060203d811161285c5761284f81836103ce565b612929565b6129629060203d811161285c5761284f81836103ce565b6128c4565b50612475826129796115446000611023565b11905061246c565b61018061299891612990600090565b506000611fdd565b03915afa908115611631576000918291829182918291829182916129c1575b5090919293949596565b955050505050506129e191506101803d811161222e5761221581836103ce565b94509450945094965094966129b7565b906129fa825190565b811015610b51576020809102010190565b610f96612a1a91610f8e600090565b90612a256000611023565b80612a346115446101d3865190565b1015612a6157612a4b612a4782856129f1565b5190565b8214612a5957600101612a25565b505050600190565b505050600090565b15612a7057565b60405162461bcd60e51b815260206004820152602d60248201527f436f6e7472616374206e6f7420617070726f76656420746f206d616e6167652060448201527f7468697320706f736974696f6e000000000000000000000000000000000000006064820152608490fd5b6101d360806103f5565b805182526020808201516001600160a01b0316908301526101da919060609081906040818101516fffffffffffffffffffffffffffffffff169085015201516fffffffffffffffffffffffffffffffff16910152565b6080810192916101da9190612ae5565b612b79602061199d7f0000000000000000000000000000000000000000000000000000000000000000610279565b03915afa801561163157612b9891600091611a8457506119e8336119db565b612bda6020612bc67f0000000000000000000000000000000000000000000000000000000000000000610279565b63081812fc906119b185926116c060405190565b03915afa90811561163157600091612dc0575b50612bfd6119db6101c730610279565b148015612d00575b612cc891612c14604092612a69565b612c816fffffffffffffffffffffffffffffffff612c6881612c5033612c40612c3b612adb565b978852565b6001600160a01b03166020870152565b6fffffffffffffffffffffffffffffffff1684860152565b6fffffffffffffffffffffffffffffffff166060830152565b612caa7f0000000000000000000000000000000000000000000000000000000000000000610279565b612cbd600063fc6f7865611e2460405190565b835260048301612b3b565b03925af190811561163157600080919092612ce257509091565b9050612cfc915060403d8111611e6657611e5a81836103ce565b9091565b50612d2a7f0000000000000000000000000000000000000000000000000000000000000000610279565b90602063e985e9c5923390612d5b612d4130610279565b95612d7a612d4e60405190565b9788958694859460e01b90565b84526001600160a01b0390811660048501521660248301526044820190565b03915afa90811561163157612c14604092612cc894600091612da2575b509250509150612c05565b612dba915060203d811161285c5761284f81836103ce565b38612d97565b612dd8915060203d8111611aab57611a9d81836103ce565b38612bed565b612df56101d391612ded606090565b506002610ee2565b611c01565b15612e0157565b60405162461bcd60e51b815260206004820152601360248201527f496e76616c696420696e70757420746f6b656e000000000000000000000000006044820152606490fd5b15612e4d57565b60405162461bcd60e51b815260206004820152601460248201527f496e76616c6964206f757470757420746f6b656e0000000000000000000000006044820152606490fd5b15612e9957565b60405162461bcd60e51b815260206004820152601660248201527f43616e6e6f7420737761702073616d6520746f6b656e000000000000000000006044820152606490fd5b6101d36101006103f5565b6101c76101d36101d39290565b80516001600160a01b031682526101da919060e09081906020818101516001600160a01b03169085015260408181015162ffffff16908501526060808201516001600160a01b031690850152612f5160808201516080860152565b612f6060a082015160a0860152565b612f6f60c082015160c0860152565b01516001600160a01b0316910152565b610100810192916101da9190612ef6565b601461030f94612fb260208396612fb2858761245061245099869f9e9b61241a565b01809261241a565b90919080612fce6119db6101c7600061163f565b148015613329575b612fdf90612dfa565b82612ff06119db6101c7600061163f565b14801561330c575b61300190612e46565b61301e816130176001600160a01b0386166119db565b1415612e92565b61302a61167f82610279565b60206323b872dd9133906127b2600061304230610279565b95613050896127a560405190565b03925af18015611631576132f0575b5061306c61167f82610279565b602063095ea7b39161309d7f0000000000000000000000000000000000000000000000000000000000000000610279565b90611a50600087956130b1611a4360405190565b03925af18015611631576132d4575b5080836130cd60016122c5565b33426130da61012c611023565b6130e391611c14565b86916000936000956130f3612ede565b6001600160a01b0390981688526001600160a01b0316602088015262ffffff1660408701526001600160a01b03166060860152608085015260a084015261313990611023565b60c083015261314790612ee9565b6001600160a01b031660e082015261317e7f0000000000000000000000000000000000000000000000000000000000000000610279565b63414bf38961318c60405190565b8093613199829360e01b90565b82526131a89060048301612f7f565b03815a602094600091f1908115611631576000916132b6575b5092334283918386906131d360405190565b9485946131e39460208701612f90565b6020820181038252036131f690826103ce565b80519060200120906132086004610b5d565b9360019361321590613982565b9161321f90613982565b869242949561322c610f9b565b97885261323c9060208901610fa6565b60408701526060860152608085015260a084015260c083015260e0820152613262610ff5565b6101008201526132738160056112d9565b61327e336002610ee2565b81613288916112d9565b6132926004610b5d565b61329b9061131d565b6132a6906004611030565b805160019160e0016126ea905190565b6132ce915060203d81116117455761173d81836103ce565b386131c1565b6132eb9060203d811161285c5761284f81836103ce565b6130c0565b6133079060203d811161285c5761284f81836103ce565b61305f565b50613001836133216119db6101c7600161163f565b149050612ff8565b50612fdf8161333e6119db6101c7600161163f565b149050612fd6565b61018061335591611fe1600090565b03915afa9081156116315760009161336b575090565b61338491506101803d811161222e5761221581836103ce565b50505050965050505050505090565b1561339a57565b60405162461bcd60e51b815260206004820152601260248201527f496e76616c6964207469636b2072616e676500000000000000000000000000006044820152606490fd5b9190926133ea600090565b50826133f96115446000611023565b118015613778575b61340a90612235565b6134288261342261341b8460020b90565b9160020b90565b12613393565b826134366115446000611023565b11613690575b8361344a6115446000611023565b116135a8575b61345a600061163f565b91613465600161163f565b9161347060016122c5565b3392600092839289928992914261348861012c611023565b61349191611c14565b9861349a6122cf565b6001600160a01b03909b168b526001600160a01b031660208b015262ffffff1660408a015260020b606089015260020b608088015260a087015260c08601526134e290611023565b60e08501526134f090611023565b6101008401526001600160a01b03166101208301526101408201526135347f0000000000000000000000000000000000000000000000000000000000000000610279565b638831645661354260405190565b809361354f829360e01b90565b825261355e90600483016123c1565b03815a608094600091f190811561163157600091613589575b5091334283918386906125f360405190565b6135a1915060803d81116127685761275981836103ce565b5050613577565b6135b861167f61167f600161163f565b60206323b872dd9133906127b260006135d030610279565b956135de8b6127a560405190565b03925af1801561163157613674575b506135fe61167f61167f600161163f565b602063095ea7b39161362f7f0000000000000000000000000000000000000000000000000000000000000000610279565b90611a5060008995613643611a4360405190565b03925af1801561163157613658575b50613450565b61366f9060203d811161285c5761284f81836103ce565b613652565b61368b9060203d811161285c5761284f81836103ce565b6135ed565b6136a061167f61167f600061163f565b60206323b872dd9133906127b260006136b830610279565b956136c68a6127a560405190565b03925af180156116315761375c575b506136e661167f61167f600061163f565b602063095ea7b3916137177f0000000000000000000000000000000000000000000000000000000000000000610279565b90611a506000889561372b611a4360405190565b03925af1801561163157613740575b5061343c565b6137579060203d811161285c5761284f81836103ce565b61373a565b6137739060203d811161285c5761284f81836103ce565b6136d5565b5061340a8461378a6115446000611023565b119050613401565b61379f6101d36101d39290565b60020b90565b6137b19060020b61341b565b900390627fffff8213627fffff1983121761132c57565b6137d49060020b61341b565b90811561155357627fffff19811460001983141661132c570590565b6137fc9060020b61341b565b02906138088260020b90565b91820361132c57565b61381d9060020b61341b565b0190627fffff198212627fffff83131761132c57565b61386160e06115867f0000000000000000000000000000000000000000000000000000000000000000610279565b825260049082905afa90811561163157600091613953575b50906138c9613888600a613792565b6138c46138bd613899610fa0613792565b6138b76138b06138a9838a6137a5565b86906137c8565b85906137f0565b96613811565b82906137c8565b6137f0565b90826138f761341b7ffffffffffffffffffffffffffffffffffffffffffffffffffffffffffff2764c613792565b12613922575b8161390d61341b620d89b4613792565b1361391457565b90506101d3620d89b4613792565b915061394d7ffffffffffffffffffffffffffffffffffffffffffffffffffffffffffff2764c613792565b916138fd565b61396b915060e03d811161162a5761161881836103ce565b505050505090613879565b61030f8160149361241a565b6139a46139b36101d392613994606090565b5060405192839160208301613976565b602082018103825203826103ce565b613ae4565b6139c26010610fb0565b7f3031323334353637383961626364656600000000000000000000000000000000602082015290565b6101d36139b8565b369037565b906101da613a0583610fb0565b92602080613a138693610409565b92019103906139f3565b90613a26825190565b811015610b51570160200190565b610b6c6101d36101d39290565b613a8090613a7b613a556101d39460ff1690565b917fff000000000000000000000000000000000000000000000000000000000000001690565b901c90565b7fff000000000000000000000000000000000000000000000000000000000000001690565b610b6c6101d36101d39260ff1690565b6101d39060f81c613aa5565b6101d36101d36101d39260ff1690565b613a80613ade6101d39290565b60f81b90565b90613aed6139eb565b613b1d613b186002613b13613b0d613b03885190565b6115d16002611023565b91611023565b611c14565b6139f8565b906030613b3483613b2e6000611023565b90613a1d565b536078613b4583613b2e6001611023565b53613b506000611023565b80613b5f6115446101d3885190565b1015613c3957613c3490613bc4613b8484613b2e613bbf613bba613baa85888e613a1d565b517fff000000000000000000000000000000000000000000000000000000000000001690565b613bb46004613a34565b90613a41565b613ab5565b613ac1565b613be98591613bdf6002613b13613b0d876115d16002611023565b9060001a92613a1d565b53613c12613b8484613b2e613bbf613c0284878d613a1d565b613c0c600f613ad1565b16613ab5565b613c2d8591613bdf6003613b13613b0d876115d16002611023565b5360010190565b613b50565b50506101d39192509056fea2646970667358221220bba825397496d83e76687ee87dee62f3193bc8d04b927b95b53c857b2421fe6164736f6c63430008180033",
  "linkReferences": {},
  "deployedLinkReferences": {}
}