{
  "_format": "hh-sol-artifact-1",
  "contractName": "LibDiamond",
  "sourceName": "contracts/DiamondProxy/DiamondLibrary/LibDiamond.sol",
  "abi": [
    {
      "inputs": [],
      "name": "COURSE_COMPLETION_REWARD",
      "outputs": [
        {
          "internalType": "uint256",
          "name": "",
          "type": "uint256"
        }
      ],
      "stateMutability": "view",
      "type": "function"
    },
    {
      "inputs": [],
      "name": "CREATE_COURSE_REWARD",
      "outputs": [
        {
          "internalType": "uint256",
          "name": "",
          "type": "uint256"
        }
      ],
      "stateMutability": "view",
      "type": "function"
    },
    {
      "inputs": [],
      "name": "ECOSYSTEM_POOL",
      "outputs": [
        {
          "internalType": "uint256",
          "name": "",
          "type": "uint256"
        }
      ],
      "stateMutability": "view",
      "type": "function"
    },
    {
      "inputs": [],
      "name": "ENROLLMENT_REWARD",
      "outputs": [
        {
          "internalType": "uint256",
          "name": "",
          "type": "uint256"
        }
      ],
      "stateMutability": "view",
      "type": "function"
    },
    {
      "inputs": [],
      "name": "MAX_SCORE",
      "outputs": [
        {
          "internalType": "uint256",
          "name": "",
          "type": "uint256"
        }
      ],
      "stateMutability": "view",
      "type": "function"
    },
    {
      "inputs": [],
      "name": "MAX_SUPPLY",
      "outputs": [
        {
          "internalType": "uint256",
          "name": "",
          "type": "uint256"
        }
      ],
      "stateMutability": "view",
      "type": "function"
    },
    {
      "inputs": [],
      "name": "MIN_APPROVAL_SCORE",
      "outputs": [
        {
          "internalType": "uint256",
          "name": "",
          "type": "uint256"
        }
      ],
      "stateMutability": "view",
      "type": "function"
    },
    {
      "inputs": [],
      "name": "QUIZ_COMPLETION_REWARD",
      "outputs": [
        {
          "internalType": "uint256",
          "name": "",
          "type": "uint256"
        }
      ],
      "stateMutability": "view",
      "type": "function"
    },
    {
      "inputs": [],
      "name": "REQUIRED_APPROVALS",
      "outputs": [
        {
          "internalType": "uint256",
          "name": "",
          "type": "uint256"
        }
      ],
      "stateMutability": "view",
      "type": "function"
    }
  ],
  "bytecode": "0x610362610052600b82828239805160001a6073146045577f4e487b7100000000000000000000000000000000000000000000000000000000600052600060045260246000fd5b30600052607381538281f3fe730000000000000000000000000000000000000000301460806040526004361061009d5760003560e01c80637ce17852116100705780637ce178521461011a578063846f8152146101385780639560bc8514610156578063ac957c6314610174578063d93f2caa146101925761009d565b8063274202f0146100a257806327ff6223146100c057806332cb6b0c146100de578063599c5533146100fc575b600080fd5b6100aa6101b0565b6040516100b79190610240565b60405180910390f35b6100c86101d8565b6040516100d59190610240565b60405180910390f35b6100e66101dd565b6040516100f39190610240565b60405180910390f35b6101046101ed565b6040516101119190610240565b60405180910390f35b6101226101f2565b60405161012f9190610240565b60405180910390f35b6101406101fe565b60405161014d9190610240565b60405180910390f35b61015e61020a565b60405161016b9190610240565b60405180910390f35b61017c610216565b6040516101899190610240565b60405180910390f35b61019a61021b565b6040516101a79190610240565b60405180910390f35b6064600f6b204fce5e3e250261100000006101cb919061028a565b6101d591906102fb565b81565b606481565b6b204fce5e3e2502611000000081565b600281565b671bc16d674ec8000081565b671bc16d674ec8000081565b670de0b6b3a764000081565b605081565b674563918244f4000081565b6000819050919050565b61023a81610227565b82525050565b60006020820190506102556000830184610231565b92915050565b7f4e487b7100000000000000000000000000000000000000000000000000000000600052601160045260246000fd5b600061029582610227565b91506102a083610227565b92508282026102ae81610227565b915082820484148315176102c5576102c461025b565b5b5092915050565b7f4e487b7100000000000000000000000000000000000000000000000000000000600052601260045260246000fd5b600061030682610227565b915061031183610227565b925082610321576103206102cc565b5b82820490509291505056fea264697066735822122045534d6f58534cd111aa07a498d4aa81d9ae31de242d2de734a9badebe22be2064736f6c634300081b0033",
  "linkReferences": {},
  "deployedLinkReferences": {}
}