{
  "_format": "hh-sol-artifact-1",
  "contractName": "Community",
  "sourceName": "contracts/Community Contracts/Community.sol",
  "abi": [
    {
      "inputs": [
        {
          "internalType": "address[]",
          "name": "_reviewers",
          "type": "address[]"
        }
      ],
      "stateMutability": "nonpayable",
      "type": "constructor"
    },
    {
      "inputs": [],
      "name": "AccessControlBadConfirmation",
      "type": "error"
    },
    {
      "inputs": [
        {
          "internalType": "address",
          "name": "account",
          "type": "address"
        },
        {
          "internalType": "bytes32",
          "name": "neededRole",
          "type": "bytes32"
        }
      ],
      "name": "AccessControlUnauthorizedAccount",
      "type": "error"
    },
    {
      "inputs": [
        {
          "internalType": "address",
          "name": "spender",
          "type": "address"
        },
        {
          "internalType": "uint256",
          "name": "allowance",
          "type": "uint256"
        },
        {
          "internalType": "uint256",
          "name": "needed",
          "type": "uint256"
        }
      ],
      "name": "ERC20InsufficientAllowance",
      "type": "error"
    },
    {
      "inputs": [
        {
          "internalType": "address",
          "name": "sender",
          "type": "address"
        },
        {
          "internalType": "uint256",
          "name": "balance",
          "type": "uint256"
        },
        {
          "internalType": "uint256",
          "name": "needed",
          "type": "uint256"
        }
      ],
      "name": "ERC20InsufficientBalance",
      "type": "error"
    },
    {
      "inputs": [
        {
          "internalType": "address",
          "name": "approver",
          "type": "address"
        }
      ],
      "name": "ERC20InvalidApprover",
      "type": "error"
    },
    {
      "inputs": [
        {
          "internalType": "address",
          "name": "receiver",
          "type": "address"
        }
      ],
      "name": "ERC20InvalidReceiver",
      "type": "error"
    },
    {
      "inputs": [
        {
          "internalType": "address",
          "name": "sender",
          "type": "address"
        }
      ],
      "name": "ERC20InvalidSender",
      "type": "error"
    },
    {
      "inputs": [
        {
          "internalType": "address",
          "name": "spender",
          "type": "address"
        }
      ],
      "name": "ERC20InvalidSpender",
      "type": "error"
    },
    {
      "inputs": [],
      "name": "ReentrancyGuardReentrantCall",
      "type": "error"
    },
    {
      "anonymous": false,
      "inputs": [
        {
          "indexed": true,
          "internalType": "uint256",
          "name": "_amount",
          "type": "uint256"
        },
        {
          "indexed": false,
          "internalType": "uint256",
          "name": "_numberOfEarlyAdopters",
          "type": "uint256"
        }
      ],
      "name": "AirdropDistributeSuccess",
      "type": "event"
    },
    {
      "anonymous": false,
      "inputs": [
        {
          "indexed": true,
          "internalType": "address",
          "name": "owner",
          "type": "address"
        },
        {
          "indexed": true,
          "internalType": "address",
          "name": "spender",
          "type": "address"
        },
        {
          "indexed": false,
          "internalType": "uint256",
          "name": "value",
          "type": "uint256"
        }
      ],
      "name": "Approval",
      "type": "event"
    },
    {
      "anonymous": false,
      "inputs": [
        {
          "indexed": true,
          "internalType": "address",
          "name": "member",
          "type": "address"
        },
        {
          "indexed": false,
          "internalType": "enum CommunityBadgeSystem.BadgeLevel",
          "name": "badge",
          "type": "uint8"
        }
      ],
      "name": "BadgeAwarded",
      "type": "event"
    },
    {
      "anonymous": false,
      "inputs": [
        {
          "indexed": true,
          "internalType": "address",
          "name": "_account",
          "type": "address"
        },
        {
          "indexed": false,
          "internalType": "uint256",
          "name": "_amount",
          "type": "uint256"
        }
      ],
      "name": "BurnSuccess",
      "type": "event"
    },
    {
      "anonymous": false,
      "inputs": [
        {
          "indexed": true,
          "internalType": "address",
          "name": "_to",
          "type": "address"
        },
        {
          "indexed": true,
          "internalType": "uint256",
          "name": "_amount",
          "type": "uint256"
        }
      ],
      "name": "CommunityPoolUpdate",
      "type": "event"
    },
    {
      "anonymous": false,
      "inputs": [
        {
          "indexed": true,
          "internalType": "address",
          "name": "project",
          "type": "address"
        },
        {
          "indexed": false,
          "internalType": "uint256",
          "name": "amount",
          "type": "uint256"
        }
      ],
      "name": "CommunityProjectFunded",
      "type": "event"
    },
    {
      "anonymous": false,
      "inputs": [
        {
          "indexed": true,
          "internalType": "uint256",
          "name": "eventId",
          "type": "uint256"
        },
        {
          "indexed": false,
          "internalType": "string",
          "name": "name",
          "type": "string"
        },
        {
          "indexed": false,
          "internalType": "address",
          "name": "creator",
          "type": "address"
        },
        {
          "indexed": false,
          "internalType": "bool",
          "name": "isOnline",
          "type": "bool"
        },
        {
          "indexed": false,
          "internalType": "string",
          "name": "location",
          "type": "string"
        }
      ],
      "name": "EventCreated",
      "type": "event"
    },
    {
      "anonymous": false,
      "inputs": [
        {
          "indexed": true,
          "internalType": "uint256",
          "name": "eventId",
          "type": "uint256"
        },
        {
          "indexed": false,
          "internalType": "address",
          "name": "participant",
          "type": "address"
        }
      ],
      "name": "EventParticipation",
      "type": "event"
    },
    {
      "anonymous": false,
      "inputs": [
        {
          "indexed": true,
          "internalType": "address",
          "name": "member",
          "type": "address"
        },
        {
          "indexed": false,
          "internalType": "uint256",
          "name": "totalEvents",
          "type": "uint256"
        }
      ],
      "name": "EventParticipationRecorded",
      "type": "event"
    },
    {
      "anonymous": false,
      "inputs": [
        {
          "indexed": true,
          "internalType": "address",
          "name": "_address",
          "type": "address"
        }
      ],
      "name": "JoinSuccess",
      "type": "event"
    },
    {
      "anonymous": false,
      "inputs": [
        {
          "indexed": true,
          "internalType": "address",
          "name": "member",
          "type": "address"
        }
      ],
      "name": "MemberRegistered",
      "type": "event"
    },
    {
      "anonymous": false,
      "inputs": [
        {
          "indexed": true,
          "internalType": "address",
          "name": "_to",
          "type": "address"
        },
        {
          "indexed": true,
          "internalType": "uint256",
          "name": "_amount",
          "type": "uint256"
        }
      ],
      "name": "MintSuccess",
      "type": "event"
    },
    {
      "anonymous": false,
      "inputs": [
        {
          "indexed": true,
          "internalType": "uint256",
          "name": "proposalId",
          "type": "uint256"
        },
        {
          "indexed": false,
          "internalType": "address",
          "name": "approver",
          "type": "address"
        }
      ],
      "name": "MultiSigProposalApproved",
      "type": "event"
    },
    {
      "anonymous": false,
      "inputs": [
        {
          "indexed": true,
          "internalType": "uint256",
          "name": "proposalId",
          "type": "uint256"
        },
        {
          "indexed": false,
          "internalType": "address",
          "name": "proposer",
          "type": "address"
        }
      ],
      "name": "MultiSigProposalCreated",
      "type": "event"
    },
    {
      "anonymous": false,
      "inputs": [
        {
          "indexed": true,
          "internalType": "uint256",
          "name": "proposalId",
          "type": "uint256"
        }
      ],
      "name": "MultiSigProposalExecuted",
      "type": "event"
    },
    {
      "anonymous": false,
      "inputs": [
        {
          "indexed": true,
          "internalType": "address",
          "name": "reviewer",
          "type": "address"
        }
      ],
      "name": "ReviewerAddedToPool",
      "type": "event"
    },
    {
      "anonymous": false,
      "inputs": [
        {
          "indexed": true,
          "internalType": "address",
          "name": "reviewer",
          "type": "address"
        }
      ],
      "name": "ReviewerRemovedFromPool",
      "type": "event"
    },
    {
      "anonymous": false,
      "inputs": [
        {
          "indexed": true,
          "internalType": "bytes32",
          "name": "role",
          "type": "bytes32"
        },
        {
          "indexed": true,
          "internalType": "bytes32",
          "name": "previousAdminRole",
          "type": "bytes32"
        },
        {
          "indexed": true,
          "internalType": "bytes32",
          "name": "newAdminRole",
          "type": "bytes32"
        }
      ],
      "name": "RoleAdminChanged",
      "type": "event"
    },
    {
      "anonymous": false,
      "inputs": [
        {
          "indexed": true,
          "internalType": "bytes32",
          "name": "role",
          "type": "bytes32"
        },
        {
          "indexed": true,
          "internalType": "address",
          "name": "account",
          "type": "address"
        },
        {
          "indexed": true,
          "internalType": "address",
          "name": "sender",
          "type": "address"
        }
      ],
      "name": "RoleGranted",
      "type": "event"
    },
    {
      "anonymous": false,
      "inputs": [
        {
          "indexed": true,
          "internalType": "bytes32",
          "name": "role",
          "type": "bytes32"
        },
        {
          "indexed": true,
          "internalType": "address",
          "name": "account",
          "type": "address"
        },
        {
          "indexed": true,
          "internalType": "address",
          "name": "sender",
          "type": "address"
        }
      ],
      "name": "RoleRevoked",
      "type": "event"
    },
    {
      "anonymous": false,
      "inputs": [
        {
          "indexed": true,
          "internalType": "address",
          "name": "from",
          "type": "address"
        },
        {
          "indexed": true,
          "internalType": "address",
          "name": "to",
          "type": "address"
        },
        {
          "indexed": false,
          "internalType": "uint256",
          "name": "value",
          "type": "uint256"
        }
      ],
      "name": "Transfer",
      "type": "event"
    },
    {
      "inputs": [],
      "name": "CHAMPION_BADGE_THRESHOLD",
      "outputs": [
        {
          "internalType": "uint256",
          "name": "",
          "type": "uint256"
        }
      ],
      "stateMutability": "view",
      "type": "function"
    },
    {
      "inputs": [],
      "name": "CHAMPION_REWARD",
      "outputs": [
        {
          "internalType": "uint256",
          "name": "",
          "type": "uint256"
        }
      ],
      "stateMutability": "view",
      "type": "function"
    },
    {
      "inputs": [],
      "name": "COMMUNITY_MANAGER",
      "outputs": [
        {
          "internalType": "bytes32",
          "name": "",
          "type": "bytes32"
        }
      ],
      "stateMutability": "view",
      "type": "function"
    },
    {
      "inputs": [],
      "name": "COMMUNITY_POOL",
      "outputs": [
        {
          "internalType": "uint256",
          "name": "",
          "type": "uint256"
        }
      ],
      "stateMutability": "view",
      "type": "function"
    },
    {
      "inputs": [],
      "name": "CONTRIBUTOR_BADGE_THRESHOLD",
      "outputs": [
        {
          "internalType": "uint256",
          "name": "",
          "type": "uint256"
        }
      ],
      "stateMutability": "view",
      "type": "function"
    },
    {
      "inputs": [],
      "name": "CONTRIBUTOR_REWARD",
      "outputs": [
        {
          "internalType": "uint256",
          "name": "",
          "type": "uint256"
        }
      ],
      "stateMutability": "view",
      "type": "function"
    },
    {
      "inputs": [],
      "name": "DEFAULT_ADMIN_ROLE",
      "outputs": [
        {
          "internalType": "bytes32",
          "name": "",
          "type": "bytes32"
        }
      ],
      "stateMutability": "view",
      "type": "function"
    },
    {
      "inputs": [],
      "name": "EVENT_PARTICIPATION_REWARD",
      "outputs": [
        {
          "internalType": "uint256",
          "name": "",
          "type": "uint256"
        }
      ],
      "stateMutability": "view",
      "type": "function"
    },
    {
      "inputs": [],
      "name": "LEADER_BADGE_THRESHOLD",
      "outputs": [
        {
          "internalType": "uint256",
          "name": "",
          "type": "uint256"
        }
      ],
      "stateMutability": "view",
      "type": "function"
    },
    {
      "inputs": [],
      "name": "LEADER_REWARD",
      "outputs": [
        {
          "internalType": "uint256",
          "name": "",
          "type": "uint256"
        }
      ],
      "stateMutability": "view",
      "type": "function"
    },
    {
      "inputs": [],
      "name": "MAX_COMMUNITY_PROJECT_FUNDING",
      "outputs": [
        {
          "internalType": "uint256",
          "name": "",
          "type": "uint256"
        }
      ],
      "stateMutability": "view",
      "type": "function"
    },
    {
      "inputs": [],
      "name": "MAX_SUPPLY",
      "outputs": [
        {
          "internalType": "uint256",
          "name": "",
          "type": "uint256"
        }
      ],
      "stateMutability": "view",
      "type": "function"
    },
    {
      "inputs": [],
      "name": "MULTISIG_APPROVER",
      "outputs": [
        {
          "internalType": "bytes32",
          "name": "",
          "type": "bytes32"
        }
      ],
      "stateMutability": "view",
      "type": "function"
    },
    {
      "inputs": [],
      "name": "PARTICIPANT_BADGE_THRESHOLD",
      "outputs": [
        {
          "internalType": "uint256",
          "name": "",
          "type": "uint256"
        }
      ],
      "stateMutability": "view",
      "type": "function"
    },
    {
      "inputs": [],
      "name": "PARTICIPANT_REWARD",
      "outputs": [
        {
          "internalType": "uint256",
          "name": "",
          "type": "uint256"
        }
      ],
      "stateMutability": "view",
      "type": "function"
    },
    {
      "inputs": [],
      "name": "REVIEWER_ROLE",
      "outputs": [
        {
          "internalType": "bytes32",
          "name": "",
          "type": "bytes32"
        }
      ],
      "stateMutability": "view",
      "type": "function"
    },
    {
      "inputs": [
        {
          "internalType": "uint256",
          "name": "",
          "type": "uint256"
        }
      ],
      "name": "abyaCommunity",
      "outputs": [
        {
          "internalType": "address",
          "name": "",
          "type": "address"
        }
      ],
      "stateMutability": "view",
      "type": "function"
    },
    {
      "inputs": [
        {
          "internalType": "address",
          "name": "newReviewer",
          "type": "address"
        }
      ],
      "name": "addReviewer",
      "outputs": [],
      "stateMutability": "nonpayable",
      "type": "function"
    },
    {
      "inputs": [
        {
          "internalType": "address",
          "name": "owner",
          "type": "address"
        },
        {
          "internalType": "address",
          "name": "spender",
          "type": "address"
        }
      ],
      "name": "allowance",
      "outputs": [
        {
          "internalType": "uint256",
          "name": "",
          "type": "uint256"
        }
      ],
      "stateMutability": "view",
      "type": "function"
    },
    {
      "inputs": [
        {
          "internalType": "address",
          "name": "spender",
          "type": "address"
        },
        {
          "internalType": "uint256",
          "name": "value",
          "type": "uint256"
        }
      ],
      "name": "approve",
      "outputs": [
        {
          "internalType": "bool",
          "name": "",
          "type": "bool"
        }
      ],
      "stateMutability": "nonpayable",
      "type": "function"
    },
    {
      "inputs": [
        {
          "internalType": "uint256",
          "name": "_proposalId",
          "type": "uint256"
        }
      ],
      "name": "approveMultiSigProposal",
      "outputs": [],
      "stateMutability": "nonpayable",
      "type": "function"
    },
    {
      "inputs": [
        {
          "internalType": "enum CommunityBadgeSystem.BadgeLevel",
          "name": "",
          "type": "uint8"
        }
      ],
      "name": "badgeMetadata",
      "outputs": [
        {
          "internalType": "string",
          "name": "name",
          "type": "string"
        },
        {
          "internalType": "string",
          "name": "iconURI",
          "type": "string"
        },
        {
          "internalType": "uint256",
          "name": "tokenReward",
          "type": "uint256"
        }
      ],
      "stateMutability": "view",
      "type": "function"
    },
    {
      "inputs": [
        {
          "internalType": "address",
          "name": "account",
          "type": "address"
        }
      ],
      "name": "balanceOf",
      "outputs": [
        {
          "internalType": "uint256",
          "name": "",
          "type": "uint256"
        }
      ],
      "stateMutability": "view",
      "type": "function"
    },
    {
      "inputs": [],
      "name": "checkMemberBadge",
      "outputs": [
        {
          "internalType": "enum CommunityBadgeSystem.BadgeLevel",
          "name": "",
          "type": "uint8"
        }
      ],
      "stateMutability": "view",
      "type": "function"
    },
    {
      "inputs": [],
      "name": "claimBadgeRewards",
      "outputs": [],
      "stateMutability": "nonpayable",
      "type": "function"
    },
    {
      "inputs": [
        {
          "internalType": "address",
          "name": "",
          "type": "address"
        }
      ],
      "name": "communityContributorRewards",
      "outputs": [
        {
          "internalType": "uint256",
          "name": "",
          "type": "uint256"
        }
      ],
      "stateMutability": "view",
      "type": "function"
    },
    {
      "inputs": [
        {
          "internalType": "uint256",
          "name": "",
          "type": "uint256"
        }
      ],
      "name": "communityEvents",
      "outputs": [
        {
          "internalType": "uint256",
          "name": "id",
          "type": "uint256"
        },
        {
          "internalType": "string",
          "name": "name",
          "type": "string"
        },
        {
          "internalType": "address",
          "name": "creator",
          "type": "address"
        },
        {
          "internalType": "uint256",
          "name": "startTime",
          "type": "uint256"
        },
        {
          "internalType": "uint256",
          "name": "endTime",
          "type": "uint256"
        },
        {
          "internalType": "uint256",
          "name": "maxParticipants",
          "type": "uint256"
        },
        {
          "internalType": "uint256",
          "name": "currentParticipants",
          "type": "uint256"
        },
        {
          "internalType": "bool",
          "name": "isActive",
          "type": "bool"
        },
        {
          "internalType": "bool",
          "name": "isOnline",
          "type": "bool"
        },
        {
          "internalType": "string",
          "name": "location",
          "type": "string"
        },
        {
          "internalType": "string",
          "name": "additionalDetails",
          "type": "string"
        }
      ],
      "stateMutability": "view",
      "type": "function"
    },
    {
      "inputs": [
        {
          "internalType": "address",
          "name": "",
          "type": "address"
        }
      ],
      "name": "communityMembers",
      "outputs": [
        {
          "internalType": "uint256",
          "name": "totalEventsAttended",
          "type": "uint256"
        },
        {
          "internalType": "uint256",
          "name": "totalContributions",
          "type": "uint256"
        },
        {
          "internalType": "enum CommunityBadgeSystem.BadgeLevel",
          "name": "currentBadge",
          "type": "uint8"
        }
      ],
      "stateMutability": "view",
      "type": "function"
    },
    {
      "inputs": [],
      "name": "communityPoolSupply",
      "outputs": [
        {
          "internalType": "uint256",
          "name": "",
          "type": "uint256"
        }
      ],
      "stateMutability": "view",
      "type": "function"
    },
    {
      "inputs": [],
      "name": "communityProjectFunds",
      "outputs": [
        {
          "internalType": "uint256",
          "name": "",
          "type": "uint256"
        }
      ],
      "stateMutability": "view",
      "type": "function"
    },
    {
      "inputs": [
        {
          "internalType": "string",
          "name": "_name",
          "type": "string"
        },
        {
          "internalType": "uint256",
          "name": "_startTime",
          "type": "uint256"
        },
        {
          "internalType": "uint256",
          "name": "_endTime",
          "type": "uint256"
        },
        {
          "internalType": "uint256",
          "name": "_maxParticipants",
          "type": "uint256"
        },
        {
          "internalType": "bool",
          "name": "_isOnline",
          "type": "bool"
        },
        {
          "internalType": "string",
          "name": "_location",
          "type": "string"
        },
        {
          "internalType": "string",
          "name": "_additionalDetails",
          "type": "string"
        }
      ],
      "name": "createEvent",
      "outputs": [
        {
          "internalType": "uint256",
          "name": "",
          "type": "uint256"
        }
      ],
      "stateMutability": "nonpayable",
      "type": "function"
    },
    {
      "inputs": [],
      "name": "decimals",
      "outputs": [
        {
          "internalType": "uint8",
          "name": "",
          "type": "uint8"
        }
      ],
      "stateMutability": "view",
      "type": "function"
    },
    {
      "inputs": [
        {
          "internalType": "uint256",
          "name": "_amount",
          "type": "uint256"
        },
        {
          "internalType": "address[]",
          "name": "earlyAdopters",
          "type": "address[]"
        }
      ],
      "name": "distributeAirdrops",
      "outputs": [
        {
          "internalType": "bool",
          "name": "",
          "type": "bool"
        }
      ],
      "stateMutability": "nonpayable",
      "type": "function"
    },
    {
      "inputs": [
        {
          "internalType": "address",
          "name": "_projectAddress",
          "type": "address"
        },
        {
          "internalType": "uint256",
          "name": "_amount",
          "type": "uint256"
        }
      ],
      "name": "fundCommunityProjects",
      "outputs": [],
      "stateMutability": "nonpayable",
      "type": "function"
    },
    {
      "inputs": [],
      "name": "getAllCommunityEvents",
      "outputs": [
        {
          "components": [
            {
              "internalType": "uint256",
              "name": "id",
              "type": "uint256"
            },
            {
              "internalType": "string",
              "name": "name",
              "type": "string"
            },
            {
              "internalType": "address",
              "name": "creator",
              "type": "address"
            },
            {
              "internalType": "uint256",
              "name": "startTime",
              "type": "uint256"
            },
            {
              "internalType": "uint256",
              "name": "endTime",
              "type": "uint256"
            },
            {
              "internalType": "uint256",
              "name": "maxParticipants",
              "type": "uint256"
            },
            {
              "internalType": "uint256",
              "name": "currentParticipants",
              "type": "uint256"
            },
            {
              "internalType": "bool",
              "name": "isActive",
              "type": "bool"
            },
            {
              "internalType": "bool",
              "name": "isOnline",
              "type": "bool"
            },
            {
              "internalType": "string",
              "name": "location",
              "type": "string"
            },
            {
              "internalType": "string",
              "name": "additionalDetails",
              "type": "string"
            }
          ],
          "internalType": "struct Community.CommunityEvent[]",
          "name": "",
          "type": "tuple[]"
        }
      ],
      "stateMutability": "view",
      "type": "function"
    },
    {
      "inputs": [],
      "name": "getAllCommunityMembers",
      "outputs": [
        {
          "internalType": "address[]",
          "name": "",
          "type": "address[]"
        }
      ],
      "stateMutability": "view",
      "type": "function"
    },
    {
      "inputs": [
        {
          "internalType": "enum CommunityBadgeSystem.BadgeLevel",
          "name": "_level",
          "type": "uint8"
        }
      ],
      "name": "getBadgeMetadata",
      "outputs": [
        {
          "components": [
            {
              "internalType": "string",
              "name": "name",
              "type": "string"
            },
            {
              "internalType": "string",
              "name": "iconURI",
              "type": "string"
            },
            {
              "internalType": "uint256",
              "name": "tokenReward",
              "type": "uint256"
            }
          ],
          "internalType": "struct CommunityBadgeSystem.BadgeMetadata",
          "name": "",
          "type": "tuple"
        }
      ],
      "stateMutability": "view",
      "type": "function"
    },
    {
      "inputs": [
        {
          "internalType": "address",
          "name": "_member",
          "type": "address"
        }
      ],
      "name": "getMemberBadge",
      "outputs": [
        {
          "internalType": "enum CommunityBadgeSystem.BadgeLevel",
          "name": "",
          "type": "uint8"
        }
      ],
      "stateMutability": "view",
      "type": "function"
    },
    {
      "inputs": [
        {
          "internalType": "address",
          "name": "_member",
          "type": "address"
        }
      ],
      "name": "getMemberBadgeDetails",
      "outputs": [
        {
          "internalType": "enum CommunityBadgeSystem.BadgeLevel",
          "name": "currentBadge",
          "type": "uint8"
        },
        {
          "internalType": "string",
          "name": "badgeName",
          "type": "string"
        },
        {
          "internalType": "string",
          "name": "iconURI",
          "type": "string"
        },
        {
          "internalType": "uint256",
          "name": "tokenReward",
          "type": "uint256"
        },
        {
          "internalType": "uint256",
          "name": "totalEventsAttended",
          "type": "uint256"
        }
      ],
      "stateMutability": "view",
      "type": "function"
    },
    {
      "inputs": [
        {
          "internalType": "bytes32",
          "name": "role",
          "type": "bytes32"
        }
      ],
      "name": "getRoleAdmin",
      "outputs": [
        {
          "internalType": "bytes32",
          "name": "",
          "type": "bytes32"
        }
      ],
      "stateMutability": "view",
      "type": "function"
    },
    {
      "inputs": [
        {
          "internalType": "address",
          "name": "_member",
          "type": "address"
        }
      ],
      "name": "getTotalEventsAttended",
      "outputs": [
        {
          "internalType": "uint256",
          "name": "",
          "type": "uint256"
        }
      ],
      "stateMutability": "view",
      "type": "function"
    },
    {
      "inputs": [
        {
          "internalType": "bytes32",
          "name": "role",
          "type": "bytes32"
        },
        {
          "internalType": "address",
          "name": "account",
          "type": "address"
        }
      ],
      "name": "grantRole",
      "outputs": [],
      "stateMutability": "nonpayable",
      "type": "function"
    },
    {
      "inputs": [
        {
          "internalType": "address",
          "name": "_member",
          "type": "address"
        },
        {
          "internalType": "enum CommunityBadgeSystem.BadgeLevel",
          "name": "_badgeLevel",
          "type": "uint8"
        }
      ],
      "name": "hasBadge",
      "outputs": [
        {
          "internalType": "bool",
          "name": "",
          "type": "bool"
        }
      ],
      "stateMutability": "view",
      "type": "function"
    },
    {
      "inputs": [
        {
          "internalType": "bytes32",
          "name": "role",
          "type": "bytes32"
        },
        {
          "internalType": "address",
          "name": "account",
          "type": "address"
        }
      ],
      "name": "hasRole",
      "outputs": [
        {
          "internalType": "bool",
          "name": "",
          "type": "bool"
        }
      ],
      "stateMutability": "view",
      "type": "function"
    },
    {
      "inputs": [
        {
          "internalType": "address",
          "name": "",
          "type": "address"
        }
      ],
      "name": "isCommunityMember",
      "outputs": [
        {
          "internalType": "bool",
          "name": "",
          "type": "bool"
        }
      ],
      "stateMutability": "view",
      "type": "function"
    },
    {
      "inputs": [
        {
          "internalType": "address",
          "name": "",
          "type": "address"
        }
      ],
      "name": "isInReviewerPool",
      "outputs": [
        {
          "internalType": "bool",
          "name": "",
          "type": "bool"
        }
      ],
      "stateMutability": "view",
      "type": "function"
    },
    {
      "inputs": [
        {
          "internalType": "address",
          "name": "account",
          "type": "address"
        }
      ],
      "name": "isReviewer",
      "outputs": [
        {
          "internalType": "bool",
          "name": "",
          "type": "bool"
        }
      ],
      "stateMutability": "view",
      "type": "function"
    },
    {
      "inputs": [],
      "name": "joinCommunity",
      "outputs": [
        {
          "internalType": "bool",
          "name": "",
          "type": "bool"
        }
      ],
      "stateMutability": "nonpayable",
      "type": "function"
    },
    {
      "inputs": [
        {
          "internalType": "uint256",
          "name": "",
          "type": "uint256"
        }
      ],
      "name": "multiSigProposals",
      "outputs": [
        {
          "internalType": "uint256",
          "name": "id",
          "type": "uint256"
        },
        {
          "internalType": "address",
          "name": "proposer",
          "type": "address"
        },
        {
          "internalType": "address",
          "name": "targetContract",
          "type": "address"
        },
        {
          "internalType": "bytes",
          "name": "data",
          "type": "bytes"
        },
        {
          "internalType": "uint256",
          "name": "approvalCount",
          "type": "uint256"
        },
        {
          "internalType": "bool",
          "name": "executed",
          "type": "bool"
        }
      ],
      "stateMutability": "view",
      "type": "function"
    },
    {
      "inputs": [],
      "name": "name",
      "outputs": [
        {
          "internalType": "string",
          "name": "",
          "type": "string"
        }
      ],
      "stateMutability": "view",
      "type": "function"
    },
    {
      "inputs": [
        {
          "internalType": "uint256",
          "name": "_eventId",
          "type": "uint256"
        }
      ],
      "name": "participateInEvent",
      "outputs": [],
      "stateMutability": "nonpayable",
      "type": "function"
    },
    {
      "inputs": [
        {
          "internalType": "uint256",
          "name": "_amount",
          "type": "uint256"
        },
        {
          "internalType": "address[]",
          "name": "earlyAdopters",
          "type": "address[]"
        }
      ],
      "name": "performAirdrop",
      "outputs": [],
      "stateMutability": "nonpayable",
      "type": "function"
    },
    {
      "inputs": [
        {
          "internalType": "address[]",
          "name": "_eligibleAddresses",
          "type": "address[]"
        },
        {
          "internalType": "uint256",
          "name": "_amount",
          "type": "uint256"
        }
      ],
      "name": "performPeriodicAirdrop",
      "outputs": [],
      "stateMutability": "nonpayable",
      "type": "function"
    },
    {
      "inputs": [
        {
          "internalType": "address[]",
          "name": "_eligibleAddresses",
          "type": "address[]"
        },
        {
          "internalType": "uint256",
          "name": "_amount",
          "type": "uint256"
        }
      ],
      "name": "periodicAirdrops",
      "outputs": [],
      "stateMutability": "nonpayable",
      "type": "function"
    },
    {
      "inputs": [
        {
          "internalType": "address",
          "name": "_contributor",
          "type": "address"
        },
        {
          "internalType": "uint256",
          "name": "_rewardAmount",
          "type": "uint256"
        }
      ],
      "name": "processCommunityRewards",
      "outputs": [],
      "stateMutability": "nonpayable",
      "type": "function"
    },
    {
      "inputs": [
        {
          "internalType": "address",
          "name": "reviewer",
          "type": "address"
        }
      ],
      "name": "removeReviewer",
      "outputs": [],
      "stateMutability": "nonpayable",
      "type": "function"
    },
    {
      "inputs": [
        {
          "internalType": "bytes32",
          "name": "role",
          "type": "bytes32"
        },
        {
          "internalType": "address",
          "name": "callerConfirmation",
          "type": "address"
        }
      ],
      "name": "renounceRole",
      "outputs": [],
      "stateMutability": "nonpayable",
      "type": "function"
    },
    {
      "inputs": [
        {
          "internalType": "uint256",
          "name": "",
          "type": "uint256"
        }
      ],
      "name": "reviewerPool",
      "outputs": [
        {
          "internalType": "address",
          "name": "",
          "type": "address"
        }
      ],
      "stateMutability": "view",
      "type": "function"
    },
    {
      "inputs": [
        {
          "internalType": "bytes32",
          "name": "role",
          "type": "bytes32"
        },
        {
          "internalType": "address",
          "name": "account",
          "type": "address"
        }
      ],
      "name": "revokeRole",
      "outputs": [],
      "stateMutability": "nonpayable",
      "type": "function"
    },
    {
      "inputs": [
        {
          "internalType": "bytes4",
          "name": "interfaceId",
          "type": "bytes4"
        }
      ],
      "name": "supportsInterface",
      "outputs": [
        {
          "internalType": "bool",
          "name": "",
          "type": "bool"
        }
      ],
      "stateMutability": "view",
      "type": "function"
    },
    {
      "inputs": [],
      "name": "symbol",
      "outputs": [
        {
          "internalType": "string",
          "name": "",
          "type": "string"
        }
      ],
      "stateMutability": "view",
      "type": "function"
    },
    {
      "inputs": [],
      "name": "totalSupply",
      "outputs": [
        {
          "internalType": "uint256",
          "name": "",
          "type": "uint256"
        }
      ],
      "stateMutability": "view",
      "type": "function"
    },
    {
      "inputs": [
        {
          "internalType": "address",
          "name": "to",
          "type": "address"
        },
        {
          "internalType": "uint256",
          "name": "value",
          "type": "uint256"
        }
      ],
      "name": "transfer",
      "outputs": [
        {
          "internalType": "bool",
          "name": "",
          "type": "bool"
        }
      ],
      "stateMutability": "nonpayable",
      "type": "function"
    },
    {
      "inputs": [
        {
          "internalType": "address",
          "name": "from",
          "type": "address"
        },
        {
          "internalType": "address",
          "name": "to",
          "type": "address"
        },
        {
          "internalType": "uint256",
          "name": "value",
          "type": "uint256"
        }
      ],
      "name": "transferFrom",
      "outputs": [
        {
          "internalType": "bool",
          "name": "",
          "type": "bool"
        }
      ],
      "stateMutability": "nonpayable",
      "type": "function"
    },
    {
      "inputs": [
        {
          "internalType": "address",
          "name": "_projectAddress",
          "type": "address"
        },
        {
          "internalType": "uint256",
          "name": "_amount",
          "type": "uint256"
        }
      ],
      "name": "transferFunds",
      "outputs": [],
      "stateMutability": "nonpayable",
      "type": "function"
    }
  ],
  "bytecode": "0x608060405234801561001057600080fd5b5060405161775838038061775883398181016040528101906100329190610b4d565b806040518060400160405280600a81526020017f4142594120544f4b454e000000000000000000000000000000000000000000008152506040518060400160405280600681526020017f414259544b4e000000000000000000000000000000000000000000000000000081525081600390816100ae9190610db7565b5080600490816100be9190610db7565b505050600160068190555060048151101561010e576040517f08c379a000000000000000000000000000000000000000000000000000000000815260040161010590610f0c565b60405180910390fd5b6101216000801b3361081160201b60201c565b506101527fdf1425bae297c2f52b4f15d18a50b1fc8cb5b981a981b1d213ed3ff92681b64d3361081160201b60201c565b5060005b81518110156102a6576101a97fc10c77be35aff266144ed64c26a1fa104bae2f284ae99ac4a34203454704a18583838151811061019657610195610f2c565b5b602002602001015161081160201b60201c565b5060078282815181106101bf576101be610f2c565b5b60200260200101519080600181540180825580915050600190039060005260206000200160009091909190916101000a81548173ffffffffffffffffffffffffffffffffffffffff021916908373ffffffffffffffffffffffffffffffffffffffff1602179055506001600960008484815181106102405761023f610f2c565b5b602002602001015173ffffffffffffffffffffffffffffffffffffffff1673ffffffffffffffffffffffffffffffffffffffff16815260200190815260200160002060006101000a81548160ff0219169083151502179055508080600101915050610156565b505060405180606001604052806040518060400160405280600881526020017f4e6577636f6d657200000000000000000000000000000000000000000000000081525081526020016040518060400160405280601a81526020017f697066733a2f2f6e6577636f6d65722d62616467652d69636f6e00000000000081525081526020016000815250600c600080600481111561034557610344610f5b565b5b600481111561035757610356610f5b565b5b8152602001908152602001600020600082015181600001908161037a9190610db7565b5060208201518160010190816103909190610db7565b506040820151816002015590505060405180606001604052806040518060400160405280600b81526020017f5061727469636970616e7400000000000000000000000000000000000000000081525081526020016040518060400160405280601d81526020017f697066733a2f2f7061727469636970616e742d62616467652d69636f6e0000008152508152602001670de0b6b3a7640000815250600c60006001600481111561044357610442610f5b565b5b600481111561045557610454610f5b565b5b815260200190815260200160002060008201518160000190816104789190610db7565b50602082015181600101908161048e9190610db7565b506040820151816002015590505060405180606001604052806040518060400160405280600b81526020017f436f6e7472696275746f7200000000000000000000000000000000000000000081525081526020016040518060400160405280601d81526020017f697066733a2f2f636f6e7472696275746f722d62616467652d69636f6e0000008152508152602001671bc16d674ec80000815250600c60006002600481111561054157610540610f5b565b5b600481111561055357610552610f5b565b5b815260200190815260200160002060008201518160000190816105769190610db7565b50602082015181600101908161058c9190610db7565b506040820151816002015590505060405180606001604052806040518060400160405280600681526020017f4c6561646572000000000000000000000000000000000000000000000000000081525081526020016040518060400160405280601881526020017f697066733a2f2f6c65616465722d62616467652d69636f6e000000000000000081525081526020016729a2241af62c0000815250600c60006003600481111561063f5761063e610f5b565b5b600481111561065157610650610f5b565b5b815260200190815260200160002060008201518160000190816106749190610db7565b50602082015181600101908161068a9190610db7565b506040820151816002015590505060405180606001604052806040518060400160405280600881526020017f4368616d70696f6e00000000000000000000000000000000000000000000000081525081526020016040518060400160405280601a81526020017f697066733a2f2f6368616d70696f6e2d62616467652d69636f6e0000000000008152508152602001673782dace9d900000815250600c600060048081111561073c5761073b610f5b565b5b600481111561074e5761074d610f5b565b5b815260200190815260200160002060008201518160000190816107719190610db7565b5060208201518160010190816107879190610db7565b50604082015181600201559050506107a86000801b3361081160201b60201c565b506107d97fc295d8a2f69016465f61012796a38346423f02058e9c426f8bc1d946bc8c84703361081160201b60201c565b5061080a7fdf1425bae297c2f52b4f15d18a50b1fc8cb5b981a981b1d213ed3ff92681b64d3361081160201b60201c565b5050610f8a565b6000610823838361090f60201b60201c565b6109045760016005600085815260200190815260200160002060000160008473ffffffffffffffffffffffffffffffffffffffff1673ffffffffffffffffffffffffffffffffffffffff16815260200190815260200160002060006101000a81548160ff0219169083151502179055506108a161097a60201b60201c565b73ffffffffffffffffffffffffffffffffffffffff168273ffffffffffffffffffffffffffffffffffffffff16847f2f8788117e7eff1d82e926ec794901d17c78024a50270940304540a733656f0d60405160405180910390a460019050610909565b600090505b92915050565b60006005600084815260200190815260200160002060000160008373ffffffffffffffffffffffffffffffffffffffff1673ffffffffffffffffffffffffffffffffffffffff16815260200190815260200160002060009054906101000a900460ff16905092915050565b600033905090565b6000604051905090565b600080fd5b600080fd5b600080fd5b6000601f19601f8301169050919050565b7f4e487b7100000000000000000000000000000000000000000000000000000000600052604160045260246000fd5b6109e48261099b565b810181811067ffffffffffffffff82111715610a0357610a026109ac565b5b80604052505050565b6000610a16610982565b9050610a2282826109db565b919050565b600067ffffffffffffffff821115610a4257610a416109ac565b5b602082029050602081019050919050565b600080fd5b600073ffffffffffffffffffffffffffffffffffffffff82169050919050565b6000610a8382610a58565b9050919050565b610a9381610a78565b8114610a9e57600080fd5b50565b600081519050610ab081610a8a565b92915050565b6000610ac9610ac484610a27565b610a0c565b90508083825260208201905060208402830185811115610aec57610aeb610a53565b5b835b81811015610b155780610b018882610aa1565b845260208401935050602081019050610aee565b5050509392505050565b600082601f830112610b3457610b33610996565b5b8151610b44848260208601610ab6565b91505092915050565b600060208284031215610b6357610b6261098c565b5b600082015167ffffffffffffffff811115610b8157610b80610991565b5b610b8d84828501610b1f565b91505092915050565b600081519050919050565b7f4e487b7100000000000000000000000000000000000000000000000000000000600052602260045260246000fd5b60006002820490506001821680610be857607f821691505b602082108103610bfb57610bfa610ba1565b5b50919050565b60008190508160005260206000209050919050565b60006020601f8301049050919050565b600082821b905092915050565b600060088302610c637fffffffffffffffffffffffffffffffffffffffffffffffffffffffffffffffff82610c26565b610c6d8683610c26565b95508019841693508086168417925050509392505050565b6000819050919050565b6000819050919050565b6000610cb4610caf610caa84610c85565b610c8f565b610c85565b9050919050565b6000819050919050565b610cce83610c99565b610ce2610cda82610cbb565b848454610c33565b825550505050565b600090565b610cf7610cea565b610d02818484610cc5565b505050565b5b81811015610d2657610d1b600082610cef565b600181019050610d08565b5050565b601f821115610d6b57610d3c81610c01565b610d4584610c16565b81016020851015610d54578190505b610d68610d6085610c16565b830182610d07565b50505b505050565b600082821c905092915050565b6000610d8e60001984600802610d70565b1980831691505092915050565b6000610da78383610d7d565b9150826002028217905092915050565b610dc082610b96565b67ffffffffffffffff811115610dd957610dd86109ac565b5b610de38254610bd0565b610dee828285610d2a565b600060209050601f831160018114610e215760008415610e0f578287015190505b610e198582610d9b565b865550610e81565b601f198416610e2f86610c01565b60005b82811015610e5757848901518255600182019150602085019450602081019050610e32565b86831015610e745784890151610e70601f891682610d7d565b8355505b6001600288020188555050505b505050505050565b600082825260208201905092915050565b7f4174206c6561737420342072657669657765727320617265207265717569726560008201527f6400000000000000000000000000000000000000000000000000000000000000602082015250565b6000610ef6602183610e89565b9150610f0182610e9a565b604082019050919050565b60006020820190508181036000830152610f2581610ee9565b9050919050565b7f4e487b7100000000000000000000000000000000000000000000000000000000600052603260045260246000fd5b7f4e487b7100000000000000000000000000000000000000000000000000000000600052602160045260246000fd5b6167bf80610f996000396000f3fe608060405234801561001057600080fd5b50600436106103da5760003560e01c80635fc610011161020a578063b519342511610125578063d7b999c7116100b8578063fad2c5f211610087578063fad2c5f214610c72578063fba2e31014610c8e578063fd55dd9214610cbe578063fdc6258a14610cdc578063ff4d712814610d0c576103da565b8063d7b999c714610be8578063dcdc510c14610c06578063dd62ed3e14610c24578063effad04014610c54576103da565b8063c9442dac116100f4578063c9442dac14610b62578063ca98e49e14610b7e578063d171d04914610bae578063d547741f14610bcc576103da565b8063b519342514610ada578063bad0dd6514610af8578063bfa0536114610b14578063c491b04c14610b32576103da565b80638c95aef91161019d578063990dc9db1161016c578063990dc9db14610a52578063a217fddf14610a6e578063a9059cbb14610a8c578063aeb47e2a14610abc576103da565b80638c95aef9146109a2578063914e72a6146109d457806391d1485414610a0457806395d89b4114610a34576103da565b806370a08231116101d957806370a08231146109065780637125a07b1461093657806373a82b5f1461096a5780637ac6692214610986576103da565b80635fc610011461085e57806361ac05e21461089857806361ac7e61146108b65780637025aac6146108d4576103da565b8063248cd810116102fa578063354c4e131161028d57806340932bf81161025c57806340932bf8146107e55780634e8604961461081a57806350447e5e1461083657806352994e2f14610840576103da565b8063354c4e131461074b57806336568abe1461077b5780633af0c688146107975780633b129a56146107c7576103da565b8063313ce567116102c9578063313ce567146106d357806332cb6b0c146106f15780633387f0c51461070f57806333df7e341461072d576103da565b8063248cd810146106275780632899df2b146106575780632f2ff15d146106875780632f676b65146106a3576103da565b806315f42df4116103725780631e3edfd9116103415780631e3edfd9146105795780632298de011461059757806323b872dd146105c7578063248a9ca3146105f7576103da565b806315f42df4146104f357806318160ddd1461050f57806318a8c3f21461052d57806319f102ec14610549576103da565b80630d74f38a116103ae5780630d74f38a1461047b5780630e75a370146104995780630ed1d5cb146104b75780630fb6d46a146104d5576103da565b8062b16fee146103df57806301ffc9a7146103fd57806306fdde031461042d578063095ea7b31461044b575b600080fd5b6103e7610d28565b6040516103f491906146ed565b60405180910390f35b61041760048036038101906104129190614774565b610ec5565b60405161042491906146ed565b60405180910390f35b610435610f3f565b6040516104429190614831565b60405180910390f35b610465600480360381019061046091906148e7565b610fd1565b60405161047291906146ed565b60405180910390f35b610483610ff4565b6040516104909190614936565b60405180910390f35b6104a1611000565b6040516104ae9190614936565b60405180910390f35b6104bf61100c565b6040516104cc9190614936565b60405180910390f35b6104dd611011565b6040516104ea9190614936565b60405180910390f35b61050d60048036038101906105089190614a99565b611016565b005b610517611059565b6040516105249190614936565b60405180910390f35b61054760048036038101906105429190614a99565b611063565b005b610563600480360381019061055e9190614af5565b611176565b6040516105709190614b31565b60405180910390f35b6105816111b5565b60405161058e9190614936565b60405180910390f35b6105b160048036038101906105ac9190614af5565b6111c1565b6040516105be9190614b31565b60405180910390f35b6105e160048036038101906105dc9190614b4c565b611200565b6040516105ee91906146ed565b60405180910390f35b610611600480360381019061060c9190614bd5565b61122f565b60405161061e9190614c11565b60405180910390f35b610641600480360381019061063c9190614d0d565b61124f565b60405161064e9190614936565b60405180910390f35b610671600480360381019061066c9190614e28565b6113d2565b60405161067e9190614f05565b60405180910390f35b6106a1600480360381019061069c9190614f27565b611551565b005b6106bd60048036038101906106b89190614f67565b611573565b6040516106ca91906146ed565b60405180910390f35b6106db611593565b6040516106e89190614fb0565b60405180910390f35b6106f961159c565b6040516107069190614936565b60405180910390f35b6107176115ac565b6040516107249190615089565b60405180910390f35b61073561163a565b6040516107429190614936565b60405180910390f35b610765600480360381019061076091906150ab565b611646565b60405161077291906146ed565b60405180910390f35b61079560048036038101906107909190614f27565b6117b2565b005b6107b160048036038101906107ac9190615107565b61182d565b6040516107be91906146ed565b60405180910390f35b6107cf6118ae565b6040516107dc9190614c11565b60405180910390f35b6107ff60048036038101906107fa9190614af5565b6118d2565b6040516108119695949392919061519c565b60405180910390f35b610834600480360381019061082f9190614af5565b6119e3565b005b61083e611b6e565b005b610848611bd7565b6040516108559190614c11565b60405180910390f35b61087860048036038101906108739190614af5565b611bfb565b60405161088f9b9a99989796959493929190615204565b60405180910390f35b6108a0611e27565b6040516108ad9190614936565b60405180910390f35b6108be611e67565b6040516108cb9190614c11565b60405180910390f35b6108ee60048036038101906108e99190614e28565b611e8b565b6040516108fd939291906152c4565b60405180910390f35b610920600480360381019061091b9190614f67565b611fc5565b60405161092d9190614936565b60405180910390f35b610950600480360381019061094b9190614f67565b61200d565b604051610961959493929190615380565b60405180910390f35b610984600480360381019061097f9190614f67565b61220d565b005b6109a0600480360381019061099b91906148e7565b6123f1565b005b6109bc60048036038101906109b79190614f67565b612632565b6040516109cb939291906153e1565b60405180910390f35b6109ee60048036038101906109e99190614f67565b612669565b6040516109fb9190614936565b60405180910390f35b610a1e6004803603810190610a199190614f27565b6126b5565b604051610a2b91906146ed565b60405180910390f35b610a3c612720565b604051610a499190614831565b60405180910390f35b610a6c6004803603810190610a6791906148e7565b6127b2565b005b610a766128cc565b604051610a839190614c11565b60405180910390f35b610aa66004803603810190610aa191906148e7565b6128d3565b604051610ab391906146ed565b60405180910390f35b610ac46128f6565b604051610ad19190614936565b60405180910390f35b610ae261291e565b604051610aef9190614936565b60405180910390f35b610b126004803603810190610b0d9190614af5565b612923565b005b610b1c612c22565b604051610b299190614936565b60405180910390f35b610b4c6004803603810190610b479190614f67565b612c27565b604051610b5991906146ed565b60405180910390f35b610b7c6004803603810190610b779190614f67565b612c47565b005b610b986004803603810190610b939190614f67565b612f31565b604051610ba59190615418565b60405180910390f35b610bb6612f8a565b604051610bc39190614936565b60405180910390f35b610be66004803603810190610be19190614f27565b612f90565b005b610bf0612fb2565b604051610bfd9190614936565b60405180910390f35b610c0e612fb8565b604051610c1b9190615601565b60405180910390f35b610c3e6004803603810190610c399190615623565b6132eb565b604051610c4b9190614936565b60405180910390f35b610c5c613372565b604051610c699190614936565b60405180910390f35b610c8c6004803603810190610c8791906148e7565b61337e565b005b610ca86004803603810190610ca39190614f67565b613451565b604051610cb59190614936565b60405180910390f35b610cc6613469565b604051610cd39190615418565b60405180910390f35b610cf66004803603810190610cf19190614f67565b613479565b604051610d0391906146ed565b60405180910390f35b610d266004803603810190610d2191906150ab565b6134ac565b005b6000601160003373ffffffffffffffffffffffffffffffffffffffff1673ffffffffffffffffffffffffffffffffffffffff16815260200190815260200160002060009054906101000a900460ff1615610db7576040517f08c379a0000000000000000000000000000000000000000000000000000000008152600401610dae906156af565b60405180910390fd5b6014339080600181540180825580915050600190039060005260206000200160009091909190916101000a81548173ffffffffffffffffffffffffffffffffffffffff021916908373ffffffffffffffffffffffffffffffffffffffff1602179055506001601160003373ffffffffffffffffffffffffffffffffffffffff1673ffffffffffffffffffffffffffffffffffffffff16815260200190815260200160002060006101000a81548160ff021916908315150217905550610e7b33613528565b3373ffffffffffffffffffffffffffffffffffffffff167f49b628a727a909471e7c6bcba2122134da6a8e649acce3b2cd8df34ffb98c86c60405160405180910390a26001905090565b60007f7965db0b000000000000000000000000000000000000000000000000000000007bffffffffffffffffffffffffffffffffffffffffffffffffffffffff1916827bffffffffffffffffffffffffffffffffffffffffffffffffffffffff19161480610f385750610f37826135ee565b5b9050919050565b606060038054610f4e906156fe565b80601f0160208091040260200160405190810160405280929190818152602001828054610f7a906156fe565b8015610fc75780601f10610f9c57610100808354040283529160200191610fc7565b820191906000526020600020905b815481529060010190602001808311610faa57829003601f168201915b5050505050905090565b600080610fdc613658565b9050610fe9818585613660565b600191505092915050565b6729a2241af62c000081565b671bc16d674ec8000081565b600381565b600181565b60005b8251811015611054576110468382815181106110385761103761572f565b5b602002602001015183613672565b508080600101915050611019565b505050565b6000600254905090565b7fc295d8a2f69016465f61012796a38346423f02058e9c426f8bc1d946bc8c847061108d816137ce565b60008351116110d1576040517f08c379a00000000000000000000000000000000000000000000000000000000081526004016110c8906157aa565b60405180910390fd5b600083836040516024016110e69291906157ca565b6040516020818303038152906040527f15f42df4000000000000000000000000000000000000000000000000000000007bffffffffffffffffffffffffffffffffffffffffffffffffffffffff19166020820180517bffffffffffffffffffffffffffffffffffffffffffffffffffffffff8381831617835250505050905061116f30826137e2565b5050505050565b6007818154811061118657600080fd5b906000526020600020016000915054906101000a900473ffffffffffffffffffffffffffffffffffffffff1681565b6729a2241af62c000081565b601481815481106111d157600080fd5b906000526020600020016000915054906101000a900473ffffffffffffffffffffffffffffffffffffffff1681565b60008061120b613658565b90506112188582856139d1565b611223858585613a66565b60019150509392505050565b600060056000838152602001908152602001600020600101549050919050565b60007fc295d8a2f69016465f61012796a38346423f02058e9c426f8bc1d946bc8c847061127b816137ce565b60006012600081548092919061129090615829565b9190505590506000600f600083815260200190815260200160002090508181600001819055508a8160010190816112c79190615a1d565b50338160020160006101000a81548173ffffffffffffffffffffffffffffffffffffffff021916908373ffffffffffffffffffffffffffffffffffffffff16021790555089816003018190555088816004018190555087816005018190555060018160070160006101000a81548160ff021916908315150217905550868160070160016101000a81548160ff021916908315150217905550858160080190816113709190615a1d565b50848160090190816113829190615a1d565b50817fec38f747b0aa7c21a8a9bdec175eb246baf6e36e70d7e24434e272b2ba6a362a8c338a8a6040516113b99493929190615aef565b60405180910390a2819350505050979650505050505050565b6113da61463d565b600c60008360048111156113f1576113f0615309565b5b600481111561140357611402615309565b5b815260200190815260200160002060405180606001604052908160008201805461142c906156fe565b80601f0160208091040260200160405190810160405280929190818152602001828054611458906156fe565b80156114a55780601f1061147a576101008083540402835291602001916114a5565b820191906000526020600020905b81548152906001019060200180831161148857829003601f168201915b505050505081526020016001820180546114be906156fe565b80601f01602080910402602001604051908101604052809291908181526020018280546114ea906156fe565b80156115375780601f1061150c57610100808354040283529160200191611537565b820191906000526020600020905b81548152906001019060200180831161151a57829003601f168201915b505050505081526020016002820154815250509050919050565b61155a8261122f565b611563816137ce565b61156d8383613b5a565b50505050565b60116020528060005260406000206000915054906101000a900460ff1681565b60006012905090565b6b204fce5e3e2502611000000081565b6060601480548060200260200160405190810160405280929190818152602001828054801561163057602002820191906000526020600020905b8160009054906101000a900473ffffffffffffffffffffffffffffffffffffffff1673ffffffffffffffffffffffffffffffffffffffff16815260200190600101908083116115e6575b5050505050905090565b673782dace9d90000081565b60007fc295d8a2f69016465f61012796a38346423f02058e9c426f8bc1d946bc8c8470611672816137ce565b60026064600a6b204fce5e3e2502611000000061168f9190615b42565b6116999190615bb3565b6116a39190615bb3565b6116ab613c4c565b8585516116b89190615b42565b6116c29190615be4565b1115611703576040517f08c379a00000000000000000000000000000000000000000000000000000000081526004016116fa90615c64565b60405180910390fd5b60008484604051602401611718929190615c84565b6040516020818303038152906040527fff4d7128000000000000000000000000000000000000000000000000000000007bffffffffffffffffffffffffffffffffffffffffffffffffffffffff19166020820180517bffffffffffffffffffffffffffffffffffffffffffffffffffffffff8381831617835250505050905060006117a330836137e2565b90506001935050505092915050565b6117ba613658565b73ffffffffffffffffffffffffffffffffffffffff168173ffffffffffffffffffffffffffffffffffffffff161461181e576040517f6697b23200000000000000000000000000000000000000000000000000000000815260040160405180910390fd5b6118288282613c56565b505050565b600081600481111561184257611841615309565b5b600b60008573ffffffffffffffffffffffffffffffffffffffff1673ffffffffffffffffffffffffffffffffffffffff16815260200190815260200160002060020160009054906101000a900460ff1660048111156118a4576118a3615309565b5b1015905092915050565b7fc10c77be35aff266144ed64c26a1fa104bae2f284ae99ac4a34203454704a18581565b600a6020528060005260406000206000915090508060000154908060010160009054906101000a900473ffffffffffffffffffffffffffffffffffffffff16908060020160009054906101000a900473ffffffffffffffffffffffffffffffffffffffff1690806003018054611947906156fe565b80601f0160208091040260200160405190810160405280929190818152602001828054611973906156fe565b80156119c05780601f10611995576101008083540402835291602001916119c0565b820191906000526020600020905b8154815290600101906020018083116119a357829003601f168201915b5050505050908060040154908060050160009054906101000a900460ff16905086565b6119eb613d49565b6000600f600083815260200190815260200160002090508060070160009054906101000a900460ff16611a53576040517f08c379a0000000000000000000000000000000000000000000000000000000008152600401611a4a90615d00565b60405180910390fd5b80600301544210158015611a6b575080600401544211155b611aaa576040517f08c379a0000000000000000000000000000000000000000000000000000000008152600401611aa190615d6c565b60405180910390fd5b8060050154816006015410611af4576040517f08c379a0000000000000000000000000000000000000000000000000000000008152600401611aeb90615dd8565b60405180910390fd5b806006016000815480929190611b0990615829565b9190505550611b1733613528565b611b29336729a2241af62c0000613672565b50817f1f74d05223b014a6b1d3023900443d2b2a4a803f39310427d60b87fc476dac0333604051611b5a9190614b31565b60405180910390a250611b6b613d8f565b50565b6000600b60003373ffffffffffffffffffffffffffffffffffffffff1673ffffffffffffffffffffffffffffffffffffffff16815260200190815260200160002090506000611bbc33613d99565b90506000811115611bd357611bd13382613672565b505b5050565b7fdf1425bae297c2f52b4f15d18a50b1fc8cb5b981a981b1d213ed3ff92681b64d81565b600f602052806000526040600020600091509050806000015490806001018054611c24906156fe565b80601f0160208091040260200160405190810160405280929190818152602001828054611c50906156fe565b8015611c9d5780601f10611c7257610100808354040283529160200191611c9d565b820191906000526020600020905b815481529060010190602001808311611c8057829003601f168201915b5050505050908060020160009054906101000a900473ffffffffffffffffffffffffffffffffffffffff16908060030154908060040154908060050154908060060154908060070160009054906101000a900460ff16908060070160019054906101000a900460ff1690806008018054611d16906156fe565b80601f0160208091040260200160405190810160405280929190818152602001828054611d42906156fe565b8015611d8f5780601f10611d6457610100808354040283529160200191611d8f565b820191906000526020600020905b815481529060010190602001808311611d7257829003601f168201915b505050505090806009018054611da4906156fe565b80601f0160208091040260200160405190810160405280929190818152602001828054611dd0906156fe565b8015611e1d5780601f10611df257610100808354040283529160200191611e1d565b820191906000526020600020905b815481529060010190602001808311611e0057829003601f168201915b505050505090508b565b606460056064600a6b204fce5e3e25026110000000611e469190615b42565b611e509190615bb3565b611e5a9190615b42565b611e649190615bb3565b81565b7fc295d8a2f69016465f61012796a38346423f02058e9c426f8bc1d946bc8c847081565b600c602052806000526040600020600091509050806000018054611eae906156fe565b80601f0160208091040260200160405190810160405280929190818152602001828054611eda906156fe565b8015611f275780601f10611efc57610100808354040283529160200191611f27565b820191906000526020600020905b815481529060010190602001808311611f0a57829003601f168201915b505050505090806001018054611f3c906156fe565b80601f0160208091040260200160405190810160405280929190818152602001828054611f68906156fe565b8015611fb55780601f10611f8a57610100808354040283529160200191611fb5565b820191906000526020600020905b815481529060010190602001808311611f9857829003601f168201915b5050505050908060020154905083565b60008060008373ffffffffffffffffffffffffffffffffffffffff1673ffffffffffffffffffffffffffffffffffffffff168152602001908152602001600020549050919050565b60006060806000806000600b60008873ffffffffffffffffffffffffffffffffffffffff1673ffffffffffffffffffffffffffffffffffffffff168152602001908152602001600020905060008160020160009054906101000a900460ff1690506000600c600083600481111561208757612086615309565b5b600481111561209957612098615309565b5b81526020019081526020016000206040518060600160405290816000820180546120c2906156fe565b80601f01602080910402602001604051908101604052809291908181526020018280546120ee906156fe565b801561213b5780601f106121105761010080835404028352916020019161213b565b820191906000526020600020905b81548152906001019060200180831161211e57829003601f168201915b50505050508152602001600182018054612154906156fe565b80601f0160208091040260200160405190810160405280929190818152602001828054612180906156fe565b80156121cd5780601f106121a2576101008083540402835291602001916121cd565b820191906000526020600020905b8154815290600101906020018083116121b057829003601f168201915b5050505050815260200160028201548152505090508181600001518260200151836040015186600001549750975097509750975050505091939590929450565b7fc10c77be35aff266144ed64c26a1fa104bae2f284ae99ac4a34203454704a185612237816137ce565b600960008373ffffffffffffffffffffffffffffffffffffffff1673ffffffffffffffffffffffffffffffffffffffff16815260200190815260200160002060009054906101000a900460ff16156122c4576040517f08c379a00000000000000000000000000000000000000000000000000000000081526004016122bb90615e44565b60405180910390fd5b6122ee7fc10c77be35aff266144ed64c26a1fa104bae2f284ae99ac4a34203454704a18583613b5a565b506007829080600181540180825580915050600190039060005260206000200160009091909190916101000a81548173ffffffffffffffffffffffffffffffffffffffff021916908373ffffffffffffffffffffffffffffffffffffffff1602179055506001600960008473ffffffffffffffffffffffffffffffffffffffff1673ffffffffffffffffffffffffffffffffffffffff16815260200190815260200160002060006101000a81548160ff0219169083151502179055508173ffffffffffffffffffffffffffffffffffffffff167fe1cb5e1230cc02e62c60b81c1aa5ade512f3eac296edb28628b4cf344f47f93160405160405180910390a25050565b7fc295d8a2f69016465f61012796a38346423f02058e9c426f8bc1d946bc8c847061241b816137ce565b606460056064600a6b204fce5e3e2502611000000061243a9190615b42565b6124449190615bb3565b61244e9190615b42565b6124589190615bb3565b82111561249a576040517f08c379a000000000000000000000000000000000000000000000000000000000815260040161249190615eb0565b60405180910390fd5b606460056064600a6b204fce5e3e250261100000006124b99190615b42565b6124c39190615bb3565b6124cd9190615b42565b6124d79190615bb3565b82600e546124e59190615be4565b1115612526576040517f08c379a000000000000000000000000000000000000000000000000000000000815260040161251d90615f42565b60405180910390fd5b6000838360405160240161253b929190615f62565b6040516020818303038152906040527f990dc9db000000000000000000000000000000000000000000000000000000007bffffffffffffffffffffffffffffffffffffffffffffffffffffffff19166020820180517bffffffffffffffffffffffffffffffffffffffffffffffffffffffff838183161783525050505090506125c430826137e2565b5082600e60008282546125d79190615be4565b925050819055508373ffffffffffffffffffffffffffffffffffffffff167fe15b96646136ede2ea2abfc9baa96fbbab0c3d44e1750c3defc005a4492a691b846040516126249190614936565b60405180910390a250505050565b600b6020528060005260406000206000915090508060000154908060010154908060020160009054906101000a900460ff16905083565b6000600b60008373ffffffffffffffffffffffffffffffffffffffff1673ffffffffffffffffffffffffffffffffffffffff168152602001908152602001600020600001549050919050565b60006005600084815260200190815260200160002060000160008373ffffffffffffffffffffffffffffffffffffffff1673ffffffffffffffffffffffffffffffffffffffff16815260200190815260200160002060009054906101000a900460ff16905092915050565b60606004805461272f906156fe565b80601f016020809104026020016040519081016040528092919081815260200182805461275b906156fe565b80156127a85780601f1061277d576101008083540402835291602001916127a8565b820191906000526020600020905b81548152906001019060200180831161278b57829003601f168201915b5050505050905090565b6127dc7fc295d8a2f69016465f61012796a38346423f02058e9c426f8bc1d946bc8c8470336126b5565b61281b576040517f08c379a000000000000000000000000000000000000000000000000000000000815260040161281290615fd7565b60405180910390fd5b60008273ffffffffffffffffffffffffffffffffffffffff168260405161284190616028565b60006040518083038185875af1925050503d806000811461287e576040519150601f19603f3d011682016040523d82523d6000602084013e612883565b606091505b50509050806128c7576040517f08c379a00000000000000000000000000000000000000000000000000000000081526004016128be90616089565b60405180910390fd5b505050565b6000801b81565b6000806128de613658565b90506128eb818585613a66565b600191505092915050565b6064600a6b204fce5e3e250261100000006129119190615b42565b61291b9190615bb3565b81565b600581565b7fdf1425bae297c2f52b4f15d18a50b1fc8cb5b981a981b1d213ed3ff92681b64d61294d816137ce565b6000600a600084815260200190815260200160002090508060050160009054906101000a900460ff16156129b6576040517f08c379a00000000000000000000000000000000000000000000000000000000081526004016129ad906160f5565b60405180910390fd5b8060060160003373ffffffffffffffffffffffffffffffffffffffff1673ffffffffffffffffffffffffffffffffffffffff16815260200190815260200160002060009054906101000a900460ff1615612a45576040517f08c379a0000000000000000000000000000000000000000000000000000000008152600401612a3c90616161565b60405180910390fd5b60018160060160003373ffffffffffffffffffffffffffffffffffffffff1673ffffffffffffffffffffffffffffffffffffffff16815260200190815260200160002060006101000a81548160ff021916908315150217905550806004016000815480929190612ab490615829565b9190505550827f5d4ccf5f92566d140246f4ae3b9cb35dc06fff109a7748602ad77f6260fd9a6133604051612ae99190614b31565b60405180910390a26003816004015410612c1d5760008160020160009054906101000a900473ffffffffffffffffffffffffffffffffffffffff1673ffffffffffffffffffffffffffffffffffffffff1682600301604051612b4b9190616219565b6000604051808303816000865af19150503d8060008114612b88576040519150601f19603f3d011682016040523d82523d6000602084013e612b8d565b606091505b5050905080612bd1576040517f08c379a0000000000000000000000000000000000000000000000000000000008152600401612bc89061627c565b60405180910390fd5b60018260050160006101000a81548160ff021916908315150217905550837f7770356c29230b95943aec59d47ead11eb426a728bf5b57f7fd8597f3c0e29ba60405160405180910390a2505b505050565b600a81565b60096020528060005260406000206000915054906101000a900460ff1681565b6000801b612c54816137ce565b600960008373ffffffffffffffffffffffffffffffffffffffff1673ffffffffffffffffffffffffffffffffffffffff16815260200190815260200160002060009054906101000a900460ff16612ce0576040517f08c379a0000000000000000000000000000000000000000000000000000000008152600401612cd7906162e8565b60405180910390fd5b60005b600780549050811015612e66578273ffffffffffffffffffffffffffffffffffffffff1660078281548110612d1b57612d1a61572f565b5b9060005260206000200160009054906101000a900473ffffffffffffffffffffffffffffffffffffffff1673ffffffffffffffffffffffffffffffffffffffff1603612e595760076001600780549050612d759190616308565b81548110612d8657612d8561572f565b5b9060005260206000200160009054906101000a900473ffffffffffffffffffffffffffffffffffffffff1660078281548110612dc557612dc461572f565b5b9060005260206000200160006101000a81548173ffffffffffffffffffffffffffffffffffffffff021916908373ffffffffffffffffffffffffffffffffffffffff1602179055506007805480612e1f57612e1e61633c565b5b6001900381819060005260206000200160006101000a81549073ffffffffffffffffffffffffffffffffffffffff02191690559055612e66565b8080600101915050612ce3565b506000600960008473ffffffffffffffffffffffffffffffffffffffff1673ffffffffffffffffffffffffffffffffffffffff16815260200190815260200160002060006101000a81548160ff021916908315150217905550612ee97fc10c77be35aff266144ed64c26a1fa104bae2f284ae99ac4a34203454704a18583613c56565b508173ffffffffffffffffffffffffffffffffffffffff167f55dba9d79522b91b615629d5f3b10c2fad2d258f1768614f4a52e937ada0d0ba60405160405180910390a25050565b6000600b60008373ffffffffffffffffffffffffffffffffffffffff1673ffffffffffffffffffffffffffffffffffffffff16815260200190815260200160002060020160009054906101000a900460ff169050919050565b600d5481565b612f998261122f565b612fa2816137ce565b612fac8383613c56565b50505050565b600e5481565b60606000601254905060008167ffffffffffffffff811115612fdd57612fdc614956565b5b60405190808252806020026020018201604052801561301657816020015b61300361465e565b815260200190600190039081612ffb5790505b50905060005b828110156132e257600f6000828152602001908152602001600020604051806101600160405290816000820154815260200160018201805461305d906156fe565b80601f0160208091040260200160405190810160405280929190818152602001828054613089906156fe565b80156130d65780601f106130ab576101008083540402835291602001916130d6565b820191906000526020600020905b8154815290600101906020018083116130b957829003601f168201915b505050505081526020016002820160009054906101000a900473ffffffffffffffffffffffffffffffffffffffff1673ffffffffffffffffffffffffffffffffffffffff1673ffffffffffffffffffffffffffffffffffffffff168152602001600382015481526020016004820154815260200160058201548152602001600682015481526020016007820160009054906101000a900460ff161515151581526020016007820160019054906101000a900460ff161515151581526020016008820180546131a3906156fe565b80601f01602080910402602001604051908101604052809291908181526020018280546131cf906156fe565b801561321c5780601f106131f15761010080835404028352916020019161321c565b820191906000526020600020905b8154815290600101906020018083116131ff57829003601f168201915b50505050508152602001600982018054613235906156fe565b80601f0160208091040260200160405190810160405280929190818152602001828054613261906156fe565b80156132ae5780601f10613283576101008083540402835291602001916132ae565b820191906000526020600020905b81548152906001019060200180831161329157829003601f168201915b5050505050815250508282815181106132ca576132c961572f565b5b6020026020010181905250808060010191505061301c565b50809250505090565b6000600160008473ffffffffffffffffffffffffffffffffffffffff1673ffffffffffffffffffffffffffffffffffffffff16815260200190815260200160002060008373ffffffffffffffffffffffffffffffffffffffff1673ffffffffffffffffffffffffffffffffffffffff16815260200190815260200160002054905092915050565b670de0b6b3a764000081565b7fc295d8a2f69016465f61012796a38346423f02058e9c426f8bc1d946bc8c84706133a8816137ce565b600082116133eb576040517f08c379a00000000000000000000000000000000000000000000000000000000081526004016133e2906163b7565b60405180910390fd5b6133f58383613672565b5081601060008573ffffffffffffffffffffffffffffffffffffffff1673ffffffffffffffffffffffffffffffffffffffff16815260200190815260200160002060008282546134459190615be4565b92505081905550505050565b60106020528060005260406000206000915090505481565b600061347433612f31565b905090565b60006134a57fc10c77be35aff266144ed64c26a1fa104bae2f284ae99ac4a34203454704a185836126b5565b9050919050565b60005b81518110156134ea576134dc8282815181106134ce576134cd61572f565b5b602002602001015184613672565b5080806001019150506134af565b50817fb88d01f589e949ad7233aadbcfbadcca2b7f247555fa6423bc3d5d2563bd1563825160405161351c9190614936565b60405180910390a25050565b61353181613f98565b6000600b60008373ffffffffffffffffffffffffffffffffffffffff1673ffffffffffffffffffffffffffffffffffffffff168152602001908152602001600020905080600001600081548092919061358990615829565b919050555061359782613d99565b508173ffffffffffffffffffffffffffffffffffffffff167ff18beef583f71b01f816b888b2fb4012abc44a95618cbc737287866909e7abd782600001546040516135e29190614936565b60405180910390a25050565b60007f01ffc9a7000000000000000000000000000000000000000000000000000000007bffffffffffffffffffffffffffffffffffffffffffffffffffffffff1916827bffffffffffffffffffffffffffffffffffffffffffffffffffffffff1916149050919050565b600033905090565b61366d83838360016140b3565b505050565b60006064600a6b204fce5e3e2502611000000061368f9190615b42565b6136999190615bb3565b6136a1613c4c565b836136ac9190615be4565b11156136ed576040517f08c379a00000000000000000000000000000000000000000000000000000000081526004016136e490616449565b60405180910390fd5b600073ffffffffffffffffffffffffffffffffffffffff168373ffffffffffffffffffffffffffffffffffffffff160361375c576040517f08c379a0000000000000000000000000000000000000000000000000000000008152600401613753906164db565b60405180910390fd5b613766838361428a565b5081600d60008282546137799190615be4565b92505081905550818373ffffffffffffffffffffffffffffffffffffffff167fffd50653ccb3020c797c5cba8c53bebb40e00eeb76593dedcf4a157b3ea6cb5160405160405180910390a36001905092915050565b6137df816137da613658565b614345565b50565b60007fdf1425bae297c2f52b4f15d18a50b1fc8cb5b981a981b1d213ed3ff92681b64d61380e816137ce565b7fc10c77be35aff266144ed64c26a1fa104bae2f284ae99ac4a34203454704a185613838816137ce565b60006008600081548092919061384d90615829565b9190505590506000600a60008381526020019081526020016000209050818160000181905550338160010160006101000a81548173ffffffffffffffffffffffffffffffffffffffff021916908373ffffffffffffffffffffffffffffffffffffffff160217905550868160020160006101000a81548173ffffffffffffffffffffffffffffffffffffffff021916908373ffffffffffffffffffffffffffffffffffffffff1602179055508581600301908161390a9190616541565b506001816004018190555060008160050160006101000a81548160ff02191690831515021790555060018160060160003373ffffffffffffffffffffffffffffffffffffffff1673ffffffffffffffffffffffffffffffffffffffff16815260200190815260200160002060006101000a81548160ff021916908315150217905550817fbcc43907be1d435f496e2233697a9a9fead2fb5639dac8459c53d7114829b8be336040516139bc9190614b31565b60405180910390a28194505050505092915050565b60006139dd84846132eb565b90507fffffffffffffffffffffffffffffffffffffffffffffffffffffffffffffffff811015613a605781811015613a50578281836040517ffb8f41b2000000000000000000000000000000000000000000000000000000008152600401613a4793929190616613565b60405180910390fd5b613a5f848484840360006140b3565b5b50505050565b600073ffffffffffffffffffffffffffffffffffffffff168373ffffffffffffffffffffffffffffffffffffffff1603613ad85760006040517f96c6fd1e000000000000000000000000000000000000000000000000000000008152600401613acf9190614b31565b60405180910390fd5b600073ffffffffffffffffffffffffffffffffffffffff168273ffffffffffffffffffffffffffffffffffffffff1603613b4a5760006040517fec442f05000000000000000000000000000000000000000000000000000000008152600401613b419190614b31565b60405180910390fd5b613b55838383614396565b505050565b6000613b6683836126b5565b613c415760016005600085815260200190815260200160002060000160008473ffffffffffffffffffffffffffffffffffffffff1673ffffffffffffffffffffffffffffffffffffffff16815260200190815260200160002060006101000a81548160ff021916908315150217905550613bde613658565b73ffffffffffffffffffffffffffffffffffffffff168273ffffffffffffffffffffffffffffffffffffffff16847f2f8788117e7eff1d82e926ec794901d17c78024a50270940304540a733656f0d60405160405180910390a460019050613c46565b600090505b92915050565b6000600d54905090565b6000613c6283836126b5565b15613d3e5760006005600085815260200190815260200160002060000160008473ffffffffffffffffffffffffffffffffffffffff1673ffffffffffffffffffffffffffffffffffffffff16815260200190815260200160002060006101000a81548160ff021916908315150217905550613cdb613658565b73ffffffffffffffffffffffffffffffffffffffff168273ffffffffffffffffffffffffffffffffffffffff16847ff6391f5c32d9c69d2a47ea670b442974b53935d1edc7fd64eb21e047a839171b60405160405180910390a460019050613d43565b600090505b92915050565b600260065403613d85576040517f3ee5aeb500000000000000000000000000000000000000000000000000000000815260040160405180910390fd5b6002600681905550565b6001600681905550565b600080600b60008473ffffffffffffffffffffffffffffffffffffffff1673ffffffffffffffffffffffffffffffffffffffff168152602001908152602001600020905060008160020160009054906101000a900460ff1690506000600a836000015410613e0a5760049050613e51565b6005836000015410613e1f5760039050613e50565b6003836000015410613e345760029050613e4f565b6001836000015410613e495760019050613e4e565b600090505b5b5b5b816004811115613e6457613e63615309565b5b816004811115613e7757613e76615309565b5b14613f9057808360020160006101000a81548160ff02191690836004811115613ea357613ea2615309565b5b0217905550600c6000826004811115613ebf57613ebe615309565b5b6004811115613ed157613ed0615309565b5b815260200190815260200160002060020154935060008582604051602001613efa9291906166c8565b604051602081830303815290604052805190602001209050600184600301600083815260200190815260200160002060006101000a81548160ff0219169083151502179055508573ffffffffffffffffffffffffffffffffffffffff167f285a0f2deff4dbdd3719bae595cb2c8b27a45f0814e4db2b1946ab8df9bc548b83604051613f869190615418565b60405180910390a2505b505050919050565b6000600b60008373ffffffffffffffffffffffffffffffffffffffff1673ffffffffffffffffffffffffffffffffffffffff168152602001908152602001600020905060006004811115613fef57613fee615309565b5b600481111561400157614000615309565b5b8160020160009054906101000a900460ff16600481111561402557614024615309565b5b036140af5760008160020160006101000a81548160ff0219169083600481111561405257614051615309565b5b021790555060008160000181905550600081600101819055508173ffffffffffffffffffffffffffffffffffffffff167f92fabfa210df88d92c2f5a07ddd43a985b208d8b19b7a78ba1284aa4b287d86260405160405180910390a25b5050565b600073ffffffffffffffffffffffffffffffffffffffff168473ffffffffffffffffffffffffffffffffffffffff16036141255760006040517fe602df0500000000000000000000000000000000000000000000000000000000815260040161411c9190614b31565b60405180910390fd5b600073ffffffffffffffffffffffffffffffffffffffff168373ffffffffffffffffffffffffffffffffffffffff16036141975760006040517f94280d6200000000000000000000000000000000000000000000000000000000815260040161418e9190614b31565b60405180910390fd5b81600160008673ffffffffffffffffffffffffffffffffffffffff1673ffffffffffffffffffffffffffffffffffffffff16815260200190815260200160002060008573ffffffffffffffffffffffffffffffffffffffff1673ffffffffffffffffffffffffffffffffffffffff168152602001908152602001600020819055508015614284578273ffffffffffffffffffffffffffffffffffffffff168473ffffffffffffffffffffffffffffffffffffffff167f8c5be1e5ebec7d5bd14f71427d1e84f3dd0314c0f7b2291e5b200ac8c7c3b9258460405161427b9190614936565b60405180910390a35b50505050565b60006b204fce5e3e250261100000006142a1611059565b836142ac9190615be4565b11156142ed576040517f08c379a00000000000000000000000000000000000000000000000000000000081526004016142e490616740565b60405180910390fd5b6142f783836145bb565b818373ffffffffffffffffffffffffffffffffffffffff167fcda531bfd68624f13205c0a23cd4d5a7f09792cbb399603114f2b04aaa1bf5cf60405160405180910390a36001905092915050565b61434f82826126b5565b6143925780826040517fe2517d3f000000000000000000000000000000000000000000000000000000008152600401614389929190616760565b60405180910390fd5b5050565b600073ffffffffffffffffffffffffffffffffffffffff168373ffffffffffffffffffffffffffffffffffffffff16036143e85780600260008282546143dc9190615be4565b925050819055506144bb565b60008060008573ffffffffffffffffffffffffffffffffffffffff1673ffffffffffffffffffffffffffffffffffffffff16815260200190815260200160002054905081811015614474578381836040517fe450d38c00000000000000000000000000000000000000000000000000000000815260040161446b93929190616613565b60405180910390fd5b8181036000808673ffffffffffffffffffffffffffffffffffffffff1673ffffffffffffffffffffffffffffffffffffffff16815260200190815260200160002081905550505b600073ffffffffffffffffffffffffffffffffffffffff168273ffffffffffffffffffffffffffffffffffffffff16036145045780600260008282540392505081905550614551565b806000808473ffffffffffffffffffffffffffffffffffffffff1673ffffffffffffffffffffffffffffffffffffffff168152602001908152602001600020600082825401925050819055505b8173ffffffffffffffffffffffffffffffffffffffff168373ffffffffffffffffffffffffffffffffffffffff167fddf252ad1be2c89b69c2b068fc378daa952ba7f163c4a11628f55a4df523b3ef836040516145ae9190614936565b60405180910390a3505050565b600073ffffffffffffffffffffffffffffffffffffffff168273ffffffffffffffffffffffffffffffffffffffff160361462d5760006040517fec442f050000000000000000000000000000000000000000000000000000000081526004016146249190614b31565b60405180910390fd5b61463960008383614396565b5050565b60405180606001604052806060815260200160608152602001600081525090565b6040518061016001604052806000815260200160608152602001600073ffffffffffffffffffffffffffffffffffffffff1681526020016000815260200160008152602001600081526020016000815260200160001515815260200160001515815260200160608152602001606081525090565b60008115159050919050565b6146e7816146d2565b82525050565b600060208201905061470260008301846146de565b92915050565b6000604051905090565b600080fd5b600080fd5b60007fffffffff0000000000000000000000000000000000000000000000000000000082169050919050565b6147518161471c565b811461475c57600080fd5b50565b60008135905061476e81614748565b92915050565b60006020828403121561478a57614789614712565b5b60006147988482850161475f565b91505092915050565b600081519050919050565b600082825260208201905092915050565b60005b838110156147db5780820151818401526020810190506147c0565b60008484015250505050565b6000601f19601f8301169050919050565b6000614803826147a1565b61480d81856147ac565b935061481d8185602086016147bd565b614826816147e7565b840191505092915050565b6000602082019050818103600083015261484b81846147f8565b905092915050565b600073ffffffffffffffffffffffffffffffffffffffff82169050919050565b600061487e82614853565b9050919050565b61488e81614873565b811461489957600080fd5b50565b6000813590506148ab81614885565b92915050565b6000819050919050565b6148c4816148b1565b81146148cf57600080fd5b50565b6000813590506148e1816148bb565b92915050565b600080604083850312156148fe576148fd614712565b5b600061490c8582860161489c565b925050602061491d858286016148d2565b9150509250929050565b614930816148b1565b82525050565b600060208201905061494b6000830184614927565b92915050565b600080fd5b7f4e487b7100000000000000000000000000000000000000000000000000000000600052604160045260246000fd5b61498e826147e7565b810181811067ffffffffffffffff821117156149ad576149ac614956565b5b80604052505050565b60006149c0614708565b90506149cc8282614985565b919050565b600067ffffffffffffffff8211156149ec576149eb614956565b5b602082029050602081019050919050565b600080fd5b6000614a15614a10846149d1565b6149b6565b90508083825260208201905060208402830185811115614a3857614a376149fd565b5b835b81811015614a615780614a4d888261489c565b845260208401935050602081019050614a3a565b5050509392505050565b600082601f830112614a8057614a7f614951565b5b8135614a90848260208601614a02565b91505092915050565b60008060408385031215614ab057614aaf614712565b5b600083013567ffffffffffffffff811115614ace57614acd614717565b5b614ada85828601614a6b565b9250506020614aeb858286016148d2565b9150509250929050565b600060208284031215614b0b57614b0a614712565b5b6000614b19848285016148d2565b91505092915050565b614b2b81614873565b82525050565b6000602082019050614b466000830184614b22565b92915050565b600080600060608486031215614b6557614b64614712565b5b6000614b738682870161489c565b9350506020614b848682870161489c565b9250506040614b95868287016148d2565b9150509250925092565b6000819050919050565b614bb281614b9f565b8114614bbd57600080fd5b50565b600081359050614bcf81614ba9565b92915050565b600060208284031215614beb57614bea614712565b5b6000614bf984828501614bc0565b91505092915050565b614c0b81614b9f565b82525050565b6000602082019050614c266000830184614c02565b92915050565b600080fd5b600067ffffffffffffffff821115614c4c57614c4b614956565b5b614c55826147e7565b9050602081019050919050565b82818337600083830152505050565b6000614c84614c7f84614c31565b6149b6565b905082815260208101848484011115614ca057614c9f614c2c565b5b614cab848285614c62565b509392505050565b600082601f830112614cc857614cc7614951565b5b8135614cd8848260208601614c71565b91505092915050565b614cea816146d2565b8114614cf557600080fd5b50565b600081359050614d0781614ce1565b92915050565b600080600080600080600060e0888a031215614d2c57614d2b614712565b5b600088013567ffffffffffffffff811115614d4a57614d49614717565b5b614d568a828b01614cb3565b9750506020614d678a828b016148d2565b9650506040614d788a828b016148d2565b9550506060614d898a828b016148d2565b9450506080614d9a8a828b01614cf8565b93505060a088013567ffffffffffffffff811115614dbb57614dba614717565b5b614dc78a828b01614cb3565b92505060c088013567ffffffffffffffff811115614de857614de7614717565b5b614df48a828b01614cb3565b91505092959891949750929550565b60058110614e1057600080fd5b50565b600081359050614e2281614e03565b92915050565b600060208284031215614e3e57614e3d614712565b5b6000614e4c84828501614e13565b91505092915050565b600082825260208201905092915050565b6000614e71826147a1565b614e7b8185614e55565b9350614e8b8185602086016147bd565b614e94816147e7565b840191505092915050565b614ea8816148b1565b82525050565b60006060830160008301518482036000860152614ecb8282614e66565b91505060208301518482036020860152614ee58282614e66565b9150506040830151614efa6040860182614e9f565b508091505092915050565b60006020820190508181036000830152614f1f8184614eae565b905092915050565b60008060408385031215614f3e57614f3d614712565b5b6000614f4c85828601614bc0565b9250506020614f5d8582860161489c565b9150509250929050565b600060208284031215614f7d57614f7c614712565b5b6000614f8b8482850161489c565b91505092915050565b600060ff82169050919050565b614faa81614f94565b82525050565b6000602082019050614fc56000830184614fa1565b92915050565b600081519050919050565b600082825260208201905092915050565b6000819050602082019050919050565b61500081614873565b82525050565b60006150128383614ff7565b60208301905092915050565b6000602082019050919050565b600061503682614fcb565b6150408185614fd6565b935061504b83614fe7565b8060005b8381101561507c5781516150638882615006565b975061506e8361501e565b92505060018101905061504f565b5085935050505092915050565b600060208201905081810360008301526150a3818461502b565b905092915050565b600080604083850312156150c2576150c1614712565b5b60006150d0858286016148d2565b925050602083013567ffffffffffffffff8111156150f1576150f0614717565b5b6150fd85828601614a6b565b9150509250929050565b6000806040838503121561511e5761511d614712565b5b600061512c8582860161489c565b925050602061513d85828601614e13565b9150509250929050565b600081519050919050565b600082825260208201905092915050565b600061516e82615147565b6151788185615152565b93506151888185602086016147bd565b615191816147e7565b840191505092915050565b600060c0820190506151b16000830189614927565b6151be6020830188614b22565b6151cb6040830187614b22565b81810360608301526151dd8186615163565b90506151ec6080830185614927565b6151f960a08301846146de565b979650505050505050565b60006101608201905061521a600083018e614927565b818103602083015261522c818d6147f8565b905061523b604083018c614b22565b615248606083018b614927565b615255608083018a614927565b61526260a0830189614927565b61526f60c0830188614927565b61527c60e08301876146de565b61528a6101008301866146de565b81810361012083015261529d81856147f8565b90508181036101408301526152b281846147f8565b90509c9b505050505050505050505050565b600060608201905081810360008301526152de81866147f8565b905081810360208301526152f281856147f8565b90506153016040830184614927565b949350505050565b7f4e487b7100000000000000000000000000000000000000000000000000000000600052602160045260246000fd5b6005811061534957615348615309565b5b50565b600081905061535a82615338565b919050565b600061536a8261534c565b9050919050565b61537a8161535f565b82525050565b600060a0820190506153956000830188615371565b81810360208301526153a781876147f8565b905081810360408301526153bb81866147f8565b90506153ca6060830185614927565b6153d76080830184614927565b9695505050505050565b60006060820190506153f66000830186614927565b6154036020830185614927565b6154106040830184615371565b949350505050565b600060208201905061542d6000830184615371565b92915050565b600081519050919050565b600082825260208201905092915050565b6000819050602082019050919050565b615468816146d2565b82525050565b6000610160830160008301516154876000860182614e9f565b506020830151848203602086015261549f8282614e66565b91505060408301516154b46040860182614ff7565b5060608301516154c76060860182614e9f565b5060808301516154da6080860182614e9f565b5060a08301516154ed60a0860182614e9f565b5060c083015161550060c0860182614e9f565b5060e083015161551360e086018261545f565b5061010083015161552861010086018261545f565b506101208301518482036101208601526155428282614e66565b91505061014083015184820361014086015261555e8282614e66565b9150508091505092915050565b6000615577838361546e565b905092915050565b6000602082019050919050565b600061559782615433565b6155a1818561543e565b9350836020820285016155b38561544f565b8060005b858110156155ef57848403895281516155d0858261556b565b94506155db8361557f565b925060208a019950506001810190506155b7565b50829750879550505050505092915050565b6000602082019050818103600083015261561b818461558c565b905092915050565b6000806040838503121561563a57615639614712565b5b60006156488582860161489c565b92505060206156598582860161489c565b9150509250929050565b7f416c72656164792061206d656d62657221000000000000000000000000000000600082015250565b60006156996011836147ac565b91506156a482615663565b602082019050919050565b600060208201905081810360008301526156c88161568c565b9050919050565b7f4e487b7100000000000000000000000000000000000000000000000000000000600052602260045260246000fd5b6000600282049050600182168061571657607f821691505b602082108103615729576157286156cf565b5b50919050565b7f4e487b7100000000000000000000000000000000000000000000000000000000600052603260045260246000fd5b7f4e6f20656c696769626c65206164647265737365730000000000000000000000600082015250565b60006157946015836147ac565b915061579f8261575e565b602082019050919050565b600060208201905081810360008301526157c381615787565b9050919050565b600060408201905081810360008301526157e4818561502b565b90506157f36020830184614927565b9392505050565b7f4e487b7100000000000000000000000000000000000000000000000000000000600052601160045260246000fd5b6000615834826148b1565b91507fffffffffffffffffffffffffffffffffffffffffffffffffffffffffffffffff8203615866576158656157fa565b5b600182019050919050565b60008190508160005260206000209050919050565b60006020601f8301049050919050565b600082821b905092915050565b6000600883026158d37fffffffffffffffffffffffffffffffffffffffffffffffffffffffffffffffff82615896565b6158dd8683615896565b95508019841693508086168417925050509392505050565b6000819050919050565b600061591a615915615910846148b1565b6158f5565b6148b1565b9050919050565b6000819050919050565b615934836158ff565b61594861594082615921565b8484546158a3565b825550505050565b600090565b61595d615950565b61596881848461592b565b505050565b5b8181101561598c57615981600082615955565b60018101905061596e565b5050565b601f8211156159d1576159a281615871565b6159ab84615886565b810160208510156159ba578190505b6159ce6159c685615886565b83018261596d565b50505b505050565b600082821c905092915050565b60006159f4600019846008026159d6565b1980831691505092915050565b6000615a0d83836159e3565b9150826002028217905092915050565b615a26826147a1565b67ffffffffffffffff811115615a3f57615a3e614956565b5b615a4982546156fe565b615a54828285615990565b600060209050601f831160018114615a875760008415615a75578287015190505b615a7f8582615a01565b865550615ae7565b601f198416615a9586615871565b60005b82811015615abd57848901518255600182019150602085019450602081019050615a98565b86831015615ada5784890151615ad6601f8916826159e3565b8355505b6001600288020188555050505b505050505050565b60006080820190508181036000830152615b0981876147f8565b9050615b186020830186614b22565b615b2560408301856146de565b8181036060830152615b3781846147f8565b905095945050505050565b6000615b4d826148b1565b9150615b58836148b1565b9250828202615b66816148b1565b91508282048414831517615b7d57615b7c6157fa565b5b5092915050565b7f4e487b7100000000000000000000000000000000000000000000000000000000600052601260045260246000fd5b6000615bbe826148b1565b9150615bc9836148b1565b925082615bd957615bd8615b84565b5b828204905092915050565b6000615bef826148b1565b9150615bfa836148b1565b9250828201905080821115615c1257615c116157fa565b5b92915050565b7f436f6d6d756e6974793a20496e73756666696369656e7420746f6b656e730000600082015250565b6000615c4e601e836147ac565b9150615c5982615c18565b602082019050919050565b60006020820190508181036000830152615c7d81615c41565b9050919050565b6000604082019050615c996000830185614927565b8181036020830152615cab818461502b565b90509392505050565b7f4576656e74206973206e6f742061637469766500000000000000000000000000600082015250565b6000615cea6013836147ac565b9150615cf582615cb4565b602082019050919050565b60006020820190508181036000830152615d1981615cdd565b9050919050565b7f4576656e74206e6f7420696e2070726f67726573730000000000000000000000600082015250565b6000615d566015836147ac565b9150615d6182615d20565b602082019050919050565b60006020820190508181036000830152615d8581615d49565b9050919050565b7f4576656e742069732066756c6c00000000000000000000000000000000000000600082015250565b6000615dc2600d836147ac565b9150615dcd82615d8c565b602082019050919050565b60006020820190508181036000830152615df181615db5565b9050919050565b7f416c726561647920696e20726576696577657220706f6f6c0000000000000000600082015250565b6000615e2e6018836147ac565b9150615e3982615df8565b602082019050919050565b60006020820190508181036000830152615e5d81615e21565b9050919050565b7f45786365656473206d61782070726f6a6563742066756e64696e670000000000600082015250565b6000615e9a601b836147ac565b9150615ea582615e64565b602082019050919050565b60006020820190508181036000830152615ec981615e8d565b9050919050565b7f496e73756666696369656e7420636f6d6d756e6974792070726f6a656374206660008201527f756e647300000000000000000000000000000000000000000000000000000000602082015250565b6000615f2c6024836147ac565b9150615f3782615ed0565b604082019050919050565b60006020820190508181036000830152615f5b81615f1f565b9050919050565b6000604082019050615f776000830185614b22565b615f846020830184614927565b9392505050565b7f4e6f7420617574686f72697a6564000000000000000000000000000000000000600082015250565b6000615fc1600e836147ac565b9150615fcc82615f8b565b602082019050919050565b60006020820190508181036000830152615ff081615fb4565b9050919050565b600081905092915050565b50565b6000616012600083615ff7565b915061601d82616002565b600082019050919050565b600061603382616005565b9150819050919050565b7f5472616e73666572206661696c65640000000000000000000000000000000000600082015250565b6000616073600f836147ac565b915061607e8261603d565b602082019050919050565b600060208201905081810360008301526160a281616066565b9050919050565b7f50726f706f73616c20616c726561647920657865637574656400000000000000600082015250565b60006160df6019836147ac565b91506160ea826160a9565b602082019050919050565b6000602082019050818103600083015261610e816160d2565b9050919050565b7f416c726561647920617070726f76656400000000000000000000000000000000600082015250565b600061614b6010836147ac565b915061615682616115565b602082019050919050565b6000602082019050818103600083015261617a8161613e565b9050919050565b60008190508160005260206000209050919050565b600081546161a3816156fe565b6161ad8186615ff7565b945060018216600081146161c857600181146161dd57616210565b60ff1983168652811515820286019350616210565b6161e685616181565b60005b83811015616208578154818901526001820191506020810190506161e9565b838801955050505b50505092915050565b60006162258284616196565b915081905092915050565b7f50726f706f73616c20657865637574696f6e206661696c656400000000000000600082015250565b60006162666019836147ac565b915061627182616230565b602082019050919050565b6000602082019050818103600083015261629581616259565b9050919050565b7f4e6f7420696e20726576696577657220706f6f6c000000000000000000000000600082015250565b60006162d26014836147ac565b91506162dd8261629c565b602082019050919050565b60006020820190508181036000830152616301816162c5565b9050919050565b6000616313826148b1565b915061631e836148b1565b9250828203905081811115616336576163356157fa565b5b92915050565b7f4e487b7100000000000000000000000000000000000000000000000000000000600052603160045260246000fd5b7f496e76616c69642072657761726420616d6f756e740000000000000000000000600082015250565b60006163a16015836147ac565b91506163ac8261636b565b602082019050919050565b600060208201905081810360008301526163d081616394565b9050919050565b7f436f6d6d756e6974793a204d696e74696e67206c696d6974206578636565646560008201527f6400000000000000000000000000000000000000000000000000000000000000602082015250565b60006164336021836147ac565b915061643e826163d7565b604082019050919050565b6000602082019050818103600083015261646281616426565b9050919050565b7f436f6d6d756e6974793a2043616e6e6f74206d696e7420746f207a65726f206160008201527f6464726573730000000000000000000000000000000000000000000000000000602082015250565b60006164c56026836147ac565b91506164d082616469565b604082019050919050565b600060208201905081810360008301526164f4816164b8565b9050919050565b601f82111561653c5761650d81616181565b61651684615886565b81016020851015616525578190505b61653961653185615886565b83018261596d565b50505b505050565b61654a82615147565b67ffffffffffffffff81111561656357616562614956565b5b61656d82546156fe565b6165788282856164fb565b600060209050601f8311600181146165ab5760008415616599578287015190505b6165a38582615a01565b86555061660b565b601f1984166165b986616181565b60005b828110156165e1578489015182556001820191506020850194506020810190506165bc565b868310156165fe57848901516165fa601f8916826159e3565b8355505b6001600288020188555050505b505050505050565b60006060820190506166286000830186614b22565b6166356020830185614927565b6166426040830184614927565b949350505050565b60008160601b9050919050565b60006166628261664a565b9050919050565b600061667482616657565b9050919050565b61668c61668782614873565b616669565b82525050565b60008160f81b9050919050565b60006166aa82616692565b9050919050565b6166c26166bd8261535f565b61669f565b82525050565b60006166d4828561667b565b6014820191506166e482846166b1565b6001820191508190509392505050565b7f4c696d6974204578636565646564210000000000000000000000000000000000600082015250565b600061672a600f836147ac565b9150616735826166f4565b602082019050919050565b600060208201905081810360008301526167598161671d565b9050919050565b60006040820190506167756000830185614b22565b6167826020830184614c02565b939250505056fea2646970667358221220cd8da26c40bf780617cbb8900eb56747f9da5189c1bd63ead9e59919ae3cf66b64736f6c634300081b0033",
  "linkReferences": {},
  "deployedLinkReferences": {}
}