{
  "_format": "hh-sol-artifact-1",
  "contractName": "Community",
  "sourceName": "contracts/Community Contracts/Community.sol",
  "abi": [
    {
      "inputs": [
        {
          "internalType": "address[]",
          "name": "_reviewers",
          "type": "address[]"
        }
      ],
      "stateMutability": "nonpayable",
      "type": "constructor"
    },
    {
      "inputs": [],
      "name": "AccessControlBadConfirmation",
      "type": "error"
    },
    {
      "inputs": [
        {
          "internalType": "address",
          "name": "account",
          "type": "address"
        },
        {
          "internalType": "bytes32",
          "name": "neededRole",
          "type": "bytes32"
        }
      ],
      "name": "AccessControlUnauthorizedAccount",
      "type": "error"
    },
    {
      "inputs": [
        {
          "internalType": "address",
          "name": "spender",
          "type": "address"
        },
        {
          "internalType": "uint256",
          "name": "allowance",
          "type": "uint256"
        },
        {
          "internalType": "uint256",
          "name": "needed",
          "type": "uint256"
        }
      ],
      "name": "ERC20InsufficientAllowance",
      "type": "error"
    },
    {
      "inputs": [
        {
          "internalType": "address",
          "name": "sender",
          "type": "address"
        },
        {
          "internalType": "uint256",
          "name": "balance",
          "type": "uint256"
        },
        {
          "internalType": "uint256",
          "name": "needed",
          "type": "uint256"
        }
      ],
      "name": "ERC20InsufficientBalance",
      "type": "error"
    },
    {
      "inputs": [
        {
          "internalType": "address",
          "name": "approver",
          "type": "address"
        }
      ],
      "name": "ERC20InvalidApprover",
      "type": "error"
    },
    {
      "inputs": [
        {
          "internalType": "address",
          "name": "receiver",
          "type": "address"
        }
      ],
      "name": "ERC20InvalidReceiver",
      "type": "error"
    },
    {
      "inputs": [
        {
          "internalType": "address",
          "name": "sender",
          "type": "address"
        }
      ],
      "name": "ERC20InvalidSender",
      "type": "error"
    },
    {
      "inputs": [
        {
          "internalType": "address",
          "name": "spender",
          "type": "address"
        }
      ],
      "name": "ERC20InvalidSpender",
      "type": "error"
    },
    {
      "inputs": [],
      "name": "ReentrancyGuardReentrantCall",
      "type": "error"
    },
    {
      "anonymous": false,
      "inputs": [
        {
          "indexed": true,
          "internalType": "uint256",
          "name": "_amount",
          "type": "uint256"
        },
        {
          "indexed": false,
          "internalType": "uint256",
          "name": "_numberOfEarlyAdopters",
          "type": "uint256"
        }
      ],
      "name": "AirdropDistributeSuccess",
      "type": "event"
    },
    {
      "anonymous": false,
      "inputs": [
        {
          "indexed": true,
          "internalType": "address",
          "name": "owner",
          "type": "address"
        },
        {
          "indexed": true,
          "internalType": "address",
          "name": "spender",
          "type": "address"
        },
        {
          "indexed": false,
          "internalType": "uint256",
          "name": "value",
          "type": "uint256"
        }
      ],
      "name": "Approval",
      "type": "event"
    },
    {
      "anonymous": false,
      "inputs": [
        {
          "indexed": true,
          "internalType": "address",
          "name": "member",
          "type": "address"
        },
        {
          "indexed": false,
          "internalType": "enum CommunityBadgeSystem.BadgeLevel",
          "name": "badge",
          "type": "uint8"
        }
      ],
      "name": "BadgeAwarded",
      "type": "event"
    },
    {
      "anonymous": false,
      "inputs": [
        {
          "indexed": true,
          "internalType": "address",
          "name": "_account",
          "type": "address"
        },
        {
          "indexed": false,
          "internalType": "uint256",
          "name": "_amount",
          "type": "uint256"
        }
      ],
      "name": "BurnSuccess",
      "type": "event"
    },
    {
      "anonymous": false,
      "inputs": [
        {
          "indexed": true,
          "internalType": "address",
          "name": "_to",
          "type": "address"
        },
        {
          "indexed": true,
          "internalType": "uint256",
          "name": "_amount",
          "type": "uint256"
        }
      ],
      "name": "CommunityPoolUpdate",
      "type": "event"
    },
    {
      "anonymous": false,
      "inputs": [
        {
          "indexed": true,
          "internalType": "uint256",
          "name": "eventId",
          "type": "uint256"
        },
        {
          "indexed": false,
          "internalType": "string",
          "name": "name",
          "type": "string"
        },
        {
          "indexed": false,
          "internalType": "address",
          "name": "creator",
          "type": "address"
        },
        {
          "indexed": false,
          "internalType": "bool",
          "name": "isOnline",
          "type": "bool"
        },
        {
          "indexed": false,
          "internalType": "string",
          "name": "location",
          "type": "string"
        }
      ],
      "name": "EventCreated",
      "type": "event"
    },
    {
      "anonymous": false,
      "inputs": [
        {
          "indexed": true,
          "internalType": "uint256",
          "name": "eventId",
          "type": "uint256"
        },
        {
          "indexed": false,
          "internalType": "address",
          "name": "participant",
          "type": "address"
        }
      ],
      "name": "EventParticipation",
      "type": "event"
    },
    {
      "anonymous": false,
      "inputs": [
        {
          "indexed": true,
          "internalType": "address",
          "name": "member",
          "type": "address"
        },
        {
          "indexed": false,
          "internalType": "uint256",
          "name": "totalEvents",
          "type": "uint256"
        }
      ],
      "name": "EventParticipationRecorded",
      "type": "event"
    },
    {
      "anonymous": false,
      "inputs": [
        {
          "indexed": true,
          "internalType": "address",
          "name": "_address",
          "type": "address"
        }
      ],
      "name": "JoinSuccess",
      "type": "event"
    },
    {
      "anonymous": false,
      "inputs": [
        {
          "indexed": true,
          "internalType": "address",
          "name": "member",
          "type": "address"
        }
      ],
      "name": "MemberRegistered",
      "type": "event"
    },
    {
      "anonymous": false,
      "inputs": [
        {
          "indexed": true,
          "internalType": "address",
          "name": "_to",
          "type": "address"
        },
        {
          "indexed": true,
          "internalType": "uint256",
          "name": "_amount",
          "type": "uint256"
        }
      ],
      "name": "MintSuccess",
      "type": "event"
    },
    {
      "anonymous": false,
      "inputs": [
        {
          "indexed": true,
          "internalType": "uint256",
          "name": "proposalId",
          "type": "uint256"
        },
        {
          "indexed": false,
          "internalType": "address",
          "name": "approver",
          "type": "address"
        }
      ],
      "name": "MultiSigProposalApproved",
      "type": "event"
    },
    {
      "anonymous": false,
      "inputs": [
        {
          "indexed": true,
          "internalType": "uint256",
          "name": "proposalId",
          "type": "uint256"
        },
        {
          "indexed": false,
          "internalType": "address",
          "name": "proposer",
          "type": "address"
        }
      ],
      "name": "MultiSigProposalCreated",
      "type": "event"
    },
    {
      "anonymous": false,
      "inputs": [
        {
          "indexed": true,
          "internalType": "uint256",
          "name": "proposalId",
          "type": "uint256"
        }
      ],
      "name": "MultiSigProposalExecuted",
      "type": "event"
    },
    {
      "anonymous": false,
      "inputs": [
        {
          "indexed": true,
          "internalType": "uint256",
          "name": "proposalId",
          "type": "uint256"
        },
        {
          "indexed": true,
          "internalType": "address",
          "name": "creator",
          "type": "address"
        },
        {
          "indexed": false,
          "internalType": "uint256",
          "name": "amount",
          "type": "uint256"
        }
      ],
      "name": "ProjectFundingReleased",
      "type": "event"
    },
    {
      "anonymous": false,
      "inputs": [
        {
          "indexed": true,
          "internalType": "uint256",
          "name": "proposalId",
          "type": "uint256"
        }
      ],
      "name": "ProjectProposalApproved",
      "type": "event"
    },
    {
      "anonymous": false,
      "inputs": [
        {
          "indexed": true,
          "internalType": "uint256",
          "name": "proposalId",
          "type": "uint256"
        },
        {
          "indexed": true,
          "internalType": "address",
          "name": "creator",
          "type": "address"
        },
        {
          "indexed": false,
          "internalType": "string",
          "name": "name",
          "type": "string"
        },
        {
          "indexed": false,
          "internalType": "uint256",
          "name": "requestedAmount",
          "type": "uint256"
        }
      ],
      "name": "ProjectProposalCreated",
      "type": "event"
    },
    {
      "anonymous": false,
      "inputs": [
        {
          "indexed": true,
          "internalType": "uint256",
          "name": "proposalId",
          "type": "uint256"
        },
        {
          "indexed": false,
          "internalType": "string",
          "name": "reason",
          "type": "string"
        }
      ],
      "name": "ProjectProposalRejected",
      "type": "event"
    },
    {
      "anonymous": false,
      "inputs": [
        {
          "indexed": true,
          "internalType": "address",
          "name": "reviewer",
          "type": "address"
        }
      ],
      "name": "ReviewerAddedToPool",
      "type": "event"
    },
    {
      "anonymous": false,
      "inputs": [
        {
          "indexed": true,
          "internalType": "address",
          "name": "reviewer",
          "type": "address"
        }
      ],
      "name": "ReviewerRemovedFromPool",
      "type": "event"
    },
    {
      "anonymous": false,
      "inputs": [
        {
          "indexed": true,
          "internalType": "bytes32",
          "name": "role",
          "type": "bytes32"
        },
        {
          "indexed": true,
          "internalType": "bytes32",
          "name": "previousAdminRole",
          "type": "bytes32"
        },
        {
          "indexed": true,
          "internalType": "bytes32",
          "name": "newAdminRole",
          "type": "bytes32"
        }
      ],
      "name": "RoleAdminChanged",
      "type": "event"
    },
    {
      "anonymous": false,
      "inputs": [
        {
          "indexed": true,
          "internalType": "bytes32",
          "name": "role",
          "type": "bytes32"
        },
        {
          "indexed": true,
          "internalType": "address",
          "name": "account",
          "type": "address"
        },
        {
          "indexed": true,
          "internalType": "address",
          "name": "sender",
          "type": "address"
        }
      ],
      "name": "RoleGranted",
      "type": "event"
    },
    {
      "anonymous": false,
      "inputs": [
        {
          "indexed": true,
          "internalType": "bytes32",
          "name": "role",
          "type": "bytes32"
        },
        {
          "indexed": true,
          "internalType": "address",
          "name": "account",
          "type": "address"
        },
        {
          "indexed": true,
          "internalType": "address",
          "name": "sender",
          "type": "address"
        }
      ],
      "name": "RoleRevoked",
      "type": "event"
    },
    {
      "anonymous": false,
      "inputs": [
        {
          "indexed": true,
          "internalType": "address",
          "name": "from",
          "type": "address"
        },
        {
          "indexed": true,
          "internalType": "address",
          "name": "to",
          "type": "address"
        },
        {
          "indexed": false,
          "internalType": "uint256",
          "name": "value",
          "type": "uint256"
        }
      ],
      "name": "Transfer",
      "type": "event"
    },
    {
      "inputs": [],
      "name": "CHAMPION_BADGE_THRESHOLD",
      "outputs": [
        {
          "internalType": "uint256",
          "name": "",
          "type": "uint256"
        }
      ],
      "stateMutability": "view",
      "type": "function"
    },
    {
      "inputs": [],
      "name": "CHAMPION_REWARD",
      "outputs": [
        {
          "internalType": "uint256",
          "name": "",
          "type": "uint256"
        }
      ],
      "stateMutability": "view",
      "type": "function"
    },
    {
      "inputs": [],
      "name": "COMMUNITY_MANAGER",
      "outputs": [
        {
          "internalType": "bytes32",
          "name": "",
          "type": "bytes32"
        }
      ],
      "stateMutability": "view",
      "type": "function"
    },
    {
      "inputs": [],
      "name": "COMMUNITY_POOL",
      "outputs": [
        {
          "internalType": "uint256",
          "name": "",
          "type": "uint256"
        }
      ],
      "stateMutability": "view",
      "type": "function"
    },
    {
      "inputs": [],
      "name": "CONTRIBUTOR_BADGE_THRESHOLD",
      "outputs": [
        {
          "internalType": "uint256",
          "name": "",
          "type": "uint256"
        }
      ],
      "stateMutability": "view",
      "type": "function"
    },
    {
      "inputs": [],
      "name": "CONTRIBUTOR_REWARD",
      "outputs": [
        {
          "internalType": "uint256",
          "name": "",
          "type": "uint256"
        }
      ],
      "stateMutability": "view",
      "type": "function"
    },
    {
      "inputs": [],
      "name": "DEFAULT_ADMIN_ROLE",
      "outputs": [
        {
          "internalType": "bytes32",
          "name": "",
          "type": "bytes32"
        }
      ],
      "stateMutability": "view",
      "type": "function"
    },
    {
      "inputs": [],
      "name": "EVENT_PARTICIPATION_REWARD",
      "outputs": [
        {
          "internalType": "uint256",
          "name": "",
          "type": "uint256"
        }
      ],
      "stateMutability": "view",
      "type": "function"
    },
    {
      "inputs": [],
      "name": "LEADER_BADGE_THRESHOLD",
      "outputs": [
        {
          "internalType": "uint256",
          "name": "",
          "type": "uint256"
        }
      ],
      "stateMutability": "view",
      "type": "function"
    },
    {
      "inputs": [],
      "name": "LEADER_REWARD",
      "outputs": [
        {
          "internalType": "uint256",
          "name": "",
          "type": "uint256"
        }
      ],
      "stateMutability": "view",
      "type": "function"
    },
    {
      "inputs": [],
      "name": "MAX_COMMUNITY_PROJECT_FUNDING",
      "outputs": [
        {
          "internalType": "uint256",
          "name": "",
          "type": "uint256"
        }
      ],
      "stateMutability": "view",
      "type": "function"
    },
    {
      "inputs": [],
      "name": "MAX_SUPPLY",
      "outputs": [
        {
          "internalType": "uint256",
          "name": "",
          "type": "uint256"
        }
      ],
      "stateMutability": "view",
      "type": "function"
    },
    {
      "inputs": [],
      "name": "MULTISIG_APPROVER",
      "outputs": [
        {
          "internalType": "bytes32",
          "name": "",
          "type": "bytes32"
        }
      ],
      "stateMutability": "view",
      "type": "function"
    },
    {
      "inputs": [],
      "name": "PARTICIPANT_BADGE_THRESHOLD",
      "outputs": [
        {
          "internalType": "uint256",
          "name": "",
          "type": "uint256"
        }
      ],
      "stateMutability": "view",
      "type": "function"
    },
    {
      "inputs": [],
      "name": "PARTICIPANT_REWARD",
      "outputs": [
        {
          "internalType": "uint256",
          "name": "",
          "type": "uint256"
        }
      ],
      "stateMutability": "view",
      "type": "function"
    },
    {
      "inputs": [],
      "name": "REVIEWER_ROLE",
      "outputs": [
        {
          "internalType": "bytes32",
          "name": "",
          "type": "bytes32"
        }
      ],
      "stateMutability": "view",
      "type": "function"
    },
    {
      "inputs": [
        {
          "internalType": "uint256",
          "name": "",
          "type": "uint256"
        }
      ],
      "name": "abyaCommunity",
      "outputs": [
        {
          "internalType": "address",
          "name": "",
          "type": "address"
        }
      ],
      "stateMutability": "view",
      "type": "function"
    },
    {
      "inputs": [
        {
          "internalType": "address",
          "name": "newReviewer",
          "type": "address"
        }
      ],
      "name": "addReviewer",
      "outputs": [],
      "stateMutability": "nonpayable",
      "type": "function"
    },
    {
      "inputs": [
        {
          "internalType": "address",
          "name": "owner",
          "type": "address"
        },
        {
          "internalType": "address",
          "name": "spender",
          "type": "address"
        }
      ],
      "name": "allowance",
      "outputs": [
        {
          "internalType": "uint256",
          "name": "",
          "type": "uint256"
        }
      ],
      "stateMutability": "view",
      "type": "function"
    },
    {
      "inputs": [
        {
          "internalType": "address",
          "name": "spender",
          "type": "address"
        },
        {
          "internalType": "uint256",
          "name": "value",
          "type": "uint256"
        }
      ],
      "name": "approve",
      "outputs": [
        {
          "internalType": "bool",
          "name": "",
          "type": "bool"
        }
      ],
      "stateMutability": "nonpayable",
      "type": "function"
    },
    {
      "inputs": [
        {
          "internalType": "uint256",
          "name": "_proposalId",
          "type": "uint256"
        }
      ],
      "name": "approveMultiSigProposal",
      "outputs": [],
      "stateMutability": "nonpayable",
      "type": "function"
    },
    {
      "inputs": [
        {
          "internalType": "uint256",
          "name": "_proposalId",
          "type": "uint256"
        }
      ],
      "name": "approveProjectProposal",
      "outputs": [],
      "stateMutability": "nonpayable",
      "type": "function"
    },
    {
      "inputs": [
        {
          "internalType": "enum CommunityBadgeSystem.BadgeLevel",
          "name": "",
          "type": "uint8"
        }
      ],
      "name": "badgeMetadata",
      "outputs": [
        {
          "internalType": "string",
          "name": "name",
          "type": "string"
        },
        {
          "internalType": "string",
          "name": "iconURI",
          "type": "string"
        },
        {
          "internalType": "uint256",
          "name": "tokenReward",
          "type": "uint256"
        }
      ],
      "stateMutability": "view",
      "type": "function"
    },
    {
      "inputs": [
        {
          "internalType": "address",
          "name": "account",
          "type": "address"
        }
      ],
      "name": "balanceOf",
      "outputs": [
        {
          "internalType": "uint256",
          "name": "",
          "type": "uint256"
        }
      ],
      "stateMutability": "view",
      "type": "function"
    },
    {
      "inputs": [],
      "name": "checkMemberBadge",
      "outputs": [
        {
          "internalType": "enum CommunityBadgeSystem.BadgeLevel",
          "name": "",
          "type": "uint8"
        }
      ],
      "stateMutability": "view",
      "type": "function"
    },
    {
      "inputs": [],
      "name": "claimBadgeRewards",
      "outputs": [],
      "stateMutability": "nonpayable",
      "type": "function"
    },
    {
      "inputs": [
        {
          "internalType": "address",
          "name": "",
          "type": "address"
        }
      ],
      "name": "communityContributorRewards",
      "outputs": [
        {
          "internalType": "uint256",
          "name": "",
          "type": "uint256"
        }
      ],
      "stateMutability": "view",
      "type": "function"
    },
    {
      "inputs": [
        {
          "internalType": "uint256",
          "name": "",
          "type": "uint256"
        }
      ],
      "name": "communityEvents",
      "outputs": [
        {
          "internalType": "uint256",
          "name": "id",
          "type": "uint256"
        },
        {
          "internalType": "string",
          "name": "name",
          "type": "string"
        },
        {
          "internalType": "address",
          "name": "creator",
          "type": "address"
        },
        {
          "internalType": "uint256",
          "name": "startTime",
          "type": "uint256"
        },
        {
          "internalType": "uint256",
          "name": "endTime",
          "type": "uint256"
        },
        {
          "internalType": "uint256",
          "name": "maxParticipants",
          "type": "uint256"
        },
        {
          "internalType": "uint256",
          "name": "currentParticipants",
          "type": "uint256"
        },
        {
          "internalType": "bool",
          "name": "isActive",
          "type": "bool"
        },
        {
          "internalType": "bool",
          "name": "isOnline",
          "type": "bool"
        },
        {
          "internalType": "string",
          "name": "location",
          "type": "string"
        },
        {
          "internalType": "string",
          "name": "additionalDetails",
          "type": "string"
        }
      ],
      "stateMutability": "view",
      "type": "function"
    },
    {
      "inputs": [
        {
          "internalType": "address",
          "name": "",
          "type": "address"
        }
      ],
      "name": "communityMembers",
      "outputs": [
        {
          "internalType": "uint256",
          "name": "totalEventsAttended",
          "type": "uint256"
        },
        {
          "internalType": "uint256",
          "name": "totalContributions",
          "type": "uint256"
        },
        {
          "internalType": "enum CommunityBadgeSystem.BadgeLevel",
          "name": "currentBadge",
          "type": "uint8"
        }
      ],
      "stateMutability": "view",
      "type": "function"
    },
    {
      "inputs": [],
      "name": "communityPoolSupply",
      "outputs": [
        {
          "internalType": "uint256",
          "name": "",
          "type": "uint256"
        }
      ],
      "stateMutability": "view",
      "type": "function"
    },
    {
      "inputs": [],
      "name": "communityProjectFunds",
      "outputs": [
        {
          "internalType": "uint256",
          "name": "",
          "type": "uint256"
        }
      ],
      "stateMutability": "view",
      "type": "function"
    },
    {
      "inputs": [
        {
          "internalType": "string",
          "name": "_name",
          "type": "string"
        },
        {
          "internalType": "uint256",
          "name": "_startTime",
          "type": "uint256"
        },
        {
          "internalType": "uint256",
          "name": "_endTime",
          "type": "uint256"
        },
        {
          "internalType": "uint256",
          "name": "_maxParticipants",
          "type": "uint256"
        },
        {
          "internalType": "bool",
          "name": "_isOnline",
          "type": "bool"
        },
        {
          "internalType": "string",
          "name": "_location",
          "type": "string"
        },
        {
          "internalType": "string",
          "name": "_additionalDetails",
          "type": "string"
        }
      ],
      "name": "createEvent",
      "outputs": [
        {
          "internalType": "uint256",
          "name": "",
          "type": "uint256"
        }
      ],
      "stateMutability": "nonpayable",
      "type": "function"
    },
    {
      "inputs": [
        {
          "internalType": "string",
          "name": "_name",
          "type": "string"
        },
        {
          "internalType": "string",
          "name": "_description",
          "type": "string"
        },
        {
          "internalType": "string[]",
          "name": "_techStack",
          "type": "string[]"
        },
        {
          "internalType": "string",
          "name": "_blockchain",
          "type": "string"
        },
        {
          "internalType": "uint256",
          "name": "_requestedAmount",
          "type": "uint256"
        },
        {
          "internalType": "uint256",
          "name": "_timeline",
          "type": "uint256"
        },
        {
          "internalType": "enum Community.ProjectStage",
          "name": "_stage",
          "type": "uint8"
        }
      ],
      "name": "createProjectFundingProposal",
      "outputs": [
        {
          "internalType": "uint256",
          "name": "",
          "type": "uint256"
        }
      ],
      "stateMutability": "nonpayable",
      "type": "function"
    },
    {
      "inputs": [],
      "name": "decimals",
      "outputs": [
        {
          "internalType": "uint8",
          "name": "",
          "type": "uint8"
        }
      ],
      "stateMutability": "view",
      "type": "function"
    },
    {
      "inputs": [
        {
          "internalType": "uint256",
          "name": "_amount",
          "type": "uint256"
        },
        {
          "internalType": "address[]",
          "name": "earlyAdopters",
          "type": "address[]"
        }
      ],
      "name": "distributeAirdrops",
      "outputs": [
        {
          "internalType": "bool",
          "name": "",
          "type": "bool"
        }
      ],
      "stateMutability": "nonpayable",
      "type": "function"
    },
    {
      "inputs": [],
      "name": "getAllCommunityEvents",
      "outputs": [
        {
          "components": [
            {
              "internalType": "uint256",
              "name": "id",
              "type": "uint256"
            },
            {
              "internalType": "string",
              "name": "name",
              "type": "string"
            },
            {
              "internalType": "address",
              "name": "creator",
              "type": "address"
            },
            {
              "internalType": "uint256",
              "name": "startTime",
              "type": "uint256"
            },
            {
              "internalType": "uint256",
              "name": "endTime",
              "type": "uint256"
            },
            {
              "internalType": "uint256",
              "name": "maxParticipants",
              "type": "uint256"
            },
            {
              "internalType": "uint256",
              "name": "currentParticipants",
              "type": "uint256"
            },
            {
              "internalType": "bool",
              "name": "isActive",
              "type": "bool"
            },
            {
              "internalType": "bool",
              "name": "isOnline",
              "type": "bool"
            },
            {
              "internalType": "string",
              "name": "location",
              "type": "string"
            },
            {
              "internalType": "string",
              "name": "additionalDetails",
              "type": "string"
            }
          ],
          "internalType": "struct Community.CommunityEvent[]",
          "name": "",
          "type": "tuple[]"
        }
      ],
      "stateMutability": "view",
      "type": "function"
    },
    {
      "inputs": [],
      "name": "getAllCommunityMembers",
      "outputs": [
        {
          "internalType": "address[]",
          "name": "",
          "type": "address[]"
        }
      ],
      "stateMutability": "view",
      "type": "function"
    },
    {
      "inputs": [],
      "name": "getAllProjectProposals",
      "outputs": [
        {
          "components": [
            {
              "internalType": "uint256",
              "name": "id",
              "type": "uint256"
            },
            {
              "internalType": "address",
              "name": "creator",
              "type": "address"
            },
            {
              "internalType": "string",
              "name": "name",
              "type": "string"
            },
            {
              "internalType": "string",
              "name": "description",
              "type": "string"
            },
            {
              "internalType": "string[]",
              "name": "techStack",
              "type": "string[]"
            },
            {
              "internalType": "string",
              "name": "blockchain",
              "type": "string"
            },
            {
              "internalType": "uint256",
              "name": "requestedAmount",
              "type": "uint256"
            },
            {
              "internalType": "uint256",
              "name": "timeline",
              "type": "uint256"
            },
            {
              "internalType": "enum Community.ProjectStage",
              "name": "stage",
              "type": "uint8"
            },
            {
              "internalType": "bool",
              "name": "isApproved",
              "type": "bool"
            },
            {
              "internalType": "bool",
              "name": "isRejected",
              "type": "bool"
            },
            {
              "internalType": "string",
              "name": "rejectionReason",
              "type": "string"
            },
            {
              "internalType": "uint256",
              "name": "approvalCount",
              "type": "uint256"
            }
          ],
          "internalType": "struct Community.ProjectFundingProposal[]",
          "name": "",
          "type": "tuple[]"
        }
      ],
      "stateMutability": "view",
      "type": "function"
    },
    {
      "inputs": [
        {
          "internalType": "enum CommunityBadgeSystem.BadgeLevel",
          "name": "_level",
          "type": "uint8"
        }
      ],
      "name": "getBadgeMetadata",
      "outputs": [
        {
          "components": [
            {
              "internalType": "string",
              "name": "name",
              "type": "string"
            },
            {
              "internalType": "string",
              "name": "iconURI",
              "type": "string"
            },
            {
              "internalType": "uint256",
              "name": "tokenReward",
              "type": "uint256"
            }
          ],
          "internalType": "struct CommunityBadgeSystem.BadgeMetadata",
          "name": "",
          "type": "tuple"
        }
      ],
      "stateMutability": "view",
      "type": "function"
    },
    {
      "inputs": [
        {
          "internalType": "address",
          "name": "_member",
          "type": "address"
        }
      ],
      "name": "getMemberBadge",
      "outputs": [
        {
          "internalType": "enum CommunityBadgeSystem.BadgeLevel",
          "name": "",
          "type": "uint8"
        }
      ],
      "stateMutability": "view",
      "type": "function"
    },
    {
      "inputs": [
        {
          "internalType": "address",
          "name": "_member",
          "type": "address"
        }
      ],
      "name": "getMemberBadgeDetails",
      "outputs": [
        {
          "internalType": "enum CommunityBadgeSystem.BadgeLevel",
          "name": "currentBadge",
          "type": "uint8"
        },
        {
          "internalType": "string",
          "name": "badgeName",
          "type": "string"
        },
        {
          "internalType": "string",
          "name": "iconURI",
          "type": "string"
        },
        {
          "internalType": "uint256",
          "name": "tokenReward",
          "type": "uint256"
        },
        {
          "internalType": "uint256",
          "name": "totalEventsAttended",
          "type": "uint256"
        }
      ],
      "stateMutability": "view",
      "type": "function"
    },
    {
      "inputs": [
        {
          "internalType": "uint256",
          "name": "_proposalId",
          "type": "uint256"
        }
      ],
      "name": "getProjectProposal",
      "outputs": [
        {
          "internalType": "address",
          "name": "creator",
          "type": "address"
        },
        {
          "internalType": "string",
          "name": "name",
          "type": "string"
        },
        {
          "internalType": "string",
          "name": "description",
          "type": "string"
        },
        {
          "internalType": "string",
          "name": "blockchain",
          "type": "string"
        },
        {
          "internalType": "uint256",
          "name": "requestedAmount",
          "type": "uint256"
        },
        {
          "internalType": "uint256",
          "name": "timeline",
          "type": "uint256"
        },
        {
          "internalType": "enum Community.ProjectStage",
          "name": "stage",
          "type": "uint8"
        },
        {
          "internalType": "bool",
          "name": "isApproved",
          "type": "bool"
        },
        {
          "internalType": "bool",
          "name": "isRejected",
          "type": "bool"
        },
        {
          "internalType": "string",
          "name": "rejectionReason",
          "type": "string"
        },
        {
          "internalType": "uint256",
          "name": "approvalCount",
          "type": "uint256"
        }
      ],
      "stateMutability": "view",
      "type": "function"
    },
    {
      "inputs": [
        {
          "internalType": "uint256",
          "name": "_proposalId",
          "type": "uint256"
        }
      ],
      "name": "getProjectTechStack",
      "outputs": [
        {
          "internalType": "string[]",
          "name": "",
          "type": "string[]"
        }
      ],
      "stateMutability": "view",
      "type": "function"
    },
    {
      "inputs": [
        {
          "internalType": "bytes32",
          "name": "role",
          "type": "bytes32"
        }
      ],
      "name": "getRoleAdmin",
      "outputs": [
        {
          "internalType": "bytes32",
          "name": "",
          "type": "bytes32"
        }
      ],
      "stateMutability": "view",
      "type": "function"
    },
    {
      "inputs": [
        {
          "internalType": "address",
          "name": "_member",
          "type": "address"
        }
      ],
      "name": "getTotalEventsAttended",
      "outputs": [
        {
          "internalType": "uint256",
          "name": "",
          "type": "uint256"
        }
      ],
      "stateMutability": "view",
      "type": "function"
    },
    {
      "inputs": [
        {
          "internalType": "bytes32",
          "name": "role",
          "type": "bytes32"
        },
        {
          "internalType": "address",
          "name": "account",
          "type": "address"
        }
      ],
      "name": "grantRole",
      "outputs": [],
      "stateMutability": "nonpayable",
      "type": "function"
    },
    {
      "inputs": [
        {
          "internalType": "address",
          "name": "_member",
          "type": "address"
        },
        {
          "internalType": "enum CommunityBadgeSystem.BadgeLevel",
          "name": "_badgeLevel",
          "type": "uint8"
        }
      ],
      "name": "hasBadge",
      "outputs": [
        {
          "internalType": "bool",
          "name": "",
          "type": "bool"
        }
      ],
      "stateMutability": "view",
      "type": "function"
    },
    {
      "inputs": [
        {
          "internalType": "bytes32",
          "name": "role",
          "type": "bytes32"
        },
        {
          "internalType": "address",
          "name": "account",
          "type": "address"
        }
      ],
      "name": "hasRole",
      "outputs": [
        {
          "internalType": "bool",
          "name": "",
          "type": "bool"
        }
      ],
      "stateMutability": "view",
      "type": "function"
    },
    {
      "inputs": [
        {
          "internalType": "address",
          "name": "",
          "type": "address"
        }
      ],
      "name": "isCommunityMember",
      "outputs": [
        {
          "internalType": "bool",
          "name": "",
          "type": "bool"
        }
      ],
      "stateMutability": "view",
      "type": "function"
    },
    {
      "inputs": [
        {
          "internalType": "address",
          "name": "",
          "type": "address"
        }
      ],
      "name": "isInReviewerPool",
      "outputs": [
        {
          "internalType": "bool",
          "name": "",
          "type": "bool"
        }
      ],
      "stateMutability": "view",
      "type": "function"
    },
    {
      "inputs": [
        {
          "internalType": "address",
          "name": "account",
          "type": "address"
        }
      ],
      "name": "isReviewer",
      "outputs": [
        {
          "internalType": "bool",
          "name": "",
          "type": "bool"
        }
      ],
      "stateMutability": "view",
      "type": "function"
    },
    {
      "inputs": [],
      "name": "joinCommunity",
      "outputs": [
        {
          "internalType": "bool",
          "name": "",
          "type": "bool"
        }
      ],
      "stateMutability": "nonpayable",
      "type": "function"
    },
    {
      "inputs": [
        {
          "internalType": "uint256",
          "name": "",
          "type": "uint256"
        }
      ],
      "name": "multiSigProposals",
      "outputs": [
        {
          "internalType": "uint256",
          "name": "id",
          "type": "uint256"
        },
        {
          "internalType": "address",
          "name": "proposer",
          "type": "address"
        },
        {
          "internalType": "address",
          "name": "targetContract",
          "type": "address"
        },
        {
          "internalType": "bytes",
          "name": "data",
          "type": "bytes"
        },
        {
          "internalType": "uint256",
          "name": "approvalCount",
          "type": "uint256"
        },
        {
          "internalType": "bool",
          "name": "executed",
          "type": "bool"
        }
      ],
      "stateMutability": "view",
      "type": "function"
    },
    {
      "inputs": [],
      "name": "name",
      "outputs": [
        {
          "internalType": "string",
          "name": "",
          "type": "string"
        }
      ],
      "stateMutability": "view",
      "type": "function"
    },
    {
      "inputs": [
        {
          "internalType": "uint256",
          "name": "_eventId",
          "type": "uint256"
        }
      ],
      "name": "participateInEvent",
      "outputs": [],
      "stateMutability": "nonpayable",
      "type": "function"
    },
    {
      "inputs": [
        {
          "internalType": "uint256",
          "name": "_amount",
          "type": "uint256"
        },
        {
          "internalType": "address[]",
          "name": "earlyAdopters",
          "type": "address[]"
        }
      ],
      "name": "performAirdrop",
      "outputs": [],
      "stateMutability": "nonpayable",
      "type": "function"
    },
    {
      "inputs": [
        {
          "internalType": "address[]",
          "name": "_eligibleAddresses",
          "type": "address[]"
        },
        {
          "internalType": "uint256",
          "name": "_amount",
          "type": "uint256"
        }
      ],
      "name": "performPeriodicAirdrop",
      "outputs": [],
      "stateMutability": "nonpayable",
      "type": "function"
    },
    {
      "inputs": [
        {
          "internalType": "address[]",
          "name": "_eligibleAddresses",
          "type": "address[]"
        },
        {
          "internalType": "uint256",
          "name": "_amount",
          "type": "uint256"
        }
      ],
      "name": "periodicAirdrops",
      "outputs": [],
      "stateMutability": "nonpayable",
      "type": "function"
    },
    {
      "inputs": [
        {
          "internalType": "address",
          "name": "_contributor",
          "type": "address"
        },
        {
          "internalType": "uint256",
          "name": "_rewardAmount",
          "type": "uint256"
        }
      ],
      "name": "processCommunityRewards",
      "outputs": [],
      "stateMutability": "nonpayable",
      "type": "function"
    },
    {
      "inputs": [
        {
          "internalType": "uint256",
          "name": "",
          "type": "uint256"
        }
      ],
      "name": "projectProposals",
      "outputs": [
        {
          "internalType": "uint256",
          "name": "id",
          "type": "uint256"
        },
        {
          "internalType": "address",
          "name": "creator",
          "type": "address"
        },
        {
          "internalType": "string",
          "name": "name",
          "type": "string"
        },
        {
          "internalType": "string",
          "name": "description",
          "type": "string"
        },
        {
          "internalType": "string",
          "name": "blockchain",
          "type": "string"
        },
        {
          "internalType": "uint256",
          "name": "requestedAmount",
          "type": "uint256"
        },
        {
          "internalType": "uint256",
          "name": "timeline",
          "type": "uint256"
        },
        {
          "internalType": "enum Community.ProjectStage",
          "name": "stage",
          "type": "uint8"
        },
        {
          "internalType": "bool",
          "name": "isApproved",
          "type": "bool"
        },
        {
          "internalType": "bool",
          "name": "isRejected",
          "type": "bool"
        },
        {
          "internalType": "string",
          "name": "rejectionReason",
          "type": "string"
        },
        {
          "internalType": "uint256",
          "name": "approvalCount",
          "type": "uint256"
        }
      ],
      "stateMutability": "view",
      "type": "function"
    },
    {
      "inputs": [
        {
          "internalType": "uint256",
          "name": "_proposalId",
          "type": "uint256"
        },
        {
          "internalType": "string",
          "name": "_reason",
          "type": "string"
        }
      ],
      "name": "rejectProjectProposal",
      "outputs": [],
      "stateMutability": "nonpayable",
      "type": "function"
    },
    {
      "inputs": [
        {
          "internalType": "uint256",
          "name": "_proposalId",
          "type": "uint256"
        }
      ],
      "name": "releaseProjectFunding",
      "outputs": [],
      "stateMutability": "nonpayable",
      "type": "function"
    },
    {
      "inputs": [
        {
          "internalType": "address",
          "name": "reviewer",
          "type": "address"
        }
      ],
      "name": "removeReviewer",
      "outputs": [],
      "stateMutability": "nonpayable",
      "type": "function"
    },
    {
      "inputs": [
        {
          "internalType": "bytes32",
          "name": "role",
          "type": "bytes32"
        },
        {
          "internalType": "address",
          "name": "callerConfirmation",
          "type": "address"
        }
      ],
      "name": "renounceRole",
      "outputs": [],
      "stateMutability": "nonpayable",
      "type": "function"
    },
    {
      "inputs": [
        {
          "internalType": "uint256",
          "name": "",
          "type": "uint256"
        }
      ],
      "name": "reviewerPool",
      "outputs": [
        {
          "internalType": "address",
          "name": "",
          "type": "address"
        }
      ],
      "stateMutability": "view",
      "type": "function"
    },
    {
      "inputs": [
        {
          "internalType": "bytes32",
          "name": "role",
          "type": "bytes32"
        },
        {
          "internalType": "address",
          "name": "account",
          "type": "address"
        }
      ],
      "name": "revokeRole",
      "outputs": [],
      "stateMutability": "nonpayable",
      "type": "function"
    },
    {
      "inputs": [
        {
          "internalType": "bytes4",
          "name": "interfaceId",
          "type": "bytes4"
        }
      ],
      "name": "supportsInterface",
      "outputs": [
        {
          "internalType": "bool",
          "name": "",
          "type": "bool"
        }
      ],
      "stateMutability": "view",
      "type": "function"
    },
    {
      "inputs": [],
      "name": "symbol",
      "outputs": [
        {
          "internalType": "string",
          "name": "",
          "type": "string"
        }
      ],
      "stateMutability": "view",
      "type": "function"
    },
    {
      "inputs": [],
      "name": "totalSupply",
      "outputs": [
        {
          "internalType": "uint256",
          "name": "",
          "type": "uint256"
        }
      ],
      "stateMutability": "view",
      "type": "function"
    },
    {
      "inputs": [
        {
          "internalType": "address",
          "name": "to",
          "type": "address"
        },
        {
          "internalType": "uint256",
          "name": "value",
          "type": "uint256"
        }
      ],
      "name": "transfer",
      "outputs": [
        {
          "internalType": "bool",
          "name": "",
          "type": "bool"
        }
      ],
      "stateMutability": "nonpayable",
      "type": "function"
    },
    {
      "inputs": [
        {
          "internalType": "address",
          "name": "from",
          "type": "address"
        },
        {
          "internalType": "address",
          "name": "to",
          "type": "address"
        },
        {
          "internalType": "uint256",
          "name": "value",
          "type": "uint256"
        }
      ],
      "name": "transferFrom",
      "outputs": [
        {
          "internalType": "bool",
          "name": "",
          "type": "bool"
        }
      ],
      "stateMutability": "nonpayable",
      "type": "function"
    }
  ],
  "bytecode": "0x608060405234801561001057600080fd5b5060405161948538038061948583398181016040528101906100329190610b4d565b806040518060400160405280600a81526020017f4142594120544f4b454e000000000000000000000000000000000000000000008152506040518060400160405280600681526020017f414259544b4e000000000000000000000000000000000000000000000000000081525081600390816100ae9190610db7565b5080600490816100be9190610db7565b505050600160068190555060048151101561010e576040517f08c379a000000000000000000000000000000000000000000000000000000000815260040161010590610f0c565b60405180910390fd5b6101216000801b3361081160201b60201c565b506101527fdf1425bae297c2f52b4f15d18a50b1fc8cb5b981a981b1d213ed3ff92681b64d3361081160201b60201c565b5060005b81518110156102a6576101a97fc10c77be35aff266144ed64c26a1fa104bae2f284ae99ac4a34203454704a18583838151811061019657610195610f2c565b5b602002602001015161081160201b60201c565b5060078282815181106101bf576101be610f2c565b5b60200260200101519080600181540180825580915050600190039060005260206000200160009091909190916101000a81548173ffffffffffffffffffffffffffffffffffffffff021916908373ffffffffffffffffffffffffffffffffffffffff1602179055506001600960008484815181106102405761023f610f2c565b5b602002602001015173ffffffffffffffffffffffffffffffffffffffff1673ffffffffffffffffffffffffffffffffffffffff16815260200190815260200160002060006101000a81548160ff0219169083151502179055508080600101915050610156565b505060405180606001604052806040518060400160405280600881526020017f4e6577636f6d657200000000000000000000000000000000000000000000000081525081526020016040518060400160405280601a81526020017f697066733a2f2f6e6577636f6d65722d62616467652d69636f6e00000000000081525081526020016000815250600c600080600481111561034557610344610f5b565b5b600481111561035757610356610f5b565b5b8152602001908152602001600020600082015181600001908161037a9190610db7565b5060208201518160010190816103909190610db7565b506040820151816002015590505060405180606001604052806040518060400160405280600b81526020017f5061727469636970616e7400000000000000000000000000000000000000000081525081526020016040518060400160405280601d81526020017f697066733a2f2f7061727469636970616e742d62616467652d69636f6e0000008152508152602001670de0b6b3a7640000815250600c60006001600481111561044357610442610f5b565b5b600481111561045557610454610f5b565b5b815260200190815260200160002060008201518160000190816104789190610db7565b50602082015181600101908161048e9190610db7565b506040820151816002015590505060405180606001604052806040518060400160405280600b81526020017f436f6e7472696275746f7200000000000000000000000000000000000000000081525081526020016040518060400160405280601d81526020017f697066733a2f2f636f6e7472696275746f722d62616467652d69636f6e0000008152508152602001671bc16d674ec80000815250600c60006002600481111561054157610540610f5b565b5b600481111561055357610552610f5b565b5b815260200190815260200160002060008201518160000190816105769190610db7565b50602082015181600101908161058c9190610db7565b506040820151816002015590505060405180606001604052806040518060400160405280600681526020017f4c6561646572000000000000000000000000000000000000000000000000000081525081526020016040518060400160405280601881526020017f697066733a2f2f6c65616465722d62616467652d69636f6e000000000000000081525081526020016729a2241af62c0000815250600c60006003600481111561063f5761063e610f5b565b5b600481111561065157610650610f5b565b5b815260200190815260200160002060008201518160000190816106749190610db7565b50602082015181600101908161068a9190610db7565b506040820151816002015590505060405180606001604052806040518060400160405280600881526020017f4368616d70696f6e00000000000000000000000000000000000000000000000081525081526020016040518060400160405280601a81526020017f697066733a2f2f6368616d70696f6e2d62616467652d69636f6e0000000000008152508152602001673782dace9d900000815250600c600060048081111561073c5761073b610f5b565b5b600481111561074e5761074d610f5b565b5b815260200190815260200160002060008201518160000190816107719190610db7565b5060208201518160010190816107879190610db7565b50604082015181600201559050506107a86000801b3361081160201b60201c565b506107d97fc295d8a2f69016465f61012796a38346423f02058e9c426f8bc1d946bc8c84703361081160201b60201c565b5061080a7fdf1425bae297c2f52b4f15d18a50b1fc8cb5b981a981b1d213ed3ff92681b64d3361081160201b60201c565b5050610f8a565b6000610823838361090f60201b60201c565b6109045760016005600085815260200190815260200160002060000160008473ffffffffffffffffffffffffffffffffffffffff1673ffffffffffffffffffffffffffffffffffffffff16815260200190815260200160002060006101000a81548160ff0219169083151502179055506108a161097a60201b60201c565b73ffffffffffffffffffffffffffffffffffffffff168273ffffffffffffffffffffffffffffffffffffffff16847f2f8788117e7eff1d82e926ec794901d17c78024a50270940304540a733656f0d60405160405180910390a460019050610909565b600090505b92915050565b60006005600084815260200190815260200160002060000160008373ffffffffffffffffffffffffffffffffffffffff1673ffffffffffffffffffffffffffffffffffffffff16815260200190815260200160002060009054906101000a900460ff16905092915050565b600033905090565b6000604051905090565b600080fd5b600080fd5b600080fd5b6000601f19601f8301169050919050565b7f4e487b7100000000000000000000000000000000000000000000000000000000600052604160045260246000fd5b6109e48261099b565b810181811067ffffffffffffffff82111715610a0357610a026109ac565b5b80604052505050565b6000610a16610982565b9050610a2282826109db565b919050565b600067ffffffffffffffff821115610a4257610a416109ac565b5b602082029050602081019050919050565b600080fd5b600073ffffffffffffffffffffffffffffffffffffffff82169050919050565b6000610a8382610a58565b9050919050565b610a9381610a78565b8114610a9e57600080fd5b50565b600081519050610ab081610a8a565b92915050565b6000610ac9610ac484610a27565b610a0c565b90508083825260208201905060208402830185811115610aec57610aeb610a53565b5b835b81811015610b155780610b018882610aa1565b845260208401935050602081019050610aee565b5050509392505050565b600082601f830112610b3457610b33610996565b5b8151610b44848260208601610ab6565b91505092915050565b600060208284031215610b6357610b6261098c565b5b600082015167ffffffffffffffff811115610b8157610b80610991565b5b610b8d84828501610b1f565b91505092915050565b600081519050919050565b7f4e487b7100000000000000000000000000000000000000000000000000000000600052602260045260246000fd5b60006002820490506001821680610be857607f821691505b602082108103610bfb57610bfa610ba1565b5b50919050565b60008190508160005260206000209050919050565b60006020601f8301049050919050565b600082821b905092915050565b600060088302610c637fffffffffffffffffffffffffffffffffffffffffffffffffffffffffffffffff82610c26565b610c6d8683610c26565b95508019841693508086168417925050509392505050565b6000819050919050565b6000819050919050565b6000610cb4610caf610caa84610c85565b610c8f565b610c85565b9050919050565b6000819050919050565b610cce83610c99565b610ce2610cda82610cbb565b848454610c33565b825550505050565b600090565b610cf7610cea565b610d02818484610cc5565b505050565b5b81811015610d2657610d1b600082610cef565b600181019050610d08565b5050565b601f821115610d6b57610d3c81610c01565b610d4584610c16565b81016020851015610d54578190505b610d68610d6085610c16565b830182610d07565b50505b505050565b600082821c905092915050565b6000610d8e60001984600802610d70565b1980831691505092915050565b6000610da78383610d7d565b9150826002028217905092915050565b610dc082610b96565b67ffffffffffffffff811115610dd957610dd86109ac565b5b610de38254610bd0565b610dee828285610d2a565b600060209050601f831160018114610e215760008415610e0f578287015190505b610e198582610d9b565b865550610e81565b601f198416610e2f86610c01565b60005b82811015610e5757848901518255600182019150602085019450602081019050610e32565b86831015610e745784890151610e70601f891682610d7d565b8355505b6001600288020188555050505b505050505050565b600082825260208201905092915050565b7f4174206c6561737420342072657669657765727320617265207265717569726560008201527f6400000000000000000000000000000000000000000000000000000000000000602082015250565b6000610ef6602183610e89565b9150610f0182610e9a565b604082019050919050565b60006020820190508181036000830152610f2581610ee9565b9050919050565b7f4e487b7100000000000000000000000000000000000000000000000000000000600052603260045260246000fd5b7f4e487b7100000000000000000000000000000000000000000000000000000000600052602160045260246000fd5b6184ec80610f996000396000f3fe608060405234801561001057600080fd5b506004361061041c5760003560e01c806361ac05e21161022b578063c491b04c11610130578063dbc1d569116100b8578063fad2c5f211610087578063fad2c5f214610dc3578063fba2e31014610ddf578063fd55dd9214610e0f578063fdc6258a14610e2d578063ff4d712814610e5d5761041c565b8063dbc1d56914610d1c578063dcdc510c14610d57578063dd62ed3e14610d75578063effad04014610da55761041c565b8063cd774e37116100ff578063cd774e3714610c8c578063d171d04914610ca8578063d547741f14610cc6578063d63ab65814610ce2578063d7b999c714610cfe5761041c565b8063c491b04c14610be0578063c9442dac14610c10578063ca8c4d8a14610c2c578063ca98e49e14610c5c5761041c565b8063914e72a6116101b3578063a9059cbb11610182578063a9059cbb14610b3a578063aeb47e2a14610b6a578063b519342514610b88578063bad0dd6514610ba6578063bfa0536114610bc25761041c565b8063914e72a614610a9e57806391d1485414610ace57806395d89b4114610afe578063a217fddf14610b1c5761041c565b80637125a07b116101fa5780637125a07b146109e257806373a82b5f14610a16578063797df99614610a325780638b8641a914610a4e5780638c95aef914610a6c5761041c565b806361ac05e21461094457806361ac7e61146109625780637025aac61461098057806370a08231146109b25761041c565b8063248cd8101161033157806336568abe116102b95780634e860496116102885780634e8604961461088c57806350447e5e146108a857806352994e2f146108b257806356a474e4146108d05780635fc610011461090a5761041c565b806336568abe146107ed5780633af0c688146108095780633b129a561461083957806340932bf8146108575761041c565b8063313ce56711610300578063313ce5671461074557806332cb6b0c146107635780633387f0c51461078157806333df7e341461079f578063354c4e13146107bd5761041c565b8063248cd810146106995780632899df2b146106c95780632f2ff15d146106f95780632f676b65146107155761041c565b806315f42df4116103b45780631c6d5365116103835780631c6d5365146105bb5780631e3edfd9146105eb5780632298de011461060957806323b872dd14610639578063248a9ca3146106695761041c565b806315f42df41461053557806318160ddd1461055157806318a8c3f21461056f57806319f102ec1461058b5761041c565b80630d74f38a116103f05780630d74f38a146104bd5780630e75a370146104db5780630ed1d5cb146104f95780630fb6d46a146105175761041c565b8062b16fee1461042157806301ffc9a71461043f57806306fdde031461046f578063095ea7b31461048d575b600080fd5b610429610e79565b6040516104369190615aad565b60405180910390f35b61045960048036038101906104549190615b34565b611016565b6040516104669190615aad565b60405180910390f35b610477611090565b6040516104849190615bf1565b60405180910390f35b6104a760048036038101906104a29190615ca7565b611122565b6040516104b49190615aad565b60405180910390f35b6104c5611145565b6040516104d29190615cf6565b60405180910390f35b6104e3611151565b6040516104f09190615cf6565b60405180910390f35b61050161115d565b60405161050e9190615cf6565b60405180910390f35b61051f611162565b60405161052c9190615cf6565b60405180910390f35b61054f600480360381019061054a9190615e59565b611167565b005b6105596111aa565b6040516105669190615cf6565b60405180910390f35b61058960048036038101906105849190615e59565b6111b4565b005b6105a560048036038101906105a09190615eb5565b6112c7565b6040516105b29190615ef1565b60405180910390f35b6105d560048036038101906105d091906160c7565b611306565b6040516105e29190615cf6565b60405180910390f35b6105f36115f8565b6040516106009190615cf6565b60405180910390f35b610623600480360381019061061e9190615eb5565b611604565b6040516106309190615ef1565b60405180910390f35b610653600480360381019061064e91906161d9565b611643565b6040516106609190615aad565b60405180910390f35b610683600480360381019061067e9190616262565b611672565b604051610690919061629e565b60405180910390f35b6106b360048036038101906106ae91906162e5565b611692565b6040516106c09190615cf6565b60405180910390f35b6106e360048036038101906106de9190616400565b611815565b6040516106f091906164dd565b60405180910390f35b610713600480360381019061070e91906164ff565b611994565b005b61072f600480360381019061072a919061653f565b6119b6565b60405161073c9190615aad565b60405180910390f35b61074d6119d6565b60405161075a9190616588565b60405180910390f35b61076b6119df565b6040516107789190615cf6565b60405180910390f35b6107896119ef565b6040516107969190616661565b60405180910390f35b6107a7611a7d565b6040516107b49190615cf6565b60405180910390f35b6107d760048036038101906107d29190616683565b611a89565b6040516107e49190615aad565b60405180910390f35b610807600480360381019061080291906164ff565b611bf5565b005b610823600480360381019061081e91906166df565b611c70565b6040516108309190615aad565b60405180910390f35b610841611cf1565b60405161084e919061629e565b60405180910390f35b610871600480360381019061086c9190615eb5565b611d15565b60405161088396959493929190616774565b60405180910390f35b6108a660048036038101906108a19190615eb5565b611e26565b005b6108b0611fb1565b005b6108ba61201a565b6040516108c7919061629e565b60405180910390f35b6108ea60048036038101906108e59190615eb5565b61203e565b6040516109019b9a99989796959493929190616853565b60405180910390f35b610924600480360381019061091f9190615eb5565b612337565b60405161093b9b9a9998979695949392919061691a565b60405180910390f35b61094c612563565b6040516109599190615cf6565b60405180910390f35b61096a6125a3565b604051610977919061629e565b60405180910390f35b61099a60048036038101906109959190616400565b6125c7565b6040516109a9939291906169da565b60405180910390f35b6109cc60048036038101906109c7919061653f565b612701565b6040516109d99190615cf6565b60405180910390f35b6109fc60048036038101906109f7919061653f565b612749565b604051610a0d959493929190616a67565b60405180910390f35b610a306004803603810190610a2b919061653f565b612949565b005b610a4c6004803603810190610a479190615eb5565b612b2d565b005b610a56612cf0565b604051610a639190616d9f565b60405180910390f35b610a866004803603810190610a81919061653f565b613196565b604051610a9593929190616dc1565b60405180910390f35b610ab86004803603810190610ab3919061653f565b6131cd565b604051610ac59190615cf6565b60405180910390f35b610ae86004803603810190610ae391906164ff565b613219565b604051610af59190615aad565b60405180910390f35b610b06613284565b604051610b139190615bf1565b60405180910390f35b610b24613316565b604051610b31919061629e565b60405180910390f35b610b546004803603810190610b4f9190615ca7565b61331d565b604051610b619190615aad565b60405180910390f35b610b72613340565b604051610b7f9190615cf6565b60405180910390f35b610b90613368565b604051610b9d9190615cf6565b60405180910390f35b610bc06004803603810190610bbb9190615eb5565b61336d565b005b610bca61366c565b604051610bd79190615cf6565b60405180910390f35b610bfa6004803603810190610bf5919061653f565b613671565b604051610c079190615aad565b60405180910390f35b610c2a6004803603810190610c25919061653f565b613691565b005b610c466004803603810190610c419190615eb5565b61397b565b604051610c539190616e7e565b60405180910390f35b610c766004803603810190610c71919061653f565b613a6a565b604051610c839190616ea0565b60405180910390f35b610ca66004803603810190610ca19190616ebb565b613ac3565b005b610cb0613c15565b604051610cbd9190615cf6565b60405180910390f35b610ce06004803603810190610cdb91906164ff565b613c1b565b005b610cfc6004803603810190610cf79190615eb5565b613c3d565b005b610d06613f3d565b604051610d139190615cf6565b60405180910390f35b610d366004803603810190610d319190615eb5565b613f43565b604051610d4e9c9b9a99989796959493929190616f17565b60405180910390f35b610d5f61420a565b604051610d6c91906171ac565b60405180910390f35b610d8f6004803603810190610d8a91906171ce565b61453d565b604051610d9c9190615cf6565b60405180910390f35b610dad6145c4565b604051610dba9190615cf6565b60405180910390f35b610ddd6004803603810190610dd89190615ca7565b6145d0565b005b610df96004803603810190610df4919061653f565b6146a3565b604051610e069190615cf6565b60405180910390f35b610e176146bb565b604051610e249190616ea0565b60405180910390f35b610e476004803603810190610e42919061653f565b6146cb565b604051610e549190615aad565b60405180910390f35b610e776004803603810190610e729190616683565b6146fe565b005b6000601160003373ffffffffffffffffffffffffffffffffffffffff1673ffffffffffffffffffffffffffffffffffffffff16815260200190815260200160002060009054906101000a900460ff1615610f08576040517f08c379a0000000000000000000000000000000000000000000000000000000008152600401610eff9061725a565b60405180910390fd5b6016339080600181540180825580915050600190039060005260206000200160009091909190916101000a81548173ffffffffffffffffffffffffffffffffffffffff021916908373ffffffffffffffffffffffffffffffffffffffff1602179055506001601160003373ffffffffffffffffffffffffffffffffffffffff1673ffffffffffffffffffffffffffffffffffffffff16815260200190815260200160002060006101000a81548160ff021916908315150217905550610fcc3361477a565b3373ffffffffffffffffffffffffffffffffffffffff167f49b628a727a909471e7c6bcba2122134da6a8e649acce3b2cd8df34ffb98c86c60405160405180910390a26001905090565b60007f7965db0b000000000000000000000000000000000000000000000000000000007bffffffffffffffffffffffffffffffffffffffffffffffffffffffff1916827bffffffffffffffffffffffffffffffffffffffffffffffffffffffff19161480611089575061108882614840565b5b9050919050565b60606003805461109f906172a9565b80601f01602080910402602001604051908101604052809291908181526020018280546110cb906172a9565b80156111185780601f106110ed57610100808354040283529160200191611118565b820191906000526020600020905b8154815290600101906020018083116110fb57829003601f168201915b5050505050905090565b60008061112d6148aa565b905061113a8185856148b2565b600191505092915050565b6729a2241af62c000081565b671bc16d674ec8000081565b600381565b600181565b60005b82518110156111a557611197838281518110611189576111886172da565b5b6020026020010151836148c4565b50808060010191505061116a565b505050565b6000600254905090565b7fc295d8a2f69016465f61012796a38346423f02058e9c426f8bc1d946bc8c84706111de81614a20565b6000835111611222576040517f08c379a000000000000000000000000000000000000000000000000000000000815260040161121990617355565b60405180910390fd5b60008383604051602401611237929190617375565b6040516020818303038152906040527f15f42df4000000000000000000000000000000000000000000000000000000007bffffffffffffffffffffffffffffffffffffffffffffffffffffffff19166020820180517bffffffffffffffffffffffffffffffffffffffffffffffffffffffff838183161783525050505090506112c03082614a34565b5050505050565b600781815481106112d757600080fd5b906000526020600020016000915054906101000a900473ffffffffffffffffffffffffffffffffffffffff1681565b6000611310614c23565b601160003373ffffffffffffffffffffffffffffffffffffffff1673ffffffffffffffffffffffffffffffffffffffff16815260200190815260200160002060009054906101000a900460ff1661139c576040517f08c379a000000000000000000000000000000000000000000000000000000000815260040161139390617417565b60405180910390fd5b606460056064600a6b204fce5e3e250261100000006113bb9190617466565b6113c591906174d7565b6113cf9190617466565b6113d991906174d7565b84111561141b576040517f08c379a00000000000000000000000000000000000000000000000000000000081526004016114129061757a565b60405180910390fd5b600060126000601754815260200190815260200160002090506017548160000181905550338160010160006101000a81548173ffffffffffffffffffffffffffffffffffffffff021916908373ffffffffffffffffffffffffffffffffffffffff160217905550888160020190816114939190617746565b50878160030190816114a59190617746565b50868160040190805190602001906114be92919061588f565b50858160050190816114d09190617746565b50848160060181905550838160070181905550828160080160006101000a81548160ff0219169083600581111561150a576115096167dc565b5b021790555060008160080160016101000a81548160ff02191690831515021790555060008160080160026101000a81548160ff021916908315150217905550604051806020016040528060008152508160090190816115699190617746565b50600081600a01819055506017600081548092919061158790617818565b91905055503373ffffffffffffffffffffffffffffffffffffffff166017547f173a3a7373ea0492f4cb0f9ba4740561e11b1ae3864f095bee87e52d9925bb878b886040516115d7929190617860565b60405180910390a36017549150506115ed614c69565b979650505050505050565b6729a2241af62c000081565b6016818154811061161457600080fd5b906000526020600020016000915054906101000a900473ffffffffffffffffffffffffffffffffffffffff1681565b60008061164e6148aa565b905061165b858285614c73565b611666858585614d08565b60019150509392505050565b600060056000838152602001908152602001600020600101549050919050565b60007fc295d8a2f69016465f61012796a38346423f02058e9c426f8bc1d946bc8c84706116be81614a20565b6000601460008154809291906116d390617818565b9190505590506000600f600083815260200190815260200160002090508181600001819055508a81600101908161170a9190617746565b50338160020160006101000a81548173ffffffffffffffffffffffffffffffffffffffff021916908373ffffffffffffffffffffffffffffffffffffffff16021790555089816003018190555088816004018190555087816005018190555060018160070160006101000a81548160ff021916908315150217905550868160070160016101000a81548160ff021916908315150217905550858160080190816117b39190617746565b50848160090190816117c59190617746565b50817fec38f747b0aa7c21a8a9bdec175eb246baf6e36e70d7e24434e272b2ba6a362a8c338a8a6040516117fc9493929190617890565b60405180910390a2819350505050979650505050505050565b61181d6158e8565b600c6000836004811115611834576118336167dc565b5b6004811115611846576118456167dc565b5b815260200190815260200160002060405180606001604052908160008201805461186f906172a9565b80601f016020809104026020016040519081016040528092919081815260200182805461189b906172a9565b80156118e85780601f106118bd576101008083540402835291602001916118e8565b820191906000526020600020905b8154815290600101906020018083116118cb57829003601f168201915b50505050508152602001600182018054611901906172a9565b80601f016020809104026020016040519081016040528092919081815260200182805461192d906172a9565b801561197a5780601f1061194f5761010080835404028352916020019161197a565b820191906000526020600020905b81548152906001019060200180831161195d57829003601f168201915b505050505081526020016002820154815250509050919050565b61199d82611672565b6119a681614a20565b6119b08383614dfc565b50505050565b60116020528060005260406000206000915054906101000a900460ff1681565b60006012905090565b6b204fce5e3e2502611000000081565b60606016805480602002602001604051908101604052809291908181526020018280548015611a7357602002820191906000526020600020905b8160009054906101000a900473ffffffffffffffffffffffffffffffffffffffff1673ffffffffffffffffffffffffffffffffffffffff1681526020019060010190808311611a29575b5050505050905090565b673782dace9d90000081565b60007fc295d8a2f69016465f61012796a38346423f02058e9c426f8bc1d946bc8c8470611ab581614a20565b60026064600a6b204fce5e3e25026110000000611ad29190617466565b611adc91906174d7565b611ae691906174d7565b611aee614eee565b858551611afb9190617466565b611b0591906178e3565b1115611b46576040517f08c379a0000000000000000000000000000000000000000000000000000000008152600401611b3d90617963565b60405180910390fd5b60008484604051602401611b5b929190617983565b6040516020818303038152906040527fff4d7128000000000000000000000000000000000000000000000000000000007bffffffffffffffffffffffffffffffffffffffffffffffffffffffff19166020820180517bffffffffffffffffffffffffffffffffffffffffffffffffffffffff838183161783525050505090506000611be63083614a34565b90506001935050505092915050565b611bfd6148aa565b73ffffffffffffffffffffffffffffffffffffffff168173ffffffffffffffffffffffffffffffffffffffff1614611c61576040517f6697b23200000000000000000000000000000000000000000000000000000000815260040160405180910390fd5b611c6b8282614ef8565b505050565b6000816004811115611c8557611c846167dc565b5b600b60008573ffffffffffffffffffffffffffffffffffffffff1673ffffffffffffffffffffffffffffffffffffffff16815260200190815260200160002060020160009054906101000a900460ff166004811115611ce757611ce66167dc565b5b1015905092915050565b7fc10c77be35aff266144ed64c26a1fa104bae2f284ae99ac4a34203454704a18581565b600a6020528060005260406000206000915090508060000154908060010160009054906101000a900473ffffffffffffffffffffffffffffffffffffffff16908060020160009054906101000a900473ffffffffffffffffffffffffffffffffffffffff1690806003018054611d8a906172a9565b80601f0160208091040260200160405190810160405280929190818152602001828054611db6906172a9565b8015611e035780601f10611dd857610100808354040283529160200191611e03565b820191906000526020600020905b815481529060010190602001808311611de657829003601f168201915b5050505050908060040154908060050160009054906101000a900460ff16905086565b611e2e614c23565b6000600f600083815260200190815260200160002090508060070160009054906101000a900460ff16611e96576040517f08c379a0000000000000000000000000000000000000000000000000000000008152600401611e8d906179ff565b60405180910390fd5b80600301544210158015611eae575080600401544211155b611eed576040517f08c379a0000000000000000000000000000000000000000000000000000000008152600401611ee490617a6b565b60405180910390fd5b8060050154816006015410611f37576040517f08c379a0000000000000000000000000000000000000000000000000000000008152600401611f2e90617ad7565b60405180910390fd5b806006016000815480929190611f4c90617818565b9190505550611f5a3361477a565b611f6c336729a2241af62c00006148c4565b50817f1f74d05223b014a6b1d3023900443d2b2a4a803f39310427d60b87fc476dac0333604051611f9d9190615ef1565b60405180910390a250611fae614c69565b50565b6000600b60003373ffffffffffffffffffffffffffffffffffffffff1673ffffffffffffffffffffffffffffffffffffffff16815260200190815260200160002090506000611fff33614feb565b905060008111156120165761201433826148c4565b505b5050565b7fdf1425bae297c2f52b4f15d18a50b1fc8cb5b981a981b1d213ed3ff92681b64d81565b6000606080606060008060008060006060600080601260008e815260200190815260200160002090508060010160009054906101000a900473ffffffffffffffffffffffffffffffffffffffff16816002018260030183600501846006015485600701548660080160009054906101000a900460ff168760080160019054906101000a900460ff168860080160029054906101000a900460ff16896009018a600a01548980546120ed906172a9565b80601f0160208091040260200160405190810160405280929190818152602001828054612119906172a9565b80156121665780601f1061213b57610100808354040283529160200191612166565b820191906000526020600020905b81548152906001019060200180831161214957829003601f168201915b50505050509950888054612179906172a9565b80601f01602080910402602001604051908101604052809291908181526020018280546121a5906172a9565b80156121f25780601f106121c7576101008083540402835291602001916121f2565b820191906000526020600020905b8154815290600101906020018083116121d557829003601f168201915b50505050509850878054612205906172a9565b80601f0160208091040260200160405190810160405280929190818152602001828054612231906172a9565b801561227e5780601f106122535761010080835404028352916020019161227e565b820191906000526020600020905b81548152906001019060200180831161226157829003601f168201915b50505050509750818054612291906172a9565b80601f01602080910402602001604051908101604052809291908181526020018280546122bd906172a9565b801561230a5780601f106122df5761010080835404028352916020019161230a565b820191906000526020600020905b8154815290600101906020018083116122ed57829003601f168201915b505050505091509b509b509b509b509b509b509b509b509b509b509b505091939597999b90929496989a50565b600f602052806000526040600020600091509050806000015490806001018054612360906172a9565b80601f016020809104026020016040519081016040528092919081815260200182805461238c906172a9565b80156123d95780601f106123ae576101008083540402835291602001916123d9565b820191906000526020600020905b8154815290600101906020018083116123bc57829003601f168201915b5050505050908060020160009054906101000a900473ffffffffffffffffffffffffffffffffffffffff16908060030154908060040154908060050154908060060154908060070160009054906101000a900460ff16908060070160019054906101000a900460ff1690806008018054612452906172a9565b80601f016020809104026020016040519081016040528092919081815260200182805461247e906172a9565b80156124cb5780601f106124a0576101008083540402835291602001916124cb565b820191906000526020600020905b8154815290600101906020018083116124ae57829003601f168201915b5050505050908060090180546124e0906172a9565b80601f016020809104026020016040519081016040528092919081815260200182805461250c906172a9565b80156125595780601f1061252e57610100808354040283529160200191612559565b820191906000526020600020905b81548152906001019060200180831161253c57829003601f168201915b505050505090508b565b606460056064600a6b204fce5e3e250261100000006125829190617466565b61258c91906174d7565b6125969190617466565b6125a091906174d7565b81565b7fc295d8a2f69016465f61012796a38346423f02058e9c426f8bc1d946bc8c847081565b600c6020528060005260406000206000915090508060000180546125ea906172a9565b80601f0160208091040260200160405190810160405280929190818152602001828054612616906172a9565b80156126635780601f1061263857610100808354040283529160200191612663565b820191906000526020600020905b81548152906001019060200180831161264657829003601f168201915b505050505090806001018054612678906172a9565b80601f01602080910402602001604051908101604052809291908181526020018280546126a4906172a9565b80156126f15780601f106126c6576101008083540402835291602001916126f1565b820191906000526020600020905b8154815290600101906020018083116126d457829003601f168201915b5050505050908060020154905083565b60008060008373ffffffffffffffffffffffffffffffffffffffff1673ffffffffffffffffffffffffffffffffffffffff168152602001908152602001600020549050919050565b60006060806000806000600b60008873ffffffffffffffffffffffffffffffffffffffff1673ffffffffffffffffffffffffffffffffffffffff168152602001908152602001600020905060008160020160009054906101000a900460ff1690506000600c60008360048111156127c3576127c26167dc565b5b60048111156127d5576127d46167dc565b5b81526020019081526020016000206040518060600160405290816000820180546127fe906172a9565b80601f016020809104026020016040519081016040528092919081815260200182805461282a906172a9565b80156128775780601f1061284c57610100808354040283529160200191612877565b820191906000526020600020905b81548152906001019060200180831161285a57829003601f168201915b50505050508152602001600182018054612890906172a9565b80601f01602080910402602001604051908101604052809291908181526020018280546128bc906172a9565b80156129095780601f106128de57610100808354040283529160200191612909565b820191906000526020600020905b8154815290600101906020018083116128ec57829003601f168201915b5050505050815260200160028201548152505090508181600001518260200151836040015186600001549750975097509750975050505091939590929450565b7fc10c77be35aff266144ed64c26a1fa104bae2f284ae99ac4a34203454704a18561297381614a20565b600960008373ffffffffffffffffffffffffffffffffffffffff1673ffffffffffffffffffffffffffffffffffffffff16815260200190815260200160002060009054906101000a900460ff1615612a00576040517f08c379a00000000000000000000000000000000000000000000000000000000081526004016129f790617b43565b60405180910390fd5b612a2a7fc10c77be35aff266144ed64c26a1fa104bae2f284ae99ac4a34203454704a18583614dfc565b506007829080600181540180825580915050600190039060005260206000200160009091909190916101000a81548173ffffffffffffffffffffffffffffffffffffffff021916908373ffffffffffffffffffffffffffffffffffffffff1602179055506001600960008473ffffffffffffffffffffffffffffffffffffffff1673ffffffffffffffffffffffffffffffffffffffff16815260200190815260200160002060006101000a81548160ff0219169083151502179055508173ffffffffffffffffffffffffffffffffffffffff167fe1cb5e1230cc02e62c60b81c1aa5ade512f3eac296edb28628b4cf344f47f93160405160405180910390a25050565b60006012600083815260200190815260200160002090508060080160019054906101000a900460ff16612b95576040517f08c379a0000000000000000000000000000000000000000000000000000000008152600401612b8c90617baf565b60405180910390fd5b606460056064600a6b204fce5e3e25026110000000612bb49190617466565b612bbe91906174d7565b612bc89190617466565b612bd291906174d7565b8160060154600e54612be491906178e3565b1115612c25576040517f08c379a0000000000000000000000000000000000000000000000000000000008152600401612c1c90617c41565b60405180910390fd5b612c578160010160009054906101000a900473ffffffffffffffffffffffffffffffffffffffff1682600601546148c4565b508060060154600e6000828254612c6e91906178e3565b925050819055508060010160009054906101000a900473ffffffffffffffffffffffffffffffffffffffff1673ffffffffffffffffffffffffffffffffffffffff16827fb6f8562765b5da161636b79e56625b1a7d0d9726ee1065cee4bf966980894c708360060154604051612ce49190615cf6565b60405180910390a35050565b60606000601754905060008167ffffffffffffffff811115612d1557612d14615d16565b5b604051908082528060200260200182016040528015612d4e57816020015b612d3b615909565b815260200190600190039081612d335790505b50905060005b8281101561318d576000601260008381526020019081526020016000209050604051806101a00160405280826000015481526020018260010160009054906101000a900473ffffffffffffffffffffffffffffffffffffffff1673ffffffffffffffffffffffffffffffffffffffff168152602001826002018054612dd8906172a9565b80601f0160208091040260200160405190810160405280929190818152602001828054612e04906172a9565b8015612e515780601f10612e2657610100808354040283529160200191612e51565b820191906000526020600020905b815481529060010190602001808311612e3457829003601f168201915b50505050508152602001826003018054612e6a906172a9565b80601f0160208091040260200160405190810160405280929190818152602001828054612e96906172a9565b8015612ee35780601f10612eb857610100808354040283529160200191612ee3565b820191906000526020600020905b815481529060010190602001808311612ec657829003601f168201915b5050505050815260200182600401805480602002602001604051908101604052809291908181526020016000905b82821015612fbd578382906000526020600020018054612f30906172a9565b80601f0160208091040260200160405190810160405280929190818152602001828054612f5c906172a9565b8015612fa95780601f10612f7e57610100808354040283529160200191612fa9565b820191906000526020600020905b815481529060010190602001808311612f8c57829003601f168201915b505050505081526020019060010190612f11565b505050508152602001826005018054612fd5906172a9565b80601f0160208091040260200160405190810160405280929190818152602001828054613001906172a9565b801561304e5780601f106130235761010080835404028352916020019161304e565b820191906000526020600020905b81548152906001019060200180831161303157829003601f168201915b5050505050815260200182600601548152602001826007015481526020018260080160009054906101000a900460ff1660058111156130905761308f6167dc565b5b81526020018260080160019054906101000a900460ff16151581526020018260080160029054906101000a900460ff16151581526020018260090180546130d6906172a9565b80601f0160208091040260200160405190810160405280929190818152602001828054613102906172a9565b801561314f5780601f106131245761010080835404028352916020019161314f565b820191906000526020600020905b81548152906001019060200180831161313257829003601f168201915b5050505050815260200182600a0154815250838381518110613174576131736172da565b5b6020026020010181905250508080600101915050612d54565b50809250505090565b600b6020528060005260406000206000915090508060000154908060010154908060020160009054906101000a900460ff16905083565b6000600b60008373ffffffffffffffffffffffffffffffffffffffff1673ffffffffffffffffffffffffffffffffffffffff168152602001908152602001600020600001549050919050565b60006005600084815260200190815260200160002060000160008373ffffffffffffffffffffffffffffffffffffffff1673ffffffffffffffffffffffffffffffffffffffff16815260200190815260200160002060009054906101000a900460ff16905092915050565b606060048054613293906172a9565b80601f01602080910402602001604051908101604052809291908181526020018280546132bf906172a9565b801561330c5780601f106132e15761010080835404028352916020019161330c565b820191906000526020600020905b8154815290600101906020018083116132ef57829003601f168201915b5050505050905090565b6000801b81565b6000806133286148aa565b9050613335818585614d08565b600191505092915050565b6064600a6b204fce5e3e2502611000000061335b9190617466565b61336591906174d7565b81565b600581565b7fdf1425bae297c2f52b4f15d18a50b1fc8cb5b981a981b1d213ed3ff92681b64d61339781614a20565b6000600a600084815260200190815260200160002090508060050160009054906101000a900460ff1615613400576040517f08c379a00000000000000000000000000000000000000000000000000000000081526004016133f790617cad565b60405180910390fd5b8060060160003373ffffffffffffffffffffffffffffffffffffffff1673ffffffffffffffffffffffffffffffffffffffff16815260200190815260200160002060009054906101000a900460ff161561348f576040517f08c379a000000000000000000000000000000000000000000000000000000000815260040161348690617d19565b60405180910390fd5b60018160060160003373ffffffffffffffffffffffffffffffffffffffff1673ffffffffffffffffffffffffffffffffffffffff16815260200190815260200160002060006101000a81548160ff0219169083151502179055508060040160008154809291906134fe90617818565b9190505550827f5d4ccf5f92566d140246f4ae3b9cb35dc06fff109a7748602ad77f6260fd9a61336040516135339190615ef1565b60405180910390a260038160040154106136675760008160020160009054906101000a900473ffffffffffffffffffffffffffffffffffffffff1673ffffffffffffffffffffffffffffffffffffffff16826003016040516135959190617ddc565b6000604051808303816000865af19150503d80600081146135d2576040519150601f19603f3d011682016040523d82523d6000602084013e6135d7565b606091505b505090508061361b576040517f08c379a000000000000000000000000000000000000000000000000000000000815260040161361290617e3f565b60405180910390fd5b60018260050160006101000a81548160ff021916908315150217905550837f7770356c29230b95943aec59d47ead11eb426a728bf5b57f7fd8597f3c0e29ba60405160405180910390a2505b505050565b600a81565b60096020528060005260406000206000915054906101000a900460ff1681565b6000801b61369e81614a20565b600960008373ffffffffffffffffffffffffffffffffffffffff1673ffffffffffffffffffffffffffffffffffffffff16815260200190815260200160002060009054906101000a900460ff1661372a576040517f08c379a000000000000000000000000000000000000000000000000000000000815260040161372190617eab565b60405180910390fd5b60005b6007805490508110156138b0578273ffffffffffffffffffffffffffffffffffffffff1660078281548110613765576137646172da565b5b9060005260206000200160009054906101000a900473ffffffffffffffffffffffffffffffffffffffff1673ffffffffffffffffffffffffffffffffffffffff16036138a357600760016007805490506137bf9190617ecb565b815481106137d0576137cf6172da565b5b9060005260206000200160009054906101000a900473ffffffffffffffffffffffffffffffffffffffff166007828154811061380f5761380e6172da565b5b9060005260206000200160006101000a81548173ffffffffffffffffffffffffffffffffffffffff021916908373ffffffffffffffffffffffffffffffffffffffff160217905550600780548061386957613868617eff565b5b6001900381819060005260206000200160006101000a81549073ffffffffffffffffffffffffffffffffffffffff021916905590556138b0565b808060010191505061372d565b506000600960008473ffffffffffffffffffffffffffffffffffffffff1673ffffffffffffffffffffffffffffffffffffffff16815260200190815260200160002060006101000a81548160ff0219169083151502179055506139337fc10c77be35aff266144ed64c26a1fa104bae2f284ae99ac4a34203454704a18583614ef8565b508173ffffffffffffffffffffffffffffffffffffffff167f55dba9d79522b91b615629d5f3b10c2fad2d258f1768614f4a52e937ada0d0ba60405160405180910390a25050565b606060126000838152602001908152602001600020600401805480602002602001604051908101604052809291908181526020016000905b82821015613a5f5783829060005260206000200180546139d2906172a9565b80601f01602080910402602001604051908101604052809291908181526020018280546139fe906172a9565b8015613a4b5780601f10613a2057610100808354040283529160200191613a4b565b820191906000526020600020905b815481529060010190602001808311613a2e57829003601f168201915b5050505050815260200190600101906139b3565b505050509050919050565b6000600b60008373ffffffffffffffffffffffffffffffffffffffff1673ffffffffffffffffffffffffffffffffffffffff16815260200190815260200160002060020160009054906101000a900460ff169050919050565b7fdf1425bae297c2f52b4f15d18a50b1fc8cb5b981a981b1d213ed3ff92681b64d613aed81614a20565b60006012600085815260200190815260200160002090508060080160019054906101000a900460ff1615613b56576040517f08c379a0000000000000000000000000000000000000000000000000000000008152600401613b4d90617f7a565b60405180910390fd5b8060080160029054906101000a900460ff1615613ba8576040517f08c379a0000000000000000000000000000000000000000000000000000000008152600401613b9f90617fe6565b60405180910390fd5b60018160080160026101000a81548160ff02191690831515021790555082816009019081613bd69190617746565b50837f0181021ec281a3c27d14e788229d199a2075e233c761365095368d822b2c277f84604051613c079190615bf1565b60405180910390a250505050565b600d5481565b613c2482611672565b613c2d81614a20565b613c378383614ef8565b50505050565b7fdf1425bae297c2f52b4f15d18a50b1fc8cb5b981a981b1d213ed3ff92681b64d613c6781614a20565b60006012600084815260200190815260200160002090508060080160019054906101000a900460ff1615613cd0576040517f08c379a0000000000000000000000000000000000000000000000000000000008152600401613cc790617f7a565b60405180910390fd5b8060080160029054906101000a900460ff1615613d22576040517f08c379a0000000000000000000000000000000000000000000000000000000008152600401613d1990617fe6565b60405180910390fd5b6013600084815260200190815260200160002060003373ffffffffffffffffffffffffffffffffffffffff1673ffffffffffffffffffffffffffffffffffffffff16815260200190815260200160002060009054906101000a900460ff1615613dc0576040517f08c379a0000000000000000000000000000000000000000000000000000000008152600401613db790618078565b60405180910390fd5b60016013600085815260200190815260200160002060003373ffffffffffffffffffffffffffffffffffffffff1673ffffffffffffffffffffffffffffffffffffffff16815260200190815260200160002060006101000a81548160ff02191690831515021790555080600a016000815480929190613e3e90617818565b9190505550600381600a015410613f385760018160080160016101000a81548160ff021916908315150217905550600083604051602401613e7f9190615cf6565b6040516020818303038152906040527f797df996000000000000000000000000000000000000000000000000000000007bffffffffffffffffffffffffffffffffffffffffffffffffffffffff19166020820180517bffffffffffffffffffffffffffffffffffffffffffffffffffffffff83818316178352505050509050613f083082614a34565b50837f1c2a00e8a0b086d9b7e7a79c9440ab052641329e55c4bf8eec7ee9dfb658b7ed60405160405180910390a2505b505050565b600e5481565b60126020528060005260406000206000915090508060000154908060010160009054906101000a900473ffffffffffffffffffffffffffffffffffffffff1690806002018054613f92906172a9565b80601f0160208091040260200160405190810160405280929190818152602001828054613fbe906172a9565b801561400b5780601f10613fe05761010080835404028352916020019161400b565b820191906000526020600020905b815481529060010190602001808311613fee57829003601f168201915b505050505090806003018054614020906172a9565b80601f016020809104026020016040519081016040528092919081815260200182805461404c906172a9565b80156140995780601f1061406e57610100808354040283529160200191614099565b820191906000526020600020905b81548152906001019060200180831161407c57829003601f168201915b5050505050908060050180546140ae906172a9565b80601f01602080910402602001604051908101604052809291908181526020018280546140da906172a9565b80156141275780601f106140fc57610100808354040283529160200191614127565b820191906000526020600020905b81548152906001019060200180831161410a57829003601f168201915b5050505050908060060154908060070154908060080160009054906101000a900460ff16908060080160019054906101000a900460ff16908060080160029054906101000a900460ff1690806009018054614181906172a9565b80601f01602080910402602001604051908101604052809291908181526020018280546141ad906172a9565b80156141fa5780601f106141cf576101008083540402835291602001916141fa565b820191906000526020600020905b8154815290600101906020018083116141dd57829003601f168201915b50505050509080600a015490508c565b60606000601454905060008167ffffffffffffffff81111561422f5761422e615d16565b5b60405190808252806020026020018201604052801561426857816020015b61425561599d565b81526020019060019003908161424d5790505b50905060005b8281101561453457600f600082815260200190815260200160002060405180610160016040529081600082015481526020016001820180546142af906172a9565b80601f01602080910402602001604051908101604052809291908181526020018280546142db906172a9565b80156143285780601f106142fd57610100808354040283529160200191614328565b820191906000526020600020905b81548152906001019060200180831161430b57829003601f168201915b505050505081526020016002820160009054906101000a900473ffffffffffffffffffffffffffffffffffffffff1673ffffffffffffffffffffffffffffffffffffffff1673ffffffffffffffffffffffffffffffffffffffff168152602001600382015481526020016004820154815260200160058201548152602001600682015481526020016007820160009054906101000a900460ff161515151581526020016007820160019054906101000a900460ff161515151581526020016008820180546143f5906172a9565b80601f0160208091040260200160405190810160405280929190818152602001828054614421906172a9565b801561446e5780601f106144435761010080835404028352916020019161446e565b820191906000526020600020905b81548152906001019060200180831161445157829003601f168201915b50505050508152602001600982018054614487906172a9565b80601f01602080910402602001604051908101604052809291908181526020018280546144b3906172a9565b80156145005780601f106144d557610100808354040283529160200191614500565b820191906000526020600020905b8154815290600101906020018083116144e357829003601f168201915b50505050508152505082828151811061451c5761451b6172da565b5b6020026020010181905250808060010191505061426e565b50809250505090565b6000600160008473ffffffffffffffffffffffffffffffffffffffff1673ffffffffffffffffffffffffffffffffffffffff16815260200190815260200160002060008373ffffffffffffffffffffffffffffffffffffffff1673ffffffffffffffffffffffffffffffffffffffff16815260200190815260200160002054905092915050565b670de0b6b3a764000081565b7fc295d8a2f69016465f61012796a38346423f02058e9c426f8bc1d946bc8c84706145fa81614a20565b6000821161463d576040517f08c379a0000000000000000000000000000000000000000000000000000000008152600401614634906180e4565b60405180910390fd5b61464783836148c4565b5081601060008573ffffffffffffffffffffffffffffffffffffffff1673ffffffffffffffffffffffffffffffffffffffff168152602001908152602001600020600082825461469791906178e3565b92505081905550505050565b60106020528060005260406000206000915090505481565b60006146c633613a6a565b905090565b60006146f77fc10c77be35aff266144ed64c26a1fa104bae2f284ae99ac4a34203454704a18583613219565b9050919050565b60005b815181101561473c5761472e8282815181106147205761471f6172da565b5b6020026020010151846148c4565b508080600101915050614701565b50817fb88d01f589e949ad7233aadbcfbadcca2b7f247555fa6423bc3d5d2563bd1563825160405161476e9190615cf6565b60405180910390a25050565b614783816151ea565b6000600b60008373ffffffffffffffffffffffffffffffffffffffff1673ffffffffffffffffffffffffffffffffffffffff16815260200190815260200160002090508060000160008154809291906147db90617818565b91905055506147e982614feb565b508173ffffffffffffffffffffffffffffffffffffffff167ff18beef583f71b01f816b888b2fb4012abc44a95618cbc737287866909e7abd782600001546040516148349190615cf6565b60405180910390a25050565b60007f01ffc9a7000000000000000000000000000000000000000000000000000000007bffffffffffffffffffffffffffffffffffffffffffffffffffffffff1916827bffffffffffffffffffffffffffffffffffffffffffffffffffffffff1916149050919050565b600033905090565b6148bf8383836001615305565b505050565b60006064600a6b204fce5e3e250261100000006148e19190617466565b6148eb91906174d7565b6148f3614eee565b836148fe91906178e3565b111561493f576040517f08c379a000000000000000000000000000000000000000000000000000000000815260040161493690618176565b60405180910390fd5b600073ffffffffffffffffffffffffffffffffffffffff168373ffffffffffffffffffffffffffffffffffffffff16036149ae576040517f08c379a00000000000000000000000000000000000000000000000000000000081526004016149a590618208565b60405180910390fd5b6149b883836154dc565b5081600d60008282546149cb91906178e3565b92505081905550818373ffffffffffffffffffffffffffffffffffffffff167fffd50653ccb3020c797c5cba8c53bebb40e00eeb76593dedcf4a157b3ea6cb5160405160405180910390a36001905092915050565b614a3181614a2c6148aa565b615597565b50565b60007fdf1425bae297c2f52b4f15d18a50b1fc8cb5b981a981b1d213ed3ff92681b64d614a6081614a20565b7fc10c77be35aff266144ed64c26a1fa104bae2f284ae99ac4a34203454704a185614a8a81614a20565b600060086000815480929190614a9f90617818565b9190505590506000600a60008381526020019081526020016000209050818160000181905550338160010160006101000a81548173ffffffffffffffffffffffffffffffffffffffff021916908373ffffffffffffffffffffffffffffffffffffffff160217905550868160020160006101000a81548173ffffffffffffffffffffffffffffffffffffffff021916908373ffffffffffffffffffffffffffffffffffffffff16021790555085816003019081614b5c919061826e565b506001816004018190555060008160050160006101000a81548160ff02191690831515021790555060018160060160003373ffffffffffffffffffffffffffffffffffffffff1673ffffffffffffffffffffffffffffffffffffffff16815260200190815260200160002060006101000a81548160ff021916908315150217905550817fbcc43907be1d435f496e2233697a9a9fead2fb5639dac8459c53d7114829b8be33604051614c0e9190615ef1565b60405180910390a28194505050505092915050565b600260065403614c5f576040517f3ee5aeb500000000000000000000000000000000000000000000000000000000815260040160405180910390fd5b6002600681905550565b6001600681905550565b6000614c7f848461453d565b90507fffffffffffffffffffffffffffffffffffffffffffffffffffffffffffffffff811015614d025781811015614cf2578281836040517ffb8f41b2000000000000000000000000000000000000000000000000000000008152600401614ce993929190618340565b60405180910390fd5b614d0184848484036000615305565b5b50505050565b600073ffffffffffffffffffffffffffffffffffffffff168373ffffffffffffffffffffffffffffffffffffffff1603614d7a5760006040517f96c6fd1e000000000000000000000000000000000000000000000000000000008152600401614d719190615ef1565b60405180910390fd5b600073ffffffffffffffffffffffffffffffffffffffff168273ffffffffffffffffffffffffffffffffffffffff1603614dec5760006040517fec442f05000000000000000000000000000000000000000000000000000000008152600401614de39190615ef1565b60405180910390fd5b614df78383836155e8565b505050565b6000614e088383613219565b614ee35760016005600085815260200190815260200160002060000160008473ffffffffffffffffffffffffffffffffffffffff1673ffffffffffffffffffffffffffffffffffffffff16815260200190815260200160002060006101000a81548160ff021916908315150217905550614e806148aa565b73ffffffffffffffffffffffffffffffffffffffff168273ffffffffffffffffffffffffffffffffffffffff16847f2f8788117e7eff1d82e926ec794901d17c78024a50270940304540a733656f0d60405160405180910390a460019050614ee8565b600090505b92915050565b6000600d54905090565b6000614f048383613219565b15614fe05760006005600085815260200190815260200160002060000160008473ffffffffffffffffffffffffffffffffffffffff1673ffffffffffffffffffffffffffffffffffffffff16815260200190815260200160002060006101000a81548160ff021916908315150217905550614f7d6148aa565b73ffffffffffffffffffffffffffffffffffffffff168273ffffffffffffffffffffffffffffffffffffffff16847ff6391f5c32d9c69d2a47ea670b442974b53935d1edc7fd64eb21e047a839171b60405160405180910390a460019050614fe5565b600090505b92915050565b600080600b60008473ffffffffffffffffffffffffffffffffffffffff1673ffffffffffffffffffffffffffffffffffffffff168152602001908152602001600020905060008160020160009054906101000a900460ff1690506000600a83600001541061505c57600490506150a3565b600583600001541061507157600390506150a2565b600383600001541061508657600290506150a1565b600183600001541061509b57600190506150a0565b600090505b5b5b5b8160048111156150b6576150b56167dc565b5b8160048111156150c9576150c86167dc565b5b146151e257808360020160006101000a81548160ff021916908360048111156150f5576150f46167dc565b5b0217905550600c6000826004811115615111576151106167dc565b5b6004811115615123576151226167dc565b5b81526020019081526020016000206002015493506000858260405160200161514c9291906183f5565b604051602081830303815290604052805190602001209050600184600301600083815260200190815260200160002060006101000a81548160ff0219169083151502179055508573ffffffffffffffffffffffffffffffffffffffff167f285a0f2deff4dbdd3719bae595cb2c8b27a45f0814e4db2b1946ab8df9bc548b836040516151d89190616ea0565b60405180910390a2505b505050919050565b6000600b60008373ffffffffffffffffffffffffffffffffffffffff1673ffffffffffffffffffffffffffffffffffffffff168152602001908152602001600020905060006004811115615241576152406167dc565b5b6004811115615253576152526167dc565b5b8160020160009054906101000a900460ff166004811115615277576152766167dc565b5b036153015760008160020160006101000a81548160ff021916908360048111156152a4576152a36167dc565b5b021790555060008160000181905550600081600101819055508173ffffffffffffffffffffffffffffffffffffffff167f92fabfa210df88d92c2f5a07ddd43a985b208d8b19b7a78ba1284aa4b287d86260405160405180910390a25b5050565b600073ffffffffffffffffffffffffffffffffffffffff168473ffffffffffffffffffffffffffffffffffffffff16036153775760006040517fe602df0500000000000000000000000000000000000000000000000000000000815260040161536e9190615ef1565b60405180910390fd5b600073ffffffffffffffffffffffffffffffffffffffff168373ffffffffffffffffffffffffffffffffffffffff16036153e95760006040517f94280d620000000000000000000000000000000000000000000000000000000081526004016153e09190615ef1565b60405180910390fd5b81600160008673ffffffffffffffffffffffffffffffffffffffff1673ffffffffffffffffffffffffffffffffffffffff16815260200190815260200160002060008573ffffffffffffffffffffffffffffffffffffffff1673ffffffffffffffffffffffffffffffffffffffff1681526020019081526020016000208190555080156154d6578273ffffffffffffffffffffffffffffffffffffffff168473ffffffffffffffffffffffffffffffffffffffff167f8c5be1e5ebec7d5bd14f71427d1e84f3dd0314c0f7b2291e5b200ac8c7c3b925846040516154cd9190615cf6565b60405180910390a35b50505050565b60006b204fce5e3e250261100000006154f36111aa565b836154fe91906178e3565b111561553f576040517f08c379a00000000000000000000000000000000000000000000000000000000081526004016155369061846d565b60405180910390fd5b615549838361580d565b818373ffffffffffffffffffffffffffffffffffffffff167fcda531bfd68624f13205c0a23cd4d5a7f09792cbb399603114f2b04aaa1bf5cf60405160405180910390a36001905092915050565b6155a18282613219565b6155e45780826040517fe2517d3f0000000000000000000000000000000000000000000000000000000081526004016155db92919061848d565b60405180910390fd5b5050565b600073ffffffffffffffffffffffffffffffffffffffff168373ffffffffffffffffffffffffffffffffffffffff160361563a57806002600082825461562e91906178e3565b9250508190555061570d565b60008060008573ffffffffffffffffffffffffffffffffffffffff1673ffffffffffffffffffffffffffffffffffffffff168152602001908152602001600020549050818110156156c6578381836040517fe450d38c0000000000000000000000000000000000000000000000000000000081526004016156bd93929190618340565b60405180910390fd5b8181036000808673ffffffffffffffffffffffffffffffffffffffff1673ffffffffffffffffffffffffffffffffffffffff16815260200190815260200160002081905550505b600073ffffffffffffffffffffffffffffffffffffffff168273ffffffffffffffffffffffffffffffffffffffff160361575657806002600082825403925050819055506157a3565b806000808473ffffffffffffffffffffffffffffffffffffffff1673ffffffffffffffffffffffffffffffffffffffff168152602001908152602001600020600082825401925050819055505b8173ffffffffffffffffffffffffffffffffffffffff168373ffffffffffffffffffffffffffffffffffffffff167fddf252ad1be2c89b69c2b068fc378daa952ba7f163c4a11628f55a4df523b3ef836040516158009190615cf6565b60405180910390a3505050565b600073ffffffffffffffffffffffffffffffffffffffff168273ffffffffffffffffffffffffffffffffffffffff160361587f5760006040517fec442f050000000000000000000000000000000000000000000000000000000081526004016158769190615ef1565b60405180910390fd5b61588b600083836155e8565b5050565b8280548282559060005260206000209081019282156158d7579160200282015b828111156158d65782518290816158c69190617746565b50916020019190600101906158af565b5b5090506158e49190615a11565b5090565b60405180606001604052806060815260200160608152602001600081525090565b604051806101a0016040528060008152602001600073ffffffffffffffffffffffffffffffffffffffff16815260200160608152602001606081526020016060815260200160608152602001600081526020016000815260200160006005811115615977576159766167dc565b5b815260200160001515815260200160001515815260200160608152602001600081525090565b6040518061016001604052806000815260200160608152602001600073ffffffffffffffffffffffffffffffffffffffff1681526020016000815260200160008152602001600081526020016000815260200160001515815260200160001515815260200160608152602001606081525090565b5b80821115615a315760008181615a289190615a35565b50600101615a12565b5090565b508054615a41906172a9565b6000825580601f10615a535750615a72565b601f016020900490600052602060002090810190615a719190615a75565b5b50565b5b80821115615a8e576000816000905550600101615a76565b5090565b60008115159050919050565b615aa781615a92565b82525050565b6000602082019050615ac26000830184615a9e565b92915050565b6000604051905090565b600080fd5b600080fd5b60007fffffffff0000000000000000000000000000000000000000000000000000000082169050919050565b615b1181615adc565b8114615b1c57600080fd5b50565b600081359050615b2e81615b08565b92915050565b600060208284031215615b4a57615b49615ad2565b5b6000615b5884828501615b1f565b91505092915050565b600081519050919050565b600082825260208201905092915050565b60005b83811015615b9b578082015181840152602081019050615b80565b60008484015250505050565b6000601f19601f8301169050919050565b6000615bc382615b61565b615bcd8185615b6c565b9350615bdd818560208601615b7d565b615be681615ba7565b840191505092915050565b60006020820190508181036000830152615c0b8184615bb8565b905092915050565b600073ffffffffffffffffffffffffffffffffffffffff82169050919050565b6000615c3e82615c13565b9050919050565b615c4e81615c33565b8114615c5957600080fd5b50565b600081359050615c6b81615c45565b92915050565b6000819050919050565b615c8481615c71565b8114615c8f57600080fd5b50565b600081359050615ca181615c7b565b92915050565b60008060408385031215615cbe57615cbd615ad2565b5b6000615ccc85828601615c5c565b9250506020615cdd85828601615c92565b9150509250929050565b615cf081615c71565b82525050565b6000602082019050615d0b6000830184615ce7565b92915050565b600080fd5b7f4e487b7100000000000000000000000000000000000000000000000000000000600052604160045260246000fd5b615d4e82615ba7565b810181811067ffffffffffffffff82111715615d6d57615d6c615d16565b5b80604052505050565b6000615d80615ac8565b9050615d8c8282615d45565b919050565b600067ffffffffffffffff821115615dac57615dab615d16565b5b602082029050602081019050919050565b600080fd5b6000615dd5615dd084615d91565b615d76565b90508083825260208201905060208402830185811115615df857615df7615dbd565b5b835b81811015615e215780615e0d8882615c5c565b845260208401935050602081019050615dfa565b5050509392505050565b600082601f830112615e4057615e3f615d11565b5b8135615e50848260208601615dc2565b91505092915050565b60008060408385031215615e7057615e6f615ad2565b5b600083013567ffffffffffffffff811115615e8e57615e8d615ad7565b5b615e9a85828601615e2b565b9250506020615eab85828601615c92565b9150509250929050565b600060208284031215615ecb57615eca615ad2565b5b6000615ed984828501615c92565b91505092915050565b615eeb81615c33565b82525050565b6000602082019050615f066000830184615ee2565b92915050565b600080fd5b600067ffffffffffffffff821115615f2c57615f2b615d16565b5b615f3582615ba7565b9050602081019050919050565b82818337600083830152505050565b6000615f64615f5f84615f11565b615d76565b905082815260208101848484011115615f8057615f7f615f0c565b5b615f8b848285615f42565b509392505050565b600082601f830112615fa857615fa7615d11565b5b8135615fb8848260208601615f51565b91505092915050565b600067ffffffffffffffff821115615fdc57615fdb615d16565b5b602082029050602081019050919050565b6000616000615ffb84615fc1565b615d76565b9050808382526020820190506020840283018581111561602357616022615dbd565b5b835b8181101561606a57803567ffffffffffffffff81111561604857616047615d11565b5b8086016160558982615f93565b85526020850194505050602081019050616025565b5050509392505050565b600082601f83011261608957616088615d11565b5b8135616099848260208601615fed565b91505092915050565b600681106160af57600080fd5b50565b6000813590506160c1816160a2565b92915050565b600080600080600080600060e0888a0312156160e6576160e5615ad2565b5b600088013567ffffffffffffffff81111561610457616103615ad7565b5b6161108a828b01615f93565b975050602088013567ffffffffffffffff81111561613157616130615ad7565b5b61613d8a828b01615f93565b965050604088013567ffffffffffffffff81111561615e5761615d615ad7565b5b61616a8a828b01616074565b955050606088013567ffffffffffffffff81111561618b5761618a615ad7565b5b6161978a828b01615f93565b94505060806161a88a828b01615c92565b93505060a06161b98a828b01615c92565b92505060c06161ca8a828b016160b2565b91505092959891949750929550565b6000806000606084860312156161f2576161f1615ad2565b5b600061620086828701615c5c565b935050602061621186828701615c5c565b925050604061622286828701615c92565b9150509250925092565b6000819050919050565b61623f8161622c565b811461624a57600080fd5b50565b60008135905061625c81616236565b92915050565b60006020828403121561627857616277615ad2565b5b60006162868482850161624d565b91505092915050565b6162988161622c565b82525050565b60006020820190506162b3600083018461628f565b92915050565b6162c281615a92565b81146162cd57600080fd5b50565b6000813590506162df816162b9565b92915050565b600080600080600080600060e0888a03121561630457616303615ad2565b5b600088013567ffffffffffffffff81111561632257616321615ad7565b5b61632e8a828b01615f93565b975050602061633f8a828b01615c92565b96505060406163508a828b01615c92565b95505060606163618a828b01615c92565b94505060806163728a828b016162d0565b93505060a088013567ffffffffffffffff81111561639357616392615ad7565b5b61639f8a828b01615f93565b92505060c088013567ffffffffffffffff8111156163c0576163bf615ad7565b5b6163cc8a828b01615f93565b91505092959891949750929550565b600581106163e857600080fd5b50565b6000813590506163fa816163db565b92915050565b60006020828403121561641657616415615ad2565b5b6000616424848285016163eb565b91505092915050565b600082825260208201905092915050565b600061644982615b61565b616453818561642d565b9350616463818560208601615b7d565b61646c81615ba7565b840191505092915050565b61648081615c71565b82525050565b600060608301600083015184820360008601526164a3828261643e565b915050602083015184820360208601526164bd828261643e565b91505060408301516164d26040860182616477565b508091505092915050565b600060208201905081810360008301526164f78184616486565b905092915050565b6000806040838503121561651657616515615ad2565b5b60006165248582860161624d565b925050602061653585828601615c5c565b9150509250929050565b60006020828403121561655557616554615ad2565b5b600061656384828501615c5c565b91505092915050565b600060ff82169050919050565b6165828161656c565b82525050565b600060208201905061659d6000830184616579565b92915050565b600081519050919050565b600082825260208201905092915050565b6000819050602082019050919050565b6165d881615c33565b82525050565b60006165ea83836165cf565b60208301905092915050565b6000602082019050919050565b600061660e826165a3565b61661881856165ae565b9350616623836165bf565b8060005b8381101561665457815161663b88826165de565b9750616646836165f6565b925050600181019050616627565b5085935050505092915050565b6000602082019050818103600083015261667b8184616603565b905092915050565b6000806040838503121561669a57616699615ad2565b5b60006166a885828601615c92565b925050602083013567ffffffffffffffff8111156166c9576166c8615ad7565b5b6166d585828601615e2b565b9150509250929050565b600080604083850312156166f6576166f5615ad2565b5b600061670485828601615c5c565b9250506020616715858286016163eb565b9150509250929050565b600081519050919050565b600082825260208201905092915050565b60006167468261671f565b616750818561672a565b9350616760818560208601615b7d565b61676981615ba7565b840191505092915050565b600060c0820190506167896000830189615ce7565b6167966020830188615ee2565b6167a36040830187615ee2565b81810360608301526167b5818661673b565b90506167c46080830185615ce7565b6167d160a0830184615a9e565b979650505050505050565b7f4e487b7100000000000000000000000000000000000000000000000000000000600052602160045260246000fd5b6006811061681c5761681b6167dc565b5b50565b600081905061682d8261680b565b919050565b600061683d8261681f565b9050919050565b61684d81616832565b82525050565b600061016082019050616869600083018e615ee2565b818103602083015261687b818d615bb8565b9050818103604083015261688f818c615bb8565b905081810360608301526168a3818b615bb8565b90506168b2608083018a615ce7565b6168bf60a0830189615ce7565b6168cc60c0830188616844565b6168d960e0830187615a9e565b6168e7610100830186615a9e565b8181036101208301526168fa8185615bb8565b905061690a610140830184615ce7565b9c9b505050505050505050505050565b600061016082019050616930600083018e615ce7565b8181036020830152616942818d615bb8565b9050616951604083018c615ee2565b61695e606083018b615ce7565b61696b608083018a615ce7565b61697860a0830189615ce7565b61698560c0830188615ce7565b61699260e0830187615a9e565b6169a0610100830186615a9e565b8181036101208301526169b38185615bb8565b90508181036101408301526169c88184615bb8565b90509c9b505050505050505050505050565b600060608201905081810360008301526169f48186615bb8565b90508181036020830152616a088185615bb8565b9050616a176040830184615ce7565b949350505050565b60058110616a3057616a2f6167dc565b5b50565b6000819050616a4182616a1f565b919050565b6000616a5182616a33565b9050919050565b616a6181616a46565b82525050565b600060a082019050616a7c6000830188616a58565b8181036020830152616a8e8187615bb8565b90508181036040830152616aa28186615bb8565b9050616ab16060830185615ce7565b616abe6080830184615ce7565b9695505050505050565b600081519050919050565b600082825260208201905092915050565b6000819050602082019050919050565b600081519050919050565b600082825260208201905092915050565b6000819050602082019050919050565b6000616b2c838361643e565b905092915050565b6000602082019050919050565b6000616b4c82616af4565b616b568185616aff565b935083602082028501616b6885616b10565b8060005b85811015616ba45784840389528151616b858582616b20565b9450616b9083616b34565b925060208a01995050600181019050616b6c565b50829750879550505050505092915050565b616bbf81616832565b82525050565b616bce81615a92565b82525050565b60006101a083016000830151616bed6000860182616477565b506020830151616c0060208601826165cf565b5060408301518482036040860152616c18828261643e565b91505060608301518482036060860152616c32828261643e565b91505060808301518482036080860152616c4c8282616b41565b91505060a083015184820360a0860152616c66828261643e565b91505060c0830151616c7b60c0860182616477565b5060e0830151616c8e60e0860182616477565b50610100830151616ca3610100860182616bb6565b50610120830151616cb8610120860182616bc5565b50610140830151616ccd610140860182616bc5565b50610160830151848203610160860152616ce7828261643e565b915050610180830151616cfe610180860182616477565b508091505092915050565b6000616d158383616bd4565b905092915050565b6000602082019050919050565b6000616d3582616ac8565b616d3f8185616ad3565b935083602082028501616d5185616ae4565b8060005b85811015616d8d5784840389528151616d6e8582616d09565b9450616d7983616d1d565b925060208a01995050600181019050616d55565b50829750879550505050505092915050565b60006020820190508181036000830152616db98184616d2a565b905092915050565b6000606082019050616dd66000830186615ce7565b616de36020830185615ce7565b616df06040830184616a58565b949350505050565b600082825260208201905092915050565b6000616e1482616af4565b616e1e8185616df8565b935083602082028501616e3085616b10565b8060005b85811015616e6c5784840389528151616e4d8582616b20565b9450616e5883616b34565b925060208a01995050600181019050616e34565b50829750879550505050505092915050565b60006020820190508181036000830152616e988184616e09565b905092915050565b6000602082019050616eb56000830184616a58565b92915050565b60008060408385031215616ed257616ed1615ad2565b5b6000616ee085828601615c92565b925050602083013567ffffffffffffffff811115616f0157616f00615ad7565b5b616f0d85828601615f93565b9150509250929050565b600061018082019050616f2d600083018f615ce7565b616f3a602083018e615ee2565b8181036040830152616f4c818d615bb8565b90508181036060830152616f60818c615bb8565b90508181036080830152616f74818b615bb8565b9050616f8360a083018a615ce7565b616f9060c0830189615ce7565b616f9d60e0830188616844565b616fab610100830187615a9e565b616fb9610120830186615a9e565b818103610140830152616fcc8185615bb8565b9050616fdc610160830184615ce7565b9d9c50505050505050505050505050565b600081519050919050565b600082825260208201905092915050565b6000819050602082019050919050565b6000610160830160008301516170326000860182616477565b506020830151848203602086015261704a828261643e565b915050604083015161705f60408601826165cf565b5060608301516170726060860182616477565b5060808301516170856080860182616477565b5060a083015161709860a0860182616477565b5060c08301516170ab60c0860182616477565b5060e08301516170be60e0860182616bc5565b506101008301516170d3610100860182616bc5565b506101208301518482036101208601526170ed828261643e565b915050610140830151848203610140860152617109828261643e565b9150508091505092915050565b60006171228383617019565b905092915050565b6000602082019050919050565b600061714282616fed565b61714c8185616ff8565b93508360208202850161715e85617009565b8060005b8581101561719a578484038952815161717b8582617116565b94506171868361712a565b925060208a01995050600181019050617162565b50829750879550505050505092915050565b600060208201905081810360008301526171c68184617137565b905092915050565b600080604083850312156171e5576171e4615ad2565b5b60006171f385828601615c5c565b925050602061720485828601615c5c565b9150509250929050565b7f416c72656164792061206d656d62657221000000000000000000000000000000600082015250565b6000617244601183615b6c565b915061724f8261720e565b602082019050919050565b6000602082019050818103600083015261727381617237565b9050919050565b7f4e487b7100000000000000000000000000000000000000000000000000000000600052602260045260246000fd5b600060028204905060018216806172c157607f821691505b6020821081036172d4576172d361727a565b5b50919050565b7f4e487b7100000000000000000000000000000000000000000000000000000000600052603260045260246000fd5b7f4e6f20656c696769626c65206164647265737365730000000000000000000000600082015250565b600061733f601583615b6c565b915061734a82617309565b602082019050919050565b6000602082019050818103600083015261736e81617332565b9050919050565b6000604082019050818103600083015261738f8185616603565b905061739e6020830184615ce7565b9392505050565b7f4d757374206265206120636f6d6d756e697479206d656d62657220746f20637260008201527f656174652070726f706f73616c73000000000000000000000000000000000000602082015250565b6000617401602e83615b6c565b915061740c826173a5565b604082019050919050565b60006020820190508181036000830152617430816173f4565b9050919050565b7f4e487b7100000000000000000000000000000000000000000000000000000000600052601160045260246000fd5b600061747182615c71565b915061747c83615c71565b925082820261748a81615c71565b915082820484148315176174a1576174a0617437565b5b5092915050565b7f4e487b7100000000000000000000000000000000000000000000000000000000600052601260045260246000fd5b60006174e282615c71565b91506174ed83615c71565b9250826174fd576174fc6174a8565b5b828204905092915050565b7f52657175657374656420616d6f756e742065786365656473206d6178696d756d60008201527f2066756e64696e67206c696d6974000000000000000000000000000000000000602082015250565b6000617564602e83615b6c565b915061756f82617508565b604082019050919050565b6000602082019050818103600083015261759381617557565b9050919050565b60008190508160005260206000209050919050565b60006020601f8301049050919050565b600082821b905092915050565b6000600883026175fc7fffffffffffffffffffffffffffffffffffffffffffffffffffffffffffffffff826175bf565b61760686836175bf565b95508019841693508086168417925050509392505050565b6000819050919050565b600061764361763e61763984615c71565b61761e565b615c71565b9050919050565b6000819050919050565b61765d83617628565b6176716176698261764a565b8484546175cc565b825550505050565b600090565b617686617679565b617691818484617654565b505050565b5b818110156176b5576176aa60008261767e565b600181019050617697565b5050565b601f8211156176fa576176cb8161759a565b6176d4846175af565b810160208510156176e3578190505b6176f76176ef856175af565b830182617696565b50505b505050565b600082821c905092915050565b600061771d600019846008026176ff565b1980831691505092915050565b6000617736838361770c565b9150826002028217905092915050565b61774f82615b61565b67ffffffffffffffff81111561776857617767615d16565b5b61777282546172a9565b61777d8282856176b9565b600060209050601f8311600181146177b0576000841561779e578287015190505b6177a8858261772a565b865550617810565b601f1984166177be8661759a565b60005b828110156177e6578489015182556001820191506020850194506020810190506177c1565b8683101561780357848901516177ff601f89168261770c565b8355505b6001600288020188555050505b505050505050565b600061782382615c71565b91507fffffffffffffffffffffffffffffffffffffffffffffffffffffffffffffffff820361785557617854617437565b5b600182019050919050565b6000604082019050818103600083015261787a8185615bb8565b90506178896020830184615ce7565b9392505050565b600060808201905081810360008301526178aa8187615bb8565b90506178b96020830186615ee2565b6178c66040830185615a9e565b81810360608301526178d88184615bb8565b905095945050505050565b60006178ee82615c71565b91506178f983615c71565b925082820190508082111561791157617910617437565b5b92915050565b7f436f6d6d756e6974793a20496e73756666696369656e7420746f6b656e730000600082015250565b600061794d601e83615b6c565b915061795882617917565b602082019050919050565b6000602082019050818103600083015261797c81617940565b9050919050565b60006040820190506179986000830185615ce7565b81810360208301526179aa8184616603565b90509392505050565b7f4576656e74206973206e6f742061637469766500000000000000000000000000600082015250565b60006179e9601383615b6c565b91506179f4826179b3565b602082019050919050565b60006020820190508181036000830152617a18816179dc565b9050919050565b7f4576656e74206e6f7420696e2070726f67726573730000000000000000000000600082015250565b6000617a55601583615b6c565b9150617a6082617a1f565b602082019050919050565b60006020820190508181036000830152617a8481617a48565b9050919050565b7f4576656e742069732066756c6c00000000000000000000000000000000000000600082015250565b6000617ac1600d83615b6c565b9150617acc82617a8b565b602082019050919050565b60006020820190508181036000830152617af081617ab4565b9050919050565b7f416c726561647920696e20726576696577657220706f6f6c0000000000000000600082015250565b6000617b2d601883615b6c565b9150617b3882617af7565b602082019050919050565b60006020820190508181036000830152617b5c81617b20565b9050919050565b7f50726f706f73616c206e6f7420617070726f7665640000000000000000000000600082015250565b6000617b99601583615b6c565b9150617ba482617b63565b602082019050919050565b60006020820190508181036000830152617bc881617b8c565b9050919050565b7f496e73756666696369656e7420636f6d6d756e6974792070726f6a656374206660008201527f756e647300000000000000000000000000000000000000000000000000000000602082015250565b6000617c2b602483615b6c565b9150617c3682617bcf565b604082019050919050565b60006020820190508181036000830152617c5a81617c1e565b9050919050565b7f50726f706f73616c20616c726561647920657865637574656400000000000000600082015250565b6000617c97601983615b6c565b9150617ca282617c61565b602082019050919050565b60006020820190508181036000830152617cc681617c8a565b9050919050565b7f416c726561647920617070726f76656400000000000000000000000000000000600082015250565b6000617d03601083615b6c565b9150617d0e82617ccd565b602082019050919050565b60006020820190508181036000830152617d3281617cf6565b9050919050565b600081905092915050565b60008190508160005260206000209050919050565b60008154617d66816172a9565b617d708186617d39565b94506001821660008114617d8b5760018114617da057617dd3565b60ff1983168652811515820286019350617dd3565b617da985617d44565b60005b83811015617dcb57815481890152600182019150602081019050617dac565b838801955050505b50505092915050565b6000617de88284617d59565b915081905092915050565b7f50726f706f73616c20657865637574696f6e206661696c656400000000000000600082015250565b6000617e29601983615b6c565b9150617e3482617df3565b602082019050919050565b60006020820190508181036000830152617e5881617e1c565b9050919050565b7f4e6f7420696e20726576696577657220706f6f6c000000000000000000000000600082015250565b6000617e95601483615b6c565b9150617ea082617e5f565b602082019050919050565b60006020820190508181036000830152617ec481617e88565b9050919050565b6000617ed682615c71565b9150617ee183615c71565b9250828203905081811115617ef957617ef8617437565b5b92915050565b7f4e487b7100000000000000000000000000000000000000000000000000000000600052603160045260246000fd5b7f50726f706f73616c20616c726561647920617070726f76656400000000000000600082015250565b6000617f64601983615b6c565b9150617f6f82617f2e565b602082019050919050565b60006020820190508181036000830152617f9381617f57565b9050919050565b7f50726f706f73616c20616c72656164792072656a656374656400000000000000600082015250565b6000617fd0601983615b6c565b9150617fdb82617f9a565b602082019050919050565b60006020820190508181036000830152617fff81617fc3565b9050919050565b7f416c726561647920617070726f766564206279207468697320617070726f766560008201527f7200000000000000000000000000000000000000000000000000000000000000602082015250565b6000618062602183615b6c565b915061806d82618006565b604082019050919050565b6000602082019050818103600083015261809181618055565b9050919050565b7f496e76616c69642072657761726420616d6f756e740000000000000000000000600082015250565b60006180ce601583615b6c565b91506180d982618098565b602082019050919050565b600060208201905081810360008301526180fd816180c1565b9050919050565b7f436f6d6d756e6974793a204d696e74696e67206c696d6974206578636565646560008201527f6400000000000000000000000000000000000000000000000000000000000000602082015250565b6000618160602183615b6c565b915061816b82618104565b604082019050919050565b6000602082019050818103600083015261818f81618153565b9050919050565b7f436f6d6d756e6974793a2043616e6e6f74206d696e7420746f207a65726f206160008201527f6464726573730000000000000000000000000000000000000000000000000000602082015250565b60006181f2602683615b6c565b91506181fd82618196565b604082019050919050565b60006020820190508181036000830152618221816181e5565b9050919050565b601f8211156182695761823a81617d44565b618243846175af565b81016020851015618252578190505b61826661825e856175af565b830182617696565b50505b505050565b6182778261671f565b67ffffffffffffffff8111156182905761828f615d16565b5b61829a82546172a9565b6182a5828285618228565b600060209050601f8311600181146182d857600084156182c6578287015190505b6182d0858261772a565b865550618338565b601f1984166182e686617d44565b60005b8281101561830e578489015182556001820191506020850194506020810190506182e9565b8683101561832b5784890151618327601f89168261770c565b8355505b6001600288020188555050505b505050505050565b60006060820190506183556000830186615ee2565b6183626020830185615ce7565b61836f6040830184615ce7565b949350505050565b60008160601b9050919050565b600061838f82618377565b9050919050565b60006183a182618384565b9050919050565b6183b96183b482615c33565b618396565b82525050565b60008160f81b9050919050565b60006183d7826183bf565b9050919050565b6183ef6183ea82616a46565b6183cc565b82525050565b600061840182856183a8565b60148201915061841182846183de565b6001820191508190509392505050565b7f4c696d6974204578636565646564210000000000000000000000000000000000600082015250565b6000618457600f83615b6c565b915061846282618421565b602082019050919050565b600060208201905081810360008301526184868161844a565b9050919050565b60006040820190506184a26000830185615ee2565b6184af602083018461628f565b939250505056fea26469706673582212200e4489454ee6bb11c95177b3be5e78e629456a707335685bf2f38ae93c7d6b8764736f6c634300081b0033",
  "linkReferences": {},
  "deployedLinkReferences": {}
}