{
  "_format": "hh-sol-artifact-1",
  "contractName": "Community",
  "sourceName": "contracts/Community Contracts/Community.sol",
  "abi": [
    {
      "inputs": [
        {
          "internalType": "address[]",
          "name": "_reviewers",
          "type": "address[]"
        }
      ],
      "stateMutability": "nonpayable",
      "type": "constructor"
    },
    {
      "inputs": [],
      "name": "AccessControlBadConfirmation",
      "type": "error"
    },
    {
      "inputs": [
        {
          "internalType": "address",
          "name": "account",
          "type": "address"
        },
        {
          "internalType": "bytes32",
          "name": "neededRole",
          "type": "bytes32"
        }
      ],
      "name": "AccessControlUnauthorizedAccount",
      "type": "error"
    },
    {
      "inputs": [
        {
          "internalType": "address",
          "name": "spender",
          "type": "address"
        },
        {
          "internalType": "uint256",
          "name": "allowance",
          "type": "uint256"
        },
        {
          "internalType": "uint256",
          "name": "needed",
          "type": "uint256"
        }
      ],
      "name": "ERC20InsufficientAllowance",
      "type": "error"
    },
    {
      "inputs": [
        {
          "internalType": "address",
          "name": "sender",
          "type": "address"
        },
        {
          "internalType": "uint256",
          "name": "balance",
          "type": "uint256"
        },
        {
          "internalType": "uint256",
          "name": "needed",
          "type": "uint256"
        }
      ],
      "name": "ERC20InsufficientBalance",
      "type": "error"
    },
    {
      "inputs": [
        {
          "internalType": "address",
          "name": "approver",
          "type": "address"
        }
      ],
      "name": "ERC20InvalidApprover",
      "type": "error"
    },
    {
      "inputs": [
        {
          "internalType": "address",
          "name": "receiver",
          "type": "address"
        }
      ],
      "name": "ERC20InvalidReceiver",
      "type": "error"
    },
    {
      "inputs": [
        {
          "internalType": "address",
          "name": "sender",
          "type": "address"
        }
      ],
      "name": "ERC20InvalidSender",
      "type": "error"
    },
    {
      "inputs": [
        {
          "internalType": "address",
          "name": "spender",
          "type": "address"
        }
      ],
      "name": "ERC20InvalidSpender",
      "type": "error"
    },
    {
      "inputs": [],
      "name": "ReentrancyGuardReentrantCall",
      "type": "error"
    },
    {
      "anonymous": false,
      "inputs": [
        {
          "indexed": true,
          "internalType": "uint256",
          "name": "_amount",
          "type": "uint256"
        },
        {
          "indexed": false,
          "internalType": "uint256",
          "name": "_numberOfEarlyAdopters",
          "type": "uint256"
        }
      ],
      "name": "AirdropDistributeSuccess",
      "type": "event"
    },
    {
      "anonymous": false,
      "inputs": [
        {
          "indexed": true,
          "internalType": "address",
          "name": "owner",
          "type": "address"
        },
        {
          "indexed": true,
          "internalType": "address",
          "name": "spender",
          "type": "address"
        },
        {
          "indexed": false,
          "internalType": "uint256",
          "name": "value",
          "type": "uint256"
        }
      ],
      "name": "Approval",
      "type": "event"
    },
    {
      "anonymous": false,
      "inputs": [
        {
          "indexed": true,
          "internalType": "address",
          "name": "member",
          "type": "address"
        },
        {
          "indexed": false,
          "internalType": "enum CommunityBadgeSystem.BadgeLevel",
          "name": "badge",
          "type": "uint8"
        }
      ],
      "name": "BadgeAwarded",
      "type": "event"
    },
    {
      "anonymous": false,
      "inputs": [
        {
          "indexed": true,
          "internalType": "address",
          "name": "_account",
          "type": "address"
        },
        {
          "indexed": false,
          "internalType": "uint256",
          "name": "_amount",
          "type": "uint256"
        }
      ],
      "name": "BurnSuccess",
      "type": "event"
    },
    {
      "anonymous": false,
      "inputs": [
        {
          "indexed": true,
          "internalType": "address",
          "name": "_to",
          "type": "address"
        },
        {
          "indexed": true,
          "internalType": "uint256",
          "name": "_amount",
          "type": "uint256"
        }
      ],
      "name": "CommunityPoolUpdate",
      "type": "event"
    },
    {
      "anonymous": false,
      "inputs": [
        {
          "indexed": true,
          "internalType": "address",
          "name": "project",
          "type": "address"
        },
        {
          "indexed": false,
          "internalType": "uint256",
          "name": "amount",
          "type": "uint256"
        }
      ],
      "name": "CommunityProjectFunded",
      "type": "event"
    },
    {
      "anonymous": false,
      "inputs": [
        {
          "indexed": true,
          "internalType": "uint256",
          "name": "eventId",
          "type": "uint256"
        },
        {
          "indexed": false,
          "internalType": "string",
          "name": "name",
          "type": "string"
        },
        {
          "indexed": false,
          "internalType": "address",
          "name": "creator",
          "type": "address"
        }
      ],
      "name": "EventCreated",
      "type": "event"
    },
    {
      "anonymous": false,
      "inputs": [
        {
          "indexed": true,
          "internalType": "uint256",
          "name": "eventId",
          "type": "uint256"
        },
        {
          "indexed": false,
          "internalType": "address",
          "name": "participant",
          "type": "address"
        }
      ],
      "name": "EventParticipation",
      "type": "event"
    },
    {
      "anonymous": false,
      "inputs": [
        {
          "indexed": true,
          "internalType": "address",
          "name": "member",
          "type": "address"
        },
        {
          "indexed": false,
          "internalType": "uint256",
          "name": "totalEvents",
          "type": "uint256"
        }
      ],
      "name": "EventParticipationRecorded",
      "type": "event"
    },
    {
      "anonymous": false,
      "inputs": [
        {
          "indexed": true,
          "internalType": "address",
          "name": "_to",
          "type": "address"
        },
        {
          "indexed": true,
          "internalType": "uint256",
          "name": "_amount",
          "type": "uint256"
        }
      ],
      "name": "MintSuccess",
      "type": "event"
    },
    {
      "anonymous": false,
      "inputs": [
        {
          "indexed": true,
          "internalType": "uint256",
          "name": "proposalId",
          "type": "uint256"
        },
        {
          "indexed": false,
          "internalType": "address",
          "name": "approver",
          "type": "address"
        }
      ],
      "name": "MultiSigProposalApproved",
      "type": "event"
    },
    {
      "anonymous": false,
      "inputs": [
        {
          "indexed": true,
          "internalType": "uint256",
          "name": "proposalId",
          "type": "uint256"
        },
        {
          "indexed": false,
          "internalType": "address",
          "name": "proposer",
          "type": "address"
        }
      ],
      "name": "MultiSigProposalCreated",
      "type": "event"
    },
    {
      "anonymous": false,
      "inputs": [
        {
          "indexed": true,
          "internalType": "uint256",
          "name": "proposalId",
          "type": "uint256"
        }
      ],
      "name": "MultiSigProposalExecuted",
      "type": "event"
    },
    {
      "anonymous": false,
      "inputs": [
        {
          "indexed": true,
          "internalType": "address",
          "name": "reviewer",
          "type": "address"
        }
      ],
      "name": "ReviewerAddedToPool",
      "type": "event"
    },
    {
      "anonymous": false,
      "inputs": [
        {
          "indexed": true,
          "internalType": "address",
          "name": "reviewer",
          "type": "address"
        }
      ],
      "name": "ReviewerRemovedFromPool",
      "type": "event"
    },
    {
      "anonymous": false,
      "inputs": [
        {
          "indexed": true,
          "internalType": "bytes32",
          "name": "role",
          "type": "bytes32"
        },
        {
          "indexed": true,
          "internalType": "bytes32",
          "name": "previousAdminRole",
          "type": "bytes32"
        },
        {
          "indexed": true,
          "internalType": "bytes32",
          "name": "newAdminRole",
          "type": "bytes32"
        }
      ],
      "name": "RoleAdminChanged",
      "type": "event"
    },
    {
      "anonymous": false,
      "inputs": [
        {
          "indexed": true,
          "internalType": "bytes32",
          "name": "role",
          "type": "bytes32"
        },
        {
          "indexed": true,
          "internalType": "address",
          "name": "account",
          "type": "address"
        },
        {
          "indexed": true,
          "internalType": "address",
          "name": "sender",
          "type": "address"
        }
      ],
      "name": "RoleGranted",
      "type": "event"
    },
    {
      "anonymous": false,
      "inputs": [
        {
          "indexed": true,
          "internalType": "bytes32",
          "name": "role",
          "type": "bytes32"
        },
        {
          "indexed": true,
          "internalType": "address",
          "name": "account",
          "type": "address"
        },
        {
          "indexed": true,
          "internalType": "address",
          "name": "sender",
          "type": "address"
        }
      ],
      "name": "RoleRevoked",
      "type": "event"
    },
    {
      "anonymous": false,
      "inputs": [
        {
          "indexed": true,
          "internalType": "address",
          "name": "from",
          "type": "address"
        },
        {
          "indexed": true,
          "internalType": "address",
          "name": "to",
          "type": "address"
        },
        {
          "indexed": false,
          "internalType": "uint256",
          "name": "value",
          "type": "uint256"
        }
      ],
      "name": "Transfer",
      "type": "event"
    },
    {
      "inputs": [],
      "name": "CHAMPION_BADGE_THRESHOLD",
      "outputs": [
        {
          "internalType": "uint256",
          "name": "",
          "type": "uint256"
        }
      ],
      "stateMutability": "view",
      "type": "function"
    },
    {
      "inputs": [],
      "name": "COMMUNITY_MANAGER",
      "outputs": [
        {
          "internalType": "bytes32",
          "name": "",
          "type": "bytes32"
        }
      ],
      "stateMutability": "view",
      "type": "function"
    },
    {
      "inputs": [],
      "name": "COMMUNITY_POOL",
      "outputs": [
        {
          "internalType": "uint256",
          "name": "",
          "type": "uint256"
        }
      ],
      "stateMutability": "view",
      "type": "function"
    },
    {
      "inputs": [],
      "name": "CONTRIBUTOR_BADGE_THRESHOLD",
      "outputs": [
        {
          "internalType": "uint256",
          "name": "",
          "type": "uint256"
        }
      ],
      "stateMutability": "view",
      "type": "function"
    },
    {
      "inputs": [],
      "name": "DEFAULT_ADMIN_ROLE",
      "outputs": [
        {
          "internalType": "bytes32",
          "name": "",
          "type": "bytes32"
        }
      ],
      "stateMutability": "view",
      "type": "function"
    },
    {
      "inputs": [],
      "name": "EVENT_PARTICIPATION_REWARD",
      "outputs": [
        {
          "internalType": "uint256",
          "name": "",
          "type": "uint256"
        }
      ],
      "stateMutability": "view",
      "type": "function"
    },
    {
      "inputs": [],
      "name": "LEADER_BADGE_THRESHOLD",
      "outputs": [
        {
          "internalType": "uint256",
          "name": "",
          "type": "uint256"
        }
      ],
      "stateMutability": "view",
      "type": "function"
    },
    {
      "inputs": [],
      "name": "MAX_COMMUNITY_PROJECT_FUNDING",
      "outputs": [
        {
          "internalType": "uint256",
          "name": "",
          "type": "uint256"
        }
      ],
      "stateMutability": "view",
      "type": "function"
    },
    {
      "inputs": [],
      "name": "MAX_SUPPLY",
      "outputs": [
        {
          "internalType": "uint256",
          "name": "",
          "type": "uint256"
        }
      ],
      "stateMutability": "view",
      "type": "function"
    },
    {
      "inputs": [],
      "name": "MULTISIG_APPROVER",
      "outputs": [
        {
          "internalType": "bytes32",
          "name": "",
          "type": "bytes32"
        }
      ],
      "stateMutability": "view",
      "type": "function"
    },
    {
      "inputs": [],
      "name": "PARTICIPANT_BADGE_THRESHOLD",
      "outputs": [
        {
          "internalType": "uint256",
          "name": "",
          "type": "uint256"
        }
      ],
      "stateMutability": "view",
      "type": "function"
    },
    {
      "inputs": [],
      "name": "REVIEWER_ROLE",
      "outputs": [
        {
          "internalType": "bytes32",
          "name": "",
          "type": "bytes32"
        }
      ],
      "stateMutability": "view",
      "type": "function"
    },
    {
      "inputs": [
        {
          "internalType": "address",
          "name": "newReviewer",
          "type": "address"
        }
      ],
      "name": "addReviewer",
      "outputs": [],
      "stateMutability": "nonpayable",
      "type": "function"
    },
    {
      "inputs": [
        {
          "internalType": "address",
          "name": "owner",
          "type": "address"
        },
        {
          "internalType": "address",
          "name": "spender",
          "type": "address"
        }
      ],
      "name": "allowance",
      "outputs": [
        {
          "internalType": "uint256",
          "name": "",
          "type": "uint256"
        }
      ],
      "stateMutability": "view",
      "type": "function"
    },
    {
      "inputs": [
        {
          "internalType": "address",
          "name": "spender",
          "type": "address"
        },
        {
          "internalType": "uint256",
          "name": "value",
          "type": "uint256"
        }
      ],
      "name": "approve",
      "outputs": [
        {
          "internalType": "bool",
          "name": "",
          "type": "bool"
        }
      ],
      "stateMutability": "nonpayable",
      "type": "function"
    },
    {
      "inputs": [
        {
          "internalType": "uint256",
          "name": "_proposalId",
          "type": "uint256"
        }
      ],
      "name": "approveMultiSigProposal",
      "outputs": [],
      "stateMutability": "nonpayable",
      "type": "function"
    },
    {
      "inputs": [
        {
          "internalType": "enum CommunityBadgeSystem.BadgeLevel",
          "name": "",
          "type": "uint8"
        }
      ],
      "name": "badgeMetadata",
      "outputs": [
        {
          "internalType": "string",
          "name": "name",
          "type": "string"
        },
        {
          "internalType": "string",
          "name": "iconURI",
          "type": "string"
        },
        {
          "internalType": "uint256",
          "name": "tokenReward",
          "type": "uint256"
        }
      ],
      "stateMutability": "view",
      "type": "function"
    },
    {
      "inputs": [
        {
          "internalType": "address",
          "name": "account",
          "type": "address"
        }
      ],
      "name": "balanceOf",
      "outputs": [
        {
          "internalType": "uint256",
          "name": "",
          "type": "uint256"
        }
      ],
      "stateMutability": "view",
      "type": "function"
    },
    {
      "inputs": [],
      "name": "checkMemberBadge",
      "outputs": [
        {
          "internalType": "enum CommunityBadgeSystem.BadgeLevel",
          "name": "",
          "type": "uint8"
        }
      ],
      "stateMutability": "view",
      "type": "function"
    },
    {
      "inputs": [],
      "name": "claimBadgeRewards",
      "outputs": [],
      "stateMutability": "nonpayable",
      "type": "function"
    },
    {
      "inputs": [
        {
          "internalType": "address",
          "name": "",
          "type": "address"
        }
      ],
      "name": "communityContributorRewards",
      "outputs": [
        {
          "internalType": "uint256",
          "name": "",
          "type": "uint256"
        }
      ],
      "stateMutability": "view",
      "type": "function"
    },
    {
      "inputs": [
        {
          "internalType": "uint256",
          "name": "",
          "type": "uint256"
        }
      ],
      "name": "communityEvents",
      "outputs": [
        {
          "internalType": "uint256",
          "name": "id",
          "type": "uint256"
        },
        {
          "internalType": "string",
          "name": "name",
          "type": "string"
        },
        {
          "internalType": "address",
          "name": "creator",
          "type": "address"
        },
        {
          "internalType": "uint256",
          "name": "startTime",
          "type": "uint256"
        },
        {
          "internalType": "uint256",
          "name": "endTime",
          "type": "uint256"
        },
        {
          "internalType": "uint256",
          "name": "maxParticipants",
          "type": "uint256"
        },
        {
          "internalType": "uint256",
          "name": "currentParticipants",
          "type": "uint256"
        },
        {
          "internalType": "bool",
          "name": "isActive",
          "type": "bool"
        }
      ],
      "stateMutability": "view",
      "type": "function"
    },
    {
      "inputs": [
        {
          "internalType": "address",
          "name": "",
          "type": "address"
        }
      ],
      "name": "communityMembers",
      "outputs": [
        {
          "internalType": "uint256",
          "name": "totalEventsAttended",
          "type": "uint256"
        },
        {
          "internalType": "uint256",
          "name": "totalContributions",
          "type": "uint256"
        },
        {
          "internalType": "enum CommunityBadgeSystem.BadgeLevel",
          "name": "currentBadge",
          "type": "uint8"
        }
      ],
      "stateMutability": "view",
      "type": "function"
    },
    {
      "inputs": [],
      "name": "communityPoolSupply",
      "outputs": [
        {
          "internalType": "uint256",
          "name": "",
          "type": "uint256"
        }
      ],
      "stateMutability": "view",
      "type": "function"
    },
    {
      "inputs": [],
      "name": "communityProjectFunds",
      "outputs": [
        {
          "internalType": "uint256",
          "name": "",
          "type": "uint256"
        }
      ],
      "stateMutability": "view",
      "type": "function"
    },
    {
      "inputs": [
        {
          "internalType": "string",
          "name": "_name",
          "type": "string"
        },
        {
          "internalType": "uint256",
          "name": "_startTime",
          "type": "uint256"
        },
        {
          "internalType": "uint256",
          "name": "_endTime",
          "type": "uint256"
        },
        {
          "internalType": "uint256",
          "name": "_maxParticipants",
          "type": "uint256"
        }
      ],
      "name": "createEvent",
      "outputs": [
        {
          "internalType": "uint256",
          "name": "",
          "type": "uint256"
        }
      ],
      "stateMutability": "nonpayable",
      "type": "function"
    },
    {
      "inputs": [],
      "name": "decimals",
      "outputs": [
        {
          "internalType": "uint8",
          "name": "",
          "type": "uint8"
        }
      ],
      "stateMutability": "view",
      "type": "function"
    },
    {
      "inputs": [
        {
          "internalType": "uint256",
          "name": "_amount",
          "type": "uint256"
        },
        {
          "internalType": "address[]",
          "name": "earlyAdopters",
          "type": "address[]"
        }
      ],
      "name": "distributeAirdrops",
      "outputs": [
        {
          "internalType": "bool",
          "name": "",
          "type": "bool"
        }
      ],
      "stateMutability": "nonpayable",
      "type": "function"
    },
    {
      "inputs": [
        {
          "internalType": "address",
          "name": "_projectAddress",
          "type": "address"
        },
        {
          "internalType": "uint256",
          "name": "_amount",
          "type": "uint256"
        }
      ],
      "name": "fundCommunityProjects",
      "outputs": [],
      "stateMutability": "nonpayable",
      "type": "function"
    },
    {
      "inputs": [
        {
          "internalType": "enum CommunityBadgeSystem.BadgeLevel",
          "name": "_level",
          "type": "uint8"
        }
      ],
      "name": "getBadgeMetadata",
      "outputs": [
        {
          "components": [
            {
              "internalType": "string",
              "name": "name",
              "type": "string"
            },
            {
              "internalType": "string",
              "name": "iconURI",
              "type": "string"
            },
            {
              "internalType": "uint256",
              "name": "tokenReward",
              "type": "uint256"
            }
          ],
          "internalType": "struct CommunityBadgeSystem.BadgeMetadata",
          "name": "",
          "type": "tuple"
        }
      ],
      "stateMutability": "view",
      "type": "function"
    },
    {
      "inputs": [
        {
          "internalType": "address",
          "name": "_member",
          "type": "address"
        }
      ],
      "name": "getMemberBadge",
      "outputs": [
        {
          "internalType": "enum CommunityBadgeSystem.BadgeLevel",
          "name": "",
          "type": "uint8"
        }
      ],
      "stateMutability": "view",
      "type": "function"
    },
    {
      "inputs": [
        {
          "internalType": "address",
          "name": "_member",
          "type": "address"
        }
      ],
      "name": "getMemberBadgeDetails",
      "outputs": [
        {
          "internalType": "enum CommunityBadgeSystem.BadgeLevel",
          "name": "currentBadge",
          "type": "uint8"
        },
        {
          "internalType": "string",
          "name": "badgeName",
          "type": "string"
        },
        {
          "internalType": "string",
          "name": "iconURI",
          "type": "string"
        },
        {
          "internalType": "uint256",
          "name": "tokenReward",
          "type": "uint256"
        },
        {
          "internalType": "uint256",
          "name": "totalEventsAttended",
          "type": "uint256"
        }
      ],
      "stateMutability": "view",
      "type": "function"
    },
    {
      "inputs": [
        {
          "internalType": "bytes32",
          "name": "role",
          "type": "bytes32"
        }
      ],
      "name": "getRoleAdmin",
      "outputs": [
        {
          "internalType": "bytes32",
          "name": "",
          "type": "bytes32"
        }
      ],
      "stateMutability": "view",
      "type": "function"
    },
    {
      "inputs": [
        {
          "internalType": "address",
          "name": "_member",
          "type": "address"
        }
      ],
      "name": "getTotalEventsAttended",
      "outputs": [
        {
          "internalType": "uint256",
          "name": "",
          "type": "uint256"
        }
      ],
      "stateMutability": "view",
      "type": "function"
    },
    {
      "inputs": [
        {
          "internalType": "bytes32",
          "name": "role",
          "type": "bytes32"
        },
        {
          "internalType": "address",
          "name": "account",
          "type": "address"
        }
      ],
      "name": "grantRole",
      "outputs": [],
      "stateMutability": "nonpayable",
      "type": "function"
    },
    {
      "inputs": [
        {
          "internalType": "address",
          "name": "_member",
          "type": "address"
        },
        {
          "internalType": "enum CommunityBadgeSystem.BadgeLevel",
          "name": "_badgeLevel",
          "type": "uint8"
        }
      ],
      "name": "hasBadge",
      "outputs": [
        {
          "internalType": "bool",
          "name": "",
          "type": "bool"
        }
      ],
      "stateMutability": "view",
      "type": "function"
    },
    {
      "inputs": [
        {
          "internalType": "bytes32",
          "name": "role",
          "type": "bytes32"
        },
        {
          "internalType": "address",
          "name": "account",
          "type": "address"
        }
      ],
      "name": "hasRole",
      "outputs": [
        {
          "internalType": "bool",
          "name": "",
          "type": "bool"
        }
      ],
      "stateMutability": "view",
      "type": "function"
    },
    {
      "inputs": [
        {
          "internalType": "address",
          "name": "",
          "type": "address"
        }
      ],
      "name": "isInReviewerPool",
      "outputs": [
        {
          "internalType": "bool",
          "name": "",
          "type": "bool"
        }
      ],
      "stateMutability": "view",
      "type": "function"
    },
    {
      "inputs": [
        {
          "internalType": "address",
          "name": "account",
          "type": "address"
        }
      ],
      "name": "isReviewer",
      "outputs": [
        {
          "internalType": "bool",
          "name": "",
          "type": "bool"
        }
      ],
      "stateMutability": "view",
      "type": "function"
    },
    {
      "inputs": [
        {
          "internalType": "uint256",
          "name": "",
          "type": "uint256"
        }
      ],
      "name": "multiSigProposals",
      "outputs": [
        {
          "internalType": "uint256",
          "name": "id",
          "type": "uint256"
        },
        {
          "internalType": "address",
          "name": "proposer",
          "type": "address"
        },
        {
          "internalType": "address",
          "name": "targetContract",
          "type": "address"
        },
        {
          "internalType": "bytes",
          "name": "data",
          "type": "bytes"
        },
        {
          "internalType": "uint256",
          "name": "approvalCount",
          "type": "uint256"
        },
        {
          "internalType": "bool",
          "name": "executed",
          "type": "bool"
        }
      ],
      "stateMutability": "view",
      "type": "function"
    },
    {
      "inputs": [],
      "name": "name",
      "outputs": [
        {
          "internalType": "string",
          "name": "",
          "type": "string"
        }
      ],
      "stateMutability": "view",
      "type": "function"
    },
    {
      "inputs": [
        {
          "internalType": "uint256",
          "name": "_eventId",
          "type": "uint256"
        }
      ],
      "name": "participateInEvent",
      "outputs": [],
      "stateMutability": "nonpayable",
      "type": "function"
    },
    {
      "inputs": [
        {
          "internalType": "uint256",
          "name": "_amount",
          "type": "uint256"
        },
        {
          "internalType": "address[]",
          "name": "earlyAdopters",
          "type": "address[]"
        }
      ],
      "name": "performAirdrop",
      "outputs": [],
      "stateMutability": "nonpayable",
      "type": "function"
    },
    {
      "inputs": [
        {
          "internalType": "address[]",
          "name": "_eligibleAddresses",
          "type": "address[]"
        },
        {
          "internalType": "uint256",
          "name": "_amount",
          "type": "uint256"
        }
      ],
      "name": "performPeriodicAirdrop",
      "outputs": [],
      "stateMutability": "nonpayable",
      "type": "function"
    },
    {
      "inputs": [
        {
          "internalType": "address[]",
          "name": "_eligibleAddresses",
          "type": "address[]"
        },
        {
          "internalType": "uint256",
          "name": "_amount",
          "type": "uint256"
        }
      ],
      "name": "periodicAirdrops",
      "outputs": [],
      "stateMutability": "nonpayable",
      "type": "function"
    },
    {
      "inputs": [
        {
          "internalType": "address",
          "name": "_contributor",
          "type": "address"
        },
        {
          "internalType": "uint256",
          "name": "_rewardAmount",
          "type": "uint256"
        }
      ],
      "name": "processCommunityRewards",
      "outputs": [],
      "stateMutability": "nonpayable",
      "type": "function"
    },
    {
      "inputs": [
        {
          "internalType": "address",
          "name": "reviewer",
          "type": "address"
        }
      ],
      "name": "removeReviewer",
      "outputs": [],
      "stateMutability": "nonpayable",
      "type": "function"
    },
    {
      "inputs": [
        {
          "internalType": "bytes32",
          "name": "role",
          "type": "bytes32"
        },
        {
          "internalType": "address",
          "name": "callerConfirmation",
          "type": "address"
        }
      ],
      "name": "renounceRole",
      "outputs": [],
      "stateMutability": "nonpayable",
      "type": "function"
    },
    {
      "inputs": [
        {
          "internalType": "uint256",
          "name": "",
          "type": "uint256"
        }
      ],
      "name": "reviewerPool",
      "outputs": [
        {
          "internalType": "address",
          "name": "",
          "type": "address"
        }
      ],
      "stateMutability": "view",
      "type": "function"
    },
    {
      "inputs": [
        {
          "internalType": "bytes32",
          "name": "role",
          "type": "bytes32"
        },
        {
          "internalType": "address",
          "name": "account",
          "type": "address"
        }
      ],
      "name": "revokeRole",
      "outputs": [],
      "stateMutability": "nonpayable",
      "type": "function"
    },
    {
      "inputs": [
        {
          "internalType": "bytes4",
          "name": "interfaceId",
          "type": "bytes4"
        }
      ],
      "name": "supportsInterface",
      "outputs": [
        {
          "internalType": "bool",
          "name": "",
          "type": "bool"
        }
      ],
      "stateMutability": "view",
      "type": "function"
    },
    {
      "inputs": [],
      "name": "symbol",
      "outputs": [
        {
          "internalType": "string",
          "name": "",
          "type": "string"
        }
      ],
      "stateMutability": "view",
      "type": "function"
    },
    {
      "inputs": [],
      "name": "totalSupply",
      "outputs": [
        {
          "internalType": "uint256",
          "name": "",
          "type": "uint256"
        }
      ],
      "stateMutability": "view",
      "type": "function"
    },
    {
      "inputs": [
        {
          "internalType": "address",
          "name": "to",
          "type": "address"
        },
        {
          "internalType": "uint256",
          "name": "value",
          "type": "uint256"
        }
      ],
      "name": "transfer",
      "outputs": [
        {
          "internalType": "bool",
          "name": "",
          "type": "bool"
        }
      ],
      "stateMutability": "nonpayable",
      "type": "function"
    },
    {
      "inputs": [
        {
          "internalType": "address",
          "name": "from",
          "type": "address"
        },
        {
          "internalType": "address",
          "name": "to",
          "type": "address"
        },
        {
          "internalType": "uint256",
          "name": "value",
          "type": "uint256"
        }
      ],
      "name": "transferFrom",
      "outputs": [
        {
          "internalType": "bool",
          "name": "",
          "type": "bool"
        }
      ],
      "stateMutability": "nonpayable",
      "type": "function"
    },
    {
      "inputs": [
        {
          "internalType": "address",
          "name": "_projectAddress",
          "type": "address"
        },
        {
          "internalType": "uint256",
          "name": "_amount",
          "type": "uint256"
        }
      ],
      "name": "transferFunds",
      "outputs": [],
      "stateMutability": "nonpayable",
      "type": "function"
    }
  ],
  "bytecode": "0x608060405234801561001057600080fd5b5060405161694b38038061694b83398181016040528101906100329190610b4d565b806040518060400160405280600a81526020017f4142594120544f4b454e000000000000000000000000000000000000000000008152506040518060400160405280600681526020017f414259544b4e000000000000000000000000000000000000000000000000000081525081600390816100ae9190610db7565b5080600490816100be9190610db7565b505050600160068190555060048151101561010e576040517f08c379a000000000000000000000000000000000000000000000000000000000815260040161010590610f0c565b60405180910390fd5b6101216000801b3361081160201b60201c565b506101527fdf1425bae297c2f52b4f15d18a50b1fc8cb5b981a981b1d213ed3ff92681b64d3361081160201b60201c565b5060005b81518110156102a6576101a97fc10c77be35aff266144ed64c26a1fa104bae2f284ae99ac4a34203454704a18583838151811061019657610195610f2c565b5b602002602001015161081160201b60201c565b5060078282815181106101bf576101be610f2c565b5b60200260200101519080600181540180825580915050600190039060005260206000200160009091909190916101000a81548173ffffffffffffffffffffffffffffffffffffffff021916908373ffffffffffffffffffffffffffffffffffffffff1602179055506001600960008484815181106102405761023f610f2c565b5b602002602001015173ffffffffffffffffffffffffffffffffffffffff1673ffffffffffffffffffffffffffffffffffffffff16815260200190815260200160002060006101000a81548160ff0219169083151502179055508080600101915050610156565b505060405180606001604052806040518060400160405280600881526020017f4e6577636f6d657200000000000000000000000000000000000000000000000081525081526020016040518060400160405280601a81526020017f697066733a2f2f6e6577636f6d65722d62616467652d69636f6e00000000000081525081526020016000815250600c600080600481111561034557610344610f5b565b5b600481111561035757610356610f5b565b5b8152602001908152602001600020600082015181600001908161037a9190610db7565b5060208201518160010190816103909190610db7565b506040820151816002015590505060405180606001604052806040518060400160405280600b81526020017f5061727469636970616e7400000000000000000000000000000000000000000081525081526020016040518060400160405280601d81526020017f697066733a2f2f7061727469636970616e742d62616467652d69636f6e0000008152508152602001670de0b6b3a7640000815250600c60006001600481111561044357610442610f5b565b5b600481111561045557610454610f5b565b5b815260200190815260200160002060008201518160000190816104789190610db7565b50602082015181600101908161048e9190610db7565b506040820151816002015590505060405180606001604052806040518060400160405280600b81526020017f436f6e7472696275746f7200000000000000000000000000000000000000000081525081526020016040518060400160405280601d81526020017f697066733a2f2f636f6e7472696275746f722d62616467652d69636f6e0000008152508152602001671bc16d674ec80000815250600c60006002600481111561054157610540610f5b565b5b600481111561055357610552610f5b565b5b815260200190815260200160002060008201518160000190816105769190610db7565b50602082015181600101908161058c9190610db7565b506040820151816002015590505060405180606001604052806040518060400160405280600681526020017f4c6561646572000000000000000000000000000000000000000000000000000081525081526020016040518060400160405280601881526020017f697066733a2f2f6c65616465722d62616467652d69636f6e000000000000000081525081526020016729a2241af62c0000815250600c60006003600481111561063f5761063e610f5b565b5b600481111561065157610650610f5b565b5b815260200190815260200160002060008201518160000190816106749190610db7565b50602082015181600101908161068a9190610db7565b506040820151816002015590505060405180606001604052806040518060400160405280600881526020017f4368616d70696f6e00000000000000000000000000000000000000000000000081525081526020016040518060400160405280601a81526020017f697066733a2f2f6368616d70696f6e2d62616467652d69636f6e0000000000008152508152602001673782dace9d900000815250600c600060048081111561073c5761073b610f5b565b5b600481111561074e5761074d610f5b565b5b815260200190815260200160002060008201518160000190816107719190610db7565b5060208201518160010190816107879190610db7565b50604082015181600201559050506107a86000801b3361081160201b60201c565b506107d97fc295d8a2f69016465f61012796a38346423f02058e9c426f8bc1d946bc8c84703361081160201b60201c565b5061080a7fdf1425bae297c2f52b4f15d18a50b1fc8cb5b981a981b1d213ed3ff92681b64d3361081160201b60201c565b5050610f8a565b6000610823838361090f60201b60201c565b6109045760016005600085815260200190815260200160002060000160008473ffffffffffffffffffffffffffffffffffffffff1673ffffffffffffffffffffffffffffffffffffffff16815260200190815260200160002060006101000a81548160ff0219169083151502179055506108a161097a60201b60201c565b73ffffffffffffffffffffffffffffffffffffffff168273ffffffffffffffffffffffffffffffffffffffff16847f2f8788117e7eff1d82e926ec794901d17c78024a50270940304540a733656f0d60405160405180910390a460019050610909565b600090505b92915050565b60006005600084815260200190815260200160002060000160008373ffffffffffffffffffffffffffffffffffffffff1673ffffffffffffffffffffffffffffffffffffffff16815260200190815260200160002060009054906101000a900460ff16905092915050565b600033905090565b6000604051905090565b600080fd5b600080fd5b600080fd5b6000601f19601f8301169050919050565b7f4e487b7100000000000000000000000000000000000000000000000000000000600052604160045260246000fd5b6109e48261099b565b810181811067ffffffffffffffff82111715610a0357610a026109ac565b5b80604052505050565b6000610a16610982565b9050610a2282826109db565b919050565b600067ffffffffffffffff821115610a4257610a416109ac565b5b602082029050602081019050919050565b600080fd5b600073ffffffffffffffffffffffffffffffffffffffff82169050919050565b6000610a8382610a58565b9050919050565b610a9381610a78565b8114610a9e57600080fd5b50565b600081519050610ab081610a8a565b92915050565b6000610ac9610ac484610a27565b610a0c565b90508083825260208201905060208402830185811115610aec57610aeb610a53565b5b835b81811015610b155780610b018882610aa1565b845260208401935050602081019050610aee565b5050509392505050565b600082601f830112610b3457610b33610996565b5b8151610b44848260208601610ab6565b91505092915050565b600060208284031215610b6357610b6261098c565b5b600082015167ffffffffffffffff811115610b8157610b80610991565b5b610b8d84828501610b1f565b91505092915050565b600081519050919050565b7f4e487b7100000000000000000000000000000000000000000000000000000000600052602260045260246000fd5b60006002820490506001821680610be857607f821691505b602082108103610bfb57610bfa610ba1565b5b50919050565b60008190508160005260206000209050919050565b60006020601f8301049050919050565b600082821b905092915050565b600060088302610c637fffffffffffffffffffffffffffffffffffffffffffffffffffffffffffffffff82610c26565b610c6d8683610c26565b95508019841693508086168417925050509392505050565b6000819050919050565b6000819050919050565b6000610cb4610caf610caa84610c85565b610c8f565b610c85565b9050919050565b6000819050919050565b610cce83610c99565b610ce2610cda82610cbb565b848454610c33565b825550505050565b600090565b610cf7610cea565b610d02818484610cc5565b505050565b5b81811015610d2657610d1b600082610cef565b600181019050610d08565b5050565b601f821115610d6b57610d3c81610c01565b610d4584610c16565b81016020851015610d54578190505b610d68610d6085610c16565b830182610d07565b50505b505050565b600082821c905092915050565b6000610d8e60001984600802610d70565b1980831691505092915050565b6000610da78383610d7d565b9150826002028217905092915050565b610dc082610b96565b67ffffffffffffffff811115610dd957610dd86109ac565b5b610de38254610bd0565b610dee828285610d2a565b600060209050601f831160018114610e215760008415610e0f578287015190505b610e198582610d9b565b865550610e81565b601f198416610e2f86610c01565b60005b82811015610e5757848901518255600182019150602085019450602081019050610e32565b86831015610e745784890151610e70601f891682610d7d565b8355505b6001600288020188555050505b505050505050565b600082825260208201905092915050565b7f4174206c6561737420342072657669657765727320617265207265717569726560008201527f6400000000000000000000000000000000000000000000000000000000000000602082015250565b6000610ef6602183610e89565b9150610f0182610e9a565b604082019050919050565b60006020820190508181036000830152610f2581610ee9565b9050919050565b7f4e487b7100000000000000000000000000000000000000000000000000000000600052603260045260246000fd5b7f4e487b7100000000000000000000000000000000000000000000000000000000600052602160045260246000fd5b6159b280610f996000396000f3fe608060405234801561001057600080fd5b50600436106103785760003560e01c80637025aac6116101d3578063bad0dd6511610104578063d7b999c7116100a2578063fba2e3101161007c578063fba2e31014610af7578063fd55dd9214610b27578063fdc6258a14610b45578063ff4d712814610b7557610378565b8063d7b999c714610a8d578063dd62ed3e14610aab578063fad2c5f214610adb57610378565b8063c9442dac116100de578063c9442dac14610a07578063ca98e49e14610a23578063d171d04914610a53578063d547741f14610a7157610378565b8063bad0dd651461099d578063bfa05361146109b9578063c491b04c146109d757610378565b806391d1485411610171578063a217fddf1161014b578063a217fddf14610913578063a9059cbb14610931578063aeb47e2a14610961578063b51934251461097f57610378565b806391d14854146108a957806395d89b41146108d9578063990dc9db146108f757610378565b806373a82b5f116101ad57806373a82b5f1461080f5780637ac669221461082b5780638c95aef914610847578063914e72a61461087957610378565b80637025aac61461077957806370a08231146107ab5780637125a07b146107db57610378565b80632f2ff15d116102ad57806340932bf81161024b57806352994e2f1161022557806352994e2f146106e85780635fc610011461070657806361ac05e21461073d57806361ac7e611461075b57610378565b806340932bf81461068d5780634e860496146106c257806350447e5e146106de57610378565b8063354c4e1311610287578063354c4e13146105f357806336568abe146106235780633af0c6881461063f5780633b129a561461066f57610378565b80632f2ff15d1461059b578063313ce567146105b757806332cb6b0c146105d557610378565b806318160ddd1161031a5780631e3edfd9116102f45780631e3edfd9146104ed57806323b872dd1461050b578063248a9ca31461053b5780632899df2b1461056b57610378565b806318160ddd1461048357806318a8c3f2146104a157806319f102ec146104bd57610378565b8063095ea7b311610356578063095ea7b3146103fb5780630ed1d5cb1461042b5780630fb6d46a1461044957806315f42df41461046757610378565b806301ffc9a71461037d5780630374ab0b146103ad57806306fdde03146103dd575b600080fd5b61039760048036038101906103929190613cac565b610b91565b6040516103a49190613cf4565b60405180910390f35b6103c760048036038101906103c29190613e8b565b610c0b565b6040516103d49190613f1d565b60405180910390f35b6103e5610d47565b6040516103f29190613fb7565b60405180910390f35b61041560048036038101906104109190614037565b610dd9565b6040516104229190613cf4565b60405180910390f35b610433610dfc565b6040516104409190613f1d565b60405180910390f35b610451610e01565b60405161045e9190613f1d565b60405180910390f35b610481600480360381019061047c919061413f565b610e06565b005b61048b610e49565b6040516104989190613f1d565b60405180910390f35b6104bb60048036038101906104b6919061413f565b610e53565b005b6104d760048036038101906104d2919061419b565b610f66565b6040516104e491906141d7565b60405180910390f35b6104f5610fa5565b6040516105029190613f1d565b60405180910390f35b610525600480360381019061052091906141f2565b610fb1565b6040516105329190613cf4565b60405180910390f35b6105556004803603810190610550919061427b565b610fe0565b60405161056291906142b7565b60405180910390f35b610585600480360381019061058091906142f7565b611000565b60405161059291906143d4565b60405180910390f35b6105b560048036038101906105b091906143f6565b61117f565b005b6105bf6111a1565b6040516105cc9190614452565b60405180910390f35b6105dd6111aa565b6040516105ea9190613f1d565b60405180910390f35b61060d6004803603810190610608919061446d565b6111ba565b60405161061a9190613cf4565b60405180910390f35b61063d600480360381019061063891906143f6565b611326565b005b610659600480360381019061065491906144c9565b6113a1565b6040516106669190613cf4565b60405180910390f35b610677611422565b60405161068491906142b7565b60405180910390f35b6106a760048036038101906106a2919061419b565b611446565b6040516106b99695949392919061455e565b60405180910390f35b6106dc60048036038101906106d7919061419b565b611557565b005b6106e66116e2565b005b6106f061174b565b6040516106fd91906142b7565b60405180910390f35b610720600480360381019061071b919061419b565b61176f565b6040516107349897969594939291906145c6565b60405180910390f35b61074561186c565b6040516107529190613f1d565b60405180910390f35b6107636118ac565b60405161077091906142b7565b60405180910390f35b610793600480360381019061078e91906142f7565b6118d0565b6040516107a29392919061464b565b60405180910390f35b6107c560048036038101906107c09190614690565b611a0a565b6040516107d29190613f1d565b60405180910390f35b6107f560048036038101906107f09190614690565b611a52565b604051610806959493929190614734565b60405180910390f35b61082960048036038101906108249190614690565b611c52565b005b61084560048036038101906108409190614037565b611e36565b005b610861600480360381019061085c9190614690565b612077565b60405161087093929190614795565b60405180910390f35b610893600480360381019061088e9190614690565b6120ae565b6040516108a09190613f1d565b60405180910390f35b6108c360048036038101906108be91906143f6565b6120fa565b6040516108d09190613cf4565b60405180910390f35b6108e1612165565b6040516108ee9190613fb7565b60405180910390f35b610911600480360381019061090c9190614037565b6121f7565b005b61091b612311565b60405161092891906142b7565b60405180910390f35b61094b60048036038101906109469190614037565b612318565b6040516109589190613cf4565b60405180910390f35b61096961233b565b6040516109769190613f1d565b60405180910390f35b610987612363565b6040516109949190613f1d565b60405180910390f35b6109b760048036038101906109b2919061419b565b612368565b005b6109c1612667565b6040516109ce9190613f1d565b60405180910390f35b6109f160048036038101906109ec9190614690565b61266c565b6040516109fe9190613cf4565b60405180910390f35b610a216004803603810190610a1c9190614690565b61268c565b005b610a3d6004803603810190610a389190614690565b612976565b604051610a4a91906147cc565b60405180910390f35b610a5b6129cf565b604051610a689190613f1d565b60405180910390f35b610a8b6004803603810190610a8691906143f6565b6129d5565b005b610a956129f7565b604051610aa29190613f1d565b60405180910390f35b610ac56004803603810190610ac091906147e7565b6129fd565b604051610ad29190613f1d565b60405180910390f35b610af56004803603810190610af09190614037565b612a84565b005b610b116004803603810190610b0c9190614690565b612b57565b604051610b1e9190613f1d565b60405180910390f35b610b2f612b6f565b604051610b3c91906147cc565b60405180910390f35b610b5f6004803603810190610b5a9190614690565b612b7f565b604051610b6c9190613cf4565b60405180910390f35b610b8f6004803603810190610b8a919061446d565b612bb2565b005b60007f7965db0b000000000000000000000000000000000000000000000000000000007bffffffffffffffffffffffffffffffffffffffffffffffffffffffff1916827bffffffffffffffffffffffffffffffffffffffffffffffffffffffff19161480610c045750610c0382612c2e565b5b9050919050565b60007fc295d8a2f69016465f61012796a38346423f02058e9c426f8bc1d946bc8c8470610c3781612c98565b600060116000815480929190610c4c90614856565b9190505590506000600f6000838152602001908152602001600020905081816000018190555087816001019081610c839190614aaa565b50338160020160006101000a81548173ffffffffffffffffffffffffffffffffffffffff021916908373ffffffffffffffffffffffffffffffffffffffff16021790555086816003018190555085816004018190555084816005018190555060018160070160006101000a81548160ff021916908315150217905550817f40fb05b814a900c99fa0a76d919dfdeaf3389540e4ca70f97ba40ca9a38f37978933604051610d31929190614b7c565b60405180910390a2819350505050949350505050565b606060038054610d56906148cd565b80601f0160208091040260200160405190810160405280929190818152602001828054610d82906148cd565b8015610dcf5780601f10610da457610100808354040283529160200191610dcf565b820191906000526020600020905b815481529060010190602001808311610db257829003601f168201915b5050505050905090565b600080610de4612cac565b9050610df1818585612cb4565b600191505092915050565b600381565b600181565b60005b8251811015610e4457610e36838281518110610e2857610e27614bac565b5b602002602001015183612cc6565b508080600101915050610e09565b505050565b6000600254905090565b7fc295d8a2f69016465f61012796a38346423f02058e9c426f8bc1d946bc8c8470610e7d81612c98565b6000835111610ec1576040517f08c379a0000000000000000000000000000000000000000000000000000000008152600401610eb890614c27565b60405180910390fd5b60008383604051602401610ed6929190614d05565b6040516020818303038152906040527f15f42df4000000000000000000000000000000000000000000000000000000007bffffffffffffffffffffffffffffffffffffffffffffffffffffffff19166020820180517bffffffffffffffffffffffffffffffffffffffffffffffffffffffff83818316178352505050509050610f5f3082612e22565b5050505050565b60078181548110610f7657600080fd5b906000526020600020016000915054906101000a900473ffffffffffffffffffffffffffffffffffffffff1681565b6729a2241af62c000081565b600080610fbc612cac565b9050610fc9858285613011565b610fd48585856130a6565b60019150509392505050565b600060056000838152602001908152602001600020600101549050919050565b611008613c1f565b600c600083600481111561101f5761101e6146bd565b5b6004811115611031576110306146bd565b5b815260200190815260200160002060405180606001604052908160008201805461105a906148cd565b80601f0160208091040260200160405190810160405280929190818152602001828054611086906148cd565b80156110d35780601f106110a8576101008083540402835291602001916110d3565b820191906000526020600020905b8154815290600101906020018083116110b657829003601f168201915b505050505081526020016001820180546110ec906148cd565b80601f0160208091040260200160405190810160405280929190818152602001828054611118906148cd565b80156111655780601f1061113a57610100808354040283529160200191611165565b820191906000526020600020905b81548152906001019060200180831161114857829003601f168201915b505050505081526020016002820154815250509050919050565b61118882610fe0565b61119181612c98565b61119b838361319a565b50505050565b60006012905090565b6b204fce5e3e2502611000000081565b60007fc295d8a2f69016465f61012796a38346423f02058e9c426f8bc1d946bc8c84706111e681612c98565b60026064600a6b204fce5e3e250261100000006112039190614d35565b61120d9190614da6565b6112179190614da6565b61121f61328c565b85855161122c9190614d35565b6112369190614dd7565b1115611277576040517f08c379a000000000000000000000000000000000000000000000000000000000815260040161126e90614e57565b60405180910390fd5b6000848460405160240161128c929190614e77565b6040516020818303038152906040527fff4d7128000000000000000000000000000000000000000000000000000000007bffffffffffffffffffffffffffffffffffffffffffffffffffffffff19166020820180517bffffffffffffffffffffffffffffffffffffffffffffffffffffffff8381831617835250505050905060006113173083612e22565b90506001935050505092915050565b61132e612cac565b73ffffffffffffffffffffffffffffffffffffffff168173ffffffffffffffffffffffffffffffffffffffff1614611392576040517f6697b23200000000000000000000000000000000000000000000000000000000815260040160405180910390fd5b61139c8282613296565b505050565b60008160048111156113b6576113b56146bd565b5b600b60008573ffffffffffffffffffffffffffffffffffffffff1673ffffffffffffffffffffffffffffffffffffffff16815260200190815260200160002060020160009054906101000a900460ff166004811115611418576114176146bd565b5b1015905092915050565b7fc10c77be35aff266144ed64c26a1fa104bae2f284ae99ac4a34203454704a18581565b600a6020528060005260406000206000915090508060000154908060010160009054906101000a900473ffffffffffffffffffffffffffffffffffffffff16908060020160009054906101000a900473ffffffffffffffffffffffffffffffffffffffff16908060030180546114bb906148cd565b80601f01602080910402602001604051908101604052809291908181526020018280546114e7906148cd565b80156115345780601f1061150957610100808354040283529160200191611534565b820191906000526020600020905b81548152906001019060200180831161151757829003601f168201915b5050505050908060040154908060050160009054906101000a900460ff16905086565b61155f613389565b6000600f600083815260200190815260200160002090508060070160009054906101000a900460ff166115c7576040517f08c379a00000000000000000000000000000000000000000000000000000000081526004016115be90614ef3565b60405180910390fd5b806003015442101580156115df575080600401544211155b61161e576040517f08c379a000000000000000000000000000000000000000000000000000000000815260040161161590614f5f565b60405180910390fd5b8060050154816006015410611668576040517f08c379a000000000000000000000000000000000000000000000000000000000815260040161165f90614fcb565b60405180910390fd5b80600601600081548092919061167d90614856565b919050555061168b336133cf565b61169d336729a2241af62c0000612cc6565b50817f1f74d05223b014a6b1d3023900443d2b2a4a803f39310427d60b87fc476dac03336040516116ce91906141d7565b60405180910390a2506116df61348c565b50565b6000600b60003373ffffffffffffffffffffffffffffffffffffffff1673ffffffffffffffffffffffffffffffffffffffff1681526020019081526020016000209050600061173033613496565b90506000811115611747576117453382612cc6565b505b5050565b7fdf1425bae297c2f52b4f15d18a50b1fc8cb5b981a981b1d213ed3ff92681b64d81565b600f602052806000526040600020600091509050806000015490806001018054611798906148cd565b80601f01602080910402602001604051908101604052809291908181526020018280546117c4906148cd565b80156118115780601f106117e657610100808354040283529160200191611811565b820191906000526020600020905b8154815290600101906020018083116117f457829003601f168201915b5050505050908060020160009054906101000a900473ffffffffffffffffffffffffffffffffffffffff16908060030154908060040154908060050154908060060154908060070160009054906101000a900460ff16905088565b606460056064600a6b204fce5e3e2502611000000061188b9190614d35565b6118959190614da6565b61189f9190614d35565b6118a99190614da6565b81565b7fc295d8a2f69016465f61012796a38346423f02058e9c426f8bc1d946bc8c847081565b600c6020528060005260406000206000915090508060000180546118f3906148cd565b80601f016020809104026020016040519081016040528092919081815260200182805461191f906148cd565b801561196c5780601f106119415761010080835404028352916020019161196c565b820191906000526020600020905b81548152906001019060200180831161194f57829003601f168201915b505050505090806001018054611981906148cd565b80601f01602080910402602001604051908101604052809291908181526020018280546119ad906148cd565b80156119fa5780601f106119cf576101008083540402835291602001916119fa565b820191906000526020600020905b8154815290600101906020018083116119dd57829003601f168201915b5050505050908060020154905083565b60008060008373ffffffffffffffffffffffffffffffffffffffff1673ffffffffffffffffffffffffffffffffffffffff168152602001908152602001600020549050919050565b60006060806000806000600b60008873ffffffffffffffffffffffffffffffffffffffff1673ffffffffffffffffffffffffffffffffffffffff168152602001908152602001600020905060008160020160009054906101000a900460ff1690506000600c6000836004811115611acc57611acb6146bd565b5b6004811115611ade57611add6146bd565b5b8152602001908152602001600020604051806060016040529081600082018054611b07906148cd565b80601f0160208091040260200160405190810160405280929190818152602001828054611b33906148cd565b8015611b805780601f10611b5557610100808354040283529160200191611b80565b820191906000526020600020905b815481529060010190602001808311611b6357829003601f168201915b50505050508152602001600182018054611b99906148cd565b80601f0160208091040260200160405190810160405280929190818152602001828054611bc5906148cd565b8015611c125780601f10611be757610100808354040283529160200191611c12565b820191906000526020600020905b815481529060010190602001808311611bf557829003601f168201915b5050505050815260200160028201548152505090508181600001518260200151836040015186600001549750975097509750975050505091939590929450565b7fc10c77be35aff266144ed64c26a1fa104bae2f284ae99ac4a34203454704a185611c7c81612c98565b600960008373ffffffffffffffffffffffffffffffffffffffff1673ffffffffffffffffffffffffffffffffffffffff16815260200190815260200160002060009054906101000a900460ff1615611d09576040517f08c379a0000000000000000000000000000000000000000000000000000000008152600401611d0090615037565b60405180910390fd5b611d337fc10c77be35aff266144ed64c26a1fa104bae2f284ae99ac4a34203454704a1858361319a565b506007829080600181540180825580915050600190039060005260206000200160009091909190916101000a81548173ffffffffffffffffffffffffffffffffffffffff021916908373ffffffffffffffffffffffffffffffffffffffff1602179055506001600960008473ffffffffffffffffffffffffffffffffffffffff1673ffffffffffffffffffffffffffffffffffffffff16815260200190815260200160002060006101000a81548160ff0219169083151502179055508173ffffffffffffffffffffffffffffffffffffffff167fe1cb5e1230cc02e62c60b81c1aa5ade512f3eac296edb28628b4cf344f47f93160405160405180910390a25050565b7fc295d8a2f69016465f61012796a38346423f02058e9c426f8bc1d946bc8c8470611e6081612c98565b606460056064600a6b204fce5e3e25026110000000611e7f9190614d35565b611e899190614da6565b611e939190614d35565b611e9d9190614da6565b821115611edf576040517f08c379a0000000000000000000000000000000000000000000000000000000008152600401611ed6906150a3565b60405180910390fd5b606460056064600a6b204fce5e3e25026110000000611efe9190614d35565b611f089190614da6565b611f129190614d35565b611f1c9190614da6565b82600e54611f2a9190614dd7565b1115611f6b576040517f08c379a0000000000000000000000000000000000000000000000000000000008152600401611f6290615135565b60405180910390fd5b60008383604051602401611f80929190615155565b6040516020818303038152906040527f990dc9db000000000000000000000000000000000000000000000000000000007bffffffffffffffffffffffffffffffffffffffffffffffffffffffff19166020820180517bffffffffffffffffffffffffffffffffffffffffffffffffffffffff838183161783525050505090506120093082612e22565b5082600e600082825461201c9190614dd7565b925050819055508373ffffffffffffffffffffffffffffffffffffffff167fe15b96646136ede2ea2abfc9baa96fbbab0c3d44e1750c3defc005a4492a691b846040516120699190613f1d565b60405180910390a250505050565b600b6020528060005260406000206000915090508060000154908060010154908060020160009054906101000a900460ff16905083565b6000600b60008373ffffffffffffffffffffffffffffffffffffffff1673ffffffffffffffffffffffffffffffffffffffff168152602001908152602001600020600001549050919050565b60006005600084815260200190815260200160002060000160008373ffffffffffffffffffffffffffffffffffffffff1673ffffffffffffffffffffffffffffffffffffffff16815260200190815260200160002060009054906101000a900460ff16905092915050565b606060048054612174906148cd565b80601f01602080910402602001604051908101604052809291908181526020018280546121a0906148cd565b80156121ed5780601f106121c2576101008083540402835291602001916121ed565b820191906000526020600020905b8154815290600101906020018083116121d057829003601f168201915b5050505050905090565b6122217fc295d8a2f69016465f61012796a38346423f02058e9c426f8bc1d946bc8c8470336120fa565b612260576040517f08c379a0000000000000000000000000000000000000000000000000000000008152600401612257906151ca565b60405180910390fd5b60008273ffffffffffffffffffffffffffffffffffffffff16826040516122869061521b565b60006040518083038185875af1925050503d80600081146122c3576040519150601f19603f3d011682016040523d82523d6000602084013e6122c8565b606091505b505090508061230c576040517f08c379a00000000000000000000000000000000000000000000000000000000081526004016123039061527c565b60405180910390fd5b505050565b6000801b81565b600080612323612cac565b90506123308185856130a6565b600191505092915050565b6064600a6b204fce5e3e250261100000006123569190614d35565b6123609190614da6565b81565b600581565b7fdf1425bae297c2f52b4f15d18a50b1fc8cb5b981a981b1d213ed3ff92681b64d61239281612c98565b6000600a600084815260200190815260200160002090508060050160009054906101000a900460ff16156123fb576040517f08c379a00000000000000000000000000000000000000000000000000000000081526004016123f2906152e8565b60405180910390fd5b8060060160003373ffffffffffffffffffffffffffffffffffffffff1673ffffffffffffffffffffffffffffffffffffffff16815260200190815260200160002060009054906101000a900460ff161561248a576040517f08c379a000000000000000000000000000000000000000000000000000000000815260040161248190615354565b60405180910390fd5b60018160060160003373ffffffffffffffffffffffffffffffffffffffff1673ffffffffffffffffffffffffffffffffffffffff16815260200190815260200160002060006101000a81548160ff0219169083151502179055508060040160008154809291906124f990614856565b9190505550827f5d4ccf5f92566d140246f4ae3b9cb35dc06fff109a7748602ad77f6260fd9a613360405161252e91906141d7565b60405180910390a260038160040154106126625760008160020160009054906101000a900473ffffffffffffffffffffffffffffffffffffffff1673ffffffffffffffffffffffffffffffffffffffff1682600301604051612590919061540c565b6000604051808303816000865af19150503d80600081146125cd576040519150601f19603f3d011682016040523d82523d6000602084013e6125d2565b606091505b5050905080612616576040517f08c379a000000000000000000000000000000000000000000000000000000000815260040161260d9061546f565b60405180910390fd5b60018260050160006101000a81548160ff021916908315150217905550837f7770356c29230b95943aec59d47ead11eb426a728bf5b57f7fd8597f3c0e29ba60405160405180910390a2505b505050565b600a81565b60096020528060005260406000206000915054906101000a900460ff1681565b6000801b61269981612c98565b600960008373ffffffffffffffffffffffffffffffffffffffff1673ffffffffffffffffffffffffffffffffffffffff16815260200190815260200160002060009054906101000a900460ff16612725576040517f08c379a000000000000000000000000000000000000000000000000000000000815260040161271c906154db565b60405180910390fd5b60005b6007805490508110156128ab578273ffffffffffffffffffffffffffffffffffffffff16600782815481106127605761275f614bac565b5b9060005260206000200160009054906101000a900473ffffffffffffffffffffffffffffffffffffffff1673ffffffffffffffffffffffffffffffffffffffff160361289e57600760016007805490506127ba91906154fb565b815481106127cb576127ca614bac565b5b9060005260206000200160009054906101000a900473ffffffffffffffffffffffffffffffffffffffff166007828154811061280a57612809614bac565b5b9060005260206000200160006101000a81548173ffffffffffffffffffffffffffffffffffffffff021916908373ffffffffffffffffffffffffffffffffffffffff16021790555060078054806128645761286361552f565b5b6001900381819060005260206000200160006101000a81549073ffffffffffffffffffffffffffffffffffffffff021916905590556128ab565b8080600101915050612728565b506000600960008473ffffffffffffffffffffffffffffffffffffffff1673ffffffffffffffffffffffffffffffffffffffff16815260200190815260200160002060006101000a81548160ff02191690831515021790555061292e7fc10c77be35aff266144ed64c26a1fa104bae2f284ae99ac4a34203454704a18583613296565b508173ffffffffffffffffffffffffffffffffffffffff167f55dba9d79522b91b615629d5f3b10c2fad2d258f1768614f4a52e937ada0d0ba60405160405180910390a25050565b6000600b60008373ffffffffffffffffffffffffffffffffffffffff1673ffffffffffffffffffffffffffffffffffffffff16815260200190815260200160002060020160009054906101000a900460ff169050919050565b600d5481565b6129de82610fe0565b6129e781612c98565b6129f18383613296565b50505050565b600e5481565b6000600160008473ffffffffffffffffffffffffffffffffffffffff1673ffffffffffffffffffffffffffffffffffffffff16815260200190815260200160002060008373ffffffffffffffffffffffffffffffffffffffff1673ffffffffffffffffffffffffffffffffffffffff16815260200190815260200160002054905092915050565b7fc295d8a2f69016465f61012796a38346423f02058e9c426f8bc1d946bc8c8470612aae81612c98565b60008211612af1576040517f08c379a0000000000000000000000000000000000000000000000000000000008152600401612ae8906155aa565b60405180910390fd5b612afb8383612cc6565b5081601060008573ffffffffffffffffffffffffffffffffffffffff1673ffffffffffffffffffffffffffffffffffffffff1681526020019081526020016000206000828254612b4b9190614dd7565b92505081905550505050565b60106020528060005260406000206000915090505481565b6000612b7a33612976565b905090565b6000612bab7fc10c77be35aff266144ed64c26a1fa104bae2f284ae99ac4a34203454704a185836120fa565b9050919050565b60005b8151811015612bf057612be2828281518110612bd457612bd3614bac565b5b602002602001015184612cc6565b508080600101915050612bb5565b50817fb88d01f589e949ad7233aadbcfbadcca2b7f247555fa6423bc3d5d2563bd15638251604051612c229190613f1d565b60405180910390a25050565b60007f01ffc9a7000000000000000000000000000000000000000000000000000000007bffffffffffffffffffffffffffffffffffffffffffffffffffffffff1916827bffffffffffffffffffffffffffffffffffffffffffffffffffffffff1916149050919050565b612ca981612ca4612cac565b613695565b50565b600033905090565b612cc183838360016136e6565b505050565b60006064600a6b204fce5e3e25026110000000612ce39190614d35565b612ced9190614da6565b612cf561328c565b83612d009190614dd7565b1115612d41576040517f08c379a0000000000000000000000000000000000000000000000000000000008152600401612d389061563c565b60405180910390fd5b600073ffffffffffffffffffffffffffffffffffffffff168373ffffffffffffffffffffffffffffffffffffffff1603612db0576040517f08c379a0000000000000000000000000000000000000000000000000000000008152600401612da7906156ce565b60405180910390fd5b612dba83836138bd565b5081600d6000828254612dcd9190614dd7565b92505081905550818373ffffffffffffffffffffffffffffffffffffffff167fffd50653ccb3020c797c5cba8c53bebb40e00eeb76593dedcf4a157b3ea6cb5160405160405180910390a36001905092915050565b60007fdf1425bae297c2f52b4f15d18a50b1fc8cb5b981a981b1d213ed3ff92681b64d612e4e81612c98565b7fc10c77be35aff266144ed64c26a1fa104bae2f284ae99ac4a34203454704a185612e7881612c98565b600060086000815480929190612e8d90614856565b9190505590506000600a60008381526020019081526020016000209050818160000181905550338160010160006101000a81548173ffffffffffffffffffffffffffffffffffffffff021916908373ffffffffffffffffffffffffffffffffffffffff160217905550868160020160006101000a81548173ffffffffffffffffffffffffffffffffffffffff021916908373ffffffffffffffffffffffffffffffffffffffff16021790555085816003019081612f4a9190615734565b506001816004018190555060008160050160006101000a81548160ff02191690831515021790555060018160060160003373ffffffffffffffffffffffffffffffffffffffff1673ffffffffffffffffffffffffffffffffffffffff16815260200190815260200160002060006101000a81548160ff021916908315150217905550817fbcc43907be1d435f496e2233697a9a9fead2fb5639dac8459c53d7114829b8be33604051612ffc91906141d7565b60405180910390a28194505050505092915050565b600061301d84846129fd565b90507fffffffffffffffffffffffffffffffffffffffffffffffffffffffffffffffff8110156130a05781811015613090578281836040517ffb8f41b200000000000000000000000000000000000000000000000000000000815260040161308793929190615806565b60405180910390fd5b61309f848484840360006136e6565b5b50505050565b600073ffffffffffffffffffffffffffffffffffffffff168373ffffffffffffffffffffffffffffffffffffffff16036131185760006040517f96c6fd1e00000000000000000000000000000000000000000000000000000000815260040161310f91906141d7565b60405180910390fd5b600073ffffffffffffffffffffffffffffffffffffffff168273ffffffffffffffffffffffffffffffffffffffff160361318a5760006040517fec442f0500000000000000000000000000000000000000000000000000000000815260040161318191906141d7565b60405180910390fd5b613195838383613978565b505050565b60006131a683836120fa565b6132815760016005600085815260200190815260200160002060000160008473ffffffffffffffffffffffffffffffffffffffff1673ffffffffffffffffffffffffffffffffffffffff16815260200190815260200160002060006101000a81548160ff02191690831515021790555061321e612cac565b73ffffffffffffffffffffffffffffffffffffffff168273ffffffffffffffffffffffffffffffffffffffff16847f2f8788117e7eff1d82e926ec794901d17c78024a50270940304540a733656f0d60405160405180910390a460019050613286565b600090505b92915050565b6000600d54905090565b60006132a283836120fa565b1561337e5760006005600085815260200190815260200160002060000160008473ffffffffffffffffffffffffffffffffffffffff1673ffffffffffffffffffffffffffffffffffffffff16815260200190815260200160002060006101000a81548160ff02191690831515021790555061331b612cac565b73ffffffffffffffffffffffffffffffffffffffff168273ffffffffffffffffffffffffffffffffffffffff16847ff6391f5c32d9c69d2a47ea670b442974b53935d1edc7fd64eb21e047a839171b60405160405180910390a460019050613383565b600090505b92915050565b6002600654036133c5576040517f3ee5aeb500000000000000000000000000000000000000000000000000000000815260040160405180910390fd5b6002600681905550565b6000600b60008373ffffffffffffffffffffffffffffffffffffffff1673ffffffffffffffffffffffffffffffffffffffff168152602001908152602001600020905080600001600081548092919061342790614856565b919050555061343582613496565b508173ffffffffffffffffffffffffffffffffffffffff167ff18beef583f71b01f816b888b2fb4012abc44a95618cbc737287866909e7abd782600001546040516134809190613f1d565b60405180910390a25050565b6001600681905550565b600080600b60008473ffffffffffffffffffffffffffffffffffffffff1673ffffffffffffffffffffffffffffffffffffffff168152602001908152602001600020905060008160020160009054906101000a900460ff1690506000600a836000015410613507576004905061354e565b600583600001541061351c576003905061354d565b6003836000015410613531576002905061354c565b6001836000015410613546576001905061354b565b600090505b5b5b5b816004811115613561576135606146bd565b5b816004811115613574576135736146bd565b5b1461368d57808360020160006101000a81548160ff021916908360048111156135a05761359f6146bd565b5b0217905550600c60008260048111156135bc576135bb6146bd565b5b60048111156135ce576135cd6146bd565b5b8152602001908152602001600020600201549350600085826040516020016135f79291906158bb565b604051602081830303815290604052805190602001209050600184600301600083815260200190815260200160002060006101000a81548160ff0219169083151502179055508573ffffffffffffffffffffffffffffffffffffffff167f285a0f2deff4dbdd3719bae595cb2c8b27a45f0814e4db2b1946ab8df9bc548b8360405161368391906147cc565b60405180910390a2505b505050919050565b61369f82826120fa565b6136e25780826040517fe2517d3f0000000000000000000000000000000000000000000000000000000081526004016136d99291906158e7565b60405180910390fd5b5050565b600073ffffffffffffffffffffffffffffffffffffffff168473ffffffffffffffffffffffffffffffffffffffff16036137585760006040517fe602df0500000000000000000000000000000000000000000000000000000000815260040161374f91906141d7565b60405180910390fd5b600073ffffffffffffffffffffffffffffffffffffffff168373ffffffffffffffffffffffffffffffffffffffff16036137ca5760006040517f94280d620000000000000000000000000000000000000000000000000000000081526004016137c191906141d7565b60405180910390fd5b81600160008673ffffffffffffffffffffffffffffffffffffffff1673ffffffffffffffffffffffffffffffffffffffff16815260200190815260200160002060008573ffffffffffffffffffffffffffffffffffffffff1673ffffffffffffffffffffffffffffffffffffffff1681526020019081526020016000208190555080156138b7578273ffffffffffffffffffffffffffffffffffffffff168473ffffffffffffffffffffffffffffffffffffffff167f8c5be1e5ebec7d5bd14f71427d1e84f3dd0314c0f7b2291e5b200ac8c7c3b925846040516138ae9190613f1d565b60405180910390a35b50505050565b60006b204fce5e3e250261100000006138d4610e49565b836138df9190614dd7565b1115613920576040517f08c379a00000000000000000000000000000000000000000000000000000000081526004016139179061595c565b60405180910390fd5b61392a8383613b9d565b818373ffffffffffffffffffffffffffffffffffffffff167fcda531bfd68624f13205c0a23cd4d5a7f09792cbb399603114f2b04aaa1bf5cf60405160405180910390a36001905092915050565b600073ffffffffffffffffffffffffffffffffffffffff168373ffffffffffffffffffffffffffffffffffffffff16036139ca5780600260008282546139be9190614dd7565b92505081905550613a9d565b60008060008573ffffffffffffffffffffffffffffffffffffffff1673ffffffffffffffffffffffffffffffffffffffff16815260200190815260200160002054905081811015613a56578381836040517fe450d38c000000000000000000000000000000000000000000000000000000008152600401613a4d93929190615806565b60405180910390fd5b8181036000808673ffffffffffffffffffffffffffffffffffffffff1673ffffffffffffffffffffffffffffffffffffffff16815260200190815260200160002081905550505b600073ffffffffffffffffffffffffffffffffffffffff168273ffffffffffffffffffffffffffffffffffffffff1603613ae65780600260008282540392505081905550613b33565b806000808473ffffffffffffffffffffffffffffffffffffffff1673ffffffffffffffffffffffffffffffffffffffff168152602001908152602001600020600082825401925050819055505b8173ffffffffffffffffffffffffffffffffffffffff168373ffffffffffffffffffffffffffffffffffffffff167fddf252ad1be2c89b69c2b068fc378daa952ba7f163c4a11628f55a4df523b3ef83604051613b909190613f1d565b60405180910390a3505050565b600073ffffffffffffffffffffffffffffffffffffffff168273ffffffffffffffffffffffffffffffffffffffff1603613c0f5760006040517fec442f05000000000000000000000000000000000000000000000000000000008152600401613c0691906141d7565b60405180910390fd5b613c1b60008383613978565b5050565b60405180606001604052806060815260200160608152602001600081525090565b6000604051905090565b600080fd5b600080fd5b60007fffffffff0000000000000000000000000000000000000000000000000000000082169050919050565b613c8981613c54565b8114613c9457600080fd5b50565b600081359050613ca681613c80565b92915050565b600060208284031215613cc257613cc1613c4a565b5b6000613cd084828501613c97565b91505092915050565b60008115159050919050565b613cee81613cd9565b82525050565b6000602082019050613d096000830184613ce5565b92915050565b600080fd5b600080fd5b6000601f19601f8301169050919050565b7f4e487b7100000000000000000000000000000000000000000000000000000000600052604160045260246000fd5b613d6282613d19565b810181811067ffffffffffffffff82111715613d8157613d80613d2a565b5b80604052505050565b6000613d94613c40565b9050613da08282613d59565b919050565b600067ffffffffffffffff821115613dc057613dbf613d2a565b5b613dc982613d19565b9050602081019050919050565b82818337600083830152505050565b6000613df8613df384613da5565b613d8a565b905082815260208101848484011115613e1457613e13613d14565b5b613e1f848285613dd6565b509392505050565b600082601f830112613e3c57613e3b613d0f565b5b8135613e4c848260208601613de5565b91505092915050565b6000819050919050565b613e6881613e55565b8114613e7357600080fd5b50565b600081359050613e8581613e5f565b92915050565b60008060008060808587031215613ea557613ea4613c4a565b5b600085013567ffffffffffffffff811115613ec357613ec2613c4f565b5b613ecf87828801613e27565b9450506020613ee087828801613e76565b9350506040613ef187828801613e76565b9250506060613f0287828801613e76565b91505092959194509250565b613f1781613e55565b82525050565b6000602082019050613f326000830184613f0e565b92915050565b600081519050919050565b600082825260208201905092915050565b60005b83811015613f72578082015181840152602081019050613f57565b60008484015250505050565b6000613f8982613f38565b613f938185613f43565b9350613fa3818560208601613f54565b613fac81613d19565b840191505092915050565b60006020820190508181036000830152613fd18184613f7e565b905092915050565b600073ffffffffffffffffffffffffffffffffffffffff82169050919050565b600061400482613fd9565b9050919050565b61401481613ff9565b811461401f57600080fd5b50565b6000813590506140318161400b565b92915050565b6000806040838503121561404e5761404d613c4a565b5b600061405c85828601614022565b925050602061406d85828601613e76565b9150509250929050565b600067ffffffffffffffff82111561409257614091613d2a565b5b602082029050602081019050919050565b600080fd5b60006140bb6140b684614077565b613d8a565b905080838252602082019050602084028301858111156140de576140dd6140a3565b5b835b8181101561410757806140f38882614022565b8452602084019350506020810190506140e0565b5050509392505050565b600082601f83011261412657614125613d0f565b5b81356141368482602086016140a8565b91505092915050565b6000806040838503121561415657614155613c4a565b5b600083013567ffffffffffffffff81111561417457614173613c4f565b5b61418085828601614111565b925050602061419185828601613e76565b9150509250929050565b6000602082840312156141b1576141b0613c4a565b5b60006141bf84828501613e76565b91505092915050565b6141d181613ff9565b82525050565b60006020820190506141ec60008301846141c8565b92915050565b60008060006060848603121561420b5761420a613c4a565b5b600061421986828701614022565b935050602061422a86828701614022565b925050604061423b86828701613e76565b9150509250925092565b6000819050919050565b61425881614245565b811461426357600080fd5b50565b6000813590506142758161424f565b92915050565b60006020828403121561429157614290613c4a565b5b600061429f84828501614266565b91505092915050565b6142b181614245565b82525050565b60006020820190506142cc60008301846142a8565b92915050565b600581106142df57600080fd5b50565b6000813590506142f1816142d2565b92915050565b60006020828403121561430d5761430c613c4a565b5b600061431b848285016142e2565b91505092915050565b600082825260208201905092915050565b600061434082613f38565b61434a8185614324565b935061435a818560208601613f54565b61436381613d19565b840191505092915050565b61437781613e55565b82525050565b6000606083016000830151848203600086015261439a8282614335565b915050602083015184820360208601526143b48282614335565b91505060408301516143c9604086018261436e565b508091505092915050565b600060208201905081810360008301526143ee818461437d565b905092915050565b6000806040838503121561440d5761440c613c4a565b5b600061441b85828601614266565b925050602061442c85828601614022565b9150509250929050565b600060ff82169050919050565b61444c81614436565b82525050565b60006020820190506144676000830184614443565b92915050565b6000806040838503121561448457614483613c4a565b5b600061449285828601613e76565b925050602083013567ffffffffffffffff8111156144b3576144b2613c4f565b5b6144bf85828601614111565b9150509250929050565b600080604083850312156144e0576144df613c4a565b5b60006144ee85828601614022565b92505060206144ff858286016142e2565b9150509250929050565b600081519050919050565b600082825260208201905092915050565b600061453082614509565b61453a8185614514565b935061454a818560208601613f54565b61455381613d19565b840191505092915050565b600060c0820190506145736000830189613f0e565b61458060208301886141c8565b61458d60408301876141c8565b818103606083015261459f8186614525565b90506145ae6080830185613f0e565b6145bb60a0830184613ce5565b979650505050505050565b6000610100820190506145dc600083018b613f0e565b81810360208301526145ee818a613f7e565b90506145fd60408301896141c8565b61460a6060830188613f0e565b6146176080830187613f0e565b61462460a0830186613f0e565b61463160c0830185613f0e565b61463e60e0830184613ce5565b9998505050505050505050565b600060608201905081810360008301526146658186613f7e565b905081810360208301526146798185613f7e565b90506146886040830184613f0e565b949350505050565b6000602082840312156146a6576146a5613c4a565b5b60006146b484828501614022565b91505092915050565b7f4e487b7100000000000000000000000000000000000000000000000000000000600052602160045260246000fd5b600581106146fd576146fc6146bd565b5b50565b600081905061470e826146ec565b919050565b600061471e82614700565b9050919050565b61472e81614713565b82525050565b600060a0820190506147496000830188614725565b818103602083015261475b8187613f7e565b9050818103604083015261476f8186613f7e565b905061477e6060830185613f0e565b61478b6080830184613f0e565b9695505050505050565b60006060820190506147aa6000830186613f0e565b6147b76020830185613f0e565b6147c46040830184614725565b949350505050565b60006020820190506147e16000830184614725565b92915050565b600080604083850312156147fe576147fd613c4a565b5b600061480c85828601614022565b925050602061481d85828601614022565b9150509250929050565b7f4e487b7100000000000000000000000000000000000000000000000000000000600052601160045260246000fd5b600061486182613e55565b91507fffffffffffffffffffffffffffffffffffffffffffffffffffffffffffffffff820361489357614892614827565b5b600182019050919050565b7f4e487b7100000000000000000000000000000000000000000000000000000000600052602260045260246000fd5b600060028204905060018216806148e557607f821691505b6020821081036148f8576148f761489e565b5b50919050565b60008190508160005260206000209050919050565b60006020601f8301049050919050565b600082821b905092915050565b6000600883026149607fffffffffffffffffffffffffffffffffffffffffffffffffffffffffffffffff82614923565b61496a8683614923565b95508019841693508086168417925050509392505050565b6000819050919050565b60006149a76149a261499d84613e55565b614982565b613e55565b9050919050565b6000819050919050565b6149c18361498c565b6149d56149cd826149ae565b848454614930565b825550505050565b600090565b6149ea6149dd565b6149f58184846149b8565b505050565b5b81811015614a1957614a0e6000826149e2565b6001810190506149fb565b5050565b601f821115614a5e57614a2f816148fe565b614a3884614913565b81016020851015614a47578190505b614a5b614a5385614913565b8301826149fa565b50505b505050565b600082821c905092915050565b6000614a8160001984600802614a63565b1980831691505092915050565b6000614a9a8383614a70565b9150826002028217905092915050565b614ab382613f38565b67ffffffffffffffff811115614acc57614acb613d2a565b5b614ad682546148cd565b614ae1828285614a1d565b600060209050601f831160018114614b145760008415614b02578287015190505b614b0c8582614a8e565b865550614b74565b601f198416614b22866148fe565b60005b82811015614b4a57848901518255600182019150602085019450602081019050614b25565b86831015614b675784890151614b63601f891682614a70565b8355505b6001600288020188555050505b505050505050565b60006040820190508181036000830152614b968185613f7e565b9050614ba560208301846141c8565b9392505050565b7f4e487b7100000000000000000000000000000000000000000000000000000000600052603260045260246000fd5b7f4e6f20656c696769626c65206164647265737365730000000000000000000000600082015250565b6000614c11601583613f43565b9150614c1c82614bdb565b602082019050919050565b60006020820190508181036000830152614c4081614c04565b9050919050565b600081519050919050565b600082825260208201905092915050565b6000819050602082019050919050565b614c7c81613ff9565b82525050565b6000614c8e8383614c73565b60208301905092915050565b6000602082019050919050565b6000614cb282614c47565b614cbc8185614c52565b9350614cc783614c63565b8060005b83811015614cf8578151614cdf8882614c82565b9750614cea83614c9a565b925050600181019050614ccb565b5085935050505092915050565b60006040820190508181036000830152614d1f8185614ca7565b9050614d2e6020830184613f0e565b9392505050565b6000614d4082613e55565b9150614d4b83613e55565b9250828202614d5981613e55565b91508282048414831517614d7057614d6f614827565b5b5092915050565b7f4e487b7100000000000000000000000000000000000000000000000000000000600052601260045260246000fd5b6000614db182613e55565b9150614dbc83613e55565b925082614dcc57614dcb614d77565b5b828204905092915050565b6000614de282613e55565b9150614ded83613e55565b9250828201905080821115614e0557614e04614827565b5b92915050565b7f436f6d6d756e6974793a20496e73756666696369656e7420746f6b656e730000600082015250565b6000614e41601e83613f43565b9150614e4c82614e0b565b602082019050919050565b60006020820190508181036000830152614e7081614e34565b9050919050565b6000604082019050614e8c6000830185613f0e565b8181036020830152614e9e8184614ca7565b90509392505050565b7f4576656e74206973206e6f742061637469766500000000000000000000000000600082015250565b6000614edd601383613f43565b9150614ee882614ea7565b602082019050919050565b60006020820190508181036000830152614f0c81614ed0565b9050919050565b7f4576656e74206e6f7420696e2070726f67726573730000000000000000000000600082015250565b6000614f49601583613f43565b9150614f5482614f13565b602082019050919050565b60006020820190508181036000830152614f7881614f3c565b9050919050565b7f4576656e742069732066756c6c00000000000000000000000000000000000000600082015250565b6000614fb5600d83613f43565b9150614fc082614f7f565b602082019050919050565b60006020820190508181036000830152614fe481614fa8565b9050919050565b7f416c726561647920696e20726576696577657220706f6f6c0000000000000000600082015250565b6000615021601883613f43565b915061502c82614feb565b602082019050919050565b6000602082019050818103600083015261505081615014565b9050919050565b7f45786365656473206d61782070726f6a6563742066756e64696e670000000000600082015250565b600061508d601b83613f43565b915061509882615057565b602082019050919050565b600060208201905081810360008301526150bc81615080565b9050919050565b7f496e73756666696369656e7420636f6d6d756e6974792070726f6a656374206660008201527f756e647300000000000000000000000000000000000000000000000000000000602082015250565b600061511f602483613f43565b915061512a826150c3565b604082019050919050565b6000602082019050818103600083015261514e81615112565b9050919050565b600060408201905061516a60008301856141c8565b6151776020830184613f0e565b9392505050565b7f4e6f7420617574686f72697a6564000000000000000000000000000000000000600082015250565b60006151b4600e83613f43565b91506151bf8261517e565b602082019050919050565b600060208201905081810360008301526151e3816151a7565b9050919050565b600081905092915050565b50565b60006152056000836151ea565b9150615210826151f5565b600082019050919050565b6000615226826151f8565b9150819050919050565b7f5472616e73666572206661696c65640000000000000000000000000000000000600082015250565b6000615266600f83613f43565b915061527182615230565b602082019050919050565b6000602082019050818103600083015261529581615259565b9050919050565b7f50726f706f73616c20616c726561647920657865637574656400000000000000600082015250565b60006152d2601983613f43565b91506152dd8261529c565b602082019050919050565b60006020820190508181036000830152615301816152c5565b9050919050565b7f416c726561647920617070726f76656400000000000000000000000000000000600082015250565b600061533e601083613f43565b915061534982615308565b602082019050919050565b6000602082019050818103600083015261536d81615331565b9050919050565b60008190508160005260206000209050919050565b60008154615396816148cd565b6153a081866151ea565b945060018216600081146153bb57600181146153d057615403565b60ff1983168652811515820286019350615403565b6153d985615374565b60005b838110156153fb578154818901526001820191506020810190506153dc565b838801955050505b50505092915050565b60006154188284615389565b915081905092915050565b7f50726f706f73616c20657865637574696f6e206661696c656400000000000000600082015250565b6000615459601983613f43565b915061546482615423565b602082019050919050565b600060208201905081810360008301526154888161544c565b9050919050565b7f4e6f7420696e20726576696577657220706f6f6c000000000000000000000000600082015250565b60006154c5601483613f43565b91506154d08261548f565b602082019050919050565b600060208201905081810360008301526154f4816154b8565b9050919050565b600061550682613e55565b915061551183613e55565b925082820390508181111561552957615528614827565b5b92915050565b7f4e487b7100000000000000000000000000000000000000000000000000000000600052603160045260246000fd5b7f496e76616c69642072657761726420616d6f756e740000000000000000000000600082015250565b6000615594601583613f43565b915061559f8261555e565b602082019050919050565b600060208201905081810360008301526155c381615587565b9050919050565b7f436f6d6d756e6974793a204d696e74696e67206c696d6974206578636565646560008201527f6400000000000000000000000000000000000000000000000000000000000000602082015250565b6000615626602183613f43565b9150615631826155ca565b604082019050919050565b6000602082019050818103600083015261565581615619565b9050919050565b7f436f6d6d756e6974793a2043616e6e6f74206d696e7420746f207a65726f206160008201527f6464726573730000000000000000000000000000000000000000000000000000602082015250565b60006156b8602683613f43565b91506156c38261565c565b604082019050919050565b600060208201905081810360008301526156e7816156ab565b9050919050565b601f82111561572f5761570081615374565b61570984614913565b81016020851015615718578190505b61572c61572485614913565b8301826149fa565b50505b505050565b61573d82614509565b67ffffffffffffffff81111561575657615755613d2a565b5b61576082546148cd565b61576b8282856156ee565b600060209050601f83116001811461579e576000841561578c578287015190505b6157968582614a8e565b8655506157fe565b601f1984166157ac86615374565b60005b828110156157d4578489015182556001820191506020850194506020810190506157af565b868310156157f157848901516157ed601f891682614a70565b8355505b6001600288020188555050505b505050505050565b600060608201905061581b60008301866141c8565b6158286020830185613f0e565b6158356040830184613f0e565b949350505050565b60008160601b9050919050565b60006158558261583d565b9050919050565b60006158678261584a565b9050919050565b61587f61587a82613ff9565b61585c565b82525050565b60008160f81b9050919050565b600061589d82615885565b9050919050565b6158b56158b082614713565b615892565b82525050565b60006158c7828561586e565b6014820191506158d782846158a4565b6001820191508190509392505050565b60006040820190506158fc60008301856141c8565b61590960208301846142a8565b9392505050565b7f4c696d6974204578636565646564210000000000000000000000000000000000600082015250565b6000615946600f83613f43565b915061595182615910565b602082019050919050565b6000602082019050818103600083015261597581615939565b905091905056fea26469706673582212209376f8ea89e52e5f357701925881e539f4523ecd0c53cbc35dc8ba51420604f764736f6c634300081b0033",
  "linkReferences": {},
  "deployedLinkReferences": {}
}