{
  "_format": "hh-sol-artifact-1",
  "contractName": "Community",
  "sourceName": "contracts/Community Contracts/Community.sol",
  "abi": [
    {
      "inputs": [
        {
          "internalType": "address[]",
          "name": "_reviewers",
          "type": "address[]"
        }
      ],
      "stateMutability": "nonpayable",
      "type": "constructor"
    },
    {
      "inputs": [],
      "name": "AccessControlBadConfirmation",
      "type": "error"
    },
    {
      "inputs": [
        {
          "internalType": "address",
          "name": "account",
          "type": "address"
        },
        {
          "internalType": "bytes32",
          "name": "neededRole",
          "type": "bytes32"
        }
      ],
      "name": "AccessControlUnauthorizedAccount",
      "type": "error"
    },
    {
      "inputs": [
        {
          "internalType": "address",
          "name": "spender",
          "type": "address"
        },
        {
          "internalType": "uint256",
          "name": "allowance",
          "type": "uint256"
        },
        {
          "internalType": "uint256",
          "name": "needed",
          "type": "uint256"
        }
      ],
      "name": "ERC20InsufficientAllowance",
      "type": "error"
    },
    {
      "inputs": [
        {
          "internalType": "address",
          "name": "sender",
          "type": "address"
        },
        {
          "internalType": "uint256",
          "name": "balance",
          "type": "uint256"
        },
        {
          "internalType": "uint256",
          "name": "needed",
          "type": "uint256"
        }
      ],
      "name": "ERC20InsufficientBalance",
      "type": "error"
    },
    {
      "inputs": [
        {
          "internalType": "address",
          "name": "approver",
          "type": "address"
        }
      ],
      "name": "ERC20InvalidApprover",
      "type": "error"
    },
    {
      "inputs": [
        {
          "internalType": "address",
          "name": "receiver",
          "type": "address"
        }
      ],
      "name": "ERC20InvalidReceiver",
      "type": "error"
    },
    {
      "inputs": [
        {
          "internalType": "address",
          "name": "sender",
          "type": "address"
        }
      ],
      "name": "ERC20InvalidSender",
      "type": "error"
    },
    {
      "inputs": [
        {
          "internalType": "address",
          "name": "spender",
          "type": "address"
        }
      ],
      "name": "ERC20InvalidSpender",
      "type": "error"
    },
    {
      "inputs": [],
      "name": "ReentrancyGuardReentrantCall",
      "type": "error"
    },
    {
      "anonymous": false,
      "inputs": [
        {
          "indexed": true,
          "internalType": "uint256",
          "name": "airdropId",
          "type": "uint256"
        },
        {
          "indexed": false,
          "internalType": "uint256",
          "name": "amount",
          "type": "uint256"
        },
        {
          "indexed": false,
          "internalType": "uint256",
          "name": "startTime",
          "type": "uint256"
        },
        {
          "indexed": false,
          "internalType": "uint256",
          "name": "endTime",
          "type": "uint256"
        }
      ],
      "name": "AirdropActivated",
      "type": "event"
    },
    {
      "anonymous": false,
      "inputs": [
        {
          "indexed": true,
          "internalType": "uint256",
          "name": "airdropId",
          "type": "uint256"
        },
        {
          "indexed": true,
          "internalType": "address",
          "name": "claimer",
          "type": "address"
        },
        {
          "indexed": false,
          "internalType": "uint256",
          "name": "amount",
          "type": "uint256"
        }
      ],
      "name": "AirdropClaimed",
      "type": "event"
    },
    {
      "anonymous": false,
      "inputs": [
        {
          "indexed": true,
          "internalType": "uint256",
          "name": "airdropId",
          "type": "uint256"
        }
      ],
      "name": "AirdropDeactivated",
      "type": "event"
    },
    {
      "anonymous": false,
      "inputs": [
        {
          "indexed": true,
          "internalType": "uint256",
          "name": "airdropId",
          "type": "uint256"
        },
        {
          "indexed": true,
          "internalType": "address",
          "name": "approver",
          "type": "address"
        }
      ],
      "name": "AirdropProposalApproved",
      "type": "event"
    },
    {
      "anonymous": false,
      "inputs": [
        {
          "indexed": true,
          "internalType": "uint256",
          "name": "airdropId",
          "type": "uint256"
        },
        {
          "indexed": false,
          "internalType": "uint256",
          "name": "amount",
          "type": "uint256"
        },
        {
          "indexed": false,
          "internalType": "uint256",
          "name": "startTime",
          "type": "uint256"
        },
        {
          "indexed": false,
          "internalType": "uint256",
          "name": "endTime",
          "type": "uint256"
        }
      ],
      "name": "AirdropProposalCreated",
      "type": "event"
    },
    {
      "anonymous": false,
      "inputs": [
        {
          "indexed": true,
          "internalType": "address",
          "name": "owner",
          "type": "address"
        },
        {
          "indexed": true,
          "internalType": "address",
          "name": "spender",
          "type": "address"
        },
        {
          "indexed": false,
          "internalType": "uint256",
          "name": "value",
          "type": "uint256"
        }
      ],
      "name": "Approval",
      "type": "event"
    },
    {
      "anonymous": false,
      "inputs": [
        {
          "indexed": true,
          "internalType": "address",
          "name": "member",
          "type": "address"
        },
        {
          "indexed": false,
          "internalType": "enum CommunityBadgeSystem.BadgeLevel",
          "name": "badge",
          "type": "uint8"
        }
      ],
      "name": "BadgeAwarded",
      "type": "event"
    },
    {
      "anonymous": false,
      "inputs": [
        {
          "indexed": true,
          "internalType": "address",
          "name": "_account",
          "type": "address"
        },
        {
          "indexed": false,
          "internalType": "uint256",
          "name": "_amount",
          "type": "uint256"
        }
      ],
      "name": "BurnSuccess",
      "type": "event"
    },
    {
      "anonymous": false,
      "inputs": [
        {
          "indexed": true,
          "internalType": "address",
          "name": "_to",
          "type": "address"
        },
        {
          "indexed": true,
          "internalType": "uint256",
          "name": "_amount",
          "type": "uint256"
        }
      ],
      "name": "CommunityPoolUpdate",
      "type": "event"
    },
    {
      "anonymous": false,
      "inputs": [
        {
          "indexed": true,
          "internalType": "uint256",
          "name": "eventId",
          "type": "uint256"
        },
        {
          "indexed": false,
          "internalType": "string",
          "name": "name",
          "type": "string"
        },
        {
          "indexed": false,
          "internalType": "address",
          "name": "creator",
          "type": "address"
        },
        {
          "indexed": false,
          "internalType": "bool",
          "name": "isOnline",
          "type": "bool"
        },
        {
          "indexed": false,
          "internalType": "string",
          "name": "location",
          "type": "string"
        }
      ],
      "name": "EventCreated",
      "type": "event"
    },
    {
      "anonymous": false,
      "inputs": [
        {
          "indexed": true,
          "internalType": "uint256",
          "name": "eventId",
          "type": "uint256"
        },
        {
          "indexed": false,
          "internalType": "address",
          "name": "participant",
          "type": "address"
        }
      ],
      "name": "EventParticipation",
      "type": "event"
    },
    {
      "anonymous": false,
      "inputs": [
        {
          "indexed": true,
          "internalType": "address",
          "name": "member",
          "type": "address"
        },
        {
          "indexed": false,
          "internalType": "uint256",
          "name": "totalEvents",
          "type": "uint256"
        }
      ],
      "name": "EventParticipationRecorded",
      "type": "event"
    },
    {
      "anonymous": false,
      "inputs": [
        {
          "indexed": true,
          "internalType": "address",
          "name": "_address",
          "type": "address"
        }
      ],
      "name": "JoinSuccess",
      "type": "event"
    },
    {
      "anonymous": false,
      "inputs": [
        {
          "indexed": true,
          "internalType": "address",
          "name": "member",
          "type": "address"
        }
      ],
      "name": "MemberRegistered",
      "type": "event"
    },
    {
      "anonymous": false,
      "inputs": [
        {
          "indexed": true,
          "internalType": "address",
          "name": "_to",
          "type": "address"
        },
        {
          "indexed": true,
          "internalType": "uint256",
          "name": "_amount",
          "type": "uint256"
        }
      ],
      "name": "MintSuccess",
      "type": "event"
    },
    {
      "anonymous": false,
      "inputs": [
        {
          "indexed": true,
          "internalType": "uint256",
          "name": "proposalId",
          "type": "uint256"
        },
        {
          "indexed": false,
          "internalType": "address",
          "name": "approver",
          "type": "address"
        }
      ],
      "name": "MultiSigProposalApproved",
      "type": "event"
    },
    {
      "anonymous": false,
      "inputs": [
        {
          "indexed": true,
          "internalType": "uint256",
          "name": "proposalId",
          "type": "uint256"
        },
        {
          "indexed": false,
          "internalType": "address",
          "name": "proposer",
          "type": "address"
        }
      ],
      "name": "MultiSigProposalCreated",
      "type": "event"
    },
    {
      "anonymous": false,
      "inputs": [
        {
          "indexed": true,
          "internalType": "uint256",
          "name": "proposalId",
          "type": "uint256"
        }
      ],
      "name": "MultiSigProposalExecuted",
      "type": "event"
    },
    {
      "anonymous": false,
      "inputs": [
        {
          "indexed": true,
          "internalType": "uint256",
          "name": "proposalId",
          "type": "uint256"
        },
        {
          "indexed": true,
          "internalType": "address",
          "name": "creator",
          "type": "address"
        },
        {
          "indexed": false,
          "internalType": "uint256",
          "name": "amount",
          "type": "uint256"
        }
      ],
      "name": "ProjectFundingReleased",
      "type": "event"
    },
    {
      "anonymous": false,
      "inputs": [
        {
          "indexed": true,
          "internalType": "uint256",
          "name": "proposalId",
          "type": "uint256"
        }
      ],
      "name": "ProjectProposalApproved",
      "type": "event"
    },
    {
      "anonymous": false,
      "inputs": [
        {
          "indexed": true,
          "internalType": "uint256",
          "name": "proposalId",
          "type": "uint256"
        },
        {
          "indexed": true,
          "internalType": "address",
          "name": "creator",
          "type": "address"
        },
        {
          "indexed": false,
          "internalType": "string",
          "name": "name",
          "type": "string"
        },
        {
          "indexed": false,
          "internalType": "uint256",
          "name": "requestedAmount",
          "type": "uint256"
        }
      ],
      "name": "ProjectProposalCreated",
      "type": "event"
    },
    {
      "anonymous": false,
      "inputs": [
        {
          "indexed": true,
          "internalType": "uint256",
          "name": "proposalId",
          "type": "uint256"
        },
        {
          "indexed": false,
          "internalType": "string",
          "name": "reason",
          "type": "string"
        }
      ],
      "name": "ProjectProposalRejected",
      "type": "event"
    },
    {
      "anonymous": false,
      "inputs": [
        {
          "indexed": true,
          "internalType": "address",
          "name": "reviewer",
          "type": "address"
        }
      ],
      "name": "ReviewerAddedToPool",
      "type": "event"
    },
    {
      "anonymous": false,
      "inputs": [
        {
          "indexed": true,
          "internalType": "address",
          "name": "reviewer",
          "type": "address"
        }
      ],
      "name": "ReviewerRemovedFromPool",
      "type": "event"
    },
    {
      "anonymous": false,
      "inputs": [
        {
          "indexed": true,
          "internalType": "bytes32",
          "name": "role",
          "type": "bytes32"
        },
        {
          "indexed": true,
          "internalType": "bytes32",
          "name": "previousAdminRole",
          "type": "bytes32"
        },
        {
          "indexed": true,
          "internalType": "bytes32",
          "name": "newAdminRole",
          "type": "bytes32"
        }
      ],
      "name": "RoleAdminChanged",
      "type": "event"
    },
    {
      "anonymous": false,
      "inputs": [
        {
          "indexed": true,
          "internalType": "bytes32",
          "name": "role",
          "type": "bytes32"
        },
        {
          "indexed": true,
          "internalType": "address",
          "name": "account",
          "type": "address"
        },
        {
          "indexed": true,
          "internalType": "address",
          "name": "sender",
          "type": "address"
        }
      ],
      "name": "RoleGranted",
      "type": "event"
    },
    {
      "anonymous": false,
      "inputs": [
        {
          "indexed": true,
          "internalType": "bytes32",
          "name": "role",
          "type": "bytes32"
        },
        {
          "indexed": true,
          "internalType": "address",
          "name": "account",
          "type": "address"
        },
        {
          "indexed": true,
          "internalType": "address",
          "name": "sender",
          "type": "address"
        }
      ],
      "name": "RoleRevoked",
      "type": "event"
    },
    {
      "anonymous": false,
      "inputs": [
        {
          "indexed": true,
          "internalType": "address",
          "name": "from",
          "type": "address"
        },
        {
          "indexed": true,
          "internalType": "address",
          "name": "to",
          "type": "address"
        },
        {
          "indexed": false,
          "internalType": "uint256",
          "name": "value",
          "type": "uint256"
        }
      ],
      "name": "Transfer",
      "type": "event"
    },
    {
      "inputs": [],
      "name": "CHAMPION_BADGE_THRESHOLD",
      "outputs": [
        {
          "internalType": "uint256",
          "name": "",
          "type": "uint256"
        }
      ],
      "stateMutability": "view",
      "type": "function"
    },
    {
      "inputs": [],
      "name": "CHAMPION_REWARD",
      "outputs": [
        {
          "internalType": "uint256",
          "name": "",
          "type": "uint256"
        }
      ],
      "stateMutability": "view",
      "type": "function"
    },
    {
      "inputs": [],
      "name": "COMMUNITY_MANAGER",
      "outputs": [
        {
          "internalType": "bytes32",
          "name": "",
          "type": "bytes32"
        }
      ],
      "stateMutability": "view",
      "type": "function"
    },
    {
      "inputs": [],
      "name": "COMMUNITY_POOL",
      "outputs": [
        {
          "internalType": "uint256",
          "name": "",
          "type": "uint256"
        }
      ],
      "stateMutability": "view",
      "type": "function"
    },
    {
      "inputs": [],
      "name": "CONTRIBUTOR_BADGE_THRESHOLD",
      "outputs": [
        {
          "internalType": "uint256",
          "name": "",
          "type": "uint256"
        }
      ],
      "stateMutability": "view",
      "type": "function"
    },
    {
      "inputs": [],
      "name": "CONTRIBUTOR_REWARD",
      "outputs": [
        {
          "internalType": "uint256",
          "name": "",
          "type": "uint256"
        }
      ],
      "stateMutability": "view",
      "type": "function"
    },
    {
      "inputs": [],
      "name": "DEFAULT_ADMIN_ROLE",
      "outputs": [
        {
          "internalType": "bytes32",
          "name": "",
          "type": "bytes32"
        }
      ],
      "stateMutability": "view",
      "type": "function"
    },
    {
      "inputs": [],
      "name": "EVENT_PARTICIPATION_REWARD",
      "outputs": [
        {
          "internalType": "uint256",
          "name": "",
          "type": "uint256"
        }
      ],
      "stateMutability": "view",
      "type": "function"
    },
    {
      "inputs": [],
      "name": "LEADER_BADGE_THRESHOLD",
      "outputs": [
        {
          "internalType": "uint256",
          "name": "",
          "type": "uint256"
        }
      ],
      "stateMutability": "view",
      "type": "function"
    },
    {
      "inputs": [],
      "name": "LEADER_REWARD",
      "outputs": [
        {
          "internalType": "uint256",
          "name": "",
          "type": "uint256"
        }
      ],
      "stateMutability": "view",
      "type": "function"
    },
    {
      "inputs": [],
      "name": "MAX_COMMUNITY_PROJECT_FUNDING",
      "outputs": [
        {
          "internalType": "uint256",
          "name": "",
          "type": "uint256"
        }
      ],
      "stateMutability": "view",
      "type": "function"
    },
    {
      "inputs": [],
      "name": "MAX_SUPPLY",
      "outputs": [
        {
          "internalType": "uint256",
          "name": "",
          "type": "uint256"
        }
      ],
      "stateMutability": "view",
      "type": "function"
    },
    {
      "inputs": [],
      "name": "MULTISIG_APPROVER",
      "outputs": [
        {
          "internalType": "bytes32",
          "name": "",
          "type": "bytes32"
        }
      ],
      "stateMutability": "view",
      "type": "function"
    },
    {
      "inputs": [],
      "name": "PARTICIPANT_BADGE_THRESHOLD",
      "outputs": [
        {
          "internalType": "uint256",
          "name": "",
          "type": "uint256"
        }
      ],
      "stateMutability": "view",
      "type": "function"
    },
    {
      "inputs": [],
      "name": "PARTICIPANT_REWARD",
      "outputs": [
        {
          "internalType": "uint256",
          "name": "",
          "type": "uint256"
        }
      ],
      "stateMutability": "view",
      "type": "function"
    },
    {
      "inputs": [],
      "name": "REVIEWER_ROLE",
      "outputs": [
        {
          "internalType": "bytes32",
          "name": "",
          "type": "bytes32"
        }
      ],
      "stateMutability": "view",
      "type": "function"
    },
    {
      "inputs": [
        {
          "internalType": "uint256",
          "name": "",
          "type": "uint256"
        }
      ],
      "name": "abyaCommunity",
      "outputs": [
        {
          "internalType": "address",
          "name": "",
          "type": "address"
        }
      ],
      "stateMutability": "view",
      "type": "function"
    },
    {
      "inputs": [
        {
          "internalType": "uint256",
          "name": "_airdropId",
          "type": "uint256"
        }
      ],
      "name": "activateAirdrop",
      "outputs": [],
      "stateMutability": "nonpayable",
      "type": "function"
    },
    {
      "inputs": [],
      "name": "activeAirdropId",
      "outputs": [
        {
          "internalType": "uint256",
          "name": "",
          "type": "uint256"
        }
      ],
      "stateMutability": "view",
      "type": "function"
    },
    {
      "inputs": [
        {
          "internalType": "address",
          "name": "newApprover",
          "type": "address"
        }
      ],
      "name": "addMultiSigApprover",
      "outputs": [],
      "stateMutability": "nonpayable",
      "type": "function"
    },
    {
      "inputs": [
        {
          "internalType": "address",
          "name": "newReviewer",
          "type": "address"
        }
      ],
      "name": "addReviewer",
      "outputs": [],
      "stateMutability": "nonpayable",
      "type": "function"
    },
    {
      "inputs": [
        {
          "internalType": "uint256",
          "name": "",
          "type": "uint256"
        }
      ],
      "name": "airdropProposal",
      "outputs": [
        {
          "internalType": "uint256",
          "name": "airdropId",
          "type": "uint256"
        },
        {
          "internalType": "uint256",
          "name": "amount",
          "type": "uint256"
        },
        {
          "internalType": "uint256",
          "name": "startTime",
          "type": "uint256"
        },
        {
          "internalType": "uint256",
          "name": "endTime",
          "type": "uint256"
        },
        {
          "internalType": "bool",
          "name": "isActive",
          "type": "bool"
        },
        {
          "internalType": "uint256",
          "name": "approvalCount",
          "type": "uint256"
        }
      ],
      "stateMutability": "view",
      "type": "function"
    },
    {
      "inputs": [
        {
          "internalType": "address",
          "name": "owner",
          "type": "address"
        },
        {
          "internalType": "address",
          "name": "spender",
          "type": "address"
        }
      ],
      "name": "allowance",
      "outputs": [
        {
          "internalType": "uint256",
          "name": "",
          "type": "uint256"
        }
      ],
      "stateMutability": "view",
      "type": "function"
    },
    {
      "inputs": [
        {
          "internalType": "address",
          "name": "spender",
          "type": "address"
        },
        {
          "internalType": "uint256",
          "name": "value",
          "type": "uint256"
        }
      ],
      "name": "approve",
      "outputs": [
        {
          "internalType": "bool",
          "name": "",
          "type": "bool"
        }
      ],
      "stateMutability": "nonpayable",
      "type": "function"
    },
    {
      "inputs": [
        {
          "internalType": "uint256",
          "name": "_airdropId",
          "type": "uint256"
        }
      ],
      "name": "approveAirdropProposal",
      "outputs": [],
      "stateMutability": "nonpayable",
      "type": "function"
    },
    {
      "inputs": [
        {
          "internalType": "uint256",
          "name": "_proposalId",
          "type": "uint256"
        }
      ],
      "name": "approveMultiSigProposal",
      "outputs": [],
      "stateMutability": "nonpayable",
      "type": "function"
    },
    {
      "inputs": [
        {
          "internalType": "uint256",
          "name": "_proposalId",
          "type": "uint256"
        }
      ],
      "name": "approveProjectProposal",
      "outputs": [],
      "stateMutability": "nonpayable",
      "type": "function"
    },
    {
      "inputs": [
        {
          "internalType": "enum CommunityBadgeSystem.BadgeLevel",
          "name": "",
          "type": "uint8"
        }
      ],
      "name": "badgeMetadata",
      "outputs": [
        {
          "internalType": "string",
          "name": "name",
          "type": "string"
        },
        {
          "internalType": "string",
          "name": "iconURI",
          "type": "string"
        },
        {
          "internalType": "uint256",
          "name": "tokenReward",
          "type": "uint256"
        }
      ],
      "stateMutability": "view",
      "type": "function"
    },
    {
      "inputs": [
        {
          "internalType": "address",
          "name": "account",
          "type": "address"
        }
      ],
      "name": "balanceOf",
      "outputs": [
        {
          "internalType": "uint256",
          "name": "",
          "type": "uint256"
        }
      ],
      "stateMutability": "view",
      "type": "function"
    },
    {
      "inputs": [
        {
          "internalType": "address",
          "name": "_address",
          "type": "address"
        },
        {
          "internalType": "uint256",
          "name": "_airdropId",
          "type": "uint256"
        }
      ],
      "name": "checkClaimStatus",
      "outputs": [
        {
          "internalType": "bool",
          "name": "",
          "type": "bool"
        }
      ],
      "stateMutability": "view",
      "type": "function"
    },
    {
      "inputs": [],
      "name": "checkMemberBadge",
      "outputs": [
        {
          "internalType": "enum CommunityBadgeSystem.BadgeLevel",
          "name": "",
          "type": "uint8"
        }
      ],
      "stateMutability": "view",
      "type": "function"
    },
    {
      "inputs": [
        {
          "internalType": "uint256",
          "name": "_airdropId",
          "type": "uint256"
        }
      ],
      "name": "claimAirdrop",
      "outputs": [],
      "stateMutability": "nonpayable",
      "type": "function"
    },
    {
      "inputs": [],
      "name": "claimBadgeRewards",
      "outputs": [],
      "stateMutability": "nonpayable",
      "type": "function"
    },
    {
      "inputs": [
        {
          "internalType": "address",
          "name": "",
          "type": "address"
        }
      ],
      "name": "communityContributorRewards",
      "outputs": [
        {
          "internalType": "uint256",
          "name": "",
          "type": "uint256"
        }
      ],
      "stateMutability": "view",
      "type": "function"
    },
    {
      "inputs": [
        {
          "internalType": "uint256",
          "name": "",
          "type": "uint256"
        }
      ],
      "name": "communityEvents",
      "outputs": [
        {
          "internalType": "uint256",
          "name": "id",
          "type": "uint256"
        },
        {
          "internalType": "string",
          "name": "name",
          "type": "string"
        },
        {
          "internalType": "address",
          "name": "creator",
          "type": "address"
        },
        {
          "internalType": "uint256",
          "name": "startTime",
          "type": "uint256"
        },
        {
          "internalType": "uint256",
          "name": "endTime",
          "type": "uint256"
        },
        {
          "internalType": "uint256",
          "name": "maxParticipants",
          "type": "uint256"
        },
        {
          "internalType": "uint256",
          "name": "currentParticipants",
          "type": "uint256"
        },
        {
          "internalType": "bool",
          "name": "isActive",
          "type": "bool"
        },
        {
          "internalType": "bool",
          "name": "isOnline",
          "type": "bool"
        },
        {
          "internalType": "string",
          "name": "location",
          "type": "string"
        },
        {
          "internalType": "string",
          "name": "additionalDetails",
          "type": "string"
        }
      ],
      "stateMutability": "view",
      "type": "function"
    },
    {
      "inputs": [
        {
          "internalType": "address",
          "name": "",
          "type": "address"
        }
      ],
      "name": "communityMembers",
      "outputs": [
        {
          "internalType": "uint256",
          "name": "totalEventsAttended",
          "type": "uint256"
        },
        {
          "internalType": "uint256",
          "name": "totalContributions",
          "type": "uint256"
        },
        {
          "internalType": "enum CommunityBadgeSystem.BadgeLevel",
          "name": "currentBadge",
          "type": "uint8"
        }
      ],
      "stateMutability": "view",
      "type": "function"
    },
    {
      "inputs": [],
      "name": "communityPoolSupply",
      "outputs": [
        {
          "internalType": "uint256",
          "name": "",
          "type": "uint256"
        }
      ],
      "stateMutability": "view",
      "type": "function"
    },
    {
      "inputs": [],
      "name": "communityProjectFunds",
      "outputs": [
        {
          "internalType": "uint256",
          "name": "",
          "type": "uint256"
        }
      ],
      "stateMutability": "view",
      "type": "function"
    },
    {
      "inputs": [
        {
          "internalType": "uint256",
          "name": "_amount",
          "type": "uint256"
        },
        {
          "internalType": "uint256",
          "name": "_startTime",
          "type": "uint256"
        },
        {
          "internalType": "uint256",
          "name": "_endTime",
          "type": "uint256"
        }
      ],
      "name": "createAirdropProposal",
      "outputs": [
        {
          "internalType": "bool",
          "name": "",
          "type": "bool"
        }
      ],
      "stateMutability": "nonpayable",
      "type": "function"
    },
    {
      "inputs": [
        {
          "internalType": "string",
          "name": "_name",
          "type": "string"
        },
        {
          "internalType": "uint256",
          "name": "_startTime",
          "type": "uint256"
        },
        {
          "internalType": "uint256",
          "name": "_endTime",
          "type": "uint256"
        },
        {
          "internalType": "uint256",
          "name": "_maxParticipants",
          "type": "uint256"
        },
        {
          "internalType": "bool",
          "name": "_isOnline",
          "type": "bool"
        },
        {
          "internalType": "string",
          "name": "_location",
          "type": "string"
        },
        {
          "internalType": "string",
          "name": "_additionalDetails",
          "type": "string"
        }
      ],
      "name": "createEvent",
      "outputs": [
        {
          "internalType": "uint256",
          "name": "",
          "type": "uint256"
        }
      ],
      "stateMutability": "nonpayable",
      "type": "function"
    },
    {
      "inputs": [
        {
          "internalType": "string",
          "name": "_name",
          "type": "string"
        },
        {
          "internalType": "string",
          "name": "_description",
          "type": "string"
        },
        {
          "internalType": "string[]",
          "name": "_techStack",
          "type": "string[]"
        },
        {
          "internalType": "string",
          "name": "_blockchain",
          "type": "string"
        },
        {
          "internalType": "uint256",
          "name": "_requestedAmount",
          "type": "uint256"
        },
        {
          "internalType": "uint256",
          "name": "_timeline",
          "type": "uint256"
        },
        {
          "internalType": "enum Community.ProjectStage",
          "name": "_stage",
          "type": "uint8"
        }
      ],
      "name": "createProjectFundingProposal",
      "outputs": [
        {
          "internalType": "uint256",
          "name": "",
          "type": "uint256"
        }
      ],
      "stateMutability": "nonpayable",
      "type": "function"
    },
    {
      "inputs": [],
      "name": "decimals",
      "outputs": [
        {
          "internalType": "uint8",
          "name": "",
          "type": "uint8"
        }
      ],
      "stateMutability": "view",
      "type": "function"
    },
    {
      "inputs": [
        {
          "internalType": "uint256",
          "name": "_airdropId",
          "type": "uint256"
        }
      ],
      "name": "getAirdropProposal",
      "outputs": [
        {
          "internalType": "uint256",
          "name": "airdropId",
          "type": "uint256"
        },
        {
          "internalType": "uint256",
          "name": "amount",
          "type": "uint256"
        },
        {
          "internalType": "uint256",
          "name": "startTime",
          "type": "uint256"
        },
        {
          "internalType": "uint256",
          "name": "endTime",
          "type": "uint256"
        },
        {
          "internalType": "bool",
          "name": "isActive",
          "type": "bool"
        },
        {
          "internalType": "uint256",
          "name": "approvalCount",
          "type": "uint256"
        }
      ],
      "stateMutability": "view",
      "type": "function"
    },
    {
      "inputs": [],
      "name": "getAllAirdropProposals",
      "outputs": [
        {
          "components": [
            {
              "internalType": "uint256",
              "name": "airdropId",
              "type": "uint256"
            },
            {
              "internalType": "uint256",
              "name": "amount",
              "type": "uint256"
            },
            {
              "internalType": "uint256",
              "name": "startTime",
              "type": "uint256"
            },
            {
              "internalType": "uint256",
              "name": "endTime",
              "type": "uint256"
            },
            {
              "internalType": "bool",
              "name": "isActive",
              "type": "bool"
            },
            {
              "internalType": "uint256",
              "name": "approvalCount",
              "type": "uint256"
            }
          ],
          "internalType": "struct Community.AirdropProposal[]",
          "name": "",
          "type": "tuple[]"
        }
      ],
      "stateMutability": "view",
      "type": "function"
    },
    {
      "inputs": [],
      "name": "getAllCommunityEvents",
      "outputs": [
        {
          "components": [
            {
              "internalType": "uint256",
              "name": "id",
              "type": "uint256"
            },
            {
              "internalType": "string",
              "name": "name",
              "type": "string"
            },
            {
              "internalType": "address",
              "name": "creator",
              "type": "address"
            },
            {
              "internalType": "uint256",
              "name": "startTime",
              "type": "uint256"
            },
            {
              "internalType": "uint256",
              "name": "endTime",
              "type": "uint256"
            },
            {
              "internalType": "uint256",
              "name": "maxParticipants",
              "type": "uint256"
            },
            {
              "internalType": "uint256",
              "name": "currentParticipants",
              "type": "uint256"
            },
            {
              "internalType": "bool",
              "name": "isActive",
              "type": "bool"
            },
            {
              "internalType": "bool",
              "name": "isOnline",
              "type": "bool"
            },
            {
              "internalType": "string",
              "name": "location",
              "type": "string"
            },
            {
              "internalType": "string",
              "name": "additionalDetails",
              "type": "string"
            }
          ],
          "internalType": "struct Community.CommunityEvent[]",
          "name": "",
          "type": "tuple[]"
        }
      ],
      "stateMutability": "view",
      "type": "function"
    },
    {
      "inputs": [],
      "name": "getAllCommunityMembers",
      "outputs": [
        {
          "internalType": "address[]",
          "name": "",
          "type": "address[]"
        }
      ],
      "stateMutability": "view",
      "type": "function"
    },
    {
      "inputs": [],
      "name": "getAllProjectProposals",
      "outputs": [
        {
          "components": [
            {
              "internalType": "uint256",
              "name": "id",
              "type": "uint256"
            },
            {
              "internalType": "address",
              "name": "creator",
              "type": "address"
            },
            {
              "internalType": "string",
              "name": "name",
              "type": "string"
            },
            {
              "internalType": "string",
              "name": "description",
              "type": "string"
            },
            {
              "internalType": "string[]",
              "name": "techStack",
              "type": "string[]"
            },
            {
              "internalType": "string",
              "name": "blockchain",
              "type": "string"
            },
            {
              "internalType": "uint256",
              "name": "requestedAmount",
              "type": "uint256"
            },
            {
              "internalType": "uint256",
              "name": "timeline",
              "type": "uint256"
            },
            {
              "internalType": "enum Community.ProjectStage",
              "name": "stage",
              "type": "uint8"
            },
            {
              "internalType": "bool",
              "name": "isApproved",
              "type": "bool"
            },
            {
              "internalType": "bool",
              "name": "isRejected",
              "type": "bool"
            },
            {
              "internalType": "string",
              "name": "rejectionReason",
              "type": "string"
            },
            {
              "internalType": "uint256",
              "name": "approvalCount",
              "type": "uint256"
            }
          ],
          "internalType": "struct Community.ProjectFundingProposal[]",
          "name": "",
          "type": "tuple[]"
        }
      ],
      "stateMutability": "view",
      "type": "function"
    },
    {
      "inputs": [
        {
          "internalType": "enum CommunityBadgeSystem.BadgeLevel",
          "name": "_level",
          "type": "uint8"
        }
      ],
      "name": "getBadgeMetadata",
      "outputs": [
        {
          "components": [
            {
              "internalType": "string",
              "name": "name",
              "type": "string"
            },
            {
              "internalType": "string",
              "name": "iconURI",
              "type": "string"
            },
            {
              "internalType": "uint256",
              "name": "tokenReward",
              "type": "uint256"
            }
          ],
          "internalType": "struct CommunityBadgeSystem.BadgeMetadata",
          "name": "",
          "type": "tuple"
        }
      ],
      "stateMutability": "view",
      "type": "function"
    },
    {
      "inputs": [
        {
          "internalType": "address",
          "name": "_member",
          "type": "address"
        }
      ],
      "name": "getMemberBadge",
      "outputs": [
        {
          "internalType": "enum CommunityBadgeSystem.BadgeLevel",
          "name": "",
          "type": "uint8"
        }
      ],
      "stateMutability": "view",
      "type": "function"
    },
    {
      "inputs": [
        {
          "internalType": "address",
          "name": "_member",
          "type": "address"
        }
      ],
      "name": "getMemberBadgeDetails",
      "outputs": [
        {
          "internalType": "enum CommunityBadgeSystem.BadgeLevel",
          "name": "currentBadge",
          "type": "uint8"
        },
        {
          "internalType": "string",
          "name": "badgeName",
          "type": "string"
        },
        {
          "internalType": "string",
          "name": "iconURI",
          "type": "string"
        },
        {
          "internalType": "uint256",
          "name": "tokenReward",
          "type": "uint256"
        },
        {
          "internalType": "uint256",
          "name": "totalEventsAttended",
          "type": "uint256"
        }
      ],
      "stateMutability": "view",
      "type": "function"
    },
    {
      "inputs": [
        {
          "internalType": "uint256",
          "name": "_proposalId",
          "type": "uint256"
        }
      ],
      "name": "getProjectProposal",
      "outputs": [
        {
          "internalType": "address",
          "name": "creator",
          "type": "address"
        },
        {
          "internalType": "string",
          "name": "name",
          "type": "string"
        },
        {
          "internalType": "string",
          "name": "description",
          "type": "string"
        },
        {
          "internalType": "string",
          "name": "blockchain",
          "type": "string"
        },
        {
          "internalType": "uint256",
          "name": "requestedAmount",
          "type": "uint256"
        },
        {
          "internalType": "uint256",
          "name": "timeline",
          "type": "uint256"
        },
        {
          "internalType": "enum Community.ProjectStage",
          "name": "stage",
          "type": "uint8"
        },
        {
          "internalType": "bool",
          "name": "isApproved",
          "type": "bool"
        },
        {
          "internalType": "bool",
          "name": "isRejected",
          "type": "bool"
        },
        {
          "internalType": "string",
          "name": "rejectionReason",
          "type": "string"
        },
        {
          "internalType": "uint256",
          "name": "approvalCount",
          "type": "uint256"
        }
      ],
      "stateMutability": "view",
      "type": "function"
    },
    {
      "inputs": [
        {
          "internalType": "uint256",
          "name": "_proposalId",
          "type": "uint256"
        }
      ],
      "name": "getProjectTechStack",
      "outputs": [
        {
          "internalType": "string[]",
          "name": "",
          "type": "string[]"
        }
      ],
      "stateMutability": "view",
      "type": "function"
    },
    {
      "inputs": [
        {
          "internalType": "bytes32",
          "name": "role",
          "type": "bytes32"
        }
      ],
      "name": "getRoleAdmin",
      "outputs": [
        {
          "internalType": "bytes32",
          "name": "",
          "type": "bytes32"
        }
      ],
      "stateMutability": "view",
      "type": "function"
    },
    {
      "inputs": [
        {
          "internalType": "address",
          "name": "_member",
          "type": "address"
        }
      ],
      "name": "getTotalEventsAttended",
      "outputs": [
        {
          "internalType": "uint256",
          "name": "",
          "type": "uint256"
        }
      ],
      "stateMutability": "view",
      "type": "function"
    },
    {
      "inputs": [
        {
          "internalType": "bytes32",
          "name": "role",
          "type": "bytes32"
        },
        {
          "internalType": "address",
          "name": "account",
          "type": "address"
        }
      ],
      "name": "grantRole",
      "outputs": [],
      "stateMutability": "nonpayable",
      "type": "function"
    },
    {
      "inputs": [
        {
          "internalType": "address",
          "name": "_member",
          "type": "address"
        },
        {
          "internalType": "enum CommunityBadgeSystem.BadgeLevel",
          "name": "_badgeLevel",
          "type": "uint8"
        }
      ],
      "name": "hasBadge",
      "outputs": [
        {
          "internalType": "bool",
          "name": "",
          "type": "bool"
        }
      ],
      "stateMutability": "view",
      "type": "function"
    },
    {
      "inputs": [
        {
          "internalType": "bytes32",
          "name": "role",
          "type": "bytes32"
        },
        {
          "internalType": "address",
          "name": "account",
          "type": "address"
        }
      ],
      "name": "hasRole",
      "outputs": [
        {
          "internalType": "bool",
          "name": "",
          "type": "bool"
        }
      ],
      "stateMutability": "view",
      "type": "function"
    },
    {
      "inputs": [
        {
          "internalType": "address",
          "name": "",
          "type": "address"
        }
      ],
      "name": "isCommunityMember",
      "outputs": [
        {
          "internalType": "bool",
          "name": "",
          "type": "bool"
        }
      ],
      "stateMutability": "view",
      "type": "function"
    },
    {
      "inputs": [
        {
          "internalType": "address",
          "name": "",
          "type": "address"
        }
      ],
      "name": "isInReviewerPool",
      "outputs": [
        {
          "internalType": "bool",
          "name": "",
          "type": "bool"
        }
      ],
      "stateMutability": "view",
      "type": "function"
    },
    {
      "inputs": [
        {
          "internalType": "address",
          "name": "account",
          "type": "address"
        }
      ],
      "name": "isReviewer",
      "outputs": [
        {
          "internalType": "bool",
          "name": "",
          "type": "bool"
        }
      ],
      "stateMutability": "view",
      "type": "function"
    },
    {
      "inputs": [],
      "name": "joinCommunity",
      "outputs": [
        {
          "internalType": "bool",
          "name": "",
          "type": "bool"
        }
      ],
      "stateMutability": "nonpayable",
      "type": "function"
    },
    {
      "inputs": [
        {
          "internalType": "uint256",
          "name": "",
          "type": "uint256"
        }
      ],
      "name": "multiSigProposals",
      "outputs": [
        {
          "internalType": "uint256",
          "name": "id",
          "type": "uint256"
        },
        {
          "internalType": "address",
          "name": "proposer",
          "type": "address"
        },
        {
          "internalType": "address",
          "name": "targetContract",
          "type": "address"
        },
        {
          "internalType": "bytes",
          "name": "data",
          "type": "bytes"
        },
        {
          "internalType": "uint256",
          "name": "approvalCount",
          "type": "uint256"
        },
        {
          "internalType": "bool",
          "name": "executed",
          "type": "bool"
        }
      ],
      "stateMutability": "view",
      "type": "function"
    },
    {
      "inputs": [],
      "name": "name",
      "outputs": [
        {
          "internalType": "string",
          "name": "",
          "type": "string"
        }
      ],
      "stateMutability": "view",
      "type": "function"
    },
    {
      "inputs": [],
      "name": "nextAirdropId",
      "outputs": [
        {
          "internalType": "uint256",
          "name": "",
          "type": "uint256"
        }
      ],
      "stateMutability": "view",
      "type": "function"
    },
    {
      "inputs": [
        {
          "internalType": "uint256",
          "name": "_eventId",
          "type": "uint256"
        }
      ],
      "name": "participateInEvent",
      "outputs": [],
      "stateMutability": "nonpayable",
      "type": "function"
    },
    {
      "inputs": [
        {
          "internalType": "address",
          "name": "_contributor",
          "type": "address"
        },
        {
          "internalType": "uint256",
          "name": "_rewardAmount",
          "type": "uint256"
        }
      ],
      "name": "processCommunityRewards",
      "outputs": [],
      "stateMutability": "nonpayable",
      "type": "function"
    },
    {
      "inputs": [
        {
          "internalType": "uint256",
          "name": "",
          "type": "uint256"
        }
      ],
      "name": "projectProposals",
      "outputs": [
        {
          "internalType": "uint256",
          "name": "id",
          "type": "uint256"
        },
        {
          "internalType": "address",
          "name": "creator",
          "type": "address"
        },
        {
          "internalType": "string",
          "name": "name",
          "type": "string"
        },
        {
          "internalType": "string",
          "name": "description",
          "type": "string"
        },
        {
          "internalType": "string",
          "name": "blockchain",
          "type": "string"
        },
        {
          "internalType": "uint256",
          "name": "requestedAmount",
          "type": "uint256"
        },
        {
          "internalType": "uint256",
          "name": "timeline",
          "type": "uint256"
        },
        {
          "internalType": "enum Community.ProjectStage",
          "name": "stage",
          "type": "uint8"
        },
        {
          "internalType": "bool",
          "name": "isApproved",
          "type": "bool"
        },
        {
          "internalType": "bool",
          "name": "isRejected",
          "type": "bool"
        },
        {
          "internalType": "string",
          "name": "rejectionReason",
          "type": "string"
        },
        {
          "internalType": "uint256",
          "name": "approvalCount",
          "type": "uint256"
        }
      ],
      "stateMutability": "view",
      "type": "function"
    },
    {
      "inputs": [
        {
          "internalType": "uint256",
          "name": "_proposalId",
          "type": "uint256"
        },
        {
          "internalType": "string",
          "name": "_reason",
          "type": "string"
        }
      ],
      "name": "rejectProjectProposal",
      "outputs": [],
      "stateMutability": "nonpayable",
      "type": "function"
    },
    {
      "inputs": [
        {
          "internalType": "uint256",
          "name": "_proposalId",
          "type": "uint256"
        }
      ],
      "name": "releaseProjectFunding",
      "outputs": [],
      "stateMutability": "nonpayable",
      "type": "function"
    },
    {
      "inputs": [
        {
          "internalType": "address",
          "name": "approver",
          "type": "address"
        }
      ],
      "name": "removeMultiSigApprover",
      "outputs": [],
      "stateMutability": "nonpayable",
      "type": "function"
    },
    {
      "inputs": [
        {
          "internalType": "address",
          "name": "reviewer",
          "type": "address"
        }
      ],
      "name": "removeReviewer",
      "outputs": [],
      "stateMutability": "nonpayable",
      "type": "function"
    },
    {
      "inputs": [
        {
          "internalType": "bytes32",
          "name": "role",
          "type": "bytes32"
        },
        {
          "internalType": "address",
          "name": "callerConfirmation",
          "type": "address"
        }
      ],
      "name": "renounceRole",
      "outputs": [],
      "stateMutability": "nonpayable",
      "type": "function"
    },
    {
      "inputs": [
        {
          "internalType": "uint256",
          "name": "",
          "type": "uint256"
        }
      ],
      "name": "reviewerPool",
      "outputs": [
        {
          "internalType": "address",
          "name": "",
          "type": "address"
        }
      ],
      "stateMutability": "view",
      "type": "function"
    },
    {
      "inputs": [
        {
          "internalType": "bytes32",
          "name": "role",
          "type": "bytes32"
        },
        {
          "internalType": "address",
          "name": "account",
          "type": "address"
        }
      ],
      "name": "revokeRole",
      "outputs": [],
      "stateMutability": "nonpayable",
      "type": "function"
    },
    {
      "inputs": [
        {
          "internalType": "bytes4",
          "name": "interfaceId",
          "type": "bytes4"
        }
      ],
      "name": "supportsInterface",
      "outputs": [
        {
          "internalType": "bool",
          "name": "",
          "type": "bool"
        }
      ],
      "stateMutability": "view",
      "type": "function"
    },
    {
      "inputs": [],
      "name": "symbol",
      "outputs": [
        {
          "internalType": "string",
          "name": "",
          "type": "string"
        }
      ],
      "stateMutability": "view",
      "type": "function"
    },
    {
      "inputs": [],
      "name": "totalSupply",
      "outputs": [
        {
          "internalType": "uint256",
          "name": "",
          "type": "uint256"
        }
      ],
      "stateMutability": "view",
      "type": "function"
    },
    {
      "inputs": [
        {
          "internalType": "address",
          "name": "to",
          "type": "address"
        },
        {
          "internalType": "uint256",
          "name": "value",
          "type": "uint256"
        }
      ],
      "name": "transfer",
      "outputs": [
        {
          "internalType": "bool",
          "name": "",
          "type": "bool"
        }
      ],
      "stateMutability": "nonpayable",
      "type": "function"
    },
    {
      "inputs": [
        {
          "internalType": "address",
          "name": "from",
          "type": "address"
        },
        {
          "internalType": "address",
          "name": "to",
          "type": "address"
        },
        {
          "internalType": "uint256",
          "name": "value",
          "type": "uint256"
        }
      ],
      "name": "transferFrom",
      "outputs": [
        {
          "internalType": "bool",
          "name": "",
          "type": "bool"
        }
      ],
      "stateMutability": "nonpayable",
      "type": "function"
    }
  ],
  "bytecode": "0x608060405234801561001057600080fd5b5060405161a2b938038061a2b983398181016040528101906100329190610b55565b806040518060400160405280600a81526020017f4142594120544f4b454e000000000000000000000000000000000000000000008152506040518060400160405280600681526020017f414259544b4e000000000000000000000000000000000000000000000000000081525081600390816100ae9190610dbf565b5080600490816100be9190610dbf565b505050600160068190555060048151101561010e576040517f08c379a000000000000000000000000000000000000000000000000000000000815260040161010590610f14565b60405180910390fd5b6101216000801b3361081960201b60201c565b506101527fdf1425bae297c2f52b4f15d18a50b1fc8cb5b981a981b1d213ed3ff92681b64d3361081960201b60201c565b5060005b81518110156102a6576101a97fc10c77be35aff266144ed64c26a1fa104bae2f284ae99ac4a34203454704a18583838151811061019657610195610f34565b5b602002602001015161081960201b60201c565b5060078282815181106101bf576101be610f34565b5b60200260200101519080600181540180825580915050600190039060005260206000200160009091909190916101000a81548173ffffffffffffffffffffffffffffffffffffffff021916908373ffffffffffffffffffffffffffffffffffffffff1602179055506001600960008484815181106102405761023f610f34565b5b602002602001015173ffffffffffffffffffffffffffffffffffffffff1673ffffffffffffffffffffffffffffffffffffffff16815260200190815260200160002060006101000a81548160ff0219169083151502179055508080600101915050610156565b505060405180606001604052806040518060400160405280600881526020017f4e6577636f6d657200000000000000000000000000000000000000000000000081525081526020016040518060400160405280601a81526020017f697066733a2f2f6e6577636f6d65722d62616467652d69636f6e00000000000081525081526020016000815250600c600080600481111561034557610344610f63565b5b600481111561035757610356610f63565b5b8152602001908152602001600020600082015181600001908161037a9190610dbf565b5060208201518160010190816103909190610dbf565b506040820151816002015590505060405180606001604052806040518060400160405280600b81526020017f5061727469636970616e7400000000000000000000000000000000000000000081525081526020016040518060400160405280601d81526020017f697066733a2f2f7061727469636970616e742d62616467652d69636f6e0000008152508152602001670de0b6b3a7640000815250600c60006001600481111561044357610442610f63565b5b600481111561045557610454610f63565b5b815260200190815260200160002060008201518160000190816104789190610dbf565b50602082015181600101908161048e9190610dbf565b506040820151816002015590505060405180606001604052806040518060400160405280600b81526020017f436f6e7472696275746f7200000000000000000000000000000000000000000081525081526020016040518060400160405280601d81526020017f697066733a2f2f636f6e7472696275746f722d62616467652d69636f6e0000008152508152602001671bc16d674ec80000815250600c60006002600481111561054157610540610f63565b5b600481111561055357610552610f63565b5b815260200190815260200160002060008201518160000190816105769190610dbf565b50602082015181600101908161058c9190610dbf565b506040820151816002015590505060405180606001604052806040518060400160405280600681526020017f4c6561646572000000000000000000000000000000000000000000000000000081525081526020016040518060400160405280601881526020017f697066733a2f2f6c65616465722d62616467652d69636f6e000000000000000081525081526020016729a2241af62c0000815250600c60006003600481111561063f5761063e610f63565b5b600481111561065157610650610f63565b5b815260200190815260200160002060008201518160000190816106749190610dbf565b50602082015181600101908161068a9190610dbf565b506040820151816002015590505060405180606001604052806040518060400160405280600881526020017f4368616d70696f6e00000000000000000000000000000000000000000000000081525081526020016040518060400160405280601a81526020017f697066733a2f2f6368616d70696f6e2d62616467652d69636f6e0000000000008152508152602001673782dace9d900000815250600c600060048081111561073c5761073b610f63565b5b600481111561074e5761074d610f63565b5b815260200190815260200160002060008201518160000190816107719190610dbf565b5060208201518160010190816107879190610dbf565b50604082015181600201559050506107a86000801b3361081960201b60201c565b506107d97fc295d8a2f69016465f61012796a38346423f02058e9c426f8bc1d946bc8c84703361081960201b60201c565b5061080a7fdf1425bae297c2f52b4f15d18a50b1fc8cb5b981a981b1d213ed3ff92681b64d3361081960201b60201c565b506001600f8190555050610f92565b600061082b838361091760201b60201c565b61090c5760016005600085815260200190815260200160002060000160008473ffffffffffffffffffffffffffffffffffffffff1673ffffffffffffffffffffffffffffffffffffffff16815260200190815260200160002060006101000a81548160ff0219169083151502179055506108a961098260201b60201c565b73ffffffffffffffffffffffffffffffffffffffff168273ffffffffffffffffffffffffffffffffffffffff16847f2f8788117e7eff1d82e926ec794901d17c78024a50270940304540a733656f0d60405160405180910390a460019050610911565b600090505b92915050565b60006005600084815260200190815260200160002060000160008373ffffffffffffffffffffffffffffffffffffffff1673ffffffffffffffffffffffffffffffffffffffff16815260200190815260200160002060009054906101000a900460ff16905092915050565b600033905090565b6000604051905090565b600080fd5b600080fd5b600080fd5b6000601f19601f8301169050919050565b7f4e487b7100000000000000000000000000000000000000000000000000000000600052604160045260246000fd5b6109ec826109a3565b810181811067ffffffffffffffff82111715610a0b57610a0a6109b4565b5b80604052505050565b6000610a1e61098a565b9050610a2a82826109e3565b919050565b600067ffffffffffffffff821115610a4a57610a496109b4565b5b602082029050602081019050919050565b600080fd5b600073ffffffffffffffffffffffffffffffffffffffff82169050919050565b6000610a8b82610a60565b9050919050565b610a9b81610a80565b8114610aa657600080fd5b50565b600081519050610ab881610a92565b92915050565b6000610ad1610acc84610a2f565b610a14565b90508083825260208201905060208402830185811115610af457610af3610a5b565b5b835b81811015610b1d5780610b098882610aa9565b845260208401935050602081019050610af6565b5050509392505050565b600082601f830112610b3c57610b3b61099e565b5b8151610b4c848260208601610abe565b91505092915050565b600060208284031215610b6b57610b6a610994565b5b600082015167ffffffffffffffff811115610b8957610b88610999565b5b610b9584828501610b27565b91505092915050565b600081519050919050565b7f4e487b7100000000000000000000000000000000000000000000000000000000600052602260045260246000fd5b60006002820490506001821680610bf057607f821691505b602082108103610c0357610c02610ba9565b5b50919050565b60008190508160005260206000209050919050565b60006020601f8301049050919050565b600082821b905092915050565b600060088302610c6b7fffffffffffffffffffffffffffffffffffffffffffffffffffffffffffffffff82610c2e565b610c758683610c2e565b95508019841693508086168417925050509392505050565b6000819050919050565b6000819050919050565b6000610cbc610cb7610cb284610c8d565b610c97565b610c8d565b9050919050565b6000819050919050565b610cd683610ca1565b610cea610ce282610cc3565b848454610c3b565b825550505050565b600090565b610cff610cf2565b610d0a818484610ccd565b505050565b5b81811015610d2e57610d23600082610cf7565b600181019050610d10565b5050565b601f821115610d7357610d4481610c09565b610d4d84610c1e565b81016020851015610d5c578190505b610d70610d6885610c1e565b830182610d0f565b50505b505050565b600082821c905092915050565b6000610d9660001984600802610d78565b1980831691505092915050565b6000610daf8383610d85565b9150826002028217905092915050565b610dc882610b9e565b67ffffffffffffffff811115610de157610de06109b4565b5b610deb8254610bd8565b610df6828285610d32565b600060209050601f831160018114610e295760008415610e17578287015190505b610e218582610da3565b865550610e89565b601f198416610e3786610c09565b60005b82811015610e5f57848901518255600182019150602085019450602081019050610e3a565b86831015610e7c5784890151610e78601f891682610d85565b8355505b6001600288020188555050505b505050505050565b600082825260208201905092915050565b7f4174206c6561737420342072657669657765727320617265207265717569726560008201527f6400000000000000000000000000000000000000000000000000000000000000602082015250565b6000610efe602183610e91565b9150610f0982610ea2565b604082019050919050565b60006020820190508181036000830152610f2d81610ef1565b9050919050565b7f4e487b7100000000000000000000000000000000000000000000000000000000600052603260045260246000fd5b7f4e487b7100000000000000000000000000000000000000000000000000000000600052602160045260246000fd5b61931880610fa16000396000f3fe608060405234801561001057600080fd5b50600436106104745760003560e01c806370a0823111610257578063ca8c4d8a11610146578063de736b7f116100c3578063fad2c5f211610087578063fad2c5f214610f33578063fba2e31014610f4f578063fc856cc614610f7f578063fd55dd9214610faf578063fdc6258a14610fcd57610474565b8063de736b7f14610e78578063e30d444014610ead578063effad04014610ec9578063f5ac902014610ee7578063f7dc3d5f14610f1757610474565b8063d63ab6581161010a578063d63ab65814610db5578063d7b999c714610dd1578063dbc1d56914610def578063dcdc510c14610e2a578063dd62ed3e14610e4857610474565b8063ca8c4d8a14610cff578063ca98e49e14610d2f578063cd774e3714610d5f578063d171d04914610d7b578063d547741f14610d9957610474565b8063a110fc49116101d4578063b519342511610198578063b519342514610c5b578063bad0dd6514610c79578063bfa0536114610c95578063c491b04c14610cb3578063c9442dac14610ce357610474565b8063a110fc4914610bb3578063a217fddf14610bd1578063a9059cbb14610bef578063aeb47e2a14610c1f578063aff38dc814610c3d57610474565b80638c95aef91161021b5780638c95aef914610ae7578063914e72a614610b1957806391d1485414610b4957806395d89b4114610b7957806399bfd6c114610b9757610474565b806370a0823114610a2d5780637125a07b14610a5d57806373a82b5f14610a91578063797df99614610aad5780638b8641a914610ac957610474565b80632f2ff15d11610373578063446ab660116102f057806356a474e4116102b457806356a474e41461094b5780635fc610011461098557806361ac05e2146109bf57806361ac7e61146109dd5780637025aac6146109fb57610474565b8063446ab660146108cd5780634d6ca5d5146108eb5780634e8604961461090757806350447e5e1461092357806352994e2f1461092d57610474565b806333df7e341161033757806333df7e341461081057806336568abe1461082e5780633af0c6881461084a5780633b129a561461087a57806340932bf81461089857610474565b80632f2ff15d1461076a5780632f676b6514610786578063313ce567146107b657806332cb6b0c146107d45780633387f0c5146107f257610474565b806319656f7b116104015780632298de01116103c55780632298de011461067a57806323b872dd146106aa578063248a9ca3146106da578063248cd8101461070a5780632899df2b1461073a57610474565b806319656f7b146105ab57806319f102ec146105c75780631a9c005f146105f75780631c6d53651461062c5780631e3edfd91461065c57610474565b80630d74f38a116104485780630d74f38a146105155780630e75a370146105335780630ed1d5cb146105515780630fb6d46a1461056f57806318160ddd1461058d57610474565b8062b16fee1461047957806301ffc9a71461049757806306fdde03146104c7578063095ea7b3146104e5575b600080fd5b610481610ffd565b60405161048e919061653d565b60405180910390f35b6104b160048036038101906104ac91906165c4565b61119a565b6040516104be919061653d565b60405180910390f35b6104cf611214565b6040516104dc9190616681565b60405180910390f35b6104ff60048036038101906104fa9190616737565b6112a6565b60405161050c919061653d565b60405180910390f35b61051d6112c9565b60405161052a9190616786565b60405180910390f35b61053b6112d5565b6040516105489190616786565b60405180910390f35b6105596112e1565b6040516105669190616786565b60405180910390f35b6105776112e6565b6040516105849190616786565b60405180910390f35b6105956112eb565b6040516105a29190616786565b60405180910390f35b6105c560048036038101906105c091906167a1565b6112f5565b005b6105e160048036038101906105dc91906167ce565b611331565b6040516105ee919061680a565b60405180910390f35b610611600480360381019061060c91906167ce565b611370565b60405161062396959493929190616825565b60405180910390f35b61064660048036038101906106419190616ac6565b6113b9565b6040516106539190616786565b60405180910390f35b6106646116ab565b6040516106719190616786565b60405180910390f35b610694600480360381019061068f91906167ce565b6116b7565b6040516106a1919061680a565b60405180910390f35b6106c460048036038101906106bf9190616bd8565b6116f6565b6040516106d1919061653d565b60405180910390f35b6106f460048036038101906106ef9190616c61565b611725565b6040516107019190616c9d565b60405180910390f35b610724600480360381019061071f9190616ce4565b611745565b6040516107319190616786565b60405180910390f35b610754600480360381019061074f9190616dff565b6118c8565b6040516107619190616edc565b60405180910390f35b610784600480360381019061077f9190616efe565b611a47565b005b6107a0600480360381019061079b91906167a1565b611a69565b6040516107ad919061653d565b60405180910390f35b6107be611a89565b6040516107cb9190616f5a565b60405180910390f35b6107dc611a92565b6040516107e99190616786565b60405180910390f35b6107fa611aa2565b6040516108079190617033565b60405180910390f35b610818611b30565b6040516108259190616786565b60405180910390f35b61084860048036038101906108439190616efe565b611b3c565b005b610864600480360381019061085f9190617055565b611bb7565b604051610871919061653d565b60405180910390f35b610882611c38565b60405161088f9190616c9d565b60405180910390f35b6108b260048036038101906108ad91906167ce565b611c5c565b6040516108c4969594939291906170ea565b60405180910390f35b6108d5611d6d565b6040516108e2919061728b565b60405180910390f35b610905600480360381019061090091906167a1565b611e90565b005b610921600480360381019061091c91906167ce565b611ecc565b005b61092b612057565b005b6109356120c0565b6040516109429190616c9d565b60405180910390f35b610965600480360381019061096091906167ce565b6120e4565b60405161097c9b9a99989796959493929190617324565b60405180910390f35b61099f600480360381019061099a91906167ce565b6123dd565b6040516109b69b9a999897969594939291906173eb565b60405180910390f35b6109c7612609565b6040516109d49190616786565b60405180910390f35b6109e5612649565b6040516109f29190616c9d565b60405180910390f35b610a156004803603810190610a109190616dff565b61266d565b604051610a24939291906174ab565b60405180910390f35b610a476004803603810190610a4291906167a1565b6127a7565b604051610a549190616786565b60405180910390f35b610a776004803603810190610a7291906167a1565b6127ef565b604051610a88959493929190617538565b60405180910390f35b610aab6004803603810190610aa691906167a1565b6129ef565b005b610ac76004803603810190610ac291906167ce565b612bd3565b005b610ad1612d96565b604051610ade9190617861565b60405180910390f35b610b016004803603810190610afc91906167a1565b61323c565b604051610b1093929190617883565b60405180910390f35b610b336004803603810190610b2e91906167a1565b613273565b604051610b409190616786565b60405180910390f35b610b636004803603810190610b5e9190616efe565b6132bf565b604051610b70919061653d565b60405180910390f35b610b8161332a565b604051610b8e9190616681565b60405180910390f35b610bb16004803603810190610bac91906167ce565b6133bc565b005b610bbb6134bc565b604051610bc89190616786565b60405180910390f35b610bd96134c2565b604051610be69190616c9d565b60405180910390f35b610c096004803603810190610c049190616737565b6134c9565b604051610c16919061653d565b60405180910390f35b610c276134ec565b604051610c349190616786565b60405180910390f35b610c45613514565b604051610c529190616786565b60405180910390f35b610c6361351a565b604051610c709190616786565b60405180910390f35b610c936004803603810190610c8e91906167ce565b61351f565b005b610c9d61381e565b604051610caa9190616786565b60405180910390f35b610ccd6004803603810190610cc891906167a1565b613823565b604051610cda919061653d565b60405180910390f35b610cfd6004803603810190610cf891906167a1565b613843565b005b610d196004803603810190610d1491906167ce565b613b2d565b604051610d269190617940565b60405180910390f35b610d496004803603810190610d4491906167a1565b613c1c565b604051610d569190617962565b60405180910390f35b610d796004803603810190610d74919061797d565b613c75565b005b610d83613dc7565b604051610d909190616786565b60405180910390f35b610db36004803603810190610dae9190616efe565b613dcd565b005b610dcf6004803603810190610dca91906167ce565b613def565b005b610dd96140ef565b604051610de69190616786565b60405180910390f35b610e096004803603810190610e0491906167ce565b6140f5565b604051610e219c9b9a999897969594939291906179d9565b60405180910390f35b610e326143bc565b604051610e3f9190617c6e565b60405180910390f35b610e626004803603810190610e5d9190617c90565b6146ef565b604051610e6f9190616786565b60405180910390f35b610e926004803603810190610e8d91906167ce565b614776565b604051610ea496959493929190616825565b60405180910390f35b610ec76004803603810190610ec291906167ce565b6147d7565b005b610ed1614aab565b604051610ede9190616786565b60405180910390f35b610f016004803603810190610efc9190617cd0565b614ab7565b604051610f0e919061653d565b60405180910390f35b610f316004803603810190610f2c91906167ce565b614cab565b005b610f4d6004803603810190610f489190616737565b614fd0565b005b610f696004803603810190610f6491906167a1565b6150a3565b604051610f769190616786565b60405180910390f35b610f996004803603810190610f949190616737565b6150bb565b604051610fa6919061653d565b60405180910390f35b610fb761518f565b604051610fc49190617962565b60405180910390f35b610fe76004803603810190610fe291906167a1565b61519f565b604051610ff4919061653d565b60405180910390f35b6000601360003373ffffffffffffffffffffffffffffffffffffffff1673ffffffffffffffffffffffffffffffffffffffff16815260200190815260200160002060009054906101000a900460ff161561108c576040517f08c379a000000000000000000000000000000000000000000000000000000000815260040161108390617d6f565b60405180910390fd5b601a339080600181540180825580915050600190039060005260206000200160009091909190916101000a81548173ffffffffffffffffffffffffffffffffffffffff021916908373ffffffffffffffffffffffffffffffffffffffff1602179055506001601360003373ffffffffffffffffffffffffffffffffffffffff1673ffffffffffffffffffffffffffffffffffffffff16815260200190815260200160002060006101000a81548160ff021916908315150217905550611150336151d2565b3373ffffffffffffffffffffffffffffffffffffffff167f49b628a727a909471e7c6bcba2122134da6a8e649acce3b2cd8df34ffb98c86c60405160405180910390a26001905090565b60007f7965db0b000000000000000000000000000000000000000000000000000000007bffffffffffffffffffffffffffffffffffffffffffffffffffffffff1916827bffffffffffffffffffffffffffffffffffffffffffffffffffffffff1916148061120d575061120c82615298565b5b9050919050565b60606003805461122390617dbe565b80601f016020809104026020016040519081016040528092919081815260200182805461124f90617dbe565b801561129c5780601f106112715761010080835404028352916020019161129c565b820191906000526020600020905b81548152906001019060200180831161127f57829003601f168201915b5050505050905090565b6000806112b1615302565b90506112be81858561530a565b600191505092915050565b6729a2241af62c000081565b671bc16d674ec8000081565b600381565b600181565b6000600254905090565b6000801b6113028161531c565b61132c7fdf1425bae297c2f52b4f15d18a50b1fc8cb5b981a981b1d213ed3ff92681b64d83615330565b505050565b6007818154811061134157600080fd5b906000526020600020016000915054906101000a900473ffffffffffffffffffffffffffffffffffffffff1681565b60176020528060005260406000206000915090508060000154908060010154908060020154908060030154908060040160009054906101000a900460ff16908060050154905086565b60006113c3615423565b601360003373ffffffffffffffffffffffffffffffffffffffff1673ffffffffffffffffffffffffffffffffffffffff16815260200190815260200160002060009054906101000a900460ff1661144f576040517f08c379a000000000000000000000000000000000000000000000000000000000815260040161144690617e61565b60405180910390fd5b606460056064600a6b204fce5e3e2502611000000061146e9190617eb0565b6114789190617f21565b6114829190617eb0565b61148c9190617f21565b8411156114ce576040517f08c379a00000000000000000000000000000000000000000000000000000000081526004016114c590617fc4565b60405180910390fd5b600060146000601b5481526020019081526020016000209050601b548160000181905550338160010160006101000a81548173ffffffffffffffffffffffffffffffffffffffff021916908373ffffffffffffffffffffffffffffffffffffffff160217905550888160020190816115469190618190565b50878160030190816115589190618190565b50868160040190805190602001906115719291906162e7565b50858160050190816115839190618190565b50848160060181905550838160070181905550828160080160006101000a81548160ff021916908360058111156115bd576115bc6172ad565b5b021790555060008160080160016101000a81548160ff02191690831515021790555060008160080160026101000a81548160ff0219169083151502179055506040518060200160405280600081525081600901908161161c9190618190565b50600081600a0181905550601b600081548092919061163a90618262565b91905055503373ffffffffffffffffffffffffffffffffffffffff16601b547f173a3a7373ea0492f4cb0f9ba4740561e11b1ae3864f095bee87e52d9925bb878b8860405161168a9291906182aa565b60405180910390a3601b549150506116a0615469565b979650505050505050565b6729a2241af62c000081565b601a81815481106116c757600080fd5b906000526020600020016000915054906101000a900473ffffffffffffffffffffffffffffffffffffffff1681565b600080611701615302565b905061170e858285615473565b611719858585615508565b60019150509392505050565b600060056000838152602001908152602001600020600101549050919050565b60007fc295d8a2f69016465f61012796a38346423f02058e9c426f8bc1d946bc8c84706117718161531c565b60006018600081548092919061178690618262565b91905055905060006011600083815260200190815260200160002090508181600001819055508a8160010190816117bd9190618190565b50338160020160006101000a81548173ffffffffffffffffffffffffffffffffffffffff021916908373ffffffffffffffffffffffffffffffffffffffff16021790555089816003018190555088816004018190555087816005018190555060018160070160006101000a81548160ff021916908315150217905550868160070160016101000a81548160ff021916908315150217905550858160080190816118669190618190565b50848160090190816118789190618190565b50817fec38f747b0aa7c21a8a9bdec175eb246baf6e36e70d7e24434e272b2ba6a362a8c338a8a6040516118af94939291906182da565b60405180910390a2819350505050979650505050505050565b6118d0616340565b600c60008360048111156118e7576118e66172ad565b5b60048111156118f9576118f86172ad565b5b815260200190815260200160002060405180606001604052908160008201805461192290617dbe565b80601f016020809104026020016040519081016040528092919081815260200182805461194e90617dbe565b801561199b5780601f106119705761010080835404028352916020019161199b565b820191906000526020600020905b81548152906001019060200180831161197e57829003601f168201915b505050505081526020016001820180546119b490617dbe565b80601f01602080910402602001604051908101604052809291908181526020018280546119e090617dbe565b8015611a2d5780601f10611a0257610100808354040283529160200191611a2d565b820191906000526020600020905b815481529060010190602001808311611a1057829003601f168201915b505050505081526020016002820154815250509050919050565b611a5082611725565b611a598161531c565b611a6383836155fc565b50505050565b60136020528060005260406000206000915054906101000a900460ff1681565b60006012905090565b6b204fce5e3e2502611000000081565b6060601a805480602002602001604051908101604052809291908181526020018280548015611b2657602002820191906000526020600020905b8160009054906101000a900473ffffffffffffffffffffffffffffffffffffffff1673ffffffffffffffffffffffffffffffffffffffff1681526020019060010190808311611adc575b5050505050905090565b673782dace9d90000081565b611b44615302565b73ffffffffffffffffffffffffffffffffffffffff168173ffffffffffffffffffffffffffffffffffffffff1614611ba8576040517f6697b23200000000000000000000000000000000000000000000000000000000815260040160405180910390fd5b611bb28282615330565b505050565b6000816004811115611bcc57611bcb6172ad565b5b600b60008573ffffffffffffffffffffffffffffffffffffffff1673ffffffffffffffffffffffffffffffffffffffff16815260200190815260200160002060020160009054906101000a900460ff166004811115611c2e57611c2d6172ad565b5b1015905092915050565b7fc10c77be35aff266144ed64c26a1fa104bae2f284ae99ac4a34203454704a18581565b600a6020528060005260406000206000915090508060000154908060010160009054906101000a900473ffffffffffffffffffffffffffffffffffffffff16908060020160009054906101000a900473ffffffffffffffffffffffffffffffffffffffff1690806003018054611cd190617dbe565b80601f0160208091040260200160405190810160405280929190818152602001828054611cfd90617dbe565b8015611d4a5780601f10611d1f57610100808354040283529160200191611d4a565b820191906000526020600020905b815481529060010190602001808311611d2d57829003601f168201915b5050505050908060040154908060050160009054906101000a900460ff16905086565b606060006001600f54611d80919061832d565b905060008167ffffffffffffffff811115611d9e57611d9d616890565b5b604051908082528060200260200182016040528015611dd757816020015b611dc4616361565b815260200190600190039081611dbc5790505b50905060005b82811015611e875760176000600183611df69190618361565b81526020019081526020016000206040518060c0016040529081600082015481526020016001820154815260200160028201548152602001600382015481526020016004820160009054906101000a900460ff16151515158152602001600582015481525050828281518110611e6f57611e6e618395565b5b60200260200101819052508080600101915050611ddd565b50809250505090565b6000801b611e9d8161531c565b611ec77fdf1425bae297c2f52b4f15d18a50b1fc8cb5b981a981b1d213ed3ff92681b64d836155fc565b505050565b611ed4615423565b60006011600083815260200190815260200160002090508060070160009054906101000a900460ff16611f3c576040517f08c379a0000000000000000000000000000000000000000000000000000000008152600401611f3390618410565b60405180910390fd5b80600301544210158015611f54575080600401544211155b611f93576040517f08c379a0000000000000000000000000000000000000000000000000000000008152600401611f8a9061847c565b60405180910390fd5b8060050154816006015410611fdd576040517f08c379a0000000000000000000000000000000000000000000000000000000008152600401611fd4906184e8565b60405180910390fd5b806006016000815480929190611ff290618262565b9190505550612000336151d2565b612012336729a2241af62c00006156ee565b50817f1f74d05223b014a6b1d3023900443d2b2a4a803f39310427d60b87fc476dac0333604051612043919061680a565b60405180910390a250612054615469565b50565b6000600b60003373ffffffffffffffffffffffffffffffffffffffff1673ffffffffffffffffffffffffffffffffffffffff168152602001908152602001600020905060006120a53361584a565b905060008111156120bc576120ba33826156ee565b505b5050565b7fdf1425bae297c2f52b4f15d18a50b1fc8cb5b981a981b1d213ed3ff92681b64d81565b6000606080606060008060008060006060600080601460008e815260200190815260200160002090508060010160009054906101000a900473ffffffffffffffffffffffffffffffffffffffff16816002018260030183600501846006015485600701548660080160009054906101000a900460ff168760080160019054906101000a900460ff168860080160029054906101000a900460ff16896009018a600a015489805461219390617dbe565b80601f01602080910402602001604051908101604052809291908181526020018280546121bf90617dbe565b801561220c5780601f106121e15761010080835404028352916020019161220c565b820191906000526020600020905b8154815290600101906020018083116121ef57829003601f168201915b5050505050995088805461221f90617dbe565b80601f016020809104026020016040519081016040528092919081815260200182805461224b90617dbe565b80156122985780601f1061226d57610100808354040283529160200191612298565b820191906000526020600020905b81548152906001019060200180831161227b57829003601f168201915b505050505098508780546122ab90617dbe565b80601f01602080910402602001604051908101604052809291908181526020018280546122d790617dbe565b80156123245780601f106122f957610100808354040283529160200191612324565b820191906000526020600020905b81548152906001019060200180831161230757829003601f168201915b5050505050975081805461233790617dbe565b80601f016020809104026020016040519081016040528092919081815260200182805461236390617dbe565b80156123b05780601f10612385576101008083540402835291602001916123b0565b820191906000526020600020905b81548152906001019060200180831161239357829003601f168201915b505050505091509b509b509b509b509b509b509b509b509b509b509b505091939597999b90929496989a50565b601160205280600052604060002060009150905080600001549080600101805461240690617dbe565b80601f016020809104026020016040519081016040528092919081815260200182805461243290617dbe565b801561247f5780601f106124545761010080835404028352916020019161247f565b820191906000526020600020905b81548152906001019060200180831161246257829003601f168201915b5050505050908060020160009054906101000a900473ffffffffffffffffffffffffffffffffffffffff16908060030154908060040154908060050154908060060154908060070160009054906101000a900460ff16908060070160019054906101000a900460ff16908060080180546124f890617dbe565b80601f016020809104026020016040519081016040528092919081815260200182805461252490617dbe565b80156125715780601f1061254657610100808354040283529160200191612571565b820191906000526020600020905b81548152906001019060200180831161255457829003601f168201915b50505050509080600901805461258690617dbe565b80601f01602080910402602001604051908101604052809291908181526020018280546125b290617dbe565b80156125ff5780601f106125d4576101008083540402835291602001916125ff565b820191906000526020600020905b8154815290600101906020018083116125e257829003601f168201915b505050505090508b565b606460056064600a6b204fce5e3e250261100000006126289190617eb0565b6126329190617f21565b61263c9190617eb0565b6126469190617f21565b81565b7fc295d8a2f69016465f61012796a38346423f02058e9c426f8bc1d946bc8c847081565b600c60205280600052604060002060009150905080600001805461269090617dbe565b80601f01602080910402602001604051908101604052809291908181526020018280546126bc90617dbe565b80156127095780601f106126de57610100808354040283529160200191612709565b820191906000526020600020905b8154815290600101906020018083116126ec57829003601f168201915b50505050509080600101805461271e90617dbe565b80601f016020809104026020016040519081016040528092919081815260200182805461274a90617dbe565b80156127975780601f1061276c57610100808354040283529160200191612797565b820191906000526020600020905b81548152906001019060200180831161277a57829003601f168201915b5050505050908060020154905083565b60008060008373ffffffffffffffffffffffffffffffffffffffff1673ffffffffffffffffffffffffffffffffffffffff168152602001908152602001600020549050919050565b60006060806000806000600b60008873ffffffffffffffffffffffffffffffffffffffff1673ffffffffffffffffffffffffffffffffffffffff168152602001908152602001600020905060008160020160009054906101000a900460ff1690506000600c6000836004811115612869576128686172ad565b5b600481111561287b5761287a6172ad565b5b81526020019081526020016000206040518060600160405290816000820180546128a490617dbe565b80601f01602080910402602001604051908101604052809291908181526020018280546128d090617dbe565b801561291d5780601f106128f25761010080835404028352916020019161291d565b820191906000526020600020905b81548152906001019060200180831161290057829003601f168201915b5050505050815260200160018201805461293690617dbe565b80601f016020809104026020016040519081016040528092919081815260200182805461296290617dbe565b80156129af5780601f10612984576101008083540402835291602001916129af565b820191906000526020600020905b81548152906001019060200180831161299257829003601f168201915b5050505050815260200160028201548152505090508181600001518260200151836040015186600001549750975097509750975050505091939590929450565b7fc10c77be35aff266144ed64c26a1fa104bae2f284ae99ac4a34203454704a185612a198161531c565b600960008373ffffffffffffffffffffffffffffffffffffffff1673ffffffffffffffffffffffffffffffffffffffff16815260200190815260200160002060009054906101000a900460ff1615612aa6576040517f08c379a0000000000000000000000000000000000000000000000000000000008152600401612a9d90618554565b60405180910390fd5b612ad07fc10c77be35aff266144ed64c26a1fa104bae2f284ae99ac4a34203454704a185836155fc565b506007829080600181540180825580915050600190039060005260206000200160009091909190916101000a81548173ffffffffffffffffffffffffffffffffffffffff021916908373ffffffffffffffffffffffffffffffffffffffff1602179055506001600960008473ffffffffffffffffffffffffffffffffffffffff1673ffffffffffffffffffffffffffffffffffffffff16815260200190815260200160002060006101000a81548160ff0219169083151502179055508173ffffffffffffffffffffffffffffffffffffffff167fe1cb5e1230cc02e62c60b81c1aa5ade512f3eac296edb28628b4cf344f47f93160405160405180910390a25050565b60006014600083815260200190815260200160002090508060080160019054906101000a900460ff16612c3b576040517f08c379a0000000000000000000000000000000000000000000000000000000008152600401612c32906185c0565b60405180910390fd5b606460056064600a6b204fce5e3e25026110000000612c5a9190617eb0565b612c649190617f21565b612c6e9190617eb0565b612c789190617f21565b8160060154600e54612c8a9190618361565b1115612ccb576040517f08c379a0000000000000000000000000000000000000000000000000000000008152600401612cc290618652565b60405180910390fd5b612cfd8160010160009054906101000a900473ffffffffffffffffffffffffffffffffffffffff1682600601546156ee565b508060060154600e6000828254612d149190618361565b925050819055508060010160009054906101000a900473ffffffffffffffffffffffffffffffffffffffff1673ffffffffffffffffffffffffffffffffffffffff16827fb6f8562765b5da161636b79e56625b1a7d0d9726ee1065cee4bf966980894c708360060154604051612d8a9190616786565b60405180910390a35050565b60606000601b54905060008167ffffffffffffffff811115612dbb57612dba616890565b5b604051908082528060200260200182016040528015612df457816020015b612de1616399565b815260200190600190039081612dd95790505b50905060005b82811015613233576000601460008381526020019081526020016000209050604051806101a00160405280826000015481526020018260010160009054906101000a900473ffffffffffffffffffffffffffffffffffffffff1673ffffffffffffffffffffffffffffffffffffffff168152602001826002018054612e7e90617dbe565b80601f0160208091040260200160405190810160405280929190818152602001828054612eaa90617dbe565b8015612ef75780601f10612ecc57610100808354040283529160200191612ef7565b820191906000526020600020905b815481529060010190602001808311612eda57829003601f168201915b50505050508152602001826003018054612f1090617dbe565b80601f0160208091040260200160405190810160405280929190818152602001828054612f3c90617dbe565b8015612f895780601f10612f5e57610100808354040283529160200191612f89565b820191906000526020600020905b815481529060010190602001808311612f6c57829003601f168201915b5050505050815260200182600401805480602002602001604051908101604052809291908181526020016000905b82821015613063578382906000526020600020018054612fd690617dbe565b80601f016020809104026020016040519081016040528092919081815260200182805461300290617dbe565b801561304f5780601f106130245761010080835404028352916020019161304f565b820191906000526020600020905b81548152906001019060200180831161303257829003601f168201915b505050505081526020019060010190612fb7565b50505050815260200182600501805461307b90617dbe565b80601f01602080910402602001604051908101604052809291908181526020018280546130a790617dbe565b80156130f45780601f106130c9576101008083540402835291602001916130f4565b820191906000526020600020905b8154815290600101906020018083116130d757829003601f168201915b5050505050815260200182600601548152602001826007015481526020018260080160009054906101000a900460ff166005811115613136576131356172ad565b5b81526020018260080160019054906101000a900460ff16151581526020018260080160029054906101000a900460ff161515815260200182600901805461317c90617dbe565b80601f01602080910402602001604051908101604052809291908181526020018280546131a890617dbe565b80156131f55780601f106131ca576101008083540402835291602001916131f5565b820191906000526020600020905b8154815290600101906020018083116131d857829003601f168201915b5050505050815260200182600a015481525083838151811061321a57613219618395565b5b6020026020010181905250508080600101915050612dfa565b50809250505090565b600b6020528060005260406000206000915090508060000154908060010154908060020160009054906101000a900460ff16905083565b6000600b60008373ffffffffffffffffffffffffffffffffffffffff1673ffffffffffffffffffffffffffffffffffffffff168152602001908152602001600020600001549050919050565b60006005600084815260200190815260200160002060000160008373ffffffffffffffffffffffffffffffffffffffff1673ffffffffffffffffffffffffffffffffffffffff16815260200190815260200160002060009054906101000a900460ff16905092915050565b60606004805461333990617dbe565b80601f016020809104026020016040519081016040528092919081815260200182805461336590617dbe565b80156133b25780601f10613387576101008083540402835291602001916133b2565b820191906000526020600020905b81548152906001019060200180831161339557829003601f168201915b5050505050905090565b60006017600083815260200190815260200160002090508060040160009054906101000a900460ff16613424576040517f08c379a000000000000000000000000000000000000000000000000000000000815260040161341b906186be565b60405180910390fd5b600060105414613469576040517f08c379a000000000000000000000000000000000000000000000000000000000815260040161346090618750565b60405180910390fd5b81601081905550817ffec164d871736501db0df525034f6b7c5b8ccec979982a8ee1a898ccd4e085828260010154836002015484600301546040516134b093929190618770565b60405180910390a25050565b60105481565b6000801b81565b6000806134d4615302565b90506134e1818585615508565b600191505092915050565b6064600a6b204fce5e3e250261100000006135079190617eb0565b6135119190617f21565b81565b600f5481565b600581565b7fdf1425bae297c2f52b4f15d18a50b1fc8cb5b981a981b1d213ed3ff92681b64d6135498161531c565b6000600a600084815260200190815260200160002090508060050160009054906101000a900460ff16156135b2576040517f08c379a00000000000000000000000000000000000000000000000000000000081526004016135a9906187f3565b60405180910390fd5b8060060160003373ffffffffffffffffffffffffffffffffffffffff1673ffffffffffffffffffffffffffffffffffffffff16815260200190815260200160002060009054906101000a900460ff1615613641576040517f08c379a00000000000000000000000000000000000000000000000000000000081526004016136389061885f565b60405180910390fd5b60018160060160003373ffffffffffffffffffffffffffffffffffffffff1673ffffffffffffffffffffffffffffffffffffffff16815260200190815260200160002060006101000a81548160ff0219169083151502179055508060040160008154809291906136b090618262565b9190505550827f5d4ccf5f92566d140246f4ae3b9cb35dc06fff109a7748602ad77f6260fd9a61336040516136e5919061680a565b60405180910390a260038160040154106138195760008160020160009054906101000a900473ffffffffffffffffffffffffffffffffffffffff1673ffffffffffffffffffffffffffffffffffffffff16826003016040516137479190618922565b6000604051808303816000865af19150503d8060008114613784576040519150601f19603f3d011682016040523d82523d6000602084013e613789565b606091505b50509050806137cd576040517f08c379a00000000000000000000000000000000000000000000000000000000081526004016137c490618985565b60405180910390fd5b60018260050160006101000a81548160ff021916908315150217905550837f7770356c29230b95943aec59d47ead11eb426a728bf5b57f7fd8597f3c0e29ba60405160405180910390a2505b505050565b600a81565b60096020528060005260406000206000915054906101000a900460ff1681565b6000801b6138508161531c565b600960008373ffffffffffffffffffffffffffffffffffffffff1673ffffffffffffffffffffffffffffffffffffffff16815260200190815260200160002060009054906101000a900460ff166138dc576040517f08c379a00000000000000000000000000000000000000000000000000000000081526004016138d3906189f1565b60405180910390fd5b60005b600780549050811015613a62578273ffffffffffffffffffffffffffffffffffffffff166007828154811061391757613916618395565b5b9060005260206000200160009054906101000a900473ffffffffffffffffffffffffffffffffffffffff1673ffffffffffffffffffffffffffffffffffffffff1603613a555760076001600780549050613971919061832d565b8154811061398257613981618395565b5b9060005260206000200160009054906101000a900473ffffffffffffffffffffffffffffffffffffffff16600782815481106139c1576139c0618395565b5b9060005260206000200160006101000a81548173ffffffffffffffffffffffffffffffffffffffff021916908373ffffffffffffffffffffffffffffffffffffffff1602179055506007805480613a1b57613a1a618a11565b5b6001900381819060005260206000200160006101000a81549073ffffffffffffffffffffffffffffffffffffffff02191690559055613a62565b80806001019150506138df565b506000600960008473ffffffffffffffffffffffffffffffffffffffff1673ffffffffffffffffffffffffffffffffffffffff16815260200190815260200160002060006101000a81548160ff021916908315150217905550613ae57fc10c77be35aff266144ed64c26a1fa104bae2f284ae99ac4a34203454704a18583615330565b508173ffffffffffffffffffffffffffffffffffffffff167f55dba9d79522b91b615629d5f3b10c2fad2d258f1768614f4a52e937ada0d0ba60405160405180910390a25050565b606060146000838152602001908152602001600020600401805480602002602001604051908101604052809291908181526020016000905b82821015613c11578382906000526020600020018054613b8490617dbe565b80601f0160208091040260200160405190810160405280929190818152602001828054613bb090617dbe565b8015613bfd5780601f10613bd257610100808354040283529160200191613bfd565b820191906000526020600020905b815481529060010190602001808311613be057829003601f168201915b505050505081526020019060010190613b65565b505050509050919050565b6000600b60008373ffffffffffffffffffffffffffffffffffffffff1673ffffffffffffffffffffffffffffffffffffffff16815260200190815260200160002060020160009054906101000a900460ff169050919050565b7fdf1425bae297c2f52b4f15d18a50b1fc8cb5b981a981b1d213ed3ff92681b64d613c9f8161531c565b60006014600085815260200190815260200160002090508060080160019054906101000a900460ff1615613d08576040517f08c379a0000000000000000000000000000000000000000000000000000000008152600401613cff90618a8c565b60405180910390fd5b8060080160029054906101000a900460ff1615613d5a576040517f08c379a0000000000000000000000000000000000000000000000000000000008152600401613d5190618af8565b60405180910390fd5b60018160080160026101000a81548160ff02191690831515021790555082816009019081613d889190618190565b50837f0181021ec281a3c27d14e788229d199a2075e233c761365095368d822b2c277f84604051613db99190616681565b60405180910390a250505050565b600d5481565b613dd682611725565b613ddf8161531c565b613de98383615330565b50505050565b7fdf1425bae297c2f52b4f15d18a50b1fc8cb5b981a981b1d213ed3ff92681b64d613e198161531c565b60006014600084815260200190815260200160002090508060080160019054906101000a900460ff1615613e82576040517f08c379a0000000000000000000000000000000000000000000000000000000008152600401613e7990618a8c565b60405180910390fd5b8060080160029054906101000a900460ff1615613ed4576040517f08c379a0000000000000000000000000000000000000000000000000000000008152600401613ecb90618af8565b60405180910390fd5b6015600084815260200190815260200160002060003373ffffffffffffffffffffffffffffffffffffffff1673ffffffffffffffffffffffffffffffffffffffff16815260200190815260200160002060009054906101000a900460ff1615613f72576040517f08c379a0000000000000000000000000000000000000000000000000000000008152600401613f6990618b8a565b60405180910390fd5b60016015600085815260200190815260200160002060003373ffffffffffffffffffffffffffffffffffffffff1673ffffffffffffffffffffffffffffffffffffffff16815260200190815260200160002060006101000a81548160ff02191690831515021790555080600a016000815480929190613ff090618262565b9190505550600381600a0154106140ea5760018160080160016101000a81548160ff0219169083151502179055506000836040516024016140319190616786565b6040516020818303038152906040527f797df996000000000000000000000000000000000000000000000000000000007bffffffffffffffffffffffffffffffffffffffffffffffffffffffff19166020820180517bffffffffffffffffffffffffffffffffffffffffffffffffffffffff838183161783525050505090506140ba3082615a49565b50837f1c2a00e8a0b086d9b7e7a79c9440ab052641329e55c4bf8eec7ee9dfb658b7ed60405160405180910390a2505b505050565b600e5481565b60146020528060005260406000206000915090508060000154908060010160009054906101000a900473ffffffffffffffffffffffffffffffffffffffff169080600201805461414490617dbe565b80601f016020809104026020016040519081016040528092919081815260200182805461417090617dbe565b80156141bd5780601f10614192576101008083540402835291602001916141bd565b820191906000526020600020905b8154815290600101906020018083116141a057829003601f168201915b5050505050908060030180546141d290617dbe565b80601f01602080910402602001604051908101604052809291908181526020018280546141fe90617dbe565b801561424b5780601f106142205761010080835404028352916020019161424b565b820191906000526020600020905b81548152906001019060200180831161422e57829003601f168201915b50505050509080600501805461426090617dbe565b80601f016020809104026020016040519081016040528092919081815260200182805461428c90617dbe565b80156142d95780601f106142ae576101008083540402835291602001916142d9565b820191906000526020600020905b8154815290600101906020018083116142bc57829003601f168201915b5050505050908060060154908060070154908060080160009054906101000a900460ff16908060080160019054906101000a900460ff16908060080160029054906101000a900460ff169080600901805461433390617dbe565b80601f016020809104026020016040519081016040528092919081815260200182805461435f90617dbe565b80156143ac5780601f10614381576101008083540402835291602001916143ac565b820191906000526020600020905b81548152906001019060200180831161438f57829003601f168201915b50505050509080600a015490508c565b60606000601854905060008167ffffffffffffffff8111156143e1576143e0616890565b5b60405190808252806020026020018201604052801561441a57816020015b61440761642d565b8152602001906001900390816143ff5790505b50905060005b828110156146e65760116000828152602001908152602001600020604051806101600160405290816000820154815260200160018201805461446190617dbe565b80601f016020809104026020016040519081016040528092919081815260200182805461448d90617dbe565b80156144da5780601f106144af576101008083540402835291602001916144da565b820191906000526020600020905b8154815290600101906020018083116144bd57829003601f168201915b505050505081526020016002820160009054906101000a900473ffffffffffffffffffffffffffffffffffffffff1673ffffffffffffffffffffffffffffffffffffffff1673ffffffffffffffffffffffffffffffffffffffff168152602001600382015481526020016004820154815260200160058201548152602001600682015481526020016007820160009054906101000a900460ff161515151581526020016007820160019054906101000a900460ff161515151581526020016008820180546145a790617dbe565b80601f01602080910402602001604051908101604052809291908181526020018280546145d390617dbe565b80156146205780601f106145f557610100808354040283529160200191614620565b820191906000526020600020905b81548152906001019060200180831161460357829003601f168201915b5050505050815260200160098201805461463990617dbe565b80601f016020809104026020016040519081016040528092919081815260200182805461466590617dbe565b80156146b25780601f10614687576101008083540402835291602001916146b2565b820191906000526020600020905b81548152906001019060200180831161469557829003601f168201915b5050505050815250508282815181106146ce576146cd618395565b5b60200260200101819052508080600101915050614420565b50809250505090565b6000600160008473ffffffffffffffffffffffffffffffffffffffff1673ffffffffffffffffffffffffffffffffffffffff16815260200190815260200160002060008373ffffffffffffffffffffffffffffffffffffffff1673ffffffffffffffffffffffffffffffffffffffff16815260200190815260200160002054905092915050565b600080600080600080600060176000898152602001908152602001600020905080600001548160010154826002015483600301548460040160009054906101000a900460ff1685600501549650965096509650965096505091939550919395565b6147df615423565b60006017600083815260200190815260200160002090508060040160009054906101000a900460ff16614847576040517f08c379a000000000000000000000000000000000000000000000000000000000815260040161483e90618bf6565b60405180910390fd5b8060020154421015801561485f575080600301544211155b61489e576040517f08c379a000000000000000000000000000000000000000000000000000000000815260040161489590618c62565b60405180910390fd5b601660008260000154815260200190815260200160002060003373ffffffffffffffffffffffffffffffffffffffff1673ffffffffffffffffffffffffffffffffffffffff16815260200190815260200160002060009054906101000a900460ff1615614940576040517f08c379a000000000000000000000000000000000000000000000000000000000815260040161493790618cce565b60405180910390fd5b601360003373ffffffffffffffffffffffffffffffffffffffff1673ffffffffffffffffffffffffffffffffffffffff16815260200190815260200160002060009054906101000a900460ff166149cc576040517f08c379a00000000000000000000000000000000000000000000000000000000081526004016149c390618d60565b60405180910390fd5b6001601660008360000154815260200190815260200160002060003373ffffffffffffffffffffffffffffffffffffffff1673ffffffffffffffffffffffffffffffffffffffff16815260200190815260200160002060006101000a81548160ff021916908315150217905550614a473382600101546156ee565b503373ffffffffffffffffffffffffffffffffffffffff1681600001547f752d3a5de250652e9111e24fea2886c837dadfe50c8479ad3b5511f4c36f20a28360010154604051614a979190616786565b60405180910390a350614aa8615469565b50565b670de0b6b3a764000081565b60007fc295d8a2f69016465f61012796a38346423f02058e9c426f8bc1d946bc8c8470614ae38161531c565b828410614b25576040517f08c379a0000000000000000000000000000000000000000000000000000000008152600401614b1c90618dcc565b60405180910390fd5b428411614b67576040517f08c379a0000000000000000000000000000000000000000000000000000000008152600401614b5e90618e38565b60405180910390fd5b600060105414614bac576040517f08c379a0000000000000000000000000000000000000000000000000000000008152600401614ba390618750565b60405180910390fd5b6040518060c00160405280600f548152602001868152602001858152602001848152602001600015158152602001600081525060176000600f5481526020019081526020016000206000820151816000015560208201518160010155604082015181600201556060820151816003015560808201518160040160006101000a81548160ff02191690831515021790555060a08201518160050155905050600f547fffdf155c1525421b407f3fe98206fd7f32303d907a1fb5ec68dac7ca86d65e8c868686604051614c7f93929190618770565b60405180910390a2600f6000815480929190614c9a90618262565b919050555060019150509392505050565b7fdf1425bae297c2f52b4f15d18a50b1fc8cb5b981a981b1d213ed3ff92681b64d614cd58161531c565b60006017600084815260200190815260200160002090508060040160009054906101000a900460ff1615614d3e576040517f08c379a0000000000000000000000000000000000000000000000000000000008152600401614d3590618ea4565b60405180910390fd5b600060105414614d83576040517f08c379a0000000000000000000000000000000000000000000000000000000008152600401614d7a90618750565b60405180910390fd5b6015600084815260200190815260200160002060003373ffffffffffffffffffffffffffffffffffffffff1673ffffffffffffffffffffffffffffffffffffffff16815260200190815260200160002060009054906101000a900460ff1615614e21576040517f08c379a0000000000000000000000000000000000000000000000000000000008152600401614e1890618b8a565b60405180910390fd5b60016015600085815260200190815260200160002060003373ffffffffffffffffffffffffffffffffffffffff1673ffffffffffffffffffffffffffffffffffffffff16815260200190815260200160002060006101000a81548160ff021916908315150217905550806005016000815480929190614e9f90618262565b91905055506003816005015410614fcb5760018160040160006101000a81548160ff021916908315150217905550826010819055506000816001015482600201548360030154604051602401614ef793929190618770565b6040516020818303038152906040527f17eb6d8d000000000000000000000000000000000000000000000000000000007bffffffffffffffffffffffffffffffffffffffffffffffffffffffff19166020820180517bffffffffffffffffffffffffffffffffffffffffffffffffffffffff838183161783525050505090506000614f823083615a49565b90503373ffffffffffffffffffffffffffffffffffffffff16857fba2dc1cf0b7a4cba80d6f042dd7236685fe3cd10b7f13ad291c4e97956273b8e60405160405180910390a350505b505050565b7fc295d8a2f69016465f61012796a38346423f02058e9c426f8bc1d946bc8c8470614ffa8161531c565b6000821161503d576040517f08c379a000000000000000000000000000000000000000000000000000000000815260040161503490618f10565b60405180910390fd5b61504783836156ee565b5081601260008573ffffffffffffffffffffffffffffffffffffffff1673ffffffffffffffffffffffffffffffffffffffff16815260200190815260200160002060008282546150979190618361565b92505081905550505050565b60126020528060005260406000206000915090505481565b6000806017600084815260200190815260200160002090508060040160009054906101000a900460ff16615124576040517f08c379a000000000000000000000000000000000000000000000000000000000815260040161511b90618bf6565b60405180910390fd5b601660008260000154815260200190815260200160002060008573ffffffffffffffffffffffffffffffffffffffff1673ffffffffffffffffffffffffffffffffffffffff16815260200190815260200160002060009054906101000a900460ff1691505092915050565b600061519a33613c1c565b905090565b60006151cb7fc10c77be35aff266144ed64c26a1fa104bae2f284ae99ac4a34203454704a185836132bf565b9050919050565b6151db81615c38565b6000600b60008373ffffffffffffffffffffffffffffffffffffffff1673ffffffffffffffffffffffffffffffffffffffff168152602001908152602001600020905080600001600081548092919061523390618262565b91905055506152418261584a565b508173ffffffffffffffffffffffffffffffffffffffff167ff18beef583f71b01f816b888b2fb4012abc44a95618cbc737287866909e7abd7826000015460405161528c9190616786565b60405180910390a25050565b60007f01ffc9a7000000000000000000000000000000000000000000000000000000007bffffffffffffffffffffffffffffffffffffffffffffffffffffffff1916827bffffffffffffffffffffffffffffffffffffffffffffffffffffffff1916149050919050565b600033905090565b6153178383836001615d53565b505050565b61532d81615328615302565b615f2a565b50565b600061533c83836132bf565b156154185760006005600085815260200190815260200160002060000160008473ffffffffffffffffffffffffffffffffffffffff1673ffffffffffffffffffffffffffffffffffffffff16815260200190815260200160002060006101000a81548160ff0219169083151502179055506153b5615302565b73ffffffffffffffffffffffffffffffffffffffff168273ffffffffffffffffffffffffffffffffffffffff16847ff6391f5c32d9c69d2a47ea670b442974b53935d1edc7fd64eb21e047a839171b60405160405180910390a46001905061541d565b600090505b92915050565b60026006540361545f576040517f3ee5aeb500000000000000000000000000000000000000000000000000000000815260040160405180910390fd5b6002600681905550565b6001600681905550565b600061547f84846146ef565b90507fffffffffffffffffffffffffffffffffffffffffffffffffffffffffffffffff81101561550257818110156154f2578281836040517ffb8f41b20000000000000000000000000000000000000000000000000000000081526004016154e993929190618f30565b60405180910390fd5b61550184848484036000615d53565b5b50505050565b600073ffffffffffffffffffffffffffffffffffffffff168373ffffffffffffffffffffffffffffffffffffffff160361557a5760006040517f96c6fd1e000000000000000000000000000000000000000000000000000000008152600401615571919061680a565b60405180910390fd5b600073ffffffffffffffffffffffffffffffffffffffff168273ffffffffffffffffffffffffffffffffffffffff16036155ec5760006040517fec442f050000000000000000000000000000000000000000000000000000000081526004016155e3919061680a565b60405180910390fd5b6155f7838383615f7b565b505050565b600061560883836132bf565b6156e35760016005600085815260200190815260200160002060000160008473ffffffffffffffffffffffffffffffffffffffff1673ffffffffffffffffffffffffffffffffffffffff16815260200190815260200160002060006101000a81548160ff021916908315150217905550615680615302565b73ffffffffffffffffffffffffffffffffffffffff168273ffffffffffffffffffffffffffffffffffffffff16847f2f8788117e7eff1d82e926ec794901d17c78024a50270940304540a733656f0d60405160405180910390a4600190506156e8565b600090505b92915050565b60006064600a6b204fce5e3e2502611000000061570b9190617eb0565b6157159190617f21565b61571d6161a0565b836157289190618361565b1115615769576040517f08c379a000000000000000000000000000000000000000000000000000000000815260040161576090618fd9565b60405180910390fd5b600073ffffffffffffffffffffffffffffffffffffffff168373ffffffffffffffffffffffffffffffffffffffff16036157d8576040517f08c379a00000000000000000000000000000000000000000000000000000000081526004016157cf9061906b565b60405180910390fd5b6157e283836161aa565b5081600d60008282546157f59190618361565b92505081905550818373ffffffffffffffffffffffffffffffffffffffff167fffd50653ccb3020c797c5cba8c53bebb40e00eeb76593dedcf4a157b3ea6cb5160405160405180910390a36001905092915050565b600080600b60008473ffffffffffffffffffffffffffffffffffffffff1673ffffffffffffffffffffffffffffffffffffffff168152602001908152602001600020905060008160020160009054906101000a900460ff1690506000600a8360000154106158bb5760049050615902565b60058360000154106158d05760039050615901565b60038360000154106158e55760029050615900565b60018360000154106158fa57600190506158ff565b600090505b5b5b5b816004811115615915576159146172ad565b5b816004811115615928576159276172ad565b5b14615a4157808360020160006101000a81548160ff02191690836004811115615954576159536172ad565b5b0217905550600c60008260048111156159705761596f6172ad565b5b6004811115615982576159816172ad565b5b8152602001908152602001600020600201549350600085826040516020016159ab929190619109565b604051602081830303815290604052805190602001209050600184600301600083815260200190815260200160002060006101000a81548160ff0219169083151502179055508573ffffffffffffffffffffffffffffffffffffffff167f285a0f2deff4dbdd3719bae595cb2c8b27a45f0814e4db2b1946ab8df9bc548b83604051615a379190617962565b60405180910390a2505b505050919050565b60007fdf1425bae297c2f52b4f15d18a50b1fc8cb5b981a981b1d213ed3ff92681b64d615a758161531c565b7fc10c77be35aff266144ed64c26a1fa104bae2f284ae99ac4a34203454704a185615a9f8161531c565b600060086000815480929190615ab490618262565b9190505590506000600a60008381526020019081526020016000209050818160000181905550338160010160006101000a81548173ffffffffffffffffffffffffffffffffffffffff021916908373ffffffffffffffffffffffffffffffffffffffff160217905550868160020160006101000a81548173ffffffffffffffffffffffffffffffffffffffff021916908373ffffffffffffffffffffffffffffffffffffffff16021790555085816003019081615b71919061917b565b506001816004018190555060008160050160006101000a81548160ff02191690831515021790555060018160060160003373ffffffffffffffffffffffffffffffffffffffff1673ffffffffffffffffffffffffffffffffffffffff16815260200190815260200160002060006101000a81548160ff021916908315150217905550817fbcc43907be1d435f496e2233697a9a9fead2fb5639dac8459c53d7114829b8be33604051615c23919061680a565b60405180910390a28194505050505092915050565b6000600b60008373ffffffffffffffffffffffffffffffffffffffff1673ffffffffffffffffffffffffffffffffffffffff168152602001908152602001600020905060006004811115615c8f57615c8e6172ad565b5b6004811115615ca157615ca06172ad565b5b8160020160009054906101000a900460ff166004811115615cc557615cc46172ad565b5b03615d4f5760008160020160006101000a81548160ff02191690836004811115615cf257615cf16172ad565b5b021790555060008160000181905550600081600101819055508173ffffffffffffffffffffffffffffffffffffffff167f92fabfa210df88d92c2f5a07ddd43a985b208d8b19b7a78ba1284aa4b287d86260405160405180910390a25b5050565b600073ffffffffffffffffffffffffffffffffffffffff168473ffffffffffffffffffffffffffffffffffffffff1603615dc55760006040517fe602df05000000000000000000000000000000000000000000000000000000008152600401615dbc919061680a565b60405180910390fd5b600073ffffffffffffffffffffffffffffffffffffffff168373ffffffffffffffffffffffffffffffffffffffff1603615e375760006040517f94280d62000000000000000000000000000000000000000000000000000000008152600401615e2e919061680a565b60405180910390fd5b81600160008673ffffffffffffffffffffffffffffffffffffffff1673ffffffffffffffffffffffffffffffffffffffff16815260200190815260200160002060008573ffffffffffffffffffffffffffffffffffffffff1673ffffffffffffffffffffffffffffffffffffffff168152602001908152602001600020819055508015615f24578273ffffffffffffffffffffffffffffffffffffffff168473ffffffffffffffffffffffffffffffffffffffff167f8c5be1e5ebec7d5bd14f71427d1e84f3dd0314c0f7b2291e5b200ac8c7c3b92584604051615f1b9190616786565b60405180910390a35b50505050565b615f3482826132bf565b615f775780826040517fe2517d3f000000000000000000000000000000000000000000000000000000008152600401615f6e92919061924d565b60405180910390fd5b5050565b600073ffffffffffffffffffffffffffffffffffffffff168373ffffffffffffffffffffffffffffffffffffffff1603615fcd578060026000828254615fc19190618361565b925050819055506160a0565b60008060008573ffffffffffffffffffffffffffffffffffffffff1673ffffffffffffffffffffffffffffffffffffffff16815260200190815260200160002054905081811015616059578381836040517fe450d38c00000000000000000000000000000000000000000000000000000000815260040161605093929190618f30565b60405180910390fd5b8181036000808673ffffffffffffffffffffffffffffffffffffffff1673ffffffffffffffffffffffffffffffffffffffff16815260200190815260200160002081905550505b600073ffffffffffffffffffffffffffffffffffffffff168273ffffffffffffffffffffffffffffffffffffffff16036160e95780600260008282540392505081905550616136565b806000808473ffffffffffffffffffffffffffffffffffffffff1673ffffffffffffffffffffffffffffffffffffffff168152602001908152602001600020600082825401925050819055505b8173ffffffffffffffffffffffffffffffffffffffff168373ffffffffffffffffffffffffffffffffffffffff167fddf252ad1be2c89b69c2b068fc378daa952ba7f163c4a11628f55a4df523b3ef836040516161939190616786565b60405180910390a3505050565b6000600d54905090565b60006b204fce5e3e250261100000006161c16112eb565b836161cc9190618361565b111561620d576040517f08c379a0000000000000000000000000000000000000000000000000000000008152600401616204906192c2565b60405180910390fd5b6162178383616265565b818373ffffffffffffffffffffffffffffffffffffffff167fcda531bfd68624f13205c0a23cd4d5a7f09792cbb399603114f2b04aaa1bf5cf60405160405180910390a36001905092915050565b600073ffffffffffffffffffffffffffffffffffffffff168273ffffffffffffffffffffffffffffffffffffffff16036162d75760006040517fec442f050000000000000000000000000000000000000000000000000000000081526004016162ce919061680a565b60405180910390fd5b6162e360008383615f7b565b5050565b82805482825590600052602060002090810192821561632f579160200282015b8281111561632e57825182908161631e9190618190565b5091602001919060010190616307565b5b50905061633c91906164a1565b5090565b60405180606001604052806060815260200160608152602001600081525090565b6040518060c0016040528060008152602001600081526020016000815260200160008152602001600015158152602001600081525090565b604051806101a0016040528060008152602001600073ffffffffffffffffffffffffffffffffffffffff16815260200160608152602001606081526020016060815260200160608152602001600081526020016000815260200160006005811115616407576164066172ad565b5b815260200160001515815260200160001515815260200160608152602001600081525090565b6040518061016001604052806000815260200160608152602001600073ffffffffffffffffffffffffffffffffffffffff1681526020016000815260200160008152602001600081526020016000815260200160001515815260200160001515815260200160608152602001606081525090565b5b808211156164c157600081816164b891906164c5565b506001016164a2565b5090565b5080546164d190617dbe565b6000825580601f106164e35750616502565b601f0160209004906000526020600020908101906165019190616505565b5b50565b5b8082111561651e576000816000905550600101616506565b5090565b60008115159050919050565b61653781616522565b82525050565b6000602082019050616552600083018461652e565b92915050565b6000604051905090565b600080fd5b600080fd5b60007fffffffff0000000000000000000000000000000000000000000000000000000082169050919050565b6165a18161656c565b81146165ac57600080fd5b50565b6000813590506165be81616598565b92915050565b6000602082840312156165da576165d9616562565b5b60006165e8848285016165af565b91505092915050565b600081519050919050565b600082825260208201905092915050565b60005b8381101561662b578082015181840152602081019050616610565b60008484015250505050565b6000601f19601f8301169050919050565b6000616653826165f1565b61665d81856165fc565b935061666d81856020860161660d565b61667681616637565b840191505092915050565b6000602082019050818103600083015261669b8184616648565b905092915050565b600073ffffffffffffffffffffffffffffffffffffffff82169050919050565b60006166ce826166a3565b9050919050565b6166de816166c3565b81146166e957600080fd5b50565b6000813590506166fb816166d5565b92915050565b6000819050919050565b61671481616701565b811461671f57600080fd5b50565b6000813590506167318161670b565b92915050565b6000806040838503121561674e5761674d616562565b5b600061675c858286016166ec565b925050602061676d85828601616722565b9150509250929050565b61678081616701565b82525050565b600060208201905061679b6000830184616777565b92915050565b6000602082840312156167b7576167b6616562565b5b60006167c5848285016166ec565b91505092915050565b6000602082840312156167e4576167e3616562565b5b60006167f284828501616722565b91505092915050565b616804816166c3565b82525050565b600060208201905061681f60008301846167fb565b92915050565b600060c08201905061683a6000830189616777565b6168476020830188616777565b6168546040830187616777565b6168616060830186616777565b61686e608083018561652e565b61687b60a0830184616777565b979650505050505050565b600080fd5b600080fd5b7f4e487b7100000000000000000000000000000000000000000000000000000000600052604160045260246000fd5b6168c882616637565b810181811067ffffffffffffffff821117156168e7576168e6616890565b5b80604052505050565b60006168fa616558565b905061690682826168bf565b919050565b600067ffffffffffffffff82111561692657616925616890565b5b61692f82616637565b9050602081019050919050565b82818337600083830152505050565b600061695e6169598461690b565b6168f0565b90508281526020810184848401111561697a5761697961688b565b5b61698584828561693c565b509392505050565b600082601f8301126169a2576169a1616886565b5b81356169b284826020860161694b565b91505092915050565b600067ffffffffffffffff8211156169d6576169d5616890565b5b602082029050602081019050919050565b600080fd5b60006169ff6169fa846169bb565b6168f0565b90508083825260208201905060208402830185811115616a2257616a216169e7565b5b835b81811015616a6957803567ffffffffffffffff811115616a4757616a46616886565b5b808601616a54898261698d565b85526020850194505050602081019050616a24565b5050509392505050565b600082601f830112616a8857616a87616886565b5b8135616a988482602086016169ec565b91505092915050565b60068110616aae57600080fd5b50565b600081359050616ac081616aa1565b92915050565b600080600080600080600060e0888a031215616ae557616ae4616562565b5b600088013567ffffffffffffffff811115616b0357616b02616567565b5b616b0f8a828b0161698d565b975050602088013567ffffffffffffffff811115616b3057616b2f616567565b5b616b3c8a828b0161698d565b965050604088013567ffffffffffffffff811115616b5d57616b5c616567565b5b616b698a828b01616a73565b955050606088013567ffffffffffffffff811115616b8a57616b89616567565b5b616b968a828b0161698d565b9450506080616ba78a828b01616722565b93505060a0616bb88a828b01616722565b92505060c0616bc98a828b01616ab1565b91505092959891949750929550565b600080600060608486031215616bf157616bf0616562565b5b6000616bff868287016166ec565b9350506020616c10868287016166ec565b9250506040616c2186828701616722565b9150509250925092565b6000819050919050565b616c3e81616c2b565b8114616c4957600080fd5b50565b600081359050616c5b81616c35565b92915050565b600060208284031215616c7757616c76616562565b5b6000616c8584828501616c4c565b91505092915050565b616c9781616c2b565b82525050565b6000602082019050616cb26000830184616c8e565b92915050565b616cc181616522565b8114616ccc57600080fd5b50565b600081359050616cde81616cb8565b92915050565b600080600080600080600060e0888a031215616d0357616d02616562565b5b600088013567ffffffffffffffff811115616d2157616d20616567565b5b616d2d8a828b0161698d565b9750506020616d3e8a828b01616722565b9650506040616d4f8a828b01616722565b9550506060616d608a828b01616722565b9450506080616d718a828b01616ccf565b93505060a088013567ffffffffffffffff811115616d9257616d91616567565b5b616d9e8a828b0161698d565b92505060c088013567ffffffffffffffff811115616dbf57616dbe616567565b5b616dcb8a828b0161698d565b91505092959891949750929550565b60058110616de757600080fd5b50565b600081359050616df981616dda565b92915050565b600060208284031215616e1557616e14616562565b5b6000616e2384828501616dea565b91505092915050565b600082825260208201905092915050565b6000616e48826165f1565b616e528185616e2c565b9350616e6281856020860161660d565b616e6b81616637565b840191505092915050565b616e7f81616701565b82525050565b60006060830160008301518482036000860152616ea28282616e3d565b91505060208301518482036020860152616ebc8282616e3d565b9150506040830151616ed16040860182616e76565b508091505092915050565b60006020820190508181036000830152616ef68184616e85565b905092915050565b60008060408385031215616f1557616f14616562565b5b6000616f2385828601616c4c565b9250506020616f34858286016166ec565b9150509250929050565b600060ff82169050919050565b616f5481616f3e565b82525050565b6000602082019050616f6f6000830184616f4b565b92915050565b600081519050919050565b600082825260208201905092915050565b6000819050602082019050919050565b616faa816166c3565b82525050565b6000616fbc8383616fa1565b60208301905092915050565b6000602082019050919050565b6000616fe082616f75565b616fea8185616f80565b9350616ff583616f91565b8060005b8381101561702657815161700d8882616fb0565b975061701883616fc8565b925050600181019050616ff9565b5085935050505092915050565b6000602082019050818103600083015261704d8184616fd5565b905092915050565b6000806040838503121561706c5761706b616562565b5b600061707a858286016166ec565b925050602061708b85828601616dea565b9150509250929050565b600081519050919050565b600082825260208201905092915050565b60006170bc82617095565b6170c681856170a0565b93506170d681856020860161660d565b6170df81616637565b840191505092915050565b600060c0820190506170ff6000830189616777565b61710c60208301886167fb565b61711960408301876167fb565b818103606083015261712b81866170b1565b905061713a6080830185616777565b61714760a083018461652e565b979650505050505050565b600081519050919050565b600082825260208201905092915050565b6000819050602082019050919050565b61718781616522565b82525050565b60c0820160008201516171a36000850182616e76565b5060208201516171b66020850182616e76565b5060408201516171c96040850182616e76565b5060608201516171dc6060850182616e76565b5060808201516171ef608085018261717e565b5060a082015161720260a0850182616e76565b50505050565b6000617214838361718d565b60c08301905092915050565b6000602082019050919050565b600061723882617152565b617242818561715d565b935061724d8361716e565b8060005b8381101561727e5781516172658882617208565b975061727083617220565b925050600181019050617251565b5085935050505092915050565b600060208201905081810360008301526172a5818461722d565b905092915050565b7f4e487b7100000000000000000000000000000000000000000000000000000000600052602160045260246000fd5b600681106172ed576172ec6172ad565b5b50565b60008190506172fe826172dc565b919050565b600061730e826172f0565b9050919050565b61731e81617303565b82525050565b60006101608201905061733a600083018e6167fb565b818103602083015261734c818d616648565b90508181036040830152617360818c616648565b90508181036060830152617374818b616648565b9050617383608083018a616777565b61739060a0830189616777565b61739d60c0830188617315565b6173aa60e083018761652e565b6173b861010083018661652e565b8181036101208301526173cb8185616648565b90506173db610140830184616777565b9c9b505050505050505050505050565b600061016082019050617401600083018e616777565b8181036020830152617413818d616648565b9050617422604083018c6167fb565b61742f606083018b616777565b61743c608083018a616777565b61744960a0830189616777565b61745660c0830188616777565b61746360e083018761652e565b61747161010083018661652e565b8181036101208301526174848185616648565b90508181036101408301526174998184616648565b90509c9b505050505050505050505050565b600060608201905081810360008301526174c58186616648565b905081810360208301526174d98185616648565b90506174e86040830184616777565b949350505050565b60058110617501576175006172ad565b5b50565b6000819050617512826174f0565b919050565b600061752282617504565b9050919050565b61753281617517565b82525050565b600060a08201905061754d6000830188617529565b818103602083015261755f8187616648565b905081810360408301526175738186616648565b90506175826060830185616777565b61758f6080830184616777565b9695505050505050565b600081519050919050565b600082825260208201905092915050565b6000819050602082019050919050565b600081519050919050565b600082825260208201905092915050565b6000819050602082019050919050565b60006175fd8383616e3d565b905092915050565b6000602082019050919050565b600061761d826175c5565b61762781856175d0565b935083602082028501617639856175e1565b8060005b85811015617675578484038952815161765685826175f1565b945061766183617605565b925060208a0199505060018101905061763d565b50829750879550505050505092915050565b61769081617303565b82525050565b60006101a0830160008301516176af6000860182616e76565b5060208301516176c26020860182616fa1565b50604083015184820360408601526176da8282616e3d565b915050606083015184820360608601526176f48282616e3d565b9150506080830151848203608086015261770e8282617612565b91505060a083015184820360a08601526177288282616e3d565b91505060c083015161773d60c0860182616e76565b5060e083015161775060e0860182616e76565b50610100830151617765610100860182617687565b5061012083015161777a61012086018261717e565b5061014083015161778f61014086018261717e565b506101608301518482036101608601526177a98282616e3d565b9150506101808301516177c0610180860182616e76565b508091505092915050565b60006177d78383617696565b905092915050565b6000602082019050919050565b60006177f782617599565b61780181856175a4565b935083602082028501617813856175b5565b8060005b8581101561784f578484038952815161783085826177cb565b945061783b836177df565b925060208a01995050600181019050617817565b50829750879550505050505092915050565b6000602082019050818103600083015261787b81846177ec565b905092915050565b60006060820190506178986000830186616777565b6178a56020830185616777565b6178b26040830184617529565b949350505050565b600082825260208201905092915050565b60006178d6826175c5565b6178e081856178ba565b9350836020820285016178f2856175e1565b8060005b8581101561792e578484038952815161790f85826175f1565b945061791a83617605565b925060208a019950506001810190506178f6565b50829750879550505050505092915050565b6000602082019050818103600083015261795a81846178cb565b905092915050565b60006020820190506179776000830184617529565b92915050565b6000806040838503121561799457617993616562565b5b60006179a285828601616722565b925050602083013567ffffffffffffffff8111156179c3576179c2616567565b5b6179cf8582860161698d565b9150509250929050565b6000610180820190506179ef600083018f616777565b6179fc602083018e6167fb565b8181036040830152617a0e818d616648565b90508181036060830152617a22818c616648565b90508181036080830152617a36818b616648565b9050617a4560a083018a616777565b617a5260c0830189616777565b617a5f60e0830188617315565b617a6d61010083018761652e565b617a7b61012083018661652e565b818103610140830152617a8e8185616648565b9050617a9e610160830184616777565b9d9c50505050505050505050505050565b600081519050919050565b600082825260208201905092915050565b6000819050602082019050919050565b600061016083016000830151617af46000860182616e76565b5060208301518482036020860152617b0c8282616e3d565b9150506040830151617b216040860182616fa1565b506060830151617b346060860182616e76565b506080830151617b476080860182616e76565b5060a0830151617b5a60a0860182616e76565b5060c0830151617b6d60c0860182616e76565b5060e0830151617b8060e086018261717e565b50610100830151617b9561010086018261717e565b50610120830151848203610120860152617baf8282616e3d565b915050610140830151848203610140860152617bcb8282616e3d565b9150508091505092915050565b6000617be48383617adb565b905092915050565b6000602082019050919050565b6000617c0482617aaf565b617c0e8185617aba565b935083602082028501617c2085617acb565b8060005b85811015617c5c5784840389528151617c3d8582617bd8565b9450617c4883617bec565b925060208a01995050600181019050617c24565b50829750879550505050505092915050565b60006020820190508181036000830152617c888184617bf9565b905092915050565b60008060408385031215617ca757617ca6616562565b5b6000617cb5858286016166ec565b9250506020617cc6858286016166ec565b9150509250929050565b600080600060608486031215617ce957617ce8616562565b5b6000617cf786828701616722565b9350506020617d0886828701616722565b9250506040617d1986828701616722565b9150509250925092565b7f416c72656164792061206d656d62657221000000000000000000000000000000600082015250565b6000617d596011836165fc565b9150617d6482617d23565b602082019050919050565b60006020820190508181036000830152617d8881617d4c565b9050919050565b7f4e487b7100000000000000000000000000000000000000000000000000000000600052602260045260246000fd5b60006002820490506001821680617dd657607f821691505b602082108103617de957617de8617d8f565b5b50919050565b7f4d757374206265206120636f6d6d756e697479206d656d62657220746f20637260008201527f656174652070726f706f73616c73000000000000000000000000000000000000602082015250565b6000617e4b602e836165fc565b9150617e5682617def565b604082019050919050565b60006020820190508181036000830152617e7a81617e3e565b9050919050565b7f4e487b7100000000000000000000000000000000000000000000000000000000600052601160045260246000fd5b6000617ebb82616701565b9150617ec683616701565b9250828202617ed481616701565b91508282048414831517617eeb57617eea617e81565b5b5092915050565b7f4e487b7100000000000000000000000000000000000000000000000000000000600052601260045260246000fd5b6000617f2c82616701565b9150617f3783616701565b925082617f4757617f46617ef2565b5b828204905092915050565b7f52657175657374656420616d6f756e742065786365656473206d6178696d756d60008201527f2066756e64696e67206c696d6974000000000000000000000000000000000000602082015250565b6000617fae602e836165fc565b9150617fb982617f52565b604082019050919050565b60006020820190508181036000830152617fdd81617fa1565b9050919050565b60008190508160005260206000209050919050565b60006020601f8301049050919050565b600082821b905092915050565b6000600883026180467fffffffffffffffffffffffffffffffffffffffffffffffffffffffffffffffff82618009565b6180508683618009565b95508019841693508086168417925050509392505050565b6000819050919050565b600061808d61808861808384616701565b618068565b616701565b9050919050565b6000819050919050565b6180a783618072565b6180bb6180b382618094565b848454618016565b825550505050565b600090565b6180d06180c3565b6180db81848461809e565b505050565b5b818110156180ff576180f46000826180c8565b6001810190506180e1565b5050565b601f8211156181445761811581617fe4565b61811e84617ff9565b8101602085101561812d578190505b61814161813985617ff9565b8301826180e0565b50505b505050565b600082821c905092915050565b600061816760001984600802618149565b1980831691505092915050565b60006181808383618156565b9150826002028217905092915050565b618199826165f1565b67ffffffffffffffff8111156181b2576181b1616890565b5b6181bc8254617dbe565b6181c7828285618103565b600060209050601f8311600181146181fa57600084156181e8578287015190505b6181f28582618174565b86555061825a565b601f19841661820886617fe4565b60005b828110156182305784890151825560018201915060208501945060208101905061820b565b8683101561824d5784890151618249601f891682618156565b8355505b6001600288020188555050505b505050505050565b600061826d82616701565b91507fffffffffffffffffffffffffffffffffffffffffffffffffffffffffffffffff820361829f5761829e617e81565b5b600182019050919050565b600060408201905081810360008301526182c48185616648565b90506182d36020830184616777565b9392505050565b600060808201905081810360008301526182f48187616648565b905061830360208301866167fb565b618310604083018561652e565b81810360608301526183228184616648565b905095945050505050565b600061833882616701565b915061834383616701565b925082820390508181111561835b5761835a617e81565b5b92915050565b600061836c82616701565b915061837783616701565b925082820190508082111561838f5761838e617e81565b5b92915050565b7f4e487b7100000000000000000000000000000000000000000000000000000000600052603260045260246000fd5b7f4576656e74206973206e6f742061637469766500000000000000000000000000600082015250565b60006183fa6013836165fc565b9150618405826183c4565b602082019050919050565b60006020820190508181036000830152618429816183ed565b9050919050565b7f4576656e74206e6f7420696e2070726f67726573730000000000000000000000600082015250565b60006184666015836165fc565b915061847182618430565b602082019050919050565b6000602082019050818103600083015261849581618459565b9050919050565b7f4576656e742069732066756c6c00000000000000000000000000000000000000600082015250565b60006184d2600d836165fc565b91506184dd8261849c565b602082019050919050565b60006020820190508181036000830152618501816184c5565b9050919050565b7f416c726561647920696e20726576696577657220706f6f6c0000000000000000600082015250565b600061853e6018836165fc565b915061854982618508565b602082019050919050565b6000602082019050818103600083015261856d81618531565b9050919050565b7f50726f706f73616c206e6f7420617070726f7665640000000000000000000000600082015250565b60006185aa6015836165fc565b91506185b582618574565b602082019050919050565b600060208201905081810360008301526185d98161859d565b9050919050565b7f496e73756666696369656e7420636f6d6d756e6974792070726f6a656374206660008201527f756e647300000000000000000000000000000000000000000000000000000000602082015250565b600061863c6024836165fc565b9150618647826185e0565b604082019050919050565b6000602082019050818103600083015261866b8161862f565b9050919050565b7f41697264726f70206e6f7420617070726f766564000000000000000000000000600082015250565b60006186a86014836165fc565b91506186b382618672565b602082019050919050565b600060208201905081810360008301526186d78161869b565b9050919050565b7f416e6f746865722061697264726f702069732063757272656e746c792061637460008201527f6976650000000000000000000000000000000000000000000000000000000000602082015250565b600061873a6023836165fc565b9150618745826186de565b604082019050919050565b600060208201905081810360008301526187698161872d565b9050919050565b60006060820190506187856000830186616777565b6187926020830185616777565b61879f6040830184616777565b949350505050565b7f50726f706f73616c20616c726561647920657865637574656400000000000000600082015250565b60006187dd6019836165fc565b91506187e8826187a7565b602082019050919050565b6000602082019050818103600083015261880c816187d0565b9050919050565b7f416c726561647920617070726f76656400000000000000000000000000000000600082015250565b60006188496010836165fc565b915061885482618813565b602082019050919050565b600060208201905081810360008301526188788161883c565b9050919050565b600081905092915050565b60008190508160005260206000209050919050565b600081546188ac81617dbe565b6188b6818661887f565b945060018216600081146188d157600181146188e657618919565b60ff1983168652811515820286019350618919565b6188ef8561888a565b60005b83811015618911578154818901526001820191506020810190506188f2565b838801955050505b50505092915050565b600061892e828461889f565b915081905092915050565b7f50726f706f73616c20657865637574696f6e206661696c656400000000000000600082015250565b600061896f6019836165fc565b915061897a82618939565b602082019050919050565b6000602082019050818103600083015261899e81618962565b9050919050565b7f4e6f7420696e20726576696577657220706f6f6c000000000000000000000000600082015250565b60006189db6014836165fc565b91506189e6826189a5565b602082019050919050565b60006020820190508181036000830152618a0a816189ce565b9050919050565b7f4e487b7100000000000000000000000000000000000000000000000000000000600052603160045260246000fd5b7f50726f706f73616c20616c726561647920617070726f76656400000000000000600082015250565b6000618a766019836165fc565b9150618a8182618a40565b602082019050919050565b60006020820190508181036000830152618aa581618a69565b9050919050565b7f50726f706f73616c20616c72656164792072656a656374656400000000000000600082015250565b6000618ae26019836165fc565b9150618aed82618aac565b602082019050919050565b60006020820190508181036000830152618b1181618ad5565b9050919050565b7f416c726561647920617070726f766564206279207468697320617070726f766560008201527f7200000000000000000000000000000000000000000000000000000000000000602082015250565b6000618b746021836165fc565b9150618b7f82618b18565b604082019050919050565b60006020820190508181036000830152618ba381618b67565b9050919050565b7f41697264726f70206e6f74206163746976652100000000000000000000000000600082015250565b6000618be06013836165fc565b9150618beb82618baa565b602082019050919050565b60006020820190508181036000830152618c0f81618bd3565b9050919050565b7f41697264726f70206e6f7420696e2070726f6772657373000000000000000000600082015250565b6000618c4c6017836165fc565b9150618c5782618c16565b602082019050919050565b60006020820190508181036000830152618c7b81618c3f565b9050919050565b7f416c726561647920636c61696d656420746869732061697264726f7000000000600082015250565b6000618cb8601c836165fc565b9150618cc382618c82565b602082019050919050565b60006020820190508181036000830152618ce781618cab565b9050919050565b7f4d757374206265206120636f6d6d756e697479206d656d62657220746f20636c60008201527f61696d0000000000000000000000000000000000000000000000000000000000602082015250565b6000618d4a6023836165fc565b9150618d5582618cee565b604082019050919050565b60006020820190508181036000830152618d7981618d3d565b9050919050565b7f496e76616c69642074696d6520706572696f6400000000000000000000000000600082015250565b6000618db66013836165fc565b9150618dc182618d80565b602082019050919050565b60006020820190508181036000830152618de581618da9565b9050919050565b7f53746172742074696d65206d75737420626520696e2074686520667574757265600082015250565b6000618e226020836165fc565b9150618e2d82618dec565b602082019050919050565b60006020820190508181036000830152618e5181618e15565b9050919050565b7f41697264726f7020616c72656164792061637469766500000000000000000000600082015250565b6000618e8e6016836165fc565b9150618e9982618e58565b602082019050919050565b60006020820190508181036000830152618ebd81618e81565b9050919050565b7f496e76616c69642072657761726420616d6f756e740000000000000000000000600082015250565b6000618efa6015836165fc565b9150618f0582618ec4565b602082019050919050565b60006020820190508181036000830152618f2981618eed565b9050919050565b6000606082019050618f4560008301866167fb565b618f526020830185616777565b618f5f6040830184616777565b949350505050565b7f436f6d6d756e6974793a204d696e74696e67206c696d6974206578636565646560008201527f6400000000000000000000000000000000000000000000000000000000000000602082015250565b6000618fc36021836165fc565b9150618fce82618f67565b604082019050919050565b60006020820190508181036000830152618ff281618fb6565b9050919050565b7f436f6d6d756e6974793a2043616e6e6f74206d696e7420746f207a65726f206160008201527f6464726573730000000000000000000000000000000000000000000000000000602082015250565b60006190556026836165fc565b915061906082618ff9565b604082019050919050565b6000602082019050818103600083015261908481619048565b9050919050565b60008160601b9050919050565b60006190a38261908b565b9050919050565b60006190b582619098565b9050919050565b6190cd6190c8826166c3565b6190aa565b82525050565b60008160f81b9050919050565b60006190eb826190d3565b9050919050565b6191036190fe82617517565b6190e0565b82525050565b600061911582856190bc565b60148201915061912582846190f2565b6001820191508190509392505050565b601f821115619176576191478161888a565b61915084617ff9565b8101602085101561915f578190505b61917361916b85617ff9565b8301826180e0565b50505b505050565b61918482617095565b67ffffffffffffffff81111561919d5761919c616890565b5b6191a78254617dbe565b6191b2828285619135565b600060209050601f8311600181146191e557600084156191d3578287015190505b6191dd8582618174565b865550619245565b601f1984166191f38661888a565b60005b8281101561921b578489015182556001820191506020850194506020810190506191f6565b868310156192385784890151619234601f891682618156565b8355505b6001600288020188555050505b505050505050565b600060408201905061926260008301856167fb565b61926f6020830184616c8e565b9392505050565b7f4c696d6974204578636565646564210000000000000000000000000000000000600082015250565b60006192ac600f836165fc565b91506192b782619276565b602082019050919050565b600060208201905081810360008301526192db8161929f565b905091905056fea26469706673582212205a92da5f3fdf6501b9ac41002f5a47b108ea41dc283f32d44fa1fe90585a1f2864736f6c634300081b0033",
  "linkReferences": {},
  "deployedLinkReferences": {}
}