{
  "_format": "hh-sol-artifact-1",
  "contractName": "Community",
  "sourceName": "contracts/Community Contracts/Community.sol",
  "abi": [
    {
      "inputs": [
        {
          "internalType": "address[]",
          "name": "_reviewers",
          "type": "address[]"
        }
      ],
      "stateMutability": "nonpayable",
      "type": "constructor"
    },
    {
      "inputs": [],
      "name": "AccessControlBadConfirmation",
      "type": "error"
    },
    {
      "inputs": [
        {
          "internalType": "address",
          "name": "account",
          "type": "address"
        },
        {
          "internalType": "bytes32",
          "name": "neededRole",
          "type": "bytes32"
        }
      ],
      "name": "AccessControlUnauthorizedAccount",
      "type": "error"
    },
    {
      "inputs": [
        {
          "internalType": "address",
          "name": "spender",
          "type": "address"
        },
        {
          "internalType": "uint256",
          "name": "allowance",
          "type": "uint256"
        },
        {
          "internalType": "uint256",
          "name": "needed",
          "type": "uint256"
        }
      ],
      "name": "ERC20InsufficientAllowance",
      "type": "error"
    },
    {
      "inputs": [
        {
          "internalType": "address",
          "name": "sender",
          "type": "address"
        },
        {
          "internalType": "uint256",
          "name": "balance",
          "type": "uint256"
        },
        {
          "internalType": "uint256",
          "name": "needed",
          "type": "uint256"
        }
      ],
      "name": "ERC20InsufficientBalance",
      "type": "error"
    },
    {
      "inputs": [
        {
          "internalType": "address",
          "name": "approver",
          "type": "address"
        }
      ],
      "name": "ERC20InvalidApprover",
      "type": "error"
    },
    {
      "inputs": [
        {
          "internalType": "address",
          "name": "receiver",
          "type": "address"
        }
      ],
      "name": "ERC20InvalidReceiver",
      "type": "error"
    },
    {
      "inputs": [
        {
          "internalType": "address",
          "name": "sender",
          "type": "address"
        }
      ],
      "name": "ERC20InvalidSender",
      "type": "error"
    },
    {
      "inputs": [
        {
          "internalType": "address",
          "name": "spender",
          "type": "address"
        }
      ],
      "name": "ERC20InvalidSpender",
      "type": "error"
    },
    {
      "inputs": [],
      "name": "ReentrancyGuardReentrantCall",
      "type": "error"
    },
    {
      "anonymous": false,
      "inputs": [
        {
          "indexed": true,
          "internalType": "uint256",
          "name": "_amount",
          "type": "uint256"
        },
        {
          "indexed": false,
          "internalType": "uint256",
          "name": "_numberOfEarlyAdopters",
          "type": "uint256"
        }
      ],
      "name": "AirdropDistributeSuccess",
      "type": "event"
    },
    {
      "anonymous": false,
      "inputs": [
        {
          "indexed": true,
          "internalType": "address",
          "name": "owner",
          "type": "address"
        },
        {
          "indexed": true,
          "internalType": "address",
          "name": "spender",
          "type": "address"
        },
        {
          "indexed": false,
          "internalType": "uint256",
          "name": "value",
          "type": "uint256"
        }
      ],
      "name": "Approval",
      "type": "event"
    },
    {
      "anonymous": false,
      "inputs": [
        {
          "indexed": true,
          "internalType": "address",
          "name": "member",
          "type": "address"
        },
        {
          "indexed": false,
          "internalType": "enum CommunityBadgeSystem.BadgeLevel",
          "name": "badge",
          "type": "uint8"
        }
      ],
      "name": "BadgeAwarded",
      "type": "event"
    },
    {
      "anonymous": false,
      "inputs": [
        {
          "indexed": true,
          "internalType": "address",
          "name": "_account",
          "type": "address"
        },
        {
          "indexed": false,
          "internalType": "uint256",
          "name": "_amount",
          "type": "uint256"
        }
      ],
      "name": "BurnSuccess",
      "type": "event"
    },
    {
      "anonymous": false,
      "inputs": [
        {
          "indexed": true,
          "internalType": "address",
          "name": "_to",
          "type": "address"
        },
        {
          "indexed": true,
          "internalType": "uint256",
          "name": "_amount",
          "type": "uint256"
        }
      ],
      "name": "CommunityPoolUpdate",
      "type": "event"
    },
    {
      "anonymous": false,
      "inputs": [
        {
          "indexed": true,
          "internalType": "uint256",
          "name": "eventId",
          "type": "uint256"
        },
        {
          "indexed": false,
          "internalType": "string",
          "name": "name",
          "type": "string"
        },
        {
          "indexed": false,
          "internalType": "address",
          "name": "creator",
          "type": "address"
        },
        {
          "indexed": false,
          "internalType": "bool",
          "name": "isOnline",
          "type": "bool"
        },
        {
          "indexed": false,
          "internalType": "string",
          "name": "location",
          "type": "string"
        }
      ],
      "name": "EventCreated",
      "type": "event"
    },
    {
      "anonymous": false,
      "inputs": [
        {
          "indexed": true,
          "internalType": "uint256",
          "name": "eventId",
          "type": "uint256"
        },
        {
          "indexed": false,
          "internalType": "address",
          "name": "participant",
          "type": "address"
        }
      ],
      "name": "EventParticipation",
      "type": "event"
    },
    {
      "anonymous": false,
      "inputs": [
        {
          "indexed": true,
          "internalType": "address",
          "name": "member",
          "type": "address"
        },
        {
          "indexed": false,
          "internalType": "uint256",
          "name": "totalEvents",
          "type": "uint256"
        }
      ],
      "name": "EventParticipationRecorded",
      "type": "event"
    },
    {
      "anonymous": false,
      "inputs": [
        {
          "indexed": true,
          "internalType": "address",
          "name": "_address",
          "type": "address"
        }
      ],
      "name": "JoinSuccess",
      "type": "event"
    },
    {
      "anonymous": false,
      "inputs": [
        {
          "indexed": true,
          "internalType": "address",
          "name": "member",
          "type": "address"
        }
      ],
      "name": "MemberRegistered",
      "type": "event"
    },
    {
      "anonymous": false,
      "inputs": [
        {
          "indexed": true,
          "internalType": "address",
          "name": "_to",
          "type": "address"
        },
        {
          "indexed": true,
          "internalType": "uint256",
          "name": "_amount",
          "type": "uint256"
        }
      ],
      "name": "MintSuccess",
      "type": "event"
    },
    {
      "anonymous": false,
      "inputs": [
        {
          "indexed": true,
          "internalType": "uint256",
          "name": "proposalId",
          "type": "uint256"
        },
        {
          "indexed": false,
          "internalType": "address",
          "name": "approver",
          "type": "address"
        }
      ],
      "name": "MultiSigProposalApproved",
      "type": "event"
    },
    {
      "anonymous": false,
      "inputs": [
        {
          "indexed": true,
          "internalType": "uint256",
          "name": "proposalId",
          "type": "uint256"
        },
        {
          "indexed": false,
          "internalType": "address",
          "name": "proposer",
          "type": "address"
        }
      ],
      "name": "MultiSigProposalCreated",
      "type": "event"
    },
    {
      "anonymous": false,
      "inputs": [
        {
          "indexed": true,
          "internalType": "uint256",
          "name": "proposalId",
          "type": "uint256"
        }
      ],
      "name": "MultiSigProposalExecuted",
      "type": "event"
    },
    {
      "anonymous": false,
      "inputs": [
        {
          "indexed": true,
          "internalType": "uint256",
          "name": "proposalId",
          "type": "uint256"
        },
        {
          "indexed": true,
          "internalType": "address",
          "name": "creator",
          "type": "address"
        },
        {
          "indexed": false,
          "internalType": "uint256",
          "name": "amount",
          "type": "uint256"
        }
      ],
      "name": "ProjectFundingReleased",
      "type": "event"
    },
    {
      "anonymous": false,
      "inputs": [
        {
          "indexed": true,
          "internalType": "uint256",
          "name": "proposalId",
          "type": "uint256"
        }
      ],
      "name": "ProjectProposalApproved",
      "type": "event"
    },
    {
      "anonymous": false,
      "inputs": [
        {
          "indexed": true,
          "internalType": "uint256",
          "name": "proposalId",
          "type": "uint256"
        },
        {
          "indexed": true,
          "internalType": "address",
          "name": "creator",
          "type": "address"
        },
        {
          "indexed": false,
          "internalType": "string",
          "name": "name",
          "type": "string"
        },
        {
          "indexed": false,
          "internalType": "uint256",
          "name": "requestedAmount",
          "type": "uint256"
        }
      ],
      "name": "ProjectProposalCreated",
      "type": "event"
    },
    {
      "anonymous": false,
      "inputs": [
        {
          "indexed": true,
          "internalType": "uint256",
          "name": "proposalId",
          "type": "uint256"
        },
        {
          "indexed": false,
          "internalType": "string",
          "name": "reason",
          "type": "string"
        }
      ],
      "name": "ProjectProposalRejected",
      "type": "event"
    },
    {
      "anonymous": false,
      "inputs": [
        {
          "indexed": true,
          "internalType": "address",
          "name": "reviewer",
          "type": "address"
        }
      ],
      "name": "ReviewerAddedToPool",
      "type": "event"
    },
    {
      "anonymous": false,
      "inputs": [
        {
          "indexed": true,
          "internalType": "address",
          "name": "reviewer",
          "type": "address"
        }
      ],
      "name": "ReviewerRemovedFromPool",
      "type": "event"
    },
    {
      "anonymous": false,
      "inputs": [
        {
          "indexed": true,
          "internalType": "bytes32",
          "name": "role",
          "type": "bytes32"
        },
        {
          "indexed": true,
          "internalType": "bytes32",
          "name": "previousAdminRole",
          "type": "bytes32"
        },
        {
          "indexed": true,
          "internalType": "bytes32",
          "name": "newAdminRole",
          "type": "bytes32"
        }
      ],
      "name": "RoleAdminChanged",
      "type": "event"
    },
    {
      "anonymous": false,
      "inputs": [
        {
          "indexed": true,
          "internalType": "bytes32",
          "name": "role",
          "type": "bytes32"
        },
        {
          "indexed": true,
          "internalType": "address",
          "name": "account",
          "type": "address"
        },
        {
          "indexed": true,
          "internalType": "address",
          "name": "sender",
          "type": "address"
        }
      ],
      "name": "RoleGranted",
      "type": "event"
    },
    {
      "anonymous": false,
      "inputs": [
        {
          "indexed": true,
          "internalType": "bytes32",
          "name": "role",
          "type": "bytes32"
        },
        {
          "indexed": true,
          "internalType": "address",
          "name": "account",
          "type": "address"
        },
        {
          "indexed": true,
          "internalType": "address",
          "name": "sender",
          "type": "address"
        }
      ],
      "name": "RoleRevoked",
      "type": "event"
    },
    {
      "anonymous": false,
      "inputs": [
        {
          "indexed": true,
          "internalType": "address",
          "name": "from",
          "type": "address"
        },
        {
          "indexed": true,
          "internalType": "address",
          "name": "to",
          "type": "address"
        },
        {
          "indexed": false,
          "internalType": "uint256",
          "name": "value",
          "type": "uint256"
        }
      ],
      "name": "Transfer",
      "type": "event"
    },
    {
      "inputs": [],
      "name": "CHAMPION_BADGE_THRESHOLD",
      "outputs": [
        {
          "internalType": "uint256",
          "name": "",
          "type": "uint256"
        }
      ],
      "stateMutability": "view",
      "type": "function"
    },
    {
      "inputs": [],
      "name": "CHAMPION_REWARD",
      "outputs": [
        {
          "internalType": "uint256",
          "name": "",
          "type": "uint256"
        }
      ],
      "stateMutability": "view",
      "type": "function"
    },
    {
      "inputs": [],
      "name": "COMMUNITY_MANAGER",
      "outputs": [
        {
          "internalType": "bytes32",
          "name": "",
          "type": "bytes32"
        }
      ],
      "stateMutability": "view",
      "type": "function"
    },
    {
      "inputs": [],
      "name": "COMMUNITY_POOL",
      "outputs": [
        {
          "internalType": "uint256",
          "name": "",
          "type": "uint256"
        }
      ],
      "stateMutability": "view",
      "type": "function"
    },
    {
      "inputs": [],
      "name": "CONTRIBUTOR_BADGE_THRESHOLD",
      "outputs": [
        {
          "internalType": "uint256",
          "name": "",
          "type": "uint256"
        }
      ],
      "stateMutability": "view",
      "type": "function"
    },
    {
      "inputs": [],
      "name": "CONTRIBUTOR_REWARD",
      "outputs": [
        {
          "internalType": "uint256",
          "name": "",
          "type": "uint256"
        }
      ],
      "stateMutability": "view",
      "type": "function"
    },
    {
      "inputs": [],
      "name": "DEFAULT_ADMIN_ROLE",
      "outputs": [
        {
          "internalType": "bytes32",
          "name": "",
          "type": "bytes32"
        }
      ],
      "stateMutability": "view",
      "type": "function"
    },
    {
      "inputs": [],
      "name": "EVENT_PARTICIPATION_REWARD",
      "outputs": [
        {
          "internalType": "uint256",
          "name": "",
          "type": "uint256"
        }
      ],
      "stateMutability": "view",
      "type": "function"
    },
    {
      "inputs": [],
      "name": "LEADER_BADGE_THRESHOLD",
      "outputs": [
        {
          "internalType": "uint256",
          "name": "",
          "type": "uint256"
        }
      ],
      "stateMutability": "view",
      "type": "function"
    },
    {
      "inputs": [],
      "name": "LEADER_REWARD",
      "outputs": [
        {
          "internalType": "uint256",
          "name": "",
          "type": "uint256"
        }
      ],
      "stateMutability": "view",
      "type": "function"
    },
    {
      "inputs": [],
      "name": "MAX_COMMUNITY_PROJECT_FUNDING",
      "outputs": [
        {
          "internalType": "uint256",
          "name": "",
          "type": "uint256"
        }
      ],
      "stateMutability": "view",
      "type": "function"
    },
    {
      "inputs": [],
      "name": "MAX_SUPPLY",
      "outputs": [
        {
          "internalType": "uint256",
          "name": "",
          "type": "uint256"
        }
      ],
      "stateMutability": "view",
      "type": "function"
    },
    {
      "inputs": [],
      "name": "MULTISIG_APPROVER",
      "outputs": [
        {
          "internalType": "bytes32",
          "name": "",
          "type": "bytes32"
        }
      ],
      "stateMutability": "view",
      "type": "function"
    },
    {
      "inputs": [],
      "name": "PARTICIPANT_BADGE_THRESHOLD",
      "outputs": [
        {
          "internalType": "uint256",
          "name": "",
          "type": "uint256"
        }
      ],
      "stateMutability": "view",
      "type": "function"
    },
    {
      "inputs": [],
      "name": "PARTICIPANT_REWARD",
      "outputs": [
        {
          "internalType": "uint256",
          "name": "",
          "type": "uint256"
        }
      ],
      "stateMutability": "view",
      "type": "function"
    },
    {
      "inputs": [],
      "name": "REVIEWER_ROLE",
      "outputs": [
        {
          "internalType": "bytes32",
          "name": "",
          "type": "bytes32"
        }
      ],
      "stateMutability": "view",
      "type": "function"
    },
    {
      "inputs": [
        {
          "internalType": "uint256",
          "name": "",
          "type": "uint256"
        }
      ],
      "name": "abyaCommunity",
      "outputs": [
        {
          "internalType": "address",
          "name": "",
          "type": "address"
        }
      ],
      "stateMutability": "view",
      "type": "function"
    },
    {
      "inputs": [
        {
          "internalType": "address",
          "name": "newApprover",
          "type": "address"
        }
      ],
      "name": "addMultiSigApprover",
      "outputs": [],
      "stateMutability": "nonpayable",
      "type": "function"
    },
    {
      "inputs": [
        {
          "internalType": "address",
          "name": "newReviewer",
          "type": "address"
        }
      ],
      "name": "addReviewer",
      "outputs": [],
      "stateMutability": "nonpayable",
      "type": "function"
    },
    {
      "inputs": [
        {
          "internalType": "address",
          "name": "owner",
          "type": "address"
        },
        {
          "internalType": "address",
          "name": "spender",
          "type": "address"
        }
      ],
      "name": "allowance",
      "outputs": [
        {
          "internalType": "uint256",
          "name": "",
          "type": "uint256"
        }
      ],
      "stateMutability": "view",
      "type": "function"
    },
    {
      "inputs": [
        {
          "internalType": "address",
          "name": "spender",
          "type": "address"
        },
        {
          "internalType": "uint256",
          "name": "value",
          "type": "uint256"
        }
      ],
      "name": "approve",
      "outputs": [
        {
          "internalType": "bool",
          "name": "",
          "type": "bool"
        }
      ],
      "stateMutability": "nonpayable",
      "type": "function"
    },
    {
      "inputs": [
        {
          "internalType": "uint256",
          "name": "_proposalId",
          "type": "uint256"
        }
      ],
      "name": "approveMultiSigProposal",
      "outputs": [],
      "stateMutability": "nonpayable",
      "type": "function"
    },
    {
      "inputs": [
        {
          "internalType": "uint256",
          "name": "_proposalId",
          "type": "uint256"
        }
      ],
      "name": "approveProjectProposal",
      "outputs": [],
      "stateMutability": "nonpayable",
      "type": "function"
    },
    {
      "inputs": [
        {
          "internalType": "enum CommunityBadgeSystem.BadgeLevel",
          "name": "",
          "type": "uint8"
        }
      ],
      "name": "badgeMetadata",
      "outputs": [
        {
          "internalType": "string",
          "name": "name",
          "type": "string"
        },
        {
          "internalType": "string",
          "name": "iconURI",
          "type": "string"
        },
        {
          "internalType": "uint256",
          "name": "tokenReward",
          "type": "uint256"
        }
      ],
      "stateMutability": "view",
      "type": "function"
    },
    {
      "inputs": [
        {
          "internalType": "address",
          "name": "account",
          "type": "address"
        }
      ],
      "name": "balanceOf",
      "outputs": [
        {
          "internalType": "uint256",
          "name": "",
          "type": "uint256"
        }
      ],
      "stateMutability": "view",
      "type": "function"
    },
    {
      "inputs": [],
      "name": "checkMemberBadge",
      "outputs": [
        {
          "internalType": "enum CommunityBadgeSystem.BadgeLevel",
          "name": "",
          "type": "uint8"
        }
      ],
      "stateMutability": "view",
      "type": "function"
    },
    {
      "inputs": [],
      "name": "claimBadgeRewards",
      "outputs": [],
      "stateMutability": "nonpayable",
      "type": "function"
    },
    {
      "inputs": [
        {
          "internalType": "address",
          "name": "",
          "type": "address"
        }
      ],
      "name": "communityContributorRewards",
      "outputs": [
        {
          "internalType": "uint256",
          "name": "",
          "type": "uint256"
        }
      ],
      "stateMutability": "view",
      "type": "function"
    },
    {
      "inputs": [
        {
          "internalType": "uint256",
          "name": "",
          "type": "uint256"
        }
      ],
      "name": "communityEvents",
      "outputs": [
        {
          "internalType": "uint256",
          "name": "id",
          "type": "uint256"
        },
        {
          "internalType": "string",
          "name": "name",
          "type": "string"
        },
        {
          "internalType": "address",
          "name": "creator",
          "type": "address"
        },
        {
          "internalType": "uint256",
          "name": "startTime",
          "type": "uint256"
        },
        {
          "internalType": "uint256",
          "name": "endTime",
          "type": "uint256"
        },
        {
          "internalType": "uint256",
          "name": "maxParticipants",
          "type": "uint256"
        },
        {
          "internalType": "uint256",
          "name": "currentParticipants",
          "type": "uint256"
        },
        {
          "internalType": "bool",
          "name": "isActive",
          "type": "bool"
        },
        {
          "internalType": "bool",
          "name": "isOnline",
          "type": "bool"
        },
        {
          "internalType": "string",
          "name": "location",
          "type": "string"
        },
        {
          "internalType": "string",
          "name": "additionalDetails",
          "type": "string"
        }
      ],
      "stateMutability": "view",
      "type": "function"
    },
    {
      "inputs": [
        {
          "internalType": "address",
          "name": "",
          "type": "address"
        }
      ],
      "name": "communityMembers",
      "outputs": [
        {
          "internalType": "uint256",
          "name": "totalEventsAttended",
          "type": "uint256"
        },
        {
          "internalType": "uint256",
          "name": "totalContributions",
          "type": "uint256"
        },
        {
          "internalType": "enum CommunityBadgeSystem.BadgeLevel",
          "name": "currentBadge",
          "type": "uint8"
        }
      ],
      "stateMutability": "view",
      "type": "function"
    },
    {
      "inputs": [],
      "name": "communityPoolSupply",
      "outputs": [
        {
          "internalType": "uint256",
          "name": "",
          "type": "uint256"
        }
      ],
      "stateMutability": "view",
      "type": "function"
    },
    {
      "inputs": [],
      "name": "communityProjectFunds",
      "outputs": [
        {
          "internalType": "uint256",
          "name": "",
          "type": "uint256"
        }
      ],
      "stateMutability": "view",
      "type": "function"
    },
    {
      "inputs": [
        {
          "internalType": "string",
          "name": "_name",
          "type": "string"
        },
        {
          "internalType": "uint256",
          "name": "_startTime",
          "type": "uint256"
        },
        {
          "internalType": "uint256",
          "name": "_endTime",
          "type": "uint256"
        },
        {
          "internalType": "uint256",
          "name": "_maxParticipants",
          "type": "uint256"
        },
        {
          "internalType": "bool",
          "name": "_isOnline",
          "type": "bool"
        },
        {
          "internalType": "string",
          "name": "_location",
          "type": "string"
        },
        {
          "internalType": "string",
          "name": "_additionalDetails",
          "type": "string"
        }
      ],
      "name": "createEvent",
      "outputs": [
        {
          "internalType": "uint256",
          "name": "",
          "type": "uint256"
        }
      ],
      "stateMutability": "nonpayable",
      "type": "function"
    },
    {
      "inputs": [
        {
          "internalType": "string",
          "name": "_name",
          "type": "string"
        },
        {
          "internalType": "string",
          "name": "_description",
          "type": "string"
        },
        {
          "internalType": "string[]",
          "name": "_techStack",
          "type": "string[]"
        },
        {
          "internalType": "string",
          "name": "_blockchain",
          "type": "string"
        },
        {
          "internalType": "uint256",
          "name": "_requestedAmount",
          "type": "uint256"
        },
        {
          "internalType": "uint256",
          "name": "_timeline",
          "type": "uint256"
        },
        {
          "internalType": "enum Community.ProjectStage",
          "name": "_stage",
          "type": "uint8"
        }
      ],
      "name": "createProjectFundingProposal",
      "outputs": [
        {
          "internalType": "uint256",
          "name": "",
          "type": "uint256"
        }
      ],
      "stateMutability": "nonpayable",
      "type": "function"
    },
    {
      "inputs": [],
      "name": "decimals",
      "outputs": [
        {
          "internalType": "uint8",
          "name": "",
          "type": "uint8"
        }
      ],
      "stateMutability": "view",
      "type": "function"
    },
    {
      "inputs": [
        {
          "internalType": "uint256",
          "name": "_amount",
          "type": "uint256"
        },
        {
          "internalType": "address[]",
          "name": "earlyAdopters",
          "type": "address[]"
        }
      ],
      "name": "distributeAirdrops",
      "outputs": [
        {
          "internalType": "bool",
          "name": "",
          "type": "bool"
        }
      ],
      "stateMutability": "nonpayable",
      "type": "function"
    },
    {
      "inputs": [],
      "name": "getAllCommunityEvents",
      "outputs": [
        {
          "components": [
            {
              "internalType": "uint256",
              "name": "id",
              "type": "uint256"
            },
            {
              "internalType": "string",
              "name": "name",
              "type": "string"
            },
            {
              "internalType": "address",
              "name": "creator",
              "type": "address"
            },
            {
              "internalType": "uint256",
              "name": "startTime",
              "type": "uint256"
            },
            {
              "internalType": "uint256",
              "name": "endTime",
              "type": "uint256"
            },
            {
              "internalType": "uint256",
              "name": "maxParticipants",
              "type": "uint256"
            },
            {
              "internalType": "uint256",
              "name": "currentParticipants",
              "type": "uint256"
            },
            {
              "internalType": "bool",
              "name": "isActive",
              "type": "bool"
            },
            {
              "internalType": "bool",
              "name": "isOnline",
              "type": "bool"
            },
            {
              "internalType": "string",
              "name": "location",
              "type": "string"
            },
            {
              "internalType": "string",
              "name": "additionalDetails",
              "type": "string"
            }
          ],
          "internalType": "struct Community.CommunityEvent[]",
          "name": "",
          "type": "tuple[]"
        }
      ],
      "stateMutability": "view",
      "type": "function"
    },
    {
      "inputs": [],
      "name": "getAllCommunityMembers",
      "outputs": [
        {
          "internalType": "address[]",
          "name": "",
          "type": "address[]"
        }
      ],
      "stateMutability": "view",
      "type": "function"
    },
    {
      "inputs": [],
      "name": "getAllProjectProposals",
      "outputs": [
        {
          "components": [
            {
              "internalType": "uint256",
              "name": "id",
              "type": "uint256"
            },
            {
              "internalType": "address",
              "name": "creator",
              "type": "address"
            },
            {
              "internalType": "string",
              "name": "name",
              "type": "string"
            },
            {
              "internalType": "string",
              "name": "description",
              "type": "string"
            },
            {
              "internalType": "string[]",
              "name": "techStack",
              "type": "string[]"
            },
            {
              "internalType": "string",
              "name": "blockchain",
              "type": "string"
            },
            {
              "internalType": "uint256",
              "name": "requestedAmount",
              "type": "uint256"
            },
            {
              "internalType": "uint256",
              "name": "timeline",
              "type": "uint256"
            },
            {
              "internalType": "enum Community.ProjectStage",
              "name": "stage",
              "type": "uint8"
            },
            {
              "internalType": "bool",
              "name": "isApproved",
              "type": "bool"
            },
            {
              "internalType": "bool",
              "name": "isRejected",
              "type": "bool"
            },
            {
              "internalType": "string",
              "name": "rejectionReason",
              "type": "string"
            },
            {
              "internalType": "uint256",
              "name": "approvalCount",
              "type": "uint256"
            }
          ],
          "internalType": "struct Community.ProjectFundingProposal[]",
          "name": "",
          "type": "tuple[]"
        }
      ],
      "stateMutability": "view",
      "type": "function"
    },
    {
      "inputs": [
        {
          "internalType": "enum CommunityBadgeSystem.BadgeLevel",
          "name": "_level",
          "type": "uint8"
        }
      ],
      "name": "getBadgeMetadata",
      "outputs": [
        {
          "components": [
            {
              "internalType": "string",
              "name": "name",
              "type": "string"
            },
            {
              "internalType": "string",
              "name": "iconURI",
              "type": "string"
            },
            {
              "internalType": "uint256",
              "name": "tokenReward",
              "type": "uint256"
            }
          ],
          "internalType": "struct CommunityBadgeSystem.BadgeMetadata",
          "name": "",
          "type": "tuple"
        }
      ],
      "stateMutability": "view",
      "type": "function"
    },
    {
      "inputs": [
        {
          "internalType": "address",
          "name": "_member",
          "type": "address"
        }
      ],
      "name": "getMemberBadge",
      "outputs": [
        {
          "internalType": "enum CommunityBadgeSystem.BadgeLevel",
          "name": "",
          "type": "uint8"
        }
      ],
      "stateMutability": "view",
      "type": "function"
    },
    {
      "inputs": [
        {
          "internalType": "address",
          "name": "_member",
          "type": "address"
        }
      ],
      "name": "getMemberBadgeDetails",
      "outputs": [
        {
          "internalType": "enum CommunityBadgeSystem.BadgeLevel",
          "name": "currentBadge",
          "type": "uint8"
        },
        {
          "internalType": "string",
          "name": "badgeName",
          "type": "string"
        },
        {
          "internalType": "string",
          "name": "iconURI",
          "type": "string"
        },
        {
          "internalType": "uint256",
          "name": "tokenReward",
          "type": "uint256"
        },
        {
          "internalType": "uint256",
          "name": "totalEventsAttended",
          "type": "uint256"
        }
      ],
      "stateMutability": "view",
      "type": "function"
    },
    {
      "inputs": [
        {
          "internalType": "uint256",
          "name": "_proposalId",
          "type": "uint256"
        }
      ],
      "name": "getProjectProposal",
      "outputs": [
        {
          "internalType": "address",
          "name": "creator",
          "type": "address"
        },
        {
          "internalType": "string",
          "name": "name",
          "type": "string"
        },
        {
          "internalType": "string",
          "name": "description",
          "type": "string"
        },
        {
          "internalType": "string",
          "name": "blockchain",
          "type": "string"
        },
        {
          "internalType": "uint256",
          "name": "requestedAmount",
          "type": "uint256"
        },
        {
          "internalType": "uint256",
          "name": "timeline",
          "type": "uint256"
        },
        {
          "internalType": "enum Community.ProjectStage",
          "name": "stage",
          "type": "uint8"
        },
        {
          "internalType": "bool",
          "name": "isApproved",
          "type": "bool"
        },
        {
          "internalType": "bool",
          "name": "isRejected",
          "type": "bool"
        },
        {
          "internalType": "string",
          "name": "rejectionReason",
          "type": "string"
        },
        {
          "internalType": "uint256",
          "name": "approvalCount",
          "type": "uint256"
        }
      ],
      "stateMutability": "view",
      "type": "function"
    },
    {
      "inputs": [
        {
          "internalType": "uint256",
          "name": "_proposalId",
          "type": "uint256"
        }
      ],
      "name": "getProjectTechStack",
      "outputs": [
        {
          "internalType": "string[]",
          "name": "",
          "type": "string[]"
        }
      ],
      "stateMutability": "view",
      "type": "function"
    },
    {
      "inputs": [
        {
          "internalType": "bytes32",
          "name": "role",
          "type": "bytes32"
        }
      ],
      "name": "getRoleAdmin",
      "outputs": [
        {
          "internalType": "bytes32",
          "name": "",
          "type": "bytes32"
        }
      ],
      "stateMutability": "view",
      "type": "function"
    },
    {
      "inputs": [
        {
          "internalType": "address",
          "name": "_member",
          "type": "address"
        }
      ],
      "name": "getTotalEventsAttended",
      "outputs": [
        {
          "internalType": "uint256",
          "name": "",
          "type": "uint256"
        }
      ],
      "stateMutability": "view",
      "type": "function"
    },
    {
      "inputs": [
        {
          "internalType": "bytes32",
          "name": "role",
          "type": "bytes32"
        },
        {
          "internalType": "address",
          "name": "account",
          "type": "address"
        }
      ],
      "name": "grantRole",
      "outputs": [],
      "stateMutability": "nonpayable",
      "type": "function"
    },
    {
      "inputs": [
        {
          "internalType": "address",
          "name": "_member",
          "type": "address"
        },
        {
          "internalType": "enum CommunityBadgeSystem.BadgeLevel",
          "name": "_badgeLevel",
          "type": "uint8"
        }
      ],
      "name": "hasBadge",
      "outputs": [
        {
          "internalType": "bool",
          "name": "",
          "type": "bool"
        }
      ],
      "stateMutability": "view",
      "type": "function"
    },
    {
      "inputs": [
        {
          "internalType": "bytes32",
          "name": "role",
          "type": "bytes32"
        },
        {
          "internalType": "address",
          "name": "account",
          "type": "address"
        }
      ],
      "name": "hasRole",
      "outputs": [
        {
          "internalType": "bool",
          "name": "",
          "type": "bool"
        }
      ],
      "stateMutability": "view",
      "type": "function"
    },
    {
      "inputs": [
        {
          "internalType": "address",
          "name": "",
          "type": "address"
        }
      ],
      "name": "isCommunityMember",
      "outputs": [
        {
          "internalType": "bool",
          "name": "",
          "type": "bool"
        }
      ],
      "stateMutability": "view",
      "type": "function"
    },
    {
      "inputs": [
        {
          "internalType": "address",
          "name": "",
          "type": "address"
        }
      ],
      "name": "isInReviewerPool",
      "outputs": [
        {
          "internalType": "bool",
          "name": "",
          "type": "bool"
        }
      ],
      "stateMutability": "view",
      "type": "function"
    },
    {
      "inputs": [
        {
          "internalType": "address",
          "name": "account",
          "type": "address"
        }
      ],
      "name": "isReviewer",
      "outputs": [
        {
          "internalType": "bool",
          "name": "",
          "type": "bool"
        }
      ],
      "stateMutability": "view",
      "type": "function"
    },
    {
      "inputs": [],
      "name": "joinCommunity",
      "outputs": [
        {
          "internalType": "bool",
          "name": "",
          "type": "bool"
        }
      ],
      "stateMutability": "nonpayable",
      "type": "function"
    },
    {
      "inputs": [
        {
          "internalType": "uint256",
          "name": "",
          "type": "uint256"
        }
      ],
      "name": "multiSigProposals",
      "outputs": [
        {
          "internalType": "uint256",
          "name": "id",
          "type": "uint256"
        },
        {
          "internalType": "address",
          "name": "proposer",
          "type": "address"
        },
        {
          "internalType": "address",
          "name": "targetContract",
          "type": "address"
        },
        {
          "internalType": "bytes",
          "name": "data",
          "type": "bytes"
        },
        {
          "internalType": "uint256",
          "name": "approvalCount",
          "type": "uint256"
        },
        {
          "internalType": "bool",
          "name": "executed",
          "type": "bool"
        }
      ],
      "stateMutability": "view",
      "type": "function"
    },
    {
      "inputs": [],
      "name": "name",
      "outputs": [
        {
          "internalType": "string",
          "name": "",
          "type": "string"
        }
      ],
      "stateMutability": "view",
      "type": "function"
    },
    {
      "inputs": [
        {
          "internalType": "uint256",
          "name": "_eventId",
          "type": "uint256"
        }
      ],
      "name": "participateInEvent",
      "outputs": [],
      "stateMutability": "nonpayable",
      "type": "function"
    },
    {
      "inputs": [
        {
          "internalType": "uint256",
          "name": "_amount",
          "type": "uint256"
        },
        {
          "internalType": "address[]",
          "name": "earlyAdopters",
          "type": "address[]"
        }
      ],
      "name": "performAirdrop",
      "outputs": [],
      "stateMutability": "nonpayable",
      "type": "function"
    },
    {
      "inputs": [
        {
          "internalType": "address[]",
          "name": "_eligibleAddresses",
          "type": "address[]"
        },
        {
          "internalType": "uint256",
          "name": "_amount",
          "type": "uint256"
        }
      ],
      "name": "performPeriodicAirdrop",
      "outputs": [],
      "stateMutability": "nonpayable",
      "type": "function"
    },
    {
      "inputs": [
        {
          "internalType": "address[]",
          "name": "_eligibleAddresses",
          "type": "address[]"
        },
        {
          "internalType": "uint256",
          "name": "_amount",
          "type": "uint256"
        }
      ],
      "name": "periodicAirdrops",
      "outputs": [],
      "stateMutability": "nonpayable",
      "type": "function"
    },
    {
      "inputs": [
        {
          "internalType": "address",
          "name": "_contributor",
          "type": "address"
        },
        {
          "internalType": "uint256",
          "name": "_rewardAmount",
          "type": "uint256"
        }
      ],
      "name": "processCommunityRewards",
      "outputs": [],
      "stateMutability": "nonpayable",
      "type": "function"
    },
    {
      "inputs": [
        {
          "internalType": "uint256",
          "name": "",
          "type": "uint256"
        }
      ],
      "name": "projectProposals",
      "outputs": [
        {
          "internalType": "uint256",
          "name": "id",
          "type": "uint256"
        },
        {
          "internalType": "address",
          "name": "creator",
          "type": "address"
        },
        {
          "internalType": "string",
          "name": "name",
          "type": "string"
        },
        {
          "internalType": "string",
          "name": "description",
          "type": "string"
        },
        {
          "internalType": "string",
          "name": "blockchain",
          "type": "string"
        },
        {
          "internalType": "uint256",
          "name": "requestedAmount",
          "type": "uint256"
        },
        {
          "internalType": "uint256",
          "name": "timeline",
          "type": "uint256"
        },
        {
          "internalType": "enum Community.ProjectStage",
          "name": "stage",
          "type": "uint8"
        },
        {
          "internalType": "bool",
          "name": "isApproved",
          "type": "bool"
        },
        {
          "internalType": "bool",
          "name": "isRejected",
          "type": "bool"
        },
        {
          "internalType": "string",
          "name": "rejectionReason",
          "type": "string"
        },
        {
          "internalType": "uint256",
          "name": "approvalCount",
          "type": "uint256"
        }
      ],
      "stateMutability": "view",
      "type": "function"
    },
    {
      "inputs": [
        {
          "internalType": "uint256",
          "name": "_proposalId",
          "type": "uint256"
        },
        {
          "internalType": "string",
          "name": "_reason",
          "type": "string"
        }
      ],
      "name": "rejectProjectProposal",
      "outputs": [],
      "stateMutability": "nonpayable",
      "type": "function"
    },
    {
      "inputs": [
        {
          "internalType": "uint256",
          "name": "_proposalId",
          "type": "uint256"
        }
      ],
      "name": "releaseProjectFunding",
      "outputs": [],
      "stateMutability": "nonpayable",
      "type": "function"
    },
    {
      "inputs": [
        {
          "internalType": "address",
          "name": "approver",
          "type": "address"
        }
      ],
      "name": "removeMultiSigApprover",
      "outputs": [],
      "stateMutability": "nonpayable",
      "type": "function"
    },
    {
      "inputs": [
        {
          "internalType": "address",
          "name": "reviewer",
          "type": "address"
        }
      ],
      "name": "removeReviewer",
      "outputs": [],
      "stateMutability": "nonpayable",
      "type": "function"
    },
    {
      "inputs": [
        {
          "internalType": "bytes32",
          "name": "role",
          "type": "bytes32"
        },
        {
          "internalType": "address",
          "name": "callerConfirmation",
          "type": "address"
        }
      ],
      "name": "renounceRole",
      "outputs": [],
      "stateMutability": "nonpayable",
      "type": "function"
    },
    {
      "inputs": [
        {
          "internalType": "uint256",
          "name": "",
          "type": "uint256"
        }
      ],
      "name": "reviewerPool",
      "outputs": [
        {
          "internalType": "address",
          "name": "",
          "type": "address"
        }
      ],
      "stateMutability": "view",
      "type": "function"
    },
    {
      "inputs": [
        {
          "internalType": "bytes32",
          "name": "role",
          "type": "bytes32"
        },
        {
          "internalType": "address",
          "name": "account",
          "type": "address"
        }
      ],
      "name": "revokeRole",
      "outputs": [],
      "stateMutability": "nonpayable",
      "type": "function"
    },
    {
      "inputs": [
        {
          "internalType": "bytes4",
          "name": "interfaceId",
          "type": "bytes4"
        }
      ],
      "name": "supportsInterface",
      "outputs": [
        {
          "internalType": "bool",
          "name": "",
          "type": "bool"
        }
      ],
      "stateMutability": "view",
      "type": "function"
    },
    {
      "inputs": [],
      "name": "symbol",
      "outputs": [
        {
          "internalType": "string",
          "name": "",
          "type": "string"
        }
      ],
      "stateMutability": "view",
      "type": "function"
    },
    {
      "inputs": [],
      "name": "totalSupply",
      "outputs": [
        {
          "internalType": "uint256",
          "name": "",
          "type": "uint256"
        }
      ],
      "stateMutability": "view",
      "type": "function"
    },
    {
      "inputs": [
        {
          "internalType": "address",
          "name": "to",
          "type": "address"
        },
        {
          "internalType": "uint256",
          "name": "value",
          "type": "uint256"
        }
      ],
      "name": "transfer",
      "outputs": [
        {
          "internalType": "bool",
          "name": "",
          "type": "bool"
        }
      ],
      "stateMutability": "nonpayable",
      "type": "function"
    },
    {
      "inputs": [
        {
          "internalType": "address",
          "name": "from",
          "type": "address"
        },
        {
          "internalType": "address",
          "name": "to",
          "type": "address"
        },
        {
          "internalType": "uint256",
          "name": "value",
          "type": "uint256"
        }
      ],
      "name": "transferFrom",
      "outputs": [
        {
          "internalType": "bool",
          "name": "",
          "type": "bool"
        }
      ],
      "stateMutability": "nonpayable",
      "type": "function"
    }
  ],
  "bytecode": "0x608060405234801561001057600080fd5b5060405161954b38038061954b83398181016040528101906100329190610b4d565b806040518060400160405280600a81526020017f4142594120544f4b454e000000000000000000000000000000000000000000008152506040518060400160405280600681526020017f414259544b4e000000000000000000000000000000000000000000000000000081525081600390816100ae9190610db7565b5080600490816100be9190610db7565b505050600160068190555060048151101561010e576040517f08c379a000000000000000000000000000000000000000000000000000000000815260040161010590610f0c565b60405180910390fd5b6101216000801b3361081160201b60201c565b506101527fdf1425bae297c2f52b4f15d18a50b1fc8cb5b981a981b1d213ed3ff92681b64d3361081160201b60201c565b5060005b81518110156102a6576101a97fc10c77be35aff266144ed64c26a1fa104bae2f284ae99ac4a34203454704a18583838151811061019657610195610f2c565b5b602002602001015161081160201b60201c565b5060078282815181106101bf576101be610f2c565b5b60200260200101519080600181540180825580915050600190039060005260206000200160009091909190916101000a81548173ffffffffffffffffffffffffffffffffffffffff021916908373ffffffffffffffffffffffffffffffffffffffff1602179055506001600960008484815181106102405761023f610f2c565b5b602002602001015173ffffffffffffffffffffffffffffffffffffffff1673ffffffffffffffffffffffffffffffffffffffff16815260200190815260200160002060006101000a81548160ff0219169083151502179055508080600101915050610156565b505060405180606001604052806040518060400160405280600881526020017f4e6577636f6d657200000000000000000000000000000000000000000000000081525081526020016040518060400160405280601a81526020017f697066733a2f2f6e6577636f6d65722d62616467652d69636f6e00000000000081525081526020016000815250600c600080600481111561034557610344610f5b565b5b600481111561035757610356610f5b565b5b8152602001908152602001600020600082015181600001908161037a9190610db7565b5060208201518160010190816103909190610db7565b506040820151816002015590505060405180606001604052806040518060400160405280600b81526020017f5061727469636970616e7400000000000000000000000000000000000000000081525081526020016040518060400160405280601d81526020017f697066733a2f2f7061727469636970616e742d62616467652d69636f6e0000008152508152602001670de0b6b3a7640000815250600c60006001600481111561044357610442610f5b565b5b600481111561045557610454610f5b565b5b815260200190815260200160002060008201518160000190816104789190610db7565b50602082015181600101908161048e9190610db7565b506040820151816002015590505060405180606001604052806040518060400160405280600b81526020017f436f6e7472696275746f7200000000000000000000000000000000000000000081525081526020016040518060400160405280601d81526020017f697066733a2f2f636f6e7472696275746f722d62616467652d69636f6e0000008152508152602001671bc16d674ec80000815250600c60006002600481111561054157610540610f5b565b5b600481111561055357610552610f5b565b5b815260200190815260200160002060008201518160000190816105769190610db7565b50602082015181600101908161058c9190610db7565b506040820151816002015590505060405180606001604052806040518060400160405280600681526020017f4c6561646572000000000000000000000000000000000000000000000000000081525081526020016040518060400160405280601881526020017f697066733a2f2f6c65616465722d62616467652d69636f6e000000000000000081525081526020016729a2241af62c0000815250600c60006003600481111561063f5761063e610f5b565b5b600481111561065157610650610f5b565b5b815260200190815260200160002060008201518160000190816106749190610db7565b50602082015181600101908161068a9190610db7565b506040820151816002015590505060405180606001604052806040518060400160405280600881526020017f4368616d70696f6e00000000000000000000000000000000000000000000000081525081526020016040518060400160405280601a81526020017f697066733a2f2f6368616d70696f6e2d62616467652d69636f6e0000000000008152508152602001673782dace9d900000815250600c600060048081111561073c5761073b610f5b565b5b600481111561074e5761074d610f5b565b5b815260200190815260200160002060008201518160000190816107719190610db7565b5060208201518160010190816107879190610db7565b50604082015181600201559050506107a86000801b3361081160201b60201c565b506107d97fc295d8a2f69016465f61012796a38346423f02058e9c426f8bc1d946bc8c84703361081160201b60201c565b5061080a7fdf1425bae297c2f52b4f15d18a50b1fc8cb5b981a981b1d213ed3ff92681b64d3361081160201b60201c565b5050610f8a565b6000610823838361090f60201b60201c565b6109045760016005600085815260200190815260200160002060000160008473ffffffffffffffffffffffffffffffffffffffff1673ffffffffffffffffffffffffffffffffffffffff16815260200190815260200160002060006101000a81548160ff0219169083151502179055506108a161097a60201b60201c565b73ffffffffffffffffffffffffffffffffffffffff168273ffffffffffffffffffffffffffffffffffffffff16847f2f8788117e7eff1d82e926ec794901d17c78024a50270940304540a733656f0d60405160405180910390a460019050610909565b600090505b92915050565b60006005600084815260200190815260200160002060000160008373ffffffffffffffffffffffffffffffffffffffff1673ffffffffffffffffffffffffffffffffffffffff16815260200190815260200160002060009054906101000a900460ff16905092915050565b600033905090565b6000604051905090565b600080fd5b600080fd5b600080fd5b6000601f19601f8301169050919050565b7f4e487b7100000000000000000000000000000000000000000000000000000000600052604160045260246000fd5b6109e48261099b565b810181811067ffffffffffffffff82111715610a0357610a026109ac565b5b80604052505050565b6000610a16610982565b9050610a2282826109db565b919050565b600067ffffffffffffffff821115610a4257610a416109ac565b5b602082029050602081019050919050565b600080fd5b600073ffffffffffffffffffffffffffffffffffffffff82169050919050565b6000610a8382610a58565b9050919050565b610a9381610a78565b8114610a9e57600080fd5b50565b600081519050610ab081610a8a565b92915050565b6000610ac9610ac484610a27565b610a0c565b90508083825260208201905060208402830185811115610aec57610aeb610a53565b5b835b81811015610b155780610b018882610aa1565b845260208401935050602081019050610aee565b5050509392505050565b600082601f830112610b3457610b33610996565b5b8151610b44848260208601610ab6565b91505092915050565b600060208284031215610b6357610b6261098c565b5b600082015167ffffffffffffffff811115610b8157610b80610991565b5b610b8d84828501610b1f565b91505092915050565b600081519050919050565b7f4e487b7100000000000000000000000000000000000000000000000000000000600052602260045260246000fd5b60006002820490506001821680610be857607f821691505b602082108103610bfb57610bfa610ba1565b5b50919050565b60008190508160005260206000209050919050565b60006020601f8301049050919050565b600082821b905092915050565b600060088302610c637fffffffffffffffffffffffffffffffffffffffffffffffffffffffffffffffff82610c26565b610c6d8683610c26565b95508019841693508086168417925050509392505050565b6000819050919050565b6000819050919050565b6000610cb4610caf610caa84610c85565b610c8f565b610c85565b9050919050565b6000819050919050565b610cce83610c99565b610ce2610cda82610cbb565b848454610c33565b825550505050565b600090565b610cf7610cea565b610d02818484610cc5565b505050565b5b81811015610d2657610d1b600082610cef565b600181019050610d08565b5050565b601f821115610d6b57610d3c81610c01565b610d4584610c16565b81016020851015610d54578190505b610d68610d6085610c16565b830182610d07565b50505b505050565b600082821c905092915050565b6000610d8e60001984600802610d70565b1980831691505092915050565b6000610da78383610d7d565b9150826002028217905092915050565b610dc082610b96565b67ffffffffffffffff811115610dd957610dd86109ac565b5b610de38254610bd0565b610dee828285610d2a565b600060209050601f831160018114610e215760008415610e0f578287015190505b610e198582610d9b565b865550610e81565b601f198416610e2f86610c01565b60005b82811015610e5757848901518255600182019150602085019450602081019050610e32565b86831015610e745784890151610e70601f891682610d7d565b8355505b6001600288020188555050505b505050505050565b600082825260208201905092915050565b7f4174206c6561737420342072657669657765727320617265207265717569726560008201527f6400000000000000000000000000000000000000000000000000000000000000602082015250565b6000610ef6602183610e89565b9150610f0182610e9a565b604082019050919050565b60006020820190508181036000830152610f2581610ee9565b9050919050565b7f4e487b7100000000000000000000000000000000000000000000000000000000600052603260045260246000fd5b7f4e487b7100000000000000000000000000000000000000000000000000000000600052602160045260246000fd5b6185b280610f996000396000f3fe608060405234801561001057600080fd5b50600436106104325760003560e01c80635fc6100111610236578063bfa053611161013b578063d7b999c7116100c3578063fad2c5f211610087578063fad2c5f214610e11578063fba2e31014610e2d578063fd55dd9214610e5d578063fdc6258a14610e7b578063ff4d712814610eab57610432565b8063d7b999c714610d4c578063dbc1d56914610d6a578063dcdc510c14610da5578063dd62ed3e14610dc3578063effad04014610df357610432565b8063ca98e49e1161010a578063ca98e49e14610caa578063cd774e3714610cda578063d171d04914610cf6578063d547741f14610d14578063d63ab65814610d3057610432565b8063bfa0536114610c10578063c491b04c14610c2e578063c9442dac14610c5e578063ca8c4d8a14610c7a57610432565b80638c95aef9116101be578063a217fddf1161018d578063a217fddf14610b6a578063a9059cbb14610b88578063aeb47e2a14610bb8578063b519342514610bd6578063bad0dd6514610bf457610432565b80638c95aef914610aba578063914e72a614610aec57806391d1485414610b1c57806395d89b4114610b4c57610432565b806370a082311161020557806370a0823114610a005780637125a07b14610a3057806373a82b5f14610a64578063797df99614610a805780638b8641a914610a9c57610432565b80635fc610011461095857806361ac05e21461099257806361ac7e61146109b05780637025aac6146109ce57610432565b8063248cd8101161033c57806336568abe116102c45780634d6ca5d5116102935780634d6ca5d5146108be5780634e860496146108da57806350447e5e146108f657806352994e2f1461090057806356a474e41461091e57610432565b806336568abe1461081f5780633af0c6881461083b5780633b129a561461086b57806340932bf81461088957610432565b8063313ce5671161030b578063313ce5671461077757806332cb6b0c146107955780633387f0c5146107b357806333df7e34146107d1578063354c4e13146107ef57610432565b8063248cd810146106cb5780632899df2b146106fb5780632f2ff15d1461072b5780632f676b651461074757610432565b806318160ddd116103bf5780631c6d53651161038e5780631c6d5365146105ed5780631e3edfd91461061d5780632298de011461063b57806323b872dd1461066b578063248a9ca31461069b57610432565b806318160ddd1461056757806318a8c3f21461058557806319656f7b146105a157806319f102ec146105bd57610432565b80630d74f38a116104065780630d74f38a146104d35780630e75a370146104f15780630ed1d5cb1461050f5780630fb6d46a1461052d57806315f42df41461054b57610432565b8062b16fee1461043757806301ffc9a71461045557806306fdde0314610485578063095ea7b3146104a3575b600080fd5b61043f610ec7565b60405161044c9190615b73565b60405180910390f35b61046f600480360381019061046a9190615bfa565b611064565b60405161047c9190615b73565b60405180910390f35b61048d6110de565b60405161049a9190615cb7565b60405180910390f35b6104bd60048036038101906104b89190615d6d565b611170565b6040516104ca9190615b73565b60405180910390f35b6104db611193565b6040516104e89190615dbc565b60405180910390f35b6104f961119f565b6040516105069190615dbc565b60405180910390f35b6105176111ab565b6040516105249190615dbc565b60405180910390f35b6105356111b0565b6040516105429190615dbc565b60405180910390f35b61056560048036038101906105609190615f1f565b6111b5565b005b61056f6111f8565b60405161057c9190615dbc565b60405180910390f35b61059f600480360381019061059a9190615f1f565b611202565b005b6105bb60048036038101906105b69190615f7b565b611315565b005b6105d760048036038101906105d29190615fa8565b611351565b6040516105e49190615fe4565b60405180910390f35b610607600480360381019061060291906161ba565b611390565b6040516106149190615dbc565b60405180910390f35b610625611682565b6040516106329190615dbc565b60405180910390f35b61065560048036038101906106509190615fa8565b61168e565b6040516106629190615fe4565b60405180910390f35b610685600480360381019061068091906162cc565b6116cd565b6040516106929190615b73565b60405180910390f35b6106b560048036038101906106b09190616355565b6116fc565b6040516106c29190616391565b60405180910390f35b6106e560048036038101906106e091906163d8565b61171c565b6040516106f29190615dbc565b60405180910390f35b610715600480360381019061071091906164f3565b61189f565b60405161072291906165d0565b60405180910390f35b610745600480360381019061074091906165f2565b611a1e565b005b610761600480360381019061075c9190615f7b565b611a40565b60405161076e9190615b73565b60405180910390f35b61077f611a60565b60405161078c919061664e565b60405180910390f35b61079d611a69565b6040516107aa9190615dbc565b60405180910390f35b6107bb611a79565b6040516107c89190616727565b60405180910390f35b6107d9611b07565b6040516107e69190615dbc565b60405180910390f35b61080960048036038101906108049190616749565b611b13565b6040516108169190615b73565b60405180910390f35b610839600480360381019061083491906165f2565b611c7f565b005b610855600480360381019061085091906167a5565b611cfa565b6040516108629190615b73565b60405180910390f35b610873611d7b565b6040516108809190616391565b60405180910390f35b6108a3600480360381019061089e9190615fa8565b611d9f565b6040516108b59695949392919061683a565b60405180910390f35b6108d860048036038101906108d39190615f7b565b611eb0565b005b6108f460048036038101906108ef9190615fa8565b611eec565b005b6108fe612077565b005b6109086120e0565b6040516109159190616391565b60405180910390f35b61093860048036038101906109339190615fa8565b612104565b60405161094f9b9a99989796959493929190616919565b60405180910390f35b610972600480360381019061096d9190615fa8565b6123fd565b6040516109899b9a999897969594939291906169e0565b60405180910390f35b61099a612629565b6040516109a79190615dbc565b60405180910390f35b6109b8612669565b6040516109c59190616391565b60405180910390f35b6109e860048036038101906109e391906164f3565b61268d565b6040516109f793929190616aa0565b60405180910390f35b610a1a6004803603810190610a159190615f7b565b6127c7565b604051610a279190615dbc565b60405180910390f35b610a4a6004803603810190610a459190615f7b565b61280f565b604051610a5b959493929190616b2d565b60405180910390f35b610a7e6004803603810190610a799190615f7b565b612a0f565b005b610a9a6004803603810190610a959190615fa8565b612bf3565b005b610aa4612db6565b604051610ab19190616e65565b60405180910390f35b610ad46004803603810190610acf9190615f7b565b61325c565b604051610ae393929190616e87565b60405180910390f35b610b066004803603810190610b019190615f7b565b613293565b604051610b139190615dbc565b60405180910390f35b610b366004803603810190610b3191906165f2565b6132df565b604051610b439190615b73565b60405180910390f35b610b5461334a565b604051610b619190615cb7565b60405180910390f35b610b726133dc565b604051610b7f9190616391565b60405180910390f35b610ba26004803603810190610b9d9190615d6d565b6133e3565b604051610baf9190615b73565b60405180910390f35b610bc0613406565b604051610bcd9190615dbc565b60405180910390f35b610bde61342e565b604051610beb9190615dbc565b60405180910390f35b610c0e6004803603810190610c099190615fa8565b613433565b005b610c18613732565b604051610c259190615dbc565b60405180910390f35b610c486004803603810190610c439190615f7b565b613737565b604051610c559190615b73565b60405180910390f35b610c786004803603810190610c739190615f7b565b613757565b005b610c946004803603810190610c8f9190615fa8565b613a41565b604051610ca19190616f44565b60405180910390f35b610cc46004803603810190610cbf9190615f7b565b613b30565b604051610cd19190616f66565b60405180910390f35b610cf46004803603810190610cef9190616f81565b613b89565b005b610cfe613cdb565b604051610d0b9190615dbc565b60405180910390f35b610d2e6004803603810190610d2991906165f2565b613ce1565b005b610d4a6004803603810190610d459190615fa8565b613d03565b005b610d54614003565b604051610d619190615dbc565b60405180910390f35b610d846004803603810190610d7f9190615fa8565b614009565b604051610d9c9c9b9a99989796959493929190616fdd565b60405180910390f35b610dad6142d0565b604051610dba9190617272565b60405180910390f35b610ddd6004803603810190610dd89190617294565b614603565b604051610dea9190615dbc565b60405180910390f35b610dfb61468a565b604051610e089190615dbc565b60405180910390f35b610e2b6004803603810190610e269190615d6d565b614696565b005b610e476004803603810190610e429190615f7b565b614769565b604051610e549190615dbc565b60405180910390f35b610e65614781565b604051610e729190616f66565b60405180910390f35b610e956004803603810190610e909190615f7b565b614791565b604051610ea29190615b73565b60405180910390f35b610ec56004803603810190610ec09190616749565b6147c4565b005b6000601160003373ffffffffffffffffffffffffffffffffffffffff1673ffffffffffffffffffffffffffffffffffffffff16815260200190815260200160002060009054906101000a900460ff1615610f56576040517f08c379a0000000000000000000000000000000000000000000000000000000008152600401610f4d90617320565b60405180910390fd5b6016339080600181540180825580915050600190039060005260206000200160009091909190916101000a81548173ffffffffffffffffffffffffffffffffffffffff021916908373ffffffffffffffffffffffffffffffffffffffff1602179055506001601160003373ffffffffffffffffffffffffffffffffffffffff1673ffffffffffffffffffffffffffffffffffffffff16815260200190815260200160002060006101000a81548160ff02191690831515021790555061101a33614840565b3373ffffffffffffffffffffffffffffffffffffffff167f49b628a727a909471e7c6bcba2122134da6a8e649acce3b2cd8df34ffb98c86c60405160405180910390a26001905090565b60007f7965db0b000000000000000000000000000000000000000000000000000000007bffffffffffffffffffffffffffffffffffffffffffffffffffffffff1916827bffffffffffffffffffffffffffffffffffffffffffffffffffffffff191614806110d757506110d682614906565b5b9050919050565b6060600380546110ed9061736f565b80601f01602080910402602001604051908101604052809291908181526020018280546111199061736f565b80156111665780601f1061113b57610100808354040283529160200191611166565b820191906000526020600020905b81548152906001019060200180831161114957829003601f168201915b5050505050905090565b60008061117b614970565b9050611188818585614978565b600191505092915050565b6729a2241af62c000081565b671bc16d674ec8000081565b600381565b600181565b60005b82518110156111f3576111e58382815181106111d7576111d66173a0565b5b60200260200101518361498a565b5080806001019150506111b8565b505050565b6000600254905090565b7fc295d8a2f69016465f61012796a38346423f02058e9c426f8bc1d946bc8c847061122c81614ae6565b6000835111611270576040517f08c379a00000000000000000000000000000000000000000000000000000000081526004016112679061741b565b60405180910390fd5b6000838360405160240161128592919061743b565b6040516020818303038152906040527f15f42df4000000000000000000000000000000000000000000000000000000007bffffffffffffffffffffffffffffffffffffffffffffffffffffffff19166020820180517bffffffffffffffffffffffffffffffffffffffffffffffffffffffff8381831617835250505050905061130e3082614afa565b5050505050565b6000801b61132281614ae6565b61134c7fdf1425bae297c2f52b4f15d18a50b1fc8cb5b981a981b1d213ed3ff92681b64d83614ce9565b505050565b6007818154811061136157600080fd5b906000526020600020016000915054906101000a900473ffffffffffffffffffffffffffffffffffffffff1681565b600061139a614ddc565b601160003373ffffffffffffffffffffffffffffffffffffffff1673ffffffffffffffffffffffffffffffffffffffff16815260200190815260200160002060009054906101000a900460ff16611426576040517f08c379a000000000000000000000000000000000000000000000000000000000815260040161141d906174dd565b60405180910390fd5b606460056064600a6b204fce5e3e25026110000000611445919061752c565b61144f919061759d565b611459919061752c565b611463919061759d565b8411156114a5576040517f08c379a000000000000000000000000000000000000000000000000000000000815260040161149c90617640565b60405180910390fd5b600060126000601754815260200190815260200160002090506017548160000181905550338160010160006101000a81548173ffffffffffffffffffffffffffffffffffffffff021916908373ffffffffffffffffffffffffffffffffffffffff1602179055508881600201908161151d919061780c565b508781600301908161152f919061780c565b5086816004019080519060200190611548929190615955565b508581600501908161155a919061780c565b50848160060181905550838160070181905550828160080160006101000a81548160ff02191690836005811115611594576115936168a2565b5b021790555060008160080160016101000a81548160ff02191690831515021790555060008160080160026101000a81548160ff021916908315150217905550604051806020016040528060008152508160090190816115f3919061780c565b50600081600a018190555060176000815480929190611611906178de565b91905055503373ffffffffffffffffffffffffffffffffffffffff166017547f173a3a7373ea0492f4cb0f9ba4740561e11b1ae3864f095bee87e52d9925bb878b88604051611661929190617926565b60405180910390a3601754915050611677614e22565b979650505050505050565b6729a2241af62c000081565b6016818154811061169e57600080fd5b906000526020600020016000915054906101000a900473ffffffffffffffffffffffffffffffffffffffff1681565b6000806116d8614970565b90506116e5858285614e2c565b6116f0858585614ec1565b60019150509392505050565b600060056000838152602001908152602001600020600101549050919050565b60007fc295d8a2f69016465f61012796a38346423f02058e9c426f8bc1d946bc8c847061174881614ae6565b60006014600081548092919061175d906178de565b9190505590506000600f600083815260200190815260200160002090508181600001819055508a816001019081611794919061780c565b50338160020160006101000a81548173ffffffffffffffffffffffffffffffffffffffff021916908373ffffffffffffffffffffffffffffffffffffffff16021790555089816003018190555088816004018190555087816005018190555060018160070160006101000a81548160ff021916908315150217905550868160070160016101000a81548160ff0219169083151502179055508581600801908161183d919061780c565b508481600901908161184f919061780c565b50817fec38f747b0aa7c21a8a9bdec175eb246baf6e36e70d7e24434e272b2ba6a362a8c338a8a6040516118869493929190617956565b60405180910390a2819350505050979650505050505050565b6118a76159ae565b600c60008360048111156118be576118bd6168a2565b5b60048111156118d0576118cf6168a2565b5b81526020019081526020016000206040518060600160405290816000820180546118f99061736f565b80601f01602080910402602001604051908101604052809291908181526020018280546119259061736f565b80156119725780601f1061194757610100808354040283529160200191611972565b820191906000526020600020905b81548152906001019060200180831161195557829003601f168201915b5050505050815260200160018201805461198b9061736f565b80601f01602080910402602001604051908101604052809291908181526020018280546119b79061736f565b8015611a045780601f106119d957610100808354040283529160200191611a04565b820191906000526020600020905b8154815290600101906020018083116119e757829003601f168201915b505050505081526020016002820154815250509050919050565b611a27826116fc565b611a3081614ae6565b611a3a8383614fb5565b50505050565b60116020528060005260406000206000915054906101000a900460ff1681565b60006012905090565b6b204fce5e3e2502611000000081565b60606016805480602002602001604051908101604052809291908181526020018280548015611afd57602002820191906000526020600020905b8160009054906101000a900473ffffffffffffffffffffffffffffffffffffffff1673ffffffffffffffffffffffffffffffffffffffff1681526020019060010190808311611ab3575b5050505050905090565b673782dace9d90000081565b60007fc295d8a2f69016465f61012796a38346423f02058e9c426f8bc1d946bc8c8470611b3f81614ae6565b60026064600a6b204fce5e3e25026110000000611b5c919061752c565b611b66919061759d565b611b70919061759d565b611b786150a7565b858551611b85919061752c565b611b8f91906179a9565b1115611bd0576040517f08c379a0000000000000000000000000000000000000000000000000000000008152600401611bc790617a29565b60405180910390fd5b60008484604051602401611be5929190617a49565b6040516020818303038152906040527fff4d7128000000000000000000000000000000000000000000000000000000007bffffffffffffffffffffffffffffffffffffffffffffffffffffffff19166020820180517bffffffffffffffffffffffffffffffffffffffffffffffffffffffff838183161783525050505090506000611c703083614afa565b90506001935050505092915050565b611c87614970565b73ffffffffffffffffffffffffffffffffffffffff168173ffffffffffffffffffffffffffffffffffffffff1614611ceb576040517f6697b23200000000000000000000000000000000000000000000000000000000815260040160405180910390fd5b611cf58282614ce9565b505050565b6000816004811115611d0f57611d0e6168a2565b5b600b60008573ffffffffffffffffffffffffffffffffffffffff1673ffffffffffffffffffffffffffffffffffffffff16815260200190815260200160002060020160009054906101000a900460ff166004811115611d7157611d706168a2565b5b1015905092915050565b7fc10c77be35aff266144ed64c26a1fa104bae2f284ae99ac4a34203454704a18581565b600a6020528060005260406000206000915090508060000154908060010160009054906101000a900473ffffffffffffffffffffffffffffffffffffffff16908060020160009054906101000a900473ffffffffffffffffffffffffffffffffffffffff1690806003018054611e149061736f565b80601f0160208091040260200160405190810160405280929190818152602001828054611e409061736f565b8015611e8d5780601f10611e6257610100808354040283529160200191611e8d565b820191906000526020600020905b815481529060010190602001808311611e7057829003601f168201915b5050505050908060040154908060050160009054906101000a900460ff16905086565b6000801b611ebd81614ae6565b611ee77fdf1425bae297c2f52b4f15d18a50b1fc8cb5b981a981b1d213ed3ff92681b64d83614fb5565b505050565b611ef4614ddc565b6000600f600083815260200190815260200160002090508060070160009054906101000a900460ff16611f5c576040517f08c379a0000000000000000000000000000000000000000000000000000000008152600401611f5390617ac5565b60405180910390fd5b80600301544210158015611f74575080600401544211155b611fb3576040517f08c379a0000000000000000000000000000000000000000000000000000000008152600401611faa90617b31565b60405180910390fd5b8060050154816006015410611ffd576040517f08c379a0000000000000000000000000000000000000000000000000000000008152600401611ff490617b9d565b60405180910390fd5b806006016000815480929190612012906178de565b919050555061202033614840565b612032336729a2241af62c000061498a565b50817f1f74d05223b014a6b1d3023900443d2b2a4a803f39310427d60b87fc476dac03336040516120639190615fe4565b60405180910390a250612074614e22565b50565b6000600b60003373ffffffffffffffffffffffffffffffffffffffff1673ffffffffffffffffffffffffffffffffffffffff168152602001908152602001600020905060006120c5336150b1565b905060008111156120dc576120da338261498a565b505b5050565b7fdf1425bae297c2f52b4f15d18a50b1fc8cb5b981a981b1d213ed3ff92681b64d81565b6000606080606060008060008060006060600080601260008e815260200190815260200160002090508060010160009054906101000a900473ffffffffffffffffffffffffffffffffffffffff16816002018260030183600501846006015485600701548660080160009054906101000a900460ff168760080160019054906101000a900460ff168860080160029054906101000a900460ff16896009018a600a01548980546121b39061736f565b80601f01602080910402602001604051908101604052809291908181526020018280546121df9061736f565b801561222c5780601f106122015761010080835404028352916020019161222c565b820191906000526020600020905b81548152906001019060200180831161220f57829003601f168201915b5050505050995088805461223f9061736f565b80601f016020809104026020016040519081016040528092919081815260200182805461226b9061736f565b80156122b85780601f1061228d576101008083540402835291602001916122b8565b820191906000526020600020905b81548152906001019060200180831161229b57829003601f168201915b505050505098508780546122cb9061736f565b80601f01602080910402602001604051908101604052809291908181526020018280546122f79061736f565b80156123445780601f1061231957610100808354040283529160200191612344565b820191906000526020600020905b81548152906001019060200180831161232757829003601f168201915b505050505097508180546123579061736f565b80601f01602080910402602001604051908101604052809291908181526020018280546123839061736f565b80156123d05780601f106123a5576101008083540402835291602001916123d0565b820191906000526020600020905b8154815290600101906020018083116123b357829003601f168201915b505050505091509b509b509b509b509b509b509b509b509b509b509b505091939597999b90929496989a50565b600f6020528060005260406000206000915090508060000154908060010180546124269061736f565b80601f01602080910402602001604051908101604052809291908181526020018280546124529061736f565b801561249f5780601f106124745761010080835404028352916020019161249f565b820191906000526020600020905b81548152906001019060200180831161248257829003601f168201915b5050505050908060020160009054906101000a900473ffffffffffffffffffffffffffffffffffffffff16908060030154908060040154908060050154908060060154908060070160009054906101000a900460ff16908060070160019054906101000a900460ff16908060080180546125189061736f565b80601f01602080910402602001604051908101604052809291908181526020018280546125449061736f565b80156125915780601f1061256657610100808354040283529160200191612591565b820191906000526020600020905b81548152906001019060200180831161257457829003601f168201915b5050505050908060090180546125a69061736f565b80601f01602080910402602001604051908101604052809291908181526020018280546125d29061736f565b801561261f5780601f106125f45761010080835404028352916020019161261f565b820191906000526020600020905b81548152906001019060200180831161260257829003601f168201915b505050505090508b565b606460056064600a6b204fce5e3e25026110000000612648919061752c565b612652919061759d565b61265c919061752c565b612666919061759d565b81565b7fc295d8a2f69016465f61012796a38346423f02058e9c426f8bc1d946bc8c847081565b600c6020528060005260406000206000915090508060000180546126b09061736f565b80601f01602080910402602001604051908101604052809291908181526020018280546126dc9061736f565b80156127295780601f106126fe57610100808354040283529160200191612729565b820191906000526020600020905b81548152906001019060200180831161270c57829003601f168201915b50505050509080600101805461273e9061736f565b80601f016020809104026020016040519081016040528092919081815260200182805461276a9061736f565b80156127b75780601f1061278c576101008083540402835291602001916127b7565b820191906000526020600020905b81548152906001019060200180831161279a57829003601f168201915b5050505050908060020154905083565b60008060008373ffffffffffffffffffffffffffffffffffffffff1673ffffffffffffffffffffffffffffffffffffffff168152602001908152602001600020549050919050565b60006060806000806000600b60008873ffffffffffffffffffffffffffffffffffffffff1673ffffffffffffffffffffffffffffffffffffffff168152602001908152602001600020905060008160020160009054906101000a900460ff1690506000600c6000836004811115612889576128886168a2565b5b600481111561289b5761289a6168a2565b5b81526020019081526020016000206040518060600160405290816000820180546128c49061736f565b80601f01602080910402602001604051908101604052809291908181526020018280546128f09061736f565b801561293d5780601f106129125761010080835404028352916020019161293d565b820191906000526020600020905b81548152906001019060200180831161292057829003601f168201915b505050505081526020016001820180546129569061736f565b80601f01602080910402602001604051908101604052809291908181526020018280546129829061736f565b80156129cf5780601f106129a4576101008083540402835291602001916129cf565b820191906000526020600020905b8154815290600101906020018083116129b257829003601f168201915b5050505050815260200160028201548152505090508181600001518260200151836040015186600001549750975097509750975050505091939590929450565b7fc10c77be35aff266144ed64c26a1fa104bae2f284ae99ac4a34203454704a185612a3981614ae6565b600960008373ffffffffffffffffffffffffffffffffffffffff1673ffffffffffffffffffffffffffffffffffffffff16815260200190815260200160002060009054906101000a900460ff1615612ac6576040517f08c379a0000000000000000000000000000000000000000000000000000000008152600401612abd90617c09565b60405180910390fd5b612af07fc10c77be35aff266144ed64c26a1fa104bae2f284ae99ac4a34203454704a18583614fb5565b506007829080600181540180825580915050600190039060005260206000200160009091909190916101000a81548173ffffffffffffffffffffffffffffffffffffffff021916908373ffffffffffffffffffffffffffffffffffffffff1602179055506001600960008473ffffffffffffffffffffffffffffffffffffffff1673ffffffffffffffffffffffffffffffffffffffff16815260200190815260200160002060006101000a81548160ff0219169083151502179055508173ffffffffffffffffffffffffffffffffffffffff167fe1cb5e1230cc02e62c60b81c1aa5ade512f3eac296edb28628b4cf344f47f93160405160405180910390a25050565b60006012600083815260200190815260200160002090508060080160019054906101000a900460ff16612c5b576040517f08c379a0000000000000000000000000000000000000000000000000000000008152600401612c5290617c75565b60405180910390fd5b606460056064600a6b204fce5e3e25026110000000612c7a919061752c565b612c84919061759d565b612c8e919061752c565b612c98919061759d565b8160060154600e54612caa91906179a9565b1115612ceb576040517f08c379a0000000000000000000000000000000000000000000000000000000008152600401612ce290617d07565b60405180910390fd5b612d1d8160010160009054906101000a900473ffffffffffffffffffffffffffffffffffffffff16826006015461498a565b508060060154600e6000828254612d3491906179a9565b925050819055508060010160009054906101000a900473ffffffffffffffffffffffffffffffffffffffff1673ffffffffffffffffffffffffffffffffffffffff16827fb6f8562765b5da161636b79e56625b1a7d0d9726ee1065cee4bf966980894c708360060154604051612daa9190615dbc565b60405180910390a35050565b60606000601754905060008167ffffffffffffffff811115612ddb57612dda615ddc565b5b604051908082528060200260200182016040528015612e1457816020015b612e016159cf565b815260200190600190039081612df95790505b50905060005b82811015613253576000601260008381526020019081526020016000209050604051806101a00160405280826000015481526020018260010160009054906101000a900473ffffffffffffffffffffffffffffffffffffffff1673ffffffffffffffffffffffffffffffffffffffff168152602001826002018054612e9e9061736f565b80601f0160208091040260200160405190810160405280929190818152602001828054612eca9061736f565b8015612f175780601f10612eec57610100808354040283529160200191612f17565b820191906000526020600020905b815481529060010190602001808311612efa57829003601f168201915b50505050508152602001826003018054612f309061736f565b80601f0160208091040260200160405190810160405280929190818152602001828054612f5c9061736f565b8015612fa95780601f10612f7e57610100808354040283529160200191612fa9565b820191906000526020600020905b815481529060010190602001808311612f8c57829003601f168201915b5050505050815260200182600401805480602002602001604051908101604052809291908181526020016000905b82821015613083578382906000526020600020018054612ff69061736f565b80601f01602080910402602001604051908101604052809291908181526020018280546130229061736f565b801561306f5780601f106130445761010080835404028352916020019161306f565b820191906000526020600020905b81548152906001019060200180831161305257829003601f168201915b505050505081526020019060010190612fd7565b50505050815260200182600501805461309b9061736f565b80601f01602080910402602001604051908101604052809291908181526020018280546130c79061736f565b80156131145780601f106130e957610100808354040283529160200191613114565b820191906000526020600020905b8154815290600101906020018083116130f757829003601f168201915b5050505050815260200182600601548152602001826007015481526020018260080160009054906101000a900460ff166005811115613156576131556168a2565b5b81526020018260080160019054906101000a900460ff16151581526020018260080160029054906101000a900460ff161515815260200182600901805461319c9061736f565b80601f01602080910402602001604051908101604052809291908181526020018280546131c89061736f565b80156132155780601f106131ea57610100808354040283529160200191613215565b820191906000526020600020905b8154815290600101906020018083116131f857829003601f168201915b5050505050815260200182600a015481525083838151811061323a576132396173a0565b5b6020026020010181905250508080600101915050612e1a565b50809250505090565b600b6020528060005260406000206000915090508060000154908060010154908060020160009054906101000a900460ff16905083565b6000600b60008373ffffffffffffffffffffffffffffffffffffffff1673ffffffffffffffffffffffffffffffffffffffff168152602001908152602001600020600001549050919050565b60006005600084815260200190815260200160002060000160008373ffffffffffffffffffffffffffffffffffffffff1673ffffffffffffffffffffffffffffffffffffffff16815260200190815260200160002060009054906101000a900460ff16905092915050565b6060600480546133599061736f565b80601f01602080910402602001604051908101604052809291908181526020018280546133859061736f565b80156133d25780601f106133a7576101008083540402835291602001916133d2565b820191906000526020600020905b8154815290600101906020018083116133b557829003601f168201915b5050505050905090565b6000801b81565b6000806133ee614970565b90506133fb818585614ec1565b600191505092915050565b6064600a6b204fce5e3e25026110000000613421919061752c565b61342b919061759d565b81565b600581565b7fdf1425bae297c2f52b4f15d18a50b1fc8cb5b981a981b1d213ed3ff92681b64d61345d81614ae6565b6000600a600084815260200190815260200160002090508060050160009054906101000a900460ff16156134c6576040517f08c379a00000000000000000000000000000000000000000000000000000000081526004016134bd90617d73565b60405180910390fd5b8060060160003373ffffffffffffffffffffffffffffffffffffffff1673ffffffffffffffffffffffffffffffffffffffff16815260200190815260200160002060009054906101000a900460ff1615613555576040517f08c379a000000000000000000000000000000000000000000000000000000000815260040161354c90617ddf565b60405180910390fd5b60018160060160003373ffffffffffffffffffffffffffffffffffffffff1673ffffffffffffffffffffffffffffffffffffffff16815260200190815260200160002060006101000a81548160ff0219169083151502179055508060040160008154809291906135c4906178de565b9190505550827f5d4ccf5f92566d140246f4ae3b9cb35dc06fff109a7748602ad77f6260fd9a61336040516135f99190615fe4565b60405180910390a2600381600401541061372d5760008160020160009054906101000a900473ffffffffffffffffffffffffffffffffffffffff1673ffffffffffffffffffffffffffffffffffffffff168260030160405161365b9190617ea2565b6000604051808303816000865af19150503d8060008114613698576040519150601f19603f3d011682016040523d82523d6000602084013e61369d565b606091505b50509050806136e1576040517f08c379a00000000000000000000000000000000000000000000000000000000081526004016136d890617f05565b60405180910390fd5b60018260050160006101000a81548160ff021916908315150217905550837f7770356c29230b95943aec59d47ead11eb426a728bf5b57f7fd8597f3c0e29ba60405160405180910390a2505b505050565b600a81565b60096020528060005260406000206000915054906101000a900460ff1681565b6000801b61376481614ae6565b600960008373ffffffffffffffffffffffffffffffffffffffff1673ffffffffffffffffffffffffffffffffffffffff16815260200190815260200160002060009054906101000a900460ff166137f0576040517f08c379a00000000000000000000000000000000000000000000000000000000081526004016137e790617f71565b60405180910390fd5b60005b600780549050811015613976578273ffffffffffffffffffffffffffffffffffffffff166007828154811061382b5761382a6173a0565b5b9060005260206000200160009054906101000a900473ffffffffffffffffffffffffffffffffffffffff1673ffffffffffffffffffffffffffffffffffffffff160361396957600760016007805490506138859190617f91565b81548110613896576138956173a0565b5b9060005260206000200160009054906101000a900473ffffffffffffffffffffffffffffffffffffffff16600782815481106138d5576138d46173a0565b5b9060005260206000200160006101000a81548173ffffffffffffffffffffffffffffffffffffffff021916908373ffffffffffffffffffffffffffffffffffffffff160217905550600780548061392f5761392e617fc5565b5b6001900381819060005260206000200160006101000a81549073ffffffffffffffffffffffffffffffffffffffff02191690559055613976565b80806001019150506137f3565b506000600960008473ffffffffffffffffffffffffffffffffffffffff1673ffffffffffffffffffffffffffffffffffffffff16815260200190815260200160002060006101000a81548160ff0219169083151502179055506139f97fc10c77be35aff266144ed64c26a1fa104bae2f284ae99ac4a34203454704a18583614ce9565b508173ffffffffffffffffffffffffffffffffffffffff167f55dba9d79522b91b615629d5f3b10c2fad2d258f1768614f4a52e937ada0d0ba60405160405180910390a25050565b606060126000838152602001908152602001600020600401805480602002602001604051908101604052809291908181526020016000905b82821015613b25578382906000526020600020018054613a989061736f565b80601f0160208091040260200160405190810160405280929190818152602001828054613ac49061736f565b8015613b115780601f10613ae657610100808354040283529160200191613b11565b820191906000526020600020905b815481529060010190602001808311613af457829003601f168201915b505050505081526020019060010190613a79565b505050509050919050565b6000600b60008373ffffffffffffffffffffffffffffffffffffffff1673ffffffffffffffffffffffffffffffffffffffff16815260200190815260200160002060020160009054906101000a900460ff169050919050565b7fdf1425bae297c2f52b4f15d18a50b1fc8cb5b981a981b1d213ed3ff92681b64d613bb381614ae6565b60006012600085815260200190815260200160002090508060080160019054906101000a900460ff1615613c1c576040517f08c379a0000000000000000000000000000000000000000000000000000000008152600401613c1390618040565b60405180910390fd5b8060080160029054906101000a900460ff1615613c6e576040517f08c379a0000000000000000000000000000000000000000000000000000000008152600401613c65906180ac565b60405180910390fd5b60018160080160026101000a81548160ff02191690831515021790555082816009019081613c9c919061780c565b50837f0181021ec281a3c27d14e788229d199a2075e233c761365095368d822b2c277f84604051613ccd9190615cb7565b60405180910390a250505050565b600d5481565b613cea826116fc565b613cf381614ae6565b613cfd8383614ce9565b50505050565b7fdf1425bae297c2f52b4f15d18a50b1fc8cb5b981a981b1d213ed3ff92681b64d613d2d81614ae6565b60006012600084815260200190815260200160002090508060080160019054906101000a900460ff1615613d96576040517f08c379a0000000000000000000000000000000000000000000000000000000008152600401613d8d90618040565b60405180910390fd5b8060080160029054906101000a900460ff1615613de8576040517f08c379a0000000000000000000000000000000000000000000000000000000008152600401613ddf906180ac565b60405180910390fd5b6013600084815260200190815260200160002060003373ffffffffffffffffffffffffffffffffffffffff1673ffffffffffffffffffffffffffffffffffffffff16815260200190815260200160002060009054906101000a900460ff1615613e86576040517f08c379a0000000000000000000000000000000000000000000000000000000008152600401613e7d9061813e565b60405180910390fd5b60016013600085815260200190815260200160002060003373ffffffffffffffffffffffffffffffffffffffff1673ffffffffffffffffffffffffffffffffffffffff16815260200190815260200160002060006101000a81548160ff02191690831515021790555080600a016000815480929190613f04906178de565b9190505550600381600a015410613ffe5760018160080160016101000a81548160ff021916908315150217905550600083604051602401613f459190615dbc565b6040516020818303038152906040527f797df996000000000000000000000000000000000000000000000000000000007bffffffffffffffffffffffffffffffffffffffffffffffffffffffff19166020820180517bffffffffffffffffffffffffffffffffffffffffffffffffffffffff83818316178352505050509050613fce3082614afa565b50837f1c2a00e8a0b086d9b7e7a79c9440ab052641329e55c4bf8eec7ee9dfb658b7ed60405160405180910390a2505b505050565b600e5481565b60126020528060005260406000206000915090508060000154908060010160009054906101000a900473ffffffffffffffffffffffffffffffffffffffff16908060020180546140589061736f565b80601f01602080910402602001604051908101604052809291908181526020018280546140849061736f565b80156140d15780601f106140a6576101008083540402835291602001916140d1565b820191906000526020600020905b8154815290600101906020018083116140b457829003601f168201915b5050505050908060030180546140e69061736f565b80601f01602080910402602001604051908101604052809291908181526020018280546141129061736f565b801561415f5780601f106141345761010080835404028352916020019161415f565b820191906000526020600020905b81548152906001019060200180831161414257829003601f168201915b5050505050908060050180546141749061736f565b80601f01602080910402602001604051908101604052809291908181526020018280546141a09061736f565b80156141ed5780601f106141c2576101008083540402835291602001916141ed565b820191906000526020600020905b8154815290600101906020018083116141d057829003601f168201915b5050505050908060060154908060070154908060080160009054906101000a900460ff16908060080160019054906101000a900460ff16908060080160029054906101000a900460ff16908060090180546142479061736f565b80601f01602080910402602001604051908101604052809291908181526020018280546142739061736f565b80156142c05780601f10614295576101008083540402835291602001916142c0565b820191906000526020600020905b8154815290600101906020018083116142a357829003601f168201915b50505050509080600a015490508c565b60606000601454905060008167ffffffffffffffff8111156142f5576142f4615ddc565b5b60405190808252806020026020018201604052801561432e57816020015b61431b615a63565b8152602001906001900390816143135790505b50905060005b828110156145fa57600f600082815260200190815260200160002060405180610160016040529081600082015481526020016001820180546143759061736f565b80601f01602080910402602001604051908101604052809291908181526020018280546143a19061736f565b80156143ee5780601f106143c3576101008083540402835291602001916143ee565b820191906000526020600020905b8154815290600101906020018083116143d157829003601f168201915b505050505081526020016002820160009054906101000a900473ffffffffffffffffffffffffffffffffffffffff1673ffffffffffffffffffffffffffffffffffffffff1673ffffffffffffffffffffffffffffffffffffffff168152602001600382015481526020016004820154815260200160058201548152602001600682015481526020016007820160009054906101000a900460ff161515151581526020016007820160019054906101000a900460ff161515151581526020016008820180546144bb9061736f565b80601f01602080910402602001604051908101604052809291908181526020018280546144e79061736f565b80156145345780601f1061450957610100808354040283529160200191614534565b820191906000526020600020905b81548152906001019060200180831161451757829003601f168201915b5050505050815260200160098201805461454d9061736f565b80601f01602080910402602001604051908101604052809291908181526020018280546145799061736f565b80156145c65780601f1061459b576101008083540402835291602001916145c6565b820191906000526020600020905b8154815290600101906020018083116145a957829003601f168201915b5050505050815250508282815181106145e2576145e16173a0565b5b60200260200101819052508080600101915050614334565b50809250505090565b6000600160008473ffffffffffffffffffffffffffffffffffffffff1673ffffffffffffffffffffffffffffffffffffffff16815260200190815260200160002060008373ffffffffffffffffffffffffffffffffffffffff1673ffffffffffffffffffffffffffffffffffffffff16815260200190815260200160002054905092915050565b670de0b6b3a764000081565b7fc295d8a2f69016465f61012796a38346423f02058e9c426f8bc1d946bc8c84706146c081614ae6565b60008211614703576040517f08c379a00000000000000000000000000000000000000000000000000000000081526004016146fa906181aa565b60405180910390fd5b61470d838361498a565b5081601060008573ffffffffffffffffffffffffffffffffffffffff1673ffffffffffffffffffffffffffffffffffffffff168152602001908152602001600020600082825461475d91906179a9565b92505081905550505050565b60106020528060005260406000206000915090505481565b600061478c33613b30565b905090565b60006147bd7fc10c77be35aff266144ed64c26a1fa104bae2f284ae99ac4a34203454704a185836132df565b9050919050565b60005b8151811015614802576147f48282815181106147e6576147e56173a0565b5b60200260200101518461498a565b5080806001019150506147c7565b50817fb88d01f589e949ad7233aadbcfbadcca2b7f247555fa6423bc3d5d2563bd156382516040516148349190615dbc565b60405180910390a25050565b614849816152b0565b6000600b60008373ffffffffffffffffffffffffffffffffffffffff1673ffffffffffffffffffffffffffffffffffffffff16815260200190815260200160002090508060000160008154809291906148a1906178de565b91905055506148af826150b1565b508173ffffffffffffffffffffffffffffffffffffffff167ff18beef583f71b01f816b888b2fb4012abc44a95618cbc737287866909e7abd782600001546040516148fa9190615dbc565b60405180910390a25050565b60007f01ffc9a7000000000000000000000000000000000000000000000000000000007bffffffffffffffffffffffffffffffffffffffffffffffffffffffff1916827bffffffffffffffffffffffffffffffffffffffffffffffffffffffff1916149050919050565b600033905090565b61498583838360016153cb565b505050565b60006064600a6b204fce5e3e250261100000006149a7919061752c565b6149b1919061759d565b6149b96150a7565b836149c491906179a9565b1115614a05576040517f08c379a00000000000000000000000000000000000000000000000000000000081526004016149fc9061823c565b60405180910390fd5b600073ffffffffffffffffffffffffffffffffffffffff168373ffffffffffffffffffffffffffffffffffffffff1603614a74576040517f08c379a0000000000000000000000000000000000000000000000000000000008152600401614a6b906182ce565b60405180910390fd5b614a7e83836155a2565b5081600d6000828254614a9191906179a9565b92505081905550818373ffffffffffffffffffffffffffffffffffffffff167fffd50653ccb3020c797c5cba8c53bebb40e00eeb76593dedcf4a157b3ea6cb5160405160405180910390a36001905092915050565b614af781614af2614970565b61565d565b50565b60007fdf1425bae297c2f52b4f15d18a50b1fc8cb5b981a981b1d213ed3ff92681b64d614b2681614ae6565b7fc10c77be35aff266144ed64c26a1fa104bae2f284ae99ac4a34203454704a185614b5081614ae6565b600060086000815480929190614b65906178de565b9190505590506000600a60008381526020019081526020016000209050818160000181905550338160010160006101000a81548173ffffffffffffffffffffffffffffffffffffffff021916908373ffffffffffffffffffffffffffffffffffffffff160217905550868160020160006101000a81548173ffffffffffffffffffffffffffffffffffffffff021916908373ffffffffffffffffffffffffffffffffffffffff16021790555085816003019081614c229190618334565b506001816004018190555060008160050160006101000a81548160ff02191690831515021790555060018160060160003373ffffffffffffffffffffffffffffffffffffffff1673ffffffffffffffffffffffffffffffffffffffff16815260200190815260200160002060006101000a81548160ff021916908315150217905550817fbcc43907be1d435f496e2233697a9a9fead2fb5639dac8459c53d7114829b8be33604051614cd49190615fe4565b60405180910390a28194505050505092915050565b6000614cf583836132df565b15614dd15760006005600085815260200190815260200160002060000160008473ffffffffffffffffffffffffffffffffffffffff1673ffffffffffffffffffffffffffffffffffffffff16815260200190815260200160002060006101000a81548160ff021916908315150217905550614d6e614970565b73ffffffffffffffffffffffffffffffffffffffff168273ffffffffffffffffffffffffffffffffffffffff16847ff6391f5c32d9c69d2a47ea670b442974b53935d1edc7fd64eb21e047a839171b60405160405180910390a460019050614dd6565b600090505b92915050565b600260065403614e18576040517f3ee5aeb500000000000000000000000000000000000000000000000000000000815260040160405180910390fd5b6002600681905550565b6001600681905550565b6000614e388484614603565b90507fffffffffffffffffffffffffffffffffffffffffffffffffffffffffffffffff811015614ebb5781811015614eab578281836040517ffb8f41b2000000000000000000000000000000000000000000000000000000008152600401614ea293929190618406565b60405180910390fd5b614eba848484840360006153cb565b5b50505050565b600073ffffffffffffffffffffffffffffffffffffffff168373ffffffffffffffffffffffffffffffffffffffff1603614f335760006040517f96c6fd1e000000000000000000000000000000000000000000000000000000008152600401614f2a9190615fe4565b60405180910390fd5b600073ffffffffffffffffffffffffffffffffffffffff168273ffffffffffffffffffffffffffffffffffffffff1603614fa55760006040517fec442f05000000000000000000000000000000000000000000000000000000008152600401614f9c9190615fe4565b60405180910390fd5b614fb08383836156ae565b505050565b6000614fc183836132df565b61509c5760016005600085815260200190815260200160002060000160008473ffffffffffffffffffffffffffffffffffffffff1673ffffffffffffffffffffffffffffffffffffffff16815260200190815260200160002060006101000a81548160ff021916908315150217905550615039614970565b73ffffffffffffffffffffffffffffffffffffffff168273ffffffffffffffffffffffffffffffffffffffff16847f2f8788117e7eff1d82e926ec794901d17c78024a50270940304540a733656f0d60405160405180910390a4600190506150a1565b600090505b92915050565b6000600d54905090565b600080600b60008473ffffffffffffffffffffffffffffffffffffffff1673ffffffffffffffffffffffffffffffffffffffff168152602001908152602001600020905060008160020160009054906101000a900460ff1690506000600a8360000154106151225760049050615169565b60058360000154106151375760039050615168565b600383600001541061514c5760029050615167565b60018360000154106151615760019050615166565b600090505b5b5b5b81600481111561517c5761517b6168a2565b5b81600481111561518f5761518e6168a2565b5b146152a857808360020160006101000a81548160ff021916908360048111156151bb576151ba6168a2565b5b0217905550600c60008260048111156151d7576151d66168a2565b5b60048111156151e9576151e86168a2565b5b8152602001908152602001600020600201549350600085826040516020016152129291906184bb565b604051602081830303815290604052805190602001209050600184600301600083815260200190815260200160002060006101000a81548160ff0219169083151502179055508573ffffffffffffffffffffffffffffffffffffffff167f285a0f2deff4dbdd3719bae595cb2c8b27a45f0814e4db2b1946ab8df9bc548b8360405161529e9190616f66565b60405180910390a2505b505050919050565b6000600b60008373ffffffffffffffffffffffffffffffffffffffff1673ffffffffffffffffffffffffffffffffffffffff168152602001908152602001600020905060006004811115615307576153066168a2565b5b6004811115615319576153186168a2565b5b8160020160009054906101000a900460ff16600481111561533d5761533c6168a2565b5b036153c75760008160020160006101000a81548160ff0219169083600481111561536a576153696168a2565b5b021790555060008160000181905550600081600101819055508173ffffffffffffffffffffffffffffffffffffffff167f92fabfa210df88d92c2f5a07ddd43a985b208d8b19b7a78ba1284aa4b287d86260405160405180910390a25b5050565b600073ffffffffffffffffffffffffffffffffffffffff168473ffffffffffffffffffffffffffffffffffffffff160361543d5760006040517fe602df050000000000000000000000000000000000000000000000000000000081526004016154349190615fe4565b60405180910390fd5b600073ffffffffffffffffffffffffffffffffffffffff168373ffffffffffffffffffffffffffffffffffffffff16036154af5760006040517f94280d620000000000000000000000000000000000000000000000000000000081526004016154a69190615fe4565b60405180910390fd5b81600160008673ffffffffffffffffffffffffffffffffffffffff1673ffffffffffffffffffffffffffffffffffffffff16815260200190815260200160002060008573ffffffffffffffffffffffffffffffffffffffff1673ffffffffffffffffffffffffffffffffffffffff16815260200190815260200160002081905550801561559c578273ffffffffffffffffffffffffffffffffffffffff168473ffffffffffffffffffffffffffffffffffffffff167f8c5be1e5ebec7d5bd14f71427d1e84f3dd0314c0f7b2291e5b200ac8c7c3b925846040516155939190615dbc565b60405180910390a35b50505050565b60006b204fce5e3e250261100000006155b96111f8565b836155c491906179a9565b1115615605576040517f08c379a00000000000000000000000000000000000000000000000000000000081526004016155fc90618533565b60405180910390fd5b61560f83836158d3565b818373ffffffffffffffffffffffffffffffffffffffff167fcda531bfd68624f13205c0a23cd4d5a7f09792cbb399603114f2b04aaa1bf5cf60405160405180910390a36001905092915050565b61566782826132df565b6156aa5780826040517fe2517d3f0000000000000000000000000000000000000000000000000000000081526004016156a1929190618553565b60405180910390fd5b5050565b600073ffffffffffffffffffffffffffffffffffffffff168373ffffffffffffffffffffffffffffffffffffffff16036157005780600260008282546156f491906179a9565b925050819055506157d3565b60008060008573ffffffffffffffffffffffffffffffffffffffff1673ffffffffffffffffffffffffffffffffffffffff1681526020019081526020016000205490508181101561578c578381836040517fe450d38c00000000000000000000000000000000000000000000000000000000815260040161578393929190618406565b60405180910390fd5b8181036000808673ffffffffffffffffffffffffffffffffffffffff1673ffffffffffffffffffffffffffffffffffffffff16815260200190815260200160002081905550505b600073ffffffffffffffffffffffffffffffffffffffff168273ffffffffffffffffffffffffffffffffffffffff160361581c5780600260008282540392505081905550615869565b806000808473ffffffffffffffffffffffffffffffffffffffff1673ffffffffffffffffffffffffffffffffffffffff168152602001908152602001600020600082825401925050819055505b8173ffffffffffffffffffffffffffffffffffffffff168373ffffffffffffffffffffffffffffffffffffffff167fddf252ad1be2c89b69c2b068fc378daa952ba7f163c4a11628f55a4df523b3ef836040516158c69190615dbc565b60405180910390a3505050565b600073ffffffffffffffffffffffffffffffffffffffff168273ffffffffffffffffffffffffffffffffffffffff16036159455760006040517fec442f0500000000000000000000000000000000000000000000000000000000815260040161593c9190615fe4565b60405180910390fd5b615951600083836156ae565b5050565b82805482825590600052602060002090810192821561599d579160200282015b8281111561599c57825182908161598c919061780c565b5091602001919060010190615975565b5b5090506159aa9190615ad7565b5090565b60405180606001604052806060815260200160608152602001600081525090565b604051806101a0016040528060008152602001600073ffffffffffffffffffffffffffffffffffffffff16815260200160608152602001606081526020016060815260200160608152602001600081526020016000815260200160006005811115615a3d57615a3c6168a2565b5b815260200160001515815260200160001515815260200160608152602001600081525090565b6040518061016001604052806000815260200160608152602001600073ffffffffffffffffffffffffffffffffffffffff1681526020016000815260200160008152602001600081526020016000815260200160001515815260200160001515815260200160608152602001606081525090565b5b80821115615af75760008181615aee9190615afb565b50600101615ad8565b5090565b508054615b079061736f565b6000825580601f10615b195750615b38565b601f016020900490600052602060002090810190615b379190615b3b565b5b50565b5b80821115615b54576000816000905550600101615b3c565b5090565b60008115159050919050565b615b6d81615b58565b82525050565b6000602082019050615b886000830184615b64565b92915050565b6000604051905090565b600080fd5b600080fd5b60007fffffffff0000000000000000000000000000000000000000000000000000000082169050919050565b615bd781615ba2565b8114615be257600080fd5b50565b600081359050615bf481615bce565b92915050565b600060208284031215615c1057615c0f615b98565b5b6000615c1e84828501615be5565b91505092915050565b600081519050919050565b600082825260208201905092915050565b60005b83811015615c61578082015181840152602081019050615c46565b60008484015250505050565b6000601f19601f8301169050919050565b6000615c8982615c27565b615c938185615c32565b9350615ca3818560208601615c43565b615cac81615c6d565b840191505092915050565b60006020820190508181036000830152615cd18184615c7e565b905092915050565b600073ffffffffffffffffffffffffffffffffffffffff82169050919050565b6000615d0482615cd9565b9050919050565b615d1481615cf9565b8114615d1f57600080fd5b50565b600081359050615d3181615d0b565b92915050565b6000819050919050565b615d4a81615d37565b8114615d5557600080fd5b50565b600081359050615d6781615d41565b92915050565b60008060408385031215615d8457615d83615b98565b5b6000615d9285828601615d22565b9250506020615da385828601615d58565b9150509250929050565b615db681615d37565b82525050565b6000602082019050615dd16000830184615dad565b92915050565b600080fd5b7f4e487b7100000000000000000000000000000000000000000000000000000000600052604160045260246000fd5b615e1482615c6d565b810181811067ffffffffffffffff82111715615e3357615e32615ddc565b5b80604052505050565b6000615e46615b8e565b9050615e528282615e0b565b919050565b600067ffffffffffffffff821115615e7257615e71615ddc565b5b602082029050602081019050919050565b600080fd5b6000615e9b615e9684615e57565b615e3c565b90508083825260208201905060208402830185811115615ebe57615ebd615e83565b5b835b81811015615ee75780615ed38882615d22565b845260208401935050602081019050615ec0565b5050509392505050565b600082601f830112615f0657615f05615dd7565b5b8135615f16848260208601615e88565b91505092915050565b60008060408385031215615f3657615f35615b98565b5b600083013567ffffffffffffffff811115615f5457615f53615b9d565b5b615f6085828601615ef1565b9250506020615f7185828601615d58565b9150509250929050565b600060208284031215615f9157615f90615b98565b5b6000615f9f84828501615d22565b91505092915050565b600060208284031215615fbe57615fbd615b98565b5b6000615fcc84828501615d58565b91505092915050565b615fde81615cf9565b82525050565b6000602082019050615ff96000830184615fd5565b92915050565b600080fd5b600067ffffffffffffffff82111561601f5761601e615ddc565b5b61602882615c6d565b9050602081019050919050565b82818337600083830152505050565b600061605761605284616004565b615e3c565b90508281526020810184848401111561607357616072615fff565b5b61607e848285616035565b509392505050565b600082601f83011261609b5761609a615dd7565b5b81356160ab848260208601616044565b91505092915050565b600067ffffffffffffffff8211156160cf576160ce615ddc565b5b602082029050602081019050919050565b60006160f36160ee846160b4565b615e3c565b9050808382526020820190506020840283018581111561611657616115615e83565b5b835b8181101561615d57803567ffffffffffffffff81111561613b5761613a615dd7565b5b8086016161488982616086565b85526020850194505050602081019050616118565b5050509392505050565b600082601f83011261617c5761617b615dd7565b5b813561618c8482602086016160e0565b91505092915050565b600681106161a257600080fd5b50565b6000813590506161b481616195565b92915050565b600080600080600080600060e0888a0312156161d9576161d8615b98565b5b600088013567ffffffffffffffff8111156161f7576161f6615b9d565b5b6162038a828b01616086565b975050602088013567ffffffffffffffff81111561622457616223615b9d565b5b6162308a828b01616086565b965050604088013567ffffffffffffffff81111561625157616250615b9d565b5b61625d8a828b01616167565b955050606088013567ffffffffffffffff81111561627e5761627d615b9d565b5b61628a8a828b01616086565b945050608061629b8a828b01615d58565b93505060a06162ac8a828b01615d58565b92505060c06162bd8a828b016161a5565b91505092959891949750929550565b6000806000606084860312156162e5576162e4615b98565b5b60006162f386828701615d22565b935050602061630486828701615d22565b925050604061631586828701615d58565b9150509250925092565b6000819050919050565b6163328161631f565b811461633d57600080fd5b50565b60008135905061634f81616329565b92915050565b60006020828403121561636b5761636a615b98565b5b600061637984828501616340565b91505092915050565b61638b8161631f565b82525050565b60006020820190506163a66000830184616382565b92915050565b6163b581615b58565b81146163c057600080fd5b50565b6000813590506163d2816163ac565b92915050565b600080600080600080600060e0888a0312156163f7576163f6615b98565b5b600088013567ffffffffffffffff81111561641557616414615b9d565b5b6164218a828b01616086565b97505060206164328a828b01615d58565b96505060406164438a828b01615d58565b95505060606164548a828b01615d58565b94505060806164658a828b016163c3565b93505060a088013567ffffffffffffffff81111561648657616485615b9d565b5b6164928a828b01616086565b92505060c088013567ffffffffffffffff8111156164b3576164b2615b9d565b5b6164bf8a828b01616086565b91505092959891949750929550565b600581106164db57600080fd5b50565b6000813590506164ed816164ce565b92915050565b60006020828403121561650957616508615b98565b5b6000616517848285016164de565b91505092915050565b600082825260208201905092915050565b600061653c82615c27565b6165468185616520565b9350616556818560208601615c43565b61655f81615c6d565b840191505092915050565b61657381615d37565b82525050565b600060608301600083015184820360008601526165968282616531565b915050602083015184820360208601526165b08282616531565b91505060408301516165c5604086018261656a565b508091505092915050565b600060208201905081810360008301526165ea8184616579565b905092915050565b6000806040838503121561660957616608615b98565b5b600061661785828601616340565b925050602061662885828601615d22565b9150509250929050565b600060ff82169050919050565b61664881616632565b82525050565b6000602082019050616663600083018461663f565b92915050565b600081519050919050565b600082825260208201905092915050565b6000819050602082019050919050565b61669e81615cf9565b82525050565b60006166b08383616695565b60208301905092915050565b6000602082019050919050565b60006166d482616669565b6166de8185616674565b93506166e983616685565b8060005b8381101561671a57815161670188826166a4565b975061670c836166bc565b9250506001810190506166ed565b5085935050505092915050565b6000602082019050818103600083015261674181846166c9565b905092915050565b600080604083850312156167605761675f615b98565b5b600061676e85828601615d58565b925050602083013567ffffffffffffffff81111561678f5761678e615b9d565b5b61679b85828601615ef1565b9150509250929050565b600080604083850312156167bc576167bb615b98565b5b60006167ca85828601615d22565b92505060206167db858286016164de565b9150509250929050565b600081519050919050565b600082825260208201905092915050565b600061680c826167e5565b61681681856167f0565b9350616826818560208601615c43565b61682f81615c6d565b840191505092915050565b600060c08201905061684f6000830189615dad565b61685c6020830188615fd5565b6168696040830187615fd5565b818103606083015261687b8186616801565b905061688a6080830185615dad565b61689760a0830184615b64565b979650505050505050565b7f4e487b7100000000000000000000000000000000000000000000000000000000600052602160045260246000fd5b600681106168e2576168e16168a2565b5b50565b60008190506168f3826168d1565b919050565b6000616903826168e5565b9050919050565b616913816168f8565b82525050565b60006101608201905061692f600083018e615fd5565b8181036020830152616941818d615c7e565b90508181036040830152616955818c615c7e565b90508181036060830152616969818b615c7e565b9050616978608083018a615dad565b61698560a0830189615dad565b61699260c083018861690a565b61699f60e0830187615b64565b6169ad610100830186615b64565b8181036101208301526169c08185615c7e565b90506169d0610140830184615dad565b9c9b505050505050505050505050565b6000610160820190506169f6600083018e615dad565b8181036020830152616a08818d615c7e565b9050616a17604083018c615fd5565b616a24606083018b615dad565b616a31608083018a615dad565b616a3e60a0830189615dad565b616a4b60c0830188615dad565b616a5860e0830187615b64565b616a66610100830186615b64565b818103610120830152616a798185615c7e565b9050818103610140830152616a8e8184615c7e565b90509c9b505050505050505050505050565b60006060820190508181036000830152616aba8186615c7e565b90508181036020830152616ace8185615c7e565b9050616add6040830184615dad565b949350505050565b60058110616af657616af56168a2565b5b50565b6000819050616b0782616ae5565b919050565b6000616b1782616af9565b9050919050565b616b2781616b0c565b82525050565b600060a082019050616b426000830188616b1e565b8181036020830152616b548187615c7e565b90508181036040830152616b688186615c7e565b9050616b776060830185615dad565b616b846080830184615dad565b9695505050505050565b600081519050919050565b600082825260208201905092915050565b6000819050602082019050919050565b600081519050919050565b600082825260208201905092915050565b6000819050602082019050919050565b6000616bf28383616531565b905092915050565b6000602082019050919050565b6000616c1282616bba565b616c1c8185616bc5565b935083602082028501616c2e85616bd6565b8060005b85811015616c6a5784840389528151616c4b8582616be6565b9450616c5683616bfa565b925060208a01995050600181019050616c32565b50829750879550505050505092915050565b616c85816168f8565b82525050565b616c9481615b58565b82525050565b60006101a083016000830151616cb3600086018261656a565b506020830151616cc66020860182616695565b5060408301518482036040860152616cde8282616531565b91505060608301518482036060860152616cf88282616531565b91505060808301518482036080860152616d128282616c07565b91505060a083015184820360a0860152616d2c8282616531565b91505060c0830151616d4160c086018261656a565b5060e0830151616d5460e086018261656a565b50610100830151616d69610100860182616c7c565b50610120830151616d7e610120860182616c8b565b50610140830151616d93610140860182616c8b565b50610160830151848203610160860152616dad8282616531565b915050610180830151616dc461018086018261656a565b508091505092915050565b6000616ddb8383616c9a565b905092915050565b6000602082019050919050565b6000616dfb82616b8e565b616e058185616b99565b935083602082028501616e1785616baa565b8060005b85811015616e535784840389528151616e348582616dcf565b9450616e3f83616de3565b925060208a01995050600181019050616e1b565b50829750879550505050505092915050565b60006020820190508181036000830152616e7f8184616df0565b905092915050565b6000606082019050616e9c6000830186615dad565b616ea96020830185615dad565b616eb66040830184616b1e565b949350505050565b600082825260208201905092915050565b6000616eda82616bba565b616ee48185616ebe565b935083602082028501616ef685616bd6565b8060005b85811015616f325784840389528151616f138582616be6565b9450616f1e83616bfa565b925060208a01995050600181019050616efa565b50829750879550505050505092915050565b60006020820190508181036000830152616f5e8184616ecf565b905092915050565b6000602082019050616f7b6000830184616b1e565b92915050565b60008060408385031215616f9857616f97615b98565b5b6000616fa685828601615d58565b925050602083013567ffffffffffffffff811115616fc757616fc6615b9d565b5b616fd385828601616086565b9150509250929050565b600061018082019050616ff3600083018f615dad565b617000602083018e615fd5565b8181036040830152617012818d615c7e565b90508181036060830152617026818c615c7e565b9050818103608083015261703a818b615c7e565b905061704960a083018a615dad565b61705660c0830189615dad565b61706360e083018861690a565b617071610100830187615b64565b61707f610120830186615b64565b8181036101408301526170928185615c7e565b90506170a2610160830184615dad565b9d9c50505050505050505050505050565b600081519050919050565b600082825260208201905092915050565b6000819050602082019050919050565b6000610160830160008301516170f8600086018261656a565b50602083015184820360208601526171108282616531565b91505060408301516171256040860182616695565b506060830151617138606086018261656a565b50608083015161714b608086018261656a565b5060a083015161715e60a086018261656a565b5060c083015161717160c086018261656a565b5060e083015161718460e0860182616c8b565b50610100830151617199610100860182616c8b565b506101208301518482036101208601526171b38282616531565b9150506101408301518482036101408601526171cf8282616531565b9150508091505092915050565b60006171e883836170df565b905092915050565b6000602082019050919050565b6000617208826170b3565b61721281856170be565b935083602082028501617224856170cf565b8060005b85811015617260578484038952815161724185826171dc565b945061724c836171f0565b925060208a01995050600181019050617228565b50829750879550505050505092915050565b6000602082019050818103600083015261728c81846171fd565b905092915050565b600080604083850312156172ab576172aa615b98565b5b60006172b985828601615d22565b92505060206172ca85828601615d22565b9150509250929050565b7f416c72656164792061206d656d62657221000000000000000000000000000000600082015250565b600061730a601183615c32565b9150617315826172d4565b602082019050919050565b60006020820190508181036000830152617339816172fd565b9050919050565b7f4e487b7100000000000000000000000000000000000000000000000000000000600052602260045260246000fd5b6000600282049050600182168061738757607f821691505b60208210810361739a57617399617340565b5b50919050565b7f4e487b7100000000000000000000000000000000000000000000000000000000600052603260045260246000fd5b7f4e6f20656c696769626c65206164647265737365730000000000000000000000600082015250565b6000617405601583615c32565b9150617410826173cf565b602082019050919050565b60006020820190508181036000830152617434816173f8565b9050919050565b6000604082019050818103600083015261745581856166c9565b90506174646020830184615dad565b9392505050565b7f4d757374206265206120636f6d6d756e697479206d656d62657220746f20637260008201527f656174652070726f706f73616c73000000000000000000000000000000000000602082015250565b60006174c7602e83615c32565b91506174d28261746b565b604082019050919050565b600060208201905081810360008301526174f6816174ba565b9050919050565b7f4e487b7100000000000000000000000000000000000000000000000000000000600052601160045260246000fd5b600061753782615d37565b915061754283615d37565b925082820261755081615d37565b91508282048414831517617567576175666174fd565b5b5092915050565b7f4e487b7100000000000000000000000000000000000000000000000000000000600052601260045260246000fd5b60006175a882615d37565b91506175b383615d37565b9250826175c3576175c261756e565b5b828204905092915050565b7f52657175657374656420616d6f756e742065786365656473206d6178696d756d60008201527f2066756e64696e67206c696d6974000000000000000000000000000000000000602082015250565b600061762a602e83615c32565b9150617635826175ce565b604082019050919050565b600060208201905081810360008301526176598161761d565b9050919050565b60008190508160005260206000209050919050565b60006020601f8301049050919050565b600082821b905092915050565b6000600883026176c27fffffffffffffffffffffffffffffffffffffffffffffffffffffffffffffffff82617685565b6176cc8683617685565b95508019841693508086168417925050509392505050565b6000819050919050565b60006177096177046176ff84615d37565b6176e4565b615d37565b9050919050565b6000819050919050565b617723836176ee565b61773761772f82617710565b848454617692565b825550505050565b600090565b61774c61773f565b61775781848461771a565b505050565b5b8181101561777b57617770600082617744565b60018101905061775d565b5050565b601f8211156177c05761779181617660565b61779a84617675565b810160208510156177a9578190505b6177bd6177b585617675565b83018261775c565b50505b505050565b600082821c905092915050565b60006177e3600019846008026177c5565b1980831691505092915050565b60006177fc83836177d2565b9150826002028217905092915050565b61781582615c27565b67ffffffffffffffff81111561782e5761782d615ddc565b5b617838825461736f565b61784382828561777f565b600060209050601f8311600181146178765760008415617864578287015190505b61786e85826177f0565b8655506178d6565b601f19841661788486617660565b60005b828110156178ac57848901518255600182019150602085019450602081019050617887565b868310156178c957848901516178c5601f8916826177d2565b8355505b6001600288020188555050505b505050505050565b60006178e982615d37565b91507fffffffffffffffffffffffffffffffffffffffffffffffffffffffffffffffff820361791b5761791a6174fd565b5b600182019050919050565b600060408201905081810360008301526179408185615c7e565b905061794f6020830184615dad565b9392505050565b600060808201905081810360008301526179708187615c7e565b905061797f6020830186615fd5565b61798c6040830185615b64565b818103606083015261799e8184615c7e565b905095945050505050565b60006179b482615d37565b91506179bf83615d37565b92508282019050808211156179d7576179d66174fd565b5b92915050565b7f436f6d6d756e6974793a20496e73756666696369656e7420746f6b656e730000600082015250565b6000617a13601e83615c32565b9150617a1e826179dd565b602082019050919050565b60006020820190508181036000830152617a4281617a06565b9050919050565b6000604082019050617a5e6000830185615dad565b8181036020830152617a7081846166c9565b90509392505050565b7f4576656e74206973206e6f742061637469766500000000000000000000000000600082015250565b6000617aaf601383615c32565b9150617aba82617a79565b602082019050919050565b60006020820190508181036000830152617ade81617aa2565b9050919050565b7f4576656e74206e6f7420696e2070726f67726573730000000000000000000000600082015250565b6000617b1b601583615c32565b9150617b2682617ae5565b602082019050919050565b60006020820190508181036000830152617b4a81617b0e565b9050919050565b7f4576656e742069732066756c6c00000000000000000000000000000000000000600082015250565b6000617b87600d83615c32565b9150617b9282617b51565b602082019050919050565b60006020820190508181036000830152617bb681617b7a565b9050919050565b7f416c726561647920696e20726576696577657220706f6f6c0000000000000000600082015250565b6000617bf3601883615c32565b9150617bfe82617bbd565b602082019050919050565b60006020820190508181036000830152617c2281617be6565b9050919050565b7f50726f706f73616c206e6f7420617070726f7665640000000000000000000000600082015250565b6000617c5f601583615c32565b9150617c6a82617c29565b602082019050919050565b60006020820190508181036000830152617c8e81617c52565b9050919050565b7f496e73756666696369656e7420636f6d6d756e6974792070726f6a656374206660008201527f756e647300000000000000000000000000000000000000000000000000000000602082015250565b6000617cf1602483615c32565b9150617cfc82617c95565b604082019050919050565b60006020820190508181036000830152617d2081617ce4565b9050919050565b7f50726f706f73616c20616c726561647920657865637574656400000000000000600082015250565b6000617d5d601983615c32565b9150617d6882617d27565b602082019050919050565b60006020820190508181036000830152617d8c81617d50565b9050919050565b7f416c726561647920617070726f76656400000000000000000000000000000000600082015250565b6000617dc9601083615c32565b9150617dd482617d93565b602082019050919050565b60006020820190508181036000830152617df881617dbc565b9050919050565b600081905092915050565b60008190508160005260206000209050919050565b60008154617e2c8161736f565b617e368186617dff565b94506001821660008114617e515760018114617e6657617e99565b60ff1983168652811515820286019350617e99565b617e6f85617e0a565b60005b83811015617e9157815481890152600182019150602081019050617e72565b838801955050505b50505092915050565b6000617eae8284617e1f565b915081905092915050565b7f50726f706f73616c20657865637574696f6e206661696c656400000000000000600082015250565b6000617eef601983615c32565b9150617efa82617eb9565b602082019050919050565b60006020820190508181036000830152617f1e81617ee2565b9050919050565b7f4e6f7420696e20726576696577657220706f6f6c000000000000000000000000600082015250565b6000617f5b601483615c32565b9150617f6682617f25565b602082019050919050565b60006020820190508181036000830152617f8a81617f4e565b9050919050565b6000617f9c82615d37565b9150617fa783615d37565b9250828203905081811115617fbf57617fbe6174fd565b5b92915050565b7f4e487b7100000000000000000000000000000000000000000000000000000000600052603160045260246000fd5b7f50726f706f73616c20616c726561647920617070726f76656400000000000000600082015250565b600061802a601983615c32565b915061803582617ff4565b602082019050919050565b600060208201905081810360008301526180598161801d565b9050919050565b7f50726f706f73616c20616c72656164792072656a656374656400000000000000600082015250565b6000618096601983615c32565b91506180a182618060565b602082019050919050565b600060208201905081810360008301526180c581618089565b9050919050565b7f416c726561647920617070726f766564206279207468697320617070726f766560008201527f7200000000000000000000000000000000000000000000000000000000000000602082015250565b6000618128602183615c32565b9150618133826180cc565b604082019050919050565b600060208201905081810360008301526181578161811b565b9050919050565b7f496e76616c69642072657761726420616d6f756e740000000000000000000000600082015250565b6000618194601583615c32565b915061819f8261815e565b602082019050919050565b600060208201905081810360008301526181c381618187565b9050919050565b7f436f6d6d756e6974793a204d696e74696e67206c696d6974206578636565646560008201527f6400000000000000000000000000000000000000000000000000000000000000602082015250565b6000618226602183615c32565b9150618231826181ca565b604082019050919050565b6000602082019050818103600083015261825581618219565b9050919050565b7f436f6d6d756e6974793a2043616e6e6f74206d696e7420746f207a65726f206160008201527f6464726573730000000000000000000000000000000000000000000000000000602082015250565b60006182b8602683615c32565b91506182c38261825c565b604082019050919050565b600060208201905081810360008301526182e7816182ab565b9050919050565b601f82111561832f5761830081617e0a565b61830984617675565b81016020851015618318578190505b61832c61832485617675565b83018261775c565b50505b505050565b61833d826167e5565b67ffffffffffffffff81111561835657618355615ddc565b5b618360825461736f565b61836b8282856182ee565b600060209050601f83116001811461839e576000841561838c578287015190505b61839685826177f0565b8655506183fe565b601f1984166183ac86617e0a565b60005b828110156183d4578489015182556001820191506020850194506020810190506183af565b868310156183f157848901516183ed601f8916826177d2565b8355505b6001600288020188555050505b505050505050565b600060608201905061841b6000830186615fd5565b6184286020830185615dad565b6184356040830184615dad565b949350505050565b60008160601b9050919050565b60006184558261843d565b9050919050565b60006184678261844a565b9050919050565b61847f61847a82615cf9565b61845c565b82525050565b60008160f81b9050919050565b600061849d82618485565b9050919050565b6184b56184b082616b0c565b618492565b82525050565b60006184c7828561846e565b6014820191506184d782846184a4565b6001820191508190509392505050565b7f4c696d6974204578636565646564210000000000000000000000000000000000600082015250565b600061851d600f83615c32565b9150618528826184e7565b602082019050919050565b6000602082019050818103600083015261854c81618510565b9050919050565b60006040820190506185686000830185615fd5565b6185756020830184616382565b939250505056fea264697066735822122068680fb5e56a0b7c6c35139e7f2625373a411ae396a9638a4fe43f62fbfef0e764736f6c634300081b0033",
  "linkReferences": {},
  "deployedLinkReferences": {}
}