{
  "_format": "hh-sol-artifact-1",
  "contractName": "Community",
  "sourceName": "contracts/Community Contracts/Community.sol",
  "abi": [
    {
      "inputs": [
        {
          "internalType": "address[]",
          "name": "_reviewers",
          "type": "address[]"
        }
      ],
      "stateMutability": "nonpayable",
      "type": "constructor"
    },
    {
      "inputs": [],
      "name": "AccessControlBadConfirmation",
      "type": "error"
    },
    {
      "inputs": [
        {
          "internalType": "address",
          "name": "account",
          "type": "address"
        },
        {
          "internalType": "bytes32",
          "name": "neededRole",
          "type": "bytes32"
        }
      ],
      "name": "AccessControlUnauthorizedAccount",
      "type": "error"
    },
    {
      "inputs": [
        {
          "internalType": "address",
          "name": "spender",
          "type": "address"
        },
        {
          "internalType": "uint256",
          "name": "allowance",
          "type": "uint256"
        },
        {
          "internalType": "uint256",
          "name": "needed",
          "type": "uint256"
        }
      ],
      "name": "ERC20InsufficientAllowance",
      "type": "error"
    },
    {
      "inputs": [
        {
          "internalType": "address",
          "name": "sender",
          "type": "address"
        },
        {
          "internalType": "uint256",
          "name": "balance",
          "type": "uint256"
        },
        {
          "internalType": "uint256",
          "name": "needed",
          "type": "uint256"
        }
      ],
      "name": "ERC20InsufficientBalance",
      "type": "error"
    },
    {
      "inputs": [
        {
          "internalType": "address",
          "name": "approver",
          "type": "address"
        }
      ],
      "name": "ERC20InvalidApprover",
      "type": "error"
    },
    {
      "inputs": [
        {
          "internalType": "address",
          "name": "receiver",
          "type": "address"
        }
      ],
      "name": "ERC20InvalidReceiver",
      "type": "error"
    },
    {
      "inputs": [
        {
          "internalType": "address",
          "name": "sender",
          "type": "address"
        }
      ],
      "name": "ERC20InvalidSender",
      "type": "error"
    },
    {
      "inputs": [
        {
          "internalType": "address",
          "name": "spender",
          "type": "address"
        }
      ],
      "name": "ERC20InvalidSpender",
      "type": "error"
    },
    {
      "inputs": [],
      "name": "ReentrancyGuardReentrantCall",
      "type": "error"
    },
    {
      "anonymous": false,
      "inputs": [
        {
          "indexed": true,
          "internalType": "uint256",
          "name": "_amount",
          "type": "uint256"
        },
        {
          "indexed": false,
          "internalType": "uint256",
          "name": "_numberOfEarlyAdopters",
          "type": "uint256"
        }
      ],
      "name": "AirdropDistributeSuccess",
      "type": "event"
    },
    {
      "anonymous": false,
      "inputs": [
        {
          "indexed": true,
          "internalType": "address",
          "name": "owner",
          "type": "address"
        },
        {
          "indexed": true,
          "internalType": "address",
          "name": "spender",
          "type": "address"
        },
        {
          "indexed": false,
          "internalType": "uint256",
          "name": "value",
          "type": "uint256"
        }
      ],
      "name": "Approval",
      "type": "event"
    },
    {
      "anonymous": false,
      "inputs": [
        {
          "indexed": true,
          "internalType": "address",
          "name": "member",
          "type": "address"
        },
        {
          "indexed": false,
          "internalType": "enum CommunityBadgeSystem.BadgeLevel",
          "name": "badge",
          "type": "uint8"
        }
      ],
      "name": "BadgeAwarded",
      "type": "event"
    },
    {
      "anonymous": false,
      "inputs": [
        {
          "indexed": true,
          "internalType": "address",
          "name": "_account",
          "type": "address"
        },
        {
          "indexed": false,
          "internalType": "uint256",
          "name": "_amount",
          "type": "uint256"
        }
      ],
      "name": "BurnSuccess",
      "type": "event"
    },
    {
      "anonymous": false,
      "inputs": [
        {
          "indexed": true,
          "internalType": "address",
          "name": "_to",
          "type": "address"
        },
        {
          "indexed": true,
          "internalType": "uint256",
          "name": "_amount",
          "type": "uint256"
        }
      ],
      "name": "CommunityPoolUpdate",
      "type": "event"
    },
    {
      "anonymous": false,
      "inputs": [
        {
          "indexed": true,
          "internalType": "address",
          "name": "project",
          "type": "address"
        },
        {
          "indexed": false,
          "internalType": "uint256",
          "name": "amount",
          "type": "uint256"
        }
      ],
      "name": "CommunityProjectFunded",
      "type": "event"
    },
    {
      "anonymous": false,
      "inputs": [
        {
          "indexed": true,
          "internalType": "uint256",
          "name": "eventId",
          "type": "uint256"
        },
        {
          "indexed": false,
          "internalType": "string",
          "name": "name",
          "type": "string"
        },
        {
          "indexed": false,
          "internalType": "address",
          "name": "creator",
          "type": "address"
        }
      ],
      "name": "EventCreated",
      "type": "event"
    },
    {
      "anonymous": false,
      "inputs": [
        {
          "indexed": true,
          "internalType": "uint256",
          "name": "eventId",
          "type": "uint256"
        },
        {
          "indexed": false,
          "internalType": "address",
          "name": "participant",
          "type": "address"
        }
      ],
      "name": "EventParticipation",
      "type": "event"
    },
    {
      "anonymous": false,
      "inputs": [
        {
          "indexed": true,
          "internalType": "address",
          "name": "member",
          "type": "address"
        },
        {
          "indexed": false,
          "internalType": "uint256",
          "name": "totalEvents",
          "type": "uint256"
        }
      ],
      "name": "EventParticipationRecorded",
      "type": "event"
    },
    {
      "anonymous": false,
      "inputs": [
        {
          "indexed": true,
          "internalType": "address",
          "name": "_to",
          "type": "address"
        },
        {
          "indexed": true,
          "internalType": "uint256",
          "name": "_amount",
          "type": "uint256"
        }
      ],
      "name": "MintSuccess",
      "type": "event"
    },
    {
      "anonymous": false,
      "inputs": [
        {
          "indexed": true,
          "internalType": "uint256",
          "name": "proposalId",
          "type": "uint256"
        },
        {
          "indexed": false,
          "internalType": "address",
          "name": "approver",
          "type": "address"
        }
      ],
      "name": "MultiSigProposalApproved",
      "type": "event"
    },
    {
      "anonymous": false,
      "inputs": [
        {
          "indexed": true,
          "internalType": "uint256",
          "name": "proposalId",
          "type": "uint256"
        },
        {
          "indexed": false,
          "internalType": "address",
          "name": "proposer",
          "type": "address"
        }
      ],
      "name": "MultiSigProposalCreated",
      "type": "event"
    },
    {
      "anonymous": false,
      "inputs": [
        {
          "indexed": true,
          "internalType": "uint256",
          "name": "proposalId",
          "type": "uint256"
        }
      ],
      "name": "MultiSigProposalExecuted",
      "type": "event"
    },
    {
      "anonymous": false,
      "inputs": [
        {
          "indexed": true,
          "internalType": "address",
          "name": "reviewer",
          "type": "address"
        }
      ],
      "name": "ReviewerAddedToPool",
      "type": "event"
    },
    {
      "anonymous": false,
      "inputs": [
        {
          "indexed": true,
          "internalType": "address",
          "name": "reviewer",
          "type": "address"
        }
      ],
      "name": "ReviewerRemovedFromPool",
      "type": "event"
    },
    {
      "anonymous": false,
      "inputs": [
        {
          "indexed": true,
          "internalType": "bytes32",
          "name": "role",
          "type": "bytes32"
        },
        {
          "indexed": true,
          "internalType": "bytes32",
          "name": "previousAdminRole",
          "type": "bytes32"
        },
        {
          "indexed": true,
          "internalType": "bytes32",
          "name": "newAdminRole",
          "type": "bytes32"
        }
      ],
      "name": "RoleAdminChanged",
      "type": "event"
    },
    {
      "anonymous": false,
      "inputs": [
        {
          "indexed": true,
          "internalType": "bytes32",
          "name": "role",
          "type": "bytes32"
        },
        {
          "indexed": true,
          "internalType": "address",
          "name": "account",
          "type": "address"
        },
        {
          "indexed": true,
          "internalType": "address",
          "name": "sender",
          "type": "address"
        }
      ],
      "name": "RoleGranted",
      "type": "event"
    },
    {
      "anonymous": false,
      "inputs": [
        {
          "indexed": true,
          "internalType": "bytes32",
          "name": "role",
          "type": "bytes32"
        },
        {
          "indexed": true,
          "internalType": "address",
          "name": "account",
          "type": "address"
        },
        {
          "indexed": true,
          "internalType": "address",
          "name": "sender",
          "type": "address"
        }
      ],
      "name": "RoleRevoked",
      "type": "event"
    },
    {
      "anonymous": false,
      "inputs": [
        {
          "indexed": true,
          "internalType": "address",
          "name": "from",
          "type": "address"
        },
        {
          "indexed": true,
          "internalType": "address",
          "name": "to",
          "type": "address"
        },
        {
          "indexed": false,
          "internalType": "uint256",
          "name": "value",
          "type": "uint256"
        }
      ],
      "name": "Transfer",
      "type": "event"
    },
    {
      "inputs": [],
      "name": "CHAMPION_BADGE_THRESHOLD",
      "outputs": [
        {
          "internalType": "uint256",
          "name": "",
          "type": "uint256"
        }
      ],
      "stateMutability": "view",
      "type": "function"
    },
    {
      "inputs": [],
      "name": "COMMUNITY_MANAGER",
      "outputs": [
        {
          "internalType": "bytes32",
          "name": "",
          "type": "bytes32"
        }
      ],
      "stateMutability": "view",
      "type": "function"
    },
    {
      "inputs": [],
      "name": "COMMUNITY_POOL",
      "outputs": [
        {
          "internalType": "uint256",
          "name": "",
          "type": "uint256"
        }
      ],
      "stateMutability": "view",
      "type": "function"
    },
    {
      "inputs": [],
      "name": "CONTRIBUTOR_BADGE_THRESHOLD",
      "outputs": [
        {
          "internalType": "uint256",
          "name": "",
          "type": "uint256"
        }
      ],
      "stateMutability": "view",
      "type": "function"
    },
    {
      "inputs": [],
      "name": "DEFAULT_ADMIN_ROLE",
      "outputs": [
        {
          "internalType": "bytes32",
          "name": "",
          "type": "bytes32"
        }
      ],
      "stateMutability": "view",
      "type": "function"
    },
    {
      "inputs": [],
      "name": "EVENT_PARTICIPATION_REWARD",
      "outputs": [
        {
          "internalType": "uint256",
          "name": "",
          "type": "uint256"
        }
      ],
      "stateMutability": "view",
      "type": "function"
    },
    {
      "inputs": [],
      "name": "LEADER_BADGE_THRESHOLD",
      "outputs": [
        {
          "internalType": "uint256",
          "name": "",
          "type": "uint256"
        }
      ],
      "stateMutability": "view",
      "type": "function"
    },
    {
      "inputs": [],
      "name": "MAX_COMMUNITY_PROJECT_FUNDING",
      "outputs": [
        {
          "internalType": "uint256",
          "name": "",
          "type": "uint256"
        }
      ],
      "stateMutability": "view",
      "type": "function"
    },
    {
      "inputs": [],
      "name": "MAX_SUPPLY",
      "outputs": [
        {
          "internalType": "uint256",
          "name": "",
          "type": "uint256"
        }
      ],
      "stateMutability": "view",
      "type": "function"
    },
    {
      "inputs": [],
      "name": "MULTISIG_APPROVER",
      "outputs": [
        {
          "internalType": "bytes32",
          "name": "",
          "type": "bytes32"
        }
      ],
      "stateMutability": "view",
      "type": "function"
    },
    {
      "inputs": [],
      "name": "PARTICIPANT_BADGE_THRESHOLD",
      "outputs": [
        {
          "internalType": "uint256",
          "name": "",
          "type": "uint256"
        }
      ],
      "stateMutability": "view",
      "type": "function"
    },
    {
      "inputs": [],
      "name": "REVIEWER_ROLE",
      "outputs": [
        {
          "internalType": "bytes32",
          "name": "",
          "type": "bytes32"
        }
      ],
      "stateMutability": "view",
      "type": "function"
    },
    {
      "inputs": [
        {
          "internalType": "address",
          "name": "newReviewer",
          "type": "address"
        }
      ],
      "name": "addReviewer",
      "outputs": [],
      "stateMutability": "nonpayable",
      "type": "function"
    },
    {
      "inputs": [
        {
          "internalType": "address",
          "name": "owner",
          "type": "address"
        },
        {
          "internalType": "address",
          "name": "spender",
          "type": "address"
        }
      ],
      "name": "allowance",
      "outputs": [
        {
          "internalType": "uint256",
          "name": "",
          "type": "uint256"
        }
      ],
      "stateMutability": "view",
      "type": "function"
    },
    {
      "inputs": [
        {
          "internalType": "address",
          "name": "spender",
          "type": "address"
        },
        {
          "internalType": "uint256",
          "name": "value",
          "type": "uint256"
        }
      ],
      "name": "approve",
      "outputs": [
        {
          "internalType": "bool",
          "name": "",
          "type": "bool"
        }
      ],
      "stateMutability": "nonpayable",
      "type": "function"
    },
    {
      "inputs": [
        {
          "internalType": "uint256",
          "name": "_proposalId",
          "type": "uint256"
        }
      ],
      "name": "approveMultiSigProposal",
      "outputs": [],
      "stateMutability": "nonpayable",
      "type": "function"
    },
    {
      "inputs": [
        {
          "internalType": "enum CommunityBadgeSystem.BadgeLevel",
          "name": "",
          "type": "uint8"
        }
      ],
      "name": "badgeMetadata",
      "outputs": [
        {
          "internalType": "string",
          "name": "name",
          "type": "string"
        },
        {
          "internalType": "string",
          "name": "iconURI",
          "type": "string"
        },
        {
          "internalType": "uint256",
          "name": "tokenReward",
          "type": "uint256"
        }
      ],
      "stateMutability": "view",
      "type": "function"
    },
    {
      "inputs": [
        {
          "internalType": "address",
          "name": "account",
          "type": "address"
        }
      ],
      "name": "balanceOf",
      "outputs": [
        {
          "internalType": "uint256",
          "name": "",
          "type": "uint256"
        }
      ],
      "stateMutability": "view",
      "type": "function"
    },
    {
      "inputs": [],
      "name": "checkMemberBadge",
      "outputs": [
        {
          "internalType": "enum CommunityBadgeSystem.BadgeLevel",
          "name": "",
          "type": "uint8"
        }
      ],
      "stateMutability": "view",
      "type": "function"
    },
    {
      "inputs": [],
      "name": "claimBadgeRewards",
      "outputs": [],
      "stateMutability": "nonpayable",
      "type": "function"
    },
    {
      "inputs": [
        {
          "internalType": "address",
          "name": "",
          "type": "address"
        }
      ],
      "name": "communityContributorRewards",
      "outputs": [
        {
          "internalType": "uint256",
          "name": "",
          "type": "uint256"
        }
      ],
      "stateMutability": "view",
      "type": "function"
    },
    {
      "inputs": [
        {
          "internalType": "uint256",
          "name": "",
          "type": "uint256"
        }
      ],
      "name": "communityEvents",
      "outputs": [
        {
          "internalType": "uint256",
          "name": "id",
          "type": "uint256"
        },
        {
          "internalType": "string",
          "name": "name",
          "type": "string"
        },
        {
          "internalType": "address",
          "name": "creator",
          "type": "address"
        },
        {
          "internalType": "uint256",
          "name": "startTime",
          "type": "uint256"
        },
        {
          "internalType": "uint256",
          "name": "endTime",
          "type": "uint256"
        },
        {
          "internalType": "uint256",
          "name": "maxParticipants",
          "type": "uint256"
        },
        {
          "internalType": "uint256",
          "name": "currentParticipants",
          "type": "uint256"
        },
        {
          "internalType": "bool",
          "name": "isActive",
          "type": "bool"
        }
      ],
      "stateMutability": "view",
      "type": "function"
    },
    {
      "inputs": [
        {
          "internalType": "address",
          "name": "",
          "type": "address"
        }
      ],
      "name": "communityMembers",
      "outputs": [
        {
          "internalType": "uint256",
          "name": "totalEventsAttended",
          "type": "uint256"
        },
        {
          "internalType": "uint256",
          "name": "totalContributions",
          "type": "uint256"
        },
        {
          "internalType": "enum CommunityBadgeSystem.BadgeLevel",
          "name": "currentBadge",
          "type": "uint8"
        }
      ],
      "stateMutability": "view",
      "type": "function"
    },
    {
      "inputs": [],
      "name": "communityPoolSupply",
      "outputs": [
        {
          "internalType": "uint256",
          "name": "",
          "type": "uint256"
        }
      ],
      "stateMutability": "view",
      "type": "function"
    },
    {
      "inputs": [],
      "name": "communityProjectFunds",
      "outputs": [
        {
          "internalType": "uint256",
          "name": "",
          "type": "uint256"
        }
      ],
      "stateMutability": "view",
      "type": "function"
    },
    {
      "inputs": [
        {
          "internalType": "string",
          "name": "_name",
          "type": "string"
        },
        {
          "internalType": "uint256",
          "name": "_startTime",
          "type": "uint256"
        },
        {
          "internalType": "uint256",
          "name": "_endTime",
          "type": "uint256"
        },
        {
          "internalType": "uint256",
          "name": "_maxParticipants",
          "type": "uint256"
        }
      ],
      "name": "createEvent",
      "outputs": [
        {
          "internalType": "uint256",
          "name": "",
          "type": "uint256"
        }
      ],
      "stateMutability": "nonpayable",
      "type": "function"
    },
    {
      "inputs": [],
      "name": "decimals",
      "outputs": [
        {
          "internalType": "uint8",
          "name": "",
          "type": "uint8"
        }
      ],
      "stateMutability": "view",
      "type": "function"
    },
    {
      "inputs": [
        {
          "internalType": "uint256",
          "name": "_amount",
          "type": "uint256"
        },
        {
          "internalType": "address[]",
          "name": "earlyAdopters",
          "type": "address[]"
        }
      ],
      "name": "distributeAirdrops",
      "outputs": [
        {
          "internalType": "bool",
          "name": "",
          "type": "bool"
        }
      ],
      "stateMutability": "nonpayable",
      "type": "function"
    },
    {
      "inputs": [
        {
          "internalType": "address",
          "name": "_projectAddress",
          "type": "address"
        },
        {
          "internalType": "uint256",
          "name": "_amount",
          "type": "uint256"
        }
      ],
      "name": "fundCommunityProjects",
      "outputs": [],
      "stateMutability": "nonpayable",
      "type": "function"
    },
    {
      "inputs": [
        {
          "internalType": "enum CommunityBadgeSystem.BadgeLevel",
          "name": "_level",
          "type": "uint8"
        }
      ],
      "name": "getBadgeMetadata",
      "outputs": [
        {
          "components": [
            {
              "internalType": "string",
              "name": "name",
              "type": "string"
            },
            {
              "internalType": "string",
              "name": "iconURI",
              "type": "string"
            },
            {
              "internalType": "uint256",
              "name": "tokenReward",
              "type": "uint256"
            }
          ],
          "internalType": "struct CommunityBadgeSystem.BadgeMetadata",
          "name": "",
          "type": "tuple"
        }
      ],
      "stateMutability": "view",
      "type": "function"
    },
    {
      "inputs": [
        {
          "internalType": "address",
          "name": "_member",
          "type": "address"
        }
      ],
      "name": "getMemberBadge",
      "outputs": [
        {
          "internalType": "enum CommunityBadgeSystem.BadgeLevel",
          "name": "",
          "type": "uint8"
        }
      ],
      "stateMutability": "view",
      "type": "function"
    },
    {
      "inputs": [
        {
          "internalType": "address",
          "name": "_member",
          "type": "address"
        }
      ],
      "name": "getMemberBadgeDetails",
      "outputs": [
        {
          "internalType": "enum CommunityBadgeSystem.BadgeLevel",
          "name": "currentBadge",
          "type": "uint8"
        },
        {
          "internalType": "string",
          "name": "badgeName",
          "type": "string"
        },
        {
          "internalType": "string",
          "name": "iconURI",
          "type": "string"
        },
        {
          "internalType": "uint256",
          "name": "tokenReward",
          "type": "uint256"
        },
        {
          "internalType": "uint256",
          "name": "totalEventsAttended",
          "type": "uint256"
        }
      ],
      "stateMutability": "view",
      "type": "function"
    },
    {
      "inputs": [
        {
          "internalType": "bytes32",
          "name": "role",
          "type": "bytes32"
        }
      ],
      "name": "getRoleAdmin",
      "outputs": [
        {
          "internalType": "bytes32",
          "name": "",
          "type": "bytes32"
        }
      ],
      "stateMutability": "view",
      "type": "function"
    },
    {
      "inputs": [
        {
          "internalType": "address",
          "name": "_member",
          "type": "address"
        }
      ],
      "name": "getTotalEventsAttended",
      "outputs": [
        {
          "internalType": "uint256",
          "name": "",
          "type": "uint256"
        }
      ],
      "stateMutability": "view",
      "type": "function"
    },
    {
      "inputs": [
        {
          "internalType": "bytes32",
          "name": "role",
          "type": "bytes32"
        },
        {
          "internalType": "address",
          "name": "account",
          "type": "address"
        }
      ],
      "name": "grantRole",
      "outputs": [],
      "stateMutability": "nonpayable",
      "type": "function"
    },
    {
      "inputs": [
        {
          "internalType": "address",
          "name": "_member",
          "type": "address"
        },
        {
          "internalType": "enum CommunityBadgeSystem.BadgeLevel",
          "name": "_badgeLevel",
          "type": "uint8"
        }
      ],
      "name": "hasBadge",
      "outputs": [
        {
          "internalType": "bool",
          "name": "",
          "type": "bool"
        }
      ],
      "stateMutability": "view",
      "type": "function"
    },
    {
      "inputs": [
        {
          "internalType": "bytes32",
          "name": "role",
          "type": "bytes32"
        },
        {
          "internalType": "address",
          "name": "account",
          "type": "address"
        }
      ],
      "name": "hasRole",
      "outputs": [
        {
          "internalType": "bool",
          "name": "",
          "type": "bool"
        }
      ],
      "stateMutability": "view",
      "type": "function"
    },
    {
      "inputs": [
        {
          "internalType": "address",
          "name": "",
          "type": "address"
        }
      ],
      "name": "isInReviewerPool",
      "outputs": [
        {
          "internalType": "bool",
          "name": "",
          "type": "bool"
        }
      ],
      "stateMutability": "view",
      "type": "function"
    },
    {
      "inputs": [
        {
          "internalType": "address",
          "name": "account",
          "type": "address"
        }
      ],
      "name": "isReviewer",
      "outputs": [
        {
          "internalType": "bool",
          "name": "",
          "type": "bool"
        }
      ],
      "stateMutability": "view",
      "type": "function"
    },
    {
      "inputs": [
        {
          "internalType": "uint256",
          "name": "",
          "type": "uint256"
        }
      ],
      "name": "multiSigProposals",
      "outputs": [
        {
          "internalType": "uint256",
          "name": "id",
          "type": "uint256"
        },
        {
          "internalType": "address",
          "name": "proposer",
          "type": "address"
        },
        {
          "internalType": "address",
          "name": "targetContract",
          "type": "address"
        },
        {
          "internalType": "bytes",
          "name": "data",
          "type": "bytes"
        },
        {
          "internalType": "uint256",
          "name": "approvalCount",
          "type": "uint256"
        },
        {
          "internalType": "bool",
          "name": "executed",
          "type": "bool"
        }
      ],
      "stateMutability": "view",
      "type": "function"
    },
    {
      "inputs": [],
      "name": "name",
      "outputs": [
        {
          "internalType": "string",
          "name": "",
          "type": "string"
        }
      ],
      "stateMutability": "view",
      "type": "function"
    },
    {
      "inputs": [
        {
          "internalType": "uint256",
          "name": "_eventId",
          "type": "uint256"
        }
      ],
      "name": "participateInEvent",
      "outputs": [],
      "stateMutability": "nonpayable",
      "type": "function"
    },
    {
      "inputs": [
        {
          "internalType": "uint256",
          "name": "_amount",
          "type": "uint256"
        },
        {
          "internalType": "address[]",
          "name": "earlyAdopters",
          "type": "address[]"
        }
      ],
      "name": "performAirdrop",
      "outputs": [],
      "stateMutability": "nonpayable",
      "type": "function"
    },
    {
      "inputs": [
        {
          "internalType": "address[]",
          "name": "_eligibleAddresses",
          "type": "address[]"
        },
        {
          "internalType": "uint256",
          "name": "_amount",
          "type": "uint256"
        }
      ],
      "name": "performPeriodicAirdrop",
      "outputs": [],
      "stateMutability": "nonpayable",
      "type": "function"
    },
    {
      "inputs": [
        {
          "internalType": "address[]",
          "name": "_eligibleAddresses",
          "type": "address[]"
        },
        {
          "internalType": "uint256",
          "name": "_amount",
          "type": "uint256"
        }
      ],
      "name": "periodicAirdrops",
      "outputs": [],
      "stateMutability": "nonpayable",
      "type": "function"
    },
    {
      "inputs": [
        {
          "internalType": "address",
          "name": "_contributor",
          "type": "address"
        },
        {
          "internalType": "uint256",
          "name": "_rewardAmount",
          "type": "uint256"
        }
      ],
      "name": "processCommunityRewards",
      "outputs": [],
      "stateMutability": "nonpayable",
      "type": "function"
    },
    {
      "inputs": [
        {
          "internalType": "address",
          "name": "reviewer",
          "type": "address"
        }
      ],
      "name": "removeReviewer",
      "outputs": [],
      "stateMutability": "nonpayable",
      "type": "function"
    },
    {
      "inputs": [
        {
          "internalType": "bytes32",
          "name": "role",
          "type": "bytes32"
        },
        {
          "internalType": "address",
          "name": "callerConfirmation",
          "type": "address"
        }
      ],
      "name": "renounceRole",
      "outputs": [],
      "stateMutability": "nonpayable",
      "type": "function"
    },
    {
      "inputs": [
        {
          "internalType": "uint256",
          "name": "",
          "type": "uint256"
        }
      ],
      "name": "reviewerPool",
      "outputs": [
        {
          "internalType": "address",
          "name": "",
          "type": "address"
        }
      ],
      "stateMutability": "view",
      "type": "function"
    },
    {
      "inputs": [
        {
          "internalType": "bytes32",
          "name": "role",
          "type": "bytes32"
        },
        {
          "internalType": "address",
          "name": "account",
          "type": "address"
        }
      ],
      "name": "revokeRole",
      "outputs": [],
      "stateMutability": "nonpayable",
      "type": "function"
    },
    {
      "inputs": [
        {
          "internalType": "bytes4",
          "name": "interfaceId",
          "type": "bytes4"
        }
      ],
      "name": "supportsInterface",
      "outputs": [
        {
          "internalType": "bool",
          "name": "",
          "type": "bool"
        }
      ],
      "stateMutability": "view",
      "type": "function"
    },
    {
      "inputs": [],
      "name": "symbol",
      "outputs": [
        {
          "internalType": "string",
          "name": "",
          "type": "string"
        }
      ],
      "stateMutability": "view",
      "type": "function"
    },
    {
      "inputs": [],
      "name": "totalSupply",
      "outputs": [
        {
          "internalType": "uint256",
          "name": "",
          "type": "uint256"
        }
      ],
      "stateMutability": "view",
      "type": "function"
    },
    {
      "inputs": [
        {
          "internalType": "address",
          "name": "to",
          "type": "address"
        },
        {
          "internalType": "uint256",
          "name": "value",
          "type": "uint256"
        }
      ],
      "name": "transfer",
      "outputs": [
        {
          "internalType": "bool",
          "name": "",
          "type": "bool"
        }
      ],
      "stateMutability": "nonpayable",
      "type": "function"
    },
    {
      "inputs": [
        {
          "internalType": "address",
          "name": "from",
          "type": "address"
        },
        {
          "internalType": "address",
          "name": "to",
          "type": "address"
        },
        {
          "internalType": "uint256",
          "name": "value",
          "type": "uint256"
        }
      ],
      "name": "transferFrom",
      "outputs": [
        {
          "internalType": "bool",
          "name": "",
          "type": "bool"
        }
      ],
      "stateMutability": "nonpayable",
      "type": "function"
    },
    {
      "inputs": [
        {
          "internalType": "address",
          "name": "_projectAddress",
          "type": "address"
        },
        {
          "internalType": "uint256",
          "name": "_amount",
          "type": "uint256"
        }
      ],
      "name": "transferFunds",
      "outputs": [],
      "stateMutability": "nonpayable",
      "type": "function"
    }
  ],
  "bytecode": "0x608060405234801561001057600080fd5b5060405161691f38038061691f83398181016040528101906100329190610b4d565b806040518060400160405280600a81526020017f4142594120544f4b454e000000000000000000000000000000000000000000008152506040518060400160405280600681526020017f414259544b4e000000000000000000000000000000000000000000000000000081525081600390816100ae9190610db7565b5080600490816100be9190610db7565b505050600481511015610106576040517f08c379a00000000000000000000000000000000000000000000000000000000081526004016100fd90610f0c565b60405180910390fd5b6101196000801b3361081160201b60201c565b5061014a7fdf1425bae297c2f52b4f15d18a50b1fc8cb5b981a981b1d213ed3ff92681b64d3361081160201b60201c565b5060005b815181101561029e576101a17fc10c77be35aff266144ed64c26a1fa104bae2f284ae99ac4a34203454704a18583838151811061018e5761018d610f2c565b5b602002602001015161081160201b60201c565b5060068282815181106101b7576101b6610f2c565b5b60200260200101519080600181540180825580915050600190039060005260206000200160009091909190916101000a81548173ffffffffffffffffffffffffffffffffffffffff021916908373ffffffffffffffffffffffffffffffffffffffff16021790555060016008600084848151811061023857610237610f2c565b5b602002602001015173ffffffffffffffffffffffffffffffffffffffff1673ffffffffffffffffffffffffffffffffffffffff16815260200190815260200160002060006101000a81548160ff021916908315150217905550808060010191505061014e565b50506001600a8190555060405180606001604052806040518060400160405280600881526020017f4e6577636f6d657200000000000000000000000000000000000000000000000081525081526020016040518060400160405280601a81526020017f697066733a2f2f6e6577636f6d65722d62616467652d69636f6e00000000000081525081526020016000815250600c600080600481111561034557610344610f5b565b5b600481111561035757610356610f5b565b5b8152602001908152602001600020600082015181600001908161037a9190610db7565b5060208201518160010190816103909190610db7565b506040820151816002015590505060405180606001604052806040518060400160405280600b81526020017f5061727469636970616e7400000000000000000000000000000000000000000081525081526020016040518060400160405280601d81526020017f697066733a2f2f7061727469636970616e742d62616467652d69636f6e0000008152508152602001670de0b6b3a7640000815250600c60006001600481111561044357610442610f5b565b5b600481111561045557610454610f5b565b5b815260200190815260200160002060008201518160000190816104789190610db7565b50602082015181600101908161048e9190610db7565b506040820151816002015590505060405180606001604052806040518060400160405280600b81526020017f436f6e7472696275746f7200000000000000000000000000000000000000000081525081526020016040518060400160405280601d81526020017f697066733a2f2f636f6e7472696275746f722d62616467652d69636f6e0000008152508152602001671bc16d674ec80000815250600c60006002600481111561054157610540610f5b565b5b600481111561055357610552610f5b565b5b815260200190815260200160002060008201518160000190816105769190610db7565b50602082015181600101908161058c9190610db7565b506040820151816002015590505060405180606001604052806040518060400160405280600681526020017f4c6561646572000000000000000000000000000000000000000000000000000081525081526020016040518060400160405280601881526020017f697066733a2f2f6c65616465722d62616467652d69636f6e000000000000000081525081526020016729a2241af62c0000815250600c60006003600481111561063f5761063e610f5b565b5b600481111561065157610650610f5b565b5b815260200190815260200160002060008201518160000190816106749190610db7565b50602082015181600101908161068a9190610db7565b506040820151816002015590505060405180606001604052806040518060400160405280600881526020017f4368616d70696f6e00000000000000000000000000000000000000000000000081525081526020016040518060400160405280601a81526020017f697066733a2f2f6368616d70696f6e2d62616467652d69636f6e0000000000008152508152602001673782dace9d900000815250600c600060048081111561073c5761073b610f5b565b5b600481111561074e5761074d610f5b565b5b815260200190815260200160002060008201518160000190816107719190610db7565b5060208201518160010190816107879190610db7565b50604082015181600201559050506107a86000801b3361081160201b60201c565b506107d97fc295d8a2f69016465f61012796a38346423f02058e9c426f8bc1d946bc8c84703361081160201b60201c565b5061080a7fdf1425bae297c2f52b4f15d18a50b1fc8cb5b981a981b1d213ed3ff92681b64d3361081160201b60201c565b5050610f8a565b6000610823838361090f60201b60201c565b6109045760016005600085815260200190815260200160002060000160008473ffffffffffffffffffffffffffffffffffffffff1673ffffffffffffffffffffffffffffffffffffffff16815260200190815260200160002060006101000a81548160ff0219169083151502179055506108a161097a60201b60201c565b73ffffffffffffffffffffffffffffffffffffffff168273ffffffffffffffffffffffffffffffffffffffff16847f2f8788117e7eff1d82e926ec794901d17c78024a50270940304540a733656f0d60405160405180910390a460019050610909565b600090505b92915050565b60006005600084815260200190815260200160002060000160008373ffffffffffffffffffffffffffffffffffffffff1673ffffffffffffffffffffffffffffffffffffffff16815260200190815260200160002060009054906101000a900460ff16905092915050565b600033905090565b6000604051905090565b600080fd5b600080fd5b600080fd5b6000601f19601f8301169050919050565b7f4e487b7100000000000000000000000000000000000000000000000000000000600052604160045260246000fd5b6109e48261099b565b810181811067ffffffffffffffff82111715610a0357610a026109ac565b5b80604052505050565b6000610a16610982565b9050610a2282826109db565b919050565b600067ffffffffffffffff821115610a4257610a416109ac565b5b602082029050602081019050919050565b600080fd5b600073ffffffffffffffffffffffffffffffffffffffff82169050919050565b6000610a8382610a58565b9050919050565b610a9381610a78565b8114610a9e57600080fd5b50565b600081519050610ab081610a8a565b92915050565b6000610ac9610ac484610a27565b610a0c565b90508083825260208201905060208402830185811115610aec57610aeb610a53565b5b835b81811015610b155780610b018882610aa1565b845260208401935050602081019050610aee565b5050509392505050565b600082601f830112610b3457610b33610996565b5b8151610b44848260208601610ab6565b91505092915050565b600060208284031215610b6357610b6261098c565b5b600082015167ffffffffffffffff811115610b8157610b80610991565b5b610b8d84828501610b1f565b91505092915050565b600081519050919050565b7f4e487b7100000000000000000000000000000000000000000000000000000000600052602260045260246000fd5b60006002820490506001821680610be857607f821691505b602082108103610bfb57610bfa610ba1565b5b50919050565b60008190508160005260206000209050919050565b60006020601f8301049050919050565b600082821b905092915050565b600060088302610c637fffffffffffffffffffffffffffffffffffffffffffffffffffffffffffffffff82610c26565b610c6d8683610c26565b95508019841693508086168417925050509392505050565b6000819050919050565b6000819050919050565b6000610cb4610caf610caa84610c85565b610c8f565b610c85565b9050919050565b6000819050919050565b610cce83610c99565b610ce2610cda82610cbb565b848454610c33565b825550505050565b600090565b610cf7610cea565b610d02818484610cc5565b505050565b5b81811015610d2657610d1b600082610cef565b600181019050610d08565b5050565b601f821115610d6b57610d3c81610c01565b610d4584610c16565b81016020851015610d54578190505b610d68610d6085610c16565b830182610d07565b50505b505050565b600082821c905092915050565b6000610d8e60001984600802610d70565b1980831691505092915050565b6000610da78383610d7d565b9150826002028217905092915050565b610dc082610b96565b67ffffffffffffffff811115610dd957610dd86109ac565b5b610de38254610bd0565b610dee828285610d2a565b600060209050601f831160018114610e215760008415610e0f578287015190505b610e198582610d9b565b865550610e81565b601f198416610e2f86610c01565b60005b82811015610e5757848901518255600182019150602085019450602081019050610e32565b86831015610e745784890151610e70601f891682610d7d565b8355505b6001600288020188555050505b505050505050565b600082825260208201905092915050565b7f4174206c6561737420342072657669657765727320617265207265717569726560008201527f6400000000000000000000000000000000000000000000000000000000000000602082015250565b6000610ef6602183610e89565b9150610f0182610e9a565b604082019050919050565b60006020820190508181036000830152610f2581610ee9565b9050919050565b7f4e487b7100000000000000000000000000000000000000000000000000000000600052603260045260246000fd5b7f4e487b7100000000000000000000000000000000000000000000000000000000600052602160045260246000fd5b61598680610f996000396000f3fe608060405234801561001057600080fd5b50600436106103785760003560e01c80637025aac6116101d3578063bad0dd6511610104578063d7b999c7116100a2578063fba2e3101161007c578063fba2e31014610af7578063fd55dd9214610b27578063fdc6258a14610b45578063ff4d712814610b7557610378565b8063d7b999c714610a8d578063dd62ed3e14610aab578063fad2c5f214610adb57610378565b8063c9442dac116100de578063c9442dac14610a07578063ca98e49e14610a23578063d171d04914610a53578063d547741f14610a7157610378565b8063bad0dd651461099d578063bfa05361146109b9578063c491b04c146109d757610378565b806391d1485411610171578063a217fddf1161014b578063a217fddf14610913578063a9059cbb14610931578063aeb47e2a14610961578063b51934251461097f57610378565b806391d14854146108a957806395d89b41146108d9578063990dc9db146108f757610378565b806373a82b5f116101ad57806373a82b5f1461080f5780637ac669221461082b5780638c95aef914610847578063914e72a61461087957610378565b80637025aac61461077957806370a08231146107ab5780637125a07b146107db57610378565b80632f2ff15d116102ad57806340932bf81161024b57806352994e2f1161022557806352994e2f146106e85780635fc610011461070657806361ac05e21461073d57806361ac7e611461075b57610378565b806340932bf81461068d5780634e860496146106c257806350447e5e146106de57610378565b8063354c4e1311610287578063354c4e13146105f357806336568abe146106235780633af0c6881461063f5780633b129a561461066f57610378565b80632f2ff15d1461059b578063313ce567146105b757806332cb6b0c146105d557610378565b806318160ddd1161031a5780631e3edfd9116102f45780631e3edfd9146104ed57806323b872dd1461050b578063248a9ca31461053b5780632899df2b1461056b57610378565b806318160ddd1461048357806318a8c3f2146104a157806319f102ec146104bd57610378565b8063095ea7b311610356578063095ea7b3146103fb5780630ed1d5cb1461042b5780630fb6d46a1461044957806315f42df41461046757610378565b806301ffc9a71461037d5780630374ab0b146103ad57806306fdde03146103dd575b600080fd5b61039760048036038101906103929190613c80565b610b91565b6040516103a49190613cc8565b60405180910390f35b6103c760048036038101906103c29190613e5f565b610c0b565b6040516103d49190613ef1565b60405180910390f35b6103e5610d1b565b6040516103f29190613f8b565b60405180910390f35b6104156004803603810190610410919061400b565b610dad565b6040516104229190613cc8565b60405180910390f35b610433610dd0565b6040516104409190613ef1565b60405180910390f35b610451610dd5565b60405161045e9190613ef1565b60405180910390f35b610481600480360381019061047c9190614113565b610dda565b005b61048b610e1d565b6040516104989190613ef1565b60405180910390f35b6104bb60048036038101906104b69190614113565b610e27565b005b6104d760048036038101906104d2919061416f565b610f3a565b6040516104e491906141ab565b60405180910390f35b6104f5610f79565b6040516105029190613ef1565b60405180910390f35b610525600480360381019061052091906141c6565b610f85565b6040516105329190613cc8565b60405180910390f35b6105556004803603810190610550919061424f565b610fb4565b604051610562919061428b565b60405180910390f35b610585600480360381019061058091906142cb565b610fd4565b60405161059291906143a8565b60405180910390f35b6105b560048036038101906105b091906143ca565b611153565b005b6105bf611175565b6040516105cc9190614426565b60405180910390f35b6105dd61117e565b6040516105ea9190613ef1565b60405180910390f35b61060d60048036038101906106089190614441565b61118e565b60405161061a9190613cc8565b60405180910390f35b61063d600480360381019061063891906143ca565b6112fa565b005b6106596004803603810190610654919061449d565b611375565b6040516106669190613cc8565b60405180910390f35b6106776113f6565b604051610684919061428b565b60405180910390f35b6106a760048036038101906106a2919061416f565b61141a565b6040516106b996959493929190614532565b60405180910390f35b6106dc60048036038101906106d7919061416f565b61152b565b005b6106e66116b6565b005b6106f061171f565b6040516106fd919061428b565b60405180910390f35b610720600480360381019061071b919061416f565b611743565b60405161073498979695949392919061459a565b60405180910390f35b610745611840565b6040516107529190613ef1565b60405180910390f35b610763611880565b604051610770919061428b565b60405180910390f35b610793600480360381019061078e91906142cb565b6118a4565b6040516107a29392919061461f565b60405180910390f35b6107c560048036038101906107c09190614664565b6119de565b6040516107d29190613ef1565b60405180910390f35b6107f560048036038101906107f09190614664565b611a26565b604051610806959493929190614708565b60405180910390f35b61082960048036038101906108249190614664565b611c26565b005b6108456004803603810190610840919061400b565b611e0a565b005b610861600480360381019061085c9190614664565b61204b565b60405161087093929190614769565b60405180910390f35b610893600480360381019061088e9190614664565b612082565b6040516108a09190613ef1565b60405180910390f35b6108c360048036038101906108be91906143ca565b6120ce565b6040516108d09190613cc8565b60405180910390f35b6108e1612139565b6040516108ee9190613f8b565b60405180910390f35b610911600480360381019061090c919061400b565b6121cb565b005b61091b6122e5565b604051610928919061428b565b60405180910390f35b61094b6004803603810190610946919061400b565b6122ec565b6040516109589190613cc8565b60405180910390f35b61096961230f565b6040516109769190613ef1565b60405180910390f35b610987612337565b6040516109949190613ef1565b60405180910390f35b6109b760048036038101906109b2919061416f565b61233c565b005b6109c161263b565b6040516109ce9190613ef1565b60405180910390f35b6109f160048036038101906109ec9190614664565b612640565b6040516109fe9190613cc8565b60405180910390f35b610a216004803603810190610a1c9190614664565b612660565b005b610a3d6004803603810190610a389190614664565b61294a565b604051610a4a91906147a0565b60405180910390f35b610a5b6129a3565b604051610a689190613ef1565b60405180910390f35b610a8b6004803603810190610a8691906143ca565b6129a9565b005b610a956129cb565b604051610aa29190613ef1565b60405180910390f35b610ac56004803603810190610ac091906147bb565b6129d1565b604051610ad29190613ef1565b60405180910390f35b610af56004803603810190610af0919061400b565b612a58565b005b610b116004803603810190610b0c9190614664565b612b2b565b604051610b1e9190613ef1565b60405180910390f35b610b2f612b43565b604051610b3c91906147a0565b60405180910390f35b610b5f6004803603810190610b5a9190614664565b612b53565b604051610b6c9190613cc8565b60405180910390f35b610b8f6004803603810190610b8a9190614441565b612b86565b005b60007f7965db0b000000000000000000000000000000000000000000000000000000007bffffffffffffffffffffffffffffffffffffffffffffffffffffffff1916827bffffffffffffffffffffffffffffffffffffffffffffffffffffffff19161480610c045750610c0382612c02565b5b9050919050565b60008060116000815480929190610c219061482a565b9190505590506000600f6000838152602001908152602001600020905081816000018190555086816001019081610c589190614a7e565b50338160020160006101000a81548173ffffffffffffffffffffffffffffffffffffffff021916908373ffffffffffffffffffffffffffffffffffffffff16021790555085816003018190555084816004018190555083816005018190555060018160070160006101000a81548160ff021916908315150217905550817f40fb05b814a900c99fa0a76d919dfdeaf3389540e4ca70f97ba40ca9a38f37978833604051610d06929190614b50565b60405180910390a28192505050949350505050565b606060038054610d2a906148a1565b80601f0160208091040260200160405190810160405280929190818152602001828054610d56906148a1565b8015610da35780601f10610d7857610100808354040283529160200191610da3565b820191906000526020600020905b815481529060010190602001808311610d8657829003601f168201915b5050505050905090565b600080610db8612c6c565b9050610dc5818585612c74565b600191505092915050565b600381565b600181565b60005b8251811015610e1857610e0a838281518110610dfc57610dfb614b80565b5b602002602001015183612c86565b508080600101915050610ddd565b505050565b6000600254905090565b7fc295d8a2f69016465f61012796a38346423f02058e9c426f8bc1d946bc8c8470610e5181612de2565b6000835111610e95576040517f08c379a0000000000000000000000000000000000000000000000000000000008152600401610e8c90614bfb565b60405180910390fd5b60008383604051602401610eaa929190614cd9565b6040516020818303038152906040527f15f42df4000000000000000000000000000000000000000000000000000000007bffffffffffffffffffffffffffffffffffffffffffffffffffffffff19166020820180517bffffffffffffffffffffffffffffffffffffffffffffffffffffffff83818316178352505050509050610f333082612df6565b5050505050565b60068181548110610f4a57600080fd5b906000526020600020016000915054906101000a900473ffffffffffffffffffffffffffffffffffffffff1681565b6729a2241af62c000081565b600080610f90612c6c565b9050610f9d858285612fe5565b610fa885858561307a565b60019150509392505050565b600060056000838152602001908152602001600020600101549050919050565b610fdc613bf3565b600c6000836004811115610ff357610ff2614691565b5b600481111561100557611004614691565b5b815260200190815260200160002060405180606001604052908160008201805461102e906148a1565b80601f016020809104026020016040519081016040528092919081815260200182805461105a906148a1565b80156110a75780601f1061107c576101008083540402835291602001916110a7565b820191906000526020600020905b81548152906001019060200180831161108a57829003601f168201915b505050505081526020016001820180546110c0906148a1565b80601f01602080910402602001604051908101604052809291908181526020018280546110ec906148a1565b80156111395780601f1061110e57610100808354040283529160200191611139565b820191906000526020600020905b81548152906001019060200180831161111c57829003601f168201915b505050505081526020016002820154815250509050919050565b61115c82610fb4565b61116581612de2565b61116f838361316e565b50505050565b60006012905090565b6b204fce5e3e2502611000000081565b60007fc295d8a2f69016465f61012796a38346423f02058e9c426f8bc1d946bc8c84706111ba81612de2565b60026064600a6b204fce5e3e250261100000006111d79190614d09565b6111e19190614d7a565b6111eb9190614d7a565b6111f3613260565b8585516112009190614d09565b61120a9190614dab565b111561124b576040517f08c379a000000000000000000000000000000000000000000000000000000000815260040161124290614e2b565b60405180910390fd5b60008484604051602401611260929190614e4b565b6040516020818303038152906040527fff4d7128000000000000000000000000000000000000000000000000000000007bffffffffffffffffffffffffffffffffffffffffffffffffffffffff19166020820180517bffffffffffffffffffffffffffffffffffffffffffffffffffffffff8381831617835250505050905060006112eb3083612df6565b90506001935050505092915050565b611302612c6c565b73ffffffffffffffffffffffffffffffffffffffff168173ffffffffffffffffffffffffffffffffffffffff1614611366576040517f6697b23200000000000000000000000000000000000000000000000000000000815260040160405180910390fd5b611370828261326a565b505050565b600081600481111561138a57611389614691565b5b600b60008573ffffffffffffffffffffffffffffffffffffffff1673ffffffffffffffffffffffffffffffffffffffff16815260200190815260200160002060020160009054906101000a900460ff1660048111156113ec576113eb614691565b5b1015905092915050565b7fc10c77be35aff266144ed64c26a1fa104bae2f284ae99ac4a34203454704a18581565b60096020528060005260406000206000915090508060000154908060010160009054906101000a900473ffffffffffffffffffffffffffffffffffffffff16908060020160009054906101000a900473ffffffffffffffffffffffffffffffffffffffff169080600301805461148f906148a1565b80601f01602080910402602001604051908101604052809291908181526020018280546114bb906148a1565b80156115085780601f106114dd57610100808354040283529160200191611508565b820191906000526020600020905b8154815290600101906020018083116114eb57829003601f168201915b5050505050908060040154908060050160009054906101000a900460ff16905086565b61153361335d565b6000600f600083815260200190815260200160002090508060070160009054906101000a900460ff1661159b576040517f08c379a000000000000000000000000000000000000000000000000000000000815260040161159290614ec7565b60405180910390fd5b806003015442101580156115b3575080600401544211155b6115f2576040517f08c379a00000000000000000000000000000000000000000000000000000000081526004016115e990614f33565b60405180910390fd5b806005015481600601541061163c576040517f08c379a000000000000000000000000000000000000000000000000000000000815260040161163390614f9f565b60405180910390fd5b8060060160008154809291906116519061482a565b919050555061165f336133a3565b611671336729a2241af62c0000612c86565b50817f1f74d05223b014a6b1d3023900443d2b2a4a803f39310427d60b87fc476dac03336040516116a291906141ab565b60405180910390a2506116b3613460565b50565b6000600b60003373ffffffffffffffffffffffffffffffffffffffff1673ffffffffffffffffffffffffffffffffffffffff168152602001908152602001600020905060006117043361346a565b9050600081111561171b576117193382612c86565b505b5050565b7fdf1425bae297c2f52b4f15d18a50b1fc8cb5b981a981b1d213ed3ff92681b64d81565b600f60205280600052604060002060009150905080600001549080600101805461176c906148a1565b80601f0160208091040260200160405190810160405280929190818152602001828054611798906148a1565b80156117e55780601f106117ba576101008083540402835291602001916117e5565b820191906000526020600020905b8154815290600101906020018083116117c857829003601f168201915b5050505050908060020160009054906101000a900473ffffffffffffffffffffffffffffffffffffffff16908060030154908060040154908060050154908060060154908060070160009054906101000a900460ff16905088565b606460056064600a6b204fce5e3e2502611000000061185f9190614d09565b6118699190614d7a565b6118739190614d09565b61187d9190614d7a565b81565b7fc295d8a2f69016465f61012796a38346423f02058e9c426f8bc1d946bc8c847081565b600c6020528060005260406000206000915090508060000180546118c7906148a1565b80601f01602080910402602001604051908101604052809291908181526020018280546118f3906148a1565b80156119405780601f1061191557610100808354040283529160200191611940565b820191906000526020600020905b81548152906001019060200180831161192357829003601f168201915b505050505090806001018054611955906148a1565b80601f0160208091040260200160405190810160405280929190818152602001828054611981906148a1565b80156119ce5780601f106119a3576101008083540402835291602001916119ce565b820191906000526020600020905b8154815290600101906020018083116119b157829003601f168201915b5050505050908060020154905083565b60008060008373ffffffffffffffffffffffffffffffffffffffff1673ffffffffffffffffffffffffffffffffffffffff168152602001908152602001600020549050919050565b60006060806000806000600b60008873ffffffffffffffffffffffffffffffffffffffff1673ffffffffffffffffffffffffffffffffffffffff168152602001908152602001600020905060008160020160009054906101000a900460ff1690506000600c6000836004811115611aa057611a9f614691565b5b6004811115611ab257611ab1614691565b5b8152602001908152602001600020604051806060016040529081600082018054611adb906148a1565b80601f0160208091040260200160405190810160405280929190818152602001828054611b07906148a1565b8015611b545780601f10611b2957610100808354040283529160200191611b54565b820191906000526020600020905b815481529060010190602001808311611b3757829003601f168201915b50505050508152602001600182018054611b6d906148a1565b80601f0160208091040260200160405190810160405280929190818152602001828054611b99906148a1565b8015611be65780601f10611bbb57610100808354040283529160200191611be6565b820191906000526020600020905b815481529060010190602001808311611bc957829003601f168201915b5050505050815260200160028201548152505090508181600001518260200151836040015186600001549750975097509750975050505091939590929450565b7fc10c77be35aff266144ed64c26a1fa104bae2f284ae99ac4a34203454704a185611c5081612de2565b600860008373ffffffffffffffffffffffffffffffffffffffff1673ffffffffffffffffffffffffffffffffffffffff16815260200190815260200160002060009054906101000a900460ff1615611cdd576040517f08c379a0000000000000000000000000000000000000000000000000000000008152600401611cd49061500b565b60405180910390fd5b611d077fc10c77be35aff266144ed64c26a1fa104bae2f284ae99ac4a34203454704a1858361316e565b506006829080600181540180825580915050600190039060005260206000200160009091909190916101000a81548173ffffffffffffffffffffffffffffffffffffffff021916908373ffffffffffffffffffffffffffffffffffffffff1602179055506001600860008473ffffffffffffffffffffffffffffffffffffffff1673ffffffffffffffffffffffffffffffffffffffff16815260200190815260200160002060006101000a81548160ff0219169083151502179055508173ffffffffffffffffffffffffffffffffffffffff167fe1cb5e1230cc02e62c60b81c1aa5ade512f3eac296edb28628b4cf344f47f93160405160405180910390a25050565b7fc295d8a2f69016465f61012796a38346423f02058e9c426f8bc1d946bc8c8470611e3481612de2565b606460056064600a6b204fce5e3e25026110000000611e539190614d09565b611e5d9190614d7a565b611e679190614d09565b611e719190614d7a565b821115611eb3576040517f08c379a0000000000000000000000000000000000000000000000000000000008152600401611eaa90615077565b60405180910390fd5b606460056064600a6b204fce5e3e25026110000000611ed29190614d09565b611edc9190614d7a565b611ee69190614d09565b611ef09190614d7a565b82600e54611efe9190614dab565b1115611f3f576040517f08c379a0000000000000000000000000000000000000000000000000000000008152600401611f3690615109565b60405180910390fd5b60008383604051602401611f54929190615129565b6040516020818303038152906040527f990dc9db000000000000000000000000000000000000000000000000000000007bffffffffffffffffffffffffffffffffffffffffffffffffffffffff19166020820180517bffffffffffffffffffffffffffffffffffffffffffffffffffffffff83818316178352505050509050611fdd3082612df6565b5082600e6000828254611ff09190614dab565b925050819055508373ffffffffffffffffffffffffffffffffffffffff167fe15b96646136ede2ea2abfc9baa96fbbab0c3d44e1750c3defc005a4492a691b8460405161203d9190613ef1565b60405180910390a250505050565b600b6020528060005260406000206000915090508060000154908060010154908060020160009054906101000a900460ff16905083565b6000600b60008373ffffffffffffffffffffffffffffffffffffffff1673ffffffffffffffffffffffffffffffffffffffff168152602001908152602001600020600001549050919050565b60006005600084815260200190815260200160002060000160008373ffffffffffffffffffffffffffffffffffffffff1673ffffffffffffffffffffffffffffffffffffffff16815260200190815260200160002060009054906101000a900460ff16905092915050565b606060048054612148906148a1565b80601f0160208091040260200160405190810160405280929190818152602001828054612174906148a1565b80156121c15780601f10612196576101008083540402835291602001916121c1565b820191906000526020600020905b8154815290600101906020018083116121a457829003601f168201915b5050505050905090565b6121f57fc295d8a2f69016465f61012796a38346423f02058e9c426f8bc1d946bc8c8470336120ce565b612234576040517f08c379a000000000000000000000000000000000000000000000000000000000815260040161222b9061519e565b60405180910390fd5b60008273ffffffffffffffffffffffffffffffffffffffff168260405161225a906151ef565b60006040518083038185875af1925050503d8060008114612297576040519150601f19603f3d011682016040523d82523d6000602084013e61229c565b606091505b50509050806122e0576040517f08c379a00000000000000000000000000000000000000000000000000000000081526004016122d790615250565b60405180910390fd5b505050565b6000801b81565b6000806122f7612c6c565b905061230481858561307a565b600191505092915050565b6064600a6b204fce5e3e2502611000000061232a9190614d09565b6123349190614d7a565b81565b600581565b7fdf1425bae297c2f52b4f15d18a50b1fc8cb5b981a981b1d213ed3ff92681b64d61236681612de2565b60006009600084815260200190815260200160002090508060050160009054906101000a900460ff16156123cf576040517f08c379a00000000000000000000000000000000000000000000000000000000081526004016123c6906152bc565b60405180910390fd5b8060060160003373ffffffffffffffffffffffffffffffffffffffff1673ffffffffffffffffffffffffffffffffffffffff16815260200190815260200160002060009054906101000a900460ff161561245e576040517f08c379a000000000000000000000000000000000000000000000000000000000815260040161245590615328565b60405180910390fd5b60018160060160003373ffffffffffffffffffffffffffffffffffffffff1673ffffffffffffffffffffffffffffffffffffffff16815260200190815260200160002060006101000a81548160ff0219169083151502179055508060040160008154809291906124cd9061482a565b9190505550827f5d4ccf5f92566d140246f4ae3b9cb35dc06fff109a7748602ad77f6260fd9a613360405161250291906141ab565b60405180910390a260038160040154106126365760008160020160009054906101000a900473ffffffffffffffffffffffffffffffffffffffff1673ffffffffffffffffffffffffffffffffffffffff168260030160405161256491906153e0565b6000604051808303816000865af19150503d80600081146125a1576040519150601f19603f3d011682016040523d82523d6000602084013e6125a6565b606091505b50509050806125ea576040517f08c379a00000000000000000000000000000000000000000000000000000000081526004016125e190615443565b60405180910390fd5b60018260050160006101000a81548160ff021916908315150217905550837f7770356c29230b95943aec59d47ead11eb426a728bf5b57f7fd8597f3c0e29ba60405160405180910390a2505b505050565b600a81565b60086020528060005260406000206000915054906101000a900460ff1681565b6000801b61266d81612de2565b600860008373ffffffffffffffffffffffffffffffffffffffff1673ffffffffffffffffffffffffffffffffffffffff16815260200190815260200160002060009054906101000a900460ff166126f9576040517f08c379a00000000000000000000000000000000000000000000000000000000081526004016126f0906154af565b60405180910390fd5b60005b60068054905081101561287f578273ffffffffffffffffffffffffffffffffffffffff166006828154811061273457612733614b80565b5b9060005260206000200160009054906101000a900473ffffffffffffffffffffffffffffffffffffffff1673ffffffffffffffffffffffffffffffffffffffff1603612872576006600160068054905061278e91906154cf565b8154811061279f5761279e614b80565b5b9060005260206000200160009054906101000a900473ffffffffffffffffffffffffffffffffffffffff16600682815481106127de576127dd614b80565b5b9060005260206000200160006101000a81548173ffffffffffffffffffffffffffffffffffffffff021916908373ffffffffffffffffffffffffffffffffffffffff160217905550600680548061283857612837615503565b5b6001900381819060005260206000200160006101000a81549073ffffffffffffffffffffffffffffffffffffffff0219169055905561287f565b80806001019150506126fc565b506000600860008473ffffffffffffffffffffffffffffffffffffffff1673ffffffffffffffffffffffffffffffffffffffff16815260200190815260200160002060006101000a81548160ff0219169083151502179055506129027fc10c77be35aff266144ed64c26a1fa104bae2f284ae99ac4a34203454704a1858361326a565b508173ffffffffffffffffffffffffffffffffffffffff167f55dba9d79522b91b615629d5f3b10c2fad2d258f1768614f4a52e937ada0d0ba60405160405180910390a25050565b6000600b60008373ffffffffffffffffffffffffffffffffffffffff1673ffffffffffffffffffffffffffffffffffffffff16815260200190815260200160002060020160009054906101000a900460ff169050919050565b600d5481565b6129b282610fb4565b6129bb81612de2565b6129c5838361326a565b50505050565b600e5481565b6000600160008473ffffffffffffffffffffffffffffffffffffffff1673ffffffffffffffffffffffffffffffffffffffff16815260200190815260200160002060008373ffffffffffffffffffffffffffffffffffffffff1673ffffffffffffffffffffffffffffffffffffffff16815260200190815260200160002054905092915050565b7fc295d8a2f69016465f61012796a38346423f02058e9c426f8bc1d946bc8c8470612a8281612de2565b60008211612ac5576040517f08c379a0000000000000000000000000000000000000000000000000000000008152600401612abc9061557e565b60405180910390fd5b612acf8383612c86565b5081601060008573ffffffffffffffffffffffffffffffffffffffff1673ffffffffffffffffffffffffffffffffffffffff1681526020019081526020016000206000828254612b1f9190614dab565b92505081905550505050565b60106020528060005260406000206000915090505481565b6000612b4e3361294a565b905090565b6000612b7f7fc10c77be35aff266144ed64c26a1fa104bae2f284ae99ac4a34203454704a185836120ce565b9050919050565b60005b8151811015612bc457612bb6828281518110612ba857612ba7614b80565b5b602002602001015184612c86565b508080600101915050612b89565b50817fb88d01f589e949ad7233aadbcfbadcca2b7f247555fa6423bc3d5d2563bd15638251604051612bf69190613ef1565b60405180910390a25050565b60007f01ffc9a7000000000000000000000000000000000000000000000000000000007bffffffffffffffffffffffffffffffffffffffffffffffffffffffff1916827bffffffffffffffffffffffffffffffffffffffffffffffffffffffff1916149050919050565b600033905090565b612c818383836001613669565b505050565b60006064600a6b204fce5e3e25026110000000612ca39190614d09565b612cad9190614d7a565b612cb5613260565b83612cc09190614dab565b1115612d01576040517f08c379a0000000000000000000000000000000000000000000000000000000008152600401612cf890615610565b60405180910390fd5b600073ffffffffffffffffffffffffffffffffffffffff168373ffffffffffffffffffffffffffffffffffffffff1603612d70576040517f08c379a0000000000000000000000000000000000000000000000000000000008152600401612d67906156a2565b60405180910390fd5b612d7a8383613840565b5081600d6000828254612d8d9190614dab565b92505081905550818373ffffffffffffffffffffffffffffffffffffffff167fffd50653ccb3020c797c5cba8c53bebb40e00eeb76593dedcf4a157b3ea6cb5160405160405180910390a36001905092915050565b612df381612dee612c6c565b6138fb565b50565b60007fdf1425bae297c2f52b4f15d18a50b1fc8cb5b981a981b1d213ed3ff92681b64d612e2281612de2565b7fc10c77be35aff266144ed64c26a1fa104bae2f284ae99ac4a34203454704a185612e4c81612de2565b600060076000815480929190612e619061482a565b9190505590506000600960008381526020019081526020016000209050818160000181905550338160010160006101000a81548173ffffffffffffffffffffffffffffffffffffffff021916908373ffffffffffffffffffffffffffffffffffffffff160217905550868160020160006101000a81548173ffffffffffffffffffffffffffffffffffffffff021916908373ffffffffffffffffffffffffffffffffffffffff16021790555085816003019081612f1e9190615708565b506001816004018190555060008160050160006101000a81548160ff02191690831515021790555060018160060160003373ffffffffffffffffffffffffffffffffffffffff1673ffffffffffffffffffffffffffffffffffffffff16815260200190815260200160002060006101000a81548160ff021916908315150217905550817fbcc43907be1d435f496e2233697a9a9fead2fb5639dac8459c53d7114829b8be33604051612fd091906141ab565b60405180910390a28194505050505092915050565b6000612ff184846129d1565b90507fffffffffffffffffffffffffffffffffffffffffffffffffffffffffffffffff8110156130745781811015613064578281836040517ffb8f41b200000000000000000000000000000000000000000000000000000000815260040161305b939291906157da565b60405180910390fd5b61307384848484036000613669565b5b50505050565b600073ffffffffffffffffffffffffffffffffffffffff168373ffffffffffffffffffffffffffffffffffffffff16036130ec5760006040517f96c6fd1e0000000000000000000000000000000000000000000000000000000081526004016130e391906141ab565b60405180910390fd5b600073ffffffffffffffffffffffffffffffffffffffff168273ffffffffffffffffffffffffffffffffffffffff160361315e5760006040517fec442f0500000000000000000000000000000000000000000000000000000000815260040161315591906141ab565b60405180910390fd5b61316983838361394c565b505050565b600061317a83836120ce565b6132555760016005600085815260200190815260200160002060000160008473ffffffffffffffffffffffffffffffffffffffff1673ffffffffffffffffffffffffffffffffffffffff16815260200190815260200160002060006101000a81548160ff0219169083151502179055506131f2612c6c565b73ffffffffffffffffffffffffffffffffffffffff168273ffffffffffffffffffffffffffffffffffffffff16847f2f8788117e7eff1d82e926ec794901d17c78024a50270940304540a733656f0d60405160405180910390a46001905061325a565b600090505b92915050565b6000600d54905090565b600061327683836120ce565b156133525760006005600085815260200190815260200160002060000160008473ffffffffffffffffffffffffffffffffffffffff1673ffffffffffffffffffffffffffffffffffffffff16815260200190815260200160002060006101000a81548160ff0219169083151502179055506132ef612c6c565b73ffffffffffffffffffffffffffffffffffffffff168273ffffffffffffffffffffffffffffffffffffffff16847ff6391f5c32d9c69d2a47ea670b442974b53935d1edc7fd64eb21e047a839171b60405160405180910390a460019050613357565b600090505b92915050565b6002600a5403613399576040517f3ee5aeb500000000000000000000000000000000000000000000000000000000815260040160405180910390fd5b6002600a81905550565b6000600b60008373ffffffffffffffffffffffffffffffffffffffff1673ffffffffffffffffffffffffffffffffffffffff16815260200190815260200160002090508060000160008154809291906133fb9061482a565b91905055506134098261346a565b508173ffffffffffffffffffffffffffffffffffffffff167ff18beef583f71b01f816b888b2fb4012abc44a95618cbc737287866909e7abd782600001546040516134549190613ef1565b60405180910390a25050565b6001600a81905550565b600080600b60008473ffffffffffffffffffffffffffffffffffffffff1673ffffffffffffffffffffffffffffffffffffffff168152602001908152602001600020905060008160020160009054906101000a900460ff1690506000600a8360000154106134db5760049050613522565b60058360000154106134f05760039050613521565b60038360000154106135055760029050613520565b600183600001541061351a576001905061351f565b600090505b5b5b5b81600481111561353557613534614691565b5b81600481111561354857613547614691565b5b1461366157808360020160006101000a81548160ff0219169083600481111561357457613573614691565b5b0217905550600c60008260048111156135905761358f614691565b5b60048111156135a2576135a1614691565b5b8152602001908152602001600020600201549350600085826040516020016135cb92919061588f565b604051602081830303815290604052805190602001209050600184600301600083815260200190815260200160002060006101000a81548160ff0219169083151502179055508573ffffffffffffffffffffffffffffffffffffffff167f285a0f2deff4dbdd3719bae595cb2c8b27a45f0814e4db2b1946ab8df9bc548b8360405161365791906147a0565b60405180910390a2505b505050919050565b600073ffffffffffffffffffffffffffffffffffffffff168473ffffffffffffffffffffffffffffffffffffffff16036136db5760006040517fe602df050000000000000000000000000000000000000000000000000000000081526004016136d291906141ab565b60405180910390fd5b600073ffffffffffffffffffffffffffffffffffffffff168373ffffffffffffffffffffffffffffffffffffffff160361374d5760006040517f94280d6200000000000000000000000000000000000000000000000000000000815260040161374491906141ab565b60405180910390fd5b81600160008673ffffffffffffffffffffffffffffffffffffffff1673ffffffffffffffffffffffffffffffffffffffff16815260200190815260200160002060008573ffffffffffffffffffffffffffffffffffffffff1673ffffffffffffffffffffffffffffffffffffffff16815260200190815260200160002081905550801561383a578273ffffffffffffffffffffffffffffffffffffffff168473ffffffffffffffffffffffffffffffffffffffff167f8c5be1e5ebec7d5bd14f71427d1e84f3dd0314c0f7b2291e5b200ac8c7c3b925846040516138319190613ef1565b60405180910390a35b50505050565b60006b204fce5e3e25026110000000613857610e1d565b836138629190614dab565b11156138a3576040517f08c379a000000000000000000000000000000000000000000000000000000000815260040161389a90615907565b60405180910390fd5b6138ad8383613b71565b818373ffffffffffffffffffffffffffffffffffffffff167fcda531bfd68624f13205c0a23cd4d5a7f09792cbb399603114f2b04aaa1bf5cf60405160405180910390a36001905092915050565b61390582826120ce565b6139485780826040517fe2517d3f00000000000000000000000000000000000000000000000000000000815260040161393f929190615927565b60405180910390fd5b5050565b600073ffffffffffffffffffffffffffffffffffffffff168373ffffffffffffffffffffffffffffffffffffffff160361399e5780600260008282546139929190614dab565b92505081905550613a71565b60008060008573ffffffffffffffffffffffffffffffffffffffff1673ffffffffffffffffffffffffffffffffffffffff16815260200190815260200160002054905081811015613a2a578381836040517fe450d38c000000000000000000000000000000000000000000000000000000008152600401613a21939291906157da565b60405180910390fd5b8181036000808673ffffffffffffffffffffffffffffffffffffffff1673ffffffffffffffffffffffffffffffffffffffff16815260200190815260200160002081905550505b600073ffffffffffffffffffffffffffffffffffffffff168273ffffffffffffffffffffffffffffffffffffffff1603613aba5780600260008282540392505081905550613b07565b806000808473ffffffffffffffffffffffffffffffffffffffff1673ffffffffffffffffffffffffffffffffffffffff168152602001908152602001600020600082825401925050819055505b8173ffffffffffffffffffffffffffffffffffffffff168373ffffffffffffffffffffffffffffffffffffffff167fddf252ad1be2c89b69c2b068fc378daa952ba7f163c4a11628f55a4df523b3ef83604051613b649190613ef1565b60405180910390a3505050565b600073ffffffffffffffffffffffffffffffffffffffff168273ffffffffffffffffffffffffffffffffffffffff1603613be35760006040517fec442f05000000000000000000000000000000000000000000000000000000008152600401613bda91906141ab565b60405180910390fd5b613bef6000838361394c565b5050565b60405180606001604052806060815260200160608152602001600081525090565b6000604051905090565b600080fd5b600080fd5b60007fffffffff0000000000000000000000000000000000000000000000000000000082169050919050565b613c5d81613c28565b8114613c6857600080fd5b50565b600081359050613c7a81613c54565b92915050565b600060208284031215613c9657613c95613c1e565b5b6000613ca484828501613c6b565b91505092915050565b60008115159050919050565b613cc281613cad565b82525050565b6000602082019050613cdd6000830184613cb9565b92915050565b600080fd5b600080fd5b6000601f19601f8301169050919050565b7f4e487b7100000000000000000000000000000000000000000000000000000000600052604160045260246000fd5b613d3682613ced565b810181811067ffffffffffffffff82111715613d5557613d54613cfe565b5b80604052505050565b6000613d68613c14565b9050613d748282613d2d565b919050565b600067ffffffffffffffff821115613d9457613d93613cfe565b5b613d9d82613ced565b9050602081019050919050565b82818337600083830152505050565b6000613dcc613dc784613d79565b613d5e565b905082815260208101848484011115613de857613de7613ce8565b5b613df3848285613daa565b509392505050565b600082601f830112613e1057613e0f613ce3565b5b8135613e20848260208601613db9565b91505092915050565b6000819050919050565b613e3c81613e29565b8114613e4757600080fd5b50565b600081359050613e5981613e33565b92915050565b60008060008060808587031215613e7957613e78613c1e565b5b600085013567ffffffffffffffff811115613e9757613e96613c23565b5b613ea387828801613dfb565b9450506020613eb487828801613e4a565b9350506040613ec587828801613e4a565b9250506060613ed687828801613e4a565b91505092959194509250565b613eeb81613e29565b82525050565b6000602082019050613f066000830184613ee2565b92915050565b600081519050919050565b600082825260208201905092915050565b60005b83811015613f46578082015181840152602081019050613f2b565b60008484015250505050565b6000613f5d82613f0c565b613f678185613f17565b9350613f77818560208601613f28565b613f8081613ced565b840191505092915050565b60006020820190508181036000830152613fa58184613f52565b905092915050565b600073ffffffffffffffffffffffffffffffffffffffff82169050919050565b6000613fd882613fad565b9050919050565b613fe881613fcd565b8114613ff357600080fd5b50565b60008135905061400581613fdf565b92915050565b6000806040838503121561402257614021613c1e565b5b600061403085828601613ff6565b925050602061404185828601613e4a565b9150509250929050565b600067ffffffffffffffff82111561406657614065613cfe565b5b602082029050602081019050919050565b600080fd5b600061408f61408a8461404b565b613d5e565b905080838252602082019050602084028301858111156140b2576140b1614077565b5b835b818110156140db57806140c78882613ff6565b8452602084019350506020810190506140b4565b5050509392505050565b600082601f8301126140fa576140f9613ce3565b5b813561410a84826020860161407c565b91505092915050565b6000806040838503121561412a57614129613c1e565b5b600083013567ffffffffffffffff81111561414857614147613c23565b5b614154858286016140e5565b925050602061416585828601613e4a565b9150509250929050565b60006020828403121561418557614184613c1e565b5b600061419384828501613e4a565b91505092915050565b6141a581613fcd565b82525050565b60006020820190506141c0600083018461419c565b92915050565b6000806000606084860312156141df576141de613c1e565b5b60006141ed86828701613ff6565b93505060206141fe86828701613ff6565b925050604061420f86828701613e4a565b9150509250925092565b6000819050919050565b61422c81614219565b811461423757600080fd5b50565b60008135905061424981614223565b92915050565b60006020828403121561426557614264613c1e565b5b60006142738482850161423a565b91505092915050565b61428581614219565b82525050565b60006020820190506142a0600083018461427c565b92915050565b600581106142b357600080fd5b50565b6000813590506142c5816142a6565b92915050565b6000602082840312156142e1576142e0613c1e565b5b60006142ef848285016142b6565b91505092915050565b600082825260208201905092915050565b600061431482613f0c565b61431e81856142f8565b935061432e818560208601613f28565b61433781613ced565b840191505092915050565b61434b81613e29565b82525050565b6000606083016000830151848203600086015261436e8282614309565b915050602083015184820360208601526143888282614309565b915050604083015161439d6040860182614342565b508091505092915050565b600060208201905081810360008301526143c28184614351565b905092915050565b600080604083850312156143e1576143e0613c1e565b5b60006143ef8582860161423a565b925050602061440085828601613ff6565b9150509250929050565b600060ff82169050919050565b6144208161440a565b82525050565b600060208201905061443b6000830184614417565b92915050565b6000806040838503121561445857614457613c1e565b5b600061446685828601613e4a565b925050602083013567ffffffffffffffff81111561448757614486613c23565b5b614493858286016140e5565b9150509250929050565b600080604083850312156144b4576144b3613c1e565b5b60006144c285828601613ff6565b92505060206144d3858286016142b6565b9150509250929050565b600081519050919050565b600082825260208201905092915050565b6000614504826144dd565b61450e81856144e8565b935061451e818560208601613f28565b61452781613ced565b840191505092915050565b600060c0820190506145476000830189613ee2565b614554602083018861419c565b614561604083018761419c565b818103606083015261457381866144f9565b90506145826080830185613ee2565b61458f60a0830184613cb9565b979650505050505050565b6000610100820190506145b0600083018b613ee2565b81810360208301526145c2818a613f52565b90506145d1604083018961419c565b6145de6060830188613ee2565b6145eb6080830187613ee2565b6145f860a0830186613ee2565b61460560c0830185613ee2565b61461260e0830184613cb9565b9998505050505050505050565b600060608201905081810360008301526146398186613f52565b9050818103602083015261464d8185613f52565b905061465c6040830184613ee2565b949350505050565b60006020828403121561467a57614679613c1e565b5b600061468884828501613ff6565b91505092915050565b7f4e487b7100000000000000000000000000000000000000000000000000000000600052602160045260246000fd5b600581106146d1576146d0614691565b5b50565b60008190506146e2826146c0565b919050565b60006146f2826146d4565b9050919050565b614702816146e7565b82525050565b600060a08201905061471d60008301886146f9565b818103602083015261472f8187613f52565b905081810360408301526147438186613f52565b90506147526060830185613ee2565b61475f6080830184613ee2565b9695505050505050565b600060608201905061477e6000830186613ee2565b61478b6020830185613ee2565b61479860408301846146f9565b949350505050565b60006020820190506147b560008301846146f9565b92915050565b600080604083850312156147d2576147d1613c1e565b5b60006147e085828601613ff6565b92505060206147f185828601613ff6565b9150509250929050565b7f4e487b7100000000000000000000000000000000000000000000000000000000600052601160045260246000fd5b600061483582613e29565b91507fffffffffffffffffffffffffffffffffffffffffffffffffffffffffffffffff8203614867576148666147fb565b5b600182019050919050565b7f4e487b7100000000000000000000000000000000000000000000000000000000600052602260045260246000fd5b600060028204905060018216806148b957607f821691505b6020821081036148cc576148cb614872565b5b50919050565b60008190508160005260206000209050919050565b60006020601f8301049050919050565b600082821b905092915050565b6000600883026149347fffffffffffffffffffffffffffffffffffffffffffffffffffffffffffffffff826148f7565b61493e86836148f7565b95508019841693508086168417925050509392505050565b6000819050919050565b600061497b61497661497184613e29565b614956565b613e29565b9050919050565b6000819050919050565b61499583614960565b6149a96149a182614982565b848454614904565b825550505050565b600090565b6149be6149b1565b6149c981848461498c565b505050565b5b818110156149ed576149e26000826149b6565b6001810190506149cf565b5050565b601f821115614a3257614a03816148d2565b614a0c846148e7565b81016020851015614a1b578190505b614a2f614a27856148e7565b8301826149ce565b50505b505050565b600082821c905092915050565b6000614a5560001984600802614a37565b1980831691505092915050565b6000614a6e8383614a44565b9150826002028217905092915050565b614a8782613f0c565b67ffffffffffffffff811115614aa057614a9f613cfe565b5b614aaa82546148a1565b614ab58282856149f1565b600060209050601f831160018114614ae85760008415614ad6578287015190505b614ae08582614a62565b865550614b48565b601f198416614af6866148d2565b60005b82811015614b1e57848901518255600182019150602085019450602081019050614af9565b86831015614b3b5784890151614b37601f891682614a44565b8355505b6001600288020188555050505b505050505050565b60006040820190508181036000830152614b6a8185613f52565b9050614b79602083018461419c565b9392505050565b7f4e487b7100000000000000000000000000000000000000000000000000000000600052603260045260246000fd5b7f4e6f20656c696769626c65206164647265737365730000000000000000000000600082015250565b6000614be5601583613f17565b9150614bf082614baf565b602082019050919050565b60006020820190508181036000830152614c1481614bd8565b9050919050565b600081519050919050565b600082825260208201905092915050565b6000819050602082019050919050565b614c5081613fcd565b82525050565b6000614c628383614c47565b60208301905092915050565b6000602082019050919050565b6000614c8682614c1b565b614c908185614c26565b9350614c9b83614c37565b8060005b83811015614ccc578151614cb38882614c56565b9750614cbe83614c6e565b925050600181019050614c9f565b5085935050505092915050565b60006040820190508181036000830152614cf38185614c7b565b9050614d026020830184613ee2565b9392505050565b6000614d1482613e29565b9150614d1f83613e29565b9250828202614d2d81613e29565b91508282048414831517614d4457614d436147fb565b5b5092915050565b7f4e487b7100000000000000000000000000000000000000000000000000000000600052601260045260246000fd5b6000614d8582613e29565b9150614d9083613e29565b925082614da057614d9f614d4b565b5b828204905092915050565b6000614db682613e29565b9150614dc183613e29565b9250828201905080821115614dd957614dd86147fb565b5b92915050565b7f436f6d6d756e6974793a20496e73756666696369656e7420746f6b656e730000600082015250565b6000614e15601e83613f17565b9150614e2082614ddf565b602082019050919050565b60006020820190508181036000830152614e4481614e08565b9050919050565b6000604082019050614e606000830185613ee2565b8181036020830152614e728184614c7b565b90509392505050565b7f4576656e74206973206e6f742061637469766500000000000000000000000000600082015250565b6000614eb1601383613f17565b9150614ebc82614e7b565b602082019050919050565b60006020820190508181036000830152614ee081614ea4565b9050919050565b7f4576656e74206e6f7420696e2070726f67726573730000000000000000000000600082015250565b6000614f1d601583613f17565b9150614f2882614ee7565b602082019050919050565b60006020820190508181036000830152614f4c81614f10565b9050919050565b7f4576656e742069732066756c6c00000000000000000000000000000000000000600082015250565b6000614f89600d83613f17565b9150614f9482614f53565b602082019050919050565b60006020820190508181036000830152614fb881614f7c565b9050919050565b7f416c726561647920696e20726576696577657220706f6f6c0000000000000000600082015250565b6000614ff5601883613f17565b915061500082614fbf565b602082019050919050565b6000602082019050818103600083015261502481614fe8565b9050919050565b7f45786365656473206d61782070726f6a6563742066756e64696e670000000000600082015250565b6000615061601b83613f17565b915061506c8261502b565b602082019050919050565b6000602082019050818103600083015261509081615054565b9050919050565b7f496e73756666696369656e7420636f6d6d756e6974792070726f6a656374206660008201527f756e647300000000000000000000000000000000000000000000000000000000602082015250565b60006150f3602483613f17565b91506150fe82615097565b604082019050919050565b60006020820190508181036000830152615122816150e6565b9050919050565b600060408201905061513e600083018561419c565b61514b6020830184613ee2565b9392505050565b7f4e6f7420617574686f72697a6564000000000000000000000000000000000000600082015250565b6000615188600e83613f17565b915061519382615152565b602082019050919050565b600060208201905081810360008301526151b78161517b565b9050919050565b600081905092915050565b50565b60006151d96000836151be565b91506151e4826151c9565b600082019050919050565b60006151fa826151cc565b9150819050919050565b7f5472616e73666572206661696c65640000000000000000000000000000000000600082015250565b600061523a600f83613f17565b915061524582615204565b602082019050919050565b600060208201905081810360008301526152698161522d565b9050919050565b7f50726f706f73616c20616c726561647920657865637574656400000000000000600082015250565b60006152a6601983613f17565b91506152b182615270565b602082019050919050565b600060208201905081810360008301526152d581615299565b9050919050565b7f416c726561647920617070726f76656400000000000000000000000000000000600082015250565b6000615312601083613f17565b915061531d826152dc565b602082019050919050565b6000602082019050818103600083015261534181615305565b9050919050565b60008190508160005260206000209050919050565b6000815461536a816148a1565b61537481866151be565b9450600182166000811461538f57600181146153a4576153d7565b60ff19831686528115158202860193506153d7565b6153ad85615348565b60005b838110156153cf578154818901526001820191506020810190506153b0565b838801955050505b50505092915050565b60006153ec828461535d565b915081905092915050565b7f50726f706f73616c20657865637574696f6e206661696c656400000000000000600082015250565b600061542d601983613f17565b9150615438826153f7565b602082019050919050565b6000602082019050818103600083015261545c81615420565b9050919050565b7f4e6f7420696e20726576696577657220706f6f6c000000000000000000000000600082015250565b6000615499601483613f17565b91506154a482615463565b602082019050919050565b600060208201905081810360008301526154c88161548c565b9050919050565b60006154da82613e29565b91506154e583613e29565b92508282039050818111156154fd576154fc6147fb565b5b92915050565b7f4e487b7100000000000000000000000000000000000000000000000000000000600052603160045260246000fd5b7f496e76616c69642072657761726420616d6f756e740000000000000000000000600082015250565b6000615568601583613f17565b915061557382615532565b602082019050919050565b600060208201905081810360008301526155978161555b565b9050919050565b7f436f6d6d756e6974793a204d696e74696e67206c696d6974206578636565646560008201527f6400000000000000000000000000000000000000000000000000000000000000602082015250565b60006155fa602183613f17565b91506156058261559e565b604082019050919050565b60006020820190508181036000830152615629816155ed565b9050919050565b7f436f6d6d756e6974793a2043616e6e6f74206d696e7420746f207a65726f206160008201527f6464726573730000000000000000000000000000000000000000000000000000602082015250565b600061568c602683613f17565b915061569782615630565b604082019050919050565b600060208201905081810360008301526156bb8161567f565b9050919050565b601f821115615703576156d481615348565b6156dd846148e7565b810160208510156156ec578190505b6157006156f8856148e7565b8301826149ce565b50505b505050565b615711826144dd565b67ffffffffffffffff81111561572a57615729613cfe565b5b61573482546148a1565b61573f8282856156c2565b600060209050601f8311600181146157725760008415615760578287015190505b61576a8582614a62565b8655506157d2565b601f19841661578086615348565b60005b828110156157a857848901518255600182019150602085019450602081019050615783565b868310156157c557848901516157c1601f891682614a44565b8355505b6001600288020188555050505b505050505050565b60006060820190506157ef600083018661419c565b6157fc6020830185613ee2565b6158096040830184613ee2565b949350505050565b60008160601b9050919050565b600061582982615811565b9050919050565b600061583b8261581e565b9050919050565b61585361584e82613fcd565b615830565b82525050565b60008160f81b9050919050565b600061587182615859565b9050919050565b615889615884826146e7565b615866565b82525050565b600061589b8285615842565b6014820191506158ab8284615878565b6001820191508190509392505050565b7f4c696d6974204578636565646564210000000000000000000000000000000000600082015250565b60006158f1600f83613f17565b91506158fc826158bb565b602082019050919050565b60006020820190508181036000830152615920816158e4565b9050919050565b600060408201905061593c600083018561419c565b615949602083018461427c565b939250505056fea2646970667358221220ac09be897408d6aa7b44c4b71fd81c6cec86e0bd5201863f020f7cba7d782acd64736f6c634300081b0033",
  "linkReferences": {},
  "deployedLinkReferences": {}
}