{
  "_format": "hh-sol-artifact-1",
  "contractName": "Ecosystem2Facet",
  "sourceName": "contracts/Ecosystem2Facet.sol",
  "abi": [
    {
      "inputs": [],
      "name": "AccessControlBadConfirmation",
      "type": "error"
    },
    {
      "inputs": [
        {
          "internalType": "address",
          "name": "account",
          "type": "address"
        },
        {
          "internalType": "bytes32",
          "name": "neededRole",
          "type": "bytes32"
        }
      ],
      "name": "AccessControlUnauthorizedAccount",
      "type": "error"
    },
    {
      "inputs": [],
      "name": "ReentrancyGuardReentrantCall",
      "type": "error"
    },
    {
      "anonymous": false,
      "inputs": [
        {
          "indexed": true,
          "internalType": "uint256",
          "name": "_courseId",
          "type": "uint256"
        },
        {
          "indexed": true,
          "internalType": "uint256",
          "name": "_chaterId",
          "type": "uint256"
        }
      ],
      "name": "ChapterDeletedSuccess",
      "type": "event"
    },
    {
      "anonymous": false,
      "inputs": [
        {
          "indexed": true,
          "internalType": "uint256",
          "name": "_courseId",
          "type": "uint256"
        },
        {
          "indexed": true,
          "internalType": "uint256",
          "name": "_chapterId",
          "type": "uint256"
        },
        {
          "indexed": false,
          "internalType": "string",
          "name": "_chapterName",
          "type": "string"
        }
      ],
      "name": "ChapterEdited",
      "type": "event"
    },
    {
      "anonymous": false,
      "inputs": [
        {
          "indexed": true,
          "internalType": "uint256",
          "name": "_courseId",
          "type": "uint256"
        },
        {
          "indexed": true,
          "internalType": "uint256",
          "name": "numberOfChapters",
          "type": "uint256"
        }
      ],
      "name": "ChaptersAddedSuccessfully",
      "type": "event"
    },
    {
      "anonymous": false,
      "inputs": [
        {
          "indexed": false,
          "internalType": "uint256",
          "name": "questionId",
          "type": "uint256"
        },
        {
          "indexed": false,
          "internalType": "uint256",
          "name": "choiceId",
          "type": "uint256"
        },
        {
          "indexed": false,
          "internalType": "string",
          "name": "option",
          "type": "string"
        }
      ],
      "name": "ChoiceAdded",
      "type": "event"
    },
    {
      "anonymous": false,
      "inputs": [
        {
          "indexed": true,
          "internalType": "address",
          "name": "_to",
          "type": "address"
        },
        {
          "indexed": true,
          "internalType": "uint256",
          "name": "_amount",
          "type": "uint256"
        }
      ],
      "name": "EcosystemPoolUpdate",
      "type": "event"
    },
    {
      "anonymous": false,
      "inputs": [
        {
          "indexed": true,
          "internalType": "uint256",
          "name": "_courseId",
          "type": "uint256"
        },
        {
          "indexed": true,
          "internalType": "address",
          "name": "_by",
          "type": "address"
        }
      ],
      "name": "EnrollmentSuccess",
      "type": "event"
    },
    {
      "anonymous": false,
      "inputs": [
        {
          "indexed": true,
          "internalType": "uint256",
          "name": "_lessonId",
          "type": "uint256"
        },
        {
          "indexed": true,
          "internalType": "string",
          "name": "_lessonName",
          "type": "string"
        },
        {
          "indexed": true,
          "internalType": "uint256",
          "name": "_additonalResources",
          "type": "uint256"
        }
      ],
      "name": "LessonCreationSuccess",
      "type": "event"
    },
    {
      "anonymous": false,
      "inputs": [
        {
          "indexed": true,
          "internalType": "uint256",
          "name": "_chapterId",
          "type": "uint256"
        },
        {
          "indexed": true,
          "internalType": "uint256",
          "name": "_lessonId",
          "type": "uint256"
        }
      ],
      "name": "LessonDeleted",
      "type": "event"
    },
    {
      "anonymous": false,
      "inputs": [
        {
          "indexed": true,
          "internalType": "uint256",
          "name": "_lessonId",
          "type": "uint256"
        },
        {
          "indexed": false,
          "internalType": "string",
          "name": "_lessonName",
          "type": "string"
        }
      ],
      "name": "LessonEdited",
      "type": "event"
    },
    {
      "anonymous": false,
      "inputs": [
        {
          "indexed": true,
          "internalType": "uint256",
          "name": "_chapterId",
          "type": "uint256"
        },
        {
          "indexed": true,
          "internalType": "uint256",
          "name": "_lessonId",
          "type": "uint256"
        },
        {
          "indexed": false,
          "internalType": "address",
          "name": "learner",
          "type": "address"
        }
      ],
      "name": "LessonMarkedAsRead",
      "type": "event"
    },
    {
      "anonymous": false,
      "inputs": [
        {
          "indexed": false,
          "internalType": "uint256",
          "name": "quizId",
          "type": "uint256"
        },
        {
          "indexed": false,
          "internalType": "uint256",
          "name": "questionId",
          "type": "uint256"
        },
        {
          "indexed": false,
          "internalType": "string",
          "name": "questionText",
          "type": "string"
        }
      ],
      "name": "QuestionAdded",
      "type": "event"
    },
    {
      "anonymous": false,
      "inputs": [
        {
          "indexed": true,
          "internalType": "uint256",
          "name": "_quizId",
          "type": "uint256"
        },
        {
          "indexed": true,
          "internalType": "uint256",
          "name": "_questionId",
          "type": "uint256"
        }
      ],
      "name": "QuestionDeleted",
      "type": "event"
    },
    {
      "anonymous": false,
      "inputs": [
        {
          "indexed": true,
          "internalType": "uint256",
          "name": "_quizId",
          "type": "uint256"
        },
        {
          "indexed": true,
          "internalType": "string",
          "name": "_title",
          "type": "string"
        }
      ],
      "name": "QuizCreatedSuccess",
      "type": "event"
    },
    {
      "anonymous": false,
      "inputs": [
        {
          "indexed": true,
          "internalType": "uint256",
          "name": "_lessonId",
          "type": "uint256"
        },
        {
          "indexed": true,
          "internalType": "uint256",
          "name": "_quizId",
          "type": "uint256"
        }
      ],
      "name": "QuizDeleted",
      "type": "event"
    },
    {
      "anonymous": false,
      "inputs": [
        {
          "indexed": true,
          "internalType": "uint256",
          "name": "_lessonId",
          "type": "uint256"
        },
        {
          "indexed": true,
          "internalType": "uint256",
          "name": "_quizId",
          "type": "uint256"
        },
        {
          "indexed": false,
          "internalType": "string",
          "name": "_quizTitle",
          "type": "string"
        }
      ],
      "name": "QuizEdited",
      "type": "event"
    },
    {
      "anonymous": false,
      "inputs": [
        {
          "indexed": true,
          "internalType": "uint256",
          "name": "_quizId",
          "type": "uint256"
        },
        {
          "indexed": true,
          "internalType": "address",
          "name": "_user",
          "type": "address"
        }
      ],
      "name": "QuizLocked",
      "type": "event"
    },
    {
      "anonymous": false,
      "inputs": [
        {
          "indexed": true,
          "internalType": "address",
          "name": "learner",
          "type": "address"
        },
        {
          "indexed": false,
          "internalType": "uint256",
          "name": "quizId",
          "type": "uint256"
        },
        {
          "indexed": false,
          "internalType": "uint256",
          "name": "score",
          "type": "uint256"
        }
      ],
      "name": "QuizSubmitted",
      "type": "event"
    },
    {
      "anonymous": false,
      "inputs": [
        {
          "indexed": true,
          "internalType": "uint256",
          "name": "_lessonId",
          "type": "uint256"
        },
        {
          "indexed": true,
          "internalType": "uint256",
          "name": "resourceCount",
          "type": "uint256"
        }
      ],
      "name": "ResourceAddSuccess",
      "type": "event"
    },
    {
      "anonymous": false,
      "inputs": [
        {
          "indexed": true,
          "internalType": "bytes32",
          "name": "role",
          "type": "bytes32"
        },
        {
          "indexed": true,
          "internalType": "bytes32",
          "name": "previousAdminRole",
          "type": "bytes32"
        },
        {
          "indexed": true,
          "internalType": "bytes32",
          "name": "newAdminRole",
          "type": "bytes32"
        }
      ],
      "name": "RoleAdminChanged",
      "type": "event"
    },
    {
      "anonymous": false,
      "inputs": [
        {
          "indexed": true,
          "internalType": "bytes32",
          "name": "role",
          "type": "bytes32"
        },
        {
          "indexed": true,
          "internalType": "address",
          "name": "account",
          "type": "address"
        },
        {
          "indexed": true,
          "internalType": "address",
          "name": "sender",
          "type": "address"
        }
      ],
      "name": "RoleGranted",
      "type": "event"
    },
    {
      "anonymous": false,
      "inputs": [
        {
          "indexed": true,
          "internalType": "bytes32",
          "name": "role",
          "type": "bytes32"
        },
        {
          "indexed": true,
          "internalType": "address",
          "name": "account",
          "type": "address"
        },
        {
          "indexed": true,
          "internalType": "address",
          "name": "sender",
          "type": "address"
        }
      ],
      "name": "RoleRevoked",
      "type": "event"
    },
    {
      "anonymous": false,
      "inputs": [
        {
          "indexed": true,
          "internalType": "uint256",
          "name": "_courseId",
          "type": "uint256"
        },
        {
          "indexed": true,
          "internalType": "address",
          "name": "_by",
          "type": "address"
        }
      ],
      "name": "unEnrollmentSuccess",
      "type": "event"
    },
    {
      "inputs": [],
      "name": "DEFAULT_ADMIN_ROLE",
      "outputs": [
        {
          "internalType": "bytes32",
          "name": "",
          "type": "bytes32"
        }
      ],
      "stateMutability": "view",
      "type": "function"
    },
    {
      "inputs": [
        {
          "internalType": "uint256",
          "name": "_courseId",
          "type": "uint256"
        },
        {
          "internalType": "string[]",
          "name": "_chapters",
          "type": "string[]"
        },
        {
          "internalType": "uint256[]",
          "name": "_durations",
          "type": "uint256[]"
        }
      ],
      "name": "addChapters",
      "outputs": [
        {
          "internalType": "bool",
          "name": "",
          "type": "bool"
        }
      ],
      "stateMutability": "nonpayable",
      "type": "function"
    },
    {
      "inputs": [
        {
          "internalType": "uint256",
          "name": "_chapterId",
          "type": "uint256"
        },
        {
          "internalType": "string",
          "name": "_lessonName",
          "type": "string"
        },
        {
          "internalType": "string",
          "name": "_lessonContent",
          "type": "string"
        }
      ],
      "name": "addLesson",
      "outputs": [],
      "stateMutability": "nonpayable",
      "type": "function"
    },
    {
      "inputs": [
        {
          "internalType": "uint256",
          "name": "_lessonId",
          "type": "uint256"
        },
        {
          "internalType": "enum LibDiamond.ContentType",
          "name": "",
          "type": "uint8"
        },
        {
          "components": [
            {
              "internalType": "enum LibDiamond.ContentType",
              "name": "contentType",
              "type": "uint8"
            },
            {
              "internalType": "string",
              "name": "url",
              "type": "string"
            },
            {
              "internalType": "string",
              "name": "name",
              "type": "string"
            }
          ],
          "internalType": "struct LibDiamond.Resource[]",
          "name": "_resources",
          "type": "tuple[]"
        }
      ],
      "name": "addResourcesToLesson",
      "outputs": [],
      "stateMutability": "nonpayable",
      "type": "function"
    },
    {
      "inputs": [
        {
          "internalType": "uint256",
          "name": "_quizId",
          "type": "uint256"
        },
        {
          "internalType": "string",
          "name": "_questionText",
          "type": "string"
        },
        {
          "internalType": "string[]",
          "name": "_options",
          "type": "string[]"
        },
        {
          "internalType": "uint8",
          "name": "_correctChoiceIndex",
          "type": "uint8"
        }
      ],
      "name": "createQuestionWithChoices",
      "outputs": [],
      "stateMutability": "nonpayable",
      "type": "function"
    },
    {
      "inputs": [
        {
          "internalType": "uint256",
          "name": "_lessonId",
          "type": "uint256"
        },
        {
          "internalType": "string",
          "name": "_title",
          "type": "string"
        }
      ],
      "name": "createQuiz",
      "outputs": [
        {
          "internalType": "uint256",
          "name": "",
          "type": "uint256"
        }
      ],
      "stateMutability": "nonpayable",
      "type": "function"
    },
    {
      "inputs": [
        {
          "internalType": "uint256",
          "name": "_courseId",
          "type": "uint256"
        },
        {
          "internalType": "uint256",
          "name": "_chapterId",
          "type": "uint256"
        }
      ],
      "name": "deleteChapter",
      "outputs": [
        {
          "internalType": "bool",
          "name": "",
          "type": "bool"
        }
      ],
      "stateMutability": "nonpayable",
      "type": "function"
    },
    {
      "inputs": [
        {
          "internalType": "uint256",
          "name": "_chapterId",
          "type": "uint256"
        },
        {
          "internalType": "uint256",
          "name": "_lessonId",
          "type": "uint256"
        }
      ],
      "name": "deleteLesson",
      "outputs": [
        {
          "internalType": "bool",
          "name": "",
          "type": "bool"
        }
      ],
      "stateMutability": "nonpayable",
      "type": "function"
    },
    {
      "inputs": [
        {
          "internalType": "uint256",
          "name": "_quizId",
          "type": "uint256"
        },
        {
          "internalType": "uint256",
          "name": "_questionId",
          "type": "uint256"
        }
      ],
      "name": "deleteQuestion",
      "outputs": [
        {
          "internalType": "bool",
          "name": "",
          "type": "bool"
        }
      ],
      "stateMutability": "nonpayable",
      "type": "function"
    },
    {
      "inputs": [
        {
          "internalType": "uint256",
          "name": "_lessonId",
          "type": "uint256"
        },
        {
          "internalType": "uint256",
          "name": "_quizId",
          "type": "uint256"
        }
      ],
      "name": "deleteQuiz",
      "outputs": [
        {
          "internalType": "bool",
          "name": "",
          "type": "bool"
        }
      ],
      "stateMutability": "nonpayable",
      "type": "function"
    },
    {
      "inputs": [
        {
          "internalType": "uint256",
          "name": "_courseId",
          "type": "uint256"
        },
        {
          "internalType": "uint256",
          "name": "_chapterId",
          "type": "uint256"
        },
        {
          "internalType": "string",
          "name": "_chapterName",
          "type": "string"
        }
      ],
      "name": "editChapter",
      "outputs": [
        {
          "internalType": "bool",
          "name": "",
          "type": "bool"
        }
      ],
      "stateMutability": "nonpayable",
      "type": "function"
    },
    {
      "inputs": [
        {
          "internalType": "uint256",
          "name": "_lessonId",
          "type": "uint256"
        },
        {
          "internalType": "string",
          "name": "_lessonName",
          "type": "string"
        },
        {
          "internalType": "string",
          "name": "_lessonContent",
          "type": "string"
        },
        {
          "components": [
            {
              "internalType": "enum LibDiamond.ContentType",
              "name": "contentType",
              "type": "uint8"
            },
            {
              "internalType": "string",
              "name": "url",
              "type": "string"
            },
            {
              "internalType": "string",
              "name": "name",
              "type": "string"
            }
          ],
          "internalType": "struct LibDiamond.Resource[]",
          "name": "_additionalResources",
          "type": "tuple[]"
        }
      ],
      "name": "editLesson",
      "outputs": [
        {
          "internalType": "bool",
          "name": "",
          "type": "bool"
        }
      ],
      "stateMutability": "nonpayable",
      "type": "function"
    },
    {
      "inputs": [
        {
          "internalType": "uint256",
          "name": "_lessonId",
          "type": "uint256"
        },
        {
          "internalType": "uint256",
          "name": "_quizId",
          "type": "uint256"
        },
        {
          "internalType": "string",
          "name": "_quizTitle",
          "type": "string"
        }
      ],
      "name": "editQuiz",
      "outputs": [],
      "stateMutability": "nonpayable",
      "type": "function"
    },
    {
      "inputs": [
        {
          "internalType": "uint256",
          "name": "_courseId",
          "type": "uint256"
        }
      ],
      "name": "enroll",
      "outputs": [
        {
          "internalType": "bool",
          "name": "",
          "type": "bool"
        }
      ],
      "stateMutability": "nonpayable",
      "type": "function"
    },
    {
      "inputs": [],
      "name": "getAllChapters",
      "outputs": [
        {
          "components": [
            {
              "internalType": "uint256",
              "name": "courseId",
              "type": "uint256"
            },
            {
              "internalType": "uint256",
              "name": "chapterId",
              "type": "uint256"
            },
            {
              "internalType": "string",
              "name": "chapterName",
              "type": "string"
            },
            {
              "internalType": "uint256",
              "name": "duration",
              "type": "uint256"
            },
            {
              "internalType": "bool",
              "name": "exists",
              "type": "bool"
            }
          ],
          "internalType": "struct LibDiamond.Chapter[]",
          "name": "",
          "type": "tuple[]"
        }
      ],
      "stateMutability": "view",
      "type": "function"
    },
    {
      "inputs": [],
      "name": "getAllLessons",
      "outputs": [
        {
          "components": [
            {
              "internalType": "uint256",
              "name": "chapterId",
              "type": "uint256"
            },
            {
              "internalType": "uint256",
              "name": "lessonId",
              "type": "uint256"
            },
            {
              "internalType": "string",
              "name": "lessonName",
              "type": "string"
            },
            {
              "internalType": "string",
              "name": "lessonContent",
              "type": "string"
            },
            {
              "components": [
                {
                  "internalType": "enum LibDiamond.ContentType",
                  "name": "contentType",
                  "type": "uint8"
                },
                {
                  "internalType": "string",
                  "name": "url",
                  "type": "string"
                },
                {
                  "internalType": "string",
                  "name": "name",
                  "type": "string"
                }
              ],
              "internalType": "struct LibDiamond.Resource[10]",
              "name": "additionalResources",
              "type": "tuple[10]"
            },
            {
              "internalType": "uint256",
              "name": "resourceCount",
              "type": "uint256"
            },
            {
              "internalType": "bool",
              "name": "exists",
              "type": "bool"
            }
          ],
          "internalType": "struct LibDiamond.Lesson[]",
          "name": "",
          "type": "tuple[]"
        }
      ],
      "stateMutability": "view",
      "type": "function"
    },
    {
      "inputs": [],
      "name": "getAllQuizzes",
      "outputs": [
        {
          "components": [
            {
              "internalType": "uint256",
              "name": "lessonId",
              "type": "uint256"
            },
            {
              "internalType": "uint256",
              "name": "quizId",
              "type": "uint256"
            },
            {
              "internalType": "string",
              "name": "quizTitle",
              "type": "string"
            },
            {
              "components": [
                {
                  "internalType": "uint256",
                  "name": "quizId",
                  "type": "uint256"
                },
                {
                  "internalType": "uint256",
                  "name": "questionId",
                  "type": "uint256"
                },
                {
                  "internalType": "string",
                  "name": "questionText",
                  "type": "string"
                },
                {
                  "components": [
                    {
                      "internalType": "string",
                      "name": "option",
                      "type": "string"
                    },
                    {
                      "internalType": "bool",
                      "name": "isCorrect",
                      "type": "bool"
                    }
                  ],
                  "internalType": "struct LibDiamond.Choice[]",
                  "name": "choices",
                  "type": "tuple[]"
                }
              ],
              "internalType": "struct LibDiamond.Question[]",
              "name": "questions",
              "type": "tuple[]"
            },
            {
              "internalType": "bool",
              "name": "exists",
              "type": "bool"
            },
            {
              "internalType": "uint256",
              "name": "lockTime",
              "type": "uint256"
            }
          ],
          "internalType": "struct LibDiamond.Quiz[]",
          "name": "",
          "type": "tuple[]"
        }
      ],
      "stateMutability": "view",
      "type": "function"
    },
    {
      "inputs": [
        {
          "internalType": "uint256",
          "name": "_courseId",
          "type": "uint256"
        }
      ],
      "name": "getChapters",
      "outputs": [
        {
          "components": [
            {
              "internalType": "uint256",
              "name": "courseId",
              "type": "uint256"
            },
            {
              "internalType": "uint256",
              "name": "chapterId",
              "type": "uint256"
            },
            {
              "internalType": "string",
              "name": "chapterName",
              "type": "string"
            },
            {
              "internalType": "uint256",
              "name": "duration",
              "type": "uint256"
            },
            {
              "internalType": "bool",
              "name": "exists",
              "type": "bool"
            }
          ],
          "internalType": "struct LibDiamond.Chapter[]",
          "name": "",
          "type": "tuple[]"
        }
      ],
      "stateMutability": "view",
      "type": "function"
    },
    {
      "inputs": [
        {
          "internalType": "uint256",
          "name": "_quizId",
          "type": "uint256"
        }
      ],
      "name": "getQuestionsForQuiz",
      "outputs": [
        {
          "components": [
            {
              "internalType": "uint256",
              "name": "quizId",
              "type": "uint256"
            },
            {
              "internalType": "uint256",
              "name": "questionId",
              "type": "uint256"
            },
            {
              "internalType": "string",
              "name": "questionText",
              "type": "string"
            },
            {
              "components": [
                {
                  "internalType": "string",
                  "name": "option",
                  "type": "string"
                },
                {
                  "internalType": "bool",
                  "name": "isCorrect",
                  "type": "bool"
                }
              ],
              "internalType": "struct LibDiamond.Choice[]",
              "name": "choices",
              "type": "tuple[]"
            }
          ],
          "internalType": "struct LibDiamond.Question[]",
          "name": "",
          "type": "tuple[]"
        }
      ],
      "stateMutability": "view",
      "type": "function"
    },
    {
      "inputs": [
        {
          "internalType": "uint256",
          "name": "_quizId",
          "type": "uint256"
        }
      ],
      "name": "getQuiz",
      "outputs": [
        {
          "components": [
            {
              "internalType": "uint256",
              "name": "lessonId",
              "type": "uint256"
            },
            {
              "internalType": "uint256",
              "name": "quizId",
              "type": "uint256"
            },
            {
              "internalType": "string",
              "name": "quizTitle",
              "type": "string"
            },
            {
              "components": [
                {
                  "internalType": "uint256",
                  "name": "quizId",
                  "type": "uint256"
                },
                {
                  "internalType": "uint256",
                  "name": "questionId",
                  "type": "uint256"
                },
                {
                  "internalType": "string",
                  "name": "questionText",
                  "type": "string"
                },
                {
                  "components": [
                    {
                      "internalType": "string",
                      "name": "option",
                      "type": "string"
                    },
                    {
                      "internalType": "bool",
                      "name": "isCorrect",
                      "type": "bool"
                    }
                  ],
                  "internalType": "struct LibDiamond.Choice[]",
                  "name": "choices",
                  "type": "tuple[]"
                }
              ],
              "internalType": "struct LibDiamond.Question[]",
              "name": "questions",
              "type": "tuple[]"
            },
            {
              "internalType": "bool",
              "name": "exists",
              "type": "bool"
            },
            {
              "internalType": "uint256",
              "name": "lockTime",
              "type": "uint256"
            }
          ],
          "internalType": "struct LibDiamond.Quiz",
          "name": "",
          "type": "tuple"
        }
      ],
      "stateMutability": "view",
      "type": "function"
    },
    {
      "inputs": [
        {
          "internalType": "uint256",
          "name": "_quizId",
          "type": "uint256"
        },
        {
          "internalType": "address",
          "name": "_user",
          "type": "address"
        }
      ],
      "name": "getQuizLockTime",
      "outputs": [
        {
          "internalType": "uint256",
          "name": "",
          "type": "uint256"
        }
      ],
      "stateMutability": "view",
      "type": "function"
    },
    {
      "inputs": [
        {
          "internalType": "bytes32",
          "name": "role",
          "type": "bytes32"
        }
      ],
      "name": "getRoleAdmin",
      "outputs": [
        {
          "internalType": "bytes32",
          "name": "",
          "type": "bytes32"
        }
      ],
      "stateMutability": "view",
      "type": "function"
    },
    {
      "inputs": [
        {
          "internalType": "address",
          "name": "_user",
          "type": "address"
        },
        {
          "internalType": "uint256",
          "name": "_courseId",
          "type": "uint256"
        }
      ],
      "name": "getUserCompletedLessonsByCourse",
      "outputs": [
        {
          "internalType": "uint256[]",
          "name": "",
          "type": "uint256[]"
        }
      ],
      "stateMutability": "view",
      "type": "function"
    },
    {
      "inputs": [
        {
          "internalType": "address",
          "name": "_user",
          "type": "address"
        },
        {
          "internalType": "uint256",
          "name": "_courseId",
          "type": "uint256"
        }
      ],
      "name": "getUserCompletedQuizzesByCourse",
      "outputs": [
        {
          "internalType": "uint256[]",
          "name": "",
          "type": "uint256[]"
        }
      ],
      "stateMutability": "view",
      "type": "function"
    },
    {
      "inputs": [
        {
          "internalType": "address",
          "name": "_user",
          "type": "address"
        }
      ],
      "name": "getUserEnrolledCourses",
      "outputs": [
        {
          "internalType": "uint256[]",
          "name": "",
          "type": "uint256[]"
        }
      ],
      "stateMutability": "view",
      "type": "function"
    },
    {
      "inputs": [
        {
          "internalType": "bytes32",
          "name": "role",
          "type": "bytes32"
        },
        {
          "internalType": "address",
          "name": "account",
          "type": "address"
        }
      ],
      "name": "grantRole",
      "outputs": [],
      "stateMutability": "nonpayable",
      "type": "function"
    },
    {
      "inputs": [
        {
          "internalType": "bytes32",
          "name": "role",
          "type": "bytes32"
        },
        {
          "internalType": "address",
          "name": "account",
          "type": "address"
        }
      ],
      "name": "hasRole",
      "outputs": [
        {
          "internalType": "bool",
          "name": "",
          "type": "bool"
        }
      ],
      "stateMutability": "view",
      "type": "function"
    },
    {
      "inputs": [
        {
          "internalType": "uint256",
          "name": "_courseId",
          "type": "uint256"
        },
        {
          "internalType": "uint256",
          "name": "_quizId",
          "type": "uint256"
        }
      ],
      "name": "lockQuiz",
      "outputs": [],
      "stateMutability": "nonpayable",
      "type": "function"
    },
    {
      "inputs": [
        {
          "internalType": "uint256",
          "name": "_courseId",
          "type": "uint256"
        },
        {
          "internalType": "uint256",
          "name": "_chapterId",
          "type": "uint256"
        },
        {
          "internalType": "uint256",
          "name": "_lessonId",
          "type": "uint256"
        }
      ],
      "name": "markAsRead",
      "outputs": [
        {
          "internalType": "bool",
          "name": "",
          "type": "bool"
        }
      ],
      "stateMutability": "nonpayable",
      "type": "function"
    },
    {
      "inputs": [
        {
          "internalType": "uint256",
          "name": "_quizId",
          "type": "uint256"
        }
      ],
      "name": "quizExists",
      "outputs": [
        {
          "internalType": "bool",
          "name": "",
          "type": "bool"
        }
      ],
      "stateMutability": "view",
      "type": "function"
    },
    {
      "inputs": [
        {
          "internalType": "bytes32",
          "name": "role",
          "type": "bytes32"
        },
        {
          "internalType": "address",
          "name": "callerConfirmation",
          "type": "address"
        }
      ],
      "name": "renounceRole",
      "outputs": [],
      "stateMutability": "nonpayable",
      "type": "function"
    },
    {
      "inputs": [
        {
          "internalType": "bytes32",
          "name": "role",
          "type": "bytes32"
        },
        {
          "internalType": "address",
          "name": "account",
          "type": "address"
        }
      ],
      "name": "revokeRole",
      "outputs": [],
      "stateMutability": "nonpayable",
      "type": "function"
    },
    {
      "inputs": [
        {
          "internalType": "uint256",
          "name": "_courseId",
          "type": "uint256"
        },
        {
          "internalType": "uint256",
          "name": "_quizId",
          "type": "uint256"
        },
        {
          "internalType": "uint256[]",
          "name": "_answers",
          "type": "uint256[]"
        }
      ],
      "name": "submitQuiz",
      "outputs": [
        {
          "internalType": "uint256",
          "name": "score",
          "type": "uint256"
        }
      ],
      "stateMutability": "nonpayable",
      "type": "function"
    },
    {
      "inputs": [
        {
          "internalType": "bytes4",
          "name": "interfaceId",
          "type": "bytes4"
        }
      ],
      "name": "supportsInterface",
      "outputs": [
        {
          "internalType": "bool",
          "name": "",
          "type": "bool"
        }
      ],
      "stateMutability": "view",
      "type": "function"
    },
    {
      "inputs": [
        {
          "internalType": "uint256",
          "name": "_courseId",
          "type": "uint256"
        }
      ],
      "name": "unEnroll",
      "outputs": [
        {
          "internalType": "bool",
          "name": "",
          "type": "bool"
        }
      ],
      "stateMutability": "nonpayable",
      "type": "function"
    }
  ],
  "bytecode": "0x6080806040523461001b57600160005561541990816100218239f35b600080fdfe608080604052600436101561001357600080fd5b60003560e01c90816301ffc9a714613b83575080630526ba5514613a905780631b5cf46c14613a1357806320bd031614613735578063248a9ca31461370657806325c65a67146131e35780632f2ff15d146131a457806330a3549a14612ce357806334f9b3fb14612ae857806336568abe14612aa157806336c6915214612a085780634a474b9c1461299b578063632c224b146127345780636a4af0fa146125bc57806375b9d86914612204578063829ae6f41461219757806388a8270f14611fc957806391d1485414611f7c5780639bce575114611ea6578063a1051dfe14611cdb578063a217fddf14611cbf578063a296ea581461197e578063a3f7e096146118c2578063ac678a9314611821578063af529e5114611760578063b31a4af314611529578063b99a9030146114e8578063d036469414611365578063d214ba74146110e6578063d3751bfc14610b52578063d547741f14610b11578063e09bcae314610900578063e86397511461071f578063ea0978ad146104ff5763f57d585b146101a057600080fd5b346104fa576020806003193601126104fa576004356101bd6150a1565b8060005260008051602061534483398151915280835260ff60036040600020015416156104b557816000527f8c155b85251bd93c1fc2d59b5c65d36e3727b021d99d01ebea73246bff7e4a6190818452604060002033600052845260ff6040600020541661047d578260005280845261024360ff60056040600020015460a01c16614edd565b826000528352610273604060002061026961025d856141a2565b50916006339101615060565b6006339101615060565b81600052825260406000203360005282526040600020600160ff198254161790556102a6816102a13361413b565b6142af565b7f5d9ab6191fe9d5041816fb24ec4281e2d3989236339577e7fbbaf91315a1bb71805490671bc16d674ec800009182018083116103ba576b04d8c55aefb8c05b5c000000106104465760405163e67524a360e01b8152336004820152602481018390526060604482015260116064820152701158dbdcde5cdd195b4c881c995dd85c99607a1b6084820152848160a4816000305af190811561043a5760009161040d575b50156103d0578054908282018092116103ba5755337fad6ef58d5c294f81258965738e7ae511124139834a8d0b8f8f7327086c82052a600080a36040519033907f4bf249f6b0ca5630ea4816c04b928b864a2065cb51658fd6223d83b727fd326b600080a3600160005560018152f35b634e487b7160e01b600052601160045260246000fd5b60405162461bcd60e51b81526004810185905260156024820152744661696c656420746f206d696e7420746f6b656e7360581b6044820152606490fd5b61042d9150853d8711610433575b6104258183613cdb565b810190615174565b3861034a565b503d61041b565b6040513d6000823e3d90fd5b60405162461bcd60e51b815260048101859052600f60248201526e4c696d69742045786365656465642160881b6044820152606490fd5b60405162461bcd60e51b815260048101859052601060248201526f105b1c9958591e48195b9c9bdb1b195960821b6044820152606490fd5b60405162461bcd60e51b815260048101849052601860248201527f436f75727365206e6f742079657420617070726f7665642100000000000000006044820152606490fd5b600080fd5b346104fa5761050d36613bd6565b9061051661518c565b806000526020916000805160206153c4833981519152835260019061054382604060002001541515614e2d565b806000526000805160206153648339815191528085528260406000200154156106e557826000815b6105d5575b50508160005284526000600560408220828155828582015561059460028201614849565b6105a06003820161491b565b8260048201550155604051927f22a69f3183c2804ef4ff588b6321a6351c1863419286c584919ab8f923cbd5a4600080a38152f35b6000805160206153a48339815191525481116106e0578360005282875283826040600020015414610610575b61060a906142a0565b8161056b565b7f8c155b85251bd93c1fc2d59b5c65d36e3727b021d99d01ebea73246bff7e4a6b8054909250600019908181019081116103ba5761065061066091614717565b5061065a84614717565b90614b3a565b825480156106ca57019061067382614717565b9290926106b457869360006005858261060a9755828882015561069860028201614849565b6106a46003820161491b565b8260048201550155559050610601565b634e487b7160e01b600052600060045260246000fd5b634e487b7160e01b600052603160045260246000fd5b610570565b60405162461bcd60e51b8152600481018690526012602482015271145d5a5e88191bd95cdb89dd08195e1a5cdd60721b6044820152606490fd5b346104fa5761072d36613dd7565b9161073661518c565b8160005260008051602061538483398151915292602093808552600190600160406000200154156108bb578460005285526002604060002001908251906001600160401b0382116108a5576107958261078f85546142d4565b85614325565b8690601f83116001146108175750916107eb827f7714a2fe2221824dfd5cd15f7cc29e38ffefcf9b6ad62c216321afcde79cbcfb95936108009560009161080c575b508160011b916000199060031b1c19161790565b90555b60405191829187835287830190613e2c565b0390a360405160018152f35b90508401518a6107d7565b90601f1983168460005288600020926000905b8a83831061088d57505050926108009492600192827f7714a2fe2221824dfd5cd15f7cc29e38ffefcf9b6ad62c216321afcde79cbcfb989610610874575b5050811b0190556107ee565b85015160001960f88460031b161c191690558980610868565b8885015186559481019493840193919091019061082a565b634e487b7160e01b600052604160045260246000fd5b60405162461bcd60e51b815260048101879052601960248201527f4368617074657220646f65736e2774206e6f74206578697374000000000000006044820152606490fd5b346104fa5761090e36613bd6565b9061091761518c565b80600052602091600080516020615344833981519152835260406000205415610ad557806000526000805160206153848339815191529081845260019161096683604060002001541515614de9565b826000815b6109c9575b50508160005284526000600460408220828155828582015561099460028201614849565b8260038201550155604051927fab6d08543726a41eac26ac96d0b4591127baed3bfb915d2603ccb9fb2440c425600080a38152f35b6000805160206153a48339815191528054808311610ace578260005284895285846040600020015414610a08575b5050610a02906142a0565b8161096b565b909250600019908181019081116103ba57610a2290614d59565b50610a2c83614d59565b6106b457818103610a82575b5050825480156106ca570190610a4d82614d59565b9290926106b4578693600060048582610a0297558288820155610a7260028201614849565b82600382015501555590886109f7565b600460ff8184610ac7955485558b8101548c860155610aa76002808301908701614771565b6003808201549086015501541691019060ff801983541691151516179055565b8880610a38565b5050610970565b60405162461bcd60e51b815260048101849052601460248201527310dbdd5c9cd948191bd95cdb89dd08195e1a5cdd60621b6044820152606490fd5b346104fa5760403660031901126104fa57610b50600435610b30613c02565b90806000526001602052610b4b600160406000200154615206565b6152ac565b005b346104fa5760803660031901126104fa576024356001600160401b0381116104fa57610b82903690600401613db9565b6044356001600160401b0381116104fa57610ba1903690600401614041565b906064359160ff831683036104fa57600435600052600080516020615364833981519152602052610bdc60ff600460406000200154166140c0565b805180151590816110da575b501561109557805160ff84161015611050577f636d7913eb18e82fce1c8b9d3fc385ed328eaeac9ef5b2ce0d984f1c4878ec8a5490816000527f8c155b85251bd93c1fc2d59b5c65d36e3727b021d99d01ebea73246bff7e4a60602052604060002091600435835580600184015583516001600160401b0381116108a557610c8081610c7760028701546142d4565b60028701614325565b6020601f8211600114610fe4579080610cae92600091610fd957508160011b916000199060031b1c19161790565b60028401555b60005b825160ff82161015610e2757610cd060ff821684614270565b5160405190610cde82613cc0565b815260ff871660ff83161460208201526003850154600160401b8110156108a557806001610d159201600388015560038701614284565b9190916106b45780518051906001600160401b0382116108a557610d4382610d3d86546142d4565b86614325565b602090601f8311600114610db157610d9c93610d8284610da1989795600195602095600092610da6575b50508160011b916000199060031b1c19161790565b84555b0151151591019060ff801983541691151516179055565b615033565b610cb7565b015190508f80610d6d565b908460005260206000209160005b601f1985168110610e0f5750936001848194602094610d9c98610da19b9a98601f19811610610df6575b505050811b018455610d85565b015160001960f88460031b161c191690558e8080610de9565b91926020600181928685015181550194019201610dbf565b509183600435600052600080516020615364833981519152602052600360406000200190815491600160401b92838110156108a557610e7081610e769360018894018155614254565b90614d4a565b610ea07f636d7913eb18e82fce1c8b9d3fc385ed328eaeac9ef5b2ce0d984f1c4878ec8a546142a0565b7f636d7913eb18e82fce1c8b9d3fc385ed328eaeac9ef5b2ce0d984f1c4878ec8a557f8c155b85251bd93c1fc2d59b5c65d36e3727b021d99d01ebea73246bff7e4a6c918254908110156108a5577fa5bdacf4d1324fdd584bc65cf0315e4975d00b33a7ca0e6d0a73c88df8430b9593610e7082610f36956001610f26950190556141fc565b6040519182918660043584615044565b0390a16000917f636d7913eb18e82fce1c8b9d3fc385ed328eaeac9ef5b2ce0d984f1c4878ec8b8054935b835160ff821690811015610fc857907f06ef0ba2ad58c9f8eef2fc98c08fd18d801c4a971eeb45afd07f0fee3f9d60c482610fa9610fa2610fc3958a614e7c565b9188614270565b5190610fbb6040519283928984615044565b0390a1615033565b610f61565b82610fd587875190614e7c565b9055005b9050860151886107d7565b906002850160005260206000206000925b601f1983168410611038576001935082601f1981161061101f575b5050811b016002840155610cb4565b87015160001960f88460031b161c191690558780611010565b87810151825560209384019360019092019101610ff5565b60405162461bcd60e51b815260206004820152601c60248201527f496e76616c696420636f72726563742063686f69636520696e646578000000006044820152606490fd5b60405162461bcd60e51b815260206004820152601960248201527f496e76616c6964206e756d626572206f662063686f69636573000000000000006044820152606490fd5b60049150111584610be8565b346104fa576060806003193601126104fa576024906001600160401b039060043583358381116104fa5761111e903690600401614041565b926044359081116104fa57611137903690600401613d13565b92816000526020946000805160206153448339815191528652600561116d60018060a01b03600560406000200154161515614edd565b60005b8351811015611332577f636d7913eb18e82fce1c8b9d3fc385ed328eaeac9ef5b2ce0d984f1c4878ec8780546111a68387614270565b516111b1848b614270565b5190604051926111c084613c8a565b8984528c84015260408301528882015260018060808301526000805160206153a4833981519152908154600160401b928382101561131d57828201905561120690614d59565b611308578361121491614f22565b83546000526000805160206153848339815191528c52611238836040600020614f22565b886000527f8c155b85251bd93c1fc2d59b5c65d36e3727b021d99d01ebea73246bff7e4a5c8c526040600020908154928310156112f35782018082558210156112de5791611295916001959493600052868d600020910201614f22565b866000527f5d9ab6191fe9d5041816fb24ec4281e2d3989236339577e7fbbaf91315a1bb7a8a526112cc60406000208254906142af565b6112d681546142a0565b905501611170565b86634e487b7160e01b60005260326004526000fd5b87634e487b7160e01b60005260416004526000fd5b87634e487b7160e01b60005260006004526000fd5b88634e487b7160e01b60005260416004526000fd5b87858551604051917f1eb97e969f52c132bb6c79817d1f9001078fff0cd328ce625628e1fb4cc0e7de600080a360018152f35b346104fa5760603660031901126104fa57604435806000527f8c155b85251bd93c1fc2d59b5c65d36e3727b021d99d01ebea73246bff7e4a5890602091808352604060002033600052835260ff604060002054166114b257816000526000805160206153c483398151915283526113e660ff60236040600020015416614e2d565b81600052825260406000203360005282526040600020600160ff198254161790557f8c155b85251bd93c1fc2d59b5c65d36e3727b021d99d01ebea73246bff7e4a5982526114388160406000206142af565b3360009081527f8c155b85251bd93c1fc2d59b5c65d36e3727b021d99d01ebea73246bff7e4a5a60205260409020600435600052825261147c8160406000206142af565b6040513381527f2479aa0d18311382446edb0fa11d0dbd5bab1be78b1e60b343ffe4d2a5f798ad8360243592a360405160018152f35b60405162461bcd60e51b815260048101849052600e60248201526d105b1c9958591e481b585c9ad95960921b6044820152606490fd5b346104fa5760203660031901126104fa57600435600052600080516020615364833981519152602052602060ff600460406000200154166040519015158152f35b346104fa5760603660031901126104fa5760043560038060243510156104fa576044356001600160401b038082116104fa57366023830112156104fa5781600401359081116104fa576024820191602436918360051b0101116104fa57836000526020916000805160206153c483398151915260205260406000209360ff60238601541615611722576022850192835494600a6115c68388614e7c565b116116dd57929160009360048801915b83861061162e575050505050505560005b60008051602061532483398151915254811015610b505782600161160a83614bf6565b5001541461161a576001016115e7565b610b50925061162890614bf6565b90614cd3565b90919293949661163f888688614e89565b35828110156104fa576001916116cc6116d1926116b7898b6116ac8f6116828161167a8e61167161168c958989614e89565b90810190614eab565b969095614e89565b6040810190614eab565b9290936116a56040519761169f89613c54565b88614e70565b3691613d73565b8a8501523691613d73565b60408201526116c6838961436a565b90614396565b6142a0565b970194939291906115d6565b60405162461bcd60e51b815260206004820152601a60248201527f45786365656473206d6178696d756d207265736f7572636573210000000000006044820152606490fd5b60405162461bcd60e51b81526020600482015260166024820152754c6573736f6e20646f6573206e6f742065786973742160501b6044820152606490fd5b346104fa5760403660031901126104fa576117b561177c613bec565b6001600160a01b031660009081527f8c155b85251bd93c1fc2d59b5c65d36e3727b021d99d01ebea73246bff7e4a5a6020526040902090565b6024356000526020906020526040600020906040519081602084549182815201936000526020600020916000905b82821061180a57611806856117fa81890382613cdb565b60405191829182613c18565b0390f35b8354865294850194600193840193909101906117e3565b346104fa576020806003193601126104fa576004356000527f8c155b85251bd93c1fc2d59b5c65d36e3727b021d99d01ebea73246bff7e4a5c6020526040600020805461186d81613cfc565b9161187b6040519384613cdb565b81835260208301906000526020600020936000915b8383106118a557604051806118068782613fa8565b6005826001926118b489614da1565b815201960192019194611890565b346104fa576020806003193601126104fa576004356118df614bc4565b50806000526000805160206153648339815191529081835261190b60ff600460406000200154166140c0565b600052815260406000209060056040519261192584613c6f565b8054845260018101548385015261193e6002820161454b565b604085015261194f600382016145ee565b606085015260ff60048201541615156080850152015460a0830152611806604051928284938452830190613f53565b346104fa5760003660031901126104fa57600080516020615324833981519152546119a881613cfc565b906119b66040519283613cdb565b8082526119c281613cfc565b601f190160005b818110611c2257505060005b818110611b1f578260405160208101916020825280518093526040820192602060408260051b85010192019060005b818110611a115784840385f35b909192603f198582030186528351908151815260208201516020820152611a47604083015160e0604084015260e0830190613e2c565b91611a5e6060938483015184820386860152613e2c565b6080938483015194848303908501528190610140830195926000915b600a8310611aaf5750505060a08084015190850152505060c09081015115159101526020958601959093019190600101611a04565b9091929396828103855287518051916003831015611b0957611afc602092826001958594526040611aeb85840151898785015289840190613e2c565b920151906040818403910152613e2c565b9901950193019190611a7a565b634e487b7160e01b600052602160045260246000fd5b611b2881614bf6565b5060405190611b3682613ca5565b8054825260018101546020830152611b506002820161454b565b6040830152611b616003820161454b565b606083015260405161014081018181106001600160401b038211176108a557604052600060048301825b600a8310611bd3575050506080830152602281015460a08301526023015460ff16151560c082015260019190611bc18286614270565b52611bcc8185614270565b50016119d5565b60036020600192604051611be681613c54565b611bf460ff87541682614e70565b611bff85870161454b565b83820152611c0f6002870161454b565b6040820152815201920192019190611b8b565b604051611c2e81613ca5565b60008152600060208201526060806040830152808083015260405190610140908183018381106001600160401b038211176108a55760405260005b828110611c975750505090602092916080820152600060a0820152600060c0820152828287010152016119c9565b602090604051611ca681613c54565b6000815283838201528360408201528186015201611c69565b346104fa5760003660031901126104fa57602060405160008152f35b346104fa57611ce936613bd6565b90611cf261518c565b80600052602091600080516020615384833981519152602052600192611d2084604060002001541515614de9565b816000526000805160206153c48339815191529081602052611d4a85604060002001541515614e2d565b6000855b611dc9575b60208587868681600052845260006023604082208281558285820155611d7b60028201614849565b611d8760038201614849565b8260228201611d998160048501614c3e565b550155604051927f1cdc2ff39034471047dd6d36512a12b5c2e9a30137b2e45daecd05383221d97b600080a38152f35b6000805160206153a4833981519152548111611ea1579081869260005283825284836040600020015414611e08575b611e01906142a0565b9091611d4e565b6000805160206153248339815191528054909350600019908181019081116103ba57611e36611e4091614bf6565b5061162884614bf6565b835480156106ca570190611e5382614bf6565b9290926106b4578894600060238582611e0197558289820155611e7860028201614849565b611e8460038201614849565b8260228201611e968160048501614c3e565b550155559050611df8565b611d53565b346104fa5760003660031901126104fa576000805160206153a483398151915254611ed081613cfc565b90611ede6040519283613cdb565b808252601f19611eed82613cfc565b0160005b818110611f4357505060005b818110611f1257604051806118068582613fa8565b80611f27611f21600193614d59565b50614da1565b611f318286614270565b52611f3c8185614270565b5001611efd565b602090604051611f5281613c8a565b60008152826000818301526000606080604085015283015260006080830152828701015201611ef1565b346104fa5760403660031901126104fa57611f95613c02565b600435600052600160205260406000209060018060a01b0316600052602052602060ff604060002054166040519015158152f35b346104fa57611fd736613bd6565b90611fe061518c565b8060005260008051602061536483398151915260205260019161200b836040600020015415156140c0565b806000527f8c155b85251bd93c1fc2d59b5c65d36e3727b021d99d01ebea73246bff7e4a6080602052836040600020015415612152576000845b612090575b50906020939181600052845261206360406000206148fe565b604051927ff084fa19916f58d56801346cc04ca2d2c28a5531dc7db17ebd2323685518b126600080a38152f35b7f8c155b85251bd93c1fc2d59b5c65d36e3727b021d99d01ebea73246bff7e4a6c80548083101561214b5790829185886120ca81966141fc565b500154146120dd575b5050810190612045565b909250600019908181019081116103ba576120fa612104916141fc565b50610e70846141fc565b825480156106ca570190612117826141fc565b9290926106b4578793612143600385600088975560008782015561213d60028201614849565b01614892565b5590876120d3565b505061204a565b60405162461bcd60e51b815260206004820152601f60248201527f5175657374696f6e206e6f7420666f756e6420696e2074686973207175697a006044820152606490fd5b346104fa576020806003193601126104fa576121b96121b4613bec565b61413b565b906040519081602084549182815201936000526020600020916000905b8282106121ed57611806856117fa81890382613cdb565b8354865294850194600193840193909101906121d6565b346104fa5760603660031901126104fa576001600160401b036024358181116104fa57612235903690600401613db9565b906044358181116104fa5761224e903690600401613db9565b7f636d7913eb18e82fce1c8b9d3fc385ed328eaeac9ef5b2ce0d984f1c4878ec88549160043560005260008051602061538483398151915260205260ff600460406000200154161561257757826000526000805160206153c483398151915260205260406000209160043583558360018401556002830185518381116108a5576122e2816122dc84546142d4565b84614325565b6020601f82116001146125105790806123109260009161250557508160011b916000199060031b1c19161790565b90555b80519182116108a5576123368261232d60038601546142d4565b60038601614325565b602090601f831160011461249157826022936000959361236b9387926124865750508160011b916000199060031b1c19161790565b60038201555b60238101600160ff198254161790550155806000526000805160206153c4833981519152602052604060002091600080516020615324833981519152908154600160401b8110156108a557600a946116288261245e9560016123d595019055614bf6565b6004356000527f5d9ab6191fe9d5041816fb24ec4281e2d3989236339577e7fbbaf91315a1bb7b60205261240d8360406000206142af565b6124377f636d7913eb18e82fce1c8b9d3fc385ed328eaeac9ef5b2ce0d984f1c4878ec88546142a0565b7f636d7913eb18e82fce1c8b9d3fc385ed328eaeac9ef5b2ce0d984f1c4878ec8855614ba4565b907f3387c3a40ec1df95e34d25a0e5564b40d01c331b71ccbafccccc66d36c84ad83600080a4005b015190508880610d6d565b906003840160005260206000209160005b601f19851681106124ed5750926000949260019260229583601f198116106124d5575b505050811b016003820155612371565b0151861960f88460031b161c191690558780806124c5565b919260206001819286850151815501940192016124a2565b9050880151896107d7565b601f198216908360005260206000209160005b8a82821061255f5750509083600194939210612546575b5050811b019055612313565b89015160001960f88460031b161c19169055888061253a565b60018495602093958493015181550194019201612523565b60405162461bcd60e51b815260206004820152601760248201527f4368617074657220646f6573206e6f74206578697374210000000000000000006044820152606490fd5b346104fa5760003660031901126104fa577f636d7913eb18e82fce1c8b9d3fc385ed328eaeac9ef5b2ce0d984f1c4878ec89546125f881613cfc565b6126056040519182613cdb565b81815261261182613cfc565b60209290601f19018360005b82811061271e5750505060005b8181106126925750506040519082820192808352815180945260408301938160408260051b8601019301916000955b8287106126665785850386f35b909192938280612682600193603f198a82030186528851613f53565b9601920196019592919092612659565b80600191600052600080516020615364833981519152855260406000206005604051916126be83613c6f565b8054835284810154888401526126d66002820161454b565b60408401526126e7600382016145ee565b606084015260ff60048201541615156080840152015460a082015261270c8286614270565b526127178185614270565b500161262a565b612726614bc4565b82828701015201849061261d565b346104fa5760403660031901126104fa576001600160401b036004356024358281116104fa57612768903690600401613db9565b917f636d7913eb18e82fce1c8b9d3fc385ed328eaeac9ef5b2ce0d984f1c4878ec8992835492806000526020946000805160206153c4833981519152865260ff602360406000200154161561295d578460005260008051602061536483398151915286526040600020908282556001948686840155600283019085519081116108a5576127f9816122dc84546142d4565b88601f82116001146128fc579080612826926000916128f157508160011b916000199060031b1c19161790565b90555b600482018560ff1982541617905561284181546142a0565b90557f8c155b85251bd93c1fc2d59b5c65d36e3727b021d99d01ebea73246bff7e4a6b90815494600160401b8610156108a557856128899361065a926128c298019055614717565b6000527f5d9ab6191fe9d5041816fb24ec4281e2d3989236339577e7fbbaf91315a1bb7c84526128bd8360406000206142af565b614ba4565b9060405191817fbf27702cefbc4aea50d7c73cfee96f84f5b908f62aeafcd8b0aeae202c150509600080a38152f35b90508701518b6107d7565b908791601f19821690846000528b6000209160005b8d828210612947575050831161292e575b5050811b019055612829565b88015160001960f88460031b161c191690558a80612922565b838c015185558c96909401939283019201612911565b60405162461bcd60e51b81526004810187905260166024820152754c6573736f6e20446f6573206e6f742065786973742160501b6044820152606490fd5b346104fa5760203660031901126104fa576004358060005260008051602061536483398151915290816020526129db60ff600460406000200154166140c0565b6000526020526118066129f460036040600020016145ee565b604051918291602083526020830190613e51565b346104fa5760403660031901126104fa57600435612a8a612a27613c02565b82600052600080516020615364833981519152602052612a5160ff600460406000200154166140c0565b6001600160a01b031660009081527f8c155b85251bd93c1fc2d59b5c65d36e3727b021d99d01ebea73246bff7e4a656020526040902090565b906000526020526020604060002054604051908152f35b346104fa5760403660031901126104fa57612aba613c02565b336001600160a01b03821603612ad657610b50906004356152ac565b60405163334bd91960e11b8152600490fd5b346104fa57612af636613dd7565b612b0192919261518c565b8260005260008051602061536483398151915260209080825260019060016040600020015415612ca857856000528083528560016040600020015403612c72578560005282526002604060002001908351906001600160401b0382116108a557612b6f8261078f85546142d4565b8390601f8311600114612be95750817fad5fab99ac4d99e1061fd121b36537d5213be564a3dc6cc383897dc355e89ff595949392612bc292600091612bde57508160011b916000199060031b1c19161790565b90555b612bd9604051928284938452830190613e2c565b0390a3005b9050850151896107d7565b90601f1983168460005285600020926000905b828210612c5b5750509183917fad5fab99ac4d99e1061fd121b36537d5213be564a3dc6cc383897dc355e89ff59796959460019410612c42575b5050811b019055612bc5565b86015160001960f88460031b161c191690558880612c36565b888401518555938401939287019290870190612bfc565b60405162461bcd60e51b815260048101849052600e60248201526d2737ba1032bc30b1ba1038bab4bd60911b6044820152606490fd5b60405162461bcd60e51b815260048101849052601360248201527214555a5e88191bd95cc81b9bdd08195e1a5cdd606a1b6044820152606490fd5b346104fa5760803660031901126104fa576024356001600160401b0381116104fa57612d13903690600401613db9565b6044356001600160401b0381116104fa57612d32903690600401613db9565b906001600160401b03606435116104fa573660236064350112156104fa5760643560040135612d6081613cfc565b90612d6e6040519283613cdb565b80825260208201903660248260051b6064350101116104fa57602460643501915b60248260051b606435010183106130e857505050612dab61518c565b6004356000526000805160206153c4833981519152602052600160406000200154156130ab576004356000526000805160206153c4833981519152602052600260406000200182516001600160401b0381116108a557612e0f816122dc84546142d4565b6020601f8211600114613045579080612e3d9260009161303a57508160011b916000199060031b1c19161790565b90555b6004356000526000805160206153c4833981519152602052600360406000200183516001600160401b0381116108a557612e7e816122dc84546142d4565b6020601f8211600114612fd1578190612eb093949596600092612fc65750508160011b916000199060031b1c19161790565b90555b805180612f04575b827f2a39a7cf20a19c3cd9811b72b89fab269dce3aa109f6d2a0631cd3e1f0457e5d6040516020815280612ef6600435946020830190613e2c565b0390a2602060405160018152f35b600a10612f815760005b8151811015612f575780612f51612f2760019385614270565b516004356000526000805160206153c48339815191526020526116c683600460406000200161436a565b01612f0e565b50516004356000526000805160206153c48339815191526020526022604060002001558180612ebb565b60405162461bcd60e51b815260206004820152601760248201527f45786365656473206d6178696d756d20616c6c6f7765640000000000000000006044820152606490fd5b015190508680610d6d565b8260005260206000209060005b601f1984168110613022575060019394959683601f19811610613009575b505050811b019055612eb3565b015160001960f88460031b161c19169055858080612ffc565b9091602060018192858b015181550193019101612fde565b9050850151876107d7565b908260005260206000206000925b601f1983168410613093576001935082601f1981161061307a575b5050811b019055612e40565b86015160001960f88460031b161c19169055868061306e565b86810151825560209384019360019092019101613053565b60405162461bcd60e51b815260206004820152601560248201527413195cdcdbdb88191bd95cc81b9bdd08195e1a5cdd605a1b6044820152606490fd5b82356001600160401b0381116104fa5760606064358201360360231901126104fa576040519061311782613c54565b60248160643501013560038110156104fa5782526044816064350101356001600160401b0381116104fa57613156906024369184606435010101613db9565b60208301526001600160401b036064828135010135116104fa576024926020926131928493863691606481813501013590606435010101613db9565b60408201528152019301929050612d8f565b346104fa5760403660031901126104fa57610b506004356131c3613c02565b908060005260016020526131de600160406000200154615206565b61522c565b346104fa5760603660031901126104fa5760246004358135604480356001600160401b0381116104fa5761321b903690600401613d13565b93826000526000805160206153648339815191529360209585875260ff61324c60ff600460406000200154166140c0565b856000527f8c155b85251bd93c1fc2d59b5c65d36e3727b021d99d01ebea73246bff7e4a6296878952604060002033600052895260ff604060002054166136c857836000527f8c155b85251bd93c1fc2d59b5c65d36e3727b021d99d01ebea73246bff7e4a618952604060002033600052895260ff604060002054161561368c5786600052808952600391600360406000200154938415613651578481510361360e5760009360005b86811061356b575050505050606481029080820460641490151715613556570494604b86101561335d575b5050505060405190815281838201527fcce9b9ed7e05afc64f73f1ce3f6ff1011a740b718ae6277a14698a4ef2d62dbf60403392a2604051908152f35b84600052865260406000203360005286526040600020600160ff198254161790557f8c155b85251bd93c1fc2d59b5c65d36e3727b021d99d01ebea73246bff7e4a6486526040600020846000528652846040600020556133bc33614102565b9060005285526133d08360406000206142af565b7f5d9ab6191fe9d5041816fb24ec4281e2d3989236339577e7fbbaf91315a1bb71805492670de0b6b3a7640000938401808511613556576b04d8c55aefb8c05b5c000000106135225760405163e67524a360e01b815233600482015283810185905260608282015260116064820152701158dbdcde5cdd195b4c881c995dd85c99607a1b6084820152878160a4816000305af190811561043a57600091613505575b50156134cb57508054918383018093116134b7575055337fad6ef58d5c294f81258965738e7ae511124139834a8d0b8f8f7327086c82052a600080a383808080613320565b634e487b7160e01b60009081526011600452fd5b86744661696c656420746f206d696e7420746f6b656e7360581b6064926015866040519462461bcd60e51b86526004860152840152820152fd5b61351c9150883d8a11610433576104258183613cdb565b88613472565b866e4c696d69742045786365656465642160881b606492600f866040519462461bcd60e51b86526004860152840152820152fd5b83634e487b7160e01b60005260116004526000fd5b8a600052848d526135828183604060002001614254565b508261358e8386614270565b51910180548210156135cc576135a78692600192614284565b500154166135b8575b6001016132f5565b946135c46001916142a0565b9590506135b0565b60648f7f496e76616c69642063686f6963652073656c65637465640000000000000000008e60178f6040519462461bcd60e51b86526004860152840152820152fd5b60405162461bcd60e51b8152600481018c90526019818901527f496e76616c6964206e756d626572206f6620616e737765727300000000000000818a0152606490fd5b60405162461bcd60e51b8152600481018c9052601581890152745175697a20686173206e6f207175657374696f6e7360581b818a0152606490fd5b60405162461bcd60e51b8152600481018a9052601681870152754e6f7420656e726f6c6c656420696e20636f7572736560501b81880152606490fd5b60405162461bcd60e51b8152602060048201526016602482015275145d5a5e88185b1c9958591e4818dbdb5c1b195d195960521b6044820152606490fd5b346104fa5760203660031901126104fa5760043560005260016020526020600160406000200154604051908152f35b346104fa576020806003193601126104fa576004356137526150a1565b806000527f8c155b85251bd93c1fc2d59b5c65d36e3727b021d99d01ebea73246bff7e4a61808352604060002033600052835260ff60406000205416156139de578160005260008051602061534483398151915283526137d260406000206137c86137bc856141a2565b509160063391016150c4565b60063391016150c4565b8160005282526040600020336000528252604060002060ff1981541690556137f93361413b565b9060005b8254808210156139d55782906138138386614174565b929054600393841b1c1461382b5750506001016137fd565b6000949291939419918282019182116103ba57818103613998575b5050815480156106ca5781019261385d8484614174565b81939154921b1b19169055555b60405163bf5aa69560e01b8152336004820152671bc16d674ec80000602482015260606044820152600f60648201526e22b1b7b9bcb9ba32b69910313ab93760891b6084820152828160a4816000305af190811561043a5760009161397b575b501561393e577f5d9ab6191fe9d5041816fb24ec4281e2d3989236339577e7fbbaf91315a1bb718054671bc16d674ec7ffff198101919082116103ba57556040519033907f9b244c565b926d7f4e915b69f3a5c6afc2231322d0d44e821076ad8879d0d683600080a3600160005560018152f35b60405162461bcd60e51b81526004810183905260156024820152744661696c656420746f206275726e20746f6b656e7360581b6044820152606490fd5b6139929150833d8511610433576104258183613cdb565b836138ca565b6139b56139a86139ce9386614174565b905490871b1c9185614174565b90919082549060031b91821b91600019901b1916179055565b8580613846565b5050905061386a565b60405162461bcd60e51b815260048101849052600d60248201526c4e6f7420656e726f6c6c65642160981b6044820152606490fd5b346104fa5760403660031901126104fa57613a34613a2f613bec565b614102565b6024356000526020906020526040600020906040519081602084549182815201936000526020600020916000905b828210613a7957611806856117fa81890382613cdb565b835486529485019460019384019390910190613a62565b346104fa57613a9e36613bd6565b80600052602091600080516020615364833981519152602052613acb60ff600460406000200154166140c0565b60005b613ad733614102565b826000528452604060002054811015613b1c57613af333614102565b82600052845282613b08826040600020614174565b90549060031b1c146136c857600101613ace565b3360009081527f8c155b85251bd93c1fc2d59b5c65d36e3727b021d99d01ebea73246bff7e4a65602052604090208390816000526020524260406000205533907f7c8fb360d28a1dffdf468443423d871df382ddd64b5934cc55bd9bd18cd65f9c600080a3005b346104fa5760203660031901126104fa576004359063ffffffff60e01b82168092036104fa57602091637965db0b60e01b8114908115613bc5575b5015158152f35b6301ffc9a760e01b14905083613bbe565b60409060031901126104fa576004359060243590565b600435906001600160a01b03821682036104fa57565b602435906001600160a01b03821682036104fa57565b602090602060408183019282815285518094520193019160005b828110613c40575050505090565b835185529381019392810192600101613c32565b606081019081106001600160401b038211176108a557604052565b60c081019081106001600160401b038211176108a557604052565b60a081019081106001600160401b038211176108a557604052565b60e081019081106001600160401b038211176108a557604052565b604081019081106001600160401b038211176108a557604052565b90601f801991011681019081106001600160401b038211176108a557604052565b6001600160401b0381116108a55760051b60200190565b9080601f830112156104fa576020908235613d2d81613cfc565b93613d3b6040519586613cdb565b81855260208086019260051b8201019283116104fa57602001905b828210613d64575050505090565b81358152908301908301613d56565b9291926001600160401b0382116108a55760405191613d9c601f8201601f191660200184613cdb565b8294818452818301116104fa578281602093846000960137010152565b9080601f830112156104fa57816020613dd493359101613d73565b90565b60606003198201126104fa576004359160243591604435906001600160401b0382116104fa57613dd491600401613db9565b60005b838110613e1c5750506000910152565b8181015183820152602001613e0c565b90602091613e4581518092818552858086019101613e09565b601f01601f1916010190565b9080825190818152602080910160059082808560051b8701019601946000926000935b868510613e8657505050505050505090565b909192939480969798601f1990818682030187528a5191608091835181528484015185820152613ec460409384860151908086850152830190613e2c565b9060608095015194818303910152835190818152858101928680848b1b84010196019488915b848310613f0f575050505050505090806001929a019501950193969594929190613e74565b919395978088848660019597999b03018a528a51908280613f3784518a85528a850190613e2c565b930151151591015299019701930190918d979695939492613eea565b90815181526020820151602082015260a080613f93613f81604086015160c0604087015260c0860190613e2c565b60608601518582036060870152613e51565b93608081015115156080850152015191015290565b6020808201908083528351809252604092604081018260408560051b8401019601946000925b858410613fdf575050505050505090565b909192939495968580600192603f198582030187528a519061401a60a08351835284840151858401528884015190808a850152830190613e2c565b91606080820151908301526080809101511515910152990194019401929594939190613fce565b81601f820112156104fa5780359160209161405b84613cfc565b936140696040519586613cdb565b808552838086019160051b830101928084116104fa57848301915b8483106140945750505050505090565b82356001600160401b0381116104fa5786916140b584848094890101613db9565b815201920191614084565b156140c757565b60405162461bcd60e51b8152602060048201526013602482015272145d5a5e88191bd95cc81b9bdd08195e1a5cdd606a1b6044820152606490fd5b6001600160a01b031660009081527f8c155b85251bd93c1fc2d59b5c65d36e3727b021d99d01ebea73246bff7e4a636020526040902090565b6001600160a01b031660009081527f8c155b85251bd93c1fc2d59b5c65d36e3727b021d99d01ebea73246bff7e4a666020526040902090565b805482101561418c5760005260206000200190600090565b634e487b7160e01b600052603260045260246000fd5b7f5d9ab6191fe9d5041816fb24ec4281e2d3989236339577e7fbbaf91315a1bb8690815481101561418c57600991600052027f5be94ca231000b7ffb5c6e5accb264b3927e039a0afbf587fcf68ac19ec7b05d0190600090565b7f8c155b85251bd93c1fc2d59b5c65d36e3727b021d99d01ebea73246bff7e4a6c805482101561418c5760005260021b7f20e478d3ba414f1d951df900c21cb4747a252728dc9dc43884d9362f671f62370190600090565b805482101561418c5760005260206000209060021b0190600090565b805182101561418c5760209160051b010190565b805482101561418c5760005260206000209060011b0190600090565b60001981146103ba5760010190565b90815491600160401b8310156108a557826139b59160016142d295018155614174565b565b90600182811c92168015614304575b60208310146142ee57565b634e487b7160e01b600052602260045260246000fd5b91607f16916142e3565b818110614319575050565b6000815560010161430e565b9190601f811161433457505050565b6142d2926000526020600020906020601f840160051c83019310614360575b601f0160051c019061430e565b9091508190614353565b90600a81101561418c576003020190600090565b906003811015611b095760ff80198354169116179055565b906106b45781516003811015611b09576143b0908261437e565b60019081810190602090818501519283516001600160401b03948582116108a5576143df8261078f85546142d4565b8490601f83116001146144dd578260409593600295936144159360009261446e5750508160011b916000199060031b1c19161790565b90555b019401519283519283116108a55761443a8361443487546142d4565b87614325565b81601f8411600114614479575050819061446a9360009261446e5750508160011b916000199060031b1c19161790565b9055565b015190503880610d6d565b91909383601f1981168760005284600020946000905b888383106144c357505050106144aa575b505050811b019055565b015160001960f88460031b161c191690553880806144a0565b85870151885590960195948501948793509081019061448f565b879291601f1983169185600052876000209260005b89828210614535575050916040979593918560029896941061451c575b505050811b019055614418565b015160001960f88460031b161c1916905538808061450f565b8385015186558c979095019493840193016144f2565b9060405191826000825461455e816142d4565b908184526020946001916001811690816000146145cc575060011461458d575b5050506142d292500383613cdb565b600090815285812095935091905b8183106145b45750506142d2935082010138808061457e565b8554888401850152948501948794509183019161459b565b925050506142d294925060ff191682840152151560051b82010138808061457e565b908154916145fb83613cfc565b9260409361460b85519182613cdb565b818152809460208092019360009081528281209181955b8587106146325750505050505050565b8151608081018181106001600160401b03821117614703579086918452855481526001808701548383015260029061466b82890161454b565b86840152600388019182549061468082613cfc565b9361468d89519586613cdb565b8285528952858920898786015b8482106146c25750505050505092816001946060600495940152815201940196019592614622565b92859697988195969293948c516146d881613cc0565b6146e18761454b565b815260ff8588015416151583820152815201930191018c97969594939261469a565b634e487b7160e01b85526041600452602485fd5b7f8c155b85251bd93c1fc2d59b5c65d36e3727b021d99d01ebea73246bff7e4a6b90815481101561418c57600691600052027f76f68d757955222e4123e5064ae217cc205a14954057840ca4fdcd30bc7e0b8d0190600090565b908082146148455761478381546142d4565b906001600160401b0382116108a5576147a08261078f85546142d4565b600090601f83116001146147db5761446a9291600091836147d05750508160011b916000199060031b1c19161790565b015490503880610d6d565b815260208082208483528183209291601f1985169083905b82821061482c57505090846001959493921061481357505050811b019055565b015460001960f88460031b161c191690553880806144a0565b84958192958501548155600180910196019401906147f3565b5050565b61485381546142d4565b908161485d575050565b81601f6000931160011461486f575055565b90808391825261488e601f60208420940160051c84016001850161430e565b5555565b805490600090818155826148a557505050565b6001906001600160ff1b03841684036148ea578252602082209260011b8301925b8381106148d35750505050565b806148df600292614849565b8383820155016148c6565b634e487b7160e01b83526011600452602483fd5b60036142d291600081556000600182015561213d60028201614849565b805490600081558161492b575050565b6001600160fe1b03821682036103ba5760005260206000209060021b8101905b818110614956575050565b806149626004926148fe565b0161494b565b81811461484557815491600160401b83116108a55781548383558084106149f7575b506000526020600020906000526020600020906000905b8382106149ae5750505050565b8060019184036149c9575b60028091019301910190916149a1565b6149d38185614771565b6149f28260ff81840154169086019060ff801983541691151516179055565b6149b9565b60016001600160ff1b0382811683036103ba57851685036103ba576000908460005260206000209260011b8301928660011b015b838110614a3a5750505061498a565b80614a46600292614849565b838382015501614a2b565b818103614a5c575050565b600380836142d29454845560018101546001850155614a816002820160028601614771565b019101614968565b81811461484557815491600160401b83116108a5578154838355808410614aec575b506000526020600020906000526020600020906000905b838210614acf5750505050565b80614adc60019285614a51565b6004809101930191019091614ac2565b6001600160fe1b0381811682036103ba57841684036103ba578260005260206000209060021b8101908460021b015b818110614b285750614aab565b80614b346004926148fe565b01614b1b565b91906106b457808203614b4b575050565b600581819254845560018101546001850155614b6d6002820160028601614771565b614b7d6003820160038601614a89565b614b9d60ff600483015416600486019060ff801983541691151516179055565b0154910155565b614bbc90602060405192828480945193849201613e09565b810103902090565b60405190614bd182613c6f565b600060a083828152826020820152606060408201526060808201528260808201520152565b60008051602061532483398151915290815481101561418c57602491600052027f02122f22802b253ba241122028bbe29a972a5c988b9a1ce3c7b108685619d67a0190600090565b818110614c49575050565b80600060039255614c5c60018201614849565b614c6860028201614849565b01614c3e565b9080821461484557906000915b600a8310614c8857505050565b806001918303614ca2575b92019160039182019101614c7b565b614cb060ff8254168461437e565b614cbe818301848401614771565b614cce6002808301908501614771565b614c93565b906106b457818103614ce3575050565b602360ff81846142d29554855560018101546001860155614d0a6002820160028701614771565b614d1a6003820160038701614771565b614d2a6004820160048701614c6e565b6022810154602286015501541691019060ff801983541691151516179055565b91906106b4576142d291614a51565b6000805160206153a483398151915290815481101561418c57600591600052027f3ee09e7f88244519dc8d8436205c47c5300c6a0c33febb46b072e00ab0e7d9380190600090565b90604051614dae81613c8a565b608060ff600483958054855260018101546020860152614dd06002820161454b565b6040860152600381015460608601520154161515910152565b15614df057565b60405162461bcd60e51b815260206004820152601560248201527410da185c1d195c88191bd95cdb89dd08195e1a5cdd605a1b6044820152606490fd5b15614e3457565b60405162461bcd60e51b815260206004820152601460248201527313195cdcdbdb88191bd95cdb89dd08195e1a5cdd60621b6044820152606490fd5b6003821015611b095752565b919082018092116103ba57565b919081101561418c5760051b81013590605e19813603018212156104fa570190565b903590601e19813603018212156104fa57018035906001600160401b0382116104fa576020019181360383136104fa57565b15614ee457565b60405162461bcd60e51b8152602060048201526016602482015275436f7572736520646f6573206e6f742065786973742160501b6044820152606490fd5b9080518255600160209060208301516001850155600284019160408401518051926001600160401b0384116108a557614f5f8461443487546142d4565b602092601f8511600114614fc057505092614f9c836080946142d298979460049760009261446e5750508160011b916000199060031b1c19161790565b90555b606081015160038501550151151591019060ff801983541691151516179055565b600086815260208120949392601f19871692905b83831061501c57505050936142d2979693600496936001938360809810615003575b505050811b019055614f9f565b015160001960f88460031b161c19169055388080614ff6565b848601518755958601959481019491810191614fd4565b60ff1660ff81146103ba5760010190565b613dd49392606092825260208201528160408201520190613e2c565b90815491600160401b8310156108a557826150839160016142d295018155614174565b90919060018060a01b038084549260031b9316831b921b1916179055565b6002600054146150b2576002600055565b604051633ee5aeb560e01b8152600490fd5b6000915b8154928381101561516e576150dd8184614174565b90546003956001600160a01b0392909190871b1c82168483161461510757505060010192506150c8565b909250600019918282019182116103ba578184928203615147575b505050825480156106ca5701926151398484614174565b81939154921b1b1916905555565b615166926151586150839288614174565b905490891b1c169186614174565b813880615122565b50505050565b908160209103126104fa575180151581036104fa5790565b3360009081527f3aa37117ef959737db4598704f9aead1ec6da508b3503ba8a51e5b50ca8efe6160205260409020547fadb22091b155738d2e889eb96f509d2a7c93234236b30400927feb4a6a15ab009060ff16156151e85750565b6044906040519063e2517d3f60e01b82523360048301526024820152fd5b80600052600160205260406000203360005260205260ff60406000205416156151e85750565b906000918083526001602052604083209160018060a01b03169182845260205260ff604084205416156000146152a75780835260016020526040832082845260205260408320600160ff198254161790557f2f8788117e7eff1d82e926ec794901d17c78024a50270940304540a733656f0d339380a4600190565b505090565b906000918083526001602052604083209160018060a01b03169182845260205260ff6040842054166000146152a7578083526001602052604083208284526020526040832060ff1981541690557ff6391f5c32d9c69d2a47ea670b442974b53935d1edc7fd64eb21e047a839171b339380a460019056fe8c155b85251bd93c1fc2d59b5c65d36e3727b021d99d01ebea73246bff7e4a695d9ab6191fe9d5041816fb24ec4281e2d3989236339577e7fbbaf91315a1bb7d8c155b85251bd93c1fc2d59b5c65d36e3727b021d99d01ebea73246bff7e4a5f8c155b85251bd93c1fc2d59b5c65d36e3727b021d99d01ebea73246bff7e4a5b8c155b85251bd93c1fc2d59b5c65d36e3727b021d99d01ebea73246bff7e4a688c155b85251bd93c1fc2d59b5c65d36e3727b021d99d01ebea73246bff7e4a5da2646970667358221220972aa62dba851ca7398aa3479479569c9f992d5a5888dde4f038d3501a5ed25964736f6c63430008180033",
  "linkReferences": {},
  "deployedLinkReferences": {}
}