{
  "_format": "hh-sol-artifact-1",
  "contractName": "CommunityBadgeSystem",
  "sourceName": "contracts/Community Contracts/CommunityBadgeSystem.sol",
  "abi": [
    {
      "inputs": [],
      "stateMutability": "nonpayable",
      "type": "constructor"
    },
    {
      "anonymous": false,
      "inputs": [
        {
          "indexed": true,
          "internalType": "address",
          "name": "member",
          "type": "address"
        },
        {
          "indexed": false,
          "internalType": "enum CommunityBadgeSystem.BadgeLevel",
          "name": "badge",
          "type": "uint8"
        }
      ],
      "name": "BadgeAwarded",
      "type": "event"
    },
    {
      "anonymous": false,
      "inputs": [
        {
          "indexed": true,
          "internalType": "address",
          "name": "member",
          "type": "address"
        },
        {
          "indexed": false,
          "internalType": "uint256",
          "name": "totalEvents",
          "type": "uint256"
        }
      ],
      "name": "EventParticipationRecorded",
      "type": "event"
    },
    {
      "anonymous": false,
      "inputs": [
        {
          "indexed": true,
          "internalType": "address",
          "name": "member",
          "type": "address"
        }
      ],
      "name": "MemberRegistered",
      "type": "event"
    },
    {
      "inputs": [],
      "name": "CHAMPION_BADGE_THRESHOLD",
      "outputs": [
        {
          "internalType": "uint256",
          "name": "",
          "type": "uint256"
        }
      ],
      "stateMutability": "view",
      "type": "function"
    },
    {
      "inputs": [],
      "name": "CHAMPION_REWARD",
      "outputs": [
        {
          "internalType": "uint256",
          "name": "",
          "type": "uint256"
        }
      ],
      "stateMutability": "view",
      "type": "function"
    },
    {
      "inputs": [],
      "name": "CONTRIBUTOR_BADGE_THRESHOLD",
      "outputs": [
        {
          "internalType": "uint256",
          "name": "",
          "type": "uint256"
        }
      ],
      "stateMutability": "view",
      "type": "function"
    },
    {
      "inputs": [],
      "name": "CONTRIBUTOR_REWARD",
      "outputs": [
        {
          "internalType": "uint256",
          "name": "",
          "type": "uint256"
        }
      ],
      "stateMutability": "view",
      "type": "function"
    },
    {
      "inputs": [],
      "name": "LEADER_BADGE_THRESHOLD",
      "outputs": [
        {
          "internalType": "uint256",
          "name": "",
          "type": "uint256"
        }
      ],
      "stateMutability": "view",
      "type": "function"
    },
    {
      "inputs": [],
      "name": "LEADER_REWARD",
      "outputs": [
        {
          "internalType": "uint256",
          "name": "",
          "type": "uint256"
        }
      ],
      "stateMutability": "view",
      "type": "function"
    },
    {
      "inputs": [],
      "name": "PARTICIPANT_BADGE_THRESHOLD",
      "outputs": [
        {
          "internalType": "uint256",
          "name": "",
          "type": "uint256"
        }
      ],
      "stateMutability": "view",
      "type": "function"
    },
    {
      "inputs": [],
      "name": "PARTICIPANT_REWARD",
      "outputs": [
        {
          "internalType": "uint256",
          "name": "",
          "type": "uint256"
        }
      ],
      "stateMutability": "view",
      "type": "function"
    },
    {
      "inputs": [
        {
          "internalType": "enum CommunityBadgeSystem.BadgeLevel",
          "name": "",
          "type": "uint8"
        }
      ],
      "name": "badgeMetadata",
      "outputs": [
        {
          "internalType": "string",
          "name": "name",
          "type": "string"
        },
        {
          "internalType": "string",
          "name": "iconURI",
          "type": "string"
        },
        {
          "internalType": "uint256",
          "name": "tokenReward",
          "type": "uint256"
        }
      ],
      "stateMutability": "view",
      "type": "function"
    },
    {
      "inputs": [
        {
          "internalType": "address",
          "name": "",
          "type": "address"
        }
      ],
      "name": "communityMembers",
      "outputs": [
        {
          "internalType": "uint256",
          "name": "totalEventsAttended",
          "type": "uint256"
        },
        {
          "internalType": "uint256",
          "name": "totalContributions",
          "type": "uint256"
        },
        {
          "internalType": "enum CommunityBadgeSystem.BadgeLevel",
          "name": "currentBadge",
          "type": "uint8"
        }
      ],
      "stateMutability": "view",
      "type": "function"
    },
    {
      "inputs": [
        {
          "internalType": "enum CommunityBadgeSystem.BadgeLevel",
          "name": "_level",
          "type": "uint8"
        }
      ],
      "name": "getBadgeMetadata",
      "outputs": [
        {
          "components": [
            {
              "internalType": "string",
              "name": "name",
              "type": "string"
            },
            {
              "internalType": "string",
              "name": "iconURI",
              "type": "string"
            },
            {
              "internalType": "uint256",
              "name": "tokenReward",
              "type": "uint256"
            }
          ],
          "internalType": "struct CommunityBadgeSystem.BadgeMetadata",
          "name": "",
          "type": "tuple"
        }
      ],
      "stateMutability": "view",
      "type": "function"
    },
    {
      "inputs": [
        {
          "internalType": "address",
          "name": "_member",
          "type": "address"
        }
      ],
      "name": "getMemberBadge",
      "outputs": [
        {
          "internalType": "enum CommunityBadgeSystem.BadgeLevel",
          "name": "",
          "type": "uint8"
        }
      ],
      "stateMutability": "view",
      "type": "function"
    },
    {
      "inputs": [
        {
          "internalType": "address",
          "name": "_member",
          "type": "address"
        }
      ],
      "name": "getMemberBadgeDetails",
      "outputs": [
        {
          "internalType": "enum CommunityBadgeSystem.BadgeLevel",
          "name": "currentBadge",
          "type": "uint8"
        },
        {
          "internalType": "string",
          "name": "badgeName",
          "type": "string"
        },
        {
          "internalType": "string",
          "name": "iconURI",
          "type": "string"
        },
        {
          "internalType": "uint256",
          "name": "tokenReward",
          "type": "uint256"
        },
        {
          "internalType": "uint256",
          "name": "totalEventsAttended",
          "type": "uint256"
        }
      ],
      "stateMutability": "view",
      "type": "function"
    },
    {
      "inputs": [
        {
          "internalType": "address",
          "name": "_member",
          "type": "address"
        }
      ],
      "name": "getTotalEventsAttended",
      "outputs": [
        {
          "internalType": "uint256",
          "name": "",
          "type": "uint256"
        }
      ],
      "stateMutability": "view",
      "type": "function"
    },
    {
      "inputs": [
        {
          "internalType": "address",
          "name": "_member",
          "type": "address"
        },
        {
          "internalType": "enum CommunityBadgeSystem.BadgeLevel",
          "name": "_badgeLevel",
          "type": "uint8"
        }
      ],
      "name": "hasBadge",
      "outputs": [
        {
          "internalType": "bool",
          "name": "",
          "type": "bool"
        }
      ],
      "stateMutability": "view",
      "type": "function"
    }
  ],
  "bytecode": "0x608060405234801561001057600080fd5b5060405180606001604052806040518060400160405280600881526020017f4e6577636f6d657200000000000000000000000000000000000000000000000081525081526020016040518060400160405280601a81526020017f697066733a2f2f6e6577636f6d65722d62616467652d69636f6e00000000000081525081526020016000815250600160008060048111156100ae576100ad610503565b5b60048111156100c0576100bf610503565b5b815260200190815260200160002060008201518160000190816100e39190610782565b5060208201518160010190816100f99190610782565b506040820151816002015590505060405180606001604052806040518060400160405280600b81526020017f5061727469636970616e7400000000000000000000000000000000000000000081525081526020016040518060400160405280601d81526020017f697066733a2f2f7061727469636970616e742d62616467652d69636f6e0000008152508152602001670de0b6b3a764000081525060016000600160048111156101ac576101ab610503565b5b60048111156101be576101bd610503565b5b815260200190815260200160002060008201518160000190816101e19190610782565b5060208201518160010190816101f79190610782565b506040820151816002015590505060405180606001604052806040518060400160405280600b81526020017f436f6e7472696275746f7200000000000000000000000000000000000000000081525081526020016040518060400160405280601d81526020017f697066733a2f2f636f6e7472696275746f722d62616467652d69636f6e0000008152508152602001671bc16d674ec8000081525060016000600260048111156102aa576102a9610503565b5b60048111156102bc576102bb610503565b5b815260200190815260200160002060008201518160000190816102df9190610782565b5060208201518160010190816102f59190610782565b506040820151816002015590505060405180606001604052806040518060400160405280600681526020017f4c6561646572000000000000000000000000000000000000000000000000000081525081526020016040518060400160405280601881526020017f697066733a2f2f6c65616465722d62616467652d69636f6e000000000000000081525081526020016729a2241af62c000081525060016000600360048111156103a8576103a7610503565b5b60048111156103ba576103b9610503565b5b815260200190815260200160002060008201518160000190816103dd9190610782565b5060208201518160010190816103f39190610782565b506040820151816002015590505060405180606001604052806040518060400160405280600881526020017f4368616d70696f6e00000000000000000000000000000000000000000000000081525081526020016040518060400160405280601a81526020017f697066733a2f2f6368616d70696f6e2d62616467652d69636f6e0000000000008152508152602001673782dace9d900000815250600160006004808111156104a5576104a4610503565b5b60048111156104b7576104b6610503565b5b815260200190815260200160002060008201518160000190816104da9190610782565b5060208201518160010190816104f09190610782565b5060408201518160020155905050610854565b7f4e487b7100000000000000000000000000000000000000000000000000000000600052602160045260246000fd5b600081519050919050565b7f4e487b7100000000000000000000000000000000000000000000000000000000600052604160045260246000fd5b7f4e487b7100000000000000000000000000000000000000000000000000000000600052602260045260246000fd5b600060028204905060018216806105b357607f821691505b6020821081036105c6576105c561056c565b5b50919050565b60008190508160005260206000209050919050565b60006020601f8301049050919050565b600082821b905092915050565b60006008830261062e7fffffffffffffffffffffffffffffffffffffffffffffffffffffffffffffffff826105f1565b61063886836105f1565b95508019841693508086168417925050509392505050565b6000819050919050565b6000819050919050565b600061067f61067a61067584610650565b61065a565b610650565b9050919050565b6000819050919050565b61069983610664565b6106ad6106a582610686565b8484546105fe565b825550505050565b600090565b6106c26106b5565b6106cd818484610690565b505050565b5b818110156106f1576106e66000826106ba565b6001810190506106d3565b5050565b601f82111561073657610707816105cc565b610710846105e1565b8101602085101561071f578190505b61073361072b856105e1565b8301826106d2565b50505b505050565b600082821c905092915050565b60006107596000198460080261073b565b1980831691505092915050565b60006107728383610748565b9150826002028217905092915050565b61078b82610532565b67ffffffffffffffff8111156107a4576107a361053d565b5b6107ae825461059b565b6107b98282856106f5565b600060209050601f8311600181146107ec57600084156107da578287015190505b6107e48582610766565b86555061084c565b601f1984166107fa866105cc565b60005b82811015610822578489015182556001820191506020850194506020810190506107fd565b8683101561083f578489015161083b601f891682610748565b8355505b6001600288020188555050505b505050505050565b610eac806108636000396000f3fe608060405234801561001057600080fd5b50600436106100f55760003560e01c80637025aac611610097578063b519342511610066578063b5193425146102b8578063bfa05361146102d6578063ca98e49e146102f4578063effad04014610324576100f5565b80637025aac6146101f05780637125a07b146102225780638c95aef914610256578063914e72a614610288576100f5565b80630fb6d46a116100d35780630fb6d46a146101545780632899df2b1461017257806333df7e34146101a25780633af0c688146101c0576100f5565b80630d74f38a146100fa5780630e75a370146101185780630ed1d5cb14610136575b600080fd5b610102610342565b60405161010f91906109d2565b60405180910390f35b61012061034e565b60405161012d91906109d2565b60405180910390f35b61013e61035a565b60405161014b91906109d2565b60405180910390f35b61015c61035f565b60405161016991906109d2565b60405180910390f35b61018c60048036038101906101879190610a17565b610364565b6040516101999190610b3a565b60405180910390f35b6101aa6104e3565b6040516101b791906109d2565b60405180910390f35b6101da60048036038101906101d59190610bba565b6104ef565b6040516101e79190610c15565b60405180910390f35b61020a60048036038101906102059190610a17565b61056f565b60405161021993929190610c7a565b60405180910390f35b61023c60048036038101906102379190610cbf565b6106a9565b60405161024d959493929190610d63565b60405180910390f35b610270600480360381019061026b9190610cbf565b6108a8565b60405161027f93929190610dc4565b60405180910390f35b6102a2600480360381019061029d9190610cbf565b6108df565b6040516102af91906109d2565b60405180910390f35b6102c061092a565b6040516102cd91906109d2565b60405180910390f35b6102de61092f565b6040516102eb91906109d2565b60405180910390f35b61030e60048036038101906103099190610cbf565b610934565b60405161031b9190610dfb565b60405180910390f35b61032c61098c565b60405161033991906109d2565b60405180910390f35b6729a2241af62c000081565b671bc16d674ec8000081565b600381565b600181565b61036c610998565b6001600083600481111561038357610382610cec565b5b600481111561039557610394610cec565b5b81526020019081526020016000206040518060600160405290816000820180546103be90610e45565b80601f01602080910402602001604051908101604052809291908181526020018280546103ea90610e45565b80156104375780601f1061040c57610100808354040283529160200191610437565b820191906000526020600020905b81548152906001019060200180831161041a57829003601f168201915b5050505050815260200160018201805461045090610e45565b80601f016020809104026020016040519081016040528092919081815260200182805461047c90610e45565b80156104c95780601f1061049e576101008083540402835291602001916104c9565b820191906000526020600020905b8154815290600101906020018083116104ac57829003601f168201915b505050505081526020016002820154815250509050919050565b673782dace9d90000081565b600081600481111561050457610503610cec565b5b6000808573ffffffffffffffffffffffffffffffffffffffff1673ffffffffffffffffffffffffffffffffffffffff16815260200190815260200160002060020160009054906101000a900460ff16600481111561056557610564610cec565b5b1015905092915050565b600160205280600052604060002060009150905080600001805461059290610e45565b80601f01602080910402602001604051908101604052809291908181526020018280546105be90610e45565b801561060b5780601f106105e05761010080835404028352916020019161060b565b820191906000526020600020905b8154815290600101906020018083116105ee57829003601f168201915b50505050509080600101805461062090610e45565b80601f016020809104026020016040519081016040528092919081815260200182805461064c90610e45565b80156106995780601f1061066e57610100808354040283529160200191610699565b820191906000526020600020905b81548152906001019060200180831161067c57829003601f168201915b5050505050908060020154905083565b600060608060008060008060008873ffffffffffffffffffffffffffffffffffffffff1673ffffffffffffffffffffffffffffffffffffffff168152602001908152602001600020905060008160020160009054906101000a900460ff16905060006001600083600481111561072257610721610cec565b5b600481111561073457610733610cec565b5b815260200190815260200160002060405180606001604052908160008201805461075d90610e45565b80601f016020809104026020016040519081016040528092919081815260200182805461078990610e45565b80156107d65780601f106107ab576101008083540402835291602001916107d6565b820191906000526020600020905b8154815290600101906020018083116107b957829003601f168201915b505050505081526020016001820180546107ef90610e45565b80601f016020809104026020016040519081016040528092919081815260200182805461081b90610e45565b80156108685780601f1061083d57610100808354040283529160200191610868565b820191906000526020600020905b81548152906001019060200180831161084b57829003601f168201915b5050505050815260200160028201548152505090508181600001518260200151836040015186600001549750975097509750975050505091939590929450565b60006020528060005260406000206000915090508060000154908060010154908060020160009054906101000a900460ff16905083565b60008060008373ffffffffffffffffffffffffffffffffffffffff1673ffffffffffffffffffffffffffffffffffffffff168152602001908152602001600020600001549050919050565b600581565b600a81565b60008060008373ffffffffffffffffffffffffffffffffffffffff1673ffffffffffffffffffffffffffffffffffffffff16815260200190815260200160002060020160009054906101000a900460ff169050919050565b670de0b6b3a764000081565b60405180606001604052806060815260200160608152602001600081525090565b6000819050919050565b6109cc816109b9565b82525050565b60006020820190506109e760008301846109c3565b92915050565b600080fd5b600581106109ff57600080fd5b50565b600081359050610a11816109f2565b92915050565b600060208284031215610a2d57610a2c6109ed565b5b6000610a3b84828501610a02565b91505092915050565b600081519050919050565b600082825260208201905092915050565b60005b83811015610a7e578082015181840152602081019050610a63565b60008484015250505050565b6000601f19601f8301169050919050565b6000610aa682610a44565b610ab08185610a4f565b9350610ac0818560208601610a60565b610ac981610a8a565b840191505092915050565b610add816109b9565b82525050565b60006060830160008301518482036000860152610b008282610a9b565b91505060208301518482036020860152610b1a8282610a9b565b9150506040830151610b2f6040860182610ad4565b508091505092915050565b60006020820190508181036000830152610b548184610ae3565b905092915050565b600073ffffffffffffffffffffffffffffffffffffffff82169050919050565b6000610b8782610b5c565b9050919050565b610b9781610b7c565b8114610ba257600080fd5b50565b600081359050610bb481610b8e565b92915050565b60008060408385031215610bd157610bd06109ed565b5b6000610bdf85828601610ba5565b9250506020610bf085828601610a02565b9150509250929050565b60008115159050919050565b610c0f81610bfa565b82525050565b6000602082019050610c2a6000830184610c06565b92915050565b600082825260208201905092915050565b6000610c4c82610a44565b610c568185610c30565b9350610c66818560208601610a60565b610c6f81610a8a565b840191505092915050565b60006060820190508181036000830152610c948186610c41565b90508181036020830152610ca88185610c41565b9050610cb760408301846109c3565b949350505050565b600060208284031215610cd557610cd46109ed565b5b6000610ce384828501610ba5565b91505092915050565b7f4e487b7100000000000000000000000000000000000000000000000000000000600052602160045260246000fd5b60058110610d2c57610d2b610cec565b5b50565b6000819050610d3d82610d1b565b919050565b6000610d4d82610d2f565b9050919050565b610d5d81610d42565b82525050565b600060a082019050610d786000830188610d54565b8181036020830152610d8a8187610c41565b90508181036040830152610d9e8186610c41565b9050610dad60608301856109c3565b610dba60808301846109c3565b9695505050505050565b6000606082019050610dd960008301866109c3565b610de660208301856109c3565b610df36040830184610d54565b949350505050565b6000602082019050610e106000830184610d54565b92915050565b7f4e487b7100000000000000000000000000000000000000000000000000000000600052602260045260246000fd5b60006002820490506001821680610e5d57607f821691505b602082108103610e7057610e6f610e16565b5b5091905056fea264697066735822122086961b975226d29a930800942576dc11711b3f596b513b88162ccabe997920c964736f6c634300081b0033",
  "linkReferences": {},
  "deployedLinkReferences": {}
}