{
  "_format": "hh-sol-artifact-1",
  "contractName": "CommunityBadgeSystem",
  "sourceName": "contracts/Community Contracts/CommunityBadgeSystem.sol",
  "abi": [
    {
      "inputs": [],
      "stateMutability": "nonpayable",
      "type": "constructor"
    },
    {
      "anonymous": false,
      "inputs": [
        {
          "indexed": true,
          "internalType": "address",
          "name": "member",
          "type": "address"
        },
        {
          "indexed": false,
          "internalType": "enum CommunityBadgeSystem.BadgeLevel",
          "name": "badge",
          "type": "uint8"
        }
      ],
      "name": "BadgeAwarded",
      "type": "event"
    },
    {
      "anonymous": false,
      "inputs": [
        {
          "indexed": true,
          "internalType": "address",
          "name": "member",
          "type": "address"
        },
        {
          "indexed": false,
          "internalType": "uint256",
          "name": "totalEvents",
          "type": "uint256"
        }
      ],
      "name": "EventParticipationRecorded",
      "type": "event"
    },
    {
      "anonymous": false,
      "inputs": [
        {
          "indexed": true,
          "internalType": "address",
          "name": "member",
          "type": "address"
        }
      ],
      "name": "MemberRegistered",
      "type": "event"
    },
    {
      "inputs": [],
      "name": "CHAMPION_BADGE_THRESHOLD",
      "outputs": [
        {
          "internalType": "uint256",
          "name": "",
          "type": "uint256"
        }
      ],
      "stateMutability": "view",
      "type": "function"
    },
    {
      "inputs": [],
      "name": "CONTRIBUTOR_BADGE_THRESHOLD",
      "outputs": [
        {
          "internalType": "uint256",
          "name": "",
          "type": "uint256"
        }
      ],
      "stateMutability": "view",
      "type": "function"
    },
    {
      "inputs": [],
      "name": "LEADER_BADGE_THRESHOLD",
      "outputs": [
        {
          "internalType": "uint256",
          "name": "",
          "type": "uint256"
        }
      ],
      "stateMutability": "view",
      "type": "function"
    },
    {
      "inputs": [],
      "name": "PARTICIPANT_BADGE_THRESHOLD",
      "outputs": [
        {
          "internalType": "uint256",
          "name": "",
          "type": "uint256"
        }
      ],
      "stateMutability": "view",
      "type": "function"
    },
    {
      "inputs": [
        {
          "internalType": "enum CommunityBadgeSystem.BadgeLevel",
          "name": "",
          "type": "uint8"
        }
      ],
      "name": "badgeMetadata",
      "outputs": [
        {
          "internalType": "string",
          "name": "name",
          "type": "string"
        },
        {
          "internalType": "string",
          "name": "iconURI",
          "type": "string"
        },
        {
          "internalType": "uint256",
          "name": "tokenReward",
          "type": "uint256"
        }
      ],
      "stateMutability": "view",
      "type": "function"
    },
    {
      "inputs": [
        {
          "internalType": "address",
          "name": "",
          "type": "address"
        }
      ],
      "name": "communityMembers",
      "outputs": [
        {
          "internalType": "uint256",
          "name": "totalEventsAttended",
          "type": "uint256"
        },
        {
          "internalType": "uint256",
          "name": "totalContributions",
          "type": "uint256"
        },
        {
          "internalType": "enum CommunityBadgeSystem.BadgeLevel",
          "name": "currentBadge",
          "type": "uint8"
        }
      ],
      "stateMutability": "view",
      "type": "function"
    },
    {
      "inputs": [
        {
          "internalType": "enum CommunityBadgeSystem.BadgeLevel",
          "name": "_level",
          "type": "uint8"
        }
      ],
      "name": "getBadgeMetadata",
      "outputs": [
        {
          "components": [
            {
              "internalType": "string",
              "name": "name",
              "type": "string"
            },
            {
              "internalType": "string",
              "name": "iconURI",
              "type": "string"
            },
            {
              "internalType": "uint256",
              "name": "tokenReward",
              "type": "uint256"
            }
          ],
          "internalType": "struct CommunityBadgeSystem.BadgeMetadata",
          "name": "",
          "type": "tuple"
        }
      ],
      "stateMutability": "view",
      "type": "function"
    },
    {
      "inputs": [
        {
          "internalType": "address",
          "name": "_member",
          "type": "address"
        }
      ],
      "name": "getMemberBadge",
      "outputs": [
        {
          "internalType": "enum CommunityBadgeSystem.BadgeLevel",
          "name": "",
          "type": "uint8"
        }
      ],
      "stateMutability": "view",
      "type": "function"
    },
    {
      "inputs": [
        {
          "internalType": "address",
          "name": "_member",
          "type": "address"
        }
      ],
      "name": "getMemberBadgeDetails",
      "outputs": [
        {
          "internalType": "enum CommunityBadgeSystem.BadgeLevel",
          "name": "currentBadge",
          "type": "uint8"
        },
        {
          "internalType": "string",
          "name": "badgeName",
          "type": "string"
        },
        {
          "internalType": "string",
          "name": "iconURI",
          "type": "string"
        },
        {
          "internalType": "uint256",
          "name": "tokenReward",
          "type": "uint256"
        },
        {
          "internalType": "uint256",
          "name": "totalEventsAttended",
          "type": "uint256"
        }
      ],
      "stateMutability": "view",
      "type": "function"
    },
    {
      "inputs": [
        {
          "internalType": "address",
          "name": "_member",
          "type": "address"
        }
      ],
      "name": "getTotalEventsAttended",
      "outputs": [
        {
          "internalType": "uint256",
          "name": "",
          "type": "uint256"
        }
      ],
      "stateMutability": "view",
      "type": "function"
    },
    {
      "inputs": [
        {
          "internalType": "address",
          "name": "_member",
          "type": "address"
        },
        {
          "internalType": "enum CommunityBadgeSystem.BadgeLevel",
          "name": "_badgeLevel",
          "type": "uint8"
        }
      ],
      "name": "hasBadge",
      "outputs": [
        {
          "internalType": "bool",
          "name": "",
          "type": "bool"
        }
      ],
      "stateMutability": "view",
      "type": "function"
    }
  ],
  "bytecode": "0x608060405234801561001057600080fd5b5060405180606001604052806040518060400160405280600881526020017f4e6577636f6d657200000000000000000000000000000000000000000000000081525081526020016040518060400160405280601a81526020017f697066733a2f2f6e6577636f6d65722d62616467652d69636f6e00000000000081525081526020016000815250600160008060048111156100ae576100ad610503565b5b60048111156100c0576100bf610503565b5b815260200190815260200160002060008201518160000190816100e39190610782565b5060208201518160010190816100f99190610782565b506040820151816002015590505060405180606001604052806040518060400160405280600b81526020017f5061727469636970616e7400000000000000000000000000000000000000000081525081526020016040518060400160405280601d81526020017f697066733a2f2f7061727469636970616e742d62616467652d69636f6e0000008152508152602001670de0b6b3a764000081525060016000600160048111156101ac576101ab610503565b5b60048111156101be576101bd610503565b5b815260200190815260200160002060008201518160000190816101e19190610782565b5060208201518160010190816101f79190610782565b506040820151816002015590505060405180606001604052806040518060400160405280600b81526020017f436f6e7472696275746f7200000000000000000000000000000000000000000081525081526020016040518060400160405280601d81526020017f697066733a2f2f636f6e7472696275746f722d62616467652d69636f6e0000008152508152602001671bc16d674ec8000081525060016000600260048111156102aa576102a9610503565b5b60048111156102bc576102bb610503565b5b815260200190815260200160002060008201518160000190816102df9190610782565b5060208201518160010190816102f59190610782565b506040820151816002015590505060405180606001604052806040518060400160405280600681526020017f4c6561646572000000000000000000000000000000000000000000000000000081525081526020016040518060400160405280601881526020017f697066733a2f2f6c65616465722d62616467652d69636f6e000000000000000081525081526020016729a2241af62c000081525060016000600360048111156103a8576103a7610503565b5b60048111156103ba576103b9610503565b5b815260200190815260200160002060008201518160000190816103dd9190610782565b5060208201518160010190816103f39190610782565b506040820151816002015590505060405180606001604052806040518060400160405280600881526020017f4368616d70696f6e00000000000000000000000000000000000000000000000081525081526020016040518060400160405280601a81526020017f697066733a2f2f6368616d70696f6e2d62616467652d69636f6e0000000000008152508152602001673782dace9d900000815250600160006004808111156104a5576104a4610503565b5b60048111156104b7576104b6610503565b5b815260200190815260200160002060008201518160000190816104da9190610782565b5060208201518160010190816104f09190610782565b5060408201518160020155905050610854565b7f4e487b7100000000000000000000000000000000000000000000000000000000600052602160045260246000fd5b600081519050919050565b7f4e487b7100000000000000000000000000000000000000000000000000000000600052604160045260246000fd5b7f4e487b7100000000000000000000000000000000000000000000000000000000600052602260045260246000fd5b600060028204905060018216806105b357607f821691505b6020821081036105c6576105c561056c565b5b50919050565b60008190508160005260206000209050919050565b60006020601f8301049050919050565b600082821b905092915050565b60006008830261062e7fffffffffffffffffffffffffffffffffffffffffffffffffffffffffffffffff826105f1565b61063886836105f1565b95508019841693508086168417925050509392505050565b6000819050919050565b6000819050919050565b600061067f61067a61067584610650565b61065a565b610650565b9050919050565b6000819050919050565b61069983610664565b6106ad6106a582610686565b8484546105fe565b825550505050565b600090565b6106c26106b5565b6106cd818484610690565b505050565b5b818110156106f1576106e66000826106ba565b6001810190506106d3565b5050565b601f82111561073657610707816105cc565b610710846105e1565b8101602085101561071f578190505b61073361072b856105e1565b8301826106d2565b50505b505050565b600082821c905092915050565b60006107596000198460080261073b565b1980831691505092915050565b60006107728383610748565b9150826002028217905092915050565b61078b82610532565b67ffffffffffffffff8111156107a4576107a361053d565b5b6107ae825461059b565b6107b98282856106f5565b600060209050601f8311600181146107ec57600084156107da578287015190505b6107e48582610766565b86555061084c565b601f1984166107fa866105cc565b60005b82811015610822578489015182556001820191506020850194506020810190506107fd565b8683101561083f578489015161083b601f891682610748565b8355505b6001600288020188555050505b505050505050565b610db8806108636000396000f3fe608060405234801561001057600080fd5b50600436106100a95760003560e01c80637125a07b116100715780637125a07b1461017c5780638c95aef9146101b0578063914e72a6146101e2578063b519342514610212578063bfa0536114610230578063ca98e49e1461024e576100a9565b80630ed1d5cb146100ae5780630fb6d46a146100cc5780632899df2b146100ea5780633af0c6881461011a5780637025aac61461014a575b600080fd5b6100b661027e565b6040516100c391906108de565b60405180910390f35b6100d4610283565b6040516100e191906108de565b60405180910390f35b61010460048036038101906100ff9190610923565b610288565b6040516101119190610a46565b60405180910390f35b610134600480360381019061012f9190610ac6565b610407565b6040516101419190610b21565b60405180910390f35b610164600480360381019061015f9190610923565b610487565b60405161017393929190610b86565b60405180910390f35b61019660048036038101906101919190610bcb565b6105c1565b6040516101a7959493929190610c6f565b60405180910390f35b6101ca60048036038101906101c59190610bcb565b6107c0565b6040516101d993929190610cd0565b60405180910390f35b6101fc60048036038101906101f79190610bcb565b6107f7565b60405161020991906108de565b60405180910390f35b61021a610842565b60405161022791906108de565b60405180910390f35b610238610847565b60405161024591906108de565b60405180910390f35b61026860048036038101906102639190610bcb565b61084c565b6040516102759190610d07565b60405180910390f35b600381565b600181565b6102906108a4565b600160008360048111156102a7576102a6610bf8565b5b60048111156102b9576102b8610bf8565b5b81526020019081526020016000206040518060600160405290816000820180546102e290610d51565b80601f016020809104026020016040519081016040528092919081815260200182805461030e90610d51565b801561035b5780601f106103305761010080835404028352916020019161035b565b820191906000526020600020905b81548152906001019060200180831161033e57829003601f168201915b5050505050815260200160018201805461037490610d51565b80601f01602080910402602001604051908101604052809291908181526020018280546103a090610d51565b80156103ed5780601f106103c2576101008083540402835291602001916103ed565b820191906000526020600020905b8154815290600101906020018083116103d057829003601f168201915b505050505081526020016002820154815250509050919050565b600081600481111561041c5761041b610bf8565b5b6000808573ffffffffffffffffffffffffffffffffffffffff1673ffffffffffffffffffffffffffffffffffffffff16815260200190815260200160002060020160009054906101000a900460ff16600481111561047d5761047c610bf8565b5b1015905092915050565b60016020528060005260406000206000915090508060000180546104aa90610d51565b80601f01602080910402602001604051908101604052809291908181526020018280546104d690610d51565b80156105235780601f106104f857610100808354040283529160200191610523565b820191906000526020600020905b81548152906001019060200180831161050657829003601f168201915b50505050509080600101805461053890610d51565b80601f016020809104026020016040519081016040528092919081815260200182805461056490610d51565b80156105b15780601f10610586576101008083540402835291602001916105b1565b820191906000526020600020905b81548152906001019060200180831161059457829003601f168201915b5050505050908060020154905083565b600060608060008060008060008873ffffffffffffffffffffffffffffffffffffffff1673ffffffffffffffffffffffffffffffffffffffff168152602001908152602001600020905060008160020160009054906101000a900460ff16905060006001600083600481111561063a57610639610bf8565b5b600481111561064c5761064b610bf8565b5b815260200190815260200160002060405180606001604052908160008201805461067590610d51565b80601f01602080910402602001604051908101604052809291908181526020018280546106a190610d51565b80156106ee5780601f106106c3576101008083540402835291602001916106ee565b820191906000526020600020905b8154815290600101906020018083116106d157829003601f168201915b5050505050815260200160018201805461070790610d51565b80601f016020809104026020016040519081016040528092919081815260200182805461073390610d51565b80156107805780601f1061075557610100808354040283529160200191610780565b820191906000526020600020905b81548152906001019060200180831161076357829003601f168201915b5050505050815260200160028201548152505090508181600001518260200151836040015186600001549750975097509750975050505091939590929450565b60006020528060005260406000206000915090508060000154908060010154908060020160009054906101000a900460ff16905083565b60008060008373ffffffffffffffffffffffffffffffffffffffff1673ffffffffffffffffffffffffffffffffffffffff168152602001908152602001600020600001549050919050565b600581565b600a81565b60008060008373ffffffffffffffffffffffffffffffffffffffff1673ffffffffffffffffffffffffffffffffffffffff16815260200190815260200160002060020160009054906101000a900460ff169050919050565b60405180606001604052806060815260200160608152602001600081525090565b6000819050919050565b6108d8816108c5565b82525050565b60006020820190506108f360008301846108cf565b92915050565b600080fd5b6005811061090b57600080fd5b50565b60008135905061091d816108fe565b92915050565b600060208284031215610939576109386108f9565b5b60006109478482850161090e565b91505092915050565b600081519050919050565b600082825260208201905092915050565b60005b8381101561098a57808201518184015260208101905061096f565b60008484015250505050565b6000601f19601f8301169050919050565b60006109b282610950565b6109bc818561095b565b93506109cc81856020860161096c565b6109d581610996565b840191505092915050565b6109e9816108c5565b82525050565b60006060830160008301518482036000860152610a0c82826109a7565b91505060208301518482036020860152610a2682826109a7565b9150506040830151610a3b60408601826109e0565b508091505092915050565b60006020820190508181036000830152610a6081846109ef565b905092915050565b600073ffffffffffffffffffffffffffffffffffffffff82169050919050565b6000610a9382610a68565b9050919050565b610aa381610a88565b8114610aae57600080fd5b50565b600081359050610ac081610a9a565b92915050565b60008060408385031215610add57610adc6108f9565b5b6000610aeb85828601610ab1565b9250506020610afc8582860161090e565b9150509250929050565b60008115159050919050565b610b1b81610b06565b82525050565b6000602082019050610b366000830184610b12565b92915050565b600082825260208201905092915050565b6000610b5882610950565b610b628185610b3c565b9350610b7281856020860161096c565b610b7b81610996565b840191505092915050565b60006060820190508181036000830152610ba08186610b4d565b90508181036020830152610bb48185610b4d565b9050610bc360408301846108cf565b949350505050565b600060208284031215610be157610be06108f9565b5b6000610bef84828501610ab1565b91505092915050565b7f4e487b7100000000000000000000000000000000000000000000000000000000600052602160045260246000fd5b60058110610c3857610c37610bf8565b5b50565b6000819050610c4982610c27565b919050565b6000610c5982610c3b565b9050919050565b610c6981610c4e565b82525050565b600060a082019050610c846000830188610c60565b8181036020830152610c968187610b4d565b90508181036040830152610caa8186610b4d565b9050610cb960608301856108cf565b610cc660808301846108cf565b9695505050505050565b6000606082019050610ce560008301866108cf565b610cf260208301856108cf565b610cff6040830184610c60565b949350505050565b6000602082019050610d1c6000830184610c60565b92915050565b7f4e487b7100000000000000000000000000000000000000000000000000000000600052602260045260246000fd5b60006002820490506001821680610d6957607f821691505b602082108103610d7c57610d7b610d22565b5b5091905056fea26469706673582212203b9230dca2f8b430d43fb94c554a6a9bf6eb674749c3e9d444ff14d64c0a7a6d64736f6c634300081b0033",
  "linkReferences": {},
  "deployedLinkReferences": {}
}