{
  "_format": "hh-sol-artifact-1",
  "contractName": "VestingWallet",
  "sourceName": "@openzeppelin/contracts/finance/VestingWallet.sol",
  "abi": [
    {
      "inputs": [
        {
          "internalType": "address",
          "name": "beneficiary",
          "type": "address"
        },
        {
          "internalType": "uint64",
          "name": "startTimestamp",
          "type": "uint64"
        },
        {
          "internalType": "uint64",
          "name": "durationSeconds",
          "type": "uint64"
        }
      ],
      "stateMutability": "payable",
      "type": "constructor"
    },
    {
      "inputs": [],
      "name": "FailedCall",
      "type": "error"
    },
    {
      "inputs": [
        {
          "internalType": "uint256",
          "name": "balance",
          "type": "uint256"
        },
        {
          "internalType": "uint256",
          "name": "needed",
          "type": "uint256"
        }
      ],
      "name": "InsufficientBalance",
      "type": "error"
    },
    {
      "inputs": [
        {
          "internalType": "address",
          "name": "owner",
          "type": "address"
        }
      ],
      "name": "OwnableInvalidOwner",
      "type": "error"
    },
    {
      "inputs": [
        {
          "internalType": "address",
          "name": "account",
          "type": "address"
        }
      ],
      "name": "OwnableUnauthorizedAccount",
      "type": "error"
    },
    {
      "inputs": [
        {
          "internalType": "address",
          "name": "token",
          "type": "address"
        }
      ],
      "name": "SafeERC20FailedOperation",
      "type": "error"
    },
    {
      "anonymous": false,
      "inputs": [
        {
          "indexed": true,
          "internalType": "address",
          "name": "token",
          "type": "address"
        },
        {
          "indexed": false,
          "internalType": "uint256",
          "name": "amount",
          "type": "uint256"
        }
      ],
      "name": "ERC20Released",
      "type": "event"
    },
    {
      "anonymous": false,
      "inputs": [
        {
          "indexed": false,
          "internalType": "uint256",
          "name": "amount",
          "type": "uint256"
        }
      ],
      "name": "EtherReleased",
      "type": "event"
    },
    {
      "anonymous": false,
      "inputs": [
        {
          "indexed": true,
          "internalType": "address",
          "name": "previousOwner",
          "type": "address"
        },
        {
          "indexed": true,
          "internalType": "address",
          "name": "newOwner",
          "type": "address"
        }
      ],
      "name": "OwnershipTransferred",
      "type": "event"
    },
    {
      "inputs": [],
      "name": "duration",
      "outputs": [
        {
          "internalType": "uint256",
          "name": "",
          "type": "uint256"
        }
      ],
      "stateMutability": "view",
      "type": "function"
    },
    {
      "inputs": [],
      "name": "end",
      "outputs": [
        {
          "internalType": "uint256",
          "name": "",
          "type": "uint256"
        }
      ],
      "stateMutability": "view",
      "type": "function"
    },
    {
      "inputs": [],
      "name": "owner",
      "outputs": [
        {
          "internalType": "address",
          "name": "",
          "type": "address"
        }
      ],
      "stateMutability": "view",
      "type": "function"
    },
    {
      "inputs": [
        {
          "internalType": "address",
          "name": "token",
          "type": "address"
        }
      ],
      "name": "releasable",
      "outputs": [
        {
          "internalType": "uint256",
          "name": "",
          "type": "uint256"
        }
      ],
      "stateMutability": "view",
      "type": "function"
    },
    {
      "inputs": [],
      "name": "releasable",
      "outputs": [
        {
          "internalType": "uint256",
          "name": "",
          "type": "uint256"
        }
      ],
      "stateMutability": "view",
      "type": "function"
    },
    {
      "inputs": [
        {
          "internalType": "address",
          "name": "token",
          "type": "address"
        }
      ],
      "name": "release",
      "outputs": [],
      "stateMutability": "nonpayable",
      "type": "function"
    },
    {
      "inputs": [],
      "name": "release",
      "outputs": [],
      "stateMutability": "nonpayable",
      "type": "function"
    },
    {
      "inputs": [],
      "name": "released",
      "outputs": [
        {
          "internalType": "uint256",
          "name": "",
          "type": "uint256"
        }
      ],
      "stateMutability": "view",
      "type": "function"
    },
    {
      "inputs": [
        {
          "internalType": "address",
          "name": "token",
          "type": "address"
        }
      ],
      "name": "released",
      "outputs": [
        {
          "internalType": "uint256",
          "name": "",
          "type": "uint256"
        }
      ],
      "stateMutability": "view",
      "type": "function"
    },
    {
      "inputs": [],
      "name": "renounceOwnership",
      "outputs": [],
      "stateMutability": "nonpayable",
      "type": "function"
    },
    {
      "inputs": [],
      "name": "start",
      "outputs": [
        {
          "internalType": "uint256",
          "name": "",
          "type": "uint256"
        }
      ],
      "stateMutability": "view",
      "type": "function"
    },
    {
      "inputs": [
        {
          "internalType": "address",
          "name": "newOwner",
          "type": "address"
        }
      ],
      "name": "transferOwnership",
      "outputs": [],
      "stateMutability": "nonpayable",
      "type": "function"
    },
    {
      "inputs": [
        {
          "internalType": "uint64",
          "name": "timestamp",
          "type": "uint64"
        }
      ],
      "name": "vestedAmount",
      "outputs": [
        {
          "internalType": "uint256",
          "name": "",
          "type": "uint256"
        }
      ],
      "stateMutability": "view",
      "type": "function"
    },
    {
      "inputs": [
        {
          "internalType": "address",
          "name": "token",
          "type": "address"
        },
        {
          "internalType": "uint64",
          "name": "timestamp",
          "type": "uint64"
        }
      ],
      "name": "vestedAmount",
      "outputs": [
        {
          "internalType": "uint256",
          "name": "",
          "type": "uint256"
        }
      ],
      "stateMutability": "view",
      "type": "function"
    },
    {
      "stateMutability": "payable",
      "type": "receive"
    }
  ],
  "bytecode": "0x60c06040526040516112183803806112188339818101604052810190610025919061024f565b82600073ffffffffffffffffffffffffffffffffffffffff168173ffffffffffffffffffffffffffffffffffffffff16036100985760006040517f1e4fbdf700000000000000000000000000000000000000000000000000000000815260040161008f91906102b1565b60405180910390fd5b6100a7816100e860201b60201c565b508167ffffffffffffffff1660808167ffffffffffffffff16815250508067ffffffffffffffff1660a08167ffffffffffffffff16815250505050506102cc565b60008060009054906101000a900473ffffffffffffffffffffffffffffffffffffffff169050816000806101000a81548173ffffffffffffffffffffffffffffffffffffffff021916908373ffffffffffffffffffffffffffffffffffffffff1602179055508173ffffffffffffffffffffffffffffffffffffffff168173ffffffffffffffffffffffffffffffffffffffff167f8be0079c531659141344cd1fd0a4f28419497f9722a3daafe3b4186f6b6457e060405160405180910390a35050565b600080fd5b600073ffffffffffffffffffffffffffffffffffffffff82169050919050565b60006101dc826101b1565b9050919050565b6101ec816101d1565b81146101f757600080fd5b50565b600081519050610209816101e3565b92915050565b600067ffffffffffffffff82169050919050565b61022c8161020f565b811461023757600080fd5b50565b60008151905061024981610223565b92915050565b600080600060608486031215610268576102676101ac565b5b6000610276868287016101fa565b93505060206102878682870161023a565b92505060406102988682870161023a565b9150509250925092565b6102ab816101d1565b82525050565b60006020820190506102c660008301846102a2565b92915050565b60805160a051610f276102f1600039600061038c0152600061064b0152610f276000f3fe6080604052600436106100e15760003560e01c8063961325211161007f578063be9a655511610059578063be9a6555146102b9578063efbe1c1c146102e4578063f2fde38b1461030f578063fbccedae14610338576100e8565b806396132521146102145780639852595c1461023f578063a3f8eace1461027c576100e8565b8063715018a6116100bb578063715018a61461017e578063810ec23b1461019557806386d1a69f146101d25780638da5cb5b146101e9576100e8565b80630a17b06b146100ed5780630fb5a6b41461012a5780631916558714610155576100e8565b366100e857005b600080fd5b3480156100f957600080fd5b50610114600480360381019061010f9190610b71565b610363565b6040516101219190610bb7565b60405180910390f35b34801561013657600080fd5b5061013f610388565b60405161014c9190610bb7565b60405180910390f35b34801561016157600080fd5b5061017c60048036038101906101779190610c30565b6103ba565b005b34801561018a57600080fd5b50610193610481565b005b3480156101a157600080fd5b506101bc60048036038101906101b79190610c5d565b610495565b6040516101c99190610bb7565b60405180910390f35b3480156101de57600080fd5b506101e7610535565b005b3480156101f557600080fd5b506101fe6105a5565b60405161020b9190610cac565b60405180910390f35b34801561022057600080fd5b506102296105ce565b6040516102369190610bb7565b60405180910390f35b34801561024b57600080fd5b5061026660048036038101906102619190610c30565b6105d8565b6040516102739190610bb7565b60405180910390f35b34801561028857600080fd5b506102a3600480360381019061029e9190610c30565b610621565b6040516102b09190610bb7565b60405180910390f35b3480156102c557600080fd5b506102ce610647565b6040516102db9190610bb7565b60405180910390f35b3480156102f057600080fd5b506102f9610679565b6040516103069190610bb7565b60405180910390f35b34801561031b57600080fd5b5061033660048036038101906103319190610c30565b61069a565b005b34801561034457600080fd5b5061034d610720565b60405161035a9190610bb7565b60405180910390f35b60006103816103706105ce565b4761037b9190610cf6565b83610742565b9050919050565b60007f000000000000000000000000000000000000000000000000000000000000000067ffffffffffffffff16905090565b60006103c582610621565b905080600260008473ffffffffffffffffffffffffffffffffffffffff1673ffffffffffffffffffffffffffffffffffffffff16815260200190815260200160002060008282546104169190610cf6565b925050819055508173ffffffffffffffffffffffffffffffffffffffff167fc0e523490dd523c33b1878c9eb14ff46991e3f5b2cd33710918618f2a39cba1b826040516104639190610bb7565b60405180910390a261047d826104776105a5565b836107c9565b5050565b610489610848565b61049360006108cf565b565b600061052d6104a3846105d8565b8473ffffffffffffffffffffffffffffffffffffffff166370a08231306040518263ffffffff1660e01b81526004016104dc9190610cac565b602060405180830381865afa1580156104f9573d6000803e3d6000fd5b505050506040513d601f19601f8201168201806040525081019061051d9190610d56565b6105279190610cf6565b83610742565b905092915050565b600061053f610720565b905080600160008282546105539190610cf6565b925050819055507fda9d4e5f101b8b9b1c5b76d0c5a9f7923571acfc02376aa076b75a8c080c956b816040516105899190610bb7565b60405180910390a16105a261059c6105a5565b82610993565b50565b60008060009054906101000a900473ffffffffffffffffffffffffffffffffffffffff16905090565b6000600154905090565b6000600260008373ffffffffffffffffffffffffffffffffffffffff1673ffffffffffffffffffffffffffffffffffffffff168152602001908152602001600020549050919050565b600061062c826105d8565b6106368342610495565b6106409190610d83565b9050919050565b60007f000000000000000000000000000000000000000000000000000000000000000067ffffffffffffffff16905090565b6000610683610388565b61068b610647565b6106959190610cf6565b905090565b6106a2610848565b600073ffffffffffffffffffffffffffffffffffffffff168173ffffffffffffffffffffffffffffffffffffffff16036107145760006040517f1e4fbdf700000000000000000000000000000000000000000000000000000000815260040161070b9190610cac565b60405180910390fd5b61071d816108cf565b50565b600061072a6105ce565b61073342610363565b61073d9190610d83565b905090565b600061074c610647565b8267ffffffffffffffff16101561076657600090506107c3565b61076e610679565b8267ffffffffffffffff1610610786578290506107c3565b61078e610388565b610796610647565b8367ffffffffffffffff166107ab9190610d83565b846107b69190610db7565b6107c09190610e28565b90505b92915050565b610843838473ffffffffffffffffffffffffffffffffffffffff1663a9059cbb85856040516024016107fc929190610e59565b604051602081830303815290604052915060e01b6020820180517bffffffffffffffffffffffffffffffffffffffffffffffffffffffff8381831617835250505050610a82565b505050565b610850610b24565b73ffffffffffffffffffffffffffffffffffffffff1661086e6105a5565b73ffffffffffffffffffffffffffffffffffffffff16146108cd57610891610b24565b6040517f118cdaa70000000000000000000000000000000000000000000000000000000081526004016108c49190610cac565b60405180910390fd5b565b60008060009054906101000a900473ffffffffffffffffffffffffffffffffffffffff169050816000806101000a81548173ffffffffffffffffffffffffffffffffffffffff021916908373ffffffffffffffffffffffffffffffffffffffff1602179055508173ffffffffffffffffffffffffffffffffffffffff168173ffffffffffffffffffffffffffffffffffffffff167f8be0079c531659141344cd1fd0a4f28419497f9722a3daafe3b4186f6b6457e060405160405180910390a35050565b804710156109da5747816040517fcf4791810000000000000000000000000000000000000000000000000000000081526004016109d1929190610e82565b60405180910390fd5b60008273ffffffffffffffffffffffffffffffffffffffff1682604051610a0090610edc565b60006040518083038185875af1925050503d8060008114610a3d576040519150601f19603f3d011682016040523d82523d6000602084013e610a42565b606091505b5050905080610a7d576040517fd6bda27500000000000000000000000000000000000000000000000000000000815260040160405180910390fd5b505050565b600080602060008451602086016000885af180610aa5576040513d6000823e3d81fd5b3d925060005191505060008214610ac0576001811415610adc565b60008473ffffffffffffffffffffffffffffffffffffffff163b145b15610b1e57836040517f5274afe7000000000000000000000000000000000000000000000000000000008152600401610b159190610cac565b60405180910390fd5b50505050565b600033905090565b600080fd5b600067ffffffffffffffff82169050919050565b610b4e81610b31565b8114610b5957600080fd5b50565b600081359050610b6b81610b45565b92915050565b600060208284031215610b8757610b86610b2c565b5b6000610b9584828501610b5c565b91505092915050565b6000819050919050565b610bb181610b9e565b82525050565b6000602082019050610bcc6000830184610ba8565b92915050565b600073ffffffffffffffffffffffffffffffffffffffff82169050919050565b6000610bfd82610bd2565b9050919050565b610c0d81610bf2565b8114610c1857600080fd5b50565b600081359050610c2a81610c04565b92915050565b600060208284031215610c4657610c45610b2c565b5b6000610c5484828501610c1b565b91505092915050565b60008060408385031215610c7457610c73610b2c565b5b6000610c8285828601610c1b565b9250506020610c9385828601610b5c565b9150509250929050565b610ca681610bf2565b82525050565b6000602082019050610cc16000830184610c9d565b92915050565b7f4e487b7100000000000000000000000000000000000000000000000000000000600052601160045260246000fd5b6000610d0182610b9e565b9150610d0c83610b9e565b9250828201905080821115610d2457610d23610cc7565b5b92915050565b610d3381610b9e565b8114610d3e57600080fd5b50565b600081519050610d5081610d2a565b92915050565b600060208284031215610d6c57610d6b610b2c565b5b6000610d7a84828501610d41565b91505092915050565b6000610d8e82610b9e565b9150610d9983610b9e565b9250828203905081811115610db157610db0610cc7565b5b92915050565b6000610dc282610b9e565b9150610dcd83610b9e565b9250828202610ddb81610b9e565b91508282048414831517610df257610df1610cc7565b5b5092915050565b7f4e487b7100000000000000000000000000000000000000000000000000000000600052601260045260246000fd5b6000610e3382610b9e565b9150610e3e83610b9e565b925082610e4e57610e4d610df9565b5b828204905092915050565b6000604082019050610e6e6000830185610c9d565b610e7b6020830184610ba8565b9392505050565b6000604082019050610e976000830185610ba8565b610ea46020830184610ba8565b9392505050565b600081905092915050565b50565b6000610ec6600083610eab565b9150610ed182610eb6565b600082019050919050565b6000610ee782610eb9565b915081905091905056fea264697066735822122017e4d17a1d6aaf727d1735a4c16f0e659808738cefdd98cf43e65e12eed2af5164736f6c634300081b0033",
  "linkReferences": {},
  "deployedLinkReferences": {}
}