{
  "_format": "hh-sol-artifact-1",
  "contractName": "CommunityEngagementFacet",
  "sourceName": "contracts/CommunityEngagementFacet.sol",
  "abi": [
    {
      "inputs": [],
      "name": "ReentrancyGuardReentrantCall",
      "type": "error"
    },
    {
      "anonymous": false,
      "inputs": [
        {
          "indexed": true,
          "internalType": "uint256",
          "name": "eventId",
          "type": "uint256"
        },
        {
          "indexed": false,
          "internalType": "string",
          "name": "name",
          "type": "string"
        },
        {
          "indexed": false,
          "internalType": "address",
          "name": "creator",
          "type": "address"
        },
        {
          "indexed": false,
          "internalType": "bool",
          "name": "isOnline",
          "type": "bool"
        },
        {
          "indexed": false,
          "internalType": "string",
          "name": "location",
          "type": "string"
        }
      ],
      "name": "CommunityEventCreated",
      "type": "event"
    },
    {
      "anonymous": false,
      "inputs": [
        {
          "indexed": true,
          "internalType": "address",
          "name": "member",
          "type": "address"
        }
      ],
      "name": "CommunityMemberJoined",
      "type": "event"
    },
    {
      "anonymous": false,
      "inputs": [
        {
          "indexed": true,
          "internalType": "address",
          "name": "contributor",
          "type": "address"
        },
        {
          "indexed": false,
          "internalType": "uint256",
          "name": "amount",
          "type": "uint256"
        }
      ],
      "name": "CommunityRewardProcessed",
      "type": "event"
    },
    {
      "anonymous": false,
      "inputs": [
        {
          "indexed": true,
          "internalType": "uint256",
          "name": "eventId",
          "type": "uint256"
        },
        {
          "indexed": true,
          "internalType": "address",
          "name": "participant",
          "type": "address"
        }
      ],
      "name": "EventParticipationRecorded",
      "type": "event"
    },
    {
      "inputs": [],
      "name": "EVENT_PARTICIPATION_REWARD",
      "outputs": [
        {
          "internalType": "uint256",
          "name": "",
          "type": "uint256"
        }
      ],
      "stateMutability": "view",
      "type": "function"
    },
    {
      "inputs": [
        {
          "internalType": "string",
          "name": "name",
          "type": "string"
        },
        {
          "internalType": "uint256",
          "name": "startTime",
          "type": "uint256"
        },
        {
          "internalType": "uint256",
          "name": "endTime",
          "type": "uint256"
        },
        {
          "internalType": "uint256",
          "name": "maxParticipants",
          "type": "uint256"
        },
        {
          "internalType": "bool",
          "name": "isOnline",
          "type": "bool"
        },
        {
          "internalType": "string",
          "name": "location",
          "type": "string"
        },
        {
          "internalType": "string",
          "name": "additionalDetails",
          "type": "string"
        }
      ],
      "name": "createCommunityEvent",
      "outputs": [
        {
          "internalType": "uint256",
          "name": "",
          "type": "uint256"
        }
      ],
      "stateMutability": "nonpayable",
      "type": "function"
    },
    {
      "inputs": [
        {
          "internalType": "uint256",
          "name": "eventId",
          "type": "uint256"
        }
      ],
      "name": "deactivateEvent",
      "outputs": [],
      "stateMutability": "nonpayable",
      "type": "function"
    },
    {
      "inputs": [],
      "name": "getActiveEvents",
      "outputs": [
        {
          "components": [
            {
              "internalType": "uint256",
              "name": "id",
              "type": "uint256"
            },
            {
              "internalType": "string",
              "name": "name",
              "type": "string"
            },
            {
              "internalType": "address",
              "name": "creator",
              "type": "address"
            },
            {
              "internalType": "uint256",
              "name": "startTime",
              "type": "uint256"
            },
            {
              "internalType": "uint256",
              "name": "endTime",
              "type": "uint256"
            },
            {
              "internalType": "uint256",
              "name": "maxParticipants",
              "type": "uint256"
            },
            {
              "internalType": "uint256",
              "name": "currentParticipants",
              "type": "uint256"
            },
            {
              "internalType": "bool",
              "name": "isActive",
              "type": "bool"
            },
            {
              "internalType": "bool",
              "name": "isOnline",
              "type": "bool"
            },
            {
              "internalType": "string",
              "name": "location",
              "type": "string"
            },
            {
              "internalType": "string",
              "name": "additionalDetails",
              "type": "string"
            }
          ],
          "internalType": "struct LibDiamond.CommunityEvent[]",
          "name": "",
          "type": "tuple[]"
        }
      ],
      "stateMutability": "view",
      "type": "function"
    },
    {
      "inputs": [],
      "name": "getAllCommunityEvents",
      "outputs": [
        {
          "components": [
            {
              "internalType": "uint256",
              "name": "id",
              "type": "uint256"
            },
            {
              "internalType": "string",
              "name": "name",
              "type": "string"
            },
            {
              "internalType": "address",
              "name": "creator",
              "type": "address"
            },
            {
              "internalType": "uint256",
              "name": "startTime",
              "type": "uint256"
            },
            {
              "internalType": "uint256",
              "name": "endTime",
              "type": "uint256"
            },
            {
              "internalType": "uint256",
              "name": "maxParticipants",
              "type": "uint256"
            },
            {
              "internalType": "uint256",
              "name": "currentParticipants",
              "type": "uint256"
            },
            {
              "internalType": "bool",
              "name": "isActive",
              "type": "bool"
            },
            {
              "internalType": "bool",
              "name": "isOnline",
              "type": "bool"
            },
            {
              "internalType": "string",
              "name": "location",
              "type": "string"
            },
            {
              "internalType": "string",
              "name": "additionalDetails",
              "type": "string"
            }
          ],
          "internalType": "struct LibDiamond.CommunityEvent[]",
          "name": "",
          "type": "tuple[]"
        }
      ],
      "stateMutability": "view",
      "type": "function"
    },
    {
      "inputs": [],
      "name": "getAllCommunityMembers",
      "outputs": [
        {
          "internalType": "address[]",
          "name": "",
          "type": "address[]"
        }
      ],
      "stateMutability": "view",
      "type": "function"
    },
    {
      "inputs": [
        {
          "internalType": "uint256",
          "name": "eventId",
          "type": "uint256"
        }
      ],
      "name": "getCommunityEvent",
      "outputs": [
        {
          "components": [
            {
              "internalType": "uint256",
              "name": "id",
              "type": "uint256"
            },
            {
              "internalType": "string",
              "name": "name",
              "type": "string"
            },
            {
              "internalType": "address",
              "name": "creator",
              "type": "address"
            },
            {
              "internalType": "uint256",
              "name": "startTime",
              "type": "uint256"
            },
            {
              "internalType": "uint256",
              "name": "endTime",
              "type": "uint256"
            },
            {
              "internalType": "uint256",
              "name": "maxParticipants",
              "type": "uint256"
            },
            {
              "internalType": "uint256",
              "name": "currentParticipants",
              "type": "uint256"
            },
            {
              "internalType": "bool",
              "name": "isActive",
              "type": "bool"
            },
            {
              "internalType": "bool",
              "name": "isOnline",
              "type": "bool"
            },
            {
              "internalType": "string",
              "name": "location",
              "type": "string"
            },
            {
              "internalType": "string",
              "name": "additionalDetails",
              "type": "string"
            }
          ],
          "internalType": "struct LibDiamond.CommunityEvent",
          "name": "",
          "type": "tuple"
        }
      ],
      "stateMutability": "view",
      "type": "function"
    },
    {
      "inputs": [],
      "name": "getCommunityMemberCount",
      "outputs": [
        {
          "internalType": "uint256",
          "name": "",
          "type": "uint256"
        }
      ],
      "stateMutability": "view",
      "type": "function"
    },
    {
      "inputs": [
        {
          "internalType": "address",
          "name": "contributor",
          "type": "address"
        }
      ],
      "name": "getContributorRewards",
      "outputs": [
        {
          "internalType": "uint256",
          "name": "",
          "type": "uint256"
        }
      ],
      "stateMutability": "view",
      "type": "function"
    },
    {
      "inputs": [
        {
          "internalType": "uint256",
          "name": "eventId",
          "type": "uint256"
        }
      ],
      "name": "getEventParticipantCount",
      "outputs": [
        {
          "internalType": "uint256",
          "name": "",
          "type": "uint256"
        }
      ],
      "stateMutability": "view",
      "type": "function"
    },
    {
      "inputs": [
        {
          "internalType": "address",
          "name": "member",
          "type": "address"
        }
      ],
      "name": "isCommunityMember",
      "outputs": [
        {
          "internalType": "bool",
          "name": "",
          "type": "bool"
        }
      ],
      "stateMutability": "view",
      "type": "function"
    },
    {
      "inputs": [
        {
          "internalType": "uint256",
          "name": "eventId",
          "type": "uint256"
        }
      ],
      "name": "isEventFull",
      "outputs": [
        {
          "internalType": "bool",
          "name": "",
          "type": "bool"
        }
      ],
      "stateMutability": "view",
      "type": "function"
    },
    {
      "inputs": [
        {
          "internalType": "uint256",
          "name": "eventId",
          "type": "uint256"
        },
        {
          "internalType": "address",
          "name": "participant",
          "type": "address"
        }
      ],
      "name": "isParticipatingInEvent",
      "outputs": [
        {
          "internalType": "bool",
          "name": "",
          "type": "bool"
        }
      ],
      "stateMutability": "view",
      "type": "function"
    },
    {
      "inputs": [],
      "name": "joinCommunity",
      "outputs": [
        {
          "internalType": "bool",
          "name": "",
          "type": "bool"
        }
      ],
      "stateMutability": "nonpayable",
      "type": "function"
    },
    {
      "inputs": [
        {
          "internalType": "uint256",
          "name": "eventId",
          "type": "uint256"
        }
      ],
      "name": "participateInEvent",
      "outputs": [],
      "stateMutability": "nonpayable",
      "type": "function"
    },
    {
      "inputs": [
        {
          "internalType": "address",
          "name": "contributor",
          "type": "address"
        },
        {
          "internalType": "uint256",
          "name": "rewardAmount",
          "type": "uint256"
        },
        {
          "internalType": "string",
          "name": "reason",
          "type": "string"
        }
      ],
      "name": "processCommunityRewards",
      "outputs": [],
      "stateMutability": "nonpayable",
      "type": "function"
    }
  ],
  "bytecode": "0x6080806040523461001b576001600055611c4590816100218239f35b600080fdfe6080604052600436101561001257600080fd5b6000803560e01c8062b16fee1461148957806301570eb1146114285780631e3edfd91461140557806326a0fdf3146113c85780632f676b65146113965780633387f0c5146112b15780633612280f1461115a5780633730a1d6146110ef5780634e86049614610d0c57806354569f60146105a65780636351a1a61461031e578063957a632e14610269578063b42c39ec146101f3578063d6c5849f146101b1578063dcdc510c146101085763e8467d3b146100cc57600080fd5b3461010557602036600319011261010557600660406020926004358152600080516020611bf08339815191528452200154604051908152f35b80fd5b50346101055780600319360112610105577f12800f89bd9c895693792b2ed99fe85735259febb167c5f1cc027cdb0149c4415461014481611913565b91805b828110610160576040518061015c8682611727565b0390f35b806001918352600080516020611bf0833981519152602052604083208181541461018c575b5001610147565b61019590611a6c565b61019f8287611963565b526101aa8186611963565b5038610185565b50346101055760203660031901126101055760406020916004358152600080516020611bf0833981519152835220600560068201549101541115604051908152f35b5034610105576040366003190112610105576024356001600160a01b03811691908290036102645760409060043581527f12800f89bd9c895693792b2ed99fe85735259febb167c5f1cc027cdb0149c4446020522090600052602052602060ff604060002054166040519015158152f35b600080fd5b5034610105576020366003190112610105576004357fa9eb1bd0b8bd5d75005d4e3c25736746c884daef9ecff243b81b4cc73cfb7f9e82527fc8fcad8db84d3cc18b4c41d551ea0ee66dd599cde068d998e57d5e09332c132860205260408220336000526020526102e160ff60406000205416611b84565b808252600080516020611bf0833981519152908160205261030781604085205414611b0e565b825260205260408120600701805460ff1916905580f35b50346101055760603660031901126101055761033861162d565b906024359160443567ffffffffffffffff81116105a25761035d9036906004016117f4565b907fa9eb1bd0b8bd5d75005d4e3c25736746c884daef9ecff243b81b4cc73cfb7f9e83526020907fc8fcad8db84d3cc18b4c41d551ea0ee66dd599cde068d998e57d5e09332c13288252604084203360005282526103c260ff60406000205416611b84565b6001600160a01b0381169283156105445785156104ec57826104139160405180938192633cbc766960e11b8352600160048401528860248401528a6044840152608060648401526084830190611643565b038188305af180156104e1579061046492916104b4575b506001600160a01b031660009081527f12800f89bd9c895693792b2ed99fe85735259febb167c5f1cc027cdb0149c4456020526040902090565b9384548181018091116104a0577f2280bc91072efc646339c447080b7a9323712a5c5d65f8bd8f126b9f98bc60c693949555604051908152a280f35b634e487b7160e01b85526011600452602485fd5b6104d390843d86116104da575b6104cb81836117d2565b810190611b6c565b503861042a565b503d6104c1565b6040513d87823e3d90fd5b60405162461bcd60e51b815260048101849052602a60248201527f436f6d6d756e697479456e676167656d656e743a20496e76616c696420726577604482015269185c9908185b5bdd5b9d60b21b6064820152608490fd5b60405162461bcd60e51b815260048101849052603060248201527f436f6d6d756e697479456e676167656d656e743a20496e76616c696420636f6e60448201526f7472696275746f72206164647265737360801b6064820152608490fd5b8280fd5b50346101055760e03660031901126101055760043567ffffffffffffffff8111610d08576105d89036906004016117f4565b602435906084358015158103610d045760a43567ffffffffffffffff8111610d00576106089036906004016117f4565b60c43567ffffffffffffffff8111610cfc576106289036906004016117f4565b937fa9eb1bd0b8bd5d75005d4e3c25736746c884daef9ecff243b81b4cc73cfb7f9e86527fc8fcad8db84d3cc18b4c41d551ea0ee66dd599cde068d998e57d5e09332c1328602052604086203360005260205261068c60ff60406000205416611b84565b604435811015610ca65742811115610c475760643515610bdc577f12800f89bd9c895693792b2ed99fe85735259febb167c5f1cc027cdb0149c441948554956106d487611884565b9055604051916106e3836117b5565b8683528560208401523360408401526060830152604435608083015260643560a08301528660c0830152600160e083015283151561010083015282610120830152610140820152848652600080516020611bf08339815191526020526040862081518155602082015180519067ffffffffffffffff8211610afe57819061076d600185015461198d565b601f8111610b8c575b50602090601f8311600114610b1d578a92610b12575b50508160011b916000199060031b1c19161760018201555b6002810160018060a01b036040840151166bffffffffffffffffffffffff60a01b825416179055606082015160038201556080820151600482015560a0820151600582015560c082015160068201556007810160e08301511515815460ff61ff00610100870151151560081b1692169061ffff19161717905561012082015180519067ffffffffffffffff8211610afe57610842600884015461198d565b601f8111610aba575b50602090601f8311600114610a4757918061014094926009948c92610a3c575b50508160011b916000199060031b1c19161760088201555b0191015180519067ffffffffffffffff8211610a28576108a3835461198d565b601f81116109e3575b506020978796959493929189916001601f8511146109535792807f4e4b98d39c7a52d74c5fbd44c034f2c8a6a8d774393519181c611f4e3f52f78098969361093d9693610923999692610948575b50508160011b916000199060031b1c19161790555b604051948594608086526080860190611643565b91338a860152151560408501528382036060850152611643565b0390a2604051908152f35b0151905038806108fa565b9190601f1984168584528b8420935b8181106109c95750937f4e4b98d39c7a52d74c5fbd44c034f2c8a6a8d774393519181c611f4e3f52f78098969361093d9693600193836109239b98106109b0575b505050811b01905561090f565b015160001960f88460031b161c191690553880806109a3565b8284015185558b9a50600190940193928c01928c01610962565b83895260208920601f840160051c81019160208510610a1e575b601f0160051c01905b818110610a1357506108ac565b898155600101610a06565b90915081906109fd565b634e487b7160e01b88526041600452602488fd5b01519050388061086b565b90600884018a5260208a20918a5b601f1985168110610aa2575092610140949260019260099583601f19811610610a89575b505050811b016008820155610883565b015160001960f88460031b161c19169055388080610a79565b91926020600181928685015181550194019201610a55565b600884018a5260208a20601f840160051c810160208510610af7575b601f830160051c82018110610aec57505061084b565b8b8155600101610ad6565b5080610ad6565b634e487b7160e01b89526041600452602489fd5b01519050388061078c565b9250600184018a5260208a20908a935b601f1984168510610b71576001945083601f19811610610b58575b505050811b0160018201556107a4565b015160001960f88460031b161c19169055388080610b48565b81810151835560209485019460019093019290910190610b2d565b909150600184018a5260208a20601f840160051c810160208510610bd5575b90849392915b601f830160051c82018110610bc7575050610776565b8c8155859450600101610bb1565b5080610bab565b60405162461bcd60e51b815260206004820152603c60248201527f436f6d6d756e697479456e676167656d656e743a204d6178207061727469636960448201527f70616e7473206d7573742062652067726561746572207468616e2030000000006064820152608490fd5b60405162461bcd60e51b815260206004820152603160248201527f436f6d6d756e697479456e676167656d656e743a2053746172742074696d65206044820152706d75737420626520696e2066757475726560781b6064820152608490fd5b60405162461bcd60e51b815260206004820152602860248201527f436f6d6d756e697479456e676167656d656e743a20496e76616c69642074696d60448201526719481c195c9a5bd960c21b6064820152608490fd5b8580fd5b8480fd5b8380fd5b5080fd5b503461010557602080600319360112610d08576004359060028354146110dd576002835560ff610d3b3361184b565b54161561108157818352600080516020611bf083398151915281526040832060ff6007820154161561102b5760038101544210158061101d575b15610fc5576006810160058154920154821015610f75578385527f12800f89bd9c895693792b2ed99fe85735259febb167c5f1cc027cdb0149c444918284526040862033600052845260ff60406000205416610f0a57610dd490611884565b90558284528152604083203360005281526040600020600160ff19825416179055303b156105a25760405163cc63762560e01b81523360048201528390818160248183305af1610ef6575b5050604051633cbc766960e11b8152600160048201523360248201526729a2241af62c0000604482015260806064820152602460848201527f436f6d6d756e697479206576656e742070617274696369706174696f6e20726560a4820152631dd85c9960e21b60c4820152818160e48187305af18015610eeb57610ecd575b505033907fda53348a98ba5f15ba6c20868c74e9f06ca7b90d31df26cc6002c1a4253358678380a36001815580f35b81610ee392903d106104da576104cb81836117d2565b503880610e9e565b6040513d86823e3d90fd5b610eff9061178b565b6105a2578238610e1f565b60405162461bcd60e51b815260048101859052603860248201527f436f6d6d756e697479456e676167656d656e743a20416c72656164792070617260448201527f74696369706174696e6720696e2074686973206576656e7400000000000000006064820152608490fd5b60405162461bcd60e51b815260048101849052602260248201527f436f6d6d756e697479456e676167656d656e743a204576656e742069732066756044820152611b1b60f21b6064820152608490fd5b60405162461bcd60e51b815260048101839052602a60248201527f436f6d6d756e697479456e676167656d656e743a204576656e74206e6f7420696044820152696e2070726f677265737360b01b6064820152608490fd5b506004810154421115610d75565b60405162461bcd60e51b815260048101839052602860248201527f436f6d6d756e697479456e676167656d656e743a204576656e74206973206e6f604482015267742061637469766560c01b6064820152608490fd5b6084906040519062461bcd60e51b82526004820152602f60248201527f436f6d6d756e697479456e676167656d656e743a204d7573742062652061206360448201526e37b6b6bab734ba3c9036b2b6b132b960891b6064820152fd5b604051633ee5aeb560e01b8152600490fd5b503461010557602036600319011261010557611146604061015c926004356111156118c1565b50808252600080516020611bf0833981519152908160205261113b818585205414611b0e565b825260205220611a6c565b604051918291602083526020830190611683565b50346101055780600319360112610105577f12800f89bd9c895693792b2ed99fe85735259febb167c5f1cc027cdb0149c4415481805b82811061124357506111a190611913565b9180805b8381106111ba576040518061015c8782611727565b808252600080516020611bf08339815191526020526040822060ff60078201541680611235575b80611227575b6111f5575b506001016111a5565b6001919361120561122092611a6c565b61120f8289611963565b5261121a8188611963565b50611884565b92906111ec565b5060048101544211156111e7565b5060038101544210156111e1565b808452600080516020611bf08339815191526020526040842060ff60078201541690816112a2575b81611293575b5061127f575b600101611190565b9061128b600191611884565b919050611277565b60049150015442111538611271565b6003810154421015915061126b565b503461010557806003193601126101055760405180917f12800f89bd9c895693792b2ed99fe85735259febb167c5f1cc027cdb0149c440908154808452602080940190819383527ffa611722cd33abc6408d47dd55e454a619a1572ed99686e3c7a7956e3a67022190835b81811061137957505050846113329103856117d2565b60405193838594850191818652518092526040850193925b82811061135957505050500390f35b83516001600160a01b03168552869550938101939281019260010161134a565b82546001600160a01b03168452928601926001928301920161131c565b503461010557602036600319011261010557602060ff6113bc6113b761162d565b61184b565b54166040519015158152f35b503461010557806003193601126101055760207f12800f89bd9c895693792b2ed99fe85735259febb167c5f1cc027cdb0149c44054604051908152f35b503461010557806003193601126101055760206040516729a2241af62c00008152f35b503461010557602036600319011261010557602061148061144761162d565b6001600160a01b031660009081527f12800f89bd9c895693792b2ed99fe85735259febb167c5f1cc027cdb0149c4456020526040902090565b54604051908152f35b503461010557806003193601126101055760ff6114a53361184b565b54166115d0577f12800f89bd9c895693792b2ed99fe85735259febb167c5f1cc027cdb0149c440805490680100000000000000008210156115bc57600182018082558210156115a85782527ffa611722cd33abc6408d47dd55e454a619a1572ed99686e3c7a7956e3a67022101336bffffffffffffffffffffffff60a01b8254161790556115323361184b565b805460ff19166001179055303b156101055760405163cc63762560e01b815233600482015260209190818160248183305af1611599575b50604051907f5ac3633622c4f3d81a37d434fb11c7ab98d643d476d26b167215cd3f98ef8eac339180a260018152f35b6115a29061178b565b38611569565b634e487b7160e01b83526032600452602483fd5b634e487b7160e01b83526041600452602483fd5b60405162461bcd60e51b815260206004820152602f60248201527f436f6d6d756e697479456e676167656d656e743a20416c72656164792061206360448201526e37b6b6bab734ba3c9036b2b6b132b960891b6064820152608490fd5b600435906001600160a01b038216820361026457565b919082519283825260005b84811061166f575050826000602080949584010152601f8019910116010190565b60208183018101518483018201520161164e565b90611724916117106116a961016083518552602084015190806020870152850190611643565b60018060a01b036040840151166040850152606083015160608501526080830151608085015260a083015160a085015260c083015160c085015260e0830151151560e085015261010080840151151590850152610120808401519085830390860152611643565b916101408092015191818403910152611643565b90565b6020808201906020835283518092526040830192602060408460051b8301019501936000915b84831061175d5750505050505090565b909192939495848061177b600193603f198682030187528a51611683565b980193019301919493929061174d565b67ffffffffffffffff811161179f57604052565b634e487b7160e01b600052604160045260246000fd5b610160810190811067ffffffffffffffff82111761179f57604052565b90601f8019910116810190811067ffffffffffffffff82111761179f57604052565b81601f820112156102645780359067ffffffffffffffff821161179f5760405192611829601f8401601f1916602001856117d2565b8284526020838301011161026457816000926020809301838601378301015290565b6001600160a01b031660009081527f12800f89bd9c895693792b2ed99fe85735259febb167c5f1cc027cdb0149c4426020526040902090565b60001981146118935760010190565b634e487b7160e01b600052601160045260246000fd5b67ffffffffffffffff811161179f5760051b60200190565b604051906118ce826117b5565b606061014083600080825283602083015280604083015280848301528060808301528060a08301528060c08301528060e0830152610100820152826101208201520152565b9061191d826118a9565b61192a60405191826117d2565b828152809261193b601f19916118a9565b019060005b82811061194c57505050565b6020906119576118c1565b82828501015201611940565b80518210156119775760209160051b010190565b634e487b7160e01b600052603260045260246000fd5b90600182811c921680156119bd575b60208310146119a757565b634e487b7160e01b600052602260045260246000fd5b91607f169161199c565b906040519182600082546119da8161198d565b90818452602094600191600181169081600014611a4a5750600114611a0b575b505050611a09925003836117d2565b565b600090815285812095935091905b818310611a32575050611a0993508201013880806119fa565b85548884018501529485019487945091830191611a19565b92505050611a0994925060ff191682840152151560051b8201013880806119fa565b90604051611a79816117b5565b610140611b096009839580548552611a93600182016119c7565b602086015260028101546001600160a01b031660408601526003810154606086015260048101546080860152600581015460a0860152600681015460c0860152600781015460ff818116151560e0880152600891821c161515610100870152611afd9082016119c7565b610120860152016119c7565b910152565b15611b1557565b60405162461bcd60e51b815260206004820152602960248201527f436f6d6d756e697479456e676167656d656e743a204576656e7420646f6573206044820152681b9bdd08195e1a5cdd60ba1b6064820152608490fd5b90816020910312610264575180151581036102645790565b15611b8b57565b60405162461bcd60e51b815260206004820152603660248201527f436f6d6d756e697479456e676167656d656e743a2043616c6c657220646f65736044820152756e2774206861766520726571756972656420726f6c6560501b6064820152608490fdfe12800f89bd9c895693792b2ed99fe85735259febb167c5f1cc027cdb0149c443a26469706673582212204b335f3cc4bc0a1c8e3ce006e97c8826280e781191dd34d297d77e6d45a5342364736f6c63430008180033",
  "linkReferences": {},
  "deployedLinkReferences": {}
}