{
  "_format": "hh-sol-artifact-1",
  "contractName": "CommunityEngagementFacet",
  "sourceName": "contracts/CommunityEngagementFacet.sol",
  "abi": [
    {
      "inputs": [],
      "name": "ReentrancyGuardReentrantCall",
      "type": "error"
    },
    {
      "anonymous": false,
      "inputs": [
        {
          "indexed": true,
          "internalType": "uint256",
          "name": "eventId",
          "type": "uint256"
        },
        {
          "indexed": false,
          "internalType": "string",
          "name": "name",
          "type": "string"
        },
        {
          "indexed": false,
          "internalType": "address",
          "name": "creator",
          "type": "address"
        },
        {
          "indexed": false,
          "internalType": "bool",
          "name": "isOnline",
          "type": "bool"
        },
        {
          "indexed": false,
          "internalType": "string",
          "name": "location",
          "type": "string"
        }
      ],
      "name": "CommunityEventCreated",
      "type": "event"
    },
    {
      "anonymous": false,
      "inputs": [
        {
          "indexed": true,
          "internalType": "address",
          "name": "member",
          "type": "address"
        }
      ],
      "name": "CommunityMemberJoined",
      "type": "event"
    },
    {
      "anonymous": false,
      "inputs": [
        {
          "indexed": true,
          "internalType": "address",
          "name": "contributor",
          "type": "address"
        },
        {
          "indexed": false,
          "internalType": "uint256",
          "name": "amount",
          "type": "uint256"
        }
      ],
      "name": "CommunityRewardProcessed",
      "type": "event"
    },
    {
      "anonymous": false,
      "inputs": [
        {
          "indexed": true,
          "internalType": "uint256",
          "name": "eventId",
          "type": "uint256"
        },
        {
          "indexed": true,
          "internalType": "address",
          "name": "participant",
          "type": "address"
        }
      ],
      "name": "EventParticipationRecorded",
      "type": "event"
    },
    {
      "inputs": [],
      "name": "EVENT_PARTICIPATION_REWARD",
      "outputs": [
        {
          "internalType": "uint256",
          "name": "",
          "type": "uint256"
        }
      ],
      "stateMutability": "view",
      "type": "function"
    },
    {
      "inputs": [
        {
          "internalType": "string",
          "name": "name",
          "type": "string"
        },
        {
          "internalType": "uint256",
          "name": "startTime",
          "type": "uint256"
        },
        {
          "internalType": "uint256",
          "name": "endTime",
          "type": "uint256"
        },
        {
          "internalType": "uint256",
          "name": "maxParticipants",
          "type": "uint256"
        },
        {
          "internalType": "bool",
          "name": "isOnline",
          "type": "bool"
        },
        {
          "internalType": "string",
          "name": "location",
          "type": "string"
        },
        {
          "internalType": "string",
          "name": "additionalDetails",
          "type": "string"
        }
      ],
      "name": "createCommunityEvent",
      "outputs": [
        {
          "internalType": "uint256",
          "name": "",
          "type": "uint256"
        }
      ],
      "stateMutability": "nonpayable",
      "type": "function"
    },
    {
      "inputs": [
        {
          "internalType": "uint256",
          "name": "eventId",
          "type": "uint256"
        }
      ],
      "name": "deactivateEvent",
      "outputs": [],
      "stateMutability": "nonpayable",
      "type": "function"
    },
    {
      "inputs": [],
      "name": "getActiveEvents",
      "outputs": [
        {
          "components": [
            {
              "internalType": "uint256",
              "name": "id",
              "type": "uint256"
            },
            {
              "internalType": "string",
              "name": "name",
              "type": "string"
            },
            {
              "internalType": "address",
              "name": "creator",
              "type": "address"
            },
            {
              "internalType": "uint256",
              "name": "startTime",
              "type": "uint256"
            },
            {
              "internalType": "uint256",
              "name": "endTime",
              "type": "uint256"
            },
            {
              "internalType": "uint256",
              "name": "maxParticipants",
              "type": "uint256"
            },
            {
              "internalType": "uint256",
              "name": "currentParticipants",
              "type": "uint256"
            },
            {
              "internalType": "bool",
              "name": "isActive",
              "type": "bool"
            },
            {
              "internalType": "bool",
              "name": "isOnline",
              "type": "bool"
            },
            {
              "internalType": "string",
              "name": "location",
              "type": "string"
            },
            {
              "internalType": "string",
              "name": "additionalDetails",
              "type": "string"
            }
          ],
          "internalType": "struct LibDiamond.CommunityEvent[]",
          "name": "",
          "type": "tuple[]"
        }
      ],
      "stateMutability": "view",
      "type": "function"
    },
    {
      "inputs": [],
      "name": "getAllCommunityEvents",
      "outputs": [
        {
          "components": [
            {
              "internalType": "uint256",
              "name": "id",
              "type": "uint256"
            },
            {
              "internalType": "string",
              "name": "name",
              "type": "string"
            },
            {
              "internalType": "address",
              "name": "creator",
              "type": "address"
            },
            {
              "internalType": "uint256",
              "name": "startTime",
              "type": "uint256"
            },
            {
              "internalType": "uint256",
              "name": "endTime",
              "type": "uint256"
            },
            {
              "internalType": "uint256",
              "name": "maxParticipants",
              "type": "uint256"
            },
            {
              "internalType": "uint256",
              "name": "currentParticipants",
              "type": "uint256"
            },
            {
              "internalType": "bool",
              "name": "isActive",
              "type": "bool"
            },
            {
              "internalType": "bool",
              "name": "isOnline",
              "type": "bool"
            },
            {
              "internalType": "string",
              "name": "location",
              "type": "string"
            },
            {
              "internalType": "string",
              "name": "additionalDetails",
              "type": "string"
            }
          ],
          "internalType": "struct LibDiamond.CommunityEvent[]",
          "name": "",
          "type": "tuple[]"
        }
      ],
      "stateMutability": "view",
      "type": "function"
    },
    {
      "inputs": [],
      "name": "getAllCommunityMembers",
      "outputs": [
        {
          "internalType": "address[]",
          "name": "",
          "type": "address[]"
        }
      ],
      "stateMutability": "view",
      "type": "function"
    },
    {
      "inputs": [
        {
          "internalType": "uint256",
          "name": "eventId",
          "type": "uint256"
        }
      ],
      "name": "getCommunityEvent",
      "outputs": [
        {
          "components": [
            {
              "internalType": "uint256",
              "name": "id",
              "type": "uint256"
            },
            {
              "internalType": "string",
              "name": "name",
              "type": "string"
            },
            {
              "internalType": "address",
              "name": "creator",
              "type": "address"
            },
            {
              "internalType": "uint256",
              "name": "startTime",
              "type": "uint256"
            },
            {
              "internalType": "uint256",
              "name": "endTime",
              "type": "uint256"
            },
            {
              "internalType": "uint256",
              "name": "maxParticipants",
              "type": "uint256"
            },
            {
              "internalType": "uint256",
              "name": "currentParticipants",
              "type": "uint256"
            },
            {
              "internalType": "bool",
              "name": "isActive",
              "type": "bool"
            },
            {
              "internalType": "bool",
              "name": "isOnline",
              "type": "bool"
            },
            {
              "internalType": "string",
              "name": "location",
              "type": "string"
            },
            {
              "internalType": "string",
              "name": "additionalDetails",
              "type": "string"
            }
          ],
          "internalType": "struct LibDiamond.CommunityEvent",
          "name": "",
          "type": "tuple"
        }
      ],
      "stateMutability": "view",
      "type": "function"
    },
    {
      "inputs": [],
      "name": "getCommunityMemberCount",
      "outputs": [
        {
          "internalType": "uint256",
          "name": "",
          "type": "uint256"
        }
      ],
      "stateMutability": "view",
      "type": "function"
    },
    {
      "inputs": [
        {
          "internalType": "address",
          "name": "contributor",
          "type": "address"
        }
      ],
      "name": "getContributorRewards",
      "outputs": [
        {
          "internalType": "uint256",
          "name": "",
          "type": "uint256"
        }
      ],
      "stateMutability": "view",
      "type": "function"
    },
    {
      "inputs": [
        {
          "internalType": "uint256",
          "name": "eventId",
          "type": "uint256"
        }
      ],
      "name": "getEventParticipantCount",
      "outputs": [
        {
          "internalType": "uint256",
          "name": "",
          "type": "uint256"
        }
      ],
      "stateMutability": "view",
      "type": "function"
    },
    {
      "inputs": [
        {
          "internalType": "address",
          "name": "member",
          "type": "address"
        }
      ],
      "name": "isCommunityMember",
      "outputs": [
        {
          "internalType": "bool",
          "name": "",
          "type": "bool"
        }
      ],
      "stateMutability": "view",
      "type": "function"
    },
    {
      "inputs": [
        {
          "internalType": "uint256",
          "name": "eventId",
          "type": "uint256"
        }
      ],
      "name": "isEventFull",
      "outputs": [
        {
          "internalType": "bool",
          "name": "",
          "type": "bool"
        }
      ],
      "stateMutability": "view",
      "type": "function"
    },
    {
      "inputs": [
        {
          "internalType": "uint256",
          "name": "eventId",
          "type": "uint256"
        },
        {
          "internalType": "address",
          "name": "participant",
          "type": "address"
        }
      ],
      "name": "isParticipatingInEvent",
      "outputs": [
        {
          "internalType": "bool",
          "name": "",
          "type": "bool"
        }
      ],
      "stateMutability": "view",
      "type": "function"
    },
    {
      "inputs": [],
      "name": "joinCommunity",
      "outputs": [
        {
          "internalType": "bool",
          "name": "",
          "type": "bool"
        }
      ],
      "stateMutability": "nonpayable",
      "type": "function"
    },
    {
      "inputs": [
        {
          "internalType": "uint256",
          "name": "eventId",
          "type": "uint256"
        }
      ],
      "name": "participateInEvent",
      "outputs": [],
      "stateMutability": "nonpayable",
      "type": "function"
    },
    {
      "inputs": [
        {
          "internalType": "address",
          "name": "contributor",
          "type": "address"
        },
        {
          "internalType": "uint256",
          "name": "rewardAmount",
          "type": "uint256"
        },
        {
          "internalType": "string",
          "name": "reason",
          "type": "string"
        }
      ],
      "name": "processCommunityRewards",
      "outputs": [],
      "stateMutability": "nonpayable",
      "type": "function"
    }
  ],
  "bytecode": "0x6080806040523461001b576001600055611c3790816100218239f35b600080fdfe6080604052600436101561001257600080fd5b6000803560e01c8062b16fee1461147b57806301570eb11461141a5780631e3edfd9146113f757806326a0fdf3146113ba5780632f676b65146113885780633387f0c5146112a35780633612280f1461114c5780633730a1d6146110e15780634e86049614610d0557806354569f601461059f5780636351a1a61461031e578063957a632e14610269578063b42c39ec146101f3578063d6c5849f146101b1578063dcdc510c146101085763e8467d3b146100cc57600080fd5b3461010557602036600319011261010557600660406020926004358152600080516020611be28339815191528452200154604051908152f35b80fd5b50346101055780600319360112610105577f12800f89bd9c895693792b2ed99fe85735259febb167c5f1cc027cdb0149c4415461014481611905565b91805b828110610160576040518061015c8682611719565b0390f35b806001918352600080516020611be2833981519152602052604083208181541461018c575b5001610147565b61019590611a5e565b61019f8287611955565b526101aa8186611955565b5038610185565b50346101055760203660031901126101055760406020916004358152600080516020611be2833981519152835220600560068201549101541115604051908152f35b5034610105576040366003190112610105576024356001600160a01b03811691908290036102645760409060043581527f12800f89bd9c895693792b2ed99fe85735259febb167c5f1cc027cdb0149c4446020522090600052602052602060ff604060002054166040519015158152f35b600080fd5b5034610105576020366003190112610105576004357fa9eb1bd0b8bd5d75005d4e3c25736746c884daef9ecff243b81b4cc73cfb7f9e82527fc8fcad8db84d3cc18b4c41d551ea0ee66dd599cde068d998e57d5e09332c132860205260408220336000526020526102e160ff60406000205416611b76565b808252600080516020611be2833981519152908160205261030781604085205414611b00565b825260205260408120600701805460ff1916905580f35b50346101055760603660031901126101055761033861161f565b906024359160443567ffffffffffffffff811161059b5761035d9036906004016117e6565b907fa9eb1bd0b8bd5d75005d4e3c25736746c884daef9ecff243b81b4cc73cfb7f9e83526020907fc8fcad8db84d3cc18b4c41d551ea0ee66dd599cde068d998e57d5e09332c13288252604084203360005282526103c260ff60406000205416611b76565b6001600160a01b03811692831561053d5785156104e5578261040c916040518093819263e67524a360e01b83528860048401528a6024840152606060448401526064830190611635565b038188305af180156104da579061045d92916104ad575b506001600160a01b031660009081527f12800f89bd9c895693792b2ed99fe85735259febb167c5f1cc027cdb0149c4456020526040902090565b938454818101809111610499577f2280bc91072efc646339c447080b7a9323712a5c5d65f8bd8f126b9f98bc60c693949555604051908152a280f35b634e487b7160e01b85526011600452602485fd5b6104cc90843d86116104d3575b6104c481836117c4565b810190611b5e565b5038610423565b503d6104ba565b6040513d87823e3d90fd5b60405162461bcd60e51b815260048101849052602a60248201527f436f6d6d756e697479456e676167656d656e743a20496e76616c696420726577604482015269185c9908185b5bdd5b9d60b21b6064820152608490fd5b60405162461bcd60e51b815260048101849052603060248201527f436f6d6d756e697479456e676167656d656e743a20496e76616c696420636f6e60448201526f7472696275746f72206164647265737360801b6064820152608490fd5b8280fd5b50346101055760e03660031901126101055760043567ffffffffffffffff8111610d01576105d19036906004016117e6565b602435906084358015158103610cfd5760a43567ffffffffffffffff8111610cf9576106019036906004016117e6565b60c43567ffffffffffffffff8111610cf5576106219036906004016117e6565b937fa9eb1bd0b8bd5d75005d4e3c25736746c884daef9ecff243b81b4cc73cfb7f9e86527fc8fcad8db84d3cc18b4c41d551ea0ee66dd599cde068d998e57d5e09332c1328602052604086203360005260205261068560ff60406000205416611b76565b604435811015610c9f5742811115610c405760643515610bd5577f12800f89bd9c895693792b2ed99fe85735259febb167c5f1cc027cdb0149c441948554956106cd87611876565b9055604051916106dc836117a7565b8683528560208401523360408401526060830152604435608083015260643560a08301528660c0830152600160e083015283151561010083015282610120830152610140820152848652600080516020611be28339815191526020526040862081518155602082015180519067ffffffffffffffff8211610af7578190610766600185015461197f565b601f8111610b85575b50602090601f8311600114610b16578a92610b0b575b50508160011b916000199060031b1c19161760018201555b6002810160018060a01b036040840151166bffffffffffffffffffffffff60a01b825416179055606082015160038201556080820151600482015560a0820151600582015560c082015160068201556007810160e08301511515815460ff61ff00610100870151151560081b1692169061ffff19161717905561012082015180519067ffffffffffffffff8211610af75761083b600884015461197f565b601f8111610ab3575b50602090601f8311600114610a4057918061014094926009948c92610a35575b50508160011b916000199060031b1c19161760088201555b0191015180519067ffffffffffffffff8211610a215761089c835461197f565b601f81116109dc575b506020978796959493929189916001601f85111461094c5792807f4e4b98d39c7a52d74c5fbd44c034f2c8a6a8d774393519181c611f4e3f52f780989693610936969361091c999692610941575b50508160011b916000199060031b1c19161790555b604051948594608086526080860190611635565b91338a860152151560408501528382036060850152611635565b0390a2604051908152f35b0151905038806108f3565b9190601f1984168584528b8420935b8181106109c25750937f4e4b98d39c7a52d74c5fbd44c034f2c8a6a8d774393519181c611f4e3f52f78098969361093696936001938361091c9b98106109a9575b505050811b019055610908565b015160001960f88460031b161c1916905538808061099c565b8284015185558b9a50600190940193928c01928c0161095b565b83895260208920601f840160051c81019160208510610a17575b601f0160051c01905b818110610a0c57506108a5565b8981556001016109ff565b90915081906109f6565b634e487b7160e01b88526041600452602488fd5b015190503880610864565b90600884018a5260208a20918a5b601f1985168110610a9b575092610140949260019260099583601f19811610610a82575b505050811b01600882015561087c565b015160001960f88460031b161c19169055388080610a72565b91926020600181928685015181550194019201610a4e565b600884018a5260208a20601f840160051c810160208510610af0575b601f830160051c82018110610ae5575050610844565b8b8155600101610acf565b5080610acf565b634e487b7160e01b89526041600452602489fd5b015190503880610785565b9250600184018a5260208a20908a935b601f1984168510610b6a576001945083601f19811610610b51575b505050811b01600182015561079d565b015160001960f88460031b161c19169055388080610b41565b81810151835560209485019460019093019290910190610b26565b909150600184018a5260208a20601f840160051c810160208510610bce575b90849392915b601f830160051c82018110610bc057505061076f565b8c8155859450600101610baa565b5080610ba4565b60405162461bcd60e51b815260206004820152603c60248201527f436f6d6d756e697479456e676167656d656e743a204d6178207061727469636960448201527f70616e7473206d7573742062652067726561746572207468616e2030000000006064820152608490fd5b60405162461bcd60e51b815260206004820152603160248201527f436f6d6d756e697479456e676167656d656e743a2053746172742074696d65206044820152706d75737420626520696e2066757475726560781b6064820152608490fd5b60405162461bcd60e51b815260206004820152602860248201527f436f6d6d756e697479456e676167656d656e743a20496e76616c69642074696d60448201526719481c195c9a5bd960c21b6064820152608490fd5b8580fd5b8480fd5b8380fd5b5080fd5b503461010557602080600319360112610d01576004359060028354146110cf576002835560ff610d343361183d565b54161561107357818352600080516020611be283398151915281526040832060ff6007820154161561101d5760038101544210158061100f575b15610fb7576006810160058154920154821015610f67578385527f12800f89bd9c895693792b2ed99fe85735259febb167c5f1cc027cdb0149c444918284526040862033600052845260ff60406000205416610efc57610dcd90611876565b90558284528152604083203360005281526040600020600160ff19825416179055303b1561059b5760405163cc63762560e01b81523360048201528390818160248183305af1610ee8575b505060405163e67524a360e01b81523360048201526729a2241af62c0000602482015260606044820152602460648201527f436f6d6d756e697479206576656e742070617274696369706174696f6e2072656084820152631dd85c9960e21b60a4820152818160c48187305af18015610edd57610ebf575b505033907fda53348a98ba5f15ba6c20868c74e9f06ca7b90d31df26cc6002c1a4253358678380a36001815580f35b81610ed592903d106104d3576104c481836117c4565b503880610e90565b6040513d86823e3d90fd5b610ef19061177d565b61059b578238610e18565b60405162461bcd60e51b815260048101859052603860248201527f436f6d6d756e697479456e676167656d656e743a20416c72656164792070617260448201527f74696369706174696e6720696e2074686973206576656e7400000000000000006064820152608490fd5b60405162461bcd60e51b815260048101849052602260248201527f436f6d6d756e697479456e676167656d656e743a204576656e742069732066756044820152611b1b60f21b6064820152608490fd5b60405162461bcd60e51b815260048101839052602a60248201527f436f6d6d756e697479456e676167656d656e743a204576656e74206e6f7420696044820152696e2070726f677265737360b01b6064820152608490fd5b506004810154421115610d6e565b60405162461bcd60e51b815260048101839052602860248201527f436f6d6d756e697479456e676167656d656e743a204576656e74206973206e6f604482015267742061637469766560c01b6064820152608490fd5b6084906040519062461bcd60e51b82526004820152602f60248201527f436f6d6d756e697479456e676167656d656e743a204d7573742062652061206360448201526e37b6b6bab734ba3c9036b2b6b132b960891b6064820152fd5b604051633ee5aeb560e01b8152600490fd5b503461010557602036600319011261010557611138604061015c926004356111076118b3565b50808252600080516020611be2833981519152908160205261112d818585205414611b00565b825260205220611a5e565b604051918291602083526020830190611675565b50346101055780600319360112610105577f12800f89bd9c895693792b2ed99fe85735259febb167c5f1cc027cdb0149c4415481805b828110611235575061119390611905565b9180805b8381106111ac576040518061015c8782611719565b808252600080516020611be28339815191526020526040822060ff60078201541680611227575b80611219575b6111e7575b50600101611197565b600191936111f761121292611a5e565b6112018289611955565b5261120c8188611955565b50611876565b92906111de565b5060048101544211156111d9565b5060038101544210156111d3565b808452600080516020611be28339815191526020526040842060ff6007820154169081611294575b81611285575b50611271575b600101611182565b9061127d600191611876565b919050611269565b60049150015442111538611263565b6003810154421015915061125d565b503461010557806003193601126101055760405180917f12800f89bd9c895693792b2ed99fe85735259febb167c5f1cc027cdb0149c440908154808452602080940190819383527ffa611722cd33abc6408d47dd55e454a619a1572ed99686e3c7a7956e3a67022190835b81811061136b57505050846113249103856117c4565b60405193838594850191818652518092526040850193925b82811061134b57505050500390f35b83516001600160a01b03168552869550938101939281019260010161133c565b82546001600160a01b03168452928601926001928301920161130e565b503461010557602036600319011261010557602060ff6113ae6113a961161f565b61183d565b54166040519015158152f35b503461010557806003193601126101055760207f12800f89bd9c895693792b2ed99fe85735259febb167c5f1cc027cdb0149c44054604051908152f35b503461010557806003193601126101055760206040516729a2241af62c00008152f35b503461010557602036600319011261010557602061147261143961161f565b6001600160a01b031660009081527f12800f89bd9c895693792b2ed99fe85735259febb167c5f1cc027cdb0149c4456020526040902090565b54604051908152f35b503461010557806003193601126101055760ff6114973361183d565b54166115c2577f12800f89bd9c895693792b2ed99fe85735259febb167c5f1cc027cdb0149c440805490680100000000000000008210156115ae576001820180825582101561159a5782527ffa611722cd33abc6408d47dd55e454a619a1572ed99686e3c7a7956e3a67022101336bffffffffffffffffffffffff60a01b8254161790556115243361183d565b805460ff19166001179055303b156101055760405163cc63762560e01b815233600482015260209190818160248183305af161158b575b50604051907f5ac3633622c4f3d81a37d434fb11c7ab98d643d476d26b167215cd3f98ef8eac339180a260018152f35b6115949061177d565b3861155b565b634e487b7160e01b83526032600452602483fd5b634e487b7160e01b83526041600452602483fd5b60405162461bcd60e51b815260206004820152602f60248201527f436f6d6d756e697479456e676167656d656e743a20416c72656164792061206360448201526e37b6b6bab734ba3c9036b2b6b132b960891b6064820152608490fd5b600435906001600160a01b038216820361026457565b919082519283825260005b848110611661575050826000602080949584010152601f8019910116010190565b602081830181015184830182015201611640565b906117169161170261169b61016083518552602084015190806020870152850190611635565b60018060a01b036040840151166040850152606083015160608501526080830151608085015260a083015160a085015260c083015160c085015260e0830151151560e085015261010080840151151590850152610120808401519085830390860152611635565b916101408092015191818403910152611635565b90565b6020808201906020835283518092526040830192602060408460051b8301019501936000915b84831061174f5750505050505090565b909192939495848061176d600193603f198682030187528a51611675565b980193019301919493929061173f565b67ffffffffffffffff811161179157604052565b634e487b7160e01b600052604160045260246000fd5b610160810190811067ffffffffffffffff82111761179157604052565b90601f8019910116810190811067ffffffffffffffff82111761179157604052565b81601f820112156102645780359067ffffffffffffffff8211611791576040519261181b601f8401601f1916602001856117c4565b8284526020838301011161026457816000926020809301838601378301015290565b6001600160a01b031660009081527f12800f89bd9c895693792b2ed99fe85735259febb167c5f1cc027cdb0149c4426020526040902090565b60001981146118855760010190565b634e487b7160e01b600052601160045260246000fd5b67ffffffffffffffff81116117915760051b60200190565b604051906118c0826117a7565b606061014083600080825283602083015280604083015280848301528060808301528060a08301528060c08301528060e0830152610100820152826101208201520152565b9061190f8261189b565b61191c60405191826117c4565b828152809261192d601f199161189b565b019060005b82811061193e57505050565b6020906119496118b3565b82828501015201611932565b80518210156119695760209160051b010190565b634e487b7160e01b600052603260045260246000fd5b90600182811c921680156119af575b602083101461199957565b634e487b7160e01b600052602260045260246000fd5b91607f169161198e565b906040519182600082546119cc8161197f565b90818452602094600191600181169081600014611a3c57506001146119fd575b5050506119fb925003836117c4565b565b600090815285812095935091905b818310611a245750506119fb93508201013880806119ec565b85548884018501529485019487945091830191611a0b565b925050506119fb94925060ff191682840152151560051b8201013880806119ec565b90604051611a6b816117a7565b610140611afb6009839580548552611a85600182016119b9565b602086015260028101546001600160a01b031660408601526003810154606086015260048101546080860152600581015460a0860152600681015460c0860152600781015460ff818116151560e0880152600891821c161515610100870152611aef9082016119b9565b610120860152016119b9565b910152565b15611b0757565b60405162461bcd60e51b815260206004820152602960248201527f436f6d6d756e697479456e676167656d656e743a204576656e7420646f6573206044820152681b9bdd08195e1a5cdd60ba1b6064820152608490fd5b90816020910312610264575180151581036102645790565b15611b7d57565b60405162461bcd60e51b815260206004820152603660248201527f436f6d6d756e697479456e676167656d656e743a2043616c6c657220646f65736044820152756e2774206861766520726571756972656420726f6c6560501b6064820152608490fdfe12800f89bd9c895693792b2ed99fe85735259febb167c5f1cc027cdb0149c443a2646970667358221220f54b3113c49cc122344bdbc48c4fab47204624b1ee7db7b620b36ba8ea9a174464736f6c63430008180033",
  "linkReferences": {},
  "deployedLinkReferences": {}
}