{
  "_format": "hh-sol-artifact-1",
  "contractName": "Vesting",
  "sourceName": "contracts/Vesting.sol",
  "abi": [
    {
      "inputs": [
        {
          "internalType": "address[]",
          "name": "_reviewers",
          "type": "address[]"
        }
      ],
      "stateMutability": "nonpayable",
      "type": "constructor"
    },
    {
      "inputs": [],
      "name": "AccessControlBadConfirmation",
      "type": "error"
    },
    {
      "inputs": [
        {
          "internalType": "address",
          "name": "account",
          "type": "address"
        },
        {
          "internalType": "bytes32",
          "name": "neededRole",
          "type": "bytes32"
        }
      ],
      "name": "AccessControlUnauthorizedAccount",
      "type": "error"
    },
    {
      "inputs": [
        {
          "internalType": "address",
          "name": "spender",
          "type": "address"
        },
        {
          "internalType": "uint256",
          "name": "allowance",
          "type": "uint256"
        },
        {
          "internalType": "uint256",
          "name": "needed",
          "type": "uint256"
        }
      ],
      "name": "ERC20InsufficientAllowance",
      "type": "error"
    },
    {
      "inputs": [
        {
          "internalType": "address",
          "name": "sender",
          "type": "address"
        },
        {
          "internalType": "uint256",
          "name": "balance",
          "type": "uint256"
        },
        {
          "internalType": "uint256",
          "name": "needed",
          "type": "uint256"
        }
      ],
      "name": "ERC20InsufficientBalance",
      "type": "error"
    },
    {
      "inputs": [
        {
          "internalType": "address",
          "name": "approver",
          "type": "address"
        }
      ],
      "name": "ERC20InvalidApprover",
      "type": "error"
    },
    {
      "inputs": [
        {
          "internalType": "address",
          "name": "receiver",
          "type": "address"
        }
      ],
      "name": "ERC20InvalidReceiver",
      "type": "error"
    },
    {
      "inputs": [
        {
          "internalType": "address",
          "name": "sender",
          "type": "address"
        }
      ],
      "name": "ERC20InvalidSender",
      "type": "error"
    },
    {
      "inputs": [
        {
          "internalType": "address",
          "name": "spender",
          "type": "address"
        }
      ],
      "name": "ERC20InvalidSpender",
      "type": "error"
    },
    {
      "anonymous": false,
      "inputs": [
        {
          "indexed": true,
          "internalType": "address",
          "name": "beneficiary",
          "type": "address"
        },
        {
          "indexed": false,
          "internalType": "string",
          "name": "role",
          "type": "string"
        }
      ],
      "name": "AddressAdded",
      "type": "event"
    },
    {
      "anonymous": false,
      "inputs": [
        {
          "indexed": true,
          "internalType": "address",
          "name": "beneficiary",
          "type": "address"
        },
        {
          "indexed": false,
          "internalType": "string",
          "name": "role",
          "type": "string"
        }
      ],
      "name": "AddressRemoved",
      "type": "event"
    },
    {
      "anonymous": false,
      "inputs": [
        {
          "indexed": true,
          "internalType": "address",
          "name": "owner",
          "type": "address"
        },
        {
          "indexed": true,
          "internalType": "address",
          "name": "spender",
          "type": "address"
        },
        {
          "indexed": false,
          "internalType": "uint256",
          "name": "value",
          "type": "uint256"
        }
      ],
      "name": "Approval",
      "type": "event"
    },
    {
      "anonymous": false,
      "inputs": [
        {
          "indexed": true,
          "internalType": "address",
          "name": "_account",
          "type": "address"
        },
        {
          "indexed": false,
          "internalType": "uint256",
          "name": "_amount",
          "type": "uint256"
        }
      ],
      "name": "BurnSuccess",
      "type": "event"
    },
    {
      "anonymous": false,
      "inputs": [
        {
          "indexed": true,
          "internalType": "address",
          "name": "_to",
          "type": "address"
        },
        {
          "indexed": true,
          "internalType": "uint256",
          "name": "_amount",
          "type": "uint256"
        }
      ],
      "name": "MintSuccess",
      "type": "event"
    },
    {
      "anonymous": false,
      "inputs": [
        {
          "indexed": true,
          "internalType": "uint256",
          "name": "proposalId",
          "type": "uint256"
        },
        {
          "indexed": false,
          "internalType": "address",
          "name": "approver",
          "type": "address"
        }
      ],
      "name": "MultiSigProposalApproved",
      "type": "event"
    },
    {
      "anonymous": false,
      "inputs": [
        {
          "indexed": true,
          "internalType": "uint256",
          "name": "proposalId",
          "type": "uint256"
        },
        {
          "indexed": false,
          "internalType": "address",
          "name": "proposer",
          "type": "address"
        }
      ],
      "name": "MultiSigProposalCreated",
      "type": "event"
    },
    {
      "anonymous": false,
      "inputs": [
        {
          "indexed": true,
          "internalType": "uint256",
          "name": "proposalId",
          "type": "uint256"
        }
      ],
      "name": "MultiSigProposalExecuted",
      "type": "event"
    },
    {
      "anonymous": false,
      "inputs": [
        {
          "indexed": true,
          "internalType": "address",
          "name": "reviewer",
          "type": "address"
        }
      ],
      "name": "ReviewerAddedToPool",
      "type": "event"
    },
    {
      "anonymous": false,
      "inputs": [
        {
          "indexed": true,
          "internalType": "address",
          "name": "reviewer",
          "type": "address"
        }
      ],
      "name": "ReviewerRemovedFromPool",
      "type": "event"
    },
    {
      "anonymous": false,
      "inputs": [
        {
          "indexed": true,
          "internalType": "bytes32",
          "name": "role",
          "type": "bytes32"
        },
        {
          "indexed": true,
          "internalType": "bytes32",
          "name": "previousAdminRole",
          "type": "bytes32"
        },
        {
          "indexed": true,
          "internalType": "bytes32",
          "name": "newAdminRole",
          "type": "bytes32"
        }
      ],
      "name": "RoleAdminChanged",
      "type": "event"
    },
    {
      "anonymous": false,
      "inputs": [
        {
          "indexed": true,
          "internalType": "bytes32",
          "name": "role",
          "type": "bytes32"
        },
        {
          "indexed": true,
          "internalType": "address",
          "name": "account",
          "type": "address"
        },
        {
          "indexed": true,
          "internalType": "address",
          "name": "sender",
          "type": "address"
        }
      ],
      "name": "RoleGranted",
      "type": "event"
    },
    {
      "anonymous": false,
      "inputs": [
        {
          "indexed": true,
          "internalType": "bytes32",
          "name": "role",
          "type": "bytes32"
        },
        {
          "indexed": true,
          "internalType": "address",
          "name": "account",
          "type": "address"
        },
        {
          "indexed": true,
          "internalType": "address",
          "name": "sender",
          "type": "address"
        }
      ],
      "name": "RoleRevoked",
      "type": "event"
    },
    {
      "anonymous": false,
      "inputs": [
        {
          "indexed": true,
          "internalType": "address",
          "name": "beneficiary",
          "type": "address"
        },
        {
          "indexed": false,
          "internalType": "uint256",
          "name": "amount",
          "type": "uint256"
        }
      ],
      "name": "TokensLocked",
      "type": "event"
    },
    {
      "anonymous": false,
      "inputs": [
        {
          "indexed": true,
          "internalType": "address",
          "name": "beneficiary",
          "type": "address"
        },
        {
          "indexed": false,
          "internalType": "uint256",
          "name": "amount",
          "type": "uint256"
        }
      ],
      "name": "TokensReleased",
      "type": "event"
    },
    {
      "anonymous": false,
      "inputs": [
        {
          "indexed": true,
          "internalType": "address",
          "name": "from",
          "type": "address"
        },
        {
          "indexed": true,
          "internalType": "address",
          "name": "to",
          "type": "address"
        },
        {
          "indexed": false,
          "internalType": "uint256",
          "name": "value",
          "type": "uint256"
        }
      ],
      "name": "Transfer",
      "type": "event"
    },
    {
      "inputs": [],
      "name": "ADVISOR_ROLE",
      "outputs": [
        {
          "internalType": "bytes32",
          "name": "",
          "type": "bytes32"
        }
      ],
      "stateMutability": "view",
      "type": "function"
    },
    {
      "inputs": [],
      "name": "DEFAULT_ADMIN_ROLE",
      "outputs": [
        {
          "internalType": "bytes32",
          "name": "",
          "type": "bytes32"
        }
      ],
      "stateMutability": "view",
      "type": "function"
    },
    {
      "inputs": [],
      "name": "INVESTOR_ROLE",
      "outputs": [
        {
          "internalType": "bytes32",
          "name": "",
          "type": "bytes32"
        }
      ],
      "stateMutability": "view",
      "type": "function"
    },
    {
      "inputs": [],
      "name": "MAX_SUPPLY",
      "outputs": [
        {
          "internalType": "uint256",
          "name": "",
          "type": "uint256"
        }
      ],
      "stateMutability": "view",
      "type": "function"
    },
    {
      "inputs": [],
      "name": "MULTISIG_APPROVER",
      "outputs": [
        {
          "internalType": "bytes32",
          "name": "",
          "type": "bytes32"
        }
      ],
      "stateMutability": "view",
      "type": "function"
    },
    {
      "inputs": [],
      "name": "REVIEWER_ROLE",
      "outputs": [
        {
          "internalType": "bytes32",
          "name": "",
          "type": "bytes32"
        }
      ],
      "stateMutability": "view",
      "type": "function"
    },
    {
      "inputs": [],
      "name": "TEAM_ROLE",
      "outputs": [
        {
          "internalType": "bytes32",
          "name": "",
          "type": "bytes32"
        }
      ],
      "stateMutability": "view",
      "type": "function"
    },
    {
      "inputs": [],
      "name": "VESTING_POOL",
      "outputs": [
        {
          "internalType": "uint256",
          "name": "",
          "type": "uint256"
        }
      ],
      "stateMutability": "view",
      "type": "function"
    },
    {
      "inputs": [
        {
          "internalType": "address",
          "name": "newReviewer",
          "type": "address"
        }
      ],
      "name": "addReviewer",
      "outputs": [],
      "stateMutability": "nonpayable",
      "type": "function"
    },
    {
      "inputs": [
        {
          "internalType": "address",
          "name": "beneficiary",
          "type": "address"
        }
      ],
      "name": "addTeamMember",
      "outputs": [],
      "stateMutability": "nonpayable",
      "type": "function"
    },
    {
      "inputs": [
        {
          "internalType": "address",
          "name": "beneficiary",
          "type": "address"
        }
      ],
      "name": "addToAdvisors",
      "outputs": [],
      "stateMutability": "nonpayable",
      "type": "function"
    },
    {
      "inputs": [
        {
          "internalType": "address",
          "name": "beneficiary",
          "type": "address"
        }
      ],
      "name": "addToInvestors",
      "outputs": [],
      "stateMutability": "nonpayable",
      "type": "function"
    },
    {
      "inputs": [
        {
          "internalType": "uint256",
          "name": "",
          "type": "uint256"
        }
      ],
      "name": "advisors",
      "outputs": [
        {
          "internalType": "address",
          "name": "",
          "type": "address"
        }
      ],
      "stateMutability": "view",
      "type": "function"
    },
    {
      "inputs": [
        {
          "internalType": "address",
          "name": "owner",
          "type": "address"
        },
        {
          "internalType": "address",
          "name": "spender",
          "type": "address"
        }
      ],
      "name": "allowance",
      "outputs": [
        {
          "internalType": "uint256",
          "name": "",
          "type": "uint256"
        }
      ],
      "stateMutability": "view",
      "type": "function"
    },
    {
      "inputs": [
        {
          "internalType": "address",
          "name": "spender",
          "type": "address"
        },
        {
          "internalType": "uint256",
          "name": "value",
          "type": "uint256"
        }
      ],
      "name": "approve",
      "outputs": [
        {
          "internalType": "bool",
          "name": "",
          "type": "bool"
        }
      ],
      "stateMutability": "nonpayable",
      "type": "function"
    },
    {
      "inputs": [
        {
          "internalType": "uint256",
          "name": "_proposalId",
          "type": "uint256"
        }
      ],
      "name": "approveMultiSigProposal",
      "outputs": [],
      "stateMutability": "nonpayable",
      "type": "function"
    },
    {
      "inputs": [
        {
          "internalType": "address",
          "name": "account",
          "type": "address"
        }
      ],
      "name": "balanceOf",
      "outputs": [
        {
          "internalType": "uint256",
          "name": "",
          "type": "uint256"
        }
      ],
      "stateMutability": "view",
      "type": "function"
    },
    {
      "inputs": [],
      "name": "decimals",
      "outputs": [
        {
          "internalType": "uint8",
          "name": "",
          "type": "uint8"
        }
      ],
      "stateMutability": "view",
      "type": "function"
    },
    {
      "inputs": [
        {
          "internalType": "bytes32",
          "name": "role",
          "type": "bytes32"
        }
      ],
      "name": "getRoleAdmin",
      "outputs": [
        {
          "internalType": "bytes32",
          "name": "",
          "type": "bytes32"
        }
      ],
      "stateMutability": "view",
      "type": "function"
    },
    {
      "inputs": [
        {
          "internalType": "address",
          "name": "beneficiary",
          "type": "address"
        }
      ],
      "name": "getVestingDetails",
      "outputs": [
        {
          "internalType": "uint256",
          "name": "lockedAmount",
          "type": "uint256"
        },
        {
          "internalType": "uint256",
          "name": "claimedAmount",
          "type": "uint256"
        },
        {
          "internalType": "uint256",
          "name": "claimableAmount",
          "type": "uint256"
        },
        {
          "internalType": "uint64",
          "name": "cliffTime",
          "type": "uint64"
        },
        {
          "internalType": "uint64",
          "name": "duration",
          "type": "uint64"
        },
        {
          "internalType": "uint64",
          "name": "interval",
          "type": "uint64"
        }
      ],
      "stateMutability": "view",
      "type": "function"
    },
    {
      "inputs": [
        {
          "internalType": "bytes32",
          "name": "role",
          "type": "bytes32"
        },
        {
          "internalType": "address",
          "name": "account",
          "type": "address"
        }
      ],
      "name": "grantRole",
      "outputs": [],
      "stateMutability": "nonpayable",
      "type": "function"
    },
    {
      "inputs": [
        {
          "internalType": "bytes32",
          "name": "role",
          "type": "bytes32"
        },
        {
          "internalType": "address",
          "name": "account",
          "type": "address"
        }
      ],
      "name": "hasRole",
      "outputs": [
        {
          "internalType": "bool",
          "name": "",
          "type": "bool"
        }
      ],
      "stateMutability": "view",
      "type": "function"
    },
    {
      "inputs": [
        {
          "internalType": "uint256",
          "name": "",
          "type": "uint256"
        }
      ],
      "name": "investors",
      "outputs": [
        {
          "internalType": "address",
          "name": "",
          "type": "address"
        }
      ],
      "stateMutability": "view",
      "type": "function"
    },
    {
      "inputs": [
        {
          "internalType": "address",
          "name": "",
          "type": "address"
        }
      ],
      "name": "isInAdvisors",
      "outputs": [
        {
          "internalType": "bool",
          "name": "",
          "type": "bool"
        }
      ],
      "stateMutability": "view",
      "type": "function"
    },
    {
      "inputs": [
        {
          "internalType": "address",
          "name": "",
          "type": "address"
        }
      ],
      "name": "isInInvestor",
      "outputs": [
        {
          "internalType": "bool",
          "name": "",
          "type": "bool"
        }
      ],
      "stateMutability": "view",
      "type": "function"
    },
    {
      "inputs": [
        {
          "internalType": "address",
          "name": "",
          "type": "address"
        }
      ],
      "name": "isInReviewerPool",
      "outputs": [
        {
          "internalType": "bool",
          "name": "",
          "type": "bool"
        }
      ],
      "stateMutability": "view",
      "type": "function"
    },
    {
      "inputs": [
        {
          "internalType": "address",
          "name": "",
          "type": "address"
        }
      ],
      "name": "isInTeam",
      "outputs": [
        {
          "internalType": "bool",
          "name": "",
          "type": "bool"
        }
      ],
      "stateMutability": "view",
      "type": "function"
    },
    {
      "inputs": [
        {
          "internalType": "address",
          "name": "account",
          "type": "address"
        }
      ],
      "name": "isReviewer",
      "outputs": [
        {
          "internalType": "bool",
          "name": "",
          "type": "bool"
        }
      ],
      "stateMutability": "view",
      "type": "function"
    },
    {
      "inputs": [
        {
          "internalType": "uint256",
          "name": "",
          "type": "uint256"
        }
      ],
      "name": "multiSigProposals",
      "outputs": [
        {
          "internalType": "uint256",
          "name": "id",
          "type": "uint256"
        },
        {
          "internalType": "address",
          "name": "proposer",
          "type": "address"
        },
        {
          "internalType": "address",
          "name": "targetContract",
          "type": "address"
        },
        {
          "internalType": "bytes",
          "name": "data",
          "type": "bytes"
        },
        {
          "internalType": "uint256",
          "name": "approvalCount",
          "type": "uint256"
        },
        {
          "internalType": "bool",
          "name": "executed",
          "type": "bool"
        }
      ],
      "stateMutability": "view",
      "type": "function"
    },
    {
      "inputs": [],
      "name": "name",
      "outputs": [
        {
          "internalType": "string",
          "name": "",
          "type": "string"
        }
      ],
      "stateMutability": "view",
      "type": "function"
    },
    {
      "inputs": [],
      "name": "releaseVestedTokens",
      "outputs": [],
      "stateMutability": "nonpayable",
      "type": "function"
    },
    {
      "inputs": [
        {
          "internalType": "address",
          "name": "beneficiary",
          "type": "address"
        }
      ],
      "name": "removeFromAdvisors",
      "outputs": [],
      "stateMutability": "nonpayable",
      "type": "function"
    },
    {
      "inputs": [
        {
          "internalType": "address",
          "name": "beneficiary",
          "type": "address"
        }
      ],
      "name": "removeFromInvestors",
      "outputs": [],
      "stateMutability": "nonpayable",
      "type": "function"
    },
    {
      "inputs": [
        {
          "internalType": "address",
          "name": "beneficiary",
          "type": "address"
        }
      ],
      "name": "removeFromTeam",
      "outputs": [],
      "stateMutability": "nonpayable",
      "type": "function"
    },
    {
      "inputs": [
        {
          "internalType": "address",
          "name": "reviewer",
          "type": "address"
        }
      ],
      "name": "removeReviewer",
      "outputs": [],
      "stateMutability": "nonpayable",
      "type": "function"
    },
    {
      "inputs": [
        {
          "internalType": "bytes32",
          "name": "role",
          "type": "bytes32"
        },
        {
          "internalType": "address",
          "name": "callerConfirmation",
          "type": "address"
        }
      ],
      "name": "renounceRole",
      "outputs": [],
      "stateMutability": "nonpayable",
      "type": "function"
    },
    {
      "inputs": [
        {
          "internalType": "uint256",
          "name": "",
          "type": "uint256"
        }
      ],
      "name": "reviewerPool",
      "outputs": [
        {
          "internalType": "address",
          "name": "",
          "type": "address"
        }
      ],
      "stateMutability": "view",
      "type": "function"
    },
    {
      "inputs": [
        {
          "internalType": "bytes32",
          "name": "role",
          "type": "bytes32"
        },
        {
          "internalType": "address",
          "name": "account",
          "type": "address"
        }
      ],
      "name": "revokeRole",
      "outputs": [],
      "stateMutability": "nonpayable",
      "type": "function"
    },
    {
      "inputs": [
        {
          "internalType": "address",
          "name": "beneficiary",
          "type": "address"
        },
        {
          "internalType": "uint64",
          "name": "startTime",
          "type": "uint64"
        },
        {
          "internalType": "uint64",
          "name": "cliffTime",
          "type": "uint64"
        },
        {
          "internalType": "uint64",
          "name": "duration",
          "type": "uint64"
        },
        {
          "internalType": "uint64",
          "name": "interval",
          "type": "uint64"
        }
      ],
      "name": "setVestingSchedule",
      "outputs": [],
      "stateMutability": "nonpayable",
      "type": "function"
    },
    {
      "inputs": [
        {
          "internalType": "bytes4",
          "name": "interfaceId",
          "type": "bytes4"
        }
      ],
      "name": "supportsInterface",
      "outputs": [
        {
          "internalType": "bool",
          "name": "",
          "type": "bool"
        }
      ],
      "stateMutability": "view",
      "type": "function"
    },
    {
      "inputs": [],
      "name": "symbol",
      "outputs": [
        {
          "internalType": "string",
          "name": "",
          "type": "string"
        }
      ],
      "stateMutability": "view",
      "type": "function"
    },
    {
      "inputs": [
        {
          "internalType": "uint256",
          "name": "",
          "type": "uint256"
        }
      ],
      "name": "team",
      "outputs": [
        {
          "internalType": "address",
          "name": "",
          "type": "address"
        }
      ],
      "stateMutability": "view",
      "type": "function"
    },
    {
      "inputs": [
        {
          "internalType": "address",
          "name": "",
          "type": "address"
        }
      ],
      "name": "tokenLocks",
      "outputs": [
        {
          "internalType": "uint256",
          "name": "amount",
          "type": "uint256"
        },
        {
          "internalType": "uint256",
          "name": "claimedAmount",
          "type": "uint256"
        }
      ],
      "stateMutability": "view",
      "type": "function"
    },
    {
      "inputs": [],
      "name": "totalSupply",
      "outputs": [
        {
          "internalType": "uint256",
          "name": "",
          "type": "uint256"
        }
      ],
      "stateMutability": "view",
      "type": "function"
    },
    {
      "inputs": [
        {
          "internalType": "address",
          "name": "to",
          "type": "address"
        },
        {
          "internalType": "uint256",
          "name": "value",
          "type": "uint256"
        }
      ],
      "name": "transfer",
      "outputs": [
        {
          "internalType": "bool",
          "name": "",
          "type": "bool"
        }
      ],
      "stateMutability": "nonpayable",
      "type": "function"
    },
    {
      "inputs": [
        {
          "internalType": "address",
          "name": "from",
          "type": "address"
        },
        {
          "internalType": "address",
          "name": "to",
          "type": "address"
        },
        {
          "internalType": "uint256",
          "name": "value",
          "type": "uint256"
        }
      ],
      "name": "transferFrom",
      "outputs": [
        {
          "internalType": "bool",
          "name": "",
          "type": "bool"
        }
      ],
      "stateMutability": "nonpayable",
      "type": "function"
    },
    {
      "inputs": [
        {
          "internalType": "address",
          "name": "",
          "type": "address"
        }
      ],
      "name": "vestingSchedules",
      "outputs": [
        {
          "internalType": "uint64",
          "name": "startTime",
          "type": "uint64"
        },
        {
          "internalType": "uint64",
          "name": "cliffTime",
          "type": "uint64"
        },
        {
          "internalType": "uint64",
          "name": "duration",
          "type": "uint64"
        },
        {
          "internalType": "uint64",
          "name": "interval",
          "type": "uint64"
        }
      ],
      "stateMutability": "view",
      "type": "function"
    }
  ],
  "bytecode": "0x608060405234801561001057600080fd5b506040516154f63803806154f6833981810160405281019061003291906105f6565b806040518060400160405280600a81526020017f4142594120544f4b454e000000000000000000000000000000000000000000008152506040518060400160405280600681526020017f414259544b4e000000000000000000000000000000000000000000000000000081525081600390816100ae9190610860565b5080600490816100be9190610860565b505050600481511015610106576040517f08c379a00000000000000000000000000000000000000000000000000000000081526004016100fd906109b5565b60405180910390fd5b6101196000801b336102ba60201b60201c565b5061014a7fdf1425bae297c2f52b4f15d18a50b1fc8cb5b981a981b1d213ed3ff92681b64d336102ba60201b60201c565b5060005b815181101561029e576101a17fc10c77be35aff266144ed64c26a1fa104bae2f284ae99ac4a34203454704a18583838151811061018e5761018d6109d5565b5b60200260200101516102ba60201b60201c565b5060068282815181106101b7576101b66109d5565b5b60200260200101519080600181540180825580915050600190039060005260206000200160009091909190916101000a81548173ffffffffffffffffffffffffffffffffffffffff021916908373ffffffffffffffffffffffffffffffffffffffff160217905550600160086000848481518110610238576102376109d5565b5b602002602001015173ffffffffffffffffffffffffffffffffffffffff1673ffffffffffffffffffffffffffffffffffffffff16815260200190815260200160002060006101000a81548160ff021916908315150217905550808060010191505061014e565b50506102b36000801b336102ba60201b60201c565b5050610a04565b60006102cc83836103b860201b60201c565b6103ad5760016005600085815260200190815260200160002060000160008473ffffffffffffffffffffffffffffffffffffffff1673ffffffffffffffffffffffffffffffffffffffff16815260200190815260200160002060006101000a81548160ff02191690831515021790555061034a61042360201b60201c565b73ffffffffffffffffffffffffffffffffffffffff168273ffffffffffffffffffffffffffffffffffffffff16847f2f8788117e7eff1d82e926ec794901d17c78024a50270940304540a733656f0d60405160405180910390a4600190506103b2565b600090505b92915050565b60006005600084815260200190815260200160002060000160008373ffffffffffffffffffffffffffffffffffffffff1673ffffffffffffffffffffffffffffffffffffffff16815260200190815260200160002060009054906101000a900460ff16905092915050565b600033905090565b6000604051905090565b600080fd5b600080fd5b600080fd5b6000601f19601f8301169050919050565b7f4e487b7100000000000000000000000000000000000000000000000000000000600052604160045260246000fd5b61048d82610444565b810181811067ffffffffffffffff821117156104ac576104ab610455565b5b80604052505050565b60006104bf61042b565b90506104cb8282610484565b919050565b600067ffffffffffffffff8211156104eb576104ea610455565b5b602082029050602081019050919050565b600080fd5b600073ffffffffffffffffffffffffffffffffffffffff82169050919050565b600061052c82610501565b9050919050565b61053c81610521565b811461054757600080fd5b50565b60008151905061055981610533565b92915050565b600061057261056d846104d0565b6104b5565b90508083825260208201905060208402830185811115610595576105946104fc565b5b835b818110156105be57806105aa888261054a565b845260208401935050602081019050610597565b5050509392505050565b600082601f8301126105dd576105dc61043f565b5b81516105ed84826020860161055f565b91505092915050565b60006020828403121561060c5761060b610435565b5b600082015167ffffffffffffffff81111561062a5761062961043a565b5b610636848285016105c8565b91505092915050565b600081519050919050565b7f4e487b7100000000000000000000000000000000000000000000000000000000600052602260045260246000fd5b6000600282049050600182168061069157607f821691505b6020821081036106a4576106a361064a565b5b50919050565b60008190508160005260206000209050919050565b60006020601f8301049050919050565b600082821b905092915050565b60006008830261070c7fffffffffffffffffffffffffffffffffffffffffffffffffffffffffffffffff826106cf565b61071686836106cf565b95508019841693508086168417925050509392505050565b6000819050919050565b6000819050919050565b600061075d6107586107538461072e565b610738565b61072e565b9050919050565b6000819050919050565b61077783610742565b61078b61078382610764565b8484546106dc565b825550505050565b600090565b6107a0610793565b6107ab81848461076e565b505050565b5b818110156107cf576107c4600082610798565b6001810190506107b1565b5050565b601f821115610814576107e5816106aa565b6107ee846106bf565b810160208510156107fd578190505b610811610809856106bf565b8301826107b0565b50505b505050565b600082821c905092915050565b600061083760001984600802610819565b1980831691505092915050565b60006108508383610826565b9150826002028217905092915050565b6108698261063f565b67ffffffffffffffff81111561088257610881610455565b5b61088c8254610679565b6108978282856107d3565b600060209050601f8311600181146108ca57600084156108b8578287015190505b6108c28582610844565b86555061092a565b601f1984166108d8866106aa565b60005b82811015610900578489015182556001820191506020850194506020810190506108db565b8683101561091d5784890151610919601f891682610826565b8355505b6001600288020188555050505b505050505050565b600082825260208201905092915050565b7f4174206c6561737420342072657669657765727320617265207265717569726560008201527f6400000000000000000000000000000000000000000000000000000000000000602082015250565b600061099f602183610932565b91506109aa82610943565b604082019050919050565b600060208201905081810360008301526109ce81610992565b9050919050565b7f4e487b7100000000000000000000000000000000000000000000000000000000600052603260045260246000fd5b614ae380610a136000396000f3fe608060405234801561001057600080fd5b50600436106102955760003560e01c806352994e2f11610167578063bad0dd65116100ce578063d7bed4bc11610087578063d7bed4bc1461088d578063dd62ed3e146108a9578063dfdedf69146108d9578063f3347ee5146108f5578063fdb20ccb14610913578063fdc6258a1461094657610295565b8063bad0dd65146107bd578063c491b04c146107d9578063c9442dac14610809578063d2bd8d9414610825578063d42f5f3c14610841578063d547741f1461087157610295565b806376082a5e1161012057806376082a5e146106ce5780638dedf009146106ec57806391d148541461072157806395d89b4114610751578063a217fddf1461076f578063a9059cbb1461078d57610295565b806352994e2f1461060d57806354dd1da41461062b578063568e731b1461063557806356b63df71461065157806370a082311461068257806373a82b5f146106b257610295565b8063280b9ab41161020b5780633eb2b5ad116101c45780633eb2b5ad146105225780633feb5f2b1461053e57806340932bf81461056e57806347e061e5146105a357806349d5e604146105bf5780634db4ad03146105dd57610295565b8063280b9ab4146104605780632f2ff15d14610490578063313ce567146104ac57806332cb6b0c146104ca57806336568abe146104e85780633b129a561461050457610295565b806318160ddd1161025d57806318160ddd14610352578063197ebd531461037057806319f102ec146103a05780631ead78ff146103d057806323b872dd14610400578063248a9ca31461043057610295565b806301ffc9a71461029a57806303c39ed9146102ca57806306792f55146102e657806306fdde0314610304578063095ea7b314610322575b600080fd5b6102b460048036038101906102af91906136b9565b610976565b6040516102c19190613701565b60405180910390f35b6102e460048036038101906102df919061377a565b6109f0565b005b6102ee610b67565b6040516102fb91906137c0565b60405180910390f35b61030c610b8b565b604051610319919061386b565b60405180910390f35b61033c600480360381019061033791906138c3565b610c1d565b6040516103499190613701565b60405180910390f35b61035a610c40565b6040516103679190613912565b60405180910390f35b61038a6004803603810190610385919061392d565b610c4a565b6040516103979190613969565b60405180910390f35b6103ba60048036038101906103b5919061392d565b610c89565b6040516103c79190613969565b60405180910390f35b6103ea60048036038101906103e5919061377a565b610cc8565b6040516103f79190613701565b60405180910390f35b61041a60048036038101906104159190613984565b610ce8565b6040516104279190613701565b60405180910390f35b61044a60048036038101906104459190613a03565b610d17565b60405161045791906137c0565b60405180910390f35b61047a6004803603810190610475919061377a565b610d37565b6040516104879190613701565b60405180910390f35b6104aa60048036038101906104a59190613a30565b610d57565b005b6104b4610d79565b6040516104c19190613a8c565b60405180910390f35b6104d2610d82565b6040516104df9190613912565b60405180910390f35b61050260048036038101906104fd9190613a30565b610d92565b005b61050c610e0d565b60405161051991906137c0565b60405180910390f35b61053c6004803603810190610537919061377a565b610e31565b005b6105586004803603810190610553919061392d565b611001565b6040516105659190613969565b60405180910390f35b6105886004803603810190610583919061392d565b611040565b60405161059a96959493929190613afc565b60405180910390f35b6105bd60048036038101906105b89190613ba4565b611151565b005b6105c76113f3565b6040516105d491906137c0565b60405180910390f35b6105f760048036038101906105f2919061377a565b611417565b6040516106049190613701565b60405180910390f35b610615611437565b60405161062291906137c0565b60405180910390f35b61063361145b565b005b61064f600480360381019061064a919061377a565b611827565b005b61066b6004803603810190610666919061377a565b61199e565b604051610679929190613c1f565b60405180910390f35b61069c6004803603810190610697919061377a565b6119c2565b6040516106a99190613912565b60405180910390f35b6106cc60048036038101906106c7919061377a565b611a0a565b005b6106d6611bee565b6040516106e391906137c0565b60405180910390f35b6107066004803603810190610701919061377a565b611c12565b60405161071896959493929190613c57565b60405180910390f35b61073b60048036038101906107369190613a30565b611e78565b6040516107489190613701565b60405180910390f35b610759611ee3565b604051610766919061386b565b60405180910390f35b610777611f75565b60405161078491906137c0565b60405180910390f35b6107a760048036038101906107a291906138c3565b611f7c565b6040516107b49190613701565b60405180910390f35b6107d760048036038101906107d2919061392d565b611f9f565b005b6107f360048036038101906107ee919061377a565b61229e565b6040516108009190613701565b60405180910390f35b610823600480360381019061081e919061377a565b6122be565b005b61083f600480360381019061083a919061377a565b6125a8565b005b61085b6004803603810190610856919061392d565b612778565b6040516108689190613969565b60405180910390f35b61088b60048036038101906108869190613a30565b6127b7565b005b6108a760048036038101906108a2919061377a565b6127d9565b005b6108c360048036038101906108be9190613cb8565b6129a9565b6040516108d09190613912565b60405180910390f35b6108f360048036038101906108ee919061377a565b612a30565b005b6108fd612ba7565b60405161090a9190613912565b60405180910390f35b61092d6004803603810190610928919061377a565b612bcf565b60405161093d9493929190613cf8565b60405180910390f35b610960600480360381019061095b919061377a565b612c4f565b60405161096d9190613701565b60405180910390f35b60007f7965db0b000000000000000000000000000000000000000000000000000000007bffffffffffffffffffffffffffffffffffffffffffffffffffffffff1916827bffffffffffffffffffffffffffffffffffffffffffffffffffffffff191614806109e957506109e882612c82565b5b9050919050565b6000801b6109fd81612cec565b600d60008373ffffffffffffffffffffffffffffffffffffffff1673ffffffffffffffffffffffffffffffffffffffff16815260200190815260200160002060009054906101000a900460ff16610a89576040517f08c379a0000000000000000000000000000000000000000000000000000000008152600401610a8090613d89565b60405180910390fd5b610a94600a83612d00565b6000600d60008473ffffffffffffffffffffffffffffffffffffffff1673ffffffffffffffffffffffffffffffffffffffff16815260200190815260200160002060006101000a81548160ff021916908315150217905550610b167fb165298935924f540e4181c03493a5d686c54a0aaeb3f6216de85b7ffbba773883612e87565b508173ffffffffffffffffffffffffffffffffffffffff167f40d1b8c90a526c4d4a3ac32bafe9c3ba00cbdae856c2075efca8b98cadf20fe0604051610b5b90613df5565b60405180910390a25050565b7f9c1ca198f61ac1647c38f20b6678649f8e87b7e06309094d812edd1e9119d30981565b606060038054610b9a90613e44565b80601f0160208091040260200160405190810160405280929190818152602001828054610bc690613e44565b8015610c135780601f10610be857610100808354040283529160200191610c13565b820191906000526020600020905b815481529060010190602001808311610bf657829003601f168201915b5050505050905090565b600080610c28612f7a565b9050610c35818585612f82565b600191505092915050565b6000600254905090565b600b8181548110610c5a57600080fd5b906000526020600020016000915054906101000a900473ffffffffffffffffffffffffffffffffffffffff1681565b60068181548110610c9957600080fd5b906000526020600020016000915054906101000a900473ffffffffffffffffffffffffffffffffffffffff1681565b600e6020528060005260406000206000915054906101000a900460ff1681565b600080610cf3612f7a565b9050610d00858285612f94565b610d0b858585613029565b60019150509392505050565b600060056000838152602001908152602001600020600101549050919050565b600d6020528060005260406000206000915054906101000a900460ff1681565b610d6082610d17565b610d6981612cec565b610d73838361311d565b50505050565b60006012905090565b6b204fce5e3e2502611000000081565b610d9a612f7a565b73ffffffffffffffffffffffffffffffffffffffff168173ffffffffffffffffffffffffffffffffffffffff1614610dfe576040517f6697b23200000000000000000000000000000000000000000000000000000000815260040160405180910390fd5b610e088282612e87565b505050565b7fc10c77be35aff266144ed64c26a1fa104bae2f284ae99ac4a34203454704a18581565b6000801b610e3e81612cec565b600e60008373ffffffffffffffffffffffffffffffffffffffff1673ffffffffffffffffffffffffffffffffffffffff16815260200190815260200160002060009054906101000a900460ff1615610ecb576040517f08c379a0000000000000000000000000000000000000000000000000000000008152600401610ec290613ec1565b60405180910390fd5b600b829080600181540180825580915050600190039060005260206000200160009091909190916101000a81548173ffffffffffffffffffffffffffffffffffffffff021916908373ffffffffffffffffffffffffffffffffffffffff1602179055506001600e60008473ffffffffffffffffffffffffffffffffffffffff1673ffffffffffffffffffffffffffffffffffffffff16815260200190815260200160002060006101000a81548160ff021916908315150217905550610fb07f5146a08baf902532d0ee2f909971144f12ca32651cd70cbee1117cddfb3b3b338361311d565b508173ffffffffffffffffffffffffffffffffffffffff167f71c4586d57ada124e4bd494b6c0f9cb102be2af60eabee1b5c12e930f6a5eeb6604051610ff590613f2d565b60405180910390a25050565b600a818154811061101157600080fd5b906000526020600020016000915054906101000a900473ffffffffffffffffffffffffffffffffffffffff1681565b60096020528060005260406000206000915090508060000154908060010160009054906101000a900473ffffffffffffffffffffffffffffffffffffffff16908060020160009054906101000a900473ffffffffffffffffffffffffffffffffffffffff16908060030180546110b590613e44565b80601f01602080910402602001604051908101604052809291908181526020018280546110e190613e44565b801561112e5780601f106111035761010080835404028352916020019161112e565b820191906000526020600020905b81548152906001019060200180831161111157829003601f168201915b5050505050908060040154908060050160009054906101000a900460ff16905086565b6000801b61115e81612cec565b6000601060008873ffffffffffffffffffffffffffffffffffffffff1673ffffffffffffffffffffffffffffffffffffffff16815260200190815260200160002060000160009054906101000a900467ffffffffffffffff1667ffffffffffffffff1614611201576040517f08c379a00000000000000000000000000000000000000000000000000000000081526004016111f890613f99565b60405180910390fd5b8367ffffffffffffffff168367ffffffffffffffff1611611257576040517f08c379a000000000000000000000000000000000000000000000000000000000815260040161124e9061402b565b60405180910390fd5b60008267ffffffffffffffff16116112a4576040517f08c379a000000000000000000000000000000000000000000000000000000000815260040161129b90614097565b60405180910390fd5b60405180608001604052808667ffffffffffffffff1681526020018567ffffffffffffffff1681526020018467ffffffffffffffff1681526020018367ffffffffffffffff16815250601060008873ffffffffffffffffffffffffffffffffffffffff1673ffffffffffffffffffffffffffffffffffffffff16815260200190815260200160002060008201518160000160006101000a81548167ffffffffffffffff021916908367ffffffffffffffff16021790555060208201518160000160086101000a81548167ffffffffffffffff021916908367ffffffffffffffff16021790555060408201518160000160106101000a81548167ffffffffffffffff021916908367ffffffffffffffff16021790555060608201518160000160186101000a81548167ffffffffffffffff021916908367ffffffffffffffff160217905550905050505050505050565b7f5146a08baf902532d0ee2f909971144f12ca32651cd70cbee1117cddfb3b3b3381565b600f6020528060005260406000206000915054906101000a900460ff1681565b7fdf1425bae297c2f52b4f15d18a50b1fc8cb5b981a981b1d213ed3ff92681b64d81565b6000601060003373ffffffffffffffffffffffffffffffffffffffff1673ffffffffffffffffffffffffffffffffffffffff16815260200190815260200160002090506000601160003373ffffffffffffffffffffffffffffffffffffffff1673ffffffffffffffffffffffffffffffffffffffff168152602001908152602001600020905060008260000160009054906101000a900467ffffffffffffffff1667ffffffffffffffff1611611546576040517f08c379a000000000000000000000000000000000000000000000000000000000815260040161153d90614103565b60405180910390fd5b8160000160009054906101000a900467ffffffffffffffff1667ffffffffffffffff164210156115ab576040517f08c379a00000000000000000000000000000000000000000000000000000000081526004016115a29061416f565b60405180910390fd5b600081600001549050600081116115f7576040517f08c379a00000000000000000000000000000000000000000000000000000000081526004016115ee906141db565b60405180910390fd5b60008360000160009054906101000a900467ffffffffffffffff164261161d919061422a565b90508360000160089054906101000a900467ffffffffffffffff1667ffffffffffffffff168167ffffffffffffffff16101561168e576040517f08c379a0000000000000000000000000000000000000000000000000000000008152600401611685906142b2565b60405180910390fd5b60008460000160189054906101000a900467ffffffffffffffff16826116b49190614301565b905060008560000160189054906101000a900467ffffffffffffffff168660000160109054906101000a900467ffffffffffffffff166116f49190614301565b905060008167ffffffffffffffff168367ffffffffffffffff161015611744578167ffffffffffffffff168367ffffffffffffffff16866117359190614332565b61173f9190614374565b611746565b845b9050600086600101548261175a91906143a5565b90506000811161179f576040517f08c379a000000000000000000000000000000000000000000000000000000000815260040161179690614425565b60405180910390fd5b600087600001549050818860010160008282546117bc9190614445565b925050819055506117cd3383611f7c565b503373ffffffffffffffffffffffffffffffffffffffff167fc7798891864187665ac6dd119286e44ec13f014527aeeb2b8eb3fd413df93179836040516118149190613912565b60405180910390a2505050505050505050565b6000801b61183481612cec565b600f60008373ffffffffffffffffffffffffffffffffffffffff1673ffffffffffffffffffffffffffffffffffffffff16815260200190815260200160002060009054906101000a900460ff166118c0576040517f08c379a00000000000000000000000000000000000000000000000000000000081526004016118b7906144c5565b60405180910390fd5b6118cb600c83612d00565b6000600f60008473ffffffffffffffffffffffffffffffffffffffff1673ffffffffffffffffffffffffffffffffffffffff16815260200190815260200160002060006101000a81548160ff02191690831515021790555061194d7f9c1ca198f61ac1647c38f20b6678649f8e87b7e06309094d812edd1e9119d30983612e87565b508173ffffffffffffffffffffffffffffffffffffffff167f40d1b8c90a526c4d4a3ac32bafe9c3ba00cbdae856c2075efca8b98cadf20fe060405161199290614531565b60405180910390a25050565b60116020528060005260406000206000915090508060000154908060010154905082565b60008060008373ffffffffffffffffffffffffffffffffffffffff1673ffffffffffffffffffffffffffffffffffffffff168152602001908152602001600020549050919050565b7fc10c77be35aff266144ed64c26a1fa104bae2f284ae99ac4a34203454704a185611a3481612cec565b600860008373ffffffffffffffffffffffffffffffffffffffff1673ffffffffffffffffffffffffffffffffffffffff16815260200190815260200160002060009054906101000a900460ff1615611ac1576040517f08c379a0000000000000000000000000000000000000000000000000000000008152600401611ab89061459d565b60405180910390fd5b611aeb7fc10c77be35aff266144ed64c26a1fa104bae2f284ae99ac4a34203454704a1858361311d565b506006829080600181540180825580915050600190039060005260206000200160009091909190916101000a81548173ffffffffffffffffffffffffffffffffffffffff021916908373ffffffffffffffffffffffffffffffffffffffff1602179055506001600860008473ffffffffffffffffffffffffffffffffffffffff1673ffffffffffffffffffffffffffffffffffffffff16815260200190815260200160002060006101000a81548160ff0219169083151502179055508173ffffffffffffffffffffffffffffffffffffffff167fe1cb5e1230cc02e62c60b81c1aa5ade512f3eac296edb28628b4cf344f47f93160405160405180910390a25050565b7fb165298935924f540e4181c03493a5d686c54a0aaeb3f6216de85b7ffbba773881565b6000806000806000806000601060008973ffffffffffffffffffffffffffffffffffffffff1673ffffffffffffffffffffffffffffffffffffffff1681526020019081526020016000206040518060800160405290816000820160009054906101000a900467ffffffffffffffff1667ffffffffffffffff1667ffffffffffffffff1681526020016000820160089054906101000a900467ffffffffffffffff1667ffffffffffffffff1667ffffffffffffffff1681526020016000820160109054906101000a900467ffffffffffffffff1667ffffffffffffffff1667ffffffffffffffff1681526020016000820160189054906101000a900467ffffffffffffffff1667ffffffffffffffff1667ffffffffffffffff168152505090506000601160008a73ffffffffffffffffffffffffffffffffffffffff1673ffffffffffffffffffffffffffffffffffffffff168152602001908152602001600020604051806040016040529081600082015481526020016001820154815250509050600082604001518360000151611da991906145bd565b67ffffffffffffffff16421015611e295782606001518360400151611dce9190614301565b67ffffffffffffffff16836060015167ffffffffffffffff16846000015167ffffffffffffffff1642611e0191906143a5565b611e0b9190614374565b8360000151611e1a9190614332565b611e249190614374565b611e2f565b81600001515b90506000826020015182611e4391906143a5565b905082600001518360200151828660200151876040015188606001519950995099509950995099505050505091939550919395565b60006005600084815260200190815260200160002060000160008373ffffffffffffffffffffffffffffffffffffffff1673ffffffffffffffffffffffffffffffffffffffff16815260200190815260200160002060009054906101000a900460ff16905092915050565b606060048054611ef290613e44565b80601f0160208091040260200160405190810160405280929190818152602001828054611f1e90613e44565b8015611f6b5780601f10611f4057610100808354040283529160200191611f6b565b820191906000526020600020905b815481529060010190602001808311611f4e57829003601f168201915b5050505050905090565b6000801b81565b600080611f87612f7a565b9050611f94818585613029565b600191505092915050565b7fdf1425bae297c2f52b4f15d18a50b1fc8cb5b981a981b1d213ed3ff92681b64d611fc981612cec565b60006009600084815260200190815260200160002090508060050160009054906101000a900460ff1615612032576040517f08c379a000000000000000000000000000000000000000000000000000000000815260040161202990614645565b60405180910390fd5b8060060160003373ffffffffffffffffffffffffffffffffffffffff1673ffffffffffffffffffffffffffffffffffffffff16815260200190815260200160002060009054906101000a900460ff16156120c1576040517f08c379a00000000000000000000000000000000000000000000000000000000081526004016120b8906146b1565b60405180910390fd5b60018160060160003373ffffffffffffffffffffffffffffffffffffffff1673ffffffffffffffffffffffffffffffffffffffff16815260200190815260200160002060006101000a81548160ff021916908315150217905550806004016000815480929190612130906146d1565b9190505550827f5d4ccf5f92566d140246f4ae3b9cb35dc06fff109a7748602ad77f6260fd9a61336040516121659190613969565b60405180910390a260038160040154106122995760008160020160009054906101000a900473ffffffffffffffffffffffffffffffffffffffff1673ffffffffffffffffffffffffffffffffffffffff16826003016040516121c791906147bc565b6000604051808303816000865af19150503d8060008114612204576040519150601f19603f3d011682016040523d82523d6000602084013e612209565b606091505b505090508061224d576040517f08c379a00000000000000000000000000000000000000000000000000000000081526004016122449061481f565b60405180910390fd5b60018260050160006101000a81548160ff021916908315150217905550837f7770356c29230b95943aec59d47ead11eb426a728bf5b57f7fd8597f3c0e29ba60405160405180910390a2505b505050565b60086020528060005260406000206000915054906101000a900460ff1681565b6000801b6122cb81612cec565b600860008373ffffffffffffffffffffffffffffffffffffffff1673ffffffffffffffffffffffffffffffffffffffff16815260200190815260200160002060009054906101000a900460ff16612357576040517f08c379a000000000000000000000000000000000000000000000000000000000815260040161234e9061488b565b60405180910390fd5b60005b6006805490508110156124dd578273ffffffffffffffffffffffffffffffffffffffff1660068281548110612392576123916148ab565b5b9060005260206000200160009054906101000a900473ffffffffffffffffffffffffffffffffffffffff1673ffffffffffffffffffffffffffffffffffffffff16036124d057600660016006805490506123ec91906143a5565b815481106123fd576123fc6148ab565b5b9060005260206000200160009054906101000a900473ffffffffffffffffffffffffffffffffffffffff166006828154811061243c5761243b6148ab565b5b9060005260206000200160006101000a81548173ffffffffffffffffffffffffffffffffffffffff021916908373ffffffffffffffffffffffffffffffffffffffff1602179055506006805480612496576124956148da565b5b6001900381819060005260206000200160006101000a81549073ffffffffffffffffffffffffffffffffffffffff021916905590556124dd565b808060010191505061235a565b506000600860008473ffffffffffffffffffffffffffffffffffffffff1673ffffffffffffffffffffffffffffffffffffffff16815260200190815260200160002060006101000a81548160ff0219169083151502179055506125607fc10c77be35aff266144ed64c26a1fa104bae2f284ae99ac4a34203454704a18583612e87565b508173ffffffffffffffffffffffffffffffffffffffff167f55dba9d79522b91b615629d5f3b10c2fad2d258f1768614f4a52e937ada0d0ba60405160405180910390a25050565b6000801b6125b581612cec565b600f60008373ffffffffffffffffffffffffffffffffffffffff1673ffffffffffffffffffffffffffffffffffffffff16815260200190815260200160002060009054906101000a900460ff1615612642576040517f08c379a000000000000000000000000000000000000000000000000000000000815260040161263990614955565b60405180910390fd5b600c829080600181540180825580915050600190039060005260206000200160009091909190916101000a81548173ffffffffffffffffffffffffffffffffffffffff021916908373ffffffffffffffffffffffffffffffffffffffff1602179055506001600f60008473ffffffffffffffffffffffffffffffffffffffff1673ffffffffffffffffffffffffffffffffffffffff16815260200190815260200160002060006101000a81548160ff0219169083151502179055506127277f9c1ca198f61ac1647c38f20b6678649f8e87b7e06309094d812edd1e9119d3098361311d565b508173ffffffffffffffffffffffffffffffffffffffff167f71c4586d57ada124e4bd494b6c0f9cb102be2af60eabee1b5c12e930f6a5eeb660405161276c90614531565b60405180910390a25050565b600c818154811061278857600080fd5b906000526020600020016000915054906101000a900473ffffffffffffffffffffffffffffffffffffffff1681565b6127c082610d17565b6127c981612cec565b6127d38383612e87565b50505050565b6000801b6127e681612cec565b600d60008373ffffffffffffffffffffffffffffffffffffffff1673ffffffffffffffffffffffffffffffffffffffff16815260200190815260200160002060009054906101000a900460ff1615612873576040517f08c379a000000000000000000000000000000000000000000000000000000000815260040161286a906149c1565b60405180910390fd5b600a829080600181540180825580915050600190039060005260206000200160009091909190916101000a81548173ffffffffffffffffffffffffffffffffffffffff021916908373ffffffffffffffffffffffffffffffffffffffff1602179055506001600d60008473ffffffffffffffffffffffffffffffffffffffff1673ffffffffffffffffffffffffffffffffffffffff16815260200190815260200160002060006101000a81548160ff0219169083151502179055506129587fb165298935924f540e4181c03493a5d686c54a0aaeb3f6216de85b7ffbba77388361311d565b508173ffffffffffffffffffffffffffffffffffffffff167f71c4586d57ada124e4bd494b6c0f9cb102be2af60eabee1b5c12e930f6a5eeb660405161299d90613df5565b60405180910390a25050565b6000600160008473ffffffffffffffffffffffffffffffffffffffff1673ffffffffffffffffffffffffffffffffffffffff16815260200190815260200160002060008373ffffffffffffffffffffffffffffffffffffffff1673ffffffffffffffffffffffffffffffffffffffff16815260200190815260200160002054905092915050565b6000801b612a3d81612cec565b600e60008373ffffffffffffffffffffffffffffffffffffffff1673ffffffffffffffffffffffffffffffffffffffff16815260200190815260200160002060009054906101000a900460ff16612ac9576040517f08c379a0000000000000000000000000000000000000000000000000000000008152600401612ac090614a2d565b60405180910390fd5b612ad4600b83612d00565b6000600e60008473ffffffffffffffffffffffffffffffffffffffff1673ffffffffffffffffffffffffffffffffffffffff16815260200190815260200160002060006101000a81548160ff021916908315150217905550612b567f5146a08baf902532d0ee2f909971144f12ca32651cd70cbee1117cddfb3b3b3383612e87565b508173ffffffffffffffffffffffffffffffffffffffff167f40d1b8c90a526c4d4a3ac32bafe9c3ba00cbdae856c2075efca8b98cadf20fe0604051612b9b90613f2d565b60405180910390a25050565b6064602d6b204fce5e3e25026110000000612bc29190614332565b612bcc9190614374565b81565b60106020528060005260406000206000915090508060000160009054906101000a900467ffffffffffffffff16908060000160089054906101000a900467ffffffffffffffff16908060000160109054906101000a900467ffffffffffffffff16908060000160189054906101000a900467ffffffffffffffff16905084565b6000612c7b7fc10c77be35aff266144ed64c26a1fa104bae2f284ae99ac4a34203454704a18583611e78565b9050919050565b60007f01ffc9a7000000000000000000000000000000000000000000000000000000007bffffffffffffffffffffffffffffffffffffffffffffffffffffffff1916827bffffffffffffffffffffffffffffffffffffffffffffffffffffffff1916149050919050565b612cfd81612cf8612f7a565b61320f565b50565b60008280549050905060005b81811015612e81578273ffffffffffffffffffffffffffffffffffffffff16848281548110612d3e57612d3d6148ab565b5b9060005260206000200160009054906101000a900473ffffffffffffffffffffffffffffffffffffffff1673ffffffffffffffffffffffffffffffffffffffff1603612e745783600183612d9291906143a5565b81548110612da357612da26148ab565b5b9060005260206000200160009054906101000a900473ffffffffffffffffffffffffffffffffffffffff16848281548110612de157612de06148ab565b5b9060005260206000200160006101000a81548173ffffffffffffffffffffffffffffffffffffffff021916908373ffffffffffffffffffffffffffffffffffffffff16021790555083805480612e3a57612e396148da565b5b6001900381819060005260206000200160006101000a81549073ffffffffffffffffffffffffffffffffffffffff02191690559055612e81565b8080600101915050612d0c565b50505050565b6000612e938383611e78565b15612f6f5760006005600085815260200190815260200160002060000160008473ffffffffffffffffffffffffffffffffffffffff1673ffffffffffffffffffffffffffffffffffffffff16815260200190815260200160002060006101000a81548160ff021916908315150217905550612f0c612f7a565b73ffffffffffffffffffffffffffffffffffffffff168273ffffffffffffffffffffffffffffffffffffffff16847ff6391f5c32d9c69d2a47ea670b442974b53935d1edc7fd64eb21e047a839171b60405160405180910390a460019050612f74565b600090505b92915050565b600033905090565b612f8f8383836001613260565b505050565b6000612fa084846129a9565b90507fffffffffffffffffffffffffffffffffffffffffffffffffffffffffffffffff8110156130235781811015613013578281836040517ffb8f41b200000000000000000000000000000000000000000000000000000000815260040161300a93929190614a4d565b60405180910390fd5b61302284848484036000613260565b5b50505050565b600073ffffffffffffffffffffffffffffffffffffffff168373ffffffffffffffffffffffffffffffffffffffff160361309b5760006040517f96c6fd1e0000000000000000000000000000000000000000000000000000000081526004016130929190613969565b60405180910390fd5b600073ffffffffffffffffffffffffffffffffffffffff168273ffffffffffffffffffffffffffffffffffffffff160361310d5760006040517fec442f050000000000000000000000000000000000000000000000000000000081526004016131049190613969565b60405180910390fd5b613118838383613437565b505050565b60006131298383611e78565b6132045760016005600085815260200190815260200160002060000160008473ffffffffffffffffffffffffffffffffffffffff1673ffffffffffffffffffffffffffffffffffffffff16815260200190815260200160002060006101000a81548160ff0219169083151502179055506131a1612f7a565b73ffffffffffffffffffffffffffffffffffffffff168273ffffffffffffffffffffffffffffffffffffffff16847f2f8788117e7eff1d82e926ec794901d17c78024a50270940304540a733656f0d60405160405180910390a460019050613209565b600090505b92915050565b6132198282611e78565b61325c5780826040517fe2517d3f000000000000000000000000000000000000000000000000000000008152600401613253929190614a84565b60405180910390fd5b5050565b600073ffffffffffffffffffffffffffffffffffffffff168473ffffffffffffffffffffffffffffffffffffffff16036132d25760006040517fe602df050000000000000000000000000000000000000000000000000000000081526004016132c99190613969565b60405180910390fd5b600073ffffffffffffffffffffffffffffffffffffffff168373ffffffffffffffffffffffffffffffffffffffff16036133445760006040517f94280d6200000000000000000000000000000000000000000000000000000000815260040161333b9190613969565b60405180910390fd5b81600160008673ffffffffffffffffffffffffffffffffffffffff1673ffffffffffffffffffffffffffffffffffffffff16815260200190815260200160002060008573ffffffffffffffffffffffffffffffffffffffff1673ffffffffffffffffffffffffffffffffffffffff168152602001908152602001600020819055508015613431578273ffffffffffffffffffffffffffffffffffffffff168473ffffffffffffffffffffffffffffffffffffffff167f8c5be1e5ebec7d5bd14f71427d1e84f3dd0314c0f7b2291e5b200ac8c7c3b925846040516134289190613912565b60405180910390a35b50505050565b600073ffffffffffffffffffffffffffffffffffffffff168373ffffffffffffffffffffffffffffffffffffffff160361348957806002600082825461347d9190614445565b9250508190555061355c565b60008060008573ffffffffffffffffffffffffffffffffffffffff1673ffffffffffffffffffffffffffffffffffffffff16815260200190815260200160002054905081811015613515578381836040517fe450d38c00000000000000000000000000000000000000000000000000000000815260040161350c93929190614a4d565b60405180910390fd5b8181036000808673ffffffffffffffffffffffffffffffffffffffff1673ffffffffffffffffffffffffffffffffffffffff16815260200190815260200160002081905550505b600073ffffffffffffffffffffffffffffffffffffffff168273ffffffffffffffffffffffffffffffffffffffff16036135a557806002600082825403925050819055506135f2565b806000808473ffffffffffffffffffffffffffffffffffffffff1673ffffffffffffffffffffffffffffffffffffffff168152602001908152602001600020600082825401925050819055505b8173ffffffffffffffffffffffffffffffffffffffff168373ffffffffffffffffffffffffffffffffffffffff167fddf252ad1be2c89b69c2b068fc378daa952ba7f163c4a11628f55a4df523b3ef8360405161364f9190613912565b60405180910390a3505050565b600080fd5b60007fffffffff0000000000000000000000000000000000000000000000000000000082169050919050565b61369681613661565b81146136a157600080fd5b50565b6000813590506136b38161368d565b92915050565b6000602082840312156136cf576136ce61365c565b5b60006136dd848285016136a4565b91505092915050565b60008115159050919050565b6136fb816136e6565b82525050565b600060208201905061371660008301846136f2565b92915050565b600073ffffffffffffffffffffffffffffffffffffffff82169050919050565b60006137478261371c565b9050919050565b6137578161373c565b811461376257600080fd5b50565b6000813590506137748161374e565b92915050565b6000602082840312156137905761378f61365c565b5b600061379e84828501613765565b91505092915050565b6000819050919050565b6137ba816137a7565b82525050565b60006020820190506137d560008301846137b1565b92915050565b600081519050919050565b600082825260208201905092915050565b60005b838110156138155780820151818401526020810190506137fa565b60008484015250505050565b6000601f19601f8301169050919050565b600061383d826137db565b61384781856137e6565b93506138578185602086016137f7565b61386081613821565b840191505092915050565b600060208201905081810360008301526138858184613832565b905092915050565b6000819050919050565b6138a08161388d565b81146138ab57600080fd5b50565b6000813590506138bd81613897565b92915050565b600080604083850312156138da576138d961365c565b5b60006138e885828601613765565b92505060206138f9858286016138ae565b9150509250929050565b61390c8161388d565b82525050565b60006020820190506139276000830184613903565b92915050565b6000602082840312156139435761394261365c565b5b6000613951848285016138ae565b91505092915050565b6139638161373c565b82525050565b600060208201905061397e600083018461395a565b92915050565b60008060006060848603121561399d5761399c61365c565b5b60006139ab86828701613765565b93505060206139bc86828701613765565b92505060406139cd868287016138ae565b9150509250925092565b6139e0816137a7565b81146139eb57600080fd5b50565b6000813590506139fd816139d7565b92915050565b600060208284031215613a1957613a1861365c565b5b6000613a27848285016139ee565b91505092915050565b60008060408385031215613a4757613a4661365c565b5b6000613a55858286016139ee565b9250506020613a6685828601613765565b9150509250929050565b600060ff82169050919050565b613a8681613a70565b82525050565b6000602082019050613aa16000830184613a7d565b92915050565b600081519050919050565b600082825260208201905092915050565b6000613ace82613aa7565b613ad88185613ab2565b9350613ae88185602086016137f7565b613af181613821565b840191505092915050565b600060c082019050613b116000830189613903565b613b1e602083018861395a565b613b2b604083018761395a565b8181036060830152613b3d8186613ac3565b9050613b4c6080830185613903565b613b5960a08301846136f2565b979650505050505050565b600067ffffffffffffffff82169050919050565b613b8181613b64565b8114613b8c57600080fd5b50565b600081359050613b9e81613b78565b92915050565b600080600080600060a08688031215613bc057613bbf61365c565b5b6000613bce88828901613765565b9550506020613bdf88828901613b8f565b9450506040613bf088828901613b8f565b9350506060613c0188828901613b8f565b9250506080613c1288828901613b8f565b9150509295509295909350565b6000604082019050613c346000830185613903565b613c416020830184613903565b9392505050565b613c5181613b64565b82525050565b600060c082019050613c6c6000830189613903565b613c796020830188613903565b613c866040830187613903565b613c936060830186613c48565b613ca06080830185613c48565b613cad60a0830184613c48565b979650505050505050565b60008060408385031215613ccf57613cce61365c565b5b6000613cdd85828601613765565b9250506020613cee85828601613765565b9150509250929050565b6000608082019050613d0d6000830187613c48565b613d1a6020830186613c48565b613d276040830185613c48565b613d346060830184613c48565b95945050505050565b7f41646472657373206e6f7420696e20496e766573746f72730000000000000000600082015250565b6000613d736018836137e6565b9150613d7e82613d3d565b602082019050919050565b60006020820190508181036000830152613da281613d66565b9050919050565b7f496e766573746f72000000000000000000000000000000000000000000000000600082015250565b6000613ddf6008836137e6565b9150613dea82613da9565b602082019050919050565b60006020820190508181036000830152613e0e81613dd2565b9050919050565b7f4e487b7100000000000000000000000000000000000000000000000000000000600052602260045260246000fd5b60006002820490506001821680613e5c57607f821691505b602082108103613e6f57613e6e613e15565b5b50919050565b7f416c726561647920616464656420746f205465616d0000000000000000000000600082015250565b6000613eab6015836137e6565b9150613eb682613e75565b602082019050919050565b60006020820190508181036000830152613eda81613e9e565b9050919050565b7f5465616d00000000000000000000000000000000000000000000000000000000600082015250565b6000613f176004836137e6565b9150613f2282613ee1565b602082019050919050565b60006020820190508181036000830152613f4681613f0a565b9050919050565b7f56657374696e67207363686564756c6520616c72656164792073657400000000600082015250565b6000613f83601c836137e6565b9150613f8e82613f4d565b602082019050919050565b60006020820190508181036000830152613fb281613f76565b9050919050565b7f4475726174696f6e206d7573742062652067726561746572207468616e20636c60008201527f6966662074696d652e0000000000000000000000000000000000000000000000602082015250565b60006140156029836137e6565b915061402082613fb9565b604082019050919050565b6000602082019050818103600083015261404481614008565b9050919050565b7f496e74657276616c206d7573742062652067726561746572207468616e203000600082015250565b6000614081601f836137e6565b915061408c8261404b565b602082019050919050565b600060208201905081810360008301526140b081614074565b9050919050565b7f4e6f2076657374696e67207363686564756c6500000000000000000000000000600082015250565b60006140ed6013836137e6565b91506140f8826140b7565b602082019050919050565b6000602082019050818103600083015261411c816140e0565b9050919050565b7f56657374696e67206e6f74207374617274656400000000000000000000000000600082015250565b60006141596013836137e6565b915061416482614123565b602082019050919050565b600060208201905081810360008301526141888161414c565b9050919050565b7f4e6f20746f6b656e7320746f2072656c65617365000000000000000000000000600082015250565b60006141c56014836137e6565b91506141d08261418f565b602082019050919050565b600060208201905081810360008301526141f4816141b8565b9050919050565b7f4e487b7100000000000000000000000000000000000000000000000000000000600052601160045260246000fd5b600061423582613b64565b915061424083613b64565b9250828203905067ffffffffffffffff8111156142605761425f6141fb565b5b92915050565b7f436c69666620706572696f64206e6f7420726561636865640000000000000000600082015250565b600061429c6018836137e6565b91506142a782614266565b602082019050919050565b600060208201905081810360008301526142cb8161428f565b9050919050565b7f4e487b7100000000000000000000000000000000000000000000000000000000600052601260045260246000fd5b600061430c82613b64565b915061431783613b64565b925082614327576143266142d2565b5b828204905092915050565b600061433d8261388d565b91506143488361388d565b92508282026143568161388d565b9150828204841483151761436d5761436c6141fb565b5b5092915050565b600061437f8261388d565b915061438a8361388d565b92508261439a576143996142d2565b5b828204905092915050565b60006143b08261388d565b91506143bb8361388d565b92508282039050818111156143d3576143d26141fb565b5b92915050565b7f4e6f20746f6b656e7320617661696c61626c6520746f20636c61696d00000000600082015250565b600061440f601c836137e6565b915061441a826143d9565b602082019050919050565b6000602082019050818103600083015261443e81614402565b9050919050565b60006144508261388d565b915061445b8361388d565b9250828201905080821115614473576144726141fb565b5b92915050565b7f41646472657373206e6f7420696e2041647669736f7273000000000000000000600082015250565b60006144af6017836137e6565b91506144ba82614479565b602082019050919050565b600060208201905081810360008301526144de816144a2565b9050919050565b7f41647669736f7273000000000000000000000000000000000000000000000000600082015250565b600061451b6008836137e6565b9150614526826144e5565b602082019050919050565b6000602082019050818103600083015261454a8161450e565b9050919050565b7f416c726561647920696e20726576696577657220706f6f6c0000000000000000600082015250565b60006145876018836137e6565b915061459282614551565b602082019050919050565b600060208201905081810360008301526145b68161457a565b9050919050565b60006145c882613b64565b91506145d383613b64565b9250828201905067ffffffffffffffff8111156145f3576145f26141fb565b5b92915050565b7f50726f706f73616c20616c726561647920657865637574656400000000000000600082015250565b600061462f6019836137e6565b915061463a826145f9565b602082019050919050565b6000602082019050818103600083015261465e81614622565b9050919050565b7f416c726561647920617070726f76656400000000000000000000000000000000600082015250565b600061469b6010836137e6565b91506146a682614665565b602082019050919050565b600060208201905081810360008301526146ca8161468e565b9050919050565b60006146dc8261388d565b91507fffffffffffffffffffffffffffffffffffffffffffffffffffffffffffffffff820361470e5761470d6141fb565b5b600182019050919050565b600081905092915050565b60008190508160005260206000209050919050565b6000815461474681613e44565b6147508186614719565b9450600182166000811461476b5760018114614780576147b3565b60ff19831686528115158202860193506147b3565b61478985614724565b60005b838110156147ab5781548189015260018201915060208101905061478c565b838801955050505b50505092915050565b60006147c88284614739565b915081905092915050565b7f50726f706f73616c20657865637574696f6e206661696c656400000000000000600082015250565b60006148096019836137e6565b9150614814826147d3565b602082019050919050565b60006020820190508181036000830152614838816147fc565b9050919050565b7f4e6f7420696e20726576696577657220706f6f6c000000000000000000000000600082015250565b60006148756014836137e6565b91506148808261483f565b602082019050919050565b600060208201905081810360008301526148a481614868565b9050919050565b7f4e487b7100000000000000000000000000000000000000000000000000000000600052603260045260246000fd5b7f4e487b7100000000000000000000000000000000000000000000000000000000600052603160045260246000fd5b7f416c726561647920616464656420746f2041647669736f727300000000000000600082015250565b600061493f6019836137e6565b915061494a82614909565b602082019050919050565b6000602082019050818103600083015261496e81614932565b9050919050565b7f416c726561647920616464656420746f20496e766573746f7273000000000000600082015250565b60006149ab601a836137e6565b91506149b682614975565b602082019050919050565b600060208201905081810360008301526149da8161499e565b9050919050565b7f41646472657373206e6f7420696e205465616d00000000000000000000000000600082015250565b6000614a176013836137e6565b9150614a22826149e1565b602082019050919050565b60006020820190508181036000830152614a4681614a0a565b9050919050565b6000606082019050614a62600083018661395a565b614a6f6020830185613903565b614a7c6040830184613903565b949350505050565b6000604082019050614a99600083018561395a565b614aa660208301846137b1565b939250505056fea2646970667358221220da2d0b313abe5f709586b6ee6959a85e97f440712fff7adfdf1f01effc3316ea64736f6c634300081b0033",
  "linkReferences": {},
  "deployedLinkReferences": {}
}