{
  "_format": "hh-sol-artifact-1",
  "contractName": "Vesting",
  "sourceName": "contracts/Vesting.sol",
  "abi": [
    {
      "inputs": [
        {
          "internalType": "address[]",
          "name": "_reviewers",
          "type": "address[]"
        }
      ],
      "stateMutability": "nonpayable",
      "type": "constructor"
    },
    {
      "inputs": [],
      "name": "AccessControlBadConfirmation",
      "type": "error"
    },
    {
      "inputs": [
        {
          "internalType": "address",
          "name": "account",
          "type": "address"
        },
        {
          "internalType": "bytes32",
          "name": "neededRole",
          "type": "bytes32"
        }
      ],
      "name": "AccessControlUnauthorizedAccount",
      "type": "error"
    },
    {
      "inputs": [
        {
          "internalType": "address",
          "name": "spender",
          "type": "address"
        },
        {
          "internalType": "uint256",
          "name": "allowance",
          "type": "uint256"
        },
        {
          "internalType": "uint256",
          "name": "needed",
          "type": "uint256"
        }
      ],
      "name": "ERC20InsufficientAllowance",
      "type": "error"
    },
    {
      "inputs": [
        {
          "internalType": "address",
          "name": "sender",
          "type": "address"
        },
        {
          "internalType": "uint256",
          "name": "balance",
          "type": "uint256"
        },
        {
          "internalType": "uint256",
          "name": "needed",
          "type": "uint256"
        }
      ],
      "name": "ERC20InsufficientBalance",
      "type": "error"
    },
    {
      "inputs": [
        {
          "internalType": "address",
          "name": "approver",
          "type": "address"
        }
      ],
      "name": "ERC20InvalidApprover",
      "type": "error"
    },
    {
      "inputs": [
        {
          "internalType": "address",
          "name": "receiver",
          "type": "address"
        }
      ],
      "name": "ERC20InvalidReceiver",
      "type": "error"
    },
    {
      "inputs": [
        {
          "internalType": "address",
          "name": "sender",
          "type": "address"
        }
      ],
      "name": "ERC20InvalidSender",
      "type": "error"
    },
    {
      "inputs": [
        {
          "internalType": "address",
          "name": "spender",
          "type": "address"
        }
      ],
      "name": "ERC20InvalidSpender",
      "type": "error"
    },
    {
      "anonymous": false,
      "inputs": [
        {
          "indexed": true,
          "internalType": "address",
          "name": "beneficiary",
          "type": "address"
        },
        {
          "indexed": false,
          "internalType": "string",
          "name": "role",
          "type": "string"
        }
      ],
      "name": "AddressAdded",
      "type": "event"
    },
    {
      "anonymous": false,
      "inputs": [
        {
          "indexed": true,
          "internalType": "address",
          "name": "beneficiary",
          "type": "address"
        },
        {
          "indexed": false,
          "internalType": "string",
          "name": "role",
          "type": "string"
        }
      ],
      "name": "AddressRemoved",
      "type": "event"
    },
    {
      "anonymous": false,
      "inputs": [
        {
          "indexed": true,
          "internalType": "address",
          "name": "owner",
          "type": "address"
        },
        {
          "indexed": true,
          "internalType": "address",
          "name": "spender",
          "type": "address"
        },
        {
          "indexed": false,
          "internalType": "uint256",
          "name": "value",
          "type": "uint256"
        }
      ],
      "name": "Approval",
      "type": "event"
    },
    {
      "anonymous": false,
      "inputs": [
        {
          "indexed": true,
          "internalType": "address",
          "name": "_account",
          "type": "address"
        },
        {
          "indexed": false,
          "internalType": "uint256",
          "name": "_amount",
          "type": "uint256"
        }
      ],
      "name": "BurnSuccess",
      "type": "event"
    },
    {
      "anonymous": false,
      "inputs": [
        {
          "indexed": true,
          "internalType": "address",
          "name": "_to",
          "type": "address"
        },
        {
          "indexed": true,
          "internalType": "uint256",
          "name": "_amount",
          "type": "uint256"
        }
      ],
      "name": "MintSuccess",
      "type": "event"
    },
    {
      "anonymous": false,
      "inputs": [
        {
          "indexed": true,
          "internalType": "uint256",
          "name": "proposalId",
          "type": "uint256"
        },
        {
          "indexed": false,
          "internalType": "address",
          "name": "approver",
          "type": "address"
        }
      ],
      "name": "MultiSigProposalApproved",
      "type": "event"
    },
    {
      "anonymous": false,
      "inputs": [
        {
          "indexed": true,
          "internalType": "uint256",
          "name": "proposalId",
          "type": "uint256"
        },
        {
          "indexed": false,
          "internalType": "address",
          "name": "proposer",
          "type": "address"
        }
      ],
      "name": "MultiSigProposalCreated",
      "type": "event"
    },
    {
      "anonymous": false,
      "inputs": [
        {
          "indexed": true,
          "internalType": "uint256",
          "name": "proposalId",
          "type": "uint256"
        }
      ],
      "name": "MultiSigProposalExecuted",
      "type": "event"
    },
    {
      "anonymous": false,
      "inputs": [
        {
          "indexed": true,
          "internalType": "address",
          "name": "reviewer",
          "type": "address"
        }
      ],
      "name": "ReviewerAddedToPool",
      "type": "event"
    },
    {
      "anonymous": false,
      "inputs": [
        {
          "indexed": true,
          "internalType": "address",
          "name": "reviewer",
          "type": "address"
        }
      ],
      "name": "ReviewerRemovedFromPool",
      "type": "event"
    },
    {
      "anonymous": false,
      "inputs": [
        {
          "indexed": true,
          "internalType": "bytes32",
          "name": "role",
          "type": "bytes32"
        },
        {
          "indexed": true,
          "internalType": "bytes32",
          "name": "previousAdminRole",
          "type": "bytes32"
        },
        {
          "indexed": true,
          "internalType": "bytes32",
          "name": "newAdminRole",
          "type": "bytes32"
        }
      ],
      "name": "RoleAdminChanged",
      "type": "event"
    },
    {
      "anonymous": false,
      "inputs": [
        {
          "indexed": true,
          "internalType": "bytes32",
          "name": "role",
          "type": "bytes32"
        },
        {
          "indexed": true,
          "internalType": "address",
          "name": "account",
          "type": "address"
        },
        {
          "indexed": true,
          "internalType": "address",
          "name": "sender",
          "type": "address"
        }
      ],
      "name": "RoleGranted",
      "type": "event"
    },
    {
      "anonymous": false,
      "inputs": [
        {
          "indexed": true,
          "internalType": "bytes32",
          "name": "role",
          "type": "bytes32"
        },
        {
          "indexed": true,
          "internalType": "address",
          "name": "account",
          "type": "address"
        },
        {
          "indexed": true,
          "internalType": "address",
          "name": "sender",
          "type": "address"
        }
      ],
      "name": "RoleRevoked",
      "type": "event"
    },
    {
      "anonymous": false,
      "inputs": [
        {
          "indexed": true,
          "internalType": "address",
          "name": "beneficiary",
          "type": "address"
        },
        {
          "indexed": false,
          "internalType": "uint256",
          "name": "amount",
          "type": "uint256"
        }
      ],
      "name": "TokensLocked",
      "type": "event"
    },
    {
      "anonymous": false,
      "inputs": [
        {
          "indexed": true,
          "internalType": "address",
          "name": "beneficiary",
          "type": "address"
        },
        {
          "indexed": false,
          "internalType": "uint256",
          "name": "amount",
          "type": "uint256"
        }
      ],
      "name": "TokensReleased",
      "type": "event"
    },
    {
      "anonymous": false,
      "inputs": [
        {
          "indexed": true,
          "internalType": "address",
          "name": "from",
          "type": "address"
        },
        {
          "indexed": true,
          "internalType": "address",
          "name": "to",
          "type": "address"
        },
        {
          "indexed": false,
          "internalType": "uint256",
          "name": "value",
          "type": "uint256"
        }
      ],
      "name": "Transfer",
      "type": "event"
    },
    {
      "inputs": [],
      "name": "ADVISOR_ROLE",
      "outputs": [
        {
          "internalType": "bytes32",
          "name": "",
          "type": "bytes32"
        }
      ],
      "stateMutability": "view",
      "type": "function"
    },
    {
      "inputs": [],
      "name": "DEFAULT_ADMIN_ROLE",
      "outputs": [
        {
          "internalType": "bytes32",
          "name": "",
          "type": "bytes32"
        }
      ],
      "stateMutability": "view",
      "type": "function"
    },
    {
      "inputs": [],
      "name": "INVESTOR_ROLE",
      "outputs": [
        {
          "internalType": "bytes32",
          "name": "",
          "type": "bytes32"
        }
      ],
      "stateMutability": "view",
      "type": "function"
    },
    {
      "inputs": [],
      "name": "MAX_SUPPLY",
      "outputs": [
        {
          "internalType": "uint256",
          "name": "",
          "type": "uint256"
        }
      ],
      "stateMutability": "view",
      "type": "function"
    },
    {
      "inputs": [],
      "name": "MULTISIG_APPROVER",
      "outputs": [
        {
          "internalType": "bytes32",
          "name": "",
          "type": "bytes32"
        }
      ],
      "stateMutability": "view",
      "type": "function"
    },
    {
      "inputs": [],
      "name": "REVIEWER_ROLE",
      "outputs": [
        {
          "internalType": "bytes32",
          "name": "",
          "type": "bytes32"
        }
      ],
      "stateMutability": "view",
      "type": "function"
    },
    {
      "inputs": [],
      "name": "TEAM_ROLE",
      "outputs": [
        {
          "internalType": "bytes32",
          "name": "",
          "type": "bytes32"
        }
      ],
      "stateMutability": "view",
      "type": "function"
    },
    {
      "inputs": [],
      "name": "VESTING_POOL",
      "outputs": [
        {
          "internalType": "uint256",
          "name": "",
          "type": "uint256"
        }
      ],
      "stateMutability": "view",
      "type": "function"
    },
    {
      "inputs": [
        {
          "internalType": "address",
          "name": "newApprover",
          "type": "address"
        }
      ],
      "name": "addMultiSigApprover",
      "outputs": [],
      "stateMutability": "nonpayable",
      "type": "function"
    },
    {
      "inputs": [
        {
          "internalType": "address",
          "name": "newReviewer",
          "type": "address"
        }
      ],
      "name": "addReviewer",
      "outputs": [],
      "stateMutability": "nonpayable",
      "type": "function"
    },
    {
      "inputs": [
        {
          "internalType": "address",
          "name": "beneficiary",
          "type": "address"
        }
      ],
      "name": "addTeamMember",
      "outputs": [],
      "stateMutability": "nonpayable",
      "type": "function"
    },
    {
      "inputs": [
        {
          "internalType": "address",
          "name": "beneficiary",
          "type": "address"
        }
      ],
      "name": "addToAdvisors",
      "outputs": [],
      "stateMutability": "nonpayable",
      "type": "function"
    },
    {
      "inputs": [
        {
          "internalType": "address",
          "name": "beneficiary",
          "type": "address"
        }
      ],
      "name": "addToInvestors",
      "outputs": [],
      "stateMutability": "nonpayable",
      "type": "function"
    },
    {
      "inputs": [
        {
          "internalType": "uint256",
          "name": "",
          "type": "uint256"
        }
      ],
      "name": "advisors",
      "outputs": [
        {
          "internalType": "address",
          "name": "",
          "type": "address"
        }
      ],
      "stateMutability": "view",
      "type": "function"
    },
    {
      "inputs": [
        {
          "internalType": "address",
          "name": "owner",
          "type": "address"
        },
        {
          "internalType": "address",
          "name": "spender",
          "type": "address"
        }
      ],
      "name": "allowance",
      "outputs": [
        {
          "internalType": "uint256",
          "name": "",
          "type": "uint256"
        }
      ],
      "stateMutability": "view",
      "type": "function"
    },
    {
      "inputs": [
        {
          "internalType": "address",
          "name": "spender",
          "type": "address"
        },
        {
          "internalType": "uint256",
          "name": "value",
          "type": "uint256"
        }
      ],
      "name": "approve",
      "outputs": [
        {
          "internalType": "bool",
          "name": "",
          "type": "bool"
        }
      ],
      "stateMutability": "nonpayable",
      "type": "function"
    },
    {
      "inputs": [
        {
          "internalType": "uint256",
          "name": "_proposalId",
          "type": "uint256"
        }
      ],
      "name": "approveMultiSigProposal",
      "outputs": [],
      "stateMutability": "nonpayable",
      "type": "function"
    },
    {
      "inputs": [
        {
          "internalType": "address",
          "name": "account",
          "type": "address"
        }
      ],
      "name": "balanceOf",
      "outputs": [
        {
          "internalType": "uint256",
          "name": "",
          "type": "uint256"
        }
      ],
      "stateMutability": "view",
      "type": "function"
    },
    {
      "inputs": [],
      "name": "decimals",
      "outputs": [
        {
          "internalType": "uint8",
          "name": "",
          "type": "uint8"
        }
      ],
      "stateMutability": "view",
      "type": "function"
    },
    {
      "inputs": [
        {
          "internalType": "bytes32",
          "name": "role",
          "type": "bytes32"
        }
      ],
      "name": "getRoleAdmin",
      "outputs": [
        {
          "internalType": "bytes32",
          "name": "",
          "type": "bytes32"
        }
      ],
      "stateMutability": "view",
      "type": "function"
    },
    {
      "inputs": [
        {
          "internalType": "address",
          "name": "beneficiary",
          "type": "address"
        }
      ],
      "name": "getVestingDetails",
      "outputs": [
        {
          "internalType": "uint256",
          "name": "lockedAmount",
          "type": "uint256"
        },
        {
          "internalType": "uint256",
          "name": "claimedAmount",
          "type": "uint256"
        },
        {
          "internalType": "uint256",
          "name": "claimableAmount",
          "type": "uint256"
        },
        {
          "internalType": "uint64",
          "name": "cliffTime",
          "type": "uint64"
        },
        {
          "internalType": "uint64",
          "name": "duration",
          "type": "uint64"
        },
        {
          "internalType": "uint64",
          "name": "interval",
          "type": "uint64"
        }
      ],
      "stateMutability": "view",
      "type": "function"
    },
    {
      "inputs": [
        {
          "internalType": "bytes32",
          "name": "role",
          "type": "bytes32"
        },
        {
          "internalType": "address",
          "name": "account",
          "type": "address"
        }
      ],
      "name": "grantRole",
      "outputs": [],
      "stateMutability": "nonpayable",
      "type": "function"
    },
    {
      "inputs": [
        {
          "internalType": "bytes32",
          "name": "role",
          "type": "bytes32"
        },
        {
          "internalType": "address",
          "name": "account",
          "type": "address"
        }
      ],
      "name": "hasRole",
      "outputs": [
        {
          "internalType": "bool",
          "name": "",
          "type": "bool"
        }
      ],
      "stateMutability": "view",
      "type": "function"
    },
    {
      "inputs": [
        {
          "internalType": "uint256",
          "name": "",
          "type": "uint256"
        }
      ],
      "name": "investors",
      "outputs": [
        {
          "internalType": "address",
          "name": "",
          "type": "address"
        }
      ],
      "stateMutability": "view",
      "type": "function"
    },
    {
      "inputs": [
        {
          "internalType": "address",
          "name": "",
          "type": "address"
        }
      ],
      "name": "isInAdvisors",
      "outputs": [
        {
          "internalType": "bool",
          "name": "",
          "type": "bool"
        }
      ],
      "stateMutability": "view",
      "type": "function"
    },
    {
      "inputs": [
        {
          "internalType": "address",
          "name": "",
          "type": "address"
        }
      ],
      "name": "isInInvestor",
      "outputs": [
        {
          "internalType": "bool",
          "name": "",
          "type": "bool"
        }
      ],
      "stateMutability": "view",
      "type": "function"
    },
    {
      "inputs": [
        {
          "internalType": "address",
          "name": "",
          "type": "address"
        }
      ],
      "name": "isInReviewerPool",
      "outputs": [
        {
          "internalType": "bool",
          "name": "",
          "type": "bool"
        }
      ],
      "stateMutability": "view",
      "type": "function"
    },
    {
      "inputs": [
        {
          "internalType": "address",
          "name": "",
          "type": "address"
        }
      ],
      "name": "isInTeam",
      "outputs": [
        {
          "internalType": "bool",
          "name": "",
          "type": "bool"
        }
      ],
      "stateMutability": "view",
      "type": "function"
    },
    {
      "inputs": [
        {
          "internalType": "address",
          "name": "account",
          "type": "address"
        }
      ],
      "name": "isReviewer",
      "outputs": [
        {
          "internalType": "bool",
          "name": "",
          "type": "bool"
        }
      ],
      "stateMutability": "view",
      "type": "function"
    },
    {
      "inputs": [
        {
          "internalType": "uint256",
          "name": "",
          "type": "uint256"
        }
      ],
      "name": "multiSigProposals",
      "outputs": [
        {
          "internalType": "uint256",
          "name": "id",
          "type": "uint256"
        },
        {
          "internalType": "address",
          "name": "proposer",
          "type": "address"
        },
        {
          "internalType": "address",
          "name": "targetContract",
          "type": "address"
        },
        {
          "internalType": "bytes",
          "name": "data",
          "type": "bytes"
        },
        {
          "internalType": "uint256",
          "name": "approvalCount",
          "type": "uint256"
        },
        {
          "internalType": "bool",
          "name": "executed",
          "type": "bool"
        }
      ],
      "stateMutability": "view",
      "type": "function"
    },
    {
      "inputs": [],
      "name": "name",
      "outputs": [
        {
          "internalType": "string",
          "name": "",
          "type": "string"
        }
      ],
      "stateMutability": "view",
      "type": "function"
    },
    {
      "inputs": [],
      "name": "releaseVestedTokens",
      "outputs": [],
      "stateMutability": "nonpayable",
      "type": "function"
    },
    {
      "inputs": [
        {
          "internalType": "address",
          "name": "beneficiary",
          "type": "address"
        }
      ],
      "name": "removeFromAdvisors",
      "outputs": [],
      "stateMutability": "nonpayable",
      "type": "function"
    },
    {
      "inputs": [
        {
          "internalType": "address",
          "name": "beneficiary",
          "type": "address"
        }
      ],
      "name": "removeFromInvestors",
      "outputs": [],
      "stateMutability": "nonpayable",
      "type": "function"
    },
    {
      "inputs": [
        {
          "internalType": "address",
          "name": "beneficiary",
          "type": "address"
        }
      ],
      "name": "removeFromTeam",
      "outputs": [],
      "stateMutability": "nonpayable",
      "type": "function"
    },
    {
      "inputs": [
        {
          "internalType": "address",
          "name": "approver",
          "type": "address"
        }
      ],
      "name": "removeMultiSigApprover",
      "outputs": [],
      "stateMutability": "nonpayable",
      "type": "function"
    },
    {
      "inputs": [
        {
          "internalType": "address",
          "name": "reviewer",
          "type": "address"
        }
      ],
      "name": "removeReviewer",
      "outputs": [],
      "stateMutability": "nonpayable",
      "type": "function"
    },
    {
      "inputs": [
        {
          "internalType": "bytes32",
          "name": "role",
          "type": "bytes32"
        },
        {
          "internalType": "address",
          "name": "callerConfirmation",
          "type": "address"
        }
      ],
      "name": "renounceRole",
      "outputs": [],
      "stateMutability": "nonpayable",
      "type": "function"
    },
    {
      "inputs": [
        {
          "internalType": "uint256",
          "name": "",
          "type": "uint256"
        }
      ],
      "name": "reviewerPool",
      "outputs": [
        {
          "internalType": "address",
          "name": "",
          "type": "address"
        }
      ],
      "stateMutability": "view",
      "type": "function"
    },
    {
      "inputs": [
        {
          "internalType": "bytes32",
          "name": "role",
          "type": "bytes32"
        },
        {
          "internalType": "address",
          "name": "account",
          "type": "address"
        }
      ],
      "name": "revokeRole",
      "outputs": [],
      "stateMutability": "nonpayable",
      "type": "function"
    },
    {
      "inputs": [
        {
          "internalType": "address",
          "name": "beneficiary",
          "type": "address"
        },
        {
          "internalType": "uint64",
          "name": "startTime",
          "type": "uint64"
        },
        {
          "internalType": "uint64",
          "name": "cliffTime",
          "type": "uint64"
        },
        {
          "internalType": "uint64",
          "name": "duration",
          "type": "uint64"
        },
        {
          "internalType": "uint64",
          "name": "interval",
          "type": "uint64"
        }
      ],
      "name": "setVestingSchedule",
      "outputs": [],
      "stateMutability": "nonpayable",
      "type": "function"
    },
    {
      "inputs": [
        {
          "internalType": "bytes4",
          "name": "interfaceId",
          "type": "bytes4"
        }
      ],
      "name": "supportsInterface",
      "outputs": [
        {
          "internalType": "bool",
          "name": "",
          "type": "bool"
        }
      ],
      "stateMutability": "view",
      "type": "function"
    },
    {
      "inputs": [],
      "name": "symbol",
      "outputs": [
        {
          "internalType": "string",
          "name": "",
          "type": "string"
        }
      ],
      "stateMutability": "view",
      "type": "function"
    },
    {
      "inputs": [
        {
          "internalType": "uint256",
          "name": "",
          "type": "uint256"
        }
      ],
      "name": "team",
      "outputs": [
        {
          "internalType": "address",
          "name": "",
          "type": "address"
        }
      ],
      "stateMutability": "view",
      "type": "function"
    },
    {
      "inputs": [
        {
          "internalType": "address",
          "name": "",
          "type": "address"
        }
      ],
      "name": "tokenLocks",
      "outputs": [
        {
          "internalType": "uint256",
          "name": "amount",
          "type": "uint256"
        },
        {
          "internalType": "uint256",
          "name": "claimedAmount",
          "type": "uint256"
        }
      ],
      "stateMutability": "view",
      "type": "function"
    },
    {
      "inputs": [],
      "name": "totalSupply",
      "outputs": [
        {
          "internalType": "uint256",
          "name": "",
          "type": "uint256"
        }
      ],
      "stateMutability": "view",
      "type": "function"
    },
    {
      "inputs": [
        {
          "internalType": "address",
          "name": "to",
          "type": "address"
        },
        {
          "internalType": "uint256",
          "name": "value",
          "type": "uint256"
        }
      ],
      "name": "transfer",
      "outputs": [
        {
          "internalType": "bool",
          "name": "",
          "type": "bool"
        }
      ],
      "stateMutability": "nonpayable",
      "type": "function"
    },
    {
      "inputs": [
        {
          "internalType": "address",
          "name": "from",
          "type": "address"
        },
        {
          "internalType": "address",
          "name": "to",
          "type": "address"
        },
        {
          "internalType": "uint256",
          "name": "value",
          "type": "uint256"
        }
      ],
      "name": "transferFrom",
      "outputs": [
        {
          "internalType": "bool",
          "name": "",
          "type": "bool"
        }
      ],
      "stateMutability": "nonpayable",
      "type": "function"
    },
    {
      "inputs": [
        {
          "internalType": "address",
          "name": "",
          "type": "address"
        }
      ],
      "name": "vestingSchedules",
      "outputs": [
        {
          "internalType": "uint64",
          "name": "startTime",
          "type": "uint64"
        },
        {
          "internalType": "uint64",
          "name": "cliffTime",
          "type": "uint64"
        },
        {
          "internalType": "uint64",
          "name": "duration",
          "type": "uint64"
        },
        {
          "internalType": "uint64",
          "name": "interval",
          "type": "uint64"
        }
      ],
      "stateMutability": "view",
      "type": "function"
    }
  ],
  "bytecode": "0x608060405234801561001057600080fd5b506040516155cc3803806155cc833981810160405281019061003291906105f6565b806040518060400160405280600a81526020017f4142594120544f4b454e000000000000000000000000000000000000000000008152506040518060400160405280600681526020017f414259544b4e000000000000000000000000000000000000000000000000000081525081600390816100ae9190610860565b5080600490816100be9190610860565b505050600481511015610106576040517f08c379a00000000000000000000000000000000000000000000000000000000081526004016100fd906109b5565b60405180910390fd5b6101196000801b336102ba60201b60201c565b5061014a7fdf1425bae297c2f52b4f15d18a50b1fc8cb5b981a981b1d213ed3ff92681b64d336102ba60201b60201c565b5060005b815181101561029e576101a17fc10c77be35aff266144ed64c26a1fa104bae2f284ae99ac4a34203454704a18583838151811061018e5761018d6109d5565b5b60200260200101516102ba60201b60201c565b5060068282815181106101b7576101b66109d5565b5b60200260200101519080600181540180825580915050600190039060005260206000200160009091909190916101000a81548173ffffffffffffffffffffffffffffffffffffffff021916908373ffffffffffffffffffffffffffffffffffffffff160217905550600160086000848481518110610238576102376109d5565b5b602002602001015173ffffffffffffffffffffffffffffffffffffffff1673ffffffffffffffffffffffffffffffffffffffff16815260200190815260200160002060006101000a81548160ff021916908315150217905550808060010191505061014e565b50506102b36000801b336102ba60201b60201c565b5050610a04565b60006102cc83836103b860201b60201c565b6103ad5760016005600085815260200190815260200160002060000160008473ffffffffffffffffffffffffffffffffffffffff1673ffffffffffffffffffffffffffffffffffffffff16815260200190815260200160002060006101000a81548160ff02191690831515021790555061034a61042360201b60201c565b73ffffffffffffffffffffffffffffffffffffffff168273ffffffffffffffffffffffffffffffffffffffff16847f2f8788117e7eff1d82e926ec794901d17c78024a50270940304540a733656f0d60405160405180910390a4600190506103b2565b600090505b92915050565b60006005600084815260200190815260200160002060000160008373ffffffffffffffffffffffffffffffffffffffff1673ffffffffffffffffffffffffffffffffffffffff16815260200190815260200160002060009054906101000a900460ff16905092915050565b600033905090565b6000604051905090565b600080fd5b600080fd5b600080fd5b6000601f19601f8301169050919050565b7f4e487b7100000000000000000000000000000000000000000000000000000000600052604160045260246000fd5b61048d82610444565b810181811067ffffffffffffffff821117156104ac576104ab610455565b5b80604052505050565b60006104bf61042b565b90506104cb8282610484565b919050565b600067ffffffffffffffff8211156104eb576104ea610455565b5b602082029050602081019050919050565b600080fd5b600073ffffffffffffffffffffffffffffffffffffffff82169050919050565b600061052c82610501565b9050919050565b61053c81610521565b811461054757600080fd5b50565b60008151905061055981610533565b92915050565b600061057261056d846104d0565b6104b5565b90508083825260208201905060208402830185811115610595576105946104fc565b5b835b818110156105be57806105aa888261054a565b845260208401935050602081019050610597565b5050509392505050565b600082601f8301126105dd576105dc61043f565b5b81516105ed84826020860161055f565b91505092915050565b60006020828403121561060c5761060b610435565b5b600082015167ffffffffffffffff81111561062a5761062961043a565b5b610636848285016105c8565b91505092915050565b600081519050919050565b7f4e487b7100000000000000000000000000000000000000000000000000000000600052602260045260246000fd5b6000600282049050600182168061069157607f821691505b6020821081036106a4576106a361064a565b5b50919050565b60008190508160005260206000209050919050565b60006020601f8301049050919050565b600082821b905092915050565b60006008830261070c7fffffffffffffffffffffffffffffffffffffffffffffffffffffffffffffffff826106cf565b61071686836106cf565b95508019841693508086168417925050509392505050565b6000819050919050565b6000819050919050565b600061075d6107586107538461072e565b610738565b61072e565b9050919050565b6000819050919050565b61077783610742565b61078b61078382610764565b8484546106dc565b825550505050565b600090565b6107a0610793565b6107ab81848461076e565b505050565b5b818110156107cf576107c4600082610798565b6001810190506107b1565b5050565b601f821115610814576107e5816106aa565b6107ee846106bf565b810160208510156107fd578190505b610811610809856106bf565b8301826107b0565b50505b505050565b600082821c905092915050565b600061083760001984600802610819565b1980831691505092915050565b60006108508383610826565b9150826002028217905092915050565b6108698261063f565b67ffffffffffffffff81111561088257610881610455565b5b61088c8254610679565b6108978282856107d3565b600060209050601f8311600181146108ca57600084156108b8578287015190505b6108c28582610844565b86555061092a565b601f1984166108d8866106aa565b60005b82811015610900578489015182556001820191506020850194506020810190506108db565b8683101561091d5784890151610919601f891682610826565b8355505b6001600288020188555050505b505050505050565b600082825260208201905092915050565b7f4174206c6561737420342072657669657765727320617265207265717569726560008201527f6400000000000000000000000000000000000000000000000000000000000000602082015250565b600061099f602183610932565b91506109aa82610943565b604082019050919050565b600060208201905081810360008301526109ce81610992565b9050919050565b7f4e487b7100000000000000000000000000000000000000000000000000000000600052603260045260246000fd5b614bb980610a136000396000f3fe608060405234801561001057600080fd5b50600436106102bb5760003560e01c80634db4ad0311610182578063a9059cbb116100e9578063d547741f116100a2578063dfdedf691161007c578063dfdedf6914610937578063f3347ee514610953578063fdb20ccb14610971578063fdc6258a146109a4576102bb565b8063d547741f146108cf578063d7bed4bc146108eb578063dd62ed3e14610907576102bb565b8063a9059cbb146107eb578063bad0dd651461081b578063c491b04c14610837578063c9442dac14610867578063d2bd8d9414610883578063d42f5f3c1461089f576102bb565b806373a82b5f1161013b57806373a82b5f1461071057806376082a5e1461072c5780638dedf0091461074a57806391d148541461077f57806395d89b41146107af578063a217fddf146107cd576102bb565b80634db4ad031461063b57806352994e2f1461066b57806354dd1da414610689578063568e731b1461069357806356b63df7146106af57806370a08231146106e0576102bb565b8063280b9ab4116102265780633eb2b5ad116101df5780633eb2b5ad146105645780633feb5f2b1461058057806340932bf8146105b057806347e061e5146105e557806349d5e604146106015780634d6ca5d51461061f576102bb565b8063280b9ab4146104a25780632f2ff15d146104d2578063313ce567146104ee57806332cb6b0c1461050c57806336568abe1461052a5780633b129a5614610546576102bb565b806319656f7b1161027857806319656f7b14610396578063197ebd53146103b257806319f102ec146103e25780631ead78ff1461041257806323b872dd14610442578063248a9ca314610472576102bb565b806301ffc9a7146102c057806303c39ed9146102f057806306792f551461030c57806306fdde031461032a578063095ea7b31461034857806318160ddd14610378575b600080fd5b6102da60048036038101906102d5919061378f565b6109d4565b6040516102e791906137d7565b60405180910390f35b61030a60048036038101906103059190613850565b610a4e565b005b610314610bc5565b6040516103219190613896565b60405180910390f35b610332610be9565b60405161033f9190613941565b60405180910390f35b610362600480360381019061035d9190613999565b610c7b565b60405161036f91906137d7565b60405180910390f35b610380610c9e565b60405161038d91906139e8565b60405180910390f35b6103b060048036038101906103ab9190613850565b610ca8565b005b6103cc60048036038101906103c79190613a03565b610ce4565b6040516103d99190613a3f565b60405180910390f35b6103fc60048036038101906103f79190613a03565b610d23565b6040516104099190613a3f565b60405180910390f35b61042c60048036038101906104279190613850565b610d62565b60405161043991906137d7565b60405180910390f35b61045c60048036038101906104579190613a5a565b610d82565b60405161046991906137d7565b60405180910390f35b61048c60048036038101906104879190613ad9565b610db1565b6040516104999190613896565b60405180910390f35b6104bc60048036038101906104b79190613850565b610dd1565b6040516104c991906137d7565b60405180910390f35b6104ec60048036038101906104e79190613b06565b610df1565b005b6104f6610e13565b6040516105039190613b62565b60405180910390f35b610514610e1c565b60405161052191906139e8565b60405180910390f35b610544600480360381019061053f9190613b06565b610e2c565b005b61054e610ea7565b60405161055b9190613896565b60405180910390f35b61057e60048036038101906105799190613850565b610ecb565b005b61059a60048036038101906105959190613a03565b61109b565b6040516105a79190613a3f565b60405180910390f35b6105ca60048036038101906105c59190613a03565b6110da565b6040516105dc96959493929190613bd2565b60405180910390f35b6105ff60048036038101906105fa9190613c7a565b6111eb565b005b61060961148d565b6040516106169190613896565b60405180910390f35b61063960048036038101906106349190613850565b6114b1565b005b61065560048036038101906106509190613850565b6114ed565b60405161066291906137d7565b60405180910390f35b61067361150d565b6040516106809190613896565b60405180910390f35b610691611531565b005b6106ad60048036038101906106a89190613850565b6118fd565b005b6106c960048036038101906106c49190613850565b611a74565b6040516106d7929190613cf5565b60405180910390f35b6106fa60048036038101906106f59190613850565b611a98565b60405161070791906139e8565b60405180910390f35b61072a60048036038101906107259190613850565b611ae0565b005b610734611cc4565b6040516107419190613896565b60405180910390f35b610764600480360381019061075f9190613850565b611ce8565b60405161077696959493929190613d2d565b60405180910390f35b61079960048036038101906107949190613b06565b611f4e565b6040516107a691906137d7565b60405180910390f35b6107b7611fb9565b6040516107c49190613941565b60405180910390f35b6107d561204b565b6040516107e29190613896565b60405180910390f35b61080560048036038101906108009190613999565b612052565b60405161081291906137d7565b60405180910390f35b61083560048036038101906108309190613a03565b612075565b005b610851600480360381019061084c9190613850565b612374565b60405161085e91906137d7565b60405180910390f35b610881600480360381019061087c9190613850565b612394565b005b61089d60048036038101906108989190613850565b61267e565b005b6108b960048036038101906108b49190613a03565b61284e565b6040516108c69190613a3f565b60405180910390f35b6108e960048036038101906108e49190613b06565b61288d565b005b61090560048036038101906109009190613850565b6128af565b005b610921600480360381019061091c9190613d8e565b612a7f565b60405161092e91906139e8565b60405180910390f35b610951600480360381019061094c9190613850565b612b06565b005b61095b612c7d565b60405161096891906139e8565b60405180910390f35b61098b60048036038101906109869190613850565b612ca5565b60405161099b9493929190613dce565b60405180910390f35b6109be60048036038101906109b99190613850565b612d25565b6040516109cb91906137d7565b60405180910390f35b60007f7965db0b000000000000000000000000000000000000000000000000000000007bffffffffffffffffffffffffffffffffffffffffffffffffffffffff1916827bffffffffffffffffffffffffffffffffffffffffffffffffffffffff19161480610a475750610a4682612d58565b5b9050919050565b6000801b610a5b81612dc2565b600d60008373ffffffffffffffffffffffffffffffffffffffff1673ffffffffffffffffffffffffffffffffffffffff16815260200190815260200160002060009054906101000a900460ff16610ae7576040517f08c379a0000000000000000000000000000000000000000000000000000000008152600401610ade90613e5f565b60405180910390fd5b610af2600a83612dd6565b6000600d60008473ffffffffffffffffffffffffffffffffffffffff1673ffffffffffffffffffffffffffffffffffffffff16815260200190815260200160002060006101000a81548160ff021916908315150217905550610b747fb165298935924f540e4181c03493a5d686c54a0aaeb3f6216de85b7ffbba773883612f5d565b508173ffffffffffffffffffffffffffffffffffffffff167f40d1b8c90a526c4d4a3ac32bafe9c3ba00cbdae856c2075efca8b98cadf20fe0604051610bb990613ecb565b60405180910390a25050565b7f9c1ca198f61ac1647c38f20b6678649f8e87b7e06309094d812edd1e9119d30981565b606060038054610bf890613f1a565b80601f0160208091040260200160405190810160405280929190818152602001828054610c2490613f1a565b8015610c715780601f10610c4657610100808354040283529160200191610c71565b820191906000526020600020905b815481529060010190602001808311610c5457829003601f168201915b5050505050905090565b600080610c86613050565b9050610c93818585613058565b600191505092915050565b6000600254905090565b6000801b610cb581612dc2565b610cdf7fdf1425bae297c2f52b4f15d18a50b1fc8cb5b981a981b1d213ed3ff92681b64d83612f5d565b505050565b600b8181548110610cf457600080fd5b906000526020600020016000915054906101000a900473ffffffffffffffffffffffffffffffffffffffff1681565b60068181548110610d3357600080fd5b906000526020600020016000915054906101000a900473ffffffffffffffffffffffffffffffffffffffff1681565b600e6020528060005260406000206000915054906101000a900460ff1681565b600080610d8d613050565b9050610d9a85828561306a565b610da58585856130ff565b60019150509392505050565b600060056000838152602001908152602001600020600101549050919050565b600d6020528060005260406000206000915054906101000a900460ff1681565b610dfa82610db1565b610e0381612dc2565b610e0d83836131f3565b50505050565b60006012905090565b6b204fce5e3e2502611000000081565b610e34613050565b73ffffffffffffffffffffffffffffffffffffffff168173ffffffffffffffffffffffffffffffffffffffff1614610e98576040517f6697b23200000000000000000000000000000000000000000000000000000000815260040160405180910390fd5b610ea28282612f5d565b505050565b7fc10c77be35aff266144ed64c26a1fa104bae2f284ae99ac4a34203454704a18581565b6000801b610ed881612dc2565b600e60008373ffffffffffffffffffffffffffffffffffffffff1673ffffffffffffffffffffffffffffffffffffffff16815260200190815260200160002060009054906101000a900460ff1615610f65576040517f08c379a0000000000000000000000000000000000000000000000000000000008152600401610f5c90613f97565b60405180910390fd5b600b829080600181540180825580915050600190039060005260206000200160009091909190916101000a81548173ffffffffffffffffffffffffffffffffffffffff021916908373ffffffffffffffffffffffffffffffffffffffff1602179055506001600e60008473ffffffffffffffffffffffffffffffffffffffff1673ffffffffffffffffffffffffffffffffffffffff16815260200190815260200160002060006101000a81548160ff02191690831515021790555061104a7f5146a08baf902532d0ee2f909971144f12ca32651cd70cbee1117cddfb3b3b33836131f3565b508173ffffffffffffffffffffffffffffffffffffffff167f71c4586d57ada124e4bd494b6c0f9cb102be2af60eabee1b5c12e930f6a5eeb660405161108f90614003565b60405180910390a25050565b600a81815481106110ab57600080fd5b906000526020600020016000915054906101000a900473ffffffffffffffffffffffffffffffffffffffff1681565b60096020528060005260406000206000915090508060000154908060010160009054906101000a900473ffffffffffffffffffffffffffffffffffffffff16908060020160009054906101000a900473ffffffffffffffffffffffffffffffffffffffff169080600301805461114f90613f1a565b80601f016020809104026020016040519081016040528092919081815260200182805461117b90613f1a565b80156111c85780601f1061119d576101008083540402835291602001916111c8565b820191906000526020600020905b8154815290600101906020018083116111ab57829003601f168201915b5050505050908060040154908060050160009054906101000a900460ff16905086565b6000801b6111f881612dc2565b6000601060008873ffffffffffffffffffffffffffffffffffffffff1673ffffffffffffffffffffffffffffffffffffffff16815260200190815260200160002060000160009054906101000a900467ffffffffffffffff1667ffffffffffffffff161461129b576040517f08c379a00000000000000000000000000000000000000000000000000000000081526004016112929061406f565b60405180910390fd5b8367ffffffffffffffff168367ffffffffffffffff16116112f1576040517f08c379a00000000000000000000000000000000000000000000000000000000081526004016112e890614101565b60405180910390fd5b60008267ffffffffffffffff161161133e576040517f08c379a00000000000000000000000000000000000000000000000000000000081526004016113359061416d565b60405180910390fd5b60405180608001604052808667ffffffffffffffff1681526020018567ffffffffffffffff1681526020018467ffffffffffffffff1681526020018367ffffffffffffffff16815250601060008873ffffffffffffffffffffffffffffffffffffffff1673ffffffffffffffffffffffffffffffffffffffff16815260200190815260200160002060008201518160000160006101000a81548167ffffffffffffffff021916908367ffffffffffffffff16021790555060208201518160000160086101000a81548167ffffffffffffffff021916908367ffffffffffffffff16021790555060408201518160000160106101000a81548167ffffffffffffffff021916908367ffffffffffffffff16021790555060608201518160000160186101000a81548167ffffffffffffffff021916908367ffffffffffffffff160217905550905050505050505050565b7f5146a08baf902532d0ee2f909971144f12ca32651cd70cbee1117cddfb3b3b3381565b6000801b6114be81612dc2565b6114e87fdf1425bae297c2f52b4f15d18a50b1fc8cb5b981a981b1d213ed3ff92681b64d836131f3565b505050565b600f6020528060005260406000206000915054906101000a900460ff1681565b7fdf1425bae297c2f52b4f15d18a50b1fc8cb5b981a981b1d213ed3ff92681b64d81565b6000601060003373ffffffffffffffffffffffffffffffffffffffff1673ffffffffffffffffffffffffffffffffffffffff16815260200190815260200160002090506000601160003373ffffffffffffffffffffffffffffffffffffffff1673ffffffffffffffffffffffffffffffffffffffff168152602001908152602001600020905060008260000160009054906101000a900467ffffffffffffffff1667ffffffffffffffff161161161c576040517f08c379a0000000000000000000000000000000000000000000000000000000008152600401611613906141d9565b60405180910390fd5b8160000160009054906101000a900467ffffffffffffffff1667ffffffffffffffff16421015611681576040517f08c379a000000000000000000000000000000000000000000000000000000000815260040161167890614245565b60405180910390fd5b600081600001549050600081116116cd576040517f08c379a00000000000000000000000000000000000000000000000000000000081526004016116c4906142b1565b60405180910390fd5b60008360000160009054906101000a900467ffffffffffffffff16426116f39190614300565b90508360000160089054906101000a900467ffffffffffffffff1667ffffffffffffffff168167ffffffffffffffff161015611764576040517f08c379a000000000000000000000000000000000000000000000000000000000815260040161175b90614388565b60405180910390fd5b60008460000160189054906101000a900467ffffffffffffffff168261178a91906143d7565b905060008560000160189054906101000a900467ffffffffffffffff168660000160109054906101000a900467ffffffffffffffff166117ca91906143d7565b905060008167ffffffffffffffff168367ffffffffffffffff16101561181a578167ffffffffffffffff168367ffffffffffffffff168661180b9190614408565b611815919061444a565b61181c565b845b90506000866001015482611830919061447b565b905060008111611875576040517f08c379a000000000000000000000000000000000000000000000000000000000815260040161186c906144fb565b60405180910390fd5b60008760000154905081886001016000828254611892919061451b565b925050819055506118a33383612052565b503373ffffffffffffffffffffffffffffffffffffffff167fc7798891864187665ac6dd119286e44ec13f014527aeeb2b8eb3fd413df93179836040516118ea91906139e8565b60405180910390a2505050505050505050565b6000801b61190a81612dc2565b600f60008373ffffffffffffffffffffffffffffffffffffffff1673ffffffffffffffffffffffffffffffffffffffff16815260200190815260200160002060009054906101000a900460ff16611996576040517f08c379a000000000000000000000000000000000000000000000000000000000815260040161198d9061459b565b60405180910390fd5b6119a1600c83612dd6565b6000600f60008473ffffffffffffffffffffffffffffffffffffffff1673ffffffffffffffffffffffffffffffffffffffff16815260200190815260200160002060006101000a81548160ff021916908315150217905550611a237f9c1ca198f61ac1647c38f20b6678649f8e87b7e06309094d812edd1e9119d30983612f5d565b508173ffffffffffffffffffffffffffffffffffffffff167f40d1b8c90a526c4d4a3ac32bafe9c3ba00cbdae856c2075efca8b98cadf20fe0604051611a6890614607565b60405180910390a25050565b60116020528060005260406000206000915090508060000154908060010154905082565b60008060008373ffffffffffffffffffffffffffffffffffffffff1673ffffffffffffffffffffffffffffffffffffffff168152602001908152602001600020549050919050565b7fc10c77be35aff266144ed64c26a1fa104bae2f284ae99ac4a34203454704a185611b0a81612dc2565b600860008373ffffffffffffffffffffffffffffffffffffffff1673ffffffffffffffffffffffffffffffffffffffff16815260200190815260200160002060009054906101000a900460ff1615611b97576040517f08c379a0000000000000000000000000000000000000000000000000000000008152600401611b8e90614673565b60405180910390fd5b611bc17fc10c77be35aff266144ed64c26a1fa104bae2f284ae99ac4a34203454704a185836131f3565b506006829080600181540180825580915050600190039060005260206000200160009091909190916101000a81548173ffffffffffffffffffffffffffffffffffffffff021916908373ffffffffffffffffffffffffffffffffffffffff1602179055506001600860008473ffffffffffffffffffffffffffffffffffffffff1673ffffffffffffffffffffffffffffffffffffffff16815260200190815260200160002060006101000a81548160ff0219169083151502179055508173ffffffffffffffffffffffffffffffffffffffff167fe1cb5e1230cc02e62c60b81c1aa5ade512f3eac296edb28628b4cf344f47f93160405160405180910390a25050565b7fb165298935924f540e4181c03493a5d686c54a0aaeb3f6216de85b7ffbba773881565b6000806000806000806000601060008973ffffffffffffffffffffffffffffffffffffffff1673ffffffffffffffffffffffffffffffffffffffff1681526020019081526020016000206040518060800160405290816000820160009054906101000a900467ffffffffffffffff1667ffffffffffffffff1667ffffffffffffffff1681526020016000820160089054906101000a900467ffffffffffffffff1667ffffffffffffffff1667ffffffffffffffff1681526020016000820160109054906101000a900467ffffffffffffffff1667ffffffffffffffff1667ffffffffffffffff1681526020016000820160189054906101000a900467ffffffffffffffff1667ffffffffffffffff1667ffffffffffffffff168152505090506000601160008a73ffffffffffffffffffffffffffffffffffffffff1673ffffffffffffffffffffffffffffffffffffffff168152602001908152602001600020604051806040016040529081600082015481526020016001820154815250509050600082604001518360000151611e7f9190614693565b67ffffffffffffffff16421015611eff5782606001518360400151611ea491906143d7565b67ffffffffffffffff16836060015167ffffffffffffffff16846000015167ffffffffffffffff1642611ed7919061447b565b611ee1919061444a565b8360000151611ef09190614408565b611efa919061444a565b611f05565b81600001515b90506000826020015182611f19919061447b565b905082600001518360200151828660200151876040015188606001519950995099509950995099505050505091939550919395565b60006005600084815260200190815260200160002060000160008373ffffffffffffffffffffffffffffffffffffffff1673ffffffffffffffffffffffffffffffffffffffff16815260200190815260200160002060009054906101000a900460ff16905092915050565b606060048054611fc890613f1a565b80601f0160208091040260200160405190810160405280929190818152602001828054611ff490613f1a565b80156120415780601f1061201657610100808354040283529160200191612041565b820191906000526020600020905b81548152906001019060200180831161202457829003601f168201915b5050505050905090565b6000801b81565b60008061205d613050565b905061206a8185856130ff565b600191505092915050565b7fdf1425bae297c2f52b4f15d18a50b1fc8cb5b981a981b1d213ed3ff92681b64d61209f81612dc2565b60006009600084815260200190815260200160002090508060050160009054906101000a900460ff1615612108576040517f08c379a00000000000000000000000000000000000000000000000000000000081526004016120ff9061471b565b60405180910390fd5b8060060160003373ffffffffffffffffffffffffffffffffffffffff1673ffffffffffffffffffffffffffffffffffffffff16815260200190815260200160002060009054906101000a900460ff1615612197576040517f08c379a000000000000000000000000000000000000000000000000000000000815260040161218e90614787565b60405180910390fd5b60018160060160003373ffffffffffffffffffffffffffffffffffffffff1673ffffffffffffffffffffffffffffffffffffffff16815260200190815260200160002060006101000a81548160ff021916908315150217905550806004016000815480929190612206906147a7565b9190505550827f5d4ccf5f92566d140246f4ae3b9cb35dc06fff109a7748602ad77f6260fd9a613360405161223b9190613a3f565b60405180910390a2600381600401541061236f5760008160020160009054906101000a900473ffffffffffffffffffffffffffffffffffffffff1673ffffffffffffffffffffffffffffffffffffffff168260030160405161229d9190614892565b6000604051808303816000865af19150503d80600081146122da576040519150601f19603f3d011682016040523d82523d6000602084013e6122df565b606091505b5050905080612323576040517f08c379a000000000000000000000000000000000000000000000000000000000815260040161231a906148f5565b60405180910390fd5b60018260050160006101000a81548160ff021916908315150217905550837f7770356c29230b95943aec59d47ead11eb426a728bf5b57f7fd8597f3c0e29ba60405160405180910390a2505b505050565b60086020528060005260406000206000915054906101000a900460ff1681565b6000801b6123a181612dc2565b600860008373ffffffffffffffffffffffffffffffffffffffff1673ffffffffffffffffffffffffffffffffffffffff16815260200190815260200160002060009054906101000a900460ff1661242d576040517f08c379a000000000000000000000000000000000000000000000000000000000815260040161242490614961565b60405180910390fd5b60005b6006805490508110156125b3578273ffffffffffffffffffffffffffffffffffffffff166006828154811061246857612467614981565b5b9060005260206000200160009054906101000a900473ffffffffffffffffffffffffffffffffffffffff1673ffffffffffffffffffffffffffffffffffffffff16036125a657600660016006805490506124c2919061447b565b815481106124d3576124d2614981565b5b9060005260206000200160009054906101000a900473ffffffffffffffffffffffffffffffffffffffff166006828154811061251257612511614981565b5b9060005260206000200160006101000a81548173ffffffffffffffffffffffffffffffffffffffff021916908373ffffffffffffffffffffffffffffffffffffffff160217905550600680548061256c5761256b6149b0565b5b6001900381819060005260206000200160006101000a81549073ffffffffffffffffffffffffffffffffffffffff021916905590556125b3565b8080600101915050612430565b506000600860008473ffffffffffffffffffffffffffffffffffffffff1673ffffffffffffffffffffffffffffffffffffffff16815260200190815260200160002060006101000a81548160ff0219169083151502179055506126367fc10c77be35aff266144ed64c26a1fa104bae2f284ae99ac4a34203454704a18583612f5d565b508173ffffffffffffffffffffffffffffffffffffffff167f55dba9d79522b91b615629d5f3b10c2fad2d258f1768614f4a52e937ada0d0ba60405160405180910390a25050565b6000801b61268b81612dc2565b600f60008373ffffffffffffffffffffffffffffffffffffffff1673ffffffffffffffffffffffffffffffffffffffff16815260200190815260200160002060009054906101000a900460ff1615612718576040517f08c379a000000000000000000000000000000000000000000000000000000000815260040161270f90614a2b565b60405180910390fd5b600c829080600181540180825580915050600190039060005260206000200160009091909190916101000a81548173ffffffffffffffffffffffffffffffffffffffff021916908373ffffffffffffffffffffffffffffffffffffffff1602179055506001600f60008473ffffffffffffffffffffffffffffffffffffffff1673ffffffffffffffffffffffffffffffffffffffff16815260200190815260200160002060006101000a81548160ff0219169083151502179055506127fd7f9c1ca198f61ac1647c38f20b6678649f8e87b7e06309094d812edd1e9119d309836131f3565b508173ffffffffffffffffffffffffffffffffffffffff167f71c4586d57ada124e4bd494b6c0f9cb102be2af60eabee1b5c12e930f6a5eeb660405161284290614607565b60405180910390a25050565b600c818154811061285e57600080fd5b906000526020600020016000915054906101000a900473ffffffffffffffffffffffffffffffffffffffff1681565b61289682610db1565b61289f81612dc2565b6128a98383612f5d565b50505050565b6000801b6128bc81612dc2565b600d60008373ffffffffffffffffffffffffffffffffffffffff1673ffffffffffffffffffffffffffffffffffffffff16815260200190815260200160002060009054906101000a900460ff1615612949576040517f08c379a000000000000000000000000000000000000000000000000000000000815260040161294090614a97565b60405180910390fd5b600a829080600181540180825580915050600190039060005260206000200160009091909190916101000a81548173ffffffffffffffffffffffffffffffffffffffff021916908373ffffffffffffffffffffffffffffffffffffffff1602179055506001600d60008473ffffffffffffffffffffffffffffffffffffffff1673ffffffffffffffffffffffffffffffffffffffff16815260200190815260200160002060006101000a81548160ff021916908315150217905550612a2e7fb165298935924f540e4181c03493a5d686c54a0aaeb3f6216de85b7ffbba7738836131f3565b508173ffffffffffffffffffffffffffffffffffffffff167f71c4586d57ada124e4bd494b6c0f9cb102be2af60eabee1b5c12e930f6a5eeb6604051612a7390613ecb565b60405180910390a25050565b6000600160008473ffffffffffffffffffffffffffffffffffffffff1673ffffffffffffffffffffffffffffffffffffffff16815260200190815260200160002060008373ffffffffffffffffffffffffffffffffffffffff1673ffffffffffffffffffffffffffffffffffffffff16815260200190815260200160002054905092915050565b6000801b612b1381612dc2565b600e60008373ffffffffffffffffffffffffffffffffffffffff1673ffffffffffffffffffffffffffffffffffffffff16815260200190815260200160002060009054906101000a900460ff16612b9f576040517f08c379a0000000000000000000000000000000000000000000000000000000008152600401612b9690614b03565b60405180910390fd5b612baa600b83612dd6565b6000600e60008473ffffffffffffffffffffffffffffffffffffffff1673ffffffffffffffffffffffffffffffffffffffff16815260200190815260200160002060006101000a81548160ff021916908315150217905550612c2c7f5146a08baf902532d0ee2f909971144f12ca32651cd70cbee1117cddfb3b3b3383612f5d565b508173ffffffffffffffffffffffffffffffffffffffff167f40d1b8c90a526c4d4a3ac32bafe9c3ba00cbdae856c2075efca8b98cadf20fe0604051612c7190614003565b60405180910390a25050565b6064602d6b204fce5e3e25026110000000612c989190614408565b612ca2919061444a565b81565b60106020528060005260406000206000915090508060000160009054906101000a900467ffffffffffffffff16908060000160089054906101000a900467ffffffffffffffff16908060000160109054906101000a900467ffffffffffffffff16908060000160189054906101000a900467ffffffffffffffff16905084565b6000612d517fc10c77be35aff266144ed64c26a1fa104bae2f284ae99ac4a34203454704a18583611f4e565b9050919050565b60007f01ffc9a7000000000000000000000000000000000000000000000000000000007bffffffffffffffffffffffffffffffffffffffffffffffffffffffff1916827bffffffffffffffffffffffffffffffffffffffffffffffffffffffff1916149050919050565b612dd381612dce613050565b6132e5565b50565b60008280549050905060005b81811015612f57578273ffffffffffffffffffffffffffffffffffffffff16848281548110612e1457612e13614981565b5b9060005260206000200160009054906101000a900473ffffffffffffffffffffffffffffffffffffffff1673ffffffffffffffffffffffffffffffffffffffff1603612f4a5783600183612e68919061447b565b81548110612e7957612e78614981565b5b9060005260206000200160009054906101000a900473ffffffffffffffffffffffffffffffffffffffff16848281548110612eb757612eb6614981565b5b9060005260206000200160006101000a81548173ffffffffffffffffffffffffffffffffffffffff021916908373ffffffffffffffffffffffffffffffffffffffff16021790555083805480612f1057612f0f6149b0565b5b6001900381819060005260206000200160006101000a81549073ffffffffffffffffffffffffffffffffffffffff02191690559055612f57565b8080600101915050612de2565b50505050565b6000612f698383611f4e565b156130455760006005600085815260200190815260200160002060000160008473ffffffffffffffffffffffffffffffffffffffff1673ffffffffffffffffffffffffffffffffffffffff16815260200190815260200160002060006101000a81548160ff021916908315150217905550612fe2613050565b73ffffffffffffffffffffffffffffffffffffffff168273ffffffffffffffffffffffffffffffffffffffff16847ff6391f5c32d9c69d2a47ea670b442974b53935d1edc7fd64eb21e047a839171b60405160405180910390a46001905061304a565b600090505b92915050565b600033905090565b6130658383836001613336565b505050565b60006130768484612a7f565b90507fffffffffffffffffffffffffffffffffffffffffffffffffffffffffffffffff8110156130f957818110156130e9578281836040517ffb8f41b20000000000000000000000000000000000000000000000000000000081526004016130e093929190614b23565b60405180910390fd5b6130f884848484036000613336565b5b50505050565b600073ffffffffffffffffffffffffffffffffffffffff168373ffffffffffffffffffffffffffffffffffffffff16036131715760006040517f96c6fd1e0000000000000000000000000000000000000000000000000000000081526004016131689190613a3f565b60405180910390fd5b600073ffffffffffffffffffffffffffffffffffffffff168273ffffffffffffffffffffffffffffffffffffffff16036131e35760006040517fec442f050000000000000000000000000000000000000000000000000000000081526004016131da9190613a3f565b60405180910390fd5b6131ee83838361350d565b505050565b60006131ff8383611f4e565b6132da5760016005600085815260200190815260200160002060000160008473ffffffffffffffffffffffffffffffffffffffff1673ffffffffffffffffffffffffffffffffffffffff16815260200190815260200160002060006101000a81548160ff021916908315150217905550613277613050565b73ffffffffffffffffffffffffffffffffffffffff168273ffffffffffffffffffffffffffffffffffffffff16847f2f8788117e7eff1d82e926ec794901d17c78024a50270940304540a733656f0d60405160405180910390a4600190506132df565b600090505b92915050565b6132ef8282611f4e565b6133325780826040517fe2517d3f000000000000000000000000000000000000000000000000000000008152600401613329929190614b5a565b60405180910390fd5b5050565b600073ffffffffffffffffffffffffffffffffffffffff168473ffffffffffffffffffffffffffffffffffffffff16036133a85760006040517fe602df0500000000000000000000000000000000000000000000000000000000815260040161339f9190613a3f565b60405180910390fd5b600073ffffffffffffffffffffffffffffffffffffffff168373ffffffffffffffffffffffffffffffffffffffff160361341a5760006040517f94280d620000000000000000000000000000000000000000000000000000000081526004016134119190613a3f565b60405180910390fd5b81600160008673ffffffffffffffffffffffffffffffffffffffff1673ffffffffffffffffffffffffffffffffffffffff16815260200190815260200160002060008573ffffffffffffffffffffffffffffffffffffffff1673ffffffffffffffffffffffffffffffffffffffff168152602001908152602001600020819055508015613507578273ffffffffffffffffffffffffffffffffffffffff168473ffffffffffffffffffffffffffffffffffffffff167f8c5be1e5ebec7d5bd14f71427d1e84f3dd0314c0f7b2291e5b200ac8c7c3b925846040516134fe91906139e8565b60405180910390a35b50505050565b600073ffffffffffffffffffffffffffffffffffffffff168373ffffffffffffffffffffffffffffffffffffffff160361355f578060026000828254613553919061451b565b92505081905550613632565b60008060008573ffffffffffffffffffffffffffffffffffffffff1673ffffffffffffffffffffffffffffffffffffffff168152602001908152602001600020549050818110156135eb578381836040517fe450d38c0000000000000000000000000000000000000000000000000000000081526004016135e293929190614b23565b60405180910390fd5b8181036000808673ffffffffffffffffffffffffffffffffffffffff1673ffffffffffffffffffffffffffffffffffffffff16815260200190815260200160002081905550505b600073ffffffffffffffffffffffffffffffffffffffff168273ffffffffffffffffffffffffffffffffffffffff160361367b57806002600082825403925050819055506136c8565b806000808473ffffffffffffffffffffffffffffffffffffffff1673ffffffffffffffffffffffffffffffffffffffff168152602001908152602001600020600082825401925050819055505b8173ffffffffffffffffffffffffffffffffffffffff168373ffffffffffffffffffffffffffffffffffffffff167fddf252ad1be2c89b69c2b068fc378daa952ba7f163c4a11628f55a4df523b3ef8360405161372591906139e8565b60405180910390a3505050565b600080fd5b60007fffffffff0000000000000000000000000000000000000000000000000000000082169050919050565b61376c81613737565b811461377757600080fd5b50565b60008135905061378981613763565b92915050565b6000602082840312156137a5576137a4613732565b5b60006137b38482850161377a565b91505092915050565b60008115159050919050565b6137d1816137bc565b82525050565b60006020820190506137ec60008301846137c8565b92915050565b600073ffffffffffffffffffffffffffffffffffffffff82169050919050565b600061381d826137f2565b9050919050565b61382d81613812565b811461383857600080fd5b50565b60008135905061384a81613824565b92915050565b60006020828403121561386657613865613732565b5b60006138748482850161383b565b91505092915050565b6000819050919050565b6138908161387d565b82525050565b60006020820190506138ab6000830184613887565b92915050565b600081519050919050565b600082825260208201905092915050565b60005b838110156138eb5780820151818401526020810190506138d0565b60008484015250505050565b6000601f19601f8301169050919050565b6000613913826138b1565b61391d81856138bc565b935061392d8185602086016138cd565b613936816138f7565b840191505092915050565b6000602082019050818103600083015261395b8184613908565b905092915050565b6000819050919050565b61397681613963565b811461398157600080fd5b50565b6000813590506139938161396d565b92915050565b600080604083850312156139b0576139af613732565b5b60006139be8582860161383b565b92505060206139cf85828601613984565b9150509250929050565b6139e281613963565b82525050565b60006020820190506139fd60008301846139d9565b92915050565b600060208284031215613a1957613a18613732565b5b6000613a2784828501613984565b91505092915050565b613a3981613812565b82525050565b6000602082019050613a546000830184613a30565b92915050565b600080600060608486031215613a7357613a72613732565b5b6000613a818682870161383b565b9350506020613a928682870161383b565b9250506040613aa386828701613984565b9150509250925092565b613ab68161387d565b8114613ac157600080fd5b50565b600081359050613ad381613aad565b92915050565b600060208284031215613aef57613aee613732565b5b6000613afd84828501613ac4565b91505092915050565b60008060408385031215613b1d57613b1c613732565b5b6000613b2b85828601613ac4565b9250506020613b3c8582860161383b565b9150509250929050565b600060ff82169050919050565b613b5c81613b46565b82525050565b6000602082019050613b776000830184613b53565b92915050565b600081519050919050565b600082825260208201905092915050565b6000613ba482613b7d565b613bae8185613b88565b9350613bbe8185602086016138cd565b613bc7816138f7565b840191505092915050565b600060c082019050613be760008301896139d9565b613bf46020830188613a30565b613c016040830187613a30565b8181036060830152613c138186613b99565b9050613c2260808301856139d9565b613c2f60a08301846137c8565b979650505050505050565b600067ffffffffffffffff82169050919050565b613c5781613c3a565b8114613c6257600080fd5b50565b600081359050613c7481613c4e565b92915050565b600080600080600060a08688031215613c9657613c95613732565b5b6000613ca48882890161383b565b9550506020613cb588828901613c65565b9450506040613cc688828901613c65565b9350506060613cd788828901613c65565b9250506080613ce888828901613c65565b9150509295509295909350565b6000604082019050613d0a60008301856139d9565b613d1760208301846139d9565b9392505050565b613d2781613c3a565b82525050565b600060c082019050613d4260008301896139d9565b613d4f60208301886139d9565b613d5c60408301876139d9565b613d696060830186613d1e565b613d766080830185613d1e565b613d8360a0830184613d1e565b979650505050505050565b60008060408385031215613da557613da4613732565b5b6000613db38582860161383b565b9250506020613dc48582860161383b565b9150509250929050565b6000608082019050613de36000830187613d1e565b613df06020830186613d1e565b613dfd6040830185613d1e565b613e0a6060830184613d1e565b95945050505050565b7f41646472657373206e6f7420696e20496e766573746f72730000000000000000600082015250565b6000613e496018836138bc565b9150613e5482613e13565b602082019050919050565b60006020820190508181036000830152613e7881613e3c565b9050919050565b7f496e766573746f72000000000000000000000000000000000000000000000000600082015250565b6000613eb56008836138bc565b9150613ec082613e7f565b602082019050919050565b60006020820190508181036000830152613ee481613ea8565b9050919050565b7f4e487b7100000000000000000000000000000000000000000000000000000000600052602260045260246000fd5b60006002820490506001821680613f3257607f821691505b602082108103613f4557613f44613eeb565b5b50919050565b7f416c726561647920616464656420746f205465616d0000000000000000000000600082015250565b6000613f816015836138bc565b9150613f8c82613f4b565b602082019050919050565b60006020820190508181036000830152613fb081613f74565b9050919050565b7f5465616d00000000000000000000000000000000000000000000000000000000600082015250565b6000613fed6004836138bc565b9150613ff882613fb7565b602082019050919050565b6000602082019050818103600083015261401c81613fe0565b9050919050565b7f56657374696e67207363686564756c6520616c72656164792073657400000000600082015250565b6000614059601c836138bc565b915061406482614023565b602082019050919050565b600060208201905081810360008301526140888161404c565b9050919050565b7f4475726174696f6e206d7573742062652067726561746572207468616e20636c60008201527f6966662074696d652e0000000000000000000000000000000000000000000000602082015250565b60006140eb6029836138bc565b91506140f68261408f565b604082019050919050565b6000602082019050818103600083015261411a816140de565b9050919050565b7f496e74657276616c206d7573742062652067726561746572207468616e203000600082015250565b6000614157601f836138bc565b915061416282614121565b602082019050919050565b600060208201905081810360008301526141868161414a565b9050919050565b7f4e6f2076657374696e67207363686564756c6500000000000000000000000000600082015250565b60006141c36013836138bc565b91506141ce8261418d565b602082019050919050565b600060208201905081810360008301526141f2816141b6565b9050919050565b7f56657374696e67206e6f74207374617274656400000000000000000000000000600082015250565b600061422f6013836138bc565b915061423a826141f9565b602082019050919050565b6000602082019050818103600083015261425e81614222565b9050919050565b7f4e6f20746f6b656e7320746f2072656c65617365000000000000000000000000600082015250565b600061429b6014836138bc565b91506142a682614265565b602082019050919050565b600060208201905081810360008301526142ca8161428e565b9050919050565b7f4e487b7100000000000000000000000000000000000000000000000000000000600052601160045260246000fd5b600061430b82613c3a565b915061431683613c3a565b9250828203905067ffffffffffffffff811115614336576143356142d1565b5b92915050565b7f436c69666620706572696f64206e6f7420726561636865640000000000000000600082015250565b60006143726018836138bc565b915061437d8261433c565b602082019050919050565b600060208201905081810360008301526143a181614365565b9050919050565b7f4e487b7100000000000000000000000000000000000000000000000000000000600052601260045260246000fd5b60006143e282613c3a565b91506143ed83613c3a565b9250826143fd576143fc6143a8565b5b828204905092915050565b600061441382613963565b915061441e83613963565b925082820261442c81613963565b91508282048414831517614443576144426142d1565b5b5092915050565b600061445582613963565b915061446083613963565b9250826144705761446f6143a8565b5b828204905092915050565b600061448682613963565b915061449183613963565b92508282039050818111156144a9576144a86142d1565b5b92915050565b7f4e6f20746f6b656e7320617661696c61626c6520746f20636c61696d00000000600082015250565b60006144e5601c836138bc565b91506144f0826144af565b602082019050919050565b60006020820190508181036000830152614514816144d8565b9050919050565b600061452682613963565b915061453183613963565b9250828201905080821115614549576145486142d1565b5b92915050565b7f41646472657373206e6f7420696e2041647669736f7273000000000000000000600082015250565b60006145856017836138bc565b91506145908261454f565b602082019050919050565b600060208201905081810360008301526145b481614578565b9050919050565b7f41647669736f7273000000000000000000000000000000000000000000000000600082015250565b60006145f16008836138bc565b91506145fc826145bb565b602082019050919050565b60006020820190508181036000830152614620816145e4565b9050919050565b7f416c726561647920696e20726576696577657220706f6f6c0000000000000000600082015250565b600061465d6018836138bc565b915061466882614627565b602082019050919050565b6000602082019050818103600083015261468c81614650565b9050919050565b600061469e82613c3a565b91506146a983613c3a565b9250828201905067ffffffffffffffff8111156146c9576146c86142d1565b5b92915050565b7f50726f706f73616c20616c726561647920657865637574656400000000000000600082015250565b60006147056019836138bc565b9150614710826146cf565b602082019050919050565b60006020820190508181036000830152614734816146f8565b9050919050565b7f416c726561647920617070726f76656400000000000000000000000000000000600082015250565b60006147716010836138bc565b915061477c8261473b565b602082019050919050565b600060208201905081810360008301526147a081614764565b9050919050565b60006147b282613963565b91507fffffffffffffffffffffffffffffffffffffffffffffffffffffffffffffffff82036147e4576147e36142d1565b5b600182019050919050565b600081905092915050565b60008190508160005260206000209050919050565b6000815461481c81613f1a565b61482681866147ef565b94506001821660008114614841576001811461485657614889565b60ff1983168652811515820286019350614889565b61485f856147fa565b60005b8381101561488157815481890152600182019150602081019050614862565b838801955050505b50505092915050565b600061489e828461480f565b915081905092915050565b7f50726f706f73616c20657865637574696f6e206661696c656400000000000000600082015250565b60006148df6019836138bc565b91506148ea826148a9565b602082019050919050565b6000602082019050818103600083015261490e816148d2565b9050919050565b7f4e6f7420696e20726576696577657220706f6f6c000000000000000000000000600082015250565b600061494b6014836138bc565b915061495682614915565b602082019050919050565b6000602082019050818103600083015261497a8161493e565b9050919050565b7f4e487b7100000000000000000000000000000000000000000000000000000000600052603260045260246000fd5b7f4e487b7100000000000000000000000000000000000000000000000000000000600052603160045260246000fd5b7f416c726561647920616464656420746f2041647669736f727300000000000000600082015250565b6000614a156019836138bc565b9150614a20826149df565b602082019050919050565b60006020820190508181036000830152614a4481614a08565b9050919050565b7f416c726561647920616464656420746f20496e766573746f7273000000000000600082015250565b6000614a81601a836138bc565b9150614a8c82614a4b565b602082019050919050565b60006020820190508181036000830152614ab081614a74565b9050919050565b7f41646472657373206e6f7420696e205465616d00000000000000000000000000600082015250565b6000614aed6013836138bc565b9150614af882614ab7565b602082019050919050565b60006020820190508181036000830152614b1c81614ae0565b9050919050565b6000606082019050614b386000830186613a30565b614b4560208301856139d9565b614b5260408301846139d9565b949350505050565b6000604082019050614b6f6000830185613a30565b614b7c6020830184613887565b939250505056fea26469706673582212202de738a99dd4fd7e5cfd6d8db38f3ac6b47f5fe8c5cb1b9c3e5f1e7383f5bbbf64736f6c634300081b0033",
  "linkReferences": {},
  "deployedLinkReferences": {}
}