{
  "_format": "hh-sol-artifact-1",
  "contractName": "CommunityGovernanceFacet",
  "sourceName": "contracts/CommunityGovernanceFacet.sol",
  "abi": [
    {
      "inputs": [],
      "name": "ReentrancyGuardReentrantCall",
      "type": "error"
    },
    {
      "anonymous": false,
      "inputs": [
        {
          "indexed": true,
          "internalType": "uint256",
          "name": "airdropId",
          "type": "uint256"
        },
        {
          "indexed": false,
          "internalType": "uint256",
          "name": "amount",
          "type": "uint256"
        },
        {
          "indexed": false,
          "internalType": "uint256",
          "name": "startTime",
          "type": "uint256"
        },
        {
          "indexed": false,
          "internalType": "uint256",
          "name": "endTime",
          "type": "uint256"
        }
      ],
      "name": "AirdropActivated",
      "type": "event"
    },
    {
      "anonymous": false,
      "inputs": [
        {
          "indexed": true,
          "internalType": "uint256",
          "name": "airdropId",
          "type": "uint256"
        },
        {
          "indexed": true,
          "internalType": "address",
          "name": "claimer",
          "type": "address"
        },
        {
          "indexed": false,
          "internalType": "uint256",
          "name": "amount",
          "type": "uint256"
        }
      ],
      "name": "AirdropClaimed",
      "type": "event"
    },
    {
      "anonymous": false,
      "inputs": [
        {
          "indexed": true,
          "internalType": "uint256",
          "name": "airdropId",
          "type": "uint256"
        }
      ],
      "name": "AirdropDeactivated",
      "type": "event"
    },
    {
      "anonymous": false,
      "inputs": [
        {
          "indexed": true,
          "internalType": "uint256",
          "name": "airdropId",
          "type": "uint256"
        },
        {
          "indexed": true,
          "internalType": "address",
          "name": "approver",
          "type": "address"
        }
      ],
      "name": "AirdropProposalApproved",
      "type": "event"
    },
    {
      "anonymous": false,
      "inputs": [
        {
          "indexed": true,
          "internalType": "uint256",
          "name": "airdropId",
          "type": "uint256"
        },
        {
          "indexed": false,
          "internalType": "uint256",
          "name": "amount",
          "type": "uint256"
        },
        {
          "indexed": false,
          "internalType": "uint256",
          "name": "startTime",
          "type": "uint256"
        },
        {
          "indexed": false,
          "internalType": "uint256",
          "name": "endTime",
          "type": "uint256"
        }
      ],
      "name": "AirdropProposalCreated",
      "type": "event"
    },
    {
      "anonymous": false,
      "inputs": [
        {
          "indexed": true,
          "internalType": "uint256",
          "name": "proposalId",
          "type": "uint256"
        },
        {
          "indexed": true,
          "internalType": "address",
          "name": "creator",
          "type": "address"
        },
        {
          "indexed": false,
          "internalType": "uint256",
          "name": "amount",
          "type": "uint256"
        }
      ],
      "name": "ProjectFundingReleased",
      "type": "event"
    },
    {
      "anonymous": false,
      "inputs": [
        {
          "indexed": true,
          "internalType": "uint256",
          "name": "proposalId",
          "type": "uint256"
        }
      ],
      "name": "ProjectProposalApproved",
      "type": "event"
    },
    {
      "anonymous": false,
      "inputs": [
        {
          "indexed": true,
          "internalType": "uint256",
          "name": "proposalId",
          "type": "uint256"
        },
        {
          "indexed": true,
          "internalType": "address",
          "name": "creator",
          "type": "address"
        },
        {
          "indexed": false,
          "internalType": "string",
          "name": "name",
          "type": "string"
        },
        {
          "indexed": false,
          "internalType": "uint256",
          "name": "requestedAmount",
          "type": "uint256"
        }
      ],
      "name": "ProjectProposalCreated",
      "type": "event"
    },
    {
      "anonymous": false,
      "inputs": [
        {
          "indexed": true,
          "internalType": "uint256",
          "name": "proposalId",
          "type": "uint256"
        },
        {
          "indexed": false,
          "internalType": "string",
          "name": "reason",
          "type": "string"
        }
      ],
      "name": "ProjectProposalRejected",
      "type": "event"
    },
    {
      "inputs": [],
      "name": "MAX_COMMUNITY_PROJECT_FUNDING",
      "outputs": [
        {
          "internalType": "uint256",
          "name": "",
          "type": "uint256"
        }
      ],
      "stateMutability": "view",
      "type": "function"
    },
    {
      "inputs": [],
      "name": "REQUIRED_MULTISIG_APPROVALS",
      "outputs": [
        {
          "internalType": "uint256",
          "name": "",
          "type": "uint256"
        }
      ],
      "stateMutability": "view",
      "type": "function"
    },
    {
      "inputs": [
        {
          "internalType": "uint256",
          "name": "airdropId",
          "type": "uint256"
        }
      ],
      "name": "approveAirdropProposal",
      "outputs": [],
      "stateMutability": "nonpayable",
      "type": "function"
    },
    {
      "inputs": [
        {
          "internalType": "uint256",
          "name": "proposalId",
          "type": "uint256"
        }
      ],
      "name": "approveProjectProposal",
      "outputs": [],
      "stateMutability": "nonpayable",
      "type": "function"
    },
    {
      "inputs": [
        {
          "internalType": "uint256",
          "name": "airdropId",
          "type": "uint256"
        }
      ],
      "name": "claimAirdrop",
      "outputs": [],
      "stateMutability": "nonpayable",
      "type": "function"
    },
    {
      "inputs": [
        {
          "internalType": "uint256",
          "name": "amount",
          "type": "uint256"
        },
        {
          "internalType": "uint256",
          "name": "startTime",
          "type": "uint256"
        },
        {
          "internalType": "uint256",
          "name": "endTime",
          "type": "uint256"
        }
      ],
      "name": "createAirdropProposal",
      "outputs": [
        {
          "internalType": "uint256",
          "name": "",
          "type": "uint256"
        }
      ],
      "stateMutability": "nonpayable",
      "type": "function"
    },
    {
      "inputs": [
        {
          "internalType": "string",
          "name": "name",
          "type": "string"
        },
        {
          "internalType": "string",
          "name": "description",
          "type": "string"
        },
        {
          "internalType": "string[]",
          "name": "techStack",
          "type": "string[]"
        },
        {
          "internalType": "string",
          "name": "blockchain",
          "type": "string"
        },
        {
          "internalType": "uint256",
          "name": "requestedAmount",
          "type": "uint256"
        },
        {
          "internalType": "uint256",
          "name": "timeline",
          "type": "uint256"
        },
        {
          "internalType": "enum LibDiamond.ProjectStage",
          "name": "stage",
          "type": "uint8"
        }
      ],
      "name": "createProjectFundingProposal",
      "outputs": [
        {
          "internalType": "uint256",
          "name": "",
          "type": "uint256"
        }
      ],
      "stateMutability": "nonpayable",
      "type": "function"
    },
    {
      "inputs": [
        {
          "internalType": "uint256",
          "name": "airdropId",
          "type": "uint256"
        }
      ],
      "name": "deactivateAirdrop",
      "outputs": [],
      "stateMutability": "nonpayable",
      "type": "function"
    },
    {
      "inputs": [],
      "name": "getActiveAirdropId",
      "outputs": [
        {
          "internalType": "uint256",
          "name": "",
          "type": "uint256"
        }
      ],
      "stateMutability": "view",
      "type": "function"
    },
    {
      "inputs": [
        {
          "internalType": "uint256",
          "name": "airdropId",
          "type": "uint256"
        }
      ],
      "name": "getAirdropProposal",
      "outputs": [
        {
          "components": [
            {
              "internalType": "uint256",
              "name": "airdropId",
              "type": "uint256"
            },
            {
              "internalType": "uint256",
              "name": "amount",
              "type": "uint256"
            },
            {
              "internalType": "uint256",
              "name": "startTime",
              "type": "uint256"
            },
            {
              "internalType": "uint256",
              "name": "endTime",
              "type": "uint256"
            },
            {
              "internalType": "bool",
              "name": "isActive",
              "type": "bool"
            },
            {
              "internalType": "uint256",
              "name": "approvalCount",
              "type": "uint256"
            }
          ],
          "internalType": "struct LibDiamond.AirdropProposal",
          "name": "",
          "type": "tuple"
        }
      ],
      "stateMutability": "view",
      "type": "function"
    },
    {
      "inputs": [],
      "name": "getAllAirdropProposals",
      "outputs": [
        {
          "components": [
            {
              "internalType": "uint256",
              "name": "airdropId",
              "type": "uint256"
            },
            {
              "internalType": "uint256",
              "name": "amount",
              "type": "uint256"
            },
            {
              "internalType": "uint256",
              "name": "startTime",
              "type": "uint256"
            },
            {
              "internalType": "uint256",
              "name": "endTime",
              "type": "uint256"
            },
            {
              "internalType": "bool",
              "name": "isActive",
              "type": "bool"
            },
            {
              "internalType": "uint256",
              "name": "approvalCount",
              "type": "uint256"
            }
          ],
          "internalType": "struct LibDiamond.AirdropProposal[]",
          "name": "",
          "type": "tuple[]"
        }
      ],
      "stateMutability": "view",
      "type": "function"
    },
    {
      "inputs": [],
      "name": "getAllProjectProposals",
      "outputs": [
        {
          "components": [
            {
              "internalType": "uint256",
              "name": "id",
              "type": "uint256"
            },
            {
              "internalType": "address",
              "name": "creator",
              "type": "address"
            },
            {
              "internalType": "string",
              "name": "name",
              "type": "string"
            },
            {
              "internalType": "string",
              "name": "description",
              "type": "string"
            },
            {
              "internalType": "string[]",
              "name": "techStack",
              "type": "string[]"
            },
            {
              "internalType": "string",
              "name": "blockchain",
              "type": "string"
            },
            {
              "internalType": "uint256",
              "name": "requestedAmount",
              "type": "uint256"
            },
            {
              "internalType": "uint256",
              "name": "timeline",
              "type": "uint256"
            },
            {
              "internalType": "enum LibDiamond.ProjectStage",
              "name": "stage",
              "type": "uint8"
            },
            {
              "internalType": "bool",
              "name": "isApproved",
              "type": "bool"
            },
            {
              "internalType": "bool",
              "name": "isRejected",
              "type": "bool"
            },
            {
              "internalType": "string",
              "name": "rejectionReason",
              "type": "string"
            },
            {
              "internalType": "uint256",
              "name": "approvalCount",
              "type": "uint256"
            }
          ],
          "internalType": "struct LibDiamond.ProjectFundingProposal[]",
          "name": "",
          "type": "tuple[]"
        }
      ],
      "stateMutability": "view",
      "type": "function"
    },
    {
      "inputs": [],
      "name": "getCommunityProjectFunds",
      "outputs": [
        {
          "internalType": "uint256",
          "name": "",
          "type": "uint256"
        }
      ],
      "stateMutability": "view",
      "type": "function"
    },
    {
      "inputs": [
        {
          "internalType": "uint256",
          "name": "proposalId",
          "type": "uint256"
        }
      ],
      "name": "getProjectProposal",
      "outputs": [
        {
          "components": [
            {
              "internalType": "uint256",
              "name": "id",
              "type": "uint256"
            },
            {
              "internalType": "address",
              "name": "creator",
              "type": "address"
            },
            {
              "internalType": "string",
              "name": "name",
              "type": "string"
            },
            {
              "internalType": "string",
              "name": "description",
              "type": "string"
            },
            {
              "internalType": "string[]",
              "name": "techStack",
              "type": "string[]"
            },
            {
              "internalType": "string",
              "name": "blockchain",
              "type": "string"
            },
            {
              "internalType": "uint256",
              "name": "requestedAmount",
              "type": "uint256"
            },
            {
              "internalType": "uint256",
              "name": "timeline",
              "type": "uint256"
            },
            {
              "internalType": "enum LibDiamond.ProjectStage",
              "name": "stage",
              "type": "uint8"
            },
            {
              "internalType": "bool",
              "name": "isApproved",
              "type": "bool"
            },
            {
              "internalType": "bool",
              "name": "isRejected",
              "type": "bool"
            },
            {
              "internalType": "string",
              "name": "rejectionReason",
              "type": "string"
            },
            {
              "internalType": "uint256",
              "name": "approvalCount",
              "type": "uint256"
            }
          ],
          "internalType": "struct LibDiamond.ProjectFundingProposal",
          "name": "",
          "type": "tuple"
        }
      ],
      "stateMutability": "view",
      "type": "function"
    },
    {
      "inputs": [
        {
          "internalType": "address",
          "name": "creator",
          "type": "address"
        }
      ],
      "name": "getProjectProposalsByCreator",
      "outputs": [
        {
          "components": [
            {
              "internalType": "uint256",
              "name": "id",
              "type": "uint256"
            },
            {
              "internalType": "address",
              "name": "creator",
              "type": "address"
            },
            {
              "internalType": "string",
              "name": "name",
              "type": "string"
            },
            {
              "internalType": "string",
              "name": "description",
              "type": "string"
            },
            {
              "internalType": "string[]",
              "name": "techStack",
              "type": "string[]"
            },
            {
              "internalType": "string",
              "name": "blockchain",
              "type": "string"
            },
            {
              "internalType": "uint256",
              "name": "requestedAmount",
              "type": "uint256"
            },
            {
              "internalType": "uint256",
              "name": "timeline",
              "type": "uint256"
            },
            {
              "internalType": "enum LibDiamond.ProjectStage",
              "name": "stage",
              "type": "uint8"
            },
            {
              "internalType": "bool",
              "name": "isApproved",
              "type": "bool"
            },
            {
              "internalType": "bool",
              "name": "isRejected",
              "type": "bool"
            },
            {
              "internalType": "string",
              "name": "rejectionReason",
              "type": "string"
            },
            {
              "internalType": "uint256",
              "name": "approvalCount",
              "type": "uint256"
            }
          ],
          "internalType": "struct LibDiamond.ProjectFundingProposal[]",
          "name": "",
          "type": "tuple[]"
        }
      ],
      "stateMutability": "view",
      "type": "function"
    },
    {
      "inputs": [],
      "name": "getRemainingProjectFundingCapacity",
      "outputs": [
        {
          "internalType": "uint256",
          "name": "",
          "type": "uint256"
        }
      ],
      "stateMutability": "view",
      "type": "function"
    },
    {
      "inputs": [
        {
          "internalType": "uint256",
          "name": "airdropId",
          "type": "uint256"
        },
        {
          "internalType": "address",
          "name": "user",
          "type": "address"
        }
      ],
      "name": "hasClaimedAirdrop",
      "outputs": [
        {
          "internalType": "bool",
          "name": "",
          "type": "bool"
        }
      ],
      "stateMutability": "view",
      "type": "function"
    },
    {
      "inputs": [
        {
          "internalType": "uint256",
          "name": "proposalId",
          "type": "uint256"
        },
        {
          "internalType": "string",
          "name": "reason",
          "type": "string"
        }
      ],
      "name": "rejectProjectProposal",
      "outputs": [],
      "stateMutability": "nonpayable",
      "type": "function"
    }
  ],
  "bytecode": "0x6080806040523461001b576001600055612c8290816100218239f35b600080fdfe6080604052600436101561001257600080fd5b60003560e01c80631c6d5365146118c0578063343ba14f146116965780633beca66b1461166b578063446ab660146114e35780634637b64c146114a65780634be347c21461148a57806356a474e41461132b57806361ac05e2146113055780638b8641a914611157578063cd774e3714610ebe578063ce8974fc14610e54578063ced6528014610de3578063d63ab65814610a34578063de736b7f14610971578063e30d4440146106d7578063f5ac902014610440578063f7dc3d5f146101b35763fc99a33e146100e257600080fd5b346101ae5760203660031901126101ae573360009081527f78b7cbcd722cb181d0d1f97680f4c939c7def6b8504434dbd585d133378b0e276020526040902054600435906101329060ff166128f1565b80600052600080516020612c0d8339815191526020526004604060002001805461015e60ff8216612afb565b60ff19169055600080516020612c2d833981519152805482146101a4575b507f97d16d159004272f62836de3419ed93fa51cf0ea0a203aea50e59533da95164b600080a2005b600090553861017c565b600080fd5b346101ae576020806003193601126101ae57600435907f37d5a577f9c15af36de6b3fee8ce50f5d16626de962610969069941093da8edd6000527fc8fcad8db84d3cc18b4c41d551ea0ee66dd599cde068d998e57d5e09332c13288152604060002033600052815261022c60ff604060002054166128f1565b81600052600080516020612c0d83398151915281526040600020828154036103de57600481019160ff83541661038657600080516020612c2d83398151915290610277825415612b57565b846000527f94b357212bb1b57c18f7b1156d58093809abcfd450079760d86c2f42c7731b6580825260406000203360005282526102bc60ff6040600020541615612a83565b856000528152604060002090336000525260406000209260ff199360018582541617905560058301926102ef84546126d3565b80945560036040519433887fba2dc1cf0b7a4cba80d6f042dd7236685fe3cd10b7f13ad291c4e97956273b8e600080a3101561032757005b8584938360017ffec164d871736501db0df525034f6b7c5b8ccec979982a8ee1a898ccd4e0858298610381965416179055556001810154906003600282015491015491846040919493926060820195825260208201520152565b0390a2005b6084906040519062461bcd60e51b82526004820152602b60248201527f436f6d6d756e697479476f7665726e616e63653a2041697264726f7020616c7260448201526a656164792061637469766560a81b6064820152fd5b60405162461bcd60e51b815260048101839052603460248201527f436f6d6d756e697479476f7665726e616e63653a2041697264726f702070726f6044820152731c1bdcd85b08191bd95cc81b9bdd08195e1a5cdd60621b6064820152608490fd5b346101ae5760603660031901126101ae573360009081527f78b7cbcd722cb181d0d1f97680f4c939c7def6b8504434dbd585d133378b0e27602090815260409091205460443590600435906024359061049b9060ff166128f1565b828110156106815742811115610622576104c4600080516020612c2d8339815191525415612b57565b81156105c9577fffdf155c1525421b407f3fe98206fd7f32303d907a1fb5ec68dac7ca86d65e8c907f94b357212bb1b57c18f7b1156d58093809abcfd450079760d86c2f42c7731b60926105be845495869561051f876126d3565b905560405161052d816123e1565b8681526005878a808401878152604085018981526060860191878352600080516020612c0d83398151915260808801946000865260a08901966000885260005252604060002096518755516001870155516002860155516003850155600484019051151560ff8019835416911617905551910155604051938493846040919493926060820195825260208201520152565b0390a2604051908152f35b60405162461bcd60e51b815260048101859052602b60248201527f436f6d6d756e697479476f7665726e616e63653a20496e76616c69642061697260448201526a191c9bdc08185b5bdd5b9d60aa1b6064820152608490fd5b60405162461bcd60e51b815260048101859052603160248201527f436f6d6d756e697479476f7665726e616e63653a2053746172742074696d65206044820152706d75737420626520696e2066757475726560781b6064820152608490fd5b60405162461bcd60e51b815260048101859052602860248201527f436f6d6d756e697479476f7665726e616e63653a20496e76616c69642074696d60448201526719481c195c9a5bd960c21b6064820152608490fd5b346101ae576020806003193601126101ae576004356106f4612bc9565b604051632f676b6560e01b81523360048201528281602481305afa80156108815761072791600091610954575b5061266f565b80600052600080516020612c0d8339815191528252604060002061075160ff600483015416612afb565b600281015442101580610946575b156108ec57816000527f94b357212bb1b57c18f7b1156d58093809abcfd450079760d86c2f42c7731b66808452604060002033600052845260ff6040600020541661088d5790600191836000528452604060002033600052845260406000208260ff19825416179055018054906040519163e67524a360e01b8352336004840152602483015260606044830152600d60648301526c41697264726f7020636c61696d60981b6084830152838260a4816000305af1918215610881577f752d3a5de250652e9111e24fea2886c837dadfe50c8479ad3b5511f4c36f20a292610854575b5054926040519384523393a36001600055005b61087390853d871161087a575b61086b81836123fc565b810190612657565b5084610841565b503d610861565b6040513d6000823e3d90fd5b60405162461bcd60e51b815260048101859052603160248201527f436f6d6d756e697479476f7665726e616e63653a20416c726561647920636c616044820152700696d656420746869732061697264726f7607c1b6064820152608490fd5b60405162461bcd60e51b815260048101849052602c60248201527f436f6d6d756e697479476f7665726e616e63653a2041697264726f70206e6f7460448201526b20696e2070726f677265737360a01b6064820152608490fd5b50600381015442111561075f565b61096b9150843d861161087a5761086b81836123fc565b84610721565b346101ae5760203660031901126101ae5761098a6128bf565b50600435600052600080516020612c0d83398151915260205260c060406000206005604051916109b9836123e1565b8054835260018101546020840152600281015460408401526003810154606084015260ff60048201541615156080840152015460a0820152610a32604051809260a08091805184526020810151602085015260408101516040850152606081015160608501526080810151151560808501520151910152565bf35b346101ae576020806003193601126101ae57600435907f37d5a577f9c15af36de6b3fee8ce50f5d16626de962610969069941093da8edd6000527fc8fcad8db84d3cc18b4c41d551ea0ee66dd599cde068d998e57d5e09332c132881526040600020336000528152610aad60ff604060002054166128f1565b81600052600080516020612bed8339815191528152604060002090610ad48383541461295c565b6008820191610af960ff8454610aef828260081c16156129bd565b60101c1615612a20565b836000527f94b357212bb1b57c18f7b1156d58093809abcfd450079760d86c2f42c7731b688083526040600020336000528352610b3e60ff6040600020541615612a83565b846000528252604060002033600052825260406000209160019360ff19936001858254161790556003600a8401610b7581546126d3565b8091551015610b8057005b805461ff0019166101001790557f94b357212bb1b57c18f7b1156d58093809abcfd450079760d86c2f42c7731b638054600684018054909692916a295be96e64066972000000610bd08383612aee565b11610d785790610bdf91612aee565b905581600184019360018060a01b03928386541690600289549301604051988992700283937b532b1ba10333ab73234b7339d1607d1b878501526031906000938054610c2a816126ee565b9460018216918215610d52575050600114610d0e575b5050505090610c579103601f1981018952886123fc565b610c87604051978893849363e67524a360e01b85526004850152602484015260606044840152606483019061248a565b03816000305af19283156108815786947fb6f8562765b5da161636b79e56625b1a7d0d9726ee1065cee4bf966980894c7094610cf1575b5054169354604051908152a37f1c2a00e8a0b086d9b7e7a79c9440ab052641329e55c4bf8eec7ee9dfb658b7ed600080a2005b610d0790843d861161087a5761086b81836123fc565b5087610cbe565b9091929350600052866000206000905b848210610d3957505050508101603101610c578c8080610c40565b805495820184019590955289978c959101908201610d1e565b9250925050610c57959450603193925016828401528015150282010190918c8080610c40565b60405162461bcd60e51b815260048101869052603960248201527f436f6d6d756e697479476f7665726e616e63653a20496e73756666696369656e60448201527f7420636f6d6d756e6974792070726f6a6563742066756e6473000000000000006064820152608490fd5b346101ae5760403660031901126101ae576024356001600160a01b038116908190036101ae576004356000527f94b357212bb1b57c18f7b1156d58093809abcfd450079760d86c2f42c7731b66602052604060002090600052602052602060ff604060002054166040519015158152f35b346101ae5760003660031901126101ae577f94b357212bb1b57c18f7b1156d58093809abcfd450079760d86c2f42c7731b63546a295be96e64066972000000908103908111610ea857602090604051908152f35b634e487b7160e01b600052601160045260246000fd5b346101ae5760403660031901126101ae576001600160401b036004356024358281116101ae57610ef290369060040161241d565b3360009081527fbf8dcd7ac2eb3b1ae29d76cf7c4b6dff9145f4c5b84c1061b96bd334eae0f0e56020908152604090912054610f309060ff166128f1565b82600052600080516020612bed83398151915281526040600020610f568482541461295c565b600881018054610f6c60ff8260081c16156129bd565b610f7c60ff8260101c1615612a20565b8451156110fb5790620100006009939262ff000019161790550182519485116110e557610fa981546126ee565b601f81116110aa575b5081601f861160011461102557857f0181021ec281a3c27d14e788229d199a2075e233c761365095368d822b2c277f95966110039260009161101a575b508160011b916000199060031b1c19161790565b90555b61038160405192828493845283019061248a565b905085015188610fef565b601f1986169082600052836000209160005b81811061109357509187917f0181021ec281a3c27d14e788229d199a2075e233c761365095368d822b2c277f97986001941061107a575b5050811b019055611006565b86015160001960f88460031b161c19169055878061106e565b91928560018192868a015181550194019201611037565b6110d5908260005283600020601f880160051c8101918589106110db575b601f0160051c0190612728565b85610fb2565b90915081906110c8565b634e487b7160e01b600052604160045260246000fd5b60405162461bcd60e51b815260048101859052602e60248201527f436f6d6d756e697479476f7665726e616e63653a2052656a656374696f6e207260448201526d19585cdbdb881c995c5d5a5c995960921b6064820152608490fd5b346101ae5760003660031901126101ae577f94b357212bb1b57c18f7b1156d58093809abcfd450079760d86c2f42c7731b6254611193816127a0565b906000905b8082106111b157604051806111ad85826125f3565b0390f35b81600052602091600080516020612bed83398151915283526040600020604051906111db826123c5565b805482526001808201546001600160a01b0316868401526111fe6002830161281a565b604084015261120f6003830161281a565b60608401526004820180549061122482612473565b97611232604051998a6123fc565b828952600091825280822091818a015b8482106112ea57505050505050600a906001949560808401526112676005820161281a565b60a0840152600681015460c0840152600781015460e0840152600880820154809160ff92839161129d8383166101008a016126e2565b1c16151561012086015260101c1615156101408401526112bf6009820161281a565b61016084015201546101808201526112d782866127f0565b526112e281856127f0565b500190611198565b858381926112f78761281a565b815201940191019092611242565b346101ae5760003660031901126101ae5760206040516a295be96e640669720000008152f35b346101ae576020806003193601126101ae5761134561273f565b50600435600052600080516020612bed833981519152815260406000209060405191611370836123c5565b805483526001808201546001600160a01b0316838501526113936002830161281a565b60408501526113a46003830161281a565b6060850152600482019081546113b981612473565b926113c760405194856123fc565b8184526000908152858120868086015b84841061146d578982600a8a8a60808501526113f56005820161281a565b60a0850152600681015460c0850152600781015460e085015260ff600882015461142582821661010088016126e2565b818160081c16151561012087015260101c16151561014085015261144b6009820161281a565b61016085015201546101808301526111ad6040519282849384528301906124ca565b8591829161147a8561281a565b81520192019201919087906113d7565b346101ae5760003660031901126101ae57602060405160038152f35b346101ae5760003660031901126101ae5760207f94b357212bb1b57c18f7b1156d58093809abcfd450079760d86c2f42c7731b6354604051908152f35b346101ae5760003660031901126101ae577f94b357212bb1b57c18f7b1156d58093809abcfd450079760d86c2f42c7731b605461151f81612473565b9061152d60405192836123fc565b80825261153981612473565b60209190601f19018260005b8281106116555750505060005b8181106115d757604080518481528551818601819052868601928201908660005b8281106115805784840385f35b9091928260c0826115c86001948a5160a08091805184526020810151602085015260408101516040850152606081015160608501526080810151151560808501520151910152565b01960191019492919094611573565b80600191600052600080516020612c0d83398151915284526040600020600560405191611603836123e1565b805483528481015487840152600281015460408401526003810154606084015260ff60048201541615156080840152015460a082015261164382876127f0565b5261164e81866127f0565b5001611552565b61165d6128bf565b828288010152018390611545565b346101ae5760003660031901126101ae576020600080516020612c2d83398151915254604051908152f35b346101ae576020806003193601126101ae576004356001600160a01b03818116918290036101ae577f94b357212bb1b57c18f7b1156d58093809abcfd450079760d86c2f42c7731b6254906000805b83811061187d57506116f6906127a0565b9260009160005b84811061171257604051806111ad88826125f3565b80600052600080516020612bed833981519152875260406000208260018201541690848214611746575b50506001016116fd565b60409592955191611756836123c5565b815483528983015261176a6002820161281a565b604083015261177b6003820161281a565b606083015260048101805461178f81612473565b9161179d60405193846123fc565b81835260009081528b8120908c8085015b84831061185f57505050505091600a600194926118579460808401526117d66005820161281a565b60a0840152600681015460c0840152600781015460e0840152600880820154809160ff92839161180c8383166101008a016126e2565b1c16151561012086015260101c16151561014084015261182e6009820161281a565b6101608401520154610180820152611846828a6127f0565b5261185181896127f0565b506126d3565b93908861173c565b600191829161186d8661281a565b8152019301910190918d906117ae565b80600052600080516020612bed8339815191528652848360016040600020015416146118ac575b6001016116e5565b906118b86001916126d3565b9190506118a4565b346101ae5760e03660031901126101ae576004356001600160401b0381116101ae576118f090369060040161241d565b6024356001600160401b0381116101ae5761190f90369060040161241d565b90604435906001600160401b0382116101ae57366023830112156101ae57816004013561193b81612473565b9261194960405194856123fc565b8184526024602085019260051b820101903682116101ae5760248101925b82841061239657505050506064356001600160401b0381116101ae5761199190369060040161241d565b600660c43510156101ae576119a4612bc9565b604051632f676b6560e01b8152336004820152602081602481305afa8015610881576119d791600091612377575061266f565b81511561231f57608435156122c4576a295be96e640669720000006084351161224d5760a435156121eb577f94b357212bb1b57c18f7b1156d58093809abcfd450079760d86c2f42c7731b6292835493611a30856126d3565b905560405194611a3f866123c5565b8486523360208701528360408701526060860152608085015260a084015260843560c084015260a43560e0840152611a7d60c43561010085016126e2565b600061012084015260006101408401526040518060208101106001600160401b036020830111176110e5576020810160405260008152610160840152600061018084015281600052600080516020612bed8339815191526020526040600020835181556001810160018060a01b036020860151166bffffffffffffffffffffffff60a01b82541617905560408401518051906001600160401b0382116110e557611b2a60028401546126ee565b601f81116121b6575b50602090601f831160011461214457611b65929160009183611e58575b50508160011b916000199060031b1c19161790565b60028201555b60608401518051906001600160401b0382116110e557611b8e60038401546126ee565b601f811161210f575b50602090601f831160011461209d57611bc8929160009183611e585750508160011b916000199060031b1c19161790565b60038201555b60808401518051906801000000000000000082116110e5576004830154826004850155808310612025575b5060200190600483016000526020600020916000905b828210611f0a575050505060a08401518051906001600160401b0382116110e557611c3d60058401546126ee565b601f8111611ed5575b50602090601f8311600114611e6357611c77929160009183611e585750508160011b916000199060031b1c19161790565b60058201555b60c0840151600682015560e08401516007820155600881016101008501516006811015611e4257815461ff00610120880151151560081b169060ff62ff00006101408a0151151560101b1693169062ffffff1916171717905560098101936101608101519485516001600160401b0381116110e557602096611cff83546126ee565b601f8111611e12575b508790601f8311600114611da55782600a95936101809593611d4093600092611d9a5750508160011b916000199060031b1c19161790565b90555b0151910155817f173a3a7373ea0492f4cb0f9ba4740561e11b1ae3864f095bee87e52d9925bb87611d7f6040519360408552604085019061248a565b92608435868201528033940390a36001600055604051908152f35b015190508b80611b50565b90601f1983169184600052896000209260005b818110611dfb5750926001928592600a9896610180989610611de2575b505050811b019055611d43565b015160001960f88460031b161c191690558a8080611dd5565b92938b600181928786015181550195019301611db8565b611e3c908460005289600020601f850160051c8101918b86106110db57601f0160051c0190612728565b88611d08565b634e487b7160e01b600052602160045260246000fd5b015190508780611b50565b9190600584016000526020600020906000935b601f1984168510611eba576001945083601f19811610611ea1575b505050811b016005820155611c7d565b015160001960f88460031b161c19169055868080611e91565b81810151835560209485019460019093019290910190611e76565b611f0490600585016000526020600020601f850160051c810191602086106110db57601f0160051c0190612728565b86611c46565b80518051906001600160401b0382116110e557611f2786546126ee565b601f8111611ff3575b50602090601f8311600114611f835792611f6983600195946020948796600092611f785750508160011b916000199060031b1c19161790565b87555b01940191019092611c0f565b015190508e80611b50565b908660005260206000209160005b601f1985168110611fdb575083602093600196938796938794601f19811610611fc2575b505050811b018755611f6c565b015160001960f88460031b161c191690558d8080611fb5565b91926020600181928685015181550194019201611f91565b61201f90876000526020600020601f850160051c810191602086106110db57601f0160051c0190612728565b8a611f30565b600484016000526020600020908382015b8183018110612046575050611bf9565b80612053600192546126ee565b80612060575b5001612036565b601f811183146120765750600081555b8a612059565b600090828252612094601f60208420920160051c8201858301612728565b81835555612070565b9190600384016000526020600020906000935b601f19841685106120f4576001945083601f198116106120db575b505050811b016003820155611bce565b015160001960f88460031b161c191690558680806120cb565b818101518355602094850194600190930192909101906120b0565b61213e90600385016000526020600020601f850160051c810191602086106110db57601f0160051c0190612728565b86611b97565b9190600284016000526020600020906000935b601f198416851061219b576001945083601f19811610612182575b505050811b016002820155611b6b565b015160001960f88460031b161c19169055868080612172565b81810151835560209485019460019093019290910190612157565b6121e590600285016000526020600020601f850160051c810191602086106110db57601f0160051c0190612728565b86611b33565b60405162461bcd60e51b815260206004820152603460248201527f436f6d6d756e697479476f7665726e616e63653a2054696d656c696e65206d75604482015273073742062652067726561746572207468616e20360641b6064820152608490fd5b60405162461bcd60e51b815260206004820152604360248201527f436f6d6d756e697479476f7665726e616e63653a20526571756573746564206160448201527f6d6f756e742065786365656473206d6178696d756d2066756e64696e67206c696064820152621b5a5d60ea1b608482015260a490fd5b60405162461bcd60e51b815260206004820152602d60248201527f436f6d6d756e697479476f7665726e616e63653a20496e76616c69642072657160448201526c1d595cdd195908185b5bdd5b9d609a1b6064820152608490fd5b60405162461bcd60e51b815260206004820152602a60248201527f436f6d6d756e697479476f7665726e616e63653a2050726f6a656374206e616d60448201526919481c995c5d5a5c995960b21b6064820152608490fd5b612390915060203d60201161087a5761086b81836123fc565b86610721565b83356001600160401b0381116101ae576020916123ba83926024369187010161241d565b815201930192611967565b6101a081019081106001600160401b038211176110e557604052565b60c081019081106001600160401b038211176110e557604052565b90601f801991011681019081106001600160401b038211176110e557604052565b81601f820112156101ae578035906001600160401b0382116110e55760405192612451601f8401601f1916602001856123fc565b828452602083830101116101ae57816000926020809301838601378301015290565b6001600160401b0381116110e55760051b60200190565b919082519283825260005b8481106124b6575050826000602080949584010152601f8019910116010190565b602081830181015184830182015201612495565b906101a0825182526125116124ff60209260018060a01b0384870151168486015260408601519080604087015285019061248a565b6060850151848203606086015261248a565b9060808401519083830360808501528151908184528084019381808460051b8301019401946000915b8483106125c557505050505061255d915060a084015183820360a085015261248a565b60c083015160c083015260e083015160e083015261010090818401516006811015611e42576125b792840152610120808501511515908401526101408085015115159084015261016080850151908483039085015261248a565b916101808091015191015290565b909192939484806125e2600193601f198682030187528a5161248a565b98019301930191959493929061253a565b6020808201906020835283518092526040830192602060408460051b8301019501936000915b8483106126295750505050505090565b9091929394958480612647600193603f198682030187528a516124ca565b9801930193019194939290612619565b908160209103126101ae575180151581036101ae5790565b1561267657565b60405162461bcd60e51b815260206004820152602f60248201527f436f6d6d756e697479476f7665726e616e63653a204d7573742062652061206360448201526e37b6b6bab734ba3c9036b2b6b132b960891b6064820152608490fd5b6000198114610ea85760010190565b6006821015611e425752565b90600182811c9216801561271e575b602083101461270857565b634e487b7160e01b600052602260045260246000fd5b91607f16916126fd565b818110612733575050565b60008155600101612728565b6040519061274c826123c5565b81610180600091828152826020820152606080604083015280808301528060808301528060a08301528360c08301528360e08301528361010083015283610120830152836101408301526101608201520152565b906127aa82612473565b6127b760405191826123fc565b82815280926127c8601f1991612473565b019060005b8281106127d957505050565b6020906127e461273f565b828285010152016127cd565b80518210156128045760209160051b010190565b634e487b7160e01b600052603260045260246000fd5b9060405191826000825461282d816126ee565b9081845260209460019160018116908160001461289d575060011461285e575b50505061285c925003836123fc565b565b600090815285812095935091905b81831061288557505061285c935082010138808061284d565b8554888401850152948501948794509183019161286c565b9250505061285c94925060ff191682840152151560051b82010138808061284d565b604051906128cc826123e1565b8160a06000918281528260208201528260408201528260608201528260808201520152565b156128f857565b60405162461bcd60e51b815260206004820152603660248201527f436f6d6d756e697479476f7665726e616e63653a2043616c6c657220646f65736044820152756e2774206861766520726571756972656420726f6c6560501b6064820152608490fd5b1561296357565b60405162461bcd60e51b815260206004820152602c60248201527f436f6d6d756e697479476f7665726e616e63653a2050726f706f73616c20646f60448201526b195cc81b9bdd08195e1a5cdd60a21b6064820152608490fd5b156129c457565b60405162461bcd60e51b815260206004820152602e60248201527f436f6d6d756e697479476f7665726e616e63653a2050726f706f73616c20616c60448201526d1c9958591e48185c1c1c9bdd995960921b6064820152608490fd5b15612a2757565b60405162461bcd60e51b815260206004820152602e60248201527f436f6d6d756e697479476f7665726e616e63653a2050726f706f73616c20616c60448201526d1c9958591e481c995a9958dd195960921b6064820152608490fd5b15612a8a57565b60405162461bcd60e51b815260206004820152603660248201527f436f6d6d756e697479476f7665726e616e63653a20416c7265616479206170706044820152753937bb32b210313c903a3434b99030b8383937bb32b960511b6064820152608490fd5b91908201809211610ea857565b15612b0257565b60405162461bcd60e51b815260206004820152602760248201527f436f6d6d756e697479476f7665726e616e63653a2041697264726f70206e6f746044820152662061637469766560c81b6064820152608490fd5b15612b5e57565b60405162461bcd60e51b815260206004820152603860248201527f436f6d6d756e697479476f7665726e616e63653a20416e6f746865722061697260448201527f64726f702069732063757272656e746c792061637469766500000000000000006064820152608490fd5b600260005414612bda576002600055565b604051633ee5aeb560e01b8152600490fdfe94b357212bb1b57c18f7b1156d58093809abcfd450079760d86c2f42c7731b6794b357212bb1b57c18f7b1156d58093809abcfd450079760d86c2f42c7731b6494b357212bb1b57c18f7b1156d58093809abcfd450079760d86c2f42c7731b61a2646970667358221220400fd1e9d73312bd896f3db87434cc390f985047aad01935dba9409573d437ab64736f6c63430008180033",
  "linkReferences": {},
  "deployedLinkReferences": {}
}