{
  "_format": "hh-sol-artifact-1",
  "contractName": "CommunityGovernanceFacet",
  "sourceName": "contracts/CommunityGovernanceFacet.sol",
  "abi": [
    {
      "inputs": [],
      "name": "ReentrancyGuardReentrantCall",
      "type": "error"
    },
    {
      "anonymous": false,
      "inputs": [
        {
          "indexed": true,
          "internalType": "uint256",
          "name": "airdropId",
          "type": "uint256"
        },
        {
          "indexed": false,
          "internalType": "uint256",
          "name": "amount",
          "type": "uint256"
        },
        {
          "indexed": false,
          "internalType": "uint256",
          "name": "startTime",
          "type": "uint256"
        },
        {
          "indexed": false,
          "internalType": "uint256",
          "name": "endTime",
          "type": "uint256"
        }
      ],
      "name": "AirdropActivated",
      "type": "event"
    },
    {
      "anonymous": false,
      "inputs": [
        {
          "indexed": true,
          "internalType": "uint256",
          "name": "airdropId",
          "type": "uint256"
        },
        {
          "indexed": true,
          "internalType": "address",
          "name": "claimer",
          "type": "address"
        },
        {
          "indexed": false,
          "internalType": "uint256",
          "name": "amount",
          "type": "uint256"
        }
      ],
      "name": "AirdropClaimed",
      "type": "event"
    },
    {
      "anonymous": false,
      "inputs": [
        {
          "indexed": true,
          "internalType": "uint256",
          "name": "airdropId",
          "type": "uint256"
        }
      ],
      "name": "AirdropDeactivated",
      "type": "event"
    },
    {
      "anonymous": false,
      "inputs": [
        {
          "indexed": true,
          "internalType": "uint256",
          "name": "airdropId",
          "type": "uint256"
        },
        {
          "indexed": true,
          "internalType": "address",
          "name": "approver",
          "type": "address"
        }
      ],
      "name": "AirdropProposalApproved",
      "type": "event"
    },
    {
      "anonymous": false,
      "inputs": [
        {
          "indexed": true,
          "internalType": "uint256",
          "name": "airdropId",
          "type": "uint256"
        },
        {
          "indexed": false,
          "internalType": "uint256",
          "name": "amount",
          "type": "uint256"
        },
        {
          "indexed": false,
          "internalType": "uint256",
          "name": "startTime",
          "type": "uint256"
        },
        {
          "indexed": false,
          "internalType": "uint256",
          "name": "endTime",
          "type": "uint256"
        }
      ],
      "name": "AirdropProposalCreated",
      "type": "event"
    },
    {
      "anonymous": false,
      "inputs": [
        {
          "indexed": true,
          "internalType": "uint256",
          "name": "proposalId",
          "type": "uint256"
        },
        {
          "indexed": true,
          "internalType": "address",
          "name": "creator",
          "type": "address"
        },
        {
          "indexed": false,
          "internalType": "uint256",
          "name": "amount",
          "type": "uint256"
        }
      ],
      "name": "ProjectFundingReleased",
      "type": "event"
    },
    {
      "anonymous": false,
      "inputs": [
        {
          "indexed": true,
          "internalType": "uint256",
          "name": "proposalId",
          "type": "uint256"
        }
      ],
      "name": "ProjectProposalApproved",
      "type": "event"
    },
    {
      "anonymous": false,
      "inputs": [
        {
          "indexed": true,
          "internalType": "uint256",
          "name": "proposalId",
          "type": "uint256"
        },
        {
          "indexed": true,
          "internalType": "address",
          "name": "creator",
          "type": "address"
        },
        {
          "indexed": false,
          "internalType": "string",
          "name": "name",
          "type": "string"
        },
        {
          "indexed": false,
          "internalType": "uint256",
          "name": "requestedAmount",
          "type": "uint256"
        }
      ],
      "name": "ProjectProposalCreated",
      "type": "event"
    },
    {
      "anonymous": false,
      "inputs": [
        {
          "indexed": true,
          "internalType": "uint256",
          "name": "proposalId",
          "type": "uint256"
        },
        {
          "indexed": false,
          "internalType": "string",
          "name": "reason",
          "type": "string"
        }
      ],
      "name": "ProjectProposalRejected",
      "type": "event"
    },
    {
      "inputs": [],
      "name": "MAX_COMMUNITY_PROJECT_FUNDING",
      "outputs": [
        {
          "internalType": "uint256",
          "name": "",
          "type": "uint256"
        }
      ],
      "stateMutability": "view",
      "type": "function"
    },
    {
      "inputs": [],
      "name": "REQUIRED_MULTISIG_APPROVALS",
      "outputs": [
        {
          "internalType": "uint256",
          "name": "",
          "type": "uint256"
        }
      ],
      "stateMutability": "view",
      "type": "function"
    },
    {
      "inputs": [
        {
          "internalType": "uint256",
          "name": "airdropId",
          "type": "uint256"
        }
      ],
      "name": "approveAirdropProposal",
      "outputs": [],
      "stateMutability": "nonpayable",
      "type": "function"
    },
    {
      "inputs": [
        {
          "internalType": "uint256",
          "name": "proposalId",
          "type": "uint256"
        }
      ],
      "name": "approveProjectProposal",
      "outputs": [],
      "stateMutability": "nonpayable",
      "type": "function"
    },
    {
      "inputs": [
        {
          "internalType": "uint256",
          "name": "airdropId",
          "type": "uint256"
        }
      ],
      "name": "claimAirdrop",
      "outputs": [],
      "stateMutability": "nonpayable",
      "type": "function"
    },
    {
      "inputs": [
        {
          "internalType": "uint256",
          "name": "amount",
          "type": "uint256"
        },
        {
          "internalType": "uint256",
          "name": "startTime",
          "type": "uint256"
        },
        {
          "internalType": "uint256",
          "name": "endTime",
          "type": "uint256"
        }
      ],
      "name": "createAirdropProposal",
      "outputs": [
        {
          "internalType": "uint256",
          "name": "",
          "type": "uint256"
        }
      ],
      "stateMutability": "nonpayable",
      "type": "function"
    },
    {
      "inputs": [
        {
          "internalType": "string",
          "name": "name",
          "type": "string"
        },
        {
          "internalType": "string",
          "name": "description",
          "type": "string"
        },
        {
          "internalType": "string[]",
          "name": "techStack",
          "type": "string[]"
        },
        {
          "internalType": "string",
          "name": "blockchain",
          "type": "string"
        },
        {
          "internalType": "uint256",
          "name": "requestedAmount",
          "type": "uint256"
        },
        {
          "internalType": "uint256",
          "name": "timeline",
          "type": "uint256"
        },
        {
          "internalType": "enum LibDiamond.ProjectStage",
          "name": "stage",
          "type": "uint8"
        }
      ],
      "name": "createProjectFundingProposal",
      "outputs": [
        {
          "internalType": "uint256",
          "name": "",
          "type": "uint256"
        }
      ],
      "stateMutability": "nonpayable",
      "type": "function"
    },
    {
      "inputs": [
        {
          "internalType": "uint256",
          "name": "airdropId",
          "type": "uint256"
        }
      ],
      "name": "deactivateAirdrop",
      "outputs": [],
      "stateMutability": "nonpayable",
      "type": "function"
    },
    {
      "inputs": [],
      "name": "getActiveAirdropId",
      "outputs": [
        {
          "internalType": "uint256",
          "name": "",
          "type": "uint256"
        }
      ],
      "stateMutability": "view",
      "type": "function"
    },
    {
      "inputs": [
        {
          "internalType": "uint256",
          "name": "airdropId",
          "type": "uint256"
        }
      ],
      "name": "getAirdropProposal",
      "outputs": [
        {
          "components": [
            {
              "internalType": "uint256",
              "name": "airdropId",
              "type": "uint256"
            },
            {
              "internalType": "uint256",
              "name": "amount",
              "type": "uint256"
            },
            {
              "internalType": "uint256",
              "name": "startTime",
              "type": "uint256"
            },
            {
              "internalType": "uint256",
              "name": "endTime",
              "type": "uint256"
            },
            {
              "internalType": "bool",
              "name": "isActive",
              "type": "bool"
            },
            {
              "internalType": "uint256",
              "name": "approvalCount",
              "type": "uint256"
            }
          ],
          "internalType": "struct LibDiamond.AirdropProposal",
          "name": "",
          "type": "tuple"
        }
      ],
      "stateMutability": "view",
      "type": "function"
    },
    {
      "inputs": [],
      "name": "getAllAirdropProposals",
      "outputs": [
        {
          "components": [
            {
              "internalType": "uint256",
              "name": "airdropId",
              "type": "uint256"
            },
            {
              "internalType": "uint256",
              "name": "amount",
              "type": "uint256"
            },
            {
              "internalType": "uint256",
              "name": "startTime",
              "type": "uint256"
            },
            {
              "internalType": "uint256",
              "name": "endTime",
              "type": "uint256"
            },
            {
              "internalType": "bool",
              "name": "isActive",
              "type": "bool"
            },
            {
              "internalType": "uint256",
              "name": "approvalCount",
              "type": "uint256"
            }
          ],
          "internalType": "struct LibDiamond.AirdropProposal[]",
          "name": "",
          "type": "tuple[]"
        }
      ],
      "stateMutability": "view",
      "type": "function"
    },
    {
      "inputs": [],
      "name": "getAllProjectProposals",
      "outputs": [
        {
          "components": [
            {
              "internalType": "uint256",
              "name": "id",
              "type": "uint256"
            },
            {
              "internalType": "address",
              "name": "creator",
              "type": "address"
            },
            {
              "internalType": "string",
              "name": "name",
              "type": "string"
            },
            {
              "internalType": "string",
              "name": "description",
              "type": "string"
            },
            {
              "internalType": "string[]",
              "name": "techStack",
              "type": "string[]"
            },
            {
              "internalType": "string",
              "name": "blockchain",
              "type": "string"
            },
            {
              "internalType": "uint256",
              "name": "requestedAmount",
              "type": "uint256"
            },
            {
              "internalType": "uint256",
              "name": "timeline",
              "type": "uint256"
            },
            {
              "internalType": "enum LibDiamond.ProjectStage",
              "name": "stage",
              "type": "uint8"
            },
            {
              "internalType": "bool",
              "name": "isApproved",
              "type": "bool"
            },
            {
              "internalType": "bool",
              "name": "isRejected",
              "type": "bool"
            },
            {
              "internalType": "string",
              "name": "rejectionReason",
              "type": "string"
            },
            {
              "internalType": "uint256",
              "name": "approvalCount",
              "type": "uint256"
            }
          ],
          "internalType": "struct LibDiamond.ProjectFundingProposal[]",
          "name": "",
          "type": "tuple[]"
        }
      ],
      "stateMutability": "view",
      "type": "function"
    },
    {
      "inputs": [],
      "name": "getCommunityProjectFunds",
      "outputs": [
        {
          "internalType": "uint256",
          "name": "",
          "type": "uint256"
        }
      ],
      "stateMutability": "view",
      "type": "function"
    },
    {
      "inputs": [
        {
          "internalType": "uint256",
          "name": "proposalId",
          "type": "uint256"
        }
      ],
      "name": "getProjectProposal",
      "outputs": [
        {
          "components": [
            {
              "internalType": "uint256",
              "name": "id",
              "type": "uint256"
            },
            {
              "internalType": "address",
              "name": "creator",
              "type": "address"
            },
            {
              "internalType": "string",
              "name": "name",
              "type": "string"
            },
            {
              "internalType": "string",
              "name": "description",
              "type": "string"
            },
            {
              "internalType": "string[]",
              "name": "techStack",
              "type": "string[]"
            },
            {
              "internalType": "string",
              "name": "blockchain",
              "type": "string"
            },
            {
              "internalType": "uint256",
              "name": "requestedAmount",
              "type": "uint256"
            },
            {
              "internalType": "uint256",
              "name": "timeline",
              "type": "uint256"
            },
            {
              "internalType": "enum LibDiamond.ProjectStage",
              "name": "stage",
              "type": "uint8"
            },
            {
              "internalType": "bool",
              "name": "isApproved",
              "type": "bool"
            },
            {
              "internalType": "bool",
              "name": "isRejected",
              "type": "bool"
            },
            {
              "internalType": "string",
              "name": "rejectionReason",
              "type": "string"
            },
            {
              "internalType": "uint256",
              "name": "approvalCount",
              "type": "uint256"
            }
          ],
          "internalType": "struct LibDiamond.ProjectFundingProposal",
          "name": "",
          "type": "tuple"
        }
      ],
      "stateMutability": "view",
      "type": "function"
    },
    {
      "inputs": [
        {
          "internalType": "address",
          "name": "creator",
          "type": "address"
        }
      ],
      "name": "getProjectProposalsByCreator",
      "outputs": [
        {
          "components": [
            {
              "internalType": "uint256",
              "name": "id",
              "type": "uint256"
            },
            {
              "internalType": "address",
              "name": "creator",
              "type": "address"
            },
            {
              "internalType": "string",
              "name": "name",
              "type": "string"
            },
            {
              "internalType": "string",
              "name": "description",
              "type": "string"
            },
            {
              "internalType": "string[]",
              "name": "techStack",
              "type": "string[]"
            },
            {
              "internalType": "string",
              "name": "blockchain",
              "type": "string"
            },
            {
              "internalType": "uint256",
              "name": "requestedAmount",
              "type": "uint256"
            },
            {
              "internalType": "uint256",
              "name": "timeline",
              "type": "uint256"
            },
            {
              "internalType": "enum LibDiamond.ProjectStage",
              "name": "stage",
              "type": "uint8"
            },
            {
              "internalType": "bool",
              "name": "isApproved",
              "type": "bool"
            },
            {
              "internalType": "bool",
              "name": "isRejected",
              "type": "bool"
            },
            {
              "internalType": "string",
              "name": "rejectionReason",
              "type": "string"
            },
            {
              "internalType": "uint256",
              "name": "approvalCount",
              "type": "uint256"
            }
          ],
          "internalType": "struct LibDiamond.ProjectFundingProposal[]",
          "name": "",
          "type": "tuple[]"
        }
      ],
      "stateMutability": "view",
      "type": "function"
    },
    {
      "inputs": [],
      "name": "getRemainingProjectFundingCapacity",
      "outputs": [
        {
          "internalType": "uint256",
          "name": "",
          "type": "uint256"
        }
      ],
      "stateMutability": "view",
      "type": "function"
    },
    {
      "inputs": [
        {
          "internalType": "uint256",
          "name": "airdropId",
          "type": "uint256"
        },
        {
          "internalType": "address",
          "name": "user",
          "type": "address"
        }
      ],
      "name": "hasClaimedAirdrop",
      "outputs": [
        {
          "internalType": "bool",
          "name": "",
          "type": "bool"
        }
      ],
      "stateMutability": "view",
      "type": "function"
    },
    {
      "inputs": [
        {
          "internalType": "uint256",
          "name": "proposalId",
          "type": "uint256"
        },
        {
          "internalType": "string",
          "name": "reason",
          "type": "string"
        }
      ],
      "name": "rejectProjectProposal",
      "outputs": [],
      "stateMutability": "nonpayable",
      "type": "function"
    }
  ],
  "bytecode": "0x6080806040523461001b576001600055612c8690816100218239f35b600080fdfe6080604052600436101561001257600080fd5b60003560e01c80631c6d5365146118c4578063343ba14f1461169a5780633beca66b1461166f578063446ab660146114e75780634637b64c146114aa5780634be347c21461148e57806356a474e41461132f57806361ac05e2146113095780638b8641a91461115b578063cd774e3714610ec2578063ce8974fc14610e58578063ced6528014610de7578063d63ab65814610a3b578063de736b7f14610978578063e30d4440146106d7578063f5ac902014610440578063f7dc3d5f146101b35763fc99a33e146100e257600080fd5b346101ae5760203660031901126101ae573360009081527f78b7cbcd722cb181d0d1f97680f4c939c7def6b8504434dbd585d133378b0e276020526040902054600435906101329060ff166128f5565b80600052600080516020612c118339815191526020526004604060002001805461015e60ff8216612aff565b60ff19169055600080516020612c31833981519152805482146101a4575b507f97d16d159004272f62836de3419ed93fa51cf0ea0a203aea50e59533da95164b600080a2005b600090553861017c565b600080fd5b346101ae576020806003193601126101ae57600435907f37d5a577f9c15af36de6b3fee8ce50f5d16626de962610969069941093da8edd6000527fc8fcad8db84d3cc18b4c41d551ea0ee66dd599cde068d998e57d5e09332c13288152604060002033600052815261022c60ff604060002054166128f5565b81600052600080516020612c1183398151915281526040600020828154036103de57600481019160ff83541661038657600080516020612c3183398151915290610277825415612b5b565b846000527f94b357212bb1b57c18f7b1156d58093809abcfd450079760d86c2f42c7731b6580825260406000203360005282526102bc60ff6040600020541615612a87565b856000528152604060002090336000525260406000209260ff199360018582541617905560058301926102ef84546126d7565b80945560036040519433887fba2dc1cf0b7a4cba80d6f042dd7236685fe3cd10b7f13ad291c4e97956273b8e600080a3101561032757005b8584938360017ffec164d871736501db0df525034f6b7c5b8ccec979982a8ee1a898ccd4e0858298610381965416179055556001810154906003600282015491015491846040919493926060820195825260208201520152565b0390a2005b6084906040519062461bcd60e51b82526004820152602b60248201527f436f6d6d756e697479476f7665726e616e63653a2041697264726f7020616c7260448201526a656164792061637469766560a81b6064820152fd5b60405162461bcd60e51b815260048101839052603460248201527f436f6d6d756e697479476f7665726e616e63653a2041697264726f702070726f6044820152731c1bdcd85b08191bd95cc81b9bdd08195e1a5cdd60621b6064820152608490fd5b346101ae5760603660031901126101ae573360009081527f78b7cbcd722cb181d0d1f97680f4c939c7def6b8504434dbd585d133378b0e27602090815260409091205460443590600435906024359061049b9060ff166128f5565b828110156106815742811115610622576104c4600080516020612c318339815191525415612b5b565b81156105c9577fffdf155c1525421b407f3fe98206fd7f32303d907a1fb5ec68dac7ca86d65e8c907f94b357212bb1b57c18f7b1156d58093809abcfd450079760d86c2f42c7731b60926105be845495869561051f876126d7565b905560405161052d816123e5565b8681526005878a808401878152604085018981526060860191878352600080516020612c1183398151915260808801946000865260a08901966000885260005252604060002096518755516001870155516002860155516003850155600484019051151560ff8019835416911617905551910155604051938493846040919493926060820195825260208201520152565b0390a2604051908152f35b60405162461bcd60e51b815260048101859052602b60248201527f436f6d6d756e697479476f7665726e616e63653a20496e76616c69642061697260448201526a191c9bdc08185b5bdd5b9d60aa1b6064820152608490fd5b60405162461bcd60e51b815260048101859052603160248201527f436f6d6d756e697479476f7665726e616e63653a2053746172742074696d65206044820152706d75737420626520696e2066757475726560781b6064820152608490fd5b60405162461bcd60e51b815260048101859052602860248201527f436f6d6d756e697479476f7665726e616e63653a20496e76616c69642074696d60448201526719481c195c9a5bd960c21b6064820152608490fd5b346101ae576020806003193601126101ae576004356106f4612bcd565b604051632f676b6560e01b81523360048201528281602481305afa8015610888576107279160009161095b575b50612673565b80600052600080516020612c118339815191528252604060002061075160ff600483015416612aff565b60028101544210158061094d575b156108f357816000527f94b357212bb1b57c18f7b1156d58093809abcfd450079760d86c2f42c7731b66808452604060002033600052845260ff604060002054166108945790600191836000528452604060002033600052845260406000208260ff198254161790550180549060405191633cbc766960e11b835260016004840152336024840152604483015260806064830152600d60848301526c41697264726f7020636c61696d60981b60a4830152838260c4816000305af1918215610888577f752d3a5de250652e9111e24fea2886c837dadfe50c8479ad3b5511f4c36f20a29261085b575b5054926040519384523393a36001600055005b61087a90853d8711610881575b6108728183612400565b81019061265b565b5084610848565b503d610868565b6040513d6000823e3d90fd5b60405162461bcd60e51b815260048101859052603160248201527f436f6d6d756e697479476f7665726e616e63653a20416c726561647920636c616044820152700696d656420746869732061697264726f7607c1b6064820152608490fd5b60405162461bcd60e51b815260048101849052602c60248201527f436f6d6d756e697479476f7665726e616e63653a2041697264726f70206e6f7460448201526b20696e2070726f677265737360a01b6064820152608490fd5b50600381015442111561075f565b6109729150843d8611610881576108728183612400565b84610721565b346101ae5760203660031901126101ae576109916128c3565b50600435600052600080516020612c1183398151915260205260c060406000206005604051916109c0836123e5565b8054835260018101546020840152600281015460408401526003810154606084015260ff60048201541615156080840152015460a0820152610a39604051809260a08091805184526020810151602085015260408101516040850152606081015160608501526080810151151560808501520151910152565bf35b346101ae5760203660031901126101ae573360009081527fbf8dcd7ac2eb3b1ae29d76cf7c4b6dff9145f4c5b84c1061b96bd334eae0f0e56020526040902054610a879060ff166128f5565b600435600052600080516020612bf18339815191526020526040600020610ab2600435825414612960565b60088101610ad660ff8254610acc828260081c16156129c1565b60101c1615612a24565b6004356000527f94b357212bb1b57c18f7b1156d58093809abcfd450079760d86c2f42c7731b6880602052604060002033600052602052610b1f60ff6040600020541615612a87565b60043560005260205260406000203360005260205260406000209060019060ff19926001848254161790556003600a8501610b5a81546126d7565b8091551015610b6557005b805461ff0019166101001790557f94b357212bb1b57c18f7b1156d58093809abcfd450079760d86c2f42c7731b63805460068501546a295be96e64066972000000610bb08284612af2565b11610d7c57610bbe91612af2565b905560018060a01b0360018401541660068401549160028501604051948592700283937b532b1ba10333ab73234b7339d1607d1b60208501526031906000938054610c08816126f2565b9460018216918215610d51575050600114610d0c575b505050506020939291610c399103601f198101865285612400565b610c706040519485938493633cbc766960e11b8552600160048601526024850152604484015260806064840152608483019061248e565b03816000305af1801561088857610ced575b50600660018060a01b036001830154169101546040519081527fb6f8562765b5da161636b79e56625b1a7d0d9726ee1065cee4bf966980894c70602060043592a36004357f1c2a00e8a0b086d9b7e7a79c9440ab052641329e55c4bf8eec7ee9dfb658b7ed600080a2005b610d059060203d602011610881576108728183612400565b5081610c82565b909192935060005260206000206000905b848210610d395750505050810160310181610c39602089610c1e565b8054828a018501528895506020909101908201610d1d565b1660318881019190915285151590950287019094019450859350610c399250602091508a9050610c1e565b60405162461bcd60e51b815260206004820152603960248201527f436f6d6d756e697479476f7665726e616e63653a20496e73756666696369656e60448201527f7420636f6d6d756e6974792070726f6a6563742066756e6473000000000000006064820152608490fd5b346101ae5760403660031901126101ae576024356001600160a01b038116908190036101ae576004356000527f94b357212bb1b57c18f7b1156d58093809abcfd450079760d86c2f42c7731b66602052604060002090600052602052602060ff604060002054166040519015158152f35b346101ae5760003660031901126101ae577f94b357212bb1b57c18f7b1156d58093809abcfd450079760d86c2f42c7731b63546a295be96e64066972000000908103908111610eac57602090604051908152f35b634e487b7160e01b600052601160045260246000fd5b346101ae5760403660031901126101ae576001600160401b036004356024358281116101ae57610ef6903690600401612421565b3360009081527fbf8dcd7ac2eb3b1ae29d76cf7c4b6dff9145f4c5b84c1061b96bd334eae0f0e56020908152604090912054610f349060ff166128f5565b82600052600080516020612bf183398151915281526040600020610f5a84825414612960565b600881018054610f7060ff8260081c16156129c1565b610f8060ff8260101c1615612a24565b8451156110ff5790620100006009939262ff000019161790550182519485116110e957610fad81546126f2565b601f81116110ae575b5081601f861160011461102957857f0181021ec281a3c27d14e788229d199a2075e233c761365095368d822b2c277f95966110079260009161101e575b508160011b916000199060031b1c19161790565b90555b61038160405192828493845283019061248e565b905085015188610ff3565b601f1986169082600052836000209160005b81811061109757509187917f0181021ec281a3c27d14e788229d199a2075e233c761365095368d822b2c277f97986001941061107e575b5050811b01905561100a565b86015160001960f88460031b161c191690558780611072565b91928560018192868a01518155019401920161103b565b6110d9908260005283600020601f880160051c8101918589106110df575b601f0160051c019061272c565b85610fb6565b90915081906110cc565b634e487b7160e01b600052604160045260246000fd5b60405162461bcd60e51b815260048101859052602e60248201527f436f6d6d756e697479476f7665726e616e63653a2052656a656374696f6e207260448201526d19585cdbdb881c995c5d5a5c995960921b6064820152608490fd5b346101ae5760003660031901126101ae577f94b357212bb1b57c18f7b1156d58093809abcfd450079760d86c2f42c7731b6254611197816127a4565b906000905b8082106111b557604051806111b185826125f7565b0390f35b81600052602091600080516020612bf183398151915283526040600020604051906111df826123c9565b805482526001808201546001600160a01b0316868401526112026002830161281e565b60408401526112136003830161281e565b60608401526004820180549061122882612477565b97611236604051998a612400565b828952600091825280822091818a015b8482106112ee57505050505050600a9060019495608084015261126b6005820161281e565b60a0840152600681015460c0840152600781015460e0840152600880820154809160ff9283916112a18383166101008a016126e6565b1c16151561012086015260101c1615156101408401526112c36009820161281e565b61016084015201546101808201526112db82866127f4565b526112e681856127f4565b50019061119c565b858381926112fb8761281e565b815201940191019092611246565b346101ae5760003660031901126101ae5760206040516a295be96e640669720000008152f35b346101ae576020806003193601126101ae57611349612743565b50600435600052600080516020612bf1833981519152815260406000209060405191611374836123c9565b805483526001808201546001600160a01b0316838501526113976002830161281e565b60408501526113a86003830161281e565b6060850152600482019081546113bd81612477565b926113cb6040519485612400565b8184526000908152858120868086015b848410611471578982600a8a8a60808501526113f96005820161281e565b60a0850152600681015460c0850152600781015460e085015260ff600882015461142982821661010088016126e6565b818160081c16151561012087015260101c16151561014085015261144f6009820161281e565b61016085015201546101808301526111b16040519282849384528301906124ce565b8591829161147e8561281e565b81520192019201919087906113db565b346101ae5760003660031901126101ae57602060405160038152f35b346101ae5760003660031901126101ae5760207f94b357212bb1b57c18f7b1156d58093809abcfd450079760d86c2f42c7731b6354604051908152f35b346101ae5760003660031901126101ae577f94b357212bb1b57c18f7b1156d58093809abcfd450079760d86c2f42c7731b605461152381612477565b906115316040519283612400565b80825261153d81612477565b60209190601f19018260005b8281106116595750505060005b8181106115db57604080518481528551818601819052868601928201908660005b8281106115845784840385f35b9091928260c0826115cc6001948a5160a08091805184526020810151602085015260408101516040850152606081015160608501526080810151151560808501520151910152565b01960191019492919094611577565b80600191600052600080516020612c1183398151915284526040600020600560405191611607836123e5565b805483528481015487840152600281015460408401526003810154606084015260ff60048201541615156080840152015460a082015261164782876127f4565b5261165281866127f4565b5001611556565b6116616128c3565b828288010152018390611549565b346101ae5760003660031901126101ae576020600080516020612c3183398151915254604051908152f35b346101ae576020806003193601126101ae576004356001600160a01b03818116918290036101ae577f94b357212bb1b57c18f7b1156d58093809abcfd450079760d86c2f42c7731b6254906000805b83811061188157506116fa906127a4565b9260009160005b84811061171657604051806111b188826125f7565b80600052600080516020612bf183398151915287526040600020826001820154169084821461174a575b5050600101611701565b6040959295519161175a836123c9565b815483528983015261176e6002820161281e565b604083015261177f6003820161281e565b606083015260048101805461179381612477565b916117a16040519384612400565b81835260009081528b8120908c8085015b84831061186357505050505091600a6001949261185b9460808401526117da6005820161281e565b60a0840152600681015460c0840152600781015460e0840152600880820154809160ff9283916118108383166101008a016126e6565b1c16151561012086015260101c1615156101408401526118326009820161281e565b610160840152015461018082015261184a828a6127f4565b5261185581896127f4565b506126d7565b939088611740565b60019182916118718661281e565b8152019301910190918d906117b2565b80600052600080516020612bf18339815191528652848360016040600020015416146118b0575b6001016116e9565b906118bc6001916126d7565b9190506118a8565b346101ae5760e03660031901126101ae576004356001600160401b0381116101ae576118f4903690600401612421565b6024356001600160401b0381116101ae57611913903690600401612421565b90604435906001600160401b0382116101ae57366023830112156101ae57816004013561193f81612477565b9261194d6040519485612400565b8184526024602085019260051b820101903682116101ae5760248101925b82841061239a57505050506064356001600160401b0381116101ae57611995903690600401612421565b600660c43510156101ae576119a8612bcd565b604051632f676b6560e01b8152336004820152602081602481305afa8015610888576119db9160009161237b5750612673565b81511561232357608435156122c8576a295be96e64066972000000608435116122515760a435156121ef577f94b357212bb1b57c18f7b1156d58093809abcfd450079760d86c2f42c7731b6292835493611a34856126d7565b905560405194611a43866123c9565b8486523360208701528360408701526060860152608085015260a084015260843560c084015260a43560e0840152611a8160c43561010085016126e6565b600061012084015260006101408401526040518060208101106001600160401b036020830111176110e9576020810160405260008152610160840152600061018084015281600052600080516020612bf18339815191526020526040600020835181556001810160018060a01b036020860151166bffffffffffffffffffffffff60a01b82541617905560408401518051906001600160401b0382116110e957611b2e60028401546126f2565b601f81116121ba575b50602090601f831160011461214857611b69929160009183611e5c575b50508160011b916000199060031b1c19161790565b60028201555b60608401518051906001600160401b0382116110e957611b9260038401546126f2565b601f8111612113575b50602090601f83116001146120a157611bcc929160009183611e5c5750508160011b916000199060031b1c19161790565b60038201555b60808401518051906801000000000000000082116110e9576004830154826004850155808310612029575b5060200190600483016000526020600020916000905b828210611f0e575050505060a08401518051906001600160401b0382116110e957611c4160058401546126f2565b601f8111611ed9575b50602090601f8311600114611e6757611c7b929160009183611e5c5750508160011b916000199060031b1c19161790565b60058201555b60c0840151600682015560e08401516007820155600881016101008501516006811015611e4657815461ff00610120880151151560081b169060ff62ff00006101408a0151151560101b1693169062ffffff1916171717905560098101936101608101519485516001600160401b0381116110e957602096611d0383546126f2565b601f8111611e16575b508790601f8311600114611da95782600a95936101809593611d4493600092611d9e5750508160011b916000199060031b1c19161790565b90555b0151910155817f173a3a7373ea0492f4cb0f9ba4740561e11b1ae3864f095bee87e52d9925bb87611d836040519360408552604085019061248e565b92608435868201528033940390a36001600055604051908152f35b015190508b80611b54565b90601f1983169184600052896000209260005b818110611dff5750926001928592600a9896610180989610611de6575b505050811b019055611d47565b015160001960f88460031b161c191690558a8080611dd9565b92938b600181928786015181550195019301611dbc565b611e40908460005289600020601f850160051c8101918b86106110df57601f0160051c019061272c565b88611d0c565b634e487b7160e01b600052602160045260246000fd5b015190508780611b54565b9190600584016000526020600020906000935b601f1984168510611ebe576001945083601f19811610611ea5575b505050811b016005820155611c81565b015160001960f88460031b161c19169055868080611e95565b81810151835560209485019460019093019290910190611e7a565b611f0890600585016000526020600020601f850160051c810191602086106110df57601f0160051c019061272c565b86611c4a565b80518051906001600160401b0382116110e957611f2b86546126f2565b601f8111611ff7575b50602090601f8311600114611f875792611f6d83600195946020948796600092611f7c5750508160011b916000199060031b1c19161790565b87555b01940191019092611c13565b015190508e80611b54565b908660005260206000209160005b601f1985168110611fdf575083602093600196938796938794601f19811610611fc6575b505050811b018755611f70565b015160001960f88460031b161c191690558d8080611fb9565b91926020600181928685015181550194019201611f95565b61202390876000526020600020601f850160051c810191602086106110df57601f0160051c019061272c565b8a611f34565b600484016000526020600020908382015b818301811061204a575050611bfd565b80612057600192546126f2565b80612064575b500161203a565b601f8111831461207a5750600081555b8a61205d565b600090828252612098601f60208420920160051c820185830161272c565b81835555612074565b9190600384016000526020600020906000935b601f19841685106120f8576001945083601f198116106120df575b505050811b016003820155611bd2565b015160001960f88460031b161c191690558680806120cf565b818101518355602094850194600190930192909101906120b4565b61214290600385016000526020600020601f850160051c810191602086106110df57601f0160051c019061272c565b86611b9b565b9190600284016000526020600020906000935b601f198416851061219f576001945083601f19811610612186575b505050811b016002820155611b6f565b015160001960f88460031b161c19169055868080612176565b8181015183556020948501946001909301929091019061215b565b6121e990600285016000526020600020601f850160051c810191602086106110df57601f0160051c019061272c565b86611b37565b60405162461bcd60e51b815260206004820152603460248201527f436f6d6d756e697479476f7665726e616e63653a2054696d656c696e65206d75604482015273073742062652067726561746572207468616e20360641b6064820152608490fd5b60405162461bcd60e51b815260206004820152604360248201527f436f6d6d756e697479476f7665726e616e63653a20526571756573746564206160448201527f6d6f756e742065786365656473206d6178696d756d2066756e64696e67206c696064820152621b5a5d60ea1b608482015260a490fd5b60405162461bcd60e51b815260206004820152602d60248201527f436f6d6d756e697479476f7665726e616e63653a20496e76616c69642072657160448201526c1d595cdd195908185b5bdd5b9d609a1b6064820152608490fd5b60405162461bcd60e51b815260206004820152602a60248201527f436f6d6d756e697479476f7665726e616e63653a2050726f6a656374206e616d60448201526919481c995c5d5a5c995960b21b6064820152608490fd5b612394915060203d602011610881576108728183612400565b86610721565b83356001600160401b0381116101ae576020916123be839260243691870101612421565b81520193019261196b565b6101a081019081106001600160401b038211176110e957604052565b60c081019081106001600160401b038211176110e957604052565b90601f801991011681019081106001600160401b038211176110e957604052565b81601f820112156101ae578035906001600160401b0382116110e95760405192612455601f8401601f191660200185612400565b828452602083830101116101ae57816000926020809301838601378301015290565b6001600160401b0381116110e95760051b60200190565b919082519283825260005b8481106124ba575050826000602080949584010152601f8019910116010190565b602081830181015184830182015201612499565b906101a08251825261251561250360209260018060a01b0384870151168486015260408601519080604087015285019061248e565b6060850151848203606086015261248e565b9060808401519083830360808501528151908184528084019381808460051b8301019401946000915b8483106125c9575050505050612561915060a084015183820360a085015261248e565b60c083015160c083015260e083015160e083015261010090818401516006811015611e46576125bb92840152610120808501511515908401526101408085015115159084015261016080850151908483039085015261248e565b916101808091015191015290565b909192939484806125e6600193601f198682030187528a5161248e565b98019301930191959493929061253e565b6020808201906020835283518092526040830192602060408460051b8301019501936000915b84831061262d5750505050505090565b909192939495848061264b600193603f198682030187528a516124ce565b980193019301919493929061261d565b908160209103126101ae575180151581036101ae5790565b1561267a57565b60405162461bcd60e51b815260206004820152602f60248201527f436f6d6d756e697479476f7665726e616e63653a204d7573742062652061206360448201526e37b6b6bab734ba3c9036b2b6b132b960891b6064820152608490fd5b6000198114610eac5760010190565b6006821015611e465752565b90600182811c92168015612722575b602083101461270c57565b634e487b7160e01b600052602260045260246000fd5b91607f1691612701565b818110612737575050565b6000815560010161272c565b60405190612750826123c9565b81610180600091828152826020820152606080604083015280808301528060808301528060a08301528360c08301528360e08301528361010083015283610120830152836101408301526101608201520152565b906127ae82612477565b6127bb6040519182612400565b82815280926127cc601f1991612477565b019060005b8281106127dd57505050565b6020906127e8612743565b828285010152016127d1565b80518210156128085760209160051b010190565b634e487b7160e01b600052603260045260246000fd5b90604051918260008254612831816126f2565b908184526020946001916001811690816000146128a15750600114612862575b50505061286092500383612400565b565b600090815285812095935091905b8183106128895750506128609350820101388080612851565b85548884018501529485019487945091830191612870565b9250505061286094925060ff191682840152151560051b820101388080612851565b604051906128d0826123e5565b8160a06000918281528260208201528260408201528260608201528260808201520152565b156128fc57565b60405162461bcd60e51b815260206004820152603660248201527f436f6d6d756e697479476f7665726e616e63653a2043616c6c657220646f65736044820152756e2774206861766520726571756972656420726f6c6560501b6064820152608490fd5b1561296757565b60405162461bcd60e51b815260206004820152602c60248201527f436f6d6d756e697479476f7665726e616e63653a2050726f706f73616c20646f60448201526b195cc81b9bdd08195e1a5cdd60a21b6064820152608490fd5b156129c857565b60405162461bcd60e51b815260206004820152602e60248201527f436f6d6d756e697479476f7665726e616e63653a2050726f706f73616c20616c60448201526d1c9958591e48185c1c1c9bdd995960921b6064820152608490fd5b15612a2b57565b60405162461bcd60e51b815260206004820152602e60248201527f436f6d6d756e697479476f7665726e616e63653a2050726f706f73616c20616c60448201526d1c9958591e481c995a9958dd195960921b6064820152608490fd5b15612a8e57565b60405162461bcd60e51b815260206004820152603660248201527f436f6d6d756e697479476f7665726e616e63653a20416c7265616479206170706044820152753937bb32b210313c903a3434b99030b8383937bb32b960511b6064820152608490fd5b91908201809211610eac57565b15612b0657565b60405162461bcd60e51b815260206004820152602760248201527f436f6d6d756e697479476f7665726e616e63653a2041697264726f70206e6f746044820152662061637469766560c81b6064820152608490fd5b15612b6257565b60405162461bcd60e51b815260206004820152603860248201527f436f6d6d756e697479476f7665726e616e63653a20416e6f746865722061697260448201527f64726f702069732063757272656e746c792061637469766500000000000000006064820152608490fd5b600260005414612bde576002600055565b604051633ee5aeb560e01b8152600490fdfe94b357212bb1b57c18f7b1156d58093809abcfd450079760d86c2f42c7731b6794b357212bb1b57c18f7b1156d58093809abcfd450079760d86c2f42c7731b6494b357212bb1b57c18f7b1156d58093809abcfd450079760d86c2f42c7731b61a26469706673582212208248a64037254a1d1058b92d0bd8e99553cd090522ba2e091443d857d12e11dd64736f6c63430008180033",
  "linkReferences": {},
  "deployedLinkReferences": {}
}