{
  "_format": "hh-sol-artifact-1",
  "contractName": "Ecosystem1Facet",
  "sourceName": "contracts/Ecosystem1Facet.sol",
  "abi": [
    {
      "inputs": [],
      "name": "ReentrancyGuardReentrantCall",
      "type": "error"
    },
    {
      "anonymous": false,
      "inputs": [
        {
          "indexed": true,
          "internalType": "uint256",
          "name": "courseId",
          "type": "uint256"
        },
        {
          "indexed": false,
          "internalType": "bool",
          "name": "approved",
          "type": "bool"
        }
      ],
      "name": "CourseApproved",
      "type": "event"
    },
    {
      "anonymous": false,
      "inputs": [
        {
          "indexed": true,
          "internalType": "uint256",
          "name": "courseId",
          "type": "uint256"
        },
        {
          "indexed": false,
          "internalType": "string",
          "name": "courseName",
          "type": "string"
        },
        {
          "indexed": false,
          "internalType": "address",
          "name": "creator",
          "type": "address"
        }
      ],
      "name": "CourseCreated",
      "type": "event"
    },
    {
      "anonymous": false,
      "inputs": [
        {
          "indexed": true,
          "internalType": "uint256",
          "name": "_courseID",
          "type": "uint256"
        },
        {
          "indexed": true,
          "internalType": "string",
          "name": "_courseName",
          "type": "string"
        },
        {
          "indexed": false,
          "internalType": "bool",
          "name": "_approved",
          "type": "bool"
        }
      ],
      "name": "CourseCreationSuccess",
      "type": "event"
    },
    {
      "anonymous": false,
      "inputs": [
        {
          "indexed": true,
          "internalType": "uint256",
          "name": "_courseId",
          "type": "uint256"
        },
        {
          "indexed": false,
          "internalType": "address",
          "name": "owner",
          "type": "address"
        }
      ],
      "name": "CourseDeleteSuccess",
      "type": "event"
    },
    {
      "anonymous": false,
      "inputs": [
        {
          "indexed": true,
          "internalType": "uint256",
          "name": "_courseId",
          "type": "uint256"
        },
        {
          "indexed": false,
          "internalType": "string",
          "name": "_courseName",
          "type": "string"
        }
      ],
      "name": "CourseEdited",
      "type": "event"
    },
    {
      "anonymous": false,
      "inputs": [
        {
          "indexed": true,
          "internalType": "uint256",
          "name": "courseId",
          "type": "uint256"
        },
        {
          "indexed": false,
          "internalType": "bool",
          "name": "eligible",
          "type": "bool"
        }
      ],
      "name": "CourseEligibilityChecked",
      "type": "event"
    },
    {
      "anonymous": false,
      "inputs": [
        {
          "indexed": true,
          "internalType": "uint256",
          "name": "courseId",
          "type": "uint256"
        },
        {
          "indexed": false,
          "internalType": "string",
          "name": "feedback",
          "type": "string"
        }
      ],
      "name": "CourseFeedbackAdded",
      "type": "event"
    },
    {
      "anonymous": false,
      "inputs": [
        {
          "indexed": true,
          "internalType": "uint256",
          "name": "courseId",
          "type": "uint256"
        },
        {
          "indexed": false,
          "internalType": "string",
          "name": "reason",
          "type": "string"
        }
      ],
      "name": "CourseRejected",
      "type": "event"
    },
    {
      "anonymous": false,
      "inputs": [
        {
          "indexed": false,
          "internalType": "string",
          "name": "message",
          "type": "string"
        },
        {
          "indexed": false,
          "internalType": "uint256",
          "name": "courseId",
          "type": "uint256"
        },
        {
          "indexed": false,
          "internalType": "uint256",
          "name": "value",
          "type": "uint256"
        }
      ],
      "name": "DebugLog",
      "type": "event"
    },
    {
      "anonymous": false,
      "inputs": [
        {
          "indexed": false,
          "internalType": "address",
          "name": "account",
          "type": "address"
        },
        {
          "indexed": false,
          "internalType": "bytes32",
          "name": "role",
          "type": "bytes32"
        },
        {
          "indexed": false,
          "internalType": "bool",
          "name": "hasRole",
          "type": "bool"
        }
      ],
      "name": "DebugRoleCheck",
      "type": "event"
    },
    {
      "anonymous": false,
      "inputs": [
        {
          "indexed": false,
          "internalType": "address",
          "name": "account",
          "type": "address"
        },
        {
          "indexed": false,
          "internalType": "bytes32",
          "name": "role",
          "type": "bytes32"
        },
        {
          "indexed": false,
          "internalType": "bool",
          "name": "roleValue",
          "type": "bool"
        }
      ],
      "name": "DebugStorageAccess",
      "type": "event"
    },
    {
      "anonymous": false,
      "inputs": [
        {
          "indexed": true,
          "internalType": "address",
          "name": "_to",
          "type": "address"
        },
        {
          "indexed": true,
          "internalType": "uint256",
          "name": "_amount",
          "type": "uint256"
        }
      ],
      "name": "EcosystemPoolUpdate",
      "type": "event"
    },
    {
      "inputs": [
        {
          "internalType": "uint256",
          "name": "_courseId",
          "type": "uint256"
        },
        {
          "internalType": "uint256",
          "name": "score",
          "type": "uint256"
        },
        {
          "components": [
            {
              "internalType": "uint256",
              "name": "learnerAgency",
              "type": "uint256"
            },
            {
              "internalType": "uint256",
              "name": "criticalThinking",
              "type": "uint256"
            },
            {
              "internalType": "uint256",
              "name": "collaborativeLearning",
              "type": "uint256"
            },
            {
              "internalType": "uint256",
              "name": "reflectivePractice",
              "type": "uint256"
            },
            {
              "internalType": "uint256",
              "name": "adaptiveLearning",
              "type": "uint256"
            },
            {
              "internalType": "uint256",
              "name": "authenticLearning",
              "type": "uint256"
            },
            {
              "internalType": "uint256",
              "name": "technologyIntegration",
              "type": "uint256"
            },
            {
              "internalType": "uint256",
              "name": "learnerSupport",
              "type": "uint256"
            },
            {
              "internalType": "uint256",
              "name": "assessmentForLearning",
              "type": "uint256"
            },
            {
              "internalType": "uint256",
              "name": "engagementAndMotivation",
              "type": "uint256"
            },
            {
              "internalType": "bool",
              "name": "isSubmitted",
              "type": "bool"
            },
            {
              "internalType": "string",
              "name": "category",
              "type": "string"
            },
            {
              "internalType": "uint256",
              "name": "score",
              "type": "uint256"
            },
            {
              "internalType": "bool",
              "name": "passed",
              "type": "bool"
            }
          ],
          "internalType": "struct LibDiamond.Review",
          "name": "review",
          "type": "tuple"
        }
      ],
      "name": "approveCourse",
      "outputs": [],
      "stateMutability": "nonpayable",
      "type": "function"
    },
    {
      "inputs": [
        {
          "internalType": "uint256",
          "name": "courseId",
          "type": "uint256"
        }
      ],
      "name": "checkCourseEligibility",
      "outputs": [
        {
          "internalType": "bool",
          "name": "",
          "type": "bool"
        },
        {
          "internalType": "string",
          "name": "",
          "type": "string"
        }
      ],
      "stateMutability": "view",
      "type": "function"
    },
    {
      "inputs": [
        {
          "internalType": "uint256",
          "name": "courseId",
          "type": "uint256"
        }
      ],
      "name": "checkCourseEligibilityAfterDelay",
      "outputs": [],
      "stateMutability": "nonpayable",
      "type": "function"
    },
    {
      "inputs": [
        {
          "internalType": "address",
          "name": "account",
          "type": "address"
        },
        {
          "internalType": "bytes32",
          "name": "role",
          "type": "bytes32"
        }
      ],
      "name": "checkRole",
      "outputs": [
        {
          "internalType": "bool",
          "name": "",
          "type": "bool"
        }
      ],
      "stateMutability": "view",
      "type": "function"
    },
    {
      "inputs": [
        {
          "internalType": "string",
          "name": "_courseName",
          "type": "string"
        },
        {
          "internalType": "string",
          "name": "_description",
          "type": "string"
        },
        {
          "internalType": "enum LibDiamond.DifficultyLevel",
          "name": "_difficultyLevel",
          "type": "uint8"
        }
      ],
      "name": "createCourse",
      "outputs": [
        {
          "internalType": "bool",
          "name": "",
          "type": "bool"
        }
      ],
      "stateMutability": "nonpayable",
      "type": "function"
    },
    {
      "inputs": [
        {
          "internalType": "uint256",
          "name": "_courseId",
          "type": "uint256"
        }
      ],
      "name": "deleteCourse",
      "outputs": [
        {
          "internalType": "bool",
          "name": "",
          "type": "bool"
        }
      ],
      "stateMutability": "nonpayable",
      "type": "function"
    },
    {
      "inputs": [
        {
          "internalType": "uint256",
          "name": "_courseId",
          "type": "uint256"
        },
        {
          "internalType": "string",
          "name": "_courseName",
          "type": "string"
        }
      ],
      "name": "editCourse",
      "outputs": [
        {
          "internalType": "bool",
          "name": "",
          "type": "bool"
        }
      ],
      "stateMutability": "nonpayable",
      "type": "function"
    },
    {
      "inputs": [
        {
          "internalType": "uint256",
          "name": "courseId",
          "type": "uint256"
        }
      ],
      "name": "getAllCourseReviews",
      "outputs": [
        {
          "components": [
            {
              "internalType": "uint256",
              "name": "learnerAgency",
              "type": "uint256"
            },
            {
              "internalType": "uint256",
              "name": "criticalThinking",
              "type": "uint256"
            },
            {
              "internalType": "uint256",
              "name": "collaborativeLearning",
              "type": "uint256"
            },
            {
              "internalType": "uint256",
              "name": "reflectivePractice",
              "type": "uint256"
            },
            {
              "internalType": "uint256",
              "name": "adaptiveLearning",
              "type": "uint256"
            },
            {
              "internalType": "uint256",
              "name": "authenticLearning",
              "type": "uint256"
            },
            {
              "internalType": "uint256",
              "name": "technologyIntegration",
              "type": "uint256"
            },
            {
              "internalType": "uint256",
              "name": "learnerSupport",
              "type": "uint256"
            },
            {
              "internalType": "uint256",
              "name": "assessmentForLearning",
              "type": "uint256"
            },
            {
              "internalType": "uint256",
              "name": "engagementAndMotivation",
              "type": "uint256"
            },
            {
              "internalType": "bool",
              "name": "isSubmitted",
              "type": "bool"
            },
            {
              "internalType": "string",
              "name": "category",
              "type": "string"
            },
            {
              "internalType": "uint256",
              "name": "score",
              "type": "uint256"
            },
            {
              "internalType": "bool",
              "name": "passed",
              "type": "bool"
            }
          ],
          "internalType": "struct LibDiamond.Review[]",
          "name": "",
          "type": "tuple[]"
        }
      ],
      "stateMutability": "view",
      "type": "function"
    },
    {
      "inputs": [],
      "name": "getAllCourses",
      "outputs": [
        {
          "components": [
            {
              "internalType": "uint256",
              "name": "courseId",
              "type": "uint256"
            },
            {
              "internalType": "string",
              "name": "courseName",
              "type": "string"
            },
            {
              "internalType": "string",
              "name": "description",
              "type": "string"
            },
            {
              "internalType": "bool",
              "name": "approved",
              "type": "bool"
            },
            {
              "internalType": "uint256",
              "name": "score",
              "type": "uint256"
            },
            {
              "internalType": "address",
              "name": "creator",
              "type": "address"
            },
            {
              "internalType": "bool",
              "name": "exists",
              "type": "bool"
            },
            {
              "internalType": "address[]",
              "name": "enrolledStudents",
              "type": "address[]"
            },
            {
              "internalType": "enum LibDiamond.DifficultyLevel",
              "name": "difficultyLevel",
              "type": "uint8"
            },
            {
              "internalType": "uint256",
              "name": "creationTime",
              "type": "uint256"
            }
          ],
          "internalType": "struct LibDiamond.Course[]",
          "name": "",
          "type": "tuple[]"
        }
      ],
      "stateMutability": "view",
      "type": "function"
    },
    {
      "inputs": [
        {
          "internalType": "uint256",
          "name": "courseId",
          "type": "uint256"
        }
      ],
      "name": "getCourse",
      "outputs": [
        {
          "components": [
            {
              "internalType": "uint256",
              "name": "courseId",
              "type": "uint256"
            },
            {
              "internalType": "string",
              "name": "courseName",
              "type": "string"
            },
            {
              "internalType": "string",
              "name": "description",
              "type": "string"
            },
            {
              "internalType": "bool",
              "name": "approved",
              "type": "bool"
            },
            {
              "internalType": "uint256",
              "name": "score",
              "type": "uint256"
            },
            {
              "internalType": "address",
              "name": "creator",
              "type": "address"
            },
            {
              "internalType": "bool",
              "name": "exists",
              "type": "bool"
            },
            {
              "internalType": "address[]",
              "name": "enrolledStudents",
              "type": "address[]"
            },
            {
              "internalType": "enum LibDiamond.DifficultyLevel",
              "name": "difficultyLevel",
              "type": "uint8"
            },
            {
              "internalType": "uint256",
              "name": "creationTime",
              "type": "uint256"
            }
          ],
          "internalType": "struct LibDiamond.Course",
          "name": "",
          "type": "tuple"
        }
      ],
      "stateMutability": "view",
      "type": "function"
    },
    {
      "inputs": [
        {
          "internalType": "uint256",
          "name": "courseId",
          "type": "uint256"
        }
      ],
      "name": "getCourseFeedback",
      "outputs": [
        {
          "internalType": "string",
          "name": "",
          "type": "string"
        }
      ],
      "stateMutability": "view",
      "type": "function"
    },
    {
      "inputs": [],
      "name": "getCurrentEcosystemPoolSupply",
      "outputs": [
        {
          "internalType": "uint256",
          "name": "",
          "type": "uint256"
        }
      ],
      "stateMutability": "view",
      "type": "function"
    },
    {
      "inputs": [
        {
          "internalType": "uint256",
          "name": "courseId",
          "type": "uint256"
        }
      ],
      "name": "getLatestCourseReview",
      "outputs": [
        {
          "components": [
            {
              "internalType": "uint256",
              "name": "learnerAgency",
              "type": "uint256"
            },
            {
              "internalType": "uint256",
              "name": "criticalThinking",
              "type": "uint256"
            },
            {
              "internalType": "uint256",
              "name": "collaborativeLearning",
              "type": "uint256"
            },
            {
              "internalType": "uint256",
              "name": "reflectivePractice",
              "type": "uint256"
            },
            {
              "internalType": "uint256",
              "name": "adaptiveLearning",
              "type": "uint256"
            },
            {
              "internalType": "uint256",
              "name": "authenticLearning",
              "type": "uint256"
            },
            {
              "internalType": "uint256",
              "name": "technologyIntegration",
              "type": "uint256"
            },
            {
              "internalType": "uint256",
              "name": "learnerSupport",
              "type": "uint256"
            },
            {
              "internalType": "uint256",
              "name": "assessmentForLearning",
              "type": "uint256"
            },
            {
              "internalType": "uint256",
              "name": "engagementAndMotivation",
              "type": "uint256"
            },
            {
              "internalType": "bool",
              "name": "isSubmitted",
              "type": "bool"
            },
            {
              "internalType": "string",
              "name": "category",
              "type": "string"
            },
            {
              "internalType": "uint256",
              "name": "score",
              "type": "uint256"
            },
            {
              "internalType": "bool",
              "name": "passed",
              "type": "bool"
            }
          ],
          "internalType": "struct LibDiamond.Review",
          "name": "",
          "type": "tuple"
        }
      ],
      "stateMutability": "view",
      "type": "function"
    },
    {
      "inputs": [
        {
          "internalType": "address",
          "name": "account",
          "type": "address"
        },
        {
          "internalType": "bytes32",
          "name": "role",
          "type": "bytes32"
        }
      ],
      "name": "getRoleStatus",
      "outputs": [
        {
          "internalType": "bool",
          "name": "",
          "type": "bool"
        }
      ],
      "stateMutability": "view",
      "type": "function"
    },
    {
      "inputs": [
        {
          "internalType": "address",
          "name": "account",
          "type": "address"
        }
      ],
      "name": "hasCourseOwnerRole",
      "outputs": [
        {
          "internalType": "bool",
          "name": "",
          "type": "bool"
        }
      ],
      "stateMutability": "view",
      "type": "function"
    },
    {
      "inputs": [
        {
          "internalType": "uint256",
          "name": "courseId",
          "type": "uint256"
        }
      ],
      "name": "isCourseReadyForEligibilityCheck",
      "outputs": [
        {
          "internalType": "bool",
          "name": "",
          "type": "bool"
        }
      ],
      "stateMutability": "view",
      "type": "function"
    },
    {
      "inputs": [
        {
          "internalType": "bytes32",
          "name": "role",
          "type": "bytes32"
        }
      ],
      "name": "onlyRoleCheck",
      "outputs": [
        {
          "internalType": "bool",
          "name": "",
          "type": "bool"
        }
      ],
      "stateMutability": "view",
      "type": "function"
    },
    {
      "inputs": [
        {
          "internalType": "uint256",
          "name": "courseId",
          "type": "uint256"
        },
        {
          "internalType": "string",
          "name": "feedback",
          "type": "string"
        }
      ],
      "name": "provideFeedback",
      "outputs": [],
      "stateMutability": "nonpayable",
      "type": "function"
    }
  ],
  "bytecode": "0x6080806040523461001b5760016000556131f590816100218239f35b600080fdfe6040608081526004908136101561001557600080fd5b60009160e0908335821c91826304e48bd11461136d57826307547ed5146112535782630b91e28d146111555782632ae8a7e3146101a057826339ba0eef14610f7e578263550e1da014610f1c5782635cc2a14d14610cab578263671a59f114610b995782637cbfc76214610b5d5782638a2492bb1461076c5782638f97353314610605575081639dad8d2214610263578163ad50aba0146101eb578163b0959e32146101a5578163b197f2eb146101a0578163c7954e4c14610162578163d1c3995714610136575063dc76fb66146100ec57600080fd5b3461013257600561012f9161012a60ff610105366118b5565b9490938488526000805160206131008339815191526020528720015460a01c16611b11565b612e72565b80f35b5080fd5b82843461015f57602036600319011261015f575061015660209235612dca565b90519015158152f35b80fd5b5050346101325781600319360112610132576020907f5d9ab6191fe9d5041816fb24ec4281e2d3989236339577e7fbbaf91315a1bb71549051908152f35b611754565b9050346101e75760203660031901126101e7578160209360ff923581526000805160206131a08339815191528552818120338252855220541690519015158152f35b8280fd5b9050346101e75760203660031901126101e7578161025f9361024c923580825260008051602061310083398151915260205261023260ff6005858520015460a01c16611b11565b8152600080516020613160833981519152602052206119f2565b9051918291602083526020830190611589565b0390f35b919050346101e7576020928360031936011261015f5782359061028e6102898333612fb8565b611c01565b8181526000805160206131008339815191529081865260ff9460058086842001549660ff60a09860a01c16156105ca57835b6000805160206131808339815191528054808310156105b557886102e38461195a565b5054146102f45750506001016102c0565b92919093949596979899600019938481019081116105a25761031861031f9161195a565b509261195a565b939093610590578284036104c0575b50505050815480156104ad5701916103458361195a565b91909161049b57926008928684848280999698818f9c9a5561036960018401612d81565b61037560028401612d81565b816003840155818884015582015561038f60068201612961565b8260078201550155555b8683526000805160206130e083398151915289528483209560ff19968781541690556000805160206131608339815191528a526103d7868520612d81565b878452895282858120918183556103f060018401612d81565b6103fc60028401612d81565b81600384015582015582600582015561041760068201612961565b826007820155015581518681019060008051602061312083398151915282528584820152838152610447816117fc565b51902081526000805160206131a083398151915286528181203382528652209081541690557f50d94198096be9c8aad282f822173f9212251c4d4dc2731fa944f3941749a78d838351338152a25160018152f35b634e487b7160e01b8652858552602486fd5b634e487b7160e01b865260318552602486fd5b61055e61057e92845486556104db6001808701908801612c3b565b6104eb6002808701908801612c3b565b61050a60038481880154169088019060ff801983541691151516179055565b89850154868b015588850180548a880180546001600160a01b039092166001600160a01b0319831681178255925460ff60a01b941c8616151560a01b939093166001600160a81b0319909116909117179055565b61056e6006808501908601612d18565b60079081840154169084016129b9565b6008809101549101553880808061032e565b634e487b7160e01b8952888852602489fd5b634e487b7160e01b895260118852602489fd5b50505050508495506008829195939495610399565b865162461bcd60e51b81528084018a90526015602482015274436f7572736520646f65736e27742065786973742160581b6044820152606490fd5b9150833461015f576020928360031936011261013257816101a08435928288519161062f836117e0565b8183528189840152818a8401528160608401528160808401528160a08401528160c0840152820152826101008201528261012082015282610140820152606061016082015282610180820152015280825260008051602061310083398151915284526106a660ff6005878520015460a01c16611b11565b8082527f5d9ab6191fe9d5041816fb24ec4281e2d3989236339577e7fbbaf91315a1bb82908185528583205415610729578252835283812090815492600019840193841161071657505061070061025f9261070692611cb8565b50611b55565b9251928284938452830190611695565b634e487b7160e01b825260119052602490fd5b855162461bcd60e51b8152808501869052601a60248201527f4e6f207265766965777320666f72207468697320636f757273650000000000006044820152606490fd5b92915034610b59576060366003190112610b59576001600160401b039381358581116101325761079f903690840161186e565b9060249586358181116101e7576107b9903690860161186e565b96604435946003861015610b59577f5d9ab6191fe9d5041816fb24ec4281e2d3989236339577e7fbbaf91315a1bb73928354968786526000805160206131008339815191529160209b838d5260ff60058c8a20015460a01c16610b1e578a51918d830190811183821017610b0c578b528782528a5193926108739290918a8f610841886117ae565b8d88528701528c8601528860608601528860808601523360a086015260019c8d60c08701528501526101008401611af1565b426101208301528786528a5261088b818987206129d1565b600080516020613180833981519152805490600160401b821015610afa578a820190556108b79061195a565b610ae957906108c5916129d1565b7f5d9ab6191fe9d5041816fb24ec4281e2d3989236339577e7fbbaf91315a1bb726108f08154612c2c565b90553384527f5d9ab6191fe9d5041816fb24ec4281e2d3989236339577e7fbbaf91315a1bb7f8952868420805490898201809211610ad7575586519189830160008051602061312083398151915293848252888a820152898152610953816117fc565b51902085526000805160206131a0833981519152808b528886203387528b528886209060ff19918b838254161790558487528b528886203387528b5289898720918254161790556109a48733612fb8565b15610a8b575050917fdb3fafffbb284e95f813ac0a83dbcafbbe522f0facb2ca6ed137fb6b807f314993917f1fc3c915a961e15ecb336b79577e7d9e3e6a15f024fc98418ce8875699a370266060610a7d958885526000805160206131408339815191528c52428a8620558951903382528c8201528a8a820152a1610a298154612c2c565b9055847f9c93a42b217373d37e6c66ace0a67fe1fa1f78c93164b62417de69c48c0f67e2898851808651610a608183868b01611566565b8101039020938951908152a3845191829186835286830190611589565b33888301520390a251908152f35b875162461bcd60e51b81529182018a90526021908201527f4661696c656420746f206772616e7420636f75727365206f776e657220726f6c6044820152606560f81b6064820152608490fd5b634e487b7160e01b8652601183528386fd5b634e487b7160e01b86528583528386fd5b634e487b7160e01b8752604184528487fd5b634e487b7160e01b8952604186528689fd5b50895162461bcd60e51b81528085018d905260158187015274436f7572736520616c72656164792065786973747360581b6044820152606490fd5b8380fd5b8382863461015f57602036600319011261015f5750610b7f61025f9135612876565b839291925193849315158452806020850152830190611589565b92915034610b595760031992606036850112610c9f57604435906001600160401b0394858311610ca7576101c0908336030112610ca357835193610bdc856117e0565b82840135855260248301356020860152604483013590850152606482013560608501526084820135608085015260a482013560a085015260c482013560c085015260e482013590840152610104810135610100840152610124810135610120840152610c4b61014482016118e7565b610140840152610164810135938411610c9f576101a4610c8f91610c7761012f9685369184010161186e565b610160860152610184810135610180860152016118e7565b6101a08301526024359035611cd4565b8480fd5b8580fd5b8680fd5b848285346101e757610cbc366118b5565b610cc96102898333612fb8565b81855260008051602061310083398151915293602095858752610cf760ff6005878420015460a01c16611b11565b838152858752600195868683200184516001600160401b038111610f0957918183610d2f8c95610d298d9896546119b8565b84611c73565b84601f8211600114610e805791610d8782610dbb9997959387957f5c8c98b6b26236296c856fae8a5ca0c793bbb81c5f8b7c9a9ab99358f53fb0c09c9a9891610e75575b508160011b916000199060031b1c19161790565b90555b8882528252888120936003850180549160ff8316610dc4575b50505050505050845191829188835288830190611589565b0390a251908152f35b64657669657760d81b96849260ff19809516905501556000805160206130e083398151915283528982209081541690556000805160206131608339815191528252888120610e1281546119b8565b601f8111610e54575b50604b81558152207f436f757273652065646974656420616e64207265717569726573206e657720728155015587868882808080610da3565b818352838320610e6f91601f0160051c810190600201611c5c565b8c610e1b565b905089015138610d73565b82855285852090601f198316865b818110610ef2575092889694927f5c8c98b6b26236296c856fae8a5ca0c793bbb81c5f8b7c9a9ab99358f53fb0c09b999282610dbb9c9a989610610ed9575b5050811b019055610d8a565b8a015160001960f88460031b161c191690558f80610ecd565b8b83015184558e9990930192918801918801610e8e565b634e487b7160e01b845260418552602484fd5b505050346101325760203660031901126101325760ff81602093610f3e611739565b60008051602061312083398151915282526000805160206131a083398151915286528282206001600160a01b039091168252855220549151911615158152f35b509050346101e75760209081600319360112610b59578035928385526000805160206131008339815191528352610fc060ff6005838820015460a01c16611b11565b83855260008051602061314083398151915283528085205461025881018091116111425742106110eb578385527f5d9ab6191fe9d5041816fb24ec4281e2d3989236339577e7fbbaf91315a1bb779182845260ff82872054166110aa5750907fccb5986e60175020b7dcbdfe029250ee0e1a191f5854986704a909ed2c722c68929161104b85612876565b928688526000805160206130e0833981519152855261107882848a209060ff801983541691151516179055565b8452818720805460ff1916600117905515918261109a575b505190158152a280f35b6110a49086612e72565b38611090565b83606492519162461bcd60e51b8352820152601b60248201527f456c69676962696c69747920616c726561647920636865636b656400000000006044820152fd5b91608492519162461bcd60e51b8352820152602d60248201527f456c69676962696c69747920636865636b206f6e6c7920617661696c61626c6560448201526c1030b33a32b91018903437bab960991b6064820152fd5b634e487b7160e01b865260118352602486fd5b838591346101e7576020928360031936011261015f57829161025f93600892873561117e61190b565b50808252600080516020613100833981519152908189526111aa60ff6005868620015460a01c16611b11565b8252875220908351966111bc886117ae565b825488526111cc600184016119f2565b878901526111dc600284016119f2565b8589015260ff60038401541615156060890152820154608088015260ff600583015460018060a01b03811660a08a015260a01c16151560c088015261122360068301611a97565b9087015261123c60ff6007830154166101008801611af1565b0154610120850152519282849384528301906115ae565b8385833461013257602090816003193601126101e75791909135808252600080516020613100833981519152835261129660ff6005868520015460a01c16611b11565b81527f5d9ab6191fe9d5041816fb24ec4281e2d3989236339577e7fbbaf91315a1bb8282528281209081546112ca816118f4565b906112d786519283611832565b8082528482018094845285842084915b83831061134857505050508451938085019181865251809252858501958260051b8601019392955b82871061131c5785850386f35b909192938280611338600193603f198a82030186528851611695565b960192019601959291909261130f565b600e8860019261135b859b98999b611b55565b815201920192019190969493966112e7565b915091923461015f578060031936011261015f576000805160206131808339815191525461139a816118f4565b926113a786519485611832565b8184526113b3826118f4565b60209590601f190186855b82811061155057505050835b83811061142e575050505083519280840190808552835180925280868601968360051b870101940192955b8287106114025785850386f35b90919293828061141e600193603f198a820301865288516115ae565b96019201960195929190926113f5565b6114378161195a565b50546114428261195a565b50828961144e8261195a565b508c6114598461195a565b509160ff600381940154168961146e8761195a565b50015461147a8761195a565b506005908101546001600160a01b031692906114958961195a565b5001549460a0946114a58a61195a565b5098886114b18c61195a565b5060070154169a6114c19061195a565b50600801549b83519d8e6114d4816117ae565b526001016114e1906119f2565b908d01526002016114f1906119f2565b908b0152151560608a01526080890152818801521c16151560c085015260060161151a90611a97565b8387015261152c906101008401611af1565b61012082015261153c8288611afd565b526115478187611afd565b506001016113ca565b61155861190b565b82828a0101520187906113be565b60005b8381106115795750506000910152565b8181015183820152602001611569565b906020916115a281518092818552858086019101611566565b601f01601f1916010190565b9061014091805182526115e46115d260209485840151908087870152850190611589565b60408301518482036040860152611589565b6060820151151560608401526080820151608084015260a08201519060018060a01b0380921660a085015260c0830151151560c085015260e08301519484820360e08601528080875193848152019601926000905b83821061167c57505050505061010080820151906003821015611666578301526101208091015191015290565b634e487b7160e01b600052602160045260246000fd5b8451811688529682019693820193600190910190611639565b9061171e6101c0835183526020840151602084015260408401516040840152606084015160608401526080840151608084015260a084015160a084015260c084015160c084015260e084015160e0840152610100808501519084015261012080850151908401526101408085015115159084015261016090808286015192850152830190611589565b9161018080820151908301526101a080910151151591015290565b600435906001600160a01b038216820361174f57565b600080fd5b3461174f57604036600319011261174f5761176d611739565b6024356000526000805160206131a083398151915260205260406000209060018060a01b0316600052602052602060ff604060002054166040519015158152f35b61014081019081106001600160401b038211176117ca57604052565b634e487b7160e01b600052604160045260246000fd5b6101c081019081106001600160401b038211176117ca57604052565b606081019081106001600160401b038211176117ca57604052565b604081019081106001600160401b038211176117ca57604052565b90601f801991011681019081106001600160401b038211176117ca57604052565b6001600160401b0381116117ca57601f01601f191660200190565b81601f8201121561174f5780359061188582611853565b926118936040519485611832565b8284526020838301011161174f57816000926020809301838601378301015290565b90604060031983011261174f5760043591602435906001600160401b03821161174f576118e49160040161186e565b90565b3590811515820361174f57565b6001600160401b0381116117ca5760051b60200190565b60405190611918826117ae565b8161012060009182815260606020820152606060408201528260608201528260808201528260a08201528260c0820152606060e0820152826101008201520152565b6000805160206131808339815191529081548110156119a257600991600052027f5be94ca231000b7ffb5c6e5accb264b3927e039a0afbf587fcf68ac19ec7b05d0190600090565b634e487b7160e01b600052603260045260246000fd5b90600182811c921680156119e8575b60208310146119d257565b634e487b7160e01b600052602260045260246000fd5b91607f16916119c7565b90604051918260008254611a05816119b8565b90818452602094600191600181169081600014611a755750600114611a36575b505050611a3492500383611832565b565b600090815285812095935091905b818310611a5d575050611a349350820101388080611a25565b85548884018501529485019487945091830191611a44565b92505050611a3494925060ff191682840152151560051b820101388080611a25565b90604051918281549182825260209260208301916000526020600020936000905b828210611ace57505050611a3492500383611832565b85546001600160a01b031684526001958601958895509381019390910190611ab8565b60038210156116665752565b80518210156119a25760209160051b010190565b15611b1857565b60405162461bcd60e51b815260206004820152601560248201527410dbdd5c9cd948191bd95cc81b9bdd08195e1a5cdd605a1b6044820152606490fd5b90604051611b62816117e0565b6101a060ff600d83958054855260018101546020860152600281015460408601526003810154606086015260048101546080860152600581015460a0860152600681015460c0860152600781015460e08601526008810154610100860152600981015461012086015282600a820154161515610140860152611be6600b82016119f2565b610160860152600c8101546101808601520154161515910152565b15611c0857565b60405162461bcd60e51b815260206004820152602660248201527f43616c6c6572206973206e6f7420746865206f776e6572206f66207468697320604482015265636f7572736560d01b6064820152608490fd5b818110611c67575050565b60008155600101611c5c565b9190601f8111611c8257505050565b611a34926000526020600020906020601f840160051c83019310611cae575b601f0160051c0190611c5c565b9091508190611ca1565b80548210156119a257600052600e602060002091020190600090565b909181600052600080516020613100833981519152602052611d0360ff60056040600020015460a01c16611b11565b8160005260008051602061310083398151915260205260ff6003604060002001541661283157816000527f5d9ab6191fe9d5041816fb24ec4281e2d3989236339577e7fbbaf91315a1bb778060205260ff6040600020541615806127ee575b6126f0575b8260005260205260ff60406000205416156126a057816000526000805160206130e083398151915260205260ff604060002054161561264d57816000527f5d9ab6191fe9d5041816fb24ec4281e2d3989236339577e7fbbaf91315a1bb8260205260406000208054600160401b8110156117ca57611dea91600182018155611cb8565b61263757815181556020820151600182015560408201516002820155606082015160038201556080820151600482015560a0820151600582015560c0820151600682015560e0820151600782015561010082015160088201556101208201516009820155611e6e6101408301511515600a83019060ff801983541691151516179055565b6101608201518051906001600160401b0382116117ca57611e9f82611e96600b8601546119b8565b600b8601611c73565b602090601f83116001146125c3579180611ed59261138895946000926125b8575b50508160011b916000199060031b1c19161790565b600b8201555b611f086101808401519182600c820155600d6101a0860151151591019060ff801983541691151516179055565b106120b3575080600052600080516020613100833981519152602052604060002091806004600385019460ff1995600187825416179055015560005b600080516020613180833981519152548110156120aa5782611f658261195a565b505414611f7457600101611f44565b80600492939460016003611f8a611f989561195a565b50019182541617905561195a565b5001555b80600052600080516020613100833981519152602052612026602060018060a01b036005604060002001541660405190611fd582611817565b601682527510dbdd5c9cd94818dc99585d1a5bdb881c995dd85c9960521b83830152604051938492839263112232f560e31b8452600484015260016024840152606060448401526064830190611589565b03816000305af1801561209e57612066575b507f4a595d8b22f642a2c59fa39a2098244b31745d3a57615834b2b31739d7e67bba602060405160018152a2565b6020813d602011612096575b8161207f60209383611832565b8101031261174f57518015150361174f5738612038565b3d9150612072565b6040513d6000823e3d90fd5b50509050611f9c565b9091604051916120c2836117fc565b603183527f436f75727365206e6565647320696d70726f76656d656e7420696e207468652060208401527003337b63637bbb4b7339030b932b0b99d1607d1b604084015282604682511061254f575b509161223b9183604660207f3a9e47b985ba7ba4d4efeda2b1aa3beb262ac19ca4fa9219394d5574cfd424be960151106124ff575b60466040820151106124a5575b6046606082015110612453575b6046608082015110612403575b604660a0820151106123b2575b604660c082015110612358575b604660e08201511061230a575b6046610100820151106122a7575b610120604691015110612240575b602e6121be61221d9261301c565b9260405193816121d8869351809260208087019101611566565b82016c02334b730b61039b1b7b9329d1609d1b6020820152612204825180936020602d85019101611566565b01602560f81b602d82015203600e810184520182611832565b6122278185612e72565b604051918291602083526020830190611589565b0390a2565b90602e6121be61221d9261229d603b60405183612267829551809260208086019101611566565b81017f456e676167656d656e7420616e64204d6f7469766174696f6e2c200000000000602082015203601b810184520182611832565b93925050506121b0565b916101206046916123016039604051836122cb829551809260208086019101611566565b81017f4173736573736d656e7420666f72204c6561726e696e672c20000000000000006020820152036019810184520182611832565b939150506121a2565b91612352603160405183612328829551809260208086019101611566565b81017002632b0b93732b91029bab83837b93a161607d1b6020820152036011810184520182611832565b91612194565b916123ac603860405183612376829551809260208086019101611566565b81017f546563686e6f6c6f677920496e746567726174696f6e2c2000000000000000006020820152036018810184520182611832565b91612187565b916123fd6034604051836123d0829551809260208086019101611566565b810173020baba3432b73a34b1902632b0b93734b73396160651b6020820152036014810184520182611832565b9161217a565b9161244d603360405183612421829551809260208086019101611566565b810172020b230b83a34bb32902632b0b93734b733961606d1b6020820152036013810184520182611832565b9161216d565b9161249f603560405183612471829551809260208086019101611566565b81017402932b33632b1ba34bb3290283930b1ba34b1b2961605d1b6020820152036015810184520182611832565b91612160565b916124f96038604051836124c3829551809260208086019101611566565b81017f436f6c6c61626f726174697665204c6561726e696e672c2000000000000000006020820152036018810184520182611832565b91612153565b9161254960336040518361251d829551809260208086019101611566565b810172021b934ba34b1b0b6102a3434b735b4b733961606d1b6020820152036013810184520182611832565b91612146565b604051935060005b603181106125a35750506f02632b0b93732b91020b3b2b731bc96160851b60518401526041835260808301918383106001600160401b038411176117ca5760409290925261223b612111565b80602080928401015182828801015201612557565b015190503880611ec0565b90600b840160005260206000209160005b601f198516811061261f57509183916001936113889695601f19811610612606575b505050811b01600b820155611edb565b015160001960f88460031b161c191690553880806125f6565b919260206001819286850151815501940192016125d4565b634e487b7160e01b600052600060045260246000fd5b60405162461bcd60e51b815260206004820152602560248201527f436f7572736520646964206e6f74207061737320656c69676962696c69747920604482015264636865636b60d81b6064820152608490fd5b60405162461bcd60e51b815260206004820152602260248201527f436f7572736520656c69676962696c697479206e6f7420636865636b65642079604482015261195d60f21b6064820152608490fd5b6126f983612876565b90846000526000805160206130e083398151915260205261272a8160406000209060ff801983541691151516179055565b826020526040600020600160ff19825416179055159081159161277957507fccb5986e60175020b7dcbdfe029250ee0e1a191f5854986704a909ed2c722c6860208592604051908152a2611d67565b915083945061223b9250927fccb5986e60175020b7dcbdfe029250ee0e1a191f5854986704a909ed2c722c6860207f3a9e47b985ba7ba4d4efeda2b1aa3beb262ac19ca4fa9219394d5574cfd424be956127d38585612e72565b604051908152a2604051918291602083526020830190611589565b50600080516020613140833981519152602052604060002054610258810180911161281b57421015611d62565b634e487b7160e01b600052601160045260246000fd5b60405162461bcd60e51b815260206004820152601760248201527f436f7572736520616c726561647920617070726f7665640000000000000000006044820152606490fd5b90816000526000805160206131008339815191526020526040916128a660ff600585600020015460a01c16611b11565b6000527f5d9ab6191fe9d5041816fb24ec4281e2d3989236339577e7fbbaf91315a1bb7a602052600182600020541061291d57600191606160f81b8151916128ed836117fc565b602183527f436f75727365206d6565747320656c69676962696c6974792063726974657269602084015282015290565b603960f91b82519261292e846117fc565b602184527f436f75727365206e65656473206174206c65617374206f6e6520636861707465602085015283015260009190565b80546000825580612970575050565b611a3491600052602060002090810190611c5c565b90600160401b81116117ca578154908083558181106129a357505050565b611a349260005260206000209182019101611c5c565b9060038110156116665760ff80198354169116179055565b908051825560018083016020808401519182516001600160401b03938482116117ca57612a0882612a0285546119b8565b85611c73565b8390601f8311600114612bca57612a379291600091836125b85750508160011b916000199060031b1c19161790565b90555b6002850160408501518051908482116117ca57612a5b82612a0285546119b8565b8390601f8311600114612b6857612a8a9291600091836125b85750508160011b916000199060031b1c19161790565b90555b612aac60608501511515600387019060ff801983541691151516179055565b6080840151600486015560a08085015160058701805460c08801516001600160a81b03199091166001600160a01b039384161790151590931b60ff60a01b1692909217909155600686019160e086015180519485116117ca578190612b118686612985565b0192600052806000209160005b858110612b555750505050505050610100810151600381101561166657600891612b4e61012092600786016129b9565b0151910155565b8451821684820155938201938601612b1e565b869291601f1983169185600052866000209260005b88828210612bb45750508411612b9b575b505050811b019055612a8d565b015160001960f88460031b161c19169055388080612b8e565b8385015186558b97909501949384019301612b7d565b869291601f1983169185600052866000209260005b88828210612c165750508411612bfd575b505050811b019055612a3a565b015160001960f88460031b161c19169055388080612bf0565b8385015186558b97909501949384019301612bdf565b600019811461281b5760010190565b90808214612d1457612c4d81546119b8565b906001600160401b0382116117ca57612c6a82612a0285546119b8565b600090601f8311600114612ca957612c9a929160009183612c9e5750508160011b916000199060031b1c19161790565b9055565b015490503880611ec0565b815260208082208483528183209291601f1985169083905b828210612cfb575050908460019594939210612ce2575b505050811b019055565b015460001960f88460031b161c19169055388080612cd8565b8495819295850154815560018091019601940190612cc1565b5050565b818114612d14578154916001600160401b0383116117ca57612d3a8383612985565b60005260206000209060005260206000208154916000925b848410612d60575050505050565b600191820180546001600160a01b0390921684860155939091019290612d52565b612d8b81546119b8565b9081612d95575050565b81601f60009311600114612da7575055565b908083918252612dc6601f60208420940160051c840160018501611c5c565b5555565b600081815260008051602061310083398151915260205260ff600560408320015460a01c1615612e6d5760008051602061314083398151915260205260408120546102588101809111612e59574210159182612e2557505090565b81527f5d9ab6191fe9d5041816fb24ec4281e2d3989236339577e7fbbaf91315a1bb77602052604090205460ff1615919050565b634e487b7160e01b82526011600452602482fd5b905090565b919091600092818452602060008051602061316083398151915281526040852082516001600160401b038111612fa457612eb081610d2984546119b8565b8296601f8211600114612f225790807f8dd7b461840a47803ee3902a10556a81b94c59c30438b815a9fa279cf1991758969798612f009391612f1757508160011b916000199060031b1c19161790565b90555b61223b604051928284938452830190611589565b905085015138610d73565b96601f198216838952848920985b818110612f8d57509782916001937f8dd7b461840a47803ee3902a10556a81b94c59c30438b815a9fa279cf199175898999a10612f74575b5050811b019055612f03565b86015160001960f88460031b161c191690553880612f68565b868301518a55600190990198918501918501612f30565b634e487b7160e01b87526041600452602487fd5b9060405160208101916000805160206131208339815191528352604082015260408152612fe4816117fc565b5190206000526000805160206131a083398151915260205260406000209060018060a01b031660005260205260ff6040600020541690565b80156130c157600081805b6130ad575061303581611853565b906130436040519283611832565b808252601f1961305282611853565b01366020840137915b829080156130a657600a91603094838306860180961161281b57801561281b57600019019484518610156119a25760f81b6001600160f81b03191660001a908401601f01530461305b565b5050905090565b906130b9600a91612c2c565b910480613027565b506040516130ce81611817565b60018152600360fc1b60208201529056fe5d9ab6191fe9d5041816fb24ec4281e2d3989236339577e7fbbaf91315a1bb785d9ab6191fe9d5041816fb24ec4281e2d3989236339577e7fbbaf91315a1bb7dadb22091b155738d2e889eb96f509d2a7c93234236b30400927feb4a6a15ab005d9ab6191fe9d5041816fb24ec4281e2d3989236339577e7fbbaf91315a1bb765d9ab6191fe9d5041816fb24ec4281e2d3989236339577e7fbbaf91315a1bb795d9ab6191fe9d5041816fb24ec4281e2d3989236339577e7fbbaf91315a1bb86c8fcad8db84d3cc18b4c41d551ea0ee66dd599cde068d998e57d5e09332c1328a2646970667358221220ebcfad2357acaf9402e9e26c9cfe0a9e2529c52e95b3ead36e51a1cc845aeb6364736f6c63430008180033",
  "linkReferences": {},
  "deployedLinkReferences": {}
}