{
  "_format": "hh-sol-artifact-1",
  "contractName": "Ecosystem1Facet",
  "sourceName": "contracts/Ecosystem1Facet.sol",
  "abi": [
    {
      "inputs": [],
      "name": "ReentrancyGuardReentrantCall",
      "type": "error"
    },
    {
      "anonymous": false,
      "inputs": [
        {
          "indexed": true,
          "internalType": "uint256",
          "name": "courseId",
          "type": "uint256"
        },
        {
          "indexed": false,
          "internalType": "bool",
          "name": "approved",
          "type": "bool"
        }
      ],
      "name": "CourseApproved",
      "type": "event"
    },
    {
      "anonymous": false,
      "inputs": [
        {
          "indexed": true,
          "internalType": "uint256",
          "name": "courseId",
          "type": "uint256"
        },
        {
          "indexed": false,
          "internalType": "string",
          "name": "courseName",
          "type": "string"
        },
        {
          "indexed": false,
          "internalType": "address",
          "name": "creator",
          "type": "address"
        }
      ],
      "name": "CourseCreated",
      "type": "event"
    },
    {
      "anonymous": false,
      "inputs": [
        {
          "indexed": true,
          "internalType": "uint256",
          "name": "_courseID",
          "type": "uint256"
        },
        {
          "indexed": true,
          "internalType": "string",
          "name": "_courseName",
          "type": "string"
        },
        {
          "indexed": false,
          "internalType": "bool",
          "name": "_approved",
          "type": "bool"
        }
      ],
      "name": "CourseCreationSuccess",
      "type": "event"
    },
    {
      "anonymous": false,
      "inputs": [
        {
          "indexed": true,
          "internalType": "uint256",
          "name": "_courseId",
          "type": "uint256"
        },
        {
          "indexed": false,
          "internalType": "address",
          "name": "owner",
          "type": "address"
        }
      ],
      "name": "CourseDeleteSuccess",
      "type": "event"
    },
    {
      "anonymous": false,
      "inputs": [
        {
          "indexed": true,
          "internalType": "uint256",
          "name": "_courseId",
          "type": "uint256"
        },
        {
          "indexed": false,
          "internalType": "string",
          "name": "_courseName",
          "type": "string"
        }
      ],
      "name": "CourseEdited",
      "type": "event"
    },
    {
      "anonymous": false,
      "inputs": [
        {
          "indexed": true,
          "internalType": "uint256",
          "name": "courseId",
          "type": "uint256"
        },
        {
          "indexed": false,
          "internalType": "bool",
          "name": "eligible",
          "type": "bool"
        }
      ],
      "name": "CourseEligibilityChecked",
      "type": "event"
    },
    {
      "anonymous": false,
      "inputs": [
        {
          "indexed": true,
          "internalType": "uint256",
          "name": "courseId",
          "type": "uint256"
        },
        {
          "indexed": false,
          "internalType": "string",
          "name": "feedback",
          "type": "string"
        }
      ],
      "name": "CourseFeedbackAdded",
      "type": "event"
    },
    {
      "anonymous": false,
      "inputs": [
        {
          "indexed": true,
          "internalType": "uint256",
          "name": "courseId",
          "type": "uint256"
        },
        {
          "indexed": false,
          "internalType": "string",
          "name": "reason",
          "type": "string"
        }
      ],
      "name": "CourseRejected",
      "type": "event"
    },
    {
      "anonymous": false,
      "inputs": [
        {
          "indexed": false,
          "internalType": "string",
          "name": "message",
          "type": "string"
        },
        {
          "indexed": false,
          "internalType": "uint256",
          "name": "courseId",
          "type": "uint256"
        },
        {
          "indexed": false,
          "internalType": "uint256",
          "name": "value",
          "type": "uint256"
        }
      ],
      "name": "DebugLog",
      "type": "event"
    },
    {
      "anonymous": false,
      "inputs": [
        {
          "indexed": false,
          "internalType": "address",
          "name": "account",
          "type": "address"
        },
        {
          "indexed": false,
          "internalType": "bytes32",
          "name": "role",
          "type": "bytes32"
        },
        {
          "indexed": false,
          "internalType": "bool",
          "name": "hasRole",
          "type": "bool"
        }
      ],
      "name": "DebugRoleCheck",
      "type": "event"
    },
    {
      "anonymous": false,
      "inputs": [
        {
          "indexed": false,
          "internalType": "address",
          "name": "account",
          "type": "address"
        },
        {
          "indexed": false,
          "internalType": "bytes32",
          "name": "role",
          "type": "bytes32"
        },
        {
          "indexed": false,
          "internalType": "bool",
          "name": "roleValue",
          "type": "bool"
        }
      ],
      "name": "DebugStorageAccess",
      "type": "event"
    },
    {
      "anonymous": false,
      "inputs": [
        {
          "indexed": true,
          "internalType": "address",
          "name": "_to",
          "type": "address"
        },
        {
          "indexed": true,
          "internalType": "uint256",
          "name": "_amount",
          "type": "uint256"
        }
      ],
      "name": "EcosystemPoolUpdate",
      "type": "event"
    },
    {
      "inputs": [
        {
          "internalType": "uint256",
          "name": "_courseId",
          "type": "uint256"
        },
        {
          "internalType": "uint256",
          "name": "score",
          "type": "uint256"
        },
        {
          "components": [
            {
              "internalType": "uint256",
              "name": "learnerAgency",
              "type": "uint256"
            },
            {
              "internalType": "uint256",
              "name": "criticalThinking",
              "type": "uint256"
            },
            {
              "internalType": "uint256",
              "name": "collaborativeLearning",
              "type": "uint256"
            },
            {
              "internalType": "uint256",
              "name": "reflectivePractice",
              "type": "uint256"
            },
            {
              "internalType": "uint256",
              "name": "adaptiveLearning",
              "type": "uint256"
            },
            {
              "internalType": "uint256",
              "name": "authenticLearning",
              "type": "uint256"
            },
            {
              "internalType": "uint256",
              "name": "technologyIntegration",
              "type": "uint256"
            },
            {
              "internalType": "uint256",
              "name": "learnerSupport",
              "type": "uint256"
            },
            {
              "internalType": "uint256",
              "name": "assessmentForLearning",
              "type": "uint256"
            },
            {
              "internalType": "uint256",
              "name": "engagementAndMotivation",
              "type": "uint256"
            },
            {
              "internalType": "bool",
              "name": "isSubmitted",
              "type": "bool"
            },
            {
              "internalType": "string",
              "name": "category",
              "type": "string"
            },
            {
              "internalType": "uint256",
              "name": "score",
              "type": "uint256"
            },
            {
              "internalType": "bool",
              "name": "passed",
              "type": "bool"
            }
          ],
          "internalType": "struct LibDiamond.Review",
          "name": "review",
          "type": "tuple"
        }
      ],
      "name": "approveCourse",
      "outputs": [],
      "stateMutability": "nonpayable",
      "type": "function"
    },
    {
      "inputs": [
        {
          "internalType": "uint256",
          "name": "courseId",
          "type": "uint256"
        }
      ],
      "name": "checkCourseEligibility",
      "outputs": [
        {
          "internalType": "bool",
          "name": "",
          "type": "bool"
        },
        {
          "internalType": "string",
          "name": "",
          "type": "string"
        }
      ],
      "stateMutability": "view",
      "type": "function"
    },
    {
      "inputs": [
        {
          "internalType": "uint256",
          "name": "courseId",
          "type": "uint256"
        }
      ],
      "name": "checkCourseEligibilityAfterDelay",
      "outputs": [],
      "stateMutability": "nonpayable",
      "type": "function"
    },
    {
      "inputs": [
        {
          "internalType": "address",
          "name": "account",
          "type": "address"
        },
        {
          "internalType": "bytes32",
          "name": "role",
          "type": "bytes32"
        }
      ],
      "name": "checkRole",
      "outputs": [
        {
          "internalType": "bool",
          "name": "",
          "type": "bool"
        }
      ],
      "stateMutability": "view",
      "type": "function"
    },
    {
      "inputs": [
        {
          "internalType": "string",
          "name": "_courseName",
          "type": "string"
        },
        {
          "internalType": "string",
          "name": "_description",
          "type": "string"
        },
        {
          "internalType": "enum LibDiamond.DifficultyLevel",
          "name": "_difficultyLevel",
          "type": "uint8"
        },
        {
          "internalType": "uint256",
          "name": "_priceUSDC",
          "type": "uint256"
        },
        {
          "internalType": "string",
          "name": "_imageURL",
          "type": "string"
        }
      ],
      "name": "createCourse",
      "outputs": [
        {
          "internalType": "bool",
          "name": "",
          "type": "bool"
        }
      ],
      "stateMutability": "nonpayable",
      "type": "function"
    },
    {
      "inputs": [
        {
          "internalType": "uint256",
          "name": "_courseId",
          "type": "uint256"
        }
      ],
      "name": "deleteCourse",
      "outputs": [
        {
          "internalType": "bool",
          "name": "",
          "type": "bool"
        }
      ],
      "stateMutability": "nonpayable",
      "type": "function"
    },
    {
      "inputs": [
        {
          "internalType": "uint256",
          "name": "_courseId",
          "type": "uint256"
        },
        {
          "internalType": "string",
          "name": "_courseName",
          "type": "string"
        }
      ],
      "name": "editCourse",
      "outputs": [
        {
          "internalType": "bool",
          "name": "",
          "type": "bool"
        }
      ],
      "stateMutability": "nonpayable",
      "type": "function"
    },
    {
      "inputs": [
        {
          "internalType": "uint256",
          "name": "courseId",
          "type": "uint256"
        }
      ],
      "name": "getAllCourseReviews",
      "outputs": [
        {
          "components": [
            {
              "internalType": "uint256",
              "name": "learnerAgency",
              "type": "uint256"
            },
            {
              "internalType": "uint256",
              "name": "criticalThinking",
              "type": "uint256"
            },
            {
              "internalType": "uint256",
              "name": "collaborativeLearning",
              "type": "uint256"
            },
            {
              "internalType": "uint256",
              "name": "reflectivePractice",
              "type": "uint256"
            },
            {
              "internalType": "uint256",
              "name": "adaptiveLearning",
              "type": "uint256"
            },
            {
              "internalType": "uint256",
              "name": "authenticLearning",
              "type": "uint256"
            },
            {
              "internalType": "uint256",
              "name": "technologyIntegration",
              "type": "uint256"
            },
            {
              "internalType": "uint256",
              "name": "learnerSupport",
              "type": "uint256"
            },
            {
              "internalType": "uint256",
              "name": "assessmentForLearning",
              "type": "uint256"
            },
            {
              "internalType": "uint256",
              "name": "engagementAndMotivation",
              "type": "uint256"
            },
            {
              "internalType": "bool",
              "name": "isSubmitted",
              "type": "bool"
            },
            {
              "internalType": "string",
              "name": "category",
              "type": "string"
            },
            {
              "internalType": "uint256",
              "name": "score",
              "type": "uint256"
            },
            {
              "internalType": "bool",
              "name": "passed",
              "type": "bool"
            }
          ],
          "internalType": "struct LibDiamond.Review[]",
          "name": "",
          "type": "tuple[]"
        }
      ],
      "stateMutability": "view",
      "type": "function"
    },
    {
      "inputs": [],
      "name": "getAllCourses",
      "outputs": [
        {
          "components": [
            {
              "internalType": "uint256",
              "name": "courseId",
              "type": "uint256"
            },
            {
              "internalType": "string",
              "name": "courseName",
              "type": "string"
            },
            {
              "internalType": "string",
              "name": "description",
              "type": "string"
            },
            {
              "internalType": "bool",
              "name": "approved",
              "type": "bool"
            },
            {
              "internalType": "uint256",
              "name": "score",
              "type": "uint256"
            },
            {
              "internalType": "address",
              "name": "creator",
              "type": "address"
            },
            {
              "internalType": "bool",
              "name": "exists",
              "type": "bool"
            },
            {
              "internalType": "address[]",
              "name": "enrolledStudents",
              "type": "address[]"
            },
            {
              "internalType": "enum LibDiamond.DifficultyLevel",
              "name": "difficultyLevel",
              "type": "uint8"
            },
            {
              "internalType": "uint256",
              "name": "creationTime",
              "type": "uint256"
            },
            {
              "internalType": "uint256",
              "name": "priceUSDC",
              "type": "uint256"
            },
            {
              "internalType": "string",
              "name": "imageURL",
              "type": "string"
            }
          ],
          "internalType": "struct LibDiamond.Course[]",
          "name": "",
          "type": "tuple[]"
        }
      ],
      "stateMutability": "view",
      "type": "function"
    },
    {
      "inputs": [
        {
          "internalType": "uint256",
          "name": "courseId",
          "type": "uint256"
        }
      ],
      "name": "getCourse",
      "outputs": [
        {
          "components": [
            {
              "internalType": "uint256",
              "name": "courseId",
              "type": "uint256"
            },
            {
              "internalType": "string",
              "name": "courseName",
              "type": "string"
            },
            {
              "internalType": "string",
              "name": "description",
              "type": "string"
            },
            {
              "internalType": "bool",
              "name": "approved",
              "type": "bool"
            },
            {
              "internalType": "uint256",
              "name": "score",
              "type": "uint256"
            },
            {
              "internalType": "address",
              "name": "creator",
              "type": "address"
            },
            {
              "internalType": "bool",
              "name": "exists",
              "type": "bool"
            },
            {
              "internalType": "address[]",
              "name": "enrolledStudents",
              "type": "address[]"
            },
            {
              "internalType": "enum LibDiamond.DifficultyLevel",
              "name": "difficultyLevel",
              "type": "uint8"
            },
            {
              "internalType": "uint256",
              "name": "creationTime",
              "type": "uint256"
            },
            {
              "internalType": "uint256",
              "name": "priceUSDC",
              "type": "uint256"
            },
            {
              "internalType": "string",
              "name": "imageURL",
              "type": "string"
            }
          ],
          "internalType": "struct LibDiamond.Course",
          "name": "",
          "type": "tuple"
        }
      ],
      "stateMutability": "view",
      "type": "function"
    },
    {
      "inputs": [
        {
          "internalType": "uint256",
          "name": "courseId",
          "type": "uint256"
        }
      ],
      "name": "getCourseFeedback",
      "outputs": [
        {
          "internalType": "string",
          "name": "",
          "type": "string"
        }
      ],
      "stateMutability": "view",
      "type": "function"
    },
    {
      "inputs": [],
      "name": "getCurrentEcosystemPoolSupply",
      "outputs": [
        {
          "internalType": "uint256",
          "name": "",
          "type": "uint256"
        }
      ],
      "stateMutability": "view",
      "type": "function"
    },
    {
      "inputs": [
        {
          "internalType": "uint256",
          "name": "courseId",
          "type": "uint256"
        }
      ],
      "name": "getLatestCourseReview",
      "outputs": [
        {
          "components": [
            {
              "internalType": "uint256",
              "name": "learnerAgency",
              "type": "uint256"
            },
            {
              "internalType": "uint256",
              "name": "criticalThinking",
              "type": "uint256"
            },
            {
              "internalType": "uint256",
              "name": "collaborativeLearning",
              "type": "uint256"
            },
            {
              "internalType": "uint256",
              "name": "reflectivePractice",
              "type": "uint256"
            },
            {
              "internalType": "uint256",
              "name": "adaptiveLearning",
              "type": "uint256"
            },
            {
              "internalType": "uint256",
              "name": "authenticLearning",
              "type": "uint256"
            },
            {
              "internalType": "uint256",
              "name": "technologyIntegration",
              "type": "uint256"
            },
            {
              "internalType": "uint256",
              "name": "learnerSupport",
              "type": "uint256"
            },
            {
              "internalType": "uint256",
              "name": "assessmentForLearning",
              "type": "uint256"
            },
            {
              "internalType": "uint256",
              "name": "engagementAndMotivation",
              "type": "uint256"
            },
            {
              "internalType": "bool",
              "name": "isSubmitted",
              "type": "bool"
            },
            {
              "internalType": "string",
              "name": "category",
              "type": "string"
            },
            {
              "internalType": "uint256",
              "name": "score",
              "type": "uint256"
            },
            {
              "internalType": "bool",
              "name": "passed",
              "type": "bool"
            }
          ],
          "internalType": "struct LibDiamond.Review",
          "name": "",
          "type": "tuple"
        }
      ],
      "stateMutability": "view",
      "type": "function"
    },
    {
      "inputs": [
        {
          "internalType": "address",
          "name": "account",
          "type": "address"
        },
        {
          "internalType": "bytes32",
          "name": "role",
          "type": "bytes32"
        }
      ],
      "name": "getRoleStatus",
      "outputs": [
        {
          "internalType": "bool",
          "name": "",
          "type": "bool"
        }
      ],
      "stateMutability": "view",
      "type": "function"
    },
    {
      "inputs": [
        {
          "internalType": "address",
          "name": "account",
          "type": "address"
        }
      ],
      "name": "hasCourseOwnerRole",
      "outputs": [
        {
          "internalType": "bool",
          "name": "",
          "type": "bool"
        }
      ],
      "stateMutability": "view",
      "type": "function"
    },
    {
      "inputs": [
        {
          "internalType": "uint256",
          "name": "courseId",
          "type": "uint256"
        }
      ],
      "name": "isCourseReadyForEligibilityCheck",
      "outputs": [
        {
          "internalType": "bool",
          "name": "",
          "type": "bool"
        }
      ],
      "stateMutability": "view",
      "type": "function"
    },
    {
      "inputs": [
        {
          "internalType": "bytes32",
          "name": "role",
          "type": "bytes32"
        }
      ],
      "name": "onlyRoleCheck",
      "outputs": [
        {
          "internalType": "bool",
          "name": "",
          "type": "bool"
        }
      ],
      "stateMutability": "view",
      "type": "function"
    },
    {
      "inputs": [
        {
          "internalType": "uint256",
          "name": "courseId",
          "type": "uint256"
        },
        {
          "internalType": "string",
          "name": "feedback",
          "type": "string"
        }
      ],
      "name": "provideFeedback",
      "outputs": [],
      "stateMutability": "nonpayable",
      "type": "function"
    }
  ],
  "bytecode": "0x6080806040523461001b5760016000556133a490816100218239f35b600080fdfe6040608081526004908136101561001557600080fd5b60009160e0908335821c91826304e48bd1146113f857826307547ed5146112de5782630b91e28d146111c35782632ae8a7e3146101a057826339ba0eef14610fec578263550e1da014610f8a5782635cc2a14d14610d19578263671a59f114610c0b5782637cbfc76214610bcf5782638c0d870d146107ad5782638f97353314610646575081639dad8d2214610263578163ad50aba0146101eb578163b0959e32146101a5578163b197f2eb146101a0578163c7954e4c14610162578163d1c3995714610136575063dc76fb66146100ec57600080fd5b3461013257600561012f9161012a60ff61010536611995565b9490938488526000805160206132af8339815191526020528720015460a01c16611bf8565b613021565b80f35b5080fd5b82843461015f57602036600319011261015f575061015660209235612f79565b90519015158152f35b80fd5b5050346101325781600319360112610132576020907f5d9ab6191fe9d5041816fb24ec4281e2d3989236339577e7fbbaf91315a1bb71549051908152f35b611834565b9050346101e75760203660031901126101e7578160209360ff9235815260008051602061334f8339815191528552818120338252855220541690519015158152f35b8280fd5b9050346101e75760203660031901126101e7578161025f9361024c92358082526000805160206132af83398151915260205261023260ff6005858520015460a01c16611bf8565b815260008051602061330f83398151915260205220611ad9565b9051918291602083526020830190611647565b0390f35b919050346101e7576020928360031936011261015f5782359061028e6102898333613167565b611ce8565b8181526000805160206132af8339815191529081865260ff9460058086842001549660ff60a09860a01c161561060b57835b60008051602061332f8339815191528054808310156105f457886102e384611a41565b5054146102f45750506001016102c0565b929160009a919495969798999a19938481019081116105e15761031961032091611a41565b5091611a41565b9290926105cf578183036104e4575b50505050815480156104d157019161034683611a41565b9190916104bf5792600a926103ab84848961044398818f9c9b985561036d60018401612f30565b61037960028401612f30565b816003840155818884015582015561039360068201612a48565b88600782015588600882015588600982015501612f30565b555b86845260008051602061328f83398151915289528484209560ff199687815416905560008051602061330f8339815191528a526103eb868620612f30565b8785528952838581209181835561040460018401612f30565b61041060028401612f30565b81600384015582015583600582015561042b60068201612a48565b83600782015583600882015583600982015501612f30565b8151868101906000805160206132cf8339815191528252858482015283815261046b816118dc565b519020815260008051602061334f83398151915286528181203382528652209081541690557f50d94198096be9c8aad282f822173f9212251c4d4dc2731fa944f3941749a78d838351338152a25160018152f35b634e487b7160e01b8652858552602486fd5b634e487b7160e01b865260318552602486fd5b6105c6936105866105a692845486556105036001808701908801612def565b6105136002808701908801612def565b61053260038481880154169088019060ff801983541691151516179055565b8a850154868c015589850180548b880180546001600160a01b039092166001600160a01b0319831681178255925460ff60a01b941c8616151560a01b939093166001600160a81b0319909116909117179055565b6105966006808501908601612ec7565b6007908184015416908401612aa0565b6008808201549083015560098082015490830155600a8091019101612def565b3880808061032f565b634e487b7160e01b8952888852602489fd5b634e487b7160e01b895260118852602489fd5b5050505050849550600a61044391959394956103ad565b865162461bcd60e51b81528084018a90526015602482015274436f7572736520646f65736e27742065786973742160581b6044820152606490fd5b9150833461015f576020928360031936011261013257816101a084359282885191610670836118c0565b8183528189840152818a8401528160608401528160808401528160a08401528160c084015282015282610100820152826101208201528261014082015260606101608201528261018082015201528082526000805160206132af83398151915284526106e760ff6005878520015460a01c16611bf8565b8082527f5d9ab6191fe9d5041816fb24ec4281e2d3989236339577e7fbbaf91315a1bb8290818552858320541561076a578252835283812090815492600019840193841161075757505061074161025f9261074792611d9f565b50611c3c565b9251928284938452830190611775565b634e487b7160e01b825260119052602490fd5b855162461bcd60e51b8152808501869052601a60248201527f4e6f207265766965777320666f72207468697320636f757273650000000000006044820152606490fd5b92915034610bcb5760a0366003190112610bcb576001600160401b03938135858111610132576107e0903690840161194e565b9060249586358181116101e7576107fa903690860161194e565b96604435946003861015610bcb57608435838111610bc75761081f903690830161194e565b927f5d9ab6191fe9d5041816fb24ec4281e2d3989236339577e7fbbaf91315a1bb73938454978887526000805160206132af8339815191529b8c9360209d8e5260ff60058d8b20015460a01c16610b8b578b519190828f0190811183821017610b7957918b959493918f8c908f6108d19681528d855251986108a08a61188e565b89528801528d8701528960608701528960808701523360a087015260019d8e60c08801528601526101008501611bd8565b426101208401526064356101408401526101608301528786528a526108f881898720612ab8565b60008051602061332f833981519152805490600160401b821015610b67578a8201905561092490611a41565b610b56579061093291612ab8565b7f5d9ab6191fe9d5041816fb24ec4281e2d3989236339577e7fbbaf91315a1bb7261095d8154612de0565b90553384527f5d9ab6191fe9d5041816fb24ec4281e2d3989236339577e7fbbaf91315a1bb7f8952868420805490898201809211610b4457558651918983016000805160206132cf83398151915293848252888a8201528981526109c0816118dc565b519020855260008051602061334f833981519152808b528886203387528b528886209060ff19918b838254161790558487528b528886203387528b528989872091825416179055610a118733613167565b15610af8575050917fdb3fafffbb284e95f813ac0a83dbcafbbe522f0facb2ca6ed137fb6b807f314993917f1fc3c915a961e15ecb336b79577e7d9e3e6a15f024fc98418ce8875699a370266060610aea958885526000805160206132ef8339815191528c52428a8620558951903382528c8201528a8a820152a1610a968154612de0565b9055847f9c93a42b217373d37e6c66ace0a67fe1fa1f78c93164b62417de69c48c0f67e2898851808651610acd8183868b01611624565b8101039020938951908152a3845191829186835286830190611647565b33888301520390a251908152f35b875162461bcd60e51b81529182018a90526021908201527f4661696c656420746f206772616e7420636f75727365206f776e657220726f6c6044820152606560f81b6064820152608490fd5b634e487b7160e01b8652601183528386fd5b634e487b7160e01b86528583528386fd5b634e487b7160e01b8752604184528487fd5b634e487b7160e01b8a5260418752878afd5b5050895162461bcd60e51b81528085018d905260158187015274436f7572736520616c72656164792065786973747360581b6044820152606490fd5b8480fd5b8380fd5b8382863461015f57602036600319011261015f5750610bf161025f913561295d565b839291925193849315158452806020850152830190611647565b92915034610bcb5760031992606036850112610bc757604435906001600160401b0394858311610d15576101c0908336030112610d1157835193610c4e856118c0565b82840135855260248301356020860152604483013590850152606482013560608501526084820135608085015260a482013560a085015260c482013560c085015260e482013590840152610104810135610100840152610124810135610120840152610cbd61014482016119c4565b610140840152610164810135938411610bc7576101a4610d0191610ce961012f9685369184010161194e565b610160860152610184810135610180860152016119c4565b6101a08301526024359035611dbb565b8580fd5b8680fd5b848285346101e757610d2a36611995565b610d376102898333613167565b8185526000805160206132af83398151915293602095858752610d6560ff6005878420015460a01c16611bf8565b838152858752600195868683200184516001600160401b038111610f7757918183610d9d8c95610d978d989654611a9f565b84611d5a565b84601f8211600114610eee5791610df582610e299997959387957f5c8c98b6b26236296c856fae8a5ca0c793bbb81c5f8b7c9a9ab99358f53fb0c09c9a9891610ee3575b508160011b916000199060031b1c19161790565b90555b8882528252888120936003850180549160ff8316610e32575b50505050505050845191829188835288830190611647565b0390a251908152f35b64657669657760d81b96849260ff198095169055015560008051602061328f833981519152835289822090815416905560008051602061330f8339815191528252888120610e808154611a9f565b601f8111610ec2575b50604b81558152207f436f757273652065646974656420616e64207265717569726573206e657720728155015587868882808080610e11565b818352838320610edd91601f0160051c810190600201611d43565b8c610e89565b905089015138610de1565b82855285852090601f198316865b818110610f60575092889694927f5c8c98b6b26236296c856fae8a5ca0c793bbb81c5f8b7c9a9ab99358f53fb0c09b999282610e299c9a989610610f47575b5050811b019055610df8565b8a015160001960f88460031b161c191690558f80610f3b565b8b83015184558e9990930192918801918801610efc565b634e487b7160e01b845260418552602484fd5b505050346101325760203660031901126101325760ff81602093610fac611819565b6000805160206132cf833981519152825260008051602061334f83398151915286528282206001600160a01b039091168252855220549151911615158152f35b509050346101e75760209081600319360112610bcb578035928385526000805160206132af833981519152835261102e60ff6005838820015460a01c16611bf8565b8385526000805160206132ef83398151915283528085205461025881018091116111b0574210611159578385527f5d9ab6191fe9d5041816fb24ec4281e2d3989236339577e7fbbaf91315a1bb779182845260ff82872054166111185750907fccb5986e60175020b7dcbdfe029250ee0e1a191f5854986704a909ed2c722c6892916110b98561295d565b9286885260008051602061328f83398151915285526110e682848a209060ff801983541691151516179055565b8452818720805460ff19166001179055159182611108575b505190158152a280f35b6111129086613021565b386110fe565b83606492519162461bcd60e51b8352820152601b60248201527f456c69676962696c69747920616c726561647920636865636b656400000000006044820152fd5b91608492519162461bcd60e51b8352820152602d60248201527f456c69676962696c69747920636865636b206f6e6c7920617661696c61626c6560448201526c1030b33a32b91018903437bab960991b6064820152fd5b634e487b7160e01b865260118352602486fd5b838591346101e7576020928360031936011261015f57600a839261025f946112c99388356111ef6119e8565b508082526000805160206132af83398151915290818a5261121b60ff6005868620015460a01c16611bf8565b82528852209084519761122d8961188e565b8254895261123d60018401611ad9565b888a015261124d60028401611ad9565b868a015260ff600384015416151560608a0152820154608089015260ff600583015460018060a01b03811660a08b015260a01c16151560c089015261129460068301611b7e565b908801526112ad60ff6007830154166101008901611bd8565b6008810154610120880152600981015461014088015201611ad9565b6101608501525192828493845283019061166c565b8385833461013257602090816003193601126101e757919091358082526000805160206132af833981519152835261132160ff6005868520015460a01c16611bf8565b81527f5d9ab6191fe9d5041816fb24ec4281e2d3989236339577e7fbbaf91315a1bb828252828120908154611355816119d1565b9061136286519283611912565b8082528482018094845285842084915b8383106113d357505050508451938085019181865251809252858501958260051b8601019392955b8287106113a75785850386f35b9091929382806113c3600193603f198a82030186528851611775565b960192019601959291909261139a565b600e886001926113e6859b98999b611c3c565b81520192019201919096949396611372565b915091923461015f578060031936011261015f5760008051602061332f83398151915254611425816119d1565b9261143286519485611912565b81845261143e826119d1565b60209590601f190186855b82811061160e57505050835b8381106114b9575050505083519280840190808552835180925280868601968360051b870101940192955b82871061148d5785850386f35b9091929382806114a9600193603f198a8203018652885161166c565b9601920196019592919092611480565b6114c281611a41565b505487826114cf81611a41565b50926114da82611a41565b508c6114e584611a41565b5060ff60038192015416896114f987611a41565b50015461150587611a41565b506005908101546001600160a01b0316919061152089611a41565b5001549261152d89611a41565b5095856115398b611a41565b506007015416976115498b611a41565b5060080154996115588c611a41565b50600901549b61156790611a41565b509c83519e8f926115778461188e565b835260010161158590611ad9565b91015260020161159490611ad9565b908c0152151560608b015260808a015260a089015260a01c16151560c08701526006016115c090611b7e565b858901526115d2906101008601611bd8565b610120840152610140830152600a016115ea90611ad9565b6101608201526115fa8288611be4565b526116058187611be4565b50600101611455565b6116166119e8565b82828a010152018790611449565b60005b8381106116375750506000910152565b8181015183820152602001611627565b9060209161166081518092818552858086019101611624565b601f01601f1916010190565b61018090805183526116a161168f60209384840151908086880152860190611647565b60408301518582036040870152611647565b6060820151151560608501526080820151608085015260a08201519060018060a01b0380921660a086015260c0830151151560c086015260e08301519385820360e08701528080865193848152019501926000905b83821061175c575050505050610100928382015160038110156117465761174394820152610120808301519082015261014080830151908201526101608092015191818403910152611647565b90565b634e487b7160e01b600052602160045260246000fd5b84518116875295820195938201936001909101906116f6565b906117fe6101c0835183526020840151602084015260408401516040840152606084015160608401526080840151608084015260a084015160a084015260c084015160c084015260e084015160e0840152610100808501519084015261012080850151908401526101408085015115159084015261016090808286015192850152830190611647565b9161018080820151908301526101a080910151151591015290565b600435906001600160a01b038216820361182f57565b600080fd5b3461182f57604036600319011261182f5761184d611819565b60243560005260008051602061334f83398151915260205260406000209060018060a01b0316600052602052602060ff604060002054166040519015158152f35b61018081019081106001600160401b038211176118aa57604052565b634e487b7160e01b600052604160045260246000fd5b6101c081019081106001600160401b038211176118aa57604052565b606081019081106001600160401b038211176118aa57604052565b604081019081106001600160401b038211176118aa57604052565b90601f801991011681019081106001600160401b038211176118aa57604052565b6001600160401b0381116118aa57601f01601f191660200190565b81601f8201121561182f5780359061196582611933565b926119736040519485611912565b8284526020838301011161182f57816000926020809301838601378301015290565b90604060031983011261182f5760043591602435906001600160401b03821161182f576117439160040161194e565b3590811515820361182f57565b6001600160401b0381116118aa5760051b60200190565b604051906119f58261188e565b606061016083600080825283602083015283604083015280848301528060808301528060a08301528060c08301528360e083015280610100830152806101208301526101408201520152565b60008051602061332f833981519152908154811015611a8957600b91600052027f5be94ca231000b7ffb5c6e5accb264b3927e039a0afbf587fcf68ac19ec7b05d0190600090565b634e487b7160e01b600052603260045260246000fd5b90600182811c92168015611acf575b6020831014611ab957565b634e487b7160e01b600052602260045260246000fd5b91607f1691611aae565b90604051918260008254611aec81611a9f565b90818452602094600191600181169081600014611b5c5750600114611b1d575b505050611b1b92500383611912565b565b600090815285812095935091905b818310611b44575050611b1b9350820101388080611b0c565b85548884018501529485019487945091830191611b2b565b92505050611b1b94925060ff191682840152151560051b820101388080611b0c565b90604051918281549182825260209260208301916000526020600020936000905b828210611bb557505050611b1b92500383611912565b85546001600160a01b031684526001958601958895509381019390910190611b9f565b60038210156117465752565b8051821015611a895760209160051b010190565b15611bff57565b60405162461bcd60e51b815260206004820152601560248201527410dbdd5c9cd948191bd95cc81b9bdd08195e1a5cdd605a1b6044820152606490fd5b90604051611c49816118c0565b6101a060ff600d83958054855260018101546020860152600281015460408601526003810154606086015260048101546080860152600581015460a0860152600681015460c0860152600781015460e08601526008810154610100860152600981015461012086015282600a820154161515610140860152611ccd600b8201611ad9565b610160860152600c8101546101808601520154161515910152565b15611cef57565b60405162461bcd60e51b815260206004820152602660248201527f43616c6c6572206973206e6f7420746865206f776e6572206f66207468697320604482015265636f7572736560d01b6064820152608490fd5b818110611d4e575050565b60008155600101611d43565b9190601f8111611d6957505050565b611b1b926000526020600020906020601f840160051c83019310611d95575b601f0160051c0190611d43565b9091508190611d88565b8054821015611a8957600052600e602060002091020190600090565b9091816000526000805160206132af833981519152602052611dea60ff60056040600020015460a01c16611bf8565b816000526000805160206132af83398151915260205260ff6003604060002001541661291857816000527f5d9ab6191fe9d5041816fb24ec4281e2d3989236339577e7fbbaf91315a1bb778060205260ff6040600020541615806128d5575b6127d7575b8260005260205260ff6040600020541615612787578160005260008051602061328f83398151915260205260ff604060002054161561273457816000527f5d9ab6191fe9d5041816fb24ec4281e2d3989236339577e7fbbaf91315a1bb8260205260406000208054600160401b8110156118aa57611ed191600182018155611d9f565b61271e57815181556020820151600182015560408201516002820155606082015160038201556080820151600482015560a0820151600582015560c0820151600682015560e0820151600782015561010082015160088201556101208201516009820155611f556101408301511515600a83019060ff801983541691151516179055565b6101608201518051906001600160401b0382116118aa57611f8682611f7d600b860154611a9f565b600b8601611d5a565b602090601f83116001146126aa579180611fbc92611388959460009261269f575b50508160011b916000199060031b1c19161790565b600b8201555b611fef6101808401519182600c820155600d6101a0860151151591019060ff801983541691151516179055565b1061219a5750806000526000805160206132af833981519152602052604060002091806004600385019460ff1995600187825416179055015560005b60008051602061332f83398151915254811015612191578261204c82611a41565b50541461205b5760010161202b565b8060049293946001600361207161207f95611a41565b500191825416179055611a41565b5001555b806000526000805160206132af83398151915260205261210d602060018060a01b0360056040600020015416604051906120bc826118f7565b601682527510dbdd5c9cd94818dc99585d1a5bdb881c995dd85c9960521b83830152604051938492839263112232f560e31b8452600484015260016024840152606060448401526064830190611647565b03816000305af180156121855761214d575b507f4a595d8b22f642a2c59fa39a2098244b31745d3a57615834b2b31739d7e67bba602060405160018152a2565b6020813d60201161217d575b8161216660209383611912565b8101031261182f57518015150361182f573861211f565b3d9150612159565b6040513d6000823e3d90fd5b50509050612083565b9091604051916121a9836118dc565b603183527f436f75727365206e6565647320696d70726f76656d656e7420696e207468652060208401527003337b63637bbb4b7339030b932b0b99d1607d1b6040840152826046825110612636575b50916123229183604660207f3a9e47b985ba7ba4d4efeda2b1aa3beb262ac19ca4fa9219394d5574cfd424be960151106125e6575b604660408201511061258c575b604660608201511061253a575b60466080820151106124ea575b604660a082015110612499575b604660c08201511061243f575b604660e0820151106123f1575b60466101008201511061238e575b610120604691015110612327575b602e6122a5612304926131cb565b9260405193816122bf869351809260208087019101611624565b82016c02334b730b61039b1b7b9329d1609d1b60208201526122eb825180936020602d85019101611624565b01602560f81b602d82015203600e810184520182611912565b61230e8185613021565b604051918291602083526020830190611647565b0390a2565b90602e6122a561230492612384603b6040518361234e829551809260208086019101611624565b81017f456e676167656d656e7420616e64204d6f7469766174696f6e2c200000000000602082015203601b810184520182611912565b9392505050612297565b916101206046916123e86039604051836123b2829551809260208086019101611624565b81017f4173736573736d656e7420666f72204c6561726e696e672c20000000000000006020820152036019810184520182611912565b93915050612289565b9161243960316040518361240f829551809260208086019101611624565b81017002632b0b93732b91029bab83837b93a161607d1b6020820152036011810184520182611912565b9161227b565b9161249360386040518361245d829551809260208086019101611624565b81017f546563686e6f6c6f677920496e746567726174696f6e2c2000000000000000006020820152036018810184520182611912565b9161226e565b916124e46034604051836124b7829551809260208086019101611624565b810173020baba3432b73a34b1902632b0b93734b73396160651b6020820152036014810184520182611912565b91612261565b91612534603360405183612508829551809260208086019101611624565b810172020b230b83a34bb32902632b0b93734b733961606d1b6020820152036013810184520182611912565b91612254565b91612586603560405183612558829551809260208086019101611624565b81017402932b33632b1ba34bb3290283930b1ba34b1b2961605d1b6020820152036015810184520182611912565b91612247565b916125e06038604051836125aa829551809260208086019101611624565b81017f436f6c6c61626f726174697665204c6561726e696e672c2000000000000000006020820152036018810184520182611912565b9161223a565b91612630603360405183612604829551809260208086019101611624565b810172021b934ba34b1b0b6102a3434b735b4b733961606d1b6020820152036013810184520182611912565b9161222d565b604051935060005b6031811061268a5750506f02632b0b93732b91020b3b2b731bc96160851b60518401526041835260808301918383106001600160401b038411176118aa576040929092526123226121f8565b8060208092840101518282880101520161263e565b015190503880611fa7565b90600b840160005260206000209160005b601f198516811061270657509183916001936113889695601f198116106126ed575b505050811b01600b820155611fc2565b015160001960f88460031b161c191690553880806126dd565b919260206001819286850151815501940192016126bb565b634e487b7160e01b600052600060045260246000fd5b60405162461bcd60e51b815260206004820152602560248201527f436f7572736520646964206e6f74207061737320656c69676962696c69747920604482015264636865636b60d81b6064820152608490fd5b60405162461bcd60e51b815260206004820152602260248201527f436f7572736520656c69676962696c697479206e6f7420636865636b65642079604482015261195d60f21b6064820152608490fd5b6127e08361295d565b908460005260008051602061328f8339815191526020526128118160406000209060ff801983541691151516179055565b826020526040600020600160ff19825416179055159081159161286057507fccb5986e60175020b7dcbdfe029250ee0e1a191f5854986704a909ed2c722c6860208592604051908152a2611e4e565b91508394506123229250927fccb5986e60175020b7dcbdfe029250ee0e1a191f5854986704a909ed2c722c6860207f3a9e47b985ba7ba4d4efeda2b1aa3beb262ac19ca4fa9219394d5574cfd424be956128ba8585613021565b604051908152a2604051918291602083526020830190611647565b506000805160206132ef833981519152602052604060002054610258810180911161290257421015611e49565b634e487b7160e01b600052601160045260246000fd5b60405162461bcd60e51b815260206004820152601760248201527f436f7572736520616c726561647920617070726f7665640000000000000000006044820152606490fd5b90816000526000805160206132af83398151915260205260409161298d60ff600585600020015460a01c16611bf8565b6000527f5d9ab6191fe9d5041816fb24ec4281e2d3989236339577e7fbbaf91315a1bb7a6020526001826000205410612a0457600191606160f81b8151916129d4836118dc565b602183527f436f75727365206d6565747320656c69676962696c6974792063726974657269602084015282015290565b603960f91b825192612a15846118dc565b602184527f436f75727365206e65656473206174206c65617374206f6e6520636861707465602085015283015260009190565b80546000825580612a57575050565b611b1b91600052602060002090810190611d43565b90600160401b81116118aa57815490808355818110612a8a57505050565b611b1b9260005260206000209182019101611d43565b9060038110156117465760ff80198354169116179055565b8151815560019081810190602090818501519283516001600160401b03948582116118aa57612af182612aeb8554611a9f565b85611d5a565b8490601f8311600114612d7e57612b2092916000918361269f5750508160011b916000199060031b1c19161790565b90555b6002810160408601518051908582116118aa57612b4482612aeb8554611a9f565b8490601f8311600114612d1c57612b7392916000918361269f5750508160011b916000199060031b1c19161790565b90555b612b9560608601511515600383019060ff801983541691151516179055565b6080850151600482015560a08086015160058301805460c08901516001600160a81b03199091166001600160a01b039384161790151590931b60ff60a01b16929092179091556006820160e0870151918251928684116118aa578590612bfb8585612a6c565b019160005284600020908760005b858110612d085750505050505061010085015160038110156117465781612c38600a9260076101609501612aa0565b61012087015160088201556101408701516009820155019401519283519283116118aa57612c7083612c6a8754611a9f565b87611d5a565b81601f8411600114612ca45750508190612ca09360009261269f5750508160011b916000199060031b1c19161790565b9055565b91909383601f1981168760005284600020946000905b88838310612cee5750505010612cd5575b505050811b019055565b015160001960f88460031b161c19169055388080612ccb565b858701518855909601959485019487935090810190612cba565b878386511695019481850155018890612c09565b879291601f1983169185600052876000209260005b89828210612d685750508411612d4f575b505050811b019055612b76565b015160001960f88460031b161c19169055388080612d42565b8385015186558c97909501949384019301612d31565b879291601f1983169185600052876000209260005b89828210612dca5750508411612db1575b505050811b019055612b23565b015160001960f88460031b161c19169055388080612da4565b8385015186558c97909501949384019301612d93565b60001981146129025760010190565b90808214612ec357612e018154611a9f565b906001600160401b0382116118aa57612e1e82612aeb8554611a9f565b600090601f8311600114612e5957612ca0929160009183612e4e5750508160011b916000199060031b1c19161790565b015490503880611fa7565b815260208082208483528183209291601f1985169083905b828210612eaa575050908460019594939210612e9157505050811b019055565b015460001960f88460031b161c19169055388080612ccb565b8495819295850154815560018091019601940190612e71565b5050565b818114612ec3578154916001600160401b0383116118aa57612ee98383612a6c565b60005260206000209060005260206000208154916000925b848410612f0f575050505050565b600191820180546001600160a01b0390921684860155939091019290612f01565b612f3a8154611a9f565b9081612f44575050565b81601f60009311600114612f56575055565b908083918252612f75601f60208420940160051c840160018501611d43565b5555565b60008181526000805160206132af83398151915260205260ff600560408320015460a01c161561301c576000805160206132ef83398151915260205260408120546102588101809111613008574210159182612fd457505090565b81527f5d9ab6191fe9d5041816fb24ec4281e2d3989236339577e7fbbaf91315a1bb77602052604090205460ff1615919050565b634e487b7160e01b82526011600452602482fd5b905090565b919091600092818452602060008051602061330f83398151915281526040852082516001600160401b0381116131535761305f81610d978454611a9f565b8296601f82116001146130d15790807f8dd7b461840a47803ee3902a10556a81b94c59c30438b815a9fa279cf19917589697986130af93916130c657508160011b916000199060031b1c19161790565b90555b612322604051928284938452830190611647565b905085015138610de1565b96601f198216838952848920985b81811061313c57509782916001937f8dd7b461840a47803ee3902a10556a81b94c59c30438b815a9fa279cf199175898999a10613123575b5050811b0190556130b2565b86015160001960f88460031b161c191690553880613117565b868301518a556001909901989185019185016130df565b634e487b7160e01b87526041600452602487fd5b9060405160208101916000805160206132cf8339815191528352604082015260408152613193816118dc565b51902060005260008051602061334f83398151915260205260406000209060018060a01b031660005260205260ff6040600020541690565b801561327057600081805b61325c57506131e481611933565b906131f26040519283611912565b808252601f1961320182611933565b01366020840137915b8290801561325557600a9160309483830686018096116129025780156129025760001901948451861015611a895760f81b6001600160f81b03191660001a908401601f01530461320a565b5050905090565b90613268600a91612de0565b9104806131d6565b5060405161327d816118f7565b60018152600360fc1b60208201529056fe5d9ab6191fe9d5041816fb24ec4281e2d3989236339577e7fbbaf91315a1bb785d9ab6191fe9d5041816fb24ec4281e2d3989236339577e7fbbaf91315a1bb7dadb22091b155738d2e889eb96f509d2a7c93234236b30400927feb4a6a15ab005d9ab6191fe9d5041816fb24ec4281e2d3989236339577e7fbbaf91315a1bb765d9ab6191fe9d5041816fb24ec4281e2d3989236339577e7fbbaf91315a1bb795d9ab6191fe9d5041816fb24ec4281e2d3989236339577e7fbbaf91315a1bb86c8fcad8db84d3cc18b4c41d551ea0ee66dd599cde068d998e57d5e09332c1328a26469706673582212207107618779b1b1641b0a8180a96d792d2ed92491bbf9a7c918ef9383d78c783a64736f6c63430008180033",
  "linkReferences": {},
  "deployedLinkReferences": {}
}