{
    "_format": "hh-sol-artifact-1",
    "contractName": "EthereumDIDRegistry",
    "sourceName": "contracts/EthereumDIDRegistry.sol",
    "abi": [
        {
            "anonymous": false,
            "inputs": [
                {
                    "indexed": true,
                    "internalType": "address",
                    "name": "identity",
                    "type": "address"
                },
                {
                    "indexed": false,
                    "internalType": "bytes32",
                    "name": "name",
                    "type": "bytes32"
                },
                {
                    "indexed": false,
                    "internalType": "bytes",
                    "name": "value",
                    "type": "bytes"
                },
                {
                    "indexed": false,
                    "internalType": "uint256",
                    "name": "validTo",
                    "type": "uint256"
                },
                {
                    "indexed": false,
                    "internalType": "uint256",
                    "name": "previousChange",
                    "type": "uint256"
                }
            ],
            "name": "DIDAttributeChanged",
            "type": "event"
        },
        {
            "anonymous": false,
            "inputs": [
                {
                    "indexed": true,
                    "internalType": "address",
                    "name": "identity",
                    "type": "address"
                },
                {
                    "indexed": false,
                    "internalType": "bytes32",
                    "name": "delegateType",
                    "type": "bytes32"
                },
                {
                    "indexed": false,
                    "internalType": "address",
                    "name": "delegate",
                    "type": "address"
                },
                {
                    "indexed": false,
                    "internalType": "uint256",
                    "name": "validTo",
                    "type": "uint256"
                },
                {
                    "indexed": false,
                    "internalType": "uint256",
                    "name": "previousChange",
                    "type": "uint256"
                }
            ],
            "name": "DIDDelegateChanged",
            "type": "event"
        },
        {
            "anonymous": false,
            "inputs": [
                {
                    "indexed": true,
                    "internalType": "address",
                    "name": "identity",
                    "type": "address"
                },
                {
                    "indexed": false,
                    "internalType": "string",
                    "name": "cid",
                    "type": "string"
                }
            ],
            "name": "DIDDocumentCIDUpdated",
            "type": "event"
        },
        {
            "anonymous": false,
            "inputs": [
                {
                    "indexed": true,
                    "internalType": "address",
                    "name": "identity",
                    "type": "address"
                },
                {
                    "indexed": false,
                    "internalType": "address",
                    "name": "owner",
                    "type": "address"
                },
                {
                    "indexed": false,
                    "internalType": "uint256",
                    "name": "previousChange",
                    "type": "uint256"
                }
            ],
            "name": "DIDOwnerChanged",
            "type": "event"
        },
        {
            "anonymous": false,
            "inputs": [
                {
                    "indexed": true,
                    "internalType": "address",
                    "name": "identity",
                    "type": "address"
                },
                {
                    "indexed": false,
                    "internalType": "string",
                    "name": "cid",
                    "type": "string"
                }
            ],
            "name": "ProfileCIDUpdated",
            "type": "event"
        },
        {
            "inputs": [
                {
                    "internalType": "address",
                    "name": "identity",
                    "type": "address"
                },
                {
                    "internalType": "bytes32",
                    "name": "delegateType",
                    "type": "bytes32"
                },
                {
                    "internalType": "address",
                    "name": "delegate",
                    "type": "address"
                },
                {
                    "internalType": "uint256",
                    "name": "validity",
                    "type": "uint256"
                }
            ],
            "name": "addDelegate",
            "outputs": [],
            "stateMutability": "nonpayable",
            "type": "function"
        },
        {
            "inputs": [
                {
                    "internalType": "address",
                    "name": "identity",
                    "type": "address"
                },
                {
                    "internalType": "uint8",
                    "name": "sigV",
                    "type": "uint8"
                },
                {
                    "internalType": "bytes32",
                    "name": "sigR",
                    "type": "bytes32"
                },
                {
                    "internalType": "bytes32",
                    "name": "sigS",
                    "type": "bytes32"
                },
                {
                    "internalType": "bytes32",
                    "name": "delegateType",
                    "type": "bytes32"
                },
                {
                    "internalType": "address",
                    "name": "delegate",
                    "type": "address"
                },
                {
                    "internalType": "uint256",
                    "name": "validity",
                    "type": "uint256"
                }
            ],
            "name": "addDelegateSigned",
            "outputs": [],
            "stateMutability": "nonpayable",
            "type": "function"
        },
        {
            "inputs": [
                {
                    "internalType": "address",
                    "name": "identity",
                    "type": "address"
                },
                {
                    "internalType": "address",
                    "name": "newOwner",
                    "type": "address"
                }
            ],
            "name": "changeOwner",
            "outputs": [],
            "stateMutability": "nonpayable",
            "type": "function"
        },
        {
            "inputs": [
                {
                    "internalType": "address",
                    "name": "identity",
                    "type": "address"
                },
                {
                    "internalType": "uint8",
                    "name": "sigV",
                    "type": "uint8"
                },
                {
                    "internalType": "bytes32",
                    "name": "sigR",
                    "type": "bytes32"
                },
                {
                    "internalType": "bytes32",
                    "name": "sigS",
                    "type": "bytes32"
                },
                {
                    "internalType": "address",
                    "name": "newOwner",
                    "type": "address"
                }
            ],
            "name": "changeOwnerSigned",
            "outputs": [],
            "stateMutability": "nonpayable",
            "type": "function"
        },
        {
            "inputs": [
                {
                    "internalType": "address",
                    "name": "",
                    "type": "address"
                }
            ],
            "name": "changed",
            "outputs": [
                {
                    "internalType": "uint256",
                    "name": "",
                    "type": "uint256"
                }
            ],
            "stateMutability": "view",
            "type": "function"
        },
        {
            "inputs": [
                {
                    "internalType": "address",
                    "name": "",
                    "type": "address"
                },
                {
                    "internalType": "bytes32",
                    "name": "",
                    "type": "bytes32"
                },
                {
                    "internalType": "address",
                    "name": "",
                    "type": "address"
                }
            ],
            "name": "delegates",
            "outputs": [
                {
                    "internalType": "uint256",
                    "name": "",
                    "type": "uint256"
                }
            ],
            "stateMutability": "view",
            "type": "function"
        },
        {
            "inputs": [
                {
                    "internalType": "address",
                    "name": "identity",
                    "type": "address"
                }
            ],
            "name": "getDIDDocumentCID",
            "outputs": [
                {
                    "internalType": "string",
                    "name": "",
                    "type": "string"
                }
            ],
            "stateMutability": "view",
            "type": "function"
        },
        {
            "inputs": [
                {
                    "internalType": "address",
                    "name": "identity",
                    "type": "address"
                }
            ],
            "name": "getProfileCID",
            "outputs": [
                {
                    "internalType": "string",
                    "name": "",
                    "type": "string"
                }
            ],
            "stateMutability": "view",
            "type": "function"
        },
        {
            "inputs": [
                {
                    "internalType": "address",
                    "name": "identity",
                    "type": "address"
                }
            ],
            "name": "identityOwner",
            "outputs": [
                {
                    "internalType": "address",
                    "name": "",
                    "type": "address"
                }
            ],
            "stateMutability": "view",
            "type": "function"
        },
        {
            "inputs": [
                {
                    "internalType": "address",
                    "name": "",
                    "type": "address"
                }
            ],
            "name": "nonce",
            "outputs": [
                {
                    "internalType": "uint256",
                    "name": "",
                    "type": "uint256"
                }
            ],
            "stateMutability": "view",
            "type": "function"
        },
        {
            "inputs": [
                {
                    "internalType": "address",
                    "name": "",
                    "type": "address"
                }
            ],
            "name": "owners",
            "outputs": [
                {
                    "internalType": "address",
                    "name": "",
                    "type": "address"
                }
            ],
            "stateMutability": "view",
            "type": "function"
        },
        {
            "inputs": [
                {
                    "internalType": "address",
                    "name": "identity",
                    "type": "address"
                },
                {
                    "internalType": "bytes32",
                    "name": "name",
                    "type": "bytes32"
                },
                {
                    "internalType": "bytes",
                    "name": "value",
                    "type": "bytes"
                }
            ],
            "name": "revokeAttribute",
            "outputs": [],
            "stateMutability": "nonpayable",
            "type": "function"
        },
        {
            "inputs": [
                {
                    "internalType": "address",
                    "name": "identity",
                    "type": "address"
                },
                {
                    "internalType": "uint8",
                    "name": "sigV",
                    "type": "uint8"
                },
                {
                    "internalType": "bytes32",
                    "name": "sigR",
                    "type": "bytes32"
                },
                {
                    "internalType": "bytes32",
                    "name": "sigS",
                    "type": "bytes32"
                },
                {
                    "internalType": "bytes32",
                    "name": "name",
                    "type": "bytes32"
                },
                {
                    "internalType": "bytes",
                    "name": "value",
                    "type": "bytes"
                }
            ],
            "name": "revokeAttributeSigned",
            "outputs": [],
            "stateMutability": "nonpayable",
            "type": "function"
        },
        {
            "inputs": [
                {
                    "internalType": "address",
                    "name": "identity",
                    "type": "address"
                },
                {
                    "internalType": "bytes32",
                    "name": "delegateType",
                    "type": "bytes32"
                },
                {
                    "internalType": "address",
                    "name": "delegate",
                    "type": "address"
                }
            ],
            "name": "revokeDelegate",
            "outputs": [],
            "stateMutability": "nonpayable",
            "type": "function"
        },
        {
            "inputs": [
                {
                    "internalType": "address",
                    "name": "identity",
                    "type": "address"
                },
                {
                    "internalType": "uint8",
                    "name": "sigV",
                    "type": "uint8"
                },
                {
                    "internalType": "bytes32",
                    "name": "sigR",
                    "type": "bytes32"
                },
                {
                    "internalType": "bytes32",
                    "name": "sigS",
                    "type": "bytes32"
                },
                {
                    "internalType": "bytes32",
                    "name": "delegateType",
                    "type": "bytes32"
                },
                {
                    "internalType": "address",
                    "name": "delegate",
                    "type": "address"
                }
            ],
            "name": "revokeDelegateSigned",
            "outputs": [],
            "stateMutability": "nonpayable",
            "type": "function"
        },
        {
            "inputs": [
                {
                    "internalType": "address",
                    "name": "identity",
                    "type": "address"
                },
                {
                    "internalType": "bytes32",
                    "name": "name",
                    "type": "bytes32"
                },
                {
                    "internalType": "bytes",
                    "name": "value",
                    "type": "bytes"
                },
                {
                    "internalType": "uint256",
                    "name": "validity",
                    "type": "uint256"
                }
            ],
            "name": "setAttribute",
            "outputs": [],
            "stateMutability": "nonpayable",
            "type": "function"
        },
        {
            "inputs": [
                {
                    "internalType": "address",
                    "name": "identity",
                    "type": "address"
                },
                {
                    "internalType": "uint8",
                    "name": "sigV",
                    "type": "uint8"
                },
                {
                    "internalType": "bytes32",
                    "name": "sigR",
                    "type": "bytes32"
                },
                {
                    "internalType": "bytes32",
                    "name": "sigS",
                    "type": "bytes32"
                },
                {
                    "internalType": "bytes32",
                    "name": "name",
                    "type": "bytes32"
                },
                {
                    "internalType": "bytes",
                    "name": "value",
                    "type": "bytes"
                },
                {
                    "internalType": "uint256",
                    "name": "validity",
                    "type": "uint256"
                }
            ],
            "name": "setAttributeSigned",
            "outputs": [],
            "stateMutability": "nonpayable",
            "type": "function"
        },
        {
            "inputs": [
                {
                    "internalType": "address",
                    "name": "identity",
                    "type": "address"
                },
                {
                    "internalType": "string",
                    "name": "cid",
                    "type": "string"
                }
            ],
            "name": "setDIDDocumentCID",
            "outputs": [],
            "stateMutability": "nonpayable",
            "type": "function"
        },
        {
            "inputs": [
                {
                    "internalType": "address",
                    "name": "identity",
                    "type": "address"
                },
                {
                    "internalType": "string",
                    "name": "cid",
                    "type": "string"
                }
            ],
            "name": "setProfileCID",
            "outputs": [],
            "stateMutability": "nonpayable",
            "type": "function"
        },
        {
            "inputs": [
                {
                    "internalType": "address",
                    "name": "identity",
                    "type": "address"
                },
                {
                    "internalType": "bytes32",
                    "name": "delegateType",
                    "type": "bytes32"
                },
                {
                    "internalType": "address",
                    "name": "delegate",
                    "type": "address"
                }
            ],
            "name": "validDelegate",
            "outputs": [
                {
                    "internalType": "bool",
                    "name": "",
                    "type": "bool"
                }
            ],
            "stateMutability": "view",
            "type": "function"
        }
    ],
    "bytecode": "0x608060405234801561001057600080fd5b50611834806100206000396000f3fe608060405234801561001057600080fd5b506004361061016b5760003560e01c806380b29f7c116100cd578063de8b05be11610081578063e476af5c11610066578063e476af5c1461038d578063f00d4b5d146103a0578063f96d0f9f146103b357600080fd5b8063de8b05be14610367578063e3095e451461037a57600080fd5b806393072684116100b2578063930726841461032e5780639c2c1b2b14610341578063a7068d661461035457600080fd5b806380b29f7c146103085780638733d4e81461031b57600080fd5b806335118de211610124578063622b2a3c11610109578063622b2a3c1461026357806370ae92d2146102d55780637ad4b0a4146102f557600080fd5b806335118de21461023057806346a59e5f1461025057600080fd5b80630d44625b116101555780630d44625b146101cb578063123b5e981461020a578063240cf1fa1461021d57600080fd5b8062c023da14610170578063022914a714610185575b600080fd5b61018361017e366004611263565b6103d3565b005b6101ae610193366004611195565b6000602081905290815260409020546001600160a01b031681565b6040516001600160a01b0390911681526020015b60405180910390f35b6101fc6101d93660046111e3565b600160209081526000938452604080852082529284528284209052825290205481565b6040519081526020016101c2565b610183610218366004611515565b6103e4565b61018361022b36600461137b565b610470565b61024361023e366004611195565b610552565b6040516101c29190611725565b61018361025e366004611319565b6105fe565b6102c56102713660046111e3565b6001600160a01b039283166000908152600160209081526040808320815180840196909652815180870384018152958201825285519583019590952083529381528382209290941681529252902054421090565b60405190151581526020016101c2565b6101fc6102e3366004611195565b60036020526000908152604090205481565b6101836103033660046112ba565b6106cb565b6101836103163660046111e3565b6106de565b6101ae610329366004611195565b6106ea565b61018361033c3660046113d2565b61071a565b61018361034f366004611431565b610805565b61018361036236600461121f565b6108f3565b610243610375366004611195565b610900565b610183610388366004611319565b610927565b61018361039b36600461149b565b6109e1565b6101836103ae3660046111b0565b610a60565b6101fc6103c1366004611195565b60026020526000908152604090205481565b6103df83338484610a6f565b505050565b6000601960f81b81306003826103f98d6106ea565b6001600160a01b03166001600160a01b03168152602001908152602001600020548b88888860405160200161043598979695949392919061165c565b6040516020818303038152906040528051906020012090506104668861045e8a8a8a8a87610b3e565b868686610c3d565b5050505050505050565b6000601960f81b81306003826104858b6106ea565b6001600160a01b0316815260208082019290925260409081016000205481516001600160f81b0319968716818501529490951660218501526bffffffffffffffffffffffff19606093841b8116602286015260368501959095528a831b851660568501527f6368616e67654f776e6572000000000000000000000000000000000000000000606a8501529186901b909316607583015280516069818403018152608990920190528051910120905061054a866105448188888887610b3e565b84610d21565b505050505050565b6001600160a01b03811660009081526005602052604090208054606091906105799061177c565b80601f01602080910402602001604051908101604052809291908181526020018280546105a59061177c565b80156105f25780601f106105c7576101008083540402835291602001916105f2565b820191906000526020600020905b8154815290600101906020018083116105d557829003601f168201915b50505050509050919050565b8133610609826106ea565b6001600160a01b0316816001600160a01b03161461065a5760405162461bcd60e51b81526020600482015260096024820152683130b22fb0b1ba37b960b91b60448201526064015b60405180910390fd5b6001600160a01b0384166000908152600460209081526040909120845161068392860190611032565b50836001600160a01b03167fdfb356fd3336224c49cebfc4c41e3dde8125aad9a1afab6a91b898e449f41c70846040516106bd9190611725565b60405180910390a250505050565b6106d88433858585610c3d565b50505050565b6103df83338484610e1d565b6001600160a01b0380821660009081526020819052604081205490911680156107135792915050565b5090919050565b6000601960f81b813060038261072f8c6106ea565b6001600160a01b0316815260208082019290925260409081016000205481516001600160f81b0319968716818501529490951660218501526bffffffffffffffffffffffff19606093841b8116602286015260368501959095528b831b851660568501527f7265766f6b6544656c6567617465000000000000000000000000000000000000606a850152607884018890529186901b90931660988301528051608c81840301815260ac9092019052805191012090506107fc876107f58189898987610b3e565b8585610e1d565b50505050505050565b6000601960f81b813060038261081a8d6106ea565b6001600160a01b0316815260208082019290925260409081016000205490516001600160f81b031995861692810192909252929093166021840152606090811b6bffffffffffffffffffffffff19908116602285015260368401929092528a811b821660568401527f61646444656c6567617465000000000000000000000000000000000000000000606a8401526075830187905285901b16609582015260a9810183905260c901604051602081830303815290604052805190602001209050610466886108eb8a8a8a8a87610b3e565b868686610f17565b6106d88433858585610f17565b6001600160a01b03811660009081526004602052604090208054606091906105799061177c565b8133610932826106ea565b6001600160a01b0316816001600160a01b03161461097e5760405162461bcd60e51b81526020600482015260096024820152683130b22fb0b1ba37b960b91b6044820152606401610651565b6001600160a01b038416600090815260056020908152604090912084516109a792860190611032565b50836001600160a01b03167f29ee3d96f0a07374c7d8a187b1d3b3c50acd35a617c7d387cafac1e0836ddd57846040516106bd9190611725565b6000601960f81b81306003826109f68c6106ea565b6001600160a01b03166001600160a01b03168152602001908152602001600020548a8787604051602001610a3097969594939291906115c6565b6040516020818303038152906040528051906020012090506107fc87610a598989898987610b3e565b8585610a6f565b610a6b823383610d21565b5050565b8383610a7a826106ea565b6001600160a01b0316816001600160a01b031614610ac65760405162461bcd60e51b81526020600482015260096024820152683130b22fb0b1ba37b960b91b6044820152606401610651565b6001600160a01b0386166000818152600260205260408082205490517f18ab6b2ae3d64306c00ce663125f2bd680e441a098de1635bd7ad8b0d44965e492610b13928992899291906116f9565b60405180910390a25050506001600160a01b0390921660009081526002602052604090204390555050565b6040805160008082526020820180845284905260ff8716928201929092526060810185905260808101849052819060019060a0016020604051602081039080840390855afa158015610b94573d6000803e3d6000fd5b505050602060405103519050610ba9876106ea565b6001600160a01b0316816001600160a01b031614610c095760405162461bcd60e51b815260206004820152600d60248201527f6261645f7369676e6174757265000000000000000000000000000000000000006044820152606401610651565b6001600160a01b0381166000908152600360205260408120805491610c2d836117b7565b9091555090979650505050505050565b8484610c48826106ea565b6001600160a01b0316816001600160a01b031614610c945760405162461bcd60e51b81526020600482015260096024820152683130b22fb0b1ba37b960b91b6044820152606401610651565b6001600160a01b0387167f18ab6b2ae3d64306c00ce663125f2bd680e441a098de1635bd7ad8b0d44965e48686610ccb8742611738565b6001600160a01b038c1660009081526002602052604090819020549051610cf594939291906116f9565b60405180910390a25050506001600160a01b039093166000908152600260205260409020439055505050565b8282610d2c826106ea565b6001600160a01b0316816001600160a01b031614610d785760405162461bcd60e51b81526020600482015260096024820152683130b22fb0b1ba37b960b91b6044820152606401610651565b6001600160a01b0385811660008181526020818152604080832080547fffffffffffffffffffffffff000000000000000000000000000000000000000016958916958617905560028252918290205482519485529084015290917f38a5a6e68f30ed1ab45860a4afb34bcb2fc00f22ca462d249b8a8d40cda6f7a3910160405180910390a2505050506001600160a01b03166000908152600260205260409020439055565b8383610e28826106ea565b6001600160a01b0316816001600160a01b031614610e745760405162461bcd60e51b81526020600482015260096024820152683130b22fb0b1ba37b960b91b6044820152606401610651565b6001600160a01b03868116600081815260016020908152604080832081518084018b90528251808203850181528184018085528151918601919091208652918452828520968a16808652968452828520429081905586865260029094529190932054928990526060810194909452608084015260a0830152907f5a5084339536bcab65f20799fcc58724588145ca054bd2be626174b27ba156f79060c001610b13565b8484610f22826106ea565b6001600160a01b0316816001600160a01b031614610f6e5760405162461bcd60e51b81526020600482015260096024820152683130b22fb0b1ba37b960b91b6044820152606401610651565b610f788342611738565b6001600160a01b03888116600081815260016020908152604080832081518084018d9052825180820385018152908301835280519084012084528252808320948a16835293905291909120919091557f5a5084339536bcab65f20799fcc58724588145ca054bd2be626174b27ba156f78686610ff48742611738565b6001600160a01b038c811660009081526002602090815260409182902054825196875294909216918501919091528301526060820152608001610cf5565b82805461103e9061177c565b90600052602060002090601f01602090048101928261106057600085556110a6565b82601f1061107957805160ff19168380011785556110a6565b828001600101855582156110a6579182015b828111156110a657825182559160200191906001019061108b565b506110b29291506110b6565b5090565b5b808211156110b257600081556001016110b7565b600067ffffffffffffffff808411156110e6576110e66117e8565b604051601f8501601f19908116603f0116810190828211818310171561110e5761110e6117e8565b8160405280935085815286868601111561112757600080fd5b858560208301376000602087830101525050509392505050565b80356001600160a01b038116811461115857600080fd5b919050565b600082601f83011261116e57600080fd5b61117d838335602085016110cb565b9392505050565b803560ff8116811461115857600080fd5b6000602082840312156111a757600080fd5b61117d82611141565b600080604083850312156111c357600080fd5b6111cc83611141565b91506111da60208401611141565b90509250929050565b6000806000606084860312156111f857600080fd5b61120184611141565b92506020840135915061121660408501611141565b90509250925092565b6000806000806080858703121561123557600080fd5b61123e85611141565b93506020850135925061125360408601611141565b9396929550929360600135925050565b60008060006060848603121561127857600080fd5b61128184611141565b925060208401359150604084013567ffffffffffffffff8111156112a457600080fd5b6112b08682870161115d565b9150509250925092565b600080600080608085870312156112d057600080fd5b6112d985611141565b935060208501359250604085013567ffffffffffffffff8111156112fc57600080fd5b6113088782880161115d565b949793965093946060013593505050565b6000806040838503121561132c57600080fd5b61133583611141565b9150602083013567ffffffffffffffff81111561135157600080fd5b8301601f8101851361136257600080fd5b611371858235602084016110cb565b9150509250929050565b600080600080600060a0868803121561139357600080fd5b61139c86611141565b94506113aa60208701611184565b935060408601359250606086013591506113c660808701611141565b90509295509295909350565b60008060008060008060c087890312156113eb57600080fd5b6113f487611141565b955061140260208801611184565b945060408701359350606087013592506080870135915061142560a08801611141565b90509295509295509295565b600080600080600080600060e0888a03121561144c57600080fd5b61145588611141565b965061146360208901611184565b955060408801359450606088013593506080880135925061148660a08901611141565b915060c0880135905092959891949750929550565b60008060008060008060c087890312156114b457600080fd5b6114bd87611141565b95506114cb60208801611184565b945060408701359350606087013592506080870135915060a087013567ffffffffffffffff8111156114fc57600080fd5b61150889828a0161115d565b9150509295509295509295565b600080600080600080600060e0888a03121561153057600080fd5b61153988611141565b965061154760208901611184565b955060408801359450606088013593506080880135925060a088013567ffffffffffffffff81111561157857600080fd5b6115848a828b0161115d565b92505060c0880135905092959891949750929550565b600081518084526115b2816020860160208601611750565b601f01601f19169290920160200192915050565b60006001600160f81b0319808a1683528089166001840152506bffffffffffffffffffffffff19808860601b166002840152866016840152808660601b166036840152507f7265766f6b654174747269627574650000000000000000000000000000000000604a8301528360598301528251611649816079850160208701611750565b9190910160790198975050505050505050565b60006001600160f81b0319808b168352808a166001840152506bffffffffffffffffffffffff19808960601b166002840152876016840152808760601b166036840152507f7365744174747269627574650000000000000000000000000000000000000000604a83015284605683015283516116df816076850160208801611750565b607692019182019290925260960198975050505050505050565b848152608060208201526000611712608083018661159a565b6040830194909452506060015292915050565b60208152600061117d602083018461159a565b6000821982111561174b5761174b6117d2565b500190565b60005b8381101561176b578181015183820152602001611753565b838111156106d85750506000910152565b600181811c9082168061179057607f821691505b602082108114156117b157634e487b7160e01b600052602260045260246000fd5b50919050565b60006000198214156117cb576117cb6117d2565b5060010190565b634e487b7160e01b600052601160045260246000fd5b634e487b7160e01b600052604160045260246000fdfea2646970667358221220dc1d9c4723801a483154fc1d8910ad4de1bb32e283e29704456dbff30253f61c64736f6c63430008060033",
    "linkReferences": {},
    "deployedLinkReferences": {}
}