{
  "_format": "hh-sol-artifact-1",
  "contractName": "LiquidityAndStaking",
  "sourceName": "contracts/LiquidityAndStaking.sol",
  "abi": [
    {
      "inputs": [
        {
          "internalType": "address",
          "name": "_token",
          "type": "address"
        }
      ],
      "stateMutability": "nonpayable",
      "type": "constructor"
    },
    {
      "inputs": [
        {
          "internalType": "address",
          "name": "owner",
          "type": "address"
        }
      ],
      "name": "OwnableInvalidOwner",
      "type": "error"
    },
    {
      "inputs": [
        {
          "internalType": "address",
          "name": "account",
          "type": "address"
        }
      ],
      "name": "OwnableUnauthorizedAccount",
      "type": "error"
    },
    {
      "anonymous": false,
      "inputs": [
        {
          "indexed": false,
          "internalType": "uint256",
          "name": "amount",
          "type": "uint256"
        }
      ],
      "name": "InitialLiquidityProvided",
      "type": "event"
    },
    {
      "anonymous": false,
      "inputs": [
        {
          "indexed": false,
          "internalType": "uint256",
          "name": "newAllocation",
          "type": "uint256"
        }
      ],
      "name": "LiquidityAdjusted",
      "type": "event"
    },
    {
      "anonymous": false,
      "inputs": [
        {
          "indexed": false,
          "internalType": "uint256",
          "name": "amount",
          "type": "uint256"
        }
      ],
      "name": "LiquidityWithdrawn",
      "type": "event"
    },
    {
      "anonymous": false,
      "inputs": [
        {
          "indexed": true,
          "internalType": "address",
          "name": "previousOwner",
          "type": "address"
        },
        {
          "indexed": true,
          "internalType": "address",
          "name": "newOwner",
          "type": "address"
        }
      ],
      "name": "OwnershipTransferred",
      "type": "event"
    },
    {
      "anonymous": false,
      "inputs": [
        {
          "indexed": true,
          "internalType": "address",
          "name": "user",
          "type": "address"
        },
        {
          "indexed": false,
          "internalType": "uint256",
          "name": "amount",
          "type": "uint256"
        }
      ],
      "name": "RewardsClaimed",
      "type": "event"
    },
    {
      "anonymous": false,
      "inputs": [
        {
          "indexed": false,
          "internalType": "uint256",
          "name": "amount",
          "type": "uint256"
        }
      ],
      "name": "TokensPreMinted",
      "type": "event"
    },
    {
      "anonymous": false,
      "inputs": [
        {
          "indexed": true,
          "internalType": "address",
          "name": "user",
          "type": "address"
        },
        {
          "indexed": false,
          "internalType": "uint256",
          "name": "amount",
          "type": "uint256"
        }
      ],
      "name": "TokensStaked",
      "type": "event"
    },
    {
      "anonymous": false,
      "inputs": [
        {
          "indexed": true,
          "internalType": "address",
          "name": "user",
          "type": "address"
        },
        {
          "indexed": false,
          "internalType": "uint256",
          "name": "amount",
          "type": "uint256"
        }
      ],
      "name": "TokensUnstaked",
      "type": "event"
    },
    {
      "inputs": [
        {
          "internalType": "uint256",
          "name": "newAllocation",
          "type": "uint256"
        }
      ],
      "name": "adjustLiquidity",
      "outputs": [],
      "stateMutability": "nonpayable",
      "type": "function"
    },
    {
      "inputs": [],
      "name": "claimRewards",
      "outputs": [],
      "stateMutability": "nonpayable",
      "type": "function"
    },
    {
      "inputs": [],
      "name": "initialLiquidityProvided",
      "outputs": [
        {
          "internalType": "uint256",
          "name": "",
          "type": "uint256"
        }
      ],
      "stateMutability": "view",
      "type": "function"
    },
    {
      "inputs": [],
      "name": "lastUpdateTime",
      "outputs": [
        {
          "internalType": "uint256",
          "name": "",
          "type": "uint256"
        }
      ],
      "stateMutability": "view",
      "type": "function"
    },
    {
      "inputs": [],
      "name": "owner",
      "outputs": [
        {
          "internalType": "address",
          "name": "",
          "type": "address"
        }
      ],
      "stateMutability": "view",
      "type": "function"
    },
    {
      "inputs": [
        {
          "internalType": "uint256",
          "name": "amount",
          "type": "uint256"
        }
      ],
      "name": "preMint",
      "outputs": [],
      "stateMutability": "nonpayable",
      "type": "function"
    },
    {
      "inputs": [
        {
          "internalType": "uint256",
          "name": "amount",
          "type": "uint256"
        },
        {
          "internalType": "address",
          "name": "liquidityPool",
          "type": "address"
        }
      ],
      "name": "provideInitialLiquidity",
      "outputs": [],
      "stateMutability": "nonpayable",
      "type": "function"
    },
    {
      "inputs": [],
      "name": "renounceOwnership",
      "outputs": [],
      "stateMutability": "nonpayable",
      "type": "function"
    },
    {
      "inputs": [
        {
          "internalType": "address",
          "name": "",
          "type": "address"
        }
      ],
      "name": "rewardBalances",
      "outputs": [
        {
          "internalType": "uint256",
          "name": "",
          "type": "uint256"
        }
      ],
      "stateMutability": "view",
      "type": "function"
    },
    {
      "inputs": [],
      "name": "rewardRate",
      "outputs": [
        {
          "internalType": "uint256",
          "name": "",
          "type": "uint256"
        }
      ],
      "stateMutability": "view",
      "type": "function"
    },
    {
      "inputs": [
        {
          "internalType": "uint256",
          "name": "_rewardRate",
          "type": "uint256"
        }
      ],
      "name": "setRewardRate",
      "outputs": [],
      "stateMutability": "nonpayable",
      "type": "function"
    },
    {
      "inputs": [
        {
          "internalType": "uint256",
          "name": "amount",
          "type": "uint256"
        }
      ],
      "name": "stake",
      "outputs": [],
      "stateMutability": "nonpayable",
      "type": "function"
    },
    {
      "inputs": [
        {
          "internalType": "address",
          "name": "",
          "type": "address"
        }
      ],
      "name": "stakedBalances",
      "outputs": [
        {
          "internalType": "uint256",
          "name": "",
          "type": "uint256"
        }
      ],
      "stateMutability": "view",
      "type": "function"
    },
    {
      "inputs": [],
      "name": "token",
      "outputs": [
        {
          "internalType": "contract IERC20",
          "name": "",
          "type": "address"
        }
      ],
      "stateMutability": "view",
      "type": "function"
    },
    {
      "inputs": [],
      "name": "totalLiquidityAllocated",
      "outputs": [
        {
          "internalType": "uint256",
          "name": "",
          "type": "uint256"
        }
      ],
      "stateMutability": "view",
      "type": "function"
    },
    {
      "inputs": [],
      "name": "totalStaked",
      "outputs": [
        {
          "internalType": "uint256",
          "name": "",
          "type": "uint256"
        }
      ],
      "stateMutability": "view",
      "type": "function"
    },
    {
      "inputs": [
        {
          "internalType": "address",
          "name": "newOwner",
          "type": "address"
        }
      ],
      "name": "transferOwnership",
      "outputs": [],
      "stateMutability": "nonpayable",
      "type": "function"
    },
    {
      "inputs": [
        {
          "internalType": "uint256",
          "name": "amount",
          "type": "uint256"
        }
      ],
      "name": "unstake",
      "outputs": [],
      "stateMutability": "nonpayable",
      "type": "function"
    },
    {
      "inputs": [
        {
          "internalType": "uint256",
          "name": "amount",
          "type": "uint256"
        }
      ],
      "name": "withdrawLiquidity",
      "outputs": [],
      "stateMutability": "nonpayable",
      "type": "function"
    }
  ],
  "bytecode": "0x608060405234801561001057600080fd5b50604051611e09380380611e0983398181016040528101906100329190610292565b33600073ffffffffffffffffffffffffffffffffffffffff168173ffffffffffffffffffffffffffffffffffffffff16036100a55760006040517f1e4fbdf700000000000000000000000000000000000000000000000000000000815260040161009c91906102ce565b60405180910390fd5b6100b48161016b60201b60201c565b50600073ffffffffffffffffffffffffffffffffffffffff168173ffffffffffffffffffffffffffffffffffffffff1603610124576040517f08c379a000000000000000000000000000000000000000000000000000000000815260040161011b90610346565b60405180910390fd5b80600160006101000a81548173ffffffffffffffffffffffffffffffffffffffff021916908373ffffffffffffffffffffffffffffffffffffffff16021790555050610366565b60008060009054906101000a900473ffffffffffffffffffffffffffffffffffffffff169050816000806101000a81548173ffffffffffffffffffffffffffffffffffffffff021916908373ffffffffffffffffffffffffffffffffffffffff1602179055508173ffffffffffffffffffffffffffffffffffffffff168173ffffffffffffffffffffffffffffffffffffffff167f8be0079c531659141344cd1fd0a4f28419497f9722a3daafe3b4186f6b6457e060405160405180910390a35050565b600080fd5b600073ffffffffffffffffffffffffffffffffffffffff82169050919050565b600061025f82610234565b9050919050565b61026f81610254565b811461027a57600080fd5b50565b60008151905061028c81610266565b92915050565b6000602082840312156102a8576102a761022f565b5b60006102b68482850161027d565b91505092915050565b6102c881610254565b82525050565b60006020820190506102e360008301846102bf565b92915050565b600082825260208201905092915050565b7f546f6b656e20616464726573732063616e6e6f74206265207a65726f00000000600082015250565b6000610330601c836102e9565b915061033b826102fa565b602082019050919050565b6000602082019050818103600083015261035f81610323565b9050919050565b611a94806103756000396000f3fe608060405234801561001057600080fd5b50600436106101215760003560e01c8063882c24d2116100ad578063a089adbc11610071578063a089adbc146102bc578063a694fc3a146102d8578063c8f33c91146102f4578063f2fde38b14610312578063fc0c546a1461032e57610121565b8063882c24d21461021a5780638ad433ac146102365780638da5cb5b1461025257806393c8dc6d146102705780639e447fc6146102a057610121565b8063372500ab116100f4578063372500ab146101ac578063715018a6146101b65780637b0a47ee146101c05780637ea28f05146101de578063817b1cd2146101fc57610121565b80630a861f2a146101265780631460fa8714610142578063262c7ea5146101725780632e17de7814610190575b600080fd5b610140600480360381019061013b9190611349565b61034c565b005b61015c600480360381019061015791906113d4565b61050e565b6040516101699190611410565b60405180910390f35b61017a610526565b6040516101879190611410565b60405180910390f35b6101aa60048036038101906101a59190611349565b61052c565b005b6101b4610799565b005b6101be61099e565b005b6101c86109b2565b6040516101d59190611410565b60405180910390f35b6101e66109b8565b6040516101f39190611410565b60405180910390f35b6102046109be565b6040516102119190611410565b60405180910390f35b610234600480360381019061022f919061142b565b6109c4565b005b610250600480360381019061024b9190611349565b610bd3565b005b61025a610d52565b604051610267919061147a565b60405180910390f35b61028a600480360381019061028591906113d4565b610d7b565b6040516102979190611410565b60405180910390f35b6102ba60048036038101906102b59190611349565b610d93565b005b6102d660048036038101906102d19190611349565b610da5565b005b6102f260048036038101906102ed9190611349565b610e33565b005b6102fc611020565b6040516103099190611410565b60405180910390f35b61032c600480360381019061032791906113d4565b611026565b005b6103366110ac565b60405161034391906114f4565b60405180910390f35b6103546110d2565b60008111610397576040517f08c379a000000000000000000000000000000000000000000000000000000000815260040161038e9061156c565b60405180910390fd5b6002548111156103dc576040517f08c379a00000000000000000000000000000000000000000000000000000000081526004016103d3906115d8565b60405180910390fd5b80600260008282546103ee9190611627565b92505081905550600160009054906101000a900473ffffffffffffffffffffffffffffffffffffffff1673ffffffffffffffffffffffffffffffffffffffff1663a9059cbb33836040518363ffffffff1660e01b815260040161045292919061165b565b6020604051808303816000875af1158015610471573d6000803e3d6000fd5b505050506040513d601f19601f8201168201806040525081019061049591906116bc565b6104d4576040517f08c379a00000000000000000000000000000000000000000000000000000000081526004016104cb90611735565b60405180910390fd5b7f73ce532f480864bd2fccd1bcdbb4c8151f02cd9450c4f3e5b834ef74503abdb2816040516105039190611410565b60405180910390a150565b60076020528060005260406000206000915090505481565b60035481565b6000811161056f576040517f08c379a00000000000000000000000000000000000000000000000000000000081526004016105669061156c565b60405180910390fd5b80600760003373ffffffffffffffffffffffffffffffffffffffff1673ffffffffffffffffffffffffffffffffffffffff1681526020019081526020016000205410156105f1576040517f08c379a00000000000000000000000000000000000000000000000000000000081526004016105e8906117a1565b60405180910390fd5b6105fa33611159565b80600760003373ffffffffffffffffffffffffffffffffffffffff1673ffffffffffffffffffffffffffffffffffffffff16815260200190815260200160002060008282546106499190611627565b9250508190555080600460008282546106629190611627565b92505081905550600160009054906101000a900473ffffffffffffffffffffffffffffffffffffffff1673ffffffffffffffffffffffffffffffffffffffff1663a9059cbb33836040518363ffffffff1660e01b81526004016106c692919061165b565b6020604051808303816000875af11580156106e5573d6000803e3d6000fd5b505050506040513d601f19601f8201168201806040525081019061070991906116bc565b610748576040517f08c379a000000000000000000000000000000000000000000000000000000000815260040161073f90611735565b60405180910390fd5b3373ffffffffffffffffffffffffffffffffffffffff167f9845e367b683334e5c0b12d7b81721ac518e649376fa65e3d68324e8f34f26798260405161078e9190611410565b60405180910390a250565b6107a233611159565b6000600860003373ffffffffffffffffffffffffffffffffffffffff1673ffffffffffffffffffffffffffffffffffffffff16815260200190815260200160002054905060008111610829576040517f08c379a00000000000000000000000000000000000000000000000000000000081526004016108209061180d565b60405180910390fd5b6000600860003373ffffffffffffffffffffffffffffffffffffffff1673ffffffffffffffffffffffffffffffffffffffff16815260200190815260200160002081905550600160009054906101000a900473ffffffffffffffffffffffffffffffffffffffff1673ffffffffffffffffffffffffffffffffffffffff1663a9059cbb33836040518363ffffffff1660e01b81526004016108cb92919061165b565b6020604051808303816000875af11580156108ea573d6000803e3d6000fd5b505050506040513d601f19601f8201168201806040525081019061090e91906116bc565b61094d576040517f08c379a000000000000000000000000000000000000000000000000000000000815260040161094490611735565b60405180910390fd5b3373ffffffffffffffffffffffffffffffffffffffff167ffc30cddea38e2bf4d6ea7d3f9ed3b6ad7f176419f4963bd81318067a4aee73fe826040516109939190611410565b60405180910390a250565b6109a66110d2565b6109b06000611242565b565b60055481565b60025481565b60045481565b6109cc6110d2565b60008211610a0f576040517f08c379a0000000000000000000000000000000000000000000000000000000008152600401610a069061156c565b60405180910390fd5b600060035414610a54576040517f08c379a0000000000000000000000000000000000000000000000000000000008152600401610a4b9061189f565b60405180910390fd5b600254821115610a99576040517f08c379a0000000000000000000000000000000000000000000000000000000008152600401610a90906115d8565b60405180910390fd5b816003819055508160026000828254610ab29190611627565b92505081905550600160009054906101000a900473ffffffffffffffffffffffffffffffffffffffff1673ffffffffffffffffffffffffffffffffffffffff1663a9059cbb82846040518363ffffffff1660e01b8152600401610b1692919061165b565b6020604051808303816000875af1158015610b35573d6000803e3d6000fd5b505050506040513d601f19601f82011682018060405250810190610b5991906116bc565b610b98576040517f08c379a0000000000000000000000000000000000000000000000000000000008152600401610b8f90611735565b60405180910390fd5b7f8aaa76d90840c1cbcc8fd44ef5f4f066758254e0c2d704c3e8e8788679a56a5982604051610bc79190611410565b60405180910390a15050565b610bdb6110d2565b60008111610c1e576040517f08c379a0000000000000000000000000000000000000000000000000000000008152600401610c159061156c565b60405180910390fd5b600160009054906101000a900473ffffffffffffffffffffffffffffffffffffffff1673ffffffffffffffffffffffffffffffffffffffff166323b872dd3330846040518463ffffffff1660e01b8152600401610c7d939291906118bf565b6020604051808303816000875af1158015610c9c573d6000803e3d6000fd5b505050506040513d601f19601f82011682018060405250810190610cc091906116bc565b610cff576040517f08c379a0000000000000000000000000000000000000000000000000000000008152600401610cf690611735565b60405180910390fd5b8060026000828254610d1191906118f6565b925050819055507f873083b0010efc956b916eb88fb86cee799b2c3c96953872437dfd502a28421181604051610d479190611410565b60405180910390a150565b60008060009054906101000a900473ffffffffffffffffffffffffffffffffffffffff16905090565b60086020528060005260406000206000915090505481565b610d9b6110d2565b8060058190555050565b610dad6110d2565b600354811015610df2576040517f08c379a0000000000000000000000000000000000000000000000000000000008152600401610de99061199c565b60405180910390fd5b806002819055507ffe9b5617d82b8df12b504d0c285a64bb5c0157bf13f98c41a515ed0ee83e8b9281604051610e289190611410565b60405180910390a150565b60008111610e76576040517f08c379a0000000000000000000000000000000000000000000000000000000008152600401610e6d9061156c565b60405180910390fd5b610e7f33611159565b80600760003373ffffffffffffffffffffffffffffffffffffffff1673ffffffffffffffffffffffffffffffffffffffff1681526020019081526020016000206000828254610ece91906118f6565b925050819055508060046000828254610ee791906118f6565b92505081905550600160009054906101000a900473ffffffffffffffffffffffffffffffffffffffff1673ffffffffffffffffffffffffffffffffffffffff166323b872dd3330846040518463ffffffff1660e01b8152600401610f4d939291906118bf565b6020604051808303816000875af1158015610f6c573d6000803e3d6000fd5b505050506040513d601f19601f82011682018060405250810190610f9091906116bc565b610fcf576040517f08c379a0000000000000000000000000000000000000000000000000000000008152600401610fc690611735565b60405180910390fd5b3373ffffffffffffffffffffffffffffffffffffffff167fb539ca1e5c8d398ddf1c41c30166f33404941683be4683319b57669a93dad4ef826040516110159190611410565b60405180910390a250565b60065481565b61102e6110d2565b600073ffffffffffffffffffffffffffffffffffffffff168173ffffffffffffffffffffffffffffffffffffffff16036110a05760006040517f1e4fbdf7000000000000000000000000000000000000000000000000000000008152600401611097919061147a565b60405180910390fd5b6110a981611242565b50565b600160009054906101000a900473ffffffffffffffffffffffffffffffffffffffff1681565b6110da611306565b73ffffffffffffffffffffffffffffffffffffffff166110f8610d52565b73ffffffffffffffffffffffffffffffffffffffff16146111575761111b611306565b6040517f118cdaa700000000000000000000000000000000000000000000000000000000815260040161114e919061147a565b60405180910390fd5b565b6000600654426111699190611627565b9050426006819055506000600454111561123e5760006005548261118d91906119bc565b9050600454600760008573ffffffffffffffffffffffffffffffffffffffff1673ffffffffffffffffffffffffffffffffffffffff16815260200190815260200160002054826111dd91906119bc565b6111e79190611a2d565b600860008573ffffffffffffffffffffffffffffffffffffffff1673ffffffffffffffffffffffffffffffffffffffff168152602001908152602001600020600082825461123591906118f6565b92505081905550505b5050565b60008060009054906101000a900473ffffffffffffffffffffffffffffffffffffffff169050816000806101000a81548173ffffffffffffffffffffffffffffffffffffffff021916908373ffffffffffffffffffffffffffffffffffffffff1602179055508173ffffffffffffffffffffffffffffffffffffffff168173ffffffffffffffffffffffffffffffffffffffff167f8be0079c531659141344cd1fd0a4f28419497f9722a3daafe3b4186f6b6457e060405160405180910390a35050565b600033905090565b600080fd5b6000819050919050565b61132681611313565b811461133157600080fd5b50565b6000813590506113438161131d565b92915050565b60006020828403121561135f5761135e61130e565b5b600061136d84828501611334565b91505092915050565b600073ffffffffffffffffffffffffffffffffffffffff82169050919050565b60006113a182611376565b9050919050565b6113b181611396565b81146113bc57600080fd5b50565b6000813590506113ce816113a8565b92915050565b6000602082840312156113ea576113e961130e565b5b60006113f8848285016113bf565b91505092915050565b61140a81611313565b82525050565b60006020820190506114256000830184611401565b92915050565b600080604083850312156114425761144161130e565b5b600061145085828601611334565b9250506020611461858286016113bf565b9150509250929050565b61147481611396565b82525050565b600060208201905061148f600083018461146b565b92915050565b6000819050919050565b60006114ba6114b56114b084611376565b611495565b611376565b9050919050565b60006114cc8261149f565b9050919050565b60006114de826114c1565b9050919050565b6114ee816114d3565b82525050565b600060208201905061150960008301846114e5565b92915050565b600082825260208201905092915050565b7f416d6f756e74206d7573742062652067726561746572207468616e207a65726f600082015250565b600061155660208361150f565b915061156182611520565b602082019050919050565b6000602082019050818103600083015261158581611549565b9050919050565b7f496e73756666696369656e7420616c6c6f6361746564206c6971756964697479600082015250565b60006115c260208361150f565b91506115cd8261158c565b602082019050919050565b600060208201905081810360008301526115f1816115b5565b9050919050565b7f4e487b7100000000000000000000000000000000000000000000000000000000600052601160045260246000fd5b600061163282611313565b915061163d83611313565b9250828203905081811115611655576116546115f8565b5b92915050565b6000604082019050611670600083018561146b565b61167d6020830184611401565b9392505050565b60008115159050919050565b61169981611684565b81146116a457600080fd5b50565b6000815190506116b681611690565b92915050565b6000602082840312156116d2576116d161130e565b5b60006116e0848285016116a7565b91505092915050565b7f546f6b656e207472616e73666572206661696c65640000000000000000000000600082015250565b600061171f60158361150f565b915061172a826116e9565b602082019050919050565b6000602082019050818103600083015261174e81611712565b9050919050565b7f496e73756666696369656e74207374616b65642062616c616e63650000000000600082015250565b600061178b601b8361150f565b915061179682611755565b602082019050919050565b600060208201905081810360008301526117ba8161177e565b9050919050565b7f4e6f207265776172647320746f20636c61696d00000000000000000000000000600082015250565b60006117f760138361150f565b9150611802826117c1565b602082019050919050565b60006020820190508181036000830152611826816117ea565b9050919050565b7f496e697469616c206c697175696469747920616c72656164792070726f76696460008201527f6564000000000000000000000000000000000000000000000000000000000000602082015250565b600061188960228361150f565b91506118948261182d565b604082019050919050565b600060208201905081810360008301526118b88161187c565b9050919050565b60006060820190506118d4600083018661146b565b6118e1602083018561146b565b6118ee6040830184611401565b949350505050565b600061190182611313565b915061190c83611313565b9250828201905080821115611924576119236115f8565b5b92915050565b7f4e657720616c6c6f636174696f6e2063616e6e6f74206265206c65737320746860008201527f616e2070726f7669646564206c69717569646974790000000000000000000000602082015250565b600061198660358361150f565b91506119918261192a565b604082019050919050565b600060208201905081810360008301526119b581611979565b9050919050565b60006119c782611313565b91506119d283611313565b92508282026119e081611313565b915082820484148315176119f7576119f66115f8565b5b5092915050565b7f4e487b7100000000000000000000000000000000000000000000000000000000600052601260045260246000fd5b6000611a3882611313565b9150611a4383611313565b925082611a5357611a526119fe565b5b82820490509291505056fea2646970667358221220452a03a751519c8d24df2d6ff5b2a7f86b49f4fdbbbf5feded860d122478344064736f6c634300081b0033",
  "linkReferences": {},
  "deployedLinkReferences": {}
}