{
  "_format": "hh-sol-artifact-1",
  "contractName": "SFuelDistributor",
  "sourceName": "contracts/SFuelDistributor.sol",
  "abi": [
    {
      "inputs": [],
      "stateMutability": "nonpayable",
      "type": "constructor"
    },
    {
      "inputs": [],
      "name": "AccessControlBadConfirmation",
      "type": "error"
    },
    {
      "inputs": [
        {
          "internalType": "address",
          "name": "account",
          "type": "address"
        },
        {
          "internalType": "bytes32",
          "name": "neededRole",
          "type": "bytes32"
        }
      ],
      "name": "AccessControlUnauthorizedAccount",
      "type": "error"
    },
    {
      "inputs": [],
      "name": "ReentrancyGuardReentrantCall",
      "type": "error"
    },
    {
      "anonymous": false,
      "inputs": [
        {
          "indexed": true,
          "internalType": "uint256",
          "name": "originalAmount",
          "type": "uint256"
        },
        {
          "indexed": true,
          "internalType": "uint256",
          "name": "newAmount",
          "type": "uint256"
        },
        {
          "indexed": true,
          "internalType": "address",
          "name": "signer",
          "type": "address"
        }
      ],
      "name": "AmountUpdated",
      "type": "event"
    },
    {
      "anonymous": false,
      "inputs": [
        {
          "indexed": true,
          "internalType": "uint256",
          "name": "originalPeriod",
          "type": "uint256"
        },
        {
          "indexed": true,
          "internalType": "uint256",
          "name": "newPeriod",
          "type": "uint256"
        }
      ],
      "name": "CooldownUpdated",
      "type": "event"
    },
    {
      "anonymous": false,
      "inputs": [
        {
          "indexed": true,
          "internalType": "bytes32",
          "name": "role",
          "type": "bytes32"
        },
        {
          "indexed": true,
          "internalType": "bytes32",
          "name": "previousAdminRole",
          "type": "bytes32"
        },
        {
          "indexed": true,
          "internalType": "bytes32",
          "name": "newAdminRole",
          "type": "bytes32"
        }
      ],
      "name": "RoleAdminChanged",
      "type": "event"
    },
    {
      "anonymous": false,
      "inputs": [
        {
          "indexed": true,
          "internalType": "bytes32",
          "name": "role",
          "type": "bytes32"
        },
        {
          "indexed": true,
          "internalType": "address",
          "name": "account",
          "type": "address"
        },
        {
          "indexed": true,
          "internalType": "address",
          "name": "sender",
          "type": "address"
        }
      ],
      "name": "RoleGranted",
      "type": "event"
    },
    {
      "anonymous": false,
      "inputs": [
        {
          "indexed": true,
          "internalType": "bytes32",
          "name": "role",
          "type": "bytes32"
        },
        {
          "indexed": true,
          "internalType": "address",
          "name": "account",
          "type": "address"
        },
        {
          "indexed": true,
          "internalType": "address",
          "name": "sender",
          "type": "address"
        }
      ],
      "name": "RoleRevoked",
      "type": "event"
    },
    {
      "anonymous": false,
      "inputs": [
        {
          "indexed": true,
          "internalType": "address",
          "name": "to",
          "type": "address"
        },
        {
          "indexed": false,
          "internalType": "uint256",
          "name": "amount",
          "type": "uint256"
        }
      ],
      "name": "SFuelDistributed",
      "type": "event"
    },
    {
      "anonymous": false,
      "inputs": [
        {
          "indexed": true,
          "internalType": "uint256",
          "name": "originalThreshold",
          "type": "uint256"
        },
        {
          "indexed": true,
          "internalType": "uint256",
          "name": "newThreshold",
          "type": "uint256"
        }
      ],
      "name": "ThresholdUpdated",
      "type": "event"
    },
    {
      "anonymous": false,
      "inputs": [
        {
          "indexed": true,
          "internalType": "address",
          "name": "to",
          "type": "address"
        }
      ],
      "name": "Whitelist",
      "type": "event"
    },
    {
      "inputs": [],
      "name": "DEFAULT_ADMIN_ROLE",
      "outputs": [
        {
          "internalType": "bytes32",
          "name": "",
          "type": "bytes32"
        }
      ],
      "stateMutability": "view",
      "type": "function"
    },
    {
      "inputs": [],
      "name": "MANAGER_ROLE",
      "outputs": [
        {
          "internalType": "bytes32",
          "name": "",
          "type": "bytes32"
        }
      ],
      "stateMutability": "view",
      "type": "function"
    },
    {
      "inputs": [],
      "name": "WHITELIST_ROLE",
      "outputs": [
        {
          "internalType": "bytes32",
          "name": "",
          "type": "bytes32"
        }
      ],
      "stateMutability": "view",
      "type": "function"
    },
    {
      "inputs": [],
      "name": "cooldownPeriod",
      "outputs": [
        {
          "internalType": "uint256",
          "name": "",
          "type": "uint256"
        }
      ],
      "stateMutability": "view",
      "type": "function"
    },
    {
      "inputs": [],
      "name": "distributionAmount",
      "outputs": [
        {
          "internalType": "uint256",
          "name": "",
          "type": "uint256"
        }
      ],
      "stateMutability": "view",
      "type": "function"
    },
    {
      "inputs": [
        {
          "internalType": "bytes32",
          "name": "role",
          "type": "bytes32"
        }
      ],
      "name": "getRoleAdmin",
      "outputs": [
        {
          "internalType": "bytes32",
          "name": "",
          "type": "bytes32"
        }
      ],
      "stateMutability": "view",
      "type": "function"
    },
    {
      "inputs": [
        {
          "internalType": "bytes32",
          "name": "role",
          "type": "bytes32"
        },
        {
          "internalType": "address",
          "name": "account",
          "type": "address"
        }
      ],
      "name": "grantRole",
      "outputs": [],
      "stateMutability": "nonpayable",
      "type": "function"
    },
    {
      "inputs": [
        {
          "internalType": "bytes32",
          "name": "role",
          "type": "bytes32"
        },
        {
          "internalType": "address",
          "name": "account",
          "type": "address"
        }
      ],
      "name": "hasRole",
      "outputs": [
        {
          "internalType": "bool",
          "name": "",
          "type": "bool"
        }
      ],
      "stateMutability": "view",
      "type": "function"
    },
    {
      "inputs": [
        {
          "internalType": "address",
          "name": "user",
          "type": "address"
        }
      ],
      "name": "isEligibleForDistribution",
      "outputs": [
        {
          "internalType": "bool",
          "name": "",
          "type": "bool"
        }
      ],
      "stateMutability": "view",
      "type": "function"
    },
    {
      "inputs": [
        {
          "internalType": "address",
          "name": "",
          "type": "address"
        }
      ],
      "name": "lastDistribution",
      "outputs": [
        {
          "internalType": "uint256",
          "name": "",
          "type": "uint256"
        }
      ],
      "stateMutability": "view",
      "type": "function"
    },
    {
      "inputs": [
        {
          "internalType": "address",
          "name": "user",
          "type": "address"
        }
      ],
      "name": "removeFromWhitelist",
      "outputs": [],
      "stateMutability": "nonpayable",
      "type": "function"
    },
    {
      "inputs": [
        {
          "internalType": "bytes32",
          "name": "role",
          "type": "bytes32"
        },
        {
          "internalType": "address",
          "name": "callerConfirmation",
          "type": "address"
        }
      ],
      "name": "renounceRole",
      "outputs": [],
      "stateMutability": "nonpayable",
      "type": "function"
    },
    {
      "inputs": [
        {
          "internalType": "bytes32",
          "name": "role",
          "type": "bytes32"
        },
        {
          "internalType": "address",
          "name": "account",
          "type": "address"
        }
      ],
      "name": "revokeRole",
      "outputs": [],
      "stateMutability": "nonpayable",
      "type": "function"
    },
    {
      "inputs": [
        {
          "internalType": "bytes4",
          "name": "interfaceId",
          "type": "bytes4"
        }
      ],
      "name": "supportsInterface",
      "outputs": [
        {
          "internalType": "bool",
          "name": "",
          "type": "bool"
        }
      ],
      "stateMutability": "view",
      "type": "function"
    },
    {
      "inputs": [],
      "name": "threshold",
      "outputs": [
        {
          "internalType": "uint256",
          "name": "",
          "type": "uint256"
        }
      ],
      "stateMutability": "view",
      "type": "function"
    },
    {
      "inputs": [
        {
          "internalType": "uint256",
          "name": "newPeriod",
          "type": "uint256"
        }
      ],
      "name": "updateCooldownPeriod",
      "outputs": [],
      "stateMutability": "nonpayable",
      "type": "function"
    },
    {
      "inputs": [
        {
          "internalType": "uint256",
          "name": "newAmount",
          "type": "uint256"
        }
      ],
      "name": "updateDistributionAmount",
      "outputs": [],
      "stateMutability": "nonpayable",
      "type": "function"
    },
    {
      "inputs": [
        {
          "internalType": "uint256",
          "name": "newThreshold",
          "type": "uint256"
        }
      ],
      "name": "updateThreshold",
      "outputs": [],
      "stateMutability": "nonpayable",
      "type": "function"
    },
    {
      "inputs": [
        {
          "internalType": "address",
          "name": "to",
          "type": "address"
        }
      ],
      "name": "whitelist",
      "outputs": [],
      "stateMutability": "nonpayable",
      "type": "function"
    },
    {
      "inputs": [],
      "name": "withdraw",
      "outputs": [],
      "stateMutability": "nonpayable",
      "type": "function"
    },
    {
      "stateMutability": "payable",
      "type": "receive"
    }
  ],
  "bytecode": "0x60806040526509184e72a00060025565048c273950006003556201518060045534801561002b57600080fd5b50600180819055506100466000801b3361007d60201b60201c565b506100777f241ecf16d79d0f8dbfb92cbc07fe17840425976cf0667f022fe9877caa831b083361007d60201b60201c565b506101ec565b600061008f838361017a60201b60201c565b61016f57600160008085815260200190815260200160002060000160008473ffffffffffffffffffffffffffffffffffffffff1673ffffffffffffffffffffffffffffffffffffffff16815260200190815260200160002060006101000a81548160ff02191690831515021790555061010c6101e460201b60201c565b73ffffffffffffffffffffffffffffffffffffffff168273ffffffffffffffffffffffffffffffffffffffff16847f2f8788117e7eff1d82e926ec794901d17c78024a50270940304540a733656f0d60405160405180910390a460019050610174565b600090505b92915050565b600080600084815260200190815260200160002060000160008373ffffffffffffffffffffffffffffffffffffffff1673ffffffffffffffffffffffffffffffffffffffff16815260200190815260200160002060009054906101000a900460ff16905092915050565b600033905090565b6118de806101fb6000396000f3fe6080604052600436106101235760003560e01c8063861f6bfd116100a0578063b0e0c68111610064578063b0e0c681146103dc578063c68e95de14610407578063d547741f14610444578063d7d7442f1461046d578063ec87621c146104965761012a565b8063861f6bfd146102f95780638ab1d6811461032257806391d148541461034b5780639b19251a14610388578063a217fddf146103b15761012a565b806336568abe116100e757806336568abe146102265780633ccfd60b1461024f57806342cde4e81461026657806344b50bfc146102915780637a997ab7146102ce5761012a565b806301ffc9a71461012f57806304646a491461016c5780631986236414610197578063248a9ca3146101c05780632f2ff15d146101fd5761012a565b3661012a57005b600080fd5b34801561013b57600080fd5b5061015660048036038101906101519190611104565b6104c1565b604051610163919061114c565b60405180910390f35b34801561017857600080fd5b5061018161053b565b60405161018e9190611180565b60405180910390f35b3480156101a357600080fd5b506101be60048036038101906101b991906111c7565b610541565b005b3480156101cc57600080fd5b506101e760048036038101906101e2919061122a565b610608565b6040516101f49190611266565b60405180910390f35b34801561020957600080fd5b50610224600480360381019061021f91906112df565b610627565b005b34801561023257600080fd5b5061024d600480360381019061024891906112df565b610649565b005b34801561025b57600080fd5b506102646106c4565b005b34801561027257600080fd5b5061027b6107ca565b6040516102889190611180565b60405180910390f35b34801561029d57600080fd5b506102b860048036038101906102b3919061131f565b6107d0565b6040516102c59190611180565b60405180910390f35b3480156102da57600080fd5b506102e36107e8565b6040516102f09190611266565b60405180910390f35b34801561030557600080fd5b50610320600480360381019061031b91906111c7565b61080c565b005b34801561032e57600080fd5b506103496004803603810190610344919061131f565b610879565b005b34801561035757600080fd5b50610372600480360381019061036d91906112df565b61093b565b60405161037f919061114c565b60405180910390f35b34801561039457600080fd5b506103af60048036038101906103aa919061131f565b6109a5565b005b3480156103bd57600080fd5b506103c6610c2a565b6040516103d39190611266565b60405180910390f35b3480156103e857600080fd5b506103f1610c31565b6040516103fe9190611180565b60405180910390f35b34801561041357600080fd5b5061042e6004803603810190610429919061131f565b610c37565b60405161043b919061114c565b60405180910390f35b34801561045057600080fd5b5061046b600480360381019061046691906112df565b610cf7565b005b34801561047957600080fd5b50610494600480360381019061048f91906111c7565b610d19565b005b3480156104a257600080fd5b506104ab610dc9565b6040516104b89190611266565b60405180910390f35b60007f7965db0b000000000000000000000000000000000000000000000000000000007bffffffffffffffffffffffffffffffffffffffffffffffffffffffff1916827bffffffffffffffffffffffffffffffffffffffffffffffffffffffff19161480610534575061053382610ded565b5b9050919050565b60045481565b7f241ecf16d79d0f8dbfb92cbc07fe17840425976cf0667f022fe9877caa831b0861056b81610e57565b600082116105ae576040517f08c379a00000000000000000000000000000000000000000000000000000000081526004016105a5906113a9565b60405180910390fd5b60006002549050826002819055503373ffffffffffffffffffffffffffffffffffffffff16600254827f32598843ebd8872cccdb9c21be935270ca4d457ae763774808d1b802e33f123360405160405180910390a4505050565b6000806000838152602001908152602001600020600101549050919050565b61063082610608565b61063981610e57565b6106438383610e6b565b50505050565b610651610f5c565b73ffffffffffffffffffffffffffffffffffffffff168173ffffffffffffffffffffffffffffffffffffffff16146106b5576040517f6697b23200000000000000000000000000000000000000000000000000000000815260040160405180910390fd5b6106bf8282610f64565b505050565b6000801b6106d181610e57565b600047905060008111610719576040517f08c379a00000000000000000000000000000000000000000000000000000000081526004016107109061143b565b60405180910390fd5b60003373ffffffffffffffffffffffffffffffffffffffff168260405161073f9061148c565b60006040518083038185875af1925050503d806000811461077c576040519150601f19603f3d011682016040523d82523d6000602084013e610781565b606091505b50509050806107c5576040517f08c379a00000000000000000000000000000000000000000000000000000000081526004016107bc90611513565b60405180910390fd5b505050565b60035481565b60056020528060005260406000206000915090505481565b7fdc72ed553f2544c34465af23b847953efeb813428162d767f9ba5f4013be676081565b7f241ecf16d79d0f8dbfb92cbc07fe17840425976cf0667f022fe9877caa831b0861083681610e57565b6000600454905082600481905550600454817f5953b565c074c2cce1866b4e69c9efc4908556bb6fca70f735907c94d940551560405160405180910390a3505050565b7f241ecf16d79d0f8dbfb92cbc07fe17840425976cf0667f022fe9877caa831b086108a381610e57565b6108cd7fdc72ed553f2544c34465af23b847953efeb813428162d767f9ba5f4013be67608361093b565b61090c576040517f08c379a0000000000000000000000000000000000000000000000000000000008152600401610903906115a5565b60405180910390fd5b6109367fdc72ed553f2544c34465af23b847953efeb813428162d767f9ba5f4013be676083610f64565b505050565b600080600084815260200190815260200160002060000160008373ffffffffffffffffffffffffffffffffffffffff1673ffffffffffffffffffffffffffffffffffffffff16815260200190815260200160002060009054906101000a900460ff16905092915050565b6109cf7fdc72ed553f2544c34465af23b847953efeb813428162d767f9ba5f4013be67608261093b565b15610a0f576040517f08c379a0000000000000000000000000000000000000000000000000000000008152600401610a0690611637565b60405180910390fd5b6003548173ffffffffffffffffffffffffffffffffffffffff16311015610bb957600254471015610a75576040517f08c379a0000000000000000000000000000000000000000000000000000000008152600401610a6c906116c9565b60405180910390fd5b42600560008373ffffffffffffffffffffffffffffffffffffffff1673ffffffffffffffffffffffffffffffffffffffff1681526020019081526020016000208190555060008173ffffffffffffffffffffffffffffffffffffffff16600254604051610ae19061148c565b60006040518083038185875af1925050503d8060008114610b1e576040519150601f19603f3d011682016040523d82523d6000602084013e610b23565b606091505b5050905080610b67576040517f08c379a0000000000000000000000000000000000000000000000000000000008152600401610b5e9061175b565b60405180910390fd5b8173ffffffffffffffffffffffffffffffffffffffff167fba4f995f4892d6e061ec6479355c03c1b2a422a3de6dc4ec6a32c009fc9f8aa5600254604051610baf9190611180565b60405180910390a2505b610be37fdc72ed553f2544c34465af23b847953efeb813428162d767f9ba5f4013be676082610e6b565b508073ffffffffffffffffffffffffffffffffffffffff167feb73900b98b6a3e2b8b01708fe544760cf570d21e7fbe5225f24e48b5b2b432e60405160405180910390a250565b6000801b81565b60025481565b6000806003548373ffffffffffffffffffffffffffffffffffffffff16311090506000600454600560008673ffffffffffffffffffffffffffffffffffffffff1673ffffffffffffffffffffffffffffffffffffffff16815260200190815260200160002054610ca791906117aa565b421190506000610cd77fdc72ed553f2544c34465af23b847953efeb813428162d767f9ba5f4013be67608661093b565b159050828015610ce45750815b8015610ced5750805b9350505050919050565b610d0082610608565b610d0981610e57565b610d138383610f64565b50505050565b7f241ecf16d79d0f8dbfb92cbc07fe17840425976cf0667f022fe9877caa831b08610d4381610e57565b60008211610d86576040517f08c379a0000000000000000000000000000000000000000000000000000000008152600401610d7d90611850565b60405180910390fd5b6000600354905082600381905550600354817fb06a54caabe58475c86c2bf9df3f2f06dd1213e9e10659c293117fe4893b274b60405160405180910390a3505050565b7f241ecf16d79d0f8dbfb92cbc07fe17840425976cf0667f022fe9877caa831b0881565b60007f01ffc9a7000000000000000000000000000000000000000000000000000000007bffffffffffffffffffffffffffffffffffffffffffffffffffffffff1916827bffffffffffffffffffffffffffffffffffffffffffffffffffffffff1916149050919050565b610e6881610e63610f5c565b611056565b50565b6000610e77838361093b565b610f5157600160008085815260200190815260200160002060000160008473ffffffffffffffffffffffffffffffffffffffff1673ffffffffffffffffffffffffffffffffffffffff16815260200190815260200160002060006101000a81548160ff021916908315150217905550610eee610f5c565b73ffffffffffffffffffffffffffffffffffffffff168273ffffffffffffffffffffffffffffffffffffffff16847f2f8788117e7eff1d82e926ec794901d17c78024a50270940304540a733656f0d60405160405180910390a460019050610f56565b600090505b92915050565b600033905090565b6000610f70838361093b565b1561104b57600080600085815260200190815260200160002060000160008473ffffffffffffffffffffffffffffffffffffffff1673ffffffffffffffffffffffffffffffffffffffff16815260200190815260200160002060006101000a81548160ff021916908315150217905550610fe8610f5c565b73ffffffffffffffffffffffffffffffffffffffff168273ffffffffffffffffffffffffffffffffffffffff16847ff6391f5c32d9c69d2a47ea670b442974b53935d1edc7fd64eb21e047a839171b60405160405180910390a460019050611050565b600090505b92915050565b611060828261093b565b6110a35780826040517fe2517d3f00000000000000000000000000000000000000000000000000000000815260040161109a92919061187f565b60405180910390fd5b5050565b600080fd5b60007fffffffff0000000000000000000000000000000000000000000000000000000082169050919050565b6110e1816110ac565b81146110ec57600080fd5b50565b6000813590506110fe816110d8565b92915050565b60006020828403121561111a576111196110a7565b5b6000611128848285016110ef565b91505092915050565b60008115159050919050565b61114681611131565b82525050565b6000602082019050611161600083018461113d565b92915050565b6000819050919050565b61117a81611167565b82525050565b60006020820190506111956000830184611171565b92915050565b6111a481611167565b81146111af57600080fd5b50565b6000813590506111c18161119b565b92915050565b6000602082840312156111dd576111dc6110a7565b5b60006111eb848285016111b2565b91505092915050565b6000819050919050565b611207816111f4565b811461121257600080fd5b50565b600081359050611224816111fe565b92915050565b6000602082840312156112405761123f6110a7565b5b600061124e84828501611215565b91505092915050565b611260816111f4565b82525050565b600060208201905061127b6000830184611257565b92915050565b600073ffffffffffffffffffffffffffffffffffffffff82169050919050565b60006112ac82611281565b9050919050565b6112bc816112a1565b81146112c757600080fd5b50565b6000813590506112d9816112b3565b92915050565b600080604083850312156112f6576112f56110a7565b5b600061130485828601611215565b9250506020611315858286016112ca565b9150509250929050565b600060208284031215611335576113346110a7565b5b6000611343848285016112ca565b91505092915050565b600082825260208201905092915050565b7f534675656c4469737472696275746f723a20496e76616c696420416d6f756e74600082015250565b600061139360208361134c565b915061139e8261135d565b602082019050919050565b600060208201905081810360008301526113c281611386565b9050919050565b7f534675656c4469737472696275746f723a204e6f2062616c616e636520746f2060008201527f7769746864726177000000000000000000000000000000000000000000000000602082015250565b600061142560288361134c565b9150611430826113c9565b604082019050919050565b6000602082019050818103600083015261145481611418565b9050919050565b600081905092915050565b50565b600061147660008361145b565b915061148182611466565b600082019050919050565b600061149782611469565b9150819050919050565b7f534675656c4469737472696275746f723a205769746864726177616c2066616960008201527f6c65640000000000000000000000000000000000000000000000000000000000602082015250565b60006114fd60238361134c565b9150611508826114a1565b604082019050919050565b6000602082019050818103600083015261152c816114f0565b9050919050565b7f534675656c4469737472696275746f723a204e6f742077686974656c6973746560008201527f6400000000000000000000000000000000000000000000000000000000000000602082015250565b600061158f60218361134c565b915061159a82611533565b604082019050919050565b600060208201905081810360008301526115be81611582565b9050919050565b7f534675656c4469737472696275746f723a20416c72656164792077686974656c60008201527f6973746564000000000000000000000000000000000000000000000000000000602082015250565b600061162160258361134c565b915061162c826115c5565b604082019050919050565b6000602082019050818103600083015261165081611614565b9050919050565b7f534675656c4469737472696275746f723a20436f6e7472616374206f7574206f60008201527f6620734655454c00000000000000000000000000000000000000000000000000602082015250565b60006116b360278361134c565b91506116be82611657565b604082019050919050565b600060208201905081810360008301526116e2816116a6565b9050919050565b7f534675656c4469737472696275746f723a20734655454c207472616e7366657260008201527f206661696c656400000000000000000000000000000000000000000000000000602082015250565b600061174560278361134c565b9150611750826116e9565b604082019050919050565b6000602082019050818103600083015261177481611738565b9050919050565b7f4e487b7100000000000000000000000000000000000000000000000000000000600052601160045260246000fd5b60006117b582611167565b91506117c083611167565b92508282019050808211156117d8576117d761177b565b5b92915050565b7f534675656c4469737472696275746f723a20496e76616c69642054687265736860008201527f6f6c640000000000000000000000000000000000000000000000000000000000602082015250565b600061183a60238361134c565b9150611845826117de565b604082019050919050565b600060208201905081810360008301526118698161182d565b9050919050565b611879816112a1565b82525050565b60006040820190506118946000830185611870565b6118a16020830184611257565b939250505056fea2646970667358221220beaf15e2e71cbbbdb2f40b85a1de033956e8109cb08f332379e528d4c279a55464736f6c634300081b0033",
  "linkReferences": {},
  "deployedLinkReferences": {}
}