{
  "_format": "hh-sol-artifact-1",
  "contractName": "SFuelDistributor",
  "sourceName": "contracts/SFuelDistributor.sol",
  "abi": [
    {
      "inputs": [],
      "stateMutability": "nonpayable",
      "type": "constructor"
    },
    {
      "inputs": [],
      "name": "AccessControlBadConfirmation",
      "type": "error"
    },
    {
      "inputs": [
        {
          "internalType": "address",
          "name": "account",
          "type": "address"
        },
        {
          "internalType": "bytes32",
          "name": "neededRole",
          "type": "bytes32"
        }
      ],
      "name": "AccessControlUnauthorizedAccount",
      "type": "error"
    },
    {
      "inputs": [],
      "name": "ReentrancyGuardReentrantCall",
      "type": "error"
    },
    {
      "anonymous": false,
      "inputs": [
        {
          "indexed": true,
          "internalType": "uint256",
          "name": "originalAmount",
          "type": "uint256"
        },
        {
          "indexed": true,
          "internalType": "uint256",
          "name": "newAmount",
          "type": "uint256"
        },
        {
          "indexed": true,
          "internalType": "address",
          "name": "signer",
          "type": "address"
        }
      ],
      "name": "AmountUpdated",
      "type": "event"
    },
    {
      "anonymous": false,
      "inputs": [
        {
          "indexed": true,
          "internalType": "uint256",
          "name": "originalPeriod",
          "type": "uint256"
        },
        {
          "indexed": true,
          "internalType": "uint256",
          "name": "newPeriod",
          "type": "uint256"
        }
      ],
      "name": "CooldownUpdated",
      "type": "event"
    },
    {
      "anonymous": false,
      "inputs": [
        {
          "indexed": true,
          "internalType": "bytes32",
          "name": "role",
          "type": "bytes32"
        },
        {
          "indexed": true,
          "internalType": "bytes32",
          "name": "previousAdminRole",
          "type": "bytes32"
        },
        {
          "indexed": true,
          "internalType": "bytes32",
          "name": "newAdminRole",
          "type": "bytes32"
        }
      ],
      "name": "RoleAdminChanged",
      "type": "event"
    },
    {
      "anonymous": false,
      "inputs": [
        {
          "indexed": true,
          "internalType": "bytes32",
          "name": "role",
          "type": "bytes32"
        },
        {
          "indexed": true,
          "internalType": "address",
          "name": "account",
          "type": "address"
        },
        {
          "indexed": true,
          "internalType": "address",
          "name": "sender",
          "type": "address"
        }
      ],
      "name": "RoleGranted",
      "type": "event"
    },
    {
      "anonymous": false,
      "inputs": [
        {
          "indexed": true,
          "internalType": "bytes32",
          "name": "role",
          "type": "bytes32"
        },
        {
          "indexed": true,
          "internalType": "address",
          "name": "account",
          "type": "address"
        },
        {
          "indexed": true,
          "internalType": "address",
          "name": "sender",
          "type": "address"
        }
      ],
      "name": "RoleRevoked",
      "type": "event"
    },
    {
      "anonymous": false,
      "inputs": [
        {
          "indexed": true,
          "internalType": "address",
          "name": "to",
          "type": "address"
        },
        {
          "indexed": false,
          "internalType": "uint256",
          "name": "amount",
          "type": "uint256"
        }
      ],
      "name": "SFuelDistributed",
      "type": "event"
    },
    {
      "anonymous": false,
      "inputs": [
        {
          "indexed": true,
          "internalType": "uint256",
          "name": "originalThreshold",
          "type": "uint256"
        },
        {
          "indexed": true,
          "internalType": "uint256",
          "name": "newThreshold",
          "type": "uint256"
        }
      ],
      "name": "ThresholdUpdated",
      "type": "event"
    },
    {
      "anonymous": false,
      "inputs": [
        {
          "indexed": true,
          "internalType": "address",
          "name": "to",
          "type": "address"
        }
      ],
      "name": "Whitelist",
      "type": "event"
    },
    {
      "inputs": [],
      "name": "DEFAULT_ADMIN_ROLE",
      "outputs": [
        {
          "internalType": "bytes32",
          "name": "",
          "type": "bytes32"
        }
      ],
      "stateMutability": "view",
      "type": "function"
    },
    {
      "inputs": [],
      "name": "MANAGER_ROLE",
      "outputs": [
        {
          "internalType": "bytes32",
          "name": "",
          "type": "bytes32"
        }
      ],
      "stateMutability": "view",
      "type": "function"
    },
    {
      "inputs": [],
      "name": "WHITELIST_ROLE",
      "outputs": [
        {
          "internalType": "bytes32",
          "name": "",
          "type": "bytes32"
        }
      ],
      "stateMutability": "view",
      "type": "function"
    },
    {
      "inputs": [],
      "name": "cooldownPeriod",
      "outputs": [
        {
          "internalType": "uint256",
          "name": "",
          "type": "uint256"
        }
      ],
      "stateMutability": "view",
      "type": "function"
    },
    {
      "inputs": [],
      "name": "distributionAmount",
      "outputs": [
        {
          "internalType": "uint256",
          "name": "",
          "type": "uint256"
        }
      ],
      "stateMutability": "view",
      "type": "function"
    },
    {
      "inputs": [
        {
          "internalType": "bytes32",
          "name": "role",
          "type": "bytes32"
        }
      ],
      "name": "getRoleAdmin",
      "outputs": [
        {
          "internalType": "bytes32",
          "name": "",
          "type": "bytes32"
        }
      ],
      "stateMutability": "view",
      "type": "function"
    },
    {
      "inputs": [
        {
          "internalType": "bytes32",
          "name": "role",
          "type": "bytes32"
        },
        {
          "internalType": "address",
          "name": "account",
          "type": "address"
        }
      ],
      "name": "grantRole",
      "outputs": [],
      "stateMutability": "nonpayable",
      "type": "function"
    },
    {
      "inputs": [
        {
          "internalType": "bytes32",
          "name": "role",
          "type": "bytes32"
        },
        {
          "internalType": "address",
          "name": "account",
          "type": "address"
        }
      ],
      "name": "hasRole",
      "outputs": [
        {
          "internalType": "bool",
          "name": "",
          "type": "bool"
        }
      ],
      "stateMutability": "view",
      "type": "function"
    },
    {
      "inputs": [
        {
          "internalType": "address",
          "name": "user",
          "type": "address"
        }
      ],
      "name": "isEligibleForDistribution",
      "outputs": [
        {
          "internalType": "bool",
          "name": "",
          "type": "bool"
        }
      ],
      "stateMutability": "view",
      "type": "function"
    },
    {
      "inputs": [
        {
          "internalType": "address",
          "name": "",
          "type": "address"
        }
      ],
      "name": "lastDistribution",
      "outputs": [
        {
          "internalType": "uint256",
          "name": "",
          "type": "uint256"
        }
      ],
      "stateMutability": "view",
      "type": "function"
    },
    {
      "inputs": [
        {
          "internalType": "address",
          "name": "user",
          "type": "address"
        }
      ],
      "name": "removeFromWhitelist",
      "outputs": [],
      "stateMutability": "nonpayable",
      "type": "function"
    },
    {
      "inputs": [
        {
          "internalType": "bytes32",
          "name": "role",
          "type": "bytes32"
        },
        {
          "internalType": "address",
          "name": "callerConfirmation",
          "type": "address"
        }
      ],
      "name": "renounceRole",
      "outputs": [],
      "stateMutability": "nonpayable",
      "type": "function"
    },
    {
      "inputs": [
        {
          "internalType": "bytes32",
          "name": "role",
          "type": "bytes32"
        },
        {
          "internalType": "address",
          "name": "account",
          "type": "address"
        }
      ],
      "name": "revokeRole",
      "outputs": [],
      "stateMutability": "nonpayable",
      "type": "function"
    },
    {
      "inputs": [
        {
          "internalType": "bytes4",
          "name": "interfaceId",
          "type": "bytes4"
        }
      ],
      "name": "supportsInterface",
      "outputs": [
        {
          "internalType": "bool",
          "name": "",
          "type": "bool"
        }
      ],
      "stateMutability": "view",
      "type": "function"
    },
    {
      "inputs": [],
      "name": "threshold",
      "outputs": [
        {
          "internalType": "uint256",
          "name": "",
          "type": "uint256"
        }
      ],
      "stateMutability": "view",
      "type": "function"
    },
    {
      "inputs": [
        {
          "internalType": "uint256",
          "name": "newPeriod",
          "type": "uint256"
        }
      ],
      "name": "updateCooldownPeriod",
      "outputs": [],
      "stateMutability": "nonpayable",
      "type": "function"
    },
    {
      "inputs": [
        {
          "internalType": "uint256",
          "name": "newAmount",
          "type": "uint256"
        }
      ],
      "name": "updateDistributionAmount",
      "outputs": [],
      "stateMutability": "nonpayable",
      "type": "function"
    },
    {
      "inputs": [
        {
          "internalType": "uint256",
          "name": "newThreshold",
          "type": "uint256"
        }
      ],
      "name": "updateThreshold",
      "outputs": [],
      "stateMutability": "nonpayable",
      "type": "function"
    },
    {
      "inputs": [
        {
          "internalType": "address",
          "name": "to",
          "type": "address"
        }
      ],
      "name": "whitelist",
      "outputs": [],
      "stateMutability": "nonpayable",
      "type": "function"
    },
    {
      "inputs": [],
      "name": "withdraw",
      "outputs": [],
      "stateMutability": "nonpayable",
      "type": "function"
    },
    {
      "stateMutability": "payable",
      "type": "receive"
    }
  ],
  "bytecode": "0x60806040526509184e72a00060025565048c273950006003556201518060045534801561002b57600080fd5b50600180819055506100466000801b3361007d60201b60201c565b506100777f241ecf16d79d0f8dbfb92cbc07fe17840425976cf0667f022fe9877caa831b083361007d60201b60201c565b506101ec565b600061008f838361017a60201b60201c565b61016f57600160008085815260200190815260200160002060000160008473ffffffffffffffffffffffffffffffffffffffff1673ffffffffffffffffffffffffffffffffffffffff16815260200190815260200160002060006101000a81548160ff02191690831515021790555061010c6101e460201b60201c565b73ffffffffffffffffffffffffffffffffffffffff168273ffffffffffffffffffffffffffffffffffffffff16847f2f8788117e7eff1d82e926ec794901d17c78024a50270940304540a733656f0d60405160405180910390a460019050610174565b600090505b92915050565b600080600084815260200190815260200160002060000160008373ffffffffffffffffffffffffffffffffffffffff1673ffffffffffffffffffffffffffffffffffffffff16815260200190815260200160002060009054906101000a900460ff16905092915050565b600033905090565b611909806101fb6000396000f3fe6080604052600436106101235760003560e01c8063861f6bfd116100a0578063b0e0c68111610064578063b0e0c681146103dc578063c68e95de14610407578063d547741f14610444578063d7d7442f1461046d578063ec87621c146104965761012a565b8063861f6bfd146102f95780638ab1d6811461032257806391d148541461034b5780639b19251a14610388578063a217fddf146103b15761012a565b806336568abe116100e757806336568abe146102265780633ccfd60b1461024f57806342cde4e81461026657806344b50bfc146102915780637a997ab7146102ce5761012a565b806301ffc9a71461012f57806304646a491461016c5780631986236414610197578063248a9ca3146101c05780632f2ff15d146101fd5761012a565b3661012a57005b600080fd5b34801561013b57600080fd5b506101566004803603810190610151919061112f565b6104c1565b6040516101639190611177565b60405180910390f35b34801561017857600080fd5b5061018161053b565b60405161018e91906111ab565b60405180910390f35b3480156101a357600080fd5b506101be60048036038101906101b991906111f2565b610541565b005b3480156101cc57600080fd5b506101e760048036038101906101e29190611255565b610608565b6040516101f49190611291565b60405180910390f35b34801561020957600080fd5b50610224600480360381019061021f919061130a565b610627565b005b34801561023257600080fd5b5061024d6004803603810190610248919061130a565b610649565b005b34801561025b57600080fd5b506102646106c4565b005b34801561027257600080fd5b5061027b6107ca565b60405161028891906111ab565b60405180910390f35b34801561029d57600080fd5b506102b860048036038101906102b3919061134a565b6107d0565b6040516102c591906111ab565b60405180910390f35b3480156102da57600080fd5b506102e36107e8565b6040516102f09190611291565b60405180910390f35b34801561030557600080fd5b50610320600480360381019061031b91906111f2565b61080c565b005b34801561032e57600080fd5b506103496004803603810190610344919061134a565b610879565b005b34801561035757600080fd5b50610372600480360381019061036d919061130a565b61093b565b60405161037f9190611177565b60405180910390f35b34801561039457600080fd5b506103af60048036038101906103aa919061134a565b6109a5565b005b3480156103bd57600080fd5b506103c6610c55565b6040516103d39190611291565b60405180910390f35b3480156103e857600080fd5b506103f1610c5c565b6040516103fe91906111ab565b60405180910390f35b34801561041357600080fd5b5061042e6004803603810190610429919061134a565b610c62565b60405161043b9190611177565b60405180910390f35b34801561045057600080fd5b5061046b6004803603810190610466919061130a565b610d22565b005b34801561047957600080fd5b50610494600480360381019061048f91906111f2565b610d44565b005b3480156104a257600080fd5b506104ab610df4565b6040516104b89190611291565b60405180910390f35b60007f7965db0b000000000000000000000000000000000000000000000000000000007bffffffffffffffffffffffffffffffffffffffffffffffffffffffff1916827bffffffffffffffffffffffffffffffffffffffffffffffffffffffff19161480610534575061053382610e18565b5b9050919050565b60045481565b7f241ecf16d79d0f8dbfb92cbc07fe17840425976cf0667f022fe9877caa831b0861056b81610e82565b600082116105ae576040517f08c379a00000000000000000000000000000000000000000000000000000000081526004016105a5906113d4565b60405180910390fd5b60006002549050826002819055503373ffffffffffffffffffffffffffffffffffffffff16600254827f32598843ebd8872cccdb9c21be935270ca4d457ae763774808d1b802e33f123360405160405180910390a4505050565b6000806000838152602001908152602001600020600101549050919050565b61063082610608565b61063981610e82565b6106438383610e96565b50505050565b610651610f87565b73ffffffffffffffffffffffffffffffffffffffff168173ffffffffffffffffffffffffffffffffffffffff16146106b5576040517f6697b23200000000000000000000000000000000000000000000000000000000815260040160405180910390fd5b6106bf8282610f8f565b505050565b6000801b6106d181610e82565b600047905060008111610719576040517f08c379a000000000000000000000000000000000000000000000000000000000815260040161071090611466565b60405180910390fd5b60003373ffffffffffffffffffffffffffffffffffffffff168260405161073f906114b7565b60006040518083038185875af1925050503d806000811461077c576040519150601f19603f3d011682016040523d82523d6000602084013e610781565b606091505b50509050806107c5576040517f08c379a00000000000000000000000000000000000000000000000000000000081526004016107bc9061153e565b60405180910390fd5b505050565b60035481565b60056020528060005260406000206000915090505481565b7fdc72ed553f2544c34465af23b847953efeb813428162d767f9ba5f4013be676081565b7f241ecf16d79d0f8dbfb92cbc07fe17840425976cf0667f022fe9877caa831b0861083681610e82565b6000600454905082600481905550600454817f5953b565c074c2cce1866b4e69c9efc4908556bb6fca70f735907c94d940551560405160405180910390a3505050565b7f241ecf16d79d0f8dbfb92cbc07fe17840425976cf0667f022fe9877caa831b086108a381610e82565b6108cd7fdc72ed553f2544c34465af23b847953efeb813428162d767f9ba5f4013be67608361093b565b61090c576040517f08c379a0000000000000000000000000000000000000000000000000000000008152600401610903906115d0565b60405180910390fd5b6109367fdc72ed553f2544c34465af23b847953efeb813428162d767f9ba5f4013be676083610f8f565b505050565b600080600084815260200190815260200160002060000160008373ffffffffffffffffffffffffffffffffffffffff1673ffffffffffffffffffffffffffffffffffffffff16815260200190815260200160002060009054906101000a900460ff16905092915050565b7f241ecf16d79d0f8dbfb92cbc07fe17840425976cf0667f022fe9877caa831b086109cf81610e82565b6109f97fdc72ed553f2544c34465af23b847953efeb813428162d767f9ba5f4013be67608361093b565b15610a39576040517f08c379a0000000000000000000000000000000000000000000000000000000008152600401610a3090611662565b60405180910390fd5b6003548273ffffffffffffffffffffffffffffffffffffffff16311015610be357600254471015610a9f576040517f08c379a0000000000000000000000000000000000000000000000000000000008152600401610a96906116f4565b60405180910390fd5b42600560008473ffffffffffffffffffffffffffffffffffffffff1673ffffffffffffffffffffffffffffffffffffffff1681526020019081526020016000208190555060008273ffffffffffffffffffffffffffffffffffffffff16600254604051610b0b906114b7565b60006040518083038185875af1925050503d8060008114610b48576040519150601f19603f3d011682016040523d82523d6000602084013e610b4d565b606091505b5050905080610b91576040517f08c379a0000000000000000000000000000000000000000000000000000000008152600401610b8890611786565b60405180910390fd5b8273ffffffffffffffffffffffffffffffffffffffff167fba4f995f4892d6e061ec6479355c03c1b2a422a3de6dc4ec6a32c009fc9f8aa5600254604051610bd991906111ab565b60405180910390a2505b610c0d7fdc72ed553f2544c34465af23b847953efeb813428162d767f9ba5f4013be676083610e96565b508173ffffffffffffffffffffffffffffffffffffffff167feb73900b98b6a3e2b8b01708fe544760cf570d21e7fbe5225f24e48b5b2b432e60405160405180910390a25050565b6000801b81565b60025481565b6000806003548373ffffffffffffffffffffffffffffffffffffffff16311090506000600454600560008673ffffffffffffffffffffffffffffffffffffffff1673ffffffffffffffffffffffffffffffffffffffff16815260200190815260200160002054610cd291906117d5565b421190506000610d027fdc72ed553f2544c34465af23b847953efeb813428162d767f9ba5f4013be67608661093b565b159050828015610d0f5750815b8015610d185750805b9350505050919050565b610d2b82610608565b610d3481610e82565b610d3e8383610f8f565b50505050565b7f241ecf16d79d0f8dbfb92cbc07fe17840425976cf0667f022fe9877caa831b08610d6e81610e82565b60008211610db1576040517f08c379a0000000000000000000000000000000000000000000000000000000008152600401610da89061187b565b60405180910390fd5b6000600354905082600381905550600354817fb06a54caabe58475c86c2bf9df3f2f06dd1213e9e10659c293117fe4893b274b60405160405180910390a3505050565b7f241ecf16d79d0f8dbfb92cbc07fe17840425976cf0667f022fe9877caa831b0881565b60007f01ffc9a7000000000000000000000000000000000000000000000000000000007bffffffffffffffffffffffffffffffffffffffffffffffffffffffff1916827bffffffffffffffffffffffffffffffffffffffffffffffffffffffff1916149050919050565b610e9381610e8e610f87565b611081565b50565b6000610ea2838361093b565b610f7c57600160008085815260200190815260200160002060000160008473ffffffffffffffffffffffffffffffffffffffff1673ffffffffffffffffffffffffffffffffffffffff16815260200190815260200160002060006101000a81548160ff021916908315150217905550610f19610f87565b73ffffffffffffffffffffffffffffffffffffffff168273ffffffffffffffffffffffffffffffffffffffff16847f2f8788117e7eff1d82e926ec794901d17c78024a50270940304540a733656f0d60405160405180910390a460019050610f81565b600090505b92915050565b600033905090565b6000610f9b838361093b565b1561107657600080600085815260200190815260200160002060000160008473ffffffffffffffffffffffffffffffffffffffff1673ffffffffffffffffffffffffffffffffffffffff16815260200190815260200160002060006101000a81548160ff021916908315150217905550611013610f87565b73ffffffffffffffffffffffffffffffffffffffff168273ffffffffffffffffffffffffffffffffffffffff16847ff6391f5c32d9c69d2a47ea670b442974b53935d1edc7fd64eb21e047a839171b60405160405180910390a46001905061107b565b600090505b92915050565b61108b828261093b565b6110ce5780826040517fe2517d3f0000000000000000000000000000000000000000000000000000000081526004016110c59291906118aa565b60405180910390fd5b5050565b600080fd5b60007fffffffff0000000000000000000000000000000000000000000000000000000082169050919050565b61110c816110d7565b811461111757600080fd5b50565b60008135905061112981611103565b92915050565b600060208284031215611145576111446110d2565b5b60006111538482850161111a565b91505092915050565b60008115159050919050565b6111718161115c565b82525050565b600060208201905061118c6000830184611168565b92915050565b6000819050919050565b6111a581611192565b82525050565b60006020820190506111c0600083018461119c565b92915050565b6111cf81611192565b81146111da57600080fd5b50565b6000813590506111ec816111c6565b92915050565b600060208284031215611208576112076110d2565b5b6000611216848285016111dd565b91505092915050565b6000819050919050565b6112328161121f565b811461123d57600080fd5b50565b60008135905061124f81611229565b92915050565b60006020828403121561126b5761126a6110d2565b5b600061127984828501611240565b91505092915050565b61128b8161121f565b82525050565b60006020820190506112a66000830184611282565b92915050565b600073ffffffffffffffffffffffffffffffffffffffff82169050919050565b60006112d7826112ac565b9050919050565b6112e7816112cc565b81146112f257600080fd5b50565b600081359050611304816112de565b92915050565b60008060408385031215611321576113206110d2565b5b600061132f85828601611240565b9250506020611340858286016112f5565b9150509250929050565b6000602082840312156113605761135f6110d2565b5b600061136e848285016112f5565b91505092915050565b600082825260208201905092915050565b7f534675656c4469737472696275746f723a20496e76616c696420416d6f756e74600082015250565b60006113be602083611377565b91506113c982611388565b602082019050919050565b600060208201905081810360008301526113ed816113b1565b9050919050565b7f534675656c4469737472696275746f723a204e6f2062616c616e636520746f2060008201527f7769746864726177000000000000000000000000000000000000000000000000602082015250565b6000611450602883611377565b915061145b826113f4565b604082019050919050565b6000602082019050818103600083015261147f81611443565b9050919050565b600081905092915050565b50565b60006114a1600083611486565b91506114ac82611491565b600082019050919050565b60006114c282611494565b9150819050919050565b7f534675656c4469737472696275746f723a205769746864726177616c2066616960008201527f6c65640000000000000000000000000000000000000000000000000000000000602082015250565b6000611528602383611377565b9150611533826114cc565b604082019050919050565b600060208201905081810360008301526115578161151b565b9050919050565b7f534675656c4469737472696275746f723a204e6f742077686974656c6973746560008201527f6400000000000000000000000000000000000000000000000000000000000000602082015250565b60006115ba602183611377565b91506115c58261155e565b604082019050919050565b600060208201905081810360008301526115e9816115ad565b9050919050565b7f534675656c4469737472696275746f723a20416c72656164792077686974656c60008201527f6973746564000000000000000000000000000000000000000000000000000000602082015250565b600061164c602583611377565b9150611657826115f0565b604082019050919050565b6000602082019050818103600083015261167b8161163f565b9050919050565b7f534675656c4469737472696275746f723a20436f6e7472616374206f7574206f60008201527f6620734655454c00000000000000000000000000000000000000000000000000602082015250565b60006116de602783611377565b91506116e982611682565b604082019050919050565b6000602082019050818103600083015261170d816116d1565b9050919050565b7f534675656c4469737472696275746f723a20734655454c207472616e7366657260008201527f206661696c656400000000000000000000000000000000000000000000000000602082015250565b6000611770602783611377565b915061177b82611714565b604082019050919050565b6000602082019050818103600083015261179f81611763565b9050919050565b7f4e487b7100000000000000000000000000000000000000000000000000000000600052601160045260246000fd5b60006117e082611192565b91506117eb83611192565b9250828201905080821115611803576118026117a6565b5b92915050565b7f534675656c4469737472696275746f723a20496e76616c69642054687265736860008201527f6f6c640000000000000000000000000000000000000000000000000000000000602082015250565b6000611865602383611377565b915061187082611809565b604082019050919050565b6000602082019050818103600083015261189481611858565b9050919050565b6118a4816112cc565b82525050565b60006040820190506118bf600083018561189b565b6118cc6020830184611282565b939250505056fea264697066735822122081b83953e3a419ba6643d06af45d27c41292a0b42da8878fa525cddbc751c4d064736f6c634300081b0033",
  "linkReferences": {},
  "deployedLinkReferences": {}
}