{
  "_format": "hh-sol-artifact-1",
  "contractName": "Ecosystem",
  "sourceName": "contracts/Ecosystem  Contracts/Ecosystem.sol",
  "abi": [
    {
      "inputs": [
        {
          "internalType": "address[]",
          "name": "_admins",
          "type": "address[]"
        }
      ],
      "stateMutability": "nonpayable",
      "type": "constructor"
    },
    {
      "inputs": [],
      "name": "AccessControlBadConfirmation",
      "type": "error"
    },
    {
      "inputs": [
        {
          "internalType": "address",
          "name": "account",
          "type": "address"
        },
        {
          "internalType": "bytes32",
          "name": "neededRole",
          "type": "bytes32"
        }
      ],
      "name": "AccessControlUnauthorizedAccount",
      "type": "error"
    },
    {
      "inputs": [
        {
          "internalType": "address",
          "name": "spender",
          "type": "address"
        },
        {
          "internalType": "uint256",
          "name": "allowance",
          "type": "uint256"
        },
        {
          "internalType": "uint256",
          "name": "needed",
          "type": "uint256"
        }
      ],
      "name": "ERC20InsufficientAllowance",
      "type": "error"
    },
    {
      "inputs": [
        {
          "internalType": "address",
          "name": "sender",
          "type": "address"
        },
        {
          "internalType": "uint256",
          "name": "balance",
          "type": "uint256"
        },
        {
          "internalType": "uint256",
          "name": "needed",
          "type": "uint256"
        }
      ],
      "name": "ERC20InsufficientBalance",
      "type": "error"
    },
    {
      "inputs": [
        {
          "internalType": "address",
          "name": "approver",
          "type": "address"
        }
      ],
      "name": "ERC20InvalidApprover",
      "type": "error"
    },
    {
      "inputs": [
        {
          "internalType": "address",
          "name": "receiver",
          "type": "address"
        }
      ],
      "name": "ERC20InvalidReceiver",
      "type": "error"
    },
    {
      "inputs": [
        {
          "internalType": "address",
          "name": "sender",
          "type": "address"
        }
      ],
      "name": "ERC20InvalidSender",
      "type": "error"
    },
    {
      "inputs": [
        {
          "internalType": "address",
          "name": "spender",
          "type": "address"
        }
      ],
      "name": "ERC20InvalidSpender",
      "type": "error"
    },
    {
      "inputs": [],
      "name": "ReentrancyGuardReentrantCall",
      "type": "error"
    },
    {
      "anonymous": false,
      "inputs": [
        {
          "indexed": true,
          "internalType": "address",
          "name": "owner",
          "type": "address"
        },
        {
          "indexed": true,
          "internalType": "address",
          "name": "spender",
          "type": "address"
        },
        {
          "indexed": false,
          "internalType": "uint256",
          "name": "value",
          "type": "uint256"
        }
      ],
      "name": "Approval",
      "type": "event"
    },
    {
      "anonymous": false,
      "inputs": [
        {
          "indexed": true,
          "internalType": "address",
          "name": "_account",
          "type": "address"
        },
        {
          "indexed": false,
          "internalType": "uint256",
          "name": "_amount",
          "type": "uint256"
        }
      ],
      "name": "BurnSuccess",
      "type": "event"
    },
    {
      "anonymous": false,
      "inputs": [
        {
          "indexed": true,
          "internalType": "uint256",
          "name": "_courseID",
          "type": "uint256"
        },
        {
          "indexed": true,
          "internalType": "string",
          "name": "_courseName",
          "type": "string"
        },
        {
          "indexed": false,
          "internalType": "bool",
          "name": "_approved",
          "type": "bool"
        }
      ],
      "name": "CourseCreationSuccess",
      "type": "event"
    },
    {
      "anonymous": false,
      "inputs": [
        {
          "indexed": true,
          "internalType": "address",
          "name": "_to",
          "type": "address"
        },
        {
          "indexed": true,
          "internalType": "uint256",
          "name": "_amount",
          "type": "uint256"
        }
      ],
      "name": "EcosystemPoolUpdate",
      "type": "event"
    },
    {
      "anonymous": false,
      "inputs": [
        {
          "indexed": true,
          "internalType": "uint256",
          "name": "_courseId",
          "type": "uint256"
        },
        {
          "indexed": true,
          "internalType": "address",
          "name": "_by",
          "type": "address"
        }
      ],
      "name": "EnrollmentSuccess",
      "type": "event"
    },
    {
      "anonymous": false,
      "inputs": [
        {
          "indexed": true,
          "internalType": "address",
          "name": "_to",
          "type": "address"
        },
        {
          "indexed": true,
          "internalType": "uint256",
          "name": "_amount",
          "type": "uint256"
        }
      ],
      "name": "MintSuccess",
      "type": "event"
    },
    {
      "anonymous": false,
      "inputs": [
        {
          "indexed": true,
          "internalType": "bytes32",
          "name": "role",
          "type": "bytes32"
        },
        {
          "indexed": true,
          "internalType": "bytes32",
          "name": "previousAdminRole",
          "type": "bytes32"
        },
        {
          "indexed": true,
          "internalType": "bytes32",
          "name": "newAdminRole",
          "type": "bytes32"
        }
      ],
      "name": "RoleAdminChanged",
      "type": "event"
    },
    {
      "anonymous": false,
      "inputs": [
        {
          "indexed": true,
          "internalType": "bytes32",
          "name": "role",
          "type": "bytes32"
        },
        {
          "indexed": true,
          "internalType": "address",
          "name": "account",
          "type": "address"
        },
        {
          "indexed": true,
          "internalType": "address",
          "name": "sender",
          "type": "address"
        }
      ],
      "name": "RoleGranted",
      "type": "event"
    },
    {
      "anonymous": false,
      "inputs": [
        {
          "indexed": true,
          "internalType": "bytes32",
          "name": "role",
          "type": "bytes32"
        },
        {
          "indexed": true,
          "internalType": "address",
          "name": "account",
          "type": "address"
        },
        {
          "indexed": true,
          "internalType": "address",
          "name": "sender",
          "type": "address"
        }
      ],
      "name": "RoleRevoked",
      "type": "event"
    },
    {
      "anonymous": false,
      "inputs": [
        {
          "indexed": true,
          "internalType": "address",
          "name": "from",
          "type": "address"
        },
        {
          "indexed": true,
          "internalType": "address",
          "name": "to",
          "type": "address"
        },
        {
          "indexed": false,
          "internalType": "uint256",
          "name": "value",
          "type": "uint256"
        }
      ],
      "name": "Transfer",
      "type": "event"
    },
    {
      "anonymous": false,
      "inputs": [
        {
          "indexed": true,
          "internalType": "uint256",
          "name": "_courseId",
          "type": "uint256"
        },
        {
          "indexed": true,
          "internalType": "address",
          "name": "_by",
          "type": "address"
        }
      ],
      "name": "unEnrollmentSuccess",
      "type": "event"
    },
    {
      "inputs": [],
      "name": "ADMIN_ROLE",
      "outputs": [
        {
          "internalType": "bytes32",
          "name": "",
          "type": "bytes32"
        }
      ],
      "stateMutability": "view",
      "type": "function"
    },
    {
      "inputs": [],
      "name": "COURSE_OWNER_ROLE",
      "outputs": [
        {
          "internalType": "bytes32",
          "name": "",
          "type": "bytes32"
        }
      ],
      "stateMutability": "view",
      "type": "function"
    },
    {
      "inputs": [],
      "name": "CREATE_COURSE_REWARD",
      "outputs": [
        {
          "internalType": "uint256",
          "name": "",
          "type": "uint256"
        }
      ],
      "stateMutability": "view",
      "type": "function"
    },
    {
      "inputs": [],
      "name": "DEFAULT_ADMIN_ROLE",
      "outputs": [
        {
          "internalType": "bytes32",
          "name": "",
          "type": "bytes32"
        }
      ],
      "stateMutability": "view",
      "type": "function"
    },
    {
      "inputs": [],
      "name": "ECOSYSTEM_POOL",
      "outputs": [
        {
          "internalType": "uint256",
          "name": "",
          "type": "uint256"
        }
      ],
      "stateMutability": "view",
      "type": "function"
    },
    {
      "inputs": [],
      "name": "ENROLLMENT_REWARD",
      "outputs": [
        {
          "internalType": "uint256",
          "name": "",
          "type": "uint256"
        }
      ],
      "stateMutability": "view",
      "type": "function"
    },
    {
      "inputs": [],
      "name": "MAX_SCORE",
      "outputs": [
        {
          "internalType": "uint256",
          "name": "",
          "type": "uint256"
        }
      ],
      "stateMutability": "view",
      "type": "function"
    },
    {
      "inputs": [],
      "name": "MAX_SUPPLY",
      "outputs": [
        {
          "internalType": "uint256",
          "name": "",
          "type": "uint256"
        }
      ],
      "stateMutability": "view",
      "type": "function"
    },
    {
      "inputs": [],
      "name": "MIN_APPROVAL_SCORE",
      "outputs": [
        {
          "internalType": "uint256",
          "name": "",
          "type": "uint256"
        }
      ],
      "stateMutability": "view",
      "type": "function"
    },
    {
      "inputs": [],
      "name": "REQUIRED_APPROVALS",
      "outputs": [
        {
          "internalType": "uint256",
          "name": "",
          "type": "uint256"
        }
      ],
      "stateMutability": "view",
      "type": "function"
    },
    {
      "inputs": [
        {
          "internalType": "address",
          "name": "",
          "type": "address"
        }
      ],
      "name": "accountCourses",
      "outputs": [
        {
          "internalType": "uint256",
          "name": "courseCount",
          "type": "uint256"
        }
      ],
      "stateMutability": "view",
      "type": "function"
    },
    {
      "inputs": [
        {
          "internalType": "address",
          "name": "newAdmin",
          "type": "address"
        }
      ],
      "name": "addAdmin",
      "outputs": [],
      "stateMutability": "nonpayable",
      "type": "function"
    },
    {
      "inputs": [
        {
          "internalType": "address",
          "name": "owner",
          "type": "address"
        },
        {
          "internalType": "address",
          "name": "spender",
          "type": "address"
        }
      ],
      "name": "allowance",
      "outputs": [
        {
          "internalType": "uint256",
          "name": "",
          "type": "uint256"
        }
      ],
      "stateMutability": "view",
      "type": "function"
    },
    {
      "inputs": [
        {
          "internalType": "address",
          "name": "",
          "type": "address"
        },
        {
          "internalType": "uint256",
          "name": "",
          "type": "uint256"
        }
      ],
      "name": "approvals",
      "outputs": [
        {
          "internalType": "bool",
          "name": "",
          "type": "bool"
        }
      ],
      "stateMutability": "view",
      "type": "function"
    },
    {
      "inputs": [
        {
          "internalType": "address",
          "name": "spender",
          "type": "address"
        },
        {
          "internalType": "uint256",
          "name": "value",
          "type": "uint256"
        }
      ],
      "name": "approve",
      "outputs": [
        {
          "internalType": "bool",
          "name": "",
          "type": "bool"
        }
      ],
      "stateMutability": "nonpayable",
      "type": "function"
    },
    {
      "inputs": [
        {
          "internalType": "uint256",
          "name": "_courseId",
          "type": "uint256"
        }
      ],
      "name": "approveCourse",
      "outputs": [],
      "stateMutability": "nonpayable",
      "type": "function"
    },
    {
      "inputs": [
        {
          "internalType": "address",
          "name": "account",
          "type": "address"
        }
      ],
      "name": "balanceOf",
      "outputs": [
        {
          "internalType": "uint256",
          "name": "",
          "type": "uint256"
        }
      ],
      "stateMutability": "view",
      "type": "function"
    },
    {
      "inputs": [
        {
          "internalType": "uint256",
          "name": "",
          "type": "uint256"
        }
      ],
      "name": "chapter",
      "outputs": [
        {
          "internalType": "uint256",
          "name": "chapterId",
          "type": "uint256"
        },
        {
          "internalType": "string",
          "name": "chapterName",
          "type": "string"
        }
      ],
      "stateMutability": "view",
      "type": "function"
    },
    {
      "inputs": [
        {
          "internalType": "uint256",
          "name": "",
          "type": "uint256"
        },
        {
          "internalType": "uint256",
          "name": "",
          "type": "uint256"
        }
      ],
      "name": "chapterLessons",
      "outputs": [
        {
          "internalType": "string",
          "name": "",
          "type": "string"
        }
      ],
      "stateMutability": "view",
      "type": "function"
    },
    {
      "inputs": [
        {
          "internalType": "uint256",
          "name": "",
          "type": "uint256"
        },
        {
          "internalType": "uint256",
          "name": "",
          "type": "uint256"
        }
      ],
      "name": "courseChapters",
      "outputs": [
        {
          "internalType": "string",
          "name": "",
          "type": "string"
        }
      ],
      "stateMutability": "view",
      "type": "function"
    },
    {
      "inputs": [],
      "name": "courseCount",
      "outputs": [
        {
          "internalType": "uint256",
          "name": "",
          "type": "uint256"
        }
      ],
      "stateMutability": "view",
      "type": "function"
    },
    {
      "inputs": [
        {
          "internalType": "uint256",
          "name": "",
          "type": "uint256"
        }
      ],
      "name": "courseObject",
      "outputs": [
        {
          "internalType": "uint256",
          "name": "courseId",
          "type": "uint256"
        },
        {
          "internalType": "string",
          "name": "courseName",
          "type": "string"
        },
        {
          "internalType": "string",
          "name": "description",
          "type": "string"
        },
        {
          "internalType": "bool",
          "name": "approved",
          "type": "bool"
        },
        {
          "internalType": "uint256",
          "name": "approvalCount",
          "type": "uint256"
        },
        {
          "internalType": "address",
          "name": "creator",
          "type": "address"
        }
      ],
      "stateMutability": "view",
      "type": "function"
    },
    {
      "inputs": [
        {
          "internalType": "string",
          "name": "_courseName",
          "type": "string"
        },
        {
          "internalType": "string",
          "name": "_description",
          "type": "string"
        }
      ],
      "name": "createCourse",
      "outputs": [
        {
          "internalType": "bool",
          "name": "",
          "type": "bool"
        }
      ],
      "stateMutability": "nonpayable",
      "type": "function"
    },
    {
      "inputs": [],
      "name": "decimals",
      "outputs": [
        {
          "internalType": "uint8",
          "name": "",
          "type": "uint8"
        }
      ],
      "stateMutability": "view",
      "type": "function"
    },
    {
      "inputs": [],
      "name": "ecosystemPoolSupply",
      "outputs": [
        {
          "internalType": "uint256",
          "name": "",
          "type": "uint256"
        }
      ],
      "stateMutability": "view",
      "type": "function"
    },
    {
      "inputs": [
        {
          "internalType": "uint256",
          "name": "_courseId",
          "type": "uint256"
        }
      ],
      "name": "enroll",
      "outputs": [
        {
          "internalType": "bool",
          "name": "",
          "type": "bool"
        }
      ],
      "stateMutability": "nonpayable",
      "type": "function"
    },
    {
      "inputs": [],
      "name": "getAllCourses",
      "outputs": [
        {
          "components": [
            {
              "internalType": "uint256",
              "name": "courseId",
              "type": "uint256"
            },
            {
              "internalType": "string",
              "name": "courseName",
              "type": "string"
            },
            {
              "internalType": "string",
              "name": "description",
              "type": "string"
            },
            {
              "internalType": "bool",
              "name": "approved",
              "type": "bool"
            },
            {
              "internalType": "uint256",
              "name": "approvalCount",
              "type": "uint256"
            },
            {
              "internalType": "address",
              "name": "creator",
              "type": "address"
            }
          ],
          "internalType": "struct Ecosystem.Course[]",
          "name": "",
          "type": "tuple[]"
        }
      ],
      "stateMutability": "view",
      "type": "function"
    },
    {
      "inputs": [],
      "name": "getCurrentEcosystemPoolSupply",
      "outputs": [
        {
          "internalType": "uint256",
          "name": "",
          "type": "uint256"
        }
      ],
      "stateMutability": "view",
      "type": "function"
    },
    {
      "inputs": [
        {
          "internalType": "bytes32",
          "name": "role",
          "type": "bytes32"
        }
      ],
      "name": "getRoleAdmin",
      "outputs": [
        {
          "internalType": "bytes32",
          "name": "",
          "type": "bytes32"
        }
      ],
      "stateMutability": "view",
      "type": "function"
    },
    {
      "inputs": [
        {
          "internalType": "bytes32",
          "name": "role",
          "type": "bytes32"
        },
        {
          "internalType": "address",
          "name": "account",
          "type": "address"
        }
      ],
      "name": "grantRole",
      "outputs": [],
      "stateMutability": "nonpayable",
      "type": "function"
    },
    {
      "inputs": [
        {
          "internalType": "bytes32",
          "name": "role",
          "type": "bytes32"
        },
        {
          "internalType": "address",
          "name": "account",
          "type": "address"
        }
      ],
      "name": "hasRole",
      "outputs": [
        {
          "internalType": "bool",
          "name": "",
          "type": "bool"
        }
      ],
      "stateMutability": "view",
      "type": "function"
    },
    {
      "inputs": [
        {
          "internalType": "address",
          "name": "account",
          "type": "address"
        }
      ],
      "name": "isAdmin",
      "outputs": [
        {
          "internalType": "bool",
          "name": "",
          "type": "bool"
        }
      ],
      "stateMutability": "view",
      "type": "function"
    },
    {
      "inputs": [
        {
          "internalType": "uint256",
          "name": "",
          "type": "uint256"
        },
        {
          "internalType": "address",
          "name": "",
          "type": "address"
        }
      ],
      "name": "isEnrolled",
      "outputs": [
        {
          "internalType": "bool",
          "name": "",
          "type": "bool"
        }
      ],
      "stateMutability": "view",
      "type": "function"
    },
    {
      "inputs": [
        {
          "internalType": "uint256",
          "name": "",
          "type": "uint256"
        }
      ],
      "name": "lesson",
      "outputs": [
        {
          "internalType": "uint256",
          "name": "lessonId",
          "type": "uint256"
        },
        {
          "internalType": "string",
          "name": "lessonName",
          "type": "string"
        },
        {
          "internalType": "string",
          "name": "lessonContent",
          "type": "string"
        },
        {
          "internalType": "uint256",
          "name": "resourceCount",
          "type": "uint256"
        }
      ],
      "stateMutability": "view",
      "type": "function"
    },
    {
      "inputs": [
        {
          "internalType": "uint256",
          "name": "",
          "type": "uint256"
        }
      ],
      "name": "listOfChapters",
      "outputs": [
        {
          "internalType": "uint256",
          "name": "chapterId",
          "type": "uint256"
        },
        {
          "internalType": "string",
          "name": "chapterName",
          "type": "string"
        }
      ],
      "stateMutability": "view",
      "type": "function"
    },
    {
      "inputs": [
        {
          "internalType": "uint256",
          "name": "",
          "type": "uint256"
        }
      ],
      "name": "listOfCourses",
      "outputs": [
        {
          "internalType": "uint256",
          "name": "courseId",
          "type": "uint256"
        },
        {
          "internalType": "string",
          "name": "courseName",
          "type": "string"
        },
        {
          "internalType": "string",
          "name": "description",
          "type": "string"
        },
        {
          "internalType": "bool",
          "name": "approved",
          "type": "bool"
        },
        {
          "internalType": "uint256",
          "name": "approvalCount",
          "type": "uint256"
        },
        {
          "internalType": "address",
          "name": "creator",
          "type": "address"
        }
      ],
      "stateMutability": "view",
      "type": "function"
    },
    {
      "inputs": [
        {
          "internalType": "uint256",
          "name": "",
          "type": "uint256"
        }
      ],
      "name": "listOfLessons",
      "outputs": [
        {
          "internalType": "uint256",
          "name": "lessonId",
          "type": "uint256"
        },
        {
          "internalType": "string",
          "name": "lessonName",
          "type": "string"
        },
        {
          "internalType": "string",
          "name": "lessonContent",
          "type": "string"
        },
        {
          "internalType": "uint256",
          "name": "resourceCount",
          "type": "uint256"
        }
      ],
      "stateMutability": "view",
      "type": "function"
    },
    {
      "inputs": [
        {
          "internalType": "uint256",
          "name": "",
          "type": "uint256"
        }
      ],
      "name": "listOfQuestions",
      "outputs": [
        {
          "internalType": "uint256",
          "name": "questionId",
          "type": "uint256"
        },
        {
          "internalType": "string",
          "name": "questionText",
          "type": "string"
        }
      ],
      "stateMutability": "view",
      "type": "function"
    },
    {
      "inputs": [
        {
          "internalType": "uint256",
          "name": "",
          "type": "uint256"
        }
      ],
      "name": "listOfQuizzes",
      "outputs": [
        {
          "internalType": "uint256",
          "name": "quizId",
          "type": "uint256"
        },
        {
          "internalType": "string",
          "name": "quizTitle",
          "type": "string"
        }
      ],
      "stateMutability": "view",
      "type": "function"
    },
    {
      "inputs": [
        {
          "internalType": "uint256",
          "name": "",
          "type": "uint256"
        }
      ],
      "name": "listOfResource",
      "outputs": [
        {
          "internalType": "string",
          "name": "contentType",
          "type": "string"
        },
        {
          "internalType": "string",
          "name": "url",
          "type": "string"
        },
        {
          "internalType": "string",
          "name": "description",
          "type": "string"
        }
      ],
      "stateMutability": "view",
      "type": "function"
    },
    {
      "inputs": [],
      "name": "name",
      "outputs": [
        {
          "internalType": "string",
          "name": "",
          "type": "string"
        }
      ],
      "stateMutability": "view",
      "type": "function"
    },
    {
      "inputs": [],
      "name": "nextChapterId",
      "outputs": [
        {
          "internalType": "uint256",
          "name": "",
          "type": "uint256"
        }
      ],
      "stateMutability": "view",
      "type": "function"
    },
    {
      "inputs": [],
      "name": "nextChoiceId",
      "outputs": [
        {
          "internalType": "uint256",
          "name": "",
          "type": "uint256"
        }
      ],
      "stateMutability": "view",
      "type": "function"
    },
    {
      "inputs": [],
      "name": "nextCourseId",
      "outputs": [
        {
          "internalType": "uint256",
          "name": "",
          "type": "uint256"
        }
      ],
      "stateMutability": "view",
      "type": "function"
    },
    {
      "inputs": [],
      "name": "nextCourseIdd",
      "outputs": [
        {
          "internalType": "uint256",
          "name": "",
          "type": "uint256"
        }
      ],
      "stateMutability": "view",
      "type": "function"
    },
    {
      "inputs": [],
      "name": "nextLessonId",
      "outputs": [
        {
          "internalType": "uint256",
          "name": "",
          "type": "uint256"
        }
      ],
      "stateMutability": "view",
      "type": "function"
    },
    {
      "inputs": [],
      "name": "nextQuestionId",
      "outputs": [
        {
          "internalType": "uint256",
          "name": "",
          "type": "uint256"
        }
      ],
      "stateMutability": "view",
      "type": "function"
    },
    {
      "inputs": [],
      "name": "nextQuizId",
      "outputs": [
        {
          "internalType": "uint256",
          "name": "",
          "type": "uint256"
        }
      ],
      "stateMutability": "view",
      "type": "function"
    },
    {
      "inputs": [
        {
          "internalType": "uint256",
          "name": "",
          "type": "uint256"
        }
      ],
      "name": "questions",
      "outputs": [
        {
          "internalType": "uint256",
          "name": "questionId",
          "type": "uint256"
        },
        {
          "internalType": "string",
          "name": "questionText",
          "type": "string"
        }
      ],
      "stateMutability": "view",
      "type": "function"
    },
    {
      "inputs": [
        {
          "internalType": "uint256",
          "name": "",
          "type": "uint256"
        }
      ],
      "name": "quizzes",
      "outputs": [
        {
          "internalType": "uint256",
          "name": "quizId",
          "type": "uint256"
        },
        {
          "internalType": "string",
          "name": "quizTitle",
          "type": "string"
        }
      ],
      "stateMutability": "view",
      "type": "function"
    },
    {
      "inputs": [
        {
          "internalType": "address",
          "name": "admin",
          "type": "address"
        }
      ],
      "name": "removeAdmin",
      "outputs": [],
      "stateMutability": "nonpayable",
      "type": "function"
    },
    {
      "inputs": [
        {
          "internalType": "bytes32",
          "name": "role",
          "type": "bytes32"
        },
        {
          "internalType": "address",
          "name": "callerConfirmation",
          "type": "address"
        }
      ],
      "name": "renounceRole",
      "outputs": [],
      "stateMutability": "nonpayable",
      "type": "function"
    },
    {
      "inputs": [
        {
          "internalType": "uint256",
          "name": "",
          "type": "uint256"
        },
        {
          "internalType": "address",
          "name": "",
          "type": "address"
        }
      ],
      "name": "reviews",
      "outputs": [
        {
          "internalType": "uint256",
          "name": "learnerAgency",
          "type": "uint256"
        },
        {
          "internalType": "uint256",
          "name": "criticalThinking",
          "type": "uint256"
        },
        {
          "internalType": "uint256",
          "name": "collaborativeLearning",
          "type": "uint256"
        },
        {
          "internalType": "uint256",
          "name": "reflectivePractice",
          "type": "uint256"
        },
        {
          "internalType": "uint256",
          "name": "adaptiveLearning",
          "type": "uint256"
        },
        {
          "internalType": "uint256",
          "name": "authenticLearning",
          "type": "uint256"
        },
        {
          "internalType": "uint256",
          "name": "technologyIntegration",
          "type": "uint256"
        },
        {
          "internalType": "uint256",
          "name": "learnerSupport",
          "type": "uint256"
        },
        {
          "internalType": "uint256",
          "name": "assessmentForLearning",
          "type": "uint256"
        },
        {
          "internalType": "uint256",
          "name": "engagementAndMotivation",
          "type": "uint256"
        },
        {
          "internalType": "bool",
          "name": "isSubmitted",
          "type": "bool"
        }
      ],
      "stateMutability": "view",
      "type": "function"
    },
    {
      "inputs": [
        {
          "internalType": "bytes32",
          "name": "role",
          "type": "bytes32"
        },
        {
          "internalType": "address",
          "name": "account",
          "type": "address"
        }
      ],
      "name": "revokeRole",
      "outputs": [],
      "stateMutability": "nonpayable",
      "type": "function"
    },
    {
      "inputs": [
        {
          "internalType": "uint256",
          "name": "courseId",
          "type": "uint256"
        },
        {
          "internalType": "uint256",
          "name": "learnerAgency",
          "type": "uint256"
        },
        {
          "internalType": "uint256",
          "name": "criticalThinking",
          "type": "uint256"
        },
        {
          "internalType": "uint256",
          "name": "collaborativeLearning",
          "type": "uint256"
        },
        {
          "internalType": "uint256",
          "name": "reflectivePractice",
          "type": "uint256"
        },
        {
          "internalType": "uint256",
          "name": "adaptiveLearning",
          "type": "uint256"
        },
        {
          "internalType": "uint256",
          "name": "authenticLearning",
          "type": "uint256"
        },
        {
          "internalType": "uint256",
          "name": "technologyIntegration",
          "type": "uint256"
        },
        {
          "internalType": "uint256",
          "name": "learnerSupport",
          "type": "uint256"
        },
        {
          "internalType": "uint256",
          "name": "assessmentForLearning",
          "type": "uint256"
        },
        {
          "internalType": "uint256",
          "name": "engagementAndMotivation",
          "type": "uint256"
        }
      ],
      "name": "submitReview",
      "outputs": [],
      "stateMutability": "nonpayable",
      "type": "function"
    },
    {
      "inputs": [
        {
          "internalType": "bytes4",
          "name": "interfaceId",
          "type": "bytes4"
        }
      ],
      "name": "supportsInterface",
      "outputs": [
        {
          "internalType": "bool",
          "name": "",
          "type": "bool"
        }
      ],
      "stateMutability": "view",
      "type": "function"
    },
    {
      "inputs": [],
      "name": "symbol",
      "outputs": [
        {
          "internalType": "string",
          "name": "",
          "type": "string"
        }
      ],
      "stateMutability": "view",
      "type": "function"
    },
    {
      "inputs": [],
      "name": "totalSupply",
      "outputs": [
        {
          "internalType": "uint256",
          "name": "",
          "type": "uint256"
        }
      ],
      "stateMutability": "view",
      "type": "function"
    },
    {
      "inputs": [
        {
          "internalType": "address",
          "name": "to",
          "type": "address"
        },
        {
          "internalType": "uint256",
          "name": "value",
          "type": "uint256"
        }
      ],
      "name": "transfer",
      "outputs": [
        {
          "internalType": "bool",
          "name": "",
          "type": "bool"
        }
      ],
      "stateMutability": "nonpayable",
      "type": "function"
    },
    {
      "inputs": [
        {
          "internalType": "address",
          "name": "from",
          "type": "address"
        },
        {
          "internalType": "address",
          "name": "to",
          "type": "address"
        },
        {
          "internalType": "uint256",
          "name": "value",
          "type": "uint256"
        }
      ],
      "name": "transferFrom",
      "outputs": [
        {
          "internalType": "bool",
          "name": "",
          "type": "bool"
        }
      ],
      "stateMutability": "nonpayable",
      "type": "function"
    },
    {
      "inputs": [
        {
          "internalType": "uint256",
          "name": "_courseId",
          "type": "uint256"
        }
      ],
      "name": "unEnroll",
      "outputs": [
        {
          "internalType": "bool",
          "name": "",
          "type": "bool"
        }
      ],
      "stateMutability": "nonpayable",
      "type": "function"
    }
  ],
  "bytecode": "0x608060405234801561001057600080fd5b50604051615c40380380615c4083398181016040528101906100329190610519565b806040518060400160405280600a81526020017f4142594120544f4b454e000000000000000000000000000000000000000000008152506040518060400160405280600681526020017f414259544b4e000000000000000000000000000000000000000000000000000081525081600390816100ae9190610783565b5080600490816100be9190610783565b505050600281511015610106576040517f08c379a00000000000000000000000000000000000000000000000000000000081526004016100fd906108b2565b60405180910390fd5b6101196000801b3361019e60201b60201c565b5060005b815181101561017e576101707fa49807205ce4d355092ef5a8a18f56e8913cf4a201fbe287825b095693c2177583838151811061015d5761015c6108d2565b5b602002602001015161019e60201b60201c565b50808060010191505061011d565b50506001600681905550610198600761029c60201b60201c565b50610901565b60006101b083836102db60201b60201c565b6102915760016005600085815260200190815260200160002060000160008473ffffffffffffffffffffffffffffffffffffffff1673ffffffffffffffffffffffffffffffffffffffff16815260200190815260200160002060006101000a81548160ff02191690831515021790555061022e61034660201b60201c565b73ffffffffffffffffffffffffffffffffffffffff168273ffffffffffffffffffffffffffffffffffffffff16847f2f8788117e7eff1d82e926ec794901d17c78024a50270940304540a733656f0d60405160405180910390a460019050610296565b600090505b92915050565b60018160000181905550600181600101819055506001816002018190555060018160030181905550600181600401819055506001816005018190555050565b60006005600084815260200190815260200160002060000160008373ffffffffffffffffffffffffffffffffffffffff1673ffffffffffffffffffffffffffffffffffffffff16815260200190815260200160002060009054906101000a900460ff16905092915050565b600033905090565b6000604051905090565b600080fd5b600080fd5b600080fd5b6000601f19601f8301169050919050565b7f4e487b7100000000000000000000000000000000000000000000000000000000600052604160045260246000fd5b6103b082610367565b810181811067ffffffffffffffff821117156103cf576103ce610378565b5b80604052505050565b60006103e261034e565b90506103ee82826103a7565b919050565b600067ffffffffffffffff82111561040e5761040d610378565b5b602082029050602081019050919050565b600080fd5b600073ffffffffffffffffffffffffffffffffffffffff82169050919050565b600061044f82610424565b9050919050565b61045f81610444565b811461046a57600080fd5b50565b60008151905061047c81610456565b92915050565b6000610495610490846103f3565b6103d8565b905080838252602082019050602084028301858111156104b8576104b761041f565b5b835b818110156104e157806104cd888261046d565b8452602084019350506020810190506104ba565b5050509392505050565b600082601f830112610500576104ff610362565b5b8151610510848260208601610482565b91505092915050565b60006020828403121561052f5761052e610358565b5b600082015167ffffffffffffffff81111561054d5761054c61035d565b5b610559848285016104eb565b91505092915050565b600081519050919050565b7f4e487b7100000000000000000000000000000000000000000000000000000000600052602260045260246000fd5b600060028204905060018216806105b457607f821691505b6020821081036105c7576105c661056d565b5b50919050565b60008190508160005260206000209050919050565b60006020601f8301049050919050565b600082821b905092915050565b60006008830261062f7fffffffffffffffffffffffffffffffffffffffffffffffffffffffffffffffff826105f2565b61063986836105f2565b95508019841693508086168417925050509392505050565b6000819050919050565b6000819050919050565b600061068061067b61067684610651565b61065b565b610651565b9050919050565b6000819050919050565b61069a83610665565b6106ae6106a682610687565b8484546105ff565b825550505050565b600090565b6106c36106b6565b6106ce818484610691565b505050565b5b818110156106f2576106e76000826106bb565b6001810190506106d4565b5050565b601f82111561073757610708816105cd565b610711846105e2565b81016020851015610720578190505b61073461072c856105e2565b8301826106d3565b50505b505050565b600082821c905092915050565b600061075a6000198460080261073c565b1980831691505092915050565b60006107738383610749565b9150826002028217905092915050565b61078c82610562565b67ffffffffffffffff8111156107a5576107a4610378565b5b6107af825461059c565b6107ba8282856106f6565b600060209050601f8311600181146107ed57600084156107db578287015190505b6107e58582610767565b86555061084d565b601f1984166107fb866105cd565b60005b82811015610823578489015182556001820191506020850194506020810190506107fe565b86831015610840578489015161083c601f891682610749565b8355505b6001600288020188555050505b505050505050565b600082825260208201905092915050565b7f4174206c6561737420322061646d696e73206172652072657175697265640000600082015250565b600061089c601e83610855565b91506108a782610866565b602082019050919050565b600060208201905081810360008301526108cb8161088f565b9050919050565b7f4e487b7100000000000000000000000000000000000000000000000000000000600052603260045260246000fd5b615330806109106000396000f3fe608060405234801561001057600080fd5b50600436106103af5760003560e01c80636fdb67f7116101f4578063aa95da3a1161011a578063d93f2caa116100ad578063e503f1081161007c578063e503f10814610c5c578063eb264b9c14610c7a578063f57d585b14610c98578063ffabc67314610cc8576103af565b8063d93f2caa14610bbe578063dd62ed3e14610bdc578063ddfc79fb14610c0c578063ded5c18d14610c3e576103af565b8063c7954e4c116100e9578063c7954e4c14610b23578063c90c884d14610b41578063c976831514610b72578063d547741f14610ba2576103af565b8063aa95da3a14610a68578063ac957c6314610a98578063bfd2f4c514610ab6578063c12804fb14610ae9576103af565b806388409afa11610192578063a217fddf11610161578063a217fddf146109b9578063a26a7953146109d7578063a3ef204114610a07578063a9059cbb14610a38576103af565b806388409afa1461091c57806391d148541461094d57806395d89b411461097d578063a14ecbdf1461099b576103af565b806375284998116101ce57806375284998146108a657806375b238fc146108c25780637d83daf2146108e0578063846f8152146108fe576103af565b80636fdb67f714610825578063704802751461085a57806370a0823114610876576103af565b806329a0be65116102d957806336568abe1161027757806358a3fa251161024657806358a3fa25146107af578063599c5533146107cb57806366055159146107e95780636b000fa714610807576103af565b806336568abe146107145780633693dcfa146107305780634d42ef481461074e57806351d93c811461077e576103af565b8063313ce567116102b3578063313ce5671461067757806331b1b9781461069557806332cb6b0c146106c657806334ed4bdb146106e4576103af565b806329a0be651461060a5780632aac61ae146106285780632f2ff15d1461065b576103af565b806320bd031611610351578063274202f011610320578063274202f01461056857806327ff622314610586578063295b825a146105a45780632990db7c146105d5576103af565b806320bd0316146104a857806323b872dd146104d8578063248a9ca31461050857806324d7806c14610538576103af565b806306fdde031161038d57806306fdde0314610420578063095ea7b31461043e5780631785f53c1461046e57806318160ddd1461048a576103af565b806301ffc9a7146103b457806304e48bd1146103e4578063057f46bb14610402575b600080fd5b6103ce60048036038101906103c99190613dc6565b610cf8565b6040516103db9190613e0e565b60405180910390f35b6103ec610d72565b6040516103f99190614074565b60405180910390f35b61040a611074565b60405161041791906140a5565b60405180910390f35b61042861107a565b604051610435919061410a565b60405180910390f35b61045860048036038101906104539190614184565b61110c565b6040516104659190613e0e565b60405180910390f35b610488600480360381019061048391906141c4565b61112f565b005b61049261116a565b60405161049f91906140a5565b60405180910390f35b6104c260048036038101906104bd91906141f1565b611174565b6040516104cf9190613e0e565b60405180910390f35b6104f260048036038101906104ed919061421e565b6112eb565b6040516104ff9190613e0e565b60405180910390f35b610522600480360381019061051d91906142a7565b61131a565b60405161052f91906142e3565b60405180910390f35b610552600480360381019061054d91906141c4565b61133a565b60405161055f9190613e0e565b60405180910390f35b61057061136d565b60405161057d91906140a5565b60405180910390f35b61058e611395565b60405161059b91906140a5565b60405180910390f35b6105be60048036038101906105b991906141f1565b61139a565b6040516105cc9291906142fe565b60405180910390f35b6105ef60048036038101906105ea91906141f1565b611456565b6040516106019695949392919061433d565b60405180910390f35b6106126115cf565b60405161061f91906140a5565b60405180910390f35b610642600480360381019061063d91906141f1565b6115d5565b60405161065294939291906143ac565b60405180910390f35b610675600480360381019061067091906143ff565b611725565b005b61067f611747565b60405161068c919061445b565b60405180910390f35b6106af60048036038101906106aa91906141f1565b611750565b6040516106bd9291906142fe565b60405180910390f35b6106ce6117fc565b6040516106db91906140a5565b60405180910390f35b6106fe60048036038101906106f991906141c4565b61180c565b60405161070b91906140a5565b60405180910390f35b61072e600480360381019061072991906143ff565b61182a565b005b6107386118a5565b60405161074591906142e3565b60405180910390f35b61076860048036038101906107639190614476565b6118c9565b604051610775919061410a565b60405180910390f35b610798600480360381019061079391906141f1565b611982565b6040516107a69291906142fe565b60405180910390f35b6107c960048036038101906107c491906144b6565b611a3e565b005b6107d3611d62565b6040516107e091906140a5565b60405180910390f35b6107f1611d67565b6040516107fe91906140a5565b60405180910390f35b61080f611d6d565b60405161081c91906140a5565b60405180910390f35b61083f600480360381019061083a91906141f1565b611d73565b6040516108519695949392919061433d565b60405180910390f35b610874600480360381019061086f91906141c4565b611efc565b005b610890600480360381019061088b91906141c4565b611f55565b60405161089d91906140a5565b60405180910390f35b6108c060048036038101906108bb91906141f1565b611f9d565b005b6108ca6121b7565b6040516108d791906142e3565b60405180910390f35b6108e86121db565b6040516108f591906140a5565b60405180910390f35b6109066121e1565b60405161091391906140a5565b60405180910390f35b610936600480360381019061093191906141f1565b6121ed565b6040516109449291906142fe565b60405180910390f35b610967600480360381019061096291906143ff565b612299565b6040516109749190613e0e565b60405180910390f35b610985612304565b604051610992919061410a565b60405180910390f35b6109a3612396565b6040516109b091906140a5565b60405180910390f35b6109c161239c565b6040516109ce91906142e3565b60405180910390f35b6109f160048036038101906109ec91906146df565b6123a3565b6040516109fe9190613e0e565b60405180910390f35b610a216004803603810190610a1c91906141f1565b61277a565b604051610a2f9291906142fe565b60405180910390f35b610a526004803603810190610a4d9190614184565b612826565b604051610a5f9190613e0e565b60405180910390f35b610a826004803603810190610a7d9190614476565b612849565b604051610a8f919061410a565b60405180910390f35b610aa0612902565b604051610aad91906140a5565b60405180910390f35b610ad06004803603810190610acb91906141f1565b612907565b604051610ae094939291906143ac565b60405180910390f35b610b036004803603810190610afe9190614757565b612a47565b604051610b1a9b9a99989796959493929190614797565b60405180910390f35b610b2b612abb565b604051610b3891906140a5565b60405180910390f35b610b5b6004803603810190610b5691906141f1565b612ac5565b604051610b699291906142fe565b60405180910390f35b610b8c6004803603810190610b879190614757565b612b81565b604051610b999190613e0e565b60405180910390f35b610bbc6004803603810190610bb791906143ff565b612bb0565b005b610bc6612bd2565b604051610bd391906140a5565b60405180910390f35b610bf66004803603810190610bf19190614842565b612bde565b604051610c0391906140a5565b60405180910390f35b610c266004803603810190610c2191906141f1565b612c65565b604051610c3593929190614882565b60405180910390f35b610c46612e37565b604051610c5391906140a5565b60405180910390f35b610c64612e44565b604051610c7191906140a5565b60405180910390f35b610c82612e4a565b604051610c8f91906140a5565b60405180910390f35b610cb26004803603810190610cad91906141f1565b612e50565b604051610cbf9190613e0e565b60405180910390f35b610ce26004803603810190610cdd9190614184565b61302c565b604051610cef9190613e0e565b60405180910390f35b60007f7965db0b000000000000000000000000000000000000000000000000000000007bffffffffffffffffffffffffffffffffffffffffffffffffffffffff1916827bffffffffffffffffffffffffffffffffffffffffffffffffffffffff19161480610d6b5750610d6a8261305b565b5b9050919050565b6060600060208054905067ffffffffffffffff811115610d9557610d946145b4565b5b604051908082528060200260200182016040528015610dce57816020015b610dbb613d0c565b815260200190600190039081610db35790505b50905060005b60208054905081101561106c576040518060c0016040528060208381548110610e0057610dff6148ce565b5b906000526020600020906006020160000154815260200160208381548110610e2b57610e2a6148ce565b5b90600052602060002090600602016001018054610e479061492c565b80601f0160208091040260200160405190810160405280929190818152602001828054610e739061492c565b8015610ec05780601f10610e9557610100808354040283529160200191610ec0565b820191906000526020600020905b815481529060010190602001808311610ea357829003601f168201915b5050505050815260200160208381548110610ede57610edd6148ce565b5b90600052602060002090600602016002018054610efa9061492c565b80601f0160208091040260200160405190810160405280929190818152602001828054610f269061492c565b8015610f735780601f10610f4857610100808354040283529160200191610f73565b820191906000526020600020905b815481529060010190602001808311610f5657829003601f168201915b5050505050815260200160208381548110610f9157610f906148ce565b5b906000526020600020906006020160030160009054906101000a900460ff161515815260200160208381548110610fcb57610fca6148ce565b5b906000526020600020906006020160040154815260200160208381548110610ff657610ff56148ce565b5b906000526020600020906006020160050160009054906101000a900473ffffffffffffffffffffffffffffffffffffffff1673ffffffffffffffffffffffffffffffffffffffff16815250828281518110611054576110536148ce565b5b60200260200101819052508080600101915050610dd4565b508091505090565b60105481565b6060600380546110899061492c565b80601f01602080910402602001604051908101604052809291908181526020018280546110b59061492c565b80156111025780601f106110d757610100808354040283529160200191611102565b820191906000526020600020905b8154815290600101906020018083116110e557829003601f168201915b5050505050905090565b6000806111176130c5565b90506111248185856130cd565b600191505092915050565b6000801b61113c816130df565b6111667fa49807205ce4d355092ef5a8a18f56e8913cf4a201fbe287825b095693c2177583612bb0565b5050565b6000600254905090565b600061117e6130f3565b601f600083815260200190815260200160002060003373ffffffffffffffffffffffffffffffffffffffff1673ffffffffffffffffffffffffffffffffffffffff16815260200190815260200160002060009054906101000a900460ff1661121b576040517f08c379a0000000000000000000000000000000000000000000000000000000008152600401611212906149cf565b60405180910390fd5b6000601f600084815260200190815260200160002060003373ffffffffffffffffffffffffffffffffffffffff1673ffffffffffffffffffffffffffffffffffffffff16815260200190815260200160002060006101000a81548160ff02191690831515021790555061129633671bc16d674ec80000613139565b3373ffffffffffffffffffffffffffffffffffffffff16827f9b244c565b926d7f4e915b69f3a5c6afc2231322d0d44e821076ad8879d0d68360405160405180910390a3600190506112e6613160565b919050565b6000806112f66130c5565b905061130385828561316a565b61130e8585856131fe565b60019150509392505050565b600060056000838152602001908152602001600020600101549050919050565b60006113667fa49807205ce4d355092ef5a8a18f56e8913cf4a201fbe287825b095693c2177583612299565b9050919050565b6064600f6b204fce5e3e250261100000006113889190614a1e565b6113929190614a8f565b81565b606481565b602481815481106113aa57600080fd5b90600052602060002090600302016000915090508060000154908060010180546113d39061492c565b80601f01602080910402602001604051908101604052809291908181526020018280546113ff9061492c565b801561144c5780601f106114215761010080835404028352916020019161144c565b820191906000526020600020905b81548152906001019060200180831161142f57829003601f168201915b5050505050905082565b601560205280600052604060002060009150905080600001549080600101805461147f9061492c565b80601f01602080910402602001604051908101604052809291908181526020018280546114ab9061492c565b80156114f85780601f106114cd576101008083540402835291602001916114f8565b820191906000526020600020905b8154815290600101906020018083116114db57829003601f168201915b50505050509080600201805461150d9061492c565b80601f01602080910402602001604051908101604052809291908181526020018280546115399061492c565b80156115865780601f1061155b57610100808354040283529160200191611586565b820191906000526020600020905b81548152906001019060200180831161156957829003601f168201915b5050505050908060030160009054906101000a900460ff16908060040154908060050160009054906101000a900473ffffffffffffffffffffffffffffffffffffffff16905086565b60115481565b602281815481106115e557600080fd5b906000526020600020906022020160009150905080600001549080600101805461160e9061492c565b80601f016020809104026020016040519081016040528092919081815260200182805461163a9061492c565b80156116875780601f1061165c57610100808354040283529160200191611687565b820191906000526020600020905b81548152906001019060200180831161166a57829003601f168201915b50505050509080600201805461169c9061492c565b80601f01602080910402602001604051908101604052809291908181526020018280546116c89061492c565b80156117155780601f106116ea57610100808354040283529160200191611715565b820191906000526020600020905b8154815290600101906020018083116116f857829003601f168201915b5050505050908060210154905084565b61172e8261131a565b611737816130df565b61174183836132f2565b50505050565b60006012905090565b601e6020528060005260406000206000915090508060000154908060010180546117799061492c565b80601f01602080910402602001604051908101604052809291908181526020018280546117a59061492c565b80156117f25780601f106117c7576101008083540402835291602001916117f2565b820191906000526020600020905b8154815290600101906020018083116117d557829003601f168201915b5050505050905082565b6b204fce5e3e2502611000000081565b60176020528060005260406000206000915090508060000154905081565b6118326130c5565b73ffffffffffffffffffffffffffffffffffffffff168173ffffffffffffffffffffffffffffffffffffffff1614611896576040517f6697b23200000000000000000000000000000000000000000000000000000000815260040160405180910390fd5b6118a082826133e4565b505050565b7fadb22091b155738d2e889eb96f509d2a7c93234236b30400927feb4a6a15ab0081565b601a60205281600052604060002081815481106118e557600080fd5b906000526020600020016000915091505080546119019061492c565b80601f016020809104026020016040519081016040528092919081815260200182805461192d9061492c565b801561197a5780601f1061194f5761010080835404028352916020019161197a565b820191906000526020600020905b81548152906001019060200180831161195d57829003601f168201915b505050505081565b6025818154811061199257600080fd5b90600052602060002090600302016000915090508060000154908060010180546119bb9061492c565b80601f01602080910402602001604051908101604052809291908181526020018280546119e79061492c565b8015611a345780601f10611a0957610100808354040283529160200191611a34565b820191906000526020600020905b815481529060010190602001808311611a1757829003601f168201915b5050505050905082565b7fa49807205ce4d355092ef5a8a18f56e8913cf4a201fbe287825b095693c21775611a68816130df565b601660008d815260200190815260200160002060003373ffffffffffffffffffffffffffffffffffffffff1673ffffffffffffffffffffffffffffffffffffffff168152602001908152602001600020600a0160009054906101000a900460ff1615611b09576040517f08c379a0000000000000000000000000000000000000000000000000000000008152600401611b0090614b32565b60405180910390fd5b600a8b11158015611b1b5750600a8a11155b8015611b285750600a8911155b8015611b355750600a8811155b8015611b425750600a8711155b8015611b4f5750600a8611155b8015611b5c5750600a8511155b8015611b695750600a8411155b8015611b765750600a8311155b8015611b835750600a8211155b611bc2576040517f08c379a0000000000000000000000000000000000000000000000000000000008152600401611bb990614b9e565b60405180910390fd5b6040518061016001604052808c81526020018b81526020018a815260200189815260200188815260200187815260200186815260200185815260200184815260200183815260200160011515815250601660008e815260200190815260200160002060003373ffffffffffffffffffffffffffffffffffffffff1673ffffffffffffffffffffffffffffffffffffffff168152602001908152602001600020600082015181600001556020820151816001015560408201518160020155606082015181600301556080820151816004015560a0820151816005015560c0820151816006015560e082015181600701556101008201518160080155610120820151816009015561014082015181600a0160006101000a81548160ff0219169083151502179055509050506050611d45601660008f815260200190815260200160002060003373ffffffffffffffffffffffffffffffffffffffff1673ffffffffffffffffffffffffffffffffffffffff1681526020019081526020016000206134d7565b10611d5457611d538c611f9d565b5b505050505050505050505050565b600281565b600e5481565b60145481565b60208181548110611d8357600080fd5b9060005260206000209060060201600091509050806000015490806001018054611dac9061492c565b80601f0160208091040260200160405190810160405280929190818152602001828054611dd89061492c565b8015611e255780601f10611dfa57610100808354040283529160200191611e25565b820191906000526020600020905b815481529060010190602001808311611e0857829003601f168201915b505050505090806002018054611e3a9061492c565b80601f0160208091040260200160405190810160405280929190818152602001828054611e669061492c565b8015611eb35780601f10611e8857610100808354040283529160200191611eb3565b820191906000526020600020905b815481529060010190602001808311611e9657829003601f168201915b5050505050908060030160009054906101000a900460ff16908060040154908060050160009054906101000a900473ffffffffffffffffffffffffffffffffffffffff16905086565b7fa49807205ce4d355092ef5a8a18f56e8913cf4a201fbe287825b095693c21775611f26816130df565b611f507fa49807205ce4d355092ef5a8a18f56e8913cf4a201fbe287825b095693c21775836132f2565b505050565b60008060008373ffffffffffffffffffffffffffffffffffffffff1673ffffffffffffffffffffffffffffffffffffffff168152602001908152602001600020549050919050565b7fa49807205ce4d355092ef5a8a18f56e8913cf4a201fbe287825b095693c21775611fc7816130df565b60006015600084815260200190815260200160002090508060030160009054906101000a900460ff1615612030576040517f08c379a000000000000000000000000000000000000000000000000000000000815260040161202790614c0a565b60405180910390fd5b601860003373ffffffffffffffffffffffffffffffffffffffff1673ffffffffffffffffffffffffffffffffffffffff168152602001908152602001600020600084815260200190815260200160002060009054906101000a900460ff16156120ce576040517f08c379a00000000000000000000000000000000000000000000000000000000081526004016120c590614c9c565b60405180910390fd5b6001601860003373ffffffffffffffffffffffffffffffffffffffff1673ffffffffffffffffffffffffffffffffffffffff168152602001908152602001600020600085815260200190815260200160002060006101000a81548160ff02191690831515021790555080600401600081548092919061214c90614cbc565b919050555060028160040154106121b25760018160030160006101000a81548160ff0219169083151502179055506121b08160050160009054906101000a900473ffffffffffffffffffffffffffffffffffffffff16674563918244f4000061356c565b505b505050565b7fa49807205ce4d355092ef5a8a18f56e8913cf4a201fbe287825b095693c2177581565b600f5481565b671bc16d674ec8000081565b601d6020528060005260406000206000915090508060000154908060010180546122169061492c565b80601f01602080910402602001604051908101604052809291908181526020018280546122429061492c565b801561228f5780601f106122645761010080835404028352916020019161228f565b820191906000526020600020905b81548152906001019060200180831161227257829003601f168201915b5050505050905082565b60006005600084815260200190815260200160002060000160008373ffffffffffffffffffffffffffffffffffffffff1673ffffffffffffffffffffffffffffffffffffffff16815260200190815260200160002060009054906101000a900460ff16905092915050565b6060600480546123139061492c565b80601f016020809104026020016040519081016040528092919081815260200182805461233f9061492c565b801561238c5780601f106123615761010080835404028352916020019161238c565b820191906000526020600020905b81548152906001019060200180831161236f57829003601f168201915b5050505050905090565b600d5481565b6000801b81565b60008073ffffffffffffffffffffffffffffffffffffffff1660156000600f54815260200190815260200160002060050160009054906101000a900473ffffffffffffffffffffffffffffffffffffffff1673ffffffffffffffffffffffffffffffffffffffff161461244b576040517f08c379a000000000000000000000000000000000000000000000000000000000815260040161244290614d50565b60405180910390fd5b60006040518060c00160405280600f548152602001858152602001848152602001600015158152602001600081526020013373ffffffffffffffffffffffffffffffffffffffff1681525090508060156000600f5481526020019081526020016000206000820151816000015560208201518160010190816124cd9190614f1c565b5060408201518160020190816124e39190614f1c565b5060608201518160030160006101000a81548160ff0219169083151502179055506080820151816004015560a08201518160050160006101000a81548173ffffffffffffffffffffffffffffffffffffffff021916908373ffffffffffffffffffffffffffffffffffffffff16021790555090505060208190806001815401808255809150506001900390600052602060002090600602016000909190919091506000820151816000015560208201518160010190816125a39190614f1c565b5060408201518160020190816125b99190614f1c565b5060608201518160030160006101000a81548160ff0219169083151502179055506080820151816004015560a08201518160050160006101000a81548173ffffffffffffffffffffffffffffffffffffffff021916908373ffffffffffffffffffffffffffffffffffffffff1602179055505050600e600081548092919061264090614cbc565b91905055506001601760003373ffffffffffffffffffffffffffffffffffffffff1673ffffffffffffffffffffffffffffffffffffffff16815260200190815260200160002060000160008282546126989190614fee565b92505081905550600f60008154809291906126b290614cbc565b91905055506126e17fadb22091b155738d2e889eb96f509d2a7c93234236b30400927feb4a6a15ab00336132f2565b50836040516126f0919061505e565b60405180910390206001600f546127079190615075565b7f9c93a42b217373d37e6c66ace0a67fe1fa1f78c93164b62417de69c48c0f67e2601560006001600f5461273b9190615075565b815260200190815260200160002060030160009054906101000a900460ff166040516127679190613e0e565b60405180910390a3600191505092915050565b60196020528060005260406000206000915090508060000154908060010180546127a39061492c565b80601f01602080910402602001604051908101604052809291908181526020018280546127cf9061492c565b801561281c5780601f106127f15761010080835404028352916020019161281c565b820191906000526020600020905b8154815290600101906020018083116127ff57829003601f168201915b5050505050905082565b6000806128316130c5565b905061283e8185856131fe565b600191505092915050565b601c602052816000526040600020818154811061286557600080fd5b906000526020600020016000915091505080546128819061492c565b80601f01602080910402602001604051908101604052809291908181526020018280546128ad9061492c565b80156128fa5780601f106128cf576101008083540402835291602001916128fa565b820191906000526020600020905b8154815290600101906020018083116128dd57829003601f168201915b505050505081565b605081565b601b6020528060005260406000206000915090508060000154908060010180546129309061492c565b80601f016020809104026020016040519081016040528092919081815260200182805461295c9061492c565b80156129a95780601f1061297e576101008083540402835291602001916129a9565b820191906000526020600020905b81548152906001019060200180831161298c57829003601f168201915b5050505050908060020180546129be9061492c565b80601f01602080910402602001604051908101604052809291908181526020018280546129ea9061492c565b8015612a375780601f10612a0c57610100808354040283529160200191612a37565b820191906000526020600020905b815481529060010190602001808311612a1a57829003601f168201915b5050505050908060210154905084565b60166020528160005260406000206020528060005260406000206000915091505080600001549080600101549080600201549080600301549080600401549080600501549080600601549080600701549080600801549080600901549080600a0160009054906101000a900460ff1690508b565b6000600d54905090565b60218181548110612ad557600080fd5b9060005260206000209060020201600091509050806000015490806001018054612afe9061492c565b80601f0160208091040260200160405190810160405280929190818152602001828054612b2a9061492c565b8015612b775780601f10612b4c57610100808354040283529160200191612b77565b820191906000526020600020905b815481529060010190602001808311612b5a57829003601f168201915b5050505050905082565b601f6020528160005260406000206020528060005260406000206000915091509054906101000a900460ff1681565b612bb98261131a565b612bc2816130df565b612bcc83836133e4565b50505050565b674563918244f4000081565b6000600160008473ffffffffffffffffffffffffffffffffffffffff1673ffffffffffffffffffffffffffffffffffffffff16815260200190815260200160002060008373ffffffffffffffffffffffffffffffffffffffff1673ffffffffffffffffffffffffffffffffffffffff16815260200190815260200160002054905092915050565b60238181548110612c7557600080fd5b9060005260206000209060030201600091509050806000018054612c989061492c565b80601f0160208091040260200160405190810160405280929190818152602001828054612cc49061492c565b8015612d115780601f10612ce657610100808354040283529160200191612d11565b820191906000526020600020905b815481529060010190602001808311612cf457829003601f168201915b505050505090806001018054612d269061492c565b80601f0160208091040260200160405190810160405280929190818152602001828054612d529061492c565b8015612d9f5780601f10612d7457610100808354040283529160200191612d9f565b820191906000526020600020905b815481529060010190602001808311612d8257829003601f168201915b505050505090806002018054612db49061492c565b80601f0160208091040260200160405190810160405280929190818152602001828054612de09061492c565b8015612e2d5780601f10612e0257610100808354040283529160200191612e2d565b820191906000526020600020905b815481529060010190602001808311612e1057829003601f168201915b5050505050905083565b6000600760000154905090565b60125481565b60135481565b6000612e5a6130f3565b6015600083815260200190815260200160002060030160009054906101000a900460ff16612ebd576040517f08c379a0000000000000000000000000000000000000000000000000000000008152600401612eb4906150f5565b60405180910390fd5b601f600083815260200190815260200160002060003373ffffffffffffffffffffffffffffffffffffffff1673ffffffffffffffffffffffffffffffffffffffff16815260200190815260200160002060009054906101000a900460ff1615612f5b576040517f08c379a0000000000000000000000000000000000000000000000000000000008152600401612f5290615187565b60405180910390fd5b6001601f600084815260200190815260200160002060003373ffffffffffffffffffffffffffffffffffffffff1673ffffffffffffffffffffffffffffffffffffffff16815260200190815260200160002060006101000a81548160ff021916908315150217905550612fd633671bc16d674ec8000061356c565b503373ffffffffffffffffffffffffffffffffffffffff16827f4bf249f6b0ca5630ea4816c04b928b864a2065cb51658fd6223d83b727fd326b60405160405180910390a360019050613027613160565b919050565b60186020528160005260406000206020528060005260406000206000915091509054906101000a900460ff1681565b60007f01ffc9a7000000000000000000000000000000000000000000000000000000007bffffffffffffffffffffffffffffffffffffffffffffffffffffffff1916827bffffffffffffffffffffffffffffffffffffffffffffffffffffffff1916149050919050565b600033905090565b6130da8383836001613659565b505050565b6130f0816130eb6130c5565b613830565b50565b60026006540361312f576040517f3ee5aeb500000000000000000000000000000000000000000000000000000000815260040160405180910390fd5b6002600681905550565b6131438282613881565b80600d60008282546131559190615075565b925050819055505050565b6001600681905550565b60006131768484612bde565b90507fffffffffffffffffffffffffffffffffffffffffffffffffffffffffffffffff81146131f857818110156131e8578281836040517ffb8f41b20000000000000000000000000000000000000000000000000000000081526004016131df939291906151a7565b60405180910390fd5b6131f784848484036000613659565b5b50505050565b600073ffffffffffffffffffffffffffffffffffffffff168373ffffffffffffffffffffffffffffffffffffffff16036132705760006040517f96c6fd1e00000000000000000000000000000000000000000000000000000000815260040161326791906151de565b60405180910390fd5b600073ffffffffffffffffffffffffffffffffffffffff168273ffffffffffffffffffffffffffffffffffffffff16036132e25760006040517fec442f050000000000000000000000000000000000000000000000000000000081526004016132d991906151de565b60405180910390fd5b6132ed838383613928565b505050565b60006132fe8383612299565b6133d95760016005600085815260200190815260200160002060000160008473ffffffffffffffffffffffffffffffffffffffff1673ffffffffffffffffffffffffffffffffffffffff16815260200190815260200160002060006101000a81548160ff0219169083151502179055506133766130c5565b73ffffffffffffffffffffffffffffffffffffffff168273ffffffffffffffffffffffffffffffffffffffff16847f2f8788117e7eff1d82e926ec794901d17c78024a50270940304540a733656f0d60405160405180910390a4600190506133de565b600090505b92915050565b60006133f08383612299565b156134cc5760006005600085815260200190815260200160002060000160008473ffffffffffffffffffffffffffffffffffffffff1673ffffffffffffffffffffffffffffffffffffffff16815260200190815260200160002060006101000a81548160ff0219169083151502179055506134696130c5565b73ffffffffffffffffffffffffffffffffffffffff168273ffffffffffffffffffffffffffffffffffffffff16847ff6391f5c32d9c69d2a47ea670b442974b53935d1edc7fd64eb21e047a839171b60405160405180910390a4600190506134d1565b600090505b92915050565b60008160090154826008015483600701548460060154856005015486600401548760030154886002015489600101548a600001546135159190614fee565b61351f9190614fee565b6135299190614fee565b6135339190614fee565b61353d9190614fee565b6135479190614fee565b6135519190614fee565b61355b9190614fee565b6135659190614fee565b9050919050565b60006064600f6b204fce5e3e250261100000006135899190614a1e565b6135939190614a8f565b61359b612abb565b836135a69190614fee565b11156135e7576040517f08c379a00000000000000000000000000000000000000000000000000000000081526004016135de90615245565b60405180910390fd5b6135f18383613b4d565b5081600d60008282546136049190614fee565b92505081905550818373ffffffffffffffffffffffffffffffffffffffff167fad6ef58d5c294f81258965738e7ae511124139834a8d0b8f8f7327086c82052a60405160405180910390a36001905092915050565b600073ffffffffffffffffffffffffffffffffffffffff168473ffffffffffffffffffffffffffffffffffffffff16036136cb5760006040517fe602df050000000000000000000000000000000000000000000000000000000081526004016136c291906151de565b60405180910390fd5b600073ffffffffffffffffffffffffffffffffffffffff168373ffffffffffffffffffffffffffffffffffffffff160361373d5760006040517f94280d6200000000000000000000000000000000000000000000000000000000815260040161373491906151de565b60405180910390fd5b81600160008673ffffffffffffffffffffffffffffffffffffffff1673ffffffffffffffffffffffffffffffffffffffff16815260200190815260200160002060008573ffffffffffffffffffffffffffffffffffffffff1673ffffffffffffffffffffffffffffffffffffffff16815260200190815260200160002081905550801561382a578273ffffffffffffffffffffffffffffffffffffffff168473ffffffffffffffffffffffffffffffffffffffff167f8c5be1e5ebec7d5bd14f71427d1e84f3dd0314c0f7b2291e5b200ac8c7c3b9258460405161382191906140a5565b60405180910390a35b50505050565b61383a8282612299565b61387d5780826040517fe2517d3f000000000000000000000000000000000000000000000000000000008152600401613874929190615265565b60405180910390fd5b5050565b8061388b83611f55565b10156138cc576040517f08c379a00000000000000000000000000000000000000000000000000000000081526004016138c3906152da565b60405180910390fd5b6138d68282613c08565b8173ffffffffffffffffffffffffffffffffffffffff167f5b5d8478b570a79ab6b3bf13ff029fba19c02ab0d54d692d4ef0d9052d5cc8508260405161391c91906140a5565b60405180910390a25050565b600073ffffffffffffffffffffffffffffffffffffffff168373ffffffffffffffffffffffffffffffffffffffff160361397a57806002600082825461396e9190614fee565b92505081905550613a4d565b60008060008573ffffffffffffffffffffffffffffffffffffffff1673ffffffffffffffffffffffffffffffffffffffff16815260200190815260200160002054905081811015613a06578381836040517fe450d38c0000000000000000000000000000000000000000000000000000000081526004016139fd939291906151a7565b60405180910390fd5b8181036000808673ffffffffffffffffffffffffffffffffffffffff1673ffffffffffffffffffffffffffffffffffffffff16815260200190815260200160002081905550505b600073ffffffffffffffffffffffffffffffffffffffff168273ffffffffffffffffffffffffffffffffffffffff1603613a965780600260008282540392505081905550613ae3565b806000808473ffffffffffffffffffffffffffffffffffffffff1673ffffffffffffffffffffffffffffffffffffffff168152602001908152602001600020600082825401925050819055505b8173ffffffffffffffffffffffffffffffffffffffff168373ffffffffffffffffffffffffffffffffffffffff167fddf252ad1be2c89b69c2b068fc378daa952ba7f163c4a11628f55a4df523b3ef83604051613b4091906140a5565b60405180910390a3505050565b60006b204fce5e3e25026110000000613b6461116a565b83613b6f9190614fee565b1115613bb0576040517f08c379a0000000000000000000000000000000000000000000000000000000008152600401613ba790615245565b60405180910390fd5b613bba8383613c8a565b818373ffffffffffffffffffffffffffffffffffffffff167fcda531bfd68624f13205c0a23cd4d5a7f09792cbb399603114f2b04aaa1bf5cf60405160405180910390a36001905092915050565b600073ffffffffffffffffffffffffffffffffffffffff168273ffffffffffffffffffffffffffffffffffffffff1603613c7a5760006040517f96c6fd1e000000000000000000000000000000000000000000000000000000008152600401613c7191906151de565b60405180910390fd5b613c8682600083613928565b5050565b600073ffffffffffffffffffffffffffffffffffffffff168273ffffffffffffffffffffffffffffffffffffffff1603613cfc5760006040517fec442f05000000000000000000000000000000000000000000000000000000008152600401613cf391906151de565b60405180910390fd5b613d0860008383613928565b5050565b6040518060c0016040528060008152602001606081526020016060815260200160001515815260200160008152602001600073ffffffffffffffffffffffffffffffffffffffff1681525090565b6000604051905090565b600080fd5b600080fd5b60007fffffffff0000000000000000000000000000000000000000000000000000000082169050919050565b613da381613d6e565b8114613dae57600080fd5b50565b600081359050613dc081613d9a565b92915050565b600060208284031215613ddc57613ddb613d64565b5b6000613dea84828501613db1565b91505092915050565b60008115159050919050565b613e0881613df3565b82525050565b6000602082019050613e236000830184613dff565b92915050565b600081519050919050565b600082825260208201905092915050565b6000819050602082019050919050565b6000819050919050565b613e6881613e55565b82525050565b600081519050919050565b600082825260208201905092915050565b60005b83811015613ea8578082015181840152602081019050613e8d565b60008484015250505050565b6000601f19601f8301169050919050565b6000613ed082613e6e565b613eda8185613e79565b9350613eea818560208601613e8a565b613ef381613eb4565b840191505092915050565b613f0781613df3565b82525050565b600073ffffffffffffffffffffffffffffffffffffffff82169050919050565b6000613f3882613f0d565b9050919050565b613f4881613f2d565b82525050565b600060c083016000830151613f666000860182613e5f565b5060208301518482036020860152613f7e8282613ec5565b91505060408301518482036040860152613f988282613ec5565b9150506060830151613fad6060860182613efe565b506080830151613fc06080860182613e5f565b5060a0830151613fd360a0860182613f3f565b508091505092915050565b6000613fea8383613f4e565b905092915050565b6000602082019050919050565b600061400a82613e29565b6140148185613e34565b93508360208202850161402685613e45565b8060005b8581101561406257848403895281516140438582613fde565b945061404e83613ff2565b925060208a0199505060018101905061402a565b50829750879550505050505092915050565b6000602082019050818103600083015261408e8184613fff565b905092915050565b61409f81613e55565b82525050565b60006020820190506140ba6000830184614096565b92915050565b600082825260208201905092915050565b60006140dc82613e6e565b6140e681856140c0565b93506140f6818560208601613e8a565b6140ff81613eb4565b840191505092915050565b6000602082019050818103600083015261412481846140d1565b905092915050565b61413581613f2d565b811461414057600080fd5b50565b6000813590506141528161412c565b92915050565b61416181613e55565b811461416c57600080fd5b50565b60008135905061417e81614158565b92915050565b6000806040838503121561419b5761419a613d64565b5b60006141a985828601614143565b92505060206141ba8582860161416f565b9150509250929050565b6000602082840312156141da576141d9613d64565b5b60006141e884828501614143565b91505092915050565b60006020828403121561420757614206613d64565b5b60006142158482850161416f565b91505092915050565b60008060006060848603121561423757614236613d64565b5b600061424586828701614143565b935050602061425686828701614143565b92505060406142678682870161416f565b9150509250925092565b6000819050919050565b61428481614271565b811461428f57600080fd5b50565b6000813590506142a18161427b565b92915050565b6000602082840312156142bd576142bc613d64565b5b60006142cb84828501614292565b91505092915050565b6142dd81614271565b82525050565b60006020820190506142f860008301846142d4565b92915050565b60006040820190506143136000830185614096565b818103602083015261432581846140d1565b90509392505050565b61433781613f2d565b82525050565b600060c0820190506143526000830189614096565b818103602083015261436481886140d1565b9050818103604083015261437881876140d1565b90506143876060830186613dff565b6143946080830185614096565b6143a160a083018461432e565b979650505050505050565b60006080820190506143c16000830187614096565b81810360208301526143d381866140d1565b905081810360408301526143e781856140d1565b90506143f66060830184614096565b95945050505050565b6000806040838503121561441657614415613d64565b5b600061442485828601614292565b925050602061443585828601614143565b9150509250929050565b600060ff82169050919050565b6144558161443f565b82525050565b6000602082019050614470600083018461444c565b92915050565b6000806040838503121561448d5761448c613d64565b5b600061449b8582860161416f565b92505060206144ac8582860161416f565b9150509250929050565b60008060008060008060008060008060006101608c8e0312156144dc576144db613d64565b5b60006144ea8e828f0161416f565b9b505060206144fb8e828f0161416f565b9a5050604061450c8e828f0161416f565b995050606061451d8e828f0161416f565b985050608061452e8e828f0161416f565b97505060a061453f8e828f0161416f565b96505060c06145508e828f0161416f565b95505060e06145618e828f0161416f565b9450506101006145738e828f0161416f565b9350506101206145858e828f0161416f565b9250506101406145978e828f0161416f565b9150509295989b509295989b9093969950565b600080fd5b600080fd5b7f4e487b7100000000000000000000000000000000000000000000000000000000600052604160045260246000fd5b6145ec82613eb4565b810181811067ffffffffffffffff8211171561460b5761460a6145b4565b5b80604052505050565b600061461e613d5a565b905061462a82826145e3565b919050565b600067ffffffffffffffff82111561464a576146496145b4565b5b61465382613eb4565b9050602081019050919050565b82818337600083830152505050565b600061468261467d8461462f565b614614565b90508281526020810184848401111561469e5761469d6145af565b5b6146a9848285614660565b509392505050565b600082601f8301126146c6576146c56145aa565b5b81356146d684826020860161466f565b91505092915050565b600080604083850312156146f6576146f5613d64565b5b600083013567ffffffffffffffff81111561471457614713613d69565b5b614720858286016146b1565b925050602083013567ffffffffffffffff81111561474157614740613d69565b5b61474d858286016146b1565b9150509250929050565b6000806040838503121561476e5761476d613d64565b5b600061477c8582860161416f565b925050602061478d85828601614143565b9150509250929050565b6000610160820190506147ad600083018e614096565b6147ba602083018d614096565b6147c7604083018c614096565b6147d4606083018b614096565b6147e1608083018a614096565b6147ee60a0830189614096565b6147fb60c0830188614096565b61480860e0830187614096565b614816610100830186614096565b614824610120830185614096565b614832610140830184613dff565b9c9b505050505050505050505050565b6000806040838503121561485957614858613d64565b5b600061486785828601614143565b925050602061487885828601614143565b9150509250929050565b6000606082019050818103600083015261489c81866140d1565b905081810360208301526148b081856140d1565b905081810360408301526148c481846140d1565b9050949350505050565b7f4e487b7100000000000000000000000000000000000000000000000000000000600052603260045260246000fd5b7f4e487b7100000000000000000000000000000000000000000000000000000000600052602260045260246000fd5b6000600282049050600182168061494457607f821691505b602082108103614957576149566148fd565b5b50919050565b7f596f7520617265206e6f7420656e726f6c6c656420696e207468697320636f7560008201527f7273652100000000000000000000000000000000000000000000000000000000602082015250565b60006149b96024836140c0565b91506149c48261495d565b604082019050919050565b600060208201905081810360008301526149e8816149ac565b9050919050565b7f4e487b7100000000000000000000000000000000000000000000000000000000600052601160045260246000fd5b6000614a2982613e55565b9150614a3483613e55565b9250828202614a4281613e55565b91508282048414831517614a5957614a586149ef565b5b5092915050565b7f4e487b7100000000000000000000000000000000000000000000000000000000600052601260045260246000fd5b6000614a9a82613e55565b9150614aa583613e55565b925082614ab557614ab4614a60565b5b828204905092915050565b7f52657669657720616c7265616479207375626d6974746564206279207468697360008201527f2072657669657765722e00000000000000000000000000000000000000000000602082015250565b6000614b1c602a836140c0565b9150614b2782614ac0565b604082019050919050565b60006020820190508181036000830152614b4b81614b0f565b9050919050565b7f53636f726573206d757374206265206265747765656e203120616e642031302e600082015250565b6000614b886020836140c0565b9150614b9382614b52565b602082019050919050565b60006020820190508181036000830152614bb781614b7b565b9050919050565b7f436f7572736520616c726561647920617070726f766564000000000000000000600082015250565b6000614bf46017836140c0565b9150614bff82614bbe565b602082019050919050565b60006020820190508181036000830152614c2381614be7565b9050919050565b7f596f75206861766520616c726561647920617070726f7665642074686973206360008201527f6f75727365000000000000000000000000000000000000000000000000000000602082015250565b6000614c866025836140c0565b9150614c9182614c2a565b604082019050919050565b60006020820190508181036000830152614cb581614c79565b9050919050565b6000614cc782613e55565b91507fffffffffffffffffffffffffffffffffffffffffffffffffffffffffffffffff8203614cf957614cf86149ef565b5b600182019050919050565b7f436f7572736520494420616c7265616479206578697374730000000000000000600082015250565b6000614d3a6018836140c0565b9150614d4582614d04565b602082019050919050565b60006020820190508181036000830152614d6981614d2d565b9050919050565b60008190508160005260206000209050919050565b60006020601f8301049050919050565b600082821b905092915050565b600060088302614dd27fffffffffffffffffffffffffffffffffffffffffffffffffffffffffffffffff82614d95565b614ddc8683614d95565b95508019841693508086168417925050509392505050565b6000819050919050565b6000614e19614e14614e0f84613e55565b614df4565b613e55565b9050919050565b6000819050919050565b614e3383614dfe565b614e47614e3f82614e20565b848454614da2565b825550505050565b600090565b614e5c614e4f565b614e67818484614e2a565b505050565b5b81811015614e8b57614e80600082614e54565b600181019050614e6d565b5050565b601f821115614ed057614ea181614d70565b614eaa84614d85565b81016020851015614eb9578190505b614ecd614ec585614d85565b830182614e6c565b50505b505050565b600082821c905092915050565b6000614ef360001984600802614ed5565b1980831691505092915050565b6000614f0c8383614ee2565b9150826002028217905092915050565b614f2582613e6e565b67ffffffffffffffff811115614f3e57614f3d6145b4565b5b614f48825461492c565b614f53828285614e8f565b600060209050601f831160018114614f865760008415614f74578287015190505b614f7e8582614f00565b865550614fe6565b601f198416614f9486614d70565b60005b82811015614fbc57848901518255600182019150602085019450602081019050614f97565b86831015614fd95784890151614fd5601f891682614ee2565b8355505b6001600288020188555050505b505050505050565b6000614ff982613e55565b915061500483613e55565b925082820190508082111561501c5761501b6149ef565b5b92915050565b600081905092915050565b600061503882613e6e565b6150428185615022565b9350615052818560208601613e8a565b80840191505092915050565b600061506a828461502d565b915081905092915050565b600061508082613e55565b915061508b83613e55565b92508282039050818111156150a3576150a26149ef565b5b92915050565b7f436f75727365206e6f742079657420617070726f766564210000000000000000600082015250565b60006150df6018836140c0565b91506150ea826150a9565b602082019050919050565b6000602082019050818103600083015261510e816150d2565b9050919050565b7f596f752061726520616c726561647920656e726f6c6c656420696e746f20746860008201527f697320636f757273650000000000000000000000000000000000000000000000602082015250565b60006151716029836140c0565b915061517c82615115565b604082019050919050565b600060208201905081810360008301526151a081615164565b9050919050565b60006060820190506151bc600083018661432e565b6151c96020830185614096565b6151d66040830184614096565b949350505050565b60006020820190506151f3600083018461432e565b92915050565b7f4c696d6974204578636565646564210000000000000000000000000000000000600082015250565b600061522f600f836140c0565b915061523a826151f9565b602082019050919050565b6000602082019050818103600083015261525e81615222565b9050919050565b600060408201905061527a600083018561432e565b61528760208301846142d4565b9392505050565b7f496e73756666696369656e742062616c616e6365000000000000000000000000600082015250565b60006152c46014836140c0565b91506152cf8261528e565b602082019050919050565b600060208201905081810360008301526152f3816152b7565b905091905056fea264697066735822122069ae1461b04cefc5d9d273a4f9b64ab4462e6a2ef240f24fb6b1fdb20ba35ae764736f6c634300081b0033",
  "linkReferences": {},
  "deployedLinkReferences": {}
}