{
  "_format": "hh-sol-artifact-1",
  "contractName": "Ecosystem",
  "sourceName": "contracts/Ecosystem  Contracts/Ecosystem.sol",
  "abi": [
    {
      "inputs": [
        {
          "internalType": "address[]",
          "name": "_reviewers",
          "type": "address[]"
        }
      ],
      "stateMutability": "nonpayable",
      "type": "constructor"
    },
    {
      "inputs": [],
      "name": "AccessControlBadConfirmation",
      "type": "error"
    },
    {
      "inputs": [
        {
          "internalType": "address",
          "name": "account",
          "type": "address"
        },
        {
          "internalType": "bytes32",
          "name": "neededRole",
          "type": "bytes32"
        }
      ],
      "name": "AccessControlUnauthorizedAccount",
      "type": "error"
    },
    {
      "inputs": [
        {
          "internalType": "address",
          "name": "spender",
          "type": "address"
        },
        {
          "internalType": "uint256",
          "name": "allowance",
          "type": "uint256"
        },
        {
          "internalType": "uint256",
          "name": "needed",
          "type": "uint256"
        }
      ],
      "name": "ERC20InsufficientAllowance",
      "type": "error"
    },
    {
      "inputs": [
        {
          "internalType": "address",
          "name": "sender",
          "type": "address"
        },
        {
          "internalType": "uint256",
          "name": "balance",
          "type": "uint256"
        },
        {
          "internalType": "uint256",
          "name": "needed",
          "type": "uint256"
        }
      ],
      "name": "ERC20InsufficientBalance",
      "type": "error"
    },
    {
      "inputs": [
        {
          "internalType": "address",
          "name": "approver",
          "type": "address"
        }
      ],
      "name": "ERC20InvalidApprover",
      "type": "error"
    },
    {
      "inputs": [
        {
          "internalType": "address",
          "name": "receiver",
          "type": "address"
        }
      ],
      "name": "ERC20InvalidReceiver",
      "type": "error"
    },
    {
      "inputs": [
        {
          "internalType": "address",
          "name": "sender",
          "type": "address"
        }
      ],
      "name": "ERC20InvalidSender",
      "type": "error"
    },
    {
      "inputs": [
        {
          "internalType": "address",
          "name": "spender",
          "type": "address"
        }
      ],
      "name": "ERC20InvalidSpender",
      "type": "error"
    },
    {
      "inputs": [],
      "name": "ReentrancyGuardReentrantCall",
      "type": "error"
    },
    {
      "anonymous": false,
      "inputs": [
        {
          "indexed": true,
          "internalType": "address",
          "name": "owner",
          "type": "address"
        },
        {
          "indexed": true,
          "internalType": "address",
          "name": "spender",
          "type": "address"
        },
        {
          "indexed": false,
          "internalType": "uint256",
          "name": "value",
          "type": "uint256"
        }
      ],
      "name": "Approval",
      "type": "event"
    },
    {
      "anonymous": false,
      "inputs": [
        {
          "indexed": true,
          "internalType": "address",
          "name": "_account",
          "type": "address"
        },
        {
          "indexed": false,
          "internalType": "uint256",
          "name": "_amount",
          "type": "uint256"
        }
      ],
      "name": "BurnSuccess",
      "type": "event"
    },
    {
      "anonymous": false,
      "inputs": [
        {
          "indexed": true,
          "internalType": "uint256",
          "name": "_courseID",
          "type": "uint256"
        },
        {
          "indexed": true,
          "internalType": "string",
          "name": "_courseName",
          "type": "string"
        },
        {
          "indexed": false,
          "internalType": "bool",
          "name": "_approved",
          "type": "bool"
        }
      ],
      "name": "CourseCreationSuccess",
      "type": "event"
    },
    {
      "anonymous": false,
      "inputs": [
        {
          "indexed": true,
          "internalType": "address",
          "name": "_to",
          "type": "address"
        },
        {
          "indexed": true,
          "internalType": "uint256",
          "name": "_amount",
          "type": "uint256"
        }
      ],
      "name": "EcosystemPoolUpdate",
      "type": "event"
    },
    {
      "anonymous": false,
      "inputs": [
        {
          "indexed": true,
          "internalType": "address",
          "name": "_to",
          "type": "address"
        },
        {
          "indexed": true,
          "internalType": "uint256",
          "name": "_amount",
          "type": "uint256"
        }
      ],
      "name": "MintSuccess",
      "type": "event"
    },
    {
      "anonymous": false,
      "inputs": [
        {
          "indexed": true,
          "internalType": "address",
          "name": "reviewer",
          "type": "address"
        }
      ],
      "name": "ReviewerAddedToPool",
      "type": "event"
    },
    {
      "anonymous": false,
      "inputs": [
        {
          "indexed": true,
          "internalType": "address",
          "name": "reviewer",
          "type": "address"
        }
      ],
      "name": "ReviewerRemovedFromPool",
      "type": "event"
    },
    {
      "anonymous": false,
      "inputs": [
        {
          "indexed": true,
          "internalType": "uint256",
          "name": "courseId",
          "type": "uint256"
        },
        {
          "indexed": false,
          "internalType": "address[]",
          "name": "reviewers",
          "type": "address[]"
        }
      ],
      "name": "ReviewersSelected",
      "type": "event"
    },
    {
      "anonymous": false,
      "inputs": [
        {
          "indexed": true,
          "internalType": "bytes32",
          "name": "role",
          "type": "bytes32"
        },
        {
          "indexed": true,
          "internalType": "bytes32",
          "name": "previousAdminRole",
          "type": "bytes32"
        },
        {
          "indexed": true,
          "internalType": "bytes32",
          "name": "newAdminRole",
          "type": "bytes32"
        }
      ],
      "name": "RoleAdminChanged",
      "type": "event"
    },
    {
      "anonymous": false,
      "inputs": [
        {
          "indexed": true,
          "internalType": "bytes32",
          "name": "role",
          "type": "bytes32"
        },
        {
          "indexed": true,
          "internalType": "address",
          "name": "account",
          "type": "address"
        },
        {
          "indexed": true,
          "internalType": "address",
          "name": "sender",
          "type": "address"
        }
      ],
      "name": "RoleGranted",
      "type": "event"
    },
    {
      "anonymous": false,
      "inputs": [
        {
          "indexed": true,
          "internalType": "bytes32",
          "name": "role",
          "type": "bytes32"
        },
        {
          "indexed": true,
          "internalType": "address",
          "name": "account",
          "type": "address"
        },
        {
          "indexed": true,
          "internalType": "address",
          "name": "sender",
          "type": "address"
        }
      ],
      "name": "RoleRevoked",
      "type": "event"
    },
    {
      "anonymous": false,
      "inputs": [
        {
          "indexed": true,
          "internalType": "address",
          "name": "from",
          "type": "address"
        },
        {
          "indexed": true,
          "internalType": "address",
          "name": "to",
          "type": "address"
        },
        {
          "indexed": false,
          "internalType": "uint256",
          "name": "value",
          "type": "uint256"
        }
      ],
      "name": "Transfer",
      "type": "event"
    },
    {
      "inputs": [],
      "name": "COURSE_OWNER_ROLE",
      "outputs": [
        {
          "internalType": "bytes32",
          "name": "",
          "type": "bytes32"
        }
      ],
      "stateMutability": "view",
      "type": "function"
    },
    {
      "inputs": [],
      "name": "CREATE_COURSE_REWARD",
      "outputs": [
        {
          "internalType": "uint256",
          "name": "",
          "type": "uint256"
        }
      ],
      "stateMutability": "view",
      "type": "function"
    },
    {
      "inputs": [],
      "name": "DEFAULT_ADMIN_ROLE",
      "outputs": [
        {
          "internalType": "bytes32",
          "name": "",
          "type": "bytes32"
        }
      ],
      "stateMutability": "view",
      "type": "function"
    },
    {
      "inputs": [],
      "name": "ECOSYSTEM_POOL",
      "outputs": [
        {
          "internalType": "uint256",
          "name": "",
          "type": "uint256"
        }
      ],
      "stateMutability": "view",
      "type": "function"
    },
    {
      "inputs": [],
      "name": "ENROLLMENT_REWARD",
      "outputs": [
        {
          "internalType": "uint256",
          "name": "",
          "type": "uint256"
        }
      ],
      "stateMutability": "view",
      "type": "function"
    },
    {
      "inputs": [],
      "name": "MAX_SCORE",
      "outputs": [
        {
          "internalType": "uint256",
          "name": "",
          "type": "uint256"
        }
      ],
      "stateMutability": "view",
      "type": "function"
    },
    {
      "inputs": [],
      "name": "MAX_SUPPLY",
      "outputs": [
        {
          "internalType": "uint256",
          "name": "",
          "type": "uint256"
        }
      ],
      "stateMutability": "view",
      "type": "function"
    },
    {
      "inputs": [],
      "name": "MIN_APPROVAL_SCORE",
      "outputs": [
        {
          "internalType": "uint256",
          "name": "",
          "type": "uint256"
        }
      ],
      "stateMutability": "view",
      "type": "function"
    },
    {
      "inputs": [],
      "name": "REQUIRED_APPROVALS",
      "outputs": [
        {
          "internalType": "uint256",
          "name": "",
          "type": "uint256"
        }
      ],
      "stateMutability": "view",
      "type": "function"
    },
    {
      "inputs": [],
      "name": "REVIEWER_ROLE",
      "outputs": [
        {
          "internalType": "bytes32",
          "name": "",
          "type": "bytes32"
        }
      ],
      "stateMutability": "view",
      "type": "function"
    },
    {
      "inputs": [
        {
          "internalType": "address",
          "name": "",
          "type": "address"
        }
      ],
      "name": "accountCourses",
      "outputs": [
        {
          "internalType": "uint256",
          "name": "courseCount",
          "type": "uint256"
        }
      ],
      "stateMutability": "view",
      "type": "function"
    },
    {
      "inputs": [
        {
          "internalType": "address",
          "name": "newReviewer",
          "type": "address"
        }
      ],
      "name": "addReviewer",
      "outputs": [],
      "stateMutability": "nonpayable",
      "type": "function"
    },
    {
      "inputs": [
        {
          "internalType": "address",
          "name": "owner",
          "type": "address"
        },
        {
          "internalType": "address",
          "name": "spender",
          "type": "address"
        }
      ],
      "name": "allowance",
      "outputs": [
        {
          "internalType": "uint256",
          "name": "",
          "type": "uint256"
        }
      ],
      "stateMutability": "view",
      "type": "function"
    },
    {
      "inputs": [
        {
          "internalType": "address",
          "name": "",
          "type": "address"
        },
        {
          "internalType": "uint256",
          "name": "",
          "type": "uint256"
        }
      ],
      "name": "approvals",
      "outputs": [
        {
          "internalType": "bool",
          "name": "",
          "type": "bool"
        }
      ],
      "stateMutability": "view",
      "type": "function"
    },
    {
      "inputs": [
        {
          "internalType": "address",
          "name": "spender",
          "type": "address"
        },
        {
          "internalType": "uint256",
          "name": "value",
          "type": "uint256"
        }
      ],
      "name": "approve",
      "outputs": [
        {
          "internalType": "bool",
          "name": "",
          "type": "bool"
        }
      ],
      "stateMutability": "nonpayable",
      "type": "function"
    },
    {
      "inputs": [
        {
          "internalType": "uint256",
          "name": "_courseId",
          "type": "uint256"
        }
      ],
      "name": "approveCourse",
      "outputs": [],
      "stateMutability": "nonpayable",
      "type": "function"
    },
    {
      "inputs": [
        {
          "internalType": "address",
          "name": "account",
          "type": "address"
        }
      ],
      "name": "balanceOf",
      "outputs": [
        {
          "internalType": "uint256",
          "name": "",
          "type": "uint256"
        }
      ],
      "stateMutability": "view",
      "type": "function"
    },
    {
      "inputs": [
        {
          "internalType": "uint256",
          "name": "",
          "type": "uint256"
        }
      ],
      "name": "chapter",
      "outputs": [
        {
          "internalType": "uint256",
          "name": "chapterId",
          "type": "uint256"
        },
        {
          "internalType": "string",
          "name": "chapterName",
          "type": "string"
        }
      ],
      "stateMutability": "view",
      "type": "function"
    },
    {
      "inputs": [
        {
          "internalType": "uint256",
          "name": "",
          "type": "uint256"
        },
        {
          "internalType": "uint256",
          "name": "",
          "type": "uint256"
        }
      ],
      "name": "chapterLessons",
      "outputs": [
        {
          "internalType": "string",
          "name": "",
          "type": "string"
        }
      ],
      "stateMutability": "view",
      "type": "function"
    },
    {
      "inputs": [
        {
          "internalType": "uint256",
          "name": "",
          "type": "uint256"
        },
        {
          "internalType": "uint256",
          "name": "",
          "type": "uint256"
        }
      ],
      "name": "courseChapters",
      "outputs": [
        {
          "internalType": "string",
          "name": "",
          "type": "string"
        }
      ],
      "stateMutability": "view",
      "type": "function"
    },
    {
      "inputs": [],
      "name": "courseCount",
      "outputs": [
        {
          "internalType": "uint256",
          "name": "",
          "type": "uint256"
        }
      ],
      "stateMutability": "view",
      "type": "function"
    },
    {
      "inputs": [
        {
          "internalType": "uint256",
          "name": "",
          "type": "uint256"
        }
      ],
      "name": "courseObject",
      "outputs": [
        {
          "internalType": "uint256",
          "name": "courseId",
          "type": "uint256"
        },
        {
          "internalType": "string",
          "name": "courseName",
          "type": "string"
        },
        {
          "internalType": "string",
          "name": "description",
          "type": "string"
        },
        {
          "internalType": "bool",
          "name": "approved",
          "type": "bool"
        },
        {
          "internalType": "uint256",
          "name": "approvalCount",
          "type": "uint256"
        },
        {
          "internalType": "address",
          "name": "creator",
          "type": "address"
        }
      ],
      "stateMutability": "view",
      "type": "function"
    },
    {
      "inputs": [
        {
          "internalType": "uint256",
          "name": "",
          "type": "uint256"
        }
      ],
      "name": "courseReviewInitiated",
      "outputs": [
        {
          "internalType": "bool",
          "name": "",
          "type": "bool"
        }
      ],
      "stateMutability": "view",
      "type": "function"
    },
    {
      "inputs": [
        {
          "internalType": "uint256",
          "name": "",
          "type": "uint256"
        },
        {
          "internalType": "uint256",
          "name": "",
          "type": "uint256"
        }
      ],
      "name": "courseReviewers",
      "outputs": [
        {
          "internalType": "address",
          "name": "",
          "type": "address"
        }
      ],
      "stateMutability": "view",
      "type": "function"
    },
    {
      "inputs": [
        {
          "internalType": "string",
          "name": "_courseName",
          "type": "string"
        },
        {
          "internalType": "string",
          "name": "_description",
          "type": "string"
        }
      ],
      "name": "createCourse",
      "outputs": [
        {
          "internalType": "bool",
          "name": "",
          "type": "bool"
        }
      ],
      "stateMutability": "nonpayable",
      "type": "function"
    },
    {
      "inputs": [],
      "name": "decimals",
      "outputs": [
        {
          "internalType": "uint8",
          "name": "",
          "type": "uint8"
        }
      ],
      "stateMutability": "view",
      "type": "function"
    },
    {
      "inputs": [],
      "name": "ecosystemPoolSupply",
      "outputs": [
        {
          "internalType": "uint256",
          "name": "",
          "type": "uint256"
        }
      ],
      "stateMutability": "view",
      "type": "function"
    },
    {
      "inputs": [],
      "name": "getAllCourses",
      "outputs": [
        {
          "components": [
            {
              "internalType": "uint256",
              "name": "courseId",
              "type": "uint256"
            },
            {
              "internalType": "string",
              "name": "courseName",
              "type": "string"
            },
            {
              "internalType": "string",
              "name": "description",
              "type": "string"
            },
            {
              "internalType": "bool",
              "name": "approved",
              "type": "bool"
            },
            {
              "internalType": "uint256",
              "name": "approvalCount",
              "type": "uint256"
            },
            {
              "internalType": "address",
              "name": "creator",
              "type": "address"
            }
          ],
          "internalType": "struct Ecosystem.Course[]",
          "name": "",
          "type": "tuple[]"
        }
      ],
      "stateMutability": "view",
      "type": "function"
    },
    {
      "inputs": [
        {
          "internalType": "uint256",
          "name": "courseId",
          "type": "uint256"
        }
      ],
      "name": "getCourseReviewers",
      "outputs": [
        {
          "internalType": "address[]",
          "name": "",
          "type": "address[]"
        }
      ],
      "stateMutability": "view",
      "type": "function"
    },
    {
      "inputs": [],
      "name": "getCurrentEcosystemPoolSupply",
      "outputs": [
        {
          "internalType": "uint256",
          "name": "",
          "type": "uint256"
        }
      ],
      "stateMutability": "view",
      "type": "function"
    },
    {
      "inputs": [
        {
          "internalType": "bytes32",
          "name": "role",
          "type": "bytes32"
        }
      ],
      "name": "getRoleAdmin",
      "outputs": [
        {
          "internalType": "bytes32",
          "name": "",
          "type": "bytes32"
        }
      ],
      "stateMutability": "view",
      "type": "function"
    },
    {
      "inputs": [
        {
          "internalType": "bytes32",
          "name": "role",
          "type": "bytes32"
        },
        {
          "internalType": "address",
          "name": "account",
          "type": "address"
        }
      ],
      "name": "grantRole",
      "outputs": [],
      "stateMutability": "nonpayable",
      "type": "function"
    },
    {
      "inputs": [
        {
          "internalType": "bytes32",
          "name": "role",
          "type": "bytes32"
        },
        {
          "internalType": "address",
          "name": "account",
          "type": "address"
        }
      ],
      "name": "hasRole",
      "outputs": [
        {
          "internalType": "bool",
          "name": "",
          "type": "bool"
        }
      ],
      "stateMutability": "view",
      "type": "function"
    },
    {
      "inputs": [
        {
          "internalType": "uint256",
          "name": "",
          "type": "uint256"
        },
        {
          "internalType": "address",
          "name": "",
          "type": "address"
        }
      ],
      "name": "isEnrolled",
      "outputs": [
        {
          "internalType": "bool",
          "name": "",
          "type": "bool"
        }
      ],
      "stateMutability": "view",
      "type": "function"
    },
    {
      "inputs": [
        {
          "internalType": "address",
          "name": "",
          "type": "address"
        }
      ],
      "name": "isInReviewerPool",
      "outputs": [
        {
          "internalType": "bool",
          "name": "",
          "type": "bool"
        }
      ],
      "stateMutability": "view",
      "type": "function"
    },
    {
      "inputs": [
        {
          "internalType": "address",
          "name": "account",
          "type": "address"
        }
      ],
      "name": "isReviewer",
      "outputs": [
        {
          "internalType": "bool",
          "name": "",
          "type": "bool"
        }
      ],
      "stateMutability": "view",
      "type": "function"
    },
    {
      "inputs": [
        {
          "internalType": "uint256",
          "name": "",
          "type": "uint256"
        }
      ],
      "name": "lesson",
      "outputs": [
        {
          "internalType": "uint256",
          "name": "lessonId",
          "type": "uint256"
        },
        {
          "internalType": "string",
          "name": "lessonName",
          "type": "string"
        },
        {
          "internalType": "string",
          "name": "lessonContent",
          "type": "string"
        },
        {
          "internalType": "uint256",
          "name": "resourceCount",
          "type": "uint256"
        }
      ],
      "stateMutability": "view",
      "type": "function"
    },
    {
      "inputs": [
        {
          "internalType": "uint256",
          "name": "",
          "type": "uint256"
        }
      ],
      "name": "listOfChapters",
      "outputs": [
        {
          "internalType": "uint256",
          "name": "chapterId",
          "type": "uint256"
        },
        {
          "internalType": "string",
          "name": "chapterName",
          "type": "string"
        }
      ],
      "stateMutability": "view",
      "type": "function"
    },
    {
      "inputs": [
        {
          "internalType": "uint256",
          "name": "",
          "type": "uint256"
        }
      ],
      "name": "listOfCourses",
      "outputs": [
        {
          "internalType": "uint256",
          "name": "courseId",
          "type": "uint256"
        },
        {
          "internalType": "string",
          "name": "courseName",
          "type": "string"
        },
        {
          "internalType": "string",
          "name": "description",
          "type": "string"
        },
        {
          "internalType": "bool",
          "name": "approved",
          "type": "bool"
        },
        {
          "internalType": "uint256",
          "name": "approvalCount",
          "type": "uint256"
        },
        {
          "internalType": "address",
          "name": "creator",
          "type": "address"
        }
      ],
      "stateMutability": "view",
      "type": "function"
    },
    {
      "inputs": [
        {
          "internalType": "uint256",
          "name": "",
          "type": "uint256"
        }
      ],
      "name": "listOfLessons",
      "outputs": [
        {
          "internalType": "uint256",
          "name": "lessonId",
          "type": "uint256"
        },
        {
          "internalType": "string",
          "name": "lessonName",
          "type": "string"
        },
        {
          "internalType": "string",
          "name": "lessonContent",
          "type": "string"
        },
        {
          "internalType": "uint256",
          "name": "resourceCount",
          "type": "uint256"
        }
      ],
      "stateMutability": "view",
      "type": "function"
    },
    {
      "inputs": [
        {
          "internalType": "uint256",
          "name": "",
          "type": "uint256"
        }
      ],
      "name": "listOfQuestions",
      "outputs": [
        {
          "internalType": "uint256",
          "name": "questionId",
          "type": "uint256"
        },
        {
          "internalType": "string",
          "name": "questionText",
          "type": "string"
        }
      ],
      "stateMutability": "view",
      "type": "function"
    },
    {
      "inputs": [
        {
          "internalType": "uint256",
          "name": "",
          "type": "uint256"
        }
      ],
      "name": "listOfQuizzes",
      "outputs": [
        {
          "internalType": "uint256",
          "name": "quizId",
          "type": "uint256"
        },
        {
          "internalType": "string",
          "name": "quizTitle",
          "type": "string"
        }
      ],
      "stateMutability": "view",
      "type": "function"
    },
    {
      "inputs": [
        {
          "internalType": "uint256",
          "name": "",
          "type": "uint256"
        }
      ],
      "name": "listOfResource",
      "outputs": [
        {
          "internalType": "string",
          "name": "contentType",
          "type": "string"
        },
        {
          "internalType": "string",
          "name": "url",
          "type": "string"
        },
        {
          "internalType": "string",
          "name": "description",
          "type": "string"
        }
      ],
      "stateMutability": "view",
      "type": "function"
    },
    {
      "inputs": [],
      "name": "name",
      "outputs": [
        {
          "internalType": "string",
          "name": "",
          "type": "string"
        }
      ],
      "stateMutability": "view",
      "type": "function"
    },
    {
      "inputs": [],
      "name": "nextChapterId",
      "outputs": [
        {
          "internalType": "uint256",
          "name": "",
          "type": "uint256"
        }
      ],
      "stateMutability": "view",
      "type": "function"
    },
    {
      "inputs": [],
      "name": "nextChoiceId",
      "outputs": [
        {
          "internalType": "uint256",
          "name": "",
          "type": "uint256"
        }
      ],
      "stateMutability": "view",
      "type": "function"
    },
    {
      "inputs": [],
      "name": "nextCourseId",
      "outputs": [
        {
          "internalType": "uint256",
          "name": "",
          "type": "uint256"
        }
      ],
      "stateMutability": "view",
      "type": "function"
    },
    {
      "inputs": [],
      "name": "nextCourseIdd",
      "outputs": [
        {
          "internalType": "uint256",
          "name": "",
          "type": "uint256"
        }
      ],
      "stateMutability": "view",
      "type": "function"
    },
    {
      "inputs": [],
      "name": "nextLessonId",
      "outputs": [
        {
          "internalType": "uint256",
          "name": "",
          "type": "uint256"
        }
      ],
      "stateMutability": "view",
      "type": "function"
    },
    {
      "inputs": [],
      "name": "nextQuestionId",
      "outputs": [
        {
          "internalType": "uint256",
          "name": "",
          "type": "uint256"
        }
      ],
      "stateMutability": "view",
      "type": "function"
    },
    {
      "inputs": [],
      "name": "nextQuizId",
      "outputs": [
        {
          "internalType": "uint256",
          "name": "",
          "type": "uint256"
        }
      ],
      "stateMutability": "view",
      "type": "function"
    },
    {
      "inputs": [
        {
          "internalType": "uint256",
          "name": "",
          "type": "uint256"
        }
      ],
      "name": "questions",
      "outputs": [
        {
          "internalType": "uint256",
          "name": "questionId",
          "type": "uint256"
        },
        {
          "internalType": "string",
          "name": "questionText",
          "type": "string"
        }
      ],
      "stateMutability": "view",
      "type": "function"
    },
    {
      "inputs": [
        {
          "internalType": "uint256",
          "name": "",
          "type": "uint256"
        }
      ],
      "name": "quizzes",
      "outputs": [
        {
          "internalType": "uint256",
          "name": "quizId",
          "type": "uint256"
        },
        {
          "internalType": "string",
          "name": "quizTitle",
          "type": "string"
        }
      ],
      "stateMutability": "view",
      "type": "function"
    },
    {
      "inputs": [
        {
          "internalType": "address",
          "name": "reviewer",
          "type": "address"
        }
      ],
      "name": "removeReviewer",
      "outputs": [],
      "stateMutability": "nonpayable",
      "type": "function"
    },
    {
      "inputs": [
        {
          "internalType": "bytes32",
          "name": "role",
          "type": "bytes32"
        },
        {
          "internalType": "address",
          "name": "callerConfirmation",
          "type": "address"
        }
      ],
      "name": "renounceRole",
      "outputs": [],
      "stateMutability": "nonpayable",
      "type": "function"
    },
    {
      "inputs": [
        {
          "internalType": "uint256",
          "name": "",
          "type": "uint256"
        }
      ],
      "name": "reviewerPool",
      "outputs": [
        {
          "internalType": "address",
          "name": "",
          "type": "address"
        }
      ],
      "stateMutability": "view",
      "type": "function"
    },
    {
      "inputs": [
        {
          "internalType": "uint256",
          "name": "",
          "type": "uint256"
        },
        {
          "internalType": "address",
          "name": "",
          "type": "address"
        }
      ],
      "name": "reviews",
      "outputs": [
        {
          "internalType": "uint256",
          "name": "learnerAgency",
          "type": "uint256"
        },
        {
          "internalType": "uint256",
          "name": "criticalThinking",
          "type": "uint256"
        },
        {
          "internalType": "uint256",
          "name": "collaborativeLearning",
          "type": "uint256"
        },
        {
          "internalType": "uint256",
          "name": "reflectivePractice",
          "type": "uint256"
        },
        {
          "internalType": "uint256",
          "name": "adaptiveLearning",
          "type": "uint256"
        },
        {
          "internalType": "uint256",
          "name": "authenticLearning",
          "type": "uint256"
        },
        {
          "internalType": "uint256",
          "name": "technologyIntegration",
          "type": "uint256"
        },
        {
          "internalType": "uint256",
          "name": "learnerSupport",
          "type": "uint256"
        },
        {
          "internalType": "uint256",
          "name": "assessmentForLearning",
          "type": "uint256"
        },
        {
          "internalType": "uint256",
          "name": "engagementAndMotivation",
          "type": "uint256"
        },
        {
          "internalType": "bool",
          "name": "isSubmitted",
          "type": "bool"
        }
      ],
      "stateMutability": "view",
      "type": "function"
    },
    {
      "inputs": [
        {
          "internalType": "bytes32",
          "name": "role",
          "type": "bytes32"
        },
        {
          "internalType": "address",
          "name": "account",
          "type": "address"
        }
      ],
      "name": "revokeRole",
      "outputs": [],
      "stateMutability": "nonpayable",
      "type": "function"
    },
    {
      "inputs": [
        {
          "internalType": "uint256",
          "name": "courseId",
          "type": "uint256"
        }
      ],
      "name": "selectCourseReviewers",
      "outputs": [],
      "stateMutability": "nonpayable",
      "type": "function"
    },
    {
      "inputs": [
        {
          "internalType": "uint256",
          "name": "courseId",
          "type": "uint256"
        },
        {
          "internalType": "uint256",
          "name": "learnerAgency",
          "type": "uint256"
        },
        {
          "internalType": "uint256",
          "name": "criticalThinking",
          "type": "uint256"
        },
        {
          "internalType": "uint256",
          "name": "collaborativeLearning",
          "type": "uint256"
        },
        {
          "internalType": "uint256",
          "name": "reflectivePractice",
          "type": "uint256"
        },
        {
          "internalType": "uint256",
          "name": "adaptiveLearning",
          "type": "uint256"
        },
        {
          "internalType": "uint256",
          "name": "authenticLearning",
          "type": "uint256"
        },
        {
          "internalType": "uint256",
          "name": "technologyIntegration",
          "type": "uint256"
        },
        {
          "internalType": "uint256",
          "name": "learnerSupport",
          "type": "uint256"
        },
        {
          "internalType": "uint256",
          "name": "assessmentForLearning",
          "type": "uint256"
        },
        {
          "internalType": "uint256",
          "name": "engagementAndMotivation",
          "type": "uint256"
        }
      ],
      "name": "submitReview",
      "outputs": [],
      "stateMutability": "nonpayable",
      "type": "function"
    },
    {
      "inputs": [
        {
          "internalType": "bytes4",
          "name": "interfaceId",
          "type": "bytes4"
        }
      ],
      "name": "supportsInterface",
      "outputs": [
        {
          "internalType": "bool",
          "name": "",
          "type": "bool"
        }
      ],
      "stateMutability": "view",
      "type": "function"
    },
    {
      "inputs": [],
      "name": "symbol",
      "outputs": [
        {
          "internalType": "string",
          "name": "",
          "type": "string"
        }
      ],
      "stateMutability": "view",
      "type": "function"
    },
    {
      "inputs": [],
      "name": "totalSupply",
      "outputs": [
        {
          "internalType": "uint256",
          "name": "",
          "type": "uint256"
        }
      ],
      "stateMutability": "view",
      "type": "function"
    },
    {
      "inputs": [
        {
          "internalType": "address",
          "name": "to",
          "type": "address"
        },
        {
          "internalType": "uint256",
          "name": "value",
          "type": "uint256"
        }
      ],
      "name": "transfer",
      "outputs": [
        {
          "internalType": "bool",
          "name": "",
          "type": "bool"
        }
      ],
      "stateMutability": "nonpayable",
      "type": "function"
    },
    {
      "inputs": [
        {
          "internalType": "address",
          "name": "from",
          "type": "address"
        },
        {
          "internalType": "address",
          "name": "to",
          "type": "address"
        },
        {
          "internalType": "uint256",
          "name": "value",
          "type": "uint256"
        }
      ],
      "name": "transferFrom",
      "outputs": [
        {
          "internalType": "bool",
          "name": "",
          "type": "bool"
        }
      ],
      "stateMutability": "nonpayable",
      "type": "function"
    }
  ],
  "bytecode": "0x608060405234801561001057600080fd5b506040516166af3803806166af83398181016040528101906100329190610608565b806040518060400160405280600a81526020017f4142594120544f4b454e000000000000000000000000000000000000000000008152506040518060400160405280600681526020017f414259544b4e000000000000000000000000000000000000000000000000000081525081600390816100ae9190610872565b5080600490816100be9190610872565b505050600481511015610106576040517f08c379a00000000000000000000000000000000000000000000000000000000081526004016100fd906109c7565b60405180910390fd5b6101196000801b3361028d60201b60201c565b5060005b815181101561026d576101707fc10c77be35aff266144ed64c26a1fa104bae2f284ae99ac4a34203454704a18583838151811061015d5761015c6109e7565b5b602002602001015161028d60201b60201c565b506006828281518110610186576101856109e7565b5b60200260200101519080600181540180825580915050600190039060005260206000200160009091909190916101000a81548173ffffffffffffffffffffffffffffffffffffffff021916908373ffffffffffffffffffffffffffffffffffffffff160217905550600160076000848481518110610207576102066109e7565b5b602002602001015173ffffffffffffffffffffffffffffffffffffffff1673ffffffffffffffffffffffffffffffffffffffff16815260200190815260200160002060006101000a81548160ff021916908315150217905550808060010191505061011d565b50506001600881905550610287600961038b60201b60201c565b50610a16565b600061029f83836103ca60201b60201c565b6103805760016005600085815260200190815260200160002060000160008473ffffffffffffffffffffffffffffffffffffffff1673ffffffffffffffffffffffffffffffffffffffff16815260200190815260200160002060006101000a81548160ff02191690831515021790555061031d61043560201b60201c565b73ffffffffffffffffffffffffffffffffffffffff168273ffffffffffffffffffffffffffffffffffffffff16847f2f8788117e7eff1d82e926ec794901d17c78024a50270940304540a733656f0d60405160405180910390a460019050610385565b600090505b92915050565b60018160000181905550600181600101819055506001816002018190555060018160030181905550600181600401819055506001816005018190555050565b60006005600084815260200190815260200160002060000160008373ffffffffffffffffffffffffffffffffffffffff1673ffffffffffffffffffffffffffffffffffffffff16815260200190815260200160002060009054906101000a900460ff16905092915050565b600033905090565b6000604051905090565b600080fd5b600080fd5b600080fd5b6000601f19601f8301169050919050565b7f4e487b7100000000000000000000000000000000000000000000000000000000600052604160045260246000fd5b61049f82610456565b810181811067ffffffffffffffff821117156104be576104bd610467565b5b80604052505050565b60006104d161043d565b90506104dd8282610496565b919050565b600067ffffffffffffffff8211156104fd576104fc610467565b5b602082029050602081019050919050565b600080fd5b600073ffffffffffffffffffffffffffffffffffffffff82169050919050565b600061053e82610513565b9050919050565b61054e81610533565b811461055957600080fd5b50565b60008151905061056b81610545565b92915050565b600061058461057f846104e2565b6104c7565b905080838252602082019050602084028301858111156105a7576105a661050e565b5b835b818110156105d057806105bc888261055c565b8452602084019350506020810190506105a9565b5050509392505050565b600082601f8301126105ef576105ee610451565b5b81516105ff848260208601610571565b91505092915050565b60006020828403121561061e5761061d610447565b5b600082015167ffffffffffffffff81111561063c5761063b61044c565b5b610648848285016105da565b91505092915050565b600081519050919050565b7f4e487b7100000000000000000000000000000000000000000000000000000000600052602260045260246000fd5b600060028204905060018216806106a357607f821691505b6020821081036106b6576106b561065c565b5b50919050565b60008190508160005260206000209050919050565b60006020601f8301049050919050565b600082821b905092915050565b60006008830261071e7fffffffffffffffffffffffffffffffffffffffffffffffffffffffffffffffff826106e1565b61072886836106e1565b95508019841693508086168417925050509392505050565b6000819050919050565b6000819050919050565b600061076f61076a61076584610740565b61074a565b610740565b9050919050565b6000819050919050565b61078983610754565b61079d61079582610776565b8484546106ee565b825550505050565b600090565b6107b26107a5565b6107bd818484610780565b505050565b5b818110156107e1576107d66000826107aa565b6001810190506107c3565b5050565b601f821115610826576107f7816106bc565b610800846106d1565b8101602085101561080f578190505b61082361081b856106d1565b8301826107c2565b50505b505050565b600082821c905092915050565b60006108496000198460080261082b565b1980831691505092915050565b60006108628383610838565b9150826002028217905092915050565b61087b82610651565b67ffffffffffffffff81111561089457610893610467565b5b61089e825461068b565b6108a98282856107e5565b600060209050601f8311600181146108dc57600084156108ca578287015190505b6108d48582610856565b86555061093c565b601f1984166108ea866106bc565b60005b82811015610912578489015182556001820191506020850194506020810190506108ed565b8683101561092f578489015161092b601f891682610838565b8355505b6001600288020188555050505b505050505050565b600082825260208201905092915050565b7f4174206c6561737420342072657669657765727320617265207265717569726560008201527f6400000000000000000000000000000000000000000000000000000000000000602082015250565b60006109b1602183610944565b91506109bc82610955565b604082019050919050565b600060208201905081810360008301526109e0816109a4565b9050919050565b7f4e487b7100000000000000000000000000000000000000000000000000000000600052603260045260246000fd5b615c8a80610a256000396000f3fe608060405234801561001057600080fd5b50600436106103db5760003560e01c806373a82b5f1161020a578063bfd2f4c511610125578063d547741f116100b8578063ded5c18d11610087578063ded5c18d14610d16578063e503f10814610d34578063eb264b9c14610d52578063fdc6258a14610d70578063ffabc67314610da0576103db565b8063d547741f14610c7a578063d93f2caa14610c96578063dd62ed3e14610cb4578063ddfc79fb14610ce4576103db565b8063c7954e4c116100f4578063c7954e4c14610bdf578063c90c884d14610bfd578063c9442dac14610c2e578063c976831514610c4a576103db565b8063bfd2f4c514610b12578063c12804fb14610b45578063c293bbbe14610b7f578063c491b04c14610baf576103db565b8063a14ecbdf1161019d578063a3ef20411161016c578063a3ef204114610a63578063a9059cbb14610a94578063aa95da3a14610ac4578063ac957c6314610af4576103db565b8063a14ecbdf146109c7578063a1cd05b1146109e5578063a217fddf14610a15578063a26a795314610a33576103db565b806388409afa116101d957806388409afa1461092c5780638ea6e2fd1461095d57806391d148541461097957806395d89b41146109a9576103db565b806373a82b5f146108b857806375284998146108d45780637d83daf2146108f0578063846f81521461090e576103db565b80632f2ff15d116102fa5780634d42ef481161028d578063660551591161025c57806366055159146108175780636b000fa7146108355780636fdb67f71461085357806370a0823114610888576103db565b80634d42ef481461077c57806351d93c81146107ac57806358a3fa25146107dd578063599c5533146107f9576103db565b806334ed4bdb116102c957806334ed4bdb146106f457806336568abe146107245780633693dcfa146107405780633b129a561461075e576103db565b80632f2ff15d1461066b578063313ce5671461068757806331b1b978146106a557806332cb6b0c146106d6576103db565b806323b872dd11610372578063295b825a11610341578063295b825a146105b45780632990db7c146105e557806329a0be651461061a5780632aac61ae14610638576103db565b806323b872dd14610518578063248a9ca314610548578063274202f01461057857806327ff622314610596576103db565b8063095ea7b3116103ae578063095ea7b31461046a57806311ce15df1461049a57806318160ddd146104ca57806319f102ec146104e8576103db565b806301ffc9a7146103e057806304e48bd114610410578063057f46bb1461042e57806306fdde031461044c575b600080fd5b6103fa60048036038101906103f5919061442c565b610dd0565b6040516104079190614474565b60405180910390f35b610418610e4a565b60405161042591906146da565b60405180910390f35b61043661114c565b604051610443919061470b565b60405180910390f35b610454611152565b6040516104619190614770565b60405180910390f35b610484600480360381019061047f91906147ea565b6111e4565b6040516104919190614474565b60405180910390f35b6104b460048036038101906104af919061482a565b611207565b6040516104c19190614474565b60405180910390f35b6104d2611227565b6040516104df919061470b565b60405180910390f35b61050260048036038101906104fd919061482a565b611231565b60405161050f9190614866565b60405180910390f35b610532600480360381019061052d9190614881565b611270565b60405161053f9190614474565b60405180910390f35b610562600480360381019061055d919061490a565b61129f565b60405161056f9190614946565b60405180910390f35b6105806112bf565b60405161058d919061470b565b60405180910390f35b61059e6112e7565b6040516105ab919061470b565b60405180910390f35b6105ce60048036038101906105c9919061482a565b6112ec565b6040516105dc929190614961565b60405180910390f35b6105ff60048036038101906105fa919061482a565b6113a8565b60405161061196959493929190614991565b60405180910390f35b610622611521565b60405161062f919061470b565b60405180910390f35b610652600480360381019061064d919061482a565b611527565b6040516106629493929190614a00565b60405180910390f35b61068560048036038101906106809190614a53565b611677565b005b61068f611699565b60405161069c9190614aaf565b60405180910390f35b6106bf60048036038101906106ba919061482a565b6116a2565b6040516106cd929190614961565b60405180910390f35b6106de61174d565b6040516106eb919061470b565b60405180910390f35b61070e60048036038101906107099190614aca565b61175d565b60405161071b919061470b565b60405180910390f35b61073e60048036038101906107399190614a53565b61177b565b005b6107486117f6565b6040516107559190614946565b60405180910390f35b61076661181a565b6040516107739190614946565b60405180910390f35b61079660048036038101906107919190614af7565b61183e565b6040516107a39190614770565b60405180910390f35b6107c660048036038101906107c1919061482a565b6118f7565b6040516107d4929190614961565b60405180910390f35b6107f760048036038101906107f29190614b37565b6119b3565b005b610801611c79565b60405161080e919061470b565b60405180910390f35b61081f611c7e565b60405161082c919061470b565b60405180910390f35b61083d611c84565b60405161084a919061470b565b60405180910390f35b61086d6004803603810190610868919061482a565b611c8a565b60405161087f96959493929190614991565b60405180910390f35b6108a2600480360381019061089d9190614aca565b611e13565b6040516108af919061470b565b60405180910390f35b6108d260048036038101906108cd9190614aca565b611e5b565b005b6108ee60048036038101906108e9919061482a565b61203f565b005b6108f8612259565b604051610905919061470b565b60405180910390f35b61091661225f565b604051610923919061470b565b60405180910390f35b6109466004803603810190610941919061482a565b61226b565b604051610954929190614961565b60405180910390f35b6109776004803603810190610972919061482a565b612317565b005b610993600480360381019061098e9190614a53565b612681565b6040516109a09190614474565b60405180910390f35b6109b16126ec565b6040516109be9190614770565b60405180910390f35b6109cf61277e565b6040516109dc919061470b565b60405180910390f35b6109ff60048036038101906109fa9190614af7565b612784565b604051610a0c9190614866565b60405180910390f35b610a1d6127d2565b604051610a2a9190614946565b60405180910390f35b610a4d6004803603810190610a489190614d60565b6127d9565b604051610a5a9190614474565b60405180910390f35b610a7d6004803603810190610a78919061482a565b612bb0565b604051610a8b929190614961565b60405180910390f35b610aae6004803603810190610aa991906147ea565b612c5c565b604051610abb9190614474565b60405180910390f35b610ade6004803603810190610ad99190614af7565b612c7f565b604051610aeb9190614770565b60405180910390f35b610afc612d38565b604051610b09919061470b565b60405180910390f35b610b2c6004803603810190610b27919061482a565b612d3d565b604051610b3c9493929190614a00565b60405180910390f35b610b5f6004803603810190610b5a9190614dd8565b612e7d565b604051610b769b9a99989796959493929190614e18565b60405180910390f35b610b996004803603810190610b94919061482a565b612ef1565b604051610ba69190614f72565b60405180910390f35b610bc96004803603810190610bc49190614aca565b612f92565b604051610bd69190614474565b60405180910390f35b610be7612fb2565b604051610bf4919061470b565b60405180910390f35b610c176004803603810190610c12919061482a565b612fbc565b604051610c25929190614961565b60405180910390f35b610c486004803603810190610c439190614aca565b613078565b005b610c646004803603810190610c5f9190614dd8565b613362565b604051610c719190614474565b60405180910390f35b610c946004803603810190610c8f9190614a53565b613391565b005b610c9e6133b3565b604051610cab919061470b565b60405180910390f35b610cce6004803603810190610cc99190614f94565b6133bf565b604051610cdb919061470b565b60405180910390f35b610cfe6004803603810190610cf9919061482a565b613446565b604051610d0d93929190614fd4565b60405180910390f35b610d1e613618565b604051610d2b919061470b565b60405180910390f35b610d3c613625565b604051610d49919061470b565b60405180910390f35b610d5a61362b565b604051610d67919061470b565b60405180910390f35b610d8a6004803603810190610d859190614aca565b613631565b604051610d979190614474565b60405180910390f35b610dba6004803603810190610db591906147ea565b613664565b604051610dc79190614474565b60405180910390f35b60007f7965db0b000000000000000000000000000000000000000000000000000000007bffffffffffffffffffffffffffffffffffffffffffffffffffffffff1916827bffffffffffffffffffffffffffffffffffffffffffffffffffffffff19161480610e435750610e4282613693565b5b9050919050565b6060600060248054905067ffffffffffffffff811115610e6d57610e6c614c35565b5b604051908082528060200260200182016040528015610ea657816020015b610e93614334565b815260200190600190039081610e8b5790505b50905060005b602480549050811015611144576040518060c0016040528060248381548110610ed857610ed7615020565b5b906000526020600020906006020160000154815260200160248381548110610f0357610f02615020565b5b90600052602060002090600602016001018054610f1f9061507e565b80601f0160208091040260200160405190810160405280929190818152602001828054610f4b9061507e565b8015610f985780601f10610f6d57610100808354040283529160200191610f98565b820191906000526020600020905b815481529060010190602001808311610f7b57829003601f168201915b5050505050815260200160248381548110610fb657610fb5615020565b5b90600052602060002090600602016002018054610fd29061507e565b80601f0160208091040260200160405190810160405280929190818152602001828054610ffe9061507e565b801561104b5780601f106110205761010080835404028352916020019161104b565b820191906000526020600020905b81548152906001019060200180831161102e57829003601f168201915b505050505081526020016024838154811061106957611068615020565b5b906000526020600020906006020160030160009054906101000a900460ff1615158152602001602483815481106110a3576110a2615020565b5b9060005260206000209060060201600401548152602001602483815481106110ce576110cd615020565b5b906000526020600020906006020160050160009054906101000a900473ffffffffffffffffffffffffffffffffffffffff1673ffffffffffffffffffffffffffffffffffffffff1681525082828151811061112c5761112b615020565b5b60200260200101819052508080600101915050610eac565b508091505090565b60125481565b6060600380546111619061507e565b80601f016020809104026020016040519081016040528092919081815260200182805461118d9061507e565b80156111da5780601f106111af576101008083540402835291602001916111da565b820191906000526020600020905b8154815290600101906020018083116111bd57829003601f168201915b5050505050905090565b6000806111ef6136fd565b90506111fc818585613705565b600191505092915050565b60226020528060005260406000206000915054906101000a900460ff1681565b6000600254905090565b6006818154811061124157600080fd5b906000526020600020016000915054906101000a900473ffffffffffffffffffffffffffffffffffffffff1681565b60008061127b6136fd565b9050611288858285613717565b6112938585856137ab565b60019150509392505050565b600060056000838152602001908152602001600020600101549050919050565b6064600f6b204fce5e3e250261100000006112da91906150de565b6112e4919061514f565b81565b606481565b602881815481106112fc57600080fd5b90600052602060002090600302016000915090508060000154908060010180546113259061507e565b80601f01602080910402602001604051908101604052809291908181526020018280546113519061507e565b801561139e5780601f106113735761010080835404028352916020019161139e565b820191906000526020600020905b81548152906001019060200180831161138157829003601f168201915b5050505050905082565b60176020528060005260406000206000915090508060000154908060010180546113d19061507e565b80601f01602080910402602001604051908101604052809291908181526020018280546113fd9061507e565b801561144a5780601f1061141f5761010080835404028352916020019161144a565b820191906000526020600020905b81548152906001019060200180831161142d57829003601f168201915b50505050509080600201805461145f9061507e565b80601f016020809104026020016040519081016040528092919081815260200182805461148b9061507e565b80156114d85780601f106114ad576101008083540402835291602001916114d8565b820191906000526020600020905b8154815290600101906020018083116114bb57829003601f168201915b5050505050908060030160009054906101000a900460ff16908060040154908060050160009054906101000a900473ffffffffffffffffffffffffffffffffffffffff16905086565b60135481565b6026818154811061153757600080fd5b90600052602060002090602202016000915090508060000154908060010180546115609061507e565b80601f016020809104026020016040519081016040528092919081815260200182805461158c9061507e565b80156115d95780601f106115ae576101008083540402835291602001916115d9565b820191906000526020600020905b8154815290600101906020018083116115bc57829003601f168201915b5050505050908060020180546115ee9061507e565b80601f016020809104026020016040519081016040528092919081815260200182805461161a9061507e565b80156116675780601f1061163c57610100808354040283529160200191611667565b820191906000526020600020905b81548152906001019060200180831161164a57829003601f168201915b5050505050908060210154905084565b6116808261129f565b6116898161389f565b61169383836138b3565b50505050565b60006012905090565b602080528060005260406000206000915090508060000154908060010180546116ca9061507e565b80601f01602080910402602001604051908101604052809291908181526020018280546116f69061507e565b80156117435780601f1061171857610100808354040283529160200191611743565b820191906000526020600020905b81548152906001019060200180831161172657829003601f168201915b5050505050905082565b6b204fce5e3e2502611000000081565b60196020528060005260406000206000915090508060000154905081565b6117836136fd565b73ffffffffffffffffffffffffffffffffffffffff168173ffffffffffffffffffffffffffffffffffffffff16146117e7576040517f6697b23200000000000000000000000000000000000000000000000000000000815260040160405180910390fd5b6117f182826139a5565b505050565b7fadb22091b155738d2e889eb96f509d2a7c93234236b30400927feb4a6a15ab0081565b7fc10c77be35aff266144ed64c26a1fa104bae2f284ae99ac4a34203454704a18581565b601c602052816000526040600020818154811061185a57600080fd5b906000526020600020016000915091505080546118769061507e565b80601f01602080910402602001604051908101604052809291908181526020018280546118a29061507e565b80156118ef5780601f106118c4576101008083540402835291602001916118ef565b820191906000526020600020905b8154815290600101906020018083116118d257829003601f168201915b505050505081565b6029818154811061190757600080fd5b90600052602060002090600302016000915090508060000154908060010180546119309061507e565b80601f016020809104026020016040519081016040528092919081815260200182805461195c9061507e565b80156119a95780601f1061197e576101008083540402835291602001916119a9565b820191906000526020600020905b81548152906001019060200180831161198c57829003601f168201915b5050505050905082565b7fc10c77be35aff266144ed64c26a1fa104bae2f284ae99ac4a34203454704a1856119dd8161389f565b6119e78c33613a98565b611a26576040517f08c379a0000000000000000000000000000000000000000000000000000000008152600401611a1d906151f2565b60405180910390fd5b601860008d815260200190815260200160002060003373ffffffffffffffffffffffffffffffffffffffff1673ffffffffffffffffffffffffffffffffffffffff168152602001908152602001600020600a0160009054906101000a900460ff1615611ac7576040517f08c379a0000000000000000000000000000000000000000000000000000000008152600401611abe90615284565b60405180910390fd5b611ad98b8b8b8b8b8b8b8b8b8b613b63565b6040518061016001604052808c81526020018b81526020018a815260200189815260200188815260200187815260200186815260200185815260200184815260200183815260200160011515815250601860008e815260200190815260200160002060003373ffffffffffffffffffffffffffffffffffffffff1673ffffffffffffffffffffffffffffffffffffffff168152602001908152602001600020600082015181600001556020820151816001015560408201518160020155606082015181600301556080820151816004015560a0820151816005015560c0820151816006015560e082015181600701556101008201518160080155610120820151816009015561014082015181600a0160006101000a81548160ff0219169083151502179055509050506050611c5c601860008f815260200190815260200160002060003373ffffffffffffffffffffffffffffffffffffffff1673ffffffffffffffffffffffffffffffffffffffff168152602001908152602001600020613c28565b10611c6b57611c6a8c61203f565b5b505050505050505050505050565b600281565b60105481565b60165481565b60248181548110611c9a57600080fd5b9060005260206000209060060201600091509050806000015490806001018054611cc39061507e565b80601f0160208091040260200160405190810160405280929190818152602001828054611cef9061507e565b8015611d3c5780601f10611d1157610100808354040283529160200191611d3c565b820191906000526020600020905b815481529060010190602001808311611d1f57829003601f168201915b505050505090806002018054611d519061507e565b80601f0160208091040260200160405190810160405280929190818152602001828054611d7d9061507e565b8015611dca5780601f10611d9f57610100808354040283529160200191611dca565b820191906000526020600020905b815481529060010190602001808311611dad57829003601f168201915b5050505050908060030160009054906101000a900460ff16908060040154908060050160009054906101000a900473ffffffffffffffffffffffffffffffffffffffff16905086565b60008060008373ffffffffffffffffffffffffffffffffffffffff1673ffffffffffffffffffffffffffffffffffffffff168152602001908152602001600020549050919050565b7fc10c77be35aff266144ed64c26a1fa104bae2f284ae99ac4a34203454704a185611e858161389f565b600760008373ffffffffffffffffffffffffffffffffffffffff1673ffffffffffffffffffffffffffffffffffffffff16815260200190815260200160002060009054906101000a900460ff1615611f12576040517f08c379a0000000000000000000000000000000000000000000000000000000008152600401611f09906152f0565b60405180910390fd5b611f3c7fc10c77be35aff266144ed64c26a1fa104bae2f284ae99ac4a34203454704a185836138b3565b506006829080600181540180825580915050600190039060005260206000200160009091909190916101000a81548173ffffffffffffffffffffffffffffffffffffffff021916908373ffffffffffffffffffffffffffffffffffffffff1602179055506001600760008473ffffffffffffffffffffffffffffffffffffffff1673ffffffffffffffffffffffffffffffffffffffff16815260200190815260200160002060006101000a81548160ff0219169083151502179055508173ffffffffffffffffffffffffffffffffffffffff167fe1cb5e1230cc02e62c60b81c1aa5ade512f3eac296edb28628b4cf344f47f93160405160405180910390a25050565b7fc10c77be35aff266144ed64c26a1fa104bae2f284ae99ac4a34203454704a1856120698161389f565b60006017600084815260200190815260200160002090508060030160009054906101000a900460ff16156120d2576040517f08c379a00000000000000000000000000000000000000000000000000000000081526004016120c99061535c565b60405180910390fd5b601a60003373ffffffffffffffffffffffffffffffffffffffff1673ffffffffffffffffffffffffffffffffffffffff168152602001908152602001600020600084815260200190815260200160002060009054906101000a900460ff1615612170576040517f08c379a0000000000000000000000000000000000000000000000000000000008152600401612167906153ee565b60405180910390fd5b6001601a60003373ffffffffffffffffffffffffffffffffffffffff1673ffffffffffffffffffffffffffffffffffffffff168152602001908152602001600020600085815260200190815260200160002060006101000a81548160ff0219169083151502179055508060040160008154809291906121ee9061540e565b919050555060028160040154106122545760018160030160006101000a81548160ff0219169083151502179055506122528160050160009054906101000a900473ffffffffffffffffffffffffffffffffffffffff16674563918244f40000613cbd565b505b505050565b60115481565b671bc16d674ec8000081565b601f6020528060005260406000206000915090508060000154908060010180546122949061507e565b80601f01602080910402602001604051908101604052809291908181526020018280546122c09061507e565b801561230d5780601f106122e25761010080835404028352916020019161230d565b820191906000526020600020905b8154815290600101906020018083116122f057829003601f168201915b5050505050905082565b7fc10c77be35aff266144ed64c26a1fa104bae2f284ae99ac4a34203454704a1856123418161389f565b6022600083815260200190815260200160002060009054906101000a900460ff16156123a2576040517f08c379a0000000000000000000000000000000000000000000000000000000008152600401612399906154a2565b60405180910390fd5b600360068054905010156123eb576040517f08c379a00000000000000000000000000000000000000000000000000000000081526004016123e29061550e565b60405180910390fd5b60216000838152602001908152602001600020600061240a9190614382565b60005b60038110156125e757600060068054905042446006805490508560405160200161243a949392919061554f565b6040516020818303038152906040528051906020012060001c61245d919061559d565b905060006006828154811061247557612474615020565b5b9060005260206000200160009054906101000a900473ffffffffffffffffffffffffffffffffffffffff1690506000805b602160008881526020019081526020016000208054905081101561255c578273ffffffffffffffffffffffffffffffffffffffff16602160008981526020019081526020016000208281548110612500576124ff615020565b5b9060005260206000200160009054906101000a900473ffffffffffffffffffffffffffffffffffffffff1673ffffffffffffffffffffffffffffffffffffffff160361254f576001915061255c565b80806001019150506124a6565b50806125d75760216000878152602001908152602001600020829080600181540180825580915050600190039060005260206000200160009091909190916101000a81548173ffffffffffffffffffffffffffffffffffffffff021916908373ffffffffffffffffffffffffffffffffffffffff1602179055505b505050808060010191505061240d565b5060036021600084815260200190815260200160002080549050036126335760016022600084815260200190815260200160002060006101000a81548160ff0219169083151502179055505b817fe205dff861c570b8df17e26f893778853f94bb25d2de318755e48eab0b403ff76021600085815260200190815260200160002060405161267591906156ba565b60405180910390a25050565b60006005600084815260200190815260200160002060000160008373ffffffffffffffffffffffffffffffffffffffff1673ffffffffffffffffffffffffffffffffffffffff16815260200190815260200160002060009054906101000a900460ff16905092915050565b6060600480546126fb9061507e565b80601f01602080910402602001604051908101604052809291908181526020018280546127279061507e565b80156127745780601f1061274957610100808354040283529160200191612774565b820191906000526020600020905b81548152906001019060200180831161275757829003601f168201915b5050505050905090565b600f5481565b602160205281600052604060002081815481106127a057600080fd5b906000526020600020016000915091509054906101000a900473ffffffffffffffffffffffffffffffffffffffff1681565b6000801b81565b60008073ffffffffffffffffffffffffffffffffffffffff1660176000601154815260200190815260200160002060050160009054906101000a900473ffffffffffffffffffffffffffffffffffffffff1673ffffffffffffffffffffffffffffffffffffffff1614612881576040517f08c379a000000000000000000000000000000000000000000000000000000000815260040161287890615728565b60405180910390fd5b60006040518060c001604052806011548152602001858152602001848152602001600015158152602001600081526020013373ffffffffffffffffffffffffffffffffffffffff1681525090508060176000601154815260200190815260200160002060008201518160000155602082015181600101908161290391906158f4565b50604082015181600201908161291991906158f4565b5060608201518160030160006101000a81548160ff0219169083151502179055506080820151816004015560a08201518160050160006101000a81548173ffffffffffffffffffffffffffffffffffffffff021916908373ffffffffffffffffffffffffffffffffffffffff16021790555090505060248190806001815401808255809150506001900390600052602060002090600602016000909190919091506000820151816000015560208201518160010190816129d991906158f4565b5060408201518160020190816129ef91906158f4565b5060608201518160030160006101000a81548160ff0219169083151502179055506080820151816004015560a08201518160050160006101000a81548173ffffffffffffffffffffffffffffffffffffffff021916908373ffffffffffffffffffffffffffffffffffffffff160217905550505060106000815480929190612a769061540e565b91905055506001601960003373ffffffffffffffffffffffffffffffffffffffff1673ffffffffffffffffffffffffffffffffffffffff1681526020019081526020016000206000016000828254612ace91906159c6565b9250508190555060116000815480929190612ae89061540e565b9190505550612b177fadb22091b155738d2e889eb96f509d2a7c93234236b30400927feb4a6a15ab00336138b3565b5083604051612b269190615a36565b60405180910390206001601154612b3d9190615a4d565b7f9c93a42b217373d37e6c66ace0a67fe1fa1f78c93164b62417de69c48c0f67e2601760006001601154612b719190615a4d565b815260200190815260200160002060030160009054906101000a900460ff16604051612b9d9190614474565b60405180910390a3600191505092915050565b601b602052806000526040600020600091509050806000015490806001018054612bd99061507e565b80601f0160208091040260200160405190810160405280929190818152602001828054612c059061507e565b8015612c525780601f10612c2757610100808354040283529160200191612c52565b820191906000526020600020905b815481529060010190602001808311612c3557829003601f168201915b5050505050905082565b600080612c676136fd565b9050612c748185856137ab565b600191505092915050565b601e6020528160005260406000208181548110612c9b57600080fd5b90600052602060002001600091509150508054612cb79061507e565b80601f0160208091040260200160405190810160405280929190818152602001828054612ce39061507e565b8015612d305780601f10612d0557610100808354040283529160200191612d30565b820191906000526020600020905b815481529060010190602001808311612d1357829003601f168201915b505050505081565b605081565b601d602052806000526040600020600091509050806000015490806001018054612d669061507e565b80601f0160208091040260200160405190810160405280929190818152602001828054612d929061507e565b8015612ddf5780601f10612db457610100808354040283529160200191612ddf565b820191906000526020600020905b815481529060010190602001808311612dc257829003601f168201915b505050505090806002018054612df49061507e565b80601f0160208091040260200160405190810160405280929190818152602001828054612e209061507e565b8015612e6d5780601f10612e4257610100808354040283529160200191612e6d565b820191906000526020600020905b815481529060010190602001808311612e5057829003601f168201915b5050505050908060210154905084565b60186020528160005260406000206020528060005260406000206000915091505080600001549080600101549080600201549080600301549080600401549080600501549080600601549080600701549080600801549080600901549080600a0160009054906101000a900460ff1690508b565b606060216000838152602001908152602001600020805480602002602001604051908101604052809291908181526020018280548015612f8657602002820191906000526020600020905b8160009054906101000a900473ffffffffffffffffffffffffffffffffffffffff1673ffffffffffffffffffffffffffffffffffffffff1681526020019060010190808311612f3c575b50505050509050919050565b60076020528060005260406000206000915054906101000a900460ff1681565b6000600f54905090565b60258181548110612fcc57600080fd5b9060005260206000209060020201600091509050806000015490806001018054612ff59061507e565b80601f01602080910402602001604051908101604052809291908181526020018280546130219061507e565b801561306e5780601f106130435761010080835404028352916020019161306e565b820191906000526020600020905b81548152906001019060200180831161305157829003601f168201915b5050505050905082565b6000801b6130858161389f565b600760008373ffffffffffffffffffffffffffffffffffffffff1673ffffffffffffffffffffffffffffffffffffffff16815260200190815260200160002060009054906101000a900460ff16613111576040517f08c379a000000000000000000000000000000000000000000000000000000000815260040161310890615acd565b60405180910390fd5b60005b600680549050811015613297578273ffffffffffffffffffffffffffffffffffffffff166006828154811061314c5761314b615020565b5b9060005260206000200160009054906101000a900473ffffffffffffffffffffffffffffffffffffffff1673ffffffffffffffffffffffffffffffffffffffff160361328a57600660016006805490506131a69190615a4d565b815481106131b7576131b6615020565b5b9060005260206000200160009054906101000a900473ffffffffffffffffffffffffffffffffffffffff16600682815481106131f6576131f5615020565b5b9060005260206000200160006101000a81548173ffffffffffffffffffffffffffffffffffffffff021916908373ffffffffffffffffffffffffffffffffffffffff16021790555060068054806132505761324f615aed565b5b6001900381819060005260206000200160006101000a81549073ffffffffffffffffffffffffffffffffffffffff02191690559055613297565b8080600101915050613114565b506000600760008473ffffffffffffffffffffffffffffffffffffffff1673ffffffffffffffffffffffffffffffffffffffff16815260200190815260200160002060006101000a81548160ff02191690831515021790555061331a7fc10c77be35aff266144ed64c26a1fa104bae2f284ae99ac4a34203454704a185836139a5565b508173ffffffffffffffffffffffffffffffffffffffff167f55dba9d79522b91b615629d5f3b10c2fad2d258f1768614f4a52e937ada0d0ba60405160405180910390a25050565b60236020528160005260406000206020528060005260406000206000915091509054906101000a900460ff1681565b61339a8261129f565b6133a38161389f565b6133ad83836139a5565b50505050565b674563918244f4000081565b6000600160008473ffffffffffffffffffffffffffffffffffffffff1673ffffffffffffffffffffffffffffffffffffffff16815260200190815260200160002060008373ffffffffffffffffffffffffffffffffffffffff1673ffffffffffffffffffffffffffffffffffffffff16815260200190815260200160002054905092915050565b6027818154811061345657600080fd5b90600052602060002090600302016000915090508060000180546134799061507e565b80601f01602080910402602001604051908101604052809291908181526020018280546134a59061507e565b80156134f25780601f106134c7576101008083540402835291602001916134f2565b820191906000526020600020905b8154815290600101906020018083116134d557829003601f168201915b5050505050908060010180546135079061507e565b80601f01602080910402602001604051908101604052809291908181526020018280546135339061507e565b80156135805780601f1061355557610100808354040283529160200191613580565b820191906000526020600020905b81548152906001019060200180831161356357829003601f168201915b5050505050908060020180546135959061507e565b80601f01602080910402602001604051908101604052809291908181526020018280546135c19061507e565b801561360e5780601f106135e35761010080835404028352916020019161360e565b820191906000526020600020905b8154815290600101906020018083116135f157829003601f168201915b5050505050905083565b6000600960000154905090565b60145481565b60155481565b600061365d7fc10c77be35aff266144ed64c26a1fa104bae2f284ae99ac4a34203454704a18583612681565b9050919050565b601a6020528160005260406000206020528060005260406000206000915091509054906101000a900460ff1681565b60007f01ffc9a7000000000000000000000000000000000000000000000000000000007bffffffffffffffffffffffffffffffffffffffffffffffffffffffff1916827bffffffffffffffffffffffffffffffffffffffffffffffffffffffff1916149050919050565b600033905090565b6137128383836001613daa565b505050565b600061372384846133bf565b90507fffffffffffffffffffffffffffffffffffffffffffffffffffffffffffffffff81146137a55781811015613795578281836040517ffb8f41b200000000000000000000000000000000000000000000000000000000815260040161378c93929190615b1c565b60405180910390fd5b6137a484848484036000613daa565b5b50505050565b600073ffffffffffffffffffffffffffffffffffffffff168373ffffffffffffffffffffffffffffffffffffffff160361381d5760006040517f96c6fd1e0000000000000000000000000000000000000000000000000000000081526004016138149190614866565b60405180910390fd5b600073ffffffffffffffffffffffffffffffffffffffff168273ffffffffffffffffffffffffffffffffffffffff160361388f5760006040517fec442f050000000000000000000000000000000000000000000000000000000081526004016138869190614866565b60405180910390fd5b61389a838383613f81565b505050565b6138b0816138ab6136fd565b6141a6565b50565b60006138bf8383612681565b61399a5760016005600085815260200190815260200160002060000160008473ffffffffffffffffffffffffffffffffffffffff1673ffffffffffffffffffffffffffffffffffffffff16815260200190815260200160002060006101000a81548160ff0219169083151502179055506139376136fd565b73ffffffffffffffffffffffffffffffffffffffff168273ffffffffffffffffffffffffffffffffffffffff16847f2f8788117e7eff1d82e926ec794901d17c78024a50270940304540a733656f0d60405160405180910390a46001905061399f565b600090505b92915050565b60006139b18383612681565b15613a8d5760006005600085815260200190815260200160002060000160008473ffffffffffffffffffffffffffffffffffffffff1673ffffffffffffffffffffffffffffffffffffffff16815260200190815260200160002060006101000a81548160ff021916908315150217905550613a2a6136fd565b73ffffffffffffffffffffffffffffffffffffffff168273ffffffffffffffffffffffffffffffffffffffff16847ff6391f5c32d9c69d2a47ea670b442974b53935d1edc7fd64eb21e047a839171b60405160405180910390a460019050613a92565b600090505b92915050565b600080600090505b6021600085815260200190815260200160002080549050811015613b57578273ffffffffffffffffffffffffffffffffffffffff16602160008681526020019081526020016000208281548110613afa57613af9615020565b5b9060005260206000200160009054906101000a900473ffffffffffffffffffffffffffffffffffffffff1673ffffffffffffffffffffffffffffffffffffffff1603613b4a576001915050613b5d565b8080600101915050613aa0565b50600090505b92915050565b600a8a11158015613b755750600a8911155b8015613b825750600a8811155b8015613b8f5750600a8711155b8015613b9c5750600a8611155b8015613ba95750600a8511155b8015613bb65750600a8411155b8015613bc35750600a8311155b8015613bd05750600a8211155b8015613bdd5750600a8111155b613c1c576040517f08c379a0000000000000000000000000000000000000000000000000000000008152600401613c1390615b9f565b60405180910390fd5b50505050505050505050565b60008160090154826008015483600701548460060154856005015486600401548760030154886002015489600101548a60000154613c6691906159c6565b613c7091906159c6565b613c7a91906159c6565b613c8491906159c6565b613c8e91906159c6565b613c9891906159c6565b613ca291906159c6565b613cac91906159c6565b613cb691906159c6565b9050919050565b60006064600f6b204fce5e3e25026110000000613cda91906150de565b613ce4919061514f565b613cec612fb2565b83613cf791906159c6565b1115613d38576040517f08c379a0000000000000000000000000000000000000000000000000000000008152600401613d2f90615c0b565b60405180910390fd5b613d4283836141f7565b5081600f6000828254613d5591906159c6565b92505081905550818373ffffffffffffffffffffffffffffffffffffffff167fad6ef58d5c294f81258965738e7ae511124139834a8d0b8f8f7327086c82052a60405160405180910390a36001905092915050565b600073ffffffffffffffffffffffffffffffffffffffff168473ffffffffffffffffffffffffffffffffffffffff1603613e1c5760006040517fe602df05000000000000000000000000000000000000000000000000000000008152600401613e139190614866565b60405180910390fd5b600073ffffffffffffffffffffffffffffffffffffffff168373ffffffffffffffffffffffffffffffffffffffff1603613e8e5760006040517f94280d62000000000000000000000000000000000000000000000000000000008152600401613e859190614866565b60405180910390fd5b81600160008673ffffffffffffffffffffffffffffffffffffffff1673ffffffffffffffffffffffffffffffffffffffff16815260200190815260200160002060008573ffffffffffffffffffffffffffffffffffffffff1673ffffffffffffffffffffffffffffffffffffffff168152602001908152602001600020819055508015613f7b578273ffffffffffffffffffffffffffffffffffffffff168473ffffffffffffffffffffffffffffffffffffffff167f8c5be1e5ebec7d5bd14f71427d1e84f3dd0314c0f7b2291e5b200ac8c7c3b92584604051613f72919061470b565b60405180910390a35b50505050565b600073ffffffffffffffffffffffffffffffffffffffff168373ffffffffffffffffffffffffffffffffffffffff1603613fd3578060026000828254613fc791906159c6565b925050819055506140a6565b60008060008573ffffffffffffffffffffffffffffffffffffffff1673ffffffffffffffffffffffffffffffffffffffff1681526020019081526020016000205490508181101561405f578381836040517fe450d38c00000000000000000000000000000000000000000000000000000000815260040161405693929190615b1c565b60405180910390fd5b8181036000808673ffffffffffffffffffffffffffffffffffffffff1673ffffffffffffffffffffffffffffffffffffffff16815260200190815260200160002081905550505b600073ffffffffffffffffffffffffffffffffffffffff168273ffffffffffffffffffffffffffffffffffffffff16036140ef578060026000828254039250508190555061413c565b806000808473ffffffffffffffffffffffffffffffffffffffff1673ffffffffffffffffffffffffffffffffffffffff168152602001908152602001600020600082825401925050819055505b8173ffffffffffffffffffffffffffffffffffffffff168373ffffffffffffffffffffffffffffffffffffffff167fddf252ad1be2c89b69c2b068fc378daa952ba7f163c4a11628f55a4df523b3ef83604051614199919061470b565b60405180910390a3505050565b6141b08282612681565b6141f35780826040517fe2517d3f0000000000000000000000000000000000000000000000000000000081526004016141ea929190615c2b565b60405180910390fd5b5050565b60006b204fce5e3e2502611000000061420e611227565b8361421991906159c6565b111561425a576040517f08c379a000000000000000000000000000000000000000000000000000000000815260040161425190615c0b565b60405180910390fd5b61426483836142b2565b818373ffffffffffffffffffffffffffffffffffffffff167fcda531bfd68624f13205c0a23cd4d5a7f09792cbb399603114f2b04aaa1bf5cf60405160405180910390a36001905092915050565b600073ffffffffffffffffffffffffffffffffffffffff168273ffffffffffffffffffffffffffffffffffffffff16036143245760006040517fec442f0500000000000000000000000000000000000000000000000000000000815260040161431b9190614866565b60405180910390fd5b61433060008383613f81565b5050565b6040518060c0016040528060008152602001606081526020016060815260200160001515815260200160008152602001600073ffffffffffffffffffffffffffffffffffffffff1681525090565b50805460008255906000526020600020908101906143a091906143a3565b50565b5b808211156143bc5760008160009055506001016143a4565b5090565b6000604051905090565b600080fd5b600080fd5b60007fffffffff0000000000000000000000000000000000000000000000000000000082169050919050565b614409816143d4565b811461441457600080fd5b50565b60008135905061442681614400565b92915050565b600060208284031215614442576144416143ca565b5b600061445084828501614417565b91505092915050565b60008115159050919050565b61446e81614459565b82525050565b60006020820190506144896000830184614465565b92915050565b600081519050919050565b600082825260208201905092915050565b6000819050602082019050919050565b6000819050919050565b6144ce816144bb565b82525050565b600081519050919050565b600082825260208201905092915050565b60005b8381101561450e5780820151818401526020810190506144f3565b60008484015250505050565b6000601f19601f8301169050919050565b6000614536826144d4565b61454081856144df565b93506145508185602086016144f0565b6145598161451a565b840191505092915050565b61456d81614459565b82525050565b600073ffffffffffffffffffffffffffffffffffffffff82169050919050565b600061459e82614573565b9050919050565b6145ae81614593565b82525050565b600060c0830160008301516145cc60008601826144c5565b50602083015184820360208601526145e4828261452b565b915050604083015184820360408601526145fe828261452b565b91505060608301516146136060860182614564565b50608083015161462660808601826144c5565b5060a083015161463960a08601826145a5565b508091505092915050565b600061465083836145b4565b905092915050565b6000602082019050919050565b60006146708261448f565b61467a818561449a565b93508360208202850161468c856144ab565b8060005b858110156146c857848403895281516146a98582614644565b94506146b483614658565b925060208a01995050600181019050614690565b50829750879550505050505092915050565b600060208201905081810360008301526146f48184614665565b905092915050565b614705816144bb565b82525050565b600060208201905061472060008301846146fc565b92915050565b600082825260208201905092915050565b6000614742826144d4565b61474c8185614726565b935061475c8185602086016144f0565b6147658161451a565b840191505092915050565b6000602082019050818103600083015261478a8184614737565b905092915050565b61479b81614593565b81146147a657600080fd5b50565b6000813590506147b881614792565b92915050565b6147c7816144bb565b81146147d257600080fd5b50565b6000813590506147e4816147be565b92915050565b60008060408385031215614801576148006143ca565b5b600061480f858286016147a9565b9250506020614820858286016147d5565b9150509250929050565b6000602082840312156148405761483f6143ca565b5b600061484e848285016147d5565b91505092915050565b61486081614593565b82525050565b600060208201905061487b6000830184614857565b92915050565b60008060006060848603121561489a576148996143ca565b5b60006148a8868287016147a9565b93505060206148b9868287016147a9565b92505060406148ca868287016147d5565b9150509250925092565b6000819050919050565b6148e7816148d4565b81146148f257600080fd5b50565b600081359050614904816148de565b92915050565b6000602082840312156149205761491f6143ca565b5b600061492e848285016148f5565b91505092915050565b614940816148d4565b82525050565b600060208201905061495b6000830184614937565b92915050565b600060408201905061497660008301856146fc565b81810360208301526149888184614737565b90509392505050565b600060c0820190506149a660008301896146fc565b81810360208301526149b88188614737565b905081810360408301526149cc8187614737565b90506149db6060830186614465565b6149e860808301856146fc565b6149f560a0830184614857565b979650505050505050565b6000608082019050614a1560008301876146fc565b8181036020830152614a278186614737565b90508181036040830152614a3b8185614737565b9050614a4a60608301846146fc565b95945050505050565b60008060408385031215614a6a57614a696143ca565b5b6000614a78858286016148f5565b9250506020614a89858286016147a9565b9150509250929050565b600060ff82169050919050565b614aa981614a93565b82525050565b6000602082019050614ac46000830184614aa0565b92915050565b600060208284031215614ae057614adf6143ca565b5b6000614aee848285016147a9565b91505092915050565b60008060408385031215614b0e57614b0d6143ca565b5b6000614b1c858286016147d5565b9250506020614b2d858286016147d5565b9150509250929050565b60008060008060008060008060008060006101608c8e031215614b5d57614b5c6143ca565b5b6000614b6b8e828f016147d5565b9b50506020614b7c8e828f016147d5565b9a50506040614b8d8e828f016147d5565b9950506060614b9e8e828f016147d5565b9850506080614baf8e828f016147d5565b97505060a0614bc08e828f016147d5565b96505060c0614bd18e828f016147d5565b95505060e0614be28e828f016147d5565b945050610100614bf48e828f016147d5565b935050610120614c068e828f016147d5565b925050610140614c188e828f016147d5565b9150509295989b509295989b9093969950565b600080fd5b600080fd5b7f4e487b7100000000000000000000000000000000000000000000000000000000600052604160045260246000fd5b614c6d8261451a565b810181811067ffffffffffffffff82111715614c8c57614c8b614c35565b5b80604052505050565b6000614c9f6143c0565b9050614cab8282614c64565b919050565b600067ffffffffffffffff821115614ccb57614cca614c35565b5b614cd48261451a565b9050602081019050919050565b82818337600083830152505050565b6000614d03614cfe84614cb0565b614c95565b905082815260208101848484011115614d1f57614d1e614c30565b5b614d2a848285614ce1565b509392505050565b600082601f830112614d4757614d46614c2b565b5b8135614d57848260208601614cf0565b91505092915050565b60008060408385031215614d7757614d766143ca565b5b600083013567ffffffffffffffff811115614d9557614d946143cf565b5b614da185828601614d32565b925050602083013567ffffffffffffffff811115614dc257614dc16143cf565b5b614dce85828601614d32565b9150509250929050565b60008060408385031215614def57614dee6143ca565b5b6000614dfd858286016147d5565b9250506020614e0e858286016147a9565b9150509250929050565b600061016082019050614e2e600083018e6146fc565b614e3b602083018d6146fc565b614e48604083018c6146fc565b614e55606083018b6146fc565b614e62608083018a6146fc565b614e6f60a08301896146fc565b614e7c60c08301886146fc565b614e8960e08301876146fc565b614e976101008301866146fc565b614ea56101208301856146fc565b614eb3610140830184614465565b9c9b505050505050505050505050565b600081519050919050565b600082825260208201905092915050565b6000819050602082019050919050565b6000614efb83836145a5565b60208301905092915050565b6000602082019050919050565b6000614f1f82614ec3565b614f298185614ece565b9350614f3483614edf565b8060005b83811015614f65578151614f4c8882614eef565b9750614f5783614f07565b925050600181019050614f38565b5085935050505092915050565b60006020820190508181036000830152614f8c8184614f14565b905092915050565b60008060408385031215614fab57614faa6143ca565b5b6000614fb9858286016147a9565b9250506020614fca858286016147a9565b9150509250929050565b60006060820190508181036000830152614fee8186614737565b905081810360208301526150028185614737565b905081810360408301526150168184614737565b9050949350505050565b7f4e487b7100000000000000000000000000000000000000000000000000000000600052603260045260246000fd5b7f4e487b7100000000000000000000000000000000000000000000000000000000600052602260045260246000fd5b6000600282049050600182168061509657607f821691505b6020821081036150a9576150a861504f565b5b50919050565b7f4e487b7100000000000000000000000000000000000000000000000000000000600052601160045260246000fd5b60006150e9826144bb565b91506150f4836144bb565b9250828202615102816144bb565b91508282048414831517615119576151186150af565b5b5092915050565b7f4e487b7100000000000000000000000000000000000000000000000000000000600052601260045260246000fd5b600061515a826144bb565b9150615165836144bb565b92508261517557615174615120565b5b828204905092915050565b7f4e6f742073656c6563746564206173206120726576696577657220666f72207460008201527f68697320636f7572736500000000000000000000000000000000000000000000602082015250565b60006151dc602a83614726565b91506151e782615180565b604082019050919050565b6000602082019050818103600083015261520b816151cf565b9050919050565b7f52657669657720616c7265616479207375626d6974746564206279207468697360008201527f2072657669657765722e00000000000000000000000000000000000000000000602082015250565b600061526e602a83614726565b915061527982615212565b604082019050919050565b6000602082019050818103600083015261529d81615261565b9050919050565b7f416c726561647920696e20726576696577657220706f6f6c0000000000000000600082015250565b60006152da601883614726565b91506152e5826152a4565b602082019050919050565b60006020820190508181036000830152615309816152cd565b9050919050565b7f436f7572736520616c726561647920617070726f766564000000000000000000600082015250565b6000615346601783614726565b915061535182615310565b602082019050919050565b6000602082019050818103600083015261537581615339565b9050919050565b7f596f75206861766520616c726561647920617070726f7665642074686973206360008201527f6f75727365000000000000000000000000000000000000000000000000000000602082015250565b60006153d8602583614726565b91506153e38261537c565b604082019050919050565b60006020820190508181036000830152615407816153cb565b9050919050565b6000615419826144bb565b91507fffffffffffffffffffffffffffffffffffffffffffffffffffffffffffffffff820361544b5761544a6150af565b5b600182019050919050565b7f52657669657765727320616c72656164792073656c6563746564000000000000600082015250565b600061548c601a83614726565b915061549782615456565b602082019050919050565b600060208201905081810360008301526154bb8161547f565b9050919050565b7f4e6f7420656e6f7567682072657669657765727320696e2074686520706f6f6c600082015250565b60006154f8602083614726565b9150615503826154c2565b602082019050919050565b60006020820190508181036000830152615527816154eb565b9050919050565b6000819050919050565b615549615544826144bb565b61552e565b82525050565b600061555b8287615538565b60208201915061556b8286615538565b60208201915061557b8285615538565b60208201915061558b8284615538565b60208201915081905095945050505050565b60006155a8826144bb565b91506155b3836144bb565b9250826155c3576155c2615120565b5b828206905092915050565b600081549050919050565b60008190508160005260206000209050919050565b60008160001c9050919050565b600073ffffffffffffffffffffffffffffffffffffffff82169050919050565b600061562e615629836155ee565b6155fb565b9050919050565b6000615641825461561b565b9050919050565b6000600182019050919050565b6000615660826155ce565b61566a8185614ece565b9350615675836155d9565b8060005b838110156156ad5761568a82615635565b6156948882614eef565b975061569f83615648565b925050600181019050615679565b5085935050505092915050565b600060208201905081810360008301526156d48184615655565b905092915050565b7f436f7572736520494420616c7265616479206578697374730000000000000000600082015250565b6000615712601883614726565b915061571d826156dc565b602082019050919050565b6000602082019050818103600083015261574181615705565b9050919050565b60008190508160005260206000209050919050565b60006020601f8301049050919050565b600082821b905092915050565b6000600883026157aa7fffffffffffffffffffffffffffffffffffffffffffffffffffffffffffffffff8261576d565b6157b4868361576d565b95508019841693508086168417925050509392505050565b6000819050919050565b60006157f16157ec6157e7846144bb565b6157cc565b6144bb565b9050919050565b6000819050919050565b61580b836157d6565b61581f615817826157f8565b84845461577a565b825550505050565b600090565b615834615827565b61583f818484615802565b505050565b5b818110156158635761585860008261582c565b600181019050615845565b5050565b601f8211156158a85761587981615748565b6158828461575d565b81016020851015615891578190505b6158a561589d8561575d565b830182615844565b50505b505050565b600082821c905092915050565b60006158cb600019846008026158ad565b1980831691505092915050565b60006158e483836158ba565b9150826002028217905092915050565b6158fd826144d4565b67ffffffffffffffff81111561591657615915614c35565b5b615920825461507e565b61592b828285615867565b600060209050601f83116001811461595e576000841561594c578287015190505b61595685826158d8565b8655506159be565b601f19841661596c86615748565b60005b828110156159945784890151825560018201915060208501945060208101905061596f565b868310156159b157848901516159ad601f8916826158ba565b8355505b6001600288020188555050505b505050505050565b60006159d1826144bb565b91506159dc836144bb565b92508282019050808211156159f4576159f36150af565b5b92915050565b600081905092915050565b6000615a10826144d4565b615a1a81856159fa565b9350615a2a8185602086016144f0565b80840191505092915050565b6000615a428284615a05565b915081905092915050565b6000615a58826144bb565b9150615a63836144bb565b9250828203905081811115615a7b57615a7a6150af565b5b92915050565b7f4e6f7420696e20726576696577657220706f6f6c000000000000000000000000600082015250565b6000615ab7601483614726565b9150615ac282615a81565b602082019050919050565b60006020820190508181036000830152615ae681615aaa565b9050919050565b7f4e487b7100000000000000000000000000000000000000000000000000000000600052603160045260246000fd5b6000606082019050615b316000830186614857565b615b3e60208301856146fc565b615b4b60408301846146fc565b949350505050565b7f53636f726573206d757374206265206265747765656e203120616e642031302e600082015250565b6000615b89602083614726565b9150615b9482615b53565b602082019050919050565b60006020820190508181036000830152615bb881615b7c565b9050919050565b7f4c696d6974204578636565646564210000000000000000000000000000000000600082015250565b6000615bf5600f83614726565b9150615c0082615bbf565b602082019050919050565b60006020820190508181036000830152615c2481615be8565b9050919050565b6000604082019050615c406000830185614857565b615c4d6020830184614937565b939250505056fea2646970667358221220c5e62e3f6b2834eb1aa12786c467c22717e9c13fe06b172ce7fdf4816b32393f64736f6c634300081b0033",
  "linkReferences": {},
  "deployedLinkReferences": {}
}