{
  "_format": "hh-sol-artifact-1",
  "contractName": "Ecosystem",
  "sourceName": "contracts/Ecosystem  Contracts/Ecosystem.sol",
  "abi": [
    {
      "inputs": [
        {
          "internalType": "address[]",
          "name": "_reviewers",
          "type": "address[]"
        }
      ],
      "stateMutability": "nonpayable",
      "type": "constructor"
    },
    {
      "inputs": [],
      "name": "AccessControlBadConfirmation",
      "type": "error"
    },
    {
      "inputs": [
        {
          "internalType": "address",
          "name": "account",
          "type": "address"
        },
        {
          "internalType": "bytes32",
          "name": "neededRole",
          "type": "bytes32"
        }
      ],
      "name": "AccessControlUnauthorizedAccount",
      "type": "error"
    },
    {
      "inputs": [
        {
          "internalType": "address",
          "name": "spender",
          "type": "address"
        },
        {
          "internalType": "uint256",
          "name": "allowance",
          "type": "uint256"
        },
        {
          "internalType": "uint256",
          "name": "needed",
          "type": "uint256"
        }
      ],
      "name": "ERC20InsufficientAllowance",
      "type": "error"
    },
    {
      "inputs": [
        {
          "internalType": "address",
          "name": "sender",
          "type": "address"
        },
        {
          "internalType": "uint256",
          "name": "balance",
          "type": "uint256"
        },
        {
          "internalType": "uint256",
          "name": "needed",
          "type": "uint256"
        }
      ],
      "name": "ERC20InsufficientBalance",
      "type": "error"
    },
    {
      "inputs": [
        {
          "internalType": "address",
          "name": "approver",
          "type": "address"
        }
      ],
      "name": "ERC20InvalidApprover",
      "type": "error"
    },
    {
      "inputs": [
        {
          "internalType": "address",
          "name": "receiver",
          "type": "address"
        }
      ],
      "name": "ERC20InvalidReceiver",
      "type": "error"
    },
    {
      "inputs": [
        {
          "internalType": "address",
          "name": "sender",
          "type": "address"
        }
      ],
      "name": "ERC20InvalidSender",
      "type": "error"
    },
    {
      "inputs": [
        {
          "internalType": "address",
          "name": "spender",
          "type": "address"
        }
      ],
      "name": "ERC20InvalidSpender",
      "type": "error"
    },
    {
      "inputs": [],
      "name": "ReentrancyGuardReentrantCall",
      "type": "error"
    },
    {
      "anonymous": false,
      "inputs": [
        {
          "indexed": true,
          "internalType": "address",
          "name": "owner",
          "type": "address"
        },
        {
          "indexed": true,
          "internalType": "address",
          "name": "spender",
          "type": "address"
        },
        {
          "indexed": false,
          "internalType": "uint256",
          "name": "value",
          "type": "uint256"
        }
      ],
      "name": "Approval",
      "type": "event"
    },
    {
      "anonymous": false,
      "inputs": [
        {
          "indexed": true,
          "internalType": "address",
          "name": "_account",
          "type": "address"
        },
        {
          "indexed": false,
          "internalType": "uint256",
          "name": "_amount",
          "type": "uint256"
        }
      ],
      "name": "BurnSuccess",
      "type": "event"
    },
    {
      "anonymous": false,
      "inputs": [
        {
          "indexed": true,
          "internalType": "uint256",
          "name": "_courseID",
          "type": "uint256"
        },
        {
          "indexed": true,
          "internalType": "string",
          "name": "_courseName",
          "type": "string"
        },
        {
          "indexed": false,
          "internalType": "bool",
          "name": "_approved",
          "type": "bool"
        }
      ],
      "name": "CourseCreationSuccess",
      "type": "event"
    },
    {
      "anonymous": false,
      "inputs": [
        {
          "indexed": true,
          "internalType": "address",
          "name": "_to",
          "type": "address"
        },
        {
          "indexed": true,
          "internalType": "uint256",
          "name": "_amount",
          "type": "uint256"
        }
      ],
      "name": "EcosystemPoolUpdate",
      "type": "event"
    },
    {
      "anonymous": false,
      "inputs": [
        {
          "indexed": true,
          "internalType": "address",
          "name": "_to",
          "type": "address"
        },
        {
          "indexed": true,
          "internalType": "uint256",
          "name": "_amount",
          "type": "uint256"
        }
      ],
      "name": "MintSuccess",
      "type": "event"
    },
    {
      "anonymous": false,
      "inputs": [
        {
          "indexed": true,
          "internalType": "uint256",
          "name": "proposalId",
          "type": "uint256"
        },
        {
          "indexed": false,
          "internalType": "address",
          "name": "approver",
          "type": "address"
        }
      ],
      "name": "MultiSigProposalApproved",
      "type": "event"
    },
    {
      "anonymous": false,
      "inputs": [
        {
          "indexed": true,
          "internalType": "uint256",
          "name": "proposalId",
          "type": "uint256"
        },
        {
          "indexed": false,
          "internalType": "address",
          "name": "proposer",
          "type": "address"
        }
      ],
      "name": "MultiSigProposalCreated",
      "type": "event"
    },
    {
      "anonymous": false,
      "inputs": [
        {
          "indexed": true,
          "internalType": "uint256",
          "name": "proposalId",
          "type": "uint256"
        }
      ],
      "name": "MultiSigProposalExecuted",
      "type": "event"
    },
    {
      "anonymous": false,
      "inputs": [
        {
          "indexed": true,
          "internalType": "address",
          "name": "reviewer",
          "type": "address"
        }
      ],
      "name": "ReviewerAddedToPool",
      "type": "event"
    },
    {
      "anonymous": false,
      "inputs": [
        {
          "indexed": true,
          "internalType": "address",
          "name": "reviewer",
          "type": "address"
        }
      ],
      "name": "ReviewerRemovedFromPool",
      "type": "event"
    },
    {
      "anonymous": false,
      "inputs": [
        {
          "indexed": true,
          "internalType": "uint256",
          "name": "courseId",
          "type": "uint256"
        },
        {
          "indexed": false,
          "internalType": "address[]",
          "name": "reviewers",
          "type": "address[]"
        }
      ],
      "name": "ReviewersSelected",
      "type": "event"
    },
    {
      "anonymous": false,
      "inputs": [
        {
          "indexed": true,
          "internalType": "bytes32",
          "name": "role",
          "type": "bytes32"
        },
        {
          "indexed": true,
          "internalType": "bytes32",
          "name": "previousAdminRole",
          "type": "bytes32"
        },
        {
          "indexed": true,
          "internalType": "bytes32",
          "name": "newAdminRole",
          "type": "bytes32"
        }
      ],
      "name": "RoleAdminChanged",
      "type": "event"
    },
    {
      "anonymous": false,
      "inputs": [
        {
          "indexed": true,
          "internalType": "bytes32",
          "name": "role",
          "type": "bytes32"
        },
        {
          "indexed": true,
          "internalType": "address",
          "name": "account",
          "type": "address"
        },
        {
          "indexed": true,
          "internalType": "address",
          "name": "sender",
          "type": "address"
        }
      ],
      "name": "RoleGranted",
      "type": "event"
    },
    {
      "anonymous": false,
      "inputs": [
        {
          "indexed": true,
          "internalType": "bytes32",
          "name": "role",
          "type": "bytes32"
        },
        {
          "indexed": true,
          "internalType": "address",
          "name": "account",
          "type": "address"
        },
        {
          "indexed": true,
          "internalType": "address",
          "name": "sender",
          "type": "address"
        }
      ],
      "name": "RoleRevoked",
      "type": "event"
    },
    {
      "anonymous": false,
      "inputs": [
        {
          "indexed": true,
          "internalType": "address",
          "name": "from",
          "type": "address"
        },
        {
          "indexed": true,
          "internalType": "address",
          "name": "to",
          "type": "address"
        },
        {
          "indexed": false,
          "internalType": "uint256",
          "name": "value",
          "type": "uint256"
        }
      ],
      "name": "Transfer",
      "type": "event"
    },
    {
      "inputs": [],
      "name": "COURSE_OWNER_ROLE",
      "outputs": [
        {
          "internalType": "bytes32",
          "name": "",
          "type": "bytes32"
        }
      ],
      "stateMutability": "view",
      "type": "function"
    },
    {
      "inputs": [],
      "name": "CREATE_COURSE_REWARD",
      "outputs": [
        {
          "internalType": "uint256",
          "name": "",
          "type": "uint256"
        }
      ],
      "stateMutability": "view",
      "type": "function"
    },
    {
      "inputs": [],
      "name": "DEFAULT_ADMIN_ROLE",
      "outputs": [
        {
          "internalType": "bytes32",
          "name": "",
          "type": "bytes32"
        }
      ],
      "stateMutability": "view",
      "type": "function"
    },
    {
      "inputs": [],
      "name": "ECOSYSTEM_POOL",
      "outputs": [
        {
          "internalType": "uint256",
          "name": "",
          "type": "uint256"
        }
      ],
      "stateMutability": "view",
      "type": "function"
    },
    {
      "inputs": [],
      "name": "ENROLLMENT_REWARD",
      "outputs": [
        {
          "internalType": "uint256",
          "name": "",
          "type": "uint256"
        }
      ],
      "stateMutability": "view",
      "type": "function"
    },
    {
      "inputs": [],
      "name": "MAX_SCORE",
      "outputs": [
        {
          "internalType": "uint256",
          "name": "",
          "type": "uint256"
        }
      ],
      "stateMutability": "view",
      "type": "function"
    },
    {
      "inputs": [],
      "name": "MAX_SUPPLY",
      "outputs": [
        {
          "internalType": "uint256",
          "name": "",
          "type": "uint256"
        }
      ],
      "stateMutability": "view",
      "type": "function"
    },
    {
      "inputs": [],
      "name": "MIN_APPROVAL_SCORE",
      "outputs": [
        {
          "internalType": "uint256",
          "name": "",
          "type": "uint256"
        }
      ],
      "stateMutability": "view",
      "type": "function"
    },
    {
      "inputs": [],
      "name": "MULTISIG_APPROVER",
      "outputs": [
        {
          "internalType": "bytes32",
          "name": "",
          "type": "bytes32"
        }
      ],
      "stateMutability": "view",
      "type": "function"
    },
    {
      "inputs": [],
      "name": "REQUIRED_APPROVALS",
      "outputs": [
        {
          "internalType": "uint256",
          "name": "",
          "type": "uint256"
        }
      ],
      "stateMutability": "view",
      "type": "function"
    },
    {
      "inputs": [],
      "name": "REVIEWER_ROLE",
      "outputs": [
        {
          "internalType": "bytes32",
          "name": "",
          "type": "bytes32"
        }
      ],
      "stateMutability": "view",
      "type": "function"
    },
    {
      "inputs": [
        {
          "internalType": "address",
          "name": "",
          "type": "address"
        }
      ],
      "name": "accountCourses",
      "outputs": [
        {
          "internalType": "uint256",
          "name": "courseCount",
          "type": "uint256"
        }
      ],
      "stateMutability": "view",
      "type": "function"
    },
    {
      "inputs": [
        {
          "internalType": "address",
          "name": "newReviewer",
          "type": "address"
        }
      ],
      "name": "addReviewer",
      "outputs": [],
      "stateMutability": "nonpayable",
      "type": "function"
    },
    {
      "inputs": [
        {
          "internalType": "address",
          "name": "owner",
          "type": "address"
        },
        {
          "internalType": "address",
          "name": "spender",
          "type": "address"
        }
      ],
      "name": "allowance",
      "outputs": [
        {
          "internalType": "uint256",
          "name": "",
          "type": "uint256"
        }
      ],
      "stateMutability": "view",
      "type": "function"
    },
    {
      "inputs": [
        {
          "internalType": "address",
          "name": "",
          "type": "address"
        },
        {
          "internalType": "uint256",
          "name": "",
          "type": "uint256"
        }
      ],
      "name": "approvals",
      "outputs": [
        {
          "internalType": "bool",
          "name": "",
          "type": "bool"
        }
      ],
      "stateMutability": "view",
      "type": "function"
    },
    {
      "inputs": [
        {
          "internalType": "address",
          "name": "spender",
          "type": "address"
        },
        {
          "internalType": "uint256",
          "name": "value",
          "type": "uint256"
        }
      ],
      "name": "approve",
      "outputs": [
        {
          "internalType": "bool",
          "name": "",
          "type": "bool"
        }
      ],
      "stateMutability": "nonpayable",
      "type": "function"
    },
    {
      "inputs": [
        {
          "internalType": "uint256",
          "name": "_courseId",
          "type": "uint256"
        }
      ],
      "name": "approveCourse",
      "outputs": [],
      "stateMutability": "nonpayable",
      "type": "function"
    },
    {
      "inputs": [
        {
          "internalType": "uint256",
          "name": "_proposalId",
          "type": "uint256"
        }
      ],
      "name": "approveMultiSigProposal",
      "outputs": [],
      "stateMutability": "nonpayable",
      "type": "function"
    },
    {
      "inputs": [
        {
          "internalType": "address",
          "name": "account",
          "type": "address"
        }
      ],
      "name": "balanceOf",
      "outputs": [
        {
          "internalType": "uint256",
          "name": "",
          "type": "uint256"
        }
      ],
      "stateMutability": "view",
      "type": "function"
    },
    {
      "inputs": [
        {
          "internalType": "uint256",
          "name": "",
          "type": "uint256"
        }
      ],
      "name": "chapter",
      "outputs": [
        {
          "internalType": "uint256",
          "name": "chapterId",
          "type": "uint256"
        },
        {
          "internalType": "string",
          "name": "chapterName",
          "type": "string"
        }
      ],
      "stateMutability": "view",
      "type": "function"
    },
    {
      "inputs": [
        {
          "internalType": "uint256",
          "name": "",
          "type": "uint256"
        },
        {
          "internalType": "uint256",
          "name": "",
          "type": "uint256"
        }
      ],
      "name": "chapterLessons",
      "outputs": [
        {
          "internalType": "string",
          "name": "",
          "type": "string"
        }
      ],
      "stateMutability": "view",
      "type": "function"
    },
    {
      "inputs": [
        {
          "internalType": "uint256",
          "name": "",
          "type": "uint256"
        },
        {
          "internalType": "uint256",
          "name": "",
          "type": "uint256"
        }
      ],
      "name": "courseChapters",
      "outputs": [
        {
          "internalType": "string",
          "name": "",
          "type": "string"
        }
      ],
      "stateMutability": "view",
      "type": "function"
    },
    {
      "inputs": [],
      "name": "courseCount",
      "outputs": [
        {
          "internalType": "uint256",
          "name": "",
          "type": "uint256"
        }
      ],
      "stateMutability": "view",
      "type": "function"
    },
    {
      "inputs": [
        {
          "internalType": "uint256",
          "name": "",
          "type": "uint256"
        }
      ],
      "name": "courseObject",
      "outputs": [
        {
          "internalType": "uint256",
          "name": "courseId",
          "type": "uint256"
        },
        {
          "internalType": "string",
          "name": "courseName",
          "type": "string"
        },
        {
          "internalType": "string",
          "name": "description",
          "type": "string"
        },
        {
          "internalType": "bool",
          "name": "approved",
          "type": "bool"
        },
        {
          "internalType": "uint256",
          "name": "approvalCount",
          "type": "uint256"
        },
        {
          "internalType": "address",
          "name": "creator",
          "type": "address"
        }
      ],
      "stateMutability": "view",
      "type": "function"
    },
    {
      "inputs": [
        {
          "internalType": "uint256",
          "name": "",
          "type": "uint256"
        }
      ],
      "name": "courseReviewInitiated",
      "outputs": [
        {
          "internalType": "bool",
          "name": "",
          "type": "bool"
        }
      ],
      "stateMutability": "view",
      "type": "function"
    },
    {
      "inputs": [
        {
          "internalType": "uint256",
          "name": "",
          "type": "uint256"
        },
        {
          "internalType": "uint256",
          "name": "",
          "type": "uint256"
        }
      ],
      "name": "courseReviewers",
      "outputs": [
        {
          "internalType": "address",
          "name": "",
          "type": "address"
        }
      ],
      "stateMutability": "view",
      "type": "function"
    },
    {
      "inputs": [
        {
          "internalType": "string",
          "name": "_courseName",
          "type": "string"
        },
        {
          "internalType": "string",
          "name": "_description",
          "type": "string"
        }
      ],
      "name": "createCourse",
      "outputs": [
        {
          "internalType": "bool",
          "name": "",
          "type": "bool"
        }
      ],
      "stateMutability": "nonpayable",
      "type": "function"
    },
    {
      "inputs": [],
      "name": "decimals",
      "outputs": [
        {
          "internalType": "uint8",
          "name": "",
          "type": "uint8"
        }
      ],
      "stateMutability": "view",
      "type": "function"
    },
    {
      "inputs": [],
      "name": "ecosystemPoolSupply",
      "outputs": [
        {
          "internalType": "uint256",
          "name": "",
          "type": "uint256"
        }
      ],
      "stateMutability": "view",
      "type": "function"
    },
    {
      "inputs": [],
      "name": "getAllCourses",
      "outputs": [
        {
          "components": [
            {
              "internalType": "uint256",
              "name": "courseId",
              "type": "uint256"
            },
            {
              "internalType": "string",
              "name": "courseName",
              "type": "string"
            },
            {
              "internalType": "string",
              "name": "description",
              "type": "string"
            },
            {
              "internalType": "bool",
              "name": "approved",
              "type": "bool"
            },
            {
              "internalType": "uint256",
              "name": "approvalCount",
              "type": "uint256"
            },
            {
              "internalType": "address",
              "name": "creator",
              "type": "address"
            }
          ],
          "internalType": "struct Ecosystem.Course[]",
          "name": "",
          "type": "tuple[]"
        }
      ],
      "stateMutability": "view",
      "type": "function"
    },
    {
      "inputs": [
        {
          "internalType": "uint256",
          "name": "courseId",
          "type": "uint256"
        }
      ],
      "name": "getCourseReviewers",
      "outputs": [
        {
          "internalType": "address[]",
          "name": "",
          "type": "address[]"
        }
      ],
      "stateMutability": "view",
      "type": "function"
    },
    {
      "inputs": [],
      "name": "getCurrentEcosystemPoolSupply",
      "outputs": [
        {
          "internalType": "uint256",
          "name": "",
          "type": "uint256"
        }
      ],
      "stateMutability": "view",
      "type": "function"
    },
    {
      "inputs": [
        {
          "internalType": "bytes32",
          "name": "role",
          "type": "bytes32"
        }
      ],
      "name": "getRoleAdmin",
      "outputs": [
        {
          "internalType": "bytes32",
          "name": "",
          "type": "bytes32"
        }
      ],
      "stateMutability": "view",
      "type": "function"
    },
    {
      "inputs": [
        {
          "internalType": "bytes32",
          "name": "role",
          "type": "bytes32"
        },
        {
          "internalType": "address",
          "name": "account",
          "type": "address"
        }
      ],
      "name": "grantRole",
      "outputs": [],
      "stateMutability": "nonpayable",
      "type": "function"
    },
    {
      "inputs": [
        {
          "internalType": "bytes32",
          "name": "role",
          "type": "bytes32"
        },
        {
          "internalType": "address",
          "name": "account",
          "type": "address"
        }
      ],
      "name": "hasRole",
      "outputs": [
        {
          "internalType": "bool",
          "name": "",
          "type": "bool"
        }
      ],
      "stateMutability": "view",
      "type": "function"
    },
    {
      "inputs": [
        {
          "internalType": "uint256",
          "name": "",
          "type": "uint256"
        },
        {
          "internalType": "address",
          "name": "",
          "type": "address"
        }
      ],
      "name": "isEnrolled",
      "outputs": [
        {
          "internalType": "bool",
          "name": "",
          "type": "bool"
        }
      ],
      "stateMutability": "view",
      "type": "function"
    },
    {
      "inputs": [
        {
          "internalType": "address",
          "name": "",
          "type": "address"
        }
      ],
      "name": "isInReviewerPool",
      "outputs": [
        {
          "internalType": "bool",
          "name": "",
          "type": "bool"
        }
      ],
      "stateMutability": "view",
      "type": "function"
    },
    {
      "inputs": [
        {
          "internalType": "address",
          "name": "account",
          "type": "address"
        }
      ],
      "name": "isReviewer",
      "outputs": [
        {
          "internalType": "bool",
          "name": "",
          "type": "bool"
        }
      ],
      "stateMutability": "view",
      "type": "function"
    },
    {
      "inputs": [
        {
          "internalType": "uint256",
          "name": "",
          "type": "uint256"
        }
      ],
      "name": "lesson",
      "outputs": [
        {
          "internalType": "uint256",
          "name": "lessonId",
          "type": "uint256"
        },
        {
          "internalType": "string",
          "name": "lessonName",
          "type": "string"
        },
        {
          "internalType": "string",
          "name": "lessonContent",
          "type": "string"
        },
        {
          "internalType": "uint256",
          "name": "resourceCount",
          "type": "uint256"
        }
      ],
      "stateMutability": "view",
      "type": "function"
    },
    {
      "inputs": [
        {
          "internalType": "uint256",
          "name": "",
          "type": "uint256"
        }
      ],
      "name": "listOfChapters",
      "outputs": [
        {
          "internalType": "uint256",
          "name": "chapterId",
          "type": "uint256"
        },
        {
          "internalType": "string",
          "name": "chapterName",
          "type": "string"
        }
      ],
      "stateMutability": "view",
      "type": "function"
    },
    {
      "inputs": [
        {
          "internalType": "uint256",
          "name": "",
          "type": "uint256"
        }
      ],
      "name": "listOfCourses",
      "outputs": [
        {
          "internalType": "uint256",
          "name": "courseId",
          "type": "uint256"
        },
        {
          "internalType": "string",
          "name": "courseName",
          "type": "string"
        },
        {
          "internalType": "string",
          "name": "description",
          "type": "string"
        },
        {
          "internalType": "bool",
          "name": "approved",
          "type": "bool"
        },
        {
          "internalType": "uint256",
          "name": "approvalCount",
          "type": "uint256"
        },
        {
          "internalType": "address",
          "name": "creator",
          "type": "address"
        }
      ],
      "stateMutability": "view",
      "type": "function"
    },
    {
      "inputs": [
        {
          "internalType": "uint256",
          "name": "",
          "type": "uint256"
        }
      ],
      "name": "listOfLessons",
      "outputs": [
        {
          "internalType": "uint256",
          "name": "lessonId",
          "type": "uint256"
        },
        {
          "internalType": "string",
          "name": "lessonName",
          "type": "string"
        },
        {
          "internalType": "string",
          "name": "lessonContent",
          "type": "string"
        },
        {
          "internalType": "uint256",
          "name": "resourceCount",
          "type": "uint256"
        }
      ],
      "stateMutability": "view",
      "type": "function"
    },
    {
      "inputs": [
        {
          "internalType": "uint256",
          "name": "",
          "type": "uint256"
        }
      ],
      "name": "listOfQuestions",
      "outputs": [
        {
          "internalType": "uint256",
          "name": "questionId",
          "type": "uint256"
        },
        {
          "internalType": "string",
          "name": "questionText",
          "type": "string"
        }
      ],
      "stateMutability": "view",
      "type": "function"
    },
    {
      "inputs": [
        {
          "internalType": "uint256",
          "name": "",
          "type": "uint256"
        }
      ],
      "name": "listOfQuizzes",
      "outputs": [
        {
          "internalType": "uint256",
          "name": "quizId",
          "type": "uint256"
        },
        {
          "internalType": "string",
          "name": "quizTitle",
          "type": "string"
        }
      ],
      "stateMutability": "view",
      "type": "function"
    },
    {
      "inputs": [
        {
          "internalType": "uint256",
          "name": "",
          "type": "uint256"
        }
      ],
      "name": "listOfResource",
      "outputs": [
        {
          "internalType": "string",
          "name": "contentType",
          "type": "string"
        },
        {
          "internalType": "string",
          "name": "url",
          "type": "string"
        },
        {
          "internalType": "string",
          "name": "description",
          "type": "string"
        }
      ],
      "stateMutability": "view",
      "type": "function"
    },
    {
      "inputs": [
        {
          "internalType": "uint256",
          "name": "",
          "type": "uint256"
        }
      ],
      "name": "multiSigProposals",
      "outputs": [
        {
          "internalType": "uint256",
          "name": "id",
          "type": "uint256"
        },
        {
          "internalType": "address",
          "name": "proposer",
          "type": "address"
        },
        {
          "internalType": "address",
          "name": "targetContract",
          "type": "address"
        },
        {
          "internalType": "bytes",
          "name": "data",
          "type": "bytes"
        },
        {
          "internalType": "uint256",
          "name": "approvalCount",
          "type": "uint256"
        },
        {
          "internalType": "bool",
          "name": "executed",
          "type": "bool"
        }
      ],
      "stateMutability": "view",
      "type": "function"
    },
    {
      "inputs": [],
      "name": "name",
      "outputs": [
        {
          "internalType": "string",
          "name": "",
          "type": "string"
        }
      ],
      "stateMutability": "view",
      "type": "function"
    },
    {
      "inputs": [],
      "name": "nextChapterId",
      "outputs": [
        {
          "internalType": "uint256",
          "name": "",
          "type": "uint256"
        }
      ],
      "stateMutability": "view",
      "type": "function"
    },
    {
      "inputs": [],
      "name": "nextChoiceId",
      "outputs": [
        {
          "internalType": "uint256",
          "name": "",
          "type": "uint256"
        }
      ],
      "stateMutability": "view",
      "type": "function"
    },
    {
      "inputs": [],
      "name": "nextCourseId",
      "outputs": [
        {
          "internalType": "uint256",
          "name": "",
          "type": "uint256"
        }
      ],
      "stateMutability": "view",
      "type": "function"
    },
    {
      "inputs": [],
      "name": "nextCourseIdd",
      "outputs": [
        {
          "internalType": "uint256",
          "name": "",
          "type": "uint256"
        }
      ],
      "stateMutability": "view",
      "type": "function"
    },
    {
      "inputs": [],
      "name": "nextLessonId",
      "outputs": [
        {
          "internalType": "uint256",
          "name": "",
          "type": "uint256"
        }
      ],
      "stateMutability": "view",
      "type": "function"
    },
    {
      "inputs": [],
      "name": "nextQuestionId",
      "outputs": [
        {
          "internalType": "uint256",
          "name": "",
          "type": "uint256"
        }
      ],
      "stateMutability": "view",
      "type": "function"
    },
    {
      "inputs": [],
      "name": "nextQuizId",
      "outputs": [
        {
          "internalType": "uint256",
          "name": "",
          "type": "uint256"
        }
      ],
      "stateMutability": "view",
      "type": "function"
    },
    {
      "inputs": [
        {
          "internalType": "uint256",
          "name": "",
          "type": "uint256"
        }
      ],
      "name": "questions",
      "outputs": [
        {
          "internalType": "uint256",
          "name": "questionId",
          "type": "uint256"
        },
        {
          "internalType": "string",
          "name": "questionText",
          "type": "string"
        }
      ],
      "stateMutability": "view",
      "type": "function"
    },
    {
      "inputs": [
        {
          "internalType": "uint256",
          "name": "",
          "type": "uint256"
        }
      ],
      "name": "quizzes",
      "outputs": [
        {
          "internalType": "uint256",
          "name": "quizId",
          "type": "uint256"
        },
        {
          "internalType": "string",
          "name": "quizTitle",
          "type": "string"
        }
      ],
      "stateMutability": "view",
      "type": "function"
    },
    {
      "inputs": [
        {
          "internalType": "address",
          "name": "reviewer",
          "type": "address"
        }
      ],
      "name": "removeReviewer",
      "outputs": [],
      "stateMutability": "nonpayable",
      "type": "function"
    },
    {
      "inputs": [
        {
          "internalType": "bytes32",
          "name": "role",
          "type": "bytes32"
        },
        {
          "internalType": "address",
          "name": "callerConfirmation",
          "type": "address"
        }
      ],
      "name": "renounceRole",
      "outputs": [],
      "stateMutability": "nonpayable",
      "type": "function"
    },
    {
      "inputs": [
        {
          "internalType": "uint256",
          "name": "",
          "type": "uint256"
        }
      ],
      "name": "reviewerPool",
      "outputs": [
        {
          "internalType": "address",
          "name": "",
          "type": "address"
        }
      ],
      "stateMutability": "view",
      "type": "function"
    },
    {
      "inputs": [
        {
          "internalType": "uint256",
          "name": "",
          "type": "uint256"
        },
        {
          "internalType": "address",
          "name": "",
          "type": "address"
        }
      ],
      "name": "reviews",
      "outputs": [
        {
          "internalType": "uint256",
          "name": "learnerAgency",
          "type": "uint256"
        },
        {
          "internalType": "uint256",
          "name": "criticalThinking",
          "type": "uint256"
        },
        {
          "internalType": "uint256",
          "name": "collaborativeLearning",
          "type": "uint256"
        },
        {
          "internalType": "uint256",
          "name": "reflectivePractice",
          "type": "uint256"
        },
        {
          "internalType": "uint256",
          "name": "adaptiveLearning",
          "type": "uint256"
        },
        {
          "internalType": "uint256",
          "name": "authenticLearning",
          "type": "uint256"
        },
        {
          "internalType": "uint256",
          "name": "technologyIntegration",
          "type": "uint256"
        },
        {
          "internalType": "uint256",
          "name": "learnerSupport",
          "type": "uint256"
        },
        {
          "internalType": "uint256",
          "name": "assessmentForLearning",
          "type": "uint256"
        },
        {
          "internalType": "uint256",
          "name": "engagementAndMotivation",
          "type": "uint256"
        },
        {
          "internalType": "bool",
          "name": "isSubmitted",
          "type": "bool"
        }
      ],
      "stateMutability": "view",
      "type": "function"
    },
    {
      "inputs": [
        {
          "internalType": "bytes32",
          "name": "role",
          "type": "bytes32"
        },
        {
          "internalType": "address",
          "name": "account",
          "type": "address"
        }
      ],
      "name": "revokeRole",
      "outputs": [],
      "stateMutability": "nonpayable",
      "type": "function"
    },
    {
      "inputs": [
        {
          "internalType": "uint256",
          "name": "courseId",
          "type": "uint256"
        }
      ],
      "name": "selectCourseReviewers",
      "outputs": [],
      "stateMutability": "nonpayable",
      "type": "function"
    },
    {
      "inputs": [
        {
          "internalType": "uint256",
          "name": "courseId",
          "type": "uint256"
        },
        {
          "internalType": "uint256",
          "name": "learnerAgency",
          "type": "uint256"
        },
        {
          "internalType": "uint256",
          "name": "criticalThinking",
          "type": "uint256"
        },
        {
          "internalType": "uint256",
          "name": "collaborativeLearning",
          "type": "uint256"
        },
        {
          "internalType": "uint256",
          "name": "reflectivePractice",
          "type": "uint256"
        },
        {
          "internalType": "uint256",
          "name": "adaptiveLearning",
          "type": "uint256"
        },
        {
          "internalType": "uint256",
          "name": "authenticLearning",
          "type": "uint256"
        },
        {
          "internalType": "uint256",
          "name": "technologyIntegration",
          "type": "uint256"
        },
        {
          "internalType": "uint256",
          "name": "learnerSupport",
          "type": "uint256"
        },
        {
          "internalType": "uint256",
          "name": "assessmentForLearning",
          "type": "uint256"
        },
        {
          "internalType": "uint256",
          "name": "engagementAndMotivation",
          "type": "uint256"
        }
      ],
      "name": "submitReview",
      "outputs": [],
      "stateMutability": "nonpayable",
      "type": "function"
    },
    {
      "inputs": [
        {
          "internalType": "bytes4",
          "name": "interfaceId",
          "type": "bytes4"
        }
      ],
      "name": "supportsInterface",
      "outputs": [
        {
          "internalType": "bool",
          "name": "",
          "type": "bool"
        }
      ],
      "stateMutability": "view",
      "type": "function"
    },
    {
      "inputs": [],
      "name": "symbol",
      "outputs": [
        {
          "internalType": "string",
          "name": "",
          "type": "string"
        }
      ],
      "stateMutability": "view",
      "type": "function"
    },
    {
      "inputs": [],
      "name": "totalSupply",
      "outputs": [
        {
          "internalType": "uint256",
          "name": "",
          "type": "uint256"
        }
      ],
      "stateMutability": "view",
      "type": "function"
    },
    {
      "inputs": [
        {
          "internalType": "address",
          "name": "to",
          "type": "address"
        },
        {
          "internalType": "uint256",
          "name": "value",
          "type": "uint256"
        }
      ],
      "name": "transfer",
      "outputs": [
        {
          "internalType": "bool",
          "name": "",
          "type": "bool"
        }
      ],
      "stateMutability": "nonpayable",
      "type": "function"
    },
    {
      "inputs": [
        {
          "internalType": "address",
          "name": "from",
          "type": "address"
        },
        {
          "internalType": "address",
          "name": "to",
          "type": "address"
        },
        {
          "internalType": "uint256",
          "name": "value",
          "type": "uint256"
        }
      ],
      "name": "transferFrom",
      "outputs": [
        {
          "internalType": "bool",
          "name": "",
          "type": "bool"
        }
      ],
      "stateMutability": "nonpayable",
      "type": "function"
    }
  ],
  "bytecode": "0x608060405234801561001057600080fd5b50604051616e5f380380616e5f83398181016040528101906100329190610639565b806040518060400160405280600a81526020017f4142594120544f4b454e000000000000000000000000000000000000000000008152506040518060400160405280600681526020017f414259544b4e000000000000000000000000000000000000000000000000000081525081600390816100ae91906108a3565b5080600490816100be91906108a3565b505050600481511015610106576040517f08c379a00000000000000000000000000000000000000000000000000000000081526004016100fd906109f8565b60405180910390fd5b6101196000801b336102be60201b60201c565b5061014a7fdf1425bae297c2f52b4f15d18a50b1fc8cb5b981a981b1d213ed3ff92681b64d336102be60201b60201c565b5060005b815181101561029e576101a17fc10c77be35aff266144ed64c26a1fa104bae2f284ae99ac4a34203454704a18583838151811061018e5761018d610a18565b5b60200260200101516102be60201b60201c565b5060068282815181106101b7576101b6610a18565b5b60200260200101519080600181540180825580915050600190039060005260206000200160009091909190916101000a81548173ffffffffffffffffffffffffffffffffffffffff021916908373ffffffffffffffffffffffffffffffffffffffff16021790555060016008600084848151811061023857610237610a18565b5b602002602001015173ffffffffffffffffffffffffffffffffffffffff1673ffffffffffffffffffffffffffffffffffffffff16815260200190815260200160002060006101000a81548160ff021916908315150217905550808060010191505061014e565b50506001600a819055506102b8600b6103bc60201b60201c565b50610a47565b60006102d083836103fb60201b60201c565b6103b15760016005600085815260200190815260200160002060000160008473ffffffffffffffffffffffffffffffffffffffff1673ffffffffffffffffffffffffffffffffffffffff16815260200190815260200160002060006101000a81548160ff02191690831515021790555061034e61046660201b60201c565b73ffffffffffffffffffffffffffffffffffffffff168273ffffffffffffffffffffffffffffffffffffffff16847f2f8788117e7eff1d82e926ec794901d17c78024a50270940304540a733656f0d60405160405180910390a4600190506103b6565b600090505b92915050565b60018160000181905550600181600101819055506001816002018190555060018160030181905550600181600401819055506001816005018190555050565b60006005600084815260200190815260200160002060000160008373ffffffffffffffffffffffffffffffffffffffff1673ffffffffffffffffffffffffffffffffffffffff16815260200190815260200160002060009054906101000a900460ff16905092915050565b600033905090565b6000604051905090565b600080fd5b600080fd5b600080fd5b6000601f19601f8301169050919050565b7f4e487b7100000000000000000000000000000000000000000000000000000000600052604160045260246000fd5b6104d082610487565b810181811067ffffffffffffffff821117156104ef576104ee610498565b5b80604052505050565b600061050261046e565b905061050e82826104c7565b919050565b600067ffffffffffffffff82111561052e5761052d610498565b5b602082029050602081019050919050565b600080fd5b600073ffffffffffffffffffffffffffffffffffffffff82169050919050565b600061056f82610544565b9050919050565b61057f81610564565b811461058a57600080fd5b50565b60008151905061059c81610576565b92915050565b60006105b56105b084610513565b6104f8565b905080838252602082019050602084028301858111156105d8576105d761053f565b5b835b8181101561060157806105ed888261058d565b8452602084019350506020810190506105da565b5050509392505050565b600082601f8301126106205761061f610482565b5b81516106308482602086016105a2565b91505092915050565b60006020828403121561064f5761064e610478565b5b600082015167ffffffffffffffff81111561066d5761066c61047d565b5b6106798482850161060b565b91505092915050565b600081519050919050565b7f4e487b7100000000000000000000000000000000000000000000000000000000600052602260045260246000fd5b600060028204905060018216806106d457607f821691505b6020821081036106e7576106e661068d565b5b50919050565b60008190508160005260206000209050919050565b60006020601f8301049050919050565b600082821b905092915050565b60006008830261074f7fffffffffffffffffffffffffffffffffffffffffffffffffffffffffffffffff82610712565b6107598683610712565b95508019841693508086168417925050509392505050565b6000819050919050565b6000819050919050565b60006107a061079b61079684610771565b61077b565b610771565b9050919050565b6000819050919050565b6107ba83610785565b6107ce6107c6826107a7565b84845461071f565b825550505050565b600090565b6107e36107d6565b6107ee8184846107b1565b505050565b5b81811015610812576108076000826107db565b6001810190506107f4565b5050565b601f82111561085757610828816106ed565b61083184610702565b81016020851015610840578190505b61085461084c85610702565b8301826107f3565b50505b505050565b600082821c905092915050565b600061087a6000198460080261085c565b1980831691505092915050565b60006108938383610869565b9150826002028217905092915050565b6108ac82610682565b67ffffffffffffffff8111156108c5576108c4610498565b5b6108cf82546106bc565b6108da828285610816565b600060209050601f83116001811461090d57600084156108fb578287015190505b6109058582610887565b86555061096d565b601f19841661091b866106ed565b60005b828110156109435784890151825560018201915060208501945060208101905061091e565b86831015610960578489015161095c601f891682610869565b8355505b6001600288020188555050505b505050505050565b600082825260208201905092915050565b7f4174206c6561737420342072657669657765727320617265207265717569726560008201527f6400000000000000000000000000000000000000000000000000000000000000602082015250565b60006109e2602183610975565b91506109ed82610986565b604082019050919050565b60006020820190508181036000830152610a11816109d5565b9050919050565b7f4e487b7100000000000000000000000000000000000000000000000000000000600052603260045260246000fd5b61640980610a566000396000f3fe608060405234801561001057600080fd5b50600436106103fc5760003560e01c806373a82b5f11610215578063bfd2f4c511610125578063d547741f116100b8578063ded5c18d11610087578063ded5c18d14610da6578063e503f10814610dc4578063eb264b9c14610de2578063fdc6258a14610e00578063ffabc67314610e30576103fc565b8063d547741f14610d0a578063d93f2caa14610d26578063dd62ed3e14610d44578063ddfc79fb14610d74576103fc565b8063c7954e4c116100f4578063c7954e4c14610c6f578063c90c884d14610c8d578063c9442dac14610cbe578063c976831514610cda576103fc565b8063bfd2f4c514610ba2578063c12804fb14610bd5578063c293bbbe14610c0f578063c491b04c14610c3f576103fc565b8063a14ecbdf116101a8578063a3ef204111610177578063a3ef204114610ad7578063a9059cbb14610b08578063aa95da3a14610b38578063ac957c6314610b68578063bad0dd6514610b86576103fc565b8063a14ecbdf14610a3b578063a1cd05b114610a59578063a217fddf14610a89578063a26a795314610aa7576103fc565b806388409afa116101e457806388409afa146109a05780638ea6e2fd146109d157806391d14854146109ed57806395d89b4114610a1d576103fc565b806373a82b5f1461092c57806375284998146109485780637d83daf214610964578063846f815214610982576103fc565b8063313ce567116103105780634d42ef48116102a3578063599c553311610272578063599c55331461086d578063660551591461088b5780636b000fa7146108a95780636fdb67f7146108c757806370a08231146108fc576103fc565b80634d42ef48146107d257806351d93c811461080257806352994e2f1461083357806358a3fa2514610851576103fc565b806336568abe116102df57806336568abe146107455780633693dcfa146107615780633b129a561461077f57806340932bf81461079d576103fc565b8063313ce567146106a857806331b1b978146106c657806332cb6b0c146106f757806334ed4bdb14610715576103fc565b806323b872dd11610393578063295b825a11610362578063295b825a146105d55780632990db7c1461060657806329a0be651461063b5780632aac61ae146106595780632f2ff15d1461068c576103fc565b806323b872dd14610539578063248a9ca314610569578063274202f01461059957806327ff6223146105b7576103fc565b8063095ea7b3116103cf578063095ea7b31461048b57806311ce15df146104bb57806318160ddd146104eb57806319f102ec14610509576103fc565b806301ffc9a71461040157806304e48bd114610431578063057f46bb1461044f57806306fdde031461046d575b600080fd5b61041b600480360381019061041691906148f0565b610e60565b6040516104289190614938565b60405180910390f35b610439610eda565b6040516104469190614b9e565b60405180910390f35b6104576111dc565b6040516104649190614bcf565b60405180910390f35b6104756111e2565b6040516104829190614c34565b60405180910390f35b6104a560048036038101906104a09190614cae565b611274565b6040516104b29190614938565b60405180910390f35b6104d560048036038101906104d09190614cee565b611297565b6040516104e29190614938565b60405180910390f35b6104f36112b7565b6040516105009190614bcf565b60405180910390f35b610523600480360381019061051e9190614cee565b6112c1565b6040516105309190614d2a565b60405180910390f35b610553600480360381019061054e9190614d45565b611300565b6040516105609190614938565b60405180910390f35b610583600480360381019061057e9190614dce565b61132f565b6040516105909190614e0a565b60405180910390f35b6105a161134f565b6040516105ae9190614bcf565b60405180910390f35b6105bf611377565b6040516105cc9190614bcf565b60405180910390f35b6105ef60048036038101906105ea9190614cee565b61137c565b6040516105fd929190614e25565b60405180910390f35b610620600480360381019061061b9190614cee565b611438565b60405161063296959493929190614e55565b60405180910390f35b6106436115b1565b6040516106509190614bcf565b60405180910390f35b610673600480360381019061066e9190614cee565b6115b7565b6040516106839493929190614ec4565b60405180910390f35b6106a660048036038101906106a19190614f17565b611707565b005b6106b0611729565b6040516106bd9190614f73565b60405180910390f35b6106e060048036038101906106db9190614cee565b611732565b6040516106ee929190614e25565b60405180910390f35b6106ff6117de565b60405161070c9190614bcf565b60405180910390f35b61072f600480360381019061072a9190614f8e565b6117ee565b60405161073c9190614bcf565b60405180910390f35b61075f600480360381019061075a9190614f17565b61180c565b005b610769611887565b6040516107769190614e0a565b60405180910390f35b6107876118ab565b6040516107949190614e0a565b60405180910390f35b6107b760048036038101906107b29190614cee565b6118cf565b6040516107c996959493929190615010565b60405180910390f35b6107ec60048036038101906107e79190615078565b6119e0565b6040516107f99190614c34565b60405180910390f35b61081c60048036038101906108179190614cee565b611a99565b60405161082a929190614e25565b60405180910390f35b61083b611b55565b6040516108489190614e0a565b60405180910390f35b61086b600480360381019061086691906150b8565b611b79565b005b610875611e3f565b6040516108829190614bcf565b60405180910390f35b610893611e44565b6040516108a09190614bcf565b60405180910390f35b6108b1611e4a565b6040516108be9190614bcf565b60405180910390f35b6108e160048036038101906108dc9190614cee565b611e50565b6040516108f396959493929190614e55565b60405180910390f35b61091660048036038101906109119190614f8e565b611fd9565b6040516109239190614bcf565b60405180910390f35b61094660048036038101906109419190614f8e565b612021565b005b610962600480360381019061095d9190614cee565b612205565b005b61096c61241f565b6040516109799190614bcf565b60405180910390f35b61098a612425565b6040516109979190614bcf565b60405180910390f35b6109ba60048036038101906109b59190614cee565b612431565b6040516109c8929190614e25565b60405180910390f35b6109eb60048036038101906109e69190614cee565b6124dd565b005b610a076004803603810190610a029190614f17565b612847565b604051610a149190614938565b60405180910390f35b610a256128b2565b604051610a329190614c34565b60405180910390f35b610a43612944565b604051610a509190614bcf565b60405180910390f35b610a736004803603810190610a6e9190615078565b61294a565b604051610a809190614d2a565b60405180910390f35b610a91612998565b604051610a9e9190614e0a565b60405180910390f35b610ac16004803603810190610abc91906152e1565b61299f565b604051610ace9190614938565b60405180910390f35b610af16004803603810190610aec9190614cee565b612d76565b604051610aff929190614e25565b60405180910390f35b610b226004803603810190610b1d9190614cae565b612e22565b604051610b2f9190614938565b60405180910390f35b610b526004803603810190610b4d9190615078565b612e45565b604051610b5f9190614c34565b60405180910390f35b610b70612efd565b604051610b7d9190614bcf565b60405180910390f35b610ba06004803603810190610b9b9190614cee565b612f02565b005b610bbc6004803603810190610bb79190614cee565b613201565b604051610bcc9493929190614ec4565b60405180910390f35b610bef6004803603810190610bea9190615359565b613341565b604051610c069b9a99989796959493929190615399565b60405180910390f35b610c296004803603810190610c249190614cee565b6133b5565b604051610c3691906154f3565b60405180910390f35b610c596004803603810190610c549190614f8e565b613456565b604051610c669190614938565b60405180910390f35b610c77613476565b604051610c849190614bcf565b60405180910390f35b610ca76004803603810190610ca29190614cee565b613480565b604051610cb5929190614e25565b60405180910390f35b610cd86004803603810190610cd39190614f8e565b61353c565b005b610cf46004803603810190610cef9190615359565b613826565b604051610d019190614938565b60405180910390f35b610d246004803603810190610d1f9190614f17565b613855565b005b610d2e613877565b604051610d3b9190614bcf565b60405180910390f35b610d5e6004803603810190610d599190615515565b613883565b604051610d6b9190614bcf565b60405180910390f35b610d8e6004803603810190610d899190614cee565b61390a565b604051610d9d93929190615555565b60405180910390f35b610dae613adc565b604051610dbb9190614bcf565b60405180910390f35b610dcc613ae9565b604051610dd99190614bcf565b60405180910390f35b610dea613aef565b604051610df79190614bcf565b60405180910390f35b610e1a6004803603810190610e159190614f8e565b613af5565b604051610e279190614938565b60405180910390f35b610e4a6004803603810190610e459190614cae565b613b28565b604051610e579190614938565b60405180910390f35b60007f7965db0b000000000000000000000000000000000000000000000000000000007bffffffffffffffffffffffffffffffffffffffffffffffffffffffff1916827bffffffffffffffffffffffffffffffffffffffffffffffffffffffff19161480610ed35750610ed282613b57565b5b9050919050565b6060600060268054905067ffffffffffffffff811115610efd57610efc6151b6565b5b604051908082528060200260200182016040528015610f3657816020015b610f236147f8565b815260200190600190039081610f1b5790505b50905060005b6026805490508110156111d4576040518060c0016040528060268381548110610f6857610f676155a1565b5b906000526020600020906006020160000154815260200160268381548110610f9357610f926155a1565b5b90600052602060002090600602016001018054610faf906155ff565b80601f0160208091040260200160405190810160405280929190818152602001828054610fdb906155ff565b80156110285780601f10610ffd57610100808354040283529160200191611028565b820191906000526020600020905b81548152906001019060200180831161100b57829003601f168201915b5050505050815260200160268381548110611046576110456155a1565b5b90600052602060002090600602016002018054611062906155ff565b80601f016020809104026020016040519081016040528092919081815260200182805461108e906155ff565b80156110db5780601f106110b0576101008083540402835291602001916110db565b820191906000526020600020905b8154815290600101906020018083116110be57829003601f168201915b50505050508152602001602683815481106110f9576110f86155a1565b5b906000526020600020906006020160030160009054906101000a900460ff161515815260200160268381548110611133576111326155a1565b5b90600052602060002090600602016004015481526020016026838154811061115e5761115d6155a1565b5b906000526020600020906006020160050160009054906101000a900473ffffffffffffffffffffffffffffffffffffffff1673ffffffffffffffffffffffffffffffffffffffff168152508282815181106111bc576111bb6155a1565b5b60200260200101819052508080600101915050610f3c565b508091505090565b60145481565b6060600380546111f1906155ff565b80601f016020809104026020016040519081016040528092919081815260200182805461121d906155ff565b801561126a5780601f1061123f5761010080835404028352916020019161126a565b820191906000526020600020905b81548152906001019060200180831161124d57829003601f168201915b5050505050905090565b60008061127f613bc1565b905061128c818585613bc9565b600191505092915050565b60246020528060005260406000206000915054906101000a900460ff1681565b6000600254905090565b600681815481106112d157600080fd5b906000526020600020016000915054906101000a900473ffffffffffffffffffffffffffffffffffffffff1681565b60008061130b613bc1565b9050611318858285613bdb565b611323858585613c6f565b60019150509392505050565b600060056000838152602001908152602001600020600101549050919050565b6064600f6b204fce5e3e2502611000000061136a919061565f565b61137491906156d0565b81565b606481565b602a818154811061138c57600080fd5b90600052602060002090600302016000915090508060000154908060010180546113b5906155ff565b80601f01602080910402602001604051908101604052809291908181526020018280546113e1906155ff565b801561142e5780601f106114035761010080835404028352916020019161142e565b820191906000526020600020905b81548152906001019060200180831161141157829003601f168201915b5050505050905082565b6019602052806000526040600020600091509050806000015490806001018054611461906155ff565b80601f016020809104026020016040519081016040528092919081815260200182805461148d906155ff565b80156114da5780601f106114af576101008083540402835291602001916114da565b820191906000526020600020905b8154815290600101906020018083116114bd57829003601f168201915b5050505050908060020180546114ef906155ff565b80601f016020809104026020016040519081016040528092919081815260200182805461151b906155ff565b80156115685780601f1061153d57610100808354040283529160200191611568565b820191906000526020600020905b81548152906001019060200180831161154b57829003601f168201915b5050505050908060030160009054906101000a900460ff16908060040154908060050160009054906101000a900473ffffffffffffffffffffffffffffffffffffffff16905086565b60155481565b602881815481106115c757600080fd5b90600052602060002090602202016000915090508060000154908060010180546115f0906155ff565b80601f016020809104026020016040519081016040528092919081815260200182805461161c906155ff565b80156116695780601f1061163e57610100808354040283529160200191611669565b820191906000526020600020905b81548152906001019060200180831161164c57829003601f168201915b50505050509080600201805461167e906155ff565b80601f01602080910402602001604051908101604052809291908181526020018280546116aa906155ff565b80156116f75780601f106116cc576101008083540402835291602001916116f7565b820191906000526020600020905b8154815290600101906020018083116116da57829003601f168201915b5050505050908060210154905084565b6117108261132f565b61171981613d63565b6117238383613d77565b50505050565b60006012905090565b602260205280600052604060002060009150905080600001549080600101805461175b906155ff565b80601f0160208091040260200160405190810160405280929190818152602001828054611787906155ff565b80156117d45780601f106117a9576101008083540402835291602001916117d4565b820191906000526020600020905b8154815290600101906020018083116117b757829003601f168201915b5050505050905082565b6b204fce5e3e2502611000000081565b601b6020528060005260406000206000915090508060000154905081565b611814613bc1565b73ffffffffffffffffffffffffffffffffffffffff168173ffffffffffffffffffffffffffffffffffffffff1614611878576040517f6697b23200000000000000000000000000000000000000000000000000000000815260040160405180910390fd5b6118828282613e69565b505050565b7fadb22091b155738d2e889eb96f509d2a7c93234236b30400927feb4a6a15ab0081565b7fc10c77be35aff266144ed64c26a1fa104bae2f284ae99ac4a34203454704a18581565b60096020528060005260406000206000915090508060000154908060010160009054906101000a900473ffffffffffffffffffffffffffffffffffffffff16908060020160009054906101000a900473ffffffffffffffffffffffffffffffffffffffff1690806003018054611944906155ff565b80601f0160208091040260200160405190810160405280929190818152602001828054611970906155ff565b80156119bd5780601f10611992576101008083540402835291602001916119bd565b820191906000526020600020905b8154815290600101906020018083116119a057829003601f168201915b5050505050908060040154908060050160009054906101000a900460ff16905086565b601e60205281600052604060002081815481106119fc57600080fd5b90600052602060002001600091509150508054611a18906155ff565b80601f0160208091040260200160405190810160405280929190818152602001828054611a44906155ff565b8015611a915780601f10611a6657610100808354040283529160200191611a91565b820191906000526020600020905b815481529060010190602001808311611a7457829003601f168201915b505050505081565b602b8181548110611aa957600080fd5b9060005260206000209060030201600091509050806000015490806001018054611ad2906155ff565b80601f0160208091040260200160405190810160405280929190818152602001828054611afe906155ff565b8015611b4b5780601f10611b2057610100808354040283529160200191611b4b565b820191906000526020600020905b815481529060010190602001808311611b2e57829003601f168201915b5050505050905082565b7fdf1425bae297c2f52b4f15d18a50b1fc8cb5b981a981b1d213ed3ff92681b64d81565b7fc10c77be35aff266144ed64c26a1fa104bae2f284ae99ac4a34203454704a185611ba381613d63565b611bad8c33613f5c565b611bec576040517f08c379a0000000000000000000000000000000000000000000000000000000008152600401611be390615773565b60405180910390fd5b601a60008d815260200190815260200160002060003373ffffffffffffffffffffffffffffffffffffffff1673ffffffffffffffffffffffffffffffffffffffff168152602001908152602001600020600a0160009054906101000a900460ff1615611c8d576040517f08c379a0000000000000000000000000000000000000000000000000000000008152600401611c8490615805565b60405180910390fd5b611c9f8b8b8b8b8b8b8b8b8b8b614027565b6040518061016001604052808c81526020018b81526020018a815260200189815260200188815260200187815260200186815260200185815260200184815260200183815260200160011515815250601a60008e815260200190815260200160002060003373ffffffffffffffffffffffffffffffffffffffff1673ffffffffffffffffffffffffffffffffffffffff168152602001908152602001600020600082015181600001556020820151816001015560408201518160020155606082015181600301556080820151816004015560a0820151816005015560c0820151816006015560e082015181600701556101008201518160080155610120820151816009015561014082015181600a0160006101000a81548160ff0219169083151502179055509050506050611e22601a60008f815260200190815260200160002060003373ffffffffffffffffffffffffffffffffffffffff1673ffffffffffffffffffffffffffffffffffffffff1681526020019081526020016000206140ec565b10611e3157611e308c612205565b5b505050505050505050505050565b600281565b60125481565b60185481565b60268181548110611e6057600080fd5b9060005260206000209060060201600091509050806000015490806001018054611e89906155ff565b80601f0160208091040260200160405190810160405280929190818152602001828054611eb5906155ff565b8015611f025780601f10611ed757610100808354040283529160200191611f02565b820191906000526020600020905b815481529060010190602001808311611ee557829003601f168201915b505050505090806002018054611f17906155ff565b80601f0160208091040260200160405190810160405280929190818152602001828054611f43906155ff565b8015611f905780601f10611f6557610100808354040283529160200191611f90565b820191906000526020600020905b815481529060010190602001808311611f7357829003601f168201915b5050505050908060030160009054906101000a900460ff16908060040154908060050160009054906101000a900473ffffffffffffffffffffffffffffffffffffffff16905086565b60008060008373ffffffffffffffffffffffffffffffffffffffff1673ffffffffffffffffffffffffffffffffffffffff168152602001908152602001600020549050919050565b7fc10c77be35aff266144ed64c26a1fa104bae2f284ae99ac4a34203454704a18561204b81613d63565b600860008373ffffffffffffffffffffffffffffffffffffffff1673ffffffffffffffffffffffffffffffffffffffff16815260200190815260200160002060009054906101000a900460ff16156120d8576040517f08c379a00000000000000000000000000000000000000000000000000000000081526004016120cf90615871565b60405180910390fd5b6121027fc10c77be35aff266144ed64c26a1fa104bae2f284ae99ac4a34203454704a18583613d77565b506006829080600181540180825580915050600190039060005260206000200160009091909190916101000a81548173ffffffffffffffffffffffffffffffffffffffff021916908373ffffffffffffffffffffffffffffffffffffffff1602179055506001600860008473ffffffffffffffffffffffffffffffffffffffff1673ffffffffffffffffffffffffffffffffffffffff16815260200190815260200160002060006101000a81548160ff0219169083151502179055508173ffffffffffffffffffffffffffffffffffffffff167fe1cb5e1230cc02e62c60b81c1aa5ade512f3eac296edb28628b4cf344f47f93160405160405180910390a25050565b7fc10c77be35aff266144ed64c26a1fa104bae2f284ae99ac4a34203454704a18561222f81613d63565b60006019600084815260200190815260200160002090508060030160009054906101000a900460ff1615612298576040517f08c379a000000000000000000000000000000000000000000000000000000000815260040161228f906158dd565b60405180910390fd5b601c60003373ffffffffffffffffffffffffffffffffffffffff1673ffffffffffffffffffffffffffffffffffffffff168152602001908152602001600020600084815260200190815260200160002060009054906101000a900460ff1615612336576040517f08c379a000000000000000000000000000000000000000000000000000000000815260040161232d9061596f565b60405180910390fd5b6001601c60003373ffffffffffffffffffffffffffffffffffffffff1673ffffffffffffffffffffffffffffffffffffffff168152602001908152602001600020600085815260200190815260200160002060006101000a81548160ff0219169083151502179055508060040160008154809291906123b49061598f565b9190505550600281600401541061241a5760018160030160006101000a81548160ff0219169083151502179055506124188160050160009054906101000a900473ffffffffffffffffffffffffffffffffffffffff16674563918244f40000614181565b505b505050565b60135481565b671bc16d674ec8000081565b602160205280600052604060002060009150905080600001549080600101805461245a906155ff565b80601f0160208091040260200160405190810160405280929190818152602001828054612486906155ff565b80156124d35780601f106124a8576101008083540402835291602001916124d3565b820191906000526020600020905b8154815290600101906020018083116124b657829003601f168201915b5050505050905082565b7fc10c77be35aff266144ed64c26a1fa104bae2f284ae99ac4a34203454704a18561250781613d63565b6024600083815260200190815260200160002060009054906101000a900460ff1615612568576040517f08c379a000000000000000000000000000000000000000000000000000000000815260040161255f90615a23565b60405180910390fd5b600360068054905010156125b1576040517f08c379a00000000000000000000000000000000000000000000000000000000081526004016125a890615a8f565b60405180910390fd5b6023600083815260200190815260200160002060006125d09190614846565b60005b60038110156127ad5760006006805490504244600680549050856040516020016126009493929190615ad0565b6040516020818303038152906040528051906020012060001c6126239190615b1e565b905060006006828154811061263b5761263a6155a1565b5b9060005260206000200160009054906101000a900473ffffffffffffffffffffffffffffffffffffffff1690506000805b6023600088815260200190815260200160002080549050811015612722578273ffffffffffffffffffffffffffffffffffffffff166023600089815260200190815260200160002082815481106126c6576126c56155a1565b5b9060005260206000200160009054906101000a900473ffffffffffffffffffffffffffffffffffffffff1673ffffffffffffffffffffffffffffffffffffffff16036127155760019150612722565b808060010191505061266c565b508061279d5760236000878152602001908152602001600020829080600181540180825580915050600190039060005260206000200160009091909190916101000a81548173ffffffffffffffffffffffffffffffffffffffff021916908373ffffffffffffffffffffffffffffffffffffffff1602179055505b50505080806001019150506125d3565b5060036023600084815260200190815260200160002080549050036127f95760016024600084815260200190815260200160002060006101000a81548160ff0219169083151502179055505b817fe205dff861c570b8df17e26f893778853f94bb25d2de318755e48eab0b403ff76023600085815260200190815260200160002060405161283b9190615c3b565b60405180910390a25050565b60006005600084815260200190815260200160002060000160008373ffffffffffffffffffffffffffffffffffffffff1673ffffffffffffffffffffffffffffffffffffffff16815260200190815260200160002060009054906101000a900460ff16905092915050565b6060600480546128c1906155ff565b80601f01602080910402602001604051908101604052809291908181526020018280546128ed906155ff565b801561293a5780601f1061290f5761010080835404028352916020019161293a565b820191906000526020600020905b81548152906001019060200180831161291d57829003601f168201915b5050505050905090565b60115481565b6023602052816000526040600020818154811061296657600080fd5b906000526020600020016000915091509054906101000a900473ffffffffffffffffffffffffffffffffffffffff1681565b6000801b81565b60008073ffffffffffffffffffffffffffffffffffffffff1660196000601354815260200190815260200160002060050160009054906101000a900473ffffffffffffffffffffffffffffffffffffffff1673ffffffffffffffffffffffffffffffffffffffff1614612a47576040517f08c379a0000000000000000000000000000000000000000000000000000000008152600401612a3e90615ca9565b60405180910390fd5b60006040518060c001604052806013548152602001858152602001848152602001600015158152602001600081526020013373ffffffffffffffffffffffffffffffffffffffff16815250905080601960006013548152602001908152602001600020600082015181600001556020820151816001019081612ac99190615e75565b506040820151816002019081612adf9190615e75565b5060608201518160030160006101000a81548160ff0219169083151502179055506080820151816004015560a08201518160050160006101000a81548173ffffffffffffffffffffffffffffffffffffffff021916908373ffffffffffffffffffffffffffffffffffffffff1602179055509050506026819080600181540180825580915050600190039060005260206000209060060201600090919091909150600082015181600001556020820151816001019081612b9f9190615e75565b506040820151816002019081612bb59190615e75565b5060608201518160030160006101000a81548160ff0219169083151502179055506080820151816004015560a08201518160050160006101000a81548173ffffffffffffffffffffffffffffffffffffffff021916908373ffffffffffffffffffffffffffffffffffffffff160217905550505060126000815480929190612c3c9061598f565b91905055506001601b60003373ffffffffffffffffffffffffffffffffffffffff1673ffffffffffffffffffffffffffffffffffffffff1681526020019081526020016000206000016000828254612c949190615f47565b9250508190555060136000815480929190612cae9061598f565b9190505550612cdd7fadb22091b155738d2e889eb96f509d2a7c93234236b30400927feb4a6a15ab0033613d77565b5083604051612cec9190615fb7565b60405180910390206001601354612d039190615fce565b7f9c93a42b217373d37e6c66ace0a67fe1fa1f78c93164b62417de69c48c0f67e2601960006001601354612d379190615fce565b815260200190815260200160002060030160009054906101000a900460ff16604051612d639190614938565b60405180910390a3600191505092915050565b601d602052806000526040600020600091509050806000015490806001018054612d9f906155ff565b80601f0160208091040260200160405190810160405280929190818152602001828054612dcb906155ff565b8015612e185780601f10612ded57610100808354040283529160200191612e18565b820191906000526020600020905b815481529060010190602001808311612dfb57829003601f168201915b5050505050905082565b600080612e2d613bc1565b9050612e3a818585613c6f565b600191505092915050565b602080528160005260406000208181548110612e6057600080fd5b90600052602060002001600091509150508054612e7c906155ff565b80601f0160208091040260200160405190810160405280929190818152602001828054612ea8906155ff565b8015612ef55780601f10612eca57610100808354040283529160200191612ef5565b820191906000526020600020905b815481529060010190602001808311612ed857829003601f168201915b505050505081565b605081565b7fdf1425bae297c2f52b4f15d18a50b1fc8cb5b981a981b1d213ed3ff92681b64d612f2c81613d63565b60006009600084815260200190815260200160002090508060050160009054906101000a900460ff1615612f95576040517f08c379a0000000000000000000000000000000000000000000000000000000008152600401612f8c9061604e565b60405180910390fd5b8060060160003373ffffffffffffffffffffffffffffffffffffffff1673ffffffffffffffffffffffffffffffffffffffff16815260200190815260200160002060009054906101000a900460ff1615613024576040517f08c379a000000000000000000000000000000000000000000000000000000000815260040161301b906160ba565b60405180910390fd5b60018160060160003373ffffffffffffffffffffffffffffffffffffffff1673ffffffffffffffffffffffffffffffffffffffff16815260200190815260200160002060006101000a81548160ff0219169083151502179055508060040160008154809291906130939061598f565b9190505550827f5d4ccf5f92566d140246f4ae3b9cb35dc06fff109a7748602ad77f6260fd9a61336040516130c89190614d2a565b60405180910390a260038160040154106131fc5760008160020160009054906101000a900473ffffffffffffffffffffffffffffffffffffffff1673ffffffffffffffffffffffffffffffffffffffff168260030160405161312a919061617d565b6000604051808303816000865af19150503d8060008114613167576040519150601f19603f3d011682016040523d82523d6000602084013e61316c565b606091505b50509050806131b0576040517f08c379a00000000000000000000000000000000000000000000000000000000081526004016131a7906161e0565b60405180910390fd5b60018260050160006101000a81548160ff021916908315150217905550837f7770356c29230b95943aec59d47ead11eb426a728bf5b57f7fd8597f3c0e29ba60405160405180910390a2505b505050565b601f60205280600052604060002060009150905080600001549080600101805461322a906155ff565b80601f0160208091040260200160405190810160405280929190818152602001828054613256906155ff565b80156132a35780601f10613278576101008083540402835291602001916132a3565b820191906000526020600020905b81548152906001019060200180831161328657829003601f168201915b5050505050908060020180546132b8906155ff565b80601f01602080910402602001604051908101604052809291908181526020018280546132e4906155ff565b80156133315780601f1061330657610100808354040283529160200191613331565b820191906000526020600020905b81548152906001019060200180831161331457829003601f168201915b5050505050908060210154905084565b601a6020528160005260406000206020528060005260406000206000915091505080600001549080600101549080600201549080600301549080600401549080600501549080600601549080600701549080600801549080600901549080600a0160009054906101000a900460ff1690508b565b60606023600083815260200190815260200160002080548060200260200160405190810160405280929190818152602001828054801561344a57602002820191906000526020600020905b8160009054906101000a900473ffffffffffffffffffffffffffffffffffffffff1673ffffffffffffffffffffffffffffffffffffffff1681526020019060010190808311613400575b50505050509050919050565b60086020528060005260406000206000915054906101000a900460ff1681565b6000601154905090565b6027818154811061349057600080fd5b90600052602060002090600202016000915090508060000154908060010180546134b9906155ff565b80601f01602080910402602001604051908101604052809291908181526020018280546134e5906155ff565b80156135325780601f1061350757610100808354040283529160200191613532565b820191906000526020600020905b81548152906001019060200180831161351557829003601f168201915b5050505050905082565b6000801b61354981613d63565b600860008373ffffffffffffffffffffffffffffffffffffffff1673ffffffffffffffffffffffffffffffffffffffff16815260200190815260200160002060009054906101000a900460ff166135d5576040517f08c379a00000000000000000000000000000000000000000000000000000000081526004016135cc9061624c565b60405180910390fd5b60005b60068054905081101561375b578273ffffffffffffffffffffffffffffffffffffffff16600682815481106136105761360f6155a1565b5b9060005260206000200160009054906101000a900473ffffffffffffffffffffffffffffffffffffffff1673ffffffffffffffffffffffffffffffffffffffff160361374e576006600160068054905061366a9190615fce565b8154811061367b5761367a6155a1565b5b9060005260206000200160009054906101000a900473ffffffffffffffffffffffffffffffffffffffff16600682815481106136ba576136b96155a1565b5b9060005260206000200160006101000a81548173ffffffffffffffffffffffffffffffffffffffff021916908373ffffffffffffffffffffffffffffffffffffffff16021790555060068054806137145761371361626c565b5b6001900381819060005260206000200160006101000a81549073ffffffffffffffffffffffffffffffffffffffff0219169055905561375b565b80806001019150506135d8565b506000600860008473ffffffffffffffffffffffffffffffffffffffff1673ffffffffffffffffffffffffffffffffffffffff16815260200190815260200160002060006101000a81548160ff0219169083151502179055506137de7fc10c77be35aff266144ed64c26a1fa104bae2f284ae99ac4a34203454704a18583613e69565b508173ffffffffffffffffffffffffffffffffffffffff167f55dba9d79522b91b615629d5f3b10c2fad2d258f1768614f4a52e937ada0d0ba60405160405180910390a25050565b60256020528160005260406000206020528060005260406000206000915091509054906101000a900460ff1681565b61385e8261132f565b61386781613d63565b6138718383613e69565b50505050565b674563918244f4000081565b6000600160008473ffffffffffffffffffffffffffffffffffffffff1673ffffffffffffffffffffffffffffffffffffffff16815260200190815260200160002060008373ffffffffffffffffffffffffffffffffffffffff1673ffffffffffffffffffffffffffffffffffffffff16815260200190815260200160002054905092915050565b6029818154811061391a57600080fd5b906000526020600020906003020160009150905080600001805461393d906155ff565b80601f0160208091040260200160405190810160405280929190818152602001828054613969906155ff565b80156139b65780601f1061398b576101008083540402835291602001916139b6565b820191906000526020600020905b81548152906001019060200180831161399957829003601f168201915b5050505050908060010180546139cb906155ff565b80601f01602080910402602001604051908101604052809291908181526020018280546139f7906155ff565b8015613a445780601f10613a1957610100808354040283529160200191613a44565b820191906000526020600020905b815481529060010190602001808311613a2757829003601f168201915b505050505090806002018054613a59906155ff565b80601f0160208091040260200160405190810160405280929190818152602001828054613a85906155ff565b8015613ad25780601f10613aa757610100808354040283529160200191613ad2565b820191906000526020600020905b815481529060010190602001808311613ab557829003601f168201915b5050505050905083565b6000600b60000154905090565b60165481565b60175481565b6000613b217fc10c77be35aff266144ed64c26a1fa104bae2f284ae99ac4a34203454704a18583612847565b9050919050565b601c6020528160005260406000206020528060005260406000206000915091509054906101000a900460ff1681565b60007f01ffc9a7000000000000000000000000000000000000000000000000000000007bffffffffffffffffffffffffffffffffffffffffffffffffffffffff1916827bffffffffffffffffffffffffffffffffffffffffffffffffffffffff1916149050919050565b600033905090565b613bd6838383600161426e565b505050565b6000613be78484613883565b90507fffffffffffffffffffffffffffffffffffffffffffffffffffffffffffffffff8114613c695781811015613c59578281836040517ffb8f41b2000000000000000000000000000000000000000000000000000000008152600401613c509392919061629b565b60405180910390fd5b613c688484848403600061426e565b5b50505050565b600073ffffffffffffffffffffffffffffffffffffffff168373ffffffffffffffffffffffffffffffffffffffff1603613ce15760006040517f96c6fd1e000000000000000000000000000000000000000000000000000000008152600401613cd89190614d2a565b60405180910390fd5b600073ffffffffffffffffffffffffffffffffffffffff168273ffffffffffffffffffffffffffffffffffffffff1603613d535760006040517fec442f05000000000000000000000000000000000000000000000000000000008152600401613d4a9190614d2a565b60405180910390fd5b613d5e838383614445565b505050565b613d7481613d6f613bc1565b61466a565b50565b6000613d838383612847565b613e5e5760016005600085815260200190815260200160002060000160008473ffffffffffffffffffffffffffffffffffffffff1673ffffffffffffffffffffffffffffffffffffffff16815260200190815260200160002060006101000a81548160ff021916908315150217905550613dfb613bc1565b73ffffffffffffffffffffffffffffffffffffffff168273ffffffffffffffffffffffffffffffffffffffff16847f2f8788117e7eff1d82e926ec794901d17c78024a50270940304540a733656f0d60405160405180910390a460019050613e63565b600090505b92915050565b6000613e758383612847565b15613f515760006005600085815260200190815260200160002060000160008473ffffffffffffffffffffffffffffffffffffffff1673ffffffffffffffffffffffffffffffffffffffff16815260200190815260200160002060006101000a81548160ff021916908315150217905550613eee613bc1565b73ffffffffffffffffffffffffffffffffffffffff168273ffffffffffffffffffffffffffffffffffffffff16847ff6391f5c32d9c69d2a47ea670b442974b53935d1edc7fd64eb21e047a839171b60405160405180910390a460019050613f56565b600090505b92915050565b600080600090505b602360008581526020019081526020016000208054905081101561401b578273ffffffffffffffffffffffffffffffffffffffff16602360008681526020019081526020016000208281548110613fbe57613fbd6155a1565b5b9060005260206000200160009054906101000a900473ffffffffffffffffffffffffffffffffffffffff1673ffffffffffffffffffffffffffffffffffffffff160361400e576001915050614021565b8080600101915050613f64565b50600090505b92915050565b600a8a111580156140395750600a8911155b80156140465750600a8811155b80156140535750600a8711155b80156140605750600a8611155b801561406d5750600a8511155b801561407a5750600a8411155b80156140875750600a8311155b80156140945750600a8211155b80156140a15750600a8111155b6140e0576040517f08c379a00000000000000000000000000000000000000000000000000000000081526004016140d79061631e565b60405180910390fd5b50505050505050505050565b60008160090154826008015483600701548460060154856005015486600401548760030154886002015489600101548a6000015461412a9190615f47565b6141349190615f47565b61413e9190615f47565b6141489190615f47565b6141529190615f47565b61415c9190615f47565b6141669190615f47565b6141709190615f47565b61417a9190615f47565b9050919050565b60006064600f6b204fce5e3e2502611000000061419e919061565f565b6141a891906156d0565b6141b0613476565b836141bb9190615f47565b11156141fc576040517f08c379a00000000000000000000000000000000000000000000000000000000081526004016141f39061638a565b60405180910390fd5b61420683836146bb565b5081601160008282546142199190615f47565b92505081905550818373ffffffffffffffffffffffffffffffffffffffff167fad6ef58d5c294f81258965738e7ae511124139834a8d0b8f8f7327086c82052a60405160405180910390a36001905092915050565b600073ffffffffffffffffffffffffffffffffffffffff168473ffffffffffffffffffffffffffffffffffffffff16036142e05760006040517fe602df050000000000000000000000000000000000000000000000000000000081526004016142d79190614d2a565b60405180910390fd5b600073ffffffffffffffffffffffffffffffffffffffff168373ffffffffffffffffffffffffffffffffffffffff16036143525760006040517f94280d620000000000000000000000000000000000000000000000000000000081526004016143499190614d2a565b60405180910390fd5b81600160008673ffffffffffffffffffffffffffffffffffffffff1673ffffffffffffffffffffffffffffffffffffffff16815260200190815260200160002060008573ffffffffffffffffffffffffffffffffffffffff1673ffffffffffffffffffffffffffffffffffffffff16815260200190815260200160002081905550801561443f578273ffffffffffffffffffffffffffffffffffffffff168473ffffffffffffffffffffffffffffffffffffffff167f8c5be1e5ebec7d5bd14f71427d1e84f3dd0314c0f7b2291e5b200ac8c7c3b925846040516144369190614bcf565b60405180910390a35b50505050565b600073ffffffffffffffffffffffffffffffffffffffff168373ffffffffffffffffffffffffffffffffffffffff160361449757806002600082825461448b9190615f47565b9250508190555061456a565b60008060008573ffffffffffffffffffffffffffffffffffffffff1673ffffffffffffffffffffffffffffffffffffffff16815260200190815260200160002054905081811015614523578381836040517fe450d38c00000000000000000000000000000000000000000000000000000000815260040161451a9392919061629b565b60405180910390fd5b8181036000808673ffffffffffffffffffffffffffffffffffffffff1673ffffffffffffffffffffffffffffffffffffffff16815260200190815260200160002081905550505b600073ffffffffffffffffffffffffffffffffffffffff168273ffffffffffffffffffffffffffffffffffffffff16036145b35780600260008282540392505081905550614600565b806000808473ffffffffffffffffffffffffffffffffffffffff1673ffffffffffffffffffffffffffffffffffffffff168152602001908152602001600020600082825401925050819055505b8173ffffffffffffffffffffffffffffffffffffffff168373ffffffffffffffffffffffffffffffffffffffff167fddf252ad1be2c89b69c2b068fc378daa952ba7f163c4a11628f55a4df523b3ef8360405161465d9190614bcf565b60405180910390a3505050565b6146748282612847565b6146b75780826040517fe2517d3f0000000000000000000000000000000000000000000000000000000081526004016146ae9291906163aa565b60405180910390fd5b5050565b60006b204fce5e3e250261100000006146d26112b7565b836146dd9190615f47565b111561471e576040517f08c379a00000000000000000000000000000000000000000000000000000000081526004016147159061638a565b60405180910390fd5b6147288383614776565b818373ffffffffffffffffffffffffffffffffffffffff167fcda531bfd68624f13205c0a23cd4d5a7f09792cbb399603114f2b04aaa1bf5cf60405160405180910390a36001905092915050565b600073ffffffffffffffffffffffffffffffffffffffff168273ffffffffffffffffffffffffffffffffffffffff16036147e85760006040517fec442f050000000000000000000000000000000000000000000000000000000081526004016147df9190614d2a565b60405180910390fd5b6147f460008383614445565b5050565b6040518060c0016040528060008152602001606081526020016060815260200160001515815260200160008152602001600073ffffffffffffffffffffffffffffffffffffffff1681525090565b50805460008255906000526020600020908101906148649190614867565b50565b5b80821115614880576000816000905550600101614868565b5090565b6000604051905090565b600080fd5b600080fd5b60007fffffffff0000000000000000000000000000000000000000000000000000000082169050919050565b6148cd81614898565b81146148d857600080fd5b50565b6000813590506148ea816148c4565b92915050565b6000602082840312156149065761490561488e565b5b6000614914848285016148db565b91505092915050565b60008115159050919050565b6149328161491d565b82525050565b600060208201905061494d6000830184614929565b92915050565b600081519050919050565b600082825260208201905092915050565b6000819050602082019050919050565b6000819050919050565b6149928161497f565b82525050565b600081519050919050565b600082825260208201905092915050565b60005b838110156149d25780820151818401526020810190506149b7565b60008484015250505050565b6000601f19601f8301169050919050565b60006149fa82614998565b614a0481856149a3565b9350614a148185602086016149b4565b614a1d816149de565b840191505092915050565b614a318161491d565b82525050565b600073ffffffffffffffffffffffffffffffffffffffff82169050919050565b6000614a6282614a37565b9050919050565b614a7281614a57565b82525050565b600060c083016000830151614a906000860182614989565b5060208301518482036020860152614aa882826149ef565b91505060408301518482036040860152614ac282826149ef565b9150506060830151614ad76060860182614a28565b506080830151614aea6080860182614989565b5060a0830151614afd60a0860182614a69565b508091505092915050565b6000614b148383614a78565b905092915050565b6000602082019050919050565b6000614b3482614953565b614b3e818561495e565b935083602082028501614b508561496f565b8060005b85811015614b8c5784840389528151614b6d8582614b08565b9450614b7883614b1c565b925060208a01995050600181019050614b54565b50829750879550505050505092915050565b60006020820190508181036000830152614bb88184614b29565b905092915050565b614bc98161497f565b82525050565b6000602082019050614be46000830184614bc0565b92915050565b600082825260208201905092915050565b6000614c0682614998565b614c108185614bea565b9350614c208185602086016149b4565b614c29816149de565b840191505092915050565b60006020820190508181036000830152614c4e8184614bfb565b905092915050565b614c5f81614a57565b8114614c6a57600080fd5b50565b600081359050614c7c81614c56565b92915050565b614c8b8161497f565b8114614c9657600080fd5b50565b600081359050614ca881614c82565b92915050565b60008060408385031215614cc557614cc461488e565b5b6000614cd385828601614c6d565b9250506020614ce485828601614c99565b9150509250929050565b600060208284031215614d0457614d0361488e565b5b6000614d1284828501614c99565b91505092915050565b614d2481614a57565b82525050565b6000602082019050614d3f6000830184614d1b565b92915050565b600080600060608486031215614d5e57614d5d61488e565b5b6000614d6c86828701614c6d565b9350506020614d7d86828701614c6d565b9250506040614d8e86828701614c99565b9150509250925092565b6000819050919050565b614dab81614d98565b8114614db657600080fd5b50565b600081359050614dc881614da2565b92915050565b600060208284031215614de457614de361488e565b5b6000614df284828501614db9565b91505092915050565b614e0481614d98565b82525050565b6000602082019050614e1f6000830184614dfb565b92915050565b6000604082019050614e3a6000830185614bc0565b8181036020830152614e4c8184614bfb565b90509392505050565b600060c082019050614e6a6000830189614bc0565b8181036020830152614e7c8188614bfb565b90508181036040830152614e908187614bfb565b9050614e9f6060830186614929565b614eac6080830185614bc0565b614eb960a0830184614d1b565b979650505050505050565b6000608082019050614ed96000830187614bc0565b8181036020830152614eeb8186614bfb565b90508181036040830152614eff8185614bfb565b9050614f0e6060830184614bc0565b95945050505050565b60008060408385031215614f2e57614f2d61488e565b5b6000614f3c85828601614db9565b9250506020614f4d85828601614c6d565b9150509250929050565b600060ff82169050919050565b614f6d81614f57565b82525050565b6000602082019050614f886000830184614f64565b92915050565b600060208284031215614fa457614fa361488e565b5b6000614fb284828501614c6d565b91505092915050565b600081519050919050565b600082825260208201905092915050565b6000614fe282614fbb565b614fec8185614fc6565b9350614ffc8185602086016149b4565b615005816149de565b840191505092915050565b600060c0820190506150256000830189614bc0565b6150326020830188614d1b565b61503f6040830187614d1b565b81810360608301526150518186614fd7565b90506150606080830185614bc0565b61506d60a0830184614929565b979650505050505050565b6000806040838503121561508f5761508e61488e565b5b600061509d85828601614c99565b92505060206150ae85828601614c99565b9150509250929050565b60008060008060008060008060008060006101608c8e0312156150de576150dd61488e565b5b60006150ec8e828f01614c99565b9b505060206150fd8e828f01614c99565b9a5050604061510e8e828f01614c99565b995050606061511f8e828f01614c99565b98505060806151308e828f01614c99565b97505060a06151418e828f01614c99565b96505060c06151528e828f01614c99565b95505060e06151638e828f01614c99565b9450506101006151758e828f01614c99565b9350506101206151878e828f01614c99565b9250506101406151998e828f01614c99565b9150509295989b509295989b9093969950565b600080fd5b600080fd5b7f4e487b7100000000000000000000000000000000000000000000000000000000600052604160045260246000fd5b6151ee826149de565b810181811067ffffffffffffffff8211171561520d5761520c6151b6565b5b80604052505050565b6000615220614884565b905061522c82826151e5565b919050565b600067ffffffffffffffff82111561524c5761524b6151b6565b5b615255826149de565b9050602081019050919050565b82818337600083830152505050565b600061528461527f84615231565b615216565b9050828152602081018484840111156152a05761529f6151b1565b5b6152ab848285615262565b509392505050565b600082601f8301126152c8576152c76151ac565b5b81356152d8848260208601615271565b91505092915050565b600080604083850312156152f8576152f761488e565b5b600083013567ffffffffffffffff81111561531657615315614893565b5b615322858286016152b3565b925050602083013567ffffffffffffffff81111561534357615342614893565b5b61534f858286016152b3565b9150509250929050565b600080604083850312156153705761536f61488e565b5b600061537e85828601614c99565b925050602061538f85828601614c6d565b9150509250929050565b6000610160820190506153af600083018e614bc0565b6153bc602083018d614bc0565b6153c9604083018c614bc0565b6153d6606083018b614bc0565b6153e3608083018a614bc0565b6153f060a0830189614bc0565b6153fd60c0830188614bc0565b61540a60e0830187614bc0565b615418610100830186614bc0565b615426610120830185614bc0565b615434610140830184614929565b9c9b505050505050505050505050565b600081519050919050565b600082825260208201905092915050565b6000819050602082019050919050565b600061547c8383614a69565b60208301905092915050565b6000602082019050919050565b60006154a082615444565b6154aa818561544f565b93506154b583615460565b8060005b838110156154e65781516154cd8882615470565b97506154d883615488565b9250506001810190506154b9565b5085935050505092915050565b6000602082019050818103600083015261550d8184615495565b905092915050565b6000806040838503121561552c5761552b61488e565b5b600061553a85828601614c6d565b925050602061554b85828601614c6d565b9150509250929050565b6000606082019050818103600083015261556f8186614bfb565b905081810360208301526155838185614bfb565b905081810360408301526155978184614bfb565b9050949350505050565b7f4e487b7100000000000000000000000000000000000000000000000000000000600052603260045260246000fd5b7f4e487b7100000000000000000000000000000000000000000000000000000000600052602260045260246000fd5b6000600282049050600182168061561757607f821691505b60208210810361562a576156296155d0565b5b50919050565b7f4e487b7100000000000000000000000000000000000000000000000000000000600052601160045260246000fd5b600061566a8261497f565b91506156758361497f565b92508282026156838161497f565b9150828204841483151761569a57615699615630565b5b5092915050565b7f4e487b7100000000000000000000000000000000000000000000000000000000600052601260045260246000fd5b60006156db8261497f565b91506156e68361497f565b9250826156f6576156f56156a1565b5b828204905092915050565b7f4e6f742073656c6563746564206173206120726576696577657220666f72207460008201527f68697320636f7572736500000000000000000000000000000000000000000000602082015250565b600061575d602a83614bea565b915061576882615701565b604082019050919050565b6000602082019050818103600083015261578c81615750565b9050919050565b7f52657669657720616c7265616479207375626d6974746564206279207468697360008201527f2072657669657765722e00000000000000000000000000000000000000000000602082015250565b60006157ef602a83614bea565b91506157fa82615793565b604082019050919050565b6000602082019050818103600083015261581e816157e2565b9050919050565b7f416c726561647920696e20726576696577657220706f6f6c0000000000000000600082015250565b600061585b601883614bea565b915061586682615825565b602082019050919050565b6000602082019050818103600083015261588a8161584e565b9050919050565b7f436f7572736520616c726561647920617070726f766564000000000000000000600082015250565b60006158c7601783614bea565b91506158d282615891565b602082019050919050565b600060208201905081810360008301526158f6816158ba565b9050919050565b7f596f75206861766520616c726561647920617070726f7665642074686973206360008201527f6f75727365000000000000000000000000000000000000000000000000000000602082015250565b6000615959602583614bea565b9150615964826158fd565b604082019050919050565b600060208201905081810360008301526159888161594c565b9050919050565b600061599a8261497f565b91507fffffffffffffffffffffffffffffffffffffffffffffffffffffffffffffffff82036159cc576159cb615630565b5b600182019050919050565b7f52657669657765727320616c72656164792073656c6563746564000000000000600082015250565b6000615a0d601a83614bea565b9150615a18826159d7565b602082019050919050565b60006020820190508181036000830152615a3c81615a00565b9050919050565b7f4e6f7420656e6f7567682072657669657765727320696e2074686520706f6f6c600082015250565b6000615a79602083614bea565b9150615a8482615a43565b602082019050919050565b60006020820190508181036000830152615aa881615a6c565b9050919050565b6000819050919050565b615aca615ac58261497f565b615aaf565b82525050565b6000615adc8287615ab9565b602082019150615aec8286615ab9565b602082019150615afc8285615ab9565b602082019150615b0c8284615ab9565b60208201915081905095945050505050565b6000615b298261497f565b9150615b348361497f565b925082615b4457615b436156a1565b5b828206905092915050565b600081549050919050565b60008190508160005260206000209050919050565b60008160001c9050919050565b600073ffffffffffffffffffffffffffffffffffffffff82169050919050565b6000615baf615baa83615b6f565b615b7c565b9050919050565b6000615bc28254615b9c565b9050919050565b6000600182019050919050565b6000615be182615b4f565b615beb818561544f565b9350615bf683615b5a565b8060005b83811015615c2e57615c0b82615bb6565b615c158882615470565b9750615c2083615bc9565b925050600181019050615bfa565b5085935050505092915050565b60006020820190508181036000830152615c558184615bd6565b905092915050565b7f436f7572736520494420616c7265616479206578697374730000000000000000600082015250565b6000615c93601883614bea565b9150615c9e82615c5d565b602082019050919050565b60006020820190508181036000830152615cc281615c86565b9050919050565b60008190508160005260206000209050919050565b60006020601f8301049050919050565b600082821b905092915050565b600060088302615d2b7fffffffffffffffffffffffffffffffffffffffffffffffffffffffffffffffff82615cee565b615d358683615cee565b95508019841693508086168417925050509392505050565b6000819050919050565b6000615d72615d6d615d688461497f565b615d4d565b61497f565b9050919050565b6000819050919050565b615d8c83615d57565b615da0615d9882615d79565b848454615cfb565b825550505050565b600090565b615db5615da8565b615dc0818484615d83565b505050565b5b81811015615de457615dd9600082615dad565b600181019050615dc6565b5050565b601f821115615e2957615dfa81615cc9565b615e0384615cde565b81016020851015615e12578190505b615e26615e1e85615cde565b830182615dc5565b50505b505050565b600082821c905092915050565b6000615e4c60001984600802615e2e565b1980831691505092915050565b6000615e658383615e3b565b9150826002028217905092915050565b615e7e82614998565b67ffffffffffffffff811115615e9757615e966151b6565b5b615ea182546155ff565b615eac828285615de8565b600060209050601f831160018114615edf5760008415615ecd578287015190505b615ed78582615e59565b865550615f3f565b601f198416615eed86615cc9565b60005b82811015615f1557848901518255600182019150602085019450602081019050615ef0565b86831015615f325784890151615f2e601f891682615e3b565b8355505b6001600288020188555050505b505050505050565b6000615f528261497f565b9150615f5d8361497f565b9250828201905080821115615f7557615f74615630565b5b92915050565b600081905092915050565b6000615f9182614998565b615f9b8185615f7b565b9350615fab8185602086016149b4565b80840191505092915050565b6000615fc38284615f86565b915081905092915050565b6000615fd98261497f565b9150615fe48361497f565b9250828203905081811115615ffc57615ffb615630565b5b92915050565b7f50726f706f73616c20616c726561647920657865637574656400000000000000600082015250565b6000616038601983614bea565b915061604382616002565b602082019050919050565b600060208201905081810360008301526160678161602b565b9050919050565b7f416c726561647920617070726f76656400000000000000000000000000000000600082015250565b60006160a4601083614bea565b91506160af8261606e565b602082019050919050565b600060208201905081810360008301526160d381616097565b9050919050565b600081905092915050565b60008190508160005260206000209050919050565b60008154616107816155ff565b61611181866160da565b9450600182166000811461612c576001811461614157616174565b60ff1983168652811515820286019350616174565b61614a856160e5565b60005b8381101561616c5781548189015260018201915060208101905061614d565b838801955050505b50505092915050565b600061618982846160fa565b915081905092915050565b7f50726f706f73616c20657865637574696f6e206661696c656400000000000000600082015250565b60006161ca601983614bea565b91506161d582616194565b602082019050919050565b600060208201905081810360008301526161f9816161bd565b9050919050565b7f4e6f7420696e20726576696577657220706f6f6c000000000000000000000000600082015250565b6000616236601483614bea565b915061624182616200565b602082019050919050565b6000602082019050818103600083015261626581616229565b9050919050565b7f4e487b7100000000000000000000000000000000000000000000000000000000600052603160045260246000fd5b60006060820190506162b06000830186614d1b565b6162bd6020830185614bc0565b6162ca6040830184614bc0565b949350505050565b7f53636f726573206d757374206265206265747765656e203120616e642031302e600082015250565b6000616308602083614bea565b9150616313826162d2565b602082019050919050565b60006020820190508181036000830152616337816162fb565b9050919050565b7f4c696d6974204578636565646564210000000000000000000000000000000000600082015250565b6000616374600f83614bea565b915061637f8261633e565b602082019050919050565b600060208201905081810360008301526163a381616367565b9050919050565b60006040820190506163bf6000830185614d1b565b6163cc6020830184614dfb565b939250505056fea2646970667358221220848875f8a892279be938139036761147cb03db907988a547e721e362f4005d1a64736f6c634300081b0033",
  "linkReferences": {},
  "deployedLinkReferences": {}
}