{
  "_format": "hh-sol-artifact-1",
  "contractName": "AmbassadorNetworkFacet",
  "sourceName": "contracts/AmbassadorNetworkFacet.sol",
  "abi": [
    {
      "inputs": [],
      "name": "ReentrancyGuardReentrantCall",
      "type": "error"
    },
    {
      "anonymous": false,
      "inputs": [
        {
          "indexed": true,
          "internalType": "address",
          "name": "ambassador",
          "type": "address"
        },
        {
          "indexed": false,
          "internalType": "address",
          "name": "leftLeg",
          "type": "address"
        },
        {
          "indexed": false,
          "internalType": "address",
          "name": "rightLeg",
          "type": "address"
        },
        {
          "indexed": false,
          "internalType": "uint256",
          "name": "timestamp",
          "type": "uint256"
        }
      ],
      "name": "AmbassadorActivated",
      "type": "event"
    },
    {
      "anonymous": false,
      "inputs": [
        {
          "indexed": true,
          "internalType": "address",
          "name": "ambassador",
          "type": "address"
        },
        {
          "indexed": false,
          "internalType": "uint8",
          "name": "oldLevel",
          "type": "uint8"
        },
        {
          "indexed": false,
          "internalType": "uint8",
          "name": "newLevel",
          "type": "uint8"
        },
        {
          "indexed": false,
          "internalType": "uint256",
          "name": "totalDownlineSales",
          "type": "uint256"
        },
        {
          "indexed": false,
          "internalType": "uint256",
          "name": "timestamp",
          "type": "uint256"
        }
      ],
      "name": "AmbassadorLevelUp",
      "type": "event"
    },
    {
      "anonymous": false,
      "inputs": [
        {
          "indexed": true,
          "internalType": "address",
          "name": "ambassador",
          "type": "address"
        },
        {
          "indexed": true,
          "internalType": "address",
          "name": "sponsor",
          "type": "address"
        },
        {
          "indexed": false,
          "internalType": "enum LibDiamond.Tier",
          "name": "tier",
          "type": "uint8"
        },
        {
          "indexed": false,
          "internalType": "uint256",
          "name": "entryFee",
          "type": "uint256"
        },
        {
          "indexed": false,
          "internalType": "uint256",
          "name": "timestamp",
          "type": "uint256"
        }
      ],
      "name": "AmbassadorRegistered",
      "type": "event"
    },
    {
      "anonymous": false,
      "inputs": [
        {
          "indexed": true,
          "internalType": "address",
          "name": "ambassador",
          "type": "address"
        },
        {
          "indexed": true,
          "internalType": "address",
          "name": "sponsor",
          "type": "address"
        },
        {
          "indexed": false,
          "internalType": "string",
          "name": "position",
          "type": "string"
        },
        {
          "indexed": false,
          "internalType": "uint8",
          "name": "depth",
          "type": "uint8"
        }
      ],
      "name": "TreePositionAssigned",
      "type": "event"
    },
    {
      "inputs": [
        {
          "internalType": "address",
          "name": "_ambassador",
          "type": "address"
        }
      ],
      "name": "getAmbassadorDetails",
      "outputs": [
        {
          "internalType": "bytes32",
          "name": "did",
          "type": "bytes32"
        },
        {
          "internalType": "enum LibDiamond.Tier",
          "name": "tier",
          "type": "uint8"
        },
        {
          "internalType": "uint8",
          "name": "level",
          "type": "uint8"
        },
        {
          "internalType": "address",
          "name": "sponsor",
          "type": "address"
        },
        {
          "internalType": "address",
          "name": "leftLeg",
          "type": "address"
        },
        {
          "internalType": "address",
          "name": "rightLeg",
          "type": "address"
        },
        {
          "internalType": "uint256",
          "name": "totalDownlineSales",
          "type": "uint256"
        },
        {
          "internalType": "uint256",
          "name": "lifetimeCommissions",
          "type": "uint256"
        },
        {
          "internalType": "bool",
          "name": "isActive",
          "type": "bool"
        }
      ],
      "stateMutability": "view",
      "type": "function"
    },
    {
      "inputs": [
        {
          "internalType": "address",
          "name": "_ambassador",
          "type": "address"
        },
        {
          "internalType": "uint8",
          "name": "_maxDepth",
          "type": "uint8"
        }
      ],
      "name": "getAmbassadorTree",
      "outputs": [
        {
          "internalType": "address[]",
          "name": "addresses",
          "type": "address[]"
        },
        {
          "internalType": "uint8[]",
          "name": "levels",
          "type": "uint8[]"
        },
        {
          "internalType": "bool[]",
          "name": "isActiveList",
          "type": "bool[]"
        },
        {
          "internalType": "uint8[]",
          "name": "depths",
          "type": "uint8[]"
        }
      ],
      "stateMutability": "view",
      "type": "function"
    },
    {
      "inputs": [
        {
          "internalType": "address",
          "name": "_ambassador",
          "type": "address"
        }
      ],
      "name": "getDirectDownline",
      "outputs": [
        {
          "internalType": "address",
          "name": "left",
          "type": "address"
        },
        {
          "internalType": "address",
          "name": "right",
          "type": "address"
        }
      ],
      "stateMutability": "view",
      "type": "function"
    },
    {
      "inputs": [
        {
          "internalType": "address",
          "name": "_ambassador",
          "type": "address"
        },
        {
          "internalType": "uint8",
          "name": "_maxDepth",
          "type": "uint8"
        }
      ],
      "name": "getDownlineCount",
      "outputs": [
        {
          "internalType": "uint256",
          "name": "",
          "type": "uint256"
        }
      ],
      "stateMutability": "view",
      "type": "function"
    },
    {
      "inputs": [],
      "name": "getRootAmbassadors",
      "outputs": [
        {
          "internalType": "address[]",
          "name": "",
          "type": "address[]"
        }
      ],
      "stateMutability": "view",
      "type": "function"
    },
    {
      "inputs": [
        {
          "internalType": "address",
          "name": "_ambassador",
          "type": "address"
        },
        {
          "internalType": "uint8",
          "name": "_levels",
          "type": "uint8"
        }
      ],
      "name": "getUplineChain",
      "outputs": [
        {
          "internalType": "address[]",
          "name": "",
          "type": "address[]"
        }
      ],
      "stateMutability": "view",
      "type": "function"
    },
    {
      "inputs": [
        {
          "internalType": "address",
          "name": "_sponsor",
          "type": "address"
        },
        {
          "internalType": "bytes32",
          "name": "_DID",
          "type": "bytes32"
        }
      ],
      "name": "registerFoundingAmbassador",
      "outputs": [],
      "stateMutability": "payable",
      "type": "function"
    },
    {
      "inputs": [
        {
          "internalType": "address",
          "name": "_sponsor",
          "type": "address"
        },
        {
          "internalType": "bytes32",
          "name": "_DID",
          "type": "bytes32"
        },
        {
          "internalType": "uint256",
          "name": "_courseId",
          "type": "uint256"
        }
      ],
      "name": "registerGeneralAmbassador",
      "outputs": [],
      "stateMutability": "nonpayable",
      "type": "function"
    },
    {
      "inputs": [
        {
          "internalType": "address",
          "name": "_ambassador",
          "type": "address"
        }
      ],
      "name": "updateAmbassadorLevel",
      "outputs": [],
      "stateMutability": "nonpayable",
      "type": "function"
    }
  ],
  "bytecode": "0x6080806040523461001b57600160005561187190816100218239f35b600080fdfe60406080815260048036101561001457600080fd5b600091823560e01c80630aaaed9a14610bed57806318de1569146109b957806323ed9b1e146108e95780632a917d34146107d9578063338665bc1461041757806373ee54df146103c25780637e15495c146102f15780638f7b02cb14610188576391708b961461008357600080fd5b346101845760203660031901126101845761009c610c10565b9060018060a01b03918281169384865260008051602061181c8339815191526020528286209384541615610150578301928354926100e060ff8560a81c1693611651565b60ff8116928484116100f0578880f35b7ff1ac699d4c84ad8cae69aa1731a80469c340a5448151903f4c9bbbf77462821f9660809660059360ff60a81b9060a81b169060ff60a81b191617905501549181519384526020840152820152426060820152a238808080808080808880f35b606490602084519162461bcd60e51b8352820152600e60248201526d139bdd081c9959da5cdd195c995960921b6044820152fd5b8280fd5b5082346102ee57806003193601126102ee577fe73faffa5bcab50ff8b24161d8feb15dcb77896c58c1b1c0777efe3ca6ebb183549181805b84811061027857506101d190610f86565b9180805b8581106101f5578351602080825281906101f190820188610c5b565b0390f35b6101fe81610dec565b9060018060a01b03918291549060031b1c169081845260008051602061181c8339815191526020528584209080600283015460081c1615918261026b575b505061024c575b506001016101d5565b836102649161025e6001949689610fb8565b52610f0b565b9290610243565b541615159050888061023c565b61028181610dec565b90546001600160a01b0360039290921b1c8116855260008051602061181c833981519152602052838520600281015460081c8216159190826102e1575b50506102cd575b6001016101c0565b906102d9600191610f0b565b9190506102c5565b54161515905086806102be565b80fd5b5091346102ee5761030136610c2b565b92909360ff8094169461031386610f86565b9160018060a01b03809216855260008051602061181c8339815191526020918160205260029160028289200154938560089560081c1689905b8b82168d8110806103b7575b156103a25761036889918b610fb8565b91168091528a528282528a8786868d200154881c1691168b811461038f576001019061034c565b634e487b7160e01b8b5260118a5260248bfd5b8551602080825281906101f19082018d610c5b565b508882161515610358565b5091346102ee5760203660031901126102ee576001600160a01b03908390826103e9610c10565b16815260008051602061181c8339815191526020522091816003840154169201541682519182526020820152f35b509190826003193601126107d55761042d610c10565b6024359361043961107b565b61046a60ff7fe73faffa5bcab50ff8b24161d8feb15dcb77896c58c1b1c0777efe3ca6ebb1975460a01c1615610ccf565b7fe73faffa5bcab50ff8b24161d8feb15dcb77896c58c1b1c0777efe3ca6ebb18580547fe73faffa5bcab50ff8b24161d8feb15dcb77896c58c1b1c0777efe3ca6ebb186541115610792576001600160a01b03936104d3856104cb33610d0d565b541615610d6d565b847fe73faffa5bcab50ff8b24161d8feb15dcb77896c58c1b1c0777efe3ca6ebb1955416966305f5e10092836105098a33611581565b1061074f578798877fe73faffa5bcab50ff8b24161d8feb15dcb77896c58c1b1c0777efe3ca6ebb1965416908651916323b872dd60e01b8352338684015260248301528560448301528160648160209c8d945af1908115610745578a9161070b575b50156106d0577fe73faffa5bcab50ff8b24161d8feb15dcb77896c58c1b1c0777efe3ca6ebb18480546106b5575b6105a233610d0d565b80546001600160a01b03199081163317825560018201859055600280830180546001600160a81b03191660088c901b610100600160a81b03161790911790559460ff19916012918101805460ff60a81b1916600160a91b179055601381018890554260148201556301e13380600f8201550180549091169055610625873361109e565b61062e33610e57565b6106388154610f0b565b90556106448154610f0b565b905587527fe73faffa5bcab50ff8b24161d8feb15dcb77896c58c1b1c0777efe3ca6ebb192865282872090339082541617905581519460028652850152429084015216907f7111e04ab50e819454aed87efff007c13bed5584eed12c613244b5e7cab086c160603392a36001815580f35b6106cb886106c289610d0d565b54161515610dae565b610599565b845162461bcd60e51b815280840189905260156024820152741554d110c8195b9d1c9e481999594819985a5b1959605a1b6044820152606490fd5b90508881813d831161073e575b6107228183610f4c565b8101031261073a5751801515810361073a573861056b565b8980fd5b503d610718565b86513d8c823e3d90fd5b845162461bcd60e51b8152602081850152601960248201527f496e73756666696369656e7420555344432062616c616e6365000000000000006044820152606490fd5b815162461bcd60e51b8152602081860181905260248201527f466f756e64696e6720616d6261737361646f7220736c6f74732066696c6c65646044820152606490fd5b5080fd5b5082346102ee576107e936610c2b565b90926107f760ff8316610f30565b9160ff83116108d657600180931b9460001986019586116108c3579261084b92859261085384899761082b61086a9b610f86565b98899461083782610f86565b95869161084384610f86565b9b8c94610f86565b9a8b95611442565b5061087a8251988997608089526080890190610c5b565b60209288820360208a0152610c98565b9186830390870152602080865193848152019501965b8281106108ab5786806101f188888382036060850152610c98565b87511515865296810196889650948101948301610890565b634e487b7160e01b855260118752602485fd5b634e487b7160e01b845260118652602484fd5b5082346102ee5760203660031901126102ee576001600160a01b03918261090e610c10565b16825260008051602061181c83398151915260205280822090600182015493600283015460ff8116928785015491836003870154169160058701549560ff601260078a0154990154169882519a8b5260038210156109a6575060208a015260a884901c60ff169089015260081c8316606088015260808701521660a085015260c084015260e083015215156101008201526101209150f35b634e487b7160e01b815260218c52602490fd5b509034610184576060366003190112610184576109d4610c10565b602435926109e061107b565b610a1160ff7fe73faffa5bcab50ff8b24161d8feb15dcb77896c58c1b1c0777efe3ca6ebb1975460a01c1615610ccf565b6001600160a01b0392610a27846104cb33610d0d565b3386527fe73faffa5bcab50ff8b24161d8feb15dcb77896c58c1b1c0777efe3ca6ebb19360205281862060443587526020526302faf08094858388205410610baa57610a76856106c286610d0d565b610a7f33610d0d565b80546001600160a01b03199081163317825560018083018490556002830180546001600160a81b031916600889901b610100600160a81b03161790911790559260ff19916012918101805460ff60a81b1916600160a81b179055601381018990554260148201556301e13380600f8201550180549091169055610b02843361109e565b610b0b33610e57565b7fe73faffa5bcab50ff8b24161d8feb15dcb77896c58c1b1c0777efe3ca6ebb184610b368154610f0b565b905586527fe73faffa5bcab50ff8b24161d8feb15dcb77896c58c1b1c0777efe3ca6ebb192602052818620903390825416179055805193600185526020850152429084015216907f7111e04ab50e819454aed87efff007c13bed5584eed12c613244b5e7cab086c160603392a36001815580f35b506020606492519162461bcd60e51b8352820152601960248201527f4d757374207075726368617365202435302b20636f75727365000000000000006044820152fd5b8382346107d557610c09602092610c0336610c2b565b90610fde565b9051908152f35b600435906001600160a01b0382168203610c2657565b600080fd5b6040906003190112610c26576004356001600160a01b0381168103610c26579060243560ff81168103610c265790565b90815180825260208080930193019160005b828110610c7b575050505090565b83516001600160a01b031685529381019392810192600101610c6d565b90815180825260208080930193019160005b828110610cb8575050505090565b835160ff1685529381019392810192600101610caa565b15610cd657565b60405162461bcd60e51b815260206004820152600f60248201526e10dbdb9d1c9858dd081c185d5cd959608a1b6044820152606490fd5b6001600160a01b0316600090815260008051602061181c8339815191526020526040902090565b6001600160a01b031660009081527fe73faffa5bcab50ff8b24161d8feb15dcb77896c58c1b1c0777efe3ca6ebb1906020526040902090565b15610d7457565b60405162461bcd60e51b8152602060048201526012602482015271105b1c9958591e481c9959da5cdd195c995960721b6044820152606490fd5b15610db557565b60405162461bcd60e51b815260206004820152600f60248201526e24b73b30b634b21039b837b739b7b960891b6044820152606490fd5b7fe73faffa5bcab50ff8b24161d8feb15dcb77896c58c1b1c0777efe3ca6ebb1838054821015610e41576000527feb8dbe25873d686c322f12aba328bdddbdad39f67b4905a5f07c24d5b94249440190600090565b634e487b7160e01b600052603260045260246000fd5b7fe73faffa5bcab50ff8b24161d8feb15dcb77896c58c1b1c0777efe3ca6ebb1838054600160401b811015610eb357610e9591600182019055610dec565b60018060a09493941b038084549260031b9316831b921b1916179055565b634e487b7160e01b600052604160045260246000fd5b805490600160401b821015610eb35760018201808255821015610e41576000526020600020019060018060a01b03166001600160601b0360a01b825416179055565b6000198114610f1a5760010190565b634e487b7160e01b600052601160045260246000fd5b9060018201809211610f1a57565b6001019081600111610f1a57565b90601f8019910116810190811067ffffffffffffffff821117610eb357604052565b67ffffffffffffffff8111610eb35760051b60200190565b90610f9082610f6e565b610f9d6040519182610f4c565b8281528092610fae601f1991610f6e565b0190602036910137565b8051821015610e415760209160051b010190565b60ff60019116019060ff8211610f1a57565b91909160ff831660ff8316101561107357610ff890610d0d565b6003810154600093916001600160a01b0391821680611051575b5060040154169081611025575b50505090565b61103161103793610fcc565b91610fde565b61104090610f3e565b8101809111610f1a5738808061101f565b6110619195508361103186610fcc565b61106c600491610f3e565b9490611012565b505050600090565b60026000541461108c576002600055565b604051633ee5aeb560e01b8152600490fd5b6001600160a01b038281169081156113c9576110b984610d0d565b6110c284610d0d565b6003820180549192916110e5906001600160a01b03165b6001600160a01b031690565b6111f9576111b66111816111f296946111776004611158611153826111f79e9b996111488f7f69d86226dfb8b71ae28cdd4a3ef7762642e00fc56317b56ba667f7620b1b064f9b9060018060a01b03166001600160601b0360a01b825416179055565b015460a01c60ff1690565b610fcc565b9201805460ff60a01b191660a09390931b60ff60a01b16929092178255565b5460a01c60ff1690565b92604051918291891694829190916040815260046040820152631311519560e21b6060820152602060ff608083019416910152565b0390a36001600160a01b031660009081527fe73faffa5bcab50ff8b24161d8feb15dcb77896c58c1b1c0777efe3ca6ebb1906020526040902090565b610ec9565b565b60048201805491929091611215906001600160a01b03166110d9565b6113a5576112d086946111f2976111f79a9795856113069561126f8d7f69d86226dfb8b71ae28cdd4a3ef7762642e00fc56317b56ba667f7620b1b064f999060018060a01b03166001600160601b0360a01b825416179055565b6112a56004611286611153855460ff9060a01c1690565b9601805460ff60a01b191660a09790971b60ff60a01b16969096178655565b601281016112bb6112b7825460ff1690565b1590565b61130e575b50505050505460ff9060a01c1690565b9260405191829189169482919091604081526005604082015264149251d21560da1b6060820152602060ff608083019416910152565b0390a3610d34565b7f34b4f72f6a06985af218e7f34e4699e6bea0895b5bdfede98cba5c9d96aa05b39361135a60106113759461134d61136795600160ff19825416179055565b4260118201550160029055565b546001600160a01b031690565b91546001600160a01b031690565b604080516001600160a01b0393841681529190921660208201524291810191909152606090a285388080806112c0565b5050505050506113bd6113b7836116fb565b8261109e565b6111f26111f792610d34565b600093507f69d86226dfb8b71ae28cdd4a3ef7762642e00fc56317b56ba667f7620b1b064f915061140c60046113fe85610d0d565b01805460ff60a01b19169055565b6040519216918061143d81906040825260046040830152631493d3d560e21b60608301526000602060808401930152565b0390a3565b9096909594939291906001600160a01b0390818816158015611572575b6115665761146c88610d0d565b976114778286610fb8565b6001600160a01b0390911690526004880154908160a81c60ff1661149b8288610fb8565b60ff918216905260128a0154166114b28289610fb8565b9015159052896114c2828a610fb8565b60ff90911690526114d290610f30565b6003909801546001600160a01b031689838216151580611557575b61153b575b5050168015158061152c575b61150e575b505050505050905090565b61151a61152098610fcc565b90611442565b80388080808080611503565b5060ff821660ff8916106114fe565b8787878761154f969d9561151a8e96610fcc565b9638896114f2565b5060ff851660ff8216106114ed565b97505050505050505090565b5060ff831660ff8a161161145f565b6040516370a0823160e01b60208083019182526001600160a01b0393841660248085019190915283529093909267ffffffffffffffff9290916060820184811183821017610eb357604052600095869384935192165afa3d15611648573d91821161163457604051916115fd601f8201601f1916850184610f4c565b82523d848484013e5b80611629575b61161557505090565b909182828051810103126102ee5750015190565b50818151101561160c565b634e487b7160e01b84526041600452602484fd5b60609150611606565b60009060018060a01b0316815260008051602061181c833981519152602052600560408220015490600581527fe73faffa5bcab50ff8b24161d8feb15dcb77896c58c1b1c0777efe3ca6ebb18960205260408120548210156116f4576004815260408120548210156116ed576003815260408120548210156116e65780600260409252205411156116e157600190565b600290565b5050600390565b5050600490565b5050600590565b6040805190617d20820182811067ffffffffffffffff821117610eb3576040526103e88083526020916020840191617d00368437600091600194865115611807576001600160a01b038881169095525b85841061175c575050505050505090565b6117728561176a868a610fb8565b511694610f0b565b938060005260008051602061181c8339815191528252826000208660038201541691821580156117f9575b6117eb57509086918589106117b5575b50505061174b565b6004916117cb6117c48b610f0b565b9a8c610fb8565b520154166117e26117db88610f0b565b9789610fb8565b528438806117ad565b995050505050505050505090565b50876004830154161561179d565b634e487b7160e01b84526032600452602484fdfee73faffa5bcab50ff8b24161d8feb15dcb77896c58c1b1c0777efe3ca6ebb17da264697066735822122053a0309dbf5f953e1864d5ed124c12126cdee64b80f6b5eb898581410db2b0fa64736f6c63430008180033",
  "linkReferences": {},
  "deployedLinkReferences": {}
}