{
  "_format": "hh-sol-artifact-1",
  "contractName": "AmbassadorNetworkFacet",
  "sourceName": "contracts/AmbassadorNetworkFacet.sol",
  "abi": [
    {
      "inputs": [],
      "name": "ReentrancyGuardReentrantCall",
      "type": "error"
    },
    {
      "anonymous": false,
      "inputs": [
        {
          "indexed": true,
          "internalType": "address",
          "name": "ambassador",
          "type": "address"
        },
        {
          "indexed": false,
          "internalType": "address",
          "name": "leftLeg",
          "type": "address"
        },
        {
          "indexed": false,
          "internalType": "address",
          "name": "rightLeg",
          "type": "address"
        },
        {
          "indexed": false,
          "internalType": "uint256",
          "name": "timestamp",
          "type": "uint256"
        }
      ],
      "name": "AmbassadorActivated",
      "type": "event"
    },
    {
      "anonymous": false,
      "inputs": [
        {
          "indexed": true,
          "internalType": "address",
          "name": "ambassador",
          "type": "address"
        },
        {
          "indexed": false,
          "internalType": "enum LibDiamond.Tier",
          "name": "tier",
          "type": "uint8"
        },
        {
          "indexed": false,
          "internalType": "uint256",
          "name": "refundAmount",
          "type": "uint256"
        },
        {
          "indexed": false,
          "internalType": "uint256",
          "name": "refundBps",
          "type": "uint256"
        },
        {
          "indexed": false,
          "internalType": "uint256",
          "name": "timestamp",
          "type": "uint256"
        }
      ],
      "name": "AmbassadorDeregistered",
      "type": "event"
    },
    {
      "anonymous": false,
      "inputs": [
        {
          "indexed": true,
          "internalType": "address",
          "name": "ambassador",
          "type": "address"
        },
        {
          "indexed": false,
          "internalType": "uint8",
          "name": "oldLevel",
          "type": "uint8"
        },
        {
          "indexed": false,
          "internalType": "uint8",
          "name": "newLevel",
          "type": "uint8"
        },
        {
          "indexed": false,
          "internalType": "uint256",
          "name": "totalDownlineSales",
          "type": "uint256"
        },
        {
          "indexed": false,
          "internalType": "uint256",
          "name": "timestamp",
          "type": "uint256"
        }
      ],
      "name": "AmbassadorLevelUp",
      "type": "event"
    },
    {
      "anonymous": false,
      "inputs": [
        {
          "indexed": true,
          "internalType": "address",
          "name": "ambassador",
          "type": "address"
        },
        {
          "indexed": false,
          "internalType": "enum LibDiamond.Tier",
          "name": "tier",
          "type": "uint8"
        },
        {
          "indexed": false,
          "internalType": "uint256",
          "name": "timestamp",
          "type": "uint256"
        }
      ],
      "name": "AmbassadorRefundSkipped",
      "type": "event"
    },
    {
      "anonymous": false,
      "inputs": [
        {
          "indexed": true,
          "internalType": "address",
          "name": "ambassador",
          "type": "address"
        },
        {
          "indexed": true,
          "internalType": "address",
          "name": "sponsor",
          "type": "address"
        },
        {
          "indexed": false,
          "internalType": "enum LibDiamond.Tier",
          "name": "tier",
          "type": "uint8"
        },
        {
          "indexed": false,
          "internalType": "uint256",
          "name": "entryFee",
          "type": "uint256"
        },
        {
          "indexed": false,
          "internalType": "uint256",
          "name": "timestamp",
          "type": "uint256"
        }
      ],
      "name": "AmbassadorRegistered",
      "type": "event"
    },
    {
      "anonymous": false,
      "inputs": [
        {
          "indexed": true,
          "internalType": "address",
          "name": "ambassador",
          "type": "address"
        },
        {
          "indexed": true,
          "internalType": "address",
          "name": "sponsor",
          "type": "address"
        },
        {
          "indexed": false,
          "internalType": "string",
          "name": "position",
          "type": "string"
        },
        {
          "indexed": false,
          "internalType": "uint8",
          "name": "depth",
          "type": "uint8"
        }
      ],
      "name": "TreePositionAssigned",
      "type": "event"
    },
    {
      "inputs": [],
      "name": "deregisterFoundingAmbassador",
      "outputs": [],
      "stateMutability": "nonpayable",
      "type": "function"
    },
    {
      "inputs": [],
      "name": "deregisterGeneralAmbassador",
      "outputs": [],
      "stateMutability": "nonpayable",
      "type": "function"
    },
    {
      "inputs": [],
      "name": "getAllAmbassadors",
      "outputs": [
        {
          "internalType": "address[]",
          "name": "",
          "type": "address[]"
        }
      ],
      "stateMutability": "view",
      "type": "function"
    },
    {
      "inputs": [
        {
          "internalType": "address",
          "name": "_ambassador",
          "type": "address"
        }
      ],
      "name": "getAmbassadorDetails",
      "outputs": [
        {
          "internalType": "string",
          "name": "did",
          "type": "string"
        },
        {
          "internalType": "enum LibDiamond.Tier",
          "name": "tier",
          "type": "uint8"
        },
        {
          "internalType": "uint8",
          "name": "level",
          "type": "uint8"
        },
        {
          "internalType": "address",
          "name": "sponsor",
          "type": "address"
        },
        {
          "internalType": "address",
          "name": "leftLeg",
          "type": "address"
        },
        {
          "internalType": "address",
          "name": "rightLeg",
          "type": "address"
        },
        {
          "internalType": "uint256",
          "name": "totalDownlineSales",
          "type": "uint256"
        },
        {
          "internalType": "uint256",
          "name": "lifetimeCommissions",
          "type": "uint256"
        },
        {
          "internalType": "bool",
          "name": "isActive",
          "type": "bool"
        }
      ],
      "stateMutability": "view",
      "type": "function"
    },
    {
      "inputs": [
        {
          "internalType": "address",
          "name": "_ambassador",
          "type": "address"
        },
        {
          "internalType": "uint8",
          "name": "_maxDepth",
          "type": "uint8"
        }
      ],
      "name": "getAmbassadorTree",
      "outputs": [
        {
          "internalType": "address[]",
          "name": "addresses",
          "type": "address[]"
        },
        {
          "internalType": "uint8[]",
          "name": "levels",
          "type": "uint8[]"
        },
        {
          "internalType": "bool[]",
          "name": "isActiveList",
          "type": "bool[]"
        },
        {
          "internalType": "uint8[]",
          "name": "depths",
          "type": "uint8[]"
        }
      ],
      "stateMutability": "view",
      "type": "function"
    },
    {
      "inputs": [
        {
          "internalType": "address",
          "name": "_ambassador",
          "type": "address"
        }
      ],
      "name": "getDirectDownline",
      "outputs": [
        {
          "internalType": "address",
          "name": "left",
          "type": "address"
        },
        {
          "internalType": "address",
          "name": "right",
          "type": "address"
        }
      ],
      "stateMutability": "view",
      "type": "function"
    },
    {
      "inputs": [
        {
          "internalType": "address",
          "name": "_ambassador",
          "type": "address"
        },
        {
          "internalType": "uint8",
          "name": "_maxDepth",
          "type": "uint8"
        }
      ],
      "name": "getDownlineCount",
      "outputs": [
        {
          "internalType": "uint256",
          "name": "",
          "type": "uint256"
        }
      ],
      "stateMutability": "view",
      "type": "function"
    },
    {
      "inputs": [],
      "name": "getRootAmbassadors",
      "outputs": [
        {
          "internalType": "address[]",
          "name": "",
          "type": "address[]"
        }
      ],
      "stateMutability": "view",
      "type": "function"
    },
    {
      "inputs": [
        {
          "internalType": "address",
          "name": "_ambassador",
          "type": "address"
        },
        {
          "internalType": "uint8",
          "name": "_levels",
          "type": "uint8"
        }
      ],
      "name": "getUplineChain",
      "outputs": [
        {
          "internalType": "address[]",
          "name": "",
          "type": "address[]"
        }
      ],
      "stateMutability": "view",
      "type": "function"
    },
    {
      "inputs": [
        {
          "internalType": "string",
          "name": "_DID",
          "type": "string"
        }
      ],
      "name": "registerFoundingAmbassador",
      "outputs": [],
      "stateMutability": "payable",
      "type": "function"
    },
    {
      "inputs": [
        {
          "internalType": "address",
          "name": "_sponsor",
          "type": "address"
        },
        {
          "internalType": "string",
          "name": "_DID",
          "type": "string"
        },
        {
          "internalType": "uint256",
          "name": "_courseId",
          "type": "uint256"
        }
      ],
      "name": "registerGeneralAmbassador",
      "outputs": [],
      "stateMutability": "nonpayable",
      "type": "function"
    },
    {
      "inputs": [
        {
          "internalType": "address",
          "name": "_ambassador",
          "type": "address"
        }
      ],
      "name": "updateAmbassadorLevel",
      "outputs": [],
      "stateMutability": "nonpayable",
      "type": "function"
    }
  ],
  "bytecode": "0x6080806040523461001b576001600055612ac790816100218239f35b600080fdfe6040608081526004908136101561001557600080fd5b600090813560e01c80630aaaed9a14611a7957806323ed9b1e146119745780632a917d341461186457806341c4754c146117c357806373ee54df1461176d5780637dddd68c1461100f5780637e15495c14610f3d578063864fa92314610cab5780638f7b02cb14610b5457806391708b9614610a7f5780639b724a30146106dd5763f57eb1d5146100a557600080fd5b346106d957816003193601126106d9576100bd61229a565b6100dc60ff6000805160206129f28339815191525460a01c1615611d9e565b338252600080516020612a728339815191529060209082825280842060018060a01b039361010e338684541614612057565b60028201549160ff831695600393848810156106c657600180980361068b57818584015416158061067e575b610143906122bd565b6101516010840154156122bd565b61016461015d33611bd2565b54156122bd565b600883015461063b57600b8301546105fc5787826101879260081c169301611c7d565b91855188815242888201527f5312a9141d1983f02df49772d2f68dacea422cea8696ebc8f233aa47752cf39d873392a280610478575b50600080516020612a5283398151915254869291888a5b8381106103df575b505050508051908161038c575b505050600080516020612a3283398151915280549081610365575b50508596918680959697936014937f22041db5bdf1c11baa3283f92ca91f4c2baf888bdb2c03d689e0a7f47f885f9d8352600080516020612a128339815191528952868320338452895286832060ff19815416905588528186812093818555818a8c87018d6102738254611c0b565b9081610323575b50505050600286015584015582015582600582015582600682015582600782015582600882015582600982015582600a82015582600b82015582600c82015582600d82015582600e82015582600f8201558260108201558260118201558260128201558260138201550155818151938585528401528201524260608201527ff4a99105dfab55272441db4f399f260db42b9d9287fc9584c083613248a3448860803392a2815580f35b8490601f8311600114610341575050509050555b818a38808e61027a565b601f849395839561035e94528520950160051c8501908501611e47565b5555610337565b600019820191821161037957558186610204565b634e487b7160e01b885260118952602488fd5b8161039e849388518096819501611ae6565b81017fe73faffa5bcab50ff8b24161d8feb15dcb77896c58c1b1c0777efe3ca6ebb1928152030190206001600160601b0360a01b81541690558338806101e9565b909180939495506103ef82611f60565b905490891b1c16331461040857019088889493926101d4565b926000198101915081116104655791610436610454926104298a9695611f60565b905490891b1c1691611f60565b90919060018060a01b038084549260031b9316831b921b1916179055565b61045c612861565b388088816101dc565b634e487b7160e01b8a5260118b5260248afd5b8089528387528589209085820133848254161460001461059d576001600160601b0360a01b815416905589601083019283548061056c575b506104cb93505b6002601082015410610555575b5050611bd2565b805490888a5b8381106104e1575b5050506101bd565b846104ec8285611fa3565b9054908a1b1c163314610501570189906104d1565b9192600019810191508111610542578291610436856105266105349461053997611fa3565b9054908b1b1c169184611fa3565b6128b7565b388088816104d9565b634e487b7160e01b8b5260118c5260248bfd5b60128101805460ff191690556011015589386104c4565b91509192600019820191821161058a57556104cb91908a90386104b0565b634e487b7160e01b8c5260118d5260248cfd5b50898b8301805433868216146105b9575b50506104cb926104b7565b6001600160a01b03191690555060108201805490928b91806105de575b8194506105ae565b91509192600019820191821161058a57556104cb91908a90386105d6565b855162461bcd60e51b8152808b01889052601960248201527810db185a5b481d995cdd1959081d1bdad95b9cc8199a5c9cdd603a1b6044820152606490fd5b855162461bcd60e51b8152808b01889052601a60248201527f576974686472617720636f6d6d697373696f6e732066697273740000000000006044820152606490fd5b50828a015482161561013a565b855162461bcd60e51b8152808b0188905260156024820152742bb937b7339030b6b130b9b9b0b237b9103a34b2b960591b6044820152606490fd5b634e487b7160e01b895260218a52602489fd5b5080fd5b5060209081600319360112610a7b57833567ffffffffffffffff8111610a775761070a9036908601611b7d565b9461071361229a565b61073260ff6000805160206129f28339815191525460a01c1615611d9e565b7fe73faffa5bcab50ff8b24161d8feb15dcb77896c58c1b1c0777efe3ca6ebb1859081547fe73faffa5bcab50ff8b24161d8feb15dcb77896c58c1b1c0777efe3ca6ebb186541115610a36576001600160a01b039261079c8461079433611bab565b541615611e06565b837fe73faffa5bcab50ff8b24161d8feb15dcb77896c58c1b1c0777efe3ca6ebb19554166305f5e10094856107d18333612751565b106109f3578891606489927fe73faffa5bcab50ff8b24161d8feb15dcb77896c58c1b1c0777efe3ca6ebb1965416895194859384926323b872dd60e01b8452338a85015260248401528a60448401525af19081156109e95788916109bc575b50156109815786976108f491601261084733611bab565b80546001600160a01b03199081163317825595610868858560018501611e5e565b600282810180546001600160a81b03191690911790558101805460ff60a81b1916600160a91b179055601381018890554260148201556301e13380600f82015501805460ff19908116909155946108bf8a33612341565b6108c833611fbb565b600080516020612a328339815191526108e18154612010565b90556108ed8154612010565b905561201f565b9033908254161790557ffd35f3c093a59318b24367de4379d92545af5b79f51dadb27b80066791aee0b58552600080516020612a12833981519152845282852033865284526001838620918254161790558151926002845283015242908201527f7111e04ab50e819454aed87efff007c13bed5584eed12c613244b5e7cab086c160603392a36001815580f35b845162461bcd60e51b815280830187905260156024820152741554d110c8195b9d1c9e481999594819985a5b1959605a1b6044820152606490fd5b6109dc9150873d89116109e2575b6109d48183611c45565b810190612094565b38610830565b503d6109ca565b86513d8a823e3d90fd5b865162461bcd60e51b8152808501899052601960248201527f496e73756666696369656e7420555344432062616c616e6365000000000000006044820152606490fd5b606490858086519262461bcd60e51b845283015260248201527f466f756e64696e6720616d6261737361646f7220736c6f74732066696c6c65646044820152fd5b8380fd5b8280fd5b50829034610a7b576020366003190112610a7b57610a9b611a9b565b9060018060a01b039182811693848652600080516020612a72833981519152602052610ace838720948554161515612057565b830192835492610ae460ff8560a81c16936126a7565b60ff811692848411610af4578880f35b7ff1ac699d4c84ad8cae69aa1731a80469c340a5448151903f4c9bbbf77462821f9660809660059360ff60a81b9060a81b169060ff60a81b191617905501549181519384526020840152820152426060820152a281808080808080808880f35b509034610ca85780600319360112610ca857600080516020612a52833981519152549181805b848110610c325750610b8b90611d6c565b9180805b858110610baf57835160208082528190610bab90820188611b09565b0390f35b610bb881611f60565b9060018060a01b03918291549060031b1c1690818452600080516020612a728339815191526020528584209080600283015460081c16159182610c25575b5050610c06575b50600101610b8f565b83610c1e91610c186001949689611ddc565b52612010565b9290610bfd565b5416151590508880610bf6565b610c3b81611f60565b90546001600160a01b0360039290921b1c81168552600080516020612a72833981519152602052838520600281015460081c821615919082610c9b575b5050610c87575b600101610b7a565b90610c93600191612010565b919050610c7f565b5416151590508680610c78565b80fd5b50829034610a7b576060366003190112610a7b57610cc7611a9b565b60243567ffffffffffffffff8111610f3957610ce69036908501611b7d565b610cf193919361229a565b610d1060ff6000805160206129f28339815191525460a01c1615611d9e565b6001600160a01b0393610d268561079433611bab565b3387526020957fe73faffa5bcab50ff8b24161d8feb15dcb77896c58c1b1c0777efe3ca6ebb1938752838820604435895287526302faf0809283858a205410610ef65786610d7387611bab565b541615610ec157610e32906012610d8933611bab565b80546001600160a01b03199081163317825594610daa848860018501611e5e565b6002820180546001600160a81b03191660088c901b610100600160a81b03161760011790558101805460ff60a81b1916600160a81b179055601381018790554260148201556301e13380600f82015501805460ff1990811690915593610e108833612341565b610e1933611fbb565b600080516020612a328339815191526108ed8154612010565b9033908254161790557f22041db5bdf1c11baa3283f92ca91f4c2baf888bdb2c03d689e0a7f47f885f9d8752600080516020612a128339815191528652828720338852865260018388209182541617905581519460018652850152429084015216907f7111e04ab50e819454aed87efff007c13bed5584eed12c613244b5e7cab086c160603392a36001815580f35b845162461bcd60e51b8152808301899052600f60248201526e24b73b30b634b21039b837b739b7b960891b6044820152606490fd5b845162461bcd60e51b8152808301899052601960248201527f4d757374207075726368617365202435302b20636f75727365000000000000006044820152606490fd5b8480fd5b50919034610ca857610f4e36611ab6565b92909360ff80941694610f6086611d6c565b9160018060a01b038092168552600080516020612a728339815191526020918160205260029160028289200154938560089560081c1689905b8b82168d811080611004575b15610fef57610fb589918b611ddc565b91168091528a528282528a8786868d200154881c1691168b8114610fdc5760010190610f99565b634e487b7160e01b8b5260118a5260248bfd5b855160208082528190610bab9082018d611b09565b508882161515610fa5565b50346106d957816003193601126106d95761102861229a565b61104760ff6000805160206129f28339815191525460a01c1615611d9e565b338252600080516020612a72833981519152906020908282528084209060018060a01b039561107a338885541614612057565b600283015460039060ff81168281101561175a5760020361171f578882860154161580611712575b6110ab906122bd565b6110b96010860154156122bd565b6110c561015d33611bd2565b60088501546116cf57600b85015461169057889060081c16916001966110ec888701611c7d565b6110fe60146013890154980154612821565b9687810290808204891490151715611315576127109004948561157e575b8061141a575b50600080516020612a52833981519152549a8a5b8c8110611399575b5050899a50968781999a95969798519081611346575b5050507fe73faffa5bcab50ff8b24161d8feb15dcb77896c58c1b1c0777efe3ca6ebb18580549081611328575b5050600080516020612a32833981519152805490816112f7575b50506014929184917ffd35f3c093a59318b24367de4379d92545af5b79f51dadb27b80066791aee0b58352600080516020612a128339815191528a528783203384528a5287832060ff19815416905589528187812093818555818b8d808801906112058254611c0b565b90816112b5575b50505050600286015584015582015582600582015582600682015582600782015582600882015582600982015582600a82015582600b82015582600c82015582600d82015582600e82015582600f8201558260108201558260118201558260128201558260138201550155815193600285528401528201524260608201527ff4a99105dfab55272441db4f399f260db42b9d9287fc9584c083613248a3448860803392a2815580f35b8490601f83116001146112d3575050509050555b818b38808f61120c565b601f84939583956112f094528520950160051c8501908501611e47565b55556112c9565b9091929394506000198201918211611315575588929190818461119b565b634e487b7160e01b8b526011845260248bfd5b90919293945060001982019182116113155755889291903880611181565b8161135884938b518096819501611ae6565b81017fe73faffa5bcab50ff8b24161d8feb15dcb77896c58c1b1c0777efe3ca6ebb1928152030190206001600160601b0360a01b8154169055873880611154565b816113a382611f60565b905490881b1c1633146113b7578a01611136565b9192939495969798999a9b6000198101908111611407578a926104368e98979695936113e56113f294611f60565b9054908a1b1c1691611f60565b6113fa612861565b909796959499983861113e565b634e487b7160e01b8d526011865260248dfd5b808b52828952868b20908582018d33908254161460001461151c576001600160601b0360a01b81541690558b60108301928354806114eb575b5061146d93505b60026010820154106114d4575050611bd2565b8054908a8c8e5b848210611485575b50505050611122565b61148f8285611fa3565b9054908a1b1c1633146114a557018b908e611474565b91926000198101915081116114075782916104368f610526610534946114ca97611fa3565b38808a818e61147c565b60128101805460ff19169055601101558b386104c4565b915091926000198201918211611509575561146d91908c9038611453565b634e487b7160e01b8e526011875260248efd5b508b8d86840190815490339082161461153b575b505061146d9261145a565b6001600160a01b03191690555060108201805490928d9180611560575b819450611530565b915091926000198201918211611509575561146d91908c9038611558565b8a898d8887827fe73faffa5bcab50ff8b24161d8feb15dcb77896c58c1b1c0777efe3ca6ebb1955416927fe73faffa5bcab50ff8b24161d8feb15dcb77896c58c1b1c0777efe3ca6ebb196541630811460001461163c5750505060448a518094819363a9059cbb60e01b8352338b8401528c60248401525af19081156116325790611610918d91611615575b506122fc565b61111c565b61162c91508b3d8d116109e2576109d48183611c45565b3861160a565b88513d8e823e3d90fd5b8c516323b872dd60e01b81526001600160a01b0390911691810191825233602083015260408201929092529093849291839190829060600103925af19081156116325790611610918d9161161557506122fc565b835162461bcd60e51b8152808401879052601960248201527810db185a5b481d995cdd1959081d1bdad95b9cc8199a5c9cdd603a1b6044820152606490fd5b835162461bcd60e51b8152808401879052601a60248201527f576974686472617720636f6d6d697373696f6e732066697273740000000000006044820152606490fd5b50848301548916156110a2565b835162461bcd60e51b815280840187905260156024820152742bb937b7339030b6b130b9b9b0b237b9103a34b2b960591b6044820152606490fd5b634e487b7160e01b895260218452602489fd5b50919034610ca8576020366003190112610ca8576001600160a01b0390839082611795611a9b565b168152600080516020612a728339815191526020522091816003840154169201541682519182526020820152f35b50346106d957816003193601126106d9578051600080516020612a5283398151915280548083529084526020808301949293927feb8dbe25873d686c322f12aba328bdddbdad39f67b4905a5f07c24d5b942494492915b82821061184457610bab8686611832828b0383611c45565b51918291602083526020830190611b09565b83546001600160a01b03168752958601956001938401939091019061181a565b509034610ca85761187436611ab6565b909261188260ff8316611d22565b9160ff831161196157600180931b94600019860195861161194e57926118d69285926118de8489976118b66118f59b611d6c565b9889946118c282611d6c565b9586916118ce84611d6c565b9b8c94611d6c565b9a8b9561215b565b506119058251988997608089526080890190611b09565b60209288820360208a0152611b46565b9186830390870152602080865193848152019501965b828110611936578680610bab88888382036060850152611b46565b8751151586529681019688965094810194830161191b565b634e487b7160e01b855260118752602485fd5b634e487b7160e01b845260118652602484fd5b509034610ca8576020366003190112610ca8576001600160a01b039182611999611a9b565b168252600080516020612a72833981519152602052808220600281015460ff81169486830154908060038501541691600585015492600786015494601287015460ff16966001016119e990611c7d565b9780519a8b9a6101209a8b8d528c81519c8d9101528b610140809e019160200191611a1392611ae6565b6003821015611a66575060208c015260a884901c60ff16908b015260081c831660608a015260808901521660a087015260c086015260e08501521515610100840152601f01601f19168201829003019150f35b634e487b7160e01b815260218e52602490fd5b50346106d957611a94602092611a8e36611ab6565b906120be565b9051908152f35b600435906001600160a01b0382168203611ab157565b600080fd5b6040906003190112611ab1576004356001600160a01b0381168103611ab1579060243560ff81168103611ab15790565b60005b838110611af95750506000910152565b8181015183820152602001611ae9565b90815180825260208080930193019160005b828110611b29575050505090565b83516001600160a01b031685529381019392810192600101611b1b565b90815180825260208080930193019160005b828110611b66575050505090565b835160ff1685529381019392810192600101611b58565b9181601f84011215611ab15782359167ffffffffffffffff8311611ab15760208381860195010111611ab157565b6001600160a01b03166000908152600080516020612a728339815191526020526040902090565b6001600160a01b031660009081527fe73faffa5bcab50ff8b24161d8feb15dcb77896c58c1b1c0777efe3ca6ebb1906020526040902090565b90600182811c92168015611c3b575b6020831014611c2557565b634e487b7160e01b600052602260045260246000fd5b91607f1691611c1a565b90601f8019910116810190811067ffffffffffffffff821117611c6757604052565b634e487b7160e01b600052604160045260246000fd5b90604051918260008254611c9081611c0b565b90818452602094600191600181169081600014611d005750600114611cc1575b505050611cbf92500383611c45565b565b600090815285812095935091905b818310611ce8575050611cbf9350820101388080611cb0565b85548884018501529485019487945091830191611ccf565b92505050611cbf94925060ff191682840152151560051b820101388080611cb0565b9060018201809211611d3057565b634e487b7160e01b600052601160045260246000fd5b6001019081600111611d3057565b67ffffffffffffffff8111611c675760051b60200190565b90611d7682611d54565b611d836040519182611c45565b8281528092611d94601f1991611d54565b0190602036910137565b15611da557565b60405162461bcd60e51b815260206004820152600f60248201526e10dbdb9d1c9858dd081c185d5cd959608a1b6044820152606490fd5b8051821015611df05760209160051b010190565b634e487b7160e01b600052603260045260246000fd5b15611e0d57565b60405162461bcd60e51b8152602060048201526012602482015271105b1c9958591e481c9959da5cdd195c995960721b6044820152606490fd5b818110611e52575050565b60008155600101611e47565b90929167ffffffffffffffff8111611c6757611e7a8254611c0b565b601f8111611f23575b506000601f8211600114611ebe5781929394600092611eb3575b50508160011b916000199060031b1c1916179055565b013590503880611e9d565b601f19821694838252602091602081209281905b888210611f0b57505083600195969710611ef1575b505050811b019055565b0135600019600384901b60f8161c19169055388080611ee7565b80600184968294958701358155019501920190611ed2565b611f5090836000526020600020601f840160051c81019160208510611f56575b601f0160051c0190611e47565b38611e83565b9091508190611f43565b600080516020612a528339815191528054821015611df0576000527feb8dbe25873d686c322f12aba328bdddbdad39f67b4905a5f07c24d5b94249440190600090565b8054821015611df05760005260206000200190600090565b600080516020612a5283398151915290815491600160401b831015611c675782610436916001611cbf95019055611f60565b90815491600160401b831015611c675782610436916001611cbf95018155611fa3565b6000198114611d305760010190565b60209082604051938492833781017fe73faffa5bcab50ff8b24161d8feb15dcb77896c58c1b1c0777efe3ca6ebb19281520301902090565b1561205e57565b60405162461bcd60e51b815260206004820152600e60248201526d139bdd081c9959da5cdd195c995960921b6044820152606490fd5b90816020910312611ab157518015158103611ab15790565b60ff60019116019060ff8211611d3057565b91909160ff831660ff83161015612153576120d890611bab565b6003810154600093916001600160a01b0391821680612131575b5060040154169081612105575b50505090565b612111612117936120ac565b916120be565b61212090611d46565b8101809111611d30573880806120ff565b61214191955083612111866120ac565b61214c600491611d46565b94906120f2565b505050600090565b9096909594939291906001600160a01b039081881615801561228b575b61227f5761218588611bab565b976121908286611ddc565b6001600160a01b0390911690526004880154908160a81c60ff166121b48288611ddc565b60ff918216905260128a0154166121cb8289611ddc565b9015159052896121db828a611ddc565b60ff90911690526121eb90611d22565b6003909801546001600160a01b031689838216151580612270575b612254575b50501680151580612245575b612227575b505050505050905090565b612233612239986120ac565b9061215b565b8038808080808061221c565b5060ff821660ff891610612217565b87878787612268969d956122338e966120ac565b96388961220b565b5060ff851660ff821610612206565b97505050505050505090565b5060ff831660ff8a1611612178565b6002600054146122ab576002600055565b604051633ee5aeb560e01b8152600490fd5b156122c457565b60405162461bcd60e51b815260206004820152601060248201526f486173207375626f7264696e6174657360801b6044820152606490fd5b1561230357565b60405162461bcd60e51b81526020600482015260166024820152751499599d5b99081d1c985b9cd9995c8819985a5b195960521b6044820152606490fd5b6001600160a01b0382811690811561262e5761235c84611bab565b61236584611bab565b600382018054919291612388906001600160a01b03165b6001600160a01b031690565b61246657612459612424612461969461241a60046123fb6123f682611cbf9e9b996123eb8f7f69d86226dfb8b71ae28cdd4a3ef7762642e00fc56317b56ba667f7620b1b064f9b9060018060a01b03166001600160601b0360a01b825416179055565b015460a01c60ff1690565b6120ac565b9201805460ff60a01b191660a09390931b60ff60a01b16929092178255565b5460a01c60ff1690565b92604051918291891694829190916040815260046040820152631311519560e21b6060820152602060ff608083019416910152565b0390a3611bd2565b611fed565b60048201805491929091612482906001600160a01b031661237c565b61260a5761253d869461246197611cbf9a979585612459956124dc8d7f69d86226dfb8b71ae28cdd4a3ef7762642e00fc56317b56ba667f7620b1b064f999060018060a01b03166001600160601b0360a01b825416179055565b61251260046124f36123f6855460ff9060a01c1690565b9601805460ff60a01b191660a09790971b60ff60a01b16969096178655565b60128101612528612524825460ff1690565b1590565b612573575b50505050505460ff9060a01c1690565b9260405191829189169482919091604081526005604082015264149251d21560da1b6060820152602060ff608083019416910152565b7f34b4f72f6a06985af218e7f34e4699e6bea0895b5bdfede98cba5c9d96aa05b3936125bf60106125da946125b26125cc95600160ff19825416179055565b4260118201550160029055565b546001600160a01b031690565b91546001600160a01b031690565b604080516001600160a01b0393841681529190921660208201524291810191909152606090a2853880808061252d565b50505050505061262261261c836128d1565b82612341565b612461611cbf92611bd2565b600093507f69d86226dfb8b71ae28cdd4a3ef7762642e00fc56317b56ba667f7620b1b064f9150612671600461266385611bab565b01805460ff60a01b19169055565b604051921691806126a281906040825260046040830152631493d3d560e21b60608301526000602060808401930152565b0390a3565b60009060018060a01b03168152600080516020612a72833981519152602052600560408220015490600581527fe73faffa5bcab50ff8b24161d8feb15dcb77896c58c1b1c0777efe3ca6ebb189602052604081205482101561274a576004815260408120548210156127435760038152604081205482101561273c57806002604092522054111561273757600190565b600290565b5050600390565b5050600490565b5050600590565b6040516370a0823160e01b60208083019182526001600160a01b0393841660248085019190915283529093909267ffffffffffffffff9290916060820184811183821017611c6757604052600095869384935192165afa3d15612818573d91821161280457604051916127cd601f8201601f1916850184611c45565b82523d848484013e5b806127f9575b6127e557505090565b90918282805181010312610ca85750015190565b5081815110156127dc565b634e487b7160e01b84526041600452602484fd5b606091506127d6565b4203428111611d30576203f480811061285a57620d2f0081106128535762278d001161284d576101f490565b6105dc90565b5061138890565b50611f4090565b600080516020612a52833981519152805480156128a157600019019061289e61288983611f60565b81549060018060a01b039060031b1b19169055565b55565b634e487b7160e01b600052603160045260246000fd5b805480156128a157600019019061289e6128898383611fa3565b6040805190617d20820182811067ffffffffffffffff821117611c67576040526103e88083526020916020840191617d003684376000916001948651156129dd576001600160a01b038881169095525b858410612932575050505050505090565b61294885612940868a611ddc565b511694612010565b9380600052600080516020612a728339815191528252826000208660038201541691821580156129cf575b6129c1575090869185891061298b575b505050612921565b6004916129a161299a8b612010565b9a8c611ddc565b520154166129b86129b188612010565b9789611ddc565b52843880612983565b995050505050505050505090565b508760048301541615612973565b634e487b7160e01b84526032600452602484fdfee73faffa5bcab50ff8b24161d8feb15dcb77896c58c1b1c0777efe3ca6ebb197c8fcad8db84d3cc18b4c41d551ea0ee66dd599cde068d998e57d5e09332c1328e73faffa5bcab50ff8b24161d8feb15dcb77896c58c1b1c0777efe3ca6ebb184e73faffa5bcab50ff8b24161d8feb15dcb77896c58c1b1c0777efe3ca6ebb183e73faffa5bcab50ff8b24161d8feb15dcb77896c58c1b1c0777efe3ca6ebb17da2646970667358221220311565bb87c3fb34200080f604b682d9df19ba2ceb58a962421d9543b289518f64736f6c63430008180033",
  "linkReferences": {},
  "deployedLinkReferences": {}
}