{
  "_format": "hh-sol-artifact-1",
  "contractName": "AmbassadorNetworkFacet",
  "sourceName": "contracts/AmbassadorNetworkFacet.sol",
  "abi": [
    {
      "inputs": [],
      "name": "ReentrancyGuardReentrantCall",
      "type": "error"
    },
    {
      "anonymous": false,
      "inputs": [
        {
          "indexed": true,
          "internalType": "address",
          "name": "ambassador",
          "type": "address"
        },
        {
          "indexed": false,
          "internalType": "address",
          "name": "leftLeg",
          "type": "address"
        },
        {
          "indexed": false,
          "internalType": "address",
          "name": "rightLeg",
          "type": "address"
        },
        {
          "indexed": false,
          "internalType": "uint256",
          "name": "timestamp",
          "type": "uint256"
        }
      ],
      "name": "AmbassadorActivated",
      "type": "event"
    },
    {
      "anonymous": false,
      "inputs": [
        {
          "indexed": true,
          "internalType": "address",
          "name": "ambassador",
          "type": "address"
        },
        {
          "indexed": false,
          "internalType": "enum LibDiamond.Tier",
          "name": "tier",
          "type": "uint8"
        },
        {
          "indexed": false,
          "internalType": "uint256",
          "name": "refundAmount",
          "type": "uint256"
        },
        {
          "indexed": false,
          "internalType": "uint256",
          "name": "refundBps",
          "type": "uint256"
        },
        {
          "indexed": false,
          "internalType": "uint256",
          "name": "timestamp",
          "type": "uint256"
        }
      ],
      "name": "AmbassadorDeregistered",
      "type": "event"
    },
    {
      "anonymous": false,
      "inputs": [
        {
          "indexed": true,
          "internalType": "address",
          "name": "ambassador",
          "type": "address"
        },
        {
          "indexed": false,
          "internalType": "uint8",
          "name": "oldLevel",
          "type": "uint8"
        },
        {
          "indexed": false,
          "internalType": "uint8",
          "name": "newLevel",
          "type": "uint8"
        },
        {
          "indexed": false,
          "internalType": "uint256",
          "name": "totalDownlineSales",
          "type": "uint256"
        },
        {
          "indexed": false,
          "internalType": "uint256",
          "name": "timestamp",
          "type": "uint256"
        }
      ],
      "name": "AmbassadorLevelUp",
      "type": "event"
    },
    {
      "anonymous": false,
      "inputs": [
        {
          "indexed": true,
          "internalType": "address",
          "name": "ambassador",
          "type": "address"
        },
        {
          "indexed": false,
          "internalType": "enum LibDiamond.Tier",
          "name": "tier",
          "type": "uint8"
        },
        {
          "indexed": false,
          "internalType": "uint256",
          "name": "timestamp",
          "type": "uint256"
        }
      ],
      "name": "AmbassadorRefundSkipped",
      "type": "event"
    },
    {
      "anonymous": false,
      "inputs": [
        {
          "indexed": true,
          "internalType": "address",
          "name": "ambassador",
          "type": "address"
        },
        {
          "indexed": true,
          "internalType": "address",
          "name": "sponsor",
          "type": "address"
        },
        {
          "indexed": false,
          "internalType": "enum LibDiamond.Tier",
          "name": "tier",
          "type": "uint8"
        },
        {
          "indexed": false,
          "internalType": "uint256",
          "name": "entryFee",
          "type": "uint256"
        },
        {
          "indexed": false,
          "internalType": "uint256",
          "name": "timestamp",
          "type": "uint256"
        }
      ],
      "name": "AmbassadorRegistered",
      "type": "event"
    },
    {
      "anonymous": false,
      "inputs": [
        {
          "indexed": true,
          "internalType": "address",
          "name": "ambassador",
          "type": "address"
        },
        {
          "indexed": true,
          "internalType": "address",
          "name": "sponsor",
          "type": "address"
        },
        {
          "indexed": false,
          "internalType": "string",
          "name": "position",
          "type": "string"
        },
        {
          "indexed": false,
          "internalType": "uint8",
          "name": "depth",
          "type": "uint8"
        }
      ],
      "name": "TreePositionAssigned",
      "type": "event"
    },
    {
      "inputs": [],
      "name": "deregisterFoundingAmbassador",
      "outputs": [],
      "stateMutability": "nonpayable",
      "type": "function"
    },
    {
      "inputs": [],
      "name": "deregisterGeneralAmbassador",
      "outputs": [],
      "stateMutability": "nonpayable",
      "type": "function"
    },
    {
      "inputs": [
        {
          "internalType": "address",
          "name": "_ambassador",
          "type": "address"
        }
      ],
      "name": "getAmbassadorDetails",
      "outputs": [
        {
          "internalType": "bytes32",
          "name": "did",
          "type": "bytes32"
        },
        {
          "internalType": "enum LibDiamond.Tier",
          "name": "tier",
          "type": "uint8"
        },
        {
          "internalType": "uint8",
          "name": "level",
          "type": "uint8"
        },
        {
          "internalType": "address",
          "name": "sponsor",
          "type": "address"
        },
        {
          "internalType": "address",
          "name": "leftLeg",
          "type": "address"
        },
        {
          "internalType": "address",
          "name": "rightLeg",
          "type": "address"
        },
        {
          "internalType": "uint256",
          "name": "totalDownlineSales",
          "type": "uint256"
        },
        {
          "internalType": "uint256",
          "name": "lifetimeCommissions",
          "type": "uint256"
        },
        {
          "internalType": "bool",
          "name": "isActive",
          "type": "bool"
        }
      ],
      "stateMutability": "view",
      "type": "function"
    },
    {
      "inputs": [
        {
          "internalType": "address",
          "name": "_ambassador",
          "type": "address"
        },
        {
          "internalType": "uint8",
          "name": "_maxDepth",
          "type": "uint8"
        }
      ],
      "name": "getAmbassadorTree",
      "outputs": [
        {
          "internalType": "address[]",
          "name": "addresses",
          "type": "address[]"
        },
        {
          "internalType": "uint8[]",
          "name": "levels",
          "type": "uint8[]"
        },
        {
          "internalType": "bool[]",
          "name": "isActiveList",
          "type": "bool[]"
        },
        {
          "internalType": "uint8[]",
          "name": "depths",
          "type": "uint8[]"
        }
      ],
      "stateMutability": "view",
      "type": "function"
    },
    {
      "inputs": [
        {
          "internalType": "address",
          "name": "_ambassador",
          "type": "address"
        }
      ],
      "name": "getDirectDownline",
      "outputs": [
        {
          "internalType": "address",
          "name": "left",
          "type": "address"
        },
        {
          "internalType": "address",
          "name": "right",
          "type": "address"
        }
      ],
      "stateMutability": "view",
      "type": "function"
    },
    {
      "inputs": [
        {
          "internalType": "address",
          "name": "_ambassador",
          "type": "address"
        },
        {
          "internalType": "uint8",
          "name": "_maxDepth",
          "type": "uint8"
        }
      ],
      "name": "getDownlineCount",
      "outputs": [
        {
          "internalType": "uint256",
          "name": "",
          "type": "uint256"
        }
      ],
      "stateMutability": "view",
      "type": "function"
    },
    {
      "inputs": [],
      "name": "getRootAmbassadors",
      "outputs": [
        {
          "internalType": "address[]",
          "name": "",
          "type": "address[]"
        }
      ],
      "stateMutability": "view",
      "type": "function"
    },
    {
      "inputs": [
        {
          "internalType": "address",
          "name": "_ambassador",
          "type": "address"
        },
        {
          "internalType": "uint8",
          "name": "_levels",
          "type": "uint8"
        }
      ],
      "name": "getUplineChain",
      "outputs": [
        {
          "internalType": "address[]",
          "name": "",
          "type": "address[]"
        }
      ],
      "stateMutability": "view",
      "type": "function"
    },
    {
      "inputs": [
        {
          "internalType": "address",
          "name": "_sponsor",
          "type": "address"
        },
        {
          "internalType": "bytes32",
          "name": "_DID",
          "type": "bytes32"
        }
      ],
      "name": "registerFoundingAmbassador",
      "outputs": [],
      "stateMutability": "payable",
      "type": "function"
    },
    {
      "inputs": [
        {
          "internalType": "address",
          "name": "_sponsor",
          "type": "address"
        },
        {
          "internalType": "bytes32",
          "name": "_DID",
          "type": "bytes32"
        },
        {
          "internalType": "uint256",
          "name": "_courseId",
          "type": "uint256"
        }
      ],
      "name": "registerGeneralAmbassador",
      "outputs": [],
      "stateMutability": "nonpayable",
      "type": "function"
    },
    {
      "inputs": [
        {
          "internalType": "address",
          "name": "_ambassador",
          "type": "address"
        }
      ],
      "name": "updateAmbassadorLevel",
      "outputs": [],
      "stateMutability": "nonpayable",
      "type": "function"
    }
  ],
  "bytecode": "0x6080806040523461001b57600160005561269990816100218239f35b600080fdfe6040608081526004908136101561001557600080fd5b600090813560e01c80630aaaed9a1461186c57806318de15691461162657806323ed9b1e146115565780632a917d3414611446578063338665bc1461109157806373ee54df1461103b5780637dddd68c146109375780637e15495c146108655780638f7b02cb1461070e57806391708b96146106355763f57eb1d51461009a57600080fd5b346106315781600319360112610631576100b2611d0d565b6100d160ff6000805160206125a48339815191525460a01c161561194d565b3382526000805160206126448339815191529060209082825280842060018060a01b0393610103338684541614611c21565b60028201549160ff8316956003938488101561061e5760018098036105e35781858401541615806105d6575b610138906122a5565b6101466010840154156122a5565b610159610152336119b2565b54156122a5565b600883015461059357600b8301546105545781889160081c1692015491855188815242888201527f5312a9141d1983f02df49772d2f68dacea422cea8696ebc8f233aa47752cf39d873392a2806103d0575b50600080516020612624833981519152549087895b838110610343575b5050505080610319575b50600080516020612604833981519152805490816102f2575b50506014869392848981947f22041db5bdf1c11baa3283f92ca91f4c2baf888bdb2c03d689e0a7f47f885f9d83526000805160206125e48339815191528952868320338452895286832060ff19815416905588528186812093818555818b86015581600286015584015582015582600582015582600682015582600782015582600882015582600982015582600a82015582600b82015582600c82015582600d82015582600e82015582600f8201558260108201558260118201558260128201558260138201550155818151938585528401528201524260608201527ff4a99105dfab55272441db4f399f260db42b9d9287fc9584c083613248a3448860803392a2815580f35b6000198201918211610306575581866101eb565b634e487b7160e01b885260118952602488fd5b86526000805160206125c4833981519152845282862080546001600160a01b0319169055386101d2565b8261034d82611a6a565b905490891b1c163314610362570188906101c0565b926000198101915081116103bd576103ac929161038161038e92611a6a565b905490881b1c1691611a6a565b90919060018060a01b038084549260031b9316831b921b1916179055565b6103b4612533565b388087816101c8565b634e487b7160e01b8a5260118b5260248afd5b808952838752858920908582013384825416146000146104f5576001600160601b0360a01b81541690558960108301928354806104c4575b5061042393505b60026010820154106104ad575b50506119b2565b805490888a5b838110610439575b5050506101ab565b846104448285611ac3565b9054908a1b1c16331461045957018990610429565b919260001981019150811161049a57829161038e8561047e61048c9461049197611ac3565b9054908b1b1c169184611ac3565b612589565b38808881610431565b634e487b7160e01b8b5260118c5260248bfd5b60128101805460ff1916905560110155893861041c565b9150919260001982019182116104e2575561042391908a9038610408565b634e487b7160e01b8c5260118d5260248cfd5b50898b830180543386821614610511575b50506104239261040f565b6001600160a01b03191690555060108201805490928b9180610536575b819450610506565b9150919260001982019182116104e2575561042391908a903861052e565b855162461bcd60e51b8152808b01889052601960248201527810db185a5b481d995cdd1959081d1bdad95b9cc8199a5c9cdd603a1b6044820152606490fd5b855162461bcd60e51b8152808b01889052601a60248201527f576974686472617720636f6d6d697373696f6e732066697273740000000000006044820152606490fd5b50828a015482161561012f565b855162461bcd60e51b8152808b0188905260156024820152742bb937b7339030b6b130b9b9b0b237b9103a34b2b960591b6044820152606490fd5b634e487b7160e01b895260218a52602489fd5b5080fd5b5082903461070a57602036600319011261070a5761065161188e565b9060018060a01b039182811693848652600080516020612644833981519152602052610684838720948554161515611c21565b83019283549261069a60ff8560a81c1693612329565b60ff8116928484116106aa578880f35b7ff1ac699d4c84ad8cae69aa1731a80469c340a5448151903f4c9bbbf77462821f9660809660059360ff60a81b9060a81b169060ff60a81b191617905501549181519384526020840152820152426060820152a281808080808080808880f35b8280fd5b509034610862578060031936011261086257600080516020612624833981519152549181805b8481106107ec575061074590611bc3565b9180805b85811061076957835160208082528190610765908201886118d9565b0390f35b61077281611a6a565b9060018060a01b03918291549060031b1c16908184526000805160206126448339815191526020528584209080600283015460081c161591826107df575b50506107c0575b50600101610749565b836107d8916107d26001949689611c0d565b52611b48565b92906107b7565b54161515905088806107b0565b6107f581611a6a565b90546001600160a01b0360039290921b1c81168552600080516020612644833981519152602052838520600281015460081c821615919082610855575b5050610841575b600101610734565b9061084d600191611b48565b919050610839565b5416151590508680610832565b80fd5b5091903461086257610876366118a9565b92909360ff8094169461088886611bc3565b9160018060a01b0380921685526000805160206126448339815191526020918160205260029160028289200154938560089560081c1689905b8b82168d81108061092c575b15610917576108dd89918b611c0d565b91168091528a528282528a8786868d200154881c1691168b811461090457600101906108c1565b634e487b7160e01b8b5260118a5260248bfd5b8551602080825281906107659082018d6118d9565b5088821615156108cd565b5082903461070a578260031936011261070a57610952611d0d565b61097160ff6000805160206125a48339815191525460a01c161561194d565b338352600080516020612644833981519152906020928284528185209260018060a01b03916109a4338487541614611c21565b60028501546003929060ff81168481101561102857600203610fed578484880154161580610fe0575b6109d6906122a5565b6109e46010880154156122a5565b6109f0610152336119b2565b6008870154610f9d57600b870154610f5e57849060081c169360018088015491610a22601460138b01549a01546124f3565b98898102908082048b1490151715610caa5761271090049687610e3b575b80610cbd575b50600080516020612624833981519152548b969594939291875b828110610c37575b5050505080610c0d575b507fe73faffa5bcab50ff8b24161d8feb15dcb77896c58c1b1c0777efe3ca6ebb18580549081610bef575b505060008051602061260483398151915280549081610bbe575b50506014929184917ffd35f3c093a59318b24367de4379d92545af5b79f51dadb27b80066791aee0b583526000805160206125e48339815191528a528783203384528a5287832060ff1981541690558952818781209381855581600186015581600286015584015582015582600582015582600682015582600782015582600882015582600982015582600a82015582600b82015582600c82015582600d82015582600e82015582600f8201558260108201558260118201558260128201558260138201550155815193600285528401528201524260608201527ff4a99105dfab55272441db4f399f260db42b9d9287fc9584c083613248a3448860803392a26001815580f35b9091929394506000198201918211610bdc5755879291908184610ab7565b634e487b7160e01b8a526011845260248afd5b9091929394506000198201918211610bdc5755879291908980610a9d565b84526000805160206125c4833981519152885285842080546001600160a01b031916905589610a72565b90809293949596979850610c4a82611a6a565b9054908a1b1c163314610c67578301908c97969594939291610a60565b9250906000198101908111610caa579161038e610c9992610c8c8e9998979695611a6a565b905490891b1c1691611a6a565b610ca1612533565b8a808080610a68565b634e487b7160e01b8c526011865260248cfd5b808c52848b52888c2090878201338482541614600014610ddc576001600160601b0360a01b81541690558c6010830192835480610dab575b50610d0f93505b6002601082015410610d945750506119b2565b805490838d5b838110610d25575b505050610a46565b84610d308285611ac3565b9054908c1b1c163314610d4557018490610d15565b9192600019810191508111610d8157829161038e85610d6a61048c94610d7897611ac3565b9054908d1b1c169184611ac3565b8b808381610d1d565b634e487b7160e01b8e526011885260248efd5b60128101805460ff19169055601101558c8e61041c565b915091926000198201918211610dc95755610d0f91908d908f610cf5565b634e487b7160e01b8f526011895260248ffd5b508c87830180543386821614610df8575b5050610d0f92610cfc565b6001600160a01b03191690555060108201805490928e9180610e1d575b819450610ded565b915091926000198201918211610dc95755610d0f91908d908f610e15565b8b8b837fe73faffa5bcab50ff8b24161d8feb15dcb77896c58c1b1c0777efe3ca6ebb19554168a898d877fe73faffa5bcab50ff8b24161d8feb15dcb77896c58c1b1c0777efe3ca6ebb196541690308214600014610f0c579050604492915051948593849263a9059cbb60e01b84528d339085015260248401525af1908d8215610f015790610ecf92610ed4575b506122e4565b610a40565b610ef491508d803d10610efa575b610eec8183611b89565b810190611bf5565b8e610ec9565b503d610ee2565b8b51903d90823e3d90fd5b516323b872dd60e01b81526001600160a01b0390911691810191825233602083015260408201929092529093849291839190829060600103925af1908d8215610f015790610ecf92610ed457506122e4565b855162461bcd60e51b8152808401899052601960248201527810db185a5b481d995cdd1959081d1bdad95b9cc8199a5c9cdd603a1b6044820152606490fd5b855162461bcd60e51b8152808401899052601a60248201527f576974686472617720636f6d6d697373696f6e732066697273740000000000006044820152606490fd5b50868301548516156109cd565b855162461bcd60e51b815280840189905260156024820152742bb937b7339030b6b130b9b9b0b237b9103a34b2b960591b6044820152606490fd5b634e487b7160e01b8a526021845260248afd5b50919034610862576020366003190112610862576001600160a01b039083908261106361188e565b1681526000805160206126448339815191526020522091816003840154169201541682519182526020820152f35b509182600319360112610631576110a661188e565b602435936110b2611d0d565b6110d160ff6000805160206125a48339815191525460a01c161561194d565b7fe73faffa5bcab50ff8b24161d8feb15dcb77896c58c1b1c0777efe3ca6ebb1859485547fe73faffa5bcab50ff8b24161d8feb15dcb77896c58c1b1c0777efe3ca6ebb186541115611403576001600160a01b039361113b856111333361198b565b5416156119eb565b847fe73faffa5bcab50ff8b24161d8feb15dcb77896c58c1b1c0777efe3ca6ebb1955416966305f5e10092836111718a336121d5565b106113c0578798877fe73faffa5bcab50ff8b24161d8feb15dcb77896c58c1b1c0777efe3ca6ebb1965416908651916323b872dd60e01b8352338684015260248301528560448301528160648160209c8d945af19081156113b6578a91611399575b501561135e57600080516020612604833981519152918254611343575b6111f93361198b565b80546001600160a01b03199081163317825560018201849055600280830180546001600160a81b03191660088c901b610100600160a81b031617909117905560ff19959094916012918101805460ff60a81b1916600160a91b179055601381018890554260148201556301e13380600f8201550180548616905561127d8833611d30565b61128633611adb565b6112908154611b48565b905561129c8154611b48565b905588526000805160206125c483398151915287528388209033908254161790557ffd35f3c093a59318b24367de4379d92545af5b79f51dadb27b80066791aee0b587526000805160206125e48339815191528652828720338852865260018388209182541617905581519460028652850152429084015216907f7111e04ab50e819454aed87efff007c13bed5584eed12c613244b5e7cab086c160603392a36001815580f35b611359886113508961198b565b54161515611a2c565b6111f0565b845162461bcd60e51b815280840189905260156024820152741554d110c8195b9d1c9e481999594819985a5b1959605a1b6044820152606490fd5b6113b09150893d8b11610efa57610eec8183611b89565b386111d3565b86513d8c823e3d90fd5b845162461bcd60e51b8152602081850152601960248201527f496e73756666696369656e7420555344432062616c616e6365000000000000006044820152606490fd5b815162461bcd60e51b8152602081860181905260248201527f466f756e64696e6720616d6261737361646f7220736c6f74732066696c6c65646044820152606490fd5b50903461086257611456366118a9565b909261146460ff8316611b6d565b9160ff831161154357600180931b94600019860195861161153057926114b89285926114c08489976114986114d79b611bc3565b9889946114a482611bc3565b9586916114b084611bc3565b9b8c94611bc3565b9a8b95612096565b506114e782519889976080895260808901906118d9565b60209288820360208a0152611916565b9186830390870152602080865193848152019501965b82811061151857868061076588888382036060850152611916565b875115158652968101968896509481019483016114fd565b634e487b7160e01b855260118752602485fd5b634e487b7160e01b845260118652602484fd5b509034610862576020366003190112610862576001600160a01b03918261157b61188e565b16825260008051602061264483398151915260205280822090600182015493600283015460ff8116928785015491836003870154169160058701549560ff601260078a0154990154169882519a8b526003821015611613575060208a015260a884901c60ff169089015260081c8316606088015260808701521660a085015260c084015260e083015215156101008201526101209150f35b634e487b7160e01b815260218c52602490fd5b5082903461070a57606036600319011261070a5761164261188e565b6024359161164e611d0d565b61166d60ff6000805160206125a48339815191525460a01c161561194d565b6001600160a01b0392611683846111333361198b565b3386526020947fe73faffa5bcab50ff8b24161d8feb15dcb77896c58c1b1c0777efe3ca6ebb1938652828720604435885286526302faf08091828489205410611829576116d3866113508761198b565b6116dc3361198b565b80546001600160a01b03199081163317825560018083018490556002830180546001600160a81b03191660088a901b610100600160a81b031617909117905560ff19939092916012918101805460ff60a81b1916600160a81b179055601381018690554260148201556301e13380600f820155018054841690556117608633611d30565b61176933611adb565b6000805160206126048339815191526117828154611b48565b905588526000805160206125c483398151915287528388209033908254161790557f22041db5bdf1c11baa3283f92ca91f4c2baf888bdb2c03d689e0a7f47f885f9d87526000805160206125e48339815191528652828720338852865260018388209182541617905581519460018652850152429084015216907f7111e04ab50e819454aed87efff007c13bed5584eed12c613244b5e7cab086c160603392a36001815580f35b835162461bcd60e51b8152808301889052601960248201527f4d757374207075726368617365202435302b20636f75727365000000000000006044820152606490fd5b503461063157611887602092611881366118a9565b90611c70565b9051908152f35b600435906001600160a01b03821682036118a457565b600080fd5b60409060031901126118a4576004356001600160a01b03811681036118a4579060243560ff811681036118a45790565b90815180825260208080930193019160005b8281106118f9575050505090565b83516001600160a01b0316855293810193928101926001016118eb565b90815180825260208080930193019160005b828110611936575050505090565b835160ff1685529381019392810192600101611928565b1561195457565b60405162461bcd60e51b815260206004820152600f60248201526e10dbdb9d1c9858dd081c185d5cd959608a1b6044820152606490fd5b6001600160a01b031660009081526000805160206126448339815191526020526040902090565b6001600160a01b031660009081527fe73faffa5bcab50ff8b24161d8feb15dcb77896c58c1b1c0777efe3ca6ebb1906020526040902090565b156119f257565b60405162461bcd60e51b8152602060048201526012602482015271105b1c9958591e481c9959da5cdd195c995960721b6044820152606490fd5b15611a3357565b60405162461bcd60e51b815260206004820152600f60248201526e24b73b30b634b21039b837b739b7b960891b6044820152606490fd5b6000805160206126248339815191528054821015611aad576000527feb8dbe25873d686c322f12aba328bdddbdad39f67b4905a5f07c24d5b94249440190600090565b634e487b7160e01b600052603260045260246000fd5b8054821015611aad5760005260206000200190600090565b60008051602061262483398151915290815491600160401b831015611b0f578261038e916001611b0d95019055611a6a565b565b634e487b7160e01b600052604160045260246000fd5b90815491600160401b831015611b0f578261038e916001611b0d95018155611ac3565b6000198114611b575760010190565b634e487b7160e01b600052601160045260246000fd5b9060018201809211611b5757565b6001019081600111611b5757565b90601f8019910116810190811067ffffffffffffffff821117611b0f57604052565b67ffffffffffffffff8111611b0f5760051b60200190565b90611bcd82611bab565b611bda6040519182611b89565b8281528092611beb601f1991611bab565b0190602036910137565b908160209103126118a4575180151581036118a45790565b8051821015611aad5760209160051b010190565b15611c2857565b60405162461bcd60e51b815260206004820152600e60248201526d139bdd081c9959da5cdd195c995960921b6044820152606490fd5b60ff60019116019060ff8211611b5757565b91909160ff831660ff83161015611d0557611c8a9061198b565b6003810154600093916001600160a01b0391821680611ce3575b5060040154169081611cb7575b50505090565b611cc3611cc993611c5e565b91611c70565b611cd290611b7b565b8101809111611b5757388080611cb1565b611cf391955083611cc386611c5e565b611cfe600491611b7b565b9490611ca4565b505050600090565b600260005414611d1e576002600055565b604051633ee5aeb560e01b8152600490fd5b6001600160a01b0382811690811561201d57611d4b8461198b565b611d548461198b565b600382018054919291611d77906001600160a01b03165b6001600160a01b031690565b611e5557611e48611e13611e509694611e096004611dea611de582611b0d9e9b99611dda8f7f69d86226dfb8b71ae28cdd4a3ef7762642e00fc56317b56ba667f7620b1b064f9b9060018060a01b03166001600160601b0360a01b825416179055565b015460a01c60ff1690565b611c5e565b9201805460ff60a01b191660a09390931b60ff60a01b16929092178255565b5460a01c60ff1690565b92604051918291891694829190916040815260046040820152631311519560e21b6060820152602060ff608083019416910152565b0390a36119b2565b611b25565b60048201805491929091611e71906001600160a01b0316611d6b565b611ff957611f2c8694611e5097611b0d9a979585611e4895611ecb8d7f69d86226dfb8b71ae28cdd4a3ef7762642e00fc56317b56ba667f7620b1b064f999060018060a01b03166001600160601b0360a01b825416179055565b611f016004611ee2611de5855460ff9060a01c1690565b9601805460ff60a01b191660a09790971b60ff60a01b16969096178655565b60128101611f17611f13825460ff1690565b1590565b611f62575b50505050505460ff9060a01c1690565b9260405191829189169482919091604081526005604082015264149251d21560da1b6060820152602060ff608083019416910152565b7f34b4f72f6a06985af218e7f34e4699e6bea0895b5bdfede98cba5c9d96aa05b393611fae6010611fc994611fa1611fbb95600160ff19825416179055565b4260118201550160029055565b546001600160a01b031690565b91546001600160a01b031690565b604080516001600160a01b0393841681529190921660208201524291810191909152606090a28538808080611f1c565b50505050505061201161200b836123d3565b82611d30565b611e50611b0d926119b2565b600093507f69d86226dfb8b71ae28cdd4a3ef7762642e00fc56317b56ba667f7620b1b064f915061206060046120528561198b565b01805460ff60a01b19169055565b6040519216918061209181906040825260046040830152631493d3d560e21b60608301526000602060808401930152565b0390a3565b9096909594939291906001600160a01b03908188161580156121c6575b6121ba576120c08861198b565b976120cb8286611c0d565b6001600160a01b0390911690526004880154908160a81c60ff166120ef8288611c0d565b60ff918216905260128a0154166121068289611c0d565b901515905289612116828a611c0d565b60ff909116905261212690611b6d565b6003909801546001600160a01b0316898382161515806121ab575b61218f575b50501680151580612180575b612162575b505050505050905090565b61216e61217498611c5e565b90612096565b80388080808080612157565b5060ff821660ff891610612152565b878787876121a3969d9561216e8e96611c5e565b963889612146565b5060ff851660ff821610612141565b97505050505050505090565b5060ff831660ff8a16116120b3565b6040516370a0823160e01b60208083019182526001600160a01b0393841660248085019190915283529093909267ffffffffffffffff9290916060820184811183821017611b0f57604052600095869384935192165afa3d1561229c573d9182116122885760405191612251601f8201601f1916850184611b89565b82523d848484013e5b8061227d575b61226957505090565b909182828051810103126108625750015190565b508181511015612260565b634e487b7160e01b84526041600452602484fd5b6060915061225a565b156122ac57565b60405162461bcd60e51b815260206004820152601060248201526f486173207375626f7264696e6174657360801b6044820152606490fd5b156122eb57565b60405162461bcd60e51b81526020600482015260166024820152751499599d5b99081d1c985b9cd9995c8819985a5b195960521b6044820152606490fd5b60009060018060a01b03168152600080516020612644833981519152602052600560408220015490600581527fe73faffa5bcab50ff8b24161d8feb15dcb77896c58c1b1c0777efe3ca6ebb18960205260408120548210156123cc576004815260408120548210156123c5576003815260408120548210156123be5780600260409252205411156123b957600190565b600290565b5050600390565b5050600490565b5050600590565b6040805190617d20820182811067ffffffffffffffff821117611b0f576040526103e88083526020916020840191617d003684376000916001948651156124df576001600160a01b038881169095525b858410612434575050505050505090565b61244a85612442868a611c0d565b511694611b48565b93806000526000805160206126448339815191528252826000208660038201541691821580156124d1575b6124c3575090869185891061248d575b505050612423565b6004916124a361249c8b611b48565b9a8c611c0d565b520154166124ba6124b388611b48565b9789611c0d565b52843880612485565b995050505050505050505090565b508760048301541615612475565b634e487b7160e01b84526032600452602484fd5b4203428111611b57576203f480811061252c57620d2f0081106125255762278d001161251f576101f490565b6105dc90565b5061138890565b50611f4090565b6000805160206126248339815191528054801561257357600019019061257061255b83611a6a565b81549060018060a01b039060031b1b19169055565b55565b634e487b7160e01b600052603160045260246000fd5b8054801561257357600019019061257061255b8383611ac356fee73faffa5bcab50ff8b24161d8feb15dcb77896c58c1b1c0777efe3ca6ebb197e73faffa5bcab50ff8b24161d8feb15dcb77896c58c1b1c0777efe3ca6ebb192c8fcad8db84d3cc18b4c41d551ea0ee66dd599cde068d998e57d5e09332c1328e73faffa5bcab50ff8b24161d8feb15dcb77896c58c1b1c0777efe3ca6ebb184e73faffa5bcab50ff8b24161d8feb15dcb77896c58c1b1c0777efe3ca6ebb183e73faffa5bcab50ff8b24161d8feb15dcb77896c58c1b1c0777efe3ca6ebb17da26469706673582212200013ea90b6d0af39a97f2d72c45558e26691a5b1c058677a28813ef427de74b664736f6c63430008180033",
  "linkReferences": {},
  "deployedLinkReferences": {}
}