{
  "_format": "hh-sol-artifact-1",
  "contractName": "AmbassadorNetworkFacet",
  "sourceName": "contracts/AmbassadorNetworkFacet.sol",
  "abi": [
    {
      "inputs": [],
      "name": "ReentrancyGuardReentrantCall",
      "type": "error"
    },
    {
      "anonymous": false,
      "inputs": [
        {
          "indexed": true,
          "internalType": "address",
          "name": "ambassador",
          "type": "address"
        },
        {
          "indexed": false,
          "internalType": "address",
          "name": "leftLeg",
          "type": "address"
        },
        {
          "indexed": false,
          "internalType": "address",
          "name": "rightLeg",
          "type": "address"
        },
        {
          "indexed": false,
          "internalType": "uint256",
          "name": "timestamp",
          "type": "uint256"
        }
      ],
      "name": "AmbassadorActivated",
      "type": "event"
    },
    {
      "anonymous": false,
      "inputs": [
        {
          "indexed": true,
          "internalType": "address",
          "name": "ambassador",
          "type": "address"
        },
        {
          "indexed": false,
          "internalType": "enum LibDiamond.Tier",
          "name": "tier",
          "type": "uint8"
        },
        {
          "indexed": false,
          "internalType": "uint256",
          "name": "refundAmount",
          "type": "uint256"
        },
        {
          "indexed": false,
          "internalType": "uint256",
          "name": "refundBps",
          "type": "uint256"
        },
        {
          "indexed": false,
          "internalType": "uint256",
          "name": "timestamp",
          "type": "uint256"
        }
      ],
      "name": "AmbassadorDeregistered",
      "type": "event"
    },
    {
      "anonymous": false,
      "inputs": [
        {
          "indexed": true,
          "internalType": "address",
          "name": "ambassador",
          "type": "address"
        },
        {
          "indexed": false,
          "internalType": "uint8",
          "name": "oldLevel",
          "type": "uint8"
        },
        {
          "indexed": false,
          "internalType": "uint8",
          "name": "newLevel",
          "type": "uint8"
        },
        {
          "indexed": false,
          "internalType": "uint256",
          "name": "totalDownlineSales",
          "type": "uint256"
        },
        {
          "indexed": false,
          "internalType": "uint256",
          "name": "timestamp",
          "type": "uint256"
        }
      ],
      "name": "AmbassadorLevelUp",
      "type": "event"
    },
    {
      "anonymous": false,
      "inputs": [
        {
          "indexed": true,
          "internalType": "address",
          "name": "ambassador",
          "type": "address"
        },
        {
          "indexed": false,
          "internalType": "enum LibDiamond.Tier",
          "name": "tier",
          "type": "uint8"
        },
        {
          "indexed": false,
          "internalType": "uint256",
          "name": "timestamp",
          "type": "uint256"
        }
      ],
      "name": "AmbassadorRefundSkipped",
      "type": "event"
    },
    {
      "anonymous": false,
      "inputs": [
        {
          "indexed": true,
          "internalType": "address",
          "name": "ambassador",
          "type": "address"
        },
        {
          "indexed": true,
          "internalType": "address",
          "name": "sponsor",
          "type": "address"
        },
        {
          "indexed": false,
          "internalType": "enum LibDiamond.Tier",
          "name": "tier",
          "type": "uint8"
        },
        {
          "indexed": false,
          "internalType": "uint256",
          "name": "entryFee",
          "type": "uint256"
        },
        {
          "indexed": false,
          "internalType": "uint256",
          "name": "timestamp",
          "type": "uint256"
        }
      ],
      "name": "AmbassadorRegistered",
      "type": "event"
    },
    {
      "anonymous": false,
      "inputs": [
        {
          "indexed": true,
          "internalType": "address",
          "name": "ambassador",
          "type": "address"
        },
        {
          "indexed": true,
          "internalType": "address",
          "name": "sponsor",
          "type": "address"
        },
        {
          "indexed": false,
          "internalType": "string",
          "name": "position",
          "type": "string"
        },
        {
          "indexed": false,
          "internalType": "uint8",
          "name": "depth",
          "type": "uint8"
        }
      ],
      "name": "TreePositionAssigned",
      "type": "event"
    },
    {
      "inputs": [],
      "name": "deregisterFoundingAmbassador",
      "outputs": [],
      "stateMutability": "nonpayable",
      "type": "function"
    },
    {
      "inputs": [],
      "name": "deregisterGeneralAmbassador",
      "outputs": [],
      "stateMutability": "nonpayable",
      "type": "function"
    },
    {
      "inputs": [],
      "name": "getAllAmbassadors",
      "outputs": [
        {
          "internalType": "address[]",
          "name": "",
          "type": "address[]"
        }
      ],
      "stateMutability": "view",
      "type": "function"
    },
    {
      "inputs": [
        {
          "internalType": "address",
          "name": "_ambassador",
          "type": "address"
        }
      ],
      "name": "getAmbassadorDetails",
      "outputs": [
        {
          "internalType": "bytes32",
          "name": "did",
          "type": "bytes32"
        },
        {
          "internalType": "enum LibDiamond.Tier",
          "name": "tier",
          "type": "uint8"
        },
        {
          "internalType": "uint8",
          "name": "level",
          "type": "uint8"
        },
        {
          "internalType": "address",
          "name": "sponsor",
          "type": "address"
        },
        {
          "internalType": "address",
          "name": "leftLeg",
          "type": "address"
        },
        {
          "internalType": "address",
          "name": "rightLeg",
          "type": "address"
        },
        {
          "internalType": "uint256",
          "name": "totalDownlineSales",
          "type": "uint256"
        },
        {
          "internalType": "uint256",
          "name": "lifetimeCommissions",
          "type": "uint256"
        },
        {
          "internalType": "bool",
          "name": "isActive",
          "type": "bool"
        }
      ],
      "stateMutability": "view",
      "type": "function"
    },
    {
      "inputs": [
        {
          "internalType": "address",
          "name": "_ambassador",
          "type": "address"
        },
        {
          "internalType": "uint8",
          "name": "_maxDepth",
          "type": "uint8"
        }
      ],
      "name": "getAmbassadorTree",
      "outputs": [
        {
          "internalType": "address[]",
          "name": "addresses",
          "type": "address[]"
        },
        {
          "internalType": "uint8[]",
          "name": "levels",
          "type": "uint8[]"
        },
        {
          "internalType": "bool[]",
          "name": "isActiveList",
          "type": "bool[]"
        },
        {
          "internalType": "uint8[]",
          "name": "depths",
          "type": "uint8[]"
        }
      ],
      "stateMutability": "view",
      "type": "function"
    },
    {
      "inputs": [
        {
          "internalType": "address",
          "name": "_ambassador",
          "type": "address"
        }
      ],
      "name": "getDirectDownline",
      "outputs": [
        {
          "internalType": "address",
          "name": "left",
          "type": "address"
        },
        {
          "internalType": "address",
          "name": "right",
          "type": "address"
        }
      ],
      "stateMutability": "view",
      "type": "function"
    },
    {
      "inputs": [
        {
          "internalType": "address",
          "name": "_ambassador",
          "type": "address"
        },
        {
          "internalType": "uint8",
          "name": "_maxDepth",
          "type": "uint8"
        }
      ],
      "name": "getDownlineCount",
      "outputs": [
        {
          "internalType": "uint256",
          "name": "",
          "type": "uint256"
        }
      ],
      "stateMutability": "view",
      "type": "function"
    },
    {
      "inputs": [],
      "name": "getRootAmbassadors",
      "outputs": [
        {
          "internalType": "address[]",
          "name": "",
          "type": "address[]"
        }
      ],
      "stateMutability": "view",
      "type": "function"
    },
    {
      "inputs": [
        {
          "internalType": "address",
          "name": "_ambassador",
          "type": "address"
        },
        {
          "internalType": "uint8",
          "name": "_levels",
          "type": "uint8"
        }
      ],
      "name": "getUplineChain",
      "outputs": [
        {
          "internalType": "address[]",
          "name": "",
          "type": "address[]"
        }
      ],
      "stateMutability": "view",
      "type": "function"
    },
    {
      "inputs": [
        {
          "internalType": "address",
          "name": "_sponsor",
          "type": "address"
        },
        {
          "internalType": "bytes32",
          "name": "_DID",
          "type": "bytes32"
        }
      ],
      "name": "registerFoundingAmbassador",
      "outputs": [],
      "stateMutability": "payable",
      "type": "function"
    },
    {
      "inputs": [
        {
          "internalType": "address",
          "name": "_sponsor",
          "type": "address"
        },
        {
          "internalType": "bytes32",
          "name": "_DID",
          "type": "bytes32"
        },
        {
          "internalType": "uint256",
          "name": "_courseId",
          "type": "uint256"
        }
      ],
      "name": "registerGeneralAmbassador",
      "outputs": [],
      "stateMutability": "nonpayable",
      "type": "function"
    },
    {
      "inputs": [
        {
          "internalType": "address",
          "name": "_ambassador",
          "type": "address"
        }
      ],
      "name": "updateAmbassadorLevel",
      "outputs": [],
      "stateMutability": "nonpayable",
      "type": "function"
    }
  ],
  "bytecode": "0x6080806040523461001b57600160005561274590816100218239f35b600080fdfe6040608081526004908136101561001557600080fd5b600090813560e01c80630aaaed9a1461191857806318de1569146116d257806323ed9b1e146116025780632a917d34146114f2578063338665bc1461113d57806341c4754c1461109c57806373ee54df146110465780637dddd68c146109425780637e15495c146108705780638f7b02cb1461071957806391708b96146106405763f57eb1d5146100a557600080fd5b3461063c578160031936011261063c576100bd611db9565b6100dc60ff6000805160206126508339815191525460a01c16156119f9565b3382526000805160206126f08339815191529060209082825280842060018060a01b039361010e338684541614611ccd565b60028201549160ff831695600393848810156106295760018098036105ee5781858401541615806105e1575b61014390612351565b610151601084015415612351565b61016461015d33611a5e565b5415612351565b600883015461059e57600b83015461055f5781889160081c1692015491855188815242888201527f5312a9141d1983f02df49772d2f68dacea422cea8696ebc8f233aa47752cf39d873392a2806103db575b506000805160206126d0833981519152549087895b83811061034e575b5050505080610324575b506000805160206126b0833981519152805490816102fd575b50506014869392848981947f22041db5bdf1c11baa3283f92ca91f4c2baf888bdb2c03d689e0a7f47f885f9d83526000805160206126908339815191528952868320338452895286832060ff19815416905588528186812093818555818b86015581600286015584015582015582600582015582600682015582600782015582600882015582600982015582600a82015582600b82015582600c82015582600d82015582600e82015582600f8201558260108201558260118201558260128201558260138201550155818151938585528401528201524260608201527ff4a99105dfab55272441db4f399f260db42b9d9287fc9584c083613248a3448860803392a2815580f35b6000198201918211610311575581866101f6565b634e487b7160e01b885260118952602488fd5b8652600080516020612670833981519152845282862080546001600160a01b0319169055386101dd565b8261035882611b16565b905490891b1c16331461036d570188906101cb565b926000198101915081116103c8576103b7929161038c61039992611b16565b905490881b1c1691611b16565b90919060018060a01b038084549260031b9316831b921b1916179055565b6103bf6125df565b388087816101d3565b634e487b7160e01b8a5260118b5260248afd5b80895283875285892090858201338482541614600014610500576001600160601b0360a01b81541690558960108301928354806104cf575b5061042e93505b60026010820154106104b8575b5050611a5e565b805490888a5b838110610444575b5050506101b6565b8461044f8285611b6f565b9054908a1b1c16331461046457018990610434565b91926000198101915081116104a5578291610399856104896104979461049c97611b6f565b9054908b1b1c169184611b6f565b612635565b3880888161043c565b634e487b7160e01b8b5260118c5260248bfd5b60128101805460ff19169055601101558938610427565b9150919260001982019182116104ed575561042e91908a9038610413565b634e487b7160e01b8c5260118d5260248cfd5b50898b83018054338682161461051c575b505061042e9261041a565b6001600160a01b03191690555060108201805490928b9180610541575b819450610511565b9150919260001982019182116104ed575561042e91908a9038610539565b855162461bcd60e51b8152808b01889052601960248201527810db185a5b481d995cdd1959081d1bdad95b9cc8199a5c9cdd603a1b6044820152606490fd5b855162461bcd60e51b8152808b01889052601a60248201527f576974686472617720636f6d6d697373696f6e732066697273740000000000006044820152606490fd5b50828a015482161561013a565b855162461bcd60e51b8152808b0188905260156024820152742bb937b7339030b6b130b9b9b0b237b9103a34b2b960591b6044820152606490fd5b634e487b7160e01b895260218a52602489fd5b5080fd5b508290346107155760203660031901126107155761065c61193a565b9060018060a01b0391828116938486526000805160206126f083398151915260205261068f838720948554161515611ccd565b8301928354926106a560ff8560a81c16936123d5565b60ff8116928484116106b5578880f35b7ff1ac699d4c84ad8cae69aa1731a80469c340a5448151903f4c9bbbf77462821f9660809660059360ff60a81b9060a81b169060ff60a81b191617905501549181519384526020840152820152426060820152a281808080808080808880f35b8280fd5b50903461086d578060031936011261086d576000805160206126d0833981519152549181805b8481106107f7575061075090611c6f565b9180805b8581106107745783516020808252819061077090820188611985565b0390f35b61077d81611b16565b9060018060a01b03918291549060031b1c16908184526000805160206126f08339815191526020528584209080600283015460081c161591826107ea575b50506107cb575b50600101610754565b836107e3916107dd6001949689611cb9565b52611bf4565b92906107c2565b54161515905088806107bb565b61080081611b16565b90546001600160a01b0360039290921b1c811685526000805160206126f0833981519152602052838520600281015460081c821615919082610860575b505061084c575b60010161073f565b90610858600191611bf4565b919050610844565b541615159050868061083d565b80fd5b5091903461086d5761088136611955565b92909360ff8094169461089386611c6f565b9160018060a01b0380921685526000805160206126f08339815191526020918160205260029160028289200154938560089560081c1689905b8b82168d811080610937575b15610922576108e889918b611cb9565b91168091528a528282528a8786868d200154881c1691168b811461090f57600101906108cc565b634e487b7160e01b8b5260118a5260248bfd5b8551602080825281906107709082018d611985565b5088821615156108d8565b5082903461071557826003193601126107155761095d611db9565b61097c60ff6000805160206126508339815191525460a01c16156119f9565b3383526000805160206126f0833981519152906020928284528185209260018060a01b03916109af338487541614611ccd565b60028501546003929060ff81168481101561103357600203610ff8578484880154161580610feb575b6109e190612351565b6109ef601088015415612351565b6109fb61015d33611a5e565b6008870154610fa857600b870154610f6957849060081c169360018088015491610a2d601460138b01549a015461259f565b98898102908082048b1490151715610cb55761271090049687610e46575b80610cc8575b506000805160206126d0833981519152548b969594939291875b828110610c42575b5050505080610c18575b507fe73faffa5bcab50ff8b24161d8feb15dcb77896c58c1b1c0777efe3ca6ebb18580549081610bfa575b50506000805160206126b083398151915280549081610bc9575b50506014929184917ffd35f3c093a59318b24367de4379d92545af5b79f51dadb27b80066791aee0b583526000805160206126908339815191528a528783203384528a5287832060ff1981541690558952818781209381855581600186015581600286015584015582015582600582015582600682015582600782015582600882015582600982015582600a82015582600b82015582600c82015582600d82015582600e82015582600f8201558260108201558260118201558260128201558260138201550155815193600285528401528201524260608201527ff4a99105dfab55272441db4f399f260db42b9d9287fc9584c083613248a3448860803392a26001815580f35b9091929394506000198201918211610be75755879291908184610ac2565b634e487b7160e01b8a526011845260248afd5b9091929394506000198201918211610be75755879291908980610aa8565b8452600080516020612670833981519152885285842080546001600160a01b031916905589610a7d565b90809293949596979850610c5582611b16565b9054908a1b1c163314610c72578301908c97969594939291610a6b565b9250906000198101908111610cb55791610399610ca492610c978e9998979695611b16565b905490891b1c1691611b16565b610cac6125df565b8a808080610a73565b634e487b7160e01b8c526011865260248cfd5b808c52848b52888c2090878201338482541614600014610de7576001600160601b0360a01b81541690558c6010830192835480610db6575b50610d1a93505b6002601082015410610d9f575050611a5e565b805490838d5b838110610d30575b505050610a51565b84610d3b8285611b6f565b9054908c1b1c163314610d5057018490610d20565b9192600019810191508111610d8c57829161039985610d7561049794610d8397611b6f565b9054908d1b1c169184611b6f565b8b808381610d28565b634e487b7160e01b8e526011885260248efd5b60128101805460ff19169055601101558c8e610427565b915091926000198201918211610dd45755610d1a91908d908f610d00565b634e487b7160e01b8f526011895260248ffd5b508c87830180543386821614610e03575b5050610d1a92610d07565b6001600160a01b03191690555060108201805490928e9180610e28575b819450610df8565b915091926000198201918211610dd45755610d1a91908d908f610e20565b8b8b837fe73faffa5bcab50ff8b24161d8feb15dcb77896c58c1b1c0777efe3ca6ebb19554168a898d877fe73faffa5bcab50ff8b24161d8feb15dcb77896c58c1b1c0777efe3ca6ebb196541690308214600014610f17579050604492915051948593849263a9059cbb60e01b84528d339085015260248401525af1908d8215610f0c5790610eda92610edf575b50612390565b610a4b565b610eff91508d803d10610f05575b610ef78183611c35565b810190611ca1565b8e610ed4565b503d610eed565b8b51903d90823e3d90fd5b516323b872dd60e01b81526001600160a01b0390911691810191825233602083015260408201929092529093849291839190829060600103925af1908d8215610f0c5790610eda92610edf5750612390565b855162461bcd60e51b8152808401899052601960248201527810db185a5b481d995cdd1959081d1bdad95b9cc8199a5c9cdd603a1b6044820152606490fd5b855162461bcd60e51b8152808401899052601a60248201527f576974686472617720636f6d6d697373696f6e732066697273740000000000006044820152606490fd5b50868301548516156109d8565b855162461bcd60e51b815280840189905260156024820152742bb937b7339030b6b130b9b9b0b237b9103a34b2b960591b6044820152606490fd5b634e487b7160e01b8a526021845260248afd5b5091903461086d57602036600319011261086d576001600160a01b039083908261106e61193a565b1681526000805160206126f08339815191526020522091816003840154169201541682519182526020820152f35b503461063c578160031936011261063c5780516000805160206126d083398151915280548083529084526020808301949293927feb8dbe25873d686c322f12aba328bdddbdad39f67b4905a5f07c24d5b942494492915b82821061111d57610770868661110b828b0383611c35565b51918291602083526020830190611985565b83546001600160a01b0316875295860195600193840193909101906110f3565b50918260031936011261063c5761115261193a565b6024359361115e611db9565b61117d60ff6000805160206126508339815191525460a01c16156119f9565b7fe73faffa5bcab50ff8b24161d8feb15dcb77896c58c1b1c0777efe3ca6ebb1859485547fe73faffa5bcab50ff8b24161d8feb15dcb77896c58c1b1c0777efe3ca6ebb1865411156114af576001600160a01b03936111e7856111df33611a37565b541615611a97565b847fe73faffa5bcab50ff8b24161d8feb15dcb77896c58c1b1c0777efe3ca6ebb1955416966305f5e100928361121d8a33612281565b1061146c578798877fe73faffa5bcab50ff8b24161d8feb15dcb77896c58c1b1c0777efe3ca6ebb1965416908651916323b872dd60e01b8352338684015260248301528560448301528160648160209c8d945af1908115611462578a91611445575b501561140a576000805160206126b08339815191529182546113ef575b6112a533611a37565b80546001600160a01b03199081163317825560018201849055600280830180546001600160a81b03191660088c901b610100600160a81b031617909117905560ff19959094916012918101805460ff60a81b1916600160a91b179055601381018890554260148201556301e13380600f820155018054861690556113298833611ddc565b61133233611b87565b61133c8154611bf4565b90556113488154611bf4565b9055885260008051602061267083398151915287528388209033908254161790557ffd35f3c093a59318b24367de4379d92545af5b79f51dadb27b80066791aee0b587526000805160206126908339815191528652828720338852865260018388209182541617905581519460028652850152429084015216907f7111e04ab50e819454aed87efff007c13bed5584eed12c613244b5e7cab086c160603392a36001815580f35b611405886113fc89611a37565b54161515611ad8565b61129c565b845162461bcd60e51b815280840189905260156024820152741554d110c8195b9d1c9e481999594819985a5b1959605a1b6044820152606490fd5b61145c9150893d8b11610f0557610ef78183611c35565b3861127f565b86513d8c823e3d90fd5b845162461bcd60e51b8152602081850152601960248201527f496e73756666696369656e7420555344432062616c616e6365000000000000006044820152606490fd5b815162461bcd60e51b8152602081860181905260248201527f466f756e64696e6720616d6261737361646f7220736c6f74732066696c6c65646044820152606490fd5b50903461086d5761150236611955565b909261151060ff8316611c19565b9160ff83116115ef57600180931b9460001986019586116115dc579261156492859261156c8489976115446115839b611c6f565b98899461155082611c6f565b95869161155c84611c6f565b9b8c94611c6f565b9a8b95612142565b506115938251988997608089526080890190611985565b60209288820360208a01526119c2565b9186830390870152602080865193848152019501965b8281106115c4578680610770888883820360608501526119c2565b875115158652968101968896509481019483016115a9565b634e487b7160e01b855260118752602485fd5b634e487b7160e01b845260118652602484fd5b50903461086d57602036600319011261086d576001600160a01b03918261162761193a565b1682526000805160206126f083398151915260205280822090600182015493600283015460ff8116928785015491836003870154169160058701549560ff601260078a0154990154169882519a8b5260038210156116bf575060208a015260a884901c60ff169089015260081c8316606088015260808701521660a085015260c084015260e083015215156101008201526101209150f35b634e487b7160e01b815260218c52602490fd5b50829034610715576060366003190112610715576116ee61193a565b602435916116fa611db9565b61171960ff6000805160206126508339815191525460a01c16156119f9565b6001600160a01b039261172f846111df33611a37565b3386526020947fe73faffa5bcab50ff8b24161d8feb15dcb77896c58c1b1c0777efe3ca6ebb1938652828720604435885286526302faf080918284892054106118d55761177f866113fc87611a37565b61178833611a37565b80546001600160a01b03199081163317825560018083018490556002830180546001600160a81b03191660088a901b610100600160a81b031617909117905560ff19939092916012918101805460ff60a81b1916600160a81b179055601381018690554260148201556301e13380600f8201550180548416905561180c8633611ddc565b61181533611b87565b6000805160206126b083398151915261182e8154611bf4565b9055885260008051602061267083398151915287528388209033908254161790557f22041db5bdf1c11baa3283f92ca91f4c2baf888bdb2c03d689e0a7f47f885f9d87526000805160206126908339815191528652828720338852865260018388209182541617905581519460018652850152429084015216907f7111e04ab50e819454aed87efff007c13bed5584eed12c613244b5e7cab086c160603392a36001815580f35b835162461bcd60e51b8152808301889052601960248201527f4d757374207075726368617365202435302b20636f75727365000000000000006044820152606490fd5b503461063c5761193360209261192d36611955565b90611d1c565b9051908152f35b600435906001600160a01b038216820361195057565b600080fd5b6040906003190112611950576004356001600160a01b0381168103611950579060243560ff811681036119505790565b90815180825260208080930193019160005b8281106119a5575050505090565b83516001600160a01b031685529381019392810192600101611997565b90815180825260208080930193019160005b8281106119e2575050505090565b835160ff16855293810193928101926001016119d4565b15611a0057565b60405162461bcd60e51b815260206004820152600f60248201526e10dbdb9d1c9858dd081c185d5cd959608a1b6044820152606490fd5b6001600160a01b031660009081526000805160206126f08339815191526020526040902090565b6001600160a01b031660009081527fe73faffa5bcab50ff8b24161d8feb15dcb77896c58c1b1c0777efe3ca6ebb1906020526040902090565b15611a9e57565b60405162461bcd60e51b8152602060048201526012602482015271105b1c9958591e481c9959da5cdd195c995960721b6044820152606490fd5b15611adf57565b60405162461bcd60e51b815260206004820152600f60248201526e24b73b30b634b21039b837b739b7b960891b6044820152606490fd5b6000805160206126d08339815191528054821015611b59576000527feb8dbe25873d686c322f12aba328bdddbdad39f67b4905a5f07c24d5b94249440190600090565b634e487b7160e01b600052603260045260246000fd5b8054821015611b595760005260206000200190600090565b6000805160206126d083398151915290815491600160401b831015611bbb5782610399916001611bb995019055611b16565b565b634e487b7160e01b600052604160045260246000fd5b90815491600160401b831015611bbb5782610399916001611bb995018155611b6f565b6000198114611c035760010190565b634e487b7160e01b600052601160045260246000fd5b9060018201809211611c0357565b6001019081600111611c0357565b90601f8019910116810190811067ffffffffffffffff821117611bbb57604052565b67ffffffffffffffff8111611bbb5760051b60200190565b90611c7982611c57565b611c866040519182611c35565b8281528092611c97601f1991611c57565b0190602036910137565b90816020910312611950575180151581036119505790565b8051821015611b595760209160051b010190565b15611cd457565b60405162461bcd60e51b815260206004820152600e60248201526d139bdd081c9959da5cdd195c995960921b6044820152606490fd5b60ff60019116019060ff8211611c0357565b91909160ff831660ff83161015611db157611d3690611a37565b6003810154600093916001600160a01b0391821680611d8f575b5060040154169081611d63575b50505090565b611d6f611d7593611d0a565b91611d1c565b611d7e90611c27565b8101809111611c0357388080611d5d565b611d9f91955083611d6f86611d0a565b611daa600491611c27565b9490611d50565b505050600090565b600260005414611dca576002600055565b604051633ee5aeb560e01b8152600490fd5b6001600160a01b038281169081156120c957611df784611a37565b611e0084611a37565b600382018054919291611e23906001600160a01b03165b6001600160a01b031690565b611f0157611ef4611ebf611efc9694611eb56004611e96611e9182611bb99e9b99611e868f7f69d86226dfb8b71ae28cdd4a3ef7762642e00fc56317b56ba667f7620b1b064f9b9060018060a01b03166001600160601b0360a01b825416179055565b015460a01c60ff1690565b611d0a565b9201805460ff60a01b191660a09390931b60ff60a01b16929092178255565b5460a01c60ff1690565b92604051918291891694829190916040815260046040820152631311519560e21b6060820152602060ff608083019416910152565b0390a3611a5e565b611bd1565b60048201805491929091611f1d906001600160a01b0316611e17565b6120a557611fd88694611efc97611bb99a979585611ef495611f778d7f69d86226dfb8b71ae28cdd4a3ef7762642e00fc56317b56ba667f7620b1b064f999060018060a01b03166001600160601b0360a01b825416179055565b611fad6004611f8e611e91855460ff9060a01c1690565b9601805460ff60a01b191660a09790971b60ff60a01b16969096178655565b60128101611fc3611fbf825460ff1690565b1590565b61200e575b50505050505460ff9060a01c1690565b9260405191829189169482919091604081526005604082015264149251d21560da1b6060820152602060ff608083019416910152565b7f34b4f72f6a06985af218e7f34e4699e6bea0895b5bdfede98cba5c9d96aa05b39361205a60106120759461204d61206795600160ff19825416179055565b4260118201550160029055565b546001600160a01b031690565b91546001600160a01b031690565b604080516001600160a01b0393841681529190921660208201524291810191909152606090a28538808080611fc8565b5050505050506120bd6120b78361247f565b82611ddc565b611efc611bb992611a5e565b600093507f69d86226dfb8b71ae28cdd4a3ef7762642e00fc56317b56ba667f7620b1b064f915061210c60046120fe85611a37565b01805460ff60a01b19169055565b6040519216918061213d81906040825260046040830152631493d3d560e21b60608301526000602060808401930152565b0390a3565b9096909594939291906001600160a01b0390818816158015612272575b6122665761216c88611a37565b976121778286611cb9565b6001600160a01b0390911690526004880154908160a81c60ff1661219b8288611cb9565b60ff918216905260128a0154166121b28289611cb9565b9015159052896121c2828a611cb9565b60ff90911690526121d290611c19565b6003909801546001600160a01b031689838216151580612257575b61223b575b5050168015158061222c575b61220e575b505050505050905090565b61221a61222098611d0a565b90612142565b80388080808080612203565b5060ff821660ff8916106121fe565b8787878761224f969d9561221a8e96611d0a565b9638896121f2565b5060ff851660ff8216106121ed565b97505050505050505090565b5060ff831660ff8a161161215f565b6040516370a0823160e01b60208083019182526001600160a01b0393841660248085019190915283529093909267ffffffffffffffff9290916060820184811183821017611bbb57604052600095869384935192165afa3d15612348573d91821161233457604051916122fd601f8201601f1916850184611c35565b82523d848484013e5b80612329575b61231557505090565b9091828280518101031261086d5750015190565b50818151101561230c565b634e487b7160e01b84526041600452602484fd5b60609150612306565b1561235857565b60405162461bcd60e51b815260206004820152601060248201526f486173207375626f7264696e6174657360801b6044820152606490fd5b1561239757565b60405162461bcd60e51b81526020600482015260166024820152751499599d5b99081d1c985b9cd9995c8819985a5b195960521b6044820152606490fd5b60009060018060a01b031681526000805160206126f0833981519152602052600560408220015490600581527fe73faffa5bcab50ff8b24161d8feb15dcb77896c58c1b1c0777efe3ca6ebb1896020526040812054821015612478576004815260408120548210156124715760038152604081205482101561246a57806002604092522054111561246557600190565b600290565b5050600390565b5050600490565b5050600590565b6040805190617d20820182811067ffffffffffffffff821117611bbb576040526103e88083526020916020840191617d0036843760009160019486511561258b576001600160a01b038881169095525b8584106124e0575050505050505090565b6124f6856124ee868a611cb9565b511694611bf4565b93806000526000805160206126f083398151915282528260002086600382015416918215801561257d575b61256f5750908691858910612539575b5050506124cf565b60049161254f6125488b611bf4565b9a8c611cb9565b5201541661256661255f88611bf4565b9789611cb9565b52843880612531565b995050505050505050505090565b508760048301541615612521565b634e487b7160e01b84526032600452602484fd5b4203428111611c03576203f48081106125d857620d2f0081106125d15762278d00116125cb576101f490565b6105dc90565b5061138890565b50611f4090565b6000805160206126d08339815191528054801561261f57600019019061261c61260783611b16565b81549060018060a01b039060031b1b19169055565b55565b634e487b7160e01b600052603160045260246000fd5b8054801561261f57600019019061261c6126078383611b6f56fee73faffa5bcab50ff8b24161d8feb15dcb77896c58c1b1c0777efe3ca6ebb197e73faffa5bcab50ff8b24161d8feb15dcb77896c58c1b1c0777efe3ca6ebb192c8fcad8db84d3cc18b4c41d551ea0ee66dd599cde068d998e57d5e09332c1328e73faffa5bcab50ff8b24161d8feb15dcb77896c58c1b1c0777efe3ca6ebb184e73faffa5bcab50ff8b24161d8feb15dcb77896c58c1b1c0777efe3ca6ebb183e73faffa5bcab50ff8b24161d8feb15dcb77896c58c1b1c0777efe3ca6ebb17da264697066735822122001ac6556127a3711f2250ab3014e288128adb3294ef805f0a82d7621c58b9fca64736f6c63430008180033",
  "linkReferences": {},
  "deployedLinkReferences": {}
}