{
  "_format": "hh-sol-artifact-1",
  "contractName": "Ecosystem2",
  "sourceName": "contracts/Ecosystem Contracts/Ecosystem2.sol",
  "abi": [
    {
      "inputs": [
        {
          "internalType": "address[]",
          "name": "_reviewers",
          "type": "address[]"
        }
      ],
      "stateMutability": "nonpayable",
      "type": "constructor"
    },
    {
      "inputs": [],
      "name": "AccessControlBadConfirmation",
      "type": "error"
    },
    {
      "inputs": [
        {
          "internalType": "address",
          "name": "account",
          "type": "address"
        },
        {
          "internalType": "bytes32",
          "name": "neededRole",
          "type": "bytes32"
        }
      ],
      "name": "AccessControlUnauthorizedAccount",
      "type": "error"
    },
    {
      "inputs": [
        {
          "internalType": "address",
          "name": "spender",
          "type": "address"
        },
        {
          "internalType": "uint256",
          "name": "allowance",
          "type": "uint256"
        },
        {
          "internalType": "uint256",
          "name": "needed",
          "type": "uint256"
        }
      ],
      "name": "ERC20InsufficientAllowance",
      "type": "error"
    },
    {
      "inputs": [
        {
          "internalType": "address",
          "name": "sender",
          "type": "address"
        },
        {
          "internalType": "uint256",
          "name": "balance",
          "type": "uint256"
        },
        {
          "internalType": "uint256",
          "name": "needed",
          "type": "uint256"
        }
      ],
      "name": "ERC20InsufficientBalance",
      "type": "error"
    },
    {
      "inputs": [
        {
          "internalType": "address",
          "name": "approver",
          "type": "address"
        }
      ],
      "name": "ERC20InvalidApprover",
      "type": "error"
    },
    {
      "inputs": [
        {
          "internalType": "address",
          "name": "receiver",
          "type": "address"
        }
      ],
      "name": "ERC20InvalidReceiver",
      "type": "error"
    },
    {
      "inputs": [
        {
          "internalType": "address",
          "name": "sender",
          "type": "address"
        }
      ],
      "name": "ERC20InvalidSender",
      "type": "error"
    },
    {
      "inputs": [
        {
          "internalType": "address",
          "name": "spender",
          "type": "address"
        }
      ],
      "name": "ERC20InvalidSpender",
      "type": "error"
    },
    {
      "inputs": [],
      "name": "ReentrancyGuardReentrantCall",
      "type": "error"
    },
    {
      "anonymous": false,
      "inputs": [
        {
          "indexed": true,
          "internalType": "address",
          "name": "owner",
          "type": "address"
        },
        {
          "indexed": true,
          "internalType": "address",
          "name": "spender",
          "type": "address"
        },
        {
          "indexed": false,
          "internalType": "uint256",
          "name": "value",
          "type": "uint256"
        }
      ],
      "name": "Approval",
      "type": "event"
    },
    {
      "anonymous": false,
      "inputs": [
        {
          "indexed": true,
          "internalType": "address",
          "name": "_account",
          "type": "address"
        },
        {
          "indexed": false,
          "internalType": "uint256",
          "name": "_amount",
          "type": "uint256"
        }
      ],
      "name": "BurnSuccess",
      "type": "event"
    },
    {
      "anonymous": false,
      "inputs": [
        {
          "indexed": true,
          "internalType": "uint256",
          "name": "_courseId",
          "type": "uint256"
        },
        {
          "indexed": true,
          "internalType": "uint256",
          "name": "numberOfChapters",
          "type": "uint256"
        }
      ],
      "name": "ChaptersAddedSuccessfully",
      "type": "event"
    },
    {
      "anonymous": false,
      "inputs": [
        {
          "indexed": false,
          "internalType": "uint256",
          "name": "questionId",
          "type": "uint256"
        },
        {
          "indexed": false,
          "internalType": "uint256",
          "name": "choiceId",
          "type": "uint256"
        },
        {
          "indexed": false,
          "internalType": "string",
          "name": "option",
          "type": "string"
        }
      ],
      "name": "ChoiceAdded",
      "type": "event"
    },
    {
      "anonymous": false,
      "inputs": [
        {
          "indexed": true,
          "internalType": "uint256",
          "name": "_courseID",
          "type": "uint256"
        },
        {
          "indexed": true,
          "internalType": "string",
          "name": "_courseName",
          "type": "string"
        },
        {
          "indexed": false,
          "internalType": "bool",
          "name": "_approved",
          "type": "bool"
        }
      ],
      "name": "CourseCreationSuccess",
      "type": "event"
    },
    {
      "anonymous": false,
      "inputs": [
        {
          "indexed": true,
          "internalType": "address",
          "name": "_to",
          "type": "address"
        },
        {
          "indexed": true,
          "internalType": "uint256",
          "name": "_amount",
          "type": "uint256"
        }
      ],
      "name": "EcosystemPoolUpdate",
      "type": "event"
    },
    {
      "anonymous": false,
      "inputs": [
        {
          "indexed": true,
          "internalType": "uint256",
          "name": "_courseId",
          "type": "uint256"
        },
        {
          "indexed": true,
          "internalType": "address",
          "name": "_by",
          "type": "address"
        }
      ],
      "name": "EnrollmentSuccess",
      "type": "event"
    },
    {
      "anonymous": false,
      "inputs": [
        {
          "indexed": true,
          "internalType": "uint256",
          "name": "_lessonId",
          "type": "uint256"
        },
        {
          "indexed": true,
          "internalType": "string",
          "name": "_lessonName",
          "type": "string"
        },
        {
          "indexed": true,
          "internalType": "uint256",
          "name": "_additonalResources",
          "type": "uint256"
        }
      ],
      "name": "LessonCreationSuccess",
      "type": "event"
    },
    {
      "anonymous": false,
      "inputs": [
        {
          "indexed": true,
          "internalType": "address",
          "name": "_to",
          "type": "address"
        },
        {
          "indexed": true,
          "internalType": "uint256",
          "name": "_amount",
          "type": "uint256"
        }
      ],
      "name": "MintSuccess",
      "type": "event"
    },
    {
      "anonymous": false,
      "inputs": [
        {
          "indexed": true,
          "internalType": "uint256",
          "name": "proposalId",
          "type": "uint256"
        },
        {
          "indexed": false,
          "internalType": "address",
          "name": "approver",
          "type": "address"
        }
      ],
      "name": "MultiSigProposalApproved",
      "type": "event"
    },
    {
      "anonymous": false,
      "inputs": [
        {
          "indexed": true,
          "internalType": "uint256",
          "name": "proposalId",
          "type": "uint256"
        },
        {
          "indexed": false,
          "internalType": "address",
          "name": "proposer",
          "type": "address"
        }
      ],
      "name": "MultiSigProposalCreated",
      "type": "event"
    },
    {
      "anonymous": false,
      "inputs": [
        {
          "indexed": true,
          "internalType": "uint256",
          "name": "proposalId",
          "type": "uint256"
        }
      ],
      "name": "MultiSigProposalExecuted",
      "type": "event"
    },
    {
      "anonymous": false,
      "inputs": [
        {
          "indexed": false,
          "internalType": "uint256",
          "name": "quizId",
          "type": "uint256"
        },
        {
          "indexed": false,
          "internalType": "uint256",
          "name": "questionId",
          "type": "uint256"
        },
        {
          "indexed": false,
          "internalType": "string",
          "name": "questionText",
          "type": "string"
        }
      ],
      "name": "QuestionAdded",
      "type": "event"
    },
    {
      "anonymous": false,
      "inputs": [
        {
          "indexed": true,
          "internalType": "uint256",
          "name": "_quizId",
          "type": "uint256"
        },
        {
          "indexed": true,
          "internalType": "string",
          "name": "_title",
          "type": "string"
        }
      ],
      "name": "QuizCreatedSuccess",
      "type": "event"
    },
    {
      "anonymous": false,
      "inputs": [
        {
          "indexed": true,
          "internalType": "uint256",
          "name": "_lessonId",
          "type": "uint256"
        },
        {
          "indexed": true,
          "internalType": "uint256",
          "name": "resourceCount",
          "type": "uint256"
        }
      ],
      "name": "ResourceAddSuccess",
      "type": "event"
    },
    {
      "anonymous": false,
      "inputs": [
        {
          "indexed": true,
          "internalType": "address",
          "name": "reviewer",
          "type": "address"
        }
      ],
      "name": "ReviewerAddedToPool",
      "type": "event"
    },
    {
      "anonymous": false,
      "inputs": [
        {
          "indexed": true,
          "internalType": "address",
          "name": "reviewer",
          "type": "address"
        }
      ],
      "name": "ReviewerRemovedFromPool",
      "type": "event"
    },
    {
      "anonymous": false,
      "inputs": [
        {
          "indexed": true,
          "internalType": "uint256",
          "name": "courseId",
          "type": "uint256"
        },
        {
          "indexed": false,
          "internalType": "address[]",
          "name": "reviewers",
          "type": "address[]"
        }
      ],
      "name": "ReviewersSelected",
      "type": "event"
    },
    {
      "anonymous": false,
      "inputs": [
        {
          "indexed": true,
          "internalType": "bytes32",
          "name": "role",
          "type": "bytes32"
        },
        {
          "indexed": true,
          "internalType": "bytes32",
          "name": "previousAdminRole",
          "type": "bytes32"
        },
        {
          "indexed": true,
          "internalType": "bytes32",
          "name": "newAdminRole",
          "type": "bytes32"
        }
      ],
      "name": "RoleAdminChanged",
      "type": "event"
    },
    {
      "anonymous": false,
      "inputs": [
        {
          "indexed": true,
          "internalType": "bytes32",
          "name": "role",
          "type": "bytes32"
        },
        {
          "indexed": true,
          "internalType": "address",
          "name": "account",
          "type": "address"
        },
        {
          "indexed": true,
          "internalType": "address",
          "name": "sender",
          "type": "address"
        }
      ],
      "name": "RoleGranted",
      "type": "event"
    },
    {
      "anonymous": false,
      "inputs": [
        {
          "indexed": true,
          "internalType": "bytes32",
          "name": "role",
          "type": "bytes32"
        },
        {
          "indexed": true,
          "internalType": "address",
          "name": "account",
          "type": "address"
        },
        {
          "indexed": true,
          "internalType": "address",
          "name": "sender",
          "type": "address"
        }
      ],
      "name": "RoleRevoked",
      "type": "event"
    },
    {
      "anonymous": false,
      "inputs": [
        {
          "indexed": true,
          "internalType": "address",
          "name": "from",
          "type": "address"
        },
        {
          "indexed": true,
          "internalType": "address",
          "name": "to",
          "type": "address"
        },
        {
          "indexed": false,
          "internalType": "uint256",
          "name": "value",
          "type": "uint256"
        }
      ],
      "name": "Transfer",
      "type": "event"
    },
    {
      "anonymous": false,
      "inputs": [
        {
          "indexed": true,
          "internalType": "uint256",
          "name": "_courseId",
          "type": "uint256"
        },
        {
          "indexed": true,
          "internalType": "address",
          "name": "_by",
          "type": "address"
        }
      ],
      "name": "unEnrollmentSuccess",
      "type": "event"
    },
    {
      "inputs": [],
      "name": "COURSE_OWNER_ROLE",
      "outputs": [
        {
          "internalType": "bytes32",
          "name": "",
          "type": "bytes32"
        }
      ],
      "stateMutability": "view",
      "type": "function"
    },
    {
      "inputs": [],
      "name": "CREATE_COURSE_REWARD",
      "outputs": [
        {
          "internalType": "uint256",
          "name": "",
          "type": "uint256"
        }
      ],
      "stateMutability": "view",
      "type": "function"
    },
    {
      "inputs": [],
      "name": "DEFAULT_ADMIN_ROLE",
      "outputs": [
        {
          "internalType": "bytes32",
          "name": "",
          "type": "bytes32"
        }
      ],
      "stateMutability": "view",
      "type": "function"
    },
    {
      "inputs": [],
      "name": "ECOSYSTEM_POOL",
      "outputs": [
        {
          "internalType": "uint256",
          "name": "",
          "type": "uint256"
        }
      ],
      "stateMutability": "view",
      "type": "function"
    },
    {
      "inputs": [],
      "name": "ENROLLMENT_REWARD",
      "outputs": [
        {
          "internalType": "uint256",
          "name": "",
          "type": "uint256"
        }
      ],
      "stateMutability": "view",
      "type": "function"
    },
    {
      "inputs": [],
      "name": "MAX_SCORE",
      "outputs": [
        {
          "internalType": "uint256",
          "name": "",
          "type": "uint256"
        }
      ],
      "stateMutability": "view",
      "type": "function"
    },
    {
      "inputs": [],
      "name": "MAX_SUPPLY",
      "outputs": [
        {
          "internalType": "uint256",
          "name": "",
          "type": "uint256"
        }
      ],
      "stateMutability": "view",
      "type": "function"
    },
    {
      "inputs": [],
      "name": "MIN_APPROVAL_SCORE",
      "outputs": [
        {
          "internalType": "uint256",
          "name": "",
          "type": "uint256"
        }
      ],
      "stateMutability": "view",
      "type": "function"
    },
    {
      "inputs": [],
      "name": "MULTISIG_APPROVER",
      "outputs": [
        {
          "internalType": "bytes32",
          "name": "",
          "type": "bytes32"
        }
      ],
      "stateMutability": "view",
      "type": "function"
    },
    {
      "inputs": [],
      "name": "REQUIRED_APPROVALS",
      "outputs": [
        {
          "internalType": "uint256",
          "name": "",
          "type": "uint256"
        }
      ],
      "stateMutability": "view",
      "type": "function"
    },
    {
      "inputs": [],
      "name": "REVIEWER_ROLE",
      "outputs": [
        {
          "internalType": "bytes32",
          "name": "",
          "type": "bytes32"
        }
      ],
      "stateMutability": "view",
      "type": "function"
    },
    {
      "inputs": [
        {
          "internalType": "address",
          "name": "",
          "type": "address"
        }
      ],
      "name": "accountCourses",
      "outputs": [
        {
          "internalType": "uint256",
          "name": "courseCount",
          "type": "uint256"
        }
      ],
      "stateMutability": "view",
      "type": "function"
    },
    {
      "inputs": [
        {
          "internalType": "uint256",
          "name": "_courseId",
          "type": "uint256"
        },
        {
          "internalType": "string[]",
          "name": "_chapters",
          "type": "string[]"
        }
      ],
      "name": "addChapters",
      "outputs": [
        {
          "internalType": "bool",
          "name": "",
          "type": "bool"
        }
      ],
      "stateMutability": "nonpayable",
      "type": "function"
    },
    {
      "inputs": [
        {
          "internalType": "uint256",
          "name": "_chapterId",
          "type": "uint256"
        },
        {
          "internalType": "string",
          "name": "_lessonName",
          "type": "string"
        },
        {
          "internalType": "string",
          "name": "_lessonContent",
          "type": "string"
        }
      ],
      "name": "addLesson",
      "outputs": [],
      "stateMutability": "nonpayable",
      "type": "function"
    },
    {
      "inputs": [
        {
          "internalType": "uint256",
          "name": "_lessonId",
          "type": "uint256"
        },
        {
          "internalType": "enum Ecosystem.ContentType",
          "name": "contentType",
          "type": "uint8"
        },
        {
          "components": [
            {
              "internalType": "enum Ecosystem.ContentType",
              "name": "contentType",
              "type": "uint8"
            },
            {
              "internalType": "string",
              "name": "url",
              "type": "string"
            },
            {
              "internalType": "string",
              "name": "name",
              "type": "string"
            }
          ],
          "internalType": "struct Ecosystem.Resource[]",
          "name": "_resources",
          "type": "tuple[]"
        }
      ],
      "name": "addResourcesToLesson",
      "outputs": [],
      "stateMutability": "nonpayable",
      "type": "function"
    },
    {
      "inputs": [
        {
          "internalType": "address",
          "name": "newReviewer",
          "type": "address"
        }
      ],
      "name": "addReviewer",
      "outputs": [],
      "stateMutability": "nonpayable",
      "type": "function"
    },
    {
      "inputs": [
        {
          "internalType": "address",
          "name": "owner",
          "type": "address"
        },
        {
          "internalType": "address",
          "name": "spender",
          "type": "address"
        }
      ],
      "name": "allowance",
      "outputs": [
        {
          "internalType": "uint256",
          "name": "",
          "type": "uint256"
        }
      ],
      "stateMutability": "view",
      "type": "function"
    },
    {
      "inputs": [
        {
          "internalType": "address",
          "name": "",
          "type": "address"
        },
        {
          "internalType": "uint256",
          "name": "",
          "type": "uint256"
        }
      ],
      "name": "approvals",
      "outputs": [
        {
          "internalType": "bool",
          "name": "",
          "type": "bool"
        }
      ],
      "stateMutability": "view",
      "type": "function"
    },
    {
      "inputs": [
        {
          "internalType": "address",
          "name": "spender",
          "type": "address"
        },
        {
          "internalType": "uint256",
          "name": "value",
          "type": "uint256"
        }
      ],
      "name": "approve",
      "outputs": [
        {
          "internalType": "bool",
          "name": "",
          "type": "bool"
        }
      ],
      "stateMutability": "nonpayable",
      "type": "function"
    },
    {
      "inputs": [
        {
          "internalType": "uint256",
          "name": "_courseId",
          "type": "uint256"
        }
      ],
      "name": "approveCourse",
      "outputs": [],
      "stateMutability": "nonpayable",
      "type": "function"
    },
    {
      "inputs": [
        {
          "internalType": "uint256",
          "name": "_proposalId",
          "type": "uint256"
        }
      ],
      "name": "approveMultiSigProposal",
      "outputs": [],
      "stateMutability": "nonpayable",
      "type": "function"
    },
    {
      "inputs": [
        {
          "internalType": "address",
          "name": "account",
          "type": "address"
        }
      ],
      "name": "balanceOf",
      "outputs": [
        {
          "internalType": "uint256",
          "name": "",
          "type": "uint256"
        }
      ],
      "stateMutability": "view",
      "type": "function"
    },
    {
      "inputs": [
        {
          "internalType": "uint256",
          "name": "",
          "type": "uint256"
        }
      ],
      "name": "chapter",
      "outputs": [
        {
          "internalType": "uint256",
          "name": "courseId",
          "type": "uint256"
        },
        {
          "internalType": "uint256",
          "name": "chapterId",
          "type": "uint256"
        },
        {
          "internalType": "string",
          "name": "chapterName",
          "type": "string"
        },
        {
          "internalType": "bool",
          "name": "exists",
          "type": "bool"
        }
      ],
      "stateMutability": "view",
      "type": "function"
    },
    {
      "inputs": [
        {
          "internalType": "uint256",
          "name": "",
          "type": "uint256"
        },
        {
          "internalType": "uint256",
          "name": "",
          "type": "uint256"
        }
      ],
      "name": "chapterLessons",
      "outputs": [
        {
          "internalType": "string",
          "name": "",
          "type": "string"
        }
      ],
      "stateMutability": "view",
      "type": "function"
    },
    {
      "inputs": [
        {
          "internalType": "uint256",
          "name": "",
          "type": "uint256"
        },
        {
          "internalType": "uint256",
          "name": "",
          "type": "uint256"
        }
      ],
      "name": "courseChapters",
      "outputs": [
        {
          "internalType": "uint256",
          "name": "courseId",
          "type": "uint256"
        },
        {
          "internalType": "uint256",
          "name": "chapterId",
          "type": "uint256"
        },
        {
          "internalType": "string",
          "name": "chapterName",
          "type": "string"
        },
        {
          "internalType": "bool",
          "name": "exists",
          "type": "bool"
        }
      ],
      "stateMutability": "view",
      "type": "function"
    },
    {
      "inputs": [],
      "name": "courseCount",
      "outputs": [
        {
          "internalType": "uint256",
          "name": "",
          "type": "uint256"
        }
      ],
      "stateMutability": "view",
      "type": "function"
    },
    {
      "inputs": [
        {
          "internalType": "uint256",
          "name": "",
          "type": "uint256"
        }
      ],
      "name": "courseObject",
      "outputs": [
        {
          "internalType": "uint256",
          "name": "courseId",
          "type": "uint256"
        },
        {
          "internalType": "string",
          "name": "courseName",
          "type": "string"
        },
        {
          "internalType": "string",
          "name": "description",
          "type": "string"
        },
        {
          "internalType": "bool",
          "name": "approved",
          "type": "bool"
        },
        {
          "internalType": "uint256",
          "name": "approvalCount",
          "type": "uint256"
        },
        {
          "internalType": "address",
          "name": "creator",
          "type": "address"
        },
        {
          "internalType": "bool",
          "name": "exists",
          "type": "bool"
        }
      ],
      "stateMutability": "view",
      "type": "function"
    },
    {
      "inputs": [
        {
          "internalType": "uint256",
          "name": "",
          "type": "uint256"
        }
      ],
      "name": "courseReviewInitiated",
      "outputs": [
        {
          "internalType": "bool",
          "name": "",
          "type": "bool"
        }
      ],
      "stateMutability": "view",
      "type": "function"
    },
    {
      "inputs": [
        {
          "internalType": "uint256",
          "name": "",
          "type": "uint256"
        },
        {
          "internalType": "uint256",
          "name": "",
          "type": "uint256"
        }
      ],
      "name": "courseReviewers",
      "outputs": [
        {
          "internalType": "address",
          "name": "",
          "type": "address"
        }
      ],
      "stateMutability": "view",
      "type": "function"
    },
    {
      "inputs": [
        {
          "internalType": "string",
          "name": "_courseName",
          "type": "string"
        },
        {
          "internalType": "string",
          "name": "_description",
          "type": "string"
        }
      ],
      "name": "createCourse",
      "outputs": [
        {
          "internalType": "bool",
          "name": "",
          "type": "bool"
        }
      ],
      "stateMutability": "nonpayable",
      "type": "function"
    },
    {
      "inputs": [
        {
          "internalType": "uint256",
          "name": "_quizId",
          "type": "uint256"
        },
        {
          "internalType": "string",
          "name": "_questionText",
          "type": "string"
        },
        {
          "internalType": "string[]",
          "name": "_options",
          "type": "string[]"
        },
        {
          "internalType": "uint8",
          "name": "_correctChoiceIndex",
          "type": "uint8"
        }
      ],
      "name": "createQuestionWithChoices",
      "outputs": [],
      "stateMutability": "nonpayable",
      "type": "function"
    },
    {
      "inputs": [
        {
          "internalType": "uint256",
          "name": "_lessonId",
          "type": "uint256"
        },
        {
          "internalType": "string",
          "name": "_title",
          "type": "string"
        }
      ],
      "name": "createQuiz",
      "outputs": [
        {
          "internalType": "uint256",
          "name": "",
          "type": "uint256"
        }
      ],
      "stateMutability": "nonpayable",
      "type": "function"
    },
    {
      "inputs": [],
      "name": "decimals",
      "outputs": [
        {
          "internalType": "uint8",
          "name": "",
          "type": "uint8"
        }
      ],
      "stateMutability": "view",
      "type": "function"
    },
    {
      "inputs": [],
      "name": "ecosystemPoolSupply",
      "outputs": [
        {
          "internalType": "uint256",
          "name": "",
          "type": "uint256"
        }
      ],
      "stateMutability": "view",
      "type": "function"
    },
    {
      "inputs": [
        {
          "internalType": "uint256",
          "name": "_courseId",
          "type": "uint256"
        }
      ],
      "name": "enroll",
      "outputs": [
        {
          "internalType": "bool",
          "name": "",
          "type": "bool"
        }
      ],
      "stateMutability": "nonpayable",
      "type": "function"
    },
    {
      "inputs": [],
      "name": "getAllChapters",
      "outputs": [
        {
          "components": [
            {
              "internalType": "uint256",
              "name": "courseId",
              "type": "uint256"
            },
            {
              "internalType": "uint256",
              "name": "chapterId",
              "type": "uint256"
            },
            {
              "internalType": "string",
              "name": "chapterName",
              "type": "string"
            },
            {
              "internalType": "bool",
              "name": "exists",
              "type": "bool"
            }
          ],
          "internalType": "struct Ecosystem.Chapter[]",
          "name": "",
          "type": "tuple[]"
        }
      ],
      "stateMutability": "view",
      "type": "function"
    },
    {
      "inputs": [],
      "name": "getAllCourses",
      "outputs": [
        {
          "components": [
            {
              "internalType": "uint256",
              "name": "courseId",
              "type": "uint256"
            },
            {
              "internalType": "string",
              "name": "courseName",
              "type": "string"
            },
            {
              "internalType": "string",
              "name": "description",
              "type": "string"
            },
            {
              "internalType": "bool",
              "name": "approved",
              "type": "bool"
            },
            {
              "internalType": "uint256",
              "name": "approvalCount",
              "type": "uint256"
            },
            {
              "internalType": "address",
              "name": "creator",
              "type": "address"
            },
            {
              "internalType": "bool",
              "name": "exists",
              "type": "bool"
            },
            {
              "internalType": "address[]",
              "name": "enrolledStudents",
              "type": "address[]"
            }
          ],
          "internalType": "struct Ecosystem.Course[]",
          "name": "",
          "type": "tuple[]"
        }
      ],
      "stateMutability": "view",
      "type": "function"
    },
    {
      "inputs": [],
      "name": "getAllLessons",
      "outputs": [
        {
          "components": [
            {
              "internalType": "uint256",
              "name": "chapterId",
              "type": "uint256"
            },
            {
              "internalType": "uint256",
              "name": "lessonId",
              "type": "uint256"
            },
            {
              "internalType": "string",
              "name": "lessonName",
              "type": "string"
            },
            {
              "internalType": "string",
              "name": "lessonContent",
              "type": "string"
            },
            {
              "components": [
                {
                  "internalType": "enum Ecosystem.ContentType",
                  "name": "contentType",
                  "type": "uint8"
                },
                {
                  "internalType": "string",
                  "name": "url",
                  "type": "string"
                },
                {
                  "internalType": "string",
                  "name": "name",
                  "type": "string"
                }
              ],
              "internalType": "struct Ecosystem.Resource[10]",
              "name": "additionalResources",
              "type": "tuple[10]"
            },
            {
              "internalType": "uint256",
              "name": "resourceCount",
              "type": "uint256"
            },
            {
              "internalType": "bool",
              "name": "exists",
              "type": "bool"
            }
          ],
          "internalType": "struct Ecosystem.Lesson[]",
          "name": "",
          "type": "tuple[]"
        }
      ],
      "stateMutability": "view",
      "type": "function"
    },
    {
      "inputs": [],
      "name": "getAllQuizzes",
      "outputs": [
        {
          "components": [
            {
              "internalType": "uint256",
              "name": "lessonId",
              "type": "uint256"
            },
            {
              "internalType": "uint256",
              "name": "quizId",
              "type": "uint256"
            },
            {
              "internalType": "string",
              "name": "quizTitle",
              "type": "string"
            },
            {
              "components": [
                {
                  "internalType": "uint256",
                  "name": "quizId",
                  "type": "uint256"
                },
                {
                  "internalType": "uint256",
                  "name": "questionId",
                  "type": "uint256"
                },
                {
                  "internalType": "string",
                  "name": "questionText",
                  "type": "string"
                },
                {
                  "components": [
                    {
                      "internalType": "string",
                      "name": "option",
                      "type": "string"
                    },
                    {
                      "internalType": "bool",
                      "name": "isCorrect",
                      "type": "bool"
                    }
                  ],
                  "internalType": "struct Ecosystem.Choice[]",
                  "name": "choices",
                  "type": "tuple[]"
                }
              ],
              "internalType": "struct Ecosystem.Question[]",
              "name": "questions",
              "type": "tuple[]"
            },
            {
              "internalType": "bool",
              "name": "exists",
              "type": "bool"
            }
          ],
          "internalType": "struct Ecosystem.Quiz[]",
          "name": "",
          "type": "tuple[]"
        }
      ],
      "stateMutability": "view",
      "type": "function"
    },
    {
      "inputs": [
        {
          "internalType": "uint256",
          "name": "_courseId",
          "type": "uint256"
        }
      ],
      "name": "getChapters",
      "outputs": [
        {
          "components": [
            {
              "internalType": "uint256",
              "name": "courseId",
              "type": "uint256"
            },
            {
              "internalType": "uint256",
              "name": "chapterId",
              "type": "uint256"
            },
            {
              "internalType": "string",
              "name": "chapterName",
              "type": "string"
            },
            {
              "internalType": "bool",
              "name": "exists",
              "type": "bool"
            }
          ],
          "internalType": "struct Ecosystem.Chapter[]",
          "name": "",
          "type": "tuple[]"
        }
      ],
      "stateMutability": "view",
      "type": "function"
    },
    {
      "inputs": [
        {
          "internalType": "uint256",
          "name": "courseId",
          "type": "uint256"
        }
      ],
      "name": "getCourseReviewers",
      "outputs": [
        {
          "internalType": "address[]",
          "name": "",
          "type": "address[]"
        }
      ],
      "stateMutability": "view",
      "type": "function"
    },
    {
      "inputs": [],
      "name": "getCurrentEcosystemPoolSupply",
      "outputs": [
        {
          "internalType": "uint256",
          "name": "",
          "type": "uint256"
        }
      ],
      "stateMutability": "view",
      "type": "function"
    },
    {
      "inputs": [
        {
          "internalType": "uint256",
          "name": "_quizId",
          "type": "uint256"
        }
      ],
      "name": "getQuestionsForQuiz",
      "outputs": [
        {
          "components": [
            {
              "internalType": "uint256",
              "name": "quizId",
              "type": "uint256"
            },
            {
              "internalType": "uint256",
              "name": "questionId",
              "type": "uint256"
            },
            {
              "internalType": "string",
              "name": "questionText",
              "type": "string"
            },
            {
              "components": [
                {
                  "internalType": "string",
                  "name": "option",
                  "type": "string"
                },
                {
                  "internalType": "bool",
                  "name": "isCorrect",
                  "type": "bool"
                }
              ],
              "internalType": "struct Ecosystem.Choice[]",
              "name": "choices",
              "type": "tuple[]"
            }
          ],
          "internalType": "struct Ecosystem.Question[]",
          "name": "",
          "type": "tuple[]"
        }
      ],
      "stateMutability": "view",
      "type": "function"
    },
    {
      "inputs": [
        {
          "internalType": "uint256",
          "name": "_quizId",
          "type": "uint256"
        }
      ],
      "name": "getQuiz",
      "outputs": [
        {
          "components": [
            {
              "internalType": "uint256",
              "name": "lessonId",
              "type": "uint256"
            },
            {
              "internalType": "uint256",
              "name": "quizId",
              "type": "uint256"
            },
            {
              "internalType": "string",
              "name": "quizTitle",
              "type": "string"
            },
            {
              "components": [
                {
                  "internalType": "uint256",
                  "name": "quizId",
                  "type": "uint256"
                },
                {
                  "internalType": "uint256",
                  "name": "questionId",
                  "type": "uint256"
                },
                {
                  "internalType": "string",
                  "name": "questionText",
                  "type": "string"
                },
                {
                  "components": [
                    {
                      "internalType": "string",
                      "name": "option",
                      "type": "string"
                    },
                    {
                      "internalType": "bool",
                      "name": "isCorrect",
                      "type": "bool"
                    }
                  ],
                  "internalType": "struct Ecosystem.Choice[]",
                  "name": "choices",
                  "type": "tuple[]"
                }
              ],
              "internalType": "struct Ecosystem.Question[]",
              "name": "questions",
              "type": "tuple[]"
            },
            {
              "internalType": "bool",
              "name": "exists",
              "type": "bool"
            }
          ],
          "internalType": "struct Ecosystem.Quiz",
          "name": "",
          "type": "tuple"
        }
      ],
      "stateMutability": "view",
      "type": "function"
    },
    {
      "inputs": [
        {
          "internalType": "bytes32",
          "name": "role",
          "type": "bytes32"
        }
      ],
      "name": "getRoleAdmin",
      "outputs": [
        {
          "internalType": "bytes32",
          "name": "",
          "type": "bytes32"
        }
      ],
      "stateMutability": "view",
      "type": "function"
    },
    {
      "inputs": [
        {
          "internalType": "bytes32",
          "name": "role",
          "type": "bytes32"
        },
        {
          "internalType": "address",
          "name": "account",
          "type": "address"
        }
      ],
      "name": "grantRole",
      "outputs": [],
      "stateMutability": "nonpayable",
      "type": "function"
    },
    {
      "inputs": [
        {
          "internalType": "bytes32",
          "name": "role",
          "type": "bytes32"
        },
        {
          "internalType": "address",
          "name": "account",
          "type": "address"
        }
      ],
      "name": "hasRole",
      "outputs": [
        {
          "internalType": "bool",
          "name": "",
          "type": "bool"
        }
      ],
      "stateMutability": "view",
      "type": "function"
    },
    {
      "inputs": [
        {
          "internalType": "uint256",
          "name": "",
          "type": "uint256"
        },
        {
          "internalType": "address",
          "name": "",
          "type": "address"
        }
      ],
      "name": "isEnrolled",
      "outputs": [
        {
          "internalType": "bool",
          "name": "",
          "type": "bool"
        }
      ],
      "stateMutability": "view",
      "type": "function"
    },
    {
      "inputs": [
        {
          "internalType": "address",
          "name": "",
          "type": "address"
        }
      ],
      "name": "isInReviewerPool",
      "outputs": [
        {
          "internalType": "bool",
          "name": "",
          "type": "bool"
        }
      ],
      "stateMutability": "view",
      "type": "function"
    },
    {
      "inputs": [
        {
          "internalType": "address",
          "name": "account",
          "type": "address"
        }
      ],
      "name": "isReviewer",
      "outputs": [
        {
          "internalType": "bool",
          "name": "",
          "type": "bool"
        }
      ],
      "stateMutability": "view",
      "type": "function"
    },
    {
      "inputs": [
        {
          "internalType": "uint256",
          "name": "",
          "type": "uint256"
        }
      ],
      "name": "lesson",
      "outputs": [
        {
          "internalType": "uint256",
          "name": "chapterId",
          "type": "uint256"
        },
        {
          "internalType": "uint256",
          "name": "lessonId",
          "type": "uint256"
        },
        {
          "internalType": "string",
          "name": "lessonName",
          "type": "string"
        },
        {
          "internalType": "string",
          "name": "lessonContent",
          "type": "string"
        },
        {
          "internalType": "uint256",
          "name": "resourceCount",
          "type": "uint256"
        },
        {
          "internalType": "bool",
          "name": "exists",
          "type": "bool"
        }
      ],
      "stateMutability": "view",
      "type": "function"
    },
    {
      "inputs": [
        {
          "internalType": "uint256",
          "name": "",
          "type": "uint256"
        }
      ],
      "name": "listOfChapters",
      "outputs": [
        {
          "internalType": "uint256",
          "name": "courseId",
          "type": "uint256"
        },
        {
          "internalType": "uint256",
          "name": "chapterId",
          "type": "uint256"
        },
        {
          "internalType": "string",
          "name": "chapterName",
          "type": "string"
        },
        {
          "internalType": "bool",
          "name": "exists",
          "type": "bool"
        }
      ],
      "stateMutability": "view",
      "type": "function"
    },
    {
      "inputs": [
        {
          "internalType": "uint256",
          "name": "",
          "type": "uint256"
        }
      ],
      "name": "listOfCourses",
      "outputs": [
        {
          "internalType": "uint256",
          "name": "courseId",
          "type": "uint256"
        },
        {
          "internalType": "string",
          "name": "courseName",
          "type": "string"
        },
        {
          "internalType": "string",
          "name": "description",
          "type": "string"
        },
        {
          "internalType": "bool",
          "name": "approved",
          "type": "bool"
        },
        {
          "internalType": "uint256",
          "name": "approvalCount",
          "type": "uint256"
        },
        {
          "internalType": "address",
          "name": "creator",
          "type": "address"
        },
        {
          "internalType": "bool",
          "name": "exists",
          "type": "bool"
        }
      ],
      "stateMutability": "view",
      "type": "function"
    },
    {
      "inputs": [
        {
          "internalType": "uint256",
          "name": "",
          "type": "uint256"
        }
      ],
      "name": "listOfLessons",
      "outputs": [
        {
          "internalType": "uint256",
          "name": "chapterId",
          "type": "uint256"
        },
        {
          "internalType": "uint256",
          "name": "lessonId",
          "type": "uint256"
        },
        {
          "internalType": "string",
          "name": "lessonName",
          "type": "string"
        },
        {
          "internalType": "string",
          "name": "lessonContent",
          "type": "string"
        },
        {
          "internalType": "uint256",
          "name": "resourceCount",
          "type": "uint256"
        },
        {
          "internalType": "bool",
          "name": "exists",
          "type": "bool"
        }
      ],
      "stateMutability": "view",
      "type": "function"
    },
    {
      "inputs": [
        {
          "internalType": "uint256",
          "name": "",
          "type": "uint256"
        }
      ],
      "name": "listOfQuestions",
      "outputs": [
        {
          "internalType": "uint256",
          "name": "quizId",
          "type": "uint256"
        },
        {
          "internalType": "uint256",
          "name": "questionId",
          "type": "uint256"
        },
        {
          "internalType": "string",
          "name": "questionText",
          "type": "string"
        }
      ],
      "stateMutability": "view",
      "type": "function"
    },
    {
      "inputs": [
        {
          "internalType": "uint256",
          "name": "",
          "type": "uint256"
        }
      ],
      "name": "listOfQuizzes",
      "outputs": [
        {
          "internalType": "uint256",
          "name": "lessonId",
          "type": "uint256"
        },
        {
          "internalType": "uint256",
          "name": "quizId",
          "type": "uint256"
        },
        {
          "internalType": "string",
          "name": "quizTitle",
          "type": "string"
        },
        {
          "internalType": "bool",
          "name": "exists",
          "type": "bool"
        }
      ],
      "stateMutability": "view",
      "type": "function"
    },
    {
      "inputs": [
        {
          "internalType": "uint256",
          "name": "",
          "type": "uint256"
        }
      ],
      "name": "listOfResource",
      "outputs": [
        {
          "internalType": "enum Ecosystem.ContentType",
          "name": "contentType",
          "type": "uint8"
        },
        {
          "internalType": "string",
          "name": "url",
          "type": "string"
        },
        {
          "internalType": "string",
          "name": "name",
          "type": "string"
        }
      ],
      "stateMutability": "view",
      "type": "function"
    },
    {
      "inputs": [
        {
          "internalType": "uint256",
          "name": "",
          "type": "uint256"
        }
      ],
      "name": "multiSigProposals",
      "outputs": [
        {
          "internalType": "uint256",
          "name": "id",
          "type": "uint256"
        },
        {
          "internalType": "address",
          "name": "proposer",
          "type": "address"
        },
        {
          "internalType": "address",
          "name": "targetContract",
          "type": "address"
        },
        {
          "internalType": "bytes",
          "name": "data",
          "type": "bytes"
        },
        {
          "internalType": "uint256",
          "name": "approvalCount",
          "type": "uint256"
        },
        {
          "internalType": "bool",
          "name": "executed",
          "type": "bool"
        }
      ],
      "stateMutability": "view",
      "type": "function"
    },
    {
      "inputs": [],
      "name": "name",
      "outputs": [
        {
          "internalType": "string",
          "name": "",
          "type": "string"
        }
      ],
      "stateMutability": "view",
      "type": "function"
    },
    {
      "inputs": [],
      "name": "nextChapterId",
      "outputs": [
        {
          "internalType": "uint256",
          "name": "",
          "type": "uint256"
        }
      ],
      "stateMutability": "view",
      "type": "function"
    },
    {
      "inputs": [],
      "name": "nextChoiceId",
      "outputs": [
        {
          "internalType": "uint256",
          "name": "",
          "type": "uint256"
        }
      ],
      "stateMutability": "view",
      "type": "function"
    },
    {
      "inputs": [],
      "name": "nextCourseId",
      "outputs": [
        {
          "internalType": "uint256",
          "name": "",
          "type": "uint256"
        }
      ],
      "stateMutability": "view",
      "type": "function"
    },
    {
      "inputs": [],
      "name": "nextCourseIdd",
      "outputs": [
        {
          "internalType": "uint256",
          "name": "",
          "type": "uint256"
        }
      ],
      "stateMutability": "view",
      "type": "function"
    },
    {
      "inputs": [],
      "name": "nextLessonId",
      "outputs": [
        {
          "internalType": "uint256",
          "name": "",
          "type": "uint256"
        }
      ],
      "stateMutability": "view",
      "type": "function"
    },
    {
      "inputs": [],
      "name": "nextQuestionId",
      "outputs": [
        {
          "internalType": "uint256",
          "name": "",
          "type": "uint256"
        }
      ],
      "stateMutability": "view",
      "type": "function"
    },
    {
      "inputs": [],
      "name": "nextQuizId",
      "outputs": [
        {
          "internalType": "uint256",
          "name": "",
          "type": "uint256"
        }
      ],
      "stateMutability": "view",
      "type": "function"
    },
    {
      "inputs": [
        {
          "internalType": "uint256",
          "name": "",
          "type": "uint256"
        }
      ],
      "name": "questions",
      "outputs": [
        {
          "internalType": "uint256",
          "name": "quizId",
          "type": "uint256"
        },
        {
          "internalType": "uint256",
          "name": "questionId",
          "type": "uint256"
        },
        {
          "internalType": "string",
          "name": "questionText",
          "type": "string"
        }
      ],
      "stateMutability": "view",
      "type": "function"
    },
    {
      "inputs": [
        {
          "internalType": "uint256",
          "name": "",
          "type": "uint256"
        }
      ],
      "name": "quizzes",
      "outputs": [
        {
          "internalType": "uint256",
          "name": "lessonId",
          "type": "uint256"
        },
        {
          "internalType": "uint256",
          "name": "quizId",
          "type": "uint256"
        },
        {
          "internalType": "string",
          "name": "quizTitle",
          "type": "string"
        },
        {
          "internalType": "bool",
          "name": "exists",
          "type": "bool"
        }
      ],
      "stateMutability": "view",
      "type": "function"
    },
    {
      "inputs": [
        {
          "internalType": "address",
          "name": "reviewer",
          "type": "address"
        }
      ],
      "name": "removeReviewer",
      "outputs": [],
      "stateMutability": "nonpayable",
      "type": "function"
    },
    {
      "inputs": [
        {
          "internalType": "bytes32",
          "name": "role",
          "type": "bytes32"
        },
        {
          "internalType": "address",
          "name": "callerConfirmation",
          "type": "address"
        }
      ],
      "name": "renounceRole",
      "outputs": [],
      "stateMutability": "nonpayable",
      "type": "function"
    },
    {
      "inputs": [
        {
          "internalType": "uint256",
          "name": "",
          "type": "uint256"
        }
      ],
      "name": "reviewerPool",
      "outputs": [
        {
          "internalType": "address",
          "name": "",
          "type": "address"
        }
      ],
      "stateMutability": "view",
      "type": "function"
    },
    {
      "inputs": [
        {
          "internalType": "uint256",
          "name": "",
          "type": "uint256"
        },
        {
          "internalType": "address",
          "name": "",
          "type": "address"
        }
      ],
      "name": "reviews",
      "outputs": [
        {
          "internalType": "uint256",
          "name": "learnerAgency",
          "type": "uint256"
        },
        {
          "internalType": "uint256",
          "name": "criticalThinking",
          "type": "uint256"
        },
        {
          "internalType": "uint256",
          "name": "collaborativeLearning",
          "type": "uint256"
        },
        {
          "internalType": "uint256",
          "name": "reflectivePractice",
          "type": "uint256"
        },
        {
          "internalType": "uint256",
          "name": "adaptiveLearning",
          "type": "uint256"
        },
        {
          "internalType": "uint256",
          "name": "authenticLearning",
          "type": "uint256"
        },
        {
          "internalType": "uint256",
          "name": "technologyIntegration",
          "type": "uint256"
        },
        {
          "internalType": "uint256",
          "name": "learnerSupport",
          "type": "uint256"
        },
        {
          "internalType": "uint256",
          "name": "assessmentForLearning",
          "type": "uint256"
        },
        {
          "internalType": "uint256",
          "name": "engagementAndMotivation",
          "type": "uint256"
        },
        {
          "internalType": "bool",
          "name": "isSubmitted",
          "type": "bool"
        }
      ],
      "stateMutability": "view",
      "type": "function"
    },
    {
      "inputs": [
        {
          "internalType": "bytes32",
          "name": "role",
          "type": "bytes32"
        },
        {
          "internalType": "address",
          "name": "account",
          "type": "address"
        }
      ],
      "name": "revokeRole",
      "outputs": [],
      "stateMutability": "nonpayable",
      "type": "function"
    },
    {
      "inputs": [
        {
          "internalType": "uint256",
          "name": "courseId",
          "type": "uint256"
        }
      ],
      "name": "selectCourseReviewers",
      "outputs": [],
      "stateMutability": "nonpayable",
      "type": "function"
    },
    {
      "inputs": [
        {
          "internalType": "uint256",
          "name": "courseId",
          "type": "uint256"
        },
        {
          "internalType": "uint256",
          "name": "learnerAgency",
          "type": "uint256"
        },
        {
          "internalType": "uint256",
          "name": "criticalThinking",
          "type": "uint256"
        },
        {
          "internalType": "uint256",
          "name": "collaborativeLearning",
          "type": "uint256"
        },
        {
          "internalType": "uint256",
          "name": "reflectivePractice",
          "type": "uint256"
        },
        {
          "internalType": "uint256",
          "name": "adaptiveLearning",
          "type": "uint256"
        },
        {
          "internalType": "uint256",
          "name": "authenticLearning",
          "type": "uint256"
        },
        {
          "internalType": "uint256",
          "name": "technologyIntegration",
          "type": "uint256"
        },
        {
          "internalType": "uint256",
          "name": "learnerSupport",
          "type": "uint256"
        },
        {
          "internalType": "uint256",
          "name": "assessmentForLearning",
          "type": "uint256"
        },
        {
          "internalType": "uint256",
          "name": "engagementAndMotivation",
          "type": "uint256"
        }
      ],
      "name": "submitReview",
      "outputs": [],
      "stateMutability": "nonpayable",
      "type": "function"
    },
    {
      "inputs": [
        {
          "internalType": "bytes4",
          "name": "interfaceId",
          "type": "bytes4"
        }
      ],
      "name": "supportsInterface",
      "outputs": [
        {
          "internalType": "bool",
          "name": "",
          "type": "bool"
        }
      ],
      "stateMutability": "view",
      "type": "function"
    },
    {
      "inputs": [],
      "name": "symbol",
      "outputs": [
        {
          "internalType": "string",
          "name": "",
          "type": "string"
        }
      ],
      "stateMutability": "view",
      "type": "function"
    },
    {
      "inputs": [],
      "name": "totalSupply",
      "outputs": [
        {
          "internalType": "uint256",
          "name": "",
          "type": "uint256"
        }
      ],
      "stateMutability": "view",
      "type": "function"
    },
    {
      "inputs": [
        {
          "internalType": "address",
          "name": "to",
          "type": "address"
        },
        {
          "internalType": "uint256",
          "name": "value",
          "type": "uint256"
        }
      ],
      "name": "transfer",
      "outputs": [
        {
          "internalType": "bool",
          "name": "",
          "type": "bool"
        }
      ],
      "stateMutability": "nonpayable",
      "type": "function"
    },
    {
      "inputs": [
        {
          "internalType": "address",
          "name": "from",
          "type": "address"
        },
        {
          "internalType": "address",
          "name": "to",
          "type": "address"
        },
        {
          "internalType": "uint256",
          "name": "value",
          "type": "uint256"
        }
      ],
      "name": "transferFrom",
      "outputs": [
        {
          "internalType": "bool",
          "name": "",
          "type": "bool"
        }
      ],
      "stateMutability": "nonpayable",
      "type": "function"
    },
    {
      "inputs": [
        {
          "internalType": "uint256",
          "name": "_courseId",
          "type": "uint256"
        }
      ],
      "name": "unEnroll",
      "outputs": [
        {
          "internalType": "bool",
          "name": "",
          "type": "bool"
        }
      ],
      "stateMutability": "nonpayable",
      "type": "function"
    }
  ],
  "bytecode": "0x608060405234801561001057600080fd5b5060405161b53738038061b5378339818101604052810190610032919061063b565b80806040518060400160405280600a81526020017f4142594120544f4b454e000000000000000000000000000000000000000000008152506040518060400160405280600681526020017f414259544b4e000000000000000000000000000000000000000000000000000081525081600390816100af91906108a5565b5080600490816100bf91906108a5565b505050600481511015610107576040517f08c379a00000000000000000000000000000000000000000000000000000000081526004016100fe906109fa565b60405180910390fd5b61011a6000801b336102c060201b60201c565b5061014b7fdf1425bae297c2f52b4f15d18a50b1fc8cb5b981a981b1d213ed3ff92681b64d336102c060201b60201c565b5060005b815181101561029f576101a27fc10c77be35aff266144ed64c26a1fa104bae2f284ae99ac4a34203454704a18583838151811061018f5761018e610a1a565b5b60200260200101516102c060201b60201c565b5060068282815181106101b8576101b7610a1a565b5b60200260200101519080600181540180825580915050600190039060005260206000200160009091909190916101000a81548173ffffffffffffffffffffffffffffffffffffffff021916908373ffffffffffffffffffffffffffffffffffffffff16021790555060016008600084848151811061023957610238610a1a565b5b602002602001015173ffffffffffffffffffffffffffffffffffffffff1673ffffffffffffffffffffffffffffffffffffffff16815260200190815260200160002060006101000a81548160ff021916908315150217905550808060010191505061014f565b50506001600a819055506102b9600b6103be60201b60201c565b5050610a49565b60006102d283836103fd60201b60201c565b6103b35760016005600085815260200190815260200160002060000160008473ffffffffffffffffffffffffffffffffffffffff1673ffffffffffffffffffffffffffffffffffffffff16815260200190815260200160002060006101000a81548160ff02191690831515021790555061035061046860201b60201c565b73ffffffffffffffffffffffffffffffffffffffff168273ffffffffffffffffffffffffffffffffffffffff16847f2f8788117e7eff1d82e926ec794901d17c78024a50270940304540a733656f0d60405160405180910390a4600190506103b8565b600090505b92915050565b60018160000181905550600181600101819055506001816002018190555060018160030181905550600181600401819055506001816005018190555050565b60006005600084815260200190815260200160002060000160008373ffffffffffffffffffffffffffffffffffffffff1673ffffffffffffffffffffffffffffffffffffffff16815260200190815260200160002060009054906101000a900460ff16905092915050565b600033905090565b6000604051905090565b600080fd5b600080fd5b600080fd5b6000601f19601f8301169050919050565b7f4e487b7100000000000000000000000000000000000000000000000000000000600052604160045260246000fd5b6104d282610489565b810181811067ffffffffffffffff821117156104f1576104f061049a565b5b80604052505050565b6000610504610470565b905061051082826104c9565b919050565b600067ffffffffffffffff8211156105305761052f61049a565b5b602082029050602081019050919050565b600080fd5b600073ffffffffffffffffffffffffffffffffffffffff82169050919050565b600061057182610546565b9050919050565b61058181610566565b811461058c57600080fd5b50565b60008151905061059e81610578565b92915050565b60006105b76105b284610515565b6104fa565b905080838252602082019050602084028301858111156105da576105d9610541565b5b835b8181101561060357806105ef888261058f565b8452602084019350506020810190506105dc565b5050509392505050565b600082601f83011261062257610621610484565b5b81516106328482602086016105a4565b91505092915050565b6000602082840312156106515761065061047a565b5b600082015167ffffffffffffffff81111561066f5761066e61047f565b5b61067b8482850161060d565b91505092915050565b600081519050919050565b7f4e487b7100000000000000000000000000000000000000000000000000000000600052602260045260246000fd5b600060028204905060018216806106d657607f821691505b6020821081036106e9576106e861068f565b5b50919050565b60008190508160005260206000209050919050565b60006020601f8301049050919050565b600082821b905092915050565b6000600883026107517fffffffffffffffffffffffffffffffffffffffffffffffffffffffffffffffff82610714565b61075b8683610714565b95508019841693508086168417925050509392505050565b6000819050919050565b6000819050919050565b60006107a261079d61079884610773565b61077d565b610773565b9050919050565b6000819050919050565b6107bc83610787565b6107d06107c8826107a9565b848454610721565b825550505050565b600090565b6107e56107d8565b6107f08184846107b3565b505050565b5b81811015610814576108096000826107dd565b6001810190506107f6565b5050565b601f8211156108595761082a816106ef565b61083384610704565b81016020851015610842578190505b61085661084e85610704565b8301826107f5565b50505b505050565b600082821c905092915050565b600061087c6000198460080261085e565b1980831691505092915050565b6000610895838361086b565b9150826002028217905092915050565b6108ae82610684565b67ffffffffffffffff8111156108c7576108c661049a565b5b6108d182546106be565b6108dc828285610818565b600060209050601f83116001811461090f57600084156108fd578287015190505b6109078582610889565b86555061096f565b601f19841661091d866106ef565b60005b8281101561094557848901518255600182019150602085019450602081019050610920565b86831015610962578489015161095e601f89168261086b565b8355505b6001600288020188555050505b505050505050565b600082825260208201905092915050565b7f4174206c6561737420342072657669657765727320617265207265717569726560008201527f6400000000000000000000000000000000000000000000000000000000000000602082015250565b60006109e4602183610977565b91506109ef82610988565b604082019050919050565b60006020820190508181036000830152610a13816109d7565b9050919050565b7f4e487b7100000000000000000000000000000000000000000000000000000000600052603260045260246000fd5b61aadf80610a586000396000f3fe608060405234801561001057600080fd5b506004361061048b5760003560e01c80637528499811610262578063b31a4af311610151578063d3751bfc116100ce578063ded5c18d11610092578063ded5c18d14611016578063e503f10814611034578063eb264b9c14611052578063f57d585b14611070578063fdc6258a146110a0578063ffabc673146110d05761048b565b8063d3751bfc14610f5e578063d547741f14610f7a578063d93f2caa14610f96578063dd62ed3e14610fb4578063ddfc79fb14610fe45761048b565b8063c491b04c11610115578063c491b04c14610e91578063c7954e4c14610ec1578063c90c884d14610edf578063c9442dac14610f12578063c976831514610f2e5761048b565b8063b31a4af314610dba578063bad0dd6514610dd6578063bfd2f4c514610df2578063c12804fb14610e27578063c293bbbe14610e615761048b565b8063a1cd05b1116101df578063a3f7e096116101a3578063a3f7e09614610cdc578063a9059cbb14610d0c578063aa95da3a14610d3c578063ac678a9314610d6c578063ac957c6314610d9c5761048b565b8063a1cd05b114610c0d578063a217fddf14610c3d578063a26a795314610c5b578063a296ea5814610c8b578063a3ef204114610ca95761048b565b80638ea6e2fd116102265780638ea6e2fd14610b6757806391d1485414610b8357806395d89b4114610bb35780639bce575114610bd1578063a14ecbdf14610bef5761048b565b80637528499814610ac057806375b9d86914610adc5780637d83daf214610af8578063846f815214610b1657806388409afa14610b345761048b565b806331b1b9781161037e57806352994e2f116102fb5780636a4af0fa116102bf5780636a4af0fa14610a025780636b000fa714610a205780636fdb67f714610a3e57806370a0823114610a7457806373a82b5f14610aa45761048b565b806352994e2f1461095c57806358a3fa251461097a578063599c553314610996578063632c224b146109b457806366055159146109e45761048b565b80633b129a56116103425780633b129a561461087457806340932bf8146108925780634a474b9c146108c75780634d42ef48146108f757806351d93c811461092a5761048b565b806331b1b978146107ba57806332cb6b0c146107ec57806334ed4bdb1461080a57806336568abe1461083a5780633693dcfa146108565761048b565b8063248a9ca31161040c57806329a0be65116103d057806329a0be65146106fd5780632aac61ae1461071b5780632f2ff15d146107505780632fab55af1461076c578063313ce5671461079c5761048b565b8063248a9ca314610628578063274202f01461065857806327ff622314610676578063295b825a146106945780632990db7c146106c75761048b565b806311ce15df1161045357806311ce15df1461054a57806318160ddd1461057a57806319f102ec1461059857806320bd0316146105c857806323b872dd146105f85761048b565b806301ffc9a71461049057806304e48bd1146104c0578063057f46bb146104de57806306fdde03146104fc578063095ea7b31461051a575b600080fd5b6104aa60048036038101906104a59190617a8b565b611100565b6040516104b79190617ad3565b60405180910390f35b6104c861117a565b6040516104d59190617e16565b60405180910390f35b6104e6611566565b6040516104f39190617e47565b60405180910390f35b61050461156c565b6040516105119190617eac565b60405180910390f35b610534600480360381019061052f9190617f26565b6115fe565b6040516105419190617ad3565b60405180910390f35b610564600480360381019061055f9190617f66565b611621565b6040516105719190617ad3565b60405180910390f35b610582611641565b60405161058f9190617e47565b60405180910390f35b6105b260048036038101906105ad9190617f66565b61164b565b6040516105bf9190617fa2565b60405180910390f35b6105e260048036038101906105dd9190617f66565b61168a565b6040516105ef9190617ad3565b60405180910390f35b610612600480360381019061060d9190617fbd565b61185a565b60405161061f9190617ad3565b60405180910390f35b610642600480360381019061063d9190618046565b611889565b60405161064f9190618082565b60405180910390f35b6106606118a9565b60405161066d9190617e47565b60405180910390f35b61067e6118d1565b60405161068b9190617e47565b60405180910390f35b6106ae60048036038101906106a99190617f66565b6118d6565b6040516106be949392919061809d565b60405180910390f35b6106e160048036038101906106dc9190617f66565b6119ab565b6040516106f497969594939291906180e9565b60405180910390f35b610705611b37565b6040516107129190617e47565b60405180910390f35b61073560048036038101906107309190617f66565b611b3d565b60405161074796959493929190618166565b60405180910390f35b61076a600480360381019061076591906181d5565b611ca6565b005b61078660048036038101906107819190618430565b611cc8565b6040516107939190617ad3565b60405180910390f35b6107a4611f82565b6040516107b191906184a8565b60405180910390f35b6107d460048036038101906107cf9190617f66565b611f8b565b6040516107e3939291906184c3565b60405180910390f35b6107f461203d565b6040516108019190617e47565b60405180910390f35b610824600480360381019061081f9190618501565b61204d565b6040516108319190617e47565b60405180910390f35b610854600480360381019061084f91906181d5565b61206b565b005b61085e6120e6565b60405161086b9190618082565b60405180910390f35b61087c61210a565b6040516108899190618082565b60405180910390f35b6108ac60048036038101906108a79190617f66565b61212e565b6040516108be96959493929190618583565b60405180910390f35b6108e160048036038101906108dc9190617f66565b61223f565b6040516108ee9190618816565b60405180910390f35b610911600480360381019061090c9190618838565b6124c9565b604051610921949392919061809d565b60405180910390f35b610944600480360381019061093f9190617f66565b6125ab565b604051610953939291906184c3565b60405180910390f35b61096461266d565b6040516109719190618082565b60405180910390f35b610994600480360381019061098f9190618878565b612691565b005b61099e612957565b6040516109ab9190617e47565b60405180910390f35b6109ce60048036038101906109c9919061896c565b61295c565b6040516109db9190617e47565b60405180910390f35b6109ec612b20565b6040516109f99190617e47565b60405180910390f35b610a0a612b26565b604051610a179190618b8d565b60405180910390f35b610a28612eb6565b604051610a359190617e47565b60405180910390f35b610a586004803603810190610a539190617f66565b612ebc565b604051610a6b97969594939291906180e9565b60405180910390f35b610a8e6004803603810190610a899190618501565b613058565b604051610a9b9190617e47565b60405180910390f35b610abe6004803603810190610ab99190618501565b6130a0565b005b610ada6004803603810190610ad59190617f66565b613284565b005b610af66004803603810190610af19190618baf565b6135db565b005b610b006137e9565b604051610b0d9190617e47565b60405180910390f35b610b1e6137ef565b604051610b2b9190617e47565b60405180910390f35b610b4e6004803603810190610b499190617f66565b6137fb565b604051610b5e949392919061809d565b60405180910390f35b610b816004803603810190610b7c9190617f66565b6138c0565b005b610b9d6004803603810190610b9891906181d5565b613c2a565b604051610baa9190617ad3565b60405180910390f35b610bbb613c95565b604051610bc89190617eac565b60405180910390f35b610bd9613d27565b604051610be69190618d5f565b60405180910390f35b610bf7613eb8565b604051610c049190617e47565b60405180910390f35b610c276004803603810190610c229190618838565b613ebe565b604051610c349190617fa2565b60405180910390f35b610c45613f0c565b604051610c529190618082565b60405180910390f35b610c756004803603810190610c709190618d81565b613f13565b604051610c829190617ad3565b60405180910390f35b610c936143bd565b604051610ca091906190e9565b60405180910390f35b610cc36004803603810190610cbe9190617f66565b614795565b604051610cd3949392919061809d565b60405180910390f35b610cf66004803603810190610cf19190617f66565b61485a565b604051610d039190619188565b60405180910390f35b610d266004803603810190610d219190617f26565b614bbc565b604051610d339190617ad3565b60405180910390f35b610d566004803603810190610d519190618838565b614bdf565b604051610d639190617eac565b60405180910390f35b610d866004803603810190610d819190617f66565b614c97565b604051610d939190618d5f565b60405180910390f35b610da4614dca565b604051610db19190617e47565b60405180910390f35b610dd46004803603810190610dcf919061922a565b614dcf565b005b610df06004803603810190610deb9190617f66565b6151c1565b005b610e0c6004803603810190610e079190617f66565b6154c0565b604051610e1e96959493929190618166565b60405180910390f35b610e416004803603810190610e3c919061929e565b615619565b604051610e589b9a999897969594939291906192de565b60405180910390f35b610e7b6004803603810190610e769190617f66565b61568d565b604051610e8891906193f8565b60405180910390f35b610eab6004803603810190610ea69190618501565b61572e565b604051610eb89190617ad3565b60405180910390f35b610ec961574e565b604051610ed69190617e47565b60405180910390f35b610ef96004803603810190610ef49190617f66565b615758565b604051610f09949392919061809d565b60405180910390f35b610f2c6004803603810190610f279190618501565b61582d565b005b610f486004803603810190610f43919061929e565b615b17565b604051610f559190617ad3565b60405180910390f35b610f786004803603810190610f739190619446565b615b46565b005b610f946004803603810190610f8f91906181d5565b615f3d565b005b610f9e615f5f565b604051610fab9190617e47565b60405180910390f35b610fce6004803603810190610fc991906194e5565b615f6b565b604051610fdb9190617e47565b60405180910390f35b610ffe6004803603810190610ff99190617f66565b615ff2565b60405161100d93929190619534565b60405180910390f35b61101e616149565b60405161102b9190617e47565b60405180910390f35b61103c616156565b6040516110499190617e47565b60405180910390f35b61105a61615c565b6040516110679190617e47565b60405180910390f35b61108a60048036038101906110859190617f66565b616162565b6040516110979190617ad3565b60405180910390f35b6110ba60048036038101906110b59190618501565b6164aa565b6040516110c79190617ad3565b60405180910390f35b6110ea60048036038101906110e59190617f26565b6164dd565b6040516110f79190617ad3565b60405180910390f35b60007f7965db0b000000000000000000000000000000000000000000000000000000007bffffffffffffffffffffffffffffffffffffffffffffffffffffffff1916827bffffffffffffffffffffffffffffffffffffffffffffffffffffffff1916148061117357506111728261650c565b5b9050919050565b6060600060268054905067ffffffffffffffff81111561119d5761119c61821a565b5b6040519080825280602002602001820160405280156111d657816020015b6111c36174ea565b8152602001906001900390816111bb5790505b50905060005b60268054905081101561155e576040518061010001604052806026838154811061120957611208619579565b5b90600052602060002090600702016000015481526020016026838154811061123457611233619579565b5b90600052602060002090600702016001018054611250906195d7565b80601f016020809104026020016040519081016040528092919081815260200182805461127c906195d7565b80156112c95780601f1061129e576101008083540402835291602001916112c9565b820191906000526020600020905b8154815290600101906020018083116112ac57829003601f168201915b50505050508152602001602683815481106112e7576112e6619579565b5b90600052602060002090600702016002018054611303906195d7565b80601f016020809104026020016040519081016040528092919081815260200182805461132f906195d7565b801561137c5780601f106113515761010080835404028352916020019161137c565b820191906000526020600020905b81548152906001019060200180831161135f57829003601f168201915b505050505081526020016026838154811061139a57611399619579565b5b906000526020600020906007020160030160009054906101000a900460ff1615158152602001602683815481106113d4576113d3619579565b5b9060005260206000209060070201600401548152602001602683815481106113ff576113fe619579565b5b906000526020600020906007020160050160009054906101000a900473ffffffffffffffffffffffffffffffffffffffff1673ffffffffffffffffffffffffffffffffffffffff168152602001602683815481106114605761145f619579565b5b906000526020600020906007020160050160149054906101000a900460ff16151581526020016026838154811061149a57611499619579565b5b906000526020600020906007020160060180548060200260200160405190810160405280929190818152602001828054801561152b57602002820191906000526020600020905b8160009054906101000a900473ffffffffffffffffffffffffffffffffffffffff1673ffffffffffffffffffffffffffffffffffffffff16815260200190600101908083116114e1575b505050505081525082828151811061154657611545619579565b5b602002602001018190525080806001019150506111dc565b508091505090565b60145481565b60606003805461157b906195d7565b80601f01602080910402602001604051908101604052809291908181526020018280546115a7906195d7565b80156115f45780601f106115c9576101008083540402835291602001916115f4565b820191906000526020600020905b8154815290600101906020018083116115d757829003601f168201915b5050505050905090565b600080611609616576565b905061161681858561657e565b600191505092915050565b60246020528060005260406000206000915054906101000a900460ff1681565b6000600254905090565b6006818154811061165b57600080fd5b906000526020600020016000915054906101000a900473ffffffffffffffffffffffffffffffffffffffff1681565b6000611694616590565b6025600083815260200190815260200160002060003373ffffffffffffffffffffffffffffffffffffffff1673ffffffffffffffffffffffffffffffffffffffff16815260200190815260200160002060009054906101000a900460ff16611731576040517f08c379a000000000000000000000000000000000000000000000000000000000815260040161172890619654565b60405180910390fd5b600060196000848152602001908152602001600020905060006026848154811061175e5761175d619579565b5b9060005260206000209060070201905061177b82600601336165d6565b61178881600601336165d6565b60006025600086815260200190815260200160002060003373ffffffffffffffffffffffffffffffffffffffff1673ffffffffffffffffffffffffffffffffffffffff16815260200190815260200160002060006101000a81548160ff02191690831515021790555061180333671bc16d674ec80000616773565b3373ffffffffffffffffffffffffffffffffffffffff16847f9b244c565b926d7f4e915b69f3a5c6afc2231322d0d44e821076ad8879d0d68360405160405180910390a360019250505061185561679a565b919050565b600080611865616576565b90506118728582856167a4565b61187d858585616838565b60019150509392505050565b600060056000838152602001908152602001600020600101549050919050565b6064600f6b204fce5e3e250261100000006118c491906196a3565b6118ce9190619714565b81565b606481565b602a81815481106118e657600080fd5b9060005260206000209060050201600091509050806000015490806001015490806002018054611915906195d7565b80601f0160208091040260200160405190810160405280929190818152602001828054611941906195d7565b801561198e5780601f106119635761010080835404028352916020019161198e565b820191906000526020600020905b81548152906001019060200180831161197157829003601f168201915b5050505050908060040160009054906101000a900460ff16905084565b60196020528060005260406000206000915090508060000154908060010180546119d4906195d7565b80601f0160208091040260200160405190810160405280929190818152602001828054611a00906195d7565b8015611a4d5780601f10611a2257610100808354040283529160200191611a4d565b820191906000526020600020905b815481529060010190602001808311611a3057829003601f168201915b505050505090806002018054611a62906195d7565b80601f0160208091040260200160405190810160405280929190818152602001828054611a8e906195d7565b8015611adb5780601f10611ab057610100808354040283529160200191611adb565b820191906000526020600020905b815481529060010190602001808311611abe57829003601f168201915b5050505050908060030160009054906101000a900460ff16908060040154908060050160009054906101000a900473ffffffffffffffffffffffffffffffffffffffff16908060050160149054906101000a900460ff16905087565b60155481565b60288181548110611b4d57600080fd5b9060005260206000209060240201600091509050806000015490806001015490806002018054611b7c906195d7565b80601f0160208091040260200160405190810160405280929190818152602001828054611ba8906195d7565b8015611bf55780601f10611bca57610100808354040283529160200191611bf5565b820191906000526020600020905b815481529060010190602001808311611bd857829003601f168201915b505050505090806003018054611c0a906195d7565b80601f0160208091040260200160405190810160405280929190818152602001828054611c36906195d7565b8015611c835780601f10611c5857610100808354040283529160200191611c83565b820191906000526020600020905b815481529060010190602001808311611c6657829003601f168201915b5050505050908060220154908060230160009054906101000a900460ff16905086565b611caf82611889565b611cb88161692c565b611cc28383616940565b50505050565b60008073ffffffffffffffffffffffffffffffffffffffff166019600085815260200190815260200160002060050160009054906101000a900473ffffffffffffffffffffffffffffffffffffffff1673ffffffffffffffffffffffffffffffffffffffff1603611d6e576040517f08c379a0000000000000000000000000000000000000000000000000000000008152600401611d6590619791565b60405180910390fd5b60005b8251811015611f4857600060405180608001604052808681526020016014548152602001858481518110611da857611da7619579565b5b60200260200101518152602001600115158152509050602781908060018154018082558091505060019003906000526020600020906004020160009091909190915060008201518160000155602082015181600101556040820151816002019081611e13919061995d565b5060608201518160030160006101000a81548160ff021916908315150217905550505080601d6000601454815260200190815260200160002060008201518160000155602082015181600101556040820151816002019081611e75919061995d565b5060608201518160030160006101000a81548160ff021916908315150217905550905050601e600086815260200190815260200160002081908060018154018082558091505060019003906000526020600020906004020160009091909190915060008201518160000155602082015181600101556040820151816002019081611eff919061995d565b5060608201518160030160006101000a81548160ff021916908315150217905550505060146000815480929190611f3590619a2f565b9190505550508080600101915050611d71565b508151837f1eb97e969f52c132bb6c79817d1f9001078fff0cd328ce625628e1fb4cc0e7de60405160405180910390a36001905092915050565b60006012905090565b6022602052806000526040600020600091509050806000015490806001015490806002018054611fba906195d7565b80601f0160208091040260200160405190810160405280929190818152602001828054611fe6906195d7565b80156120335780601f1061200857610100808354040283529160200191612033565b820191906000526020600020905b81548152906001019060200180831161201657829003601f168201915b5050505050905083565b6b204fce5e3e2502611000000081565b601b6020528060005260406000206000915090508060000154905081565b612073616576565b73ffffffffffffffffffffffffffffffffffffffff168173ffffffffffffffffffffffffffffffffffffffff16146120d7576040517f6697b23200000000000000000000000000000000000000000000000000000000815260040160405180910390fd5b6120e18282616a32565b505050565b7fadb22091b155738d2e889eb96f509d2a7c93234236b30400927feb4a6a15ab0081565b7fc10c77be35aff266144ed64c26a1fa104bae2f284ae99ac4a34203454704a18581565b60096020528060005260406000206000915090508060000154908060010160009054906101000a900473ffffffffffffffffffffffffffffffffffffffff16908060020160009054906101000a900473ffffffffffffffffffffffffffffffffffffffff16908060030180546121a3906195d7565b80601f01602080910402602001604051908101604052809291908181526020018280546121cf906195d7565b801561221c5780601f106121f15761010080835404028352916020019161221c565b820191906000526020600020905b8154815290600101906020018083116121ff57829003601f168201915b5050505050908060040154908060050160009054906101000a900460ff16905086565b60606021600083815260200190815260200160002060040160009054906101000a900460ff166122a4576040517f08c379a000000000000000000000000000000000000000000000000000000000815260040161229b90619ac3565b60405180910390fd5b60216000838152602001908152602001600020600301805480602002602001604051908101604052809291908181526020016000905b828210156124be57838290600052602060002090600402016040518060800160405290816000820154815260200160018201548152602001600282018054612321906195d7565b80601f016020809104026020016040519081016040528092919081815260200182805461234d906195d7565b801561239a5780601f1061236f5761010080835404028352916020019161239a565b820191906000526020600020905b81548152906001019060200180831161237d57829003601f168201915b5050505050815260200160038201805480602002602001604051908101604052809291908181526020016000905b828210156124a757838290600052602060002090600202016040518060400160405290816000820180546123fb906195d7565b80601f0160208091040260200160405190810160405280929190818152602001828054612427906195d7565b80156124745780601f1061244957610100808354040283529160200191612474565b820191906000526020600020905b81548152906001019060200180831161245757829003601f168201915b505050505081526020016001820160009054906101000a900460ff161515151581525050815260200190600101906123c8565b5050505081525050815260200190600101906122da565b505050509050919050565b601e60205281600052604060002081815481106124e557600080fd5b906000526020600020906004020160009150915050806000015490806001015490806002018054612515906195d7565b80601f0160208091040260200160405190810160405280929190818152602001828054612541906195d7565b801561258e5780601f106125635761010080835404028352916020019161258e565b820191906000526020600020905b81548152906001019060200180831161257157829003601f168201915b5050505050908060030160009054906101000a900460ff16905084565b602b81815481106125bb57600080fd5b90600052602060002090600402016000915090508060000154908060010154908060020180546125ea906195d7565b80601f0160208091040260200160405190810160405280929190818152602001828054612616906195d7565b80156126635780601f1061263857610100808354040283529160200191612663565b820191906000526020600020905b81548152906001019060200180831161264657829003601f168201915b5050505050905083565b7fdf1425bae297c2f52b4f15d18a50b1fc8cb5b981a981b1d213ed3ff92681b64d81565b7fc10c77be35aff266144ed64c26a1fa104bae2f284ae99ac4a34203454704a1856126bb8161692c565b6126c58c33616b25565b612704576040517f08c379a00000000000000000000000000000000000000000000000000000000081526004016126fb90619b55565b60405180910390fd5b601a60008d815260200190815260200160002060003373ffffffffffffffffffffffffffffffffffffffff1673ffffffffffffffffffffffffffffffffffffffff168152602001908152602001600020600a0160009054906101000a900460ff16156127a5576040517f08c379a000000000000000000000000000000000000000000000000000000000815260040161279c90619be7565b60405180910390fd5b6127b78b8b8b8b8b8b8b8b8b8b616bf0565b6040518061016001604052808c81526020018b81526020018a815260200189815260200188815260200187815260200186815260200185815260200184815260200183815260200160011515815250601a60008e815260200190815260200160002060003373ffffffffffffffffffffffffffffffffffffffff1673ffffffffffffffffffffffffffffffffffffffff168152602001908152602001600020600082015181600001556020820151816001015560408201518160020155606082015181600301556080820151816004015560a0820151816005015560c0820151816006015560e082015181600701556101008201518160080155610120820151816009015561014082015181600a0160006101000a81548160ff021916908315150217905550905050605061293a601a60008f815260200190815260200160002060003373ffffffffffffffffffffffffffffffffffffffff1673ffffffffffffffffffffffffffffffffffffffff168152602001908152602001600020616cb5565b10612949576129488c613284565b5b505050505050505050505050565b600281565b6000806016549050601f600085815260200190815260200160002060230160009054906101000a900460ff166129c7576040517f08c379a00000000000000000000000000000000000000000000000000000000081526004016129be90619c53565b60405180910390fd5b600060216000838152602001908152602001600020905084816000018190555081816001018190555083816002019081612a01919061995d565b5060018160040160006101000a81548160ff02191690831515021790555060166000815480929190612a3290619a2f565b9190505550602a819080600181540180825580915050600190039060005260206000209060050201600090919091909150600082015481600001556001820154816001015560028201816002019081612a8b9190619c89565b506003820181600301908054612aa2929190617549565b506004820160009054906101000a900460ff168160040160006101000a81548160ff021916908315150217905550505083604051612ae09190619dad565b6040518091039020827fbf27702cefbc4aea50d7c73cfee96f84f5b908f62aeafcd8b0aeae202c15050960405160405180910390a3819250505092915050565b60125481565b60606000601654905060008167ffffffffffffffff811115612b4b57612b4a61821a565b5b604051908082528060200260200182016040528015612b8457816020015b612b716175e1565b815260200190600190039081612b695790505b50905060005b82811015612ead57602160008281526020019081526020016000206040518060a00160405290816000820154815260200160018201548152602001600282018054612bd4906195d7565b80601f0160208091040260200160405190810160405280929190818152602001828054612c00906195d7565b8015612c4d5780601f10612c2257610100808354040283529160200191612c4d565b820191906000526020600020905b815481529060010190602001808311612c3057829003601f168201915b5050505050815260200160038201805480602002602001604051908101604052809291908181526020016000905b82821015612e5f57838290600052602060002090600402016040518060800160405290816000820154815260200160018201548152602001600282018054612cc2906195d7565b80601f0160208091040260200160405190810160405280929190818152602001828054612cee906195d7565b8015612d3b5780601f10612d1057610100808354040283529160200191612d3b565b820191906000526020600020905b815481529060010190602001808311612d1e57829003601f168201915b5050505050815260200160038201805480602002602001604051908101604052809291908181526020016000905b82821015612e485783829060005260206000209060020201604051806040016040529081600082018054612d9c906195d7565b80601f0160208091040260200160405190810160405280929190818152602001828054612dc8906195d7565b8015612e155780601f10612dea57610100808354040283529160200191612e15565b820191906000526020600020905b815481529060010190602001808311612df857829003601f168201915b505050505081526020016001820160009054906101000a900460ff16151515158152505081526020019060010190612d69565b505050508152505081526020019060010190612c7b565b5050505081526020016004820160009054906101000a900460ff161515151581525050828281518110612e9557612e94619579565b5b60200260200101819052508080600101915050612b8a565b50809250505090565b60185481565b60268181548110612ecc57600080fd5b9060005260206000209060070201600091509050806000015490806001018054612ef5906195d7565b80601f0160208091040260200160405190810160405280929190818152602001828054612f21906195d7565b8015612f6e5780601f10612f4357610100808354040283529160200191612f6e565b820191906000526020600020905b815481529060010190602001808311612f5157829003601f168201915b505050505090806002018054612f83906195d7565b80601f0160208091040260200160405190810160405280929190818152602001828054612faf906195d7565b8015612ffc5780601f10612fd157610100808354040283529160200191612ffc565b820191906000526020600020905b815481529060010190602001808311612fdf57829003601f168201915b5050505050908060030160009054906101000a900460ff16908060040154908060050160009054906101000a900473ffffffffffffffffffffffffffffffffffffffff16908060050160149054906101000a900460ff16905087565b60008060008373ffffffffffffffffffffffffffffffffffffffff1673ffffffffffffffffffffffffffffffffffffffff168152602001908152602001600020549050919050565b7fc10c77be35aff266144ed64c26a1fa104bae2f284ae99ac4a34203454704a1856130ca8161692c565b600860008373ffffffffffffffffffffffffffffffffffffffff1673ffffffffffffffffffffffffffffffffffffffff16815260200190815260200160002060009054906101000a900460ff1615613157576040517f08c379a000000000000000000000000000000000000000000000000000000000815260040161314e90619e10565b60405180910390fd5b6131817fc10c77be35aff266144ed64c26a1fa104bae2f284ae99ac4a34203454704a18583616940565b506006829080600181540180825580915050600190039060005260206000200160009091909190916101000a81548173ffffffffffffffffffffffffffffffffffffffff021916908373ffffffffffffffffffffffffffffffffffffffff1602179055506001600860008473ffffffffffffffffffffffffffffffffffffffff1673ffffffffffffffffffffffffffffffffffffffff16815260200190815260200160002060006101000a81548160ff0219169083151502179055508173ffffffffffffffffffffffffffffffffffffffff167fe1cb5e1230cc02e62c60b81c1aa5ade512f3eac296edb28628b4cf344f47f93160405160405180910390a25050565b7fc10c77be35aff266144ed64c26a1fa104bae2f284ae99ac4a34203454704a1856132ae8161692c565b60006019600084815260200190815260200160002090508060030160009054906101000a900460ff1615613317576040517f08c379a000000000000000000000000000000000000000000000000000000000815260040161330e90619e7c565b60405180910390fd5b601c60003373ffffffffffffffffffffffffffffffffffffffff1673ffffffffffffffffffffffffffffffffffffffff168152602001908152602001600020600084815260200190815260200160002060009054906101000a900460ff16156133b5576040517f08c379a00000000000000000000000000000000000000000000000000000000081526004016133ac90619f0e565b60405180910390fd5b6001601c60003373ffffffffffffffffffffffffffffffffffffffff1673ffffffffffffffffffffffffffffffffffffffff168152602001908152602001600020600085815260200190815260200160002060006101000a81548160ff02191690831515021790555080600401600081548092919061343390619a2f565b919050555060028160040154106135585760018160030160006101000a81548160ff02191690831515021790555060005b60268054905081101561351b57836026828154811061348657613485619579565b5b9060005260206000209060070201600001540361350e576001602682815481106134b3576134b2619579565b5b906000526020600020906007020160030160006101000a81548160ff0219169083151502179055508160040154602682815481106134f4576134f3619579565b5b90600052602060002090600702016004018190555061351b565b8080600101915050613464565b506135528160050160009054906101000a900473ffffffffffffffffffffffffffffffffffffffff16674563918244f40000616d4a565b506135d6565b60005b6026805490508110156135d457836026828154811061357d5761357c619579565b5b906000526020600020906007020160000154036135c7578160040154602682815481106135ad576135ac619579565b5b9060005260206000209060070201600401819055506135d4565b808060010191505061355b565b505b505050565b60006015549050601d600085815260200190815260200160002060030160009054906101000a900460ff16613645576040517f08c379a000000000000000000000000000000000000000000000000000000000815260040161363c90619f7a565b60405180910390fd5b6000601f600083815260200190815260200160002090508481600001819055508181600101819055508381600201908161367f919061995d565b5082816003019081613691919061995d565b5060018160230160006101000a81548160ff021916908315150217905550600081602201819055506028601f6000848152602001908152602001600020908060018154018082558091505060019003906000526020600020906024020160009091909190915060008201548160000155600182015481600101556002820181600201908161371f9190619c89565b50600382018160030190816137349190619c89565b50600482018160040190600a61374b929190617612565b50602282015481602201556023820160009054906101000a900460ff168160230160006101000a81548160ff02191690831515021790555050506015600081548092919061379890619a2f565b9190505550600a846040516137ad9190619dad565b6040518091039020837f3387c3a40ec1df95e34d25a0e5564b40d01c331b71ccbafccccc66d36c84ad8360405160405180910390a45050505050565b60135481565b671bc16d674ec8000081565b602160205280600052604060002060009150905080600001549080600101549080600201805461382a906195d7565b80601f0160208091040260200160405190810160405280929190818152602001828054613856906195d7565b80156138a35780601f10613878576101008083540402835291602001916138a3565b820191906000526020600020905b81548152906001019060200180831161388657829003601f168201915b5050505050908060040160009054906101000a900460ff16905084565b7fadb22091b155738d2e889eb96f509d2a7c93234236b30400927feb4a6a15ab006138ea8161692c565b6024600083815260200190815260200160002060009054906101000a900460ff161561394b576040517f08c379a000000000000000000000000000000000000000000000000000000000815260040161394290619fe6565b60405180910390fd5b60036006805490501015613994576040517f08c379a000000000000000000000000000000000000000000000000000000000815260040161398b9061a052565b60405180910390fd5b6023600083815260200190815260200160002060006139b391906176bc565b60005b6003811015613b905760006006805490504244600680549050856040516020016139e3949392919061a093565b6040516020818303038152906040528051906020012060001c613a06919061a0e1565b9050600060068281548110613a1e57613a1d619579565b5b9060005260206000200160009054906101000a900473ffffffffffffffffffffffffffffffffffffffff1690506000805b6023600088815260200190815260200160002080549050811015613b05578273ffffffffffffffffffffffffffffffffffffffff16602360008981526020019081526020016000208281548110613aa957613aa8619579565b5b9060005260206000200160009054906101000a900473ffffffffffffffffffffffffffffffffffffffff1673ffffffffffffffffffffffffffffffffffffffff1603613af85760019150613b05565b8080600101915050613a4f565b5080613b805760236000878152602001908152602001600020829080600181540180825580915050600190039060005260206000200160009091909190916101000a81548173ffffffffffffffffffffffffffffffffffffffff021916908373ffffffffffffffffffffffffffffffffffffffff1602179055505b50505080806001019150506139b6565b506003602360008481526020019081526020016000208054905003613bdc5760016024600084815260200190815260200160002060006101000a81548160ff0219169083151502179055505b817fe205dff861c570b8df17e26f893778853f94bb25d2de318755e48eab0b403ff760236000858152602001908152602001600020604051613c1e919061a1fe565b60405180910390a25050565b60006005600084815260200190815260200160002060000160008373ffffffffffffffffffffffffffffffffffffffff1673ffffffffffffffffffffffffffffffffffffffff16815260200190815260200160002060009054906101000a900460ff16905092915050565b606060048054613ca4906195d7565b80601f0160208091040260200160405190810160405280929190818152602001828054613cd0906195d7565b8015613d1d5780601f10613cf257610100808354040283529160200191613d1d565b820191906000526020600020905b815481529060010190602001808311613d0057829003601f168201915b5050505050905090565b60606000602780549050905060008167ffffffffffffffff811115613d4f57613d4e61821a565b5b604051908082528060200260200182016040528015613d8857816020015b613d756176dd565b815260200190600190039081613d6d5790505b50905060005b82811015613eaf5760278181548110613daa57613da9619579565b5b90600052602060002090600402016040518060800160405290816000820154815260200160018201548152602001600282018054613de7906195d7565b80601f0160208091040260200160405190810160405280929190818152602001828054613e13906195d7565b8015613e605780601f10613e3557610100808354040283529160200191613e60565b820191906000526020600020905b815481529060010190602001808311613e4357829003601f168201915b505050505081526020016003820160009054906101000a900460ff161515151581525050828281518110613e9757613e96619579565b5b60200260200101819052508080600101915050613d8e565b50809250505090565b60115481565b60236020528160005260406000208181548110613eda57600080fd5b906000526020600020016000915091509054906101000a900473ffffffffffffffffffffffffffffffffffffffff1681565b6000801b81565b60008073ffffffffffffffffffffffffffffffffffffffff1660196000601354815260200190815260200160002060050160009054906101000a900473ffffffffffffffffffffffffffffffffffffffff1673ffffffffffffffffffffffffffffffffffffffff1614613fbb576040517f08c379a0000000000000000000000000000000000000000000000000000000008152600401613fb29061a26c565b60405180910390fd5b60006040518061010001604052806013548152602001858152602001848152602001600015158152602001600081526020013373ffffffffffffffffffffffffffffffffffffffff168152602001600115158152602001600067ffffffffffffffff81111561402d5761402c61821a565b5b60405190808252806020026020018201604052801561405b5781602001602082028036833780820191505090505b50815250905080601960006013548152602001908152602001600020600082015181600001556020820151816001019081614096919061995d565b5060408201518160020190816140ac919061995d565b5060608201518160030160006101000a81548160ff0219169083151502179055506080820151816004015560a08201518160050160006101000a81548173ffffffffffffffffffffffffffffffffffffffff021916908373ffffffffffffffffffffffffffffffffffffffff16021790555060c08201518160050160146101000a81548160ff02191690831515021790555060e082015181600601908051906020019061415a929190617707565b5090505060268190806001815401808255809150506001900390600052602060002090600702016000909190919091506000820151816000015560208201518160010190816141a9919061995d565b5060408201518160020190816141bf919061995d565b5060608201518160030160006101000a81548160ff0219169083151502179055506080820151816004015560a08201518160050160006101000a81548173ffffffffffffffffffffffffffffffffffffffff021916908373ffffffffffffffffffffffffffffffffffffffff16021790555060c08201518160050160146101000a81548160ff02191690831515021790555060e082015181600601908051906020019061426d929190617707565b5050506012600081548092919061428390619a2f565b91905055506001601b60003373ffffffffffffffffffffffffffffffffffffffff1673ffffffffffffffffffffffffffffffffffffffff16815260200190815260200160002060000160008282546142db919061a28c565b92505081905550601360008154809291906142f590619a2f565b91905055506143247fadb22091b155738d2e889eb96f509d2a7c93234236b30400927feb4a6a15ab0033616940565b50836040516143339190619dad565b6040518091039020600160135461434a919061a2c0565b7f9c93a42b217373d37e6c66ace0a67fe1fa1f78c93164b62417de69c48c0f67e260196000600160135461437e919061a2c0565b815260200190815260200160002060030160009054906101000a900460ff166040516143aa9190617ad3565b60405180910390a3600191505092915050565b60606000602880549050905060008167ffffffffffffffff8111156143e5576143e461821a565b5b60405190808252806020026020018201604052801561441e57816020015b61440b617791565b8152602001906001900390816144035790505b50905060005b8281101561478c57602881815481106144405761443f619579565b5b90600052602060002090602402016040518060e0016040529081600082015481526020016001820154815260200160028201805461447d906195d7565b80601f01602080910402602001604051908101604052809291908181526020018280546144a9906195d7565b80156144f65780601f106144cb576101008083540402835291602001916144f6565b820191906000526020600020905b8154815290600101906020018083116144d957829003601f168201915b5050505050815260200160038201805461450f906195d7565b80601f016020809104026020016040519081016040528092919081815260200182805461453b906195d7565b80156145885780601f1061455d57610100808354040283529160200191614588565b820191906000526020600020905b81548152906001019060200180831161456b57829003601f168201915b5050505050815260200160048201600a80602002604051908101604052809291906000905b82821015614734578382600302016040518060600160405290816000820160009054906101000a900460ff1660028111156145eb576145ea618e45565b5b60028111156145fd576145fc618e45565b5b8152602001600182018054614611906195d7565b80601f016020809104026020016040519081016040528092919081815260200182805461463d906195d7565b801561468a5780601f1061465f5761010080835404028352916020019161468a565b820191906000526020600020905b81548152906001019060200180831161466d57829003601f168201915b505050505081526020016002820180546146a3906195d7565b80601f01602080910402602001604051908101604052809291908181526020018280546146cf906195d7565b801561471c5780601f106146f15761010080835404028352916020019161471c565b820191906000526020600020905b8154815290600101906020018083116146ff57829003601f168201915b505050505081525050815260200190600101906145ad565b505050508152602001602282015481526020016023820160009054906101000a900460ff16151515158152505082828151811061477457614773619579565b5b60200260200101819052508080600101915050614424565b50809250505090565b601d6020528060005260406000206000915090508060000154908060010154908060020180546147c4906195d7565b80601f01602080910402602001604051908101604052809291908181526020018280546147f0906195d7565b801561483d5780601f106148125761010080835404028352916020019161483d565b820191906000526020600020905b81548152906001019060200180831161482057829003601f168201915b5050505050908060030160009054906101000a900460ff16905084565b6148626175e1565b6021600083815260200190815260200160002060040160009054906101000a900460ff166148c5576040517f08c379a00000000000000000000000000000000000000000000000000000000081526004016148bc90619ac3565b60405180910390fd5b602160008381526020019081526020016000206040518060a00160405290816000820154815260200160018201548152602001600282018054614907906195d7565b80601f0160208091040260200160405190810160405280929190818152602001828054614933906195d7565b80156149805780601f1061495557610100808354040283529160200191614980565b820191906000526020600020905b81548152906001019060200180831161496357829003601f168201915b5050505050815260200160038201805480602002602001604051908101604052809291908181526020016000905b82821015614b92578382906000526020600020906004020160405180608001604052908160008201548152602001600182015481526020016002820180546149f5906195d7565b80601f0160208091040260200160405190810160405280929190818152602001828054614a21906195d7565b8015614a6e5780601f10614a4357610100808354040283529160200191614a6e565b820191906000526020600020905b815481529060010190602001808311614a5157829003601f168201915b5050505050815260200160038201805480602002602001604051908101604052809291908181526020016000905b82821015614b7b5783829060005260206000209060020201604051806040016040529081600082018054614acf906195d7565b80601f0160208091040260200160405190810160405280929190818152602001828054614afb906195d7565b8015614b485780601f10614b1d57610100808354040283529160200191614b48565b820191906000526020600020905b815481529060010190602001808311614b2b57829003601f168201915b505050505081526020016001820160009054906101000a900460ff16151515158152505081526020019060010190614a9c565b5050505081525050815260200190600101906149ae565b5050505081526020016004820160009054906101000a900460ff1615151515815250509050919050565b600080614bc7616576565b9050614bd4818585616838565b600191505092915050565b602080528160005260406000208181548110614bfa57600080fd5b90600052602060002001600091509150508054614c16906195d7565b80601f0160208091040260200160405190810160405280929190818152602001828054614c42906195d7565b8015614c8f5780601f10614c6457610100808354040283529160200191614c8f565b820191906000526020600020905b815481529060010190602001808311614c7257829003601f168201915b505050505081565b6060601e6000838152602001908152602001600020805480602002602001604051908101604052809291908181526020016000905b82821015614dbf57838290600052602060002090600402016040518060800160405290816000820154815260200160018201548152602001600282018054614d13906195d7565b80601f0160208091040260200160405190810160405280929190818152602001828054614d3f906195d7565b8015614d8c5780601f10614d6157610100808354040283529160200191614d8c565b820191906000526020600020905b815481529060010190602001808311614d6f57829003601f168201915b505050505081526020016003820160009054906101000a900460ff16151515158152505081526020019060010190614ccc565b505050509050919050565b605081565b7fadb22091b155738d2e889eb96f509d2a7c93234236b30400927feb4a6a15ab00614df98161692c565b6000601f600087815260200190815260200160002090508060230160009054906101000a900460ff16614e61576040517f08c379a0000000000000000000000000000000000000000000000000000000008152600401614e589061a340565b60405180910390fd5b600081602201549050600a8585905082614e7b919061a28c565b1115614ebc576040517f08c379a0000000000000000000000000000000000000000000000000000000008152600401614eb39061a3ac565b60405180910390fd5b60005b858590508110156150ad576040518060600160405280878784818110614ee857614ee7619579565b5b9050602002810190614efa919061a3db565b6000016020810190614f0c919061a403565b6002811115614f1e57614f1d618e45565b5b8152602001878784818110614f3657614f35619579565b5b9050602002810190614f48919061a3db565b8060200190614f57919061a430565b8080601f016020809104026020016040519081016040528093929190818152602001838380828437600081840152601f19601f820116905080830192505050505050508152602001878784818110614fb257614fb1619579565b5b9050602002810190614fc4919061a3db565b8060400190614fd3919061a430565b8080601f016020809104026020016040519081016040528093929190818152602001838380828437600081840152601f19601f820116905080830192505050505050508152508360040183600a811061502f5761502e619579565b5b6003020160008201518160000160006101000a81548160ff0219169083600281111561505e5761505d618e45565b5b02179055506020820151816001019081615078919061995d565b50604082015181600201908161508e919061995d565b50905050818061509d90619a2f565b9250508080600101915050614ebf565b5080826022018190555060005b6028805490508110156151b75787602882815481106150dc576150db619579565b5b906000526020600020906024020160010154036151aa57826028828154811061510857615107619579565b5b906000526020600020906024020160008201548160000155600182015481600101556002820181600201908161513e9190619c89565b50600382018160030190816151539190619c89565b50600482018160040190600a61516a929190617612565b50602282015481602201556023820160009054906101000a900460ff168160230160006101000a81548160ff0219169083151502179055509050506151b7565b80806001019150506150ba565b5050505050505050565b7fdf1425bae297c2f52b4f15d18a50b1fc8cb5b981a981b1d213ed3ff92681b64d6151eb8161692c565b60006009600084815260200190815260200160002090508060050160009054906101000a900460ff1615615254576040517f08c379a000000000000000000000000000000000000000000000000000000000815260040161524b9061a4df565b60405180910390fd5b8060060160003373ffffffffffffffffffffffffffffffffffffffff1673ffffffffffffffffffffffffffffffffffffffff16815260200190815260200160002060009054906101000a900460ff16156152e3576040517f08c379a00000000000000000000000000000000000000000000000000000000081526004016152da9061a54b565b60405180910390fd5b60018160060160003373ffffffffffffffffffffffffffffffffffffffff1673ffffffffffffffffffffffffffffffffffffffff16815260200190815260200160002060006101000a81548160ff02191690831515021790555080600401600081548092919061535290619a2f565b9190505550827f5d4ccf5f92566d140246f4ae3b9cb35dc06fff109a7748602ad77f6260fd9a61336040516153879190617fa2565b60405180910390a260038160040154106154bb5760008160020160009054906101000a900473ffffffffffffffffffffffffffffffffffffffff1673ffffffffffffffffffffffffffffffffffffffff16826003016040516153e9919061a60e565b6000604051808303816000865af19150503d8060008114615426576040519150601f19603f3d011682016040523d82523d6000602084013e61542b565b606091505b505090508061546f576040517f08c379a00000000000000000000000000000000000000000000000000000000081526004016154669061a671565b60405180910390fd5b60018260050160006101000a81548160ff021916908315150217905550837f7770356c29230b95943aec59d47ead11eb426a728bf5b57f7fd8597f3c0e29ba60405160405180910390a2505b505050565b601f6020528060005260406000206000915090508060000154908060010154908060020180546154ef906195d7565b80601f016020809104026020016040519081016040528092919081815260200182805461551b906195d7565b80156155685780601f1061553d57610100808354040283529160200191615568565b820191906000526020600020905b81548152906001019060200180831161554b57829003601f168201915b50505050509080600301805461557d906195d7565b80601f01602080910402602001604051908101604052809291908181526020018280546155a9906195d7565b80156155f65780601f106155cb576101008083540402835291602001916155f6565b820191906000526020600020905b8154815290600101906020018083116155d957829003601f168201915b5050505050908060220154908060230160009054906101000a900460ff16905086565b601a6020528160005260406000206020528060005260406000206000915091505080600001549080600101549080600201549080600301549080600401549080600501549080600601549080600701549080600801549080600901549080600a0160009054906101000a900460ff1690508b565b60606023600083815260200190815260200160002080548060200260200160405190810160405280929190818152602001828054801561572257602002820191906000526020600020905b8160009054906101000a900473ffffffffffffffffffffffffffffffffffffffff1673ffffffffffffffffffffffffffffffffffffffff16815260200190600101908083116156d8575b50505050509050919050565b60086020528060005260406000206000915054906101000a900460ff1681565b6000601154905090565b6027818154811061576857600080fd5b9060005260206000209060040201600091509050806000015490806001015490806002018054615797906195d7565b80601f01602080910402602001604051908101604052809291908181526020018280546157c3906195d7565b80156158105780601f106157e557610100808354040283529160200191615810565b820191906000526020600020905b8154815290600101906020018083116157f357829003601f168201915b5050505050908060030160009054906101000a900460ff16905084565b6000801b61583a8161692c565b600860008373ffffffffffffffffffffffffffffffffffffffff1673ffffffffffffffffffffffffffffffffffffffff16815260200190815260200160002060009054906101000a900460ff166158c6576040517f08c379a00000000000000000000000000000000000000000000000000000000081526004016158bd9061a6dd565b60405180910390fd5b60005b600680549050811015615a4c578273ffffffffffffffffffffffffffffffffffffffff166006828154811061590157615900619579565b5b9060005260206000200160009054906101000a900473ffffffffffffffffffffffffffffffffffffffff1673ffffffffffffffffffffffffffffffffffffffff1603615a3f576006600160068054905061595b919061a2c0565b8154811061596c5761596b619579565b5b9060005260206000200160009054906101000a900473ffffffffffffffffffffffffffffffffffffffff16600682815481106159ab576159aa619579565b5b9060005260206000200160006101000a81548173ffffffffffffffffffffffffffffffffffffffff021916908373ffffffffffffffffffffffffffffffffffffffff1602179055506006805480615a0557615a0461a6fd565b5b6001900381819060005260206000200160006101000a81549073ffffffffffffffffffffffffffffffffffffffff02191690559055615a4c565b80806001019150506158c9565b506000600860008473ffffffffffffffffffffffffffffffffffffffff1673ffffffffffffffffffffffffffffffffffffffff16815260200190815260200160002060006101000a81548160ff021916908315150217905550615acf7fc10c77be35aff266144ed64c26a1fa104bae2f284ae99ac4a34203454704a18583616a32565b508173ffffffffffffffffffffffffffffffffffffffff167f55dba9d79522b91b615629d5f3b10c2fad2d258f1768614f4a52e937ada0d0ba60405160405180910390a25050565b60256020528160005260406000206020528060005260406000206000915091509054906101000a900460ff1681565b6021600085815260200190815260200160002060040160009054906101000a900460ff16615ba9576040517f08c379a0000000000000000000000000000000000000000000000000000000008152600401615ba090619ac3565b60405180910390fd5b60008251118015615bbc57506004825111155b615bfb576040517f08c379a0000000000000000000000000000000000000000000000000000000008152600401615bf29061a778565b60405180910390fd5b81518160ff1610615c41576040517f08c379a0000000000000000000000000000000000000000000000000000000008152600401615c389061a7e4565b60405180910390fd5b60006017549050600060226000838152602001908152602001600020905085816000018190555081816001018190555084816002019081615c82919061995d565b5060005b84518160ff161015615d4c5760006040518060400160405280878460ff1681518110615cb557615cb4619579565b5b602002602001015181526020018660ff168460ff161415158152509050826003018190806001815401808255809150506001900390600052602060002090600202016000909190919091506000820151816000019081615d15919061995d565b5060208201518160010160006101000a81548160ff0219169083151502179055505050508080615d449061a804565b915050615c86565b5060216000878152602001908152602001600020600301819080600181540180825580915050600190039060005260206000209060040201600090919091909150600082015481600001556001820154816001015560028201816002019081615db59190619c89565b506003820181600301908054615dcc9291906177d6565b50505060176000815480929190615de290619a2f565b9190505550602b819080600181540180825580915050600190039060005260206000209060040201600090919091909150600082015481600001556001820154816001015560028201816002019081615e3b9190619c89565b506003820181600301908054615e529291906177d6565b5050507fa5bdacf4d1324fdd584bc65cf0315e4975d00b33a7ca0e6d0a73c88df8430b95868387604051615e88939291906184c3565b60405180910390a160005b84518160ff161015615f1a577f06ef0ba2ad58c9f8eef2fc98c08fd18d801c4a971eeb45afd07f0fee3f9d60c4838260ff16601854615ed2919061a28c565b878460ff1681518110615ee857615ee7619579565b5b6020026020010151604051615eff939291906184c3565b60405180910390a18080615f129061a804565b915050615e93565b50835160186000828254615f2e919061a28c565b92505081905550505050505050565b615f4682611889565b615f4f8161692c565b615f598383616a32565b50505050565b674563918244f4000081565b6000600160008473ffffffffffffffffffffffffffffffffffffffff1673ffffffffffffffffffffffffffffffffffffffff16815260200190815260200160002060008373ffffffffffffffffffffffffffffffffffffffff1673ffffffffffffffffffffffffffffffffffffffff16815260200190815260200160002054905092915050565b6029818154811061600257600080fd5b90600052602060002090600302016000915090508060000160009054906101000a900460ff1690806001018054616038906195d7565b80601f0160208091040260200160405190810160405280929190818152602001828054616064906195d7565b80156160b15780601f10616086576101008083540402835291602001916160b1565b820191906000526020600020905b81548152906001019060200180831161609457829003601f168201915b5050505050908060020180546160c6906195d7565b80601f01602080910402602001604051908101604052809291908181526020018280546160f2906195d7565b801561613f5780601f106161145761010080835404028352916020019161613f565b820191906000526020600020905b81548152906001019060200180831161612257829003601f168201915b5050505050905083565b6000600b60000154905090565b60165481565b60175481565b600061616c616590565b6019600083815260200190815260200160002060030160009054906101000a900460ff166161cf576040517f08c379a00000000000000000000000000000000000000000000000000000000081526004016161c69061a879565b60405180910390fd5b6025600083815260200190815260200160002060003373ffffffffffffffffffffffffffffffffffffffff1673ffffffffffffffffffffffffffffffffffffffff16815260200190815260200160002060009054906101000a900460ff161561626d576040517f08c379a00000000000000000000000000000000000000000000000000000000081526004016162649061a8e5565b60405180910390fd5b6019600083815260200190815260200160002060050160149054906101000a900460ff166162d0576040517f08c379a00000000000000000000000000000000000000000000000000000000081526004016162c790619791565b60405180910390fd5b60006019600084815260200190815260200160002090506000602684815481106162fd576162fc619579565b5b9060005260206000209060070201905081600601339080600181540180825580915050600190039060005260206000200160009091909190916101000a81548173ffffffffffffffffffffffffffffffffffffffff021916908373ffffffffffffffffffffffffffffffffffffffff16021790555080600601339080600181540180825580915050600190039060005260206000200160009091909190916101000a81548173ffffffffffffffffffffffffffffffffffffffff021916908373ffffffffffffffffffffffffffffffffffffffff16021790555060016025600086815260200190815260200160002060003373ffffffffffffffffffffffffffffffffffffffff1673ffffffffffffffffffffffffffffffffffffffff16815260200190815260200160002060006101000a81548160ff02191690831515021790555061645233671bc16d674ec80000616d4a565b503373ffffffffffffffffffffffffffffffffffffffff16847f4bf249f6b0ca5630ea4816c04b928b864a2065cb51658fd6223d83b727fd326b60405160405180910390a36001925050506164a561679a565b919050565b60006164d67fc10c77be35aff266144ed64c26a1fa104bae2f284ae99ac4a34203454704a18583613c2a565b9050919050565b601c6020528160005260406000206020528060005260406000206000915091509054906101000a900460ff1681565b60007f01ffc9a7000000000000000000000000000000000000000000000000000000007bffffffffffffffffffffffffffffffffffffffffffffffffffffffff1916827bffffffffffffffffffffffffffffffffffffffffffffffffffffffff1916149050919050565b600033905090565b61658b8383836001616e37565b505050565b6002600a54036165cc576040517f3ee5aeb500000000000000000000000000000000000000000000000000000000815260040160405180910390fd5b6002600a81905550565b60005b828054905081101561676e578173ffffffffffffffffffffffffffffffffffffffff1683828154811061660f5761660e619579565b5b9060005260206000200160009054906101000a900473ffffffffffffffffffffffffffffffffffffffff1673ffffffffffffffffffffffffffffffffffffffff16036167615760018380549050616666919061a2c0565b811461671657826001848054905061667e919061a2c0565b8154811061668f5761668e619579565b5b9060005260206000200160009054906101000a900473ffffffffffffffffffffffffffffffffffffffff168382815481106166cd576166cc619579565b5b9060005260206000200160006101000a81548173ffffffffffffffffffffffffffffffffffffffff021916908373ffffffffffffffffffffffffffffffffffffffff1602179055505b828054806167275761672661a6fd565b5b6001900381819060005260206000200160006101000a81549073ffffffffffffffffffffffffffffffffffffffff0219169055905561676e565b80806001019150506165d9565b505050565b61677d828261700e565b806011600082825461678f919061a2c0565b925050819055505050565b6001600a81905550565b60006167b08484615f6b565b90507fffffffffffffffffffffffffffffffffffffffffffffffffffffffffffffffff81146168325781811015616822578281836040517ffb8f41b20000000000000000000000000000000000000000000000000000000081526004016168199392919061a905565b60405180910390fd5b61683184848484036000616e37565b5b50505050565b600073ffffffffffffffffffffffffffffffffffffffff168373ffffffffffffffffffffffffffffffffffffffff16036168aa5760006040517f96c6fd1e0000000000000000000000000000000000000000000000000000000081526004016168a19190617fa2565b60405180910390fd5b600073ffffffffffffffffffffffffffffffffffffffff168273ffffffffffffffffffffffffffffffffffffffff160361691c5760006040517fec442f050000000000000000000000000000000000000000000000000000000081526004016169139190617fa2565b60405180910390fd5b6169278383836170b5565b505050565b61693d81616938616576565b6172da565b50565b600061694c8383613c2a565b616a275760016005600085815260200190815260200160002060000160008473ffffffffffffffffffffffffffffffffffffffff1673ffffffffffffffffffffffffffffffffffffffff16815260200190815260200160002060006101000a81548160ff0219169083151502179055506169c4616576565b73ffffffffffffffffffffffffffffffffffffffff168273ffffffffffffffffffffffffffffffffffffffff16847f2f8788117e7eff1d82e926ec794901d17c78024a50270940304540a733656f0d60405160405180910390a460019050616a2c565b600090505b92915050565b6000616a3e8383613c2a565b15616b1a5760006005600085815260200190815260200160002060000160008473ffffffffffffffffffffffffffffffffffffffff1673ffffffffffffffffffffffffffffffffffffffff16815260200190815260200160002060006101000a81548160ff021916908315150217905550616ab7616576565b73ffffffffffffffffffffffffffffffffffffffff168273ffffffffffffffffffffffffffffffffffffffff16847ff6391f5c32d9c69d2a47ea670b442974b53935d1edc7fd64eb21e047a839171b60405160405180910390a460019050616b1f565b600090505b92915050565b600080600090505b6023600085815260200190815260200160002080549050811015616be4578273ffffffffffffffffffffffffffffffffffffffff16602360008681526020019081526020016000208281548110616b8757616b86619579565b5b9060005260206000200160009054906101000a900473ffffffffffffffffffffffffffffffffffffffff1673ffffffffffffffffffffffffffffffffffffffff1603616bd7576001915050616bea565b8080600101915050616b2d565b50600090505b92915050565b600a8a11158015616c025750600a8911155b8015616c0f5750600a8811155b8015616c1c5750600a8711155b8015616c295750600a8611155b8015616c365750600a8511155b8015616c435750600a8411155b8015616c505750600a8311155b8015616c5d5750600a8211155b8015616c6a5750600a8111155b616ca9576040517f08c379a0000000000000000000000000000000000000000000000000000000008152600401616ca09061a988565b60405180910390fd5b50505050505050505050565b60008160090154826008015483600701548460060154856005015486600401548760030154886002015489600101548a60000154616cf3919061a28c565b616cfd919061a28c565b616d07919061a28c565b616d11919061a28c565b616d1b919061a28c565b616d25919061a28c565b616d2f919061a28c565b616d39919061a28c565b616d43919061a28c565b9050919050565b60006064600f6b204fce5e3e25026110000000616d6791906196a3565b616d719190619714565b616d7961574e565b83616d84919061a28c565b1115616dc5576040517f08c379a0000000000000000000000000000000000000000000000000000000008152600401616dbc9061a9f4565b60405180910390fd5b616dcf838361732b565b508160116000828254616de2919061a28c565b92505081905550818373ffffffffffffffffffffffffffffffffffffffff167fad6ef58d5c294f81258965738e7ae511124139834a8d0b8f8f7327086c82052a60405160405180910390a36001905092915050565b600073ffffffffffffffffffffffffffffffffffffffff168473ffffffffffffffffffffffffffffffffffffffff1603616ea95760006040517fe602df05000000000000000000000000000000000000000000000000000000008152600401616ea09190617fa2565b60405180910390fd5b600073ffffffffffffffffffffffffffffffffffffffff168373ffffffffffffffffffffffffffffffffffffffff1603616f1b5760006040517f94280d62000000000000000000000000000000000000000000000000000000008152600401616f129190617fa2565b60405180910390fd5b81600160008673ffffffffffffffffffffffffffffffffffffffff1673ffffffffffffffffffffffffffffffffffffffff16815260200190815260200160002060008573ffffffffffffffffffffffffffffffffffffffff1673ffffffffffffffffffffffffffffffffffffffff168152602001908152602001600020819055508015617008578273ffffffffffffffffffffffffffffffffffffffff168473ffffffffffffffffffffffffffffffffffffffff167f8c5be1e5ebec7d5bd14f71427d1e84f3dd0314c0f7b2291e5b200ac8c7c3b92584604051616fff9190617e47565b60405180910390a35b50505050565b8061701883613058565b1015617059576040517f08c379a00000000000000000000000000000000000000000000000000000000081526004016170509061aa60565b60405180910390fd5b61706382826173e6565b8173ffffffffffffffffffffffffffffffffffffffff167f5b5d8478b570a79ab6b3bf13ff029fba19c02ab0d54d692d4ef0d9052d5cc850826040516170a99190617e47565b60405180910390a25050565b600073ffffffffffffffffffffffffffffffffffffffff168373ffffffffffffffffffffffffffffffffffffffff16036171075780600260008282546170fb919061a28c565b925050819055506171da565b60008060008573ffffffffffffffffffffffffffffffffffffffff1673ffffffffffffffffffffffffffffffffffffffff16815260200190815260200160002054905081811015617193578381836040517fe450d38c00000000000000000000000000000000000000000000000000000000815260040161718a9392919061a905565b60405180910390fd5b8181036000808673ffffffffffffffffffffffffffffffffffffffff1673ffffffffffffffffffffffffffffffffffffffff16815260200190815260200160002081905550505b600073ffffffffffffffffffffffffffffffffffffffff168273ffffffffffffffffffffffffffffffffffffffff16036172235780600260008282540392505081905550617270565b806000808473ffffffffffffffffffffffffffffffffffffffff1673ffffffffffffffffffffffffffffffffffffffff168152602001908152602001600020600082825401925050819055505b8173ffffffffffffffffffffffffffffffffffffffff168373ffffffffffffffffffffffffffffffffffffffff167fddf252ad1be2c89b69c2b068fc378daa952ba7f163c4a11628f55a4df523b3ef836040516172cd9190617e47565b60405180910390a3505050565b6172e48282613c2a565b6173275780826040517fe2517d3f00000000000000000000000000000000000000000000000000000000815260040161731e92919061aa80565b60405180910390fd5b5050565b60006b204fce5e3e25026110000000617342611641565b8361734d919061a28c565b111561738e576040517f08c379a00000000000000000000000000000000000000000000000000000000081526004016173859061a9f4565b60405180910390fd5b6173988383617468565b818373ffffffffffffffffffffffffffffffffffffffff167fcda531bfd68624f13205c0a23cd4d5a7f09792cbb399603114f2b04aaa1bf5cf60405160405180910390a36001905092915050565b600073ffffffffffffffffffffffffffffffffffffffff168273ffffffffffffffffffffffffffffffffffffffff16036174585760006040517f96c6fd1e00000000000000000000000000000000000000000000000000000000815260040161744f9190617fa2565b60405180910390fd5b617464826000836170b5565b5050565b600073ffffffffffffffffffffffffffffffffffffffff168273ffffffffffffffffffffffffffffffffffffffff16036174da5760006040517fec442f050000000000000000000000000000000000000000000000000000000081526004016174d19190617fa2565b60405180910390fd5b6174e6600083836170b5565b5050565b60405180610100016040528060008152602001606081526020016060815260200160001515815260200160008152602001600073ffffffffffffffffffffffffffffffffffffffff168152602001600015158152602001606081525090565b8280548282559060005260206000209060040281019282156175d05760005260206000209160040282015b828111156175cf5782826000820154816000015560018201548160010155600282018160020190816175a69190619c89565b5060038201816003019080546175bd9291906177d6565b50505091600401919060040190617574565b5b5090506175dd9190617870565b5090565b6040518060a00160405280600081526020016000815260200160608152602001606081526020016000151581525090565b82600a60030281019282156176ab579160030282015b828111156176aa5782826000820160009054906101000a900460ff168160000160006101000a81548160ff0219169083600281111561766a57617669618e45565b5b0217905550600182018160010190816176839190619c89565b50600282018160020190816176989190619c89565b50505091600301919060030190617628565b5b5090506176b891906178b7565b5090565b50805460008255906000526020600020908101906176da9190617902565b50565b60405180608001604052806000815260200160008152602001606081526020016000151581525090565b828054828255906000526020600020908101928215617780579160200282015b8281111561777f5782518260006101000a81548173ffffffffffffffffffffffffffffffffffffffff021916908373ffffffffffffffffffffffffffffffffffffffff16021790555091602001919060010190617727565b5b50905061778d9190617902565b5090565b6040518060e00160405280600081526020016000815260200160608152602001606081526020016177c061791f565b8152602001600081526020016000151581525090565b82805482825590600052602060002090600202810192821561785f5760005260206000209160020282015b8281111561785e5782826000820181600001908161781f9190619c89565b506001820160009054906101000a900460ff168160010160006101000a81548160ff021916908315150217905550505091600201919060020190617801565b5b50905061786c919061794d565b5090565b5b808211156178b357600080820160009055600182016000905560028201600061789a9190617988565b6003820160006178aa91906179c8565b50600401617871565b5090565b5b808211156178fe57600080820160006101000a81549060ff02191690556001820160006178e59190617988565b6002820160006178f59190617988565b506003016178b8565b5090565b5b8082111561791b576000816000905550600101617903565b5090565b604051806101400160405280600a905b6179376179ec565b81526020019060019003908161792f5790505090565b5b8082111561798457600080820160006179679190617988565b6001820160006101000a81549060ff02191690555060020161794e565b5090565b508054617994906195d7565b6000825580601f106179a657506179c5565b601f0160209004906000526020600020908101906179c49190617902565b5b50565b50805460008255600202906000526020600020908101906179e9919061794d565b50565b604051806060016040528060006002811115617a0b57617a0a618e45565b5b815260200160608152602001606081525090565b6000604051905090565b600080fd5b600080fd5b60007fffffffff0000000000000000000000000000000000000000000000000000000082169050919050565b617a6881617a33565b8114617a7357600080fd5b50565b600081359050617a8581617a5f565b92915050565b600060208284031215617aa157617aa0617a29565b5b6000617aaf84828501617a76565b91505092915050565b60008115159050919050565b617acd81617ab8565b82525050565b6000602082019050617ae86000830184617ac4565b92915050565b600081519050919050565b600082825260208201905092915050565b6000819050602082019050919050565b6000819050919050565b617b2d81617b1a565b82525050565b600081519050919050565b600082825260208201905092915050565b60005b83811015617b6d578082015181840152602081019050617b52565b60008484015250505050565b6000601f19601f8301169050919050565b6000617b9582617b33565b617b9f8185617b3e565b9350617baf818560208601617b4f565b617bb881617b79565b840191505092915050565b617bcc81617ab8565b82525050565b600073ffffffffffffffffffffffffffffffffffffffff82169050919050565b6000617bfd82617bd2565b9050919050565b617c0d81617bf2565b82525050565b600081519050919050565b600082825260208201905092915050565b6000819050602082019050919050565b6000617c4b8383617c04565b60208301905092915050565b6000602082019050919050565b6000617c6f82617c13565b617c798185617c1e565b9350617c8483617c2f565b8060005b83811015617cb5578151617c9c8882617c3f565b9750617ca783617c57565b925050600181019050617c88565b5085935050505092915050565b600061010083016000830151617cdb6000860182617b24565b5060208301518482036020860152617cf38282617b8a565b91505060408301518482036040860152617d0d8282617b8a565b9150506060830151617d226060860182617bc3565b506080830151617d356080860182617b24565b5060a0830151617d4860a0860182617c04565b5060c0830151617d5b60c0860182617bc3565b5060e083015184820360e0860152617d738282617c64565b9150508091505092915050565b6000617d8c8383617cc2565b905092915050565b6000602082019050919050565b6000617dac82617aee565b617db68185617af9565b935083602082028501617dc885617b0a565b8060005b85811015617e045784840389528151617de58582617d80565b9450617df083617d94565b925060208a01995050600181019050617dcc565b50829750879550505050505092915050565b60006020820190508181036000830152617e308184617da1565b905092915050565b617e4181617b1a565b82525050565b6000602082019050617e5c6000830184617e38565b92915050565b600082825260208201905092915050565b6000617e7e82617b33565b617e888185617e62565b9350617e98818560208601617b4f565b617ea181617b79565b840191505092915050565b60006020820190508181036000830152617ec68184617e73565b905092915050565b617ed781617bf2565b8114617ee257600080fd5b50565b600081359050617ef481617ece565b92915050565b617f0381617b1a565b8114617f0e57600080fd5b50565b600081359050617f2081617efa565b92915050565b60008060408385031215617f3d57617f3c617a29565b5b6000617f4b85828601617ee5565b9250506020617f5c85828601617f11565b9150509250929050565b600060208284031215617f7c57617f7b617a29565b5b6000617f8a84828501617f11565b91505092915050565b617f9c81617bf2565b82525050565b6000602082019050617fb76000830184617f93565b92915050565b600080600060608486031215617fd657617fd5617a29565b5b6000617fe486828701617ee5565b9350506020617ff586828701617ee5565b925050604061800686828701617f11565b9150509250925092565b6000819050919050565b61802381618010565b811461802e57600080fd5b50565b6000813590506180408161801a565b92915050565b60006020828403121561805c5761805b617a29565b5b600061806a84828501618031565b91505092915050565b61807c81618010565b82525050565b60006020820190506180976000830184618073565b92915050565b60006080820190506180b26000830187617e38565b6180bf6020830186617e38565b81810360408301526180d18185617e73565b90506180e06060830184617ac4565b95945050505050565b600060e0820190506180fe600083018a617e38565b81810360208301526181108189617e73565b905081810360408301526181248188617e73565b90506181336060830187617ac4565b6181406080830186617e38565b61814d60a0830185617f93565b61815a60c0830184617ac4565b98975050505050505050565b600060c08201905061817b6000830189617e38565b6181886020830188617e38565b818103604083015261819a8187617e73565b905081810360608301526181ae8186617e73565b90506181bd6080830185617e38565b6181ca60a0830184617ac4565b979650505050505050565b600080604083850312156181ec576181eb617a29565b5b60006181fa85828601618031565b925050602061820b85828601617ee5565b9150509250929050565b600080fd5b7f4e487b7100000000000000000000000000000000000000000000000000000000600052604160045260246000fd5b61825282617b79565b810181811067ffffffffffffffff821117156182715761827061821a565b5b80604052505050565b6000618284617a1f565b90506182908282618249565b919050565b600067ffffffffffffffff8211156182b0576182af61821a565b5b602082029050602081019050919050565b600080fd5b600080fd5b600067ffffffffffffffff8211156182e6576182e561821a565b5b6182ef82617b79565b9050602081019050919050565b82818337600083830152505050565b600061831e618319846182cb565b61827a565b90508281526020810184848401111561833a576183396182c6565b5b6183458482856182fc565b509392505050565b600082601f83011261836257618361618215565b5b813561837284826020860161830b565b91505092915050565b600061838e61838984618295565b61827a565b905080838252602082019050602084028301858111156183b1576183b06182c1565b5b835b818110156183f857803567ffffffffffffffff8111156183d6576183d5618215565b5b8086016183e3898261834d565b855260208501945050506020810190506183b3565b5050509392505050565b600082601f83011261841757618416618215565b5b813561842784826020860161837b565b91505092915050565b6000806040838503121561844757618446617a29565b5b600061845585828601617f11565b925050602083013567ffffffffffffffff81111561847657618475617a2e565b5b61848285828601618402565b9150509250929050565b600060ff82169050919050565b6184a28161848c565b82525050565b60006020820190506184bd6000830184618499565b92915050565b60006060820190506184d86000830186617e38565b6184e56020830185617e38565b81810360408301526184f78184617e73565b9050949350505050565b60006020828403121561851757618516617a29565b5b600061852584828501617ee5565b91505092915050565b600081519050919050565b600082825260208201905092915050565b60006185558261852e565b61855f8185618539565b935061856f818560208601617b4f565b61857881617b79565b840191505092915050565b600060c0820190506185986000830189617e38565b6185a56020830188617f93565b6185b26040830187617f93565b81810360608301526185c4818661854a565b90506185d36080830185617e38565b6185e060a0830184617ac4565b979650505050505050565b600081519050919050565b600082825260208201905092915050565b6000819050602082019050919050565b600081519050919050565b600082825260208201905092915050565b6000819050602082019050919050565b600060408301600083015184820360008601526186608282617b8a565b91505060208301516186756020860182617bc3565b508091505092915050565b600061868c8383618643565b905092915050565b6000602082019050919050565b60006186ac82618617565b6186b68185618622565b9350836020820285016186c885618633565b8060005b8581101561870457848403895281516186e58582618680565b94506186f083618694565b925060208a019950506001810190506186cc565b50829750879550505050505092915050565b600060808301600083015161872e6000860182617b24565b5060208301516187416020860182617b24565b50604083015184820360408601526187598282617b8a565b9150506060830151848203606086015261877382826186a1565b9150508091505092915050565b600061878c8383618716565b905092915050565b6000602082019050919050565b60006187ac826185eb565b6187b681856185f6565b9350836020820285016187c885618607565b8060005b8581101561880457848403895281516187e58582618780565b94506187f083618794565b925060208a019950506001810190506187cc565b50829750879550505050505092915050565b6000602082019050818103600083015261883081846187a1565b905092915050565b6000806040838503121561884f5761884e617a29565b5b600061885d85828601617f11565b925050602061886e85828601617f11565b9150509250929050565b60008060008060008060008060008060006101608c8e03121561889e5761889d617a29565b5b60006188ac8e828f01617f11565b9b505060206188bd8e828f01617f11565b9a505060406188ce8e828f01617f11565b99505060606188df8e828f01617f11565b98505060806188f08e828f01617f11565b97505060a06189018e828f01617f11565b96505060c06189128e828f01617f11565b95505060e06189238e828f01617f11565b9450506101006189358e828f01617f11565b9350506101206189478e828f01617f11565b9250506101406189598e828f01617f11565b9150509295989b509295989b9093969950565b6000806040838503121561898357618982617a29565b5b600061899185828601617f11565b925050602083013567ffffffffffffffff8111156189b2576189b1617a2e565b5b6189be8582860161834d565b9150509250929050565b600081519050919050565b600082825260208201905092915050565b6000819050602082019050919050565b600082825260208201905092915050565b6000618a10826185eb565b618a1a81856189f4565b935083602082028501618a2c85618607565b8060005b85811015618a685784840389528151618a498582618780565b9450618a5483618794565b925060208a01995050600181019050618a30565b50829750879550505050505092915050565b600060a083016000830151618a926000860182617b24565b506020830151618aa56020860182617b24565b5060408301518482036040860152618abd8282617b8a565b91505060608301518482036060860152618ad78282618a05565b9150506080830151618aec6080860182617bc3565b508091505092915050565b6000618b038383618a7a565b905092915050565b6000602082019050919050565b6000618b23826189c8565b618b2d81856189d3565b935083602082028501618b3f856189e4565b8060005b85811015618b7b5784840389528151618b5c8582618af7565b9450618b6783618b0b565b925060208a01995050600181019050618b43565b50829750879550505050505092915050565b60006020820190508181036000830152618ba78184618b18565b905092915050565b600080600060608486031215618bc857618bc7617a29565b5b6000618bd686828701617f11565b935050602084013567ffffffffffffffff811115618bf757618bf6617a2e565b5b618c038682870161834d565b925050604084013567ffffffffffffffff811115618c2457618c23617a2e565b5b618c308682870161834d565b9150509250925092565b600081519050919050565b600082825260208201905092915050565b6000819050602082019050919050565b6000608083016000830151618c7e6000860182617b24565b506020830151618c916020860182617b24565b5060408301518482036040860152618ca98282617b8a565b9150506060830151618cbe6060860182617bc3565b508091505092915050565b6000618cd58383618c66565b905092915050565b6000602082019050919050565b6000618cf582618c3a565b618cff8185618c45565b935083602082028501618d1185618c56565b8060005b85811015618d4d5784840389528151618d2e8582618cc9565b9450618d3983618cdd565b925060208a01995050600181019050618d15565b50829750879550505050505092915050565b60006020820190508181036000830152618d798184618cea565b905092915050565b60008060408385031215618d9857618d97617a29565b5b600083013567ffffffffffffffff811115618db657618db5617a2e565b5b618dc28582860161834d565b925050602083013567ffffffffffffffff811115618de357618de2617a2e565b5b618def8582860161834d565b9150509250929050565b600081519050919050565b600082825260208201905092915050565b6000819050602082019050919050565b6000600a9050919050565b600081905092915050565b6000819050919050565b7f4e487b7100000000000000000000000000000000000000000000000000000000600052602160045260246000fd5b60038110618e8557618e84618e45565b5b50565b6000819050618e9682618e74565b919050565b6000618ea682618e88565b9050919050565b618eb681618e9b565b82525050565b6000606083016000830151618ed46000860182618ead565b5060208301518482036020860152618eec8282617b8a565b91505060408301518482036040860152618f068282617b8a565b9150508091505092915050565b6000618f1f8383618ebc565b905092915050565b6000602082019050919050565b6000618f3f82618e25565b618f498185618e30565b935083602082028501618f5b85618e3b565b8060005b85811015618f975784840389528151618f788582618f13565b9450618f8383618f27565b925060208a01995050600181019050618f5f565b50829750879550505050505092915050565b600060e083016000830151618fc16000860182617b24565b506020830151618fd46020860182617b24565b5060408301518482036040860152618fec8282617b8a565b915050606083015184820360608601526190068282617b8a565b915050608083015184820360808601526190208282618f34565b91505060a083015161903560a0860182617b24565b5060c083015161904860c0860182617bc3565b508091505092915050565b600061905f8383618fa9565b905092915050565b6000602082019050919050565b600061907f82618df9565b6190898185618e04565b93508360208202850161909b85618e15565b8060005b858110156190d757848403895281516190b88582619053565b94506190c383619067565b925060208a0199505060018101905061909f565b50829750879550505050505092915050565b600060208201905081810360008301526191038184619074565b905092915050565b600060a0830160008301516191236000860182617b24565b5060208301516191366020860182617b24565b506040830151848203604086015261914e8282617b8a565b915050606083015184820360608601526191688282618a05565b915050608083015161917d6080860182617bc3565b508091505092915050565b600060208201905081810360008301526191a2818461910b565b905092915050565b600381106191b757600080fd5b50565b6000813590506191c9816191aa565b92915050565b600080fd5b60008083601f8401126191ea576191e9618215565b5b8235905067ffffffffffffffff811115619207576192066191cf565b5b602083019150836020820283011115619223576192226182c1565b5b9250929050565b6000806000806060858703121561924457619243617a29565b5b600061925287828801617f11565b9450506020619263878288016191ba565b935050604085013567ffffffffffffffff81111561928457619283617a2e565b5b619290878288016191d4565b925092505092959194509250565b600080604083850312156192b5576192b4617a29565b5b60006192c385828601617f11565b92505060206192d485828601617ee5565b9150509250929050565b6000610160820190506192f4600083018e617e38565b619301602083018d617e38565b61930e604083018c617e38565b61931b606083018b617e38565b619328608083018a617e38565b61933560a0830189617e38565b61934260c0830188617e38565b61934f60e0830187617e38565b61935d610100830186617e38565b61936b610120830185617e38565b619379610140830184617ac4565b9c9b505050505050505050505050565b600082825260208201905092915050565b60006193a582617c13565b6193af8185619389565b93506193ba83617c2f565b8060005b838110156193eb5781516193d28882617c3f565b97506193dd83617c57565b9250506001810190506193be565b5085935050505092915050565b60006020820190508181036000830152619412818461939a565b905092915050565b6194238161848c565b811461942e57600080fd5b50565b6000813590506194408161941a565b92915050565b600080600080608085870312156194605761945f617a29565b5b600061946e87828801617f11565b945050602085013567ffffffffffffffff81111561948f5761948e617a2e565b5b61949b8782880161834d565b935050604085013567ffffffffffffffff8111156194bc576194bb617a2e565b5b6194c887828801618402565b92505060606194d987828801619431565b91505092959194509250565b600080604083850312156194fc576194fb617a29565b5b600061950a85828601617ee5565b925050602061951b85828601617ee5565b9150509250929050565b61952e81618e9b565b82525050565b60006060820190506195496000830186619525565b818103602083015261955b8185617e73565b9050818103604083015261956f8184617e73565b9050949350505050565b7f4e487b7100000000000000000000000000000000000000000000000000000000600052603260045260246000fd5b7f4e487b7100000000000000000000000000000000000000000000000000000000600052602260045260246000fd5b600060028204905060018216806195ef57607f821691505b602082108103619602576196016195a8565b5b50919050565b7f4e6f7420656e726f6c6c65642100000000000000000000000000000000000000600082015250565b600061963e600d83617e62565b915061964982619608565b602082019050919050565b6000602082019050818103600083015261966d81619631565b9050919050565b7f4e487b7100000000000000000000000000000000000000000000000000000000600052601160045260246000fd5b60006196ae82617b1a565b91506196b983617b1a565b92508282026196c781617b1a565b915082820484148315176196de576196dd619674565b5b5092915050565b7f4e487b7100000000000000000000000000000000000000000000000000000000600052601260045260246000fd5b600061971f82617b1a565b915061972a83617b1a565b92508261973a576197396196e5565b5b828204905092915050565b7f436f7572736520646f6573206e6f742065786973742100000000000000000000600082015250565b600061977b601683617e62565b915061978682619745565b602082019050919050565b600060208201905081810360008301526197aa8161976e565b9050919050565b60008190508160005260206000209050919050565b60006020601f8301049050919050565b600082821b905092915050565b6000600883026198137fffffffffffffffffffffffffffffffffffffffffffffffffffffffffffffffff826197d6565b61981d86836197d6565b95508019841693508086168417925050509392505050565b6000819050919050565b600061985a61985561985084617b1a565b619835565b617b1a565b9050919050565b6000819050919050565b6198748361983f565b61988861988082619861565b8484546197e3565b825550505050565b600090565b61989d619890565b6198a881848461986b565b505050565b5b818110156198cc576198c1600082619895565b6001810190506198ae565b5050565b601f821115619911576198e2816197b1565b6198eb846197c6565b810160208510156198fa578190505b61990e619906856197c6565b8301826198ad565b50505b505050565b600082821c905092915050565b600061993460001984600802619916565b1980831691505092915050565b600061994d8383619923565b9150826002028217905092915050565b61996682617b33565b67ffffffffffffffff81111561997f5761997e61821a565b5b61998982546195d7565b6199948282856198d0565b600060209050601f8311600181146199c757600084156199b5578287015190505b6199bf8582619941565b865550619a27565b601f1984166199d5866197b1565b60005b828110156199fd578489015182556001820191506020850194506020810190506199d8565b86831015619a1a5784890151619a16601f891682619923565b8355505b6001600288020188555050505b505050505050565b6000619a3a82617b1a565b91507fffffffffffffffffffffffffffffffffffffffffffffffffffffffffffffffff8203619a6c57619a6b619674565b5b600182019050919050565b7f5175697a20646f6573206e6f7420657869737400000000000000000000000000600082015250565b6000619aad601383617e62565b9150619ab882619a77565b602082019050919050565b60006020820190508181036000830152619adc81619aa0565b9050919050565b7f4e6f742073656c6563746564206173206120726576696577657220666f72207460008201527f68697320636f7572736500000000000000000000000000000000000000000000602082015250565b6000619b3f602a83617e62565b9150619b4a82619ae3565b604082019050919050565b60006020820190508181036000830152619b6e81619b32565b9050919050565b7f52657669657720616c7265616479207375626d6974746564206279207468697360008201527f2072657669657765722e00000000000000000000000000000000000000000000602082015250565b6000619bd1602a83617e62565b9150619bdc82619b75565b604082019050919050565b60006020820190508181036000830152619c0081619bc4565b9050919050565b7f4c6573736f6e20446f6573206e6f742065786973742100000000000000000000600082015250565b6000619c3d601683617e62565b9150619c4882619c07565b602082019050919050565b60006020820190508181036000830152619c6c81619c30565b9050919050565b600081549050619c82816195d7565b9050919050565b818103619c97575050619d6f565b619ca082619c73565b67ffffffffffffffff811115619cb957619cb861821a565b5b619cc382546195d7565b619cce8282856198d0565b6000601f831160018114619cfd5760008415619ceb578287015490505b619cf58582619941565b865550619d68565b601f198416619d0b876197b1565b9650619d16866197b1565b60005b82811015619d3e57848901548255600182019150600185019450602081019050619d19565b86831015619d5b5784890154619d57601f891682619923565b8355505b6001600288020188555050505b5050505050505b565b600081905092915050565b6000619d8782617b33565b619d918185619d71565b9350619da1818560208601617b4f565b80840191505092915050565b6000619db98284619d7c565b915081905092915050565b7f416c726561647920696e20726576696577657220706f6f6c0000000000000000600082015250565b6000619dfa601883617e62565b9150619e0582619dc4565b602082019050919050565b60006020820190508181036000830152619e2981619ded565b9050919050565b7f436f7572736520616c726561647920617070726f766564000000000000000000600082015250565b6000619e66601783617e62565b9150619e7182619e30565b602082019050919050565b60006020820190508181036000830152619e9581619e59565b9050919050565b7f596f75206861766520616c726561647920617070726f7665642074686973206360008201527f6f75727365000000000000000000000000000000000000000000000000000000602082015250565b6000619ef8602583617e62565b9150619f0382619e9c565b604082019050919050565b60006020820190508181036000830152619f2781619eeb565b9050919050565b7f4368617074657220646f6573206e6f7420657869737421000000000000000000600082015250565b6000619f64601783617e62565b9150619f6f82619f2e565b602082019050919050565b60006020820190508181036000830152619f9381619f57565b9050919050565b7f52657669657765727320616c72656164792073656c6563746564000000000000600082015250565b6000619fd0601a83617e62565b9150619fdb82619f9a565b602082019050919050565b60006020820190508181036000830152619fff81619fc3565b9050919050565b7f4e6f7420656e6f7567682072657669657765727320696e2074686520706f6f6c600082015250565b600061a03c602083617e62565b915061a0478261a006565b602082019050919050565b6000602082019050818103600083015261a06b8161a02f565b9050919050565b6000819050919050565b61a08d61a08882617b1a565b61a072565b82525050565b600061a09f828761a07c565b60208201915061a0af828661a07c565b60208201915061a0bf828561a07c565b60208201915061a0cf828461a07c565b60208201915081905095945050505050565b600061a0ec82617b1a565b915061a0f783617b1a565b92508261a1075761a1066196e5565b5b828206905092915050565b600081549050919050565b60008190508160005260206000209050919050565b60008160001c9050919050565b600073ffffffffffffffffffffffffffffffffffffffff82169050919050565b600061a17261a16d8361a132565b61a13f565b9050919050565b600061a185825461a15f565b9050919050565b6000600182019050919050565b600061a1a48261a112565b61a1ae8185619389565b935061a1b98361a11d565b8060005b8381101561a1f15761a1ce8261a179565b61a1d88882617c3f565b975061a1e38361a18c565b92505060018101905061a1bd565b5085935050505092915050565b6000602082019050818103600083015261a218818461a199565b905092915050565b7f436f7572736520494420616c7265616479206578697374730000000000000000600082015250565b600061a256601883617e62565b915061a2618261a220565b602082019050919050565b6000602082019050818103600083015261a2858161a249565b9050919050565b600061a29782617b1a565b915061a2a283617b1a565b925082820190508082111561a2ba5761a2b9619674565b5b92915050565b600061a2cb82617b1a565b915061a2d683617b1a565b925082820390508181111561a2ee5761a2ed619674565b5b92915050565b7f4c6573736f6e20646f6573206e6f742065786973742100000000000000000000600082015250565b600061a32a601683617e62565b915061a3358261a2f4565b602082019050919050565b6000602082019050818103600083015261a3598161a31d565b9050919050565b7f45786365656473206d6178696d756d207265736f757263657321000000000000600082015250565b600061a396601a83617e62565b915061a3a18261a360565b602082019050919050565b6000602082019050818103600083015261a3c58161a389565b9050919050565b600080fd5b600080fd5b600080fd5b60008235600160600383360303811261a3f75761a3f661a3cc565b5b80830191505092915050565b60006020828403121561a4195761a418617a29565b5b600061a427848285016191ba565b91505092915050565b6000808335600160200384360303811261a44d5761a44c61a3cc565b5b80840192508235915067ffffffffffffffff82111561a46f5761a46e61a3d1565b5b60208301925060018202360383131561a48b5761a48a61a3d6565b5b509250929050565b7f50726f706f73616c20616c726561647920657865637574656400000000000000600082015250565b600061a4c9601983617e62565b915061a4d48261a493565b602082019050919050565b6000602082019050818103600083015261a4f88161a4bc565b9050919050565b7f416c726561647920617070726f76656400000000000000000000000000000000600082015250565b600061a535601083617e62565b915061a5408261a4ff565b602082019050919050565b6000602082019050818103600083015261a5648161a528565b9050919050565b600081905092915050565b60008190508160005260206000209050919050565b6000815461a598816195d7565b61a5a2818661a56b565b9450600182166000811461a5bd576001811461a5d25761a605565b60ff198316865281151582028601935061a605565b61a5db8561a576565b60005b8381101561a5fd5781548189015260018201915060208101905061a5de565b838801955050505b50505092915050565b600061a61a828461a58b565b915081905092915050565b7f50726f706f73616c20657865637574696f6e206661696c656400000000000000600082015250565b600061a65b601983617e62565b915061a6668261a625565b602082019050919050565b6000602082019050818103600083015261a68a8161a64e565b9050919050565b7f4e6f7420696e20726576696577657220706f6f6c000000000000000000000000600082015250565b600061a6c7601483617e62565b915061a6d28261a691565b602082019050919050565b6000602082019050818103600083015261a6f68161a6ba565b9050919050565b7f4e487b7100000000000000000000000000000000000000000000000000000000600052603160045260246000fd5b7f496e76616c6964206e756d626572206f662063686f6963657300000000000000600082015250565b600061a762601983617e62565b915061a76d8261a72c565b602082019050919050565b6000602082019050818103600083015261a7918161a755565b9050919050565b7f496e76616c696420636f72726563742063686f69636520696e64657800000000600082015250565b600061a7ce601c83617e62565b915061a7d98261a798565b602082019050919050565b6000602082019050818103600083015261a7fd8161a7c1565b9050919050565b600061a80f8261848c565b915060ff820361a8225761a821619674565b5b600182019050919050565b7f436f75727365206e6f742079657420617070726f766564210000000000000000600082015250565b600061a863601883617e62565b915061a86e8261a82d565b602082019050919050565b6000602082019050818103600083015261a8928161a856565b9050919050565b7f416c726561647920656e726f6c6c656400000000000000000000000000000000600082015250565b600061a8cf601083617e62565b915061a8da8261a899565b602082019050919050565b6000602082019050818103600083015261a8fe8161a8c2565b9050919050565b600060608201905061a91a6000830186617f93565b61a9276020830185617e38565b61a9346040830184617e38565b949350505050565b7f53636f726573206d757374206265206265747765656e203120616e642031302e600082015250565b600061a972602083617e62565b915061a97d8261a93c565b602082019050919050565b6000602082019050818103600083015261a9a18161a965565b9050919050565b7f4c696d6974204578636565646564210000000000000000000000000000000000600082015250565b600061a9de600f83617e62565b915061a9e98261a9a8565b602082019050919050565b6000602082019050818103600083015261aa0d8161a9d1565b9050919050565b7f496e73756666696369656e742062616c616e6365000000000000000000000000600082015250565b600061aa4a601483617e62565b915061aa558261aa14565b602082019050919050565b6000602082019050818103600083015261aa798161aa3d565b9050919050565b600060408201905061aa956000830185617f93565b61aaa26020830184618073565b939250505056fea264697066735822122050eee3d07207e28a931743500546517427699b7ffa8f91567bcc08ab9568487a64736f6c634300081b0033",
  "linkReferences": {},
  "deployedLinkReferences": {}
}