{
  "_format": "hh-sol-artifact-1",
  "contractName": "Ecosystem2",
  "sourceName": "contracts/Ecosystem Contracts/Ecosystem2.sol",
  "abi": [
    {
      "inputs": [
        {
          "internalType": "address[]",
          "name": "_reviewers",
          "type": "address[]"
        }
      ],
      "stateMutability": "nonpayable",
      "type": "constructor"
    },
    {
      "inputs": [],
      "name": "AccessControlBadConfirmation",
      "type": "error"
    },
    {
      "inputs": [
        {
          "internalType": "address",
          "name": "account",
          "type": "address"
        },
        {
          "internalType": "bytes32",
          "name": "neededRole",
          "type": "bytes32"
        }
      ],
      "name": "AccessControlUnauthorizedAccount",
      "type": "error"
    },
    {
      "inputs": [
        {
          "internalType": "address",
          "name": "spender",
          "type": "address"
        },
        {
          "internalType": "uint256",
          "name": "allowance",
          "type": "uint256"
        },
        {
          "internalType": "uint256",
          "name": "needed",
          "type": "uint256"
        }
      ],
      "name": "ERC20InsufficientAllowance",
      "type": "error"
    },
    {
      "inputs": [
        {
          "internalType": "address",
          "name": "sender",
          "type": "address"
        },
        {
          "internalType": "uint256",
          "name": "balance",
          "type": "uint256"
        },
        {
          "internalType": "uint256",
          "name": "needed",
          "type": "uint256"
        }
      ],
      "name": "ERC20InsufficientBalance",
      "type": "error"
    },
    {
      "inputs": [
        {
          "internalType": "address",
          "name": "approver",
          "type": "address"
        }
      ],
      "name": "ERC20InvalidApprover",
      "type": "error"
    },
    {
      "inputs": [
        {
          "internalType": "address",
          "name": "receiver",
          "type": "address"
        }
      ],
      "name": "ERC20InvalidReceiver",
      "type": "error"
    },
    {
      "inputs": [
        {
          "internalType": "address",
          "name": "sender",
          "type": "address"
        }
      ],
      "name": "ERC20InvalidSender",
      "type": "error"
    },
    {
      "inputs": [
        {
          "internalType": "address",
          "name": "spender",
          "type": "address"
        }
      ],
      "name": "ERC20InvalidSpender",
      "type": "error"
    },
    {
      "inputs": [],
      "name": "ReentrancyGuardReentrantCall",
      "type": "error"
    },
    {
      "anonymous": false,
      "inputs": [
        {
          "indexed": true,
          "internalType": "address",
          "name": "owner",
          "type": "address"
        },
        {
          "indexed": true,
          "internalType": "address",
          "name": "spender",
          "type": "address"
        },
        {
          "indexed": false,
          "internalType": "uint256",
          "name": "value",
          "type": "uint256"
        }
      ],
      "name": "Approval",
      "type": "event"
    },
    {
      "anonymous": false,
      "inputs": [
        {
          "indexed": true,
          "internalType": "address",
          "name": "_account",
          "type": "address"
        },
        {
          "indexed": false,
          "internalType": "uint256",
          "name": "_amount",
          "type": "uint256"
        }
      ],
      "name": "BurnSuccess",
      "type": "event"
    },
    {
      "anonymous": false,
      "inputs": [
        {
          "indexed": true,
          "internalType": "uint256",
          "name": "_courseId",
          "type": "uint256"
        },
        {
          "indexed": true,
          "internalType": "uint256",
          "name": "numberOfChapters",
          "type": "uint256"
        }
      ],
      "name": "ChaptersAddedSuccessfully",
      "type": "event"
    },
    {
      "anonymous": false,
      "inputs": [
        {
          "indexed": false,
          "internalType": "uint256",
          "name": "questionId",
          "type": "uint256"
        },
        {
          "indexed": false,
          "internalType": "uint256",
          "name": "choiceId",
          "type": "uint256"
        },
        {
          "indexed": false,
          "internalType": "string",
          "name": "option",
          "type": "string"
        }
      ],
      "name": "ChoiceAdded",
      "type": "event"
    },
    {
      "anonymous": false,
      "inputs": [
        {
          "indexed": true,
          "internalType": "uint256",
          "name": "_courseID",
          "type": "uint256"
        },
        {
          "indexed": true,
          "internalType": "string",
          "name": "_courseName",
          "type": "string"
        },
        {
          "indexed": false,
          "internalType": "bool",
          "name": "_approved",
          "type": "bool"
        }
      ],
      "name": "CourseCreationSuccess",
      "type": "event"
    },
    {
      "anonymous": false,
      "inputs": [
        {
          "indexed": true,
          "internalType": "address",
          "name": "_to",
          "type": "address"
        },
        {
          "indexed": true,
          "internalType": "uint256",
          "name": "_amount",
          "type": "uint256"
        }
      ],
      "name": "EcosystemPoolUpdate",
      "type": "event"
    },
    {
      "anonymous": false,
      "inputs": [
        {
          "indexed": true,
          "internalType": "uint256",
          "name": "_courseId",
          "type": "uint256"
        },
        {
          "indexed": true,
          "internalType": "address",
          "name": "_by",
          "type": "address"
        }
      ],
      "name": "EnrollmentSuccess",
      "type": "event"
    },
    {
      "anonymous": false,
      "inputs": [
        {
          "indexed": true,
          "internalType": "uint256",
          "name": "_lessonId",
          "type": "uint256"
        },
        {
          "indexed": true,
          "internalType": "string",
          "name": "_lessonName",
          "type": "string"
        },
        {
          "indexed": true,
          "internalType": "uint256",
          "name": "_additonalResources",
          "type": "uint256"
        }
      ],
      "name": "LessonCreationSuccess",
      "type": "event"
    },
    {
      "anonymous": false,
      "inputs": [
        {
          "indexed": true,
          "internalType": "address",
          "name": "_to",
          "type": "address"
        },
        {
          "indexed": true,
          "internalType": "uint256",
          "name": "_amount",
          "type": "uint256"
        }
      ],
      "name": "MintSuccess",
      "type": "event"
    },
    {
      "anonymous": false,
      "inputs": [
        {
          "indexed": true,
          "internalType": "uint256",
          "name": "proposalId",
          "type": "uint256"
        },
        {
          "indexed": false,
          "internalType": "address",
          "name": "approver",
          "type": "address"
        }
      ],
      "name": "MultiSigProposalApproved",
      "type": "event"
    },
    {
      "anonymous": false,
      "inputs": [
        {
          "indexed": true,
          "internalType": "uint256",
          "name": "proposalId",
          "type": "uint256"
        },
        {
          "indexed": false,
          "internalType": "address",
          "name": "proposer",
          "type": "address"
        }
      ],
      "name": "MultiSigProposalCreated",
      "type": "event"
    },
    {
      "anonymous": false,
      "inputs": [
        {
          "indexed": true,
          "internalType": "uint256",
          "name": "proposalId",
          "type": "uint256"
        }
      ],
      "name": "MultiSigProposalExecuted",
      "type": "event"
    },
    {
      "anonymous": false,
      "inputs": [
        {
          "indexed": false,
          "internalType": "uint256",
          "name": "quizId",
          "type": "uint256"
        },
        {
          "indexed": false,
          "internalType": "uint256",
          "name": "questionId",
          "type": "uint256"
        },
        {
          "indexed": false,
          "internalType": "string",
          "name": "questionText",
          "type": "string"
        }
      ],
      "name": "QuestionAdded",
      "type": "event"
    },
    {
      "anonymous": false,
      "inputs": [
        {
          "indexed": true,
          "internalType": "uint256",
          "name": "_quizId",
          "type": "uint256"
        },
        {
          "indexed": true,
          "internalType": "string",
          "name": "_title",
          "type": "string"
        }
      ],
      "name": "QuizCreatedSuccess",
      "type": "event"
    },
    {
      "anonymous": false,
      "inputs": [
        {
          "indexed": true,
          "internalType": "uint256",
          "name": "_lessonId",
          "type": "uint256"
        },
        {
          "indexed": true,
          "internalType": "uint256",
          "name": "resourceCount",
          "type": "uint256"
        }
      ],
      "name": "ResourceAddSuccess",
      "type": "event"
    },
    {
      "anonymous": false,
      "inputs": [
        {
          "indexed": true,
          "internalType": "address",
          "name": "reviewer",
          "type": "address"
        }
      ],
      "name": "ReviewerAddedToPool",
      "type": "event"
    },
    {
      "anonymous": false,
      "inputs": [
        {
          "indexed": true,
          "internalType": "address",
          "name": "reviewer",
          "type": "address"
        }
      ],
      "name": "ReviewerRemovedFromPool",
      "type": "event"
    },
    {
      "anonymous": false,
      "inputs": [
        {
          "indexed": true,
          "internalType": "uint256",
          "name": "courseId",
          "type": "uint256"
        },
        {
          "indexed": false,
          "internalType": "address[]",
          "name": "reviewers",
          "type": "address[]"
        }
      ],
      "name": "ReviewersSelected",
      "type": "event"
    },
    {
      "anonymous": false,
      "inputs": [
        {
          "indexed": true,
          "internalType": "bytes32",
          "name": "role",
          "type": "bytes32"
        },
        {
          "indexed": true,
          "internalType": "bytes32",
          "name": "previousAdminRole",
          "type": "bytes32"
        },
        {
          "indexed": true,
          "internalType": "bytes32",
          "name": "newAdminRole",
          "type": "bytes32"
        }
      ],
      "name": "RoleAdminChanged",
      "type": "event"
    },
    {
      "anonymous": false,
      "inputs": [
        {
          "indexed": true,
          "internalType": "bytes32",
          "name": "role",
          "type": "bytes32"
        },
        {
          "indexed": true,
          "internalType": "address",
          "name": "account",
          "type": "address"
        },
        {
          "indexed": true,
          "internalType": "address",
          "name": "sender",
          "type": "address"
        }
      ],
      "name": "RoleGranted",
      "type": "event"
    },
    {
      "anonymous": false,
      "inputs": [
        {
          "indexed": true,
          "internalType": "bytes32",
          "name": "role",
          "type": "bytes32"
        },
        {
          "indexed": true,
          "internalType": "address",
          "name": "account",
          "type": "address"
        },
        {
          "indexed": true,
          "internalType": "address",
          "name": "sender",
          "type": "address"
        }
      ],
      "name": "RoleRevoked",
      "type": "event"
    },
    {
      "anonymous": false,
      "inputs": [
        {
          "indexed": true,
          "internalType": "address",
          "name": "from",
          "type": "address"
        },
        {
          "indexed": true,
          "internalType": "address",
          "name": "to",
          "type": "address"
        },
        {
          "indexed": false,
          "internalType": "uint256",
          "name": "value",
          "type": "uint256"
        }
      ],
      "name": "Transfer",
      "type": "event"
    },
    {
      "anonymous": false,
      "inputs": [
        {
          "indexed": true,
          "internalType": "uint256",
          "name": "_courseId",
          "type": "uint256"
        },
        {
          "indexed": true,
          "internalType": "address",
          "name": "_by",
          "type": "address"
        }
      ],
      "name": "unEnrollmentSuccess",
      "type": "event"
    },
    {
      "inputs": [],
      "name": "COURSE_OWNER_ROLE",
      "outputs": [
        {
          "internalType": "bytes32",
          "name": "",
          "type": "bytes32"
        }
      ],
      "stateMutability": "view",
      "type": "function"
    },
    {
      "inputs": [],
      "name": "CREATE_COURSE_REWARD",
      "outputs": [
        {
          "internalType": "uint256",
          "name": "",
          "type": "uint256"
        }
      ],
      "stateMutability": "view",
      "type": "function"
    },
    {
      "inputs": [],
      "name": "DEFAULT_ADMIN_ROLE",
      "outputs": [
        {
          "internalType": "bytes32",
          "name": "",
          "type": "bytes32"
        }
      ],
      "stateMutability": "view",
      "type": "function"
    },
    {
      "inputs": [],
      "name": "ECOSYSTEM_POOL",
      "outputs": [
        {
          "internalType": "uint256",
          "name": "",
          "type": "uint256"
        }
      ],
      "stateMutability": "view",
      "type": "function"
    },
    {
      "inputs": [],
      "name": "ENROLLMENT_REWARD",
      "outputs": [
        {
          "internalType": "uint256",
          "name": "",
          "type": "uint256"
        }
      ],
      "stateMutability": "view",
      "type": "function"
    },
    {
      "inputs": [],
      "name": "MAX_SCORE",
      "outputs": [
        {
          "internalType": "uint256",
          "name": "",
          "type": "uint256"
        }
      ],
      "stateMutability": "view",
      "type": "function"
    },
    {
      "inputs": [],
      "name": "MAX_SUPPLY",
      "outputs": [
        {
          "internalType": "uint256",
          "name": "",
          "type": "uint256"
        }
      ],
      "stateMutability": "view",
      "type": "function"
    },
    {
      "inputs": [],
      "name": "MIN_APPROVAL_SCORE",
      "outputs": [
        {
          "internalType": "uint256",
          "name": "",
          "type": "uint256"
        }
      ],
      "stateMutability": "view",
      "type": "function"
    },
    {
      "inputs": [],
      "name": "MULTISIG_APPROVER",
      "outputs": [
        {
          "internalType": "bytes32",
          "name": "",
          "type": "bytes32"
        }
      ],
      "stateMutability": "view",
      "type": "function"
    },
    {
      "inputs": [],
      "name": "REQUIRED_APPROVALS",
      "outputs": [
        {
          "internalType": "uint256",
          "name": "",
          "type": "uint256"
        }
      ],
      "stateMutability": "view",
      "type": "function"
    },
    {
      "inputs": [],
      "name": "REVIEWER_ROLE",
      "outputs": [
        {
          "internalType": "bytes32",
          "name": "",
          "type": "bytes32"
        }
      ],
      "stateMutability": "view",
      "type": "function"
    },
    {
      "inputs": [
        {
          "internalType": "address",
          "name": "",
          "type": "address"
        }
      ],
      "name": "accountCourses",
      "outputs": [
        {
          "internalType": "uint256",
          "name": "courseCount",
          "type": "uint256"
        }
      ],
      "stateMutability": "view",
      "type": "function"
    },
    {
      "inputs": [
        {
          "internalType": "uint256",
          "name": "_courseId",
          "type": "uint256"
        },
        {
          "internalType": "string[]",
          "name": "_chapters",
          "type": "string[]"
        }
      ],
      "name": "addChapters",
      "outputs": [
        {
          "internalType": "bool",
          "name": "",
          "type": "bool"
        }
      ],
      "stateMutability": "nonpayable",
      "type": "function"
    },
    {
      "inputs": [
        {
          "internalType": "uint256",
          "name": "_chapterId",
          "type": "uint256"
        },
        {
          "internalType": "string",
          "name": "_lessonName",
          "type": "string"
        },
        {
          "internalType": "string",
          "name": "_lessonContent",
          "type": "string"
        }
      ],
      "name": "addLesson",
      "outputs": [],
      "stateMutability": "nonpayable",
      "type": "function"
    },
    {
      "inputs": [
        {
          "internalType": "uint256",
          "name": "_lessonId",
          "type": "uint256"
        },
        {
          "components": [
            {
              "internalType": "string",
              "name": "contentType",
              "type": "string"
            },
            {
              "internalType": "string",
              "name": "url",
              "type": "string"
            },
            {
              "internalType": "string",
              "name": "description",
              "type": "string"
            }
          ],
          "internalType": "struct Ecosystem.Resource[]",
          "name": "_resources",
          "type": "tuple[]"
        }
      ],
      "name": "addResourcesToLesson",
      "outputs": [],
      "stateMutability": "nonpayable",
      "type": "function"
    },
    {
      "inputs": [
        {
          "internalType": "address",
          "name": "newReviewer",
          "type": "address"
        }
      ],
      "name": "addReviewer",
      "outputs": [],
      "stateMutability": "nonpayable",
      "type": "function"
    },
    {
      "inputs": [
        {
          "internalType": "address",
          "name": "owner",
          "type": "address"
        },
        {
          "internalType": "address",
          "name": "spender",
          "type": "address"
        }
      ],
      "name": "allowance",
      "outputs": [
        {
          "internalType": "uint256",
          "name": "",
          "type": "uint256"
        }
      ],
      "stateMutability": "view",
      "type": "function"
    },
    {
      "inputs": [
        {
          "internalType": "address",
          "name": "",
          "type": "address"
        },
        {
          "internalType": "uint256",
          "name": "",
          "type": "uint256"
        }
      ],
      "name": "approvals",
      "outputs": [
        {
          "internalType": "bool",
          "name": "",
          "type": "bool"
        }
      ],
      "stateMutability": "view",
      "type": "function"
    },
    {
      "inputs": [
        {
          "internalType": "address",
          "name": "spender",
          "type": "address"
        },
        {
          "internalType": "uint256",
          "name": "value",
          "type": "uint256"
        }
      ],
      "name": "approve",
      "outputs": [
        {
          "internalType": "bool",
          "name": "",
          "type": "bool"
        }
      ],
      "stateMutability": "nonpayable",
      "type": "function"
    },
    {
      "inputs": [
        {
          "internalType": "uint256",
          "name": "_courseId",
          "type": "uint256"
        }
      ],
      "name": "approveCourse",
      "outputs": [],
      "stateMutability": "nonpayable",
      "type": "function"
    },
    {
      "inputs": [
        {
          "internalType": "uint256",
          "name": "_proposalId",
          "type": "uint256"
        }
      ],
      "name": "approveMultiSigProposal",
      "outputs": [],
      "stateMutability": "nonpayable",
      "type": "function"
    },
    {
      "inputs": [
        {
          "internalType": "address",
          "name": "account",
          "type": "address"
        }
      ],
      "name": "balanceOf",
      "outputs": [
        {
          "internalType": "uint256",
          "name": "",
          "type": "uint256"
        }
      ],
      "stateMutability": "view",
      "type": "function"
    },
    {
      "inputs": [
        {
          "internalType": "uint256",
          "name": "",
          "type": "uint256"
        }
      ],
      "name": "chapter",
      "outputs": [
        {
          "internalType": "uint256",
          "name": "chapterId",
          "type": "uint256"
        },
        {
          "internalType": "string",
          "name": "chapterName",
          "type": "string"
        },
        {
          "internalType": "bool",
          "name": "exists",
          "type": "bool"
        }
      ],
      "stateMutability": "view",
      "type": "function"
    },
    {
      "inputs": [
        {
          "internalType": "uint256",
          "name": "",
          "type": "uint256"
        },
        {
          "internalType": "uint256",
          "name": "",
          "type": "uint256"
        }
      ],
      "name": "chapterLessons",
      "outputs": [
        {
          "internalType": "string",
          "name": "",
          "type": "string"
        }
      ],
      "stateMutability": "view",
      "type": "function"
    },
    {
      "inputs": [
        {
          "internalType": "uint256",
          "name": "",
          "type": "uint256"
        },
        {
          "internalType": "uint256",
          "name": "",
          "type": "uint256"
        }
      ],
      "name": "courseChapters",
      "outputs": [
        {
          "internalType": "uint256",
          "name": "chapterId",
          "type": "uint256"
        },
        {
          "internalType": "string",
          "name": "chapterName",
          "type": "string"
        },
        {
          "internalType": "bool",
          "name": "exists",
          "type": "bool"
        }
      ],
      "stateMutability": "view",
      "type": "function"
    },
    {
      "inputs": [],
      "name": "courseCount",
      "outputs": [
        {
          "internalType": "uint256",
          "name": "",
          "type": "uint256"
        }
      ],
      "stateMutability": "view",
      "type": "function"
    },
    {
      "inputs": [
        {
          "internalType": "uint256",
          "name": "",
          "type": "uint256"
        }
      ],
      "name": "courseObject",
      "outputs": [
        {
          "internalType": "uint256",
          "name": "courseId",
          "type": "uint256"
        },
        {
          "internalType": "string",
          "name": "courseName",
          "type": "string"
        },
        {
          "internalType": "string",
          "name": "description",
          "type": "string"
        },
        {
          "internalType": "bool",
          "name": "approved",
          "type": "bool"
        },
        {
          "internalType": "uint256",
          "name": "approvalCount",
          "type": "uint256"
        },
        {
          "internalType": "address",
          "name": "creator",
          "type": "address"
        }
      ],
      "stateMutability": "view",
      "type": "function"
    },
    {
      "inputs": [
        {
          "internalType": "uint256",
          "name": "",
          "type": "uint256"
        }
      ],
      "name": "courseReviewInitiated",
      "outputs": [
        {
          "internalType": "bool",
          "name": "",
          "type": "bool"
        }
      ],
      "stateMutability": "view",
      "type": "function"
    },
    {
      "inputs": [
        {
          "internalType": "uint256",
          "name": "",
          "type": "uint256"
        },
        {
          "internalType": "uint256",
          "name": "",
          "type": "uint256"
        }
      ],
      "name": "courseReviewers",
      "outputs": [
        {
          "internalType": "address",
          "name": "",
          "type": "address"
        }
      ],
      "stateMutability": "view",
      "type": "function"
    },
    {
      "inputs": [
        {
          "internalType": "string",
          "name": "_courseName",
          "type": "string"
        },
        {
          "internalType": "string",
          "name": "_description",
          "type": "string"
        }
      ],
      "name": "createCourse",
      "outputs": [
        {
          "internalType": "bool",
          "name": "",
          "type": "bool"
        }
      ],
      "stateMutability": "nonpayable",
      "type": "function"
    },
    {
      "inputs": [
        {
          "internalType": "uint256",
          "name": "_quizId",
          "type": "uint256"
        },
        {
          "internalType": "string",
          "name": "_questionText",
          "type": "string"
        },
        {
          "internalType": "string[]",
          "name": "_options",
          "type": "string[]"
        },
        {
          "internalType": "uint8",
          "name": "_correctChoiceIndex",
          "type": "uint8"
        }
      ],
      "name": "createQuestionWithChoices",
      "outputs": [],
      "stateMutability": "nonpayable",
      "type": "function"
    },
    {
      "inputs": [
        {
          "internalType": "uint256",
          "name": "_lessonId",
          "type": "uint256"
        },
        {
          "internalType": "string",
          "name": "_title",
          "type": "string"
        }
      ],
      "name": "createQuiz",
      "outputs": [
        {
          "internalType": "uint256",
          "name": "",
          "type": "uint256"
        }
      ],
      "stateMutability": "nonpayable",
      "type": "function"
    },
    {
      "inputs": [],
      "name": "decimals",
      "outputs": [
        {
          "internalType": "uint8",
          "name": "",
          "type": "uint8"
        }
      ],
      "stateMutability": "view",
      "type": "function"
    },
    {
      "inputs": [],
      "name": "ecosystemPoolSupply",
      "outputs": [
        {
          "internalType": "uint256",
          "name": "",
          "type": "uint256"
        }
      ],
      "stateMutability": "view",
      "type": "function"
    },
    {
      "inputs": [
        {
          "internalType": "uint256",
          "name": "_courseId",
          "type": "uint256"
        }
      ],
      "name": "enroll",
      "outputs": [
        {
          "internalType": "bool",
          "name": "",
          "type": "bool"
        }
      ],
      "stateMutability": "nonpayable",
      "type": "function"
    },
    {
      "inputs": [],
      "name": "getAllCourses",
      "outputs": [
        {
          "components": [
            {
              "internalType": "uint256",
              "name": "courseId",
              "type": "uint256"
            },
            {
              "internalType": "string",
              "name": "courseName",
              "type": "string"
            },
            {
              "internalType": "string",
              "name": "description",
              "type": "string"
            },
            {
              "internalType": "bool",
              "name": "approved",
              "type": "bool"
            },
            {
              "internalType": "uint256",
              "name": "approvalCount",
              "type": "uint256"
            },
            {
              "internalType": "address",
              "name": "creator",
              "type": "address"
            }
          ],
          "internalType": "struct Ecosystem.Course[]",
          "name": "",
          "type": "tuple[]"
        }
      ],
      "stateMutability": "view",
      "type": "function"
    },
    {
      "inputs": [],
      "name": "getAllLessons",
      "outputs": [
        {
          "components": [
            {
              "internalType": "uint256",
              "name": "lessonId",
              "type": "uint256"
            },
            {
              "internalType": "string",
              "name": "lessonName",
              "type": "string"
            },
            {
              "internalType": "string",
              "name": "lessonContent",
              "type": "string"
            },
            {
              "components": [
                {
                  "internalType": "string",
                  "name": "contentType",
                  "type": "string"
                },
                {
                  "internalType": "string",
                  "name": "url",
                  "type": "string"
                },
                {
                  "internalType": "string",
                  "name": "description",
                  "type": "string"
                }
              ],
              "internalType": "struct Ecosystem.Resource[10]",
              "name": "additionalResources",
              "type": "tuple[10]"
            },
            {
              "internalType": "uint256",
              "name": "resourceCount",
              "type": "uint256"
            },
            {
              "internalType": "bool",
              "name": "exists",
              "type": "bool"
            }
          ],
          "internalType": "struct Ecosystem.Lesson[]",
          "name": "",
          "type": "tuple[]"
        }
      ],
      "stateMutability": "view",
      "type": "function"
    },
    {
      "inputs": [
        {
          "internalType": "uint256",
          "name": "_courseId",
          "type": "uint256"
        }
      ],
      "name": "getChapters",
      "outputs": [
        {
          "components": [
            {
              "internalType": "uint256",
              "name": "chapterId",
              "type": "uint256"
            },
            {
              "internalType": "string",
              "name": "chapterName",
              "type": "string"
            },
            {
              "internalType": "bool",
              "name": "exists",
              "type": "bool"
            }
          ],
          "internalType": "struct Ecosystem.Chapter[]",
          "name": "",
          "type": "tuple[]"
        }
      ],
      "stateMutability": "view",
      "type": "function"
    },
    {
      "inputs": [
        {
          "internalType": "uint256",
          "name": "courseId",
          "type": "uint256"
        }
      ],
      "name": "getCourseReviewers",
      "outputs": [
        {
          "internalType": "address[]",
          "name": "",
          "type": "address[]"
        }
      ],
      "stateMutability": "view",
      "type": "function"
    },
    {
      "inputs": [],
      "name": "getCurrentEcosystemPoolSupply",
      "outputs": [
        {
          "internalType": "uint256",
          "name": "",
          "type": "uint256"
        }
      ],
      "stateMutability": "view",
      "type": "function"
    },
    {
      "inputs": [
        {
          "internalType": "uint256",
          "name": "_quizId",
          "type": "uint256"
        }
      ],
      "name": "getQuiz",
      "outputs": [
        {
          "components": [
            {
              "internalType": "uint256",
              "name": "quizId",
              "type": "uint256"
            },
            {
              "internalType": "string",
              "name": "quizTitle",
              "type": "string"
            },
            {
              "components": [
                {
                  "internalType": "uint256",
                  "name": "questionId",
                  "type": "uint256"
                },
                {
                  "internalType": "string",
                  "name": "questionText",
                  "type": "string"
                },
                {
                  "components": [
                    {
                      "internalType": "string",
                      "name": "option",
                      "type": "string"
                    },
                    {
                      "internalType": "bool",
                      "name": "isCorrect",
                      "type": "bool"
                    }
                  ],
                  "internalType": "struct Ecosystem.Choice[]",
                  "name": "choices",
                  "type": "tuple[]"
                }
              ],
              "internalType": "struct Ecosystem.Question[]",
              "name": "questions",
              "type": "tuple[]"
            },
            {
              "internalType": "bool",
              "name": "exists",
              "type": "bool"
            }
          ],
          "internalType": "struct Ecosystem.Quiz",
          "name": "",
          "type": "tuple"
        }
      ],
      "stateMutability": "view",
      "type": "function"
    },
    {
      "inputs": [
        {
          "internalType": "bytes32",
          "name": "role",
          "type": "bytes32"
        }
      ],
      "name": "getRoleAdmin",
      "outputs": [
        {
          "internalType": "bytes32",
          "name": "",
          "type": "bytes32"
        }
      ],
      "stateMutability": "view",
      "type": "function"
    },
    {
      "inputs": [
        {
          "internalType": "bytes32",
          "name": "role",
          "type": "bytes32"
        },
        {
          "internalType": "address",
          "name": "account",
          "type": "address"
        }
      ],
      "name": "grantRole",
      "outputs": [],
      "stateMutability": "nonpayable",
      "type": "function"
    },
    {
      "inputs": [
        {
          "internalType": "bytes32",
          "name": "role",
          "type": "bytes32"
        },
        {
          "internalType": "address",
          "name": "account",
          "type": "address"
        }
      ],
      "name": "hasRole",
      "outputs": [
        {
          "internalType": "bool",
          "name": "",
          "type": "bool"
        }
      ],
      "stateMutability": "view",
      "type": "function"
    },
    {
      "inputs": [
        {
          "internalType": "uint256",
          "name": "",
          "type": "uint256"
        },
        {
          "internalType": "address",
          "name": "",
          "type": "address"
        }
      ],
      "name": "isEnrolled",
      "outputs": [
        {
          "internalType": "bool",
          "name": "",
          "type": "bool"
        }
      ],
      "stateMutability": "view",
      "type": "function"
    },
    {
      "inputs": [
        {
          "internalType": "address",
          "name": "",
          "type": "address"
        }
      ],
      "name": "isInReviewerPool",
      "outputs": [
        {
          "internalType": "bool",
          "name": "",
          "type": "bool"
        }
      ],
      "stateMutability": "view",
      "type": "function"
    },
    {
      "inputs": [
        {
          "internalType": "address",
          "name": "account",
          "type": "address"
        }
      ],
      "name": "isReviewer",
      "outputs": [
        {
          "internalType": "bool",
          "name": "",
          "type": "bool"
        }
      ],
      "stateMutability": "view",
      "type": "function"
    },
    {
      "inputs": [
        {
          "internalType": "uint256",
          "name": "",
          "type": "uint256"
        }
      ],
      "name": "lesson",
      "outputs": [
        {
          "internalType": "uint256",
          "name": "lessonId",
          "type": "uint256"
        },
        {
          "internalType": "string",
          "name": "lessonName",
          "type": "string"
        },
        {
          "internalType": "string",
          "name": "lessonContent",
          "type": "string"
        },
        {
          "internalType": "uint256",
          "name": "resourceCount",
          "type": "uint256"
        },
        {
          "internalType": "bool",
          "name": "exists",
          "type": "bool"
        }
      ],
      "stateMutability": "view",
      "type": "function"
    },
    {
      "inputs": [
        {
          "internalType": "uint256",
          "name": "",
          "type": "uint256"
        }
      ],
      "name": "listOfChapters",
      "outputs": [
        {
          "internalType": "uint256",
          "name": "chapterId",
          "type": "uint256"
        },
        {
          "internalType": "string",
          "name": "chapterName",
          "type": "string"
        },
        {
          "internalType": "bool",
          "name": "exists",
          "type": "bool"
        }
      ],
      "stateMutability": "view",
      "type": "function"
    },
    {
      "inputs": [
        {
          "internalType": "uint256",
          "name": "",
          "type": "uint256"
        }
      ],
      "name": "listOfCourses",
      "outputs": [
        {
          "internalType": "uint256",
          "name": "courseId",
          "type": "uint256"
        },
        {
          "internalType": "string",
          "name": "courseName",
          "type": "string"
        },
        {
          "internalType": "string",
          "name": "description",
          "type": "string"
        },
        {
          "internalType": "bool",
          "name": "approved",
          "type": "bool"
        },
        {
          "internalType": "uint256",
          "name": "approvalCount",
          "type": "uint256"
        },
        {
          "internalType": "address",
          "name": "creator",
          "type": "address"
        }
      ],
      "stateMutability": "view",
      "type": "function"
    },
    {
      "inputs": [
        {
          "internalType": "uint256",
          "name": "",
          "type": "uint256"
        }
      ],
      "name": "listOfLessons",
      "outputs": [
        {
          "internalType": "uint256",
          "name": "lessonId",
          "type": "uint256"
        },
        {
          "internalType": "string",
          "name": "lessonName",
          "type": "string"
        },
        {
          "internalType": "string",
          "name": "lessonContent",
          "type": "string"
        },
        {
          "internalType": "uint256",
          "name": "resourceCount",
          "type": "uint256"
        },
        {
          "internalType": "bool",
          "name": "exists",
          "type": "bool"
        }
      ],
      "stateMutability": "view",
      "type": "function"
    },
    {
      "inputs": [
        {
          "internalType": "uint256",
          "name": "",
          "type": "uint256"
        }
      ],
      "name": "listOfQuestions",
      "outputs": [
        {
          "internalType": "uint256",
          "name": "questionId",
          "type": "uint256"
        },
        {
          "internalType": "string",
          "name": "questionText",
          "type": "string"
        }
      ],
      "stateMutability": "view",
      "type": "function"
    },
    {
      "inputs": [
        {
          "internalType": "uint256",
          "name": "",
          "type": "uint256"
        }
      ],
      "name": "listOfQuizzes",
      "outputs": [
        {
          "internalType": "uint256",
          "name": "quizId",
          "type": "uint256"
        },
        {
          "internalType": "string",
          "name": "quizTitle",
          "type": "string"
        },
        {
          "internalType": "bool",
          "name": "exists",
          "type": "bool"
        }
      ],
      "stateMutability": "view",
      "type": "function"
    },
    {
      "inputs": [
        {
          "internalType": "uint256",
          "name": "",
          "type": "uint256"
        }
      ],
      "name": "listOfResource",
      "outputs": [
        {
          "internalType": "string",
          "name": "contentType",
          "type": "string"
        },
        {
          "internalType": "string",
          "name": "url",
          "type": "string"
        },
        {
          "internalType": "string",
          "name": "description",
          "type": "string"
        }
      ],
      "stateMutability": "view",
      "type": "function"
    },
    {
      "inputs": [
        {
          "internalType": "uint256",
          "name": "",
          "type": "uint256"
        }
      ],
      "name": "multiSigProposals",
      "outputs": [
        {
          "internalType": "uint256",
          "name": "id",
          "type": "uint256"
        },
        {
          "internalType": "address",
          "name": "proposer",
          "type": "address"
        },
        {
          "internalType": "address",
          "name": "targetContract",
          "type": "address"
        },
        {
          "internalType": "bytes",
          "name": "data",
          "type": "bytes"
        },
        {
          "internalType": "uint256",
          "name": "approvalCount",
          "type": "uint256"
        },
        {
          "internalType": "bool",
          "name": "executed",
          "type": "bool"
        }
      ],
      "stateMutability": "view",
      "type": "function"
    },
    {
      "inputs": [],
      "name": "name",
      "outputs": [
        {
          "internalType": "string",
          "name": "",
          "type": "string"
        }
      ],
      "stateMutability": "view",
      "type": "function"
    },
    {
      "inputs": [],
      "name": "nextChapterId",
      "outputs": [
        {
          "internalType": "uint256",
          "name": "",
          "type": "uint256"
        }
      ],
      "stateMutability": "view",
      "type": "function"
    },
    {
      "inputs": [],
      "name": "nextChoiceId",
      "outputs": [
        {
          "internalType": "uint256",
          "name": "",
          "type": "uint256"
        }
      ],
      "stateMutability": "view",
      "type": "function"
    },
    {
      "inputs": [],
      "name": "nextCourseId",
      "outputs": [
        {
          "internalType": "uint256",
          "name": "",
          "type": "uint256"
        }
      ],
      "stateMutability": "view",
      "type": "function"
    },
    {
      "inputs": [],
      "name": "nextCourseIdd",
      "outputs": [
        {
          "internalType": "uint256",
          "name": "",
          "type": "uint256"
        }
      ],
      "stateMutability": "view",
      "type": "function"
    },
    {
      "inputs": [],
      "name": "nextLessonId",
      "outputs": [
        {
          "internalType": "uint256",
          "name": "",
          "type": "uint256"
        }
      ],
      "stateMutability": "view",
      "type": "function"
    },
    {
      "inputs": [],
      "name": "nextQuestionId",
      "outputs": [
        {
          "internalType": "uint256",
          "name": "",
          "type": "uint256"
        }
      ],
      "stateMutability": "view",
      "type": "function"
    },
    {
      "inputs": [],
      "name": "nextQuizId",
      "outputs": [
        {
          "internalType": "uint256",
          "name": "",
          "type": "uint256"
        }
      ],
      "stateMutability": "view",
      "type": "function"
    },
    {
      "inputs": [
        {
          "internalType": "uint256",
          "name": "",
          "type": "uint256"
        }
      ],
      "name": "questions",
      "outputs": [
        {
          "internalType": "uint256",
          "name": "questionId",
          "type": "uint256"
        },
        {
          "internalType": "string",
          "name": "questionText",
          "type": "string"
        }
      ],
      "stateMutability": "view",
      "type": "function"
    },
    {
      "inputs": [
        {
          "internalType": "uint256",
          "name": "",
          "type": "uint256"
        }
      ],
      "name": "quizzes",
      "outputs": [
        {
          "internalType": "uint256",
          "name": "quizId",
          "type": "uint256"
        },
        {
          "internalType": "string",
          "name": "quizTitle",
          "type": "string"
        },
        {
          "internalType": "bool",
          "name": "exists",
          "type": "bool"
        }
      ],
      "stateMutability": "view",
      "type": "function"
    },
    {
      "inputs": [
        {
          "internalType": "address",
          "name": "reviewer",
          "type": "address"
        }
      ],
      "name": "removeReviewer",
      "outputs": [],
      "stateMutability": "nonpayable",
      "type": "function"
    },
    {
      "inputs": [
        {
          "internalType": "bytes32",
          "name": "role",
          "type": "bytes32"
        },
        {
          "internalType": "address",
          "name": "callerConfirmation",
          "type": "address"
        }
      ],
      "name": "renounceRole",
      "outputs": [],
      "stateMutability": "nonpayable",
      "type": "function"
    },
    {
      "inputs": [
        {
          "internalType": "uint256",
          "name": "",
          "type": "uint256"
        }
      ],
      "name": "reviewerPool",
      "outputs": [
        {
          "internalType": "address",
          "name": "",
          "type": "address"
        }
      ],
      "stateMutability": "view",
      "type": "function"
    },
    {
      "inputs": [
        {
          "internalType": "uint256",
          "name": "",
          "type": "uint256"
        },
        {
          "internalType": "address",
          "name": "",
          "type": "address"
        }
      ],
      "name": "reviews",
      "outputs": [
        {
          "internalType": "uint256",
          "name": "learnerAgency",
          "type": "uint256"
        },
        {
          "internalType": "uint256",
          "name": "criticalThinking",
          "type": "uint256"
        },
        {
          "internalType": "uint256",
          "name": "collaborativeLearning",
          "type": "uint256"
        },
        {
          "internalType": "uint256",
          "name": "reflectivePractice",
          "type": "uint256"
        },
        {
          "internalType": "uint256",
          "name": "adaptiveLearning",
          "type": "uint256"
        },
        {
          "internalType": "uint256",
          "name": "authenticLearning",
          "type": "uint256"
        },
        {
          "internalType": "uint256",
          "name": "technologyIntegration",
          "type": "uint256"
        },
        {
          "internalType": "uint256",
          "name": "learnerSupport",
          "type": "uint256"
        },
        {
          "internalType": "uint256",
          "name": "assessmentForLearning",
          "type": "uint256"
        },
        {
          "internalType": "uint256",
          "name": "engagementAndMotivation",
          "type": "uint256"
        },
        {
          "internalType": "bool",
          "name": "isSubmitted",
          "type": "bool"
        }
      ],
      "stateMutability": "view",
      "type": "function"
    },
    {
      "inputs": [
        {
          "internalType": "bytes32",
          "name": "role",
          "type": "bytes32"
        },
        {
          "internalType": "address",
          "name": "account",
          "type": "address"
        }
      ],
      "name": "revokeRole",
      "outputs": [],
      "stateMutability": "nonpayable",
      "type": "function"
    },
    {
      "inputs": [
        {
          "internalType": "uint256",
          "name": "courseId",
          "type": "uint256"
        }
      ],
      "name": "selectCourseReviewers",
      "outputs": [],
      "stateMutability": "nonpayable",
      "type": "function"
    },
    {
      "inputs": [
        {
          "internalType": "uint256",
          "name": "courseId",
          "type": "uint256"
        },
        {
          "internalType": "uint256",
          "name": "learnerAgency",
          "type": "uint256"
        },
        {
          "internalType": "uint256",
          "name": "criticalThinking",
          "type": "uint256"
        },
        {
          "internalType": "uint256",
          "name": "collaborativeLearning",
          "type": "uint256"
        },
        {
          "internalType": "uint256",
          "name": "reflectivePractice",
          "type": "uint256"
        },
        {
          "internalType": "uint256",
          "name": "adaptiveLearning",
          "type": "uint256"
        },
        {
          "internalType": "uint256",
          "name": "authenticLearning",
          "type": "uint256"
        },
        {
          "internalType": "uint256",
          "name": "technologyIntegration",
          "type": "uint256"
        },
        {
          "internalType": "uint256",
          "name": "learnerSupport",
          "type": "uint256"
        },
        {
          "internalType": "uint256",
          "name": "assessmentForLearning",
          "type": "uint256"
        },
        {
          "internalType": "uint256",
          "name": "engagementAndMotivation",
          "type": "uint256"
        }
      ],
      "name": "submitReview",
      "outputs": [],
      "stateMutability": "nonpayable",
      "type": "function"
    },
    {
      "inputs": [
        {
          "internalType": "bytes4",
          "name": "interfaceId",
          "type": "bytes4"
        }
      ],
      "name": "supportsInterface",
      "outputs": [
        {
          "internalType": "bool",
          "name": "",
          "type": "bool"
        }
      ],
      "stateMutability": "view",
      "type": "function"
    },
    {
      "inputs": [],
      "name": "symbol",
      "outputs": [
        {
          "internalType": "string",
          "name": "",
          "type": "string"
        }
      ],
      "stateMutability": "view",
      "type": "function"
    },
    {
      "inputs": [],
      "name": "totalSupply",
      "outputs": [
        {
          "internalType": "uint256",
          "name": "",
          "type": "uint256"
        }
      ],
      "stateMutability": "view",
      "type": "function"
    },
    {
      "inputs": [
        {
          "internalType": "address",
          "name": "to",
          "type": "address"
        },
        {
          "internalType": "uint256",
          "name": "value",
          "type": "uint256"
        }
      ],
      "name": "transfer",
      "outputs": [
        {
          "internalType": "bool",
          "name": "",
          "type": "bool"
        }
      ],
      "stateMutability": "nonpayable",
      "type": "function"
    },
    {
      "inputs": [
        {
          "internalType": "address",
          "name": "from",
          "type": "address"
        },
        {
          "internalType": "address",
          "name": "to",
          "type": "address"
        },
        {
          "internalType": "uint256",
          "name": "value",
          "type": "uint256"
        }
      ],
      "name": "transferFrom",
      "outputs": [
        {
          "internalType": "bool",
          "name": "",
          "type": "bool"
        }
      ],
      "stateMutability": "nonpayable",
      "type": "function"
    },
    {
      "inputs": [
        {
          "internalType": "uint256",
          "name": "_courseId",
          "type": "uint256"
        }
      ],
      "name": "unEnroll",
      "outputs": [
        {
          "internalType": "bool",
          "name": "",
          "type": "bool"
        }
      ],
      "stateMutability": "nonpayable",
      "type": "function"
    }
  ],
  "bytecode": "0x608060405234801561001057600080fd5b5060405161a1c238038061a1c28339818101604052810190610032919061063b565b80806040518060400160405280600a81526020017f4142594120544f4b454e000000000000000000000000000000000000000000008152506040518060400160405280600681526020017f414259544b4e000000000000000000000000000000000000000000000000000081525081600390816100af91906108a5565b5080600490816100bf91906108a5565b505050600481511015610107576040517f08c379a00000000000000000000000000000000000000000000000000000000081526004016100fe906109fa565b60405180910390fd5b61011a6000801b336102c060201b60201c565b5061014b7fdf1425bae297c2f52b4f15d18a50b1fc8cb5b981a981b1d213ed3ff92681b64d336102c060201b60201c565b5060005b815181101561029f576101a27fc10c77be35aff266144ed64c26a1fa104bae2f284ae99ac4a34203454704a18583838151811061018f5761018e610a1a565b5b60200260200101516102c060201b60201c565b5060068282815181106101b8576101b7610a1a565b5b60200260200101519080600181540180825580915050600190039060005260206000200160009091909190916101000a81548173ffffffffffffffffffffffffffffffffffffffff021916908373ffffffffffffffffffffffffffffffffffffffff16021790555060016008600084848151811061023957610238610a1a565b5b602002602001015173ffffffffffffffffffffffffffffffffffffffff1673ffffffffffffffffffffffffffffffffffffffff16815260200190815260200160002060006101000a81548160ff021916908315150217905550808060010191505061014f565b50506001600a819055506102b9600b6103be60201b60201c565b5050610a49565b60006102d283836103fd60201b60201c565b6103b35760016005600085815260200190815260200160002060000160008473ffffffffffffffffffffffffffffffffffffffff1673ffffffffffffffffffffffffffffffffffffffff16815260200190815260200160002060006101000a81548160ff02191690831515021790555061035061046860201b60201c565b73ffffffffffffffffffffffffffffffffffffffff168273ffffffffffffffffffffffffffffffffffffffff16847f2f8788117e7eff1d82e926ec794901d17c78024a50270940304540a733656f0d60405160405180910390a4600190506103b8565b600090505b92915050565b60018160000181905550600181600101819055506001816002018190555060018160030181905550600181600401819055506001816005018190555050565b60006005600084815260200190815260200160002060000160008373ffffffffffffffffffffffffffffffffffffffff1673ffffffffffffffffffffffffffffffffffffffff16815260200190815260200160002060009054906101000a900460ff16905092915050565b600033905090565b6000604051905090565b600080fd5b600080fd5b600080fd5b6000601f19601f8301169050919050565b7f4e487b7100000000000000000000000000000000000000000000000000000000600052604160045260246000fd5b6104d282610489565b810181811067ffffffffffffffff821117156104f1576104f061049a565b5b80604052505050565b6000610504610470565b905061051082826104c9565b919050565b600067ffffffffffffffff8211156105305761052f61049a565b5b602082029050602081019050919050565b600080fd5b600073ffffffffffffffffffffffffffffffffffffffff82169050919050565b600061057182610546565b9050919050565b61058181610566565b811461058c57600080fd5b50565b60008151905061059e81610578565b92915050565b60006105b76105b284610515565b6104fa565b905080838252602082019050602084028301858111156105da576105d9610541565b5b835b8181101561060357806105ef888261058f565b8452602084019350506020810190506105dc565b5050509392505050565b600082601f83011261062257610621610484565b5b81516106328482602086016105a4565b91505092915050565b6000602082840312156106515761065061047a565b5b600082015167ffffffffffffffff81111561066f5761066e61047f565b5b61067b8482850161060d565b91505092915050565b600081519050919050565b7f4e487b7100000000000000000000000000000000000000000000000000000000600052602260045260246000fd5b600060028204905060018216806106d657607f821691505b6020821081036106e9576106e861068f565b5b50919050565b60008190508160005260206000209050919050565b60006020601f8301049050919050565b600082821b905092915050565b6000600883026107517fffffffffffffffffffffffffffffffffffffffffffffffffffffffffffffffff82610714565b61075b8683610714565b95508019841693508086168417925050509392505050565b6000819050919050565b6000819050919050565b60006107a261079d61079884610773565b61077d565b610773565b9050919050565b6000819050919050565b6107bc83610787565b6107d06107c8826107a9565b848454610721565b825550505050565b600090565b6107e56107d8565b6107f08184846107b3565b505050565b5b81811015610814576108096000826107dd565b6001810190506107f6565b5050565b601f8211156108595761082a816106ef565b61083384610704565b81016020851015610842578190505b61085661084e85610704565b8301826107f5565b50505b505050565b600082821c905092915050565b600061087c6000198460080261085e565b1980831691505092915050565b6000610895838361086b565b9150826002028217905092915050565b6108ae82610684565b67ffffffffffffffff8111156108c7576108c661049a565b5b6108d182546106be565b6108dc828285610818565b600060209050601f83116001811461090f57600084156108fd578287015190505b6109078582610889565b86555061096f565b601f19841661091d866106ef565b60005b8281101561094557848901518255600182019150602085019450602081019050610920565b86831015610962578489015161095e601f89168261086b565b8355505b6001600288020188555050505b505050505050565b600082825260208201905092915050565b7f4174206c6561737420342072657669657765727320617265207265717569726560008201527f6400000000000000000000000000000000000000000000000000000000000000602082015250565b60006109e4602183610977565b91506109ef82610988565b604082019050919050565b60006020820190508181036000830152610a13816109d7565b9050919050565b7f4e487b7100000000000000000000000000000000000000000000000000000000600052603260045260246000fd5b61976a80610a586000396000f3fe608060405234801561001057600080fd5b506004361061046a5760003560e01c8063752849981161024c578063bad0dd6511610146578063d547741f116100c3578063e503f10811610087578063e503f10814610f9c578063eb264b9c14610fba578063f57d585b14610fd8578063fdc6258a14611008578063ffabc673146110385761046a565b8063d547741f14610ee2578063d93f2caa14610efe578063dd62ed3e14610f1c578063ddfc79fb14610f4c578063ded5c18d14610f7e5761046a565b8063c7954e4c1161010a578063c7954e4c14610e2a578063c90c884d14610e48578063c9442dac14610e7a578063c976831514610e96578063d3751bfc14610ec65761046a565b8063bad0dd6514610d40578063bfd2f4c514610d5c578063c12804fb14610d90578063c293bbbe14610dca578063c491b04c14610dfa5761046a565b8063a1cd05b1116101d4578063a3f7e09611610198578063a3f7e09614610c62578063a9059cbb14610c92578063aa95da3a14610cc2578063ac678a9314610cf2578063ac957c6314610d225761046a565b8063a1cd05b114610b94578063a217fddf14610bc4578063a26a795314610be2578063a296ea5814610c12578063a3ef204114610c305761046a565b806388409afa1161021b57806388409afa14610ada5780638ea6e2fd14610b0c57806391d1485414610b2857806395d89b4114610b58578063a14ecbdf14610b765761046a565b80637528499814610a6657806375b9d86914610a825780637d83daf214610a9e578063846f815214610abc5761046a565b8063313ce5671161036857806352994e2f116102e557806366055159116102a957806366055159146109a95780636b000fa7146109c75780636fdb67f7146109e557806370a0823114610a1a57806373a82b5f14610a4a5761046a565b806352994e2f1461090557806358a3fa2514610923578063599c55331461093f5780635d33d4521461095d578063632c224b146109795761046a565b80633693dcfa1161032c5780633693dcfa146108315780633b129a561461084f57806340932bf81461086d5780634d42ef48146108a257806351d93c81146108d45761046a565b8063313ce5671461077857806331b1b9781461079657806332cb6b0c146107c757806334ed4bdb146107e557806336568abe146108155761046a565b806323b872dd116103f65780632990db7c116103ba5780632990db7c146106a557806329a0be65146106da5780632aac61ae146106f85780632f2ff15d1461072c5780632fab55af146107485761046a565b806323b872dd146105d7578063248a9ca314610607578063274202f01461063757806327ff622314610655578063295b825a146106735761046a565b8063095ea7b31161043d578063095ea7b3146104f957806311ce15df1461052957806318160ddd1461055957806319f102ec1461057757806320bd0316146105a75761046a565b806301ffc9a71461046f57806304e48bd11461049f578063057f46bb146104bd57806306fdde03146104db575b600080fd5b61048960048036038101906104849190616a94565b611068565b6040516104969190616adc565b60405180910390f35b6104a76110e2565b6040516104b49190616d42565b60405180910390f35b6104c56113e4565b6040516104d29190616d73565b60405180910390f35b6104e36113ea565b6040516104f09190616dd8565b60405180910390f35b610513600480360381019061050e9190616e52565b61147c565b6040516105209190616adc565b60405180910390f35b610543600480360381019061053e9190616e92565b61149f565b6040516105509190616adc565b60405180910390f35b6105616114bf565b60405161056e9190616d73565b60405180910390f35b610591600480360381019061058c9190616e92565b6114c9565b60405161059e9190616ece565b60405180910390f35b6105c160048036038101906105bc9190616e92565b611508565b6040516105ce9190616adc565b60405180910390f35b6105f160048036038101906105ec9190616ee9565b61167f565b6040516105fe9190616adc565b60405180910390f35b610621600480360381019061061c9190616f72565b6116ae565b60405161062e9190616fae565b60405180910390f35b61063f6116ce565b60405161064c9190616d73565b60405180910390f35b61065d6116f6565b60405161066a9190616d73565b60405180910390f35b61068d60048036038101906106889190616e92565b6116fb565b60405161069c93929190616fc9565b60405180910390f35b6106bf60048036038101906106ba9190616e92565b6117ca565b6040516106d196959493929190617007565b60405180910390f35b6106e2611943565b6040516106ef9190616d73565b60405180910390f35b610712600480360381019061070d9190616e92565b611949565b604051610723959493929190617076565b60405180910390f35b610746600480360381019061074191906170d7565b611aac565b005b610762600480360381019061075d9190617332565b611ace565b60405161076f9190616adc565b60405180910390f35b610780611d64565b60405161078d91906173aa565b60405180910390f35b6107b060048036038101906107ab9190616e92565b611d6d565b6040516107be9291906173c5565b60405180910390f35b6107cf611e19565b6040516107dc9190616d73565b60405180910390f35b6107ff60048036038101906107fa91906173f5565b611e29565b60405161080c9190616d73565b60405180910390f35b61082f600480360381019061082a91906170d7565b611e47565b005b610839611ec2565b6040516108469190616fae565b60405180910390f35b610857611ee6565b6040516108649190616fae565b60405180910390f35b61088760048036038101906108829190616e92565b611f0a565b60405161089996959493929190617477565b60405180910390f35b6108bc60048036038101906108b791906174df565b61201b565b6040516108cb93929190616fc9565b60405180910390f35b6108ee60048036038101906108e99190616e92565b6120f7565b6040516108fc9291906173c5565b60405180910390f35b61090d6121b3565b60405161091a9190616fae565b60405180910390f35b61093d6004803603810190610938919061751f565b6121d7565b005b61094761249d565b6040516109549190616d73565b60405180910390f35b6109776004803603810190610972919061766e565b6124a2565b005b610993600480360381019061098e91906176ce565b612868565b6040516109a09190616d73565b60405180910390f35b6109b16129fc565b6040516109be9190616d73565b60405180910390f35b6109cf612a02565b6040516109dc9190616d73565b60405180910390f35b6109ff60048036038101906109fa9190616e92565b612a08565b604051610a1196959493929190617007565b60405180910390f35b610a346004803603810190610a2f91906173f5565b612b91565b604051610a419190616d73565b60405180910390f35b610a646004803603810190610a5f91906173f5565b612bd9565b005b610a806004803603810190610a7b9190616e92565b612dbd565b005b610a9c6004803603810190610a97919061772a565b612fd7565b005b610aa66131d2565b604051610ab39190616d73565b60405180910390f35b610ac46131d8565b604051610ad19190616d73565b60405180910390f35b610af46004803603810190610aef9190616e92565b6131e4565b604051610b0393929190616fc9565b60405180910390f35b610b266004803603810190610b219190616e92565b6132a3565b005b610b426004803603810190610b3d91906170d7565b61360d565b604051610b4f9190616adc565b60405180910390f35b610b60613678565b604051610b6d9190616dd8565b60405180910390f35b610b7e61370a565b604051610b8b9190616d73565b60405180910390f35b610bae6004803603810190610ba991906174df565b613710565b604051610bbb9190616ece565b60405180910390f35b610bcc61375e565b604051610bd99190616fae565b60405180910390f35b610bfc6004803603810190610bf791906177b5565b613765565b604051610c099190616adc565b60405180910390f35b610c1a613b3c565b604051610c279190617a9a565b60405180910390f35b610c4a6004803603810190610c459190616e92565b613f61565b604051610c5993929190616fc9565b60405180910390f35b610c7c6004803603810190610c779190616e92565b614020565b604051610c899190617d3e565b60405180910390f35b610cac6004803603810190610ca79190616e52565b614364565b604051610cb99190616adc565b60405180910390f35b610cdc6004803603810190610cd791906174df565b614387565b604051610ce99190616dd8565b60405180910390f35b610d0c6004803603810190610d079190616e92565b61443f565b604051610d199190617e72565b60405180910390f35b610d2a614568565b604051610d379190616d73565b60405180910390f35b610d5a6004803603810190610d559190616e92565b61456d565b005b610d766004803603810190610d719190616e92565b61486c565b604051610d87959493929190617076565b60405180910390f35b610daa6004803603810190610da59190617e94565b6149bf565b604051610dc19b9a99989796959493929190617ed4565b60405180910390f35b610de46004803603810190610ddf9190616e92565b614a33565b604051610df1919061802e565b60405180910390f35b610e146004803603810190610e0f91906173f5565b614ad4565b604051610e219190616adc565b60405180910390f35b610e32614af4565b604051610e3f9190616d73565b60405180910390f35b610e626004803603810190610e5d9190616e92565b614afe565b604051610e7193929190616fc9565b60405180910390f35b610e946004803603810190610e8f91906173f5565b614bcd565b005b610eb06004803603810190610eab9190617e94565b614eb7565b604051610ebd9190616adc565b60405180910390f35b610ee06004803603810190610edb919061807c565b614ee6565b005b610efc6004803603810190610ef791906170d7565b6152f7565b005b610f06615319565b604051610f139190616d73565b60405180910390f35b610f366004803603810190610f31919061811b565b615325565b604051610f439190616d73565b60405180910390f35b610f666004803603810190610f619190616e92565b6153ac565b604051610f759392919061815b565b60405180910390f35b610f8661557e565b604051610f939190616d73565b60405180910390f35b610fa461558b565b604051610fb19190616d73565b60405180910390f35b610fc2615591565b604051610fcf9190616d73565b60405180910390f35b610ff26004803603810190610fed9190616e92565b615597565b604051610fff9190616adc565b60405180910390f35b611022600480360381019061101d91906173f5565b615773565b60405161102f9190616adc565b60405180910390f35b611052600480360381019061104d9190616e52565b6157a6565b60405161105f9190616adc565b60405180910390f35b60007f7965db0b000000000000000000000000000000000000000000000000000000007bffffffffffffffffffffffffffffffffffffffffffffffffffffffff1916827bffffffffffffffffffffffffffffffffffffffffffffffffffffffff191614806110db57506110da826157d5565b5b9050919050565b6060600060268054905067ffffffffffffffff8111156111055761110461711c565b5b60405190808252806020026020018201604052801561113e57816020015b61112b616616565b8152602001906001900390816111235790505b50905060005b6026805490508110156113dc576040518060c00160405280602683815481106111705761116f6181a7565b5b90600052602060002090600602016000015481526020016026838154811061119b5761119a6181a7565b5b906000526020600020906006020160010180546111b790618205565b80601f01602080910402602001604051908101604052809291908181526020018280546111e390618205565b80156112305780601f1061120557610100808354040283529160200191611230565b820191906000526020600020905b81548152906001019060200180831161121357829003601f168201915b505050505081526020016026838154811061124e5761124d6181a7565b5b9060005260206000209060060201600201805461126a90618205565b80601f016020809104026020016040519081016040528092919081815260200182805461129690618205565b80156112e35780601f106112b8576101008083540402835291602001916112e3565b820191906000526020600020905b8154815290600101906020018083116112c657829003601f168201915b5050505050815260200160268381548110611301576113006181a7565b5b906000526020600020906006020160030160009054906101000a900460ff16151581526020016026838154811061133b5761133a6181a7565b5b906000526020600020906006020160040154815260200160268381548110611366576113656181a7565b5b906000526020600020906006020160050160009054906101000a900473ffffffffffffffffffffffffffffffffffffffff1673ffffffffffffffffffffffffffffffffffffffff168152508282815181106113c4576113c36181a7565b5b60200260200101819052508080600101915050611144565b508091505090565b60145481565b6060600380546113f990618205565b80601f016020809104026020016040519081016040528092919081815260200182805461142590618205565b80156114725780601f1061144757610100808354040283529160200191611472565b820191906000526020600020905b81548152906001019060200180831161145557829003601f168201915b5050505050905090565b60008061148761583f565b9050611494818585615847565b600191505092915050565b60246020528060005260406000206000915054906101000a900460ff1681565b6000600254905090565b600681815481106114d957600080fd5b906000526020600020016000915054906101000a900473ffffffffffffffffffffffffffffffffffffffff1681565b6000611512615859565b6025600083815260200190815260200160002060003373ffffffffffffffffffffffffffffffffffffffff1673ffffffffffffffffffffffffffffffffffffffff16815260200190815260200160002060009054906101000a900460ff166115af576040517f08c379a00000000000000000000000000000000000000000000000000000000081526004016115a6906182a8565b60405180910390fd5b60006025600084815260200190815260200160002060003373ffffffffffffffffffffffffffffffffffffffff1673ffffffffffffffffffffffffffffffffffffffff16815260200190815260200160002060006101000a81548160ff02191690831515021790555061162a33671bc16d674ec8000061589f565b3373ffffffffffffffffffffffffffffffffffffffff16827f9b244c565b926d7f4e915b69f3a5c6afc2231322d0d44e821076ad8879d0d68360405160405180910390a36001905061167a6158c6565b919050565b60008061168a61583f565b90506116978582856158d0565b6116a2858585615964565b60019150509392505050565b600060056000838152602001908152602001600020600101549050919050565b6064600f6b204fce5e3e250261100000006116e991906182f7565b6116f39190618368565b81565b606481565b602a818154811061170b57600080fd5b906000526020600020906004020160009150905080600001549080600101805461173490618205565b80601f016020809104026020016040519081016040528092919081815260200182805461176090618205565b80156117ad5780601f10611782576101008083540402835291602001916117ad565b820191906000526020600020905b81548152906001019060200180831161179057829003601f168201915b5050505050908060030160009054906101000a900460ff16905083565b60196020528060005260406000206000915090508060000154908060010180546117f390618205565b80601f016020809104026020016040519081016040528092919081815260200182805461181f90618205565b801561186c5780601f106118415761010080835404028352916020019161186c565b820191906000526020600020905b81548152906001019060200180831161184f57829003601f168201915b50505050509080600201805461188190618205565b80601f01602080910402602001604051908101604052809291908181526020018280546118ad90618205565b80156118fa5780601f106118cf576101008083540402835291602001916118fa565b820191906000526020600020905b8154815290600101906020018083116118dd57829003601f168201915b5050505050908060030160009054906101000a900460ff16908060040154908060050160009054906101000a900473ffffffffffffffffffffffffffffffffffffffff16905086565b60155481565b6028818154811061195957600080fd5b906000526020600020906023020160009150905080600001549080600101805461198290618205565b80601f01602080910402602001604051908101604052809291908181526020018280546119ae90618205565b80156119fb5780601f106119d0576101008083540402835291602001916119fb565b820191906000526020600020905b8154815290600101906020018083116119de57829003601f168201915b505050505090806002018054611a1090618205565b80601f0160208091040260200160405190810160405280929190818152602001828054611a3c90618205565b8015611a895780601f10611a5e57610100808354040283529160200191611a89565b820191906000526020600020905b815481529060010190602001808311611a6c57829003601f168201915b5050505050908060210154908060220160009054906101000a900460ff16905085565b611ab5826116ae565b611abe81615a58565b611ac88383615a6c565b50505050565b60008073ffffffffffffffffffffffffffffffffffffffff166019600085815260200190815260200160002060050160009054906101000a900473ffffffffffffffffffffffffffffffffffffffff1673ffffffffffffffffffffffffffffffffffffffff1603611b74576040517f08c379a0000000000000000000000000000000000000000000000000000000008152600401611b6b906183e5565b60405180910390fd5b60005b8251811015611d2a57600060405180606001604052806014548152602001858481518110611ba857611ba76181a7565b5b602002602001015181526020016001151581525090506027819080600181540180825580915050600190039060005260206000209060030201600090919091909150600082015181600001556020820151816001019081611c0991906185b1565b5060408201518160020160006101000a81548160ff021916908315150217905550505080601d60006014548152602001908152602001600020600082015181600001556020820151816001019081611c6191906185b1565b5060408201518160020160006101000a81548160ff021916908315150217905550905050601e6000868152602001908152602001600020819080600181540180825580915050600190039060005260206000209060030201600090919091909150600082015181600001556020820151816001019081611ce191906185b1565b5060408201518160020160006101000a81548160ff021916908315150217905550505060146000815480929190611d1790618683565b9190505550508080600101915050611b77565b508151837f1eb97e969f52c132bb6c79817d1f9001078fff0cd328ce625628e1fb4cc0e7de60405160405180910390a36001905092915050565b60006012905090565b6022602052806000526040600020600091509050806000015490806001018054611d9690618205565b80601f0160208091040260200160405190810160405280929190818152602001828054611dc290618205565b8015611e0f5780601f10611de457610100808354040283529160200191611e0f565b820191906000526020600020905b815481529060010190602001808311611df257829003601f168201915b5050505050905082565b6b204fce5e3e2502611000000081565b601b6020528060005260406000206000915090508060000154905081565b611e4f61583f565b73ffffffffffffffffffffffffffffffffffffffff168173ffffffffffffffffffffffffffffffffffffffff1614611eb3576040517f6697b23200000000000000000000000000000000000000000000000000000000815260040160405180910390fd5b611ebd8282615b5e565b505050565b7fadb22091b155738d2e889eb96f509d2a7c93234236b30400927feb4a6a15ab0081565b7fc10c77be35aff266144ed64c26a1fa104bae2f284ae99ac4a34203454704a18581565b60096020528060005260406000206000915090508060000154908060010160009054906101000a900473ffffffffffffffffffffffffffffffffffffffff16908060020160009054906101000a900473ffffffffffffffffffffffffffffffffffffffff1690806003018054611f7f90618205565b80601f0160208091040260200160405190810160405280929190818152602001828054611fab90618205565b8015611ff85780601f10611fcd57610100808354040283529160200191611ff8565b820191906000526020600020905b815481529060010190602001808311611fdb57829003601f168201915b5050505050908060040154908060050160009054906101000a900460ff16905086565b601e602052816000526040600020818154811061203757600080fd5b90600052602060002090600302016000915091505080600001549080600101805461206190618205565b80601f016020809104026020016040519081016040528092919081815260200182805461208d90618205565b80156120da5780601f106120af576101008083540402835291602001916120da565b820191906000526020600020905b8154815290600101906020018083116120bd57829003601f168201915b5050505050908060020160009054906101000a900460ff16905083565b602b818154811061210757600080fd5b906000526020600020906003020160009150905080600001549080600101805461213090618205565b80601f016020809104026020016040519081016040528092919081815260200182805461215c90618205565b80156121a95780601f1061217e576101008083540402835291602001916121a9565b820191906000526020600020905b81548152906001019060200180831161218c57829003601f168201915b5050505050905082565b7fdf1425bae297c2f52b4f15d18a50b1fc8cb5b981a981b1d213ed3ff92681b64d81565b7fc10c77be35aff266144ed64c26a1fa104bae2f284ae99ac4a34203454704a18561220181615a58565b61220b8c33615c51565b61224a576040517f08c379a00000000000000000000000000000000000000000000000000000000081526004016122419061873d565b60405180910390fd5b601a60008d815260200190815260200160002060003373ffffffffffffffffffffffffffffffffffffffff1673ffffffffffffffffffffffffffffffffffffffff168152602001908152602001600020600a0160009054906101000a900460ff16156122eb576040517f08c379a00000000000000000000000000000000000000000000000000000000081526004016122e2906187cf565b60405180910390fd5b6122fd8b8b8b8b8b8b8b8b8b8b615d1c565b6040518061016001604052808c81526020018b81526020018a815260200189815260200188815260200187815260200186815260200185815260200184815260200183815260200160011515815250601a60008e815260200190815260200160002060003373ffffffffffffffffffffffffffffffffffffffff1673ffffffffffffffffffffffffffffffffffffffff168152602001908152602001600020600082015181600001556020820151816001015560408201518160020155606082015181600301556080820151816004015560a0820151816005015560c0820151816006015560e082015181600701556101008201518160080155610120820151816009015561014082015181600a0160006101000a81548160ff0219169083151502179055509050506050612480601a60008f815260200190815260200160002060003373ffffffffffffffffffffffffffffffffffffffff1673ffffffffffffffffffffffffffffffffffffffff168152602001908152602001600020615de1565b1061248f5761248e8c612dbd565b5b505050505050505050505050565b600281565b6000601f600085815260200190815260200160002090506000816000015403612500576040517f08c379a00000000000000000000000000000000000000000000000000000000081526004016124f79061883b565b60405180910390fd5b600081602101549050600a848490508261251a919061885b565b111561255b576040517f08c379a0000000000000000000000000000000000000000000000000000000008152600401612552906188db565b60405180910390fd5b60005b84849050811015612760576040518060600160405280868684818110612587576125866181a7565b5b9050602002810190612599919061890a565b80600001906125a89190618932565b8080601f016020809104026020016040519081016040528093929190818152602001838380828437600081840152601f19601f820116905080830192505050505050508152602001868684818110612603576126026181a7565b5b9050602002810190612615919061890a565b80602001906126249190618932565b8080601f016020809104026020016040519081016040528093929190818152602001838380828437600081840152601f19601f82011690508083019250505050505050815260200186868481811061267f5761267e6181a7565b5b9050602002810190612691919061890a565b80604001906126a09190618932565b8080601f016020809104026020016040519081016040528093929190818152602001838380828437600081840152601f19601f820116905080830192505050505050508152508360030183600a81106126fc576126fb6181a7565b5b60030201600082015181600001908161271591906185b1565b50602082015181600101908161272b91906185b1565b50604082015181600201908161274191906185b1565b50905050818061275090618683565b925050808060010191505061255e565b5080826021018190555060005b60288054905081101561286057856028828154811061278f5761278e6181a7565b5b906000526020600020906023020160000154036128535782602882815481106127bb576127ba6181a7565b5b906000526020600020906023020160008201548160000155600182018160010190816127e791906189ab565b50600282018160020190816127fc91906189ab565b50600382018160030190600a612813929190616664565b50602182015481602101556022820160009054906101000a900460ff168160220160006101000a81548160ff021916908315150217905550905050612860565b808060010191505061276d565b505050505050565b6000806016549050601f600085815260200190815260200160002060220160009054906101000a900460ff166128d3576040517f08c379a00000000000000000000000000000000000000000000000000000000081526004016128ca90618adf565b60405180910390fd5b60006021600083815260200190815260200160002090508181600001819055508381600101908161290491906185b1565b506016600081548092919061291890618683565b9190505550602a819080600181540180825580915050600190039060005260206000209060040201600090919091909150600082015481600001556001820181600101908161296791906189ab565b50600282018160020190805461297e9291906166e6565b506003820160009054906101000a900460ff168160030160006101000a81548160ff0219169083151502179055505050836040516129bc9190618b3b565b6040518091039020827fbf27702cefbc4aea50d7c73cfee96f84f5b908f62aeafcd8b0aeae202c15050960405160405180910390a3819250505092915050565b60125481565b60185481565b60268181548110612a1857600080fd5b9060005260206000209060060201600091509050806000015490806001018054612a4190618205565b80601f0160208091040260200160405190810160405280929190818152602001828054612a6d90618205565b8015612aba5780601f10612a8f57610100808354040283529160200191612aba565b820191906000526020600020905b815481529060010190602001808311612a9d57829003601f168201915b505050505090806002018054612acf90618205565b80601f0160208091040260200160405190810160405280929190818152602001828054612afb90618205565b8015612b485780601f10612b1d57610100808354040283529160200191612b48565b820191906000526020600020905b815481529060010190602001808311612b2b57829003601f168201915b5050505050908060030160009054906101000a900460ff16908060040154908060050160009054906101000a900473ffffffffffffffffffffffffffffffffffffffff16905086565b60008060008373ffffffffffffffffffffffffffffffffffffffff1673ffffffffffffffffffffffffffffffffffffffff168152602001908152602001600020549050919050565b7fc10c77be35aff266144ed64c26a1fa104bae2f284ae99ac4a34203454704a185612c0381615a58565b600860008373ffffffffffffffffffffffffffffffffffffffff1673ffffffffffffffffffffffffffffffffffffffff16815260200190815260200160002060009054906101000a900460ff1615612c90576040517f08c379a0000000000000000000000000000000000000000000000000000000008152600401612c8790618b9e565b60405180910390fd5b612cba7fc10c77be35aff266144ed64c26a1fa104bae2f284ae99ac4a34203454704a18583615a6c565b506006829080600181540180825580915050600190039060005260206000200160009091909190916101000a81548173ffffffffffffffffffffffffffffffffffffffff021916908373ffffffffffffffffffffffffffffffffffffffff1602179055506001600860008473ffffffffffffffffffffffffffffffffffffffff1673ffffffffffffffffffffffffffffffffffffffff16815260200190815260200160002060006101000a81548160ff0219169083151502179055508173ffffffffffffffffffffffffffffffffffffffff167fe1cb5e1230cc02e62c60b81c1aa5ade512f3eac296edb28628b4cf344f47f93160405160405180910390a25050565b7fc10c77be35aff266144ed64c26a1fa104bae2f284ae99ac4a34203454704a185612de781615a58565b60006019600084815260200190815260200160002090508060030160009054906101000a900460ff1615612e50576040517f08c379a0000000000000000000000000000000000000000000000000000000008152600401612e4790618c0a565b60405180910390fd5b601c60003373ffffffffffffffffffffffffffffffffffffffff1673ffffffffffffffffffffffffffffffffffffffff168152602001908152602001600020600084815260200190815260200160002060009054906101000a900460ff1615612eee576040517f08c379a0000000000000000000000000000000000000000000000000000000008152600401612ee590618c9c565b60405180910390fd5b6001601c60003373ffffffffffffffffffffffffffffffffffffffff1673ffffffffffffffffffffffffffffffffffffffff168152602001908152602001600020600085815260200190815260200160002060006101000a81548160ff021916908315150217905550806004016000815480929190612f6c90618683565b91905055506002816004015410612fd25760018160030160006101000a81548160ff021916908315150217905550612fd08160050160009054906101000a900473ffffffffffffffffffffffffffffffffffffffff16674563918244f40000615e76565b505b505050565b60006015549050601d600085815260200190815260200160002060020160009054906101000a900460ff16613041576040517f08c379a000000000000000000000000000000000000000000000000000000000815260040161303890618d08565b60405180910390fd5b6000601f600083815260200190815260200160002090508181600001819055508381600101908161307291906185b1565b508281600201908161308491906185b1565b5060018160220160006101000a81548160ff021916908315150217905550600081602101819055506028601f60008481526020019081526020016000209080600181540180825580915050600190039060005260206000209060230201600090919091909150600082015481600001556001820181600101908161310891906189ab565b506002820181600201908161311d91906189ab565b50600382018160030190600a613134929190616664565b50602182015481602101556022820160009054906101000a900460ff168160220160006101000a81548160ff02191690831515021790555050506015600081548092919061318190618683565b9190505550600a846040516131969190618b3b565b6040518091039020837f3387c3a40ec1df95e34d25a0e5564b40d01c331b71ccbafccccc66d36c84ad8360405160405180910390a45050505050565b60135481565b671bc16d674ec8000081565b602160205280600052604060002060009150905080600001549080600101805461320d90618205565b80601f016020809104026020016040519081016040528092919081815260200182805461323990618205565b80156132865780601f1061325b57610100808354040283529160200191613286565b820191906000526020600020905b81548152906001019060200180831161326957829003601f168201915b5050505050908060030160009054906101000a900460ff16905083565b7fc10c77be35aff266144ed64c26a1fa104bae2f284ae99ac4a34203454704a1856132cd81615a58565b6024600083815260200190815260200160002060009054906101000a900460ff161561332e576040517f08c379a000000000000000000000000000000000000000000000000000000000815260040161332590618d74565b60405180910390fd5b60036006805490501015613377576040517f08c379a000000000000000000000000000000000000000000000000000000000815260040161336e90618de0565b60405180910390fd5b6023600083815260200190815260200160002060006133969190616774565b60005b60038110156135735760006006805490504244600680549050856040516020016133c69493929190618e21565b6040516020818303038152906040528051906020012060001c6133e99190618e6f565b9050600060068281548110613401576134006181a7565b5b9060005260206000200160009054906101000a900473ffffffffffffffffffffffffffffffffffffffff1690506000805b60236000888152602001908152602001600020805490508110156134e8578273ffffffffffffffffffffffffffffffffffffffff1660236000898152602001908152602001600020828154811061348c5761348b6181a7565b5b9060005260206000200160009054906101000a900473ffffffffffffffffffffffffffffffffffffffff1673ffffffffffffffffffffffffffffffffffffffff16036134db57600191506134e8565b8080600101915050613432565b50806135635760236000878152602001908152602001600020829080600181540180825580915050600190039060005260206000200160009091909190916101000a81548173ffffffffffffffffffffffffffffffffffffffff021916908373ffffffffffffffffffffffffffffffffffffffff1602179055505b5050508080600101915050613399565b5060036023600084815260200190815260200160002080549050036135bf5760016024600084815260200190815260200160002060006101000a81548160ff0219169083151502179055505b817fe205dff861c570b8df17e26f893778853f94bb25d2de318755e48eab0b403ff7602360008581526020019081526020016000206040516136019190618f8c565b60405180910390a25050565b60006005600084815260200190815260200160002060000160008373ffffffffffffffffffffffffffffffffffffffff1673ffffffffffffffffffffffffffffffffffffffff16815260200190815260200160002060009054906101000a900460ff16905092915050565b60606004805461368790618205565b80601f01602080910402602001604051908101604052809291908181526020018280546136b390618205565b80156137005780601f106136d557610100808354040283529160200191613700565b820191906000526020600020905b8154815290600101906020018083116136e357829003601f168201915b5050505050905090565b60115481565b6023602052816000526040600020818154811061372c57600080fd5b906000526020600020016000915091509054906101000a900473ffffffffffffffffffffffffffffffffffffffff1681565b6000801b81565b60008073ffffffffffffffffffffffffffffffffffffffff1660196000601354815260200190815260200160002060050160009054906101000a900473ffffffffffffffffffffffffffffffffffffffff1673ffffffffffffffffffffffffffffffffffffffff161461380d576040517f08c379a000000000000000000000000000000000000000000000000000000000815260040161380490618ffa565b60405180910390fd5b60006040518060c001604052806013548152602001858152602001848152602001600015158152602001600081526020013373ffffffffffffffffffffffffffffffffffffffff1681525090508060196000601354815260200190815260200160002060008201518160000155602082015181600101908161388f91906185b1565b5060408201518160020190816138a591906185b1565b5060608201518160030160006101000a81548160ff0219169083151502179055506080820151816004015560a08201518160050160006101000a81548173ffffffffffffffffffffffffffffffffffffffff021916908373ffffffffffffffffffffffffffffffffffffffff160217905550905050602681908060018154018082558091505060019003906000526020600020906006020160009091909190915060008201518160000155602082015181600101908161396591906185b1565b50604082015181600201908161397b91906185b1565b5060608201518160030160006101000a81548160ff0219169083151502179055506080820151816004015560a08201518160050160006101000a81548173ffffffffffffffffffffffffffffffffffffffff021916908373ffffffffffffffffffffffffffffffffffffffff160217905550505060126000815480929190613a0290618683565b91905055506001601b60003373ffffffffffffffffffffffffffffffffffffffff1673ffffffffffffffffffffffffffffffffffffffff1681526020019081526020016000206000016000828254613a5a919061885b565b9250508190555060136000815480929190613a7490618683565b9190505550613aa37fadb22091b155738d2e889eb96f509d2a7c93234236b30400927feb4a6a15ab0033615a6c565b5083604051613ab29190618b3b565b60405180910390206001601354613ac9919061901a565b7f9c93a42b217373d37e6c66ace0a67fe1fa1f78c93164b62417de69c48c0f67e2601960006001601354613afd919061901a565b815260200190815260200160002060030160009054906101000a900460ff16604051613b299190616adc565b60405180910390a3600191505092915050565b60606000602880549050905060008167ffffffffffffffff811115613b6457613b6361711c565b5b604051908082528060200260200182016040528015613b9d57816020015b613b8a616795565b815260200190600190039081613b825790505b50905060005b82811015613f585760288181548110613bbf57613bbe6181a7565b5b90600052602060002090602302016040518060c001604052908160008201548152602001600182018054613bf290618205565b80601f0160208091040260200160405190810160405280929190818152602001828054613c1e90618205565b8015613c6b5780601f10613c4057610100808354040283529160200191613c6b565b820191906000526020600020905b815481529060010190602001808311613c4e57829003601f168201915b50505050508152602001600282018054613c8490618205565b80601f0160208091040260200160405190810160405280929190818152602001828054613cb090618205565b8015613cfd5780601f10613cd257610100808354040283529160200191613cfd565b820191906000526020600020905b815481529060010190602001808311613ce057829003601f168201915b5050505050815260200160038201600a80602002604051908101604052809291906000905b82821015613f0057838260030201604051806060016040529081600082018054613d4b90618205565b80601f0160208091040260200160405190810160405280929190818152602001828054613d7790618205565b8015613dc45780601f10613d9957610100808354040283529160200191613dc4565b820191906000526020600020905b815481529060010190602001808311613da757829003601f168201915b50505050508152602001600182018054613ddd90618205565b80601f0160208091040260200160405190810160405280929190818152602001828054613e0990618205565b8015613e565780601f10613e2b57610100808354040283529160200191613e56565b820191906000526020600020905b815481529060010190602001808311613e3957829003601f168201915b50505050508152602001600282018054613e6f90618205565b80601f0160208091040260200160405190810160405280929190818152602001828054613e9b90618205565b8015613ee85780601f10613ebd57610100808354040283529160200191613ee8565b820191906000526020600020905b815481529060010190602001808311613ecb57829003601f168201915b50505050508152505081526020019060010190613d22565b505050508152602001602182015481526020016022820160009054906101000a900460ff161515151581525050828281518110613f4057613f3f6181a7565b5b60200260200101819052508080600101915050613ba3565b50809250505090565b601d602052806000526040600020600091509050806000015490806001018054613f8a90618205565b80601f0160208091040260200160405190810160405280929190818152602001828054613fb690618205565b80156140035780601f10613fd857610100808354040283529160200191614003565b820191906000526020600020905b815481529060010190602001808311613fe657829003601f168201915b5050505050908060020160009054906101000a900460ff16905083565b6140286167d3565b6000602160008481526020019081526020016000206000015403614081576040517f08c379a00000000000000000000000000000000000000000000000000000000081526004016140789061909a565b60405180910390fd5b60216000838152602001908152602001600020604051806080016040529081600082015481526020016001820180546140b990618205565b80601f01602080910402602001604051908101604052809291908181526020018280546140e590618205565b80156141325780601f1061410757610100808354040283529160200191614132565b820191906000526020600020905b81548152906001019060200180831161411557829003601f168201915b5050505050815260200160028201805480602002602001604051908101604052809291908181526020016000905b8282101561433a57838290600052602060002090600302016040518060600160405290816000820154815260200160018201805461419d90618205565b80601f01602080910402602001604051908101604052809291908181526020018280546141c990618205565b80156142165780601f106141eb57610100808354040283529160200191614216565b820191906000526020600020905b8154815290600101906020018083116141f957829003601f168201915b5050505050815260200160028201805480602002602001604051908101604052809291908181526020016000905b82821015614323578382906000526020600020906002020160405180604001604052908160008201805461427790618205565b80601f01602080910402602001604051908101604052809291908181526020018280546142a390618205565b80156142f05780601f106142c5576101008083540402835291602001916142f0565b820191906000526020600020905b8154815290600101906020018083116142d357829003601f168201915b505050505081526020016001820160009054906101000a900460ff16151515158152505081526020019060010190614244565b505050508152505081526020019060010190614160565b5050505081526020016003820160009054906101000a900460ff1615151515815250509050919050565b60008061436f61583f565b905061437c818585615964565b600191505092915050565b6020805281600052604060002081815481106143a257600080fd5b906000526020600020016000915091505080546143be90618205565b80601f01602080910402602001604051908101604052809291908181526020018280546143ea90618205565b80156144375780601f1061440c57610100808354040283529160200191614437565b820191906000526020600020905b81548152906001019060200180831161441a57829003601f168201915b505050505081565b6060601e6000838152602001908152602001600020805480602002602001604051908101604052809291908181526020016000905b8282101561455d5783829060005260206000209060030201604051806060016040529081600082015481526020016001820180546144b190618205565b80601f01602080910402602001604051908101604052809291908181526020018280546144dd90618205565b801561452a5780601f106144ff5761010080835404028352916020019161452a565b820191906000526020600020905b81548152906001019060200180831161450d57829003601f168201915b505050505081526020016002820160009054906101000a900460ff16151515158152505081526020019060010190614474565b505050509050919050565b605081565b7fdf1425bae297c2f52b4f15d18a50b1fc8cb5b981a981b1d213ed3ff92681b64d61459781615a58565b60006009600084815260200190815260200160002090508060050160009054906101000a900460ff1615614600576040517f08c379a00000000000000000000000000000000000000000000000000000000081526004016145f790619106565b60405180910390fd5b8060060160003373ffffffffffffffffffffffffffffffffffffffff1673ffffffffffffffffffffffffffffffffffffffff16815260200190815260200160002060009054906101000a900460ff161561468f576040517f08c379a000000000000000000000000000000000000000000000000000000000815260040161468690619172565b60405180910390fd5b60018160060160003373ffffffffffffffffffffffffffffffffffffffff1673ffffffffffffffffffffffffffffffffffffffff16815260200190815260200160002060006101000a81548160ff0219169083151502179055508060040160008154809291906146fe90618683565b9190505550827f5d4ccf5f92566d140246f4ae3b9cb35dc06fff109a7748602ad77f6260fd9a61336040516147339190616ece565b60405180910390a260038160040154106148675760008160020160009054906101000a900473ffffffffffffffffffffffffffffffffffffffff1673ffffffffffffffffffffffffffffffffffffffff16826003016040516147959190619235565b6000604051808303816000865af19150503d80600081146147d2576040519150601f19603f3d011682016040523d82523d6000602084013e6147d7565b606091505b505090508061481b576040517f08c379a000000000000000000000000000000000000000000000000000000000815260040161481290619298565b60405180910390fd5b60018260050160006101000a81548160ff021916908315150217905550837f7770356c29230b95943aec59d47ead11eb426a728bf5b57f7fd8597f3c0e29ba60405160405180910390a2505b505050565b601f60205280600052604060002060009150905080600001549080600101805461489590618205565b80601f01602080910402602001604051908101604052809291908181526020018280546148c190618205565b801561490e5780601f106148e35761010080835404028352916020019161490e565b820191906000526020600020905b8154815290600101906020018083116148f157829003601f168201915b50505050509080600201805461492390618205565b80601f016020809104026020016040519081016040528092919081815260200182805461494f90618205565b801561499c5780601f106149715761010080835404028352916020019161499c565b820191906000526020600020905b81548152906001019060200180831161497f57829003601f168201915b5050505050908060210154908060220160009054906101000a900460ff16905085565b601a6020528160005260406000206020528060005260406000206000915091505080600001549080600101549080600201549080600301549080600401549080600501549080600601549080600701549080600801549080600901549080600a0160009054906101000a900460ff1690508b565b606060236000838152602001908152602001600020805480602002602001604051908101604052809291908181526020018280548015614ac857602002820191906000526020600020905b8160009054906101000a900473ffffffffffffffffffffffffffffffffffffffff1673ffffffffffffffffffffffffffffffffffffffff1681526020019060010190808311614a7e575b50505050509050919050565b60086020528060005260406000206000915054906101000a900460ff1681565b6000601154905090565b60278181548110614b0e57600080fd5b9060005260206000209060030201600091509050806000015490806001018054614b3790618205565b80601f0160208091040260200160405190810160405280929190818152602001828054614b6390618205565b8015614bb05780601f10614b8557610100808354040283529160200191614bb0565b820191906000526020600020905b815481529060010190602001808311614b9357829003601f168201915b5050505050908060020160009054906101000a900460ff16905083565b6000801b614bda81615a58565b600860008373ffffffffffffffffffffffffffffffffffffffff1673ffffffffffffffffffffffffffffffffffffffff16815260200190815260200160002060009054906101000a900460ff16614c66576040517f08c379a0000000000000000000000000000000000000000000000000000000008152600401614c5d90619304565b60405180910390fd5b60005b600680549050811015614dec578273ffffffffffffffffffffffffffffffffffffffff1660068281548110614ca157614ca06181a7565b5b9060005260206000200160009054906101000a900473ffffffffffffffffffffffffffffffffffffffff1673ffffffffffffffffffffffffffffffffffffffff1603614ddf5760066001600680549050614cfb919061901a565b81548110614d0c57614d0b6181a7565b5b9060005260206000200160009054906101000a900473ffffffffffffffffffffffffffffffffffffffff1660068281548110614d4b57614d4a6181a7565b5b9060005260206000200160006101000a81548173ffffffffffffffffffffffffffffffffffffffff021916908373ffffffffffffffffffffffffffffffffffffffff1602179055506006805480614da557614da4619324565b5b6001900381819060005260206000200160006101000a81549073ffffffffffffffffffffffffffffffffffffffff02191690559055614dec565b8080600101915050614c69565b506000600860008473ffffffffffffffffffffffffffffffffffffffff1673ffffffffffffffffffffffffffffffffffffffff16815260200190815260200160002060006101000a81548160ff021916908315150217905550614e6f7fc10c77be35aff266144ed64c26a1fa104bae2f284ae99ac4a34203454704a18583615b5e565b508173ffffffffffffffffffffffffffffffffffffffff167f55dba9d79522b91b615629d5f3b10c2fad2d258f1768614f4a52e937ada0d0ba60405160405180910390a25050565b60256020528160005260406000206020528060005260406000206000915091509054906101000a900460ff1681565b6000602160008681526020019081526020016000206000015403614f3f576040517f08c379a0000000000000000000000000000000000000000000000000000000008152600401614f369061909a565b60405180910390fd5b60008251118015614f5257506004825111155b614f91576040517f08c379a0000000000000000000000000000000000000000000000000000000008152600401614f889061939f565b60405180910390fd5b81518160ff1610614fd7576040517f08c379a0000000000000000000000000000000000000000000000000000000008152600401614fce9061940b565b60405180910390fd5b6000601754905060006021600087815260200190815260200160002060020160018160018154018082558091505003906000526020600020906003020190508181600001819055508481600101908161503091906185b1565b508060226000848152602001908152602001600020600082015481600001556001820181600101908161506391906189ab565b50600282018160020190805461507a9291906167fd565b509050506017600081548092919061509190618683565b9190505550602b81908060018154018082558091505060019003906000526020600020906003020160009091909190915060008201548160000155600182018160010190816150e091906189ab565b5060028201816002019080546150f79291906167fd565b5050507fa5bdacf4d1324fdd584bc65cf0315e4975d00b33a7ca0e6d0a73c88df8430b9586838760405161512d9392919061942b565b60405180910390a160005b84518160ff1610156152ee576000601854905060006040518060400160405280888560ff168151811061516e5761516d6181a7565b5b602002602001015181526020018760ff168560ff1614151581525090508360020181908060018154018082558091505060019003906000526020600020906002020160009091909190915060008201518160000190816151ce91906185b1565b5060208201518160010160006101000a81548160ff021916908315150217905550505060226000868152602001908152602001600020600201819080600181540180825580915050600190039060005260206000209060020201600090919091909150600082015181600001908161524691906185b1565b5060208201518160010160006101000a81548160ff02191690831515021790555050506018600081548092919061527c90618683565b91905055507f06ef0ba2ad58c9f8eef2fc98c08fd18d801c4a971eeb45afd07f0fee3f9d60c48583898660ff16815181106152ba576152b96181a7565b5b60200260200101516040516152d19392919061942b565b60405180910390a1505080806152e690619469565b915050615138565b50505050505050565b615300826116ae565b61530981615a58565b6153138383615b5e565b50505050565b674563918244f4000081565b6000600160008473ffffffffffffffffffffffffffffffffffffffff1673ffffffffffffffffffffffffffffffffffffffff16815260200190815260200160002060008373ffffffffffffffffffffffffffffffffffffffff1673ffffffffffffffffffffffffffffffffffffffff16815260200190815260200160002054905092915050565b602981815481106153bc57600080fd5b90600052602060002090600302016000915090508060000180546153df90618205565b80601f016020809104026020016040519081016040528092919081815260200182805461540b90618205565b80156154585780601f1061542d57610100808354040283529160200191615458565b820191906000526020600020905b81548152906001019060200180831161543b57829003601f168201915b50505050509080600101805461546d90618205565b80601f016020809104026020016040519081016040528092919081815260200182805461549990618205565b80156154e65780601f106154bb576101008083540402835291602001916154e6565b820191906000526020600020905b8154815290600101906020018083116154c957829003601f168201915b5050505050908060020180546154fb90618205565b80601f016020809104026020016040519081016040528092919081815260200182805461552790618205565b80156155745780601f1061554957610100808354040283529160200191615574565b820191906000526020600020905b81548152906001019060200180831161555757829003601f168201915b5050505050905083565b6000600b60000154905090565b60165481565b60175481565b60006155a1615859565b6019600083815260200190815260200160002060030160009054906101000a900460ff16615604576040517f08c379a00000000000000000000000000000000000000000000000000000000081526004016155fb906194de565b60405180910390fd5b6025600083815260200190815260200160002060003373ffffffffffffffffffffffffffffffffffffffff1673ffffffffffffffffffffffffffffffffffffffff16815260200190815260200160002060009054906101000a900460ff16156156a2576040517f08c379a000000000000000000000000000000000000000000000000000000000815260040161569990619570565b60405180910390fd5b60016025600084815260200190815260200160002060003373ffffffffffffffffffffffffffffffffffffffff1673ffffffffffffffffffffffffffffffffffffffff16815260200190815260200160002060006101000a81548160ff02191690831515021790555061571d33671bc16d674ec80000615e76565b503373ffffffffffffffffffffffffffffffffffffffff16827f4bf249f6b0ca5630ea4816c04b928b864a2065cb51658fd6223d83b727fd326b60405160405180910390a36001905061576e6158c6565b919050565b600061579f7fc10c77be35aff266144ed64c26a1fa104bae2f284ae99ac4a34203454704a1858361360d565b9050919050565b601c6020528160005260406000206020528060005260406000206000915091509054906101000a900460ff1681565b60007f01ffc9a7000000000000000000000000000000000000000000000000000000007bffffffffffffffffffffffffffffffffffffffffffffffffffffffff1916827bffffffffffffffffffffffffffffffffffffffffffffffffffffffff1916149050919050565b600033905090565b6158548383836001615f63565b505050565b6002600a5403615895576040517f3ee5aeb500000000000000000000000000000000000000000000000000000000815260040160405180910390fd5b6002600a81905550565b6158a9828261613a565b80601160008282546158bb919061901a565b925050819055505050565b6001600a81905550565b60006158dc8484615325565b90507fffffffffffffffffffffffffffffffffffffffffffffffffffffffffffffffff811461595e578181101561594e578281836040517ffb8f41b200000000000000000000000000000000000000000000000000000000815260040161594593929190619590565b60405180910390fd5b61595d84848484036000615f63565b5b50505050565b600073ffffffffffffffffffffffffffffffffffffffff168373ffffffffffffffffffffffffffffffffffffffff16036159d65760006040517f96c6fd1e0000000000000000000000000000000000000000000000000000000081526004016159cd9190616ece565b60405180910390fd5b600073ffffffffffffffffffffffffffffffffffffffff168273ffffffffffffffffffffffffffffffffffffffff1603615a485760006040517fec442f05000000000000000000000000000000000000000000000000000000008152600401615a3f9190616ece565b60405180910390fd5b615a538383836161e1565b505050565b615a6981615a6461583f565b616406565b50565b6000615a78838361360d565b615b535760016005600085815260200190815260200160002060000160008473ffffffffffffffffffffffffffffffffffffffff1673ffffffffffffffffffffffffffffffffffffffff16815260200190815260200160002060006101000a81548160ff021916908315150217905550615af061583f565b73ffffffffffffffffffffffffffffffffffffffff168273ffffffffffffffffffffffffffffffffffffffff16847f2f8788117e7eff1d82e926ec794901d17c78024a50270940304540a733656f0d60405160405180910390a460019050615b58565b600090505b92915050565b6000615b6a838361360d565b15615c465760006005600085815260200190815260200160002060000160008473ffffffffffffffffffffffffffffffffffffffff1673ffffffffffffffffffffffffffffffffffffffff16815260200190815260200160002060006101000a81548160ff021916908315150217905550615be361583f565b73ffffffffffffffffffffffffffffffffffffffff168273ffffffffffffffffffffffffffffffffffffffff16847ff6391f5c32d9c69d2a47ea670b442974b53935d1edc7fd64eb21e047a839171b60405160405180910390a460019050615c4b565b600090505b92915050565b600080600090505b6023600085815260200190815260200160002080549050811015615d10578273ffffffffffffffffffffffffffffffffffffffff16602360008681526020019081526020016000208281548110615cb357615cb26181a7565b5b9060005260206000200160009054906101000a900473ffffffffffffffffffffffffffffffffffffffff1673ffffffffffffffffffffffffffffffffffffffff1603615d03576001915050615d16565b8080600101915050615c59565b50600090505b92915050565b600a8a11158015615d2e5750600a8911155b8015615d3b5750600a8811155b8015615d485750600a8711155b8015615d555750600a8611155b8015615d625750600a8511155b8015615d6f5750600a8411155b8015615d7c5750600a8311155b8015615d895750600a8211155b8015615d965750600a8111155b615dd5576040517f08c379a0000000000000000000000000000000000000000000000000000000008152600401615dcc90619613565b60405180910390fd5b50505050505050505050565b60008160090154826008015483600701548460060154856005015486600401548760030154886002015489600101548a60000154615e1f919061885b565b615e29919061885b565b615e33919061885b565b615e3d919061885b565b615e47919061885b565b615e51919061885b565b615e5b919061885b565b615e65919061885b565b615e6f919061885b565b9050919050565b60006064600f6b204fce5e3e25026110000000615e9391906182f7565b615e9d9190618368565b615ea5614af4565b83615eb0919061885b565b1115615ef1576040517f08c379a0000000000000000000000000000000000000000000000000000000008152600401615ee89061967f565b60405180910390fd5b615efb8383616457565b508160116000828254615f0e919061885b565b92505081905550818373ffffffffffffffffffffffffffffffffffffffff167fad6ef58d5c294f81258965738e7ae511124139834a8d0b8f8f7327086c82052a60405160405180910390a36001905092915050565b600073ffffffffffffffffffffffffffffffffffffffff168473ffffffffffffffffffffffffffffffffffffffff1603615fd55760006040517fe602df05000000000000000000000000000000000000000000000000000000008152600401615fcc9190616ece565b60405180910390fd5b600073ffffffffffffffffffffffffffffffffffffffff168373ffffffffffffffffffffffffffffffffffffffff16036160475760006040517f94280d6200000000000000000000000000000000000000000000000000000000815260040161603e9190616ece565b60405180910390fd5b81600160008673ffffffffffffffffffffffffffffffffffffffff1673ffffffffffffffffffffffffffffffffffffffff16815260200190815260200160002060008573ffffffffffffffffffffffffffffffffffffffff1673ffffffffffffffffffffffffffffffffffffffff168152602001908152602001600020819055508015616134578273ffffffffffffffffffffffffffffffffffffffff168473ffffffffffffffffffffffffffffffffffffffff167f8c5be1e5ebec7d5bd14f71427d1e84f3dd0314c0f7b2291e5b200ac8c7c3b9258460405161612b9190616d73565b60405180910390a35b50505050565b8061614483612b91565b1015616185576040517f08c379a000000000000000000000000000000000000000000000000000000000815260040161617c906196eb565b60405180910390fd5b61618f8282616512565b8173ffffffffffffffffffffffffffffffffffffffff167f5b5d8478b570a79ab6b3bf13ff029fba19c02ab0d54d692d4ef0d9052d5cc850826040516161d59190616d73565b60405180910390a25050565b600073ffffffffffffffffffffffffffffffffffffffff168373ffffffffffffffffffffffffffffffffffffffff1603616233578060026000828254616227919061885b565b92505081905550616306565b60008060008573ffffffffffffffffffffffffffffffffffffffff1673ffffffffffffffffffffffffffffffffffffffff168152602001908152602001600020549050818110156162bf578381836040517fe450d38c0000000000000000000000000000000000000000000000000000000081526004016162b693929190619590565b60405180910390fd5b8181036000808673ffffffffffffffffffffffffffffffffffffffff1673ffffffffffffffffffffffffffffffffffffffff16815260200190815260200160002081905550505b600073ffffffffffffffffffffffffffffffffffffffff168273ffffffffffffffffffffffffffffffffffffffff160361634f578060026000828254039250508190555061639c565b806000808473ffffffffffffffffffffffffffffffffffffffff1673ffffffffffffffffffffffffffffffffffffffff168152602001908152602001600020600082825401925050819055505b8173ffffffffffffffffffffffffffffffffffffffff168373ffffffffffffffffffffffffffffffffffffffff167fddf252ad1be2c89b69c2b068fc378daa952ba7f163c4a11628f55a4df523b3ef836040516163f99190616d73565b60405180910390a3505050565b616410828261360d565b6164535780826040517fe2517d3f00000000000000000000000000000000000000000000000000000000815260040161644a92919061970b565b60405180910390fd5b5050565b60006b204fce5e3e2502611000000061646e6114bf565b83616479919061885b565b11156164ba576040517f08c379a00000000000000000000000000000000000000000000000000000000081526004016164b19061967f565b60405180910390fd5b6164c48383616594565b818373ffffffffffffffffffffffffffffffffffffffff167fcda531bfd68624f13205c0a23cd4d5a7f09792cbb399603114f2b04aaa1bf5cf60405160405180910390a36001905092915050565b600073ffffffffffffffffffffffffffffffffffffffff168273ffffffffffffffffffffffffffffffffffffffff16036165845760006040517f96c6fd1e00000000000000000000000000000000000000000000000000000000815260040161657b9190616ece565b60405180910390fd5b616590826000836161e1565b5050565b600073ffffffffffffffffffffffffffffffffffffffff168273ffffffffffffffffffffffffffffffffffffffff16036166065760006040517fec442f050000000000000000000000000000000000000000000000000000000081526004016165fd9190616ece565b60405180910390fd5b616612600083836161e1565b5050565b6040518060c0016040528060008152602001606081526020016060815260200160001515815260200160008152602001600073ffffffffffffffffffffffffffffffffffffffff1681525090565b82600a60030281019282156166d5579160030282015b828111156166d45782826000820181600001908161669891906189ab565b50600182018160010190816166ad91906189ab565b50600282018160020190816166c291906189ab565b5050509160030191906003019061667a565b5b5090506166e29190616897565b5090565b8280548282559060005260206000209060030281019282156167635760005260206000209160030282015b82811115616762578282600082015481600001556001820181600101908161673991906189ab565b5060028201816002019080546167509291906167fd565b50505091600301919060030190616711565b5b50905061677091906168de565b5090565b5080546000825590600052602060002090810190616792919061691d565b50565b6040518060c001604052806000815260200160608152602001606081526020016167bd61693a565b8152602001600081526020016000151581525090565b60405180608001604052806000815260200160608152602001606081526020016000151581525090565b8280548282559060005260206000209060020281019282156168865760005260206000209160020282015b828111156168855782826000820181600001908161684691906189ab565b506001820160009054906101000a900460ff168160010160006101000a81548160ff021916908315150217905550505091600201919060020190616828565b5b5090506168939190616968565b5090565b5b808211156168da57600080820160006168b191906169a3565b6001820160006168c191906169a3565b6002820160006168d191906169a3565b50600301616898565b5090565b5b808211156169195760008082016000905560018201600061690091906169a3565b60028201600061691091906169e3565b506003016168df565b5090565b5b8082111561693657600081600090555060010161691e565b5090565b604051806101400160405280600a905b616952616a07565b81526020019060019003908161694a5790505090565b5b8082111561699f576000808201600061698291906169a3565b6001820160006101000a81549060ff021916905550600201616969565b5090565b5080546169af90618205565b6000825580601f106169c157506169e0565b601f0160209004906000526020600020908101906169df919061691d565b5b50565b5080546000825560020290600052602060002090810190616a049190616968565b50565b60405180606001604052806060815260200160608152602001606081525090565b6000604051905090565b600080fd5b600080fd5b60007fffffffff0000000000000000000000000000000000000000000000000000000082169050919050565b616a7181616a3c565b8114616a7c57600080fd5b50565b600081359050616a8e81616a68565b92915050565b600060208284031215616aaa57616aa9616a32565b5b6000616ab884828501616a7f565b91505092915050565b60008115159050919050565b616ad681616ac1565b82525050565b6000602082019050616af16000830184616acd565b92915050565b600081519050919050565b600082825260208201905092915050565b6000819050602082019050919050565b6000819050919050565b616b3681616b23565b82525050565b600081519050919050565b600082825260208201905092915050565b60005b83811015616b76578082015181840152602081019050616b5b565b60008484015250505050565b6000601f19601f8301169050919050565b6000616b9e82616b3c565b616ba88185616b47565b9350616bb8818560208601616b58565b616bc181616b82565b840191505092915050565b616bd581616ac1565b82525050565b600073ffffffffffffffffffffffffffffffffffffffff82169050919050565b6000616c0682616bdb565b9050919050565b616c1681616bfb565b82525050565b600060c083016000830151616c346000860182616b2d565b5060208301518482036020860152616c4c8282616b93565b91505060408301518482036040860152616c668282616b93565b9150506060830151616c7b6060860182616bcc565b506080830151616c8e6080860182616b2d565b5060a0830151616ca160a0860182616c0d565b508091505092915050565b6000616cb88383616c1c565b905092915050565b6000602082019050919050565b6000616cd882616af7565b616ce28185616b02565b935083602082028501616cf485616b13565b8060005b85811015616d305784840389528151616d118582616cac565b9450616d1c83616cc0565b925060208a01995050600181019050616cf8565b50829750879550505050505092915050565b60006020820190508181036000830152616d5c8184616ccd565b905092915050565b616d6d81616b23565b82525050565b6000602082019050616d886000830184616d64565b92915050565b600082825260208201905092915050565b6000616daa82616b3c565b616db48185616d8e565b9350616dc4818560208601616b58565b616dcd81616b82565b840191505092915050565b60006020820190508181036000830152616df28184616d9f565b905092915050565b616e0381616bfb565b8114616e0e57600080fd5b50565b600081359050616e2081616dfa565b92915050565b616e2f81616b23565b8114616e3a57600080fd5b50565b600081359050616e4c81616e26565b92915050565b60008060408385031215616e6957616e68616a32565b5b6000616e7785828601616e11565b9250506020616e8885828601616e3d565b9150509250929050565b600060208284031215616ea857616ea7616a32565b5b6000616eb684828501616e3d565b91505092915050565b616ec881616bfb565b82525050565b6000602082019050616ee36000830184616ebf565b92915050565b600080600060608486031215616f0257616f01616a32565b5b6000616f1086828701616e11565b9350506020616f2186828701616e11565b9250506040616f3286828701616e3d565b9150509250925092565b6000819050919050565b616f4f81616f3c565b8114616f5a57600080fd5b50565b600081359050616f6c81616f46565b92915050565b600060208284031215616f8857616f87616a32565b5b6000616f9684828501616f5d565b91505092915050565b616fa881616f3c565b82525050565b6000602082019050616fc36000830184616f9f565b92915050565b6000606082019050616fde6000830186616d64565b8181036020830152616ff08185616d9f565b9050616fff6040830184616acd565b949350505050565b600060c08201905061701c6000830189616d64565b818103602083015261702e8188616d9f565b905081810360408301526170428187616d9f565b90506170516060830186616acd565b61705e6080830185616d64565b61706b60a0830184616ebf565b979650505050505050565b600060a08201905061708b6000830188616d64565b818103602083015261709d8187616d9f565b905081810360408301526170b18186616d9f565b90506170c06060830185616d64565b6170cd6080830184616acd565b9695505050505050565b600080604083850312156170ee576170ed616a32565b5b60006170fc85828601616f5d565b925050602061710d85828601616e11565b9150509250929050565b600080fd5b7f4e487b7100000000000000000000000000000000000000000000000000000000600052604160045260246000fd5b61715482616b82565b810181811067ffffffffffffffff821117156171735761717261711c565b5b80604052505050565b6000617186616a28565b9050617192828261714b565b919050565b600067ffffffffffffffff8211156171b2576171b161711c565b5b602082029050602081019050919050565b600080fd5b600080fd5b600067ffffffffffffffff8211156171e8576171e761711c565b5b6171f182616b82565b9050602081019050919050565b82818337600083830152505050565b600061722061721b846171cd565b61717c565b90508281526020810184848401111561723c5761723b6171c8565b5b6172478482856171fe565b509392505050565b600082601f83011261726457617263617117565b5b813561727484826020860161720d565b91505092915050565b600061729061728b84617197565b61717c565b905080838252602082019050602084028301858111156172b3576172b26171c3565b5b835b818110156172fa57803567ffffffffffffffff8111156172d8576172d7617117565b5b8086016172e5898261724f565b855260208501945050506020810190506172b5565b5050509392505050565b600082601f83011261731957617318617117565b5b813561732984826020860161727d565b91505092915050565b6000806040838503121561734957617348616a32565b5b600061735785828601616e3d565b925050602083013567ffffffffffffffff81111561737857617377616a37565b5b61738485828601617304565b9150509250929050565b600060ff82169050919050565b6173a48161738e565b82525050565b60006020820190506173bf600083018461739b565b92915050565b60006040820190506173da6000830185616d64565b81810360208301526173ec8184616d9f565b90509392505050565b60006020828403121561740b5761740a616a32565b5b600061741984828501616e11565b91505092915050565b600081519050919050565b600082825260208201905092915050565b600061744982617422565b617453818561742d565b9350617463818560208601616b58565b61746c81616b82565b840191505092915050565b600060c08201905061748c6000830189616d64565b6174996020830188616ebf565b6174a66040830187616ebf565b81810360608301526174b8818661743e565b90506174c76080830185616d64565b6174d460a0830184616acd565b979650505050505050565b600080604083850312156174f6576174f5616a32565b5b600061750485828601616e3d565b925050602061751585828601616e3d565b9150509250929050565b60008060008060008060008060008060006101608c8e03121561754557617544616a32565b5b60006175538e828f01616e3d565b9b505060206175648e828f01616e3d565b9a505060406175758e828f01616e3d565b99505060606175868e828f01616e3d565b98505060806175978e828f01616e3d565b97505060a06175a88e828f01616e3d565b96505060c06175b98e828f01616e3d565b95505060e06175ca8e828f01616e3d565b9450506101006175dc8e828f01616e3d565b9350506101206175ee8e828f01616e3d565b9250506101406176008e828f01616e3d565b9150509295989b509295989b9093969950565b600080fd5b60008083601f84011261762e5761762d617117565b5b8235905067ffffffffffffffff81111561764b5761764a617613565b5b602083019150836020820283011115617667576176666171c3565b5b9250929050565b60008060006040848603121561768757617686616a32565b5b600061769586828701616e3d565b935050602084013567ffffffffffffffff8111156176b6576176b5616a37565b5b6176c286828701617618565b92509250509250925092565b600080604083850312156176e5576176e4616a32565b5b60006176f385828601616e3d565b925050602083013567ffffffffffffffff81111561771457617713616a37565b5b6177208582860161724f565b9150509250929050565b60008060006060848603121561774357617742616a32565b5b600061775186828701616e3d565b935050602084013567ffffffffffffffff81111561777257617771616a37565b5b61777e8682870161724f565b925050604084013567ffffffffffffffff81111561779f5761779e616a37565b5b6177ab8682870161724f565b9150509250925092565b600080604083850312156177cc576177cb616a32565b5b600083013567ffffffffffffffff8111156177ea576177e9616a37565b5b6177f68582860161724f565b925050602083013567ffffffffffffffff81111561781757617816616a37565b5b6178238582860161724f565b9150509250929050565b600081519050919050565b600082825260208201905092915050565b6000819050602082019050919050565b6000600a9050919050565b600081905092915050565b6000819050919050565b600060608301600083015184820360008601526178968282616b93565b915050602083015184820360208601526178b08282616b93565b915050604083015184820360408601526178ca8282616b93565b9150508091505092915050565b60006178e38383617879565b905092915050565b6000602082019050919050565b600061790382617859565b61790d8185617864565b93508360208202850161791f8561786f565b8060005b8581101561795b578484038952815161793c85826178d7565b9450617947836178eb565b925060208a01995050600181019050617923565b50829750879550505050505092915050565b600060c0830160008301516179856000860182616b2d565b506020830151848203602086015261799d8282616b93565b915050604083015184820360408601526179b78282616b93565b915050606083015184820360608601526179d182826178f8565b91505060808301516179e66080860182616b2d565b5060a08301516179f960a0860182616bcc565b508091505092915050565b6000617a10838361796d565b905092915050565b6000602082019050919050565b6000617a308261782d565b617a3a8185617838565b935083602082028501617a4c85617849565b8060005b85811015617a885784840389528151617a698582617a04565b9450617a7483617a18565b925060208a01995050600181019050617a50565b50829750879550505050505092915050565b60006020820190508181036000830152617ab48184617a25565b905092915050565b600081519050919050565b600082825260208201905092915050565b6000819050602082019050919050565b600081519050919050565b600082825260208201905092915050565b6000819050602082019050919050565b60006040830160008301518482036000860152617b318282616b93565b9150506020830151617b466020860182616bcc565b508091505092915050565b6000617b5d8383617b14565b905092915050565b6000602082019050919050565b6000617b7d82617ae8565b617b878185617af3565b935083602082028501617b9985617b04565b8060005b85811015617bd55784840389528151617bb68582617b51565b9450617bc183617b65565b925060208a01995050600181019050617b9d565b50829750879550505050505092915050565b6000606083016000830151617bff6000860182616b2d565b5060208301518482036020860152617c178282616b93565b91505060408301518482036040860152617c318282617b72565b9150508091505092915050565b6000617c4a8383617be7565b905092915050565b6000602082019050919050565b6000617c6a82617abc565b617c748185617ac7565b935083602082028501617c8685617ad8565b8060005b85811015617cc25784840389528151617ca38582617c3e565b9450617cae83617c52565b925060208a01995050600181019050617c8a565b50829750879550505050505092915050565b6000608083016000830151617cec6000860182616b2d565b5060208301518482036020860152617d048282616b93565b91505060408301518482036040860152617d1e8282617c5f565b9150506060830151617d336060860182616bcc565b508091505092915050565b60006020820190508181036000830152617d588184617cd4565b905092915050565b600081519050919050565b600082825260208201905092915050565b6000819050602082019050919050565b6000606083016000830151617da46000860182616b2d565b5060208301518482036020860152617dbc8282616b93565b9150506040830151617dd16040860182616bcc565b508091505092915050565b6000617de88383617d8c565b905092915050565b6000602082019050919050565b6000617e0882617d60565b617e128185617d6b565b935083602082028501617e2485617d7c565b8060005b85811015617e605784840389528151617e418582617ddc565b9450617e4c83617df0565b925060208a01995050600181019050617e28565b50829750879550505050505092915050565b60006020820190508181036000830152617e8c8184617dfd565b905092915050565b60008060408385031215617eab57617eaa616a32565b5b6000617eb985828601616e3d565b9250506020617eca85828601616e11565b9150509250929050565b600061016082019050617eea600083018e616d64565b617ef7602083018d616d64565b617f04604083018c616d64565b617f11606083018b616d64565b617f1e608083018a616d64565b617f2b60a0830189616d64565b617f3860c0830188616d64565b617f4560e0830187616d64565b617f53610100830186616d64565b617f61610120830185616d64565b617f6f610140830184616acd565b9c9b505050505050505050505050565b600081519050919050565b600082825260208201905092915050565b6000819050602082019050919050565b6000617fb78383616c0d565b60208301905092915050565b6000602082019050919050565b6000617fdb82617f7f565b617fe58185617f8a565b9350617ff083617f9b565b8060005b838110156180215781516180088882617fab565b975061801383617fc3565b925050600181019050617ff4565b5085935050505092915050565b600060208201905081810360008301526180488184617fd0565b905092915050565b6180598161738e565b811461806457600080fd5b50565b60008135905061807681618050565b92915050565b6000806000806080858703121561809657618095616a32565b5b60006180a487828801616e3d565b945050602085013567ffffffffffffffff8111156180c5576180c4616a37565b5b6180d18782880161724f565b935050604085013567ffffffffffffffff8111156180f2576180f1616a37565b5b6180fe87828801617304565b925050606061810f87828801618067565b91505092959194509250565b6000806040838503121561813257618131616a32565b5b600061814085828601616e11565b925050602061815185828601616e11565b9150509250929050565b600060608201905081810360008301526181758186616d9f565b905081810360208301526181898185616d9f565b9050818103604083015261819d8184616d9f565b9050949350505050565b7f4e487b7100000000000000000000000000000000000000000000000000000000600052603260045260246000fd5b7f4e487b7100000000000000000000000000000000000000000000000000000000600052602260045260246000fd5b6000600282049050600182168061821d57607f821691505b6020821081036182305761822f6181d6565b5b50919050565b7f596f7520617265206e6f7420656e726f6c6c656420696e207468697320636f7560008201527f7273652100000000000000000000000000000000000000000000000000000000602082015250565b6000618292602483616d8e565b915061829d82618236565b604082019050919050565b600060208201905081810360008301526182c181618285565b9050919050565b7f4e487b7100000000000000000000000000000000000000000000000000000000600052601160045260246000fd5b600061830282616b23565b915061830d83616b23565b925082820261831b81616b23565b91508282048414831517618332576183316182c8565b5b5092915050565b7f4e487b7100000000000000000000000000000000000000000000000000000000600052601260045260246000fd5b600061837382616b23565b915061837e83616b23565b92508261838e5761838d618339565b5b828204905092915050565b7f436f7572736520646f6573206e6f742065786973742100000000000000000000600082015250565b60006183cf601683616d8e565b91506183da82618399565b602082019050919050565b600060208201905081810360008301526183fe816183c2565b9050919050565b60008190508160005260206000209050919050565b60006020601f8301049050919050565b600082821b905092915050565b6000600883026184677fffffffffffffffffffffffffffffffffffffffffffffffffffffffffffffffff8261842a565b618471868361842a565b95508019841693508086168417925050509392505050565b6000819050919050565b60006184ae6184a96184a484616b23565b618489565b616b23565b9050919050565b6000819050919050565b6184c883618493565b6184dc6184d4826184b5565b848454618437565b825550505050565b600090565b6184f16184e4565b6184fc8184846184bf565b505050565b5b81811015618520576185156000826184e9565b600181019050618502565b5050565b601f8211156185655761853681618405565b61853f8461841a565b8101602085101561854e578190505b61856261855a8561841a565b830182618501565b50505b505050565b600082821c905092915050565b60006185886000198460080261856a565b1980831691505092915050565b60006185a18383618577565b9150826002028217905092915050565b6185ba82616b3c565b67ffffffffffffffff8111156185d3576185d261711c565b5b6185dd8254618205565b6185e8828285618524565b600060209050601f83116001811461861b5760008415618609578287015190505b6186138582618595565b86555061867b565b601f19841661862986618405565b60005b828110156186515784890151825560018201915060208501945060208101905061862c565b8683101561866e578489015161866a601f891682618577565b8355505b6001600288020188555050505b505050505050565b600061868e82616b23565b91507fffffffffffffffffffffffffffffffffffffffffffffffffffffffffffffffff82036186c0576186bf6182c8565b5b600182019050919050565b7f4e6f742073656c6563746564206173206120726576696577657220666f72207460008201527f68697320636f7572736500000000000000000000000000000000000000000000602082015250565b6000618727602a83616d8e565b9150618732826186cb565b604082019050919050565b600060208201905081810360008301526187568161871a565b9050919050565b7f52657669657720616c7265616479207375626d6974746564206279207468697360008201527f2072657669657765722e00000000000000000000000000000000000000000000602082015250565b60006187b9602a83616d8e565b91506187c48261875d565b604082019050919050565b600060208201905081810360008301526187e8816187ac565b9050919050565b7f4c6573736f6e20646f6573206e6f742065786973742100000000000000000000600082015250565b6000618825601683616d8e565b9150618830826187ef565b602082019050919050565b6000602082019050818103600083015261885481618818565b9050919050565b600061886682616b23565b915061887183616b23565b9250828201905080821115618889576188886182c8565b5b92915050565b7f45786365656473206d6178696d756d207265736f757263657321000000000000600082015250565b60006188c5601a83616d8e565b91506188d08261888f565b602082019050919050565b600060208201905081810360008301526188f4816188b8565b9050919050565b600080fd5b600080fd5b600080fd5b600082356001606003833603038112618926576189256188fb565b5b80830191505092915050565b6000808335600160200384360303811261894f5761894e6188fb565b5b80840192508235915067ffffffffffffffff82111561897157618970618900565b5b60208301925060018202360383131561898d5761898c618905565b5b509250929050565b6000815490506189a481618205565b9050919050565b8181036189b9575050618a91565b6189c282618995565b67ffffffffffffffff8111156189db576189da61711c565b5b6189e58254618205565b6189f0828285618524565b6000601f831160018114618a1f5760008415618a0d578287015490505b618a178582618595565b865550618a8a565b601f198416618a2d87618405565b9650618a3886618405565b60005b82811015618a6057848901548255600182019150600185019450602081019050618a3b565b86831015618a7d5784890154618a79601f891682618577565b8355505b6001600288020188555050505b5050505050505b565b7f4c6573736f6e20446f6573206e6f742065786973742100000000000000000000600082015250565b6000618ac9601683616d8e565b9150618ad482618a93565b602082019050919050565b60006020820190508181036000830152618af881618abc565b9050919050565b600081905092915050565b6000618b1582616b3c565b618b1f8185618aff565b9350618b2f818560208601616b58565b80840191505092915050565b6000618b478284618b0a565b915081905092915050565b7f416c726561647920696e20726576696577657220706f6f6c0000000000000000600082015250565b6000618b88601883616d8e565b9150618b9382618b52565b602082019050919050565b60006020820190508181036000830152618bb781618b7b565b9050919050565b7f436f7572736520616c726561647920617070726f766564000000000000000000600082015250565b6000618bf4601783616d8e565b9150618bff82618bbe565b602082019050919050565b60006020820190508181036000830152618c2381618be7565b9050919050565b7f596f75206861766520616c726561647920617070726f7665642074686973206360008201527f6f75727365000000000000000000000000000000000000000000000000000000602082015250565b6000618c86602583616d8e565b9150618c9182618c2a565b604082019050919050565b60006020820190508181036000830152618cb581618c79565b9050919050565b7f4368617074657220646f6573206e6f7420657869737421000000000000000000600082015250565b6000618cf2601783616d8e565b9150618cfd82618cbc565b602082019050919050565b60006020820190508181036000830152618d2181618ce5565b9050919050565b7f52657669657765727320616c72656164792073656c6563746564000000000000600082015250565b6000618d5e601a83616d8e565b9150618d6982618d28565b602082019050919050565b60006020820190508181036000830152618d8d81618d51565b9050919050565b7f4e6f7420656e6f7567682072657669657765727320696e2074686520706f6f6c600082015250565b6000618dca602083616d8e565b9150618dd582618d94565b602082019050919050565b60006020820190508181036000830152618df981618dbd565b9050919050565b6000819050919050565b618e1b618e1682616b23565b618e00565b82525050565b6000618e2d8287618e0a565b602082019150618e3d8286618e0a565b602082019150618e4d8285618e0a565b602082019150618e5d8284618e0a565b60208201915081905095945050505050565b6000618e7a82616b23565b9150618e8583616b23565b925082618e9557618e94618339565b5b828206905092915050565b600081549050919050565b60008190508160005260206000209050919050565b60008160001c9050919050565b600073ffffffffffffffffffffffffffffffffffffffff82169050919050565b6000618f00618efb83618ec0565b618ecd565b9050919050565b6000618f138254618eed565b9050919050565b6000600182019050919050565b6000618f3282618ea0565b618f3c8185617f8a565b9350618f4783618eab565b8060005b83811015618f7f57618f5c82618f07565b618f668882617fab565b9750618f7183618f1a565b925050600181019050618f4b565b5085935050505092915050565b60006020820190508181036000830152618fa68184618f27565b905092915050565b7f436f7572736520494420616c7265616479206578697374730000000000000000600082015250565b6000618fe4601883616d8e565b9150618fef82618fae565b602082019050919050565b6000602082019050818103600083015261901381618fd7565b9050919050565b600061902582616b23565b915061903083616b23565b9250828203905081811115619048576190476182c8565b5b92915050565b7f5175697a20646f6573206e6f7420657869737400000000000000000000000000600082015250565b6000619084601383616d8e565b915061908f8261904e565b602082019050919050565b600060208201905081810360008301526190b381619077565b9050919050565b7f50726f706f73616c20616c726561647920657865637574656400000000000000600082015250565b60006190f0601983616d8e565b91506190fb826190ba565b602082019050919050565b6000602082019050818103600083015261911f816190e3565b9050919050565b7f416c726561647920617070726f76656400000000000000000000000000000000600082015250565b600061915c601083616d8e565b915061916782619126565b602082019050919050565b6000602082019050818103600083015261918b8161914f565b9050919050565b600081905092915050565b60008190508160005260206000209050919050565b600081546191bf81618205565b6191c98186619192565b945060018216600081146191e457600181146191f95761922c565b60ff198316865281151582028601935061922c565b6192028561919d565b60005b8381101561922457815481890152600182019150602081019050619205565b838801955050505b50505092915050565b600061924182846191b2565b915081905092915050565b7f50726f706f73616c20657865637574696f6e206661696c656400000000000000600082015250565b6000619282601983616d8e565b915061928d8261924c565b602082019050919050565b600060208201905081810360008301526192b181619275565b9050919050565b7f4e6f7420696e20726576696577657220706f6f6c000000000000000000000000600082015250565b60006192ee601483616d8e565b91506192f9826192b8565b602082019050919050565b6000602082019050818103600083015261931d816192e1565b9050919050565b7f4e487b7100000000000000000000000000000000000000000000000000000000600052603160045260246000fd5b7f496e76616c6964206e756d626572206f662063686f6963657300000000000000600082015250565b6000619389601983616d8e565b915061939482619353565b602082019050919050565b600060208201905081810360008301526193b88161937c565b9050919050565b7f496e76616c696420636f72726563742063686f69636520696e64657800000000600082015250565b60006193f5601c83616d8e565b9150619400826193bf565b602082019050919050565b60006020820190508181036000830152619424816193e8565b9050919050565b60006060820190506194406000830186616d64565b61944d6020830185616d64565b818103604083015261945f8184616d9f565b9050949350505050565b60006194748261738e565b915060ff8203619487576194866182c8565b5b600182019050919050565b7f436f75727365206e6f742079657420617070726f766564210000000000000000600082015250565b60006194c8601883616d8e565b91506194d382619492565b602082019050919050565b600060208201905081810360008301526194f7816194bb565b9050919050565b7f596f752061726520616c726561647920656e726f6c6c656420696e746f20746860008201527f697320636f757273650000000000000000000000000000000000000000000000602082015250565b600061955a602983616d8e565b9150619565826194fe565b604082019050919050565b600060208201905081810360008301526195898161954d565b9050919050565b60006060820190506195a56000830186616ebf565b6195b26020830185616d64565b6195bf6040830184616d64565b949350505050565b7f53636f726573206d757374206265206265747765656e203120616e642031302e600082015250565b60006195fd602083616d8e565b9150619608826195c7565b602082019050919050565b6000602082019050818103600083015261962c816195f0565b9050919050565b7f4c696d6974204578636565646564210000000000000000000000000000000000600082015250565b6000619669600f83616d8e565b915061967482619633565b602082019050919050565b600060208201905081810360008301526196988161965c565b9050919050565b7f496e73756666696369656e742062616c616e6365000000000000000000000000600082015250565b60006196d5601483616d8e565b91506196e08261969f565b602082019050919050565b60006020820190508181036000830152619704816196c8565b9050919050565b60006040820190506197206000830185616ebf565b61972d6020830184616f9f565b939250505056fea2646970667358221220075788a779b55480a9532806a89f939af1362fd6829ac5c5495419420aedac8b64736f6c634300081b0033",
  "linkReferences": {},
  "deployedLinkReferences": {}
}