{
  "_format": "hh-sol-artifact-1",
  "contractName": "Ecosystem2",
  "sourceName": "contracts/Ecosystem Contracts/Ecosystem2.sol",
  "abi": [
    {
      "inputs": [
        {
          "internalType": "address[]",
          "name": "_reviewers",
          "type": "address[]"
        }
      ],
      "stateMutability": "nonpayable",
      "type": "constructor"
    },
    {
      "inputs": [],
      "name": "AccessControlBadConfirmation",
      "type": "error"
    },
    {
      "inputs": [
        {
          "internalType": "address",
          "name": "account",
          "type": "address"
        },
        {
          "internalType": "bytes32",
          "name": "neededRole",
          "type": "bytes32"
        }
      ],
      "name": "AccessControlUnauthorizedAccount",
      "type": "error"
    },
    {
      "inputs": [
        {
          "internalType": "address",
          "name": "spender",
          "type": "address"
        },
        {
          "internalType": "uint256",
          "name": "allowance",
          "type": "uint256"
        },
        {
          "internalType": "uint256",
          "name": "needed",
          "type": "uint256"
        }
      ],
      "name": "ERC20InsufficientAllowance",
      "type": "error"
    },
    {
      "inputs": [
        {
          "internalType": "address",
          "name": "sender",
          "type": "address"
        },
        {
          "internalType": "uint256",
          "name": "balance",
          "type": "uint256"
        },
        {
          "internalType": "uint256",
          "name": "needed",
          "type": "uint256"
        }
      ],
      "name": "ERC20InsufficientBalance",
      "type": "error"
    },
    {
      "inputs": [
        {
          "internalType": "address",
          "name": "approver",
          "type": "address"
        }
      ],
      "name": "ERC20InvalidApprover",
      "type": "error"
    },
    {
      "inputs": [
        {
          "internalType": "address",
          "name": "receiver",
          "type": "address"
        }
      ],
      "name": "ERC20InvalidReceiver",
      "type": "error"
    },
    {
      "inputs": [
        {
          "internalType": "address",
          "name": "sender",
          "type": "address"
        }
      ],
      "name": "ERC20InvalidSender",
      "type": "error"
    },
    {
      "inputs": [
        {
          "internalType": "address",
          "name": "spender",
          "type": "address"
        }
      ],
      "name": "ERC20InvalidSpender",
      "type": "error"
    },
    {
      "inputs": [],
      "name": "ReentrancyGuardReentrantCall",
      "type": "error"
    },
    {
      "anonymous": false,
      "inputs": [
        {
          "indexed": true,
          "internalType": "address",
          "name": "owner",
          "type": "address"
        },
        {
          "indexed": true,
          "internalType": "address",
          "name": "spender",
          "type": "address"
        },
        {
          "indexed": false,
          "internalType": "uint256",
          "name": "value",
          "type": "uint256"
        }
      ],
      "name": "Approval",
      "type": "event"
    },
    {
      "anonymous": false,
      "inputs": [
        {
          "indexed": true,
          "internalType": "address",
          "name": "_account",
          "type": "address"
        },
        {
          "indexed": false,
          "internalType": "uint256",
          "name": "_amount",
          "type": "uint256"
        }
      ],
      "name": "BurnSuccess",
      "type": "event"
    },
    {
      "anonymous": false,
      "inputs": [
        {
          "indexed": true,
          "internalType": "uint256",
          "name": "_courseId",
          "type": "uint256"
        },
        {
          "indexed": true,
          "internalType": "uint256",
          "name": "numberOfChapters",
          "type": "uint256"
        }
      ],
      "name": "ChaptersAddedSuccessfully",
      "type": "event"
    },
    {
      "anonymous": false,
      "inputs": [
        {
          "indexed": false,
          "internalType": "uint256",
          "name": "questionId",
          "type": "uint256"
        },
        {
          "indexed": false,
          "internalType": "uint256",
          "name": "choiceId",
          "type": "uint256"
        },
        {
          "indexed": false,
          "internalType": "string",
          "name": "option",
          "type": "string"
        }
      ],
      "name": "ChoiceAdded",
      "type": "event"
    },
    {
      "anonymous": false,
      "inputs": [
        {
          "indexed": true,
          "internalType": "uint256",
          "name": "_courseID",
          "type": "uint256"
        },
        {
          "indexed": true,
          "internalType": "string",
          "name": "_courseName",
          "type": "string"
        },
        {
          "indexed": false,
          "internalType": "bool",
          "name": "_approved",
          "type": "bool"
        }
      ],
      "name": "CourseCreationSuccess",
      "type": "event"
    },
    {
      "anonymous": false,
      "inputs": [
        {
          "indexed": true,
          "internalType": "address",
          "name": "_to",
          "type": "address"
        },
        {
          "indexed": true,
          "internalType": "uint256",
          "name": "_amount",
          "type": "uint256"
        }
      ],
      "name": "EcosystemPoolUpdate",
      "type": "event"
    },
    {
      "anonymous": false,
      "inputs": [
        {
          "indexed": true,
          "internalType": "uint256",
          "name": "_courseId",
          "type": "uint256"
        },
        {
          "indexed": true,
          "internalType": "address",
          "name": "_by",
          "type": "address"
        }
      ],
      "name": "EnrollmentSuccess",
      "type": "event"
    },
    {
      "anonymous": false,
      "inputs": [
        {
          "indexed": true,
          "internalType": "uint256",
          "name": "_lessonId",
          "type": "uint256"
        },
        {
          "indexed": true,
          "internalType": "string",
          "name": "_lessonName",
          "type": "string"
        },
        {
          "indexed": true,
          "internalType": "uint256",
          "name": "_additonalResources",
          "type": "uint256"
        }
      ],
      "name": "LessonCreationSuccess",
      "type": "event"
    },
    {
      "anonymous": false,
      "inputs": [
        {
          "indexed": true,
          "internalType": "address",
          "name": "_to",
          "type": "address"
        },
        {
          "indexed": true,
          "internalType": "uint256",
          "name": "_amount",
          "type": "uint256"
        }
      ],
      "name": "MintSuccess",
      "type": "event"
    },
    {
      "anonymous": false,
      "inputs": [
        {
          "indexed": true,
          "internalType": "uint256",
          "name": "proposalId",
          "type": "uint256"
        },
        {
          "indexed": false,
          "internalType": "address",
          "name": "approver",
          "type": "address"
        }
      ],
      "name": "MultiSigProposalApproved",
      "type": "event"
    },
    {
      "anonymous": false,
      "inputs": [
        {
          "indexed": true,
          "internalType": "uint256",
          "name": "proposalId",
          "type": "uint256"
        },
        {
          "indexed": false,
          "internalType": "address",
          "name": "proposer",
          "type": "address"
        }
      ],
      "name": "MultiSigProposalCreated",
      "type": "event"
    },
    {
      "anonymous": false,
      "inputs": [
        {
          "indexed": true,
          "internalType": "uint256",
          "name": "proposalId",
          "type": "uint256"
        }
      ],
      "name": "MultiSigProposalExecuted",
      "type": "event"
    },
    {
      "anonymous": false,
      "inputs": [
        {
          "indexed": false,
          "internalType": "uint256",
          "name": "quizId",
          "type": "uint256"
        },
        {
          "indexed": false,
          "internalType": "uint256",
          "name": "questionId",
          "type": "uint256"
        },
        {
          "indexed": false,
          "internalType": "string",
          "name": "questionText",
          "type": "string"
        }
      ],
      "name": "QuestionAdded",
      "type": "event"
    },
    {
      "anonymous": false,
      "inputs": [
        {
          "indexed": true,
          "internalType": "uint256",
          "name": "_quizId",
          "type": "uint256"
        },
        {
          "indexed": true,
          "internalType": "string",
          "name": "_title",
          "type": "string"
        }
      ],
      "name": "QuizCreatedSuccess",
      "type": "event"
    },
    {
      "anonymous": false,
      "inputs": [
        {
          "indexed": true,
          "internalType": "uint256",
          "name": "_lessonId",
          "type": "uint256"
        },
        {
          "indexed": true,
          "internalType": "uint256",
          "name": "resourceCount",
          "type": "uint256"
        }
      ],
      "name": "ResourceAddSuccess",
      "type": "event"
    },
    {
      "anonymous": false,
      "inputs": [
        {
          "indexed": true,
          "internalType": "address",
          "name": "reviewer",
          "type": "address"
        }
      ],
      "name": "ReviewerAddedToPool",
      "type": "event"
    },
    {
      "anonymous": false,
      "inputs": [
        {
          "indexed": true,
          "internalType": "address",
          "name": "reviewer",
          "type": "address"
        }
      ],
      "name": "ReviewerRemovedFromPool",
      "type": "event"
    },
    {
      "anonymous": false,
      "inputs": [
        {
          "indexed": true,
          "internalType": "uint256",
          "name": "courseId",
          "type": "uint256"
        },
        {
          "indexed": false,
          "internalType": "address[]",
          "name": "reviewers",
          "type": "address[]"
        }
      ],
      "name": "ReviewersSelected",
      "type": "event"
    },
    {
      "anonymous": false,
      "inputs": [
        {
          "indexed": true,
          "internalType": "bytes32",
          "name": "role",
          "type": "bytes32"
        },
        {
          "indexed": true,
          "internalType": "bytes32",
          "name": "previousAdminRole",
          "type": "bytes32"
        },
        {
          "indexed": true,
          "internalType": "bytes32",
          "name": "newAdminRole",
          "type": "bytes32"
        }
      ],
      "name": "RoleAdminChanged",
      "type": "event"
    },
    {
      "anonymous": false,
      "inputs": [
        {
          "indexed": true,
          "internalType": "bytes32",
          "name": "role",
          "type": "bytes32"
        },
        {
          "indexed": true,
          "internalType": "address",
          "name": "account",
          "type": "address"
        },
        {
          "indexed": true,
          "internalType": "address",
          "name": "sender",
          "type": "address"
        }
      ],
      "name": "RoleGranted",
      "type": "event"
    },
    {
      "anonymous": false,
      "inputs": [
        {
          "indexed": true,
          "internalType": "bytes32",
          "name": "role",
          "type": "bytes32"
        },
        {
          "indexed": true,
          "internalType": "address",
          "name": "account",
          "type": "address"
        },
        {
          "indexed": true,
          "internalType": "address",
          "name": "sender",
          "type": "address"
        }
      ],
      "name": "RoleRevoked",
      "type": "event"
    },
    {
      "anonymous": false,
      "inputs": [
        {
          "indexed": true,
          "internalType": "address",
          "name": "from",
          "type": "address"
        },
        {
          "indexed": true,
          "internalType": "address",
          "name": "to",
          "type": "address"
        },
        {
          "indexed": false,
          "internalType": "uint256",
          "name": "value",
          "type": "uint256"
        }
      ],
      "name": "Transfer",
      "type": "event"
    },
    {
      "anonymous": false,
      "inputs": [
        {
          "indexed": true,
          "internalType": "uint256",
          "name": "_courseId",
          "type": "uint256"
        },
        {
          "indexed": true,
          "internalType": "address",
          "name": "_by",
          "type": "address"
        }
      ],
      "name": "unEnrollmentSuccess",
      "type": "event"
    },
    {
      "inputs": [],
      "name": "COURSE_OWNER_ROLE",
      "outputs": [
        {
          "internalType": "bytes32",
          "name": "",
          "type": "bytes32"
        }
      ],
      "stateMutability": "view",
      "type": "function"
    },
    {
      "inputs": [],
      "name": "CREATE_COURSE_REWARD",
      "outputs": [
        {
          "internalType": "uint256",
          "name": "",
          "type": "uint256"
        }
      ],
      "stateMutability": "view",
      "type": "function"
    },
    {
      "inputs": [],
      "name": "DEFAULT_ADMIN_ROLE",
      "outputs": [
        {
          "internalType": "bytes32",
          "name": "",
          "type": "bytes32"
        }
      ],
      "stateMutability": "view",
      "type": "function"
    },
    {
      "inputs": [],
      "name": "ECOSYSTEM_POOL",
      "outputs": [
        {
          "internalType": "uint256",
          "name": "",
          "type": "uint256"
        }
      ],
      "stateMutability": "view",
      "type": "function"
    },
    {
      "inputs": [],
      "name": "ENROLLMENT_REWARD",
      "outputs": [
        {
          "internalType": "uint256",
          "name": "",
          "type": "uint256"
        }
      ],
      "stateMutability": "view",
      "type": "function"
    },
    {
      "inputs": [],
      "name": "MAX_SCORE",
      "outputs": [
        {
          "internalType": "uint256",
          "name": "",
          "type": "uint256"
        }
      ],
      "stateMutability": "view",
      "type": "function"
    },
    {
      "inputs": [],
      "name": "MAX_SUPPLY",
      "outputs": [
        {
          "internalType": "uint256",
          "name": "",
          "type": "uint256"
        }
      ],
      "stateMutability": "view",
      "type": "function"
    },
    {
      "inputs": [],
      "name": "MIN_APPROVAL_SCORE",
      "outputs": [
        {
          "internalType": "uint256",
          "name": "",
          "type": "uint256"
        }
      ],
      "stateMutability": "view",
      "type": "function"
    },
    {
      "inputs": [],
      "name": "MULTISIG_APPROVER",
      "outputs": [
        {
          "internalType": "bytes32",
          "name": "",
          "type": "bytes32"
        }
      ],
      "stateMutability": "view",
      "type": "function"
    },
    {
      "inputs": [],
      "name": "REQUIRED_APPROVALS",
      "outputs": [
        {
          "internalType": "uint256",
          "name": "",
          "type": "uint256"
        }
      ],
      "stateMutability": "view",
      "type": "function"
    },
    {
      "inputs": [],
      "name": "REVIEWER_ROLE",
      "outputs": [
        {
          "internalType": "bytes32",
          "name": "",
          "type": "bytes32"
        }
      ],
      "stateMutability": "view",
      "type": "function"
    },
    {
      "inputs": [
        {
          "internalType": "address",
          "name": "",
          "type": "address"
        }
      ],
      "name": "accountCourses",
      "outputs": [
        {
          "internalType": "uint256",
          "name": "courseCount",
          "type": "uint256"
        }
      ],
      "stateMutability": "view",
      "type": "function"
    },
    {
      "inputs": [
        {
          "internalType": "uint256",
          "name": "_courseId",
          "type": "uint256"
        },
        {
          "internalType": "string[]",
          "name": "_chapters",
          "type": "string[]"
        }
      ],
      "name": "addChapters",
      "outputs": [
        {
          "internalType": "bool",
          "name": "",
          "type": "bool"
        }
      ],
      "stateMutability": "nonpayable",
      "type": "function"
    },
    {
      "inputs": [
        {
          "internalType": "uint256",
          "name": "_chapterId",
          "type": "uint256"
        },
        {
          "internalType": "string",
          "name": "_lessonName",
          "type": "string"
        },
        {
          "internalType": "string",
          "name": "_lessonContent",
          "type": "string"
        }
      ],
      "name": "addLesson",
      "outputs": [],
      "stateMutability": "nonpayable",
      "type": "function"
    },
    {
      "inputs": [
        {
          "internalType": "uint256",
          "name": "_lessonId",
          "type": "uint256"
        },
        {
          "components": [
            {
              "internalType": "string",
              "name": "contentType",
              "type": "string"
            },
            {
              "internalType": "string",
              "name": "url",
              "type": "string"
            },
            {
              "internalType": "string",
              "name": "description",
              "type": "string"
            }
          ],
          "internalType": "struct Ecosystem.Resource[]",
          "name": "_resources",
          "type": "tuple[]"
        }
      ],
      "name": "addResourcesToLesson",
      "outputs": [],
      "stateMutability": "nonpayable",
      "type": "function"
    },
    {
      "inputs": [
        {
          "internalType": "address",
          "name": "newReviewer",
          "type": "address"
        }
      ],
      "name": "addReviewer",
      "outputs": [],
      "stateMutability": "nonpayable",
      "type": "function"
    },
    {
      "inputs": [
        {
          "internalType": "address",
          "name": "owner",
          "type": "address"
        },
        {
          "internalType": "address",
          "name": "spender",
          "type": "address"
        }
      ],
      "name": "allowance",
      "outputs": [
        {
          "internalType": "uint256",
          "name": "",
          "type": "uint256"
        }
      ],
      "stateMutability": "view",
      "type": "function"
    },
    {
      "inputs": [
        {
          "internalType": "address",
          "name": "",
          "type": "address"
        },
        {
          "internalType": "uint256",
          "name": "",
          "type": "uint256"
        }
      ],
      "name": "approvals",
      "outputs": [
        {
          "internalType": "bool",
          "name": "",
          "type": "bool"
        }
      ],
      "stateMutability": "view",
      "type": "function"
    },
    {
      "inputs": [
        {
          "internalType": "address",
          "name": "spender",
          "type": "address"
        },
        {
          "internalType": "uint256",
          "name": "value",
          "type": "uint256"
        }
      ],
      "name": "approve",
      "outputs": [
        {
          "internalType": "bool",
          "name": "",
          "type": "bool"
        }
      ],
      "stateMutability": "nonpayable",
      "type": "function"
    },
    {
      "inputs": [
        {
          "internalType": "uint256",
          "name": "_courseId",
          "type": "uint256"
        }
      ],
      "name": "approveCourse",
      "outputs": [],
      "stateMutability": "nonpayable",
      "type": "function"
    },
    {
      "inputs": [
        {
          "internalType": "uint256",
          "name": "_proposalId",
          "type": "uint256"
        }
      ],
      "name": "approveMultiSigProposal",
      "outputs": [],
      "stateMutability": "nonpayable",
      "type": "function"
    },
    {
      "inputs": [
        {
          "internalType": "address",
          "name": "account",
          "type": "address"
        }
      ],
      "name": "balanceOf",
      "outputs": [
        {
          "internalType": "uint256",
          "name": "",
          "type": "uint256"
        }
      ],
      "stateMutability": "view",
      "type": "function"
    },
    {
      "inputs": [
        {
          "internalType": "uint256",
          "name": "",
          "type": "uint256"
        }
      ],
      "name": "chapter",
      "outputs": [
        {
          "internalType": "uint256",
          "name": "chapterId",
          "type": "uint256"
        },
        {
          "internalType": "string",
          "name": "chapterName",
          "type": "string"
        },
        {
          "internalType": "bool",
          "name": "exists",
          "type": "bool"
        }
      ],
      "stateMutability": "view",
      "type": "function"
    },
    {
      "inputs": [
        {
          "internalType": "uint256",
          "name": "",
          "type": "uint256"
        },
        {
          "internalType": "uint256",
          "name": "",
          "type": "uint256"
        }
      ],
      "name": "chapterLessons",
      "outputs": [
        {
          "internalType": "string",
          "name": "",
          "type": "string"
        }
      ],
      "stateMutability": "view",
      "type": "function"
    },
    {
      "inputs": [
        {
          "internalType": "uint256",
          "name": "",
          "type": "uint256"
        },
        {
          "internalType": "uint256",
          "name": "",
          "type": "uint256"
        }
      ],
      "name": "courseChapters",
      "outputs": [
        {
          "internalType": "uint256",
          "name": "chapterId",
          "type": "uint256"
        },
        {
          "internalType": "string",
          "name": "chapterName",
          "type": "string"
        },
        {
          "internalType": "bool",
          "name": "exists",
          "type": "bool"
        }
      ],
      "stateMutability": "view",
      "type": "function"
    },
    {
      "inputs": [],
      "name": "courseCount",
      "outputs": [
        {
          "internalType": "uint256",
          "name": "",
          "type": "uint256"
        }
      ],
      "stateMutability": "view",
      "type": "function"
    },
    {
      "inputs": [
        {
          "internalType": "uint256",
          "name": "",
          "type": "uint256"
        }
      ],
      "name": "courseObject",
      "outputs": [
        {
          "internalType": "uint256",
          "name": "courseId",
          "type": "uint256"
        },
        {
          "internalType": "string",
          "name": "courseName",
          "type": "string"
        },
        {
          "internalType": "string",
          "name": "description",
          "type": "string"
        },
        {
          "internalType": "bool",
          "name": "approved",
          "type": "bool"
        },
        {
          "internalType": "uint256",
          "name": "approvalCount",
          "type": "uint256"
        },
        {
          "internalType": "address",
          "name": "creator",
          "type": "address"
        }
      ],
      "stateMutability": "view",
      "type": "function"
    },
    {
      "inputs": [
        {
          "internalType": "uint256",
          "name": "",
          "type": "uint256"
        }
      ],
      "name": "courseReviewInitiated",
      "outputs": [
        {
          "internalType": "bool",
          "name": "",
          "type": "bool"
        }
      ],
      "stateMutability": "view",
      "type": "function"
    },
    {
      "inputs": [
        {
          "internalType": "uint256",
          "name": "",
          "type": "uint256"
        },
        {
          "internalType": "uint256",
          "name": "",
          "type": "uint256"
        }
      ],
      "name": "courseReviewers",
      "outputs": [
        {
          "internalType": "address",
          "name": "",
          "type": "address"
        }
      ],
      "stateMutability": "view",
      "type": "function"
    },
    {
      "inputs": [
        {
          "internalType": "string",
          "name": "_courseName",
          "type": "string"
        },
        {
          "internalType": "string",
          "name": "_description",
          "type": "string"
        }
      ],
      "name": "createCourse",
      "outputs": [
        {
          "internalType": "bool",
          "name": "",
          "type": "bool"
        }
      ],
      "stateMutability": "nonpayable",
      "type": "function"
    },
    {
      "inputs": [
        {
          "internalType": "uint256",
          "name": "_quizId",
          "type": "uint256"
        },
        {
          "internalType": "string",
          "name": "_questionText",
          "type": "string"
        },
        {
          "internalType": "string[]",
          "name": "_options",
          "type": "string[]"
        },
        {
          "internalType": "uint8",
          "name": "_correctChoiceIndex",
          "type": "uint8"
        }
      ],
      "name": "createQuestionWithChoices",
      "outputs": [],
      "stateMutability": "nonpayable",
      "type": "function"
    },
    {
      "inputs": [
        {
          "internalType": "uint256",
          "name": "_lessonId",
          "type": "uint256"
        },
        {
          "internalType": "string",
          "name": "_title",
          "type": "string"
        }
      ],
      "name": "createQuiz",
      "outputs": [
        {
          "internalType": "uint256",
          "name": "",
          "type": "uint256"
        }
      ],
      "stateMutability": "nonpayable",
      "type": "function"
    },
    {
      "inputs": [],
      "name": "decimals",
      "outputs": [
        {
          "internalType": "uint8",
          "name": "",
          "type": "uint8"
        }
      ],
      "stateMutability": "view",
      "type": "function"
    },
    {
      "inputs": [],
      "name": "ecosystemPoolSupply",
      "outputs": [
        {
          "internalType": "uint256",
          "name": "",
          "type": "uint256"
        }
      ],
      "stateMutability": "view",
      "type": "function"
    },
    {
      "inputs": [
        {
          "internalType": "uint256",
          "name": "_courseId",
          "type": "uint256"
        }
      ],
      "name": "enroll",
      "outputs": [
        {
          "internalType": "bool",
          "name": "",
          "type": "bool"
        }
      ],
      "stateMutability": "nonpayable",
      "type": "function"
    },
    {
      "inputs": [],
      "name": "getAllCourses",
      "outputs": [
        {
          "components": [
            {
              "internalType": "uint256",
              "name": "courseId",
              "type": "uint256"
            },
            {
              "internalType": "string",
              "name": "courseName",
              "type": "string"
            },
            {
              "internalType": "string",
              "name": "description",
              "type": "string"
            },
            {
              "internalType": "bool",
              "name": "approved",
              "type": "bool"
            },
            {
              "internalType": "uint256",
              "name": "approvalCount",
              "type": "uint256"
            },
            {
              "internalType": "address",
              "name": "creator",
              "type": "address"
            }
          ],
          "internalType": "struct Ecosystem.Course[]",
          "name": "",
          "type": "tuple[]"
        }
      ],
      "stateMutability": "view",
      "type": "function"
    },
    {
      "inputs": [],
      "name": "getAllLessons",
      "outputs": [
        {
          "components": [
            {
              "internalType": "uint256",
              "name": "lessonId",
              "type": "uint256"
            },
            {
              "internalType": "string",
              "name": "lessonName",
              "type": "string"
            },
            {
              "internalType": "string",
              "name": "lessonContent",
              "type": "string"
            },
            {
              "components": [
                {
                  "internalType": "string",
                  "name": "contentType",
                  "type": "string"
                },
                {
                  "internalType": "string",
                  "name": "url",
                  "type": "string"
                },
                {
                  "internalType": "string",
                  "name": "description",
                  "type": "string"
                }
              ],
              "internalType": "struct Ecosystem.Resource[10]",
              "name": "additionalResources",
              "type": "tuple[10]"
            },
            {
              "internalType": "uint256",
              "name": "resourceCount",
              "type": "uint256"
            },
            {
              "internalType": "bool",
              "name": "exists",
              "type": "bool"
            }
          ],
          "internalType": "struct Ecosystem.Lesson[]",
          "name": "",
          "type": "tuple[]"
        }
      ],
      "stateMutability": "view",
      "type": "function"
    },
    {
      "inputs": [
        {
          "internalType": "uint256",
          "name": "_courseId",
          "type": "uint256"
        }
      ],
      "name": "getChapters",
      "outputs": [
        {
          "components": [
            {
              "internalType": "uint256",
              "name": "chapterId",
              "type": "uint256"
            },
            {
              "internalType": "string",
              "name": "chapterName",
              "type": "string"
            },
            {
              "internalType": "bool",
              "name": "exists",
              "type": "bool"
            }
          ],
          "internalType": "struct Ecosystem.Chapter[]",
          "name": "",
          "type": "tuple[]"
        }
      ],
      "stateMutability": "view",
      "type": "function"
    },
    {
      "inputs": [
        {
          "internalType": "uint256",
          "name": "courseId",
          "type": "uint256"
        }
      ],
      "name": "getCourseReviewers",
      "outputs": [
        {
          "internalType": "address[]",
          "name": "",
          "type": "address[]"
        }
      ],
      "stateMutability": "view",
      "type": "function"
    },
    {
      "inputs": [],
      "name": "getCurrentEcosystemPoolSupply",
      "outputs": [
        {
          "internalType": "uint256",
          "name": "",
          "type": "uint256"
        }
      ],
      "stateMutability": "view",
      "type": "function"
    },
    {
      "inputs": [
        {
          "internalType": "uint256",
          "name": "_quizId",
          "type": "uint256"
        }
      ],
      "name": "getQuiz",
      "outputs": [
        {
          "components": [
            {
              "internalType": "uint256",
              "name": "quizId",
              "type": "uint256"
            },
            {
              "internalType": "string",
              "name": "quizTitle",
              "type": "string"
            },
            {
              "components": [
                {
                  "internalType": "uint256",
                  "name": "questionId",
                  "type": "uint256"
                },
                {
                  "internalType": "string",
                  "name": "questionText",
                  "type": "string"
                },
                {
                  "components": [
                    {
                      "internalType": "string",
                      "name": "option",
                      "type": "string"
                    },
                    {
                      "internalType": "bool",
                      "name": "isCorrect",
                      "type": "bool"
                    }
                  ],
                  "internalType": "struct Ecosystem.Choice[]",
                  "name": "choices",
                  "type": "tuple[]"
                }
              ],
              "internalType": "struct Ecosystem.Question[]",
              "name": "questions",
              "type": "tuple[]"
            },
            {
              "internalType": "bool",
              "name": "exists",
              "type": "bool"
            }
          ],
          "internalType": "struct Ecosystem.Quiz",
          "name": "",
          "type": "tuple"
        }
      ],
      "stateMutability": "view",
      "type": "function"
    },
    {
      "inputs": [
        {
          "internalType": "bytes32",
          "name": "role",
          "type": "bytes32"
        }
      ],
      "name": "getRoleAdmin",
      "outputs": [
        {
          "internalType": "bytes32",
          "name": "",
          "type": "bytes32"
        }
      ],
      "stateMutability": "view",
      "type": "function"
    },
    {
      "inputs": [
        {
          "internalType": "bytes32",
          "name": "role",
          "type": "bytes32"
        },
        {
          "internalType": "address",
          "name": "account",
          "type": "address"
        }
      ],
      "name": "grantRole",
      "outputs": [],
      "stateMutability": "nonpayable",
      "type": "function"
    },
    {
      "inputs": [
        {
          "internalType": "bytes32",
          "name": "role",
          "type": "bytes32"
        },
        {
          "internalType": "address",
          "name": "account",
          "type": "address"
        }
      ],
      "name": "hasRole",
      "outputs": [
        {
          "internalType": "bool",
          "name": "",
          "type": "bool"
        }
      ],
      "stateMutability": "view",
      "type": "function"
    },
    {
      "inputs": [
        {
          "internalType": "uint256",
          "name": "",
          "type": "uint256"
        },
        {
          "internalType": "address",
          "name": "",
          "type": "address"
        }
      ],
      "name": "isEnrolled",
      "outputs": [
        {
          "internalType": "bool",
          "name": "",
          "type": "bool"
        }
      ],
      "stateMutability": "view",
      "type": "function"
    },
    {
      "inputs": [
        {
          "internalType": "address",
          "name": "",
          "type": "address"
        }
      ],
      "name": "isInReviewerPool",
      "outputs": [
        {
          "internalType": "bool",
          "name": "",
          "type": "bool"
        }
      ],
      "stateMutability": "view",
      "type": "function"
    },
    {
      "inputs": [
        {
          "internalType": "address",
          "name": "account",
          "type": "address"
        }
      ],
      "name": "isReviewer",
      "outputs": [
        {
          "internalType": "bool",
          "name": "",
          "type": "bool"
        }
      ],
      "stateMutability": "view",
      "type": "function"
    },
    {
      "inputs": [
        {
          "internalType": "uint256",
          "name": "",
          "type": "uint256"
        }
      ],
      "name": "lesson",
      "outputs": [
        {
          "internalType": "uint256",
          "name": "lessonId",
          "type": "uint256"
        },
        {
          "internalType": "string",
          "name": "lessonName",
          "type": "string"
        },
        {
          "internalType": "string",
          "name": "lessonContent",
          "type": "string"
        },
        {
          "internalType": "uint256",
          "name": "resourceCount",
          "type": "uint256"
        },
        {
          "internalType": "bool",
          "name": "exists",
          "type": "bool"
        }
      ],
      "stateMutability": "view",
      "type": "function"
    },
    {
      "inputs": [
        {
          "internalType": "uint256",
          "name": "",
          "type": "uint256"
        }
      ],
      "name": "listOfChapters",
      "outputs": [
        {
          "internalType": "uint256",
          "name": "chapterId",
          "type": "uint256"
        },
        {
          "internalType": "string",
          "name": "chapterName",
          "type": "string"
        },
        {
          "internalType": "bool",
          "name": "exists",
          "type": "bool"
        }
      ],
      "stateMutability": "view",
      "type": "function"
    },
    {
      "inputs": [
        {
          "internalType": "uint256",
          "name": "",
          "type": "uint256"
        }
      ],
      "name": "listOfCourses",
      "outputs": [
        {
          "internalType": "uint256",
          "name": "courseId",
          "type": "uint256"
        },
        {
          "internalType": "string",
          "name": "courseName",
          "type": "string"
        },
        {
          "internalType": "string",
          "name": "description",
          "type": "string"
        },
        {
          "internalType": "bool",
          "name": "approved",
          "type": "bool"
        },
        {
          "internalType": "uint256",
          "name": "approvalCount",
          "type": "uint256"
        },
        {
          "internalType": "address",
          "name": "creator",
          "type": "address"
        }
      ],
      "stateMutability": "view",
      "type": "function"
    },
    {
      "inputs": [
        {
          "internalType": "uint256",
          "name": "",
          "type": "uint256"
        }
      ],
      "name": "listOfLessons",
      "outputs": [
        {
          "internalType": "uint256",
          "name": "lessonId",
          "type": "uint256"
        },
        {
          "internalType": "string",
          "name": "lessonName",
          "type": "string"
        },
        {
          "internalType": "string",
          "name": "lessonContent",
          "type": "string"
        },
        {
          "internalType": "uint256",
          "name": "resourceCount",
          "type": "uint256"
        },
        {
          "internalType": "bool",
          "name": "exists",
          "type": "bool"
        }
      ],
      "stateMutability": "view",
      "type": "function"
    },
    {
      "inputs": [
        {
          "internalType": "uint256",
          "name": "",
          "type": "uint256"
        }
      ],
      "name": "listOfQuestions",
      "outputs": [
        {
          "internalType": "uint256",
          "name": "questionId",
          "type": "uint256"
        },
        {
          "internalType": "string",
          "name": "questionText",
          "type": "string"
        }
      ],
      "stateMutability": "view",
      "type": "function"
    },
    {
      "inputs": [
        {
          "internalType": "uint256",
          "name": "",
          "type": "uint256"
        }
      ],
      "name": "listOfQuizzes",
      "outputs": [
        {
          "internalType": "uint256",
          "name": "quizId",
          "type": "uint256"
        },
        {
          "internalType": "string",
          "name": "quizTitle",
          "type": "string"
        },
        {
          "internalType": "bool",
          "name": "exists",
          "type": "bool"
        }
      ],
      "stateMutability": "view",
      "type": "function"
    },
    {
      "inputs": [
        {
          "internalType": "uint256",
          "name": "",
          "type": "uint256"
        }
      ],
      "name": "listOfResource",
      "outputs": [
        {
          "internalType": "string",
          "name": "contentType",
          "type": "string"
        },
        {
          "internalType": "string",
          "name": "url",
          "type": "string"
        },
        {
          "internalType": "string",
          "name": "description",
          "type": "string"
        }
      ],
      "stateMutability": "view",
      "type": "function"
    },
    {
      "inputs": [
        {
          "internalType": "uint256",
          "name": "",
          "type": "uint256"
        }
      ],
      "name": "multiSigProposals",
      "outputs": [
        {
          "internalType": "uint256",
          "name": "id",
          "type": "uint256"
        },
        {
          "internalType": "address",
          "name": "proposer",
          "type": "address"
        },
        {
          "internalType": "address",
          "name": "targetContract",
          "type": "address"
        },
        {
          "internalType": "bytes",
          "name": "data",
          "type": "bytes"
        },
        {
          "internalType": "uint256",
          "name": "approvalCount",
          "type": "uint256"
        },
        {
          "internalType": "bool",
          "name": "executed",
          "type": "bool"
        }
      ],
      "stateMutability": "view",
      "type": "function"
    },
    {
      "inputs": [],
      "name": "name",
      "outputs": [
        {
          "internalType": "string",
          "name": "",
          "type": "string"
        }
      ],
      "stateMutability": "view",
      "type": "function"
    },
    {
      "inputs": [],
      "name": "nextChapterId",
      "outputs": [
        {
          "internalType": "uint256",
          "name": "",
          "type": "uint256"
        }
      ],
      "stateMutability": "view",
      "type": "function"
    },
    {
      "inputs": [],
      "name": "nextChoiceId",
      "outputs": [
        {
          "internalType": "uint256",
          "name": "",
          "type": "uint256"
        }
      ],
      "stateMutability": "view",
      "type": "function"
    },
    {
      "inputs": [],
      "name": "nextCourseId",
      "outputs": [
        {
          "internalType": "uint256",
          "name": "",
          "type": "uint256"
        }
      ],
      "stateMutability": "view",
      "type": "function"
    },
    {
      "inputs": [],
      "name": "nextCourseIdd",
      "outputs": [
        {
          "internalType": "uint256",
          "name": "",
          "type": "uint256"
        }
      ],
      "stateMutability": "view",
      "type": "function"
    },
    {
      "inputs": [],
      "name": "nextLessonId",
      "outputs": [
        {
          "internalType": "uint256",
          "name": "",
          "type": "uint256"
        }
      ],
      "stateMutability": "view",
      "type": "function"
    },
    {
      "inputs": [],
      "name": "nextQuestionId",
      "outputs": [
        {
          "internalType": "uint256",
          "name": "",
          "type": "uint256"
        }
      ],
      "stateMutability": "view",
      "type": "function"
    },
    {
      "inputs": [],
      "name": "nextQuizId",
      "outputs": [
        {
          "internalType": "uint256",
          "name": "",
          "type": "uint256"
        }
      ],
      "stateMutability": "view",
      "type": "function"
    },
    {
      "inputs": [
        {
          "internalType": "uint256",
          "name": "",
          "type": "uint256"
        }
      ],
      "name": "questions",
      "outputs": [
        {
          "internalType": "uint256",
          "name": "questionId",
          "type": "uint256"
        },
        {
          "internalType": "string",
          "name": "questionText",
          "type": "string"
        }
      ],
      "stateMutability": "view",
      "type": "function"
    },
    {
      "inputs": [
        {
          "internalType": "uint256",
          "name": "",
          "type": "uint256"
        }
      ],
      "name": "quizzes",
      "outputs": [
        {
          "internalType": "uint256",
          "name": "quizId",
          "type": "uint256"
        },
        {
          "internalType": "string",
          "name": "quizTitle",
          "type": "string"
        },
        {
          "internalType": "bool",
          "name": "exists",
          "type": "bool"
        }
      ],
      "stateMutability": "view",
      "type": "function"
    },
    {
      "inputs": [
        {
          "internalType": "address",
          "name": "reviewer",
          "type": "address"
        }
      ],
      "name": "removeReviewer",
      "outputs": [],
      "stateMutability": "nonpayable",
      "type": "function"
    },
    {
      "inputs": [
        {
          "internalType": "bytes32",
          "name": "role",
          "type": "bytes32"
        },
        {
          "internalType": "address",
          "name": "callerConfirmation",
          "type": "address"
        }
      ],
      "name": "renounceRole",
      "outputs": [],
      "stateMutability": "nonpayable",
      "type": "function"
    },
    {
      "inputs": [
        {
          "internalType": "uint256",
          "name": "",
          "type": "uint256"
        }
      ],
      "name": "reviewerPool",
      "outputs": [
        {
          "internalType": "address",
          "name": "",
          "type": "address"
        }
      ],
      "stateMutability": "view",
      "type": "function"
    },
    {
      "inputs": [
        {
          "internalType": "uint256",
          "name": "",
          "type": "uint256"
        },
        {
          "internalType": "address",
          "name": "",
          "type": "address"
        }
      ],
      "name": "reviews",
      "outputs": [
        {
          "internalType": "uint256",
          "name": "learnerAgency",
          "type": "uint256"
        },
        {
          "internalType": "uint256",
          "name": "criticalThinking",
          "type": "uint256"
        },
        {
          "internalType": "uint256",
          "name": "collaborativeLearning",
          "type": "uint256"
        },
        {
          "internalType": "uint256",
          "name": "reflectivePractice",
          "type": "uint256"
        },
        {
          "internalType": "uint256",
          "name": "adaptiveLearning",
          "type": "uint256"
        },
        {
          "internalType": "uint256",
          "name": "authenticLearning",
          "type": "uint256"
        },
        {
          "internalType": "uint256",
          "name": "technologyIntegration",
          "type": "uint256"
        },
        {
          "internalType": "uint256",
          "name": "learnerSupport",
          "type": "uint256"
        },
        {
          "internalType": "uint256",
          "name": "assessmentForLearning",
          "type": "uint256"
        },
        {
          "internalType": "uint256",
          "name": "engagementAndMotivation",
          "type": "uint256"
        },
        {
          "internalType": "bool",
          "name": "isSubmitted",
          "type": "bool"
        }
      ],
      "stateMutability": "view",
      "type": "function"
    },
    {
      "inputs": [
        {
          "internalType": "bytes32",
          "name": "role",
          "type": "bytes32"
        },
        {
          "internalType": "address",
          "name": "account",
          "type": "address"
        }
      ],
      "name": "revokeRole",
      "outputs": [],
      "stateMutability": "nonpayable",
      "type": "function"
    },
    {
      "inputs": [
        {
          "internalType": "uint256",
          "name": "courseId",
          "type": "uint256"
        }
      ],
      "name": "selectCourseReviewers",
      "outputs": [],
      "stateMutability": "nonpayable",
      "type": "function"
    },
    {
      "inputs": [
        {
          "internalType": "uint256",
          "name": "courseId",
          "type": "uint256"
        },
        {
          "internalType": "uint256",
          "name": "learnerAgency",
          "type": "uint256"
        },
        {
          "internalType": "uint256",
          "name": "criticalThinking",
          "type": "uint256"
        },
        {
          "internalType": "uint256",
          "name": "collaborativeLearning",
          "type": "uint256"
        },
        {
          "internalType": "uint256",
          "name": "reflectivePractice",
          "type": "uint256"
        },
        {
          "internalType": "uint256",
          "name": "adaptiveLearning",
          "type": "uint256"
        },
        {
          "internalType": "uint256",
          "name": "authenticLearning",
          "type": "uint256"
        },
        {
          "internalType": "uint256",
          "name": "technologyIntegration",
          "type": "uint256"
        },
        {
          "internalType": "uint256",
          "name": "learnerSupport",
          "type": "uint256"
        },
        {
          "internalType": "uint256",
          "name": "assessmentForLearning",
          "type": "uint256"
        },
        {
          "internalType": "uint256",
          "name": "engagementAndMotivation",
          "type": "uint256"
        }
      ],
      "name": "submitReview",
      "outputs": [],
      "stateMutability": "nonpayable",
      "type": "function"
    },
    {
      "inputs": [
        {
          "internalType": "bytes4",
          "name": "interfaceId",
          "type": "bytes4"
        }
      ],
      "name": "supportsInterface",
      "outputs": [
        {
          "internalType": "bool",
          "name": "",
          "type": "bool"
        }
      ],
      "stateMutability": "view",
      "type": "function"
    },
    {
      "inputs": [],
      "name": "symbol",
      "outputs": [
        {
          "internalType": "string",
          "name": "",
          "type": "string"
        }
      ],
      "stateMutability": "view",
      "type": "function"
    },
    {
      "inputs": [],
      "name": "totalSupply",
      "outputs": [
        {
          "internalType": "uint256",
          "name": "",
          "type": "uint256"
        }
      ],
      "stateMutability": "view",
      "type": "function"
    },
    {
      "inputs": [
        {
          "internalType": "address",
          "name": "to",
          "type": "address"
        },
        {
          "internalType": "uint256",
          "name": "value",
          "type": "uint256"
        }
      ],
      "name": "transfer",
      "outputs": [
        {
          "internalType": "bool",
          "name": "",
          "type": "bool"
        }
      ],
      "stateMutability": "nonpayable",
      "type": "function"
    },
    {
      "inputs": [
        {
          "internalType": "address",
          "name": "from",
          "type": "address"
        },
        {
          "internalType": "address",
          "name": "to",
          "type": "address"
        },
        {
          "internalType": "uint256",
          "name": "value",
          "type": "uint256"
        }
      ],
      "name": "transferFrom",
      "outputs": [
        {
          "internalType": "bool",
          "name": "",
          "type": "bool"
        }
      ],
      "stateMutability": "nonpayable",
      "type": "function"
    },
    {
      "inputs": [
        {
          "internalType": "uint256",
          "name": "_courseId",
          "type": "uint256"
        }
      ],
      "name": "unEnroll",
      "outputs": [
        {
          "internalType": "bool",
          "name": "",
          "type": "bool"
        }
      ],
      "stateMutability": "nonpayable",
      "type": "function"
    }
  ],
  "bytecode": "0x608060405234801561001057600080fd5b5060405161a1e938038061a1e98339818101604052810190610032919061063b565b80806040518060400160405280600a81526020017f4142594120544f4b454e000000000000000000000000000000000000000000008152506040518060400160405280600681526020017f414259544b4e000000000000000000000000000000000000000000000000000081525081600390816100af91906108a5565b5080600490816100bf91906108a5565b505050600481511015610107576040517f08c379a00000000000000000000000000000000000000000000000000000000081526004016100fe906109fa565b60405180910390fd5b61011a6000801b336102c060201b60201c565b5061014b7fdf1425bae297c2f52b4f15d18a50b1fc8cb5b981a981b1d213ed3ff92681b64d336102c060201b60201c565b5060005b815181101561029f576101a27fc10c77be35aff266144ed64c26a1fa104bae2f284ae99ac4a34203454704a18583838151811061018f5761018e610a1a565b5b60200260200101516102c060201b60201c565b5060068282815181106101b8576101b7610a1a565b5b60200260200101519080600181540180825580915050600190039060005260206000200160009091909190916101000a81548173ffffffffffffffffffffffffffffffffffffffff021916908373ffffffffffffffffffffffffffffffffffffffff16021790555060016008600084848151811061023957610238610a1a565b5b602002602001015173ffffffffffffffffffffffffffffffffffffffff1673ffffffffffffffffffffffffffffffffffffffff16815260200190815260200160002060006101000a81548160ff021916908315150217905550808060010191505061014f565b50506001600a819055506102b9600b6103be60201b60201c565b5050610a49565b60006102d283836103fd60201b60201c565b6103b35760016005600085815260200190815260200160002060000160008473ffffffffffffffffffffffffffffffffffffffff1673ffffffffffffffffffffffffffffffffffffffff16815260200190815260200160002060006101000a81548160ff02191690831515021790555061035061046860201b60201c565b73ffffffffffffffffffffffffffffffffffffffff168273ffffffffffffffffffffffffffffffffffffffff16847f2f8788117e7eff1d82e926ec794901d17c78024a50270940304540a733656f0d60405160405180910390a4600190506103b8565b600090505b92915050565b60018160000181905550600181600101819055506001816002018190555060018160030181905550600181600401819055506001816005018190555050565b60006005600084815260200190815260200160002060000160008373ffffffffffffffffffffffffffffffffffffffff1673ffffffffffffffffffffffffffffffffffffffff16815260200190815260200160002060009054906101000a900460ff16905092915050565b600033905090565b6000604051905090565b600080fd5b600080fd5b600080fd5b6000601f19601f8301169050919050565b7f4e487b7100000000000000000000000000000000000000000000000000000000600052604160045260246000fd5b6104d282610489565b810181811067ffffffffffffffff821117156104f1576104f061049a565b5b80604052505050565b6000610504610470565b905061051082826104c9565b919050565b600067ffffffffffffffff8211156105305761052f61049a565b5b602082029050602081019050919050565b600080fd5b600073ffffffffffffffffffffffffffffffffffffffff82169050919050565b600061057182610546565b9050919050565b61058181610566565b811461058c57600080fd5b50565b60008151905061059e81610578565b92915050565b60006105b76105b284610515565b6104fa565b905080838252602082019050602084028301858111156105da576105d9610541565b5b835b8181101561060357806105ef888261058f565b8452602084019350506020810190506105dc565b5050509392505050565b600082601f83011261062257610621610484565b5b81516106328482602086016105a4565b91505092915050565b6000602082840312156106515761065061047a565b5b600082015167ffffffffffffffff81111561066f5761066e61047f565b5b61067b8482850161060d565b91505092915050565b600081519050919050565b7f4e487b7100000000000000000000000000000000000000000000000000000000600052602260045260246000fd5b600060028204905060018216806106d657607f821691505b6020821081036106e9576106e861068f565b5b50919050565b60008190508160005260206000209050919050565b60006020601f8301049050919050565b600082821b905092915050565b6000600883026107517fffffffffffffffffffffffffffffffffffffffffffffffffffffffffffffffff82610714565b61075b8683610714565b95508019841693508086168417925050509392505050565b6000819050919050565b6000819050919050565b60006107a261079d61079884610773565b61077d565b610773565b9050919050565b6000819050919050565b6107bc83610787565b6107d06107c8826107a9565b848454610721565b825550505050565b600090565b6107e56107d8565b6107f08184846107b3565b505050565b5b81811015610814576108096000826107dd565b6001810190506107f6565b5050565b601f8211156108595761082a816106ef565b61083384610704565b81016020851015610842578190505b61085661084e85610704565b8301826107f5565b50505b505050565b600082821c905092915050565b600061087c6000198460080261085e565b1980831691505092915050565b6000610895838361086b565b9150826002028217905092915050565b6108ae82610684565b67ffffffffffffffff8111156108c7576108c661049a565b5b6108d182546106be565b6108dc828285610818565b600060209050601f83116001811461090f57600084156108fd578287015190505b6109078582610889565b86555061096f565b601f19841661091d866106ef565b60005b8281101561094557848901518255600182019150602085019450602081019050610920565b86831015610962578489015161095e601f89168261086b565b8355505b6001600288020188555050505b505050505050565b600082825260208201905092915050565b7f4174206c6561737420342072657669657765727320617265207265717569726560008201527f6400000000000000000000000000000000000000000000000000000000000000602082015250565b60006109e4602183610977565b91506109ef82610988565b604082019050919050565b60006020820190508181036000830152610a13816109d7565b9050919050565b7f4e487b7100000000000000000000000000000000000000000000000000000000600052603260045260246000fd5b61979180610a586000396000f3fe608060405234801561001057600080fd5b506004361061046a5760003560e01c8063752849981161024c578063bad0dd6511610146578063d547741f116100c3578063e503f10811610087578063e503f10814610f9c578063eb264b9c14610fba578063f57d585b14610fd8578063fdc6258a14611008578063ffabc673146110385761046a565b8063d547741f14610ee2578063d93f2caa14610efe578063dd62ed3e14610f1c578063ddfc79fb14610f4c578063ded5c18d14610f7e5761046a565b8063c7954e4c1161010a578063c7954e4c14610e2a578063c90c884d14610e48578063c9442dac14610e7a578063c976831514610e96578063d3751bfc14610ec65761046a565b8063bad0dd6514610d40578063bfd2f4c514610d5c578063c12804fb14610d90578063c293bbbe14610dca578063c491b04c14610dfa5761046a565b8063a1cd05b1116101d4578063a3f7e09611610198578063a3f7e09614610c62578063a9059cbb14610c92578063aa95da3a14610cc2578063ac678a9314610cf2578063ac957c6314610d225761046a565b8063a1cd05b114610b94578063a217fddf14610bc4578063a26a795314610be2578063a296ea5814610c12578063a3ef204114610c305761046a565b806388409afa1161021b57806388409afa14610ada5780638ea6e2fd14610b0c57806391d1485414610b2857806395d89b4114610b58578063a14ecbdf14610b765761046a565b80637528499814610a6657806375b9d86914610a825780637d83daf214610a9e578063846f815214610abc5761046a565b8063313ce5671161036857806352994e2f116102e557806366055159116102a957806366055159146109a95780636b000fa7146109c75780636fdb67f7146109e557806370a0823114610a1a57806373a82b5f14610a4a5761046a565b806352994e2f1461090557806358a3fa2514610923578063599c55331461093f5780635d33d4521461095d578063632c224b146109795761046a565b80633693dcfa1161032c5780633693dcfa146108315780633b129a561461084f57806340932bf81461086d5780634d42ef48146108a257806351d93c81146108d45761046a565b8063313ce5671461077857806331b1b9781461079657806332cb6b0c146107c757806334ed4bdb146107e557806336568abe146108155761046a565b806323b872dd116103f65780632990db7c116103ba5780632990db7c146106a557806329a0be65146106da5780632aac61ae146106f85780632f2ff15d1461072c5780632fab55af146107485761046a565b806323b872dd146105d7578063248a9ca314610607578063274202f01461063757806327ff622314610655578063295b825a146106735761046a565b8063095ea7b31161043d578063095ea7b3146104f957806311ce15df1461052957806318160ddd1461055957806319f102ec1461057757806320bd0316146105a75761046a565b806301ffc9a71461046f57806304e48bd11461049f578063057f46bb146104bd57806306fdde03146104db575b600080fd5b61048960048036038101906104849190616abb565b611068565b6040516104969190616b03565b60405180910390f35b6104a76110e2565b6040516104b49190616d69565b60405180910390f35b6104c56113e4565b6040516104d29190616d9a565b60405180910390f35b6104e36113ea565b6040516104f09190616dff565b60405180910390f35b610513600480360381019061050e9190616e79565b61147c565b6040516105209190616b03565b60405180910390f35b610543600480360381019061053e9190616eb9565b61149f565b6040516105509190616b03565b60405180910390f35b6105616114bf565b60405161056e9190616d9a565b60405180910390f35b610591600480360381019061058c9190616eb9565b6114c9565b60405161059e9190616ef5565b60405180910390f35b6105c160048036038101906105bc9190616eb9565b611508565b6040516105ce9190616b03565b60405180910390f35b6105f160048036038101906105ec9190616f10565b61167f565b6040516105fe9190616b03565b60405180910390f35b610621600480360381019061061c9190616f99565b6116ae565b60405161062e9190616fd5565b60405180910390f35b61063f6116ce565b60405161064c9190616d9a565b60405180910390f35b61065d6116f6565b60405161066a9190616d9a565b60405180910390f35b61068d60048036038101906106889190616eb9565b6116fb565b60405161069c93929190616ff0565b60405180910390f35b6106bf60048036038101906106ba9190616eb9565b6117ca565b6040516106d19695949392919061702e565b60405180910390f35b6106e2611943565b6040516106ef9190616d9a565b60405180910390f35b610712600480360381019061070d9190616eb9565b611949565b60405161072395949392919061709d565b60405180910390f35b610746600480360381019061074191906170fe565b611aac565b005b610762600480360381019061075d9190617359565b611ace565b60405161076f9190616b03565b60405180910390f35b610780611d64565b60405161078d91906173d1565b60405180910390f35b6107b060048036038101906107ab9190616eb9565b611d6d565b6040516107be9291906173ec565b60405180910390f35b6107cf611e19565b6040516107dc9190616d9a565b60405180910390f35b6107ff60048036038101906107fa919061741c565b611e29565b60405161080c9190616d9a565b60405180910390f35b61082f600480360381019061082a91906170fe565b611e47565b005b610839611ec2565b6040516108469190616fd5565b60405180910390f35b610857611ee6565b6040516108649190616fd5565b60405180910390f35b61088760048036038101906108829190616eb9565b611f0a565b6040516108999695949392919061749e565b60405180910390f35b6108bc60048036038101906108b79190617506565b61201b565b6040516108cb93929190616ff0565b60405180910390f35b6108ee60048036038101906108e99190616eb9565b6120f7565b6040516108fc9291906173ec565b60405180910390f35b61090d6121b3565b60405161091a9190616fd5565b60405180910390f35b61093d60048036038101906109389190617546565b6121d7565b005b61094761249d565b6040516109549190616d9a565b60405180910390f35b61097760048036038101906109729190617695565b6124a2565b005b610993600480360381019061098e91906176f5565b612868565b6040516109a09190616d9a565b60405180910390f35b6109b1612a19565b6040516109be9190616d9a565b60405180910390f35b6109cf612a1f565b6040516109dc9190616d9a565b60405180910390f35b6109ff60048036038101906109fa9190616eb9565b612a25565b604051610a119695949392919061702e565b60405180910390f35b610a346004803603810190610a2f919061741c565b612bae565b604051610a419190616d9a565b60405180910390f35b610a646004803603810190610a5f919061741c565b612bf6565b005b610a806004803603810190610a7b9190616eb9565b612dda565b005b610a9c6004803603810190610a979190617751565b612ff4565b005b610aa66131ef565b604051610ab39190616d9a565b60405180910390f35b610ac46131f5565b604051610ad19190616d9a565b60405180910390f35b610af46004803603810190610aef9190616eb9565b613201565b604051610b0393929190616ff0565b60405180910390f35b610b266004803603810190610b219190616eb9565b6132c0565b005b610b426004803603810190610b3d91906170fe565b61362a565b604051610b4f9190616b03565b60405180910390f35b610b60613695565b604051610b6d9190616dff565b60405180910390f35b610b7e613727565b604051610b8b9190616d9a565b60405180910390f35b610bae6004803603810190610ba99190617506565b61372d565b604051610bbb9190616ef5565b60405180910390f35b610bcc61377b565b604051610bd99190616fd5565b60405180910390f35b610bfc6004803603810190610bf791906177dc565b613782565b604051610c099190616b03565b60405180910390f35b610c1a613b59565b604051610c279190617ac1565b60405180910390f35b610c4a6004803603810190610c459190616eb9565b613f7e565b604051610c5993929190616ff0565b60405180910390f35b610c7c6004803603810190610c779190616eb9565b61403d565b604051610c899190617d65565b60405180910390f35b610cac6004803603810190610ca79190616e79565b614381565b604051610cb99190616b03565b60405180910390f35b610cdc6004803603810190610cd79190617506565b6143a4565b604051610ce99190616dff565b60405180910390f35b610d0c6004803603810190610d079190616eb9565b61445c565b604051610d199190617e99565b60405180910390f35b610d2a614585565b604051610d379190616d9a565b60405180910390f35b610d5a6004803603810190610d559190616eb9565b61458a565b005b610d766004803603810190610d719190616eb9565b614889565b604051610d8795949392919061709d565b60405180910390f35b610daa6004803603810190610da59190617ebb565b6149dc565b604051610dc19b9a99989796959493929190617efb565b60405180910390f35b610de46004803603810190610ddf9190616eb9565b614a50565b604051610df19190618055565b60405180910390f35b610e146004803603810190610e0f919061741c565b614af1565b604051610e219190616b03565b60405180910390f35b610e32614b11565b604051610e3f9190616d9a565b60405180910390f35b610e626004803603810190610e5d9190616eb9565b614b1b565b604051610e7193929190616ff0565b60405180910390f35b610e946004803603810190610e8f919061741c565b614bea565b005b610eb06004803603810190610eab9190617ebb565b614ed4565b604051610ebd9190616b03565b60405180910390f35b610ee06004803603810190610edb91906180a3565b614f03565b005b610efc6004803603810190610ef791906170fe565b61531e565b005b610f06615340565b604051610f139190616d9a565b60405180910390f35b610f366004803603810190610f319190618142565b61534c565b604051610f439190616d9a565b60405180910390f35b610f666004803603810190610f619190616eb9565b6153d3565b604051610f7593929190618182565b60405180910390f35b610f866155a5565b604051610f939190616d9a565b60405180910390f35b610fa46155b2565b604051610fb19190616d9a565b60405180910390f35b610fc26155b8565b604051610fcf9190616d9a565b60405180910390f35b610ff26004803603810190610fed9190616eb9565b6155be565b604051610fff9190616b03565b60405180910390f35b611022600480360381019061101d919061741c565b61579a565b60405161102f9190616b03565b60405180910390f35b611052600480360381019061104d9190616e79565b6157cd565b60405161105f9190616b03565b60405180910390f35b60007f7965db0b000000000000000000000000000000000000000000000000000000007bffffffffffffffffffffffffffffffffffffffffffffffffffffffff1916827bffffffffffffffffffffffffffffffffffffffffffffffffffffffff191614806110db57506110da826157fc565b5b9050919050565b6060600060268054905067ffffffffffffffff81111561110557611104617143565b5b60405190808252806020026020018201604052801561113e57816020015b61112b61663d565b8152602001906001900390816111235790505b50905060005b6026805490508110156113dc576040518060c00160405280602683815481106111705761116f6181ce565b5b90600052602060002090600602016000015481526020016026838154811061119b5761119a6181ce565b5b906000526020600020906006020160010180546111b79061822c565b80601f01602080910402602001604051908101604052809291908181526020018280546111e39061822c565b80156112305780601f1061120557610100808354040283529160200191611230565b820191906000526020600020905b81548152906001019060200180831161121357829003601f168201915b505050505081526020016026838154811061124e5761124d6181ce565b5b9060005260206000209060060201600201805461126a9061822c565b80601f01602080910402602001604051908101604052809291908181526020018280546112969061822c565b80156112e35780601f106112b8576101008083540402835291602001916112e3565b820191906000526020600020905b8154815290600101906020018083116112c657829003601f168201915b5050505050815260200160268381548110611301576113006181ce565b5b906000526020600020906006020160030160009054906101000a900460ff16151581526020016026838154811061133b5761133a6181ce565b5b906000526020600020906006020160040154815260200160268381548110611366576113656181ce565b5b906000526020600020906006020160050160009054906101000a900473ffffffffffffffffffffffffffffffffffffffff1673ffffffffffffffffffffffffffffffffffffffff168152508282815181106113c4576113c36181ce565b5b60200260200101819052508080600101915050611144565b508091505090565b60145481565b6060600380546113f99061822c565b80601f01602080910402602001604051908101604052809291908181526020018280546114259061822c565b80156114725780601f1061144757610100808354040283529160200191611472565b820191906000526020600020905b81548152906001019060200180831161145557829003601f168201915b5050505050905090565b600080611487615866565b905061149481858561586e565b600191505092915050565b60246020528060005260406000206000915054906101000a900460ff1681565b6000600254905090565b600681815481106114d957600080fd5b906000526020600020016000915054906101000a900473ffffffffffffffffffffffffffffffffffffffff1681565b6000611512615880565b6025600083815260200190815260200160002060003373ffffffffffffffffffffffffffffffffffffffff1673ffffffffffffffffffffffffffffffffffffffff16815260200190815260200160002060009054906101000a900460ff166115af576040517f08c379a00000000000000000000000000000000000000000000000000000000081526004016115a6906182cf565b60405180910390fd5b60006025600084815260200190815260200160002060003373ffffffffffffffffffffffffffffffffffffffff1673ffffffffffffffffffffffffffffffffffffffff16815260200190815260200160002060006101000a81548160ff02191690831515021790555061162a33671bc16d674ec800006158c6565b3373ffffffffffffffffffffffffffffffffffffffff16827f9b244c565b926d7f4e915b69f3a5c6afc2231322d0d44e821076ad8879d0d68360405160405180910390a36001905061167a6158ed565b919050565b60008061168a615866565b90506116978582856158f7565b6116a285858561598b565b60019150509392505050565b600060056000838152602001908152602001600020600101549050919050565b6064600f6b204fce5e3e250261100000006116e9919061831e565b6116f3919061838f565b81565b606481565b602a818154811061170b57600080fd5b90600052602060002090600402016000915090508060000154908060010180546117349061822c565b80601f01602080910402602001604051908101604052809291908181526020018280546117609061822c565b80156117ad5780601f10611782576101008083540402835291602001916117ad565b820191906000526020600020905b81548152906001019060200180831161179057829003601f168201915b5050505050908060030160009054906101000a900460ff16905083565b60196020528060005260406000206000915090508060000154908060010180546117f39061822c565b80601f016020809104026020016040519081016040528092919081815260200182805461181f9061822c565b801561186c5780601f106118415761010080835404028352916020019161186c565b820191906000526020600020905b81548152906001019060200180831161184f57829003601f168201915b5050505050908060020180546118819061822c565b80601f01602080910402602001604051908101604052809291908181526020018280546118ad9061822c565b80156118fa5780601f106118cf576101008083540402835291602001916118fa565b820191906000526020600020905b8154815290600101906020018083116118dd57829003601f168201915b5050505050908060030160009054906101000a900460ff16908060040154908060050160009054906101000a900473ffffffffffffffffffffffffffffffffffffffff16905086565b60155481565b6028818154811061195957600080fd5b90600052602060002090602302016000915090508060000154908060010180546119829061822c565b80601f01602080910402602001604051908101604052809291908181526020018280546119ae9061822c565b80156119fb5780601f106119d0576101008083540402835291602001916119fb565b820191906000526020600020905b8154815290600101906020018083116119de57829003601f168201915b505050505090806002018054611a109061822c565b80601f0160208091040260200160405190810160405280929190818152602001828054611a3c9061822c565b8015611a895780601f10611a5e57610100808354040283529160200191611a89565b820191906000526020600020905b815481529060010190602001808311611a6c57829003601f168201915b5050505050908060210154908060220160009054906101000a900460ff16905085565b611ab5826116ae565b611abe81615a7f565b611ac88383615a93565b50505050565b60008073ffffffffffffffffffffffffffffffffffffffff166019600085815260200190815260200160002060050160009054906101000a900473ffffffffffffffffffffffffffffffffffffffff1673ffffffffffffffffffffffffffffffffffffffff1603611b74576040517f08c379a0000000000000000000000000000000000000000000000000000000008152600401611b6b9061840c565b60405180910390fd5b60005b8251811015611d2a57600060405180606001604052806014548152602001858481518110611ba857611ba76181ce565b5b602002602001015181526020016001151581525090506027819080600181540180825580915050600190039060005260206000209060030201600090919091909150600082015181600001556020820151816001019081611c0991906185d8565b5060408201518160020160006101000a81548160ff021916908315150217905550505080601d60006014548152602001908152602001600020600082015181600001556020820151816001019081611c6191906185d8565b5060408201518160020160006101000a81548160ff021916908315150217905550905050601e6000868152602001908152602001600020819080600181540180825580915050600190039060005260206000209060030201600090919091909150600082015181600001556020820151816001019081611ce191906185d8565b5060408201518160020160006101000a81548160ff021916908315150217905550505060146000815480929190611d17906186aa565b9190505550508080600101915050611b77565b508151837f1eb97e969f52c132bb6c79817d1f9001078fff0cd328ce625628e1fb4cc0e7de60405160405180910390a36001905092915050565b60006012905090565b6022602052806000526040600020600091509050806000015490806001018054611d969061822c565b80601f0160208091040260200160405190810160405280929190818152602001828054611dc29061822c565b8015611e0f5780601f10611de457610100808354040283529160200191611e0f565b820191906000526020600020905b815481529060010190602001808311611df257829003601f168201915b5050505050905082565b6b204fce5e3e2502611000000081565b601b6020528060005260406000206000915090508060000154905081565b611e4f615866565b73ffffffffffffffffffffffffffffffffffffffff168173ffffffffffffffffffffffffffffffffffffffff1614611eb3576040517f6697b23200000000000000000000000000000000000000000000000000000000815260040160405180910390fd5b611ebd8282615b85565b505050565b7fadb22091b155738d2e889eb96f509d2a7c93234236b30400927feb4a6a15ab0081565b7fc10c77be35aff266144ed64c26a1fa104bae2f284ae99ac4a34203454704a18581565b60096020528060005260406000206000915090508060000154908060010160009054906101000a900473ffffffffffffffffffffffffffffffffffffffff16908060020160009054906101000a900473ffffffffffffffffffffffffffffffffffffffff1690806003018054611f7f9061822c565b80601f0160208091040260200160405190810160405280929190818152602001828054611fab9061822c565b8015611ff85780601f10611fcd57610100808354040283529160200191611ff8565b820191906000526020600020905b815481529060010190602001808311611fdb57829003601f168201915b5050505050908060040154908060050160009054906101000a900460ff16905086565b601e602052816000526040600020818154811061203757600080fd5b9060005260206000209060030201600091509150508060000154908060010180546120619061822c565b80601f016020809104026020016040519081016040528092919081815260200182805461208d9061822c565b80156120da5780601f106120af576101008083540402835291602001916120da565b820191906000526020600020905b8154815290600101906020018083116120bd57829003601f168201915b5050505050908060020160009054906101000a900460ff16905083565b602b818154811061210757600080fd5b90600052602060002090600302016000915090508060000154908060010180546121309061822c565b80601f016020809104026020016040519081016040528092919081815260200182805461215c9061822c565b80156121a95780601f1061217e576101008083540402835291602001916121a9565b820191906000526020600020905b81548152906001019060200180831161218c57829003601f168201915b5050505050905082565b7fdf1425bae297c2f52b4f15d18a50b1fc8cb5b981a981b1d213ed3ff92681b64d81565b7fc10c77be35aff266144ed64c26a1fa104bae2f284ae99ac4a34203454704a18561220181615a7f565b61220b8c33615c78565b61224a576040517f08c379a000000000000000000000000000000000000000000000000000000000815260040161224190618764565b60405180910390fd5b601a60008d815260200190815260200160002060003373ffffffffffffffffffffffffffffffffffffffff1673ffffffffffffffffffffffffffffffffffffffff168152602001908152602001600020600a0160009054906101000a900460ff16156122eb576040517f08c379a00000000000000000000000000000000000000000000000000000000081526004016122e2906187f6565b60405180910390fd5b6122fd8b8b8b8b8b8b8b8b8b8b615d43565b6040518061016001604052808c81526020018b81526020018a815260200189815260200188815260200187815260200186815260200185815260200184815260200183815260200160011515815250601a60008e815260200190815260200160002060003373ffffffffffffffffffffffffffffffffffffffff1673ffffffffffffffffffffffffffffffffffffffff168152602001908152602001600020600082015181600001556020820151816001015560408201518160020155606082015181600301556080820151816004015560a0820151816005015560c0820151816006015560e082015181600701556101008201518160080155610120820151816009015561014082015181600a0160006101000a81548160ff0219169083151502179055509050506050612480601a60008f815260200190815260200160002060003373ffffffffffffffffffffffffffffffffffffffff1673ffffffffffffffffffffffffffffffffffffffff168152602001908152602001600020615e08565b1061248f5761248e8c612dda565b5b505050505050505050505050565b600281565b6000601f600085815260200190815260200160002090506000816000015403612500576040517f08c379a00000000000000000000000000000000000000000000000000000000081526004016124f790618862565b60405180910390fd5b600081602101549050600a848490508261251a9190618882565b111561255b576040517f08c379a000000000000000000000000000000000000000000000000000000000815260040161255290618902565b60405180910390fd5b60005b84849050811015612760576040518060600160405280868684818110612587576125866181ce565b5b90506020028101906125999190618931565b80600001906125a89190618959565b8080601f016020809104026020016040519081016040528093929190818152602001838380828437600081840152601f19601f820116905080830192505050505050508152602001868684818110612603576126026181ce565b5b90506020028101906126159190618931565b80602001906126249190618959565b8080601f016020809104026020016040519081016040528093929190818152602001838380828437600081840152601f19601f82011690508083019250505050505050815260200186868481811061267f5761267e6181ce565b5b90506020028101906126919190618931565b80604001906126a09190618959565b8080601f016020809104026020016040519081016040528093929190818152602001838380828437600081840152601f19601f820116905080830192505050505050508152508360030183600a81106126fc576126fb6181ce565b5b60030201600082015181600001908161271591906185d8565b50602082015181600101908161272b91906185d8565b50604082015181600201908161274191906185d8565b509050508180612750906186aa565b925050808060010191505061255e565b5080826021018190555060005b60288054905081101561286057856028828154811061278f5761278e6181ce565b5b906000526020600020906023020160000154036128535782602882815481106127bb576127ba6181ce565b5b906000526020600020906023020160008201548160000155600182018160010190816127e791906189d2565b50600282018160020190816127fc91906189d2565b50600382018160030190600a61281392919061668b565b50602182015481602101556022820160009054906101000a900460ff168160220160006101000a81548160ff021916908315150217905550905050612860565b808060010191505061276d565b505050505050565b6000806016549050601f600085815260200190815260200160002060220160009054906101000a900460ff166128d3576040517f08c379a00000000000000000000000000000000000000000000000000000000081526004016128ca90618b06565b60405180910390fd5b60006021600083815260200190815260200160002090508181600001819055508381600101908161290491906185d8565b5060018160030160006101000a81548160ff02191690831515021790555060166000815480929190612935906186aa565b9190505550602a819080600181540180825580915050600190039060005260206000209060040201600090919091909150600082015481600001556001820181600101908161298491906189d2565b50600282018160020190805461299b92919061670d565b506003820160009054906101000a900460ff168160030160006101000a81548160ff0219169083151502179055505050836040516129d99190618b62565b6040518091039020827fbf27702cefbc4aea50d7c73cfee96f84f5b908f62aeafcd8b0aeae202c15050960405160405180910390a3819250505092915050565b60125481565b60185481565b60268181548110612a3557600080fd5b9060005260206000209060060201600091509050806000015490806001018054612a5e9061822c565b80601f0160208091040260200160405190810160405280929190818152602001828054612a8a9061822c565b8015612ad75780601f10612aac57610100808354040283529160200191612ad7565b820191906000526020600020905b815481529060010190602001808311612aba57829003601f168201915b505050505090806002018054612aec9061822c565b80601f0160208091040260200160405190810160405280929190818152602001828054612b189061822c565b8015612b655780601f10612b3a57610100808354040283529160200191612b65565b820191906000526020600020905b815481529060010190602001808311612b4857829003601f168201915b5050505050908060030160009054906101000a900460ff16908060040154908060050160009054906101000a900473ffffffffffffffffffffffffffffffffffffffff16905086565b60008060008373ffffffffffffffffffffffffffffffffffffffff1673ffffffffffffffffffffffffffffffffffffffff168152602001908152602001600020549050919050565b7fc10c77be35aff266144ed64c26a1fa104bae2f284ae99ac4a34203454704a185612c2081615a7f565b600860008373ffffffffffffffffffffffffffffffffffffffff1673ffffffffffffffffffffffffffffffffffffffff16815260200190815260200160002060009054906101000a900460ff1615612cad576040517f08c379a0000000000000000000000000000000000000000000000000000000008152600401612ca490618bc5565b60405180910390fd5b612cd77fc10c77be35aff266144ed64c26a1fa104bae2f284ae99ac4a34203454704a18583615a93565b506006829080600181540180825580915050600190039060005260206000200160009091909190916101000a81548173ffffffffffffffffffffffffffffffffffffffff021916908373ffffffffffffffffffffffffffffffffffffffff1602179055506001600860008473ffffffffffffffffffffffffffffffffffffffff1673ffffffffffffffffffffffffffffffffffffffff16815260200190815260200160002060006101000a81548160ff0219169083151502179055508173ffffffffffffffffffffffffffffffffffffffff167fe1cb5e1230cc02e62c60b81c1aa5ade512f3eac296edb28628b4cf344f47f93160405160405180910390a25050565b7fc10c77be35aff266144ed64c26a1fa104bae2f284ae99ac4a34203454704a185612e0481615a7f565b60006019600084815260200190815260200160002090508060030160009054906101000a900460ff1615612e6d576040517f08c379a0000000000000000000000000000000000000000000000000000000008152600401612e6490618c31565b60405180910390fd5b601c60003373ffffffffffffffffffffffffffffffffffffffff1673ffffffffffffffffffffffffffffffffffffffff168152602001908152602001600020600084815260200190815260200160002060009054906101000a900460ff1615612f0b576040517f08c379a0000000000000000000000000000000000000000000000000000000008152600401612f0290618cc3565b60405180910390fd5b6001601c60003373ffffffffffffffffffffffffffffffffffffffff1673ffffffffffffffffffffffffffffffffffffffff168152602001908152602001600020600085815260200190815260200160002060006101000a81548160ff021916908315150217905550806004016000815480929190612f89906186aa565b91905055506002816004015410612fef5760018160030160006101000a81548160ff021916908315150217905550612fed8160050160009054906101000a900473ffffffffffffffffffffffffffffffffffffffff16674563918244f40000615e9d565b505b505050565b60006015549050601d600085815260200190815260200160002060020160009054906101000a900460ff1661305e576040517f08c379a000000000000000000000000000000000000000000000000000000000815260040161305590618d2f565b60405180910390fd5b6000601f600083815260200190815260200160002090508181600001819055508381600101908161308f91906185d8565b50828160020190816130a191906185d8565b5060018160220160006101000a81548160ff021916908315150217905550600081602101819055506028601f60008481526020019081526020016000209080600181540180825580915050600190039060005260206000209060230201600090919091909150600082015481600001556001820181600101908161312591906189d2565b506002820181600201908161313a91906189d2565b50600382018160030190600a61315192919061668b565b50602182015481602101556022820160009054906101000a900460ff168160220160006101000a81548160ff02191690831515021790555050506015600081548092919061319e906186aa565b9190505550600a846040516131b39190618b62565b6040518091039020837f3387c3a40ec1df95e34d25a0e5564b40d01c331b71ccbafccccc66d36c84ad8360405160405180910390a45050505050565b60135481565b671bc16d674ec8000081565b602160205280600052604060002060009150905080600001549080600101805461322a9061822c565b80601f01602080910402602001604051908101604052809291908181526020018280546132569061822c565b80156132a35780601f10613278576101008083540402835291602001916132a3565b820191906000526020600020905b81548152906001019060200180831161328657829003601f168201915b5050505050908060030160009054906101000a900460ff16905083565b7fc10c77be35aff266144ed64c26a1fa104bae2f284ae99ac4a34203454704a1856132ea81615a7f565b6024600083815260200190815260200160002060009054906101000a900460ff161561334b576040517f08c379a000000000000000000000000000000000000000000000000000000000815260040161334290618d9b565b60405180910390fd5b60036006805490501015613394576040517f08c379a000000000000000000000000000000000000000000000000000000000815260040161338b90618e07565b60405180910390fd5b6023600083815260200190815260200160002060006133b3919061679b565b60005b60038110156135905760006006805490504244600680549050856040516020016133e39493929190618e48565b6040516020818303038152906040528051906020012060001c6134069190618e96565b905060006006828154811061341e5761341d6181ce565b5b9060005260206000200160009054906101000a900473ffffffffffffffffffffffffffffffffffffffff1690506000805b6023600088815260200190815260200160002080549050811015613505578273ffffffffffffffffffffffffffffffffffffffff166023600089815260200190815260200160002082815481106134a9576134a86181ce565b5b9060005260206000200160009054906101000a900473ffffffffffffffffffffffffffffffffffffffff1673ffffffffffffffffffffffffffffffffffffffff16036134f85760019150613505565b808060010191505061344f565b50806135805760236000878152602001908152602001600020829080600181540180825580915050600190039060005260206000200160009091909190916101000a81548173ffffffffffffffffffffffffffffffffffffffff021916908373ffffffffffffffffffffffffffffffffffffffff1602179055505b50505080806001019150506133b6565b5060036023600084815260200190815260200160002080549050036135dc5760016024600084815260200190815260200160002060006101000a81548160ff0219169083151502179055505b817fe205dff861c570b8df17e26f893778853f94bb25d2de318755e48eab0b403ff76023600085815260200190815260200160002060405161361e9190618fb3565b60405180910390a25050565b60006005600084815260200190815260200160002060000160008373ffffffffffffffffffffffffffffffffffffffff1673ffffffffffffffffffffffffffffffffffffffff16815260200190815260200160002060009054906101000a900460ff16905092915050565b6060600480546136a49061822c565b80601f01602080910402602001604051908101604052809291908181526020018280546136d09061822c565b801561371d5780601f106136f25761010080835404028352916020019161371d565b820191906000526020600020905b81548152906001019060200180831161370057829003601f168201915b5050505050905090565b60115481565b6023602052816000526040600020818154811061374957600080fd5b906000526020600020016000915091509054906101000a900473ffffffffffffffffffffffffffffffffffffffff1681565b6000801b81565b60008073ffffffffffffffffffffffffffffffffffffffff1660196000601354815260200190815260200160002060050160009054906101000a900473ffffffffffffffffffffffffffffffffffffffff1673ffffffffffffffffffffffffffffffffffffffff161461382a576040517f08c379a000000000000000000000000000000000000000000000000000000000815260040161382190619021565b60405180910390fd5b60006040518060c001604052806013548152602001858152602001848152602001600015158152602001600081526020013373ffffffffffffffffffffffffffffffffffffffff168152509050806019600060135481526020019081526020016000206000820151816000015560208201518160010190816138ac91906185d8565b5060408201518160020190816138c291906185d8565b5060608201518160030160006101000a81548160ff0219169083151502179055506080820151816004015560a08201518160050160006101000a81548173ffffffffffffffffffffffffffffffffffffffff021916908373ffffffffffffffffffffffffffffffffffffffff160217905550905050602681908060018154018082558091505060019003906000526020600020906006020160009091909190915060008201518160000155602082015181600101908161398291906185d8565b50604082015181600201908161399891906185d8565b5060608201518160030160006101000a81548160ff0219169083151502179055506080820151816004015560a08201518160050160006101000a81548173ffffffffffffffffffffffffffffffffffffffff021916908373ffffffffffffffffffffffffffffffffffffffff160217905550505060126000815480929190613a1f906186aa565b91905055506001601b60003373ffffffffffffffffffffffffffffffffffffffff1673ffffffffffffffffffffffffffffffffffffffff1681526020019081526020016000206000016000828254613a779190618882565b9250508190555060136000815480929190613a91906186aa565b9190505550613ac07fadb22091b155738d2e889eb96f509d2a7c93234236b30400927feb4a6a15ab0033615a93565b5083604051613acf9190618b62565b60405180910390206001601354613ae69190619041565b7f9c93a42b217373d37e6c66ace0a67fe1fa1f78c93164b62417de69c48c0f67e2601960006001601354613b1a9190619041565b815260200190815260200160002060030160009054906101000a900460ff16604051613b469190616b03565b60405180910390a3600191505092915050565b60606000602880549050905060008167ffffffffffffffff811115613b8157613b80617143565b5b604051908082528060200260200182016040528015613bba57816020015b613ba76167bc565b815260200190600190039081613b9f5790505b50905060005b82811015613f755760288181548110613bdc57613bdb6181ce565b5b90600052602060002090602302016040518060c001604052908160008201548152602001600182018054613c0f9061822c565b80601f0160208091040260200160405190810160405280929190818152602001828054613c3b9061822c565b8015613c885780601f10613c5d57610100808354040283529160200191613c88565b820191906000526020600020905b815481529060010190602001808311613c6b57829003601f168201915b50505050508152602001600282018054613ca19061822c565b80601f0160208091040260200160405190810160405280929190818152602001828054613ccd9061822c565b8015613d1a5780601f10613cef57610100808354040283529160200191613d1a565b820191906000526020600020905b815481529060010190602001808311613cfd57829003601f168201915b5050505050815260200160038201600a80602002604051908101604052809291906000905b82821015613f1d57838260030201604051806060016040529081600082018054613d689061822c565b80601f0160208091040260200160405190810160405280929190818152602001828054613d949061822c565b8015613de15780601f10613db657610100808354040283529160200191613de1565b820191906000526020600020905b815481529060010190602001808311613dc457829003601f168201915b50505050508152602001600182018054613dfa9061822c565b80601f0160208091040260200160405190810160405280929190818152602001828054613e269061822c565b8015613e735780601f10613e4857610100808354040283529160200191613e73565b820191906000526020600020905b815481529060010190602001808311613e5657829003601f168201915b50505050508152602001600282018054613e8c9061822c565b80601f0160208091040260200160405190810160405280929190818152602001828054613eb89061822c565b8015613f055780601f10613eda57610100808354040283529160200191613f05565b820191906000526020600020905b815481529060010190602001808311613ee857829003601f168201915b50505050508152505081526020019060010190613d3f565b505050508152602001602182015481526020016022820160009054906101000a900460ff161515151581525050828281518110613f5d57613f5c6181ce565b5b60200260200101819052508080600101915050613bc0565b50809250505090565b601d602052806000526040600020600091509050806000015490806001018054613fa79061822c565b80601f0160208091040260200160405190810160405280929190818152602001828054613fd39061822c565b80156140205780601f10613ff557610100808354040283529160200191614020565b820191906000526020600020905b81548152906001019060200180831161400357829003601f168201915b5050505050908060020160009054906101000a900460ff16905083565b6140456167fa565b600060216000848152602001908152602001600020600001540361409e576040517f08c379a0000000000000000000000000000000000000000000000000000000008152600401614095906190c1565b60405180910390fd5b60216000838152602001908152602001600020604051806080016040529081600082015481526020016001820180546140d69061822c565b80601f01602080910402602001604051908101604052809291908181526020018280546141029061822c565b801561414f5780601f106141245761010080835404028352916020019161414f565b820191906000526020600020905b81548152906001019060200180831161413257829003601f168201915b5050505050815260200160028201805480602002602001604051908101604052809291908181526020016000905b828210156143575783829060005260206000209060030201604051806060016040529081600082015481526020016001820180546141ba9061822c565b80601f01602080910402602001604051908101604052809291908181526020018280546141e69061822c565b80156142335780601f1061420857610100808354040283529160200191614233565b820191906000526020600020905b81548152906001019060200180831161421657829003601f168201915b5050505050815260200160028201805480602002602001604051908101604052809291908181526020016000905b8282101561434057838290600052602060002090600202016040518060400160405290816000820180546142949061822c565b80601f01602080910402602001604051908101604052809291908181526020018280546142c09061822c565b801561430d5780601f106142e25761010080835404028352916020019161430d565b820191906000526020600020905b8154815290600101906020018083116142f057829003601f168201915b505050505081526020016001820160009054906101000a900460ff16151515158152505081526020019060010190614261565b50505050815250508152602001906001019061417d565b5050505081526020016003820160009054906101000a900460ff1615151515815250509050919050565b60008061438c615866565b905061439981858561598b565b600191505092915050565b6020805281600052604060002081815481106143bf57600080fd5b906000526020600020016000915091505080546143db9061822c565b80601f01602080910402602001604051908101604052809291908181526020018280546144079061822c565b80156144545780601f1061442957610100808354040283529160200191614454565b820191906000526020600020905b81548152906001019060200180831161443757829003601f168201915b505050505081565b6060601e6000838152602001908152602001600020805480602002602001604051908101604052809291908181526020016000905b8282101561457a5783829060005260206000209060030201604051806060016040529081600082015481526020016001820180546144ce9061822c565b80601f01602080910402602001604051908101604052809291908181526020018280546144fa9061822c565b80156145475780601f1061451c57610100808354040283529160200191614547565b820191906000526020600020905b81548152906001019060200180831161452a57829003601f168201915b505050505081526020016002820160009054906101000a900460ff16151515158152505081526020019060010190614491565b505050509050919050565b605081565b7fdf1425bae297c2f52b4f15d18a50b1fc8cb5b981a981b1d213ed3ff92681b64d6145b481615a7f565b60006009600084815260200190815260200160002090508060050160009054906101000a900460ff161561461d576040517f08c379a00000000000000000000000000000000000000000000000000000000081526004016146149061912d565b60405180910390fd5b8060060160003373ffffffffffffffffffffffffffffffffffffffff1673ffffffffffffffffffffffffffffffffffffffff16815260200190815260200160002060009054906101000a900460ff16156146ac576040517f08c379a00000000000000000000000000000000000000000000000000000000081526004016146a390619199565b60405180910390fd5b60018160060160003373ffffffffffffffffffffffffffffffffffffffff1673ffffffffffffffffffffffffffffffffffffffff16815260200190815260200160002060006101000a81548160ff02191690831515021790555080600401600081548092919061471b906186aa565b9190505550827f5d4ccf5f92566d140246f4ae3b9cb35dc06fff109a7748602ad77f6260fd9a61336040516147509190616ef5565b60405180910390a260038160040154106148845760008160020160009054906101000a900473ffffffffffffffffffffffffffffffffffffffff1673ffffffffffffffffffffffffffffffffffffffff16826003016040516147b2919061925c565b6000604051808303816000865af19150503d80600081146147ef576040519150601f19603f3d011682016040523d82523d6000602084013e6147f4565b606091505b5050905080614838576040517f08c379a000000000000000000000000000000000000000000000000000000000815260040161482f906192bf565b60405180910390fd5b60018260050160006101000a81548160ff021916908315150217905550837f7770356c29230b95943aec59d47ead11eb426a728bf5b57f7fd8597f3c0e29ba60405160405180910390a2505b505050565b601f6020528060005260406000206000915090508060000154908060010180546148b29061822c565b80601f01602080910402602001604051908101604052809291908181526020018280546148de9061822c565b801561492b5780601f106149005761010080835404028352916020019161492b565b820191906000526020600020905b81548152906001019060200180831161490e57829003601f168201915b5050505050908060020180546149409061822c565b80601f016020809104026020016040519081016040528092919081815260200182805461496c9061822c565b80156149b95780601f1061498e576101008083540402835291602001916149b9565b820191906000526020600020905b81548152906001019060200180831161499c57829003601f168201915b5050505050908060210154908060220160009054906101000a900460ff16905085565b601a6020528160005260406000206020528060005260406000206000915091505080600001549080600101549080600201549080600301549080600401549080600501549080600601549080600701549080600801549080600901549080600a0160009054906101000a900460ff1690508b565b606060236000838152602001908152602001600020805480602002602001604051908101604052809291908181526020018280548015614ae557602002820191906000526020600020905b8160009054906101000a900473ffffffffffffffffffffffffffffffffffffffff1673ffffffffffffffffffffffffffffffffffffffff1681526020019060010190808311614a9b575b50505050509050919050565b60086020528060005260406000206000915054906101000a900460ff1681565b6000601154905090565b60278181548110614b2b57600080fd5b9060005260206000209060030201600091509050806000015490806001018054614b549061822c565b80601f0160208091040260200160405190810160405280929190818152602001828054614b809061822c565b8015614bcd5780601f10614ba257610100808354040283529160200191614bcd565b820191906000526020600020905b815481529060010190602001808311614bb057829003601f168201915b5050505050908060020160009054906101000a900460ff16905083565b6000801b614bf781615a7f565b600860008373ffffffffffffffffffffffffffffffffffffffff1673ffffffffffffffffffffffffffffffffffffffff16815260200190815260200160002060009054906101000a900460ff16614c83576040517f08c379a0000000000000000000000000000000000000000000000000000000008152600401614c7a9061932b565b60405180910390fd5b60005b600680549050811015614e09578273ffffffffffffffffffffffffffffffffffffffff1660068281548110614cbe57614cbd6181ce565b5b9060005260206000200160009054906101000a900473ffffffffffffffffffffffffffffffffffffffff1673ffffffffffffffffffffffffffffffffffffffff1603614dfc5760066001600680549050614d189190619041565b81548110614d2957614d286181ce565b5b9060005260206000200160009054906101000a900473ffffffffffffffffffffffffffffffffffffffff1660068281548110614d6857614d676181ce565b5b9060005260206000200160006101000a81548173ffffffffffffffffffffffffffffffffffffffff021916908373ffffffffffffffffffffffffffffffffffffffff1602179055506006805480614dc257614dc161934b565b5b6001900381819060005260206000200160006101000a81549073ffffffffffffffffffffffffffffffffffffffff02191690559055614e09565b8080600101915050614c86565b506000600860008473ffffffffffffffffffffffffffffffffffffffff1673ffffffffffffffffffffffffffffffffffffffff16815260200190815260200160002060006101000a81548160ff021916908315150217905550614e8c7fc10c77be35aff266144ed64c26a1fa104bae2f284ae99ac4a34203454704a18583615b85565b508173ffffffffffffffffffffffffffffffffffffffff167f55dba9d79522b91b615629d5f3b10c2fad2d258f1768614f4a52e937ada0d0ba60405160405180910390a25050565b60256020528160005260406000206020528060005260406000206000915091509054906101000a900460ff1681565b6021600085815260200190815260200160002060030160009054906101000a900460ff16614f66576040517f08c379a0000000000000000000000000000000000000000000000000000000008152600401614f5d906190c1565b60405180910390fd5b60008251118015614f7957506004825111155b614fb8576040517f08c379a0000000000000000000000000000000000000000000000000000000008152600401614faf906193c6565b60405180910390fd5b81518160ff1610614ffe576040517f08c379a0000000000000000000000000000000000000000000000000000000008152600401614ff590619432565b60405180910390fd5b6000601754905060006021600087815260200190815260200160002060020160018160018154018082558091505003906000526020600020906003020190508181600001819055508481600101908161505791906185d8565b508060226000848152602001908152602001600020600082015481600001556001820181600101908161508a91906189d2565b5060028201816002019080546150a1929190616824565b50905050601760008154809291906150b8906186aa565b9190505550602b819080600181540180825580915050600190039060005260206000209060030201600090919091909150600082015481600001556001820181600101908161510791906189d2565b50600282018160020190805461511e929190616824565b5050507fa5bdacf4d1324fdd584bc65cf0315e4975d00b33a7ca0e6d0a73c88df8430b9586838760405161515493929190619452565b60405180910390a160005b84518160ff161015615315576000601854905060006040518060400160405280888560ff1681518110615195576151946181ce565b5b602002602001015181526020018760ff168560ff1614151581525090508360020181908060018154018082558091505060019003906000526020600020906002020160009091909190915060008201518160000190816151f591906185d8565b5060208201518160010160006101000a81548160ff021916908315150217905550505060226000868152602001908152602001600020600201819080600181540180825580915050600190039060005260206000209060020201600090919091909150600082015181600001908161526d91906185d8565b5060208201518160010160006101000a81548160ff0219169083151502179055505050601860008154809291906152a3906186aa565b91905055507f06ef0ba2ad58c9f8eef2fc98c08fd18d801c4a971eeb45afd07f0fee3f9d60c48583898660ff16815181106152e1576152e06181ce565b5b60200260200101516040516152f893929190619452565b60405180910390a15050808061530d90619490565b91505061515f565b50505050505050565b615327826116ae565b61533081615a7f565b61533a8383615b85565b50505050565b674563918244f4000081565b6000600160008473ffffffffffffffffffffffffffffffffffffffff1673ffffffffffffffffffffffffffffffffffffffff16815260200190815260200160002060008373ffffffffffffffffffffffffffffffffffffffff1673ffffffffffffffffffffffffffffffffffffffff16815260200190815260200160002054905092915050565b602981815481106153e357600080fd5b90600052602060002090600302016000915090508060000180546154069061822c565b80601f01602080910402602001604051908101604052809291908181526020018280546154329061822c565b801561547f5780601f106154545761010080835404028352916020019161547f565b820191906000526020600020905b81548152906001019060200180831161546257829003601f168201915b5050505050908060010180546154949061822c565b80601f01602080910402602001604051908101604052809291908181526020018280546154c09061822c565b801561550d5780601f106154e25761010080835404028352916020019161550d565b820191906000526020600020905b8154815290600101906020018083116154f057829003601f168201915b5050505050908060020180546155229061822c565b80601f016020809104026020016040519081016040528092919081815260200182805461554e9061822c565b801561559b5780601f106155705761010080835404028352916020019161559b565b820191906000526020600020905b81548152906001019060200180831161557e57829003601f168201915b5050505050905083565b6000600b60000154905090565b60165481565b60175481565b60006155c8615880565b6019600083815260200190815260200160002060030160009054906101000a900460ff1661562b576040517f08c379a000000000000000000000000000000000000000000000000000000000815260040161562290619505565b60405180910390fd5b6025600083815260200190815260200160002060003373ffffffffffffffffffffffffffffffffffffffff1673ffffffffffffffffffffffffffffffffffffffff16815260200190815260200160002060009054906101000a900460ff16156156c9576040517f08c379a00000000000000000000000000000000000000000000000000000000081526004016156c090619597565b60405180910390fd5b60016025600084815260200190815260200160002060003373ffffffffffffffffffffffffffffffffffffffff1673ffffffffffffffffffffffffffffffffffffffff16815260200190815260200160002060006101000a81548160ff02191690831515021790555061574433671bc16d674ec80000615e9d565b503373ffffffffffffffffffffffffffffffffffffffff16827f4bf249f6b0ca5630ea4816c04b928b864a2065cb51658fd6223d83b727fd326b60405160405180910390a3600190506157956158ed565b919050565b60006157c67fc10c77be35aff266144ed64c26a1fa104bae2f284ae99ac4a34203454704a1858361362a565b9050919050565b601c6020528160005260406000206020528060005260406000206000915091509054906101000a900460ff1681565b60007f01ffc9a7000000000000000000000000000000000000000000000000000000007bffffffffffffffffffffffffffffffffffffffffffffffffffffffff1916827bffffffffffffffffffffffffffffffffffffffffffffffffffffffff1916149050919050565b600033905090565b61587b8383836001615f8a565b505050565b6002600a54036158bc576040517f3ee5aeb500000000000000000000000000000000000000000000000000000000815260040160405180910390fd5b6002600a81905550565b6158d08282616161565b80601160008282546158e29190619041565b925050819055505050565b6001600a81905550565b6000615903848461534c565b90507fffffffffffffffffffffffffffffffffffffffffffffffffffffffffffffffff81146159855781811015615975578281836040517ffb8f41b200000000000000000000000000000000000000000000000000000000815260040161596c939291906195b7565b60405180910390fd5b61598484848484036000615f8a565b5b50505050565b600073ffffffffffffffffffffffffffffffffffffffff168373ffffffffffffffffffffffffffffffffffffffff16036159fd5760006040517f96c6fd1e0000000000000000000000000000000000000000000000000000000081526004016159f49190616ef5565b60405180910390fd5b600073ffffffffffffffffffffffffffffffffffffffff168273ffffffffffffffffffffffffffffffffffffffff1603615a6f5760006040517fec442f05000000000000000000000000000000000000000000000000000000008152600401615a669190616ef5565b60405180910390fd5b615a7a838383616208565b505050565b615a9081615a8b615866565b61642d565b50565b6000615a9f838361362a565b615b7a5760016005600085815260200190815260200160002060000160008473ffffffffffffffffffffffffffffffffffffffff1673ffffffffffffffffffffffffffffffffffffffff16815260200190815260200160002060006101000a81548160ff021916908315150217905550615b17615866565b73ffffffffffffffffffffffffffffffffffffffff168273ffffffffffffffffffffffffffffffffffffffff16847f2f8788117e7eff1d82e926ec794901d17c78024a50270940304540a733656f0d60405160405180910390a460019050615b7f565b600090505b92915050565b6000615b91838361362a565b15615c6d5760006005600085815260200190815260200160002060000160008473ffffffffffffffffffffffffffffffffffffffff1673ffffffffffffffffffffffffffffffffffffffff16815260200190815260200160002060006101000a81548160ff021916908315150217905550615c0a615866565b73ffffffffffffffffffffffffffffffffffffffff168273ffffffffffffffffffffffffffffffffffffffff16847ff6391f5c32d9c69d2a47ea670b442974b53935d1edc7fd64eb21e047a839171b60405160405180910390a460019050615c72565b600090505b92915050565b600080600090505b6023600085815260200190815260200160002080549050811015615d37578273ffffffffffffffffffffffffffffffffffffffff16602360008681526020019081526020016000208281548110615cda57615cd96181ce565b5b9060005260206000200160009054906101000a900473ffffffffffffffffffffffffffffffffffffffff1673ffffffffffffffffffffffffffffffffffffffff1603615d2a576001915050615d3d565b8080600101915050615c80565b50600090505b92915050565b600a8a11158015615d555750600a8911155b8015615d625750600a8811155b8015615d6f5750600a8711155b8015615d7c5750600a8611155b8015615d895750600a8511155b8015615d965750600a8411155b8015615da35750600a8311155b8015615db05750600a8211155b8015615dbd5750600a8111155b615dfc576040517f08c379a0000000000000000000000000000000000000000000000000000000008152600401615df39061963a565b60405180910390fd5b50505050505050505050565b60008160090154826008015483600701548460060154856005015486600401548760030154886002015489600101548a60000154615e469190618882565b615e509190618882565b615e5a9190618882565b615e649190618882565b615e6e9190618882565b615e789190618882565b615e829190618882565b615e8c9190618882565b615e969190618882565b9050919050565b60006064600f6b204fce5e3e25026110000000615eba919061831e565b615ec4919061838f565b615ecc614b11565b83615ed79190618882565b1115615f18576040517f08c379a0000000000000000000000000000000000000000000000000000000008152600401615f0f906196a6565b60405180910390fd5b615f22838361647e565b508160116000828254615f359190618882565b92505081905550818373ffffffffffffffffffffffffffffffffffffffff167fad6ef58d5c294f81258965738e7ae511124139834a8d0b8f8f7327086c82052a60405160405180910390a36001905092915050565b600073ffffffffffffffffffffffffffffffffffffffff168473ffffffffffffffffffffffffffffffffffffffff1603615ffc5760006040517fe602df05000000000000000000000000000000000000000000000000000000008152600401615ff39190616ef5565b60405180910390fd5b600073ffffffffffffffffffffffffffffffffffffffff168373ffffffffffffffffffffffffffffffffffffffff160361606e5760006040517f94280d620000000000000000000000000000000000000000000000000000000081526004016160659190616ef5565b60405180910390fd5b81600160008673ffffffffffffffffffffffffffffffffffffffff1673ffffffffffffffffffffffffffffffffffffffff16815260200190815260200160002060008573ffffffffffffffffffffffffffffffffffffffff1673ffffffffffffffffffffffffffffffffffffffff16815260200190815260200160002081905550801561615b578273ffffffffffffffffffffffffffffffffffffffff168473ffffffffffffffffffffffffffffffffffffffff167f8c5be1e5ebec7d5bd14f71427d1e84f3dd0314c0f7b2291e5b200ac8c7c3b925846040516161529190616d9a565b60405180910390a35b50505050565b8061616b83612bae565b10156161ac576040517f08c379a00000000000000000000000000000000000000000000000000000000081526004016161a390619712565b60405180910390fd5b6161b68282616539565b8173ffffffffffffffffffffffffffffffffffffffff167f5b5d8478b570a79ab6b3bf13ff029fba19c02ab0d54d692d4ef0d9052d5cc850826040516161fc9190616d9a565b60405180910390a25050565b600073ffffffffffffffffffffffffffffffffffffffff168373ffffffffffffffffffffffffffffffffffffffff160361625a57806002600082825461624e9190618882565b9250508190555061632d565b60008060008573ffffffffffffffffffffffffffffffffffffffff1673ffffffffffffffffffffffffffffffffffffffff168152602001908152602001600020549050818110156162e6578381836040517fe450d38c0000000000000000000000000000000000000000000000000000000081526004016162dd939291906195b7565b60405180910390fd5b8181036000808673ffffffffffffffffffffffffffffffffffffffff1673ffffffffffffffffffffffffffffffffffffffff16815260200190815260200160002081905550505b600073ffffffffffffffffffffffffffffffffffffffff168273ffffffffffffffffffffffffffffffffffffffff160361637657806002600082825403925050819055506163c3565b806000808473ffffffffffffffffffffffffffffffffffffffff1673ffffffffffffffffffffffffffffffffffffffff168152602001908152602001600020600082825401925050819055505b8173ffffffffffffffffffffffffffffffffffffffff168373ffffffffffffffffffffffffffffffffffffffff167fddf252ad1be2c89b69c2b068fc378daa952ba7f163c4a11628f55a4df523b3ef836040516164209190616d9a565b60405180910390a3505050565b616437828261362a565b61647a5780826040517fe2517d3f000000000000000000000000000000000000000000000000000000008152600401616471929190619732565b60405180910390fd5b5050565b60006b204fce5e3e250261100000006164956114bf565b836164a09190618882565b11156164e1576040517f08c379a00000000000000000000000000000000000000000000000000000000081526004016164d8906196a6565b60405180910390fd5b6164eb83836165bb565b818373ffffffffffffffffffffffffffffffffffffffff167fcda531bfd68624f13205c0a23cd4d5a7f09792cbb399603114f2b04aaa1bf5cf60405160405180910390a36001905092915050565b600073ffffffffffffffffffffffffffffffffffffffff168273ffffffffffffffffffffffffffffffffffffffff16036165ab5760006040517f96c6fd1e0000000000000000000000000000000000000000000000000000000081526004016165a29190616ef5565b60405180910390fd5b6165b782600083616208565b5050565b600073ffffffffffffffffffffffffffffffffffffffff168273ffffffffffffffffffffffffffffffffffffffff160361662d5760006040517fec442f050000000000000000000000000000000000000000000000000000000081526004016166249190616ef5565b60405180910390fd5b61663960008383616208565b5050565b6040518060c0016040528060008152602001606081526020016060815260200160001515815260200160008152602001600073ffffffffffffffffffffffffffffffffffffffff1681525090565b82600a60030281019282156166fc579160030282015b828111156166fb578282600082018160000190816166bf91906189d2565b50600182018160010190816166d491906189d2565b50600282018160020190816166e991906189d2565b505050916003019190600301906166a1565b5b50905061670991906168be565b5090565b82805482825590600052602060002090600302810192821561678a5760005260206000209160030282015b82811115616789578282600082015481600001556001820181600101908161676091906189d2565b506002820181600201908054616777929190616824565b50505091600301919060030190616738565b5b5090506167979190616905565b5090565b50805460008255906000526020600020908101906167b99190616944565b50565b6040518060c001604052806000815260200160608152602001606081526020016167e4616961565b8152602001600081526020016000151581525090565b60405180608001604052806000815260200160608152602001606081526020016000151581525090565b8280548282559060005260206000209060020281019282156168ad5760005260206000209160020282015b828111156168ac5782826000820181600001908161686d91906189d2565b506001820160009054906101000a900460ff168160010160006101000a81548160ff02191690831515021790555050509160020191906002019061684f565b5b5090506168ba919061698f565b5090565b5b8082111561690157600080820160006168d891906169ca565b6001820160006168e891906169ca565b6002820160006168f891906169ca565b506003016168bf565b5090565b5b808211156169405760008082016000905560018201600061692791906169ca565b6002820160006169379190616a0a565b50600301616906565b5090565b5b8082111561695d576000816000905550600101616945565b5090565b604051806101400160405280600a905b616979616a2e565b8152602001906001900390816169715790505090565b5b808211156169c657600080820160006169a991906169ca565b6001820160006101000a81549060ff021916905550600201616990565b5090565b5080546169d69061822c565b6000825580601f106169e85750616a07565b601f016020900490600052602060002090810190616a069190616944565b5b50565b5080546000825560020290600052602060002090810190616a2b919061698f565b50565b60405180606001604052806060815260200160608152602001606081525090565b6000604051905090565b600080fd5b600080fd5b60007fffffffff0000000000000000000000000000000000000000000000000000000082169050919050565b616a9881616a63565b8114616aa357600080fd5b50565b600081359050616ab581616a8f565b92915050565b600060208284031215616ad157616ad0616a59565b5b6000616adf84828501616aa6565b91505092915050565b60008115159050919050565b616afd81616ae8565b82525050565b6000602082019050616b186000830184616af4565b92915050565b600081519050919050565b600082825260208201905092915050565b6000819050602082019050919050565b6000819050919050565b616b5d81616b4a565b82525050565b600081519050919050565b600082825260208201905092915050565b60005b83811015616b9d578082015181840152602081019050616b82565b60008484015250505050565b6000601f19601f8301169050919050565b6000616bc582616b63565b616bcf8185616b6e565b9350616bdf818560208601616b7f565b616be881616ba9565b840191505092915050565b616bfc81616ae8565b82525050565b600073ffffffffffffffffffffffffffffffffffffffff82169050919050565b6000616c2d82616c02565b9050919050565b616c3d81616c22565b82525050565b600060c083016000830151616c5b6000860182616b54565b5060208301518482036020860152616c738282616bba565b91505060408301518482036040860152616c8d8282616bba565b9150506060830151616ca26060860182616bf3565b506080830151616cb56080860182616b54565b5060a0830151616cc860a0860182616c34565b508091505092915050565b6000616cdf8383616c43565b905092915050565b6000602082019050919050565b6000616cff82616b1e565b616d098185616b29565b935083602082028501616d1b85616b3a565b8060005b85811015616d575784840389528151616d388582616cd3565b9450616d4383616ce7565b925060208a01995050600181019050616d1f565b50829750879550505050505092915050565b60006020820190508181036000830152616d838184616cf4565b905092915050565b616d9481616b4a565b82525050565b6000602082019050616daf6000830184616d8b565b92915050565b600082825260208201905092915050565b6000616dd182616b63565b616ddb8185616db5565b9350616deb818560208601616b7f565b616df481616ba9565b840191505092915050565b60006020820190508181036000830152616e198184616dc6565b905092915050565b616e2a81616c22565b8114616e3557600080fd5b50565b600081359050616e4781616e21565b92915050565b616e5681616b4a565b8114616e6157600080fd5b50565b600081359050616e7381616e4d565b92915050565b60008060408385031215616e9057616e8f616a59565b5b6000616e9e85828601616e38565b9250506020616eaf85828601616e64565b9150509250929050565b600060208284031215616ecf57616ece616a59565b5b6000616edd84828501616e64565b91505092915050565b616eef81616c22565b82525050565b6000602082019050616f0a6000830184616ee6565b92915050565b600080600060608486031215616f2957616f28616a59565b5b6000616f3786828701616e38565b9350506020616f4886828701616e38565b9250506040616f5986828701616e64565b9150509250925092565b6000819050919050565b616f7681616f63565b8114616f8157600080fd5b50565b600081359050616f9381616f6d565b92915050565b600060208284031215616faf57616fae616a59565b5b6000616fbd84828501616f84565b91505092915050565b616fcf81616f63565b82525050565b6000602082019050616fea6000830184616fc6565b92915050565b60006060820190506170056000830186616d8b565b81810360208301526170178185616dc6565b90506170266040830184616af4565b949350505050565b600060c0820190506170436000830189616d8b565b81810360208301526170558188616dc6565b905081810360408301526170698187616dc6565b90506170786060830186616af4565b6170856080830185616d8b565b61709260a0830184616ee6565b979650505050505050565b600060a0820190506170b26000830188616d8b565b81810360208301526170c48187616dc6565b905081810360408301526170d88186616dc6565b90506170e76060830185616d8b565b6170f46080830184616af4565b9695505050505050565b6000806040838503121561711557617114616a59565b5b600061712385828601616f84565b925050602061713485828601616e38565b9150509250929050565b600080fd5b7f4e487b7100000000000000000000000000000000000000000000000000000000600052604160045260246000fd5b61717b82616ba9565b810181811067ffffffffffffffff8211171561719a57617199617143565b5b80604052505050565b60006171ad616a4f565b90506171b98282617172565b919050565b600067ffffffffffffffff8211156171d9576171d8617143565b5b602082029050602081019050919050565b600080fd5b600080fd5b600067ffffffffffffffff82111561720f5761720e617143565b5b61721882616ba9565b9050602081019050919050565b82818337600083830152505050565b6000617247617242846171f4565b6171a3565b905082815260208101848484011115617263576172626171ef565b5b61726e848285617225565b509392505050565b600082601f83011261728b5761728a61713e565b5b813561729b848260208601617234565b91505092915050565b60006172b76172b2846171be565b6171a3565b905080838252602082019050602084028301858111156172da576172d96171ea565b5b835b8181101561732157803567ffffffffffffffff8111156172ff576172fe61713e565b5b80860161730c8982617276565b855260208501945050506020810190506172dc565b5050509392505050565b600082601f8301126173405761733f61713e565b5b81356173508482602086016172a4565b91505092915050565b600080604083850312156173705761736f616a59565b5b600061737e85828601616e64565b925050602083013567ffffffffffffffff81111561739f5761739e616a5e565b5b6173ab8582860161732b565b9150509250929050565b600060ff82169050919050565b6173cb816173b5565b82525050565b60006020820190506173e660008301846173c2565b92915050565b60006040820190506174016000830185616d8b565b81810360208301526174138184616dc6565b90509392505050565b60006020828403121561743257617431616a59565b5b600061744084828501616e38565b91505092915050565b600081519050919050565b600082825260208201905092915050565b600061747082617449565b61747a8185617454565b935061748a818560208601616b7f565b61749381616ba9565b840191505092915050565b600060c0820190506174b36000830189616d8b565b6174c06020830188616ee6565b6174cd6040830187616ee6565b81810360608301526174df8186617465565b90506174ee6080830185616d8b565b6174fb60a0830184616af4565b979650505050505050565b6000806040838503121561751d5761751c616a59565b5b600061752b85828601616e64565b925050602061753c85828601616e64565b9150509250929050565b60008060008060008060008060008060006101608c8e03121561756c5761756b616a59565b5b600061757a8e828f01616e64565b9b5050602061758b8e828f01616e64565b9a5050604061759c8e828f01616e64565b99505060606175ad8e828f01616e64565b98505060806175be8e828f01616e64565b97505060a06175cf8e828f01616e64565b96505060c06175e08e828f01616e64565b95505060e06175f18e828f01616e64565b9450506101006176038e828f01616e64565b9350506101206176158e828f01616e64565b9250506101406176278e828f01616e64565b9150509295989b509295989b9093969950565b600080fd5b60008083601f8401126176555761765461713e565b5b8235905067ffffffffffffffff8111156176725761767161763a565b5b60208301915083602082028301111561768e5761768d6171ea565b5b9250929050565b6000806000604084860312156176ae576176ad616a59565b5b60006176bc86828701616e64565b935050602084013567ffffffffffffffff8111156176dd576176dc616a5e565b5b6176e98682870161763f565b92509250509250925092565b6000806040838503121561770c5761770b616a59565b5b600061771a85828601616e64565b925050602083013567ffffffffffffffff81111561773b5761773a616a5e565b5b61774785828601617276565b9150509250929050565b60008060006060848603121561776a57617769616a59565b5b600061777886828701616e64565b935050602084013567ffffffffffffffff81111561779957617798616a5e565b5b6177a586828701617276565b925050604084013567ffffffffffffffff8111156177c6576177c5616a5e565b5b6177d286828701617276565b9150509250925092565b600080604083850312156177f3576177f2616a59565b5b600083013567ffffffffffffffff81111561781157617810616a5e565b5b61781d85828601617276565b925050602083013567ffffffffffffffff81111561783e5761783d616a5e565b5b61784a85828601617276565b9150509250929050565b600081519050919050565b600082825260208201905092915050565b6000819050602082019050919050565b6000600a9050919050565b600081905092915050565b6000819050919050565b600060608301600083015184820360008601526178bd8282616bba565b915050602083015184820360208601526178d78282616bba565b915050604083015184820360408601526178f18282616bba565b9150508091505092915050565b600061790a83836178a0565b905092915050565b6000602082019050919050565b600061792a82617880565b617934818561788b565b93508360208202850161794685617896565b8060005b85811015617982578484038952815161796385826178fe565b945061796e83617912565b925060208a0199505060018101905061794a565b50829750879550505050505092915050565b600060c0830160008301516179ac6000860182616b54565b50602083015184820360208601526179c48282616bba565b915050604083015184820360408601526179de8282616bba565b915050606083015184820360608601526179f8828261791f565b9150506080830151617a0d6080860182616b54565b5060a0830151617a2060a0860182616bf3565b508091505092915050565b6000617a378383617994565b905092915050565b6000602082019050919050565b6000617a5782617854565b617a61818561785f565b935083602082028501617a7385617870565b8060005b85811015617aaf5784840389528151617a908582617a2b565b9450617a9b83617a3f565b925060208a01995050600181019050617a77565b50829750879550505050505092915050565b60006020820190508181036000830152617adb8184617a4c565b905092915050565b600081519050919050565b600082825260208201905092915050565b6000819050602082019050919050565b600081519050919050565b600082825260208201905092915050565b6000819050602082019050919050565b60006040830160008301518482036000860152617b588282616bba565b9150506020830151617b6d6020860182616bf3565b508091505092915050565b6000617b848383617b3b565b905092915050565b6000602082019050919050565b6000617ba482617b0f565b617bae8185617b1a565b935083602082028501617bc085617b2b565b8060005b85811015617bfc5784840389528151617bdd8582617b78565b9450617be883617b8c565b925060208a01995050600181019050617bc4565b50829750879550505050505092915050565b6000606083016000830151617c266000860182616b54565b5060208301518482036020860152617c3e8282616bba565b91505060408301518482036040860152617c588282617b99565b9150508091505092915050565b6000617c718383617c0e565b905092915050565b6000602082019050919050565b6000617c9182617ae3565b617c9b8185617aee565b935083602082028501617cad85617aff565b8060005b85811015617ce95784840389528151617cca8582617c65565b9450617cd583617c79565b925060208a01995050600181019050617cb1565b50829750879550505050505092915050565b6000608083016000830151617d136000860182616b54565b5060208301518482036020860152617d2b8282616bba565b91505060408301518482036040860152617d458282617c86565b9150506060830151617d5a6060860182616bf3565b508091505092915050565b60006020820190508181036000830152617d7f8184617cfb565b905092915050565b600081519050919050565b600082825260208201905092915050565b6000819050602082019050919050565b6000606083016000830151617dcb6000860182616b54565b5060208301518482036020860152617de38282616bba565b9150506040830151617df86040860182616bf3565b508091505092915050565b6000617e0f8383617db3565b905092915050565b6000602082019050919050565b6000617e2f82617d87565b617e398185617d92565b935083602082028501617e4b85617da3565b8060005b85811015617e875784840389528151617e688582617e03565b9450617e7383617e17565b925060208a01995050600181019050617e4f565b50829750879550505050505092915050565b60006020820190508181036000830152617eb38184617e24565b905092915050565b60008060408385031215617ed257617ed1616a59565b5b6000617ee085828601616e64565b9250506020617ef185828601616e38565b9150509250929050565b600061016082019050617f11600083018e616d8b565b617f1e602083018d616d8b565b617f2b604083018c616d8b565b617f38606083018b616d8b565b617f45608083018a616d8b565b617f5260a0830189616d8b565b617f5f60c0830188616d8b565b617f6c60e0830187616d8b565b617f7a610100830186616d8b565b617f88610120830185616d8b565b617f96610140830184616af4565b9c9b505050505050505050505050565b600081519050919050565b600082825260208201905092915050565b6000819050602082019050919050565b6000617fde8383616c34565b60208301905092915050565b6000602082019050919050565b600061800282617fa6565b61800c8185617fb1565b935061801783617fc2565b8060005b8381101561804857815161802f8882617fd2565b975061803a83617fea565b92505060018101905061801b565b5085935050505092915050565b6000602082019050818103600083015261806f8184617ff7565b905092915050565b618080816173b5565b811461808b57600080fd5b50565b60008135905061809d81618077565b92915050565b600080600080608085870312156180bd576180bc616a59565b5b60006180cb87828801616e64565b945050602085013567ffffffffffffffff8111156180ec576180eb616a5e565b5b6180f887828801617276565b935050604085013567ffffffffffffffff81111561811957618118616a5e565b5b6181258782880161732b565b92505060606181368782880161808e565b91505092959194509250565b6000806040838503121561815957618158616a59565b5b600061816785828601616e38565b925050602061817885828601616e38565b9150509250929050565b6000606082019050818103600083015261819c8186616dc6565b905081810360208301526181b08185616dc6565b905081810360408301526181c48184616dc6565b9050949350505050565b7f4e487b7100000000000000000000000000000000000000000000000000000000600052603260045260246000fd5b7f4e487b7100000000000000000000000000000000000000000000000000000000600052602260045260246000fd5b6000600282049050600182168061824457607f821691505b602082108103618257576182566181fd565b5b50919050565b7f596f7520617265206e6f7420656e726f6c6c656420696e207468697320636f7560008201527f7273652100000000000000000000000000000000000000000000000000000000602082015250565b60006182b9602483616db5565b91506182c48261825d565b604082019050919050565b600060208201905081810360008301526182e8816182ac565b9050919050565b7f4e487b7100000000000000000000000000000000000000000000000000000000600052601160045260246000fd5b600061832982616b4a565b915061833483616b4a565b925082820261834281616b4a565b91508282048414831517618359576183586182ef565b5b5092915050565b7f4e487b7100000000000000000000000000000000000000000000000000000000600052601260045260246000fd5b600061839a82616b4a565b91506183a583616b4a565b9250826183b5576183b4618360565b5b828204905092915050565b7f436f7572736520646f6573206e6f742065786973742100000000000000000000600082015250565b60006183f6601683616db5565b9150618401826183c0565b602082019050919050565b60006020820190508181036000830152618425816183e9565b9050919050565b60008190508160005260206000209050919050565b60006020601f8301049050919050565b600082821b905092915050565b60006008830261848e7fffffffffffffffffffffffffffffffffffffffffffffffffffffffffffffffff82618451565b6184988683618451565b95508019841693508086168417925050509392505050565b6000819050919050565b60006184d56184d06184cb84616b4a565b6184b0565b616b4a565b9050919050565b6000819050919050565b6184ef836184ba565b6185036184fb826184dc565b84845461845e565b825550505050565b600090565b61851861850b565b6185238184846184e6565b505050565b5b818110156185475761853c600082618510565b600181019050618529565b5050565b601f82111561858c5761855d8161842c565b61856684618441565b81016020851015618575578190505b61858961858185618441565b830182618528565b50505b505050565b600082821c905092915050565b60006185af60001984600802618591565b1980831691505092915050565b60006185c8838361859e565b9150826002028217905092915050565b6185e182616b63565b67ffffffffffffffff8111156185fa576185f9617143565b5b618604825461822c565b61860f82828561854b565b600060209050601f8311600181146186425760008415618630578287015190505b61863a85826185bc565b8655506186a2565b601f1984166186508661842c565b60005b8281101561867857848901518255600182019150602085019450602081019050618653565b868310156186955784890151618691601f89168261859e565b8355505b6001600288020188555050505b505050505050565b60006186b582616b4a565b91507fffffffffffffffffffffffffffffffffffffffffffffffffffffffffffffffff82036186e7576186e66182ef565b5b600182019050919050565b7f4e6f742073656c6563746564206173206120726576696577657220666f72207460008201527f68697320636f7572736500000000000000000000000000000000000000000000602082015250565b600061874e602a83616db5565b9150618759826186f2565b604082019050919050565b6000602082019050818103600083015261877d81618741565b9050919050565b7f52657669657720616c7265616479207375626d6974746564206279207468697360008201527f2072657669657765722e00000000000000000000000000000000000000000000602082015250565b60006187e0602a83616db5565b91506187eb82618784565b604082019050919050565b6000602082019050818103600083015261880f816187d3565b9050919050565b7f4c6573736f6e20646f6573206e6f742065786973742100000000000000000000600082015250565b600061884c601683616db5565b915061885782618816565b602082019050919050565b6000602082019050818103600083015261887b8161883f565b9050919050565b600061888d82616b4a565b915061889883616b4a565b92508282019050808211156188b0576188af6182ef565b5b92915050565b7f45786365656473206d6178696d756d207265736f757263657321000000000000600082015250565b60006188ec601a83616db5565b91506188f7826188b6565b602082019050919050565b6000602082019050818103600083015261891b816188df565b9050919050565b600080fd5b600080fd5b600080fd5b60008235600160600383360303811261894d5761894c618922565b5b80830191505092915050565b6000808335600160200384360303811261897657618975618922565b5b80840192508235915067ffffffffffffffff82111561899857618997618927565b5b6020830192506001820236038313156189b4576189b361892c565b5b509250929050565b6000815490506189cb8161822c565b9050919050565b8181036189e0575050618ab8565b6189e9826189bc565b67ffffffffffffffff811115618a0257618a01617143565b5b618a0c825461822c565b618a1782828561854b565b6000601f831160018114618a465760008415618a34578287015490505b618a3e85826185bc565b865550618ab1565b601f198416618a548761842c565b9650618a5f8661842c565b60005b82811015618a8757848901548255600182019150600185019450602081019050618a62565b86831015618aa45784890154618aa0601f89168261859e565b8355505b6001600288020188555050505b5050505050505b565b7f4c6573736f6e20446f6573206e6f742065786973742100000000000000000000600082015250565b6000618af0601683616db5565b9150618afb82618aba565b602082019050919050565b60006020820190508181036000830152618b1f81618ae3565b9050919050565b600081905092915050565b6000618b3c82616b63565b618b468185618b26565b9350618b56818560208601616b7f565b80840191505092915050565b6000618b6e8284618b31565b915081905092915050565b7f416c726561647920696e20726576696577657220706f6f6c0000000000000000600082015250565b6000618baf601883616db5565b9150618bba82618b79565b602082019050919050565b60006020820190508181036000830152618bde81618ba2565b9050919050565b7f436f7572736520616c726561647920617070726f766564000000000000000000600082015250565b6000618c1b601783616db5565b9150618c2682618be5565b602082019050919050565b60006020820190508181036000830152618c4a81618c0e565b9050919050565b7f596f75206861766520616c726561647920617070726f7665642074686973206360008201527f6f75727365000000000000000000000000000000000000000000000000000000602082015250565b6000618cad602583616db5565b9150618cb882618c51565b604082019050919050565b60006020820190508181036000830152618cdc81618ca0565b9050919050565b7f4368617074657220646f6573206e6f7420657869737421000000000000000000600082015250565b6000618d19601783616db5565b9150618d2482618ce3565b602082019050919050565b60006020820190508181036000830152618d4881618d0c565b9050919050565b7f52657669657765727320616c72656164792073656c6563746564000000000000600082015250565b6000618d85601a83616db5565b9150618d9082618d4f565b602082019050919050565b60006020820190508181036000830152618db481618d78565b9050919050565b7f4e6f7420656e6f7567682072657669657765727320696e2074686520706f6f6c600082015250565b6000618df1602083616db5565b9150618dfc82618dbb565b602082019050919050565b60006020820190508181036000830152618e2081618de4565b9050919050565b6000819050919050565b618e42618e3d82616b4a565b618e27565b82525050565b6000618e548287618e31565b602082019150618e648286618e31565b602082019150618e748285618e31565b602082019150618e848284618e31565b60208201915081905095945050505050565b6000618ea182616b4a565b9150618eac83616b4a565b925082618ebc57618ebb618360565b5b828206905092915050565b600081549050919050565b60008190508160005260206000209050919050565b60008160001c9050919050565b600073ffffffffffffffffffffffffffffffffffffffff82169050919050565b6000618f27618f2283618ee7565b618ef4565b9050919050565b6000618f3a8254618f14565b9050919050565b6000600182019050919050565b6000618f5982618ec7565b618f638185617fb1565b9350618f6e83618ed2565b8060005b83811015618fa657618f8382618f2e565b618f8d8882617fd2565b9750618f9883618f41565b925050600181019050618f72565b5085935050505092915050565b60006020820190508181036000830152618fcd8184618f4e565b905092915050565b7f436f7572736520494420616c7265616479206578697374730000000000000000600082015250565b600061900b601883616db5565b915061901682618fd5565b602082019050919050565b6000602082019050818103600083015261903a81618ffe565b9050919050565b600061904c82616b4a565b915061905783616b4a565b925082820390508181111561906f5761906e6182ef565b5b92915050565b7f5175697a20646f6573206e6f7420657869737400000000000000000000000000600082015250565b60006190ab601383616db5565b91506190b682619075565b602082019050919050565b600060208201905081810360008301526190da8161909e565b9050919050565b7f50726f706f73616c20616c726561647920657865637574656400000000000000600082015250565b6000619117601983616db5565b9150619122826190e1565b602082019050919050565b600060208201905081810360008301526191468161910a565b9050919050565b7f416c726561647920617070726f76656400000000000000000000000000000000600082015250565b6000619183601083616db5565b915061918e8261914d565b602082019050919050565b600060208201905081810360008301526191b281619176565b9050919050565b600081905092915050565b60008190508160005260206000209050919050565b600081546191e68161822c565b6191f081866191b9565b9450600182166000811461920b576001811461922057619253565b60ff1983168652811515820286019350619253565b619229856191c4565b60005b8381101561924b5781548189015260018201915060208101905061922c565b838801955050505b50505092915050565b600061926882846191d9565b915081905092915050565b7f50726f706f73616c20657865637574696f6e206661696c656400000000000000600082015250565b60006192a9601983616db5565b91506192b482619273565b602082019050919050565b600060208201905081810360008301526192d88161929c565b9050919050565b7f4e6f7420696e20726576696577657220706f6f6c000000000000000000000000600082015250565b6000619315601483616db5565b9150619320826192df565b602082019050919050565b6000602082019050818103600083015261934481619308565b9050919050565b7f4e487b7100000000000000000000000000000000000000000000000000000000600052603160045260246000fd5b7f496e76616c6964206e756d626572206f662063686f6963657300000000000000600082015250565b60006193b0601983616db5565b91506193bb8261937a565b602082019050919050565b600060208201905081810360008301526193df816193a3565b9050919050565b7f496e76616c696420636f72726563742063686f69636520696e64657800000000600082015250565b600061941c601c83616db5565b9150619427826193e6565b602082019050919050565b6000602082019050818103600083015261944b8161940f565b9050919050565b60006060820190506194676000830186616d8b565b6194746020830185616d8b565b81810360408301526194868184616dc6565b9050949350505050565b600061949b826173b5565b915060ff82036194ae576194ad6182ef565b5b600182019050919050565b7f436f75727365206e6f742079657420617070726f766564210000000000000000600082015250565b60006194ef601883616db5565b91506194fa826194b9565b602082019050919050565b6000602082019050818103600083015261951e816194e2565b9050919050565b7f596f752061726520616c726561647920656e726f6c6c656420696e746f20746860008201527f697320636f757273650000000000000000000000000000000000000000000000602082015250565b6000619581602983616db5565b915061958c82619525565b604082019050919050565b600060208201905081810360008301526195b081619574565b9050919050565b60006060820190506195cc6000830186616ee6565b6195d96020830185616d8b565b6195e66040830184616d8b565b949350505050565b7f53636f726573206d757374206265206265747765656e203120616e642031302e600082015250565b6000619624602083616db5565b915061962f826195ee565b602082019050919050565b6000602082019050818103600083015261965381619617565b9050919050565b7f4c696d6974204578636565646564210000000000000000000000000000000000600082015250565b6000619690600f83616db5565b915061969b8261965a565b602082019050919050565b600060208201905081810360008301526196bf81619683565b9050919050565b7f496e73756666696369656e742062616c616e6365000000000000000000000000600082015250565b60006196fc601483616db5565b9150619707826196c6565b602082019050919050565b6000602082019050818103600083015261972b816196ef565b9050919050565b60006040820190506197476000830185616ee6565b6197546020830184616fc6565b939250505056fea26469706673582212203029b082bde41c0c7725cb95460f2ec809d83b8c1f24e77305921bbfa974d4ce64736f6c634300081b0033",
  "linkReferences": {},
  "deployedLinkReferences": {}
}