{
  "_format": "hh-sol-artifact-1",
  "contractName": "Ecosystem2",
  "sourceName": "contracts/Ecosystem Contracts/Ecosystem2.sol",
  "abi": [
    {
      "inputs": [
        {
          "internalType": "address[]",
          "name": "_reviewers",
          "type": "address[]"
        }
      ],
      "stateMutability": "nonpayable",
      "type": "constructor"
    },
    {
      "inputs": [],
      "name": "AccessControlBadConfirmation",
      "type": "error"
    },
    {
      "inputs": [
        {
          "internalType": "address",
          "name": "account",
          "type": "address"
        },
        {
          "internalType": "bytes32",
          "name": "neededRole",
          "type": "bytes32"
        }
      ],
      "name": "AccessControlUnauthorizedAccount",
      "type": "error"
    },
    {
      "inputs": [
        {
          "internalType": "address",
          "name": "spender",
          "type": "address"
        },
        {
          "internalType": "uint256",
          "name": "allowance",
          "type": "uint256"
        },
        {
          "internalType": "uint256",
          "name": "needed",
          "type": "uint256"
        }
      ],
      "name": "ERC20InsufficientAllowance",
      "type": "error"
    },
    {
      "inputs": [
        {
          "internalType": "address",
          "name": "sender",
          "type": "address"
        },
        {
          "internalType": "uint256",
          "name": "balance",
          "type": "uint256"
        },
        {
          "internalType": "uint256",
          "name": "needed",
          "type": "uint256"
        }
      ],
      "name": "ERC20InsufficientBalance",
      "type": "error"
    },
    {
      "inputs": [
        {
          "internalType": "address",
          "name": "approver",
          "type": "address"
        }
      ],
      "name": "ERC20InvalidApprover",
      "type": "error"
    },
    {
      "inputs": [
        {
          "internalType": "address",
          "name": "receiver",
          "type": "address"
        }
      ],
      "name": "ERC20InvalidReceiver",
      "type": "error"
    },
    {
      "inputs": [
        {
          "internalType": "address",
          "name": "sender",
          "type": "address"
        }
      ],
      "name": "ERC20InvalidSender",
      "type": "error"
    },
    {
      "inputs": [
        {
          "internalType": "address",
          "name": "spender",
          "type": "address"
        }
      ],
      "name": "ERC20InvalidSpender",
      "type": "error"
    },
    {
      "inputs": [],
      "name": "ReentrancyGuardReentrantCall",
      "type": "error"
    },
    {
      "anonymous": false,
      "inputs": [
        {
          "indexed": true,
          "internalType": "address",
          "name": "owner",
          "type": "address"
        },
        {
          "indexed": true,
          "internalType": "address",
          "name": "spender",
          "type": "address"
        },
        {
          "indexed": false,
          "internalType": "uint256",
          "name": "value",
          "type": "uint256"
        }
      ],
      "name": "Approval",
      "type": "event"
    },
    {
      "anonymous": false,
      "inputs": [
        {
          "indexed": true,
          "internalType": "address",
          "name": "_account",
          "type": "address"
        },
        {
          "indexed": false,
          "internalType": "uint256",
          "name": "_amount",
          "type": "uint256"
        }
      ],
      "name": "BurnSuccess",
      "type": "event"
    },
    {
      "anonymous": false,
      "inputs": [
        {
          "indexed": true,
          "internalType": "uint256",
          "name": "_courseId",
          "type": "uint256"
        },
        {
          "indexed": true,
          "internalType": "uint256",
          "name": "numberOfChapters",
          "type": "uint256"
        }
      ],
      "name": "ChaptersAddedSuccessfully",
      "type": "event"
    },
    {
      "anonymous": false,
      "inputs": [
        {
          "indexed": false,
          "internalType": "uint256",
          "name": "questionId",
          "type": "uint256"
        },
        {
          "indexed": false,
          "internalType": "uint256",
          "name": "choiceId",
          "type": "uint256"
        },
        {
          "indexed": false,
          "internalType": "string",
          "name": "option",
          "type": "string"
        }
      ],
      "name": "ChoiceAdded",
      "type": "event"
    },
    {
      "anonymous": false,
      "inputs": [
        {
          "indexed": true,
          "internalType": "uint256",
          "name": "_courseID",
          "type": "uint256"
        },
        {
          "indexed": true,
          "internalType": "string",
          "name": "_courseName",
          "type": "string"
        },
        {
          "indexed": false,
          "internalType": "bool",
          "name": "_approved",
          "type": "bool"
        }
      ],
      "name": "CourseCreationSuccess",
      "type": "event"
    },
    {
      "anonymous": false,
      "inputs": [
        {
          "indexed": true,
          "internalType": "address",
          "name": "_to",
          "type": "address"
        },
        {
          "indexed": true,
          "internalType": "uint256",
          "name": "_amount",
          "type": "uint256"
        }
      ],
      "name": "EcosystemPoolUpdate",
      "type": "event"
    },
    {
      "anonymous": false,
      "inputs": [
        {
          "indexed": true,
          "internalType": "uint256",
          "name": "_courseId",
          "type": "uint256"
        },
        {
          "indexed": true,
          "internalType": "address",
          "name": "_by",
          "type": "address"
        }
      ],
      "name": "EnrollmentSuccess",
      "type": "event"
    },
    {
      "anonymous": false,
      "inputs": [
        {
          "indexed": true,
          "internalType": "uint256",
          "name": "_lessonId",
          "type": "uint256"
        },
        {
          "indexed": true,
          "internalType": "string",
          "name": "_lessonName",
          "type": "string"
        },
        {
          "indexed": true,
          "internalType": "uint256",
          "name": "_additonalResources",
          "type": "uint256"
        }
      ],
      "name": "LessonCreationSuccess",
      "type": "event"
    },
    {
      "anonymous": false,
      "inputs": [
        {
          "indexed": true,
          "internalType": "address",
          "name": "_to",
          "type": "address"
        },
        {
          "indexed": true,
          "internalType": "uint256",
          "name": "_amount",
          "type": "uint256"
        }
      ],
      "name": "MintSuccess",
      "type": "event"
    },
    {
      "anonymous": false,
      "inputs": [
        {
          "indexed": true,
          "internalType": "uint256",
          "name": "proposalId",
          "type": "uint256"
        },
        {
          "indexed": false,
          "internalType": "address",
          "name": "approver",
          "type": "address"
        }
      ],
      "name": "MultiSigProposalApproved",
      "type": "event"
    },
    {
      "anonymous": false,
      "inputs": [
        {
          "indexed": true,
          "internalType": "uint256",
          "name": "proposalId",
          "type": "uint256"
        },
        {
          "indexed": false,
          "internalType": "address",
          "name": "proposer",
          "type": "address"
        }
      ],
      "name": "MultiSigProposalCreated",
      "type": "event"
    },
    {
      "anonymous": false,
      "inputs": [
        {
          "indexed": true,
          "internalType": "uint256",
          "name": "proposalId",
          "type": "uint256"
        }
      ],
      "name": "MultiSigProposalExecuted",
      "type": "event"
    },
    {
      "anonymous": false,
      "inputs": [
        {
          "indexed": false,
          "internalType": "uint256",
          "name": "quizId",
          "type": "uint256"
        },
        {
          "indexed": false,
          "internalType": "uint256",
          "name": "questionId",
          "type": "uint256"
        },
        {
          "indexed": false,
          "internalType": "string",
          "name": "questionText",
          "type": "string"
        }
      ],
      "name": "QuestionAdded",
      "type": "event"
    },
    {
      "anonymous": false,
      "inputs": [
        {
          "indexed": true,
          "internalType": "uint256",
          "name": "_quizId",
          "type": "uint256"
        },
        {
          "indexed": true,
          "internalType": "string",
          "name": "_title",
          "type": "string"
        }
      ],
      "name": "QuizCreatedSuccess",
      "type": "event"
    },
    {
      "anonymous": false,
      "inputs": [
        {
          "indexed": true,
          "internalType": "uint256",
          "name": "_lessonId",
          "type": "uint256"
        },
        {
          "indexed": true,
          "internalType": "uint256",
          "name": "resourceCount",
          "type": "uint256"
        }
      ],
      "name": "ResourceAddSuccess",
      "type": "event"
    },
    {
      "anonymous": false,
      "inputs": [
        {
          "indexed": true,
          "internalType": "address",
          "name": "reviewer",
          "type": "address"
        }
      ],
      "name": "ReviewerAddedToPool",
      "type": "event"
    },
    {
      "anonymous": false,
      "inputs": [
        {
          "indexed": true,
          "internalType": "address",
          "name": "reviewer",
          "type": "address"
        }
      ],
      "name": "ReviewerRemovedFromPool",
      "type": "event"
    },
    {
      "anonymous": false,
      "inputs": [
        {
          "indexed": true,
          "internalType": "uint256",
          "name": "courseId",
          "type": "uint256"
        },
        {
          "indexed": false,
          "internalType": "address[]",
          "name": "reviewers",
          "type": "address[]"
        }
      ],
      "name": "ReviewersSelected",
      "type": "event"
    },
    {
      "anonymous": false,
      "inputs": [
        {
          "indexed": true,
          "internalType": "bytes32",
          "name": "role",
          "type": "bytes32"
        },
        {
          "indexed": true,
          "internalType": "bytes32",
          "name": "previousAdminRole",
          "type": "bytes32"
        },
        {
          "indexed": true,
          "internalType": "bytes32",
          "name": "newAdminRole",
          "type": "bytes32"
        }
      ],
      "name": "RoleAdminChanged",
      "type": "event"
    },
    {
      "anonymous": false,
      "inputs": [
        {
          "indexed": true,
          "internalType": "bytes32",
          "name": "role",
          "type": "bytes32"
        },
        {
          "indexed": true,
          "internalType": "address",
          "name": "account",
          "type": "address"
        },
        {
          "indexed": true,
          "internalType": "address",
          "name": "sender",
          "type": "address"
        }
      ],
      "name": "RoleGranted",
      "type": "event"
    },
    {
      "anonymous": false,
      "inputs": [
        {
          "indexed": true,
          "internalType": "bytes32",
          "name": "role",
          "type": "bytes32"
        },
        {
          "indexed": true,
          "internalType": "address",
          "name": "account",
          "type": "address"
        },
        {
          "indexed": true,
          "internalType": "address",
          "name": "sender",
          "type": "address"
        }
      ],
      "name": "RoleRevoked",
      "type": "event"
    },
    {
      "anonymous": false,
      "inputs": [
        {
          "indexed": true,
          "internalType": "address",
          "name": "from",
          "type": "address"
        },
        {
          "indexed": true,
          "internalType": "address",
          "name": "to",
          "type": "address"
        },
        {
          "indexed": false,
          "internalType": "uint256",
          "name": "value",
          "type": "uint256"
        }
      ],
      "name": "Transfer",
      "type": "event"
    },
    {
      "anonymous": false,
      "inputs": [
        {
          "indexed": true,
          "internalType": "uint256",
          "name": "_courseId",
          "type": "uint256"
        },
        {
          "indexed": true,
          "internalType": "address",
          "name": "_by",
          "type": "address"
        }
      ],
      "name": "unEnrollmentSuccess",
      "type": "event"
    },
    {
      "inputs": [],
      "name": "COURSE_OWNER_ROLE",
      "outputs": [
        {
          "internalType": "bytes32",
          "name": "",
          "type": "bytes32"
        }
      ],
      "stateMutability": "view",
      "type": "function"
    },
    {
      "inputs": [],
      "name": "CREATE_COURSE_REWARD",
      "outputs": [
        {
          "internalType": "uint256",
          "name": "",
          "type": "uint256"
        }
      ],
      "stateMutability": "view",
      "type": "function"
    },
    {
      "inputs": [],
      "name": "DEFAULT_ADMIN_ROLE",
      "outputs": [
        {
          "internalType": "bytes32",
          "name": "",
          "type": "bytes32"
        }
      ],
      "stateMutability": "view",
      "type": "function"
    },
    {
      "inputs": [],
      "name": "ECOSYSTEM_POOL",
      "outputs": [
        {
          "internalType": "uint256",
          "name": "",
          "type": "uint256"
        }
      ],
      "stateMutability": "view",
      "type": "function"
    },
    {
      "inputs": [],
      "name": "ENROLLMENT_REWARD",
      "outputs": [
        {
          "internalType": "uint256",
          "name": "",
          "type": "uint256"
        }
      ],
      "stateMutability": "view",
      "type": "function"
    },
    {
      "inputs": [],
      "name": "MAX_SCORE",
      "outputs": [
        {
          "internalType": "uint256",
          "name": "",
          "type": "uint256"
        }
      ],
      "stateMutability": "view",
      "type": "function"
    },
    {
      "inputs": [],
      "name": "MAX_SUPPLY",
      "outputs": [
        {
          "internalType": "uint256",
          "name": "",
          "type": "uint256"
        }
      ],
      "stateMutability": "view",
      "type": "function"
    },
    {
      "inputs": [],
      "name": "MIN_APPROVAL_SCORE",
      "outputs": [
        {
          "internalType": "uint256",
          "name": "",
          "type": "uint256"
        }
      ],
      "stateMutability": "view",
      "type": "function"
    },
    {
      "inputs": [],
      "name": "MULTISIG_APPROVER",
      "outputs": [
        {
          "internalType": "bytes32",
          "name": "",
          "type": "bytes32"
        }
      ],
      "stateMutability": "view",
      "type": "function"
    },
    {
      "inputs": [],
      "name": "REQUIRED_APPROVALS",
      "outputs": [
        {
          "internalType": "uint256",
          "name": "",
          "type": "uint256"
        }
      ],
      "stateMutability": "view",
      "type": "function"
    },
    {
      "inputs": [],
      "name": "REVIEWER_ROLE",
      "outputs": [
        {
          "internalType": "bytes32",
          "name": "",
          "type": "bytes32"
        }
      ],
      "stateMutability": "view",
      "type": "function"
    },
    {
      "inputs": [
        {
          "internalType": "address",
          "name": "",
          "type": "address"
        }
      ],
      "name": "accountCourses",
      "outputs": [
        {
          "internalType": "uint256",
          "name": "courseCount",
          "type": "uint256"
        }
      ],
      "stateMutability": "view",
      "type": "function"
    },
    {
      "inputs": [
        {
          "internalType": "uint256",
          "name": "_courseId",
          "type": "uint256"
        },
        {
          "internalType": "string[]",
          "name": "_chapters",
          "type": "string[]"
        }
      ],
      "name": "addChapters",
      "outputs": [
        {
          "internalType": "bool",
          "name": "",
          "type": "bool"
        }
      ],
      "stateMutability": "nonpayable",
      "type": "function"
    },
    {
      "inputs": [
        {
          "internalType": "uint256",
          "name": "_chapterId",
          "type": "uint256"
        },
        {
          "internalType": "string",
          "name": "_lessonName",
          "type": "string"
        },
        {
          "internalType": "string",
          "name": "_lessonContent",
          "type": "string"
        }
      ],
      "name": "addLesson",
      "outputs": [],
      "stateMutability": "nonpayable",
      "type": "function"
    },
    {
      "inputs": [
        {
          "internalType": "uint256",
          "name": "_lessonId",
          "type": "uint256"
        },
        {
          "internalType": "enum Ecosystem.ContentType",
          "name": "contentType",
          "type": "uint8"
        },
        {
          "components": [
            {
              "internalType": "enum Ecosystem.ContentType",
              "name": "contentType",
              "type": "uint8"
            },
            {
              "internalType": "string",
              "name": "url",
              "type": "string"
            },
            {
              "internalType": "string",
              "name": "name",
              "type": "string"
            }
          ],
          "internalType": "struct Ecosystem.Resource[]",
          "name": "_resources",
          "type": "tuple[]"
        }
      ],
      "name": "addResourcesToLesson",
      "outputs": [],
      "stateMutability": "nonpayable",
      "type": "function"
    },
    {
      "inputs": [
        {
          "internalType": "address",
          "name": "newReviewer",
          "type": "address"
        }
      ],
      "name": "addReviewer",
      "outputs": [],
      "stateMutability": "nonpayable",
      "type": "function"
    },
    {
      "inputs": [
        {
          "internalType": "address",
          "name": "owner",
          "type": "address"
        },
        {
          "internalType": "address",
          "name": "spender",
          "type": "address"
        }
      ],
      "name": "allowance",
      "outputs": [
        {
          "internalType": "uint256",
          "name": "",
          "type": "uint256"
        }
      ],
      "stateMutability": "view",
      "type": "function"
    },
    {
      "inputs": [
        {
          "internalType": "address",
          "name": "",
          "type": "address"
        },
        {
          "internalType": "uint256",
          "name": "",
          "type": "uint256"
        }
      ],
      "name": "approvals",
      "outputs": [
        {
          "internalType": "bool",
          "name": "",
          "type": "bool"
        }
      ],
      "stateMutability": "view",
      "type": "function"
    },
    {
      "inputs": [
        {
          "internalType": "address",
          "name": "spender",
          "type": "address"
        },
        {
          "internalType": "uint256",
          "name": "value",
          "type": "uint256"
        }
      ],
      "name": "approve",
      "outputs": [
        {
          "internalType": "bool",
          "name": "",
          "type": "bool"
        }
      ],
      "stateMutability": "nonpayable",
      "type": "function"
    },
    {
      "inputs": [
        {
          "internalType": "uint256",
          "name": "_courseId",
          "type": "uint256"
        }
      ],
      "name": "approveCourse",
      "outputs": [],
      "stateMutability": "nonpayable",
      "type": "function"
    },
    {
      "inputs": [
        {
          "internalType": "uint256",
          "name": "_proposalId",
          "type": "uint256"
        }
      ],
      "name": "approveMultiSigProposal",
      "outputs": [],
      "stateMutability": "nonpayable",
      "type": "function"
    },
    {
      "inputs": [
        {
          "internalType": "address",
          "name": "account",
          "type": "address"
        }
      ],
      "name": "balanceOf",
      "outputs": [
        {
          "internalType": "uint256",
          "name": "",
          "type": "uint256"
        }
      ],
      "stateMutability": "view",
      "type": "function"
    },
    {
      "inputs": [
        {
          "internalType": "uint256",
          "name": "",
          "type": "uint256"
        }
      ],
      "name": "chapter",
      "outputs": [
        {
          "internalType": "uint256",
          "name": "courseId",
          "type": "uint256"
        },
        {
          "internalType": "uint256",
          "name": "chapterId",
          "type": "uint256"
        },
        {
          "internalType": "string",
          "name": "chapterName",
          "type": "string"
        },
        {
          "internalType": "bool",
          "name": "exists",
          "type": "bool"
        }
      ],
      "stateMutability": "view",
      "type": "function"
    },
    {
      "inputs": [
        {
          "internalType": "uint256",
          "name": "",
          "type": "uint256"
        },
        {
          "internalType": "uint256",
          "name": "",
          "type": "uint256"
        }
      ],
      "name": "chapterLessons",
      "outputs": [
        {
          "internalType": "string",
          "name": "",
          "type": "string"
        }
      ],
      "stateMutability": "view",
      "type": "function"
    },
    {
      "inputs": [
        {
          "internalType": "uint256",
          "name": "",
          "type": "uint256"
        },
        {
          "internalType": "uint256",
          "name": "",
          "type": "uint256"
        }
      ],
      "name": "courseChapters",
      "outputs": [
        {
          "internalType": "uint256",
          "name": "courseId",
          "type": "uint256"
        },
        {
          "internalType": "uint256",
          "name": "chapterId",
          "type": "uint256"
        },
        {
          "internalType": "string",
          "name": "chapterName",
          "type": "string"
        },
        {
          "internalType": "bool",
          "name": "exists",
          "type": "bool"
        }
      ],
      "stateMutability": "view",
      "type": "function"
    },
    {
      "inputs": [],
      "name": "courseCount",
      "outputs": [
        {
          "internalType": "uint256",
          "name": "",
          "type": "uint256"
        }
      ],
      "stateMutability": "view",
      "type": "function"
    },
    {
      "inputs": [
        {
          "internalType": "uint256",
          "name": "",
          "type": "uint256"
        }
      ],
      "name": "courseObject",
      "outputs": [
        {
          "internalType": "uint256",
          "name": "courseId",
          "type": "uint256"
        },
        {
          "internalType": "string",
          "name": "courseName",
          "type": "string"
        },
        {
          "internalType": "string",
          "name": "description",
          "type": "string"
        },
        {
          "internalType": "bool",
          "name": "approved",
          "type": "bool"
        },
        {
          "internalType": "uint256",
          "name": "approvalCount",
          "type": "uint256"
        },
        {
          "internalType": "address",
          "name": "creator",
          "type": "address"
        },
        {
          "internalType": "bool",
          "name": "exists",
          "type": "bool"
        }
      ],
      "stateMutability": "view",
      "type": "function"
    },
    {
      "inputs": [
        {
          "internalType": "uint256",
          "name": "",
          "type": "uint256"
        }
      ],
      "name": "courseReviewInitiated",
      "outputs": [
        {
          "internalType": "bool",
          "name": "",
          "type": "bool"
        }
      ],
      "stateMutability": "view",
      "type": "function"
    },
    {
      "inputs": [
        {
          "internalType": "uint256",
          "name": "",
          "type": "uint256"
        },
        {
          "internalType": "uint256",
          "name": "",
          "type": "uint256"
        }
      ],
      "name": "courseReviewers",
      "outputs": [
        {
          "internalType": "address",
          "name": "",
          "type": "address"
        }
      ],
      "stateMutability": "view",
      "type": "function"
    },
    {
      "inputs": [
        {
          "internalType": "string",
          "name": "_courseName",
          "type": "string"
        },
        {
          "internalType": "string",
          "name": "_description",
          "type": "string"
        }
      ],
      "name": "createCourse",
      "outputs": [
        {
          "internalType": "bool",
          "name": "",
          "type": "bool"
        }
      ],
      "stateMutability": "nonpayable",
      "type": "function"
    },
    {
      "inputs": [
        {
          "internalType": "uint256",
          "name": "_quizId",
          "type": "uint256"
        },
        {
          "internalType": "string",
          "name": "_questionText",
          "type": "string"
        },
        {
          "internalType": "string[]",
          "name": "_options",
          "type": "string[]"
        },
        {
          "internalType": "uint8",
          "name": "_correctChoiceIndex",
          "type": "uint8"
        }
      ],
      "name": "createQuestionWithChoices",
      "outputs": [],
      "stateMutability": "nonpayable",
      "type": "function"
    },
    {
      "inputs": [
        {
          "internalType": "uint256",
          "name": "_lessonId",
          "type": "uint256"
        },
        {
          "internalType": "string",
          "name": "_title",
          "type": "string"
        }
      ],
      "name": "createQuiz",
      "outputs": [
        {
          "internalType": "uint256",
          "name": "",
          "type": "uint256"
        }
      ],
      "stateMutability": "nonpayable",
      "type": "function"
    },
    {
      "inputs": [],
      "name": "decimals",
      "outputs": [
        {
          "internalType": "uint8",
          "name": "",
          "type": "uint8"
        }
      ],
      "stateMutability": "view",
      "type": "function"
    },
    {
      "inputs": [],
      "name": "ecosystemPoolSupply",
      "outputs": [
        {
          "internalType": "uint256",
          "name": "",
          "type": "uint256"
        }
      ],
      "stateMutability": "view",
      "type": "function"
    },
    {
      "inputs": [
        {
          "internalType": "uint256",
          "name": "_courseId",
          "type": "uint256"
        }
      ],
      "name": "enroll",
      "outputs": [
        {
          "internalType": "bool",
          "name": "",
          "type": "bool"
        }
      ],
      "stateMutability": "nonpayable",
      "type": "function"
    },
    {
      "inputs": [],
      "name": "getAllChapters",
      "outputs": [
        {
          "components": [
            {
              "internalType": "uint256",
              "name": "courseId",
              "type": "uint256"
            },
            {
              "internalType": "uint256",
              "name": "chapterId",
              "type": "uint256"
            },
            {
              "internalType": "string",
              "name": "chapterName",
              "type": "string"
            },
            {
              "internalType": "bool",
              "name": "exists",
              "type": "bool"
            }
          ],
          "internalType": "struct Ecosystem.Chapter[]",
          "name": "",
          "type": "tuple[]"
        }
      ],
      "stateMutability": "view",
      "type": "function"
    },
    {
      "inputs": [],
      "name": "getAllCourses",
      "outputs": [
        {
          "components": [
            {
              "internalType": "uint256",
              "name": "courseId",
              "type": "uint256"
            },
            {
              "internalType": "string",
              "name": "courseName",
              "type": "string"
            },
            {
              "internalType": "string",
              "name": "description",
              "type": "string"
            },
            {
              "internalType": "bool",
              "name": "approved",
              "type": "bool"
            },
            {
              "internalType": "uint256",
              "name": "approvalCount",
              "type": "uint256"
            },
            {
              "internalType": "address",
              "name": "creator",
              "type": "address"
            },
            {
              "internalType": "bool",
              "name": "exists",
              "type": "bool"
            },
            {
              "internalType": "address[]",
              "name": "enrolledStudents",
              "type": "address[]"
            }
          ],
          "internalType": "struct Ecosystem.Course[]",
          "name": "",
          "type": "tuple[]"
        }
      ],
      "stateMutability": "view",
      "type": "function"
    },
    {
      "inputs": [],
      "name": "getAllLessons",
      "outputs": [
        {
          "components": [
            {
              "internalType": "uint256",
              "name": "chapterId",
              "type": "uint256"
            },
            {
              "internalType": "uint256",
              "name": "lessonId",
              "type": "uint256"
            },
            {
              "internalType": "string",
              "name": "lessonName",
              "type": "string"
            },
            {
              "internalType": "string",
              "name": "lessonContent",
              "type": "string"
            },
            {
              "components": [
                {
                  "internalType": "enum Ecosystem.ContentType",
                  "name": "contentType",
                  "type": "uint8"
                },
                {
                  "internalType": "string",
                  "name": "url",
                  "type": "string"
                },
                {
                  "internalType": "string",
                  "name": "name",
                  "type": "string"
                }
              ],
              "internalType": "struct Ecosystem.Resource[10]",
              "name": "additionalResources",
              "type": "tuple[10]"
            },
            {
              "internalType": "uint256",
              "name": "resourceCount",
              "type": "uint256"
            },
            {
              "internalType": "bool",
              "name": "exists",
              "type": "bool"
            }
          ],
          "internalType": "struct Ecosystem.Lesson[]",
          "name": "",
          "type": "tuple[]"
        }
      ],
      "stateMutability": "view",
      "type": "function"
    },
    {
      "inputs": [],
      "name": "getAllQuizzes",
      "outputs": [
        {
          "components": [
            {
              "internalType": "uint256",
              "name": "lessonId",
              "type": "uint256"
            },
            {
              "internalType": "uint256",
              "name": "quizId",
              "type": "uint256"
            },
            {
              "internalType": "string",
              "name": "quizTitle",
              "type": "string"
            },
            {
              "components": [
                {
                  "internalType": "uint256",
                  "name": "quizId",
                  "type": "uint256"
                },
                {
                  "internalType": "uint256",
                  "name": "questionId",
                  "type": "uint256"
                },
                {
                  "internalType": "string",
                  "name": "questionText",
                  "type": "string"
                },
                {
                  "components": [
                    {
                      "internalType": "string",
                      "name": "option",
                      "type": "string"
                    },
                    {
                      "internalType": "bool",
                      "name": "isCorrect",
                      "type": "bool"
                    }
                  ],
                  "internalType": "struct Ecosystem.Choice[]",
                  "name": "choices",
                  "type": "tuple[]"
                }
              ],
              "internalType": "struct Ecosystem.Question[]",
              "name": "questions",
              "type": "tuple[]"
            },
            {
              "internalType": "bool",
              "name": "exists",
              "type": "bool"
            }
          ],
          "internalType": "struct Ecosystem.Quiz[]",
          "name": "",
          "type": "tuple[]"
        }
      ],
      "stateMutability": "view",
      "type": "function"
    },
    {
      "inputs": [
        {
          "internalType": "uint256",
          "name": "_courseId",
          "type": "uint256"
        }
      ],
      "name": "getChapters",
      "outputs": [
        {
          "components": [
            {
              "internalType": "uint256",
              "name": "courseId",
              "type": "uint256"
            },
            {
              "internalType": "uint256",
              "name": "chapterId",
              "type": "uint256"
            },
            {
              "internalType": "string",
              "name": "chapterName",
              "type": "string"
            },
            {
              "internalType": "bool",
              "name": "exists",
              "type": "bool"
            }
          ],
          "internalType": "struct Ecosystem.Chapter[]",
          "name": "",
          "type": "tuple[]"
        }
      ],
      "stateMutability": "view",
      "type": "function"
    },
    {
      "inputs": [
        {
          "internalType": "uint256",
          "name": "courseId",
          "type": "uint256"
        }
      ],
      "name": "getCourseReviewers",
      "outputs": [
        {
          "internalType": "address[]",
          "name": "",
          "type": "address[]"
        }
      ],
      "stateMutability": "view",
      "type": "function"
    },
    {
      "inputs": [],
      "name": "getCurrentEcosystemPoolSupply",
      "outputs": [
        {
          "internalType": "uint256",
          "name": "",
          "type": "uint256"
        }
      ],
      "stateMutability": "view",
      "type": "function"
    },
    {
      "inputs": [
        {
          "internalType": "uint256",
          "name": "_quizId",
          "type": "uint256"
        }
      ],
      "name": "getQuestionsForQuiz",
      "outputs": [
        {
          "components": [
            {
              "internalType": "uint256",
              "name": "quizId",
              "type": "uint256"
            },
            {
              "internalType": "uint256",
              "name": "questionId",
              "type": "uint256"
            },
            {
              "internalType": "string",
              "name": "questionText",
              "type": "string"
            },
            {
              "components": [
                {
                  "internalType": "string",
                  "name": "option",
                  "type": "string"
                },
                {
                  "internalType": "bool",
                  "name": "isCorrect",
                  "type": "bool"
                }
              ],
              "internalType": "struct Ecosystem.Choice[]",
              "name": "choices",
              "type": "tuple[]"
            }
          ],
          "internalType": "struct Ecosystem.Question[]",
          "name": "",
          "type": "tuple[]"
        }
      ],
      "stateMutability": "view",
      "type": "function"
    },
    {
      "inputs": [
        {
          "internalType": "uint256",
          "name": "_quizId",
          "type": "uint256"
        }
      ],
      "name": "getQuiz",
      "outputs": [
        {
          "components": [
            {
              "internalType": "uint256",
              "name": "lessonId",
              "type": "uint256"
            },
            {
              "internalType": "uint256",
              "name": "quizId",
              "type": "uint256"
            },
            {
              "internalType": "string",
              "name": "quizTitle",
              "type": "string"
            },
            {
              "components": [
                {
                  "internalType": "uint256",
                  "name": "quizId",
                  "type": "uint256"
                },
                {
                  "internalType": "uint256",
                  "name": "questionId",
                  "type": "uint256"
                },
                {
                  "internalType": "string",
                  "name": "questionText",
                  "type": "string"
                },
                {
                  "components": [
                    {
                      "internalType": "string",
                      "name": "option",
                      "type": "string"
                    },
                    {
                      "internalType": "bool",
                      "name": "isCorrect",
                      "type": "bool"
                    }
                  ],
                  "internalType": "struct Ecosystem.Choice[]",
                  "name": "choices",
                  "type": "tuple[]"
                }
              ],
              "internalType": "struct Ecosystem.Question[]",
              "name": "questions",
              "type": "tuple[]"
            },
            {
              "internalType": "bool",
              "name": "exists",
              "type": "bool"
            }
          ],
          "internalType": "struct Ecosystem.Quiz",
          "name": "",
          "type": "tuple"
        }
      ],
      "stateMutability": "view",
      "type": "function"
    },
    {
      "inputs": [
        {
          "internalType": "bytes32",
          "name": "role",
          "type": "bytes32"
        }
      ],
      "name": "getRoleAdmin",
      "outputs": [
        {
          "internalType": "bytes32",
          "name": "",
          "type": "bytes32"
        }
      ],
      "stateMutability": "view",
      "type": "function"
    },
    {
      "inputs": [
        {
          "internalType": "bytes32",
          "name": "role",
          "type": "bytes32"
        },
        {
          "internalType": "address",
          "name": "account",
          "type": "address"
        }
      ],
      "name": "grantRole",
      "outputs": [],
      "stateMutability": "nonpayable",
      "type": "function"
    },
    {
      "inputs": [
        {
          "internalType": "bytes32",
          "name": "role",
          "type": "bytes32"
        },
        {
          "internalType": "address",
          "name": "account",
          "type": "address"
        }
      ],
      "name": "hasRole",
      "outputs": [
        {
          "internalType": "bool",
          "name": "",
          "type": "bool"
        }
      ],
      "stateMutability": "view",
      "type": "function"
    },
    {
      "inputs": [
        {
          "internalType": "uint256",
          "name": "",
          "type": "uint256"
        },
        {
          "internalType": "address",
          "name": "",
          "type": "address"
        }
      ],
      "name": "isEnrolled",
      "outputs": [
        {
          "internalType": "bool",
          "name": "",
          "type": "bool"
        }
      ],
      "stateMutability": "view",
      "type": "function"
    },
    {
      "inputs": [
        {
          "internalType": "address",
          "name": "",
          "type": "address"
        }
      ],
      "name": "isInReviewerPool",
      "outputs": [
        {
          "internalType": "bool",
          "name": "",
          "type": "bool"
        }
      ],
      "stateMutability": "view",
      "type": "function"
    },
    {
      "inputs": [
        {
          "internalType": "address",
          "name": "account",
          "type": "address"
        }
      ],
      "name": "isReviewer",
      "outputs": [
        {
          "internalType": "bool",
          "name": "",
          "type": "bool"
        }
      ],
      "stateMutability": "view",
      "type": "function"
    },
    {
      "inputs": [
        {
          "internalType": "uint256",
          "name": "",
          "type": "uint256"
        }
      ],
      "name": "lesson",
      "outputs": [
        {
          "internalType": "uint256",
          "name": "chapterId",
          "type": "uint256"
        },
        {
          "internalType": "uint256",
          "name": "lessonId",
          "type": "uint256"
        },
        {
          "internalType": "string",
          "name": "lessonName",
          "type": "string"
        },
        {
          "internalType": "string",
          "name": "lessonContent",
          "type": "string"
        },
        {
          "internalType": "uint256",
          "name": "resourceCount",
          "type": "uint256"
        },
        {
          "internalType": "bool",
          "name": "exists",
          "type": "bool"
        }
      ],
      "stateMutability": "view",
      "type": "function"
    },
    {
      "inputs": [
        {
          "internalType": "uint256",
          "name": "",
          "type": "uint256"
        }
      ],
      "name": "listOfChapters",
      "outputs": [
        {
          "internalType": "uint256",
          "name": "courseId",
          "type": "uint256"
        },
        {
          "internalType": "uint256",
          "name": "chapterId",
          "type": "uint256"
        },
        {
          "internalType": "string",
          "name": "chapterName",
          "type": "string"
        },
        {
          "internalType": "bool",
          "name": "exists",
          "type": "bool"
        }
      ],
      "stateMutability": "view",
      "type": "function"
    },
    {
      "inputs": [
        {
          "internalType": "uint256",
          "name": "",
          "type": "uint256"
        }
      ],
      "name": "listOfCourses",
      "outputs": [
        {
          "internalType": "uint256",
          "name": "courseId",
          "type": "uint256"
        },
        {
          "internalType": "string",
          "name": "courseName",
          "type": "string"
        },
        {
          "internalType": "string",
          "name": "description",
          "type": "string"
        },
        {
          "internalType": "bool",
          "name": "approved",
          "type": "bool"
        },
        {
          "internalType": "uint256",
          "name": "approvalCount",
          "type": "uint256"
        },
        {
          "internalType": "address",
          "name": "creator",
          "type": "address"
        },
        {
          "internalType": "bool",
          "name": "exists",
          "type": "bool"
        }
      ],
      "stateMutability": "view",
      "type": "function"
    },
    {
      "inputs": [
        {
          "internalType": "uint256",
          "name": "",
          "type": "uint256"
        }
      ],
      "name": "listOfLessons",
      "outputs": [
        {
          "internalType": "uint256",
          "name": "chapterId",
          "type": "uint256"
        },
        {
          "internalType": "uint256",
          "name": "lessonId",
          "type": "uint256"
        },
        {
          "internalType": "string",
          "name": "lessonName",
          "type": "string"
        },
        {
          "internalType": "string",
          "name": "lessonContent",
          "type": "string"
        },
        {
          "internalType": "uint256",
          "name": "resourceCount",
          "type": "uint256"
        },
        {
          "internalType": "bool",
          "name": "exists",
          "type": "bool"
        }
      ],
      "stateMutability": "view",
      "type": "function"
    },
    {
      "inputs": [
        {
          "internalType": "uint256",
          "name": "",
          "type": "uint256"
        }
      ],
      "name": "listOfQuestions",
      "outputs": [
        {
          "internalType": "uint256",
          "name": "quizId",
          "type": "uint256"
        },
        {
          "internalType": "uint256",
          "name": "questionId",
          "type": "uint256"
        },
        {
          "internalType": "string",
          "name": "questionText",
          "type": "string"
        }
      ],
      "stateMutability": "view",
      "type": "function"
    },
    {
      "inputs": [
        {
          "internalType": "uint256",
          "name": "",
          "type": "uint256"
        }
      ],
      "name": "listOfQuizzes",
      "outputs": [
        {
          "internalType": "uint256",
          "name": "lessonId",
          "type": "uint256"
        },
        {
          "internalType": "uint256",
          "name": "quizId",
          "type": "uint256"
        },
        {
          "internalType": "string",
          "name": "quizTitle",
          "type": "string"
        },
        {
          "internalType": "bool",
          "name": "exists",
          "type": "bool"
        }
      ],
      "stateMutability": "view",
      "type": "function"
    },
    {
      "inputs": [
        {
          "internalType": "uint256",
          "name": "",
          "type": "uint256"
        }
      ],
      "name": "listOfResource",
      "outputs": [
        {
          "internalType": "enum Ecosystem.ContentType",
          "name": "contentType",
          "type": "uint8"
        },
        {
          "internalType": "string",
          "name": "url",
          "type": "string"
        },
        {
          "internalType": "string",
          "name": "name",
          "type": "string"
        }
      ],
      "stateMutability": "view",
      "type": "function"
    },
    {
      "inputs": [
        {
          "internalType": "uint256",
          "name": "",
          "type": "uint256"
        }
      ],
      "name": "multiSigProposals",
      "outputs": [
        {
          "internalType": "uint256",
          "name": "id",
          "type": "uint256"
        },
        {
          "internalType": "address",
          "name": "proposer",
          "type": "address"
        },
        {
          "internalType": "address",
          "name": "targetContract",
          "type": "address"
        },
        {
          "internalType": "bytes",
          "name": "data",
          "type": "bytes"
        },
        {
          "internalType": "uint256",
          "name": "approvalCount",
          "type": "uint256"
        },
        {
          "internalType": "bool",
          "name": "executed",
          "type": "bool"
        }
      ],
      "stateMutability": "view",
      "type": "function"
    },
    {
      "inputs": [],
      "name": "name",
      "outputs": [
        {
          "internalType": "string",
          "name": "",
          "type": "string"
        }
      ],
      "stateMutability": "view",
      "type": "function"
    },
    {
      "inputs": [],
      "name": "nextChapterId",
      "outputs": [
        {
          "internalType": "uint256",
          "name": "",
          "type": "uint256"
        }
      ],
      "stateMutability": "view",
      "type": "function"
    },
    {
      "inputs": [],
      "name": "nextChoiceId",
      "outputs": [
        {
          "internalType": "uint256",
          "name": "",
          "type": "uint256"
        }
      ],
      "stateMutability": "view",
      "type": "function"
    },
    {
      "inputs": [],
      "name": "nextCourseId",
      "outputs": [
        {
          "internalType": "uint256",
          "name": "",
          "type": "uint256"
        }
      ],
      "stateMutability": "view",
      "type": "function"
    },
    {
      "inputs": [],
      "name": "nextCourseIdd",
      "outputs": [
        {
          "internalType": "uint256",
          "name": "",
          "type": "uint256"
        }
      ],
      "stateMutability": "view",
      "type": "function"
    },
    {
      "inputs": [],
      "name": "nextLessonId",
      "outputs": [
        {
          "internalType": "uint256",
          "name": "",
          "type": "uint256"
        }
      ],
      "stateMutability": "view",
      "type": "function"
    },
    {
      "inputs": [],
      "name": "nextQuestionId",
      "outputs": [
        {
          "internalType": "uint256",
          "name": "",
          "type": "uint256"
        }
      ],
      "stateMutability": "view",
      "type": "function"
    },
    {
      "inputs": [],
      "name": "nextQuizId",
      "outputs": [
        {
          "internalType": "uint256",
          "name": "",
          "type": "uint256"
        }
      ],
      "stateMutability": "view",
      "type": "function"
    },
    {
      "inputs": [
        {
          "internalType": "uint256",
          "name": "",
          "type": "uint256"
        }
      ],
      "name": "questions",
      "outputs": [
        {
          "internalType": "uint256",
          "name": "quizId",
          "type": "uint256"
        },
        {
          "internalType": "uint256",
          "name": "questionId",
          "type": "uint256"
        },
        {
          "internalType": "string",
          "name": "questionText",
          "type": "string"
        }
      ],
      "stateMutability": "view",
      "type": "function"
    },
    {
      "inputs": [
        {
          "internalType": "uint256",
          "name": "",
          "type": "uint256"
        }
      ],
      "name": "quizzes",
      "outputs": [
        {
          "internalType": "uint256",
          "name": "lessonId",
          "type": "uint256"
        },
        {
          "internalType": "uint256",
          "name": "quizId",
          "type": "uint256"
        },
        {
          "internalType": "string",
          "name": "quizTitle",
          "type": "string"
        },
        {
          "internalType": "bool",
          "name": "exists",
          "type": "bool"
        }
      ],
      "stateMutability": "view",
      "type": "function"
    },
    {
      "inputs": [
        {
          "internalType": "address",
          "name": "reviewer",
          "type": "address"
        }
      ],
      "name": "removeReviewer",
      "outputs": [],
      "stateMutability": "nonpayable",
      "type": "function"
    },
    {
      "inputs": [
        {
          "internalType": "bytes32",
          "name": "role",
          "type": "bytes32"
        },
        {
          "internalType": "address",
          "name": "callerConfirmation",
          "type": "address"
        }
      ],
      "name": "renounceRole",
      "outputs": [],
      "stateMutability": "nonpayable",
      "type": "function"
    },
    {
      "inputs": [
        {
          "internalType": "uint256",
          "name": "",
          "type": "uint256"
        }
      ],
      "name": "reviewerPool",
      "outputs": [
        {
          "internalType": "address",
          "name": "",
          "type": "address"
        }
      ],
      "stateMutability": "view",
      "type": "function"
    },
    {
      "inputs": [
        {
          "internalType": "uint256",
          "name": "",
          "type": "uint256"
        },
        {
          "internalType": "address",
          "name": "",
          "type": "address"
        }
      ],
      "name": "reviews",
      "outputs": [
        {
          "internalType": "uint256",
          "name": "learnerAgency",
          "type": "uint256"
        },
        {
          "internalType": "uint256",
          "name": "criticalThinking",
          "type": "uint256"
        },
        {
          "internalType": "uint256",
          "name": "collaborativeLearning",
          "type": "uint256"
        },
        {
          "internalType": "uint256",
          "name": "reflectivePractice",
          "type": "uint256"
        },
        {
          "internalType": "uint256",
          "name": "adaptiveLearning",
          "type": "uint256"
        },
        {
          "internalType": "uint256",
          "name": "authenticLearning",
          "type": "uint256"
        },
        {
          "internalType": "uint256",
          "name": "technologyIntegration",
          "type": "uint256"
        },
        {
          "internalType": "uint256",
          "name": "learnerSupport",
          "type": "uint256"
        },
        {
          "internalType": "uint256",
          "name": "assessmentForLearning",
          "type": "uint256"
        },
        {
          "internalType": "uint256",
          "name": "engagementAndMotivation",
          "type": "uint256"
        },
        {
          "internalType": "bool",
          "name": "isSubmitted",
          "type": "bool"
        }
      ],
      "stateMutability": "view",
      "type": "function"
    },
    {
      "inputs": [
        {
          "internalType": "bytes32",
          "name": "role",
          "type": "bytes32"
        },
        {
          "internalType": "address",
          "name": "account",
          "type": "address"
        }
      ],
      "name": "revokeRole",
      "outputs": [],
      "stateMutability": "nonpayable",
      "type": "function"
    },
    {
      "inputs": [
        {
          "internalType": "uint256",
          "name": "courseId",
          "type": "uint256"
        }
      ],
      "name": "selectCourseReviewers",
      "outputs": [],
      "stateMutability": "nonpayable",
      "type": "function"
    },
    {
      "inputs": [
        {
          "internalType": "uint256",
          "name": "courseId",
          "type": "uint256"
        },
        {
          "internalType": "uint256",
          "name": "learnerAgency",
          "type": "uint256"
        },
        {
          "internalType": "uint256",
          "name": "criticalThinking",
          "type": "uint256"
        },
        {
          "internalType": "uint256",
          "name": "collaborativeLearning",
          "type": "uint256"
        },
        {
          "internalType": "uint256",
          "name": "reflectivePractice",
          "type": "uint256"
        },
        {
          "internalType": "uint256",
          "name": "adaptiveLearning",
          "type": "uint256"
        },
        {
          "internalType": "uint256",
          "name": "authenticLearning",
          "type": "uint256"
        },
        {
          "internalType": "uint256",
          "name": "technologyIntegration",
          "type": "uint256"
        },
        {
          "internalType": "uint256",
          "name": "learnerSupport",
          "type": "uint256"
        },
        {
          "internalType": "uint256",
          "name": "assessmentForLearning",
          "type": "uint256"
        },
        {
          "internalType": "uint256",
          "name": "engagementAndMotivation",
          "type": "uint256"
        }
      ],
      "name": "submitReview",
      "outputs": [],
      "stateMutability": "nonpayable",
      "type": "function"
    },
    {
      "inputs": [
        {
          "internalType": "bytes4",
          "name": "interfaceId",
          "type": "bytes4"
        }
      ],
      "name": "supportsInterface",
      "outputs": [
        {
          "internalType": "bool",
          "name": "",
          "type": "bool"
        }
      ],
      "stateMutability": "view",
      "type": "function"
    },
    {
      "inputs": [],
      "name": "symbol",
      "outputs": [
        {
          "internalType": "string",
          "name": "",
          "type": "string"
        }
      ],
      "stateMutability": "view",
      "type": "function"
    },
    {
      "inputs": [],
      "name": "totalSupply",
      "outputs": [
        {
          "internalType": "uint256",
          "name": "",
          "type": "uint256"
        }
      ],
      "stateMutability": "view",
      "type": "function"
    },
    {
      "inputs": [
        {
          "internalType": "address",
          "name": "to",
          "type": "address"
        },
        {
          "internalType": "uint256",
          "name": "value",
          "type": "uint256"
        }
      ],
      "name": "transfer",
      "outputs": [
        {
          "internalType": "bool",
          "name": "",
          "type": "bool"
        }
      ],
      "stateMutability": "nonpayable",
      "type": "function"
    },
    {
      "inputs": [
        {
          "internalType": "address",
          "name": "from",
          "type": "address"
        },
        {
          "internalType": "address",
          "name": "to",
          "type": "address"
        },
        {
          "internalType": "uint256",
          "name": "value",
          "type": "uint256"
        }
      ],
      "name": "transferFrom",
      "outputs": [
        {
          "internalType": "bool",
          "name": "",
          "type": "bool"
        }
      ],
      "stateMutability": "nonpayable",
      "type": "function"
    },
    {
      "inputs": [
        {
          "internalType": "uint256",
          "name": "_courseId",
          "type": "uint256"
        }
      ],
      "name": "unEnroll",
      "outputs": [
        {
          "internalType": "bool",
          "name": "",
          "type": "bool"
        }
      ],
      "stateMutability": "nonpayable",
      "type": "function"
    }
  ],
  "bytecode": "0x608060405234801561001057600080fd5b5060405161b49738038061b4978339818101604052810190610032919061063b565b80806040518060400160405280600a81526020017f4142594120544f4b454e000000000000000000000000000000000000000000008152506040518060400160405280600681526020017f414259544b4e000000000000000000000000000000000000000000000000000081525081600390816100af91906108a5565b5080600490816100bf91906108a5565b505050600481511015610107576040517f08c379a00000000000000000000000000000000000000000000000000000000081526004016100fe906109fa565b60405180910390fd5b61011a6000801b336102c060201b60201c565b5061014b7fdf1425bae297c2f52b4f15d18a50b1fc8cb5b981a981b1d213ed3ff92681b64d336102c060201b60201c565b5060005b815181101561029f576101a27fc10c77be35aff266144ed64c26a1fa104bae2f284ae99ac4a34203454704a18583838151811061018f5761018e610a1a565b5b60200260200101516102c060201b60201c565b5060068282815181106101b8576101b7610a1a565b5b60200260200101519080600181540180825580915050600190039060005260206000200160009091909190916101000a81548173ffffffffffffffffffffffffffffffffffffffff021916908373ffffffffffffffffffffffffffffffffffffffff16021790555060016008600084848151811061023957610238610a1a565b5b602002602001015173ffffffffffffffffffffffffffffffffffffffff1673ffffffffffffffffffffffffffffffffffffffff16815260200190815260200160002060006101000a81548160ff021916908315150217905550808060010191505061014f565b50506001600a819055506102b9600b6103be60201b60201c565b5050610a49565b60006102d283836103fd60201b60201c565b6103b35760016005600085815260200190815260200160002060000160008473ffffffffffffffffffffffffffffffffffffffff1673ffffffffffffffffffffffffffffffffffffffff16815260200190815260200160002060006101000a81548160ff02191690831515021790555061035061046860201b60201c565b73ffffffffffffffffffffffffffffffffffffffff168273ffffffffffffffffffffffffffffffffffffffff16847f2f8788117e7eff1d82e926ec794901d17c78024a50270940304540a733656f0d60405160405180910390a4600190506103b8565b600090505b92915050565b60018160000181905550600181600101819055506001816002018190555060018160030181905550600181600401819055506001816005018190555050565b60006005600084815260200190815260200160002060000160008373ffffffffffffffffffffffffffffffffffffffff1673ffffffffffffffffffffffffffffffffffffffff16815260200190815260200160002060009054906101000a900460ff16905092915050565b600033905090565b6000604051905090565b600080fd5b600080fd5b600080fd5b6000601f19601f8301169050919050565b7f4e487b7100000000000000000000000000000000000000000000000000000000600052604160045260246000fd5b6104d282610489565b810181811067ffffffffffffffff821117156104f1576104f061049a565b5b80604052505050565b6000610504610470565b905061051082826104c9565b919050565b600067ffffffffffffffff8211156105305761052f61049a565b5b602082029050602081019050919050565b600080fd5b600073ffffffffffffffffffffffffffffffffffffffff82169050919050565b600061057182610546565b9050919050565b61058181610566565b811461058c57600080fd5b50565b60008151905061059e81610578565b92915050565b60006105b76105b284610515565b6104fa565b905080838252602082019050602084028301858111156105da576105d9610541565b5b835b8181101561060357806105ef888261058f565b8452602084019350506020810190506105dc565b5050509392505050565b600082601f83011261062257610621610484565b5b81516106328482602086016105a4565b91505092915050565b6000602082840312156106515761065061047a565b5b600082015167ffffffffffffffff81111561066f5761066e61047f565b5b61067b8482850161060d565b91505092915050565b600081519050919050565b7f4e487b7100000000000000000000000000000000000000000000000000000000600052602260045260246000fd5b600060028204905060018216806106d657607f821691505b6020821081036106e9576106e861068f565b5b50919050565b60008190508160005260206000209050919050565b60006020601f8301049050919050565b600082821b905092915050565b6000600883026107517fffffffffffffffffffffffffffffffffffffffffffffffffffffffffffffffff82610714565b61075b8683610714565b95508019841693508086168417925050509392505050565b6000819050919050565b6000819050919050565b60006107a261079d61079884610773565b61077d565b610773565b9050919050565b6000819050919050565b6107bc83610787565b6107d06107c8826107a9565b848454610721565b825550505050565b600090565b6107e56107d8565b6107f08184846107b3565b505050565b5b81811015610814576108096000826107dd565b6001810190506107f6565b5050565b601f8211156108595761082a816106ef565b61083384610704565b81016020851015610842578190505b61085661084e85610704565b8301826107f5565b50505b505050565b600082821c905092915050565b600061087c6000198460080261085e565b1980831691505092915050565b6000610895838361086b565b9150826002028217905092915050565b6108ae82610684565b67ffffffffffffffff8111156108c7576108c661049a565b5b6108d182546106be565b6108dc828285610818565b600060209050601f83116001811461090f57600084156108fd578287015190505b6109078582610889565b86555061096f565b601f19841661091d866106ef565b60005b8281101561094557848901518255600182019150602085019450602081019050610920565b86831015610962578489015161095e601f89168261086b565b8355505b6001600288020188555050505b505050505050565b600082825260208201905092915050565b7f4174206c6561737420342072657669657765727320617265207265717569726560008201527f6400000000000000000000000000000000000000000000000000000000000000602082015250565b60006109e4602183610977565b91506109ef82610988565b604082019050919050565b60006020820190508181036000830152610a13816109d7565b9050919050565b7f4e487b7100000000000000000000000000000000000000000000000000000000600052603260045260246000fd5b61aa3f80610a586000396000f3fe608060405234801561001057600080fd5b506004361061048b5760003560e01c80637528499811610262578063b31a4af311610151578063d3751bfc116100ce578063ded5c18d11610092578063ded5c18d14611016578063e503f10814611034578063eb264b9c14611052578063f57d585b14611070578063fdc6258a146110a0578063ffabc673146110d05761048b565b8063d3751bfc14610f5e578063d547741f14610f7a578063d93f2caa14610f96578063dd62ed3e14610fb4578063ddfc79fb14610fe45761048b565b8063c491b04c11610115578063c491b04c14610e91578063c7954e4c14610ec1578063c90c884d14610edf578063c9442dac14610f12578063c976831514610f2e5761048b565b8063b31a4af314610dba578063bad0dd6514610dd6578063bfd2f4c514610df2578063c12804fb14610e27578063c293bbbe14610e615761048b565b8063a1cd05b1116101df578063a3f7e096116101a3578063a3f7e09614610cdc578063a9059cbb14610d0c578063aa95da3a14610d3c578063ac678a9314610d6c578063ac957c6314610d9c5761048b565b8063a1cd05b114610c0d578063a217fddf14610c3d578063a26a795314610c5b578063a296ea5814610c8b578063a3ef204114610ca95761048b565b80638ea6e2fd116102265780638ea6e2fd14610b6757806391d1485414610b8357806395d89b4114610bb35780639bce575114610bd1578063a14ecbdf14610bef5761048b565b80637528499814610ac057806375b9d86914610adc5780637d83daf214610af8578063846f815214610b1657806388409afa14610b345761048b565b806331b1b9781161037e57806352994e2f116102fb5780636a4af0fa116102bf5780636a4af0fa14610a025780636b000fa714610a205780636fdb67f714610a3e57806370a0823114610a7457806373a82b5f14610aa45761048b565b806352994e2f1461095c57806358a3fa251461097a578063599c553314610996578063632c224b146109b457806366055159146109e45761048b565b80633b129a56116103425780633b129a561461087457806340932bf8146108925780634a474b9c146108c75780634d42ef48146108f757806351d93c811461092a5761048b565b806331b1b978146107ba57806332cb6b0c146107ec57806334ed4bdb1461080a57806336568abe1461083a5780633693dcfa146108565761048b565b8063248a9ca31161040c57806329a0be65116103d057806329a0be65146106fd5780632aac61ae1461071b5780632f2ff15d146107505780632fab55af1461076c578063313ce5671461079c5761048b565b8063248a9ca314610628578063274202f01461065857806327ff622314610676578063295b825a146106945780632990db7c146106c75761048b565b806311ce15df1161045357806311ce15df1461054a57806318160ddd1461057a57806319f102ec1461059857806320bd0316146105c857806323b872dd146105f85761048b565b806301ffc9a71461049057806304e48bd1146104c0578063057f46bb146104de57806306fdde03146104fc578063095ea7b31461051a575b600080fd5b6104aa60048036038101906104a5919061799f565b611100565b6040516104b791906179e7565b60405180910390f35b6104c861117a565b6040516104d59190617d2a565b60405180910390f35b6104e6611566565b6040516104f39190617d5b565b60405180910390f35b61050461156c565b6040516105119190617dc0565b60405180910390f35b610534600480360381019061052f9190617e3a565b6115fe565b60405161054191906179e7565b60405180910390f35b610564600480360381019061055f9190617e7a565b611621565b60405161057191906179e7565b60405180910390f35b610582611641565b60405161058f9190617d5b565b60405180910390f35b6105b260048036038101906105ad9190617e7a565b61164b565b6040516105bf9190617eb6565b60405180910390f35b6105e260048036038101906105dd9190617e7a565b61168a565b6040516105ef91906179e7565b60405180910390f35b610612600480360381019061060d9190617ed1565b61199d565b60405161061f91906179e7565b60405180910390f35b610642600480360381019061063d9190617f5a565b6119cc565b60405161064f9190617f96565b60405180910390f35b6106606119ec565b60405161066d9190617d5b565b60405180910390f35b61067e611a14565b60405161068b9190617d5b565b60405180910390f35b6106ae60048036038101906106a99190617e7a565b611a19565b6040516106be9493929190617fb1565b60405180910390f35b6106e160048036038101906106dc9190617e7a565b611aee565b6040516106f49796959493929190617ffd565b60405180910390f35b610705611c7a565b6040516107129190617d5b565b60405180910390f35b61073560048036038101906107309190617e7a565b611c80565b6040516107479695949392919061807a565b60405180910390f35b61076a600480360381019061076591906180e9565b611de9565b005b61078660048036038101906107819190618344565b611e0b565b60405161079391906179e7565b60405180910390f35b6107a46120c5565b6040516107b191906183bc565b60405180910390f35b6107d460048036038101906107cf9190617e7a565b6120ce565b6040516107e3939291906183d7565b60405180910390f35b6107f4612180565b6040516108019190617d5b565b60405180910390f35b610824600480360381019061081f9190618415565b612190565b6040516108319190617d5b565b60405180910390f35b610854600480360381019061084f91906180e9565b6121ae565b005b61085e612229565b60405161086b9190617f96565b60405180910390f35b61087c61224d565b6040516108899190617f96565b60405180910390f35b6108ac60048036038101906108a79190617e7a565b612271565b6040516108be96959493929190618497565b60405180910390f35b6108e160048036038101906108dc9190617e7a565b612382565b6040516108ee919061872a565b60405180910390f35b610911600480360381019061090c919061874c565b61260c565b6040516109219493929190617fb1565b60405180910390f35b610944600480360381019061093f9190617e7a565b6126ee565b604051610953939291906183d7565b60405180910390f35b6109646127b0565b6040516109719190617f96565b60405180910390f35b610994600480360381019061098f919061878c565b6127d4565b005b61099e612a9a565b6040516109ab9190617d5b565b60405180910390f35b6109ce60048036038101906109c99190618880565b612a9f565b6040516109db9190617d5b565b60405180910390f35b6109ec612c63565b6040516109f99190617d5b565b60405180910390f35b610a0a612c69565b604051610a179190618aa1565b60405180910390f35b610a28612ff9565b604051610a359190617d5b565b60405180910390f35b610a586004803603810190610a539190617e7a565b612fff565b604051610a6b9796959493929190617ffd565b60405180910390f35b610a8e6004803603810190610a899190618415565b61319b565b604051610a9b9190617d5b565b60405180910390f35b610abe6004803603810190610ab99190618415565b6131e3565b005b610ada6004803603810190610ad59190617e7a565b6133c7565b005b610af66004803603810190610af19190618ac3565b61371e565b005b610b0061392c565b604051610b0d9190617d5b565b60405180910390f35b610b1e613932565b604051610b2b9190617d5b565b60405180910390f35b610b4e6004803603810190610b499190617e7a565b61393e565b604051610b5e9493929190617fb1565b60405180910390f35b610b816004803603810190610b7c9190617e7a565b613a03565b005b610b9d6004803603810190610b9891906180e9565b613d6d565b604051610baa91906179e7565b60405180910390f35b610bbb613dd8565b604051610bc89190617dc0565b60405180910390f35b610bd9613e6a565b604051610be69190618c73565b60405180910390f35b610bf7613ffb565b604051610c049190617d5b565b60405180910390f35b610c276004803603810190610c22919061874c565b614001565b604051610c349190617eb6565b60405180910390f35b610c4561404f565b604051610c529190617f96565b60405180910390f35b610c756004803603810190610c709190618c95565b614056565b604051610c8291906179e7565b60405180910390f35b610c93614500565b604051610ca09190618ffd565b60405180910390f35b610cc36004803603810190610cbe9190617e7a565b6148d8565b604051610cd39493929190617fb1565b60405180910390f35b610cf66004803603810190610cf19190617e7a565b61499d565b604051610d03919061909c565b60405180910390f35b610d266004803603810190610d219190617e3a565b614cff565b604051610d3391906179e7565b60405180910390f35b610d566004803603810190610d51919061874c565b614d22565b604051610d639190617dc0565b60405180910390f35b610d866004803603810190610d819190617e7a565b614dda565b604051610d939190618c73565b60405180910390f35b610da4614f0d565b604051610db19190617d5b565b60405180910390f35b610dd46004803603810190610dcf919061913e565b614f12565b005b610df06004803603810190610deb9190617e7a565b615304565b005b610e0c6004803603810190610e079190617e7a565b615603565b604051610e1e9695949392919061807a565b60405180910390f35b610e416004803603810190610e3c91906191b2565b61575c565b604051610e589b9a999897969594939291906191f2565b60405180910390f35b610e7b6004803603810190610e769190617e7a565b6157d0565b604051610e88919061930c565b60405180910390f35b610eab6004803603810190610ea69190618415565b615871565b604051610eb891906179e7565b60405180910390f35b610ec9615891565b604051610ed69190617d5b565b60405180910390f35b610ef96004803603810190610ef49190617e7a565b61589b565b604051610f099493929190617fb1565b60405180910390f35b610f2c6004803603810190610f279190618415565b615970565b005b610f486004803603810190610f4391906191b2565b615c5a565b604051610f5591906179e7565b60405180910390f35b610f786004803603810190610f73919061935a565b615c89565b005b610f946004803603810190610f8f91906180e9565b616080565b005b610f9e6160a2565b604051610fab9190617d5b565b60405180910390f35b610fce6004803603810190610fc991906193f9565b6160ae565b604051610fdb9190617d5b565b60405180910390f35b610ffe6004803603810190610ff99190617e7a565b616135565b60405161100d93929190619448565b60405180910390f35b61101e61628c565b60405161102b9190617d5b565b60405180910390f35b61103c616299565b6040516110499190617d5b565b60405180910390f35b61105a61629f565b6040516110679190617d5b565b60405180910390f35b61108a60048036038101906110859190617e7a565b6162a5565b60405161109791906179e7565b60405180910390f35b6110ba60048036038101906110b59190618415565b61655b565b6040516110c791906179e7565b60405180910390f35b6110ea60048036038101906110e59190617e3a565b61658e565b6040516110f791906179e7565b60405180910390f35b60007f7965db0b000000000000000000000000000000000000000000000000000000007bffffffffffffffffffffffffffffffffffffffffffffffffffffffff1916827bffffffffffffffffffffffffffffffffffffffffffffffffffffffff191614806111735750611172826165bd565b5b9050919050565b6060600060268054905067ffffffffffffffff81111561119d5761119c61812e565b5b6040519080825280602002602001820160405280156111d657816020015b6111c36173fe565b8152602001906001900390816111bb5790505b50905060005b60268054905081101561155e57604051806101000160405280602683815481106112095761120861948d565b5b9060005260206000209060070201600001548152602001602683815481106112345761123361948d565b5b90600052602060002090600702016001018054611250906194eb565b80601f016020809104026020016040519081016040528092919081815260200182805461127c906194eb565b80156112c95780601f1061129e576101008083540402835291602001916112c9565b820191906000526020600020905b8154815290600101906020018083116112ac57829003601f168201915b50505050508152602001602683815481106112e7576112e661948d565b5b90600052602060002090600702016002018054611303906194eb565b80601f016020809104026020016040519081016040528092919081815260200182805461132f906194eb565b801561137c5780601f106113515761010080835404028352916020019161137c565b820191906000526020600020905b81548152906001019060200180831161135f57829003601f168201915b505050505081526020016026838154811061139a5761139961948d565b5b906000526020600020906007020160030160009054906101000a900460ff1615158152602001602683815481106113d4576113d361948d565b5b9060005260206000209060070201600401548152602001602683815481106113ff576113fe61948d565b5b906000526020600020906007020160050160009054906101000a900473ffffffffffffffffffffffffffffffffffffffff1673ffffffffffffffffffffffffffffffffffffffff168152602001602683815481106114605761145f61948d565b5b906000526020600020906007020160050160149054906101000a900460ff16151581526020016026838154811061149a5761149961948d565b5b906000526020600020906007020160060180548060200260200160405190810160405280929190818152602001828054801561152b57602002820191906000526020600020905b8160009054906101000a900473ffffffffffffffffffffffffffffffffffffffff1673ffffffffffffffffffffffffffffffffffffffff16815260200190600101908083116114e1575b50505050508152508282815181106115465761154561948d565b5b602002602001018190525080806001019150506111dc565b508091505090565b60145481565b60606003805461157b906194eb565b80601f01602080910402602001604051908101604052809291908181526020018280546115a7906194eb565b80156115f45780601f106115c9576101008083540402835291602001916115f4565b820191906000526020600020905b8154815290600101906020018083116115d757829003601f168201915b5050505050905090565b600080611609616627565b905061161681858561662f565b600191505092915050565b60246020528060005260406000206000915054906101000a900460ff1681565b6000600254905090565b6006818154811061165b57600080fd5b906000526020600020016000915054906101000a900473ffffffffffffffffffffffffffffffffffffffff1681565b6000611694616641565b6025600083815260200190815260200160002060003373ffffffffffffffffffffffffffffffffffffffff1673ffffffffffffffffffffffffffffffffffffffff16815260200190815260200160002060009054906101000a900460ff16611731576040517f08c379a00000000000000000000000000000000000000000000000000000000081526004016117289061958e565b60405180910390fd5b60006025600084815260200190815260200160002060003373ffffffffffffffffffffffffffffffffffffffff1673ffffffffffffffffffffffffffffffffffffffff16815260200190815260200160002060006101000a81548160ff021916908315150217905550600060196000848152602001908152602001600020600601905060005b8180549050811015611934573373ffffffffffffffffffffffffffffffffffffffff168282815481106117ed576117ec61948d565b5b9060005260206000200160009054906101000a900473ffffffffffffffffffffffffffffffffffffffff1673ffffffffffffffffffffffffffffffffffffffff160361192757816001838054905061184591906195dd565b815481106118565761185561948d565b5b9060005260206000200160009054906101000a900473ffffffffffffffffffffffffffffffffffffffff168282815481106118945761189361948d565b5b9060005260206000200160006101000a81548173ffffffffffffffffffffffffffffffffffffffff021916908373ffffffffffffffffffffffffffffffffffffffff160217905550818054806118ed576118ec619611565b5b6001900381819060005260206000200160006101000a81549073ffffffffffffffffffffffffffffffffffffffff02191690559055611934565b80806001019150506117b7565b5061194733671bc16d674ec80000616687565b3373ffffffffffffffffffffffffffffffffffffffff16837f9b244c565b926d7f4e915b69f3a5c6afc2231322d0d44e821076ad8879d0d68360405160405180910390a360019150506119986166ae565b919050565b6000806119a8616627565b90506119b58582856166b8565b6119c085858561674c565b60019150509392505050565b600060056000838152602001908152602001600020600101549050919050565b6064600f6b204fce5e3e25026110000000611a079190619640565b611a1191906196b1565b81565b606481565b602a8181548110611a2957600080fd5b9060005260206000209060050201600091509050806000015490806001015490806002018054611a58906194eb565b80601f0160208091040260200160405190810160405280929190818152602001828054611a84906194eb565b8015611ad15780601f10611aa657610100808354040283529160200191611ad1565b820191906000526020600020905b815481529060010190602001808311611ab457829003601f168201915b5050505050908060040160009054906101000a900460ff16905084565b6019602052806000526040600020600091509050806000015490806001018054611b17906194eb565b80601f0160208091040260200160405190810160405280929190818152602001828054611b43906194eb565b8015611b905780601f10611b6557610100808354040283529160200191611b90565b820191906000526020600020905b815481529060010190602001808311611b7357829003601f168201915b505050505090806002018054611ba5906194eb565b80601f0160208091040260200160405190810160405280929190818152602001828054611bd1906194eb565b8015611c1e5780601f10611bf357610100808354040283529160200191611c1e565b820191906000526020600020905b815481529060010190602001808311611c0157829003601f168201915b5050505050908060030160009054906101000a900460ff16908060040154908060050160009054906101000a900473ffffffffffffffffffffffffffffffffffffffff16908060050160149054906101000a900460ff16905087565b60155481565b60288181548110611c9057600080fd5b9060005260206000209060240201600091509050806000015490806001015490806002018054611cbf906194eb565b80601f0160208091040260200160405190810160405280929190818152602001828054611ceb906194eb565b8015611d385780601f10611d0d57610100808354040283529160200191611d38565b820191906000526020600020905b815481529060010190602001808311611d1b57829003601f168201915b505050505090806003018054611d4d906194eb565b80601f0160208091040260200160405190810160405280929190818152602001828054611d79906194eb565b8015611dc65780601f10611d9b57610100808354040283529160200191611dc6565b820191906000526020600020905b815481529060010190602001808311611da957829003601f168201915b5050505050908060220154908060230160009054906101000a900460ff16905086565b611df2826119cc565b611dfb81616840565b611e058383616854565b50505050565b60008073ffffffffffffffffffffffffffffffffffffffff166019600085815260200190815260200160002060050160009054906101000a900473ffffffffffffffffffffffffffffffffffffffff1673ffffffffffffffffffffffffffffffffffffffff1603611eb1576040517f08c379a0000000000000000000000000000000000000000000000000000000008152600401611ea89061972e565b60405180910390fd5b60005b825181101561208b57600060405180608001604052808681526020016014548152602001858481518110611eeb57611eea61948d565b5b60200260200101518152602001600115158152509050602781908060018154018082558091505060019003906000526020600020906004020160009091909190915060008201518160000155602082015181600101556040820151816002019081611f5691906198fa565b5060608201518160030160006101000a81548160ff021916908315150217905550505080601d6000601454815260200190815260200160002060008201518160000155602082015181600101556040820151816002019081611fb891906198fa565b5060608201518160030160006101000a81548160ff021916908315150217905550905050601e60008681526020019081526020016000208190806001815401808255809150506001900390600052602060002090600402016000909190919091506000820151816000015560208201518160010155604082015181600201908161204291906198fa565b5060608201518160030160006101000a81548160ff021916908315150217905550505060146000815480929190612078906199cc565b9190505550508080600101915050611eb4565b508151837f1eb97e969f52c132bb6c79817d1f9001078fff0cd328ce625628e1fb4cc0e7de60405160405180910390a36001905092915050565b60006012905090565b60226020528060005260406000206000915090508060000154908060010154908060020180546120fd906194eb565b80601f0160208091040260200160405190810160405280929190818152602001828054612129906194eb565b80156121765780601f1061214b57610100808354040283529160200191612176565b820191906000526020600020905b81548152906001019060200180831161215957829003601f168201915b5050505050905083565b6b204fce5e3e2502611000000081565b601b6020528060005260406000206000915090508060000154905081565b6121b6616627565b73ffffffffffffffffffffffffffffffffffffffff168173ffffffffffffffffffffffffffffffffffffffff161461221a576040517f6697b23200000000000000000000000000000000000000000000000000000000815260040160405180910390fd5b6122248282616946565b505050565b7fadb22091b155738d2e889eb96f509d2a7c93234236b30400927feb4a6a15ab0081565b7fc10c77be35aff266144ed64c26a1fa104bae2f284ae99ac4a34203454704a18581565b60096020528060005260406000206000915090508060000154908060010160009054906101000a900473ffffffffffffffffffffffffffffffffffffffff16908060020160009054906101000a900473ffffffffffffffffffffffffffffffffffffffff16908060030180546122e6906194eb565b80601f0160208091040260200160405190810160405280929190818152602001828054612312906194eb565b801561235f5780601f106123345761010080835404028352916020019161235f565b820191906000526020600020905b81548152906001019060200180831161234257829003601f168201915b5050505050908060040154908060050160009054906101000a900460ff16905086565b60606021600083815260200190815260200160002060040160009054906101000a900460ff166123e7576040517f08c379a00000000000000000000000000000000000000000000000000000000081526004016123de90619a60565b60405180910390fd5b60216000838152602001908152602001600020600301805480602002602001604051908101604052809291908181526020016000905b8282101561260157838290600052602060002090600402016040518060800160405290816000820154815260200160018201548152602001600282018054612464906194eb565b80601f0160208091040260200160405190810160405280929190818152602001828054612490906194eb565b80156124dd5780601f106124b2576101008083540402835291602001916124dd565b820191906000526020600020905b8154815290600101906020018083116124c057829003601f168201915b5050505050815260200160038201805480602002602001604051908101604052809291908181526020016000905b828210156125ea578382906000526020600020906002020160405180604001604052908160008201805461253e906194eb565b80601f016020809104026020016040519081016040528092919081815260200182805461256a906194eb565b80156125b75780601f1061258c576101008083540402835291602001916125b7565b820191906000526020600020905b81548152906001019060200180831161259a57829003601f168201915b505050505081526020016001820160009054906101000a900460ff1615151515815250508152602001906001019061250b565b50505050815250508152602001906001019061241d565b505050509050919050565b601e602052816000526040600020818154811061262857600080fd5b906000526020600020906004020160009150915050806000015490806001015490806002018054612658906194eb565b80601f0160208091040260200160405190810160405280929190818152602001828054612684906194eb565b80156126d15780601f106126a6576101008083540402835291602001916126d1565b820191906000526020600020905b8154815290600101906020018083116126b457829003601f168201915b5050505050908060030160009054906101000a900460ff16905084565b602b81815481106126fe57600080fd5b906000526020600020906004020160009150905080600001549080600101549080600201805461272d906194eb565b80601f0160208091040260200160405190810160405280929190818152602001828054612759906194eb565b80156127a65780601f1061277b576101008083540402835291602001916127a6565b820191906000526020600020905b81548152906001019060200180831161278957829003601f168201915b5050505050905083565b7fdf1425bae297c2f52b4f15d18a50b1fc8cb5b981a981b1d213ed3ff92681b64d81565b7fc10c77be35aff266144ed64c26a1fa104bae2f284ae99ac4a34203454704a1856127fe81616840565b6128088c33616a39565b612847576040517f08c379a000000000000000000000000000000000000000000000000000000000815260040161283e90619af2565b60405180910390fd5b601a60008d815260200190815260200160002060003373ffffffffffffffffffffffffffffffffffffffff1673ffffffffffffffffffffffffffffffffffffffff168152602001908152602001600020600a0160009054906101000a900460ff16156128e8576040517f08c379a00000000000000000000000000000000000000000000000000000000081526004016128df90619b84565b60405180910390fd5b6128fa8b8b8b8b8b8b8b8b8b8b616b04565b6040518061016001604052808c81526020018b81526020018a815260200189815260200188815260200187815260200186815260200185815260200184815260200183815260200160011515815250601a60008e815260200190815260200160002060003373ffffffffffffffffffffffffffffffffffffffff1673ffffffffffffffffffffffffffffffffffffffff168152602001908152602001600020600082015181600001556020820151816001015560408201518160020155606082015181600301556080820151816004015560a0820151816005015560c0820151816006015560e082015181600701556101008201518160080155610120820151816009015561014082015181600a0160006101000a81548160ff0219169083151502179055509050506050612a7d601a60008f815260200190815260200160002060003373ffffffffffffffffffffffffffffffffffffffff1673ffffffffffffffffffffffffffffffffffffffff168152602001908152602001600020616bc9565b10612a8c57612a8b8c6133c7565b5b505050505050505050505050565b600281565b6000806016549050601f600085815260200190815260200160002060230160009054906101000a900460ff16612b0a576040517f08c379a0000000000000000000000000000000000000000000000000000000008152600401612b0190619bf0565b60405180910390fd5b600060216000838152602001908152602001600020905084816000018190555081816001018190555083816002019081612b4491906198fa565b5060018160040160006101000a81548160ff02191690831515021790555060166000815480929190612b75906199cc565b9190505550602a819080600181540180825580915050600190039060005260206000209060050201600090919091909150600082015481600001556001820154816001015560028201816002019081612bce9190619c26565b506003820181600301908054612be592919061745d565b506004820160009054906101000a900460ff168160040160006101000a81548160ff021916908315150217905550505083604051612c239190619d4a565b6040518091039020827fbf27702cefbc4aea50d7c73cfee96f84f5b908f62aeafcd8b0aeae202c15050960405160405180910390a3819250505092915050565b60125481565b60606000601654905060008167ffffffffffffffff811115612c8e57612c8d61812e565b5b604051908082528060200260200182016040528015612cc757816020015b612cb46174f5565b815260200190600190039081612cac5790505b50905060005b82811015612ff057602160008281526020019081526020016000206040518060a00160405290816000820154815260200160018201548152602001600282018054612d17906194eb565b80601f0160208091040260200160405190810160405280929190818152602001828054612d43906194eb565b8015612d905780601f10612d6557610100808354040283529160200191612d90565b820191906000526020600020905b815481529060010190602001808311612d7357829003601f168201915b5050505050815260200160038201805480602002602001604051908101604052809291908181526020016000905b82821015612fa257838290600052602060002090600402016040518060800160405290816000820154815260200160018201548152602001600282018054612e05906194eb565b80601f0160208091040260200160405190810160405280929190818152602001828054612e31906194eb565b8015612e7e5780601f10612e5357610100808354040283529160200191612e7e565b820191906000526020600020905b815481529060010190602001808311612e6157829003601f168201915b5050505050815260200160038201805480602002602001604051908101604052809291908181526020016000905b82821015612f8b5783829060005260206000209060020201604051806040016040529081600082018054612edf906194eb565b80601f0160208091040260200160405190810160405280929190818152602001828054612f0b906194eb565b8015612f585780601f10612f2d57610100808354040283529160200191612f58565b820191906000526020600020905b815481529060010190602001808311612f3b57829003601f168201915b505050505081526020016001820160009054906101000a900460ff16151515158152505081526020019060010190612eac565b505050508152505081526020019060010190612dbe565b5050505081526020016004820160009054906101000a900460ff161515151581525050828281518110612fd857612fd761948d565b5b60200260200101819052508080600101915050612ccd565b50809250505090565b60185481565b6026818154811061300f57600080fd5b9060005260206000209060070201600091509050806000015490806001018054613038906194eb565b80601f0160208091040260200160405190810160405280929190818152602001828054613064906194eb565b80156130b15780601f10613086576101008083540402835291602001916130b1565b820191906000526020600020905b81548152906001019060200180831161309457829003601f168201915b5050505050908060020180546130c6906194eb565b80601f01602080910402602001604051908101604052809291908181526020018280546130f2906194eb565b801561313f5780601f106131145761010080835404028352916020019161313f565b820191906000526020600020905b81548152906001019060200180831161312257829003601f168201915b5050505050908060030160009054906101000a900460ff16908060040154908060050160009054906101000a900473ffffffffffffffffffffffffffffffffffffffff16908060050160149054906101000a900460ff16905087565b60008060008373ffffffffffffffffffffffffffffffffffffffff1673ffffffffffffffffffffffffffffffffffffffff168152602001908152602001600020549050919050565b7fc10c77be35aff266144ed64c26a1fa104bae2f284ae99ac4a34203454704a18561320d81616840565b600860008373ffffffffffffffffffffffffffffffffffffffff1673ffffffffffffffffffffffffffffffffffffffff16815260200190815260200160002060009054906101000a900460ff161561329a576040517f08c379a000000000000000000000000000000000000000000000000000000000815260040161329190619dad565b60405180910390fd5b6132c47fc10c77be35aff266144ed64c26a1fa104bae2f284ae99ac4a34203454704a18583616854565b506006829080600181540180825580915050600190039060005260206000200160009091909190916101000a81548173ffffffffffffffffffffffffffffffffffffffff021916908373ffffffffffffffffffffffffffffffffffffffff1602179055506001600860008473ffffffffffffffffffffffffffffffffffffffff1673ffffffffffffffffffffffffffffffffffffffff16815260200190815260200160002060006101000a81548160ff0219169083151502179055508173ffffffffffffffffffffffffffffffffffffffff167fe1cb5e1230cc02e62c60b81c1aa5ade512f3eac296edb28628b4cf344f47f93160405160405180910390a25050565b7fc10c77be35aff266144ed64c26a1fa104bae2f284ae99ac4a34203454704a1856133f181616840565b60006019600084815260200190815260200160002090508060030160009054906101000a900460ff161561345a576040517f08c379a000000000000000000000000000000000000000000000000000000000815260040161345190619e19565b60405180910390fd5b601c60003373ffffffffffffffffffffffffffffffffffffffff1673ffffffffffffffffffffffffffffffffffffffff168152602001908152602001600020600084815260200190815260200160002060009054906101000a900460ff16156134f8576040517f08c379a00000000000000000000000000000000000000000000000000000000081526004016134ef90619eab565b60405180910390fd5b6001601c60003373ffffffffffffffffffffffffffffffffffffffff1673ffffffffffffffffffffffffffffffffffffffff168152602001908152602001600020600085815260200190815260200160002060006101000a81548160ff021916908315150217905550806004016000815480929190613576906199cc565b9190505550600281600401541061369b5760018160030160006101000a81548160ff02191690831515021790555060005b60268054905081101561365e5783602682815481106135c9576135c861948d565b5b90600052602060002090600702016000015403613651576001602682815481106135f6576135f561948d565b5b906000526020600020906007020160030160006101000a81548160ff0219169083151502179055508160040154602682815481106136375761363661948d565b5b90600052602060002090600702016004018190555061365e565b80806001019150506135a7565b506136958160050160009054906101000a900473ffffffffffffffffffffffffffffffffffffffff16674563918244f40000616c5e565b50613719565b60005b6026805490508110156137175783602682815481106136c0576136bf61948d565b5b9060005260206000209060070201600001540361370a578160040154602682815481106136f0576136ef61948d565b5b906000526020600020906007020160040181905550613717565b808060010191505061369e565b505b505050565b60006015549050601d600085815260200190815260200160002060030160009054906101000a900460ff16613788576040517f08c379a000000000000000000000000000000000000000000000000000000000815260040161377f90619f17565b60405180910390fd5b6000601f60008381526020019081526020016000209050848160000181905550818160010181905550838160020190816137c291906198fa565b50828160030190816137d491906198fa565b5060018160230160006101000a81548160ff021916908315150217905550600081602201819055506028601f600084815260200190815260200160002090806001815401808255809150506001900390600052602060002090602402016000909190919091506000820154816000015560018201548160010155600282018160020190816138629190619c26565b50600382018160030190816138779190619c26565b50600482018160040190600a61388e929190617526565b50602282015481602201556023820160009054906101000a900460ff168160230160006101000a81548160ff0219169083151502179055505050601560008154809291906138db906199cc565b9190505550600a846040516138f09190619d4a565b6040518091039020837f3387c3a40ec1df95e34d25a0e5564b40d01c331b71ccbafccccc66d36c84ad8360405160405180910390a45050505050565b60135481565b671bc16d674ec8000081565b602160205280600052604060002060009150905080600001549080600101549080600201805461396d906194eb565b80601f0160208091040260200160405190810160405280929190818152602001828054613999906194eb565b80156139e65780601f106139bb576101008083540402835291602001916139e6565b820191906000526020600020905b8154815290600101906020018083116139c957829003601f168201915b5050505050908060040160009054906101000a900460ff16905084565b7fc10c77be35aff266144ed64c26a1fa104bae2f284ae99ac4a34203454704a185613a2d81616840565b6024600083815260200190815260200160002060009054906101000a900460ff1615613a8e576040517f08c379a0000000000000000000000000000000000000000000000000000000008152600401613a8590619f83565b60405180910390fd5b60036006805490501015613ad7576040517f08c379a0000000000000000000000000000000000000000000000000000000008152600401613ace90619fef565b60405180910390fd5b602360008381526020019081526020016000206000613af691906175d0565b60005b6003811015613cd3576000600680549050424460068054905085604051602001613b26949392919061a030565b6040516020818303038152906040528051906020012060001c613b49919061a07e565b9050600060068281548110613b6157613b6061948d565b5b9060005260206000200160009054906101000a900473ffffffffffffffffffffffffffffffffffffffff1690506000805b6023600088815260200190815260200160002080549050811015613c48578273ffffffffffffffffffffffffffffffffffffffff16602360008981526020019081526020016000208281548110613bec57613beb61948d565b5b9060005260206000200160009054906101000a900473ffffffffffffffffffffffffffffffffffffffff1673ffffffffffffffffffffffffffffffffffffffff1603613c3b5760019150613c48565b8080600101915050613b92565b5080613cc35760236000878152602001908152602001600020829080600181540180825580915050600190039060005260206000200160009091909190916101000a81548173ffffffffffffffffffffffffffffffffffffffff021916908373ffffffffffffffffffffffffffffffffffffffff1602179055505b5050508080600101915050613af9565b506003602360008481526020019081526020016000208054905003613d1f5760016024600084815260200190815260200160002060006101000a81548160ff0219169083151502179055505b817fe205dff861c570b8df17e26f893778853f94bb25d2de318755e48eab0b403ff760236000858152602001908152602001600020604051613d61919061a19b565b60405180910390a25050565b60006005600084815260200190815260200160002060000160008373ffffffffffffffffffffffffffffffffffffffff1673ffffffffffffffffffffffffffffffffffffffff16815260200190815260200160002060009054906101000a900460ff16905092915050565b606060048054613de7906194eb565b80601f0160208091040260200160405190810160405280929190818152602001828054613e13906194eb565b8015613e605780601f10613e3557610100808354040283529160200191613e60565b820191906000526020600020905b815481529060010190602001808311613e4357829003601f168201915b5050505050905090565b60606000602780549050905060008167ffffffffffffffff811115613e9257613e9161812e565b5b604051908082528060200260200182016040528015613ecb57816020015b613eb86175f1565b815260200190600190039081613eb05790505b50905060005b82811015613ff25760278181548110613eed57613eec61948d565b5b90600052602060002090600402016040518060800160405290816000820154815260200160018201548152602001600282018054613f2a906194eb565b80601f0160208091040260200160405190810160405280929190818152602001828054613f56906194eb565b8015613fa35780601f10613f7857610100808354040283529160200191613fa3565b820191906000526020600020905b815481529060010190602001808311613f8657829003601f168201915b505050505081526020016003820160009054906101000a900460ff161515151581525050828281518110613fda57613fd961948d565b5b60200260200101819052508080600101915050613ed1565b50809250505090565b60115481565b6023602052816000526040600020818154811061401d57600080fd5b906000526020600020016000915091509054906101000a900473ffffffffffffffffffffffffffffffffffffffff1681565b6000801b81565b60008073ffffffffffffffffffffffffffffffffffffffff1660196000601354815260200190815260200160002060050160009054906101000a900473ffffffffffffffffffffffffffffffffffffffff1673ffffffffffffffffffffffffffffffffffffffff16146140fe576040517f08c379a00000000000000000000000000000000000000000000000000000000081526004016140f59061a209565b60405180910390fd5b60006040518061010001604052806013548152602001858152602001848152602001600015158152602001600081526020013373ffffffffffffffffffffffffffffffffffffffff168152602001600115158152602001600067ffffffffffffffff8111156141705761416f61812e565b5b60405190808252806020026020018201604052801561419e5781602001602082028036833780820191505090505b508152509050806019600060135481526020019081526020016000206000820151816000015560208201518160010190816141d991906198fa565b5060408201518160020190816141ef91906198fa565b5060608201518160030160006101000a81548160ff0219169083151502179055506080820151816004015560a08201518160050160006101000a81548173ffffffffffffffffffffffffffffffffffffffff021916908373ffffffffffffffffffffffffffffffffffffffff16021790555060c08201518160050160146101000a81548160ff02191690831515021790555060e082015181600601908051906020019061429d92919061761b565b5090505060268190806001815401808255809150506001900390600052602060002090600702016000909190919091506000820151816000015560208201518160010190816142ec91906198fa565b50604082015181600201908161430291906198fa565b5060608201518160030160006101000a81548160ff0219169083151502179055506080820151816004015560a08201518160050160006101000a81548173ffffffffffffffffffffffffffffffffffffffff021916908373ffffffffffffffffffffffffffffffffffffffff16021790555060c08201518160050160146101000a81548160ff02191690831515021790555060e08201518160060190805190602001906143b092919061761b565b505050601260008154809291906143c6906199cc565b91905055506001601b60003373ffffffffffffffffffffffffffffffffffffffff1673ffffffffffffffffffffffffffffffffffffffff168152602001908152602001600020600001600082825461441e919061a229565b9250508190555060136000815480929190614438906199cc565b91905055506144677fadb22091b155738d2e889eb96f509d2a7c93234236b30400927feb4a6a15ab0033616854565b50836040516144769190619d4a565b6040518091039020600160135461448d91906195dd565b7f9c93a42b217373d37e6c66ace0a67fe1fa1f78c93164b62417de69c48c0f67e26019600060016013546144c191906195dd565b815260200190815260200160002060030160009054906101000a900460ff166040516144ed91906179e7565b60405180910390a3600191505092915050565b60606000602880549050905060008167ffffffffffffffff8111156145285761452761812e565b5b60405190808252806020026020018201604052801561456157816020015b61454e6176a5565b8152602001906001900390816145465790505b50905060005b828110156148cf57602881815481106145835761458261948d565b5b90600052602060002090602402016040518060e001604052908160008201548152602001600182015481526020016002820180546145c0906194eb565b80601f01602080910402602001604051908101604052809291908181526020018280546145ec906194eb565b80156146395780601f1061460e57610100808354040283529160200191614639565b820191906000526020600020905b81548152906001019060200180831161461c57829003601f168201915b50505050508152602001600382018054614652906194eb565b80601f016020809104026020016040519081016040528092919081815260200182805461467e906194eb565b80156146cb5780601f106146a0576101008083540402835291602001916146cb565b820191906000526020600020905b8154815290600101906020018083116146ae57829003601f168201915b5050505050815260200160048201600a80602002604051908101604052809291906000905b82821015614877578382600302016040518060600160405290816000820160009054906101000a900460ff16600281111561472e5761472d618d59565b5b60028111156147405761473f618d59565b5b8152602001600182018054614754906194eb565b80601f0160208091040260200160405190810160405280929190818152602001828054614780906194eb565b80156147cd5780601f106147a2576101008083540402835291602001916147cd565b820191906000526020600020905b8154815290600101906020018083116147b057829003601f168201915b505050505081526020016002820180546147e6906194eb565b80601f0160208091040260200160405190810160405280929190818152602001828054614812906194eb565b801561485f5780601f106148345761010080835404028352916020019161485f565b820191906000526020600020905b81548152906001019060200180831161484257829003601f168201915b505050505081525050815260200190600101906146f0565b505050508152602001602282015481526020016023820160009054906101000a900460ff1615151515815250508282815181106148b7576148b661948d565b5b60200260200101819052508080600101915050614567565b50809250505090565b601d602052806000526040600020600091509050806000015490806001015490806002018054614907906194eb565b80601f0160208091040260200160405190810160405280929190818152602001828054614933906194eb565b80156149805780601f1061495557610100808354040283529160200191614980565b820191906000526020600020905b81548152906001019060200180831161496357829003601f168201915b5050505050908060030160009054906101000a900460ff16905084565b6149a56174f5565b6021600083815260200190815260200160002060040160009054906101000a900460ff16614a08576040517f08c379a00000000000000000000000000000000000000000000000000000000081526004016149ff90619a60565b60405180910390fd5b602160008381526020019081526020016000206040518060a00160405290816000820154815260200160018201548152602001600282018054614a4a906194eb565b80601f0160208091040260200160405190810160405280929190818152602001828054614a76906194eb565b8015614ac35780601f10614a9857610100808354040283529160200191614ac3565b820191906000526020600020905b815481529060010190602001808311614aa657829003601f168201915b5050505050815260200160038201805480602002602001604051908101604052809291908181526020016000905b82821015614cd557838290600052602060002090600402016040518060800160405290816000820154815260200160018201548152602001600282018054614b38906194eb565b80601f0160208091040260200160405190810160405280929190818152602001828054614b64906194eb565b8015614bb15780601f10614b8657610100808354040283529160200191614bb1565b820191906000526020600020905b815481529060010190602001808311614b9457829003601f168201915b5050505050815260200160038201805480602002602001604051908101604052809291908181526020016000905b82821015614cbe5783829060005260206000209060020201604051806040016040529081600082018054614c12906194eb565b80601f0160208091040260200160405190810160405280929190818152602001828054614c3e906194eb565b8015614c8b5780601f10614c6057610100808354040283529160200191614c8b565b820191906000526020600020905b815481529060010190602001808311614c6e57829003601f168201915b505050505081526020016001820160009054906101000a900460ff16151515158152505081526020019060010190614bdf565b505050508152505081526020019060010190614af1565b5050505081526020016004820160009054906101000a900460ff1615151515815250509050919050565b600080614d0a616627565b9050614d1781858561674c565b600191505092915050565b602080528160005260406000208181548110614d3d57600080fd5b90600052602060002001600091509150508054614d59906194eb565b80601f0160208091040260200160405190810160405280929190818152602001828054614d85906194eb565b8015614dd25780601f10614da757610100808354040283529160200191614dd2565b820191906000526020600020905b815481529060010190602001808311614db557829003601f168201915b505050505081565b6060601e6000838152602001908152602001600020805480602002602001604051908101604052809291908181526020016000905b82821015614f0257838290600052602060002090600402016040518060800160405290816000820154815260200160018201548152602001600282018054614e56906194eb565b80601f0160208091040260200160405190810160405280929190818152602001828054614e82906194eb565b8015614ecf5780601f10614ea457610100808354040283529160200191614ecf565b820191906000526020600020905b815481529060010190602001808311614eb257829003601f168201915b505050505081526020016003820160009054906101000a900460ff16151515158152505081526020019060010190614e0f565b505050509050919050565b605081565b7fadb22091b155738d2e889eb96f509d2a7c93234236b30400927feb4a6a15ab00614f3c81616840565b6000601f600087815260200190815260200160002090508060230160009054906101000a900460ff16614fa4576040517f08c379a0000000000000000000000000000000000000000000000000000000008152600401614f9b9061a2a9565b60405180910390fd5b600081602201549050600a8585905082614fbe919061a229565b1115614fff576040517f08c379a0000000000000000000000000000000000000000000000000000000008152600401614ff69061a315565b60405180910390fd5b60005b858590508110156151f057604051806060016040528087878481811061502b5761502a61948d565b5b905060200281019061503d919061a344565b600001602081019061504f919061a36c565b600281111561506157615060618d59565b5b81526020018787848181106150795761507861948d565b5b905060200281019061508b919061a344565b806020019061509a919061a399565b8080601f016020809104026020016040519081016040528093929190818152602001838380828437600081840152601f19601f8201169050808301925050505050505081526020018787848181106150f5576150f461948d565b5b9050602002810190615107919061a344565b8060400190615116919061a399565b8080601f016020809104026020016040519081016040528093929190818152602001838380828437600081840152601f19601f820116905080830192505050505050508152508360040183600a81106151725761517161948d565b5b6003020160008201518160000160006101000a81548160ff021916908360028111156151a1576151a0618d59565b5b021790555060208201518160010190816151bb91906198fa565b5060408201518160020190816151d191906198fa565b5090505081806151e0906199cc565b9250508080600101915050615002565b5080826022018190555060005b6028805490508110156152fa57876028828154811061521f5761521e61948d565b5b906000526020600020906024020160010154036152ed57826028828154811061524b5761524a61948d565b5b90600052602060002090602402016000820154816000015560018201548160010155600282018160020190816152819190619c26565b50600382018160030190816152969190619c26565b50600482018160040190600a6152ad929190617526565b50602282015481602201556023820160009054906101000a900460ff168160230160006101000a81548160ff0219169083151502179055509050506152fa565b80806001019150506151fd565b5050505050505050565b7fdf1425bae297c2f52b4f15d18a50b1fc8cb5b981a981b1d213ed3ff92681b64d61532e81616840565b60006009600084815260200190815260200160002090508060050160009054906101000a900460ff1615615397576040517f08c379a000000000000000000000000000000000000000000000000000000000815260040161538e9061a448565b60405180910390fd5b8060060160003373ffffffffffffffffffffffffffffffffffffffff1673ffffffffffffffffffffffffffffffffffffffff16815260200190815260200160002060009054906101000a900460ff1615615426576040517f08c379a000000000000000000000000000000000000000000000000000000000815260040161541d9061a4b4565b60405180910390fd5b60018160060160003373ffffffffffffffffffffffffffffffffffffffff1673ffffffffffffffffffffffffffffffffffffffff16815260200190815260200160002060006101000a81548160ff021916908315150217905550806004016000815480929190615495906199cc565b9190505550827f5d4ccf5f92566d140246f4ae3b9cb35dc06fff109a7748602ad77f6260fd9a61336040516154ca9190617eb6565b60405180910390a260038160040154106155fe5760008160020160009054906101000a900473ffffffffffffffffffffffffffffffffffffffff1673ffffffffffffffffffffffffffffffffffffffff168260030160405161552c919061a577565b6000604051808303816000865af19150503d8060008114615569576040519150601f19603f3d011682016040523d82523d6000602084013e61556e565b606091505b50509050806155b2576040517f08c379a00000000000000000000000000000000000000000000000000000000081526004016155a99061a5da565b60405180910390fd5b60018260050160006101000a81548160ff021916908315150217905550837f7770356c29230b95943aec59d47ead11eb426a728bf5b57f7fd8597f3c0e29ba60405160405180910390a2505b505050565b601f602052806000526040600020600091509050806000015490806001015490806002018054615632906194eb565b80601f016020809104026020016040519081016040528092919081815260200182805461565e906194eb565b80156156ab5780601f10615680576101008083540402835291602001916156ab565b820191906000526020600020905b81548152906001019060200180831161568e57829003601f168201915b5050505050908060030180546156c0906194eb565b80601f01602080910402602001604051908101604052809291908181526020018280546156ec906194eb565b80156157395780601f1061570e57610100808354040283529160200191615739565b820191906000526020600020905b81548152906001019060200180831161571c57829003601f168201915b5050505050908060220154908060230160009054906101000a900460ff16905086565b601a6020528160005260406000206020528060005260406000206000915091505080600001549080600101549080600201549080600301549080600401549080600501549080600601549080600701549080600801549080600901549080600a0160009054906101000a900460ff1690508b565b60606023600083815260200190815260200160002080548060200260200160405190810160405280929190818152602001828054801561586557602002820191906000526020600020905b8160009054906101000a900473ffffffffffffffffffffffffffffffffffffffff1673ffffffffffffffffffffffffffffffffffffffff168152602001906001019080831161581b575b50505050509050919050565b60086020528060005260406000206000915054906101000a900460ff1681565b6000601154905090565b602781815481106158ab57600080fd5b90600052602060002090600402016000915090508060000154908060010154908060020180546158da906194eb565b80601f0160208091040260200160405190810160405280929190818152602001828054615906906194eb565b80156159535780601f1061592857610100808354040283529160200191615953565b820191906000526020600020905b81548152906001019060200180831161593657829003601f168201915b5050505050908060030160009054906101000a900460ff16905084565b6000801b61597d81616840565b600860008373ffffffffffffffffffffffffffffffffffffffff1673ffffffffffffffffffffffffffffffffffffffff16815260200190815260200160002060009054906101000a900460ff16615a09576040517f08c379a0000000000000000000000000000000000000000000000000000000008152600401615a009061a646565b60405180910390fd5b60005b600680549050811015615b8f578273ffffffffffffffffffffffffffffffffffffffff1660068281548110615a4457615a4361948d565b5b9060005260206000200160009054906101000a900473ffffffffffffffffffffffffffffffffffffffff1673ffffffffffffffffffffffffffffffffffffffff1603615b825760066001600680549050615a9e91906195dd565b81548110615aaf57615aae61948d565b5b9060005260206000200160009054906101000a900473ffffffffffffffffffffffffffffffffffffffff1660068281548110615aee57615aed61948d565b5b9060005260206000200160006101000a81548173ffffffffffffffffffffffffffffffffffffffff021916908373ffffffffffffffffffffffffffffffffffffffff1602179055506006805480615b4857615b47619611565b5b6001900381819060005260206000200160006101000a81549073ffffffffffffffffffffffffffffffffffffffff02191690559055615b8f565b8080600101915050615a0c565b506000600860008473ffffffffffffffffffffffffffffffffffffffff1673ffffffffffffffffffffffffffffffffffffffff16815260200190815260200160002060006101000a81548160ff021916908315150217905550615c127fc10c77be35aff266144ed64c26a1fa104bae2f284ae99ac4a34203454704a18583616946565b508173ffffffffffffffffffffffffffffffffffffffff167f55dba9d79522b91b615629d5f3b10c2fad2d258f1768614f4a52e937ada0d0ba60405160405180910390a25050565b60256020528160005260406000206020528060005260406000206000915091509054906101000a900460ff1681565b6021600085815260200190815260200160002060040160009054906101000a900460ff16615cec576040517f08c379a0000000000000000000000000000000000000000000000000000000008152600401615ce390619a60565b60405180910390fd5b60008251118015615cff57506004825111155b615d3e576040517f08c379a0000000000000000000000000000000000000000000000000000000008152600401615d359061a6b2565b60405180910390fd5b81518160ff1610615d84576040517f08c379a0000000000000000000000000000000000000000000000000000000008152600401615d7b9061a71e565b60405180910390fd5b60006017549050600060226000838152602001908152602001600020905085816000018190555081816001018190555084816002019081615dc591906198fa565b5060005b84518160ff161015615e8f5760006040518060400160405280878460ff1681518110615df857615df761948d565b5b602002602001015181526020018660ff168460ff161415158152509050826003018190806001815401808255809150506001900390600052602060002090600202016000909190919091506000820151816000019081615e5891906198fa565b5060208201518160010160006101000a81548160ff0219169083151502179055505050508080615e879061a73e565b915050615dc9565b5060216000878152602001908152602001600020600301819080600181540180825580915050600190039060005260206000209060040201600090919091909150600082015481600001556001820154816001015560028201816002019081615ef89190619c26565b506003820181600301908054615f0f9291906176ea565b50505060176000815480929190615f25906199cc565b9190505550602b819080600181540180825580915050600190039060005260206000209060040201600090919091909150600082015481600001556001820154816001015560028201816002019081615f7e9190619c26565b506003820181600301908054615f959291906176ea565b5050507fa5bdacf4d1324fdd584bc65cf0315e4975d00b33a7ca0e6d0a73c88df8430b95868387604051615fcb939291906183d7565b60405180910390a160005b84518160ff16101561605d577f06ef0ba2ad58c9f8eef2fc98c08fd18d801c4a971eeb45afd07f0fee3f9d60c4838260ff16601854616015919061a229565b878460ff168151811061602b5761602a61948d565b5b6020026020010151604051616042939291906183d7565b60405180910390a180806160559061a73e565b915050615fd6565b50835160186000828254616071919061a229565b92505081905550505050505050565b616089826119cc565b61609281616840565b61609c8383616946565b50505050565b674563918244f4000081565b6000600160008473ffffffffffffffffffffffffffffffffffffffff1673ffffffffffffffffffffffffffffffffffffffff16815260200190815260200160002060008373ffffffffffffffffffffffffffffffffffffffff1673ffffffffffffffffffffffffffffffffffffffff16815260200190815260200160002054905092915050565b6029818154811061614557600080fd5b90600052602060002090600302016000915090508060000160009054906101000a900460ff169080600101805461617b906194eb565b80601f01602080910402602001604051908101604052809291908181526020018280546161a7906194eb565b80156161f45780601f106161c9576101008083540402835291602001916161f4565b820191906000526020600020905b8154815290600101906020018083116161d757829003601f168201915b505050505090806002018054616209906194eb565b80601f0160208091040260200160405190810160405280929190818152602001828054616235906194eb565b80156162825780601f1061625757610100808354040283529160200191616282565b820191906000526020600020905b81548152906001019060200180831161626557829003601f168201915b5050505050905083565b6000600b60000154905090565b60165481565b60175481565b60006162af616641565b6019600083815260200190815260200160002060030160009054906101000a900460ff16616312576040517f08c379a00000000000000000000000000000000000000000000000000000000081526004016163099061a7b3565b60405180910390fd5b6025600083815260200190815260200160002060003373ffffffffffffffffffffffffffffffffffffffff1673ffffffffffffffffffffffffffffffffffffffff16815260200190815260200160002060009054906101000a900460ff16156163b0576040517f08c379a00000000000000000000000000000000000000000000000000000000081526004016163a79061a845565b60405180910390fd5b6019600083815260200190815260200160002060050160149054906101000a900460ff16616413576040517f08c379a000000000000000000000000000000000000000000000000000000000815260040161640a9061972e565b60405180910390fd5b60016025600084815260200190815260200160002060003373ffffffffffffffffffffffffffffffffffffffff1673ffffffffffffffffffffffffffffffffffffffff16815260200190815260200160002060006101000a81548160ff02191690831515021790555060196000838152602001908152602001600020600601339080600181540180825580915050600190039060005260206000200160009091909190916101000a81548173ffffffffffffffffffffffffffffffffffffffff021916908373ffffffffffffffffffffffffffffffffffffffff16021790555061650533671bc16d674ec80000616c5e565b503373ffffffffffffffffffffffffffffffffffffffff16827f4bf249f6b0ca5630ea4816c04b928b864a2065cb51658fd6223d83b727fd326b60405160405180910390a3600190506165566166ae565b919050565b60006165877fc10c77be35aff266144ed64c26a1fa104bae2f284ae99ac4a34203454704a18583613d6d565b9050919050565b601c6020528160005260406000206020528060005260406000206000915091509054906101000a900460ff1681565b60007f01ffc9a7000000000000000000000000000000000000000000000000000000007bffffffffffffffffffffffffffffffffffffffffffffffffffffffff1916827bffffffffffffffffffffffffffffffffffffffffffffffffffffffff1916149050919050565b600033905090565b61663c8383836001616d4b565b505050565b6002600a540361667d576040517f3ee5aeb500000000000000000000000000000000000000000000000000000000815260040160405180910390fd5b6002600a81905550565b6166918282616f22565b80601160008282546166a391906195dd565b925050819055505050565b6001600a81905550565b60006166c484846160ae565b90507fffffffffffffffffffffffffffffffffffffffffffffffffffffffffffffffff81146167465781811015616736578281836040517ffb8f41b200000000000000000000000000000000000000000000000000000000815260040161672d9392919061a865565b60405180910390fd5b61674584848484036000616d4b565b5b50505050565b600073ffffffffffffffffffffffffffffffffffffffff168373ffffffffffffffffffffffffffffffffffffffff16036167be5760006040517f96c6fd1e0000000000000000000000000000000000000000000000000000000081526004016167b59190617eb6565b60405180910390fd5b600073ffffffffffffffffffffffffffffffffffffffff168273ffffffffffffffffffffffffffffffffffffffff16036168305760006040517fec442f050000000000000000000000000000000000000000000000000000000081526004016168279190617eb6565b60405180910390fd5b61683b838383616fc9565b505050565b6168518161684c616627565b6171ee565b50565b60006168608383613d6d565b61693b5760016005600085815260200190815260200160002060000160008473ffffffffffffffffffffffffffffffffffffffff1673ffffffffffffffffffffffffffffffffffffffff16815260200190815260200160002060006101000a81548160ff0219169083151502179055506168d8616627565b73ffffffffffffffffffffffffffffffffffffffff168273ffffffffffffffffffffffffffffffffffffffff16847f2f8788117e7eff1d82e926ec794901d17c78024a50270940304540a733656f0d60405160405180910390a460019050616940565b600090505b92915050565b60006169528383613d6d565b15616a2e5760006005600085815260200190815260200160002060000160008473ffffffffffffffffffffffffffffffffffffffff1673ffffffffffffffffffffffffffffffffffffffff16815260200190815260200160002060006101000a81548160ff0219169083151502179055506169cb616627565b73ffffffffffffffffffffffffffffffffffffffff168273ffffffffffffffffffffffffffffffffffffffff16847ff6391f5c32d9c69d2a47ea670b442974b53935d1edc7fd64eb21e047a839171b60405160405180910390a460019050616a33565b600090505b92915050565b600080600090505b6023600085815260200190815260200160002080549050811015616af8578273ffffffffffffffffffffffffffffffffffffffff16602360008681526020019081526020016000208281548110616a9b57616a9a61948d565b5b9060005260206000200160009054906101000a900473ffffffffffffffffffffffffffffffffffffffff1673ffffffffffffffffffffffffffffffffffffffff1603616aeb576001915050616afe565b8080600101915050616a41565b50600090505b92915050565b600a8a11158015616b165750600a8911155b8015616b235750600a8811155b8015616b305750600a8711155b8015616b3d5750600a8611155b8015616b4a5750600a8511155b8015616b575750600a8411155b8015616b645750600a8311155b8015616b715750600a8211155b8015616b7e5750600a8111155b616bbd576040517f08c379a0000000000000000000000000000000000000000000000000000000008152600401616bb49061a8e8565b60405180910390fd5b50505050505050505050565b60008160090154826008015483600701548460060154856005015486600401548760030154886002015489600101548a60000154616c07919061a229565b616c11919061a229565b616c1b919061a229565b616c25919061a229565b616c2f919061a229565b616c39919061a229565b616c43919061a229565b616c4d919061a229565b616c57919061a229565b9050919050565b60006064600f6b204fce5e3e25026110000000616c7b9190619640565b616c8591906196b1565b616c8d615891565b83616c98919061a229565b1115616cd9576040517f08c379a0000000000000000000000000000000000000000000000000000000008152600401616cd09061a954565b60405180910390fd5b616ce3838361723f565b508160116000828254616cf6919061a229565b92505081905550818373ffffffffffffffffffffffffffffffffffffffff167fad6ef58d5c294f81258965738e7ae511124139834a8d0b8f8f7327086c82052a60405160405180910390a36001905092915050565b600073ffffffffffffffffffffffffffffffffffffffff168473ffffffffffffffffffffffffffffffffffffffff1603616dbd5760006040517fe602df05000000000000000000000000000000000000000000000000000000008152600401616db49190617eb6565b60405180910390fd5b600073ffffffffffffffffffffffffffffffffffffffff168373ffffffffffffffffffffffffffffffffffffffff1603616e2f5760006040517f94280d62000000000000000000000000000000000000000000000000000000008152600401616e269190617eb6565b60405180910390fd5b81600160008673ffffffffffffffffffffffffffffffffffffffff1673ffffffffffffffffffffffffffffffffffffffff16815260200190815260200160002060008573ffffffffffffffffffffffffffffffffffffffff1673ffffffffffffffffffffffffffffffffffffffff168152602001908152602001600020819055508015616f1c578273ffffffffffffffffffffffffffffffffffffffff168473ffffffffffffffffffffffffffffffffffffffff167f8c5be1e5ebec7d5bd14f71427d1e84f3dd0314c0f7b2291e5b200ac8c7c3b92584604051616f139190617d5b565b60405180910390a35b50505050565b80616f2c8361319b565b1015616f6d576040517f08c379a0000000000000000000000000000000000000000000000000000000008152600401616f649061a9c0565b60405180910390fd5b616f7782826172fa565b8173ffffffffffffffffffffffffffffffffffffffff167f5b5d8478b570a79ab6b3bf13ff029fba19c02ab0d54d692d4ef0d9052d5cc85082604051616fbd9190617d5b565b60405180910390a25050565b600073ffffffffffffffffffffffffffffffffffffffff168373ffffffffffffffffffffffffffffffffffffffff160361701b57806002600082825461700f919061a229565b925050819055506170ee565b60008060008573ffffffffffffffffffffffffffffffffffffffff1673ffffffffffffffffffffffffffffffffffffffff168152602001908152602001600020549050818110156170a7578381836040517fe450d38c00000000000000000000000000000000000000000000000000000000815260040161709e9392919061a865565b60405180910390fd5b8181036000808673ffffffffffffffffffffffffffffffffffffffff1673ffffffffffffffffffffffffffffffffffffffff16815260200190815260200160002081905550505b600073ffffffffffffffffffffffffffffffffffffffff168273ffffffffffffffffffffffffffffffffffffffff16036171375780600260008282540392505081905550617184565b806000808473ffffffffffffffffffffffffffffffffffffffff1673ffffffffffffffffffffffffffffffffffffffff168152602001908152602001600020600082825401925050819055505b8173ffffffffffffffffffffffffffffffffffffffff168373ffffffffffffffffffffffffffffffffffffffff167fddf252ad1be2c89b69c2b068fc378daa952ba7f163c4a11628f55a4df523b3ef836040516171e19190617d5b565b60405180910390a3505050565b6171f88282613d6d565b61723b5780826040517fe2517d3f00000000000000000000000000000000000000000000000000000000815260040161723292919061a9e0565b60405180910390fd5b5050565b60006b204fce5e3e25026110000000617256611641565b83617261919061a229565b11156172a2576040517f08c379a00000000000000000000000000000000000000000000000000000000081526004016172999061a954565b60405180910390fd5b6172ac838361737c565b818373ffffffffffffffffffffffffffffffffffffffff167fcda531bfd68624f13205c0a23cd4d5a7f09792cbb399603114f2b04aaa1bf5cf60405160405180910390a36001905092915050565b600073ffffffffffffffffffffffffffffffffffffffff168273ffffffffffffffffffffffffffffffffffffffff160361736c5760006040517f96c6fd1e0000000000000000000000000000000000000000000000000000000081526004016173639190617eb6565b60405180910390fd5b61737882600083616fc9565b5050565b600073ffffffffffffffffffffffffffffffffffffffff168273ffffffffffffffffffffffffffffffffffffffff16036173ee5760006040517fec442f050000000000000000000000000000000000000000000000000000000081526004016173e59190617eb6565b60405180910390fd5b6173fa60008383616fc9565b5050565b60405180610100016040528060008152602001606081526020016060815260200160001515815260200160008152602001600073ffffffffffffffffffffffffffffffffffffffff168152602001600015158152602001606081525090565b8280548282559060005260206000209060040281019282156174e45760005260206000209160040282015b828111156174e35782826000820154816000015560018201548160010155600282018160020190816174ba9190619c26565b5060038201816003019080546174d19291906176ea565b50505091600401919060040190617488565b5b5090506174f19190617784565b5090565b6040518060a00160405280600081526020016000815260200160608152602001606081526020016000151581525090565b82600a60030281019282156175bf579160030282015b828111156175be5782826000820160009054906101000a900460ff168160000160006101000a81548160ff0219169083600281111561757e5761757d618d59565b5b0217905550600182018160010190816175979190619c26565b50600282018160020190816175ac9190619c26565b5050509160030191906003019061753c565b5b5090506175cc91906177cb565b5090565b50805460008255906000526020600020908101906175ee9190617816565b50565b60405180608001604052806000815260200160008152602001606081526020016000151581525090565b828054828255906000526020600020908101928215617694579160200282015b828111156176935782518260006101000a81548173ffffffffffffffffffffffffffffffffffffffff021916908373ffffffffffffffffffffffffffffffffffffffff1602179055509160200191906001019061763b565b5b5090506176a19190617816565b5090565b6040518060e00160405280600081526020016000815260200160608152602001606081526020016176d4617833565b8152602001600081526020016000151581525090565b8280548282559060005260206000209060020281019282156177735760005260206000209160020282015b82811115617772578282600082018160000190816177339190619c26565b506001820160009054906101000a900460ff168160010160006101000a81548160ff021916908315150217905550505091600201919060020190617715565b5b5090506177809190617861565b5090565b5b808211156177c75760008082016000905560018201600090556002820160006177ae919061789c565b6003820160006177be91906178dc565b50600401617785565b5090565b5b8082111561781257600080820160006101000a81549060ff02191690556001820160006177f9919061789c565b600282016000617809919061789c565b506003016177cc565b5090565b5b8082111561782f576000816000905550600101617817565b5090565b604051806101400160405280600a905b61784b617900565b8152602001906001900390816178435790505090565b5b80821115617898576000808201600061787b919061789c565b6001820160006101000a81549060ff021916905550600201617862565b5090565b5080546178a8906194eb565b6000825580601f106178ba57506178d9565b601f0160209004906000526020600020908101906178d89190617816565b5b50565b50805460008255600202906000526020600020908101906178fd9190617861565b50565b60405180606001604052806000600281111561791f5761791e618d59565b5b815260200160608152602001606081525090565b6000604051905090565b600080fd5b600080fd5b60007fffffffff0000000000000000000000000000000000000000000000000000000082169050919050565b61797c81617947565b811461798757600080fd5b50565b60008135905061799981617973565b92915050565b6000602082840312156179b5576179b461793d565b5b60006179c38482850161798a565b91505092915050565b60008115159050919050565b6179e1816179cc565b82525050565b60006020820190506179fc60008301846179d8565b92915050565b600081519050919050565b600082825260208201905092915050565b6000819050602082019050919050565b6000819050919050565b617a4181617a2e565b82525050565b600081519050919050565b600082825260208201905092915050565b60005b83811015617a81578082015181840152602081019050617a66565b60008484015250505050565b6000601f19601f8301169050919050565b6000617aa982617a47565b617ab38185617a52565b9350617ac3818560208601617a63565b617acc81617a8d565b840191505092915050565b617ae0816179cc565b82525050565b600073ffffffffffffffffffffffffffffffffffffffff82169050919050565b6000617b1182617ae6565b9050919050565b617b2181617b06565b82525050565b600081519050919050565b600082825260208201905092915050565b6000819050602082019050919050565b6000617b5f8383617b18565b60208301905092915050565b6000602082019050919050565b6000617b8382617b27565b617b8d8185617b32565b9350617b9883617b43565b8060005b83811015617bc9578151617bb08882617b53565b9750617bbb83617b6b565b925050600181019050617b9c565b5085935050505092915050565b600061010083016000830151617bef6000860182617a38565b5060208301518482036020860152617c078282617a9e565b91505060408301518482036040860152617c218282617a9e565b9150506060830151617c366060860182617ad7565b506080830151617c496080860182617a38565b5060a0830151617c5c60a0860182617b18565b5060c0830151617c6f60c0860182617ad7565b5060e083015184820360e0860152617c878282617b78565b9150508091505092915050565b6000617ca08383617bd6565b905092915050565b6000602082019050919050565b6000617cc082617a02565b617cca8185617a0d565b935083602082028501617cdc85617a1e565b8060005b85811015617d185784840389528151617cf98582617c94565b9450617d0483617ca8565b925060208a01995050600181019050617ce0565b50829750879550505050505092915050565b60006020820190508181036000830152617d448184617cb5565b905092915050565b617d5581617a2e565b82525050565b6000602082019050617d706000830184617d4c565b92915050565b600082825260208201905092915050565b6000617d9282617a47565b617d9c8185617d76565b9350617dac818560208601617a63565b617db581617a8d565b840191505092915050565b60006020820190508181036000830152617dda8184617d87565b905092915050565b617deb81617b06565b8114617df657600080fd5b50565b600081359050617e0881617de2565b92915050565b617e1781617a2e565b8114617e2257600080fd5b50565b600081359050617e3481617e0e565b92915050565b60008060408385031215617e5157617e5061793d565b5b6000617e5f85828601617df9565b9250506020617e7085828601617e25565b9150509250929050565b600060208284031215617e9057617e8f61793d565b5b6000617e9e84828501617e25565b91505092915050565b617eb081617b06565b82525050565b6000602082019050617ecb6000830184617ea7565b92915050565b600080600060608486031215617eea57617ee961793d565b5b6000617ef886828701617df9565b9350506020617f0986828701617df9565b9250506040617f1a86828701617e25565b9150509250925092565b6000819050919050565b617f3781617f24565b8114617f4257600080fd5b50565b600081359050617f5481617f2e565b92915050565b600060208284031215617f7057617f6f61793d565b5b6000617f7e84828501617f45565b91505092915050565b617f9081617f24565b82525050565b6000602082019050617fab6000830184617f87565b92915050565b6000608082019050617fc66000830187617d4c565b617fd36020830186617d4c565b8181036040830152617fe58185617d87565b9050617ff460608301846179d8565b95945050505050565b600060e082019050618012600083018a617d4c565b81810360208301526180248189617d87565b905081810360408301526180388188617d87565b905061804760608301876179d8565b6180546080830186617d4c565b61806160a0830185617ea7565b61806e60c08301846179d8565b98975050505050505050565b600060c08201905061808f6000830189617d4c565b61809c6020830188617d4c565b81810360408301526180ae8187617d87565b905081810360608301526180c28186617d87565b90506180d16080830185617d4c565b6180de60a08301846179d8565b979650505050505050565b60008060408385031215618100576180ff61793d565b5b600061810e85828601617f45565b925050602061811f85828601617df9565b9150509250929050565b600080fd5b7f4e487b7100000000000000000000000000000000000000000000000000000000600052604160045260246000fd5b61816682617a8d565b810181811067ffffffffffffffff821117156181855761818461812e565b5b80604052505050565b6000618198617933565b90506181a4828261815d565b919050565b600067ffffffffffffffff8211156181c4576181c361812e565b5b602082029050602081019050919050565b600080fd5b600080fd5b600067ffffffffffffffff8211156181fa576181f961812e565b5b61820382617a8d565b9050602081019050919050565b82818337600083830152505050565b600061823261822d846181df565b61818e565b90508281526020810184848401111561824e5761824d6181da565b5b618259848285618210565b509392505050565b600082601f83011261827657618275618129565b5b813561828684826020860161821f565b91505092915050565b60006182a261829d846181a9565b61818e565b905080838252602082019050602084028301858111156182c5576182c46181d5565b5b835b8181101561830c57803567ffffffffffffffff8111156182ea576182e9618129565b5b8086016182f78982618261565b855260208501945050506020810190506182c7565b5050509392505050565b600082601f83011261832b5761832a618129565b5b813561833b84826020860161828f565b91505092915050565b6000806040838503121561835b5761835a61793d565b5b600061836985828601617e25565b925050602083013567ffffffffffffffff81111561838a57618389617942565b5b61839685828601618316565b9150509250929050565b600060ff82169050919050565b6183b6816183a0565b82525050565b60006020820190506183d160008301846183ad565b92915050565b60006060820190506183ec6000830186617d4c565b6183f96020830185617d4c565b818103604083015261840b8184617d87565b9050949350505050565b60006020828403121561842b5761842a61793d565b5b600061843984828501617df9565b91505092915050565b600081519050919050565b600082825260208201905092915050565b600061846982618442565b618473818561844d565b9350618483818560208601617a63565b61848c81617a8d565b840191505092915050565b600060c0820190506184ac6000830189617d4c565b6184b96020830188617ea7565b6184c66040830187617ea7565b81810360608301526184d8818661845e565b90506184e76080830185617d4c565b6184f460a08301846179d8565b979650505050505050565b600081519050919050565b600082825260208201905092915050565b6000819050602082019050919050565b600081519050919050565b600082825260208201905092915050565b6000819050602082019050919050565b600060408301600083015184820360008601526185748282617a9e565b91505060208301516185896020860182617ad7565b508091505092915050565b60006185a08383618557565b905092915050565b6000602082019050919050565b60006185c08261852b565b6185ca8185618536565b9350836020820285016185dc85618547565b8060005b8581101561861857848403895281516185f98582618594565b9450618604836185a8565b925060208a019950506001810190506185e0565b50829750879550505050505092915050565b60006080830160008301516186426000860182617a38565b5060208301516186556020860182617a38565b506040830151848203604086015261866d8282617a9e565b9150506060830151848203606086015261868782826185b5565b9150508091505092915050565b60006186a0838361862a565b905092915050565b6000602082019050919050565b60006186c0826184ff565b6186ca818561850a565b9350836020820285016186dc8561851b565b8060005b8581101561871857848403895281516186f98582618694565b9450618704836186a8565b925060208a019950506001810190506186e0565b50829750879550505050505092915050565b6000602082019050818103600083015261874481846186b5565b905092915050565b600080604083850312156187635761876261793d565b5b600061877185828601617e25565b925050602061878285828601617e25565b9150509250929050565b60008060008060008060008060008060006101608c8e0312156187b2576187b161793d565b5b60006187c08e828f01617e25565b9b505060206187d18e828f01617e25565b9a505060406187e28e828f01617e25565b99505060606187f38e828f01617e25565b98505060806188048e828f01617e25565b97505060a06188158e828f01617e25565b96505060c06188268e828f01617e25565b95505060e06188378e828f01617e25565b9450506101006188498e828f01617e25565b93505061012061885b8e828f01617e25565b92505061014061886d8e828f01617e25565b9150509295989b509295989b9093969950565b600080604083850312156188975761889661793d565b5b60006188a585828601617e25565b925050602083013567ffffffffffffffff8111156188c6576188c5617942565b5b6188d285828601618261565b9150509250929050565b600081519050919050565b600082825260208201905092915050565b6000819050602082019050919050565b600082825260208201905092915050565b6000618924826184ff565b61892e8185618908565b9350836020820285016189408561851b565b8060005b8581101561897c578484038952815161895d8582618694565b9450618968836186a8565b925060208a01995050600181019050618944565b50829750879550505050505092915050565b600060a0830160008301516189a66000860182617a38565b5060208301516189b96020860182617a38565b50604083015184820360408601526189d18282617a9e565b915050606083015184820360608601526189eb8282618919565b9150506080830151618a006080860182617ad7565b508091505092915050565b6000618a17838361898e565b905092915050565b6000602082019050919050565b6000618a37826188dc565b618a4181856188e7565b935083602082028501618a53856188f8565b8060005b85811015618a8f5784840389528151618a708582618a0b565b9450618a7b83618a1f565b925060208a01995050600181019050618a57565b50829750879550505050505092915050565b60006020820190508181036000830152618abb8184618a2c565b905092915050565b600080600060608486031215618adc57618adb61793d565b5b6000618aea86828701617e25565b935050602084013567ffffffffffffffff811115618b0b57618b0a617942565b5b618b1786828701618261565b925050604084013567ffffffffffffffff811115618b3857618b37617942565b5b618b4486828701618261565b9150509250925092565b600081519050919050565b600082825260208201905092915050565b6000819050602082019050919050565b6000608083016000830151618b926000860182617a38565b506020830151618ba56020860182617a38565b5060408301518482036040860152618bbd8282617a9e565b9150506060830151618bd26060860182617ad7565b508091505092915050565b6000618be98383618b7a565b905092915050565b6000602082019050919050565b6000618c0982618b4e565b618c138185618b59565b935083602082028501618c2585618b6a565b8060005b85811015618c615784840389528151618c428582618bdd565b9450618c4d83618bf1565b925060208a01995050600181019050618c29565b50829750879550505050505092915050565b60006020820190508181036000830152618c8d8184618bfe565b905092915050565b60008060408385031215618cac57618cab61793d565b5b600083013567ffffffffffffffff811115618cca57618cc9617942565b5b618cd685828601618261565b925050602083013567ffffffffffffffff811115618cf757618cf6617942565b5b618d0385828601618261565b9150509250929050565b600081519050919050565b600082825260208201905092915050565b6000819050602082019050919050565b6000600a9050919050565b600081905092915050565b6000819050919050565b7f4e487b7100000000000000000000000000000000000000000000000000000000600052602160045260246000fd5b60038110618d9957618d98618d59565b5b50565b6000819050618daa82618d88565b919050565b6000618dba82618d9c565b9050919050565b618dca81618daf565b82525050565b6000606083016000830151618de86000860182618dc1565b5060208301518482036020860152618e008282617a9e565b91505060408301518482036040860152618e1a8282617a9e565b9150508091505092915050565b6000618e338383618dd0565b905092915050565b6000602082019050919050565b6000618e5382618d39565b618e5d8185618d44565b935083602082028501618e6f85618d4f565b8060005b85811015618eab5784840389528151618e8c8582618e27565b9450618e9783618e3b565b925060208a01995050600181019050618e73565b50829750879550505050505092915050565b600060e083016000830151618ed56000860182617a38565b506020830151618ee86020860182617a38565b5060408301518482036040860152618f008282617a9e565b91505060608301518482036060860152618f1a8282617a9e565b91505060808301518482036080860152618f348282618e48565b91505060a0830151618f4960a0860182617a38565b5060c0830151618f5c60c0860182617ad7565b508091505092915050565b6000618f738383618ebd565b905092915050565b6000602082019050919050565b6000618f9382618d0d565b618f9d8185618d18565b935083602082028501618faf85618d29565b8060005b85811015618feb5784840389528151618fcc8582618f67565b9450618fd783618f7b565b925060208a01995050600181019050618fb3565b50829750879550505050505092915050565b600060208201905081810360008301526190178184618f88565b905092915050565b600060a0830160008301516190376000860182617a38565b50602083015161904a6020860182617a38565b50604083015184820360408601526190628282617a9e565b9150506060830151848203606086015261907c8282618919565b91505060808301516190916080860182617ad7565b508091505092915050565b600060208201905081810360008301526190b6818461901f565b905092915050565b600381106190cb57600080fd5b50565b6000813590506190dd816190be565b92915050565b600080fd5b60008083601f8401126190fe576190fd618129565b5b8235905067ffffffffffffffff81111561911b5761911a6190e3565b5b602083019150836020820283011115619137576191366181d5565b5b9250929050565b600080600080606085870312156191585761915761793d565b5b600061916687828801617e25565b9450506020619177878288016190ce565b935050604085013567ffffffffffffffff81111561919857619197617942565b5b6191a4878288016190e8565b925092505092959194509250565b600080604083850312156191c9576191c861793d565b5b60006191d785828601617e25565b92505060206191e885828601617df9565b9150509250929050565b600061016082019050619208600083018e617d4c565b619215602083018d617d4c565b619222604083018c617d4c565b61922f606083018b617d4c565b61923c608083018a617d4c565b61924960a0830189617d4c565b61925660c0830188617d4c565b61926360e0830187617d4c565b619271610100830186617d4c565b61927f610120830185617d4c565b61928d6101408301846179d8565b9c9b505050505050505050505050565b600082825260208201905092915050565b60006192b982617b27565b6192c3818561929d565b93506192ce83617b43565b8060005b838110156192ff5781516192e68882617b53565b97506192f183617b6b565b9250506001810190506192d2565b5085935050505092915050565b6000602082019050818103600083015261932681846192ae565b905092915050565b619337816183a0565b811461934257600080fd5b50565b6000813590506193548161932e565b92915050565b600080600080608085870312156193745761937361793d565b5b600061938287828801617e25565b945050602085013567ffffffffffffffff8111156193a3576193a2617942565b5b6193af87828801618261565b935050604085013567ffffffffffffffff8111156193d0576193cf617942565b5b6193dc87828801618316565b92505060606193ed87828801619345565b91505092959194509250565b600080604083850312156194105761940f61793d565b5b600061941e85828601617df9565b925050602061942f85828601617df9565b9150509250929050565b61944281618daf565b82525050565b600060608201905061945d6000830186619439565b818103602083015261946f8185617d87565b905081810360408301526194838184617d87565b9050949350505050565b7f4e487b7100000000000000000000000000000000000000000000000000000000600052603260045260246000fd5b7f4e487b7100000000000000000000000000000000000000000000000000000000600052602260045260246000fd5b6000600282049050600182168061950357607f821691505b602082108103619516576195156194bc565b5b50919050565b7f596f7520617265206e6f7420656e726f6c6c656420696e207468697320636f7560008201527f7273652100000000000000000000000000000000000000000000000000000000602082015250565b6000619578602483617d76565b91506195838261951c565b604082019050919050565b600060208201905081810360008301526195a78161956b565b9050919050565b7f4e487b7100000000000000000000000000000000000000000000000000000000600052601160045260246000fd5b60006195e882617a2e565b91506195f383617a2e565b925082820390508181111561960b5761960a6195ae565b5b92915050565b7f4e487b7100000000000000000000000000000000000000000000000000000000600052603160045260246000fd5b600061964b82617a2e565b915061965683617a2e565b925082820261966481617a2e565b9150828204841483151761967b5761967a6195ae565b5b5092915050565b7f4e487b7100000000000000000000000000000000000000000000000000000000600052601260045260246000fd5b60006196bc82617a2e565b91506196c783617a2e565b9250826196d7576196d6619682565b5b828204905092915050565b7f436f7572736520646f6573206e6f742065786973742100000000000000000000600082015250565b6000619718601683617d76565b9150619723826196e2565b602082019050919050565b600060208201905081810360008301526197478161970b565b9050919050565b60008190508160005260206000209050919050565b60006020601f8301049050919050565b600082821b905092915050565b6000600883026197b07fffffffffffffffffffffffffffffffffffffffffffffffffffffffffffffffff82619773565b6197ba8683619773565b95508019841693508086168417925050509392505050565b6000819050919050565b60006197f76197f26197ed84617a2e565b6197d2565b617a2e565b9050919050565b6000819050919050565b619811836197dc565b61982561981d826197fe565b848454619780565b825550505050565b600090565b61983a61982d565b619845818484619808565b505050565b5b818110156198695761985e600082619832565b60018101905061984b565b5050565b601f8211156198ae5761987f8161974e565b61988884619763565b81016020851015619897578190505b6198ab6198a385619763565b83018261984a565b50505b505050565b600082821c905092915050565b60006198d1600019846008026198b3565b1980831691505092915050565b60006198ea83836198c0565b9150826002028217905092915050565b61990382617a47565b67ffffffffffffffff81111561991c5761991b61812e565b5b61992682546194eb565b61993182828561986d565b600060209050601f8311600181146199645760008415619952578287015190505b61995c85826198de565b8655506199c4565b601f1984166199728661974e565b60005b8281101561999a57848901518255600182019150602085019450602081019050619975565b868310156199b757848901516199b3601f8916826198c0565b8355505b6001600288020188555050505b505050505050565b60006199d782617a2e565b91507fffffffffffffffffffffffffffffffffffffffffffffffffffffffffffffffff8203619a0957619a086195ae565b5b600182019050919050565b7f5175697a20646f6573206e6f7420657869737400000000000000000000000000600082015250565b6000619a4a601383617d76565b9150619a5582619a14565b602082019050919050565b60006020820190508181036000830152619a7981619a3d565b9050919050565b7f4e6f742073656c6563746564206173206120726576696577657220666f72207460008201527f68697320636f7572736500000000000000000000000000000000000000000000602082015250565b6000619adc602a83617d76565b9150619ae782619a80565b604082019050919050565b60006020820190508181036000830152619b0b81619acf565b9050919050565b7f52657669657720616c7265616479207375626d6974746564206279207468697360008201527f2072657669657765722e00000000000000000000000000000000000000000000602082015250565b6000619b6e602a83617d76565b9150619b7982619b12565b604082019050919050565b60006020820190508181036000830152619b9d81619b61565b9050919050565b7f4c6573736f6e20446f6573206e6f742065786973742100000000000000000000600082015250565b6000619bda601683617d76565b9150619be582619ba4565b602082019050919050565b60006020820190508181036000830152619c0981619bcd565b9050919050565b600081549050619c1f816194eb565b9050919050565b818103619c34575050619d0c565b619c3d82619c10565b67ffffffffffffffff811115619c5657619c5561812e565b5b619c6082546194eb565b619c6b82828561986d565b6000601f831160018114619c9a5760008415619c88578287015490505b619c9285826198de565b865550619d05565b601f198416619ca88761974e565b9650619cb38661974e565b60005b82811015619cdb57848901548255600182019150600185019450602081019050619cb6565b86831015619cf85784890154619cf4601f8916826198c0565b8355505b6001600288020188555050505b5050505050505b565b600081905092915050565b6000619d2482617a47565b619d2e8185619d0e565b9350619d3e818560208601617a63565b80840191505092915050565b6000619d568284619d19565b915081905092915050565b7f416c726561647920696e20726576696577657220706f6f6c0000000000000000600082015250565b6000619d97601883617d76565b9150619da282619d61565b602082019050919050565b60006020820190508181036000830152619dc681619d8a565b9050919050565b7f436f7572736520616c726561647920617070726f766564000000000000000000600082015250565b6000619e03601783617d76565b9150619e0e82619dcd565b602082019050919050565b60006020820190508181036000830152619e3281619df6565b9050919050565b7f596f75206861766520616c726561647920617070726f7665642074686973206360008201527f6f75727365000000000000000000000000000000000000000000000000000000602082015250565b6000619e95602583617d76565b9150619ea082619e39565b604082019050919050565b60006020820190508181036000830152619ec481619e88565b9050919050565b7f4368617074657220646f6573206e6f7420657869737421000000000000000000600082015250565b6000619f01601783617d76565b9150619f0c82619ecb565b602082019050919050565b60006020820190508181036000830152619f3081619ef4565b9050919050565b7f52657669657765727320616c72656164792073656c6563746564000000000000600082015250565b6000619f6d601a83617d76565b9150619f7882619f37565b602082019050919050565b60006020820190508181036000830152619f9c81619f60565b9050919050565b7f4e6f7420656e6f7567682072657669657765727320696e2074686520706f6f6c600082015250565b6000619fd9602083617d76565b9150619fe482619fa3565b602082019050919050565b6000602082019050818103600083015261a00881619fcc565b9050919050565b6000819050919050565b61a02a61a02582617a2e565b61a00f565b82525050565b600061a03c828761a019565b60208201915061a04c828661a019565b60208201915061a05c828561a019565b60208201915061a06c828461a019565b60208201915081905095945050505050565b600061a08982617a2e565b915061a09483617a2e565b92508261a0a45761a0a3619682565b5b828206905092915050565b600081549050919050565b60008190508160005260206000209050919050565b60008160001c9050919050565b600073ffffffffffffffffffffffffffffffffffffffff82169050919050565b600061a10f61a10a8361a0cf565b61a0dc565b9050919050565b600061a122825461a0fc565b9050919050565b6000600182019050919050565b600061a1418261a0af565b61a14b818561929d565b935061a1568361a0ba565b8060005b8381101561a18e5761a16b8261a116565b61a1758882617b53565b975061a1808361a129565b92505060018101905061a15a565b5085935050505092915050565b6000602082019050818103600083015261a1b5818461a136565b905092915050565b7f436f7572736520494420616c7265616479206578697374730000000000000000600082015250565b600061a1f3601883617d76565b915061a1fe8261a1bd565b602082019050919050565b6000602082019050818103600083015261a2228161a1e6565b9050919050565b600061a23482617a2e565b915061a23f83617a2e565b925082820190508082111561a2575761a2566195ae565b5b92915050565b7f4c6573736f6e20646f6573206e6f742065786973742100000000000000000000600082015250565b600061a293601683617d76565b915061a29e8261a25d565b602082019050919050565b6000602082019050818103600083015261a2c28161a286565b9050919050565b7f45786365656473206d6178696d756d207265736f757263657321000000000000600082015250565b600061a2ff601a83617d76565b915061a30a8261a2c9565b602082019050919050565b6000602082019050818103600083015261a32e8161a2f2565b9050919050565b600080fd5b600080fd5b600080fd5b60008235600160600383360303811261a3605761a35f61a335565b5b80830191505092915050565b60006020828403121561a3825761a38161793d565b5b600061a390848285016190ce565b91505092915050565b6000808335600160200384360303811261a3b65761a3b561a335565b5b80840192508235915067ffffffffffffffff82111561a3d85761a3d761a33a565b5b60208301925060018202360383131561a3f45761a3f361a33f565b5b509250929050565b7f50726f706f73616c20616c726561647920657865637574656400000000000000600082015250565b600061a432601983617d76565b915061a43d8261a3fc565b602082019050919050565b6000602082019050818103600083015261a4618161a425565b9050919050565b7f416c726561647920617070726f76656400000000000000000000000000000000600082015250565b600061a49e601083617d76565b915061a4a98261a468565b602082019050919050565b6000602082019050818103600083015261a4cd8161a491565b9050919050565b600081905092915050565b60008190508160005260206000209050919050565b6000815461a501816194eb565b61a50b818661a4d4565b9450600182166000811461a526576001811461a53b5761a56e565b60ff198316865281151582028601935061a56e565b61a5448561a4df565b60005b8381101561a5665781548189015260018201915060208101905061a547565b838801955050505b50505092915050565b600061a583828461a4f4565b915081905092915050565b7f50726f706f73616c20657865637574696f6e206661696c656400000000000000600082015250565b600061a5c4601983617d76565b915061a5cf8261a58e565b602082019050919050565b6000602082019050818103600083015261a5f38161a5b7565b9050919050565b7f4e6f7420696e20726576696577657220706f6f6c000000000000000000000000600082015250565b600061a630601483617d76565b915061a63b8261a5fa565b602082019050919050565b6000602082019050818103600083015261a65f8161a623565b9050919050565b7f496e76616c6964206e756d626572206f662063686f6963657300000000000000600082015250565b600061a69c601983617d76565b915061a6a78261a666565b602082019050919050565b6000602082019050818103600083015261a6cb8161a68f565b9050919050565b7f496e76616c696420636f72726563742063686f69636520696e64657800000000600082015250565b600061a708601c83617d76565b915061a7138261a6d2565b602082019050919050565b6000602082019050818103600083015261a7378161a6fb565b9050919050565b600061a749826183a0565b915060ff820361a75c5761a75b6195ae565b5b600182019050919050565b7f436f75727365206e6f742079657420617070726f766564210000000000000000600082015250565b600061a79d601883617d76565b915061a7a88261a767565b602082019050919050565b6000602082019050818103600083015261a7cc8161a790565b9050919050565b7f596f752061726520616c726561647920656e726f6c6c656420696e746f20746860008201527f697320636f757273650000000000000000000000000000000000000000000000602082015250565b600061a82f602983617d76565b915061a83a8261a7d3565b604082019050919050565b6000602082019050818103600083015261a85e8161a822565b9050919050565b600060608201905061a87a6000830186617ea7565b61a8876020830185617d4c565b61a8946040830184617d4c565b949350505050565b7f53636f726573206d757374206265206265747765656e203120616e642031302e600082015250565b600061a8d2602083617d76565b915061a8dd8261a89c565b602082019050919050565b6000602082019050818103600083015261a9018161a8c5565b9050919050565b7f4c696d6974204578636565646564210000000000000000000000000000000000600082015250565b600061a93e600f83617d76565b915061a9498261a908565b602082019050919050565b6000602082019050818103600083015261a96d8161a931565b9050919050565b7f496e73756666696369656e742062616c616e6365000000000000000000000000600082015250565b600061a9aa601483617d76565b915061a9b58261a974565b602082019050919050565b6000602082019050818103600083015261a9d98161a99d565b9050919050565b600060408201905061a9f56000830185617ea7565b61aa026020830184617f87565b939250505056fea2646970667358221220a00e1cc3bb7b69b29c09fa8ff9daf5f7fe8e288d3f57c326ee435d9198cf653b64736f6c634300081b0033",
  "linkReferences": {},
  "deployedLinkReferences": {}
}