{
  "_format": "hh-sol-artifact-1",
  "contractName": "Ecosystem2",
  "sourceName": "contracts/Ecosystem Contracts/Ecosystem2.sol",
  "abi": [
    {
      "inputs": [
        {
          "internalType": "address[]",
          "name": "_reviewers",
          "type": "address[]"
        }
      ],
      "stateMutability": "nonpayable",
      "type": "constructor"
    },
    {
      "inputs": [],
      "name": "AccessControlBadConfirmation",
      "type": "error"
    },
    {
      "inputs": [
        {
          "internalType": "address",
          "name": "account",
          "type": "address"
        },
        {
          "internalType": "bytes32",
          "name": "neededRole",
          "type": "bytes32"
        }
      ],
      "name": "AccessControlUnauthorizedAccount",
      "type": "error"
    },
    {
      "inputs": [
        {
          "internalType": "address",
          "name": "spender",
          "type": "address"
        },
        {
          "internalType": "uint256",
          "name": "allowance",
          "type": "uint256"
        },
        {
          "internalType": "uint256",
          "name": "needed",
          "type": "uint256"
        }
      ],
      "name": "ERC20InsufficientAllowance",
      "type": "error"
    },
    {
      "inputs": [
        {
          "internalType": "address",
          "name": "sender",
          "type": "address"
        },
        {
          "internalType": "uint256",
          "name": "balance",
          "type": "uint256"
        },
        {
          "internalType": "uint256",
          "name": "needed",
          "type": "uint256"
        }
      ],
      "name": "ERC20InsufficientBalance",
      "type": "error"
    },
    {
      "inputs": [
        {
          "internalType": "address",
          "name": "approver",
          "type": "address"
        }
      ],
      "name": "ERC20InvalidApprover",
      "type": "error"
    },
    {
      "inputs": [
        {
          "internalType": "address",
          "name": "receiver",
          "type": "address"
        }
      ],
      "name": "ERC20InvalidReceiver",
      "type": "error"
    },
    {
      "inputs": [
        {
          "internalType": "address",
          "name": "sender",
          "type": "address"
        }
      ],
      "name": "ERC20InvalidSender",
      "type": "error"
    },
    {
      "inputs": [
        {
          "internalType": "address",
          "name": "spender",
          "type": "address"
        }
      ],
      "name": "ERC20InvalidSpender",
      "type": "error"
    },
    {
      "inputs": [],
      "name": "ReentrancyGuardReentrantCall",
      "type": "error"
    },
    {
      "anonymous": false,
      "inputs": [
        {
          "indexed": true,
          "internalType": "address",
          "name": "owner",
          "type": "address"
        },
        {
          "indexed": true,
          "internalType": "address",
          "name": "spender",
          "type": "address"
        },
        {
          "indexed": false,
          "internalType": "uint256",
          "name": "value",
          "type": "uint256"
        }
      ],
      "name": "Approval",
      "type": "event"
    },
    {
      "anonymous": false,
      "inputs": [
        {
          "indexed": true,
          "internalType": "address",
          "name": "_account",
          "type": "address"
        },
        {
          "indexed": false,
          "internalType": "uint256",
          "name": "_amount",
          "type": "uint256"
        }
      ],
      "name": "BurnSuccess",
      "type": "event"
    },
    {
      "anonymous": false,
      "inputs": [
        {
          "indexed": true,
          "internalType": "uint256",
          "name": "_courseId",
          "type": "uint256"
        },
        {
          "indexed": true,
          "internalType": "uint256",
          "name": "numberOfChapters",
          "type": "uint256"
        }
      ],
      "name": "ChaptersAddedSuccessfully",
      "type": "event"
    },
    {
      "anonymous": false,
      "inputs": [
        {
          "indexed": false,
          "internalType": "uint256",
          "name": "questionId",
          "type": "uint256"
        },
        {
          "indexed": false,
          "internalType": "uint256",
          "name": "choiceId",
          "type": "uint256"
        },
        {
          "indexed": false,
          "internalType": "string",
          "name": "option",
          "type": "string"
        }
      ],
      "name": "ChoiceAdded",
      "type": "event"
    },
    {
      "anonymous": false,
      "inputs": [
        {
          "indexed": true,
          "internalType": "uint256",
          "name": "_courseID",
          "type": "uint256"
        },
        {
          "indexed": true,
          "internalType": "string",
          "name": "_courseName",
          "type": "string"
        },
        {
          "indexed": false,
          "internalType": "bool",
          "name": "_approved",
          "type": "bool"
        }
      ],
      "name": "CourseCreationSuccess",
      "type": "event"
    },
    {
      "anonymous": false,
      "inputs": [
        {
          "indexed": true,
          "internalType": "address",
          "name": "_to",
          "type": "address"
        },
        {
          "indexed": true,
          "internalType": "uint256",
          "name": "_amount",
          "type": "uint256"
        }
      ],
      "name": "EcosystemPoolUpdate",
      "type": "event"
    },
    {
      "anonymous": false,
      "inputs": [
        {
          "indexed": true,
          "internalType": "uint256",
          "name": "_courseId",
          "type": "uint256"
        },
        {
          "indexed": true,
          "internalType": "address",
          "name": "_by",
          "type": "address"
        }
      ],
      "name": "EnrollmentSuccess",
      "type": "event"
    },
    {
      "anonymous": false,
      "inputs": [
        {
          "indexed": true,
          "internalType": "uint256",
          "name": "_lessonId",
          "type": "uint256"
        },
        {
          "indexed": true,
          "internalType": "string",
          "name": "_lessonName",
          "type": "string"
        },
        {
          "indexed": true,
          "internalType": "uint256",
          "name": "_additonalResources",
          "type": "uint256"
        }
      ],
      "name": "LessonCreationSuccess",
      "type": "event"
    },
    {
      "anonymous": false,
      "inputs": [
        {
          "indexed": true,
          "internalType": "address",
          "name": "_to",
          "type": "address"
        },
        {
          "indexed": true,
          "internalType": "uint256",
          "name": "_amount",
          "type": "uint256"
        }
      ],
      "name": "MintSuccess",
      "type": "event"
    },
    {
      "anonymous": false,
      "inputs": [
        {
          "indexed": true,
          "internalType": "uint256",
          "name": "proposalId",
          "type": "uint256"
        },
        {
          "indexed": false,
          "internalType": "address",
          "name": "approver",
          "type": "address"
        }
      ],
      "name": "MultiSigProposalApproved",
      "type": "event"
    },
    {
      "anonymous": false,
      "inputs": [
        {
          "indexed": true,
          "internalType": "uint256",
          "name": "proposalId",
          "type": "uint256"
        },
        {
          "indexed": false,
          "internalType": "address",
          "name": "proposer",
          "type": "address"
        }
      ],
      "name": "MultiSigProposalCreated",
      "type": "event"
    },
    {
      "anonymous": false,
      "inputs": [
        {
          "indexed": true,
          "internalType": "uint256",
          "name": "proposalId",
          "type": "uint256"
        }
      ],
      "name": "MultiSigProposalExecuted",
      "type": "event"
    },
    {
      "anonymous": false,
      "inputs": [
        {
          "indexed": false,
          "internalType": "uint256",
          "name": "quizId",
          "type": "uint256"
        },
        {
          "indexed": false,
          "internalType": "uint256",
          "name": "questionId",
          "type": "uint256"
        },
        {
          "indexed": false,
          "internalType": "string",
          "name": "questionText",
          "type": "string"
        }
      ],
      "name": "QuestionAdded",
      "type": "event"
    },
    {
      "anonymous": false,
      "inputs": [
        {
          "indexed": true,
          "internalType": "uint256",
          "name": "_quizId",
          "type": "uint256"
        },
        {
          "indexed": true,
          "internalType": "string",
          "name": "_title",
          "type": "string"
        }
      ],
      "name": "QuizCreatedSuccess",
      "type": "event"
    },
    {
      "anonymous": false,
      "inputs": [
        {
          "indexed": true,
          "internalType": "uint256",
          "name": "_lessonId",
          "type": "uint256"
        },
        {
          "indexed": true,
          "internalType": "uint256",
          "name": "resourceCount",
          "type": "uint256"
        }
      ],
      "name": "ResourceAddSuccess",
      "type": "event"
    },
    {
      "anonymous": false,
      "inputs": [
        {
          "indexed": true,
          "internalType": "address",
          "name": "reviewer",
          "type": "address"
        }
      ],
      "name": "ReviewerAddedToPool",
      "type": "event"
    },
    {
      "anonymous": false,
      "inputs": [
        {
          "indexed": true,
          "internalType": "address",
          "name": "reviewer",
          "type": "address"
        }
      ],
      "name": "ReviewerRemovedFromPool",
      "type": "event"
    },
    {
      "anonymous": false,
      "inputs": [
        {
          "indexed": true,
          "internalType": "uint256",
          "name": "courseId",
          "type": "uint256"
        },
        {
          "indexed": false,
          "internalType": "address[]",
          "name": "reviewers",
          "type": "address[]"
        }
      ],
      "name": "ReviewersSelected",
      "type": "event"
    },
    {
      "anonymous": false,
      "inputs": [
        {
          "indexed": true,
          "internalType": "bytes32",
          "name": "role",
          "type": "bytes32"
        },
        {
          "indexed": true,
          "internalType": "bytes32",
          "name": "previousAdminRole",
          "type": "bytes32"
        },
        {
          "indexed": true,
          "internalType": "bytes32",
          "name": "newAdminRole",
          "type": "bytes32"
        }
      ],
      "name": "RoleAdminChanged",
      "type": "event"
    },
    {
      "anonymous": false,
      "inputs": [
        {
          "indexed": true,
          "internalType": "bytes32",
          "name": "role",
          "type": "bytes32"
        },
        {
          "indexed": true,
          "internalType": "address",
          "name": "account",
          "type": "address"
        },
        {
          "indexed": true,
          "internalType": "address",
          "name": "sender",
          "type": "address"
        }
      ],
      "name": "RoleGranted",
      "type": "event"
    },
    {
      "anonymous": false,
      "inputs": [
        {
          "indexed": true,
          "internalType": "bytes32",
          "name": "role",
          "type": "bytes32"
        },
        {
          "indexed": true,
          "internalType": "address",
          "name": "account",
          "type": "address"
        },
        {
          "indexed": true,
          "internalType": "address",
          "name": "sender",
          "type": "address"
        }
      ],
      "name": "RoleRevoked",
      "type": "event"
    },
    {
      "anonymous": false,
      "inputs": [
        {
          "indexed": true,
          "internalType": "address",
          "name": "from",
          "type": "address"
        },
        {
          "indexed": true,
          "internalType": "address",
          "name": "to",
          "type": "address"
        },
        {
          "indexed": false,
          "internalType": "uint256",
          "name": "value",
          "type": "uint256"
        }
      ],
      "name": "Transfer",
      "type": "event"
    },
    {
      "anonymous": false,
      "inputs": [
        {
          "indexed": true,
          "internalType": "uint256",
          "name": "_courseId",
          "type": "uint256"
        },
        {
          "indexed": true,
          "internalType": "address",
          "name": "_by",
          "type": "address"
        }
      ],
      "name": "unEnrollmentSuccess",
      "type": "event"
    },
    {
      "inputs": [],
      "name": "COURSE_OWNER_ROLE",
      "outputs": [
        {
          "internalType": "bytes32",
          "name": "",
          "type": "bytes32"
        }
      ],
      "stateMutability": "view",
      "type": "function"
    },
    {
      "inputs": [],
      "name": "CREATE_COURSE_REWARD",
      "outputs": [
        {
          "internalType": "uint256",
          "name": "",
          "type": "uint256"
        }
      ],
      "stateMutability": "view",
      "type": "function"
    },
    {
      "inputs": [],
      "name": "DEFAULT_ADMIN_ROLE",
      "outputs": [
        {
          "internalType": "bytes32",
          "name": "",
          "type": "bytes32"
        }
      ],
      "stateMutability": "view",
      "type": "function"
    },
    {
      "inputs": [],
      "name": "ECOSYSTEM_POOL",
      "outputs": [
        {
          "internalType": "uint256",
          "name": "",
          "type": "uint256"
        }
      ],
      "stateMutability": "view",
      "type": "function"
    },
    {
      "inputs": [],
      "name": "ENROLLMENT_REWARD",
      "outputs": [
        {
          "internalType": "uint256",
          "name": "",
          "type": "uint256"
        }
      ],
      "stateMutability": "view",
      "type": "function"
    },
    {
      "inputs": [],
      "name": "MAX_SCORE",
      "outputs": [
        {
          "internalType": "uint256",
          "name": "",
          "type": "uint256"
        }
      ],
      "stateMutability": "view",
      "type": "function"
    },
    {
      "inputs": [],
      "name": "MAX_SUPPLY",
      "outputs": [
        {
          "internalType": "uint256",
          "name": "",
          "type": "uint256"
        }
      ],
      "stateMutability": "view",
      "type": "function"
    },
    {
      "inputs": [],
      "name": "MIN_APPROVAL_SCORE",
      "outputs": [
        {
          "internalType": "uint256",
          "name": "",
          "type": "uint256"
        }
      ],
      "stateMutability": "view",
      "type": "function"
    },
    {
      "inputs": [],
      "name": "MULTISIG_APPROVER",
      "outputs": [
        {
          "internalType": "bytes32",
          "name": "",
          "type": "bytes32"
        }
      ],
      "stateMutability": "view",
      "type": "function"
    },
    {
      "inputs": [],
      "name": "REQUIRED_APPROVALS",
      "outputs": [
        {
          "internalType": "uint256",
          "name": "",
          "type": "uint256"
        }
      ],
      "stateMutability": "view",
      "type": "function"
    },
    {
      "inputs": [],
      "name": "REVIEWER_ROLE",
      "outputs": [
        {
          "internalType": "bytes32",
          "name": "",
          "type": "bytes32"
        }
      ],
      "stateMutability": "view",
      "type": "function"
    },
    {
      "inputs": [
        {
          "internalType": "address",
          "name": "",
          "type": "address"
        }
      ],
      "name": "accountCourses",
      "outputs": [
        {
          "internalType": "uint256",
          "name": "courseCount",
          "type": "uint256"
        }
      ],
      "stateMutability": "view",
      "type": "function"
    },
    {
      "inputs": [
        {
          "internalType": "uint256",
          "name": "_courseId",
          "type": "uint256"
        },
        {
          "internalType": "string[]",
          "name": "_chapters",
          "type": "string[]"
        },
        {
          "internalType": "uint256[]",
          "name": "_durations",
          "type": "uint256[]"
        }
      ],
      "name": "addChapters",
      "outputs": [
        {
          "internalType": "bool",
          "name": "",
          "type": "bool"
        }
      ],
      "stateMutability": "nonpayable",
      "type": "function"
    },
    {
      "inputs": [
        {
          "internalType": "uint256",
          "name": "_chapterId",
          "type": "uint256"
        },
        {
          "internalType": "string",
          "name": "_lessonName",
          "type": "string"
        },
        {
          "internalType": "string",
          "name": "_lessonContent",
          "type": "string"
        }
      ],
      "name": "addLesson",
      "outputs": [],
      "stateMutability": "nonpayable",
      "type": "function"
    },
    {
      "inputs": [
        {
          "internalType": "uint256",
          "name": "_lessonId",
          "type": "uint256"
        },
        {
          "internalType": "enum Ecosystem.ContentType",
          "name": "contentType",
          "type": "uint8"
        },
        {
          "components": [
            {
              "internalType": "enum Ecosystem.ContentType",
              "name": "contentType",
              "type": "uint8"
            },
            {
              "internalType": "string",
              "name": "url",
              "type": "string"
            },
            {
              "internalType": "string",
              "name": "name",
              "type": "string"
            }
          ],
          "internalType": "struct Ecosystem.Resource[]",
          "name": "_resources",
          "type": "tuple[]"
        }
      ],
      "name": "addResourcesToLesson",
      "outputs": [],
      "stateMutability": "nonpayable",
      "type": "function"
    },
    {
      "inputs": [
        {
          "internalType": "address",
          "name": "newReviewer",
          "type": "address"
        }
      ],
      "name": "addReviewer",
      "outputs": [],
      "stateMutability": "nonpayable",
      "type": "function"
    },
    {
      "inputs": [
        {
          "internalType": "address",
          "name": "owner",
          "type": "address"
        },
        {
          "internalType": "address",
          "name": "spender",
          "type": "address"
        }
      ],
      "name": "allowance",
      "outputs": [
        {
          "internalType": "uint256",
          "name": "",
          "type": "uint256"
        }
      ],
      "stateMutability": "view",
      "type": "function"
    },
    {
      "inputs": [
        {
          "internalType": "address",
          "name": "",
          "type": "address"
        },
        {
          "internalType": "uint256",
          "name": "",
          "type": "uint256"
        }
      ],
      "name": "approvals",
      "outputs": [
        {
          "internalType": "bool",
          "name": "",
          "type": "bool"
        }
      ],
      "stateMutability": "view",
      "type": "function"
    },
    {
      "inputs": [
        {
          "internalType": "address",
          "name": "spender",
          "type": "address"
        },
        {
          "internalType": "uint256",
          "name": "value",
          "type": "uint256"
        }
      ],
      "name": "approve",
      "outputs": [
        {
          "internalType": "bool",
          "name": "",
          "type": "bool"
        }
      ],
      "stateMutability": "nonpayable",
      "type": "function"
    },
    {
      "inputs": [
        {
          "internalType": "uint256",
          "name": "_courseId",
          "type": "uint256"
        }
      ],
      "name": "approveCourse",
      "outputs": [],
      "stateMutability": "nonpayable",
      "type": "function"
    },
    {
      "inputs": [
        {
          "internalType": "uint256",
          "name": "_proposalId",
          "type": "uint256"
        }
      ],
      "name": "approveMultiSigProposal",
      "outputs": [],
      "stateMutability": "nonpayable",
      "type": "function"
    },
    {
      "inputs": [
        {
          "internalType": "address",
          "name": "account",
          "type": "address"
        }
      ],
      "name": "balanceOf",
      "outputs": [
        {
          "internalType": "uint256",
          "name": "",
          "type": "uint256"
        }
      ],
      "stateMutability": "view",
      "type": "function"
    },
    {
      "inputs": [
        {
          "internalType": "uint256",
          "name": "",
          "type": "uint256"
        }
      ],
      "name": "chapter",
      "outputs": [
        {
          "internalType": "uint256",
          "name": "courseId",
          "type": "uint256"
        },
        {
          "internalType": "uint256",
          "name": "chapterId",
          "type": "uint256"
        },
        {
          "internalType": "string",
          "name": "chapterName",
          "type": "string"
        },
        {
          "internalType": "uint256",
          "name": "duration",
          "type": "uint256"
        },
        {
          "internalType": "bool",
          "name": "exists",
          "type": "bool"
        }
      ],
      "stateMutability": "view",
      "type": "function"
    },
    {
      "inputs": [
        {
          "internalType": "uint256",
          "name": "",
          "type": "uint256"
        },
        {
          "internalType": "uint256",
          "name": "",
          "type": "uint256"
        }
      ],
      "name": "chapterLessons",
      "outputs": [
        {
          "internalType": "string",
          "name": "",
          "type": "string"
        }
      ],
      "stateMutability": "view",
      "type": "function"
    },
    {
      "inputs": [
        {
          "internalType": "uint256",
          "name": "",
          "type": "uint256"
        },
        {
          "internalType": "uint256",
          "name": "",
          "type": "uint256"
        }
      ],
      "name": "courseChapters",
      "outputs": [
        {
          "internalType": "uint256",
          "name": "courseId",
          "type": "uint256"
        },
        {
          "internalType": "uint256",
          "name": "chapterId",
          "type": "uint256"
        },
        {
          "internalType": "string",
          "name": "chapterName",
          "type": "string"
        },
        {
          "internalType": "uint256",
          "name": "duration",
          "type": "uint256"
        },
        {
          "internalType": "bool",
          "name": "exists",
          "type": "bool"
        }
      ],
      "stateMutability": "view",
      "type": "function"
    },
    {
      "inputs": [],
      "name": "courseCount",
      "outputs": [
        {
          "internalType": "uint256",
          "name": "",
          "type": "uint256"
        }
      ],
      "stateMutability": "view",
      "type": "function"
    },
    {
      "inputs": [
        {
          "internalType": "uint256",
          "name": "",
          "type": "uint256"
        }
      ],
      "name": "courseObject",
      "outputs": [
        {
          "internalType": "uint256",
          "name": "courseId",
          "type": "uint256"
        },
        {
          "internalType": "string",
          "name": "courseName",
          "type": "string"
        },
        {
          "internalType": "string",
          "name": "description",
          "type": "string"
        },
        {
          "internalType": "bool",
          "name": "approved",
          "type": "bool"
        },
        {
          "internalType": "uint256",
          "name": "approvalCount",
          "type": "uint256"
        },
        {
          "internalType": "address",
          "name": "creator",
          "type": "address"
        },
        {
          "internalType": "bool",
          "name": "exists",
          "type": "bool"
        },
        {
          "internalType": "enum Ecosystem.DifficultyLevel",
          "name": "difficultyLevel",
          "type": "uint8"
        }
      ],
      "stateMutability": "view",
      "type": "function"
    },
    {
      "inputs": [
        {
          "internalType": "uint256",
          "name": "",
          "type": "uint256"
        }
      ],
      "name": "courseReviewInitiated",
      "outputs": [
        {
          "internalType": "bool",
          "name": "",
          "type": "bool"
        }
      ],
      "stateMutability": "view",
      "type": "function"
    },
    {
      "inputs": [
        {
          "internalType": "uint256",
          "name": "",
          "type": "uint256"
        },
        {
          "internalType": "uint256",
          "name": "",
          "type": "uint256"
        }
      ],
      "name": "courseReviewers",
      "outputs": [
        {
          "internalType": "address",
          "name": "",
          "type": "address"
        }
      ],
      "stateMutability": "view",
      "type": "function"
    },
    {
      "inputs": [
        {
          "internalType": "string",
          "name": "_courseName",
          "type": "string"
        },
        {
          "internalType": "string",
          "name": "_description",
          "type": "string"
        },
        {
          "internalType": "enum Ecosystem.DifficultyLevel",
          "name": "_difficultyLevel",
          "type": "uint8"
        }
      ],
      "name": "createCourse",
      "outputs": [
        {
          "internalType": "bool",
          "name": "",
          "type": "bool"
        }
      ],
      "stateMutability": "nonpayable",
      "type": "function"
    },
    {
      "inputs": [
        {
          "internalType": "uint256",
          "name": "_quizId",
          "type": "uint256"
        },
        {
          "internalType": "string",
          "name": "_questionText",
          "type": "string"
        },
        {
          "internalType": "string[]",
          "name": "_options",
          "type": "string[]"
        },
        {
          "internalType": "uint8",
          "name": "_correctChoiceIndex",
          "type": "uint8"
        }
      ],
      "name": "createQuestionWithChoices",
      "outputs": [],
      "stateMutability": "nonpayable",
      "type": "function"
    },
    {
      "inputs": [
        {
          "internalType": "uint256",
          "name": "_lessonId",
          "type": "uint256"
        },
        {
          "internalType": "string",
          "name": "_title",
          "type": "string"
        }
      ],
      "name": "createQuiz",
      "outputs": [
        {
          "internalType": "uint256",
          "name": "",
          "type": "uint256"
        }
      ],
      "stateMutability": "nonpayable",
      "type": "function"
    },
    {
      "inputs": [],
      "name": "decimals",
      "outputs": [
        {
          "internalType": "uint8",
          "name": "",
          "type": "uint8"
        }
      ],
      "stateMutability": "view",
      "type": "function"
    },
    {
      "inputs": [],
      "name": "ecosystemPoolSupply",
      "outputs": [
        {
          "internalType": "uint256",
          "name": "",
          "type": "uint256"
        }
      ],
      "stateMutability": "view",
      "type": "function"
    },
    {
      "inputs": [
        {
          "internalType": "uint256",
          "name": "_courseId",
          "type": "uint256"
        }
      ],
      "name": "enroll",
      "outputs": [
        {
          "internalType": "bool",
          "name": "",
          "type": "bool"
        }
      ],
      "stateMutability": "nonpayable",
      "type": "function"
    },
    {
      "inputs": [],
      "name": "getAllChapters",
      "outputs": [
        {
          "components": [
            {
              "internalType": "uint256",
              "name": "courseId",
              "type": "uint256"
            },
            {
              "internalType": "uint256",
              "name": "chapterId",
              "type": "uint256"
            },
            {
              "internalType": "string",
              "name": "chapterName",
              "type": "string"
            },
            {
              "internalType": "uint256",
              "name": "duration",
              "type": "uint256"
            },
            {
              "internalType": "bool",
              "name": "exists",
              "type": "bool"
            }
          ],
          "internalType": "struct Ecosystem.Chapter[]",
          "name": "",
          "type": "tuple[]"
        }
      ],
      "stateMutability": "view",
      "type": "function"
    },
    {
      "inputs": [],
      "name": "getAllCourses",
      "outputs": [
        {
          "components": [
            {
              "internalType": "uint256",
              "name": "courseId",
              "type": "uint256"
            },
            {
              "internalType": "string",
              "name": "courseName",
              "type": "string"
            },
            {
              "internalType": "string",
              "name": "description",
              "type": "string"
            },
            {
              "internalType": "bool",
              "name": "approved",
              "type": "bool"
            },
            {
              "internalType": "uint256",
              "name": "approvalCount",
              "type": "uint256"
            },
            {
              "internalType": "address",
              "name": "creator",
              "type": "address"
            },
            {
              "internalType": "bool",
              "name": "exists",
              "type": "bool"
            },
            {
              "internalType": "address[]",
              "name": "enrolledStudents",
              "type": "address[]"
            },
            {
              "internalType": "enum Ecosystem.DifficultyLevel",
              "name": "difficultyLevel",
              "type": "uint8"
            }
          ],
          "internalType": "struct Ecosystem.Course[]",
          "name": "",
          "type": "tuple[]"
        }
      ],
      "stateMutability": "view",
      "type": "function"
    },
    {
      "inputs": [],
      "name": "getAllLessons",
      "outputs": [
        {
          "components": [
            {
              "internalType": "uint256",
              "name": "chapterId",
              "type": "uint256"
            },
            {
              "internalType": "uint256",
              "name": "lessonId",
              "type": "uint256"
            },
            {
              "internalType": "string",
              "name": "lessonName",
              "type": "string"
            },
            {
              "internalType": "string",
              "name": "lessonContent",
              "type": "string"
            },
            {
              "components": [
                {
                  "internalType": "enum Ecosystem.ContentType",
                  "name": "contentType",
                  "type": "uint8"
                },
                {
                  "internalType": "string",
                  "name": "url",
                  "type": "string"
                },
                {
                  "internalType": "string",
                  "name": "name",
                  "type": "string"
                }
              ],
              "internalType": "struct Ecosystem.Resource[10]",
              "name": "additionalResources",
              "type": "tuple[10]"
            },
            {
              "internalType": "uint256",
              "name": "resourceCount",
              "type": "uint256"
            },
            {
              "internalType": "bool",
              "name": "exists",
              "type": "bool"
            }
          ],
          "internalType": "struct Ecosystem.Lesson[]",
          "name": "",
          "type": "tuple[]"
        }
      ],
      "stateMutability": "view",
      "type": "function"
    },
    {
      "inputs": [],
      "name": "getAllQuizzes",
      "outputs": [
        {
          "components": [
            {
              "internalType": "uint256",
              "name": "lessonId",
              "type": "uint256"
            },
            {
              "internalType": "uint256",
              "name": "quizId",
              "type": "uint256"
            },
            {
              "internalType": "string",
              "name": "quizTitle",
              "type": "string"
            },
            {
              "components": [
                {
                  "internalType": "uint256",
                  "name": "quizId",
                  "type": "uint256"
                },
                {
                  "internalType": "uint256",
                  "name": "questionId",
                  "type": "uint256"
                },
                {
                  "internalType": "string",
                  "name": "questionText",
                  "type": "string"
                },
                {
                  "components": [
                    {
                      "internalType": "string",
                      "name": "option",
                      "type": "string"
                    },
                    {
                      "internalType": "bool",
                      "name": "isCorrect",
                      "type": "bool"
                    }
                  ],
                  "internalType": "struct Ecosystem.Choice[]",
                  "name": "choices",
                  "type": "tuple[]"
                }
              ],
              "internalType": "struct Ecosystem.Question[]",
              "name": "questions",
              "type": "tuple[]"
            },
            {
              "internalType": "bool",
              "name": "exists",
              "type": "bool"
            }
          ],
          "internalType": "struct Ecosystem.Quiz[]",
          "name": "",
          "type": "tuple[]"
        }
      ],
      "stateMutability": "view",
      "type": "function"
    },
    {
      "inputs": [
        {
          "internalType": "uint256",
          "name": "_courseId",
          "type": "uint256"
        }
      ],
      "name": "getChapters",
      "outputs": [
        {
          "components": [
            {
              "internalType": "uint256",
              "name": "courseId",
              "type": "uint256"
            },
            {
              "internalType": "uint256",
              "name": "chapterId",
              "type": "uint256"
            },
            {
              "internalType": "string",
              "name": "chapterName",
              "type": "string"
            },
            {
              "internalType": "uint256",
              "name": "duration",
              "type": "uint256"
            },
            {
              "internalType": "bool",
              "name": "exists",
              "type": "bool"
            }
          ],
          "internalType": "struct Ecosystem.Chapter[]",
          "name": "",
          "type": "tuple[]"
        }
      ],
      "stateMutability": "view",
      "type": "function"
    },
    {
      "inputs": [
        {
          "internalType": "uint256",
          "name": "courseId",
          "type": "uint256"
        }
      ],
      "name": "getCourseReviewers",
      "outputs": [
        {
          "internalType": "address[]",
          "name": "",
          "type": "address[]"
        }
      ],
      "stateMutability": "view",
      "type": "function"
    },
    {
      "inputs": [],
      "name": "getCurrentEcosystemPoolSupply",
      "outputs": [
        {
          "internalType": "uint256",
          "name": "",
          "type": "uint256"
        }
      ],
      "stateMutability": "view",
      "type": "function"
    },
    {
      "inputs": [
        {
          "internalType": "uint256",
          "name": "_quizId",
          "type": "uint256"
        }
      ],
      "name": "getQuestionsForQuiz",
      "outputs": [
        {
          "components": [
            {
              "internalType": "uint256",
              "name": "quizId",
              "type": "uint256"
            },
            {
              "internalType": "uint256",
              "name": "questionId",
              "type": "uint256"
            },
            {
              "internalType": "string",
              "name": "questionText",
              "type": "string"
            },
            {
              "components": [
                {
                  "internalType": "string",
                  "name": "option",
                  "type": "string"
                },
                {
                  "internalType": "bool",
                  "name": "isCorrect",
                  "type": "bool"
                }
              ],
              "internalType": "struct Ecosystem.Choice[]",
              "name": "choices",
              "type": "tuple[]"
            }
          ],
          "internalType": "struct Ecosystem.Question[]",
          "name": "",
          "type": "tuple[]"
        }
      ],
      "stateMutability": "view",
      "type": "function"
    },
    {
      "inputs": [
        {
          "internalType": "uint256",
          "name": "_quizId",
          "type": "uint256"
        }
      ],
      "name": "getQuiz",
      "outputs": [
        {
          "components": [
            {
              "internalType": "uint256",
              "name": "lessonId",
              "type": "uint256"
            },
            {
              "internalType": "uint256",
              "name": "quizId",
              "type": "uint256"
            },
            {
              "internalType": "string",
              "name": "quizTitle",
              "type": "string"
            },
            {
              "components": [
                {
                  "internalType": "uint256",
                  "name": "quizId",
                  "type": "uint256"
                },
                {
                  "internalType": "uint256",
                  "name": "questionId",
                  "type": "uint256"
                },
                {
                  "internalType": "string",
                  "name": "questionText",
                  "type": "string"
                },
                {
                  "components": [
                    {
                      "internalType": "string",
                      "name": "option",
                      "type": "string"
                    },
                    {
                      "internalType": "bool",
                      "name": "isCorrect",
                      "type": "bool"
                    }
                  ],
                  "internalType": "struct Ecosystem.Choice[]",
                  "name": "choices",
                  "type": "tuple[]"
                }
              ],
              "internalType": "struct Ecosystem.Question[]",
              "name": "questions",
              "type": "tuple[]"
            },
            {
              "internalType": "bool",
              "name": "exists",
              "type": "bool"
            }
          ],
          "internalType": "struct Ecosystem.Quiz",
          "name": "",
          "type": "tuple"
        }
      ],
      "stateMutability": "view",
      "type": "function"
    },
    {
      "inputs": [
        {
          "internalType": "bytes32",
          "name": "role",
          "type": "bytes32"
        }
      ],
      "name": "getRoleAdmin",
      "outputs": [
        {
          "internalType": "bytes32",
          "name": "",
          "type": "bytes32"
        }
      ],
      "stateMutability": "view",
      "type": "function"
    },
    {
      "inputs": [
        {
          "internalType": "bytes32",
          "name": "role",
          "type": "bytes32"
        },
        {
          "internalType": "address",
          "name": "account",
          "type": "address"
        }
      ],
      "name": "grantRole",
      "outputs": [],
      "stateMutability": "nonpayable",
      "type": "function"
    },
    {
      "inputs": [
        {
          "internalType": "bytes32",
          "name": "role",
          "type": "bytes32"
        },
        {
          "internalType": "address",
          "name": "account",
          "type": "address"
        }
      ],
      "name": "hasRole",
      "outputs": [
        {
          "internalType": "bool",
          "name": "",
          "type": "bool"
        }
      ],
      "stateMutability": "view",
      "type": "function"
    },
    {
      "inputs": [
        {
          "internalType": "uint256",
          "name": "",
          "type": "uint256"
        },
        {
          "internalType": "address",
          "name": "",
          "type": "address"
        }
      ],
      "name": "isEnrolled",
      "outputs": [
        {
          "internalType": "bool",
          "name": "",
          "type": "bool"
        }
      ],
      "stateMutability": "view",
      "type": "function"
    },
    {
      "inputs": [
        {
          "internalType": "address",
          "name": "",
          "type": "address"
        }
      ],
      "name": "isInReviewerPool",
      "outputs": [
        {
          "internalType": "bool",
          "name": "",
          "type": "bool"
        }
      ],
      "stateMutability": "view",
      "type": "function"
    },
    {
      "inputs": [
        {
          "internalType": "address",
          "name": "account",
          "type": "address"
        }
      ],
      "name": "isReviewer",
      "outputs": [
        {
          "internalType": "bool",
          "name": "",
          "type": "bool"
        }
      ],
      "stateMutability": "view",
      "type": "function"
    },
    {
      "inputs": [
        {
          "internalType": "uint256",
          "name": "",
          "type": "uint256"
        }
      ],
      "name": "lesson",
      "outputs": [
        {
          "internalType": "uint256",
          "name": "chapterId",
          "type": "uint256"
        },
        {
          "internalType": "uint256",
          "name": "lessonId",
          "type": "uint256"
        },
        {
          "internalType": "string",
          "name": "lessonName",
          "type": "string"
        },
        {
          "internalType": "string",
          "name": "lessonContent",
          "type": "string"
        },
        {
          "internalType": "uint256",
          "name": "resourceCount",
          "type": "uint256"
        },
        {
          "internalType": "bool",
          "name": "exists",
          "type": "bool"
        }
      ],
      "stateMutability": "view",
      "type": "function"
    },
    {
      "inputs": [
        {
          "internalType": "uint256",
          "name": "",
          "type": "uint256"
        }
      ],
      "name": "listOfChapters",
      "outputs": [
        {
          "internalType": "uint256",
          "name": "courseId",
          "type": "uint256"
        },
        {
          "internalType": "uint256",
          "name": "chapterId",
          "type": "uint256"
        },
        {
          "internalType": "string",
          "name": "chapterName",
          "type": "string"
        },
        {
          "internalType": "uint256",
          "name": "duration",
          "type": "uint256"
        },
        {
          "internalType": "bool",
          "name": "exists",
          "type": "bool"
        }
      ],
      "stateMutability": "view",
      "type": "function"
    },
    {
      "inputs": [
        {
          "internalType": "uint256",
          "name": "",
          "type": "uint256"
        }
      ],
      "name": "listOfCourses",
      "outputs": [
        {
          "internalType": "uint256",
          "name": "courseId",
          "type": "uint256"
        },
        {
          "internalType": "string",
          "name": "courseName",
          "type": "string"
        },
        {
          "internalType": "string",
          "name": "description",
          "type": "string"
        },
        {
          "internalType": "bool",
          "name": "approved",
          "type": "bool"
        },
        {
          "internalType": "uint256",
          "name": "approvalCount",
          "type": "uint256"
        },
        {
          "internalType": "address",
          "name": "creator",
          "type": "address"
        },
        {
          "internalType": "bool",
          "name": "exists",
          "type": "bool"
        },
        {
          "internalType": "enum Ecosystem.DifficultyLevel",
          "name": "difficultyLevel",
          "type": "uint8"
        }
      ],
      "stateMutability": "view",
      "type": "function"
    },
    {
      "inputs": [
        {
          "internalType": "uint256",
          "name": "",
          "type": "uint256"
        }
      ],
      "name": "listOfLessons",
      "outputs": [
        {
          "internalType": "uint256",
          "name": "chapterId",
          "type": "uint256"
        },
        {
          "internalType": "uint256",
          "name": "lessonId",
          "type": "uint256"
        },
        {
          "internalType": "string",
          "name": "lessonName",
          "type": "string"
        },
        {
          "internalType": "string",
          "name": "lessonContent",
          "type": "string"
        },
        {
          "internalType": "uint256",
          "name": "resourceCount",
          "type": "uint256"
        },
        {
          "internalType": "bool",
          "name": "exists",
          "type": "bool"
        }
      ],
      "stateMutability": "view",
      "type": "function"
    },
    {
      "inputs": [
        {
          "internalType": "uint256",
          "name": "",
          "type": "uint256"
        }
      ],
      "name": "listOfQuestions",
      "outputs": [
        {
          "internalType": "uint256",
          "name": "quizId",
          "type": "uint256"
        },
        {
          "internalType": "uint256",
          "name": "questionId",
          "type": "uint256"
        },
        {
          "internalType": "string",
          "name": "questionText",
          "type": "string"
        }
      ],
      "stateMutability": "view",
      "type": "function"
    },
    {
      "inputs": [
        {
          "internalType": "uint256",
          "name": "",
          "type": "uint256"
        }
      ],
      "name": "listOfQuizzes",
      "outputs": [
        {
          "internalType": "uint256",
          "name": "lessonId",
          "type": "uint256"
        },
        {
          "internalType": "uint256",
          "name": "quizId",
          "type": "uint256"
        },
        {
          "internalType": "string",
          "name": "quizTitle",
          "type": "string"
        },
        {
          "internalType": "bool",
          "name": "exists",
          "type": "bool"
        }
      ],
      "stateMutability": "view",
      "type": "function"
    },
    {
      "inputs": [
        {
          "internalType": "uint256",
          "name": "",
          "type": "uint256"
        }
      ],
      "name": "listOfResource",
      "outputs": [
        {
          "internalType": "enum Ecosystem.ContentType",
          "name": "contentType",
          "type": "uint8"
        },
        {
          "internalType": "string",
          "name": "url",
          "type": "string"
        },
        {
          "internalType": "string",
          "name": "name",
          "type": "string"
        }
      ],
      "stateMutability": "view",
      "type": "function"
    },
    {
      "inputs": [
        {
          "internalType": "uint256",
          "name": "",
          "type": "uint256"
        }
      ],
      "name": "multiSigProposals",
      "outputs": [
        {
          "internalType": "uint256",
          "name": "id",
          "type": "uint256"
        },
        {
          "internalType": "address",
          "name": "proposer",
          "type": "address"
        },
        {
          "internalType": "address",
          "name": "targetContract",
          "type": "address"
        },
        {
          "internalType": "bytes",
          "name": "data",
          "type": "bytes"
        },
        {
          "internalType": "uint256",
          "name": "approvalCount",
          "type": "uint256"
        },
        {
          "internalType": "bool",
          "name": "executed",
          "type": "bool"
        }
      ],
      "stateMutability": "view",
      "type": "function"
    },
    {
      "inputs": [],
      "name": "name",
      "outputs": [
        {
          "internalType": "string",
          "name": "",
          "type": "string"
        }
      ],
      "stateMutability": "view",
      "type": "function"
    },
    {
      "inputs": [],
      "name": "nextChapterId",
      "outputs": [
        {
          "internalType": "uint256",
          "name": "",
          "type": "uint256"
        }
      ],
      "stateMutability": "view",
      "type": "function"
    },
    {
      "inputs": [],
      "name": "nextChoiceId",
      "outputs": [
        {
          "internalType": "uint256",
          "name": "",
          "type": "uint256"
        }
      ],
      "stateMutability": "view",
      "type": "function"
    },
    {
      "inputs": [],
      "name": "nextCourseId",
      "outputs": [
        {
          "internalType": "uint256",
          "name": "",
          "type": "uint256"
        }
      ],
      "stateMutability": "view",
      "type": "function"
    },
    {
      "inputs": [],
      "name": "nextCourseIdd",
      "outputs": [
        {
          "internalType": "uint256",
          "name": "",
          "type": "uint256"
        }
      ],
      "stateMutability": "view",
      "type": "function"
    },
    {
      "inputs": [],
      "name": "nextLessonId",
      "outputs": [
        {
          "internalType": "uint256",
          "name": "",
          "type": "uint256"
        }
      ],
      "stateMutability": "view",
      "type": "function"
    },
    {
      "inputs": [],
      "name": "nextQuestionId",
      "outputs": [
        {
          "internalType": "uint256",
          "name": "",
          "type": "uint256"
        }
      ],
      "stateMutability": "view",
      "type": "function"
    },
    {
      "inputs": [],
      "name": "nextQuizId",
      "outputs": [
        {
          "internalType": "uint256",
          "name": "",
          "type": "uint256"
        }
      ],
      "stateMutability": "view",
      "type": "function"
    },
    {
      "inputs": [
        {
          "internalType": "uint256",
          "name": "",
          "type": "uint256"
        }
      ],
      "name": "questions",
      "outputs": [
        {
          "internalType": "uint256",
          "name": "quizId",
          "type": "uint256"
        },
        {
          "internalType": "uint256",
          "name": "questionId",
          "type": "uint256"
        },
        {
          "internalType": "string",
          "name": "questionText",
          "type": "string"
        }
      ],
      "stateMutability": "view",
      "type": "function"
    },
    {
      "inputs": [
        {
          "internalType": "uint256",
          "name": "",
          "type": "uint256"
        }
      ],
      "name": "quizzes",
      "outputs": [
        {
          "internalType": "uint256",
          "name": "lessonId",
          "type": "uint256"
        },
        {
          "internalType": "uint256",
          "name": "quizId",
          "type": "uint256"
        },
        {
          "internalType": "string",
          "name": "quizTitle",
          "type": "string"
        },
        {
          "internalType": "bool",
          "name": "exists",
          "type": "bool"
        }
      ],
      "stateMutability": "view",
      "type": "function"
    },
    {
      "inputs": [
        {
          "internalType": "address",
          "name": "reviewer",
          "type": "address"
        }
      ],
      "name": "removeReviewer",
      "outputs": [],
      "stateMutability": "nonpayable",
      "type": "function"
    },
    {
      "inputs": [
        {
          "internalType": "bytes32",
          "name": "role",
          "type": "bytes32"
        },
        {
          "internalType": "address",
          "name": "callerConfirmation",
          "type": "address"
        }
      ],
      "name": "renounceRole",
      "outputs": [],
      "stateMutability": "nonpayable",
      "type": "function"
    },
    {
      "inputs": [
        {
          "internalType": "uint256",
          "name": "",
          "type": "uint256"
        }
      ],
      "name": "reviewerPool",
      "outputs": [
        {
          "internalType": "address",
          "name": "",
          "type": "address"
        }
      ],
      "stateMutability": "view",
      "type": "function"
    },
    {
      "inputs": [
        {
          "internalType": "uint256",
          "name": "",
          "type": "uint256"
        },
        {
          "internalType": "address",
          "name": "",
          "type": "address"
        }
      ],
      "name": "reviews",
      "outputs": [
        {
          "internalType": "uint256",
          "name": "learnerAgency",
          "type": "uint256"
        },
        {
          "internalType": "uint256",
          "name": "criticalThinking",
          "type": "uint256"
        },
        {
          "internalType": "uint256",
          "name": "collaborativeLearning",
          "type": "uint256"
        },
        {
          "internalType": "uint256",
          "name": "reflectivePractice",
          "type": "uint256"
        },
        {
          "internalType": "uint256",
          "name": "adaptiveLearning",
          "type": "uint256"
        },
        {
          "internalType": "uint256",
          "name": "authenticLearning",
          "type": "uint256"
        },
        {
          "internalType": "uint256",
          "name": "technologyIntegration",
          "type": "uint256"
        },
        {
          "internalType": "uint256",
          "name": "learnerSupport",
          "type": "uint256"
        },
        {
          "internalType": "uint256",
          "name": "assessmentForLearning",
          "type": "uint256"
        },
        {
          "internalType": "uint256",
          "name": "engagementAndMotivation",
          "type": "uint256"
        },
        {
          "internalType": "bool",
          "name": "isSubmitted",
          "type": "bool"
        }
      ],
      "stateMutability": "view",
      "type": "function"
    },
    {
      "inputs": [
        {
          "internalType": "bytes32",
          "name": "role",
          "type": "bytes32"
        },
        {
          "internalType": "address",
          "name": "account",
          "type": "address"
        }
      ],
      "name": "revokeRole",
      "outputs": [],
      "stateMutability": "nonpayable",
      "type": "function"
    },
    {
      "inputs": [
        {
          "internalType": "uint256",
          "name": "courseId",
          "type": "uint256"
        }
      ],
      "name": "selectCourseReviewers",
      "outputs": [],
      "stateMutability": "nonpayable",
      "type": "function"
    },
    {
      "inputs": [
        {
          "internalType": "uint256",
          "name": "courseId",
          "type": "uint256"
        },
        {
          "internalType": "uint256",
          "name": "learnerAgency",
          "type": "uint256"
        },
        {
          "internalType": "uint256",
          "name": "criticalThinking",
          "type": "uint256"
        },
        {
          "internalType": "uint256",
          "name": "collaborativeLearning",
          "type": "uint256"
        },
        {
          "internalType": "uint256",
          "name": "reflectivePractice",
          "type": "uint256"
        },
        {
          "internalType": "uint256",
          "name": "adaptiveLearning",
          "type": "uint256"
        },
        {
          "internalType": "uint256",
          "name": "authenticLearning",
          "type": "uint256"
        },
        {
          "internalType": "uint256",
          "name": "technologyIntegration",
          "type": "uint256"
        },
        {
          "internalType": "uint256",
          "name": "learnerSupport",
          "type": "uint256"
        },
        {
          "internalType": "uint256",
          "name": "assessmentForLearning",
          "type": "uint256"
        },
        {
          "internalType": "uint256",
          "name": "engagementAndMotivation",
          "type": "uint256"
        }
      ],
      "name": "submitReview",
      "outputs": [],
      "stateMutability": "nonpayable",
      "type": "function"
    },
    {
      "inputs": [
        {
          "internalType": "bytes4",
          "name": "interfaceId",
          "type": "bytes4"
        }
      ],
      "name": "supportsInterface",
      "outputs": [
        {
          "internalType": "bool",
          "name": "",
          "type": "bool"
        }
      ],
      "stateMutability": "view",
      "type": "function"
    },
    {
      "inputs": [],
      "name": "symbol",
      "outputs": [
        {
          "internalType": "string",
          "name": "",
          "type": "string"
        }
      ],
      "stateMutability": "view",
      "type": "function"
    },
    {
      "inputs": [],
      "name": "totalSupply",
      "outputs": [
        {
          "internalType": "uint256",
          "name": "",
          "type": "uint256"
        }
      ],
      "stateMutability": "view",
      "type": "function"
    },
    {
      "inputs": [
        {
          "internalType": "address",
          "name": "to",
          "type": "address"
        },
        {
          "internalType": "uint256",
          "name": "value",
          "type": "uint256"
        }
      ],
      "name": "transfer",
      "outputs": [
        {
          "internalType": "bool",
          "name": "",
          "type": "bool"
        }
      ],
      "stateMutability": "nonpayable",
      "type": "function"
    },
    {
      "inputs": [
        {
          "internalType": "address",
          "name": "from",
          "type": "address"
        },
        {
          "internalType": "address",
          "name": "to",
          "type": "address"
        },
        {
          "internalType": "uint256",
          "name": "value",
          "type": "uint256"
        }
      ],
      "name": "transferFrom",
      "outputs": [
        {
          "internalType": "bool",
          "name": "",
          "type": "bool"
        }
      ],
      "stateMutability": "nonpayable",
      "type": "function"
    },
    {
      "inputs": [
        {
          "internalType": "uint256",
          "name": "_courseId",
          "type": "uint256"
        }
      ],
      "name": "unEnroll",
      "outputs": [
        {
          "internalType": "bool",
          "name": "",
          "type": "bool"
        }
      ],
      "stateMutability": "nonpayable",
      "type": "function"
    }
  ],
  "bytecode": "0x608060405234801561001057600080fd5b5060405161b87e38038061b87e8339818101604052810190610032919061063b565b80806040518060400160405280600a81526020017f4142594120544f4b454e000000000000000000000000000000000000000000008152506040518060400160405280600681526020017f414259544b4e000000000000000000000000000000000000000000000000000081525081600390816100af91906108a5565b5080600490816100bf91906108a5565b505050600481511015610107576040517f08c379a00000000000000000000000000000000000000000000000000000000081526004016100fe906109fa565b60405180910390fd5b61011a6000801b336102c060201b60201c565b5061014b7fdf1425bae297c2f52b4f15d18a50b1fc8cb5b981a981b1d213ed3ff92681b64d336102c060201b60201c565b5060005b815181101561029f576101a27fc10c77be35aff266144ed64c26a1fa104bae2f284ae99ac4a34203454704a18583838151811061018f5761018e610a1a565b5b60200260200101516102c060201b60201c565b5060068282815181106101b8576101b7610a1a565b5b60200260200101519080600181540180825580915050600190039060005260206000200160009091909190916101000a81548173ffffffffffffffffffffffffffffffffffffffff021916908373ffffffffffffffffffffffffffffffffffffffff16021790555060016008600084848151811061023957610238610a1a565b5b602002602001015173ffffffffffffffffffffffffffffffffffffffff1673ffffffffffffffffffffffffffffffffffffffff16815260200190815260200160002060006101000a81548160ff021916908315150217905550808060010191505061014f565b50506001600a819055506102b9600b6103be60201b60201c565b5050610a49565b60006102d283836103fd60201b60201c565b6103b35760016005600085815260200190815260200160002060000160008473ffffffffffffffffffffffffffffffffffffffff1673ffffffffffffffffffffffffffffffffffffffff16815260200190815260200160002060006101000a81548160ff02191690831515021790555061035061046860201b60201c565b73ffffffffffffffffffffffffffffffffffffffff168273ffffffffffffffffffffffffffffffffffffffff16847f2f8788117e7eff1d82e926ec794901d17c78024a50270940304540a733656f0d60405160405180910390a4600190506103b8565b600090505b92915050565b60018160000181905550600181600101819055506001816002018190555060018160030181905550600181600401819055506001816005018190555050565b60006005600084815260200190815260200160002060000160008373ffffffffffffffffffffffffffffffffffffffff1673ffffffffffffffffffffffffffffffffffffffff16815260200190815260200160002060009054906101000a900460ff16905092915050565b600033905090565b6000604051905090565b600080fd5b600080fd5b600080fd5b6000601f19601f8301169050919050565b7f4e487b7100000000000000000000000000000000000000000000000000000000600052604160045260246000fd5b6104d282610489565b810181811067ffffffffffffffff821117156104f1576104f061049a565b5b80604052505050565b6000610504610470565b905061051082826104c9565b919050565b600067ffffffffffffffff8211156105305761052f61049a565b5b602082029050602081019050919050565b600080fd5b600073ffffffffffffffffffffffffffffffffffffffff82169050919050565b600061057182610546565b9050919050565b61058181610566565b811461058c57600080fd5b50565b60008151905061059e81610578565b92915050565b60006105b76105b284610515565b6104fa565b905080838252602082019050602084028301858111156105da576105d9610541565b5b835b8181101561060357806105ef888261058f565b8452602084019350506020810190506105dc565b5050509392505050565b600082601f83011261062257610621610484565b5b81516106328482602086016105a4565b91505092915050565b6000602082840312156106515761065061047a565b5b600082015167ffffffffffffffff81111561066f5761066e61047f565b5b61067b8482850161060d565b91505092915050565b600081519050919050565b7f4e487b7100000000000000000000000000000000000000000000000000000000600052602260045260246000fd5b600060028204905060018216806106d657607f821691505b6020821081036106e9576106e861068f565b5b50919050565b60008190508160005260206000209050919050565b60006020601f8301049050919050565b600082821b905092915050565b6000600883026107517fffffffffffffffffffffffffffffffffffffffffffffffffffffffffffffffff82610714565b61075b8683610714565b95508019841693508086168417925050509392505050565b6000819050919050565b6000819050919050565b60006107a261079d61079884610773565b61077d565b610773565b9050919050565b6000819050919050565b6107bc83610787565b6107d06107c8826107a9565b848454610721565b825550505050565b600090565b6107e56107d8565b6107f08184846107b3565b505050565b5b81811015610814576108096000826107dd565b6001810190506107f6565b5050565b601f8211156108595761082a816106ef565b61083384610704565b81016020851015610842578190505b61085661084e85610704565b8301826107f5565b50505b505050565b600082821c905092915050565b600061087c6000198460080261085e565b1980831691505092915050565b6000610895838361086b565b9150826002028217905092915050565b6108ae82610684565b67ffffffffffffffff8111156108c7576108c661049a565b5b6108d182546106be565b6108dc828285610818565b600060209050601f83116001811461090f57600084156108fd578287015190505b6109078582610889565b86555061096f565b601f19841661091d866106ef565b60005b8281101561094557848901518255600182019150602085019450602081019050610920565b86831015610962578489015161095e601f89168261086b565b8355505b6001600288020188555050505b505050505050565b600082825260208201905092915050565b7f4174206c6561737420342072657669657765727320617265207265717569726560008201527f6400000000000000000000000000000000000000000000000000000000000000602082015250565b60006109e4602183610977565b91506109ef82610988565b604082019050919050565b60006020820190508181036000830152610a13816109d7565b9050919050565b7f4e487b7100000000000000000000000000000000000000000000000000000000600052603260045260246000fd5b61ae2680610a586000396000f3fe608060405234801561001057600080fd5b506004361061048b5760003560e01c806375b9d86911610262578063bad0dd6511610151578063d3751bfc116100ce578063ded5c18d11610092578063ded5c18d1461101b578063e503f10814611039578063eb264b9c14611057578063f57d585b14611075578063fdc6258a146110a5578063ffabc673146110d55761048b565b8063d3751bfc14610f63578063d547741f14610f7f578063d93f2caa14610f9b578063dd62ed3e14610fb9578063ddfc79fb14610fe95761048b565b8063c7954e4c11610115578063c7954e4c14610e95578063c90c884d14610eb3578063c9442dac14610ee7578063c976831514610f03578063d214ba7414610f335761048b565b8063bad0dd6514610daa578063bfd2f4c514610dc6578063c12804fb14610dfb578063c293bbbe14610e35578063c491b04c14610e655761048b565b8063a1cd05b1116101df578063a9059cbb116101a3578063a9059cbb14610ce0578063aa95da3a14610d10578063ac678a9314610d40578063ac957c6314610d70578063b31a4af314610d8e5761048b565b8063a1cd05b114610c10578063a217fddf14610c40578063a296ea5814610c5e578063a3ef204114610c7c578063a3f7e09614610cb05761048b565b80638ea6e2fd116102265780638ea6e2fd14610b6a57806391d1485414610b8657806395d89b4114610bb65780639bce575114610bd4578063a14ecbdf14610bf25761048b565b806375b9d86914610aaf5780637d83daf214610acb578063846f815214610ae957806388409afa14610b075780638a2492bb14610b3a5761048b565b806332cb6b0c1161037e57806358a3fa25116102fb5780636b000fa7116102bf5780636b000fa7146109f25780636fdb67f714610a1057806370a0823114610a4757806373a82b5f14610a775780637528499814610a935761048b565b806358a3fa251461094c578063599c553314610968578063632c224b1461098657806366055159146109b65780636a4af0fa146109d45761048b565b806340932bf81161034257806340932bf8146108635780634a474b9c146108985780634d42ef48146108c857806351d93c81146108fc57806352994e2f1461092e5761048b565b806332cb6b0c146107bd57806334ed4bdb146107db57806336568abe1461080b5780633693dcfa146108275780633b129a56146108455761048b565b8063248a9ca31161040c57806329a0be65116103d057806329a0be65146106fe5780632aac61ae1461071c5780632f2ff15d14610751578063313ce5671461076d57806331b1b9781461078b5761048b565b8063248a9ca314610628578063274202f01461065857806327ff622314610676578063295b825a146106945780632990db7c146106c75761048b565b806311ce15df1161045357806311ce15df1461054a57806318160ddd1461057a57806319f102ec1461059857806320bd0316146105c857806323b872dd146105f85761048b565b806301ffc9a71461049057806304e48bd1146104c0578063057f46bb146104de57806306fdde03146104fc578063095ea7b31461051a575b600080fd5b6104aa60048036038101906104a59190617bc0565b611105565b6040516104b79190617c08565b60405180910390f35b6104c861117f565b6040516104d59190617fd7565b60405180910390f35b6104e66115b5565b6040516104f39190618008565b60405180910390f35b6105046115bb565b604051610511919061806d565b60405180910390f35b610534600480360381019061052f91906180e7565b61164d565b6040516105419190617c08565b60405180910390f35b610564600480360381019061055f9190618127565b611670565b6040516105719190617c08565b60405180910390f35b610582611690565b60405161058f9190618008565b60405180910390f35b6105b260048036038101906105ad9190618127565b61169a565b6040516105bf9190618163565b60405180910390f35b6105e260048036038101906105dd9190618127565b6116d9565b6040516105ef9190617c08565b60405180910390f35b610612600480360381019061060d919061817e565b6118a9565b60405161061f9190617c08565b60405180910390f35b610642600480360381019061063d9190618207565b6118d8565b60405161064f9190618243565b60405180910390f35b6106606118f8565b60405161066d9190618008565b60405180910390f35b61067e611920565b60405161068b9190618008565b60405180910390f35b6106ae60048036038101906106a99190618127565b611925565b6040516106be949392919061825e565b60405180910390f35b6106e160048036038101906106dc9190618127565b6119fa565b6040516106f59897969594939291906182b9565b60405180910390f35b610706611b99565b6040516107139190618008565b60405180910390f35b61073660048036038101906107319190618127565b611b9f565b60405161074896959493929190618345565b60405180910390f35b61076b600480360381019061076691906183b4565b611d08565b005b610775611d2a565b6040516107829190618410565b60405180910390f35b6107a560048036038101906107a09190618127565b611d33565b6040516107b49392919061842b565b60405180910390f35b6107c5611de5565b6040516107d29190618008565b60405180910390f35b6107f560048036038101906107f09190618469565b611df5565b6040516108029190618008565b60405180910390f35b610825600480360381019061082091906183b4565b611e13565b005b61082f611e8e565b60405161083c9190618243565b60405180910390f35b61084d611eb2565b60405161085a9190618243565b60405180910390f35b61087d60048036038101906108789190618127565b611ed6565b60405161088f969594939291906184eb565b60405180910390f35b6108b260048036038101906108ad9190618127565b611fe7565b6040516108bf919061877e565b60405180910390f35b6108e260048036038101906108dd91906187a0565b612271565b6040516108f39594939291906187e0565b60405180910390f35b61091660048036038101906109119190618127565b612359565b6040516109259392919061842b565b60405180910390f35b61093661241b565b6040516109439190618243565b60405180910390f35b6109666004803603810190610961919061883a565b61243f565b005b610970612705565b60405161097d9190618008565b60405180910390f35b6109a0600480360381019061099b9190618a63565b61270a565b6040516109ad9190618008565b60405180910390f35b6109be6128ce565b6040516109cb9190618008565b60405180910390f35b6109dc6128d4565b6040516109e99190618c84565b60405180910390f35b6109fa612c64565b604051610a079190618008565b60405180910390f35b610a2a6004803603810190610a259190618127565b612c6a565b604051610a3e9897969594939291906182b9565b60405180910390f35b610a616004803603810190610a5c9190618469565b612e19565b604051610a6e9190618008565b60405180910390f35b610a916004803603810190610a8c9190618469565b612e61565b005b610aad6004803603810190610aa89190618127565b613045565b005b610ac96004803603810190610ac49190618ca6565b61339c565b005b610ad36135aa565b604051610ae09190618008565b60405180910390f35b610af16135b0565b604051610afe9190618008565b60405180910390f35b610b216004803603810190610b1c9190618127565b6135bc565b604051610b31949392919061825e565b60405180910390f35b610b546004803603810190610b4f9190618d56565b613681565b604051610b619190617c08565b60405180910390f35b610b846004803603810190610b7f9190618127565b613b66565b005b610ba06004803603810190610b9b91906183b4565b613ed0565b604051610bad9190617c08565b60405180910390f35b610bbe613f3b565b604051610bcb919061806d565b60405180910390f35b610bdc613fcd565b604051610be99190618f19565b60405180910390f35b610bfa614168565b604051610c079190618008565b60405180910390f35b610c2a6004803603810190610c2591906187a0565b61416e565b604051610c379190618163565b60405180910390f35b610c486141bc565b604051610c559190618243565b60405180910390f35b610c666141c3565b604051610c7391906191fc565b60405180910390f35b610c966004803603810190610c919190618127565b61459b565b604051610ca79594939291906187e0565b60405180910390f35b610cca6004803603810190610cc59190618127565b614666565b604051610cd7919061929b565b60405180910390f35b610cfa6004803603810190610cf591906180e7565b6149c8565b604051610d079190617c08565b60405180910390f35b610d2a6004803603810190610d2591906187a0565b6149eb565b604051610d37919061806d565b60405180910390f35b610d5a6004803603810190610d559190618127565b614aa3565b604051610d679190618f19565b60405180910390f35b610d78614be0565b604051610d859190618008565b60405180910390f35b610da86004803603810190610da39190619342565b614be5565b005b610dc46004803603810190610dbf9190618127565b614fd7565b005b610de06004803603810190610ddb9190618127565b6152d6565b604051610df296959493929190618345565b60405180910390f35b610e156004803603810190610e1091906193b6565b61542f565b604051610e2c9b9a999897969594939291906193f6565b60405180910390f35b610e4f6004803603810190610e4a9190618127565b6154a3565b604051610e5c9190619510565b60405180910390f35b610e7f6004803603810190610e7a9190618469565b615544565b604051610e8c9190617c08565b60405180910390f35b610e9d615564565b604051610eaa9190618008565b60405180910390f35b610ecd6004803603810190610ec89190618127565b61556e565b604051610ede9594939291906187e0565b60405180910390f35b610f016004803603810190610efc9190618469565b615649565b005b610f1d6004803603810190610f1891906193b6565b615933565b604051610f2a9190617c08565b60405180910390f35b610f4d6004803603810190610f4891906196d6565b615962565b604051610f5a9190617c08565b60405180910390f35b610f7d6004803603810190610f78919061978d565b615c5b565b005b610f996004803603810190610f9491906183b4565b616052565b005b610fa3616074565b604051610fb09190618008565b60405180910390f35b610fd36004803603810190610fce919061982c565b616080565b604051610fe09190618008565b60405180910390f35b6110036004803603810190610ffe9190618127565b616107565b6040516110129392919061987b565b60405180910390f35b61102361625e565b6040516110309190618008565b60405180910390f35b61104161626b565b60405161104e9190618008565b60405180910390f35b61105f616271565b60405161106c9190618008565b60405180910390f35b61108f600480360381019061108a9190618127565b616277565b60405161109c9190617c08565b60405180910390f35b6110bf60048036038101906110ba9190618469565b6165bf565b6040516110cc9190617c08565b60405180910390f35b6110ef60048036038101906110ea91906180e7565b6165f2565b6040516110fc9190617c08565b60405180910390f35b60007f7965db0b000000000000000000000000000000000000000000000000000000007bffffffffffffffffffffffffffffffffffffffffffffffffffffffff1916827bffffffffffffffffffffffffffffffffffffffffffffffffffffffff19161480611178575061117782616621565b5b9050919050565b6060600060268054905067ffffffffffffffff8111156111a2576111a1618938565b5b6040519080825280602002602001820160405280156111db57816020015b6111c86175ff565b8152602001906001900390816111c05790505b50905060005b6026805490508110156115ad576040518061012001604052806026838154811061120e5761120d6198c0565b5b906000526020600020906008020160000154815260200160268381548110611239576112386198c0565b5b906000526020600020906008020160010180546112559061991e565b80601f01602080910402602001604051908101604052809291908181526020018280546112819061991e565b80156112ce5780601f106112a3576101008083540402835291602001916112ce565b820191906000526020600020905b8154815290600101906020018083116112b157829003601f168201915b50505050508152602001602683815481106112ec576112eb6198c0565b5b906000526020600020906008020160020180546113089061991e565b80601f01602080910402602001604051908101604052809291908181526020018280546113349061991e565b80156113815780601f1061135657610100808354040283529160200191611381565b820191906000526020600020905b81548152906001019060200180831161136457829003601f168201915b505050505081526020016026838154811061139f5761139e6198c0565b5b906000526020600020906008020160030160009054906101000a900460ff1615158152602001602683815481106113d9576113d86198c0565b5b906000526020600020906008020160040154815260200160268381548110611404576114036198c0565b5b906000526020600020906008020160050160009054906101000a900473ffffffffffffffffffffffffffffffffffffffff1673ffffffffffffffffffffffffffffffffffffffff16815260200160268381548110611465576114646198c0565b5b906000526020600020906008020160050160149054906101000a900460ff16151581526020016026838154811061149f5761149e6198c0565b5b906000526020600020906008020160060180548060200260200160405190810160405280929190818152602001828054801561153057602002820191906000526020600020905b8160009054906101000a900473ffffffffffffffffffffffffffffffffffffffff1673ffffffffffffffffffffffffffffffffffffffff16815260200190600101908083116114e6575b505050505081526020016026838154811061154e5761154d6198c0565b5b906000526020600020906008020160070160009054906101000a900460ff16600281111561157f5761157e617df7565b5b815250828281518110611595576115946198c0565b5b602002602001018190525080806001019150506111e1565b508091505090565b60145481565b6060600380546115ca9061991e565b80601f01602080910402602001604051908101604052809291908181526020018280546115f69061991e565b80156116435780601f1061161857610100808354040283529160200191611643565b820191906000526020600020905b81548152906001019060200180831161162657829003601f168201915b5050505050905090565b60008061165861668b565b9050611665818585616693565b600191505092915050565b60246020528060005260406000206000915054906101000a900460ff1681565b6000600254905090565b600681815481106116aa57600080fd5b906000526020600020016000915054906101000a900473ffffffffffffffffffffffffffffffffffffffff1681565b60006116e36166a5565b6025600083815260200190815260200160002060003373ffffffffffffffffffffffffffffffffffffffff1673ffffffffffffffffffffffffffffffffffffffff16815260200190815260200160002060009054906101000a900460ff16611780576040517f08c379a00000000000000000000000000000000000000000000000000000000081526004016117779061999b565b60405180910390fd5b60006019600084815260200190815260200160002090506000602684815481106117ad576117ac6198c0565b5b906000526020600020906008020190506117ca82600601336166eb565b6117d781600601336166eb565b60006025600086815260200190815260200160002060003373ffffffffffffffffffffffffffffffffffffffff1673ffffffffffffffffffffffffffffffffffffffff16815260200190815260200160002060006101000a81548160ff02191690831515021790555061185233671bc16d674ec80000616888565b3373ffffffffffffffffffffffffffffffffffffffff16847f9b244c565b926d7f4e915b69f3a5c6afc2231322d0d44e821076ad8879d0d68360405160405180910390a36001925050506118a46168af565b919050565b6000806118b461668b565b90506118c18582856168b9565b6118cc85858561694d565b60019150509392505050565b600060056000838152602001908152602001600020600101549050919050565b6064600f6b204fce5e3e2502611000000061191391906199ea565b61191d9190619a5b565b81565b606481565b602a818154811061193557600080fd5b90600052602060002090600502016000915090508060000154908060010154908060020180546119649061991e565b80601f01602080910402602001604051908101604052809291908181526020018280546119909061991e565b80156119dd5780601f106119b2576101008083540402835291602001916119dd565b820191906000526020600020905b8154815290600101906020018083116119c057829003601f168201915b5050505050908060040160009054906101000a900460ff16905084565b6019602052806000526040600020600091509050806000015490806001018054611a239061991e565b80601f0160208091040260200160405190810160405280929190818152602001828054611a4f9061991e565b8015611a9c5780601f10611a7157610100808354040283529160200191611a9c565b820191906000526020600020905b815481529060010190602001808311611a7f57829003601f168201915b505050505090806002018054611ab19061991e565b80601f0160208091040260200160405190810160405280929190818152602001828054611add9061991e565b8015611b2a5780601f10611aff57610100808354040283529160200191611b2a565b820191906000526020600020905b815481529060010190602001808311611b0d57829003601f168201915b5050505050908060030160009054906101000a900460ff16908060040154908060050160009054906101000a900473ffffffffffffffffffffffffffffffffffffffff16908060050160149054906101000a900460ff16908060070160009054906101000a900460ff16905088565b60155481565b60288181548110611baf57600080fd5b9060005260206000209060240201600091509050806000015490806001015490806002018054611bde9061991e565b80601f0160208091040260200160405190810160405280929190818152602001828054611c0a9061991e565b8015611c575780601f10611c2c57610100808354040283529160200191611c57565b820191906000526020600020905b815481529060010190602001808311611c3a57829003601f168201915b505050505090806003018054611c6c9061991e565b80601f0160208091040260200160405190810160405280929190818152602001828054611c989061991e565b8015611ce55780601f10611cba57610100808354040283529160200191611ce5565b820191906000526020600020905b815481529060010190602001808311611cc857829003601f168201915b5050505050908060220154908060230160009054906101000a900460ff16905086565b611d11826118d8565b611d1a81616a41565b611d248383616a55565b50505050565b60006012905090565b6022602052806000526040600020600091509050806000015490806001015490806002018054611d629061991e565b80601f0160208091040260200160405190810160405280929190818152602001828054611d8e9061991e565b8015611ddb5780601f10611db057610100808354040283529160200191611ddb565b820191906000526020600020905b815481529060010190602001808311611dbe57829003601f168201915b5050505050905083565b6b204fce5e3e2502611000000081565b601b6020528060005260406000206000915090508060000154905081565b611e1b61668b565b73ffffffffffffffffffffffffffffffffffffffff168173ffffffffffffffffffffffffffffffffffffffff1614611e7f576040517f6697b23200000000000000000000000000000000000000000000000000000000815260040160405180910390fd5b611e898282616b47565b505050565b7fadb22091b155738d2e889eb96f509d2a7c93234236b30400927feb4a6a15ab0081565b7fc10c77be35aff266144ed64c26a1fa104bae2f284ae99ac4a34203454704a18581565b60096020528060005260406000206000915090508060000154908060010160009054906101000a900473ffffffffffffffffffffffffffffffffffffffff16908060020160009054906101000a900473ffffffffffffffffffffffffffffffffffffffff1690806003018054611f4b9061991e565b80601f0160208091040260200160405190810160405280929190818152602001828054611f779061991e565b8015611fc45780601f10611f9957610100808354040283529160200191611fc4565b820191906000526020600020905b815481529060010190602001808311611fa757829003601f168201915b5050505050908060040154908060050160009054906101000a900460ff16905086565b60606021600083815260200190815260200160002060040160009054906101000a900460ff1661204c576040517f08c379a000000000000000000000000000000000000000000000000000000000815260040161204390619ad8565b60405180910390fd5b60216000838152602001908152602001600020600301805480602002602001604051908101604052809291908181526020016000905b82821015612266578382906000526020600020906004020160405180608001604052908160008201548152602001600182015481526020016002820180546120c99061991e565b80601f01602080910402602001604051908101604052809291908181526020018280546120f59061991e565b80156121425780601f1061211757610100808354040283529160200191612142565b820191906000526020600020905b81548152906001019060200180831161212557829003601f168201915b5050505050815260200160038201805480602002602001604051908101604052809291908181526020016000905b8282101561224f57838290600052602060002090600202016040518060400160405290816000820180546121a39061991e565b80601f01602080910402602001604051908101604052809291908181526020018280546121cf9061991e565b801561221c5780601f106121f15761010080835404028352916020019161221c565b820191906000526020600020905b8154815290600101906020018083116121ff57829003601f168201915b505050505081526020016001820160009054906101000a900460ff16151515158152505081526020019060010190612170565b505050508152505081526020019060010190612082565b505050509050919050565b601e602052816000526040600020818154811061228d57600080fd5b9060005260206000209060050201600091509150508060000154908060010154908060020180546122bd9061991e565b80601f01602080910402602001604051908101604052809291908181526020018280546122e99061991e565b80156123365780601f1061230b57610100808354040283529160200191612336565b820191906000526020600020905b81548152906001019060200180831161231957829003601f168201915b5050505050908060030154908060040160009054906101000a900460ff16905085565b602b818154811061236957600080fd5b90600052602060002090600402016000915090508060000154908060010154908060020180546123989061991e565b80601f01602080910402602001604051908101604052809291908181526020018280546123c49061991e565b80156124115780601f106123e657610100808354040283529160200191612411565b820191906000526020600020905b8154815290600101906020018083116123f457829003601f168201915b5050505050905083565b7fdf1425bae297c2f52b4f15d18a50b1fc8cb5b981a981b1d213ed3ff92681b64d81565b7fc10c77be35aff266144ed64c26a1fa104bae2f284ae99ac4a34203454704a18561246981616a41565b6124738c33616c3a565b6124b2576040517f08c379a00000000000000000000000000000000000000000000000000000000081526004016124a990619b6a565b60405180910390fd5b601a60008d815260200190815260200160002060003373ffffffffffffffffffffffffffffffffffffffff1673ffffffffffffffffffffffffffffffffffffffff168152602001908152602001600020600a0160009054906101000a900460ff1615612553576040517f08c379a000000000000000000000000000000000000000000000000000000000815260040161254a90619bfc565b60405180910390fd5b6125658b8b8b8b8b8b8b8b8b8b616d05565b6040518061016001604052808c81526020018b81526020018a815260200189815260200188815260200187815260200186815260200185815260200184815260200183815260200160011515815250601a60008e815260200190815260200160002060003373ffffffffffffffffffffffffffffffffffffffff1673ffffffffffffffffffffffffffffffffffffffff168152602001908152602001600020600082015181600001556020820151816001015560408201518160020155606082015181600301556080820151816004015560a0820151816005015560c0820151816006015560e082015181600701556101008201518160080155610120820151816009015561014082015181600a0160006101000a81548160ff02191690831515021790555090505060506126e8601a60008f815260200190815260200160002060003373ffffffffffffffffffffffffffffffffffffffff1673ffffffffffffffffffffffffffffffffffffffff168152602001908152602001600020616dca565b106126f7576126f68c613045565b5b505050505050505050505050565b600281565b6000806016549050601f600085815260200190815260200160002060230160009054906101000a900460ff16612775576040517f08c379a000000000000000000000000000000000000000000000000000000000815260040161276c90619c68565b60405180910390fd5b6000602160008381526020019081526020016000209050848160000181905550818160010181905550838160020190816127af9190619e34565b5060018160040160006101000a81548160ff021916908315150217905550601660008154809291906127e090619f06565b9190505550602a8190806001815401808255809150506001900390600052602060002090600502016000909190919091506000820154816000015560018201548160010155600282018160020190816128399190619f64565b506003820181600301908054612850929190617677565b506004820160009054906101000a900460ff168160040160006101000a81548160ff02191690831515021790555050508360405161288e919061a088565b6040518091039020827fbf27702cefbc4aea50d7c73cfee96f84f5b908f62aeafcd8b0aeae202c15050960405160405180910390a3819250505092915050565b60125481565b60606000601654905060008167ffffffffffffffff8111156128f9576128f8618938565b5b60405190808252806020026020018201604052801561293257816020015b61291f61770f565b8152602001906001900390816129175790505b50905060005b82811015612c5b57602160008281526020019081526020016000206040518060a001604052908160008201548152602001600182015481526020016002820180546129829061991e565b80601f01602080910402602001604051908101604052809291908181526020018280546129ae9061991e565b80156129fb5780601f106129d0576101008083540402835291602001916129fb565b820191906000526020600020905b8154815290600101906020018083116129de57829003601f168201915b5050505050815260200160038201805480602002602001604051908101604052809291908181526020016000905b82821015612c0d57838290600052602060002090600402016040518060800160405290816000820154815260200160018201548152602001600282018054612a709061991e565b80601f0160208091040260200160405190810160405280929190818152602001828054612a9c9061991e565b8015612ae95780601f10612abe57610100808354040283529160200191612ae9565b820191906000526020600020905b815481529060010190602001808311612acc57829003601f168201915b5050505050815260200160038201805480602002602001604051908101604052809291908181526020016000905b82821015612bf65783829060005260206000209060020201604051806040016040529081600082018054612b4a9061991e565b80601f0160208091040260200160405190810160405280929190818152602001828054612b769061991e565b8015612bc35780601f10612b9857610100808354040283529160200191612bc3565b820191906000526020600020905b815481529060010190602001808311612ba657829003601f168201915b505050505081526020016001820160009054906101000a900460ff16151515158152505081526020019060010190612b17565b505050508152505081526020019060010190612a29565b5050505081526020016004820160009054906101000a900460ff161515151581525050828281518110612c4357612c426198c0565b5b60200260200101819052508080600101915050612938565b50809250505090565b60185481565b60268181548110612c7a57600080fd5b9060005260206000209060080201600091509050806000015490806001018054612ca39061991e565b80601f0160208091040260200160405190810160405280929190818152602001828054612ccf9061991e565b8015612d1c5780601f10612cf157610100808354040283529160200191612d1c565b820191906000526020600020905b815481529060010190602001808311612cff57829003601f168201915b505050505090806002018054612d319061991e565b80601f0160208091040260200160405190810160405280929190818152602001828054612d5d9061991e565b8015612daa5780601f10612d7f57610100808354040283529160200191612daa565b820191906000526020600020905b815481529060010190602001808311612d8d57829003601f168201915b5050505050908060030160009054906101000a900460ff16908060040154908060050160009054906101000a900473ffffffffffffffffffffffffffffffffffffffff16908060050160149054906101000a900460ff16908060070160009054906101000a900460ff16905088565b60008060008373ffffffffffffffffffffffffffffffffffffffff1673ffffffffffffffffffffffffffffffffffffffff168152602001908152602001600020549050919050565b7fc10c77be35aff266144ed64c26a1fa104bae2f284ae99ac4a34203454704a185612e8b81616a41565b600860008373ffffffffffffffffffffffffffffffffffffffff1673ffffffffffffffffffffffffffffffffffffffff16815260200190815260200160002060009054906101000a900460ff1615612f18576040517f08c379a0000000000000000000000000000000000000000000000000000000008152600401612f0f9061a0eb565b60405180910390fd5b612f427fc10c77be35aff266144ed64c26a1fa104bae2f284ae99ac4a34203454704a18583616a55565b506006829080600181540180825580915050600190039060005260206000200160009091909190916101000a81548173ffffffffffffffffffffffffffffffffffffffff021916908373ffffffffffffffffffffffffffffffffffffffff1602179055506001600860008473ffffffffffffffffffffffffffffffffffffffff1673ffffffffffffffffffffffffffffffffffffffff16815260200190815260200160002060006101000a81548160ff0219169083151502179055508173ffffffffffffffffffffffffffffffffffffffff167fe1cb5e1230cc02e62c60b81c1aa5ade512f3eac296edb28628b4cf344f47f93160405160405180910390a25050565b7fc10c77be35aff266144ed64c26a1fa104bae2f284ae99ac4a34203454704a18561306f81616a41565b60006019600084815260200190815260200160002090508060030160009054906101000a900460ff16156130d8576040517f08c379a00000000000000000000000000000000000000000000000000000000081526004016130cf9061a157565b60405180910390fd5b601c60003373ffffffffffffffffffffffffffffffffffffffff1673ffffffffffffffffffffffffffffffffffffffff168152602001908152602001600020600084815260200190815260200160002060009054906101000a900460ff1615613176576040517f08c379a000000000000000000000000000000000000000000000000000000000815260040161316d9061a1e9565b60405180910390fd5b6001601c60003373ffffffffffffffffffffffffffffffffffffffff1673ffffffffffffffffffffffffffffffffffffffff168152602001908152602001600020600085815260200190815260200160002060006101000a81548160ff0219169083151502179055508060040160008154809291906131f490619f06565b919050555060028160040154106133195760018160030160006101000a81548160ff02191690831515021790555060005b6026805490508110156132dc578360268281548110613247576132466198c0565b5b906000526020600020906008020160000154036132cf57600160268281548110613274576132736198c0565b5b906000526020600020906008020160030160006101000a81548160ff0219169083151502179055508160040154602682815481106132b5576132b46198c0565b5b9060005260206000209060080201600401819055506132dc565b8080600101915050613225565b506133138160050160009054906101000a900473ffffffffffffffffffffffffffffffffffffffff16674563918244f40000616e5f565b50613397565b60005b60268054905081101561339557836026828154811061333e5761333d6198c0565b5b906000526020600020906008020160000154036133885781600401546026828154811061336e5761336d6198c0565b5b906000526020600020906008020160040181905550613395565b808060010191505061331c565b505b505050565b60006015549050601d600085815260200190815260200160002060040160009054906101000a900460ff16613406576040517f08c379a00000000000000000000000000000000000000000000000000000000081526004016133fd9061a255565b60405180910390fd5b6000601f60008381526020019081526020016000209050848160000181905550818160010181905550838160020190816134409190619e34565b50828160030190816134529190619e34565b5060018160230160006101000a81548160ff021916908315150217905550600081602201819055506028601f600084815260200190815260200160002090806001815401808255809150506001900390600052602060002090602402016000909190919091506000820154816000015560018201548160010155600282018160020190816134e09190619f64565b50600382018160030190816134f59190619f64565b50600482018160040190600a61350c929190617740565b50602282015481602201556023820160009054906101000a900460ff168160230160006101000a81548160ff02191690831515021790555050506015600081548092919061355990619f06565b9190505550600a8460405161356e919061a088565b6040518091039020837f3387c3a40ec1df95e34d25a0e5564b40d01c331b71ccbafccccc66d36c84ad8360405160405180910390a45050505050565b60135481565b671bc16d674ec8000081565b60216020528060005260406000206000915090508060000154908060010154908060020180546135eb9061991e565b80601f01602080910402602001604051908101604052809291908181526020018280546136179061991e565b80156136645780601f1061363957610100808354040283529160200191613664565b820191906000526020600020905b81548152906001019060200180831161364757829003601f168201915b5050505050908060040160009054906101000a900460ff16905084565b600060196000601354815260200190815260200160002060050160149054906101000a900460ff16156136e9576040517f08c379a00000000000000000000000000000000000000000000000000000000081526004016136e09061a2c1565b60405180910390fd5b60006040518061012001604052806013548152602001868152602001858152602001600015158152602001600081526020013373ffffffffffffffffffffffffffffffffffffffff168152602001600115158152602001600067ffffffffffffffff81111561375b5761375a618938565b5b6040519080825280602002602001820160405280156137895781602001602082028036833780820191505090505b5081526020018460028111156137a2576137a1617df7565b5b8152509050806019600060135481526020019081526020016000206000820151816000015560208201518160010190816137dc9190619e34565b5060408201518160020190816137f29190619e34565b5060608201518160030160006101000a81548160ff0219169083151502179055506080820151816004015560a08201518160050160006101000a81548173ffffffffffffffffffffffffffffffffffffffff021916908373ffffffffffffffffffffffffffffffffffffffff16021790555060c08201518160050160146101000a81548160ff02191690831515021790555060e08201518160060190805190602001906138a09291906177ea565b506101008201518160070160006101000a81548160ff021916908360028111156138cd576138cc617df7565b5b021790555090505060268190806001815401808255809150506001900390600052602060002090600802016000909190919091506000820151816000015560208201518160010190816139209190619e34565b5060408201518160020190816139369190619e34565b5060608201518160030160006101000a81548160ff0219169083151502179055506080820151816004015560a08201518160050160006101000a81548173ffffffffffffffffffffffffffffffffffffffff021916908373ffffffffffffffffffffffffffffffffffffffff16021790555060c08201518160050160146101000a81548160ff02191690831515021790555060e08201518160060190805190602001906139e49291906177ea565b506101008201518160070160006101000a81548160ff02191690836002811115613a1157613a10617df7565b5b0217905550505060126000815480929190613a2b90619f06565b91905055506001601b60003373ffffffffffffffffffffffffffffffffffffffff1673ffffffffffffffffffffffffffffffffffffffff1681526020019081526020016000206000016000828254613a83919061a2e1565b9250508190555060136000815480929190613a9d90619f06565b9190505550613acc7fadb22091b155738d2e889eb96f509d2a7c93234236b30400927feb4a6a15ab0033616a55565b5084604051613adb919061a088565b60405180910390206001601354613af2919061a315565b7f9c93a42b217373d37e6c66ace0a67fe1fa1f78c93164b62417de69c48c0f67e2601960006001601354613b26919061a315565b815260200190815260200160002060030160009054906101000a900460ff16604051613b529190617c08565b60405180910390a360019150509392505050565b7fadb22091b155738d2e889eb96f509d2a7c93234236b30400927feb4a6a15ab00613b9081616a41565b6024600083815260200190815260200160002060009054906101000a900460ff1615613bf1576040517f08c379a0000000000000000000000000000000000000000000000000000000008152600401613be89061a395565b60405180910390fd5b60036006805490501015613c3a576040517f08c379a0000000000000000000000000000000000000000000000000000000008152600401613c319061a401565b60405180910390fd5b602360008381526020019081526020016000206000613c599190617874565b60005b6003811015613e36576000600680549050424460068054905085604051602001613c89949392919061a442565b6040516020818303038152906040528051906020012060001c613cac919061a490565b9050600060068281548110613cc457613cc36198c0565b5b9060005260206000200160009054906101000a900473ffffffffffffffffffffffffffffffffffffffff1690506000805b6023600088815260200190815260200160002080549050811015613dab578273ffffffffffffffffffffffffffffffffffffffff16602360008981526020019081526020016000208281548110613d4f57613d4e6198c0565b5b9060005260206000200160009054906101000a900473ffffffffffffffffffffffffffffffffffffffff1673ffffffffffffffffffffffffffffffffffffffff1603613d9e5760019150613dab565b8080600101915050613cf5565b5080613e265760236000878152602001908152602001600020829080600181540180825580915050600190039060005260206000200160009091909190916101000a81548173ffffffffffffffffffffffffffffffffffffffff021916908373ffffffffffffffffffffffffffffffffffffffff1602179055505b5050508080600101915050613c5c565b506003602360008481526020019081526020016000208054905003613e825760016024600084815260200190815260200160002060006101000a81548160ff0219169083151502179055505b817fe205dff861c570b8df17e26f893778853f94bb25d2de318755e48eab0b403ff760236000858152602001908152602001600020604051613ec4919061a5ad565b60405180910390a25050565b60006005600084815260200190815260200160002060000160008373ffffffffffffffffffffffffffffffffffffffff1673ffffffffffffffffffffffffffffffffffffffff16815260200190815260200160002060009054906101000a900460ff16905092915050565b606060048054613f4a9061991e565b80601f0160208091040260200160405190810160405280929190818152602001828054613f769061991e565b8015613fc35780601f10613f9857610100808354040283529160200191613fc3565b820191906000526020600020905b815481529060010190602001808311613fa657829003601f168201915b5050505050905090565b60606000602780549050905060008167ffffffffffffffff811115613ff557613ff4618938565b5b60405190808252806020026020018201604052801561402e57816020015b61401b617895565b8152602001906001900390816140135790505b50905060005b8281101561415f57602781815481106140505761404f6198c0565b5b90600052602060002090600502016040518060a0016040529081600082015481526020016001820154815260200160028201805461408d9061991e565b80601f01602080910402602001604051908101604052809291908181526020018280546140b99061991e565b80156141065780601f106140db57610100808354040283529160200191614106565b820191906000526020600020905b8154815290600101906020018083116140e957829003601f168201915b50505050508152602001600382015481526020016004820160009054906101000a900460ff161515151581525050828281518110614147576141466198c0565b5b60200260200101819052508080600101915050614034565b50809250505090565b60115481565b6023602052816000526040600020818154811061418a57600080fd5b906000526020600020016000915091509054906101000a900473ffffffffffffffffffffffffffffffffffffffff1681565b6000801b81565b60606000602880549050905060008167ffffffffffffffff8111156141eb576141ea618938565b5b60405190808252806020026020018201604052801561422457816020015b6142116178c6565b8152602001906001900390816142095790505b50905060005b828110156145925760288181548110614246576142456198c0565b5b90600052602060002090602402016040518060e001604052908160008201548152602001600182015481526020016002820180546142839061991e565b80601f01602080910402602001604051908101604052809291908181526020018280546142af9061991e565b80156142fc5780601f106142d1576101008083540402835291602001916142fc565b820191906000526020600020905b8154815290600101906020018083116142df57829003601f168201915b505050505081526020016003820180546143159061991e565b80601f01602080910402602001604051908101604052809291908181526020018280546143419061991e565b801561438e5780601f106143635761010080835404028352916020019161438e565b820191906000526020600020905b81548152906001019060200180831161437157829003601f168201915b5050505050815260200160048201600a80602002604051908101604052809291906000905b8282101561453a578382600302016040518060600160405290816000820160009054906101000a900460ff1660028111156143f1576143f0617df7565b5b600281111561440357614402617df7565b5b81526020016001820180546144179061991e565b80601f01602080910402602001604051908101604052809291908181526020018280546144439061991e565b80156144905780601f1061446557610100808354040283529160200191614490565b820191906000526020600020905b81548152906001019060200180831161447357829003601f168201915b505050505081526020016002820180546144a99061991e565b80601f01602080910402602001604051908101604052809291908181526020018280546144d59061991e565b80156145225780601f106144f757610100808354040283529160200191614522565b820191906000526020600020905b81548152906001019060200180831161450557829003601f168201915b505050505081525050815260200190600101906143b3565b505050508152602001602282015481526020016023820160009054906101000a900460ff16151515158152505082828151811061457a576145796198c0565b5b6020026020010181905250808060010191505061422a565b50809250505090565b601d6020528060005260406000206000915090508060000154908060010154908060020180546145ca9061991e565b80601f01602080910402602001604051908101604052809291908181526020018280546145f69061991e565b80156146435780601f1061461857610100808354040283529160200191614643565b820191906000526020600020905b81548152906001019060200180831161462657829003601f168201915b5050505050908060030154908060040160009054906101000a900460ff16905085565b61466e61770f565b6021600083815260200190815260200160002060040160009054906101000a900460ff166146d1576040517f08c379a00000000000000000000000000000000000000000000000000000000081526004016146c890619ad8565b60405180910390fd5b602160008381526020019081526020016000206040518060a001604052908160008201548152602001600182015481526020016002820180546147139061991e565b80601f016020809104026020016040519081016040528092919081815260200182805461473f9061991e565b801561478c5780601f106147615761010080835404028352916020019161478c565b820191906000526020600020905b81548152906001019060200180831161476f57829003601f168201915b5050505050815260200160038201805480602002602001604051908101604052809291908181526020016000905b8282101561499e578382906000526020600020906004020160405180608001604052908160008201548152602001600182015481526020016002820180546148019061991e565b80601f016020809104026020016040519081016040528092919081815260200182805461482d9061991e565b801561487a5780601f1061484f5761010080835404028352916020019161487a565b820191906000526020600020905b81548152906001019060200180831161485d57829003601f168201915b5050505050815260200160038201805480602002602001604051908101604052809291908181526020016000905b8282101561498757838290600052602060002090600202016040518060400160405290816000820180546148db9061991e565b80601f01602080910402602001604051908101604052809291908181526020018280546149079061991e565b80156149545780601f1061492957610100808354040283529160200191614954565b820191906000526020600020905b81548152906001019060200180831161493757829003601f168201915b505050505081526020016001820160009054906101000a900460ff161515151581525050815260200190600101906148a8565b5050505081525050815260200190600101906147ba565b5050505081526020016004820160009054906101000a900460ff1615151515815250509050919050565b6000806149d361668b565b90506149e081858561694d565b600191505092915050565b602080528160005260406000208181548110614a0657600080fd5b90600052602060002001600091509150508054614a229061991e565b80601f0160208091040260200160405190810160405280929190818152602001828054614a4e9061991e565b8015614a9b5780601f10614a7057610100808354040283529160200191614a9b565b820191906000526020600020905b815481529060010190602001808311614a7e57829003601f168201915b505050505081565b6060601e6000838152602001908152602001600020805480602002602001604051908101604052809291908181526020016000905b82821015614bd557838290600052602060002090600502016040518060a00160405290816000820154815260200160018201548152602001600282018054614b1f9061991e565b80601f0160208091040260200160405190810160405280929190818152602001828054614b4b9061991e565b8015614b985780601f10614b6d57610100808354040283529160200191614b98565b820191906000526020600020905b815481529060010190602001808311614b7b57829003601f168201915b50505050508152602001600382015481526020016004820160009054906101000a900460ff16151515158152505081526020019060010190614ad8565b505050509050919050565b605081565b7fadb22091b155738d2e889eb96f509d2a7c93234236b30400927feb4a6a15ab00614c0f81616a41565b6000601f600087815260200190815260200160002090508060230160009054906101000a900460ff16614c77576040517f08c379a0000000000000000000000000000000000000000000000000000000008152600401614c6e9061a61b565b60405180910390fd5b600081602201549050600a8585905082614c91919061a2e1565b1115614cd2576040517f08c379a0000000000000000000000000000000000000000000000000000000008152600401614cc99061a687565b60405180910390fd5b60005b85859050811015614ec3576040518060600160405280878784818110614cfe57614cfd6198c0565b5b9050602002810190614d10919061a6b6565b6000016020810190614d22919061a6de565b6002811115614d3457614d33617df7565b5b8152602001878784818110614d4c57614d4b6198c0565b5b9050602002810190614d5e919061a6b6565b8060200190614d6d919061a70b565b8080601f016020809104026020016040519081016040528093929190818152602001838380828437600081840152601f19601f820116905080830192505050505050508152602001878784818110614dc857614dc76198c0565b5b9050602002810190614dda919061a6b6565b8060400190614de9919061a70b565b8080601f016020809104026020016040519081016040528093929190818152602001838380828437600081840152601f19601f820116905080830192505050505050508152508360040183600a8110614e4557614e446198c0565b5b6003020160008201518160000160006101000a81548160ff02191690836002811115614e7457614e73617df7565b5b02179055506020820151816001019081614e8e9190619e34565b506040820151816002019081614ea49190619e34565b509050508180614eb390619f06565b9250508080600101915050614cd5565b5080826022018190555060005b602880549050811015614fcd578760288281548110614ef257614ef16198c0565b5b90600052602060002090602402016001015403614fc0578260288281548110614f1e57614f1d6198c0565b5b9060005260206000209060240201600082015481600001556001820154816001015560028201816002019081614f549190619f64565b5060038201816003019081614f699190619f64565b50600482018160040190600a614f80929190617740565b50602282015481602201556023820160009054906101000a900460ff168160230160006101000a81548160ff021916908315150217905550905050614fcd565b8080600101915050614ed0565b5050505050505050565b7fdf1425bae297c2f52b4f15d18a50b1fc8cb5b981a981b1d213ed3ff92681b64d61500181616a41565b60006009600084815260200190815260200160002090508060050160009054906101000a900460ff161561506a576040517f08c379a00000000000000000000000000000000000000000000000000000000081526004016150619061a7ba565b60405180910390fd5b8060060160003373ffffffffffffffffffffffffffffffffffffffff1673ffffffffffffffffffffffffffffffffffffffff16815260200190815260200160002060009054906101000a900460ff16156150f9576040517f08c379a00000000000000000000000000000000000000000000000000000000081526004016150f09061a826565b60405180910390fd5b60018160060160003373ffffffffffffffffffffffffffffffffffffffff1673ffffffffffffffffffffffffffffffffffffffff16815260200190815260200160002060006101000a81548160ff02191690831515021790555080600401600081548092919061516890619f06565b9190505550827f5d4ccf5f92566d140246f4ae3b9cb35dc06fff109a7748602ad77f6260fd9a613360405161519d9190618163565b60405180910390a260038160040154106152d15760008160020160009054906101000a900473ffffffffffffffffffffffffffffffffffffffff1673ffffffffffffffffffffffffffffffffffffffff16826003016040516151ff919061a8e9565b6000604051808303816000865af19150503d806000811461523c576040519150601f19603f3d011682016040523d82523d6000602084013e615241565b606091505b5050905080615285576040517f08c379a000000000000000000000000000000000000000000000000000000000815260040161527c9061a94c565b60405180910390fd5b60018260050160006101000a81548160ff021916908315150217905550837f7770356c29230b95943aec59d47ead11eb426a728bf5b57f7fd8597f3c0e29ba60405160405180910390a2505b505050565b601f6020528060005260406000206000915090508060000154908060010154908060020180546153059061991e565b80601f01602080910402602001604051908101604052809291908181526020018280546153319061991e565b801561537e5780601f106153535761010080835404028352916020019161537e565b820191906000526020600020905b81548152906001019060200180831161536157829003601f168201915b5050505050908060030180546153939061991e565b80601f01602080910402602001604051908101604052809291908181526020018280546153bf9061991e565b801561540c5780601f106153e15761010080835404028352916020019161540c565b820191906000526020600020905b8154815290600101906020018083116153ef57829003601f168201915b5050505050908060220154908060230160009054906101000a900460ff16905086565b601a6020528160005260406000206020528060005260406000206000915091505080600001549080600101549080600201549080600301549080600401549080600501549080600601549080600701549080600801549080600901549080600a0160009054906101000a900460ff1690508b565b60606023600083815260200190815260200160002080548060200260200160405190810160405280929190818152602001828054801561553857602002820191906000526020600020905b8160009054906101000a900473ffffffffffffffffffffffffffffffffffffffff1673ffffffffffffffffffffffffffffffffffffffff16815260200190600101908083116154ee575b50505050509050919050565b60086020528060005260406000206000915054906101000a900460ff1681565b6000601154905090565b6027818154811061557e57600080fd5b90600052602060002090600502016000915090508060000154908060010154908060020180546155ad9061991e565b80601f01602080910402602001604051908101604052809291908181526020018280546155d99061991e565b80156156265780601f106155fb57610100808354040283529160200191615626565b820191906000526020600020905b81548152906001019060200180831161560957829003601f168201915b5050505050908060030154908060040160009054906101000a900460ff16905085565b6000801b61565681616a41565b600860008373ffffffffffffffffffffffffffffffffffffffff1673ffffffffffffffffffffffffffffffffffffffff16815260200190815260200160002060009054906101000a900460ff166156e2576040517f08c379a00000000000000000000000000000000000000000000000000000000081526004016156d99061a9b8565b60405180910390fd5b60005b600680549050811015615868578273ffffffffffffffffffffffffffffffffffffffff166006828154811061571d5761571c6198c0565b5b9060005260206000200160009054906101000a900473ffffffffffffffffffffffffffffffffffffffff1673ffffffffffffffffffffffffffffffffffffffff160361585b5760066001600680549050615777919061a315565b81548110615788576157876198c0565b5b9060005260206000200160009054906101000a900473ffffffffffffffffffffffffffffffffffffffff16600682815481106157c7576157c66198c0565b5b9060005260206000200160006101000a81548173ffffffffffffffffffffffffffffffffffffffff021916908373ffffffffffffffffffffffffffffffffffffffff16021790555060068054806158215761582061a9d8565b5b6001900381819060005260206000200160006101000a81549073ffffffffffffffffffffffffffffffffffffffff02191690559055615868565b80806001019150506156e5565b506000600860008473ffffffffffffffffffffffffffffffffffffffff1673ffffffffffffffffffffffffffffffffffffffff16815260200190815260200160002060006101000a81548160ff0219169083151502179055506158eb7fc10c77be35aff266144ed64c26a1fa104bae2f284ae99ac4a34203454704a18583616b47565b508173ffffffffffffffffffffffffffffffffffffffff167f55dba9d79522b91b615629d5f3b10c2fad2d258f1768614f4a52e937ada0d0ba60405160405180910390a25050565b60256020528160005260406000206020528060005260406000206000915091509054906101000a900460ff1681565b60008073ffffffffffffffffffffffffffffffffffffffff166019600086815260200190815260200160002060050160009054906101000a900473ffffffffffffffffffffffffffffffffffffffff1673ffffffffffffffffffffffffffffffffffffffff1603615a08576040517f08c379a00000000000000000000000000000000000000000000000000000000081526004016159ff9061aa53565b60405180910390fd5b60005b8351811015615c205760006040518060a001604052808781526020016014548152602001868481518110615a4257615a416198c0565b5b60200260200101518152602001858481518110615a6257615a616198c0565b5b60200260200101518152602001600115158152509050602781908060018154018082558091505060019003906000526020600020906005020160009091909190915060008201518160000155602082015181600101556040820151816002019081615acd9190619e34565b506060820151816003015560808201518160040160006101000a81548160ff021916908315150217905550505080601d6000601454815260200190815260200160002060008201518160000155602082015181600101556040820151816002019081615b399190619e34565b506060820151816003015560808201518160040160006101000a81548160ff021916908315150217905550905050601e600087815260200190815260200160002081908060018154018082558091505060019003906000526020600020906005020160009091909190915060008201518160000155602082015181600101556040820151816002019081615bcd9190619e34565b506060820151816003015560808201518160040160006101000a81548160ff021916908315150217905550505060146000815480929190615c0d90619f06565b9190505550508080600101915050615a0b565b508251847f1eb97e969f52c132bb6c79817d1f9001078fff0cd328ce625628e1fb4cc0e7de60405160405180910390a3600190509392505050565b6021600085815260200190815260200160002060040160009054906101000a900460ff16615cbe576040517f08c379a0000000000000000000000000000000000000000000000000000000008152600401615cb590619ad8565b60405180910390fd5b60008251118015615cd157506004825111155b615d10576040517f08c379a0000000000000000000000000000000000000000000000000000000008152600401615d079061aabf565b60405180910390fd5b81518160ff1610615d56576040517f08c379a0000000000000000000000000000000000000000000000000000000008152600401615d4d9061ab2b565b60405180910390fd5b60006017549050600060226000838152602001908152602001600020905085816000018190555081816001018190555084816002019081615d979190619e34565b5060005b84518160ff161015615e615760006040518060400160405280878460ff1681518110615dca57615dc96198c0565b5b602002602001015181526020018660ff168460ff161415158152509050826003018190806001815401808255809150506001900390600052602060002090600202016000909190919091506000820151816000019081615e2a9190619e34565b5060208201518160010160006101000a81548160ff0219169083151502179055505050508080615e599061ab4b565b915050615d9b565b5060216000878152602001908152602001600020600301819080600181540180825580915050600190039060005260206000209060040201600090919091909150600082015481600001556001820154816001015560028201816002019081615eca9190619f64565b506003820181600301908054615ee192919061790b565b50505060176000815480929190615ef790619f06565b9190505550602b819080600181540180825580915050600190039060005260206000209060040201600090919091909150600082015481600001556001820154816001015560028201816002019081615f509190619f64565b506003820181600301908054615f6792919061790b565b5050507fa5bdacf4d1324fdd584bc65cf0315e4975d00b33a7ca0e6d0a73c88df8430b95868387604051615f9d9392919061842b565b60405180910390a160005b84518160ff16101561602f577f06ef0ba2ad58c9f8eef2fc98c08fd18d801c4a971eeb45afd07f0fee3f9d60c4838260ff16601854615fe7919061a2e1565b878460ff1681518110615ffd57615ffc6198c0565b5b60200260200101516040516160149392919061842b565b60405180910390a180806160279061ab4b565b915050615fa8565b50835160186000828254616043919061a2e1565b92505081905550505050505050565b61605b826118d8565b61606481616a41565b61606e8383616b47565b50505050565b674563918244f4000081565b6000600160008473ffffffffffffffffffffffffffffffffffffffff1673ffffffffffffffffffffffffffffffffffffffff16815260200190815260200160002060008373ffffffffffffffffffffffffffffffffffffffff1673ffffffffffffffffffffffffffffffffffffffff16815260200190815260200160002054905092915050565b6029818154811061611757600080fd5b90600052602060002090600302016000915090508060000160009054906101000a900460ff169080600101805461614d9061991e565b80601f01602080910402602001604051908101604052809291908181526020018280546161799061991e565b80156161c65780601f1061619b576101008083540402835291602001916161c6565b820191906000526020600020905b8154815290600101906020018083116161a957829003601f168201915b5050505050908060020180546161db9061991e565b80601f01602080910402602001604051908101604052809291908181526020018280546162079061991e565b80156162545780601f1061622957610100808354040283529160200191616254565b820191906000526020600020905b81548152906001019060200180831161623757829003601f168201915b5050505050905083565b6000600b60000154905090565b60165481565b60175481565b60006162816166a5565b6019600083815260200190815260200160002060030160009054906101000a900460ff166162e4576040517f08c379a00000000000000000000000000000000000000000000000000000000081526004016162db9061abc0565b60405180910390fd5b6025600083815260200190815260200160002060003373ffffffffffffffffffffffffffffffffffffffff1673ffffffffffffffffffffffffffffffffffffffff16815260200190815260200160002060009054906101000a900460ff1615616382576040517f08c379a00000000000000000000000000000000000000000000000000000000081526004016163799061ac2c565b60405180910390fd5b6019600083815260200190815260200160002060050160149054906101000a900460ff166163e5576040517f08c379a00000000000000000000000000000000000000000000000000000000081526004016163dc9061aa53565b60405180910390fd5b6000601960008481526020019081526020016000209050600060268481548110616412576164116198c0565b5b9060005260206000209060080201905081600601339080600181540180825580915050600190039060005260206000200160009091909190916101000a81548173ffffffffffffffffffffffffffffffffffffffff021916908373ffffffffffffffffffffffffffffffffffffffff16021790555080600601339080600181540180825580915050600190039060005260206000200160009091909190916101000a81548173ffffffffffffffffffffffffffffffffffffffff021916908373ffffffffffffffffffffffffffffffffffffffff16021790555060016025600086815260200190815260200160002060003373ffffffffffffffffffffffffffffffffffffffff1673ffffffffffffffffffffffffffffffffffffffff16815260200190815260200160002060006101000a81548160ff02191690831515021790555061656733671bc16d674ec80000616e5f565b503373ffffffffffffffffffffffffffffffffffffffff16847f4bf249f6b0ca5630ea4816c04b928b864a2065cb51658fd6223d83b727fd326b60405160405180910390a36001925050506165ba6168af565b919050565b60006165eb7fc10c77be35aff266144ed64c26a1fa104bae2f284ae99ac4a34203454704a18583613ed0565b9050919050565b601c6020528160005260406000206020528060005260406000206000915091509054906101000a900460ff1681565b60007f01ffc9a7000000000000000000000000000000000000000000000000000000007bffffffffffffffffffffffffffffffffffffffffffffffffffffffff1916827bffffffffffffffffffffffffffffffffffffffffffffffffffffffff1916149050919050565b600033905090565b6166a08383836001616f4c565b505050565b6002600a54036166e1576040517f3ee5aeb500000000000000000000000000000000000000000000000000000000815260040160405180910390fd5b6002600a81905550565b60005b8280549050811015616883578173ffffffffffffffffffffffffffffffffffffffff16838281548110616724576167236198c0565b5b9060005260206000200160009054906101000a900473ffffffffffffffffffffffffffffffffffffffff1673ffffffffffffffffffffffffffffffffffffffff1603616876576001838054905061677b919061a315565b811461682b578260018480549050616793919061a315565b815481106167a4576167a36198c0565b5b9060005260206000200160009054906101000a900473ffffffffffffffffffffffffffffffffffffffff168382815481106167e2576167e16198c0565b5b9060005260206000200160006101000a81548173ffffffffffffffffffffffffffffffffffffffff021916908373ffffffffffffffffffffffffffffffffffffffff1602179055505b8280548061683c5761683b61a9d8565b5b6001900381819060005260206000200160006101000a81549073ffffffffffffffffffffffffffffffffffffffff02191690559055616883565b80806001019150506166ee565b505050565b6168928282617123565b80601160008282546168a4919061a315565b925050819055505050565b6001600a81905550565b60006168c58484616080565b90507fffffffffffffffffffffffffffffffffffffffffffffffffffffffffffffffff81146169475781811015616937578281836040517ffb8f41b200000000000000000000000000000000000000000000000000000000815260040161692e9392919061ac4c565b60405180910390fd5b61694684848484036000616f4c565b5b50505050565b600073ffffffffffffffffffffffffffffffffffffffff168373ffffffffffffffffffffffffffffffffffffffff16036169bf5760006040517f96c6fd1e0000000000000000000000000000000000000000000000000000000081526004016169b69190618163565b60405180910390fd5b600073ffffffffffffffffffffffffffffffffffffffff168273ffffffffffffffffffffffffffffffffffffffff1603616a315760006040517fec442f05000000000000000000000000000000000000000000000000000000008152600401616a289190618163565b60405180910390fd5b616a3c8383836171ca565b505050565b616a5281616a4d61668b565b6173ef565b50565b6000616a618383613ed0565b616b3c5760016005600085815260200190815260200160002060000160008473ffffffffffffffffffffffffffffffffffffffff1673ffffffffffffffffffffffffffffffffffffffff16815260200190815260200160002060006101000a81548160ff021916908315150217905550616ad961668b565b73ffffffffffffffffffffffffffffffffffffffff168273ffffffffffffffffffffffffffffffffffffffff16847f2f8788117e7eff1d82e926ec794901d17c78024a50270940304540a733656f0d60405160405180910390a460019050616b41565b600090505b92915050565b6000616b538383613ed0565b15616c2f5760006005600085815260200190815260200160002060000160008473ffffffffffffffffffffffffffffffffffffffff1673ffffffffffffffffffffffffffffffffffffffff16815260200190815260200160002060006101000a81548160ff021916908315150217905550616bcc61668b565b73ffffffffffffffffffffffffffffffffffffffff168273ffffffffffffffffffffffffffffffffffffffff16847ff6391f5c32d9c69d2a47ea670b442974b53935d1edc7fd64eb21e047a839171b60405160405180910390a460019050616c34565b600090505b92915050565b600080600090505b6023600085815260200190815260200160002080549050811015616cf9578273ffffffffffffffffffffffffffffffffffffffff16602360008681526020019081526020016000208281548110616c9c57616c9b6198c0565b5b9060005260206000200160009054906101000a900473ffffffffffffffffffffffffffffffffffffffff1673ffffffffffffffffffffffffffffffffffffffff1603616cec576001915050616cff565b8080600101915050616c42565b50600090505b92915050565b600a8a11158015616d175750600a8911155b8015616d245750600a8811155b8015616d315750600a8711155b8015616d3e5750600a8611155b8015616d4b5750600a8511155b8015616d585750600a8411155b8015616d655750600a8311155b8015616d725750600a8211155b8015616d7f5750600a8111155b616dbe576040517f08c379a0000000000000000000000000000000000000000000000000000000008152600401616db59061accf565b60405180910390fd5b50505050505050505050565b60008160090154826008015483600701548460060154856005015486600401548760030154886002015489600101548a60000154616e08919061a2e1565b616e12919061a2e1565b616e1c919061a2e1565b616e26919061a2e1565b616e30919061a2e1565b616e3a919061a2e1565b616e44919061a2e1565b616e4e919061a2e1565b616e58919061a2e1565b9050919050565b60006064600f6b204fce5e3e25026110000000616e7c91906199ea565b616e869190619a5b565b616e8e615564565b83616e99919061a2e1565b1115616eda576040517f08c379a0000000000000000000000000000000000000000000000000000000008152600401616ed19061ad3b565b60405180910390fd5b616ee48383617440565b508160116000828254616ef7919061a2e1565b92505081905550818373ffffffffffffffffffffffffffffffffffffffff167fad6ef58d5c294f81258965738e7ae511124139834a8d0b8f8f7327086c82052a60405160405180910390a36001905092915050565b600073ffffffffffffffffffffffffffffffffffffffff168473ffffffffffffffffffffffffffffffffffffffff1603616fbe5760006040517fe602df05000000000000000000000000000000000000000000000000000000008152600401616fb59190618163565b60405180910390fd5b600073ffffffffffffffffffffffffffffffffffffffff168373ffffffffffffffffffffffffffffffffffffffff16036170305760006040517f94280d620000000000000000000000000000000000000000000000000000000081526004016170279190618163565b60405180910390fd5b81600160008673ffffffffffffffffffffffffffffffffffffffff1673ffffffffffffffffffffffffffffffffffffffff16815260200190815260200160002060008573ffffffffffffffffffffffffffffffffffffffff1673ffffffffffffffffffffffffffffffffffffffff16815260200190815260200160002081905550801561711d578273ffffffffffffffffffffffffffffffffffffffff168473ffffffffffffffffffffffffffffffffffffffff167f8c5be1e5ebec7d5bd14f71427d1e84f3dd0314c0f7b2291e5b200ac8c7c3b925846040516171149190618008565b60405180910390a35b50505050565b8061712d83612e19565b101561716e576040517f08c379a00000000000000000000000000000000000000000000000000000000081526004016171659061ada7565b60405180910390fd5b61717882826174fb565b8173ffffffffffffffffffffffffffffffffffffffff167f5b5d8478b570a79ab6b3bf13ff029fba19c02ab0d54d692d4ef0d9052d5cc850826040516171be9190618008565b60405180910390a25050565b600073ffffffffffffffffffffffffffffffffffffffff168373ffffffffffffffffffffffffffffffffffffffff160361721c578060026000828254617210919061a2e1565b925050819055506172ef565b60008060008573ffffffffffffffffffffffffffffffffffffffff1673ffffffffffffffffffffffffffffffffffffffff168152602001908152602001600020549050818110156172a8578381836040517fe450d38c00000000000000000000000000000000000000000000000000000000815260040161729f9392919061ac4c565b60405180910390fd5b8181036000808673ffffffffffffffffffffffffffffffffffffffff1673ffffffffffffffffffffffffffffffffffffffff16815260200190815260200160002081905550505b600073ffffffffffffffffffffffffffffffffffffffff168273ffffffffffffffffffffffffffffffffffffffff16036173385780600260008282540392505081905550617385565b806000808473ffffffffffffffffffffffffffffffffffffffff1673ffffffffffffffffffffffffffffffffffffffff168152602001908152602001600020600082825401925050819055505b8173ffffffffffffffffffffffffffffffffffffffff168373ffffffffffffffffffffffffffffffffffffffff167fddf252ad1be2c89b69c2b068fc378daa952ba7f163c4a11628f55a4df523b3ef836040516173e29190618008565b60405180910390a3505050565b6173f98282613ed0565b61743c5780826040517fe2517d3f00000000000000000000000000000000000000000000000000000000815260040161743392919061adc7565b60405180910390fd5b5050565b60006b204fce5e3e25026110000000617457611690565b83617462919061a2e1565b11156174a3576040517f08c379a000000000000000000000000000000000000000000000000000000000815260040161749a9061ad3b565b60405180910390fd5b6174ad838361757d565b818373ffffffffffffffffffffffffffffffffffffffff167fcda531bfd68624f13205c0a23cd4d5a7f09792cbb399603114f2b04aaa1bf5cf60405160405180910390a36001905092915050565b600073ffffffffffffffffffffffffffffffffffffffff168273ffffffffffffffffffffffffffffffffffffffff160361756d5760006040517f96c6fd1e0000000000000000000000000000000000000000000000000000000081526004016175649190618163565b60405180910390fd5b617579826000836171ca565b5050565b600073ffffffffffffffffffffffffffffffffffffffff168273ffffffffffffffffffffffffffffffffffffffff16036175ef5760006040517fec442f050000000000000000000000000000000000000000000000000000000081526004016175e69190618163565b60405180910390fd5b6175fb600083836171ca565b5050565b60405180610120016040528060008152602001606081526020016060815260200160001515815260200160008152602001600073ffffffffffffffffffffffffffffffffffffffff168152602001600015158152602001606081526020016000600281111561767157617670617df7565b5b81525090565b8280548282559060005260206000209060040281019282156176fe5760005260206000209160040282015b828111156176fd5782826000820154816000015560018201548160010155600282018160020190816176d49190619f64565b5060038201816003019080546176eb92919061790b565b505050916004019190600401906176a2565b5b50905061770b91906179a5565b5090565b6040518060a00160405280600081526020016000815260200160608152602001606081526020016000151581525090565b82600a60030281019282156177d9579160030282015b828111156177d85782826000820160009054906101000a900460ff168160000160006101000a81548160ff0219169083600281111561779857617797617df7565b5b0217905550600182018160010190816177b19190619f64565b50600282018160020190816177c69190619f64565b50505091600301919060030190617756565b5b5090506177e691906179ec565b5090565b828054828255906000526020600020908101928215617863579160200282015b828111156178625782518260006101000a81548173ffffffffffffffffffffffffffffffffffffffff021916908373ffffffffffffffffffffffffffffffffffffffff1602179055509160200191906001019061780a565b5b5090506178709190617a37565b5090565b50805460008255906000526020600020908101906178929190617a37565b50565b6040518060a00160405280600081526020016000815260200160608152602001600081526020016000151581525090565b6040518060e00160405280600081526020016000815260200160608152602001606081526020016178f5617a54565b8152602001600081526020016000151581525090565b8280548282559060005260206000209060020281019282156179945760005260206000209160020282015b82811115617993578282600082018160000190816179549190619f64565b506001820160009054906101000a900460ff168160010160006101000a81548160ff021916908315150217905550505091600201919060020190617936565b5b5090506179a19190617a82565b5090565b5b808211156179e85760008082016000905560018201600090556002820160006179cf9190617abd565b6003820160006179df9190617afd565b506004016179a6565b5090565b5b80821115617a3357600080820160006101000a81549060ff0219169055600182016000617a1a9190617abd565b600282016000617a2a9190617abd565b506003016179ed565b5090565b5b80821115617a50576000816000905550600101617a38565b5090565b604051806101400160405280600a905b617a6c617b21565b815260200190600190039081617a645790505090565b5b80821115617ab95760008082016000617a9c9190617abd565b6001820160006101000a81549060ff021916905550600201617a83565b5090565b508054617ac99061991e565b6000825580601f10617adb5750617afa565b601f016020900490600052602060002090810190617af99190617a37565b5b50565b5080546000825560020290600052602060002090810190617b1e9190617a82565b50565b604051806060016040528060006002811115617b4057617b3f617df7565b5b815260200160608152602001606081525090565b6000604051905090565b600080fd5b600080fd5b60007fffffffff0000000000000000000000000000000000000000000000000000000082169050919050565b617b9d81617b68565b8114617ba857600080fd5b50565b600081359050617bba81617b94565b92915050565b600060208284031215617bd657617bd5617b5e565b5b6000617be484828501617bab565b91505092915050565b60008115159050919050565b617c0281617bed565b82525050565b6000602082019050617c1d6000830184617bf9565b92915050565b600081519050919050565b600082825260208201905092915050565b6000819050602082019050919050565b6000819050919050565b617c6281617c4f565b82525050565b600081519050919050565b600082825260208201905092915050565b60005b83811015617ca2578082015181840152602081019050617c87565b60008484015250505050565b6000601f19601f8301169050919050565b6000617cca82617c68565b617cd48185617c73565b9350617ce4818560208601617c84565b617ced81617cae565b840191505092915050565b617d0181617bed565b82525050565b600073ffffffffffffffffffffffffffffffffffffffff82169050919050565b6000617d3282617d07565b9050919050565b617d4281617d27565b82525050565b600081519050919050565b600082825260208201905092915050565b6000819050602082019050919050565b6000617d808383617d39565b60208301905092915050565b6000602082019050919050565b6000617da482617d48565b617dae8185617d53565b9350617db983617d64565b8060005b83811015617dea578151617dd18882617d74565b9750617ddc83617d8c565b925050600181019050617dbd565b5085935050505092915050565b7f4e487b7100000000000000000000000000000000000000000000000000000000600052602160045260246000fd5b60038110617e3757617e36617df7565b5b50565b6000819050617e4882617e26565b919050565b6000617e5882617e3a565b9050919050565b617e6881617e4d565b82525050565b600061012083016000830151617e876000860182617c59565b5060208301518482036020860152617e9f8282617cbf565b91505060408301518482036040860152617eb98282617cbf565b9150506060830151617ece6060860182617cf8565b506080830151617ee16080860182617c59565b5060a0830151617ef460a0860182617d39565b5060c0830151617f0760c0860182617cf8565b5060e083015184820360e0860152617f1f8282617d99565b915050610100830151617f36610100860182617e5f565b508091505092915050565b6000617f4d8383617e6e565b905092915050565b6000602082019050919050565b6000617f6d82617c23565b617f778185617c2e565b935083602082028501617f8985617c3f565b8060005b85811015617fc55784840389528151617fa68582617f41565b9450617fb183617f55565b925060208a01995050600181019050617f8d565b50829750879550505050505092915050565b60006020820190508181036000830152617ff18184617f62565b905092915050565b61800281617c4f565b82525050565b600060208201905061801d6000830184617ff9565b92915050565b600082825260208201905092915050565b600061803f82617c68565b6180498185618023565b9350618059818560208601617c84565b61806281617cae565b840191505092915050565b600060208201905081810360008301526180878184618034565b905092915050565b61809881617d27565b81146180a357600080fd5b50565b6000813590506180b58161808f565b92915050565b6180c481617c4f565b81146180cf57600080fd5b50565b6000813590506180e1816180bb565b92915050565b600080604083850312156180fe576180fd617b5e565b5b600061810c858286016180a6565b925050602061811d858286016180d2565b9150509250929050565b60006020828403121561813d5761813c617b5e565b5b600061814b848285016180d2565b91505092915050565b61815d81617d27565b82525050565b60006020820190506181786000830184618154565b92915050565b60008060006060848603121561819757618196617b5e565b5b60006181a5868287016180a6565b93505060206181b6868287016180a6565b92505060406181c7868287016180d2565b9150509250925092565b6000819050919050565b6181e4816181d1565b81146181ef57600080fd5b50565b600081359050618201816181db565b92915050565b60006020828403121561821d5761821c617b5e565b5b600061822b848285016181f2565b91505092915050565b61823d816181d1565b82525050565b60006020820190506182586000830184618234565b92915050565b60006080820190506182736000830187617ff9565b6182806020830186617ff9565b81810360408301526182928185618034565b90506182a16060830184617bf9565b95945050505050565b6182b381617e4d565b82525050565b6000610100820190506182cf600083018b617ff9565b81810360208301526182e1818a618034565b905081810360408301526182f58189618034565b90506183046060830188617bf9565b6183116080830187617ff9565b61831e60a0830186618154565b61832b60c0830185617bf9565b61833860e08301846182aa565b9998505050505050505050565b600060c08201905061835a6000830189617ff9565b6183676020830188617ff9565b81810360408301526183798187618034565b9050818103606083015261838d8186618034565b905061839c6080830185617ff9565b6183a960a0830184617bf9565b979650505050505050565b600080604083850312156183cb576183ca617b5e565b5b60006183d9858286016181f2565b92505060206183ea858286016180a6565b9150509250929050565b600060ff82169050919050565b61840a816183f4565b82525050565b60006020820190506184256000830184618401565b92915050565b60006060820190506184406000830186617ff9565b61844d6020830185617ff9565b818103604083015261845f8184618034565b9050949350505050565b60006020828403121561847f5761847e617b5e565b5b600061848d848285016180a6565b91505092915050565b600081519050919050565b600082825260208201905092915050565b60006184bd82618496565b6184c781856184a1565b93506184d7818560208601617c84565b6184e081617cae565b840191505092915050565b600060c0820190506185006000830189617ff9565b61850d6020830188618154565b61851a6040830187618154565b818103606083015261852c81866184b2565b905061853b6080830185617ff9565b61854860a0830184617bf9565b979650505050505050565b600081519050919050565b600082825260208201905092915050565b6000819050602082019050919050565b600081519050919050565b600082825260208201905092915050565b6000819050602082019050919050565b600060408301600083015184820360008601526185c88282617cbf565b91505060208301516185dd6020860182617cf8565b508091505092915050565b60006185f483836185ab565b905092915050565b6000602082019050919050565b60006186148261857f565b61861e818561858a565b9350836020820285016186308561859b565b8060005b8581101561866c578484038952815161864d85826185e8565b9450618658836185fc565b925060208a01995050600181019050618634565b50829750879550505050505092915050565b60006080830160008301516186966000860182617c59565b5060208301516186a96020860182617c59565b50604083015184820360408601526186c18282617cbf565b915050606083015184820360608601526186db8282618609565b9150508091505092915050565b60006186f4838361867e565b905092915050565b6000602082019050919050565b600061871482618553565b61871e818561855e565b9350836020820285016187308561856f565b8060005b8581101561876c578484038952815161874d85826186e8565b9450618758836186fc565b925060208a01995050600181019050618734565b50829750879550505050505092915050565b600060208201905081810360008301526187988184618709565b905092915050565b600080604083850312156187b7576187b6617b5e565b5b60006187c5858286016180d2565b92505060206187d6858286016180d2565b9150509250929050565b600060a0820190506187f56000830188617ff9565b6188026020830187617ff9565b81810360408301526188148186618034565b90506188236060830185617ff9565b6188306080830184617bf9565b9695505050505050565b60008060008060008060008060008060006101608c8e0312156188605761885f617b5e565b5b600061886e8e828f016180d2565b9b5050602061887f8e828f016180d2565b9a505060406188908e828f016180d2565b99505060606188a18e828f016180d2565b98505060806188b28e828f016180d2565b97505060a06188c38e828f016180d2565b96505060c06188d48e828f016180d2565b95505060e06188e58e828f016180d2565b9450506101006188f78e828f016180d2565b9350506101206189098e828f016180d2565b92505061014061891b8e828f016180d2565b9150509295989b509295989b9093969950565b600080fd5b600080fd5b7f4e487b7100000000000000000000000000000000000000000000000000000000600052604160045260246000fd5b61897082617cae565b810181811067ffffffffffffffff8211171561898f5761898e618938565b5b80604052505050565b60006189a2617b54565b90506189ae8282618967565b919050565b600067ffffffffffffffff8211156189ce576189cd618938565b5b6189d782617cae565b9050602081019050919050565b82818337600083830152505050565b6000618a06618a01846189b3565b618998565b905082815260208101848484011115618a2257618a21618933565b5b618a2d8482856189e4565b509392505050565b600082601f830112618a4a57618a4961892e565b5b8135618a5a8482602086016189f3565b91505092915050565b60008060408385031215618a7a57618a79617b5e565b5b6000618a88858286016180d2565b925050602083013567ffffffffffffffff811115618aa957618aa8617b63565b5b618ab585828601618a35565b9150509250929050565b600081519050919050565b600082825260208201905092915050565b6000819050602082019050919050565b600082825260208201905092915050565b6000618b0782618553565b618b118185618aeb565b935083602082028501618b238561856f565b8060005b85811015618b5f5784840389528151618b4085826186e8565b9450618b4b836186fc565b925060208a01995050600181019050618b27565b50829750879550505050505092915050565b600060a083016000830151618b896000860182617c59565b506020830151618b9c6020860182617c59565b5060408301518482036040860152618bb48282617cbf565b91505060608301518482036060860152618bce8282618afc565b9150506080830151618be36080860182617cf8565b508091505092915050565b6000618bfa8383618b71565b905092915050565b6000602082019050919050565b6000618c1a82618abf565b618c248185618aca565b935083602082028501618c3685618adb565b8060005b85811015618c725784840389528151618c538582618bee565b9450618c5e83618c02565b925060208a01995050600181019050618c3a565b50829750879550505050505092915050565b60006020820190508181036000830152618c9e8184618c0f565b905092915050565b600080600060608486031215618cbf57618cbe617b5e565b5b6000618ccd868287016180d2565b935050602084013567ffffffffffffffff811115618cee57618ced617b63565b5b618cfa86828701618a35565b925050604084013567ffffffffffffffff811115618d1b57618d1a617b63565b5b618d2786828701618a35565b9150509250925092565b60038110618d3e57600080fd5b50565b600081359050618d5081618d31565b92915050565b600080600060608486031215618d6f57618d6e617b5e565b5b600084013567ffffffffffffffff811115618d8d57618d8c617b63565b5b618d9986828701618a35565b935050602084013567ffffffffffffffff811115618dba57618db9617b63565b5b618dc686828701618a35565b9250506040618dd786828701618d41565b9150509250925092565b600081519050919050565b600082825260208201905092915050565b6000819050602082019050919050565b600060a083016000830151618e256000860182617c59565b506020830151618e386020860182617c59565b5060408301518482036040860152618e508282617cbf565b9150506060830151618e656060860182617c59565b506080830151618e786080860182617cf8565b508091505092915050565b6000618e8f8383618e0d565b905092915050565b6000602082019050919050565b6000618eaf82618de1565b618eb98185618dec565b935083602082028501618ecb85618dfd565b8060005b85811015618f075784840389528151618ee88582618e83565b9450618ef383618e97565b925060208a01995050600181019050618ecf565b50829750879550505050505092915050565b60006020820190508181036000830152618f338184618ea4565b905092915050565b600081519050919050565b600082825260208201905092915050565b6000819050602082019050919050565b6000600a9050919050565b600081905092915050565b6000819050919050565b60038110618f9857618f97617df7565b5b50565b6000819050618fa982618f87565b919050565b6000618fb982618f9b565b9050919050565b618fc981618fae565b82525050565b6000606083016000830151618fe76000860182618fc0565b5060208301518482036020860152618fff8282617cbf565b915050604083015184820360408601526190198282617cbf565b9150508091505092915050565b60006190328383618fcf565b905092915050565b6000602082019050919050565b600061905282618f67565b61905c8185618f72565b93508360208202850161906e85618f7d565b8060005b858110156190aa578484038952815161908b8582619026565b94506190968361903a565b925060208a01995050600181019050619072565b50829750879550505050505092915050565b600060e0830160008301516190d46000860182617c59565b5060208301516190e76020860182617c59565b50604083015184820360408601526190ff8282617cbf565b915050606083015184820360608601526191198282617cbf565b915050608083015184820360808601526191338282619047565b91505060a083015161914860a0860182617c59565b5060c083015161915b60c0860182617cf8565b508091505092915050565b600061917283836190bc565b905092915050565b6000602082019050919050565b600061919282618f3b565b61919c8185618f46565b9350836020820285016191ae85618f57565b8060005b858110156191ea57848403895281516191cb8582619166565b94506191d68361917a565b925060208a019950506001810190506191b2565b50829750879550505050505092915050565b600060208201905081810360008301526192168184619187565b905092915050565b600060a0830160008301516192366000860182617c59565b5060208301516192496020860182617c59565b50604083015184820360408601526192618282617cbf565b9150506060830151848203606086015261927b8282618afc565b91505060808301516192906080860182617cf8565b508091505092915050565b600060208201905081810360008301526192b5818461921e565b905092915050565b600381106192ca57600080fd5b50565b6000813590506192dc816192bd565b92915050565b600080fd5b600080fd5b60008083601f8401126193025761930161892e565b5b8235905067ffffffffffffffff81111561931f5761931e6192e2565b5b60208301915083602082028301111561933b5761933a6192e7565b5b9250929050565b6000806000806060858703121561935c5761935b617b5e565b5b600061936a878288016180d2565b945050602061937b878288016192cd565b935050604085013567ffffffffffffffff81111561939c5761939b617b63565b5b6193a8878288016192ec565b925092505092959194509250565b600080604083850312156193cd576193cc617b5e565b5b60006193db858286016180d2565b92505060206193ec858286016180a6565b9150509250929050565b60006101608201905061940c600083018e617ff9565b619419602083018d617ff9565b619426604083018c617ff9565b619433606083018b617ff9565b619440608083018a617ff9565b61944d60a0830189617ff9565b61945a60c0830188617ff9565b61946760e0830187617ff9565b619475610100830186617ff9565b619483610120830185617ff9565b619491610140830184617bf9565b9c9b505050505050505050505050565b600082825260208201905092915050565b60006194bd82617d48565b6194c781856194a1565b93506194d283617d64565b8060005b838110156195035781516194ea8882617d74565b97506194f583617d8c565b9250506001810190506194d6565b5085935050505092915050565b6000602082019050818103600083015261952a81846194b2565b905092915050565b600067ffffffffffffffff82111561954d5761954c618938565b5b602082029050602081019050919050565b600061957161956c84619532565b618998565b90508083825260208201905060208402830185811115619594576195936192e7565b5b835b818110156195db57803567ffffffffffffffff8111156195b9576195b861892e565b5b8086016195c68982618a35565b85526020850194505050602081019050619596565b5050509392505050565b600082601f8301126195fa576195f961892e565b5b813561960a84826020860161955e565b91505092915050565b600067ffffffffffffffff82111561962e5761962d618938565b5b602082029050602081019050919050565b600061965261964d84619613565b618998565b90508083825260208201905060208402830185811115619675576196746192e7565b5b835b8181101561969e578061968a88826180d2565b845260208401935050602081019050619677565b5050509392505050565b600082601f8301126196bd576196bc61892e565b5b81356196cd84826020860161963f565b91505092915050565b6000806000606084860312156196ef576196ee617b5e565b5b60006196fd868287016180d2565b935050602084013567ffffffffffffffff81111561971e5761971d617b63565b5b61972a868287016195e5565b925050604084013567ffffffffffffffff81111561974b5761974a617b63565b5b619757868287016196a8565b9150509250925092565b61976a816183f4565b811461977557600080fd5b50565b60008135905061978781619761565b92915050565b600080600080608085870312156197a7576197a6617b5e565b5b60006197b5878288016180d2565b945050602085013567ffffffffffffffff8111156197d6576197d5617b63565b5b6197e287828801618a35565b935050604085013567ffffffffffffffff81111561980357619802617b63565b5b61980f878288016195e5565b925050606061982087828801619778565b91505092959194509250565b6000806040838503121561984357619842617b5e565b5b6000619851858286016180a6565b9250506020619862858286016180a6565b9150509250929050565b61987581618fae565b82525050565b6000606082019050619890600083018661986c565b81810360208301526198a28185618034565b905081810360408301526198b68184618034565b9050949350505050565b7f4e487b7100000000000000000000000000000000000000000000000000000000600052603260045260246000fd5b7f4e487b7100000000000000000000000000000000000000000000000000000000600052602260045260246000fd5b6000600282049050600182168061993657607f821691505b602082108103619949576199486198ef565b5b50919050565b7f4e6f7420656e726f6c6c65642100000000000000000000000000000000000000600082015250565b6000619985600d83618023565b91506199908261994f565b602082019050919050565b600060208201905081810360008301526199b481619978565b9050919050565b7f4e487b7100000000000000000000000000000000000000000000000000000000600052601160045260246000fd5b60006199f582617c4f565b9150619a0083617c4f565b9250828202619a0e81617c4f565b91508282048414831517619a2557619a246199bb565b5b5092915050565b7f4e487b7100000000000000000000000000000000000000000000000000000000600052601260045260246000fd5b6000619a6682617c4f565b9150619a7183617c4f565b925082619a8157619a80619a2c565b5b828204905092915050565b7f5175697a20646f6573206e6f7420657869737400000000000000000000000000600082015250565b6000619ac2601383618023565b9150619acd82619a8c565b602082019050919050565b60006020820190508181036000830152619af181619ab5565b9050919050565b7f4e6f742073656c6563746564206173206120726576696577657220666f72207460008201527f68697320636f7572736500000000000000000000000000000000000000000000602082015250565b6000619b54602a83618023565b9150619b5f82619af8565b604082019050919050565b60006020820190508181036000830152619b8381619b47565b9050919050565b7f52657669657720616c7265616479207375626d6974746564206279207468697360008201527f2072657669657765722e00000000000000000000000000000000000000000000602082015250565b6000619be6602a83618023565b9150619bf182619b8a565b604082019050919050565b60006020820190508181036000830152619c1581619bd9565b9050919050565b7f4c6573736f6e20446f6573206e6f742065786973742100000000000000000000600082015250565b6000619c52601683618023565b9150619c5d82619c1c565b602082019050919050565b60006020820190508181036000830152619c8181619c45565b9050919050565b60008190508160005260206000209050919050565b60006020601f8301049050919050565b600082821b905092915050565b600060088302619cea7fffffffffffffffffffffffffffffffffffffffffffffffffffffffffffffffff82619cad565b619cf48683619cad565b95508019841693508086168417925050509392505050565b6000819050919050565b6000619d31619d2c619d2784617c4f565b619d0c565b617c4f565b9050919050565b6000819050919050565b619d4b83619d16565b619d5f619d5782619d38565b848454619cba565b825550505050565b600090565b619d74619d67565b619d7f818484619d42565b505050565b5b81811015619da357619d98600082619d6c565b600181019050619d85565b5050565b601f821115619de857619db981619c88565b619dc284619c9d565b81016020851015619dd1578190505b619de5619ddd85619c9d565b830182619d84565b50505b505050565b600082821c905092915050565b6000619e0b60001984600802619ded565b1980831691505092915050565b6000619e248383619dfa565b9150826002028217905092915050565b619e3d82617c68565b67ffffffffffffffff811115619e5657619e55618938565b5b619e60825461991e565b619e6b828285619da7565b600060209050601f831160018114619e9e5760008415619e8c578287015190505b619e968582619e18565b865550619efe565b601f198416619eac86619c88565b60005b82811015619ed457848901518255600182019150602085019450602081019050619eaf565b86831015619ef15784890151619eed601f891682619dfa565b8355505b6001600288020188555050505b505050505050565b6000619f1182617c4f565b91507fffffffffffffffffffffffffffffffffffffffffffffffffffffffffffffffff8203619f4357619f426199bb565b5b600182019050919050565b600081549050619f5d8161991e565b9050919050565b818103619f7257505061a04a565b619f7b82619f4e565b67ffffffffffffffff811115619f9457619f93618938565b5b619f9e825461991e565b619fa9828285619da7565b6000601f831160018114619fd85760008415619fc6578287015490505b619fd08582619e18565b86555061a043565b601f198416619fe687619c88565b9650619ff186619c88565b60005b8281101561a01957848901548255600182019150600185019450602081019050619ff4565b8683101561a036578489015461a032601f891682619dfa565b8355505b6001600288020188555050505b5050505050505b565b600081905092915050565b600061a06282617c68565b61a06c818561a04c565b935061a07c818560208601617c84565b80840191505092915050565b600061a094828461a057565b915081905092915050565b7f416c726561647920696e20726576696577657220706f6f6c0000000000000000600082015250565b600061a0d5601883618023565b915061a0e08261a09f565b602082019050919050565b6000602082019050818103600083015261a1048161a0c8565b9050919050565b7f436f7572736520616c726561647920617070726f766564000000000000000000600082015250565b600061a141601783618023565b915061a14c8261a10b565b602082019050919050565b6000602082019050818103600083015261a1708161a134565b9050919050565b7f596f75206861766520616c726561647920617070726f7665642074686973206360008201527f6f75727365000000000000000000000000000000000000000000000000000000602082015250565b600061a1d3602583618023565b915061a1de8261a177565b604082019050919050565b6000602082019050818103600083015261a2028161a1c6565b9050919050565b7f4368617074657220646f6573206e6f7420657869737421000000000000000000600082015250565b600061a23f601783618023565b915061a24a8261a209565b602082019050919050565b6000602082019050818103600083015261a26e8161a232565b9050919050565b7f436f7572736520616c7265616479206578697374730000000000000000000000600082015250565b600061a2ab601583618023565b915061a2b68261a275565b602082019050919050565b6000602082019050818103600083015261a2da8161a29e565b9050919050565b600061a2ec82617c4f565b915061a2f783617c4f565b925082820190508082111561a30f5761a30e6199bb565b5b92915050565b600061a32082617c4f565b915061a32b83617c4f565b925082820390508181111561a3435761a3426199bb565b5b92915050565b7f52657669657765727320616c72656164792073656c6563746564000000000000600082015250565b600061a37f601a83618023565b915061a38a8261a349565b602082019050919050565b6000602082019050818103600083015261a3ae8161a372565b9050919050565b7f4e6f7420656e6f7567682072657669657765727320696e2074686520706f6f6c600082015250565b600061a3eb602083618023565b915061a3f68261a3b5565b602082019050919050565b6000602082019050818103600083015261a41a8161a3de565b9050919050565b6000819050919050565b61a43c61a43782617c4f565b61a421565b82525050565b600061a44e828761a42b565b60208201915061a45e828661a42b565b60208201915061a46e828561a42b565b60208201915061a47e828461a42b565b60208201915081905095945050505050565b600061a49b82617c4f565b915061a4a683617c4f565b92508261a4b65761a4b5619a2c565b5b828206905092915050565b600081549050919050565b60008190508160005260206000209050919050565b60008160001c9050919050565b600073ffffffffffffffffffffffffffffffffffffffff82169050919050565b600061a52161a51c8361a4e1565b61a4ee565b9050919050565b600061a534825461a50e565b9050919050565b6000600182019050919050565b600061a5538261a4c1565b61a55d81856194a1565b935061a5688361a4cc565b8060005b8381101561a5a05761a57d8261a528565b61a5878882617d74565b975061a5928361a53b565b92505060018101905061a56c565b5085935050505092915050565b6000602082019050818103600083015261a5c7818461a548565b905092915050565b7f4c6573736f6e20646f6573206e6f742065786973742100000000000000000000600082015250565b600061a605601683618023565b915061a6108261a5cf565b602082019050919050565b6000602082019050818103600083015261a6348161a5f8565b9050919050565b7f45786365656473206d6178696d756d207265736f757263657321000000000000600082015250565b600061a671601a83618023565b915061a67c8261a63b565b602082019050919050565b6000602082019050818103600083015261a6a08161a664565b9050919050565b600080fd5b600080fd5b600080fd5b60008235600160600383360303811261a6d25761a6d161a6a7565b5b80830191505092915050565b60006020828403121561a6f45761a6f3617b5e565b5b600061a702848285016192cd565b91505092915050565b6000808335600160200384360303811261a7285761a72761a6a7565b5b80840192508235915067ffffffffffffffff82111561a74a5761a74961a6ac565b5b60208301925060018202360383131561a7665761a76561a6b1565b5b509250929050565b7f50726f706f73616c20616c726561647920657865637574656400000000000000600082015250565b600061a7a4601983618023565b915061a7af8261a76e565b602082019050919050565b6000602082019050818103600083015261a7d38161a797565b9050919050565b7f416c726561647920617070726f76656400000000000000000000000000000000600082015250565b600061a810601083618023565b915061a81b8261a7da565b602082019050919050565b6000602082019050818103600083015261a83f8161a803565b9050919050565b600081905092915050565b60008190508160005260206000209050919050565b6000815461a8738161991e565b61a87d818661a846565b9450600182166000811461a898576001811461a8ad5761a8e0565b60ff198316865281151582028601935061a8e0565b61a8b68561a851565b60005b8381101561a8d85781548189015260018201915060208101905061a8b9565b838801955050505b50505092915050565b600061a8f5828461a866565b915081905092915050565b7f50726f706f73616c20657865637574696f6e206661696c656400000000000000600082015250565b600061a936601983618023565b915061a9418261a900565b602082019050919050565b6000602082019050818103600083015261a9658161a929565b9050919050565b7f4e6f7420696e20726576696577657220706f6f6c000000000000000000000000600082015250565b600061a9a2601483618023565b915061a9ad8261a96c565b602082019050919050565b6000602082019050818103600083015261a9d18161a995565b9050919050565b7f4e487b7100000000000000000000000000000000000000000000000000000000600052603160045260246000fd5b7f436f7572736520646f6573206e6f742065786973742100000000000000000000600082015250565b600061aa3d601683618023565b915061aa488261aa07565b602082019050919050565b6000602082019050818103600083015261aa6c8161aa30565b9050919050565b7f496e76616c6964206e756d626572206f662063686f6963657300000000000000600082015250565b600061aaa9601983618023565b915061aab48261aa73565b602082019050919050565b6000602082019050818103600083015261aad88161aa9c565b9050919050565b7f496e76616c696420636f72726563742063686f69636520696e64657800000000600082015250565b600061ab15601c83618023565b915061ab208261aadf565b602082019050919050565b6000602082019050818103600083015261ab448161ab08565b9050919050565b600061ab56826183f4565b915060ff820361ab695761ab686199bb565b5b600182019050919050565b7f436f75727365206e6f742079657420617070726f766564210000000000000000600082015250565b600061abaa601883618023565b915061abb58261ab74565b602082019050919050565b6000602082019050818103600083015261abd98161ab9d565b9050919050565b7f416c726561647920656e726f6c6c656400000000000000000000000000000000600082015250565b600061ac16601083618023565b915061ac218261abe0565b602082019050919050565b6000602082019050818103600083015261ac458161ac09565b9050919050565b600060608201905061ac616000830186618154565b61ac6e6020830185617ff9565b61ac7b6040830184617ff9565b949350505050565b7f53636f726573206d757374206265206265747765656e203120616e642031302e600082015250565b600061acb9602083618023565b915061acc48261ac83565b602082019050919050565b6000602082019050818103600083015261ace88161acac565b9050919050565b7f4c696d6974204578636565646564210000000000000000000000000000000000600082015250565b600061ad25600f83618023565b915061ad308261acef565b602082019050919050565b6000602082019050818103600083015261ad548161ad18565b9050919050565b7f496e73756666696369656e742062616c616e6365000000000000000000000000600082015250565b600061ad91601483618023565b915061ad9c8261ad5b565b602082019050919050565b6000602082019050818103600083015261adc08161ad84565b9050919050565b600060408201905061addc6000830185618154565b61ade96020830184618234565b939250505056fea26469706673582212209d9a47b835a408d95fac803c20f673ca07758c16cdc07e9e64d7a72e69642df964736f6c634300081b0033",
  "linkReferences": {},
  "deployedLinkReferences": {}
}