{
  "_format": "hh-sol-artifact-1",
  "contractName": "Ecosystem2",
  "sourceName": "contracts/Ecosystem Contracts/Ecosystem2.sol",
  "abi": [
    {
      "inputs": [
        {
          "internalType": "address[]",
          "name": "_reviewers",
          "type": "address[]"
        }
      ],
      "stateMutability": "nonpayable",
      "type": "constructor"
    },
    {
      "inputs": [],
      "name": "AccessControlBadConfirmation",
      "type": "error"
    },
    {
      "inputs": [
        {
          "internalType": "address",
          "name": "account",
          "type": "address"
        },
        {
          "internalType": "bytes32",
          "name": "neededRole",
          "type": "bytes32"
        }
      ],
      "name": "AccessControlUnauthorizedAccount",
      "type": "error"
    },
    {
      "inputs": [
        {
          "internalType": "address",
          "name": "spender",
          "type": "address"
        },
        {
          "internalType": "uint256",
          "name": "allowance",
          "type": "uint256"
        },
        {
          "internalType": "uint256",
          "name": "needed",
          "type": "uint256"
        }
      ],
      "name": "ERC20InsufficientAllowance",
      "type": "error"
    },
    {
      "inputs": [
        {
          "internalType": "address",
          "name": "sender",
          "type": "address"
        },
        {
          "internalType": "uint256",
          "name": "balance",
          "type": "uint256"
        },
        {
          "internalType": "uint256",
          "name": "needed",
          "type": "uint256"
        }
      ],
      "name": "ERC20InsufficientBalance",
      "type": "error"
    },
    {
      "inputs": [
        {
          "internalType": "address",
          "name": "approver",
          "type": "address"
        }
      ],
      "name": "ERC20InvalidApprover",
      "type": "error"
    },
    {
      "inputs": [
        {
          "internalType": "address",
          "name": "receiver",
          "type": "address"
        }
      ],
      "name": "ERC20InvalidReceiver",
      "type": "error"
    },
    {
      "inputs": [
        {
          "internalType": "address",
          "name": "sender",
          "type": "address"
        }
      ],
      "name": "ERC20InvalidSender",
      "type": "error"
    },
    {
      "inputs": [
        {
          "internalType": "address",
          "name": "spender",
          "type": "address"
        }
      ],
      "name": "ERC20InvalidSpender",
      "type": "error"
    },
    {
      "inputs": [],
      "name": "ReentrancyGuardReentrantCall",
      "type": "error"
    },
    {
      "anonymous": false,
      "inputs": [
        {
          "indexed": true,
          "internalType": "address",
          "name": "owner",
          "type": "address"
        },
        {
          "indexed": true,
          "internalType": "address",
          "name": "spender",
          "type": "address"
        },
        {
          "indexed": false,
          "internalType": "uint256",
          "name": "value",
          "type": "uint256"
        }
      ],
      "name": "Approval",
      "type": "event"
    },
    {
      "anonymous": false,
      "inputs": [
        {
          "indexed": true,
          "internalType": "address",
          "name": "_account",
          "type": "address"
        },
        {
          "indexed": false,
          "internalType": "uint256",
          "name": "_amount",
          "type": "uint256"
        }
      ],
      "name": "BurnSuccess",
      "type": "event"
    },
    {
      "anonymous": false,
      "inputs": [
        {
          "indexed": true,
          "internalType": "uint256",
          "name": "_courseId",
          "type": "uint256"
        },
        {
          "indexed": true,
          "internalType": "uint256",
          "name": "numberOfChapters",
          "type": "uint256"
        }
      ],
      "name": "ChaptersAddedSuccessfully",
      "type": "event"
    },
    {
      "anonymous": false,
      "inputs": [
        {
          "indexed": false,
          "internalType": "uint256",
          "name": "questionId",
          "type": "uint256"
        },
        {
          "indexed": false,
          "internalType": "uint256",
          "name": "choiceId",
          "type": "uint256"
        },
        {
          "indexed": false,
          "internalType": "string",
          "name": "option",
          "type": "string"
        }
      ],
      "name": "ChoiceAdded",
      "type": "event"
    },
    {
      "anonymous": false,
      "inputs": [
        {
          "indexed": true,
          "internalType": "uint256",
          "name": "_courseID",
          "type": "uint256"
        },
        {
          "indexed": true,
          "internalType": "string",
          "name": "_courseName",
          "type": "string"
        },
        {
          "indexed": false,
          "internalType": "bool",
          "name": "_approved",
          "type": "bool"
        }
      ],
      "name": "CourseCreationSuccess",
      "type": "event"
    },
    {
      "anonymous": false,
      "inputs": [
        {
          "indexed": true,
          "internalType": "address",
          "name": "_to",
          "type": "address"
        },
        {
          "indexed": true,
          "internalType": "uint256",
          "name": "_amount",
          "type": "uint256"
        }
      ],
      "name": "EcosystemPoolUpdate",
      "type": "event"
    },
    {
      "anonymous": false,
      "inputs": [
        {
          "indexed": true,
          "internalType": "uint256",
          "name": "_courseId",
          "type": "uint256"
        },
        {
          "indexed": true,
          "internalType": "address",
          "name": "_by",
          "type": "address"
        }
      ],
      "name": "EnrollmentSuccess",
      "type": "event"
    },
    {
      "anonymous": false,
      "inputs": [
        {
          "indexed": true,
          "internalType": "uint256",
          "name": "_lessonId",
          "type": "uint256"
        },
        {
          "indexed": true,
          "internalType": "string",
          "name": "_lessonName",
          "type": "string"
        },
        {
          "indexed": true,
          "internalType": "uint256",
          "name": "_additonalResources",
          "type": "uint256"
        }
      ],
      "name": "LessonCreationSuccess",
      "type": "event"
    },
    {
      "anonymous": false,
      "inputs": [
        {
          "indexed": true,
          "internalType": "address",
          "name": "_to",
          "type": "address"
        },
        {
          "indexed": true,
          "internalType": "uint256",
          "name": "_amount",
          "type": "uint256"
        }
      ],
      "name": "MintSuccess",
      "type": "event"
    },
    {
      "anonymous": false,
      "inputs": [
        {
          "indexed": true,
          "internalType": "uint256",
          "name": "proposalId",
          "type": "uint256"
        },
        {
          "indexed": false,
          "internalType": "address",
          "name": "approver",
          "type": "address"
        }
      ],
      "name": "MultiSigProposalApproved",
      "type": "event"
    },
    {
      "anonymous": false,
      "inputs": [
        {
          "indexed": true,
          "internalType": "uint256",
          "name": "proposalId",
          "type": "uint256"
        },
        {
          "indexed": false,
          "internalType": "address",
          "name": "proposer",
          "type": "address"
        }
      ],
      "name": "MultiSigProposalCreated",
      "type": "event"
    },
    {
      "anonymous": false,
      "inputs": [
        {
          "indexed": true,
          "internalType": "uint256",
          "name": "proposalId",
          "type": "uint256"
        }
      ],
      "name": "MultiSigProposalExecuted",
      "type": "event"
    },
    {
      "anonymous": false,
      "inputs": [
        {
          "indexed": false,
          "internalType": "uint256",
          "name": "quizId",
          "type": "uint256"
        },
        {
          "indexed": false,
          "internalType": "uint256",
          "name": "questionId",
          "type": "uint256"
        },
        {
          "indexed": false,
          "internalType": "string",
          "name": "questionText",
          "type": "string"
        }
      ],
      "name": "QuestionAdded",
      "type": "event"
    },
    {
      "anonymous": false,
      "inputs": [
        {
          "indexed": true,
          "internalType": "uint256",
          "name": "_quizId",
          "type": "uint256"
        },
        {
          "indexed": true,
          "internalType": "string",
          "name": "_title",
          "type": "string"
        }
      ],
      "name": "QuizCreatedSuccess",
      "type": "event"
    },
    {
      "anonymous": false,
      "inputs": [
        {
          "indexed": true,
          "internalType": "uint256",
          "name": "_lessonId",
          "type": "uint256"
        },
        {
          "indexed": true,
          "internalType": "uint256",
          "name": "resourceCount",
          "type": "uint256"
        }
      ],
      "name": "ResourceAddSuccess",
      "type": "event"
    },
    {
      "anonymous": false,
      "inputs": [
        {
          "indexed": true,
          "internalType": "address",
          "name": "reviewer",
          "type": "address"
        }
      ],
      "name": "ReviewerAddedToPool",
      "type": "event"
    },
    {
      "anonymous": false,
      "inputs": [
        {
          "indexed": true,
          "internalType": "address",
          "name": "reviewer",
          "type": "address"
        }
      ],
      "name": "ReviewerRemovedFromPool",
      "type": "event"
    },
    {
      "anonymous": false,
      "inputs": [
        {
          "indexed": true,
          "internalType": "uint256",
          "name": "courseId",
          "type": "uint256"
        },
        {
          "indexed": false,
          "internalType": "address[]",
          "name": "reviewers",
          "type": "address[]"
        }
      ],
      "name": "ReviewersSelected",
      "type": "event"
    },
    {
      "anonymous": false,
      "inputs": [
        {
          "indexed": true,
          "internalType": "bytes32",
          "name": "role",
          "type": "bytes32"
        },
        {
          "indexed": true,
          "internalType": "bytes32",
          "name": "previousAdminRole",
          "type": "bytes32"
        },
        {
          "indexed": true,
          "internalType": "bytes32",
          "name": "newAdminRole",
          "type": "bytes32"
        }
      ],
      "name": "RoleAdminChanged",
      "type": "event"
    },
    {
      "anonymous": false,
      "inputs": [
        {
          "indexed": true,
          "internalType": "bytes32",
          "name": "role",
          "type": "bytes32"
        },
        {
          "indexed": true,
          "internalType": "address",
          "name": "account",
          "type": "address"
        },
        {
          "indexed": true,
          "internalType": "address",
          "name": "sender",
          "type": "address"
        }
      ],
      "name": "RoleGranted",
      "type": "event"
    },
    {
      "anonymous": false,
      "inputs": [
        {
          "indexed": true,
          "internalType": "bytes32",
          "name": "role",
          "type": "bytes32"
        },
        {
          "indexed": true,
          "internalType": "address",
          "name": "account",
          "type": "address"
        },
        {
          "indexed": true,
          "internalType": "address",
          "name": "sender",
          "type": "address"
        }
      ],
      "name": "RoleRevoked",
      "type": "event"
    },
    {
      "anonymous": false,
      "inputs": [
        {
          "indexed": true,
          "internalType": "address",
          "name": "from",
          "type": "address"
        },
        {
          "indexed": true,
          "internalType": "address",
          "name": "to",
          "type": "address"
        },
        {
          "indexed": false,
          "internalType": "uint256",
          "name": "value",
          "type": "uint256"
        }
      ],
      "name": "Transfer",
      "type": "event"
    },
    {
      "anonymous": false,
      "inputs": [
        {
          "indexed": true,
          "internalType": "uint256",
          "name": "_courseId",
          "type": "uint256"
        },
        {
          "indexed": true,
          "internalType": "address",
          "name": "_by",
          "type": "address"
        }
      ],
      "name": "unEnrollmentSuccess",
      "type": "event"
    },
    {
      "inputs": [],
      "name": "COURSE_OWNER_ROLE",
      "outputs": [
        {
          "internalType": "bytes32",
          "name": "",
          "type": "bytes32"
        }
      ],
      "stateMutability": "view",
      "type": "function"
    },
    {
      "inputs": [],
      "name": "CREATE_COURSE_REWARD",
      "outputs": [
        {
          "internalType": "uint256",
          "name": "",
          "type": "uint256"
        }
      ],
      "stateMutability": "view",
      "type": "function"
    },
    {
      "inputs": [],
      "name": "DEFAULT_ADMIN_ROLE",
      "outputs": [
        {
          "internalType": "bytes32",
          "name": "",
          "type": "bytes32"
        }
      ],
      "stateMutability": "view",
      "type": "function"
    },
    {
      "inputs": [],
      "name": "ECOSYSTEM_POOL",
      "outputs": [
        {
          "internalType": "uint256",
          "name": "",
          "type": "uint256"
        }
      ],
      "stateMutability": "view",
      "type": "function"
    },
    {
      "inputs": [],
      "name": "ENROLLMENT_REWARD",
      "outputs": [
        {
          "internalType": "uint256",
          "name": "",
          "type": "uint256"
        }
      ],
      "stateMutability": "view",
      "type": "function"
    },
    {
      "inputs": [],
      "name": "MAX_SCORE",
      "outputs": [
        {
          "internalType": "uint256",
          "name": "",
          "type": "uint256"
        }
      ],
      "stateMutability": "view",
      "type": "function"
    },
    {
      "inputs": [],
      "name": "MAX_SUPPLY",
      "outputs": [
        {
          "internalType": "uint256",
          "name": "",
          "type": "uint256"
        }
      ],
      "stateMutability": "view",
      "type": "function"
    },
    {
      "inputs": [],
      "name": "MIN_APPROVAL_SCORE",
      "outputs": [
        {
          "internalType": "uint256",
          "name": "",
          "type": "uint256"
        }
      ],
      "stateMutability": "view",
      "type": "function"
    },
    {
      "inputs": [],
      "name": "MULTISIG_APPROVER",
      "outputs": [
        {
          "internalType": "bytes32",
          "name": "",
          "type": "bytes32"
        }
      ],
      "stateMutability": "view",
      "type": "function"
    },
    {
      "inputs": [],
      "name": "REQUIRED_APPROVALS",
      "outputs": [
        {
          "internalType": "uint256",
          "name": "",
          "type": "uint256"
        }
      ],
      "stateMutability": "view",
      "type": "function"
    },
    {
      "inputs": [],
      "name": "REVIEWER_ROLE",
      "outputs": [
        {
          "internalType": "bytes32",
          "name": "",
          "type": "bytes32"
        }
      ],
      "stateMutability": "view",
      "type": "function"
    },
    {
      "inputs": [
        {
          "internalType": "address",
          "name": "",
          "type": "address"
        }
      ],
      "name": "accountCourses",
      "outputs": [
        {
          "internalType": "uint256",
          "name": "courseCount",
          "type": "uint256"
        }
      ],
      "stateMutability": "view",
      "type": "function"
    },
    {
      "inputs": [
        {
          "internalType": "uint256",
          "name": "_courseId",
          "type": "uint256"
        },
        {
          "internalType": "string[]",
          "name": "_chapters",
          "type": "string[]"
        }
      ],
      "name": "addChapters",
      "outputs": [
        {
          "internalType": "bool",
          "name": "",
          "type": "bool"
        }
      ],
      "stateMutability": "nonpayable",
      "type": "function"
    },
    {
      "inputs": [
        {
          "internalType": "uint256",
          "name": "_chapterId",
          "type": "uint256"
        },
        {
          "internalType": "string",
          "name": "_lessonName",
          "type": "string"
        },
        {
          "internalType": "string",
          "name": "_lessonContent",
          "type": "string"
        }
      ],
      "name": "addLesson",
      "outputs": [],
      "stateMutability": "nonpayable",
      "type": "function"
    },
    {
      "inputs": [
        {
          "internalType": "uint256",
          "name": "_lessonId",
          "type": "uint256"
        },
        {
          "internalType": "enum Ecosystem.ContentType",
          "name": "contentType",
          "type": "uint8"
        },
        {
          "components": [
            {
              "internalType": "enum Ecosystem.ContentType",
              "name": "contentType",
              "type": "uint8"
            },
            {
              "internalType": "string",
              "name": "url",
              "type": "string"
            },
            {
              "internalType": "string",
              "name": "name",
              "type": "string"
            }
          ],
          "internalType": "struct Ecosystem.Resource[]",
          "name": "_resources",
          "type": "tuple[]"
        }
      ],
      "name": "addResourcesToLesson",
      "outputs": [],
      "stateMutability": "nonpayable",
      "type": "function"
    },
    {
      "inputs": [
        {
          "internalType": "address",
          "name": "newReviewer",
          "type": "address"
        }
      ],
      "name": "addReviewer",
      "outputs": [],
      "stateMutability": "nonpayable",
      "type": "function"
    },
    {
      "inputs": [
        {
          "internalType": "address",
          "name": "owner",
          "type": "address"
        },
        {
          "internalType": "address",
          "name": "spender",
          "type": "address"
        }
      ],
      "name": "allowance",
      "outputs": [
        {
          "internalType": "uint256",
          "name": "",
          "type": "uint256"
        }
      ],
      "stateMutability": "view",
      "type": "function"
    },
    {
      "inputs": [
        {
          "internalType": "address",
          "name": "",
          "type": "address"
        },
        {
          "internalType": "uint256",
          "name": "",
          "type": "uint256"
        }
      ],
      "name": "approvals",
      "outputs": [
        {
          "internalType": "bool",
          "name": "",
          "type": "bool"
        }
      ],
      "stateMutability": "view",
      "type": "function"
    },
    {
      "inputs": [
        {
          "internalType": "address",
          "name": "spender",
          "type": "address"
        },
        {
          "internalType": "uint256",
          "name": "value",
          "type": "uint256"
        }
      ],
      "name": "approve",
      "outputs": [
        {
          "internalType": "bool",
          "name": "",
          "type": "bool"
        }
      ],
      "stateMutability": "nonpayable",
      "type": "function"
    },
    {
      "inputs": [
        {
          "internalType": "uint256",
          "name": "_courseId",
          "type": "uint256"
        }
      ],
      "name": "approveCourse",
      "outputs": [],
      "stateMutability": "nonpayable",
      "type": "function"
    },
    {
      "inputs": [
        {
          "internalType": "uint256",
          "name": "_proposalId",
          "type": "uint256"
        }
      ],
      "name": "approveMultiSigProposal",
      "outputs": [],
      "stateMutability": "nonpayable",
      "type": "function"
    },
    {
      "inputs": [
        {
          "internalType": "address",
          "name": "account",
          "type": "address"
        }
      ],
      "name": "balanceOf",
      "outputs": [
        {
          "internalType": "uint256",
          "name": "",
          "type": "uint256"
        }
      ],
      "stateMutability": "view",
      "type": "function"
    },
    {
      "inputs": [
        {
          "internalType": "uint256",
          "name": "",
          "type": "uint256"
        }
      ],
      "name": "chapter",
      "outputs": [
        {
          "internalType": "uint256",
          "name": "chapterId",
          "type": "uint256"
        },
        {
          "internalType": "string",
          "name": "chapterName",
          "type": "string"
        },
        {
          "internalType": "bool",
          "name": "exists",
          "type": "bool"
        }
      ],
      "stateMutability": "view",
      "type": "function"
    },
    {
      "inputs": [
        {
          "internalType": "uint256",
          "name": "",
          "type": "uint256"
        },
        {
          "internalType": "uint256",
          "name": "",
          "type": "uint256"
        }
      ],
      "name": "chapterLessons",
      "outputs": [
        {
          "internalType": "string",
          "name": "",
          "type": "string"
        }
      ],
      "stateMutability": "view",
      "type": "function"
    },
    {
      "inputs": [
        {
          "internalType": "uint256",
          "name": "",
          "type": "uint256"
        },
        {
          "internalType": "uint256",
          "name": "",
          "type": "uint256"
        }
      ],
      "name": "courseChapters",
      "outputs": [
        {
          "internalType": "uint256",
          "name": "chapterId",
          "type": "uint256"
        },
        {
          "internalType": "string",
          "name": "chapterName",
          "type": "string"
        },
        {
          "internalType": "bool",
          "name": "exists",
          "type": "bool"
        }
      ],
      "stateMutability": "view",
      "type": "function"
    },
    {
      "inputs": [],
      "name": "courseCount",
      "outputs": [
        {
          "internalType": "uint256",
          "name": "",
          "type": "uint256"
        }
      ],
      "stateMutability": "view",
      "type": "function"
    },
    {
      "inputs": [
        {
          "internalType": "uint256",
          "name": "",
          "type": "uint256"
        }
      ],
      "name": "courseObject",
      "outputs": [
        {
          "internalType": "uint256",
          "name": "courseId",
          "type": "uint256"
        },
        {
          "internalType": "string",
          "name": "courseName",
          "type": "string"
        },
        {
          "internalType": "string",
          "name": "description",
          "type": "string"
        },
        {
          "internalType": "bool",
          "name": "approved",
          "type": "bool"
        },
        {
          "internalType": "uint256",
          "name": "approvalCount",
          "type": "uint256"
        },
        {
          "internalType": "address",
          "name": "creator",
          "type": "address"
        }
      ],
      "stateMutability": "view",
      "type": "function"
    },
    {
      "inputs": [
        {
          "internalType": "uint256",
          "name": "",
          "type": "uint256"
        }
      ],
      "name": "courseReviewInitiated",
      "outputs": [
        {
          "internalType": "bool",
          "name": "",
          "type": "bool"
        }
      ],
      "stateMutability": "view",
      "type": "function"
    },
    {
      "inputs": [
        {
          "internalType": "uint256",
          "name": "",
          "type": "uint256"
        },
        {
          "internalType": "uint256",
          "name": "",
          "type": "uint256"
        }
      ],
      "name": "courseReviewers",
      "outputs": [
        {
          "internalType": "address",
          "name": "",
          "type": "address"
        }
      ],
      "stateMutability": "view",
      "type": "function"
    },
    {
      "inputs": [
        {
          "internalType": "string",
          "name": "_courseName",
          "type": "string"
        },
        {
          "internalType": "string",
          "name": "_description",
          "type": "string"
        }
      ],
      "name": "createCourse",
      "outputs": [
        {
          "internalType": "bool",
          "name": "",
          "type": "bool"
        }
      ],
      "stateMutability": "nonpayable",
      "type": "function"
    },
    {
      "inputs": [
        {
          "internalType": "uint256",
          "name": "_quizId",
          "type": "uint256"
        },
        {
          "internalType": "string",
          "name": "_questionText",
          "type": "string"
        },
        {
          "internalType": "string[]",
          "name": "_options",
          "type": "string[]"
        },
        {
          "internalType": "uint8",
          "name": "_correctChoiceIndex",
          "type": "uint8"
        }
      ],
      "name": "createQuestionWithChoices",
      "outputs": [],
      "stateMutability": "nonpayable",
      "type": "function"
    },
    {
      "inputs": [
        {
          "internalType": "uint256",
          "name": "_lessonId",
          "type": "uint256"
        },
        {
          "internalType": "string",
          "name": "_title",
          "type": "string"
        }
      ],
      "name": "createQuiz",
      "outputs": [
        {
          "internalType": "uint256",
          "name": "",
          "type": "uint256"
        }
      ],
      "stateMutability": "nonpayable",
      "type": "function"
    },
    {
      "inputs": [],
      "name": "decimals",
      "outputs": [
        {
          "internalType": "uint8",
          "name": "",
          "type": "uint8"
        }
      ],
      "stateMutability": "view",
      "type": "function"
    },
    {
      "inputs": [],
      "name": "ecosystemPoolSupply",
      "outputs": [
        {
          "internalType": "uint256",
          "name": "",
          "type": "uint256"
        }
      ],
      "stateMutability": "view",
      "type": "function"
    },
    {
      "inputs": [
        {
          "internalType": "uint256",
          "name": "_courseId",
          "type": "uint256"
        }
      ],
      "name": "enroll",
      "outputs": [
        {
          "internalType": "bool",
          "name": "",
          "type": "bool"
        }
      ],
      "stateMutability": "nonpayable",
      "type": "function"
    },
    {
      "inputs": [],
      "name": "getAllCourses",
      "outputs": [
        {
          "components": [
            {
              "internalType": "uint256",
              "name": "courseId",
              "type": "uint256"
            },
            {
              "internalType": "string",
              "name": "courseName",
              "type": "string"
            },
            {
              "internalType": "string",
              "name": "description",
              "type": "string"
            },
            {
              "internalType": "bool",
              "name": "approved",
              "type": "bool"
            },
            {
              "internalType": "uint256",
              "name": "approvalCount",
              "type": "uint256"
            },
            {
              "internalType": "address",
              "name": "creator",
              "type": "address"
            }
          ],
          "internalType": "struct Ecosystem.Course[]",
          "name": "",
          "type": "tuple[]"
        }
      ],
      "stateMutability": "view",
      "type": "function"
    },
    {
      "inputs": [],
      "name": "getAllLessons",
      "outputs": [
        {
          "components": [
            {
              "internalType": "uint256",
              "name": "lessonId",
              "type": "uint256"
            },
            {
              "internalType": "string",
              "name": "lessonName",
              "type": "string"
            },
            {
              "internalType": "string",
              "name": "lessonContent",
              "type": "string"
            },
            {
              "components": [
                {
                  "internalType": "enum Ecosystem.ContentType",
                  "name": "contentType",
                  "type": "uint8"
                },
                {
                  "internalType": "string",
                  "name": "url",
                  "type": "string"
                },
                {
                  "internalType": "string",
                  "name": "name",
                  "type": "string"
                }
              ],
              "internalType": "struct Ecosystem.Resource[10]",
              "name": "additionalResources",
              "type": "tuple[10]"
            },
            {
              "internalType": "uint256",
              "name": "resourceCount",
              "type": "uint256"
            },
            {
              "internalType": "bool",
              "name": "exists",
              "type": "bool"
            }
          ],
          "internalType": "struct Ecosystem.Lesson[]",
          "name": "",
          "type": "tuple[]"
        }
      ],
      "stateMutability": "view",
      "type": "function"
    },
    {
      "inputs": [],
      "name": "getAllQuizzes",
      "outputs": [
        {
          "components": [
            {
              "internalType": "uint256",
              "name": "quizId",
              "type": "uint256"
            },
            {
              "internalType": "string",
              "name": "quizTitle",
              "type": "string"
            },
            {
              "components": [
                {
                  "internalType": "uint256",
                  "name": "questionId",
                  "type": "uint256"
                },
                {
                  "internalType": "string",
                  "name": "questionText",
                  "type": "string"
                },
                {
                  "components": [
                    {
                      "internalType": "string",
                      "name": "option",
                      "type": "string"
                    },
                    {
                      "internalType": "bool",
                      "name": "isCorrect",
                      "type": "bool"
                    }
                  ],
                  "internalType": "struct Ecosystem.Choice[]",
                  "name": "choices",
                  "type": "tuple[]"
                }
              ],
              "internalType": "struct Ecosystem.Question[]",
              "name": "questions",
              "type": "tuple[]"
            },
            {
              "internalType": "bool",
              "name": "exists",
              "type": "bool"
            }
          ],
          "internalType": "struct Ecosystem.Quiz[]",
          "name": "",
          "type": "tuple[]"
        }
      ],
      "stateMutability": "view",
      "type": "function"
    },
    {
      "inputs": [
        {
          "internalType": "uint256",
          "name": "_courseId",
          "type": "uint256"
        }
      ],
      "name": "getChapters",
      "outputs": [
        {
          "components": [
            {
              "internalType": "uint256",
              "name": "chapterId",
              "type": "uint256"
            },
            {
              "internalType": "string",
              "name": "chapterName",
              "type": "string"
            },
            {
              "internalType": "bool",
              "name": "exists",
              "type": "bool"
            }
          ],
          "internalType": "struct Ecosystem.Chapter[]",
          "name": "",
          "type": "tuple[]"
        }
      ],
      "stateMutability": "view",
      "type": "function"
    },
    {
      "inputs": [
        {
          "internalType": "uint256",
          "name": "courseId",
          "type": "uint256"
        }
      ],
      "name": "getCourseReviewers",
      "outputs": [
        {
          "internalType": "address[]",
          "name": "",
          "type": "address[]"
        }
      ],
      "stateMutability": "view",
      "type": "function"
    },
    {
      "inputs": [],
      "name": "getCurrentEcosystemPoolSupply",
      "outputs": [
        {
          "internalType": "uint256",
          "name": "",
          "type": "uint256"
        }
      ],
      "stateMutability": "view",
      "type": "function"
    },
    {
      "inputs": [
        {
          "internalType": "uint256",
          "name": "_quizId",
          "type": "uint256"
        }
      ],
      "name": "getQuestionsForQuiz",
      "outputs": [
        {
          "components": [
            {
              "internalType": "uint256",
              "name": "questionId",
              "type": "uint256"
            },
            {
              "internalType": "string",
              "name": "questionText",
              "type": "string"
            },
            {
              "components": [
                {
                  "internalType": "string",
                  "name": "option",
                  "type": "string"
                },
                {
                  "internalType": "bool",
                  "name": "isCorrect",
                  "type": "bool"
                }
              ],
              "internalType": "struct Ecosystem.Choice[]",
              "name": "choices",
              "type": "tuple[]"
            }
          ],
          "internalType": "struct Ecosystem.Question[]",
          "name": "",
          "type": "tuple[]"
        }
      ],
      "stateMutability": "view",
      "type": "function"
    },
    {
      "inputs": [
        {
          "internalType": "uint256",
          "name": "_quizId",
          "type": "uint256"
        }
      ],
      "name": "getQuiz",
      "outputs": [
        {
          "components": [
            {
              "internalType": "uint256",
              "name": "quizId",
              "type": "uint256"
            },
            {
              "internalType": "string",
              "name": "quizTitle",
              "type": "string"
            },
            {
              "components": [
                {
                  "internalType": "uint256",
                  "name": "questionId",
                  "type": "uint256"
                },
                {
                  "internalType": "string",
                  "name": "questionText",
                  "type": "string"
                },
                {
                  "components": [
                    {
                      "internalType": "string",
                      "name": "option",
                      "type": "string"
                    },
                    {
                      "internalType": "bool",
                      "name": "isCorrect",
                      "type": "bool"
                    }
                  ],
                  "internalType": "struct Ecosystem.Choice[]",
                  "name": "choices",
                  "type": "tuple[]"
                }
              ],
              "internalType": "struct Ecosystem.Question[]",
              "name": "questions",
              "type": "tuple[]"
            },
            {
              "internalType": "bool",
              "name": "exists",
              "type": "bool"
            }
          ],
          "internalType": "struct Ecosystem.Quiz",
          "name": "",
          "type": "tuple"
        }
      ],
      "stateMutability": "view",
      "type": "function"
    },
    {
      "inputs": [
        {
          "internalType": "bytes32",
          "name": "role",
          "type": "bytes32"
        }
      ],
      "name": "getRoleAdmin",
      "outputs": [
        {
          "internalType": "bytes32",
          "name": "",
          "type": "bytes32"
        }
      ],
      "stateMutability": "view",
      "type": "function"
    },
    {
      "inputs": [
        {
          "internalType": "bytes32",
          "name": "role",
          "type": "bytes32"
        },
        {
          "internalType": "address",
          "name": "account",
          "type": "address"
        }
      ],
      "name": "grantRole",
      "outputs": [],
      "stateMutability": "nonpayable",
      "type": "function"
    },
    {
      "inputs": [
        {
          "internalType": "bytes32",
          "name": "role",
          "type": "bytes32"
        },
        {
          "internalType": "address",
          "name": "account",
          "type": "address"
        }
      ],
      "name": "hasRole",
      "outputs": [
        {
          "internalType": "bool",
          "name": "",
          "type": "bool"
        }
      ],
      "stateMutability": "view",
      "type": "function"
    },
    {
      "inputs": [
        {
          "internalType": "uint256",
          "name": "",
          "type": "uint256"
        },
        {
          "internalType": "address",
          "name": "",
          "type": "address"
        }
      ],
      "name": "isEnrolled",
      "outputs": [
        {
          "internalType": "bool",
          "name": "",
          "type": "bool"
        }
      ],
      "stateMutability": "view",
      "type": "function"
    },
    {
      "inputs": [
        {
          "internalType": "address",
          "name": "",
          "type": "address"
        }
      ],
      "name": "isInReviewerPool",
      "outputs": [
        {
          "internalType": "bool",
          "name": "",
          "type": "bool"
        }
      ],
      "stateMutability": "view",
      "type": "function"
    },
    {
      "inputs": [
        {
          "internalType": "address",
          "name": "account",
          "type": "address"
        }
      ],
      "name": "isReviewer",
      "outputs": [
        {
          "internalType": "bool",
          "name": "",
          "type": "bool"
        }
      ],
      "stateMutability": "view",
      "type": "function"
    },
    {
      "inputs": [
        {
          "internalType": "uint256",
          "name": "",
          "type": "uint256"
        }
      ],
      "name": "lesson",
      "outputs": [
        {
          "internalType": "uint256",
          "name": "lessonId",
          "type": "uint256"
        },
        {
          "internalType": "string",
          "name": "lessonName",
          "type": "string"
        },
        {
          "internalType": "string",
          "name": "lessonContent",
          "type": "string"
        },
        {
          "internalType": "uint256",
          "name": "resourceCount",
          "type": "uint256"
        },
        {
          "internalType": "bool",
          "name": "exists",
          "type": "bool"
        }
      ],
      "stateMutability": "view",
      "type": "function"
    },
    {
      "inputs": [
        {
          "internalType": "uint256",
          "name": "",
          "type": "uint256"
        }
      ],
      "name": "listOfChapters",
      "outputs": [
        {
          "internalType": "uint256",
          "name": "chapterId",
          "type": "uint256"
        },
        {
          "internalType": "string",
          "name": "chapterName",
          "type": "string"
        },
        {
          "internalType": "bool",
          "name": "exists",
          "type": "bool"
        }
      ],
      "stateMutability": "view",
      "type": "function"
    },
    {
      "inputs": [
        {
          "internalType": "uint256",
          "name": "",
          "type": "uint256"
        }
      ],
      "name": "listOfCourses",
      "outputs": [
        {
          "internalType": "uint256",
          "name": "courseId",
          "type": "uint256"
        },
        {
          "internalType": "string",
          "name": "courseName",
          "type": "string"
        },
        {
          "internalType": "string",
          "name": "description",
          "type": "string"
        },
        {
          "internalType": "bool",
          "name": "approved",
          "type": "bool"
        },
        {
          "internalType": "uint256",
          "name": "approvalCount",
          "type": "uint256"
        },
        {
          "internalType": "address",
          "name": "creator",
          "type": "address"
        }
      ],
      "stateMutability": "view",
      "type": "function"
    },
    {
      "inputs": [
        {
          "internalType": "uint256",
          "name": "",
          "type": "uint256"
        }
      ],
      "name": "listOfLessons",
      "outputs": [
        {
          "internalType": "uint256",
          "name": "lessonId",
          "type": "uint256"
        },
        {
          "internalType": "string",
          "name": "lessonName",
          "type": "string"
        },
        {
          "internalType": "string",
          "name": "lessonContent",
          "type": "string"
        },
        {
          "internalType": "uint256",
          "name": "resourceCount",
          "type": "uint256"
        },
        {
          "internalType": "bool",
          "name": "exists",
          "type": "bool"
        }
      ],
      "stateMutability": "view",
      "type": "function"
    },
    {
      "inputs": [
        {
          "internalType": "uint256",
          "name": "",
          "type": "uint256"
        }
      ],
      "name": "listOfQuestions",
      "outputs": [
        {
          "internalType": "uint256",
          "name": "questionId",
          "type": "uint256"
        },
        {
          "internalType": "string",
          "name": "questionText",
          "type": "string"
        }
      ],
      "stateMutability": "view",
      "type": "function"
    },
    {
      "inputs": [
        {
          "internalType": "uint256",
          "name": "",
          "type": "uint256"
        }
      ],
      "name": "listOfQuizzes",
      "outputs": [
        {
          "internalType": "uint256",
          "name": "quizId",
          "type": "uint256"
        },
        {
          "internalType": "string",
          "name": "quizTitle",
          "type": "string"
        },
        {
          "internalType": "bool",
          "name": "exists",
          "type": "bool"
        }
      ],
      "stateMutability": "view",
      "type": "function"
    },
    {
      "inputs": [
        {
          "internalType": "uint256",
          "name": "",
          "type": "uint256"
        }
      ],
      "name": "listOfResource",
      "outputs": [
        {
          "internalType": "enum Ecosystem.ContentType",
          "name": "contentType",
          "type": "uint8"
        },
        {
          "internalType": "string",
          "name": "url",
          "type": "string"
        },
        {
          "internalType": "string",
          "name": "name",
          "type": "string"
        }
      ],
      "stateMutability": "view",
      "type": "function"
    },
    {
      "inputs": [
        {
          "internalType": "uint256",
          "name": "",
          "type": "uint256"
        }
      ],
      "name": "multiSigProposals",
      "outputs": [
        {
          "internalType": "uint256",
          "name": "id",
          "type": "uint256"
        },
        {
          "internalType": "address",
          "name": "proposer",
          "type": "address"
        },
        {
          "internalType": "address",
          "name": "targetContract",
          "type": "address"
        },
        {
          "internalType": "bytes",
          "name": "data",
          "type": "bytes"
        },
        {
          "internalType": "uint256",
          "name": "approvalCount",
          "type": "uint256"
        },
        {
          "internalType": "bool",
          "name": "executed",
          "type": "bool"
        }
      ],
      "stateMutability": "view",
      "type": "function"
    },
    {
      "inputs": [],
      "name": "name",
      "outputs": [
        {
          "internalType": "string",
          "name": "",
          "type": "string"
        }
      ],
      "stateMutability": "view",
      "type": "function"
    },
    {
      "inputs": [],
      "name": "nextChapterId",
      "outputs": [
        {
          "internalType": "uint256",
          "name": "",
          "type": "uint256"
        }
      ],
      "stateMutability": "view",
      "type": "function"
    },
    {
      "inputs": [],
      "name": "nextChoiceId",
      "outputs": [
        {
          "internalType": "uint256",
          "name": "",
          "type": "uint256"
        }
      ],
      "stateMutability": "view",
      "type": "function"
    },
    {
      "inputs": [],
      "name": "nextCourseId",
      "outputs": [
        {
          "internalType": "uint256",
          "name": "",
          "type": "uint256"
        }
      ],
      "stateMutability": "view",
      "type": "function"
    },
    {
      "inputs": [],
      "name": "nextCourseIdd",
      "outputs": [
        {
          "internalType": "uint256",
          "name": "",
          "type": "uint256"
        }
      ],
      "stateMutability": "view",
      "type": "function"
    },
    {
      "inputs": [],
      "name": "nextLessonId",
      "outputs": [
        {
          "internalType": "uint256",
          "name": "",
          "type": "uint256"
        }
      ],
      "stateMutability": "view",
      "type": "function"
    },
    {
      "inputs": [],
      "name": "nextQuestionId",
      "outputs": [
        {
          "internalType": "uint256",
          "name": "",
          "type": "uint256"
        }
      ],
      "stateMutability": "view",
      "type": "function"
    },
    {
      "inputs": [],
      "name": "nextQuizId",
      "outputs": [
        {
          "internalType": "uint256",
          "name": "",
          "type": "uint256"
        }
      ],
      "stateMutability": "view",
      "type": "function"
    },
    {
      "inputs": [
        {
          "internalType": "uint256",
          "name": "",
          "type": "uint256"
        }
      ],
      "name": "questions",
      "outputs": [
        {
          "internalType": "uint256",
          "name": "questionId",
          "type": "uint256"
        },
        {
          "internalType": "string",
          "name": "questionText",
          "type": "string"
        }
      ],
      "stateMutability": "view",
      "type": "function"
    },
    {
      "inputs": [
        {
          "internalType": "uint256",
          "name": "",
          "type": "uint256"
        }
      ],
      "name": "quizzes",
      "outputs": [
        {
          "internalType": "uint256",
          "name": "quizId",
          "type": "uint256"
        },
        {
          "internalType": "string",
          "name": "quizTitle",
          "type": "string"
        },
        {
          "internalType": "bool",
          "name": "exists",
          "type": "bool"
        }
      ],
      "stateMutability": "view",
      "type": "function"
    },
    {
      "inputs": [
        {
          "internalType": "address",
          "name": "reviewer",
          "type": "address"
        }
      ],
      "name": "removeReviewer",
      "outputs": [],
      "stateMutability": "nonpayable",
      "type": "function"
    },
    {
      "inputs": [
        {
          "internalType": "bytes32",
          "name": "role",
          "type": "bytes32"
        },
        {
          "internalType": "address",
          "name": "callerConfirmation",
          "type": "address"
        }
      ],
      "name": "renounceRole",
      "outputs": [],
      "stateMutability": "nonpayable",
      "type": "function"
    },
    {
      "inputs": [
        {
          "internalType": "uint256",
          "name": "",
          "type": "uint256"
        }
      ],
      "name": "reviewerPool",
      "outputs": [
        {
          "internalType": "address",
          "name": "",
          "type": "address"
        }
      ],
      "stateMutability": "view",
      "type": "function"
    },
    {
      "inputs": [
        {
          "internalType": "uint256",
          "name": "",
          "type": "uint256"
        },
        {
          "internalType": "address",
          "name": "",
          "type": "address"
        }
      ],
      "name": "reviews",
      "outputs": [
        {
          "internalType": "uint256",
          "name": "learnerAgency",
          "type": "uint256"
        },
        {
          "internalType": "uint256",
          "name": "criticalThinking",
          "type": "uint256"
        },
        {
          "internalType": "uint256",
          "name": "collaborativeLearning",
          "type": "uint256"
        },
        {
          "internalType": "uint256",
          "name": "reflectivePractice",
          "type": "uint256"
        },
        {
          "internalType": "uint256",
          "name": "adaptiveLearning",
          "type": "uint256"
        },
        {
          "internalType": "uint256",
          "name": "authenticLearning",
          "type": "uint256"
        },
        {
          "internalType": "uint256",
          "name": "technologyIntegration",
          "type": "uint256"
        },
        {
          "internalType": "uint256",
          "name": "learnerSupport",
          "type": "uint256"
        },
        {
          "internalType": "uint256",
          "name": "assessmentForLearning",
          "type": "uint256"
        },
        {
          "internalType": "uint256",
          "name": "engagementAndMotivation",
          "type": "uint256"
        },
        {
          "internalType": "bool",
          "name": "isSubmitted",
          "type": "bool"
        }
      ],
      "stateMutability": "view",
      "type": "function"
    },
    {
      "inputs": [
        {
          "internalType": "bytes32",
          "name": "role",
          "type": "bytes32"
        },
        {
          "internalType": "address",
          "name": "account",
          "type": "address"
        }
      ],
      "name": "revokeRole",
      "outputs": [],
      "stateMutability": "nonpayable",
      "type": "function"
    },
    {
      "inputs": [
        {
          "internalType": "uint256",
          "name": "courseId",
          "type": "uint256"
        }
      ],
      "name": "selectCourseReviewers",
      "outputs": [],
      "stateMutability": "nonpayable",
      "type": "function"
    },
    {
      "inputs": [
        {
          "internalType": "uint256",
          "name": "courseId",
          "type": "uint256"
        },
        {
          "internalType": "uint256",
          "name": "learnerAgency",
          "type": "uint256"
        },
        {
          "internalType": "uint256",
          "name": "criticalThinking",
          "type": "uint256"
        },
        {
          "internalType": "uint256",
          "name": "collaborativeLearning",
          "type": "uint256"
        },
        {
          "internalType": "uint256",
          "name": "reflectivePractice",
          "type": "uint256"
        },
        {
          "internalType": "uint256",
          "name": "adaptiveLearning",
          "type": "uint256"
        },
        {
          "internalType": "uint256",
          "name": "authenticLearning",
          "type": "uint256"
        },
        {
          "internalType": "uint256",
          "name": "technologyIntegration",
          "type": "uint256"
        },
        {
          "internalType": "uint256",
          "name": "learnerSupport",
          "type": "uint256"
        },
        {
          "internalType": "uint256",
          "name": "assessmentForLearning",
          "type": "uint256"
        },
        {
          "internalType": "uint256",
          "name": "engagementAndMotivation",
          "type": "uint256"
        }
      ],
      "name": "submitReview",
      "outputs": [],
      "stateMutability": "nonpayable",
      "type": "function"
    },
    {
      "inputs": [
        {
          "internalType": "bytes4",
          "name": "interfaceId",
          "type": "bytes4"
        }
      ],
      "name": "supportsInterface",
      "outputs": [
        {
          "internalType": "bool",
          "name": "",
          "type": "bool"
        }
      ],
      "stateMutability": "view",
      "type": "function"
    },
    {
      "inputs": [],
      "name": "symbol",
      "outputs": [
        {
          "internalType": "string",
          "name": "",
          "type": "string"
        }
      ],
      "stateMutability": "view",
      "type": "function"
    },
    {
      "inputs": [],
      "name": "totalSupply",
      "outputs": [
        {
          "internalType": "uint256",
          "name": "",
          "type": "uint256"
        }
      ],
      "stateMutability": "view",
      "type": "function"
    },
    {
      "inputs": [
        {
          "internalType": "address",
          "name": "to",
          "type": "address"
        },
        {
          "internalType": "uint256",
          "name": "value",
          "type": "uint256"
        }
      ],
      "name": "transfer",
      "outputs": [
        {
          "internalType": "bool",
          "name": "",
          "type": "bool"
        }
      ],
      "stateMutability": "nonpayable",
      "type": "function"
    },
    {
      "inputs": [
        {
          "internalType": "address",
          "name": "from",
          "type": "address"
        },
        {
          "internalType": "address",
          "name": "to",
          "type": "address"
        },
        {
          "internalType": "uint256",
          "name": "value",
          "type": "uint256"
        }
      ],
      "name": "transferFrom",
      "outputs": [
        {
          "internalType": "bool",
          "name": "",
          "type": "bool"
        }
      ],
      "stateMutability": "nonpayable",
      "type": "function"
    },
    {
      "inputs": [
        {
          "internalType": "uint256",
          "name": "_courseId",
          "type": "uint256"
        }
      ],
      "name": "unEnroll",
      "outputs": [
        {
          "internalType": "bool",
          "name": "",
          "type": "bool"
        }
      ],
      "stateMutability": "nonpayable",
      "type": "function"
    }
  ],
  "bytecode": "0x608060405234801561001057600080fd5b5060405161aa7438038061aa748339818101604052810190610032919061063b565b80806040518060400160405280600a81526020017f4142594120544f4b454e000000000000000000000000000000000000000000008152506040518060400160405280600681526020017f414259544b4e000000000000000000000000000000000000000000000000000081525081600390816100af91906108a5565b5080600490816100bf91906108a5565b505050600481511015610107576040517f08c379a00000000000000000000000000000000000000000000000000000000081526004016100fe906109fa565b60405180910390fd5b61011a6000801b336102c060201b60201c565b5061014b7fdf1425bae297c2f52b4f15d18a50b1fc8cb5b981a981b1d213ed3ff92681b64d336102c060201b60201c565b5060005b815181101561029f576101a27fc10c77be35aff266144ed64c26a1fa104bae2f284ae99ac4a34203454704a18583838151811061018f5761018e610a1a565b5b60200260200101516102c060201b60201c565b5060068282815181106101b8576101b7610a1a565b5b60200260200101519080600181540180825580915050600190039060005260206000200160009091909190916101000a81548173ffffffffffffffffffffffffffffffffffffffff021916908373ffffffffffffffffffffffffffffffffffffffff16021790555060016008600084848151811061023957610238610a1a565b5b602002602001015173ffffffffffffffffffffffffffffffffffffffff1673ffffffffffffffffffffffffffffffffffffffff16815260200190815260200160002060006101000a81548160ff021916908315150217905550808060010191505061014f565b50506001600a819055506102b9600b6103be60201b60201c565b5050610a49565b60006102d283836103fd60201b60201c565b6103b35760016005600085815260200190815260200160002060000160008473ffffffffffffffffffffffffffffffffffffffff1673ffffffffffffffffffffffffffffffffffffffff16815260200190815260200160002060006101000a81548160ff02191690831515021790555061035061046860201b60201c565b73ffffffffffffffffffffffffffffffffffffffff168273ffffffffffffffffffffffffffffffffffffffff16847f2f8788117e7eff1d82e926ec794901d17c78024a50270940304540a733656f0d60405160405180910390a4600190506103b8565b600090505b92915050565b60018160000181905550600181600101819055506001816002018190555060018160030181905550600181600401819055506001816005018190555050565b60006005600084815260200190815260200160002060000160008373ffffffffffffffffffffffffffffffffffffffff1673ffffffffffffffffffffffffffffffffffffffff16815260200190815260200160002060009054906101000a900460ff16905092915050565b600033905090565b6000604051905090565b600080fd5b600080fd5b600080fd5b6000601f19601f8301169050919050565b7f4e487b7100000000000000000000000000000000000000000000000000000000600052604160045260246000fd5b6104d282610489565b810181811067ffffffffffffffff821117156104f1576104f061049a565b5b80604052505050565b6000610504610470565b905061051082826104c9565b919050565b600067ffffffffffffffff8211156105305761052f61049a565b5b602082029050602081019050919050565b600080fd5b600073ffffffffffffffffffffffffffffffffffffffff82169050919050565b600061057182610546565b9050919050565b61058181610566565b811461058c57600080fd5b50565b60008151905061059e81610578565b92915050565b60006105b76105b284610515565b6104fa565b905080838252602082019050602084028301858111156105da576105d9610541565b5b835b8181101561060357806105ef888261058f565b8452602084019350506020810190506105dc565b5050509392505050565b600082601f83011261062257610621610484565b5b81516106328482602086016105a4565b91505092915050565b6000602082840312156106515761065061047a565b5b600082015167ffffffffffffffff81111561066f5761066e61047f565b5b61067b8482850161060d565b91505092915050565b600081519050919050565b7f4e487b7100000000000000000000000000000000000000000000000000000000600052602260045260246000fd5b600060028204905060018216806106d657607f821691505b6020821081036106e9576106e861068f565b5b50919050565b60008190508160005260206000209050919050565b60006020601f8301049050919050565b600082821b905092915050565b6000600883026107517fffffffffffffffffffffffffffffffffffffffffffffffffffffffffffffffff82610714565b61075b8683610714565b95508019841693508086168417925050509392505050565b6000819050919050565b6000819050919050565b60006107a261079d61079884610773565b61077d565b610773565b9050919050565b6000819050919050565b6107bc83610787565b6107d06107c8826107a9565b848454610721565b825550505050565b600090565b6107e56107d8565b6107f08184846107b3565b505050565b5b81811015610814576108096000826107dd565b6001810190506107f6565b5050565b601f8211156108595761082a816106ef565b61083384610704565b81016020851015610842578190505b61085661084e85610704565b8301826107f5565b50505b505050565b600082821c905092915050565b600061087c6000198460080261085e565b1980831691505092915050565b6000610895838361086b565b9150826002028217905092915050565b6108ae82610684565b67ffffffffffffffff8111156108c7576108c661049a565b5b6108d182546106be565b6108dc828285610818565b600060209050601f83116001811461090f57600084156108fd578287015190505b6109078582610889565b86555061096f565b601f19841661091d866106ef565b60005b8281101561094557848901518255600182019150602085019450602081019050610920565b86831015610962578489015161095e601f89168261086b565b8355505b6001600288020188555050505b505050505050565b600082825260208201905092915050565b7f4174206c6561737420342072657669657765727320617265207265717569726560008201527f6400000000000000000000000000000000000000000000000000000000000000602082015250565b60006109e4602183610977565b91506109ef82610988565b604082019050919050565b60006020820190508181036000830152610a13816109d7565b9050919050565b7f4e487b7100000000000000000000000000000000000000000000000000000000600052603260045260246000fd5b61a01c80610a586000396000f3fe608060405234801561001057600080fd5b50600436106104805760003560e01c80637528499811610257578063bad0dd6511610146578063d547741f116100c3578063e503f10811610087578063e503f10814611000578063eb264b9c1461101e578063f57d585b1461103c578063fdc6258a1461106c578063ffabc6731461109c57610480565b8063d547741f14610f46578063d93f2caa14610f62578063dd62ed3e14610f80578063ddfc79fb14610fb0578063ded5c18d14610fe257610480565b8063c7954e4c1161010a578063c7954e4c14610e8e578063c90c884d14610eac578063c9442dac14610ede578063c976831514610efa578063d3751bfc14610f2a57610480565b8063bad0dd6514610da4578063bfd2f4c514610dc0578063c12804fb14610df4578063c293bbbe14610e2e578063c491b04c14610e5e57610480565b8063a217fddf116101d4578063a9059cbb11610198578063a9059cbb14610cda578063aa95da3a14610d0a578063ac678a9314610d3a578063ac957c6314610d6a578063b31a4af314610d8857610480565b8063a217fddf14610c0c578063a26a795314610c2a578063a296ea5814610c5a578063a3ef204114610c78578063a3f7e09614610caa57610480565b80638ea6e2fd1161021b5780638ea6e2fd14610b5457806391d1485414610b7057806395d89b4114610ba0578063a14ecbdf14610bbe578063a1cd05b114610bdc57610480565b80637528499814610aae57806375b9d86914610aca5780637d83daf214610ae6578063846f815214610b0457806388409afa14610b2257610480565b806331b1b9781161037357806352994e2f116102f05780636a4af0fa116102b45780636a4af0fa146109f15780636b000fa714610a0f5780636fdb67f714610a2d57806370a0823114610a6257806373a82b5f14610a9257610480565b806352994e2f1461094b57806358a3fa2514610969578063599c553314610985578063632c224b146109a357806366055159146109d357610480565b80633b129a56116103375780633b129a561461086557806340932bf8146108835780634a474b9c146108b85780634d42ef48146108e857806351d93c811461091a57610480565b806331b1b978146107ac57806332cb6b0c146107dd57806334ed4bdb146107fb57806336568abe1461082b5780633693dcfa1461084757610480565b8063248a9ca31161040157806329a0be65116103c557806329a0be65146106f05780632aac61ae1461070e5780632f2ff15d146107425780632fab55af1461075e578063313ce5671461078e57610480565b8063248a9ca31461061d578063274202f01461064d57806327ff62231461066b578063295b825a146106895780632990db7c146106bb57610480565b806311ce15df1161044857806311ce15df1461053f57806318160ddd1461056f57806319f102ec1461058d57806320bd0316146105bd57806323b872dd146105ed57610480565b806301ffc9a71461048557806304e48bd1146104b5578063057f46bb146104d357806306fdde03146104f1578063095ea7b31461050f575b600080fd5b61049f600480360381019061049a9190617072565b6110cc565b6040516104ac91906170ba565b60405180910390f35b6104bd611146565b6040516104ca9190617320565b60405180910390f35b6104db611448565b6040516104e89190617351565b60405180910390f35b6104f961144e565b60405161050691906173b6565b60405180910390f35b61052960048036038101906105249190617430565b6114e0565b60405161053691906170ba565b60405180910390f35b61055960048036038101906105549190617470565b611503565b60405161056691906170ba565b60405180910390f35b610577611523565b6040516105849190617351565b60405180910390f35b6105a760048036038101906105a29190617470565b61152d565b6040516105b491906174ac565b60405180910390f35b6105d760048036038101906105d29190617470565b61156c565b6040516105e491906170ba565b60405180910390f35b610607600480360381019061060291906174c7565b6116e3565b60405161061491906170ba565b60405180910390f35b61063760048036038101906106329190617550565b611712565b604051610644919061758c565b60405180910390f35b610655611732565b6040516106629190617351565b60405180910390f35b61067361175a565b6040516106809190617351565b60405180910390f35b6106a3600480360381019061069e9190617470565b61175f565b6040516106b2939291906175a7565b60405180910390f35b6106d560048036038101906106d09190617470565b61182e565b6040516106e7969594939291906175e5565b60405180910390f35b6106f86119a7565b6040516107059190617351565b60405180910390f35b61072860048036038101906107239190617470565b6119ad565b604051610739959493929190617654565b60405180910390f35b61075c600480360381019061075791906176b5565b611b10565b005b61077860048036038101906107739190617910565b611b32565b60405161078591906170ba565b60405180910390f35b610796611dc8565b6040516107a39190617988565b60405180910390f35b6107c660048036038101906107c19190617470565b611dd1565b6040516107d49291906179a3565b60405180910390f35b6107e5611e7d565b6040516107f29190617351565b60405180910390f35b610815600480360381019061081091906179d3565b611e8d565b6040516108229190617351565b60405180910390f35b610845600480360381019061084091906176b5565b611eab565b005b61084f611f26565b60405161085c919061758c565b60405180910390f35b61086d611f4a565b60405161087a919061758c565b60405180910390f35b61089d60048036038101906108989190617470565b611f6e565b6040516108af96959493929190617a55565b60405180910390f35b6108d260048036038101906108cd9190617470565b61207f565b6040516108df9190617cd5565b60405180910390f35b61090260048036038101906108fd9190617cf7565b6122ff565b604051610911939291906175a7565b60405180910390f35b610934600480360381019061092f9190617470565b6123db565b6040516109429291906179a3565b60405180910390f35b610953612497565b604051610960919061758c565b60405180910390f35b610983600480360381019061097e9190617d37565b6124bb565b005b61098d612781565b60405161099a9190617351565b60405180910390f35b6109bd60048036038101906109b89190617e2b565b612786565b6040516109ca9190617351565b60405180910390f35b6109db612937565b6040516109e89190617351565b60405180910390f35b6109f961293d565b604051610a069190618039565b60405180910390f35b610a17612cb9565b604051610a249190617351565b60405180910390f35b610a476004803603810190610a429190617470565b612cbf565b604051610a59969594939291906175e5565b60405180910390f35b610a7c6004803603810190610a7791906179d3565b612e48565b604051610a899190617351565b60405180910390f35b610aac6004803603810190610aa791906179d3565b612e90565b005b610ac86004803603810190610ac39190617470565b613074565b005b610ae46004803603810190610adf919061805b565b61328e565b005b610aee613489565b604051610afb9190617351565b60405180910390f35b610b0c61348f565b604051610b199190617351565b60405180910390f35b610b3c6004803603810190610b379190617470565b61349b565b604051610b4b939291906175a7565b60405180910390f35b610b6e6004803603810190610b699190617470565b61355a565b005b610b8a6004803603810190610b8591906176b5565b6138c4565b604051610b9791906170ba565b60405180910390f35b610ba861392f565b604051610bb591906173b6565b60405180910390f35b610bc66139c1565b604051610bd39190617351565b60405180910390f35b610bf66004803603810190610bf19190617cf7565b6139c7565b604051610c0391906174ac565b60405180910390f35b610c14613a15565b604051610c21919061758c565b60405180910390f35b610c446004803603810190610c3f91906180e6565b613a1c565b604051610c5191906170ba565b60405180910390f35b610c62613df3565b604051610c6f919061843b565b60405180910390f35b610c926004803603810190610c8d9190617470565b6141c1565b604051610ca1939291906175a7565b60405180910390f35b610cc46004803603810190610cbf9190617470565b614280565b604051610cd191906184c7565b60405180910390f35b610cf46004803603810190610cef9190617430565b6145ce565b604051610d0191906170ba565b60405180910390f35b610d246004803603810190610d1f9190617cf7565b6145f1565b604051610d3191906173b6565b60405180910390f35b610d546004803603810190610d4f9190617470565b6146a9565b604051610d6191906185fb565b60405180910390f35b610d726147d2565b604051610d7f9190617351565b60405180910390f35b610da26004803603810190610d9d919061869d565b6147d7565b005b610dbe6004803603810190610db99190617470565b614bbf565b005b610dda6004803603810190610dd59190617470565b614ebe565b604051610deb959493929190617654565b60405180910390f35b610e0e6004803603810190610e099190618711565b615011565b604051610e259b9a99989796959493929190618751565b60405180910390f35b610e486004803603810190610e439190617470565b615085565b604051610e5591906188ab565b60405180910390f35b610e786004803603810190610e7391906179d3565b615126565b604051610e8591906170ba565b60405180910390f35b610e96615146565b604051610ea39190617351565b60405180910390f35b610ec66004803603810190610ec19190617470565b615150565b604051610ed5939291906175a7565b60405180910390f35b610ef86004803603810190610ef391906179d3565b61521f565b005b610f146004803603810190610f0f9190618711565b615509565b604051610f2191906170ba565b60405180910390f35b610f446004803603810190610f3f91906188f9565b615538565b005b610f606004803603810190610f5b91906176b5565b615912565b005b610f6a615934565b604051610f779190617351565b60405180910390f35b610f9a6004803603810190610f959190618998565b615940565b604051610fa79190617351565b60405180910390f35b610fca6004803603810190610fc59190617470565b6159c7565b604051610fd9939291906189e7565b60405180910390f35b610fea615b1e565b604051610ff79190617351565b60405180910390f35b611008615b2b565b6040516110159190617351565b60405180910390f35b611026615b31565b6040516110339190617351565b60405180910390f35b61105660048036038101906110519190617470565b615b37565b60405161106391906170ba565b60405180910390f35b611086600480360381019061108191906179d3565b615d13565b60405161109391906170ba565b60405180910390f35b6110b660048036038101906110b19190617430565b615d46565b6040516110c391906170ba565b60405180910390f35b60007f7965db0b000000000000000000000000000000000000000000000000000000007bffffffffffffffffffffffffffffffffffffffffffffffffffffffff1916827bffffffffffffffffffffffffffffffffffffffffffffffffffffffff1916148061113f575061113e82615d75565b5b9050919050565b6060600060268054905067ffffffffffffffff811115611169576111686176fa565b5b6040519080825280602002602001820160405280156111a257816020015b61118f616bb6565b8152602001906001900390816111875790505b50905060005b602680549050811015611440576040518060c00160405280602683815481106111d4576111d3618a2c565b5b9060005260206000209060060201600001548152602001602683815481106111ff576111fe618a2c565b5b9060005260206000209060060201600101805461121b90618a8a565b80601f016020809104026020016040519081016040528092919081815260200182805461124790618a8a565b80156112945780601f1061126957610100808354040283529160200191611294565b820191906000526020600020905b81548152906001019060200180831161127757829003601f168201915b50505050508152602001602683815481106112b2576112b1618a2c565b5b906000526020600020906006020160020180546112ce90618a8a565b80601f01602080910402602001604051908101604052809291908181526020018280546112fa90618a8a565b80156113475780601f1061131c57610100808354040283529160200191611347565b820191906000526020600020905b81548152906001019060200180831161132a57829003601f168201915b505050505081526020016026838154811061136557611364618a2c565b5b906000526020600020906006020160030160009054906101000a900460ff16151581526020016026838154811061139f5761139e618a2c565b5b9060005260206000209060060201600401548152602001602683815481106113ca576113c9618a2c565b5b906000526020600020906006020160050160009054906101000a900473ffffffffffffffffffffffffffffffffffffffff1673ffffffffffffffffffffffffffffffffffffffff1681525082828151811061142857611427618a2c565b5b602002602001018190525080806001019150506111a8565b508091505090565b60145481565b60606003805461145d90618a8a565b80601f016020809104026020016040519081016040528092919081815260200182805461148990618a8a565b80156114d65780601f106114ab576101008083540402835291602001916114d6565b820191906000526020600020905b8154815290600101906020018083116114b957829003601f168201915b5050505050905090565b6000806114eb615ddf565b90506114f8818585615de7565b600191505092915050565b60246020528060005260406000206000915054906101000a900460ff1681565b6000600254905090565b6006818154811061153d57600080fd5b906000526020600020016000915054906101000a900473ffffffffffffffffffffffffffffffffffffffff1681565b6000611576615df9565b6025600083815260200190815260200160002060003373ffffffffffffffffffffffffffffffffffffffff1673ffffffffffffffffffffffffffffffffffffffff16815260200190815260200160002060009054906101000a900460ff16611613576040517f08c379a000000000000000000000000000000000000000000000000000000000815260040161160a90618b2d565b60405180910390fd5b60006025600084815260200190815260200160002060003373ffffffffffffffffffffffffffffffffffffffff1673ffffffffffffffffffffffffffffffffffffffff16815260200190815260200160002060006101000a81548160ff02191690831515021790555061168e33671bc16d674ec80000615e3f565b3373ffffffffffffffffffffffffffffffffffffffff16827f9b244c565b926d7f4e915b69f3a5c6afc2231322d0d44e821076ad8879d0d68360405160405180910390a3600190506116de615e66565b919050565b6000806116ee615ddf565b90506116fb858285615e70565b611706858585615f04565b60019150509392505050565b600060056000838152602001908152602001600020600101549050919050565b6064600f6b204fce5e3e2502611000000061174d9190618b7c565b6117579190618bed565b81565b606481565b602a818154811061176f57600080fd5b906000526020600020906004020160009150905080600001549080600101805461179890618a8a565b80601f01602080910402602001604051908101604052809291908181526020018280546117c490618a8a565b80156118115780601f106117e657610100808354040283529160200191611811565b820191906000526020600020905b8154815290600101906020018083116117f457829003601f168201915b5050505050908060030160009054906101000a900460ff16905083565b601960205280600052604060002060009150905080600001549080600101805461185790618a8a565b80601f016020809104026020016040519081016040528092919081815260200182805461188390618a8a565b80156118d05780601f106118a5576101008083540402835291602001916118d0565b820191906000526020600020905b8154815290600101906020018083116118b357829003601f168201915b5050505050908060020180546118e590618a8a565b80601f016020809104026020016040519081016040528092919081815260200182805461191190618a8a565b801561195e5780601f106119335761010080835404028352916020019161195e565b820191906000526020600020905b81548152906001019060200180831161194157829003601f168201915b5050505050908060030160009054906101000a900460ff16908060040154908060050160009054906101000a900473ffffffffffffffffffffffffffffffffffffffff16905086565b60155481565b602881815481106119bd57600080fd5b90600052602060002090602302016000915090508060000154908060010180546119e690618a8a565b80601f0160208091040260200160405190810160405280929190818152602001828054611a1290618a8a565b8015611a5f5780601f10611a3457610100808354040283529160200191611a5f565b820191906000526020600020905b815481529060010190602001808311611a4257829003601f168201915b505050505090806002018054611a7490618a8a565b80601f0160208091040260200160405190810160405280929190818152602001828054611aa090618a8a565b8015611aed5780601f10611ac257610100808354040283529160200191611aed565b820191906000526020600020905b815481529060010190602001808311611ad057829003601f168201915b5050505050908060210154908060220160009054906101000a900460ff16905085565b611b1982611712565b611b2281615ff8565b611b2c838361600c565b50505050565b60008073ffffffffffffffffffffffffffffffffffffffff166019600085815260200190815260200160002060050160009054906101000a900473ffffffffffffffffffffffffffffffffffffffff1673ffffffffffffffffffffffffffffffffffffffff1603611bd8576040517f08c379a0000000000000000000000000000000000000000000000000000000008152600401611bcf90618c6a565b60405180910390fd5b60005b8251811015611d8e57600060405180606001604052806014548152602001858481518110611c0c57611c0b618a2c565b5b602002602001015181526020016001151581525090506027819080600181540180825580915050600190039060005260206000209060030201600090919091909150600082015181600001556020820151816001019081611c6d9190618e36565b5060408201518160020160006101000a81548160ff021916908315150217905550505080601d60006014548152602001908152602001600020600082015181600001556020820151816001019081611cc59190618e36565b5060408201518160020160006101000a81548160ff021916908315150217905550905050601e6000868152602001908152602001600020819080600181540180825580915050600190039060005260206000209060030201600090919091909150600082015181600001556020820151816001019081611d459190618e36565b5060408201518160020160006101000a81548160ff021916908315150217905550505060146000815480929190611d7b90618f08565b9190505550508080600101915050611bdb565b508151837f1eb97e969f52c132bb6c79817d1f9001078fff0cd328ce625628e1fb4cc0e7de60405160405180910390a36001905092915050565b60006012905090565b6022602052806000526040600020600091509050806000015490806001018054611dfa90618a8a565b80601f0160208091040260200160405190810160405280929190818152602001828054611e2690618a8a565b8015611e735780601f10611e4857610100808354040283529160200191611e73565b820191906000526020600020905b815481529060010190602001808311611e5657829003601f168201915b5050505050905082565b6b204fce5e3e2502611000000081565b601b6020528060005260406000206000915090508060000154905081565b611eb3615ddf565b73ffffffffffffffffffffffffffffffffffffffff168173ffffffffffffffffffffffffffffffffffffffff1614611f17576040517f6697b23200000000000000000000000000000000000000000000000000000000815260040160405180910390fd5b611f2182826160fe565b505050565b7fadb22091b155738d2e889eb96f509d2a7c93234236b30400927feb4a6a15ab0081565b7fc10c77be35aff266144ed64c26a1fa104bae2f284ae99ac4a34203454704a18581565b60096020528060005260406000206000915090508060000154908060010160009054906101000a900473ffffffffffffffffffffffffffffffffffffffff16908060020160009054906101000a900473ffffffffffffffffffffffffffffffffffffffff1690806003018054611fe390618a8a565b80601f016020809104026020016040519081016040528092919081815260200182805461200f90618a8a565b801561205c5780601f106120315761010080835404028352916020019161205c565b820191906000526020600020905b81548152906001019060200180831161203f57829003601f168201915b5050505050908060040154908060050160009054906101000a900460ff16905086565b60606021600083815260200190815260200160002060030160009054906101000a900460ff166120e4576040517f08c379a00000000000000000000000000000000000000000000000000000000081526004016120db90618f9c565b60405180910390fd5b60216000838152602001908152602001600020600201805480602002602001604051908101604052809291908181526020016000905b828210156122f457838290600052602060002090600302016040518060600160405290816000820154815260200160018201805461215790618a8a565b80601f016020809104026020016040519081016040528092919081815260200182805461218390618a8a565b80156121d05780601f106121a5576101008083540402835291602001916121d0565b820191906000526020600020905b8154815290600101906020018083116121b357829003601f168201915b5050505050815260200160028201805480602002602001604051908101604052809291908181526020016000905b828210156122dd578382906000526020600020906002020160405180604001604052908160008201805461223190618a8a565b80601f016020809104026020016040519081016040528092919081815260200182805461225d90618a8a565b80156122aa5780601f1061227f576101008083540402835291602001916122aa565b820191906000526020600020905b81548152906001019060200180831161228d57829003601f168201915b505050505081526020016001820160009054906101000a900460ff161515151581525050815260200190600101906121fe565b50505050815250508152602001906001019061211a565b505050509050919050565b601e602052816000526040600020818154811061231b57600080fd5b90600052602060002090600302016000915091505080600001549080600101805461234590618a8a565b80601f016020809104026020016040519081016040528092919081815260200182805461237190618a8a565b80156123be5780601f10612393576101008083540402835291602001916123be565b820191906000526020600020905b8154815290600101906020018083116123a157829003601f168201915b5050505050908060020160009054906101000a900460ff16905083565b602b81815481106123eb57600080fd5b906000526020600020906003020160009150905080600001549080600101805461241490618a8a565b80601f016020809104026020016040519081016040528092919081815260200182805461244090618a8a565b801561248d5780601f106124625761010080835404028352916020019161248d565b820191906000526020600020905b81548152906001019060200180831161247057829003601f168201915b5050505050905082565b7fdf1425bae297c2f52b4f15d18a50b1fc8cb5b981a981b1d213ed3ff92681b64d81565b7fc10c77be35aff266144ed64c26a1fa104bae2f284ae99ac4a34203454704a1856124e581615ff8565b6124ef8c336161f1565b61252e576040517f08c379a00000000000000000000000000000000000000000000000000000000081526004016125259061902e565b60405180910390fd5b601a60008d815260200190815260200160002060003373ffffffffffffffffffffffffffffffffffffffff1673ffffffffffffffffffffffffffffffffffffffff168152602001908152602001600020600a0160009054906101000a900460ff16156125cf576040517f08c379a00000000000000000000000000000000000000000000000000000000081526004016125c6906190c0565b60405180910390fd5b6125e18b8b8b8b8b8b8b8b8b8b6162bc565b6040518061016001604052808c81526020018b81526020018a815260200189815260200188815260200187815260200186815260200185815260200184815260200183815260200160011515815250601a60008e815260200190815260200160002060003373ffffffffffffffffffffffffffffffffffffffff1673ffffffffffffffffffffffffffffffffffffffff168152602001908152602001600020600082015181600001556020820151816001015560408201518160020155606082015181600301556080820151816004015560a0820151816005015560c0820151816006015560e082015181600701556101008201518160080155610120820151816009015561014082015181600a0160006101000a81548160ff0219169083151502179055509050506050612764601a60008f815260200190815260200160002060003373ffffffffffffffffffffffffffffffffffffffff1673ffffffffffffffffffffffffffffffffffffffff168152602001908152602001600020616381565b10612773576127728c613074565b5b505050505050505050505050565b600281565b6000806016549050601f600085815260200190815260200160002060220160009054906101000a900460ff166127f1576040517f08c379a00000000000000000000000000000000000000000000000000000000081526004016127e89061912c565b60405180910390fd5b6000602160008381526020019081526020016000209050818160000181905550838160010190816128229190618e36565b5060018160030160006101000a81548160ff0219169083151502179055506016600081548092919061285390618f08565b9190505550602a81908060018154018082558091505060019003906000526020600020906004020160009091909190915060008201548160000155600182018160010190816128a29190619162565b5060028201816002019080546128b9929190616c04565b506003820160009054906101000a900460ff168160030160006101000a81548160ff0219169083151502179055505050836040516128f79190619286565b6040518091039020827fbf27702cefbc4aea50d7c73cfee96f84f5b908f62aeafcd8b0aeae202c15050960405160405180910390a3819250505092915050565b60125481565b60606000601654905060008167ffffffffffffffff811115612962576129616176fa565b5b60405190808252806020026020018201604052801561299b57816020015b612988616c92565b8152602001906001900390816129805790505b50905060005b82811015612cb05760216000828152602001908152602001600020604051806080016040529081600082015481526020016001820180546129e190618a8a565b80601f0160208091040260200160405190810160405280929190818152602001828054612a0d90618a8a565b8015612a5a5780601f10612a2f57610100808354040283529160200191612a5a565b820191906000526020600020905b815481529060010190602001808311612a3d57829003601f168201915b5050505050815260200160028201805480602002602001604051908101604052809291908181526020016000905b82821015612c62578382906000526020600020906003020160405180606001604052908160008201548152602001600182018054612ac590618a8a565b80601f0160208091040260200160405190810160405280929190818152602001828054612af190618a8a565b8015612b3e5780601f10612b1357610100808354040283529160200191612b3e565b820191906000526020600020905b815481529060010190602001808311612b2157829003601f168201915b5050505050815260200160028201805480602002602001604051908101604052809291908181526020016000905b82821015612c4b5783829060005260206000209060020201604051806040016040529081600082018054612b9f90618a8a565b80601f0160208091040260200160405190810160405280929190818152602001828054612bcb90618a8a565b8015612c185780601f10612bed57610100808354040283529160200191612c18565b820191906000526020600020905b815481529060010190602001808311612bfb57829003601f168201915b505050505081526020016001820160009054906101000a900460ff16151515158152505081526020019060010190612b6c565b505050508152505081526020019060010190612a88565b5050505081526020016003820160009054906101000a900460ff161515151581525050828281518110612c9857612c97618a2c565b5b602002602001018190525080806001019150506129a1565b50809250505090565b60185481565b60268181548110612ccf57600080fd5b9060005260206000209060060201600091509050806000015490806001018054612cf890618a8a565b80601f0160208091040260200160405190810160405280929190818152602001828054612d2490618a8a565b8015612d715780601f10612d4657610100808354040283529160200191612d71565b820191906000526020600020905b815481529060010190602001808311612d5457829003601f168201915b505050505090806002018054612d8690618a8a565b80601f0160208091040260200160405190810160405280929190818152602001828054612db290618a8a565b8015612dff5780601f10612dd457610100808354040283529160200191612dff565b820191906000526020600020905b815481529060010190602001808311612de257829003601f168201915b5050505050908060030160009054906101000a900460ff16908060040154908060050160009054906101000a900473ffffffffffffffffffffffffffffffffffffffff16905086565b60008060008373ffffffffffffffffffffffffffffffffffffffff1673ffffffffffffffffffffffffffffffffffffffff168152602001908152602001600020549050919050565b7fc10c77be35aff266144ed64c26a1fa104bae2f284ae99ac4a34203454704a185612eba81615ff8565b600860008373ffffffffffffffffffffffffffffffffffffffff1673ffffffffffffffffffffffffffffffffffffffff16815260200190815260200160002060009054906101000a900460ff1615612f47576040517f08c379a0000000000000000000000000000000000000000000000000000000008152600401612f3e906192e9565b60405180910390fd5b612f717fc10c77be35aff266144ed64c26a1fa104bae2f284ae99ac4a34203454704a1858361600c565b506006829080600181540180825580915050600190039060005260206000200160009091909190916101000a81548173ffffffffffffffffffffffffffffffffffffffff021916908373ffffffffffffffffffffffffffffffffffffffff1602179055506001600860008473ffffffffffffffffffffffffffffffffffffffff1673ffffffffffffffffffffffffffffffffffffffff16815260200190815260200160002060006101000a81548160ff0219169083151502179055508173ffffffffffffffffffffffffffffffffffffffff167fe1cb5e1230cc02e62c60b81c1aa5ade512f3eac296edb28628b4cf344f47f93160405160405180910390a25050565b7fc10c77be35aff266144ed64c26a1fa104bae2f284ae99ac4a34203454704a18561309e81615ff8565b60006019600084815260200190815260200160002090508060030160009054906101000a900460ff1615613107576040517f08c379a00000000000000000000000000000000000000000000000000000000081526004016130fe90619355565b60405180910390fd5b601c60003373ffffffffffffffffffffffffffffffffffffffff1673ffffffffffffffffffffffffffffffffffffffff168152602001908152602001600020600084815260200190815260200160002060009054906101000a900460ff16156131a5576040517f08c379a000000000000000000000000000000000000000000000000000000000815260040161319c906193e7565b60405180910390fd5b6001601c60003373ffffffffffffffffffffffffffffffffffffffff1673ffffffffffffffffffffffffffffffffffffffff168152602001908152602001600020600085815260200190815260200160002060006101000a81548160ff02191690831515021790555080600401600081548092919061322390618f08565b919050555060028160040154106132895760018160030160006101000a81548160ff0219169083151502179055506132878160050160009054906101000a900473ffffffffffffffffffffffffffffffffffffffff16674563918244f40000616416565b505b505050565b60006015549050601d600085815260200190815260200160002060020160009054906101000a900460ff166132f8576040517f08c379a00000000000000000000000000000000000000000000000000000000081526004016132ef90619453565b60405180910390fd5b6000601f60008381526020019081526020016000209050818160000181905550838160010190816133299190618e36565b508281600201908161333b9190618e36565b5060018160220160006101000a81548160ff021916908315150217905550600081602101819055506028601f6000848152602001908152602001600020908060018154018082558091505060019003906000526020600020906023020160009091909190915060008201548160000155600182018160010190816133bf9190619162565b50600282018160020190816133d49190619162565b50600382018160030190600a6133eb929190616cbc565b50602182015481602101556022820160009054906101000a900460ff168160220160006101000a81548160ff02191690831515021790555050506015600081548092919061343890618f08565b9190505550600a8460405161344d9190619286565b6040518091039020837f3387c3a40ec1df95e34d25a0e5564b40d01c331b71ccbafccccc66d36c84ad8360405160405180910390a45050505050565b60135481565b671bc16d674ec8000081565b60216020528060005260406000206000915090508060000154908060010180546134c490618a8a565b80601f01602080910402602001604051908101604052809291908181526020018280546134f090618a8a565b801561353d5780601f106135125761010080835404028352916020019161353d565b820191906000526020600020905b81548152906001019060200180831161352057829003601f168201915b5050505050908060030160009054906101000a900460ff16905083565b7fc10c77be35aff266144ed64c26a1fa104bae2f284ae99ac4a34203454704a18561358481615ff8565b6024600083815260200190815260200160002060009054906101000a900460ff16156135e5576040517f08c379a00000000000000000000000000000000000000000000000000000000081526004016135dc906194bf565b60405180910390fd5b6003600680549050101561362e576040517f08c379a00000000000000000000000000000000000000000000000000000000081526004016136259061952b565b60405180910390fd5b60236000838152602001908152602001600020600061364d9190616d66565b60005b600381101561382a57600060068054905042446006805490508560405160200161367d949392919061956c565b6040516020818303038152906040528051906020012060001c6136a091906195ba565b90506000600682815481106136b8576136b7618a2c565b5b9060005260206000200160009054906101000a900473ffffffffffffffffffffffffffffffffffffffff1690506000805b602360008881526020019081526020016000208054905081101561379f578273ffffffffffffffffffffffffffffffffffffffff1660236000898152602001908152602001600020828154811061374357613742618a2c565b5b9060005260206000200160009054906101000a900473ffffffffffffffffffffffffffffffffffffffff1673ffffffffffffffffffffffffffffffffffffffff1603613792576001915061379f565b80806001019150506136e9565b508061381a5760236000878152602001908152602001600020829080600181540180825580915050600190039060005260206000200160009091909190916101000a81548173ffffffffffffffffffffffffffffffffffffffff021916908373ffffffffffffffffffffffffffffffffffffffff1602179055505b5050508080600101915050613650565b5060036023600084815260200190815260200160002080549050036138765760016024600084815260200190815260200160002060006101000a81548160ff0219169083151502179055505b817fe205dff861c570b8df17e26f893778853f94bb25d2de318755e48eab0b403ff7602360008581526020019081526020016000206040516138b891906196d7565b60405180910390a25050565b60006005600084815260200190815260200160002060000160008373ffffffffffffffffffffffffffffffffffffffff1673ffffffffffffffffffffffffffffffffffffffff16815260200190815260200160002060009054906101000a900460ff16905092915050565b60606004805461393e90618a8a565b80601f016020809104026020016040519081016040528092919081815260200182805461396a90618a8a565b80156139b75780601f1061398c576101008083540402835291602001916139b7565b820191906000526020600020905b81548152906001019060200180831161399a57829003601f168201915b5050505050905090565b60115481565b602360205281600052604060002081815481106139e357600080fd5b906000526020600020016000915091509054906101000a900473ffffffffffffffffffffffffffffffffffffffff1681565b6000801b81565b60008073ffffffffffffffffffffffffffffffffffffffff1660196000601354815260200190815260200160002060050160009054906101000a900473ffffffffffffffffffffffffffffffffffffffff1673ffffffffffffffffffffffffffffffffffffffff1614613ac4576040517f08c379a0000000000000000000000000000000000000000000000000000000008152600401613abb90619745565b60405180910390fd5b60006040518060c001604052806013548152602001858152602001848152602001600015158152602001600081526020013373ffffffffffffffffffffffffffffffffffffffff16815250905080601960006013548152602001908152602001600020600082015181600001556020820151816001019081613b469190618e36565b506040820151816002019081613b5c9190618e36565b5060608201518160030160006101000a81548160ff0219169083151502179055506080820151816004015560a08201518160050160006101000a81548173ffffffffffffffffffffffffffffffffffffffff021916908373ffffffffffffffffffffffffffffffffffffffff1602179055509050506026819080600181540180825580915050600190039060005260206000209060060201600090919091909150600082015181600001556020820151816001019081613c1c9190618e36565b506040820151816002019081613c329190618e36565b5060608201518160030160006101000a81548160ff0219169083151502179055506080820151816004015560a08201518160050160006101000a81548173ffffffffffffffffffffffffffffffffffffffff021916908373ffffffffffffffffffffffffffffffffffffffff160217905550505060126000815480929190613cb990618f08565b91905055506001601b60003373ffffffffffffffffffffffffffffffffffffffff1673ffffffffffffffffffffffffffffffffffffffff1681526020019081526020016000206000016000828254613d119190619765565b9250508190555060136000815480929190613d2b90618f08565b9190505550613d5a7fadb22091b155738d2e889eb96f509d2a7c93234236b30400927feb4a6a15ab003361600c565b5083604051613d699190619286565b60405180910390206001601354613d809190619799565b7f9c93a42b217373d37e6c66ace0a67fe1fa1f78c93164b62417de69c48c0f67e2601960006001601354613db49190619799565b815260200190815260200160002060030160009054906101000a900460ff16604051613de091906170ba565b60405180910390a3600191505092915050565b60606000602880549050905060008167ffffffffffffffff811115613e1b57613e1a6176fa565b5b604051908082528060200260200182016040528015613e5457816020015b613e41616d87565b815260200190600190039081613e395790505b50905060005b828110156141b85760288181548110613e7657613e75618a2c565b5b90600052602060002090602302016040518060c001604052908160008201548152602001600182018054613ea990618a8a565b80601f0160208091040260200160405190810160405280929190818152602001828054613ed590618a8a565b8015613f225780601f10613ef757610100808354040283529160200191613f22565b820191906000526020600020905b815481529060010190602001808311613f0557829003601f168201915b50505050508152602001600282018054613f3b90618a8a565b80601f0160208091040260200160405190810160405280929190818152602001828054613f6790618a8a565b8015613fb45780601f10613f8957610100808354040283529160200191613fb4565b820191906000526020600020905b815481529060010190602001808311613f9757829003601f168201915b5050505050815260200160038201600a80602002604051908101604052809291906000905b82821015614160578382600302016040518060600160405290816000820160009054906101000a900460ff166002811115614017576140166181aa565b5b6002811115614029576140286181aa565b5b815260200160018201805461403d90618a8a565b80601f016020809104026020016040519081016040528092919081815260200182805461406990618a8a565b80156140b65780601f1061408b576101008083540402835291602001916140b6565b820191906000526020600020905b81548152906001019060200180831161409957829003601f168201915b505050505081526020016002820180546140cf90618a8a565b80601f01602080910402602001604051908101604052809291908181526020018280546140fb90618a8a565b80156141485780601f1061411d57610100808354040283529160200191614148565b820191906000526020600020905b81548152906001019060200180831161412b57829003601f168201915b50505050508152505081526020019060010190613fd9565b505050508152602001602182015481526020016022820160009054906101000a900460ff1615151515815250508282815181106141a05761419f618a2c565b5b60200260200101819052508080600101915050613e5a565b50809250505090565b601d6020528060005260406000206000915090508060000154908060010180546141ea90618a8a565b80601f016020809104026020016040519081016040528092919081815260200182805461421690618a8a565b80156142635780601f1061423857610100808354040283529160200191614263565b820191906000526020600020905b81548152906001019060200180831161424657829003601f168201915b5050505050908060020160009054906101000a900460ff16905083565b614288616c92565b6021600083815260200190815260200160002060030160009054906101000a900460ff166142eb576040517f08c379a00000000000000000000000000000000000000000000000000000000081526004016142e290618f9c565b60405180910390fd5b602160008381526020019081526020016000206040518060800160405290816000820154815260200160018201805461432390618a8a565b80601f016020809104026020016040519081016040528092919081815260200182805461434f90618a8a565b801561439c5780601f106143715761010080835404028352916020019161439c565b820191906000526020600020905b81548152906001019060200180831161437f57829003601f168201915b5050505050815260200160028201805480602002602001604051908101604052809291908181526020016000905b828210156145a457838290600052602060002090600302016040518060600160405290816000820154815260200160018201805461440790618a8a565b80601f016020809104026020016040519081016040528092919081815260200182805461443390618a8a565b80156144805780601f1061445557610100808354040283529160200191614480565b820191906000526020600020905b81548152906001019060200180831161446357829003601f168201915b5050505050815260200160028201805480602002602001604051908101604052809291908181526020016000905b8282101561458d57838290600052602060002090600202016040518060400160405290816000820180546144e190618a8a565b80601f016020809104026020016040519081016040528092919081815260200182805461450d90618a8a565b801561455a5780601f1061452f5761010080835404028352916020019161455a565b820191906000526020600020905b81548152906001019060200180831161453d57829003601f168201915b505050505081526020016001820160009054906101000a900460ff161515151581525050815260200190600101906144ae565b5050505081525050815260200190600101906143ca565b5050505081526020016003820160009054906101000a900460ff1615151515815250509050919050565b6000806145d9615ddf565b90506145e6818585615f04565b600191505092915050565b60208052816000526040600020818154811061460c57600080fd5b9060005260206000200160009150915050805461462890618a8a565b80601f016020809104026020016040519081016040528092919081815260200182805461465490618a8a565b80156146a15780601f10614676576101008083540402835291602001916146a1565b820191906000526020600020905b81548152906001019060200180831161468457829003601f168201915b505050505081565b6060601e6000838152602001908152602001600020805480602002602001604051908101604052809291908181526020016000905b828210156147c757838290600052602060002090600302016040518060600160405290816000820154815260200160018201805461471b90618a8a565b80601f016020809104026020016040519081016040528092919081815260200182805461474790618a8a565b80156147945780601f1061476957610100808354040283529160200191614794565b820191906000526020600020905b81548152906001019060200180831161477757829003601f168201915b505050505081526020016002820160009054906101000a900460ff161515151581525050815260200190600101906146de565b505050509050919050565b605081565b7fadb22091b155738d2e889eb96f509d2a7c93234236b30400927feb4a6a15ab0061480181615ff8565b6000601f600087815260200190815260200160002090508060220160009054906101000a900460ff16614869576040517f08c379a000000000000000000000000000000000000000000000000000000000815260040161486090619819565b60405180910390fd5b600081602101549050600a85859050826148839190619765565b11156148c4576040517f08c379a00000000000000000000000000000000000000000000000000000000081526004016148bb90619885565b60405180910390fd5b60005b85859050811015614ab55760405180606001604052808787848181106148f0576148ef618a2c565b5b905060200281019061490291906198b4565b600001602081019061491491906198dc565b6002811115614926576149256181aa565b5b815260200187878481811061493e5761493d618a2c565b5b905060200281019061495091906198b4565b806020019061495f9190619909565b8080601f016020809104026020016040519081016040528093929190818152602001838380828437600081840152601f19601f8201169050808301925050505050505081526020018787848181106149ba576149b9618a2c565b5b90506020028101906149cc91906198b4565b80604001906149db9190619909565b8080601f016020809104026020016040519081016040528093929190818152602001838380828437600081840152601f19601f820116905080830192505050505050508152508360030183600a8110614a3757614a36618a2c565b5b6003020160008201518160000160006101000a81548160ff02191690836002811115614a6657614a656181aa565b5b02179055506020820151816001019081614a809190618e36565b506040820151816002019081614a969190618e36565b509050508180614aa590618f08565b92505080806001019150506148c7565b5080826021018190555060005b602880549050811015614bb5578760288281548110614ae457614ae3618a2c565b5b90600052602060002090602302016000015403614ba8578260288281548110614b1057614b0f618a2c565b5b90600052602060002090602302016000820154816000015560018201816001019081614b3c9190619162565b5060028201816002019081614b519190619162565b50600382018160030190600a614b68929190616cbc565b50602182015481602101556022820160009054906101000a900460ff168160220160006101000a81548160ff021916908315150217905550905050614bb5565b8080600101915050614ac2565b5050505050505050565b7fdf1425bae297c2f52b4f15d18a50b1fc8cb5b981a981b1d213ed3ff92681b64d614be981615ff8565b60006009600084815260200190815260200160002090508060050160009054906101000a900460ff1615614c52576040517f08c379a0000000000000000000000000000000000000000000000000000000008152600401614c49906199b8565b60405180910390fd5b8060060160003373ffffffffffffffffffffffffffffffffffffffff1673ffffffffffffffffffffffffffffffffffffffff16815260200190815260200160002060009054906101000a900460ff1615614ce1576040517f08c379a0000000000000000000000000000000000000000000000000000000008152600401614cd890619a24565b60405180910390fd5b60018160060160003373ffffffffffffffffffffffffffffffffffffffff1673ffffffffffffffffffffffffffffffffffffffff16815260200190815260200160002060006101000a81548160ff021916908315150217905550806004016000815480929190614d5090618f08565b9190505550827f5d4ccf5f92566d140246f4ae3b9cb35dc06fff109a7748602ad77f6260fd9a6133604051614d8591906174ac565b60405180910390a26003816004015410614eb95760008160020160009054906101000a900473ffffffffffffffffffffffffffffffffffffffff1673ffffffffffffffffffffffffffffffffffffffff1682600301604051614de79190619ae7565b6000604051808303816000865af19150503d8060008114614e24576040519150601f19603f3d011682016040523d82523d6000602084013e614e29565b606091505b5050905080614e6d576040517f08c379a0000000000000000000000000000000000000000000000000000000008152600401614e6490619b4a565b60405180910390fd5b60018260050160006101000a81548160ff021916908315150217905550837f7770356c29230b95943aec59d47ead11eb426a728bf5b57f7fd8597f3c0e29ba60405160405180910390a2505b505050565b601f602052806000526040600020600091509050806000015490806001018054614ee790618a8a565b80601f0160208091040260200160405190810160405280929190818152602001828054614f1390618a8a565b8015614f605780601f10614f3557610100808354040283529160200191614f60565b820191906000526020600020905b815481529060010190602001808311614f4357829003601f168201915b505050505090806002018054614f7590618a8a565b80601f0160208091040260200160405190810160405280929190818152602001828054614fa190618a8a565b8015614fee5780601f10614fc357610100808354040283529160200191614fee565b820191906000526020600020905b815481529060010190602001808311614fd157829003601f168201915b5050505050908060210154908060220160009054906101000a900460ff16905085565b601a6020528160005260406000206020528060005260406000206000915091505080600001549080600101549080600201549080600301549080600401549080600501549080600601549080600701549080600801549080600901549080600a0160009054906101000a900460ff1690508b565b60606023600083815260200190815260200160002080548060200260200160405190810160405280929190818152602001828054801561511a57602002820191906000526020600020905b8160009054906101000a900473ffffffffffffffffffffffffffffffffffffffff1673ffffffffffffffffffffffffffffffffffffffff16815260200190600101908083116150d0575b50505050509050919050565b60086020528060005260406000206000915054906101000a900460ff1681565b6000601154905090565b6027818154811061516057600080fd5b906000526020600020906003020160009150905080600001549080600101805461518990618a8a565b80601f01602080910402602001604051908101604052809291908181526020018280546151b590618a8a565b80156152025780601f106151d757610100808354040283529160200191615202565b820191906000526020600020905b8154815290600101906020018083116151e557829003601f168201915b5050505050908060020160009054906101000a900460ff16905083565b6000801b61522c81615ff8565b600860008373ffffffffffffffffffffffffffffffffffffffff1673ffffffffffffffffffffffffffffffffffffffff16815260200190815260200160002060009054906101000a900460ff166152b8576040517f08c379a00000000000000000000000000000000000000000000000000000000081526004016152af90619bb6565b60405180910390fd5b60005b60068054905081101561543e578273ffffffffffffffffffffffffffffffffffffffff16600682815481106152f3576152f2618a2c565b5b9060005260206000200160009054906101000a900473ffffffffffffffffffffffffffffffffffffffff1673ffffffffffffffffffffffffffffffffffffffff1603615431576006600160068054905061534d9190619799565b8154811061535e5761535d618a2c565b5b9060005260206000200160009054906101000a900473ffffffffffffffffffffffffffffffffffffffff166006828154811061539d5761539c618a2c565b5b9060005260206000200160006101000a81548173ffffffffffffffffffffffffffffffffffffffff021916908373ffffffffffffffffffffffffffffffffffffffff16021790555060068054806153f7576153f6619bd6565b5b6001900381819060005260206000200160006101000a81549073ffffffffffffffffffffffffffffffffffffffff0219169055905561543e565b80806001019150506152bb565b506000600860008473ffffffffffffffffffffffffffffffffffffffff1673ffffffffffffffffffffffffffffffffffffffff16815260200190815260200160002060006101000a81548160ff0219169083151502179055506154c17fc10c77be35aff266144ed64c26a1fa104bae2f284ae99ac4a34203454704a185836160fe565b508173ffffffffffffffffffffffffffffffffffffffff167f55dba9d79522b91b615629d5f3b10c2fad2d258f1768614f4a52e937ada0d0ba60405160405180910390a25050565b60256020528160005260406000206020528060005260406000206000915091509054906101000a900460ff1681565b6021600085815260200190815260200160002060030160009054906101000a900460ff1661559b576040517f08c379a000000000000000000000000000000000000000000000000000000000815260040161559290618f9c565b60405180910390fd5b600082511180156155ae57506004825111155b6155ed576040517f08c379a00000000000000000000000000000000000000000000000000000000081526004016155e490619c51565b60405180910390fd5b81518160ff1610615633576040517f08c379a000000000000000000000000000000000000000000000000000000000815260040161562a90619cbd565b60405180910390fd5b6000601754905060006022600083815260200190815260200160002090508181600001819055508481600101908161566b9190618e36565b5060005b84518160ff1610156157355760006040518060400160405280878460ff168151811061569e5761569d618a2c565b5b602002602001015181526020018660ff168460ff1614151581525090508260020181908060018154018082558091505060019003906000526020600020906002020160009091909190915060008201518160000190816156fe9190618e36565b5060208201518160010160006101000a81548160ff021916908315150217905550505050808061572d90619cdd565b91505061566f565b506021600087815260200190815260200160002060020181908060018154018082558091505060019003906000526020600020906003020160009091909190915060008201548160000155600182018160010190816157949190619162565b5060028201816002019080546157ab929190616dc5565b505050601760008154809291906157c190618f08565b9190505550602b81908060018154018082558091505060019003906000526020600020906003020160009091909190915060008201548160000155600182018160010190816158109190619162565b506002820181600201908054615827929190616dc5565b5050507fa5bdacf4d1324fdd584bc65cf0315e4975d00b33a7ca0e6d0a73c88df8430b9586838760405161585d93929190619d06565b60405180910390a160005b84518160ff1610156158ef577f06ef0ba2ad58c9f8eef2fc98c08fd18d801c4a971eeb45afd07f0fee3f9d60c4838260ff166018546158a79190619765565b878460ff16815181106158bd576158bc618a2c565b5b60200260200101516040516158d493929190619d06565b60405180910390a180806158e790619cdd565b915050615868565b508351601860008282546159039190619765565b92505081905550505050505050565b61591b82611712565b61592481615ff8565b61592e83836160fe565b50505050565b674563918244f4000081565b6000600160008473ffffffffffffffffffffffffffffffffffffffff1673ffffffffffffffffffffffffffffffffffffffff16815260200190815260200160002060008373ffffffffffffffffffffffffffffffffffffffff1673ffffffffffffffffffffffffffffffffffffffff16815260200190815260200160002054905092915050565b602981815481106159d757600080fd5b90600052602060002090600302016000915090508060000160009054906101000a900460ff1690806001018054615a0d90618a8a565b80601f0160208091040260200160405190810160405280929190818152602001828054615a3990618a8a565b8015615a865780601f10615a5b57610100808354040283529160200191615a86565b820191906000526020600020905b815481529060010190602001808311615a6957829003601f168201915b505050505090806002018054615a9b90618a8a565b80601f0160208091040260200160405190810160405280929190818152602001828054615ac790618a8a565b8015615b145780601f10615ae957610100808354040283529160200191615b14565b820191906000526020600020905b815481529060010190602001808311615af757829003601f168201915b5050505050905083565b6000600b60000154905090565b60165481565b60175481565b6000615b41615df9565b6019600083815260200190815260200160002060030160009054906101000a900460ff16615ba4576040517f08c379a0000000000000000000000000000000000000000000000000000000008152600401615b9b90619d90565b60405180910390fd5b6025600083815260200190815260200160002060003373ffffffffffffffffffffffffffffffffffffffff1673ffffffffffffffffffffffffffffffffffffffff16815260200190815260200160002060009054906101000a900460ff1615615c42576040517f08c379a0000000000000000000000000000000000000000000000000000000008152600401615c3990619e22565b60405180910390fd5b60016025600084815260200190815260200160002060003373ffffffffffffffffffffffffffffffffffffffff1673ffffffffffffffffffffffffffffffffffffffff16815260200190815260200160002060006101000a81548160ff021916908315150217905550615cbd33671bc16d674ec80000616416565b503373ffffffffffffffffffffffffffffffffffffffff16827f4bf249f6b0ca5630ea4816c04b928b864a2065cb51658fd6223d83b727fd326b60405160405180910390a360019050615d0e615e66565b919050565b6000615d3f7fc10c77be35aff266144ed64c26a1fa104bae2f284ae99ac4a34203454704a185836138c4565b9050919050565b601c6020528160005260406000206020528060005260406000206000915091509054906101000a900460ff1681565b60007f01ffc9a7000000000000000000000000000000000000000000000000000000007bffffffffffffffffffffffffffffffffffffffffffffffffffffffff1916827bffffffffffffffffffffffffffffffffffffffffffffffffffffffff1916149050919050565b600033905090565b615df48383836001616503565b505050565b6002600a5403615e35576040517f3ee5aeb500000000000000000000000000000000000000000000000000000000815260040160405180910390fd5b6002600a81905550565b615e4982826166da565b8060116000828254615e5b9190619799565b925050819055505050565b6001600a81905550565b6000615e7c8484615940565b90507fffffffffffffffffffffffffffffffffffffffffffffffffffffffffffffffff8114615efe5781811015615eee578281836040517ffb8f41b2000000000000000000000000000000000000000000000000000000008152600401615ee593929190619e42565b60405180910390fd5b615efd84848484036000616503565b5b50505050565b600073ffffffffffffffffffffffffffffffffffffffff168373ffffffffffffffffffffffffffffffffffffffff1603615f765760006040517f96c6fd1e000000000000000000000000000000000000000000000000000000008152600401615f6d91906174ac565b60405180910390fd5b600073ffffffffffffffffffffffffffffffffffffffff168273ffffffffffffffffffffffffffffffffffffffff1603615fe85760006040517fec442f05000000000000000000000000000000000000000000000000000000008152600401615fdf91906174ac565b60405180910390fd5b615ff3838383616781565b505050565b61600981616004615ddf565b6169a6565b50565b600061601883836138c4565b6160f35760016005600085815260200190815260200160002060000160008473ffffffffffffffffffffffffffffffffffffffff1673ffffffffffffffffffffffffffffffffffffffff16815260200190815260200160002060006101000a81548160ff021916908315150217905550616090615ddf565b73ffffffffffffffffffffffffffffffffffffffff168273ffffffffffffffffffffffffffffffffffffffff16847f2f8788117e7eff1d82e926ec794901d17c78024a50270940304540a733656f0d60405160405180910390a4600190506160f8565b600090505b92915050565b600061610a83836138c4565b156161e65760006005600085815260200190815260200160002060000160008473ffffffffffffffffffffffffffffffffffffffff1673ffffffffffffffffffffffffffffffffffffffff16815260200190815260200160002060006101000a81548160ff021916908315150217905550616183615ddf565b73ffffffffffffffffffffffffffffffffffffffff168273ffffffffffffffffffffffffffffffffffffffff16847ff6391f5c32d9c69d2a47ea670b442974b53935d1edc7fd64eb21e047a839171b60405160405180910390a4600190506161eb565b600090505b92915050565b600080600090505b60236000858152602001908152602001600020805490508110156162b0578273ffffffffffffffffffffffffffffffffffffffff1660236000868152602001908152602001600020828154811061625357616252618a2c565b5b9060005260206000200160009054906101000a900473ffffffffffffffffffffffffffffffffffffffff1673ffffffffffffffffffffffffffffffffffffffff16036162a35760019150506162b6565b80806001019150506161f9565b50600090505b92915050565b600a8a111580156162ce5750600a8911155b80156162db5750600a8811155b80156162e85750600a8711155b80156162f55750600a8611155b80156163025750600a8511155b801561630f5750600a8411155b801561631c5750600a8311155b80156163295750600a8211155b80156163365750600a8111155b616375576040517f08c379a000000000000000000000000000000000000000000000000000000000815260040161636c90619ec5565b60405180910390fd5b50505050505050505050565b60008160090154826008015483600701548460060154856005015486600401548760030154886002015489600101548a600001546163bf9190619765565b6163c99190619765565b6163d39190619765565b6163dd9190619765565b6163e79190619765565b6163f19190619765565b6163fb9190619765565b6164059190619765565b61640f9190619765565b9050919050565b60006064600f6b204fce5e3e250261100000006164339190618b7c565b61643d9190618bed565b616445615146565b836164509190619765565b1115616491576040517f08c379a000000000000000000000000000000000000000000000000000000000815260040161648890619f31565b60405180910390fd5b61649b83836169f7565b5081601160008282546164ae9190619765565b92505081905550818373ffffffffffffffffffffffffffffffffffffffff167fad6ef58d5c294f81258965738e7ae511124139834a8d0b8f8f7327086c82052a60405160405180910390a36001905092915050565b600073ffffffffffffffffffffffffffffffffffffffff168473ffffffffffffffffffffffffffffffffffffffff16036165755760006040517fe602df0500000000000000000000000000000000000000000000000000000000815260040161656c91906174ac565b60405180910390fd5b600073ffffffffffffffffffffffffffffffffffffffff168373ffffffffffffffffffffffffffffffffffffffff16036165e75760006040517f94280d620000000000000000000000000000000000000000000000000000000081526004016165de91906174ac565b60405180910390fd5b81600160008673ffffffffffffffffffffffffffffffffffffffff1673ffffffffffffffffffffffffffffffffffffffff16815260200190815260200160002060008573ffffffffffffffffffffffffffffffffffffffff1673ffffffffffffffffffffffffffffffffffffffff1681526020019081526020016000208190555080156166d4578273ffffffffffffffffffffffffffffffffffffffff168473ffffffffffffffffffffffffffffffffffffffff167f8c5be1e5ebec7d5bd14f71427d1e84f3dd0314c0f7b2291e5b200ac8c7c3b925846040516166cb9190617351565b60405180910390a35b50505050565b806166e483612e48565b1015616725576040517f08c379a000000000000000000000000000000000000000000000000000000000815260040161671c90619f9d565b60405180910390fd5b61672f8282616ab2565b8173ffffffffffffffffffffffffffffffffffffffff167f5b5d8478b570a79ab6b3bf13ff029fba19c02ab0d54d692d4ef0d9052d5cc850826040516167759190617351565b60405180910390a25050565b600073ffffffffffffffffffffffffffffffffffffffff168373ffffffffffffffffffffffffffffffffffffffff16036167d35780600260008282546167c79190619765565b925050819055506168a6565b60008060008573ffffffffffffffffffffffffffffffffffffffff1673ffffffffffffffffffffffffffffffffffffffff1681526020019081526020016000205490508181101561685f578381836040517fe450d38c00000000000000000000000000000000000000000000000000000000815260040161685693929190619e42565b60405180910390fd5b8181036000808673ffffffffffffffffffffffffffffffffffffffff1673ffffffffffffffffffffffffffffffffffffffff16815260200190815260200160002081905550505b600073ffffffffffffffffffffffffffffffffffffffff168273ffffffffffffffffffffffffffffffffffffffff16036168ef578060026000828254039250508190555061693c565b806000808473ffffffffffffffffffffffffffffffffffffffff1673ffffffffffffffffffffffffffffffffffffffff168152602001908152602001600020600082825401925050819055505b8173ffffffffffffffffffffffffffffffffffffffff168373ffffffffffffffffffffffffffffffffffffffff167fddf252ad1be2c89b69c2b068fc378daa952ba7f163c4a11628f55a4df523b3ef836040516169999190617351565b60405180910390a3505050565b6169b082826138c4565b6169f35780826040517fe2517d3f0000000000000000000000000000000000000000000000000000000081526004016169ea929190619fbd565b60405180910390fd5b5050565b60006b204fce5e3e25026110000000616a0e611523565b83616a199190619765565b1115616a5a576040517f08c379a0000000000000000000000000000000000000000000000000000000008152600401616a5190619f31565b60405180910390fd5b616a648383616b34565b818373ffffffffffffffffffffffffffffffffffffffff167fcda531bfd68624f13205c0a23cd4d5a7f09792cbb399603114f2b04aaa1bf5cf60405160405180910390a36001905092915050565b600073ffffffffffffffffffffffffffffffffffffffff168273ffffffffffffffffffffffffffffffffffffffff1603616b245760006040517f96c6fd1e000000000000000000000000000000000000000000000000000000008152600401616b1b91906174ac565b60405180910390fd5b616b3082600083616781565b5050565b600073ffffffffffffffffffffffffffffffffffffffff168273ffffffffffffffffffffffffffffffffffffffff1603616ba65760006040517fec442f05000000000000000000000000000000000000000000000000000000008152600401616b9d91906174ac565b60405180910390fd5b616bb260008383616781565b5050565b6040518060c0016040528060008152602001606081526020016060815260200160001515815260200160008152602001600073ffffffffffffffffffffffffffffffffffffffff1681525090565b828054828255906000526020600020906003028101928215616c815760005260206000209160030282015b82811115616c805782826000820154816000015560018201816001019081616c579190619162565b506002820181600201908054616c6e929190616dc5565b50505091600301919060030190616c2f565b5b509050616c8e9190616e5f565b5090565b60405180608001604052806000815260200160608152602001606081526020016000151581525090565b82600a6003028101928215616d55579160030282015b82811115616d545782826000820160009054906101000a900460ff168160000160006101000a81548160ff02191690836002811115616d1457616d136181aa565b5b021790555060018201816001019081616d2d9190619162565b5060028201816002019081616d429190619162565b50505091600301919060030190616cd2565b5b509050616d629190616e9e565b5090565b5080546000825590600052602060002090810190616d849190616ee9565b50565b6040518060c00160405280600081526020016060815260200160608152602001616daf616f06565b8152602001600081526020016000151581525090565b828054828255906000526020600020906002028101928215616e4e5760005260206000209160020282015b82811115616e4d57828260008201816000019081616e0e9190619162565b506001820160009054906101000a900460ff168160010160006101000a81548160ff021916908315150217905550505091600201919060020190616df0565b5b509050616e5b9190616f34565b5090565b5b80821115616e9a57600080820160009055600182016000616e819190616f6f565b600282016000616e919190616faf565b50600301616e60565b5090565b5b80821115616ee557600080820160006101000a81549060ff0219169055600182016000616ecc9190616f6f565b600282016000616edc9190616f6f565b50600301616e9f565b5090565b5b80821115616f02576000816000905550600101616eea565b5090565b604051806101400160405280600a905b616f1e616fd3565b815260200190600190039081616f165790505090565b5b80821115616f6b5760008082016000616f4e9190616f6f565b6001820160006101000a81549060ff021916905550600201616f35565b5090565b508054616f7b90618a8a565b6000825580601f10616f8d5750616fac565b601f016020900490600052602060002090810190616fab9190616ee9565b5b50565b5080546000825560020290600052602060002090810190616fd09190616f34565b50565b604051806060016040528060006002811115616ff257616ff16181aa565b5b815260200160608152602001606081525090565b6000604051905090565b600080fd5b600080fd5b60007fffffffff0000000000000000000000000000000000000000000000000000000082169050919050565b61704f8161701a565b811461705a57600080fd5b50565b60008135905061706c81617046565b92915050565b60006020828403121561708857617087617010565b5b60006170968482850161705d565b91505092915050565b60008115159050919050565b6170b48161709f565b82525050565b60006020820190506170cf60008301846170ab565b92915050565b600081519050919050565b600082825260208201905092915050565b6000819050602082019050919050565b6000819050919050565b61711481617101565b82525050565b600081519050919050565b600082825260208201905092915050565b60005b83811015617154578082015181840152602081019050617139565b60008484015250505050565b6000601f19601f8301169050919050565b600061717c8261711a565b6171868185617125565b9350617196818560208601617136565b61719f81617160565b840191505092915050565b6171b38161709f565b82525050565b600073ffffffffffffffffffffffffffffffffffffffff82169050919050565b60006171e4826171b9565b9050919050565b6171f4816171d9565b82525050565b600060c083016000830151617212600086018261710b565b506020830151848203602086015261722a8282617171565b915050604083015184820360408601526172448282617171565b915050606083015161725960608601826171aa565b50608083015161726c608086018261710b565b5060a083015161727f60a08601826171eb565b508091505092915050565b600061729683836171fa565b905092915050565b6000602082019050919050565b60006172b6826170d5565b6172c081856170e0565b9350836020820285016172d2856170f1565b8060005b8581101561730e57848403895281516172ef858261728a565b94506172fa8361729e565b925060208a019950506001810190506172d6565b50829750879550505050505092915050565b6000602082019050818103600083015261733a81846172ab565b905092915050565b61734b81617101565b82525050565b60006020820190506173666000830184617342565b92915050565b600082825260208201905092915050565b60006173888261711a565b617392818561736c565b93506173a2818560208601617136565b6173ab81617160565b840191505092915050565b600060208201905081810360008301526173d0818461737d565b905092915050565b6173e1816171d9565b81146173ec57600080fd5b50565b6000813590506173fe816173d8565b92915050565b61740d81617101565b811461741857600080fd5b50565b60008135905061742a81617404565b92915050565b6000806040838503121561744757617446617010565b5b6000617455858286016173ef565b92505060206174668582860161741b565b9150509250929050565b60006020828403121561748657617485617010565b5b60006174948482850161741b565b91505092915050565b6174a6816171d9565b82525050565b60006020820190506174c1600083018461749d565b92915050565b6000806000606084860312156174e0576174df617010565b5b60006174ee868287016173ef565b93505060206174ff868287016173ef565b92505060406175108682870161741b565b9150509250925092565b6000819050919050565b61752d8161751a565b811461753857600080fd5b50565b60008135905061754a81617524565b92915050565b60006020828403121561756657617565617010565b5b60006175748482850161753b565b91505092915050565b6175868161751a565b82525050565b60006020820190506175a1600083018461757d565b92915050565b60006060820190506175bc6000830186617342565b81810360208301526175ce818561737d565b90506175dd60408301846170ab565b949350505050565b600060c0820190506175fa6000830189617342565b818103602083015261760c818861737d565b90508181036040830152617620818761737d565b905061762f60608301866170ab565b61763c6080830185617342565b61764960a083018461749d565b979650505050505050565b600060a0820190506176696000830188617342565b818103602083015261767b818761737d565b9050818103604083015261768f818661737d565b905061769e6060830185617342565b6176ab60808301846170ab565b9695505050505050565b600080604083850312156176cc576176cb617010565b5b60006176da8582860161753b565b92505060206176eb858286016173ef565b9150509250929050565b600080fd5b7f4e487b7100000000000000000000000000000000000000000000000000000000600052604160045260246000fd5b61773282617160565b810181811067ffffffffffffffff82111715617751576177506176fa565b5b80604052505050565b6000617764617006565b90506177708282617729565b919050565b600067ffffffffffffffff8211156177905761778f6176fa565b5b602082029050602081019050919050565b600080fd5b600080fd5b600067ffffffffffffffff8211156177c6576177c56176fa565b5b6177cf82617160565b9050602081019050919050565b82818337600083830152505050565b60006177fe6177f9846177ab565b61775a565b90508281526020810184848401111561781a576178196177a6565b5b6178258482856177dc565b509392505050565b600082601f830112617842576178416176f5565b5b81356178528482602086016177eb565b91505092915050565b600061786e61786984617775565b61775a565b90508083825260208201905060208402830185811115617891576178906177a1565b5b835b818110156178d857803567ffffffffffffffff8111156178b6576178b56176f5565b5b8086016178c3898261782d565b85526020850194505050602081019050617893565b5050509392505050565b600082601f8301126178f7576178f66176f5565b5b813561790784826020860161785b565b91505092915050565b6000806040838503121561792757617926617010565b5b60006179358582860161741b565b925050602083013567ffffffffffffffff81111561795657617955617015565b5b617962858286016178e2565b9150509250929050565b600060ff82169050919050565b6179828161796c565b82525050565b600060208201905061799d6000830184617979565b92915050565b60006040820190506179b86000830185617342565b81810360208301526179ca818461737d565b90509392505050565b6000602082840312156179e9576179e8617010565b5b60006179f7848285016173ef565b91505092915050565b600081519050919050565b600082825260208201905092915050565b6000617a2782617a00565b617a318185617a0b565b9350617a41818560208601617136565b617a4a81617160565b840191505092915050565b600060c082019050617a6a6000830189617342565b617a77602083018861749d565b617a84604083018761749d565b8181036060830152617a968186617a1c565b9050617aa56080830185617342565b617ab260a08301846170ab565b979650505050505050565b600081519050919050565b600082825260208201905092915050565b6000819050602082019050919050565b600081519050919050565b600082825260208201905092915050565b6000819050602082019050919050565b60006040830160008301518482036000860152617b328282617171565b9150506020830151617b4760208601826171aa565b508091505092915050565b6000617b5e8383617b15565b905092915050565b6000602082019050919050565b6000617b7e82617ae9565b617b888185617af4565b935083602082028501617b9a85617b05565b8060005b85811015617bd65784840389528151617bb78582617b52565b9450617bc283617b66565b925060208a01995050600181019050617b9e565b50829750879550505050505092915050565b6000606083016000830151617c00600086018261710b565b5060208301518482036020860152617c188282617171565b91505060408301518482036040860152617c328282617b73565b9150508091505092915050565b6000617c4b8383617be8565b905092915050565b6000602082019050919050565b6000617c6b82617abd565b617c758185617ac8565b935083602082028501617c8785617ad9565b8060005b85811015617cc35784840389528151617ca48582617c3f565b9450617caf83617c53565b925060208a01995050600181019050617c8b565b50829750879550505050505092915050565b60006020820190508181036000830152617cef8184617c60565b905092915050565b60008060408385031215617d0e57617d0d617010565b5b6000617d1c8582860161741b565b9250506020617d2d8582860161741b565b9150509250929050565b60008060008060008060008060008060006101608c8e031215617d5d57617d5c617010565b5b6000617d6b8e828f0161741b565b9b50506020617d7c8e828f0161741b565b9a50506040617d8d8e828f0161741b565b9950506060617d9e8e828f0161741b565b9850506080617daf8e828f0161741b565b97505060a0617dc08e828f0161741b565b96505060c0617dd18e828f0161741b565b95505060e0617de28e828f0161741b565b945050610100617df48e828f0161741b565b935050610120617e068e828f0161741b565b925050610140617e188e828f0161741b565b9150509295989b509295989b9093969950565b60008060408385031215617e4257617e41617010565b5b6000617e508582860161741b565b925050602083013567ffffffffffffffff811115617e7157617e70617015565b5b617e7d8582860161782d565b9150509250929050565b600081519050919050565b600082825260208201905092915050565b6000819050602082019050919050565b600082825260208201905092915050565b6000617ecf82617abd565b617ed98185617eb3565b935083602082028501617eeb85617ad9565b8060005b85811015617f275784840389528151617f088582617c3f565b9450617f1383617c53565b925060208a01995050600181019050617eef565b50829750879550505050505092915050565b6000608083016000830151617f51600086018261710b565b5060208301518482036020860152617f698282617171565b91505060408301518482036040860152617f838282617ec4565b9150506060830151617f9860608601826171aa565b508091505092915050565b6000617faf8383617f39565b905092915050565b6000602082019050919050565b6000617fcf82617e87565b617fd98185617e92565b935083602082028501617feb85617ea3565b8060005b8581101561802757848403895281516180088582617fa3565b945061801383617fb7565b925060208a01995050600181019050617fef565b50829750879550505050505092915050565b600060208201905081810360008301526180538184617fc4565b905092915050565b60008060006060848603121561807457618073617010565b5b60006180828682870161741b565b935050602084013567ffffffffffffffff8111156180a3576180a2617015565b5b6180af8682870161782d565b925050604084013567ffffffffffffffff8111156180d0576180cf617015565b5b6180dc8682870161782d565b9150509250925092565b600080604083850312156180fd576180fc617010565b5b600083013567ffffffffffffffff81111561811b5761811a617015565b5b6181278582860161782d565b925050602083013567ffffffffffffffff81111561814857618147617015565b5b6181548582860161782d565b9150509250929050565b600081519050919050565b600082825260208201905092915050565b6000819050602082019050919050565b6000600a9050919050565b600081905092915050565b6000819050919050565b7f4e487b7100000000000000000000000000000000000000000000000000000000600052602160045260246000fd5b600381106181ea576181e96181aa565b5b50565b60008190506181fb826181d9565b919050565b600061820b826181ed565b9050919050565b61821b81618200565b82525050565b60006060830160008301516182396000860182618212565b50602083015184820360208601526182518282617171565b9150506040830151848203604086015261826b8282617171565b9150508091505092915050565b60006182848383618221565b905092915050565b6000602082019050919050565b60006182a48261818a565b6182ae8185618195565b9350836020820285016182c0856181a0565b8060005b858110156182fc57848403895281516182dd8582618278565b94506182e88361828c565b925060208a019950506001810190506182c4565b50829750879550505050505092915050565b600060c083016000830151618326600086018261710b565b506020830151848203602086015261833e8282617171565b915050604083015184820360408601526183588282617171565b915050606083015184820360608601526183728282618299565b9150506080830151618387608086018261710b565b5060a083015161839a60a08601826171aa565b508091505092915050565b60006183b1838361830e565b905092915050565b6000602082019050919050565b60006183d18261815e565b6183db8185618169565b9350836020820285016183ed8561817a565b8060005b85811015618429578484038952815161840a85826183a5565b9450618415836183b9565b925060208a019950506001810190506183f1565b50829750879550505050505092915050565b6000602082019050818103600083015261845581846183c6565b905092915050565b6000608083016000830151618475600086018261710b565b506020830151848203602086015261848d8282617171565b915050604083015184820360408601526184a78282617ec4565b91505060608301516184bc60608601826171aa565b508091505092915050565b600060208201905081810360008301526184e1818461845d565b905092915050565b600081519050919050565b600082825260208201905092915050565b6000819050602082019050919050565b600060608301600083015161852d600086018261710b565b50602083015184820360208601526185458282617171565b915050604083015161855a60408601826171aa565b508091505092915050565b60006185718383618515565b905092915050565b6000602082019050919050565b6000618591826184e9565b61859b81856184f4565b9350836020820285016185ad85618505565b8060005b858110156185e957848403895281516185ca8582618565565b94506185d583618579565b925060208a019950506001810190506185b1565b50829750879550505050505092915050565b600060208201905081810360008301526186158184618586565b905092915050565b6003811061862a57600080fd5b50565b60008135905061863c8161861d565b92915050565b600080fd5b60008083601f84011261865d5761865c6176f5565b5b8235905067ffffffffffffffff81111561867a57618679618642565b5b602083019150836020820283011115618696576186956177a1565b5b9250929050565b600080600080606085870312156186b7576186b6617010565b5b60006186c58782880161741b565b94505060206186d68782880161862d565b935050604085013567ffffffffffffffff8111156186f7576186f6617015565b5b61870387828801618647565b925092505092959194509250565b6000806040838503121561872857618727617010565b5b60006187368582860161741b565b9250506020618747858286016173ef565b9150509250929050565b600061016082019050618767600083018e617342565b618774602083018d617342565b618781604083018c617342565b61878e606083018b617342565b61879b608083018a617342565b6187a860a0830189617342565b6187b560c0830188617342565b6187c260e0830187617342565b6187d0610100830186617342565b6187de610120830185617342565b6187ec6101408301846170ab565b9c9b505050505050505050505050565b600081519050919050565b600082825260208201905092915050565b6000819050602082019050919050565b600061883483836171eb565b60208301905092915050565b6000602082019050919050565b6000618858826187fc565b6188628185618807565b935061886d83618818565b8060005b8381101561889e5781516188858882618828565b975061889083618840565b925050600181019050618871565b5085935050505092915050565b600060208201905081810360008301526188c5818461884d565b905092915050565b6188d68161796c565b81146188e157600080fd5b50565b6000813590506188f3816188cd565b92915050565b6000806000806080858703121561891357618912617010565b5b60006189218782880161741b565b945050602085013567ffffffffffffffff81111561894257618941617015565b5b61894e8782880161782d565b935050604085013567ffffffffffffffff81111561896f5761896e617015565b5b61897b878288016178e2565b925050606061898c878288016188e4565b91505092959194509250565b600080604083850312156189af576189ae617010565b5b60006189bd858286016173ef565b92505060206189ce858286016173ef565b9150509250929050565b6189e181618200565b82525050565b60006060820190506189fc60008301866189d8565b8181036020830152618a0e818561737d565b90508181036040830152618a22818461737d565b9050949350505050565b7f4e487b7100000000000000000000000000000000000000000000000000000000600052603260045260246000fd5b7f4e487b7100000000000000000000000000000000000000000000000000000000600052602260045260246000fd5b60006002820490506001821680618aa257607f821691505b602082108103618ab557618ab4618a5b565b5b50919050565b7f596f7520617265206e6f7420656e726f6c6c656420696e207468697320636f7560008201527f7273652100000000000000000000000000000000000000000000000000000000602082015250565b6000618b1760248361736c565b9150618b2282618abb565b604082019050919050565b60006020820190508181036000830152618b4681618b0a565b9050919050565b7f4e487b7100000000000000000000000000000000000000000000000000000000600052601160045260246000fd5b6000618b8782617101565b9150618b9283617101565b9250828202618ba081617101565b91508282048414831517618bb757618bb6618b4d565b5b5092915050565b7f4e487b7100000000000000000000000000000000000000000000000000000000600052601260045260246000fd5b6000618bf882617101565b9150618c0383617101565b925082618c1357618c12618bbe565b5b828204905092915050565b7f436f7572736520646f6573206e6f742065786973742100000000000000000000600082015250565b6000618c5460168361736c565b9150618c5f82618c1e565b602082019050919050565b60006020820190508181036000830152618c8381618c47565b9050919050565b60008190508160005260206000209050919050565b60006020601f8301049050919050565b600082821b905092915050565b600060088302618cec7fffffffffffffffffffffffffffffffffffffffffffffffffffffffffffffffff82618caf565b618cf68683618caf565b95508019841693508086168417925050509392505050565b6000819050919050565b6000618d33618d2e618d2984617101565b618d0e565b617101565b9050919050565b6000819050919050565b618d4d83618d18565b618d61618d5982618d3a565b848454618cbc565b825550505050565b600090565b618d76618d69565b618d81818484618d44565b505050565b5b81811015618da557618d9a600082618d6e565b600181019050618d87565b5050565b601f821115618dea57618dbb81618c8a565b618dc484618c9f565b81016020851015618dd3578190505b618de7618ddf85618c9f565b830182618d86565b50505b505050565b600082821c905092915050565b6000618e0d60001984600802618def565b1980831691505092915050565b6000618e268383618dfc565b9150826002028217905092915050565b618e3f8261711a565b67ffffffffffffffff811115618e5857618e576176fa565b5b618e628254618a8a565b618e6d828285618da9565b600060209050601f831160018114618ea05760008415618e8e578287015190505b618e988582618e1a565b865550618f00565b601f198416618eae86618c8a565b60005b82811015618ed657848901518255600182019150602085019450602081019050618eb1565b86831015618ef35784890151618eef601f891682618dfc565b8355505b6001600288020188555050505b505050505050565b6000618f1382617101565b91507fffffffffffffffffffffffffffffffffffffffffffffffffffffffffffffffff8203618f4557618f44618b4d565b5b600182019050919050565b7f5175697a20646f6573206e6f7420657869737400000000000000000000000000600082015250565b6000618f8660138361736c565b9150618f9182618f50565b602082019050919050565b60006020820190508181036000830152618fb581618f79565b9050919050565b7f4e6f742073656c6563746564206173206120726576696577657220666f72207460008201527f68697320636f7572736500000000000000000000000000000000000000000000602082015250565b6000619018602a8361736c565b915061902382618fbc565b604082019050919050565b600060208201905081810360008301526190478161900b565b9050919050565b7f52657669657720616c7265616479207375626d6974746564206279207468697360008201527f2072657669657765722e00000000000000000000000000000000000000000000602082015250565b60006190aa602a8361736c565b91506190b58261904e565b604082019050919050565b600060208201905081810360008301526190d98161909d565b9050919050565b7f4c6573736f6e20446f6573206e6f742065786973742100000000000000000000600082015250565b600061911660168361736c565b9150619121826190e0565b602082019050919050565b6000602082019050818103600083015261914581619109565b9050919050565b60008154905061915b81618a8a565b9050919050565b818103619170575050619248565b6191798261914c565b67ffffffffffffffff811115619192576191916176fa565b5b61919c8254618a8a565b6191a7828285618da9565b6000601f8311600181146191d657600084156191c4578287015490505b6191ce8582618e1a565b865550619241565b601f1984166191e487618c8a565b96506191ef86618c8a565b60005b82811015619217578489015482556001820191506001850194506020810190506191f2565b868310156192345784890154619230601f891682618dfc565b8355505b6001600288020188555050505b5050505050505b565b600081905092915050565b60006192608261711a565b61926a818561924a565b935061927a818560208601617136565b80840191505092915050565b60006192928284619255565b915081905092915050565b7f416c726561647920696e20726576696577657220706f6f6c0000000000000000600082015250565b60006192d360188361736c565b91506192de8261929d565b602082019050919050565b60006020820190508181036000830152619302816192c6565b9050919050565b7f436f7572736520616c726561647920617070726f766564000000000000000000600082015250565b600061933f60178361736c565b915061934a82619309565b602082019050919050565b6000602082019050818103600083015261936e81619332565b9050919050565b7f596f75206861766520616c726561647920617070726f7665642074686973206360008201527f6f75727365000000000000000000000000000000000000000000000000000000602082015250565b60006193d160258361736c565b91506193dc82619375565b604082019050919050565b60006020820190508181036000830152619400816193c4565b9050919050565b7f4368617074657220646f6573206e6f7420657869737421000000000000000000600082015250565b600061943d60178361736c565b915061944882619407565b602082019050919050565b6000602082019050818103600083015261946c81619430565b9050919050565b7f52657669657765727320616c72656164792073656c6563746564000000000000600082015250565b60006194a9601a8361736c565b91506194b482619473565b602082019050919050565b600060208201905081810360008301526194d88161949c565b9050919050565b7f4e6f7420656e6f7567682072657669657765727320696e2074686520706f6f6c600082015250565b600061951560208361736c565b9150619520826194df565b602082019050919050565b6000602082019050818103600083015261954481619508565b9050919050565b6000819050919050565b61956661956182617101565b61954b565b82525050565b60006195788287619555565b6020820191506195888286619555565b6020820191506195988285619555565b6020820191506195a88284619555565b60208201915081905095945050505050565b60006195c582617101565b91506195d083617101565b9250826195e0576195df618bbe565b5b828206905092915050565b600081549050919050565b60008190508160005260206000209050919050565b60008160001c9050919050565b600073ffffffffffffffffffffffffffffffffffffffff82169050919050565b600061964b6196468361960b565b619618565b9050919050565b600061965e8254619638565b9050919050565b6000600182019050919050565b600061967d826195eb565b6196878185618807565b9350619692836195f6565b8060005b838110156196ca576196a782619652565b6196b18882618828565b97506196bc83619665565b925050600181019050619696565b5085935050505092915050565b600060208201905081810360008301526196f18184619672565b905092915050565b7f436f7572736520494420616c7265616479206578697374730000000000000000600082015250565b600061972f60188361736c565b915061973a826196f9565b602082019050919050565b6000602082019050818103600083015261975e81619722565b9050919050565b600061977082617101565b915061977b83617101565b925082820190508082111561979357619792618b4d565b5b92915050565b60006197a482617101565b91506197af83617101565b92508282039050818111156197c7576197c6618b4d565b5b92915050565b7f4c6573736f6e20646f6573206e6f742065786973742100000000000000000000600082015250565b600061980360168361736c565b915061980e826197cd565b602082019050919050565b60006020820190508181036000830152619832816197f6565b9050919050565b7f45786365656473206d6178696d756d207265736f757263657321000000000000600082015250565b600061986f601a8361736c565b915061987a82619839565b602082019050919050565b6000602082019050818103600083015261989e81619862565b9050919050565b600080fd5b600080fd5b600080fd5b6000823560016060038336030381126198d0576198cf6198a5565b5b80830191505092915050565b6000602082840312156198f2576198f1617010565b5b60006199008482850161862d565b91505092915050565b60008083356001602003843603038112619926576199256198a5565b5b80840192508235915067ffffffffffffffff821115619948576199476198aa565b5b602083019250600182023603831315619964576199636198af565b5b509250929050565b7f50726f706f73616c20616c726561647920657865637574656400000000000000600082015250565b60006199a260198361736c565b91506199ad8261996c565b602082019050919050565b600060208201905081810360008301526199d181619995565b9050919050565b7f416c726561647920617070726f76656400000000000000000000000000000000600082015250565b6000619a0e60108361736c565b9150619a19826199d8565b602082019050919050565b60006020820190508181036000830152619a3d81619a01565b9050919050565b600081905092915050565b60008190508160005260206000209050919050565b60008154619a7181618a8a565b619a7b8186619a44565b94506001821660008114619a965760018114619aab57619ade565b60ff1983168652811515820286019350619ade565b619ab485619a4f565b60005b83811015619ad657815481890152600182019150602081019050619ab7565b838801955050505b50505092915050565b6000619af38284619a64565b915081905092915050565b7f50726f706f73616c20657865637574696f6e206661696c656400000000000000600082015250565b6000619b3460198361736c565b9150619b3f82619afe565b602082019050919050565b60006020820190508181036000830152619b6381619b27565b9050919050565b7f4e6f7420696e20726576696577657220706f6f6c000000000000000000000000600082015250565b6000619ba060148361736c565b9150619bab82619b6a565b602082019050919050565b60006020820190508181036000830152619bcf81619b93565b9050919050565b7f4e487b7100000000000000000000000000000000000000000000000000000000600052603160045260246000fd5b7f496e76616c6964206e756d626572206f662063686f6963657300000000000000600082015250565b6000619c3b60198361736c565b9150619c4682619c05565b602082019050919050565b60006020820190508181036000830152619c6a81619c2e565b9050919050565b7f496e76616c696420636f72726563742063686f69636520696e64657800000000600082015250565b6000619ca7601c8361736c565b9150619cb282619c71565b602082019050919050565b60006020820190508181036000830152619cd681619c9a565b9050919050565b6000619ce88261796c565b915060ff8203619cfb57619cfa618b4d565b5b600182019050919050565b6000606082019050619d1b6000830186617342565b619d286020830185617342565b8181036040830152619d3a818461737d565b9050949350505050565b7f436f75727365206e6f742079657420617070726f766564210000000000000000600082015250565b6000619d7a60188361736c565b9150619d8582619d44565b602082019050919050565b60006020820190508181036000830152619da981619d6d565b9050919050565b7f596f752061726520616c726561647920656e726f6c6c656420696e746f20746860008201527f697320636f757273650000000000000000000000000000000000000000000000602082015250565b6000619e0c60298361736c565b9150619e1782619db0565b604082019050919050565b60006020820190508181036000830152619e3b81619dff565b9050919050565b6000606082019050619e57600083018661749d565b619e646020830185617342565b619e716040830184617342565b949350505050565b7f53636f726573206d757374206265206265747765656e203120616e642031302e600082015250565b6000619eaf60208361736c565b9150619eba82619e79565b602082019050919050565b60006020820190508181036000830152619ede81619ea2565b9050919050565b7f4c696d6974204578636565646564210000000000000000000000000000000000600082015250565b6000619f1b600f8361736c565b9150619f2682619ee5565b602082019050919050565b60006020820190508181036000830152619f4a81619f0e565b9050919050565b7f496e73756666696369656e742062616c616e6365000000000000000000000000600082015250565b6000619f8760148361736c565b9150619f9282619f51565b602082019050919050565b60006020820190508181036000830152619fb681619f7a565b9050919050565b6000604082019050619fd2600083018561749d565b619fdf602083018461757d565b939250505056fea26469706673582212201480aba35f66a3b67fdda1c19f24c86d05a1b1f3dfc3e50811b87514ef8be57664736f6c634300081b0033",
  "linkReferences": {},
  "deployedLinkReferences": {}
}