{
  "_format": "hh-sol-artifact-1",
  "contractName": "Ecosystem2",
  "sourceName": "contracts/Ecosystem Contracts/Ecosystem2.sol",
  "abi": [
    {
      "inputs": [
        {
          "internalType": "address[]",
          "name": "_reviewers",
          "type": "address[]"
        }
      ],
      "stateMutability": "nonpayable",
      "type": "constructor"
    },
    {
      "inputs": [],
      "name": "AccessControlBadConfirmation",
      "type": "error"
    },
    {
      "inputs": [
        {
          "internalType": "address",
          "name": "account",
          "type": "address"
        },
        {
          "internalType": "bytes32",
          "name": "neededRole",
          "type": "bytes32"
        }
      ],
      "name": "AccessControlUnauthorizedAccount",
      "type": "error"
    },
    {
      "inputs": [
        {
          "internalType": "address",
          "name": "spender",
          "type": "address"
        },
        {
          "internalType": "uint256",
          "name": "allowance",
          "type": "uint256"
        },
        {
          "internalType": "uint256",
          "name": "needed",
          "type": "uint256"
        }
      ],
      "name": "ERC20InsufficientAllowance",
      "type": "error"
    },
    {
      "inputs": [
        {
          "internalType": "address",
          "name": "sender",
          "type": "address"
        },
        {
          "internalType": "uint256",
          "name": "balance",
          "type": "uint256"
        },
        {
          "internalType": "uint256",
          "name": "needed",
          "type": "uint256"
        }
      ],
      "name": "ERC20InsufficientBalance",
      "type": "error"
    },
    {
      "inputs": [
        {
          "internalType": "address",
          "name": "approver",
          "type": "address"
        }
      ],
      "name": "ERC20InvalidApprover",
      "type": "error"
    },
    {
      "inputs": [
        {
          "internalType": "address",
          "name": "receiver",
          "type": "address"
        }
      ],
      "name": "ERC20InvalidReceiver",
      "type": "error"
    },
    {
      "inputs": [
        {
          "internalType": "address",
          "name": "sender",
          "type": "address"
        }
      ],
      "name": "ERC20InvalidSender",
      "type": "error"
    },
    {
      "inputs": [
        {
          "internalType": "address",
          "name": "spender",
          "type": "address"
        }
      ],
      "name": "ERC20InvalidSpender",
      "type": "error"
    },
    {
      "inputs": [],
      "name": "ReentrancyGuardReentrantCall",
      "type": "error"
    },
    {
      "anonymous": false,
      "inputs": [
        {
          "indexed": true,
          "internalType": "address",
          "name": "owner",
          "type": "address"
        },
        {
          "indexed": true,
          "internalType": "address",
          "name": "spender",
          "type": "address"
        },
        {
          "indexed": false,
          "internalType": "uint256",
          "name": "value",
          "type": "uint256"
        }
      ],
      "name": "Approval",
      "type": "event"
    },
    {
      "anonymous": false,
      "inputs": [
        {
          "indexed": true,
          "internalType": "address",
          "name": "_account",
          "type": "address"
        },
        {
          "indexed": false,
          "internalType": "uint256",
          "name": "_amount",
          "type": "uint256"
        }
      ],
      "name": "BurnSuccess",
      "type": "event"
    },
    {
      "anonymous": false,
      "inputs": [
        {
          "indexed": true,
          "internalType": "uint256",
          "name": "_courseId",
          "type": "uint256"
        },
        {
          "indexed": true,
          "internalType": "uint256",
          "name": "numberOfChapters",
          "type": "uint256"
        }
      ],
      "name": "ChaptersAddedSuccessfully",
      "type": "event"
    },
    {
      "anonymous": false,
      "inputs": [
        {
          "indexed": false,
          "internalType": "uint256",
          "name": "questionId",
          "type": "uint256"
        },
        {
          "indexed": false,
          "internalType": "uint256",
          "name": "choiceId",
          "type": "uint256"
        },
        {
          "indexed": false,
          "internalType": "string",
          "name": "option",
          "type": "string"
        }
      ],
      "name": "ChoiceAdded",
      "type": "event"
    },
    {
      "anonymous": false,
      "inputs": [
        {
          "indexed": true,
          "internalType": "uint256",
          "name": "_courseID",
          "type": "uint256"
        },
        {
          "indexed": true,
          "internalType": "string",
          "name": "_courseName",
          "type": "string"
        },
        {
          "indexed": false,
          "internalType": "bool",
          "name": "_approved",
          "type": "bool"
        }
      ],
      "name": "CourseCreationSuccess",
      "type": "event"
    },
    {
      "anonymous": false,
      "inputs": [
        {
          "indexed": true,
          "internalType": "address",
          "name": "_to",
          "type": "address"
        },
        {
          "indexed": true,
          "internalType": "uint256",
          "name": "_amount",
          "type": "uint256"
        }
      ],
      "name": "EcosystemPoolUpdate",
      "type": "event"
    },
    {
      "anonymous": false,
      "inputs": [
        {
          "indexed": true,
          "internalType": "uint256",
          "name": "_courseId",
          "type": "uint256"
        },
        {
          "indexed": true,
          "internalType": "address",
          "name": "_by",
          "type": "address"
        }
      ],
      "name": "EnrollmentSuccess",
      "type": "event"
    },
    {
      "anonymous": false,
      "inputs": [
        {
          "indexed": true,
          "internalType": "uint256",
          "name": "_lessonId",
          "type": "uint256"
        },
        {
          "indexed": true,
          "internalType": "string",
          "name": "_lessonName",
          "type": "string"
        },
        {
          "indexed": true,
          "internalType": "uint256",
          "name": "_additonalResources",
          "type": "uint256"
        }
      ],
      "name": "LessonCreationSuccess",
      "type": "event"
    },
    {
      "anonymous": false,
      "inputs": [
        {
          "indexed": true,
          "internalType": "uint256",
          "name": "_chapterId",
          "type": "uint256"
        },
        {
          "indexed": true,
          "internalType": "uint256",
          "name": "_lessonId",
          "type": "uint256"
        },
        {
          "indexed": false,
          "internalType": "address",
          "name": "learner",
          "type": "address"
        }
      ],
      "name": "LessonMarkedAsRead",
      "type": "event"
    },
    {
      "anonymous": false,
      "inputs": [
        {
          "indexed": true,
          "internalType": "address",
          "name": "_to",
          "type": "address"
        },
        {
          "indexed": true,
          "internalType": "uint256",
          "name": "_amount",
          "type": "uint256"
        }
      ],
      "name": "MintSuccess",
      "type": "event"
    },
    {
      "anonymous": false,
      "inputs": [
        {
          "indexed": true,
          "internalType": "uint256",
          "name": "proposalId",
          "type": "uint256"
        },
        {
          "indexed": false,
          "internalType": "address",
          "name": "approver",
          "type": "address"
        }
      ],
      "name": "MultiSigProposalApproved",
      "type": "event"
    },
    {
      "anonymous": false,
      "inputs": [
        {
          "indexed": true,
          "internalType": "uint256",
          "name": "proposalId",
          "type": "uint256"
        },
        {
          "indexed": false,
          "internalType": "address",
          "name": "proposer",
          "type": "address"
        }
      ],
      "name": "MultiSigProposalCreated",
      "type": "event"
    },
    {
      "anonymous": false,
      "inputs": [
        {
          "indexed": true,
          "internalType": "uint256",
          "name": "proposalId",
          "type": "uint256"
        }
      ],
      "name": "MultiSigProposalExecuted",
      "type": "event"
    },
    {
      "anonymous": false,
      "inputs": [
        {
          "indexed": false,
          "internalType": "uint256",
          "name": "quizId",
          "type": "uint256"
        },
        {
          "indexed": false,
          "internalType": "uint256",
          "name": "questionId",
          "type": "uint256"
        },
        {
          "indexed": false,
          "internalType": "string",
          "name": "questionText",
          "type": "string"
        }
      ],
      "name": "QuestionAdded",
      "type": "event"
    },
    {
      "anonymous": false,
      "inputs": [
        {
          "indexed": true,
          "internalType": "uint256",
          "name": "_quizId",
          "type": "uint256"
        },
        {
          "indexed": true,
          "internalType": "string",
          "name": "_title",
          "type": "string"
        }
      ],
      "name": "QuizCreatedSuccess",
      "type": "event"
    },
    {
      "anonymous": false,
      "inputs": [
        {
          "indexed": true,
          "internalType": "uint256",
          "name": "_lessonId",
          "type": "uint256"
        },
        {
          "indexed": true,
          "internalType": "uint256",
          "name": "resourceCount",
          "type": "uint256"
        }
      ],
      "name": "ResourceAddSuccess",
      "type": "event"
    },
    {
      "anonymous": false,
      "inputs": [
        {
          "indexed": true,
          "internalType": "address",
          "name": "reviewer",
          "type": "address"
        }
      ],
      "name": "ReviewerAddedToPool",
      "type": "event"
    },
    {
      "anonymous": false,
      "inputs": [
        {
          "indexed": true,
          "internalType": "address",
          "name": "reviewer",
          "type": "address"
        }
      ],
      "name": "ReviewerRemovedFromPool",
      "type": "event"
    },
    {
      "anonymous": false,
      "inputs": [
        {
          "indexed": true,
          "internalType": "uint256",
          "name": "courseId",
          "type": "uint256"
        },
        {
          "indexed": false,
          "internalType": "address[]",
          "name": "reviewers",
          "type": "address[]"
        }
      ],
      "name": "ReviewersSelected",
      "type": "event"
    },
    {
      "anonymous": false,
      "inputs": [
        {
          "indexed": true,
          "internalType": "bytes32",
          "name": "role",
          "type": "bytes32"
        },
        {
          "indexed": true,
          "internalType": "bytes32",
          "name": "previousAdminRole",
          "type": "bytes32"
        },
        {
          "indexed": true,
          "internalType": "bytes32",
          "name": "newAdminRole",
          "type": "bytes32"
        }
      ],
      "name": "RoleAdminChanged",
      "type": "event"
    },
    {
      "anonymous": false,
      "inputs": [
        {
          "indexed": true,
          "internalType": "bytes32",
          "name": "role",
          "type": "bytes32"
        },
        {
          "indexed": true,
          "internalType": "address",
          "name": "account",
          "type": "address"
        },
        {
          "indexed": true,
          "internalType": "address",
          "name": "sender",
          "type": "address"
        }
      ],
      "name": "RoleGranted",
      "type": "event"
    },
    {
      "anonymous": false,
      "inputs": [
        {
          "indexed": true,
          "internalType": "bytes32",
          "name": "role",
          "type": "bytes32"
        },
        {
          "indexed": true,
          "internalType": "address",
          "name": "account",
          "type": "address"
        },
        {
          "indexed": true,
          "internalType": "address",
          "name": "sender",
          "type": "address"
        }
      ],
      "name": "RoleRevoked",
      "type": "event"
    },
    {
      "anonymous": false,
      "inputs": [
        {
          "indexed": true,
          "internalType": "address",
          "name": "from",
          "type": "address"
        },
        {
          "indexed": true,
          "internalType": "address",
          "name": "to",
          "type": "address"
        },
        {
          "indexed": false,
          "internalType": "uint256",
          "name": "value",
          "type": "uint256"
        }
      ],
      "name": "Transfer",
      "type": "event"
    },
    {
      "anonymous": false,
      "inputs": [
        {
          "indexed": true,
          "internalType": "uint256",
          "name": "_courseId",
          "type": "uint256"
        },
        {
          "indexed": true,
          "internalType": "address",
          "name": "_by",
          "type": "address"
        }
      ],
      "name": "unEnrollmentSuccess",
      "type": "event"
    },
    {
      "inputs": [],
      "name": "COURSE_OWNER_ROLE",
      "outputs": [
        {
          "internalType": "bytes32",
          "name": "",
          "type": "bytes32"
        }
      ],
      "stateMutability": "view",
      "type": "function"
    },
    {
      "inputs": [],
      "name": "CREATE_COURSE_REWARD",
      "outputs": [
        {
          "internalType": "uint256",
          "name": "",
          "type": "uint256"
        }
      ],
      "stateMutability": "view",
      "type": "function"
    },
    {
      "inputs": [],
      "name": "DEFAULT_ADMIN_ROLE",
      "outputs": [
        {
          "internalType": "bytes32",
          "name": "",
          "type": "bytes32"
        }
      ],
      "stateMutability": "view",
      "type": "function"
    },
    {
      "inputs": [],
      "name": "ECOSYSTEM_POOL",
      "outputs": [
        {
          "internalType": "uint256",
          "name": "",
          "type": "uint256"
        }
      ],
      "stateMutability": "view",
      "type": "function"
    },
    {
      "inputs": [],
      "name": "ENROLLMENT_REWARD",
      "outputs": [
        {
          "internalType": "uint256",
          "name": "",
          "type": "uint256"
        }
      ],
      "stateMutability": "view",
      "type": "function"
    },
    {
      "inputs": [],
      "name": "MAX_SCORE",
      "outputs": [
        {
          "internalType": "uint256",
          "name": "",
          "type": "uint256"
        }
      ],
      "stateMutability": "view",
      "type": "function"
    },
    {
      "inputs": [],
      "name": "MAX_SUPPLY",
      "outputs": [
        {
          "internalType": "uint256",
          "name": "",
          "type": "uint256"
        }
      ],
      "stateMutability": "view",
      "type": "function"
    },
    {
      "inputs": [],
      "name": "MIN_APPROVAL_SCORE",
      "outputs": [
        {
          "internalType": "uint256",
          "name": "",
          "type": "uint256"
        }
      ],
      "stateMutability": "view",
      "type": "function"
    },
    {
      "inputs": [],
      "name": "MULTISIG_APPROVER",
      "outputs": [
        {
          "internalType": "bytes32",
          "name": "",
          "type": "bytes32"
        }
      ],
      "stateMutability": "view",
      "type": "function"
    },
    {
      "inputs": [],
      "name": "REQUIRED_APPROVALS",
      "outputs": [
        {
          "internalType": "uint256",
          "name": "",
          "type": "uint256"
        }
      ],
      "stateMutability": "view",
      "type": "function"
    },
    {
      "inputs": [],
      "name": "REVIEWER_ROLE",
      "outputs": [
        {
          "internalType": "bytes32",
          "name": "",
          "type": "bytes32"
        }
      ],
      "stateMutability": "view",
      "type": "function"
    },
    {
      "inputs": [
        {
          "internalType": "address",
          "name": "",
          "type": "address"
        }
      ],
      "name": "accountCourses",
      "outputs": [
        {
          "internalType": "uint256",
          "name": "courseCount",
          "type": "uint256"
        }
      ],
      "stateMutability": "view",
      "type": "function"
    },
    {
      "inputs": [
        {
          "internalType": "uint256",
          "name": "_courseId",
          "type": "uint256"
        },
        {
          "internalType": "string[]",
          "name": "_chapters",
          "type": "string[]"
        },
        {
          "internalType": "uint256[]",
          "name": "_durations",
          "type": "uint256[]"
        }
      ],
      "name": "addChapters",
      "outputs": [
        {
          "internalType": "bool",
          "name": "",
          "type": "bool"
        }
      ],
      "stateMutability": "nonpayable",
      "type": "function"
    },
    {
      "inputs": [
        {
          "internalType": "uint256",
          "name": "_chapterId",
          "type": "uint256"
        },
        {
          "internalType": "string",
          "name": "_lessonName",
          "type": "string"
        },
        {
          "internalType": "string",
          "name": "_lessonContent",
          "type": "string"
        }
      ],
      "name": "addLesson",
      "outputs": [],
      "stateMutability": "nonpayable",
      "type": "function"
    },
    {
      "inputs": [
        {
          "internalType": "address",
          "name": "newApprover",
          "type": "address"
        }
      ],
      "name": "addMultiSigApprover",
      "outputs": [],
      "stateMutability": "nonpayable",
      "type": "function"
    },
    {
      "inputs": [
        {
          "internalType": "uint256",
          "name": "_lessonId",
          "type": "uint256"
        },
        {
          "internalType": "enum Ecosystem.ContentType",
          "name": "contentType",
          "type": "uint8"
        },
        {
          "components": [
            {
              "internalType": "enum Ecosystem.ContentType",
              "name": "contentType",
              "type": "uint8"
            },
            {
              "internalType": "string",
              "name": "url",
              "type": "string"
            },
            {
              "internalType": "string",
              "name": "name",
              "type": "string"
            }
          ],
          "internalType": "struct Ecosystem.Resource[]",
          "name": "_resources",
          "type": "tuple[]"
        }
      ],
      "name": "addResourcesToLesson",
      "outputs": [],
      "stateMutability": "nonpayable",
      "type": "function"
    },
    {
      "inputs": [
        {
          "internalType": "address",
          "name": "newReviewer",
          "type": "address"
        }
      ],
      "name": "addReviewer",
      "outputs": [],
      "stateMutability": "nonpayable",
      "type": "function"
    },
    {
      "inputs": [
        {
          "internalType": "address",
          "name": "owner",
          "type": "address"
        },
        {
          "internalType": "address",
          "name": "spender",
          "type": "address"
        }
      ],
      "name": "allowance",
      "outputs": [
        {
          "internalType": "uint256",
          "name": "",
          "type": "uint256"
        }
      ],
      "stateMutability": "view",
      "type": "function"
    },
    {
      "inputs": [
        {
          "internalType": "address",
          "name": "",
          "type": "address"
        },
        {
          "internalType": "uint256",
          "name": "",
          "type": "uint256"
        }
      ],
      "name": "approvals",
      "outputs": [
        {
          "internalType": "bool",
          "name": "",
          "type": "bool"
        }
      ],
      "stateMutability": "view",
      "type": "function"
    },
    {
      "inputs": [
        {
          "internalType": "address",
          "name": "spender",
          "type": "address"
        },
        {
          "internalType": "uint256",
          "name": "value",
          "type": "uint256"
        }
      ],
      "name": "approve",
      "outputs": [
        {
          "internalType": "bool",
          "name": "",
          "type": "bool"
        }
      ],
      "stateMutability": "nonpayable",
      "type": "function"
    },
    {
      "inputs": [
        {
          "internalType": "uint256",
          "name": "_courseId",
          "type": "uint256"
        }
      ],
      "name": "approveCourse",
      "outputs": [],
      "stateMutability": "nonpayable",
      "type": "function"
    },
    {
      "inputs": [
        {
          "internalType": "uint256",
          "name": "_proposalId",
          "type": "uint256"
        }
      ],
      "name": "approveMultiSigProposal",
      "outputs": [],
      "stateMutability": "nonpayable",
      "type": "function"
    },
    {
      "inputs": [
        {
          "internalType": "address",
          "name": "account",
          "type": "address"
        }
      ],
      "name": "balanceOf",
      "outputs": [
        {
          "internalType": "uint256",
          "name": "",
          "type": "uint256"
        }
      ],
      "stateMutability": "view",
      "type": "function"
    },
    {
      "inputs": [
        {
          "internalType": "uint256",
          "name": "",
          "type": "uint256"
        }
      ],
      "name": "chapter",
      "outputs": [
        {
          "internalType": "uint256",
          "name": "courseId",
          "type": "uint256"
        },
        {
          "internalType": "uint256",
          "name": "chapterId",
          "type": "uint256"
        },
        {
          "internalType": "string",
          "name": "chapterName",
          "type": "string"
        },
        {
          "internalType": "uint256",
          "name": "duration",
          "type": "uint256"
        },
        {
          "internalType": "bool",
          "name": "exists",
          "type": "bool"
        }
      ],
      "stateMutability": "view",
      "type": "function"
    },
    {
      "inputs": [
        {
          "internalType": "uint256",
          "name": "",
          "type": "uint256"
        },
        {
          "internalType": "uint256",
          "name": "",
          "type": "uint256"
        }
      ],
      "name": "chapterLessons",
      "outputs": [
        {
          "internalType": "string",
          "name": "",
          "type": "string"
        }
      ],
      "stateMutability": "view",
      "type": "function"
    },
    {
      "inputs": [
        {
          "internalType": "uint256",
          "name": "",
          "type": "uint256"
        },
        {
          "internalType": "uint256",
          "name": "",
          "type": "uint256"
        }
      ],
      "name": "courseChapters",
      "outputs": [
        {
          "internalType": "uint256",
          "name": "courseId",
          "type": "uint256"
        },
        {
          "internalType": "uint256",
          "name": "chapterId",
          "type": "uint256"
        },
        {
          "internalType": "string",
          "name": "chapterName",
          "type": "string"
        },
        {
          "internalType": "uint256",
          "name": "duration",
          "type": "uint256"
        },
        {
          "internalType": "bool",
          "name": "exists",
          "type": "bool"
        }
      ],
      "stateMutability": "view",
      "type": "function"
    },
    {
      "inputs": [],
      "name": "courseCount",
      "outputs": [
        {
          "internalType": "uint256",
          "name": "",
          "type": "uint256"
        }
      ],
      "stateMutability": "view",
      "type": "function"
    },
    {
      "inputs": [
        {
          "internalType": "uint256",
          "name": "",
          "type": "uint256"
        }
      ],
      "name": "courseObject",
      "outputs": [
        {
          "internalType": "uint256",
          "name": "courseId",
          "type": "uint256"
        },
        {
          "internalType": "string",
          "name": "courseName",
          "type": "string"
        },
        {
          "internalType": "string",
          "name": "description",
          "type": "string"
        },
        {
          "internalType": "bool",
          "name": "approved",
          "type": "bool"
        },
        {
          "internalType": "uint256",
          "name": "approvalCount",
          "type": "uint256"
        },
        {
          "internalType": "address",
          "name": "creator",
          "type": "address"
        },
        {
          "internalType": "bool",
          "name": "exists",
          "type": "bool"
        },
        {
          "internalType": "enum Ecosystem.DifficultyLevel",
          "name": "difficultyLevel",
          "type": "uint8"
        }
      ],
      "stateMutability": "view",
      "type": "function"
    },
    {
      "inputs": [
        {
          "internalType": "uint256",
          "name": "",
          "type": "uint256"
        }
      ],
      "name": "courseReviewInitiated",
      "outputs": [
        {
          "internalType": "bool",
          "name": "",
          "type": "bool"
        }
      ],
      "stateMutability": "view",
      "type": "function"
    },
    {
      "inputs": [
        {
          "internalType": "uint256",
          "name": "",
          "type": "uint256"
        },
        {
          "internalType": "uint256",
          "name": "",
          "type": "uint256"
        }
      ],
      "name": "courseReviewers",
      "outputs": [
        {
          "internalType": "address",
          "name": "",
          "type": "address"
        }
      ],
      "stateMutability": "view",
      "type": "function"
    },
    {
      "inputs": [
        {
          "internalType": "string",
          "name": "_courseName",
          "type": "string"
        },
        {
          "internalType": "string",
          "name": "_description",
          "type": "string"
        },
        {
          "internalType": "enum Ecosystem.DifficultyLevel",
          "name": "_difficultyLevel",
          "type": "uint8"
        }
      ],
      "name": "createCourse",
      "outputs": [
        {
          "internalType": "bool",
          "name": "",
          "type": "bool"
        }
      ],
      "stateMutability": "nonpayable",
      "type": "function"
    },
    {
      "inputs": [
        {
          "internalType": "uint256",
          "name": "_quizId",
          "type": "uint256"
        },
        {
          "internalType": "string",
          "name": "_questionText",
          "type": "string"
        },
        {
          "internalType": "string[]",
          "name": "_options",
          "type": "string[]"
        },
        {
          "internalType": "uint8",
          "name": "_correctChoiceIndex",
          "type": "uint8"
        }
      ],
      "name": "createQuestionWithChoices",
      "outputs": [],
      "stateMutability": "nonpayable",
      "type": "function"
    },
    {
      "inputs": [
        {
          "internalType": "uint256",
          "name": "_lessonId",
          "type": "uint256"
        },
        {
          "internalType": "string",
          "name": "_title",
          "type": "string"
        }
      ],
      "name": "createQuiz",
      "outputs": [
        {
          "internalType": "uint256",
          "name": "",
          "type": "uint256"
        }
      ],
      "stateMutability": "nonpayable",
      "type": "function"
    },
    {
      "inputs": [],
      "name": "decimals",
      "outputs": [
        {
          "internalType": "uint8",
          "name": "",
          "type": "uint8"
        }
      ],
      "stateMutability": "view",
      "type": "function"
    },
    {
      "inputs": [],
      "name": "ecosystemPoolSupply",
      "outputs": [
        {
          "internalType": "uint256",
          "name": "",
          "type": "uint256"
        }
      ],
      "stateMutability": "view",
      "type": "function"
    },
    {
      "inputs": [
        {
          "internalType": "uint256",
          "name": "_courseId",
          "type": "uint256"
        }
      ],
      "name": "enroll",
      "outputs": [
        {
          "internalType": "bool",
          "name": "",
          "type": "bool"
        }
      ],
      "stateMutability": "nonpayable",
      "type": "function"
    },
    {
      "inputs": [],
      "name": "getAllChapters",
      "outputs": [
        {
          "components": [
            {
              "internalType": "uint256",
              "name": "courseId",
              "type": "uint256"
            },
            {
              "internalType": "uint256",
              "name": "chapterId",
              "type": "uint256"
            },
            {
              "internalType": "string",
              "name": "chapterName",
              "type": "string"
            },
            {
              "internalType": "uint256",
              "name": "duration",
              "type": "uint256"
            },
            {
              "internalType": "bool",
              "name": "exists",
              "type": "bool"
            }
          ],
          "internalType": "struct Ecosystem.Chapter[]",
          "name": "",
          "type": "tuple[]"
        }
      ],
      "stateMutability": "view",
      "type": "function"
    },
    {
      "inputs": [],
      "name": "getAllCourses",
      "outputs": [
        {
          "components": [
            {
              "internalType": "uint256",
              "name": "courseId",
              "type": "uint256"
            },
            {
              "internalType": "string",
              "name": "courseName",
              "type": "string"
            },
            {
              "internalType": "string",
              "name": "description",
              "type": "string"
            },
            {
              "internalType": "bool",
              "name": "approved",
              "type": "bool"
            },
            {
              "internalType": "uint256",
              "name": "approvalCount",
              "type": "uint256"
            },
            {
              "internalType": "address",
              "name": "creator",
              "type": "address"
            },
            {
              "internalType": "bool",
              "name": "exists",
              "type": "bool"
            },
            {
              "internalType": "address[]",
              "name": "enrolledStudents",
              "type": "address[]"
            },
            {
              "internalType": "enum Ecosystem.DifficultyLevel",
              "name": "difficultyLevel",
              "type": "uint8"
            }
          ],
          "internalType": "struct Ecosystem.Course[]",
          "name": "",
          "type": "tuple[]"
        }
      ],
      "stateMutability": "view",
      "type": "function"
    },
    {
      "inputs": [],
      "name": "getAllLessons",
      "outputs": [
        {
          "components": [
            {
              "internalType": "uint256",
              "name": "chapterId",
              "type": "uint256"
            },
            {
              "internalType": "uint256",
              "name": "lessonId",
              "type": "uint256"
            },
            {
              "internalType": "string",
              "name": "lessonName",
              "type": "string"
            },
            {
              "internalType": "string",
              "name": "lessonContent",
              "type": "string"
            },
            {
              "components": [
                {
                  "internalType": "enum Ecosystem.ContentType",
                  "name": "contentType",
                  "type": "uint8"
                },
                {
                  "internalType": "string",
                  "name": "url",
                  "type": "string"
                },
                {
                  "internalType": "string",
                  "name": "name",
                  "type": "string"
                }
              ],
              "internalType": "struct Ecosystem.Resource[10]",
              "name": "additionalResources",
              "type": "tuple[10]"
            },
            {
              "internalType": "uint256",
              "name": "resourceCount",
              "type": "uint256"
            },
            {
              "internalType": "bool",
              "name": "exists",
              "type": "bool"
            }
          ],
          "internalType": "struct Ecosystem.Lesson[]",
          "name": "",
          "type": "tuple[]"
        }
      ],
      "stateMutability": "view",
      "type": "function"
    },
    {
      "inputs": [],
      "name": "getAllQuizzes",
      "outputs": [
        {
          "components": [
            {
              "internalType": "uint256",
              "name": "lessonId",
              "type": "uint256"
            },
            {
              "internalType": "uint256",
              "name": "quizId",
              "type": "uint256"
            },
            {
              "internalType": "string",
              "name": "quizTitle",
              "type": "string"
            },
            {
              "components": [
                {
                  "internalType": "uint256",
                  "name": "quizId",
                  "type": "uint256"
                },
                {
                  "internalType": "uint256",
                  "name": "questionId",
                  "type": "uint256"
                },
                {
                  "internalType": "string",
                  "name": "questionText",
                  "type": "string"
                },
                {
                  "components": [
                    {
                      "internalType": "string",
                      "name": "option",
                      "type": "string"
                    },
                    {
                      "internalType": "bool",
                      "name": "isCorrect",
                      "type": "bool"
                    }
                  ],
                  "internalType": "struct Ecosystem.Choice[]",
                  "name": "choices",
                  "type": "tuple[]"
                }
              ],
              "internalType": "struct Ecosystem.Question[]",
              "name": "questions",
              "type": "tuple[]"
            },
            {
              "internalType": "bool",
              "name": "exists",
              "type": "bool"
            }
          ],
          "internalType": "struct Ecosystem.Quiz[]",
          "name": "",
          "type": "tuple[]"
        }
      ],
      "stateMutability": "view",
      "type": "function"
    },
    {
      "inputs": [
        {
          "internalType": "uint256",
          "name": "_courseId",
          "type": "uint256"
        }
      ],
      "name": "getChapters",
      "outputs": [
        {
          "components": [
            {
              "internalType": "uint256",
              "name": "courseId",
              "type": "uint256"
            },
            {
              "internalType": "uint256",
              "name": "chapterId",
              "type": "uint256"
            },
            {
              "internalType": "string",
              "name": "chapterName",
              "type": "string"
            },
            {
              "internalType": "uint256",
              "name": "duration",
              "type": "uint256"
            },
            {
              "internalType": "bool",
              "name": "exists",
              "type": "bool"
            }
          ],
          "internalType": "struct Ecosystem.Chapter[]",
          "name": "",
          "type": "tuple[]"
        }
      ],
      "stateMutability": "view",
      "type": "function"
    },
    {
      "inputs": [
        {
          "internalType": "uint256",
          "name": "courseId",
          "type": "uint256"
        }
      ],
      "name": "getCourseReviewers",
      "outputs": [
        {
          "internalType": "address[]",
          "name": "",
          "type": "address[]"
        }
      ],
      "stateMutability": "view",
      "type": "function"
    },
    {
      "inputs": [],
      "name": "getCurrentEcosystemPoolSupply",
      "outputs": [
        {
          "internalType": "uint256",
          "name": "",
          "type": "uint256"
        }
      ],
      "stateMutability": "view",
      "type": "function"
    },
    {
      "inputs": [
        {
          "internalType": "uint256",
          "name": "_quizId",
          "type": "uint256"
        }
      ],
      "name": "getQuestionsForQuiz",
      "outputs": [
        {
          "components": [
            {
              "internalType": "uint256",
              "name": "quizId",
              "type": "uint256"
            },
            {
              "internalType": "uint256",
              "name": "questionId",
              "type": "uint256"
            },
            {
              "internalType": "string",
              "name": "questionText",
              "type": "string"
            },
            {
              "components": [
                {
                  "internalType": "string",
                  "name": "option",
                  "type": "string"
                },
                {
                  "internalType": "bool",
                  "name": "isCorrect",
                  "type": "bool"
                }
              ],
              "internalType": "struct Ecosystem.Choice[]",
              "name": "choices",
              "type": "tuple[]"
            }
          ],
          "internalType": "struct Ecosystem.Question[]",
          "name": "",
          "type": "tuple[]"
        }
      ],
      "stateMutability": "view",
      "type": "function"
    },
    {
      "inputs": [
        {
          "internalType": "uint256",
          "name": "_quizId",
          "type": "uint256"
        }
      ],
      "name": "getQuiz",
      "outputs": [
        {
          "components": [
            {
              "internalType": "uint256",
              "name": "lessonId",
              "type": "uint256"
            },
            {
              "internalType": "uint256",
              "name": "quizId",
              "type": "uint256"
            },
            {
              "internalType": "string",
              "name": "quizTitle",
              "type": "string"
            },
            {
              "components": [
                {
                  "internalType": "uint256",
                  "name": "quizId",
                  "type": "uint256"
                },
                {
                  "internalType": "uint256",
                  "name": "questionId",
                  "type": "uint256"
                },
                {
                  "internalType": "string",
                  "name": "questionText",
                  "type": "string"
                },
                {
                  "components": [
                    {
                      "internalType": "string",
                      "name": "option",
                      "type": "string"
                    },
                    {
                      "internalType": "bool",
                      "name": "isCorrect",
                      "type": "bool"
                    }
                  ],
                  "internalType": "struct Ecosystem.Choice[]",
                  "name": "choices",
                  "type": "tuple[]"
                }
              ],
              "internalType": "struct Ecosystem.Question[]",
              "name": "questions",
              "type": "tuple[]"
            },
            {
              "internalType": "bool",
              "name": "exists",
              "type": "bool"
            }
          ],
          "internalType": "struct Ecosystem.Quiz",
          "name": "",
          "type": "tuple"
        }
      ],
      "stateMutability": "view",
      "type": "function"
    },
    {
      "inputs": [
        {
          "internalType": "bytes32",
          "name": "role",
          "type": "bytes32"
        }
      ],
      "name": "getRoleAdmin",
      "outputs": [
        {
          "internalType": "bytes32",
          "name": "",
          "type": "bytes32"
        }
      ],
      "stateMutability": "view",
      "type": "function"
    },
    {
      "inputs": [
        {
          "internalType": "uint256",
          "name": "_courseId",
          "type": "uint256"
        }
      ],
      "name": "getUserCompletedLessonsByCourse",
      "outputs": [
        {
          "internalType": "uint256[]",
          "name": "",
          "type": "uint256[]"
        },
        {
          "internalType": "uint256",
          "name": "",
          "type": "uint256"
        }
      ],
      "stateMutability": "view",
      "type": "function"
    },
    {
      "inputs": [
        {
          "internalType": "bytes32",
          "name": "role",
          "type": "bytes32"
        },
        {
          "internalType": "address",
          "name": "account",
          "type": "address"
        }
      ],
      "name": "grantRole",
      "outputs": [],
      "stateMutability": "nonpayable",
      "type": "function"
    },
    {
      "inputs": [
        {
          "internalType": "bytes32",
          "name": "role",
          "type": "bytes32"
        },
        {
          "internalType": "address",
          "name": "account",
          "type": "address"
        }
      ],
      "name": "hasRole",
      "outputs": [
        {
          "internalType": "bool",
          "name": "",
          "type": "bool"
        }
      ],
      "stateMutability": "view",
      "type": "function"
    },
    {
      "inputs": [
        {
          "internalType": "uint256",
          "name": "",
          "type": "uint256"
        },
        {
          "internalType": "address",
          "name": "",
          "type": "address"
        }
      ],
      "name": "isEnrolled",
      "outputs": [
        {
          "internalType": "bool",
          "name": "",
          "type": "bool"
        }
      ],
      "stateMutability": "view",
      "type": "function"
    },
    {
      "inputs": [
        {
          "internalType": "address",
          "name": "",
          "type": "address"
        }
      ],
      "name": "isInReviewerPool",
      "outputs": [
        {
          "internalType": "bool",
          "name": "",
          "type": "bool"
        }
      ],
      "stateMutability": "view",
      "type": "function"
    },
    {
      "inputs": [
        {
          "internalType": "address",
          "name": "account",
          "type": "address"
        }
      ],
      "name": "isReviewer",
      "outputs": [
        {
          "internalType": "bool",
          "name": "",
          "type": "bool"
        }
      ],
      "stateMutability": "view",
      "type": "function"
    },
    {
      "inputs": [
        {
          "internalType": "uint256",
          "name": "",
          "type": "uint256"
        }
      ],
      "name": "lesson",
      "outputs": [
        {
          "internalType": "uint256",
          "name": "chapterId",
          "type": "uint256"
        },
        {
          "internalType": "uint256",
          "name": "lessonId",
          "type": "uint256"
        },
        {
          "internalType": "string",
          "name": "lessonName",
          "type": "string"
        },
        {
          "internalType": "string",
          "name": "lessonContent",
          "type": "string"
        },
        {
          "internalType": "uint256",
          "name": "resourceCount",
          "type": "uint256"
        },
        {
          "internalType": "bool",
          "name": "exists",
          "type": "bool"
        }
      ],
      "stateMutability": "view",
      "type": "function"
    },
    {
      "inputs": [
        {
          "internalType": "uint256",
          "name": "",
          "type": "uint256"
        },
        {
          "internalType": "address",
          "name": "",
          "type": "address"
        }
      ],
      "name": "lessonRead",
      "outputs": [
        {
          "internalType": "bool",
          "name": "",
          "type": "bool"
        }
      ],
      "stateMutability": "view",
      "type": "function"
    },
    {
      "inputs": [
        {
          "internalType": "uint256",
          "name": "",
          "type": "uint256"
        }
      ],
      "name": "listOfChapters",
      "outputs": [
        {
          "internalType": "uint256",
          "name": "courseId",
          "type": "uint256"
        },
        {
          "internalType": "uint256",
          "name": "chapterId",
          "type": "uint256"
        },
        {
          "internalType": "string",
          "name": "chapterName",
          "type": "string"
        },
        {
          "internalType": "uint256",
          "name": "duration",
          "type": "uint256"
        },
        {
          "internalType": "bool",
          "name": "exists",
          "type": "bool"
        }
      ],
      "stateMutability": "view",
      "type": "function"
    },
    {
      "inputs": [
        {
          "internalType": "uint256",
          "name": "",
          "type": "uint256"
        }
      ],
      "name": "listOfCourses",
      "outputs": [
        {
          "internalType": "uint256",
          "name": "courseId",
          "type": "uint256"
        },
        {
          "internalType": "string",
          "name": "courseName",
          "type": "string"
        },
        {
          "internalType": "string",
          "name": "description",
          "type": "string"
        },
        {
          "internalType": "bool",
          "name": "approved",
          "type": "bool"
        },
        {
          "internalType": "uint256",
          "name": "approvalCount",
          "type": "uint256"
        },
        {
          "internalType": "address",
          "name": "creator",
          "type": "address"
        },
        {
          "internalType": "bool",
          "name": "exists",
          "type": "bool"
        },
        {
          "internalType": "enum Ecosystem.DifficultyLevel",
          "name": "difficultyLevel",
          "type": "uint8"
        }
      ],
      "stateMutability": "view",
      "type": "function"
    },
    {
      "inputs": [
        {
          "internalType": "uint256",
          "name": "",
          "type": "uint256"
        }
      ],
      "name": "listOfLessons",
      "outputs": [
        {
          "internalType": "uint256",
          "name": "chapterId",
          "type": "uint256"
        },
        {
          "internalType": "uint256",
          "name": "lessonId",
          "type": "uint256"
        },
        {
          "internalType": "string",
          "name": "lessonName",
          "type": "string"
        },
        {
          "internalType": "string",
          "name": "lessonContent",
          "type": "string"
        },
        {
          "internalType": "uint256",
          "name": "resourceCount",
          "type": "uint256"
        },
        {
          "internalType": "bool",
          "name": "exists",
          "type": "bool"
        }
      ],
      "stateMutability": "view",
      "type": "function"
    },
    {
      "inputs": [
        {
          "internalType": "uint256",
          "name": "",
          "type": "uint256"
        }
      ],
      "name": "listOfQuestions",
      "outputs": [
        {
          "internalType": "uint256",
          "name": "quizId",
          "type": "uint256"
        },
        {
          "internalType": "uint256",
          "name": "questionId",
          "type": "uint256"
        },
        {
          "internalType": "string",
          "name": "questionText",
          "type": "string"
        }
      ],
      "stateMutability": "view",
      "type": "function"
    },
    {
      "inputs": [
        {
          "internalType": "uint256",
          "name": "",
          "type": "uint256"
        }
      ],
      "name": "listOfQuizzes",
      "outputs": [
        {
          "internalType": "uint256",
          "name": "lessonId",
          "type": "uint256"
        },
        {
          "internalType": "uint256",
          "name": "quizId",
          "type": "uint256"
        },
        {
          "internalType": "string",
          "name": "quizTitle",
          "type": "string"
        },
        {
          "internalType": "bool",
          "name": "exists",
          "type": "bool"
        }
      ],
      "stateMutability": "view",
      "type": "function"
    },
    {
      "inputs": [
        {
          "internalType": "uint256",
          "name": "",
          "type": "uint256"
        }
      ],
      "name": "listOfResource",
      "outputs": [
        {
          "internalType": "enum Ecosystem.ContentType",
          "name": "contentType",
          "type": "uint8"
        },
        {
          "internalType": "string",
          "name": "url",
          "type": "string"
        },
        {
          "internalType": "string",
          "name": "name",
          "type": "string"
        }
      ],
      "stateMutability": "view",
      "type": "function"
    },
    {
      "inputs": [
        {
          "internalType": "uint256",
          "name": "_courseId",
          "type": "uint256"
        },
        {
          "internalType": "uint256",
          "name": "_chapterId",
          "type": "uint256"
        },
        {
          "internalType": "uint256",
          "name": "_lessonId",
          "type": "uint256"
        }
      ],
      "name": "markAsRead",
      "outputs": [
        {
          "internalType": "bool",
          "name": "",
          "type": "bool"
        }
      ],
      "stateMutability": "nonpayable",
      "type": "function"
    },
    {
      "inputs": [
        {
          "internalType": "uint256",
          "name": "",
          "type": "uint256"
        }
      ],
      "name": "multiSigProposals",
      "outputs": [
        {
          "internalType": "uint256",
          "name": "id",
          "type": "uint256"
        },
        {
          "internalType": "address",
          "name": "proposer",
          "type": "address"
        },
        {
          "internalType": "address",
          "name": "targetContract",
          "type": "address"
        },
        {
          "internalType": "bytes",
          "name": "data",
          "type": "bytes"
        },
        {
          "internalType": "uint256",
          "name": "approvalCount",
          "type": "uint256"
        },
        {
          "internalType": "bool",
          "name": "executed",
          "type": "bool"
        }
      ],
      "stateMutability": "view",
      "type": "function"
    },
    {
      "inputs": [],
      "name": "name",
      "outputs": [
        {
          "internalType": "string",
          "name": "",
          "type": "string"
        }
      ],
      "stateMutability": "view",
      "type": "function"
    },
    {
      "inputs": [],
      "name": "nextChapterId",
      "outputs": [
        {
          "internalType": "uint256",
          "name": "",
          "type": "uint256"
        }
      ],
      "stateMutability": "view",
      "type": "function"
    },
    {
      "inputs": [],
      "name": "nextChoiceId",
      "outputs": [
        {
          "internalType": "uint256",
          "name": "",
          "type": "uint256"
        }
      ],
      "stateMutability": "view",
      "type": "function"
    },
    {
      "inputs": [],
      "name": "nextCourseId",
      "outputs": [
        {
          "internalType": "uint256",
          "name": "",
          "type": "uint256"
        }
      ],
      "stateMutability": "view",
      "type": "function"
    },
    {
      "inputs": [],
      "name": "nextCourseIdd",
      "outputs": [
        {
          "internalType": "uint256",
          "name": "",
          "type": "uint256"
        }
      ],
      "stateMutability": "view",
      "type": "function"
    },
    {
      "inputs": [],
      "name": "nextLessonId",
      "outputs": [
        {
          "internalType": "uint256",
          "name": "",
          "type": "uint256"
        }
      ],
      "stateMutability": "view",
      "type": "function"
    },
    {
      "inputs": [],
      "name": "nextQuestionId",
      "outputs": [
        {
          "internalType": "uint256",
          "name": "",
          "type": "uint256"
        }
      ],
      "stateMutability": "view",
      "type": "function"
    },
    {
      "inputs": [],
      "name": "nextQuizId",
      "outputs": [
        {
          "internalType": "uint256",
          "name": "",
          "type": "uint256"
        }
      ],
      "stateMutability": "view",
      "type": "function"
    },
    {
      "inputs": [
        {
          "internalType": "uint256",
          "name": "",
          "type": "uint256"
        }
      ],
      "name": "questions",
      "outputs": [
        {
          "internalType": "uint256",
          "name": "quizId",
          "type": "uint256"
        },
        {
          "internalType": "uint256",
          "name": "questionId",
          "type": "uint256"
        },
        {
          "internalType": "string",
          "name": "questionText",
          "type": "string"
        }
      ],
      "stateMutability": "view",
      "type": "function"
    },
    {
      "inputs": [
        {
          "internalType": "uint256",
          "name": "",
          "type": "uint256"
        }
      ],
      "name": "quizzes",
      "outputs": [
        {
          "internalType": "uint256",
          "name": "lessonId",
          "type": "uint256"
        },
        {
          "internalType": "uint256",
          "name": "quizId",
          "type": "uint256"
        },
        {
          "internalType": "string",
          "name": "quizTitle",
          "type": "string"
        },
        {
          "internalType": "bool",
          "name": "exists",
          "type": "bool"
        }
      ],
      "stateMutability": "view",
      "type": "function"
    },
    {
      "inputs": [
        {
          "internalType": "address",
          "name": "approver",
          "type": "address"
        }
      ],
      "name": "removeMultiSigApprover",
      "outputs": [],
      "stateMutability": "nonpayable",
      "type": "function"
    },
    {
      "inputs": [
        {
          "internalType": "address",
          "name": "reviewer",
          "type": "address"
        }
      ],
      "name": "removeReviewer",
      "outputs": [],
      "stateMutability": "nonpayable",
      "type": "function"
    },
    {
      "inputs": [
        {
          "internalType": "bytes32",
          "name": "role",
          "type": "bytes32"
        },
        {
          "internalType": "address",
          "name": "callerConfirmation",
          "type": "address"
        }
      ],
      "name": "renounceRole",
      "outputs": [],
      "stateMutability": "nonpayable",
      "type": "function"
    },
    {
      "inputs": [
        {
          "internalType": "uint256",
          "name": "",
          "type": "uint256"
        }
      ],
      "name": "reviewerPool",
      "outputs": [
        {
          "internalType": "address",
          "name": "",
          "type": "address"
        }
      ],
      "stateMutability": "view",
      "type": "function"
    },
    {
      "inputs": [
        {
          "internalType": "uint256",
          "name": "",
          "type": "uint256"
        },
        {
          "internalType": "address",
          "name": "",
          "type": "address"
        }
      ],
      "name": "reviews",
      "outputs": [
        {
          "internalType": "uint256",
          "name": "learnerAgency",
          "type": "uint256"
        },
        {
          "internalType": "uint256",
          "name": "criticalThinking",
          "type": "uint256"
        },
        {
          "internalType": "uint256",
          "name": "collaborativeLearning",
          "type": "uint256"
        },
        {
          "internalType": "uint256",
          "name": "reflectivePractice",
          "type": "uint256"
        },
        {
          "internalType": "uint256",
          "name": "adaptiveLearning",
          "type": "uint256"
        },
        {
          "internalType": "uint256",
          "name": "authenticLearning",
          "type": "uint256"
        },
        {
          "internalType": "uint256",
          "name": "technologyIntegration",
          "type": "uint256"
        },
        {
          "internalType": "uint256",
          "name": "learnerSupport",
          "type": "uint256"
        },
        {
          "internalType": "uint256",
          "name": "assessmentForLearning",
          "type": "uint256"
        },
        {
          "internalType": "uint256",
          "name": "engagementAndMotivation",
          "type": "uint256"
        },
        {
          "internalType": "bool",
          "name": "isSubmitted",
          "type": "bool"
        }
      ],
      "stateMutability": "view",
      "type": "function"
    },
    {
      "inputs": [
        {
          "internalType": "bytes32",
          "name": "role",
          "type": "bytes32"
        },
        {
          "internalType": "address",
          "name": "account",
          "type": "address"
        }
      ],
      "name": "revokeRole",
      "outputs": [],
      "stateMutability": "nonpayable",
      "type": "function"
    },
    {
      "inputs": [
        {
          "internalType": "uint256",
          "name": "courseId",
          "type": "uint256"
        }
      ],
      "name": "selectCourseReviewers",
      "outputs": [],
      "stateMutability": "nonpayable",
      "type": "function"
    },
    {
      "inputs": [
        {
          "internalType": "uint256",
          "name": "courseId",
          "type": "uint256"
        },
        {
          "internalType": "uint256",
          "name": "learnerAgency",
          "type": "uint256"
        },
        {
          "internalType": "uint256",
          "name": "criticalThinking",
          "type": "uint256"
        },
        {
          "internalType": "uint256",
          "name": "collaborativeLearning",
          "type": "uint256"
        },
        {
          "internalType": "uint256",
          "name": "reflectivePractice",
          "type": "uint256"
        },
        {
          "internalType": "uint256",
          "name": "adaptiveLearning",
          "type": "uint256"
        },
        {
          "internalType": "uint256",
          "name": "authenticLearning",
          "type": "uint256"
        },
        {
          "internalType": "uint256",
          "name": "technologyIntegration",
          "type": "uint256"
        },
        {
          "internalType": "uint256",
          "name": "learnerSupport",
          "type": "uint256"
        },
        {
          "internalType": "uint256",
          "name": "assessmentForLearning",
          "type": "uint256"
        },
        {
          "internalType": "uint256",
          "name": "engagementAndMotivation",
          "type": "uint256"
        }
      ],
      "name": "submitReview",
      "outputs": [],
      "stateMutability": "nonpayable",
      "type": "function"
    },
    {
      "inputs": [
        {
          "internalType": "bytes4",
          "name": "interfaceId",
          "type": "bytes4"
        }
      ],
      "name": "supportsInterface",
      "outputs": [
        {
          "internalType": "bool",
          "name": "",
          "type": "bool"
        }
      ],
      "stateMutability": "view",
      "type": "function"
    },
    {
      "inputs": [],
      "name": "symbol",
      "outputs": [
        {
          "internalType": "string",
          "name": "",
          "type": "string"
        }
      ],
      "stateMutability": "view",
      "type": "function"
    },
    {
      "inputs": [],
      "name": "totalSupply",
      "outputs": [
        {
          "internalType": "uint256",
          "name": "",
          "type": "uint256"
        }
      ],
      "stateMutability": "view",
      "type": "function"
    },
    {
      "inputs": [
        {
          "internalType": "address",
          "name": "to",
          "type": "address"
        },
        {
          "internalType": "uint256",
          "name": "value",
          "type": "uint256"
        }
      ],
      "name": "transfer",
      "outputs": [
        {
          "internalType": "bool",
          "name": "",
          "type": "bool"
        }
      ],
      "stateMutability": "nonpayable",
      "type": "function"
    },
    {
      "inputs": [
        {
          "internalType": "address",
          "name": "from",
          "type": "address"
        },
        {
          "internalType": "address",
          "name": "to",
          "type": "address"
        },
        {
          "internalType": "uint256",
          "name": "value",
          "type": "uint256"
        }
      ],
      "name": "transferFrom",
      "outputs": [
        {
          "internalType": "bool",
          "name": "",
          "type": "bool"
        }
      ],
      "stateMutability": "nonpayable",
      "type": "function"
    },
    {
      "inputs": [
        {
          "internalType": "uint256",
          "name": "_courseId",
          "type": "uint256"
        }
      ],
      "name": "unEnroll",
      "outputs": [
        {
          "internalType": "bool",
          "name": "",
          "type": "bool"
        }
      ],
      "stateMutability": "nonpayable",
      "type": "function"
    },
    {
      "inputs": [
        {
          "internalType": "address",
          "name": "",
          "type": "address"
        },
        {
          "internalType": "uint256",
          "name": "",
          "type": "uint256"
        }
      ],
      "name": "userCompletedLessons",
      "outputs": [
        {
          "internalType": "uint256",
          "name": "",
          "type": "uint256"
        }
      ],
      "stateMutability": "view",
      "type": "function"
    },
    {
      "inputs": [
        {
          "internalType": "address",
          "name": "",
          "type": "address"
        },
        {
          "internalType": "uint256",
          "name": "",
          "type": "uint256"
        },
        {
          "internalType": "uint256",
          "name": "",
          "type": "uint256"
        }
      ],
      "name": "userCompletedLessonsByCourse",
      "outputs": [
        {
          "internalType": "uint256",
          "name": "",
          "type": "uint256"
        }
      ],
      "stateMutability": "view",
      "type": "function"
    }
  ],
  "bytecode": "0x608060405234801561001057600080fd5b5060405161c09e38038061c09e8339818101604052810190610032919061063b565b80806040518060400160405280600a81526020017f4142594120544f4b454e000000000000000000000000000000000000000000008152506040518060400160405280600681526020017f414259544b4e000000000000000000000000000000000000000000000000000081525081600390816100af91906108a5565b5080600490816100bf91906108a5565b505050600481511015610107576040517f08c379a00000000000000000000000000000000000000000000000000000000081526004016100fe906109fa565b60405180910390fd5b61011a6000801b336102c060201b60201c565b5061014b7fdf1425bae297c2f52b4f15d18a50b1fc8cb5b981a981b1d213ed3ff92681b64d336102c060201b60201c565b5060005b815181101561029f576101a27fc10c77be35aff266144ed64c26a1fa104bae2f284ae99ac4a34203454704a18583838151811061018f5761018e610a1a565b5b60200260200101516102c060201b60201c565b5060068282815181106101b8576101b7610a1a565b5b60200260200101519080600181540180825580915050600190039060005260206000200160009091909190916101000a81548173ffffffffffffffffffffffffffffffffffffffff021916908373ffffffffffffffffffffffffffffffffffffffff16021790555060016008600084848151811061023957610238610a1a565b5b602002602001015173ffffffffffffffffffffffffffffffffffffffff1673ffffffffffffffffffffffffffffffffffffffff16815260200190815260200160002060006101000a81548160ff021916908315150217905550808060010191505061014f565b50506001600a819055506102b9600b6103be60201b60201c565b5050610a49565b60006102d283836103fd60201b60201c565b6103b35760016005600085815260200190815260200160002060000160008473ffffffffffffffffffffffffffffffffffffffff1673ffffffffffffffffffffffffffffffffffffffff16815260200190815260200160002060006101000a81548160ff02191690831515021790555061035061046860201b60201c565b73ffffffffffffffffffffffffffffffffffffffff168273ffffffffffffffffffffffffffffffffffffffff16847f2f8788117e7eff1d82e926ec794901d17c78024a50270940304540a733656f0d60405160405180910390a4600190506103b8565b600090505b92915050565b60018160000181905550600181600101819055506001816002018190555060018160030181905550600181600401819055506001816005018190555050565b60006005600084815260200190815260200160002060000160008373ffffffffffffffffffffffffffffffffffffffff1673ffffffffffffffffffffffffffffffffffffffff16815260200190815260200160002060009054906101000a900460ff16905092915050565b600033905090565b6000604051905090565b600080fd5b600080fd5b600080fd5b6000601f19601f8301169050919050565b7f4e487b7100000000000000000000000000000000000000000000000000000000600052604160045260246000fd5b6104d282610489565b810181811067ffffffffffffffff821117156104f1576104f061049a565b5b80604052505050565b6000610504610470565b905061051082826104c9565b919050565b600067ffffffffffffffff8211156105305761052f61049a565b5b602082029050602081019050919050565b600080fd5b600073ffffffffffffffffffffffffffffffffffffffff82169050919050565b600061057182610546565b9050919050565b61058181610566565b811461058c57600080fd5b50565b60008151905061059e81610578565b92915050565b60006105b76105b284610515565b6104fa565b905080838252602082019050602084028301858111156105da576105d9610541565b5b835b8181101561060357806105ef888261058f565b8452602084019350506020810190506105dc565b5050509392505050565b600082601f83011261062257610621610484565b5b81516106328482602086016105a4565b91505092915050565b6000602082840312156106515761065061047a565b5b600082015167ffffffffffffffff81111561066f5761066e61047f565b5b61067b8482850161060d565b91505092915050565b600081519050919050565b7f4e487b7100000000000000000000000000000000000000000000000000000000600052602260045260246000fd5b600060028204905060018216806106d657607f821691505b6020821081036106e9576106e861068f565b5b50919050565b60008190508160005260206000209050919050565b60006020601f8301049050919050565b600082821b905092915050565b6000600883026107517fffffffffffffffffffffffffffffffffffffffffffffffffffffffffffffffff82610714565b61075b8683610714565b95508019841693508086168417925050509392505050565b6000819050919050565b6000819050919050565b60006107a261079d61079884610773565b61077d565b610773565b9050919050565b6000819050919050565b6107bc83610787565b6107d06107c8826107a9565b848454610721565b825550505050565b600090565b6107e56107d8565b6107f08184846107b3565b505050565b5b81811015610814576108096000826107dd565b6001810190506107f6565b5050565b601f8211156108595761082a816106ef565b61083384610704565b81016020851015610842578190505b61085661084e85610704565b8301826107f5565b50505b505050565b600082821c905092915050565b600061087c6000198460080261085e565b1980831691505092915050565b6000610895838361086b565b9150826002028217905092915050565b6108ae82610684565b67ffffffffffffffff8111156108c7576108c661049a565b5b6108d182546106be565b6108dc828285610818565b600060209050601f83116001811461090f57600084156108fd578287015190505b6109078582610889565b86555061096f565b601f19841661091d866106ef565b60005b8281101561094557848901518255600182019150602085019450602081019050610920565b86831015610962578489015161095e601f89168261086b565b8355505b6001600288020188555050505b505050505050565b600082825260208201905092915050565b7f4174206c6561737420342072657669657765727320617265207265717569726560008201527f6400000000000000000000000000000000000000000000000000000000000000602082015250565b60006109e4602183610977565b91506109ef82610988565b604082019050919050565b60006020820190508181036000830152610a13816109d7565b9050919050565b7f4e487b7100000000000000000000000000000000000000000000000000000000600052603260045260246000fd5b61b64680610a586000396000f3fe608060405234801561001057600080fd5b50600436106104d85760003560e01c80637528499811610283578063bad0dd651161015c578063d3751bfc116100ce578063ded5c18d11610092578063ded5c18d14611191578063e503f108146111af578063eb264b9c146111cd578063f57d585b146111eb578063fdc6258a1461121b578063ffabc6731461124b576104d8565b8063d3751bfc146110d9578063d547741f146110f5578063d93f2caa14611111578063dd62ed3e1461112f578063ddfc79fb1461115f576104d8565b8063c7954e4c11610120578063c7954e4c14610fdb578063c90c884d14610ff9578063c9442dac1461102d578063c976831514611049578063d036469414611079578063d214ba74146110a9576104d8565b8063bad0dd6514610ef0578063bfd2f4c514610f0c578063c12804fb14610f41578063c293bbbe14610f7b578063c491b04c14610fab576104d8565b8063a14ecbdf116101f5578063a3f7e096116101b9578063a3f7e09614610df6578063a9059cbb14610e26578063aa95da3a14610e56578063ac678a9314610e86578063ac957c6314610eb6578063b31a4af314610ed4576104d8565b8063a14ecbdf14610d38578063a1cd05b114610d56578063a217fddf14610d86578063a296ea5814610da4578063a3ef204114610dc2576104d8565b80638a2492bb116102475780638a2492bb14610c505780638ea6e2fd14610c8057806391d1485414610c9c57806395d89b4114610ccc5780639ad0112714610cea5780639bce575114610d1a576104d8565b80637528499814610ba957806375b9d86914610bc55780637d83daf214610be1578063846f815214610bff57806388409afa14610c1d576104d8565b806332cb6b0c116103b557806351d93c811161032757806366055159116102eb5780636605515914610acc5780636a4af0fa14610aea5780636b000fa714610b085780636fdb67f714610b2657806370a0823114610b5d57806373a82b5f14610b8d576104d8565b806351d93c8114610a1257806352994e2f14610a4457806358a3fa2514610a62578063599c553314610a7e578063632c224b14610a9c576104d8565b80633693dcfa116103795780633693dcfa146109215780633b129a561461093f57806340932bf81461095d5780634a474b9c146109925780634d42ef48146109c25780634d6ca5d5146109f6576104d8565b806332cb6b0c1461085657806334359da91461087457806334445897146108a557806334ed4bdb146108d557806336568abe14610905576104d8565b806323b872dd1161044e5780632990db7c116104125780632990db7c1461076057806329a0be65146107975780632aac61ae146107b55780632f2ff15d146107ea578063313ce5671461080657806331b1b97814610824576104d8565b806323b872dd14610691578063248a9ca3146106c1578063274202f0146106f157806327ff62231461070f578063295b825a1461072d576104d8565b806311ce15df116104a057806311ce15df1461059757806313e85811146105c757806318160ddd146105f757806319656f7b1461061557806319f102ec1461063157806320bd031614610661576104d8565b806301ffc9a7146104dd57806304e48bd11461050d578063057f46bb1461052b57806306fdde0314610549578063095ea7b314610567575b600080fd5b6104f760048036038101906104f29190618183565b61127b565b60405161050491906181cb565b60405180910390f35b6105156112f5565b604051610522919061859a565b60405180910390f35b61053361172b565b60405161054091906185cb565b60405180910390f35b610551611731565b60405161055e9190618630565b60405180910390f35b610581600480360381019061057c91906186aa565b6117c3565b60405161058e91906181cb565b60405180910390f35b6105b160048036038101906105ac91906186ea565b6117e6565b6040516105be91906181cb565b60405180910390f35b6105e160048036038101906105dc9190618717565b611806565b6040516105ee91906181cb565b60405180910390f35b6105ff611835565b60405161060c91906185cb565b60405180910390f35b61062f600480360381019061062a9190618757565b61183f565b005b61064b600480360381019061064691906186ea565b61187b565b6040516106589190618793565b60405180910390f35b61067b600480360381019061067691906186ea565b6118ba565b60405161068891906181cb565b60405180910390f35b6106ab60048036038101906106a691906187ae565b611a8a565b6040516106b891906181cb565b60405180910390f35b6106db60048036038101906106d69190618837565b611ab9565b6040516106e89190618873565b60405180910390f35b6106f9611ad9565b60405161070691906185cb565b60405180910390f35b610717611b01565b60405161072491906185cb565b60405180910390f35b610747600480360381019061074291906186ea565b611b06565b604051610757949392919061888e565b60405180910390f35b61077a600480360381019061077591906186ea565b611bdb565b60405161078e9897969594939291906188e9565b60405180910390f35b61079f611d7a565b6040516107ac91906185cb565b60405180910390f35b6107cf60048036038101906107ca91906186ea565b611d80565b6040516107e196959493929190618975565b60405180910390f35b61080460048036038101906107ff91906189e4565b611ee9565b005b61080e611f0b565b60405161081b9190618a40565b60405180910390f35b61083e600480360381019061083991906186ea565b611f14565b60405161084d93929190618a5b565b60405180910390f35b61085e611fc6565b60405161086b91906185cb565b60405180910390f35b61088e600480360381019061088991906186ea565b611fd6565b60405161089c929190618b48565b60405180910390f35b6108bf60048036038101906108ba9190618b78565b612089565b6040516108cc91906185cb565b60405180910390f35b6108ef60048036038101906108ea9190618757565b6120c7565b6040516108fc91906185cb565b60405180910390f35b61091f600480360381019061091a91906189e4565b6120e5565b005b610929612160565b6040516109369190618873565b60405180910390f35b610947612184565b6040516109549190618873565b60405180910390f35b610977600480360381019061097291906186ea565b6121a8565b60405161098996959493929190618c20565b60405180910390f35b6109ac60048036038101906109a791906186ea565b6122b9565b6040516109b99190618eb3565b60405180910390f35b6109dc60048036038101906109d79190618ed5565b612543565b6040516109ed959493929190618f15565b60405180910390f35b610a106004803603810190610a0b9190618757565b61262b565b005b610a2c6004803603810190610a2791906186ea565b612667565b604051610a3b93929190618a5b565b60405180910390f35b610a4c612729565b604051610a599190618873565b60405180910390f35b610a7c6004803603810190610a779190618f6f565b61274d565b005b610a86612a13565b604051610a9391906185cb565b60405180910390f35b610ab66004803603810190610ab19190619198565b612a18565b604051610ac391906185cb565b60405180910390f35b610ad4612bdc565b604051610ae191906185cb565b60405180910390f35b610af2612be2565b604051610aff91906193b9565b60405180910390f35b610b10612f72565b604051610b1d91906185cb565b60405180910390f35b610b406004803603810190610b3b91906186ea565b612f78565b604051610b549897969594939291906188e9565b60405180910390f35b610b776004803603810190610b729190618757565b613127565b604051610b8491906185cb565b60405180910390f35b610ba76004803603810190610ba29190618757565b61316f565b005b610bc36004803603810190610bbe91906186ea565b613353565b005b610bdf6004803603810190610bda91906193db565b6136aa565b005b610be96138b8565b604051610bf691906185cb565b60405180910390f35b610c076138be565b604051610c1491906185cb565b60405180910390f35b610c376004803603810190610c3291906186ea565b6138ca565b604051610c47949392919061888e565b60405180910390f35b610c6a6004803603810190610c65919061948b565b61398f565b604051610c7791906181cb565b60405180910390f35b610c9a6004803603810190610c9591906186ea565b613e74565b005b610cb66004803603810190610cb191906189e4565b6141de565b604051610cc391906181cb565b60405180910390f35b610cd4614249565b604051610ce19190618630565b60405180910390f35b610d046004803603810190610cff91906186aa565b6142db565b604051610d1191906185cb565b60405180910390f35b610d2261430c565b604051610d2f919061964e565b60405180910390f35b610d406144a7565b604051610d4d91906185cb565b60405180910390f35b610d706004803603810190610d6b9190618ed5565b6144ad565b604051610d7d9190618793565b60405180910390f35b610d8e6144fb565b604051610d9b9190618873565b60405180910390f35b610dac614502565b604051610db99190619931565b60405180910390f35b610ddc6004803603810190610dd791906186ea565b6148da565b604051610ded959493929190618f15565b60405180910390f35b610e106004803603810190610e0b91906186ea565b6149a5565b604051610e1d91906199d0565b60405180910390f35b610e406004803603810190610e3b91906186aa565b614d07565b604051610e4d91906181cb565b60405180910390f35b610e706004803603810190610e6b9190618ed5565b614d2a565b604051610e7d9190618630565b60405180910390f35b610ea06004803603810190610e9b91906186ea565b614de2565b604051610ead919061964e565b60405180910390f35b610ebe614f1f565b604051610ecb91906185cb565b60405180910390f35b610eee6004803603810190610ee99190619a77565b614f24565b005b610f0a6004803603810190610f0591906186ea565b615316565b005b610f266004803603810190610f2191906186ea565b615615565b604051610f3896959493929190618975565b60405180910390f35b610f5b6004803603810190610f569190618717565b61576e565b604051610f729b9a99989796959493929190619aeb565b60405180910390f35b610f956004803603810190610f9091906186ea565b6157e2565b604051610fa29190619c05565b60405180910390f35b610fc56004803603810190610fc09190618757565b615883565b604051610fd291906181cb565b60405180910390f35b610fe36158a3565b604051610ff091906185cb565b60405180910390f35b611013600480360381019061100e91906186ea565b6158ad565b604051611024959493929190618f15565b60405180910390f35b61104760048036038101906110429190618757565b615988565b005b611063600480360381019061105e9190618717565b615c72565b60405161107091906181cb565b60405180910390f35b611093600480360381019061108e9190619c27565b615ca1565b6040516110a091906181cb565b60405180910390f35b6110c360048036038101906110be9190619e1e565b615f24565b6040516110d091906181cb565b60405180910390f35b6110f360048036038101906110ee9190619ed5565b61621d565b005b61110f600480360381019061110a91906189e4565b616614565b005b611119616636565b60405161112691906185cb565b60405180910390f35b61114960048036038101906111449190619f74565b616642565b60405161115691906185cb565b60405180910390f35b611179600480360381019061117491906186ea565b6166c9565b60405161118893929190619fc3565b60405180910390f35b611199616820565b6040516111a691906185cb565b60405180910390f35b6111b761682d565b6040516111c491906185cb565b60405180910390f35b6111d5616833565b6040516111e291906185cb565b60405180910390f35b611205600480360381019061120091906186ea565b616839565b60405161121291906181cb565b60405180910390f35b61123560048036038101906112309190618757565b616b81565b60405161124291906181cb565b60405180910390f35b611265600480360381019061126091906186aa565b616bb4565b60405161127291906181cb565b60405180910390f35b60007f7965db0b000000000000000000000000000000000000000000000000000000007bffffffffffffffffffffffffffffffffffffffffffffffffffffffff1916827bffffffffffffffffffffffffffffffffffffffffffffffffffffffff191614806112ee57506112ed82616be3565b5b9050919050565b6060600060268054905067ffffffffffffffff8111156113185761131761906d565b5b60405190808252806020026020018201604052801561135157816020015b61133e617bc2565b8152602001906001900390816113365790505b50905060005b60268054905081101561172357604051806101200160405280602683815481106113845761138361a008565b5b9060005260206000209060080201600001548152602001602683815481106113af576113ae61a008565b5b906000526020600020906008020160010180546113cb9061a066565b80601f01602080910402602001604051908101604052809291908181526020018280546113f79061a066565b80156114445780601f1061141957610100808354040283529160200191611444565b820191906000526020600020905b81548152906001019060200180831161142757829003601f168201915b50505050508152602001602683815481106114625761146161a008565b5b9060005260206000209060080201600201805461147e9061a066565b80601f01602080910402602001604051908101604052809291908181526020018280546114aa9061a066565b80156114f75780601f106114cc576101008083540402835291602001916114f7565b820191906000526020600020905b8154815290600101906020018083116114da57829003601f168201915b50505050508152602001602683815481106115155761151461a008565b5b906000526020600020906008020160030160009054906101000a900460ff16151581526020016026838154811061154f5761154e61a008565b5b90600052602060002090600802016004015481526020016026838154811061157a5761157961a008565b5b906000526020600020906008020160050160009054906101000a900473ffffffffffffffffffffffffffffffffffffffff1673ffffffffffffffffffffffffffffffffffffffff168152602001602683815481106115db576115da61a008565b5b906000526020600020906008020160050160149054906101000a900460ff1615158152602001602683815481106116155761161461a008565b5b90600052602060002090600802016006018054806020026020016040519081016040528092919081815260200182805480156116a657602002820191906000526020600020905b8160009054906101000a900473ffffffffffffffffffffffffffffffffffffffff1673ffffffffffffffffffffffffffffffffffffffff168152602001906001019080831161165c575b50505050508152602001602683815481106116c4576116c361a008565b5b906000526020600020906008020160070160009054906101000a900460ff1660028111156116f5576116f46183ba565b5b81525082828151811061170b5761170a61a008565b5b60200260200101819052508080600101915050611357565b508091505090565b60145481565b6060600380546117409061a066565b80601f016020809104026020016040519081016040528092919081815260200182805461176c9061a066565b80156117b95780601f1061178e576101008083540402835291602001916117b9565b820191906000526020600020905b81548152906001019060200180831161179c57829003601f168201915b5050505050905090565b6000806117ce616c4d565b90506117db818585616c55565b600191505092915050565b60246020528060005260406000206000915054906101000a900460ff1681565b602c6020528160005260406000206020528060005260406000206000915091509054906101000a900460ff1681565b6000600254905090565b6000801b61184c81616c67565b6118767fdf1425bae297c2f52b4f15d18a50b1fc8cb5b981a981b1d213ed3ff92681b64d83616c7b565b505050565b6006818154811061188b57600080fd5b906000526020600020016000915054906101000a900473ffffffffffffffffffffffffffffffffffffffff1681565b60006118c4616d6e565b6025600083815260200190815260200160002060003373ffffffffffffffffffffffffffffffffffffffff1673ffffffffffffffffffffffffffffffffffffffff16815260200190815260200160002060009054906101000a900460ff16611961576040517f08c379a00000000000000000000000000000000000000000000000000000000081526004016119589061a0e3565b60405180910390fd5b600060196000848152602001908152602001600020905060006026848154811061198e5761198d61a008565b5b906000526020600020906008020190506119ab8260060133616db4565b6119b88160060133616db4565b60006025600086815260200190815260200160002060003373ffffffffffffffffffffffffffffffffffffffff1673ffffffffffffffffffffffffffffffffffffffff16815260200190815260200160002060006101000a81548160ff021916908315150217905550611a3333671bc16d674ec80000616f51565b3373ffffffffffffffffffffffffffffffffffffffff16847f9b244c565b926d7f4e915b69f3a5c6afc2231322d0d44e821076ad8879d0d68360405160405180910390a3600192505050611a85616f78565b919050565b600080611a95616c4d565b9050611aa2858285616f82565b611aad858585617017565b60019150509392505050565b600060056000838152602001908152602001600020600101549050919050565b6064600f6b204fce5e3e25026110000000611af4919061a132565b611afe919061a1a3565b81565b606481565b602a8181548110611b1657600080fd5b9060005260206000209060050201600091509050806000015490806001015490806002018054611b459061a066565b80601f0160208091040260200160405190810160405280929190818152602001828054611b719061a066565b8015611bbe5780601f10611b9357610100808354040283529160200191611bbe565b820191906000526020600020905b815481529060010190602001808311611ba157829003601f168201915b5050505050908060040160009054906101000a900460ff16905084565b6019602052806000526040600020600091509050806000015490806001018054611c049061a066565b80601f0160208091040260200160405190810160405280929190818152602001828054611c309061a066565b8015611c7d5780601f10611c5257610100808354040283529160200191611c7d565b820191906000526020600020905b815481529060010190602001808311611c6057829003601f168201915b505050505090806002018054611c929061a066565b80601f0160208091040260200160405190810160405280929190818152602001828054611cbe9061a066565b8015611d0b5780601f10611ce057610100808354040283529160200191611d0b565b820191906000526020600020905b815481529060010190602001808311611cee57829003601f168201915b5050505050908060030160009054906101000a900460ff16908060040154908060050160009054906101000a900473ffffffffffffffffffffffffffffffffffffffff16908060050160149054906101000a900460ff16908060070160009054906101000a900460ff16905088565b60155481565b60288181548110611d9057600080fd5b9060005260206000209060240201600091509050806000015490806001015490806002018054611dbf9061a066565b80601f0160208091040260200160405190810160405280929190818152602001828054611deb9061a066565b8015611e385780601f10611e0d57610100808354040283529160200191611e38565b820191906000526020600020905b815481529060010190602001808311611e1b57829003601f168201915b505050505090806003018054611e4d9061a066565b80601f0160208091040260200160405190810160405280929190818152602001828054611e799061a066565b8015611ec65780601f10611e9b57610100808354040283529160200191611ec6565b820191906000526020600020905b815481529060010190602001808311611ea957829003601f168201915b5050505050908060220154908060230160009054906101000a900460ff16905086565b611ef282611ab9565b611efb81616c67565b611f05838361710b565b50505050565b60006012905090565b6022602052806000526040600020600091509050806000015490806001015490806002018054611f439061a066565b80601f0160208091040260200160405190810160405280929190818152602001828054611f6f9061a066565b8015611fbc5780601f10611f9157610100808354040283529160200191611fbc565b820191906000526020600020905b815481529060010190602001808311611f9f57829003601f168201915b5050505050905083565b6b204fce5e3e2502611000000081565b6060600080602e60003373ffffffffffffffffffffffffffffffffffffffff1673ffffffffffffffffffffffffffffffffffffffff168152602001908152602001600020600085815260200190815260200160002080548060200260200160405190810160405280929190818152602001828054801561207557602002820191906000526020600020905b815481526020019060010190808311612061575b505050505090508081519250925050915091565b602e60205282600052604060002060205281600052604060002081815481106120b157600080fd5b9060005260206000200160009250925050505481565b601b6020528060005260406000206000915090508060000154905081565b6120ed616c4d565b73ffffffffffffffffffffffffffffffffffffffff168173ffffffffffffffffffffffffffffffffffffffff1614612151576040517f6697b23200000000000000000000000000000000000000000000000000000000815260040160405180910390fd5b61215b8282616c7b565b505050565b7fadb22091b155738d2e889eb96f509d2a7c93234236b30400927feb4a6a15ab0081565b7fc10c77be35aff266144ed64c26a1fa104bae2f284ae99ac4a34203454704a18581565b60096020528060005260406000206000915090508060000154908060010160009054906101000a900473ffffffffffffffffffffffffffffffffffffffff16908060020160009054906101000a900473ffffffffffffffffffffffffffffffffffffffff169080600301805461221d9061a066565b80601f01602080910402602001604051908101604052809291908181526020018280546122499061a066565b80156122965780601f1061226b57610100808354040283529160200191612296565b820191906000526020600020905b81548152906001019060200180831161227957829003601f168201915b5050505050908060040154908060050160009054906101000a900460ff16905086565b60606021600083815260200190815260200160002060040160009054906101000a900460ff1661231e576040517f08c379a00000000000000000000000000000000000000000000000000000000081526004016123159061a220565b60405180910390fd5b60216000838152602001908152602001600020600301805480602002602001604051908101604052809291908181526020016000905b828210156125385783829060005260206000209060040201604051806080016040529081600082015481526020016001820154815260200160028201805461239b9061a066565b80601f01602080910402602001604051908101604052809291908181526020018280546123c79061a066565b80156124145780601f106123e957610100808354040283529160200191612414565b820191906000526020600020905b8154815290600101906020018083116123f757829003601f168201915b5050505050815260200160038201805480602002602001604051908101604052809291908181526020016000905b8282101561252157838290600052602060002090600202016040518060400160405290816000820180546124759061a066565b80601f01602080910402602001604051908101604052809291908181526020018280546124a19061a066565b80156124ee5780601f106124c3576101008083540402835291602001916124ee565b820191906000526020600020905b8154815290600101906020018083116124d157829003601f168201915b505050505081526020016001820160009054906101000a900460ff16151515158152505081526020019060010190612442565b505050508152505081526020019060010190612354565b505050509050919050565b601e602052816000526040600020818154811061255f57600080fd5b90600052602060002090600502016000915091505080600001549080600101549080600201805461258f9061a066565b80601f01602080910402602001604051908101604052809291908181526020018280546125bb9061a066565b80156126085780601f106125dd57610100808354040283529160200191612608565b820191906000526020600020905b8154815290600101906020018083116125eb57829003601f168201915b5050505050908060030154908060040160009054906101000a900460ff16905085565b6000801b61263881616c67565b6126627fdf1425bae297c2f52b4f15d18a50b1fc8cb5b981a981b1d213ed3ff92681b64d8361710b565b505050565b602b818154811061267757600080fd5b90600052602060002090600402016000915090508060000154908060010154908060020180546126a69061a066565b80601f01602080910402602001604051908101604052809291908181526020018280546126d29061a066565b801561271f5780601f106126f45761010080835404028352916020019161271f565b820191906000526020600020905b81548152906001019060200180831161270257829003601f168201915b5050505050905083565b7fdf1425bae297c2f52b4f15d18a50b1fc8cb5b981a981b1d213ed3ff92681b64d81565b7fc10c77be35aff266144ed64c26a1fa104bae2f284ae99ac4a34203454704a18561277781616c67565b6127818c336171fd565b6127c0576040517f08c379a00000000000000000000000000000000000000000000000000000000081526004016127b79061a2b2565b60405180910390fd5b601a60008d815260200190815260200160002060003373ffffffffffffffffffffffffffffffffffffffff1673ffffffffffffffffffffffffffffffffffffffff168152602001908152602001600020600a0160009054906101000a900460ff1615612861576040517f08c379a00000000000000000000000000000000000000000000000000000000081526004016128589061a344565b60405180910390fd5b6128738b8b8b8b8b8b8b8b8b8b6172c8565b6040518061016001604052808c81526020018b81526020018a815260200189815260200188815260200187815260200186815260200185815260200184815260200183815260200160011515815250601a60008e815260200190815260200160002060003373ffffffffffffffffffffffffffffffffffffffff1673ffffffffffffffffffffffffffffffffffffffff168152602001908152602001600020600082015181600001556020820151816001015560408201518160020155606082015181600301556080820151816004015560a0820151816005015560c0820151816006015560e082015181600701556101008201518160080155610120820151816009015561014082015181600a0160006101000a81548160ff02191690831515021790555090505060506129f6601a60008f815260200190815260200160002060003373ffffffffffffffffffffffffffffffffffffffff1673ffffffffffffffffffffffffffffffffffffffff16815260200190815260200160002061738d565b10612a0557612a048c613353565b5b505050505050505050505050565b600281565b6000806016549050601f600085815260200190815260200160002060230160009054906101000a900460ff16612a83576040517f08c379a0000000000000000000000000000000000000000000000000000000008152600401612a7a9061a3b0565b60405180910390fd5b600060216000838152602001908152602001600020905084816000018190555081816001018190555083816002019081612abd919061a57c565b5060018160040160006101000a81548160ff02191690831515021790555060166000815480929190612aee9061a64e565b9190505550602a819080600181540180825580915050600190039060005260206000209060050201600090919091909150600082015481600001556001820154816001015560028201816002019081612b47919061a6ac565b506003820181600301908054612b5e929190617c3a565b506004820160009054906101000a900460ff168160040160006101000a81548160ff021916908315150217905550505083604051612b9c919061a7d0565b6040518091039020827fbf27702cefbc4aea50d7c73cfee96f84f5b908f62aeafcd8b0aeae202c15050960405160405180910390a3819250505092915050565b60125481565b60606000601654905060008167ffffffffffffffff811115612c0757612c0661906d565b5b604051908082528060200260200182016040528015612c4057816020015b612c2d617cd2565b815260200190600190039081612c255790505b50905060005b82811015612f6957602160008281526020019081526020016000206040518060a00160405290816000820154815260200160018201548152602001600282018054612c909061a066565b80601f0160208091040260200160405190810160405280929190818152602001828054612cbc9061a066565b8015612d095780601f10612cde57610100808354040283529160200191612d09565b820191906000526020600020905b815481529060010190602001808311612cec57829003601f168201915b5050505050815260200160038201805480602002602001604051908101604052809291908181526020016000905b82821015612f1b57838290600052602060002090600402016040518060800160405290816000820154815260200160018201548152602001600282018054612d7e9061a066565b80601f0160208091040260200160405190810160405280929190818152602001828054612daa9061a066565b8015612df75780601f10612dcc57610100808354040283529160200191612df7565b820191906000526020600020905b815481529060010190602001808311612dda57829003601f168201915b5050505050815260200160038201805480602002602001604051908101604052809291908181526020016000905b82821015612f045783829060005260206000209060020201604051806040016040529081600082018054612e589061a066565b80601f0160208091040260200160405190810160405280929190818152602001828054612e849061a066565b8015612ed15780601f10612ea657610100808354040283529160200191612ed1565b820191906000526020600020905b815481529060010190602001808311612eb457829003601f168201915b505050505081526020016001820160009054906101000a900460ff16151515158152505081526020019060010190612e25565b505050508152505081526020019060010190612d37565b5050505081526020016004820160009054906101000a900460ff161515151581525050828281518110612f5157612f5061a008565b5b60200260200101819052508080600101915050612c46565b50809250505090565b60185481565b60268181548110612f8857600080fd5b9060005260206000209060080201600091509050806000015490806001018054612fb19061a066565b80601f0160208091040260200160405190810160405280929190818152602001828054612fdd9061a066565b801561302a5780601f10612fff5761010080835404028352916020019161302a565b820191906000526020600020905b81548152906001019060200180831161300d57829003601f168201915b50505050509080600201805461303f9061a066565b80601f016020809104026020016040519081016040528092919081815260200182805461306b9061a066565b80156130b85780601f1061308d576101008083540402835291602001916130b8565b820191906000526020600020905b81548152906001019060200180831161309b57829003601f168201915b5050505050908060030160009054906101000a900460ff16908060040154908060050160009054906101000a900473ffffffffffffffffffffffffffffffffffffffff16908060050160149054906101000a900460ff16908060070160009054906101000a900460ff16905088565b60008060008373ffffffffffffffffffffffffffffffffffffffff1673ffffffffffffffffffffffffffffffffffffffff168152602001908152602001600020549050919050565b7fc10c77be35aff266144ed64c26a1fa104bae2f284ae99ac4a34203454704a18561319981616c67565b600860008373ffffffffffffffffffffffffffffffffffffffff1673ffffffffffffffffffffffffffffffffffffffff16815260200190815260200160002060009054906101000a900460ff1615613226576040517f08c379a000000000000000000000000000000000000000000000000000000000815260040161321d9061a833565b60405180910390fd5b6132507fc10c77be35aff266144ed64c26a1fa104bae2f284ae99ac4a34203454704a1858361710b565b506006829080600181540180825580915050600190039060005260206000200160009091909190916101000a81548173ffffffffffffffffffffffffffffffffffffffff021916908373ffffffffffffffffffffffffffffffffffffffff1602179055506001600860008473ffffffffffffffffffffffffffffffffffffffff1673ffffffffffffffffffffffffffffffffffffffff16815260200190815260200160002060006101000a81548160ff0219169083151502179055508173ffffffffffffffffffffffffffffffffffffffff167fe1cb5e1230cc02e62c60b81c1aa5ade512f3eac296edb28628b4cf344f47f93160405160405180910390a25050565b7fc10c77be35aff266144ed64c26a1fa104bae2f284ae99ac4a34203454704a18561337d81616c67565b60006019600084815260200190815260200160002090508060030160009054906101000a900460ff16156133e6576040517f08c379a00000000000000000000000000000000000000000000000000000000081526004016133dd9061a89f565b60405180910390fd5b601c60003373ffffffffffffffffffffffffffffffffffffffff1673ffffffffffffffffffffffffffffffffffffffff168152602001908152602001600020600084815260200190815260200160002060009054906101000a900460ff1615613484576040517f08c379a000000000000000000000000000000000000000000000000000000000815260040161347b9061a931565b60405180910390fd5b6001601c60003373ffffffffffffffffffffffffffffffffffffffff1673ffffffffffffffffffffffffffffffffffffffff168152602001908152602001600020600085815260200190815260200160002060006101000a81548160ff0219169083151502179055508060040160008154809291906135029061a64e565b919050555060028160040154106136275760018160030160006101000a81548160ff02191690831515021790555060005b6026805490508110156135ea5783602682815481106135555761355461a008565b5b906000526020600020906008020160000154036135dd576001602682815481106135825761358161a008565b5b906000526020600020906008020160030160006101000a81548160ff0219169083151502179055508160040154602682815481106135c3576135c261a008565b5b9060005260206000209060080201600401819055506135ea565b8080600101915050613533565b506136218160050160009054906101000a900473ffffffffffffffffffffffffffffffffffffffff16674563918244f40000617422565b506136a5565b60005b6026805490508110156136a357836026828154811061364c5761364b61a008565b5b906000526020600020906008020160000154036136965781600401546026828154811061367c5761367b61a008565b5b9060005260206000209060080201600401819055506136a3565b808060010191505061362a565b505b505050565b60006015549050601d600085815260200190815260200160002060040160009054906101000a900460ff16613714576040517f08c379a000000000000000000000000000000000000000000000000000000000815260040161370b9061a99d565b60405180910390fd5b6000601f600083815260200190815260200160002090508481600001819055508181600101819055508381600201908161374e919061a57c565b5082816003019081613760919061a57c565b5060018160230160006101000a81548160ff021916908315150217905550600081602201819055506028601f600084815260200190815260200160002090806001815401808255809150506001900390600052602060002090602402016000909190919091506000820154816000015560018201548160010155600282018160020190816137ee919061a6ac565b5060038201816003019081613803919061a6ac565b50600482018160040190600a61381a929190617d03565b50602282015481602201556023820160009054906101000a900460ff168160230160006101000a81548160ff0219169083151502179055505050601560008154809291906138679061a64e565b9190505550600a8460405161387c919061a7d0565b6040518091039020837f3387c3a40ec1df95e34d25a0e5564b40d01c331b71ccbafccccc66d36c84ad8360405160405180910390a45050505050565b60135481565b671bc16d674ec8000081565b60216020528060005260406000206000915090508060000154908060010154908060020180546138f99061a066565b80601f01602080910402602001604051908101604052809291908181526020018280546139259061a066565b80156139725780601f1061394757610100808354040283529160200191613972565b820191906000526020600020905b81548152906001019060200180831161395557829003601f168201915b5050505050908060040160009054906101000a900460ff16905084565b600060196000601354815260200190815260200160002060050160149054906101000a900460ff16156139f7576040517f08c379a00000000000000000000000000000000000000000000000000000000081526004016139ee9061aa09565b60405180910390fd5b60006040518061012001604052806013548152602001868152602001858152602001600015158152602001600081526020013373ffffffffffffffffffffffffffffffffffffffff168152602001600115158152602001600067ffffffffffffffff811115613a6957613a6861906d565b5b604051908082528060200260200182016040528015613a975781602001602082028036833780820191505090505b508152602001846002811115613ab057613aaf6183ba565b5b815250905080601960006013548152602001908152602001600020600082015181600001556020820151816001019081613aea919061a57c565b506040820151816002019081613b00919061a57c565b5060608201518160030160006101000a81548160ff0219169083151502179055506080820151816004015560a08201518160050160006101000a81548173ffffffffffffffffffffffffffffffffffffffff021916908373ffffffffffffffffffffffffffffffffffffffff16021790555060c08201518160050160146101000a81548160ff02191690831515021790555060e0820151816006019080519060200190613bae929190617dad565b506101008201518160070160006101000a81548160ff02191690836002811115613bdb57613bda6183ba565b5b02179055509050506026819080600181540180825580915050600190039060005260206000209060080201600090919091909150600082015181600001556020820151816001019081613c2e919061a57c565b506040820151816002019081613c44919061a57c565b5060608201518160030160006101000a81548160ff0219169083151502179055506080820151816004015560a08201518160050160006101000a81548173ffffffffffffffffffffffffffffffffffffffff021916908373ffffffffffffffffffffffffffffffffffffffff16021790555060c08201518160050160146101000a81548160ff02191690831515021790555060e0820151816006019080519060200190613cf2929190617dad565b506101008201518160070160006101000a81548160ff02191690836002811115613d1f57613d1e6183ba565b5b0217905550505060126000815480929190613d399061a64e565b91905055506001601b60003373ffffffffffffffffffffffffffffffffffffffff1673ffffffffffffffffffffffffffffffffffffffff1681526020019081526020016000206000016000828254613d91919061aa29565b9250508190555060136000815480929190613dab9061a64e565b9190505550613dda7fadb22091b155738d2e889eb96f509d2a7c93234236b30400927feb4a6a15ab003361710b565b5084604051613de9919061a7d0565b60405180910390206001601354613e00919061aa5d565b7f9c93a42b217373d37e6c66ace0a67fe1fa1f78c93164b62417de69c48c0f67e2601960006001601354613e34919061aa5d565b815260200190815260200160002060030160009054906101000a900460ff16604051613e6091906181cb565b60405180910390a360019150509392505050565b7fadb22091b155738d2e889eb96f509d2a7c93234236b30400927feb4a6a15ab00613e9e81616c67565b6024600083815260200190815260200160002060009054906101000a900460ff1615613eff576040517f08c379a0000000000000000000000000000000000000000000000000000000008152600401613ef69061aadd565b60405180910390fd5b60036006805490501015613f48576040517f08c379a0000000000000000000000000000000000000000000000000000000008152600401613f3f9061ab49565b60405180910390fd5b602360008381526020019081526020016000206000613f679190617e37565b60005b6003811015614144576000600680549050424460068054905085604051602001613f97949392919061ab8a565b6040516020818303038152906040528051906020012060001c613fba919061abd8565b9050600060068281548110613fd257613fd161a008565b5b9060005260206000200160009054906101000a900473ffffffffffffffffffffffffffffffffffffffff1690506000805b60236000888152602001908152602001600020805490508110156140b9578273ffffffffffffffffffffffffffffffffffffffff1660236000898152602001908152602001600020828154811061405d5761405c61a008565b5b9060005260206000200160009054906101000a900473ffffffffffffffffffffffffffffffffffffffff1673ffffffffffffffffffffffffffffffffffffffff16036140ac57600191506140b9565b8080600101915050614003565b50806141345760236000878152602001908152602001600020829080600181540180825580915050600190039060005260206000200160009091909190916101000a81548173ffffffffffffffffffffffffffffffffffffffff021916908373ffffffffffffffffffffffffffffffffffffffff1602179055505b5050508080600101915050613f6a565b5060036023600084815260200190815260200160002080549050036141905760016024600084815260200190815260200160002060006101000a81548160ff0219169083151502179055505b817fe205dff861c570b8df17e26f893778853f94bb25d2de318755e48eab0b403ff7602360008581526020019081526020016000206040516141d2919061acf5565b60405180910390a25050565b60006005600084815260200190815260200160002060000160008373ffffffffffffffffffffffffffffffffffffffff1673ffffffffffffffffffffffffffffffffffffffff16815260200190815260200160002060009054906101000a900460ff16905092915050565b6060600480546142589061a066565b80601f01602080910402602001604051908101604052809291908181526020018280546142849061a066565b80156142d15780601f106142a6576101008083540402835291602001916142d1565b820191906000526020600020905b8154815290600101906020018083116142b457829003601f168201915b5050505050905090565b602d60205281600052604060002081815481106142f757600080fd5b90600052602060002001600091509150505481565b60606000602780549050905060008167ffffffffffffffff8111156143345761433361906d565b5b60405190808252806020026020018201604052801561436d57816020015b61435a617e58565b8152602001906001900390816143525790505b50905060005b8281101561449e576027818154811061438f5761438e61a008565b5b90600052602060002090600502016040518060a001604052908160008201548152602001600182015481526020016002820180546143cc9061a066565b80601f01602080910402602001604051908101604052809291908181526020018280546143f89061a066565b80156144455780601f1061441a57610100808354040283529160200191614445565b820191906000526020600020905b81548152906001019060200180831161442857829003601f168201915b50505050508152602001600382015481526020016004820160009054906101000a900460ff1615151515815250508282815181106144865761448561a008565b5b60200260200101819052508080600101915050614373565b50809250505090565b60115481565b602360205281600052604060002081815481106144c957600080fd5b906000526020600020016000915091509054906101000a900473ffffffffffffffffffffffffffffffffffffffff1681565b6000801b81565b60606000602880549050905060008167ffffffffffffffff81111561452a5761452961906d565b5b60405190808252806020026020018201604052801561456357816020015b614550617e89565b8152602001906001900390816145485790505b50905060005b828110156148d157602881815481106145855761458461a008565b5b90600052602060002090602402016040518060e001604052908160008201548152602001600182015481526020016002820180546145c29061a066565b80601f01602080910402602001604051908101604052809291908181526020018280546145ee9061a066565b801561463b5780601f106146105761010080835404028352916020019161463b565b820191906000526020600020905b81548152906001019060200180831161461e57829003601f168201915b505050505081526020016003820180546146549061a066565b80601f01602080910402602001604051908101604052809291908181526020018280546146809061a066565b80156146cd5780601f106146a2576101008083540402835291602001916146cd565b820191906000526020600020905b8154815290600101906020018083116146b057829003601f168201915b5050505050815260200160048201600a80602002604051908101604052809291906000905b82821015614879578382600302016040518060600160405290816000820160009054906101000a900460ff1660028111156147305761472f6183ba565b5b6002811115614742576147416183ba565b5b81526020016001820180546147569061a066565b80601f01602080910402602001604051908101604052809291908181526020018280546147829061a066565b80156147cf5780601f106147a4576101008083540402835291602001916147cf565b820191906000526020600020905b8154815290600101906020018083116147b257829003601f168201915b505050505081526020016002820180546147e89061a066565b80601f01602080910402602001604051908101604052809291908181526020018280546148149061a066565b80156148615780601f1061483657610100808354040283529160200191614861565b820191906000526020600020905b81548152906001019060200180831161484457829003601f168201915b505050505081525050815260200190600101906146f2565b505050508152602001602282015481526020016023820160009054906101000a900460ff1615151515815250508282815181106148b9576148b861a008565b5b60200260200101819052508080600101915050614569565b50809250505090565b601d6020528060005260406000206000915090508060000154908060010154908060020180546149099061a066565b80601f01602080910402602001604051908101604052809291908181526020018280546149359061a066565b80156149825780601f1061495757610100808354040283529160200191614982565b820191906000526020600020905b81548152906001019060200180831161496557829003601f168201915b5050505050908060030154908060040160009054906101000a900460ff16905085565b6149ad617cd2565b6021600083815260200190815260200160002060040160009054906101000a900460ff16614a10576040517f08c379a0000000000000000000000000000000000000000000000000000000008152600401614a079061a220565b60405180910390fd5b602160008381526020019081526020016000206040518060a00160405290816000820154815260200160018201548152602001600282018054614a529061a066565b80601f0160208091040260200160405190810160405280929190818152602001828054614a7e9061a066565b8015614acb5780601f10614aa057610100808354040283529160200191614acb565b820191906000526020600020905b815481529060010190602001808311614aae57829003601f168201915b5050505050815260200160038201805480602002602001604051908101604052809291908181526020016000905b82821015614cdd57838290600052602060002090600402016040518060800160405290816000820154815260200160018201548152602001600282018054614b409061a066565b80601f0160208091040260200160405190810160405280929190818152602001828054614b6c9061a066565b8015614bb95780601f10614b8e57610100808354040283529160200191614bb9565b820191906000526020600020905b815481529060010190602001808311614b9c57829003601f168201915b5050505050815260200160038201805480602002602001604051908101604052809291908181526020016000905b82821015614cc65783829060005260206000209060020201604051806040016040529081600082018054614c1a9061a066565b80601f0160208091040260200160405190810160405280929190818152602001828054614c469061a066565b8015614c935780601f10614c6857610100808354040283529160200191614c93565b820191906000526020600020905b815481529060010190602001808311614c7657829003601f168201915b505050505081526020016001820160009054906101000a900460ff16151515158152505081526020019060010190614be7565b505050508152505081526020019060010190614af9565b5050505081526020016004820160009054906101000a900460ff1615151515815250509050919050565b600080614d12616c4d565b9050614d1f818585617017565b600191505092915050565b602080528160005260406000208181548110614d4557600080fd5b90600052602060002001600091509150508054614d619061a066565b80601f0160208091040260200160405190810160405280929190818152602001828054614d8d9061a066565b8015614dda5780601f10614daf57610100808354040283529160200191614dda565b820191906000526020600020905b815481529060010190602001808311614dbd57829003601f168201915b505050505081565b6060601e6000838152602001908152602001600020805480602002602001604051908101604052809291908181526020016000905b82821015614f1457838290600052602060002090600502016040518060a00160405290816000820154815260200160018201548152602001600282018054614e5e9061a066565b80601f0160208091040260200160405190810160405280929190818152602001828054614e8a9061a066565b8015614ed75780601f10614eac57610100808354040283529160200191614ed7565b820191906000526020600020905b815481529060010190602001808311614eba57829003601f168201915b50505050508152602001600382015481526020016004820160009054906101000a900460ff16151515158152505081526020019060010190614e17565b505050509050919050565b605081565b7fadb22091b155738d2e889eb96f509d2a7c93234236b30400927feb4a6a15ab00614f4e81616c67565b6000601f600087815260200190815260200160002090508060230160009054906101000a900460ff16614fb6576040517f08c379a0000000000000000000000000000000000000000000000000000000008152600401614fad9061ad63565b60405180910390fd5b600081602201549050600a8585905082614fd0919061aa29565b1115615011576040517f08c379a00000000000000000000000000000000000000000000000000000000081526004016150089061adcf565b60405180910390fd5b60005b8585905081101561520257604051806060016040528087878481811061503d5761503c61a008565b5b905060200281019061504f919061adfe565b6000016020810190615061919061ae26565b6002811115615073576150726183ba565b5b815260200187878481811061508b5761508a61a008565b5b905060200281019061509d919061adfe565b80602001906150ac919061ae53565b8080601f016020809104026020016040519081016040528093929190818152602001838380828437600081840152601f19601f8201169050808301925050505050505081526020018787848181106151075761510661a008565b5b9050602002810190615119919061adfe565b8060400190615128919061ae53565b8080601f016020809104026020016040519081016040528093929190818152602001838380828437600081840152601f19601f820116905080830192505050505050508152508360040183600a81106151845761518361a008565b5b6003020160008201518160000160006101000a81548160ff021916908360028111156151b3576151b26183ba565b5b021790555060208201518160010190816151cd919061a57c565b5060408201518160020190816151e3919061a57c565b5090505081806151f29061a64e565b9250508080600101915050615014565b5080826022018190555060005b60288054905081101561530c5787602882815481106152315761523061a008565b5b906000526020600020906024020160010154036152ff57826028828154811061525d5761525c61a008565b5b9060005260206000209060240201600082015481600001556001820154816001015560028201816002019081615293919061a6ac565b50600382018160030190816152a8919061a6ac565b50600482018160040190600a6152bf929190617d03565b50602282015481602201556023820160009054906101000a900460ff168160230160006101000a81548160ff02191690831515021790555090505061530c565b808060010191505061520f565b5050505050505050565b7fdf1425bae297c2f52b4f15d18a50b1fc8cb5b981a981b1d213ed3ff92681b64d61534081616c67565b60006009600084815260200190815260200160002090508060050160009054906101000a900460ff16156153a9576040517f08c379a00000000000000000000000000000000000000000000000000000000081526004016153a09061af02565b60405180910390fd5b8060060160003373ffffffffffffffffffffffffffffffffffffffff1673ffffffffffffffffffffffffffffffffffffffff16815260200190815260200160002060009054906101000a900460ff1615615438576040517f08c379a000000000000000000000000000000000000000000000000000000000815260040161542f9061af6e565b60405180910390fd5b60018160060160003373ffffffffffffffffffffffffffffffffffffffff1673ffffffffffffffffffffffffffffffffffffffff16815260200190815260200160002060006101000a81548160ff0219169083151502179055508060040160008154809291906154a79061a64e565b9190505550827f5d4ccf5f92566d140246f4ae3b9cb35dc06fff109a7748602ad77f6260fd9a61336040516154dc9190618793565b60405180910390a260038160040154106156105760008160020160009054906101000a900473ffffffffffffffffffffffffffffffffffffffff1673ffffffffffffffffffffffffffffffffffffffff168260030160405161553e919061b031565b6000604051808303816000865af19150503d806000811461557b576040519150601f19603f3d011682016040523d82523d6000602084013e615580565b606091505b50509050806155c4576040517f08c379a00000000000000000000000000000000000000000000000000000000081526004016155bb9061b094565b60405180910390fd5b60018260050160006101000a81548160ff021916908315150217905550837f7770356c29230b95943aec59d47ead11eb426a728bf5b57f7fd8597f3c0e29ba60405160405180910390a2505b505050565b601f6020528060005260406000206000915090508060000154908060010154908060020180546156449061a066565b80601f01602080910402602001604051908101604052809291908181526020018280546156709061a066565b80156156bd5780601f10615692576101008083540402835291602001916156bd565b820191906000526020600020905b8154815290600101906020018083116156a057829003601f168201915b5050505050908060030180546156d29061a066565b80601f01602080910402602001604051908101604052809291908181526020018280546156fe9061a066565b801561574b5780601f106157205761010080835404028352916020019161574b565b820191906000526020600020905b81548152906001019060200180831161572e57829003601f168201915b5050505050908060220154908060230160009054906101000a900460ff16905086565b601a6020528160005260406000206020528060005260406000206000915091505080600001549080600101549080600201549080600301549080600401549080600501549080600601549080600701549080600801549080600901549080600a0160009054906101000a900460ff1690508b565b60606023600083815260200190815260200160002080548060200260200160405190810160405280929190818152602001828054801561587757602002820191906000526020600020905b8160009054906101000a900473ffffffffffffffffffffffffffffffffffffffff1673ffffffffffffffffffffffffffffffffffffffff168152602001906001019080831161582d575b50505050509050919050565b60086020528060005260406000206000915054906101000a900460ff1681565b6000601154905090565b602781815481106158bd57600080fd5b90600052602060002090600502016000915090508060000154908060010154908060020180546158ec9061a066565b80601f01602080910402602001604051908101604052809291908181526020018280546159189061a066565b80156159655780601f1061593a57610100808354040283529160200191615965565b820191906000526020600020905b81548152906001019060200180831161594857829003601f168201915b5050505050908060030154908060040160009054906101000a900460ff16905085565b6000801b61599581616c67565b600860008373ffffffffffffffffffffffffffffffffffffffff1673ffffffffffffffffffffffffffffffffffffffff16815260200190815260200160002060009054906101000a900460ff16615a21576040517f08c379a0000000000000000000000000000000000000000000000000000000008152600401615a189061b100565b60405180910390fd5b60005b600680549050811015615ba7578273ffffffffffffffffffffffffffffffffffffffff1660068281548110615a5c57615a5b61a008565b5b9060005260206000200160009054906101000a900473ffffffffffffffffffffffffffffffffffffffff1673ffffffffffffffffffffffffffffffffffffffff1603615b9a5760066001600680549050615ab6919061aa5d565b81548110615ac757615ac661a008565b5b9060005260206000200160009054906101000a900473ffffffffffffffffffffffffffffffffffffffff1660068281548110615b0657615b0561a008565b5b9060005260206000200160006101000a81548173ffffffffffffffffffffffffffffffffffffffff021916908373ffffffffffffffffffffffffffffffffffffffff1602179055506006805480615b6057615b5f61b120565b5b6001900381819060005260206000200160006101000a81549073ffffffffffffffffffffffffffffffffffffffff02191690559055615ba7565b8080600101915050615a24565b506000600860008473ffffffffffffffffffffffffffffffffffffffff1673ffffffffffffffffffffffffffffffffffffffff16815260200190815260200160002060006101000a81548160ff021916908315150217905550615c2a7fc10c77be35aff266144ed64c26a1fa104bae2f284ae99ac4a34203454704a18583616c7b565b508173ffffffffffffffffffffffffffffffffffffffff167f55dba9d79522b91b615629d5f3b10c2fad2d258f1768614f4a52e937ada0d0ba60405160405180910390a25050565b60256020528160005260406000206020528060005260406000206000915091509054906101000a900460ff1681565b6000602c600083815260200190815260200160002060003373ffffffffffffffffffffffffffffffffffffffff1673ffffffffffffffffffffffffffffffffffffffff16815260200190815260200160002060009054906101000a900460ff1615615d41576040517f08c379a0000000000000000000000000000000000000000000000000000000008152600401615d389061b19b565b60405180910390fd5b6000601f60008481526020019081526020016000206001015403615d9a576040517f08c379a0000000000000000000000000000000000000000000000000000000008152600401615d919061b207565b60405180910390fd5b6001602c600084815260200190815260200160002060003373ffffffffffffffffffffffffffffffffffffffff1673ffffffffffffffffffffffffffffffffffffffff16815260200190815260200160002060006101000a81548160ff021916908315150217905550602d60003373ffffffffffffffffffffffffffffffffffffffff1673ffffffffffffffffffffffffffffffffffffffff168152602001908152602001600020829080600181540180825580915050600190039060005260206000200160009091909190915055602e60003373ffffffffffffffffffffffffffffffffffffffff1673ffffffffffffffffffffffffffffffffffffffff168152602001908152602001600020600085815260200190815260200160002082908060018154018082558091505060019003906000526020600020016000909190919091505581837f2479aa0d18311382446edb0fa11d0dbd5bab1be78b1e60b343ffe4d2a5f798ad33604051615f119190618793565b60405180910390a3600190509392505050565b60008073ffffffffffffffffffffffffffffffffffffffff166019600086815260200190815260200160002060050160009054906101000a900473ffffffffffffffffffffffffffffffffffffffff1673ffffffffffffffffffffffffffffffffffffffff1603615fca576040517f08c379a0000000000000000000000000000000000000000000000000000000008152600401615fc19061b273565b60405180910390fd5b60005b83518110156161e25760006040518060a0016040528087815260200160145481526020018684815181106160045761600361a008565b5b602002602001015181526020018584815181106160245761602361a008565b5b6020026020010151815260200160011515815250905060278190806001815401808255809150506001900390600052602060002090600502016000909190919091506000820151816000015560208201518160010155604082015181600201908161608f919061a57c565b506060820151816003015560808201518160040160006101000a81548160ff021916908315150217905550505080601d60006014548152602001908152602001600020600082015181600001556020820151816001015560408201518160020190816160fb919061a57c565b506060820151816003015560808201518160040160006101000a81548160ff021916908315150217905550905050601e60008781526020019081526020016000208190806001815401808255809150506001900390600052602060002090600502016000909190919091506000820151816000015560208201518160010155604082015181600201908161618f919061a57c565b506060820151816003015560808201518160040160006101000a81548160ff0219169083151502179055505050601460008154809291906161cf9061a64e565b9190505550508080600101915050615fcd565b508251847f1eb97e969f52c132bb6c79817d1f9001078fff0cd328ce625628e1fb4cc0e7de60405160405180910390a3600190509392505050565b6021600085815260200190815260200160002060040160009054906101000a900460ff16616280576040517f08c379a00000000000000000000000000000000000000000000000000000000081526004016162779061a220565b60405180910390fd5b6000825111801561629357506004825111155b6162d2576040517f08c379a00000000000000000000000000000000000000000000000000000000081526004016162c99061b2df565b60405180910390fd5b81518160ff1610616318576040517f08c379a000000000000000000000000000000000000000000000000000000000815260040161630f9061b34b565b60405180910390fd5b60006017549050600060226000838152602001908152602001600020905085816000018190555081816001018190555084816002019081616359919061a57c565b5060005b84518160ff1610156164235760006040518060400160405280878460ff168151811061638c5761638b61a008565b5b602002602001015181526020018660ff168460ff1614151581525090508260030181908060018154018082558091505060019003906000526020600020906002020160009091909190915060008201518160000190816163ec919061a57c565b5060208201518160010160006101000a81548160ff021916908315150217905550505050808061641b9061b36b565b91505061635d565b506021600087815260200190815260200160002060030181908060018154018082558091505060019003906000526020600020906004020160009091909190915060008201548160000155600182015481600101556002820181600201908161648c919061a6ac565b5060038201816003019080546164a3929190617ece565b505050601760008154809291906164b99061a64e565b9190505550602b819080600181540180825580915050600190039060005260206000209060040201600090919091909150600082015481600001556001820154816001015560028201816002019081616512919061a6ac565b506003820181600301908054616529929190617ece565b5050507fa5bdacf4d1324fdd584bc65cf0315e4975d00b33a7ca0e6d0a73c88df8430b9586838760405161655f93929190618a5b565b60405180910390a160005b84518160ff1610156165f1577f06ef0ba2ad58c9f8eef2fc98c08fd18d801c4a971eeb45afd07f0fee3f9d60c4838260ff166018546165a9919061aa29565b878460ff16815181106165bf576165be61a008565b5b60200260200101516040516165d693929190618a5b565b60405180910390a180806165e99061b36b565b91505061656a565b50835160186000828254616605919061aa29565b92505081905550505050505050565b61661d82611ab9565b61662681616c67565b6166308383616c7b565b50505050565b674563918244f4000081565b6000600160008473ffffffffffffffffffffffffffffffffffffffff1673ffffffffffffffffffffffffffffffffffffffff16815260200190815260200160002060008373ffffffffffffffffffffffffffffffffffffffff1673ffffffffffffffffffffffffffffffffffffffff16815260200190815260200160002054905092915050565b602981815481106166d957600080fd5b90600052602060002090600302016000915090508060000160009054906101000a900460ff169080600101805461670f9061a066565b80601f016020809104026020016040519081016040528092919081815260200182805461673b9061a066565b80156167885780601f1061675d57610100808354040283529160200191616788565b820191906000526020600020905b81548152906001019060200180831161676b57829003601f168201915b50505050509080600201805461679d9061a066565b80601f01602080910402602001604051908101604052809291908181526020018280546167c99061a066565b80156168165780601f106167eb57610100808354040283529160200191616816565b820191906000526020600020905b8154815290600101906020018083116167f957829003601f168201915b5050505050905083565b6000600b60000154905090565b60165481565b60175481565b6000616843616d6e565b6019600083815260200190815260200160002060030160009054906101000a900460ff166168a6576040517f08c379a000000000000000000000000000000000000000000000000000000000815260040161689d9061b3e0565b60405180910390fd5b6025600083815260200190815260200160002060003373ffffffffffffffffffffffffffffffffffffffff1673ffffffffffffffffffffffffffffffffffffffff16815260200190815260200160002060009054906101000a900460ff1615616944576040517f08c379a000000000000000000000000000000000000000000000000000000000815260040161693b9061b44c565b60405180910390fd5b6019600083815260200190815260200160002060050160149054906101000a900460ff166169a7576040517f08c379a000000000000000000000000000000000000000000000000000000000815260040161699e9061b273565b60405180910390fd5b60006019600084815260200190815260200160002090506000602684815481106169d4576169d361a008565b5b9060005260206000209060080201905081600601339080600181540180825580915050600190039060005260206000200160009091909190916101000a81548173ffffffffffffffffffffffffffffffffffffffff021916908373ffffffffffffffffffffffffffffffffffffffff16021790555080600601339080600181540180825580915050600190039060005260206000200160009091909190916101000a81548173ffffffffffffffffffffffffffffffffffffffff021916908373ffffffffffffffffffffffffffffffffffffffff16021790555060016025600086815260200190815260200160002060003373ffffffffffffffffffffffffffffffffffffffff1673ffffffffffffffffffffffffffffffffffffffff16815260200190815260200160002060006101000a81548160ff021916908315150217905550616b2933671bc16d674ec80000617422565b503373ffffffffffffffffffffffffffffffffffffffff16847f4bf249f6b0ca5630ea4816c04b928b864a2065cb51658fd6223d83b727fd326b60405160405180910390a3600192505050616b7c616f78565b919050565b6000616bad7fc10c77be35aff266144ed64c26a1fa104bae2f284ae99ac4a34203454704a185836141de565b9050919050565b601c6020528160005260406000206020528060005260406000206000915091509054906101000a900460ff1681565b60007f01ffc9a7000000000000000000000000000000000000000000000000000000007bffffffffffffffffffffffffffffffffffffffffffffffffffffffff1916827bffffffffffffffffffffffffffffffffffffffffffffffffffffffff1916149050919050565b600033905090565b616c62838383600161750f565b505050565b616c7881616c73616c4d565b6176e6565b50565b6000616c8783836141de565b15616d635760006005600085815260200190815260200160002060000160008473ffffffffffffffffffffffffffffffffffffffff1673ffffffffffffffffffffffffffffffffffffffff16815260200190815260200160002060006101000a81548160ff021916908315150217905550616d00616c4d565b73ffffffffffffffffffffffffffffffffffffffff168273ffffffffffffffffffffffffffffffffffffffff16847ff6391f5c32d9c69d2a47ea670b442974b53935d1edc7fd64eb21e047a839171b60405160405180910390a460019050616d68565b600090505b92915050565b6002600a5403616daa576040517f3ee5aeb500000000000000000000000000000000000000000000000000000000815260040160405180910390fd5b6002600a81905550565b60005b8280549050811015616f4c578173ffffffffffffffffffffffffffffffffffffffff16838281548110616ded57616dec61a008565b5b9060005260206000200160009054906101000a900473ffffffffffffffffffffffffffffffffffffffff1673ffffffffffffffffffffffffffffffffffffffff1603616f3f5760018380549050616e44919061aa5d565b8114616ef4578260018480549050616e5c919061aa5d565b81548110616e6d57616e6c61a008565b5b9060005260206000200160009054906101000a900473ffffffffffffffffffffffffffffffffffffffff16838281548110616eab57616eaa61a008565b5b9060005260206000200160006101000a81548173ffffffffffffffffffffffffffffffffffffffff021916908373ffffffffffffffffffffffffffffffffffffffff1602179055505b82805480616f0557616f0461b120565b5b6001900381819060005260206000200160006101000a81549073ffffffffffffffffffffffffffffffffffffffff02191690559055616f4c565b8080600101915050616db7565b505050565b616f5b8282617737565b8060116000828254616f6d919061aa5d565b925050819055505050565b6001600a81905550565b6000616f8e8484616642565b90507fffffffffffffffffffffffffffffffffffffffffffffffffffffffffffffffff8110156170115781811015617001578281836040517ffb8f41b2000000000000000000000000000000000000000000000000000000008152600401616ff89392919061b46c565b60405180910390fd5b6170108484848403600061750f565b5b50505050565b600073ffffffffffffffffffffffffffffffffffffffff168373ffffffffffffffffffffffffffffffffffffffff16036170895760006040517f96c6fd1e0000000000000000000000000000000000000000000000000000000081526004016170809190618793565b60405180910390fd5b600073ffffffffffffffffffffffffffffffffffffffff168273ffffffffffffffffffffffffffffffffffffffff16036170fb5760006040517fec442f050000000000000000000000000000000000000000000000000000000081526004016170f29190618793565b60405180910390fd5b6171068383836177de565b505050565b600061711783836141de565b6171f25760016005600085815260200190815260200160002060000160008473ffffffffffffffffffffffffffffffffffffffff1673ffffffffffffffffffffffffffffffffffffffff16815260200190815260200160002060006101000a81548160ff02191690831515021790555061718f616c4d565b73ffffffffffffffffffffffffffffffffffffffff168273ffffffffffffffffffffffffffffffffffffffff16847f2f8788117e7eff1d82e926ec794901d17c78024a50270940304540a733656f0d60405160405180910390a4600190506171f7565b600090505b92915050565b600080600090505b60236000858152602001908152602001600020805490508110156172bc578273ffffffffffffffffffffffffffffffffffffffff1660236000868152602001908152602001600020828154811061725f5761725e61a008565b5b9060005260206000200160009054906101000a900473ffffffffffffffffffffffffffffffffffffffff1673ffffffffffffffffffffffffffffffffffffffff16036172af5760019150506172c2565b8080600101915050617205565b50600090505b92915050565b600a8a111580156172da5750600a8911155b80156172e75750600a8811155b80156172f45750600a8711155b80156173015750600a8611155b801561730e5750600a8511155b801561731b5750600a8411155b80156173285750600a8311155b80156173355750600a8211155b80156173425750600a8111155b617381576040517f08c379a00000000000000000000000000000000000000000000000000000000081526004016173789061b4ef565b60405180910390fd5b50505050505050505050565b60008160090154826008015483600701548460060154856005015486600401548760030154886002015489600101548a600001546173cb919061aa29565b6173d5919061aa29565b6173df919061aa29565b6173e9919061aa29565b6173f3919061aa29565b6173fd919061aa29565b617407919061aa29565b617411919061aa29565b61741b919061aa29565b9050919050565b60006064600f6b204fce5e3e2502611000000061743f919061a132565b617449919061a1a3565b6174516158a3565b8361745c919061aa29565b111561749d576040517f08c379a00000000000000000000000000000000000000000000000000000000081526004016174949061b55b565b60405180910390fd5b6174a78383617a03565b5081601160008282546174ba919061aa29565b92505081905550818373ffffffffffffffffffffffffffffffffffffffff167fad6ef58d5c294f81258965738e7ae511124139834a8d0b8f8f7327086c82052a60405160405180910390a36001905092915050565b600073ffffffffffffffffffffffffffffffffffffffff168473ffffffffffffffffffffffffffffffffffffffff16036175815760006040517fe602df050000000000000000000000000000000000000000000000000000000081526004016175789190618793565b60405180910390fd5b600073ffffffffffffffffffffffffffffffffffffffff168373ffffffffffffffffffffffffffffffffffffffff16036175f35760006040517f94280d620000000000000000000000000000000000000000000000000000000081526004016175ea9190618793565b60405180910390fd5b81600160008673ffffffffffffffffffffffffffffffffffffffff1673ffffffffffffffffffffffffffffffffffffffff16815260200190815260200160002060008573ffffffffffffffffffffffffffffffffffffffff1673ffffffffffffffffffffffffffffffffffffffff1681526020019081526020016000208190555080156176e0578273ffffffffffffffffffffffffffffffffffffffff168473ffffffffffffffffffffffffffffffffffffffff167f8c5be1e5ebec7d5bd14f71427d1e84f3dd0314c0f7b2291e5b200ac8c7c3b925846040516176d791906185cb565b60405180910390a35b50505050565b6176f082826141de565b6177335780826040517fe2517d3f00000000000000000000000000000000000000000000000000000000815260040161772a92919061b57b565b60405180910390fd5b5050565b8061774183613127565b1015617782576040517f08c379a00000000000000000000000000000000000000000000000000000000081526004016177799061b5f0565b60405180910390fd5b61778c8282617abe565b8173ffffffffffffffffffffffffffffffffffffffff167f5b5d8478b570a79ab6b3bf13ff029fba19c02ab0d54d692d4ef0d9052d5cc850826040516177d291906185cb565b60405180910390a25050565b600073ffffffffffffffffffffffffffffffffffffffff168373ffffffffffffffffffffffffffffffffffffffff1603617830578060026000828254617824919061aa29565b92505081905550617903565b60008060008573ffffffffffffffffffffffffffffffffffffffff1673ffffffffffffffffffffffffffffffffffffffff168152602001908152602001600020549050818110156178bc578381836040517fe450d38c0000000000000000000000000000000000000000000000000000000081526004016178b39392919061b46c565b60405180910390fd5b8181036000808673ffffffffffffffffffffffffffffffffffffffff1673ffffffffffffffffffffffffffffffffffffffff16815260200190815260200160002081905550505b600073ffffffffffffffffffffffffffffffffffffffff168273ffffffffffffffffffffffffffffffffffffffff160361794c5780600260008282540392505081905550617999565b806000808473ffffffffffffffffffffffffffffffffffffffff1673ffffffffffffffffffffffffffffffffffffffff168152602001908152602001600020600082825401925050819055505b8173ffffffffffffffffffffffffffffffffffffffff168373ffffffffffffffffffffffffffffffffffffffff167fddf252ad1be2c89b69c2b068fc378daa952ba7f163c4a11628f55a4df523b3ef836040516179f691906185cb565b60405180910390a3505050565b60006b204fce5e3e25026110000000617a1a611835565b83617a25919061aa29565b1115617a66576040517f08c379a0000000000000000000000000000000000000000000000000000000008152600401617a5d9061b55b565b60405180910390fd5b617a708383617b40565b818373ffffffffffffffffffffffffffffffffffffffff167fcda531bfd68624f13205c0a23cd4d5a7f09792cbb399603114f2b04aaa1bf5cf60405160405180910390a36001905092915050565b600073ffffffffffffffffffffffffffffffffffffffff168273ffffffffffffffffffffffffffffffffffffffff1603617b305760006040517f96c6fd1e000000000000000000000000000000000000000000000000000000008152600401617b279190618793565b60405180910390fd5b617b3c826000836177de565b5050565b600073ffffffffffffffffffffffffffffffffffffffff168273ffffffffffffffffffffffffffffffffffffffff1603617bb25760006040517fec442f05000000000000000000000000000000000000000000000000000000008152600401617ba99190618793565b60405180910390fd5b617bbe600083836177de565b5050565b60405180610120016040528060008152602001606081526020016060815260200160001515815260200160008152602001600073ffffffffffffffffffffffffffffffffffffffff1681526020016000151581526020016060815260200160006002811115617c3457617c336183ba565b5b81525090565b828054828255906000526020600020906004028101928215617cc15760005260206000209160040282015b82811115617cc0578282600082015481600001556001820154816001015560028201816002019081617c97919061a6ac565b506003820181600301908054617cae929190617ece565b50505091600401919060040190617c65565b5b509050617cce9190617f68565b5090565b6040518060a00160405280600081526020016000815260200160608152602001606081526020016000151581525090565b82600a6003028101928215617d9c579160030282015b82811115617d9b5782826000820160009054906101000a900460ff168160000160006101000a81548160ff02191690836002811115617d5b57617d5a6183ba565b5b021790555060018201816001019081617d74919061a6ac565b5060028201816002019081617d89919061a6ac565b50505091600301919060030190617d19565b5b509050617da99190617faf565b5090565b828054828255906000526020600020908101928215617e26579160200282015b82811115617e255782518260006101000a81548173ffffffffffffffffffffffffffffffffffffffff021916908373ffffffffffffffffffffffffffffffffffffffff16021790555091602001919060010190617dcd565b5b509050617e339190617ffa565b5090565b5080546000825590600052602060002090810190617e559190617ffa565b50565b6040518060a00160405280600081526020016000815260200160608152602001600081526020016000151581525090565b6040518060e0016040528060008152602001600081526020016060815260200160608152602001617eb8618017565b8152602001600081526020016000151581525090565b828054828255906000526020600020906002028101928215617f575760005260206000209160020282015b82811115617f5657828260008201816000019081617f17919061a6ac565b506001820160009054906101000a900460ff168160010160006101000a81548160ff021916908315150217905550505091600201919060020190617ef9565b5b509050617f649190618045565b5090565b5b80821115617fab576000808201600090556001820160009055600282016000617f929190618080565b600382016000617fa291906180c0565b50600401617f69565b5090565b5b80821115617ff657600080820160006101000a81549060ff0219169055600182016000617fdd9190618080565b600282016000617fed9190618080565b50600301617fb0565b5090565b5b80821115618013576000816000905550600101617ffb565b5090565b604051806101400160405280600a905b61802f6180e4565b8152602001906001900390816180275790505090565b5b8082111561807c576000808201600061805f9190618080565b6001820160006101000a81549060ff021916905550600201618046565b5090565b50805461808c9061a066565b6000825580601f1061809e57506180bd565b601f0160209004906000526020600020908101906180bc9190617ffa565b5b50565b50805460008255600202906000526020600020908101906180e19190618045565b50565b604051806060016040528060006002811115618103576181026183ba565b5b815260200160608152602001606081525090565b6000604051905090565b600080fd5b600080fd5b60007fffffffff0000000000000000000000000000000000000000000000000000000082169050919050565b6181608161812b565b811461816b57600080fd5b50565b60008135905061817d81618157565b92915050565b60006020828403121561819957618198618121565b5b60006181a78482850161816e565b91505092915050565b60008115159050919050565b6181c5816181b0565b82525050565b60006020820190506181e060008301846181bc565b92915050565b600081519050919050565b600082825260208201905092915050565b6000819050602082019050919050565b6000819050919050565b61822581618212565b82525050565b600081519050919050565b600082825260208201905092915050565b60005b8381101561826557808201518184015260208101905061824a565b60008484015250505050565b6000601f19601f8301169050919050565b600061828d8261822b565b6182978185618236565b93506182a7818560208601618247565b6182b081618271565b840191505092915050565b6182c4816181b0565b82525050565b600073ffffffffffffffffffffffffffffffffffffffff82169050919050565b60006182f5826182ca565b9050919050565b618305816182ea565b82525050565b600081519050919050565b600082825260208201905092915050565b6000819050602082019050919050565b600061834383836182fc565b60208301905092915050565b6000602082019050919050565b60006183678261830b565b6183718185618316565b935061837c83618327565b8060005b838110156183ad5781516183948882618337565b975061839f8361834f565b925050600181019050618380565b5085935050505092915050565b7f4e487b7100000000000000000000000000000000000000000000000000000000600052602160045260246000fd5b600381106183fa576183f96183ba565b5b50565b600081905061840b826183e9565b919050565b600061841b826183fd565b9050919050565b61842b81618410565b82525050565b60006101208301600083015161844a600086018261821c565b50602083015184820360208601526184628282618282565b9150506040830151848203604086015261847c8282618282565b915050606083015161849160608601826182bb565b5060808301516184a4608086018261821c565b5060a08301516184b760a08601826182fc565b5060c08301516184ca60c08601826182bb565b5060e083015184820360e08601526184e2828261835c565b9150506101008301516184f9610100860182618422565b508091505092915050565b60006185108383618431565b905092915050565b6000602082019050919050565b6000618530826181e6565b61853a81856181f1565b93508360208202850161854c85618202565b8060005b8581101561858857848403895281516185698582618504565b945061857483618518565b925060208a01995050600181019050618550565b50829750879550505050505092915050565b600060208201905081810360008301526185b48184618525565b905092915050565b6185c581618212565b82525050565b60006020820190506185e060008301846185bc565b92915050565b600082825260208201905092915050565b60006186028261822b565b61860c81856185e6565b935061861c818560208601618247565b61862581618271565b840191505092915050565b6000602082019050818103600083015261864a81846185f7565b905092915050565b61865b816182ea565b811461866657600080fd5b50565b60008135905061867881618652565b92915050565b61868781618212565b811461869257600080fd5b50565b6000813590506186a48161867e565b92915050565b600080604083850312156186c1576186c0618121565b5b60006186cf85828601618669565b92505060206186e085828601618695565b9150509250929050565b600060208284031215618700576186ff618121565b5b600061870e84828501618695565b91505092915050565b6000806040838503121561872e5761872d618121565b5b600061873c85828601618695565b925050602061874d85828601618669565b9150509250929050565b60006020828403121561876d5761876c618121565b5b600061877b84828501618669565b91505092915050565b61878d816182ea565b82525050565b60006020820190506187a86000830184618784565b92915050565b6000806000606084860312156187c7576187c6618121565b5b60006187d586828701618669565b93505060206187e686828701618669565b92505060406187f786828701618695565b9150509250925092565b6000819050919050565b61881481618801565b811461881f57600080fd5b50565b6000813590506188318161880b565b92915050565b60006020828403121561884d5761884c618121565b5b600061885b84828501618822565b91505092915050565b61886d81618801565b82525050565b60006020820190506188886000830184618864565b92915050565b60006080820190506188a360008301876185bc565b6188b060208301866185bc565b81810360408301526188c281856185f7565b90506188d160608301846181bc565b95945050505050565b6188e381618410565b82525050565b6000610100820190506188ff600083018b6185bc565b8181036020830152618911818a6185f7565b9050818103604083015261892581896185f7565b905061893460608301886181bc565b61894160808301876185bc565b61894e60a0830186618784565b61895b60c08301856181bc565b61896860e08301846188da565b9998505050505050505050565b600060c08201905061898a60008301896185bc565b61899760208301886185bc565b81810360408301526189a981876185f7565b905081810360608301526189bd81866185f7565b90506189cc60808301856185bc565b6189d960a08301846181bc565b979650505050505050565b600080604083850312156189fb576189fa618121565b5b6000618a0985828601618822565b9250506020618a1a85828601618669565b9150509250929050565b600060ff82169050919050565b618a3a81618a24565b82525050565b6000602082019050618a556000830184618a31565b92915050565b6000606082019050618a7060008301866185bc565b618a7d60208301856185bc565b8181036040830152618a8f81846185f7565b9050949350505050565b600081519050919050565b600082825260208201905092915050565b6000819050602082019050919050565b6000618ad1838361821c565b60208301905092915050565b6000602082019050919050565b6000618af582618a99565b618aff8185618aa4565b9350618b0a83618ab5565b8060005b83811015618b3b578151618b228882618ac5565b9750618b2d83618add565b925050600181019050618b0e565b5085935050505092915050565b60006040820190508181036000830152618b628185618aea565b9050618b7160208301846185bc565b9392505050565b600080600060608486031215618b9157618b90618121565b5b6000618b9f86828701618669565b9350506020618bb086828701618695565b9250506040618bc186828701618695565b9150509250925092565b600081519050919050565b600082825260208201905092915050565b6000618bf282618bcb565b618bfc8185618bd6565b9350618c0c818560208601618247565b618c1581618271565b840191505092915050565b600060c082019050618c3560008301896185bc565b618c426020830188618784565b618c4f6040830187618784565b8181036060830152618c618186618be7565b9050618c7060808301856185bc565b618c7d60a08301846181bc565b979650505050505050565b600081519050919050565b600082825260208201905092915050565b6000819050602082019050919050565b600081519050919050565b600082825260208201905092915050565b6000819050602082019050919050565b60006040830160008301518482036000860152618cfd8282618282565b9150506020830151618d1260208601826182bb565b508091505092915050565b6000618d298383618ce0565b905092915050565b6000602082019050919050565b6000618d4982618cb4565b618d538185618cbf565b935083602082028501618d6585618cd0565b8060005b85811015618da15784840389528151618d828582618d1d565b9450618d8d83618d31565b925060208a01995050600181019050618d69565b50829750879550505050505092915050565b6000608083016000830151618dcb600086018261821c565b506020830151618dde602086018261821c565b5060408301518482036040860152618df68282618282565b91505060608301518482036060860152618e108282618d3e565b9150508091505092915050565b6000618e298383618db3565b905092915050565b6000602082019050919050565b6000618e4982618c88565b618e538185618c93565b935083602082028501618e6585618ca4565b8060005b85811015618ea15784840389528151618e828582618e1d565b9450618e8d83618e31565b925060208a01995050600181019050618e69565b50829750879550505050505092915050565b60006020820190508181036000830152618ecd8184618e3e565b905092915050565b60008060408385031215618eec57618eeb618121565b5b6000618efa85828601618695565b9250506020618f0b85828601618695565b9150509250929050565b600060a082019050618f2a60008301886185bc565b618f3760208301876185bc565b8181036040830152618f4981866185f7565b9050618f5860608301856185bc565b618f6560808301846181bc565b9695505050505050565b60008060008060008060008060008060006101608c8e031215618f9557618f94618121565b5b6000618fa38e828f01618695565b9b50506020618fb48e828f01618695565b9a50506040618fc58e828f01618695565b9950506060618fd68e828f01618695565b9850506080618fe78e828f01618695565b97505060a0618ff88e828f01618695565b96505060c06190098e828f01618695565b95505060e061901a8e828f01618695565b94505061010061902c8e828f01618695565b93505061012061903e8e828f01618695565b9250506101406190508e828f01618695565b9150509295989b509295989b9093969950565b600080fd5b600080fd5b7f4e487b7100000000000000000000000000000000000000000000000000000000600052604160045260246000fd5b6190a582618271565b810181811067ffffffffffffffff821117156190c4576190c361906d565b5b80604052505050565b60006190d7618117565b90506190e3828261909c565b919050565b600067ffffffffffffffff8211156191035761910261906d565b5b61910c82618271565b9050602081019050919050565b82818337600083830152505050565b600061913b619136846190e8565b6190cd565b90508281526020810184848401111561915757619156619068565b5b619162848285619119565b509392505050565b600082601f83011261917f5761917e619063565b5b813561918f848260208601619128565b91505092915050565b600080604083850312156191af576191ae618121565b5b60006191bd85828601618695565b925050602083013567ffffffffffffffff8111156191de576191dd618126565b5b6191ea8582860161916a565b9150509250929050565b600081519050919050565b600082825260208201905092915050565b6000819050602082019050919050565b600082825260208201905092915050565b600061923c82618c88565b6192468185619220565b93508360208202850161925885618ca4565b8060005b8581101561929457848403895281516192758582618e1d565b945061928083618e31565b925060208a0199505060018101905061925c565b50829750879550505050505092915050565b600060a0830160008301516192be600086018261821c565b5060208301516192d1602086018261821c565b50604083015184820360408601526192e98282618282565b915050606083015184820360608601526193038282619231565b915050608083015161931860808601826182bb565b508091505092915050565b600061932f83836192a6565b905092915050565b6000602082019050919050565b600061934f826191f4565b61935981856191ff565b93508360208202850161936b85619210565b8060005b858110156193a757848403895281516193888582619323565b945061939383619337565b925060208a0199505060018101905061936f565b50829750879550505050505092915050565b600060208201905081810360008301526193d38184619344565b905092915050565b6000806000606084860312156193f4576193f3618121565b5b600061940286828701618695565b935050602084013567ffffffffffffffff81111561942357619422618126565b5b61942f8682870161916a565b925050604084013567ffffffffffffffff8111156194505761944f618126565b5b61945c8682870161916a565b9150509250925092565b6003811061947357600080fd5b50565b60008135905061948581619466565b92915050565b6000806000606084860312156194a4576194a3618121565b5b600084013567ffffffffffffffff8111156194c2576194c1618126565b5b6194ce8682870161916a565b935050602084013567ffffffffffffffff8111156194ef576194ee618126565b5b6194fb8682870161916a565b925050604061950c86828701619476565b9150509250925092565b600081519050919050565b600082825260208201905092915050565b6000819050602082019050919050565b600060a08301600083015161955a600086018261821c565b50602083015161956d602086018261821c565b50604083015184820360408601526195858282618282565b915050606083015161959a606086018261821c565b5060808301516195ad60808601826182bb565b508091505092915050565b60006195c48383619542565b905092915050565b6000602082019050919050565b60006195e482619516565b6195ee8185619521565b93508360208202850161960085619532565b8060005b8581101561963c578484038952815161961d85826195b8565b9450619628836195cc565b925060208a01995050600181019050619604565b50829750879550505050505092915050565b6000602082019050818103600083015261966881846195d9565b905092915050565b600081519050919050565b600082825260208201905092915050565b6000819050602082019050919050565b6000600a9050919050565b600081905092915050565b6000819050919050565b600381106196cd576196cc6183ba565b5b50565b60008190506196de826196bc565b919050565b60006196ee826196d0565b9050919050565b6196fe816196e3565b82525050565b600060608301600083015161971c60008601826196f5565b50602083015184820360208601526197348282618282565b9150506040830151848203604086015261974e8282618282565b9150508091505092915050565b60006197678383619704565b905092915050565b6000602082019050919050565b60006197878261969c565b61979181856196a7565b9350836020820285016197a3856196b2565b8060005b858110156197df57848403895281516197c0858261975b565b94506197cb8361976f565b925060208a019950506001810190506197a7565b50829750879550505050505092915050565b600060e083016000830151619809600086018261821c565b50602083015161981c602086018261821c565b50604083015184820360408601526198348282618282565b9150506060830151848203606086015261984e8282618282565b91505060808301518482036080860152619868828261977c565b91505060a083015161987d60a086018261821c565b5060c083015161989060c08601826182bb565b508091505092915050565b60006198a783836197f1565b905092915050565b6000602082019050919050565b60006198c782619670565b6198d1818561967b565b9350836020820285016198e38561968c565b8060005b8581101561991f5784840389528151619900858261989b565b945061990b836198af565b925060208a019950506001810190506198e7565b50829750879550505050505092915050565b6000602082019050818103600083015261994b81846198bc565b905092915050565b600060a08301600083015161996b600086018261821c565b50602083015161997e602086018261821c565b50604083015184820360408601526199968282618282565b915050606083015184820360608601526199b08282619231565b91505060808301516199c560808601826182bb565b508091505092915050565b600060208201905081810360008301526199ea8184619953565b905092915050565b600381106199ff57600080fd5b50565b600081359050619a11816199f2565b92915050565b600080fd5b600080fd5b60008083601f840112619a3757619a36619063565b5b8235905067ffffffffffffffff811115619a5457619a53619a17565b5b602083019150836020820283011115619a7057619a6f619a1c565b5b9250929050565b60008060008060608587031215619a9157619a90618121565b5b6000619a9f87828801618695565b9450506020619ab087828801619a02565b935050604085013567ffffffffffffffff811115619ad157619ad0618126565b5b619add87828801619a21565b925092505092959194509250565b600061016082019050619b01600083018e6185bc565b619b0e602083018d6185bc565b619b1b604083018c6185bc565b619b28606083018b6185bc565b619b35608083018a6185bc565b619b4260a08301896185bc565b619b4f60c08301886185bc565b619b5c60e08301876185bc565b619b6a6101008301866185bc565b619b786101208301856185bc565b619b866101408301846181bc565b9c9b505050505050505050505050565b600082825260208201905092915050565b6000619bb28261830b565b619bbc8185619b96565b9350619bc783618327565b8060005b83811015619bf8578151619bdf8882618337565b9750619bea8361834f565b925050600181019050619bcb565b5085935050505092915050565b60006020820190508181036000830152619c1f8184619ba7565b905092915050565b600080600060608486031215619c4057619c3f618121565b5b6000619c4e86828701618695565b9350506020619c5f86828701618695565b9250506040619c7086828701618695565b9150509250925092565b600067ffffffffffffffff821115619c9557619c9461906d565b5b602082029050602081019050919050565b6000619cb9619cb484619c7a565b6190cd565b90508083825260208201905060208402830185811115619cdc57619cdb619a1c565b5b835b81811015619d2357803567ffffffffffffffff811115619d0157619d00619063565b5b808601619d0e898261916a565b85526020850194505050602081019050619cde565b5050509392505050565b600082601f830112619d4257619d41619063565b5b8135619d52848260208601619ca6565b91505092915050565b600067ffffffffffffffff821115619d7657619d7561906d565b5b602082029050602081019050919050565b6000619d9a619d9584619d5b565b6190cd565b90508083825260208201905060208402830185811115619dbd57619dbc619a1c565b5b835b81811015619de65780619dd28882618695565b845260208401935050602081019050619dbf565b5050509392505050565b600082601f830112619e0557619e04619063565b5b8135619e15848260208601619d87565b91505092915050565b600080600060608486031215619e3757619e36618121565b5b6000619e4586828701618695565b935050602084013567ffffffffffffffff811115619e6657619e65618126565b5b619e7286828701619d2d565b925050604084013567ffffffffffffffff811115619e9357619e92618126565b5b619e9f86828701619df0565b9150509250925092565b619eb281618a24565b8114619ebd57600080fd5b50565b600081359050619ecf81619ea9565b92915050565b60008060008060808587031215619eef57619eee618121565b5b6000619efd87828801618695565b945050602085013567ffffffffffffffff811115619f1e57619f1d618126565b5b619f2a8782880161916a565b935050604085013567ffffffffffffffff811115619f4b57619f4a618126565b5b619f5787828801619d2d565b9250506060619f6887828801619ec0565b91505092959194509250565b60008060408385031215619f8b57619f8a618121565b5b6000619f9985828601618669565b9250506020619faa85828601618669565b9150509250929050565b619fbd816196e3565b82525050565b6000606082019050619fd86000830186619fb4565b8181036020830152619fea81856185f7565b90508181036040830152619ffe81846185f7565b9050949350505050565b7f4e487b7100000000000000000000000000000000000000000000000000000000600052603260045260246000fd5b7f4e487b7100000000000000000000000000000000000000000000000000000000600052602260045260246000fd5b6000600282049050600182168061a07e57607f821691505b60208210810361a0915761a09061a037565b5b50919050565b7f4e6f7420656e726f6c6c65642100000000000000000000000000000000000000600082015250565b600061a0cd600d836185e6565b915061a0d88261a097565b602082019050919050565b6000602082019050818103600083015261a0fc8161a0c0565b9050919050565b7f4e487b7100000000000000000000000000000000000000000000000000000000600052601160045260246000fd5b600061a13d82618212565b915061a14883618212565b925082820261a15681618212565b9150828204841483151761a16d5761a16c61a103565b5b5092915050565b7f4e487b7100000000000000000000000000000000000000000000000000000000600052601260045260246000fd5b600061a1ae82618212565b915061a1b983618212565b92508261a1c95761a1c861a174565b5b828204905092915050565b7f5175697a20646f6573206e6f7420657869737400000000000000000000000000600082015250565b600061a20a6013836185e6565b915061a2158261a1d4565b602082019050919050565b6000602082019050818103600083015261a2398161a1fd565b9050919050565b7f4e6f742073656c6563746564206173206120726576696577657220666f72207460008201527f68697320636f7572736500000000000000000000000000000000000000000000602082015250565b600061a29c602a836185e6565b915061a2a78261a240565b604082019050919050565b6000602082019050818103600083015261a2cb8161a28f565b9050919050565b7f52657669657720616c7265616479207375626d6974746564206279207468697360008201527f2072657669657765722e00000000000000000000000000000000000000000000602082015250565b600061a32e602a836185e6565b915061a3398261a2d2565b604082019050919050565b6000602082019050818103600083015261a35d8161a321565b9050919050565b7f4c6573736f6e20446f6573206e6f742065786973742100000000000000000000600082015250565b600061a39a6016836185e6565b915061a3a58261a364565b602082019050919050565b6000602082019050818103600083015261a3c98161a38d565b9050919050565b60008190508160005260206000209050919050565b60006020601f8301049050919050565b600082821b905092915050565b60006008830261a4327fffffffffffffffffffffffffffffffffffffffffffffffffffffffffffffffff8261a3f5565b61a43c868361a3f5565b95508019841693508086168417925050509392505050565b6000819050919050565b600061a47961a47461a46f84618212565b61a454565b618212565b9050919050565b6000819050919050565b61a4938361a45e565b61a4a761a49f8261a480565b84845461a402565b825550505050565b600090565b61a4bc61a4af565b61a4c781848461a48a565b505050565b5b8181101561a4eb5761a4e060008261a4b4565b60018101905061a4cd565b5050565b601f82111561a5305761a5018161a3d0565b61a50a8461a3e5565b8101602085101561a519578190505b61a52d61a5258561a3e5565b83018261a4cc565b50505b505050565b600082821c905092915050565b600061a5536000198460080261a535565b1980831691505092915050565b600061a56c838361a542565b9150826002028217905092915050565b61a5858261822b565b67ffffffffffffffff81111561a59e5761a59d61906d565b5b61a5a8825461a066565b61a5b382828561a4ef565b600060209050601f83116001811461a5e6576000841561a5d4578287015190505b61a5de858261a560565b86555061a646565b601f19841661a5f48661a3d0565b60005b8281101561a61c5784890151825560018201915060208501945060208101905061a5f7565b8683101561a639578489015161a635601f89168261a542565b8355505b6001600288020188555050505b505050505050565b600061a65982618212565b91507fffffffffffffffffffffffffffffffffffffffffffffffffffffffffffffffff820361a68b5761a68a61a103565b5b600182019050919050565b60008154905061a6a58161a066565b9050919050565b81810361a6ba57505061a792565b61a6c38261a696565b67ffffffffffffffff81111561a6dc5761a6db61906d565b5b61a6e6825461a066565b61a6f182828561a4ef565b6000601f83116001811461a720576000841561a70e578287015490505b61a718858261a560565b86555061a78b565b601f19841661a72e8761a3d0565b965061a7398661a3d0565b60005b8281101561a7615784890154825560018201915060018501945060208101905061a73c565b8683101561a77e578489015461a77a601f89168261a542565b8355505b6001600288020188555050505b5050505050505b565b600081905092915050565b600061a7aa8261822b565b61a7b4818561a794565b935061a7c4818560208601618247565b80840191505092915050565b600061a7dc828461a79f565b915081905092915050565b7f416c726561647920696e20726576696577657220706f6f6c0000000000000000600082015250565b600061a81d6018836185e6565b915061a8288261a7e7565b602082019050919050565b6000602082019050818103600083015261a84c8161a810565b9050919050565b7f436f7572736520616c726561647920617070726f766564000000000000000000600082015250565b600061a8896017836185e6565b915061a8948261a853565b602082019050919050565b6000602082019050818103600083015261a8b88161a87c565b9050919050565b7f596f75206861766520616c726561647920617070726f7665642074686973206360008201527f6f75727365000000000000000000000000000000000000000000000000000000602082015250565b600061a91b6025836185e6565b915061a9268261a8bf565b604082019050919050565b6000602082019050818103600083015261a94a8161a90e565b9050919050565b7f4368617074657220646f6573206e6f7420657869737421000000000000000000600082015250565b600061a9876017836185e6565b915061a9928261a951565b602082019050919050565b6000602082019050818103600083015261a9b68161a97a565b9050919050565b7f436f7572736520616c7265616479206578697374730000000000000000000000600082015250565b600061a9f36015836185e6565b915061a9fe8261a9bd565b602082019050919050565b6000602082019050818103600083015261aa228161a9e6565b9050919050565b600061aa3482618212565b915061aa3f83618212565b925082820190508082111561aa575761aa5661a103565b5b92915050565b600061aa6882618212565b915061aa7383618212565b925082820390508181111561aa8b5761aa8a61a103565b5b92915050565b7f52657669657765727320616c72656164792073656c6563746564000000000000600082015250565b600061aac7601a836185e6565b915061aad28261aa91565b602082019050919050565b6000602082019050818103600083015261aaf68161aaba565b9050919050565b7f4e6f7420656e6f7567682072657669657765727320696e2074686520706f6f6c600082015250565b600061ab336020836185e6565b915061ab3e8261aafd565b602082019050919050565b6000602082019050818103600083015261ab628161ab26565b9050919050565b6000819050919050565b61ab8461ab7f82618212565b61ab69565b82525050565b600061ab96828761ab73565b60208201915061aba6828661ab73565b60208201915061abb6828561ab73565b60208201915061abc6828461ab73565b60208201915081905095945050505050565b600061abe382618212565b915061abee83618212565b92508261abfe5761abfd61a174565b5b828206905092915050565b600081549050919050565b60008190508160005260206000209050919050565b60008160001c9050919050565b600073ffffffffffffffffffffffffffffffffffffffff82169050919050565b600061ac6961ac648361ac29565b61ac36565b9050919050565b600061ac7c825461ac56565b9050919050565b6000600182019050919050565b600061ac9b8261ac09565b61aca58185619b96565b935061acb08361ac14565b8060005b8381101561ace85761acc58261ac70565b61accf8882618337565b975061acda8361ac83565b92505060018101905061acb4565b5085935050505092915050565b6000602082019050818103600083015261ad0f818461ac90565b905092915050565b7f4c6573736f6e20646f6573206e6f742065786973742100000000000000000000600082015250565b600061ad4d6016836185e6565b915061ad588261ad17565b602082019050919050565b6000602082019050818103600083015261ad7c8161ad40565b9050919050565b7f45786365656473206d6178696d756d207265736f757263657321000000000000600082015250565b600061adb9601a836185e6565b915061adc48261ad83565b602082019050919050565b6000602082019050818103600083015261ade88161adac565b9050919050565b600080fd5b600080fd5b600080fd5b60008235600160600383360303811261ae1a5761ae1961adef565b5b80830191505092915050565b60006020828403121561ae3c5761ae3b618121565b5b600061ae4a84828501619a02565b91505092915050565b6000808335600160200384360303811261ae705761ae6f61adef565b5b80840192508235915067ffffffffffffffff82111561ae925761ae9161adf4565b5b60208301925060018202360383131561aeae5761aead61adf9565b5b509250929050565b7f50726f706f73616c20616c726561647920657865637574656400000000000000600082015250565b600061aeec6019836185e6565b915061aef78261aeb6565b602082019050919050565b6000602082019050818103600083015261af1b8161aedf565b9050919050565b7f416c726561647920617070726f76656400000000000000000000000000000000600082015250565b600061af586010836185e6565b915061af638261af22565b602082019050919050565b6000602082019050818103600083015261af878161af4b565b9050919050565b600081905092915050565b60008190508160005260206000209050919050565b6000815461afbb8161a066565b61afc5818661af8e565b9450600182166000811461afe0576001811461aff55761b028565b60ff198316865281151582028601935061b028565b61affe8561af99565b60005b8381101561b0205781548189015260018201915060208101905061b001565b838801955050505b50505092915050565b600061b03d828461afae565b915081905092915050565b7f50726f706f73616c20657865637574696f6e206661696c656400000000000000600082015250565b600061b07e6019836185e6565b915061b0898261b048565b602082019050919050565b6000602082019050818103600083015261b0ad8161b071565b9050919050565b7f4e6f7420696e20726576696577657220706f6f6c000000000000000000000000600082015250565b600061b0ea6014836185e6565b915061b0f58261b0b4565b602082019050919050565b6000602082019050818103600083015261b1198161b0dd565b9050919050565b7f4e487b7100000000000000000000000000000000000000000000000000000000600052603160045260246000fd5b7f416c7265616479206d61726b6564000000000000000000000000000000000000600082015250565b600061b185600e836185e6565b915061b1908261b14f565b602082019050919050565b6000602082019050818103600083015261b1b48161b178565b9050919050565b7f4c6573736f6e20646f65736e2774206578697374000000000000000000000000600082015250565b600061b1f16014836185e6565b915061b1fc8261b1bb565b602082019050919050565b6000602082019050818103600083015261b2208161b1e4565b9050919050565b7f436f7572736520646f6573206e6f742065786973742100000000000000000000600082015250565b600061b25d6016836185e6565b915061b2688261b227565b602082019050919050565b6000602082019050818103600083015261b28c8161b250565b9050919050565b7f496e76616c6964206e756d626572206f662063686f6963657300000000000000600082015250565b600061b2c96019836185e6565b915061b2d48261b293565b602082019050919050565b6000602082019050818103600083015261b2f88161b2bc565b9050919050565b7f496e76616c696420636f72726563742063686f69636520696e64657800000000600082015250565b600061b335601c836185e6565b915061b3408261b2ff565b602082019050919050565b6000602082019050818103600083015261b3648161b328565b9050919050565b600061b37682618a24565b915060ff820361b3895761b38861a103565b5b600182019050919050565b7f436f75727365206e6f742079657420617070726f766564210000000000000000600082015250565b600061b3ca6018836185e6565b915061b3d58261b394565b602082019050919050565b6000602082019050818103600083015261b3f98161b3bd565b9050919050565b7f416c726561647920656e726f6c6c656400000000000000000000000000000000600082015250565b600061b4366010836185e6565b915061b4418261b400565b602082019050919050565b6000602082019050818103600083015261b4658161b429565b9050919050565b600060608201905061b4816000830186618784565b61b48e60208301856185bc565b61b49b60408301846185bc565b949350505050565b7f53636f726573206d757374206265206265747765656e203120616e642031302e600082015250565b600061b4d96020836185e6565b915061b4e48261b4a3565b602082019050919050565b6000602082019050818103600083015261b5088161b4cc565b9050919050565b7f4c696d6974204578636565646564210000000000000000000000000000000000600082015250565b600061b545600f836185e6565b915061b5508261b50f565b602082019050919050565b6000602082019050818103600083015261b5748161b538565b9050919050565b600060408201905061b5906000830185618784565b61b59d6020830184618864565b9392505050565b7f496e73756666696369656e742062616c616e6365000000000000000000000000600082015250565b600061b5da6014836185e6565b915061b5e58261b5a4565b602082019050919050565b6000602082019050818103600083015261b6098161b5cd565b905091905056fea26469706673582212201ba7883beb3fb5865b2f5cdaef24603fd9a0fa7154cc3caf0a4e79adbbbd5d8a64736f6c634300081b0033",
  "linkReferences": {},
  "deployedLinkReferences": {}
}