{
  "_format": "hh-sol-artifact-1",
  "contractName": "Ecosystem2",
  "sourceName": "contracts/Ecosystem Contracts/Ecosystem2.sol",
  "abi": [
    {
      "inputs": [
        {
          "internalType": "address[]",
          "name": "_reviewers",
          "type": "address[]"
        }
      ],
      "stateMutability": "nonpayable",
      "type": "constructor"
    },
    {
      "inputs": [],
      "name": "AccessControlBadConfirmation",
      "type": "error"
    },
    {
      "inputs": [
        {
          "internalType": "address",
          "name": "account",
          "type": "address"
        },
        {
          "internalType": "bytes32",
          "name": "neededRole",
          "type": "bytes32"
        }
      ],
      "name": "AccessControlUnauthorizedAccount",
      "type": "error"
    },
    {
      "inputs": [
        {
          "internalType": "address",
          "name": "spender",
          "type": "address"
        },
        {
          "internalType": "uint256",
          "name": "allowance",
          "type": "uint256"
        },
        {
          "internalType": "uint256",
          "name": "needed",
          "type": "uint256"
        }
      ],
      "name": "ERC20InsufficientAllowance",
      "type": "error"
    },
    {
      "inputs": [
        {
          "internalType": "address",
          "name": "sender",
          "type": "address"
        },
        {
          "internalType": "uint256",
          "name": "balance",
          "type": "uint256"
        },
        {
          "internalType": "uint256",
          "name": "needed",
          "type": "uint256"
        }
      ],
      "name": "ERC20InsufficientBalance",
      "type": "error"
    },
    {
      "inputs": [
        {
          "internalType": "address",
          "name": "approver",
          "type": "address"
        }
      ],
      "name": "ERC20InvalidApprover",
      "type": "error"
    },
    {
      "inputs": [
        {
          "internalType": "address",
          "name": "receiver",
          "type": "address"
        }
      ],
      "name": "ERC20InvalidReceiver",
      "type": "error"
    },
    {
      "inputs": [
        {
          "internalType": "address",
          "name": "sender",
          "type": "address"
        }
      ],
      "name": "ERC20InvalidSender",
      "type": "error"
    },
    {
      "inputs": [
        {
          "internalType": "address",
          "name": "spender",
          "type": "address"
        }
      ],
      "name": "ERC20InvalidSpender",
      "type": "error"
    },
    {
      "inputs": [],
      "name": "ReentrancyGuardReentrantCall",
      "type": "error"
    },
    {
      "anonymous": false,
      "inputs": [
        {
          "indexed": true,
          "internalType": "address",
          "name": "owner",
          "type": "address"
        },
        {
          "indexed": true,
          "internalType": "address",
          "name": "spender",
          "type": "address"
        },
        {
          "indexed": false,
          "internalType": "uint256",
          "name": "value",
          "type": "uint256"
        }
      ],
      "name": "Approval",
      "type": "event"
    },
    {
      "anonymous": false,
      "inputs": [
        {
          "indexed": true,
          "internalType": "address",
          "name": "_account",
          "type": "address"
        },
        {
          "indexed": false,
          "internalType": "uint256",
          "name": "_amount",
          "type": "uint256"
        }
      ],
      "name": "BurnSuccess",
      "type": "event"
    },
    {
      "anonymous": false,
      "inputs": [
        {
          "indexed": true,
          "internalType": "uint256",
          "name": "_courseId",
          "type": "uint256"
        },
        {
          "indexed": true,
          "internalType": "uint256",
          "name": "numberOfChapters",
          "type": "uint256"
        }
      ],
      "name": "ChaptersAddedSuccessfully",
      "type": "event"
    },
    {
      "anonymous": false,
      "inputs": [
        {
          "indexed": false,
          "internalType": "uint256",
          "name": "questionId",
          "type": "uint256"
        },
        {
          "indexed": false,
          "internalType": "uint256",
          "name": "choiceId",
          "type": "uint256"
        },
        {
          "indexed": false,
          "internalType": "string",
          "name": "option",
          "type": "string"
        }
      ],
      "name": "ChoiceAdded",
      "type": "event"
    },
    {
      "anonymous": false,
      "inputs": [
        {
          "indexed": true,
          "internalType": "uint256",
          "name": "_courseID",
          "type": "uint256"
        },
        {
          "indexed": true,
          "internalType": "string",
          "name": "_courseName",
          "type": "string"
        },
        {
          "indexed": false,
          "internalType": "bool",
          "name": "_approved",
          "type": "bool"
        }
      ],
      "name": "CourseCreationSuccess",
      "type": "event"
    },
    {
      "anonymous": false,
      "inputs": [
        {
          "indexed": true,
          "internalType": "address",
          "name": "_to",
          "type": "address"
        },
        {
          "indexed": true,
          "internalType": "uint256",
          "name": "_amount",
          "type": "uint256"
        }
      ],
      "name": "EcosystemPoolUpdate",
      "type": "event"
    },
    {
      "anonymous": false,
      "inputs": [
        {
          "indexed": true,
          "internalType": "uint256",
          "name": "_courseId",
          "type": "uint256"
        },
        {
          "indexed": true,
          "internalType": "address",
          "name": "_by",
          "type": "address"
        }
      ],
      "name": "EnrollmentSuccess",
      "type": "event"
    },
    {
      "anonymous": false,
      "inputs": [
        {
          "indexed": true,
          "internalType": "uint256",
          "name": "_lessonId",
          "type": "uint256"
        },
        {
          "indexed": true,
          "internalType": "string",
          "name": "_lessonName",
          "type": "string"
        },
        {
          "indexed": true,
          "internalType": "uint256",
          "name": "_additonalResources",
          "type": "uint256"
        }
      ],
      "name": "LessonCreationSuccess",
      "type": "event"
    },
    {
      "anonymous": false,
      "inputs": [
        {
          "indexed": true,
          "internalType": "address",
          "name": "_to",
          "type": "address"
        },
        {
          "indexed": true,
          "internalType": "uint256",
          "name": "_amount",
          "type": "uint256"
        }
      ],
      "name": "MintSuccess",
      "type": "event"
    },
    {
      "anonymous": false,
      "inputs": [
        {
          "indexed": true,
          "internalType": "uint256",
          "name": "proposalId",
          "type": "uint256"
        },
        {
          "indexed": false,
          "internalType": "address",
          "name": "approver",
          "type": "address"
        }
      ],
      "name": "MultiSigProposalApproved",
      "type": "event"
    },
    {
      "anonymous": false,
      "inputs": [
        {
          "indexed": true,
          "internalType": "uint256",
          "name": "proposalId",
          "type": "uint256"
        },
        {
          "indexed": false,
          "internalType": "address",
          "name": "proposer",
          "type": "address"
        }
      ],
      "name": "MultiSigProposalCreated",
      "type": "event"
    },
    {
      "anonymous": false,
      "inputs": [
        {
          "indexed": true,
          "internalType": "uint256",
          "name": "proposalId",
          "type": "uint256"
        }
      ],
      "name": "MultiSigProposalExecuted",
      "type": "event"
    },
    {
      "anonymous": false,
      "inputs": [
        {
          "indexed": false,
          "internalType": "uint256",
          "name": "quizId",
          "type": "uint256"
        },
        {
          "indexed": false,
          "internalType": "uint256",
          "name": "questionId",
          "type": "uint256"
        },
        {
          "indexed": false,
          "internalType": "string",
          "name": "questionText",
          "type": "string"
        }
      ],
      "name": "QuestionAdded",
      "type": "event"
    },
    {
      "anonymous": false,
      "inputs": [
        {
          "indexed": true,
          "internalType": "uint256",
          "name": "_quizId",
          "type": "uint256"
        },
        {
          "indexed": true,
          "internalType": "string",
          "name": "_title",
          "type": "string"
        }
      ],
      "name": "QuizCreatedSuccess",
      "type": "event"
    },
    {
      "anonymous": false,
      "inputs": [
        {
          "indexed": true,
          "internalType": "uint256",
          "name": "_lessonId",
          "type": "uint256"
        },
        {
          "indexed": true,
          "internalType": "uint256",
          "name": "resourceCount",
          "type": "uint256"
        }
      ],
      "name": "ResourceAddSuccess",
      "type": "event"
    },
    {
      "anonymous": false,
      "inputs": [
        {
          "indexed": true,
          "internalType": "address",
          "name": "reviewer",
          "type": "address"
        }
      ],
      "name": "ReviewerAddedToPool",
      "type": "event"
    },
    {
      "anonymous": false,
      "inputs": [
        {
          "indexed": true,
          "internalType": "address",
          "name": "reviewer",
          "type": "address"
        }
      ],
      "name": "ReviewerRemovedFromPool",
      "type": "event"
    },
    {
      "anonymous": false,
      "inputs": [
        {
          "indexed": true,
          "internalType": "uint256",
          "name": "courseId",
          "type": "uint256"
        },
        {
          "indexed": false,
          "internalType": "address[]",
          "name": "reviewers",
          "type": "address[]"
        }
      ],
      "name": "ReviewersSelected",
      "type": "event"
    },
    {
      "anonymous": false,
      "inputs": [
        {
          "indexed": true,
          "internalType": "bytes32",
          "name": "role",
          "type": "bytes32"
        },
        {
          "indexed": true,
          "internalType": "bytes32",
          "name": "previousAdminRole",
          "type": "bytes32"
        },
        {
          "indexed": true,
          "internalType": "bytes32",
          "name": "newAdminRole",
          "type": "bytes32"
        }
      ],
      "name": "RoleAdminChanged",
      "type": "event"
    },
    {
      "anonymous": false,
      "inputs": [
        {
          "indexed": true,
          "internalType": "bytes32",
          "name": "role",
          "type": "bytes32"
        },
        {
          "indexed": true,
          "internalType": "address",
          "name": "account",
          "type": "address"
        },
        {
          "indexed": true,
          "internalType": "address",
          "name": "sender",
          "type": "address"
        }
      ],
      "name": "RoleGranted",
      "type": "event"
    },
    {
      "anonymous": false,
      "inputs": [
        {
          "indexed": true,
          "internalType": "bytes32",
          "name": "role",
          "type": "bytes32"
        },
        {
          "indexed": true,
          "internalType": "address",
          "name": "account",
          "type": "address"
        },
        {
          "indexed": true,
          "internalType": "address",
          "name": "sender",
          "type": "address"
        }
      ],
      "name": "RoleRevoked",
      "type": "event"
    },
    {
      "anonymous": false,
      "inputs": [
        {
          "indexed": true,
          "internalType": "address",
          "name": "from",
          "type": "address"
        },
        {
          "indexed": true,
          "internalType": "address",
          "name": "to",
          "type": "address"
        },
        {
          "indexed": false,
          "internalType": "uint256",
          "name": "value",
          "type": "uint256"
        }
      ],
      "name": "Transfer",
      "type": "event"
    },
    {
      "anonymous": false,
      "inputs": [
        {
          "indexed": true,
          "internalType": "uint256",
          "name": "_courseId",
          "type": "uint256"
        },
        {
          "indexed": true,
          "internalType": "address",
          "name": "_by",
          "type": "address"
        }
      ],
      "name": "unEnrollmentSuccess",
      "type": "event"
    },
    {
      "inputs": [],
      "name": "COURSE_OWNER_ROLE",
      "outputs": [
        {
          "internalType": "bytes32",
          "name": "",
          "type": "bytes32"
        }
      ],
      "stateMutability": "view",
      "type": "function"
    },
    {
      "inputs": [],
      "name": "CREATE_COURSE_REWARD",
      "outputs": [
        {
          "internalType": "uint256",
          "name": "",
          "type": "uint256"
        }
      ],
      "stateMutability": "view",
      "type": "function"
    },
    {
      "inputs": [],
      "name": "DEFAULT_ADMIN_ROLE",
      "outputs": [
        {
          "internalType": "bytes32",
          "name": "",
          "type": "bytes32"
        }
      ],
      "stateMutability": "view",
      "type": "function"
    },
    {
      "inputs": [],
      "name": "ECOSYSTEM_POOL",
      "outputs": [
        {
          "internalType": "uint256",
          "name": "",
          "type": "uint256"
        }
      ],
      "stateMutability": "view",
      "type": "function"
    },
    {
      "inputs": [],
      "name": "ENROLLMENT_REWARD",
      "outputs": [
        {
          "internalType": "uint256",
          "name": "",
          "type": "uint256"
        }
      ],
      "stateMutability": "view",
      "type": "function"
    },
    {
      "inputs": [],
      "name": "MAX_SCORE",
      "outputs": [
        {
          "internalType": "uint256",
          "name": "",
          "type": "uint256"
        }
      ],
      "stateMutability": "view",
      "type": "function"
    },
    {
      "inputs": [],
      "name": "MAX_SUPPLY",
      "outputs": [
        {
          "internalType": "uint256",
          "name": "",
          "type": "uint256"
        }
      ],
      "stateMutability": "view",
      "type": "function"
    },
    {
      "inputs": [],
      "name": "MIN_APPROVAL_SCORE",
      "outputs": [
        {
          "internalType": "uint256",
          "name": "",
          "type": "uint256"
        }
      ],
      "stateMutability": "view",
      "type": "function"
    },
    {
      "inputs": [],
      "name": "MULTISIG_APPROVER",
      "outputs": [
        {
          "internalType": "bytes32",
          "name": "",
          "type": "bytes32"
        }
      ],
      "stateMutability": "view",
      "type": "function"
    },
    {
      "inputs": [],
      "name": "REQUIRED_APPROVALS",
      "outputs": [
        {
          "internalType": "uint256",
          "name": "",
          "type": "uint256"
        }
      ],
      "stateMutability": "view",
      "type": "function"
    },
    {
      "inputs": [],
      "name": "REVIEWER_ROLE",
      "outputs": [
        {
          "internalType": "bytes32",
          "name": "",
          "type": "bytes32"
        }
      ],
      "stateMutability": "view",
      "type": "function"
    },
    {
      "inputs": [
        {
          "internalType": "address",
          "name": "",
          "type": "address"
        }
      ],
      "name": "accountCourses",
      "outputs": [
        {
          "internalType": "uint256",
          "name": "courseCount",
          "type": "uint256"
        }
      ],
      "stateMutability": "view",
      "type": "function"
    },
    {
      "inputs": [
        {
          "internalType": "uint256",
          "name": "_courseId",
          "type": "uint256"
        },
        {
          "internalType": "string[]",
          "name": "_chapters",
          "type": "string[]"
        }
      ],
      "name": "addChapters",
      "outputs": [
        {
          "internalType": "bool",
          "name": "",
          "type": "bool"
        }
      ],
      "stateMutability": "nonpayable",
      "type": "function"
    },
    {
      "inputs": [
        {
          "internalType": "uint256",
          "name": "_chapterId",
          "type": "uint256"
        },
        {
          "internalType": "string",
          "name": "_lessonName",
          "type": "string"
        },
        {
          "internalType": "string",
          "name": "_lessonContent",
          "type": "string"
        }
      ],
      "name": "addLesson",
      "outputs": [],
      "stateMutability": "nonpayable",
      "type": "function"
    },
    {
      "inputs": [
        {
          "internalType": "uint256",
          "name": "_lessonId",
          "type": "uint256"
        },
        {
          "components": [
            {
              "internalType": "string",
              "name": "contentType",
              "type": "string"
            },
            {
              "internalType": "string",
              "name": "url",
              "type": "string"
            },
            {
              "internalType": "string",
              "name": "description",
              "type": "string"
            }
          ],
          "internalType": "struct Ecosystem.Resource[]",
          "name": "_resources",
          "type": "tuple[]"
        }
      ],
      "name": "addResourcesToLesson",
      "outputs": [],
      "stateMutability": "nonpayable",
      "type": "function"
    },
    {
      "inputs": [
        {
          "internalType": "address",
          "name": "newReviewer",
          "type": "address"
        }
      ],
      "name": "addReviewer",
      "outputs": [],
      "stateMutability": "nonpayable",
      "type": "function"
    },
    {
      "inputs": [
        {
          "internalType": "address",
          "name": "owner",
          "type": "address"
        },
        {
          "internalType": "address",
          "name": "spender",
          "type": "address"
        }
      ],
      "name": "allowance",
      "outputs": [
        {
          "internalType": "uint256",
          "name": "",
          "type": "uint256"
        }
      ],
      "stateMutability": "view",
      "type": "function"
    },
    {
      "inputs": [
        {
          "internalType": "address",
          "name": "",
          "type": "address"
        },
        {
          "internalType": "uint256",
          "name": "",
          "type": "uint256"
        }
      ],
      "name": "approvals",
      "outputs": [
        {
          "internalType": "bool",
          "name": "",
          "type": "bool"
        }
      ],
      "stateMutability": "view",
      "type": "function"
    },
    {
      "inputs": [
        {
          "internalType": "address",
          "name": "spender",
          "type": "address"
        },
        {
          "internalType": "uint256",
          "name": "value",
          "type": "uint256"
        }
      ],
      "name": "approve",
      "outputs": [
        {
          "internalType": "bool",
          "name": "",
          "type": "bool"
        }
      ],
      "stateMutability": "nonpayable",
      "type": "function"
    },
    {
      "inputs": [
        {
          "internalType": "uint256",
          "name": "_courseId",
          "type": "uint256"
        }
      ],
      "name": "approveCourse",
      "outputs": [],
      "stateMutability": "nonpayable",
      "type": "function"
    },
    {
      "inputs": [
        {
          "internalType": "uint256",
          "name": "_proposalId",
          "type": "uint256"
        }
      ],
      "name": "approveMultiSigProposal",
      "outputs": [],
      "stateMutability": "nonpayable",
      "type": "function"
    },
    {
      "inputs": [
        {
          "internalType": "address",
          "name": "account",
          "type": "address"
        }
      ],
      "name": "balanceOf",
      "outputs": [
        {
          "internalType": "uint256",
          "name": "",
          "type": "uint256"
        }
      ],
      "stateMutability": "view",
      "type": "function"
    },
    {
      "inputs": [
        {
          "internalType": "uint256",
          "name": "",
          "type": "uint256"
        }
      ],
      "name": "chapter",
      "outputs": [
        {
          "internalType": "uint256",
          "name": "chapterId",
          "type": "uint256"
        },
        {
          "internalType": "string",
          "name": "chapterName",
          "type": "string"
        },
        {
          "internalType": "bool",
          "name": "exists",
          "type": "bool"
        }
      ],
      "stateMutability": "view",
      "type": "function"
    },
    {
      "inputs": [
        {
          "internalType": "uint256",
          "name": "",
          "type": "uint256"
        },
        {
          "internalType": "uint256",
          "name": "",
          "type": "uint256"
        }
      ],
      "name": "chapterLessons",
      "outputs": [
        {
          "internalType": "string",
          "name": "",
          "type": "string"
        }
      ],
      "stateMutability": "view",
      "type": "function"
    },
    {
      "inputs": [
        {
          "internalType": "uint256",
          "name": "",
          "type": "uint256"
        },
        {
          "internalType": "uint256",
          "name": "",
          "type": "uint256"
        }
      ],
      "name": "courseChapters",
      "outputs": [
        {
          "internalType": "uint256",
          "name": "chapterId",
          "type": "uint256"
        },
        {
          "internalType": "string",
          "name": "chapterName",
          "type": "string"
        },
        {
          "internalType": "bool",
          "name": "exists",
          "type": "bool"
        }
      ],
      "stateMutability": "view",
      "type": "function"
    },
    {
      "inputs": [],
      "name": "courseCount",
      "outputs": [
        {
          "internalType": "uint256",
          "name": "",
          "type": "uint256"
        }
      ],
      "stateMutability": "view",
      "type": "function"
    },
    {
      "inputs": [
        {
          "internalType": "uint256",
          "name": "",
          "type": "uint256"
        }
      ],
      "name": "courseObject",
      "outputs": [
        {
          "internalType": "uint256",
          "name": "courseId",
          "type": "uint256"
        },
        {
          "internalType": "string",
          "name": "courseName",
          "type": "string"
        },
        {
          "internalType": "string",
          "name": "description",
          "type": "string"
        },
        {
          "internalType": "bool",
          "name": "approved",
          "type": "bool"
        },
        {
          "internalType": "uint256",
          "name": "approvalCount",
          "type": "uint256"
        },
        {
          "internalType": "address",
          "name": "creator",
          "type": "address"
        }
      ],
      "stateMutability": "view",
      "type": "function"
    },
    {
      "inputs": [
        {
          "internalType": "uint256",
          "name": "",
          "type": "uint256"
        }
      ],
      "name": "courseReviewInitiated",
      "outputs": [
        {
          "internalType": "bool",
          "name": "",
          "type": "bool"
        }
      ],
      "stateMutability": "view",
      "type": "function"
    },
    {
      "inputs": [
        {
          "internalType": "uint256",
          "name": "",
          "type": "uint256"
        },
        {
          "internalType": "uint256",
          "name": "",
          "type": "uint256"
        }
      ],
      "name": "courseReviewers",
      "outputs": [
        {
          "internalType": "address",
          "name": "",
          "type": "address"
        }
      ],
      "stateMutability": "view",
      "type": "function"
    },
    {
      "inputs": [
        {
          "internalType": "string",
          "name": "_courseName",
          "type": "string"
        },
        {
          "internalType": "string",
          "name": "_description",
          "type": "string"
        }
      ],
      "name": "createCourse",
      "outputs": [
        {
          "internalType": "bool",
          "name": "",
          "type": "bool"
        }
      ],
      "stateMutability": "nonpayable",
      "type": "function"
    },
    {
      "inputs": [
        {
          "internalType": "uint256",
          "name": "_quizId",
          "type": "uint256"
        },
        {
          "internalType": "string",
          "name": "_questionText",
          "type": "string"
        },
        {
          "internalType": "string[]",
          "name": "_options",
          "type": "string[]"
        },
        {
          "internalType": "uint8",
          "name": "_correctChoiceIndex",
          "type": "uint8"
        }
      ],
      "name": "createQuestionWithChoices",
      "outputs": [],
      "stateMutability": "nonpayable",
      "type": "function"
    },
    {
      "inputs": [
        {
          "internalType": "uint256",
          "name": "_lessonId",
          "type": "uint256"
        },
        {
          "internalType": "string",
          "name": "_title",
          "type": "string"
        }
      ],
      "name": "createQuiz",
      "outputs": [
        {
          "internalType": "uint256",
          "name": "",
          "type": "uint256"
        }
      ],
      "stateMutability": "nonpayable",
      "type": "function"
    },
    {
      "inputs": [],
      "name": "decimals",
      "outputs": [
        {
          "internalType": "uint8",
          "name": "",
          "type": "uint8"
        }
      ],
      "stateMutability": "view",
      "type": "function"
    },
    {
      "inputs": [],
      "name": "ecosystemPoolSupply",
      "outputs": [
        {
          "internalType": "uint256",
          "name": "",
          "type": "uint256"
        }
      ],
      "stateMutability": "view",
      "type": "function"
    },
    {
      "inputs": [
        {
          "internalType": "uint256",
          "name": "_courseId",
          "type": "uint256"
        }
      ],
      "name": "enroll",
      "outputs": [
        {
          "internalType": "bool",
          "name": "",
          "type": "bool"
        }
      ],
      "stateMutability": "nonpayable",
      "type": "function"
    },
    {
      "inputs": [],
      "name": "getAllCourses",
      "outputs": [
        {
          "components": [
            {
              "internalType": "uint256",
              "name": "courseId",
              "type": "uint256"
            },
            {
              "internalType": "string",
              "name": "courseName",
              "type": "string"
            },
            {
              "internalType": "string",
              "name": "description",
              "type": "string"
            },
            {
              "internalType": "bool",
              "name": "approved",
              "type": "bool"
            },
            {
              "internalType": "uint256",
              "name": "approvalCount",
              "type": "uint256"
            },
            {
              "internalType": "address",
              "name": "creator",
              "type": "address"
            }
          ],
          "internalType": "struct Ecosystem.Course[]",
          "name": "",
          "type": "tuple[]"
        }
      ],
      "stateMutability": "view",
      "type": "function"
    },
    {
      "inputs": [],
      "name": "getAllLessons",
      "outputs": [
        {
          "components": [
            {
              "internalType": "uint256",
              "name": "lessonId",
              "type": "uint256"
            },
            {
              "internalType": "string",
              "name": "lessonName",
              "type": "string"
            },
            {
              "internalType": "string",
              "name": "lessonContent",
              "type": "string"
            },
            {
              "components": [
                {
                  "internalType": "string",
                  "name": "contentType",
                  "type": "string"
                },
                {
                  "internalType": "string",
                  "name": "url",
                  "type": "string"
                },
                {
                  "internalType": "string",
                  "name": "description",
                  "type": "string"
                }
              ],
              "internalType": "struct Ecosystem.Resource[10]",
              "name": "additionalResources",
              "type": "tuple[10]"
            },
            {
              "internalType": "uint256",
              "name": "resourceCount",
              "type": "uint256"
            },
            {
              "internalType": "bool",
              "name": "exists",
              "type": "bool"
            }
          ],
          "internalType": "struct Ecosystem.Lesson[]",
          "name": "",
          "type": "tuple[]"
        }
      ],
      "stateMutability": "view",
      "type": "function"
    },
    {
      "inputs": [],
      "name": "getAllQuizzes",
      "outputs": [
        {
          "components": [
            {
              "internalType": "uint256",
              "name": "quizId",
              "type": "uint256"
            },
            {
              "internalType": "string",
              "name": "quizTitle",
              "type": "string"
            },
            {
              "components": [
                {
                  "internalType": "uint256",
                  "name": "questionId",
                  "type": "uint256"
                },
                {
                  "internalType": "string",
                  "name": "questionText",
                  "type": "string"
                },
                {
                  "components": [
                    {
                      "internalType": "string",
                      "name": "option",
                      "type": "string"
                    },
                    {
                      "internalType": "bool",
                      "name": "isCorrect",
                      "type": "bool"
                    }
                  ],
                  "internalType": "struct Ecosystem.Choice[]",
                  "name": "choices",
                  "type": "tuple[]"
                }
              ],
              "internalType": "struct Ecosystem.Question[]",
              "name": "questions",
              "type": "tuple[]"
            },
            {
              "internalType": "bool",
              "name": "exists",
              "type": "bool"
            }
          ],
          "internalType": "struct Ecosystem.Quiz[]",
          "name": "",
          "type": "tuple[]"
        }
      ],
      "stateMutability": "view",
      "type": "function"
    },
    {
      "inputs": [
        {
          "internalType": "uint256",
          "name": "_courseId",
          "type": "uint256"
        }
      ],
      "name": "getChapters",
      "outputs": [
        {
          "components": [
            {
              "internalType": "uint256",
              "name": "chapterId",
              "type": "uint256"
            },
            {
              "internalType": "string",
              "name": "chapterName",
              "type": "string"
            },
            {
              "internalType": "bool",
              "name": "exists",
              "type": "bool"
            }
          ],
          "internalType": "struct Ecosystem.Chapter[]",
          "name": "",
          "type": "tuple[]"
        }
      ],
      "stateMutability": "view",
      "type": "function"
    },
    {
      "inputs": [
        {
          "internalType": "uint256",
          "name": "courseId",
          "type": "uint256"
        }
      ],
      "name": "getCourseReviewers",
      "outputs": [
        {
          "internalType": "address[]",
          "name": "",
          "type": "address[]"
        }
      ],
      "stateMutability": "view",
      "type": "function"
    },
    {
      "inputs": [],
      "name": "getCurrentEcosystemPoolSupply",
      "outputs": [
        {
          "internalType": "uint256",
          "name": "",
          "type": "uint256"
        }
      ],
      "stateMutability": "view",
      "type": "function"
    },
    {
      "inputs": [
        {
          "internalType": "uint256",
          "name": "_quizId",
          "type": "uint256"
        }
      ],
      "name": "getQuestionsForQuiz",
      "outputs": [
        {
          "components": [
            {
              "internalType": "uint256",
              "name": "questionId",
              "type": "uint256"
            },
            {
              "internalType": "string",
              "name": "questionText",
              "type": "string"
            },
            {
              "components": [
                {
                  "internalType": "string",
                  "name": "option",
                  "type": "string"
                },
                {
                  "internalType": "bool",
                  "name": "isCorrect",
                  "type": "bool"
                }
              ],
              "internalType": "struct Ecosystem.Choice[]",
              "name": "choices",
              "type": "tuple[]"
            }
          ],
          "internalType": "struct Ecosystem.Question[]",
          "name": "",
          "type": "tuple[]"
        }
      ],
      "stateMutability": "view",
      "type": "function"
    },
    {
      "inputs": [
        {
          "internalType": "uint256",
          "name": "_quizId",
          "type": "uint256"
        }
      ],
      "name": "getQuiz",
      "outputs": [
        {
          "components": [
            {
              "internalType": "uint256",
              "name": "quizId",
              "type": "uint256"
            },
            {
              "internalType": "string",
              "name": "quizTitle",
              "type": "string"
            },
            {
              "components": [
                {
                  "internalType": "uint256",
                  "name": "questionId",
                  "type": "uint256"
                },
                {
                  "internalType": "string",
                  "name": "questionText",
                  "type": "string"
                },
                {
                  "components": [
                    {
                      "internalType": "string",
                      "name": "option",
                      "type": "string"
                    },
                    {
                      "internalType": "bool",
                      "name": "isCorrect",
                      "type": "bool"
                    }
                  ],
                  "internalType": "struct Ecosystem.Choice[]",
                  "name": "choices",
                  "type": "tuple[]"
                }
              ],
              "internalType": "struct Ecosystem.Question[]",
              "name": "questions",
              "type": "tuple[]"
            },
            {
              "internalType": "bool",
              "name": "exists",
              "type": "bool"
            }
          ],
          "internalType": "struct Ecosystem.Quiz",
          "name": "",
          "type": "tuple"
        }
      ],
      "stateMutability": "view",
      "type": "function"
    },
    {
      "inputs": [
        {
          "internalType": "bytes32",
          "name": "role",
          "type": "bytes32"
        }
      ],
      "name": "getRoleAdmin",
      "outputs": [
        {
          "internalType": "bytes32",
          "name": "",
          "type": "bytes32"
        }
      ],
      "stateMutability": "view",
      "type": "function"
    },
    {
      "inputs": [
        {
          "internalType": "bytes32",
          "name": "role",
          "type": "bytes32"
        },
        {
          "internalType": "address",
          "name": "account",
          "type": "address"
        }
      ],
      "name": "grantRole",
      "outputs": [],
      "stateMutability": "nonpayable",
      "type": "function"
    },
    {
      "inputs": [
        {
          "internalType": "bytes32",
          "name": "role",
          "type": "bytes32"
        },
        {
          "internalType": "address",
          "name": "account",
          "type": "address"
        }
      ],
      "name": "hasRole",
      "outputs": [
        {
          "internalType": "bool",
          "name": "",
          "type": "bool"
        }
      ],
      "stateMutability": "view",
      "type": "function"
    },
    {
      "inputs": [
        {
          "internalType": "uint256",
          "name": "",
          "type": "uint256"
        },
        {
          "internalType": "address",
          "name": "",
          "type": "address"
        }
      ],
      "name": "isEnrolled",
      "outputs": [
        {
          "internalType": "bool",
          "name": "",
          "type": "bool"
        }
      ],
      "stateMutability": "view",
      "type": "function"
    },
    {
      "inputs": [
        {
          "internalType": "address",
          "name": "",
          "type": "address"
        }
      ],
      "name": "isInReviewerPool",
      "outputs": [
        {
          "internalType": "bool",
          "name": "",
          "type": "bool"
        }
      ],
      "stateMutability": "view",
      "type": "function"
    },
    {
      "inputs": [
        {
          "internalType": "address",
          "name": "account",
          "type": "address"
        }
      ],
      "name": "isReviewer",
      "outputs": [
        {
          "internalType": "bool",
          "name": "",
          "type": "bool"
        }
      ],
      "stateMutability": "view",
      "type": "function"
    },
    {
      "inputs": [
        {
          "internalType": "uint256",
          "name": "",
          "type": "uint256"
        }
      ],
      "name": "lesson",
      "outputs": [
        {
          "internalType": "uint256",
          "name": "lessonId",
          "type": "uint256"
        },
        {
          "internalType": "string",
          "name": "lessonName",
          "type": "string"
        },
        {
          "internalType": "string",
          "name": "lessonContent",
          "type": "string"
        },
        {
          "internalType": "uint256",
          "name": "resourceCount",
          "type": "uint256"
        },
        {
          "internalType": "bool",
          "name": "exists",
          "type": "bool"
        }
      ],
      "stateMutability": "view",
      "type": "function"
    },
    {
      "inputs": [
        {
          "internalType": "uint256",
          "name": "",
          "type": "uint256"
        }
      ],
      "name": "listOfChapters",
      "outputs": [
        {
          "internalType": "uint256",
          "name": "chapterId",
          "type": "uint256"
        },
        {
          "internalType": "string",
          "name": "chapterName",
          "type": "string"
        },
        {
          "internalType": "bool",
          "name": "exists",
          "type": "bool"
        }
      ],
      "stateMutability": "view",
      "type": "function"
    },
    {
      "inputs": [
        {
          "internalType": "uint256",
          "name": "",
          "type": "uint256"
        }
      ],
      "name": "listOfCourses",
      "outputs": [
        {
          "internalType": "uint256",
          "name": "courseId",
          "type": "uint256"
        },
        {
          "internalType": "string",
          "name": "courseName",
          "type": "string"
        },
        {
          "internalType": "string",
          "name": "description",
          "type": "string"
        },
        {
          "internalType": "bool",
          "name": "approved",
          "type": "bool"
        },
        {
          "internalType": "uint256",
          "name": "approvalCount",
          "type": "uint256"
        },
        {
          "internalType": "address",
          "name": "creator",
          "type": "address"
        }
      ],
      "stateMutability": "view",
      "type": "function"
    },
    {
      "inputs": [
        {
          "internalType": "uint256",
          "name": "",
          "type": "uint256"
        }
      ],
      "name": "listOfLessons",
      "outputs": [
        {
          "internalType": "uint256",
          "name": "lessonId",
          "type": "uint256"
        },
        {
          "internalType": "string",
          "name": "lessonName",
          "type": "string"
        },
        {
          "internalType": "string",
          "name": "lessonContent",
          "type": "string"
        },
        {
          "internalType": "uint256",
          "name": "resourceCount",
          "type": "uint256"
        },
        {
          "internalType": "bool",
          "name": "exists",
          "type": "bool"
        }
      ],
      "stateMutability": "view",
      "type": "function"
    },
    {
      "inputs": [
        {
          "internalType": "uint256",
          "name": "",
          "type": "uint256"
        }
      ],
      "name": "listOfQuestions",
      "outputs": [
        {
          "internalType": "uint256",
          "name": "questionId",
          "type": "uint256"
        },
        {
          "internalType": "string",
          "name": "questionText",
          "type": "string"
        }
      ],
      "stateMutability": "view",
      "type": "function"
    },
    {
      "inputs": [
        {
          "internalType": "uint256",
          "name": "",
          "type": "uint256"
        }
      ],
      "name": "listOfQuizzes",
      "outputs": [
        {
          "internalType": "uint256",
          "name": "quizId",
          "type": "uint256"
        },
        {
          "internalType": "string",
          "name": "quizTitle",
          "type": "string"
        },
        {
          "internalType": "bool",
          "name": "exists",
          "type": "bool"
        }
      ],
      "stateMutability": "view",
      "type": "function"
    },
    {
      "inputs": [
        {
          "internalType": "uint256",
          "name": "",
          "type": "uint256"
        }
      ],
      "name": "listOfResource",
      "outputs": [
        {
          "internalType": "string",
          "name": "contentType",
          "type": "string"
        },
        {
          "internalType": "string",
          "name": "url",
          "type": "string"
        },
        {
          "internalType": "string",
          "name": "description",
          "type": "string"
        }
      ],
      "stateMutability": "view",
      "type": "function"
    },
    {
      "inputs": [
        {
          "internalType": "uint256",
          "name": "",
          "type": "uint256"
        }
      ],
      "name": "multiSigProposals",
      "outputs": [
        {
          "internalType": "uint256",
          "name": "id",
          "type": "uint256"
        },
        {
          "internalType": "address",
          "name": "proposer",
          "type": "address"
        },
        {
          "internalType": "address",
          "name": "targetContract",
          "type": "address"
        },
        {
          "internalType": "bytes",
          "name": "data",
          "type": "bytes"
        },
        {
          "internalType": "uint256",
          "name": "approvalCount",
          "type": "uint256"
        },
        {
          "internalType": "bool",
          "name": "executed",
          "type": "bool"
        }
      ],
      "stateMutability": "view",
      "type": "function"
    },
    {
      "inputs": [],
      "name": "name",
      "outputs": [
        {
          "internalType": "string",
          "name": "",
          "type": "string"
        }
      ],
      "stateMutability": "view",
      "type": "function"
    },
    {
      "inputs": [],
      "name": "nextChapterId",
      "outputs": [
        {
          "internalType": "uint256",
          "name": "",
          "type": "uint256"
        }
      ],
      "stateMutability": "view",
      "type": "function"
    },
    {
      "inputs": [],
      "name": "nextChoiceId",
      "outputs": [
        {
          "internalType": "uint256",
          "name": "",
          "type": "uint256"
        }
      ],
      "stateMutability": "view",
      "type": "function"
    },
    {
      "inputs": [],
      "name": "nextCourseId",
      "outputs": [
        {
          "internalType": "uint256",
          "name": "",
          "type": "uint256"
        }
      ],
      "stateMutability": "view",
      "type": "function"
    },
    {
      "inputs": [],
      "name": "nextCourseIdd",
      "outputs": [
        {
          "internalType": "uint256",
          "name": "",
          "type": "uint256"
        }
      ],
      "stateMutability": "view",
      "type": "function"
    },
    {
      "inputs": [],
      "name": "nextLessonId",
      "outputs": [
        {
          "internalType": "uint256",
          "name": "",
          "type": "uint256"
        }
      ],
      "stateMutability": "view",
      "type": "function"
    },
    {
      "inputs": [],
      "name": "nextQuestionId",
      "outputs": [
        {
          "internalType": "uint256",
          "name": "",
          "type": "uint256"
        }
      ],
      "stateMutability": "view",
      "type": "function"
    },
    {
      "inputs": [],
      "name": "nextQuizId",
      "outputs": [
        {
          "internalType": "uint256",
          "name": "",
          "type": "uint256"
        }
      ],
      "stateMutability": "view",
      "type": "function"
    },
    {
      "inputs": [
        {
          "internalType": "uint256",
          "name": "",
          "type": "uint256"
        }
      ],
      "name": "questions",
      "outputs": [
        {
          "internalType": "uint256",
          "name": "questionId",
          "type": "uint256"
        },
        {
          "internalType": "string",
          "name": "questionText",
          "type": "string"
        }
      ],
      "stateMutability": "view",
      "type": "function"
    },
    {
      "inputs": [
        {
          "internalType": "uint256",
          "name": "",
          "type": "uint256"
        }
      ],
      "name": "quizzes",
      "outputs": [
        {
          "internalType": "uint256",
          "name": "quizId",
          "type": "uint256"
        },
        {
          "internalType": "string",
          "name": "quizTitle",
          "type": "string"
        },
        {
          "internalType": "bool",
          "name": "exists",
          "type": "bool"
        }
      ],
      "stateMutability": "view",
      "type": "function"
    },
    {
      "inputs": [
        {
          "internalType": "address",
          "name": "reviewer",
          "type": "address"
        }
      ],
      "name": "removeReviewer",
      "outputs": [],
      "stateMutability": "nonpayable",
      "type": "function"
    },
    {
      "inputs": [
        {
          "internalType": "bytes32",
          "name": "role",
          "type": "bytes32"
        },
        {
          "internalType": "address",
          "name": "callerConfirmation",
          "type": "address"
        }
      ],
      "name": "renounceRole",
      "outputs": [],
      "stateMutability": "nonpayable",
      "type": "function"
    },
    {
      "inputs": [
        {
          "internalType": "uint256",
          "name": "",
          "type": "uint256"
        }
      ],
      "name": "reviewerPool",
      "outputs": [
        {
          "internalType": "address",
          "name": "",
          "type": "address"
        }
      ],
      "stateMutability": "view",
      "type": "function"
    },
    {
      "inputs": [
        {
          "internalType": "uint256",
          "name": "",
          "type": "uint256"
        },
        {
          "internalType": "address",
          "name": "",
          "type": "address"
        }
      ],
      "name": "reviews",
      "outputs": [
        {
          "internalType": "uint256",
          "name": "learnerAgency",
          "type": "uint256"
        },
        {
          "internalType": "uint256",
          "name": "criticalThinking",
          "type": "uint256"
        },
        {
          "internalType": "uint256",
          "name": "collaborativeLearning",
          "type": "uint256"
        },
        {
          "internalType": "uint256",
          "name": "reflectivePractice",
          "type": "uint256"
        },
        {
          "internalType": "uint256",
          "name": "adaptiveLearning",
          "type": "uint256"
        },
        {
          "internalType": "uint256",
          "name": "authenticLearning",
          "type": "uint256"
        },
        {
          "internalType": "uint256",
          "name": "technologyIntegration",
          "type": "uint256"
        },
        {
          "internalType": "uint256",
          "name": "learnerSupport",
          "type": "uint256"
        },
        {
          "internalType": "uint256",
          "name": "assessmentForLearning",
          "type": "uint256"
        },
        {
          "internalType": "uint256",
          "name": "engagementAndMotivation",
          "type": "uint256"
        },
        {
          "internalType": "bool",
          "name": "isSubmitted",
          "type": "bool"
        }
      ],
      "stateMutability": "view",
      "type": "function"
    },
    {
      "inputs": [
        {
          "internalType": "bytes32",
          "name": "role",
          "type": "bytes32"
        },
        {
          "internalType": "address",
          "name": "account",
          "type": "address"
        }
      ],
      "name": "revokeRole",
      "outputs": [],
      "stateMutability": "nonpayable",
      "type": "function"
    },
    {
      "inputs": [
        {
          "internalType": "uint256",
          "name": "courseId",
          "type": "uint256"
        }
      ],
      "name": "selectCourseReviewers",
      "outputs": [],
      "stateMutability": "nonpayable",
      "type": "function"
    },
    {
      "inputs": [
        {
          "internalType": "uint256",
          "name": "courseId",
          "type": "uint256"
        },
        {
          "internalType": "uint256",
          "name": "learnerAgency",
          "type": "uint256"
        },
        {
          "internalType": "uint256",
          "name": "criticalThinking",
          "type": "uint256"
        },
        {
          "internalType": "uint256",
          "name": "collaborativeLearning",
          "type": "uint256"
        },
        {
          "internalType": "uint256",
          "name": "reflectivePractice",
          "type": "uint256"
        },
        {
          "internalType": "uint256",
          "name": "adaptiveLearning",
          "type": "uint256"
        },
        {
          "internalType": "uint256",
          "name": "authenticLearning",
          "type": "uint256"
        },
        {
          "internalType": "uint256",
          "name": "technologyIntegration",
          "type": "uint256"
        },
        {
          "internalType": "uint256",
          "name": "learnerSupport",
          "type": "uint256"
        },
        {
          "internalType": "uint256",
          "name": "assessmentForLearning",
          "type": "uint256"
        },
        {
          "internalType": "uint256",
          "name": "engagementAndMotivation",
          "type": "uint256"
        }
      ],
      "name": "submitReview",
      "outputs": [],
      "stateMutability": "nonpayable",
      "type": "function"
    },
    {
      "inputs": [
        {
          "internalType": "bytes4",
          "name": "interfaceId",
          "type": "bytes4"
        }
      ],
      "name": "supportsInterface",
      "outputs": [
        {
          "internalType": "bool",
          "name": "",
          "type": "bool"
        }
      ],
      "stateMutability": "view",
      "type": "function"
    },
    {
      "inputs": [],
      "name": "symbol",
      "outputs": [
        {
          "internalType": "string",
          "name": "",
          "type": "string"
        }
      ],
      "stateMutability": "view",
      "type": "function"
    },
    {
      "inputs": [],
      "name": "totalSupply",
      "outputs": [
        {
          "internalType": "uint256",
          "name": "",
          "type": "uint256"
        }
      ],
      "stateMutability": "view",
      "type": "function"
    },
    {
      "inputs": [
        {
          "internalType": "address",
          "name": "to",
          "type": "address"
        },
        {
          "internalType": "uint256",
          "name": "value",
          "type": "uint256"
        }
      ],
      "name": "transfer",
      "outputs": [
        {
          "internalType": "bool",
          "name": "",
          "type": "bool"
        }
      ],
      "stateMutability": "nonpayable",
      "type": "function"
    },
    {
      "inputs": [
        {
          "internalType": "address",
          "name": "from",
          "type": "address"
        },
        {
          "internalType": "address",
          "name": "to",
          "type": "address"
        },
        {
          "internalType": "uint256",
          "name": "value",
          "type": "uint256"
        }
      ],
      "name": "transferFrom",
      "outputs": [
        {
          "internalType": "bool",
          "name": "",
          "type": "bool"
        }
      ],
      "stateMutability": "nonpayable",
      "type": "function"
    },
    {
      "inputs": [
        {
          "internalType": "uint256",
          "name": "_courseId",
          "type": "uint256"
        }
      ],
      "name": "unEnroll",
      "outputs": [
        {
          "internalType": "bool",
          "name": "",
          "type": "bool"
        }
      ],
      "stateMutability": "nonpayable",
      "type": "function"
    }
  ],
  "bytecode": "0x608060405234801561001057600080fd5b5060405161aa1238038061aa128339818101604052810190610032919061063b565b80806040518060400160405280600a81526020017f4142594120544f4b454e000000000000000000000000000000000000000000008152506040518060400160405280600681526020017f414259544b4e000000000000000000000000000000000000000000000000000081525081600390816100af91906108a5565b5080600490816100bf91906108a5565b505050600481511015610107576040517f08c379a00000000000000000000000000000000000000000000000000000000081526004016100fe906109fa565b60405180910390fd5b61011a6000801b336102c060201b60201c565b5061014b7fdf1425bae297c2f52b4f15d18a50b1fc8cb5b981a981b1d213ed3ff92681b64d336102c060201b60201c565b5060005b815181101561029f576101a27fc10c77be35aff266144ed64c26a1fa104bae2f284ae99ac4a34203454704a18583838151811061018f5761018e610a1a565b5b60200260200101516102c060201b60201c565b5060068282815181106101b8576101b7610a1a565b5b60200260200101519080600181540180825580915050600190039060005260206000200160009091909190916101000a81548173ffffffffffffffffffffffffffffffffffffffff021916908373ffffffffffffffffffffffffffffffffffffffff16021790555060016008600084848151811061023957610238610a1a565b5b602002602001015173ffffffffffffffffffffffffffffffffffffffff1673ffffffffffffffffffffffffffffffffffffffff16815260200190815260200160002060006101000a81548160ff021916908315150217905550808060010191505061014f565b50506001600a819055506102b9600b6103be60201b60201c565b5050610a49565b60006102d283836103fd60201b60201c565b6103b35760016005600085815260200190815260200160002060000160008473ffffffffffffffffffffffffffffffffffffffff1673ffffffffffffffffffffffffffffffffffffffff16815260200190815260200160002060006101000a81548160ff02191690831515021790555061035061046860201b60201c565b73ffffffffffffffffffffffffffffffffffffffff168273ffffffffffffffffffffffffffffffffffffffff16847f2f8788117e7eff1d82e926ec794901d17c78024a50270940304540a733656f0d60405160405180910390a4600190506103b8565b600090505b92915050565b60018160000181905550600181600101819055506001816002018190555060018160030181905550600181600401819055506001816005018190555050565b60006005600084815260200190815260200160002060000160008373ffffffffffffffffffffffffffffffffffffffff1673ffffffffffffffffffffffffffffffffffffffff16815260200190815260200160002060009054906101000a900460ff16905092915050565b600033905090565b6000604051905090565b600080fd5b600080fd5b600080fd5b6000601f19601f8301169050919050565b7f4e487b7100000000000000000000000000000000000000000000000000000000600052604160045260246000fd5b6104d282610489565b810181811067ffffffffffffffff821117156104f1576104f061049a565b5b80604052505050565b6000610504610470565b905061051082826104c9565b919050565b600067ffffffffffffffff8211156105305761052f61049a565b5b602082029050602081019050919050565b600080fd5b600073ffffffffffffffffffffffffffffffffffffffff82169050919050565b600061057182610546565b9050919050565b61058181610566565b811461058c57600080fd5b50565b60008151905061059e81610578565b92915050565b60006105b76105b284610515565b6104fa565b905080838252602082019050602084028301858111156105da576105d9610541565b5b835b8181101561060357806105ef888261058f565b8452602084019350506020810190506105dc565b5050509392505050565b600082601f83011261062257610621610484565b5b81516106328482602086016105a4565b91505092915050565b6000602082840312156106515761065061047a565b5b600082015167ffffffffffffffff81111561066f5761066e61047f565b5b61067b8482850161060d565b91505092915050565b600081519050919050565b7f4e487b7100000000000000000000000000000000000000000000000000000000600052602260045260246000fd5b600060028204905060018216806106d657607f821691505b6020821081036106e9576106e861068f565b5b50919050565b60008190508160005260206000209050919050565b60006020601f8301049050919050565b600082821b905092915050565b6000600883026107517fffffffffffffffffffffffffffffffffffffffffffffffffffffffffffffffff82610714565b61075b8683610714565b95508019841693508086168417925050509392505050565b6000819050919050565b6000819050919050565b60006107a261079d61079884610773565b61077d565b610773565b9050919050565b6000819050919050565b6107bc83610787565b6107d06107c8826107a9565b848454610721565b825550505050565b600090565b6107e56107d8565b6107f08184846107b3565b505050565b5b81811015610814576108096000826107dd565b6001810190506107f6565b5050565b601f8211156108595761082a816106ef565b61083384610704565b81016020851015610842578190505b61085661084e85610704565b8301826107f5565b50505b505050565b600082821c905092915050565b600061087c6000198460080261085e565b1980831691505092915050565b6000610895838361086b565b9150826002028217905092915050565b6108ae82610684565b67ffffffffffffffff8111156108c7576108c661049a565b5b6108d182546106be565b6108dc828285610818565b600060209050601f83116001811461090f57600084156108fd578287015190505b6109078582610889565b86555061096f565b601f19841661091d866106ef565b60005b8281101561094557848901518255600182019150602085019450602081019050610920565b86831015610962578489015161095e601f89168261086b565b8355505b6001600288020188555050505b505050505050565b600082825260208201905092915050565b7f4174206c6561737420342072657669657765727320617265207265717569726560008201527f6400000000000000000000000000000000000000000000000000000000000000602082015250565b60006109e4602183610977565b91506109ef82610988565b604082019050919050565b60006020820190508181036000830152610a13816109d7565b9050919050565b7f4e487b7100000000000000000000000000000000000000000000000000000000600052603260045260246000fd5b619fba80610a586000396000f3fe608060405234801561001057600080fd5b50600436106104805760003560e01c806373a82b5f11610257578063bad0dd6511610146578063d547741f116100c3578063e503f10811610087578063e503f10814611000578063eb264b9c1461101e578063f57d585b1461103c578063fdc6258a1461106c578063ffabc6731461109c57610480565b8063d547741f14610f46578063d93f2caa14610f62578063dd62ed3e14610f80578063ddfc79fb14610fb0578063ded5c18d14610fe257610480565b8063c7954e4c1161010a578063c7954e4c14610e8e578063c90c884d14610eac578063c9442dac14610ede578063c976831514610efa578063d3751bfc14610f2a57610480565b8063bad0dd6514610da4578063bfd2f4c514610dc0578063c12804fb14610df4578063c293bbbe14610e2e578063c491b04c14610e5e57610480565b8063a1cd05b1116101d4578063a3f7e09611610198578063a3f7e09614610cc6578063a9059cbb14610cf6578063aa95da3a14610d26578063ac678a9314610d56578063ac957c6314610d8657610480565b8063a1cd05b114610bf8578063a217fddf14610c28578063a26a795314610c46578063a296ea5814610c76578063a3ef204114610c9457610480565b806388409afa1161021b57806388409afa14610b3e5780638ea6e2fd14610b7057806391d1485414610b8c57806395d89b4114610bbc578063a14ecbdf14610bda57610480565b806373a82b5f14610aae5780637528499814610aca57806375b9d86914610ae65780637d83daf214610b02578063846f815214610b2057610480565b806331b1b9781161037357806352994e2f116102f057806366055159116102b457806366055159146109ef5780636a4af0fa14610a0d5780636b000fa714610a2b5780636fdb67f714610a4957806370a0823114610a7e57610480565b806352994e2f1461094b57806358a3fa2514610969578063599c5533146109855780635d33d452146109a3578063632c224b146109bf57610480565b80633b129a56116103375780633b129a561461086557806340932bf8146108835780634a474b9c146108b85780634d42ef48146108e857806351d93c811461091a57610480565b806331b1b978146107ac57806332cb6b0c146107dd57806334ed4bdb146107fb57806336568abe1461082b5780633693dcfa1461084757610480565b8063248a9ca31161040157806329a0be65116103c557806329a0be65146106f05780632aac61ae1461070e5780632f2ff15d146107425780632fab55af1461075e578063313ce5671461078e57610480565b8063248a9ca31461061d578063274202f01461064d57806327ff62231461066b578063295b825a146106895780632990db7c146106bb57610480565b806311ce15df1161044857806311ce15df1461053f57806318160ddd1461056f57806319f102ec1461058d57806320bd0316146105bd57806323b872dd146105ed57610480565b806301ffc9a71461048557806304e48bd1146104b5578063057f46bb146104d357806306fdde03146104f1578063095ea7b31461050f575b600080fd5b61049f600480360381019061049a91906170ee565b6110cc565b6040516104ac9190617136565b60405180910390f35b6104bd611146565b6040516104ca919061739c565b60405180910390f35b6104db611448565b6040516104e891906173cd565b60405180910390f35b6104f961144e565b6040516105069190617432565b60405180910390f35b610529600480360381019061052491906174ac565b6114e0565b6040516105369190617136565b60405180910390f35b610559600480360381019061055491906174ec565b611503565b6040516105669190617136565b60405180910390f35b610577611523565b60405161058491906173cd565b60405180910390f35b6105a760048036038101906105a291906174ec565b61152d565b6040516105b49190617528565b60405180910390f35b6105d760048036038101906105d291906174ec565b61156c565b6040516105e49190617136565b60405180910390f35b61060760048036038101906106029190617543565b6116e3565b6040516106149190617136565b60405180910390f35b610637600480360381019061063291906175cc565b611712565b6040516106449190617608565b60405180910390f35b610655611732565b60405161066291906173cd565b60405180910390f35b61067361175a565b60405161068091906173cd565b60405180910390f35b6106a3600480360381019061069e91906174ec565b61175f565b6040516106b293929190617623565b60405180910390f35b6106d560048036038101906106d091906174ec565b61182e565b6040516106e796959493929190617661565b60405180910390f35b6106f86119a7565b60405161070591906173cd565b60405180910390f35b610728600480360381019061072391906174ec565b6119ad565b6040516107399594939291906176d0565b60405180910390f35b61075c60048036038101906107579190617731565b611b10565b005b6107786004803603810190610773919061798c565b611b32565b6040516107859190617136565b60405180910390f35b610796611dc8565b6040516107a39190617a04565b60405180910390f35b6107c660048036038101906107c191906174ec565b611dd1565b6040516107d4929190617a1f565b60405180910390f35b6107e5611e7d565b6040516107f291906173cd565b60405180910390f35b61081560048036038101906108109190617a4f565b611e8d565b60405161082291906173cd565b60405180910390f35b61084560048036038101906108409190617731565b611eab565b005b61084f611f26565b60405161085c9190617608565b60405180910390f35b61086d611f4a565b60405161087a9190617608565b60405180910390f35b61089d600480360381019061089891906174ec565b611f6e565b6040516108af96959493929190617ad1565b60405180910390f35b6108d260048036038101906108cd91906174ec565b61207f565b6040516108df9190617d51565b60405180910390f35b61090260048036038101906108fd9190617d73565b6122ff565b60405161091193929190617623565b60405180910390f35b610934600480360381019061092f91906174ec565b6123db565b604051610942929190617a1f565b60405180910390f35b610953612497565b6040516109609190617608565b60405180910390f35b610983600480360381019061097e9190617db3565b6124bb565b005b61098d612781565b60405161099a91906173cd565b60405180910390f35b6109bd60048036038101906109b89190617f02565b612786565b005b6109d960048036038101906109d49190617f62565b612b56565b6040516109e691906173cd565b60405180910390f35b6109f7612d07565b604051610a0491906173cd565b60405180910390f35b610a15612d0d565b604051610a229190618170565b60405180910390f35b610a33613089565b604051610a4091906173cd565b60405180910390f35b610a636004803603810190610a5e91906174ec565b61308f565b604051610a7596959493929190617661565b60405180910390f35b610a986004803603810190610a939190617a4f565b613218565b604051610aa591906173cd565b60405180910390f35b610ac86004803603810190610ac39190617a4f565b613260565b005b610ae46004803603810190610adf91906174ec565b613444565b005b610b006004803603810190610afb9190618192565b61365e565b005b610b0a613859565b604051610b1791906173cd565b60405180910390f35b610b2861385f565b604051610b3591906173cd565b60405180910390f35b610b586004803603810190610b5391906174ec565b61386b565b604051610b6793929190617623565b60405180910390f35b610b8a6004803603810190610b8591906174ec565b61392a565b005b610ba66004803603810190610ba19190617731565b613c94565b604051610bb39190617136565b60405180910390f35b610bc4613cff565b604051610bd19190617432565b60405180910390f35b610be2613d91565b604051610bef91906173cd565b60405180910390f35b610c126004803603810190610c0d9190617d73565b613d97565b604051610c1f9190617528565b60405180910390f35b610c30613de5565b604051610c3d9190617608565b60405180910390f35b610c606004803603810190610c5b919061821d565b613dec565b604051610c6d9190617136565b60405180910390f35b610c7e6141c3565b604051610c8b9190618502565b60405180910390f35b610cae6004803603810190610ca991906174ec565b6145e8565b604051610cbd93929190617623565b60405180910390f35b610ce06004803603810190610cdb91906174ec565b6146a7565b604051610ced919061858e565b60405180910390f35b610d106004803603810190610d0b91906174ac565b6149f5565b604051610d1d9190617136565b60405180910390f35b610d406004803603810190610d3b9190617d73565b614a18565b604051610d4d9190617432565b60405180910390f35b610d706004803603810190610d6b91906174ec565b614ad0565b604051610d7d91906186c2565b60405180910390f35b610d8e614bf9565b604051610d9b91906173cd565b60405180910390f35b610dbe6004803603810190610db991906174ec565b614bfe565b005b610dda6004803603810190610dd591906174ec565b614efd565b604051610deb9594939291906176d0565b60405180910390f35b610e0e6004803603810190610e0991906186e4565b615050565b604051610e259b9a99989796959493929190618724565b60405180910390f35b610e486004803603810190610e4391906174ec565b6150c4565b604051610e55919061887e565b60405180910390f35b610e786004803603810190610e739190617a4f565b615165565b604051610e859190617136565b60405180910390f35b610e96615185565b604051610ea391906173cd565b60405180910390f35b610ec66004803603810190610ec191906174ec565b61518f565b604051610ed593929190617623565b60405180910390f35b610ef86004803603810190610ef39190617a4f565b61525e565b005b610f146004803603810190610f0f91906186e4565b615548565b604051610f219190617136565b60405180910390f35b610f446004803603810190610f3f91906188cc565b615577565b005b610f606004803603810190610f5b9190617731565b615951565b005b610f6a615973565b604051610f7791906173cd565b60405180910390f35b610f9a6004803603810190610f95919061896b565b61597f565b604051610fa791906173cd565b60405180910390f35b610fca6004803603810190610fc591906174ec565b615a06565b604051610fd9939291906189ab565b60405180910390f35b610fea615bd8565b604051610ff791906173cd565b60405180910390f35b611008615be5565b60405161101591906173cd565b60405180910390f35b611026615beb565b60405161103391906173cd565b60405180910390f35b611056600480360381019061105191906174ec565b615bf1565b6040516110639190617136565b60405180910390f35b61108660048036038101906110819190617a4f565b615dcd565b6040516110939190617136565b60405180910390f35b6110b660048036038101906110b191906174ac565b615e00565b6040516110c39190617136565b60405180910390f35b60007f7965db0b000000000000000000000000000000000000000000000000000000007bffffffffffffffffffffffffffffffffffffffffffffffffffffffff1916827bffffffffffffffffffffffffffffffffffffffffffffffffffffffff1916148061113f575061113e82615e2f565b5b9050919050565b6060600060268054905067ffffffffffffffff81111561116957611168617776565b5b6040519080825280602002602001820160405280156111a257816020015b61118f616c70565b8152602001906001900390816111875790505b50905060005b602680549050811015611440576040518060c00160405280602683815481106111d4576111d36189f7565b5b9060005260206000209060060201600001548152602001602683815481106111ff576111fe6189f7565b5b9060005260206000209060060201600101805461121b90618a55565b80601f016020809104026020016040519081016040528092919081815260200182805461124790618a55565b80156112945780601f1061126957610100808354040283529160200191611294565b820191906000526020600020905b81548152906001019060200180831161127757829003601f168201915b50505050508152602001602683815481106112b2576112b16189f7565b5b906000526020600020906006020160020180546112ce90618a55565b80601f01602080910402602001604051908101604052809291908181526020018280546112fa90618a55565b80156113475780601f1061131c57610100808354040283529160200191611347565b820191906000526020600020905b81548152906001019060200180831161132a57829003601f168201915b5050505050815260200160268381548110611365576113646189f7565b5b906000526020600020906006020160030160009054906101000a900460ff16151581526020016026838154811061139f5761139e6189f7565b5b9060005260206000209060060201600401548152602001602683815481106113ca576113c96189f7565b5b906000526020600020906006020160050160009054906101000a900473ffffffffffffffffffffffffffffffffffffffff1673ffffffffffffffffffffffffffffffffffffffff16815250828281518110611428576114276189f7565b5b602002602001018190525080806001019150506111a8565b508091505090565b60145481565b60606003805461145d90618a55565b80601f016020809104026020016040519081016040528092919081815260200182805461148990618a55565b80156114d65780601f106114ab576101008083540402835291602001916114d6565b820191906000526020600020905b8154815290600101906020018083116114b957829003601f168201915b5050505050905090565b6000806114eb615e99565b90506114f8818585615ea1565b600191505092915050565b60246020528060005260406000206000915054906101000a900460ff1681565b6000600254905090565b6006818154811061153d57600080fd5b906000526020600020016000915054906101000a900473ffffffffffffffffffffffffffffffffffffffff1681565b6000611576615eb3565b6025600083815260200190815260200160002060003373ffffffffffffffffffffffffffffffffffffffff1673ffffffffffffffffffffffffffffffffffffffff16815260200190815260200160002060009054906101000a900460ff16611613576040517f08c379a000000000000000000000000000000000000000000000000000000000815260040161160a90618af8565b60405180910390fd5b60006025600084815260200190815260200160002060003373ffffffffffffffffffffffffffffffffffffffff1673ffffffffffffffffffffffffffffffffffffffff16815260200190815260200160002060006101000a81548160ff02191690831515021790555061168e33671bc16d674ec80000615ef9565b3373ffffffffffffffffffffffffffffffffffffffff16827f9b244c565b926d7f4e915b69f3a5c6afc2231322d0d44e821076ad8879d0d68360405160405180910390a3600190506116de615f20565b919050565b6000806116ee615e99565b90506116fb858285615f2a565b611706858585615fbe565b60019150509392505050565b600060056000838152602001908152602001600020600101549050919050565b6064600f6b204fce5e3e2502611000000061174d9190618b47565b6117579190618bb8565b81565b606481565b602a818154811061176f57600080fd5b906000526020600020906004020160009150905080600001549080600101805461179890618a55565b80601f01602080910402602001604051908101604052809291908181526020018280546117c490618a55565b80156118115780601f106117e657610100808354040283529160200191611811565b820191906000526020600020905b8154815290600101906020018083116117f457829003601f168201915b5050505050908060030160009054906101000a900460ff16905083565b601960205280600052604060002060009150905080600001549080600101805461185790618a55565b80601f016020809104026020016040519081016040528092919081815260200182805461188390618a55565b80156118d05780601f106118a5576101008083540402835291602001916118d0565b820191906000526020600020905b8154815290600101906020018083116118b357829003601f168201915b5050505050908060020180546118e590618a55565b80601f016020809104026020016040519081016040528092919081815260200182805461191190618a55565b801561195e5780601f106119335761010080835404028352916020019161195e565b820191906000526020600020905b81548152906001019060200180831161194157829003601f168201915b5050505050908060030160009054906101000a900460ff16908060040154908060050160009054906101000a900473ffffffffffffffffffffffffffffffffffffffff16905086565b60155481565b602881815481106119bd57600080fd5b90600052602060002090602302016000915090508060000154908060010180546119e690618a55565b80601f0160208091040260200160405190810160405280929190818152602001828054611a1290618a55565b8015611a5f5780601f10611a3457610100808354040283529160200191611a5f565b820191906000526020600020905b815481529060010190602001808311611a4257829003601f168201915b505050505090806002018054611a7490618a55565b80601f0160208091040260200160405190810160405280929190818152602001828054611aa090618a55565b8015611aed5780601f10611ac257610100808354040283529160200191611aed565b820191906000526020600020905b815481529060010190602001808311611ad057829003601f168201915b5050505050908060210154908060220160009054906101000a900460ff16905085565b611b1982611712565b611b22816160b2565b611b2c83836160c6565b50505050565b60008073ffffffffffffffffffffffffffffffffffffffff166019600085815260200190815260200160002060050160009054906101000a900473ffffffffffffffffffffffffffffffffffffffff1673ffffffffffffffffffffffffffffffffffffffff1603611bd8576040517f08c379a0000000000000000000000000000000000000000000000000000000008152600401611bcf90618c35565b60405180910390fd5b60005b8251811015611d8e57600060405180606001604052806014548152602001858481518110611c0c57611c0b6189f7565b5b602002602001015181526020016001151581525090506027819080600181540180825580915050600190039060005260206000209060030201600090919091909150600082015181600001556020820151816001019081611c6d9190618e01565b5060408201518160020160006101000a81548160ff021916908315150217905550505080601d60006014548152602001908152602001600020600082015181600001556020820151816001019081611cc59190618e01565b5060408201518160020160006101000a81548160ff021916908315150217905550905050601e6000868152602001908152602001600020819080600181540180825580915050600190039060005260206000209060030201600090919091909150600082015181600001556020820151816001019081611d459190618e01565b5060408201518160020160006101000a81548160ff021916908315150217905550505060146000815480929190611d7b90618ed3565b9190505550508080600101915050611bdb565b508151837f1eb97e969f52c132bb6c79817d1f9001078fff0cd328ce625628e1fb4cc0e7de60405160405180910390a36001905092915050565b60006012905090565b6022602052806000526040600020600091509050806000015490806001018054611dfa90618a55565b80601f0160208091040260200160405190810160405280929190818152602001828054611e2690618a55565b8015611e735780601f10611e4857610100808354040283529160200191611e73565b820191906000526020600020905b815481529060010190602001808311611e5657829003601f168201915b5050505050905082565b6b204fce5e3e2502611000000081565b601b6020528060005260406000206000915090508060000154905081565b611eb3615e99565b73ffffffffffffffffffffffffffffffffffffffff168173ffffffffffffffffffffffffffffffffffffffff1614611f17576040517f6697b23200000000000000000000000000000000000000000000000000000000815260040160405180910390fd5b611f2182826161b8565b505050565b7fadb22091b155738d2e889eb96f509d2a7c93234236b30400927feb4a6a15ab0081565b7fc10c77be35aff266144ed64c26a1fa104bae2f284ae99ac4a34203454704a18581565b60096020528060005260406000206000915090508060000154908060010160009054906101000a900473ffffffffffffffffffffffffffffffffffffffff16908060020160009054906101000a900473ffffffffffffffffffffffffffffffffffffffff1690806003018054611fe390618a55565b80601f016020809104026020016040519081016040528092919081815260200182805461200f90618a55565b801561205c5780601f106120315761010080835404028352916020019161205c565b820191906000526020600020905b81548152906001019060200180831161203f57829003601f168201915b5050505050908060040154908060050160009054906101000a900460ff16905086565b60606021600083815260200190815260200160002060030160009054906101000a900460ff166120e4576040517f08c379a00000000000000000000000000000000000000000000000000000000081526004016120db90618f67565b60405180910390fd5b60216000838152602001908152602001600020600201805480602002602001604051908101604052809291908181526020016000905b828210156122f457838290600052602060002090600302016040518060600160405290816000820154815260200160018201805461215790618a55565b80601f016020809104026020016040519081016040528092919081815260200182805461218390618a55565b80156121d05780601f106121a5576101008083540402835291602001916121d0565b820191906000526020600020905b8154815290600101906020018083116121b357829003601f168201915b5050505050815260200160028201805480602002602001604051908101604052809291908181526020016000905b828210156122dd578382906000526020600020906002020160405180604001604052908160008201805461223190618a55565b80601f016020809104026020016040519081016040528092919081815260200182805461225d90618a55565b80156122aa5780601f1061227f576101008083540402835291602001916122aa565b820191906000526020600020905b81548152906001019060200180831161228d57829003601f168201915b505050505081526020016001820160009054906101000a900460ff161515151581525050815260200190600101906121fe565b50505050815250508152602001906001019061211a565b505050509050919050565b601e602052816000526040600020818154811061231b57600080fd5b90600052602060002090600302016000915091505080600001549080600101805461234590618a55565b80601f016020809104026020016040519081016040528092919081815260200182805461237190618a55565b80156123be5780601f10612393576101008083540402835291602001916123be565b820191906000526020600020905b8154815290600101906020018083116123a157829003601f168201915b5050505050908060020160009054906101000a900460ff16905083565b602b81815481106123eb57600080fd5b906000526020600020906003020160009150905080600001549080600101805461241490618a55565b80601f016020809104026020016040519081016040528092919081815260200182805461244090618a55565b801561248d5780601f106124625761010080835404028352916020019161248d565b820191906000526020600020905b81548152906001019060200180831161247057829003601f168201915b5050505050905082565b7fdf1425bae297c2f52b4f15d18a50b1fc8cb5b981a981b1d213ed3ff92681b64d81565b7fc10c77be35aff266144ed64c26a1fa104bae2f284ae99ac4a34203454704a1856124e5816160b2565b6124ef8c336162ab565b61252e576040517f08c379a000000000000000000000000000000000000000000000000000000000815260040161252590618ff9565b60405180910390fd5b601a60008d815260200190815260200160002060003373ffffffffffffffffffffffffffffffffffffffff1673ffffffffffffffffffffffffffffffffffffffff168152602001908152602001600020600a0160009054906101000a900460ff16156125cf576040517f08c379a00000000000000000000000000000000000000000000000000000000081526004016125c69061908b565b60405180910390fd5b6125e18b8b8b8b8b8b8b8b8b8b616376565b6040518061016001604052808c81526020018b81526020018a815260200189815260200188815260200187815260200186815260200185815260200184815260200183815260200160011515815250601a60008e815260200190815260200160002060003373ffffffffffffffffffffffffffffffffffffffff1673ffffffffffffffffffffffffffffffffffffffff168152602001908152602001600020600082015181600001556020820151816001015560408201518160020155606082015181600301556080820151816004015560a0820151816005015560c0820151816006015560e082015181600701556101008201518160080155610120820151816009015561014082015181600a0160006101000a81548160ff0219169083151502179055509050506050612764601a60008f815260200190815260200160002060003373ffffffffffffffffffffffffffffffffffffffff1673ffffffffffffffffffffffffffffffffffffffff16815260200190815260200160002061643b565b10612773576127728c613444565b5b505050505050505050505050565b600281565b6000601f600085815260200190815260200160002090508060220160009054906101000a900460ff166127ee576040517f08c379a00000000000000000000000000000000000000000000000000000000081526004016127e5906190f7565b60405180910390fd5b600081602101549050600a84849050826128089190619117565b1115612849576040517f08c379a000000000000000000000000000000000000000000000000000000000815260040161284090619197565b60405180910390fd5b60005b84849050811015612a4e576040518060600160405280868684818110612875576128746189f7565b5b905060200281019061288791906191c6565b806000019061289691906191ee565b8080601f016020809104026020016040519081016040528093929190818152602001838380828437600081840152601f19601f8201169050808301925050505050505081526020018686848181106128f1576128f06189f7565b5b905060200281019061290391906191c6565b806020019061291291906191ee565b8080601f016020809104026020016040519081016040528093929190818152602001838380828437600081840152601f19601f82011690508083019250505050505050815260200186868481811061296d5761296c6189f7565b5b905060200281019061297f91906191c6565b806040019061298e91906191ee565b8080601f016020809104026020016040519081016040528093929190818152602001838380828437600081840152601f19601f820116905080830192505050505050508152508360030183600a81106129ea576129e96189f7565b5b600302016000820151816000019081612a039190618e01565b506020820151816001019081612a199190618e01565b506040820151816002019081612a2f9190618e01565b509050508180612a3e90618ed3565b925050808060010191505061284c565b5080826021018190555060005b602880549050811015612b4e578560288281548110612a7d57612a7c6189f7565b5b90600052602060002090602302016000015403612b41578260288281548110612aa957612aa86189f7565b5b90600052602060002090602302016000820154816000015560018201816001019081612ad59190619267565b5060028201816002019081612aea9190619267565b50600382018160030190600a612b01929190616cbe565b50602182015481602101556022820160009054906101000a900460ff168160220160006101000a81548160ff021916908315150217905550905050612b4e565b8080600101915050612a5b565b505050505050565b6000806016549050601f600085815260200190815260200160002060220160009054906101000a900460ff16612bc1576040517f08c379a0000000000000000000000000000000000000000000000000000000008152600401612bb89061939b565b60405180910390fd5b600060216000838152602001908152602001600020905081816000018190555083816001019081612bf29190618e01565b5060018160030160006101000a81548160ff02191690831515021790555060166000815480929190612c2390618ed3565b9190505550602a8190806001815401808255809150506001900390600052602060002090600402016000909190919091506000820154816000015560018201816001019081612c729190619267565b506002820181600201908054612c89929190616d40565b506003820160009054906101000a900460ff168160030160006101000a81548160ff021916908315150217905550505083604051612cc791906193f7565b6040518091039020827fbf27702cefbc4aea50d7c73cfee96f84f5b908f62aeafcd8b0aeae202c15050960405160405180910390a3819250505092915050565b60125481565b60606000601654905060008167ffffffffffffffff811115612d3257612d31617776565b5b604051908082528060200260200182016040528015612d6b57816020015b612d58616dce565b815260200190600190039081612d505790505b50905060005b82811015613080576021600082815260200190815260200160002060405180608001604052908160008201548152602001600182018054612db190618a55565b80601f0160208091040260200160405190810160405280929190818152602001828054612ddd90618a55565b8015612e2a5780601f10612dff57610100808354040283529160200191612e2a565b820191906000526020600020905b815481529060010190602001808311612e0d57829003601f168201915b5050505050815260200160028201805480602002602001604051908101604052809291908181526020016000905b82821015613032578382906000526020600020906003020160405180606001604052908160008201548152602001600182018054612e9590618a55565b80601f0160208091040260200160405190810160405280929190818152602001828054612ec190618a55565b8015612f0e5780601f10612ee357610100808354040283529160200191612f0e565b820191906000526020600020905b815481529060010190602001808311612ef157829003601f168201915b5050505050815260200160028201805480602002602001604051908101604052809291908181526020016000905b8282101561301b5783829060005260206000209060020201604051806040016040529081600082018054612f6f90618a55565b80601f0160208091040260200160405190810160405280929190818152602001828054612f9b90618a55565b8015612fe85780601f10612fbd57610100808354040283529160200191612fe8565b820191906000526020600020905b815481529060010190602001808311612fcb57829003601f168201915b505050505081526020016001820160009054906101000a900460ff16151515158152505081526020019060010190612f3c565b505050508152505081526020019060010190612e58565b5050505081526020016003820160009054906101000a900460ff161515151581525050828281518110613068576130676189f7565b5b60200260200101819052508080600101915050612d71565b50809250505090565b60185481565b6026818154811061309f57600080fd5b90600052602060002090600602016000915090508060000154908060010180546130c890618a55565b80601f01602080910402602001604051908101604052809291908181526020018280546130f490618a55565b80156131415780601f1061311657610100808354040283529160200191613141565b820191906000526020600020905b81548152906001019060200180831161312457829003601f168201915b50505050509080600201805461315690618a55565b80601f016020809104026020016040519081016040528092919081815260200182805461318290618a55565b80156131cf5780601f106131a4576101008083540402835291602001916131cf565b820191906000526020600020905b8154815290600101906020018083116131b257829003601f168201915b5050505050908060030160009054906101000a900460ff16908060040154908060050160009054906101000a900473ffffffffffffffffffffffffffffffffffffffff16905086565b60008060008373ffffffffffffffffffffffffffffffffffffffff1673ffffffffffffffffffffffffffffffffffffffff168152602001908152602001600020549050919050565b7fc10c77be35aff266144ed64c26a1fa104bae2f284ae99ac4a34203454704a18561328a816160b2565b600860008373ffffffffffffffffffffffffffffffffffffffff1673ffffffffffffffffffffffffffffffffffffffff16815260200190815260200160002060009054906101000a900460ff1615613317576040517f08c379a000000000000000000000000000000000000000000000000000000000815260040161330e9061945a565b60405180910390fd5b6133417fc10c77be35aff266144ed64c26a1fa104bae2f284ae99ac4a34203454704a185836160c6565b506006829080600181540180825580915050600190039060005260206000200160009091909190916101000a81548173ffffffffffffffffffffffffffffffffffffffff021916908373ffffffffffffffffffffffffffffffffffffffff1602179055506001600860008473ffffffffffffffffffffffffffffffffffffffff1673ffffffffffffffffffffffffffffffffffffffff16815260200190815260200160002060006101000a81548160ff0219169083151502179055508173ffffffffffffffffffffffffffffffffffffffff167fe1cb5e1230cc02e62c60b81c1aa5ade512f3eac296edb28628b4cf344f47f93160405160405180910390a25050565b7fc10c77be35aff266144ed64c26a1fa104bae2f284ae99ac4a34203454704a18561346e816160b2565b60006019600084815260200190815260200160002090508060030160009054906101000a900460ff16156134d7576040517f08c379a00000000000000000000000000000000000000000000000000000000081526004016134ce906194c6565b60405180910390fd5b601c60003373ffffffffffffffffffffffffffffffffffffffff1673ffffffffffffffffffffffffffffffffffffffff168152602001908152602001600020600084815260200190815260200160002060009054906101000a900460ff1615613575576040517f08c379a000000000000000000000000000000000000000000000000000000000815260040161356c90619558565b60405180910390fd5b6001601c60003373ffffffffffffffffffffffffffffffffffffffff1673ffffffffffffffffffffffffffffffffffffffff168152602001908152602001600020600085815260200190815260200160002060006101000a81548160ff0219169083151502179055508060040160008154809291906135f390618ed3565b919050555060028160040154106136595760018160030160006101000a81548160ff0219169083151502179055506136578160050160009054906101000a900473ffffffffffffffffffffffffffffffffffffffff16674563918244f400006164d0565b505b505050565b60006015549050601d600085815260200190815260200160002060020160009054906101000a900460ff166136c8576040517f08c379a00000000000000000000000000000000000000000000000000000000081526004016136bf906195c4565b60405180910390fd5b6000601f60008381526020019081526020016000209050818160000181905550838160010190816136f99190618e01565b508281600201908161370b9190618e01565b5060018160220160006101000a81548160ff021916908315150217905550600081602101819055506028601f60008481526020019081526020016000209080600181540180825580915050600190039060005260206000209060230201600090919091909150600082015481600001556001820181600101908161378f9190619267565b50600282018160020190816137a49190619267565b50600382018160030190600a6137bb929190616cbe565b50602182015481602101556022820160009054906101000a900460ff168160220160006101000a81548160ff02191690831515021790555050506015600081548092919061380890618ed3565b9190505550600a8460405161381d91906193f7565b6040518091039020837f3387c3a40ec1df95e34d25a0e5564b40d01c331b71ccbafccccc66d36c84ad8360405160405180910390a45050505050565b60135481565b671bc16d674ec8000081565b602160205280600052604060002060009150905080600001549080600101805461389490618a55565b80601f01602080910402602001604051908101604052809291908181526020018280546138c090618a55565b801561390d5780601f106138e25761010080835404028352916020019161390d565b820191906000526020600020905b8154815290600101906020018083116138f057829003601f168201915b5050505050908060030160009054906101000a900460ff16905083565b7fc10c77be35aff266144ed64c26a1fa104bae2f284ae99ac4a34203454704a185613954816160b2565b6024600083815260200190815260200160002060009054906101000a900460ff16156139b5576040517f08c379a00000000000000000000000000000000000000000000000000000000081526004016139ac90619630565b60405180910390fd5b600360068054905010156139fe576040517f08c379a00000000000000000000000000000000000000000000000000000000081526004016139f59061969c565b60405180910390fd5b602360008381526020019081526020016000206000613a1d9190616df8565b60005b6003811015613bfa576000600680549050424460068054905085604051602001613a4d94939291906196dd565b6040516020818303038152906040528051906020012060001c613a70919061972b565b9050600060068281548110613a8857613a876189f7565b5b9060005260206000200160009054906101000a900473ffffffffffffffffffffffffffffffffffffffff1690506000805b6023600088815260200190815260200160002080549050811015613b6f578273ffffffffffffffffffffffffffffffffffffffff16602360008981526020019081526020016000208281548110613b1357613b126189f7565b5b9060005260206000200160009054906101000a900473ffffffffffffffffffffffffffffffffffffffff1673ffffffffffffffffffffffffffffffffffffffff1603613b625760019150613b6f565b8080600101915050613ab9565b5080613bea5760236000878152602001908152602001600020829080600181540180825580915050600190039060005260206000200160009091909190916101000a81548173ffffffffffffffffffffffffffffffffffffffff021916908373ffffffffffffffffffffffffffffffffffffffff1602179055505b5050508080600101915050613a20565b506003602360008481526020019081526020016000208054905003613c465760016024600084815260200190815260200160002060006101000a81548160ff0219169083151502179055505b817fe205dff861c570b8df17e26f893778853f94bb25d2de318755e48eab0b403ff760236000858152602001908152602001600020604051613c889190619848565b60405180910390a25050565b60006005600084815260200190815260200160002060000160008373ffffffffffffffffffffffffffffffffffffffff1673ffffffffffffffffffffffffffffffffffffffff16815260200190815260200160002060009054906101000a900460ff16905092915050565b606060048054613d0e90618a55565b80601f0160208091040260200160405190810160405280929190818152602001828054613d3a90618a55565b8015613d875780601f10613d5c57610100808354040283529160200191613d87565b820191906000526020600020905b815481529060010190602001808311613d6a57829003601f168201915b5050505050905090565b60115481565b60236020528160005260406000208181548110613db357600080fd5b906000526020600020016000915091509054906101000a900473ffffffffffffffffffffffffffffffffffffffff1681565b6000801b81565b60008073ffffffffffffffffffffffffffffffffffffffff1660196000601354815260200190815260200160002060050160009054906101000a900473ffffffffffffffffffffffffffffffffffffffff1673ffffffffffffffffffffffffffffffffffffffff1614613e94576040517f08c379a0000000000000000000000000000000000000000000000000000000008152600401613e8b906198b6565b60405180910390fd5b60006040518060c001604052806013548152602001858152602001848152602001600015158152602001600081526020013373ffffffffffffffffffffffffffffffffffffffff16815250905080601960006013548152602001908152602001600020600082015181600001556020820151816001019081613f169190618e01565b506040820151816002019081613f2c9190618e01565b5060608201518160030160006101000a81548160ff0219169083151502179055506080820151816004015560a08201518160050160006101000a81548173ffffffffffffffffffffffffffffffffffffffff021916908373ffffffffffffffffffffffffffffffffffffffff1602179055509050506026819080600181540180825580915050600190039060005260206000209060060201600090919091909150600082015181600001556020820151816001019081613fec9190618e01565b5060408201518160020190816140029190618e01565b5060608201518160030160006101000a81548160ff0219169083151502179055506080820151816004015560a08201518160050160006101000a81548173ffffffffffffffffffffffffffffffffffffffff021916908373ffffffffffffffffffffffffffffffffffffffff16021790555050506012600081548092919061408990618ed3565b91905055506001601b60003373ffffffffffffffffffffffffffffffffffffffff1673ffffffffffffffffffffffffffffffffffffffff16815260200190815260200160002060000160008282546140e19190619117565b92505081905550601360008154809291906140fb90618ed3565b919050555061412a7fadb22091b155738d2e889eb96f509d2a7c93234236b30400927feb4a6a15ab00336160c6565b508360405161413991906193f7565b6040518091039020600160135461415091906198d6565b7f9c93a42b217373d37e6c66ace0a67fe1fa1f78c93164b62417de69c48c0f67e260196000600160135461418491906198d6565b815260200190815260200160002060030160009054906101000a900460ff166040516141b09190617136565b60405180910390a3600191505092915050565b60606000602880549050905060008167ffffffffffffffff8111156141eb576141ea617776565b5b60405190808252806020026020018201604052801561422457816020015b614211616e19565b8152602001906001900390816142095790505b50905060005b828110156145df5760288181548110614246576142456189f7565b5b90600052602060002090602302016040518060c00160405290816000820154815260200160018201805461427990618a55565b80601f01602080910402602001604051908101604052809291908181526020018280546142a590618a55565b80156142f25780601f106142c7576101008083540402835291602001916142f2565b820191906000526020600020905b8154815290600101906020018083116142d557829003601f168201915b5050505050815260200160028201805461430b90618a55565b80601f016020809104026020016040519081016040528092919081815260200182805461433790618a55565b80156143845780601f1061435957610100808354040283529160200191614384565b820191906000526020600020905b81548152906001019060200180831161436757829003601f168201915b5050505050815260200160038201600a80602002604051908101604052809291906000905b82821015614587578382600302016040518060600160405290816000820180546143d290618a55565b80601f01602080910402602001604051908101604052809291908181526020018280546143fe90618a55565b801561444b5780601f106144205761010080835404028352916020019161444b565b820191906000526020600020905b81548152906001019060200180831161442e57829003601f168201915b5050505050815260200160018201805461446490618a55565b80601f016020809104026020016040519081016040528092919081815260200182805461449090618a55565b80156144dd5780601f106144b2576101008083540402835291602001916144dd565b820191906000526020600020905b8154815290600101906020018083116144c057829003601f168201915b505050505081526020016002820180546144f690618a55565b80601f016020809104026020016040519081016040528092919081815260200182805461452290618a55565b801561456f5780601f106145445761010080835404028352916020019161456f565b820191906000526020600020905b81548152906001019060200180831161455257829003601f168201915b505050505081525050815260200190600101906143a9565b505050508152602001602182015481526020016022820160009054906101000a900460ff1615151515815250508282815181106145c7576145c66189f7565b5b6020026020010181905250808060010191505061422a565b50809250505090565b601d60205280600052604060002060009150905080600001549080600101805461461190618a55565b80601f016020809104026020016040519081016040528092919081815260200182805461463d90618a55565b801561468a5780601f1061465f5761010080835404028352916020019161468a565b820191906000526020600020905b81548152906001019060200180831161466d57829003601f168201915b5050505050908060020160009054906101000a900460ff16905083565b6146af616dce565b6021600083815260200190815260200160002060030160009054906101000a900460ff16614712576040517f08c379a000000000000000000000000000000000000000000000000000000000815260040161470990618f67565b60405180910390fd5b602160008381526020019081526020016000206040518060800160405290816000820154815260200160018201805461474a90618a55565b80601f016020809104026020016040519081016040528092919081815260200182805461477690618a55565b80156147c35780601f10614798576101008083540402835291602001916147c3565b820191906000526020600020905b8154815290600101906020018083116147a657829003601f168201915b5050505050815260200160028201805480602002602001604051908101604052809291908181526020016000905b828210156149cb57838290600052602060002090600302016040518060600160405290816000820154815260200160018201805461482e90618a55565b80601f016020809104026020016040519081016040528092919081815260200182805461485a90618a55565b80156148a75780601f1061487c576101008083540402835291602001916148a7565b820191906000526020600020905b81548152906001019060200180831161488a57829003601f168201915b5050505050815260200160028201805480602002602001604051908101604052809291908181526020016000905b828210156149b4578382906000526020600020906002020160405180604001604052908160008201805461490890618a55565b80601f016020809104026020016040519081016040528092919081815260200182805461493490618a55565b80156149815780601f1061495657610100808354040283529160200191614981565b820191906000526020600020905b81548152906001019060200180831161496457829003601f168201915b505050505081526020016001820160009054906101000a900460ff161515151581525050815260200190600101906148d5565b5050505081525050815260200190600101906147f1565b5050505081526020016003820160009054906101000a900460ff1615151515815250509050919050565b600080614a00615e99565b9050614a0d818585615fbe565b600191505092915050565b602080528160005260406000208181548110614a3357600080fd5b90600052602060002001600091509150508054614a4f90618a55565b80601f0160208091040260200160405190810160405280929190818152602001828054614a7b90618a55565b8015614ac85780601f10614a9d57610100808354040283529160200191614ac8565b820191906000526020600020905b815481529060010190602001808311614aab57829003601f168201915b505050505081565b6060601e6000838152602001908152602001600020805480602002602001604051908101604052809291908181526020016000905b82821015614bee578382906000526020600020906003020160405180606001604052908160008201548152602001600182018054614b4290618a55565b80601f0160208091040260200160405190810160405280929190818152602001828054614b6e90618a55565b8015614bbb5780601f10614b9057610100808354040283529160200191614bbb565b820191906000526020600020905b815481529060010190602001808311614b9e57829003601f168201915b505050505081526020016002820160009054906101000a900460ff16151515158152505081526020019060010190614b05565b505050509050919050565b605081565b7fdf1425bae297c2f52b4f15d18a50b1fc8cb5b981a981b1d213ed3ff92681b64d614c28816160b2565b60006009600084815260200190815260200160002090508060050160009054906101000a900460ff1615614c91576040517f08c379a0000000000000000000000000000000000000000000000000000000008152600401614c8890619956565b60405180910390fd5b8060060160003373ffffffffffffffffffffffffffffffffffffffff1673ffffffffffffffffffffffffffffffffffffffff16815260200190815260200160002060009054906101000a900460ff1615614d20576040517f08c379a0000000000000000000000000000000000000000000000000000000008152600401614d17906199c2565b60405180910390fd5b60018160060160003373ffffffffffffffffffffffffffffffffffffffff1673ffffffffffffffffffffffffffffffffffffffff16815260200190815260200160002060006101000a81548160ff021916908315150217905550806004016000815480929190614d8f90618ed3565b9190505550827f5d4ccf5f92566d140246f4ae3b9cb35dc06fff109a7748602ad77f6260fd9a6133604051614dc49190617528565b60405180910390a26003816004015410614ef85760008160020160009054906101000a900473ffffffffffffffffffffffffffffffffffffffff1673ffffffffffffffffffffffffffffffffffffffff1682600301604051614e269190619a85565b6000604051808303816000865af19150503d8060008114614e63576040519150601f19603f3d011682016040523d82523d6000602084013e614e68565b606091505b5050905080614eac576040517f08c379a0000000000000000000000000000000000000000000000000000000008152600401614ea390619ae8565b60405180910390fd5b60018260050160006101000a81548160ff021916908315150217905550837f7770356c29230b95943aec59d47ead11eb426a728bf5b57f7fd8597f3c0e29ba60405160405180910390a2505b505050565b601f602052806000526040600020600091509050806000015490806001018054614f2690618a55565b80601f0160208091040260200160405190810160405280929190818152602001828054614f5290618a55565b8015614f9f5780601f10614f7457610100808354040283529160200191614f9f565b820191906000526020600020905b815481529060010190602001808311614f8257829003601f168201915b505050505090806002018054614fb490618a55565b80601f0160208091040260200160405190810160405280929190818152602001828054614fe090618a55565b801561502d5780601f106150025761010080835404028352916020019161502d565b820191906000526020600020905b81548152906001019060200180831161501057829003601f168201915b5050505050908060210154908060220160009054906101000a900460ff16905085565b601a6020528160005260406000206020528060005260406000206000915091505080600001549080600101549080600201549080600301549080600401549080600501549080600601549080600701549080600801549080600901549080600a0160009054906101000a900460ff1690508b565b60606023600083815260200190815260200160002080548060200260200160405190810160405280929190818152602001828054801561515957602002820191906000526020600020905b8160009054906101000a900473ffffffffffffffffffffffffffffffffffffffff1673ffffffffffffffffffffffffffffffffffffffff168152602001906001019080831161510f575b50505050509050919050565b60086020528060005260406000206000915054906101000a900460ff1681565b6000601154905090565b6027818154811061519f57600080fd5b90600052602060002090600302016000915090508060000154908060010180546151c890618a55565b80601f01602080910402602001604051908101604052809291908181526020018280546151f490618a55565b80156152415780601f1061521657610100808354040283529160200191615241565b820191906000526020600020905b81548152906001019060200180831161522457829003601f168201915b5050505050908060020160009054906101000a900460ff16905083565b6000801b61526b816160b2565b600860008373ffffffffffffffffffffffffffffffffffffffff1673ffffffffffffffffffffffffffffffffffffffff16815260200190815260200160002060009054906101000a900460ff166152f7576040517f08c379a00000000000000000000000000000000000000000000000000000000081526004016152ee90619b54565b60405180910390fd5b60005b60068054905081101561547d578273ffffffffffffffffffffffffffffffffffffffff1660068281548110615332576153316189f7565b5b9060005260206000200160009054906101000a900473ffffffffffffffffffffffffffffffffffffffff1673ffffffffffffffffffffffffffffffffffffffff1603615470576006600160068054905061538c91906198d6565b8154811061539d5761539c6189f7565b5b9060005260206000200160009054906101000a900473ffffffffffffffffffffffffffffffffffffffff16600682815481106153dc576153db6189f7565b5b9060005260206000200160006101000a81548173ffffffffffffffffffffffffffffffffffffffff021916908373ffffffffffffffffffffffffffffffffffffffff160217905550600680548061543657615435619b74565b5b6001900381819060005260206000200160006101000a81549073ffffffffffffffffffffffffffffffffffffffff0219169055905561547d565b80806001019150506152fa565b506000600860008473ffffffffffffffffffffffffffffffffffffffff1673ffffffffffffffffffffffffffffffffffffffff16815260200190815260200160002060006101000a81548160ff0219169083151502179055506155007fc10c77be35aff266144ed64c26a1fa104bae2f284ae99ac4a34203454704a185836161b8565b508173ffffffffffffffffffffffffffffffffffffffff167f55dba9d79522b91b615629d5f3b10c2fad2d258f1768614f4a52e937ada0d0ba60405160405180910390a25050565b60256020528160005260406000206020528060005260406000206000915091509054906101000a900460ff1681565b6021600085815260200190815260200160002060030160009054906101000a900460ff166155da576040517f08c379a00000000000000000000000000000000000000000000000000000000081526004016155d190618f67565b60405180910390fd5b600082511180156155ed57506004825111155b61562c576040517f08c379a000000000000000000000000000000000000000000000000000000000815260040161562390619bef565b60405180910390fd5b81518160ff1610615672576040517f08c379a000000000000000000000000000000000000000000000000000000000815260040161566990619c5b565b60405180910390fd5b600060175490506000602260008381526020019081526020016000209050818160000181905550848160010190816156aa9190618e01565b5060005b84518160ff1610156157745760006040518060400160405280878460ff16815181106156dd576156dc6189f7565b5b602002602001015181526020018660ff168460ff16141515815250905082600201819080600181540180825580915050600190039060005260206000209060020201600090919091909150600082015181600001908161573d9190618e01565b5060208201518160010160006101000a81548160ff021916908315150217905550505050808061576c90619c7b565b9150506156ae565b506021600087815260200190815260200160002060020181908060018154018082558091505060019003906000526020600020906003020160009091909190915060008201548160000155600182018160010190816157d39190619267565b5060028201816002019080546157ea929190616e57565b5050506017600081548092919061580090618ed3565b9190505550602b819080600181540180825580915050600190039060005260206000209060030201600090919091909150600082015481600001556001820181600101908161584f9190619267565b506002820181600201908054615866929190616e57565b5050507fa5bdacf4d1324fdd584bc65cf0315e4975d00b33a7ca0e6d0a73c88df8430b9586838760405161589c93929190619ca4565b60405180910390a160005b84518160ff16101561592e577f06ef0ba2ad58c9f8eef2fc98c08fd18d801c4a971eeb45afd07f0fee3f9d60c4838260ff166018546158e69190619117565b878460ff16815181106158fc576158fb6189f7565b5b602002602001015160405161591393929190619ca4565b60405180910390a1808061592690619c7b565b9150506158a7565b508351601860008282546159429190619117565b92505081905550505050505050565b61595a82611712565b615963816160b2565b61596d83836161b8565b50505050565b674563918244f4000081565b6000600160008473ffffffffffffffffffffffffffffffffffffffff1673ffffffffffffffffffffffffffffffffffffffff16815260200190815260200160002060008373ffffffffffffffffffffffffffffffffffffffff1673ffffffffffffffffffffffffffffffffffffffff16815260200190815260200160002054905092915050565b60298181548110615a1657600080fd5b9060005260206000209060030201600091509050806000018054615a3990618a55565b80601f0160208091040260200160405190810160405280929190818152602001828054615a6590618a55565b8015615ab25780601f10615a8757610100808354040283529160200191615ab2565b820191906000526020600020905b815481529060010190602001808311615a9557829003601f168201915b505050505090806001018054615ac790618a55565b80601f0160208091040260200160405190810160405280929190818152602001828054615af390618a55565b8015615b405780601f10615b1557610100808354040283529160200191615b40565b820191906000526020600020905b815481529060010190602001808311615b2357829003601f168201915b505050505090806002018054615b5590618a55565b80601f0160208091040260200160405190810160405280929190818152602001828054615b8190618a55565b8015615bce5780601f10615ba357610100808354040283529160200191615bce565b820191906000526020600020905b815481529060010190602001808311615bb157829003601f168201915b5050505050905083565b6000600b60000154905090565b60165481565b60175481565b6000615bfb615eb3565b6019600083815260200190815260200160002060030160009054906101000a900460ff16615c5e576040517f08c379a0000000000000000000000000000000000000000000000000000000008152600401615c5590619d2e565b60405180910390fd5b6025600083815260200190815260200160002060003373ffffffffffffffffffffffffffffffffffffffff1673ffffffffffffffffffffffffffffffffffffffff16815260200190815260200160002060009054906101000a900460ff1615615cfc576040517f08c379a0000000000000000000000000000000000000000000000000000000008152600401615cf390619dc0565b60405180910390fd5b60016025600084815260200190815260200160002060003373ffffffffffffffffffffffffffffffffffffffff1673ffffffffffffffffffffffffffffffffffffffff16815260200190815260200160002060006101000a81548160ff021916908315150217905550615d7733671bc16d674ec800006164d0565b503373ffffffffffffffffffffffffffffffffffffffff16827f4bf249f6b0ca5630ea4816c04b928b864a2065cb51658fd6223d83b727fd326b60405160405180910390a360019050615dc8615f20565b919050565b6000615df97fc10c77be35aff266144ed64c26a1fa104bae2f284ae99ac4a34203454704a18583613c94565b9050919050565b601c6020528160005260406000206020528060005260406000206000915091509054906101000a900460ff1681565b60007f01ffc9a7000000000000000000000000000000000000000000000000000000007bffffffffffffffffffffffffffffffffffffffffffffffffffffffff1916827bffffffffffffffffffffffffffffffffffffffffffffffffffffffff1916149050919050565b600033905090565b615eae83838360016165bd565b505050565b6002600a5403615eef576040517f3ee5aeb500000000000000000000000000000000000000000000000000000000815260040160405180910390fd5b6002600a81905550565b615f038282616794565b8060116000828254615f1591906198d6565b925050819055505050565b6001600a81905550565b6000615f36848461597f565b90507fffffffffffffffffffffffffffffffffffffffffffffffffffffffffffffffff8114615fb85781811015615fa8578281836040517ffb8f41b2000000000000000000000000000000000000000000000000000000008152600401615f9f93929190619de0565b60405180910390fd5b615fb7848484840360006165bd565b5b50505050565b600073ffffffffffffffffffffffffffffffffffffffff168373ffffffffffffffffffffffffffffffffffffffff16036160305760006040517f96c6fd1e0000000000000000000000000000000000000000000000000000000081526004016160279190617528565b60405180910390fd5b600073ffffffffffffffffffffffffffffffffffffffff168273ffffffffffffffffffffffffffffffffffffffff16036160a25760006040517fec442f050000000000000000000000000000000000000000000000000000000081526004016160999190617528565b60405180910390fd5b6160ad83838361683b565b505050565b6160c3816160be615e99565b616a60565b50565b60006160d28383613c94565b6161ad5760016005600085815260200190815260200160002060000160008473ffffffffffffffffffffffffffffffffffffffff1673ffffffffffffffffffffffffffffffffffffffff16815260200190815260200160002060006101000a81548160ff02191690831515021790555061614a615e99565b73ffffffffffffffffffffffffffffffffffffffff168273ffffffffffffffffffffffffffffffffffffffff16847f2f8788117e7eff1d82e926ec794901d17c78024a50270940304540a733656f0d60405160405180910390a4600190506161b2565b600090505b92915050565b60006161c48383613c94565b156162a05760006005600085815260200190815260200160002060000160008473ffffffffffffffffffffffffffffffffffffffff1673ffffffffffffffffffffffffffffffffffffffff16815260200190815260200160002060006101000a81548160ff02191690831515021790555061623d615e99565b73ffffffffffffffffffffffffffffffffffffffff168273ffffffffffffffffffffffffffffffffffffffff16847ff6391f5c32d9c69d2a47ea670b442974b53935d1edc7fd64eb21e047a839171b60405160405180910390a4600190506162a5565b600090505b92915050565b600080600090505b602360008581526020019081526020016000208054905081101561636a578273ffffffffffffffffffffffffffffffffffffffff1660236000868152602001908152602001600020828154811061630d5761630c6189f7565b5b9060005260206000200160009054906101000a900473ffffffffffffffffffffffffffffffffffffffff1673ffffffffffffffffffffffffffffffffffffffff160361635d576001915050616370565b80806001019150506162b3565b50600090505b92915050565b600a8a111580156163885750600a8911155b80156163955750600a8811155b80156163a25750600a8711155b80156163af5750600a8611155b80156163bc5750600a8511155b80156163c95750600a8411155b80156163d65750600a8311155b80156163e35750600a8211155b80156163f05750600a8111155b61642f576040517f08c379a000000000000000000000000000000000000000000000000000000000815260040161642690619e63565b60405180910390fd5b50505050505050505050565b60008160090154826008015483600701548460060154856005015486600401548760030154886002015489600101548a600001546164799190619117565b6164839190619117565b61648d9190619117565b6164979190619117565b6164a19190619117565b6164ab9190619117565b6164b59190619117565b6164bf9190619117565b6164c99190619117565b9050919050565b60006064600f6b204fce5e3e250261100000006164ed9190618b47565b6164f79190618bb8565b6164ff615185565b8361650a9190619117565b111561654b576040517f08c379a000000000000000000000000000000000000000000000000000000000815260040161654290619ecf565b60405180910390fd5b6165558383616ab1565b5081601160008282546165689190619117565b92505081905550818373ffffffffffffffffffffffffffffffffffffffff167fad6ef58d5c294f81258965738e7ae511124139834a8d0b8f8f7327086c82052a60405160405180910390a36001905092915050565b600073ffffffffffffffffffffffffffffffffffffffff168473ffffffffffffffffffffffffffffffffffffffff160361662f5760006040517fe602df050000000000000000000000000000000000000000000000000000000081526004016166269190617528565b60405180910390fd5b600073ffffffffffffffffffffffffffffffffffffffff168373ffffffffffffffffffffffffffffffffffffffff16036166a15760006040517f94280d620000000000000000000000000000000000000000000000000000000081526004016166989190617528565b60405180910390fd5b81600160008673ffffffffffffffffffffffffffffffffffffffff1673ffffffffffffffffffffffffffffffffffffffff16815260200190815260200160002060008573ffffffffffffffffffffffffffffffffffffffff1673ffffffffffffffffffffffffffffffffffffffff16815260200190815260200160002081905550801561678e578273ffffffffffffffffffffffffffffffffffffffff168473ffffffffffffffffffffffffffffffffffffffff167f8c5be1e5ebec7d5bd14f71427d1e84f3dd0314c0f7b2291e5b200ac8c7c3b9258460405161678591906173cd565b60405180910390a35b50505050565b8061679e83613218565b10156167df576040517f08c379a00000000000000000000000000000000000000000000000000000000081526004016167d690619f3b565b60405180910390fd5b6167e98282616b6c565b8173ffffffffffffffffffffffffffffffffffffffff167f5b5d8478b570a79ab6b3bf13ff029fba19c02ab0d54d692d4ef0d9052d5cc8508260405161682f91906173cd565b60405180910390a25050565b600073ffffffffffffffffffffffffffffffffffffffff168373ffffffffffffffffffffffffffffffffffffffff160361688d5780600260008282546168819190619117565b92505081905550616960565b60008060008573ffffffffffffffffffffffffffffffffffffffff1673ffffffffffffffffffffffffffffffffffffffff16815260200190815260200160002054905081811015616919578381836040517fe450d38c00000000000000000000000000000000000000000000000000000000815260040161691093929190619de0565b60405180910390fd5b8181036000808673ffffffffffffffffffffffffffffffffffffffff1673ffffffffffffffffffffffffffffffffffffffff16815260200190815260200160002081905550505b600073ffffffffffffffffffffffffffffffffffffffff168273ffffffffffffffffffffffffffffffffffffffff16036169a957806002600082825403925050819055506169f6565b806000808473ffffffffffffffffffffffffffffffffffffffff1673ffffffffffffffffffffffffffffffffffffffff168152602001908152602001600020600082825401925050819055505b8173ffffffffffffffffffffffffffffffffffffffff168373ffffffffffffffffffffffffffffffffffffffff167fddf252ad1be2c89b69c2b068fc378daa952ba7f163c4a11628f55a4df523b3ef83604051616a5391906173cd565b60405180910390a3505050565b616a6a8282613c94565b616aad5780826040517fe2517d3f000000000000000000000000000000000000000000000000000000008152600401616aa4929190619f5b565b60405180910390fd5b5050565b60006b204fce5e3e25026110000000616ac8611523565b83616ad39190619117565b1115616b14576040517f08c379a0000000000000000000000000000000000000000000000000000000008152600401616b0b90619ecf565b60405180910390fd5b616b1e8383616bee565b818373ffffffffffffffffffffffffffffffffffffffff167fcda531bfd68624f13205c0a23cd4d5a7f09792cbb399603114f2b04aaa1bf5cf60405160405180910390a36001905092915050565b600073ffffffffffffffffffffffffffffffffffffffff168273ffffffffffffffffffffffffffffffffffffffff1603616bde5760006040517f96c6fd1e000000000000000000000000000000000000000000000000000000008152600401616bd59190617528565b60405180910390fd5b616bea8260008361683b565b5050565b600073ffffffffffffffffffffffffffffffffffffffff168273ffffffffffffffffffffffffffffffffffffffff1603616c605760006040517fec442f05000000000000000000000000000000000000000000000000000000008152600401616c579190617528565b60405180910390fd5b616c6c6000838361683b565b5050565b6040518060c0016040528060008152602001606081526020016060815260200160001515815260200160008152602001600073ffffffffffffffffffffffffffffffffffffffff1681525090565b82600a6003028101928215616d2f579160030282015b82811115616d2e57828260008201816000019081616cf29190619267565b5060018201816001019081616d079190619267565b5060028201816002019081616d1c9190619267565b50505091600301919060030190616cd4565b5b509050616d3c9190616ef1565b5090565b828054828255906000526020600020906003028101928215616dbd5760005260206000209160030282015b82811115616dbc5782826000820154816000015560018201816001019081616d939190619267565b506002820181600201908054616daa929190616e57565b50505091600301919060030190616d6b565b5b509050616dca9190616f38565b5090565b60405180608001604052806000815260200160608152602001606081526020016000151581525090565b5080546000825590600052602060002090810190616e169190616f77565b50565b6040518060c00160405280600081526020016060815260200160608152602001616e41616f94565b8152602001600081526020016000151581525090565b828054828255906000526020600020906002028101928215616ee05760005260206000209160020282015b82811115616edf57828260008201816000019081616ea09190619267565b506001820160009054906101000a900460ff168160010160006101000a81548160ff021916908315150217905550505091600201919060020190616e82565b5b509050616eed9190616fc2565b5090565b5b80821115616f345760008082016000616f0b9190616ffd565b600182016000616f1b9190616ffd565b600282016000616f2b9190616ffd565b50600301616ef2565b5090565b5b80821115616f7357600080820160009055600182016000616f5a9190616ffd565b600282016000616f6a919061703d565b50600301616f39565b5090565b5b80821115616f90576000816000905550600101616f78565b5090565b604051806101400160405280600a905b616fac617061565b815260200190600190039081616fa45790505090565b5b80821115616ff95760008082016000616fdc9190616ffd565b6001820160006101000a81549060ff021916905550600201616fc3565b5090565b50805461700990618a55565b6000825580601f1061701b575061703a565b601f0160209004906000526020600020908101906170399190616f77565b5b50565b508054600082556002029060005260206000209081019061705e9190616fc2565b50565b60405180606001604052806060815260200160608152602001606081525090565b6000604051905090565b600080fd5b600080fd5b60007fffffffff0000000000000000000000000000000000000000000000000000000082169050919050565b6170cb81617096565b81146170d657600080fd5b50565b6000813590506170e8816170c2565b92915050565b6000602082840312156171045761710361708c565b5b6000617112848285016170d9565b91505092915050565b60008115159050919050565b6171308161711b565b82525050565b600060208201905061714b6000830184617127565b92915050565b600081519050919050565b600082825260208201905092915050565b6000819050602082019050919050565b6000819050919050565b6171908161717d565b82525050565b600081519050919050565b600082825260208201905092915050565b60005b838110156171d05780820151818401526020810190506171b5565b60008484015250505050565b6000601f19601f8301169050919050565b60006171f882617196565b61720281856171a1565b93506172128185602086016171b2565b61721b816171dc565b840191505092915050565b61722f8161711b565b82525050565b600073ffffffffffffffffffffffffffffffffffffffff82169050919050565b600061726082617235565b9050919050565b61727081617255565b82525050565b600060c08301600083015161728e6000860182617187565b50602083015184820360208601526172a682826171ed565b915050604083015184820360408601526172c082826171ed565b91505060608301516172d56060860182617226565b5060808301516172e86080860182617187565b5060a08301516172fb60a0860182617267565b508091505092915050565b60006173128383617276565b905092915050565b6000602082019050919050565b600061733282617151565b61733c818561715c565b93508360208202850161734e8561716d565b8060005b8581101561738a578484038952815161736b8582617306565b94506173768361731a565b925060208a01995050600181019050617352565b50829750879550505050505092915050565b600060208201905081810360008301526173b68184617327565b905092915050565b6173c78161717d565b82525050565b60006020820190506173e260008301846173be565b92915050565b600082825260208201905092915050565b600061740482617196565b61740e81856173e8565b935061741e8185602086016171b2565b617427816171dc565b840191505092915050565b6000602082019050818103600083015261744c81846173f9565b905092915050565b61745d81617255565b811461746857600080fd5b50565b60008135905061747a81617454565b92915050565b6174898161717d565b811461749457600080fd5b50565b6000813590506174a681617480565b92915050565b600080604083850312156174c3576174c261708c565b5b60006174d18582860161746b565b92505060206174e285828601617497565b9150509250929050565b6000602082840312156175025761750161708c565b5b600061751084828501617497565b91505092915050565b61752281617255565b82525050565b600060208201905061753d6000830184617519565b92915050565b60008060006060848603121561755c5761755b61708c565b5b600061756a8682870161746b565b935050602061757b8682870161746b565b925050604061758c86828701617497565b9150509250925092565b6000819050919050565b6175a981617596565b81146175b457600080fd5b50565b6000813590506175c6816175a0565b92915050565b6000602082840312156175e2576175e161708c565b5b60006175f0848285016175b7565b91505092915050565b61760281617596565b82525050565b600060208201905061761d60008301846175f9565b92915050565b600060608201905061763860008301866173be565b818103602083015261764a81856173f9565b90506176596040830184617127565b949350505050565b600060c08201905061767660008301896173be565b818103602083015261768881886173f9565b9050818103604083015261769c81876173f9565b90506176ab6060830186617127565b6176b860808301856173be565b6176c560a0830184617519565b979650505050505050565b600060a0820190506176e560008301886173be565b81810360208301526176f781876173f9565b9050818103604083015261770b81866173f9565b905061771a60608301856173be565b6177276080830184617127565b9695505050505050565b600080604083850312156177485761774761708c565b5b6000617756858286016175b7565b92505060206177678582860161746b565b9150509250929050565b600080fd5b7f4e487b7100000000000000000000000000000000000000000000000000000000600052604160045260246000fd5b6177ae826171dc565b810181811067ffffffffffffffff821117156177cd576177cc617776565b5b80604052505050565b60006177e0617082565b90506177ec82826177a5565b919050565b600067ffffffffffffffff82111561780c5761780b617776565b5b602082029050602081019050919050565b600080fd5b600080fd5b600067ffffffffffffffff82111561784257617841617776565b5b61784b826171dc565b9050602081019050919050565b82818337600083830152505050565b600061787a61787584617827565b6177d6565b90508281526020810184848401111561789657617895617822565b5b6178a1848285617858565b509392505050565b600082601f8301126178be576178bd617771565b5b81356178ce848260208601617867565b91505092915050565b60006178ea6178e5846177f1565b6177d6565b9050808382526020820190506020840283018581111561790d5761790c61781d565b5b835b8181101561795457803567ffffffffffffffff81111561793257617931617771565b5b80860161793f89826178a9565b8552602085019450505060208101905061790f565b5050509392505050565b600082601f83011261797357617972617771565b5b81356179838482602086016178d7565b91505092915050565b600080604083850312156179a3576179a261708c565b5b60006179b185828601617497565b925050602083013567ffffffffffffffff8111156179d2576179d1617091565b5b6179de8582860161795e565b9150509250929050565b600060ff82169050919050565b6179fe816179e8565b82525050565b6000602082019050617a1960008301846179f5565b92915050565b6000604082019050617a3460008301856173be565b8181036020830152617a4681846173f9565b90509392505050565b600060208284031215617a6557617a6461708c565b5b6000617a738482850161746b565b91505092915050565b600081519050919050565b600082825260208201905092915050565b6000617aa382617a7c565b617aad8185617a87565b9350617abd8185602086016171b2565b617ac6816171dc565b840191505092915050565b600060c082019050617ae660008301896173be565b617af36020830188617519565b617b006040830187617519565b8181036060830152617b128186617a98565b9050617b2160808301856173be565b617b2e60a0830184617127565b979650505050505050565b600081519050919050565b600082825260208201905092915050565b6000819050602082019050919050565b600081519050919050565b600082825260208201905092915050565b6000819050602082019050919050565b60006040830160008301518482036000860152617bae82826171ed565b9150506020830151617bc36020860182617226565b508091505092915050565b6000617bda8383617b91565b905092915050565b6000602082019050919050565b6000617bfa82617b65565b617c048185617b70565b935083602082028501617c1685617b81565b8060005b85811015617c525784840389528151617c338582617bce565b9450617c3e83617be2565b925060208a01995050600181019050617c1a565b50829750879550505050505092915050565b6000606083016000830151617c7c6000860182617187565b5060208301518482036020860152617c9482826171ed565b91505060408301518482036040860152617cae8282617bef565b9150508091505092915050565b6000617cc78383617c64565b905092915050565b6000602082019050919050565b6000617ce782617b39565b617cf18185617b44565b935083602082028501617d0385617b55565b8060005b85811015617d3f5784840389528151617d208582617cbb565b9450617d2b83617ccf565b925060208a01995050600181019050617d07565b50829750879550505050505092915050565b60006020820190508181036000830152617d6b8184617cdc565b905092915050565b60008060408385031215617d8a57617d8961708c565b5b6000617d9885828601617497565b9250506020617da985828601617497565b9150509250929050565b60008060008060008060008060008060006101608c8e031215617dd957617dd861708c565b5b6000617de78e828f01617497565b9b50506020617df88e828f01617497565b9a50506040617e098e828f01617497565b9950506060617e1a8e828f01617497565b9850506080617e2b8e828f01617497565b97505060a0617e3c8e828f01617497565b96505060c0617e4d8e828f01617497565b95505060e0617e5e8e828f01617497565b945050610100617e708e828f01617497565b935050610120617e828e828f01617497565b925050610140617e948e828f01617497565b9150509295989b509295989b9093969950565b600080fd5b60008083601f840112617ec257617ec1617771565b5b8235905067ffffffffffffffff811115617edf57617ede617ea7565b5b602083019150836020820283011115617efb57617efa61781d565b5b9250929050565b600080600060408486031215617f1b57617f1a61708c565b5b6000617f2986828701617497565b935050602084013567ffffffffffffffff811115617f4a57617f49617091565b5b617f5686828701617eac565b92509250509250925092565b60008060408385031215617f7957617f7861708c565b5b6000617f8785828601617497565b925050602083013567ffffffffffffffff811115617fa857617fa7617091565b5b617fb4858286016178a9565b9150509250929050565b600081519050919050565b600082825260208201905092915050565b6000819050602082019050919050565b600082825260208201905092915050565b600061800682617b39565b6180108185617fea565b93508360208202850161802285617b55565b8060005b8581101561805e578484038952815161803f8582617cbb565b945061804a83617ccf565b925060208a01995050600181019050618026565b50829750879550505050505092915050565b60006080830160008301516180886000860182617187565b50602083015184820360208601526180a082826171ed565b915050604083015184820360408601526180ba8282617ffb565b91505060608301516180cf6060860182617226565b508091505092915050565b60006180e68383618070565b905092915050565b6000602082019050919050565b600061810682617fbe565b6181108185617fc9565b93508360208202850161812285617fda565b8060005b8581101561815e578484038952815161813f85826180da565b945061814a836180ee565b925060208a01995050600181019050618126565b50829750879550505050505092915050565b6000602082019050818103600083015261818a81846180fb565b905092915050565b6000806000606084860312156181ab576181aa61708c565b5b60006181b986828701617497565b935050602084013567ffffffffffffffff8111156181da576181d9617091565b5b6181e6868287016178a9565b925050604084013567ffffffffffffffff81111561820757618206617091565b5b618213868287016178a9565b9150509250925092565b600080604083850312156182345761823361708c565b5b600083013567ffffffffffffffff81111561825257618251617091565b5b61825e858286016178a9565b925050602083013567ffffffffffffffff81111561827f5761827e617091565b5b61828b858286016178a9565b9150509250929050565b600081519050919050565b600082825260208201905092915050565b6000819050602082019050919050565b6000600a9050919050565b600081905092915050565b6000819050919050565b600060608301600083015184820360008601526182fe82826171ed565b9150506020830151848203602086015261831882826171ed565b9150506040830151848203604086015261833282826171ed565b9150508091505092915050565b600061834b83836182e1565b905092915050565b6000602082019050919050565b600061836b826182c1565b61837581856182cc565b935083602082028501618387856182d7565b8060005b858110156183c357848403895281516183a4858261833f565b94506183af83618353565b925060208a0199505060018101905061838b565b50829750879550505050505092915050565b600060c0830160008301516183ed6000860182617187565b506020830151848203602086015261840582826171ed565b9150506040830151848203604086015261841f82826171ed565b915050606083015184820360608601526184398282618360565b915050608083015161844e6080860182617187565b5060a083015161846160a0860182617226565b508091505092915050565b600061847883836183d5565b905092915050565b6000602082019050919050565b600061849882618295565b6184a281856182a0565b9350836020820285016184b4856182b1565b8060005b858110156184f057848403895281516184d1858261846c565b94506184dc83618480565b925060208a019950506001810190506184b8565b50829750879550505050505092915050565b6000602082019050818103600083015261851c818461848d565b905092915050565b600060808301600083015161853c6000860182617187565b506020830151848203602086015261855482826171ed565b9150506040830151848203604086015261856e8282617ffb565b91505060608301516185836060860182617226565b508091505092915050565b600060208201905081810360008301526185a88184618524565b905092915050565b600081519050919050565b600082825260208201905092915050565b6000819050602082019050919050565b60006060830160008301516185f46000860182617187565b506020830151848203602086015261860c82826171ed565b91505060408301516186216040860182617226565b508091505092915050565b600061863883836185dc565b905092915050565b6000602082019050919050565b6000618658826185b0565b61866281856185bb565b935083602082028501618674856185cc565b8060005b858110156186b05784840389528151618691858261862c565b945061869c83618640565b925060208a01995050600181019050618678565b50829750879550505050505092915050565b600060208201905081810360008301526186dc818461864d565b905092915050565b600080604083850312156186fb576186fa61708c565b5b600061870985828601617497565b925050602061871a8582860161746b565b9150509250929050565b60006101608201905061873a600083018e6173be565b618747602083018d6173be565b618754604083018c6173be565b618761606083018b6173be565b61876e608083018a6173be565b61877b60a08301896173be565b61878860c08301886173be565b61879560e08301876173be565b6187a36101008301866173be565b6187b16101208301856173be565b6187bf610140830184617127565b9c9b505050505050505050505050565b600081519050919050565b600082825260208201905092915050565b6000819050602082019050919050565b60006188078383617267565b60208301905092915050565b6000602082019050919050565b600061882b826187cf565b61883581856187da565b9350618840836187eb565b8060005b8381101561887157815161885888826187fb565b975061886383618813565b925050600181019050618844565b5085935050505092915050565b600060208201905081810360008301526188988184618820565b905092915050565b6188a9816179e8565b81146188b457600080fd5b50565b6000813590506188c6816188a0565b92915050565b600080600080608085870312156188e6576188e561708c565b5b60006188f487828801617497565b945050602085013567ffffffffffffffff81111561891557618914617091565b5b618921878288016178a9565b935050604085013567ffffffffffffffff81111561894257618941617091565b5b61894e8782880161795e565b925050606061895f878288016188b7565b91505092959194509250565b600080604083850312156189825761898161708c565b5b60006189908582860161746b565b92505060206189a18582860161746b565b9150509250929050565b600060608201905081810360008301526189c581866173f9565b905081810360208301526189d981856173f9565b905081810360408301526189ed81846173f9565b9050949350505050565b7f4e487b7100000000000000000000000000000000000000000000000000000000600052603260045260246000fd5b7f4e487b7100000000000000000000000000000000000000000000000000000000600052602260045260246000fd5b60006002820490506001821680618a6d57607f821691505b602082108103618a8057618a7f618a26565b5b50919050565b7f596f7520617265206e6f7420656e726f6c6c656420696e207468697320636f7560008201527f7273652100000000000000000000000000000000000000000000000000000000602082015250565b6000618ae26024836173e8565b9150618aed82618a86565b604082019050919050565b60006020820190508181036000830152618b1181618ad5565b9050919050565b7f4e487b7100000000000000000000000000000000000000000000000000000000600052601160045260246000fd5b6000618b528261717d565b9150618b5d8361717d565b9250828202618b6b8161717d565b91508282048414831517618b8257618b81618b18565b5b5092915050565b7f4e487b7100000000000000000000000000000000000000000000000000000000600052601260045260246000fd5b6000618bc38261717d565b9150618bce8361717d565b925082618bde57618bdd618b89565b5b828204905092915050565b7f436f7572736520646f6573206e6f742065786973742100000000000000000000600082015250565b6000618c1f6016836173e8565b9150618c2a82618be9565b602082019050919050565b60006020820190508181036000830152618c4e81618c12565b9050919050565b60008190508160005260206000209050919050565b60006020601f8301049050919050565b600082821b905092915050565b600060088302618cb77fffffffffffffffffffffffffffffffffffffffffffffffffffffffffffffffff82618c7a565b618cc18683618c7a565b95508019841693508086168417925050509392505050565b6000819050919050565b6000618cfe618cf9618cf48461717d565b618cd9565b61717d565b9050919050565b6000819050919050565b618d1883618ce3565b618d2c618d2482618d05565b848454618c87565b825550505050565b600090565b618d41618d34565b618d4c818484618d0f565b505050565b5b81811015618d7057618d65600082618d39565b600181019050618d52565b5050565b601f821115618db557618d8681618c55565b618d8f84618c6a565b81016020851015618d9e578190505b618db2618daa85618c6a565b830182618d51565b50505b505050565b600082821c905092915050565b6000618dd860001984600802618dba565b1980831691505092915050565b6000618df18383618dc7565b9150826002028217905092915050565b618e0a82617196565b67ffffffffffffffff811115618e2357618e22617776565b5b618e2d8254618a55565b618e38828285618d74565b600060209050601f831160018114618e6b5760008415618e59578287015190505b618e638582618de5565b865550618ecb565b601f198416618e7986618c55565b60005b82811015618ea157848901518255600182019150602085019450602081019050618e7c565b86831015618ebe5784890151618eba601f891682618dc7565b8355505b6001600288020188555050505b505050505050565b6000618ede8261717d565b91507fffffffffffffffffffffffffffffffffffffffffffffffffffffffffffffffff8203618f1057618f0f618b18565b5b600182019050919050565b7f5175697a20646f6573206e6f7420657869737400000000000000000000000000600082015250565b6000618f516013836173e8565b9150618f5c82618f1b565b602082019050919050565b60006020820190508181036000830152618f8081618f44565b9050919050565b7f4e6f742073656c6563746564206173206120726576696577657220666f72207460008201527f68697320636f7572736500000000000000000000000000000000000000000000602082015250565b6000618fe3602a836173e8565b9150618fee82618f87565b604082019050919050565b6000602082019050818103600083015261901281618fd6565b9050919050565b7f52657669657720616c7265616479207375626d6974746564206279207468697360008201527f2072657669657765722e00000000000000000000000000000000000000000000602082015250565b6000619075602a836173e8565b915061908082619019565b604082019050919050565b600060208201905081810360008301526190a481619068565b9050919050565b7f4c6573736f6e20646f6573206e6f742065786973742100000000000000000000600082015250565b60006190e16016836173e8565b91506190ec826190ab565b602082019050919050565b60006020820190508181036000830152619110816190d4565b9050919050565b60006191228261717d565b915061912d8361717d565b925082820190508082111561914557619144618b18565b5b92915050565b7f45786365656473206d6178696d756d207265736f757263657321000000000000600082015250565b6000619181601a836173e8565b915061918c8261914b565b602082019050919050565b600060208201905081810360008301526191b081619174565b9050919050565b600080fd5b600080fd5b600080fd5b6000823560016060038336030381126191e2576191e16191b7565b5b80830191505092915050565b6000808335600160200384360303811261920b5761920a6191b7565b5b80840192508235915067ffffffffffffffff82111561922d5761922c6191bc565b5b602083019250600182023603831315619249576192486191c1565b5b509250929050565b60008154905061926081618a55565b9050919050565b81810361927557505061934d565b61927e82619251565b67ffffffffffffffff81111561929757619296617776565b5b6192a18254618a55565b6192ac828285618d74565b6000601f8311600181146192db57600084156192c9578287015490505b6192d38582618de5565b865550619346565b601f1984166192e987618c55565b96506192f486618c55565b60005b8281101561931c578489015482556001820191506001850194506020810190506192f7565b868310156193395784890154619335601f891682618dc7565b8355505b6001600288020188555050505b5050505050505b565b7f4c6573736f6e20446f6573206e6f742065786973742100000000000000000000600082015250565b60006193856016836173e8565b91506193908261934f565b602082019050919050565b600060208201905081810360008301526193b481619378565b9050919050565b600081905092915050565b60006193d182617196565b6193db81856193bb565b93506193eb8185602086016171b2565b80840191505092915050565b600061940382846193c6565b915081905092915050565b7f416c726561647920696e20726576696577657220706f6f6c0000000000000000600082015250565b60006194446018836173e8565b915061944f8261940e565b602082019050919050565b6000602082019050818103600083015261947381619437565b9050919050565b7f436f7572736520616c726561647920617070726f766564000000000000000000600082015250565b60006194b06017836173e8565b91506194bb8261947a565b602082019050919050565b600060208201905081810360008301526194df816194a3565b9050919050565b7f596f75206861766520616c726561647920617070726f7665642074686973206360008201527f6f75727365000000000000000000000000000000000000000000000000000000602082015250565b60006195426025836173e8565b915061954d826194e6565b604082019050919050565b6000602082019050818103600083015261957181619535565b9050919050565b7f4368617074657220646f6573206e6f7420657869737421000000000000000000600082015250565b60006195ae6017836173e8565b91506195b982619578565b602082019050919050565b600060208201905081810360008301526195dd816195a1565b9050919050565b7f52657669657765727320616c72656164792073656c6563746564000000000000600082015250565b600061961a601a836173e8565b9150619625826195e4565b602082019050919050565b600060208201905081810360008301526196498161960d565b9050919050565b7f4e6f7420656e6f7567682072657669657765727320696e2074686520706f6f6c600082015250565b60006196866020836173e8565b915061969182619650565b602082019050919050565b600060208201905081810360008301526196b581619679565b9050919050565b6000819050919050565b6196d76196d28261717d565b6196bc565b82525050565b60006196e982876196c6565b6020820191506196f982866196c6565b60208201915061970982856196c6565b60208201915061971982846196c6565b60208201915081905095945050505050565b60006197368261717d565b91506197418361717d565b92508261975157619750618b89565b5b828206905092915050565b600081549050919050565b60008190508160005260206000209050919050565b60008160001c9050919050565b600073ffffffffffffffffffffffffffffffffffffffff82169050919050565b60006197bc6197b78361977c565b619789565b9050919050565b60006197cf82546197a9565b9050919050565b6000600182019050919050565b60006197ee8261975c565b6197f881856187da565b935061980383619767565b8060005b8381101561983b57619818826197c3565b61982288826187fb565b975061982d836197d6565b925050600181019050619807565b5085935050505092915050565b6000602082019050818103600083015261986281846197e3565b905092915050565b7f436f7572736520494420616c7265616479206578697374730000000000000000600082015250565b60006198a06018836173e8565b91506198ab8261986a565b602082019050919050565b600060208201905081810360008301526198cf81619893565b9050919050565b60006198e18261717d565b91506198ec8361717d565b925082820390508181111561990457619903618b18565b5b92915050565b7f50726f706f73616c20616c726561647920657865637574656400000000000000600082015250565b60006199406019836173e8565b915061994b8261990a565b602082019050919050565b6000602082019050818103600083015261996f81619933565b9050919050565b7f416c726561647920617070726f76656400000000000000000000000000000000600082015250565b60006199ac6010836173e8565b91506199b782619976565b602082019050919050565b600060208201905081810360008301526199db8161999f565b9050919050565b600081905092915050565b60008190508160005260206000209050919050565b60008154619a0f81618a55565b619a1981866199e2565b94506001821660008114619a345760018114619a4957619a7c565b60ff1983168652811515820286019350619a7c565b619a52856199ed565b60005b83811015619a7457815481890152600182019150602081019050619a55565b838801955050505b50505092915050565b6000619a918284619a02565b915081905092915050565b7f50726f706f73616c20657865637574696f6e206661696c656400000000000000600082015250565b6000619ad26019836173e8565b9150619add82619a9c565b602082019050919050565b60006020820190508181036000830152619b0181619ac5565b9050919050565b7f4e6f7420696e20726576696577657220706f6f6c000000000000000000000000600082015250565b6000619b3e6014836173e8565b9150619b4982619b08565b602082019050919050565b60006020820190508181036000830152619b6d81619b31565b9050919050565b7f4e487b7100000000000000000000000000000000000000000000000000000000600052603160045260246000fd5b7f496e76616c6964206e756d626572206f662063686f6963657300000000000000600082015250565b6000619bd96019836173e8565b9150619be482619ba3565b602082019050919050565b60006020820190508181036000830152619c0881619bcc565b9050919050565b7f496e76616c696420636f72726563742063686f69636520696e64657800000000600082015250565b6000619c45601c836173e8565b9150619c5082619c0f565b602082019050919050565b60006020820190508181036000830152619c7481619c38565b9050919050565b6000619c86826179e8565b915060ff8203619c9957619c98618b18565b5b600182019050919050565b6000606082019050619cb960008301866173be565b619cc660208301856173be565b8181036040830152619cd881846173f9565b9050949350505050565b7f436f75727365206e6f742079657420617070726f766564210000000000000000600082015250565b6000619d186018836173e8565b9150619d2382619ce2565b602082019050919050565b60006020820190508181036000830152619d4781619d0b565b9050919050565b7f596f752061726520616c726561647920656e726f6c6c656420696e746f20746860008201527f697320636f757273650000000000000000000000000000000000000000000000602082015250565b6000619daa6029836173e8565b9150619db582619d4e565b604082019050919050565b60006020820190508181036000830152619dd981619d9d565b9050919050565b6000606082019050619df56000830186617519565b619e0260208301856173be565b619e0f60408301846173be565b949350505050565b7f53636f726573206d757374206265206265747765656e203120616e642031302e600082015250565b6000619e4d6020836173e8565b9150619e5882619e17565b602082019050919050565b60006020820190508181036000830152619e7c81619e40565b9050919050565b7f4c696d6974204578636565646564210000000000000000000000000000000000600082015250565b6000619eb9600f836173e8565b9150619ec482619e83565b602082019050919050565b60006020820190508181036000830152619ee881619eac565b9050919050565b7f496e73756666696369656e742062616c616e6365000000000000000000000000600082015250565b6000619f256014836173e8565b9150619f3082619eef565b602082019050919050565b60006020820190508181036000830152619f5481619f18565b9050919050565b6000604082019050619f706000830185617519565b619f7d60208301846175f9565b939250505056fea2646970667358221220488829e8e6c4bafccf620f7dad8dc8946f6003a4307c27958a7028e8a1e673f764736f6c634300081b0033",
  "linkReferences": {},
  "deployedLinkReferences": {}
}