{
  "_format": "hh-sol-artifact-1",
  "contractName": "Ecosystem2",
  "sourceName": "contracts/Ecosystem Contracts/Ecosystem2.sol",
  "abi": [
    {
      "inputs": [
        {
          "internalType": "address[]",
          "name": "_reviewers",
          "type": "address[]"
        }
      ],
      "stateMutability": "nonpayable",
      "type": "constructor"
    },
    {
      "inputs": [],
      "name": "AccessControlBadConfirmation",
      "type": "error"
    },
    {
      "inputs": [
        {
          "internalType": "address",
          "name": "account",
          "type": "address"
        },
        {
          "internalType": "bytes32",
          "name": "neededRole",
          "type": "bytes32"
        }
      ],
      "name": "AccessControlUnauthorizedAccount",
      "type": "error"
    },
    {
      "inputs": [
        {
          "internalType": "address",
          "name": "spender",
          "type": "address"
        },
        {
          "internalType": "uint256",
          "name": "allowance",
          "type": "uint256"
        },
        {
          "internalType": "uint256",
          "name": "needed",
          "type": "uint256"
        }
      ],
      "name": "ERC20InsufficientAllowance",
      "type": "error"
    },
    {
      "inputs": [
        {
          "internalType": "address",
          "name": "sender",
          "type": "address"
        },
        {
          "internalType": "uint256",
          "name": "balance",
          "type": "uint256"
        },
        {
          "internalType": "uint256",
          "name": "needed",
          "type": "uint256"
        }
      ],
      "name": "ERC20InsufficientBalance",
      "type": "error"
    },
    {
      "inputs": [
        {
          "internalType": "address",
          "name": "approver",
          "type": "address"
        }
      ],
      "name": "ERC20InvalidApprover",
      "type": "error"
    },
    {
      "inputs": [
        {
          "internalType": "address",
          "name": "receiver",
          "type": "address"
        }
      ],
      "name": "ERC20InvalidReceiver",
      "type": "error"
    },
    {
      "inputs": [
        {
          "internalType": "address",
          "name": "sender",
          "type": "address"
        }
      ],
      "name": "ERC20InvalidSender",
      "type": "error"
    },
    {
      "inputs": [
        {
          "internalType": "address",
          "name": "spender",
          "type": "address"
        }
      ],
      "name": "ERC20InvalidSpender",
      "type": "error"
    },
    {
      "inputs": [],
      "name": "ReentrancyGuardReentrantCall",
      "type": "error"
    },
    {
      "anonymous": false,
      "inputs": [
        {
          "indexed": true,
          "internalType": "address",
          "name": "owner",
          "type": "address"
        },
        {
          "indexed": true,
          "internalType": "address",
          "name": "spender",
          "type": "address"
        },
        {
          "indexed": false,
          "internalType": "uint256",
          "name": "value",
          "type": "uint256"
        }
      ],
      "name": "Approval",
      "type": "event"
    },
    {
      "anonymous": false,
      "inputs": [
        {
          "indexed": true,
          "internalType": "address",
          "name": "_account",
          "type": "address"
        },
        {
          "indexed": false,
          "internalType": "uint256",
          "name": "_amount",
          "type": "uint256"
        }
      ],
      "name": "BurnSuccess",
      "type": "event"
    },
    {
      "anonymous": false,
      "inputs": [
        {
          "indexed": true,
          "internalType": "uint256",
          "name": "_courseId",
          "type": "uint256"
        },
        {
          "indexed": true,
          "internalType": "uint256",
          "name": "numberOfChapters",
          "type": "uint256"
        }
      ],
      "name": "ChaptersAddedSuccessfully",
      "type": "event"
    },
    {
      "anonymous": false,
      "inputs": [
        {
          "indexed": false,
          "internalType": "uint256",
          "name": "questionId",
          "type": "uint256"
        },
        {
          "indexed": false,
          "internalType": "uint256",
          "name": "choiceId",
          "type": "uint256"
        },
        {
          "indexed": false,
          "internalType": "string",
          "name": "option",
          "type": "string"
        }
      ],
      "name": "ChoiceAdded",
      "type": "event"
    },
    {
      "anonymous": false,
      "inputs": [
        {
          "indexed": true,
          "internalType": "uint256",
          "name": "_courseID",
          "type": "uint256"
        },
        {
          "indexed": true,
          "internalType": "string",
          "name": "_courseName",
          "type": "string"
        },
        {
          "indexed": false,
          "internalType": "bool",
          "name": "_approved",
          "type": "bool"
        }
      ],
      "name": "CourseCreationSuccess",
      "type": "event"
    },
    {
      "anonymous": false,
      "inputs": [
        {
          "indexed": true,
          "internalType": "address",
          "name": "_to",
          "type": "address"
        },
        {
          "indexed": true,
          "internalType": "uint256",
          "name": "_amount",
          "type": "uint256"
        }
      ],
      "name": "EcosystemPoolUpdate",
      "type": "event"
    },
    {
      "anonymous": false,
      "inputs": [
        {
          "indexed": true,
          "internalType": "uint256",
          "name": "_courseId",
          "type": "uint256"
        },
        {
          "indexed": true,
          "internalType": "address",
          "name": "_by",
          "type": "address"
        }
      ],
      "name": "EnrollmentSuccess",
      "type": "event"
    },
    {
      "anonymous": false,
      "inputs": [
        {
          "indexed": true,
          "internalType": "uint256",
          "name": "_lessonId",
          "type": "uint256"
        },
        {
          "indexed": true,
          "internalType": "string",
          "name": "_lessonName",
          "type": "string"
        },
        {
          "indexed": true,
          "internalType": "uint256",
          "name": "_additonalResources",
          "type": "uint256"
        }
      ],
      "name": "LessonCreationSuccess",
      "type": "event"
    },
    {
      "anonymous": false,
      "inputs": [
        {
          "indexed": true,
          "internalType": "uint256",
          "name": "_chapterId",
          "type": "uint256"
        },
        {
          "indexed": true,
          "internalType": "uint256",
          "name": "_lessonId",
          "type": "uint256"
        },
        {
          "indexed": false,
          "internalType": "address",
          "name": "learner",
          "type": "address"
        }
      ],
      "name": "LessonMarkedAsRead",
      "type": "event"
    },
    {
      "anonymous": false,
      "inputs": [
        {
          "indexed": true,
          "internalType": "address",
          "name": "_to",
          "type": "address"
        },
        {
          "indexed": true,
          "internalType": "uint256",
          "name": "_amount",
          "type": "uint256"
        }
      ],
      "name": "MintSuccess",
      "type": "event"
    },
    {
      "anonymous": false,
      "inputs": [
        {
          "indexed": true,
          "internalType": "uint256",
          "name": "proposalId",
          "type": "uint256"
        },
        {
          "indexed": false,
          "internalType": "address",
          "name": "approver",
          "type": "address"
        }
      ],
      "name": "MultiSigProposalApproved",
      "type": "event"
    },
    {
      "anonymous": false,
      "inputs": [
        {
          "indexed": true,
          "internalType": "uint256",
          "name": "proposalId",
          "type": "uint256"
        },
        {
          "indexed": false,
          "internalType": "address",
          "name": "proposer",
          "type": "address"
        }
      ],
      "name": "MultiSigProposalCreated",
      "type": "event"
    },
    {
      "anonymous": false,
      "inputs": [
        {
          "indexed": true,
          "internalType": "uint256",
          "name": "proposalId",
          "type": "uint256"
        }
      ],
      "name": "MultiSigProposalExecuted",
      "type": "event"
    },
    {
      "anonymous": false,
      "inputs": [
        {
          "indexed": false,
          "internalType": "uint256",
          "name": "quizId",
          "type": "uint256"
        },
        {
          "indexed": false,
          "internalType": "uint256",
          "name": "questionId",
          "type": "uint256"
        },
        {
          "indexed": false,
          "internalType": "string",
          "name": "questionText",
          "type": "string"
        }
      ],
      "name": "QuestionAdded",
      "type": "event"
    },
    {
      "anonymous": false,
      "inputs": [
        {
          "indexed": true,
          "internalType": "uint256",
          "name": "_quizId",
          "type": "uint256"
        },
        {
          "indexed": true,
          "internalType": "string",
          "name": "_title",
          "type": "string"
        }
      ],
      "name": "QuizCreatedSuccess",
      "type": "event"
    },
    {
      "anonymous": false,
      "inputs": [
        {
          "indexed": true,
          "internalType": "uint256",
          "name": "_lessonId",
          "type": "uint256"
        },
        {
          "indexed": true,
          "internalType": "uint256",
          "name": "resourceCount",
          "type": "uint256"
        }
      ],
      "name": "ResourceAddSuccess",
      "type": "event"
    },
    {
      "anonymous": false,
      "inputs": [
        {
          "indexed": true,
          "internalType": "address",
          "name": "reviewer",
          "type": "address"
        }
      ],
      "name": "ReviewerAddedToPool",
      "type": "event"
    },
    {
      "anonymous": false,
      "inputs": [
        {
          "indexed": true,
          "internalType": "address",
          "name": "reviewer",
          "type": "address"
        }
      ],
      "name": "ReviewerRemovedFromPool",
      "type": "event"
    },
    {
      "anonymous": false,
      "inputs": [
        {
          "indexed": true,
          "internalType": "uint256",
          "name": "courseId",
          "type": "uint256"
        },
        {
          "indexed": false,
          "internalType": "address[]",
          "name": "reviewers",
          "type": "address[]"
        }
      ],
      "name": "ReviewersSelected",
      "type": "event"
    },
    {
      "anonymous": false,
      "inputs": [
        {
          "indexed": true,
          "internalType": "bytes32",
          "name": "role",
          "type": "bytes32"
        },
        {
          "indexed": true,
          "internalType": "bytes32",
          "name": "previousAdminRole",
          "type": "bytes32"
        },
        {
          "indexed": true,
          "internalType": "bytes32",
          "name": "newAdminRole",
          "type": "bytes32"
        }
      ],
      "name": "RoleAdminChanged",
      "type": "event"
    },
    {
      "anonymous": false,
      "inputs": [
        {
          "indexed": true,
          "internalType": "bytes32",
          "name": "role",
          "type": "bytes32"
        },
        {
          "indexed": true,
          "internalType": "address",
          "name": "account",
          "type": "address"
        },
        {
          "indexed": true,
          "internalType": "address",
          "name": "sender",
          "type": "address"
        }
      ],
      "name": "RoleGranted",
      "type": "event"
    },
    {
      "anonymous": false,
      "inputs": [
        {
          "indexed": true,
          "internalType": "bytes32",
          "name": "role",
          "type": "bytes32"
        },
        {
          "indexed": true,
          "internalType": "address",
          "name": "account",
          "type": "address"
        },
        {
          "indexed": true,
          "internalType": "address",
          "name": "sender",
          "type": "address"
        }
      ],
      "name": "RoleRevoked",
      "type": "event"
    },
    {
      "anonymous": false,
      "inputs": [
        {
          "indexed": true,
          "internalType": "address",
          "name": "from",
          "type": "address"
        },
        {
          "indexed": true,
          "internalType": "address",
          "name": "to",
          "type": "address"
        },
        {
          "indexed": false,
          "internalType": "uint256",
          "name": "value",
          "type": "uint256"
        }
      ],
      "name": "Transfer",
      "type": "event"
    },
    {
      "anonymous": false,
      "inputs": [
        {
          "indexed": true,
          "internalType": "uint256",
          "name": "_courseId",
          "type": "uint256"
        },
        {
          "indexed": true,
          "internalType": "address",
          "name": "_by",
          "type": "address"
        }
      ],
      "name": "unEnrollmentSuccess",
      "type": "event"
    },
    {
      "inputs": [],
      "name": "COURSE_OWNER_ROLE",
      "outputs": [
        {
          "internalType": "bytes32",
          "name": "",
          "type": "bytes32"
        }
      ],
      "stateMutability": "view",
      "type": "function"
    },
    {
      "inputs": [],
      "name": "CREATE_COURSE_REWARD",
      "outputs": [
        {
          "internalType": "uint256",
          "name": "",
          "type": "uint256"
        }
      ],
      "stateMutability": "view",
      "type": "function"
    },
    {
      "inputs": [],
      "name": "DEFAULT_ADMIN_ROLE",
      "outputs": [
        {
          "internalType": "bytes32",
          "name": "",
          "type": "bytes32"
        }
      ],
      "stateMutability": "view",
      "type": "function"
    },
    {
      "inputs": [],
      "name": "ECOSYSTEM_POOL",
      "outputs": [
        {
          "internalType": "uint256",
          "name": "",
          "type": "uint256"
        }
      ],
      "stateMutability": "view",
      "type": "function"
    },
    {
      "inputs": [],
      "name": "ENROLLMENT_REWARD",
      "outputs": [
        {
          "internalType": "uint256",
          "name": "",
          "type": "uint256"
        }
      ],
      "stateMutability": "view",
      "type": "function"
    },
    {
      "inputs": [],
      "name": "MAX_SCORE",
      "outputs": [
        {
          "internalType": "uint256",
          "name": "",
          "type": "uint256"
        }
      ],
      "stateMutability": "view",
      "type": "function"
    },
    {
      "inputs": [],
      "name": "MAX_SUPPLY",
      "outputs": [
        {
          "internalType": "uint256",
          "name": "",
          "type": "uint256"
        }
      ],
      "stateMutability": "view",
      "type": "function"
    },
    {
      "inputs": [],
      "name": "MIN_APPROVAL_SCORE",
      "outputs": [
        {
          "internalType": "uint256",
          "name": "",
          "type": "uint256"
        }
      ],
      "stateMutability": "view",
      "type": "function"
    },
    {
      "inputs": [],
      "name": "MULTISIG_APPROVER",
      "outputs": [
        {
          "internalType": "bytes32",
          "name": "",
          "type": "bytes32"
        }
      ],
      "stateMutability": "view",
      "type": "function"
    },
    {
      "inputs": [],
      "name": "REQUIRED_APPROVALS",
      "outputs": [
        {
          "internalType": "uint256",
          "name": "",
          "type": "uint256"
        }
      ],
      "stateMutability": "view",
      "type": "function"
    },
    {
      "inputs": [],
      "name": "REVIEWER_ROLE",
      "outputs": [
        {
          "internalType": "bytes32",
          "name": "",
          "type": "bytes32"
        }
      ],
      "stateMutability": "view",
      "type": "function"
    },
    {
      "inputs": [
        {
          "internalType": "address",
          "name": "",
          "type": "address"
        }
      ],
      "name": "accountCourses",
      "outputs": [
        {
          "internalType": "uint256",
          "name": "courseCount",
          "type": "uint256"
        }
      ],
      "stateMutability": "view",
      "type": "function"
    },
    {
      "inputs": [
        {
          "internalType": "uint256",
          "name": "_courseId",
          "type": "uint256"
        },
        {
          "internalType": "string[]",
          "name": "_chapters",
          "type": "string[]"
        },
        {
          "internalType": "uint256[]",
          "name": "_durations",
          "type": "uint256[]"
        }
      ],
      "name": "addChapters",
      "outputs": [
        {
          "internalType": "bool",
          "name": "",
          "type": "bool"
        }
      ],
      "stateMutability": "nonpayable",
      "type": "function"
    },
    {
      "inputs": [
        {
          "internalType": "uint256",
          "name": "_chapterId",
          "type": "uint256"
        },
        {
          "internalType": "string",
          "name": "_lessonName",
          "type": "string"
        },
        {
          "internalType": "string",
          "name": "_lessonContent",
          "type": "string"
        }
      ],
      "name": "addLesson",
      "outputs": [],
      "stateMutability": "nonpayable",
      "type": "function"
    },
    {
      "inputs": [
        {
          "internalType": "uint256",
          "name": "_lessonId",
          "type": "uint256"
        },
        {
          "internalType": "enum Ecosystem.ContentType",
          "name": "contentType",
          "type": "uint8"
        },
        {
          "components": [
            {
              "internalType": "enum Ecosystem.ContentType",
              "name": "contentType",
              "type": "uint8"
            },
            {
              "internalType": "string",
              "name": "url",
              "type": "string"
            },
            {
              "internalType": "string",
              "name": "name",
              "type": "string"
            }
          ],
          "internalType": "struct Ecosystem.Resource[]",
          "name": "_resources",
          "type": "tuple[]"
        }
      ],
      "name": "addResourcesToLesson",
      "outputs": [],
      "stateMutability": "nonpayable",
      "type": "function"
    },
    {
      "inputs": [
        {
          "internalType": "address",
          "name": "newReviewer",
          "type": "address"
        }
      ],
      "name": "addReviewer",
      "outputs": [],
      "stateMutability": "nonpayable",
      "type": "function"
    },
    {
      "inputs": [
        {
          "internalType": "address",
          "name": "owner",
          "type": "address"
        },
        {
          "internalType": "address",
          "name": "spender",
          "type": "address"
        }
      ],
      "name": "allowance",
      "outputs": [
        {
          "internalType": "uint256",
          "name": "",
          "type": "uint256"
        }
      ],
      "stateMutability": "view",
      "type": "function"
    },
    {
      "inputs": [
        {
          "internalType": "address",
          "name": "",
          "type": "address"
        },
        {
          "internalType": "uint256",
          "name": "",
          "type": "uint256"
        }
      ],
      "name": "approvals",
      "outputs": [
        {
          "internalType": "bool",
          "name": "",
          "type": "bool"
        }
      ],
      "stateMutability": "view",
      "type": "function"
    },
    {
      "inputs": [
        {
          "internalType": "address",
          "name": "spender",
          "type": "address"
        },
        {
          "internalType": "uint256",
          "name": "value",
          "type": "uint256"
        }
      ],
      "name": "approve",
      "outputs": [
        {
          "internalType": "bool",
          "name": "",
          "type": "bool"
        }
      ],
      "stateMutability": "nonpayable",
      "type": "function"
    },
    {
      "inputs": [
        {
          "internalType": "uint256",
          "name": "_courseId",
          "type": "uint256"
        }
      ],
      "name": "approveCourse",
      "outputs": [],
      "stateMutability": "nonpayable",
      "type": "function"
    },
    {
      "inputs": [
        {
          "internalType": "uint256",
          "name": "_proposalId",
          "type": "uint256"
        }
      ],
      "name": "approveMultiSigProposal",
      "outputs": [],
      "stateMutability": "nonpayable",
      "type": "function"
    },
    {
      "inputs": [
        {
          "internalType": "address",
          "name": "account",
          "type": "address"
        }
      ],
      "name": "balanceOf",
      "outputs": [
        {
          "internalType": "uint256",
          "name": "",
          "type": "uint256"
        }
      ],
      "stateMutability": "view",
      "type": "function"
    },
    {
      "inputs": [
        {
          "internalType": "uint256",
          "name": "",
          "type": "uint256"
        }
      ],
      "name": "chapter",
      "outputs": [
        {
          "internalType": "uint256",
          "name": "courseId",
          "type": "uint256"
        },
        {
          "internalType": "uint256",
          "name": "chapterId",
          "type": "uint256"
        },
        {
          "internalType": "string",
          "name": "chapterName",
          "type": "string"
        },
        {
          "internalType": "uint256",
          "name": "duration",
          "type": "uint256"
        },
        {
          "internalType": "bool",
          "name": "exists",
          "type": "bool"
        }
      ],
      "stateMutability": "view",
      "type": "function"
    },
    {
      "inputs": [
        {
          "internalType": "uint256",
          "name": "",
          "type": "uint256"
        },
        {
          "internalType": "uint256",
          "name": "",
          "type": "uint256"
        }
      ],
      "name": "chapterLessons",
      "outputs": [
        {
          "internalType": "string",
          "name": "",
          "type": "string"
        }
      ],
      "stateMutability": "view",
      "type": "function"
    },
    {
      "inputs": [
        {
          "internalType": "uint256",
          "name": "",
          "type": "uint256"
        },
        {
          "internalType": "uint256",
          "name": "",
          "type": "uint256"
        }
      ],
      "name": "courseChapters",
      "outputs": [
        {
          "internalType": "uint256",
          "name": "courseId",
          "type": "uint256"
        },
        {
          "internalType": "uint256",
          "name": "chapterId",
          "type": "uint256"
        },
        {
          "internalType": "string",
          "name": "chapterName",
          "type": "string"
        },
        {
          "internalType": "uint256",
          "name": "duration",
          "type": "uint256"
        },
        {
          "internalType": "bool",
          "name": "exists",
          "type": "bool"
        }
      ],
      "stateMutability": "view",
      "type": "function"
    },
    {
      "inputs": [],
      "name": "courseCount",
      "outputs": [
        {
          "internalType": "uint256",
          "name": "",
          "type": "uint256"
        }
      ],
      "stateMutability": "view",
      "type": "function"
    },
    {
      "inputs": [
        {
          "internalType": "uint256",
          "name": "",
          "type": "uint256"
        }
      ],
      "name": "courseObject",
      "outputs": [
        {
          "internalType": "uint256",
          "name": "courseId",
          "type": "uint256"
        },
        {
          "internalType": "string",
          "name": "courseName",
          "type": "string"
        },
        {
          "internalType": "string",
          "name": "description",
          "type": "string"
        },
        {
          "internalType": "bool",
          "name": "approved",
          "type": "bool"
        },
        {
          "internalType": "uint256",
          "name": "approvalCount",
          "type": "uint256"
        },
        {
          "internalType": "address",
          "name": "creator",
          "type": "address"
        },
        {
          "internalType": "bool",
          "name": "exists",
          "type": "bool"
        },
        {
          "internalType": "enum Ecosystem.DifficultyLevel",
          "name": "difficultyLevel",
          "type": "uint8"
        }
      ],
      "stateMutability": "view",
      "type": "function"
    },
    {
      "inputs": [
        {
          "internalType": "uint256",
          "name": "",
          "type": "uint256"
        }
      ],
      "name": "courseReviewInitiated",
      "outputs": [
        {
          "internalType": "bool",
          "name": "",
          "type": "bool"
        }
      ],
      "stateMutability": "view",
      "type": "function"
    },
    {
      "inputs": [
        {
          "internalType": "uint256",
          "name": "",
          "type": "uint256"
        },
        {
          "internalType": "uint256",
          "name": "",
          "type": "uint256"
        }
      ],
      "name": "courseReviewers",
      "outputs": [
        {
          "internalType": "address",
          "name": "",
          "type": "address"
        }
      ],
      "stateMutability": "view",
      "type": "function"
    },
    {
      "inputs": [
        {
          "internalType": "string",
          "name": "_courseName",
          "type": "string"
        },
        {
          "internalType": "string",
          "name": "_description",
          "type": "string"
        },
        {
          "internalType": "enum Ecosystem.DifficultyLevel",
          "name": "_difficultyLevel",
          "type": "uint8"
        }
      ],
      "name": "createCourse",
      "outputs": [
        {
          "internalType": "bool",
          "name": "",
          "type": "bool"
        }
      ],
      "stateMutability": "nonpayable",
      "type": "function"
    },
    {
      "inputs": [
        {
          "internalType": "uint256",
          "name": "_quizId",
          "type": "uint256"
        },
        {
          "internalType": "string",
          "name": "_questionText",
          "type": "string"
        },
        {
          "internalType": "string[]",
          "name": "_options",
          "type": "string[]"
        },
        {
          "internalType": "uint8",
          "name": "_correctChoiceIndex",
          "type": "uint8"
        }
      ],
      "name": "createQuestionWithChoices",
      "outputs": [],
      "stateMutability": "nonpayable",
      "type": "function"
    },
    {
      "inputs": [
        {
          "internalType": "uint256",
          "name": "_lessonId",
          "type": "uint256"
        },
        {
          "internalType": "string",
          "name": "_title",
          "type": "string"
        }
      ],
      "name": "createQuiz",
      "outputs": [
        {
          "internalType": "uint256",
          "name": "",
          "type": "uint256"
        }
      ],
      "stateMutability": "nonpayable",
      "type": "function"
    },
    {
      "inputs": [],
      "name": "decimals",
      "outputs": [
        {
          "internalType": "uint8",
          "name": "",
          "type": "uint8"
        }
      ],
      "stateMutability": "view",
      "type": "function"
    },
    {
      "inputs": [],
      "name": "ecosystemPoolSupply",
      "outputs": [
        {
          "internalType": "uint256",
          "name": "",
          "type": "uint256"
        }
      ],
      "stateMutability": "view",
      "type": "function"
    },
    {
      "inputs": [
        {
          "internalType": "uint256",
          "name": "_courseId",
          "type": "uint256"
        }
      ],
      "name": "enroll",
      "outputs": [
        {
          "internalType": "bool",
          "name": "",
          "type": "bool"
        }
      ],
      "stateMutability": "nonpayable",
      "type": "function"
    },
    {
      "inputs": [],
      "name": "getAllChapters",
      "outputs": [
        {
          "components": [
            {
              "internalType": "uint256",
              "name": "courseId",
              "type": "uint256"
            },
            {
              "internalType": "uint256",
              "name": "chapterId",
              "type": "uint256"
            },
            {
              "internalType": "string",
              "name": "chapterName",
              "type": "string"
            },
            {
              "internalType": "uint256",
              "name": "duration",
              "type": "uint256"
            },
            {
              "internalType": "bool",
              "name": "exists",
              "type": "bool"
            }
          ],
          "internalType": "struct Ecosystem.Chapter[]",
          "name": "",
          "type": "tuple[]"
        }
      ],
      "stateMutability": "view",
      "type": "function"
    },
    {
      "inputs": [],
      "name": "getAllCourses",
      "outputs": [
        {
          "components": [
            {
              "internalType": "uint256",
              "name": "courseId",
              "type": "uint256"
            },
            {
              "internalType": "string",
              "name": "courseName",
              "type": "string"
            },
            {
              "internalType": "string",
              "name": "description",
              "type": "string"
            },
            {
              "internalType": "bool",
              "name": "approved",
              "type": "bool"
            },
            {
              "internalType": "uint256",
              "name": "approvalCount",
              "type": "uint256"
            },
            {
              "internalType": "address",
              "name": "creator",
              "type": "address"
            },
            {
              "internalType": "bool",
              "name": "exists",
              "type": "bool"
            },
            {
              "internalType": "address[]",
              "name": "enrolledStudents",
              "type": "address[]"
            },
            {
              "internalType": "enum Ecosystem.DifficultyLevel",
              "name": "difficultyLevel",
              "type": "uint8"
            }
          ],
          "internalType": "struct Ecosystem.Course[]",
          "name": "",
          "type": "tuple[]"
        }
      ],
      "stateMutability": "view",
      "type": "function"
    },
    {
      "inputs": [],
      "name": "getAllLessons",
      "outputs": [
        {
          "components": [
            {
              "internalType": "uint256",
              "name": "chapterId",
              "type": "uint256"
            },
            {
              "internalType": "uint256",
              "name": "lessonId",
              "type": "uint256"
            },
            {
              "internalType": "string",
              "name": "lessonName",
              "type": "string"
            },
            {
              "internalType": "string",
              "name": "lessonContent",
              "type": "string"
            },
            {
              "components": [
                {
                  "internalType": "enum Ecosystem.ContentType",
                  "name": "contentType",
                  "type": "uint8"
                },
                {
                  "internalType": "string",
                  "name": "url",
                  "type": "string"
                },
                {
                  "internalType": "string",
                  "name": "name",
                  "type": "string"
                }
              ],
              "internalType": "struct Ecosystem.Resource[10]",
              "name": "additionalResources",
              "type": "tuple[10]"
            },
            {
              "internalType": "uint256",
              "name": "resourceCount",
              "type": "uint256"
            },
            {
              "internalType": "bool",
              "name": "exists",
              "type": "bool"
            }
          ],
          "internalType": "struct Ecosystem.Lesson[]",
          "name": "",
          "type": "tuple[]"
        }
      ],
      "stateMutability": "view",
      "type": "function"
    },
    {
      "inputs": [],
      "name": "getAllQuizzes",
      "outputs": [
        {
          "components": [
            {
              "internalType": "uint256",
              "name": "lessonId",
              "type": "uint256"
            },
            {
              "internalType": "uint256",
              "name": "quizId",
              "type": "uint256"
            },
            {
              "internalType": "string",
              "name": "quizTitle",
              "type": "string"
            },
            {
              "components": [
                {
                  "internalType": "uint256",
                  "name": "quizId",
                  "type": "uint256"
                },
                {
                  "internalType": "uint256",
                  "name": "questionId",
                  "type": "uint256"
                },
                {
                  "internalType": "string",
                  "name": "questionText",
                  "type": "string"
                },
                {
                  "components": [
                    {
                      "internalType": "string",
                      "name": "option",
                      "type": "string"
                    },
                    {
                      "internalType": "bool",
                      "name": "isCorrect",
                      "type": "bool"
                    }
                  ],
                  "internalType": "struct Ecosystem.Choice[]",
                  "name": "choices",
                  "type": "tuple[]"
                }
              ],
              "internalType": "struct Ecosystem.Question[]",
              "name": "questions",
              "type": "tuple[]"
            },
            {
              "internalType": "bool",
              "name": "exists",
              "type": "bool"
            }
          ],
          "internalType": "struct Ecosystem.Quiz[]",
          "name": "",
          "type": "tuple[]"
        }
      ],
      "stateMutability": "view",
      "type": "function"
    },
    {
      "inputs": [
        {
          "internalType": "uint256",
          "name": "_courseId",
          "type": "uint256"
        }
      ],
      "name": "getChapters",
      "outputs": [
        {
          "components": [
            {
              "internalType": "uint256",
              "name": "courseId",
              "type": "uint256"
            },
            {
              "internalType": "uint256",
              "name": "chapterId",
              "type": "uint256"
            },
            {
              "internalType": "string",
              "name": "chapterName",
              "type": "string"
            },
            {
              "internalType": "uint256",
              "name": "duration",
              "type": "uint256"
            },
            {
              "internalType": "bool",
              "name": "exists",
              "type": "bool"
            }
          ],
          "internalType": "struct Ecosystem.Chapter[]",
          "name": "",
          "type": "tuple[]"
        }
      ],
      "stateMutability": "view",
      "type": "function"
    },
    {
      "inputs": [
        {
          "internalType": "uint256",
          "name": "courseId",
          "type": "uint256"
        }
      ],
      "name": "getCourseReviewers",
      "outputs": [
        {
          "internalType": "address[]",
          "name": "",
          "type": "address[]"
        }
      ],
      "stateMutability": "view",
      "type": "function"
    },
    {
      "inputs": [],
      "name": "getCurrentEcosystemPoolSupply",
      "outputs": [
        {
          "internalType": "uint256",
          "name": "",
          "type": "uint256"
        }
      ],
      "stateMutability": "view",
      "type": "function"
    },
    {
      "inputs": [
        {
          "internalType": "uint256",
          "name": "_quizId",
          "type": "uint256"
        }
      ],
      "name": "getQuestionsForQuiz",
      "outputs": [
        {
          "components": [
            {
              "internalType": "uint256",
              "name": "quizId",
              "type": "uint256"
            },
            {
              "internalType": "uint256",
              "name": "questionId",
              "type": "uint256"
            },
            {
              "internalType": "string",
              "name": "questionText",
              "type": "string"
            },
            {
              "components": [
                {
                  "internalType": "string",
                  "name": "option",
                  "type": "string"
                },
                {
                  "internalType": "bool",
                  "name": "isCorrect",
                  "type": "bool"
                }
              ],
              "internalType": "struct Ecosystem.Choice[]",
              "name": "choices",
              "type": "tuple[]"
            }
          ],
          "internalType": "struct Ecosystem.Question[]",
          "name": "",
          "type": "tuple[]"
        }
      ],
      "stateMutability": "view",
      "type": "function"
    },
    {
      "inputs": [
        {
          "internalType": "uint256",
          "name": "_quizId",
          "type": "uint256"
        }
      ],
      "name": "getQuiz",
      "outputs": [
        {
          "components": [
            {
              "internalType": "uint256",
              "name": "lessonId",
              "type": "uint256"
            },
            {
              "internalType": "uint256",
              "name": "quizId",
              "type": "uint256"
            },
            {
              "internalType": "string",
              "name": "quizTitle",
              "type": "string"
            },
            {
              "components": [
                {
                  "internalType": "uint256",
                  "name": "quizId",
                  "type": "uint256"
                },
                {
                  "internalType": "uint256",
                  "name": "questionId",
                  "type": "uint256"
                },
                {
                  "internalType": "string",
                  "name": "questionText",
                  "type": "string"
                },
                {
                  "components": [
                    {
                      "internalType": "string",
                      "name": "option",
                      "type": "string"
                    },
                    {
                      "internalType": "bool",
                      "name": "isCorrect",
                      "type": "bool"
                    }
                  ],
                  "internalType": "struct Ecosystem.Choice[]",
                  "name": "choices",
                  "type": "tuple[]"
                }
              ],
              "internalType": "struct Ecosystem.Question[]",
              "name": "questions",
              "type": "tuple[]"
            },
            {
              "internalType": "bool",
              "name": "exists",
              "type": "bool"
            }
          ],
          "internalType": "struct Ecosystem.Quiz",
          "name": "",
          "type": "tuple"
        }
      ],
      "stateMutability": "view",
      "type": "function"
    },
    {
      "inputs": [
        {
          "internalType": "bytes32",
          "name": "role",
          "type": "bytes32"
        }
      ],
      "name": "getRoleAdmin",
      "outputs": [
        {
          "internalType": "bytes32",
          "name": "",
          "type": "bytes32"
        }
      ],
      "stateMutability": "view",
      "type": "function"
    },
    {
      "inputs": [
        {
          "internalType": "uint256",
          "name": "_courseId",
          "type": "uint256"
        }
      ],
      "name": "getUserCompletedLessonsByCourse",
      "outputs": [
        {
          "internalType": "uint256[]",
          "name": "",
          "type": "uint256[]"
        },
        {
          "internalType": "uint256",
          "name": "",
          "type": "uint256"
        }
      ],
      "stateMutability": "view",
      "type": "function"
    },
    {
      "inputs": [
        {
          "internalType": "bytes32",
          "name": "role",
          "type": "bytes32"
        },
        {
          "internalType": "address",
          "name": "account",
          "type": "address"
        }
      ],
      "name": "grantRole",
      "outputs": [],
      "stateMutability": "nonpayable",
      "type": "function"
    },
    {
      "inputs": [
        {
          "internalType": "bytes32",
          "name": "role",
          "type": "bytes32"
        },
        {
          "internalType": "address",
          "name": "account",
          "type": "address"
        }
      ],
      "name": "hasRole",
      "outputs": [
        {
          "internalType": "bool",
          "name": "",
          "type": "bool"
        }
      ],
      "stateMutability": "view",
      "type": "function"
    },
    {
      "inputs": [
        {
          "internalType": "uint256",
          "name": "",
          "type": "uint256"
        },
        {
          "internalType": "address",
          "name": "",
          "type": "address"
        }
      ],
      "name": "isEnrolled",
      "outputs": [
        {
          "internalType": "bool",
          "name": "",
          "type": "bool"
        }
      ],
      "stateMutability": "view",
      "type": "function"
    },
    {
      "inputs": [
        {
          "internalType": "address",
          "name": "",
          "type": "address"
        }
      ],
      "name": "isInReviewerPool",
      "outputs": [
        {
          "internalType": "bool",
          "name": "",
          "type": "bool"
        }
      ],
      "stateMutability": "view",
      "type": "function"
    },
    {
      "inputs": [
        {
          "internalType": "address",
          "name": "account",
          "type": "address"
        }
      ],
      "name": "isReviewer",
      "outputs": [
        {
          "internalType": "bool",
          "name": "",
          "type": "bool"
        }
      ],
      "stateMutability": "view",
      "type": "function"
    },
    {
      "inputs": [
        {
          "internalType": "uint256",
          "name": "",
          "type": "uint256"
        }
      ],
      "name": "lesson",
      "outputs": [
        {
          "internalType": "uint256",
          "name": "chapterId",
          "type": "uint256"
        },
        {
          "internalType": "uint256",
          "name": "lessonId",
          "type": "uint256"
        },
        {
          "internalType": "string",
          "name": "lessonName",
          "type": "string"
        },
        {
          "internalType": "string",
          "name": "lessonContent",
          "type": "string"
        },
        {
          "internalType": "uint256",
          "name": "resourceCount",
          "type": "uint256"
        },
        {
          "internalType": "bool",
          "name": "exists",
          "type": "bool"
        }
      ],
      "stateMutability": "view",
      "type": "function"
    },
    {
      "inputs": [
        {
          "internalType": "uint256",
          "name": "",
          "type": "uint256"
        },
        {
          "internalType": "address",
          "name": "",
          "type": "address"
        }
      ],
      "name": "lessonRead",
      "outputs": [
        {
          "internalType": "bool",
          "name": "",
          "type": "bool"
        }
      ],
      "stateMutability": "view",
      "type": "function"
    },
    {
      "inputs": [
        {
          "internalType": "uint256",
          "name": "",
          "type": "uint256"
        }
      ],
      "name": "listOfChapters",
      "outputs": [
        {
          "internalType": "uint256",
          "name": "courseId",
          "type": "uint256"
        },
        {
          "internalType": "uint256",
          "name": "chapterId",
          "type": "uint256"
        },
        {
          "internalType": "string",
          "name": "chapterName",
          "type": "string"
        },
        {
          "internalType": "uint256",
          "name": "duration",
          "type": "uint256"
        },
        {
          "internalType": "bool",
          "name": "exists",
          "type": "bool"
        }
      ],
      "stateMutability": "view",
      "type": "function"
    },
    {
      "inputs": [
        {
          "internalType": "uint256",
          "name": "",
          "type": "uint256"
        }
      ],
      "name": "listOfCourses",
      "outputs": [
        {
          "internalType": "uint256",
          "name": "courseId",
          "type": "uint256"
        },
        {
          "internalType": "string",
          "name": "courseName",
          "type": "string"
        },
        {
          "internalType": "string",
          "name": "description",
          "type": "string"
        },
        {
          "internalType": "bool",
          "name": "approved",
          "type": "bool"
        },
        {
          "internalType": "uint256",
          "name": "approvalCount",
          "type": "uint256"
        },
        {
          "internalType": "address",
          "name": "creator",
          "type": "address"
        },
        {
          "internalType": "bool",
          "name": "exists",
          "type": "bool"
        },
        {
          "internalType": "enum Ecosystem.DifficultyLevel",
          "name": "difficultyLevel",
          "type": "uint8"
        }
      ],
      "stateMutability": "view",
      "type": "function"
    },
    {
      "inputs": [
        {
          "internalType": "uint256",
          "name": "",
          "type": "uint256"
        }
      ],
      "name": "listOfLessons",
      "outputs": [
        {
          "internalType": "uint256",
          "name": "chapterId",
          "type": "uint256"
        },
        {
          "internalType": "uint256",
          "name": "lessonId",
          "type": "uint256"
        },
        {
          "internalType": "string",
          "name": "lessonName",
          "type": "string"
        },
        {
          "internalType": "string",
          "name": "lessonContent",
          "type": "string"
        },
        {
          "internalType": "uint256",
          "name": "resourceCount",
          "type": "uint256"
        },
        {
          "internalType": "bool",
          "name": "exists",
          "type": "bool"
        }
      ],
      "stateMutability": "view",
      "type": "function"
    },
    {
      "inputs": [
        {
          "internalType": "uint256",
          "name": "",
          "type": "uint256"
        }
      ],
      "name": "listOfQuestions",
      "outputs": [
        {
          "internalType": "uint256",
          "name": "quizId",
          "type": "uint256"
        },
        {
          "internalType": "uint256",
          "name": "questionId",
          "type": "uint256"
        },
        {
          "internalType": "string",
          "name": "questionText",
          "type": "string"
        }
      ],
      "stateMutability": "view",
      "type": "function"
    },
    {
      "inputs": [
        {
          "internalType": "uint256",
          "name": "",
          "type": "uint256"
        }
      ],
      "name": "listOfQuizzes",
      "outputs": [
        {
          "internalType": "uint256",
          "name": "lessonId",
          "type": "uint256"
        },
        {
          "internalType": "uint256",
          "name": "quizId",
          "type": "uint256"
        },
        {
          "internalType": "string",
          "name": "quizTitle",
          "type": "string"
        },
        {
          "internalType": "bool",
          "name": "exists",
          "type": "bool"
        }
      ],
      "stateMutability": "view",
      "type": "function"
    },
    {
      "inputs": [
        {
          "internalType": "uint256",
          "name": "",
          "type": "uint256"
        }
      ],
      "name": "listOfResource",
      "outputs": [
        {
          "internalType": "enum Ecosystem.ContentType",
          "name": "contentType",
          "type": "uint8"
        },
        {
          "internalType": "string",
          "name": "url",
          "type": "string"
        },
        {
          "internalType": "string",
          "name": "name",
          "type": "string"
        }
      ],
      "stateMutability": "view",
      "type": "function"
    },
    {
      "inputs": [
        {
          "internalType": "uint256",
          "name": "_courseId",
          "type": "uint256"
        },
        {
          "internalType": "uint256",
          "name": "_chapterId",
          "type": "uint256"
        },
        {
          "internalType": "uint256",
          "name": "_lessonId",
          "type": "uint256"
        }
      ],
      "name": "markAsRead",
      "outputs": [
        {
          "internalType": "bool",
          "name": "",
          "type": "bool"
        }
      ],
      "stateMutability": "nonpayable",
      "type": "function"
    },
    {
      "inputs": [
        {
          "internalType": "uint256",
          "name": "",
          "type": "uint256"
        }
      ],
      "name": "multiSigProposals",
      "outputs": [
        {
          "internalType": "uint256",
          "name": "id",
          "type": "uint256"
        },
        {
          "internalType": "address",
          "name": "proposer",
          "type": "address"
        },
        {
          "internalType": "address",
          "name": "targetContract",
          "type": "address"
        },
        {
          "internalType": "bytes",
          "name": "data",
          "type": "bytes"
        },
        {
          "internalType": "uint256",
          "name": "approvalCount",
          "type": "uint256"
        },
        {
          "internalType": "bool",
          "name": "executed",
          "type": "bool"
        }
      ],
      "stateMutability": "view",
      "type": "function"
    },
    {
      "inputs": [],
      "name": "name",
      "outputs": [
        {
          "internalType": "string",
          "name": "",
          "type": "string"
        }
      ],
      "stateMutability": "view",
      "type": "function"
    },
    {
      "inputs": [],
      "name": "nextChapterId",
      "outputs": [
        {
          "internalType": "uint256",
          "name": "",
          "type": "uint256"
        }
      ],
      "stateMutability": "view",
      "type": "function"
    },
    {
      "inputs": [],
      "name": "nextChoiceId",
      "outputs": [
        {
          "internalType": "uint256",
          "name": "",
          "type": "uint256"
        }
      ],
      "stateMutability": "view",
      "type": "function"
    },
    {
      "inputs": [],
      "name": "nextCourseId",
      "outputs": [
        {
          "internalType": "uint256",
          "name": "",
          "type": "uint256"
        }
      ],
      "stateMutability": "view",
      "type": "function"
    },
    {
      "inputs": [],
      "name": "nextCourseIdd",
      "outputs": [
        {
          "internalType": "uint256",
          "name": "",
          "type": "uint256"
        }
      ],
      "stateMutability": "view",
      "type": "function"
    },
    {
      "inputs": [],
      "name": "nextLessonId",
      "outputs": [
        {
          "internalType": "uint256",
          "name": "",
          "type": "uint256"
        }
      ],
      "stateMutability": "view",
      "type": "function"
    },
    {
      "inputs": [],
      "name": "nextQuestionId",
      "outputs": [
        {
          "internalType": "uint256",
          "name": "",
          "type": "uint256"
        }
      ],
      "stateMutability": "view",
      "type": "function"
    },
    {
      "inputs": [],
      "name": "nextQuizId",
      "outputs": [
        {
          "internalType": "uint256",
          "name": "",
          "type": "uint256"
        }
      ],
      "stateMutability": "view",
      "type": "function"
    },
    {
      "inputs": [
        {
          "internalType": "uint256",
          "name": "",
          "type": "uint256"
        }
      ],
      "name": "questions",
      "outputs": [
        {
          "internalType": "uint256",
          "name": "quizId",
          "type": "uint256"
        },
        {
          "internalType": "uint256",
          "name": "questionId",
          "type": "uint256"
        },
        {
          "internalType": "string",
          "name": "questionText",
          "type": "string"
        }
      ],
      "stateMutability": "view",
      "type": "function"
    },
    {
      "inputs": [
        {
          "internalType": "uint256",
          "name": "",
          "type": "uint256"
        }
      ],
      "name": "quizzes",
      "outputs": [
        {
          "internalType": "uint256",
          "name": "lessonId",
          "type": "uint256"
        },
        {
          "internalType": "uint256",
          "name": "quizId",
          "type": "uint256"
        },
        {
          "internalType": "string",
          "name": "quizTitle",
          "type": "string"
        },
        {
          "internalType": "bool",
          "name": "exists",
          "type": "bool"
        }
      ],
      "stateMutability": "view",
      "type": "function"
    },
    {
      "inputs": [
        {
          "internalType": "address",
          "name": "reviewer",
          "type": "address"
        }
      ],
      "name": "removeReviewer",
      "outputs": [],
      "stateMutability": "nonpayable",
      "type": "function"
    },
    {
      "inputs": [
        {
          "internalType": "bytes32",
          "name": "role",
          "type": "bytes32"
        },
        {
          "internalType": "address",
          "name": "callerConfirmation",
          "type": "address"
        }
      ],
      "name": "renounceRole",
      "outputs": [],
      "stateMutability": "nonpayable",
      "type": "function"
    },
    {
      "inputs": [
        {
          "internalType": "uint256",
          "name": "",
          "type": "uint256"
        }
      ],
      "name": "reviewerPool",
      "outputs": [
        {
          "internalType": "address",
          "name": "",
          "type": "address"
        }
      ],
      "stateMutability": "view",
      "type": "function"
    },
    {
      "inputs": [
        {
          "internalType": "uint256",
          "name": "",
          "type": "uint256"
        },
        {
          "internalType": "address",
          "name": "",
          "type": "address"
        }
      ],
      "name": "reviews",
      "outputs": [
        {
          "internalType": "uint256",
          "name": "learnerAgency",
          "type": "uint256"
        },
        {
          "internalType": "uint256",
          "name": "criticalThinking",
          "type": "uint256"
        },
        {
          "internalType": "uint256",
          "name": "collaborativeLearning",
          "type": "uint256"
        },
        {
          "internalType": "uint256",
          "name": "reflectivePractice",
          "type": "uint256"
        },
        {
          "internalType": "uint256",
          "name": "adaptiveLearning",
          "type": "uint256"
        },
        {
          "internalType": "uint256",
          "name": "authenticLearning",
          "type": "uint256"
        },
        {
          "internalType": "uint256",
          "name": "technologyIntegration",
          "type": "uint256"
        },
        {
          "internalType": "uint256",
          "name": "learnerSupport",
          "type": "uint256"
        },
        {
          "internalType": "uint256",
          "name": "assessmentForLearning",
          "type": "uint256"
        },
        {
          "internalType": "uint256",
          "name": "engagementAndMotivation",
          "type": "uint256"
        },
        {
          "internalType": "bool",
          "name": "isSubmitted",
          "type": "bool"
        }
      ],
      "stateMutability": "view",
      "type": "function"
    },
    {
      "inputs": [
        {
          "internalType": "bytes32",
          "name": "role",
          "type": "bytes32"
        },
        {
          "internalType": "address",
          "name": "account",
          "type": "address"
        }
      ],
      "name": "revokeRole",
      "outputs": [],
      "stateMutability": "nonpayable",
      "type": "function"
    },
    {
      "inputs": [
        {
          "internalType": "uint256",
          "name": "courseId",
          "type": "uint256"
        }
      ],
      "name": "selectCourseReviewers",
      "outputs": [],
      "stateMutability": "nonpayable",
      "type": "function"
    },
    {
      "inputs": [
        {
          "internalType": "uint256",
          "name": "courseId",
          "type": "uint256"
        },
        {
          "internalType": "uint256",
          "name": "learnerAgency",
          "type": "uint256"
        },
        {
          "internalType": "uint256",
          "name": "criticalThinking",
          "type": "uint256"
        },
        {
          "internalType": "uint256",
          "name": "collaborativeLearning",
          "type": "uint256"
        },
        {
          "internalType": "uint256",
          "name": "reflectivePractice",
          "type": "uint256"
        },
        {
          "internalType": "uint256",
          "name": "adaptiveLearning",
          "type": "uint256"
        },
        {
          "internalType": "uint256",
          "name": "authenticLearning",
          "type": "uint256"
        },
        {
          "internalType": "uint256",
          "name": "technologyIntegration",
          "type": "uint256"
        },
        {
          "internalType": "uint256",
          "name": "learnerSupport",
          "type": "uint256"
        },
        {
          "internalType": "uint256",
          "name": "assessmentForLearning",
          "type": "uint256"
        },
        {
          "internalType": "uint256",
          "name": "engagementAndMotivation",
          "type": "uint256"
        }
      ],
      "name": "submitReview",
      "outputs": [],
      "stateMutability": "nonpayable",
      "type": "function"
    },
    {
      "inputs": [
        {
          "internalType": "bytes4",
          "name": "interfaceId",
          "type": "bytes4"
        }
      ],
      "name": "supportsInterface",
      "outputs": [
        {
          "internalType": "bool",
          "name": "",
          "type": "bool"
        }
      ],
      "stateMutability": "view",
      "type": "function"
    },
    {
      "inputs": [],
      "name": "symbol",
      "outputs": [
        {
          "internalType": "string",
          "name": "",
          "type": "string"
        }
      ],
      "stateMutability": "view",
      "type": "function"
    },
    {
      "inputs": [],
      "name": "totalSupply",
      "outputs": [
        {
          "internalType": "uint256",
          "name": "",
          "type": "uint256"
        }
      ],
      "stateMutability": "view",
      "type": "function"
    },
    {
      "inputs": [
        {
          "internalType": "address",
          "name": "to",
          "type": "address"
        },
        {
          "internalType": "uint256",
          "name": "value",
          "type": "uint256"
        }
      ],
      "name": "transfer",
      "outputs": [
        {
          "internalType": "bool",
          "name": "",
          "type": "bool"
        }
      ],
      "stateMutability": "nonpayable",
      "type": "function"
    },
    {
      "inputs": [
        {
          "internalType": "address",
          "name": "from",
          "type": "address"
        },
        {
          "internalType": "address",
          "name": "to",
          "type": "address"
        },
        {
          "internalType": "uint256",
          "name": "value",
          "type": "uint256"
        }
      ],
      "name": "transferFrom",
      "outputs": [
        {
          "internalType": "bool",
          "name": "",
          "type": "bool"
        }
      ],
      "stateMutability": "nonpayable",
      "type": "function"
    },
    {
      "inputs": [
        {
          "internalType": "uint256",
          "name": "_courseId",
          "type": "uint256"
        }
      ],
      "name": "unEnroll",
      "outputs": [
        {
          "internalType": "bool",
          "name": "",
          "type": "bool"
        }
      ],
      "stateMutability": "nonpayable",
      "type": "function"
    },
    {
      "inputs": [
        {
          "internalType": "address",
          "name": "",
          "type": "address"
        },
        {
          "internalType": "uint256",
          "name": "",
          "type": "uint256"
        }
      ],
      "name": "userCompletedLessons",
      "outputs": [
        {
          "internalType": "uint256",
          "name": "",
          "type": "uint256"
        }
      ],
      "stateMutability": "view",
      "type": "function"
    },
    {
      "inputs": [
        {
          "internalType": "address",
          "name": "",
          "type": "address"
        },
        {
          "internalType": "uint256",
          "name": "",
          "type": "uint256"
        },
        {
          "internalType": "uint256",
          "name": "",
          "type": "uint256"
        }
      ],
      "name": "userCompletedLessonsByCourse",
      "outputs": [
        {
          "internalType": "uint256",
          "name": "",
          "type": "uint256"
        }
      ],
      "stateMutability": "view",
      "type": "function"
    }
  ],
  "bytecode": "0x608060405234801561001057600080fd5b5060405161bfd738038061bfd78339818101604052810190610032919061063b565b80806040518060400160405280600a81526020017f4142594120544f4b454e000000000000000000000000000000000000000000008152506040518060400160405280600681526020017f414259544b4e000000000000000000000000000000000000000000000000000081525081600390816100af91906108a5565b5080600490816100bf91906108a5565b505050600481511015610107576040517f08c379a00000000000000000000000000000000000000000000000000000000081526004016100fe906109fa565b60405180910390fd5b61011a6000801b336102c060201b60201c565b5061014b7fdf1425bae297c2f52b4f15d18a50b1fc8cb5b981a981b1d213ed3ff92681b64d336102c060201b60201c565b5060005b815181101561029f576101a27fc10c77be35aff266144ed64c26a1fa104bae2f284ae99ac4a34203454704a18583838151811061018f5761018e610a1a565b5b60200260200101516102c060201b60201c565b5060068282815181106101b8576101b7610a1a565b5b60200260200101519080600181540180825580915050600190039060005260206000200160009091909190916101000a81548173ffffffffffffffffffffffffffffffffffffffff021916908373ffffffffffffffffffffffffffffffffffffffff16021790555060016008600084848151811061023957610238610a1a565b5b602002602001015173ffffffffffffffffffffffffffffffffffffffff1673ffffffffffffffffffffffffffffffffffffffff16815260200190815260200160002060006101000a81548160ff021916908315150217905550808060010191505061014f565b50506001600a819055506102b9600b6103be60201b60201c565b5050610a49565b60006102d283836103fd60201b60201c565b6103b35760016005600085815260200190815260200160002060000160008473ffffffffffffffffffffffffffffffffffffffff1673ffffffffffffffffffffffffffffffffffffffff16815260200190815260200160002060006101000a81548160ff02191690831515021790555061035061046860201b60201c565b73ffffffffffffffffffffffffffffffffffffffff168273ffffffffffffffffffffffffffffffffffffffff16847f2f8788117e7eff1d82e926ec794901d17c78024a50270940304540a733656f0d60405160405180910390a4600190506103b8565b600090505b92915050565b60018160000181905550600181600101819055506001816002018190555060018160030181905550600181600401819055506001816005018190555050565b60006005600084815260200190815260200160002060000160008373ffffffffffffffffffffffffffffffffffffffff1673ffffffffffffffffffffffffffffffffffffffff16815260200190815260200160002060009054906101000a900460ff16905092915050565b600033905090565b6000604051905090565b600080fd5b600080fd5b600080fd5b6000601f19601f8301169050919050565b7f4e487b7100000000000000000000000000000000000000000000000000000000600052604160045260246000fd5b6104d282610489565b810181811067ffffffffffffffff821117156104f1576104f061049a565b5b80604052505050565b6000610504610470565b905061051082826104c9565b919050565b600067ffffffffffffffff8211156105305761052f61049a565b5b602082029050602081019050919050565b600080fd5b600073ffffffffffffffffffffffffffffffffffffffff82169050919050565b600061057182610546565b9050919050565b61058181610566565b811461058c57600080fd5b50565b60008151905061059e81610578565b92915050565b60006105b76105b284610515565b6104fa565b905080838252602082019050602084028301858111156105da576105d9610541565b5b835b8181101561060357806105ef888261058f565b8452602084019350506020810190506105dc565b5050509392505050565b600082601f83011261062257610621610484565b5b81516106328482602086016105a4565b91505092915050565b6000602082840312156106515761065061047a565b5b600082015167ffffffffffffffff81111561066f5761066e61047f565b5b61067b8482850161060d565b91505092915050565b600081519050919050565b7f4e487b7100000000000000000000000000000000000000000000000000000000600052602260045260246000fd5b600060028204905060018216806106d657607f821691505b6020821081036106e9576106e861068f565b5b50919050565b60008190508160005260206000209050919050565b60006020601f8301049050919050565b600082821b905092915050565b6000600883026107517fffffffffffffffffffffffffffffffffffffffffffffffffffffffffffffffff82610714565b61075b8683610714565b95508019841693508086168417925050509392505050565b6000819050919050565b6000819050919050565b60006107a261079d61079884610773565b61077d565b610773565b9050919050565b6000819050919050565b6107bc83610787565b6107d06107c8826107a9565b848454610721565b825550505050565b600090565b6107e56107d8565b6107f08184846107b3565b505050565b5b81811015610814576108096000826107dd565b6001810190506107f6565b5050565b601f8211156108595761082a816106ef565b61083384610704565b81016020851015610842578190505b61085661084e85610704565b8301826107f5565b50505b505050565b600082821c905092915050565b600061087c6000198460080261085e565b1980831691505092915050565b6000610895838361086b565b9150826002028217905092915050565b6108ae82610684565b67ffffffffffffffff8111156108c7576108c661049a565b5b6108d182546106be565b6108dc828285610818565b600060209050601f83116001811461090f57600084156108fd578287015190505b6109078582610889565b86555061096f565b601f19841661091d866106ef565b60005b8281101561094557848901518255600182019150602085019450602081019050610920565b86831015610962578489015161095e601f89168261086b565b8355505b6001600288020188555050505b505050505050565b600082825260208201905092915050565b7f4174206c6561737420342072657669657765727320617265207265717569726560008201527f6400000000000000000000000000000000000000000000000000000000000000602082015250565b60006109e4602183610977565b91506109ef82610988565b604082019050919050565b60006020820190508181036000830152610a13816109d7565b9050919050565b7f4e487b7100000000000000000000000000000000000000000000000000000000600052603260045260246000fd5b61b57f80610a586000396000f3fe608060405234801561001057600080fd5b50600436106104c25760003560e01c806375b9d86911610278578063bad0dd651161015c578063d3751bfc116100ce578063ded5c18d11610092578063ded5c18d14611143578063e503f10814611161578063eb264b9c1461117f578063f57d585b1461119d578063fdc6258a146111cd578063ffabc673146111fd576104c2565b8063d3751bfc1461108b578063d547741f146110a7578063d93f2caa146110c3578063dd62ed3e146110e1578063ddfc79fb14611111576104c2565b8063c7954e4c11610120578063c7954e4c14610f8d578063c90c884d14610fab578063c9442dac14610fdf578063c976831514610ffb578063d03646941461102b578063d214ba741461105b576104c2565b8063bad0dd6514610ea2578063bfd2f4c514610ebe578063c12804fb14610ef3578063c293bbbe14610f2d578063c491b04c14610f5d576104c2565b8063a14ecbdf116101f5578063a3f7e096116101b9578063a3f7e09614610da8578063a9059cbb14610dd8578063aa95da3a14610e08578063ac678a9314610e38578063ac957c6314610e68578063b31a4af314610e86576104c2565b8063a14ecbdf14610cea578063a1cd05b114610d08578063a217fddf14610d38578063a296ea5814610d56578063a3ef204114610d74576104c2565b80638ea6e2fd1161023c5780638ea6e2fd14610c3257806391d1485414610c4e57806395d89b4114610c7e5780639ad0112714610c9c5780639bce575114610ccc576104c2565b806375b9d86914610b775780637d83daf214610b93578063846f815214610bb157806388409afa14610bcf5780638a2492bb14610c02576104c2565b806332cb6b0c116103aa57806352994e2f1161031c5780636a4af0fa116102e05780636a4af0fa14610a9c5780636b000fa714610aba5780636fdb67f714610ad857806370a0823114610b0f57806373a82b5f14610b3f5780637528499814610b5b576104c2565b806352994e2f146109f657806358a3fa2514610a14578063599c553314610a30578063632c224b14610a4e5780636605515914610a7e576104c2565b80633693dcfa1161036e5780633693dcfa146108ef5780633b129a561461090d57806340932bf81461092b5780634a474b9c146109605780634d42ef481461099057806351d93c81146109c4576104c2565b806332cb6b0c1461082457806334359da914610842578063344458971461087357806334ed4bdb146108a357806336568abe146108d3576104c2565b806323b872dd116104435780632990db7c116104075780632990db7c1461072e57806329a0be65146107655780632aac61ae146107835780632f2ff15d146107b8578063313ce567146107d457806331b1b978146107f2576104c2565b806323b872dd1461065f578063248a9ca31461068f578063274202f0146106bf57806327ff6223146106dd578063295b825a146106fb576104c2565b806311ce15df1161048a57806311ce15df1461058157806313e85811146105b157806318160ddd146105e157806319f102ec146105ff57806320bd03161461062f576104c2565b806301ffc9a7146104c757806304e48bd1146104f7578063057f46bb1461051557806306fdde0314610533578063095ea7b314610551575b600080fd5b6104e160048036038101906104dc91906180bc565b61122d565b6040516104ee9190618104565b60405180910390f35b6104ff6112a7565b60405161050c91906184d3565b60405180910390f35b61051d6116dd565b60405161052a9190618504565b60405180910390f35b61053b6116e3565b6040516105489190618569565b60405180910390f35b61056b600480360381019061056691906185e3565b611775565b6040516105789190618104565b60405180910390f35b61059b60048036038101906105969190618623565b611798565b6040516105a89190618104565b60405180910390f35b6105cb60048036038101906105c69190618650565b6117b8565b6040516105d89190618104565b60405180910390f35b6105e96117e7565b6040516105f69190618504565b60405180910390f35b61061960048036038101906106149190618623565b6117f1565b604051610626919061869f565b60405180910390f35b61064960048036038101906106449190618623565b611830565b6040516106569190618104565b60405180910390f35b610679600480360381019061067491906186ba565b611a00565b6040516106869190618104565b60405180910390f35b6106a960048036038101906106a49190618743565b611a2f565b6040516106b6919061877f565b60405180910390f35b6106c7611a4f565b6040516106d49190618504565b60405180910390f35b6106e5611a77565b6040516106f29190618504565b60405180910390f35b61071560048036038101906107109190618623565b611a7c565b604051610725949392919061879a565b60405180910390f35b61074860048036038101906107439190618623565b611b51565b60405161075c9897969594939291906187f5565b60405180910390f35b61076d611cf0565b60405161077a9190618504565b60405180910390f35b61079d60048036038101906107989190618623565b611cf6565b6040516107af96959493929190618881565b60405180910390f35b6107d260048036038101906107cd91906188f0565b611e5f565b005b6107dc611e81565b6040516107e9919061894c565b60405180910390f35b61080c60048036038101906108079190618623565b611e8a565b60405161081b93929190618967565b60405180910390f35b61082c611f3c565b6040516108399190618504565b60405180910390f35b61085c60048036038101906108579190618623565b611f4c565b60405161086a929190618a54565b60405180910390f35b61088d60048036038101906108889190618a84565b611fff565b60405161089a9190618504565b60405180910390f35b6108bd60048036038101906108b89190618ad7565b61203d565b6040516108ca9190618504565b60405180910390f35b6108ed60048036038101906108e891906188f0565b61205b565b005b6108f76120d6565b604051610904919061877f565b60405180910390f35b6109156120fa565b604051610922919061877f565b60405180910390f35b61094560048036038101906109409190618623565b61211e565b60405161095796959493929190618b59565b60405180910390f35b61097a60048036038101906109759190618623565b61222f565b6040516109879190618dec565b60405180910390f35b6109aa60048036038101906109a59190618e0e565b6124b9565b6040516109bb959493929190618e4e565b60405180910390f35b6109de60048036038101906109d99190618623565b6125a1565b6040516109ed93929190618967565b60405180910390f35b6109fe612663565b604051610a0b919061877f565b60405180910390f35b610a2e6004803603810190610a299190618ea8565b612687565b005b610a3861294d565b604051610a459190618504565b60405180910390f35b610a686004803603810190610a6391906190d1565b612952565b604051610a759190618504565b60405180910390f35b610a86612b16565b604051610a939190618504565b60405180910390f35b610aa4612b1c565b604051610ab191906192f2565b60405180910390f35b610ac2612eac565b604051610acf9190618504565b60405180910390f35b610af26004803603810190610aed9190618623565b612eb2565b604051610b069897969594939291906187f5565b60405180910390f35b610b296004803603810190610b249190618ad7565b613061565b604051610b369190618504565b60405180910390f35b610b596004803603810190610b549190618ad7565b6130a9565b005b610b756004803603810190610b709190618623565b61328d565b005b610b916004803603810190610b8c9190619314565b6135e4565b005b610b9b6137f2565b604051610ba89190618504565b60405180910390f35b610bb96137f8565b604051610bc69190618504565b60405180910390f35b610be96004803603810190610be49190618623565b613804565b604051610bf9949392919061879a565b60405180910390f35b610c1c6004803603810190610c1791906193c4565b6138c9565b604051610c299190618104565b60405180910390f35b610c4c6004803603810190610c479190618623565b613dae565b005b610c686004803603810190610c6391906188f0565b614118565b604051610c759190618104565b60405180910390f35b610c86614183565b604051610c939190618569565b60405180910390f35b610cb66004803603810190610cb191906185e3565b614215565b604051610cc39190618504565b60405180910390f35b610cd4614246565b604051610ce19190619587565b60405180910390f35b610cf26143e1565b604051610cff9190618504565b60405180910390f35b610d226004803603810190610d1d9190618e0e565b6143e7565b604051610d2f919061869f565b60405180910390f35b610d40614435565b604051610d4d919061877f565b60405180910390f35b610d5e61443c565b604051610d6b919061986a565b60405180910390f35b610d8e6004803603810190610d899190618623565b614814565b604051610d9f959493929190618e4e565b60405180910390f35b610dc26004803603810190610dbd9190618623565b6148df565b604051610dcf9190619909565b60405180910390f35b610df26004803603810190610ded91906185e3565b614c41565b604051610dff9190618104565b60405180910390f35b610e226004803603810190610e1d9190618e0e565b614c64565b604051610e2f9190618569565b60405180910390f35b610e526004803603810190610e4d9190618623565b614d1c565b604051610e5f9190619587565b60405180910390f35b610e70614e59565b604051610e7d9190618504565b60405180910390f35b610ea06004803603810190610e9b91906199b0565b614e5e565b005b610ebc6004803603810190610eb79190618623565b615250565b005b610ed86004803603810190610ed39190618623565b61554f565b604051610eea96959493929190618881565b60405180910390f35b610f0d6004803603810190610f089190618650565b6156a8565b604051610f249b9a99989796959493929190619a24565b60405180910390f35b610f476004803603810190610f429190618623565b61571c565b604051610f549190619b3e565b60405180910390f35b610f776004803603810190610f729190618ad7565b6157bd565b604051610f849190618104565b60405180910390f35b610f956157dd565b604051610fa29190618504565b60405180910390f35b610fc56004803603810190610fc09190618623565b6157e7565b604051610fd6959493929190618e4e565b60405180910390f35b610ff96004803603810190610ff49190618ad7565b6158c2565b005b61101560048036038101906110109190618650565b615bac565b6040516110229190618104565b60405180910390f35b61104560048036038101906110409190619b60565b615bdb565b6040516110529190618104565b60405180910390f35b61107560048036038101906110709190619d57565b615e5e565b6040516110829190618104565b60405180910390f35b6110a560048036038101906110a09190619e0e565b616157565b005b6110c160048036038101906110bc91906188f0565b61654e565b005b6110cb616570565b6040516110d89190618504565b60405180910390f35b6110fb60048036038101906110f69190619ead565b61657c565b6040516111089190618504565b60405180910390f35b61112b60048036038101906111269190618623565b616603565b60405161113a93929190619efc565b60405180910390f35b61114b61675a565b6040516111589190618504565b60405180910390f35b611169616767565b6040516111769190618504565b60405180910390f35b61118761676d565b6040516111949190618504565b60405180910390f35b6111b760048036038101906111b29190618623565b616773565b6040516111c49190618104565b60405180910390f35b6111e760048036038101906111e29190618ad7565b616abb565b6040516111f49190618104565b60405180910390f35b611217600480360381019061121291906185e3565b616aee565b6040516112249190618104565b60405180910390f35b60007f7965db0b000000000000000000000000000000000000000000000000000000007bffffffffffffffffffffffffffffffffffffffffffffffffffffffff1916827bffffffffffffffffffffffffffffffffffffffffffffffffffffffff191614806112a0575061129f82616b1d565b5b9050919050565b6060600060268054905067ffffffffffffffff8111156112ca576112c9618fa6565b5b60405190808252806020026020018201604052801561130357816020015b6112f0617afb565b8152602001906001900390816112e85790505b50905060005b6026805490508110156116d5576040518061012001604052806026838154811061133657611335619f41565b5b90600052602060002090600802016000015481526020016026838154811061136157611360619f41565b5b9060005260206000209060080201600101805461137d90619f9f565b80601f01602080910402602001604051908101604052809291908181526020018280546113a990619f9f565b80156113f65780601f106113cb576101008083540402835291602001916113f6565b820191906000526020600020905b8154815290600101906020018083116113d957829003601f168201915b505050505081526020016026838154811061141457611413619f41565b5b9060005260206000209060080201600201805461143090619f9f565b80601f016020809104026020016040519081016040528092919081815260200182805461145c90619f9f565b80156114a95780601f1061147e576101008083540402835291602001916114a9565b820191906000526020600020905b81548152906001019060200180831161148c57829003601f168201915b50505050508152602001602683815481106114c7576114c6619f41565b5b906000526020600020906008020160030160009054906101000a900460ff16151581526020016026838154811061150157611500619f41565b5b90600052602060002090600802016004015481526020016026838154811061152c5761152b619f41565b5b906000526020600020906008020160050160009054906101000a900473ffffffffffffffffffffffffffffffffffffffff1673ffffffffffffffffffffffffffffffffffffffff1681526020016026838154811061158d5761158c619f41565b5b906000526020600020906008020160050160149054906101000a900460ff1615158152602001602683815481106115c7576115c6619f41565b5b906000526020600020906008020160060180548060200260200160405190810160405280929190818152602001828054801561165857602002820191906000526020600020905b8160009054906101000a900473ffffffffffffffffffffffffffffffffffffffff1673ffffffffffffffffffffffffffffffffffffffff168152602001906001019080831161160e575b505050505081526020016026838154811061167657611675619f41565b5b906000526020600020906008020160070160009054906101000a900460ff1660028111156116a7576116a66182f3565b5b8152508282815181106116bd576116bc619f41565b5b60200260200101819052508080600101915050611309565b508091505090565b60145481565b6060600380546116f290619f9f565b80601f016020809104026020016040519081016040528092919081815260200182805461171e90619f9f565b801561176b5780601f106117405761010080835404028352916020019161176b565b820191906000526020600020905b81548152906001019060200180831161174e57829003601f168201915b5050505050905090565b600080611780616b87565b905061178d818585616b8f565b600191505092915050565b60246020528060005260406000206000915054906101000a900460ff1681565b602c6020528160005260406000206020528060005260406000206000915091509054906101000a900460ff1681565b6000600254905090565b6006818154811061180157600080fd5b906000526020600020016000915054906101000a900473ffffffffffffffffffffffffffffffffffffffff1681565b600061183a616ba1565b6025600083815260200190815260200160002060003373ffffffffffffffffffffffffffffffffffffffff1673ffffffffffffffffffffffffffffffffffffffff16815260200190815260200160002060009054906101000a900460ff166118d7576040517f08c379a00000000000000000000000000000000000000000000000000000000081526004016118ce9061a01c565b60405180910390fd5b600060196000848152602001908152602001600020905060006026848154811061190457611903619f41565b5b906000526020600020906008020190506119218260060133616be7565b61192e8160060133616be7565b60006025600086815260200190815260200160002060003373ffffffffffffffffffffffffffffffffffffffff1673ffffffffffffffffffffffffffffffffffffffff16815260200190815260200160002060006101000a81548160ff0219169083151502179055506119a933671bc16d674ec80000616d84565b3373ffffffffffffffffffffffffffffffffffffffff16847f9b244c565b926d7f4e915b69f3a5c6afc2231322d0d44e821076ad8879d0d68360405160405180910390a36001925050506119fb616dab565b919050565b600080611a0b616b87565b9050611a18858285616db5565b611a23858585616e49565b60019150509392505050565b600060056000838152602001908152602001600020600101549050919050565b6064600f6b204fce5e3e25026110000000611a6a919061a06b565b611a74919061a0dc565b81565b606481565b602a8181548110611a8c57600080fd5b9060005260206000209060050201600091509050806000015490806001015490806002018054611abb90619f9f565b80601f0160208091040260200160405190810160405280929190818152602001828054611ae790619f9f565b8015611b345780601f10611b0957610100808354040283529160200191611b34565b820191906000526020600020905b815481529060010190602001808311611b1757829003601f168201915b5050505050908060040160009054906101000a900460ff16905084565b6019602052806000526040600020600091509050806000015490806001018054611b7a90619f9f565b80601f0160208091040260200160405190810160405280929190818152602001828054611ba690619f9f565b8015611bf35780601f10611bc857610100808354040283529160200191611bf3565b820191906000526020600020905b815481529060010190602001808311611bd657829003601f168201915b505050505090806002018054611c0890619f9f565b80601f0160208091040260200160405190810160405280929190818152602001828054611c3490619f9f565b8015611c815780601f10611c5657610100808354040283529160200191611c81565b820191906000526020600020905b815481529060010190602001808311611c6457829003601f168201915b5050505050908060030160009054906101000a900460ff16908060040154908060050160009054906101000a900473ffffffffffffffffffffffffffffffffffffffff16908060050160149054906101000a900460ff16908060070160009054906101000a900460ff16905088565b60155481565b60288181548110611d0657600080fd5b9060005260206000209060240201600091509050806000015490806001015490806002018054611d3590619f9f565b80601f0160208091040260200160405190810160405280929190818152602001828054611d6190619f9f565b8015611dae5780601f10611d8357610100808354040283529160200191611dae565b820191906000526020600020905b815481529060010190602001808311611d9157829003601f168201915b505050505090806003018054611dc390619f9f565b80601f0160208091040260200160405190810160405280929190818152602001828054611def90619f9f565b8015611e3c5780601f10611e1157610100808354040283529160200191611e3c565b820191906000526020600020905b815481529060010190602001808311611e1f57829003601f168201915b5050505050908060220154908060230160009054906101000a900460ff16905086565b611e6882611a2f565b611e7181616f3d565b611e7b8383616f51565b50505050565b60006012905090565b6022602052806000526040600020600091509050806000015490806001015490806002018054611eb990619f9f565b80601f0160208091040260200160405190810160405280929190818152602001828054611ee590619f9f565b8015611f325780601f10611f0757610100808354040283529160200191611f32565b820191906000526020600020905b815481529060010190602001808311611f1557829003601f168201915b5050505050905083565b6b204fce5e3e2502611000000081565b6060600080602e60003373ffffffffffffffffffffffffffffffffffffffff1673ffffffffffffffffffffffffffffffffffffffff1681526020019081526020016000206000858152602001908152602001600020805480602002602001604051908101604052809291908181526020018280548015611feb57602002820191906000526020600020905b815481526020019060010190808311611fd7575b505050505090508081519250925050915091565b602e602052826000526040600020602052816000526040600020818154811061202757600080fd5b9060005260206000200160009250925050505481565b601b6020528060005260406000206000915090508060000154905081565b612063616b87565b73ffffffffffffffffffffffffffffffffffffffff168173ffffffffffffffffffffffffffffffffffffffff16146120c7576040517f6697b23200000000000000000000000000000000000000000000000000000000815260040160405180910390fd5b6120d18282617043565b505050565b7fadb22091b155738d2e889eb96f509d2a7c93234236b30400927feb4a6a15ab0081565b7fc10c77be35aff266144ed64c26a1fa104bae2f284ae99ac4a34203454704a18581565b60096020528060005260406000206000915090508060000154908060010160009054906101000a900473ffffffffffffffffffffffffffffffffffffffff16908060020160009054906101000a900473ffffffffffffffffffffffffffffffffffffffff169080600301805461219390619f9f565b80601f01602080910402602001604051908101604052809291908181526020018280546121bf90619f9f565b801561220c5780601f106121e15761010080835404028352916020019161220c565b820191906000526020600020905b8154815290600101906020018083116121ef57829003601f168201915b5050505050908060040154908060050160009054906101000a900460ff16905086565b60606021600083815260200190815260200160002060040160009054906101000a900460ff16612294576040517f08c379a000000000000000000000000000000000000000000000000000000000815260040161228b9061a159565b60405180910390fd5b60216000838152602001908152602001600020600301805480602002602001604051908101604052809291908181526020016000905b828210156124ae5783829060005260206000209060040201604051806080016040529081600082015481526020016001820154815260200160028201805461231190619f9f565b80601f016020809104026020016040519081016040528092919081815260200182805461233d90619f9f565b801561238a5780601f1061235f5761010080835404028352916020019161238a565b820191906000526020600020905b81548152906001019060200180831161236d57829003601f168201915b5050505050815260200160038201805480602002602001604051908101604052809291908181526020016000905b8282101561249757838290600052602060002090600202016040518060400160405290816000820180546123eb90619f9f565b80601f016020809104026020016040519081016040528092919081815260200182805461241790619f9f565b80156124645780601f1061243957610100808354040283529160200191612464565b820191906000526020600020905b81548152906001019060200180831161244757829003601f168201915b505050505081526020016001820160009054906101000a900460ff161515151581525050815260200190600101906123b8565b5050505081525050815260200190600101906122ca565b505050509050919050565b601e60205281600052604060002081815481106124d557600080fd5b90600052602060002090600502016000915091505080600001549080600101549080600201805461250590619f9f565b80601f016020809104026020016040519081016040528092919081815260200182805461253190619f9f565b801561257e5780601f106125535761010080835404028352916020019161257e565b820191906000526020600020905b81548152906001019060200180831161256157829003601f168201915b5050505050908060030154908060040160009054906101000a900460ff16905085565b602b81815481106125b157600080fd5b90600052602060002090600402016000915090508060000154908060010154908060020180546125e090619f9f565b80601f016020809104026020016040519081016040528092919081815260200182805461260c90619f9f565b80156126595780601f1061262e57610100808354040283529160200191612659565b820191906000526020600020905b81548152906001019060200180831161263c57829003601f168201915b5050505050905083565b7fdf1425bae297c2f52b4f15d18a50b1fc8cb5b981a981b1d213ed3ff92681b64d81565b7fc10c77be35aff266144ed64c26a1fa104bae2f284ae99ac4a34203454704a1856126b181616f3d565b6126bb8c33617136565b6126fa576040517f08c379a00000000000000000000000000000000000000000000000000000000081526004016126f19061a1eb565b60405180910390fd5b601a60008d815260200190815260200160002060003373ffffffffffffffffffffffffffffffffffffffff1673ffffffffffffffffffffffffffffffffffffffff168152602001908152602001600020600a0160009054906101000a900460ff161561279b576040517f08c379a00000000000000000000000000000000000000000000000000000000081526004016127929061a27d565b60405180910390fd5b6127ad8b8b8b8b8b8b8b8b8b8b617201565b6040518061016001604052808c81526020018b81526020018a815260200189815260200188815260200187815260200186815260200185815260200184815260200183815260200160011515815250601a60008e815260200190815260200160002060003373ffffffffffffffffffffffffffffffffffffffff1673ffffffffffffffffffffffffffffffffffffffff168152602001908152602001600020600082015181600001556020820151816001015560408201518160020155606082015181600301556080820151816004015560a0820151816005015560c0820151816006015560e082015181600701556101008201518160080155610120820151816009015561014082015181600a0160006101000a81548160ff0219169083151502179055509050506050612930601a60008f815260200190815260200160002060003373ffffffffffffffffffffffffffffffffffffffff1673ffffffffffffffffffffffffffffffffffffffff1681526020019081526020016000206172c6565b1061293f5761293e8c61328d565b5b505050505050505050505050565b600281565b6000806016549050601f600085815260200190815260200160002060230160009054906101000a900460ff166129bd576040517f08c379a00000000000000000000000000000000000000000000000000000000081526004016129b49061a2e9565b60405180910390fd5b6000602160008381526020019081526020016000209050848160000181905550818160010181905550838160020190816129f7919061a4b5565b5060018160040160006101000a81548160ff02191690831515021790555060166000815480929190612a289061a587565b9190505550602a819080600181540180825580915050600190039060005260206000209060050201600090919091909150600082015481600001556001820154816001015560028201816002019081612a81919061a5e5565b506003820181600301908054612a98929190617b73565b506004820160009054906101000a900460ff168160040160006101000a81548160ff021916908315150217905550505083604051612ad6919061a709565b6040518091039020827fbf27702cefbc4aea50d7c73cfee96f84f5b908f62aeafcd8b0aeae202c15050960405160405180910390a3819250505092915050565b60125481565b60606000601654905060008167ffffffffffffffff811115612b4157612b40618fa6565b5b604051908082528060200260200182016040528015612b7a57816020015b612b67617c0b565b815260200190600190039081612b5f5790505b50905060005b82811015612ea357602160008281526020019081526020016000206040518060a00160405290816000820154815260200160018201548152602001600282018054612bca90619f9f565b80601f0160208091040260200160405190810160405280929190818152602001828054612bf690619f9f565b8015612c435780601f10612c1857610100808354040283529160200191612c43565b820191906000526020600020905b815481529060010190602001808311612c2657829003601f168201915b5050505050815260200160038201805480602002602001604051908101604052809291908181526020016000905b82821015612e5557838290600052602060002090600402016040518060800160405290816000820154815260200160018201548152602001600282018054612cb890619f9f565b80601f0160208091040260200160405190810160405280929190818152602001828054612ce490619f9f565b8015612d315780601f10612d0657610100808354040283529160200191612d31565b820191906000526020600020905b815481529060010190602001808311612d1457829003601f168201915b5050505050815260200160038201805480602002602001604051908101604052809291908181526020016000905b82821015612e3e5783829060005260206000209060020201604051806040016040529081600082018054612d9290619f9f565b80601f0160208091040260200160405190810160405280929190818152602001828054612dbe90619f9f565b8015612e0b5780601f10612de057610100808354040283529160200191612e0b565b820191906000526020600020905b815481529060010190602001808311612dee57829003601f168201915b505050505081526020016001820160009054906101000a900460ff16151515158152505081526020019060010190612d5f565b505050508152505081526020019060010190612c71565b5050505081526020016004820160009054906101000a900460ff161515151581525050828281518110612e8b57612e8a619f41565b5b60200260200101819052508080600101915050612b80565b50809250505090565b60185481565b60268181548110612ec257600080fd5b9060005260206000209060080201600091509050806000015490806001018054612eeb90619f9f565b80601f0160208091040260200160405190810160405280929190818152602001828054612f1790619f9f565b8015612f645780601f10612f3957610100808354040283529160200191612f64565b820191906000526020600020905b815481529060010190602001808311612f4757829003601f168201915b505050505090806002018054612f7990619f9f565b80601f0160208091040260200160405190810160405280929190818152602001828054612fa590619f9f565b8015612ff25780601f10612fc757610100808354040283529160200191612ff2565b820191906000526020600020905b815481529060010190602001808311612fd557829003601f168201915b5050505050908060030160009054906101000a900460ff16908060040154908060050160009054906101000a900473ffffffffffffffffffffffffffffffffffffffff16908060050160149054906101000a900460ff16908060070160009054906101000a900460ff16905088565b60008060008373ffffffffffffffffffffffffffffffffffffffff1673ffffffffffffffffffffffffffffffffffffffff168152602001908152602001600020549050919050565b7fc10c77be35aff266144ed64c26a1fa104bae2f284ae99ac4a34203454704a1856130d381616f3d565b600860008373ffffffffffffffffffffffffffffffffffffffff1673ffffffffffffffffffffffffffffffffffffffff16815260200190815260200160002060009054906101000a900460ff1615613160576040517f08c379a00000000000000000000000000000000000000000000000000000000081526004016131579061a76c565b60405180910390fd5b61318a7fc10c77be35aff266144ed64c26a1fa104bae2f284ae99ac4a34203454704a18583616f51565b506006829080600181540180825580915050600190039060005260206000200160009091909190916101000a81548173ffffffffffffffffffffffffffffffffffffffff021916908373ffffffffffffffffffffffffffffffffffffffff1602179055506001600860008473ffffffffffffffffffffffffffffffffffffffff1673ffffffffffffffffffffffffffffffffffffffff16815260200190815260200160002060006101000a81548160ff0219169083151502179055508173ffffffffffffffffffffffffffffffffffffffff167fe1cb5e1230cc02e62c60b81c1aa5ade512f3eac296edb28628b4cf344f47f93160405160405180910390a25050565b7fc10c77be35aff266144ed64c26a1fa104bae2f284ae99ac4a34203454704a1856132b781616f3d565b60006019600084815260200190815260200160002090508060030160009054906101000a900460ff1615613320576040517f08c379a00000000000000000000000000000000000000000000000000000000081526004016133179061a7d8565b60405180910390fd5b601c60003373ffffffffffffffffffffffffffffffffffffffff1673ffffffffffffffffffffffffffffffffffffffff168152602001908152602001600020600084815260200190815260200160002060009054906101000a900460ff16156133be576040517f08c379a00000000000000000000000000000000000000000000000000000000081526004016133b59061a86a565b60405180910390fd5b6001601c60003373ffffffffffffffffffffffffffffffffffffffff1673ffffffffffffffffffffffffffffffffffffffff168152602001908152602001600020600085815260200190815260200160002060006101000a81548160ff02191690831515021790555080600401600081548092919061343c9061a587565b919050555060028160040154106135615760018160030160006101000a81548160ff02191690831515021790555060005b60268054905081101561352457836026828154811061348f5761348e619f41565b5b90600052602060002090600802016000015403613517576001602682815481106134bc576134bb619f41565b5b906000526020600020906008020160030160006101000a81548160ff0219169083151502179055508160040154602682815481106134fd576134fc619f41565b5b906000526020600020906008020160040181905550613524565b808060010191505061346d565b5061355b8160050160009054906101000a900473ffffffffffffffffffffffffffffffffffffffff16674563918244f4000061735b565b506135df565b60005b6026805490508110156135dd57836026828154811061358657613585619f41565b5b906000526020600020906008020160000154036135d0578160040154602682815481106135b6576135b5619f41565b5b9060005260206000209060080201600401819055506135dd565b8080600101915050613564565b505b505050565b60006015549050601d600085815260200190815260200160002060040160009054906101000a900460ff1661364e576040517f08c379a00000000000000000000000000000000000000000000000000000000081526004016136459061a8d6565b60405180910390fd5b6000601f6000838152602001908152602001600020905084816000018190555081816001018190555083816002019081613688919061a4b5565b508281600301908161369a919061a4b5565b5060018160230160006101000a81548160ff021916908315150217905550600081602201819055506028601f60008481526020019081526020016000209080600181540180825580915050600190039060005260206000209060240201600090919091909150600082015481600001556001820154816001015560028201816002019081613728919061a5e5565b506003820181600301908161373d919061a5e5565b50600482018160040190600a613754929190617c3c565b50602282015481602201556023820160009054906101000a900460ff168160230160006101000a81548160ff0219169083151502179055505050601560008154809291906137a19061a587565b9190505550600a846040516137b6919061a709565b6040518091039020837f3387c3a40ec1df95e34d25a0e5564b40d01c331b71ccbafccccc66d36c84ad8360405160405180910390a45050505050565b60135481565b671bc16d674ec8000081565b602160205280600052604060002060009150905080600001549080600101549080600201805461383390619f9f565b80601f016020809104026020016040519081016040528092919081815260200182805461385f90619f9f565b80156138ac5780601f10613881576101008083540402835291602001916138ac565b820191906000526020600020905b81548152906001019060200180831161388f57829003601f168201915b5050505050908060040160009054906101000a900460ff16905084565b600060196000601354815260200190815260200160002060050160149054906101000a900460ff1615613931576040517f08c379a00000000000000000000000000000000000000000000000000000000081526004016139289061a942565b60405180910390fd5b60006040518061012001604052806013548152602001868152602001858152602001600015158152602001600081526020013373ffffffffffffffffffffffffffffffffffffffff168152602001600115158152602001600067ffffffffffffffff8111156139a3576139a2618fa6565b5b6040519080825280602002602001820160405280156139d15781602001602082028036833780820191505090505b5081526020018460028111156139ea576139e96182f3565b5b815250905080601960006013548152602001908152602001600020600082015181600001556020820151816001019081613a24919061a4b5565b506040820151816002019081613a3a919061a4b5565b5060608201518160030160006101000a81548160ff0219169083151502179055506080820151816004015560a08201518160050160006101000a81548173ffffffffffffffffffffffffffffffffffffffff021916908373ffffffffffffffffffffffffffffffffffffffff16021790555060c08201518160050160146101000a81548160ff02191690831515021790555060e0820151816006019080519060200190613ae8929190617ce6565b506101008201518160070160006101000a81548160ff02191690836002811115613b1557613b146182f3565b5b02179055509050506026819080600181540180825580915050600190039060005260206000209060080201600090919091909150600082015181600001556020820151816001019081613b68919061a4b5565b506040820151816002019081613b7e919061a4b5565b5060608201518160030160006101000a81548160ff0219169083151502179055506080820151816004015560a08201518160050160006101000a81548173ffffffffffffffffffffffffffffffffffffffff021916908373ffffffffffffffffffffffffffffffffffffffff16021790555060c08201518160050160146101000a81548160ff02191690831515021790555060e0820151816006019080519060200190613c2c929190617ce6565b506101008201518160070160006101000a81548160ff02191690836002811115613c5957613c586182f3565b5b0217905550505060126000815480929190613c739061a587565b91905055506001601b60003373ffffffffffffffffffffffffffffffffffffffff1673ffffffffffffffffffffffffffffffffffffffff1681526020019081526020016000206000016000828254613ccb919061a962565b9250508190555060136000815480929190613ce59061a587565b9190505550613d147fadb22091b155738d2e889eb96f509d2a7c93234236b30400927feb4a6a15ab0033616f51565b5084604051613d23919061a709565b60405180910390206001601354613d3a919061a996565b7f9c93a42b217373d37e6c66ace0a67fe1fa1f78c93164b62417de69c48c0f67e2601960006001601354613d6e919061a996565b815260200190815260200160002060030160009054906101000a900460ff16604051613d9a9190618104565b60405180910390a360019150509392505050565b7fadb22091b155738d2e889eb96f509d2a7c93234236b30400927feb4a6a15ab00613dd881616f3d565b6024600083815260200190815260200160002060009054906101000a900460ff1615613e39576040517f08c379a0000000000000000000000000000000000000000000000000000000008152600401613e309061aa16565b60405180910390fd5b60036006805490501015613e82576040517f08c379a0000000000000000000000000000000000000000000000000000000008152600401613e799061aa82565b60405180910390fd5b602360008381526020019081526020016000206000613ea19190617d70565b60005b600381101561407e576000600680549050424460068054905085604051602001613ed1949392919061aac3565b6040516020818303038152906040528051906020012060001c613ef4919061ab11565b9050600060068281548110613f0c57613f0b619f41565b5b9060005260206000200160009054906101000a900473ffffffffffffffffffffffffffffffffffffffff1690506000805b6023600088815260200190815260200160002080549050811015613ff3578273ffffffffffffffffffffffffffffffffffffffff16602360008981526020019081526020016000208281548110613f9757613f96619f41565b5b9060005260206000200160009054906101000a900473ffffffffffffffffffffffffffffffffffffffff1673ffffffffffffffffffffffffffffffffffffffff1603613fe65760019150613ff3565b8080600101915050613f3d565b508061406e5760236000878152602001908152602001600020829080600181540180825580915050600190039060005260206000200160009091909190916101000a81548173ffffffffffffffffffffffffffffffffffffffff021916908373ffffffffffffffffffffffffffffffffffffffff1602179055505b5050508080600101915050613ea4565b5060036023600084815260200190815260200160002080549050036140ca5760016024600084815260200190815260200160002060006101000a81548160ff0219169083151502179055505b817fe205dff861c570b8df17e26f893778853f94bb25d2de318755e48eab0b403ff76023600085815260200190815260200160002060405161410c919061ac2e565b60405180910390a25050565b60006005600084815260200190815260200160002060000160008373ffffffffffffffffffffffffffffffffffffffff1673ffffffffffffffffffffffffffffffffffffffff16815260200190815260200160002060009054906101000a900460ff16905092915050565b60606004805461419290619f9f565b80601f01602080910402602001604051908101604052809291908181526020018280546141be90619f9f565b801561420b5780601f106141e05761010080835404028352916020019161420b565b820191906000526020600020905b8154815290600101906020018083116141ee57829003601f168201915b5050505050905090565b602d602052816000526040600020818154811061423157600080fd5b90600052602060002001600091509150505481565b60606000602780549050905060008167ffffffffffffffff81111561426e5761426d618fa6565b5b6040519080825280602002602001820160405280156142a757816020015b614294617d91565b81526020019060019003908161428c5790505b50905060005b828110156143d857602781815481106142c9576142c8619f41565b5b90600052602060002090600502016040518060a0016040529081600082015481526020016001820154815260200160028201805461430690619f9f565b80601f016020809104026020016040519081016040528092919081815260200182805461433290619f9f565b801561437f5780601f106143545761010080835404028352916020019161437f565b820191906000526020600020905b81548152906001019060200180831161436257829003601f168201915b50505050508152602001600382015481526020016004820160009054906101000a900460ff1615151515815250508282815181106143c0576143bf619f41565b5b602002602001018190525080806001019150506142ad565b50809250505090565b60115481565b6023602052816000526040600020818154811061440357600080fd5b906000526020600020016000915091509054906101000a900473ffffffffffffffffffffffffffffffffffffffff1681565b6000801b81565b60606000602880549050905060008167ffffffffffffffff81111561446457614463618fa6565b5b60405190808252806020026020018201604052801561449d57816020015b61448a617dc2565b8152602001906001900390816144825790505b50905060005b8281101561480b57602881815481106144bf576144be619f41565b5b90600052602060002090602402016040518060e001604052908160008201548152602001600182015481526020016002820180546144fc90619f9f565b80601f016020809104026020016040519081016040528092919081815260200182805461452890619f9f565b80156145755780601f1061454a57610100808354040283529160200191614575565b820191906000526020600020905b81548152906001019060200180831161455857829003601f168201915b5050505050815260200160038201805461458e90619f9f565b80601f01602080910402602001604051908101604052809291908181526020018280546145ba90619f9f565b80156146075780601f106145dc57610100808354040283529160200191614607565b820191906000526020600020905b8154815290600101906020018083116145ea57829003601f168201915b5050505050815260200160048201600a80602002604051908101604052809291906000905b828210156147b3578382600302016040518060600160405290816000820160009054906101000a900460ff16600281111561466a576146696182f3565b5b600281111561467c5761467b6182f3565b5b815260200160018201805461469090619f9f565b80601f01602080910402602001604051908101604052809291908181526020018280546146bc90619f9f565b80156147095780601f106146de57610100808354040283529160200191614709565b820191906000526020600020905b8154815290600101906020018083116146ec57829003601f168201915b5050505050815260200160028201805461472290619f9f565b80601f016020809104026020016040519081016040528092919081815260200182805461474e90619f9f565b801561479b5780601f106147705761010080835404028352916020019161479b565b820191906000526020600020905b81548152906001019060200180831161477e57829003601f168201915b5050505050815250508152602001906001019061462c565b505050508152602001602282015481526020016023820160009054906101000a900460ff1615151515815250508282815181106147f3576147f2619f41565b5b602002602001018190525080806001019150506144a3565b50809250505090565b601d60205280600052604060002060009150905080600001549080600101549080600201805461484390619f9f565b80601f016020809104026020016040519081016040528092919081815260200182805461486f90619f9f565b80156148bc5780601f10614891576101008083540402835291602001916148bc565b820191906000526020600020905b81548152906001019060200180831161489f57829003601f168201915b5050505050908060030154908060040160009054906101000a900460ff16905085565b6148e7617c0b565b6021600083815260200190815260200160002060040160009054906101000a900460ff1661494a576040517f08c379a00000000000000000000000000000000000000000000000000000000081526004016149419061a159565b60405180910390fd5b602160008381526020019081526020016000206040518060a0016040529081600082015481526020016001820154815260200160028201805461498c90619f9f565b80601f01602080910402602001604051908101604052809291908181526020018280546149b890619f9f565b8015614a055780601f106149da57610100808354040283529160200191614a05565b820191906000526020600020905b8154815290600101906020018083116149e857829003601f168201915b5050505050815260200160038201805480602002602001604051908101604052809291908181526020016000905b82821015614c1757838290600052602060002090600402016040518060800160405290816000820154815260200160018201548152602001600282018054614a7a90619f9f565b80601f0160208091040260200160405190810160405280929190818152602001828054614aa690619f9f565b8015614af35780601f10614ac857610100808354040283529160200191614af3565b820191906000526020600020905b815481529060010190602001808311614ad657829003601f168201915b5050505050815260200160038201805480602002602001604051908101604052809291908181526020016000905b82821015614c005783829060005260206000209060020201604051806040016040529081600082018054614b5490619f9f565b80601f0160208091040260200160405190810160405280929190818152602001828054614b8090619f9f565b8015614bcd5780601f10614ba257610100808354040283529160200191614bcd565b820191906000526020600020905b815481529060010190602001808311614bb057829003601f168201915b505050505081526020016001820160009054906101000a900460ff16151515158152505081526020019060010190614b21565b505050508152505081526020019060010190614a33565b5050505081526020016004820160009054906101000a900460ff1615151515815250509050919050565b600080614c4c616b87565b9050614c59818585616e49565b600191505092915050565b602080528160005260406000208181548110614c7f57600080fd5b90600052602060002001600091509150508054614c9b90619f9f565b80601f0160208091040260200160405190810160405280929190818152602001828054614cc790619f9f565b8015614d145780601f10614ce957610100808354040283529160200191614d14565b820191906000526020600020905b815481529060010190602001808311614cf757829003601f168201915b505050505081565b6060601e6000838152602001908152602001600020805480602002602001604051908101604052809291908181526020016000905b82821015614e4e57838290600052602060002090600502016040518060a00160405290816000820154815260200160018201548152602001600282018054614d9890619f9f565b80601f0160208091040260200160405190810160405280929190818152602001828054614dc490619f9f565b8015614e115780601f10614de657610100808354040283529160200191614e11565b820191906000526020600020905b815481529060010190602001808311614df457829003601f168201915b50505050508152602001600382015481526020016004820160009054906101000a900460ff16151515158152505081526020019060010190614d51565b505050509050919050565b605081565b7fadb22091b155738d2e889eb96f509d2a7c93234236b30400927feb4a6a15ab00614e8881616f3d565b6000601f600087815260200190815260200160002090508060230160009054906101000a900460ff16614ef0576040517f08c379a0000000000000000000000000000000000000000000000000000000008152600401614ee79061ac9c565b60405180910390fd5b600081602201549050600a8585905082614f0a919061a962565b1115614f4b576040517f08c379a0000000000000000000000000000000000000000000000000000000008152600401614f429061ad08565b60405180910390fd5b60005b8585905081101561513c576040518060600160405280878784818110614f7757614f76619f41565b5b9050602002810190614f89919061ad37565b6000016020810190614f9b919061ad5f565b6002811115614fad57614fac6182f3565b5b8152602001878784818110614fc557614fc4619f41565b5b9050602002810190614fd7919061ad37565b8060200190614fe6919061ad8c565b8080601f016020809104026020016040519081016040528093929190818152602001838380828437600081840152601f19601f82011690508083019250505050505050815260200187878481811061504157615040619f41565b5b9050602002810190615053919061ad37565b8060400190615062919061ad8c565b8080601f016020809104026020016040519081016040528093929190818152602001838380828437600081840152601f19601f820116905080830192505050505050508152508360040183600a81106150be576150bd619f41565b5b6003020160008201518160000160006101000a81548160ff021916908360028111156150ed576150ec6182f3565b5b02179055506020820151816001019081615107919061a4b5565b50604082015181600201908161511d919061a4b5565b50905050818061512c9061a587565b9250508080600101915050614f4e565b5080826022018190555060005b60288054905081101561524657876028828154811061516b5761516a619f41565b5b9060005260206000209060240201600101540361523957826028828154811061519757615196619f41565b5b90600052602060002090602402016000820154816000015560018201548160010155600282018160020190816151cd919061a5e5565b50600382018160030190816151e2919061a5e5565b50600482018160040190600a6151f9929190617c3c565b50602282015481602201556023820160009054906101000a900460ff168160230160006101000a81548160ff021916908315150217905550905050615246565b8080600101915050615149565b5050505050505050565b7fdf1425bae297c2f52b4f15d18a50b1fc8cb5b981a981b1d213ed3ff92681b64d61527a81616f3d565b60006009600084815260200190815260200160002090508060050160009054906101000a900460ff16156152e3576040517f08c379a00000000000000000000000000000000000000000000000000000000081526004016152da9061ae3b565b60405180910390fd5b8060060160003373ffffffffffffffffffffffffffffffffffffffff1673ffffffffffffffffffffffffffffffffffffffff16815260200190815260200160002060009054906101000a900460ff1615615372576040517f08c379a00000000000000000000000000000000000000000000000000000000081526004016153699061aea7565b60405180910390fd5b60018160060160003373ffffffffffffffffffffffffffffffffffffffff1673ffffffffffffffffffffffffffffffffffffffff16815260200190815260200160002060006101000a81548160ff0219169083151502179055508060040160008154809291906153e19061a587565b9190505550827f5d4ccf5f92566d140246f4ae3b9cb35dc06fff109a7748602ad77f6260fd9a6133604051615416919061869f565b60405180910390a2600381600401541061554a5760008160020160009054906101000a900473ffffffffffffffffffffffffffffffffffffffff1673ffffffffffffffffffffffffffffffffffffffff1682600301604051615478919061af6a565b6000604051808303816000865af19150503d80600081146154b5576040519150601f19603f3d011682016040523d82523d6000602084013e6154ba565b606091505b50509050806154fe576040517f08c379a00000000000000000000000000000000000000000000000000000000081526004016154f59061afcd565b60405180910390fd5b60018260050160006101000a81548160ff021916908315150217905550837f7770356c29230b95943aec59d47ead11eb426a728bf5b57f7fd8597f3c0e29ba60405160405180910390a2505b505050565b601f60205280600052604060002060009150905080600001549080600101549080600201805461557e90619f9f565b80601f01602080910402602001604051908101604052809291908181526020018280546155aa90619f9f565b80156155f75780601f106155cc576101008083540402835291602001916155f7565b820191906000526020600020905b8154815290600101906020018083116155da57829003601f168201915b50505050509080600301805461560c90619f9f565b80601f016020809104026020016040519081016040528092919081815260200182805461563890619f9f565b80156156855780601f1061565a57610100808354040283529160200191615685565b820191906000526020600020905b81548152906001019060200180831161566857829003601f168201915b5050505050908060220154908060230160009054906101000a900460ff16905086565b601a6020528160005260406000206020528060005260406000206000915091505080600001549080600101549080600201549080600301549080600401549080600501549080600601549080600701549080600801549080600901549080600a0160009054906101000a900460ff1690508b565b6060602360008381526020019081526020016000208054806020026020016040519081016040528092919081815260200182805480156157b157602002820191906000526020600020905b8160009054906101000a900473ffffffffffffffffffffffffffffffffffffffff1673ffffffffffffffffffffffffffffffffffffffff1681526020019060010190808311615767575b50505050509050919050565b60086020528060005260406000206000915054906101000a900460ff1681565b6000601154905090565b602781815481106157f757600080fd5b906000526020600020906005020160009150905080600001549080600101549080600201805461582690619f9f565b80601f016020809104026020016040519081016040528092919081815260200182805461585290619f9f565b801561589f5780601f106158745761010080835404028352916020019161589f565b820191906000526020600020905b81548152906001019060200180831161588257829003601f168201915b5050505050908060030154908060040160009054906101000a900460ff16905085565b6000801b6158cf81616f3d565b600860008373ffffffffffffffffffffffffffffffffffffffff1673ffffffffffffffffffffffffffffffffffffffff16815260200190815260200160002060009054906101000a900460ff1661595b576040517f08c379a00000000000000000000000000000000000000000000000000000000081526004016159529061b039565b60405180910390fd5b60005b600680549050811015615ae1578273ffffffffffffffffffffffffffffffffffffffff166006828154811061599657615995619f41565b5b9060005260206000200160009054906101000a900473ffffffffffffffffffffffffffffffffffffffff1673ffffffffffffffffffffffffffffffffffffffff1603615ad457600660016006805490506159f0919061a996565b81548110615a0157615a00619f41565b5b9060005260206000200160009054906101000a900473ffffffffffffffffffffffffffffffffffffffff1660068281548110615a4057615a3f619f41565b5b9060005260206000200160006101000a81548173ffffffffffffffffffffffffffffffffffffffff021916908373ffffffffffffffffffffffffffffffffffffffff1602179055506006805480615a9a57615a9961b059565b5b6001900381819060005260206000200160006101000a81549073ffffffffffffffffffffffffffffffffffffffff02191690559055615ae1565b808060010191505061595e565b506000600860008473ffffffffffffffffffffffffffffffffffffffff1673ffffffffffffffffffffffffffffffffffffffff16815260200190815260200160002060006101000a81548160ff021916908315150217905550615b647fc10c77be35aff266144ed64c26a1fa104bae2f284ae99ac4a34203454704a18583617043565b508173ffffffffffffffffffffffffffffffffffffffff167f55dba9d79522b91b615629d5f3b10c2fad2d258f1768614f4a52e937ada0d0ba60405160405180910390a25050565b60256020528160005260406000206020528060005260406000206000915091509054906101000a900460ff1681565b6000602c600083815260200190815260200160002060003373ffffffffffffffffffffffffffffffffffffffff1673ffffffffffffffffffffffffffffffffffffffff16815260200190815260200160002060009054906101000a900460ff1615615c7b576040517f08c379a0000000000000000000000000000000000000000000000000000000008152600401615c729061b0d4565b60405180910390fd5b6000601f60008481526020019081526020016000206001015403615cd4576040517f08c379a0000000000000000000000000000000000000000000000000000000008152600401615ccb9061b140565b60405180910390fd5b6001602c600084815260200190815260200160002060003373ffffffffffffffffffffffffffffffffffffffff1673ffffffffffffffffffffffffffffffffffffffff16815260200190815260200160002060006101000a81548160ff021916908315150217905550602d60003373ffffffffffffffffffffffffffffffffffffffff1673ffffffffffffffffffffffffffffffffffffffff168152602001908152602001600020829080600181540180825580915050600190039060005260206000200160009091909190915055602e60003373ffffffffffffffffffffffffffffffffffffffff1673ffffffffffffffffffffffffffffffffffffffff168152602001908152602001600020600085815260200190815260200160002082908060018154018082558091505060019003906000526020600020016000909190919091505581837f2479aa0d18311382446edb0fa11d0dbd5bab1be78b1e60b343ffe4d2a5f798ad33604051615e4b919061869f565b60405180910390a3600190509392505050565b60008073ffffffffffffffffffffffffffffffffffffffff166019600086815260200190815260200160002060050160009054906101000a900473ffffffffffffffffffffffffffffffffffffffff1673ffffffffffffffffffffffffffffffffffffffff1603615f04576040517f08c379a0000000000000000000000000000000000000000000000000000000008152600401615efb9061b1ac565b60405180910390fd5b60005b835181101561611c5760006040518060a001604052808781526020016014548152602001868481518110615f3e57615f3d619f41565b5b60200260200101518152602001858481518110615f5e57615f5d619f41565b5b60200260200101518152602001600115158152509050602781908060018154018082558091505060019003906000526020600020906005020160009091909190915060008201518160000155602082015181600101556040820151816002019081615fc9919061a4b5565b506060820151816003015560808201518160040160006101000a81548160ff021916908315150217905550505080601d6000601454815260200190815260200160002060008201518160000155602082015181600101556040820151816002019081616035919061a4b5565b506060820151816003015560808201518160040160006101000a81548160ff021916908315150217905550905050601e6000878152602001908152602001600020819080600181540180825580915050600190039060005260206000209060050201600090919091909150600082015181600001556020820151816001015560408201518160020190816160c9919061a4b5565b506060820151816003015560808201518160040160006101000a81548160ff0219169083151502179055505050601460008154809291906161099061a587565b9190505550508080600101915050615f07565b508251847f1eb97e969f52c132bb6c79817d1f9001078fff0cd328ce625628e1fb4cc0e7de60405160405180910390a3600190509392505050565b6021600085815260200190815260200160002060040160009054906101000a900460ff166161ba576040517f08c379a00000000000000000000000000000000000000000000000000000000081526004016161b19061a159565b60405180910390fd5b600082511180156161cd57506004825111155b61620c576040517f08c379a00000000000000000000000000000000000000000000000000000000081526004016162039061b218565b60405180910390fd5b81518160ff1610616252576040517f08c379a00000000000000000000000000000000000000000000000000000000081526004016162499061b284565b60405180910390fd5b60006017549050600060226000838152602001908152602001600020905085816000018190555081816001018190555084816002019081616293919061a4b5565b5060005b84518160ff16101561635d5760006040518060400160405280878460ff16815181106162c6576162c5619f41565b5b602002602001015181526020018660ff168460ff161415158152509050826003018190806001815401808255809150506001900390600052602060002090600202016000909190919091506000820151816000019081616326919061a4b5565b5060208201518160010160006101000a81548160ff02191690831515021790555050505080806163559061b2a4565b915050616297565b50602160008781526020019081526020016000206003018190806001815401808255809150506001900390600052602060002090600402016000909190919091506000820154816000015560018201548160010155600282018160020190816163c6919061a5e5565b5060038201816003019080546163dd929190617e07565b505050601760008154809291906163f39061a587565b9190505550602b81908060018154018082558091505060019003906000526020600020906004020160009091909190915060008201548160000155600182015481600101556002820181600201908161644c919061a5e5565b506003820181600301908054616463929190617e07565b5050507fa5bdacf4d1324fdd584bc65cf0315e4975d00b33a7ca0e6d0a73c88df8430b9586838760405161649993929190618967565b60405180910390a160005b84518160ff16101561652b577f06ef0ba2ad58c9f8eef2fc98c08fd18d801c4a971eeb45afd07f0fee3f9d60c4838260ff166018546164e3919061a962565b878460ff16815181106164f9576164f8619f41565b5b602002602001015160405161651093929190618967565b60405180910390a180806165239061b2a4565b9150506164a4565b5083516018600082825461653f919061a962565b92505081905550505050505050565b61655782611a2f565b61656081616f3d565b61656a8383617043565b50505050565b674563918244f4000081565b6000600160008473ffffffffffffffffffffffffffffffffffffffff1673ffffffffffffffffffffffffffffffffffffffff16815260200190815260200160002060008373ffffffffffffffffffffffffffffffffffffffff1673ffffffffffffffffffffffffffffffffffffffff16815260200190815260200160002054905092915050565b6029818154811061661357600080fd5b90600052602060002090600302016000915090508060000160009054906101000a900460ff169080600101805461664990619f9f565b80601f016020809104026020016040519081016040528092919081815260200182805461667590619f9f565b80156166c25780601f10616697576101008083540402835291602001916166c2565b820191906000526020600020905b8154815290600101906020018083116166a557829003601f168201915b5050505050908060020180546166d790619f9f565b80601f016020809104026020016040519081016040528092919081815260200182805461670390619f9f565b80156167505780601f1061672557610100808354040283529160200191616750565b820191906000526020600020905b81548152906001019060200180831161673357829003601f168201915b5050505050905083565b6000600b60000154905090565b60165481565b60175481565b600061677d616ba1565b6019600083815260200190815260200160002060030160009054906101000a900460ff166167e0576040517f08c379a00000000000000000000000000000000000000000000000000000000081526004016167d79061b319565b60405180910390fd5b6025600083815260200190815260200160002060003373ffffffffffffffffffffffffffffffffffffffff1673ffffffffffffffffffffffffffffffffffffffff16815260200190815260200160002060009054906101000a900460ff161561687e576040517f08c379a00000000000000000000000000000000000000000000000000000000081526004016168759061b385565b60405180910390fd5b6019600083815260200190815260200160002060050160149054906101000a900460ff166168e1576040517f08c379a00000000000000000000000000000000000000000000000000000000081526004016168d89061b1ac565b60405180910390fd5b600060196000848152602001908152602001600020905060006026848154811061690e5761690d619f41565b5b9060005260206000209060080201905081600601339080600181540180825580915050600190039060005260206000200160009091909190916101000a81548173ffffffffffffffffffffffffffffffffffffffff021916908373ffffffffffffffffffffffffffffffffffffffff16021790555080600601339080600181540180825580915050600190039060005260206000200160009091909190916101000a81548173ffffffffffffffffffffffffffffffffffffffff021916908373ffffffffffffffffffffffffffffffffffffffff16021790555060016025600086815260200190815260200160002060003373ffffffffffffffffffffffffffffffffffffffff1673ffffffffffffffffffffffffffffffffffffffff16815260200190815260200160002060006101000a81548160ff021916908315150217905550616a6333671bc16d674ec8000061735b565b503373ffffffffffffffffffffffffffffffffffffffff16847f4bf249f6b0ca5630ea4816c04b928b864a2065cb51658fd6223d83b727fd326b60405160405180910390a3600192505050616ab6616dab565b919050565b6000616ae77fc10c77be35aff266144ed64c26a1fa104bae2f284ae99ac4a34203454704a18583614118565b9050919050565b601c6020528160005260406000206020528060005260406000206000915091509054906101000a900460ff1681565b60007f01ffc9a7000000000000000000000000000000000000000000000000000000007bffffffffffffffffffffffffffffffffffffffffffffffffffffffff1916827bffffffffffffffffffffffffffffffffffffffffffffffffffffffff1916149050919050565b600033905090565b616b9c8383836001617448565b505050565b6002600a5403616bdd576040517f3ee5aeb500000000000000000000000000000000000000000000000000000000815260040160405180910390fd5b6002600a81905550565b60005b8280549050811015616d7f578173ffffffffffffffffffffffffffffffffffffffff16838281548110616c2057616c1f619f41565b5b9060005260206000200160009054906101000a900473ffffffffffffffffffffffffffffffffffffffff1673ffffffffffffffffffffffffffffffffffffffff1603616d725760018380549050616c77919061a996565b8114616d27578260018480549050616c8f919061a996565b81548110616ca057616c9f619f41565b5b9060005260206000200160009054906101000a900473ffffffffffffffffffffffffffffffffffffffff16838281548110616cde57616cdd619f41565b5b9060005260206000200160006101000a81548173ffffffffffffffffffffffffffffffffffffffff021916908373ffffffffffffffffffffffffffffffffffffffff1602179055505b82805480616d3857616d3761b059565b5b6001900381819060005260206000200160006101000a81549073ffffffffffffffffffffffffffffffffffffffff02191690559055616d7f565b8080600101915050616bea565b505050565b616d8e828261761f565b8060116000828254616da0919061a996565b925050819055505050565b6001600a81905550565b6000616dc1848461657c565b90507fffffffffffffffffffffffffffffffffffffffffffffffffffffffffffffffff8114616e435781811015616e33578281836040517ffb8f41b2000000000000000000000000000000000000000000000000000000008152600401616e2a9392919061b3a5565b60405180910390fd5b616e4284848484036000617448565b5b50505050565b600073ffffffffffffffffffffffffffffffffffffffff168373ffffffffffffffffffffffffffffffffffffffff1603616ebb5760006040517f96c6fd1e000000000000000000000000000000000000000000000000000000008152600401616eb2919061869f565b60405180910390fd5b600073ffffffffffffffffffffffffffffffffffffffff168273ffffffffffffffffffffffffffffffffffffffff1603616f2d5760006040517fec442f05000000000000000000000000000000000000000000000000000000008152600401616f24919061869f565b60405180910390fd5b616f388383836176c6565b505050565b616f4e81616f49616b87565b6178eb565b50565b6000616f5d8383614118565b6170385760016005600085815260200190815260200160002060000160008473ffffffffffffffffffffffffffffffffffffffff1673ffffffffffffffffffffffffffffffffffffffff16815260200190815260200160002060006101000a81548160ff021916908315150217905550616fd5616b87565b73ffffffffffffffffffffffffffffffffffffffff168273ffffffffffffffffffffffffffffffffffffffff16847f2f8788117e7eff1d82e926ec794901d17c78024a50270940304540a733656f0d60405160405180910390a46001905061703d565b600090505b92915050565b600061704f8383614118565b1561712b5760006005600085815260200190815260200160002060000160008473ffffffffffffffffffffffffffffffffffffffff1673ffffffffffffffffffffffffffffffffffffffff16815260200190815260200160002060006101000a81548160ff0219169083151502179055506170c8616b87565b73ffffffffffffffffffffffffffffffffffffffff168273ffffffffffffffffffffffffffffffffffffffff16847ff6391f5c32d9c69d2a47ea670b442974b53935d1edc7fd64eb21e047a839171b60405160405180910390a460019050617130565b600090505b92915050565b600080600090505b60236000858152602001908152602001600020805490508110156171f5578273ffffffffffffffffffffffffffffffffffffffff1660236000868152602001908152602001600020828154811061719857617197619f41565b5b9060005260206000200160009054906101000a900473ffffffffffffffffffffffffffffffffffffffff1673ffffffffffffffffffffffffffffffffffffffff16036171e85760019150506171fb565b808060010191505061713e565b50600090505b92915050565b600a8a111580156172135750600a8911155b80156172205750600a8811155b801561722d5750600a8711155b801561723a5750600a8611155b80156172475750600a8511155b80156172545750600a8411155b80156172615750600a8311155b801561726e5750600a8211155b801561727b5750600a8111155b6172ba576040517f08c379a00000000000000000000000000000000000000000000000000000000081526004016172b19061b428565b60405180910390fd5b50505050505050505050565b60008160090154826008015483600701548460060154856005015486600401548760030154886002015489600101548a60000154617304919061a962565b61730e919061a962565b617318919061a962565b617322919061a962565b61732c919061a962565b617336919061a962565b617340919061a962565b61734a919061a962565b617354919061a962565b9050919050565b60006064600f6b204fce5e3e25026110000000617378919061a06b565b617382919061a0dc565b61738a6157dd565b83617395919061a962565b11156173d6576040517f08c379a00000000000000000000000000000000000000000000000000000000081526004016173cd9061b494565b60405180910390fd5b6173e0838361793c565b5081601160008282546173f3919061a962565b92505081905550818373ffffffffffffffffffffffffffffffffffffffff167fad6ef58d5c294f81258965738e7ae511124139834a8d0b8f8f7327086c82052a60405160405180910390a36001905092915050565b600073ffffffffffffffffffffffffffffffffffffffff168473ffffffffffffffffffffffffffffffffffffffff16036174ba5760006040517fe602df050000000000000000000000000000000000000000000000000000000081526004016174b1919061869f565b60405180910390fd5b600073ffffffffffffffffffffffffffffffffffffffff168373ffffffffffffffffffffffffffffffffffffffff160361752c5760006040517f94280d62000000000000000000000000000000000000000000000000000000008152600401617523919061869f565b60405180910390fd5b81600160008673ffffffffffffffffffffffffffffffffffffffff1673ffffffffffffffffffffffffffffffffffffffff16815260200190815260200160002060008573ffffffffffffffffffffffffffffffffffffffff1673ffffffffffffffffffffffffffffffffffffffff168152602001908152602001600020819055508015617619578273ffffffffffffffffffffffffffffffffffffffff168473ffffffffffffffffffffffffffffffffffffffff167f8c5be1e5ebec7d5bd14f71427d1e84f3dd0314c0f7b2291e5b200ac8c7c3b925846040516176109190618504565b60405180910390a35b50505050565b8061762983613061565b101561766a576040517f08c379a00000000000000000000000000000000000000000000000000000000081526004016176619061b500565b60405180910390fd5b61767482826179f7565b8173ffffffffffffffffffffffffffffffffffffffff167f5b5d8478b570a79ab6b3bf13ff029fba19c02ab0d54d692d4ef0d9052d5cc850826040516176ba9190618504565b60405180910390a25050565b600073ffffffffffffffffffffffffffffffffffffffff168373ffffffffffffffffffffffffffffffffffffffff160361771857806002600082825461770c919061a962565b925050819055506177eb565b60008060008573ffffffffffffffffffffffffffffffffffffffff1673ffffffffffffffffffffffffffffffffffffffff168152602001908152602001600020549050818110156177a4578381836040517fe450d38c00000000000000000000000000000000000000000000000000000000815260040161779b9392919061b3a5565b60405180910390fd5b8181036000808673ffffffffffffffffffffffffffffffffffffffff1673ffffffffffffffffffffffffffffffffffffffff16815260200190815260200160002081905550505b600073ffffffffffffffffffffffffffffffffffffffff168273ffffffffffffffffffffffffffffffffffffffff16036178345780600260008282540392505081905550617881565b806000808473ffffffffffffffffffffffffffffffffffffffff1673ffffffffffffffffffffffffffffffffffffffff168152602001908152602001600020600082825401925050819055505b8173ffffffffffffffffffffffffffffffffffffffff168373ffffffffffffffffffffffffffffffffffffffff167fddf252ad1be2c89b69c2b068fc378daa952ba7f163c4a11628f55a4df523b3ef836040516178de9190618504565b60405180910390a3505050565b6178f58282614118565b6179385780826040517fe2517d3f00000000000000000000000000000000000000000000000000000000815260040161792f92919061b520565b60405180910390fd5b5050565b60006b204fce5e3e250261100000006179536117e7565b8361795e919061a962565b111561799f576040517f08c379a00000000000000000000000000000000000000000000000000000000081526004016179969061b494565b60405180910390fd5b6179a98383617a79565b818373ffffffffffffffffffffffffffffffffffffffff167fcda531bfd68624f13205c0a23cd4d5a7f09792cbb399603114f2b04aaa1bf5cf60405160405180910390a36001905092915050565b600073ffffffffffffffffffffffffffffffffffffffff168273ffffffffffffffffffffffffffffffffffffffff1603617a695760006040517f96c6fd1e000000000000000000000000000000000000000000000000000000008152600401617a60919061869f565b60405180910390fd5b617a75826000836176c6565b5050565b600073ffffffffffffffffffffffffffffffffffffffff168273ffffffffffffffffffffffffffffffffffffffff1603617aeb5760006040517fec442f05000000000000000000000000000000000000000000000000000000008152600401617ae2919061869f565b60405180910390fd5b617af7600083836176c6565b5050565b60405180610120016040528060008152602001606081526020016060815260200160001515815260200160008152602001600073ffffffffffffffffffffffffffffffffffffffff1681526020016000151581526020016060815260200160006002811115617b6d57617b6c6182f3565b5b81525090565b828054828255906000526020600020906004028101928215617bfa5760005260206000209160040282015b82811115617bf9578282600082015481600001556001820154816001015560028201816002019081617bd0919061a5e5565b506003820181600301908054617be7929190617e07565b50505091600401919060040190617b9e565b5b509050617c079190617ea1565b5090565b6040518060a00160405280600081526020016000815260200160608152602001606081526020016000151581525090565b82600a6003028101928215617cd5579160030282015b82811115617cd45782826000820160009054906101000a900460ff168160000160006101000a81548160ff02191690836002811115617c9457617c936182f3565b5b021790555060018201816001019081617cad919061a5e5565b5060028201816002019081617cc2919061a5e5565b50505091600301919060030190617c52565b5b509050617ce29190617ee8565b5090565b828054828255906000526020600020908101928215617d5f579160200282015b82811115617d5e5782518260006101000a81548173ffffffffffffffffffffffffffffffffffffffff021916908373ffffffffffffffffffffffffffffffffffffffff16021790555091602001919060010190617d06565b5b509050617d6c9190617f33565b5090565b5080546000825590600052602060002090810190617d8e9190617f33565b50565b6040518060a00160405280600081526020016000815260200160608152602001600081526020016000151581525090565b6040518060e0016040528060008152602001600081526020016060815260200160608152602001617df1617f50565b8152602001600081526020016000151581525090565b828054828255906000526020600020906002028101928215617e905760005260206000209160020282015b82811115617e8f57828260008201816000019081617e50919061a5e5565b506001820160009054906101000a900460ff168160010160006101000a81548160ff021916908315150217905550505091600201919060020190617e32565b5b509050617e9d9190617f7e565b5090565b5b80821115617ee4576000808201600090556001820160009055600282016000617ecb9190617fb9565b600382016000617edb9190617ff9565b50600401617ea2565b5090565b5b80821115617f2f57600080820160006101000a81549060ff0219169055600182016000617f169190617fb9565b600282016000617f269190617fb9565b50600301617ee9565b5090565b5b80821115617f4c576000816000905550600101617f34565b5090565b604051806101400160405280600a905b617f6861801d565b815260200190600190039081617f605790505090565b5b80821115617fb55760008082016000617f989190617fb9565b6001820160006101000a81549060ff021916905550600201617f7f565b5090565b508054617fc590619f9f565b6000825580601f10617fd75750617ff6565b601f016020900490600052602060002090810190617ff59190617f33565b5b50565b508054600082556002029060005260206000209081019061801a9190617f7e565b50565b60405180606001604052806000600281111561803c5761803b6182f3565b5b815260200160608152602001606081525090565b6000604051905090565b600080fd5b600080fd5b60007fffffffff0000000000000000000000000000000000000000000000000000000082169050919050565b61809981618064565b81146180a457600080fd5b50565b6000813590506180b681618090565b92915050565b6000602082840312156180d2576180d161805a565b5b60006180e0848285016180a7565b91505092915050565b60008115159050919050565b6180fe816180e9565b82525050565b600060208201905061811960008301846180f5565b92915050565b600081519050919050565b600082825260208201905092915050565b6000819050602082019050919050565b6000819050919050565b61815e8161814b565b82525050565b600081519050919050565b600082825260208201905092915050565b60005b8381101561819e578082015181840152602081019050618183565b60008484015250505050565b6000601f19601f8301169050919050565b60006181c682618164565b6181d0818561816f565b93506181e0818560208601618180565b6181e9816181aa565b840191505092915050565b6181fd816180e9565b82525050565b600073ffffffffffffffffffffffffffffffffffffffff82169050919050565b600061822e82618203565b9050919050565b61823e81618223565b82525050565b600081519050919050565b600082825260208201905092915050565b6000819050602082019050919050565b600061827c8383618235565b60208301905092915050565b6000602082019050919050565b60006182a082618244565b6182aa818561824f565b93506182b583618260565b8060005b838110156182e65781516182cd8882618270565b97506182d883618288565b9250506001810190506182b9565b5085935050505092915050565b7f4e487b7100000000000000000000000000000000000000000000000000000000600052602160045260246000fd5b60038110618333576183326182f3565b5b50565b600081905061834482618322565b919050565b600061835482618336565b9050919050565b61836481618349565b82525050565b6000610120830160008301516183836000860182618155565b506020830151848203602086015261839b82826181bb565b915050604083015184820360408601526183b582826181bb565b91505060608301516183ca60608601826181f4565b5060808301516183dd6080860182618155565b5060a08301516183f060a0860182618235565b5060c083015161840360c08601826181f4565b5060e083015184820360e086015261841b8282618295565b91505061010083015161843261010086018261835b565b508091505092915050565b6000618449838361836a565b905092915050565b6000602082019050919050565b60006184698261811f565b618473818561812a565b9350836020820285016184858561813b565b8060005b858110156184c157848403895281516184a2858261843d565b94506184ad83618451565b925060208a01995050600181019050618489565b50829750879550505050505092915050565b600060208201905081810360008301526184ed818461845e565b905092915050565b6184fe8161814b565b82525050565b600060208201905061851960008301846184f5565b92915050565b600082825260208201905092915050565b600061853b82618164565b618545818561851f565b9350618555818560208601618180565b61855e816181aa565b840191505092915050565b600060208201905081810360008301526185838184618530565b905092915050565b61859481618223565b811461859f57600080fd5b50565b6000813590506185b18161858b565b92915050565b6185c08161814b565b81146185cb57600080fd5b50565b6000813590506185dd816185b7565b92915050565b600080604083850312156185fa576185f961805a565b5b6000618608858286016185a2565b9250506020618619858286016185ce565b9150509250929050565b6000602082840312156186395761863861805a565b5b6000618647848285016185ce565b91505092915050565b600080604083850312156186675761866661805a565b5b6000618675858286016185ce565b9250506020618686858286016185a2565b9150509250929050565b61869981618223565b82525050565b60006020820190506186b46000830184618690565b92915050565b6000806000606084860312156186d3576186d261805a565b5b60006186e1868287016185a2565b93505060206186f2868287016185a2565b9250506040618703868287016185ce565b9150509250925092565b6000819050919050565b6187208161870d565b811461872b57600080fd5b50565b60008135905061873d81618717565b92915050565b6000602082840312156187595761875861805a565b5b60006187678482850161872e565b91505092915050565b6187798161870d565b82525050565b60006020820190506187946000830184618770565b92915050565b60006080820190506187af60008301876184f5565b6187bc60208301866184f5565b81810360408301526187ce8185618530565b90506187dd60608301846180f5565b95945050505050565b6187ef81618349565b82525050565b60006101008201905061880b600083018b6184f5565b818103602083015261881d818a618530565b905081810360408301526188318189618530565b905061884060608301886180f5565b61884d60808301876184f5565b61885a60a0830186618690565b61886760c08301856180f5565b61887460e08301846187e6565b9998505050505050505050565b600060c08201905061889660008301896184f5565b6188a360208301886184f5565b81810360408301526188b58187618530565b905081810360608301526188c98186618530565b90506188d860808301856184f5565b6188e560a08301846180f5565b979650505050505050565b600080604083850312156189075761890661805a565b5b60006189158582860161872e565b9250506020618926858286016185a2565b9150509250929050565b600060ff82169050919050565b61894681618930565b82525050565b6000602082019050618961600083018461893d565b92915050565b600060608201905061897c60008301866184f5565b61898960208301856184f5565b818103604083015261899b8184618530565b9050949350505050565b600081519050919050565b600082825260208201905092915050565b6000819050602082019050919050565b60006189dd8383618155565b60208301905092915050565b6000602082019050919050565b6000618a01826189a5565b618a0b81856189b0565b9350618a16836189c1565b8060005b83811015618a47578151618a2e88826189d1565b9750618a39836189e9565b925050600181019050618a1a565b5085935050505092915050565b60006040820190508181036000830152618a6e81856189f6565b9050618a7d60208301846184f5565b9392505050565b600080600060608486031215618a9d57618a9c61805a565b5b6000618aab868287016185a2565b9350506020618abc868287016185ce565b9250506040618acd868287016185ce565b9150509250925092565b600060208284031215618aed57618aec61805a565b5b6000618afb848285016185a2565b91505092915050565b600081519050919050565b600082825260208201905092915050565b6000618b2b82618b04565b618b358185618b0f565b9350618b45818560208601618180565b618b4e816181aa565b840191505092915050565b600060c082019050618b6e60008301896184f5565b618b7b6020830188618690565b618b886040830187618690565b8181036060830152618b9a8186618b20565b9050618ba960808301856184f5565b618bb660a08301846180f5565b979650505050505050565b600081519050919050565b600082825260208201905092915050565b6000819050602082019050919050565b600081519050919050565b600082825260208201905092915050565b6000819050602082019050919050565b60006040830160008301518482036000860152618c3682826181bb565b9150506020830151618c4b60208601826181f4565b508091505092915050565b6000618c628383618c19565b905092915050565b6000602082019050919050565b6000618c8282618bed565b618c8c8185618bf8565b935083602082028501618c9e85618c09565b8060005b85811015618cda5784840389528151618cbb8582618c56565b9450618cc683618c6a565b925060208a01995050600181019050618ca2565b50829750879550505050505092915050565b6000608083016000830151618d046000860182618155565b506020830151618d176020860182618155565b5060408301518482036040860152618d2f82826181bb565b91505060608301518482036060860152618d498282618c77565b9150508091505092915050565b6000618d628383618cec565b905092915050565b6000602082019050919050565b6000618d8282618bc1565b618d8c8185618bcc565b935083602082028501618d9e85618bdd565b8060005b85811015618dda5784840389528151618dbb8582618d56565b9450618dc683618d6a565b925060208a01995050600181019050618da2565b50829750879550505050505092915050565b60006020820190508181036000830152618e068184618d77565b905092915050565b60008060408385031215618e2557618e2461805a565b5b6000618e33858286016185ce565b9250506020618e44858286016185ce565b9150509250929050565b600060a082019050618e6360008301886184f5565b618e7060208301876184f5565b8181036040830152618e828186618530565b9050618e9160608301856184f5565b618e9e60808301846180f5565b9695505050505050565b60008060008060008060008060008060006101608c8e031215618ece57618ecd61805a565b5b6000618edc8e828f016185ce565b9b50506020618eed8e828f016185ce565b9a50506040618efe8e828f016185ce565b9950506060618f0f8e828f016185ce565b9850506080618f208e828f016185ce565b97505060a0618f318e828f016185ce565b96505060c0618f428e828f016185ce565b95505060e0618f538e828f016185ce565b945050610100618f658e828f016185ce565b935050610120618f778e828f016185ce565b925050610140618f898e828f016185ce565b9150509295989b509295989b9093969950565b600080fd5b600080fd5b7f4e487b7100000000000000000000000000000000000000000000000000000000600052604160045260246000fd5b618fde826181aa565b810181811067ffffffffffffffff82111715618ffd57618ffc618fa6565b5b80604052505050565b6000619010618050565b905061901c8282618fd5565b919050565b600067ffffffffffffffff82111561903c5761903b618fa6565b5b619045826181aa565b9050602081019050919050565b82818337600083830152505050565b600061907461906f84619021565b619006565b9050828152602081018484840111156190905761908f618fa1565b5b61909b848285619052565b509392505050565b600082601f8301126190b8576190b7618f9c565b5b81356190c8848260208601619061565b91505092915050565b600080604083850312156190e8576190e761805a565b5b60006190f6858286016185ce565b925050602083013567ffffffffffffffff8111156191175761911661805f565b5b619123858286016190a3565b9150509250929050565b600081519050919050565b600082825260208201905092915050565b6000819050602082019050919050565b600082825260208201905092915050565b600061917582618bc1565b61917f8185619159565b93508360208202850161919185618bdd565b8060005b858110156191cd57848403895281516191ae8582618d56565b94506191b983618d6a565b925060208a01995050600181019050619195565b50829750879550505050505092915050565b600060a0830160008301516191f76000860182618155565b50602083015161920a6020860182618155565b506040830151848203604086015261922282826181bb565b9150506060830151848203606086015261923c828261916a565b915050608083015161925160808601826181f4565b508091505092915050565b600061926883836191df565b905092915050565b6000602082019050919050565b60006192888261912d565b6192928185619138565b9350836020820285016192a485619149565b8060005b858110156192e057848403895281516192c1858261925c565b94506192cc83619270565b925060208a019950506001810190506192a8565b50829750879550505050505092915050565b6000602082019050818103600083015261930c818461927d565b905092915050565b60008060006060848603121561932d5761932c61805a565b5b600061933b868287016185ce565b935050602084013567ffffffffffffffff81111561935c5761935b61805f565b5b619368868287016190a3565b925050604084013567ffffffffffffffff8111156193895761938861805f565b5b619395868287016190a3565b9150509250925092565b600381106193ac57600080fd5b50565b6000813590506193be8161939f565b92915050565b6000806000606084860312156193dd576193dc61805a565b5b600084013567ffffffffffffffff8111156193fb576193fa61805f565b5b619407868287016190a3565b935050602084013567ffffffffffffffff8111156194285761942761805f565b5b619434868287016190a3565b9250506040619445868287016193af565b9150509250925092565b600081519050919050565b600082825260208201905092915050565b6000819050602082019050919050565b600060a0830160008301516194936000860182618155565b5060208301516194a66020860182618155565b50604083015184820360408601526194be82826181bb565b91505060608301516194d36060860182618155565b5060808301516194e660808601826181f4565b508091505092915050565b60006194fd838361947b565b905092915050565b6000602082019050919050565b600061951d8261944f565b619527818561945a565b9350836020820285016195398561946b565b8060005b85811015619575578484038952815161955685826194f1565b945061956183619505565b925060208a0199505060018101905061953d565b50829750879550505050505092915050565b600060208201905081810360008301526195a18184619512565b905092915050565b600081519050919050565b600082825260208201905092915050565b6000819050602082019050919050565b6000600a9050919050565b600081905092915050565b6000819050919050565b60038110619606576196056182f3565b5b50565b6000819050619617826195f5565b919050565b600061962782619609565b9050919050565b6196378161961c565b82525050565b6000606083016000830151619655600086018261962e565b506020830151848203602086015261966d82826181bb565b9150506040830151848203604086015261968782826181bb565b9150508091505092915050565b60006196a0838361963d565b905092915050565b6000602082019050919050565b60006196c0826195d5565b6196ca81856195e0565b9350836020820285016196dc856195eb565b8060005b8581101561971857848403895281516196f98582619694565b9450619704836196a8565b925060208a019950506001810190506196e0565b50829750879550505050505092915050565b600060e0830160008301516197426000860182618155565b5060208301516197556020860182618155565b506040830151848203604086015261976d82826181bb565b9150506060830151848203606086015261978782826181bb565b915050608083015184820360808601526197a182826196b5565b91505060a08301516197b660a0860182618155565b5060c08301516197c960c08601826181f4565b508091505092915050565b60006197e0838361972a565b905092915050565b6000602082019050919050565b6000619800826195a9565b61980a81856195b4565b93508360208202850161981c856195c5565b8060005b85811015619858578484038952815161983985826197d4565b9450619844836197e8565b925060208a01995050600181019050619820565b50829750879550505050505092915050565b6000602082019050818103600083015261988481846197f5565b905092915050565b600060a0830160008301516198a46000860182618155565b5060208301516198b76020860182618155565b50604083015184820360408601526198cf82826181bb565b915050606083015184820360608601526198e9828261916a565b91505060808301516198fe60808601826181f4565b508091505092915050565b60006020820190508181036000830152619923818461988c565b905092915050565b6003811061993857600080fd5b50565b60008135905061994a8161992b565b92915050565b600080fd5b600080fd5b60008083601f8401126199705761996f618f9c565b5b8235905067ffffffffffffffff81111561998d5761998c619950565b5b6020830191508360208202830111156199a9576199a8619955565b5b9250929050565b600080600080606085870312156199ca576199c961805a565b5b60006199d8878288016185ce565b94505060206199e98782880161993b565b935050604085013567ffffffffffffffff811115619a0a57619a0961805f565b5b619a168782880161995a565b925092505092959194509250565b600061016082019050619a3a600083018e6184f5565b619a47602083018d6184f5565b619a54604083018c6184f5565b619a61606083018b6184f5565b619a6e608083018a6184f5565b619a7b60a08301896184f5565b619a8860c08301886184f5565b619a9560e08301876184f5565b619aa36101008301866184f5565b619ab16101208301856184f5565b619abf6101408301846180f5565b9c9b505050505050505050505050565b600082825260208201905092915050565b6000619aeb82618244565b619af58185619acf565b9350619b0083618260565b8060005b83811015619b31578151619b188882618270565b9750619b2383618288565b925050600181019050619b04565b5085935050505092915050565b60006020820190508181036000830152619b588184619ae0565b905092915050565b600080600060608486031215619b7957619b7861805a565b5b6000619b87868287016185ce565b9350506020619b98868287016185ce565b9250506040619ba9868287016185ce565b9150509250925092565b600067ffffffffffffffff821115619bce57619bcd618fa6565b5b602082029050602081019050919050565b6000619bf2619bed84619bb3565b619006565b90508083825260208201905060208402830185811115619c1557619c14619955565b5b835b81811015619c5c57803567ffffffffffffffff811115619c3a57619c39618f9c565b5b808601619c4789826190a3565b85526020850194505050602081019050619c17565b5050509392505050565b600082601f830112619c7b57619c7a618f9c565b5b8135619c8b848260208601619bdf565b91505092915050565b600067ffffffffffffffff821115619caf57619cae618fa6565b5b602082029050602081019050919050565b6000619cd3619cce84619c94565b619006565b90508083825260208201905060208402830185811115619cf657619cf5619955565b5b835b81811015619d1f5780619d0b88826185ce565b845260208401935050602081019050619cf8565b5050509392505050565b600082601f830112619d3e57619d3d618f9c565b5b8135619d4e848260208601619cc0565b91505092915050565b600080600060608486031215619d7057619d6f61805a565b5b6000619d7e868287016185ce565b935050602084013567ffffffffffffffff811115619d9f57619d9e61805f565b5b619dab86828701619c66565b925050604084013567ffffffffffffffff811115619dcc57619dcb61805f565b5b619dd886828701619d29565b9150509250925092565b619deb81618930565b8114619df657600080fd5b50565b600081359050619e0881619de2565b92915050565b60008060008060808587031215619e2857619e2761805a565b5b6000619e36878288016185ce565b945050602085013567ffffffffffffffff811115619e5757619e5661805f565b5b619e63878288016190a3565b935050604085013567ffffffffffffffff811115619e8457619e8361805f565b5b619e9087828801619c66565b9250506060619ea187828801619df9565b91505092959194509250565b60008060408385031215619ec457619ec361805a565b5b6000619ed2858286016185a2565b9250506020619ee3858286016185a2565b9150509250929050565b619ef68161961c565b82525050565b6000606082019050619f116000830186619eed565b8181036020830152619f238185618530565b90508181036040830152619f378184618530565b9050949350505050565b7f4e487b7100000000000000000000000000000000000000000000000000000000600052603260045260246000fd5b7f4e487b7100000000000000000000000000000000000000000000000000000000600052602260045260246000fd5b60006002820490506001821680619fb757607f821691505b602082108103619fca57619fc9619f70565b5b50919050565b7f4e6f7420656e726f6c6c65642100000000000000000000000000000000000000600082015250565b600061a006600d8361851f565b915061a01182619fd0565b602082019050919050565b6000602082019050818103600083015261a03581619ff9565b9050919050565b7f4e487b7100000000000000000000000000000000000000000000000000000000600052601160045260246000fd5b600061a0768261814b565b915061a0818361814b565b925082820261a08f8161814b565b9150828204841483151761a0a65761a0a561a03c565b5b5092915050565b7f4e487b7100000000000000000000000000000000000000000000000000000000600052601260045260246000fd5b600061a0e78261814b565b915061a0f28361814b565b92508261a1025761a10161a0ad565b5b828204905092915050565b7f5175697a20646f6573206e6f7420657869737400000000000000000000000000600082015250565b600061a14360138361851f565b915061a14e8261a10d565b602082019050919050565b6000602082019050818103600083015261a1728161a136565b9050919050565b7f4e6f742073656c6563746564206173206120726576696577657220666f72207460008201527f68697320636f7572736500000000000000000000000000000000000000000000602082015250565b600061a1d5602a8361851f565b915061a1e08261a179565b604082019050919050565b6000602082019050818103600083015261a2048161a1c8565b9050919050565b7f52657669657720616c7265616479207375626d6974746564206279207468697360008201527f2072657669657765722e00000000000000000000000000000000000000000000602082015250565b600061a267602a8361851f565b915061a2728261a20b565b604082019050919050565b6000602082019050818103600083015261a2968161a25a565b9050919050565b7f4c6573736f6e20446f6573206e6f742065786973742100000000000000000000600082015250565b600061a2d360168361851f565b915061a2de8261a29d565b602082019050919050565b6000602082019050818103600083015261a3028161a2c6565b9050919050565b60008190508160005260206000209050919050565b60006020601f8301049050919050565b600082821b905092915050565b60006008830261a36b7fffffffffffffffffffffffffffffffffffffffffffffffffffffffffffffffff8261a32e565b61a375868361a32e565b95508019841693508086168417925050509392505050565b6000819050919050565b600061a3b261a3ad61a3a88461814b565b61a38d565b61814b565b9050919050565b6000819050919050565b61a3cc8361a397565b61a3e061a3d88261a3b9565b84845461a33b565b825550505050565b600090565b61a3f561a3e8565b61a40081848461a3c3565b505050565b5b8181101561a4245761a41960008261a3ed565b60018101905061a406565b5050565b601f82111561a4695761a43a8161a309565b61a4438461a31e565b8101602085101561a452578190505b61a46661a45e8561a31e565b83018261a405565b50505b505050565b600082821c905092915050565b600061a48c6000198460080261a46e565b1980831691505092915050565b600061a4a5838361a47b565b9150826002028217905092915050565b61a4be82618164565b67ffffffffffffffff81111561a4d75761a4d6618fa6565b5b61a4e18254619f9f565b61a4ec82828561a428565b600060209050601f83116001811461a51f576000841561a50d578287015190505b61a517858261a499565b86555061a57f565b601f19841661a52d8661a309565b60005b8281101561a5555784890151825560018201915060208501945060208101905061a530565b8683101561a572578489015161a56e601f89168261a47b565b8355505b6001600288020188555050505b505050505050565b600061a5928261814b565b91507fffffffffffffffffffffffffffffffffffffffffffffffffffffffffffffffff820361a5c45761a5c361a03c565b5b600182019050919050565b60008154905061a5de81619f9f565b9050919050565b81810361a5f357505061a6cb565b61a5fc8261a5cf565b67ffffffffffffffff81111561a6155761a614618fa6565b5b61a61f8254619f9f565b61a62a82828561a428565b6000601f83116001811461a659576000841561a647578287015490505b61a651858261a499565b86555061a6c4565b601f19841661a6678761a309565b965061a6728661a309565b60005b8281101561a69a5784890154825560018201915060018501945060208101905061a675565b8683101561a6b7578489015461a6b3601f89168261a47b565b8355505b6001600288020188555050505b5050505050505b565b600081905092915050565b600061a6e382618164565b61a6ed818561a6cd565b935061a6fd818560208601618180565b80840191505092915050565b600061a715828461a6d8565b915081905092915050565b7f416c726561647920696e20726576696577657220706f6f6c0000000000000000600082015250565b600061a75660188361851f565b915061a7618261a720565b602082019050919050565b6000602082019050818103600083015261a7858161a749565b9050919050565b7f436f7572736520616c726561647920617070726f766564000000000000000000600082015250565b600061a7c260178361851f565b915061a7cd8261a78c565b602082019050919050565b6000602082019050818103600083015261a7f18161a7b5565b9050919050565b7f596f75206861766520616c726561647920617070726f7665642074686973206360008201527f6f75727365000000000000000000000000000000000000000000000000000000602082015250565b600061a85460258361851f565b915061a85f8261a7f8565b604082019050919050565b6000602082019050818103600083015261a8838161a847565b9050919050565b7f4368617074657220646f6573206e6f7420657869737421000000000000000000600082015250565b600061a8c060178361851f565b915061a8cb8261a88a565b602082019050919050565b6000602082019050818103600083015261a8ef8161a8b3565b9050919050565b7f436f7572736520616c7265616479206578697374730000000000000000000000600082015250565b600061a92c60158361851f565b915061a9378261a8f6565b602082019050919050565b6000602082019050818103600083015261a95b8161a91f565b9050919050565b600061a96d8261814b565b915061a9788361814b565b925082820190508082111561a9905761a98f61a03c565b5b92915050565b600061a9a18261814b565b915061a9ac8361814b565b925082820390508181111561a9c45761a9c361a03c565b5b92915050565b7f52657669657765727320616c72656164792073656c6563746564000000000000600082015250565b600061aa00601a8361851f565b915061aa0b8261a9ca565b602082019050919050565b6000602082019050818103600083015261aa2f8161a9f3565b9050919050565b7f4e6f7420656e6f7567682072657669657765727320696e2074686520706f6f6c600082015250565b600061aa6c60208361851f565b915061aa778261aa36565b602082019050919050565b6000602082019050818103600083015261aa9b8161aa5f565b9050919050565b6000819050919050565b61aabd61aab88261814b565b61aaa2565b82525050565b600061aacf828761aaac565b60208201915061aadf828661aaac565b60208201915061aaef828561aaac565b60208201915061aaff828461aaac565b60208201915081905095945050505050565b600061ab1c8261814b565b915061ab278361814b565b92508261ab375761ab3661a0ad565b5b828206905092915050565b600081549050919050565b60008190508160005260206000209050919050565b60008160001c9050919050565b600073ffffffffffffffffffffffffffffffffffffffff82169050919050565b600061aba261ab9d8361ab62565b61ab6f565b9050919050565b600061abb5825461ab8f565b9050919050565b6000600182019050919050565b600061abd48261ab42565b61abde8185619acf565b935061abe98361ab4d565b8060005b8381101561ac215761abfe8261aba9565b61ac088882618270565b975061ac138361abbc565b92505060018101905061abed565b5085935050505092915050565b6000602082019050818103600083015261ac48818461abc9565b905092915050565b7f4c6573736f6e20646f6573206e6f742065786973742100000000000000000000600082015250565b600061ac8660168361851f565b915061ac918261ac50565b602082019050919050565b6000602082019050818103600083015261acb58161ac79565b9050919050565b7f45786365656473206d6178696d756d207265736f757263657321000000000000600082015250565b600061acf2601a8361851f565b915061acfd8261acbc565b602082019050919050565b6000602082019050818103600083015261ad218161ace5565b9050919050565b600080fd5b600080fd5b600080fd5b60008235600160600383360303811261ad535761ad5261ad28565b5b80830191505092915050565b60006020828403121561ad755761ad7461805a565b5b600061ad838482850161993b565b91505092915050565b6000808335600160200384360303811261ada95761ada861ad28565b5b80840192508235915067ffffffffffffffff82111561adcb5761adca61ad2d565b5b60208301925060018202360383131561ade75761ade661ad32565b5b509250929050565b7f50726f706f73616c20616c726561647920657865637574656400000000000000600082015250565b600061ae2560198361851f565b915061ae308261adef565b602082019050919050565b6000602082019050818103600083015261ae548161ae18565b9050919050565b7f416c726561647920617070726f76656400000000000000000000000000000000600082015250565b600061ae9160108361851f565b915061ae9c8261ae5b565b602082019050919050565b6000602082019050818103600083015261aec08161ae84565b9050919050565b600081905092915050565b60008190508160005260206000209050919050565b6000815461aef481619f9f565b61aefe818661aec7565b9450600182166000811461af19576001811461af2e5761af61565b60ff198316865281151582028601935061af61565b61af378561aed2565b60005b8381101561af595781548189015260018201915060208101905061af3a565b838801955050505b50505092915050565b600061af76828461aee7565b915081905092915050565b7f50726f706f73616c20657865637574696f6e206661696c656400000000000000600082015250565b600061afb760198361851f565b915061afc28261af81565b602082019050919050565b6000602082019050818103600083015261afe68161afaa565b9050919050565b7f4e6f7420696e20726576696577657220706f6f6c000000000000000000000000600082015250565b600061b02360148361851f565b915061b02e8261afed565b602082019050919050565b6000602082019050818103600083015261b0528161b016565b9050919050565b7f4e487b7100000000000000000000000000000000000000000000000000000000600052603160045260246000fd5b7f416c7265616479206d61726b6564000000000000000000000000000000000000600082015250565b600061b0be600e8361851f565b915061b0c98261b088565b602082019050919050565b6000602082019050818103600083015261b0ed8161b0b1565b9050919050565b7f4c6573736f6e20646f65736e2774206578697374000000000000000000000000600082015250565b600061b12a60148361851f565b915061b1358261b0f4565b602082019050919050565b6000602082019050818103600083015261b1598161b11d565b9050919050565b7f436f7572736520646f6573206e6f742065786973742100000000000000000000600082015250565b600061b19660168361851f565b915061b1a18261b160565b602082019050919050565b6000602082019050818103600083015261b1c58161b189565b9050919050565b7f496e76616c6964206e756d626572206f662063686f6963657300000000000000600082015250565b600061b20260198361851f565b915061b20d8261b1cc565b602082019050919050565b6000602082019050818103600083015261b2318161b1f5565b9050919050565b7f496e76616c696420636f72726563742063686f69636520696e64657800000000600082015250565b600061b26e601c8361851f565b915061b2798261b238565b602082019050919050565b6000602082019050818103600083015261b29d8161b261565b9050919050565b600061b2af82618930565b915060ff820361b2c25761b2c161a03c565b5b600182019050919050565b7f436f75727365206e6f742079657420617070726f766564210000000000000000600082015250565b600061b30360188361851f565b915061b30e8261b2cd565b602082019050919050565b6000602082019050818103600083015261b3328161b2f6565b9050919050565b7f416c726561647920656e726f6c6c656400000000000000000000000000000000600082015250565b600061b36f60108361851f565b915061b37a8261b339565b602082019050919050565b6000602082019050818103600083015261b39e8161b362565b9050919050565b600060608201905061b3ba6000830186618690565b61b3c760208301856184f5565b61b3d460408301846184f5565b949350505050565b7f53636f726573206d757374206265206265747765656e203120616e642031302e600082015250565b600061b41260208361851f565b915061b41d8261b3dc565b602082019050919050565b6000602082019050818103600083015261b4418161b405565b9050919050565b7f4c696d6974204578636565646564210000000000000000000000000000000000600082015250565b600061b47e600f8361851f565b915061b4898261b448565b602082019050919050565b6000602082019050818103600083015261b4ad8161b471565b9050919050565b7f496e73756666696369656e742062616c616e6365000000000000000000000000600082015250565b600061b4ea60148361851f565b915061b4f58261b4b4565b602082019050919050565b6000602082019050818103600083015261b5198161b4dd565b9050919050565b600060408201905061b5356000830185618690565b61b5426020830184618770565b939250505056fea2646970667358221220fd28840915558925090d35d07a7be87f994d2822670e347ede6f2153050723de64736f6c634300081b0033",
  "linkReferences": {},
  "deployedLinkReferences": {}
}