{
  "_format": "hh-sol-artifact-1",
  "contractName": "Ecosystem2",
  "sourceName": "contracts/Ecosystem Contracts/Ecosystem2.sol",
  "abi": [
    {
      "inputs": [
        {
          "internalType": "address[]",
          "name": "_reviewers",
          "type": "address[]"
        }
      ],
      "stateMutability": "nonpayable",
      "type": "constructor"
    },
    {
      "inputs": [],
      "name": "AccessControlBadConfirmation",
      "type": "error"
    },
    {
      "inputs": [
        {
          "internalType": "address",
          "name": "account",
          "type": "address"
        },
        {
          "internalType": "bytes32",
          "name": "neededRole",
          "type": "bytes32"
        }
      ],
      "name": "AccessControlUnauthorizedAccount",
      "type": "error"
    },
    {
      "inputs": [
        {
          "internalType": "address",
          "name": "spender",
          "type": "address"
        },
        {
          "internalType": "uint256",
          "name": "allowance",
          "type": "uint256"
        },
        {
          "internalType": "uint256",
          "name": "needed",
          "type": "uint256"
        }
      ],
      "name": "ERC20InsufficientAllowance",
      "type": "error"
    },
    {
      "inputs": [
        {
          "internalType": "address",
          "name": "sender",
          "type": "address"
        },
        {
          "internalType": "uint256",
          "name": "balance",
          "type": "uint256"
        },
        {
          "internalType": "uint256",
          "name": "needed",
          "type": "uint256"
        }
      ],
      "name": "ERC20InsufficientBalance",
      "type": "error"
    },
    {
      "inputs": [
        {
          "internalType": "address",
          "name": "approver",
          "type": "address"
        }
      ],
      "name": "ERC20InvalidApprover",
      "type": "error"
    },
    {
      "inputs": [
        {
          "internalType": "address",
          "name": "receiver",
          "type": "address"
        }
      ],
      "name": "ERC20InvalidReceiver",
      "type": "error"
    },
    {
      "inputs": [
        {
          "internalType": "address",
          "name": "sender",
          "type": "address"
        }
      ],
      "name": "ERC20InvalidSender",
      "type": "error"
    },
    {
      "inputs": [
        {
          "internalType": "address",
          "name": "spender",
          "type": "address"
        }
      ],
      "name": "ERC20InvalidSpender",
      "type": "error"
    },
    {
      "inputs": [],
      "name": "ReentrancyGuardReentrantCall",
      "type": "error"
    },
    {
      "anonymous": false,
      "inputs": [
        {
          "indexed": true,
          "internalType": "address",
          "name": "owner",
          "type": "address"
        },
        {
          "indexed": true,
          "internalType": "address",
          "name": "spender",
          "type": "address"
        },
        {
          "indexed": false,
          "internalType": "uint256",
          "name": "value",
          "type": "uint256"
        }
      ],
      "name": "Approval",
      "type": "event"
    },
    {
      "anonymous": false,
      "inputs": [
        {
          "indexed": true,
          "internalType": "address",
          "name": "_account",
          "type": "address"
        },
        {
          "indexed": false,
          "internalType": "uint256",
          "name": "_amount",
          "type": "uint256"
        }
      ],
      "name": "BurnSuccess",
      "type": "event"
    },
    {
      "anonymous": false,
      "inputs": [
        {
          "indexed": true,
          "internalType": "uint256",
          "name": "_courseId",
          "type": "uint256"
        },
        {
          "indexed": true,
          "internalType": "uint256",
          "name": "numberOfChapters",
          "type": "uint256"
        }
      ],
      "name": "ChaptersAddedSuccessfully",
      "type": "event"
    },
    {
      "anonymous": false,
      "inputs": [
        {
          "indexed": false,
          "internalType": "uint256",
          "name": "questionId",
          "type": "uint256"
        },
        {
          "indexed": false,
          "internalType": "uint256",
          "name": "choiceId",
          "type": "uint256"
        },
        {
          "indexed": false,
          "internalType": "string",
          "name": "option",
          "type": "string"
        }
      ],
      "name": "ChoiceAdded",
      "type": "event"
    },
    {
      "anonymous": false,
      "inputs": [
        {
          "indexed": true,
          "internalType": "uint256",
          "name": "_courseID",
          "type": "uint256"
        },
        {
          "indexed": true,
          "internalType": "string",
          "name": "_courseName",
          "type": "string"
        },
        {
          "indexed": false,
          "internalType": "bool",
          "name": "_approved",
          "type": "bool"
        }
      ],
      "name": "CourseCreationSuccess",
      "type": "event"
    },
    {
      "anonymous": false,
      "inputs": [
        {
          "indexed": true,
          "internalType": "address",
          "name": "_to",
          "type": "address"
        },
        {
          "indexed": true,
          "internalType": "uint256",
          "name": "_amount",
          "type": "uint256"
        }
      ],
      "name": "EcosystemPoolUpdate",
      "type": "event"
    },
    {
      "anonymous": false,
      "inputs": [
        {
          "indexed": true,
          "internalType": "uint256",
          "name": "_courseId",
          "type": "uint256"
        },
        {
          "indexed": true,
          "internalType": "address",
          "name": "_by",
          "type": "address"
        }
      ],
      "name": "EnrollmentSuccess",
      "type": "event"
    },
    {
      "anonymous": false,
      "inputs": [
        {
          "indexed": true,
          "internalType": "uint256",
          "name": "_lessonId",
          "type": "uint256"
        },
        {
          "indexed": true,
          "internalType": "string",
          "name": "_lessonName",
          "type": "string"
        },
        {
          "indexed": true,
          "internalType": "uint256",
          "name": "_additonalResources",
          "type": "uint256"
        }
      ],
      "name": "LessonCreationSuccess",
      "type": "event"
    },
    {
      "anonymous": false,
      "inputs": [
        {
          "indexed": true,
          "internalType": "address",
          "name": "_to",
          "type": "address"
        },
        {
          "indexed": true,
          "internalType": "uint256",
          "name": "_amount",
          "type": "uint256"
        }
      ],
      "name": "MintSuccess",
      "type": "event"
    },
    {
      "anonymous": false,
      "inputs": [
        {
          "indexed": true,
          "internalType": "uint256",
          "name": "proposalId",
          "type": "uint256"
        },
        {
          "indexed": false,
          "internalType": "address",
          "name": "approver",
          "type": "address"
        }
      ],
      "name": "MultiSigProposalApproved",
      "type": "event"
    },
    {
      "anonymous": false,
      "inputs": [
        {
          "indexed": true,
          "internalType": "uint256",
          "name": "proposalId",
          "type": "uint256"
        },
        {
          "indexed": false,
          "internalType": "address",
          "name": "proposer",
          "type": "address"
        }
      ],
      "name": "MultiSigProposalCreated",
      "type": "event"
    },
    {
      "anonymous": false,
      "inputs": [
        {
          "indexed": true,
          "internalType": "uint256",
          "name": "proposalId",
          "type": "uint256"
        }
      ],
      "name": "MultiSigProposalExecuted",
      "type": "event"
    },
    {
      "anonymous": false,
      "inputs": [
        {
          "indexed": false,
          "internalType": "uint256",
          "name": "quizId",
          "type": "uint256"
        },
        {
          "indexed": false,
          "internalType": "uint256",
          "name": "questionId",
          "type": "uint256"
        },
        {
          "indexed": false,
          "internalType": "string",
          "name": "questionText",
          "type": "string"
        }
      ],
      "name": "QuestionAdded",
      "type": "event"
    },
    {
      "anonymous": false,
      "inputs": [
        {
          "indexed": true,
          "internalType": "uint256",
          "name": "_quizId",
          "type": "uint256"
        },
        {
          "indexed": true,
          "internalType": "string",
          "name": "_title",
          "type": "string"
        }
      ],
      "name": "QuizCreatedSuccess",
      "type": "event"
    },
    {
      "anonymous": false,
      "inputs": [
        {
          "indexed": true,
          "internalType": "uint256",
          "name": "_lessonId",
          "type": "uint256"
        },
        {
          "indexed": true,
          "internalType": "uint256",
          "name": "resourceCount",
          "type": "uint256"
        }
      ],
      "name": "ResourceAddSuccess",
      "type": "event"
    },
    {
      "anonymous": false,
      "inputs": [
        {
          "indexed": true,
          "internalType": "address",
          "name": "reviewer",
          "type": "address"
        }
      ],
      "name": "ReviewerAddedToPool",
      "type": "event"
    },
    {
      "anonymous": false,
      "inputs": [
        {
          "indexed": true,
          "internalType": "address",
          "name": "reviewer",
          "type": "address"
        }
      ],
      "name": "ReviewerRemovedFromPool",
      "type": "event"
    },
    {
      "anonymous": false,
      "inputs": [
        {
          "indexed": true,
          "internalType": "uint256",
          "name": "courseId",
          "type": "uint256"
        },
        {
          "indexed": false,
          "internalType": "address[]",
          "name": "reviewers",
          "type": "address[]"
        }
      ],
      "name": "ReviewersSelected",
      "type": "event"
    },
    {
      "anonymous": false,
      "inputs": [
        {
          "indexed": true,
          "internalType": "bytes32",
          "name": "role",
          "type": "bytes32"
        },
        {
          "indexed": true,
          "internalType": "bytes32",
          "name": "previousAdminRole",
          "type": "bytes32"
        },
        {
          "indexed": true,
          "internalType": "bytes32",
          "name": "newAdminRole",
          "type": "bytes32"
        }
      ],
      "name": "RoleAdminChanged",
      "type": "event"
    },
    {
      "anonymous": false,
      "inputs": [
        {
          "indexed": true,
          "internalType": "bytes32",
          "name": "role",
          "type": "bytes32"
        },
        {
          "indexed": true,
          "internalType": "address",
          "name": "account",
          "type": "address"
        },
        {
          "indexed": true,
          "internalType": "address",
          "name": "sender",
          "type": "address"
        }
      ],
      "name": "RoleGranted",
      "type": "event"
    },
    {
      "anonymous": false,
      "inputs": [
        {
          "indexed": true,
          "internalType": "bytes32",
          "name": "role",
          "type": "bytes32"
        },
        {
          "indexed": true,
          "internalType": "address",
          "name": "account",
          "type": "address"
        },
        {
          "indexed": true,
          "internalType": "address",
          "name": "sender",
          "type": "address"
        }
      ],
      "name": "RoleRevoked",
      "type": "event"
    },
    {
      "anonymous": false,
      "inputs": [
        {
          "indexed": true,
          "internalType": "address",
          "name": "from",
          "type": "address"
        },
        {
          "indexed": true,
          "internalType": "address",
          "name": "to",
          "type": "address"
        },
        {
          "indexed": false,
          "internalType": "uint256",
          "name": "value",
          "type": "uint256"
        }
      ],
      "name": "Transfer",
      "type": "event"
    },
    {
      "anonymous": false,
      "inputs": [
        {
          "indexed": true,
          "internalType": "uint256",
          "name": "_courseId",
          "type": "uint256"
        },
        {
          "indexed": true,
          "internalType": "address",
          "name": "_by",
          "type": "address"
        }
      ],
      "name": "unEnrollmentSuccess",
      "type": "event"
    },
    {
      "inputs": [],
      "name": "COURSE_OWNER_ROLE",
      "outputs": [
        {
          "internalType": "bytes32",
          "name": "",
          "type": "bytes32"
        }
      ],
      "stateMutability": "view",
      "type": "function"
    },
    {
      "inputs": [],
      "name": "CREATE_COURSE_REWARD",
      "outputs": [
        {
          "internalType": "uint256",
          "name": "",
          "type": "uint256"
        }
      ],
      "stateMutability": "view",
      "type": "function"
    },
    {
      "inputs": [],
      "name": "DEFAULT_ADMIN_ROLE",
      "outputs": [
        {
          "internalType": "bytes32",
          "name": "",
          "type": "bytes32"
        }
      ],
      "stateMutability": "view",
      "type": "function"
    },
    {
      "inputs": [],
      "name": "ECOSYSTEM_POOL",
      "outputs": [
        {
          "internalType": "uint256",
          "name": "",
          "type": "uint256"
        }
      ],
      "stateMutability": "view",
      "type": "function"
    },
    {
      "inputs": [],
      "name": "ENROLLMENT_REWARD",
      "outputs": [
        {
          "internalType": "uint256",
          "name": "",
          "type": "uint256"
        }
      ],
      "stateMutability": "view",
      "type": "function"
    },
    {
      "inputs": [],
      "name": "MAX_SCORE",
      "outputs": [
        {
          "internalType": "uint256",
          "name": "",
          "type": "uint256"
        }
      ],
      "stateMutability": "view",
      "type": "function"
    },
    {
      "inputs": [],
      "name": "MAX_SUPPLY",
      "outputs": [
        {
          "internalType": "uint256",
          "name": "",
          "type": "uint256"
        }
      ],
      "stateMutability": "view",
      "type": "function"
    },
    {
      "inputs": [],
      "name": "MIN_APPROVAL_SCORE",
      "outputs": [
        {
          "internalType": "uint256",
          "name": "",
          "type": "uint256"
        }
      ],
      "stateMutability": "view",
      "type": "function"
    },
    {
      "inputs": [],
      "name": "MULTISIG_APPROVER",
      "outputs": [
        {
          "internalType": "bytes32",
          "name": "",
          "type": "bytes32"
        }
      ],
      "stateMutability": "view",
      "type": "function"
    },
    {
      "inputs": [],
      "name": "REQUIRED_APPROVALS",
      "outputs": [
        {
          "internalType": "uint256",
          "name": "",
          "type": "uint256"
        }
      ],
      "stateMutability": "view",
      "type": "function"
    },
    {
      "inputs": [],
      "name": "REVIEWER_ROLE",
      "outputs": [
        {
          "internalType": "bytes32",
          "name": "",
          "type": "bytes32"
        }
      ],
      "stateMutability": "view",
      "type": "function"
    },
    {
      "inputs": [
        {
          "internalType": "address",
          "name": "",
          "type": "address"
        }
      ],
      "name": "accountCourses",
      "outputs": [
        {
          "internalType": "uint256",
          "name": "courseCount",
          "type": "uint256"
        }
      ],
      "stateMutability": "view",
      "type": "function"
    },
    {
      "inputs": [
        {
          "internalType": "uint256",
          "name": "_courseId",
          "type": "uint256"
        },
        {
          "internalType": "string[]",
          "name": "_chapters",
          "type": "string[]"
        }
      ],
      "name": "addChapters",
      "outputs": [
        {
          "internalType": "bool",
          "name": "",
          "type": "bool"
        }
      ],
      "stateMutability": "nonpayable",
      "type": "function"
    },
    {
      "inputs": [
        {
          "internalType": "uint256",
          "name": "_chapterId",
          "type": "uint256"
        },
        {
          "internalType": "string",
          "name": "_lessonName",
          "type": "string"
        },
        {
          "internalType": "string",
          "name": "_lessonContent",
          "type": "string"
        }
      ],
      "name": "addLesson",
      "outputs": [],
      "stateMutability": "nonpayable",
      "type": "function"
    },
    {
      "inputs": [
        {
          "internalType": "uint256",
          "name": "_lessonId",
          "type": "uint256"
        },
        {
          "components": [
            {
              "internalType": "string",
              "name": "contentType",
              "type": "string"
            },
            {
              "internalType": "string",
              "name": "url",
              "type": "string"
            },
            {
              "internalType": "string",
              "name": "description",
              "type": "string"
            }
          ],
          "internalType": "struct Ecosystem.Resource[]",
          "name": "_resources",
          "type": "tuple[]"
        }
      ],
      "name": "addResourcesToLesson",
      "outputs": [],
      "stateMutability": "nonpayable",
      "type": "function"
    },
    {
      "inputs": [
        {
          "internalType": "address",
          "name": "newReviewer",
          "type": "address"
        }
      ],
      "name": "addReviewer",
      "outputs": [],
      "stateMutability": "nonpayable",
      "type": "function"
    },
    {
      "inputs": [
        {
          "internalType": "address",
          "name": "owner",
          "type": "address"
        },
        {
          "internalType": "address",
          "name": "spender",
          "type": "address"
        }
      ],
      "name": "allowance",
      "outputs": [
        {
          "internalType": "uint256",
          "name": "",
          "type": "uint256"
        }
      ],
      "stateMutability": "view",
      "type": "function"
    },
    {
      "inputs": [
        {
          "internalType": "address",
          "name": "",
          "type": "address"
        },
        {
          "internalType": "uint256",
          "name": "",
          "type": "uint256"
        }
      ],
      "name": "approvals",
      "outputs": [
        {
          "internalType": "bool",
          "name": "",
          "type": "bool"
        }
      ],
      "stateMutability": "view",
      "type": "function"
    },
    {
      "inputs": [
        {
          "internalType": "address",
          "name": "spender",
          "type": "address"
        },
        {
          "internalType": "uint256",
          "name": "value",
          "type": "uint256"
        }
      ],
      "name": "approve",
      "outputs": [
        {
          "internalType": "bool",
          "name": "",
          "type": "bool"
        }
      ],
      "stateMutability": "nonpayable",
      "type": "function"
    },
    {
      "inputs": [
        {
          "internalType": "uint256",
          "name": "_courseId",
          "type": "uint256"
        }
      ],
      "name": "approveCourse",
      "outputs": [],
      "stateMutability": "nonpayable",
      "type": "function"
    },
    {
      "inputs": [
        {
          "internalType": "uint256",
          "name": "_proposalId",
          "type": "uint256"
        }
      ],
      "name": "approveMultiSigProposal",
      "outputs": [],
      "stateMutability": "nonpayable",
      "type": "function"
    },
    {
      "inputs": [
        {
          "internalType": "address",
          "name": "account",
          "type": "address"
        }
      ],
      "name": "balanceOf",
      "outputs": [
        {
          "internalType": "uint256",
          "name": "",
          "type": "uint256"
        }
      ],
      "stateMutability": "view",
      "type": "function"
    },
    {
      "inputs": [
        {
          "internalType": "uint256",
          "name": "",
          "type": "uint256"
        }
      ],
      "name": "chapter",
      "outputs": [
        {
          "internalType": "uint256",
          "name": "chapterId",
          "type": "uint256"
        },
        {
          "internalType": "string",
          "name": "chapterName",
          "type": "string"
        },
        {
          "internalType": "bool",
          "name": "exists",
          "type": "bool"
        }
      ],
      "stateMutability": "view",
      "type": "function"
    },
    {
      "inputs": [
        {
          "internalType": "uint256",
          "name": "",
          "type": "uint256"
        },
        {
          "internalType": "uint256",
          "name": "",
          "type": "uint256"
        }
      ],
      "name": "chapterLessons",
      "outputs": [
        {
          "internalType": "string",
          "name": "",
          "type": "string"
        }
      ],
      "stateMutability": "view",
      "type": "function"
    },
    {
      "inputs": [
        {
          "internalType": "uint256",
          "name": "",
          "type": "uint256"
        },
        {
          "internalType": "uint256",
          "name": "",
          "type": "uint256"
        }
      ],
      "name": "courseChapters",
      "outputs": [
        {
          "internalType": "uint256",
          "name": "chapterId",
          "type": "uint256"
        },
        {
          "internalType": "string",
          "name": "chapterName",
          "type": "string"
        },
        {
          "internalType": "bool",
          "name": "exists",
          "type": "bool"
        }
      ],
      "stateMutability": "view",
      "type": "function"
    },
    {
      "inputs": [],
      "name": "courseCount",
      "outputs": [
        {
          "internalType": "uint256",
          "name": "",
          "type": "uint256"
        }
      ],
      "stateMutability": "view",
      "type": "function"
    },
    {
      "inputs": [
        {
          "internalType": "uint256",
          "name": "",
          "type": "uint256"
        }
      ],
      "name": "courseObject",
      "outputs": [
        {
          "internalType": "uint256",
          "name": "courseId",
          "type": "uint256"
        },
        {
          "internalType": "string",
          "name": "courseName",
          "type": "string"
        },
        {
          "internalType": "string",
          "name": "description",
          "type": "string"
        },
        {
          "internalType": "bool",
          "name": "approved",
          "type": "bool"
        },
        {
          "internalType": "uint256",
          "name": "approvalCount",
          "type": "uint256"
        },
        {
          "internalType": "address",
          "name": "creator",
          "type": "address"
        }
      ],
      "stateMutability": "view",
      "type": "function"
    },
    {
      "inputs": [
        {
          "internalType": "uint256",
          "name": "",
          "type": "uint256"
        }
      ],
      "name": "courseReviewInitiated",
      "outputs": [
        {
          "internalType": "bool",
          "name": "",
          "type": "bool"
        }
      ],
      "stateMutability": "view",
      "type": "function"
    },
    {
      "inputs": [
        {
          "internalType": "uint256",
          "name": "",
          "type": "uint256"
        },
        {
          "internalType": "uint256",
          "name": "",
          "type": "uint256"
        }
      ],
      "name": "courseReviewers",
      "outputs": [
        {
          "internalType": "address",
          "name": "",
          "type": "address"
        }
      ],
      "stateMutability": "view",
      "type": "function"
    },
    {
      "inputs": [
        {
          "internalType": "string",
          "name": "_courseName",
          "type": "string"
        },
        {
          "internalType": "string",
          "name": "_description",
          "type": "string"
        }
      ],
      "name": "createCourse",
      "outputs": [
        {
          "internalType": "bool",
          "name": "",
          "type": "bool"
        }
      ],
      "stateMutability": "nonpayable",
      "type": "function"
    },
    {
      "inputs": [
        {
          "internalType": "uint256",
          "name": "_quizId",
          "type": "uint256"
        },
        {
          "internalType": "string",
          "name": "_questionText",
          "type": "string"
        },
        {
          "internalType": "string[]",
          "name": "_options",
          "type": "string[]"
        },
        {
          "internalType": "uint8",
          "name": "_correctChoiceIndex",
          "type": "uint8"
        }
      ],
      "name": "createQuestionWithChoices",
      "outputs": [],
      "stateMutability": "nonpayable",
      "type": "function"
    },
    {
      "inputs": [
        {
          "internalType": "uint256",
          "name": "_lessonId",
          "type": "uint256"
        },
        {
          "internalType": "string",
          "name": "_title",
          "type": "string"
        }
      ],
      "name": "createQuiz",
      "outputs": [
        {
          "internalType": "uint256",
          "name": "",
          "type": "uint256"
        }
      ],
      "stateMutability": "nonpayable",
      "type": "function"
    },
    {
      "inputs": [],
      "name": "decimals",
      "outputs": [
        {
          "internalType": "uint8",
          "name": "",
          "type": "uint8"
        }
      ],
      "stateMutability": "view",
      "type": "function"
    },
    {
      "inputs": [],
      "name": "ecosystemPoolSupply",
      "outputs": [
        {
          "internalType": "uint256",
          "name": "",
          "type": "uint256"
        }
      ],
      "stateMutability": "view",
      "type": "function"
    },
    {
      "inputs": [
        {
          "internalType": "uint256",
          "name": "_courseId",
          "type": "uint256"
        }
      ],
      "name": "enroll",
      "outputs": [
        {
          "internalType": "bool",
          "name": "",
          "type": "bool"
        }
      ],
      "stateMutability": "nonpayable",
      "type": "function"
    },
    {
      "inputs": [],
      "name": "getAllCourses",
      "outputs": [
        {
          "components": [
            {
              "internalType": "uint256",
              "name": "courseId",
              "type": "uint256"
            },
            {
              "internalType": "string",
              "name": "courseName",
              "type": "string"
            },
            {
              "internalType": "string",
              "name": "description",
              "type": "string"
            },
            {
              "internalType": "bool",
              "name": "approved",
              "type": "bool"
            },
            {
              "internalType": "uint256",
              "name": "approvalCount",
              "type": "uint256"
            },
            {
              "internalType": "address",
              "name": "creator",
              "type": "address"
            }
          ],
          "internalType": "struct Ecosystem.Course[]",
          "name": "",
          "type": "tuple[]"
        }
      ],
      "stateMutability": "view",
      "type": "function"
    },
    {
      "inputs": [],
      "name": "getAllLessons",
      "outputs": [
        {
          "components": [
            {
              "internalType": "uint256",
              "name": "lessonId",
              "type": "uint256"
            },
            {
              "internalType": "string",
              "name": "lessonName",
              "type": "string"
            },
            {
              "internalType": "string",
              "name": "lessonContent",
              "type": "string"
            },
            {
              "components": [
                {
                  "internalType": "string",
                  "name": "contentType",
                  "type": "string"
                },
                {
                  "internalType": "string",
                  "name": "url",
                  "type": "string"
                },
                {
                  "internalType": "string",
                  "name": "description",
                  "type": "string"
                }
              ],
              "internalType": "struct Ecosystem.Resource[10]",
              "name": "additionalResources",
              "type": "tuple[10]"
            },
            {
              "internalType": "uint256",
              "name": "resourceCount",
              "type": "uint256"
            },
            {
              "internalType": "bool",
              "name": "exists",
              "type": "bool"
            }
          ],
          "internalType": "struct Ecosystem.Lesson[]",
          "name": "",
          "type": "tuple[]"
        }
      ],
      "stateMutability": "view",
      "type": "function"
    },
    {
      "inputs": [],
      "name": "getAllQuizzes",
      "outputs": [
        {
          "components": [
            {
              "internalType": "uint256",
              "name": "quizId",
              "type": "uint256"
            },
            {
              "internalType": "string",
              "name": "quizTitle",
              "type": "string"
            },
            {
              "components": [
                {
                  "internalType": "uint256",
                  "name": "questionId",
                  "type": "uint256"
                },
                {
                  "internalType": "string",
                  "name": "questionText",
                  "type": "string"
                },
                {
                  "components": [
                    {
                      "internalType": "string",
                      "name": "option",
                      "type": "string"
                    },
                    {
                      "internalType": "bool",
                      "name": "isCorrect",
                      "type": "bool"
                    }
                  ],
                  "internalType": "struct Ecosystem.Choice[]",
                  "name": "choices",
                  "type": "tuple[]"
                }
              ],
              "internalType": "struct Ecosystem.Question[]",
              "name": "questions",
              "type": "tuple[]"
            },
            {
              "internalType": "bool",
              "name": "exists",
              "type": "bool"
            }
          ],
          "internalType": "struct Ecosystem.Quiz[]",
          "name": "",
          "type": "tuple[]"
        }
      ],
      "stateMutability": "view",
      "type": "function"
    },
    {
      "inputs": [
        {
          "internalType": "uint256",
          "name": "_courseId",
          "type": "uint256"
        }
      ],
      "name": "getChapters",
      "outputs": [
        {
          "components": [
            {
              "internalType": "uint256",
              "name": "chapterId",
              "type": "uint256"
            },
            {
              "internalType": "string",
              "name": "chapterName",
              "type": "string"
            },
            {
              "internalType": "bool",
              "name": "exists",
              "type": "bool"
            }
          ],
          "internalType": "struct Ecosystem.Chapter[]",
          "name": "",
          "type": "tuple[]"
        }
      ],
      "stateMutability": "view",
      "type": "function"
    },
    {
      "inputs": [
        {
          "internalType": "uint256",
          "name": "courseId",
          "type": "uint256"
        }
      ],
      "name": "getCourseReviewers",
      "outputs": [
        {
          "internalType": "address[]",
          "name": "",
          "type": "address[]"
        }
      ],
      "stateMutability": "view",
      "type": "function"
    },
    {
      "inputs": [],
      "name": "getCurrentEcosystemPoolSupply",
      "outputs": [
        {
          "internalType": "uint256",
          "name": "",
          "type": "uint256"
        }
      ],
      "stateMutability": "view",
      "type": "function"
    },
    {
      "inputs": [
        {
          "internalType": "uint256",
          "name": "_quizId",
          "type": "uint256"
        }
      ],
      "name": "getQuiz",
      "outputs": [
        {
          "components": [
            {
              "internalType": "uint256",
              "name": "quizId",
              "type": "uint256"
            },
            {
              "internalType": "string",
              "name": "quizTitle",
              "type": "string"
            },
            {
              "components": [
                {
                  "internalType": "uint256",
                  "name": "questionId",
                  "type": "uint256"
                },
                {
                  "internalType": "string",
                  "name": "questionText",
                  "type": "string"
                },
                {
                  "components": [
                    {
                      "internalType": "string",
                      "name": "option",
                      "type": "string"
                    },
                    {
                      "internalType": "bool",
                      "name": "isCorrect",
                      "type": "bool"
                    }
                  ],
                  "internalType": "struct Ecosystem.Choice[]",
                  "name": "choices",
                  "type": "tuple[]"
                }
              ],
              "internalType": "struct Ecosystem.Question[]",
              "name": "questions",
              "type": "tuple[]"
            },
            {
              "internalType": "bool",
              "name": "exists",
              "type": "bool"
            }
          ],
          "internalType": "struct Ecosystem.Quiz",
          "name": "",
          "type": "tuple"
        }
      ],
      "stateMutability": "view",
      "type": "function"
    },
    {
      "inputs": [
        {
          "internalType": "bytes32",
          "name": "role",
          "type": "bytes32"
        }
      ],
      "name": "getRoleAdmin",
      "outputs": [
        {
          "internalType": "bytes32",
          "name": "",
          "type": "bytes32"
        }
      ],
      "stateMutability": "view",
      "type": "function"
    },
    {
      "inputs": [
        {
          "internalType": "bytes32",
          "name": "role",
          "type": "bytes32"
        },
        {
          "internalType": "address",
          "name": "account",
          "type": "address"
        }
      ],
      "name": "grantRole",
      "outputs": [],
      "stateMutability": "nonpayable",
      "type": "function"
    },
    {
      "inputs": [
        {
          "internalType": "bytes32",
          "name": "role",
          "type": "bytes32"
        },
        {
          "internalType": "address",
          "name": "account",
          "type": "address"
        }
      ],
      "name": "hasRole",
      "outputs": [
        {
          "internalType": "bool",
          "name": "",
          "type": "bool"
        }
      ],
      "stateMutability": "view",
      "type": "function"
    },
    {
      "inputs": [
        {
          "internalType": "uint256",
          "name": "",
          "type": "uint256"
        },
        {
          "internalType": "address",
          "name": "",
          "type": "address"
        }
      ],
      "name": "isEnrolled",
      "outputs": [
        {
          "internalType": "bool",
          "name": "",
          "type": "bool"
        }
      ],
      "stateMutability": "view",
      "type": "function"
    },
    {
      "inputs": [
        {
          "internalType": "address",
          "name": "",
          "type": "address"
        }
      ],
      "name": "isInReviewerPool",
      "outputs": [
        {
          "internalType": "bool",
          "name": "",
          "type": "bool"
        }
      ],
      "stateMutability": "view",
      "type": "function"
    },
    {
      "inputs": [
        {
          "internalType": "address",
          "name": "account",
          "type": "address"
        }
      ],
      "name": "isReviewer",
      "outputs": [
        {
          "internalType": "bool",
          "name": "",
          "type": "bool"
        }
      ],
      "stateMutability": "view",
      "type": "function"
    },
    {
      "inputs": [
        {
          "internalType": "uint256",
          "name": "",
          "type": "uint256"
        }
      ],
      "name": "lesson",
      "outputs": [
        {
          "internalType": "uint256",
          "name": "lessonId",
          "type": "uint256"
        },
        {
          "internalType": "string",
          "name": "lessonName",
          "type": "string"
        },
        {
          "internalType": "string",
          "name": "lessonContent",
          "type": "string"
        },
        {
          "internalType": "uint256",
          "name": "resourceCount",
          "type": "uint256"
        },
        {
          "internalType": "bool",
          "name": "exists",
          "type": "bool"
        }
      ],
      "stateMutability": "view",
      "type": "function"
    },
    {
      "inputs": [
        {
          "internalType": "uint256",
          "name": "",
          "type": "uint256"
        }
      ],
      "name": "listOfChapters",
      "outputs": [
        {
          "internalType": "uint256",
          "name": "chapterId",
          "type": "uint256"
        },
        {
          "internalType": "string",
          "name": "chapterName",
          "type": "string"
        },
        {
          "internalType": "bool",
          "name": "exists",
          "type": "bool"
        }
      ],
      "stateMutability": "view",
      "type": "function"
    },
    {
      "inputs": [
        {
          "internalType": "uint256",
          "name": "",
          "type": "uint256"
        }
      ],
      "name": "listOfCourses",
      "outputs": [
        {
          "internalType": "uint256",
          "name": "courseId",
          "type": "uint256"
        },
        {
          "internalType": "string",
          "name": "courseName",
          "type": "string"
        },
        {
          "internalType": "string",
          "name": "description",
          "type": "string"
        },
        {
          "internalType": "bool",
          "name": "approved",
          "type": "bool"
        },
        {
          "internalType": "uint256",
          "name": "approvalCount",
          "type": "uint256"
        },
        {
          "internalType": "address",
          "name": "creator",
          "type": "address"
        }
      ],
      "stateMutability": "view",
      "type": "function"
    },
    {
      "inputs": [
        {
          "internalType": "uint256",
          "name": "",
          "type": "uint256"
        }
      ],
      "name": "listOfLessons",
      "outputs": [
        {
          "internalType": "uint256",
          "name": "lessonId",
          "type": "uint256"
        },
        {
          "internalType": "string",
          "name": "lessonName",
          "type": "string"
        },
        {
          "internalType": "string",
          "name": "lessonContent",
          "type": "string"
        },
        {
          "internalType": "uint256",
          "name": "resourceCount",
          "type": "uint256"
        },
        {
          "internalType": "bool",
          "name": "exists",
          "type": "bool"
        }
      ],
      "stateMutability": "view",
      "type": "function"
    },
    {
      "inputs": [
        {
          "internalType": "uint256",
          "name": "",
          "type": "uint256"
        }
      ],
      "name": "listOfQuestions",
      "outputs": [
        {
          "internalType": "uint256",
          "name": "questionId",
          "type": "uint256"
        },
        {
          "internalType": "string",
          "name": "questionText",
          "type": "string"
        }
      ],
      "stateMutability": "view",
      "type": "function"
    },
    {
      "inputs": [
        {
          "internalType": "uint256",
          "name": "",
          "type": "uint256"
        }
      ],
      "name": "listOfQuizzes",
      "outputs": [
        {
          "internalType": "uint256",
          "name": "quizId",
          "type": "uint256"
        },
        {
          "internalType": "string",
          "name": "quizTitle",
          "type": "string"
        },
        {
          "internalType": "bool",
          "name": "exists",
          "type": "bool"
        }
      ],
      "stateMutability": "view",
      "type": "function"
    },
    {
      "inputs": [
        {
          "internalType": "uint256",
          "name": "",
          "type": "uint256"
        }
      ],
      "name": "listOfResource",
      "outputs": [
        {
          "internalType": "string",
          "name": "contentType",
          "type": "string"
        },
        {
          "internalType": "string",
          "name": "url",
          "type": "string"
        },
        {
          "internalType": "string",
          "name": "description",
          "type": "string"
        }
      ],
      "stateMutability": "view",
      "type": "function"
    },
    {
      "inputs": [
        {
          "internalType": "uint256",
          "name": "",
          "type": "uint256"
        }
      ],
      "name": "multiSigProposals",
      "outputs": [
        {
          "internalType": "uint256",
          "name": "id",
          "type": "uint256"
        },
        {
          "internalType": "address",
          "name": "proposer",
          "type": "address"
        },
        {
          "internalType": "address",
          "name": "targetContract",
          "type": "address"
        },
        {
          "internalType": "bytes",
          "name": "data",
          "type": "bytes"
        },
        {
          "internalType": "uint256",
          "name": "approvalCount",
          "type": "uint256"
        },
        {
          "internalType": "bool",
          "name": "executed",
          "type": "bool"
        }
      ],
      "stateMutability": "view",
      "type": "function"
    },
    {
      "inputs": [],
      "name": "name",
      "outputs": [
        {
          "internalType": "string",
          "name": "",
          "type": "string"
        }
      ],
      "stateMutability": "view",
      "type": "function"
    },
    {
      "inputs": [],
      "name": "nextChapterId",
      "outputs": [
        {
          "internalType": "uint256",
          "name": "",
          "type": "uint256"
        }
      ],
      "stateMutability": "view",
      "type": "function"
    },
    {
      "inputs": [],
      "name": "nextChoiceId",
      "outputs": [
        {
          "internalType": "uint256",
          "name": "",
          "type": "uint256"
        }
      ],
      "stateMutability": "view",
      "type": "function"
    },
    {
      "inputs": [],
      "name": "nextCourseId",
      "outputs": [
        {
          "internalType": "uint256",
          "name": "",
          "type": "uint256"
        }
      ],
      "stateMutability": "view",
      "type": "function"
    },
    {
      "inputs": [],
      "name": "nextCourseIdd",
      "outputs": [
        {
          "internalType": "uint256",
          "name": "",
          "type": "uint256"
        }
      ],
      "stateMutability": "view",
      "type": "function"
    },
    {
      "inputs": [],
      "name": "nextLessonId",
      "outputs": [
        {
          "internalType": "uint256",
          "name": "",
          "type": "uint256"
        }
      ],
      "stateMutability": "view",
      "type": "function"
    },
    {
      "inputs": [],
      "name": "nextQuestionId",
      "outputs": [
        {
          "internalType": "uint256",
          "name": "",
          "type": "uint256"
        }
      ],
      "stateMutability": "view",
      "type": "function"
    },
    {
      "inputs": [],
      "name": "nextQuizId",
      "outputs": [
        {
          "internalType": "uint256",
          "name": "",
          "type": "uint256"
        }
      ],
      "stateMutability": "view",
      "type": "function"
    },
    {
      "inputs": [
        {
          "internalType": "uint256",
          "name": "",
          "type": "uint256"
        }
      ],
      "name": "questions",
      "outputs": [
        {
          "internalType": "uint256",
          "name": "questionId",
          "type": "uint256"
        },
        {
          "internalType": "string",
          "name": "questionText",
          "type": "string"
        }
      ],
      "stateMutability": "view",
      "type": "function"
    },
    {
      "inputs": [
        {
          "internalType": "uint256",
          "name": "",
          "type": "uint256"
        }
      ],
      "name": "quizzes",
      "outputs": [
        {
          "internalType": "uint256",
          "name": "quizId",
          "type": "uint256"
        },
        {
          "internalType": "string",
          "name": "quizTitle",
          "type": "string"
        },
        {
          "internalType": "bool",
          "name": "exists",
          "type": "bool"
        }
      ],
      "stateMutability": "view",
      "type": "function"
    },
    {
      "inputs": [
        {
          "internalType": "address",
          "name": "reviewer",
          "type": "address"
        }
      ],
      "name": "removeReviewer",
      "outputs": [],
      "stateMutability": "nonpayable",
      "type": "function"
    },
    {
      "inputs": [
        {
          "internalType": "bytes32",
          "name": "role",
          "type": "bytes32"
        },
        {
          "internalType": "address",
          "name": "callerConfirmation",
          "type": "address"
        }
      ],
      "name": "renounceRole",
      "outputs": [],
      "stateMutability": "nonpayable",
      "type": "function"
    },
    {
      "inputs": [
        {
          "internalType": "uint256",
          "name": "",
          "type": "uint256"
        }
      ],
      "name": "reviewerPool",
      "outputs": [
        {
          "internalType": "address",
          "name": "",
          "type": "address"
        }
      ],
      "stateMutability": "view",
      "type": "function"
    },
    {
      "inputs": [
        {
          "internalType": "uint256",
          "name": "",
          "type": "uint256"
        },
        {
          "internalType": "address",
          "name": "",
          "type": "address"
        }
      ],
      "name": "reviews",
      "outputs": [
        {
          "internalType": "uint256",
          "name": "learnerAgency",
          "type": "uint256"
        },
        {
          "internalType": "uint256",
          "name": "criticalThinking",
          "type": "uint256"
        },
        {
          "internalType": "uint256",
          "name": "collaborativeLearning",
          "type": "uint256"
        },
        {
          "internalType": "uint256",
          "name": "reflectivePractice",
          "type": "uint256"
        },
        {
          "internalType": "uint256",
          "name": "adaptiveLearning",
          "type": "uint256"
        },
        {
          "internalType": "uint256",
          "name": "authenticLearning",
          "type": "uint256"
        },
        {
          "internalType": "uint256",
          "name": "technologyIntegration",
          "type": "uint256"
        },
        {
          "internalType": "uint256",
          "name": "learnerSupport",
          "type": "uint256"
        },
        {
          "internalType": "uint256",
          "name": "assessmentForLearning",
          "type": "uint256"
        },
        {
          "internalType": "uint256",
          "name": "engagementAndMotivation",
          "type": "uint256"
        },
        {
          "internalType": "bool",
          "name": "isSubmitted",
          "type": "bool"
        }
      ],
      "stateMutability": "view",
      "type": "function"
    },
    {
      "inputs": [
        {
          "internalType": "bytes32",
          "name": "role",
          "type": "bytes32"
        },
        {
          "internalType": "address",
          "name": "account",
          "type": "address"
        }
      ],
      "name": "revokeRole",
      "outputs": [],
      "stateMutability": "nonpayable",
      "type": "function"
    },
    {
      "inputs": [
        {
          "internalType": "uint256",
          "name": "courseId",
          "type": "uint256"
        }
      ],
      "name": "selectCourseReviewers",
      "outputs": [],
      "stateMutability": "nonpayable",
      "type": "function"
    },
    {
      "inputs": [
        {
          "internalType": "uint256",
          "name": "courseId",
          "type": "uint256"
        },
        {
          "internalType": "uint256",
          "name": "learnerAgency",
          "type": "uint256"
        },
        {
          "internalType": "uint256",
          "name": "criticalThinking",
          "type": "uint256"
        },
        {
          "internalType": "uint256",
          "name": "collaborativeLearning",
          "type": "uint256"
        },
        {
          "internalType": "uint256",
          "name": "reflectivePractice",
          "type": "uint256"
        },
        {
          "internalType": "uint256",
          "name": "adaptiveLearning",
          "type": "uint256"
        },
        {
          "internalType": "uint256",
          "name": "authenticLearning",
          "type": "uint256"
        },
        {
          "internalType": "uint256",
          "name": "technologyIntegration",
          "type": "uint256"
        },
        {
          "internalType": "uint256",
          "name": "learnerSupport",
          "type": "uint256"
        },
        {
          "internalType": "uint256",
          "name": "assessmentForLearning",
          "type": "uint256"
        },
        {
          "internalType": "uint256",
          "name": "engagementAndMotivation",
          "type": "uint256"
        }
      ],
      "name": "submitReview",
      "outputs": [],
      "stateMutability": "nonpayable",
      "type": "function"
    },
    {
      "inputs": [
        {
          "internalType": "bytes4",
          "name": "interfaceId",
          "type": "bytes4"
        }
      ],
      "name": "supportsInterface",
      "outputs": [
        {
          "internalType": "bool",
          "name": "",
          "type": "bool"
        }
      ],
      "stateMutability": "view",
      "type": "function"
    },
    {
      "inputs": [],
      "name": "symbol",
      "outputs": [
        {
          "internalType": "string",
          "name": "",
          "type": "string"
        }
      ],
      "stateMutability": "view",
      "type": "function"
    },
    {
      "inputs": [],
      "name": "totalSupply",
      "outputs": [
        {
          "internalType": "uint256",
          "name": "",
          "type": "uint256"
        }
      ],
      "stateMutability": "view",
      "type": "function"
    },
    {
      "inputs": [
        {
          "internalType": "address",
          "name": "to",
          "type": "address"
        },
        {
          "internalType": "uint256",
          "name": "value",
          "type": "uint256"
        }
      ],
      "name": "transfer",
      "outputs": [
        {
          "internalType": "bool",
          "name": "",
          "type": "bool"
        }
      ],
      "stateMutability": "nonpayable",
      "type": "function"
    },
    {
      "inputs": [
        {
          "internalType": "address",
          "name": "from",
          "type": "address"
        },
        {
          "internalType": "address",
          "name": "to",
          "type": "address"
        },
        {
          "internalType": "uint256",
          "name": "value",
          "type": "uint256"
        }
      ],
      "name": "transferFrom",
      "outputs": [
        {
          "internalType": "bool",
          "name": "",
          "type": "bool"
        }
      ],
      "stateMutability": "nonpayable",
      "type": "function"
    },
    {
      "inputs": [
        {
          "internalType": "uint256",
          "name": "_courseId",
          "type": "uint256"
        }
      ],
      "name": "unEnroll",
      "outputs": [
        {
          "internalType": "bool",
          "name": "",
          "type": "bool"
        }
      ],
      "stateMutability": "nonpayable",
      "type": "function"
    }
  ],
  "bytecode": "0x608060405234801561001057600080fd5b5060405161a69138038061a6918339818101604052810190610032919061063b565b80806040518060400160405280600a81526020017f4142594120544f4b454e000000000000000000000000000000000000000000008152506040518060400160405280600681526020017f414259544b4e000000000000000000000000000000000000000000000000000081525081600390816100af91906108a5565b5080600490816100bf91906108a5565b505050600481511015610107576040517f08c379a00000000000000000000000000000000000000000000000000000000081526004016100fe906109fa565b60405180910390fd5b61011a6000801b336102c060201b60201c565b5061014b7fdf1425bae297c2f52b4f15d18a50b1fc8cb5b981a981b1d213ed3ff92681b64d336102c060201b60201c565b5060005b815181101561029f576101a27fc10c77be35aff266144ed64c26a1fa104bae2f284ae99ac4a34203454704a18583838151811061018f5761018e610a1a565b5b60200260200101516102c060201b60201c565b5060068282815181106101b8576101b7610a1a565b5b60200260200101519080600181540180825580915050600190039060005260206000200160009091909190916101000a81548173ffffffffffffffffffffffffffffffffffffffff021916908373ffffffffffffffffffffffffffffffffffffffff16021790555060016008600084848151811061023957610238610a1a565b5b602002602001015173ffffffffffffffffffffffffffffffffffffffff1673ffffffffffffffffffffffffffffffffffffffff16815260200190815260200160002060006101000a81548160ff021916908315150217905550808060010191505061014f565b50506001600a819055506102b9600b6103be60201b60201c565b5050610a49565b60006102d283836103fd60201b60201c565b6103b35760016005600085815260200190815260200160002060000160008473ffffffffffffffffffffffffffffffffffffffff1673ffffffffffffffffffffffffffffffffffffffff16815260200190815260200160002060006101000a81548160ff02191690831515021790555061035061046860201b60201c565b73ffffffffffffffffffffffffffffffffffffffff168273ffffffffffffffffffffffffffffffffffffffff16847f2f8788117e7eff1d82e926ec794901d17c78024a50270940304540a733656f0d60405160405180910390a4600190506103b8565b600090505b92915050565b60018160000181905550600181600101819055506001816002018190555060018160030181905550600181600401819055506001816005018190555050565b60006005600084815260200190815260200160002060000160008373ffffffffffffffffffffffffffffffffffffffff1673ffffffffffffffffffffffffffffffffffffffff16815260200190815260200160002060009054906101000a900460ff16905092915050565b600033905090565b6000604051905090565b600080fd5b600080fd5b600080fd5b6000601f19601f8301169050919050565b7f4e487b7100000000000000000000000000000000000000000000000000000000600052604160045260246000fd5b6104d282610489565b810181811067ffffffffffffffff821117156104f1576104f061049a565b5b80604052505050565b6000610504610470565b905061051082826104c9565b919050565b600067ffffffffffffffff8211156105305761052f61049a565b5b602082029050602081019050919050565b600080fd5b600073ffffffffffffffffffffffffffffffffffffffff82169050919050565b600061057182610546565b9050919050565b61058181610566565b811461058c57600080fd5b50565b60008151905061059e81610578565b92915050565b60006105b76105b284610515565b6104fa565b905080838252602082019050602084028301858111156105da576105d9610541565b5b835b8181101561060357806105ef888261058f565b8452602084019350506020810190506105dc565b5050509392505050565b600082601f83011261062257610621610484565b5b81516106328482602086016105a4565b91505092915050565b6000602082840312156106515761065061047a565b5b600082015167ffffffffffffffff81111561066f5761066e61047f565b5b61067b8482850161060d565b91505092915050565b600081519050919050565b7f4e487b7100000000000000000000000000000000000000000000000000000000600052602260045260246000fd5b600060028204905060018216806106d657607f821691505b6020821081036106e9576106e861068f565b5b50919050565b60008190508160005260206000209050919050565b60006020601f8301049050919050565b600082821b905092915050565b6000600883026107517fffffffffffffffffffffffffffffffffffffffffffffffffffffffffffffffff82610714565b61075b8683610714565b95508019841693508086168417925050509392505050565b6000819050919050565b6000819050919050565b60006107a261079d61079884610773565b61077d565b610773565b9050919050565b6000819050919050565b6107bc83610787565b6107d06107c8826107a9565b848454610721565b825550505050565b600090565b6107e56107d8565b6107f08184846107b3565b505050565b5b81811015610814576108096000826107dd565b6001810190506107f6565b5050565b601f8211156108595761082a816106ef565b61083384610704565b81016020851015610842578190505b61085661084e85610704565b8301826107f5565b50505b505050565b600082821c905092915050565b600061087c6000198460080261085e565b1980831691505092915050565b6000610895838361086b565b9150826002028217905092915050565b6108ae82610684565b67ffffffffffffffff8111156108c7576108c661049a565b5b6108d182546106be565b6108dc828285610818565b600060209050601f83116001811461090f57600084156108fd578287015190505b6109078582610889565b86555061096f565b601f19841661091d866106ef565b60005b8281101561094557848901518255600182019150602085019450602081019050610920565b86831015610962578489015161095e601f89168261086b565b8355505b6001600288020188555050505b505050505050565b600082825260208201905092915050565b7f4174206c6561737420342072657669657765727320617265207265717569726560008201527f6400000000000000000000000000000000000000000000000000000000000000602082015250565b60006109e4602183610977565b91506109ef82610988565b604082019050919050565b60006020820190508181036000830152610a13816109d7565b9050919050565b7f4e487b7100000000000000000000000000000000000000000000000000000000600052603260045260246000fd5b619c3980610a586000396000f3fe608060405234801561001057600080fd5b50600436106104755760003560e01c806373a82b5f11610257578063bad0dd6511610146578063d547741f116100c3578063e503f10811610087578063e503f10814610fc5578063eb264b9c14610fe3578063f57d585b14611001578063fdc6258a14611031578063ffabc6731461106157610475565b8063d547741f14610f0b578063d93f2caa14610f27578063dd62ed3e14610f45578063ddfc79fb14610f75578063ded5c18d14610fa757610475565b8063c7954e4c1161010a578063c7954e4c14610e53578063c90c884d14610e71578063c9442dac14610ea3578063c976831514610ebf578063d3751bfc14610eef57610475565b8063bad0dd6514610d69578063bfd2f4c514610d85578063c12804fb14610db9578063c293bbbe14610df3578063c491b04c14610e2357610475565b8063a1cd05b1116101d4578063a3f7e09611610198578063a3f7e09614610c8b578063a9059cbb14610cbb578063aa95da3a14610ceb578063ac678a9314610d1b578063ac957c6314610d4b57610475565b8063a1cd05b114610bbd578063a217fddf14610bed578063a26a795314610c0b578063a296ea5814610c3b578063a3ef204114610c5957610475565b806388409afa1161021b57806388409afa14610b035780638ea6e2fd14610b3557806391d1485414610b5157806395d89b4114610b81578063a14ecbdf14610b9f57610475565b806373a82b5f14610a735780637528499814610a8f57806375b9d86914610aab5780637d83daf214610ac7578063846f815214610ae557610475565b8063313ce5671161037357806352994e2f116102f057806366055159116102b457806366055159146109b45780636a4af0fa146109d25780636b000fa7146109f05780636fdb67f714610a0e57806370a0823114610a4357610475565b806352994e2f1461091057806358a3fa251461092e578063599c55331461094a5780635d33d45214610968578063632c224b1461098457610475565b80633693dcfa116103375780633693dcfa1461083c5780633b129a561461085a57806340932bf8146108785780634d42ef48146108ad57806351d93c81146108df57610475565b8063313ce5671461078357806331b1b978146107a157806332cb6b0c146107d257806334ed4bdb146107f057806336568abe1461082057610475565b806323b872dd116104015780632990db7c116103c55780632990db7c146106b057806329a0be65146106e55780632aac61ae146107035780632f2ff15d146107375780632fab55af1461075357610475565b806323b872dd146105e2578063248a9ca314610612578063274202f01461064257806327ff622314610660578063295b825a1461067e57610475565b8063095ea7b311610448578063095ea7b31461050457806311ce15df1461053457806318160ddd1461056457806319f102ec1461058257806320bd0316146105b257610475565b806301ffc9a71461047a57806304e48bd1146104aa578063057f46bb146104c857806306fdde03146104e6575b600080fd5b610494600480360381019061048f9190616e15565b611091565b6040516104a19190616e5d565b60405180910390f35b6104b261110b565b6040516104bf91906170c3565b60405180910390f35b6104d061140d565b6040516104dd91906170f4565b60405180910390f35b6104ee611413565b6040516104fb9190617159565b60405180910390f35b61051e600480360381019061051991906171d3565b6114a5565b60405161052b9190616e5d565b60405180910390f35b61054e60048036038101906105499190617213565b6114c8565b60405161055b9190616e5d565b60405180910390f35b61056c6114e8565b60405161057991906170f4565b60405180910390f35b61059c60048036038101906105979190617213565b6114f2565b6040516105a9919061724f565b60405180910390f35b6105cc60048036038101906105c79190617213565b611531565b6040516105d99190616e5d565b60405180910390f35b6105fc60048036038101906105f7919061726a565b6116a8565b6040516106099190616e5d565b60405180910390f35b61062c600480360381019061062791906172f3565b6116d7565b604051610639919061732f565b60405180910390f35b61064a6116f7565b60405161065791906170f4565b60405180910390f35b61066861171f565b60405161067591906170f4565b60405180910390f35b61069860048036038101906106939190617213565b611724565b6040516106a79392919061734a565b60405180910390f35b6106ca60048036038101906106c59190617213565b6117f3565b6040516106dc96959493929190617388565b60405180910390f35b6106ed61196c565b6040516106fa91906170f4565b60405180910390f35b61071d60048036038101906107189190617213565b611972565b60405161072e9594939291906173f7565b60405180910390f35b610751600480360381019061074c9190617458565b611ad5565b005b61076d600480360381019061076891906176b3565b611af7565b60405161077a9190616e5d565b60405180910390f35b61078b611d8d565b604051610798919061772b565b60405180910390f35b6107bb60048036038101906107b69190617213565b611d96565b6040516107c9929190617746565b60405180910390f35b6107da611e42565b6040516107e791906170f4565b60405180910390f35b61080a60048036038101906108059190617776565b611e52565b60405161081791906170f4565b60405180910390f35b61083a60048036038101906108359190617458565b611e70565b005b610844611eeb565b604051610851919061732f565b60405180910390f35b610862611f0f565b60405161086f919061732f565b60405180910390f35b610892600480360381019061088d9190617213565b611f33565b6040516108a4969594939291906177f8565b60405180910390f35b6108c760048036038101906108c29190617860565b612044565b6040516108d69392919061734a565b60405180910390f35b6108f960048036038101906108f49190617213565b612120565b604051610907929190617746565b60405180910390f35b6109186121dc565b604051610925919061732f565b60405180910390f35b610948600480360381019061094391906178a0565b612200565b005b6109526124c6565b60405161095f91906170f4565b60405180910390f35b610982600480360381019061097d91906179ef565b6124cb565b005b61099e60048036038101906109999190617a4f565b61289b565b6040516109ab91906170f4565b60405180910390f35b6109bc612a4c565b6040516109c991906170f4565b60405180910390f35b6109da612a52565b6040516109e79190617def565b60405180910390f35b6109f8612d6f565b604051610a0591906170f4565b60405180910390f35b610a286004803603810190610a239190617213565b612d75565b604051610a3a96959493929190617388565b60405180910390f35b610a5d6004803603810190610a589190617776565b612efe565b604051610a6a91906170f4565b60405180910390f35b610a8d6004803603810190610a889190617776565b612f46565b005b610aa96004803603810190610aa49190617213565b61312a565b005b610ac56004803603810190610ac09190617e11565b613344565b005b610acf61353f565b604051610adc91906170f4565b60405180910390f35b610aed613545565b604051610afa91906170f4565b60405180910390f35b610b1d6004803603810190610b189190617213565b613551565b604051610b2c9392919061734a565b60405180910390f35b610b4f6004803603810190610b4a9190617213565b613610565b005b610b6b6004803603810190610b669190617458565b61397a565b604051610b789190616e5d565b60405180910390f35b610b896139e5565b604051610b969190617159565b60405180910390f35b610ba7613a77565b604051610bb491906170f4565b60405180910390f35b610bd76004803603810190610bd29190617860565b613a7d565b604051610be4919061724f565b60405180910390f35b610bf5613acb565b604051610c02919061732f565b60405180910390f35b610c256004803603810190610c209190617e9c565b613ad2565b604051610c329190616e5d565b60405180910390f35b610c43613ea9565b604051610c509190618181565b60405180910390f35b610c736004803603810190610c6e9190617213565b6142ce565b604051610c829392919061734a565b60405180910390f35b610ca56004803603810190610ca09190617213565b61438d565b604051610cb2919061820d565b60405180910390f35b610cd56004803603810190610cd091906171d3565b6146db565b604051610ce29190616e5d565b60405180910390f35b610d056004803603810190610d009190617860565b6146fe565b604051610d129190617159565b60405180910390f35b610d356004803603810190610d309190617213565b6147b6565b604051610d429190618341565b60405180910390f35b610d536148df565b604051610d6091906170f4565b60405180910390f35b610d836004803603810190610d7e9190617213565b6148e4565b005b610d9f6004803603810190610d9a9190617213565b614be3565b604051610db09594939291906173f7565b60405180910390f35b610dd36004803603810190610dce9190618363565b614d36565b604051610dea9b9a999897969594939291906183a3565b60405180910390f35b610e0d6004803603810190610e089190617213565b614daa565b604051610e1a91906184fd565b60405180910390f35b610e3d6004803603810190610e389190617776565b614e4b565b604051610e4a9190616e5d565b60405180910390f35b610e5b614e6b565b604051610e6891906170f4565b60405180910390f35b610e8b6004803603810190610e869190617213565b614e75565b604051610e9a9392919061734a565b60405180910390f35b610ebd6004803603810190610eb89190617776565b614f44565b005b610ed96004803603810190610ed49190618363565b61522e565b604051610ee69190616e5d565b60405180910390f35b610f096004803603810190610f04919061854b565b61525d565b005b610f256004803603810190610f209190617458565b615678565b005b610f2f61569a565b604051610f3c91906170f4565b60405180910390f35b610f5f6004803603810190610f5a91906185ea565b6156a6565b604051610f6c91906170f4565b60405180910390f35b610f8f6004803603810190610f8a9190617213565b61572d565b604051610f9e9392919061862a565b60405180910390f35b610faf6158ff565b604051610fbc91906170f4565b60405180910390f35b610fcd61590c565b604051610fda91906170f4565b60405180910390f35b610feb615912565b604051610ff891906170f4565b60405180910390f35b61101b60048036038101906110169190617213565b615918565b6040516110289190616e5d565b60405180910390f35b61104b60048036038101906110469190617776565b615af4565b6040516110589190616e5d565b60405180910390f35b61107b600480360381019061107691906171d3565b615b27565b6040516110889190616e5d565b60405180910390f35b60007f7965db0b000000000000000000000000000000000000000000000000000000007bffffffffffffffffffffffffffffffffffffffffffffffffffffffff1916827bffffffffffffffffffffffffffffffffffffffffffffffffffffffff19161480611104575061110382615b56565b5b9050919050565b6060600060268054905067ffffffffffffffff81111561112e5761112d61749d565b5b60405190808252806020026020018201604052801561116757816020015b611154616997565b81526020019060019003908161114c5790505b50905060005b602680549050811015611405576040518060c001604052806026838154811061119957611198618676565b5b9060005260206000209060060201600001548152602001602683815481106111c4576111c3618676565b5b906000526020600020906006020160010180546111e0906186d4565b80601f016020809104026020016040519081016040528092919081815260200182805461120c906186d4565b80156112595780601f1061122e57610100808354040283529160200191611259565b820191906000526020600020905b81548152906001019060200180831161123c57829003601f168201915b505050505081526020016026838154811061127757611276618676565b5b90600052602060002090600602016002018054611293906186d4565b80601f01602080910402602001604051908101604052809291908181526020018280546112bf906186d4565b801561130c5780601f106112e15761010080835404028352916020019161130c565b820191906000526020600020905b8154815290600101906020018083116112ef57829003601f168201915b505050505081526020016026838154811061132a57611329618676565b5b906000526020600020906006020160030160009054906101000a900460ff16151581526020016026838154811061136457611363618676565b5b90600052602060002090600602016004015481526020016026838154811061138f5761138e618676565b5b906000526020600020906006020160050160009054906101000a900473ffffffffffffffffffffffffffffffffffffffff1673ffffffffffffffffffffffffffffffffffffffff168152508282815181106113ed576113ec618676565b5b6020026020010181905250808060010191505061116d565b508091505090565b60145481565b606060038054611422906186d4565b80601f016020809104026020016040519081016040528092919081815260200182805461144e906186d4565b801561149b5780601f106114705761010080835404028352916020019161149b565b820191906000526020600020905b81548152906001019060200180831161147e57829003601f168201915b5050505050905090565b6000806114b0615bc0565b90506114bd818585615bc8565b600191505092915050565b60246020528060005260406000206000915054906101000a900460ff1681565b6000600254905090565b6006818154811061150257600080fd5b906000526020600020016000915054906101000a900473ffffffffffffffffffffffffffffffffffffffff1681565b600061153b615bda565b6025600083815260200190815260200160002060003373ffffffffffffffffffffffffffffffffffffffff1673ffffffffffffffffffffffffffffffffffffffff16815260200190815260200160002060009054906101000a900460ff166115d8576040517f08c379a00000000000000000000000000000000000000000000000000000000081526004016115cf90618777565b60405180910390fd5b60006025600084815260200190815260200160002060003373ffffffffffffffffffffffffffffffffffffffff1673ffffffffffffffffffffffffffffffffffffffff16815260200190815260200160002060006101000a81548160ff02191690831515021790555061165333671bc16d674ec80000615c20565b3373ffffffffffffffffffffffffffffffffffffffff16827f9b244c565b926d7f4e915b69f3a5c6afc2231322d0d44e821076ad8879d0d68360405160405180910390a3600190506116a3615c47565b919050565b6000806116b3615bc0565b90506116c0858285615c51565b6116cb858585615ce5565b60019150509392505050565b600060056000838152602001908152602001600020600101549050919050565b6064600f6b204fce5e3e2502611000000061171291906187c6565b61171c9190618837565b81565b606481565b602a818154811061173457600080fd5b906000526020600020906004020160009150905080600001549080600101805461175d906186d4565b80601f0160208091040260200160405190810160405280929190818152602001828054611789906186d4565b80156117d65780601f106117ab576101008083540402835291602001916117d6565b820191906000526020600020905b8154815290600101906020018083116117b957829003601f168201915b5050505050908060030160009054906101000a900460ff16905083565b601960205280600052604060002060009150905080600001549080600101805461181c906186d4565b80601f0160208091040260200160405190810160405280929190818152602001828054611848906186d4565b80156118955780601f1061186a57610100808354040283529160200191611895565b820191906000526020600020905b81548152906001019060200180831161187857829003601f168201915b5050505050908060020180546118aa906186d4565b80601f01602080910402602001604051908101604052809291908181526020018280546118d6906186d4565b80156119235780601f106118f857610100808354040283529160200191611923565b820191906000526020600020905b81548152906001019060200180831161190657829003601f168201915b5050505050908060030160009054906101000a900460ff16908060040154908060050160009054906101000a900473ffffffffffffffffffffffffffffffffffffffff16905086565b60155481565b6028818154811061198257600080fd5b90600052602060002090602302016000915090508060000154908060010180546119ab906186d4565b80601f01602080910402602001604051908101604052809291908181526020018280546119d7906186d4565b8015611a245780601f106119f957610100808354040283529160200191611a24565b820191906000526020600020905b815481529060010190602001808311611a0757829003601f168201915b505050505090806002018054611a39906186d4565b80601f0160208091040260200160405190810160405280929190818152602001828054611a65906186d4565b8015611ab25780601f10611a8757610100808354040283529160200191611ab2565b820191906000526020600020905b815481529060010190602001808311611a9557829003601f168201915b5050505050908060210154908060220160009054906101000a900460ff16905085565b611ade826116d7565b611ae781615dd9565b611af18383615ded565b50505050565b60008073ffffffffffffffffffffffffffffffffffffffff166019600085815260200190815260200160002060050160009054906101000a900473ffffffffffffffffffffffffffffffffffffffff1673ffffffffffffffffffffffffffffffffffffffff1603611b9d576040517f08c379a0000000000000000000000000000000000000000000000000000000008152600401611b94906188b4565b60405180910390fd5b60005b8251811015611d5357600060405180606001604052806014548152602001858481518110611bd157611bd0618676565b5b602002602001015181526020016001151581525090506027819080600181540180825580915050600190039060005260206000209060030201600090919091909150600082015181600001556020820151816001019081611c329190618a80565b5060408201518160020160006101000a81548160ff021916908315150217905550505080601d60006014548152602001908152602001600020600082015181600001556020820151816001019081611c8a9190618a80565b5060408201518160020160006101000a81548160ff021916908315150217905550905050601e6000868152602001908152602001600020819080600181540180825580915050600190039060005260206000209060030201600090919091909150600082015181600001556020820151816001019081611d0a9190618a80565b5060408201518160020160006101000a81548160ff021916908315150217905550505060146000815480929190611d4090618b52565b9190505550508080600101915050611ba0565b508151837f1eb97e969f52c132bb6c79817d1f9001078fff0cd328ce625628e1fb4cc0e7de60405160405180910390a36001905092915050565b60006012905090565b6022602052806000526040600020600091509050806000015490806001018054611dbf906186d4565b80601f0160208091040260200160405190810160405280929190818152602001828054611deb906186d4565b8015611e385780601f10611e0d57610100808354040283529160200191611e38565b820191906000526020600020905b815481529060010190602001808311611e1b57829003601f168201915b5050505050905082565b6b204fce5e3e2502611000000081565b601b6020528060005260406000206000915090508060000154905081565b611e78615bc0565b73ffffffffffffffffffffffffffffffffffffffff168173ffffffffffffffffffffffffffffffffffffffff1614611edc576040517f6697b23200000000000000000000000000000000000000000000000000000000815260040160405180910390fd5b611ee68282615edf565b505050565b7fadb22091b155738d2e889eb96f509d2a7c93234236b30400927feb4a6a15ab0081565b7fc10c77be35aff266144ed64c26a1fa104bae2f284ae99ac4a34203454704a18581565b60096020528060005260406000206000915090508060000154908060010160009054906101000a900473ffffffffffffffffffffffffffffffffffffffff16908060020160009054906101000a900473ffffffffffffffffffffffffffffffffffffffff1690806003018054611fa8906186d4565b80601f0160208091040260200160405190810160405280929190818152602001828054611fd4906186d4565b80156120215780601f10611ff657610100808354040283529160200191612021565b820191906000526020600020905b81548152906001019060200180831161200457829003601f168201915b5050505050908060040154908060050160009054906101000a900460ff16905086565b601e602052816000526040600020818154811061206057600080fd5b90600052602060002090600302016000915091505080600001549080600101805461208a906186d4565b80601f01602080910402602001604051908101604052809291908181526020018280546120b6906186d4565b80156121035780601f106120d857610100808354040283529160200191612103565b820191906000526020600020905b8154815290600101906020018083116120e657829003601f168201915b5050505050908060020160009054906101000a900460ff16905083565b602b818154811061213057600080fd5b9060005260206000209060030201600091509050806000015490806001018054612159906186d4565b80601f0160208091040260200160405190810160405280929190818152602001828054612185906186d4565b80156121d25780601f106121a7576101008083540402835291602001916121d2565b820191906000526020600020905b8154815290600101906020018083116121b557829003601f168201915b5050505050905082565b7fdf1425bae297c2f52b4f15d18a50b1fc8cb5b981a981b1d213ed3ff92681b64d81565b7fc10c77be35aff266144ed64c26a1fa104bae2f284ae99ac4a34203454704a18561222a81615dd9565b6122348c33615fd2565b612273576040517f08c379a000000000000000000000000000000000000000000000000000000000815260040161226a90618c0c565b60405180910390fd5b601a60008d815260200190815260200160002060003373ffffffffffffffffffffffffffffffffffffffff1673ffffffffffffffffffffffffffffffffffffffff168152602001908152602001600020600a0160009054906101000a900460ff1615612314576040517f08c379a000000000000000000000000000000000000000000000000000000000815260040161230b90618c9e565b60405180910390fd5b6123268b8b8b8b8b8b8b8b8b8b61609d565b6040518061016001604052808c81526020018b81526020018a815260200189815260200188815260200187815260200186815260200185815260200184815260200183815260200160011515815250601a60008e815260200190815260200160002060003373ffffffffffffffffffffffffffffffffffffffff1673ffffffffffffffffffffffffffffffffffffffff168152602001908152602001600020600082015181600001556020820151816001015560408201518160020155606082015181600301556080820151816004015560a0820151816005015560c0820151816006015560e082015181600701556101008201518160080155610120820151816009015561014082015181600a0160006101000a81548160ff02191690831515021790555090505060506124a9601a60008f815260200190815260200160002060003373ffffffffffffffffffffffffffffffffffffffff1673ffffffffffffffffffffffffffffffffffffffff168152602001908152602001600020616162565b106124b8576124b78c61312a565b5b505050505050505050505050565b600281565b6000601f600085815260200190815260200160002090508060220160009054906101000a900460ff16612533576040517f08c379a000000000000000000000000000000000000000000000000000000000815260040161252a90618d0a565b60405180910390fd5b600081602101549050600a848490508261254d9190618d2a565b111561258e576040517f08c379a000000000000000000000000000000000000000000000000000000000815260040161258590618daa565b60405180910390fd5b60005b848490508110156127935760405180606001604052808686848181106125ba576125b9618676565b5b90506020028101906125cc9190618dd9565b80600001906125db9190618e01565b8080601f016020809104026020016040519081016040528093929190818152602001838380828437600081840152601f19601f82011690508083019250505050505050815260200186868481811061263657612635618676565b5b90506020028101906126489190618dd9565b80602001906126579190618e01565b8080601f016020809104026020016040519081016040528093929190818152602001838380828437600081840152601f19601f8201169050808301925050505050505081526020018686848181106126b2576126b1618676565b5b90506020028101906126c49190618dd9565b80604001906126d39190618e01565b8080601f016020809104026020016040519081016040528093929190818152602001838380828437600081840152601f19601f820116905080830192505050505050508152508360030183600a811061272f5761272e618676565b5b6003020160008201518160000190816127489190618a80565b50602082015181600101908161275e9190618a80565b5060408201518160020190816127749190618a80565b50905050818061278390618b52565b9250508080600101915050612591565b5080826021018190555060005b6028805490508110156128935785602882815481106127c2576127c1618676565b5b906000526020600020906023020160000154036128865782602882815481106127ee576127ed618676565b5b9060005260206000209060230201600082015481600001556001820181600101908161281a9190618e7a565b506002820181600201908161282f9190618e7a565b50600382018160030190600a6128469291906169e5565b50602182015481602101556022820160009054906101000a900460ff168160220160006101000a81548160ff021916908315150217905550905050612893565b80806001019150506127a0565b505050505050565b6000806016549050601f600085815260200190815260200160002060220160009054906101000a900460ff16612906576040517f08c379a00000000000000000000000000000000000000000000000000000000081526004016128fd90618fae565b60405180910390fd5b6000602160008381526020019081526020016000209050818160000181905550838160010190816129379190618a80565b5060018160030160006101000a81548160ff0219169083151502179055506016600081548092919061296890618b52565b9190505550602a81908060018154018082558091505060019003906000526020600020906004020160009091909190915060008201548160000155600182018160010190816129b79190618e7a565b5060028201816002019080546129ce929190616a67565b506003820160009054906101000a900460ff168160030160006101000a81548160ff021916908315150217905550505083604051612a0c919061900a565b6040518091039020827fbf27702cefbc4aea50d7c73cfee96f84f5b908f62aeafcd8b0aeae202c15050960405160405180910390a3819250505092915050565b60125481565b6060602a805480602002602001604051908101604052809291908181526020016000905b82821015612d66578382906000526020600020906004020160405180608001604052908160008201548152602001600182018054612ab3906186d4565b80601f0160208091040260200160405190810160405280929190818152602001828054612adf906186d4565b8015612b2c5780601f10612b0157610100808354040283529160200191612b2c565b820191906000526020600020905b815481529060010190602001808311612b0f57829003601f168201915b5050505050815260200160028201805480602002602001604051908101604052809291908181526020016000905b82821015612d34578382906000526020600020906003020160405180606001604052908160008201548152602001600182018054612b97906186d4565b80601f0160208091040260200160405190810160405280929190818152602001828054612bc3906186d4565b8015612c105780601f10612be557610100808354040283529160200191612c10565b820191906000526020600020905b815481529060010190602001808311612bf357829003601f168201915b5050505050815260200160028201805480602002602001604051908101604052809291908181526020016000905b82821015612d1d5783829060005260206000209060020201604051806040016040529081600082018054612c71906186d4565b80601f0160208091040260200160405190810160405280929190818152602001828054612c9d906186d4565b8015612cea5780601f10612cbf57610100808354040283529160200191612cea565b820191906000526020600020905b815481529060010190602001808311612ccd57829003601f168201915b505050505081526020016001820160009054906101000a900460ff16151515158152505081526020019060010190612c3e565b505050508152505081526020019060010190612b5a565b5050505081526020016003820160009054906101000a900460ff16151515158152505081526020019060010190612a76565b50505050905090565b60185481565b60268181548110612d8557600080fd5b9060005260206000209060060201600091509050806000015490806001018054612dae906186d4565b80601f0160208091040260200160405190810160405280929190818152602001828054612dda906186d4565b8015612e275780601f10612dfc57610100808354040283529160200191612e27565b820191906000526020600020905b815481529060010190602001808311612e0a57829003601f168201915b505050505090806002018054612e3c906186d4565b80601f0160208091040260200160405190810160405280929190818152602001828054612e68906186d4565b8015612eb55780601f10612e8a57610100808354040283529160200191612eb5565b820191906000526020600020905b815481529060010190602001808311612e9857829003601f168201915b5050505050908060030160009054906101000a900460ff16908060040154908060050160009054906101000a900473ffffffffffffffffffffffffffffffffffffffff16905086565b60008060008373ffffffffffffffffffffffffffffffffffffffff1673ffffffffffffffffffffffffffffffffffffffff168152602001908152602001600020549050919050565b7fc10c77be35aff266144ed64c26a1fa104bae2f284ae99ac4a34203454704a185612f7081615dd9565b600860008373ffffffffffffffffffffffffffffffffffffffff1673ffffffffffffffffffffffffffffffffffffffff16815260200190815260200160002060009054906101000a900460ff1615612ffd576040517f08c379a0000000000000000000000000000000000000000000000000000000008152600401612ff49061906d565b60405180910390fd5b6130277fc10c77be35aff266144ed64c26a1fa104bae2f284ae99ac4a34203454704a18583615ded565b506006829080600181540180825580915050600190039060005260206000200160009091909190916101000a81548173ffffffffffffffffffffffffffffffffffffffff021916908373ffffffffffffffffffffffffffffffffffffffff1602179055506001600860008473ffffffffffffffffffffffffffffffffffffffff1673ffffffffffffffffffffffffffffffffffffffff16815260200190815260200160002060006101000a81548160ff0219169083151502179055508173ffffffffffffffffffffffffffffffffffffffff167fe1cb5e1230cc02e62c60b81c1aa5ade512f3eac296edb28628b4cf344f47f93160405160405180910390a25050565b7fc10c77be35aff266144ed64c26a1fa104bae2f284ae99ac4a34203454704a18561315481615dd9565b60006019600084815260200190815260200160002090508060030160009054906101000a900460ff16156131bd576040517f08c379a00000000000000000000000000000000000000000000000000000000081526004016131b4906190d9565b60405180910390fd5b601c60003373ffffffffffffffffffffffffffffffffffffffff1673ffffffffffffffffffffffffffffffffffffffff168152602001908152602001600020600084815260200190815260200160002060009054906101000a900460ff161561325b576040517f08c379a00000000000000000000000000000000000000000000000000000000081526004016132529061916b565b60405180910390fd5b6001601c60003373ffffffffffffffffffffffffffffffffffffffff1673ffffffffffffffffffffffffffffffffffffffff168152602001908152602001600020600085815260200190815260200160002060006101000a81548160ff0219169083151502179055508060040160008154809291906132d990618b52565b9190505550600281600401541061333f5760018160030160006101000a81548160ff02191690831515021790555061333d8160050160009054906101000a900473ffffffffffffffffffffffffffffffffffffffff16674563918244f400006161f7565b505b505050565b60006015549050601d600085815260200190815260200160002060020160009054906101000a900460ff166133ae576040517f08c379a00000000000000000000000000000000000000000000000000000000081526004016133a5906191d7565b60405180910390fd5b6000601f60008381526020019081526020016000209050818160000181905550838160010190816133df9190618a80565b50828160020190816133f19190618a80565b5060018160220160006101000a81548160ff021916908315150217905550600081602101819055506028601f6000848152602001908152602001600020908060018154018082558091505060019003906000526020600020906023020160009091909190915060008201548160000155600182018160010190816134759190618e7a565b506002820181600201908161348a9190618e7a565b50600382018160030190600a6134a19291906169e5565b50602182015481602101556022820160009054906101000a900460ff168160220160006101000a81548160ff0219169083151502179055505050601560008154809291906134ee90618b52565b9190505550600a84604051613503919061900a565b6040518091039020837f3387c3a40ec1df95e34d25a0e5564b40d01c331b71ccbafccccc66d36c84ad8360405160405180910390a45050505050565b60135481565b671bc16d674ec8000081565b602160205280600052604060002060009150905080600001549080600101805461357a906186d4565b80601f01602080910402602001604051908101604052809291908181526020018280546135a6906186d4565b80156135f35780601f106135c8576101008083540402835291602001916135f3565b820191906000526020600020905b8154815290600101906020018083116135d657829003601f168201915b5050505050908060030160009054906101000a900460ff16905083565b7fc10c77be35aff266144ed64c26a1fa104bae2f284ae99ac4a34203454704a18561363a81615dd9565b6024600083815260200190815260200160002060009054906101000a900460ff161561369b576040517f08c379a000000000000000000000000000000000000000000000000000000000815260040161369290619243565b60405180910390fd5b600360068054905010156136e4576040517f08c379a00000000000000000000000000000000000000000000000000000000081526004016136db906192af565b60405180910390fd5b6023600083815260200190815260200160002060006137039190616af5565b60005b60038110156138e057600060068054905042446006805490508560405160200161373394939291906192f0565b6040516020818303038152906040528051906020012060001c613756919061933e565b905060006006828154811061376e5761376d618676565b5b9060005260206000200160009054906101000a900473ffffffffffffffffffffffffffffffffffffffff1690506000805b6023600088815260200190815260200160002080549050811015613855578273ffffffffffffffffffffffffffffffffffffffff166023600089815260200190815260200160002082815481106137f9576137f8618676565b5b9060005260206000200160009054906101000a900473ffffffffffffffffffffffffffffffffffffffff1673ffffffffffffffffffffffffffffffffffffffff16036138485760019150613855565b808060010191505061379f565b50806138d05760236000878152602001908152602001600020829080600181540180825580915050600190039060005260206000200160009091909190916101000a81548173ffffffffffffffffffffffffffffffffffffffff021916908373ffffffffffffffffffffffffffffffffffffffff1602179055505b5050508080600101915050613706565b50600360236000848152602001908152602001600020805490500361392c5760016024600084815260200190815260200160002060006101000a81548160ff0219169083151502179055505b817fe205dff861c570b8df17e26f893778853f94bb25d2de318755e48eab0b403ff76023600085815260200190815260200160002060405161396e919061945b565b60405180910390a25050565b60006005600084815260200190815260200160002060000160008373ffffffffffffffffffffffffffffffffffffffff1673ffffffffffffffffffffffffffffffffffffffff16815260200190815260200160002060009054906101000a900460ff16905092915050565b6060600480546139f4906186d4565b80601f0160208091040260200160405190810160405280929190818152602001828054613a20906186d4565b8015613a6d5780601f10613a4257610100808354040283529160200191613a6d565b820191906000526020600020905b815481529060010190602001808311613a5057829003601f168201915b5050505050905090565b60115481565b60236020528160005260406000208181548110613a9957600080fd5b906000526020600020016000915091509054906101000a900473ffffffffffffffffffffffffffffffffffffffff1681565b6000801b81565b60008073ffffffffffffffffffffffffffffffffffffffff1660196000601354815260200190815260200160002060050160009054906101000a900473ffffffffffffffffffffffffffffffffffffffff1673ffffffffffffffffffffffffffffffffffffffff1614613b7a576040517f08c379a0000000000000000000000000000000000000000000000000000000008152600401613b71906194c9565b60405180910390fd5b60006040518060c001604052806013548152602001858152602001848152602001600015158152602001600081526020013373ffffffffffffffffffffffffffffffffffffffff16815250905080601960006013548152602001908152602001600020600082015181600001556020820151816001019081613bfc9190618a80565b506040820151816002019081613c129190618a80565b5060608201518160030160006101000a81548160ff0219169083151502179055506080820151816004015560a08201518160050160006101000a81548173ffffffffffffffffffffffffffffffffffffffff021916908373ffffffffffffffffffffffffffffffffffffffff1602179055509050506026819080600181540180825580915050600190039060005260206000209060060201600090919091909150600082015181600001556020820151816001019081613cd29190618a80565b506040820151816002019081613ce89190618a80565b5060608201518160030160006101000a81548160ff0219169083151502179055506080820151816004015560a08201518160050160006101000a81548173ffffffffffffffffffffffffffffffffffffffff021916908373ffffffffffffffffffffffffffffffffffffffff160217905550505060126000815480929190613d6f90618b52565b91905055506001601b60003373ffffffffffffffffffffffffffffffffffffffff1673ffffffffffffffffffffffffffffffffffffffff1681526020019081526020016000206000016000828254613dc79190618d2a565b9250508190555060136000815480929190613de190618b52565b9190505550613e107fadb22091b155738d2e889eb96f509d2a7c93234236b30400927feb4a6a15ab0033615ded565b5083604051613e1f919061900a565b60405180910390206001601354613e3691906194e9565b7f9c93a42b217373d37e6c66ace0a67fe1fa1f78c93164b62417de69c48c0f67e2601960006001601354613e6a91906194e9565b815260200190815260200160002060030160009054906101000a900460ff16604051613e969190616e5d565b60405180910390a3600191505092915050565b60606000602880549050905060008167ffffffffffffffff811115613ed157613ed061749d565b5b604051908082528060200260200182016040528015613f0a57816020015b613ef7616b16565b815260200190600190039081613eef5790505b50905060005b828110156142c55760288181548110613f2c57613f2b618676565b5b90600052602060002090602302016040518060c001604052908160008201548152602001600182018054613f5f906186d4565b80601f0160208091040260200160405190810160405280929190818152602001828054613f8b906186d4565b8015613fd85780601f10613fad57610100808354040283529160200191613fd8565b820191906000526020600020905b815481529060010190602001808311613fbb57829003601f168201915b50505050508152602001600282018054613ff1906186d4565b80601f016020809104026020016040519081016040528092919081815260200182805461401d906186d4565b801561406a5780601f1061403f5761010080835404028352916020019161406a565b820191906000526020600020905b81548152906001019060200180831161404d57829003601f168201915b5050505050815260200160038201600a80602002604051908101604052809291906000905b8282101561426d578382600302016040518060600160405290816000820180546140b8906186d4565b80601f01602080910402602001604051908101604052809291908181526020018280546140e4906186d4565b80156141315780601f1061410657610100808354040283529160200191614131565b820191906000526020600020905b81548152906001019060200180831161411457829003601f168201915b5050505050815260200160018201805461414a906186d4565b80601f0160208091040260200160405190810160405280929190818152602001828054614176906186d4565b80156141c35780601f10614198576101008083540402835291602001916141c3565b820191906000526020600020905b8154815290600101906020018083116141a657829003601f168201915b505050505081526020016002820180546141dc906186d4565b80601f0160208091040260200160405190810160405280929190818152602001828054614208906186d4565b80156142555780601f1061422a57610100808354040283529160200191614255565b820191906000526020600020905b81548152906001019060200180831161423857829003601f168201915b5050505050815250508152602001906001019061408f565b505050508152602001602182015481526020016022820160009054906101000a900460ff1615151515815250508282815181106142ad576142ac618676565b5b60200260200101819052508080600101915050613f10565b50809250505090565b601d6020528060005260406000206000915090508060000154908060010180546142f7906186d4565b80601f0160208091040260200160405190810160405280929190818152602001828054614323906186d4565b80156143705780601f1061434557610100808354040283529160200191614370565b820191906000526020600020905b81548152906001019060200180831161435357829003601f168201915b5050505050908060020160009054906101000a900460ff16905083565b614395616b54565b6021600083815260200190815260200160002060030160009054906101000a900460ff166143f8576040517f08c379a00000000000000000000000000000000000000000000000000000000081526004016143ef90619569565b60405180910390fd5b6021600083815260200190815260200160002060405180608001604052908160008201548152602001600182018054614430906186d4565b80601f016020809104026020016040519081016040528092919081815260200182805461445c906186d4565b80156144a95780601f1061447e576101008083540402835291602001916144a9565b820191906000526020600020905b81548152906001019060200180831161448c57829003601f168201915b5050505050815260200160028201805480602002602001604051908101604052809291908181526020016000905b828210156146b1578382906000526020600020906003020160405180606001604052908160008201548152602001600182018054614514906186d4565b80601f0160208091040260200160405190810160405280929190818152602001828054614540906186d4565b801561458d5780601f106145625761010080835404028352916020019161458d565b820191906000526020600020905b81548152906001019060200180831161457057829003601f168201915b5050505050815260200160028201805480602002602001604051908101604052809291908181526020016000905b8282101561469a57838290600052602060002090600202016040518060400160405290816000820180546145ee906186d4565b80601f016020809104026020016040519081016040528092919081815260200182805461461a906186d4565b80156146675780601f1061463c57610100808354040283529160200191614667565b820191906000526020600020905b81548152906001019060200180831161464a57829003601f168201915b505050505081526020016001820160009054906101000a900460ff161515151581525050815260200190600101906145bb565b5050505081525050815260200190600101906144d7565b5050505081526020016003820160009054906101000a900460ff1615151515815250509050919050565b6000806146e6615bc0565b90506146f3818585615ce5565b600191505092915050565b60208052816000526040600020818154811061471957600080fd5b90600052602060002001600091509150508054614735906186d4565b80601f0160208091040260200160405190810160405280929190818152602001828054614761906186d4565b80156147ae5780601f10614783576101008083540402835291602001916147ae565b820191906000526020600020905b81548152906001019060200180831161479157829003601f168201915b505050505081565b6060601e6000838152602001908152602001600020805480602002602001604051908101604052809291908181526020016000905b828210156148d4578382906000526020600020906003020160405180606001604052908160008201548152602001600182018054614828906186d4565b80601f0160208091040260200160405190810160405280929190818152602001828054614854906186d4565b80156148a15780601f10614876576101008083540402835291602001916148a1565b820191906000526020600020905b81548152906001019060200180831161488457829003601f168201915b505050505081526020016002820160009054906101000a900460ff161515151581525050815260200190600101906147eb565b505050509050919050565b605081565b7fdf1425bae297c2f52b4f15d18a50b1fc8cb5b981a981b1d213ed3ff92681b64d61490e81615dd9565b60006009600084815260200190815260200160002090508060050160009054906101000a900460ff1615614977576040517f08c379a000000000000000000000000000000000000000000000000000000000815260040161496e906195d5565b60405180910390fd5b8060060160003373ffffffffffffffffffffffffffffffffffffffff1673ffffffffffffffffffffffffffffffffffffffff16815260200190815260200160002060009054906101000a900460ff1615614a06576040517f08c379a00000000000000000000000000000000000000000000000000000000081526004016149fd90619641565b60405180910390fd5b60018160060160003373ffffffffffffffffffffffffffffffffffffffff1673ffffffffffffffffffffffffffffffffffffffff16815260200190815260200160002060006101000a81548160ff021916908315150217905550806004016000815480929190614a7590618b52565b9190505550827f5d4ccf5f92566d140246f4ae3b9cb35dc06fff109a7748602ad77f6260fd9a6133604051614aaa919061724f565b60405180910390a26003816004015410614bde5760008160020160009054906101000a900473ffffffffffffffffffffffffffffffffffffffff1673ffffffffffffffffffffffffffffffffffffffff1682600301604051614b0c9190619704565b6000604051808303816000865af19150503d8060008114614b49576040519150601f19603f3d011682016040523d82523d6000602084013e614b4e565b606091505b5050905080614b92576040517f08c379a0000000000000000000000000000000000000000000000000000000008152600401614b8990619767565b60405180910390fd5b60018260050160006101000a81548160ff021916908315150217905550837f7770356c29230b95943aec59d47ead11eb426a728bf5b57f7fd8597f3c0e29ba60405160405180910390a2505b505050565b601f602052806000526040600020600091509050806000015490806001018054614c0c906186d4565b80601f0160208091040260200160405190810160405280929190818152602001828054614c38906186d4565b8015614c855780601f10614c5a57610100808354040283529160200191614c85565b820191906000526020600020905b815481529060010190602001808311614c6857829003601f168201915b505050505090806002018054614c9a906186d4565b80601f0160208091040260200160405190810160405280929190818152602001828054614cc6906186d4565b8015614d135780601f10614ce857610100808354040283529160200191614d13565b820191906000526020600020905b815481529060010190602001808311614cf657829003601f168201915b5050505050908060210154908060220160009054906101000a900460ff16905085565b601a6020528160005260406000206020528060005260406000206000915091505080600001549080600101549080600201549080600301549080600401549080600501549080600601549080600701549080600801549080600901549080600a0160009054906101000a900460ff1690508b565b606060236000838152602001908152602001600020805480602002602001604051908101604052809291908181526020018280548015614e3f57602002820191906000526020600020905b8160009054906101000a900473ffffffffffffffffffffffffffffffffffffffff1673ffffffffffffffffffffffffffffffffffffffff1681526020019060010190808311614df5575b50505050509050919050565b60086020528060005260406000206000915054906101000a900460ff1681565b6000601154905090565b60278181548110614e8557600080fd5b9060005260206000209060030201600091509050806000015490806001018054614eae906186d4565b80601f0160208091040260200160405190810160405280929190818152602001828054614eda906186d4565b8015614f275780601f10614efc57610100808354040283529160200191614f27565b820191906000526020600020905b815481529060010190602001808311614f0a57829003601f168201915b5050505050908060020160009054906101000a900460ff16905083565b6000801b614f5181615dd9565b600860008373ffffffffffffffffffffffffffffffffffffffff1673ffffffffffffffffffffffffffffffffffffffff16815260200190815260200160002060009054906101000a900460ff16614fdd576040517f08c379a0000000000000000000000000000000000000000000000000000000008152600401614fd4906197d3565b60405180910390fd5b60005b600680549050811015615163578273ffffffffffffffffffffffffffffffffffffffff166006828154811061501857615017618676565b5b9060005260206000200160009054906101000a900473ffffffffffffffffffffffffffffffffffffffff1673ffffffffffffffffffffffffffffffffffffffff1603615156576006600160068054905061507291906194e9565b8154811061508357615082618676565b5b9060005260206000200160009054906101000a900473ffffffffffffffffffffffffffffffffffffffff16600682815481106150c2576150c1618676565b5b9060005260206000200160006101000a81548173ffffffffffffffffffffffffffffffffffffffff021916908373ffffffffffffffffffffffffffffffffffffffff160217905550600680548061511c5761511b6197f3565b5b6001900381819060005260206000200160006101000a81549073ffffffffffffffffffffffffffffffffffffffff02191690559055615163565b8080600101915050614fe0565b506000600860008473ffffffffffffffffffffffffffffffffffffffff1673ffffffffffffffffffffffffffffffffffffffff16815260200190815260200160002060006101000a81548160ff0219169083151502179055506151e67fc10c77be35aff266144ed64c26a1fa104bae2f284ae99ac4a34203454704a18583615edf565b508173ffffffffffffffffffffffffffffffffffffffff167f55dba9d79522b91b615629d5f3b10c2fad2d258f1768614f4a52e937ada0d0ba60405160405180910390a25050565b60256020528160005260406000206020528060005260406000206000915091509054906101000a900460ff1681565b6021600085815260200190815260200160002060030160009054906101000a900460ff166152c0576040517f08c379a00000000000000000000000000000000000000000000000000000000081526004016152b790619569565b60405180910390fd5b600082511180156152d357506004825111155b615312576040517f08c379a00000000000000000000000000000000000000000000000000000000081526004016153099061986e565b60405180910390fd5b81518160ff1610615358576040517f08c379a000000000000000000000000000000000000000000000000000000000815260040161534f906198da565b60405180910390fd5b600060175490506000602160008781526020019081526020016000206002016001816001815401808255809150500390600052602060002090600302019050818160000181905550848160010190816153b19190618a80565b50806022600084815260200190815260200160002060008201548160000155600182018160010190816153e49190618e7a565b5060028201816002019080546153fb929190616b7e565b509050506017600081548092919061541290618b52565b9190505550602b81908060018154018082558091505060019003906000526020600020906003020160009091909190915060008201548160000155600182018160010190816154619190618e7a565b506002820181600201908054615478929190616b7e565b5050507fa5bdacf4d1324fdd584bc65cf0315e4975d00b33a7ca0e6d0a73c88df8430b958683876040516154ae939291906198fa565b60405180910390a160005b84518160ff16101561566f576000601854905060006040518060400160405280888560ff16815181106154ef576154ee618676565b5b602002602001015181526020018760ff168560ff16141515815250905083600201819080600181540180825580915050600190039060005260206000209060020201600090919091909150600082015181600001908161554f9190618a80565b5060208201518160010160006101000a81548160ff02191690831515021790555050506022600086815260200190815260200160002060020181908060018154018082558091505060019003906000526020600020906002020160009091909190915060008201518160000190816155c79190618a80565b5060208201518160010160006101000a81548160ff0219169083151502179055505050601860008154809291906155fd90618b52565b91905055507f06ef0ba2ad58c9f8eef2fc98c08fd18d801c4a971eeb45afd07f0fee3f9d60c48583898660ff168151811061563b5761563a618676565b5b6020026020010151604051615652939291906198fa565b60405180910390a15050808061566790619938565b9150506154b9565b50505050505050565b615681826116d7565b61568a81615dd9565b6156948383615edf565b50505050565b674563918244f4000081565b6000600160008473ffffffffffffffffffffffffffffffffffffffff1673ffffffffffffffffffffffffffffffffffffffff16815260200190815260200160002060008373ffffffffffffffffffffffffffffffffffffffff1673ffffffffffffffffffffffffffffffffffffffff16815260200190815260200160002054905092915050565b6029818154811061573d57600080fd5b9060005260206000209060030201600091509050806000018054615760906186d4565b80601f016020809104026020016040519081016040528092919081815260200182805461578c906186d4565b80156157d95780601f106157ae576101008083540402835291602001916157d9565b820191906000526020600020905b8154815290600101906020018083116157bc57829003601f168201915b5050505050908060010180546157ee906186d4565b80601f016020809104026020016040519081016040528092919081815260200182805461581a906186d4565b80156158675780601f1061583c57610100808354040283529160200191615867565b820191906000526020600020905b81548152906001019060200180831161584a57829003601f168201915b50505050509080600201805461587c906186d4565b80601f01602080910402602001604051908101604052809291908181526020018280546158a8906186d4565b80156158f55780601f106158ca576101008083540402835291602001916158f5565b820191906000526020600020905b8154815290600101906020018083116158d857829003601f168201915b5050505050905083565b6000600b60000154905090565b60165481565b60175481565b6000615922615bda565b6019600083815260200190815260200160002060030160009054906101000a900460ff16615985576040517f08c379a000000000000000000000000000000000000000000000000000000000815260040161597c906199ad565b60405180910390fd5b6025600083815260200190815260200160002060003373ffffffffffffffffffffffffffffffffffffffff1673ffffffffffffffffffffffffffffffffffffffff16815260200190815260200160002060009054906101000a900460ff1615615a23576040517f08c379a0000000000000000000000000000000000000000000000000000000008152600401615a1a90619a3f565b60405180910390fd5b60016025600084815260200190815260200160002060003373ffffffffffffffffffffffffffffffffffffffff1673ffffffffffffffffffffffffffffffffffffffff16815260200190815260200160002060006101000a81548160ff021916908315150217905550615a9e33671bc16d674ec800006161f7565b503373ffffffffffffffffffffffffffffffffffffffff16827f4bf249f6b0ca5630ea4816c04b928b864a2065cb51658fd6223d83b727fd326b60405160405180910390a360019050615aef615c47565b919050565b6000615b207fc10c77be35aff266144ed64c26a1fa104bae2f284ae99ac4a34203454704a1858361397a565b9050919050565b601c6020528160005260406000206020528060005260406000206000915091509054906101000a900460ff1681565b60007f01ffc9a7000000000000000000000000000000000000000000000000000000007bffffffffffffffffffffffffffffffffffffffffffffffffffffffff1916827bffffffffffffffffffffffffffffffffffffffffffffffffffffffff1916149050919050565b600033905090565b615bd583838360016162e4565b505050565b6002600a5403615c16576040517f3ee5aeb500000000000000000000000000000000000000000000000000000000815260040160405180910390fd5b6002600a81905550565b615c2a82826164bb565b8060116000828254615c3c91906194e9565b925050819055505050565b6001600a81905550565b6000615c5d84846156a6565b90507fffffffffffffffffffffffffffffffffffffffffffffffffffffffffffffffff8114615cdf5781811015615ccf578281836040517ffb8f41b2000000000000000000000000000000000000000000000000000000008152600401615cc693929190619a5f565b60405180910390fd5b615cde848484840360006162e4565b5b50505050565b600073ffffffffffffffffffffffffffffffffffffffff168373ffffffffffffffffffffffffffffffffffffffff1603615d575760006040517f96c6fd1e000000000000000000000000000000000000000000000000000000008152600401615d4e919061724f565b60405180910390fd5b600073ffffffffffffffffffffffffffffffffffffffff168273ffffffffffffffffffffffffffffffffffffffff1603615dc95760006040517fec442f05000000000000000000000000000000000000000000000000000000008152600401615dc0919061724f565b60405180910390fd5b615dd4838383616562565b505050565b615dea81615de5615bc0565b616787565b50565b6000615df9838361397a565b615ed45760016005600085815260200190815260200160002060000160008473ffffffffffffffffffffffffffffffffffffffff1673ffffffffffffffffffffffffffffffffffffffff16815260200190815260200160002060006101000a81548160ff021916908315150217905550615e71615bc0565b73ffffffffffffffffffffffffffffffffffffffff168273ffffffffffffffffffffffffffffffffffffffff16847f2f8788117e7eff1d82e926ec794901d17c78024a50270940304540a733656f0d60405160405180910390a460019050615ed9565b600090505b92915050565b6000615eeb838361397a565b15615fc75760006005600085815260200190815260200160002060000160008473ffffffffffffffffffffffffffffffffffffffff1673ffffffffffffffffffffffffffffffffffffffff16815260200190815260200160002060006101000a81548160ff021916908315150217905550615f64615bc0565b73ffffffffffffffffffffffffffffffffffffffff168273ffffffffffffffffffffffffffffffffffffffff16847ff6391f5c32d9c69d2a47ea670b442974b53935d1edc7fd64eb21e047a839171b60405160405180910390a460019050615fcc565b600090505b92915050565b600080600090505b6023600085815260200190815260200160002080549050811015616091578273ffffffffffffffffffffffffffffffffffffffff1660236000868152602001908152602001600020828154811061603457616033618676565b5b9060005260206000200160009054906101000a900473ffffffffffffffffffffffffffffffffffffffff1673ffffffffffffffffffffffffffffffffffffffff1603616084576001915050616097565b8080600101915050615fda565b50600090505b92915050565b600a8a111580156160af5750600a8911155b80156160bc5750600a8811155b80156160c95750600a8711155b80156160d65750600a8611155b80156160e35750600a8511155b80156160f05750600a8411155b80156160fd5750600a8311155b801561610a5750600a8211155b80156161175750600a8111155b616156576040517f08c379a000000000000000000000000000000000000000000000000000000000815260040161614d90619ae2565b60405180910390fd5b50505050505050505050565b60008160090154826008015483600701548460060154856005015486600401548760030154886002015489600101548a600001546161a09190618d2a565b6161aa9190618d2a565b6161b49190618d2a565b6161be9190618d2a565b6161c89190618d2a565b6161d29190618d2a565b6161dc9190618d2a565b6161e69190618d2a565b6161f09190618d2a565b9050919050565b60006064600f6b204fce5e3e2502611000000061621491906187c6565b61621e9190618837565b616226614e6b565b836162319190618d2a565b1115616272576040517f08c379a000000000000000000000000000000000000000000000000000000000815260040161626990619b4e565b60405180910390fd5b61627c83836167d8565b50816011600082825461628f9190618d2a565b92505081905550818373ffffffffffffffffffffffffffffffffffffffff167fad6ef58d5c294f81258965738e7ae511124139834a8d0b8f8f7327086c82052a60405160405180910390a36001905092915050565b600073ffffffffffffffffffffffffffffffffffffffff168473ffffffffffffffffffffffffffffffffffffffff16036163565760006040517fe602df0500000000000000000000000000000000000000000000000000000000815260040161634d919061724f565b60405180910390fd5b600073ffffffffffffffffffffffffffffffffffffffff168373ffffffffffffffffffffffffffffffffffffffff16036163c85760006040517f94280d620000000000000000000000000000000000000000000000000000000081526004016163bf919061724f565b60405180910390fd5b81600160008673ffffffffffffffffffffffffffffffffffffffff1673ffffffffffffffffffffffffffffffffffffffff16815260200190815260200160002060008573ffffffffffffffffffffffffffffffffffffffff1673ffffffffffffffffffffffffffffffffffffffff1681526020019081526020016000208190555080156164b5578273ffffffffffffffffffffffffffffffffffffffff168473ffffffffffffffffffffffffffffffffffffffff167f8c5be1e5ebec7d5bd14f71427d1e84f3dd0314c0f7b2291e5b200ac8c7c3b925846040516164ac91906170f4565b60405180910390a35b50505050565b806164c583612efe565b1015616506576040517f08c379a00000000000000000000000000000000000000000000000000000000081526004016164fd90619bba565b60405180910390fd5b6165108282616893565b8173ffffffffffffffffffffffffffffffffffffffff167f5b5d8478b570a79ab6b3bf13ff029fba19c02ab0d54d692d4ef0d9052d5cc8508260405161655691906170f4565b60405180910390a25050565b600073ffffffffffffffffffffffffffffffffffffffff168373ffffffffffffffffffffffffffffffffffffffff16036165b45780600260008282546165a89190618d2a565b92505081905550616687565b60008060008573ffffffffffffffffffffffffffffffffffffffff1673ffffffffffffffffffffffffffffffffffffffff16815260200190815260200160002054905081811015616640578381836040517fe450d38c00000000000000000000000000000000000000000000000000000000815260040161663793929190619a5f565b60405180910390fd5b8181036000808673ffffffffffffffffffffffffffffffffffffffff1673ffffffffffffffffffffffffffffffffffffffff16815260200190815260200160002081905550505b600073ffffffffffffffffffffffffffffffffffffffff168273ffffffffffffffffffffffffffffffffffffffff16036166d0578060026000828254039250508190555061671d565b806000808473ffffffffffffffffffffffffffffffffffffffff1673ffffffffffffffffffffffffffffffffffffffff168152602001908152602001600020600082825401925050819055505b8173ffffffffffffffffffffffffffffffffffffffff168373ffffffffffffffffffffffffffffffffffffffff167fddf252ad1be2c89b69c2b068fc378daa952ba7f163c4a11628f55a4df523b3ef8360405161677a91906170f4565b60405180910390a3505050565b616791828261397a565b6167d45780826040517fe2517d3f0000000000000000000000000000000000000000000000000000000081526004016167cb929190619bda565b60405180910390fd5b5050565b60006b204fce5e3e250261100000006167ef6114e8565b836167fa9190618d2a565b111561683b576040517f08c379a000000000000000000000000000000000000000000000000000000000815260040161683290619b4e565b60405180910390fd5b6168458383616915565b818373ffffffffffffffffffffffffffffffffffffffff167fcda531bfd68624f13205c0a23cd4d5a7f09792cbb399603114f2b04aaa1bf5cf60405160405180910390a36001905092915050565b600073ffffffffffffffffffffffffffffffffffffffff168273ffffffffffffffffffffffffffffffffffffffff16036169055760006040517f96c6fd1e0000000000000000000000000000000000000000000000000000000081526004016168fc919061724f565b60405180910390fd5b61691182600083616562565b5050565b600073ffffffffffffffffffffffffffffffffffffffff168273ffffffffffffffffffffffffffffffffffffffff16036169875760006040517fec442f0500000000000000000000000000000000000000000000000000000000815260040161697e919061724f565b60405180910390fd5b61699360008383616562565b5050565b6040518060c0016040528060008152602001606081526020016060815260200160001515815260200160008152602001600073ffffffffffffffffffffffffffffffffffffffff1681525090565b82600a6003028101928215616a56579160030282015b82811115616a5557828260008201816000019081616a199190618e7a565b5060018201816001019081616a2e9190618e7a565b5060028201816002019081616a439190618e7a565b505050916003019190600301906169fb565b5b509050616a639190616c18565b5090565b828054828255906000526020600020906003028101928215616ae45760005260206000209160030282015b82811115616ae35782826000820154816000015560018201816001019081616aba9190618e7a565b506002820181600201908054616ad1929190616b7e565b50505091600301919060030190616a92565b5b509050616af19190616c5f565b5090565b5080546000825590600052602060002090810190616b139190616c9e565b50565b6040518060c00160405280600081526020016060815260200160608152602001616b3e616cbb565b8152602001600081526020016000151581525090565b60405180608001604052806000815260200160608152602001606081526020016000151581525090565b828054828255906000526020600020906002028101928215616c075760005260206000209160020282015b82811115616c0657828260008201816000019081616bc79190618e7a565b506001820160009054906101000a900460ff168160010160006101000a81548160ff021916908315150217905550505091600201919060020190616ba9565b5b509050616c149190616ce9565b5090565b5b80821115616c5b5760008082016000616c329190616d24565b600182016000616c429190616d24565b600282016000616c529190616d24565b50600301616c19565b5090565b5b80821115616c9a57600080820160009055600182016000616c819190616d24565b600282016000616c919190616d64565b50600301616c60565b5090565b5b80821115616cb7576000816000905550600101616c9f565b5090565b604051806101400160405280600a905b616cd3616d88565b815260200190600190039081616ccb5790505090565b5b80821115616d205760008082016000616d039190616d24565b6001820160006101000a81549060ff021916905550600201616cea565b5090565b508054616d30906186d4565b6000825580601f10616d425750616d61565b601f016020900490600052602060002090810190616d609190616c9e565b5b50565b5080546000825560020290600052602060002090810190616d859190616ce9565b50565b60405180606001604052806060815260200160608152602001606081525090565b6000604051905090565b600080fd5b600080fd5b60007fffffffff0000000000000000000000000000000000000000000000000000000082169050919050565b616df281616dbd565b8114616dfd57600080fd5b50565b600081359050616e0f81616de9565b92915050565b600060208284031215616e2b57616e2a616db3565b5b6000616e3984828501616e00565b91505092915050565b60008115159050919050565b616e5781616e42565b82525050565b6000602082019050616e726000830184616e4e565b92915050565b600081519050919050565b600082825260208201905092915050565b6000819050602082019050919050565b6000819050919050565b616eb781616ea4565b82525050565b600081519050919050565b600082825260208201905092915050565b60005b83811015616ef7578082015181840152602081019050616edc565b60008484015250505050565b6000601f19601f8301169050919050565b6000616f1f82616ebd565b616f298185616ec8565b9350616f39818560208601616ed9565b616f4281616f03565b840191505092915050565b616f5681616e42565b82525050565b600073ffffffffffffffffffffffffffffffffffffffff82169050919050565b6000616f8782616f5c565b9050919050565b616f9781616f7c565b82525050565b600060c083016000830151616fb56000860182616eae565b5060208301518482036020860152616fcd8282616f14565b91505060408301518482036040860152616fe78282616f14565b9150506060830151616ffc6060860182616f4d565b50608083015161700f6080860182616eae565b5060a083015161702260a0860182616f8e565b508091505092915050565b60006170398383616f9d565b905092915050565b6000602082019050919050565b600061705982616e78565b6170638185616e83565b93508360208202850161707585616e94565b8060005b858110156170b15784840389528151617092858261702d565b945061709d83617041565b925060208a01995050600181019050617079565b50829750879550505050505092915050565b600060208201905081810360008301526170dd818461704e565b905092915050565b6170ee81616ea4565b82525050565b600060208201905061710960008301846170e5565b92915050565b600082825260208201905092915050565b600061712b82616ebd565b617135818561710f565b9350617145818560208601616ed9565b61714e81616f03565b840191505092915050565b600060208201905081810360008301526171738184617120565b905092915050565b61718481616f7c565b811461718f57600080fd5b50565b6000813590506171a18161717b565b92915050565b6171b081616ea4565b81146171bb57600080fd5b50565b6000813590506171cd816171a7565b92915050565b600080604083850312156171ea576171e9616db3565b5b60006171f885828601617192565b9250506020617209858286016171be565b9150509250929050565b60006020828403121561722957617228616db3565b5b6000617237848285016171be565b91505092915050565b61724981616f7c565b82525050565b60006020820190506172646000830184617240565b92915050565b60008060006060848603121561728357617282616db3565b5b600061729186828701617192565b93505060206172a286828701617192565b92505060406172b3868287016171be565b9150509250925092565b6000819050919050565b6172d0816172bd565b81146172db57600080fd5b50565b6000813590506172ed816172c7565b92915050565b60006020828403121561730957617308616db3565b5b6000617317848285016172de565b91505092915050565b617329816172bd565b82525050565b60006020820190506173446000830184617320565b92915050565b600060608201905061735f60008301866170e5565b81810360208301526173718185617120565b90506173806040830184616e4e565b949350505050565b600060c08201905061739d60008301896170e5565b81810360208301526173af8188617120565b905081810360408301526173c38187617120565b90506173d26060830186616e4e565b6173df60808301856170e5565b6173ec60a0830184617240565b979650505050505050565b600060a08201905061740c60008301886170e5565b818103602083015261741e8187617120565b905081810360408301526174328186617120565b905061744160608301856170e5565b61744e6080830184616e4e565b9695505050505050565b6000806040838503121561746f5761746e616db3565b5b600061747d858286016172de565b925050602061748e85828601617192565b9150509250929050565b600080fd5b7f4e487b7100000000000000000000000000000000000000000000000000000000600052604160045260246000fd5b6174d582616f03565b810181811067ffffffffffffffff821117156174f4576174f361749d565b5b80604052505050565b6000617507616da9565b905061751382826174cc565b919050565b600067ffffffffffffffff8211156175335761753261749d565b5b602082029050602081019050919050565b600080fd5b600080fd5b600067ffffffffffffffff8211156175695761756861749d565b5b61757282616f03565b9050602081019050919050565b82818337600083830152505050565b60006175a161759c8461754e565b6174fd565b9050828152602081018484840111156175bd576175bc617549565b5b6175c884828561757f565b509392505050565b600082601f8301126175e5576175e4617498565b5b81356175f584826020860161758e565b91505092915050565b600061761161760c84617518565b6174fd565b9050808382526020820190506020840283018581111561763457617633617544565b5b835b8181101561767b57803567ffffffffffffffff81111561765957617658617498565b5b80860161766689826175d0565b85526020850194505050602081019050617636565b5050509392505050565b600082601f83011261769a57617699617498565b5b81356176aa8482602086016175fe565b91505092915050565b600080604083850312156176ca576176c9616db3565b5b60006176d8858286016171be565b925050602083013567ffffffffffffffff8111156176f9576176f8616db8565b5b61770585828601617685565b9150509250929050565b600060ff82169050919050565b6177258161770f565b82525050565b6000602082019050617740600083018461771c565b92915050565b600060408201905061775b60008301856170e5565b818103602083015261776d8184617120565b90509392505050565b60006020828403121561778c5761778b616db3565b5b600061779a84828501617192565b91505092915050565b600081519050919050565b600082825260208201905092915050565b60006177ca826177a3565b6177d481856177ae565b93506177e4818560208601616ed9565b6177ed81616f03565b840191505092915050565b600060c08201905061780d60008301896170e5565b61781a6020830188617240565b6178276040830187617240565b818103606083015261783981866177bf565b905061784860808301856170e5565b61785560a0830184616e4e565b979650505050505050565b6000806040838503121561787757617876616db3565b5b6000617885858286016171be565b9250506020617896858286016171be565b9150509250929050565b60008060008060008060008060008060006101608c8e0312156178c6576178c5616db3565b5b60006178d48e828f016171be565b9b505060206178e58e828f016171be565b9a505060406178f68e828f016171be565b99505060606179078e828f016171be565b98505060806179188e828f016171be565b97505060a06179298e828f016171be565b96505060c061793a8e828f016171be565b95505060e061794b8e828f016171be565b94505061010061795d8e828f016171be565b93505061012061796f8e828f016171be565b9250506101406179818e828f016171be565b9150509295989b509295989b9093969950565b600080fd5b60008083601f8401126179af576179ae617498565b5b8235905067ffffffffffffffff8111156179cc576179cb617994565b5b6020830191508360208202830111156179e8576179e7617544565b5b9250929050565b600080600060408486031215617a0857617a07616db3565b5b6000617a16868287016171be565b935050602084013567ffffffffffffffff811115617a3757617a36616db8565b5b617a4386828701617999565b92509250509250925092565b60008060408385031215617a6657617a65616db3565b5b6000617a74858286016171be565b925050602083013567ffffffffffffffff811115617a9557617a94616db8565b5b617aa1858286016175d0565b9150509250929050565b600081519050919050565b600082825260208201905092915050565b6000819050602082019050919050565b600081519050919050565b600082825260208201905092915050565b6000819050602082019050919050565b600081519050919050565b600082825260208201905092915050565b6000819050602082019050919050565b60006040830160008301518482036000860152617b4c8282616f14565b9150506020830151617b616020860182616f4d565b508091505092915050565b6000617b788383617b2f565b905092915050565b6000602082019050919050565b6000617b9882617b03565b617ba28185617b0e565b935083602082028501617bb485617b1f565b8060005b85811015617bf05784840389528151617bd18582617b6c565b9450617bdc83617b80565b925060208a01995050600181019050617bb8565b50829750879550505050505092915050565b6000606083016000830151617c1a6000860182616eae565b5060208301518482036020860152617c328282616f14565b91505060408301518482036040860152617c4c8282617b8d565b9150508091505092915050565b6000617c658383617c02565b905092915050565b6000602082019050919050565b6000617c8582617ad7565b617c8f8185617ae2565b935083602082028501617ca185617af3565b8060005b85811015617cdd5784840389528151617cbe8582617c59565b9450617cc983617c6d565b925060208a01995050600181019050617ca5565b50829750879550505050505092915050565b6000608083016000830151617d076000860182616eae565b5060208301518482036020860152617d1f8282616f14565b91505060408301518482036040860152617d398282617c7a565b9150506060830151617d4e6060860182616f4d565b508091505092915050565b6000617d658383617cef565b905092915050565b6000602082019050919050565b6000617d8582617aab565b617d8f8185617ab6565b935083602082028501617da185617ac7565b8060005b85811015617ddd5784840389528151617dbe8582617d59565b9450617dc983617d6d565b925060208a01995050600181019050617da5565b50829750879550505050505092915050565b60006020820190508181036000830152617e098184617d7a565b905092915050565b600080600060608486031215617e2a57617e29616db3565b5b6000617e38868287016171be565b935050602084013567ffffffffffffffff811115617e5957617e58616db8565b5b617e65868287016175d0565b925050604084013567ffffffffffffffff811115617e8657617e85616db8565b5b617e92868287016175d0565b9150509250925092565b60008060408385031215617eb357617eb2616db3565b5b600083013567ffffffffffffffff811115617ed157617ed0616db8565b5b617edd858286016175d0565b925050602083013567ffffffffffffffff811115617efe57617efd616db8565b5b617f0a858286016175d0565b9150509250929050565b600081519050919050565b600082825260208201905092915050565b6000819050602082019050919050565b6000600a9050919050565b600081905092915050565b6000819050919050565b60006060830160008301518482036000860152617f7d8282616f14565b91505060208301518482036020860152617f978282616f14565b91505060408301518482036040860152617fb18282616f14565b9150508091505092915050565b6000617fca8383617f60565b905092915050565b6000602082019050919050565b6000617fea82617f40565b617ff48185617f4b565b93508360208202850161800685617f56565b8060005b8581101561804257848403895281516180238582617fbe565b945061802e83617fd2565b925060208a0199505060018101905061800a565b50829750879550505050505092915050565b600060c08301600083015161806c6000860182616eae565b50602083015184820360208601526180848282616f14565b9150506040830151848203604086015261809e8282616f14565b915050606083015184820360608601526180b88282617fdf565b91505060808301516180cd6080860182616eae565b5060a08301516180e060a0860182616f4d565b508091505092915050565b60006180f78383618054565b905092915050565b6000602082019050919050565b600061811782617f14565b6181218185617f1f565b93508360208202850161813385617f30565b8060005b8581101561816f578484038952815161815085826180eb565b945061815b836180ff565b925060208a01995050600181019050618137565b50829750879550505050505092915050565b6000602082019050818103600083015261819b818461810c565b905092915050565b60006080830160008301516181bb6000860182616eae565b50602083015184820360208601526181d38282616f14565b915050604083015184820360408601526181ed8282617c7a565b91505060608301516182026060860182616f4d565b508091505092915050565b6000602082019050818103600083015261822781846181a3565b905092915050565b600081519050919050565b600082825260208201905092915050565b6000819050602082019050919050565b60006060830160008301516182736000860182616eae565b506020830151848203602086015261828b8282616f14565b91505060408301516182a06040860182616f4d565b508091505092915050565b60006182b7838361825b565b905092915050565b6000602082019050919050565b60006182d78261822f565b6182e1818561823a565b9350836020820285016182f38561824b565b8060005b8581101561832f578484038952815161831085826182ab565b945061831b836182bf565b925060208a019950506001810190506182f7565b50829750879550505050505092915050565b6000602082019050818103600083015261835b81846182cc565b905092915050565b6000806040838503121561837a57618379616db3565b5b6000618388858286016171be565b925050602061839985828601617192565b9150509250929050565b6000610160820190506183b9600083018e6170e5565b6183c6602083018d6170e5565b6183d3604083018c6170e5565b6183e0606083018b6170e5565b6183ed608083018a6170e5565b6183fa60a08301896170e5565b61840760c08301886170e5565b61841460e08301876170e5565b6184226101008301866170e5565b6184306101208301856170e5565b61843e610140830184616e4e565b9c9b505050505050505050505050565b600081519050919050565b600082825260208201905092915050565b6000819050602082019050919050565b60006184868383616f8e565b60208301905092915050565b6000602082019050919050565b60006184aa8261844e565b6184b48185618459565b93506184bf8361846a565b8060005b838110156184f05781516184d7888261847a565b97506184e283618492565b9250506001810190506184c3565b5085935050505092915050565b60006020820190508181036000830152618517818461849f565b905092915050565b6185288161770f565b811461853357600080fd5b50565b6000813590506185458161851f565b92915050565b6000806000806080858703121561856557618564616db3565b5b6000618573878288016171be565b945050602085013567ffffffffffffffff81111561859457618593616db8565b5b6185a0878288016175d0565b935050604085013567ffffffffffffffff8111156185c1576185c0616db8565b5b6185cd87828801617685565b92505060606185de87828801618536565b91505092959194509250565b6000806040838503121561860157618600616db3565b5b600061860f85828601617192565b925050602061862085828601617192565b9150509250929050565b600060608201905081810360008301526186448186617120565b905081810360208301526186588185617120565b9050818103604083015261866c8184617120565b9050949350505050565b7f4e487b7100000000000000000000000000000000000000000000000000000000600052603260045260246000fd5b7f4e487b7100000000000000000000000000000000000000000000000000000000600052602260045260246000fd5b600060028204905060018216806186ec57607f821691505b6020821081036186ff576186fe6186a5565b5b50919050565b7f596f7520617265206e6f7420656e726f6c6c656420696e207468697320636f7560008201527f7273652100000000000000000000000000000000000000000000000000000000602082015250565b600061876160248361710f565b915061876c82618705565b604082019050919050565b6000602082019050818103600083015261879081618754565b9050919050565b7f4e487b7100000000000000000000000000000000000000000000000000000000600052601160045260246000fd5b60006187d182616ea4565b91506187dc83616ea4565b92508282026187ea81616ea4565b9150828204841483151761880157618800618797565b5b5092915050565b7f4e487b7100000000000000000000000000000000000000000000000000000000600052601260045260246000fd5b600061884282616ea4565b915061884d83616ea4565b92508261885d5761885c618808565b5b828204905092915050565b7f436f7572736520646f6573206e6f742065786973742100000000000000000000600082015250565b600061889e60168361710f565b91506188a982618868565b602082019050919050565b600060208201905081810360008301526188cd81618891565b9050919050565b60008190508160005260206000209050919050565b60006020601f8301049050919050565b600082821b905092915050565b6000600883026189367fffffffffffffffffffffffffffffffffffffffffffffffffffffffffffffffff826188f9565b61894086836188f9565b95508019841693508086168417925050509392505050565b6000819050919050565b600061897d61897861897384616ea4565b618958565b616ea4565b9050919050565b6000819050919050565b61899783618962565b6189ab6189a382618984565b848454618906565b825550505050565b600090565b6189c06189b3565b6189cb81848461898e565b505050565b5b818110156189ef576189e46000826189b8565b6001810190506189d1565b5050565b601f821115618a3457618a05816188d4565b618a0e846188e9565b81016020851015618a1d578190505b618a31618a29856188e9565b8301826189d0565b50505b505050565b600082821c905092915050565b6000618a5760001984600802618a39565b1980831691505092915050565b6000618a708383618a46565b9150826002028217905092915050565b618a8982616ebd565b67ffffffffffffffff811115618aa257618aa161749d565b5b618aac82546186d4565b618ab78282856189f3565b600060209050601f831160018114618aea5760008415618ad8578287015190505b618ae28582618a64565b865550618b4a565b601f198416618af8866188d4565b60005b82811015618b2057848901518255600182019150602085019450602081019050618afb565b86831015618b3d5784890151618b39601f891682618a46565b8355505b6001600288020188555050505b505050505050565b6000618b5d82616ea4565b91507fffffffffffffffffffffffffffffffffffffffffffffffffffffffffffffffff8203618b8f57618b8e618797565b5b600182019050919050565b7f4e6f742073656c6563746564206173206120726576696577657220666f72207460008201527f68697320636f7572736500000000000000000000000000000000000000000000602082015250565b6000618bf6602a8361710f565b9150618c0182618b9a565b604082019050919050565b60006020820190508181036000830152618c2581618be9565b9050919050565b7f52657669657720616c7265616479207375626d6974746564206279207468697360008201527f2072657669657765722e00000000000000000000000000000000000000000000602082015250565b6000618c88602a8361710f565b9150618c9382618c2c565b604082019050919050565b60006020820190508181036000830152618cb781618c7b565b9050919050565b7f4c6573736f6e20646f6573206e6f742065786973742100000000000000000000600082015250565b6000618cf460168361710f565b9150618cff82618cbe565b602082019050919050565b60006020820190508181036000830152618d2381618ce7565b9050919050565b6000618d3582616ea4565b9150618d4083616ea4565b9250828201905080821115618d5857618d57618797565b5b92915050565b7f45786365656473206d6178696d756d207265736f757263657321000000000000600082015250565b6000618d94601a8361710f565b9150618d9f82618d5e565b602082019050919050565b60006020820190508181036000830152618dc381618d87565b9050919050565b600080fd5b600080fd5b600080fd5b600082356001606003833603038112618df557618df4618dca565b5b80830191505092915050565b60008083356001602003843603038112618e1e57618e1d618dca565b5b80840192508235915067ffffffffffffffff821115618e4057618e3f618dcf565b5b602083019250600182023603831315618e5c57618e5b618dd4565b5b509250929050565b600081549050618e73816186d4565b9050919050565b818103618e88575050618f60565b618e9182618e64565b67ffffffffffffffff811115618eaa57618ea961749d565b5b618eb482546186d4565b618ebf8282856189f3565b6000601f831160018114618eee5760008415618edc578287015490505b618ee68582618a64565b865550618f59565b601f198416618efc876188d4565b9650618f07866188d4565b60005b82811015618f2f57848901548255600182019150600185019450602081019050618f0a565b86831015618f4c5784890154618f48601f891682618a46565b8355505b6001600288020188555050505b5050505050505b565b7f4c6573736f6e20446f6573206e6f742065786973742100000000000000000000600082015250565b6000618f9860168361710f565b9150618fa382618f62565b602082019050919050565b60006020820190508181036000830152618fc781618f8b565b9050919050565b600081905092915050565b6000618fe482616ebd565b618fee8185618fce565b9350618ffe818560208601616ed9565b80840191505092915050565b60006190168284618fd9565b915081905092915050565b7f416c726561647920696e20726576696577657220706f6f6c0000000000000000600082015250565b600061905760188361710f565b915061906282619021565b602082019050919050565b600060208201905081810360008301526190868161904a565b9050919050565b7f436f7572736520616c726561647920617070726f766564000000000000000000600082015250565b60006190c360178361710f565b91506190ce8261908d565b602082019050919050565b600060208201905081810360008301526190f2816190b6565b9050919050565b7f596f75206861766520616c726561647920617070726f7665642074686973206360008201527f6f75727365000000000000000000000000000000000000000000000000000000602082015250565b600061915560258361710f565b9150619160826190f9565b604082019050919050565b6000602082019050818103600083015261918481619148565b9050919050565b7f4368617074657220646f6573206e6f7420657869737421000000000000000000600082015250565b60006191c160178361710f565b91506191cc8261918b565b602082019050919050565b600060208201905081810360008301526191f0816191b4565b9050919050565b7f52657669657765727320616c72656164792073656c6563746564000000000000600082015250565b600061922d601a8361710f565b9150619238826191f7565b602082019050919050565b6000602082019050818103600083015261925c81619220565b9050919050565b7f4e6f7420656e6f7567682072657669657765727320696e2074686520706f6f6c600082015250565b600061929960208361710f565b91506192a482619263565b602082019050919050565b600060208201905081810360008301526192c88161928c565b9050919050565b6000819050919050565b6192ea6192e582616ea4565b6192cf565b82525050565b60006192fc82876192d9565b60208201915061930c82866192d9565b60208201915061931c82856192d9565b60208201915061932c82846192d9565b60208201915081905095945050505050565b600061934982616ea4565b915061935483616ea4565b92508261936457619363618808565b5b828206905092915050565b600081549050919050565b60008190508160005260206000209050919050565b60008160001c9050919050565b600073ffffffffffffffffffffffffffffffffffffffff82169050919050565b60006193cf6193ca8361938f565b61939c565b9050919050565b60006193e282546193bc565b9050919050565b6000600182019050919050565b60006194018261936f565b61940b8185618459565b93506194168361937a565b8060005b8381101561944e5761942b826193d6565b619435888261847a565b9750619440836193e9565b92505060018101905061941a565b5085935050505092915050565b6000602082019050818103600083015261947581846193f6565b905092915050565b7f436f7572736520494420616c7265616479206578697374730000000000000000600082015250565b60006194b360188361710f565b91506194be8261947d565b602082019050919050565b600060208201905081810360008301526194e2816194a6565b9050919050565b60006194f482616ea4565b91506194ff83616ea4565b925082820390508181111561951757619516618797565b5b92915050565b7f5175697a20646f6573206e6f7420657869737400000000000000000000000000600082015250565b600061955360138361710f565b915061955e8261951d565b602082019050919050565b6000602082019050818103600083015261958281619546565b9050919050565b7f50726f706f73616c20616c726561647920657865637574656400000000000000600082015250565b60006195bf60198361710f565b91506195ca82619589565b602082019050919050565b600060208201905081810360008301526195ee816195b2565b9050919050565b7f416c726561647920617070726f76656400000000000000000000000000000000600082015250565b600061962b60108361710f565b9150619636826195f5565b602082019050919050565b6000602082019050818103600083015261965a8161961e565b9050919050565b600081905092915050565b60008190508160005260206000209050919050565b6000815461968e816186d4565b6196988186619661565b945060018216600081146196b357600181146196c8576196fb565b60ff19831686528115158202860193506196fb565b6196d18561966c565b60005b838110156196f3578154818901526001820191506020810190506196d4565b838801955050505b50505092915050565b60006197108284619681565b915081905092915050565b7f50726f706f73616c20657865637574696f6e206661696c656400000000000000600082015250565b600061975160198361710f565b915061975c8261971b565b602082019050919050565b6000602082019050818103600083015261978081619744565b9050919050565b7f4e6f7420696e20726576696577657220706f6f6c000000000000000000000000600082015250565b60006197bd60148361710f565b91506197c882619787565b602082019050919050565b600060208201905081810360008301526197ec816197b0565b9050919050565b7f4e487b7100000000000000000000000000000000000000000000000000000000600052603160045260246000fd5b7f496e76616c6964206e756d626572206f662063686f6963657300000000000000600082015250565b600061985860198361710f565b915061986382619822565b602082019050919050565b600060208201905081810360008301526198878161984b565b9050919050565b7f496e76616c696420636f72726563742063686f69636520696e64657800000000600082015250565b60006198c4601c8361710f565b91506198cf8261988e565b602082019050919050565b600060208201905081810360008301526198f3816198b7565b9050919050565b600060608201905061990f60008301866170e5565b61991c60208301856170e5565b818103604083015261992e8184617120565b9050949350505050565b60006199438261770f565b915060ff820361995657619955618797565b5b600182019050919050565b7f436f75727365206e6f742079657420617070726f766564210000000000000000600082015250565b600061999760188361710f565b91506199a282619961565b602082019050919050565b600060208201905081810360008301526199c68161998a565b9050919050565b7f596f752061726520616c726561647920656e726f6c6c656420696e746f20746860008201527f697320636f757273650000000000000000000000000000000000000000000000602082015250565b6000619a2960298361710f565b9150619a34826199cd565b604082019050919050565b60006020820190508181036000830152619a5881619a1c565b9050919050565b6000606082019050619a746000830186617240565b619a8160208301856170e5565b619a8e60408301846170e5565b949350505050565b7f53636f726573206d757374206265206265747765656e203120616e642031302e600082015250565b6000619acc60208361710f565b9150619ad782619a96565b602082019050919050565b60006020820190508181036000830152619afb81619abf565b9050919050565b7f4c696d6974204578636565646564210000000000000000000000000000000000600082015250565b6000619b38600f8361710f565b9150619b4382619b02565b602082019050919050565b60006020820190508181036000830152619b6781619b2b565b9050919050565b7f496e73756666696369656e742062616c616e6365000000000000000000000000600082015250565b6000619ba460148361710f565b9150619baf82619b6e565b602082019050919050565b60006020820190508181036000830152619bd381619b97565b9050919050565b6000604082019050619bef6000830185617240565b619bfc6020830184617320565b939250505056fea26469706673582212205ed6152cdc5360ad4cdd1a8c76b1bcba1dc7ecc63d5bfa33ed3601078fa3da9364736f6c634300081b0033",
  "linkReferences": {},
  "deployedLinkReferences": {}
}