{
  "_format": "hh-sol-artifact-1",
  "contractName": "Ecosystem2",
  "sourceName": "contracts/Ecosystem Contracts/Ecosystem2.sol",
  "abi": [
    {
      "inputs": [
        {
          "internalType": "address[]",
          "name": "_reviewers",
          "type": "address[]"
        }
      ],
      "stateMutability": "nonpayable",
      "type": "constructor"
    },
    {
      "inputs": [],
      "name": "AccessControlBadConfirmation",
      "type": "error"
    },
    {
      "inputs": [
        {
          "internalType": "address",
          "name": "account",
          "type": "address"
        },
        {
          "internalType": "bytes32",
          "name": "neededRole",
          "type": "bytes32"
        }
      ],
      "name": "AccessControlUnauthorizedAccount",
      "type": "error"
    },
    {
      "inputs": [
        {
          "internalType": "address",
          "name": "spender",
          "type": "address"
        },
        {
          "internalType": "uint256",
          "name": "allowance",
          "type": "uint256"
        },
        {
          "internalType": "uint256",
          "name": "needed",
          "type": "uint256"
        }
      ],
      "name": "ERC20InsufficientAllowance",
      "type": "error"
    },
    {
      "inputs": [
        {
          "internalType": "address",
          "name": "sender",
          "type": "address"
        },
        {
          "internalType": "uint256",
          "name": "balance",
          "type": "uint256"
        },
        {
          "internalType": "uint256",
          "name": "needed",
          "type": "uint256"
        }
      ],
      "name": "ERC20InsufficientBalance",
      "type": "error"
    },
    {
      "inputs": [
        {
          "internalType": "address",
          "name": "approver",
          "type": "address"
        }
      ],
      "name": "ERC20InvalidApprover",
      "type": "error"
    },
    {
      "inputs": [
        {
          "internalType": "address",
          "name": "receiver",
          "type": "address"
        }
      ],
      "name": "ERC20InvalidReceiver",
      "type": "error"
    },
    {
      "inputs": [
        {
          "internalType": "address",
          "name": "sender",
          "type": "address"
        }
      ],
      "name": "ERC20InvalidSender",
      "type": "error"
    },
    {
      "inputs": [
        {
          "internalType": "address",
          "name": "spender",
          "type": "address"
        }
      ],
      "name": "ERC20InvalidSpender",
      "type": "error"
    },
    {
      "inputs": [],
      "name": "ReentrancyGuardReentrantCall",
      "type": "error"
    },
    {
      "anonymous": false,
      "inputs": [
        {
          "indexed": true,
          "internalType": "address",
          "name": "owner",
          "type": "address"
        },
        {
          "indexed": true,
          "internalType": "address",
          "name": "spender",
          "type": "address"
        },
        {
          "indexed": false,
          "internalType": "uint256",
          "name": "value",
          "type": "uint256"
        }
      ],
      "name": "Approval",
      "type": "event"
    },
    {
      "anonymous": false,
      "inputs": [
        {
          "indexed": true,
          "internalType": "address",
          "name": "_account",
          "type": "address"
        },
        {
          "indexed": false,
          "internalType": "uint256",
          "name": "_amount",
          "type": "uint256"
        }
      ],
      "name": "BurnSuccess",
      "type": "event"
    },
    {
      "anonymous": false,
      "inputs": [
        {
          "indexed": true,
          "internalType": "uint256",
          "name": "_courseId",
          "type": "uint256"
        },
        {
          "indexed": true,
          "internalType": "uint256",
          "name": "numberOfChapters",
          "type": "uint256"
        }
      ],
      "name": "ChaptersAddedSuccessfully",
      "type": "event"
    },
    {
      "anonymous": false,
      "inputs": [
        {
          "indexed": false,
          "internalType": "uint256",
          "name": "questionId",
          "type": "uint256"
        },
        {
          "indexed": false,
          "internalType": "uint256",
          "name": "choiceId",
          "type": "uint256"
        },
        {
          "indexed": false,
          "internalType": "string",
          "name": "option",
          "type": "string"
        }
      ],
      "name": "ChoiceAdded",
      "type": "event"
    },
    {
      "anonymous": false,
      "inputs": [
        {
          "indexed": true,
          "internalType": "uint256",
          "name": "_courseID",
          "type": "uint256"
        },
        {
          "indexed": true,
          "internalType": "string",
          "name": "_courseName",
          "type": "string"
        },
        {
          "indexed": false,
          "internalType": "bool",
          "name": "_approved",
          "type": "bool"
        }
      ],
      "name": "CourseCreationSuccess",
      "type": "event"
    },
    {
      "anonymous": false,
      "inputs": [
        {
          "indexed": true,
          "internalType": "address",
          "name": "_to",
          "type": "address"
        },
        {
          "indexed": true,
          "internalType": "uint256",
          "name": "_amount",
          "type": "uint256"
        }
      ],
      "name": "EcosystemPoolUpdate",
      "type": "event"
    },
    {
      "anonymous": false,
      "inputs": [
        {
          "indexed": true,
          "internalType": "uint256",
          "name": "_courseId",
          "type": "uint256"
        },
        {
          "indexed": true,
          "internalType": "address",
          "name": "_by",
          "type": "address"
        }
      ],
      "name": "EnrollmentSuccess",
      "type": "event"
    },
    {
      "anonymous": false,
      "inputs": [
        {
          "indexed": true,
          "internalType": "uint256",
          "name": "_lessonId",
          "type": "uint256"
        },
        {
          "indexed": true,
          "internalType": "string",
          "name": "_lessonName",
          "type": "string"
        },
        {
          "indexed": true,
          "internalType": "uint256",
          "name": "_additonalResources",
          "type": "uint256"
        }
      ],
      "name": "LessonCreationSuccess",
      "type": "event"
    },
    {
      "anonymous": false,
      "inputs": [
        {
          "indexed": true,
          "internalType": "address",
          "name": "_to",
          "type": "address"
        },
        {
          "indexed": true,
          "internalType": "uint256",
          "name": "_amount",
          "type": "uint256"
        }
      ],
      "name": "MintSuccess",
      "type": "event"
    },
    {
      "anonymous": false,
      "inputs": [
        {
          "indexed": true,
          "internalType": "uint256",
          "name": "proposalId",
          "type": "uint256"
        },
        {
          "indexed": false,
          "internalType": "address",
          "name": "approver",
          "type": "address"
        }
      ],
      "name": "MultiSigProposalApproved",
      "type": "event"
    },
    {
      "anonymous": false,
      "inputs": [
        {
          "indexed": true,
          "internalType": "uint256",
          "name": "proposalId",
          "type": "uint256"
        },
        {
          "indexed": false,
          "internalType": "address",
          "name": "proposer",
          "type": "address"
        }
      ],
      "name": "MultiSigProposalCreated",
      "type": "event"
    },
    {
      "anonymous": false,
      "inputs": [
        {
          "indexed": true,
          "internalType": "uint256",
          "name": "proposalId",
          "type": "uint256"
        }
      ],
      "name": "MultiSigProposalExecuted",
      "type": "event"
    },
    {
      "anonymous": false,
      "inputs": [
        {
          "indexed": false,
          "internalType": "uint256",
          "name": "quizId",
          "type": "uint256"
        },
        {
          "indexed": false,
          "internalType": "uint256",
          "name": "questionId",
          "type": "uint256"
        },
        {
          "indexed": false,
          "internalType": "string",
          "name": "questionText",
          "type": "string"
        }
      ],
      "name": "QuestionAdded",
      "type": "event"
    },
    {
      "anonymous": false,
      "inputs": [
        {
          "indexed": true,
          "internalType": "uint256",
          "name": "_quizId",
          "type": "uint256"
        },
        {
          "indexed": true,
          "internalType": "string",
          "name": "_title",
          "type": "string"
        }
      ],
      "name": "QuizCreatedSuccess",
      "type": "event"
    },
    {
      "anonymous": false,
      "inputs": [
        {
          "indexed": true,
          "internalType": "uint256",
          "name": "_lessonId",
          "type": "uint256"
        },
        {
          "indexed": true,
          "internalType": "uint256",
          "name": "resourceCount",
          "type": "uint256"
        }
      ],
      "name": "ResourceAddSuccess",
      "type": "event"
    },
    {
      "anonymous": false,
      "inputs": [
        {
          "indexed": true,
          "internalType": "address",
          "name": "reviewer",
          "type": "address"
        }
      ],
      "name": "ReviewerAddedToPool",
      "type": "event"
    },
    {
      "anonymous": false,
      "inputs": [
        {
          "indexed": true,
          "internalType": "address",
          "name": "reviewer",
          "type": "address"
        }
      ],
      "name": "ReviewerRemovedFromPool",
      "type": "event"
    },
    {
      "anonymous": false,
      "inputs": [
        {
          "indexed": true,
          "internalType": "uint256",
          "name": "courseId",
          "type": "uint256"
        },
        {
          "indexed": false,
          "internalType": "address[]",
          "name": "reviewers",
          "type": "address[]"
        }
      ],
      "name": "ReviewersSelected",
      "type": "event"
    },
    {
      "anonymous": false,
      "inputs": [
        {
          "indexed": true,
          "internalType": "bytes32",
          "name": "role",
          "type": "bytes32"
        },
        {
          "indexed": true,
          "internalType": "bytes32",
          "name": "previousAdminRole",
          "type": "bytes32"
        },
        {
          "indexed": true,
          "internalType": "bytes32",
          "name": "newAdminRole",
          "type": "bytes32"
        }
      ],
      "name": "RoleAdminChanged",
      "type": "event"
    },
    {
      "anonymous": false,
      "inputs": [
        {
          "indexed": true,
          "internalType": "bytes32",
          "name": "role",
          "type": "bytes32"
        },
        {
          "indexed": true,
          "internalType": "address",
          "name": "account",
          "type": "address"
        },
        {
          "indexed": true,
          "internalType": "address",
          "name": "sender",
          "type": "address"
        }
      ],
      "name": "RoleGranted",
      "type": "event"
    },
    {
      "anonymous": false,
      "inputs": [
        {
          "indexed": true,
          "internalType": "bytes32",
          "name": "role",
          "type": "bytes32"
        },
        {
          "indexed": true,
          "internalType": "address",
          "name": "account",
          "type": "address"
        },
        {
          "indexed": true,
          "internalType": "address",
          "name": "sender",
          "type": "address"
        }
      ],
      "name": "RoleRevoked",
      "type": "event"
    },
    {
      "anonymous": false,
      "inputs": [
        {
          "indexed": true,
          "internalType": "address",
          "name": "from",
          "type": "address"
        },
        {
          "indexed": true,
          "internalType": "address",
          "name": "to",
          "type": "address"
        },
        {
          "indexed": false,
          "internalType": "uint256",
          "name": "value",
          "type": "uint256"
        }
      ],
      "name": "Transfer",
      "type": "event"
    },
    {
      "anonymous": false,
      "inputs": [
        {
          "indexed": true,
          "internalType": "uint256",
          "name": "_courseId",
          "type": "uint256"
        },
        {
          "indexed": true,
          "internalType": "address",
          "name": "_by",
          "type": "address"
        }
      ],
      "name": "unEnrollmentSuccess",
      "type": "event"
    },
    {
      "inputs": [],
      "name": "COURSE_OWNER_ROLE",
      "outputs": [
        {
          "internalType": "bytes32",
          "name": "",
          "type": "bytes32"
        }
      ],
      "stateMutability": "view",
      "type": "function"
    },
    {
      "inputs": [],
      "name": "CREATE_COURSE_REWARD",
      "outputs": [
        {
          "internalType": "uint256",
          "name": "",
          "type": "uint256"
        }
      ],
      "stateMutability": "view",
      "type": "function"
    },
    {
      "inputs": [],
      "name": "DEFAULT_ADMIN_ROLE",
      "outputs": [
        {
          "internalType": "bytes32",
          "name": "",
          "type": "bytes32"
        }
      ],
      "stateMutability": "view",
      "type": "function"
    },
    {
      "inputs": [],
      "name": "ECOSYSTEM_POOL",
      "outputs": [
        {
          "internalType": "uint256",
          "name": "",
          "type": "uint256"
        }
      ],
      "stateMutability": "view",
      "type": "function"
    },
    {
      "inputs": [],
      "name": "ENROLLMENT_REWARD",
      "outputs": [
        {
          "internalType": "uint256",
          "name": "",
          "type": "uint256"
        }
      ],
      "stateMutability": "view",
      "type": "function"
    },
    {
      "inputs": [],
      "name": "MAX_SCORE",
      "outputs": [
        {
          "internalType": "uint256",
          "name": "",
          "type": "uint256"
        }
      ],
      "stateMutability": "view",
      "type": "function"
    },
    {
      "inputs": [],
      "name": "MAX_SUPPLY",
      "outputs": [
        {
          "internalType": "uint256",
          "name": "",
          "type": "uint256"
        }
      ],
      "stateMutability": "view",
      "type": "function"
    },
    {
      "inputs": [],
      "name": "MIN_APPROVAL_SCORE",
      "outputs": [
        {
          "internalType": "uint256",
          "name": "",
          "type": "uint256"
        }
      ],
      "stateMutability": "view",
      "type": "function"
    },
    {
      "inputs": [],
      "name": "MULTISIG_APPROVER",
      "outputs": [
        {
          "internalType": "bytes32",
          "name": "",
          "type": "bytes32"
        }
      ],
      "stateMutability": "view",
      "type": "function"
    },
    {
      "inputs": [],
      "name": "REQUIRED_APPROVALS",
      "outputs": [
        {
          "internalType": "uint256",
          "name": "",
          "type": "uint256"
        }
      ],
      "stateMutability": "view",
      "type": "function"
    },
    {
      "inputs": [],
      "name": "REVIEWER_ROLE",
      "outputs": [
        {
          "internalType": "bytes32",
          "name": "",
          "type": "bytes32"
        }
      ],
      "stateMutability": "view",
      "type": "function"
    },
    {
      "inputs": [
        {
          "internalType": "address",
          "name": "",
          "type": "address"
        }
      ],
      "name": "accountCourses",
      "outputs": [
        {
          "internalType": "uint256",
          "name": "courseCount",
          "type": "uint256"
        }
      ],
      "stateMutability": "view",
      "type": "function"
    },
    {
      "inputs": [
        {
          "internalType": "uint256",
          "name": "_courseId",
          "type": "uint256"
        },
        {
          "internalType": "string[]",
          "name": "_chapters",
          "type": "string[]"
        },
        {
          "internalType": "uint256[]",
          "name": "_durations",
          "type": "uint256[]"
        }
      ],
      "name": "addChapters",
      "outputs": [
        {
          "internalType": "bool",
          "name": "",
          "type": "bool"
        }
      ],
      "stateMutability": "nonpayable",
      "type": "function"
    },
    {
      "inputs": [
        {
          "internalType": "uint256",
          "name": "_chapterId",
          "type": "uint256"
        },
        {
          "internalType": "string",
          "name": "_lessonName",
          "type": "string"
        },
        {
          "internalType": "string",
          "name": "_lessonContent",
          "type": "string"
        }
      ],
      "name": "addLesson",
      "outputs": [],
      "stateMutability": "nonpayable",
      "type": "function"
    },
    {
      "inputs": [
        {
          "internalType": "uint256",
          "name": "_lessonId",
          "type": "uint256"
        },
        {
          "internalType": "enum Ecosystem.ContentType",
          "name": "contentType",
          "type": "uint8"
        },
        {
          "components": [
            {
              "internalType": "enum Ecosystem.ContentType",
              "name": "contentType",
              "type": "uint8"
            },
            {
              "internalType": "string",
              "name": "url",
              "type": "string"
            },
            {
              "internalType": "string",
              "name": "name",
              "type": "string"
            }
          ],
          "internalType": "struct Ecosystem.Resource[]",
          "name": "_resources",
          "type": "tuple[]"
        }
      ],
      "name": "addResourcesToLesson",
      "outputs": [],
      "stateMutability": "nonpayable",
      "type": "function"
    },
    {
      "inputs": [
        {
          "internalType": "address",
          "name": "newReviewer",
          "type": "address"
        }
      ],
      "name": "addReviewer",
      "outputs": [],
      "stateMutability": "nonpayable",
      "type": "function"
    },
    {
      "inputs": [
        {
          "internalType": "address",
          "name": "owner",
          "type": "address"
        },
        {
          "internalType": "address",
          "name": "spender",
          "type": "address"
        }
      ],
      "name": "allowance",
      "outputs": [
        {
          "internalType": "uint256",
          "name": "",
          "type": "uint256"
        }
      ],
      "stateMutability": "view",
      "type": "function"
    },
    {
      "inputs": [
        {
          "internalType": "address",
          "name": "",
          "type": "address"
        },
        {
          "internalType": "uint256",
          "name": "",
          "type": "uint256"
        }
      ],
      "name": "approvals",
      "outputs": [
        {
          "internalType": "bool",
          "name": "",
          "type": "bool"
        }
      ],
      "stateMutability": "view",
      "type": "function"
    },
    {
      "inputs": [
        {
          "internalType": "address",
          "name": "spender",
          "type": "address"
        },
        {
          "internalType": "uint256",
          "name": "value",
          "type": "uint256"
        }
      ],
      "name": "approve",
      "outputs": [
        {
          "internalType": "bool",
          "name": "",
          "type": "bool"
        }
      ],
      "stateMutability": "nonpayable",
      "type": "function"
    },
    {
      "inputs": [
        {
          "internalType": "uint256",
          "name": "_courseId",
          "type": "uint256"
        }
      ],
      "name": "approveCourse",
      "outputs": [],
      "stateMutability": "nonpayable",
      "type": "function"
    },
    {
      "inputs": [
        {
          "internalType": "uint256",
          "name": "_proposalId",
          "type": "uint256"
        }
      ],
      "name": "approveMultiSigProposal",
      "outputs": [],
      "stateMutability": "nonpayable",
      "type": "function"
    },
    {
      "inputs": [
        {
          "internalType": "address",
          "name": "account",
          "type": "address"
        }
      ],
      "name": "balanceOf",
      "outputs": [
        {
          "internalType": "uint256",
          "name": "",
          "type": "uint256"
        }
      ],
      "stateMutability": "view",
      "type": "function"
    },
    {
      "inputs": [
        {
          "internalType": "uint256",
          "name": "",
          "type": "uint256"
        }
      ],
      "name": "chapter",
      "outputs": [
        {
          "internalType": "uint256",
          "name": "courseId",
          "type": "uint256"
        },
        {
          "internalType": "uint256",
          "name": "chapterId",
          "type": "uint256"
        },
        {
          "internalType": "string",
          "name": "chapterName",
          "type": "string"
        },
        {
          "internalType": "uint256",
          "name": "duration",
          "type": "uint256"
        },
        {
          "internalType": "bool",
          "name": "exists",
          "type": "bool"
        }
      ],
      "stateMutability": "view",
      "type": "function"
    },
    {
      "inputs": [
        {
          "internalType": "uint256",
          "name": "",
          "type": "uint256"
        },
        {
          "internalType": "uint256",
          "name": "",
          "type": "uint256"
        }
      ],
      "name": "chapterLessons",
      "outputs": [
        {
          "internalType": "string",
          "name": "",
          "type": "string"
        }
      ],
      "stateMutability": "view",
      "type": "function"
    },
    {
      "inputs": [
        {
          "internalType": "uint256",
          "name": "",
          "type": "uint256"
        },
        {
          "internalType": "uint256",
          "name": "",
          "type": "uint256"
        }
      ],
      "name": "courseChapters",
      "outputs": [
        {
          "internalType": "uint256",
          "name": "courseId",
          "type": "uint256"
        },
        {
          "internalType": "uint256",
          "name": "chapterId",
          "type": "uint256"
        },
        {
          "internalType": "string",
          "name": "chapterName",
          "type": "string"
        },
        {
          "internalType": "uint256",
          "name": "duration",
          "type": "uint256"
        },
        {
          "internalType": "bool",
          "name": "exists",
          "type": "bool"
        }
      ],
      "stateMutability": "view",
      "type": "function"
    },
    {
      "inputs": [],
      "name": "courseCount",
      "outputs": [
        {
          "internalType": "uint256",
          "name": "",
          "type": "uint256"
        }
      ],
      "stateMutability": "view",
      "type": "function"
    },
    {
      "inputs": [
        {
          "internalType": "uint256",
          "name": "",
          "type": "uint256"
        }
      ],
      "name": "courseObject",
      "outputs": [
        {
          "internalType": "uint256",
          "name": "courseId",
          "type": "uint256"
        },
        {
          "internalType": "string",
          "name": "courseName",
          "type": "string"
        },
        {
          "internalType": "string",
          "name": "description",
          "type": "string"
        },
        {
          "internalType": "bool",
          "name": "approved",
          "type": "bool"
        },
        {
          "internalType": "uint256",
          "name": "approvalCount",
          "type": "uint256"
        },
        {
          "internalType": "address",
          "name": "creator",
          "type": "address"
        },
        {
          "internalType": "bool",
          "name": "exists",
          "type": "bool"
        }
      ],
      "stateMutability": "view",
      "type": "function"
    },
    {
      "inputs": [
        {
          "internalType": "uint256",
          "name": "",
          "type": "uint256"
        }
      ],
      "name": "courseReviewInitiated",
      "outputs": [
        {
          "internalType": "bool",
          "name": "",
          "type": "bool"
        }
      ],
      "stateMutability": "view",
      "type": "function"
    },
    {
      "inputs": [
        {
          "internalType": "uint256",
          "name": "",
          "type": "uint256"
        },
        {
          "internalType": "uint256",
          "name": "",
          "type": "uint256"
        }
      ],
      "name": "courseReviewers",
      "outputs": [
        {
          "internalType": "address",
          "name": "",
          "type": "address"
        }
      ],
      "stateMutability": "view",
      "type": "function"
    },
    {
      "inputs": [
        {
          "internalType": "string",
          "name": "_courseName",
          "type": "string"
        },
        {
          "internalType": "string",
          "name": "_description",
          "type": "string"
        }
      ],
      "name": "createCourse",
      "outputs": [
        {
          "internalType": "bool",
          "name": "",
          "type": "bool"
        }
      ],
      "stateMutability": "nonpayable",
      "type": "function"
    },
    {
      "inputs": [
        {
          "internalType": "uint256",
          "name": "_quizId",
          "type": "uint256"
        },
        {
          "internalType": "string",
          "name": "_questionText",
          "type": "string"
        },
        {
          "internalType": "string[]",
          "name": "_options",
          "type": "string[]"
        },
        {
          "internalType": "uint8",
          "name": "_correctChoiceIndex",
          "type": "uint8"
        }
      ],
      "name": "createQuestionWithChoices",
      "outputs": [],
      "stateMutability": "nonpayable",
      "type": "function"
    },
    {
      "inputs": [
        {
          "internalType": "uint256",
          "name": "_lessonId",
          "type": "uint256"
        },
        {
          "internalType": "string",
          "name": "_title",
          "type": "string"
        }
      ],
      "name": "createQuiz",
      "outputs": [
        {
          "internalType": "uint256",
          "name": "",
          "type": "uint256"
        }
      ],
      "stateMutability": "nonpayable",
      "type": "function"
    },
    {
      "inputs": [],
      "name": "decimals",
      "outputs": [
        {
          "internalType": "uint8",
          "name": "",
          "type": "uint8"
        }
      ],
      "stateMutability": "view",
      "type": "function"
    },
    {
      "inputs": [],
      "name": "ecosystemPoolSupply",
      "outputs": [
        {
          "internalType": "uint256",
          "name": "",
          "type": "uint256"
        }
      ],
      "stateMutability": "view",
      "type": "function"
    },
    {
      "inputs": [
        {
          "internalType": "uint256",
          "name": "_courseId",
          "type": "uint256"
        }
      ],
      "name": "enroll",
      "outputs": [
        {
          "internalType": "bool",
          "name": "",
          "type": "bool"
        }
      ],
      "stateMutability": "nonpayable",
      "type": "function"
    },
    {
      "inputs": [],
      "name": "getAllChapters",
      "outputs": [
        {
          "components": [
            {
              "internalType": "uint256",
              "name": "courseId",
              "type": "uint256"
            },
            {
              "internalType": "uint256",
              "name": "chapterId",
              "type": "uint256"
            },
            {
              "internalType": "string",
              "name": "chapterName",
              "type": "string"
            },
            {
              "internalType": "uint256",
              "name": "duration",
              "type": "uint256"
            },
            {
              "internalType": "bool",
              "name": "exists",
              "type": "bool"
            }
          ],
          "internalType": "struct Ecosystem.Chapter[]",
          "name": "",
          "type": "tuple[]"
        }
      ],
      "stateMutability": "view",
      "type": "function"
    },
    {
      "inputs": [],
      "name": "getAllCourses",
      "outputs": [
        {
          "components": [
            {
              "internalType": "uint256",
              "name": "courseId",
              "type": "uint256"
            },
            {
              "internalType": "string",
              "name": "courseName",
              "type": "string"
            },
            {
              "internalType": "string",
              "name": "description",
              "type": "string"
            },
            {
              "internalType": "bool",
              "name": "approved",
              "type": "bool"
            },
            {
              "internalType": "uint256",
              "name": "approvalCount",
              "type": "uint256"
            },
            {
              "internalType": "address",
              "name": "creator",
              "type": "address"
            },
            {
              "internalType": "bool",
              "name": "exists",
              "type": "bool"
            },
            {
              "internalType": "address[]",
              "name": "enrolledStudents",
              "type": "address[]"
            }
          ],
          "internalType": "struct Ecosystem.Course[]",
          "name": "",
          "type": "tuple[]"
        }
      ],
      "stateMutability": "view",
      "type": "function"
    },
    {
      "inputs": [],
      "name": "getAllLessons",
      "outputs": [
        {
          "components": [
            {
              "internalType": "uint256",
              "name": "chapterId",
              "type": "uint256"
            },
            {
              "internalType": "uint256",
              "name": "lessonId",
              "type": "uint256"
            },
            {
              "internalType": "string",
              "name": "lessonName",
              "type": "string"
            },
            {
              "internalType": "string",
              "name": "lessonContent",
              "type": "string"
            },
            {
              "components": [
                {
                  "internalType": "enum Ecosystem.ContentType",
                  "name": "contentType",
                  "type": "uint8"
                },
                {
                  "internalType": "string",
                  "name": "url",
                  "type": "string"
                },
                {
                  "internalType": "string",
                  "name": "name",
                  "type": "string"
                }
              ],
              "internalType": "struct Ecosystem.Resource[10]",
              "name": "additionalResources",
              "type": "tuple[10]"
            },
            {
              "internalType": "uint256",
              "name": "resourceCount",
              "type": "uint256"
            },
            {
              "internalType": "bool",
              "name": "exists",
              "type": "bool"
            }
          ],
          "internalType": "struct Ecosystem.Lesson[]",
          "name": "",
          "type": "tuple[]"
        }
      ],
      "stateMutability": "view",
      "type": "function"
    },
    {
      "inputs": [],
      "name": "getAllQuizzes",
      "outputs": [
        {
          "components": [
            {
              "internalType": "uint256",
              "name": "lessonId",
              "type": "uint256"
            },
            {
              "internalType": "uint256",
              "name": "quizId",
              "type": "uint256"
            },
            {
              "internalType": "string",
              "name": "quizTitle",
              "type": "string"
            },
            {
              "components": [
                {
                  "internalType": "uint256",
                  "name": "quizId",
                  "type": "uint256"
                },
                {
                  "internalType": "uint256",
                  "name": "questionId",
                  "type": "uint256"
                },
                {
                  "internalType": "string",
                  "name": "questionText",
                  "type": "string"
                },
                {
                  "components": [
                    {
                      "internalType": "string",
                      "name": "option",
                      "type": "string"
                    },
                    {
                      "internalType": "bool",
                      "name": "isCorrect",
                      "type": "bool"
                    }
                  ],
                  "internalType": "struct Ecosystem.Choice[]",
                  "name": "choices",
                  "type": "tuple[]"
                }
              ],
              "internalType": "struct Ecosystem.Question[]",
              "name": "questions",
              "type": "tuple[]"
            },
            {
              "internalType": "bool",
              "name": "exists",
              "type": "bool"
            }
          ],
          "internalType": "struct Ecosystem.Quiz[]",
          "name": "",
          "type": "tuple[]"
        }
      ],
      "stateMutability": "view",
      "type": "function"
    },
    {
      "inputs": [
        {
          "internalType": "uint256",
          "name": "_courseId",
          "type": "uint256"
        }
      ],
      "name": "getChapters",
      "outputs": [
        {
          "components": [
            {
              "internalType": "uint256",
              "name": "courseId",
              "type": "uint256"
            },
            {
              "internalType": "uint256",
              "name": "chapterId",
              "type": "uint256"
            },
            {
              "internalType": "string",
              "name": "chapterName",
              "type": "string"
            },
            {
              "internalType": "uint256",
              "name": "duration",
              "type": "uint256"
            },
            {
              "internalType": "bool",
              "name": "exists",
              "type": "bool"
            }
          ],
          "internalType": "struct Ecosystem.Chapter[]",
          "name": "",
          "type": "tuple[]"
        }
      ],
      "stateMutability": "view",
      "type": "function"
    },
    {
      "inputs": [
        {
          "internalType": "uint256",
          "name": "courseId",
          "type": "uint256"
        }
      ],
      "name": "getCourseReviewers",
      "outputs": [
        {
          "internalType": "address[]",
          "name": "",
          "type": "address[]"
        }
      ],
      "stateMutability": "view",
      "type": "function"
    },
    {
      "inputs": [],
      "name": "getCurrentEcosystemPoolSupply",
      "outputs": [
        {
          "internalType": "uint256",
          "name": "",
          "type": "uint256"
        }
      ],
      "stateMutability": "view",
      "type": "function"
    },
    {
      "inputs": [
        {
          "internalType": "uint256",
          "name": "_quizId",
          "type": "uint256"
        }
      ],
      "name": "getQuestionsForQuiz",
      "outputs": [
        {
          "components": [
            {
              "internalType": "uint256",
              "name": "quizId",
              "type": "uint256"
            },
            {
              "internalType": "uint256",
              "name": "questionId",
              "type": "uint256"
            },
            {
              "internalType": "string",
              "name": "questionText",
              "type": "string"
            },
            {
              "components": [
                {
                  "internalType": "string",
                  "name": "option",
                  "type": "string"
                },
                {
                  "internalType": "bool",
                  "name": "isCorrect",
                  "type": "bool"
                }
              ],
              "internalType": "struct Ecosystem.Choice[]",
              "name": "choices",
              "type": "tuple[]"
            }
          ],
          "internalType": "struct Ecosystem.Question[]",
          "name": "",
          "type": "tuple[]"
        }
      ],
      "stateMutability": "view",
      "type": "function"
    },
    {
      "inputs": [
        {
          "internalType": "uint256",
          "name": "_quizId",
          "type": "uint256"
        }
      ],
      "name": "getQuiz",
      "outputs": [
        {
          "components": [
            {
              "internalType": "uint256",
              "name": "lessonId",
              "type": "uint256"
            },
            {
              "internalType": "uint256",
              "name": "quizId",
              "type": "uint256"
            },
            {
              "internalType": "string",
              "name": "quizTitle",
              "type": "string"
            },
            {
              "components": [
                {
                  "internalType": "uint256",
                  "name": "quizId",
                  "type": "uint256"
                },
                {
                  "internalType": "uint256",
                  "name": "questionId",
                  "type": "uint256"
                },
                {
                  "internalType": "string",
                  "name": "questionText",
                  "type": "string"
                },
                {
                  "components": [
                    {
                      "internalType": "string",
                      "name": "option",
                      "type": "string"
                    },
                    {
                      "internalType": "bool",
                      "name": "isCorrect",
                      "type": "bool"
                    }
                  ],
                  "internalType": "struct Ecosystem.Choice[]",
                  "name": "choices",
                  "type": "tuple[]"
                }
              ],
              "internalType": "struct Ecosystem.Question[]",
              "name": "questions",
              "type": "tuple[]"
            },
            {
              "internalType": "bool",
              "name": "exists",
              "type": "bool"
            }
          ],
          "internalType": "struct Ecosystem.Quiz",
          "name": "",
          "type": "tuple"
        }
      ],
      "stateMutability": "view",
      "type": "function"
    },
    {
      "inputs": [
        {
          "internalType": "bytes32",
          "name": "role",
          "type": "bytes32"
        }
      ],
      "name": "getRoleAdmin",
      "outputs": [
        {
          "internalType": "bytes32",
          "name": "",
          "type": "bytes32"
        }
      ],
      "stateMutability": "view",
      "type": "function"
    },
    {
      "inputs": [
        {
          "internalType": "bytes32",
          "name": "role",
          "type": "bytes32"
        },
        {
          "internalType": "address",
          "name": "account",
          "type": "address"
        }
      ],
      "name": "grantRole",
      "outputs": [],
      "stateMutability": "nonpayable",
      "type": "function"
    },
    {
      "inputs": [
        {
          "internalType": "bytes32",
          "name": "role",
          "type": "bytes32"
        },
        {
          "internalType": "address",
          "name": "account",
          "type": "address"
        }
      ],
      "name": "hasRole",
      "outputs": [
        {
          "internalType": "bool",
          "name": "",
          "type": "bool"
        }
      ],
      "stateMutability": "view",
      "type": "function"
    },
    {
      "inputs": [
        {
          "internalType": "uint256",
          "name": "",
          "type": "uint256"
        },
        {
          "internalType": "address",
          "name": "",
          "type": "address"
        }
      ],
      "name": "isEnrolled",
      "outputs": [
        {
          "internalType": "bool",
          "name": "",
          "type": "bool"
        }
      ],
      "stateMutability": "view",
      "type": "function"
    },
    {
      "inputs": [
        {
          "internalType": "address",
          "name": "",
          "type": "address"
        }
      ],
      "name": "isInReviewerPool",
      "outputs": [
        {
          "internalType": "bool",
          "name": "",
          "type": "bool"
        }
      ],
      "stateMutability": "view",
      "type": "function"
    },
    {
      "inputs": [
        {
          "internalType": "address",
          "name": "account",
          "type": "address"
        }
      ],
      "name": "isReviewer",
      "outputs": [
        {
          "internalType": "bool",
          "name": "",
          "type": "bool"
        }
      ],
      "stateMutability": "view",
      "type": "function"
    },
    {
      "inputs": [
        {
          "internalType": "uint256",
          "name": "",
          "type": "uint256"
        }
      ],
      "name": "lesson",
      "outputs": [
        {
          "internalType": "uint256",
          "name": "chapterId",
          "type": "uint256"
        },
        {
          "internalType": "uint256",
          "name": "lessonId",
          "type": "uint256"
        },
        {
          "internalType": "string",
          "name": "lessonName",
          "type": "string"
        },
        {
          "internalType": "string",
          "name": "lessonContent",
          "type": "string"
        },
        {
          "internalType": "uint256",
          "name": "resourceCount",
          "type": "uint256"
        },
        {
          "internalType": "bool",
          "name": "exists",
          "type": "bool"
        }
      ],
      "stateMutability": "view",
      "type": "function"
    },
    {
      "inputs": [
        {
          "internalType": "uint256",
          "name": "",
          "type": "uint256"
        }
      ],
      "name": "listOfChapters",
      "outputs": [
        {
          "internalType": "uint256",
          "name": "courseId",
          "type": "uint256"
        },
        {
          "internalType": "uint256",
          "name": "chapterId",
          "type": "uint256"
        },
        {
          "internalType": "string",
          "name": "chapterName",
          "type": "string"
        },
        {
          "internalType": "uint256",
          "name": "duration",
          "type": "uint256"
        },
        {
          "internalType": "bool",
          "name": "exists",
          "type": "bool"
        }
      ],
      "stateMutability": "view",
      "type": "function"
    },
    {
      "inputs": [
        {
          "internalType": "uint256",
          "name": "",
          "type": "uint256"
        }
      ],
      "name": "listOfCourses",
      "outputs": [
        {
          "internalType": "uint256",
          "name": "courseId",
          "type": "uint256"
        },
        {
          "internalType": "string",
          "name": "courseName",
          "type": "string"
        },
        {
          "internalType": "string",
          "name": "description",
          "type": "string"
        },
        {
          "internalType": "bool",
          "name": "approved",
          "type": "bool"
        },
        {
          "internalType": "uint256",
          "name": "approvalCount",
          "type": "uint256"
        },
        {
          "internalType": "address",
          "name": "creator",
          "type": "address"
        },
        {
          "internalType": "bool",
          "name": "exists",
          "type": "bool"
        }
      ],
      "stateMutability": "view",
      "type": "function"
    },
    {
      "inputs": [
        {
          "internalType": "uint256",
          "name": "",
          "type": "uint256"
        }
      ],
      "name": "listOfLessons",
      "outputs": [
        {
          "internalType": "uint256",
          "name": "chapterId",
          "type": "uint256"
        },
        {
          "internalType": "uint256",
          "name": "lessonId",
          "type": "uint256"
        },
        {
          "internalType": "string",
          "name": "lessonName",
          "type": "string"
        },
        {
          "internalType": "string",
          "name": "lessonContent",
          "type": "string"
        },
        {
          "internalType": "uint256",
          "name": "resourceCount",
          "type": "uint256"
        },
        {
          "internalType": "bool",
          "name": "exists",
          "type": "bool"
        }
      ],
      "stateMutability": "view",
      "type": "function"
    },
    {
      "inputs": [
        {
          "internalType": "uint256",
          "name": "",
          "type": "uint256"
        }
      ],
      "name": "listOfQuestions",
      "outputs": [
        {
          "internalType": "uint256",
          "name": "quizId",
          "type": "uint256"
        },
        {
          "internalType": "uint256",
          "name": "questionId",
          "type": "uint256"
        },
        {
          "internalType": "string",
          "name": "questionText",
          "type": "string"
        }
      ],
      "stateMutability": "view",
      "type": "function"
    },
    {
      "inputs": [
        {
          "internalType": "uint256",
          "name": "",
          "type": "uint256"
        }
      ],
      "name": "listOfQuizzes",
      "outputs": [
        {
          "internalType": "uint256",
          "name": "lessonId",
          "type": "uint256"
        },
        {
          "internalType": "uint256",
          "name": "quizId",
          "type": "uint256"
        },
        {
          "internalType": "string",
          "name": "quizTitle",
          "type": "string"
        },
        {
          "internalType": "bool",
          "name": "exists",
          "type": "bool"
        }
      ],
      "stateMutability": "view",
      "type": "function"
    },
    {
      "inputs": [
        {
          "internalType": "uint256",
          "name": "",
          "type": "uint256"
        }
      ],
      "name": "listOfResource",
      "outputs": [
        {
          "internalType": "enum Ecosystem.ContentType",
          "name": "contentType",
          "type": "uint8"
        },
        {
          "internalType": "string",
          "name": "url",
          "type": "string"
        },
        {
          "internalType": "string",
          "name": "name",
          "type": "string"
        }
      ],
      "stateMutability": "view",
      "type": "function"
    },
    {
      "inputs": [
        {
          "internalType": "uint256",
          "name": "",
          "type": "uint256"
        }
      ],
      "name": "multiSigProposals",
      "outputs": [
        {
          "internalType": "uint256",
          "name": "id",
          "type": "uint256"
        },
        {
          "internalType": "address",
          "name": "proposer",
          "type": "address"
        },
        {
          "internalType": "address",
          "name": "targetContract",
          "type": "address"
        },
        {
          "internalType": "bytes",
          "name": "data",
          "type": "bytes"
        },
        {
          "internalType": "uint256",
          "name": "approvalCount",
          "type": "uint256"
        },
        {
          "internalType": "bool",
          "name": "executed",
          "type": "bool"
        }
      ],
      "stateMutability": "view",
      "type": "function"
    },
    {
      "inputs": [],
      "name": "name",
      "outputs": [
        {
          "internalType": "string",
          "name": "",
          "type": "string"
        }
      ],
      "stateMutability": "view",
      "type": "function"
    },
    {
      "inputs": [],
      "name": "nextChapterId",
      "outputs": [
        {
          "internalType": "uint256",
          "name": "",
          "type": "uint256"
        }
      ],
      "stateMutability": "view",
      "type": "function"
    },
    {
      "inputs": [],
      "name": "nextChoiceId",
      "outputs": [
        {
          "internalType": "uint256",
          "name": "",
          "type": "uint256"
        }
      ],
      "stateMutability": "view",
      "type": "function"
    },
    {
      "inputs": [],
      "name": "nextCourseId",
      "outputs": [
        {
          "internalType": "uint256",
          "name": "",
          "type": "uint256"
        }
      ],
      "stateMutability": "view",
      "type": "function"
    },
    {
      "inputs": [],
      "name": "nextCourseIdd",
      "outputs": [
        {
          "internalType": "uint256",
          "name": "",
          "type": "uint256"
        }
      ],
      "stateMutability": "view",
      "type": "function"
    },
    {
      "inputs": [],
      "name": "nextLessonId",
      "outputs": [
        {
          "internalType": "uint256",
          "name": "",
          "type": "uint256"
        }
      ],
      "stateMutability": "view",
      "type": "function"
    },
    {
      "inputs": [],
      "name": "nextQuestionId",
      "outputs": [
        {
          "internalType": "uint256",
          "name": "",
          "type": "uint256"
        }
      ],
      "stateMutability": "view",
      "type": "function"
    },
    {
      "inputs": [],
      "name": "nextQuizId",
      "outputs": [
        {
          "internalType": "uint256",
          "name": "",
          "type": "uint256"
        }
      ],
      "stateMutability": "view",
      "type": "function"
    },
    {
      "inputs": [
        {
          "internalType": "uint256",
          "name": "",
          "type": "uint256"
        }
      ],
      "name": "questions",
      "outputs": [
        {
          "internalType": "uint256",
          "name": "quizId",
          "type": "uint256"
        },
        {
          "internalType": "uint256",
          "name": "questionId",
          "type": "uint256"
        },
        {
          "internalType": "string",
          "name": "questionText",
          "type": "string"
        }
      ],
      "stateMutability": "view",
      "type": "function"
    },
    {
      "inputs": [
        {
          "internalType": "uint256",
          "name": "",
          "type": "uint256"
        }
      ],
      "name": "quizzes",
      "outputs": [
        {
          "internalType": "uint256",
          "name": "lessonId",
          "type": "uint256"
        },
        {
          "internalType": "uint256",
          "name": "quizId",
          "type": "uint256"
        },
        {
          "internalType": "string",
          "name": "quizTitle",
          "type": "string"
        },
        {
          "internalType": "bool",
          "name": "exists",
          "type": "bool"
        }
      ],
      "stateMutability": "view",
      "type": "function"
    },
    {
      "inputs": [
        {
          "internalType": "address",
          "name": "reviewer",
          "type": "address"
        }
      ],
      "name": "removeReviewer",
      "outputs": [],
      "stateMutability": "nonpayable",
      "type": "function"
    },
    {
      "inputs": [
        {
          "internalType": "bytes32",
          "name": "role",
          "type": "bytes32"
        },
        {
          "internalType": "address",
          "name": "callerConfirmation",
          "type": "address"
        }
      ],
      "name": "renounceRole",
      "outputs": [],
      "stateMutability": "nonpayable",
      "type": "function"
    },
    {
      "inputs": [
        {
          "internalType": "uint256",
          "name": "",
          "type": "uint256"
        }
      ],
      "name": "reviewerPool",
      "outputs": [
        {
          "internalType": "address",
          "name": "",
          "type": "address"
        }
      ],
      "stateMutability": "view",
      "type": "function"
    },
    {
      "inputs": [
        {
          "internalType": "uint256",
          "name": "",
          "type": "uint256"
        },
        {
          "internalType": "address",
          "name": "",
          "type": "address"
        }
      ],
      "name": "reviews",
      "outputs": [
        {
          "internalType": "uint256",
          "name": "learnerAgency",
          "type": "uint256"
        },
        {
          "internalType": "uint256",
          "name": "criticalThinking",
          "type": "uint256"
        },
        {
          "internalType": "uint256",
          "name": "collaborativeLearning",
          "type": "uint256"
        },
        {
          "internalType": "uint256",
          "name": "reflectivePractice",
          "type": "uint256"
        },
        {
          "internalType": "uint256",
          "name": "adaptiveLearning",
          "type": "uint256"
        },
        {
          "internalType": "uint256",
          "name": "authenticLearning",
          "type": "uint256"
        },
        {
          "internalType": "uint256",
          "name": "technologyIntegration",
          "type": "uint256"
        },
        {
          "internalType": "uint256",
          "name": "learnerSupport",
          "type": "uint256"
        },
        {
          "internalType": "uint256",
          "name": "assessmentForLearning",
          "type": "uint256"
        },
        {
          "internalType": "uint256",
          "name": "engagementAndMotivation",
          "type": "uint256"
        },
        {
          "internalType": "bool",
          "name": "isSubmitted",
          "type": "bool"
        }
      ],
      "stateMutability": "view",
      "type": "function"
    },
    {
      "inputs": [
        {
          "internalType": "bytes32",
          "name": "role",
          "type": "bytes32"
        },
        {
          "internalType": "address",
          "name": "account",
          "type": "address"
        }
      ],
      "name": "revokeRole",
      "outputs": [],
      "stateMutability": "nonpayable",
      "type": "function"
    },
    {
      "inputs": [
        {
          "internalType": "uint256",
          "name": "courseId",
          "type": "uint256"
        }
      ],
      "name": "selectCourseReviewers",
      "outputs": [],
      "stateMutability": "nonpayable",
      "type": "function"
    },
    {
      "inputs": [
        {
          "internalType": "uint256",
          "name": "courseId",
          "type": "uint256"
        },
        {
          "internalType": "uint256",
          "name": "learnerAgency",
          "type": "uint256"
        },
        {
          "internalType": "uint256",
          "name": "criticalThinking",
          "type": "uint256"
        },
        {
          "internalType": "uint256",
          "name": "collaborativeLearning",
          "type": "uint256"
        },
        {
          "internalType": "uint256",
          "name": "reflectivePractice",
          "type": "uint256"
        },
        {
          "internalType": "uint256",
          "name": "adaptiveLearning",
          "type": "uint256"
        },
        {
          "internalType": "uint256",
          "name": "authenticLearning",
          "type": "uint256"
        },
        {
          "internalType": "uint256",
          "name": "technologyIntegration",
          "type": "uint256"
        },
        {
          "internalType": "uint256",
          "name": "learnerSupport",
          "type": "uint256"
        },
        {
          "internalType": "uint256",
          "name": "assessmentForLearning",
          "type": "uint256"
        },
        {
          "internalType": "uint256",
          "name": "engagementAndMotivation",
          "type": "uint256"
        }
      ],
      "name": "submitReview",
      "outputs": [],
      "stateMutability": "nonpayable",
      "type": "function"
    },
    {
      "inputs": [
        {
          "internalType": "bytes4",
          "name": "interfaceId",
          "type": "bytes4"
        }
      ],
      "name": "supportsInterface",
      "outputs": [
        {
          "internalType": "bool",
          "name": "",
          "type": "bool"
        }
      ],
      "stateMutability": "view",
      "type": "function"
    },
    {
      "inputs": [],
      "name": "symbol",
      "outputs": [
        {
          "internalType": "string",
          "name": "",
          "type": "string"
        }
      ],
      "stateMutability": "view",
      "type": "function"
    },
    {
      "inputs": [],
      "name": "totalSupply",
      "outputs": [
        {
          "internalType": "uint256",
          "name": "",
          "type": "uint256"
        }
      ],
      "stateMutability": "view",
      "type": "function"
    },
    {
      "inputs": [
        {
          "internalType": "address",
          "name": "to",
          "type": "address"
        },
        {
          "internalType": "uint256",
          "name": "value",
          "type": "uint256"
        }
      ],
      "name": "transfer",
      "outputs": [
        {
          "internalType": "bool",
          "name": "",
          "type": "bool"
        }
      ],
      "stateMutability": "nonpayable",
      "type": "function"
    },
    {
      "inputs": [
        {
          "internalType": "address",
          "name": "from",
          "type": "address"
        },
        {
          "internalType": "address",
          "name": "to",
          "type": "address"
        },
        {
          "internalType": "uint256",
          "name": "value",
          "type": "uint256"
        }
      ],
      "name": "transferFrom",
      "outputs": [
        {
          "internalType": "bool",
          "name": "",
          "type": "bool"
        }
      ],
      "stateMutability": "nonpayable",
      "type": "function"
    },
    {
      "inputs": [
        {
          "internalType": "uint256",
          "name": "_courseId",
          "type": "uint256"
        }
      ],
      "name": "unEnroll",
      "outputs": [
        {
          "internalType": "bool",
          "name": "",
          "type": "bool"
        }
      ],
      "stateMutability": "nonpayable",
      "type": "function"
    }
  ],
  "bytecode": "0x608060405234801561001057600080fd5b5060405161b6c538038061b6c58339818101604052810190610032919061063b565b80806040518060400160405280600a81526020017f4142594120544f4b454e000000000000000000000000000000000000000000008152506040518060400160405280600681526020017f414259544b4e000000000000000000000000000000000000000000000000000081525081600390816100af91906108a5565b5080600490816100bf91906108a5565b505050600481511015610107576040517f08c379a00000000000000000000000000000000000000000000000000000000081526004016100fe906109fa565b60405180910390fd5b61011a6000801b336102c060201b60201c565b5061014b7fdf1425bae297c2f52b4f15d18a50b1fc8cb5b981a981b1d213ed3ff92681b64d336102c060201b60201c565b5060005b815181101561029f576101a27fc10c77be35aff266144ed64c26a1fa104bae2f284ae99ac4a34203454704a18583838151811061018f5761018e610a1a565b5b60200260200101516102c060201b60201c565b5060068282815181106101b8576101b7610a1a565b5b60200260200101519080600181540180825580915050600190039060005260206000200160009091909190916101000a81548173ffffffffffffffffffffffffffffffffffffffff021916908373ffffffffffffffffffffffffffffffffffffffff16021790555060016008600084848151811061023957610238610a1a565b5b602002602001015173ffffffffffffffffffffffffffffffffffffffff1673ffffffffffffffffffffffffffffffffffffffff16815260200190815260200160002060006101000a81548160ff021916908315150217905550808060010191505061014f565b50506001600a819055506102b9600b6103be60201b60201c565b5050610a49565b60006102d283836103fd60201b60201c565b6103b35760016005600085815260200190815260200160002060000160008473ffffffffffffffffffffffffffffffffffffffff1673ffffffffffffffffffffffffffffffffffffffff16815260200190815260200160002060006101000a81548160ff02191690831515021790555061035061046860201b60201c565b73ffffffffffffffffffffffffffffffffffffffff168273ffffffffffffffffffffffffffffffffffffffff16847f2f8788117e7eff1d82e926ec794901d17c78024a50270940304540a733656f0d60405160405180910390a4600190506103b8565b600090505b92915050565b60018160000181905550600181600101819055506001816002018190555060018160030181905550600181600401819055506001816005018190555050565b60006005600084815260200190815260200160002060000160008373ffffffffffffffffffffffffffffffffffffffff1673ffffffffffffffffffffffffffffffffffffffff16815260200190815260200160002060009054906101000a900460ff16905092915050565b600033905090565b6000604051905090565b600080fd5b600080fd5b600080fd5b6000601f19601f8301169050919050565b7f4e487b7100000000000000000000000000000000000000000000000000000000600052604160045260246000fd5b6104d282610489565b810181811067ffffffffffffffff821117156104f1576104f061049a565b5b80604052505050565b6000610504610470565b905061051082826104c9565b919050565b600067ffffffffffffffff8211156105305761052f61049a565b5b602082029050602081019050919050565b600080fd5b600073ffffffffffffffffffffffffffffffffffffffff82169050919050565b600061057182610546565b9050919050565b61058181610566565b811461058c57600080fd5b50565b60008151905061059e81610578565b92915050565b60006105b76105b284610515565b6104fa565b905080838252602082019050602084028301858111156105da576105d9610541565b5b835b8181101561060357806105ef888261058f565b8452602084019350506020810190506105dc565b5050509392505050565b600082601f83011261062257610621610484565b5b81516106328482602086016105a4565b91505092915050565b6000602082840312156106515761065061047a565b5b600082015167ffffffffffffffff81111561066f5761066e61047f565b5b61067b8482850161060d565b91505092915050565b600081519050919050565b7f4e487b7100000000000000000000000000000000000000000000000000000000600052602260045260246000fd5b600060028204905060018216806106d657607f821691505b6020821081036106e9576106e861068f565b5b50919050565b60008190508160005260206000209050919050565b60006020601f8301049050919050565b600082821b905092915050565b6000600883026107517fffffffffffffffffffffffffffffffffffffffffffffffffffffffffffffffff82610714565b61075b8683610714565b95508019841693508086168417925050509392505050565b6000819050919050565b6000819050919050565b60006107a261079d61079884610773565b61077d565b610773565b9050919050565b6000819050919050565b6107bc83610787565b6107d06107c8826107a9565b848454610721565b825550505050565b600090565b6107e56107d8565b6107f08184846107b3565b505050565b5b81811015610814576108096000826107dd565b6001810190506107f6565b5050565b601f8211156108595761082a816106ef565b61083384610704565b81016020851015610842578190505b61085661084e85610704565b8301826107f5565b50505b505050565b600082821c905092915050565b600061087c6000198460080261085e565b1980831691505092915050565b6000610895838361086b565b9150826002028217905092915050565b6108ae82610684565b67ffffffffffffffff8111156108c7576108c661049a565b5b6108d182546106be565b6108dc828285610818565b600060209050601f83116001811461090f57600084156108fd578287015190505b6109078582610889565b86555061096f565b601f19841661091d866106ef565b60005b8281101561094557848901518255600182019150602085019450602081019050610920565b86831015610962578489015161095e601f89168261086b565b8355505b6001600288020188555050505b505050505050565b600082825260208201905092915050565b7f4174206c6561737420342072657669657765727320617265207265717569726560008201527f6400000000000000000000000000000000000000000000000000000000000000602082015250565b60006109e4602183610977565b91506109ef82610988565b604082019050919050565b60006020820190508181036000830152610a13816109d7565b9050919050565b7f4e487b7100000000000000000000000000000000000000000000000000000000600052603260045260246000fd5b61ac6d80610a586000396000f3fe608060405234801561001057600080fd5b506004361061048b5760003560e01c806375b9d86911610262578063bad0dd6511610151578063d3751bfc116100ce578063ded5c18d11610092578063ded5c18d14611019578063e503f10814611037578063eb264b9c14611055578063f57d585b14611073578063fdc6258a146110a3578063ffabc673146110d35761048b565b8063d3751bfc14610f61578063d547741f14610f7d578063d93f2caa14610f99578063dd62ed3e14610fb7578063ddfc79fb14610fe75761048b565b8063c7954e4c11610115578063c7954e4c14610e93578063c90c884d14610eb1578063c9442dac14610ee5578063c976831514610f01578063d214ba7414610f315761048b565b8063bad0dd6514610da8578063bfd2f4c514610dc4578063c12804fb14610df9578063c293bbbe14610e33578063c491b04c14610e635761048b565b8063a217fddf116101df578063a9059cbb116101a3578063a9059cbb14610cde578063aa95da3a14610d0e578063ac678a9314610d3e578063ac957c6314610d6e578063b31a4af314610d8c5761048b565b8063a217fddf14610c0e578063a26a795314610c2c578063a296ea5814610c5c578063a3ef204114610c7a578063a3f7e09614610cae5761048b565b806391d148541161022657806391d1485414610b5457806395d89b4114610b845780639bce575114610ba2578063a14ecbdf14610bc0578063a1cd05b114610bde5761048b565b806375b9d86914610aad5780637d83daf214610ac9578063846f815214610ae757806388409afa14610b055780638ea6e2fd14610b385761048b565b806332cb6b0c1161037e57806358a3fa25116102fb5780636b000fa7116102bf5780636b000fa7146109f15780636fdb67f714610a0f57806370a0823114610a4557806373a82b5f14610a755780637528499814610a915761048b565b806358a3fa251461094b578063599c553314610967578063632c224b1461098557806366055159146109b55780636a4af0fa146109d35761048b565b806340932bf81161034257806340932bf8146108625780634a474b9c146108975780634d42ef48146108c757806351d93c81146108fb57806352994e2f1461092d5761048b565b806332cb6b0c146107bc57806334ed4bdb146107da57806336568abe1461080a5780633693dcfa146108265780633b129a56146108445761048b565b8063248a9ca31161040c57806329a0be65116103d057806329a0be65146106fd5780632aac61ae1461071b5780632f2ff15d14610750578063313ce5671461076c57806331b1b9781461078a5761048b565b8063248a9ca314610628578063274202f01461065857806327ff622314610676578063295b825a146106945780632990db7c146106c75761048b565b806311ce15df1161045357806311ce15df1461054a57806318160ddd1461057a57806319f102ec1461059857806320bd0316146105c857806323b872dd146105f85761048b565b806301ffc9a71461049057806304e48bd1146104c0578063057f46bb146104de57806306fdde03146104fc578063095ea7b31461051a575b600080fd5b6104aa60048036038101906104a59190617aba565b611103565b6040516104b79190617b02565b60405180910390f35b6104c861117d565b6040516104d59190617e45565b60405180910390f35b6104e6611569565b6040516104f39190617e76565b60405180910390f35b61050461156f565b6040516105119190617edb565b60405180910390f35b610534600480360381019061052f9190617f55565b611601565b6040516105419190617b02565b60405180910390f35b610564600480360381019061055f9190617f95565b611624565b6040516105719190617b02565b60405180910390f35b610582611644565b60405161058f9190617e76565b60405180910390f35b6105b260048036038101906105ad9190617f95565b61164e565b6040516105bf9190617fd1565b60405180910390f35b6105e260048036038101906105dd9190617f95565b61168d565b6040516105ef9190617b02565b60405180910390f35b610612600480360381019061060d9190617fec565b61185d565b60405161061f9190617b02565b60405180910390f35b610642600480360381019061063d9190618075565b61188c565b60405161064f91906180b1565b60405180910390f35b6106606118ac565b60405161066d9190617e76565b60405180910390f35b61067e6118d4565b60405161068b9190617e76565b60405180910390f35b6106ae60048036038101906106a99190617f95565b6118d9565b6040516106be94939291906180cc565b60405180910390f35b6106e160048036038101906106dc9190617f95565b6119ae565b6040516106f49796959493929190618118565b60405180910390f35b610705611b3a565b6040516107129190617e76565b60405180910390f35b61073560048036038101906107309190617f95565b611b40565b60405161074796959493929190618195565b60405180910390f35b61076a60048036038101906107659190618204565b611ca9565b005b610774611ccb565b6040516107819190618260565b60405180910390f35b6107a4600480360381019061079f9190617f95565b611cd4565b6040516107b39392919061827b565b60405180910390f35b6107c4611d86565b6040516107d19190617e76565b60405180910390f35b6107f460048036038101906107ef91906182b9565b611d96565b6040516108019190617e76565b60405180910390f35b610824600480360381019061081f9190618204565b611db4565b005b61082e611e2f565b60405161083b91906180b1565b60405180910390f35b61084c611e53565b60405161085991906180b1565b60405180910390f35b61087c60048036038101906108779190617f95565b611e77565b60405161088e9695949392919061833b565b60405180910390f35b6108b160048036038101906108ac9190617f95565b611f88565b6040516108be91906185ce565b60405180910390f35b6108e160048036038101906108dc91906185f0565b612212565b6040516108f2959493929190618630565b60405180910390f35b61091560048036038101906109109190617f95565b6122fa565b6040516109249392919061827b565b60405180910390f35b6109356123bc565b60405161094291906180b1565b60405180910390f35b6109656004803603810190610960919061868a565b6123e0565b005b61096f6126a6565b60405161097c9190617e76565b60405180910390f35b61099f600480360381019061099a91906188b3565b6126ab565b6040516109ac9190617e76565b60405180910390f35b6109bd61286f565b6040516109ca9190617e76565b60405180910390f35b6109db612875565b6040516109e89190618ad4565b60405180910390f35b6109f9612c05565b604051610a069190617e76565b60405180910390f35b610a296004803603810190610a249190617f95565b612c0b565b604051610a3c9796959493929190618118565b60405180910390f35b610a5f6004803603810190610a5a91906182b9565b612da7565b604051610a6c9190617e76565b60405180910390f35b610a8f6004803603810190610a8a91906182b9565b612def565b005b610aab6004803603810190610aa69190617f95565b612fd3565b005b610ac76004803603810190610ac29190618af6565b61332a565b005b610ad1613538565b604051610ade9190617e76565b60405180910390f35b610aef61353e565b604051610afc9190617e76565b60405180910390f35b610b1f6004803603810190610b1a9190617f95565b61354a565b604051610b2f94939291906180cc565b60405180910390f35b610b526004803603810190610b4d9190617f95565b61360f565b005b610b6e6004803603810190610b699190618204565b613979565b604051610b7b9190617b02565b60405180910390f35b610b8c6139e4565b604051610b999190617edb565b60405180910390f35b610baa613a76565b604051610bb79190618cb9565b60405180910390f35b610bc8613c11565b604051610bd59190617e76565b60405180910390f35b610bf86004803603810190610bf391906185f0565b613c17565b604051610c059190617fd1565b60405180910390f35b610c16613c65565b604051610c2391906180b1565b60405180910390f35b610c466004803603810190610c419190618cdb565b613c6c565b604051610c539190617b02565b60405180910390f35b610c646140d6565b604051610c719190619043565b60405180910390f35b610c946004803603810190610c8f9190617f95565b6144ae565b604051610ca5959493929190618630565b60405180910390f35b610cc86004803603810190610cc39190617f95565b614579565b604051610cd591906190e2565b60405180910390f35b610cf86004803603810190610cf39190617f55565b6148db565b604051610d059190617b02565b60405180910390f35b610d286004803603810190610d2391906185f0565b6148fe565b604051610d359190617edb565b60405180910390f35b610d586004803603810190610d539190617f95565b6149b6565b604051610d659190618cb9565b60405180910390f35b610d76614af3565b604051610d839190617e76565b60405180910390f35b610da66004803603810190610da19190619189565b614af8565b005b610dc26004803603810190610dbd9190617f95565b614eea565b005b610dde6004803603810190610dd99190617f95565b6151e9565b604051610df096959493929190618195565b60405180910390f35b610e136004803603810190610e0e91906191fd565b615342565b604051610e2a9b9a9998979695949392919061923d565b60405180910390f35b610e4d6004803603810190610e489190617f95565b6153b6565b604051610e5a9190619357565b60405180910390f35b610e7d6004803603810190610e7891906182b9565b615457565b604051610e8a9190617b02565b60405180910390f35b610e9b615477565b604051610ea89190617e76565b60405180910390f35b610ecb6004803603810190610ec69190617f95565b615481565b604051610edc959493929190618630565b60405180910390f35b610eff6004803603810190610efa91906182b9565b61555c565b005b610f1b6004803603810190610f1691906191fd565b615846565b604051610f289190617b02565b60405180910390f35b610f4b6004803603810190610f46919061951d565b615875565b604051610f589190617b02565b60405180910390f35b610f7b6004803603810190610f7691906195d4565b615b6e565b005b610f976004803603810190610f929190618204565b615f65565b005b610fa1615f87565b604051610fae9190617e76565b60405180910390f35b610fd16004803603810190610fcc9190619673565b615f93565b604051610fde9190617e76565b60405180910390f35b6110016004803603810190610ffc9190617f95565b61601a565b604051611010939291906196c2565b60405180910390f35b611021616171565b60405161102e9190617e76565b60405180910390f35b61103f61617e565b60405161104c9190617e76565b60405180910390f35b61105d616184565b60405161106a9190617e76565b60405180910390f35b61108d60048036038101906110889190617f95565b61618a565b60405161109a9190617b02565b60405180910390f35b6110bd60048036038101906110b891906182b9565b6164d2565b6040516110ca9190617b02565b60405180910390f35b6110ed60048036038101906110e89190617f55565b616505565b6040516110fa9190617b02565b60405180910390f35b60007f7965db0b000000000000000000000000000000000000000000000000000000007bffffffffffffffffffffffffffffffffffffffffffffffffffffffff1916827bffffffffffffffffffffffffffffffffffffffffffffffffffffffff19161480611176575061117582616534565b5b9050919050565b6060600060268054905067ffffffffffffffff8111156111a05761119f618788565b5b6040519080825280602002602001820160405280156111d957816020015b6111c6617512565b8152602001906001900390816111be5790505b50905060005b602680549050811015611561576040518061010001604052806026838154811061120c5761120b619707565b5b90600052602060002090600702016000015481526020016026838154811061123757611236619707565b5b9060005260206000209060070201600101805461125390619765565b80601f016020809104026020016040519081016040528092919081815260200182805461127f90619765565b80156112cc5780601f106112a1576101008083540402835291602001916112cc565b820191906000526020600020905b8154815290600101906020018083116112af57829003601f168201915b50505050508152602001602683815481106112ea576112e9619707565b5b9060005260206000209060070201600201805461130690619765565b80601f016020809104026020016040519081016040528092919081815260200182805461133290619765565b801561137f5780601f106113545761010080835404028352916020019161137f565b820191906000526020600020905b81548152906001019060200180831161136257829003601f168201915b505050505081526020016026838154811061139d5761139c619707565b5b906000526020600020906007020160030160009054906101000a900460ff1615158152602001602683815481106113d7576113d6619707565b5b90600052602060002090600702016004015481526020016026838154811061140257611401619707565b5b906000526020600020906007020160050160009054906101000a900473ffffffffffffffffffffffffffffffffffffffff1673ffffffffffffffffffffffffffffffffffffffff1681526020016026838154811061146357611462619707565b5b906000526020600020906007020160050160149054906101000a900460ff16151581526020016026838154811061149d5761149c619707565b5b906000526020600020906007020160060180548060200260200160405190810160405280929190818152602001828054801561152e57602002820191906000526020600020905b8160009054906101000a900473ffffffffffffffffffffffffffffffffffffffff1673ffffffffffffffffffffffffffffffffffffffff16815260200190600101908083116114e4575b505050505081525082828151811061154957611548619707565b5b602002602001018190525080806001019150506111df565b508091505090565b60145481565b60606003805461157e90619765565b80601f01602080910402602001604051908101604052809291908181526020018280546115aa90619765565b80156115f75780601f106115cc576101008083540402835291602001916115f7565b820191906000526020600020905b8154815290600101906020018083116115da57829003601f168201915b5050505050905090565b60008061160c61659e565b90506116198185856165a6565b600191505092915050565b60246020528060005260406000206000915054906101000a900460ff1681565b6000600254905090565b6006818154811061165e57600080fd5b906000526020600020016000915054906101000a900473ffffffffffffffffffffffffffffffffffffffff1681565b60006116976165b8565b6025600083815260200190815260200160002060003373ffffffffffffffffffffffffffffffffffffffff1673ffffffffffffffffffffffffffffffffffffffff16815260200190815260200160002060009054906101000a900460ff16611734576040517f08c379a000000000000000000000000000000000000000000000000000000000815260040161172b906197e2565b60405180910390fd5b600060196000848152602001908152602001600020905060006026848154811061176157611760619707565b5b9060005260206000209060070201905061177e82600601336165fe565b61178b81600601336165fe565b60006025600086815260200190815260200160002060003373ffffffffffffffffffffffffffffffffffffffff1673ffffffffffffffffffffffffffffffffffffffff16815260200190815260200160002060006101000a81548160ff02191690831515021790555061180633671bc16d674ec8000061679b565b3373ffffffffffffffffffffffffffffffffffffffff16847f9b244c565b926d7f4e915b69f3a5c6afc2231322d0d44e821076ad8879d0d68360405160405180910390a36001925050506118586167c2565b919050565b60008061186861659e565b90506118758582856167cc565b611880858585616860565b60019150509392505050565b600060056000838152602001908152602001600020600101549050919050565b6064600f6b204fce5e3e250261100000006118c79190619831565b6118d191906198a2565b81565b606481565b602a81815481106118e957600080fd5b906000526020600020906005020160009150905080600001549080600101549080600201805461191890619765565b80601f016020809104026020016040519081016040528092919081815260200182805461194490619765565b80156119915780601f1061196657610100808354040283529160200191611991565b820191906000526020600020905b81548152906001019060200180831161197457829003601f168201915b5050505050908060040160009054906101000a900460ff16905084565b60196020528060005260406000206000915090508060000154908060010180546119d790619765565b80601f0160208091040260200160405190810160405280929190818152602001828054611a0390619765565b8015611a505780601f10611a2557610100808354040283529160200191611a50565b820191906000526020600020905b815481529060010190602001808311611a3357829003601f168201915b505050505090806002018054611a6590619765565b80601f0160208091040260200160405190810160405280929190818152602001828054611a9190619765565b8015611ade5780601f10611ab357610100808354040283529160200191611ade565b820191906000526020600020905b815481529060010190602001808311611ac157829003601f168201915b5050505050908060030160009054906101000a900460ff16908060040154908060050160009054906101000a900473ffffffffffffffffffffffffffffffffffffffff16908060050160149054906101000a900460ff16905087565b60155481565b60288181548110611b5057600080fd5b9060005260206000209060240201600091509050806000015490806001015490806002018054611b7f90619765565b80601f0160208091040260200160405190810160405280929190818152602001828054611bab90619765565b8015611bf85780601f10611bcd57610100808354040283529160200191611bf8565b820191906000526020600020905b815481529060010190602001808311611bdb57829003601f168201915b505050505090806003018054611c0d90619765565b80601f0160208091040260200160405190810160405280929190818152602001828054611c3990619765565b8015611c865780601f10611c5b57610100808354040283529160200191611c86565b820191906000526020600020905b815481529060010190602001808311611c6957829003601f168201915b5050505050908060220154908060230160009054906101000a900460ff16905086565b611cb28261188c565b611cbb81616954565b611cc58383616968565b50505050565b60006012905090565b6022602052806000526040600020600091509050806000015490806001015490806002018054611d0390619765565b80601f0160208091040260200160405190810160405280929190818152602001828054611d2f90619765565b8015611d7c5780601f10611d5157610100808354040283529160200191611d7c565b820191906000526020600020905b815481529060010190602001808311611d5f57829003601f168201915b5050505050905083565b6b204fce5e3e2502611000000081565b601b6020528060005260406000206000915090508060000154905081565b611dbc61659e565b73ffffffffffffffffffffffffffffffffffffffff168173ffffffffffffffffffffffffffffffffffffffff1614611e20576040517f6697b23200000000000000000000000000000000000000000000000000000000815260040160405180910390fd5b611e2a8282616a5a565b505050565b7fadb22091b155738d2e889eb96f509d2a7c93234236b30400927feb4a6a15ab0081565b7fc10c77be35aff266144ed64c26a1fa104bae2f284ae99ac4a34203454704a18581565b60096020528060005260406000206000915090508060000154908060010160009054906101000a900473ffffffffffffffffffffffffffffffffffffffff16908060020160009054906101000a900473ffffffffffffffffffffffffffffffffffffffff1690806003018054611eec90619765565b80601f0160208091040260200160405190810160405280929190818152602001828054611f1890619765565b8015611f655780601f10611f3a57610100808354040283529160200191611f65565b820191906000526020600020905b815481529060010190602001808311611f4857829003601f168201915b5050505050908060040154908060050160009054906101000a900460ff16905086565b60606021600083815260200190815260200160002060040160009054906101000a900460ff16611fed576040517f08c379a0000000000000000000000000000000000000000000000000000000008152600401611fe49061991f565b60405180910390fd5b60216000838152602001908152602001600020600301805480602002602001604051908101604052809291908181526020016000905b828210156122075783829060005260206000209060040201604051806080016040529081600082015481526020016001820154815260200160028201805461206a90619765565b80601f016020809104026020016040519081016040528092919081815260200182805461209690619765565b80156120e35780601f106120b8576101008083540402835291602001916120e3565b820191906000526020600020905b8154815290600101906020018083116120c657829003601f168201915b5050505050815260200160038201805480602002602001604051908101604052809291908181526020016000905b828210156121f0578382906000526020600020906002020160405180604001604052908160008201805461214490619765565b80601f016020809104026020016040519081016040528092919081815260200182805461217090619765565b80156121bd5780601f10612192576101008083540402835291602001916121bd565b820191906000526020600020905b8154815290600101906020018083116121a057829003601f168201915b505050505081526020016001820160009054906101000a900460ff16151515158152505081526020019060010190612111565b505050508152505081526020019060010190612023565b505050509050919050565b601e602052816000526040600020818154811061222e57600080fd5b90600052602060002090600502016000915091505080600001549080600101549080600201805461225e90619765565b80601f016020809104026020016040519081016040528092919081815260200182805461228a90619765565b80156122d75780601f106122ac576101008083540402835291602001916122d7565b820191906000526020600020905b8154815290600101906020018083116122ba57829003601f168201915b5050505050908060030154908060040160009054906101000a900460ff16905085565b602b818154811061230a57600080fd5b906000526020600020906004020160009150905080600001549080600101549080600201805461233990619765565b80601f016020809104026020016040519081016040528092919081815260200182805461236590619765565b80156123b25780601f10612387576101008083540402835291602001916123b2565b820191906000526020600020905b81548152906001019060200180831161239557829003601f168201915b5050505050905083565b7fdf1425bae297c2f52b4f15d18a50b1fc8cb5b981a981b1d213ed3ff92681b64d81565b7fc10c77be35aff266144ed64c26a1fa104bae2f284ae99ac4a34203454704a18561240a81616954565b6124148c33616b4d565b612453576040517f08c379a000000000000000000000000000000000000000000000000000000000815260040161244a906199b1565b60405180910390fd5b601a60008d815260200190815260200160002060003373ffffffffffffffffffffffffffffffffffffffff1673ffffffffffffffffffffffffffffffffffffffff168152602001908152602001600020600a0160009054906101000a900460ff16156124f4576040517f08c379a00000000000000000000000000000000000000000000000000000000081526004016124eb90619a43565b60405180910390fd5b6125068b8b8b8b8b8b8b8b8b8b616c18565b6040518061016001604052808c81526020018b81526020018a815260200189815260200188815260200187815260200186815260200185815260200184815260200183815260200160011515815250601a60008e815260200190815260200160002060003373ffffffffffffffffffffffffffffffffffffffff1673ffffffffffffffffffffffffffffffffffffffff168152602001908152602001600020600082015181600001556020820151816001015560408201518160020155606082015181600301556080820151816004015560a0820151816005015560c0820151816006015560e082015181600701556101008201518160080155610120820151816009015561014082015181600a0160006101000a81548160ff0219169083151502179055509050506050612689601a60008f815260200190815260200160002060003373ffffffffffffffffffffffffffffffffffffffff1673ffffffffffffffffffffffffffffffffffffffff168152602001908152602001600020616cdd565b10612698576126978c612fd3565b5b505050505050505050505050565b600281565b6000806016549050601f600085815260200190815260200160002060230160009054906101000a900460ff16612716576040517f08c379a000000000000000000000000000000000000000000000000000000000815260040161270d90619aaf565b60405180910390fd5b6000602160008381526020019081526020016000209050848160000181905550818160010181905550838160020190816127509190619c7b565b5060018160040160006101000a81548160ff0219169083151502179055506016600081548092919061278190619d4d565b9190505550602a8190806001815401808255809150506001900390600052602060002090600502016000909190919091506000820154816000015560018201548160010155600282018160020190816127da9190619dab565b5060038201816003019080546127f1929190617571565b506004820160009054906101000a900460ff168160040160006101000a81548160ff02191690831515021790555050508360405161282f9190619ecf565b6040518091039020827fbf27702cefbc4aea50d7c73cfee96f84f5b908f62aeafcd8b0aeae202c15050960405160405180910390a3819250505092915050565b60125481565b60606000601654905060008167ffffffffffffffff81111561289a57612899618788565b5b6040519080825280602002602001820160405280156128d357816020015b6128c0617609565b8152602001906001900390816128b85790505b50905060005b82811015612bfc57602160008281526020019081526020016000206040518060a0016040529081600082015481526020016001820154815260200160028201805461292390619765565b80601f016020809104026020016040519081016040528092919081815260200182805461294f90619765565b801561299c5780601f106129715761010080835404028352916020019161299c565b820191906000526020600020905b81548152906001019060200180831161297f57829003601f168201915b5050505050815260200160038201805480602002602001604051908101604052809291908181526020016000905b82821015612bae57838290600052602060002090600402016040518060800160405290816000820154815260200160018201548152602001600282018054612a1190619765565b80601f0160208091040260200160405190810160405280929190818152602001828054612a3d90619765565b8015612a8a5780601f10612a5f57610100808354040283529160200191612a8a565b820191906000526020600020905b815481529060010190602001808311612a6d57829003601f168201915b5050505050815260200160038201805480602002602001604051908101604052809291908181526020016000905b82821015612b975783829060005260206000209060020201604051806040016040529081600082018054612aeb90619765565b80601f0160208091040260200160405190810160405280929190818152602001828054612b1790619765565b8015612b645780601f10612b3957610100808354040283529160200191612b64565b820191906000526020600020905b815481529060010190602001808311612b4757829003601f168201915b505050505081526020016001820160009054906101000a900460ff16151515158152505081526020019060010190612ab8565b5050505081525050815260200190600101906129ca565b5050505081526020016004820160009054906101000a900460ff161515151581525050828281518110612be457612be3619707565b5b602002602001018190525080806001019150506128d9565b50809250505090565b60185481565b60268181548110612c1b57600080fd5b9060005260206000209060070201600091509050806000015490806001018054612c4490619765565b80601f0160208091040260200160405190810160405280929190818152602001828054612c7090619765565b8015612cbd5780601f10612c9257610100808354040283529160200191612cbd565b820191906000526020600020905b815481529060010190602001808311612ca057829003601f168201915b505050505090806002018054612cd290619765565b80601f0160208091040260200160405190810160405280929190818152602001828054612cfe90619765565b8015612d4b5780601f10612d2057610100808354040283529160200191612d4b565b820191906000526020600020905b815481529060010190602001808311612d2e57829003601f168201915b5050505050908060030160009054906101000a900460ff16908060040154908060050160009054906101000a900473ffffffffffffffffffffffffffffffffffffffff16908060050160149054906101000a900460ff16905087565b60008060008373ffffffffffffffffffffffffffffffffffffffff1673ffffffffffffffffffffffffffffffffffffffff168152602001908152602001600020549050919050565b7fc10c77be35aff266144ed64c26a1fa104bae2f284ae99ac4a34203454704a185612e1981616954565b600860008373ffffffffffffffffffffffffffffffffffffffff1673ffffffffffffffffffffffffffffffffffffffff16815260200190815260200160002060009054906101000a900460ff1615612ea6576040517f08c379a0000000000000000000000000000000000000000000000000000000008152600401612e9d90619f32565b60405180910390fd5b612ed07fc10c77be35aff266144ed64c26a1fa104bae2f284ae99ac4a34203454704a18583616968565b506006829080600181540180825580915050600190039060005260206000200160009091909190916101000a81548173ffffffffffffffffffffffffffffffffffffffff021916908373ffffffffffffffffffffffffffffffffffffffff1602179055506001600860008473ffffffffffffffffffffffffffffffffffffffff1673ffffffffffffffffffffffffffffffffffffffff16815260200190815260200160002060006101000a81548160ff0219169083151502179055508173ffffffffffffffffffffffffffffffffffffffff167fe1cb5e1230cc02e62c60b81c1aa5ade512f3eac296edb28628b4cf344f47f93160405160405180910390a25050565b7fc10c77be35aff266144ed64c26a1fa104bae2f284ae99ac4a34203454704a185612ffd81616954565b60006019600084815260200190815260200160002090508060030160009054906101000a900460ff1615613066576040517f08c379a000000000000000000000000000000000000000000000000000000000815260040161305d90619f9e565b60405180910390fd5b601c60003373ffffffffffffffffffffffffffffffffffffffff1673ffffffffffffffffffffffffffffffffffffffff168152602001908152602001600020600084815260200190815260200160002060009054906101000a900460ff1615613104576040517f08c379a00000000000000000000000000000000000000000000000000000000081526004016130fb9061a030565b60405180910390fd5b6001601c60003373ffffffffffffffffffffffffffffffffffffffff1673ffffffffffffffffffffffffffffffffffffffff168152602001908152602001600020600085815260200190815260200160002060006101000a81548160ff02191690831515021790555080600401600081548092919061318290619d4d565b919050555060028160040154106132a75760018160030160006101000a81548160ff02191690831515021790555060005b60268054905081101561326a5783602682815481106131d5576131d4619707565b5b9060005260206000209060070201600001540361325d5760016026828154811061320257613201619707565b5b906000526020600020906007020160030160006101000a81548160ff02191690831515021790555081600401546026828154811061324357613242619707565b5b90600052602060002090600702016004018190555061326a565b80806001019150506131b3565b506132a18160050160009054906101000a900473ffffffffffffffffffffffffffffffffffffffff16674563918244f40000616d72565b50613325565b60005b6026805490508110156133235783602682815481106132cc576132cb619707565b5b90600052602060002090600702016000015403613316578160040154602682815481106132fc576132fb619707565b5b906000526020600020906007020160040181905550613323565b80806001019150506132aa565b505b505050565b60006015549050601d600085815260200190815260200160002060040160009054906101000a900460ff16613394576040517f08c379a000000000000000000000000000000000000000000000000000000000815260040161338b9061a09c565b60405180910390fd5b6000601f60008381526020019081526020016000209050848160000181905550818160010181905550838160020190816133ce9190619c7b565b50828160030190816133e09190619c7b565b5060018160230160006101000a81548160ff021916908315150217905550600081602201819055506028601f6000848152602001908152602001600020908060018154018082558091505060019003906000526020600020906024020160009091909190915060008201548160000155600182015481600101556002820181600201908161346e9190619dab565b50600382018160030190816134839190619dab565b50600482018160040190600a61349a92919061763a565b50602282015481602201556023820160009054906101000a900460ff168160230160006101000a81548160ff0219169083151502179055505050601560008154809291906134e790619d4d565b9190505550600a846040516134fc9190619ecf565b6040518091039020837f3387c3a40ec1df95e34d25a0e5564b40d01c331b71ccbafccccc66d36c84ad8360405160405180910390a45050505050565b60135481565b671bc16d674ec8000081565b602160205280600052604060002060009150905080600001549080600101549080600201805461357990619765565b80601f01602080910402602001604051908101604052809291908181526020018280546135a590619765565b80156135f25780601f106135c7576101008083540402835291602001916135f2565b820191906000526020600020905b8154815290600101906020018083116135d557829003601f168201915b5050505050908060040160009054906101000a900460ff16905084565b7fadb22091b155738d2e889eb96f509d2a7c93234236b30400927feb4a6a15ab0061363981616954565b6024600083815260200190815260200160002060009054906101000a900460ff161561369a576040517f08c379a00000000000000000000000000000000000000000000000000000000081526004016136919061a108565b60405180910390fd5b600360068054905010156136e3576040517f08c379a00000000000000000000000000000000000000000000000000000000081526004016136da9061a174565b60405180910390fd5b60236000838152602001908152602001600020600061370291906176e4565b60005b60038110156138df576000600680549050424460068054905085604051602001613732949392919061a1b5565b6040516020818303038152906040528051906020012060001c613755919061a203565b905060006006828154811061376d5761376c619707565b5b9060005260206000200160009054906101000a900473ffffffffffffffffffffffffffffffffffffffff1690506000805b6023600088815260200190815260200160002080549050811015613854578273ffffffffffffffffffffffffffffffffffffffff166023600089815260200190815260200160002082815481106137f8576137f7619707565b5b9060005260206000200160009054906101000a900473ffffffffffffffffffffffffffffffffffffffff1673ffffffffffffffffffffffffffffffffffffffff16036138475760019150613854565b808060010191505061379e565b50806138cf5760236000878152602001908152602001600020829080600181540180825580915050600190039060005260206000200160009091909190916101000a81548173ffffffffffffffffffffffffffffffffffffffff021916908373ffffffffffffffffffffffffffffffffffffffff1602179055505b5050508080600101915050613705565b50600360236000848152602001908152602001600020805490500361392b5760016024600084815260200190815260200160002060006101000a81548160ff0219169083151502179055505b817fe205dff861c570b8df17e26f893778853f94bb25d2de318755e48eab0b403ff76023600085815260200190815260200160002060405161396d919061a320565b60405180910390a25050565b60006005600084815260200190815260200160002060000160008373ffffffffffffffffffffffffffffffffffffffff1673ffffffffffffffffffffffffffffffffffffffff16815260200190815260200160002060009054906101000a900460ff16905092915050565b6060600480546139f390619765565b80601f0160208091040260200160405190810160405280929190818152602001828054613a1f90619765565b8015613a6c5780601f10613a4157610100808354040283529160200191613a6c565b820191906000526020600020905b815481529060010190602001808311613a4f57829003601f168201915b5050505050905090565b60606000602780549050905060008167ffffffffffffffff811115613a9e57613a9d618788565b5b604051908082528060200260200182016040528015613ad757816020015b613ac4617705565b815260200190600190039081613abc5790505b50905060005b82811015613c085760278181548110613af957613af8619707565b5b90600052602060002090600502016040518060a00160405290816000820154815260200160018201548152602001600282018054613b3690619765565b80601f0160208091040260200160405190810160405280929190818152602001828054613b6290619765565b8015613baf5780601f10613b8457610100808354040283529160200191613baf565b820191906000526020600020905b815481529060010190602001808311613b9257829003601f168201915b50505050508152602001600382015481526020016004820160009054906101000a900460ff161515151581525050828281518110613bf057613bef619707565b5b60200260200101819052508080600101915050613add565b50809250505090565b60115481565b60236020528160005260406000208181548110613c3357600080fd5b906000526020600020016000915091509054906101000a900473ffffffffffffffffffffffffffffffffffffffff1681565b6000801b81565b600060196000601354815260200190815260200160002060050160149054906101000a900460ff1615613cd4576040517f08c379a0000000000000000000000000000000000000000000000000000000008152600401613ccb9061a38e565b60405180910390fd5b60006040518061010001604052806013548152602001858152602001848152602001600015158152602001600081526020013373ffffffffffffffffffffffffffffffffffffffff168152602001600115158152602001600067ffffffffffffffff811115613d4657613d45618788565b5b604051908082528060200260200182016040528015613d745781602001602082028036833780820191505090505b50815250905080601960006013548152602001908152602001600020600082015181600001556020820151816001019081613daf9190619c7b565b506040820151816002019081613dc59190619c7b565b5060608201518160030160006101000a81548160ff0219169083151502179055506080820151816004015560a08201518160050160006101000a81548173ffffffffffffffffffffffffffffffffffffffff021916908373ffffffffffffffffffffffffffffffffffffffff16021790555060c08201518160050160146101000a81548160ff02191690831515021790555060e0820151816006019080519060200190613e73929190617736565b509050506026819080600181540180825580915050600190039060005260206000209060070201600090919091909150600082015181600001556020820151816001019081613ec29190619c7b565b506040820151816002019081613ed89190619c7b565b5060608201518160030160006101000a81548160ff0219169083151502179055506080820151816004015560a08201518160050160006101000a81548173ffffffffffffffffffffffffffffffffffffffff021916908373ffffffffffffffffffffffffffffffffffffffff16021790555060c08201518160050160146101000a81548160ff02191690831515021790555060e0820151816006019080519060200190613f86929190617736565b50505060126000815480929190613f9c90619d4d565b91905055506001601b60003373ffffffffffffffffffffffffffffffffffffffff1673ffffffffffffffffffffffffffffffffffffffff1681526020019081526020016000206000016000828254613ff4919061a3ae565b925050819055506013600081548092919061400e90619d4d565b919050555061403d7fadb22091b155738d2e889eb96f509d2a7c93234236b30400927feb4a6a15ab0033616968565b508360405161404c9190619ecf565b60405180910390206001601354614063919061a3e2565b7f9c93a42b217373d37e6c66ace0a67fe1fa1f78c93164b62417de69c48c0f67e2601960006001601354614097919061a3e2565b815260200190815260200160002060030160009054906101000a900460ff166040516140c39190617b02565b60405180910390a3600191505092915050565b60606000602880549050905060008167ffffffffffffffff8111156140fe576140fd618788565b5b60405190808252806020026020018201604052801561413757816020015b6141246177c0565b81526020019060019003908161411c5790505b50905060005b828110156144a5576028818154811061415957614158619707565b5b90600052602060002090602402016040518060e0016040529081600082015481526020016001820154815260200160028201805461419690619765565b80601f01602080910402602001604051908101604052809291908181526020018280546141c290619765565b801561420f5780601f106141e45761010080835404028352916020019161420f565b820191906000526020600020905b8154815290600101906020018083116141f257829003601f168201915b5050505050815260200160038201805461422890619765565b80601f016020809104026020016040519081016040528092919081815260200182805461425490619765565b80156142a15780601f10614276576101008083540402835291602001916142a1565b820191906000526020600020905b81548152906001019060200180831161428457829003601f168201915b5050505050815260200160048201600a80602002604051908101604052809291906000905b8282101561444d578382600302016040518060600160405290816000820160009054906101000a900460ff16600281111561430457614303618d9f565b5b600281111561431657614315618d9f565b5b815260200160018201805461432a90619765565b80601f016020809104026020016040519081016040528092919081815260200182805461435690619765565b80156143a35780601f10614378576101008083540402835291602001916143a3565b820191906000526020600020905b81548152906001019060200180831161438657829003601f168201915b505050505081526020016002820180546143bc90619765565b80601f01602080910402602001604051908101604052809291908181526020018280546143e890619765565b80156144355780601f1061440a57610100808354040283529160200191614435565b820191906000526020600020905b81548152906001019060200180831161441857829003601f168201915b505050505081525050815260200190600101906142c6565b505050508152602001602282015481526020016023820160009054906101000a900460ff16151515158152505082828151811061448d5761448c619707565b5b6020026020010181905250808060010191505061413d565b50809250505090565b601d6020528060005260406000206000915090508060000154908060010154908060020180546144dd90619765565b80601f016020809104026020016040519081016040528092919081815260200182805461450990619765565b80156145565780601f1061452b57610100808354040283529160200191614556565b820191906000526020600020905b81548152906001019060200180831161453957829003601f168201915b5050505050908060030154908060040160009054906101000a900460ff16905085565b614581617609565b6021600083815260200190815260200160002060040160009054906101000a900460ff166145e4576040517f08c379a00000000000000000000000000000000000000000000000000000000081526004016145db9061991f565b60405180910390fd5b602160008381526020019081526020016000206040518060a0016040529081600082015481526020016001820154815260200160028201805461462690619765565b80601f016020809104026020016040519081016040528092919081815260200182805461465290619765565b801561469f5780601f106146745761010080835404028352916020019161469f565b820191906000526020600020905b81548152906001019060200180831161468257829003601f168201915b5050505050815260200160038201805480602002602001604051908101604052809291908181526020016000905b828210156148b15783829060005260206000209060040201604051806080016040529081600082015481526020016001820154815260200160028201805461471490619765565b80601f016020809104026020016040519081016040528092919081815260200182805461474090619765565b801561478d5780601f106147625761010080835404028352916020019161478d565b820191906000526020600020905b81548152906001019060200180831161477057829003601f168201915b5050505050815260200160038201805480602002602001604051908101604052809291908181526020016000905b8282101561489a57838290600052602060002090600202016040518060400160405290816000820180546147ee90619765565b80601f016020809104026020016040519081016040528092919081815260200182805461481a90619765565b80156148675780601f1061483c57610100808354040283529160200191614867565b820191906000526020600020905b81548152906001019060200180831161484a57829003601f168201915b505050505081526020016001820160009054906101000a900460ff161515151581525050815260200190600101906147bb565b5050505081525050815260200190600101906146cd565b5050505081526020016004820160009054906101000a900460ff1615151515815250509050919050565b6000806148e661659e565b90506148f3818585616860565b600191505092915050565b60208052816000526040600020818154811061491957600080fd5b9060005260206000200160009150915050805461493590619765565b80601f016020809104026020016040519081016040528092919081815260200182805461496190619765565b80156149ae5780601f10614983576101008083540402835291602001916149ae565b820191906000526020600020905b81548152906001019060200180831161499157829003601f168201915b505050505081565b6060601e6000838152602001908152602001600020805480602002602001604051908101604052809291908181526020016000905b82821015614ae857838290600052602060002090600502016040518060a00160405290816000820154815260200160018201548152602001600282018054614a3290619765565b80601f0160208091040260200160405190810160405280929190818152602001828054614a5e90619765565b8015614aab5780601f10614a8057610100808354040283529160200191614aab565b820191906000526020600020905b815481529060010190602001808311614a8e57829003601f168201915b50505050508152602001600382015481526020016004820160009054906101000a900460ff161515151581525050815260200190600101906149eb565b505050509050919050565b605081565b7fadb22091b155738d2e889eb96f509d2a7c93234236b30400927feb4a6a15ab00614b2281616954565b6000601f600087815260200190815260200160002090508060230160009054906101000a900460ff16614b8a576040517f08c379a0000000000000000000000000000000000000000000000000000000008152600401614b819061a462565b60405180910390fd5b600081602201549050600a8585905082614ba4919061a3ae565b1115614be5576040517f08c379a0000000000000000000000000000000000000000000000000000000008152600401614bdc9061a4ce565b60405180910390fd5b60005b85859050811015614dd6576040518060600160405280878784818110614c1157614c10619707565b5b9050602002810190614c23919061a4fd565b6000016020810190614c35919061a525565b6002811115614c4757614c46618d9f565b5b8152602001878784818110614c5f57614c5e619707565b5b9050602002810190614c71919061a4fd565b8060200190614c80919061a552565b8080601f016020809104026020016040519081016040528093929190818152602001838380828437600081840152601f19601f820116905080830192505050505050508152602001878784818110614cdb57614cda619707565b5b9050602002810190614ced919061a4fd565b8060400190614cfc919061a552565b8080601f016020809104026020016040519081016040528093929190818152602001838380828437600081840152601f19601f820116905080830192505050505050508152508360040183600a8110614d5857614d57619707565b5b6003020160008201518160000160006101000a81548160ff02191690836002811115614d8757614d86618d9f565b5b02179055506020820151816001019081614da19190619c7b565b506040820151816002019081614db79190619c7b565b509050508180614dc690619d4d565b9250508080600101915050614be8565b5080826022018190555060005b602880549050811015614ee0578760288281548110614e0557614e04619707565b5b90600052602060002090602402016001015403614ed3578260288281548110614e3157614e30619707565b5b9060005260206000209060240201600082015481600001556001820154816001015560028201816002019081614e679190619dab565b5060038201816003019081614e7c9190619dab565b50600482018160040190600a614e9392919061763a565b50602282015481602201556023820160009054906101000a900460ff168160230160006101000a81548160ff021916908315150217905550905050614ee0565b8080600101915050614de3565b5050505050505050565b7fdf1425bae297c2f52b4f15d18a50b1fc8cb5b981a981b1d213ed3ff92681b64d614f1481616954565b60006009600084815260200190815260200160002090508060050160009054906101000a900460ff1615614f7d576040517f08c379a0000000000000000000000000000000000000000000000000000000008152600401614f749061a601565b60405180910390fd5b8060060160003373ffffffffffffffffffffffffffffffffffffffff1673ffffffffffffffffffffffffffffffffffffffff16815260200190815260200160002060009054906101000a900460ff161561500c576040517f08c379a00000000000000000000000000000000000000000000000000000000081526004016150039061a66d565b60405180910390fd5b60018160060160003373ffffffffffffffffffffffffffffffffffffffff1673ffffffffffffffffffffffffffffffffffffffff16815260200190815260200160002060006101000a81548160ff02191690831515021790555080600401600081548092919061507b90619d4d565b9190505550827f5d4ccf5f92566d140246f4ae3b9cb35dc06fff109a7748602ad77f6260fd9a61336040516150b09190617fd1565b60405180910390a260038160040154106151e45760008160020160009054906101000a900473ffffffffffffffffffffffffffffffffffffffff1673ffffffffffffffffffffffffffffffffffffffff1682600301604051615112919061a730565b6000604051808303816000865af19150503d806000811461514f576040519150601f19603f3d011682016040523d82523d6000602084013e615154565b606091505b5050905080615198576040517f08c379a000000000000000000000000000000000000000000000000000000000815260040161518f9061a793565b60405180910390fd5b60018260050160006101000a81548160ff021916908315150217905550837f7770356c29230b95943aec59d47ead11eb426a728bf5b57f7fd8597f3c0e29ba60405160405180910390a2505b505050565b601f60205280600052604060002060009150905080600001549080600101549080600201805461521890619765565b80601f016020809104026020016040519081016040528092919081815260200182805461524490619765565b80156152915780601f1061526657610100808354040283529160200191615291565b820191906000526020600020905b81548152906001019060200180831161527457829003601f168201915b5050505050908060030180546152a690619765565b80601f01602080910402602001604051908101604052809291908181526020018280546152d290619765565b801561531f5780601f106152f45761010080835404028352916020019161531f565b820191906000526020600020905b81548152906001019060200180831161530257829003601f168201915b5050505050908060220154908060230160009054906101000a900460ff16905086565b601a6020528160005260406000206020528060005260406000206000915091505080600001549080600101549080600201549080600301549080600401549080600501549080600601549080600701549080600801549080600901549080600a0160009054906101000a900460ff1690508b565b60606023600083815260200190815260200160002080548060200260200160405190810160405280929190818152602001828054801561544b57602002820191906000526020600020905b8160009054906101000a900473ffffffffffffffffffffffffffffffffffffffff1673ffffffffffffffffffffffffffffffffffffffff1681526020019060010190808311615401575b50505050509050919050565b60086020528060005260406000206000915054906101000a900460ff1681565b6000601154905090565b6027818154811061549157600080fd5b90600052602060002090600502016000915090508060000154908060010154908060020180546154c090619765565b80601f01602080910402602001604051908101604052809291908181526020018280546154ec90619765565b80156155395780601f1061550e57610100808354040283529160200191615539565b820191906000526020600020905b81548152906001019060200180831161551c57829003601f168201915b5050505050908060030154908060040160009054906101000a900460ff16905085565b6000801b61556981616954565b600860008373ffffffffffffffffffffffffffffffffffffffff1673ffffffffffffffffffffffffffffffffffffffff16815260200190815260200160002060009054906101000a900460ff166155f5576040517f08c379a00000000000000000000000000000000000000000000000000000000081526004016155ec9061a7ff565b60405180910390fd5b60005b60068054905081101561577b578273ffffffffffffffffffffffffffffffffffffffff16600682815481106156305761562f619707565b5b9060005260206000200160009054906101000a900473ffffffffffffffffffffffffffffffffffffffff1673ffffffffffffffffffffffffffffffffffffffff160361576e576006600160068054905061568a919061a3e2565b8154811061569b5761569a619707565b5b9060005260206000200160009054906101000a900473ffffffffffffffffffffffffffffffffffffffff16600682815481106156da576156d9619707565b5b9060005260206000200160006101000a81548173ffffffffffffffffffffffffffffffffffffffff021916908373ffffffffffffffffffffffffffffffffffffffff16021790555060068054806157345761573361a81f565b5b6001900381819060005260206000200160006101000a81549073ffffffffffffffffffffffffffffffffffffffff0219169055905561577b565b80806001019150506155f8565b506000600860008473ffffffffffffffffffffffffffffffffffffffff1673ffffffffffffffffffffffffffffffffffffffff16815260200190815260200160002060006101000a81548160ff0219169083151502179055506157fe7fc10c77be35aff266144ed64c26a1fa104bae2f284ae99ac4a34203454704a18583616a5a565b508173ffffffffffffffffffffffffffffffffffffffff167f55dba9d79522b91b615629d5f3b10c2fad2d258f1768614f4a52e937ada0d0ba60405160405180910390a25050565b60256020528160005260406000206020528060005260406000206000915091509054906101000a900460ff1681565b60008073ffffffffffffffffffffffffffffffffffffffff166019600086815260200190815260200160002060050160009054906101000a900473ffffffffffffffffffffffffffffffffffffffff1673ffffffffffffffffffffffffffffffffffffffff160361591b576040517f08c379a00000000000000000000000000000000000000000000000000000000081526004016159129061a89a565b60405180910390fd5b60005b8351811015615b335760006040518060a00160405280878152602001601454815260200186848151811061595557615954619707565b5b6020026020010151815260200185848151811061597557615974619707565b5b602002602001015181526020016001151581525090506027819080600181540180825580915050600190039060005260206000209060050201600090919091909150600082015181600001556020820151816001015560408201518160020190816159e09190619c7b565b506060820151816003015560808201518160040160006101000a81548160ff021916908315150217905550505080601d6000601454815260200190815260200160002060008201518160000155602082015181600101556040820151816002019081615a4c9190619c7b565b506060820151816003015560808201518160040160006101000a81548160ff021916908315150217905550905050601e600087815260200190815260200160002081908060018154018082558091505060019003906000526020600020906005020160009091909190915060008201518160000155602082015181600101556040820151816002019081615ae09190619c7b565b506060820151816003015560808201518160040160006101000a81548160ff021916908315150217905550505060146000815480929190615b2090619d4d565b919050555050808060010191505061591e565b508251847f1eb97e969f52c132bb6c79817d1f9001078fff0cd328ce625628e1fb4cc0e7de60405160405180910390a3600190509392505050565b6021600085815260200190815260200160002060040160009054906101000a900460ff16615bd1576040517f08c379a0000000000000000000000000000000000000000000000000000000008152600401615bc89061991f565b60405180910390fd5b60008251118015615be457506004825111155b615c23576040517f08c379a0000000000000000000000000000000000000000000000000000000008152600401615c1a9061a906565b60405180910390fd5b81518160ff1610615c69576040517f08c379a0000000000000000000000000000000000000000000000000000000008152600401615c609061a972565b60405180910390fd5b60006017549050600060226000838152602001908152602001600020905085816000018190555081816001018190555084816002019081615caa9190619c7b565b5060005b84518160ff161015615d745760006040518060400160405280878460ff1681518110615cdd57615cdc619707565b5b602002602001015181526020018660ff168460ff161415158152509050826003018190806001815401808255809150506001900390600052602060002090600202016000909190919091506000820151816000019081615d3d9190619c7b565b5060208201518160010160006101000a81548160ff0219169083151502179055505050508080615d6c9061a992565b915050615cae565b5060216000878152602001908152602001600020600301819080600181540180825580915050600190039060005260206000209060040201600090919091909150600082015481600001556001820154816001015560028201816002019081615ddd9190619dab565b506003820181600301908054615df4929190617805565b50505060176000815480929190615e0a90619d4d565b9190505550602b819080600181540180825580915050600190039060005260206000209060040201600090919091909150600082015481600001556001820154816001015560028201816002019081615e639190619dab565b506003820181600301908054615e7a929190617805565b5050507fa5bdacf4d1324fdd584bc65cf0315e4975d00b33a7ca0e6d0a73c88df8430b95868387604051615eb09392919061827b565b60405180910390a160005b84518160ff161015615f42577f06ef0ba2ad58c9f8eef2fc98c08fd18d801c4a971eeb45afd07f0fee3f9d60c4838260ff16601854615efa919061a3ae565b878460ff1681518110615f1057615f0f619707565b5b6020026020010151604051615f279392919061827b565b60405180910390a18080615f3a9061a992565b915050615ebb565b50835160186000828254615f56919061a3ae565b92505081905550505050505050565b615f6e8261188c565b615f7781616954565b615f818383616a5a565b50505050565b674563918244f4000081565b6000600160008473ffffffffffffffffffffffffffffffffffffffff1673ffffffffffffffffffffffffffffffffffffffff16815260200190815260200160002060008373ffffffffffffffffffffffffffffffffffffffff1673ffffffffffffffffffffffffffffffffffffffff16815260200190815260200160002054905092915050565b6029818154811061602a57600080fd5b90600052602060002090600302016000915090508060000160009054906101000a900460ff169080600101805461606090619765565b80601f016020809104026020016040519081016040528092919081815260200182805461608c90619765565b80156160d95780601f106160ae576101008083540402835291602001916160d9565b820191906000526020600020905b8154815290600101906020018083116160bc57829003601f168201915b5050505050908060020180546160ee90619765565b80601f016020809104026020016040519081016040528092919081815260200182805461611a90619765565b80156161675780601f1061613c57610100808354040283529160200191616167565b820191906000526020600020905b81548152906001019060200180831161614a57829003601f168201915b5050505050905083565b6000600b60000154905090565b60165481565b60175481565b60006161946165b8565b6019600083815260200190815260200160002060030160009054906101000a900460ff166161f7576040517f08c379a00000000000000000000000000000000000000000000000000000000081526004016161ee9061aa07565b60405180910390fd5b6025600083815260200190815260200160002060003373ffffffffffffffffffffffffffffffffffffffff1673ffffffffffffffffffffffffffffffffffffffff16815260200190815260200160002060009054906101000a900460ff1615616295576040517f08c379a000000000000000000000000000000000000000000000000000000000815260040161628c9061aa73565b60405180910390fd5b6019600083815260200190815260200160002060050160149054906101000a900460ff166162f8576040517f08c379a00000000000000000000000000000000000000000000000000000000081526004016162ef9061a89a565b60405180910390fd5b600060196000848152602001908152602001600020905060006026848154811061632557616324619707565b5b9060005260206000209060070201905081600601339080600181540180825580915050600190039060005260206000200160009091909190916101000a81548173ffffffffffffffffffffffffffffffffffffffff021916908373ffffffffffffffffffffffffffffffffffffffff16021790555080600601339080600181540180825580915050600190039060005260206000200160009091909190916101000a81548173ffffffffffffffffffffffffffffffffffffffff021916908373ffffffffffffffffffffffffffffffffffffffff16021790555060016025600086815260200190815260200160002060003373ffffffffffffffffffffffffffffffffffffffff1673ffffffffffffffffffffffffffffffffffffffff16815260200190815260200160002060006101000a81548160ff02191690831515021790555061647a33671bc16d674ec80000616d72565b503373ffffffffffffffffffffffffffffffffffffffff16847f4bf249f6b0ca5630ea4816c04b928b864a2065cb51658fd6223d83b727fd326b60405160405180910390a36001925050506164cd6167c2565b919050565b60006164fe7fc10c77be35aff266144ed64c26a1fa104bae2f284ae99ac4a34203454704a18583613979565b9050919050565b601c6020528160005260406000206020528060005260406000206000915091509054906101000a900460ff1681565b60007f01ffc9a7000000000000000000000000000000000000000000000000000000007bffffffffffffffffffffffffffffffffffffffffffffffffffffffff1916827bffffffffffffffffffffffffffffffffffffffffffffffffffffffff1916149050919050565b600033905090565b6165b38383836001616e5f565b505050565b6002600a54036165f4576040517f3ee5aeb500000000000000000000000000000000000000000000000000000000815260040160405180910390fd5b6002600a81905550565b60005b8280549050811015616796578173ffffffffffffffffffffffffffffffffffffffff1683828154811061663757616636619707565b5b9060005260206000200160009054906101000a900473ffffffffffffffffffffffffffffffffffffffff1673ffffffffffffffffffffffffffffffffffffffff1603616789576001838054905061668e919061a3e2565b811461673e5782600184805490506166a6919061a3e2565b815481106166b7576166b6619707565b5b9060005260206000200160009054906101000a900473ffffffffffffffffffffffffffffffffffffffff168382815481106166f5576166f4619707565b5b9060005260206000200160006101000a81548173ffffffffffffffffffffffffffffffffffffffff021916908373ffffffffffffffffffffffffffffffffffffffff1602179055505b8280548061674f5761674e61a81f565b5b6001900381819060005260206000200160006101000a81549073ffffffffffffffffffffffffffffffffffffffff02191690559055616796565b8080600101915050616601565b505050565b6167a58282617036565b80601160008282546167b7919061a3e2565b925050819055505050565b6001600a81905550565b60006167d88484615f93565b90507fffffffffffffffffffffffffffffffffffffffffffffffffffffffffffffffff811461685a578181101561684a578281836040517ffb8f41b20000000000000000000000000000000000000000000000000000000081526004016168419392919061aa93565b60405180910390fd5b61685984848484036000616e5f565b5b50505050565b600073ffffffffffffffffffffffffffffffffffffffff168373ffffffffffffffffffffffffffffffffffffffff16036168d25760006040517f96c6fd1e0000000000000000000000000000000000000000000000000000000081526004016168c99190617fd1565b60405180910390fd5b600073ffffffffffffffffffffffffffffffffffffffff168273ffffffffffffffffffffffffffffffffffffffff16036169445760006040517fec442f0500000000000000000000000000000000000000000000000000000000815260040161693b9190617fd1565b60405180910390fd5b61694f8383836170dd565b505050565b6169658161696061659e565b617302565b50565b60006169748383613979565b616a4f5760016005600085815260200190815260200160002060000160008473ffffffffffffffffffffffffffffffffffffffff1673ffffffffffffffffffffffffffffffffffffffff16815260200190815260200160002060006101000a81548160ff0219169083151502179055506169ec61659e565b73ffffffffffffffffffffffffffffffffffffffff168273ffffffffffffffffffffffffffffffffffffffff16847f2f8788117e7eff1d82e926ec794901d17c78024a50270940304540a733656f0d60405160405180910390a460019050616a54565b600090505b92915050565b6000616a668383613979565b15616b425760006005600085815260200190815260200160002060000160008473ffffffffffffffffffffffffffffffffffffffff1673ffffffffffffffffffffffffffffffffffffffff16815260200190815260200160002060006101000a81548160ff021916908315150217905550616adf61659e565b73ffffffffffffffffffffffffffffffffffffffff168273ffffffffffffffffffffffffffffffffffffffff16847ff6391f5c32d9c69d2a47ea670b442974b53935d1edc7fd64eb21e047a839171b60405160405180910390a460019050616b47565b600090505b92915050565b600080600090505b6023600085815260200190815260200160002080549050811015616c0c578273ffffffffffffffffffffffffffffffffffffffff16602360008681526020019081526020016000208281548110616baf57616bae619707565b5b9060005260206000200160009054906101000a900473ffffffffffffffffffffffffffffffffffffffff1673ffffffffffffffffffffffffffffffffffffffff1603616bff576001915050616c12565b8080600101915050616b55565b50600090505b92915050565b600a8a11158015616c2a5750600a8911155b8015616c375750600a8811155b8015616c445750600a8711155b8015616c515750600a8611155b8015616c5e5750600a8511155b8015616c6b5750600a8411155b8015616c785750600a8311155b8015616c855750600a8211155b8015616c925750600a8111155b616cd1576040517f08c379a0000000000000000000000000000000000000000000000000000000008152600401616cc89061ab16565b60405180910390fd5b50505050505050505050565b60008160090154826008015483600701548460060154856005015486600401548760030154886002015489600101548a60000154616d1b919061a3ae565b616d25919061a3ae565b616d2f919061a3ae565b616d39919061a3ae565b616d43919061a3ae565b616d4d919061a3ae565b616d57919061a3ae565b616d61919061a3ae565b616d6b919061a3ae565b9050919050565b60006064600f6b204fce5e3e25026110000000616d8f9190619831565b616d9991906198a2565b616da1615477565b83616dac919061a3ae565b1115616ded576040517f08c379a0000000000000000000000000000000000000000000000000000000008152600401616de49061ab82565b60405180910390fd5b616df78383617353565b508160116000828254616e0a919061a3ae565b92505081905550818373ffffffffffffffffffffffffffffffffffffffff167fad6ef58d5c294f81258965738e7ae511124139834a8d0b8f8f7327086c82052a60405160405180910390a36001905092915050565b600073ffffffffffffffffffffffffffffffffffffffff168473ffffffffffffffffffffffffffffffffffffffff1603616ed15760006040517fe602df05000000000000000000000000000000000000000000000000000000008152600401616ec89190617fd1565b60405180910390fd5b600073ffffffffffffffffffffffffffffffffffffffff168373ffffffffffffffffffffffffffffffffffffffff1603616f435760006040517f94280d62000000000000000000000000000000000000000000000000000000008152600401616f3a9190617fd1565b60405180910390fd5b81600160008673ffffffffffffffffffffffffffffffffffffffff1673ffffffffffffffffffffffffffffffffffffffff16815260200190815260200160002060008573ffffffffffffffffffffffffffffffffffffffff1673ffffffffffffffffffffffffffffffffffffffff168152602001908152602001600020819055508015617030578273ffffffffffffffffffffffffffffffffffffffff168473ffffffffffffffffffffffffffffffffffffffff167f8c5be1e5ebec7d5bd14f71427d1e84f3dd0314c0f7b2291e5b200ac8c7c3b925846040516170279190617e76565b60405180910390a35b50505050565b8061704083612da7565b1015617081576040517f08c379a00000000000000000000000000000000000000000000000000000000081526004016170789061abee565b60405180910390fd5b61708b828261740e565b8173ffffffffffffffffffffffffffffffffffffffff167f5b5d8478b570a79ab6b3bf13ff029fba19c02ab0d54d692d4ef0d9052d5cc850826040516170d19190617e76565b60405180910390a25050565b600073ffffffffffffffffffffffffffffffffffffffff168373ffffffffffffffffffffffffffffffffffffffff160361712f578060026000828254617123919061a3ae565b92505081905550617202565b60008060008573ffffffffffffffffffffffffffffffffffffffff1673ffffffffffffffffffffffffffffffffffffffff168152602001908152602001600020549050818110156171bb578381836040517fe450d38c0000000000000000000000000000000000000000000000000000000081526004016171b29392919061aa93565b60405180910390fd5b8181036000808673ffffffffffffffffffffffffffffffffffffffff1673ffffffffffffffffffffffffffffffffffffffff16815260200190815260200160002081905550505b600073ffffffffffffffffffffffffffffffffffffffff168273ffffffffffffffffffffffffffffffffffffffff160361724b5780600260008282540392505081905550617298565b806000808473ffffffffffffffffffffffffffffffffffffffff1673ffffffffffffffffffffffffffffffffffffffff168152602001908152602001600020600082825401925050819055505b8173ffffffffffffffffffffffffffffffffffffffff168373ffffffffffffffffffffffffffffffffffffffff167fddf252ad1be2c89b69c2b068fc378daa952ba7f163c4a11628f55a4df523b3ef836040516172f59190617e76565b60405180910390a3505050565b61730c8282613979565b61734f5780826040517fe2517d3f00000000000000000000000000000000000000000000000000000000815260040161734692919061ac0e565b60405180910390fd5b5050565b60006b204fce5e3e2502611000000061736a611644565b83617375919061a3ae565b11156173b6576040517f08c379a00000000000000000000000000000000000000000000000000000000081526004016173ad9061ab82565b60405180910390fd5b6173c08383617490565b818373ffffffffffffffffffffffffffffffffffffffff167fcda531bfd68624f13205c0a23cd4d5a7f09792cbb399603114f2b04aaa1bf5cf60405160405180910390a36001905092915050565b600073ffffffffffffffffffffffffffffffffffffffff168273ffffffffffffffffffffffffffffffffffffffff16036174805760006040517f96c6fd1e0000000000000000000000000000000000000000000000000000000081526004016174779190617fd1565b60405180910390fd5b61748c826000836170dd565b5050565b600073ffffffffffffffffffffffffffffffffffffffff168273ffffffffffffffffffffffffffffffffffffffff16036175025760006040517fec442f050000000000000000000000000000000000000000000000000000000081526004016174f99190617fd1565b60405180910390fd5b61750e600083836170dd565b5050565b60405180610100016040528060008152602001606081526020016060815260200160001515815260200160008152602001600073ffffffffffffffffffffffffffffffffffffffff168152602001600015158152602001606081525090565b8280548282559060005260206000209060040281019282156175f85760005260206000209160040282015b828111156175f75782826000820154816000015560018201548160010155600282018160020190816175ce9190619dab565b5060038201816003019080546175e5929190617805565b5050509160040191906004019061759c565b5b509050617605919061789f565b5090565b6040518060a00160405280600081526020016000815260200160608152602001606081526020016000151581525090565b82600a60030281019282156176d3579160030282015b828111156176d25782826000820160009054906101000a900460ff168160000160006101000a81548160ff0219169083600281111561769257617691618d9f565b5b0217905550600182018160010190816176ab9190619dab565b50600282018160020190816176c09190619dab565b50505091600301919060030190617650565b5b5090506176e091906178e6565b5090565b50805460008255906000526020600020908101906177029190617931565b50565b6040518060a00160405280600081526020016000815260200160608152602001600081526020016000151581525090565b8280548282559060005260206000209081019282156177af579160200282015b828111156177ae5782518260006101000a81548173ffffffffffffffffffffffffffffffffffffffff021916908373ffffffffffffffffffffffffffffffffffffffff16021790555091602001919060010190617756565b5b5090506177bc9190617931565b5090565b6040518060e00160405280600081526020016000815260200160608152602001606081526020016177ef61794e565b8152602001600081526020016000151581525090565b82805482825590600052602060002090600202810192821561788e5760005260206000209160020282015b8281111561788d5782826000820181600001908161784e9190619dab565b506001820160009054906101000a900460ff168160010160006101000a81548160ff021916908315150217905550505091600201919060020190617830565b5b50905061789b919061797c565b5090565b5b808211156178e25760008082016000905560018201600090556002820160006178c991906179b7565b6003820160006178d991906179f7565b506004016178a0565b5090565b5b8082111561792d57600080820160006101000a81549060ff021916905560018201600061791491906179b7565b60028201600061792491906179b7565b506003016178e7565b5090565b5b8082111561794a576000816000905550600101617932565b5090565b604051806101400160405280600a905b617966617a1b565b81526020019060019003908161795e5790505090565b5b808211156179b3576000808201600061799691906179b7565b6001820160006101000a81549060ff02191690555060020161797d565b5090565b5080546179c390619765565b6000825580601f106179d557506179f4565b601f0160209004906000526020600020908101906179f39190617931565b5b50565b5080546000825560020290600052602060002090810190617a18919061797c565b50565b604051806060016040528060006002811115617a3a57617a39618d9f565b5b815260200160608152602001606081525090565b6000604051905090565b600080fd5b600080fd5b60007fffffffff0000000000000000000000000000000000000000000000000000000082169050919050565b617a9781617a62565b8114617aa257600080fd5b50565b600081359050617ab481617a8e565b92915050565b600060208284031215617ad057617acf617a58565b5b6000617ade84828501617aa5565b91505092915050565b60008115159050919050565b617afc81617ae7565b82525050565b6000602082019050617b176000830184617af3565b92915050565b600081519050919050565b600082825260208201905092915050565b6000819050602082019050919050565b6000819050919050565b617b5c81617b49565b82525050565b600081519050919050565b600082825260208201905092915050565b60005b83811015617b9c578082015181840152602081019050617b81565b60008484015250505050565b6000601f19601f8301169050919050565b6000617bc482617b62565b617bce8185617b6d565b9350617bde818560208601617b7e565b617be781617ba8565b840191505092915050565b617bfb81617ae7565b82525050565b600073ffffffffffffffffffffffffffffffffffffffff82169050919050565b6000617c2c82617c01565b9050919050565b617c3c81617c21565b82525050565b600081519050919050565b600082825260208201905092915050565b6000819050602082019050919050565b6000617c7a8383617c33565b60208301905092915050565b6000602082019050919050565b6000617c9e82617c42565b617ca88185617c4d565b9350617cb383617c5e565b8060005b83811015617ce4578151617ccb8882617c6e565b9750617cd683617c86565b925050600181019050617cb7565b5085935050505092915050565b600061010083016000830151617d0a6000860182617b53565b5060208301518482036020860152617d228282617bb9565b91505060408301518482036040860152617d3c8282617bb9565b9150506060830151617d516060860182617bf2565b506080830151617d646080860182617b53565b5060a0830151617d7760a0860182617c33565b5060c0830151617d8a60c0860182617bf2565b5060e083015184820360e0860152617da28282617c93565b9150508091505092915050565b6000617dbb8383617cf1565b905092915050565b6000602082019050919050565b6000617ddb82617b1d565b617de58185617b28565b935083602082028501617df785617b39565b8060005b85811015617e335784840389528151617e148582617daf565b9450617e1f83617dc3565b925060208a01995050600181019050617dfb565b50829750879550505050505092915050565b60006020820190508181036000830152617e5f8184617dd0565b905092915050565b617e7081617b49565b82525050565b6000602082019050617e8b6000830184617e67565b92915050565b600082825260208201905092915050565b6000617ead82617b62565b617eb78185617e91565b9350617ec7818560208601617b7e565b617ed081617ba8565b840191505092915050565b60006020820190508181036000830152617ef58184617ea2565b905092915050565b617f0681617c21565b8114617f1157600080fd5b50565b600081359050617f2381617efd565b92915050565b617f3281617b49565b8114617f3d57600080fd5b50565b600081359050617f4f81617f29565b92915050565b60008060408385031215617f6c57617f6b617a58565b5b6000617f7a85828601617f14565b9250506020617f8b85828601617f40565b9150509250929050565b600060208284031215617fab57617faa617a58565b5b6000617fb984828501617f40565b91505092915050565b617fcb81617c21565b82525050565b6000602082019050617fe66000830184617fc2565b92915050565b60008060006060848603121561800557618004617a58565b5b600061801386828701617f14565b935050602061802486828701617f14565b925050604061803586828701617f40565b9150509250925092565b6000819050919050565b6180528161803f565b811461805d57600080fd5b50565b60008135905061806f81618049565b92915050565b60006020828403121561808b5761808a617a58565b5b600061809984828501618060565b91505092915050565b6180ab8161803f565b82525050565b60006020820190506180c660008301846180a2565b92915050565b60006080820190506180e16000830187617e67565b6180ee6020830186617e67565b81810360408301526181008185617ea2565b905061810f6060830184617af3565b95945050505050565b600060e08201905061812d600083018a617e67565b818103602083015261813f8189617ea2565b905081810360408301526181538188617ea2565b90506181626060830187617af3565b61816f6080830186617e67565b61817c60a0830185617fc2565b61818960c0830184617af3565b98975050505050505050565b600060c0820190506181aa6000830189617e67565b6181b76020830188617e67565b81810360408301526181c98187617ea2565b905081810360608301526181dd8186617ea2565b90506181ec6080830185617e67565b6181f960a0830184617af3565b979650505050505050565b6000806040838503121561821b5761821a617a58565b5b600061822985828601618060565b925050602061823a85828601617f14565b9150509250929050565b600060ff82169050919050565b61825a81618244565b82525050565b60006020820190506182756000830184618251565b92915050565b60006060820190506182906000830186617e67565b61829d6020830185617e67565b81810360408301526182af8184617ea2565b9050949350505050565b6000602082840312156182cf576182ce617a58565b5b60006182dd84828501617f14565b91505092915050565b600081519050919050565b600082825260208201905092915050565b600061830d826182e6565b61831781856182f1565b9350618327818560208601617b7e565b61833081617ba8565b840191505092915050565b600060c0820190506183506000830189617e67565b61835d6020830188617fc2565b61836a6040830187617fc2565b818103606083015261837c8186618302565b905061838b6080830185617e67565b61839860a0830184617af3565b979650505050505050565b600081519050919050565b600082825260208201905092915050565b6000819050602082019050919050565b600081519050919050565b600082825260208201905092915050565b6000819050602082019050919050565b600060408301600083015184820360008601526184188282617bb9565b915050602083015161842d6020860182617bf2565b508091505092915050565b600061844483836183fb565b905092915050565b6000602082019050919050565b6000618464826183cf565b61846e81856183da565b935083602082028501618480856183eb565b8060005b858110156184bc578484038952815161849d8582618438565b94506184a88361844c565b925060208a01995050600181019050618484565b50829750879550505050505092915050565b60006080830160008301516184e66000860182617b53565b5060208301516184f96020860182617b53565b50604083015184820360408601526185118282617bb9565b9150506060830151848203606086015261852b8282618459565b9150508091505092915050565b600061854483836184ce565b905092915050565b6000602082019050919050565b6000618564826183a3565b61856e81856183ae565b935083602082028501618580856183bf565b8060005b858110156185bc578484038952815161859d8582618538565b94506185a88361854c565b925060208a01995050600181019050618584565b50829750879550505050505092915050565b600060208201905081810360008301526185e88184618559565b905092915050565b6000806040838503121561860757618606617a58565b5b600061861585828601617f40565b925050602061862685828601617f40565b9150509250929050565b600060a0820190506186456000830188617e67565b6186526020830187617e67565b81810360408301526186648186617ea2565b90506186736060830185617e67565b6186806080830184617af3565b9695505050505050565b60008060008060008060008060008060006101608c8e0312156186b0576186af617a58565b5b60006186be8e828f01617f40565b9b505060206186cf8e828f01617f40565b9a505060406186e08e828f01617f40565b99505060606186f18e828f01617f40565b98505060806187028e828f01617f40565b97505060a06187138e828f01617f40565b96505060c06187248e828f01617f40565b95505060e06187358e828f01617f40565b9450506101006187478e828f01617f40565b9350506101206187598e828f01617f40565b92505061014061876b8e828f01617f40565b9150509295989b509295989b9093969950565b600080fd5b600080fd5b7f4e487b7100000000000000000000000000000000000000000000000000000000600052604160045260246000fd5b6187c082617ba8565b810181811067ffffffffffffffff821117156187df576187de618788565b5b80604052505050565b60006187f2617a4e565b90506187fe82826187b7565b919050565b600067ffffffffffffffff82111561881e5761881d618788565b5b61882782617ba8565b9050602081019050919050565b82818337600083830152505050565b600061885661885184618803565b6187e8565b90508281526020810184848401111561887257618871618783565b5b61887d848285618834565b509392505050565b600082601f83011261889a5761889961877e565b5b81356188aa848260208601618843565b91505092915050565b600080604083850312156188ca576188c9617a58565b5b60006188d885828601617f40565b925050602083013567ffffffffffffffff8111156188f9576188f8617a5d565b5b61890585828601618885565b9150509250929050565b600081519050919050565b600082825260208201905092915050565b6000819050602082019050919050565b600082825260208201905092915050565b6000618957826183a3565b618961818561893b565b935083602082028501618973856183bf565b8060005b858110156189af57848403895281516189908582618538565b945061899b8361854c565b925060208a01995050600181019050618977565b50829750879550505050505092915050565b600060a0830160008301516189d96000860182617b53565b5060208301516189ec6020860182617b53565b5060408301518482036040860152618a048282617bb9565b91505060608301518482036060860152618a1e828261894c565b9150506080830151618a336080860182617bf2565b508091505092915050565b6000618a4a83836189c1565b905092915050565b6000602082019050919050565b6000618a6a8261890f565b618a74818561891a565b935083602082028501618a868561892b565b8060005b85811015618ac25784840389528151618aa38582618a3e565b9450618aae83618a52565b925060208a01995050600181019050618a8a565b50829750879550505050505092915050565b60006020820190508181036000830152618aee8184618a5f565b905092915050565b600080600060608486031215618b0f57618b0e617a58565b5b6000618b1d86828701617f40565b935050602084013567ffffffffffffffff811115618b3e57618b3d617a5d565b5b618b4a86828701618885565b925050604084013567ffffffffffffffff811115618b6b57618b6a617a5d565b5b618b7786828701618885565b9150509250925092565b600081519050919050565b600082825260208201905092915050565b6000819050602082019050919050565b600060a083016000830151618bc56000860182617b53565b506020830151618bd86020860182617b53565b5060408301518482036040860152618bf08282617bb9565b9150506060830151618c056060860182617b53565b506080830151618c186080860182617bf2565b508091505092915050565b6000618c2f8383618bad565b905092915050565b6000602082019050919050565b6000618c4f82618b81565b618c598185618b8c565b935083602082028501618c6b85618b9d565b8060005b85811015618ca75784840389528151618c888582618c23565b9450618c9383618c37565b925060208a01995050600181019050618c6f565b50829750879550505050505092915050565b60006020820190508181036000830152618cd38184618c44565b905092915050565b60008060408385031215618cf257618cf1617a58565b5b600083013567ffffffffffffffff811115618d1057618d0f617a5d565b5b618d1c85828601618885565b925050602083013567ffffffffffffffff811115618d3d57618d3c617a5d565b5b618d4985828601618885565b9150509250929050565b600081519050919050565b600082825260208201905092915050565b6000819050602082019050919050565b6000600a9050919050565b600081905092915050565b6000819050919050565b7f4e487b7100000000000000000000000000000000000000000000000000000000600052602160045260246000fd5b60038110618ddf57618dde618d9f565b5b50565b6000819050618df082618dce565b919050565b6000618e0082618de2565b9050919050565b618e1081618df5565b82525050565b6000606083016000830151618e2e6000860182618e07565b5060208301518482036020860152618e468282617bb9565b91505060408301518482036040860152618e608282617bb9565b9150508091505092915050565b6000618e798383618e16565b905092915050565b6000602082019050919050565b6000618e9982618d7f565b618ea38185618d8a565b935083602082028501618eb585618d95565b8060005b85811015618ef15784840389528151618ed28582618e6d565b9450618edd83618e81565b925060208a01995050600181019050618eb9565b50829750879550505050505092915050565b600060e083016000830151618f1b6000860182617b53565b506020830151618f2e6020860182617b53565b5060408301518482036040860152618f468282617bb9565b91505060608301518482036060860152618f608282617bb9565b91505060808301518482036080860152618f7a8282618e8e565b91505060a0830151618f8f60a0860182617b53565b5060c0830151618fa260c0860182617bf2565b508091505092915050565b6000618fb98383618f03565b905092915050565b6000602082019050919050565b6000618fd982618d53565b618fe38185618d5e565b935083602082028501618ff585618d6f565b8060005b8581101561903157848403895281516190128582618fad565b945061901d83618fc1565b925060208a01995050600181019050618ff9565b50829750879550505050505092915050565b6000602082019050818103600083015261905d8184618fce565b905092915050565b600060a08301600083015161907d6000860182617b53565b5060208301516190906020860182617b53565b50604083015184820360408601526190a88282617bb9565b915050606083015184820360608601526190c2828261894c565b91505060808301516190d76080860182617bf2565b508091505092915050565b600060208201905081810360008301526190fc8184619065565b905092915050565b6003811061911157600080fd5b50565b60008135905061912381619104565b92915050565b600080fd5b600080fd5b60008083601f8401126191495761914861877e565b5b8235905067ffffffffffffffff81111561916657619165619129565b5b6020830191508360208202830111156191825761918161912e565b5b9250929050565b600080600080606085870312156191a3576191a2617a58565b5b60006191b187828801617f40565b94505060206191c287828801619114565b935050604085013567ffffffffffffffff8111156191e3576191e2617a5d565b5b6191ef87828801619133565b925092505092959194509250565b6000806040838503121561921457619213617a58565b5b600061922285828601617f40565b925050602061923385828601617f14565b9150509250929050565b600061016082019050619253600083018e617e67565b619260602083018d617e67565b61926d604083018c617e67565b61927a606083018b617e67565b619287608083018a617e67565b61929460a0830189617e67565b6192a160c0830188617e67565b6192ae60e0830187617e67565b6192bc610100830186617e67565b6192ca610120830185617e67565b6192d8610140830184617af3565b9c9b505050505050505050505050565b600082825260208201905092915050565b600061930482617c42565b61930e81856192e8565b935061931983617c5e565b8060005b8381101561934a5781516193318882617c6e565b975061933c83617c86565b92505060018101905061931d565b5085935050505092915050565b6000602082019050818103600083015261937181846192f9565b905092915050565b600067ffffffffffffffff82111561939457619393618788565b5b602082029050602081019050919050565b60006193b86193b384619379565b6187e8565b905080838252602082019050602084028301858111156193db576193da61912e565b5b835b8181101561942257803567ffffffffffffffff811115619400576193ff61877e565b5b80860161940d8982618885565b855260208501945050506020810190506193dd565b5050509392505050565b600082601f8301126194415761944061877e565b5b81356194518482602086016193a5565b91505092915050565b600067ffffffffffffffff82111561947557619474618788565b5b602082029050602081019050919050565b60006194996194948461945a565b6187e8565b905080838252602082019050602084028301858111156194bc576194bb61912e565b5b835b818110156194e557806194d18882617f40565b8452602084019350506020810190506194be565b5050509392505050565b600082601f8301126195045761950361877e565b5b8135619514848260208601619486565b91505092915050565b60008060006060848603121561953657619535617a58565b5b600061954486828701617f40565b935050602084013567ffffffffffffffff81111561956557619564617a5d565b5b6195718682870161942c565b925050604084013567ffffffffffffffff81111561959257619591617a5d565b5b61959e868287016194ef565b9150509250925092565b6195b181618244565b81146195bc57600080fd5b50565b6000813590506195ce816195a8565b92915050565b600080600080608085870312156195ee576195ed617a58565b5b60006195fc87828801617f40565b945050602085013567ffffffffffffffff81111561961d5761961c617a5d565b5b61962987828801618885565b935050604085013567ffffffffffffffff81111561964a57619649617a5d565b5b6196568782880161942c565b9250506060619667878288016195bf565b91505092959194509250565b6000806040838503121561968a57619689617a58565b5b600061969885828601617f14565b92505060206196a985828601617f14565b9150509250929050565b6196bc81618df5565b82525050565b60006060820190506196d760008301866196b3565b81810360208301526196e98185617ea2565b905081810360408301526196fd8184617ea2565b9050949350505050565b7f4e487b7100000000000000000000000000000000000000000000000000000000600052603260045260246000fd5b7f4e487b7100000000000000000000000000000000000000000000000000000000600052602260045260246000fd5b6000600282049050600182168061977d57607f821691505b6020821081036197905761978f619736565b5b50919050565b7f4e6f7420656e726f6c6c65642100000000000000000000000000000000000000600082015250565b60006197cc600d83617e91565b91506197d782619796565b602082019050919050565b600060208201905081810360008301526197fb816197bf565b9050919050565b7f4e487b7100000000000000000000000000000000000000000000000000000000600052601160045260246000fd5b600061983c82617b49565b915061984783617b49565b925082820261985581617b49565b9150828204841483151761986c5761986b619802565b5b5092915050565b7f4e487b7100000000000000000000000000000000000000000000000000000000600052601260045260246000fd5b60006198ad82617b49565b91506198b883617b49565b9250826198c8576198c7619873565b5b828204905092915050565b7f5175697a20646f6573206e6f7420657869737400000000000000000000000000600082015250565b6000619909601383617e91565b9150619914826198d3565b602082019050919050565b60006020820190508181036000830152619938816198fc565b9050919050565b7f4e6f742073656c6563746564206173206120726576696577657220666f72207460008201527f68697320636f7572736500000000000000000000000000000000000000000000602082015250565b600061999b602a83617e91565b91506199a68261993f565b604082019050919050565b600060208201905081810360008301526199ca8161998e565b9050919050565b7f52657669657720616c7265616479207375626d6974746564206279207468697360008201527f2072657669657765722e00000000000000000000000000000000000000000000602082015250565b6000619a2d602a83617e91565b9150619a38826199d1565b604082019050919050565b60006020820190508181036000830152619a5c81619a20565b9050919050565b7f4c6573736f6e20446f6573206e6f742065786973742100000000000000000000600082015250565b6000619a99601683617e91565b9150619aa482619a63565b602082019050919050565b60006020820190508181036000830152619ac881619a8c565b9050919050565b60008190508160005260206000209050919050565b60006020601f8301049050919050565b600082821b905092915050565b600060088302619b317fffffffffffffffffffffffffffffffffffffffffffffffffffffffffffffffff82619af4565b619b3b8683619af4565b95508019841693508086168417925050509392505050565b6000819050919050565b6000619b78619b73619b6e84617b49565b619b53565b617b49565b9050919050565b6000819050919050565b619b9283619b5d565b619ba6619b9e82619b7f565b848454619b01565b825550505050565b600090565b619bbb619bae565b619bc6818484619b89565b505050565b5b81811015619bea57619bdf600082619bb3565b600181019050619bcc565b5050565b601f821115619c2f57619c0081619acf565b619c0984619ae4565b81016020851015619c18578190505b619c2c619c2485619ae4565b830182619bcb565b50505b505050565b600082821c905092915050565b6000619c5260001984600802619c34565b1980831691505092915050565b6000619c6b8383619c41565b9150826002028217905092915050565b619c8482617b62565b67ffffffffffffffff811115619c9d57619c9c618788565b5b619ca78254619765565b619cb2828285619bee565b600060209050601f831160018114619ce55760008415619cd3578287015190505b619cdd8582619c5f565b865550619d45565b601f198416619cf386619acf565b60005b82811015619d1b57848901518255600182019150602085019450602081019050619cf6565b86831015619d385784890151619d34601f891682619c41565b8355505b6001600288020188555050505b505050505050565b6000619d5882617b49565b91507fffffffffffffffffffffffffffffffffffffffffffffffffffffffffffffffff8203619d8a57619d89619802565b5b600182019050919050565b600081549050619da481619765565b9050919050565b818103619db9575050619e91565b619dc282619d95565b67ffffffffffffffff811115619ddb57619dda618788565b5b619de58254619765565b619df0828285619bee565b6000601f831160018114619e1f5760008415619e0d578287015490505b619e178582619c5f565b865550619e8a565b601f198416619e2d87619acf565b9650619e3886619acf565b60005b82811015619e6057848901548255600182019150600185019450602081019050619e3b565b86831015619e7d5784890154619e79601f891682619c41565b8355505b6001600288020188555050505b5050505050505b565b600081905092915050565b6000619ea982617b62565b619eb38185619e93565b9350619ec3818560208601617b7e565b80840191505092915050565b6000619edb8284619e9e565b915081905092915050565b7f416c726561647920696e20726576696577657220706f6f6c0000000000000000600082015250565b6000619f1c601883617e91565b9150619f2782619ee6565b602082019050919050565b60006020820190508181036000830152619f4b81619f0f565b9050919050565b7f436f7572736520616c726561647920617070726f766564000000000000000000600082015250565b6000619f88601783617e91565b9150619f9382619f52565b602082019050919050565b60006020820190508181036000830152619fb781619f7b565b9050919050565b7f596f75206861766520616c726561647920617070726f7665642074686973206360008201527f6f75727365000000000000000000000000000000000000000000000000000000602082015250565b600061a01a602583617e91565b915061a02582619fbe565b604082019050919050565b6000602082019050818103600083015261a0498161a00d565b9050919050565b7f4368617074657220646f6573206e6f7420657869737421000000000000000000600082015250565b600061a086601783617e91565b915061a0918261a050565b602082019050919050565b6000602082019050818103600083015261a0b58161a079565b9050919050565b7f52657669657765727320616c72656164792073656c6563746564000000000000600082015250565b600061a0f2601a83617e91565b915061a0fd8261a0bc565b602082019050919050565b6000602082019050818103600083015261a1218161a0e5565b9050919050565b7f4e6f7420656e6f7567682072657669657765727320696e2074686520706f6f6c600082015250565b600061a15e602083617e91565b915061a1698261a128565b602082019050919050565b6000602082019050818103600083015261a18d8161a151565b9050919050565b6000819050919050565b61a1af61a1aa82617b49565b61a194565b82525050565b600061a1c1828761a19e565b60208201915061a1d1828661a19e565b60208201915061a1e1828561a19e565b60208201915061a1f1828461a19e565b60208201915081905095945050505050565b600061a20e82617b49565b915061a21983617b49565b92508261a2295761a228619873565b5b828206905092915050565b600081549050919050565b60008190508160005260206000209050919050565b60008160001c9050919050565b600073ffffffffffffffffffffffffffffffffffffffff82169050919050565b600061a29461a28f8361a254565b61a261565b9050919050565b600061a2a7825461a281565b9050919050565b6000600182019050919050565b600061a2c68261a234565b61a2d081856192e8565b935061a2db8361a23f565b8060005b8381101561a3135761a2f08261a29b565b61a2fa8882617c6e565b975061a3058361a2ae565b92505060018101905061a2df565b5085935050505092915050565b6000602082019050818103600083015261a33a818461a2bb565b905092915050565b7f436f7572736520616c7265616479206578697374730000000000000000000000600082015250565b600061a378601583617e91565b915061a3838261a342565b602082019050919050565b6000602082019050818103600083015261a3a78161a36b565b9050919050565b600061a3b982617b49565b915061a3c483617b49565b925082820190508082111561a3dc5761a3db619802565b5b92915050565b600061a3ed82617b49565b915061a3f883617b49565b925082820390508181111561a4105761a40f619802565b5b92915050565b7f4c6573736f6e20646f6573206e6f742065786973742100000000000000000000600082015250565b600061a44c601683617e91565b915061a4578261a416565b602082019050919050565b6000602082019050818103600083015261a47b8161a43f565b9050919050565b7f45786365656473206d6178696d756d207265736f757263657321000000000000600082015250565b600061a4b8601a83617e91565b915061a4c38261a482565b602082019050919050565b6000602082019050818103600083015261a4e78161a4ab565b9050919050565b600080fd5b600080fd5b600080fd5b60008235600160600383360303811261a5195761a51861a4ee565b5b80830191505092915050565b60006020828403121561a53b5761a53a617a58565b5b600061a54984828501619114565b91505092915050565b6000808335600160200384360303811261a56f5761a56e61a4ee565b5b80840192508235915067ffffffffffffffff82111561a5915761a59061a4f3565b5b60208301925060018202360383131561a5ad5761a5ac61a4f8565b5b509250929050565b7f50726f706f73616c20616c726561647920657865637574656400000000000000600082015250565b600061a5eb601983617e91565b915061a5f68261a5b5565b602082019050919050565b6000602082019050818103600083015261a61a8161a5de565b9050919050565b7f416c726561647920617070726f76656400000000000000000000000000000000600082015250565b600061a657601083617e91565b915061a6628261a621565b602082019050919050565b6000602082019050818103600083015261a6868161a64a565b9050919050565b600081905092915050565b60008190508160005260206000209050919050565b6000815461a6ba81619765565b61a6c4818661a68d565b9450600182166000811461a6df576001811461a6f45761a727565b60ff198316865281151582028601935061a727565b61a6fd8561a698565b60005b8381101561a71f5781548189015260018201915060208101905061a700565b838801955050505b50505092915050565b600061a73c828461a6ad565b915081905092915050565b7f50726f706f73616c20657865637574696f6e206661696c656400000000000000600082015250565b600061a77d601983617e91565b915061a7888261a747565b602082019050919050565b6000602082019050818103600083015261a7ac8161a770565b9050919050565b7f4e6f7420696e20726576696577657220706f6f6c000000000000000000000000600082015250565b600061a7e9601483617e91565b915061a7f48261a7b3565b602082019050919050565b6000602082019050818103600083015261a8188161a7dc565b9050919050565b7f4e487b7100000000000000000000000000000000000000000000000000000000600052603160045260246000fd5b7f436f7572736520646f6573206e6f742065786973742100000000000000000000600082015250565b600061a884601683617e91565b915061a88f8261a84e565b602082019050919050565b6000602082019050818103600083015261a8b38161a877565b9050919050565b7f496e76616c6964206e756d626572206f662063686f6963657300000000000000600082015250565b600061a8f0601983617e91565b915061a8fb8261a8ba565b602082019050919050565b6000602082019050818103600083015261a91f8161a8e3565b9050919050565b7f496e76616c696420636f72726563742063686f69636520696e64657800000000600082015250565b600061a95c601c83617e91565b915061a9678261a926565b602082019050919050565b6000602082019050818103600083015261a98b8161a94f565b9050919050565b600061a99d82618244565b915060ff820361a9b05761a9af619802565b5b600182019050919050565b7f436f75727365206e6f742079657420617070726f766564210000000000000000600082015250565b600061a9f1601883617e91565b915061a9fc8261a9bb565b602082019050919050565b6000602082019050818103600083015261aa208161a9e4565b9050919050565b7f416c726561647920656e726f6c6c656400000000000000000000000000000000600082015250565b600061aa5d601083617e91565b915061aa688261aa27565b602082019050919050565b6000602082019050818103600083015261aa8c8161aa50565b9050919050565b600060608201905061aaa86000830186617fc2565b61aab56020830185617e67565b61aac26040830184617e67565b949350505050565b7f53636f726573206d757374206265206265747765656e203120616e642031302e600082015250565b600061ab00602083617e91565b915061ab0b8261aaca565b602082019050919050565b6000602082019050818103600083015261ab2f8161aaf3565b9050919050565b7f4c696d6974204578636565646564210000000000000000000000000000000000600082015250565b600061ab6c600f83617e91565b915061ab778261ab36565b602082019050919050565b6000602082019050818103600083015261ab9b8161ab5f565b9050919050565b7f496e73756666696369656e742062616c616e6365000000000000000000000000600082015250565b600061abd8601483617e91565b915061abe38261aba2565b602082019050919050565b6000602082019050818103600083015261ac078161abcb565b9050919050565b600060408201905061ac236000830185617fc2565b61ac3060208301846180a2565b939250505056fea2646970667358221220705288928dabe2c681fd1f246e09f9f0ce96afd6a10eff5513da4bcacc0876b464736f6c634300081b0033",
  "linkReferences": {},
  "deployedLinkReferences": {}
}