{
  "_format": "hh-sol-artifact-1",
  "contractName": "Ecosystem2",
  "sourceName": "contracts/Ecosystem Contracts/Ecosystem2.sol",
  "abi": [
    {
      "inputs": [
        {
          "internalType": "address[]",
          "name": "_reviewers",
          "type": "address[]"
        }
      ],
      "stateMutability": "nonpayable",
      "type": "constructor"
    },
    {
      "inputs": [],
      "name": "AccessControlBadConfirmation",
      "type": "error"
    },
    {
      "inputs": [
        {
          "internalType": "address",
          "name": "account",
          "type": "address"
        },
        {
          "internalType": "bytes32",
          "name": "neededRole",
          "type": "bytes32"
        }
      ],
      "name": "AccessControlUnauthorizedAccount",
      "type": "error"
    },
    {
      "inputs": [
        {
          "internalType": "address",
          "name": "spender",
          "type": "address"
        },
        {
          "internalType": "uint256",
          "name": "allowance",
          "type": "uint256"
        },
        {
          "internalType": "uint256",
          "name": "needed",
          "type": "uint256"
        }
      ],
      "name": "ERC20InsufficientAllowance",
      "type": "error"
    },
    {
      "inputs": [
        {
          "internalType": "address",
          "name": "sender",
          "type": "address"
        },
        {
          "internalType": "uint256",
          "name": "balance",
          "type": "uint256"
        },
        {
          "internalType": "uint256",
          "name": "needed",
          "type": "uint256"
        }
      ],
      "name": "ERC20InsufficientBalance",
      "type": "error"
    },
    {
      "inputs": [
        {
          "internalType": "address",
          "name": "approver",
          "type": "address"
        }
      ],
      "name": "ERC20InvalidApprover",
      "type": "error"
    },
    {
      "inputs": [
        {
          "internalType": "address",
          "name": "receiver",
          "type": "address"
        }
      ],
      "name": "ERC20InvalidReceiver",
      "type": "error"
    },
    {
      "inputs": [
        {
          "internalType": "address",
          "name": "sender",
          "type": "address"
        }
      ],
      "name": "ERC20InvalidSender",
      "type": "error"
    },
    {
      "inputs": [
        {
          "internalType": "address",
          "name": "spender",
          "type": "address"
        }
      ],
      "name": "ERC20InvalidSpender",
      "type": "error"
    },
    {
      "inputs": [],
      "name": "ReentrancyGuardReentrantCall",
      "type": "error"
    },
    {
      "anonymous": false,
      "inputs": [
        {
          "indexed": true,
          "internalType": "address",
          "name": "owner",
          "type": "address"
        },
        {
          "indexed": true,
          "internalType": "address",
          "name": "spender",
          "type": "address"
        },
        {
          "indexed": false,
          "internalType": "uint256",
          "name": "value",
          "type": "uint256"
        }
      ],
      "name": "Approval",
      "type": "event"
    },
    {
      "anonymous": false,
      "inputs": [
        {
          "indexed": true,
          "internalType": "address",
          "name": "_account",
          "type": "address"
        },
        {
          "indexed": false,
          "internalType": "uint256",
          "name": "_amount",
          "type": "uint256"
        }
      ],
      "name": "BurnSuccess",
      "type": "event"
    },
    {
      "anonymous": false,
      "inputs": [
        {
          "indexed": true,
          "internalType": "uint256",
          "name": "_courseId",
          "type": "uint256"
        },
        {
          "indexed": true,
          "internalType": "uint256",
          "name": "numberOfChapters",
          "type": "uint256"
        }
      ],
      "name": "ChaptersAddedSuccessfully",
      "type": "event"
    },
    {
      "anonymous": false,
      "inputs": [
        {
          "indexed": false,
          "internalType": "uint256",
          "name": "questionId",
          "type": "uint256"
        },
        {
          "indexed": false,
          "internalType": "uint256",
          "name": "choiceId",
          "type": "uint256"
        },
        {
          "indexed": false,
          "internalType": "string",
          "name": "option",
          "type": "string"
        }
      ],
      "name": "ChoiceAdded",
      "type": "event"
    },
    {
      "anonymous": false,
      "inputs": [
        {
          "indexed": true,
          "internalType": "uint256",
          "name": "_courseID",
          "type": "uint256"
        },
        {
          "indexed": true,
          "internalType": "string",
          "name": "_courseName",
          "type": "string"
        },
        {
          "indexed": false,
          "internalType": "bool",
          "name": "_approved",
          "type": "bool"
        }
      ],
      "name": "CourseCreationSuccess",
      "type": "event"
    },
    {
      "anonymous": false,
      "inputs": [
        {
          "indexed": true,
          "internalType": "address",
          "name": "_to",
          "type": "address"
        },
        {
          "indexed": true,
          "internalType": "uint256",
          "name": "_amount",
          "type": "uint256"
        }
      ],
      "name": "EcosystemPoolUpdate",
      "type": "event"
    },
    {
      "anonymous": false,
      "inputs": [
        {
          "indexed": true,
          "internalType": "uint256",
          "name": "_courseId",
          "type": "uint256"
        },
        {
          "indexed": true,
          "internalType": "address",
          "name": "_by",
          "type": "address"
        }
      ],
      "name": "EnrollmentSuccess",
      "type": "event"
    },
    {
      "anonymous": false,
      "inputs": [
        {
          "indexed": true,
          "internalType": "uint256",
          "name": "_lessonId",
          "type": "uint256"
        },
        {
          "indexed": true,
          "internalType": "string",
          "name": "_lessonName",
          "type": "string"
        },
        {
          "indexed": true,
          "internalType": "uint256",
          "name": "_additonalResources",
          "type": "uint256"
        }
      ],
      "name": "LessonCreationSuccess",
      "type": "event"
    },
    {
      "anonymous": false,
      "inputs": [
        {
          "indexed": true,
          "internalType": "address",
          "name": "_to",
          "type": "address"
        },
        {
          "indexed": true,
          "internalType": "uint256",
          "name": "_amount",
          "type": "uint256"
        }
      ],
      "name": "MintSuccess",
      "type": "event"
    },
    {
      "anonymous": false,
      "inputs": [
        {
          "indexed": true,
          "internalType": "uint256",
          "name": "proposalId",
          "type": "uint256"
        },
        {
          "indexed": false,
          "internalType": "address",
          "name": "approver",
          "type": "address"
        }
      ],
      "name": "MultiSigProposalApproved",
      "type": "event"
    },
    {
      "anonymous": false,
      "inputs": [
        {
          "indexed": true,
          "internalType": "uint256",
          "name": "proposalId",
          "type": "uint256"
        },
        {
          "indexed": false,
          "internalType": "address",
          "name": "proposer",
          "type": "address"
        }
      ],
      "name": "MultiSigProposalCreated",
      "type": "event"
    },
    {
      "anonymous": false,
      "inputs": [
        {
          "indexed": true,
          "internalType": "uint256",
          "name": "proposalId",
          "type": "uint256"
        }
      ],
      "name": "MultiSigProposalExecuted",
      "type": "event"
    },
    {
      "anonymous": false,
      "inputs": [
        {
          "indexed": false,
          "internalType": "uint256",
          "name": "quizId",
          "type": "uint256"
        },
        {
          "indexed": false,
          "internalType": "uint256",
          "name": "questionId",
          "type": "uint256"
        },
        {
          "indexed": false,
          "internalType": "string",
          "name": "questionText",
          "type": "string"
        }
      ],
      "name": "QuestionAdded",
      "type": "event"
    },
    {
      "anonymous": false,
      "inputs": [
        {
          "indexed": true,
          "internalType": "uint256",
          "name": "_quizId",
          "type": "uint256"
        },
        {
          "indexed": true,
          "internalType": "string",
          "name": "_title",
          "type": "string"
        }
      ],
      "name": "QuizCreatedSuccess",
      "type": "event"
    },
    {
      "anonymous": false,
      "inputs": [
        {
          "indexed": true,
          "internalType": "uint256",
          "name": "_lessonId",
          "type": "uint256"
        },
        {
          "indexed": true,
          "internalType": "uint256",
          "name": "resourceCount",
          "type": "uint256"
        }
      ],
      "name": "ResourceAddSuccess",
      "type": "event"
    },
    {
      "anonymous": false,
      "inputs": [
        {
          "indexed": true,
          "internalType": "address",
          "name": "reviewer",
          "type": "address"
        }
      ],
      "name": "ReviewerAddedToPool",
      "type": "event"
    },
    {
      "anonymous": false,
      "inputs": [
        {
          "indexed": true,
          "internalType": "address",
          "name": "reviewer",
          "type": "address"
        }
      ],
      "name": "ReviewerRemovedFromPool",
      "type": "event"
    },
    {
      "anonymous": false,
      "inputs": [
        {
          "indexed": true,
          "internalType": "uint256",
          "name": "courseId",
          "type": "uint256"
        },
        {
          "indexed": false,
          "internalType": "address[]",
          "name": "reviewers",
          "type": "address[]"
        }
      ],
      "name": "ReviewersSelected",
      "type": "event"
    },
    {
      "anonymous": false,
      "inputs": [
        {
          "indexed": true,
          "internalType": "bytes32",
          "name": "role",
          "type": "bytes32"
        },
        {
          "indexed": true,
          "internalType": "bytes32",
          "name": "previousAdminRole",
          "type": "bytes32"
        },
        {
          "indexed": true,
          "internalType": "bytes32",
          "name": "newAdminRole",
          "type": "bytes32"
        }
      ],
      "name": "RoleAdminChanged",
      "type": "event"
    },
    {
      "anonymous": false,
      "inputs": [
        {
          "indexed": true,
          "internalType": "bytes32",
          "name": "role",
          "type": "bytes32"
        },
        {
          "indexed": true,
          "internalType": "address",
          "name": "account",
          "type": "address"
        },
        {
          "indexed": true,
          "internalType": "address",
          "name": "sender",
          "type": "address"
        }
      ],
      "name": "RoleGranted",
      "type": "event"
    },
    {
      "anonymous": false,
      "inputs": [
        {
          "indexed": true,
          "internalType": "bytes32",
          "name": "role",
          "type": "bytes32"
        },
        {
          "indexed": true,
          "internalType": "address",
          "name": "account",
          "type": "address"
        },
        {
          "indexed": true,
          "internalType": "address",
          "name": "sender",
          "type": "address"
        }
      ],
      "name": "RoleRevoked",
      "type": "event"
    },
    {
      "anonymous": false,
      "inputs": [
        {
          "indexed": true,
          "internalType": "address",
          "name": "from",
          "type": "address"
        },
        {
          "indexed": true,
          "internalType": "address",
          "name": "to",
          "type": "address"
        },
        {
          "indexed": false,
          "internalType": "uint256",
          "name": "value",
          "type": "uint256"
        }
      ],
      "name": "Transfer",
      "type": "event"
    },
    {
      "anonymous": false,
      "inputs": [
        {
          "indexed": true,
          "internalType": "uint256",
          "name": "_courseId",
          "type": "uint256"
        },
        {
          "indexed": true,
          "internalType": "address",
          "name": "_by",
          "type": "address"
        }
      ],
      "name": "unEnrollmentSuccess",
      "type": "event"
    },
    {
      "inputs": [],
      "name": "COURSE_OWNER_ROLE",
      "outputs": [
        {
          "internalType": "bytes32",
          "name": "",
          "type": "bytes32"
        }
      ],
      "stateMutability": "view",
      "type": "function"
    },
    {
      "inputs": [],
      "name": "CREATE_COURSE_REWARD",
      "outputs": [
        {
          "internalType": "uint256",
          "name": "",
          "type": "uint256"
        }
      ],
      "stateMutability": "view",
      "type": "function"
    },
    {
      "inputs": [],
      "name": "DEFAULT_ADMIN_ROLE",
      "outputs": [
        {
          "internalType": "bytes32",
          "name": "",
          "type": "bytes32"
        }
      ],
      "stateMutability": "view",
      "type": "function"
    },
    {
      "inputs": [],
      "name": "ECOSYSTEM_POOL",
      "outputs": [
        {
          "internalType": "uint256",
          "name": "",
          "type": "uint256"
        }
      ],
      "stateMutability": "view",
      "type": "function"
    },
    {
      "inputs": [],
      "name": "ENROLLMENT_REWARD",
      "outputs": [
        {
          "internalType": "uint256",
          "name": "",
          "type": "uint256"
        }
      ],
      "stateMutability": "view",
      "type": "function"
    },
    {
      "inputs": [],
      "name": "MAX_SCORE",
      "outputs": [
        {
          "internalType": "uint256",
          "name": "",
          "type": "uint256"
        }
      ],
      "stateMutability": "view",
      "type": "function"
    },
    {
      "inputs": [],
      "name": "MAX_SUPPLY",
      "outputs": [
        {
          "internalType": "uint256",
          "name": "",
          "type": "uint256"
        }
      ],
      "stateMutability": "view",
      "type": "function"
    },
    {
      "inputs": [],
      "name": "MIN_APPROVAL_SCORE",
      "outputs": [
        {
          "internalType": "uint256",
          "name": "",
          "type": "uint256"
        }
      ],
      "stateMutability": "view",
      "type": "function"
    },
    {
      "inputs": [],
      "name": "MULTISIG_APPROVER",
      "outputs": [
        {
          "internalType": "bytes32",
          "name": "",
          "type": "bytes32"
        }
      ],
      "stateMutability": "view",
      "type": "function"
    },
    {
      "inputs": [],
      "name": "REQUIRED_APPROVALS",
      "outputs": [
        {
          "internalType": "uint256",
          "name": "",
          "type": "uint256"
        }
      ],
      "stateMutability": "view",
      "type": "function"
    },
    {
      "inputs": [],
      "name": "REVIEWER_ROLE",
      "outputs": [
        {
          "internalType": "bytes32",
          "name": "",
          "type": "bytes32"
        }
      ],
      "stateMutability": "view",
      "type": "function"
    },
    {
      "inputs": [
        {
          "internalType": "address",
          "name": "",
          "type": "address"
        }
      ],
      "name": "accountCourses",
      "outputs": [
        {
          "internalType": "uint256",
          "name": "courseCount",
          "type": "uint256"
        }
      ],
      "stateMutability": "view",
      "type": "function"
    },
    {
      "inputs": [
        {
          "internalType": "uint256",
          "name": "_courseId",
          "type": "uint256"
        },
        {
          "internalType": "string[]",
          "name": "_chapters",
          "type": "string[]"
        }
      ],
      "name": "addChapters",
      "outputs": [
        {
          "internalType": "bool",
          "name": "",
          "type": "bool"
        }
      ],
      "stateMutability": "nonpayable",
      "type": "function"
    },
    {
      "inputs": [
        {
          "internalType": "uint256",
          "name": "_chapterId",
          "type": "uint256"
        },
        {
          "internalType": "string",
          "name": "_lessonName",
          "type": "string"
        },
        {
          "internalType": "string",
          "name": "_lessonContent",
          "type": "string"
        }
      ],
      "name": "addLesson",
      "outputs": [],
      "stateMutability": "nonpayable",
      "type": "function"
    },
    {
      "inputs": [
        {
          "internalType": "uint256",
          "name": "_lessonId",
          "type": "uint256"
        },
        {
          "internalType": "enum Ecosystem.ContentType",
          "name": "contentType",
          "type": "uint8"
        },
        {
          "components": [
            {
              "internalType": "enum Ecosystem.ContentType",
              "name": "contentType",
              "type": "uint8"
            },
            {
              "internalType": "string",
              "name": "url",
              "type": "string"
            },
            {
              "internalType": "string",
              "name": "name",
              "type": "string"
            }
          ],
          "internalType": "struct Ecosystem.Resource[]",
          "name": "_resources",
          "type": "tuple[]"
        }
      ],
      "name": "addResourcesToLesson",
      "outputs": [],
      "stateMutability": "nonpayable",
      "type": "function"
    },
    {
      "inputs": [
        {
          "internalType": "address",
          "name": "newReviewer",
          "type": "address"
        }
      ],
      "name": "addReviewer",
      "outputs": [],
      "stateMutability": "nonpayable",
      "type": "function"
    },
    {
      "inputs": [
        {
          "internalType": "address",
          "name": "owner",
          "type": "address"
        },
        {
          "internalType": "address",
          "name": "spender",
          "type": "address"
        }
      ],
      "name": "allowance",
      "outputs": [
        {
          "internalType": "uint256",
          "name": "",
          "type": "uint256"
        }
      ],
      "stateMutability": "view",
      "type": "function"
    },
    {
      "inputs": [
        {
          "internalType": "address",
          "name": "",
          "type": "address"
        },
        {
          "internalType": "uint256",
          "name": "",
          "type": "uint256"
        }
      ],
      "name": "approvals",
      "outputs": [
        {
          "internalType": "bool",
          "name": "",
          "type": "bool"
        }
      ],
      "stateMutability": "view",
      "type": "function"
    },
    {
      "inputs": [
        {
          "internalType": "address",
          "name": "spender",
          "type": "address"
        },
        {
          "internalType": "uint256",
          "name": "value",
          "type": "uint256"
        }
      ],
      "name": "approve",
      "outputs": [
        {
          "internalType": "bool",
          "name": "",
          "type": "bool"
        }
      ],
      "stateMutability": "nonpayable",
      "type": "function"
    },
    {
      "inputs": [
        {
          "internalType": "uint256",
          "name": "_courseId",
          "type": "uint256"
        }
      ],
      "name": "approveCourse",
      "outputs": [],
      "stateMutability": "nonpayable",
      "type": "function"
    },
    {
      "inputs": [
        {
          "internalType": "uint256",
          "name": "_proposalId",
          "type": "uint256"
        }
      ],
      "name": "approveMultiSigProposal",
      "outputs": [],
      "stateMutability": "nonpayable",
      "type": "function"
    },
    {
      "inputs": [
        {
          "internalType": "address",
          "name": "account",
          "type": "address"
        }
      ],
      "name": "balanceOf",
      "outputs": [
        {
          "internalType": "uint256",
          "name": "",
          "type": "uint256"
        }
      ],
      "stateMutability": "view",
      "type": "function"
    },
    {
      "inputs": [
        {
          "internalType": "uint256",
          "name": "",
          "type": "uint256"
        }
      ],
      "name": "chapter",
      "outputs": [
        {
          "internalType": "uint256",
          "name": "courseId",
          "type": "uint256"
        },
        {
          "internalType": "uint256",
          "name": "chapterId",
          "type": "uint256"
        },
        {
          "internalType": "string",
          "name": "chapterName",
          "type": "string"
        },
        {
          "internalType": "bool",
          "name": "exists",
          "type": "bool"
        }
      ],
      "stateMutability": "view",
      "type": "function"
    },
    {
      "inputs": [
        {
          "internalType": "uint256",
          "name": "",
          "type": "uint256"
        },
        {
          "internalType": "uint256",
          "name": "",
          "type": "uint256"
        }
      ],
      "name": "chapterLessons",
      "outputs": [
        {
          "internalType": "string",
          "name": "",
          "type": "string"
        }
      ],
      "stateMutability": "view",
      "type": "function"
    },
    {
      "inputs": [
        {
          "internalType": "uint256",
          "name": "",
          "type": "uint256"
        },
        {
          "internalType": "uint256",
          "name": "",
          "type": "uint256"
        }
      ],
      "name": "courseChapters",
      "outputs": [
        {
          "internalType": "uint256",
          "name": "courseId",
          "type": "uint256"
        },
        {
          "internalType": "uint256",
          "name": "chapterId",
          "type": "uint256"
        },
        {
          "internalType": "string",
          "name": "chapterName",
          "type": "string"
        },
        {
          "internalType": "bool",
          "name": "exists",
          "type": "bool"
        }
      ],
      "stateMutability": "view",
      "type": "function"
    },
    {
      "inputs": [],
      "name": "courseCount",
      "outputs": [
        {
          "internalType": "uint256",
          "name": "",
          "type": "uint256"
        }
      ],
      "stateMutability": "view",
      "type": "function"
    },
    {
      "inputs": [
        {
          "internalType": "uint256",
          "name": "",
          "type": "uint256"
        }
      ],
      "name": "courseObject",
      "outputs": [
        {
          "internalType": "uint256",
          "name": "courseId",
          "type": "uint256"
        },
        {
          "internalType": "string",
          "name": "courseName",
          "type": "string"
        },
        {
          "internalType": "string",
          "name": "description",
          "type": "string"
        },
        {
          "internalType": "bool",
          "name": "approved",
          "type": "bool"
        },
        {
          "internalType": "uint256",
          "name": "approvalCount",
          "type": "uint256"
        },
        {
          "internalType": "address",
          "name": "creator",
          "type": "address"
        }
      ],
      "stateMutability": "view",
      "type": "function"
    },
    {
      "inputs": [
        {
          "internalType": "uint256",
          "name": "",
          "type": "uint256"
        }
      ],
      "name": "courseReviewInitiated",
      "outputs": [
        {
          "internalType": "bool",
          "name": "",
          "type": "bool"
        }
      ],
      "stateMutability": "view",
      "type": "function"
    },
    {
      "inputs": [
        {
          "internalType": "uint256",
          "name": "",
          "type": "uint256"
        },
        {
          "internalType": "uint256",
          "name": "",
          "type": "uint256"
        }
      ],
      "name": "courseReviewers",
      "outputs": [
        {
          "internalType": "address",
          "name": "",
          "type": "address"
        }
      ],
      "stateMutability": "view",
      "type": "function"
    },
    {
      "inputs": [
        {
          "internalType": "string",
          "name": "_courseName",
          "type": "string"
        },
        {
          "internalType": "string",
          "name": "_description",
          "type": "string"
        }
      ],
      "name": "createCourse",
      "outputs": [
        {
          "internalType": "bool",
          "name": "",
          "type": "bool"
        }
      ],
      "stateMutability": "nonpayable",
      "type": "function"
    },
    {
      "inputs": [
        {
          "internalType": "uint256",
          "name": "_quizId",
          "type": "uint256"
        },
        {
          "internalType": "string",
          "name": "_questionText",
          "type": "string"
        },
        {
          "internalType": "string[]",
          "name": "_options",
          "type": "string[]"
        },
        {
          "internalType": "uint8",
          "name": "_correctChoiceIndex",
          "type": "uint8"
        }
      ],
      "name": "createQuestionWithChoices",
      "outputs": [],
      "stateMutability": "nonpayable",
      "type": "function"
    },
    {
      "inputs": [
        {
          "internalType": "uint256",
          "name": "_lessonId",
          "type": "uint256"
        },
        {
          "internalType": "string",
          "name": "_title",
          "type": "string"
        }
      ],
      "name": "createQuiz",
      "outputs": [
        {
          "internalType": "uint256",
          "name": "",
          "type": "uint256"
        }
      ],
      "stateMutability": "nonpayable",
      "type": "function"
    },
    {
      "inputs": [],
      "name": "decimals",
      "outputs": [
        {
          "internalType": "uint8",
          "name": "",
          "type": "uint8"
        }
      ],
      "stateMutability": "view",
      "type": "function"
    },
    {
      "inputs": [],
      "name": "ecosystemPoolSupply",
      "outputs": [
        {
          "internalType": "uint256",
          "name": "",
          "type": "uint256"
        }
      ],
      "stateMutability": "view",
      "type": "function"
    },
    {
      "inputs": [
        {
          "internalType": "uint256",
          "name": "_courseId",
          "type": "uint256"
        }
      ],
      "name": "enroll",
      "outputs": [
        {
          "internalType": "bool",
          "name": "",
          "type": "bool"
        }
      ],
      "stateMutability": "nonpayable",
      "type": "function"
    },
    {
      "inputs": [],
      "name": "getAllCourses",
      "outputs": [
        {
          "components": [
            {
              "internalType": "uint256",
              "name": "courseId",
              "type": "uint256"
            },
            {
              "internalType": "string",
              "name": "courseName",
              "type": "string"
            },
            {
              "internalType": "string",
              "name": "description",
              "type": "string"
            },
            {
              "internalType": "bool",
              "name": "approved",
              "type": "bool"
            },
            {
              "internalType": "uint256",
              "name": "approvalCount",
              "type": "uint256"
            },
            {
              "internalType": "address",
              "name": "creator",
              "type": "address"
            }
          ],
          "internalType": "struct Ecosystem.Course[]",
          "name": "",
          "type": "tuple[]"
        }
      ],
      "stateMutability": "view",
      "type": "function"
    },
    {
      "inputs": [],
      "name": "getAllLessons",
      "outputs": [
        {
          "components": [
            {
              "internalType": "uint256",
              "name": "chapterId",
              "type": "uint256"
            },
            {
              "internalType": "uint256",
              "name": "lessonId",
              "type": "uint256"
            },
            {
              "internalType": "string",
              "name": "lessonName",
              "type": "string"
            },
            {
              "internalType": "string",
              "name": "lessonContent",
              "type": "string"
            },
            {
              "components": [
                {
                  "internalType": "enum Ecosystem.ContentType",
                  "name": "contentType",
                  "type": "uint8"
                },
                {
                  "internalType": "string",
                  "name": "url",
                  "type": "string"
                },
                {
                  "internalType": "string",
                  "name": "name",
                  "type": "string"
                }
              ],
              "internalType": "struct Ecosystem.Resource[10]",
              "name": "additionalResources",
              "type": "tuple[10]"
            },
            {
              "internalType": "uint256",
              "name": "resourceCount",
              "type": "uint256"
            },
            {
              "internalType": "bool",
              "name": "exists",
              "type": "bool"
            }
          ],
          "internalType": "struct Ecosystem.Lesson[]",
          "name": "",
          "type": "tuple[]"
        }
      ],
      "stateMutability": "view",
      "type": "function"
    },
    {
      "inputs": [],
      "name": "getAllQuizzes",
      "outputs": [
        {
          "components": [
            {
              "internalType": "uint256",
              "name": "lessonId",
              "type": "uint256"
            },
            {
              "internalType": "uint256",
              "name": "quizId",
              "type": "uint256"
            },
            {
              "internalType": "string",
              "name": "quizTitle",
              "type": "string"
            },
            {
              "components": [
                {
                  "internalType": "uint256",
                  "name": "quizId",
                  "type": "uint256"
                },
                {
                  "internalType": "uint256",
                  "name": "questionId",
                  "type": "uint256"
                },
                {
                  "internalType": "string",
                  "name": "questionText",
                  "type": "string"
                },
                {
                  "components": [
                    {
                      "internalType": "string",
                      "name": "option",
                      "type": "string"
                    },
                    {
                      "internalType": "bool",
                      "name": "isCorrect",
                      "type": "bool"
                    }
                  ],
                  "internalType": "struct Ecosystem.Choice[]",
                  "name": "choices",
                  "type": "tuple[]"
                }
              ],
              "internalType": "struct Ecosystem.Question[]",
              "name": "questions",
              "type": "tuple[]"
            },
            {
              "internalType": "bool",
              "name": "exists",
              "type": "bool"
            }
          ],
          "internalType": "struct Ecosystem.Quiz[]",
          "name": "",
          "type": "tuple[]"
        }
      ],
      "stateMutability": "view",
      "type": "function"
    },
    {
      "inputs": [
        {
          "internalType": "uint256",
          "name": "_courseId",
          "type": "uint256"
        }
      ],
      "name": "getChapters",
      "outputs": [
        {
          "components": [
            {
              "internalType": "uint256",
              "name": "courseId",
              "type": "uint256"
            },
            {
              "internalType": "uint256",
              "name": "chapterId",
              "type": "uint256"
            },
            {
              "internalType": "string",
              "name": "chapterName",
              "type": "string"
            },
            {
              "internalType": "bool",
              "name": "exists",
              "type": "bool"
            }
          ],
          "internalType": "struct Ecosystem.Chapter[]",
          "name": "",
          "type": "tuple[]"
        }
      ],
      "stateMutability": "view",
      "type": "function"
    },
    {
      "inputs": [
        {
          "internalType": "uint256",
          "name": "courseId",
          "type": "uint256"
        }
      ],
      "name": "getCourseReviewers",
      "outputs": [
        {
          "internalType": "address[]",
          "name": "",
          "type": "address[]"
        }
      ],
      "stateMutability": "view",
      "type": "function"
    },
    {
      "inputs": [],
      "name": "getCurrentEcosystemPoolSupply",
      "outputs": [
        {
          "internalType": "uint256",
          "name": "",
          "type": "uint256"
        }
      ],
      "stateMutability": "view",
      "type": "function"
    },
    {
      "inputs": [
        {
          "internalType": "uint256",
          "name": "_quizId",
          "type": "uint256"
        }
      ],
      "name": "getQuestionsForQuiz",
      "outputs": [
        {
          "components": [
            {
              "internalType": "uint256",
              "name": "quizId",
              "type": "uint256"
            },
            {
              "internalType": "uint256",
              "name": "questionId",
              "type": "uint256"
            },
            {
              "internalType": "string",
              "name": "questionText",
              "type": "string"
            },
            {
              "components": [
                {
                  "internalType": "string",
                  "name": "option",
                  "type": "string"
                },
                {
                  "internalType": "bool",
                  "name": "isCorrect",
                  "type": "bool"
                }
              ],
              "internalType": "struct Ecosystem.Choice[]",
              "name": "choices",
              "type": "tuple[]"
            }
          ],
          "internalType": "struct Ecosystem.Question[]",
          "name": "",
          "type": "tuple[]"
        }
      ],
      "stateMutability": "view",
      "type": "function"
    },
    {
      "inputs": [
        {
          "internalType": "uint256",
          "name": "_quizId",
          "type": "uint256"
        }
      ],
      "name": "getQuiz",
      "outputs": [
        {
          "components": [
            {
              "internalType": "uint256",
              "name": "lessonId",
              "type": "uint256"
            },
            {
              "internalType": "uint256",
              "name": "quizId",
              "type": "uint256"
            },
            {
              "internalType": "string",
              "name": "quizTitle",
              "type": "string"
            },
            {
              "components": [
                {
                  "internalType": "uint256",
                  "name": "quizId",
                  "type": "uint256"
                },
                {
                  "internalType": "uint256",
                  "name": "questionId",
                  "type": "uint256"
                },
                {
                  "internalType": "string",
                  "name": "questionText",
                  "type": "string"
                },
                {
                  "components": [
                    {
                      "internalType": "string",
                      "name": "option",
                      "type": "string"
                    },
                    {
                      "internalType": "bool",
                      "name": "isCorrect",
                      "type": "bool"
                    }
                  ],
                  "internalType": "struct Ecosystem.Choice[]",
                  "name": "choices",
                  "type": "tuple[]"
                }
              ],
              "internalType": "struct Ecosystem.Question[]",
              "name": "questions",
              "type": "tuple[]"
            },
            {
              "internalType": "bool",
              "name": "exists",
              "type": "bool"
            }
          ],
          "internalType": "struct Ecosystem.Quiz",
          "name": "",
          "type": "tuple"
        }
      ],
      "stateMutability": "view",
      "type": "function"
    },
    {
      "inputs": [
        {
          "internalType": "bytes32",
          "name": "role",
          "type": "bytes32"
        }
      ],
      "name": "getRoleAdmin",
      "outputs": [
        {
          "internalType": "bytes32",
          "name": "",
          "type": "bytes32"
        }
      ],
      "stateMutability": "view",
      "type": "function"
    },
    {
      "inputs": [
        {
          "internalType": "bytes32",
          "name": "role",
          "type": "bytes32"
        },
        {
          "internalType": "address",
          "name": "account",
          "type": "address"
        }
      ],
      "name": "grantRole",
      "outputs": [],
      "stateMutability": "nonpayable",
      "type": "function"
    },
    {
      "inputs": [
        {
          "internalType": "bytes32",
          "name": "role",
          "type": "bytes32"
        },
        {
          "internalType": "address",
          "name": "account",
          "type": "address"
        }
      ],
      "name": "hasRole",
      "outputs": [
        {
          "internalType": "bool",
          "name": "",
          "type": "bool"
        }
      ],
      "stateMutability": "view",
      "type": "function"
    },
    {
      "inputs": [
        {
          "internalType": "uint256",
          "name": "",
          "type": "uint256"
        },
        {
          "internalType": "address",
          "name": "",
          "type": "address"
        }
      ],
      "name": "isEnrolled",
      "outputs": [
        {
          "internalType": "bool",
          "name": "",
          "type": "bool"
        }
      ],
      "stateMutability": "view",
      "type": "function"
    },
    {
      "inputs": [
        {
          "internalType": "address",
          "name": "",
          "type": "address"
        }
      ],
      "name": "isInReviewerPool",
      "outputs": [
        {
          "internalType": "bool",
          "name": "",
          "type": "bool"
        }
      ],
      "stateMutability": "view",
      "type": "function"
    },
    {
      "inputs": [
        {
          "internalType": "address",
          "name": "account",
          "type": "address"
        }
      ],
      "name": "isReviewer",
      "outputs": [
        {
          "internalType": "bool",
          "name": "",
          "type": "bool"
        }
      ],
      "stateMutability": "view",
      "type": "function"
    },
    {
      "inputs": [
        {
          "internalType": "uint256",
          "name": "",
          "type": "uint256"
        }
      ],
      "name": "lesson",
      "outputs": [
        {
          "internalType": "uint256",
          "name": "chapterId",
          "type": "uint256"
        },
        {
          "internalType": "uint256",
          "name": "lessonId",
          "type": "uint256"
        },
        {
          "internalType": "string",
          "name": "lessonName",
          "type": "string"
        },
        {
          "internalType": "string",
          "name": "lessonContent",
          "type": "string"
        },
        {
          "internalType": "uint256",
          "name": "resourceCount",
          "type": "uint256"
        },
        {
          "internalType": "bool",
          "name": "exists",
          "type": "bool"
        }
      ],
      "stateMutability": "view",
      "type": "function"
    },
    {
      "inputs": [
        {
          "internalType": "uint256",
          "name": "",
          "type": "uint256"
        }
      ],
      "name": "listOfChapters",
      "outputs": [
        {
          "internalType": "uint256",
          "name": "courseId",
          "type": "uint256"
        },
        {
          "internalType": "uint256",
          "name": "chapterId",
          "type": "uint256"
        },
        {
          "internalType": "string",
          "name": "chapterName",
          "type": "string"
        },
        {
          "internalType": "bool",
          "name": "exists",
          "type": "bool"
        }
      ],
      "stateMutability": "view",
      "type": "function"
    },
    {
      "inputs": [
        {
          "internalType": "uint256",
          "name": "",
          "type": "uint256"
        }
      ],
      "name": "listOfCourses",
      "outputs": [
        {
          "internalType": "uint256",
          "name": "courseId",
          "type": "uint256"
        },
        {
          "internalType": "string",
          "name": "courseName",
          "type": "string"
        },
        {
          "internalType": "string",
          "name": "description",
          "type": "string"
        },
        {
          "internalType": "bool",
          "name": "approved",
          "type": "bool"
        },
        {
          "internalType": "uint256",
          "name": "approvalCount",
          "type": "uint256"
        },
        {
          "internalType": "address",
          "name": "creator",
          "type": "address"
        }
      ],
      "stateMutability": "view",
      "type": "function"
    },
    {
      "inputs": [
        {
          "internalType": "uint256",
          "name": "",
          "type": "uint256"
        }
      ],
      "name": "listOfLessons",
      "outputs": [
        {
          "internalType": "uint256",
          "name": "chapterId",
          "type": "uint256"
        },
        {
          "internalType": "uint256",
          "name": "lessonId",
          "type": "uint256"
        },
        {
          "internalType": "string",
          "name": "lessonName",
          "type": "string"
        },
        {
          "internalType": "string",
          "name": "lessonContent",
          "type": "string"
        },
        {
          "internalType": "uint256",
          "name": "resourceCount",
          "type": "uint256"
        },
        {
          "internalType": "bool",
          "name": "exists",
          "type": "bool"
        }
      ],
      "stateMutability": "view",
      "type": "function"
    },
    {
      "inputs": [
        {
          "internalType": "uint256",
          "name": "",
          "type": "uint256"
        }
      ],
      "name": "listOfQuestions",
      "outputs": [
        {
          "internalType": "uint256",
          "name": "quizId",
          "type": "uint256"
        },
        {
          "internalType": "uint256",
          "name": "questionId",
          "type": "uint256"
        },
        {
          "internalType": "string",
          "name": "questionText",
          "type": "string"
        }
      ],
      "stateMutability": "view",
      "type": "function"
    },
    {
      "inputs": [
        {
          "internalType": "uint256",
          "name": "",
          "type": "uint256"
        }
      ],
      "name": "listOfQuizzes",
      "outputs": [
        {
          "internalType": "uint256",
          "name": "lessonId",
          "type": "uint256"
        },
        {
          "internalType": "uint256",
          "name": "quizId",
          "type": "uint256"
        },
        {
          "internalType": "string",
          "name": "quizTitle",
          "type": "string"
        },
        {
          "internalType": "bool",
          "name": "exists",
          "type": "bool"
        }
      ],
      "stateMutability": "view",
      "type": "function"
    },
    {
      "inputs": [
        {
          "internalType": "uint256",
          "name": "",
          "type": "uint256"
        }
      ],
      "name": "listOfResource",
      "outputs": [
        {
          "internalType": "enum Ecosystem.ContentType",
          "name": "contentType",
          "type": "uint8"
        },
        {
          "internalType": "string",
          "name": "url",
          "type": "string"
        },
        {
          "internalType": "string",
          "name": "name",
          "type": "string"
        }
      ],
      "stateMutability": "view",
      "type": "function"
    },
    {
      "inputs": [
        {
          "internalType": "uint256",
          "name": "",
          "type": "uint256"
        }
      ],
      "name": "multiSigProposals",
      "outputs": [
        {
          "internalType": "uint256",
          "name": "id",
          "type": "uint256"
        },
        {
          "internalType": "address",
          "name": "proposer",
          "type": "address"
        },
        {
          "internalType": "address",
          "name": "targetContract",
          "type": "address"
        },
        {
          "internalType": "bytes",
          "name": "data",
          "type": "bytes"
        },
        {
          "internalType": "uint256",
          "name": "approvalCount",
          "type": "uint256"
        },
        {
          "internalType": "bool",
          "name": "executed",
          "type": "bool"
        }
      ],
      "stateMutability": "view",
      "type": "function"
    },
    {
      "inputs": [],
      "name": "name",
      "outputs": [
        {
          "internalType": "string",
          "name": "",
          "type": "string"
        }
      ],
      "stateMutability": "view",
      "type": "function"
    },
    {
      "inputs": [],
      "name": "nextChapterId",
      "outputs": [
        {
          "internalType": "uint256",
          "name": "",
          "type": "uint256"
        }
      ],
      "stateMutability": "view",
      "type": "function"
    },
    {
      "inputs": [],
      "name": "nextChoiceId",
      "outputs": [
        {
          "internalType": "uint256",
          "name": "",
          "type": "uint256"
        }
      ],
      "stateMutability": "view",
      "type": "function"
    },
    {
      "inputs": [],
      "name": "nextCourseId",
      "outputs": [
        {
          "internalType": "uint256",
          "name": "",
          "type": "uint256"
        }
      ],
      "stateMutability": "view",
      "type": "function"
    },
    {
      "inputs": [],
      "name": "nextCourseIdd",
      "outputs": [
        {
          "internalType": "uint256",
          "name": "",
          "type": "uint256"
        }
      ],
      "stateMutability": "view",
      "type": "function"
    },
    {
      "inputs": [],
      "name": "nextLessonId",
      "outputs": [
        {
          "internalType": "uint256",
          "name": "",
          "type": "uint256"
        }
      ],
      "stateMutability": "view",
      "type": "function"
    },
    {
      "inputs": [],
      "name": "nextQuestionId",
      "outputs": [
        {
          "internalType": "uint256",
          "name": "",
          "type": "uint256"
        }
      ],
      "stateMutability": "view",
      "type": "function"
    },
    {
      "inputs": [],
      "name": "nextQuizId",
      "outputs": [
        {
          "internalType": "uint256",
          "name": "",
          "type": "uint256"
        }
      ],
      "stateMutability": "view",
      "type": "function"
    },
    {
      "inputs": [
        {
          "internalType": "uint256",
          "name": "",
          "type": "uint256"
        }
      ],
      "name": "questions",
      "outputs": [
        {
          "internalType": "uint256",
          "name": "quizId",
          "type": "uint256"
        },
        {
          "internalType": "uint256",
          "name": "questionId",
          "type": "uint256"
        },
        {
          "internalType": "string",
          "name": "questionText",
          "type": "string"
        }
      ],
      "stateMutability": "view",
      "type": "function"
    },
    {
      "inputs": [
        {
          "internalType": "uint256",
          "name": "",
          "type": "uint256"
        }
      ],
      "name": "quizzes",
      "outputs": [
        {
          "internalType": "uint256",
          "name": "lessonId",
          "type": "uint256"
        },
        {
          "internalType": "uint256",
          "name": "quizId",
          "type": "uint256"
        },
        {
          "internalType": "string",
          "name": "quizTitle",
          "type": "string"
        },
        {
          "internalType": "bool",
          "name": "exists",
          "type": "bool"
        }
      ],
      "stateMutability": "view",
      "type": "function"
    },
    {
      "inputs": [
        {
          "internalType": "address",
          "name": "reviewer",
          "type": "address"
        }
      ],
      "name": "removeReviewer",
      "outputs": [],
      "stateMutability": "nonpayable",
      "type": "function"
    },
    {
      "inputs": [
        {
          "internalType": "bytes32",
          "name": "role",
          "type": "bytes32"
        },
        {
          "internalType": "address",
          "name": "callerConfirmation",
          "type": "address"
        }
      ],
      "name": "renounceRole",
      "outputs": [],
      "stateMutability": "nonpayable",
      "type": "function"
    },
    {
      "inputs": [
        {
          "internalType": "uint256",
          "name": "",
          "type": "uint256"
        }
      ],
      "name": "reviewerPool",
      "outputs": [
        {
          "internalType": "address",
          "name": "",
          "type": "address"
        }
      ],
      "stateMutability": "view",
      "type": "function"
    },
    {
      "inputs": [
        {
          "internalType": "uint256",
          "name": "",
          "type": "uint256"
        },
        {
          "internalType": "address",
          "name": "",
          "type": "address"
        }
      ],
      "name": "reviews",
      "outputs": [
        {
          "internalType": "uint256",
          "name": "learnerAgency",
          "type": "uint256"
        },
        {
          "internalType": "uint256",
          "name": "criticalThinking",
          "type": "uint256"
        },
        {
          "internalType": "uint256",
          "name": "collaborativeLearning",
          "type": "uint256"
        },
        {
          "internalType": "uint256",
          "name": "reflectivePractice",
          "type": "uint256"
        },
        {
          "internalType": "uint256",
          "name": "adaptiveLearning",
          "type": "uint256"
        },
        {
          "internalType": "uint256",
          "name": "authenticLearning",
          "type": "uint256"
        },
        {
          "internalType": "uint256",
          "name": "technologyIntegration",
          "type": "uint256"
        },
        {
          "internalType": "uint256",
          "name": "learnerSupport",
          "type": "uint256"
        },
        {
          "internalType": "uint256",
          "name": "assessmentForLearning",
          "type": "uint256"
        },
        {
          "internalType": "uint256",
          "name": "engagementAndMotivation",
          "type": "uint256"
        },
        {
          "internalType": "bool",
          "name": "isSubmitted",
          "type": "bool"
        }
      ],
      "stateMutability": "view",
      "type": "function"
    },
    {
      "inputs": [
        {
          "internalType": "bytes32",
          "name": "role",
          "type": "bytes32"
        },
        {
          "internalType": "address",
          "name": "account",
          "type": "address"
        }
      ],
      "name": "revokeRole",
      "outputs": [],
      "stateMutability": "nonpayable",
      "type": "function"
    },
    {
      "inputs": [
        {
          "internalType": "uint256",
          "name": "courseId",
          "type": "uint256"
        }
      ],
      "name": "selectCourseReviewers",
      "outputs": [],
      "stateMutability": "nonpayable",
      "type": "function"
    },
    {
      "inputs": [
        {
          "internalType": "uint256",
          "name": "courseId",
          "type": "uint256"
        },
        {
          "internalType": "uint256",
          "name": "learnerAgency",
          "type": "uint256"
        },
        {
          "internalType": "uint256",
          "name": "criticalThinking",
          "type": "uint256"
        },
        {
          "internalType": "uint256",
          "name": "collaborativeLearning",
          "type": "uint256"
        },
        {
          "internalType": "uint256",
          "name": "reflectivePractice",
          "type": "uint256"
        },
        {
          "internalType": "uint256",
          "name": "adaptiveLearning",
          "type": "uint256"
        },
        {
          "internalType": "uint256",
          "name": "authenticLearning",
          "type": "uint256"
        },
        {
          "internalType": "uint256",
          "name": "technologyIntegration",
          "type": "uint256"
        },
        {
          "internalType": "uint256",
          "name": "learnerSupport",
          "type": "uint256"
        },
        {
          "internalType": "uint256",
          "name": "assessmentForLearning",
          "type": "uint256"
        },
        {
          "internalType": "uint256",
          "name": "engagementAndMotivation",
          "type": "uint256"
        }
      ],
      "name": "submitReview",
      "outputs": [],
      "stateMutability": "nonpayable",
      "type": "function"
    },
    {
      "inputs": [
        {
          "internalType": "bytes4",
          "name": "interfaceId",
          "type": "bytes4"
        }
      ],
      "name": "supportsInterface",
      "outputs": [
        {
          "internalType": "bool",
          "name": "",
          "type": "bool"
        }
      ],
      "stateMutability": "view",
      "type": "function"
    },
    {
      "inputs": [],
      "name": "symbol",
      "outputs": [
        {
          "internalType": "string",
          "name": "",
          "type": "string"
        }
      ],
      "stateMutability": "view",
      "type": "function"
    },
    {
      "inputs": [],
      "name": "totalSupply",
      "outputs": [
        {
          "internalType": "uint256",
          "name": "",
          "type": "uint256"
        }
      ],
      "stateMutability": "view",
      "type": "function"
    },
    {
      "inputs": [
        {
          "internalType": "address",
          "name": "to",
          "type": "address"
        },
        {
          "internalType": "uint256",
          "name": "value",
          "type": "uint256"
        }
      ],
      "name": "transfer",
      "outputs": [
        {
          "internalType": "bool",
          "name": "",
          "type": "bool"
        }
      ],
      "stateMutability": "nonpayable",
      "type": "function"
    },
    {
      "inputs": [
        {
          "internalType": "address",
          "name": "from",
          "type": "address"
        },
        {
          "internalType": "address",
          "name": "to",
          "type": "address"
        },
        {
          "internalType": "uint256",
          "name": "value",
          "type": "uint256"
        }
      ],
      "name": "transferFrom",
      "outputs": [
        {
          "internalType": "bool",
          "name": "",
          "type": "bool"
        }
      ],
      "stateMutability": "nonpayable",
      "type": "function"
    },
    {
      "inputs": [
        {
          "internalType": "uint256",
          "name": "_courseId",
          "type": "uint256"
        }
      ],
      "name": "unEnroll",
      "outputs": [
        {
          "internalType": "bool",
          "name": "",
          "type": "bool"
        }
      ],
      "stateMutability": "nonpayable",
      "type": "function"
    }
  ],
  "bytecode": "0x608060405234801561001057600080fd5b5060405161abd538038061abd58339818101604052810190610032919061063b565b80806040518060400160405280600a81526020017f4142594120544f4b454e000000000000000000000000000000000000000000008152506040518060400160405280600681526020017f414259544b4e000000000000000000000000000000000000000000000000000081525081600390816100af91906108a5565b5080600490816100bf91906108a5565b505050600481511015610107576040517f08c379a00000000000000000000000000000000000000000000000000000000081526004016100fe906109fa565b60405180910390fd5b61011a6000801b336102c060201b60201c565b5061014b7fdf1425bae297c2f52b4f15d18a50b1fc8cb5b981a981b1d213ed3ff92681b64d336102c060201b60201c565b5060005b815181101561029f576101a27fc10c77be35aff266144ed64c26a1fa104bae2f284ae99ac4a34203454704a18583838151811061018f5761018e610a1a565b5b60200260200101516102c060201b60201c565b5060068282815181106101b8576101b7610a1a565b5b60200260200101519080600181540180825580915050600190039060005260206000200160009091909190916101000a81548173ffffffffffffffffffffffffffffffffffffffff021916908373ffffffffffffffffffffffffffffffffffffffff16021790555060016008600084848151811061023957610238610a1a565b5b602002602001015173ffffffffffffffffffffffffffffffffffffffff1673ffffffffffffffffffffffffffffffffffffffff16815260200190815260200160002060006101000a81548160ff021916908315150217905550808060010191505061014f565b50506001600a819055506102b9600b6103be60201b60201c565b5050610a49565b60006102d283836103fd60201b60201c565b6103b35760016005600085815260200190815260200160002060000160008473ffffffffffffffffffffffffffffffffffffffff1673ffffffffffffffffffffffffffffffffffffffff16815260200190815260200160002060006101000a81548160ff02191690831515021790555061035061046860201b60201c565b73ffffffffffffffffffffffffffffffffffffffff168273ffffffffffffffffffffffffffffffffffffffff16847f2f8788117e7eff1d82e926ec794901d17c78024a50270940304540a733656f0d60405160405180910390a4600190506103b8565b600090505b92915050565b60018160000181905550600181600101819055506001816002018190555060018160030181905550600181600401819055506001816005018190555050565b60006005600084815260200190815260200160002060000160008373ffffffffffffffffffffffffffffffffffffffff1673ffffffffffffffffffffffffffffffffffffffff16815260200190815260200160002060009054906101000a900460ff16905092915050565b600033905090565b6000604051905090565b600080fd5b600080fd5b600080fd5b6000601f19601f8301169050919050565b7f4e487b7100000000000000000000000000000000000000000000000000000000600052604160045260246000fd5b6104d282610489565b810181811067ffffffffffffffff821117156104f1576104f061049a565b5b80604052505050565b6000610504610470565b905061051082826104c9565b919050565b600067ffffffffffffffff8211156105305761052f61049a565b5b602082029050602081019050919050565b600080fd5b600073ffffffffffffffffffffffffffffffffffffffff82169050919050565b600061057182610546565b9050919050565b61058181610566565b811461058c57600080fd5b50565b60008151905061059e81610578565b92915050565b60006105b76105b284610515565b6104fa565b905080838252602082019050602084028301858111156105da576105d9610541565b5b835b8181101561060357806105ef888261058f565b8452602084019350506020810190506105dc565b5050509392505050565b600082601f83011261062257610621610484565b5b81516106328482602086016105a4565b91505092915050565b6000602082840312156106515761065061047a565b5b600082015167ffffffffffffffff81111561066f5761066e61047f565b5b61067b8482850161060d565b91505092915050565b600081519050919050565b7f4e487b7100000000000000000000000000000000000000000000000000000000600052602260045260246000fd5b600060028204905060018216806106d657607f821691505b6020821081036106e9576106e861068f565b5b50919050565b60008190508160005260206000209050919050565b60006020601f8301049050919050565b600082821b905092915050565b6000600883026107517fffffffffffffffffffffffffffffffffffffffffffffffffffffffffffffffff82610714565b61075b8683610714565b95508019841693508086168417925050509392505050565b6000819050919050565b6000819050919050565b60006107a261079d61079884610773565b61077d565b610773565b9050919050565b6000819050919050565b6107bc83610787565b6107d06107c8826107a9565b848454610721565b825550505050565b600090565b6107e56107d8565b6107f08184846107b3565b505050565b5b81811015610814576108096000826107dd565b6001810190506107f6565b5050565b601f8211156108595761082a816106ef565b61083384610704565b81016020851015610842578190505b61085661084e85610704565b8301826107f5565b50505b505050565b600082821c905092915050565b600061087c6000198460080261085e565b1980831691505092915050565b6000610895838361086b565b9150826002028217905092915050565b6108ae82610684565b67ffffffffffffffff8111156108c7576108c661049a565b5b6108d182546106be565b6108dc828285610818565b600060209050601f83116001811461090f57600084156108fd578287015190505b6109078582610889565b86555061096f565b601f19841661091d866106ef565b60005b8281101561094557848901518255600182019150602085019450602081019050610920565b86831015610962578489015161095e601f89168261086b565b8355505b6001600288020188555050505b505050505050565b600082825260208201905092915050565b7f4174206c6561737420342072657669657765727320617265207265717569726560008201527f6400000000000000000000000000000000000000000000000000000000000000602082015250565b60006109e4602183610977565b91506109ef82610988565b604082019050919050565b60006020820190508181036000830152610a13816109d7565b9050919050565b7f4e487b7100000000000000000000000000000000000000000000000000000000600052603260045260246000fd5b61a17d80610a586000396000f3fe608060405234801561001057600080fd5b50600436106104805760003560e01c80637528499811610257578063bad0dd6511610146578063d547741f116100c3578063e503f10811610087578063e503f10814611009578063eb264b9c14611027578063f57d585b14611045578063fdc6258a14611075578063ffabc673146110a557610480565b8063d547741f14610f4f578063d93f2caa14610f6b578063dd62ed3e14610f89578063ddfc79fb14610fb9578063ded5c18d14610feb57610480565b8063c7954e4c1161010a578063c7954e4c14610e96578063c90c884d14610eb4578063c9442dac14610ee7578063c976831514610f03578063d3751bfc14610f3357610480565b8063bad0dd6514610dab578063bfd2f4c514610dc7578063c12804fb14610dfc578063c293bbbe14610e36578063c491b04c14610e6657610480565b8063a217fddf116101d4578063a9059cbb11610198578063a9059cbb14610ce1578063aa95da3a14610d11578063ac678a9314610d41578063ac957c6314610d71578063b31a4af314610d8f57610480565b8063a217fddf14610c12578063a26a795314610c30578063a296ea5814610c60578063a3ef204114610c7e578063a3f7e09614610cb157610480565b80638ea6e2fd1161021b5780638ea6e2fd14610b5a57806391d1485414610b7657806395d89b4114610ba6578063a14ecbdf14610bc4578063a1cd05b114610be257610480565b80637528499814610ab357806375b9d86914610acf5780637d83daf214610aeb578063846f815214610b0957806388409afa14610b2757610480565b806331b1b9781161037357806352994e2f116102f05780636a4af0fa116102b45780636a4af0fa146109f65780636b000fa714610a145780636fdb67f714610a3257806370a0823114610a6757806373a82b5f14610a9757610480565b806352994e2f1461095057806358a3fa251461096e578063599c55331461098a578063632c224b146109a857806366055159146109d857610480565b80633b129a56116103375780633b129a561461086857806340932bf8146108865780634a474b9c146108bb5780634d42ef48146108eb57806351d93c811461091e57610480565b806331b1b978146107ae57806332cb6b0c146107e057806334ed4bdb146107fe57806336568abe1461082e5780633693dcfa1461084a57610480565b8063248a9ca31161040157806329a0be65116103c557806329a0be65146106f15780632aac61ae1461070f5780632f2ff15d146107445780632fab55af14610760578063313ce5671461079057610480565b8063248a9ca31461061d578063274202f01461064d57806327ff62231461066b578063295b825a146106895780632990db7c146106bc57610480565b806311ce15df1161044857806311ce15df1461053f57806318160ddd1461056f57806319f102ec1461058d57806320bd0316146105bd57806323b872dd146105ed57610480565b806301ffc9a71461048557806304e48bd1146104b5578063057f46bb146104d357806306fdde03146104f1578063095ea7b31461050f575b600080fd5b61049f600480360381019061049a9190617188565b6110d5565b6040516104ac91906171d0565b60405180910390f35b6104bd61114f565b6040516104ca9190617436565b60405180910390f35b6104db611451565b6040516104e89190617467565b60405180910390f35b6104f9611457565b60405161050691906174cc565b60405180910390f35b61052960048036038101906105249190617546565b6114e9565b60405161053691906171d0565b60405180910390f35b61055960048036038101906105549190617586565b61150c565b60405161056691906171d0565b60405180910390f35b61057761152c565b6040516105849190617467565b60405180910390f35b6105a760048036038101906105a29190617586565b611536565b6040516105b491906175c2565b60405180910390f35b6105d760048036038101906105d29190617586565b611575565b6040516105e491906171d0565b60405180910390f35b610607600480360381019061060291906175dd565b6116ec565b60405161061491906171d0565b60405180910390f35b61063760048036038101906106329190617666565b61171b565b60405161064491906176a2565b60405180910390f35b61065561173b565b6040516106629190617467565b60405180910390f35b610673611763565b6040516106809190617467565b60405180910390f35b6106a3600480360381019061069e9190617586565b611768565b6040516106b394939291906176bd565b60405180910390f35b6106d660048036038101906106d19190617586565b61183d565b6040516106e896959493929190617709565b60405180910390f35b6106f96119b6565b6040516107069190617467565b60405180910390f35b61072960048036038101906107249190617586565b6119bc565b60405161073b96959493929190617778565b60405180910390f35b61075e600480360381019061075991906177e7565b611b25565b005b61077a60048036038101906107759190617a42565b611b47565b60405161078791906171d0565b60405180910390f35b610798611e01565b6040516107a59190617aba565b60405180910390f35b6107c860048036038101906107c39190617586565b611e0a565b6040516107d793929190617ad5565b60405180910390f35b6107e8611ebc565b6040516107f59190617467565b60405180910390f35b61081860048036038101906108139190617b13565b611ecc565b6040516108259190617467565b60405180910390f35b610848600480360381019061084391906177e7565b611eea565b005b610852611f65565b60405161085f91906176a2565b60405180910390f35b610870611f89565b60405161087d91906176a2565b60405180910390f35b6108a0600480360381019061089b9190617586565b611fad565b6040516108b296959493929190617b95565b60405180910390f35b6108d560048036038101906108d09190617586565b6120be565b6040516108e29190617e28565b60405180910390f35b61090560048036038101906109009190617e4a565b612348565b60405161091594939291906176bd565b60405180910390f35b61093860048036038101906109339190617586565b61242a565b60405161094793929190617ad5565b60405180910390f35b6109586124ec565b60405161096591906176a2565b60405180910390f35b61098860048036038101906109839190617e8a565b612510565b005b6109926127d6565b60405161099f9190617467565b60405180910390f35b6109c260048036038101906109bd9190617f7e565b6127db565b6040516109cf9190617467565b60405180910390f35b6109e061299f565b6040516109ed9190617467565b60405180910390f35b6109fe6129a5565b604051610a0b919061819f565b60405180910390f35b610a1c612d35565b604051610a299190617467565b60405180910390f35b610a4c6004803603810190610a479190617586565b612d3b565b604051610a5e96959493929190617709565b60405180910390f35b610a816004803603810190610a7c9190617b13565b612ec4565b604051610a8e9190617467565b60405180910390f35b610ab16004803603810190610aac9190617b13565b612f0c565b005b610acd6004803603810190610ac89190617586565b6130f0565b005b610ae96004803603810190610ae491906181c1565b61330a565b005b610af3613518565b604051610b009190617467565b60405180910390f35b610b1161351e565b604051610b1e9190617467565b60405180910390f35b610b416004803603810190610b3c9190617586565b61352a565b604051610b5194939291906176bd565b60405180910390f35b610b746004803603810190610b6f9190617586565b6135ef565b005b610b906004803603810190610b8b91906177e7565b613959565b604051610b9d91906171d0565b60405180910390f35b610bae6139c4565b604051610bbb91906174cc565b60405180910390f35b610bcc613a56565b604051610bd99190617467565b60405180910390f35b610bfc6004803603810190610bf79190617e4a565b613a5c565b604051610c0991906175c2565b60405180910390f35b610c1a613aaa565b604051610c2791906176a2565b60405180910390f35b610c4a6004803603810190610c45919061824c565b613ab1565b604051610c5791906171d0565b60405180910390f35b610c68613e88565b604051610c7591906185b4565b60405180910390f35b610c986004803603810190610c939190617586565b614260565b604051610ca894939291906176bd565b60405180910390f35b610ccb6004803603810190610cc69190617586565b614325565b604051610cd89190618653565b60405180910390f35b610cfb6004803603810190610cf69190617546565b614687565b604051610d0891906171d0565b60405180910390f35b610d2b6004803603810190610d269190617e4a565b6146aa565b604051610d3891906174cc565b60405180910390f35b610d5b6004803603810190610d569190617586565b614762565b604051610d68919061879a565b60405180910390f35b610d79614895565b604051610d869190617467565b60405180910390f35b610da96004803603810190610da4919061883c565b61489a565b005b610dc56004803603810190610dc09190617586565b614c8c565b005b610de16004803603810190610ddc9190617586565b614f8b565b604051610df396959493929190617778565b60405180910390f35b610e166004803603810190610e1191906188b0565b6150e4565b604051610e2d9b9a999897969594939291906188f0565b60405180910390f35b610e506004803603810190610e4b9190617586565b615158565b604051610e5d9190618a4a565b60405180910390f35b610e806004803603810190610e7b9190617b13565b6151f9565b604051610e8d91906171d0565b60405180910390f35b610e9e615219565b604051610eab9190617467565b60405180910390f35b610ece6004803603810190610ec99190617586565b615223565b604051610ede94939291906176bd565b60405180910390f35b610f016004803603810190610efc9190617b13565b6152f8565b005b610f1d6004803603810190610f1891906188b0565b6155e2565b604051610f2a91906171d0565b60405180910390f35b610f4d6004803603810190610f489190618a98565b615611565b005b610f696004803603810190610f6491906177e7565b615a08565b005b610f73615a2a565b604051610f809190617467565b60405180910390f35b610fa36004803603810190610f9e9190618b37565b615a36565b604051610fb09190617467565b60405180910390f35b610fd36004803603810190610fce9190617586565b615abd565b604051610fe293929190618b86565b60405180910390f35b610ff3615c14565b6040516110009190617467565b60405180910390f35b611011615c21565b60405161101e9190617467565b60405180910390f35b61102f615c27565b60405161103c9190617467565b60405180910390f35b61105f600480360381019061105a9190617586565b615c2d565b60405161106c91906171d0565b60405180910390f35b61108f600480360381019061108a9190617b13565b615e09565b60405161109c91906171d0565b60405180910390f35b6110bf60048036038101906110ba9190617546565b615e3c565b6040516110cc91906171d0565b60405180910390f35b60007f7965db0b000000000000000000000000000000000000000000000000000000007bffffffffffffffffffffffffffffffffffffffffffffffffffffffff1916827bffffffffffffffffffffffffffffffffffffffffffffffffffffffff19161480611148575061114782615e6b565b5b9050919050565b6060600060268054905067ffffffffffffffff8111156111725761117161782c565b5b6040519080825280602002602001820160405280156111ab57816020015b611198616cac565b8152602001906001900390816111905790505b50905060005b602680549050811015611449576040518060c00160405280602683815481106111dd576111dc618bcb565b5b90600052602060002090600602016000015481526020016026838154811061120857611207618bcb565b5b9060005260206000209060060201600101805461122490618c29565b80601f016020809104026020016040519081016040528092919081815260200182805461125090618c29565b801561129d5780601f106112725761010080835404028352916020019161129d565b820191906000526020600020905b81548152906001019060200180831161128057829003601f168201915b50505050508152602001602683815481106112bb576112ba618bcb565b5b906000526020600020906006020160020180546112d790618c29565b80601f016020809104026020016040519081016040528092919081815260200182805461130390618c29565b80156113505780601f1061132557610100808354040283529160200191611350565b820191906000526020600020905b81548152906001019060200180831161133357829003601f168201915b505050505081526020016026838154811061136e5761136d618bcb565b5b906000526020600020906006020160030160009054906101000a900460ff1615158152602001602683815481106113a8576113a7618bcb565b5b9060005260206000209060060201600401548152602001602683815481106113d3576113d2618bcb565b5b906000526020600020906006020160050160009054906101000a900473ffffffffffffffffffffffffffffffffffffffff1673ffffffffffffffffffffffffffffffffffffffff1681525082828151811061143157611430618bcb565b5b602002602001018190525080806001019150506111b1565b508091505090565b60145481565b60606003805461146690618c29565b80601f016020809104026020016040519081016040528092919081815260200182805461149290618c29565b80156114df5780601f106114b4576101008083540402835291602001916114df565b820191906000526020600020905b8154815290600101906020018083116114c257829003601f168201915b5050505050905090565b6000806114f4615ed5565b9050611501818585615edd565b600191505092915050565b60246020528060005260406000206000915054906101000a900460ff1681565b6000600254905090565b6006818154811061154657600080fd5b906000526020600020016000915054906101000a900473ffffffffffffffffffffffffffffffffffffffff1681565b600061157f615eef565b6025600083815260200190815260200160002060003373ffffffffffffffffffffffffffffffffffffffff1673ffffffffffffffffffffffffffffffffffffffff16815260200190815260200160002060009054906101000a900460ff1661161c576040517f08c379a000000000000000000000000000000000000000000000000000000000815260040161161390618ccc565b60405180910390fd5b60006025600084815260200190815260200160002060003373ffffffffffffffffffffffffffffffffffffffff1673ffffffffffffffffffffffffffffffffffffffff16815260200190815260200160002060006101000a81548160ff02191690831515021790555061169733671bc16d674ec80000615f35565b3373ffffffffffffffffffffffffffffffffffffffff16827f9b244c565b926d7f4e915b69f3a5c6afc2231322d0d44e821076ad8879d0d68360405160405180910390a3600190506116e7615f5c565b919050565b6000806116f7615ed5565b9050611704858285615f66565b61170f858585615ffa565b60019150509392505050565b600060056000838152602001908152602001600020600101549050919050565b6064600f6b204fce5e3e250261100000006117569190618d1b565b6117609190618d8c565b81565b606481565b602a818154811061177857600080fd5b90600052602060002090600502016000915090508060000154908060010154908060020180546117a790618c29565b80601f01602080910402602001604051908101604052809291908181526020018280546117d390618c29565b80156118205780601f106117f557610100808354040283529160200191611820565b820191906000526020600020905b81548152906001019060200180831161180357829003601f168201915b5050505050908060040160009054906101000a900460ff16905084565b601960205280600052604060002060009150905080600001549080600101805461186690618c29565b80601f016020809104026020016040519081016040528092919081815260200182805461189290618c29565b80156118df5780601f106118b4576101008083540402835291602001916118df565b820191906000526020600020905b8154815290600101906020018083116118c257829003601f168201915b5050505050908060020180546118f490618c29565b80601f016020809104026020016040519081016040528092919081815260200182805461192090618c29565b801561196d5780601f106119425761010080835404028352916020019161196d565b820191906000526020600020905b81548152906001019060200180831161195057829003601f168201915b5050505050908060030160009054906101000a900460ff16908060040154908060050160009054906101000a900473ffffffffffffffffffffffffffffffffffffffff16905086565b60155481565b602881815481106119cc57600080fd5b90600052602060002090602402016000915090508060000154908060010154908060020180546119fb90618c29565b80601f0160208091040260200160405190810160405280929190818152602001828054611a2790618c29565b8015611a745780601f10611a4957610100808354040283529160200191611a74565b820191906000526020600020905b815481529060010190602001808311611a5757829003601f168201915b505050505090806003018054611a8990618c29565b80601f0160208091040260200160405190810160405280929190818152602001828054611ab590618c29565b8015611b025780601f10611ad757610100808354040283529160200191611b02565b820191906000526020600020905b815481529060010190602001808311611ae557829003601f168201915b5050505050908060220154908060230160009054906101000a900460ff16905086565b611b2e8261171b565b611b37816160ee565b611b418383616102565b50505050565b60008073ffffffffffffffffffffffffffffffffffffffff166019600085815260200190815260200160002060050160009054906101000a900473ffffffffffffffffffffffffffffffffffffffff1673ffffffffffffffffffffffffffffffffffffffff1603611bed576040517f08c379a0000000000000000000000000000000000000000000000000000000008152600401611be490618e09565b60405180910390fd5b60005b8251811015611dc757600060405180608001604052808681526020016014548152602001858481518110611c2757611c26618bcb565b5b60200260200101518152602001600115158152509050602781908060018154018082558091505060019003906000526020600020906004020160009091909190915060008201518160000155602082015181600101556040820151816002019081611c929190618fd5565b5060608201518160030160006101000a81548160ff021916908315150217905550505080601d6000601454815260200190815260200160002060008201518160000155602082015181600101556040820151816002019081611cf49190618fd5565b5060608201518160030160006101000a81548160ff021916908315150217905550905050601e600086815260200190815260200160002081908060018154018082558091505060019003906000526020600020906004020160009091909190915060008201518160000155602082015181600101556040820151816002019081611d7e9190618fd5565b5060608201518160030160006101000a81548160ff021916908315150217905550505060146000815480929190611db4906190a7565b9190505550508080600101915050611bf0565b508151837f1eb97e969f52c132bb6c79817d1f9001078fff0cd328ce625628e1fb4cc0e7de60405160405180910390a36001905092915050565b60006012905090565b6022602052806000526040600020600091509050806000015490806001015490806002018054611e3990618c29565b80601f0160208091040260200160405190810160405280929190818152602001828054611e6590618c29565b8015611eb25780601f10611e8757610100808354040283529160200191611eb2565b820191906000526020600020905b815481529060010190602001808311611e9557829003601f168201915b5050505050905083565b6b204fce5e3e2502611000000081565b601b6020528060005260406000206000915090508060000154905081565b611ef2615ed5565b73ffffffffffffffffffffffffffffffffffffffff168173ffffffffffffffffffffffffffffffffffffffff1614611f56576040517f6697b23200000000000000000000000000000000000000000000000000000000815260040160405180910390fd5b611f6082826161f4565b505050565b7fadb22091b155738d2e889eb96f509d2a7c93234236b30400927feb4a6a15ab0081565b7fc10c77be35aff266144ed64c26a1fa104bae2f284ae99ac4a34203454704a18581565b60096020528060005260406000206000915090508060000154908060010160009054906101000a900473ffffffffffffffffffffffffffffffffffffffff16908060020160009054906101000a900473ffffffffffffffffffffffffffffffffffffffff169080600301805461202290618c29565b80601f016020809104026020016040519081016040528092919081815260200182805461204e90618c29565b801561209b5780601f106120705761010080835404028352916020019161209b565b820191906000526020600020905b81548152906001019060200180831161207e57829003601f168201915b5050505050908060040154908060050160009054906101000a900460ff16905086565b60606021600083815260200190815260200160002060040160009054906101000a900460ff16612123576040517f08c379a000000000000000000000000000000000000000000000000000000000815260040161211a9061913b565b60405180910390fd5b60216000838152602001908152602001600020600301805480602002602001604051908101604052809291908181526020016000905b8282101561233d578382906000526020600020906004020160405180608001604052908160008201548152602001600182015481526020016002820180546121a090618c29565b80601f01602080910402602001604051908101604052809291908181526020018280546121cc90618c29565b80156122195780601f106121ee57610100808354040283529160200191612219565b820191906000526020600020905b8154815290600101906020018083116121fc57829003601f168201915b5050505050815260200160038201805480602002602001604051908101604052809291908181526020016000905b82821015612326578382906000526020600020906002020160405180604001604052908160008201805461227a90618c29565b80601f01602080910402602001604051908101604052809291908181526020018280546122a690618c29565b80156122f35780601f106122c8576101008083540402835291602001916122f3565b820191906000526020600020905b8154815290600101906020018083116122d657829003601f168201915b505050505081526020016001820160009054906101000a900460ff16151515158152505081526020019060010190612247565b505050508152505081526020019060010190612159565b505050509050919050565b601e602052816000526040600020818154811061236457600080fd5b90600052602060002090600402016000915091505080600001549080600101549080600201805461239490618c29565b80601f01602080910402602001604051908101604052809291908181526020018280546123c090618c29565b801561240d5780601f106123e25761010080835404028352916020019161240d565b820191906000526020600020905b8154815290600101906020018083116123f057829003601f168201915b5050505050908060030160009054906101000a900460ff16905084565b602b818154811061243a57600080fd5b906000526020600020906004020160009150905080600001549080600101549080600201805461246990618c29565b80601f016020809104026020016040519081016040528092919081815260200182805461249590618c29565b80156124e25780601f106124b7576101008083540402835291602001916124e2565b820191906000526020600020905b8154815290600101906020018083116124c557829003601f168201915b5050505050905083565b7fdf1425bae297c2f52b4f15d18a50b1fc8cb5b981a981b1d213ed3ff92681b64d81565b7fc10c77be35aff266144ed64c26a1fa104bae2f284ae99ac4a34203454704a18561253a816160ee565b6125448c336162e7565b612583576040517f08c379a000000000000000000000000000000000000000000000000000000000815260040161257a906191cd565b60405180910390fd5b601a60008d815260200190815260200160002060003373ffffffffffffffffffffffffffffffffffffffff1673ffffffffffffffffffffffffffffffffffffffff168152602001908152602001600020600a0160009054906101000a900460ff1615612624576040517f08c379a000000000000000000000000000000000000000000000000000000000815260040161261b9061925f565b60405180910390fd5b6126368b8b8b8b8b8b8b8b8b8b6163b2565b6040518061016001604052808c81526020018b81526020018a815260200189815260200188815260200187815260200186815260200185815260200184815260200183815260200160011515815250601a60008e815260200190815260200160002060003373ffffffffffffffffffffffffffffffffffffffff1673ffffffffffffffffffffffffffffffffffffffff168152602001908152602001600020600082015181600001556020820151816001015560408201518160020155606082015181600301556080820151816004015560a0820151816005015560c0820151816006015560e082015181600701556101008201518160080155610120820151816009015561014082015181600a0160006101000a81548160ff02191690831515021790555090505060506127b9601a60008f815260200190815260200160002060003373ffffffffffffffffffffffffffffffffffffffff1673ffffffffffffffffffffffffffffffffffffffff168152602001908152602001600020616477565b106127c8576127c78c6130f0565b5b505050505050505050505050565b600281565b6000806016549050601f600085815260200190815260200160002060230160009054906101000a900460ff16612846576040517f08c379a000000000000000000000000000000000000000000000000000000000815260040161283d906192cb565b60405180910390fd5b6000602160008381526020019081526020016000209050848160000181905550818160010181905550838160020190816128809190618fd5565b5060018160040160006101000a81548160ff021916908315150217905550601660008154809291906128b1906190a7565b9190505550602a81908060018154018082558091505060019003906000526020600020906005020160009091909190915060008201548160000155600182015481600101556002820181600201908161290a9190619301565b506003820181600301908054612921929190616cfa565b506004820160009054906101000a900460ff168160040160006101000a81548160ff02191690831515021790555050508360405161295f9190619425565b6040518091039020827fbf27702cefbc4aea50d7c73cfee96f84f5b908f62aeafcd8b0aeae202c15050960405160405180910390a3819250505092915050565b60125481565b60606000601654905060008167ffffffffffffffff8111156129ca576129c961782c565b5b604051908082528060200260200182016040528015612a0357816020015b6129f0616d92565b8152602001906001900390816129e85790505b50905060005b82811015612d2c57602160008281526020019081526020016000206040518060a00160405290816000820154815260200160018201548152602001600282018054612a5390618c29565b80601f0160208091040260200160405190810160405280929190818152602001828054612a7f90618c29565b8015612acc5780601f10612aa157610100808354040283529160200191612acc565b820191906000526020600020905b815481529060010190602001808311612aaf57829003601f168201915b5050505050815260200160038201805480602002602001604051908101604052809291908181526020016000905b82821015612cde57838290600052602060002090600402016040518060800160405290816000820154815260200160018201548152602001600282018054612b4190618c29565b80601f0160208091040260200160405190810160405280929190818152602001828054612b6d90618c29565b8015612bba5780601f10612b8f57610100808354040283529160200191612bba565b820191906000526020600020905b815481529060010190602001808311612b9d57829003601f168201915b5050505050815260200160038201805480602002602001604051908101604052809291908181526020016000905b82821015612cc75783829060005260206000209060020201604051806040016040529081600082018054612c1b90618c29565b80601f0160208091040260200160405190810160405280929190818152602001828054612c4790618c29565b8015612c945780601f10612c6957610100808354040283529160200191612c94565b820191906000526020600020905b815481529060010190602001808311612c7757829003601f168201915b505050505081526020016001820160009054906101000a900460ff16151515158152505081526020019060010190612be8565b505050508152505081526020019060010190612afa565b5050505081526020016004820160009054906101000a900460ff161515151581525050828281518110612d1457612d13618bcb565b5b60200260200101819052508080600101915050612a09565b50809250505090565b60185481565b60268181548110612d4b57600080fd5b9060005260206000209060060201600091509050806000015490806001018054612d7490618c29565b80601f0160208091040260200160405190810160405280929190818152602001828054612da090618c29565b8015612ded5780601f10612dc257610100808354040283529160200191612ded565b820191906000526020600020905b815481529060010190602001808311612dd057829003601f168201915b505050505090806002018054612e0290618c29565b80601f0160208091040260200160405190810160405280929190818152602001828054612e2e90618c29565b8015612e7b5780601f10612e5057610100808354040283529160200191612e7b565b820191906000526020600020905b815481529060010190602001808311612e5e57829003601f168201915b5050505050908060030160009054906101000a900460ff16908060040154908060050160009054906101000a900473ffffffffffffffffffffffffffffffffffffffff16905086565b60008060008373ffffffffffffffffffffffffffffffffffffffff1673ffffffffffffffffffffffffffffffffffffffff168152602001908152602001600020549050919050565b7fc10c77be35aff266144ed64c26a1fa104bae2f284ae99ac4a34203454704a185612f36816160ee565b600860008373ffffffffffffffffffffffffffffffffffffffff1673ffffffffffffffffffffffffffffffffffffffff16815260200190815260200160002060009054906101000a900460ff1615612fc3576040517f08c379a0000000000000000000000000000000000000000000000000000000008152600401612fba90619488565b60405180910390fd5b612fed7fc10c77be35aff266144ed64c26a1fa104bae2f284ae99ac4a34203454704a18583616102565b506006829080600181540180825580915050600190039060005260206000200160009091909190916101000a81548173ffffffffffffffffffffffffffffffffffffffff021916908373ffffffffffffffffffffffffffffffffffffffff1602179055506001600860008473ffffffffffffffffffffffffffffffffffffffff1673ffffffffffffffffffffffffffffffffffffffff16815260200190815260200160002060006101000a81548160ff0219169083151502179055508173ffffffffffffffffffffffffffffffffffffffff167fe1cb5e1230cc02e62c60b81c1aa5ade512f3eac296edb28628b4cf344f47f93160405160405180910390a25050565b7fc10c77be35aff266144ed64c26a1fa104bae2f284ae99ac4a34203454704a18561311a816160ee565b60006019600084815260200190815260200160002090508060030160009054906101000a900460ff1615613183576040517f08c379a000000000000000000000000000000000000000000000000000000000815260040161317a906194f4565b60405180910390fd5b601c60003373ffffffffffffffffffffffffffffffffffffffff1673ffffffffffffffffffffffffffffffffffffffff168152602001908152602001600020600084815260200190815260200160002060009054906101000a900460ff1615613221576040517f08c379a000000000000000000000000000000000000000000000000000000000815260040161321890619586565b60405180910390fd5b6001601c60003373ffffffffffffffffffffffffffffffffffffffff1673ffffffffffffffffffffffffffffffffffffffff168152602001908152602001600020600085815260200190815260200160002060006101000a81548160ff02191690831515021790555080600401600081548092919061329f906190a7565b919050555060028160040154106133055760018160030160006101000a81548160ff0219169083151502179055506133038160050160009054906101000a900473ffffffffffffffffffffffffffffffffffffffff16674563918244f4000061650c565b505b505050565b60006015549050601d600085815260200190815260200160002060030160009054906101000a900460ff16613374576040517f08c379a000000000000000000000000000000000000000000000000000000000815260040161336b906195f2565b60405180910390fd5b6000601f60008381526020019081526020016000209050848160000181905550818160010181905550838160020190816133ae9190618fd5565b50828160030190816133c09190618fd5565b5060018160230160006101000a81548160ff021916908315150217905550600081602201819055506028601f6000848152602001908152602001600020908060018154018082558091505060019003906000526020600020906024020160009091909190915060008201548160000155600182015481600101556002820181600201908161344e9190619301565b50600382018160030190816134639190619301565b50600482018160040190600a61347a929190616dc3565b50602282015481602201556023820160009054906101000a900460ff168160230160006101000a81548160ff0219169083151502179055505050601560008154809291906134c7906190a7565b9190505550600a846040516134dc9190619425565b6040518091039020837f3387c3a40ec1df95e34d25a0e5564b40d01c331b71ccbafccccc66d36c84ad8360405160405180910390a45050505050565b60135481565b671bc16d674ec8000081565b602160205280600052604060002060009150905080600001549080600101549080600201805461355990618c29565b80601f016020809104026020016040519081016040528092919081815260200182805461358590618c29565b80156135d25780601f106135a7576101008083540402835291602001916135d2565b820191906000526020600020905b8154815290600101906020018083116135b557829003601f168201915b5050505050908060040160009054906101000a900460ff16905084565b7fc10c77be35aff266144ed64c26a1fa104bae2f284ae99ac4a34203454704a185613619816160ee565b6024600083815260200190815260200160002060009054906101000a900460ff161561367a576040517f08c379a00000000000000000000000000000000000000000000000000000000081526004016136719061965e565b60405180910390fd5b600360068054905010156136c3576040517f08c379a00000000000000000000000000000000000000000000000000000000081526004016136ba906196ca565b60405180910390fd5b6023600083815260200190815260200160002060006136e29190616e6d565b60005b60038110156138bf576000600680549050424460068054905085604051602001613712949392919061970b565b6040516020818303038152906040528051906020012060001c6137359190619759565b905060006006828154811061374d5761374c618bcb565b5b9060005260206000200160009054906101000a900473ffffffffffffffffffffffffffffffffffffffff1690506000805b6023600088815260200190815260200160002080549050811015613834578273ffffffffffffffffffffffffffffffffffffffff166023600089815260200190815260200160002082815481106137d8576137d7618bcb565b5b9060005260206000200160009054906101000a900473ffffffffffffffffffffffffffffffffffffffff1673ffffffffffffffffffffffffffffffffffffffff16036138275760019150613834565b808060010191505061377e565b50806138af5760236000878152602001908152602001600020829080600181540180825580915050600190039060005260206000200160009091909190916101000a81548173ffffffffffffffffffffffffffffffffffffffff021916908373ffffffffffffffffffffffffffffffffffffffff1602179055505b50505080806001019150506136e5565b50600360236000848152602001908152602001600020805490500361390b5760016024600084815260200190815260200160002060006101000a81548160ff0219169083151502179055505b817fe205dff861c570b8df17e26f893778853f94bb25d2de318755e48eab0b403ff76023600085815260200190815260200160002060405161394d9190619876565b60405180910390a25050565b60006005600084815260200190815260200160002060000160008373ffffffffffffffffffffffffffffffffffffffff1673ffffffffffffffffffffffffffffffffffffffff16815260200190815260200160002060009054906101000a900460ff16905092915050565b6060600480546139d390618c29565b80601f01602080910402602001604051908101604052809291908181526020018280546139ff90618c29565b8015613a4c5780601f10613a2157610100808354040283529160200191613a4c565b820191906000526020600020905b815481529060010190602001808311613a2f57829003601f168201915b5050505050905090565b60115481565b60236020528160005260406000208181548110613a7857600080fd5b906000526020600020016000915091509054906101000a900473ffffffffffffffffffffffffffffffffffffffff1681565b6000801b81565b60008073ffffffffffffffffffffffffffffffffffffffff1660196000601354815260200190815260200160002060050160009054906101000a900473ffffffffffffffffffffffffffffffffffffffff1673ffffffffffffffffffffffffffffffffffffffff1614613b59576040517f08c379a0000000000000000000000000000000000000000000000000000000008152600401613b50906198e4565b60405180910390fd5b60006040518060c001604052806013548152602001858152602001848152602001600015158152602001600081526020013373ffffffffffffffffffffffffffffffffffffffff16815250905080601960006013548152602001908152602001600020600082015181600001556020820151816001019081613bdb9190618fd5565b506040820151816002019081613bf19190618fd5565b5060608201518160030160006101000a81548160ff0219169083151502179055506080820151816004015560a08201518160050160006101000a81548173ffffffffffffffffffffffffffffffffffffffff021916908373ffffffffffffffffffffffffffffffffffffffff1602179055509050506026819080600181540180825580915050600190039060005260206000209060060201600090919091909150600082015181600001556020820151816001019081613cb19190618fd5565b506040820151816002019081613cc79190618fd5565b5060608201518160030160006101000a81548160ff0219169083151502179055506080820151816004015560a08201518160050160006101000a81548173ffffffffffffffffffffffffffffffffffffffff021916908373ffffffffffffffffffffffffffffffffffffffff160217905550505060126000815480929190613d4e906190a7565b91905055506001601b60003373ffffffffffffffffffffffffffffffffffffffff1673ffffffffffffffffffffffffffffffffffffffff1681526020019081526020016000206000016000828254613da69190619904565b9250508190555060136000815480929190613dc0906190a7565b9190505550613def7fadb22091b155738d2e889eb96f509d2a7c93234236b30400927feb4a6a15ab0033616102565b5083604051613dfe9190619425565b60405180910390206001601354613e159190619938565b7f9c93a42b217373d37e6c66ace0a67fe1fa1f78c93164b62417de69c48c0f67e2601960006001601354613e499190619938565b815260200190815260200160002060030160009054906101000a900460ff16604051613e7591906171d0565b60405180910390a3600191505092915050565b60606000602880549050905060008167ffffffffffffffff811115613eb057613eaf61782c565b5b604051908082528060200260200182016040528015613ee957816020015b613ed6616e8e565b815260200190600190039081613ece5790505b50905060005b828110156142575760288181548110613f0b57613f0a618bcb565b5b90600052602060002090602402016040518060e00160405290816000820154815260200160018201548152602001600282018054613f4890618c29565b80601f0160208091040260200160405190810160405280929190818152602001828054613f7490618c29565b8015613fc15780601f10613f9657610100808354040283529160200191613fc1565b820191906000526020600020905b815481529060010190602001808311613fa457829003601f168201915b50505050508152602001600382018054613fda90618c29565b80601f016020809104026020016040519081016040528092919081815260200182805461400690618c29565b80156140535780601f1061402857610100808354040283529160200191614053565b820191906000526020600020905b81548152906001019060200180831161403657829003601f168201915b5050505050815260200160048201600a80602002604051908101604052809291906000905b828210156141ff578382600302016040518060600160405290816000820160009054906101000a900460ff1660028111156140b6576140b5618310565b5b60028111156140c8576140c7618310565b5b81526020016001820180546140dc90618c29565b80601f016020809104026020016040519081016040528092919081815260200182805461410890618c29565b80156141555780601f1061412a57610100808354040283529160200191614155565b820191906000526020600020905b81548152906001019060200180831161413857829003601f168201915b5050505050815260200160028201805461416e90618c29565b80601f016020809104026020016040519081016040528092919081815260200182805461419a90618c29565b80156141e75780601f106141bc576101008083540402835291602001916141e7565b820191906000526020600020905b8154815290600101906020018083116141ca57829003601f168201915b50505050508152505081526020019060010190614078565b505050508152602001602282015481526020016023820160009054906101000a900460ff16151515158152505082828151811061423f5761423e618bcb565b5b60200260200101819052508080600101915050613eef565b50809250505090565b601d60205280600052604060002060009150905080600001549080600101549080600201805461428f90618c29565b80601f01602080910402602001604051908101604052809291908181526020018280546142bb90618c29565b80156143085780601f106142dd57610100808354040283529160200191614308565b820191906000526020600020905b8154815290600101906020018083116142eb57829003601f168201915b5050505050908060030160009054906101000a900460ff16905084565b61432d616d92565b6021600083815260200190815260200160002060040160009054906101000a900460ff16614390576040517f08c379a00000000000000000000000000000000000000000000000000000000081526004016143879061913b565b60405180910390fd5b602160008381526020019081526020016000206040518060a001604052908160008201548152602001600182015481526020016002820180546143d290618c29565b80601f01602080910402602001604051908101604052809291908181526020018280546143fe90618c29565b801561444b5780601f106144205761010080835404028352916020019161444b565b820191906000526020600020905b81548152906001019060200180831161442e57829003601f168201915b5050505050815260200160038201805480602002602001604051908101604052809291908181526020016000905b8282101561465d578382906000526020600020906004020160405180608001604052908160008201548152602001600182015481526020016002820180546144c090618c29565b80601f01602080910402602001604051908101604052809291908181526020018280546144ec90618c29565b80156145395780601f1061450e57610100808354040283529160200191614539565b820191906000526020600020905b81548152906001019060200180831161451c57829003601f168201915b5050505050815260200160038201805480602002602001604051908101604052809291908181526020016000905b82821015614646578382906000526020600020906002020160405180604001604052908160008201805461459a90618c29565b80601f01602080910402602001604051908101604052809291908181526020018280546145c690618c29565b80156146135780601f106145e857610100808354040283529160200191614613565b820191906000526020600020905b8154815290600101906020018083116145f657829003601f168201915b505050505081526020016001820160009054906101000a900460ff16151515158152505081526020019060010190614567565b505050508152505081526020019060010190614479565b5050505081526020016004820160009054906101000a900460ff1615151515815250509050919050565b600080614692615ed5565b905061469f818585615ffa565b600191505092915050565b6020805281600052604060002081815481106146c557600080fd5b906000526020600020016000915091505080546146e190618c29565b80601f016020809104026020016040519081016040528092919081815260200182805461470d90618c29565b801561475a5780601f1061472f5761010080835404028352916020019161475a565b820191906000526020600020905b81548152906001019060200180831161473d57829003601f168201915b505050505081565b6060601e6000838152602001908152602001600020805480602002602001604051908101604052809291908181526020016000905b8282101561488a578382906000526020600020906004020160405180608001604052908160008201548152602001600182015481526020016002820180546147de90618c29565b80601f016020809104026020016040519081016040528092919081815260200182805461480a90618c29565b80156148575780601f1061482c57610100808354040283529160200191614857565b820191906000526020600020905b81548152906001019060200180831161483a57829003601f168201915b505050505081526020016003820160009054906101000a900460ff16151515158152505081526020019060010190614797565b505050509050919050565b605081565b7fadb22091b155738d2e889eb96f509d2a7c93234236b30400927feb4a6a15ab006148c4816160ee565b6000601f600087815260200190815260200160002090508060230160009054906101000a900460ff1661492c576040517f08c379a0000000000000000000000000000000000000000000000000000000008152600401614923906199b8565b60405180910390fd5b600081602201549050600a85859050826149469190619904565b1115614987576040517f08c379a000000000000000000000000000000000000000000000000000000000815260040161497e90619a24565b60405180910390fd5b60005b85859050811015614b785760405180606001604052808787848181106149b3576149b2618bcb565b5b90506020028101906149c59190619a53565b60000160208101906149d79190619a7b565b60028111156149e9576149e8618310565b5b8152602001878784818110614a0157614a00618bcb565b5b9050602002810190614a139190619a53565b8060200190614a229190619aa8565b8080601f016020809104026020016040519081016040528093929190818152602001838380828437600081840152601f19601f820116905080830192505050505050508152602001878784818110614a7d57614a7c618bcb565b5b9050602002810190614a8f9190619a53565b8060400190614a9e9190619aa8565b8080601f016020809104026020016040519081016040528093929190818152602001838380828437600081840152601f19601f820116905080830192505050505050508152508360040183600a8110614afa57614af9618bcb565b5b6003020160008201518160000160006101000a81548160ff02191690836002811115614b2957614b28618310565b5b02179055506020820151816001019081614b439190618fd5565b506040820151816002019081614b599190618fd5565b509050508180614b68906190a7565b925050808060010191505061498a565b5080826022018190555060005b602880549050811015614c82578760288281548110614ba757614ba6618bcb565b5b90600052602060002090602402016001015403614c75578260288281548110614bd357614bd2618bcb565b5b9060005260206000209060240201600082015481600001556001820154816001015560028201816002019081614c099190619301565b5060038201816003019081614c1e9190619301565b50600482018160040190600a614c35929190616dc3565b50602282015481602201556023820160009054906101000a900460ff168160230160006101000a81548160ff021916908315150217905550905050614c82565b8080600101915050614b85565b5050505050505050565b7fdf1425bae297c2f52b4f15d18a50b1fc8cb5b981a981b1d213ed3ff92681b64d614cb6816160ee565b60006009600084815260200190815260200160002090508060050160009054906101000a900460ff1615614d1f576040517f08c379a0000000000000000000000000000000000000000000000000000000008152600401614d1690619b57565b60405180910390fd5b8060060160003373ffffffffffffffffffffffffffffffffffffffff1673ffffffffffffffffffffffffffffffffffffffff16815260200190815260200160002060009054906101000a900460ff1615614dae576040517f08c379a0000000000000000000000000000000000000000000000000000000008152600401614da590619bc3565b60405180910390fd5b60018160060160003373ffffffffffffffffffffffffffffffffffffffff1673ffffffffffffffffffffffffffffffffffffffff16815260200190815260200160002060006101000a81548160ff021916908315150217905550806004016000815480929190614e1d906190a7565b9190505550827f5d4ccf5f92566d140246f4ae3b9cb35dc06fff109a7748602ad77f6260fd9a6133604051614e5291906175c2565b60405180910390a26003816004015410614f865760008160020160009054906101000a900473ffffffffffffffffffffffffffffffffffffffff1673ffffffffffffffffffffffffffffffffffffffff1682600301604051614eb49190619c86565b6000604051808303816000865af19150503d8060008114614ef1576040519150601f19603f3d011682016040523d82523d6000602084013e614ef6565b606091505b5050905080614f3a576040517f08c379a0000000000000000000000000000000000000000000000000000000008152600401614f3190619ce9565b60405180910390fd5b60018260050160006101000a81548160ff021916908315150217905550837f7770356c29230b95943aec59d47ead11eb426a728bf5b57f7fd8597f3c0e29ba60405160405180910390a2505b505050565b601f602052806000526040600020600091509050806000015490806001015490806002018054614fba90618c29565b80601f0160208091040260200160405190810160405280929190818152602001828054614fe690618c29565b80156150335780601f1061500857610100808354040283529160200191615033565b820191906000526020600020905b81548152906001019060200180831161501657829003601f168201915b50505050509080600301805461504890618c29565b80601f016020809104026020016040519081016040528092919081815260200182805461507490618c29565b80156150c15780601f10615096576101008083540402835291602001916150c1565b820191906000526020600020905b8154815290600101906020018083116150a457829003601f168201915b5050505050908060220154908060230160009054906101000a900460ff16905086565b601a6020528160005260406000206020528060005260406000206000915091505080600001549080600101549080600201549080600301549080600401549080600501549080600601549080600701549080600801549080600901549080600a0160009054906101000a900460ff1690508b565b6060602360008381526020019081526020016000208054806020026020016040519081016040528092919081815260200182805480156151ed57602002820191906000526020600020905b8160009054906101000a900473ffffffffffffffffffffffffffffffffffffffff1673ffffffffffffffffffffffffffffffffffffffff16815260200190600101908083116151a3575b50505050509050919050565b60086020528060005260406000206000915054906101000a900460ff1681565b6000601154905090565b6027818154811061523357600080fd5b906000526020600020906004020160009150905080600001549080600101549080600201805461526290618c29565b80601f016020809104026020016040519081016040528092919081815260200182805461528e90618c29565b80156152db5780601f106152b0576101008083540402835291602001916152db565b820191906000526020600020905b8154815290600101906020018083116152be57829003601f168201915b5050505050908060030160009054906101000a900460ff16905084565b6000801b615305816160ee565b600860008373ffffffffffffffffffffffffffffffffffffffff1673ffffffffffffffffffffffffffffffffffffffff16815260200190815260200160002060009054906101000a900460ff16615391576040517f08c379a000000000000000000000000000000000000000000000000000000000815260040161538890619d55565b60405180910390fd5b60005b600680549050811015615517578273ffffffffffffffffffffffffffffffffffffffff16600682815481106153cc576153cb618bcb565b5b9060005260206000200160009054906101000a900473ffffffffffffffffffffffffffffffffffffffff1673ffffffffffffffffffffffffffffffffffffffff160361550a57600660016006805490506154269190619938565b8154811061543757615436618bcb565b5b9060005260206000200160009054906101000a900473ffffffffffffffffffffffffffffffffffffffff166006828154811061547657615475618bcb565b5b9060005260206000200160006101000a81548173ffffffffffffffffffffffffffffffffffffffff021916908373ffffffffffffffffffffffffffffffffffffffff16021790555060068054806154d0576154cf619d75565b5b6001900381819060005260206000200160006101000a81549073ffffffffffffffffffffffffffffffffffffffff02191690559055615517565b8080600101915050615394565b506000600860008473ffffffffffffffffffffffffffffffffffffffff1673ffffffffffffffffffffffffffffffffffffffff16815260200190815260200160002060006101000a81548160ff02191690831515021790555061559a7fc10c77be35aff266144ed64c26a1fa104bae2f284ae99ac4a34203454704a185836161f4565b508173ffffffffffffffffffffffffffffffffffffffff167f55dba9d79522b91b615629d5f3b10c2fad2d258f1768614f4a52e937ada0d0ba60405160405180910390a25050565b60256020528160005260406000206020528060005260406000206000915091509054906101000a900460ff1681565b6021600085815260200190815260200160002060040160009054906101000a900460ff16615674576040517f08c379a000000000000000000000000000000000000000000000000000000000815260040161566b9061913b565b60405180910390fd5b6000825111801561568757506004825111155b6156c6576040517f08c379a00000000000000000000000000000000000000000000000000000000081526004016156bd90619df0565b60405180910390fd5b81518160ff161061570c576040517f08c379a000000000000000000000000000000000000000000000000000000000815260040161570390619e5c565b60405180910390fd5b6000601754905060006022600083815260200190815260200160002090508581600001819055508181600101819055508481600201908161574d9190618fd5565b5060005b84518160ff1610156158175760006040518060400160405280878460ff16815181106157805761577f618bcb565b5b602002602001015181526020018660ff168460ff1614151581525090508260030181908060018154018082558091505060019003906000526020600020906002020160009091909190915060008201518160000190816157e09190618fd5565b5060208201518160010160006101000a81548160ff021916908315150217905550505050808061580f90619e7c565b915050615751565b50602160008781526020019081526020016000206003018190806001815401808255809150506001900390600052602060002090600402016000909190919091506000820154816000015560018201548160010155600282018160020190816158809190619301565b506003820181600301908054615897929190616ed3565b505050601760008154809291906158ad906190a7565b9190505550602b8190806001815401808255809150506001900390600052602060002090600402016000909190919091506000820154816000015560018201548160010155600282018160020190816159069190619301565b50600382018160030190805461591d929190616ed3565b5050507fa5bdacf4d1324fdd584bc65cf0315e4975d00b33a7ca0e6d0a73c88df8430b9586838760405161595393929190617ad5565b60405180910390a160005b84518160ff1610156159e5577f06ef0ba2ad58c9f8eef2fc98c08fd18d801c4a971eeb45afd07f0fee3f9d60c4838260ff1660185461599d9190619904565b878460ff16815181106159b3576159b2618bcb565b5b60200260200101516040516159ca93929190617ad5565b60405180910390a180806159dd90619e7c565b91505061595e565b508351601860008282546159f99190619904565b92505081905550505050505050565b615a118261171b565b615a1a816160ee565b615a2483836161f4565b50505050565b674563918244f4000081565b6000600160008473ffffffffffffffffffffffffffffffffffffffff1673ffffffffffffffffffffffffffffffffffffffff16815260200190815260200160002060008373ffffffffffffffffffffffffffffffffffffffff1673ffffffffffffffffffffffffffffffffffffffff16815260200190815260200160002054905092915050565b60298181548110615acd57600080fd5b90600052602060002090600302016000915090508060000160009054906101000a900460ff1690806001018054615b0390618c29565b80601f0160208091040260200160405190810160405280929190818152602001828054615b2f90618c29565b8015615b7c5780601f10615b5157610100808354040283529160200191615b7c565b820191906000526020600020905b815481529060010190602001808311615b5f57829003601f168201915b505050505090806002018054615b9190618c29565b80601f0160208091040260200160405190810160405280929190818152602001828054615bbd90618c29565b8015615c0a5780601f10615bdf57610100808354040283529160200191615c0a565b820191906000526020600020905b815481529060010190602001808311615bed57829003601f168201915b5050505050905083565b6000600b60000154905090565b60165481565b60175481565b6000615c37615eef565b6019600083815260200190815260200160002060030160009054906101000a900460ff16615c9a576040517f08c379a0000000000000000000000000000000000000000000000000000000008152600401615c9190619ef1565b60405180910390fd5b6025600083815260200190815260200160002060003373ffffffffffffffffffffffffffffffffffffffff1673ffffffffffffffffffffffffffffffffffffffff16815260200190815260200160002060009054906101000a900460ff1615615d38576040517f08c379a0000000000000000000000000000000000000000000000000000000008152600401615d2f90619f83565b60405180910390fd5b60016025600084815260200190815260200160002060003373ffffffffffffffffffffffffffffffffffffffff1673ffffffffffffffffffffffffffffffffffffffff16815260200190815260200160002060006101000a81548160ff021916908315150217905550615db333671bc16d674ec8000061650c565b503373ffffffffffffffffffffffffffffffffffffffff16827f4bf249f6b0ca5630ea4816c04b928b864a2065cb51658fd6223d83b727fd326b60405160405180910390a360019050615e04615f5c565b919050565b6000615e357fc10c77be35aff266144ed64c26a1fa104bae2f284ae99ac4a34203454704a18583613959565b9050919050565b601c6020528160005260406000206020528060005260406000206000915091509054906101000a900460ff1681565b60007f01ffc9a7000000000000000000000000000000000000000000000000000000007bffffffffffffffffffffffffffffffffffffffffffffffffffffffff1916827bffffffffffffffffffffffffffffffffffffffffffffffffffffffff1916149050919050565b600033905090565b615eea83838360016165f9565b505050565b6002600a5403615f2b576040517f3ee5aeb500000000000000000000000000000000000000000000000000000000815260040160405180910390fd5b6002600a81905550565b615f3f82826167d0565b8060116000828254615f519190619938565b925050819055505050565b6001600a81905550565b6000615f728484615a36565b90507fffffffffffffffffffffffffffffffffffffffffffffffffffffffffffffffff8114615ff45781811015615fe4578281836040517ffb8f41b2000000000000000000000000000000000000000000000000000000008152600401615fdb93929190619fa3565b60405180910390fd5b615ff3848484840360006165f9565b5b50505050565b600073ffffffffffffffffffffffffffffffffffffffff168373ffffffffffffffffffffffffffffffffffffffff160361606c5760006040517f96c6fd1e00000000000000000000000000000000000000000000000000000000815260040161606391906175c2565b60405180910390fd5b600073ffffffffffffffffffffffffffffffffffffffff168273ffffffffffffffffffffffffffffffffffffffff16036160de5760006040517fec442f050000000000000000000000000000000000000000000000000000000081526004016160d591906175c2565b60405180910390fd5b6160e9838383616877565b505050565b6160ff816160fa615ed5565b616a9c565b50565b600061610e8383613959565b6161e95760016005600085815260200190815260200160002060000160008473ffffffffffffffffffffffffffffffffffffffff1673ffffffffffffffffffffffffffffffffffffffff16815260200190815260200160002060006101000a81548160ff021916908315150217905550616186615ed5565b73ffffffffffffffffffffffffffffffffffffffff168273ffffffffffffffffffffffffffffffffffffffff16847f2f8788117e7eff1d82e926ec794901d17c78024a50270940304540a733656f0d60405160405180910390a4600190506161ee565b600090505b92915050565b60006162008383613959565b156162dc5760006005600085815260200190815260200160002060000160008473ffffffffffffffffffffffffffffffffffffffff1673ffffffffffffffffffffffffffffffffffffffff16815260200190815260200160002060006101000a81548160ff021916908315150217905550616279615ed5565b73ffffffffffffffffffffffffffffffffffffffff168273ffffffffffffffffffffffffffffffffffffffff16847ff6391f5c32d9c69d2a47ea670b442974b53935d1edc7fd64eb21e047a839171b60405160405180910390a4600190506162e1565b600090505b92915050565b600080600090505b60236000858152602001908152602001600020805490508110156163a6578273ffffffffffffffffffffffffffffffffffffffff1660236000868152602001908152602001600020828154811061634957616348618bcb565b5b9060005260206000200160009054906101000a900473ffffffffffffffffffffffffffffffffffffffff1673ffffffffffffffffffffffffffffffffffffffff16036163995760019150506163ac565b80806001019150506162ef565b50600090505b92915050565b600a8a111580156163c45750600a8911155b80156163d15750600a8811155b80156163de5750600a8711155b80156163eb5750600a8611155b80156163f85750600a8511155b80156164055750600a8411155b80156164125750600a8311155b801561641f5750600a8211155b801561642c5750600a8111155b61646b576040517f08c379a00000000000000000000000000000000000000000000000000000000081526004016164629061a026565b60405180910390fd5b50505050505050505050565b60008160090154826008015483600701548460060154856005015486600401548760030154886002015489600101548a600001546164b59190619904565b6164bf9190619904565b6164c99190619904565b6164d39190619904565b6164dd9190619904565b6164e79190619904565b6164f19190619904565b6164fb9190619904565b6165059190619904565b9050919050565b60006064600f6b204fce5e3e250261100000006165299190618d1b565b6165339190618d8c565b61653b615219565b836165469190619904565b1115616587576040517f08c379a000000000000000000000000000000000000000000000000000000000815260040161657e9061a092565b60405180910390fd5b6165918383616aed565b5081601160008282546165a49190619904565b92505081905550818373ffffffffffffffffffffffffffffffffffffffff167fad6ef58d5c294f81258965738e7ae511124139834a8d0b8f8f7327086c82052a60405160405180910390a36001905092915050565b600073ffffffffffffffffffffffffffffffffffffffff168473ffffffffffffffffffffffffffffffffffffffff160361666b5760006040517fe602df0500000000000000000000000000000000000000000000000000000000815260040161666291906175c2565b60405180910390fd5b600073ffffffffffffffffffffffffffffffffffffffff168373ffffffffffffffffffffffffffffffffffffffff16036166dd5760006040517f94280d620000000000000000000000000000000000000000000000000000000081526004016166d491906175c2565b60405180910390fd5b81600160008673ffffffffffffffffffffffffffffffffffffffff1673ffffffffffffffffffffffffffffffffffffffff16815260200190815260200160002060008573ffffffffffffffffffffffffffffffffffffffff1673ffffffffffffffffffffffffffffffffffffffff1681526020019081526020016000208190555080156167ca578273ffffffffffffffffffffffffffffffffffffffff168473ffffffffffffffffffffffffffffffffffffffff167f8c5be1e5ebec7d5bd14f71427d1e84f3dd0314c0f7b2291e5b200ac8c7c3b925846040516167c19190617467565b60405180910390a35b50505050565b806167da83612ec4565b101561681b576040517f08c379a00000000000000000000000000000000000000000000000000000000081526004016168129061a0fe565b60405180910390fd5b6168258282616ba8565b8173ffffffffffffffffffffffffffffffffffffffff167f5b5d8478b570a79ab6b3bf13ff029fba19c02ab0d54d692d4ef0d9052d5cc8508260405161686b9190617467565b60405180910390a25050565b600073ffffffffffffffffffffffffffffffffffffffff168373ffffffffffffffffffffffffffffffffffffffff16036168c95780600260008282546168bd9190619904565b9250508190555061699c565b60008060008573ffffffffffffffffffffffffffffffffffffffff1673ffffffffffffffffffffffffffffffffffffffff16815260200190815260200160002054905081811015616955578381836040517fe450d38c00000000000000000000000000000000000000000000000000000000815260040161694c93929190619fa3565b60405180910390fd5b8181036000808673ffffffffffffffffffffffffffffffffffffffff1673ffffffffffffffffffffffffffffffffffffffff16815260200190815260200160002081905550505b600073ffffffffffffffffffffffffffffffffffffffff168273ffffffffffffffffffffffffffffffffffffffff16036169e55780600260008282540392505081905550616a32565b806000808473ffffffffffffffffffffffffffffffffffffffff1673ffffffffffffffffffffffffffffffffffffffff168152602001908152602001600020600082825401925050819055505b8173ffffffffffffffffffffffffffffffffffffffff168373ffffffffffffffffffffffffffffffffffffffff167fddf252ad1be2c89b69c2b068fc378daa952ba7f163c4a11628f55a4df523b3ef83604051616a8f9190617467565b60405180910390a3505050565b616aa68282613959565b616ae95780826040517fe2517d3f000000000000000000000000000000000000000000000000000000008152600401616ae092919061a11e565b60405180910390fd5b5050565b60006b204fce5e3e25026110000000616b0461152c565b83616b0f9190619904565b1115616b50576040517f08c379a0000000000000000000000000000000000000000000000000000000008152600401616b479061a092565b60405180910390fd5b616b5a8383616c2a565b818373ffffffffffffffffffffffffffffffffffffffff167fcda531bfd68624f13205c0a23cd4d5a7f09792cbb399603114f2b04aaa1bf5cf60405160405180910390a36001905092915050565b600073ffffffffffffffffffffffffffffffffffffffff168273ffffffffffffffffffffffffffffffffffffffff1603616c1a5760006040517f96c6fd1e000000000000000000000000000000000000000000000000000000008152600401616c1191906175c2565b60405180910390fd5b616c2682600083616877565b5050565b600073ffffffffffffffffffffffffffffffffffffffff168273ffffffffffffffffffffffffffffffffffffffff1603616c9c5760006040517fec442f05000000000000000000000000000000000000000000000000000000008152600401616c9391906175c2565b60405180910390fd5b616ca860008383616877565b5050565b6040518060c0016040528060008152602001606081526020016060815260200160001515815260200160008152602001600073ffffffffffffffffffffffffffffffffffffffff1681525090565b828054828255906000526020600020906004028101928215616d815760005260206000209160040282015b82811115616d80578282600082015481600001556001820154816001015560028201816002019081616d579190619301565b506003820181600301908054616d6e929190616ed3565b50505091600401919060040190616d25565b5b509050616d8e9190616f6d565b5090565b6040518060a00160405280600081526020016000815260200160608152602001606081526020016000151581525090565b82600a6003028101928215616e5c579160030282015b82811115616e5b5782826000820160009054906101000a900460ff168160000160006101000a81548160ff02191690836002811115616e1b57616e1a618310565b5b021790555060018201816001019081616e349190619301565b5060028201816002019081616e499190619301565b50505091600301919060030190616dd9565b5b509050616e699190616fb4565b5090565b5080546000825590600052602060002090810190616e8b9190616fff565b50565b6040518060e0016040528060008152602001600081526020016060815260200160608152602001616ebd61701c565b8152602001600081526020016000151581525090565b828054828255906000526020600020906002028101928215616f5c5760005260206000209160020282015b82811115616f5b57828260008201816000019081616f1c9190619301565b506001820160009054906101000a900460ff168160010160006101000a81548160ff021916908315150217905550505091600201919060020190616efe565b5b509050616f69919061704a565b5090565b5b80821115616fb0576000808201600090556001820160009055600282016000616f979190617085565b600382016000616fa791906170c5565b50600401616f6e565b5090565b5b80821115616ffb57600080820160006101000a81549060ff0219169055600182016000616fe29190617085565b600282016000616ff29190617085565b50600301616fb5565b5090565b5b80821115617018576000816000905550600101617000565b5090565b604051806101400160405280600a905b6170346170e9565b81526020019060019003908161702c5790505090565b5b8082111561708157600080820160006170649190617085565b6001820160006101000a81549060ff02191690555060020161704b565b5090565b50805461709190618c29565b6000825580601f106170a357506170c2565b601f0160209004906000526020600020908101906170c19190616fff565b5b50565b50805460008255600202906000526020600020908101906170e6919061704a565b50565b60405180606001604052806000600281111561710857617107618310565b5b815260200160608152602001606081525090565b6000604051905090565b600080fd5b600080fd5b60007fffffffff0000000000000000000000000000000000000000000000000000000082169050919050565b61716581617130565b811461717057600080fd5b50565b6000813590506171828161715c565b92915050565b60006020828403121561719e5761719d617126565b5b60006171ac84828501617173565b91505092915050565b60008115159050919050565b6171ca816171b5565b82525050565b60006020820190506171e560008301846171c1565b92915050565b600081519050919050565b600082825260208201905092915050565b6000819050602082019050919050565b6000819050919050565b61722a81617217565b82525050565b600081519050919050565b600082825260208201905092915050565b60005b8381101561726a57808201518184015260208101905061724f565b60008484015250505050565b6000601f19601f8301169050919050565b600061729282617230565b61729c818561723b565b93506172ac81856020860161724c565b6172b581617276565b840191505092915050565b6172c9816171b5565b82525050565b600073ffffffffffffffffffffffffffffffffffffffff82169050919050565b60006172fa826172cf565b9050919050565b61730a816172ef565b82525050565b600060c0830160008301516173286000860182617221565b50602083015184820360208601526173408282617287565b9150506040830151848203604086015261735a8282617287565b915050606083015161736f60608601826172c0565b5060808301516173826080860182617221565b5060a083015161739560a0860182617301565b508091505092915050565b60006173ac8383617310565b905092915050565b6000602082019050919050565b60006173cc826171eb565b6173d681856171f6565b9350836020820285016173e885617207565b8060005b85811015617424578484038952815161740585826173a0565b9450617410836173b4565b925060208a019950506001810190506173ec565b50829750879550505050505092915050565b6000602082019050818103600083015261745081846173c1565b905092915050565b61746181617217565b82525050565b600060208201905061747c6000830184617458565b92915050565b600082825260208201905092915050565b600061749e82617230565b6174a88185617482565b93506174b881856020860161724c565b6174c181617276565b840191505092915050565b600060208201905081810360008301526174e68184617493565b905092915050565b6174f7816172ef565b811461750257600080fd5b50565b600081359050617514816174ee565b92915050565b61752381617217565b811461752e57600080fd5b50565b6000813590506175408161751a565b92915050565b6000806040838503121561755d5761755c617126565b5b600061756b85828601617505565b925050602061757c85828601617531565b9150509250929050565b60006020828403121561759c5761759b617126565b5b60006175aa84828501617531565b91505092915050565b6175bc816172ef565b82525050565b60006020820190506175d760008301846175b3565b92915050565b6000806000606084860312156175f6576175f5617126565b5b600061760486828701617505565b935050602061761586828701617505565b925050604061762686828701617531565b9150509250925092565b6000819050919050565b61764381617630565b811461764e57600080fd5b50565b6000813590506176608161763a565b92915050565b60006020828403121561767c5761767b617126565b5b600061768a84828501617651565b91505092915050565b61769c81617630565b82525050565b60006020820190506176b76000830184617693565b92915050565b60006080820190506176d26000830187617458565b6176df6020830186617458565b81810360408301526176f18185617493565b905061770060608301846171c1565b95945050505050565b600060c08201905061771e6000830189617458565b81810360208301526177308188617493565b905081810360408301526177448187617493565b905061775360608301866171c1565b6177606080830185617458565b61776d60a08301846175b3565b979650505050505050565b600060c08201905061778d6000830189617458565b61779a6020830188617458565b81810360408301526177ac8187617493565b905081810360608301526177c08186617493565b90506177cf6080830185617458565b6177dc60a08301846171c1565b979650505050505050565b600080604083850312156177fe576177fd617126565b5b600061780c85828601617651565b925050602061781d85828601617505565b9150509250929050565b600080fd5b7f4e487b7100000000000000000000000000000000000000000000000000000000600052604160045260246000fd5b61786482617276565b810181811067ffffffffffffffff821117156178835761788261782c565b5b80604052505050565b600061789661711c565b90506178a2828261785b565b919050565b600067ffffffffffffffff8211156178c2576178c161782c565b5b602082029050602081019050919050565b600080fd5b600080fd5b600067ffffffffffffffff8211156178f8576178f761782c565b5b61790182617276565b9050602081019050919050565b82818337600083830152505050565b600061793061792b846178dd565b61788c565b90508281526020810184848401111561794c5761794b6178d8565b5b61795784828561790e565b509392505050565b600082601f83011261797457617973617827565b5b813561798484826020860161791d565b91505092915050565b60006179a061799b846178a7565b61788c565b905080838252602082019050602084028301858111156179c3576179c26178d3565b5b835b81811015617a0a57803567ffffffffffffffff8111156179e8576179e7617827565b5b8086016179f5898261795f565b855260208501945050506020810190506179c5565b5050509392505050565b600082601f830112617a2957617a28617827565b5b8135617a3984826020860161798d565b91505092915050565b60008060408385031215617a5957617a58617126565b5b6000617a6785828601617531565b925050602083013567ffffffffffffffff811115617a8857617a8761712b565b5b617a9485828601617a14565b9150509250929050565b600060ff82169050919050565b617ab481617a9e565b82525050565b6000602082019050617acf6000830184617aab565b92915050565b6000606082019050617aea6000830186617458565b617af76020830185617458565b8181036040830152617b098184617493565b9050949350505050565b600060208284031215617b2957617b28617126565b5b6000617b3784828501617505565b91505092915050565b600081519050919050565b600082825260208201905092915050565b6000617b6782617b40565b617b718185617b4b565b9350617b8181856020860161724c565b617b8a81617276565b840191505092915050565b600060c082019050617baa6000830189617458565b617bb760208301886175b3565b617bc460408301876175b3565b8181036060830152617bd68186617b5c565b9050617be56080830185617458565b617bf260a08301846171c1565b979650505050505050565b600081519050919050565b600082825260208201905092915050565b6000819050602082019050919050565b600081519050919050565b600082825260208201905092915050565b6000819050602082019050919050565b60006040830160008301518482036000860152617c728282617287565b9150506020830151617c8760208601826172c0565b508091505092915050565b6000617c9e8383617c55565b905092915050565b6000602082019050919050565b6000617cbe82617c29565b617cc88185617c34565b935083602082028501617cda85617c45565b8060005b85811015617d165784840389528151617cf78582617c92565b9450617d0283617ca6565b925060208a01995050600181019050617cde565b50829750879550505050505092915050565b6000608083016000830151617d406000860182617221565b506020830151617d536020860182617221565b5060408301518482036040860152617d6b8282617287565b91505060608301518482036060860152617d858282617cb3565b9150508091505092915050565b6000617d9e8383617d28565b905092915050565b6000602082019050919050565b6000617dbe82617bfd565b617dc88185617c08565b935083602082028501617dda85617c19565b8060005b85811015617e165784840389528151617df78582617d92565b9450617e0283617da6565b925060208a01995050600181019050617dde565b50829750879550505050505092915050565b60006020820190508181036000830152617e428184617db3565b905092915050565b60008060408385031215617e6157617e60617126565b5b6000617e6f85828601617531565b9250506020617e8085828601617531565b9150509250929050565b60008060008060008060008060008060006101608c8e031215617eb057617eaf617126565b5b6000617ebe8e828f01617531565b9b50506020617ecf8e828f01617531565b9a50506040617ee08e828f01617531565b9950506060617ef18e828f01617531565b9850506080617f028e828f01617531565b97505060a0617f138e828f01617531565b96505060c0617f248e828f01617531565b95505060e0617f358e828f01617531565b945050610100617f478e828f01617531565b935050610120617f598e828f01617531565b925050610140617f6b8e828f01617531565b9150509295989b509295989b9093969950565b60008060408385031215617f9557617f94617126565b5b6000617fa385828601617531565b925050602083013567ffffffffffffffff811115617fc457617fc361712b565b5b617fd08582860161795f565b9150509250929050565b600081519050919050565b600082825260208201905092915050565b6000819050602082019050919050565b600082825260208201905092915050565b600061802282617bfd565b61802c8185618006565b93508360208202850161803e85617c19565b8060005b8581101561807a578484038952815161805b8582617d92565b945061806683617da6565b925060208a01995050600181019050618042565b50829750879550505050505092915050565b600060a0830160008301516180a46000860182617221565b5060208301516180b76020860182617221565b50604083015184820360408601526180cf8282617287565b915050606083015184820360608601526180e98282618017565b91505060808301516180fe60808601826172c0565b508091505092915050565b6000618115838361808c565b905092915050565b6000602082019050919050565b600061813582617fda565b61813f8185617fe5565b93508360208202850161815185617ff6565b8060005b8581101561818d578484038952815161816e8582618109565b94506181798361811d565b925060208a01995050600181019050618155565b50829750879550505050505092915050565b600060208201905081810360008301526181b9818461812a565b905092915050565b6000806000606084860312156181da576181d9617126565b5b60006181e886828701617531565b935050602084013567ffffffffffffffff8111156182095761820861712b565b5b6182158682870161795f565b925050604084013567ffffffffffffffff8111156182365761823561712b565b5b6182428682870161795f565b9150509250925092565b6000806040838503121561826357618262617126565b5b600083013567ffffffffffffffff8111156182815761828061712b565b5b61828d8582860161795f565b925050602083013567ffffffffffffffff8111156182ae576182ad61712b565b5b6182ba8582860161795f565b9150509250929050565b600081519050919050565b600082825260208201905092915050565b6000819050602082019050919050565b6000600a9050919050565b600081905092915050565b6000819050919050565b7f4e487b7100000000000000000000000000000000000000000000000000000000600052602160045260246000fd5b600381106183505761834f618310565b5b50565b60008190506183618261833f565b919050565b600061837182618353565b9050919050565b61838181618366565b82525050565b600060608301600083015161839f6000860182618378565b50602083015184820360208601526183b78282617287565b915050604083015184820360408601526183d18282617287565b9150508091505092915050565b60006183ea8383618387565b905092915050565b6000602082019050919050565b600061840a826182f0565b61841481856182fb565b93508360208202850161842685618306565b8060005b85811015618462578484038952815161844385826183de565b945061844e836183f2565b925060208a0199505060018101905061842a565b50829750879550505050505092915050565b600060e08301600083015161848c6000860182617221565b50602083015161849f6020860182617221565b50604083015184820360408601526184b78282617287565b915050606083015184820360608601526184d18282617287565b915050608083015184820360808601526184eb82826183ff565b91505060a083015161850060a0860182617221565b5060c083015161851360c08601826172c0565b508091505092915050565b600061852a8383618474565b905092915050565b6000602082019050919050565b600061854a826182c4565b61855481856182cf565b935083602082028501618566856182e0565b8060005b858110156185a25784840389528151618583858261851e565b945061858e83618532565b925060208a0199505060018101905061856a565b50829750879550505050505092915050565b600060208201905081810360008301526185ce818461853f565b905092915050565b600060a0830160008301516185ee6000860182617221565b5060208301516186016020860182617221565b50604083015184820360408601526186198282617287565b915050606083015184820360608601526186338282618017565b915050608083015161864860808601826172c0565b508091505092915050565b6000602082019050818103600083015261866d81846185d6565b905092915050565b600081519050919050565b600082825260208201905092915050565b6000819050602082019050919050565b60006080830160008301516186b96000860182617221565b5060208301516186cc6020860182617221565b50604083015184820360408601526186e48282617287565b91505060608301516186f960608601826172c0565b508091505092915050565b600061871083836186a1565b905092915050565b6000602082019050919050565b600061873082618675565b61873a8185618680565b93508360208202850161874c85618691565b8060005b8581101561878857848403895281516187698582618704565b945061877483618718565b925060208a01995050600181019050618750565b50829750879550505050505092915050565b600060208201905081810360008301526187b48184618725565b905092915050565b600381106187c957600080fd5b50565b6000813590506187db816187bc565b92915050565b600080fd5b60008083601f8401126187fc576187fb617827565b5b8235905067ffffffffffffffff811115618819576188186187e1565b5b602083019150836020820283011115618835576188346178d3565b5b9250929050565b6000806000806060858703121561885657618855617126565b5b600061886487828801617531565b9450506020618875878288016187cc565b935050604085013567ffffffffffffffff8111156188965761889561712b565b5b6188a2878288016187e6565b925092505092959194509250565b600080604083850312156188c7576188c6617126565b5b60006188d585828601617531565b92505060206188e685828601617505565b9150509250929050565b600061016082019050618906600083018e617458565b618913602083018d617458565b618920604083018c617458565b61892d606083018b617458565b61893a608083018a617458565b61894760a0830189617458565b61895460c0830188617458565b61896160e0830187617458565b61896f610100830186617458565b61897d610120830185617458565b61898b6101408301846171c1565b9c9b505050505050505050505050565b600081519050919050565b600082825260208201905092915050565b6000819050602082019050919050565b60006189d38383617301565b60208301905092915050565b6000602082019050919050565b60006189f78261899b565b618a0181856189a6565b9350618a0c836189b7565b8060005b83811015618a3d578151618a2488826189c7565b9750618a2f836189df565b925050600181019050618a10565b5085935050505092915050565b60006020820190508181036000830152618a6481846189ec565b905092915050565b618a7581617a9e565b8114618a8057600080fd5b50565b600081359050618a9281618a6c565b92915050565b60008060008060808587031215618ab257618ab1617126565b5b6000618ac087828801617531565b945050602085013567ffffffffffffffff811115618ae157618ae061712b565b5b618aed8782880161795f565b935050604085013567ffffffffffffffff811115618b0e57618b0d61712b565b5b618b1a87828801617a14565b9250506060618b2b87828801618a83565b91505092959194509250565b60008060408385031215618b4e57618b4d617126565b5b6000618b5c85828601617505565b9250506020618b6d85828601617505565b9150509250929050565b618b8081618366565b82525050565b6000606082019050618b9b6000830186618b77565b8181036020830152618bad8185617493565b90508181036040830152618bc18184617493565b9050949350505050565b7f4e487b7100000000000000000000000000000000000000000000000000000000600052603260045260246000fd5b7f4e487b7100000000000000000000000000000000000000000000000000000000600052602260045260246000fd5b60006002820490506001821680618c4157607f821691505b602082108103618c5457618c53618bfa565b5b50919050565b7f596f7520617265206e6f7420656e726f6c6c656420696e207468697320636f7560008201527f7273652100000000000000000000000000000000000000000000000000000000602082015250565b6000618cb6602483617482565b9150618cc182618c5a565b604082019050919050565b60006020820190508181036000830152618ce581618ca9565b9050919050565b7f4e487b7100000000000000000000000000000000000000000000000000000000600052601160045260246000fd5b6000618d2682617217565b9150618d3183617217565b9250828202618d3f81617217565b91508282048414831517618d5657618d55618cec565b5b5092915050565b7f4e487b7100000000000000000000000000000000000000000000000000000000600052601260045260246000fd5b6000618d9782617217565b9150618da283617217565b925082618db257618db1618d5d565b5b828204905092915050565b7f436f7572736520646f6573206e6f742065786973742100000000000000000000600082015250565b6000618df3601683617482565b9150618dfe82618dbd565b602082019050919050565b60006020820190508181036000830152618e2281618de6565b9050919050565b60008190508160005260206000209050919050565b60006020601f8301049050919050565b600082821b905092915050565b600060088302618e8b7fffffffffffffffffffffffffffffffffffffffffffffffffffffffffffffffff82618e4e565b618e958683618e4e565b95508019841693508086168417925050509392505050565b6000819050919050565b6000618ed2618ecd618ec884617217565b618ead565b617217565b9050919050565b6000819050919050565b618eec83618eb7565b618f00618ef882618ed9565b848454618e5b565b825550505050565b600090565b618f15618f08565b618f20818484618ee3565b505050565b5b81811015618f4457618f39600082618f0d565b600181019050618f26565b5050565b601f821115618f8957618f5a81618e29565b618f6384618e3e565b81016020851015618f72578190505b618f86618f7e85618e3e565b830182618f25565b50505b505050565b600082821c905092915050565b6000618fac60001984600802618f8e565b1980831691505092915050565b6000618fc58383618f9b565b9150826002028217905092915050565b618fde82617230565b67ffffffffffffffff811115618ff757618ff661782c565b5b6190018254618c29565b61900c828285618f48565b600060209050601f83116001811461903f576000841561902d578287015190505b6190378582618fb9565b86555061909f565b601f19841661904d86618e29565b60005b8281101561907557848901518255600182019150602085019450602081019050619050565b86831015619092578489015161908e601f891682618f9b565b8355505b6001600288020188555050505b505050505050565b60006190b282617217565b91507fffffffffffffffffffffffffffffffffffffffffffffffffffffffffffffffff82036190e4576190e3618cec565b5b600182019050919050565b7f5175697a20646f6573206e6f7420657869737400000000000000000000000000600082015250565b6000619125601383617482565b9150619130826190ef565b602082019050919050565b6000602082019050818103600083015261915481619118565b9050919050565b7f4e6f742073656c6563746564206173206120726576696577657220666f72207460008201527f68697320636f7572736500000000000000000000000000000000000000000000602082015250565b60006191b7602a83617482565b91506191c28261915b565b604082019050919050565b600060208201905081810360008301526191e6816191aa565b9050919050565b7f52657669657720616c7265616479207375626d6974746564206279207468697360008201527f2072657669657765722e00000000000000000000000000000000000000000000602082015250565b6000619249602a83617482565b9150619254826191ed565b604082019050919050565b600060208201905081810360008301526192788161923c565b9050919050565b7f4c6573736f6e20446f6573206e6f742065786973742100000000000000000000600082015250565b60006192b5601683617482565b91506192c08261927f565b602082019050919050565b600060208201905081810360008301526192e4816192a8565b9050919050565b6000815490506192fa81618c29565b9050919050565b81810361930f5750506193e7565b619318826192eb565b67ffffffffffffffff8111156193315761933061782c565b5b61933b8254618c29565b619346828285618f48565b6000601f8311600181146193755760008415619363578287015490505b61936d8582618fb9565b8655506193e0565b601f19841661938387618e29565b965061938e86618e29565b60005b828110156193b657848901548255600182019150600185019450602081019050619391565b868310156193d357848901546193cf601f891682618f9b565b8355505b6001600288020188555050505b5050505050505b565b600081905092915050565b60006193ff82617230565b61940981856193e9565b935061941981856020860161724c565b80840191505092915050565b600061943182846193f4565b915081905092915050565b7f416c726561647920696e20726576696577657220706f6f6c0000000000000000600082015250565b6000619472601883617482565b915061947d8261943c565b602082019050919050565b600060208201905081810360008301526194a181619465565b9050919050565b7f436f7572736520616c726561647920617070726f766564000000000000000000600082015250565b60006194de601783617482565b91506194e9826194a8565b602082019050919050565b6000602082019050818103600083015261950d816194d1565b9050919050565b7f596f75206861766520616c726561647920617070726f7665642074686973206360008201527f6f75727365000000000000000000000000000000000000000000000000000000602082015250565b6000619570602583617482565b915061957b82619514565b604082019050919050565b6000602082019050818103600083015261959f81619563565b9050919050565b7f4368617074657220646f6573206e6f7420657869737421000000000000000000600082015250565b60006195dc601783617482565b91506195e7826195a6565b602082019050919050565b6000602082019050818103600083015261960b816195cf565b9050919050565b7f52657669657765727320616c72656164792073656c6563746564000000000000600082015250565b6000619648601a83617482565b915061965382619612565b602082019050919050565b600060208201905081810360008301526196778161963b565b9050919050565b7f4e6f7420656e6f7567682072657669657765727320696e2074686520706f6f6c600082015250565b60006196b4602083617482565b91506196bf8261967e565b602082019050919050565b600060208201905081810360008301526196e3816196a7565b9050919050565b6000819050919050565b61970561970082617217565b6196ea565b82525050565b600061971782876196f4565b60208201915061972782866196f4565b60208201915061973782856196f4565b60208201915061974782846196f4565b60208201915081905095945050505050565b600061976482617217565b915061976f83617217565b92508261977f5761977e618d5d565b5b828206905092915050565b600081549050919050565b60008190508160005260206000209050919050565b60008160001c9050919050565b600073ffffffffffffffffffffffffffffffffffffffff82169050919050565b60006197ea6197e5836197aa565b6197b7565b9050919050565b60006197fd82546197d7565b9050919050565b6000600182019050919050565b600061981c8261978a565b61982681856189a6565b935061983183619795565b8060005b8381101561986957619846826197f1565b61985088826189c7565b975061985b83619804565b925050600181019050619835565b5085935050505092915050565b600060208201905081810360008301526198908184619811565b905092915050565b7f436f7572736520494420616c7265616479206578697374730000000000000000600082015250565b60006198ce601883617482565b91506198d982619898565b602082019050919050565b600060208201905081810360008301526198fd816198c1565b9050919050565b600061990f82617217565b915061991a83617217565b925082820190508082111561993257619931618cec565b5b92915050565b600061994382617217565b915061994e83617217565b925082820390508181111561996657619965618cec565b5b92915050565b7f4c6573736f6e20646f6573206e6f742065786973742100000000000000000000600082015250565b60006199a2601683617482565b91506199ad8261996c565b602082019050919050565b600060208201905081810360008301526199d181619995565b9050919050565b7f45786365656473206d6178696d756d207265736f757263657321000000000000600082015250565b6000619a0e601a83617482565b9150619a19826199d8565b602082019050919050565b60006020820190508181036000830152619a3d81619a01565b9050919050565b600080fd5b600080fd5b600080fd5b600082356001606003833603038112619a6f57619a6e619a44565b5b80830191505092915050565b600060208284031215619a9157619a90617126565b5b6000619a9f848285016187cc565b91505092915050565b60008083356001602003843603038112619ac557619ac4619a44565b5b80840192508235915067ffffffffffffffff821115619ae757619ae6619a49565b5b602083019250600182023603831315619b0357619b02619a4e565b5b509250929050565b7f50726f706f73616c20616c726561647920657865637574656400000000000000600082015250565b6000619b41601983617482565b9150619b4c82619b0b565b602082019050919050565b60006020820190508181036000830152619b7081619b34565b9050919050565b7f416c726561647920617070726f76656400000000000000000000000000000000600082015250565b6000619bad601083617482565b9150619bb882619b77565b602082019050919050565b60006020820190508181036000830152619bdc81619ba0565b9050919050565b600081905092915050565b60008190508160005260206000209050919050565b60008154619c1081618c29565b619c1a8186619be3565b94506001821660008114619c355760018114619c4a57619c7d565b60ff1983168652811515820286019350619c7d565b619c5385619bee565b60005b83811015619c7557815481890152600182019150602081019050619c56565b838801955050505b50505092915050565b6000619c928284619c03565b915081905092915050565b7f50726f706f73616c20657865637574696f6e206661696c656400000000000000600082015250565b6000619cd3601983617482565b9150619cde82619c9d565b602082019050919050565b60006020820190508181036000830152619d0281619cc6565b9050919050565b7f4e6f7420696e20726576696577657220706f6f6c000000000000000000000000600082015250565b6000619d3f601483617482565b9150619d4a82619d09565b602082019050919050565b60006020820190508181036000830152619d6e81619d32565b9050919050565b7f4e487b7100000000000000000000000000000000000000000000000000000000600052603160045260246000fd5b7f496e76616c6964206e756d626572206f662063686f6963657300000000000000600082015250565b6000619dda601983617482565b9150619de582619da4565b602082019050919050565b60006020820190508181036000830152619e0981619dcd565b9050919050565b7f496e76616c696420636f72726563742063686f69636520696e64657800000000600082015250565b6000619e46601c83617482565b9150619e5182619e10565b602082019050919050565b60006020820190508181036000830152619e7581619e39565b9050919050565b6000619e8782617a9e565b915060ff8203619e9a57619e99618cec565b5b600182019050919050565b7f436f75727365206e6f742079657420617070726f766564210000000000000000600082015250565b6000619edb601883617482565b9150619ee682619ea5565b602082019050919050565b60006020820190508181036000830152619f0a81619ece565b9050919050565b7f596f752061726520616c726561647920656e726f6c6c656420696e746f20746860008201527f697320636f757273650000000000000000000000000000000000000000000000602082015250565b6000619f6d602983617482565b9150619f7882619f11565b604082019050919050565b60006020820190508181036000830152619f9c81619f60565b9050919050565b6000606082019050619fb860008301866175b3565b619fc56020830185617458565b619fd26040830184617458565b949350505050565b7f53636f726573206d757374206265206265747765656e203120616e642031302e600082015250565b600061a010602083617482565b915061a01b82619fda565b602082019050919050565b6000602082019050818103600083015261a03f8161a003565b9050919050565b7f4c696d6974204578636565646564210000000000000000000000000000000000600082015250565b600061a07c600f83617482565b915061a0878261a046565b602082019050919050565b6000602082019050818103600083015261a0ab8161a06f565b9050919050565b7f496e73756666696369656e742062616c616e6365000000000000000000000000600082015250565b600061a0e8601483617482565b915061a0f38261a0b2565b602082019050919050565b6000602082019050818103600083015261a1178161a0db565b9050919050565b600060408201905061a13360008301856175b3565b61a1406020830184617693565b939250505056fea2646970667358221220070f8f2314d449cbee439fd3fd54723d77b05fc2c001320fa13fc30cf9fc96a664736f6c634300081b0033",
  "linkReferences": {},
  "deployedLinkReferences": {}
}