{
  "_format": "hh-sol-artifact-1",
  "contractName": "CommunityBadgesFacet",
  "sourceName": "contracts/CommunityBadgesFacet.sol",
  "abi": [
    {
      "anonymous": false,
      "inputs": [
        {
          "indexed": true,
          "internalType": "address",
          "name": "member",
          "type": "address"
        },
        {
          "indexed": false,
          "internalType": "enum LibDiamond.BadgeLevel",
          "name": "badge",
          "type": "uint8"
        },
        {
          "indexed": false,
          "internalType": "uint256",
          "name": "reward",
          "type": "uint256"
        }
      ],
      "name": "BadgeAwarded",
      "type": "event"
    },
    {
      "anonymous": false,
      "inputs": [
        {
          "indexed": true,
          "internalType": "address",
          "name": "member",
          "type": "address"
        },
        {
          "indexed": false,
          "internalType": "uint256",
          "name": "reward",
          "type": "uint256"
        }
      ],
      "name": "BadgeRewardsClaimed",
      "type": "event"
    },
    {
      "anonymous": false,
      "inputs": [
        {
          "indexed": true,
          "internalType": "address",
          "name": "member",
          "type": "address"
        },
        {
          "indexed": false,
          "internalType": "uint256",
          "name": "totalEvents",
          "type": "uint256"
        }
      ],
      "name": "EventParticipationRecorded",
      "type": "event"
    },
    {
      "anonymous": false,
      "inputs": [
        {
          "indexed": true,
          "internalType": "address",
          "name": "member",
          "type": "address"
        }
      ],
      "name": "MemberRegistered",
      "type": "event"
    },
    {
      "inputs": [],
      "name": "claimBadgeRewards",
      "outputs": [],
      "stateMutability": "nonpayable",
      "type": "function"
    },
    {
      "inputs": [
        {
          "internalType": "enum LibDiamond.BadgeLevel",
          "name": "level",
          "type": "uint8"
        }
      ],
      "name": "getBadgeMetadata",
      "outputs": [
        {
          "components": [
            {
              "internalType": "string",
              "name": "name",
              "type": "string"
            },
            {
              "internalType": "string",
              "name": "iconURI",
              "type": "string"
            },
            {
              "internalType": "uint256",
              "name": "tokenReward",
              "type": "uint256"
            }
          ],
          "internalType": "struct LibDiamond.BadgeMetadata",
          "name": "",
          "type": "tuple"
        }
      ],
      "stateMutability": "view",
      "type": "function"
    },
    {
      "inputs": [],
      "name": "getBadgeThresholds",
      "outputs": [
        {
          "internalType": "uint256",
          "name": "participant",
          "type": "uint256"
        },
        {
          "internalType": "uint256",
          "name": "contributor",
          "type": "uint256"
        },
        {
          "internalType": "uint256",
          "name": "leader",
          "type": "uint256"
        },
        {
          "internalType": "uint256",
          "name": "champion",
          "type": "uint256"
        }
      ],
      "stateMutability": "pure",
      "type": "function"
    },
    {
      "inputs": [
        {
          "internalType": "address",
          "name": "member",
          "type": "address"
        }
      ],
      "name": "getMemberBadge",
      "outputs": [
        {
          "internalType": "enum LibDiamond.BadgeLevel",
          "name": "",
          "type": "uint8"
        }
      ],
      "stateMutability": "view",
      "type": "function"
    },
    {
      "inputs": [
        {
          "internalType": "address",
          "name": "member",
          "type": "address"
        }
      ],
      "name": "getMemberBadgeDetails",
      "outputs": [
        {
          "internalType": "enum LibDiamond.BadgeLevel",
          "name": "currentBadge",
          "type": "uint8"
        },
        {
          "internalType": "string",
          "name": "badgeName",
          "type": "string"
        },
        {
          "internalType": "string",
          "name": "iconURI",
          "type": "string"
        },
        {
          "internalType": "uint256",
          "name": "tokenReward",
          "type": "uint256"
        },
        {
          "internalType": "uint256",
          "name": "totalEventsAttended",
          "type": "uint256"
        },
        {
          "internalType": "uint256",
          "name": "pendingRewards",
          "type": "uint256"
        }
      ],
      "stateMutability": "view",
      "type": "function"
    },
    {
      "inputs": [
        {
          "internalType": "address",
          "name": "member",
          "type": "address"
        }
      ],
      "name": "getNextBadgeThreshold",
      "outputs": [
        {
          "internalType": "enum LibDiamond.BadgeLevel",
          "name": "nextBadge",
          "type": "uint8"
        },
        {
          "internalType": "uint256",
          "name": "eventsNeeded",
          "type": "uint256"
        }
      ],
      "stateMutability": "view",
      "type": "function"
    },
    {
      "inputs": [
        {
          "internalType": "address",
          "name": "member",
          "type": "address"
        }
      ],
      "name": "getPendingRewards",
      "outputs": [
        {
          "internalType": "uint256",
          "name": "",
          "type": "uint256"
        }
      ],
      "stateMutability": "view",
      "type": "function"
    },
    {
      "inputs": [
        {
          "internalType": "address",
          "name": "member",
          "type": "address"
        }
      ],
      "name": "getTotalEventsAttended",
      "outputs": [
        {
          "internalType": "uint256",
          "name": "",
          "type": "uint256"
        }
      ],
      "stateMutability": "view",
      "type": "function"
    },
    {
      "inputs": [
        {
          "internalType": "address",
          "name": "member",
          "type": "address"
        },
        {
          "internalType": "enum LibDiamond.BadgeLevel",
          "name": "badgeLevel",
          "type": "uint8"
        }
      ],
      "name": "hasBadge",
      "outputs": [
        {
          "internalType": "bool",
          "name": "",
          "type": "bool"
        }
      ],
      "stateMutability": "view",
      "type": "function"
    },
    {
      "inputs": [],
      "name": "initializeBadgeMetadata",
      "outputs": [],
      "stateMutability": "nonpayable",
      "type": "function"
    },
    {
      "inputs": [
        {
          "internalType": "address",
          "name": "member",
          "type": "address"
        }
      ],
      "name": "isRegisteredMember",
      "outputs": [
        {
          "internalType": "bool",
          "name": "",
          "type": "bool"
        }
      ],
      "stateMutability": "view",
      "type": "function"
    },
    {
      "inputs": [
        {
          "internalType": "address",
          "name": "participant",
          "type": "address"
        }
      ],
      "name": "recordEventParticipation",
      "outputs": [],
      "stateMutability": "nonpayable",
      "type": "function"
    },
    {
      "inputs": [
        {
          "internalType": "address",
          "name": "member",
          "type": "address"
        }
      ],
      "name": "registerMember",
      "outputs": [],
      "stateMutability": "nonpayable",
      "type": "function"
    },
    {
      "inputs": [
        {
          "internalType": "enum LibDiamond.BadgeLevel",
          "name": "level",
          "type": "uint8"
        },
        {
          "internalType": "string",
          "name": "name",
          "type": "string"
        },
        {
          "internalType": "string",
          "name": "iconURI",
          "type": "string"
        },
        {
          "internalType": "uint256",
          "name": "tokenReward",
          "type": "uint256"
        }
      ],
      "name": "updateBadgeMetadata",
      "outputs": [],
      "stateMutability": "nonpayable",
      "type": "function"
    }
  ],
  "bytecode": "0x6080806040523461001657611dfb908161001c8239f35b600080fdfe608080604052600436101561001357600080fd5b60003560e01c9081632899df2b14611843575080633af0c688146117ef57806350447e5e146116315780636a6b9a61146116005780637125a07b1461152e57806375ff8f8d146106fd578063865679d0146106c5578063914e72a61461069e578063ca98e49e14610668578063cc63762514610416578063f6ed2017146103e7578063f93d475214610112578063fcb4888e146100ef5763fd6b350b146100b957600080fd5b346100ea5760003660031901126100ea576080604051600181526003602082015260056040820152600a6060820152f35b600080fd5b346100ea5760203660031901126100ea5761011061010b611951565b611c52565b005b346100ea5760803660031901126100ea5760043560058110156100ea576001600160401b03906024358281116100ea576101509036906004016119de565b906044358381116100ea576101699036906004016119de565b610171611d22565b6040519261017e84611987565b835260208084019182526040840192606435845261019b81611967565b600052600080516020611da6833981519152815260406000209351805186811161031257806101ca8754611a34565b92601f93848111610398575b50849084831160011461033357600092610328575b50508160011b916000199060031b1c19161785555b60019182860193519081519788116103125761021c8554611a34565b8381116102cc575b5080928811600114610265575095809281926002979860009461025a575b50501b916000199060031b1c19161790555b51910155005b015192508880610242565b909691601f198316978560005282600020926000905b8a82106102b557505083600298991061029c575b505050811b019055610254565b015160001960f88460031b161c1916905586808061028f565b80878596829496860151815501950193019061027b565b856000528160002084808b0160051c820192848c10610309575b0160051c019085905b8281106102fd575050610224565b600081550185906102ef565b925081926102e6565b634e487b7160e01b600052604160045260246000fd5b0151905088806101eb565b60008981528681209350601f198516905b87828210610382575050908460019594939210610369575b505050811b018555610200565b015160001960f88460031b161c1916905588808061035c565b6001859682939686015181550195019301610344565b90915087600052846000208480850160051c8201928786106103de575b9085949392910160051c01905b8181106103cf57506101d6565b600081558493506001016103c2565b925081926103b5565b346100ea5760203660031901126100ea576020600461040c610407611951565b611b13565b0154604051908152f35b346100ea576020806003193601126100ea57610430611951565b9060ff61043c83611b4c565b54161561065a575b61044d82611b13565b908154600019811461060b57600101825561046783611b13565b91600283019260ff845416938154600a81101560001461062157506004945b61048f81611967565b61049886611967565b85036104da575b5050546040519081526001600160a01b03909316927ff18beef583f71b01f816b888b2fb4012abc44a95618cbc737287866909e7abd79250a2005b846104e491611c3a565b4260038201556104f384611967565b83600052600080516020611da683398151915283526004600260406000200154910180549082820180921161060b577ff18beef583f71b01f816b888b2fb4012abc44a95618cbc737287866909e7abd7957fd4df0cb969b99d25f121a3e9c7f32d8fcc5a0d782408695f68de9493db8cc177926040925581519386850160018060a01b038a16956bffffffffffffffffffffffff198b60601b16825261059884611967565b8360f81b6034820152601581526105ae816119a2565b519020856000527f725df4745901cc29a7480ac5f45fa2713d9ff041f3314f6ab711ab302e35785788528360002090600052875282600020600160ff198254161790558251916105fd81611967565b825286820152a2848061049f565b634e487b7160e01b600052601160045260246000fd5b600581106106325750600394610486565b600381106106435750600294610486565b60011161065257600194610486565b600094610486565b61066382611c52565b610444565b346100ea5760203660031901126100ea57602060ff600261068a610407611951565b0154166040519061069a81611967565b8152f35b346100ea5760203660031901126100ea5760206106bc610407611951565b54604051908152f35b346100ea5760203660031901126100ea5760406106e86106e3611951565b611b85565b8251916106f481611967565b82526020820152f35b346100ea5760003660031901126100ea57610716611d22565b60405161072281611987565b60405161072e816119a2565b60088152672732bbb1b7b6b2b960c11b60208201528152604051610751816119a2565b601a81527f697066733a2f2f6e6577636f6d65722d62616467652d69636f6e0000000000006020820152602082019081526000604083015260008052600080516020611da6833981519152602052604060002082519283516001600160401b038111610312576107c18354611a34565b601f81116114e6575b50602094601f821160011461148057948192939495600092611475575b50508160011b916000199060031b1c19161782555b6001820192519283516001600160401b0381116103125761081d8254611a34565b601f811161142d575b506020601f82116001146113bf5790806040949392600296976000926113b4575b50508160011b916000199060031b1c19161790555b015191015560405161086d81611987565b604051610879816119a2565b600b81526a14185c9d1a58da5c185b9d60aa1b6020820152815260405161089f816119a2565b601d81527f697066733a2f2f7061727469636970616e742d62616467652d69636f6e00000060208201526020820152670de0b6b3a764000060408201526001600052600080516020611da6833981519152602052604060002081519182516001600160401b038111610312576109158354611a34565b601f811161136c575b506020601f821160011461130457819293946000926112f9575b50508160011b916000199060031b1c19161782555b60208101518051906001600160401b038211610312576109706001850154611a34565b601f81116112ae575b50602090601f83116001146112395791806002949260409460009261122e575b50508160011b916000199060031b1c19161760018501555b01519101556040516109c281611987565b6040516109ce816119a2565b600b81526a21b7b73a3934b13aba37b960a91b602082015281526040516109f4816119a2565b601d81527f697066733a2f2f636f6e7472696275746f722d62616467652d69636f6e00000060208201526020820152671bc16d674ec8000060408201526002600052600080516020611da6833981519152602052604060002081519182516001600160401b03811161031257610a6a8354611a34565b601f81116111e6575b506020601f821160011461117e5781929394600092611173575b50508160011b916000199060031b1c19161782555b60208101518051906001600160401b03821161031257610ac56001850154611a34565b601f8111611128575b50602090601f83116001146110b3579180600294926040946000926110a8575b50508160011b916000199060031b1c19161760018501555b0151910155604051610b1781611987565b604051610b23816119a2565b60068152652632b0b232b960d11b60208201528152604051610b44816119a2565b601881527f697066733a2f2f6c65616465722d62616467652d69636f6e0000000000000000602082015260208201526729a2241af62c000060408201526003600052600080516020611da6833981519152602052604060002081519182516001600160401b03811161031257610bba8354611a34565b601f8111611064575b506020601f8211600114610ffc5781929394600092610ff1575b50508160011b916000199060031b1c19161782555b60208101518051906001600160401b03821161031257610c156001850154611a34565b601f8111610faa575b50602090601f8311600114610f3557918060029492604094600092610f2a575b50508160011b916000199060031b1c19161760018501555b0151910155604051610c6781611987565b604051610c73816119a2565b600881526721b430b6b834b7b760c11b60208201528152604051610c96816119a2565b601a81527f697066733a2f2f6368616d70696f6e2d62616467652d69636f6e00000000000060208201526020820152673782dace9d90000060408201526004600052600080516020611da683398151915260205260406000209080519182516001600160401b03811161031257610d0d8254611a34565b601f8111610ee2575b506020601f8211600114610e7c5781929394600092610e71575b50508160011b916000199060031b1c19161781555b600181019160208101519283516001600160401b03811161031257610d6a8254611a34565b601f8111610e29575b506020601f8211600114610dbb579080604094939260029697600092610db0575b50508160011b916000199060031b1c19161790555b0151910155005b015190508780610d94565b601f198216958360005260206000209660005b818110610e11575096600192849260409796956002999a10610df8575b505050811b019055610da9565b015160001960f88460031b161c19169055878080610deb565b83830151895560019098019760209384019301610dce565b826000526020600020601f830160051c81019160208410610e67575b601f0160051c01905b818110610e5b5750610d73565b60008155600101610e4e565b9091508190610e45565b015190508480610d30565b601f198216908360005260206000209160005b818110610eca57509583600195969710610eb1575b505050811b018155610d45565b015160001960f88460031b161c19169055848080610ea4565b9192602060018192868b015181550194019201610e8f565b826000526020600020601f830160051c81019160208410610f20575b601f0160051c01905b818110610f145750610d16565b60008155600101610f07565b9091508190610efe565b015190508680610c3e565b906001850160005260206000209160005b601f1985168110610f925750926002949260019260409583601f19811610610f79575b505050811b016001850155610c56565b015160001960f88460031b161c19169055868080610f69565b91926020600181928685015181550194019201610f46565b600185016000526020600020601f840160051c810160208510610fea575b601f830160051c82018110610fde575050610c1e565b60008155600101610fc8565b5080610fc8565b015190508480610bdd565b8360005260206000209060005b601f198416811061104c5750600193949583601f19811610611033575b505050811b018255610bf2565b015160001960f88460031b161c19169055848080611026565b9091602060018192858a015181550193019101611009565b836000526020600020601f830160051c8101602084106110a1575b601f830160051c82018110611095575050610bc3565b6000815560010161107f565b508061107f565b015190508680610aee565b906001850160005260206000209160005b601f19851681106111105750926002949260019260409583601f198116106110f7575b505050811b016001850155610b06565b015160001960f88460031b161c191690558680806110e7565b919260206001819286850151815501940192016110c4565b600185016000526020600020601f840160051c81019160208510611169575b601f0160051c01905b81811061115d5750610ace565b60008155600101611150565b9091508190611147565b015190508480610a8d565b8360005260206000209060005b601f19841681106111ce5750600193949583601f198116106111b5575b505050811b018255610aa2565b015160001960f88460031b161c191690558480806111a8565b9091602060018192858a01518155019301910161118b565b836000526020600020601f830160051c81019160208410611224575b601f0160051c01905b8181106112185750610a73565b6000815560010161120b565b9091508190611202565b015190508680610999565b906001850160005260206000209160005b601f19851681106112965750926002949260019260409583601f1981161061127d575b505050811b0160018501556109b1565b015160001960f88460031b161c1916905586808061126d565b9192602060018192868501518155019401920161124a565b600185016000526020600020601f840160051c810191602085106112ef575b601f0160051c01905b8181106112e35750610979565b600081556001016112d6565b90915081906112cd565b015190508480610938565b8360005260206000209060005b601f19841681106113545750600193949583601f1981161061133b575b505050811b01825561094d565b015160001960f88460031b161c1916905584808061132e565b9091602060018192858a015181550193019101611311565b836000526020600020601f830160051c810191602084106113aa575b601f0160051c01905b81811061139e575061091e565b60008155600101611391565b9091508190611388565b015190508780610847565b601f198216958360005260206000209660005b818110611415575096600192849260409796956002999a106113fc575b505050811b01905561085c565b015160001960f88460031b161c191690558780806113ef565b838301518955600190980197602093840193016113d2565b826000526020600020601f830160051c8101916020841061146b575b601f0160051c01905b81811061145f5750610826565b60008155600101611452565b9091508190611449565b0151905085806107e7565b601f198216958460005260206000209160005b8881106114ce575083600195969798106114b5575b505050811b0182556107fc565b015160001960f88460031b161c191690558580806114a8565b91926020600181928685015181550194019201611493565b836000526020600020601f830160051c81019160208410611524575b601f0160051c01905b81811061151857506107ca565b6000815560010161150b565b9091508190611502565b346100ea5760203660031901126100ea5761154a610407611951565b60ff60028201541661155b81611967565b80600052600080516020611da683398151915260205260406000206040519061158382611987565b61158c81611a6e565b8252600261159c60018301611a6e565b9182602085015201549182604082015251936115ec60048254920154926115de60405197876115cb8a99611967565b885260c0602089015260c0880190611911565b908682036040880152611911565b926060850152608084015260a08301520390f35b346100ea5760203660031901126100ea57602060ff611625611620611951565b611b4c565b54166040519015158152f35b346100ea5760003660031901126100ea5761164b33611b13565b60ff61165633611b4c565b54161561179b57600401805490811561174a5760009055604051633cbc766960e11b81526001600482015233602482015281604482015260806064820152601760848201527f436f6d6d756e697479206261646765207265776172647300000000000000000060a482015260208160c4816000305af1801561173e57611706575b506040519081527f3fd07e3df7d54ab12e82d493738aaa87f80d68ad1dc1b1e340f549a1839bb03d60203392a2005b6020813d602011611736575b8161171f602093836119bd565b810103126100ea5751801515036100ea57816116d7565b3d9150611712565b6040513d6000823e3d90fd5b60405162461bcd60e51b815260206004820152602360248201527f436f6d6d756e6974794261646765733a204e6f2070656e64696e67207265776160448201526272647360e81b6064820152608490fd5b60405162461bcd60e51b815260206004820152602660248201527f436f6d6d756e6974794261646765733a204d656d626572206e6f7420726567696044820152651cdd195c995960d21b6064820152608490fd5b346100ea5760403660031901126100ea57611808611951565b60243560058110156100ea5760ff6002611823602094611b13565b0154169061183081611967565b61183982611967565b6040519110158152f35b346100ea576020806003193601126100ea5760043560058110156100ea576000604084611871606096611987565b8581528585820152015261188481611967565b600052600080516020611da68339815191528152604060002090611906604051926118ae84611987565b6118b781611a6e565b84526118f360026118ca60018401611a6e565b928587019384520154936040860194855260405196879682885251918701526080860190611911565b9051848203601f19016040860152611911565b905160608301520390f35b919082519283825260005b84811061193d575050826000602080949584010152601f8019910116010190565b60208183018101518483018201520161191c565b600435906001600160a01b03821682036100ea57565b6005111561197157565b634e487b7160e01b600052602160045260246000fd5b606081019081106001600160401b0382111761031257604052565b604081019081106001600160401b0382111761031257604052565b90601f801991011681019081106001600160401b0382111761031257604052565b81601f820112156100ea578035906001600160401b0382116103125760405192611a12601f8401601f1916602001856119bd565b828452602083830101116100ea57816000926020809301838601378301015290565b90600182811c92168015611a64575b6020831014611a4e57565b634e487b7160e01b600052602260045260246000fd5b91607f1691611a43565b90604051918260008254611a8181611a34565b90818452602094600191600181169081600014611af15750600114611ab2575b505050611ab0925003836119bd565b565b600090815285812095935091905b818310611ad9575050611ab09350820101388080611aa1565b85548884018501529485019487945091830191611ac0565b92505050611ab094925060ff191682840152151560051b820101388080611aa1565b6001600160a01b031660009081527f725df4745901cc29a7480ac5f45fa2713d9ff041f3314f6ab711ab302e3578556020526040902090565b6001600160a01b031660009081527f725df4745901cc29a7480ac5f45fa2713d9ff041f3314f6ab711ab302e3578586020526040902090565b611b8e90611b13565b9060ff600283549301541691611ba383611967565b6004928303611bb25750600090565b6001811015611be3576001039160018311611bce575060019190565b601190634e487b7160e01b6000525260246000fd5b6003811015611bff576003039160038311611bce575060029190565b6005811015611c1b576005039160058311611bce575060039190565b600a811015611c3457600a0391600a8311611bce579190565b50600090565b90611c4481611967565b60ff80198354169116179055565b60ff611c5d82611b4c565b541615611c675750565b6040519060a08201908282106001600160401b03831117610312577f92fabfa210df88d92c2f5a07ddd43a985b208d8b19b7a78ba1284aa4b287d8629160405260009283815260046020820185815260408301868152611cf660608501914283526080860193898552611cd988611b13565b9651875551600187015551611ced81611967565b60028601611c3a565b51600384015551910155611d0981611b4c565b805460ff191660011790556001600160a01b03169180a2565b7fc8fcad8db84d3cc18b4c41d551ea0ee66dd599cde068d998e57d5e09332c131d546001600160a01b03163303611d5557565b60405162461bcd60e51b815260206004820152602260248201527f4c69624469616d6f6e643a204d75737420626520636f6e7472616374206f776e60448201526132b960f11b6064820152608490fdfe725df4745901cc29a7480ac5f45fa2713d9ff041f3314f6ab711ab302e357856a264697066735822122000e1b095327767d0422af738132eaaf1bbe9f6cd5e8cc7ce8e6f513477a0e35364736f6c63430008180033",
  "linkReferences": {},
  "deployedLinkReferences": {}
}