{
  "_format": "hh-sol-artifact-1",
  "contractName": "CommunityBadgesFacet",
  "sourceName": "contracts/CommunityBadgesFacet.sol",
  "abi": [
    {
      "anonymous": false,
      "inputs": [
        {
          "indexed": true,
          "internalType": "address",
          "name": "member",
          "type": "address"
        },
        {
          "indexed": false,
          "internalType": "enum LibDiamond.BadgeLevel",
          "name": "badge",
          "type": "uint8"
        },
        {
          "indexed": false,
          "internalType": "uint256",
          "name": "reward",
          "type": "uint256"
        }
      ],
      "name": "BadgeAwarded",
      "type": "event"
    },
    {
      "anonymous": false,
      "inputs": [
        {
          "indexed": true,
          "internalType": "address",
          "name": "member",
          "type": "address"
        },
        {
          "indexed": false,
          "internalType": "uint256",
          "name": "reward",
          "type": "uint256"
        }
      ],
      "name": "BadgeRewardsClaimed",
      "type": "event"
    },
    {
      "anonymous": false,
      "inputs": [
        {
          "indexed": true,
          "internalType": "address",
          "name": "member",
          "type": "address"
        },
        {
          "indexed": false,
          "internalType": "uint256",
          "name": "totalEvents",
          "type": "uint256"
        }
      ],
      "name": "EventParticipationRecorded",
      "type": "event"
    },
    {
      "anonymous": false,
      "inputs": [
        {
          "indexed": true,
          "internalType": "address",
          "name": "member",
          "type": "address"
        }
      ],
      "name": "MemberRegistered",
      "type": "event"
    },
    {
      "inputs": [],
      "name": "claimBadgeRewards",
      "outputs": [],
      "stateMutability": "nonpayable",
      "type": "function"
    },
    {
      "inputs": [
        {
          "internalType": "enum LibDiamond.BadgeLevel",
          "name": "level",
          "type": "uint8"
        }
      ],
      "name": "getBadgeMetadata",
      "outputs": [
        {
          "components": [
            {
              "internalType": "string",
              "name": "name",
              "type": "string"
            },
            {
              "internalType": "string",
              "name": "iconURI",
              "type": "string"
            },
            {
              "internalType": "uint256",
              "name": "tokenReward",
              "type": "uint256"
            }
          ],
          "internalType": "struct LibDiamond.BadgeMetadata",
          "name": "",
          "type": "tuple"
        }
      ],
      "stateMutability": "view",
      "type": "function"
    },
    {
      "inputs": [],
      "name": "getBadgeThresholds",
      "outputs": [
        {
          "internalType": "uint256",
          "name": "participant",
          "type": "uint256"
        },
        {
          "internalType": "uint256",
          "name": "contributor",
          "type": "uint256"
        },
        {
          "internalType": "uint256",
          "name": "leader",
          "type": "uint256"
        },
        {
          "internalType": "uint256",
          "name": "champion",
          "type": "uint256"
        }
      ],
      "stateMutability": "pure",
      "type": "function"
    },
    {
      "inputs": [
        {
          "internalType": "address",
          "name": "member",
          "type": "address"
        }
      ],
      "name": "getMemberBadge",
      "outputs": [
        {
          "internalType": "enum LibDiamond.BadgeLevel",
          "name": "",
          "type": "uint8"
        }
      ],
      "stateMutability": "view",
      "type": "function"
    },
    {
      "inputs": [
        {
          "internalType": "address",
          "name": "member",
          "type": "address"
        }
      ],
      "name": "getMemberBadgeDetails",
      "outputs": [
        {
          "internalType": "enum LibDiamond.BadgeLevel",
          "name": "currentBadge",
          "type": "uint8"
        },
        {
          "internalType": "string",
          "name": "badgeName",
          "type": "string"
        },
        {
          "internalType": "string",
          "name": "iconURI",
          "type": "string"
        },
        {
          "internalType": "uint256",
          "name": "tokenReward",
          "type": "uint256"
        },
        {
          "internalType": "uint256",
          "name": "totalEventsAttended",
          "type": "uint256"
        },
        {
          "internalType": "uint256",
          "name": "pendingRewards",
          "type": "uint256"
        }
      ],
      "stateMutability": "view",
      "type": "function"
    },
    {
      "inputs": [
        {
          "internalType": "address",
          "name": "member",
          "type": "address"
        }
      ],
      "name": "getNextBadgeThreshold",
      "outputs": [
        {
          "internalType": "enum LibDiamond.BadgeLevel",
          "name": "nextBadge",
          "type": "uint8"
        },
        {
          "internalType": "uint256",
          "name": "eventsNeeded",
          "type": "uint256"
        }
      ],
      "stateMutability": "view",
      "type": "function"
    },
    {
      "inputs": [
        {
          "internalType": "address",
          "name": "member",
          "type": "address"
        }
      ],
      "name": "getPendingRewards",
      "outputs": [
        {
          "internalType": "uint256",
          "name": "",
          "type": "uint256"
        }
      ],
      "stateMutability": "view",
      "type": "function"
    },
    {
      "inputs": [
        {
          "internalType": "address",
          "name": "member",
          "type": "address"
        }
      ],
      "name": "getTotalEventsAttended",
      "outputs": [
        {
          "internalType": "uint256",
          "name": "",
          "type": "uint256"
        }
      ],
      "stateMutability": "view",
      "type": "function"
    },
    {
      "inputs": [
        {
          "internalType": "address",
          "name": "member",
          "type": "address"
        },
        {
          "internalType": "enum LibDiamond.BadgeLevel",
          "name": "badgeLevel",
          "type": "uint8"
        }
      ],
      "name": "hasBadge",
      "outputs": [
        {
          "internalType": "bool",
          "name": "",
          "type": "bool"
        }
      ],
      "stateMutability": "view",
      "type": "function"
    },
    {
      "inputs": [],
      "name": "initializeBadgeMetadata",
      "outputs": [],
      "stateMutability": "nonpayable",
      "type": "function"
    },
    {
      "inputs": [
        {
          "internalType": "address",
          "name": "member",
          "type": "address"
        }
      ],
      "name": "isRegisteredMember",
      "outputs": [
        {
          "internalType": "bool",
          "name": "",
          "type": "bool"
        }
      ],
      "stateMutability": "view",
      "type": "function"
    },
    {
      "inputs": [
        {
          "internalType": "address",
          "name": "participant",
          "type": "address"
        }
      ],
      "name": "recordEventParticipation",
      "outputs": [],
      "stateMutability": "nonpayable",
      "type": "function"
    },
    {
      "inputs": [
        {
          "internalType": "address",
          "name": "member",
          "type": "address"
        }
      ],
      "name": "registerMember",
      "outputs": [],
      "stateMutability": "nonpayable",
      "type": "function"
    },
    {
      "inputs": [
        {
          "internalType": "enum LibDiamond.BadgeLevel",
          "name": "level",
          "type": "uint8"
        },
        {
          "internalType": "string",
          "name": "name",
          "type": "string"
        },
        {
          "internalType": "string",
          "name": "iconURI",
          "type": "string"
        },
        {
          "internalType": "uint256",
          "name": "tokenReward",
          "type": "uint256"
        }
      ],
      "name": "updateBadgeMetadata",
      "outputs": [],
      "stateMutability": "nonpayable",
      "type": "function"
    }
  ],
  "bytecode": "0x6080806040523461001657611db9908161001c8239f35b600080fdfe608080604052600436101561001357600080fd5b60003560e01c9081632899df2b146117eb575080633af0c6881461179f57806350447e5e146115e85780636a6b9a61146115b75780637125a07b1461150157806375ff8f8d146106d0578063865679d01461069a578063914e72a614610673578063ca98e49e1461063f578063cc637625146103fc578063f6ed2017146103cd578063f93d475214610112578063fcb4888e146100ef5763fd6b350b146100b957600080fd5b346100ea5760003660031901126100ea576080604051600181526003602082015260056040820152600a6060820152f35b600080fd5b346100ea5760203660031901126100ea5761011061010b6118e5565b611bf9565b005b346100ea5760803660031901126100ea5760043560058110156100ea576001600160401b03906024358281116100ea5761015090369060040161195f565b906044358381116100ea5761016990369060040161195f565b610171611ce0565b6040519261017e84611908565b8352602080840191825261019a604085019360643585526119b5565b935180518681116102f857806101b087546119db565b92601f9384811161037e575b5084908483116001146103195760009261030e575b50508160011b916000199060031b1c19161785555b60019182860193519081519788116102f85761020285546119db565b8381116102b2575b508092881160011461024b5750958092819260029798600094610240575b50501b916000199060031b1c19161790555b51910155005b015192508880610228565b909691601f198316978560005282600020926000905b8a821061029b575050836002989910610282575b505050811b01905561023a565b015160001960f88460031b161c19169055868080610275565b808785968294968601518155019501930190610261565b856000528160002084808b0160051c820192848c106102ef575b0160051c019085905b8281106102e357505061020a565b600081550185906102d5565b925081926102cc565b634e487b7160e01b600052604160045260246000fd5b0151905088806101d1565b60008981528681209350601f198516905b8782821061036857505090846001959493921061034f575b505050811b0185556101e6565b015160001960f88460031b161c19169055888080610342565b600185968293968601518155019501930161032a565b90915087600052846000208480850160051c8201928786106103c4575b9085949392910160051c01905b8181106103b557506101bc565b600081558493506001016103a8565b9250819261039b565b346100ea5760203660031901126100ea57602060046103f26103ed6118e5565b611aba565b0154604051908152f35b346100ea576020806003193601126100ea576104166118e5565b9060ff61042283611af3565b541615610631575b61043382611aba565b90815460001981146105cc57600101825561044d83611aba565b91600283019260ff845416938154600a8110156000146105f857506004945b60058110156105e25760058610156105e25785036104c0575b5050546040519081526001600160a01b03909316927ff18beef583f71b01f816b888b2fb4012abc44a95618cbc737287866909e7abd79250a2005b846104ca91611be1565b426003820155600460026104dd866119b5565b015491018054908282018092116105cc577ff18beef583f71b01f816b888b2fb4012abc44a95618cbc737287866909e7abd7957fd4df0cb969b99d25f121a3e9c7f32d8fcc5a0d782408695f68de9493db8cc177926040925581519386850160018060a01b038a16956bffffffffffffffffffffffff198b60601b1682528360f81b60348201526015815261057181611923565b519020856000527f725df4745901cc29a7480ac5f45fa2713d9ff041f3314f6ab711ab302e35785788528360002090600052875282600020600160ff198254161790556105c0835180936118fb565b86820152a28480610485565b634e487b7160e01b600052601160045260246000fd5b634e487b7160e01b600052602160045260246000fd5b60058110610609575060039461046c565b6003811061061a575060029461046c565b6001116106295760019461046c565b60009461046c565b61063a82611bf9565b61042a565b346100ea5760203660031901126100ea57602060ff60026106616103ed6118e5565b01541661067160405180926118fb565bf35b346100ea5760203660031901126100ea5760206106916103ed6118e5565b54604051908152f35b346100ea5760203660031901126100ea5760406106bd6106b86118e5565b611b2c565b6106c9835180936118fb565b6020820152f35b346100ea5760003660031901126100ea576106e9611ce0565b6040516106f581611908565b60405161070181611923565b60088152672732bbb1b7b6b2b960c11b6020820152815260405161072481611923565b601a81527f697066733a2f2f6e6577636f6d65722d62616467652d69636f6e0000000000006020820152602082019081526000604083015260008052600080516020611d64833981519152602052604060002082519283516001600160401b0381116102f85761079483546119db565b601f81116114b9575b50602094601f821160011461145357948192939495600092611448575b50508160011b916000199060031b1c19161782555b6001820192519283516001600160401b0381116102f8576107f082546119db565b601f8111611400575b506020601f8211600114611392579080604094939260029697600092611387575b50508160011b916000199060031b1c19161790555b015191015560405161084081611908565b60405161084c81611923565b600b81526a14185c9d1a58da5c185b9d60aa1b6020820152815260405161087281611923565b601d81527f697066733a2f2f7061727469636970616e742d62616467652d69636f6e00000060208201526020820152670de0b6b3a764000060408201526001600052600080516020611d64833981519152602052604060002081519182516001600160401b0381116102f8576108e883546119db565b601f811161133f575b506020601f82116001146112d757819293946000926112cc575b50508160011b916000199060031b1c19161782555b60208101518051906001600160401b0382116102f85761094360018501546119db565b601f8111611281575b50602090601f831160011461120c57918060029492604094600092611201575b50508160011b916000199060031b1c19161760018501555b015191015560405161099581611908565b6040516109a181611923565b600b81526a21b7b73a3934b13aba37b960a91b602082015281526040516109c781611923565b601d81527f697066733a2f2f636f6e7472696275746f722d62616467652d69636f6e00000060208201526020820152671bc16d674ec8000060408201526002600052600080516020611d64833981519152602052604060002081519182516001600160401b0381116102f857610a3d83546119db565b601f81116111b9575b506020601f82116001146111515781929394600092611146575b50508160011b916000199060031b1c19161782555b60208101518051906001600160401b0382116102f857610a9860018501546119db565b601f81116110fb575b50602090601f83116001146110865791806002949260409460009261107b575b50508160011b916000199060031b1c19161760018501555b0151910155604051610aea81611908565b604051610af681611923565b60068152652632b0b232b960d11b60208201528152604051610b1781611923565b601881527f697066733a2f2f6c65616465722d62616467652d69636f6e0000000000000000602082015260208201526729a2241af62c000060408201526003600052600080516020611d64833981519152602052604060002081519182516001600160401b0381116102f857610b8d83546119db565b601f8111611037575b506020601f8211600114610fcf5781929394600092610fc4575b50508160011b916000199060031b1c19161782555b60208101518051906001600160401b0382116102f857610be860018501546119db565b601f8111610f7d575b50602090601f8311600114610f0857918060029492604094600092610efd575b50508160011b916000199060031b1c19161760018501555b0151910155604051610c3a81611908565b604051610c4681611923565b600881526721b430b6b834b7b760c11b60208201528152604051610c6981611923565b601a81527f697066733a2f2f6368616d70696f6e2d62616467652d69636f6e00000000000060208201526020820152673782dace9d90000060408201526004600052600080516020611d6483398151915260205260406000209080519182516001600160401b0381116102f857610ce082546119db565b601f8111610eb5575b506020601f8211600114610e4f5781929394600092610e44575b50508160011b916000199060031b1c19161781555b600181019160208101519283516001600160401b0381116102f857610d3d82546119db565b601f8111610dfc575b506020601f8211600114610d8e579080604094939260029697600092610d83575b50508160011b916000199060031b1c19161790555b0151910155005b015190508780610d67565b601f198216958360005260206000209660005b818110610de4575096600192849260409796956002999a10610dcb575b505050811b019055610d7c565b015160001960f88460031b161c19169055878080610dbe565b83830151895560019098019760209384019301610da1565b826000526020600020601f830160051c81019160208410610e3a575b601f0160051c01905b818110610e2e5750610d46565b60008155600101610e21565b9091508190610e18565b015190508480610d03565b601f198216908360005260206000209160005b818110610e9d57509583600195969710610e84575b505050811b018155610d18565b015160001960f88460031b161c19169055848080610e77565b9192602060018192868b015181550194019201610e62565b826000526020600020601f830160051c81019160208410610ef3575b601f0160051c01905b818110610ee75750610ce9565b60008155600101610eda565b9091508190610ed1565b015190508680610c11565b906001850160005260206000209160005b601f1985168110610f655750926002949260019260409583601f19811610610f4c575b505050811b016001850155610c29565b015160001960f88460031b161c19169055868080610f3c565b91926020600181928685015181550194019201610f19565b600185016000526020600020601f840160051c810160208510610fbd575b601f830160051c82018110610fb1575050610bf1565b60008155600101610f9b565b5080610f9b565b015190508480610bb0565b8360005260206000209060005b601f198416811061101f5750600193949583601f19811610611006575b505050811b018255610bc5565b015160001960f88460031b161c19169055848080610ff9565b9091602060018192858a015181550193019101610fdc565b836000526020600020601f830160051c810160208410611074575b601f830160051c82018110611068575050610b96565b60008155600101611052565b5080611052565b015190508680610ac1565b906001850160005260206000209160005b601f19851681106110e35750926002949260019260409583601f198116106110ca575b505050811b016001850155610ad9565b015160001960f88460031b161c191690558680806110ba565b91926020600181928685015181550194019201611097565b600185016000526020600020601f840160051c8101916020851061113c575b601f0160051c01905b8181106111305750610aa1565b60008155600101611123565b909150819061111a565b015190508480610a60565b8360005260206000209060005b601f19841681106111a15750600193949583601f19811610611188575b505050811b018255610a75565b015160001960f88460031b161c1916905584808061117b565b9091602060018192858a01518155019301910161115e565b836000526020600020601f830160051c810191602084106111f7575b601f0160051c01905b8181106111eb5750610a46565b600081556001016111de565b90915081906111d5565b01519050868061096c565b906001850160005260206000209160005b601f19851681106112695750926002949260019260409583601f19811610611250575b505050811b016001850155610984565b015160001960f88460031b161c19169055868080611240565b9192602060018192868501518155019401920161121d565b600185016000526020600020601f840160051c810191602085106112c2575b601f0160051c01905b8181106112b6575061094c565b600081556001016112a9565b90915081906112a0565b01519050848061090b565b8360005260206000209060005b601f19841681106113275750600193949583601f1981161061130e575b505050811b018255610920565b015160001960f88460031b161c19169055848080611301565b9091602060018192858a0151815501930191016112e4565b836000526020600020601f830160051c8101916020841061137d575b601f0160051c01905b81811061137157506108f1565b60008155600101611364565b909150819061135b565b01519050878061081a565b601f198216958360005260206000209660005b8181106113e8575096600192849260409796956002999a106113cf575b505050811b01905561082f565b015160001960f88460031b161c191690558780806113c2565b838301518955600190980197602093840193016113a5565b826000526020600020601f830160051c8101916020841061143e575b601f0160051c01905b81811061143257506107f9565b60008155600101611425565b909150819061141c565b0151905085806107ba565b601f198216958460005260206000209160005b8881106114a157508360019596979810611488575b505050811b0182556107cf565b015160001960f88460031b161c1916905585808061147b565b91926020600181928685015181550194019201611466565b836000526020600020601f830160051c810191602084106114f7575b601f0160051c01905b8181106114eb575061079d565b600081556001016114de565b90915081906114d5565b346100ea5760203660031901126100ea576115846115206103ed6118e5565b60ff60028201541690611532826119b5565b6040519161153f83611908565b61154882611a15565b83526115a3600261155b60018501611a15565b9384602087015201549384604082015251926115956004845494015494604051988980996118fb565b60c0602089015260c08801906118a5565b9086820360408801526118a5565b926060850152608084015260a08301520390f35b346100ea5760203660031901126100ea57602060ff6115dc6115d76118e5565b611af3565b54166040519015158152f35b346100ea5760003660031901126100ea5761160233611aba565b60ff61160d33611af3565b54161561174b5760040180549081156116fa576000905560405163e67524a360e01b815233600482015281602482015260606044820152601760648201527f436f6d6d756e6974792062616467652072657761726473000000000000000000608482015260208160a4816000305af180156116ee576116b6575b506040519081527f3fd07e3df7d54ab12e82d493738aaa87f80d68ad1dc1b1e340f549a1839bb03d60203392a2005b6020813d6020116116e6575b816116cf6020938361193e565b810103126100ea5751801515036100ea5781611687565b3d91506116c2565b6040513d6000823e3d90fd5b60405162461bcd60e51b815260206004820152602360248201527f436f6d6d756e6974794261646765733a204e6f2070656e64696e67207265776160448201526272647360e81b6064820152608490fd5b60405162461bcd60e51b815260206004820152602660248201527f436f6d6d756e6974794261646765733a204d656d626572206e6f7420726567696044820152651cdd195c995960d21b6064820152608490fd5b346100ea5760403660031901126100ea576117b86118e5565b6024359060058210156100ea5760026117d260ff92611aba565b01541660058110156105e2576020916040519110158152f35b346100ea5760203660031901126100ea576004359060058210156100ea5761188791600060408361181e61183095611908565b606081526060602082015201526119b5565b6040519061183d82611908565b61184681611a15565b825261189a600261185960018401611a15565b92602085019384520154916040840192835260405194859460208652516060602087015260808601906118a5565b9051848203601f190160408601526118a5565b905160608301520390f35b919082519283825260005b8481106118d1575050826000602080949584010152601f8019910116010190565b6020818301810151848301820152016118b0565b600435906001600160a01b03821682036100ea57565b9060058210156105e25752565b606081019081106001600160401b038211176102f857604052565b604081019081106001600160401b038211176102f857604052565b90601f801991011681019081106001600160401b038211176102f857604052565b81601f820112156100ea578035906001600160401b0382116102f85760405192611993601f8401601f19166020018561193e565b828452602083830101116100ea57816000926020809301838601378301015290565b60058110156105e257600052600080516020611d64833981519152602052604060002090565b90600182811c92168015611a0b575b60208310146119f557565b634e487b7160e01b600052602260045260246000fd5b91607f16916119ea565b90604051918260008254611a28816119db565b90818452602094600191600181169081600014611a985750600114611a59575b505050611a579250038361193e565b565b600090815285812095935091905b818310611a80575050611a579350820101388080611a48565b85548884018501529485019487945091830191611a67565b92505050611a5794925060ff191682840152151560051b820101388080611a48565b6001600160a01b031660009081527f725df4745901cc29a7480ac5f45fa2713d9ff041f3314f6ab711ab302e3578556020526040902090565b6001600160a01b031660009081527f725df4745901cc29a7480ac5f45fa2713d9ff041f3314f6ab711ab302e3578586020526040902090565b611b3590611aba565b9060ff60028354930154169160058310156105e2576004928303611b595750600090565b6001811015611b8a576001039160018311611b75575060019190565b601190634e487b7160e01b6000525260246000fd5b6003811015611ba6576003039160038311611b75575060029190565b6005811015611bc2576005039160058311611b75575060039190565b600a811015611bdb57600a0391600a8311611b75579190565b50600090565b9060058110156105e25760ff80198354169116179055565b60ff611c0482611af3565b541615611c0e5750565b6040519060a082018281106001600160401b038211176102f857604052600091828152602081018381526040820184815260608301904282526080840192868452611c5886611aba565b94518555516001850155516005811015611ccc5791600491611ca0859460027f92fabfa210df88d92c2f5a07ddd43a985b208d8b19b7a78ba1284aa4b287d862989701611be1565b51600384015551910155611cb381611af3565b805460ff191660011790556001600160a01b03169180a2565b634e487b7160e01b86526021600452602486fd5b7fc8fcad8db84d3cc18b4c41d551ea0ee66dd599cde068d998e57d5e09332c131d546001600160a01b03163303611d1357565b60405162461bcd60e51b815260206004820152602260248201527f4c69624469616d6f6e643a204d75737420626520636f6e7472616374206f776e60448201526132b960f11b6064820152608490fdfe725df4745901cc29a7480ac5f45fa2713d9ff041f3314f6ab711ab302e357856a2646970667358221220e4ec307dad38921c2d9a928034c50f6d9e8b27f32c0c383ccb8ba3c95a1c45a064736f6c63430008180033",
  "linkReferences": {},
  "deployedLinkReferences": {}
}