{
  "_format": "hh-sol-artifact-1",
  "contractName": "RevenueSharingFacet",
  "sourceName": "contracts/RevenueSharingFacet.sol",
  "abi": [
    {
      "inputs": [],
      "name": "ReentrancyGuardReentrantCall",
      "type": "error"
    },
    {
      "anonymous": false,
      "inputs": [
        {
          "indexed": true,
          "internalType": "uint256",
          "name": "purchaseId",
          "type": "uint256"
        },
        {
          "indexed": true,
          "internalType": "address",
          "name": "ambassador",
          "type": "address"
        },
        {
          "indexed": false,
          "internalType": "uint256",
          "name": "amount",
          "type": "uint256"
        },
        {
          "indexed": false,
          "internalType": "uint8",
          "name": "level",
          "type": "uint8"
        },
        {
          "indexed": false,
          "internalType": "uint8",
          "name": "ambassadorLevel",
          "type": "uint8"
        },
        {
          "indexed": false,
          "internalType": "uint256",
          "name": "timestamp",
          "type": "uint256"
        }
      ],
      "name": "CommissionDistributed",
      "type": "event"
    },
    {
      "anonymous": false,
      "inputs": [
        {
          "indexed": true,
          "internalType": "address",
          "name": "ambassador",
          "type": "address"
        },
        {
          "indexed": false,
          "internalType": "uint256",
          "name": "amount",
          "type": "uint256"
        },
        {
          "indexed": false,
          "internalType": "uint256",
          "name": "timestamp",
          "type": "uint256"
        }
      ],
      "name": "CommissionWithdrawn",
      "type": "event"
    },
    {
      "anonymous": false,
      "inputs": [
        {
          "indexed": true,
          "internalType": "uint256",
          "name": "purchaseId",
          "type": "uint256"
        },
        {
          "indexed": true,
          "internalType": "address",
          "name": "buyer",
          "type": "address"
        },
        {
          "indexed": true,
          "internalType": "address",
          "name": "creator",
          "type": "address"
        },
        {
          "indexed": false,
          "internalType": "uint256",
          "name": "courseId",
          "type": "uint256"
        },
        {
          "indexed": false,
          "internalType": "uint256",
          "name": "priceUSDC",
          "type": "uint256"
        },
        {
          "indexed": false,
          "internalType": "uint256",
          "name": "timestamp",
          "type": "uint256"
        }
      ],
      "name": "CoursePurchaseProcessed",
      "type": "event"
    },
    {
      "anonymous": false,
      "inputs": [
        {
          "indexed": true,
          "internalType": "address",
          "name": "buyer",
          "type": "address"
        },
        {
          "indexed": true,
          "internalType": "uint256",
          "name": "courseId",
          "type": "uint256"
        },
        {
          "indexed": false,
          "internalType": "uint256",
          "name": "refundAmount",
          "type": "uint256"
        },
        {
          "indexed": false,
          "internalType": "uint256",
          "name": "timestamp",
          "type": "uint256"
        }
      ],
      "name": "CourseRefunded",
      "type": "event"
    },
    {
      "anonymous": false,
      "inputs": [
        {
          "indexed": true,
          "internalType": "uint256",
          "name": "purchaseId",
          "type": "uint256"
        },
        {
          "indexed": false,
          "internalType": "uint256",
          "name": "creatorShare",
          "type": "uint256"
        },
        {
          "indexed": false,
          "internalType": "uint256",
          "name": "ambassadorShare",
          "type": "uint256"
        },
        {
          "indexed": false,
          "internalType": "uint256",
          "name": "daoShare",
          "type": "uint256"
        },
        {
          "indexed": false,
          "internalType": "uint256",
          "name": "reviewerShare",
          "type": "uint256"
        },
        {
          "indexed": false,
          "internalType": "uint256",
          "name": "timestamp",
          "type": "uint256"
        }
      ],
      "name": "RevenueDistributed",
      "type": "event"
    },
    {
      "inputs": [
        {
          "internalType": "address",
          "name": "_buyer",
          "type": "address"
        },
        {
          "internalType": "address",
          "name": "_creator",
          "type": "address"
        },
        {
          "internalType": "uint256",
          "name": "_courseId",
          "type": "uint256"
        },
        {
          "internalType": "uint256",
          "name": "_priceUSDC",
          "type": "uint256"
        },
        {
          "internalType": "address",
          "name": "_reviewer",
          "type": "address"
        }
      ],
      "name": "coursePurchase",
      "outputs": [
        {
          "internalType": "uint256",
          "name": "purchaseId",
          "type": "uint256"
        }
      ],
      "stateMutability": "nonpayable",
      "type": "function"
    },
    {
      "inputs": [
        {
          "internalType": "address",
          "name": "_ambassador",
          "type": "address"
        },
        {
          "internalType": "uint256",
          "name": "_fromTimestamp",
          "type": "uint256"
        },
        {
          "internalType": "uint256",
          "name": "_toTimestamp",
          "type": "uint256"
        }
      ],
      "name": "getAmbassadorEarningsBreakdown",
      "outputs": [
        {
          "internalType": "uint256",
          "name": "totalCommissions",
          "type": "uint256"
        },
        {
          "internalType": "uint256",
          "name": "transactionCount",
          "type": "uint256"
        },
        {
          "internalType": "uint256",
          "name": "averagePerTransaction",
          "type": "uint256"
        }
      ],
      "stateMutability": "view",
      "type": "function"
    },
    {
      "inputs": [
        {
          "internalType": "address",
          "name": "_ambassador",
          "type": "address"
        }
      ],
      "name": "getCommissionBalance",
      "outputs": [
        {
          "internalType": "uint256",
          "name": "pending",
          "type": "uint256"
        },
        {
          "internalType": "uint256",
          "name": "lifetime",
          "type": "uint256"
        },
        {
          "internalType": "uint256",
          "name": "withdrawn",
          "type": "uint256"
        }
      ],
      "stateMutability": "view",
      "type": "function"
    },
    {
      "inputs": [
        {
          "internalType": "uint256",
          "name": "_purchaseId",
          "type": "uint256"
        }
      ],
      "name": "getPurchaseCommissions",
      "outputs": [
        {
          "components": [
            {
              "internalType": "address",
              "name": "ambassador",
              "type": "address"
            },
            {
              "internalType": "uint256",
              "name": "amount",
              "type": "uint256"
            },
            {
              "internalType": "uint8",
              "name": "level",
              "type": "uint8"
            },
            {
              "internalType": "uint256",
              "name": "purchaseId",
              "type": "uint256"
            },
            {
              "internalType": "uint256",
              "name": "timestamp",
              "type": "uint256"
            }
          ],
          "internalType": "struct LibDiamond.CommissionDistribution[]",
          "name": "",
          "type": "tuple[]"
        }
      ],
      "stateMutability": "view",
      "type": "function"
    },
    {
      "inputs": [
        {
          "internalType": "uint256",
          "name": "_courseId",
          "type": "uint256"
        }
      ],
      "name": "requestCourseRefund",
      "outputs": [],
      "stateMutability": "nonpayable",
      "type": "function"
    },
    {
      "inputs": [],
      "name": "withdrawCommissions",
      "outputs": [],
      "stateMutability": "nonpayable",
      "type": "function"
    }
  ],
  "bytecode": "0x6080806040523461001b57600160005561169890816100218239f35b600080fdfe608080604052600436101561001357600080fd5b600090813560e01c90816341b4e5e614610d8957508063680e139b14610d1f5780639976306414610af2578063bef58cc0146103b5578063c8a26676146102095763e34d1e691461006357600080fd5b3461020657806003193601126102065761007b6110aa565b33815260206000805160206116438339815191528152604082209060018060a01b0380835416156101cd576008830192835493841561018857908560099255016100c684825461109d565b90556000805160206116238339815191525460405163a9059cbb60e01b815233600482015260248101859052918391839160449183918991165af1801561017d57610118918591610150575b50611006565b60405191825242908201527fd97d0a78012aae5166e37224fdef0ca58921d520de73745f9ec0d65ba7060c2460403392a26001815580f35b6101709150833d8511610176575b6101688183610f37565b810190610fee565b38610112565b503d61015e565b6040513d86823e3d90fd5b60405162461bcd60e51b815260048101859052601a60248201527f4e6f20636f6d6d697373696f6e7320746f2077697468647261770000000000006044820152606490fd5b60405162461bcd60e51b81526004810183905260116024820152702737ba1030b71030b6b130b9b9b0b237b960791b6044820152606490fd5b80fd5b503461020657606036600319011261020657610223610eea565b7fe73faffa5bcab50ff8b24161d8feb15dcb77896c58c1b1c0777efe3ca6ebb1875482918291604435916001600160a01b0391602491831690823590805b6102c5575b50505050505082159081156000146102bb57506102a5576102a18282045b604051938493846040919493926060820195825260208201520152565b0390f35b634e487b7160e01b600052601260045260246000fd5b6102a19150610284565b80875260207fe73faffa5bcab50ff8b24161d8feb15dcb77896c58c1b1c0777efe3ca6ebb17e815260046040892001548381106103ae5787106103a8577fe73faffa5bcab50ff8b24161d8feb15dcb77896c58c1b1c0777efe3ca6ebb188905260408720805490885b82811061035d575b5050505b801561034a576000190180610261565b634e487b7160e01b875260116004528387fd5b8588610369838561106b565b505416146103795760010161032e565b610399925061039060019161039f959d9c9361106b565b5001549061109d565b97611049565b97388080610336565b5061033a565b5050610266565b50346102065760a0366003190112610206576103cf610eea565b906024356001600160a01b0381169003610206576084356001600160a01b0381169003610206576103fe6110aa565b60643515610abd576001600160a01b03821615610a88576024356001600160a01b031615610a5157600080516020611623833981519152546040516323b872dd60e01b81526001600160a01b03848116600483015230602483015260648035604484015291926020928492909183918791165af1908115610a46579061048a918391610a2d5750611006565b6104b47fe73faffa5bcab50ff8b24161d8feb15dcb77896c58c1b1c0777efe3ca6ebb18754611049565b90817fe73faffa5bcab50ff8b24161d8feb15dcb77896c58c1b1c0777efe3ca6ebb1875543600019430111610a19576040518060c081011067ffffffffffffffff60c083011117610a055760c0810160405260018060a01b038416815260056020820160018060a01b03602435168152604083016044358152606084016064358152608085019142835260a086019360001943014085528888527fe73faffa5bcab50ff8b24161d8feb15dcb77896c58c1b1c0777efe3ca6ebb17e602052604088209660018060a01b039051166bffffffffffffffffffffffff60a01b9081895416178855600188019160018060a01b0390511690825416179055516002860155516003850155516004840155519101556105ce83610f59565b604435825260205260643560408220556105e783610f92565b60443582526020524260408220556127106106257fe73faffa5bcab50ff8b24161d8feb15dcb77896c58c1b1c0777efe3ca6ebb18c54606435611058565b046127106106567fe73faffa5bcab50ff8b24161d8feb15dcb77896c58c1b1c0777efe3ca6ebb18d54606435611058565b046127106106877fe73faffa5bcab50ff8b24161d8feb15dcb77896c58c1b1c0777efe3ca6ebb18e54606435611058565b046127106106b87fe73faffa5bcab50ff8b24161d8feb15dcb77896c58c1b1c0777efe3ca6ebb18f54606435611058565b6000805160206116238339815191525460405163a9059cbb60e01b81526001600160a01b036024803582166004840152820188905293909204949216906020816044818a865af190811561099d5787916109e6575b50156109a857826084356001600160a01b03166108ef575b7fe73faffa5bcab50ff8b24161d8feb15dcb77896c58c1b1c0777efe3ca6ebb1965460405163a9059cbb60e01b81526001600160a01b039091166004820152602481019190915290602090829060449082908a905af19081156108c157906107949187916108d0575b506110cd565b6107a260643582898961110e565b303b156108cc57604051635c3401a960e11b8152600481018790526001600160a01b0388166024820152858160448183305af180156108c15761088e575b506001949386937f12f1100bb2a278aa123e45ad7ad7b18cfe86e3ee93f913e802484973b6ede9b09360a09360209a604051887f9981dc305a0e3930bec6c1b9e4cc0d77dc49d24bf586ad6b7c79372a323cf73d8c808a1b0360243516938d808b1b0316928061086742606435604435846040919493926060820195825260208201520152565b0390a46040519384528a84015260408301526060820152426080820152a255604051908152f35b67ffffffffffffffff81989698116108ad5760405293959360206107e0565b634e487b7160e01b88526041600452602488fd5b6040513d88823e3d90fd5b8480fd5b6108e9915060203d602011610176576101688183610f37565b3861078e565b5060405163a9059cbb60e01b81526084356001600160a01b03166004820152602481018590526020816044818a865af190811561099d57879161097e575b50156109395782610725565b60405162461bcd60e51b815260206004820152601760248201527f5265766965776572207061796d656e74206661696c65640000000000000000006044820152606490fd5b610997915060203d602011610176576101688183610f37565b3861092d565b6040513d89823e3d90fd5b60405162461bcd60e51b815260206004820152601660248201527510dc99585d1bdc881c185e5b595b9d0819985a5b195960521b6044820152606490fd5b6109ff915060203d602011610176576101688183610f37565b3861070d565b634e487b7160e01b82526041600452602482fd5b634e487b7160e01b81526011600452602490fd5b610170915060203d602011610176576101688183610f37565b6040513d84823e3d90fd5b60405162461bcd60e51b815260206004820152600f60248201526e24b73b30b634b21031b932b0ba37b960891b6044820152606490fd5b60405162461bcd60e51b815260206004820152600d60248201526c24b73b30b634b210313abcb2b960991b6044820152606490fd5b60405162461bcd60e51b815260206004820152600d60248201526c496e76616c696420707269636560981b6044820152606490fd5b503461020657602080600319360112610d1b5760043590610b116110aa565b610b1a33610f59565b8284528152604083205415610ce357610b3233610f92565b8284528152610b45604084205442610fcb565b62015180811015610c815750610b5a33610f59565b82845281526040832054905b610b6f33610f59565b8385528152836040812055610b8333610f92565b8385528152604080852085905560008051602061162383398151915254905163a9059cbb60e01b8152336004820152602481018490529082908290604490829089906001600160a01b03165af1908115610c76578591610c59575b5015610c1c5760405191825242908201527fca163bf5c4c7c06f36c72ab611c8a8e8e225ab91feff1bea9ed2e7b6dd11320960403392a36001815580f35b6064906040519062461bcd60e51b8252600482015260166024820152751499599d5b99081d1c985b9cd9995c8819985a5b195960521b6044820152fd5b610c709150823d8411610176576101688183610f37565b38610bde565b6040513d87823e3d90fd5b6203f4801115610ca757610c9433610f59565b8284528152604083205460011c90610b66565b6064906040519062461bcd60e51b8252600482015260156024820152741499599d5b99081dda5b991bddc8195e1c1a5c9959605a1b6044820152fd5b6064906040519062461bcd60e51b825260048201526011602482015270139bc81c1d5c98da185cd948199bdd5b99607a1b6044820152fd5b5080fd5b5034610206576020366003190112610206576040906001600160a01b03610d44610eea565b1681526000805160206116438339815191526020522060088101546102a160096007840154930154604051938493846040919493926060820195825260208201520152565b82346102065760209182600319360112610d1b5760043582527fe73faffa5bcab50ff8b24161d8feb15dcb77896c58c1b1c0777efe3ca6ebb18883526040822092835467ffffffffffffffff8111610ed657918491926005610df0858360051b0184610f37565b8183528483018094875285872087915b848310610e795750505050506040519280840191818552518092526040840192945b828110610e2f5784840385f35b855180516001600160a01b03168552808301518584015260408082015160ff169086015260608082015190860152608090810151908501529481019460a090930192600101610e22565b838860019260409b9a98999b51610e8f81610f05565b848060a01b038654168152848601548382015260ff600287015416604082015260038601546060820152600486015460808201528152019201920191909795949697610e00565b634e487b7160e01b84526041600452602484fd5b600435906001600160a01b0382168203610f0057565b600080fd5b60a0810190811067ffffffffffffffff821117610f2157604052565b634e487b7160e01b600052604160045260246000fd5b90601f8019910116810190811067ffffffffffffffff821117610f2157604052565b6001600160a01b031660009081527fe73faffa5bcab50ff8b24161d8feb15dcb77896c58c1b1c0777efe3ca6ebb1936020526040902090565b6001600160a01b031660009081527fe73faffa5bcab50ff8b24161d8feb15dcb77896c58c1b1c0777efe3ca6ebb1946020526040902090565b91908203918211610fd857565b634e487b7160e01b600052601160045260246000fd5b90816020910312610f0057518015158103610f005790565b1561100d57565b60405162461bcd60e51b81526020600482015260146024820152731554d110c81d1c985b9cd9995c8819985a5b195960621b6044820152606490fd5b6000198114610fd85760010190565b81810292918115918404141715610fd857565b8054821015611087576000526005602060002091020190600090565b634e487b7160e01b600052603260045260246000fd5b91908201809211610fd857565b6002600054146110bb576002600055565b604051633ee5aeb560e01b8152600490fd5b156110d457565b60405162461bcd60e51b8152602060048201526012602482015271111053c81c185e5b595b9d0819985a5b195960721b6044820152606490fd5b6001600160a01b03918216600081815260008051602061164383398151915260205260409020549394919391929091161561149d57600090815260008051602061164383398151915260205260408120600201549093929060081c6001600160a01b03165b6001600160a01b038116151580611494575b1561148a5760018060a01b03811660005260008051602061164383398151915260205260406000209060ff60128301541661128c575b506002015460081c6001600160a01b03169360ff908116908114610fd85760010191606460ff8416116111ef579193611173565b50505090505b806111fd5750565b600080516020611623833981519152547fe73faffa5bcab50ff8b24161d8feb15dcb77896c58c1b1c0777efe3ca6ebb1965460405163a9059cbb60e01b81526001600160a01b039182166004820152602481019390935260209183911681600081604481015b03925af180156112805761127e916000916108d057506110cd565b565b6040513d6000823e3d90fd5b93906127106112b66112b060ff60028501541660ff600486015460a81c169061150a565b86611058565b0494828611611481575b600882016112cf87825461109d565b9055600782016112e087825461109d565b9055600582016112f186825461109d565b9055836000527fe73faffa5bcab50ff8b24161d8feb15dcb77896c58c1b1c0777efe3ca6ebb18860205260406000206040519061132d82610f05565b6001600160a01b03831682526020820188905260ff8916604083015260608201869052426080830152805468010000000000000000811015610f21576113789160018201815561106b565b91909161146b5760ff946113dd92600460808b9460018060a01b038151166bffffffffffffffffffffffff60a01b85541617845560208101516001850155600284018a6040830151168b19825416179055606081015160038501550151910155610fcb565b9561143c600484015492858460a81c1692604051908152868b166020820152836040820152426060820152877f8ee9508fa448753e1803d93a58b0dd9dfa25c09605dc5d9a42db023ec0dfb87d608060018060a01b03851693a3611578565b908482161161144e575b5050906111bb565b8360a81b9060a81b16908360a81b19161760048201553880611446565b634e487b7160e01b600052600060045260246000fd5b945081946112c0565b50505090506111f5565b50831515611185565b5050600080516020611623833981519152547fe73faffa5bcab50ff8b24161d8feb15dcb77896c58c1b1c0777efe3ca6ebb1965460405163a9059cbb60e01b81526001600160a01b0391821660048201526024810194909452602092508391168160008160448101611263565b60038110156115625760021461155b5760ff1660009081527fe73faffa5bcab50ff8b24161d8feb15dcb77896c58c1b1c0777efe3ca6ebb18a602052604090205480156115545790565b506103e890565b506105dc90565b634e487b7160e01b600052602160045260246000fd5b60009060018060a01b03168152600080516020611643833981519152602052600560408220015490600581527fe73faffa5bcab50ff8b24161d8feb15dcb77896c58c1b1c0777efe3ca6ebb189602052604081205482101561161b576004815260408120548210156116145760038152604081205482101561160d57806002604092522054111561160857600190565b600290565b5050600390565b5050600490565b505060059056fee73faffa5bcab50ff8b24161d8feb15dcb77896c58c1b1c0777efe3ca6ebb195e73faffa5bcab50ff8b24161d8feb15dcb77896c58c1b1c0777efe3ca6ebb17da2646970667358221220c26ae4af3b895d1358cac916c86bad16a0e6abb8445b79af41f8dc616826a30364736f6c63430008180033",
  "linkReferences": {},
  "deployedLinkReferences": {}
}