{
  "_format": "hh-sol-artifact-1",
  "contractName": "RevenueSharingFacet",
  "sourceName": "contracts/RevenueSharingFacet.sol",
  "abi": [
    {
      "inputs": [],
      "name": "ReentrancyGuardReentrantCall",
      "type": "error"
    },
    {
      "anonymous": false,
      "inputs": [
        {
          "indexed": true,
          "internalType": "uint256",
          "name": "purchaseId",
          "type": "uint256"
        },
        {
          "indexed": true,
          "internalType": "address",
          "name": "ambassador",
          "type": "address"
        },
        {
          "indexed": false,
          "internalType": "uint256",
          "name": "amount",
          "type": "uint256"
        },
        {
          "indexed": false,
          "internalType": "uint8",
          "name": "level",
          "type": "uint8"
        },
        {
          "indexed": false,
          "internalType": "uint8",
          "name": "ambassadorLevel",
          "type": "uint8"
        },
        {
          "indexed": false,
          "internalType": "uint256",
          "name": "timestamp",
          "type": "uint256"
        }
      ],
      "name": "CommissionDistributed",
      "type": "event"
    },
    {
      "anonymous": false,
      "inputs": [
        {
          "indexed": true,
          "internalType": "address",
          "name": "ambassador",
          "type": "address"
        },
        {
          "indexed": false,
          "internalType": "uint256",
          "name": "amount",
          "type": "uint256"
        },
        {
          "indexed": false,
          "internalType": "uint256",
          "name": "timestamp",
          "type": "uint256"
        }
      ],
      "name": "CommissionWithdrawn",
      "type": "event"
    },
    {
      "anonymous": false,
      "inputs": [
        {
          "indexed": true,
          "internalType": "uint256",
          "name": "purchaseId",
          "type": "uint256"
        },
        {
          "indexed": true,
          "internalType": "address",
          "name": "buyer",
          "type": "address"
        },
        {
          "indexed": true,
          "internalType": "address",
          "name": "creator",
          "type": "address"
        },
        {
          "indexed": false,
          "internalType": "uint256",
          "name": "courseId",
          "type": "uint256"
        },
        {
          "indexed": false,
          "internalType": "uint256",
          "name": "priceUSDC",
          "type": "uint256"
        },
        {
          "indexed": false,
          "internalType": "uint256",
          "name": "timestamp",
          "type": "uint256"
        }
      ],
      "name": "CoursePurchaseProcessed",
      "type": "event"
    },
    {
      "anonymous": false,
      "inputs": [
        {
          "indexed": true,
          "internalType": "address",
          "name": "buyer",
          "type": "address"
        },
        {
          "indexed": true,
          "internalType": "uint256",
          "name": "courseId",
          "type": "uint256"
        },
        {
          "indexed": false,
          "internalType": "uint256",
          "name": "refundAmount",
          "type": "uint256"
        },
        {
          "indexed": false,
          "internalType": "uint256",
          "name": "timestamp",
          "type": "uint256"
        }
      ],
      "name": "CourseRefunded",
      "type": "event"
    },
    {
      "anonymous": false,
      "inputs": [
        {
          "indexed": true,
          "internalType": "uint256",
          "name": "purchaseId",
          "type": "uint256"
        },
        {
          "indexed": false,
          "internalType": "uint256",
          "name": "creatorShare",
          "type": "uint256"
        },
        {
          "indexed": false,
          "internalType": "uint256",
          "name": "ambassadorShare",
          "type": "uint256"
        },
        {
          "indexed": false,
          "internalType": "uint256",
          "name": "daoShare",
          "type": "uint256"
        },
        {
          "indexed": false,
          "internalType": "uint256",
          "name": "reviewerShare",
          "type": "uint256"
        },
        {
          "indexed": false,
          "internalType": "uint256",
          "name": "timestamp",
          "type": "uint256"
        }
      ],
      "name": "RevenueDistributed",
      "type": "event"
    },
    {
      "inputs": [
        {
          "internalType": "address",
          "name": "_buyer",
          "type": "address"
        },
        {
          "internalType": "address",
          "name": "_creator",
          "type": "address"
        },
        {
          "internalType": "uint256",
          "name": "_courseId",
          "type": "uint256"
        },
        {
          "internalType": "uint256",
          "name": "_priceUSDC",
          "type": "uint256"
        },
        {
          "internalType": "address",
          "name": "_reviewer",
          "type": "address"
        }
      ],
      "name": "coursePurchase",
      "outputs": [
        {
          "internalType": "uint256",
          "name": "purchaseId",
          "type": "uint256"
        }
      ],
      "stateMutability": "nonpayable",
      "type": "function"
    },
    {
      "inputs": [
        {
          "internalType": "address",
          "name": "_ambassador",
          "type": "address"
        },
        {
          "internalType": "uint256",
          "name": "_fromTimestamp",
          "type": "uint256"
        },
        {
          "internalType": "uint256",
          "name": "_toTimestamp",
          "type": "uint256"
        }
      ],
      "name": "getAmbassadorEarningsBreakdown",
      "outputs": [
        {
          "internalType": "uint256",
          "name": "totalCommissions",
          "type": "uint256"
        },
        {
          "internalType": "uint256",
          "name": "transactionCount",
          "type": "uint256"
        },
        {
          "internalType": "uint256",
          "name": "averagePerTransaction",
          "type": "uint256"
        }
      ],
      "stateMutability": "view",
      "type": "function"
    },
    {
      "inputs": [
        {
          "internalType": "address",
          "name": "_ambassador",
          "type": "address"
        }
      ],
      "name": "getCommissionBalance",
      "outputs": [
        {
          "internalType": "uint256",
          "name": "pending",
          "type": "uint256"
        },
        {
          "internalType": "uint256",
          "name": "lifetime",
          "type": "uint256"
        },
        {
          "internalType": "uint256",
          "name": "withdrawn",
          "type": "uint256"
        }
      ],
      "stateMutability": "view",
      "type": "function"
    },
    {
      "inputs": [
        {
          "internalType": "uint256",
          "name": "_purchaseId",
          "type": "uint256"
        }
      ],
      "name": "getPurchaseCommissions",
      "outputs": [
        {
          "components": [
            {
              "internalType": "address",
              "name": "ambassador",
              "type": "address"
            },
            {
              "internalType": "uint256",
              "name": "amount",
              "type": "uint256"
            },
            {
              "internalType": "uint8",
              "name": "level",
              "type": "uint8"
            },
            {
              "internalType": "uint256",
              "name": "purchaseId",
              "type": "uint256"
            },
            {
              "internalType": "uint256",
              "name": "timestamp",
              "type": "uint256"
            }
          ],
          "internalType": "struct LibDiamond.CommissionDistribution[]",
          "name": "",
          "type": "tuple[]"
        }
      ],
      "stateMutability": "view",
      "type": "function"
    },
    {
      "inputs": [
        {
          "internalType": "uint256",
          "name": "_courseId",
          "type": "uint256"
        }
      ],
      "name": "requestCourseRefund",
      "outputs": [],
      "stateMutability": "nonpayable",
      "type": "function"
    },
    {
      "inputs": [],
      "name": "withdrawCommissions",
      "outputs": [],
      "stateMutability": "nonpayable",
      "type": "function"
    }
  ],
  "bytecode": "0x6080806040523461001b5760016000556115ca90816100218239f35b600080fdfe608080604052600436101561001357600080fd5b60003560e01c90816341b4e5e614610cfb57508063680e139b14610c905780639976306414610a66578063bef58cc0146103c2578063c8a26676146102105763e34d1e691461006157600080fd5b3461020b57600036600319011261020b5761007a610fc9565b336000526020600080516020611575833981519152815260406000209060018060a01b0380835416156101d2576008830192835493841561018d5790600060099255016100c8848254610fbc565b90556000805160206115558339815191525460405163a9059cbb60e01b81523360048201526024810185905291839183916044918391600091165af180156101815761011c91600091610154575b50610f25565b60405191825242908201527fd97d0a78012aae5166e37224fdef0ca58921d520de73745f9ec0d65ba7060c2460403392a26001600055005b6101749150833d851161017a575b61016c8183610e6c565b810190610f0d565b38610116565b503d610162565b6040513d6000823e3d90fd5b60405162461bcd60e51b815260048101859052601a60248201527f4e6f20636f6d6d697373696f6e7320746f2077697468647261770000000000006044820152606490fd5b60405162461bcd60e51b81526004810183905260116024820152702737ba1030b71030b6b130b9b9b0b237b960791b6044820152606490fd5b600080fd5b3461020b57606036600319011261020b57610229610e3a565b7fe73faffa5bcab50ff8b24161d8feb15dcb77896c58c1b1c0777efe3ca6ebb187546000918291604435916001600160a01b0391602491831690823590805b6102cb575b505050505050811580156000146102c0576102aa576102a68282045b604051938493846040919493926060820195825260208201520152565b0390f35b634e487b7160e01b600052601260045260246000fd5b506102a66000610289565b8060005260207fe73faffa5bcab50ff8b24161d8feb15dcb77896c58c1b1c0777efe3ca6ebb17e81526004604060002001548381106103bb5787106103b5577fe73faffa5bcab50ff8b24161d8feb15dcb77896c58c1b1c0777efe3ca6ebb188905260406000206000908054915b82811061036a575b5050505b8015610355576000190180610268565b83634e487b7160e01b60005260116004526000fd5b85886103768385610f8a565b5054161461038657600101610339565b6103a6925061039d6001916103ac959c9b93610f8a565b50015490610fbc565b96610f68565b96888080610341565b50610345565b505061026d565b3461020b5760a036600319011261020b576103db610e3a565b6024356001600160a01b038116900361020b576084356001600160a01b038116900361020b57610409610fc9565b60643515610a31576001600160a01b038116156109fc576024356001600160a01b0316156109c557600080516020611555833981519152546040516323b872dd60e01b81526001600160a01b0383811660048301523060248301526064803560448401529192602092849290918391600091165af1801561018157610495916000916109a65750610f25565b6104bf7fe73faffa5bcab50ff8b24161d8feb15dcb77896c58c1b1c0777efe3ca6ebb18754610f68565b807fe73faffa5bcab50ff8b24161d8feb15dcb77896c58c1b1c0777efe3ca6ebb1875543600019430111610990576040518060c081011067ffffffffffffffff60c08301111761097a5760c0810160405260018060a01b038316815260056020820160018060a01b03602435168152604083016044358152606084016064358152608085019142835260a08601936000194301408552876000527fe73faffa5bcab50ff8b24161d8feb15dcb77896c58c1b1c0777efe3ca6ebb17e60205260406000209660018060a01b039051166bffffffffffffffffffffffff60a01b9081895416178855600188019160018060a01b0390511690825416179055516002860155516003850155516004840155519101556105da82610e8e565b6044356000526020526064356040600020556105f582610ec7565b604435600052602052426040600020556127106106357fe73faffa5bcab50ff8b24161d8feb15dcb77896c58c1b1c0777efe3ca6ebb18c54606435610f77565b04916127106106677fe73faffa5bcab50ff8b24161d8feb15dcb77896c58c1b1c0777efe3ca6ebb18d54606435610f77565b04926127106106997fe73faffa5bcab50ff8b24161d8feb15dcb77896c58c1b1c0777efe3ca6ebb18e54606435610f77565b046127106106ca7fe73faffa5bcab50ff8b24161d8feb15dcb77896c58c1b1c0777efe3ca6ebb18f54606435610f77565b6000805160206115558339815191525460405163a9059cbb60e01b81526001600160a01b03602480358216600484015282018790529091169492909104906020816044816000895af19081156101815760009161095b575b501561091d576084356001600160a01b0316610875575b7fe73faffa5bcab50ff8b24161d8feb15dcb77896c58c1b1c0777efe3ca6ebb1965460405163a9059cbb60e01b81526001600160a01b0390911660048201526024810184905293602090859060449082906000905af19283156101815760209787966107d160a0967f12f1100bb2a278aa123e45ad7ad7b18cfe86e3ee93f913e802484973b6ede9b098600091610858575b50610fec565b6107df60643583838b61102d565b604080516044358152606435602082015242918101919091526001871b60001901602435811692169089907f9981dc305a0e3930bec6c1b9e4cc0d77dc49d24bf586ad6b7c79372a323cf73d90606090a46040519384528884015260408301526060820152426080820152a26001600055604051908152f35b61086f91508c3d8e1161017a5761016c8183610e6c565b8c6107cb565b60405163a9059cbb60e01b81526084356001600160a01b03166004820152602481018290526020816044816000895af1908115610181576000916108fe575b506107395760405162461bcd60e51b815260206004820152601760248201527f5265766965776572207061796d656e74206661696c65640000000000000000006044820152606490fd5b610917915060203d60201161017a5761016c8183610e6c565b886108b4565b60405162461bcd60e51b815260206004820152601660248201527510dc99585d1bdc881c185e5b595b9d0819985a5b195960521b6044820152606490fd5b610974915060203d60201161017a5761016c8183610e6c565b88610722565b634e487b7160e01b600052604160045260246000fd5b634e487b7160e01b600052601160045260246000fd5b6109bf915060203d60201161017a5761016c8183610e6c565b83610116565b60405162461bcd60e51b815260206004820152600f60248201526e24b73b30b634b21031b932b0ba37b960891b6044820152606490fd5b60405162461bcd60e51b815260206004820152600d60248201526c24b73b30b634b210313abcb2b960991b6044820152606490fd5b60405162461bcd60e51b815260206004820152600d60248201526c496e76616c696420707269636560981b6044820152606490fd5b3461020b5760208060031936011261020b5760043590610a84610fc9565b610a8d33610e8e565b82600052815260406000205415610c5857610aa733610ec7565b826000528152610abc60406000205442610f00565b62015180811015610bf45750610ad133610e8e565b826000528152604060002054905b610ae833610e8e565b83600052815260006040812055610afe33610ec7565b6000848152908252604080822082905560008051602061155583398151915254905163a9059cbb60e01b81523360048201526024810185905291839183916044918391906001600160a01b03165af190811561018157600091610bd7575b5015610b9a5760405191825242908201527fca163bf5c4c7c06f36c72ab611c8a8e8e225ab91feff1bea9ed2e7b6dd11320960403392a36001600055005b6064906040519062461bcd60e51b8252600482015260166024820152751499599d5b99081d1c985b9cd9995c8819985a5b195960521b6044820152fd5b610bee9150823d841161017a5761016c8183610e6c565b84610b5c565b6203f4801115610c1c57610c0733610e8e565b82600052815260406000205460011c90610adf565b6064906040519062461bcd60e51b8252600482015260156024820152741499599d5b99081dda5b991bddc8195e1c1a5c9959605a1b6044820152fd5b6064906040519062461bcd60e51b825260048201526011602482015270139bc81c1d5c98da185cd948199bdd5b99607a1b6044820152fd5b3461020b57602036600319011261020b576001600160a01b03610cb1610e3a565b16600052600080516020611575833981519152602052604060002060088101546102a660096007840154930154604051938493846040919493926060820195825260208201520152565b3461020b5760208060031936011261020b576004356000527fe73faffa5bcab50ff8b24161d8feb15dcb77896c58c1b1c0777efe3ca6ebb1888152604060002091825467ffffffffffffffff811161097a576005610d5e848360051b0184610e6c565b8183528383018095600052846000206000915b848310610de757604080518881528751818a018190528a928201908a60005b828110610d9d5784840385f35b855180516001600160a01b03168552808301518584015260408082015160ff169086015260608082015190860152608090810151908501529481019460a090930192600101610d90565b8387600192604051610df881610e50565b848060a01b038654168152848601548382015260ff60028701541660408201526003860154606082015260048601546080820152815201920192019190610d71565b600435906001600160a01b038216820361020b57565b60a0810190811067ffffffffffffffff82111761097a57604052565b90601f8019910116810190811067ffffffffffffffff82111761097a57604052565b6001600160a01b031660009081527fe73faffa5bcab50ff8b24161d8feb15dcb77896c58c1b1c0777efe3ca6ebb1936020526040902090565b6001600160a01b031660009081527fe73faffa5bcab50ff8b24161d8feb15dcb77896c58c1b1c0777efe3ca6ebb1946020526040902090565b9190820391821161099057565b9081602091031261020b5751801515810361020b5790565b15610f2c57565b60405162461bcd60e51b81526020600482015260146024820152731554d110c81d1c985b9cd9995c8819985a5b195960621b6044820152606490fd5b60001981146109905760010190565b8181029291811591840414171561099057565b8054821015610fa6576000526005602060002091020190600090565b634e487b7160e01b600052603260045260246000fd5b9190820180921161099057565b600260005414610fda576002600055565b604051633ee5aeb560e01b8152600490fd5b15610ff357565b60405162461bcd60e51b8152602060048201526012602482015271111053c81c185e5b595b9d0819985a5b195960721b6044820152606490fd5b6001600160a01b0391821660008181526000805160206115758339815191526020526040902054939491939192909116156113cf57600090815260008051602061157583398151915260205260408120600201549093929060081c6001600160a01b03165b6001600160a01b0381161515806113c6575b156113bc5760018060a01b03811660005260008051602061157583398151915260205260406000209060ff6012830154166111be575b506002015460081c6001600160a01b03169360ff9081169081146109905760010191606460ff84161161110e579193611092565b50505090505b8061111c5750565b600080516020611555833981519152547fe73faffa5bcab50ff8b24161d8feb15dcb77896c58c1b1c0777efe3ca6ebb1965460405163a9059cbb60e01b81526001600160a01b039182166004820152602481019390935260209183911681600081604481015b03925af180156101815761119d9160009161119f5750610fec565b565b6111b8915060203d60201161017a5761016c8183610e6c565b386107cb565b93906127106111e86111e260ff60028501541660ff600486015460a81c169061143c565b86610f77565b04948286116113b3575b60088201611201878254610fbc565b905560078201611212878254610fbc565b905560058201611223868254610fbc565b9055836000527fe73faffa5bcab50ff8b24161d8feb15dcb77896c58c1b1c0777efe3ca6ebb18860205260406000206040519061125f82610e50565b6001600160a01b03831682526020820188905260ff891660408301526060820186905242608083015280546801000000000000000081101561097a576112aa91600182018155610f8a565b91909161139d5760ff9461130f92600460808b9460018060a01b038151166bffffffffffffffffffffffff60a01b85541617845560208101516001850155600284018a6040830151168b19825416179055606081015160038501550151910155610f00565b9561136e600484015492858460a81c1692604051908152868b166020820152836040820152426060820152877f8ee9508fa448753e1803d93a58b0dd9dfa25c09605dc5d9a42db023ec0dfb87d608060018060a01b03851693a36114aa565b9084821611611380575b5050906110da565b8360a81b9060a81b16908360a81b19161760048201553880611378565b634e487b7160e01b600052600060045260246000fd5b945081946111f2565b5050509050611114565b508315156110a4565b5050600080516020611555833981519152547fe73faffa5bcab50ff8b24161d8feb15dcb77896c58c1b1c0777efe3ca6ebb1965460405163a9059cbb60e01b81526001600160a01b0391821660048201526024810194909452602092508391168160008160448101611182565b60038110156114945760021461148d5760ff1660009081527fe73faffa5bcab50ff8b24161d8feb15dcb77896c58c1b1c0777efe3ca6ebb18a602052604090205480156114865790565b506103e890565b506105dc90565b634e487b7160e01b600052602160045260246000fd5b60009060018060a01b03168152600080516020611575833981519152602052600560408220015490600581527fe73faffa5bcab50ff8b24161d8feb15dcb77896c58c1b1c0777efe3ca6ebb189602052604081205482101561154d576004815260408120548210156115465760038152604081205482101561153f57806002604092522054111561153a57600190565b600290565b5050600390565b5050600490565b505060059056fee73faffa5bcab50ff8b24161d8feb15dcb77896c58c1b1c0777efe3ca6ebb195e73faffa5bcab50ff8b24161d8feb15dcb77896c58c1b1c0777efe3ca6ebb17da26469706673582212205d6aa5c54eb79a5cae1b85d746e0e53127f6bdc5bb9a398019b33caabeb44dc964736f6c63430008180033",
  "linkReferences": {},
  "deployedLinkReferences": {}
}