{
  "_format": "hh-sol-artifact-1",
  "contractName": "Ecosystem",
  "sourceName": "contracts/Ecosystem Contracts/Ecosystem.sol",
  "abi": [
    {
      "inputs": [
        {
          "internalType": "address[]",
          "name": "_reviewers",
          "type": "address[]"
        }
      ],
      "stateMutability": "nonpayable",
      "type": "constructor"
    },
    {
      "inputs": [],
      "name": "AccessControlBadConfirmation",
      "type": "error"
    },
    {
      "inputs": [
        {
          "internalType": "address",
          "name": "account",
          "type": "address"
        },
        {
          "internalType": "bytes32",
          "name": "neededRole",
          "type": "bytes32"
        }
      ],
      "name": "AccessControlUnauthorizedAccount",
      "type": "error"
    },
    {
      "inputs": [
        {
          "internalType": "address",
          "name": "spender",
          "type": "address"
        },
        {
          "internalType": "uint256",
          "name": "allowance",
          "type": "uint256"
        },
        {
          "internalType": "uint256",
          "name": "needed",
          "type": "uint256"
        }
      ],
      "name": "ERC20InsufficientAllowance",
      "type": "error"
    },
    {
      "inputs": [
        {
          "internalType": "address",
          "name": "sender",
          "type": "address"
        },
        {
          "internalType": "uint256",
          "name": "balance",
          "type": "uint256"
        },
        {
          "internalType": "uint256",
          "name": "needed",
          "type": "uint256"
        }
      ],
      "name": "ERC20InsufficientBalance",
      "type": "error"
    },
    {
      "inputs": [
        {
          "internalType": "address",
          "name": "approver",
          "type": "address"
        }
      ],
      "name": "ERC20InvalidApprover",
      "type": "error"
    },
    {
      "inputs": [
        {
          "internalType": "address",
          "name": "receiver",
          "type": "address"
        }
      ],
      "name": "ERC20InvalidReceiver",
      "type": "error"
    },
    {
      "inputs": [
        {
          "internalType": "address",
          "name": "sender",
          "type": "address"
        }
      ],
      "name": "ERC20InvalidSender",
      "type": "error"
    },
    {
      "inputs": [
        {
          "internalType": "address",
          "name": "spender",
          "type": "address"
        }
      ],
      "name": "ERC20InvalidSpender",
      "type": "error"
    },
    {
      "inputs": [],
      "name": "ReentrancyGuardReentrantCall",
      "type": "error"
    },
    {
      "anonymous": false,
      "inputs": [
        {
          "indexed": true,
          "internalType": "address",
          "name": "owner",
          "type": "address"
        },
        {
          "indexed": true,
          "internalType": "address",
          "name": "spender",
          "type": "address"
        },
        {
          "indexed": false,
          "internalType": "uint256",
          "name": "value",
          "type": "uint256"
        }
      ],
      "name": "Approval",
      "type": "event"
    },
    {
      "anonymous": false,
      "inputs": [
        {
          "indexed": true,
          "internalType": "address",
          "name": "_account",
          "type": "address"
        },
        {
          "indexed": false,
          "internalType": "uint256",
          "name": "_amount",
          "type": "uint256"
        }
      ],
      "name": "BurnSuccess",
      "type": "event"
    },
    {
      "anonymous": false,
      "inputs": [
        {
          "indexed": true,
          "internalType": "uint256",
          "name": "_courseID",
          "type": "uint256"
        },
        {
          "indexed": true,
          "internalType": "string",
          "name": "_courseName",
          "type": "string"
        },
        {
          "indexed": false,
          "internalType": "bool",
          "name": "_approved",
          "type": "bool"
        }
      ],
      "name": "CourseCreationSuccess",
      "type": "event"
    },
    {
      "anonymous": false,
      "inputs": [
        {
          "indexed": true,
          "internalType": "address",
          "name": "_to",
          "type": "address"
        },
        {
          "indexed": true,
          "internalType": "uint256",
          "name": "_amount",
          "type": "uint256"
        }
      ],
      "name": "EcosystemPoolUpdate",
      "type": "event"
    },
    {
      "anonymous": false,
      "inputs": [
        {
          "indexed": true,
          "internalType": "address",
          "name": "_to",
          "type": "address"
        },
        {
          "indexed": true,
          "internalType": "uint256",
          "name": "_amount",
          "type": "uint256"
        }
      ],
      "name": "MintSuccess",
      "type": "event"
    },
    {
      "anonymous": false,
      "inputs": [
        {
          "indexed": true,
          "internalType": "uint256",
          "name": "proposalId",
          "type": "uint256"
        },
        {
          "indexed": false,
          "internalType": "address",
          "name": "approver",
          "type": "address"
        }
      ],
      "name": "MultiSigProposalApproved",
      "type": "event"
    },
    {
      "anonymous": false,
      "inputs": [
        {
          "indexed": true,
          "internalType": "uint256",
          "name": "proposalId",
          "type": "uint256"
        },
        {
          "indexed": false,
          "internalType": "address",
          "name": "proposer",
          "type": "address"
        }
      ],
      "name": "MultiSigProposalCreated",
      "type": "event"
    },
    {
      "anonymous": false,
      "inputs": [
        {
          "indexed": true,
          "internalType": "uint256",
          "name": "proposalId",
          "type": "uint256"
        }
      ],
      "name": "MultiSigProposalExecuted",
      "type": "event"
    },
    {
      "anonymous": false,
      "inputs": [
        {
          "indexed": true,
          "internalType": "address",
          "name": "reviewer",
          "type": "address"
        }
      ],
      "name": "ReviewerAddedToPool",
      "type": "event"
    },
    {
      "anonymous": false,
      "inputs": [
        {
          "indexed": true,
          "internalType": "address",
          "name": "reviewer",
          "type": "address"
        }
      ],
      "name": "ReviewerRemovedFromPool",
      "type": "event"
    },
    {
      "anonymous": false,
      "inputs": [
        {
          "indexed": true,
          "internalType": "uint256",
          "name": "courseId",
          "type": "uint256"
        },
        {
          "indexed": false,
          "internalType": "address[]",
          "name": "reviewers",
          "type": "address[]"
        }
      ],
      "name": "ReviewersSelected",
      "type": "event"
    },
    {
      "anonymous": false,
      "inputs": [
        {
          "indexed": true,
          "internalType": "bytes32",
          "name": "role",
          "type": "bytes32"
        },
        {
          "indexed": true,
          "internalType": "bytes32",
          "name": "previousAdminRole",
          "type": "bytes32"
        },
        {
          "indexed": true,
          "internalType": "bytes32",
          "name": "newAdminRole",
          "type": "bytes32"
        }
      ],
      "name": "RoleAdminChanged",
      "type": "event"
    },
    {
      "anonymous": false,
      "inputs": [
        {
          "indexed": true,
          "internalType": "bytes32",
          "name": "role",
          "type": "bytes32"
        },
        {
          "indexed": true,
          "internalType": "address",
          "name": "account",
          "type": "address"
        },
        {
          "indexed": true,
          "internalType": "address",
          "name": "sender",
          "type": "address"
        }
      ],
      "name": "RoleGranted",
      "type": "event"
    },
    {
      "anonymous": false,
      "inputs": [
        {
          "indexed": true,
          "internalType": "bytes32",
          "name": "role",
          "type": "bytes32"
        },
        {
          "indexed": true,
          "internalType": "address",
          "name": "account",
          "type": "address"
        },
        {
          "indexed": true,
          "internalType": "address",
          "name": "sender",
          "type": "address"
        }
      ],
      "name": "RoleRevoked",
      "type": "event"
    },
    {
      "anonymous": false,
      "inputs": [
        {
          "indexed": true,
          "internalType": "address",
          "name": "from",
          "type": "address"
        },
        {
          "indexed": true,
          "internalType": "address",
          "name": "to",
          "type": "address"
        },
        {
          "indexed": false,
          "internalType": "uint256",
          "name": "value",
          "type": "uint256"
        }
      ],
      "name": "Transfer",
      "type": "event"
    },
    {
      "inputs": [],
      "name": "COURSE_OWNER_ROLE",
      "outputs": [
        {
          "internalType": "bytes32",
          "name": "",
          "type": "bytes32"
        }
      ],
      "stateMutability": "view",
      "type": "function"
    },
    {
      "inputs": [],
      "name": "CREATE_COURSE_REWARD",
      "outputs": [
        {
          "internalType": "uint256",
          "name": "",
          "type": "uint256"
        }
      ],
      "stateMutability": "view",
      "type": "function"
    },
    {
      "inputs": [],
      "name": "DEFAULT_ADMIN_ROLE",
      "outputs": [
        {
          "internalType": "bytes32",
          "name": "",
          "type": "bytes32"
        }
      ],
      "stateMutability": "view",
      "type": "function"
    },
    {
      "inputs": [],
      "name": "ECOSYSTEM_POOL",
      "outputs": [
        {
          "internalType": "uint256",
          "name": "",
          "type": "uint256"
        }
      ],
      "stateMutability": "view",
      "type": "function"
    },
    {
      "inputs": [],
      "name": "ENROLLMENT_REWARD",
      "outputs": [
        {
          "internalType": "uint256",
          "name": "",
          "type": "uint256"
        }
      ],
      "stateMutability": "view",
      "type": "function"
    },
    {
      "inputs": [],
      "name": "MAX_SCORE",
      "outputs": [
        {
          "internalType": "uint256",
          "name": "",
          "type": "uint256"
        }
      ],
      "stateMutability": "view",
      "type": "function"
    },
    {
      "inputs": [],
      "name": "MAX_SUPPLY",
      "outputs": [
        {
          "internalType": "uint256",
          "name": "",
          "type": "uint256"
        }
      ],
      "stateMutability": "view",
      "type": "function"
    },
    {
      "inputs": [],
      "name": "MIN_APPROVAL_SCORE",
      "outputs": [
        {
          "internalType": "uint256",
          "name": "",
          "type": "uint256"
        }
      ],
      "stateMutability": "view",
      "type": "function"
    },
    {
      "inputs": [],
      "name": "MULTISIG_APPROVER",
      "outputs": [
        {
          "internalType": "bytes32",
          "name": "",
          "type": "bytes32"
        }
      ],
      "stateMutability": "view",
      "type": "function"
    },
    {
      "inputs": [],
      "name": "REQUIRED_APPROVALS",
      "outputs": [
        {
          "internalType": "uint256",
          "name": "",
          "type": "uint256"
        }
      ],
      "stateMutability": "view",
      "type": "function"
    },
    {
      "inputs": [],
      "name": "REVIEWER_ROLE",
      "outputs": [
        {
          "internalType": "bytes32",
          "name": "",
          "type": "bytes32"
        }
      ],
      "stateMutability": "view",
      "type": "function"
    },
    {
      "inputs": [
        {
          "internalType": "address",
          "name": "",
          "type": "address"
        }
      ],
      "name": "accountCourses",
      "outputs": [
        {
          "internalType": "uint256",
          "name": "courseCount",
          "type": "uint256"
        }
      ],
      "stateMutability": "view",
      "type": "function"
    },
    {
      "inputs": [
        {
          "internalType": "address",
          "name": "newReviewer",
          "type": "address"
        }
      ],
      "name": "addReviewer",
      "outputs": [],
      "stateMutability": "nonpayable",
      "type": "function"
    },
    {
      "inputs": [
        {
          "internalType": "address",
          "name": "owner",
          "type": "address"
        },
        {
          "internalType": "address",
          "name": "spender",
          "type": "address"
        }
      ],
      "name": "allowance",
      "outputs": [
        {
          "internalType": "uint256",
          "name": "",
          "type": "uint256"
        }
      ],
      "stateMutability": "view",
      "type": "function"
    },
    {
      "inputs": [
        {
          "internalType": "address",
          "name": "",
          "type": "address"
        },
        {
          "internalType": "uint256",
          "name": "",
          "type": "uint256"
        }
      ],
      "name": "approvals",
      "outputs": [
        {
          "internalType": "bool",
          "name": "",
          "type": "bool"
        }
      ],
      "stateMutability": "view",
      "type": "function"
    },
    {
      "inputs": [
        {
          "internalType": "address",
          "name": "spender",
          "type": "address"
        },
        {
          "internalType": "uint256",
          "name": "value",
          "type": "uint256"
        }
      ],
      "name": "approve",
      "outputs": [
        {
          "internalType": "bool",
          "name": "",
          "type": "bool"
        }
      ],
      "stateMutability": "nonpayable",
      "type": "function"
    },
    {
      "inputs": [
        {
          "internalType": "uint256",
          "name": "_courseId",
          "type": "uint256"
        }
      ],
      "name": "approveCourse",
      "outputs": [],
      "stateMutability": "nonpayable",
      "type": "function"
    },
    {
      "inputs": [
        {
          "internalType": "uint256",
          "name": "_proposalId",
          "type": "uint256"
        }
      ],
      "name": "approveMultiSigProposal",
      "outputs": [],
      "stateMutability": "nonpayable",
      "type": "function"
    },
    {
      "inputs": [
        {
          "internalType": "address",
          "name": "account",
          "type": "address"
        }
      ],
      "name": "balanceOf",
      "outputs": [
        {
          "internalType": "uint256",
          "name": "",
          "type": "uint256"
        }
      ],
      "stateMutability": "view",
      "type": "function"
    },
    {
      "inputs": [
        {
          "internalType": "uint256",
          "name": "",
          "type": "uint256"
        }
      ],
      "name": "chapter",
      "outputs": [
        {
          "internalType": "uint256",
          "name": "courseId",
          "type": "uint256"
        },
        {
          "internalType": "uint256",
          "name": "chapterId",
          "type": "uint256"
        },
        {
          "internalType": "string",
          "name": "chapterName",
          "type": "string"
        },
        {
          "internalType": "uint256",
          "name": "duration",
          "type": "uint256"
        },
        {
          "internalType": "bool",
          "name": "exists",
          "type": "bool"
        }
      ],
      "stateMutability": "view",
      "type": "function"
    },
    {
      "inputs": [
        {
          "internalType": "uint256",
          "name": "",
          "type": "uint256"
        },
        {
          "internalType": "uint256",
          "name": "",
          "type": "uint256"
        }
      ],
      "name": "chapterLessons",
      "outputs": [
        {
          "internalType": "string",
          "name": "",
          "type": "string"
        }
      ],
      "stateMutability": "view",
      "type": "function"
    },
    {
      "inputs": [
        {
          "internalType": "uint256",
          "name": "",
          "type": "uint256"
        },
        {
          "internalType": "uint256",
          "name": "",
          "type": "uint256"
        }
      ],
      "name": "courseChapters",
      "outputs": [
        {
          "internalType": "uint256",
          "name": "courseId",
          "type": "uint256"
        },
        {
          "internalType": "uint256",
          "name": "chapterId",
          "type": "uint256"
        },
        {
          "internalType": "string",
          "name": "chapterName",
          "type": "string"
        },
        {
          "internalType": "uint256",
          "name": "duration",
          "type": "uint256"
        },
        {
          "internalType": "bool",
          "name": "exists",
          "type": "bool"
        }
      ],
      "stateMutability": "view",
      "type": "function"
    },
    {
      "inputs": [],
      "name": "courseCount",
      "outputs": [
        {
          "internalType": "uint256",
          "name": "",
          "type": "uint256"
        }
      ],
      "stateMutability": "view",
      "type": "function"
    },
    {
      "inputs": [
        {
          "internalType": "uint256",
          "name": "",
          "type": "uint256"
        }
      ],
      "name": "courseObject",
      "outputs": [
        {
          "internalType": "uint256",
          "name": "courseId",
          "type": "uint256"
        },
        {
          "internalType": "string",
          "name": "courseName",
          "type": "string"
        },
        {
          "internalType": "string",
          "name": "description",
          "type": "string"
        },
        {
          "internalType": "bool",
          "name": "approved",
          "type": "bool"
        },
        {
          "internalType": "uint256",
          "name": "approvalCount",
          "type": "uint256"
        },
        {
          "internalType": "address",
          "name": "creator",
          "type": "address"
        },
        {
          "internalType": "bool",
          "name": "exists",
          "type": "bool"
        },
        {
          "internalType": "enum Ecosystem.DifficultyLevel",
          "name": "difficultyLevel",
          "type": "uint8"
        }
      ],
      "stateMutability": "view",
      "type": "function"
    },
    {
      "inputs": [
        {
          "internalType": "uint256",
          "name": "",
          "type": "uint256"
        }
      ],
      "name": "courseReviewInitiated",
      "outputs": [
        {
          "internalType": "bool",
          "name": "",
          "type": "bool"
        }
      ],
      "stateMutability": "view",
      "type": "function"
    },
    {
      "inputs": [
        {
          "internalType": "uint256",
          "name": "",
          "type": "uint256"
        },
        {
          "internalType": "uint256",
          "name": "",
          "type": "uint256"
        }
      ],
      "name": "courseReviewers",
      "outputs": [
        {
          "internalType": "address",
          "name": "",
          "type": "address"
        }
      ],
      "stateMutability": "view",
      "type": "function"
    },
    {
      "inputs": [
        {
          "internalType": "string",
          "name": "_courseName",
          "type": "string"
        },
        {
          "internalType": "string",
          "name": "_description",
          "type": "string"
        },
        {
          "internalType": "enum Ecosystem.DifficultyLevel",
          "name": "_difficultyLevel",
          "type": "uint8"
        }
      ],
      "name": "createCourse",
      "outputs": [
        {
          "internalType": "bool",
          "name": "",
          "type": "bool"
        }
      ],
      "stateMutability": "nonpayable",
      "type": "function"
    },
    {
      "inputs": [],
      "name": "decimals",
      "outputs": [
        {
          "internalType": "uint8",
          "name": "",
          "type": "uint8"
        }
      ],
      "stateMutability": "view",
      "type": "function"
    },
    {
      "inputs": [],
      "name": "ecosystemPoolSupply",
      "outputs": [
        {
          "internalType": "uint256",
          "name": "",
          "type": "uint256"
        }
      ],
      "stateMutability": "view",
      "type": "function"
    },
    {
      "inputs": [],
      "name": "getAllCourses",
      "outputs": [
        {
          "components": [
            {
              "internalType": "uint256",
              "name": "courseId",
              "type": "uint256"
            },
            {
              "internalType": "string",
              "name": "courseName",
              "type": "string"
            },
            {
              "internalType": "string",
              "name": "description",
              "type": "string"
            },
            {
              "internalType": "bool",
              "name": "approved",
              "type": "bool"
            },
            {
              "internalType": "uint256",
              "name": "approvalCount",
              "type": "uint256"
            },
            {
              "internalType": "address",
              "name": "creator",
              "type": "address"
            },
            {
              "internalType": "bool",
              "name": "exists",
              "type": "bool"
            },
            {
              "internalType": "address[]",
              "name": "enrolledStudents",
              "type": "address[]"
            },
            {
              "internalType": "enum Ecosystem.DifficultyLevel",
              "name": "difficultyLevel",
              "type": "uint8"
            }
          ],
          "internalType": "struct Ecosystem.Course[]",
          "name": "",
          "type": "tuple[]"
        }
      ],
      "stateMutability": "view",
      "type": "function"
    },
    {
      "inputs": [
        {
          "internalType": "uint256",
          "name": "courseId",
          "type": "uint256"
        }
      ],
      "name": "getCourseReviewers",
      "outputs": [
        {
          "internalType": "address[]",
          "name": "",
          "type": "address[]"
        }
      ],
      "stateMutability": "view",
      "type": "function"
    },
    {
      "inputs": [],
      "name": "getCurrentEcosystemPoolSupply",
      "outputs": [
        {
          "internalType": "uint256",
          "name": "",
          "type": "uint256"
        }
      ],
      "stateMutability": "view",
      "type": "function"
    },
    {
      "inputs": [
        {
          "internalType": "bytes32",
          "name": "role",
          "type": "bytes32"
        }
      ],
      "name": "getRoleAdmin",
      "outputs": [
        {
          "internalType": "bytes32",
          "name": "",
          "type": "bytes32"
        }
      ],
      "stateMutability": "view",
      "type": "function"
    },
    {
      "inputs": [
        {
          "internalType": "bytes32",
          "name": "role",
          "type": "bytes32"
        },
        {
          "internalType": "address",
          "name": "account",
          "type": "address"
        }
      ],
      "name": "grantRole",
      "outputs": [],
      "stateMutability": "nonpayable",
      "type": "function"
    },
    {
      "inputs": [
        {
          "internalType": "bytes32",
          "name": "role",
          "type": "bytes32"
        },
        {
          "internalType": "address",
          "name": "account",
          "type": "address"
        }
      ],
      "name": "hasRole",
      "outputs": [
        {
          "internalType": "bool",
          "name": "",
          "type": "bool"
        }
      ],
      "stateMutability": "view",
      "type": "function"
    },
    {
      "inputs": [
        {
          "internalType": "uint256",
          "name": "",
          "type": "uint256"
        },
        {
          "internalType": "address",
          "name": "",
          "type": "address"
        }
      ],
      "name": "isEnrolled",
      "outputs": [
        {
          "internalType": "bool",
          "name": "",
          "type": "bool"
        }
      ],
      "stateMutability": "view",
      "type": "function"
    },
    {
      "inputs": [
        {
          "internalType": "address",
          "name": "",
          "type": "address"
        }
      ],
      "name": "isInReviewerPool",
      "outputs": [
        {
          "internalType": "bool",
          "name": "",
          "type": "bool"
        }
      ],
      "stateMutability": "view",
      "type": "function"
    },
    {
      "inputs": [
        {
          "internalType": "address",
          "name": "account",
          "type": "address"
        }
      ],
      "name": "isReviewer",
      "outputs": [
        {
          "internalType": "bool",
          "name": "",
          "type": "bool"
        }
      ],
      "stateMutability": "view",
      "type": "function"
    },
    {
      "inputs": [
        {
          "internalType": "uint256",
          "name": "",
          "type": "uint256"
        }
      ],
      "name": "lesson",
      "outputs": [
        {
          "internalType": "uint256",
          "name": "chapterId",
          "type": "uint256"
        },
        {
          "internalType": "uint256",
          "name": "lessonId",
          "type": "uint256"
        },
        {
          "internalType": "string",
          "name": "lessonName",
          "type": "string"
        },
        {
          "internalType": "string",
          "name": "lessonContent",
          "type": "string"
        },
        {
          "internalType": "uint256",
          "name": "resourceCount",
          "type": "uint256"
        },
        {
          "internalType": "bool",
          "name": "exists",
          "type": "bool"
        }
      ],
      "stateMutability": "view",
      "type": "function"
    },
    {
      "inputs": [
        {
          "internalType": "uint256",
          "name": "",
          "type": "uint256"
        }
      ],
      "name": "listOfChapters",
      "outputs": [
        {
          "internalType": "uint256",
          "name": "courseId",
          "type": "uint256"
        },
        {
          "internalType": "uint256",
          "name": "chapterId",
          "type": "uint256"
        },
        {
          "internalType": "string",
          "name": "chapterName",
          "type": "string"
        },
        {
          "internalType": "uint256",
          "name": "duration",
          "type": "uint256"
        },
        {
          "internalType": "bool",
          "name": "exists",
          "type": "bool"
        }
      ],
      "stateMutability": "view",
      "type": "function"
    },
    {
      "inputs": [
        {
          "internalType": "uint256",
          "name": "",
          "type": "uint256"
        }
      ],
      "name": "listOfCourses",
      "outputs": [
        {
          "internalType": "uint256",
          "name": "courseId",
          "type": "uint256"
        },
        {
          "internalType": "string",
          "name": "courseName",
          "type": "string"
        },
        {
          "internalType": "string",
          "name": "description",
          "type": "string"
        },
        {
          "internalType": "bool",
          "name": "approved",
          "type": "bool"
        },
        {
          "internalType": "uint256",
          "name": "approvalCount",
          "type": "uint256"
        },
        {
          "internalType": "address",
          "name": "creator",
          "type": "address"
        },
        {
          "internalType": "bool",
          "name": "exists",
          "type": "bool"
        },
        {
          "internalType": "enum Ecosystem.DifficultyLevel",
          "name": "difficultyLevel",
          "type": "uint8"
        }
      ],
      "stateMutability": "view",
      "type": "function"
    },
    {
      "inputs": [
        {
          "internalType": "uint256",
          "name": "",
          "type": "uint256"
        }
      ],
      "name": "listOfLessons",
      "outputs": [
        {
          "internalType": "uint256",
          "name": "chapterId",
          "type": "uint256"
        },
        {
          "internalType": "uint256",
          "name": "lessonId",
          "type": "uint256"
        },
        {
          "internalType": "string",
          "name": "lessonName",
          "type": "string"
        },
        {
          "internalType": "string",
          "name": "lessonContent",
          "type": "string"
        },
        {
          "internalType": "uint256",
          "name": "resourceCount",
          "type": "uint256"
        },
        {
          "internalType": "bool",
          "name": "exists",
          "type": "bool"
        }
      ],
      "stateMutability": "view",
      "type": "function"
    },
    {
      "inputs": [
        {
          "internalType": "uint256",
          "name": "",
          "type": "uint256"
        }
      ],
      "name": "listOfQuestions",
      "outputs": [
        {
          "internalType": "uint256",
          "name": "quizId",
          "type": "uint256"
        },
        {
          "internalType": "uint256",
          "name": "questionId",
          "type": "uint256"
        },
        {
          "internalType": "string",
          "name": "questionText",
          "type": "string"
        }
      ],
      "stateMutability": "view",
      "type": "function"
    },
    {
      "inputs": [
        {
          "internalType": "uint256",
          "name": "",
          "type": "uint256"
        }
      ],
      "name": "listOfQuizzes",
      "outputs": [
        {
          "internalType": "uint256",
          "name": "lessonId",
          "type": "uint256"
        },
        {
          "internalType": "uint256",
          "name": "quizId",
          "type": "uint256"
        },
        {
          "internalType": "string",
          "name": "quizTitle",
          "type": "string"
        },
        {
          "internalType": "bool",
          "name": "exists",
          "type": "bool"
        }
      ],
      "stateMutability": "view",
      "type": "function"
    },
    {
      "inputs": [
        {
          "internalType": "uint256",
          "name": "",
          "type": "uint256"
        }
      ],
      "name": "listOfResource",
      "outputs": [
        {
          "internalType": "enum Ecosystem.ContentType",
          "name": "contentType",
          "type": "uint8"
        },
        {
          "internalType": "string",
          "name": "url",
          "type": "string"
        },
        {
          "internalType": "string",
          "name": "name",
          "type": "string"
        }
      ],
      "stateMutability": "view",
      "type": "function"
    },
    {
      "inputs": [
        {
          "internalType": "uint256",
          "name": "",
          "type": "uint256"
        }
      ],
      "name": "multiSigProposals",
      "outputs": [
        {
          "internalType": "uint256",
          "name": "id",
          "type": "uint256"
        },
        {
          "internalType": "address",
          "name": "proposer",
          "type": "address"
        },
        {
          "internalType": "address",
          "name": "targetContract",
          "type": "address"
        },
        {
          "internalType": "bytes",
          "name": "data",
          "type": "bytes"
        },
        {
          "internalType": "uint256",
          "name": "approvalCount",
          "type": "uint256"
        },
        {
          "internalType": "bool",
          "name": "executed",
          "type": "bool"
        }
      ],
      "stateMutability": "view",
      "type": "function"
    },
    {
      "inputs": [],
      "name": "name",
      "outputs": [
        {
          "internalType": "string",
          "name": "",
          "type": "string"
        }
      ],
      "stateMutability": "view",
      "type": "function"
    },
    {
      "inputs": [],
      "name": "nextChapterId",
      "outputs": [
        {
          "internalType": "uint256",
          "name": "",
          "type": "uint256"
        }
      ],
      "stateMutability": "view",
      "type": "function"
    },
    {
      "inputs": [],
      "name": "nextChoiceId",
      "outputs": [
        {
          "internalType": "uint256",
          "name": "",
          "type": "uint256"
        }
      ],
      "stateMutability": "view",
      "type": "function"
    },
    {
      "inputs": [],
      "name": "nextCourseId",
      "outputs": [
        {
          "internalType": "uint256",
          "name": "",
          "type": "uint256"
        }
      ],
      "stateMutability": "view",
      "type": "function"
    },
    {
      "inputs": [],
      "name": "nextCourseIdd",
      "outputs": [
        {
          "internalType": "uint256",
          "name": "",
          "type": "uint256"
        }
      ],
      "stateMutability": "view",
      "type": "function"
    },
    {
      "inputs": [],
      "name": "nextLessonId",
      "outputs": [
        {
          "internalType": "uint256",
          "name": "",
          "type": "uint256"
        }
      ],
      "stateMutability": "view",
      "type": "function"
    },
    {
      "inputs": [],
      "name": "nextQuestionId",
      "outputs": [
        {
          "internalType": "uint256",
          "name": "",
          "type": "uint256"
        }
      ],
      "stateMutability": "view",
      "type": "function"
    },
    {
      "inputs": [],
      "name": "nextQuizId",
      "outputs": [
        {
          "internalType": "uint256",
          "name": "",
          "type": "uint256"
        }
      ],
      "stateMutability": "view",
      "type": "function"
    },
    {
      "inputs": [
        {
          "internalType": "uint256",
          "name": "",
          "type": "uint256"
        }
      ],
      "name": "questions",
      "outputs": [
        {
          "internalType": "uint256",
          "name": "quizId",
          "type": "uint256"
        },
        {
          "internalType": "uint256",
          "name": "questionId",
          "type": "uint256"
        },
        {
          "internalType": "string",
          "name": "questionText",
          "type": "string"
        }
      ],
      "stateMutability": "view",
      "type": "function"
    },
    {
      "inputs": [
        {
          "internalType": "uint256",
          "name": "",
          "type": "uint256"
        }
      ],
      "name": "quizzes",
      "outputs": [
        {
          "internalType": "uint256",
          "name": "lessonId",
          "type": "uint256"
        },
        {
          "internalType": "uint256",
          "name": "quizId",
          "type": "uint256"
        },
        {
          "internalType": "string",
          "name": "quizTitle",
          "type": "string"
        },
        {
          "internalType": "bool",
          "name": "exists",
          "type": "bool"
        }
      ],
      "stateMutability": "view",
      "type": "function"
    },
    {
      "inputs": [
        {
          "internalType": "address",
          "name": "reviewer",
          "type": "address"
        }
      ],
      "name": "removeReviewer",
      "outputs": [],
      "stateMutability": "nonpayable",
      "type": "function"
    },
    {
      "inputs": [
        {
          "internalType": "bytes32",
          "name": "role",
          "type": "bytes32"
        },
        {
          "internalType": "address",
          "name": "callerConfirmation",
          "type": "address"
        }
      ],
      "name": "renounceRole",
      "outputs": [],
      "stateMutability": "nonpayable",
      "type": "function"
    },
    {
      "inputs": [
        {
          "internalType": "uint256",
          "name": "",
          "type": "uint256"
        }
      ],
      "name": "reviewerPool",
      "outputs": [
        {
          "internalType": "address",
          "name": "",
          "type": "address"
        }
      ],
      "stateMutability": "view",
      "type": "function"
    },
    {
      "inputs": [
        {
          "internalType": "uint256",
          "name": "",
          "type": "uint256"
        },
        {
          "internalType": "address",
          "name": "",
          "type": "address"
        }
      ],
      "name": "reviews",
      "outputs": [
        {
          "internalType": "uint256",
          "name": "learnerAgency",
          "type": "uint256"
        },
        {
          "internalType": "uint256",
          "name": "criticalThinking",
          "type": "uint256"
        },
        {
          "internalType": "uint256",
          "name": "collaborativeLearning",
          "type": "uint256"
        },
        {
          "internalType": "uint256",
          "name": "reflectivePractice",
          "type": "uint256"
        },
        {
          "internalType": "uint256",
          "name": "adaptiveLearning",
          "type": "uint256"
        },
        {
          "internalType": "uint256",
          "name": "authenticLearning",
          "type": "uint256"
        },
        {
          "internalType": "uint256",
          "name": "technologyIntegration",
          "type": "uint256"
        },
        {
          "internalType": "uint256",
          "name": "learnerSupport",
          "type": "uint256"
        },
        {
          "internalType": "uint256",
          "name": "assessmentForLearning",
          "type": "uint256"
        },
        {
          "internalType": "uint256",
          "name": "engagementAndMotivation",
          "type": "uint256"
        },
        {
          "internalType": "bool",
          "name": "isSubmitted",
          "type": "bool"
        }
      ],
      "stateMutability": "view",
      "type": "function"
    },
    {
      "inputs": [
        {
          "internalType": "bytes32",
          "name": "role",
          "type": "bytes32"
        },
        {
          "internalType": "address",
          "name": "account",
          "type": "address"
        }
      ],
      "name": "revokeRole",
      "outputs": [],
      "stateMutability": "nonpayable",
      "type": "function"
    },
    {
      "inputs": [
        {
          "internalType": "uint256",
          "name": "courseId",
          "type": "uint256"
        }
      ],
      "name": "selectCourseReviewers",
      "outputs": [],
      "stateMutability": "nonpayable",
      "type": "function"
    },
    {
      "inputs": [
        {
          "internalType": "uint256",
          "name": "courseId",
          "type": "uint256"
        },
        {
          "internalType": "uint256",
          "name": "learnerAgency",
          "type": "uint256"
        },
        {
          "internalType": "uint256",
          "name": "criticalThinking",
          "type": "uint256"
        },
        {
          "internalType": "uint256",
          "name": "collaborativeLearning",
          "type": "uint256"
        },
        {
          "internalType": "uint256",
          "name": "reflectivePractice",
          "type": "uint256"
        },
        {
          "internalType": "uint256",
          "name": "adaptiveLearning",
          "type": "uint256"
        },
        {
          "internalType": "uint256",
          "name": "authenticLearning",
          "type": "uint256"
        },
        {
          "internalType": "uint256",
          "name": "technologyIntegration",
          "type": "uint256"
        },
        {
          "internalType": "uint256",
          "name": "learnerSupport",
          "type": "uint256"
        },
        {
          "internalType": "uint256",
          "name": "assessmentForLearning",
          "type": "uint256"
        },
        {
          "internalType": "uint256",
          "name": "engagementAndMotivation",
          "type": "uint256"
        }
      ],
      "name": "submitReview",
      "outputs": [],
      "stateMutability": "nonpayable",
      "type": "function"
    },
    {
      "inputs": [
        {
          "internalType": "bytes4",
          "name": "interfaceId",
          "type": "bytes4"
        }
      ],
      "name": "supportsInterface",
      "outputs": [
        {
          "internalType": "bool",
          "name": "",
          "type": "bool"
        }
      ],
      "stateMutability": "view",
      "type": "function"
    },
    {
      "inputs": [],
      "name": "symbol",
      "outputs": [
        {
          "internalType": "string",
          "name": "",
          "type": "string"
        }
      ],
      "stateMutability": "view",
      "type": "function"
    },
    {
      "inputs": [],
      "name": "totalSupply",
      "outputs": [
        {
          "internalType": "uint256",
          "name": "",
          "type": "uint256"
        }
      ],
      "stateMutability": "view",
      "type": "function"
    },
    {
      "inputs": [
        {
          "internalType": "address",
          "name": "to",
          "type": "address"
        },
        {
          "internalType": "uint256",
          "name": "value",
          "type": "uint256"
        }
      ],
      "name": "transfer",
      "outputs": [
        {
          "internalType": "bool",
          "name": "",
          "type": "bool"
        }
      ],
      "stateMutability": "nonpayable",
      "type": "function"
    },
    {
      "inputs": [
        {
          "internalType": "address",
          "name": "from",
          "type": "address"
        },
        {
          "internalType": "address",
          "name": "to",
          "type": "address"
        },
        {
          "internalType": "uint256",
          "name": "value",
          "type": "uint256"
        }
      ],
      "name": "transferFrom",
      "outputs": [
        {
          "internalType": "bool",
          "name": "",
          "type": "bool"
        }
      ],
      "stateMutability": "nonpayable",
      "type": "function"
    }
  ],
  "bytecode": "0x608060405234801561001057600080fd5b506040516175f63803806175f683398181016040528101906100329190610639565b806040518060400160405280600a81526020017f4142594120544f4b454e000000000000000000000000000000000000000000008152506040518060400160405280600681526020017f414259544b4e000000000000000000000000000000000000000000000000000081525081600390816100ae91906108a3565b5080600490816100be91906108a3565b505050600481511015610106576040517f08c379a00000000000000000000000000000000000000000000000000000000081526004016100fd906109f8565b60405180910390fd5b6101196000801b336102be60201b60201c565b5061014a7fdf1425bae297c2f52b4f15d18a50b1fc8cb5b981a981b1d213ed3ff92681b64d336102be60201b60201c565b5060005b815181101561029e576101a17fc10c77be35aff266144ed64c26a1fa104bae2f284ae99ac4a34203454704a18583838151811061018e5761018d610a18565b5b60200260200101516102be60201b60201c565b5060068282815181106101b7576101b6610a18565b5b60200260200101519080600181540180825580915050600190039060005260206000200160009091909190916101000a81548173ffffffffffffffffffffffffffffffffffffffff021916908373ffffffffffffffffffffffffffffffffffffffff16021790555060016008600084848151811061023857610237610a18565b5b602002602001015173ffffffffffffffffffffffffffffffffffffffff1673ffffffffffffffffffffffffffffffffffffffff16815260200190815260200160002060006101000a81548160ff021916908315150217905550808060010191505061014e565b50506001600a819055506102b8600b6103bc60201b60201c565b50610a47565b60006102d083836103fb60201b60201c565b6103b15760016005600085815260200190815260200160002060000160008473ffffffffffffffffffffffffffffffffffffffff1673ffffffffffffffffffffffffffffffffffffffff16815260200190815260200160002060006101000a81548160ff02191690831515021790555061034e61046660201b60201c565b73ffffffffffffffffffffffffffffffffffffffff168273ffffffffffffffffffffffffffffffffffffffff16847f2f8788117e7eff1d82e926ec794901d17c78024a50270940304540a733656f0d60405160405180910390a4600190506103b6565b600090505b92915050565b60018160000181905550600181600101819055506001816002018190555060018160030181905550600181600401819055506001816005018190555050565b60006005600084815260200190815260200160002060000160008373ffffffffffffffffffffffffffffffffffffffff1673ffffffffffffffffffffffffffffffffffffffff16815260200190815260200160002060009054906101000a900460ff16905092915050565b600033905090565b6000604051905090565b600080fd5b600080fd5b600080fd5b6000601f19601f8301169050919050565b7f4e487b7100000000000000000000000000000000000000000000000000000000600052604160045260246000fd5b6104d082610487565b810181811067ffffffffffffffff821117156104ef576104ee610498565b5b80604052505050565b600061050261046e565b905061050e82826104c7565b919050565b600067ffffffffffffffff82111561052e5761052d610498565b5b602082029050602081019050919050565b600080fd5b600073ffffffffffffffffffffffffffffffffffffffff82169050919050565b600061056f82610544565b9050919050565b61057f81610564565b811461058a57600080fd5b50565b60008151905061059c81610576565b92915050565b60006105b56105b084610513565b6104f8565b905080838252602082019050602084028301858111156105d8576105d761053f565b5b835b8181101561060157806105ed888261058d565b8452602084019350506020810190506105da565b5050509392505050565b600082601f8301126106205761061f610482565b5b81516106308482602086016105a2565b91505092915050565b60006020828403121561064f5761064e610478565b5b600082015167ffffffffffffffff81111561066d5761066c61047d565b5b6106798482850161060b565b91505092915050565b600081519050919050565b7f4e487b7100000000000000000000000000000000000000000000000000000000600052602260045260246000fd5b600060028204905060018216806106d457607f821691505b6020821081036106e7576106e661068d565b5b50919050565b60008190508160005260206000209050919050565b60006020601f8301049050919050565b600082821b905092915050565b60006008830261074f7fffffffffffffffffffffffffffffffffffffffffffffffffffffffffffffffff82610712565b6107598683610712565b95508019841693508086168417925050509392505050565b6000819050919050565b6000819050919050565b60006107a061079b61079684610771565b61077b565b610771565b9050919050565b6000819050919050565b6107ba83610785565b6107ce6107c6826107a7565b84845461071f565b825550505050565b600090565b6107e36107d6565b6107ee8184846107b1565b505050565b5b81811015610812576108076000826107db565b6001810190506107f4565b5050565b601f82111561085757610828816106ed565b61083184610702565b81016020851015610840578190505b61085461084c85610702565b8301826107f3565b50505b505050565b600082821c905092915050565b600061087a6000198460080261085c565b1980831691505092915050565b60006108938383610869565b9150826002028217905092915050565b6108ac82610682565b67ffffffffffffffff8111156108c5576108c4610498565b5b6108cf82546106bc565b6108da828285610816565b600060209050601f83116001811461090d57600084156108fb578287015190505b6109058582610887565b86555061096d565b601f19841661091b866106ed565b60005b828110156109435784890151825560018201915060208501945060208101905061091e565b86831015610960578489015161095c601f891682610869565b8355505b6001600288020188555050505b505050505050565b600082825260208201905092915050565b7f4174206c6561737420342072657669657765727320617265207265717569726560008201527f6400000000000000000000000000000000000000000000000000000000000000602082015250565b60006109e2602183610975565b91506109ed82610986565b604082019050919050565b60006020820190508181036000830152610a11816109d5565b9050919050565b7f4e487b7100000000000000000000000000000000000000000000000000000000600052603260045260246000fd5b616ba080610a566000396000f3fe608060405234801561001057600080fd5b50600436106103fc5760003560e01c806373a82b5f11610215578063bfd2f4c511610125578063d547741f116100b8578063ded5c18d11610087578063ded5c18d14610dbe578063e503f10814610ddc578063eb264b9c14610dfa578063fdc6258a14610e18578063ffabc67314610e48576103fc565b8063d547741f14610d22578063d93f2caa14610d3e578063dd62ed3e14610d5c578063ddfc79fb14610d8c576103fc565b8063c7954e4c116100f4578063c7954e4c14610c84578063c90c884d14610ca2578063c9442dac14610cd6578063c976831514610cf2576103fc565b8063bfd2f4c514610bb5578063c12804fb14610bea578063c293bbbe14610c24578063c491b04c14610c54576103fc565b806395d89b41116101a8578063a3ef204111610177578063a3ef204114610ae7578063a9059cbb14610b1b578063aa95da3a14610b4b578063ac957c6314610b7b578063bad0dd6514610b99576103fc565b806395d89b4114610a5d578063a14ecbdf14610a7b578063a1cd05b114610a99578063a217fddf14610ac9576103fc565b806388409afa116101e457806388409afa146109ae5780638a2492bb146109e15780638ea6e2fd14610a1157806391d1485414610a2d576103fc565b806373a82b5f1461093a57806375284998146109565780637d83daf214610972578063846f815214610990576103fc565b8063313ce567116103105780634d42ef48116102a3578063599c553311610272578063599c55331461087957806366055159146108975780636b000fa7146108b55780636fdb67f7146108d357806370a082311461090a576103fc565b80634d42ef48146107d957806351d93c811461080d57806352994e2f1461083f57806358a3fa251461085d576103fc565b806336568abe116102df57806336568abe1461074c5780633693dcfa146107685780633b129a561461078657806340932bf8146107a4576103fc565b8063313ce567146106ae57806331b1b978146106cc57806332cb6b0c146106fe57806334ed4bdb1461071c576103fc565b806323b872dd11610393578063295b825a11610362578063295b825a146105d55780632990db7c1461060857806329a0be651461063f5780632aac61ae1461065d5780632f2ff15d14610692576103fc565b806323b872dd14610539578063248a9ca314610569578063274202f01461059957806327ff6223146105b7576103fc565b8063095ea7b3116103cf578063095ea7b31461048b57806311ce15df146104bb57806318160ddd146104eb57806319f102ec14610509576103fc565b806301ffc9a71461040157806304e48bd114610431578063057f46bb1461044f57806306fdde031461046d575b600080fd5b61041b60048036038101906104169190614de9565b610e78565b6040516104289190614e31565b60405180910390f35b610439610ef2565b6040516104469190615200565b60405180910390f35b610457611328565b6040516104649190615231565b60405180910390f35b61047561132e565b6040516104829190615296565b60405180910390f35b6104a560048036038101906104a09190615310565b6113c0565b6040516104b29190614e31565b60405180910390f35b6104d560048036038101906104d09190615350565b6113e3565b6040516104e29190614e31565b60405180910390f35b6104f3611403565b6040516105009190615231565b60405180910390f35b610523600480360381019061051e9190615350565b61140d565b604051610530919061538c565b60405180910390f35b610553600480360381019061054e91906153a7565b61144c565b6040516105609190614e31565b60405180910390f35b610583600480360381019061057e9190615430565b61147b565b604051610590919061546c565b60405180910390f35b6105a161149b565b6040516105ae9190615231565b60405180910390f35b6105bf6114c3565b6040516105cc9190615231565b60405180910390f35b6105ef60048036038101906105ea9190615350565b6114c8565b6040516105ff9493929190615487565b60405180910390f35b610622600480360381019061061d9190615350565b61159d565b6040516106369897969594939291906154e2565b60405180910390f35b61064761173c565b6040516106549190615231565b60405180910390f35b61067760048036038101906106729190615350565b611742565b6040516106899695949392919061556e565b60405180910390f35b6106ac60048036038101906106a791906155dd565b6118ab565b005b6106b66118cd565b6040516106c39190615639565b60405180910390f35b6106e660048036038101906106e19190615350565b6118d6565b6040516106f593929190615654565b60405180910390f35b610706611988565b6040516107139190615231565b60405180910390f35b61073660048036038101906107319190615692565b611998565b6040516107439190615231565b60405180910390f35b610766600480360381019061076191906155dd565b6119b6565b005b610770611a31565b60405161077d919061546c565b60405180910390f35b61078e611a55565b60405161079b919061546c565b60405180910390f35b6107be60048036038101906107b99190615350565b611a79565b6040516107d096959493929190615714565b60405180910390f35b6107f360048036038101906107ee919061577c565b611b8a565b6040516108049594939291906157bc565b60405180910390f35b61082760048036038101906108229190615350565b611c72565b60405161083693929190615654565b60405180910390f35b610847611d34565b604051610854919061546c565b60405180910390f35b61087760048036038101906108729190615816565b611d58565b005b61088161201e565b60405161088e9190615231565b60405180910390f35b61089f612023565b6040516108ac9190615231565b60405180910390f35b6108bd612029565b6040516108ca9190615231565b60405180910390f35b6108ed60048036038101906108e89190615350565b61202f565b6040516109019897969594939291906154e2565b60405180910390f35b610924600480360381019061091f9190615692565b6121de565b6040516109319190615231565b60405180910390f35b610954600480360381019061094f9190615692565b612226565b005b610970600480360381019061096b9190615350565b61240a565b005b61097a612761565b6040516109879190615231565b60405180910390f35b610998612767565b6040516109a59190615231565b60405180910390f35b6109c860048036038101906109c39190615350565b612773565b6040516109d89493929190615487565b60405180910390f35b6109fb60048036038101906109f69190615a64565b612838565b604051610a089190614e31565b60405180910390f35b610a2b6004803603810190610a269190615350565b612d1d565b005b610a476004803603810190610a4291906155dd565b613087565b604051610a549190614e31565b60405180910390f35b610a656130f2565b604051610a729190615296565b60405180910390f35b610a83613184565b604051610a909190615231565b60405180910390f35b610ab36004803603810190610aae919061577c565b61318a565b604051610ac0919061538c565b60405180910390f35b610ad16131d8565b604051610ade919061546c565b60405180910390f35b610b016004803603810190610afc9190615350565b6131df565b604051610b129594939291906157bc565b60405180910390f35b610b356004803603810190610b309190615310565b6132aa565b604051610b429190614e31565b60405180910390f35b610b656004803603810190610b60919061577c565b6132cd565b604051610b729190615296565b60405180910390f35b610b83613385565b604051610b909190615231565b60405180910390f35b610bb36004803603810190610bae9190615350565b61338a565b005b610bcf6004803603810190610bca9190615350565b613689565b604051610be19695949392919061556e565b60405180910390f35b610c046004803603810190610bff9190615aef565b6137e2565b604051610c1b9b9a99989796959493929190615b2f565b60405180910390f35b610c3e6004803603810190610c399190615350565b613856565b604051610c4b9190615c49565b60405180910390f35b610c6e6004803603810190610c699190615692565b6138f7565b604051610c7b9190614e31565b60405180910390f35b610c8c613917565b604051610c999190615231565b60405180910390f35b610cbc6004803603810190610cb79190615350565b613921565b604051610ccd9594939291906157bc565b60405180910390f35b610cf06004803603810190610ceb9190615692565b6139fc565b005b610d0c6004803603810190610d079190615aef565b613ce6565b604051610d199190614e31565b60405180910390f35b610d3c6004803603810190610d3791906155dd565b613d15565b005b610d46613d37565b604051610d539190615231565b60405180910390f35b610d766004803603810190610d719190615c6b565b613d43565b604051610d839190615231565b60405180910390f35b610da66004803603810190610da19190615350565b613dca565b604051610db593929190615cf3565b60405180910390f35b610dc6613f21565b604051610dd39190615231565b60405180910390f35b610de4613f2e565b604051610df19190615231565b60405180910390f35b610e02613f34565b604051610e0f9190615231565b60405180910390f35b610e326004803603810190610e2d9190615692565b613f3a565b604051610e3f9190614e31565b60405180910390f35b610e626004803603810190610e5d9190615310565b613f6d565b604051610e6f9190614e31565b60405180910390f35b60007f7965db0b000000000000000000000000000000000000000000000000000000007bffffffffffffffffffffffffffffffffffffffffffffffffffffffff1916827bffffffffffffffffffffffffffffffffffffffffffffffffffffffff19161480610eeb5750610eea82613f9c565b5b9050919050565b6060600060268054905067ffffffffffffffff811115610f1557610f14615914565b5b604051908082528060200260200182016040528015610f4e57816020015b610f3b614c3d565b815260200190600190039081610f335790505b50905060005b6026805490508110156113205760405180610120016040528060268381548110610f8157610f80615d38565b5b906000526020600020906008020160000154815260200160268381548110610fac57610fab615d38565b5b90600052602060002090600802016001018054610fc890615d96565b80601f0160208091040260200160405190810160405280929190818152602001828054610ff490615d96565b80156110415780601f1061101657610100808354040283529160200191611041565b820191906000526020600020905b81548152906001019060200180831161102457829003601f168201915b505050505081526020016026838154811061105f5761105e615d38565b5b9060005260206000209060080201600201805461107b90615d96565b80601f01602080910402602001604051908101604052809291908181526020018280546110a790615d96565b80156110f45780601f106110c9576101008083540402835291602001916110f4565b820191906000526020600020905b8154815290600101906020018083116110d757829003601f168201915b505050505081526020016026838154811061111257611111615d38565b5b906000526020600020906008020160030160009054906101000a900460ff16151581526020016026838154811061114c5761114b615d38565b5b90600052602060002090600802016004015481526020016026838154811061117757611176615d38565b5b906000526020600020906008020160050160009054906101000a900473ffffffffffffffffffffffffffffffffffffffff1673ffffffffffffffffffffffffffffffffffffffff168152602001602683815481106111d8576111d7615d38565b5b906000526020600020906008020160050160149054906101000a900460ff16151581526020016026838154811061121257611211615d38565b5b90600052602060002090600802016006018054806020026020016040519081016040528092919081815260200182805480156112a357602002820191906000526020600020905b8160009054906101000a900473ffffffffffffffffffffffffffffffffffffffff1673ffffffffffffffffffffffffffffffffffffffff1681526020019060010190808311611259575b50505050508152602001602683815481106112c1576112c0615d38565b5b906000526020600020906008020160070160009054906101000a900460ff1660028111156112f2576112f1615020565b5b81525082828151811061130857611307615d38565b5b60200260200101819052508080600101915050610f54565b508091505090565b60145481565b60606003805461133d90615d96565b80601f016020809104026020016040519081016040528092919081815260200182805461136990615d96565b80156113b65780601f1061138b576101008083540402835291602001916113b6565b820191906000526020600020905b81548152906001019060200180831161139957829003601f168201915b5050505050905090565b6000806113cb614006565b90506113d881858561400e565b600191505092915050565b60246020528060005260406000206000915054906101000a900460ff1681565b6000600254905090565b6006818154811061141d57600080fd5b906000526020600020016000915054906101000a900473ffffffffffffffffffffffffffffffffffffffff1681565b600080611457614006565b9050611464858285614020565b61146f8585856140b4565b60019150509392505050565b600060056000838152602001908152602001600020600101549050919050565b6064600f6b204fce5e3e250261100000006114b69190615df6565b6114c09190615e67565b81565b606481565b602a81815481106114d857600080fd5b906000526020600020906005020160009150905080600001549080600101549080600201805461150790615d96565b80601f016020809104026020016040519081016040528092919081815260200182805461153390615d96565b80156115805780601f1061155557610100808354040283529160200191611580565b820191906000526020600020905b81548152906001019060200180831161156357829003601f168201915b5050505050908060040160009054906101000a900460ff16905084565b60196020528060005260406000206000915090508060000154908060010180546115c690615d96565b80601f01602080910402602001604051908101604052809291908181526020018280546115f290615d96565b801561163f5780601f106116145761010080835404028352916020019161163f565b820191906000526020600020905b81548152906001019060200180831161162257829003601f168201915b50505050509080600201805461165490615d96565b80601f016020809104026020016040519081016040528092919081815260200182805461168090615d96565b80156116cd5780601f106116a2576101008083540402835291602001916116cd565b820191906000526020600020905b8154815290600101906020018083116116b057829003601f168201915b5050505050908060030160009054906101000a900460ff16908060040154908060050160009054906101000a900473ffffffffffffffffffffffffffffffffffffffff16908060050160149054906101000a900460ff16908060070160009054906101000a900460ff16905088565b60155481565b6028818154811061175257600080fd5b906000526020600020906024020160009150905080600001549080600101549080600201805461178190615d96565b80601f01602080910402602001604051908101604052809291908181526020018280546117ad90615d96565b80156117fa5780601f106117cf576101008083540402835291602001916117fa565b820191906000526020600020905b8154815290600101906020018083116117dd57829003601f168201915b50505050509080600301805461180f90615d96565b80601f016020809104026020016040519081016040528092919081815260200182805461183b90615d96565b80156118885780601f1061185d57610100808354040283529160200191611888565b820191906000526020600020905b81548152906001019060200180831161186b57829003601f168201915b5050505050908060220154908060230160009054906101000a900460ff16905086565b6118b48261147b565b6118bd816141a8565b6118c783836141bc565b50505050565b60006012905090565b602260205280600052604060002060009150905080600001549080600101549080600201805461190590615d96565b80601f016020809104026020016040519081016040528092919081815260200182805461193190615d96565b801561197e5780601f106119535761010080835404028352916020019161197e565b820191906000526020600020905b81548152906001019060200180831161196157829003601f168201915b5050505050905083565b6b204fce5e3e2502611000000081565b601b6020528060005260406000206000915090508060000154905081565b6119be614006565b73ffffffffffffffffffffffffffffffffffffffff168173ffffffffffffffffffffffffffffffffffffffff1614611a22576040517f6697b23200000000000000000000000000000000000000000000000000000000815260040160405180910390fd5b611a2c82826142ae565b505050565b7fadb22091b155738d2e889eb96f509d2a7c93234236b30400927feb4a6a15ab0081565b7fc10c77be35aff266144ed64c26a1fa104bae2f284ae99ac4a34203454704a18581565b60096020528060005260406000206000915090508060000154908060010160009054906101000a900473ffffffffffffffffffffffffffffffffffffffff16908060020160009054906101000a900473ffffffffffffffffffffffffffffffffffffffff1690806003018054611aee90615d96565b80601f0160208091040260200160405190810160405280929190818152602001828054611b1a90615d96565b8015611b675780601f10611b3c57610100808354040283529160200191611b67565b820191906000526020600020905b815481529060010190602001808311611b4a57829003601f168201915b5050505050908060040154908060050160009054906101000a900460ff16905086565b601e6020528160005260406000208181548110611ba657600080fd5b906000526020600020906005020160009150915050806000015490806001015490806002018054611bd690615d96565b80601f0160208091040260200160405190810160405280929190818152602001828054611c0290615d96565b8015611c4f5780601f10611c2457610100808354040283529160200191611c4f565b820191906000526020600020905b815481529060010190602001808311611c3257829003601f168201915b5050505050908060030154908060040160009054906101000a900460ff16905085565b602b8181548110611c8257600080fd5b9060005260206000209060040201600091509050806000015490806001015490806002018054611cb190615d96565b80601f0160208091040260200160405190810160405280929190818152602001828054611cdd90615d96565b8015611d2a5780601f10611cff57610100808354040283529160200191611d2a565b820191906000526020600020905b815481529060010190602001808311611d0d57829003601f168201915b5050505050905083565b7fdf1425bae297c2f52b4f15d18a50b1fc8cb5b981a981b1d213ed3ff92681b64d81565b7fc10c77be35aff266144ed64c26a1fa104bae2f284ae99ac4a34203454704a185611d82816141a8565b611d8c8c336143a1565b611dcb576040517f08c379a0000000000000000000000000000000000000000000000000000000008152600401611dc290615f0a565b60405180910390fd5b601a60008d815260200190815260200160002060003373ffffffffffffffffffffffffffffffffffffffff1673ffffffffffffffffffffffffffffffffffffffff168152602001908152602001600020600a0160009054906101000a900460ff1615611e6c576040517f08c379a0000000000000000000000000000000000000000000000000000000008152600401611e6390615f9c565b60405180910390fd5b611e7e8b8b8b8b8b8b8b8b8b8b61446c565b6040518061016001604052808c81526020018b81526020018a815260200189815260200188815260200187815260200186815260200185815260200184815260200183815260200160011515815250601a60008e815260200190815260200160002060003373ffffffffffffffffffffffffffffffffffffffff1673ffffffffffffffffffffffffffffffffffffffff168152602001908152602001600020600082015181600001556020820151816001015560408201518160020155606082015181600301556080820151816004015560a0820151816005015560c0820151816006015560e082015181600701556101008201518160080155610120820151816009015561014082015181600a0160006101000a81548160ff0219169083151502179055509050506050612001601a60008f815260200190815260200160002060003373ffffffffffffffffffffffffffffffffffffffff1673ffffffffffffffffffffffffffffffffffffffff168152602001908152602001600020614531565b106120105761200f8c61240a565b5b505050505050505050505050565b600281565b60125481565b60185481565b6026818154811061203f57600080fd5b906000526020600020906008020160009150905080600001549080600101805461206890615d96565b80601f016020809104026020016040519081016040528092919081815260200182805461209490615d96565b80156120e15780601f106120b6576101008083540402835291602001916120e1565b820191906000526020600020905b8154815290600101906020018083116120c457829003601f168201915b5050505050908060020180546120f690615d96565b80601f016020809104026020016040519081016040528092919081815260200182805461212290615d96565b801561216f5780601f106121445761010080835404028352916020019161216f565b820191906000526020600020905b81548152906001019060200180831161215257829003601f168201915b5050505050908060030160009054906101000a900460ff16908060040154908060050160009054906101000a900473ffffffffffffffffffffffffffffffffffffffff16908060050160149054906101000a900460ff16908060070160009054906101000a900460ff16905088565b60008060008373ffffffffffffffffffffffffffffffffffffffff1673ffffffffffffffffffffffffffffffffffffffff168152602001908152602001600020549050919050565b7fc10c77be35aff266144ed64c26a1fa104bae2f284ae99ac4a34203454704a185612250816141a8565b600860008373ffffffffffffffffffffffffffffffffffffffff1673ffffffffffffffffffffffffffffffffffffffff16815260200190815260200160002060009054906101000a900460ff16156122dd576040517f08c379a00000000000000000000000000000000000000000000000000000000081526004016122d490616008565b60405180910390fd5b6123077fc10c77be35aff266144ed64c26a1fa104bae2f284ae99ac4a34203454704a185836141bc565b506006829080600181540180825580915050600190039060005260206000200160009091909190916101000a81548173ffffffffffffffffffffffffffffffffffffffff021916908373ffffffffffffffffffffffffffffffffffffffff1602179055506001600860008473ffffffffffffffffffffffffffffffffffffffff1673ffffffffffffffffffffffffffffffffffffffff16815260200190815260200160002060006101000a81548160ff0219169083151502179055508173ffffffffffffffffffffffffffffffffffffffff167fe1cb5e1230cc02e62c60b81c1aa5ade512f3eac296edb28628b4cf344f47f93160405160405180910390a25050565b7fc10c77be35aff266144ed64c26a1fa104bae2f284ae99ac4a34203454704a185612434816141a8565b60006019600084815260200190815260200160002090508060030160009054906101000a900460ff161561249d576040517f08c379a000000000000000000000000000000000000000000000000000000000815260040161249490616074565b60405180910390fd5b601c60003373ffffffffffffffffffffffffffffffffffffffff1673ffffffffffffffffffffffffffffffffffffffff168152602001908152602001600020600084815260200190815260200160002060009054906101000a900460ff161561253b576040517f08c379a000000000000000000000000000000000000000000000000000000000815260040161253290616106565b60405180910390fd5b6001601c60003373ffffffffffffffffffffffffffffffffffffffff1673ffffffffffffffffffffffffffffffffffffffff168152602001908152602001600020600085815260200190815260200160002060006101000a81548160ff0219169083151502179055508060040160008154809291906125b990616126565b919050555060028160040154106126de5760018160030160006101000a81548160ff02191690831515021790555060005b6026805490508110156126a157836026828154811061260c5761260b615d38565b5b906000526020600020906008020160000154036126945760016026828154811061263957612638615d38565b5b906000526020600020906008020160030160006101000a81548160ff02191690831515021790555081600401546026828154811061267a57612679615d38565b5b9060005260206000209060080201600401819055506126a1565b80806001019150506125ea565b506126d88160050160009054906101000a900473ffffffffffffffffffffffffffffffffffffffff16674563918244f400006145c6565b5061275c565b60005b60268054905081101561275a57836026828154811061270357612702615d38565b5b9060005260206000209060080201600001540361274d5781600401546026828154811061273357612732615d38565b5b90600052602060002090600802016004018190555061275a565b80806001019150506126e1565b505b505050565b60135481565b671bc16d674ec8000081565b60216020528060005260406000206000915090508060000154908060010154908060020180546127a290615d96565b80601f01602080910402602001604051908101604052809291908181526020018280546127ce90615d96565b801561281b5780601f106127f05761010080835404028352916020019161281b565b820191906000526020600020905b8154815290600101906020018083116127fe57829003601f168201915b5050505050908060040160009054906101000a900460ff16905084565b600060196000601354815260200190815260200160002060050160149054906101000a900460ff16156128a0576040517f08c379a0000000000000000000000000000000000000000000000000000000008152600401612897906161ba565b60405180910390fd5b60006040518061012001604052806013548152602001868152602001858152602001600015158152602001600081526020013373ffffffffffffffffffffffffffffffffffffffff168152602001600115158152602001600067ffffffffffffffff81111561291257612911615914565b5b6040519080825280602002602001820160405280156129405781602001602082028036833780820191505090505b50815260200184600281111561295957612958615020565b5b8152509050806019600060135481526020019081526020016000206000820151816000015560208201518160010190816129939190616386565b5060408201518160020190816129a99190616386565b5060608201518160030160006101000a81548160ff0219169083151502179055506080820151816004015560a08201518160050160006101000a81548173ffffffffffffffffffffffffffffffffffffffff021916908373ffffffffffffffffffffffffffffffffffffffff16021790555060c08201518160050160146101000a81548160ff02191690831515021790555060e0820151816006019080519060200190612a57929190614cb5565b506101008201518160070160006101000a81548160ff02191690836002811115612a8457612a83615020565b5b02179055509050506026819080600181540180825580915050600190039060005260206000209060080201600090919091909150600082015181600001556020820151816001019081612ad79190616386565b506040820151816002019081612aed9190616386565b5060608201518160030160006101000a81548160ff0219169083151502179055506080820151816004015560a08201518160050160006101000a81548173ffffffffffffffffffffffffffffffffffffffff021916908373ffffffffffffffffffffffffffffffffffffffff16021790555060c08201518160050160146101000a81548160ff02191690831515021790555060e0820151816006019080519060200190612b9b929190614cb5565b506101008201518160070160006101000a81548160ff02191690836002811115612bc857612bc7615020565b5b0217905550505060126000815480929190612be290616126565b91905055506001601b60003373ffffffffffffffffffffffffffffffffffffffff1673ffffffffffffffffffffffffffffffffffffffff1681526020019081526020016000206000016000828254612c3a9190616458565b9250508190555060136000815480929190612c5490616126565b9190505550612c837fadb22091b155738d2e889eb96f509d2a7c93234236b30400927feb4a6a15ab00336141bc565b5084604051612c9291906164c8565b60405180910390206001601354612ca991906164df565b7f9c93a42b217373d37e6c66ace0a67fe1fa1f78c93164b62417de69c48c0f67e2601960006001601354612cdd91906164df565b815260200190815260200160002060030160009054906101000a900460ff16604051612d099190614e31565b60405180910390a360019150509392505050565b7fadb22091b155738d2e889eb96f509d2a7c93234236b30400927feb4a6a15ab00612d47816141a8565b6024600083815260200190815260200160002060009054906101000a900460ff1615612da8576040517f08c379a0000000000000000000000000000000000000000000000000000000008152600401612d9f9061655f565b60405180910390fd5b60036006805490501015612df1576040517f08c379a0000000000000000000000000000000000000000000000000000000008152600401612de8906165cb565b60405180910390fd5b602360008381526020019081526020016000206000612e109190614d3f565b60005b6003811015612fed576000600680549050424460068054905085604051602001612e40949392919061660c565b6040516020818303038152906040528051906020012060001c612e63919061665a565b9050600060068281548110612e7b57612e7a615d38565b5b9060005260206000200160009054906101000a900473ffffffffffffffffffffffffffffffffffffffff1690506000805b6023600088815260200190815260200160002080549050811015612f62578273ffffffffffffffffffffffffffffffffffffffff16602360008981526020019081526020016000208281548110612f0657612f05615d38565b5b9060005260206000200160009054906101000a900473ffffffffffffffffffffffffffffffffffffffff1673ffffffffffffffffffffffffffffffffffffffff1603612f555760019150612f62565b8080600101915050612eac565b5080612fdd5760236000878152602001908152602001600020829080600181540180825580915050600190039060005260206000200160009091909190916101000a81548173ffffffffffffffffffffffffffffffffffffffff021916908373ffffffffffffffffffffffffffffffffffffffff1602179055505b5050508080600101915050612e13565b5060036023600084815260200190815260200160002080549050036130395760016024600084815260200190815260200160002060006101000a81548160ff0219169083151502179055505b817fe205dff861c570b8df17e26f893778853f94bb25d2de318755e48eab0b403ff76023600085815260200190815260200160002060405161307b9190616777565b60405180910390a25050565b60006005600084815260200190815260200160002060000160008373ffffffffffffffffffffffffffffffffffffffff1673ffffffffffffffffffffffffffffffffffffffff16815260200190815260200160002060009054906101000a900460ff16905092915050565b60606004805461310190615d96565b80601f016020809104026020016040519081016040528092919081815260200182805461312d90615d96565b801561317a5780601f1061314f5761010080835404028352916020019161317a565b820191906000526020600020905b81548152906001019060200180831161315d57829003601f168201915b5050505050905090565b60115481565b602360205281600052604060002081815481106131a657600080fd5b906000526020600020016000915091509054906101000a900473ffffffffffffffffffffffffffffffffffffffff1681565b6000801b81565b601d60205280600052604060002060009150905080600001549080600101549080600201805461320e90615d96565b80601f016020809104026020016040519081016040528092919081815260200182805461323a90615d96565b80156132875780601f1061325c57610100808354040283529160200191613287565b820191906000526020600020905b81548152906001019060200180831161326a57829003601f168201915b5050505050908060030154908060040160009054906101000a900460ff16905085565b6000806132b5614006565b90506132c28185856140b4565b600191505092915050565b6020805281600052604060002081815481106132e857600080fd5b9060005260206000200160009150915050805461330490615d96565b80601f016020809104026020016040519081016040528092919081815260200182805461333090615d96565b801561337d5780601f106133525761010080835404028352916020019161337d565b820191906000526020600020905b81548152906001019060200180831161336057829003601f168201915b505050505081565b605081565b7fdf1425bae297c2f52b4f15d18a50b1fc8cb5b981a981b1d213ed3ff92681b64d6133b4816141a8565b60006009600084815260200190815260200160002090508060050160009054906101000a900460ff161561341d576040517f08c379a0000000000000000000000000000000000000000000000000000000008152600401613414906167e5565b60405180910390fd5b8060060160003373ffffffffffffffffffffffffffffffffffffffff1673ffffffffffffffffffffffffffffffffffffffff16815260200190815260200160002060009054906101000a900460ff16156134ac576040517f08c379a00000000000000000000000000000000000000000000000000000000081526004016134a390616851565b60405180910390fd5b60018160060160003373ffffffffffffffffffffffffffffffffffffffff1673ffffffffffffffffffffffffffffffffffffffff16815260200190815260200160002060006101000a81548160ff02191690831515021790555080600401600081548092919061351b90616126565b9190505550827f5d4ccf5f92566d140246f4ae3b9cb35dc06fff109a7748602ad77f6260fd9a6133604051613550919061538c565b60405180910390a260038160040154106136845760008160020160009054906101000a900473ffffffffffffffffffffffffffffffffffffffff1673ffffffffffffffffffffffffffffffffffffffff16826003016040516135b29190616914565b6000604051808303816000865af19150503d80600081146135ef576040519150601f19603f3d011682016040523d82523d6000602084013e6135f4565b606091505b5050905080613638576040517f08c379a000000000000000000000000000000000000000000000000000000000815260040161362f90616977565b60405180910390fd5b60018260050160006101000a81548160ff021916908315150217905550837f7770356c29230b95943aec59d47ead11eb426a728bf5b57f7fd8597f3c0e29ba60405160405180910390a2505b505050565b601f6020528060005260406000206000915090508060000154908060010154908060020180546136b890615d96565b80601f01602080910402602001604051908101604052809291908181526020018280546136e490615d96565b80156137315780601f1061370657610100808354040283529160200191613731565b820191906000526020600020905b81548152906001019060200180831161371457829003601f168201915b50505050509080600301805461374690615d96565b80601f016020809104026020016040519081016040528092919081815260200182805461377290615d96565b80156137bf5780601f10613794576101008083540402835291602001916137bf565b820191906000526020600020905b8154815290600101906020018083116137a257829003601f168201915b5050505050908060220154908060230160009054906101000a900460ff16905086565b601a6020528160005260406000206020528060005260406000206000915091505080600001549080600101549080600201549080600301549080600401549080600501549080600601549080600701549080600801549080600901549080600a0160009054906101000a900460ff1690508b565b6060602360008381526020019081526020016000208054806020026020016040519081016040528092919081815260200182805480156138eb57602002820191906000526020600020905b8160009054906101000a900473ffffffffffffffffffffffffffffffffffffffff1673ffffffffffffffffffffffffffffffffffffffff16815260200190600101908083116138a1575b50505050509050919050565b60086020528060005260406000206000915054906101000a900460ff1681565b6000601154905090565b6027818154811061393157600080fd5b906000526020600020906005020160009150905080600001549080600101549080600201805461396090615d96565b80601f016020809104026020016040519081016040528092919081815260200182805461398c90615d96565b80156139d95780601f106139ae576101008083540402835291602001916139d9565b820191906000526020600020905b8154815290600101906020018083116139bc57829003601f168201915b5050505050908060030154908060040160009054906101000a900460ff16905085565b6000801b613a09816141a8565b600860008373ffffffffffffffffffffffffffffffffffffffff1673ffffffffffffffffffffffffffffffffffffffff16815260200190815260200160002060009054906101000a900460ff16613a95576040517f08c379a0000000000000000000000000000000000000000000000000000000008152600401613a8c906169e3565b60405180910390fd5b60005b600680549050811015613c1b578273ffffffffffffffffffffffffffffffffffffffff1660068281548110613ad057613acf615d38565b5b9060005260206000200160009054906101000a900473ffffffffffffffffffffffffffffffffffffffff1673ffffffffffffffffffffffffffffffffffffffff1603613c0e5760066001600680549050613b2a91906164df565b81548110613b3b57613b3a615d38565b5b9060005260206000200160009054906101000a900473ffffffffffffffffffffffffffffffffffffffff1660068281548110613b7a57613b79615d38565b5b9060005260206000200160006101000a81548173ffffffffffffffffffffffffffffffffffffffff021916908373ffffffffffffffffffffffffffffffffffffffff1602179055506006805480613bd457613bd3616a03565b5b6001900381819060005260206000200160006101000a81549073ffffffffffffffffffffffffffffffffffffffff02191690559055613c1b565b8080600101915050613a98565b506000600860008473ffffffffffffffffffffffffffffffffffffffff1673ffffffffffffffffffffffffffffffffffffffff16815260200190815260200160002060006101000a81548160ff021916908315150217905550613c9e7fc10c77be35aff266144ed64c26a1fa104bae2f284ae99ac4a34203454704a185836142ae565b508173ffffffffffffffffffffffffffffffffffffffff167f55dba9d79522b91b615629d5f3b10c2fad2d258f1768614f4a52e937ada0d0ba60405160405180910390a25050565b60256020528160005260406000206020528060005260406000206000915091509054906101000a900460ff1681565b613d1e8261147b565b613d27816141a8565b613d3183836142ae565b50505050565b674563918244f4000081565b6000600160008473ffffffffffffffffffffffffffffffffffffffff1673ffffffffffffffffffffffffffffffffffffffff16815260200190815260200160002060008373ffffffffffffffffffffffffffffffffffffffff1673ffffffffffffffffffffffffffffffffffffffff16815260200190815260200160002054905092915050565b60298181548110613dda57600080fd5b90600052602060002090600302016000915090508060000160009054906101000a900460ff1690806001018054613e1090615d96565b80601f0160208091040260200160405190810160405280929190818152602001828054613e3c90615d96565b8015613e895780601f10613e5e57610100808354040283529160200191613e89565b820191906000526020600020905b815481529060010190602001808311613e6c57829003601f168201915b505050505090806002018054613e9e90615d96565b80601f0160208091040260200160405190810160405280929190818152602001828054613eca90615d96565b8015613f175780601f10613eec57610100808354040283529160200191613f17565b820191906000526020600020905b815481529060010190602001808311613efa57829003601f168201915b5050505050905083565b6000600b60000154905090565b60165481565b60175481565b6000613f667fc10c77be35aff266144ed64c26a1fa104bae2f284ae99ac4a34203454704a18583613087565b9050919050565b601c6020528160005260406000206020528060005260406000206000915091509054906101000a900460ff1681565b60007f01ffc9a7000000000000000000000000000000000000000000000000000000007bffffffffffffffffffffffffffffffffffffffffffffffffffffffff1916827bffffffffffffffffffffffffffffffffffffffffffffffffffffffff1916149050919050565b600033905090565b61401b83838360016146b3565b505050565b600061402c8484613d43565b90507fffffffffffffffffffffffffffffffffffffffffffffffffffffffffffffffff81146140ae578181101561409e578281836040517ffb8f41b200000000000000000000000000000000000000000000000000000000815260040161409593929190616a32565b60405180910390fd5b6140ad848484840360006146b3565b5b50505050565b600073ffffffffffffffffffffffffffffffffffffffff168373ffffffffffffffffffffffffffffffffffffffff16036141265760006040517f96c6fd1e00000000000000000000000000000000000000000000000000000000815260040161411d919061538c565b60405180910390fd5b600073ffffffffffffffffffffffffffffffffffffffff168273ffffffffffffffffffffffffffffffffffffffff16036141985760006040517fec442f0500000000000000000000000000000000000000000000000000000000815260040161418f919061538c565b60405180910390fd5b6141a383838361488a565b505050565b6141b9816141b4614006565b614aaf565b50565b60006141c88383613087565b6142a35760016005600085815260200190815260200160002060000160008473ffffffffffffffffffffffffffffffffffffffff1673ffffffffffffffffffffffffffffffffffffffff16815260200190815260200160002060006101000a81548160ff021916908315150217905550614240614006565b73ffffffffffffffffffffffffffffffffffffffff168273ffffffffffffffffffffffffffffffffffffffff16847f2f8788117e7eff1d82e926ec794901d17c78024a50270940304540a733656f0d60405160405180910390a4600190506142a8565b600090505b92915050565b60006142ba8383613087565b156143965760006005600085815260200190815260200160002060000160008473ffffffffffffffffffffffffffffffffffffffff1673ffffffffffffffffffffffffffffffffffffffff16815260200190815260200160002060006101000a81548160ff021916908315150217905550614333614006565b73ffffffffffffffffffffffffffffffffffffffff168273ffffffffffffffffffffffffffffffffffffffff16847ff6391f5c32d9c69d2a47ea670b442974b53935d1edc7fd64eb21e047a839171b60405160405180910390a46001905061439b565b600090505b92915050565b600080600090505b6023600085815260200190815260200160002080549050811015614460578273ffffffffffffffffffffffffffffffffffffffff1660236000868152602001908152602001600020828154811061440357614402615d38565b5b9060005260206000200160009054906101000a900473ffffffffffffffffffffffffffffffffffffffff1673ffffffffffffffffffffffffffffffffffffffff1603614453576001915050614466565b80806001019150506143a9565b50600090505b92915050565b600a8a1115801561447e5750600a8911155b801561448b5750600a8811155b80156144985750600a8711155b80156144a55750600a8611155b80156144b25750600a8511155b80156144bf5750600a8411155b80156144cc5750600a8311155b80156144d95750600a8211155b80156144e65750600a8111155b614525576040517f08c379a000000000000000000000000000000000000000000000000000000000815260040161451c90616ab5565b60405180910390fd5b50505050505050505050565b60008160090154826008015483600701548460060154856005015486600401548760030154886002015489600101548a6000015461456f9190616458565b6145799190616458565b6145839190616458565b61458d9190616458565b6145979190616458565b6145a19190616458565b6145ab9190616458565b6145b59190616458565b6145bf9190616458565b9050919050565b60006064600f6b204fce5e3e250261100000006145e39190615df6565b6145ed9190615e67565b6145f5613917565b836146009190616458565b1115614641576040517f08c379a000000000000000000000000000000000000000000000000000000000815260040161463890616b21565b60405180910390fd5b61464b8383614b00565b50816011600082825461465e9190616458565b92505081905550818373ffffffffffffffffffffffffffffffffffffffff167fad6ef58d5c294f81258965738e7ae511124139834a8d0b8f8f7327086c82052a60405160405180910390a36001905092915050565b600073ffffffffffffffffffffffffffffffffffffffff168473ffffffffffffffffffffffffffffffffffffffff16036147255760006040517fe602df0500000000000000000000000000000000000000000000000000000000815260040161471c919061538c565b60405180910390fd5b600073ffffffffffffffffffffffffffffffffffffffff168373ffffffffffffffffffffffffffffffffffffffff16036147975760006040517f94280d6200000000000000000000000000000000000000000000000000000000815260040161478e919061538c565b60405180910390fd5b81600160008673ffffffffffffffffffffffffffffffffffffffff1673ffffffffffffffffffffffffffffffffffffffff16815260200190815260200160002060008573ffffffffffffffffffffffffffffffffffffffff1673ffffffffffffffffffffffffffffffffffffffff168152602001908152602001600020819055508015614884578273ffffffffffffffffffffffffffffffffffffffff168473ffffffffffffffffffffffffffffffffffffffff167f8c5be1e5ebec7d5bd14f71427d1e84f3dd0314c0f7b2291e5b200ac8c7c3b9258460405161487b9190615231565b60405180910390a35b50505050565b600073ffffffffffffffffffffffffffffffffffffffff168373ffffffffffffffffffffffffffffffffffffffff16036148dc5780600260008282546148d09190616458565b925050819055506149af565b60008060008573ffffffffffffffffffffffffffffffffffffffff1673ffffffffffffffffffffffffffffffffffffffff16815260200190815260200160002054905081811015614968578381836040517fe450d38c00000000000000000000000000000000000000000000000000000000815260040161495f93929190616a32565b60405180910390fd5b8181036000808673ffffffffffffffffffffffffffffffffffffffff1673ffffffffffffffffffffffffffffffffffffffff16815260200190815260200160002081905550505b600073ffffffffffffffffffffffffffffffffffffffff168273ffffffffffffffffffffffffffffffffffffffff16036149f85780600260008282540392505081905550614a45565b806000808473ffffffffffffffffffffffffffffffffffffffff1673ffffffffffffffffffffffffffffffffffffffff168152602001908152602001600020600082825401925050819055505b8173ffffffffffffffffffffffffffffffffffffffff168373ffffffffffffffffffffffffffffffffffffffff167fddf252ad1be2c89b69c2b068fc378daa952ba7f163c4a11628f55a4df523b3ef83604051614aa29190615231565b60405180910390a3505050565b614ab98282613087565b614afc5780826040517fe2517d3f000000000000000000000000000000000000000000000000000000008152600401614af3929190616b41565b60405180910390fd5b5050565b60006b204fce5e3e25026110000000614b17611403565b83614b229190616458565b1115614b63576040517f08c379a0000000000000000000000000000000000000000000000000000000008152600401614b5a90616b21565b60405180910390fd5b614b6d8383614bbb565b818373ffffffffffffffffffffffffffffffffffffffff167fcda531bfd68624f13205c0a23cd4d5a7f09792cbb399603114f2b04aaa1bf5cf60405160405180910390a36001905092915050565b600073ffffffffffffffffffffffffffffffffffffffff168273ffffffffffffffffffffffffffffffffffffffff1603614c2d5760006040517fec442f05000000000000000000000000000000000000000000000000000000008152600401614c24919061538c565b60405180910390fd5b614c396000838361488a565b5050565b60405180610120016040528060008152602001606081526020016060815260200160001515815260200160008152602001600073ffffffffffffffffffffffffffffffffffffffff1681526020016000151581526020016060815260200160006002811115614caf57614cae615020565b5b81525090565b828054828255906000526020600020908101928215614d2e579160200282015b82811115614d2d5782518260006101000a81548173ffffffffffffffffffffffffffffffffffffffff021916908373ffffffffffffffffffffffffffffffffffffffff16021790555091602001919060010190614cd5565b5b509050614d3b9190614d60565b5090565b5080546000825590600052602060002090810190614d5d9190614d60565b50565b5b80821115614d79576000816000905550600101614d61565b5090565b6000604051905090565b600080fd5b600080fd5b60007fffffffff0000000000000000000000000000000000000000000000000000000082169050919050565b614dc681614d91565b8114614dd157600080fd5b50565b600081359050614de381614dbd565b92915050565b600060208284031215614dff57614dfe614d87565b5b6000614e0d84828501614dd4565b91505092915050565b60008115159050919050565b614e2b81614e16565b82525050565b6000602082019050614e466000830184614e22565b92915050565b600081519050919050565b600082825260208201905092915050565b6000819050602082019050919050565b6000819050919050565b614e8b81614e78565b82525050565b600081519050919050565b600082825260208201905092915050565b60005b83811015614ecb578082015181840152602081019050614eb0565b60008484015250505050565b6000601f19601f8301169050919050565b6000614ef382614e91565b614efd8185614e9c565b9350614f0d818560208601614ead565b614f1681614ed7565b840191505092915050565b614f2a81614e16565b82525050565b600073ffffffffffffffffffffffffffffffffffffffff82169050919050565b6000614f5b82614f30565b9050919050565b614f6b81614f50565b82525050565b600081519050919050565b600082825260208201905092915050565b6000819050602082019050919050565b6000614fa98383614f62565b60208301905092915050565b6000602082019050919050565b6000614fcd82614f71565b614fd78185614f7c565b9350614fe283614f8d565b8060005b83811015615013578151614ffa8882614f9d565b975061500583614fb5565b925050600181019050614fe6565b5085935050505092915050565b7f4e487b7100000000000000000000000000000000000000000000000000000000600052602160045260246000fd5b600381106150605761505f615020565b5b50565b60008190506150718261504f565b919050565b600061508182615063565b9050919050565b61509181615076565b82525050565b6000610120830160008301516150b06000860182614e82565b50602083015184820360208601526150c88282614ee8565b915050604083015184820360408601526150e28282614ee8565b91505060608301516150f76060860182614f21565b50608083015161510a6080860182614e82565b5060a083015161511d60a0860182614f62565b5060c083015161513060c0860182614f21565b5060e083015184820360e08601526151488282614fc2565b91505061010083015161515f610100860182615088565b508091505092915050565b60006151768383615097565b905092915050565b6000602082019050919050565b600061519682614e4c565b6151a08185614e57565b9350836020820285016151b285614e68565b8060005b858110156151ee57848403895281516151cf858261516a565b94506151da8361517e565b925060208a019950506001810190506151b6565b50829750879550505050505092915050565b6000602082019050818103600083015261521a818461518b565b905092915050565b61522b81614e78565b82525050565b60006020820190506152466000830184615222565b92915050565b600082825260208201905092915050565b600061526882614e91565b615272818561524c565b9350615282818560208601614ead565b61528b81614ed7565b840191505092915050565b600060208201905081810360008301526152b0818461525d565b905092915050565b6152c181614f50565b81146152cc57600080fd5b50565b6000813590506152de816152b8565b92915050565b6152ed81614e78565b81146152f857600080fd5b50565b60008135905061530a816152e4565b92915050565b6000806040838503121561532757615326614d87565b5b6000615335858286016152cf565b9250506020615346858286016152fb565b9150509250929050565b60006020828403121561536657615365614d87565b5b6000615374848285016152fb565b91505092915050565b61538681614f50565b82525050565b60006020820190506153a1600083018461537d565b92915050565b6000806000606084860312156153c0576153bf614d87565b5b60006153ce868287016152cf565b93505060206153df868287016152cf565b92505060406153f0868287016152fb565b9150509250925092565b6000819050919050565b61540d816153fa565b811461541857600080fd5b50565b60008135905061542a81615404565b92915050565b60006020828403121561544657615445614d87565b5b60006154548482850161541b565b91505092915050565b615466816153fa565b82525050565b6000602082019050615481600083018461545d565b92915050565b600060808201905061549c6000830187615222565b6154a96020830186615222565b81810360408301526154bb818561525d565b90506154ca6060830184614e22565b95945050505050565b6154dc81615076565b82525050565b6000610100820190506154f8600083018b615222565b818103602083015261550a818a61525d565b9050818103604083015261551e818961525d565b905061552d6060830188614e22565b61553a6080830187615222565b61554760a083018661537d565b61555460c0830185614e22565b61556160e08301846154d3565b9998505050505050505050565b600060c0820190506155836000830189615222565b6155906020830188615222565b81810360408301526155a2818761525d565b905081810360608301526155b6818661525d565b90506155c56080830185615222565b6155d260a0830184614e22565b979650505050505050565b600080604083850312156155f4576155f3614d87565b5b60006156028582860161541b565b9250506020615613858286016152cf565b9150509250929050565b600060ff82169050919050565b6156338161561d565b82525050565b600060208201905061564e600083018461562a565b92915050565b60006060820190506156696000830186615222565b6156766020830185615222565b8181036040830152615688818461525d565b9050949350505050565b6000602082840312156156a8576156a7614d87565b5b60006156b6848285016152cf565b91505092915050565b600081519050919050565b600082825260208201905092915050565b60006156e6826156bf565b6156f081856156ca565b9350615700818560208601614ead565b61570981614ed7565b840191505092915050565b600060c0820190506157296000830189615222565b615736602083018861537d565b615743604083018761537d565b818103606083015261575581866156db565b90506157646080830185615222565b61577160a0830184614e22565b979650505050505050565b6000806040838503121561579357615792614d87565b5b60006157a1858286016152fb565b92505060206157b2858286016152fb565b9150509250929050565b600060a0820190506157d16000830188615222565b6157de6020830187615222565b81810360408301526157f0818661525d565b90506157ff6060830185615222565b61580c6080830184614e22565b9695505050505050565b60008060008060008060008060008060006101608c8e03121561583c5761583b614d87565b5b600061584a8e828f016152fb565b9b5050602061585b8e828f016152fb565b9a5050604061586c8e828f016152fb565b995050606061587d8e828f016152fb565b985050608061588e8e828f016152fb565b97505060a061589f8e828f016152fb565b96505060c06158b08e828f016152fb565b95505060e06158c18e828f016152fb565b9450506101006158d38e828f016152fb565b9350506101206158e58e828f016152fb565b9250506101406158f78e828f016152fb565b9150509295989b509295989b9093969950565b600080fd5b600080fd5b7f4e487b7100000000000000000000000000000000000000000000000000000000600052604160045260246000fd5b61594c82614ed7565b810181811067ffffffffffffffff8211171561596b5761596a615914565b5b80604052505050565b600061597e614d7d565b905061598a8282615943565b919050565b600067ffffffffffffffff8211156159aa576159a9615914565b5b6159b382614ed7565b9050602081019050919050565b82818337600083830152505050565b60006159e26159dd8461598f565b615974565b9050828152602081018484840111156159fe576159fd61590f565b5b615a098482856159c0565b509392505050565b600082601f830112615a2657615a2561590a565b5b8135615a368482602086016159cf565b91505092915050565b60038110615a4c57600080fd5b50565b600081359050615a5e81615a3f565b92915050565b600080600060608486031215615a7d57615a7c614d87565b5b600084013567ffffffffffffffff811115615a9b57615a9a614d8c565b5b615aa786828701615a11565b935050602084013567ffffffffffffffff811115615ac857615ac7614d8c565b5b615ad486828701615a11565b9250506040615ae586828701615a4f565b9150509250925092565b60008060408385031215615b0657615b05614d87565b5b6000615b14858286016152fb565b9250506020615b25858286016152cf565b9150509250929050565b600061016082019050615b45600083018e615222565b615b52602083018d615222565b615b5f604083018c615222565b615b6c606083018b615222565b615b79608083018a615222565b615b8660a0830189615222565b615b9360c0830188615222565b615ba060e0830187615222565b615bae610100830186615222565b615bbc610120830185615222565b615bca610140830184614e22565b9c9b505050505050505050505050565b600082825260208201905092915050565b6000615bf682614f71565b615c008185615bda565b9350615c0b83614f8d565b8060005b83811015615c3c578151615c238882614f9d565b9750615c2e83614fb5565b925050600181019050615c0f565b5085935050505092915050565b60006020820190508181036000830152615c638184615beb565b905092915050565b60008060408385031215615c8257615c81614d87565b5b6000615c90858286016152cf565b9250506020615ca1858286016152cf565b9150509250929050565b60038110615cbc57615cbb615020565b5b50565b6000819050615ccd82615cab565b919050565b6000615cdd82615cbf565b9050919050565b615ced81615cd2565b82525050565b6000606082019050615d086000830186615ce4565b8181036020830152615d1a818561525d565b90508181036040830152615d2e818461525d565b9050949350505050565b7f4e487b7100000000000000000000000000000000000000000000000000000000600052603260045260246000fd5b7f4e487b7100000000000000000000000000000000000000000000000000000000600052602260045260246000fd5b60006002820490506001821680615dae57607f821691505b602082108103615dc157615dc0615d67565b5b50919050565b7f4e487b7100000000000000000000000000000000000000000000000000000000600052601160045260246000fd5b6000615e0182614e78565b9150615e0c83614e78565b9250828202615e1a81614e78565b91508282048414831517615e3157615e30615dc7565b5b5092915050565b7f4e487b7100000000000000000000000000000000000000000000000000000000600052601260045260246000fd5b6000615e7282614e78565b9150615e7d83614e78565b925082615e8d57615e8c615e38565b5b828204905092915050565b7f4e6f742073656c6563746564206173206120726576696577657220666f72207460008201527f68697320636f7572736500000000000000000000000000000000000000000000602082015250565b6000615ef4602a8361524c565b9150615eff82615e98565b604082019050919050565b60006020820190508181036000830152615f2381615ee7565b9050919050565b7f52657669657720616c7265616479207375626d6974746564206279207468697360008201527f2072657669657765722e00000000000000000000000000000000000000000000602082015250565b6000615f86602a8361524c565b9150615f9182615f2a565b604082019050919050565b60006020820190508181036000830152615fb581615f79565b9050919050565b7f416c726561647920696e20726576696577657220706f6f6c0000000000000000600082015250565b6000615ff260188361524c565b9150615ffd82615fbc565b602082019050919050565b6000602082019050818103600083015261602181615fe5565b9050919050565b7f436f7572736520616c726561647920617070726f766564000000000000000000600082015250565b600061605e60178361524c565b915061606982616028565b602082019050919050565b6000602082019050818103600083015261608d81616051565b9050919050565b7f596f75206861766520616c726561647920617070726f7665642074686973206360008201527f6f75727365000000000000000000000000000000000000000000000000000000602082015250565b60006160f060258361524c565b91506160fb82616094565b604082019050919050565b6000602082019050818103600083015261611f816160e3565b9050919050565b600061613182614e78565b91507fffffffffffffffffffffffffffffffffffffffffffffffffffffffffffffffff820361616357616162615dc7565b5b600182019050919050565b7f436f7572736520616c7265616479206578697374730000000000000000000000600082015250565b60006161a460158361524c565b91506161af8261616e565b602082019050919050565b600060208201905081810360008301526161d381616197565b9050919050565b60008190508160005260206000209050919050565b60006020601f8301049050919050565b600082821b905092915050565b60006008830261623c7fffffffffffffffffffffffffffffffffffffffffffffffffffffffffffffffff826161ff565b61624686836161ff565b95508019841693508086168417925050509392505050565b6000819050919050565b600061628361627e61627984614e78565b61625e565b614e78565b9050919050565b6000819050919050565b61629d83616268565b6162b16162a98261628a565b84845461620c565b825550505050565b600090565b6162c66162b9565b6162d1818484616294565b505050565b5b818110156162f5576162ea6000826162be565b6001810190506162d7565b5050565b601f82111561633a5761630b816161da565b616314846161ef565b81016020851015616323578190505b61633761632f856161ef565b8301826162d6565b50505b505050565b600082821c905092915050565b600061635d6000198460080261633f565b1980831691505092915050565b6000616376838361634c565b9150826002028217905092915050565b61638f82614e91565b67ffffffffffffffff8111156163a8576163a7615914565b5b6163b28254615d96565b6163bd8282856162f9565b600060209050601f8311600181146163f057600084156163de578287015190505b6163e8858261636a565b865550616450565b601f1984166163fe866161da565b60005b8281101561642657848901518255600182019150602085019450602081019050616401565b86831015616443578489015161643f601f89168261634c565b8355505b6001600288020188555050505b505050505050565b600061646382614e78565b915061646e83614e78565b925082820190508082111561648657616485615dc7565b5b92915050565b600081905092915050565b60006164a282614e91565b6164ac818561648c565b93506164bc818560208601614ead565b80840191505092915050565b60006164d48284616497565b915081905092915050565b60006164ea82614e78565b91506164f583614e78565b925082820390508181111561650d5761650c615dc7565b5b92915050565b7f52657669657765727320616c72656164792073656c6563746564000000000000600082015250565b6000616549601a8361524c565b915061655482616513565b602082019050919050565b600060208201905081810360008301526165788161653c565b9050919050565b7f4e6f7420656e6f7567682072657669657765727320696e2074686520706f6f6c600082015250565b60006165b560208361524c565b91506165c08261657f565b602082019050919050565b600060208201905081810360008301526165e4816165a8565b9050919050565b6000819050919050565b61660661660182614e78565b6165eb565b82525050565b600061661882876165f5565b60208201915061662882866165f5565b60208201915061663882856165f5565b60208201915061664882846165f5565b60208201915081905095945050505050565b600061666582614e78565b915061667083614e78565b9250826166805761667f615e38565b5b828206905092915050565b600081549050919050565b60008190508160005260206000209050919050565b60008160001c9050919050565b600073ffffffffffffffffffffffffffffffffffffffff82169050919050565b60006166eb6166e6836166ab565b6166b8565b9050919050565b60006166fe82546166d8565b9050919050565b6000600182019050919050565b600061671d8261668b565b6167278185615bda565b935061673283616696565b8060005b8381101561676a57616747826166f2565b6167518882614f9d565b975061675c83616705565b925050600181019050616736565b5085935050505092915050565b600060208201905081810360008301526167918184616712565b905092915050565b7f50726f706f73616c20616c726561647920657865637574656400000000000000600082015250565b60006167cf60198361524c565b91506167da82616799565b602082019050919050565b600060208201905081810360008301526167fe816167c2565b9050919050565b7f416c726561647920617070726f76656400000000000000000000000000000000600082015250565b600061683b60108361524c565b915061684682616805565b602082019050919050565b6000602082019050818103600083015261686a8161682e565b9050919050565b600081905092915050565b60008190508160005260206000209050919050565b6000815461689e81615d96565b6168a88186616871565b945060018216600081146168c357600181146168d85761690b565b60ff198316865281151582028601935061690b565b6168e18561687c565b60005b83811015616903578154818901526001820191506020810190506168e4565b838801955050505b50505092915050565b60006169208284616891565b915081905092915050565b7f50726f706f73616c20657865637574696f6e206661696c656400000000000000600082015250565b600061696160198361524c565b915061696c8261692b565b602082019050919050565b6000602082019050818103600083015261699081616954565b9050919050565b7f4e6f7420696e20726576696577657220706f6f6c000000000000000000000000600082015250565b60006169cd60148361524c565b91506169d882616997565b602082019050919050565b600060208201905081810360008301526169fc816169c0565b9050919050565b7f4e487b7100000000000000000000000000000000000000000000000000000000600052603160045260246000fd5b6000606082019050616a47600083018661537d565b616a546020830185615222565b616a616040830184615222565b949350505050565b7f53636f726573206d757374206265206265747765656e203120616e642031302e600082015250565b6000616a9f60208361524c565b9150616aaa82616a69565b602082019050919050565b60006020820190508181036000830152616ace81616a92565b9050919050565b7f4c696d6974204578636565646564210000000000000000000000000000000000600082015250565b6000616b0b600f8361524c565b9150616b1682616ad5565b602082019050919050565b60006020820190508181036000830152616b3a81616afe565b9050919050565b6000604082019050616b56600083018561537d565b616b63602083018461545d565b939250505056fea2646970667358221220bcd9c989f8bbd37e9dca175c7d1d781d9ff3fdc661f2c1abe7dbb8b33666e0f564736f6c634300081b0033",
  "linkReferences": {},
  "deployedLinkReferences": {}
}