{
  "_format": "hh-sol-artifact-1",
  "contractName": "Ecosystem",
  "sourceName": "contracts/Ecosystem Contracts/Ecosystem.sol",
  "abi": [
    {
      "inputs": [
        {
          "internalType": "address[]",
          "name": "_reviewers",
          "type": "address[]"
        }
      ],
      "stateMutability": "nonpayable",
      "type": "constructor"
    },
    {
      "inputs": [],
      "name": "AccessControlBadConfirmation",
      "type": "error"
    },
    {
      "inputs": [
        {
          "internalType": "address",
          "name": "account",
          "type": "address"
        },
        {
          "internalType": "bytes32",
          "name": "neededRole",
          "type": "bytes32"
        }
      ],
      "name": "AccessControlUnauthorizedAccount",
      "type": "error"
    },
    {
      "inputs": [
        {
          "internalType": "address",
          "name": "spender",
          "type": "address"
        },
        {
          "internalType": "uint256",
          "name": "allowance",
          "type": "uint256"
        },
        {
          "internalType": "uint256",
          "name": "needed",
          "type": "uint256"
        }
      ],
      "name": "ERC20InsufficientAllowance",
      "type": "error"
    },
    {
      "inputs": [
        {
          "internalType": "address",
          "name": "sender",
          "type": "address"
        },
        {
          "internalType": "uint256",
          "name": "balance",
          "type": "uint256"
        },
        {
          "internalType": "uint256",
          "name": "needed",
          "type": "uint256"
        }
      ],
      "name": "ERC20InsufficientBalance",
      "type": "error"
    },
    {
      "inputs": [
        {
          "internalType": "address",
          "name": "approver",
          "type": "address"
        }
      ],
      "name": "ERC20InvalidApprover",
      "type": "error"
    },
    {
      "inputs": [
        {
          "internalType": "address",
          "name": "receiver",
          "type": "address"
        }
      ],
      "name": "ERC20InvalidReceiver",
      "type": "error"
    },
    {
      "inputs": [
        {
          "internalType": "address",
          "name": "sender",
          "type": "address"
        }
      ],
      "name": "ERC20InvalidSender",
      "type": "error"
    },
    {
      "inputs": [
        {
          "internalType": "address",
          "name": "spender",
          "type": "address"
        }
      ],
      "name": "ERC20InvalidSpender",
      "type": "error"
    },
    {
      "inputs": [],
      "name": "ReentrancyGuardReentrantCall",
      "type": "error"
    },
    {
      "anonymous": false,
      "inputs": [
        {
          "indexed": true,
          "internalType": "address",
          "name": "owner",
          "type": "address"
        },
        {
          "indexed": true,
          "internalType": "address",
          "name": "spender",
          "type": "address"
        },
        {
          "indexed": false,
          "internalType": "uint256",
          "name": "value",
          "type": "uint256"
        }
      ],
      "name": "Approval",
      "type": "event"
    },
    {
      "anonymous": false,
      "inputs": [
        {
          "indexed": true,
          "internalType": "address",
          "name": "_account",
          "type": "address"
        },
        {
          "indexed": false,
          "internalType": "uint256",
          "name": "_amount",
          "type": "uint256"
        }
      ],
      "name": "BurnSuccess",
      "type": "event"
    },
    {
      "anonymous": false,
      "inputs": [
        {
          "indexed": true,
          "internalType": "uint256",
          "name": "_courseID",
          "type": "uint256"
        },
        {
          "indexed": true,
          "internalType": "string",
          "name": "_courseName",
          "type": "string"
        },
        {
          "indexed": false,
          "internalType": "bool",
          "name": "_approved",
          "type": "bool"
        }
      ],
      "name": "CourseCreationSuccess",
      "type": "event"
    },
    {
      "anonymous": false,
      "inputs": [
        {
          "indexed": true,
          "internalType": "address",
          "name": "_to",
          "type": "address"
        },
        {
          "indexed": true,
          "internalType": "uint256",
          "name": "_amount",
          "type": "uint256"
        }
      ],
      "name": "EcosystemPoolUpdate",
      "type": "event"
    },
    {
      "anonymous": false,
      "inputs": [
        {
          "indexed": true,
          "internalType": "address",
          "name": "_to",
          "type": "address"
        },
        {
          "indexed": true,
          "internalType": "uint256",
          "name": "_amount",
          "type": "uint256"
        }
      ],
      "name": "MintSuccess",
      "type": "event"
    },
    {
      "anonymous": false,
      "inputs": [
        {
          "indexed": true,
          "internalType": "uint256",
          "name": "proposalId",
          "type": "uint256"
        },
        {
          "indexed": false,
          "internalType": "address",
          "name": "approver",
          "type": "address"
        }
      ],
      "name": "MultiSigProposalApproved",
      "type": "event"
    },
    {
      "anonymous": false,
      "inputs": [
        {
          "indexed": true,
          "internalType": "uint256",
          "name": "proposalId",
          "type": "uint256"
        },
        {
          "indexed": false,
          "internalType": "address",
          "name": "proposer",
          "type": "address"
        }
      ],
      "name": "MultiSigProposalCreated",
      "type": "event"
    },
    {
      "anonymous": false,
      "inputs": [
        {
          "indexed": true,
          "internalType": "uint256",
          "name": "proposalId",
          "type": "uint256"
        }
      ],
      "name": "MultiSigProposalExecuted",
      "type": "event"
    },
    {
      "anonymous": false,
      "inputs": [
        {
          "indexed": true,
          "internalType": "address",
          "name": "reviewer",
          "type": "address"
        }
      ],
      "name": "ReviewerAddedToPool",
      "type": "event"
    },
    {
      "anonymous": false,
      "inputs": [
        {
          "indexed": true,
          "internalType": "address",
          "name": "reviewer",
          "type": "address"
        }
      ],
      "name": "ReviewerRemovedFromPool",
      "type": "event"
    },
    {
      "anonymous": false,
      "inputs": [
        {
          "indexed": true,
          "internalType": "uint256",
          "name": "courseId",
          "type": "uint256"
        },
        {
          "indexed": false,
          "internalType": "address[]",
          "name": "reviewers",
          "type": "address[]"
        }
      ],
      "name": "ReviewersSelected",
      "type": "event"
    },
    {
      "anonymous": false,
      "inputs": [
        {
          "indexed": true,
          "internalType": "bytes32",
          "name": "role",
          "type": "bytes32"
        },
        {
          "indexed": true,
          "internalType": "bytes32",
          "name": "previousAdminRole",
          "type": "bytes32"
        },
        {
          "indexed": true,
          "internalType": "bytes32",
          "name": "newAdminRole",
          "type": "bytes32"
        }
      ],
      "name": "RoleAdminChanged",
      "type": "event"
    },
    {
      "anonymous": false,
      "inputs": [
        {
          "indexed": true,
          "internalType": "bytes32",
          "name": "role",
          "type": "bytes32"
        },
        {
          "indexed": true,
          "internalType": "address",
          "name": "account",
          "type": "address"
        },
        {
          "indexed": true,
          "internalType": "address",
          "name": "sender",
          "type": "address"
        }
      ],
      "name": "RoleGranted",
      "type": "event"
    },
    {
      "anonymous": false,
      "inputs": [
        {
          "indexed": true,
          "internalType": "bytes32",
          "name": "role",
          "type": "bytes32"
        },
        {
          "indexed": true,
          "internalType": "address",
          "name": "account",
          "type": "address"
        },
        {
          "indexed": true,
          "internalType": "address",
          "name": "sender",
          "type": "address"
        }
      ],
      "name": "RoleRevoked",
      "type": "event"
    },
    {
      "anonymous": false,
      "inputs": [
        {
          "indexed": true,
          "internalType": "address",
          "name": "from",
          "type": "address"
        },
        {
          "indexed": true,
          "internalType": "address",
          "name": "to",
          "type": "address"
        },
        {
          "indexed": false,
          "internalType": "uint256",
          "name": "value",
          "type": "uint256"
        }
      ],
      "name": "Transfer",
      "type": "event"
    },
    {
      "inputs": [],
      "name": "COURSE_OWNER_ROLE",
      "outputs": [
        {
          "internalType": "bytes32",
          "name": "",
          "type": "bytes32"
        }
      ],
      "stateMutability": "view",
      "type": "function"
    },
    {
      "inputs": [],
      "name": "CREATE_COURSE_REWARD",
      "outputs": [
        {
          "internalType": "uint256",
          "name": "",
          "type": "uint256"
        }
      ],
      "stateMutability": "view",
      "type": "function"
    },
    {
      "inputs": [],
      "name": "DEFAULT_ADMIN_ROLE",
      "outputs": [
        {
          "internalType": "bytes32",
          "name": "",
          "type": "bytes32"
        }
      ],
      "stateMutability": "view",
      "type": "function"
    },
    {
      "inputs": [],
      "name": "ECOSYSTEM_POOL",
      "outputs": [
        {
          "internalType": "uint256",
          "name": "",
          "type": "uint256"
        }
      ],
      "stateMutability": "view",
      "type": "function"
    },
    {
      "inputs": [],
      "name": "ENROLLMENT_REWARD",
      "outputs": [
        {
          "internalType": "uint256",
          "name": "",
          "type": "uint256"
        }
      ],
      "stateMutability": "view",
      "type": "function"
    },
    {
      "inputs": [],
      "name": "MAX_SCORE",
      "outputs": [
        {
          "internalType": "uint256",
          "name": "",
          "type": "uint256"
        }
      ],
      "stateMutability": "view",
      "type": "function"
    },
    {
      "inputs": [],
      "name": "MAX_SUPPLY",
      "outputs": [
        {
          "internalType": "uint256",
          "name": "",
          "type": "uint256"
        }
      ],
      "stateMutability": "view",
      "type": "function"
    },
    {
      "inputs": [],
      "name": "MIN_APPROVAL_SCORE",
      "outputs": [
        {
          "internalType": "uint256",
          "name": "",
          "type": "uint256"
        }
      ],
      "stateMutability": "view",
      "type": "function"
    },
    {
      "inputs": [],
      "name": "MULTISIG_APPROVER",
      "outputs": [
        {
          "internalType": "bytes32",
          "name": "",
          "type": "bytes32"
        }
      ],
      "stateMutability": "view",
      "type": "function"
    },
    {
      "inputs": [],
      "name": "REQUIRED_APPROVALS",
      "outputs": [
        {
          "internalType": "uint256",
          "name": "",
          "type": "uint256"
        }
      ],
      "stateMutability": "view",
      "type": "function"
    },
    {
      "inputs": [],
      "name": "REVIEWER_ROLE",
      "outputs": [
        {
          "internalType": "bytes32",
          "name": "",
          "type": "bytes32"
        }
      ],
      "stateMutability": "view",
      "type": "function"
    },
    {
      "inputs": [
        {
          "internalType": "address",
          "name": "",
          "type": "address"
        }
      ],
      "name": "accountCourses",
      "outputs": [
        {
          "internalType": "uint256",
          "name": "courseCount",
          "type": "uint256"
        }
      ],
      "stateMutability": "view",
      "type": "function"
    },
    {
      "inputs": [
        {
          "internalType": "address",
          "name": "newApprover",
          "type": "address"
        }
      ],
      "name": "addMultiSigApprover",
      "outputs": [],
      "stateMutability": "nonpayable",
      "type": "function"
    },
    {
      "inputs": [
        {
          "internalType": "address",
          "name": "newReviewer",
          "type": "address"
        }
      ],
      "name": "addReviewer",
      "outputs": [],
      "stateMutability": "nonpayable",
      "type": "function"
    },
    {
      "inputs": [
        {
          "internalType": "address",
          "name": "owner",
          "type": "address"
        },
        {
          "internalType": "address",
          "name": "spender",
          "type": "address"
        }
      ],
      "name": "allowance",
      "outputs": [
        {
          "internalType": "uint256",
          "name": "",
          "type": "uint256"
        }
      ],
      "stateMutability": "view",
      "type": "function"
    },
    {
      "inputs": [
        {
          "internalType": "address",
          "name": "",
          "type": "address"
        },
        {
          "internalType": "uint256",
          "name": "",
          "type": "uint256"
        }
      ],
      "name": "approvals",
      "outputs": [
        {
          "internalType": "bool",
          "name": "",
          "type": "bool"
        }
      ],
      "stateMutability": "view",
      "type": "function"
    },
    {
      "inputs": [
        {
          "internalType": "address",
          "name": "spender",
          "type": "address"
        },
        {
          "internalType": "uint256",
          "name": "value",
          "type": "uint256"
        }
      ],
      "name": "approve",
      "outputs": [
        {
          "internalType": "bool",
          "name": "",
          "type": "bool"
        }
      ],
      "stateMutability": "nonpayable",
      "type": "function"
    },
    {
      "inputs": [
        {
          "internalType": "uint256",
          "name": "_courseId",
          "type": "uint256"
        }
      ],
      "name": "approveCourse",
      "outputs": [],
      "stateMutability": "nonpayable",
      "type": "function"
    },
    {
      "inputs": [
        {
          "internalType": "uint256",
          "name": "_proposalId",
          "type": "uint256"
        }
      ],
      "name": "approveMultiSigProposal",
      "outputs": [],
      "stateMutability": "nonpayable",
      "type": "function"
    },
    {
      "inputs": [
        {
          "internalType": "address",
          "name": "account",
          "type": "address"
        }
      ],
      "name": "balanceOf",
      "outputs": [
        {
          "internalType": "uint256",
          "name": "",
          "type": "uint256"
        }
      ],
      "stateMutability": "view",
      "type": "function"
    },
    {
      "inputs": [
        {
          "internalType": "uint256",
          "name": "",
          "type": "uint256"
        }
      ],
      "name": "chapter",
      "outputs": [
        {
          "internalType": "uint256",
          "name": "courseId",
          "type": "uint256"
        },
        {
          "internalType": "uint256",
          "name": "chapterId",
          "type": "uint256"
        },
        {
          "internalType": "string",
          "name": "chapterName",
          "type": "string"
        },
        {
          "internalType": "uint256",
          "name": "duration",
          "type": "uint256"
        },
        {
          "internalType": "bool",
          "name": "exists",
          "type": "bool"
        }
      ],
      "stateMutability": "view",
      "type": "function"
    },
    {
      "inputs": [
        {
          "internalType": "uint256",
          "name": "",
          "type": "uint256"
        },
        {
          "internalType": "uint256",
          "name": "",
          "type": "uint256"
        }
      ],
      "name": "chapterLessons",
      "outputs": [
        {
          "internalType": "string",
          "name": "",
          "type": "string"
        }
      ],
      "stateMutability": "view",
      "type": "function"
    },
    {
      "inputs": [
        {
          "internalType": "uint256",
          "name": "",
          "type": "uint256"
        },
        {
          "internalType": "uint256",
          "name": "",
          "type": "uint256"
        }
      ],
      "name": "courseChapters",
      "outputs": [
        {
          "internalType": "uint256",
          "name": "courseId",
          "type": "uint256"
        },
        {
          "internalType": "uint256",
          "name": "chapterId",
          "type": "uint256"
        },
        {
          "internalType": "string",
          "name": "chapterName",
          "type": "string"
        },
        {
          "internalType": "uint256",
          "name": "duration",
          "type": "uint256"
        },
        {
          "internalType": "bool",
          "name": "exists",
          "type": "bool"
        }
      ],
      "stateMutability": "view",
      "type": "function"
    },
    {
      "inputs": [],
      "name": "courseCount",
      "outputs": [
        {
          "internalType": "uint256",
          "name": "",
          "type": "uint256"
        }
      ],
      "stateMutability": "view",
      "type": "function"
    },
    {
      "inputs": [
        {
          "internalType": "uint256",
          "name": "",
          "type": "uint256"
        }
      ],
      "name": "courseObject",
      "outputs": [
        {
          "internalType": "uint256",
          "name": "courseId",
          "type": "uint256"
        },
        {
          "internalType": "string",
          "name": "courseName",
          "type": "string"
        },
        {
          "internalType": "string",
          "name": "description",
          "type": "string"
        },
        {
          "internalType": "bool",
          "name": "approved",
          "type": "bool"
        },
        {
          "internalType": "uint256",
          "name": "approvalCount",
          "type": "uint256"
        },
        {
          "internalType": "address",
          "name": "creator",
          "type": "address"
        },
        {
          "internalType": "bool",
          "name": "exists",
          "type": "bool"
        },
        {
          "internalType": "enum Ecosystem.DifficultyLevel",
          "name": "difficultyLevel",
          "type": "uint8"
        }
      ],
      "stateMutability": "view",
      "type": "function"
    },
    {
      "inputs": [
        {
          "internalType": "uint256",
          "name": "",
          "type": "uint256"
        }
      ],
      "name": "courseReviewInitiated",
      "outputs": [
        {
          "internalType": "bool",
          "name": "",
          "type": "bool"
        }
      ],
      "stateMutability": "view",
      "type": "function"
    },
    {
      "inputs": [
        {
          "internalType": "uint256",
          "name": "",
          "type": "uint256"
        },
        {
          "internalType": "uint256",
          "name": "",
          "type": "uint256"
        }
      ],
      "name": "courseReviewers",
      "outputs": [
        {
          "internalType": "address",
          "name": "",
          "type": "address"
        }
      ],
      "stateMutability": "view",
      "type": "function"
    },
    {
      "inputs": [
        {
          "internalType": "string",
          "name": "_courseName",
          "type": "string"
        },
        {
          "internalType": "string",
          "name": "_description",
          "type": "string"
        },
        {
          "internalType": "enum Ecosystem.DifficultyLevel",
          "name": "_difficultyLevel",
          "type": "uint8"
        }
      ],
      "name": "createCourse",
      "outputs": [
        {
          "internalType": "bool",
          "name": "",
          "type": "bool"
        }
      ],
      "stateMutability": "nonpayable",
      "type": "function"
    },
    {
      "inputs": [],
      "name": "decimals",
      "outputs": [
        {
          "internalType": "uint8",
          "name": "",
          "type": "uint8"
        }
      ],
      "stateMutability": "view",
      "type": "function"
    },
    {
      "inputs": [],
      "name": "ecosystemPoolSupply",
      "outputs": [
        {
          "internalType": "uint256",
          "name": "",
          "type": "uint256"
        }
      ],
      "stateMutability": "view",
      "type": "function"
    },
    {
      "inputs": [],
      "name": "getAllCourses",
      "outputs": [
        {
          "components": [
            {
              "internalType": "uint256",
              "name": "courseId",
              "type": "uint256"
            },
            {
              "internalType": "string",
              "name": "courseName",
              "type": "string"
            },
            {
              "internalType": "string",
              "name": "description",
              "type": "string"
            },
            {
              "internalType": "bool",
              "name": "approved",
              "type": "bool"
            },
            {
              "internalType": "uint256",
              "name": "approvalCount",
              "type": "uint256"
            },
            {
              "internalType": "address",
              "name": "creator",
              "type": "address"
            },
            {
              "internalType": "bool",
              "name": "exists",
              "type": "bool"
            },
            {
              "internalType": "address[]",
              "name": "enrolledStudents",
              "type": "address[]"
            },
            {
              "internalType": "enum Ecosystem.DifficultyLevel",
              "name": "difficultyLevel",
              "type": "uint8"
            }
          ],
          "internalType": "struct Ecosystem.Course[]",
          "name": "",
          "type": "tuple[]"
        }
      ],
      "stateMutability": "view",
      "type": "function"
    },
    {
      "inputs": [
        {
          "internalType": "uint256",
          "name": "courseId",
          "type": "uint256"
        }
      ],
      "name": "getCourseReviewers",
      "outputs": [
        {
          "internalType": "address[]",
          "name": "",
          "type": "address[]"
        }
      ],
      "stateMutability": "view",
      "type": "function"
    },
    {
      "inputs": [],
      "name": "getCurrentEcosystemPoolSupply",
      "outputs": [
        {
          "internalType": "uint256",
          "name": "",
          "type": "uint256"
        }
      ],
      "stateMutability": "view",
      "type": "function"
    },
    {
      "inputs": [
        {
          "internalType": "bytes32",
          "name": "role",
          "type": "bytes32"
        }
      ],
      "name": "getRoleAdmin",
      "outputs": [
        {
          "internalType": "bytes32",
          "name": "",
          "type": "bytes32"
        }
      ],
      "stateMutability": "view",
      "type": "function"
    },
    {
      "inputs": [
        {
          "internalType": "bytes32",
          "name": "role",
          "type": "bytes32"
        },
        {
          "internalType": "address",
          "name": "account",
          "type": "address"
        }
      ],
      "name": "grantRole",
      "outputs": [],
      "stateMutability": "nonpayable",
      "type": "function"
    },
    {
      "inputs": [
        {
          "internalType": "bytes32",
          "name": "role",
          "type": "bytes32"
        },
        {
          "internalType": "address",
          "name": "account",
          "type": "address"
        }
      ],
      "name": "hasRole",
      "outputs": [
        {
          "internalType": "bool",
          "name": "",
          "type": "bool"
        }
      ],
      "stateMutability": "view",
      "type": "function"
    },
    {
      "inputs": [
        {
          "internalType": "uint256",
          "name": "",
          "type": "uint256"
        },
        {
          "internalType": "address",
          "name": "",
          "type": "address"
        }
      ],
      "name": "isEnrolled",
      "outputs": [
        {
          "internalType": "bool",
          "name": "",
          "type": "bool"
        }
      ],
      "stateMutability": "view",
      "type": "function"
    },
    {
      "inputs": [
        {
          "internalType": "address",
          "name": "",
          "type": "address"
        }
      ],
      "name": "isInReviewerPool",
      "outputs": [
        {
          "internalType": "bool",
          "name": "",
          "type": "bool"
        }
      ],
      "stateMutability": "view",
      "type": "function"
    },
    {
      "inputs": [
        {
          "internalType": "address",
          "name": "account",
          "type": "address"
        }
      ],
      "name": "isReviewer",
      "outputs": [
        {
          "internalType": "bool",
          "name": "",
          "type": "bool"
        }
      ],
      "stateMutability": "view",
      "type": "function"
    },
    {
      "inputs": [
        {
          "internalType": "uint256",
          "name": "",
          "type": "uint256"
        }
      ],
      "name": "lesson",
      "outputs": [
        {
          "internalType": "uint256",
          "name": "chapterId",
          "type": "uint256"
        },
        {
          "internalType": "uint256",
          "name": "lessonId",
          "type": "uint256"
        },
        {
          "internalType": "string",
          "name": "lessonName",
          "type": "string"
        },
        {
          "internalType": "string",
          "name": "lessonContent",
          "type": "string"
        },
        {
          "internalType": "uint256",
          "name": "resourceCount",
          "type": "uint256"
        },
        {
          "internalType": "bool",
          "name": "exists",
          "type": "bool"
        }
      ],
      "stateMutability": "view",
      "type": "function"
    },
    {
      "inputs": [
        {
          "internalType": "uint256",
          "name": "",
          "type": "uint256"
        }
      ],
      "name": "listOfChapters",
      "outputs": [
        {
          "internalType": "uint256",
          "name": "courseId",
          "type": "uint256"
        },
        {
          "internalType": "uint256",
          "name": "chapterId",
          "type": "uint256"
        },
        {
          "internalType": "string",
          "name": "chapterName",
          "type": "string"
        },
        {
          "internalType": "uint256",
          "name": "duration",
          "type": "uint256"
        },
        {
          "internalType": "bool",
          "name": "exists",
          "type": "bool"
        }
      ],
      "stateMutability": "view",
      "type": "function"
    },
    {
      "inputs": [
        {
          "internalType": "uint256",
          "name": "",
          "type": "uint256"
        }
      ],
      "name": "listOfCourses",
      "outputs": [
        {
          "internalType": "uint256",
          "name": "courseId",
          "type": "uint256"
        },
        {
          "internalType": "string",
          "name": "courseName",
          "type": "string"
        },
        {
          "internalType": "string",
          "name": "description",
          "type": "string"
        },
        {
          "internalType": "bool",
          "name": "approved",
          "type": "bool"
        },
        {
          "internalType": "uint256",
          "name": "approvalCount",
          "type": "uint256"
        },
        {
          "internalType": "address",
          "name": "creator",
          "type": "address"
        },
        {
          "internalType": "bool",
          "name": "exists",
          "type": "bool"
        },
        {
          "internalType": "enum Ecosystem.DifficultyLevel",
          "name": "difficultyLevel",
          "type": "uint8"
        }
      ],
      "stateMutability": "view",
      "type": "function"
    },
    {
      "inputs": [
        {
          "internalType": "uint256",
          "name": "",
          "type": "uint256"
        }
      ],
      "name": "listOfLessons",
      "outputs": [
        {
          "internalType": "uint256",
          "name": "chapterId",
          "type": "uint256"
        },
        {
          "internalType": "uint256",
          "name": "lessonId",
          "type": "uint256"
        },
        {
          "internalType": "string",
          "name": "lessonName",
          "type": "string"
        },
        {
          "internalType": "string",
          "name": "lessonContent",
          "type": "string"
        },
        {
          "internalType": "uint256",
          "name": "resourceCount",
          "type": "uint256"
        },
        {
          "internalType": "bool",
          "name": "exists",
          "type": "bool"
        }
      ],
      "stateMutability": "view",
      "type": "function"
    },
    {
      "inputs": [
        {
          "internalType": "uint256",
          "name": "",
          "type": "uint256"
        }
      ],
      "name": "listOfQuestions",
      "outputs": [
        {
          "internalType": "uint256",
          "name": "quizId",
          "type": "uint256"
        },
        {
          "internalType": "uint256",
          "name": "questionId",
          "type": "uint256"
        },
        {
          "internalType": "string",
          "name": "questionText",
          "type": "string"
        }
      ],
      "stateMutability": "view",
      "type": "function"
    },
    {
      "inputs": [
        {
          "internalType": "uint256",
          "name": "",
          "type": "uint256"
        }
      ],
      "name": "listOfQuizzes",
      "outputs": [
        {
          "internalType": "uint256",
          "name": "lessonId",
          "type": "uint256"
        },
        {
          "internalType": "uint256",
          "name": "quizId",
          "type": "uint256"
        },
        {
          "internalType": "string",
          "name": "quizTitle",
          "type": "string"
        },
        {
          "internalType": "bool",
          "name": "exists",
          "type": "bool"
        }
      ],
      "stateMutability": "view",
      "type": "function"
    },
    {
      "inputs": [
        {
          "internalType": "uint256",
          "name": "",
          "type": "uint256"
        }
      ],
      "name": "listOfResource",
      "outputs": [
        {
          "internalType": "enum Ecosystem.ContentType",
          "name": "contentType",
          "type": "uint8"
        },
        {
          "internalType": "string",
          "name": "url",
          "type": "string"
        },
        {
          "internalType": "string",
          "name": "name",
          "type": "string"
        }
      ],
      "stateMutability": "view",
      "type": "function"
    },
    {
      "inputs": [
        {
          "internalType": "uint256",
          "name": "",
          "type": "uint256"
        }
      ],
      "name": "multiSigProposals",
      "outputs": [
        {
          "internalType": "uint256",
          "name": "id",
          "type": "uint256"
        },
        {
          "internalType": "address",
          "name": "proposer",
          "type": "address"
        },
        {
          "internalType": "address",
          "name": "targetContract",
          "type": "address"
        },
        {
          "internalType": "bytes",
          "name": "data",
          "type": "bytes"
        },
        {
          "internalType": "uint256",
          "name": "approvalCount",
          "type": "uint256"
        },
        {
          "internalType": "bool",
          "name": "executed",
          "type": "bool"
        }
      ],
      "stateMutability": "view",
      "type": "function"
    },
    {
      "inputs": [],
      "name": "name",
      "outputs": [
        {
          "internalType": "string",
          "name": "",
          "type": "string"
        }
      ],
      "stateMutability": "view",
      "type": "function"
    },
    {
      "inputs": [],
      "name": "nextChapterId",
      "outputs": [
        {
          "internalType": "uint256",
          "name": "",
          "type": "uint256"
        }
      ],
      "stateMutability": "view",
      "type": "function"
    },
    {
      "inputs": [],
      "name": "nextChoiceId",
      "outputs": [
        {
          "internalType": "uint256",
          "name": "",
          "type": "uint256"
        }
      ],
      "stateMutability": "view",
      "type": "function"
    },
    {
      "inputs": [],
      "name": "nextCourseId",
      "outputs": [
        {
          "internalType": "uint256",
          "name": "",
          "type": "uint256"
        }
      ],
      "stateMutability": "view",
      "type": "function"
    },
    {
      "inputs": [],
      "name": "nextCourseIdd",
      "outputs": [
        {
          "internalType": "uint256",
          "name": "",
          "type": "uint256"
        }
      ],
      "stateMutability": "view",
      "type": "function"
    },
    {
      "inputs": [],
      "name": "nextLessonId",
      "outputs": [
        {
          "internalType": "uint256",
          "name": "",
          "type": "uint256"
        }
      ],
      "stateMutability": "view",
      "type": "function"
    },
    {
      "inputs": [],
      "name": "nextQuestionId",
      "outputs": [
        {
          "internalType": "uint256",
          "name": "",
          "type": "uint256"
        }
      ],
      "stateMutability": "view",
      "type": "function"
    },
    {
      "inputs": [],
      "name": "nextQuizId",
      "outputs": [
        {
          "internalType": "uint256",
          "name": "",
          "type": "uint256"
        }
      ],
      "stateMutability": "view",
      "type": "function"
    },
    {
      "inputs": [
        {
          "internalType": "uint256",
          "name": "",
          "type": "uint256"
        }
      ],
      "name": "questions",
      "outputs": [
        {
          "internalType": "uint256",
          "name": "quizId",
          "type": "uint256"
        },
        {
          "internalType": "uint256",
          "name": "questionId",
          "type": "uint256"
        },
        {
          "internalType": "string",
          "name": "questionText",
          "type": "string"
        }
      ],
      "stateMutability": "view",
      "type": "function"
    },
    {
      "inputs": [
        {
          "internalType": "uint256",
          "name": "",
          "type": "uint256"
        }
      ],
      "name": "quizzes",
      "outputs": [
        {
          "internalType": "uint256",
          "name": "lessonId",
          "type": "uint256"
        },
        {
          "internalType": "uint256",
          "name": "quizId",
          "type": "uint256"
        },
        {
          "internalType": "string",
          "name": "quizTitle",
          "type": "string"
        },
        {
          "internalType": "bool",
          "name": "exists",
          "type": "bool"
        }
      ],
      "stateMutability": "view",
      "type": "function"
    },
    {
      "inputs": [
        {
          "internalType": "address",
          "name": "approver",
          "type": "address"
        }
      ],
      "name": "removeMultiSigApprover",
      "outputs": [],
      "stateMutability": "nonpayable",
      "type": "function"
    },
    {
      "inputs": [
        {
          "internalType": "address",
          "name": "reviewer",
          "type": "address"
        }
      ],
      "name": "removeReviewer",
      "outputs": [],
      "stateMutability": "nonpayable",
      "type": "function"
    },
    {
      "inputs": [
        {
          "internalType": "bytes32",
          "name": "role",
          "type": "bytes32"
        },
        {
          "internalType": "address",
          "name": "callerConfirmation",
          "type": "address"
        }
      ],
      "name": "renounceRole",
      "outputs": [],
      "stateMutability": "nonpayable",
      "type": "function"
    },
    {
      "inputs": [
        {
          "internalType": "uint256",
          "name": "",
          "type": "uint256"
        }
      ],
      "name": "reviewerPool",
      "outputs": [
        {
          "internalType": "address",
          "name": "",
          "type": "address"
        }
      ],
      "stateMutability": "view",
      "type": "function"
    },
    {
      "inputs": [
        {
          "internalType": "uint256",
          "name": "",
          "type": "uint256"
        },
        {
          "internalType": "address",
          "name": "",
          "type": "address"
        }
      ],
      "name": "reviews",
      "outputs": [
        {
          "internalType": "uint256",
          "name": "learnerAgency",
          "type": "uint256"
        },
        {
          "internalType": "uint256",
          "name": "criticalThinking",
          "type": "uint256"
        },
        {
          "internalType": "uint256",
          "name": "collaborativeLearning",
          "type": "uint256"
        },
        {
          "internalType": "uint256",
          "name": "reflectivePractice",
          "type": "uint256"
        },
        {
          "internalType": "uint256",
          "name": "adaptiveLearning",
          "type": "uint256"
        },
        {
          "internalType": "uint256",
          "name": "authenticLearning",
          "type": "uint256"
        },
        {
          "internalType": "uint256",
          "name": "technologyIntegration",
          "type": "uint256"
        },
        {
          "internalType": "uint256",
          "name": "learnerSupport",
          "type": "uint256"
        },
        {
          "internalType": "uint256",
          "name": "assessmentForLearning",
          "type": "uint256"
        },
        {
          "internalType": "uint256",
          "name": "engagementAndMotivation",
          "type": "uint256"
        },
        {
          "internalType": "bool",
          "name": "isSubmitted",
          "type": "bool"
        }
      ],
      "stateMutability": "view",
      "type": "function"
    },
    {
      "inputs": [
        {
          "internalType": "bytes32",
          "name": "role",
          "type": "bytes32"
        },
        {
          "internalType": "address",
          "name": "account",
          "type": "address"
        }
      ],
      "name": "revokeRole",
      "outputs": [],
      "stateMutability": "nonpayable",
      "type": "function"
    },
    {
      "inputs": [
        {
          "internalType": "uint256",
          "name": "courseId",
          "type": "uint256"
        }
      ],
      "name": "selectCourseReviewers",
      "outputs": [],
      "stateMutability": "nonpayable",
      "type": "function"
    },
    {
      "inputs": [
        {
          "internalType": "uint256",
          "name": "courseId",
          "type": "uint256"
        },
        {
          "internalType": "uint256",
          "name": "learnerAgency",
          "type": "uint256"
        },
        {
          "internalType": "uint256",
          "name": "criticalThinking",
          "type": "uint256"
        },
        {
          "internalType": "uint256",
          "name": "collaborativeLearning",
          "type": "uint256"
        },
        {
          "internalType": "uint256",
          "name": "reflectivePractice",
          "type": "uint256"
        },
        {
          "internalType": "uint256",
          "name": "adaptiveLearning",
          "type": "uint256"
        },
        {
          "internalType": "uint256",
          "name": "authenticLearning",
          "type": "uint256"
        },
        {
          "internalType": "uint256",
          "name": "technologyIntegration",
          "type": "uint256"
        },
        {
          "internalType": "uint256",
          "name": "learnerSupport",
          "type": "uint256"
        },
        {
          "internalType": "uint256",
          "name": "assessmentForLearning",
          "type": "uint256"
        },
        {
          "internalType": "uint256",
          "name": "engagementAndMotivation",
          "type": "uint256"
        }
      ],
      "name": "submitReview",
      "outputs": [],
      "stateMutability": "nonpayable",
      "type": "function"
    },
    {
      "inputs": [
        {
          "internalType": "bytes4",
          "name": "interfaceId",
          "type": "bytes4"
        }
      ],
      "name": "supportsInterface",
      "outputs": [
        {
          "internalType": "bool",
          "name": "",
          "type": "bool"
        }
      ],
      "stateMutability": "view",
      "type": "function"
    },
    {
      "inputs": [],
      "name": "symbol",
      "outputs": [
        {
          "internalType": "string",
          "name": "",
          "type": "string"
        }
      ],
      "stateMutability": "view",
      "type": "function"
    },
    {
      "inputs": [],
      "name": "totalSupply",
      "outputs": [
        {
          "internalType": "uint256",
          "name": "",
          "type": "uint256"
        }
      ],
      "stateMutability": "view",
      "type": "function"
    },
    {
      "inputs": [
        {
          "internalType": "address",
          "name": "to",
          "type": "address"
        },
        {
          "internalType": "uint256",
          "name": "value",
          "type": "uint256"
        }
      ],
      "name": "transfer",
      "outputs": [
        {
          "internalType": "bool",
          "name": "",
          "type": "bool"
        }
      ],
      "stateMutability": "nonpayable",
      "type": "function"
    },
    {
      "inputs": [
        {
          "internalType": "address",
          "name": "from",
          "type": "address"
        },
        {
          "internalType": "address",
          "name": "to",
          "type": "address"
        },
        {
          "internalType": "uint256",
          "name": "value",
          "type": "uint256"
        }
      ],
      "name": "transferFrom",
      "outputs": [
        {
          "internalType": "bool",
          "name": "",
          "type": "bool"
        }
      ],
      "stateMutability": "nonpayable",
      "type": "function"
    }
  ],
  "bytecode": "0x608060405234801561001057600080fd5b506040516176bd3803806176bd83398181016040528101906100329190610639565b806040518060400160405280600a81526020017f4142594120544f4b454e000000000000000000000000000000000000000000008152506040518060400160405280600681526020017f414259544b4e000000000000000000000000000000000000000000000000000081525081600390816100ae91906108a3565b5080600490816100be91906108a3565b505050600481511015610106576040517f08c379a00000000000000000000000000000000000000000000000000000000081526004016100fd906109f8565b60405180910390fd5b6101196000801b336102be60201b60201c565b5061014a7fdf1425bae297c2f52b4f15d18a50b1fc8cb5b981a981b1d213ed3ff92681b64d336102be60201b60201c565b5060005b815181101561029e576101a17fc10c77be35aff266144ed64c26a1fa104bae2f284ae99ac4a34203454704a18583838151811061018e5761018d610a18565b5b60200260200101516102be60201b60201c565b5060068282815181106101b7576101b6610a18565b5b60200260200101519080600181540180825580915050600190039060005260206000200160009091909190916101000a81548173ffffffffffffffffffffffffffffffffffffffff021916908373ffffffffffffffffffffffffffffffffffffffff16021790555060016008600084848151811061023857610237610a18565b5b602002602001015173ffffffffffffffffffffffffffffffffffffffff1673ffffffffffffffffffffffffffffffffffffffff16815260200190815260200160002060006101000a81548160ff021916908315150217905550808060010191505061014e565b50506001600a819055506102b8600b6103bc60201b60201c565b50610a47565b60006102d083836103fb60201b60201c565b6103b15760016005600085815260200190815260200160002060000160008473ffffffffffffffffffffffffffffffffffffffff1673ffffffffffffffffffffffffffffffffffffffff16815260200190815260200160002060006101000a81548160ff02191690831515021790555061034e61046660201b60201c565b73ffffffffffffffffffffffffffffffffffffffff168273ffffffffffffffffffffffffffffffffffffffff16847f2f8788117e7eff1d82e926ec794901d17c78024a50270940304540a733656f0d60405160405180910390a4600190506103b6565b600090505b92915050565b60018160000181905550600181600101819055506001816002018190555060018160030181905550600181600401819055506001816005018190555050565b60006005600084815260200190815260200160002060000160008373ffffffffffffffffffffffffffffffffffffffff1673ffffffffffffffffffffffffffffffffffffffff16815260200190815260200160002060009054906101000a900460ff16905092915050565b600033905090565b6000604051905090565b600080fd5b600080fd5b600080fd5b6000601f19601f8301169050919050565b7f4e487b7100000000000000000000000000000000000000000000000000000000600052604160045260246000fd5b6104d082610487565b810181811067ffffffffffffffff821117156104ef576104ee610498565b5b80604052505050565b600061050261046e565b905061050e82826104c7565b919050565b600067ffffffffffffffff82111561052e5761052d610498565b5b602082029050602081019050919050565b600080fd5b600073ffffffffffffffffffffffffffffffffffffffff82169050919050565b600061056f82610544565b9050919050565b61057f81610564565b811461058a57600080fd5b50565b60008151905061059c81610576565b92915050565b60006105b56105b084610513565b6104f8565b905080838252602082019050602084028301858111156105d8576105d761053f565b5b835b8181101561060157806105ed888261058d565b8452602084019350506020810190506105da565b5050509392505050565b600082601f8301126106205761061f610482565b5b81516106308482602086016105a2565b91505092915050565b60006020828403121561064f5761064e610478565b5b600082015167ffffffffffffffff81111561066d5761066c61047d565b5b6106798482850161060b565b91505092915050565b600081519050919050565b7f4e487b7100000000000000000000000000000000000000000000000000000000600052602260045260246000fd5b600060028204905060018216806106d457607f821691505b6020821081036106e7576106e661068d565b5b50919050565b60008190508160005260206000209050919050565b60006020601f8301049050919050565b600082821b905092915050565b60006008830261074f7fffffffffffffffffffffffffffffffffffffffffffffffffffffffffffffffff82610712565b6107598683610712565b95508019841693508086168417925050509392505050565b6000819050919050565b6000819050919050565b60006107a061079b61079684610771565b61077b565b610771565b9050919050565b6000819050919050565b6107ba83610785565b6107ce6107c6826107a7565b84845461071f565b825550505050565b600090565b6107e36107d6565b6107ee8184846107b1565b505050565b5b81811015610812576108076000826107db565b6001810190506107f4565b5050565b601f82111561085757610828816106ed565b61083184610702565b81016020851015610840578190505b61085461084c85610702565b8301826107f3565b50505b505050565b600082821c905092915050565b600061087a6000198460080261085c565b1980831691505092915050565b60006108938383610869565b9150826002028217905092915050565b6108ac82610682565b67ffffffffffffffff8111156108c5576108c4610498565b5b6108cf82546106bc565b6108da828285610816565b600060209050601f83116001811461090d57600084156108fb578287015190505b6109058582610887565b86555061096d565b601f19841661091b866106ed565b60005b828110156109435784890151825560018201915060208501945060208101905061091e565b86831015610960578489015161095c601f891682610869565b8355505b6001600288020188555050505b505050505050565b600082825260208201905092915050565b7f4174206c6561737420342072657669657765727320617265207265717569726560008201527f6400000000000000000000000000000000000000000000000000000000000000602082015250565b60006109e2602183610975565b91506109ed82610986565b604082019050919050565b60006020820190508181036000830152610a11816109d5565b9050919050565b7f4e487b7100000000000000000000000000000000000000000000000000000000600052603260045260246000fd5b616c6780610a566000396000f3fe608060405234801561001057600080fd5b50600436106104125760003560e01c806370a0823111610220578063bad0dd6511610130578063d547741f116100b8578063ded5c18d11610087578063ded5c18d14610e0c578063e503f10814610e2a578063eb264b9c14610e48578063fdc6258a14610e66578063ffabc67314610e9657610412565b8063d547741f14610d70578063d93f2caa14610d8c578063dd62ed3e14610daa578063ddfc79fb14610dda57610412565b8063c491b04c116100ff578063c491b04c14610ca2578063c7954e4c14610cd2578063c90c884d14610cf0578063c9442dac14610d24578063c976831514610d4057610412565b8063bad0dd6514610be7578063bfd2f4c514610c03578063c12804fb14610c38578063c293bbbe14610c7257610412565b806391d14854116101b3578063a217fddf11610182578063a217fddf14610b17578063a3ef204114610b35578063a9059cbb14610b69578063aa95da3a14610b99578063ac957c6314610bc957610412565b806391d1485414610a7b57806395d89b4114610aab578063a14ecbdf14610ac9578063a1cd05b114610ae757610412565b8063846f8152116101ef578063846f8152146109de57806388409afa146109fc5780638a2492bb14610a2f5780638ea6e2fd14610a5f57610412565b806370a082311461095857806373a82b5f1461098857806375284998146109a45780637d83daf2146109c057610412565b80632f2ff15d116103265780634d42ef48116102ae57806358a3fa251161027d57806358a3fa25146108ab578063599c5533146108c757806366055159146108e55780636b000fa7146109035780636fdb67f71461092157610412565b80634d42ef481461080b5780634d6ca5d51461083f57806351d93c811461085b57806352994e2f1461088d57610412565b806334ed4bdb116102f557806334ed4bdb1461074e57806336568abe1461077e5780633693dcfa1461079a5780633b129a56146107b857806340932bf8146107d657610412565b80632f2ff15d146106c4578063313ce567146106e057806331b1b978146106fe57806332cb6b0c1461073057610412565b806319f102ec116103a957806327ff62231161037857806327ff6223146105e9578063295b825a146106075780632990db7c1461063a57806329a0be65146106715780632aac61ae1461068f57610412565b806319f102ec1461053b57806323b872dd1461056b578063248a9ca31461059b578063274202f0146105cb57610412565b8063095ea7b3116103e5578063095ea7b3146104a157806311ce15df146104d157806318160ddd1461050157806319656f7b1461051f57610412565b806301ffc9a71461041757806304e48bd114610447578063057f46bb1461046557806306fdde0314610483575b600080fd5b610431600480360381019061042c9190614eb0565b610ec6565b60405161043e9190614ef8565b60405180910390f35b61044f610f40565b60405161045c91906152c7565b60405180910390f35b61046d611376565b60405161047a91906152f8565b60405180910390f35b61048b61137c565b604051610498919061535d565b60405180910390f35b6104bb60048036038101906104b691906153d7565b61140e565b6040516104c89190614ef8565b60405180910390f35b6104eb60048036038101906104e69190615417565b611431565b6040516104f89190614ef8565b60405180910390f35b610509611451565b60405161051691906152f8565b60405180910390f35b61053960048036038101906105349190615444565b61145b565b005b61055560048036038101906105509190615417565b611497565b6040516105629190615480565b60405180910390f35b6105856004803603810190610580919061549b565b6114d6565b6040516105929190614ef8565b60405180910390f35b6105b560048036038101906105b09190615524565b611505565b6040516105c29190615560565b60405180910390f35b6105d3611525565b6040516105e091906152f8565b60405180910390f35b6105f161154d565b6040516105fe91906152f8565b60405180910390f35b610621600480360381019061061c9190615417565b611552565b604051610631949392919061557b565b60405180910390f35b610654600480360381019061064f9190615417565b611627565b6040516106689897969594939291906155d6565b60405180910390f35b6106796117c6565b60405161068691906152f8565b60405180910390f35b6106a960048036038101906106a49190615417565b6117cc565b6040516106bb96959493929190615662565b60405180910390f35b6106de60048036038101906106d991906156d1565b611935565b005b6106e8611957565b6040516106f5919061572d565b60405180910390f35b61071860048036038101906107139190615417565b611960565b60405161072793929190615748565b60405180910390f35b610738611a12565b60405161074591906152f8565b60405180910390f35b61076860048036038101906107639190615444565b611a22565b60405161077591906152f8565b60405180910390f35b610798600480360381019061079391906156d1565b611a40565b005b6107a2611abb565b6040516107af9190615560565b60405180910390f35b6107c0611adf565b6040516107cd9190615560565b60405180910390f35b6107f060048036038101906107eb9190615417565b611b03565b604051610802969594939291906157db565b60405180910390f35b61082560048036038101906108209190615843565b611c14565b604051610836959493929190615883565b60405180910390f35b61085960048036038101906108549190615444565b611cfc565b005b61087560048036038101906108709190615417565b611d38565b60405161088493929190615748565b60405180910390f35b610895611dfa565b6040516108a29190615560565b60405180910390f35b6108c560048036038101906108c091906158dd565b611e1e565b005b6108cf6120e4565b6040516108dc91906152f8565b60405180910390f35b6108ed6120e9565b6040516108fa91906152f8565b60405180910390f35b61090b6120ef565b60405161091891906152f8565b60405180910390f35b61093b60048036038101906109369190615417565b6120f5565b60405161094f9897969594939291906155d6565b60405180910390f35b610972600480360381019061096d9190615444565b6122a4565b60405161097f91906152f8565b60405180910390f35b6109a2600480360381019061099d9190615444565b6122ec565b005b6109be60048036038101906109b99190615417565b6124d0565b005b6109c8612827565b6040516109d591906152f8565b60405180910390f35b6109e661282d565b6040516109f391906152f8565b60405180910390f35b610a166004803603810190610a119190615417565b612839565b604051610a26949392919061557b565b60405180910390f35b610a496004803603810190610a449190615b2b565b6128fe565b604051610a569190614ef8565b60405180910390f35b610a796004803603810190610a749190615417565b612de3565b005b610a956004803603810190610a9091906156d1565b61314d565b604051610aa29190614ef8565b60405180910390f35b610ab36131b8565b604051610ac0919061535d565b60405180910390f35b610ad161324a565b604051610ade91906152f8565b60405180910390f35b610b016004803603810190610afc9190615843565b613250565b604051610b0e9190615480565b60405180910390f35b610b1f61329e565b604051610b2c9190615560565b60405180910390f35b610b4f6004803603810190610b4a9190615417565b6132a5565b604051610b60959493929190615883565b60405180910390f35b610b836004803603810190610b7e91906153d7565b613370565b604051610b909190614ef8565b60405180910390f35b610bb36004803603810190610bae9190615843565b613393565b604051610bc0919061535d565b60405180910390f35b610bd161344b565b604051610bde91906152f8565b60405180910390f35b610c016004803603810190610bfc9190615417565b613450565b005b610c1d6004803603810190610c189190615417565b61374f565b604051610c2f96959493929190615662565b60405180910390f35b610c526004803603810190610c4d9190615bb6565b6138a8565b604051610c699b9a99989796959493929190615bf6565b60405180910390f35b610c8c6004803603810190610c879190615417565b61391c565b604051610c999190615d10565b60405180910390f35b610cbc6004803603810190610cb79190615444565b6139bd565b604051610cc99190614ef8565b60405180910390f35b610cda6139dd565b604051610ce791906152f8565b60405180910390f35b610d0a6004803603810190610d059190615417565b6139e7565b604051610d1b959493929190615883565b60405180910390f35b610d3e6004803603810190610d399190615444565b613ac2565b005b610d5a6004803603810190610d559190615bb6565b613dac565b604051610d679190614ef8565b60405180910390f35b610d8a6004803603810190610d8591906156d1565b613ddb565b005b610d94613dfd565b604051610da191906152f8565b60405180910390f35b610dc46004803603810190610dbf9190615d32565b613e09565b604051610dd191906152f8565b60405180910390f35b610df46004803603810190610def9190615417565b613e90565b604051610e0393929190615dba565b60405180910390f35b610e14613fe7565b604051610e2191906152f8565b60405180910390f35b610e32613ff4565b604051610e3f91906152f8565b60405180910390f35b610e50613ffa565b604051610e5d91906152f8565b60405180910390f35b610e806004803603810190610e7b9190615444565b614000565b604051610e8d9190614ef8565b60405180910390f35b610eb06004803603810190610eab91906153d7565b614033565b604051610ebd9190614ef8565b60405180910390f35b60007f7965db0b000000000000000000000000000000000000000000000000000000007bffffffffffffffffffffffffffffffffffffffffffffffffffffffff1916827bffffffffffffffffffffffffffffffffffffffffffffffffffffffff19161480610f395750610f3882614062565b5b9050919050565b6060600060268054905067ffffffffffffffff811115610f6357610f626159db565b5b604051908082528060200260200182016040528015610f9c57816020015b610f89614d04565b815260200190600190039081610f815790505b50905060005b60268054905081101561136e5760405180610120016040528060268381548110610fcf57610fce615dff565b5b906000526020600020906008020160000154815260200160268381548110610ffa57610ff9615dff565b5b9060005260206000209060080201600101805461101690615e5d565b80601f016020809104026020016040519081016040528092919081815260200182805461104290615e5d565b801561108f5780601f106110645761010080835404028352916020019161108f565b820191906000526020600020905b81548152906001019060200180831161107257829003601f168201915b50505050508152602001602683815481106110ad576110ac615dff565b5b906000526020600020906008020160020180546110c990615e5d565b80601f01602080910402602001604051908101604052809291908181526020018280546110f590615e5d565b80156111425780601f1061111757610100808354040283529160200191611142565b820191906000526020600020905b81548152906001019060200180831161112557829003601f168201915b50505050508152602001602683815481106111605761115f615dff565b5b906000526020600020906008020160030160009054906101000a900460ff16151581526020016026838154811061119a57611199615dff565b5b9060005260206000209060080201600401548152602001602683815481106111c5576111c4615dff565b5b906000526020600020906008020160050160009054906101000a900473ffffffffffffffffffffffffffffffffffffffff1673ffffffffffffffffffffffffffffffffffffffff1681526020016026838154811061122657611225615dff565b5b906000526020600020906008020160050160149054906101000a900460ff1615158152602001602683815481106112605761125f615dff565b5b90600052602060002090600802016006018054806020026020016040519081016040528092919081815260200182805480156112f157602002820191906000526020600020905b8160009054906101000a900473ffffffffffffffffffffffffffffffffffffffff1673ffffffffffffffffffffffffffffffffffffffff16815260200190600101908083116112a7575b505050505081526020016026838154811061130f5761130e615dff565b5b906000526020600020906008020160070160009054906101000a900460ff1660028111156113405761133f6150e7565b5b81525082828151811061135657611355615dff565b5b60200260200101819052508080600101915050610fa2565b508091505090565b60145481565b60606003805461138b90615e5d565b80601f01602080910402602001604051908101604052809291908181526020018280546113b790615e5d565b80156114045780601f106113d957610100808354040283529160200191611404565b820191906000526020600020905b8154815290600101906020018083116113e757829003601f168201915b5050505050905090565b6000806114196140cc565b90506114268185856140d4565b600191505092915050565b60246020528060005260406000206000915054906101000a900460ff1681565b6000600254905090565b6000801b611468816140e6565b6114927fdf1425bae297c2f52b4f15d18a50b1fc8cb5b981a981b1d213ed3ff92681b64d836140fa565b505050565b600681815481106114a757600080fd5b906000526020600020016000915054906101000a900473ffffffffffffffffffffffffffffffffffffffff1681565b6000806114e16140cc565b90506114ee8582856141ed565b6114f9858585614282565b60019150509392505050565b600060056000838152602001908152602001600020600101549050919050565b6064600f6b204fce5e3e250261100000006115409190615ebd565b61154a9190615f2e565b81565b606481565b602a818154811061156257600080fd5b906000526020600020906005020160009150905080600001549080600101549080600201805461159190615e5d565b80601f01602080910402602001604051908101604052809291908181526020018280546115bd90615e5d565b801561160a5780601f106115df5761010080835404028352916020019161160a565b820191906000526020600020905b8154815290600101906020018083116115ed57829003601f168201915b5050505050908060040160009054906101000a900460ff16905084565b601960205280600052604060002060009150905080600001549080600101805461165090615e5d565b80601f016020809104026020016040519081016040528092919081815260200182805461167c90615e5d565b80156116c95780601f1061169e576101008083540402835291602001916116c9565b820191906000526020600020905b8154815290600101906020018083116116ac57829003601f168201915b5050505050908060020180546116de90615e5d565b80601f016020809104026020016040519081016040528092919081815260200182805461170a90615e5d565b80156117575780601f1061172c57610100808354040283529160200191611757565b820191906000526020600020905b81548152906001019060200180831161173a57829003601f168201915b5050505050908060030160009054906101000a900460ff16908060040154908060050160009054906101000a900473ffffffffffffffffffffffffffffffffffffffff16908060050160149054906101000a900460ff16908060070160009054906101000a900460ff16905088565b60155481565b602881815481106117dc57600080fd5b906000526020600020906024020160009150905080600001549080600101549080600201805461180b90615e5d565b80601f016020809104026020016040519081016040528092919081815260200182805461183790615e5d565b80156118845780601f1061185957610100808354040283529160200191611884565b820191906000526020600020905b81548152906001019060200180831161186757829003601f168201915b50505050509080600301805461189990615e5d565b80601f01602080910402602001604051908101604052809291908181526020018280546118c590615e5d565b80156119125780601f106118e757610100808354040283529160200191611912565b820191906000526020600020905b8154815290600101906020018083116118f557829003601f168201915b5050505050908060220154908060230160009054906101000a900460ff16905086565b61193e82611505565b611947816140e6565b6119518383614376565b50505050565b60006012905090565b602260205280600052604060002060009150905080600001549080600101549080600201805461198f90615e5d565b80601f01602080910402602001604051908101604052809291908181526020018280546119bb90615e5d565b8015611a085780601f106119dd57610100808354040283529160200191611a08565b820191906000526020600020905b8154815290600101906020018083116119eb57829003601f168201915b5050505050905083565b6b204fce5e3e2502611000000081565b601b6020528060005260406000206000915090508060000154905081565b611a486140cc565b73ffffffffffffffffffffffffffffffffffffffff168173ffffffffffffffffffffffffffffffffffffffff1614611aac576040517f6697b23200000000000000000000000000000000000000000000000000000000815260040160405180910390fd5b611ab682826140fa565b505050565b7fadb22091b155738d2e889eb96f509d2a7c93234236b30400927feb4a6a15ab0081565b7fc10c77be35aff266144ed64c26a1fa104bae2f284ae99ac4a34203454704a18581565b60096020528060005260406000206000915090508060000154908060010160009054906101000a900473ffffffffffffffffffffffffffffffffffffffff16908060020160009054906101000a900473ffffffffffffffffffffffffffffffffffffffff1690806003018054611b7890615e5d565b80601f0160208091040260200160405190810160405280929190818152602001828054611ba490615e5d565b8015611bf15780601f10611bc657610100808354040283529160200191611bf1565b820191906000526020600020905b815481529060010190602001808311611bd457829003601f168201915b5050505050908060040154908060050160009054906101000a900460ff16905086565b601e6020528160005260406000208181548110611c3057600080fd5b906000526020600020906005020160009150915050806000015490806001015490806002018054611c6090615e5d565b80601f0160208091040260200160405190810160405280929190818152602001828054611c8c90615e5d565b8015611cd95780601f10611cae57610100808354040283529160200191611cd9565b820191906000526020600020905b815481529060010190602001808311611cbc57829003601f168201915b5050505050908060030154908060040160009054906101000a900460ff16905085565b6000801b611d09816140e6565b611d337fdf1425bae297c2f52b4f15d18a50b1fc8cb5b981a981b1d213ed3ff92681b64d83614376565b505050565b602b8181548110611d4857600080fd5b9060005260206000209060040201600091509050806000015490806001015490806002018054611d7790615e5d565b80601f0160208091040260200160405190810160405280929190818152602001828054611da390615e5d565b8015611df05780601f10611dc557610100808354040283529160200191611df0565b820191906000526020600020905b815481529060010190602001808311611dd357829003601f168201915b5050505050905083565b7fdf1425bae297c2f52b4f15d18a50b1fc8cb5b981a981b1d213ed3ff92681b64d81565b7fc10c77be35aff266144ed64c26a1fa104bae2f284ae99ac4a34203454704a185611e48816140e6565b611e528c33614468565b611e91576040517f08c379a0000000000000000000000000000000000000000000000000000000008152600401611e8890615fd1565b60405180910390fd5b601a60008d815260200190815260200160002060003373ffffffffffffffffffffffffffffffffffffffff1673ffffffffffffffffffffffffffffffffffffffff168152602001908152602001600020600a0160009054906101000a900460ff1615611f32576040517f08c379a0000000000000000000000000000000000000000000000000000000008152600401611f2990616063565b60405180910390fd5b611f448b8b8b8b8b8b8b8b8b8b614533565b6040518061016001604052808c81526020018b81526020018a815260200189815260200188815260200187815260200186815260200185815260200184815260200183815260200160011515815250601a60008e815260200190815260200160002060003373ffffffffffffffffffffffffffffffffffffffff1673ffffffffffffffffffffffffffffffffffffffff168152602001908152602001600020600082015181600001556020820151816001015560408201518160020155606082015181600301556080820151816004015560a0820151816005015560c0820151816006015560e082015181600701556101008201518160080155610120820151816009015561014082015181600a0160006101000a81548160ff02191690831515021790555090505060506120c7601a60008f815260200190815260200160002060003373ffffffffffffffffffffffffffffffffffffffff1673ffffffffffffffffffffffffffffffffffffffff1681526020019081526020016000206145f8565b106120d6576120d58c6124d0565b5b505050505050505050505050565b600281565b60125481565b60185481565b6026818154811061210557600080fd5b906000526020600020906008020160009150905080600001549080600101805461212e90615e5d565b80601f016020809104026020016040519081016040528092919081815260200182805461215a90615e5d565b80156121a75780601f1061217c576101008083540402835291602001916121a7565b820191906000526020600020905b81548152906001019060200180831161218a57829003601f168201915b5050505050908060020180546121bc90615e5d565b80601f01602080910402602001604051908101604052809291908181526020018280546121e890615e5d565b80156122355780601f1061220a57610100808354040283529160200191612235565b820191906000526020600020905b81548152906001019060200180831161221857829003601f168201915b5050505050908060030160009054906101000a900460ff16908060040154908060050160009054906101000a900473ffffffffffffffffffffffffffffffffffffffff16908060050160149054906101000a900460ff16908060070160009054906101000a900460ff16905088565b60008060008373ffffffffffffffffffffffffffffffffffffffff1673ffffffffffffffffffffffffffffffffffffffff168152602001908152602001600020549050919050565b7fc10c77be35aff266144ed64c26a1fa104bae2f284ae99ac4a34203454704a185612316816140e6565b600860008373ffffffffffffffffffffffffffffffffffffffff1673ffffffffffffffffffffffffffffffffffffffff16815260200190815260200160002060009054906101000a900460ff16156123a3576040517f08c379a000000000000000000000000000000000000000000000000000000000815260040161239a906160cf565b60405180910390fd5b6123cd7fc10c77be35aff266144ed64c26a1fa104bae2f284ae99ac4a34203454704a18583614376565b506006829080600181540180825580915050600190039060005260206000200160009091909190916101000a81548173ffffffffffffffffffffffffffffffffffffffff021916908373ffffffffffffffffffffffffffffffffffffffff1602179055506001600860008473ffffffffffffffffffffffffffffffffffffffff1673ffffffffffffffffffffffffffffffffffffffff16815260200190815260200160002060006101000a81548160ff0219169083151502179055508173ffffffffffffffffffffffffffffffffffffffff167fe1cb5e1230cc02e62c60b81c1aa5ade512f3eac296edb28628b4cf344f47f93160405160405180910390a25050565b7fc10c77be35aff266144ed64c26a1fa104bae2f284ae99ac4a34203454704a1856124fa816140e6565b60006019600084815260200190815260200160002090508060030160009054906101000a900460ff1615612563576040517f08c379a000000000000000000000000000000000000000000000000000000000815260040161255a9061613b565b60405180910390fd5b601c60003373ffffffffffffffffffffffffffffffffffffffff1673ffffffffffffffffffffffffffffffffffffffff168152602001908152602001600020600084815260200190815260200160002060009054906101000a900460ff1615612601576040517f08c379a00000000000000000000000000000000000000000000000000000000081526004016125f8906161cd565b60405180910390fd5b6001601c60003373ffffffffffffffffffffffffffffffffffffffff1673ffffffffffffffffffffffffffffffffffffffff168152602001908152602001600020600085815260200190815260200160002060006101000a81548160ff02191690831515021790555080600401600081548092919061267f906161ed565b919050555060028160040154106127a45760018160030160006101000a81548160ff02191690831515021790555060005b6026805490508110156127675783602682815481106126d2576126d1615dff565b5b9060005260206000209060080201600001540361275a576001602682815481106126ff576126fe615dff565b5b906000526020600020906008020160030160006101000a81548160ff0219169083151502179055508160040154602682815481106127405761273f615dff565b5b906000526020600020906008020160040181905550612767565b80806001019150506126b0565b5061279e8160050160009054906101000a900473ffffffffffffffffffffffffffffffffffffffff16674563918244f4000061468d565b50612822565b60005b6026805490508110156128205783602682815481106127c9576127c8615dff565b5b90600052602060002090600802016000015403612813578160040154602682815481106127f9576127f8615dff565b5b906000526020600020906008020160040181905550612820565b80806001019150506127a7565b505b505050565b60135481565b671bc16d674ec8000081565b602160205280600052604060002060009150905080600001549080600101549080600201805461286890615e5d565b80601f016020809104026020016040519081016040528092919081815260200182805461289490615e5d565b80156128e15780601f106128b6576101008083540402835291602001916128e1565b820191906000526020600020905b8154815290600101906020018083116128c457829003601f168201915b5050505050908060040160009054906101000a900460ff16905084565b600060196000601354815260200190815260200160002060050160149054906101000a900460ff1615612966576040517f08c379a000000000000000000000000000000000000000000000000000000000815260040161295d90616281565b60405180910390fd5b60006040518061012001604052806013548152602001868152602001858152602001600015158152602001600081526020013373ffffffffffffffffffffffffffffffffffffffff168152602001600115158152602001600067ffffffffffffffff8111156129d8576129d76159db565b5b604051908082528060200260200182016040528015612a065781602001602082028036833780820191505090505b508152602001846002811115612a1f57612a1e6150e7565b5b815250905080601960006013548152602001908152602001600020600082015181600001556020820151816001019081612a59919061644d565b506040820151816002019081612a6f919061644d565b5060608201518160030160006101000a81548160ff0219169083151502179055506080820151816004015560a08201518160050160006101000a81548173ffffffffffffffffffffffffffffffffffffffff021916908373ffffffffffffffffffffffffffffffffffffffff16021790555060c08201518160050160146101000a81548160ff02191690831515021790555060e0820151816006019080519060200190612b1d929190614d7c565b506101008201518160070160006101000a81548160ff02191690836002811115612b4a57612b496150e7565b5b02179055509050506026819080600181540180825580915050600190039060005260206000209060080201600090919091909150600082015181600001556020820151816001019081612b9d919061644d565b506040820151816002019081612bb3919061644d565b5060608201518160030160006101000a81548160ff0219169083151502179055506080820151816004015560a08201518160050160006101000a81548173ffffffffffffffffffffffffffffffffffffffff021916908373ffffffffffffffffffffffffffffffffffffffff16021790555060c08201518160050160146101000a81548160ff02191690831515021790555060e0820151816006019080519060200190612c61929190614d7c565b506101008201518160070160006101000a81548160ff02191690836002811115612c8e57612c8d6150e7565b5b0217905550505060126000815480929190612ca8906161ed565b91905055506001601b60003373ffffffffffffffffffffffffffffffffffffffff1673ffffffffffffffffffffffffffffffffffffffff1681526020019081526020016000206000016000828254612d00919061651f565b9250508190555060136000815480929190612d1a906161ed565b9190505550612d497fadb22091b155738d2e889eb96f509d2a7c93234236b30400927feb4a6a15ab0033614376565b5084604051612d58919061658f565b60405180910390206001601354612d6f91906165a6565b7f9c93a42b217373d37e6c66ace0a67fe1fa1f78c93164b62417de69c48c0f67e2601960006001601354612da391906165a6565b815260200190815260200160002060030160009054906101000a900460ff16604051612dcf9190614ef8565b60405180910390a360019150509392505050565b7fadb22091b155738d2e889eb96f509d2a7c93234236b30400927feb4a6a15ab00612e0d816140e6565b6024600083815260200190815260200160002060009054906101000a900460ff1615612e6e576040517f08c379a0000000000000000000000000000000000000000000000000000000008152600401612e6590616626565b60405180910390fd5b60036006805490501015612eb7576040517f08c379a0000000000000000000000000000000000000000000000000000000008152600401612eae90616692565b60405180910390fd5b602360008381526020019081526020016000206000612ed69190614e06565b60005b60038110156130b3576000600680549050424460068054905085604051602001612f0694939291906166d3565b6040516020818303038152906040528051906020012060001c612f299190616721565b9050600060068281548110612f4157612f40615dff565b5b9060005260206000200160009054906101000a900473ffffffffffffffffffffffffffffffffffffffff1690506000805b6023600088815260200190815260200160002080549050811015613028578273ffffffffffffffffffffffffffffffffffffffff16602360008981526020019081526020016000208281548110612fcc57612fcb615dff565b5b9060005260206000200160009054906101000a900473ffffffffffffffffffffffffffffffffffffffff1673ffffffffffffffffffffffffffffffffffffffff160361301b5760019150613028565b8080600101915050612f72565b50806130a35760236000878152602001908152602001600020829080600181540180825580915050600190039060005260206000200160009091909190916101000a81548173ffffffffffffffffffffffffffffffffffffffff021916908373ffffffffffffffffffffffffffffffffffffffff1602179055505b5050508080600101915050612ed9565b5060036023600084815260200190815260200160002080549050036130ff5760016024600084815260200190815260200160002060006101000a81548160ff0219169083151502179055505b817fe205dff861c570b8df17e26f893778853f94bb25d2de318755e48eab0b403ff760236000858152602001908152602001600020604051613141919061683e565b60405180910390a25050565b60006005600084815260200190815260200160002060000160008373ffffffffffffffffffffffffffffffffffffffff1673ffffffffffffffffffffffffffffffffffffffff16815260200190815260200160002060009054906101000a900460ff16905092915050565b6060600480546131c790615e5d565b80601f01602080910402602001604051908101604052809291908181526020018280546131f390615e5d565b80156132405780601f1061321557610100808354040283529160200191613240565b820191906000526020600020905b81548152906001019060200180831161322357829003601f168201915b5050505050905090565b60115481565b6023602052816000526040600020818154811061326c57600080fd5b906000526020600020016000915091509054906101000a900473ffffffffffffffffffffffffffffffffffffffff1681565b6000801b81565b601d6020528060005260406000206000915090508060000154908060010154908060020180546132d490615e5d565b80601f016020809104026020016040519081016040528092919081815260200182805461330090615e5d565b801561334d5780601f106133225761010080835404028352916020019161334d565b820191906000526020600020905b81548152906001019060200180831161333057829003601f168201915b5050505050908060030154908060040160009054906101000a900460ff16905085565b60008061337b6140cc565b9050613388818585614282565b600191505092915050565b6020805281600052604060002081815481106133ae57600080fd5b906000526020600020016000915091505080546133ca90615e5d565b80601f01602080910402602001604051908101604052809291908181526020018280546133f690615e5d565b80156134435780601f1061341857610100808354040283529160200191613443565b820191906000526020600020905b81548152906001019060200180831161342657829003601f168201915b505050505081565b605081565b7fdf1425bae297c2f52b4f15d18a50b1fc8cb5b981a981b1d213ed3ff92681b64d61347a816140e6565b60006009600084815260200190815260200160002090508060050160009054906101000a900460ff16156134e3576040517f08c379a00000000000000000000000000000000000000000000000000000000081526004016134da906168ac565b60405180910390fd5b8060060160003373ffffffffffffffffffffffffffffffffffffffff1673ffffffffffffffffffffffffffffffffffffffff16815260200190815260200160002060009054906101000a900460ff1615613572576040517f08c379a000000000000000000000000000000000000000000000000000000000815260040161356990616918565b60405180910390fd5b60018160060160003373ffffffffffffffffffffffffffffffffffffffff1673ffffffffffffffffffffffffffffffffffffffff16815260200190815260200160002060006101000a81548160ff0219169083151502179055508060040160008154809291906135e1906161ed565b9190505550827f5d4ccf5f92566d140246f4ae3b9cb35dc06fff109a7748602ad77f6260fd9a61336040516136169190615480565b60405180910390a2600381600401541061374a5760008160020160009054906101000a900473ffffffffffffffffffffffffffffffffffffffff1673ffffffffffffffffffffffffffffffffffffffff168260030160405161367891906169db565b6000604051808303816000865af19150503d80600081146136b5576040519150601f19603f3d011682016040523d82523d6000602084013e6136ba565b606091505b50509050806136fe576040517f08c379a00000000000000000000000000000000000000000000000000000000081526004016136f590616a3e565b60405180910390fd5b60018260050160006101000a81548160ff021916908315150217905550837f7770356c29230b95943aec59d47ead11eb426a728bf5b57f7fd8597f3c0e29ba60405160405180910390a2505b505050565b601f60205280600052604060002060009150905080600001549080600101549080600201805461377e90615e5d565b80601f01602080910402602001604051908101604052809291908181526020018280546137aa90615e5d565b80156137f75780601f106137cc576101008083540402835291602001916137f7565b820191906000526020600020905b8154815290600101906020018083116137da57829003601f168201915b50505050509080600301805461380c90615e5d565b80601f016020809104026020016040519081016040528092919081815260200182805461383890615e5d565b80156138855780601f1061385a57610100808354040283529160200191613885565b820191906000526020600020905b81548152906001019060200180831161386857829003601f168201915b5050505050908060220154908060230160009054906101000a900460ff16905086565b601a6020528160005260406000206020528060005260406000206000915091505080600001549080600101549080600201549080600301549080600401549080600501549080600601549080600701549080600801549080600901549080600a0160009054906101000a900460ff1690508b565b6060602360008381526020019081526020016000208054806020026020016040519081016040528092919081815260200182805480156139b157602002820191906000526020600020905b8160009054906101000a900473ffffffffffffffffffffffffffffffffffffffff1673ffffffffffffffffffffffffffffffffffffffff1681526020019060010190808311613967575b50505050509050919050565b60086020528060005260406000206000915054906101000a900460ff1681565b6000601154905090565b602781815481106139f757600080fd5b9060005260206000209060050201600091509050806000015490806001015490806002018054613a2690615e5d565b80601f0160208091040260200160405190810160405280929190818152602001828054613a5290615e5d565b8015613a9f5780601f10613a7457610100808354040283529160200191613a9f565b820191906000526020600020905b815481529060010190602001808311613a8257829003601f168201915b5050505050908060030154908060040160009054906101000a900460ff16905085565b6000801b613acf816140e6565b600860008373ffffffffffffffffffffffffffffffffffffffff1673ffffffffffffffffffffffffffffffffffffffff16815260200190815260200160002060009054906101000a900460ff16613b5b576040517f08c379a0000000000000000000000000000000000000000000000000000000008152600401613b5290616aaa565b60405180910390fd5b60005b600680549050811015613ce1578273ffffffffffffffffffffffffffffffffffffffff1660068281548110613b9657613b95615dff565b5b9060005260206000200160009054906101000a900473ffffffffffffffffffffffffffffffffffffffff1673ffffffffffffffffffffffffffffffffffffffff1603613cd45760066001600680549050613bf091906165a6565b81548110613c0157613c00615dff565b5b9060005260206000200160009054906101000a900473ffffffffffffffffffffffffffffffffffffffff1660068281548110613c4057613c3f615dff565b5b9060005260206000200160006101000a81548173ffffffffffffffffffffffffffffffffffffffff021916908373ffffffffffffffffffffffffffffffffffffffff1602179055506006805480613c9a57613c99616aca565b5b6001900381819060005260206000200160006101000a81549073ffffffffffffffffffffffffffffffffffffffff02191690559055613ce1565b8080600101915050613b5e565b506000600860008473ffffffffffffffffffffffffffffffffffffffff1673ffffffffffffffffffffffffffffffffffffffff16815260200190815260200160002060006101000a81548160ff021916908315150217905550613d647fc10c77be35aff266144ed64c26a1fa104bae2f284ae99ac4a34203454704a185836140fa565b508173ffffffffffffffffffffffffffffffffffffffff167f55dba9d79522b91b615629d5f3b10c2fad2d258f1768614f4a52e937ada0d0ba60405160405180910390a25050565b60256020528160005260406000206020528060005260406000206000915091509054906101000a900460ff1681565b613de482611505565b613ded816140e6565b613df783836140fa565b50505050565b674563918244f4000081565b6000600160008473ffffffffffffffffffffffffffffffffffffffff1673ffffffffffffffffffffffffffffffffffffffff16815260200190815260200160002060008373ffffffffffffffffffffffffffffffffffffffff1673ffffffffffffffffffffffffffffffffffffffff16815260200190815260200160002054905092915050565b60298181548110613ea057600080fd5b90600052602060002090600302016000915090508060000160009054906101000a900460ff1690806001018054613ed690615e5d565b80601f0160208091040260200160405190810160405280929190818152602001828054613f0290615e5d565b8015613f4f5780601f10613f2457610100808354040283529160200191613f4f565b820191906000526020600020905b815481529060010190602001808311613f3257829003601f168201915b505050505090806002018054613f6490615e5d565b80601f0160208091040260200160405190810160405280929190818152602001828054613f9090615e5d565b8015613fdd5780601f10613fb257610100808354040283529160200191613fdd565b820191906000526020600020905b815481529060010190602001808311613fc057829003601f168201915b5050505050905083565b6000600b60000154905090565b60165481565b60175481565b600061402c7fc10c77be35aff266144ed64c26a1fa104bae2f284ae99ac4a34203454704a1858361314d565b9050919050565b601c6020528160005260406000206020528060005260406000206000915091509054906101000a900460ff1681565b60007f01ffc9a7000000000000000000000000000000000000000000000000000000007bffffffffffffffffffffffffffffffffffffffffffffffffffffffff1916827bffffffffffffffffffffffffffffffffffffffffffffffffffffffff1916149050919050565b600033905090565b6140e1838383600161477a565b505050565b6140f7816140f26140cc565b614951565b50565b6000614106838361314d565b156141e25760006005600085815260200190815260200160002060000160008473ffffffffffffffffffffffffffffffffffffffff1673ffffffffffffffffffffffffffffffffffffffff16815260200190815260200160002060006101000a81548160ff02191690831515021790555061417f6140cc565b73ffffffffffffffffffffffffffffffffffffffff168273ffffffffffffffffffffffffffffffffffffffff16847ff6391f5c32d9c69d2a47ea670b442974b53935d1edc7fd64eb21e047a839171b60405160405180910390a4600190506141e7565b600090505b92915050565b60006141f98484613e09565b90507fffffffffffffffffffffffffffffffffffffffffffffffffffffffffffffffff81101561427c578181101561426c578281836040517ffb8f41b200000000000000000000000000000000000000000000000000000000815260040161426393929190616af9565b60405180910390fd5b61427b8484848403600061477a565b5b50505050565b600073ffffffffffffffffffffffffffffffffffffffff168373ffffffffffffffffffffffffffffffffffffffff16036142f45760006040517f96c6fd1e0000000000000000000000000000000000000000000000000000000081526004016142eb9190615480565b60405180910390fd5b600073ffffffffffffffffffffffffffffffffffffffff168273ffffffffffffffffffffffffffffffffffffffff16036143665760006040517fec442f0500000000000000000000000000000000000000000000000000000000815260040161435d9190615480565b60405180910390fd5b6143718383836149a2565b505050565b6000614382838361314d565b61445d5760016005600085815260200190815260200160002060000160008473ffffffffffffffffffffffffffffffffffffffff1673ffffffffffffffffffffffffffffffffffffffff16815260200190815260200160002060006101000a81548160ff0219169083151502179055506143fa6140cc565b73ffffffffffffffffffffffffffffffffffffffff168273ffffffffffffffffffffffffffffffffffffffff16847f2f8788117e7eff1d82e926ec794901d17c78024a50270940304540a733656f0d60405160405180910390a460019050614462565b600090505b92915050565b600080600090505b6023600085815260200190815260200160002080549050811015614527578273ffffffffffffffffffffffffffffffffffffffff166023600086815260200190815260200160002082815481106144ca576144c9615dff565b5b9060005260206000200160009054906101000a900473ffffffffffffffffffffffffffffffffffffffff1673ffffffffffffffffffffffffffffffffffffffff160361451a57600191505061452d565b8080600101915050614470565b50600090505b92915050565b600a8a111580156145455750600a8911155b80156145525750600a8811155b801561455f5750600a8711155b801561456c5750600a8611155b80156145795750600a8511155b80156145865750600a8411155b80156145935750600a8311155b80156145a05750600a8211155b80156145ad5750600a8111155b6145ec576040517f08c379a00000000000000000000000000000000000000000000000000000000081526004016145e390616b7c565b60405180910390fd5b50505050505050505050565b60008160090154826008015483600701548460060154856005015486600401548760030154886002015489600101548a60000154614636919061651f565b614640919061651f565b61464a919061651f565b614654919061651f565b61465e919061651f565b614668919061651f565b614672919061651f565b61467c919061651f565b614686919061651f565b9050919050565b60006064600f6b204fce5e3e250261100000006146aa9190615ebd565b6146b49190615f2e565b6146bc6139dd565b836146c7919061651f565b1115614708576040517f08c379a00000000000000000000000000000000000000000000000000000000081526004016146ff90616be8565b60405180910390fd5b6147128383614bc7565b508160116000828254614725919061651f565b92505081905550818373ffffffffffffffffffffffffffffffffffffffff167fad6ef58d5c294f81258965738e7ae511124139834a8d0b8f8f7327086c82052a60405160405180910390a36001905092915050565b600073ffffffffffffffffffffffffffffffffffffffff168473ffffffffffffffffffffffffffffffffffffffff16036147ec5760006040517fe602df050000000000000000000000000000000000000000000000000000000081526004016147e39190615480565b60405180910390fd5b600073ffffffffffffffffffffffffffffffffffffffff168373ffffffffffffffffffffffffffffffffffffffff160361485e5760006040517f94280d620000000000000000000000000000000000000000000000000000000081526004016148559190615480565b60405180910390fd5b81600160008673ffffffffffffffffffffffffffffffffffffffff1673ffffffffffffffffffffffffffffffffffffffff16815260200190815260200160002060008573ffffffffffffffffffffffffffffffffffffffff1673ffffffffffffffffffffffffffffffffffffffff16815260200190815260200160002081905550801561494b578273ffffffffffffffffffffffffffffffffffffffff168473ffffffffffffffffffffffffffffffffffffffff167f8c5be1e5ebec7d5bd14f71427d1e84f3dd0314c0f7b2291e5b200ac8c7c3b9258460405161494291906152f8565b60405180910390a35b50505050565b61495b828261314d565b61499e5780826040517fe2517d3f000000000000000000000000000000000000000000000000000000008152600401614995929190616c08565b60405180910390fd5b5050565b600073ffffffffffffffffffffffffffffffffffffffff168373ffffffffffffffffffffffffffffffffffffffff16036149f45780600260008282546149e8919061651f565b92505081905550614ac7565b60008060008573ffffffffffffffffffffffffffffffffffffffff1673ffffffffffffffffffffffffffffffffffffffff16815260200190815260200160002054905081811015614a80578381836040517fe450d38c000000000000000000000000000000000000000000000000000000008152600401614a7793929190616af9565b60405180910390fd5b8181036000808673ffffffffffffffffffffffffffffffffffffffff1673ffffffffffffffffffffffffffffffffffffffff16815260200190815260200160002081905550505b600073ffffffffffffffffffffffffffffffffffffffff168273ffffffffffffffffffffffffffffffffffffffff1603614b105780600260008282540392505081905550614b5d565b806000808473ffffffffffffffffffffffffffffffffffffffff1673ffffffffffffffffffffffffffffffffffffffff168152602001908152602001600020600082825401925050819055505b8173ffffffffffffffffffffffffffffffffffffffff168373ffffffffffffffffffffffffffffffffffffffff167fddf252ad1be2c89b69c2b068fc378daa952ba7f163c4a11628f55a4df523b3ef83604051614bba91906152f8565b60405180910390a3505050565b60006b204fce5e3e25026110000000614bde611451565b83614be9919061651f565b1115614c2a576040517f08c379a0000000000000000000000000000000000000000000000000000000008152600401614c2190616be8565b60405180910390fd5b614c348383614c82565b818373ffffffffffffffffffffffffffffffffffffffff167fcda531bfd68624f13205c0a23cd4d5a7f09792cbb399603114f2b04aaa1bf5cf60405160405180910390a36001905092915050565b600073ffffffffffffffffffffffffffffffffffffffff168273ffffffffffffffffffffffffffffffffffffffff1603614cf45760006040517fec442f05000000000000000000000000000000000000000000000000000000008152600401614ceb9190615480565b60405180910390fd5b614d00600083836149a2565b5050565b60405180610120016040528060008152602001606081526020016060815260200160001515815260200160008152602001600073ffffffffffffffffffffffffffffffffffffffff1681526020016000151581526020016060815260200160006002811115614d7657614d756150e7565b5b81525090565b828054828255906000526020600020908101928215614df5579160200282015b82811115614df45782518260006101000a81548173ffffffffffffffffffffffffffffffffffffffff021916908373ffffffffffffffffffffffffffffffffffffffff16021790555091602001919060010190614d9c565b5b509050614e029190614e27565b5090565b5080546000825590600052602060002090810190614e249190614e27565b50565b5b80821115614e40576000816000905550600101614e28565b5090565b6000604051905090565b600080fd5b600080fd5b60007fffffffff0000000000000000000000000000000000000000000000000000000082169050919050565b614e8d81614e58565b8114614e9857600080fd5b50565b600081359050614eaa81614e84565b92915050565b600060208284031215614ec657614ec5614e4e565b5b6000614ed484828501614e9b565b91505092915050565b60008115159050919050565b614ef281614edd565b82525050565b6000602082019050614f0d6000830184614ee9565b92915050565b600081519050919050565b600082825260208201905092915050565b6000819050602082019050919050565b6000819050919050565b614f5281614f3f565b82525050565b600081519050919050565b600082825260208201905092915050565b60005b83811015614f92578082015181840152602081019050614f77565b60008484015250505050565b6000601f19601f8301169050919050565b6000614fba82614f58565b614fc48185614f63565b9350614fd4818560208601614f74565b614fdd81614f9e565b840191505092915050565b614ff181614edd565b82525050565b600073ffffffffffffffffffffffffffffffffffffffff82169050919050565b600061502282614ff7565b9050919050565b61503281615017565b82525050565b600081519050919050565b600082825260208201905092915050565b6000819050602082019050919050565b60006150708383615029565b60208301905092915050565b6000602082019050919050565b600061509482615038565b61509e8185615043565b93506150a983615054565b8060005b838110156150da5781516150c18882615064565b97506150cc8361507c565b9250506001810190506150ad565b5085935050505092915050565b7f4e487b7100000000000000000000000000000000000000000000000000000000600052602160045260246000fd5b60038110615127576151266150e7565b5b50565b600081905061513882615116565b919050565b60006151488261512a565b9050919050565b6151588161513d565b82525050565b6000610120830160008301516151776000860182614f49565b506020830151848203602086015261518f8282614faf565b915050604083015184820360408601526151a98282614faf565b91505060608301516151be6060860182614fe8565b5060808301516151d16080860182614f49565b5060a08301516151e460a0860182615029565b5060c08301516151f760c0860182614fe8565b5060e083015184820360e086015261520f8282615089565b91505061010083015161522661010086018261514f565b508091505092915050565b600061523d838361515e565b905092915050565b6000602082019050919050565b600061525d82614f13565b6152678185614f1e565b93508360208202850161527985614f2f565b8060005b858110156152b557848403895281516152968582615231565b94506152a183615245565b925060208a0199505060018101905061527d565b50829750879550505050505092915050565b600060208201905081810360008301526152e18184615252565b905092915050565b6152f281614f3f565b82525050565b600060208201905061530d60008301846152e9565b92915050565b600082825260208201905092915050565b600061532f82614f58565b6153398185615313565b9350615349818560208601614f74565b61535281614f9e565b840191505092915050565b600060208201905081810360008301526153778184615324565b905092915050565b61538881615017565b811461539357600080fd5b50565b6000813590506153a58161537f565b92915050565b6153b481614f3f565b81146153bf57600080fd5b50565b6000813590506153d1816153ab565b92915050565b600080604083850312156153ee576153ed614e4e565b5b60006153fc85828601615396565b925050602061540d858286016153c2565b9150509250929050565b60006020828403121561542d5761542c614e4e565b5b600061543b848285016153c2565b91505092915050565b60006020828403121561545a57615459614e4e565b5b600061546884828501615396565b91505092915050565b61547a81615017565b82525050565b60006020820190506154956000830184615471565b92915050565b6000806000606084860312156154b4576154b3614e4e565b5b60006154c286828701615396565b93505060206154d386828701615396565b92505060406154e4868287016153c2565b9150509250925092565b6000819050919050565b615501816154ee565b811461550c57600080fd5b50565b60008135905061551e816154f8565b92915050565b60006020828403121561553a57615539614e4e565b5b60006155488482850161550f565b91505092915050565b61555a816154ee565b82525050565b60006020820190506155756000830184615551565b92915050565b600060808201905061559060008301876152e9565b61559d60208301866152e9565b81810360408301526155af8185615324565b90506155be6060830184614ee9565b95945050505050565b6155d08161513d565b82525050565b6000610100820190506155ec600083018b6152e9565b81810360208301526155fe818a615324565b905081810360408301526156128189615324565b90506156216060830188614ee9565b61562e60808301876152e9565b61563b60a0830186615471565b61564860c0830185614ee9565b61565560e08301846155c7565b9998505050505050505050565b600060c08201905061567760008301896152e9565b61568460208301886152e9565b81810360408301526156968187615324565b905081810360608301526156aa8186615324565b90506156b960808301856152e9565b6156c660a0830184614ee9565b979650505050505050565b600080604083850312156156e8576156e7614e4e565b5b60006156f68582860161550f565b925050602061570785828601615396565b9150509250929050565b600060ff82169050919050565b61572781615711565b82525050565b6000602082019050615742600083018461571e565b92915050565b600060608201905061575d60008301866152e9565b61576a60208301856152e9565b818103604083015261577c8184615324565b9050949350505050565b600081519050919050565b600082825260208201905092915050565b60006157ad82615786565b6157b78185615791565b93506157c7818560208601614f74565b6157d081614f9e565b840191505092915050565b600060c0820190506157f060008301896152e9565b6157fd6020830188615471565b61580a6040830187615471565b818103606083015261581c81866157a2565b905061582b60808301856152e9565b61583860a0830184614ee9565b979650505050505050565b6000806040838503121561585a57615859614e4e565b5b6000615868858286016153c2565b9250506020615879858286016153c2565b9150509250929050565b600060a08201905061589860008301886152e9565b6158a560208301876152e9565b81810360408301526158b78186615324565b90506158c660608301856152e9565b6158d36080830184614ee9565b9695505050505050565b60008060008060008060008060008060006101608c8e03121561590357615902614e4e565b5b60006159118e828f016153c2565b9b505060206159228e828f016153c2565b9a505060406159338e828f016153c2565b99505060606159448e828f016153c2565b98505060806159558e828f016153c2565b97505060a06159668e828f016153c2565b96505060c06159778e828f016153c2565b95505060e06159888e828f016153c2565b94505061010061599a8e828f016153c2565b9350506101206159ac8e828f016153c2565b9250506101406159be8e828f016153c2565b9150509295989b509295989b9093969950565b600080fd5b600080fd5b7f4e487b7100000000000000000000000000000000000000000000000000000000600052604160045260246000fd5b615a1382614f9e565b810181811067ffffffffffffffff82111715615a3257615a316159db565b5b80604052505050565b6000615a45614e44565b9050615a518282615a0a565b919050565b600067ffffffffffffffff821115615a7157615a706159db565b5b615a7a82614f9e565b9050602081019050919050565b82818337600083830152505050565b6000615aa9615aa484615a56565b615a3b565b905082815260208101848484011115615ac557615ac46159d6565b5b615ad0848285615a87565b509392505050565b600082601f830112615aed57615aec6159d1565b5b8135615afd848260208601615a96565b91505092915050565b60038110615b1357600080fd5b50565b600081359050615b2581615b06565b92915050565b600080600060608486031215615b4457615b43614e4e565b5b600084013567ffffffffffffffff811115615b6257615b61614e53565b5b615b6e86828701615ad8565b935050602084013567ffffffffffffffff811115615b8f57615b8e614e53565b5b615b9b86828701615ad8565b9250506040615bac86828701615b16565b9150509250925092565b60008060408385031215615bcd57615bcc614e4e565b5b6000615bdb858286016153c2565b9250506020615bec85828601615396565b9150509250929050565b600061016082019050615c0c600083018e6152e9565b615c19602083018d6152e9565b615c26604083018c6152e9565b615c33606083018b6152e9565b615c40608083018a6152e9565b615c4d60a08301896152e9565b615c5a60c08301886152e9565b615c6760e08301876152e9565b615c756101008301866152e9565b615c836101208301856152e9565b615c91610140830184614ee9565b9c9b505050505050505050505050565b600082825260208201905092915050565b6000615cbd82615038565b615cc78185615ca1565b9350615cd283615054565b8060005b83811015615d03578151615cea8882615064565b9750615cf58361507c565b925050600181019050615cd6565b5085935050505092915050565b60006020820190508181036000830152615d2a8184615cb2565b905092915050565b60008060408385031215615d4957615d48614e4e565b5b6000615d5785828601615396565b9250506020615d6885828601615396565b9150509250929050565b60038110615d8357615d826150e7565b5b50565b6000819050615d9482615d72565b919050565b6000615da482615d86565b9050919050565b615db481615d99565b82525050565b6000606082019050615dcf6000830186615dab565b8181036020830152615de18185615324565b90508181036040830152615df58184615324565b9050949350505050565b7f4e487b7100000000000000000000000000000000000000000000000000000000600052603260045260246000fd5b7f4e487b7100000000000000000000000000000000000000000000000000000000600052602260045260246000fd5b60006002820490506001821680615e7557607f821691505b602082108103615e8857615e87615e2e565b5b50919050565b7f4e487b7100000000000000000000000000000000000000000000000000000000600052601160045260246000fd5b6000615ec882614f3f565b9150615ed383614f3f565b9250828202615ee181614f3f565b91508282048414831517615ef857615ef7615e8e565b5b5092915050565b7f4e487b7100000000000000000000000000000000000000000000000000000000600052601260045260246000fd5b6000615f3982614f3f565b9150615f4483614f3f565b925082615f5457615f53615eff565b5b828204905092915050565b7f4e6f742073656c6563746564206173206120726576696577657220666f72207460008201527f68697320636f7572736500000000000000000000000000000000000000000000602082015250565b6000615fbb602a83615313565b9150615fc682615f5f565b604082019050919050565b60006020820190508181036000830152615fea81615fae565b9050919050565b7f52657669657720616c7265616479207375626d6974746564206279207468697360008201527f2072657669657765722e00000000000000000000000000000000000000000000602082015250565b600061604d602a83615313565b915061605882615ff1565b604082019050919050565b6000602082019050818103600083015261607c81616040565b9050919050565b7f416c726561647920696e20726576696577657220706f6f6c0000000000000000600082015250565b60006160b9601883615313565b91506160c482616083565b602082019050919050565b600060208201905081810360008301526160e8816160ac565b9050919050565b7f436f7572736520616c726561647920617070726f766564000000000000000000600082015250565b6000616125601783615313565b9150616130826160ef565b602082019050919050565b6000602082019050818103600083015261615481616118565b9050919050565b7f596f75206861766520616c726561647920617070726f7665642074686973206360008201527f6f75727365000000000000000000000000000000000000000000000000000000602082015250565b60006161b7602583615313565b91506161c28261615b565b604082019050919050565b600060208201905081810360008301526161e6816161aa565b9050919050565b60006161f882614f3f565b91507fffffffffffffffffffffffffffffffffffffffffffffffffffffffffffffffff820361622a57616229615e8e565b5b600182019050919050565b7f436f7572736520616c7265616479206578697374730000000000000000000000600082015250565b600061626b601583615313565b915061627682616235565b602082019050919050565b6000602082019050818103600083015261629a8161625e565b9050919050565b60008190508160005260206000209050919050565b60006020601f8301049050919050565b600082821b905092915050565b6000600883026163037fffffffffffffffffffffffffffffffffffffffffffffffffffffffffffffffff826162c6565b61630d86836162c6565b95508019841693508086168417925050509392505050565b6000819050919050565b600061634a61634561634084614f3f565b616325565b614f3f565b9050919050565b6000819050919050565b6163648361632f565b61637861637082616351565b8484546162d3565b825550505050565b600090565b61638d616380565b61639881848461635b565b505050565b5b818110156163bc576163b1600082616385565b60018101905061639e565b5050565b601f821115616401576163d2816162a1565b6163db846162b6565b810160208510156163ea578190505b6163fe6163f6856162b6565b83018261639d565b50505b505050565b600082821c905092915050565b600061642460001984600802616406565b1980831691505092915050565b600061643d8383616413565b9150826002028217905092915050565b61645682614f58565b67ffffffffffffffff81111561646f5761646e6159db565b5b6164798254615e5d565b6164848282856163c0565b600060209050601f8311600181146164b757600084156164a5578287015190505b6164af8582616431565b865550616517565b601f1984166164c5866162a1565b60005b828110156164ed578489015182556001820191506020850194506020810190506164c8565b8683101561650a5784890151616506601f891682616413565b8355505b6001600288020188555050505b505050505050565b600061652a82614f3f565b915061653583614f3f565b925082820190508082111561654d5761654c615e8e565b5b92915050565b600081905092915050565b600061656982614f58565b6165738185616553565b9350616583818560208601614f74565b80840191505092915050565b600061659b828461655e565b915081905092915050565b60006165b182614f3f565b91506165bc83614f3f565b92508282039050818111156165d4576165d3615e8e565b5b92915050565b7f52657669657765727320616c72656164792073656c6563746564000000000000600082015250565b6000616610601a83615313565b915061661b826165da565b602082019050919050565b6000602082019050818103600083015261663f81616603565b9050919050565b7f4e6f7420656e6f7567682072657669657765727320696e2074686520706f6f6c600082015250565b600061667c602083615313565b915061668782616646565b602082019050919050565b600060208201905081810360008301526166ab8161666f565b9050919050565b6000819050919050565b6166cd6166c882614f3f565b6166b2565b82525050565b60006166df82876166bc565b6020820191506166ef82866166bc565b6020820191506166ff82856166bc565b60208201915061670f82846166bc565b60208201915081905095945050505050565b600061672c82614f3f565b915061673783614f3f565b92508261674757616746615eff565b5b828206905092915050565b600081549050919050565b60008190508160005260206000209050919050565b60008160001c9050919050565b600073ffffffffffffffffffffffffffffffffffffffff82169050919050565b60006167b26167ad83616772565b61677f565b9050919050565b60006167c5825461679f565b9050919050565b6000600182019050919050565b60006167e482616752565b6167ee8185615ca1565b93506167f98361675d565b8060005b838110156168315761680e826167b9565b6168188882615064565b9750616823836167cc565b9250506001810190506167fd565b5085935050505092915050565b6000602082019050818103600083015261685881846167d9565b905092915050565b7f50726f706f73616c20616c726561647920657865637574656400000000000000600082015250565b6000616896601983615313565b91506168a182616860565b602082019050919050565b600060208201905081810360008301526168c581616889565b9050919050565b7f416c726561647920617070726f76656400000000000000000000000000000000600082015250565b6000616902601083615313565b915061690d826168cc565b602082019050919050565b60006020820190508181036000830152616931816168f5565b9050919050565b600081905092915050565b60008190508160005260206000209050919050565b6000815461696581615e5d565b61696f8186616938565b9450600182166000811461698a576001811461699f576169d2565b60ff19831686528115158202860193506169d2565b6169a885616943565b60005b838110156169ca578154818901526001820191506020810190506169ab565b838801955050505b50505092915050565b60006169e78284616958565b915081905092915050565b7f50726f706f73616c20657865637574696f6e206661696c656400000000000000600082015250565b6000616a28601983615313565b9150616a33826169f2565b602082019050919050565b60006020820190508181036000830152616a5781616a1b565b9050919050565b7f4e6f7420696e20726576696577657220706f6f6c000000000000000000000000600082015250565b6000616a94601483615313565b9150616a9f82616a5e565b602082019050919050565b60006020820190508181036000830152616ac381616a87565b9050919050565b7f4e487b7100000000000000000000000000000000000000000000000000000000600052603160045260246000fd5b6000606082019050616b0e6000830186615471565b616b1b60208301856152e9565b616b2860408301846152e9565b949350505050565b7f53636f726573206d757374206265206265747765656e203120616e642031302e600082015250565b6000616b66602083615313565b9150616b7182616b30565b602082019050919050565b60006020820190508181036000830152616b9581616b59565b9050919050565b7f4c696d6974204578636565646564210000000000000000000000000000000000600082015250565b6000616bd2600f83615313565b9150616bdd82616b9c565b602082019050919050565b60006020820190508181036000830152616c0181616bc5565b9050919050565b6000604082019050616c1d6000830185615471565b616c2a6020830184615551565b939250505056fea264697066735822122098e78579d319577bf57d69ef668a033c07f1ff2ee3cd7476ad7531cd15696fac64736f6c634300081b0033",
  "linkReferences": {},
  "deployedLinkReferences": {}
}