{
  "_format": "hh-sol-artifact-1",
  "contractName": "Ecosystem",
  "sourceName": "contracts/Ecosystem Contracts/Ecosystem.sol",
  "abi": [
    {
      "inputs": [
        {
          "internalType": "address[]",
          "name": "_reviewers",
          "type": "address[]"
        }
      ],
      "stateMutability": "nonpayable",
      "type": "constructor"
    },
    {
      "inputs": [],
      "name": "AccessControlBadConfirmation",
      "type": "error"
    },
    {
      "inputs": [
        {
          "internalType": "address",
          "name": "account",
          "type": "address"
        },
        {
          "internalType": "bytes32",
          "name": "neededRole",
          "type": "bytes32"
        }
      ],
      "name": "AccessControlUnauthorizedAccount",
      "type": "error"
    },
    {
      "inputs": [
        {
          "internalType": "address",
          "name": "spender",
          "type": "address"
        },
        {
          "internalType": "uint256",
          "name": "allowance",
          "type": "uint256"
        },
        {
          "internalType": "uint256",
          "name": "needed",
          "type": "uint256"
        }
      ],
      "name": "ERC20InsufficientAllowance",
      "type": "error"
    },
    {
      "inputs": [
        {
          "internalType": "address",
          "name": "sender",
          "type": "address"
        },
        {
          "internalType": "uint256",
          "name": "balance",
          "type": "uint256"
        },
        {
          "internalType": "uint256",
          "name": "needed",
          "type": "uint256"
        }
      ],
      "name": "ERC20InsufficientBalance",
      "type": "error"
    },
    {
      "inputs": [
        {
          "internalType": "address",
          "name": "approver",
          "type": "address"
        }
      ],
      "name": "ERC20InvalidApprover",
      "type": "error"
    },
    {
      "inputs": [
        {
          "internalType": "address",
          "name": "receiver",
          "type": "address"
        }
      ],
      "name": "ERC20InvalidReceiver",
      "type": "error"
    },
    {
      "inputs": [
        {
          "internalType": "address",
          "name": "sender",
          "type": "address"
        }
      ],
      "name": "ERC20InvalidSender",
      "type": "error"
    },
    {
      "inputs": [
        {
          "internalType": "address",
          "name": "spender",
          "type": "address"
        }
      ],
      "name": "ERC20InvalidSpender",
      "type": "error"
    },
    {
      "inputs": [],
      "name": "ReentrancyGuardReentrantCall",
      "type": "error"
    },
    {
      "anonymous": false,
      "inputs": [
        {
          "indexed": true,
          "internalType": "address",
          "name": "owner",
          "type": "address"
        },
        {
          "indexed": true,
          "internalType": "address",
          "name": "spender",
          "type": "address"
        },
        {
          "indexed": false,
          "internalType": "uint256",
          "name": "value",
          "type": "uint256"
        }
      ],
      "name": "Approval",
      "type": "event"
    },
    {
      "anonymous": false,
      "inputs": [
        {
          "indexed": true,
          "internalType": "address",
          "name": "_account",
          "type": "address"
        },
        {
          "indexed": false,
          "internalType": "uint256",
          "name": "_amount",
          "type": "uint256"
        }
      ],
      "name": "BurnSuccess",
      "type": "event"
    },
    {
      "anonymous": false,
      "inputs": [
        {
          "indexed": true,
          "internalType": "uint256",
          "name": "_courseID",
          "type": "uint256"
        },
        {
          "indexed": true,
          "internalType": "string",
          "name": "_courseName",
          "type": "string"
        },
        {
          "indexed": false,
          "internalType": "bool",
          "name": "_approved",
          "type": "bool"
        }
      ],
      "name": "CourseCreationSuccess",
      "type": "event"
    },
    {
      "anonymous": false,
      "inputs": [
        {
          "indexed": true,
          "internalType": "address",
          "name": "_to",
          "type": "address"
        },
        {
          "indexed": true,
          "internalType": "uint256",
          "name": "_amount",
          "type": "uint256"
        }
      ],
      "name": "EcosystemPoolUpdate",
      "type": "event"
    },
    {
      "anonymous": false,
      "inputs": [
        {
          "indexed": true,
          "internalType": "address",
          "name": "_to",
          "type": "address"
        },
        {
          "indexed": true,
          "internalType": "uint256",
          "name": "_amount",
          "type": "uint256"
        }
      ],
      "name": "MintSuccess",
      "type": "event"
    },
    {
      "anonymous": false,
      "inputs": [
        {
          "indexed": true,
          "internalType": "uint256",
          "name": "proposalId",
          "type": "uint256"
        },
        {
          "indexed": false,
          "internalType": "address",
          "name": "approver",
          "type": "address"
        }
      ],
      "name": "MultiSigProposalApproved",
      "type": "event"
    },
    {
      "anonymous": false,
      "inputs": [
        {
          "indexed": true,
          "internalType": "uint256",
          "name": "proposalId",
          "type": "uint256"
        },
        {
          "indexed": false,
          "internalType": "address",
          "name": "proposer",
          "type": "address"
        }
      ],
      "name": "MultiSigProposalCreated",
      "type": "event"
    },
    {
      "anonymous": false,
      "inputs": [
        {
          "indexed": true,
          "internalType": "uint256",
          "name": "proposalId",
          "type": "uint256"
        }
      ],
      "name": "MultiSigProposalExecuted",
      "type": "event"
    },
    {
      "anonymous": false,
      "inputs": [
        {
          "indexed": true,
          "internalType": "address",
          "name": "reviewer",
          "type": "address"
        }
      ],
      "name": "ReviewerAddedToPool",
      "type": "event"
    },
    {
      "anonymous": false,
      "inputs": [
        {
          "indexed": true,
          "internalType": "address",
          "name": "reviewer",
          "type": "address"
        }
      ],
      "name": "ReviewerRemovedFromPool",
      "type": "event"
    },
    {
      "anonymous": false,
      "inputs": [
        {
          "indexed": true,
          "internalType": "uint256",
          "name": "courseId",
          "type": "uint256"
        },
        {
          "indexed": false,
          "internalType": "address[]",
          "name": "reviewers",
          "type": "address[]"
        }
      ],
      "name": "ReviewersSelected",
      "type": "event"
    },
    {
      "anonymous": false,
      "inputs": [
        {
          "indexed": true,
          "internalType": "bytes32",
          "name": "role",
          "type": "bytes32"
        },
        {
          "indexed": true,
          "internalType": "bytes32",
          "name": "previousAdminRole",
          "type": "bytes32"
        },
        {
          "indexed": true,
          "internalType": "bytes32",
          "name": "newAdminRole",
          "type": "bytes32"
        }
      ],
      "name": "RoleAdminChanged",
      "type": "event"
    },
    {
      "anonymous": false,
      "inputs": [
        {
          "indexed": true,
          "internalType": "bytes32",
          "name": "role",
          "type": "bytes32"
        },
        {
          "indexed": true,
          "internalType": "address",
          "name": "account",
          "type": "address"
        },
        {
          "indexed": true,
          "internalType": "address",
          "name": "sender",
          "type": "address"
        }
      ],
      "name": "RoleGranted",
      "type": "event"
    },
    {
      "anonymous": false,
      "inputs": [
        {
          "indexed": true,
          "internalType": "bytes32",
          "name": "role",
          "type": "bytes32"
        },
        {
          "indexed": true,
          "internalType": "address",
          "name": "account",
          "type": "address"
        },
        {
          "indexed": true,
          "internalType": "address",
          "name": "sender",
          "type": "address"
        }
      ],
      "name": "RoleRevoked",
      "type": "event"
    },
    {
      "anonymous": false,
      "inputs": [
        {
          "indexed": true,
          "internalType": "address",
          "name": "from",
          "type": "address"
        },
        {
          "indexed": true,
          "internalType": "address",
          "name": "to",
          "type": "address"
        },
        {
          "indexed": false,
          "internalType": "uint256",
          "name": "value",
          "type": "uint256"
        }
      ],
      "name": "Transfer",
      "type": "event"
    },
    {
      "inputs": [],
      "name": "COURSE_OWNER_ROLE",
      "outputs": [
        {
          "internalType": "bytes32",
          "name": "",
          "type": "bytes32"
        }
      ],
      "stateMutability": "view",
      "type": "function"
    },
    {
      "inputs": [],
      "name": "CREATE_COURSE_REWARD",
      "outputs": [
        {
          "internalType": "uint256",
          "name": "",
          "type": "uint256"
        }
      ],
      "stateMutability": "view",
      "type": "function"
    },
    {
      "inputs": [],
      "name": "DEFAULT_ADMIN_ROLE",
      "outputs": [
        {
          "internalType": "bytes32",
          "name": "",
          "type": "bytes32"
        }
      ],
      "stateMutability": "view",
      "type": "function"
    },
    {
      "inputs": [],
      "name": "ECOSYSTEM_POOL",
      "outputs": [
        {
          "internalType": "uint256",
          "name": "",
          "type": "uint256"
        }
      ],
      "stateMutability": "view",
      "type": "function"
    },
    {
      "inputs": [],
      "name": "ENROLLMENT_REWARD",
      "outputs": [
        {
          "internalType": "uint256",
          "name": "",
          "type": "uint256"
        }
      ],
      "stateMutability": "view",
      "type": "function"
    },
    {
      "inputs": [],
      "name": "MAX_SCORE",
      "outputs": [
        {
          "internalType": "uint256",
          "name": "",
          "type": "uint256"
        }
      ],
      "stateMutability": "view",
      "type": "function"
    },
    {
      "inputs": [],
      "name": "MAX_SUPPLY",
      "outputs": [
        {
          "internalType": "uint256",
          "name": "",
          "type": "uint256"
        }
      ],
      "stateMutability": "view",
      "type": "function"
    },
    {
      "inputs": [],
      "name": "MIN_APPROVAL_SCORE",
      "outputs": [
        {
          "internalType": "uint256",
          "name": "",
          "type": "uint256"
        }
      ],
      "stateMutability": "view",
      "type": "function"
    },
    {
      "inputs": [],
      "name": "MULTISIG_APPROVER",
      "outputs": [
        {
          "internalType": "bytes32",
          "name": "",
          "type": "bytes32"
        }
      ],
      "stateMutability": "view",
      "type": "function"
    },
    {
      "inputs": [],
      "name": "REQUIRED_APPROVALS",
      "outputs": [
        {
          "internalType": "uint256",
          "name": "",
          "type": "uint256"
        }
      ],
      "stateMutability": "view",
      "type": "function"
    },
    {
      "inputs": [],
      "name": "REVIEWER_ROLE",
      "outputs": [
        {
          "internalType": "bytes32",
          "name": "",
          "type": "bytes32"
        }
      ],
      "stateMutability": "view",
      "type": "function"
    },
    {
      "inputs": [
        {
          "internalType": "address",
          "name": "",
          "type": "address"
        }
      ],
      "name": "accountCourses",
      "outputs": [
        {
          "internalType": "uint256",
          "name": "courseCount",
          "type": "uint256"
        }
      ],
      "stateMutability": "view",
      "type": "function"
    },
    {
      "inputs": [
        {
          "internalType": "address",
          "name": "newReviewer",
          "type": "address"
        }
      ],
      "name": "addReviewer",
      "outputs": [],
      "stateMutability": "nonpayable",
      "type": "function"
    },
    {
      "inputs": [
        {
          "internalType": "address",
          "name": "owner",
          "type": "address"
        },
        {
          "internalType": "address",
          "name": "spender",
          "type": "address"
        }
      ],
      "name": "allowance",
      "outputs": [
        {
          "internalType": "uint256",
          "name": "",
          "type": "uint256"
        }
      ],
      "stateMutability": "view",
      "type": "function"
    },
    {
      "inputs": [
        {
          "internalType": "address",
          "name": "",
          "type": "address"
        },
        {
          "internalType": "uint256",
          "name": "",
          "type": "uint256"
        }
      ],
      "name": "approvals",
      "outputs": [
        {
          "internalType": "bool",
          "name": "",
          "type": "bool"
        }
      ],
      "stateMutability": "view",
      "type": "function"
    },
    {
      "inputs": [
        {
          "internalType": "address",
          "name": "spender",
          "type": "address"
        },
        {
          "internalType": "uint256",
          "name": "value",
          "type": "uint256"
        }
      ],
      "name": "approve",
      "outputs": [
        {
          "internalType": "bool",
          "name": "",
          "type": "bool"
        }
      ],
      "stateMutability": "nonpayable",
      "type": "function"
    },
    {
      "inputs": [
        {
          "internalType": "uint256",
          "name": "_courseId",
          "type": "uint256"
        }
      ],
      "name": "approveCourse",
      "outputs": [],
      "stateMutability": "nonpayable",
      "type": "function"
    },
    {
      "inputs": [
        {
          "internalType": "uint256",
          "name": "_proposalId",
          "type": "uint256"
        }
      ],
      "name": "approveMultiSigProposal",
      "outputs": [],
      "stateMutability": "nonpayable",
      "type": "function"
    },
    {
      "inputs": [
        {
          "internalType": "address",
          "name": "account",
          "type": "address"
        }
      ],
      "name": "balanceOf",
      "outputs": [
        {
          "internalType": "uint256",
          "name": "",
          "type": "uint256"
        }
      ],
      "stateMutability": "view",
      "type": "function"
    },
    {
      "inputs": [
        {
          "internalType": "uint256",
          "name": "",
          "type": "uint256"
        }
      ],
      "name": "chapter",
      "outputs": [
        {
          "internalType": "uint256",
          "name": "courseId",
          "type": "uint256"
        },
        {
          "internalType": "uint256",
          "name": "chapterId",
          "type": "uint256"
        },
        {
          "internalType": "string",
          "name": "chapterName",
          "type": "string"
        },
        {
          "internalType": "bool",
          "name": "exists",
          "type": "bool"
        }
      ],
      "stateMutability": "view",
      "type": "function"
    },
    {
      "inputs": [
        {
          "internalType": "uint256",
          "name": "",
          "type": "uint256"
        },
        {
          "internalType": "uint256",
          "name": "",
          "type": "uint256"
        }
      ],
      "name": "chapterLessons",
      "outputs": [
        {
          "internalType": "string",
          "name": "",
          "type": "string"
        }
      ],
      "stateMutability": "view",
      "type": "function"
    },
    {
      "inputs": [
        {
          "internalType": "uint256",
          "name": "",
          "type": "uint256"
        },
        {
          "internalType": "uint256",
          "name": "",
          "type": "uint256"
        }
      ],
      "name": "courseChapters",
      "outputs": [
        {
          "internalType": "uint256",
          "name": "courseId",
          "type": "uint256"
        },
        {
          "internalType": "uint256",
          "name": "chapterId",
          "type": "uint256"
        },
        {
          "internalType": "string",
          "name": "chapterName",
          "type": "string"
        },
        {
          "internalType": "bool",
          "name": "exists",
          "type": "bool"
        }
      ],
      "stateMutability": "view",
      "type": "function"
    },
    {
      "inputs": [],
      "name": "courseCount",
      "outputs": [
        {
          "internalType": "uint256",
          "name": "",
          "type": "uint256"
        }
      ],
      "stateMutability": "view",
      "type": "function"
    },
    {
      "inputs": [
        {
          "internalType": "uint256",
          "name": "",
          "type": "uint256"
        }
      ],
      "name": "courseObject",
      "outputs": [
        {
          "internalType": "uint256",
          "name": "courseId",
          "type": "uint256"
        },
        {
          "internalType": "string",
          "name": "courseName",
          "type": "string"
        },
        {
          "internalType": "string",
          "name": "description",
          "type": "string"
        },
        {
          "internalType": "bool",
          "name": "approved",
          "type": "bool"
        },
        {
          "internalType": "uint256",
          "name": "approvalCount",
          "type": "uint256"
        },
        {
          "internalType": "address",
          "name": "creator",
          "type": "address"
        },
        {
          "internalType": "bool",
          "name": "exists",
          "type": "bool"
        }
      ],
      "stateMutability": "view",
      "type": "function"
    },
    {
      "inputs": [
        {
          "internalType": "uint256",
          "name": "",
          "type": "uint256"
        }
      ],
      "name": "courseReviewInitiated",
      "outputs": [
        {
          "internalType": "bool",
          "name": "",
          "type": "bool"
        }
      ],
      "stateMutability": "view",
      "type": "function"
    },
    {
      "inputs": [
        {
          "internalType": "uint256",
          "name": "",
          "type": "uint256"
        },
        {
          "internalType": "uint256",
          "name": "",
          "type": "uint256"
        }
      ],
      "name": "courseReviewers",
      "outputs": [
        {
          "internalType": "address",
          "name": "",
          "type": "address"
        }
      ],
      "stateMutability": "view",
      "type": "function"
    },
    {
      "inputs": [
        {
          "internalType": "string",
          "name": "_courseName",
          "type": "string"
        },
        {
          "internalType": "string",
          "name": "_description",
          "type": "string"
        }
      ],
      "name": "createCourse",
      "outputs": [
        {
          "internalType": "bool",
          "name": "",
          "type": "bool"
        }
      ],
      "stateMutability": "nonpayable",
      "type": "function"
    },
    {
      "inputs": [],
      "name": "decimals",
      "outputs": [
        {
          "internalType": "uint8",
          "name": "",
          "type": "uint8"
        }
      ],
      "stateMutability": "view",
      "type": "function"
    },
    {
      "inputs": [],
      "name": "ecosystemPoolSupply",
      "outputs": [
        {
          "internalType": "uint256",
          "name": "",
          "type": "uint256"
        }
      ],
      "stateMutability": "view",
      "type": "function"
    },
    {
      "inputs": [],
      "name": "getAllCourses",
      "outputs": [
        {
          "components": [
            {
              "internalType": "uint256",
              "name": "courseId",
              "type": "uint256"
            },
            {
              "internalType": "string",
              "name": "courseName",
              "type": "string"
            },
            {
              "internalType": "string",
              "name": "description",
              "type": "string"
            },
            {
              "internalType": "bool",
              "name": "approved",
              "type": "bool"
            },
            {
              "internalType": "uint256",
              "name": "approvalCount",
              "type": "uint256"
            },
            {
              "internalType": "address",
              "name": "creator",
              "type": "address"
            },
            {
              "internalType": "bool",
              "name": "exists",
              "type": "bool"
            },
            {
              "internalType": "address[]",
              "name": "enrolledStudents",
              "type": "address[]"
            }
          ],
          "internalType": "struct Ecosystem.Course[]",
          "name": "",
          "type": "tuple[]"
        }
      ],
      "stateMutability": "view",
      "type": "function"
    },
    {
      "inputs": [
        {
          "internalType": "uint256",
          "name": "courseId",
          "type": "uint256"
        }
      ],
      "name": "getCourseReviewers",
      "outputs": [
        {
          "internalType": "address[]",
          "name": "",
          "type": "address[]"
        }
      ],
      "stateMutability": "view",
      "type": "function"
    },
    {
      "inputs": [],
      "name": "getCurrentEcosystemPoolSupply",
      "outputs": [
        {
          "internalType": "uint256",
          "name": "",
          "type": "uint256"
        }
      ],
      "stateMutability": "view",
      "type": "function"
    },
    {
      "inputs": [
        {
          "internalType": "bytes32",
          "name": "role",
          "type": "bytes32"
        }
      ],
      "name": "getRoleAdmin",
      "outputs": [
        {
          "internalType": "bytes32",
          "name": "",
          "type": "bytes32"
        }
      ],
      "stateMutability": "view",
      "type": "function"
    },
    {
      "inputs": [
        {
          "internalType": "bytes32",
          "name": "role",
          "type": "bytes32"
        },
        {
          "internalType": "address",
          "name": "account",
          "type": "address"
        }
      ],
      "name": "grantRole",
      "outputs": [],
      "stateMutability": "nonpayable",
      "type": "function"
    },
    {
      "inputs": [
        {
          "internalType": "bytes32",
          "name": "role",
          "type": "bytes32"
        },
        {
          "internalType": "address",
          "name": "account",
          "type": "address"
        }
      ],
      "name": "hasRole",
      "outputs": [
        {
          "internalType": "bool",
          "name": "",
          "type": "bool"
        }
      ],
      "stateMutability": "view",
      "type": "function"
    },
    {
      "inputs": [
        {
          "internalType": "uint256",
          "name": "",
          "type": "uint256"
        },
        {
          "internalType": "address",
          "name": "",
          "type": "address"
        }
      ],
      "name": "isEnrolled",
      "outputs": [
        {
          "internalType": "bool",
          "name": "",
          "type": "bool"
        }
      ],
      "stateMutability": "view",
      "type": "function"
    },
    {
      "inputs": [
        {
          "internalType": "address",
          "name": "",
          "type": "address"
        }
      ],
      "name": "isInReviewerPool",
      "outputs": [
        {
          "internalType": "bool",
          "name": "",
          "type": "bool"
        }
      ],
      "stateMutability": "view",
      "type": "function"
    },
    {
      "inputs": [
        {
          "internalType": "address",
          "name": "account",
          "type": "address"
        }
      ],
      "name": "isReviewer",
      "outputs": [
        {
          "internalType": "bool",
          "name": "",
          "type": "bool"
        }
      ],
      "stateMutability": "view",
      "type": "function"
    },
    {
      "inputs": [
        {
          "internalType": "uint256",
          "name": "",
          "type": "uint256"
        }
      ],
      "name": "lesson",
      "outputs": [
        {
          "internalType": "uint256",
          "name": "chapterId",
          "type": "uint256"
        },
        {
          "internalType": "uint256",
          "name": "lessonId",
          "type": "uint256"
        },
        {
          "internalType": "string",
          "name": "lessonName",
          "type": "string"
        },
        {
          "internalType": "string",
          "name": "lessonContent",
          "type": "string"
        },
        {
          "internalType": "uint256",
          "name": "resourceCount",
          "type": "uint256"
        },
        {
          "internalType": "bool",
          "name": "exists",
          "type": "bool"
        }
      ],
      "stateMutability": "view",
      "type": "function"
    },
    {
      "inputs": [
        {
          "internalType": "uint256",
          "name": "",
          "type": "uint256"
        }
      ],
      "name": "listOfChapters",
      "outputs": [
        {
          "internalType": "uint256",
          "name": "courseId",
          "type": "uint256"
        },
        {
          "internalType": "uint256",
          "name": "chapterId",
          "type": "uint256"
        },
        {
          "internalType": "string",
          "name": "chapterName",
          "type": "string"
        },
        {
          "internalType": "bool",
          "name": "exists",
          "type": "bool"
        }
      ],
      "stateMutability": "view",
      "type": "function"
    },
    {
      "inputs": [
        {
          "internalType": "uint256",
          "name": "",
          "type": "uint256"
        }
      ],
      "name": "listOfCourses",
      "outputs": [
        {
          "internalType": "uint256",
          "name": "courseId",
          "type": "uint256"
        },
        {
          "internalType": "string",
          "name": "courseName",
          "type": "string"
        },
        {
          "internalType": "string",
          "name": "description",
          "type": "string"
        },
        {
          "internalType": "bool",
          "name": "approved",
          "type": "bool"
        },
        {
          "internalType": "uint256",
          "name": "approvalCount",
          "type": "uint256"
        },
        {
          "internalType": "address",
          "name": "creator",
          "type": "address"
        },
        {
          "internalType": "bool",
          "name": "exists",
          "type": "bool"
        }
      ],
      "stateMutability": "view",
      "type": "function"
    },
    {
      "inputs": [
        {
          "internalType": "uint256",
          "name": "",
          "type": "uint256"
        }
      ],
      "name": "listOfLessons",
      "outputs": [
        {
          "internalType": "uint256",
          "name": "chapterId",
          "type": "uint256"
        },
        {
          "internalType": "uint256",
          "name": "lessonId",
          "type": "uint256"
        },
        {
          "internalType": "string",
          "name": "lessonName",
          "type": "string"
        },
        {
          "internalType": "string",
          "name": "lessonContent",
          "type": "string"
        },
        {
          "internalType": "uint256",
          "name": "resourceCount",
          "type": "uint256"
        },
        {
          "internalType": "bool",
          "name": "exists",
          "type": "bool"
        }
      ],
      "stateMutability": "view",
      "type": "function"
    },
    {
      "inputs": [
        {
          "internalType": "uint256",
          "name": "",
          "type": "uint256"
        }
      ],
      "name": "listOfQuestions",
      "outputs": [
        {
          "internalType": "uint256",
          "name": "quizId",
          "type": "uint256"
        },
        {
          "internalType": "uint256",
          "name": "questionId",
          "type": "uint256"
        },
        {
          "internalType": "string",
          "name": "questionText",
          "type": "string"
        }
      ],
      "stateMutability": "view",
      "type": "function"
    },
    {
      "inputs": [
        {
          "internalType": "uint256",
          "name": "",
          "type": "uint256"
        }
      ],
      "name": "listOfQuizzes",
      "outputs": [
        {
          "internalType": "uint256",
          "name": "lessonId",
          "type": "uint256"
        },
        {
          "internalType": "uint256",
          "name": "quizId",
          "type": "uint256"
        },
        {
          "internalType": "string",
          "name": "quizTitle",
          "type": "string"
        },
        {
          "internalType": "bool",
          "name": "exists",
          "type": "bool"
        }
      ],
      "stateMutability": "view",
      "type": "function"
    },
    {
      "inputs": [
        {
          "internalType": "uint256",
          "name": "",
          "type": "uint256"
        }
      ],
      "name": "listOfResource",
      "outputs": [
        {
          "internalType": "enum Ecosystem.ContentType",
          "name": "contentType",
          "type": "uint8"
        },
        {
          "internalType": "string",
          "name": "url",
          "type": "string"
        },
        {
          "internalType": "string",
          "name": "name",
          "type": "string"
        }
      ],
      "stateMutability": "view",
      "type": "function"
    },
    {
      "inputs": [
        {
          "internalType": "uint256",
          "name": "",
          "type": "uint256"
        }
      ],
      "name": "multiSigProposals",
      "outputs": [
        {
          "internalType": "uint256",
          "name": "id",
          "type": "uint256"
        },
        {
          "internalType": "address",
          "name": "proposer",
          "type": "address"
        },
        {
          "internalType": "address",
          "name": "targetContract",
          "type": "address"
        },
        {
          "internalType": "bytes",
          "name": "data",
          "type": "bytes"
        },
        {
          "internalType": "uint256",
          "name": "approvalCount",
          "type": "uint256"
        },
        {
          "internalType": "bool",
          "name": "executed",
          "type": "bool"
        }
      ],
      "stateMutability": "view",
      "type": "function"
    },
    {
      "inputs": [],
      "name": "name",
      "outputs": [
        {
          "internalType": "string",
          "name": "",
          "type": "string"
        }
      ],
      "stateMutability": "view",
      "type": "function"
    },
    {
      "inputs": [],
      "name": "nextChapterId",
      "outputs": [
        {
          "internalType": "uint256",
          "name": "",
          "type": "uint256"
        }
      ],
      "stateMutability": "view",
      "type": "function"
    },
    {
      "inputs": [],
      "name": "nextChoiceId",
      "outputs": [
        {
          "internalType": "uint256",
          "name": "",
          "type": "uint256"
        }
      ],
      "stateMutability": "view",
      "type": "function"
    },
    {
      "inputs": [],
      "name": "nextCourseId",
      "outputs": [
        {
          "internalType": "uint256",
          "name": "",
          "type": "uint256"
        }
      ],
      "stateMutability": "view",
      "type": "function"
    },
    {
      "inputs": [],
      "name": "nextCourseIdd",
      "outputs": [
        {
          "internalType": "uint256",
          "name": "",
          "type": "uint256"
        }
      ],
      "stateMutability": "view",
      "type": "function"
    },
    {
      "inputs": [],
      "name": "nextLessonId",
      "outputs": [
        {
          "internalType": "uint256",
          "name": "",
          "type": "uint256"
        }
      ],
      "stateMutability": "view",
      "type": "function"
    },
    {
      "inputs": [],
      "name": "nextQuestionId",
      "outputs": [
        {
          "internalType": "uint256",
          "name": "",
          "type": "uint256"
        }
      ],
      "stateMutability": "view",
      "type": "function"
    },
    {
      "inputs": [],
      "name": "nextQuizId",
      "outputs": [
        {
          "internalType": "uint256",
          "name": "",
          "type": "uint256"
        }
      ],
      "stateMutability": "view",
      "type": "function"
    },
    {
      "inputs": [
        {
          "internalType": "uint256",
          "name": "",
          "type": "uint256"
        }
      ],
      "name": "questions",
      "outputs": [
        {
          "internalType": "uint256",
          "name": "quizId",
          "type": "uint256"
        },
        {
          "internalType": "uint256",
          "name": "questionId",
          "type": "uint256"
        },
        {
          "internalType": "string",
          "name": "questionText",
          "type": "string"
        }
      ],
      "stateMutability": "view",
      "type": "function"
    },
    {
      "inputs": [
        {
          "internalType": "uint256",
          "name": "",
          "type": "uint256"
        }
      ],
      "name": "quizzes",
      "outputs": [
        {
          "internalType": "uint256",
          "name": "lessonId",
          "type": "uint256"
        },
        {
          "internalType": "uint256",
          "name": "quizId",
          "type": "uint256"
        },
        {
          "internalType": "string",
          "name": "quizTitle",
          "type": "string"
        },
        {
          "internalType": "bool",
          "name": "exists",
          "type": "bool"
        }
      ],
      "stateMutability": "view",
      "type": "function"
    },
    {
      "inputs": [
        {
          "internalType": "address",
          "name": "reviewer",
          "type": "address"
        }
      ],
      "name": "removeReviewer",
      "outputs": [],
      "stateMutability": "nonpayable",
      "type": "function"
    },
    {
      "inputs": [
        {
          "internalType": "bytes32",
          "name": "role",
          "type": "bytes32"
        },
        {
          "internalType": "address",
          "name": "callerConfirmation",
          "type": "address"
        }
      ],
      "name": "renounceRole",
      "outputs": [],
      "stateMutability": "nonpayable",
      "type": "function"
    },
    {
      "inputs": [
        {
          "internalType": "uint256",
          "name": "",
          "type": "uint256"
        }
      ],
      "name": "reviewerPool",
      "outputs": [
        {
          "internalType": "address",
          "name": "",
          "type": "address"
        }
      ],
      "stateMutability": "view",
      "type": "function"
    },
    {
      "inputs": [
        {
          "internalType": "uint256",
          "name": "",
          "type": "uint256"
        },
        {
          "internalType": "address",
          "name": "",
          "type": "address"
        }
      ],
      "name": "reviews",
      "outputs": [
        {
          "internalType": "uint256",
          "name": "learnerAgency",
          "type": "uint256"
        },
        {
          "internalType": "uint256",
          "name": "criticalThinking",
          "type": "uint256"
        },
        {
          "internalType": "uint256",
          "name": "collaborativeLearning",
          "type": "uint256"
        },
        {
          "internalType": "uint256",
          "name": "reflectivePractice",
          "type": "uint256"
        },
        {
          "internalType": "uint256",
          "name": "adaptiveLearning",
          "type": "uint256"
        },
        {
          "internalType": "uint256",
          "name": "authenticLearning",
          "type": "uint256"
        },
        {
          "internalType": "uint256",
          "name": "technologyIntegration",
          "type": "uint256"
        },
        {
          "internalType": "uint256",
          "name": "learnerSupport",
          "type": "uint256"
        },
        {
          "internalType": "uint256",
          "name": "assessmentForLearning",
          "type": "uint256"
        },
        {
          "internalType": "uint256",
          "name": "engagementAndMotivation",
          "type": "uint256"
        },
        {
          "internalType": "bool",
          "name": "isSubmitted",
          "type": "bool"
        }
      ],
      "stateMutability": "view",
      "type": "function"
    },
    {
      "inputs": [
        {
          "internalType": "bytes32",
          "name": "role",
          "type": "bytes32"
        },
        {
          "internalType": "address",
          "name": "account",
          "type": "address"
        }
      ],
      "name": "revokeRole",
      "outputs": [],
      "stateMutability": "nonpayable",
      "type": "function"
    },
    {
      "inputs": [
        {
          "internalType": "uint256",
          "name": "courseId",
          "type": "uint256"
        }
      ],
      "name": "selectCourseReviewers",
      "outputs": [],
      "stateMutability": "nonpayable",
      "type": "function"
    },
    {
      "inputs": [
        {
          "internalType": "uint256",
          "name": "courseId",
          "type": "uint256"
        },
        {
          "internalType": "uint256",
          "name": "learnerAgency",
          "type": "uint256"
        },
        {
          "internalType": "uint256",
          "name": "criticalThinking",
          "type": "uint256"
        },
        {
          "internalType": "uint256",
          "name": "collaborativeLearning",
          "type": "uint256"
        },
        {
          "internalType": "uint256",
          "name": "reflectivePractice",
          "type": "uint256"
        },
        {
          "internalType": "uint256",
          "name": "adaptiveLearning",
          "type": "uint256"
        },
        {
          "internalType": "uint256",
          "name": "authenticLearning",
          "type": "uint256"
        },
        {
          "internalType": "uint256",
          "name": "technologyIntegration",
          "type": "uint256"
        },
        {
          "internalType": "uint256",
          "name": "learnerSupport",
          "type": "uint256"
        },
        {
          "internalType": "uint256",
          "name": "assessmentForLearning",
          "type": "uint256"
        },
        {
          "internalType": "uint256",
          "name": "engagementAndMotivation",
          "type": "uint256"
        }
      ],
      "name": "submitReview",
      "outputs": [],
      "stateMutability": "nonpayable",
      "type": "function"
    },
    {
      "inputs": [
        {
          "internalType": "bytes4",
          "name": "interfaceId",
          "type": "bytes4"
        }
      ],
      "name": "supportsInterface",
      "outputs": [
        {
          "internalType": "bool",
          "name": "",
          "type": "bool"
        }
      ],
      "stateMutability": "view",
      "type": "function"
    },
    {
      "inputs": [],
      "name": "symbol",
      "outputs": [
        {
          "internalType": "string",
          "name": "",
          "type": "string"
        }
      ],
      "stateMutability": "view",
      "type": "function"
    },
    {
      "inputs": [],
      "name": "totalSupply",
      "outputs": [
        {
          "internalType": "uint256",
          "name": "",
          "type": "uint256"
        }
      ],
      "stateMutability": "view",
      "type": "function"
    },
    {
      "inputs": [
        {
          "internalType": "address",
          "name": "to",
          "type": "address"
        },
        {
          "internalType": "uint256",
          "name": "value",
          "type": "uint256"
        }
      ],
      "name": "transfer",
      "outputs": [
        {
          "internalType": "bool",
          "name": "",
          "type": "bool"
        }
      ],
      "stateMutability": "nonpayable",
      "type": "function"
    },
    {
      "inputs": [
        {
          "internalType": "address",
          "name": "from",
          "type": "address"
        },
        {
          "internalType": "address",
          "name": "to",
          "type": "address"
        },
        {
          "internalType": "uint256",
          "name": "value",
          "type": "uint256"
        }
      ],
      "name": "transferFrom",
      "outputs": [
        {
          "internalType": "bool",
          "name": "",
          "type": "bool"
        }
      ],
      "stateMutability": "nonpayable",
      "type": "function"
    }
  ],
  "bytecode": "0x608060405234801561001057600080fd5b5060405161740e38038061740e83398181016040528101906100329190610639565b806040518060400160405280600a81526020017f4142594120544f4b454e000000000000000000000000000000000000000000008152506040518060400160405280600681526020017f414259544b4e000000000000000000000000000000000000000000000000000081525081600390816100ae91906108a3565b5080600490816100be91906108a3565b505050600481511015610106576040517f08c379a00000000000000000000000000000000000000000000000000000000081526004016100fd906109f8565b60405180910390fd5b6101196000801b336102be60201b60201c565b5061014a7fdf1425bae297c2f52b4f15d18a50b1fc8cb5b981a981b1d213ed3ff92681b64d336102be60201b60201c565b5060005b815181101561029e576101a17fc10c77be35aff266144ed64c26a1fa104bae2f284ae99ac4a34203454704a18583838151811061018e5761018d610a18565b5b60200260200101516102be60201b60201c565b5060068282815181106101b7576101b6610a18565b5b60200260200101519080600181540180825580915050600190039060005260206000200160009091909190916101000a81548173ffffffffffffffffffffffffffffffffffffffff021916908373ffffffffffffffffffffffffffffffffffffffff16021790555060016008600084848151811061023857610237610a18565b5b602002602001015173ffffffffffffffffffffffffffffffffffffffff1673ffffffffffffffffffffffffffffffffffffffff16815260200190815260200160002060006101000a81548160ff021916908315150217905550808060010191505061014e565b50506001600a819055506102b8600b6103bc60201b60201c565b50610a47565b60006102d083836103fb60201b60201c565b6103b15760016005600085815260200190815260200160002060000160008473ffffffffffffffffffffffffffffffffffffffff1673ffffffffffffffffffffffffffffffffffffffff16815260200190815260200160002060006101000a81548160ff02191690831515021790555061034e61046660201b60201c565b73ffffffffffffffffffffffffffffffffffffffff168273ffffffffffffffffffffffffffffffffffffffff16847f2f8788117e7eff1d82e926ec794901d17c78024a50270940304540a733656f0d60405160405180910390a4600190506103b6565b600090505b92915050565b60018160000181905550600181600101819055506001816002018190555060018160030181905550600181600401819055506001816005018190555050565b60006005600084815260200190815260200160002060000160008373ffffffffffffffffffffffffffffffffffffffff1673ffffffffffffffffffffffffffffffffffffffff16815260200190815260200160002060009054906101000a900460ff16905092915050565b600033905090565b6000604051905090565b600080fd5b600080fd5b600080fd5b6000601f19601f8301169050919050565b7f4e487b7100000000000000000000000000000000000000000000000000000000600052604160045260246000fd5b6104d082610487565b810181811067ffffffffffffffff821117156104ef576104ee610498565b5b80604052505050565b600061050261046e565b905061050e82826104c7565b919050565b600067ffffffffffffffff82111561052e5761052d610498565b5b602082029050602081019050919050565b600080fd5b600073ffffffffffffffffffffffffffffffffffffffff82169050919050565b600061056f82610544565b9050919050565b61057f81610564565b811461058a57600080fd5b50565b60008151905061059c81610576565b92915050565b60006105b56105b084610513565b6104f8565b905080838252602082019050602084028301858111156105d8576105d761053f565b5b835b8181101561060157806105ed888261058d565b8452602084019350506020810190506105da565b5050509392505050565b600082601f8301126106205761061f610482565b5b81516106308482602086016105a2565b91505092915050565b60006020828403121561064f5761064e610478565b5b600082015167ffffffffffffffff81111561066d5761066c61047d565b5b6106798482850161060b565b91505092915050565b600081519050919050565b7f4e487b7100000000000000000000000000000000000000000000000000000000600052602260045260246000fd5b600060028204905060018216806106d457607f821691505b6020821081036106e7576106e661068d565b5b50919050565b60008190508160005260206000209050919050565b60006020601f8301049050919050565b600082821b905092915050565b60006008830261074f7fffffffffffffffffffffffffffffffffffffffffffffffffffffffffffffffff82610712565b6107598683610712565b95508019841693508086168417925050509392505050565b6000819050919050565b6000819050919050565b60006107a061079b61079684610771565b61077b565b610771565b9050919050565b6000819050919050565b6107ba83610785565b6107ce6107c6826107a7565b84845461071f565b825550505050565b600090565b6107e36107d6565b6107ee8184846107b1565b505050565b5b81811015610812576108076000826107db565b6001810190506107f4565b5050565b601f82111561085757610828816106ed565b61083184610702565b81016020851015610840578190505b61085461084c85610702565b8301826107f3565b50505b505050565b600082821c905092915050565b600061087a6000198460080261085c565b1980831691505092915050565b60006108938383610869565b9150826002028217905092915050565b6108ac82610682565b67ffffffffffffffff8111156108c5576108c4610498565b5b6108cf82546106bc565b6108da828285610816565b600060209050601f83116001811461090d57600084156108fb578287015190505b6109058582610887565b86555061096d565b601f19841661091b866106ed565b60005b828110156109435784890151825560018201915060208501945060208101905061091e565b86831015610960578489015161095c601f891682610869565b8355505b6001600288020188555050505b505050505050565b600082825260208201905092915050565b7f4174206c6561737420342072657669657765727320617265207265717569726560008201527f6400000000000000000000000000000000000000000000000000000000000000602082015250565b60006109e2602183610975565b91506109ed82610986565b604082019050919050565b60006020820190508181036000830152610a11816109d5565b9050919050565b7f4e487b7100000000000000000000000000000000000000000000000000000000600052603260045260246000fd5b6169b880610a566000396000f3fe608060405234801561001057600080fd5b50600436106103fc5760003560e01c806373a82b5f11610215578063bfd2f4c511610125578063d547741f116100b8578063ded5c18d11610087578063ded5c18d14610db9578063e503f10814610dd7578063eb264b9c14610df5578063fdc6258a14610e13578063ffabc67314610e43576103fc565b8063d547741f14610d1d578063d93f2caa14610d39578063dd62ed3e14610d57578063ddfc79fb14610d87576103fc565b8063c7954e4c116100f4578063c7954e4c14610c80578063c90c884d14610c9e578063c9442dac14610cd1578063c976831514610ced576103fc565b8063bfd2f4c514610bb1578063c12804fb14610be6578063c293bbbe14610c20578063c491b04c14610c50576103fc565b8063a14ecbdf116101a8578063a3ef204111610177578063a3ef204114610ae4578063a9059cbb14610b17578063aa95da3a14610b47578063ac957c6314610b77578063bad0dd6514610b95576103fc565b8063a14ecbdf14610a48578063a1cd05b114610a66578063a217fddf14610a96578063a26a795314610ab4576103fc565b806388409afa116101e457806388409afa146109ab5780638ea6e2fd146109de57806391d14854146109fa57806395d89b4114610a2a576103fc565b806373a82b5f1461093757806375284998146109535780637d83daf21461096f578063846f81521461098d576103fc565b8063313ce567116103105780634d42ef48116102a3578063599c553311610272578063599c55331461087757806366055159146108955780636b000fa7146108b35780636fdb67f7146108d157806370a0823114610907576103fc565b80634d42ef48146107d857806351d93c811461080b57806352994e2f1461083d57806358a3fa251461085b576103fc565b806336568abe116102df57806336568abe1461074b5780633693dcfa146107675780633b129a561461078557806340932bf8146107a3576103fc565b8063313ce567146106ad57806331b1b978146106cb57806332cb6b0c146106fd57806334ed4bdb1461071b576103fc565b806323b872dd11610393578063295b825a11610362578063295b825a146105d55780632990db7c1461060857806329a0be651461063e5780632aac61ae1461065c5780632f2ff15d14610691576103fc565b806323b872dd14610539578063248a9ca314610569578063274202f01461059957806327ff6223146105b7576103fc565b8063095ea7b3116103cf578063095ea7b31461048b57806311ce15df146104bb57806318160ddd146104eb57806319f102ec14610509576103fc565b806301ffc9a71461040157806304e48bd114610431578063057f46bb1461044f57806306fdde031461046d575b600080fd5b61041b60048036038101906104169190614d0e565b610e73565b6040516104289190614d56565b60405180910390f35b610439610eed565b6040516104469190615099565b60405180910390f35b6104576112d9565b60405161046491906150ca565b60405180910390f35b6104756112df565b604051610482919061512f565b60405180910390f35b6104a560048036038101906104a091906151a9565b611371565b6040516104b29190614d56565b60405180910390f35b6104d560048036038101906104d091906151e9565b611394565b6040516104e29190614d56565b60405180910390f35b6104f36113b4565b60405161050091906150ca565b60405180910390f35b610523600480360381019061051e91906151e9565b6113be565b6040516105309190615225565b60405180910390f35b610553600480360381019061054e9190615240565b6113fd565b6040516105609190614d56565b60405180910390f35b610583600480360381019061057e91906152c9565b61142c565b6040516105909190615305565b60405180910390f35b6105a161144c565b6040516105ae91906150ca565b60405180910390f35b6105bf611474565b6040516105cc91906150ca565b60405180910390f35b6105ef60048036038101906105ea91906151e9565b611479565b6040516105ff9493929190615320565b60405180910390f35b610622600480360381019061061d91906151e9565b61154e565b604051610635979695949392919061536c565b60405180910390f35b6106466116da565b60405161065391906150ca565b60405180910390f35b610676600480360381019061067191906151e9565b6116e0565b604051610688969594939291906153e9565b60405180910390f35b6106ab60048036038101906106a69190615458565b611849565b005b6106b561186b565b6040516106c291906154b4565b60405180910390f35b6106e560048036038101906106e091906151e9565b611874565b6040516106f4939291906154cf565b60405180910390f35b610705611926565b60405161071291906150ca565b60405180910390f35b6107356004803603810190610730919061550d565b611936565b60405161074291906150ca565b60405180910390f35b61076560048036038101906107609190615458565b611954565b005b61076f6119cf565b60405161077c9190615305565b60405180910390f35b61078d6119f3565b60405161079a9190615305565b60405180910390f35b6107bd60048036038101906107b891906151e9565b611a17565b6040516107cf9695949392919061558f565b60405180910390f35b6107f260048036038101906107ed91906155f7565b611b28565b6040516108029493929190615320565b60405180910390f35b610825600480360381019061082091906151e9565b611c0a565b604051610834939291906154cf565b60405180910390f35b610845611ccc565b6040516108529190615305565b60405180910390f35b61087560048036038101906108709190615637565b611cf0565b005b61087f611fb6565b60405161088c91906150ca565b60405180910390f35b61089d611fbb565b6040516108aa91906150ca565b60405180910390f35b6108bb611fc1565b6040516108c891906150ca565b60405180910390f35b6108eb60048036038101906108e691906151e9565b611fc7565b6040516108fe979695949392919061536c565b60405180910390f35b610921600480360381019061091c919061550d565b612163565b60405161092e91906150ca565b60405180910390f35b610951600480360381019061094c919061550d565b6121ab565b005b61096d600480360381019061096891906151e9565b61238f565b005b6109776126e6565b60405161098491906150ca565b60405180910390f35b6109956126ec565b6040516109a291906150ca565b60405180910390f35b6109c560048036038101906109c091906151e9565b6126f8565b6040516109d59493929190615320565b60405180910390f35b6109f860048036038101906109f391906151e9565b6127bd565b005b610a146004803603810190610a0f9190615458565b612b27565b604051610a219190614d56565b60405180910390f35b610a32612b92565b604051610a3f919061512f565b60405180910390f35b610a50612c24565b604051610a5d91906150ca565b60405180910390f35b610a806004803603810190610a7b91906155f7565b612c2a565b604051610a8d9190615225565b60405180910390f35b610a9e612c78565b604051610aab9190615305565b60405180910390f35b610ace6004803603810190610ac99190615860565b612c7f565b604051610adb9190614d56565b60405180910390f35b610afe6004803603810190610af991906151e9565b613129565b604051610b0e9493929190615320565b60405180910390f35b610b316004803603810190610b2c91906151a9565b6131ee565b604051610b3e9190614d56565b60405180910390f35b610b616004803603810190610b5c91906155f7565b613211565b604051610b6e919061512f565b60405180910390f35b610b7f6132c9565b604051610b8c91906150ca565b60405180910390f35b610baf6004803603810190610baa91906151e9565b6132ce565b005b610bcb6004803603810190610bc691906151e9565b6135cd565b604051610bdd969594939291906153e9565b60405180910390f35b610c006004803603810190610bfb91906158d8565b613726565b604051610c179b9a99989796959493929190615918565b60405180910390f35b610c3a6004803603810190610c3591906151e9565b61379a565b604051610c479190615a32565b60405180910390f35b610c6a6004803603810190610c65919061550d565b61383b565b604051610c779190614d56565b60405180910390f35b610c8861385b565b604051610c9591906150ca565b60405180910390f35b610cb86004803603810190610cb391906151e9565b613865565b604051610cc89493929190615320565b60405180910390f35b610ceb6004803603810190610ce6919061550d565b61393a565b005b610d076004803603810190610d0291906158d8565b613c24565b604051610d149190614d56565b60405180910390f35b610d376004803603810190610d329190615458565b613c53565b005b610d41613c75565b604051610d4e91906150ca565b60405180910390f35b610d716004803603810190610d6c9190615a54565b613c81565b604051610d7e91906150ca565b60405180910390f35b610da16004803603810190610d9c91906151e9565b613d08565b604051610db093929190615b0b565b60405180910390f35b610dc1613e5f565b604051610dce91906150ca565b60405180910390f35b610ddf613e6c565b604051610dec91906150ca565b60405180910390f35b610dfd613e72565b604051610e0a91906150ca565b60405180910390f35b610e2d6004803603810190610e28919061550d565b613e78565b604051610e3a9190614d56565b60405180910390f35b610e5d6004803603810190610e5891906151a9565b613eab565b604051610e6a9190614d56565b60405180910390f35b60007f7965db0b000000000000000000000000000000000000000000000000000000007bffffffffffffffffffffffffffffffffffffffffffffffffffffffff1916827bffffffffffffffffffffffffffffffffffffffffffffffffffffffff19161480610ee65750610ee582613eda565b5b9050919050565b6060600060268054905067ffffffffffffffff811115610f1057610f0f615735565b5b604051908082528060200260200182016040528015610f4957816020015b610f36614b7b565b815260200190600190039081610f2e5790505b50905060005b6026805490508110156112d15760405180610100016040528060268381548110610f7c57610f7b615b50565b5b906000526020600020906007020160000154815260200160268381548110610fa757610fa6615b50565b5b90600052602060002090600702016001018054610fc390615bae565b80601f0160208091040260200160405190810160405280929190818152602001828054610fef90615bae565b801561103c5780601f106110115761010080835404028352916020019161103c565b820191906000526020600020905b81548152906001019060200180831161101f57829003601f168201915b505050505081526020016026838154811061105a57611059615b50565b5b9060005260206000209060070201600201805461107690615bae565b80601f01602080910402602001604051908101604052809291908181526020018280546110a290615bae565b80156110ef5780601f106110c4576101008083540402835291602001916110ef565b820191906000526020600020905b8154815290600101906020018083116110d257829003601f168201915b505050505081526020016026838154811061110d5761110c615b50565b5b906000526020600020906007020160030160009054906101000a900460ff16151581526020016026838154811061114757611146615b50565b5b90600052602060002090600702016004015481526020016026838154811061117257611171615b50565b5b906000526020600020906007020160050160009054906101000a900473ffffffffffffffffffffffffffffffffffffffff1673ffffffffffffffffffffffffffffffffffffffff168152602001602683815481106111d3576111d2615b50565b5b906000526020600020906007020160050160149054906101000a900460ff16151581526020016026838154811061120d5761120c615b50565b5b906000526020600020906007020160060180548060200260200160405190810160405280929190818152602001828054801561129e57602002820191906000526020600020905b8160009054906101000a900473ffffffffffffffffffffffffffffffffffffffff1673ffffffffffffffffffffffffffffffffffffffff1681526020019060010190808311611254575b50505050508152508282815181106112b9576112b8615b50565b5b60200260200101819052508080600101915050610f4f565b508091505090565b60145481565b6060600380546112ee90615bae565b80601f016020809104026020016040519081016040528092919081815260200182805461131a90615bae565b80156113675780601f1061133c57610100808354040283529160200191611367565b820191906000526020600020905b81548152906001019060200180831161134a57829003601f168201915b5050505050905090565b60008061137c613f44565b9050611389818585613f4c565b600191505092915050565b60246020528060005260406000206000915054906101000a900460ff1681565b6000600254905090565b600681815481106113ce57600080fd5b906000526020600020016000915054906101000a900473ffffffffffffffffffffffffffffffffffffffff1681565b600080611408613f44565b9050611415858285613f5e565b611420858585613ff2565b60019150509392505050565b600060056000838152602001908152602001600020600101549050919050565b6064600f6b204fce5e3e250261100000006114679190615c0e565b6114719190615c7f565b81565b606481565b602a818154811061148957600080fd5b90600052602060002090600502016000915090508060000154908060010154908060020180546114b890615bae565b80601f01602080910402602001604051908101604052809291908181526020018280546114e490615bae565b80156115315780601f1061150657610100808354040283529160200191611531565b820191906000526020600020905b81548152906001019060200180831161151457829003601f168201915b5050505050908060040160009054906101000a900460ff16905084565b601960205280600052604060002060009150905080600001549080600101805461157790615bae565b80601f01602080910402602001604051908101604052809291908181526020018280546115a390615bae565b80156115f05780601f106115c5576101008083540402835291602001916115f0565b820191906000526020600020905b8154815290600101906020018083116115d357829003601f168201915b50505050509080600201805461160590615bae565b80601f016020809104026020016040519081016040528092919081815260200182805461163190615bae565b801561167e5780601f106116535761010080835404028352916020019161167e565b820191906000526020600020905b81548152906001019060200180831161166157829003601f168201915b5050505050908060030160009054906101000a900460ff16908060040154908060050160009054906101000a900473ffffffffffffffffffffffffffffffffffffffff16908060050160149054906101000a900460ff16905087565b60155481565b602881815481106116f057600080fd5b906000526020600020906024020160009150905080600001549080600101549080600201805461171f90615bae565b80601f016020809104026020016040519081016040528092919081815260200182805461174b90615bae565b80156117985780601f1061176d57610100808354040283529160200191611798565b820191906000526020600020905b81548152906001019060200180831161177b57829003601f168201915b5050505050908060030180546117ad90615bae565b80601f01602080910402602001604051908101604052809291908181526020018280546117d990615bae565b80156118265780601f106117fb57610100808354040283529160200191611826565b820191906000526020600020905b81548152906001019060200180831161180957829003601f168201915b5050505050908060220154908060230160009054906101000a900460ff16905086565b6118528261142c565b61185b816140e6565b61186583836140fa565b50505050565b60006012905090565b60226020528060005260406000206000915090508060000154908060010154908060020180546118a390615bae565b80601f01602080910402602001604051908101604052809291908181526020018280546118cf90615bae565b801561191c5780601f106118f15761010080835404028352916020019161191c565b820191906000526020600020905b8154815290600101906020018083116118ff57829003601f168201915b5050505050905083565b6b204fce5e3e2502611000000081565b601b6020528060005260406000206000915090508060000154905081565b61195c613f44565b73ffffffffffffffffffffffffffffffffffffffff168173ffffffffffffffffffffffffffffffffffffffff16146119c0576040517f6697b23200000000000000000000000000000000000000000000000000000000815260040160405180910390fd5b6119ca82826141ec565b505050565b7fadb22091b155738d2e889eb96f509d2a7c93234236b30400927feb4a6a15ab0081565b7fc10c77be35aff266144ed64c26a1fa104bae2f284ae99ac4a34203454704a18581565b60096020528060005260406000206000915090508060000154908060010160009054906101000a900473ffffffffffffffffffffffffffffffffffffffff16908060020160009054906101000a900473ffffffffffffffffffffffffffffffffffffffff1690806003018054611a8c90615bae565b80601f0160208091040260200160405190810160405280929190818152602001828054611ab890615bae565b8015611b055780601f10611ada57610100808354040283529160200191611b05565b820191906000526020600020905b815481529060010190602001808311611ae857829003601f168201915b5050505050908060040154908060050160009054906101000a900460ff16905086565b601e6020528160005260406000208181548110611b4457600080fd5b906000526020600020906004020160009150915050806000015490806001015490806002018054611b7490615bae565b80601f0160208091040260200160405190810160405280929190818152602001828054611ba090615bae565b8015611bed5780601f10611bc257610100808354040283529160200191611bed565b820191906000526020600020905b815481529060010190602001808311611bd057829003601f168201915b5050505050908060030160009054906101000a900460ff16905084565b602b8181548110611c1a57600080fd5b9060005260206000209060040201600091509050806000015490806001015490806002018054611c4990615bae565b80601f0160208091040260200160405190810160405280929190818152602001828054611c7590615bae565b8015611cc25780601f10611c9757610100808354040283529160200191611cc2565b820191906000526020600020905b815481529060010190602001808311611ca557829003601f168201915b5050505050905083565b7fdf1425bae297c2f52b4f15d18a50b1fc8cb5b981a981b1d213ed3ff92681b64d81565b7fc10c77be35aff266144ed64c26a1fa104bae2f284ae99ac4a34203454704a185611d1a816140e6565b611d248c336142df565b611d63576040517f08c379a0000000000000000000000000000000000000000000000000000000008152600401611d5a90615d22565b60405180910390fd5b601a60008d815260200190815260200160002060003373ffffffffffffffffffffffffffffffffffffffff1673ffffffffffffffffffffffffffffffffffffffff168152602001908152602001600020600a0160009054906101000a900460ff1615611e04576040517f08c379a0000000000000000000000000000000000000000000000000000000008152600401611dfb90615db4565b60405180910390fd5b611e168b8b8b8b8b8b8b8b8b8b6143aa565b6040518061016001604052808c81526020018b81526020018a815260200189815260200188815260200187815260200186815260200185815260200184815260200183815260200160011515815250601a60008e815260200190815260200160002060003373ffffffffffffffffffffffffffffffffffffffff1673ffffffffffffffffffffffffffffffffffffffff168152602001908152602001600020600082015181600001556020820151816001015560408201518160020155606082015181600301556080820151816004015560a0820151816005015560c0820151816006015560e082015181600701556101008201518160080155610120820151816009015561014082015181600a0160006101000a81548160ff0219169083151502179055509050506050611f99601a60008f815260200190815260200160002060003373ffffffffffffffffffffffffffffffffffffffff1673ffffffffffffffffffffffffffffffffffffffff16815260200190815260200160002061446f565b10611fa857611fa78c61238f565b5b505050505050505050505050565b600281565b60125481565b60185481565b60268181548110611fd757600080fd5b906000526020600020906007020160009150905080600001549080600101805461200090615bae565b80601f016020809104026020016040519081016040528092919081815260200182805461202c90615bae565b80156120795780601f1061204e57610100808354040283529160200191612079565b820191906000526020600020905b81548152906001019060200180831161205c57829003601f168201915b50505050509080600201805461208e90615bae565b80601f01602080910402602001604051908101604052809291908181526020018280546120ba90615bae565b80156121075780601f106120dc57610100808354040283529160200191612107565b820191906000526020600020905b8154815290600101906020018083116120ea57829003601f168201915b5050505050908060030160009054906101000a900460ff16908060040154908060050160009054906101000a900473ffffffffffffffffffffffffffffffffffffffff16908060050160149054906101000a900460ff16905087565b60008060008373ffffffffffffffffffffffffffffffffffffffff1673ffffffffffffffffffffffffffffffffffffffff168152602001908152602001600020549050919050565b7fc10c77be35aff266144ed64c26a1fa104bae2f284ae99ac4a34203454704a1856121d5816140e6565b600860008373ffffffffffffffffffffffffffffffffffffffff1673ffffffffffffffffffffffffffffffffffffffff16815260200190815260200160002060009054906101000a900460ff1615612262576040517f08c379a000000000000000000000000000000000000000000000000000000000815260040161225990615e20565b60405180910390fd5b61228c7fc10c77be35aff266144ed64c26a1fa104bae2f284ae99ac4a34203454704a185836140fa565b506006829080600181540180825580915050600190039060005260206000200160009091909190916101000a81548173ffffffffffffffffffffffffffffffffffffffff021916908373ffffffffffffffffffffffffffffffffffffffff1602179055506001600860008473ffffffffffffffffffffffffffffffffffffffff1673ffffffffffffffffffffffffffffffffffffffff16815260200190815260200160002060006101000a81548160ff0219169083151502179055508173ffffffffffffffffffffffffffffffffffffffff167fe1cb5e1230cc02e62c60b81c1aa5ade512f3eac296edb28628b4cf344f47f93160405160405180910390a25050565b7fc10c77be35aff266144ed64c26a1fa104bae2f284ae99ac4a34203454704a1856123b9816140e6565b60006019600084815260200190815260200160002090508060030160009054906101000a900460ff1615612422576040517f08c379a000000000000000000000000000000000000000000000000000000000815260040161241990615e8c565b60405180910390fd5b601c60003373ffffffffffffffffffffffffffffffffffffffff1673ffffffffffffffffffffffffffffffffffffffff168152602001908152602001600020600084815260200190815260200160002060009054906101000a900460ff16156124c0576040517f08c379a00000000000000000000000000000000000000000000000000000000081526004016124b790615f1e565b60405180910390fd5b6001601c60003373ffffffffffffffffffffffffffffffffffffffff1673ffffffffffffffffffffffffffffffffffffffff168152602001908152602001600020600085815260200190815260200160002060006101000a81548160ff02191690831515021790555080600401600081548092919061253e90615f3e565b919050555060028160040154106126635760018160030160006101000a81548160ff02191690831515021790555060005b60268054905081101561262657836026828154811061259157612590615b50565b5b90600052602060002090600702016000015403612619576001602682815481106125be576125bd615b50565b5b906000526020600020906007020160030160006101000a81548160ff0219169083151502179055508160040154602682815481106125ff576125fe615b50565b5b906000526020600020906007020160040181905550612626565b808060010191505061256f565b5061265d8160050160009054906101000a900473ffffffffffffffffffffffffffffffffffffffff16674563918244f40000614504565b506126e1565b60005b6026805490508110156126df57836026828154811061268857612687615b50565b5b906000526020600020906007020160000154036126d2578160040154602682815481106126b8576126b7615b50565b5b9060005260206000209060070201600401819055506126df565b8080600101915050612666565b505b505050565b60135481565b671bc16d674ec8000081565b602160205280600052604060002060009150905080600001549080600101549080600201805461272790615bae565b80601f016020809104026020016040519081016040528092919081815260200182805461275390615bae565b80156127a05780601f10612775576101008083540402835291602001916127a0565b820191906000526020600020905b81548152906001019060200180831161278357829003601f168201915b5050505050908060040160009054906101000a900460ff16905084565b7fadb22091b155738d2e889eb96f509d2a7c93234236b30400927feb4a6a15ab006127e7816140e6565b6024600083815260200190815260200160002060009054906101000a900460ff1615612848576040517f08c379a000000000000000000000000000000000000000000000000000000000815260040161283f90615fd2565b60405180910390fd5b60036006805490501015612891576040517f08c379a00000000000000000000000000000000000000000000000000000000081526004016128889061603e565b60405180910390fd5b6023600083815260200190815260200160002060006128b09190614bda565b60005b6003811015612a8d5760006006805490504244600680549050856040516020016128e0949392919061607f565b6040516020818303038152906040528051906020012060001c61290391906160cd565b905060006006828154811061291b5761291a615b50565b5b9060005260206000200160009054906101000a900473ffffffffffffffffffffffffffffffffffffffff1690506000805b6023600088815260200190815260200160002080549050811015612a02578273ffffffffffffffffffffffffffffffffffffffff166023600089815260200190815260200160002082815481106129a6576129a5615b50565b5b9060005260206000200160009054906101000a900473ffffffffffffffffffffffffffffffffffffffff1673ffffffffffffffffffffffffffffffffffffffff16036129f55760019150612a02565b808060010191505061294c565b5080612a7d5760236000878152602001908152602001600020829080600181540180825580915050600190039060005260206000200160009091909190916101000a81548173ffffffffffffffffffffffffffffffffffffffff021916908373ffffffffffffffffffffffffffffffffffffffff1602179055505b50505080806001019150506128b3565b506003602360008481526020019081526020016000208054905003612ad95760016024600084815260200190815260200160002060006101000a81548160ff0219169083151502179055505b817fe205dff861c570b8df17e26f893778853f94bb25d2de318755e48eab0b403ff760236000858152602001908152602001600020604051612b1b91906161ea565b60405180910390a25050565b60006005600084815260200190815260200160002060000160008373ffffffffffffffffffffffffffffffffffffffff1673ffffffffffffffffffffffffffffffffffffffff16815260200190815260200160002060009054906101000a900460ff16905092915050565b606060048054612ba190615bae565b80601f0160208091040260200160405190810160405280929190818152602001828054612bcd90615bae565b8015612c1a5780601f10612bef57610100808354040283529160200191612c1a565b820191906000526020600020905b815481529060010190602001808311612bfd57829003601f168201915b5050505050905090565b60115481565b60236020528160005260406000208181548110612c4657600080fd5b906000526020600020016000915091509054906101000a900473ffffffffffffffffffffffffffffffffffffffff1681565b6000801b81565b60008073ffffffffffffffffffffffffffffffffffffffff1660196000601354815260200190815260200160002060050160009054906101000a900473ffffffffffffffffffffffffffffffffffffffff1673ffffffffffffffffffffffffffffffffffffffff1614612d27576040517f08c379a0000000000000000000000000000000000000000000000000000000008152600401612d1e90616258565b60405180910390fd5b60006040518061010001604052806013548152602001858152602001848152602001600015158152602001600081526020013373ffffffffffffffffffffffffffffffffffffffff168152602001600115158152602001600067ffffffffffffffff811115612d9957612d98615735565b5b604051908082528060200260200182016040528015612dc75781602001602082028036833780820191505090505b50815250905080601960006013548152602001908152602001600020600082015181600001556020820151816001019081612e029190616424565b506040820151816002019081612e189190616424565b5060608201518160030160006101000a81548160ff0219169083151502179055506080820151816004015560a08201518160050160006101000a81548173ffffffffffffffffffffffffffffffffffffffff021916908373ffffffffffffffffffffffffffffffffffffffff16021790555060c08201518160050160146101000a81548160ff02191690831515021790555060e0820151816006019080519060200190612ec6929190614bfb565b509050506026819080600181540180825580915050600190039060005260206000209060070201600090919091909150600082015181600001556020820151816001019081612f159190616424565b506040820151816002019081612f2b9190616424565b5060608201518160030160006101000a81548160ff0219169083151502179055506080820151816004015560a08201518160050160006101000a81548173ffffffffffffffffffffffffffffffffffffffff021916908373ffffffffffffffffffffffffffffffffffffffff16021790555060c08201518160050160146101000a81548160ff02191690831515021790555060e0820151816006019080519060200190612fd9929190614bfb565b50505060126000815480929190612fef90615f3e565b91905055506001601b60003373ffffffffffffffffffffffffffffffffffffffff1673ffffffffffffffffffffffffffffffffffffffff168152602001908152602001600020600001600082825461304791906164f6565b925050819055506013600081548092919061306190615f3e565b91905055506130907fadb22091b155738d2e889eb96f509d2a7c93234236b30400927feb4a6a15ab00336140fa565b508360405161309f9190616566565b604051809103902060016013546130b6919061657d565b7f9c93a42b217373d37e6c66ace0a67fe1fa1f78c93164b62417de69c48c0f67e26019600060016013546130ea919061657d565b815260200190815260200160002060030160009054906101000a900460ff166040516131169190614d56565b60405180910390a3600191505092915050565b601d60205280600052604060002060009150905080600001549080600101549080600201805461315890615bae565b80601f016020809104026020016040519081016040528092919081815260200182805461318490615bae565b80156131d15780601f106131a6576101008083540402835291602001916131d1565b820191906000526020600020905b8154815290600101906020018083116131b457829003601f168201915b5050505050908060030160009054906101000a900460ff16905084565b6000806131f9613f44565b9050613206818585613ff2565b600191505092915050565b60208052816000526040600020818154811061322c57600080fd5b9060005260206000200160009150915050805461324890615bae565b80601f016020809104026020016040519081016040528092919081815260200182805461327490615bae565b80156132c15780601f10613296576101008083540402835291602001916132c1565b820191906000526020600020905b8154815290600101906020018083116132a457829003601f168201915b505050505081565b605081565b7fdf1425bae297c2f52b4f15d18a50b1fc8cb5b981a981b1d213ed3ff92681b64d6132f8816140e6565b60006009600084815260200190815260200160002090508060050160009054906101000a900460ff1615613361576040517f08c379a0000000000000000000000000000000000000000000000000000000008152600401613358906165fd565b60405180910390fd5b8060060160003373ffffffffffffffffffffffffffffffffffffffff1673ffffffffffffffffffffffffffffffffffffffff16815260200190815260200160002060009054906101000a900460ff16156133f0576040517f08c379a00000000000000000000000000000000000000000000000000000000081526004016133e790616669565b60405180910390fd5b60018160060160003373ffffffffffffffffffffffffffffffffffffffff1673ffffffffffffffffffffffffffffffffffffffff16815260200190815260200160002060006101000a81548160ff02191690831515021790555080600401600081548092919061345f90615f3e565b9190505550827f5d4ccf5f92566d140246f4ae3b9cb35dc06fff109a7748602ad77f6260fd9a61336040516134949190615225565b60405180910390a260038160040154106135c85760008160020160009054906101000a900473ffffffffffffffffffffffffffffffffffffffff1673ffffffffffffffffffffffffffffffffffffffff16826003016040516134f6919061672c565b6000604051808303816000865af19150503d8060008114613533576040519150601f19603f3d011682016040523d82523d6000602084013e613538565b606091505b505090508061357c576040517f08c379a00000000000000000000000000000000000000000000000000000000081526004016135739061678f565b60405180910390fd5b60018260050160006101000a81548160ff021916908315150217905550837f7770356c29230b95943aec59d47ead11eb426a728bf5b57f7fd8597f3c0e29ba60405160405180910390a2505b505050565b601f6020528060005260406000206000915090508060000154908060010154908060020180546135fc90615bae565b80601f016020809104026020016040519081016040528092919081815260200182805461362890615bae565b80156136755780601f1061364a57610100808354040283529160200191613675565b820191906000526020600020905b81548152906001019060200180831161365857829003601f168201915b50505050509080600301805461368a90615bae565b80601f01602080910402602001604051908101604052809291908181526020018280546136b690615bae565b80156137035780601f106136d857610100808354040283529160200191613703565b820191906000526020600020905b8154815290600101906020018083116136e657829003601f168201915b5050505050908060220154908060230160009054906101000a900460ff16905086565b601a6020528160005260406000206020528060005260406000206000915091505080600001549080600101549080600201549080600301549080600401549080600501549080600601549080600701549080600801549080600901549080600a0160009054906101000a900460ff1690508b565b60606023600083815260200190815260200160002080548060200260200160405190810160405280929190818152602001828054801561382f57602002820191906000526020600020905b8160009054906101000a900473ffffffffffffffffffffffffffffffffffffffff1673ffffffffffffffffffffffffffffffffffffffff16815260200190600101908083116137e5575b50505050509050919050565b60086020528060005260406000206000915054906101000a900460ff1681565b6000601154905090565b6027818154811061387557600080fd5b90600052602060002090600402016000915090508060000154908060010154908060020180546138a490615bae565b80601f01602080910402602001604051908101604052809291908181526020018280546138d090615bae565b801561391d5780601f106138f25761010080835404028352916020019161391d565b820191906000526020600020905b81548152906001019060200180831161390057829003601f168201915b5050505050908060030160009054906101000a900460ff16905084565b6000801b613947816140e6565b600860008373ffffffffffffffffffffffffffffffffffffffff1673ffffffffffffffffffffffffffffffffffffffff16815260200190815260200160002060009054906101000a900460ff166139d3576040517f08c379a00000000000000000000000000000000000000000000000000000000081526004016139ca906167fb565b60405180910390fd5b60005b600680549050811015613b59578273ffffffffffffffffffffffffffffffffffffffff1660068281548110613a0e57613a0d615b50565b5b9060005260206000200160009054906101000a900473ffffffffffffffffffffffffffffffffffffffff1673ffffffffffffffffffffffffffffffffffffffff1603613b4c5760066001600680549050613a68919061657d565b81548110613a7957613a78615b50565b5b9060005260206000200160009054906101000a900473ffffffffffffffffffffffffffffffffffffffff1660068281548110613ab857613ab7615b50565b5b9060005260206000200160006101000a81548173ffffffffffffffffffffffffffffffffffffffff021916908373ffffffffffffffffffffffffffffffffffffffff1602179055506006805480613b1257613b1161681b565b5b6001900381819060005260206000200160006101000a81549073ffffffffffffffffffffffffffffffffffffffff02191690559055613b59565b80806001019150506139d6565b506000600860008473ffffffffffffffffffffffffffffffffffffffff1673ffffffffffffffffffffffffffffffffffffffff16815260200190815260200160002060006101000a81548160ff021916908315150217905550613bdc7fc10c77be35aff266144ed64c26a1fa104bae2f284ae99ac4a34203454704a185836141ec565b508173ffffffffffffffffffffffffffffffffffffffff167f55dba9d79522b91b615629d5f3b10c2fad2d258f1768614f4a52e937ada0d0ba60405160405180910390a25050565b60256020528160005260406000206020528060005260406000206000915091509054906101000a900460ff1681565b613c5c8261142c565b613c65816140e6565b613c6f83836141ec565b50505050565b674563918244f4000081565b6000600160008473ffffffffffffffffffffffffffffffffffffffff1673ffffffffffffffffffffffffffffffffffffffff16815260200190815260200160002060008373ffffffffffffffffffffffffffffffffffffffff1673ffffffffffffffffffffffffffffffffffffffff16815260200190815260200160002054905092915050565b60298181548110613d1857600080fd5b90600052602060002090600302016000915090508060000160009054906101000a900460ff1690806001018054613d4e90615bae565b80601f0160208091040260200160405190810160405280929190818152602001828054613d7a90615bae565b8015613dc75780601f10613d9c57610100808354040283529160200191613dc7565b820191906000526020600020905b815481529060010190602001808311613daa57829003601f168201915b505050505090806002018054613ddc90615bae565b80601f0160208091040260200160405190810160405280929190818152602001828054613e0890615bae565b8015613e555780601f10613e2a57610100808354040283529160200191613e55565b820191906000526020600020905b815481529060010190602001808311613e3857829003601f168201915b5050505050905083565b6000600b60000154905090565b60165481565b60175481565b6000613ea47fc10c77be35aff266144ed64c26a1fa104bae2f284ae99ac4a34203454704a18583612b27565b9050919050565b601c6020528160005260406000206020528060005260406000206000915091509054906101000a900460ff1681565b60007f01ffc9a7000000000000000000000000000000000000000000000000000000007bffffffffffffffffffffffffffffffffffffffffffffffffffffffff1916827bffffffffffffffffffffffffffffffffffffffffffffffffffffffff1916149050919050565b600033905090565b613f5983838360016145f1565b505050565b6000613f6a8484613c81565b90507fffffffffffffffffffffffffffffffffffffffffffffffffffffffffffffffff8114613fec5781811015613fdc578281836040517ffb8f41b2000000000000000000000000000000000000000000000000000000008152600401613fd39392919061684a565b60405180910390fd5b613feb848484840360006145f1565b5b50505050565b600073ffffffffffffffffffffffffffffffffffffffff168373ffffffffffffffffffffffffffffffffffffffff16036140645760006040517f96c6fd1e00000000000000000000000000000000000000000000000000000000815260040161405b9190615225565b60405180910390fd5b600073ffffffffffffffffffffffffffffffffffffffff168273ffffffffffffffffffffffffffffffffffffffff16036140d65760006040517fec442f050000000000000000000000000000000000000000000000000000000081526004016140cd9190615225565b60405180910390fd5b6140e18383836147c8565b505050565b6140f7816140f2613f44565b6149ed565b50565b60006141068383612b27565b6141e15760016005600085815260200190815260200160002060000160008473ffffffffffffffffffffffffffffffffffffffff1673ffffffffffffffffffffffffffffffffffffffff16815260200190815260200160002060006101000a81548160ff02191690831515021790555061417e613f44565b73ffffffffffffffffffffffffffffffffffffffff168273ffffffffffffffffffffffffffffffffffffffff16847f2f8788117e7eff1d82e926ec794901d17c78024a50270940304540a733656f0d60405160405180910390a4600190506141e6565b600090505b92915050565b60006141f88383612b27565b156142d45760006005600085815260200190815260200160002060000160008473ffffffffffffffffffffffffffffffffffffffff1673ffffffffffffffffffffffffffffffffffffffff16815260200190815260200160002060006101000a81548160ff021916908315150217905550614271613f44565b73ffffffffffffffffffffffffffffffffffffffff168273ffffffffffffffffffffffffffffffffffffffff16847ff6391f5c32d9c69d2a47ea670b442974b53935d1edc7fd64eb21e047a839171b60405160405180910390a4600190506142d9565b600090505b92915050565b600080600090505b602360008581526020019081526020016000208054905081101561439e578273ffffffffffffffffffffffffffffffffffffffff1660236000868152602001908152602001600020828154811061434157614340615b50565b5b9060005260206000200160009054906101000a900473ffffffffffffffffffffffffffffffffffffffff1673ffffffffffffffffffffffffffffffffffffffff16036143915760019150506143a4565b80806001019150506142e7565b50600090505b92915050565b600a8a111580156143bc5750600a8911155b80156143c95750600a8811155b80156143d65750600a8711155b80156143e35750600a8611155b80156143f05750600a8511155b80156143fd5750600a8411155b801561440a5750600a8311155b80156144175750600a8211155b80156144245750600a8111155b614463576040517f08c379a000000000000000000000000000000000000000000000000000000000815260040161445a906168cd565b60405180910390fd5b50505050505050505050565b60008160090154826008015483600701548460060154856005015486600401548760030154886002015489600101548a600001546144ad91906164f6565b6144b791906164f6565b6144c191906164f6565b6144cb91906164f6565b6144d591906164f6565b6144df91906164f6565b6144e991906164f6565b6144f391906164f6565b6144fd91906164f6565b9050919050565b60006064600f6b204fce5e3e250261100000006145219190615c0e565b61452b9190615c7f565b61453361385b565b8361453e91906164f6565b111561457f576040517f08c379a000000000000000000000000000000000000000000000000000000000815260040161457690616939565b60405180910390fd5b6145898383614a3e565b50816011600082825461459c91906164f6565b92505081905550818373ffffffffffffffffffffffffffffffffffffffff167fad6ef58d5c294f81258965738e7ae511124139834a8d0b8f8f7327086c82052a60405160405180910390a36001905092915050565b600073ffffffffffffffffffffffffffffffffffffffff168473ffffffffffffffffffffffffffffffffffffffff16036146635760006040517fe602df0500000000000000000000000000000000000000000000000000000000815260040161465a9190615225565b60405180910390fd5b600073ffffffffffffffffffffffffffffffffffffffff168373ffffffffffffffffffffffffffffffffffffffff16036146d55760006040517f94280d620000000000000000000000000000000000000000000000000000000081526004016146cc9190615225565b60405180910390fd5b81600160008673ffffffffffffffffffffffffffffffffffffffff1673ffffffffffffffffffffffffffffffffffffffff16815260200190815260200160002060008573ffffffffffffffffffffffffffffffffffffffff1673ffffffffffffffffffffffffffffffffffffffff1681526020019081526020016000208190555080156147c2578273ffffffffffffffffffffffffffffffffffffffff168473ffffffffffffffffffffffffffffffffffffffff167f8c5be1e5ebec7d5bd14f71427d1e84f3dd0314c0f7b2291e5b200ac8c7c3b925846040516147b991906150ca565b60405180910390a35b50505050565b600073ffffffffffffffffffffffffffffffffffffffff168373ffffffffffffffffffffffffffffffffffffffff160361481a57806002600082825461480e91906164f6565b925050819055506148ed565b60008060008573ffffffffffffffffffffffffffffffffffffffff1673ffffffffffffffffffffffffffffffffffffffff168152602001908152602001600020549050818110156148a6578381836040517fe450d38c00000000000000000000000000000000000000000000000000000000815260040161489d9392919061684a565b60405180910390fd5b8181036000808673ffffffffffffffffffffffffffffffffffffffff1673ffffffffffffffffffffffffffffffffffffffff16815260200190815260200160002081905550505b600073ffffffffffffffffffffffffffffffffffffffff168273ffffffffffffffffffffffffffffffffffffffff16036149365780600260008282540392505081905550614983565b806000808473ffffffffffffffffffffffffffffffffffffffff1673ffffffffffffffffffffffffffffffffffffffff168152602001908152602001600020600082825401925050819055505b8173ffffffffffffffffffffffffffffffffffffffff168373ffffffffffffffffffffffffffffffffffffffff167fddf252ad1be2c89b69c2b068fc378daa952ba7f163c4a11628f55a4df523b3ef836040516149e091906150ca565b60405180910390a3505050565b6149f78282612b27565b614a3a5780826040517fe2517d3f000000000000000000000000000000000000000000000000000000008152600401614a31929190616959565b60405180910390fd5b5050565b60006b204fce5e3e25026110000000614a556113b4565b83614a6091906164f6565b1115614aa1576040517f08c379a0000000000000000000000000000000000000000000000000000000008152600401614a9890616939565b60405180910390fd5b614aab8383614af9565b818373ffffffffffffffffffffffffffffffffffffffff167fcda531bfd68624f13205c0a23cd4d5a7f09792cbb399603114f2b04aaa1bf5cf60405160405180910390a36001905092915050565b600073ffffffffffffffffffffffffffffffffffffffff168273ffffffffffffffffffffffffffffffffffffffff1603614b6b5760006040517fec442f05000000000000000000000000000000000000000000000000000000008152600401614b629190615225565b60405180910390fd5b614b77600083836147c8565b5050565b60405180610100016040528060008152602001606081526020016060815260200160001515815260200160008152602001600073ffffffffffffffffffffffffffffffffffffffff168152602001600015158152602001606081525090565b5080546000825590600052602060002090810190614bf89190614c85565b50565b828054828255906000526020600020908101928215614c74579160200282015b82811115614c735782518260006101000a81548173ffffffffffffffffffffffffffffffffffffffff021916908373ffffffffffffffffffffffffffffffffffffffff16021790555091602001919060010190614c1b565b5b509050614c819190614c85565b5090565b5b80821115614c9e576000816000905550600101614c86565b5090565b6000604051905090565b600080fd5b600080fd5b60007fffffffff0000000000000000000000000000000000000000000000000000000082169050919050565b614ceb81614cb6565b8114614cf657600080fd5b50565b600081359050614d0881614ce2565b92915050565b600060208284031215614d2457614d23614cac565b5b6000614d3284828501614cf9565b91505092915050565b60008115159050919050565b614d5081614d3b565b82525050565b6000602082019050614d6b6000830184614d47565b92915050565b600081519050919050565b600082825260208201905092915050565b6000819050602082019050919050565b6000819050919050565b614db081614d9d565b82525050565b600081519050919050565b600082825260208201905092915050565b60005b83811015614df0578082015181840152602081019050614dd5565b60008484015250505050565b6000601f19601f8301169050919050565b6000614e1882614db6565b614e228185614dc1565b9350614e32818560208601614dd2565b614e3b81614dfc565b840191505092915050565b614e4f81614d3b565b82525050565b600073ffffffffffffffffffffffffffffffffffffffff82169050919050565b6000614e8082614e55565b9050919050565b614e9081614e75565b82525050565b600081519050919050565b600082825260208201905092915050565b6000819050602082019050919050565b6000614ece8383614e87565b60208301905092915050565b6000602082019050919050565b6000614ef282614e96565b614efc8185614ea1565b9350614f0783614eb2565b8060005b83811015614f38578151614f1f8882614ec2565b9750614f2a83614eda565b925050600181019050614f0b565b5085935050505092915050565b600061010083016000830151614f5e6000860182614da7565b5060208301518482036020860152614f768282614e0d565b91505060408301518482036040860152614f908282614e0d565b9150506060830151614fa56060860182614e46565b506080830151614fb86080860182614da7565b5060a0830151614fcb60a0860182614e87565b5060c0830151614fde60c0860182614e46565b5060e083015184820360e0860152614ff68282614ee7565b9150508091505092915050565b600061500f8383614f45565b905092915050565b6000602082019050919050565b600061502f82614d71565b6150398185614d7c565b93508360208202850161504b85614d8d565b8060005b8581101561508757848403895281516150688582615003565b945061507383615017565b925060208a0199505060018101905061504f565b50829750879550505050505092915050565b600060208201905081810360008301526150b38184615024565b905092915050565b6150c481614d9d565b82525050565b60006020820190506150df60008301846150bb565b92915050565b600082825260208201905092915050565b600061510182614db6565b61510b81856150e5565b935061511b818560208601614dd2565b61512481614dfc565b840191505092915050565b6000602082019050818103600083015261514981846150f6565b905092915050565b61515a81614e75565b811461516557600080fd5b50565b60008135905061517781615151565b92915050565b61518681614d9d565b811461519157600080fd5b50565b6000813590506151a38161517d565b92915050565b600080604083850312156151c0576151bf614cac565b5b60006151ce85828601615168565b92505060206151df85828601615194565b9150509250929050565b6000602082840312156151ff576151fe614cac565b5b600061520d84828501615194565b91505092915050565b61521f81614e75565b82525050565b600060208201905061523a6000830184615216565b92915050565b60008060006060848603121561525957615258614cac565b5b600061526786828701615168565b935050602061527886828701615168565b925050604061528986828701615194565b9150509250925092565b6000819050919050565b6152a681615293565b81146152b157600080fd5b50565b6000813590506152c38161529d565b92915050565b6000602082840312156152df576152de614cac565b5b60006152ed848285016152b4565b91505092915050565b6152ff81615293565b82525050565b600060208201905061531a60008301846152f6565b92915050565b600060808201905061533560008301876150bb565b61534260208301866150bb565b818103604083015261535481856150f6565b90506153636060830184614d47565b95945050505050565b600060e082019050615381600083018a6150bb565b818103602083015261539381896150f6565b905081810360408301526153a781886150f6565b90506153b66060830187614d47565b6153c360808301866150bb565b6153d060a0830185615216565b6153dd60c0830184614d47565b98975050505050505050565b600060c0820190506153fe60008301896150bb565b61540b60208301886150bb565b818103604083015261541d81876150f6565b9050818103606083015261543181866150f6565b905061544060808301856150bb565b61544d60a0830184614d47565b979650505050505050565b6000806040838503121561546f5761546e614cac565b5b600061547d858286016152b4565b925050602061548e85828601615168565b9150509250929050565b600060ff82169050919050565b6154ae81615498565b82525050565b60006020820190506154c960008301846154a5565b92915050565b60006060820190506154e460008301866150bb565b6154f160208301856150bb565b818103604083015261550381846150f6565b9050949350505050565b60006020828403121561552357615522614cac565b5b600061553184828501615168565b91505092915050565b600081519050919050565b600082825260208201905092915050565b60006155618261553a565b61556b8185615545565b935061557b818560208601614dd2565b61558481614dfc565b840191505092915050565b600060c0820190506155a460008301896150bb565b6155b16020830188615216565b6155be6040830187615216565b81810360608301526155d08186615556565b90506155df60808301856150bb565b6155ec60a0830184614d47565b979650505050505050565b6000806040838503121561560e5761560d614cac565b5b600061561c85828601615194565b925050602061562d85828601615194565b9150509250929050565b60008060008060008060008060008060006101608c8e03121561565d5761565c614cac565b5b600061566b8e828f01615194565b9b5050602061567c8e828f01615194565b9a5050604061568d8e828f01615194565b995050606061569e8e828f01615194565b98505060806156af8e828f01615194565b97505060a06156c08e828f01615194565b96505060c06156d18e828f01615194565b95505060e06156e28e828f01615194565b9450506101006156f48e828f01615194565b9350506101206157068e828f01615194565b9250506101406157188e828f01615194565b9150509295989b509295989b9093969950565b600080fd5b600080fd5b7f4e487b7100000000000000000000000000000000000000000000000000000000600052604160045260246000fd5b61576d82614dfc565b810181811067ffffffffffffffff8211171561578c5761578b615735565b5b80604052505050565b600061579f614ca2565b90506157ab8282615764565b919050565b600067ffffffffffffffff8211156157cb576157ca615735565b5b6157d482614dfc565b9050602081019050919050565b82818337600083830152505050565b60006158036157fe846157b0565b615795565b90508281526020810184848401111561581f5761581e615730565b5b61582a8482856157e1565b509392505050565b600082601f8301126158475761584661572b565b5b81356158578482602086016157f0565b91505092915050565b6000806040838503121561587757615876614cac565b5b600083013567ffffffffffffffff81111561589557615894614cb1565b5b6158a185828601615832565b925050602083013567ffffffffffffffff8111156158c2576158c1614cb1565b5b6158ce85828601615832565b9150509250929050565b600080604083850312156158ef576158ee614cac565b5b60006158fd85828601615194565b925050602061590e85828601615168565b9150509250929050565b60006101608201905061592e600083018e6150bb565b61593b602083018d6150bb565b615948604083018c6150bb565b615955606083018b6150bb565b615962608083018a6150bb565b61596f60a08301896150bb565b61597c60c08301886150bb565b61598960e08301876150bb565b6159976101008301866150bb565b6159a56101208301856150bb565b6159b3610140830184614d47565b9c9b505050505050505050505050565b600082825260208201905092915050565b60006159df82614e96565b6159e981856159c3565b93506159f483614eb2565b8060005b83811015615a25578151615a0c8882614ec2565b9750615a1783614eda565b9250506001810190506159f8565b5085935050505092915050565b60006020820190508181036000830152615a4c81846159d4565b905092915050565b60008060408385031215615a6b57615a6a614cac565b5b6000615a7985828601615168565b9250506020615a8a85828601615168565b9150509250929050565b7f4e487b7100000000000000000000000000000000000000000000000000000000600052602160045260246000fd5b60038110615ad457615ad3615a94565b5b50565b6000819050615ae582615ac3565b919050565b6000615af582615ad7565b9050919050565b615b0581615aea565b82525050565b6000606082019050615b206000830186615afc565b8181036020830152615b3281856150f6565b90508181036040830152615b4681846150f6565b9050949350505050565b7f4e487b7100000000000000000000000000000000000000000000000000000000600052603260045260246000fd5b7f4e487b7100000000000000000000000000000000000000000000000000000000600052602260045260246000fd5b60006002820490506001821680615bc657607f821691505b602082108103615bd957615bd8615b7f565b5b50919050565b7f4e487b7100000000000000000000000000000000000000000000000000000000600052601160045260246000fd5b6000615c1982614d9d565b9150615c2483614d9d565b9250828202615c3281614d9d565b91508282048414831517615c4957615c48615bdf565b5b5092915050565b7f4e487b7100000000000000000000000000000000000000000000000000000000600052601260045260246000fd5b6000615c8a82614d9d565b9150615c9583614d9d565b925082615ca557615ca4615c50565b5b828204905092915050565b7f4e6f742073656c6563746564206173206120726576696577657220666f72207460008201527f68697320636f7572736500000000000000000000000000000000000000000000602082015250565b6000615d0c602a836150e5565b9150615d1782615cb0565b604082019050919050565b60006020820190508181036000830152615d3b81615cff565b9050919050565b7f52657669657720616c7265616479207375626d6974746564206279207468697360008201527f2072657669657765722e00000000000000000000000000000000000000000000602082015250565b6000615d9e602a836150e5565b9150615da982615d42565b604082019050919050565b60006020820190508181036000830152615dcd81615d91565b9050919050565b7f416c726561647920696e20726576696577657220706f6f6c0000000000000000600082015250565b6000615e0a6018836150e5565b9150615e1582615dd4565b602082019050919050565b60006020820190508181036000830152615e3981615dfd565b9050919050565b7f436f7572736520616c726561647920617070726f766564000000000000000000600082015250565b6000615e766017836150e5565b9150615e8182615e40565b602082019050919050565b60006020820190508181036000830152615ea581615e69565b9050919050565b7f596f75206861766520616c726561647920617070726f7665642074686973206360008201527f6f75727365000000000000000000000000000000000000000000000000000000602082015250565b6000615f086025836150e5565b9150615f1382615eac565b604082019050919050565b60006020820190508181036000830152615f3781615efb565b9050919050565b6000615f4982614d9d565b91507fffffffffffffffffffffffffffffffffffffffffffffffffffffffffffffffff8203615f7b57615f7a615bdf565b5b600182019050919050565b7f52657669657765727320616c72656164792073656c6563746564000000000000600082015250565b6000615fbc601a836150e5565b9150615fc782615f86565b602082019050919050565b60006020820190508181036000830152615feb81615faf565b9050919050565b7f4e6f7420656e6f7567682072657669657765727320696e2074686520706f6f6c600082015250565b60006160286020836150e5565b915061603382615ff2565b602082019050919050565b600060208201905081810360008301526160578161601b565b9050919050565b6000819050919050565b61607961607482614d9d565b61605e565b82525050565b600061608b8287616068565b60208201915061609b8286616068565b6020820191506160ab8285616068565b6020820191506160bb8284616068565b60208201915081905095945050505050565b60006160d882614d9d565b91506160e383614d9d565b9250826160f3576160f2615c50565b5b828206905092915050565b600081549050919050565b60008190508160005260206000209050919050565b60008160001c9050919050565b600073ffffffffffffffffffffffffffffffffffffffff82169050919050565b600061615e6161598361611e565b61612b565b9050919050565b6000616171825461614b565b9050919050565b6000600182019050919050565b6000616190826160fe565b61619a81856159c3565b93506161a583616109565b8060005b838110156161dd576161ba82616165565b6161c48882614ec2565b97506161cf83616178565b9250506001810190506161a9565b5085935050505092915050565b600060208201905081810360008301526162048184616185565b905092915050565b7f436f7572736520494420616c7265616479206578697374730000000000000000600082015250565b60006162426018836150e5565b915061624d8261620c565b602082019050919050565b6000602082019050818103600083015261627181616235565b9050919050565b60008190508160005260206000209050919050565b60006020601f8301049050919050565b600082821b905092915050565b6000600883026162da7fffffffffffffffffffffffffffffffffffffffffffffffffffffffffffffffff8261629d565b6162e4868361629d565b95508019841693508086168417925050509392505050565b6000819050919050565b600061632161631c61631784614d9d565b6162fc565b614d9d565b9050919050565b6000819050919050565b61633b83616306565b61634f61634782616328565b8484546162aa565b825550505050565b600090565b616364616357565b61636f818484616332565b505050565b5b818110156163935761638860008261635c565b600181019050616375565b5050565b601f8211156163d8576163a981616278565b6163b28461628d565b810160208510156163c1578190505b6163d56163cd8561628d565b830182616374565b50505b505050565b600082821c905092915050565b60006163fb600019846008026163dd565b1980831691505092915050565b600061641483836163ea565b9150826002028217905092915050565b61642d82614db6565b67ffffffffffffffff81111561644657616445615735565b5b6164508254615bae565b61645b828285616397565b600060209050601f83116001811461648e576000841561647c578287015190505b6164868582616408565b8655506164ee565b601f19841661649c86616278565b60005b828110156164c45784890151825560018201915060208501945060208101905061649f565b868310156164e157848901516164dd601f8916826163ea565b8355505b6001600288020188555050505b505050505050565b600061650182614d9d565b915061650c83614d9d565b925082820190508082111561652457616523615bdf565b5b92915050565b600081905092915050565b600061654082614db6565b61654a818561652a565b935061655a818560208601614dd2565b80840191505092915050565b60006165728284616535565b915081905092915050565b600061658882614d9d565b915061659383614d9d565b92508282039050818111156165ab576165aa615bdf565b5b92915050565b7f50726f706f73616c20616c726561647920657865637574656400000000000000600082015250565b60006165e76019836150e5565b91506165f2826165b1565b602082019050919050565b60006020820190508181036000830152616616816165da565b9050919050565b7f416c726561647920617070726f76656400000000000000000000000000000000600082015250565b60006166536010836150e5565b915061665e8261661d565b602082019050919050565b6000602082019050818103600083015261668281616646565b9050919050565b600081905092915050565b60008190508160005260206000209050919050565b600081546166b681615bae565b6166c08186616689565b945060018216600081146166db57600181146166f057616723565b60ff1983168652811515820286019350616723565b6166f985616694565b60005b8381101561671b578154818901526001820191506020810190506166fc565b838801955050505b50505092915050565b600061673882846166a9565b915081905092915050565b7f50726f706f73616c20657865637574696f6e206661696c656400000000000000600082015250565b60006167796019836150e5565b915061678482616743565b602082019050919050565b600060208201905081810360008301526167a88161676c565b9050919050565b7f4e6f7420696e20726576696577657220706f6f6c000000000000000000000000600082015250565b60006167e56014836150e5565b91506167f0826167af565b602082019050919050565b60006020820190508181036000830152616814816167d8565b9050919050565b7f4e487b7100000000000000000000000000000000000000000000000000000000600052603160045260246000fd5b600060608201905061685f6000830186615216565b61686c60208301856150bb565b61687960408301846150bb565b949350505050565b7f53636f726573206d757374206265206265747765656e203120616e642031302e600082015250565b60006168b76020836150e5565b91506168c282616881565b602082019050919050565b600060208201905081810360008301526168e6816168aa565b9050919050565b7f4c696d6974204578636565646564210000000000000000000000000000000000600082015250565b6000616923600f836150e5565b915061692e826168ed565b602082019050919050565b6000602082019050818103600083015261695281616916565b9050919050565b600060408201905061696e6000830185615216565b61697b60208301846152f6565b939250505056fea26469706673582212206f3cfaa0cad6ef9776ad4d8208f447445fd5845fa518ce603d8698e33d782ffa64736f6c634300081b0033",
  "linkReferences": {},
  "deployedLinkReferences": {}
}