{
  "_format": "hh-sol-artifact-1",
  "contractName": "Ecosystem3Facet",
  "sourceName": "contracts/DiamondProxy/Ecosystem3Facet.sol",
  "abi": [
    {
      "inputs": [],
      "name": "ReentrancyGuardReentrantCall",
      "type": "error"
    },
    {
      "anonymous": false,
      "inputs": [
        {
          "indexed": false,
          "internalType": "uint256",
          "name": "certificateId",
          "type": "uint256"
        },
        {
          "indexed": false,
          "internalType": "string",
          "name": "courseName",
          "type": "string"
        },
        {
          "indexed": false,
          "internalType": "string",
          "name": "cert_issuer",
          "type": "string"
        },
        {
          "indexed": false,
          "internalType": "string",
          "name": "learner",
          "type": "string"
        }
      ],
      "name": "CertificateIssued",
      "type": "event"
    },
    {
      "anonymous": false,
      "inputs": [
        {
          "indexed": true,
          "internalType": "uint256",
          "name": "_courseId",
          "type": "uint256"
        },
        {
          "indexed": true,
          "internalType": "uint256",
          "name": "_chaterId",
          "type": "uint256"
        }
      ],
      "name": "ChapterDeletedSuccess",
      "type": "event"
    },
    {
      "anonymous": false,
      "inputs": [
        {
          "indexed": true,
          "internalType": "uint256",
          "name": "_courseId",
          "type": "uint256"
        },
        {
          "indexed": true,
          "internalType": "uint256",
          "name": "_chapterId",
          "type": "uint256"
        },
        {
          "indexed": false,
          "internalType": "string",
          "name": "_chapterName",
          "type": "string"
        }
      ],
      "name": "ChapterEdited",
      "type": "event"
    },
    {
      "anonymous": false,
      "inputs": [
        {
          "indexed": true,
          "internalType": "uint256",
          "name": "_courseId",
          "type": "uint256"
        },
        {
          "indexed": false,
          "internalType": "address",
          "name": "owner",
          "type": "address"
        }
      ],
      "name": "CourseDeleteSuccess",
      "type": "event"
    },
    {
      "anonymous": false,
      "inputs": [
        {
          "indexed": true,
          "internalType": "uint256",
          "name": "_courseId",
          "type": "uint256"
        },
        {
          "indexed": false,
          "internalType": "string",
          "name": "_courseName",
          "type": "string"
        }
      ],
      "name": "CourseEdited",
      "type": "event"
    },
    {
      "anonymous": false,
      "inputs": [
        {
          "indexed": true,
          "internalType": "address",
          "name": "_to",
          "type": "address"
        },
        {
          "indexed": true,
          "internalType": "uint256",
          "name": "_amount",
          "type": "uint256"
        }
      ],
      "name": "EcosystemPoolUpdate",
      "type": "event"
    },
    {
      "anonymous": false,
      "inputs": [
        {
          "indexed": true,
          "internalType": "uint256",
          "name": "_chapterId",
          "type": "uint256"
        },
        {
          "indexed": true,
          "internalType": "uint256",
          "name": "_lessonId",
          "type": "uint256"
        }
      ],
      "name": "LessonDeleted",
      "type": "event"
    },
    {
      "anonymous": false,
      "inputs": [
        {
          "indexed": true,
          "internalType": "uint256",
          "name": "_lessonId",
          "type": "uint256"
        },
        {
          "indexed": false,
          "internalType": "string",
          "name": "_lessonName",
          "type": "string"
        }
      ],
      "name": "LessonEdited",
      "type": "event"
    },
    {
      "anonymous": false,
      "inputs": [
        {
          "indexed": true,
          "internalType": "uint256",
          "name": "_quizId",
          "type": "uint256"
        },
        {
          "indexed": true,
          "internalType": "uint256",
          "name": "_questionId",
          "type": "uint256"
        }
      ],
      "name": "QuestionDeleted",
      "type": "event"
    },
    {
      "anonymous": false,
      "inputs": [
        {
          "indexed": true,
          "internalType": "uint256",
          "name": "_lessonId",
          "type": "uint256"
        },
        {
          "indexed": true,
          "internalType": "uint256",
          "name": "_quizId",
          "type": "uint256"
        }
      ],
      "name": "QuizDeleted",
      "type": "event"
    },
    {
      "anonymous": false,
      "inputs": [
        {
          "indexed": true,
          "internalType": "uint256",
          "name": "_lessonId",
          "type": "uint256"
        },
        {
          "indexed": true,
          "internalType": "uint256",
          "name": "_quizId",
          "type": "uint256"
        },
        {
          "indexed": false,
          "internalType": "string",
          "name": "_quizTitle",
          "type": "string"
        }
      ],
      "name": "QuizEdited",
      "type": "event"
    },
    {
      "anonymous": false,
      "inputs": [
        {
          "indexed": true,
          "internalType": "address",
          "name": "learner",
          "type": "address"
        },
        {
          "indexed": false,
          "internalType": "uint256",
          "name": "quizId",
          "type": "uint256"
        },
        {
          "indexed": false,
          "internalType": "uint256",
          "name": "score",
          "type": "uint256"
        }
      ],
      "name": "QuizSubmitted",
      "type": "event"
    },
    {
      "inputs": [],
      "name": "COURSE_COMPLETION_REWARD",
      "outputs": [
        {
          "internalType": "uint256",
          "name": "",
          "type": "uint256"
        }
      ],
      "stateMutability": "view",
      "type": "function"
    },
    {
      "inputs": [],
      "name": "QUIZ_COMPLETION_REWARD",
      "outputs": [
        {
          "internalType": "uint256",
          "name": "",
          "type": "uint256"
        }
      ],
      "stateMutability": "view",
      "type": "function"
    },
    {
      "inputs": [
        {
          "internalType": "address",
          "name": "_owner",
          "type": "address"
        }
      ],
      "name": "getCertificates",
      "outputs": [
        {
          "components": [
            {
              "internalType": "uint256",
              "name": "certId",
              "type": "uint256"
            },
            {
              "internalType": "uint256",
              "name": "courseId",
              "type": "uint256"
            },
            {
              "internalType": "string",
              "name": "learner",
              "type": "string"
            },
            {
              "internalType": "string",
              "name": "cert_issuer",
              "type": "string"
            },
            {
              "internalType": "uint256",
              "name": "issue_date",
              "type": "uint256"
            },
            {
              "internalType": "string",
              "name": "courseName",
              "type": "string"
            },
            {
              "internalType": "address",
              "name": "owner",
              "type": "address"
            }
          ],
          "internalType": "struct LibDiamond.Certificate[]",
          "name": "",
          "type": "tuple[]"
        }
      ],
      "stateMutability": "view",
      "type": "function"
    },
    {
      "inputs": [
        {
          "internalType": "uint256",
          "name": "_courseId",
          "type": "uint256"
        },
        {
          "internalType": "string",
          "name": "learner",
          "type": "string"
        },
        {
          "internalType": "string",
          "name": "courseName",
          "type": "string"
        },
        {
          "internalType": "string",
          "name": "cert_issuer",
          "type": "string"
        },
        {
          "internalType": "uint256",
          "name": "issue_date",
          "type": "uint256"
        }
      ],
      "name": "issueCertificate",
      "outputs": [
        {
          "internalType": "uint256",
          "name": "",
          "type": "uint256"
        },
        {
          "components": [
            {
              "internalType": "uint256",
              "name": "certId",
              "type": "uint256"
            },
            {
              "internalType": "uint256",
              "name": "courseId",
              "type": "uint256"
            },
            {
              "internalType": "string",
              "name": "learner",
              "type": "string"
            },
            {
              "internalType": "string",
              "name": "cert_issuer",
              "type": "string"
            },
            {
              "internalType": "uint256",
              "name": "issue_date",
              "type": "uint256"
            },
            {
              "internalType": "string",
              "name": "courseName",
              "type": "string"
            },
            {
              "internalType": "address",
              "name": "owner",
              "type": "address"
            }
          ],
          "internalType": "struct LibDiamond.Certificate",
          "name": "",
          "type": "tuple"
        }
      ],
      "stateMutability": "nonpayable",
      "type": "function"
    }
  ],
  "bytecode": "0x6080604052348015600f57600080fd5b506001600081905550611503806100276000396000f3fe608060405234801561001057600080fd5b506004361061004c5760003560e01c80634fb95abd146100515780637ce17852146100825780639560bc85146100a0578063f1c49c62146100be575b600080fd5b61006b60048036038101906100669190610aef565b6100ee565b604051610079929190610d46565b60405180910390f35b61008a61047b565b6040516100979190610d76565b60405180910390f35b6100a8610487565b6040516100b59190610d76565b60405180910390f35b6100d860048036038101906100d39190610dbd565b610493565b6040516100e59190610f56565b60405180910390f35b60006100f861090c565b60006101026108d0565b905080600001600089815260200190815260200160002060003373ffffffffffffffffffffffffffffffffffffffff1673ffffffffffffffffffffffffffffffffffffffff16815260200190815260200160002060009054906101000a900460ff16156101a4576040517f08c379a000000000000000000000000000000000000000000000000000000000815260040161019b90610fd5565b60405180910390fd5b60018160000160008a815260200190815260200160002060003373ffffffffffffffffffffffffffffffffffffffff1673ffffffffffffffffffffffffffffffffffffffff16815260200190815260200160002060006101000a81548160ff021916908315150217905550600088888888884260405160200161022c96959493929190611052565b6040516020818303038152906040528051906020012060001c905060006040518060e001604052808381526020018b81526020018a81526020018881526020018781526020018981526020013373ffffffffffffffffffffffffffffffffffffffff16815250905080836003016000848152602001908152602001600020600082015181600001556020820151816001015560408201518160020190816102d391906112c2565b5060608201518160030190816102e991906112c2565b506080820151816004015560a082015181600501908161030991906112c2565b5060c08201518160060160006101000a81548173ffffffffffffffffffffffffffffffffffffffff021916908373ffffffffffffffffffffffffffffffffffffffff16021790555090505082600401819080600181540180825580915050600190039060005260206000209060070201600090919091909150600082015181600001556020820151816001015560408201518160020190816103ab91906112c2565b5060608201518160030190816103c191906112c2565b506080820151816004015560a08201518160050190816103e191906112c2565b5060c08201518160060160006101000a81548173ffffffffffffffffffffffffffffffffffffffff021916908373ffffffffffffffffffffffffffffffffffffffff16021790555050507f95ad50d6596337460bdce4b8db70313463e0615be9266b573e781327aef44e098289898c60405161046094939291906113cd565b60405180910390a18181945094505050509550959350505050565b671bc16d674ec8000081565b670de0b6b3a764000081565b6060600061049f6108d0565b90506000805b826004018054905081101561054a578473ffffffffffffffffffffffffffffffffffffffff168360040182815481106104e1576104e0611427565b5b906000526020600020906007020160060160009054906101000a900473ffffffffffffffffffffffffffffffffffffffff1673ffffffffffffffffffffffffffffffffffffffff160361053d57818061053990611485565b9250505b80806001019150506104a5565b5060008167ffffffffffffffff811115610567576105666109c4565b5b6040519080825280602002602001820160405280156105a057816020015b61058d61090c565b8152602001906001900390816105855790505b5090506000805b84600401805490508110156108c3578673ffffffffffffffffffffffffffffffffffffffff168560040182815481106105e3576105e2611427565b5b906000526020600020906007020160060160009054906101000a900473ffffffffffffffffffffffffffffffffffffffff1673ffffffffffffffffffffffffffffffffffffffff16036108b65784600401818154811061064657610645611427565b5b90600052602060002090600702016040518060e00160405290816000820154815260200160018201548152602001600282018054610683906110e5565b80601f01602080910402602001604051908101604052809291908181526020018280546106af906110e5565b80156106fc5780601f106106d1576101008083540402835291602001916106fc565b820191906000526020600020905b8154815290600101906020018083116106df57829003601f168201915b50505050508152602001600382018054610715906110e5565b80601f0160208091040260200160405190810160405280929190818152602001828054610741906110e5565b801561078e5780601f106107635761010080835404028352916020019161078e565b820191906000526020600020905b81548152906001019060200180831161077157829003601f168201915b50505050508152602001600482015481526020016005820180546107b1906110e5565b80601f01602080910402602001604051908101604052809291908181526020018280546107dd906110e5565b801561082a5780601f106107ff5761010080835404028352916020019161082a565b820191906000526020600020905b81548152906001019060200180831161080d57829003601f168201915b505050505081526020016006820160009054906101000a900473ffffffffffffffffffffffffffffffffffffffff1673ffffffffffffffffffffffffffffffffffffffff1673ffffffffffffffffffffffffffffffffffffffff168152505083838151811061089c5761089b611427565b5b602002602001018190525081806108b290611485565b9250505b80806001019150506105a7565b5081945050505050919050565b60006108da6108df565b905090565b6000807f9678e342c7a34bfe5ad1b5d563e2e6bc8acab7b355ab22b43ab10176c7c41d7c90508091505090565b6040518060e00160405280600081526020016000815260200160608152602001606081526020016000815260200160608152602001600073ffffffffffffffffffffffffffffffffffffffff1681525090565b6000604051905090565b600080fd5b600080fd5b6000819050919050565b61098681610973565b811461099157600080fd5b50565b6000813590506109a38161097d565b92915050565b600080fd5b600080fd5b6000601f19601f8301169050919050565b7f4e487b7100000000000000000000000000000000000000000000000000000000600052604160045260246000fd5b6109fc826109b3565b810181811067ffffffffffffffff82111715610a1b57610a1a6109c4565b5b80604052505050565b6000610a2e61095f565b9050610a3a82826109f3565b919050565b600067ffffffffffffffff821115610a5a57610a596109c4565b5b610a63826109b3565b9050602081019050919050565b82818337600083830152505050565b6000610a92610a8d84610a3f565b610a24565b905082815260208101848484011115610aae57610aad6109ae565b5b610ab9848285610a70565b509392505050565b600082601f830112610ad657610ad56109a9565b5b8135610ae6848260208601610a7f565b91505092915050565b600080600080600060a08688031215610b0b57610b0a610969565b5b6000610b1988828901610994565b955050602086013567ffffffffffffffff811115610b3a57610b3961096e565b5b610b4688828901610ac1565b945050604086013567ffffffffffffffff811115610b6757610b6661096e565b5b610b7388828901610ac1565b935050606086013567ffffffffffffffff811115610b9457610b9361096e565b5b610ba088828901610ac1565b9250506080610bb188828901610994565b9150509295509295909350565b610bc781610973565b82525050565b610bd681610973565b82525050565b600081519050919050565b600082825260208201905092915050565b60005b83811015610c16578082015181840152602081019050610bfb565b60008484015250505050565b6000610c2d82610bdc565b610c378185610be7565b9350610c47818560208601610bf8565b610c50816109b3565b840191505092915050565b600073ffffffffffffffffffffffffffffffffffffffff82169050919050565b6000610c8682610c5b565b9050919050565b610c9681610c7b565b82525050565b600060e083016000830151610cb46000860182610bcd565b506020830151610cc76020860182610bcd565b5060408301518482036040860152610cdf8282610c22565b91505060608301518482036060860152610cf98282610c22565b9150506080830151610d0e6080860182610bcd565b5060a083015184820360a0860152610d268282610c22565b91505060c0830151610d3b60c0860182610c8d565b508091505092915050565b6000604082019050610d5b6000830185610bbe565b8181036020830152610d6d8184610c9c565b90509392505050565b6000602082019050610d8b6000830184610bbe565b92915050565b610d9a81610c7b565b8114610da557600080fd5b50565b600081359050610db781610d91565b92915050565b600060208284031215610dd357610dd2610969565b5b6000610de184828501610da8565b91505092915050565b600081519050919050565b600082825260208201905092915050565b6000819050602082019050919050565b600060e083016000830151610e2e6000860182610bcd565b506020830151610e416020860182610bcd565b5060408301518482036040860152610e598282610c22565b91505060608301518482036060860152610e738282610c22565b9150506080830151610e886080860182610bcd565b5060a083015184820360a0860152610ea08282610c22565b91505060c0830151610eb560c0860182610c8d565b508091505092915050565b6000610ecc8383610e16565b905092915050565b6000602082019050919050565b6000610eec82610dea565b610ef68185610df5565b935083602082028501610f0885610e06565b8060005b85811015610f445784840389528151610f258582610ec0565b9450610f3083610ed4565b925060208a01995050600181019050610f0c565b50829750879550505050505092915050565b60006020820190508181036000830152610f708184610ee1565b905092915050565b600082825260208201905092915050565b7f416c726561647920636f6d706c65746564207468697320636f75727365000000600082015250565b6000610fbf601d83610f78565b9150610fca82610f89565b602082019050919050565b60006020820190508181036000830152610fee81610fb2565b9050919050565b6000819050919050565b61101061100b82610973565b610ff5565b82525050565b600081905092915050565b600061102c82610bdc565b6110368185611016565b9350611046818560208601610bf8565b80840191505092915050565b600061105e8289610fff565b60208201915061106e8288611021565b915061107a8287611021565b91506110868286611021565b91506110928285610fff565b6020820191506110a28284610fff565b602082019150819050979650505050505050565b7f4e487b7100000000000000000000000000000000000000000000000000000000600052602260045260246000fd5b600060028204905060018216806110fd57607f821691505b6020821081036111105761110f6110b6565b5b50919050565b60008190508160005260206000209050919050565b60006020601f8301049050919050565b600082821b905092915050565b6000600883026111787fffffffffffffffffffffffffffffffffffffffffffffffffffffffffffffffff8261113b565b611182868361113b565b95508019841693508086168417925050509392505050565b6000819050919050565b60006111bf6111ba6111b584610973565b61119a565b610973565b9050919050565b6000819050919050565b6111d9836111a4565b6111ed6111e5826111c6565b848454611148565b825550505050565b600090565b6112026111f5565b61120d8184846111d0565b505050565b5b81811015611231576112266000826111fa565b600181019050611213565b5050565b601f8211156112765761124781611116565b6112508461112b565b8101602085101561125f578190505b61127361126b8561112b565b830182611212565b50505b505050565b600082821c905092915050565b60006112996000198460080261127b565b1980831691505092915050565b60006112b28383611288565b9150826002028217905092915050565b6112cb82610bdc565b67ffffffffffffffff8111156112e4576112e36109c4565b5b6112ee82546110e5565b6112f9828285611235565b600060209050601f83116001811461132c576000841561131a578287015190505b61132485826112a6565b86555061138c565b601f19841661133a86611116565b60005b828110156113625784890151825560018201915060208501945060208101905061133d565b8683101561137f578489015161137b601f891682611288565b8355505b6001600288020188555050505b505050505050565b600061139f82610bdc565b6113a98185610f78565b93506113b9818560208601610bf8565b6113c2816109b3565b840191505092915050565b60006080820190506113e26000830187610bbe565b81810360208301526113f48186611394565b905081810360408301526114088185611394565b9050818103606083015261141c8184611394565b905095945050505050565b7f4e487b7100000000000000000000000000000000000000000000000000000000600052603260045260246000fd5b7f4e487b7100000000000000000000000000000000000000000000000000000000600052601160045260246000fd5b600061149082610973565b91507fffffffffffffffffffffffffffffffffffffffffffffffffffffffffffffffff82036114c2576114c1611456565b5b60018201905091905056fea26469706673582212207e03a4d764dc8a03a0853a8f2fd764a8af1dec9262e1bc2b005ab1f2c284726f64736f6c634300081b0033",
  "linkReferences": {},
  "deployedLinkReferences": {}
}