{
  "_format": "hh-sol-artifact-1",
  "contractName": "Ecosystem3Facet",
  "sourceName": "contracts/DiamondProxy/Ecosystem3Facet.sol",
  "abi": [
    {
      "inputs": [],
      "name": "ReentrancyGuardReentrantCall",
      "type": "error"
    },
    {
      "anonymous": false,
      "inputs": [
        {
          "indexed": false,
          "internalType": "uint256",
          "name": "certificateId",
          "type": "uint256"
        },
        {
          "indexed": false,
          "internalType": "string",
          "name": "courseName",
          "type": "string"
        },
        {
          "indexed": false,
          "internalType": "string",
          "name": "cert_issuer",
          "type": "string"
        },
        {
          "indexed": false,
          "internalType": "string",
          "name": "learner",
          "type": "string"
        }
      ],
      "name": "CertificateIssued",
      "type": "event"
    },
    {
      "anonymous": false,
      "inputs": [
        {
          "indexed": true,
          "internalType": "uint256",
          "name": "_courseId",
          "type": "uint256"
        },
        {
          "indexed": true,
          "internalType": "uint256",
          "name": "_chaterId",
          "type": "uint256"
        }
      ],
      "name": "ChapterDeletedSuccess",
      "type": "event"
    },
    {
      "anonymous": false,
      "inputs": [
        {
          "indexed": true,
          "internalType": "uint256",
          "name": "_courseId",
          "type": "uint256"
        },
        {
          "indexed": true,
          "internalType": "uint256",
          "name": "_chapterId",
          "type": "uint256"
        },
        {
          "indexed": false,
          "internalType": "string",
          "name": "_chapterName",
          "type": "string"
        }
      ],
      "name": "ChapterEdited",
      "type": "event"
    },
    {
      "anonymous": false,
      "inputs": [
        {
          "indexed": true,
          "internalType": "uint256",
          "name": "_courseId",
          "type": "uint256"
        },
        {
          "indexed": false,
          "internalType": "address",
          "name": "owner",
          "type": "address"
        }
      ],
      "name": "CourseDeleteSuccess",
      "type": "event"
    },
    {
      "anonymous": false,
      "inputs": [
        {
          "indexed": true,
          "internalType": "uint256",
          "name": "_courseId",
          "type": "uint256"
        },
        {
          "indexed": false,
          "internalType": "string",
          "name": "_courseName",
          "type": "string"
        }
      ],
      "name": "CourseEdited",
      "type": "event"
    },
    {
      "anonymous": false,
      "inputs": [
        {
          "indexed": true,
          "internalType": "address",
          "name": "_to",
          "type": "address"
        },
        {
          "indexed": true,
          "internalType": "uint256",
          "name": "_amount",
          "type": "uint256"
        }
      ],
      "name": "EcosystemPoolUpdate",
      "type": "event"
    },
    {
      "anonymous": false,
      "inputs": [
        {
          "indexed": true,
          "internalType": "uint256",
          "name": "_chapterId",
          "type": "uint256"
        },
        {
          "indexed": true,
          "internalType": "uint256",
          "name": "_lessonId",
          "type": "uint256"
        }
      ],
      "name": "LessonDeleted",
      "type": "event"
    },
    {
      "anonymous": false,
      "inputs": [
        {
          "indexed": true,
          "internalType": "uint256",
          "name": "_lessonId",
          "type": "uint256"
        },
        {
          "indexed": false,
          "internalType": "string",
          "name": "_lessonName",
          "type": "string"
        }
      ],
      "name": "LessonEdited",
      "type": "event"
    },
    {
      "anonymous": false,
      "inputs": [
        {
          "indexed": true,
          "internalType": "uint256",
          "name": "_quizId",
          "type": "uint256"
        },
        {
          "indexed": true,
          "internalType": "uint256",
          "name": "_questionId",
          "type": "uint256"
        }
      ],
      "name": "QuestionDeleted",
      "type": "event"
    },
    {
      "anonymous": false,
      "inputs": [
        {
          "indexed": true,
          "internalType": "uint256",
          "name": "_lessonId",
          "type": "uint256"
        },
        {
          "indexed": true,
          "internalType": "uint256",
          "name": "_quizId",
          "type": "uint256"
        }
      ],
      "name": "QuizDeleted",
      "type": "event"
    },
    {
      "anonymous": false,
      "inputs": [
        {
          "indexed": true,
          "internalType": "uint256",
          "name": "_lessonId",
          "type": "uint256"
        },
        {
          "indexed": true,
          "internalType": "uint256",
          "name": "_quizId",
          "type": "uint256"
        },
        {
          "indexed": false,
          "internalType": "string",
          "name": "_quizTitle",
          "type": "string"
        }
      ],
      "name": "QuizEdited",
      "type": "event"
    },
    {
      "anonymous": false,
      "inputs": [
        {
          "indexed": true,
          "internalType": "address",
          "name": "learner",
          "type": "address"
        },
        {
          "indexed": false,
          "internalType": "uint256",
          "name": "quizId",
          "type": "uint256"
        },
        {
          "indexed": false,
          "internalType": "uint256",
          "name": "score",
          "type": "uint256"
        }
      ],
      "name": "QuizSubmitted",
      "type": "event"
    },
    {
      "inputs": [],
      "name": "COURSE_COMPLETION_REWARD",
      "outputs": [
        {
          "internalType": "uint256",
          "name": "",
          "type": "uint256"
        }
      ],
      "stateMutability": "view",
      "type": "function"
    },
    {
      "inputs": [],
      "name": "QUIZ_COMPLETION_REWARD",
      "outputs": [
        {
          "internalType": "uint256",
          "name": "",
          "type": "uint256"
        }
      ],
      "stateMutability": "view",
      "type": "function"
    },
    {
      "inputs": [
        {
          "internalType": "uint256",
          "name": "_courseId",
          "type": "uint256"
        },
        {
          "internalType": "string",
          "name": "learner",
          "type": "string"
        },
        {
          "internalType": "string",
          "name": "courseName",
          "type": "string"
        },
        {
          "internalType": "string",
          "name": "cert_issuer",
          "type": "string"
        },
        {
          "internalType": "uint256",
          "name": "issue_date",
          "type": "uint256"
        }
      ],
      "name": "issueCertificate",
      "outputs": [
        {
          "internalType": "uint256",
          "name": "",
          "type": "uint256"
        },
        {
          "components": [
            {
              "internalType": "uint256",
              "name": "certId",
              "type": "uint256"
            },
            {
              "internalType": "uint256",
              "name": "courseId",
              "type": "uint256"
            },
            {
              "internalType": "string",
              "name": "learner",
              "type": "string"
            },
            {
              "internalType": "string",
              "name": "cert_issuer",
              "type": "string"
            },
            {
              "internalType": "uint256",
              "name": "issue_date",
              "type": "uint256"
            },
            {
              "internalType": "string",
              "name": "courseName",
              "type": "string"
            },
            {
              "internalType": "address",
              "name": "owner",
              "type": "address"
            }
          ],
          "internalType": "struct LibDiamond.Certificate",
          "name": "",
          "type": "tuple"
        }
      ],
      "stateMutability": "nonpayable",
      "type": "function"
    }
  ],
  "bytecode": "0x6080604052348015600f57600080fd5b506001600081905550610fd0806100276000396000f3fe608060405234801561001057600080fd5b50600436106100415760003560e01c80634fb95abd146100465780637ce17852146100775780639560bc8514610095575b600080fd5b610060600480360381019061005b91906106d8565b6100b3565b60405161006e92919061092f565b60405180910390f35b61007f61037c565b60405161008c919061095f565b60405180910390f35b61009d610388565b6040516100aa919061095f565b60405180910390f35b60006100bd6104f5565b60006100c7610394565b905080600001600089815260200190815260200160002060003373ffffffffffffffffffffffffffffffffffffffff1673ffffffffffffffffffffffffffffffffffffffff16815260200190815260200160002060009054906101000a900460ff1615610169576040517f08c379a0000000000000000000000000000000000000000000000000000000008152600401610160906109d7565b60405180910390fd5b60018160000160008a815260200190815260200160002060003373ffffffffffffffffffffffffffffffffffffffff1673ffffffffffffffffffffffffffffffffffffffff16815260200190815260200160002060006101000a81548160ff0219169083151502179055506101e633671bc16d674ec800006103a3565b50600088888888884260405160200161020496959493929190610a54565b6040516020818303038152906040528051906020012060001c905060006040518060e001604052808381526020018b81526020018a81526020018881526020018781526020018981526020013373ffffffffffffffffffffffffffffffffffffffff16815250905080836003016000848152602001908152602001600020600082015181600001556020820151816001015560408201518160020190816102ab9190610cc4565b5060608201518160030190816102c19190610cc4565b506080820151816004015560a08201518160050190816102e19190610cc4565b5060c08201518160060160006101000a81548173ffffffffffffffffffffffffffffffffffffffff021916908373ffffffffffffffffffffffffffffffffffffffff1602179055509050507f95ad50d6596337460bdce4b8db70313463e0615be9266b573e781327aef44e098289898c6040516103619493929190610dcf565b60405180910390a18181945094505050509550959350505050565b671bc16d674ec8000081565b670de0b6b3a764000081565b600061039e61049b565b905090565b6000806103ae6104c8565b90506064600f6b204fce5e3e250261100000006103cb9190610e58565b6103d59190610ec9565b8160000154846103e59190610efa565b1115610426576040517f08c379a000000000000000000000000000000000000000000000000000000000815260040161041d90610f7a565b60405180910390fd5b61043084846103a3565b50828160000160008282546104459190610efa565b92505081905550828473ffffffffffffffffffffffffffffffffffffffff167fad6ef58d5c294f81258965738e7ae511124139834a8d0b8f8f7327086c82052a60405160405180910390a3600191505092915050565b6000807f9678e342c7a34bfe5ad1b5d563e2e6bc8acab7b355ab22b43ab10176c7c41d7c90508091505090565b6000807f5d9ab6191fe9d5041816fb24ec4281e2d3989236339577e7fbbaf91315a1bb7190508091505090565b6040518060e00160405280600081526020016000815260200160608152602001606081526020016000815260200160608152602001600073ffffffffffffffffffffffffffffffffffffffff1681525090565b6000604051905090565b600080fd5b600080fd5b6000819050919050565b61056f8161055c565b811461057a57600080fd5b50565b60008135905061058c81610566565b92915050565b600080fd5b600080fd5b6000601f19601f8301169050919050565b7f4e487b7100000000000000000000000000000000000000000000000000000000600052604160045260246000fd5b6105e58261059c565b810181811067ffffffffffffffff82111715610604576106036105ad565b5b80604052505050565b6000610617610548565b905061062382826105dc565b919050565b600067ffffffffffffffff821115610643576106426105ad565b5b61064c8261059c565b9050602081019050919050565b82818337600083830152505050565b600061067b61067684610628565b61060d565b90508281526020810184848401111561069757610696610597565b5b6106a2848285610659565b509392505050565b600082601f8301126106bf576106be610592565b5b81356106cf848260208601610668565b91505092915050565b600080600080600060a086880312156106f4576106f3610552565b5b60006107028882890161057d565b955050602086013567ffffffffffffffff81111561072357610722610557565b5b61072f888289016106aa565b945050604086013567ffffffffffffffff8111156107505761074f610557565b5b61075c888289016106aa565b935050606086013567ffffffffffffffff81111561077d5761077c610557565b5b610789888289016106aa565b925050608061079a8882890161057d565b9150509295509295909350565b6107b08161055c565b82525050565b6107bf8161055c565b82525050565b600081519050919050565b600082825260208201905092915050565b60005b838110156107ff5780820151818401526020810190506107e4565b60008484015250505050565b6000610816826107c5565b61082081856107d0565b93506108308185602086016107e1565b6108398161059c565b840191505092915050565b600073ffffffffffffffffffffffffffffffffffffffff82169050919050565b600061086f82610844565b9050919050565b61087f81610864565b82525050565b600060e08301600083015161089d60008601826107b6565b5060208301516108b060208601826107b6565b50604083015184820360408601526108c8828261080b565b915050606083015184820360608601526108e2828261080b565b91505060808301516108f760808601826107b6565b5060a083015184820360a086015261090f828261080b565b91505060c083015161092460c0860182610876565b508091505092915050565b600060408201905061094460008301856107a7565b81810360208301526109568184610885565b90509392505050565b600060208201905061097460008301846107a7565b92915050565b600082825260208201905092915050565b7f416c726561647920636f6d706c65746564207468697320636f75727365000000600082015250565b60006109c1601d8361097a565b91506109cc8261098b565b602082019050919050565b600060208201905081810360008301526109f0816109b4565b9050919050565b6000819050919050565b610a12610a0d8261055c565b6109f7565b82525050565b600081905092915050565b6000610a2e826107c5565b610a388185610a18565b9350610a488185602086016107e1565b80840191505092915050565b6000610a608289610a01565b602082019150610a708288610a23565b9150610a7c8287610a23565b9150610a888286610a23565b9150610a948285610a01565b602082019150610aa48284610a01565b602082019150819050979650505050505050565b7f4e487b7100000000000000000000000000000000000000000000000000000000600052602260045260246000fd5b60006002820490506001821680610aff57607f821691505b602082108103610b1257610b11610ab8565b5b50919050565b60008190508160005260206000209050919050565b60006020601f8301049050919050565b600082821b905092915050565b600060088302610b7a7fffffffffffffffffffffffffffffffffffffffffffffffffffffffffffffffff82610b3d565b610b848683610b3d565b95508019841693508086168417925050509392505050565b6000819050919050565b6000610bc1610bbc610bb78461055c565b610b9c565b61055c565b9050919050565b6000819050919050565b610bdb83610ba6565b610bef610be782610bc8565b848454610b4a565b825550505050565b600090565b610c04610bf7565b610c0f818484610bd2565b505050565b5b81811015610c3357610c28600082610bfc565b600181019050610c15565b5050565b601f821115610c7857610c4981610b18565b610c5284610b2d565b81016020851015610c61578190505b610c75610c6d85610b2d565b830182610c14565b50505b505050565b600082821c905092915050565b6000610c9b60001984600802610c7d565b1980831691505092915050565b6000610cb48383610c8a565b9150826002028217905092915050565b610ccd826107c5565b67ffffffffffffffff811115610ce657610ce56105ad565b5b610cf08254610ae7565b610cfb828285610c37565b600060209050601f831160018114610d2e5760008415610d1c578287015190505b610d268582610ca8565b865550610d8e565b601f198416610d3c86610b18565b60005b82811015610d6457848901518255600182019150602085019450602081019050610d3f565b86831015610d815784890151610d7d601f891682610c8a565b8355505b6001600288020188555050505b505050505050565b6000610da1826107c5565b610dab818561097a565b9350610dbb8185602086016107e1565b610dc48161059c565b840191505092915050565b6000608082019050610de460008301876107a7565b8181036020830152610df68186610d96565b90508181036040830152610e0a8185610d96565b90508181036060830152610e1e8184610d96565b905095945050505050565b7f4e487b7100000000000000000000000000000000000000000000000000000000600052601160045260246000fd5b6000610e638261055c565b9150610e6e8361055c565b9250828202610e7c8161055c565b91508282048414831517610e9357610e92610e29565b5b5092915050565b7f4e487b7100000000000000000000000000000000000000000000000000000000600052601260045260246000fd5b6000610ed48261055c565b9150610edf8361055c565b925082610eef57610eee610e9a565b5b828204905092915050565b6000610f058261055c565b9150610f108361055c565b9250828201905080821115610f2857610f27610e29565b5b92915050565b7f4c696d6974204578636565646564210000000000000000000000000000000000600082015250565b6000610f64600f8361097a565b9150610f6f82610f2e565b602082019050919050565b60006020820190508181036000830152610f9381610f57565b905091905056fea26469706673582212203a7c1a7451f0e9832237f76ec53eee1b31dbbf9a4b94db0153be38180f3cf1f764736f6c634300081b0033",
  "linkReferences": {},
  "deployedLinkReferences": {}
}