{
  "_format": "hh-sol-artifact-1",
  "contractName": "Ecosystem3",
  "sourceName": "contracts/Ecosystem Contracts/Ecosystem3.sol",
  "abi": [
    {
      "inputs": [
        {
          "internalType": "address[]",
          "name": "_reviewers",
          "type": "address[]"
        }
      ],
      "stateMutability": "nonpayable",
      "type": "constructor"
    },
    {
      "inputs": [],
      "name": "AccessControlBadConfirmation",
      "type": "error"
    },
    {
      "inputs": [
        {
          "internalType": "address",
          "name": "account",
          "type": "address"
        },
        {
          "internalType": "bytes32",
          "name": "neededRole",
          "type": "bytes32"
        }
      ],
      "name": "AccessControlUnauthorizedAccount",
      "type": "error"
    },
    {
      "inputs": [
        {
          "internalType": "address",
          "name": "spender",
          "type": "address"
        },
        {
          "internalType": "uint256",
          "name": "allowance",
          "type": "uint256"
        },
        {
          "internalType": "uint256",
          "name": "needed",
          "type": "uint256"
        }
      ],
      "name": "ERC20InsufficientAllowance",
      "type": "error"
    },
    {
      "inputs": [
        {
          "internalType": "address",
          "name": "sender",
          "type": "address"
        },
        {
          "internalType": "uint256",
          "name": "balance",
          "type": "uint256"
        },
        {
          "internalType": "uint256",
          "name": "needed",
          "type": "uint256"
        }
      ],
      "name": "ERC20InsufficientBalance",
      "type": "error"
    },
    {
      "inputs": [
        {
          "internalType": "address",
          "name": "approver",
          "type": "address"
        }
      ],
      "name": "ERC20InvalidApprover",
      "type": "error"
    },
    {
      "inputs": [
        {
          "internalType": "address",
          "name": "receiver",
          "type": "address"
        }
      ],
      "name": "ERC20InvalidReceiver",
      "type": "error"
    },
    {
      "inputs": [
        {
          "internalType": "address",
          "name": "sender",
          "type": "address"
        }
      ],
      "name": "ERC20InvalidSender",
      "type": "error"
    },
    {
      "inputs": [
        {
          "internalType": "address",
          "name": "spender",
          "type": "address"
        }
      ],
      "name": "ERC20InvalidSpender",
      "type": "error"
    },
    {
      "inputs": [],
      "name": "ReentrancyGuardReentrantCall",
      "type": "error"
    },
    {
      "anonymous": false,
      "inputs": [
        {
          "indexed": true,
          "internalType": "address",
          "name": "owner",
          "type": "address"
        },
        {
          "indexed": true,
          "internalType": "address",
          "name": "spender",
          "type": "address"
        },
        {
          "indexed": false,
          "internalType": "uint256",
          "name": "value",
          "type": "uint256"
        }
      ],
      "name": "Approval",
      "type": "event"
    },
    {
      "anonymous": false,
      "inputs": [
        {
          "indexed": true,
          "internalType": "address",
          "name": "_account",
          "type": "address"
        },
        {
          "indexed": false,
          "internalType": "uint256",
          "name": "_amount",
          "type": "uint256"
        }
      ],
      "name": "BurnSuccess",
      "type": "event"
    },
    {
      "anonymous": false,
      "inputs": [
        {
          "indexed": false,
          "internalType": "uint256",
          "name": "certificateId",
          "type": "uint256"
        },
        {
          "indexed": false,
          "internalType": "string",
          "name": "courseName",
          "type": "string"
        },
        {
          "indexed": false,
          "internalType": "string",
          "name": "cert_issuer",
          "type": "string"
        },
        {
          "indexed": false,
          "internalType": "string",
          "name": "learner",
          "type": "string"
        }
      ],
      "name": "CertificateIssued",
      "type": "event"
    },
    {
      "anonymous": false,
      "inputs": [
        {
          "indexed": true,
          "internalType": "uint256",
          "name": "_courseId",
          "type": "uint256"
        },
        {
          "indexed": true,
          "internalType": "uint256",
          "name": "_chaterId",
          "type": "uint256"
        }
      ],
      "name": "ChapterDeletedSuccess",
      "type": "event"
    },
    {
      "anonymous": false,
      "inputs": [
        {
          "indexed": true,
          "internalType": "uint256",
          "name": "_courseId",
          "type": "uint256"
        },
        {
          "indexed": true,
          "internalType": "uint256",
          "name": "_chapterId",
          "type": "uint256"
        },
        {
          "indexed": false,
          "internalType": "string",
          "name": "_chapterName",
          "type": "string"
        }
      ],
      "name": "ChapterEdited",
      "type": "event"
    },
    {
      "anonymous": false,
      "inputs": [
        {
          "indexed": true,
          "internalType": "uint256",
          "name": "_courseId",
          "type": "uint256"
        },
        {
          "indexed": true,
          "internalType": "uint256",
          "name": "numberOfChapters",
          "type": "uint256"
        }
      ],
      "name": "ChaptersAddedSuccessfully",
      "type": "event"
    },
    {
      "anonymous": false,
      "inputs": [
        {
          "indexed": false,
          "internalType": "uint256",
          "name": "questionId",
          "type": "uint256"
        },
        {
          "indexed": false,
          "internalType": "uint256",
          "name": "choiceId",
          "type": "uint256"
        },
        {
          "indexed": false,
          "internalType": "string",
          "name": "option",
          "type": "string"
        }
      ],
      "name": "ChoiceAdded",
      "type": "event"
    },
    {
      "anonymous": false,
      "inputs": [
        {
          "indexed": true,
          "internalType": "uint256",
          "name": "_courseID",
          "type": "uint256"
        },
        {
          "indexed": true,
          "internalType": "string",
          "name": "_courseName",
          "type": "string"
        },
        {
          "indexed": false,
          "internalType": "bool",
          "name": "_approved",
          "type": "bool"
        }
      ],
      "name": "CourseCreationSuccess",
      "type": "event"
    },
    {
      "anonymous": false,
      "inputs": [
        {
          "indexed": true,
          "internalType": "uint256",
          "name": "_courseId",
          "type": "uint256"
        },
        {
          "indexed": false,
          "internalType": "address",
          "name": "owner",
          "type": "address"
        }
      ],
      "name": "CourseDeleteSuccess",
      "type": "event"
    },
    {
      "anonymous": false,
      "inputs": [
        {
          "indexed": true,
          "internalType": "uint256",
          "name": "_courseId",
          "type": "uint256"
        },
        {
          "indexed": false,
          "internalType": "string",
          "name": "_courseName",
          "type": "string"
        }
      ],
      "name": "CourseEdited",
      "type": "event"
    },
    {
      "anonymous": false,
      "inputs": [
        {
          "indexed": true,
          "internalType": "address",
          "name": "_to",
          "type": "address"
        },
        {
          "indexed": true,
          "internalType": "uint256",
          "name": "_amount",
          "type": "uint256"
        }
      ],
      "name": "EcosystemPoolUpdate",
      "type": "event"
    },
    {
      "anonymous": false,
      "inputs": [
        {
          "indexed": true,
          "internalType": "uint256",
          "name": "_courseId",
          "type": "uint256"
        },
        {
          "indexed": true,
          "internalType": "address",
          "name": "_by",
          "type": "address"
        }
      ],
      "name": "EnrollmentSuccess",
      "type": "event"
    },
    {
      "anonymous": false,
      "inputs": [
        {
          "indexed": true,
          "internalType": "uint256",
          "name": "_lessonId",
          "type": "uint256"
        },
        {
          "indexed": true,
          "internalType": "string",
          "name": "_lessonName",
          "type": "string"
        },
        {
          "indexed": true,
          "internalType": "uint256",
          "name": "_additonalResources",
          "type": "uint256"
        }
      ],
      "name": "LessonCreationSuccess",
      "type": "event"
    },
    {
      "anonymous": false,
      "inputs": [
        {
          "indexed": true,
          "internalType": "uint256",
          "name": "_chapterId",
          "type": "uint256"
        },
        {
          "indexed": true,
          "internalType": "uint256",
          "name": "_lessonId",
          "type": "uint256"
        }
      ],
      "name": "LessonDeleted",
      "type": "event"
    },
    {
      "anonymous": false,
      "inputs": [
        {
          "indexed": true,
          "internalType": "uint256",
          "name": "_lessonId",
          "type": "uint256"
        },
        {
          "indexed": false,
          "internalType": "string",
          "name": "_lessonName",
          "type": "string"
        }
      ],
      "name": "LessonEdited",
      "type": "event"
    },
    {
      "anonymous": false,
      "inputs": [
        {
          "indexed": true,
          "internalType": "uint256",
          "name": "_chapterId",
          "type": "uint256"
        },
        {
          "indexed": true,
          "internalType": "uint256",
          "name": "_lessonId",
          "type": "uint256"
        },
        {
          "indexed": false,
          "internalType": "address",
          "name": "learner",
          "type": "address"
        }
      ],
      "name": "LessonMarkedAsRead",
      "type": "event"
    },
    {
      "anonymous": false,
      "inputs": [
        {
          "indexed": true,
          "internalType": "address",
          "name": "_to",
          "type": "address"
        },
        {
          "indexed": true,
          "internalType": "uint256",
          "name": "_amount",
          "type": "uint256"
        }
      ],
      "name": "MintSuccess",
      "type": "event"
    },
    {
      "anonymous": false,
      "inputs": [
        {
          "indexed": true,
          "internalType": "uint256",
          "name": "proposalId",
          "type": "uint256"
        },
        {
          "indexed": false,
          "internalType": "address",
          "name": "approver",
          "type": "address"
        }
      ],
      "name": "MultiSigProposalApproved",
      "type": "event"
    },
    {
      "anonymous": false,
      "inputs": [
        {
          "indexed": true,
          "internalType": "uint256",
          "name": "proposalId",
          "type": "uint256"
        },
        {
          "indexed": false,
          "internalType": "address",
          "name": "proposer",
          "type": "address"
        }
      ],
      "name": "MultiSigProposalCreated",
      "type": "event"
    },
    {
      "anonymous": false,
      "inputs": [
        {
          "indexed": true,
          "internalType": "uint256",
          "name": "proposalId",
          "type": "uint256"
        }
      ],
      "name": "MultiSigProposalExecuted",
      "type": "event"
    },
    {
      "anonymous": false,
      "inputs": [
        {
          "indexed": false,
          "internalType": "uint256",
          "name": "quizId",
          "type": "uint256"
        },
        {
          "indexed": false,
          "internalType": "uint256",
          "name": "questionId",
          "type": "uint256"
        },
        {
          "indexed": false,
          "internalType": "string",
          "name": "questionText",
          "type": "string"
        }
      ],
      "name": "QuestionAdded",
      "type": "event"
    },
    {
      "anonymous": false,
      "inputs": [
        {
          "indexed": true,
          "internalType": "uint256",
          "name": "_quizId",
          "type": "uint256"
        },
        {
          "indexed": true,
          "internalType": "uint256",
          "name": "_questionId",
          "type": "uint256"
        }
      ],
      "name": "QuestionDeleted",
      "type": "event"
    },
    {
      "anonymous": false,
      "inputs": [
        {
          "indexed": true,
          "internalType": "uint256",
          "name": "_quizId",
          "type": "uint256"
        },
        {
          "indexed": true,
          "internalType": "string",
          "name": "_title",
          "type": "string"
        }
      ],
      "name": "QuizCreatedSuccess",
      "type": "event"
    },
    {
      "anonymous": false,
      "inputs": [
        {
          "indexed": true,
          "internalType": "uint256",
          "name": "_lessonId",
          "type": "uint256"
        },
        {
          "indexed": true,
          "internalType": "uint256",
          "name": "_quizId",
          "type": "uint256"
        }
      ],
      "name": "QuizDeleted",
      "type": "event"
    },
    {
      "anonymous": false,
      "inputs": [
        {
          "indexed": true,
          "internalType": "uint256",
          "name": "_lessonId",
          "type": "uint256"
        },
        {
          "indexed": true,
          "internalType": "uint256",
          "name": "_quizId",
          "type": "uint256"
        },
        {
          "indexed": false,
          "internalType": "string",
          "name": "_quizTitle",
          "type": "string"
        }
      ],
      "name": "QuizEdited",
      "type": "event"
    },
    {
      "anonymous": false,
      "inputs": [
        {
          "indexed": true,
          "internalType": "address",
          "name": "learner",
          "type": "address"
        },
        {
          "indexed": false,
          "internalType": "uint256",
          "name": "quizId",
          "type": "uint256"
        },
        {
          "indexed": false,
          "internalType": "uint256",
          "name": "score",
          "type": "uint256"
        }
      ],
      "name": "QuizSubmitted",
      "type": "event"
    },
    {
      "anonymous": false,
      "inputs": [
        {
          "indexed": true,
          "internalType": "uint256",
          "name": "_lessonId",
          "type": "uint256"
        },
        {
          "indexed": true,
          "internalType": "uint256",
          "name": "resourceCount",
          "type": "uint256"
        }
      ],
      "name": "ResourceAddSuccess",
      "type": "event"
    },
    {
      "anonymous": false,
      "inputs": [
        {
          "indexed": true,
          "internalType": "address",
          "name": "reviewer",
          "type": "address"
        }
      ],
      "name": "ReviewerAddedToPool",
      "type": "event"
    },
    {
      "anonymous": false,
      "inputs": [
        {
          "indexed": true,
          "internalType": "address",
          "name": "reviewer",
          "type": "address"
        }
      ],
      "name": "ReviewerRemovedFromPool",
      "type": "event"
    },
    {
      "anonymous": false,
      "inputs": [
        {
          "indexed": true,
          "internalType": "uint256",
          "name": "courseId",
          "type": "uint256"
        },
        {
          "indexed": false,
          "internalType": "address[]",
          "name": "reviewers",
          "type": "address[]"
        }
      ],
      "name": "ReviewersSelected",
      "type": "event"
    },
    {
      "anonymous": false,
      "inputs": [
        {
          "indexed": true,
          "internalType": "bytes32",
          "name": "role",
          "type": "bytes32"
        },
        {
          "indexed": true,
          "internalType": "bytes32",
          "name": "previousAdminRole",
          "type": "bytes32"
        },
        {
          "indexed": true,
          "internalType": "bytes32",
          "name": "newAdminRole",
          "type": "bytes32"
        }
      ],
      "name": "RoleAdminChanged",
      "type": "event"
    },
    {
      "anonymous": false,
      "inputs": [
        {
          "indexed": true,
          "internalType": "bytes32",
          "name": "role",
          "type": "bytes32"
        },
        {
          "indexed": true,
          "internalType": "address",
          "name": "account",
          "type": "address"
        },
        {
          "indexed": true,
          "internalType": "address",
          "name": "sender",
          "type": "address"
        }
      ],
      "name": "RoleGranted",
      "type": "event"
    },
    {
      "anonymous": false,
      "inputs": [
        {
          "indexed": true,
          "internalType": "bytes32",
          "name": "role",
          "type": "bytes32"
        },
        {
          "indexed": true,
          "internalType": "address",
          "name": "account",
          "type": "address"
        },
        {
          "indexed": true,
          "internalType": "address",
          "name": "sender",
          "type": "address"
        }
      ],
      "name": "RoleRevoked",
      "type": "event"
    },
    {
      "anonymous": false,
      "inputs": [
        {
          "indexed": true,
          "internalType": "address",
          "name": "from",
          "type": "address"
        },
        {
          "indexed": true,
          "internalType": "address",
          "name": "to",
          "type": "address"
        },
        {
          "indexed": false,
          "internalType": "uint256",
          "name": "value",
          "type": "uint256"
        }
      ],
      "name": "Transfer",
      "type": "event"
    },
    {
      "anonymous": false,
      "inputs": [
        {
          "indexed": true,
          "internalType": "uint256",
          "name": "_courseId",
          "type": "uint256"
        },
        {
          "indexed": true,
          "internalType": "address",
          "name": "_by",
          "type": "address"
        }
      ],
      "name": "unEnrollmentSuccess",
      "type": "event"
    },
    {
      "inputs": [],
      "name": "COURSE_COMPLETION_REWARD",
      "outputs": [
        {
          "internalType": "uint256",
          "name": "",
          "type": "uint256"
        }
      ],
      "stateMutability": "view",
      "type": "function"
    },
    {
      "inputs": [],
      "name": "COURSE_OWNER_ROLE",
      "outputs": [
        {
          "internalType": "bytes32",
          "name": "",
          "type": "bytes32"
        }
      ],
      "stateMutability": "view",
      "type": "function"
    },
    {
      "inputs": [],
      "name": "CREATE_COURSE_REWARD",
      "outputs": [
        {
          "internalType": "uint256",
          "name": "",
          "type": "uint256"
        }
      ],
      "stateMutability": "view",
      "type": "function"
    },
    {
      "inputs": [],
      "name": "DEFAULT_ADMIN_ROLE",
      "outputs": [
        {
          "internalType": "bytes32",
          "name": "",
          "type": "bytes32"
        }
      ],
      "stateMutability": "view",
      "type": "function"
    },
    {
      "inputs": [],
      "name": "ECOSYSTEM_POOL",
      "outputs": [
        {
          "internalType": "uint256",
          "name": "",
          "type": "uint256"
        }
      ],
      "stateMutability": "view",
      "type": "function"
    },
    {
      "inputs": [],
      "name": "ENROLLMENT_REWARD",
      "outputs": [
        {
          "internalType": "uint256",
          "name": "",
          "type": "uint256"
        }
      ],
      "stateMutability": "view",
      "type": "function"
    },
    {
      "inputs": [],
      "name": "MAX_SCORE",
      "outputs": [
        {
          "internalType": "uint256",
          "name": "",
          "type": "uint256"
        }
      ],
      "stateMutability": "view",
      "type": "function"
    },
    {
      "inputs": [],
      "name": "MAX_SUPPLY",
      "outputs": [
        {
          "internalType": "uint256",
          "name": "",
          "type": "uint256"
        }
      ],
      "stateMutability": "view",
      "type": "function"
    },
    {
      "inputs": [],
      "name": "MIN_APPROVAL_SCORE",
      "outputs": [
        {
          "internalType": "uint256",
          "name": "",
          "type": "uint256"
        }
      ],
      "stateMutability": "view",
      "type": "function"
    },
    {
      "inputs": [],
      "name": "MULTISIG_APPROVER",
      "outputs": [
        {
          "internalType": "bytes32",
          "name": "",
          "type": "bytes32"
        }
      ],
      "stateMutability": "view",
      "type": "function"
    },
    {
      "inputs": [],
      "name": "QUIZ_COMPLETION_REWARD",
      "outputs": [
        {
          "internalType": "uint256",
          "name": "",
          "type": "uint256"
        }
      ],
      "stateMutability": "view",
      "type": "function"
    },
    {
      "inputs": [],
      "name": "REQUIRED_APPROVALS",
      "outputs": [
        {
          "internalType": "uint256",
          "name": "",
          "type": "uint256"
        }
      ],
      "stateMutability": "view",
      "type": "function"
    },
    {
      "inputs": [],
      "name": "REVIEWER_ROLE",
      "outputs": [
        {
          "internalType": "bytes32",
          "name": "",
          "type": "bytes32"
        }
      ],
      "stateMutability": "view",
      "type": "function"
    },
    {
      "inputs": [
        {
          "internalType": "address",
          "name": "",
          "type": "address"
        }
      ],
      "name": "accountCourses",
      "outputs": [
        {
          "internalType": "uint256",
          "name": "courseCount",
          "type": "uint256"
        }
      ],
      "stateMutability": "view",
      "type": "function"
    },
    {
      "inputs": [
        {
          "internalType": "uint256",
          "name": "_courseId",
          "type": "uint256"
        },
        {
          "internalType": "string[]",
          "name": "_chapters",
          "type": "string[]"
        },
        {
          "internalType": "uint256[]",
          "name": "_durations",
          "type": "uint256[]"
        }
      ],
      "name": "addChapters",
      "outputs": [
        {
          "internalType": "bool",
          "name": "",
          "type": "bool"
        }
      ],
      "stateMutability": "nonpayable",
      "type": "function"
    },
    {
      "inputs": [
        {
          "internalType": "uint256",
          "name": "_chapterId",
          "type": "uint256"
        },
        {
          "internalType": "string",
          "name": "_lessonName",
          "type": "string"
        },
        {
          "internalType": "string",
          "name": "_lessonContent",
          "type": "string"
        }
      ],
      "name": "addLesson",
      "outputs": [],
      "stateMutability": "nonpayable",
      "type": "function"
    },
    {
      "inputs": [
        {
          "internalType": "uint256",
          "name": "_lessonId",
          "type": "uint256"
        },
        {
          "internalType": "enum Ecosystem.ContentType",
          "name": "contentType",
          "type": "uint8"
        },
        {
          "components": [
            {
              "internalType": "enum Ecosystem.ContentType",
              "name": "contentType",
              "type": "uint8"
            },
            {
              "internalType": "string",
              "name": "url",
              "type": "string"
            },
            {
              "internalType": "string",
              "name": "name",
              "type": "string"
            }
          ],
          "internalType": "struct Ecosystem.Resource[]",
          "name": "_resources",
          "type": "tuple[]"
        }
      ],
      "name": "addResourcesToLesson",
      "outputs": [],
      "stateMutability": "nonpayable",
      "type": "function"
    },
    {
      "inputs": [
        {
          "internalType": "address",
          "name": "newReviewer",
          "type": "address"
        }
      ],
      "name": "addReviewer",
      "outputs": [],
      "stateMutability": "nonpayable",
      "type": "function"
    },
    {
      "inputs": [
        {
          "internalType": "address",
          "name": "owner",
          "type": "address"
        },
        {
          "internalType": "address",
          "name": "spender",
          "type": "address"
        }
      ],
      "name": "allowance",
      "outputs": [
        {
          "internalType": "uint256",
          "name": "",
          "type": "uint256"
        }
      ],
      "stateMutability": "view",
      "type": "function"
    },
    {
      "inputs": [
        {
          "internalType": "address",
          "name": "",
          "type": "address"
        },
        {
          "internalType": "uint256",
          "name": "",
          "type": "uint256"
        }
      ],
      "name": "approvals",
      "outputs": [
        {
          "internalType": "bool",
          "name": "",
          "type": "bool"
        }
      ],
      "stateMutability": "view",
      "type": "function"
    },
    {
      "inputs": [
        {
          "internalType": "address",
          "name": "spender",
          "type": "address"
        },
        {
          "internalType": "uint256",
          "name": "value",
          "type": "uint256"
        }
      ],
      "name": "approve",
      "outputs": [
        {
          "internalType": "bool",
          "name": "",
          "type": "bool"
        }
      ],
      "stateMutability": "nonpayable",
      "type": "function"
    },
    {
      "inputs": [
        {
          "internalType": "uint256",
          "name": "_courseId",
          "type": "uint256"
        }
      ],
      "name": "approveCourse",
      "outputs": [],
      "stateMutability": "nonpayable",
      "type": "function"
    },
    {
      "inputs": [
        {
          "internalType": "uint256",
          "name": "_proposalId",
          "type": "uint256"
        }
      ],
      "name": "approveMultiSigProposal",
      "outputs": [],
      "stateMutability": "nonpayable",
      "type": "function"
    },
    {
      "inputs": [
        {
          "internalType": "address",
          "name": "account",
          "type": "address"
        }
      ],
      "name": "balanceOf",
      "outputs": [
        {
          "internalType": "uint256",
          "name": "",
          "type": "uint256"
        }
      ],
      "stateMutability": "view",
      "type": "function"
    },
    {
      "inputs": [
        {
          "internalType": "uint256",
          "name": "",
          "type": "uint256"
        }
      ],
      "name": "certificates",
      "outputs": [
        {
          "internalType": "uint256",
          "name": "certId",
          "type": "uint256"
        },
        {
          "internalType": "uint256",
          "name": "courseId",
          "type": "uint256"
        },
        {
          "internalType": "string",
          "name": "learner",
          "type": "string"
        },
        {
          "internalType": "string",
          "name": "cert_issuer",
          "type": "string"
        },
        {
          "internalType": "uint256",
          "name": "issue_date",
          "type": "uint256"
        },
        {
          "internalType": "string",
          "name": "courseName",
          "type": "string"
        },
        {
          "internalType": "address",
          "name": "owner",
          "type": "address"
        }
      ],
      "stateMutability": "view",
      "type": "function"
    },
    {
      "inputs": [
        {
          "internalType": "uint256",
          "name": "",
          "type": "uint256"
        }
      ],
      "name": "chapter",
      "outputs": [
        {
          "internalType": "uint256",
          "name": "courseId",
          "type": "uint256"
        },
        {
          "internalType": "uint256",
          "name": "chapterId",
          "type": "uint256"
        },
        {
          "internalType": "string",
          "name": "chapterName",
          "type": "string"
        },
        {
          "internalType": "uint256",
          "name": "duration",
          "type": "uint256"
        },
        {
          "internalType": "bool",
          "name": "exists",
          "type": "bool"
        }
      ],
      "stateMutability": "view",
      "type": "function"
    },
    {
      "inputs": [
        {
          "internalType": "uint256",
          "name": "",
          "type": "uint256"
        },
        {
          "internalType": "uint256",
          "name": "",
          "type": "uint256"
        }
      ],
      "name": "chapterLessons",
      "outputs": [
        {
          "internalType": "string",
          "name": "",
          "type": "string"
        }
      ],
      "stateMutability": "view",
      "type": "function"
    },
    {
      "inputs": [
        {
          "internalType": "uint256",
          "name": "",
          "type": "uint256"
        },
        {
          "internalType": "address",
          "name": "",
          "type": "address"
        }
      ],
      "name": "completedQuizzes",
      "outputs": [
        {
          "internalType": "bool",
          "name": "",
          "type": "bool"
        }
      ],
      "stateMutability": "view",
      "type": "function"
    },
    {
      "inputs": [
        {
          "internalType": "uint256",
          "name": "",
          "type": "uint256"
        },
        {
          "internalType": "uint256",
          "name": "",
          "type": "uint256"
        }
      ],
      "name": "courseChapters",
      "outputs": [
        {
          "internalType": "uint256",
          "name": "courseId",
          "type": "uint256"
        },
        {
          "internalType": "uint256",
          "name": "chapterId",
          "type": "uint256"
        },
        {
          "internalType": "string",
          "name": "chapterName",
          "type": "string"
        },
        {
          "internalType": "uint256",
          "name": "duration",
          "type": "uint256"
        },
        {
          "internalType": "bool",
          "name": "exists",
          "type": "bool"
        }
      ],
      "stateMutability": "view",
      "type": "function"
    },
    {
      "inputs": [
        {
          "internalType": "uint256",
          "name": "",
          "type": "uint256"
        },
        {
          "internalType": "address",
          "name": "",
          "type": "address"
        }
      ],
      "name": "courseCompleted",
      "outputs": [
        {
          "internalType": "bool",
          "name": "",
          "type": "bool"
        }
      ],
      "stateMutability": "view",
      "type": "function"
    },
    {
      "inputs": [],
      "name": "courseCount",
      "outputs": [
        {
          "internalType": "uint256",
          "name": "",
          "type": "uint256"
        }
      ],
      "stateMutability": "view",
      "type": "function"
    },
    {
      "inputs": [
        {
          "internalType": "uint256",
          "name": "",
          "type": "uint256"
        }
      ],
      "name": "courseObject",
      "outputs": [
        {
          "internalType": "uint256",
          "name": "courseId",
          "type": "uint256"
        },
        {
          "internalType": "string",
          "name": "courseName",
          "type": "string"
        },
        {
          "internalType": "string",
          "name": "description",
          "type": "string"
        },
        {
          "internalType": "bool",
          "name": "approved",
          "type": "bool"
        },
        {
          "internalType": "uint256",
          "name": "approvalCount",
          "type": "uint256"
        },
        {
          "internalType": "address",
          "name": "creator",
          "type": "address"
        },
        {
          "internalType": "bool",
          "name": "exists",
          "type": "bool"
        },
        {
          "internalType": "enum Ecosystem.DifficultyLevel",
          "name": "difficultyLevel",
          "type": "uint8"
        }
      ],
      "stateMutability": "view",
      "type": "function"
    },
    {
      "inputs": [
        {
          "internalType": "uint256",
          "name": "",
          "type": "uint256"
        }
      ],
      "name": "courseReviewInitiated",
      "outputs": [
        {
          "internalType": "bool",
          "name": "",
          "type": "bool"
        }
      ],
      "stateMutability": "view",
      "type": "function"
    },
    {
      "inputs": [
        {
          "internalType": "uint256",
          "name": "",
          "type": "uint256"
        },
        {
          "internalType": "uint256",
          "name": "",
          "type": "uint256"
        }
      ],
      "name": "courseReviewers",
      "outputs": [
        {
          "internalType": "address",
          "name": "",
          "type": "address"
        }
      ],
      "stateMutability": "view",
      "type": "function"
    },
    {
      "inputs": [
        {
          "internalType": "string",
          "name": "_courseName",
          "type": "string"
        },
        {
          "internalType": "string",
          "name": "_description",
          "type": "string"
        },
        {
          "internalType": "enum Ecosystem.DifficultyLevel",
          "name": "_difficultyLevel",
          "type": "uint8"
        }
      ],
      "name": "createCourse",
      "outputs": [
        {
          "internalType": "bool",
          "name": "",
          "type": "bool"
        }
      ],
      "stateMutability": "nonpayable",
      "type": "function"
    },
    {
      "inputs": [
        {
          "internalType": "uint256",
          "name": "_quizId",
          "type": "uint256"
        },
        {
          "internalType": "string",
          "name": "_questionText",
          "type": "string"
        },
        {
          "internalType": "string[]",
          "name": "_options",
          "type": "string[]"
        },
        {
          "internalType": "uint8",
          "name": "_correctChoiceIndex",
          "type": "uint8"
        }
      ],
      "name": "createQuestionWithChoices",
      "outputs": [],
      "stateMutability": "nonpayable",
      "type": "function"
    },
    {
      "inputs": [
        {
          "internalType": "uint256",
          "name": "_lessonId",
          "type": "uint256"
        },
        {
          "internalType": "string",
          "name": "_title",
          "type": "string"
        }
      ],
      "name": "createQuiz",
      "outputs": [
        {
          "internalType": "uint256",
          "name": "",
          "type": "uint256"
        }
      ],
      "stateMutability": "nonpayable",
      "type": "function"
    },
    {
      "inputs": [],
      "name": "decimals",
      "outputs": [
        {
          "internalType": "uint8",
          "name": "",
          "type": "uint8"
        }
      ],
      "stateMutability": "view",
      "type": "function"
    },
    {
      "inputs": [
        {
          "internalType": "uint256",
          "name": "_courseId",
          "type": "uint256"
        },
        {
          "internalType": "uint256",
          "name": "_chapterId",
          "type": "uint256"
        }
      ],
      "name": "deleteChapter",
      "outputs": [
        {
          "internalType": "bool",
          "name": "",
          "type": "bool"
        }
      ],
      "stateMutability": "nonpayable",
      "type": "function"
    },
    {
      "inputs": [
        {
          "internalType": "uint256",
          "name": "_courseId",
          "type": "uint256"
        }
      ],
      "name": "deleteCourse",
      "outputs": [
        {
          "internalType": "bool",
          "name": "",
          "type": "bool"
        }
      ],
      "stateMutability": "nonpayable",
      "type": "function"
    },
    {
      "inputs": [
        {
          "internalType": "uint256",
          "name": "_chapterId",
          "type": "uint256"
        },
        {
          "internalType": "uint256",
          "name": "_lessonId",
          "type": "uint256"
        }
      ],
      "name": "deleteLesson",
      "outputs": [
        {
          "internalType": "bool",
          "name": "",
          "type": "bool"
        }
      ],
      "stateMutability": "nonpayable",
      "type": "function"
    },
    {
      "inputs": [
        {
          "internalType": "uint256",
          "name": "_quizId",
          "type": "uint256"
        },
        {
          "internalType": "uint256",
          "name": "_questionId",
          "type": "uint256"
        }
      ],
      "name": "deleteQuestion",
      "outputs": [
        {
          "internalType": "bool",
          "name": "",
          "type": "bool"
        }
      ],
      "stateMutability": "nonpayable",
      "type": "function"
    },
    {
      "inputs": [
        {
          "internalType": "uint256",
          "name": "_lessonId",
          "type": "uint256"
        },
        {
          "internalType": "uint256",
          "name": "_quizId",
          "type": "uint256"
        }
      ],
      "name": "deleteQuiz",
      "outputs": [
        {
          "internalType": "bool",
          "name": "",
          "type": "bool"
        }
      ],
      "stateMutability": "nonpayable",
      "type": "function"
    },
    {
      "inputs": [],
      "name": "ecosystemPoolSupply",
      "outputs": [
        {
          "internalType": "uint256",
          "name": "",
          "type": "uint256"
        }
      ],
      "stateMutability": "view",
      "type": "function"
    },
    {
      "inputs": [
        {
          "internalType": "uint256",
          "name": "_courseId",
          "type": "uint256"
        },
        {
          "internalType": "uint256",
          "name": "_chapterId",
          "type": "uint256"
        },
        {
          "internalType": "string",
          "name": "_chapterName",
          "type": "string"
        }
      ],
      "name": "editChapter",
      "outputs": [
        {
          "internalType": "bool",
          "name": "",
          "type": "bool"
        }
      ],
      "stateMutability": "nonpayable",
      "type": "function"
    },
    {
      "inputs": [
        {
          "internalType": "uint256",
          "name": "_courseId",
          "type": "uint256"
        },
        {
          "internalType": "string",
          "name": "_courseName",
          "type": "string"
        }
      ],
      "name": "editCourse",
      "outputs": [
        {
          "internalType": "bool",
          "name": "",
          "type": "bool"
        }
      ],
      "stateMutability": "nonpayable",
      "type": "function"
    },
    {
      "inputs": [
        {
          "internalType": "uint256",
          "name": "_lessonId",
          "type": "uint256"
        },
        {
          "internalType": "string",
          "name": "_lessonName",
          "type": "string"
        },
        {
          "internalType": "string",
          "name": "_lessonContent",
          "type": "string"
        },
        {
          "components": [
            {
              "internalType": "enum Ecosystem.ContentType",
              "name": "contentType",
              "type": "uint8"
            },
            {
              "internalType": "string",
              "name": "url",
              "type": "string"
            },
            {
              "internalType": "string",
              "name": "name",
              "type": "string"
            }
          ],
          "internalType": "struct Ecosystem.Resource[]",
          "name": "_additionalResources",
          "type": "tuple[]"
        }
      ],
      "name": "editLesson",
      "outputs": [
        {
          "internalType": "bool",
          "name": "",
          "type": "bool"
        }
      ],
      "stateMutability": "nonpayable",
      "type": "function"
    },
    {
      "inputs": [
        {
          "internalType": "uint256",
          "name": "_lessonId",
          "type": "uint256"
        },
        {
          "internalType": "uint256",
          "name": "_quizId",
          "type": "uint256"
        },
        {
          "internalType": "string",
          "name": "_quizTitle",
          "type": "string"
        }
      ],
      "name": "editQuiz",
      "outputs": [],
      "stateMutability": "nonpayable",
      "type": "function"
    },
    {
      "inputs": [
        {
          "internalType": "uint256",
          "name": "_courseId",
          "type": "uint256"
        }
      ],
      "name": "enroll",
      "outputs": [
        {
          "internalType": "bool",
          "name": "",
          "type": "bool"
        }
      ],
      "stateMutability": "nonpayable",
      "type": "function"
    },
    {
      "inputs": [],
      "name": "getAllChapters",
      "outputs": [
        {
          "components": [
            {
              "internalType": "uint256",
              "name": "courseId",
              "type": "uint256"
            },
            {
              "internalType": "uint256",
              "name": "chapterId",
              "type": "uint256"
            },
            {
              "internalType": "string",
              "name": "chapterName",
              "type": "string"
            },
            {
              "internalType": "uint256",
              "name": "duration",
              "type": "uint256"
            },
            {
              "internalType": "bool",
              "name": "exists",
              "type": "bool"
            }
          ],
          "internalType": "struct Ecosystem.Chapter[]",
          "name": "",
          "type": "tuple[]"
        }
      ],
      "stateMutability": "view",
      "type": "function"
    },
    {
      "inputs": [],
      "name": "getAllCourses",
      "outputs": [
        {
          "components": [
            {
              "internalType": "uint256",
              "name": "courseId",
              "type": "uint256"
            },
            {
              "internalType": "string",
              "name": "courseName",
              "type": "string"
            },
            {
              "internalType": "string",
              "name": "description",
              "type": "string"
            },
            {
              "internalType": "bool",
              "name": "approved",
              "type": "bool"
            },
            {
              "internalType": "uint256",
              "name": "approvalCount",
              "type": "uint256"
            },
            {
              "internalType": "address",
              "name": "creator",
              "type": "address"
            },
            {
              "internalType": "bool",
              "name": "exists",
              "type": "bool"
            },
            {
              "internalType": "address[]",
              "name": "enrolledStudents",
              "type": "address[]"
            },
            {
              "internalType": "enum Ecosystem.DifficultyLevel",
              "name": "difficultyLevel",
              "type": "uint8"
            }
          ],
          "internalType": "struct Ecosystem.Course[]",
          "name": "",
          "type": "tuple[]"
        }
      ],
      "stateMutability": "view",
      "type": "function"
    },
    {
      "inputs": [],
      "name": "getAllLessons",
      "outputs": [
        {
          "components": [
            {
              "internalType": "uint256",
              "name": "chapterId",
              "type": "uint256"
            },
            {
              "internalType": "uint256",
              "name": "lessonId",
              "type": "uint256"
            },
            {
              "internalType": "string",
              "name": "lessonName",
              "type": "string"
            },
            {
              "internalType": "string",
              "name": "lessonContent",
              "type": "string"
            },
            {
              "components": [
                {
                  "internalType": "enum Ecosystem.ContentType",
                  "name": "contentType",
                  "type": "uint8"
                },
                {
                  "internalType": "string",
                  "name": "url",
                  "type": "string"
                },
                {
                  "internalType": "string",
                  "name": "name",
                  "type": "string"
                }
              ],
              "internalType": "struct Ecosystem.Resource[10]",
              "name": "additionalResources",
              "type": "tuple[10]"
            },
            {
              "internalType": "uint256",
              "name": "resourceCount",
              "type": "uint256"
            },
            {
              "internalType": "bool",
              "name": "exists",
              "type": "bool"
            }
          ],
          "internalType": "struct Ecosystem.Lesson[]",
          "name": "",
          "type": "tuple[]"
        }
      ],
      "stateMutability": "view",
      "type": "function"
    },
    {
      "inputs": [],
      "name": "getAllQuizzes",
      "outputs": [
        {
          "components": [
            {
              "internalType": "uint256",
              "name": "lessonId",
              "type": "uint256"
            },
            {
              "internalType": "uint256",
              "name": "quizId",
              "type": "uint256"
            },
            {
              "internalType": "string",
              "name": "quizTitle",
              "type": "string"
            },
            {
              "components": [
                {
                  "internalType": "uint256",
                  "name": "quizId",
                  "type": "uint256"
                },
                {
                  "internalType": "uint256",
                  "name": "questionId",
                  "type": "uint256"
                },
                {
                  "internalType": "string",
                  "name": "questionText",
                  "type": "string"
                },
                {
                  "components": [
                    {
                      "internalType": "string",
                      "name": "option",
                      "type": "string"
                    },
                    {
                      "internalType": "bool",
                      "name": "isCorrect",
                      "type": "bool"
                    }
                  ],
                  "internalType": "struct Ecosystem.Choice[]",
                  "name": "choices",
                  "type": "tuple[]"
                }
              ],
              "internalType": "struct Ecosystem.Question[]",
              "name": "questions",
              "type": "tuple[]"
            },
            {
              "internalType": "bool",
              "name": "exists",
              "type": "bool"
            }
          ],
          "internalType": "struct Ecosystem.Quiz[]",
          "name": "",
          "type": "tuple[]"
        }
      ],
      "stateMutability": "view",
      "type": "function"
    },
    {
      "inputs": [
        {
          "internalType": "uint256",
          "name": "_courseId",
          "type": "uint256"
        }
      ],
      "name": "getChapters",
      "outputs": [
        {
          "components": [
            {
              "internalType": "uint256",
              "name": "courseId",
              "type": "uint256"
            },
            {
              "internalType": "uint256",
              "name": "chapterId",
              "type": "uint256"
            },
            {
              "internalType": "string",
              "name": "chapterName",
              "type": "string"
            },
            {
              "internalType": "uint256",
              "name": "duration",
              "type": "uint256"
            },
            {
              "internalType": "bool",
              "name": "exists",
              "type": "bool"
            }
          ],
          "internalType": "struct Ecosystem.Chapter[]",
          "name": "",
          "type": "tuple[]"
        }
      ],
      "stateMutability": "view",
      "type": "function"
    },
    {
      "inputs": [
        {
          "internalType": "uint256",
          "name": "courseId",
          "type": "uint256"
        }
      ],
      "name": "getCourseReviewers",
      "outputs": [
        {
          "internalType": "address[]",
          "name": "",
          "type": "address[]"
        }
      ],
      "stateMutability": "view",
      "type": "function"
    },
    {
      "inputs": [],
      "name": "getCurrentEcosystemPoolSupply",
      "outputs": [
        {
          "internalType": "uint256",
          "name": "",
          "type": "uint256"
        }
      ],
      "stateMutability": "view",
      "type": "function"
    },
    {
      "inputs": [
        {
          "internalType": "uint256",
          "name": "_quizId",
          "type": "uint256"
        }
      ],
      "name": "getQuestionsForQuiz",
      "outputs": [
        {
          "components": [
            {
              "internalType": "uint256",
              "name": "quizId",
              "type": "uint256"
            },
            {
              "internalType": "uint256",
              "name": "questionId",
              "type": "uint256"
            },
            {
              "internalType": "string",
              "name": "questionText",
              "type": "string"
            },
            {
              "components": [
                {
                  "internalType": "string",
                  "name": "option",
                  "type": "string"
                },
                {
                  "internalType": "bool",
                  "name": "isCorrect",
                  "type": "bool"
                }
              ],
              "internalType": "struct Ecosystem.Choice[]",
              "name": "choices",
              "type": "tuple[]"
            }
          ],
          "internalType": "struct Ecosystem.Question[]",
          "name": "",
          "type": "tuple[]"
        }
      ],
      "stateMutability": "view",
      "type": "function"
    },
    {
      "inputs": [
        {
          "internalType": "uint256",
          "name": "_quizId",
          "type": "uint256"
        }
      ],
      "name": "getQuiz",
      "outputs": [
        {
          "components": [
            {
              "internalType": "uint256",
              "name": "lessonId",
              "type": "uint256"
            },
            {
              "internalType": "uint256",
              "name": "quizId",
              "type": "uint256"
            },
            {
              "internalType": "string",
              "name": "quizTitle",
              "type": "string"
            },
            {
              "components": [
                {
                  "internalType": "uint256",
                  "name": "quizId",
                  "type": "uint256"
                },
                {
                  "internalType": "uint256",
                  "name": "questionId",
                  "type": "uint256"
                },
                {
                  "internalType": "string",
                  "name": "questionText",
                  "type": "string"
                },
                {
                  "components": [
                    {
                      "internalType": "string",
                      "name": "option",
                      "type": "string"
                    },
                    {
                      "internalType": "bool",
                      "name": "isCorrect",
                      "type": "bool"
                    }
                  ],
                  "internalType": "struct Ecosystem.Choice[]",
                  "name": "choices",
                  "type": "tuple[]"
                }
              ],
              "internalType": "struct Ecosystem.Question[]",
              "name": "questions",
              "type": "tuple[]"
            },
            {
              "internalType": "bool",
              "name": "exists",
              "type": "bool"
            }
          ],
          "internalType": "struct Ecosystem.Quiz",
          "name": "",
          "type": "tuple"
        }
      ],
      "stateMutability": "view",
      "type": "function"
    },
    {
      "inputs": [
        {
          "internalType": "bytes32",
          "name": "role",
          "type": "bytes32"
        }
      ],
      "name": "getRoleAdmin",
      "outputs": [
        {
          "internalType": "bytes32",
          "name": "",
          "type": "bytes32"
        }
      ],
      "stateMutability": "view",
      "type": "function"
    },
    {
      "inputs": [
        {
          "internalType": "uint256",
          "name": "_courseId",
          "type": "uint256"
        }
      ],
      "name": "getUserCompletedLessonsByCourse",
      "outputs": [
        {
          "internalType": "uint256[]",
          "name": "",
          "type": "uint256[]"
        },
        {
          "internalType": "uint256",
          "name": "",
          "type": "uint256"
        }
      ],
      "stateMutability": "view",
      "type": "function"
    },
    {
      "inputs": [
        {
          "internalType": "bytes32",
          "name": "role",
          "type": "bytes32"
        },
        {
          "internalType": "address",
          "name": "account",
          "type": "address"
        }
      ],
      "name": "grantRole",
      "outputs": [],
      "stateMutability": "nonpayable",
      "type": "function"
    },
    {
      "inputs": [
        {
          "internalType": "bytes32",
          "name": "role",
          "type": "bytes32"
        },
        {
          "internalType": "address",
          "name": "account",
          "type": "address"
        }
      ],
      "name": "hasRole",
      "outputs": [
        {
          "internalType": "bool",
          "name": "",
          "type": "bool"
        }
      ],
      "stateMutability": "view",
      "type": "function"
    },
    {
      "inputs": [
        {
          "internalType": "uint256",
          "name": "",
          "type": "uint256"
        },
        {
          "internalType": "address",
          "name": "",
          "type": "address"
        }
      ],
      "name": "isEnrolled",
      "outputs": [
        {
          "internalType": "bool",
          "name": "",
          "type": "bool"
        }
      ],
      "stateMutability": "view",
      "type": "function"
    },
    {
      "inputs": [
        {
          "internalType": "address",
          "name": "",
          "type": "address"
        }
      ],
      "name": "isInReviewerPool",
      "outputs": [
        {
          "internalType": "bool",
          "name": "",
          "type": "bool"
        }
      ],
      "stateMutability": "view",
      "type": "function"
    },
    {
      "inputs": [
        {
          "internalType": "address",
          "name": "account",
          "type": "address"
        }
      ],
      "name": "isReviewer",
      "outputs": [
        {
          "internalType": "bool",
          "name": "",
          "type": "bool"
        }
      ],
      "stateMutability": "view",
      "type": "function"
    },
    {
      "inputs": [
        {
          "internalType": "uint256",
          "name": "_courseId",
          "type": "uint256"
        },
        {
          "internalType": "string",
          "name": "learner",
          "type": "string"
        },
        {
          "internalType": "string",
          "name": "courseName",
          "type": "string"
        },
        {
          "internalType": "string",
          "name": "cert_issuer",
          "type": "string"
        },
        {
          "internalType": "uint256",
          "name": "issue_date",
          "type": "uint256"
        }
      ],
      "name": "issueCertificate",
      "outputs": [
        {
          "internalType": "uint256",
          "name": "",
          "type": "uint256"
        },
        {
          "components": [
            {
              "internalType": "uint256",
              "name": "certId",
              "type": "uint256"
            },
            {
              "internalType": "uint256",
              "name": "courseId",
              "type": "uint256"
            },
            {
              "internalType": "string",
              "name": "learner",
              "type": "string"
            },
            {
              "internalType": "string",
              "name": "cert_issuer",
              "type": "string"
            },
            {
              "internalType": "uint256",
              "name": "issue_date",
              "type": "uint256"
            },
            {
              "internalType": "string",
              "name": "courseName",
              "type": "string"
            },
            {
              "internalType": "address",
              "name": "owner",
              "type": "address"
            }
          ],
          "internalType": "struct Ecosystem3.Certificate",
          "name": "",
          "type": "tuple"
        }
      ],
      "stateMutability": "nonpayable",
      "type": "function"
    },
    {
      "inputs": [
        {
          "internalType": "uint256",
          "name": "",
          "type": "uint256"
        }
      ],
      "name": "lesson",
      "outputs": [
        {
          "internalType": "uint256",
          "name": "chapterId",
          "type": "uint256"
        },
        {
          "internalType": "uint256",
          "name": "lessonId",
          "type": "uint256"
        },
        {
          "internalType": "string",
          "name": "lessonName",
          "type": "string"
        },
        {
          "internalType": "string",
          "name": "lessonContent",
          "type": "string"
        },
        {
          "internalType": "uint256",
          "name": "resourceCount",
          "type": "uint256"
        },
        {
          "internalType": "bool",
          "name": "exists",
          "type": "bool"
        }
      ],
      "stateMutability": "view",
      "type": "function"
    },
    {
      "inputs": [
        {
          "internalType": "uint256",
          "name": "",
          "type": "uint256"
        },
        {
          "internalType": "address",
          "name": "",
          "type": "address"
        }
      ],
      "name": "lessonRead",
      "outputs": [
        {
          "internalType": "bool",
          "name": "",
          "type": "bool"
        }
      ],
      "stateMutability": "view",
      "type": "function"
    },
    {
      "inputs": [
        {
          "internalType": "uint256",
          "name": "",
          "type": "uint256"
        }
      ],
      "name": "listOfChapters",
      "outputs": [
        {
          "internalType": "uint256",
          "name": "courseId",
          "type": "uint256"
        },
        {
          "internalType": "uint256",
          "name": "chapterId",
          "type": "uint256"
        },
        {
          "internalType": "string",
          "name": "chapterName",
          "type": "string"
        },
        {
          "internalType": "uint256",
          "name": "duration",
          "type": "uint256"
        },
        {
          "internalType": "bool",
          "name": "exists",
          "type": "bool"
        }
      ],
      "stateMutability": "view",
      "type": "function"
    },
    {
      "inputs": [
        {
          "internalType": "uint256",
          "name": "",
          "type": "uint256"
        }
      ],
      "name": "listOfCourses",
      "outputs": [
        {
          "internalType": "uint256",
          "name": "courseId",
          "type": "uint256"
        },
        {
          "internalType": "string",
          "name": "courseName",
          "type": "string"
        },
        {
          "internalType": "string",
          "name": "description",
          "type": "string"
        },
        {
          "internalType": "bool",
          "name": "approved",
          "type": "bool"
        },
        {
          "internalType": "uint256",
          "name": "approvalCount",
          "type": "uint256"
        },
        {
          "internalType": "address",
          "name": "creator",
          "type": "address"
        },
        {
          "internalType": "bool",
          "name": "exists",
          "type": "bool"
        },
        {
          "internalType": "enum Ecosystem.DifficultyLevel",
          "name": "difficultyLevel",
          "type": "uint8"
        }
      ],
      "stateMutability": "view",
      "type": "function"
    },
    {
      "inputs": [
        {
          "internalType": "uint256",
          "name": "",
          "type": "uint256"
        }
      ],
      "name": "listOfLessons",
      "outputs": [
        {
          "internalType": "uint256",
          "name": "chapterId",
          "type": "uint256"
        },
        {
          "internalType": "uint256",
          "name": "lessonId",
          "type": "uint256"
        },
        {
          "internalType": "string",
          "name": "lessonName",
          "type": "string"
        },
        {
          "internalType": "string",
          "name": "lessonContent",
          "type": "string"
        },
        {
          "internalType": "uint256",
          "name": "resourceCount",
          "type": "uint256"
        },
        {
          "internalType": "bool",
          "name": "exists",
          "type": "bool"
        }
      ],
      "stateMutability": "view",
      "type": "function"
    },
    {
      "inputs": [
        {
          "internalType": "uint256",
          "name": "",
          "type": "uint256"
        }
      ],
      "name": "listOfQuestions",
      "outputs": [
        {
          "internalType": "uint256",
          "name": "quizId",
          "type": "uint256"
        },
        {
          "internalType": "uint256",
          "name": "questionId",
          "type": "uint256"
        },
        {
          "internalType": "string",
          "name": "questionText",
          "type": "string"
        }
      ],
      "stateMutability": "view",
      "type": "function"
    },
    {
      "inputs": [
        {
          "internalType": "uint256",
          "name": "",
          "type": "uint256"
        }
      ],
      "name": "listOfQuizzes",
      "outputs": [
        {
          "internalType": "uint256",
          "name": "lessonId",
          "type": "uint256"
        },
        {
          "internalType": "uint256",
          "name": "quizId",
          "type": "uint256"
        },
        {
          "internalType": "string",
          "name": "quizTitle",
          "type": "string"
        },
        {
          "internalType": "bool",
          "name": "exists",
          "type": "bool"
        }
      ],
      "stateMutability": "view",
      "type": "function"
    },
    {
      "inputs": [
        {
          "internalType": "uint256",
          "name": "",
          "type": "uint256"
        }
      ],
      "name": "listOfResource",
      "outputs": [
        {
          "internalType": "enum Ecosystem.ContentType",
          "name": "contentType",
          "type": "uint8"
        },
        {
          "internalType": "string",
          "name": "url",
          "type": "string"
        },
        {
          "internalType": "string",
          "name": "name",
          "type": "string"
        }
      ],
      "stateMutability": "view",
      "type": "function"
    },
    {
      "inputs": [
        {
          "internalType": "uint256",
          "name": "_courseId",
          "type": "uint256"
        },
        {
          "internalType": "uint256",
          "name": "_chapterId",
          "type": "uint256"
        },
        {
          "internalType": "uint256",
          "name": "_lessonId",
          "type": "uint256"
        }
      ],
      "name": "markAsRead",
      "outputs": [
        {
          "internalType": "bool",
          "name": "",
          "type": "bool"
        }
      ],
      "stateMutability": "nonpayable",
      "type": "function"
    },
    {
      "inputs": [
        {
          "internalType": "uint256",
          "name": "",
          "type": "uint256"
        }
      ],
      "name": "multiSigProposals",
      "outputs": [
        {
          "internalType": "uint256",
          "name": "id",
          "type": "uint256"
        },
        {
          "internalType": "address",
          "name": "proposer",
          "type": "address"
        },
        {
          "internalType": "address",
          "name": "targetContract",
          "type": "address"
        },
        {
          "internalType": "bytes",
          "name": "data",
          "type": "bytes"
        },
        {
          "internalType": "uint256",
          "name": "approvalCount",
          "type": "uint256"
        },
        {
          "internalType": "bool",
          "name": "executed",
          "type": "bool"
        }
      ],
      "stateMutability": "view",
      "type": "function"
    },
    {
      "inputs": [],
      "name": "name",
      "outputs": [
        {
          "internalType": "string",
          "name": "",
          "type": "string"
        }
      ],
      "stateMutability": "view",
      "type": "function"
    },
    {
      "inputs": [],
      "name": "nextChapterId",
      "outputs": [
        {
          "internalType": "uint256",
          "name": "",
          "type": "uint256"
        }
      ],
      "stateMutability": "view",
      "type": "function"
    },
    {
      "inputs": [],
      "name": "nextChoiceId",
      "outputs": [
        {
          "internalType": "uint256",
          "name": "",
          "type": "uint256"
        }
      ],
      "stateMutability": "view",
      "type": "function"
    },
    {
      "inputs": [],
      "name": "nextCourseId",
      "outputs": [
        {
          "internalType": "uint256",
          "name": "",
          "type": "uint256"
        }
      ],
      "stateMutability": "view",
      "type": "function"
    },
    {
      "inputs": [],
      "name": "nextCourseIdd",
      "outputs": [
        {
          "internalType": "uint256",
          "name": "",
          "type": "uint256"
        }
      ],
      "stateMutability": "view",
      "type": "function"
    },
    {
      "inputs": [],
      "name": "nextLessonId",
      "outputs": [
        {
          "internalType": "uint256",
          "name": "",
          "type": "uint256"
        }
      ],
      "stateMutability": "view",
      "type": "function"
    },
    {
      "inputs": [],
      "name": "nextQuestionId",
      "outputs": [
        {
          "internalType": "uint256",
          "name": "",
          "type": "uint256"
        }
      ],
      "stateMutability": "view",
      "type": "function"
    },
    {
      "inputs": [],
      "name": "nextQuizId",
      "outputs": [
        {
          "internalType": "uint256",
          "name": "",
          "type": "uint256"
        }
      ],
      "stateMutability": "view",
      "type": "function"
    },
    {
      "inputs": [
        {
          "internalType": "uint256",
          "name": "",
          "type": "uint256"
        }
      ],
      "name": "questions",
      "outputs": [
        {
          "internalType": "uint256",
          "name": "quizId",
          "type": "uint256"
        },
        {
          "internalType": "uint256",
          "name": "questionId",
          "type": "uint256"
        },
        {
          "internalType": "string",
          "name": "questionText",
          "type": "string"
        }
      ],
      "stateMutability": "view",
      "type": "function"
    },
    {
      "inputs": [
        {
          "internalType": "uint256",
          "name": "",
          "type": "uint256"
        }
      ],
      "name": "quizzes",
      "outputs": [
        {
          "internalType": "uint256",
          "name": "lessonId",
          "type": "uint256"
        },
        {
          "internalType": "uint256",
          "name": "quizId",
          "type": "uint256"
        },
        {
          "internalType": "string",
          "name": "quizTitle",
          "type": "string"
        },
        {
          "internalType": "bool",
          "name": "exists",
          "type": "bool"
        }
      ],
      "stateMutability": "view",
      "type": "function"
    },
    {
      "inputs": [
        {
          "internalType": "address",
          "name": "reviewer",
          "type": "address"
        }
      ],
      "name": "removeReviewer",
      "outputs": [],
      "stateMutability": "nonpayable",
      "type": "function"
    },
    {
      "inputs": [
        {
          "internalType": "bytes32",
          "name": "role",
          "type": "bytes32"
        },
        {
          "internalType": "address",
          "name": "callerConfirmation",
          "type": "address"
        }
      ],
      "name": "renounceRole",
      "outputs": [],
      "stateMutability": "nonpayable",
      "type": "function"
    },
    {
      "inputs": [
        {
          "internalType": "uint256",
          "name": "",
          "type": "uint256"
        }
      ],
      "name": "reviewerPool",
      "outputs": [
        {
          "internalType": "address",
          "name": "",
          "type": "address"
        }
      ],
      "stateMutability": "view",
      "type": "function"
    },
    {
      "inputs": [
        {
          "internalType": "uint256",
          "name": "",
          "type": "uint256"
        },
        {
          "internalType": "address",
          "name": "",
          "type": "address"
        }
      ],
      "name": "reviews",
      "outputs": [
        {
          "internalType": "uint256",
          "name": "learnerAgency",
          "type": "uint256"
        },
        {
          "internalType": "uint256",
          "name": "criticalThinking",
          "type": "uint256"
        },
        {
          "internalType": "uint256",
          "name": "collaborativeLearning",
          "type": "uint256"
        },
        {
          "internalType": "uint256",
          "name": "reflectivePractice",
          "type": "uint256"
        },
        {
          "internalType": "uint256",
          "name": "adaptiveLearning",
          "type": "uint256"
        },
        {
          "internalType": "uint256",
          "name": "authenticLearning",
          "type": "uint256"
        },
        {
          "internalType": "uint256",
          "name": "technologyIntegration",
          "type": "uint256"
        },
        {
          "internalType": "uint256",
          "name": "learnerSupport",
          "type": "uint256"
        },
        {
          "internalType": "uint256",
          "name": "assessmentForLearning",
          "type": "uint256"
        },
        {
          "internalType": "uint256",
          "name": "engagementAndMotivation",
          "type": "uint256"
        },
        {
          "internalType": "bool",
          "name": "isSubmitted",
          "type": "bool"
        }
      ],
      "stateMutability": "view",
      "type": "function"
    },
    {
      "inputs": [
        {
          "internalType": "bytes32",
          "name": "role",
          "type": "bytes32"
        },
        {
          "internalType": "address",
          "name": "account",
          "type": "address"
        }
      ],
      "name": "revokeRole",
      "outputs": [],
      "stateMutability": "nonpayable",
      "type": "function"
    },
    {
      "inputs": [
        {
          "internalType": "uint256",
          "name": "courseId",
          "type": "uint256"
        }
      ],
      "name": "selectCourseReviewers",
      "outputs": [],
      "stateMutability": "nonpayable",
      "type": "function"
    },
    {
      "inputs": [
        {
          "internalType": "uint256",
          "name": "_quizId",
          "type": "uint256"
        },
        {
          "internalType": "uint256[]",
          "name": "_answers",
          "type": "uint256[]"
        }
      ],
      "name": "submitQuiz",
      "outputs": [
        {
          "internalType": "uint256",
          "name": "score",
          "type": "uint256"
        }
      ],
      "stateMutability": "nonpayable",
      "type": "function"
    },
    {
      "inputs": [
        {
          "internalType": "uint256",
          "name": "courseId",
          "type": "uint256"
        },
        {
          "internalType": "uint256",
          "name": "learnerAgency",
          "type": "uint256"
        },
        {
          "internalType": "uint256",
          "name": "criticalThinking",
          "type": "uint256"
        },
        {
          "internalType": "uint256",
          "name": "collaborativeLearning",
          "type": "uint256"
        },
        {
          "internalType": "uint256",
          "name": "reflectivePractice",
          "type": "uint256"
        },
        {
          "internalType": "uint256",
          "name": "adaptiveLearning",
          "type": "uint256"
        },
        {
          "internalType": "uint256",
          "name": "authenticLearning",
          "type": "uint256"
        },
        {
          "internalType": "uint256",
          "name": "technologyIntegration",
          "type": "uint256"
        },
        {
          "internalType": "uint256",
          "name": "learnerSupport",
          "type": "uint256"
        },
        {
          "internalType": "uint256",
          "name": "assessmentForLearning",
          "type": "uint256"
        },
        {
          "internalType": "uint256",
          "name": "engagementAndMotivation",
          "type": "uint256"
        }
      ],
      "name": "submitReview",
      "outputs": [],
      "stateMutability": "nonpayable",
      "type": "function"
    },
    {
      "inputs": [
        {
          "internalType": "bytes4",
          "name": "interfaceId",
          "type": "bytes4"
        }
      ],
      "name": "supportsInterface",
      "outputs": [
        {
          "internalType": "bool",
          "name": "",
          "type": "bool"
        }
      ],
      "stateMutability": "view",
      "type": "function"
    },
    {
      "inputs": [],
      "name": "symbol",
      "outputs": [
        {
          "internalType": "string",
          "name": "",
          "type": "string"
        }
      ],
      "stateMutability": "view",
      "type": "function"
    },
    {
      "inputs": [],
      "name": "totalSupply",
      "outputs": [
        {
          "internalType": "uint256",
          "name": "",
          "type": "uint256"
        }
      ],
      "stateMutability": "view",
      "type": "function"
    },
    {
      "inputs": [
        {
          "internalType": "address",
          "name": "to",
          "type": "address"
        },
        {
          "internalType": "uint256",
          "name": "value",
          "type": "uint256"
        }
      ],
      "name": "transfer",
      "outputs": [
        {
          "internalType": "bool",
          "name": "",
          "type": "bool"
        }
      ],
      "stateMutability": "nonpayable",
      "type": "function"
    },
    {
      "inputs": [
        {
          "internalType": "address",
          "name": "from",
          "type": "address"
        },
        {
          "internalType": "address",
          "name": "to",
          "type": "address"
        },
        {
          "internalType": "uint256",
          "name": "value",
          "type": "uint256"
        }
      ],
      "name": "transferFrom",
      "outputs": [
        {
          "internalType": "bool",
          "name": "",
          "type": "bool"
        }
      ],
      "stateMutability": "nonpayable",
      "type": "function"
    },
    {
      "inputs": [
        {
          "internalType": "uint256",
          "name": "_courseId",
          "type": "uint256"
        }
      ],
      "name": "unEnroll",
      "outputs": [
        {
          "internalType": "bool",
          "name": "",
          "type": "bool"
        }
      ],
      "stateMutability": "nonpayable",
      "type": "function"
    },
    {
      "inputs": [
        {
          "internalType": "address",
          "name": "",
          "type": "address"
        },
        {
          "internalType": "uint256",
          "name": "",
          "type": "uint256"
        }
      ],
      "name": "userCompletedLessons",
      "outputs": [
        {
          "internalType": "uint256",
          "name": "",
          "type": "uint256"
        }
      ],
      "stateMutability": "view",
      "type": "function"
    },
    {
      "inputs": [
        {
          "internalType": "address",
          "name": "",
          "type": "address"
        },
        {
          "internalType": "uint256",
          "name": "",
          "type": "uint256"
        },
        {
          "internalType": "uint256",
          "name": "",
          "type": "uint256"
        }
      ],
      "name": "userCompletedLessonsByCourse",
      "outputs": [
        {
          "internalType": "uint256",
          "name": "",
          "type": "uint256"
        }
      ],
      "stateMutability": "view",
      "type": "function"
    },
    {
      "inputs": [
        {
          "internalType": "address",
          "name": "",
          "type": "address"
        },
        {
          "internalType": "uint256",
          "name": "",
          "type": "uint256"
        }
      ],
      "name": "userScores",
      "outputs": [
        {
          "internalType": "uint256",
          "name": "",
          "type": "uint256"
        }
      ],
      "stateMutability": "view",
      "type": "function"
    }
  ],
  "bytecode": "0x608060405234801561001057600080fd5b5060405161efcb38038061efcb8339818101604052810190610032919061063d565b8080806040518060400160405280600a81526020017f4142594120544f4b454e000000000000000000000000000000000000000000008152506040518060400160405280600681526020017f414259544b4e000000000000000000000000000000000000000000000000000081525081600390816100b091906108a7565b5080600490816100c091906108a7565b505050600481511015610108576040517f08c379a00000000000000000000000000000000000000000000000000000000081526004016100ff906109fc565b60405180910390fd5b61011b6000801b336102c260201b60201c565b5061014c7fdf1425bae297c2f52b4f15d18a50b1fc8cb5b981a981b1d213ed3ff92681b64d336102c260201b60201c565b5060005b81518110156102a0576101a37fc10c77be35aff266144ed64c26a1fa104bae2f284ae99ac4a34203454704a1858383815181106101905761018f610a1c565b5b60200260200101516102c260201b60201c565b5060068282815181106101b9576101b8610a1c565b5b60200260200101519080600181540180825580915050600190039060005260206000200160009091909190916101000a81548173ffffffffffffffffffffffffffffffffffffffff021916908373ffffffffffffffffffffffffffffffffffffffff16021790555060016008600084848151811061023a57610239610a1c565b5b602002602001015173ffffffffffffffffffffffffffffffffffffffff1673ffffffffffffffffffffffffffffffffffffffff16815260200190815260200160002060006101000a81548160ff0219169083151502179055508080600101915050610150565b50506001600a819055506102ba600b6103c060201b60201c565b505050610a4b565b60006102d483836103ff60201b60201c565b6103b55760016005600085815260200190815260200160002060000160008473ffffffffffffffffffffffffffffffffffffffff1673ffffffffffffffffffffffffffffffffffffffff16815260200190815260200160002060006101000a81548160ff02191690831515021790555061035261046a60201b60201c565b73ffffffffffffffffffffffffffffffffffffffff168273ffffffffffffffffffffffffffffffffffffffff16847f2f8788117e7eff1d82e926ec794901d17c78024a50270940304540a733656f0d60405160405180910390a4600190506103ba565b600090505b92915050565b60018160000181905550600181600101819055506001816002018190555060018160030181905550600181600401819055506001816005018190555050565b60006005600084815260200190815260200160002060000160008373ffffffffffffffffffffffffffffffffffffffff1673ffffffffffffffffffffffffffffffffffffffff16815260200190815260200160002060009054906101000a900460ff16905092915050565b600033905090565b6000604051905090565b600080fd5b600080fd5b600080fd5b6000601f19601f8301169050919050565b7f4e487b7100000000000000000000000000000000000000000000000000000000600052604160045260246000fd5b6104d48261048b565b810181811067ffffffffffffffff821117156104f3576104f261049c565b5b80604052505050565b6000610506610472565b905061051282826104cb565b919050565b600067ffffffffffffffff8211156105325761053161049c565b5b602082029050602081019050919050565b600080fd5b600073ffffffffffffffffffffffffffffffffffffffff82169050919050565b600061057382610548565b9050919050565b61058381610568565b811461058e57600080fd5b50565b6000815190506105a08161057a565b92915050565b60006105b96105b484610517565b6104fc565b905080838252602082019050602084028301858111156105dc576105db610543565b5b835b8181101561060557806105f18882610591565b8452602084019350506020810190506105de565b5050509392505050565b600082601f83011261062457610623610486565b5b81516106348482602086016105a6565b91505092915050565b6000602082840312156106535761065261047c565b5b600082015167ffffffffffffffff81111561067157610670610481565b5b61067d8482850161060f565b91505092915050565b600081519050919050565b7f4e487b7100000000000000000000000000000000000000000000000000000000600052602260045260246000fd5b600060028204905060018216806106d857607f821691505b6020821081036106eb576106ea610691565b5b50919050565b60008190508160005260206000209050919050565b60006020601f8301049050919050565b600082821b905092915050565b6000600883026107537fffffffffffffffffffffffffffffffffffffffffffffffffffffffffffffffff82610716565b61075d8683610716565b95508019841693508086168417925050509392505050565b6000819050919050565b6000819050919050565b60006107a461079f61079a84610775565b61077f565b610775565b9050919050565b6000819050919050565b6107be83610789565b6107d26107ca826107ab565b848454610723565b825550505050565b600090565b6107e76107da565b6107f28184846107b5565b505050565b5b818110156108165761080b6000826107df565b6001810190506107f8565b5050565b601f82111561085b5761082c816106f1565b61083584610706565b81016020851015610844578190505b61085861085085610706565b8301826107f7565b50505b505050565b600082821c905092915050565b600061087e60001984600802610860565b1980831691505092915050565b6000610897838361086d565b9150826002028217905092915050565b6108b082610686565b67ffffffffffffffff8111156108c9576108c861049c565b5b6108d382546106c0565b6108de82828561081a565b600060209050601f83116001811461091157600084156108ff578287015190505b610909858261088b565b865550610971565b601f19841661091f866106f1565b60005b8281101561094757848901518255600182019150602085019450602081019050610922565b868310156109645784890151610960601f89168261086d565b8355505b6001600288020188555050505b505050505050565b600082825260208201905092915050565b7f4174206c6561737420342072657669657765727320617265207265717569726560008201527f6400000000000000000000000000000000000000000000000000000000000000602082015250565b60006109e6602183610979565b91506109f18261098a565b604082019050919050565b60006020820190508181036000830152610a15816109d9565b9050919050565b7f4e487b7100000000000000000000000000000000000000000000000000000000600052603260045260246000fd5b61e57180610a5a6000396000f3fe608060405234801561001057600080fd5b50600436106105ed5760003560e01c806375b9d8691161031b578063bad0dd65116101a8578063d93f2caa116100f4578063e503f108116100ad578063eb264b9c11610087578063eb264b9c146115a9578063f57d585b146115c7578063fdc6258a146115f7578063ffabc67314611627576105ed565b8063e503f1081461152b578063e863975114611549578063ea0978ad14611579576105ed565b8063d93f2caa1461142d578063dd62ed3e1461144b578063ddfc79fb1461147b578063de5dc3a0146114ad578063ded5c18d146114dd578063e09bcae3146114fb576105ed565b8063c90c884d11610161578063d03646941161013b578063d036469414611395578063d214ba74146113c5578063d3751bfc146113f5578063d547741f14611411576105ed565b8063c90c884d14611315578063c9442dac14611349578063c976831514611365576105ed565b8063bad0dd651461120c578063bfd2f4c514611228578063c12804fb1461125d578063c293bbbe14611297578063c491b04c146112c7578063c7954e4c146112f7576105ed565b80639dad8d2211610267578063a3ef204111610220578063aa95da3a116101fa578063aa95da3a14611172578063ac678a93146111a2578063ac957c63146111d2578063b31a4af3146111f0576105ed565b8063a3ef2041146110de578063a3f7e09614611112578063a9059cbb14611142576105ed565b80639dad8d2214610ff4578063a1051dfe14611024578063a14ecbdf14611054578063a1cd05b114611072578063a217fddf146110a2578063a296ea58146110c0576105ed565b80638a2492bb116102d45780639560bc85116102ae5780639560bc8514610f6a57806395d89b4114610f885780639ad0112714610fa65780639bce575114610fd6576105ed565b80638a2492bb14610eee5780638ea6e2fd14610f1e57806391d1485414610f3a576105ed565b806375b9d86914610e155780637ce1785214610e315780637d83daf214610e4f578063846f815214610e6d57806388409afa14610e8b57806388a8270f14610ebe576105ed565b806334b159dd1161049957806358a3fa25116103e5578063663b3e221161039e5780636fdb67f7116103785780636fdb67f714610d7657806370a0823114610dad57806373a82b5f14610ddd5780637528499814610df9576105ed565b8063663b3e2214610d045780636a4af0fa14610d3a5780636b000fa714610d58576105ed565b806358a3fa2514610c1c578063599c553314610c385780635b680a4514610c565780635cc2a14d14610c86578063632c224b14610cb65780636605515914610ce6576105ed565b806340932bf8116104525780634dd84b3c1161042c5780634dd84b3c14610b6b5780634fb95abd14610b9b57806351d93c8114610bcc57806352994e2f14610bfe576105ed565b806340932bf814610ad25780634a474b9c14610b075780634d42ef4814610b37576105ed565b806334b159dd146109fe57806334ed4bdb14610a2e57806334f9b3fb14610a5e57806336568abe14610a7a5780633693dcfa14610a965780633b129a5614610ab4576105ed565b8063274202f0116105585780632f2ff15d1161051157806331b1b978116104eb57806331b1b9781461094d57806332cb6b0c1461097f57806334359da91461099d57806334445897146109ce576105ed565b80632f2ff15d146108e357806330a3549a146108ff578063313ce5671461092f576105ed565b8063274202f0146107ea57806327ff622314610808578063295b825a146108265780632990db7c1461085957806329a0be65146108905780632aac61ae146108ae576105ed565b806313e85811116105aa57806313e85811146106dc57806318160ddd1461070c57806319f102ec1461072a57806320bd03161461075a57806323b872dd1461078a578063248a9ca3146107ba576105ed565b806301ffc9a7146105f257806304e48bd114610622578063057f46bb1461064057806306fdde031461065e578063095ea7b31461067c57806311ce15df146106ac575b600080fd5b61060c6004803603810190610607919061a3a1565b611657565b604051610619919061a3e9565b60405180910390f35b61062a6116d1565b604051610637919061a7b8565b60405180910390f35b610648611b07565b604051610655919061a7e9565b60405180910390f35b610666611b0d565b604051610673919061a84e565b60405180910390f35b6106966004803603810190610691919061a8c8565b611b9f565b6040516106a3919061a3e9565b60405180910390f35b6106c660048036038101906106c1919061a908565b611bc2565b6040516106d3919061a3e9565b60405180910390f35b6106f660048036038101906106f1919061a935565b611be2565b604051610703919061a3e9565b60405180910390f35b610714611c11565b604051610721919061a7e9565b60405180910390f35b610744600480360381019061073f919061a908565b611c1b565b604051610751919061a984565b60405180910390f35b610774600480360381019061076f919061a908565b611c5a565b604051610781919061a3e9565b60405180910390f35b6107a4600480360381019061079f919061a99f565b611e2a565b6040516107b1919061a3e9565b60405180910390f35b6107d460048036038101906107cf919061aa28565b611e59565b6040516107e1919061aa64565b60405180910390f35b6107f2611e79565b6040516107ff919061a7e9565b60405180910390f35b610810611ea1565b60405161081d919061a7e9565b60405180910390f35b610840600480360381019061083b919061a908565b611ea6565b604051610850949392919061aa7f565b60405180910390f35b610873600480360381019061086e919061a908565b611f7b565b60405161088798979695949392919061aada565b60405180910390f35b61089861211a565b6040516108a5919061a7e9565b60405180910390f35b6108c860048036038101906108c3919061a908565b612120565b6040516108da9695949392919061ab66565b60405180910390f35b6108fd60048036038101906108f8919061abd5565b612289565b005b6109196004803603810190610914919061aefb565b6122ab565b604051610926919061a3e9565b60405180910390f35b6109376124e9565b604051610944919061afd2565b60405180910390f35b6109676004803603810190610962919061a908565b6124f2565b6040516109769392919061afed565b60405180910390f35b6109876125a4565b604051610994919061a7e9565b60405180910390f35b6109b760048036038101906109b2919061a908565b6125b4565b6040516109c592919061b0da565b60405180910390f35b6109e860048036038101906109e3919061b10a565b612667565b6040516109f5919061a7e9565b60405180910390f35b610a186004803603810190610a13919061a935565b6126a5565b604051610a25919061a3e9565b60405180910390f35b610a486004803603810190610a43919061b15d565b6126d4565b604051610a55919061a7e9565b60405180910390f35b610a786004803603810190610a73919061b18a565b6126f2565b005b610a946004803603810190610a8f919061abd5565b612830565b005b610a9e6128ab565b604051610aab919061aa64565b60405180910390f35b610abc6128cf565b604051610ac9919061aa64565b60405180910390f35b610aec6004803603810190610ae7919061a908565b6128f3565b604051610afe9695949392919061b24e565b60405180910390f35b610b216004803603810190610b1c919061a908565b612a04565b604051610b2e919061b4e1565b60405180910390f35b610b516004803603810190610b4c919061b503565b612c8e565b604051610b6295949392919061b543565b60405180910390f35b610b856004803603810190610b80919061a935565b612d76565b604051610b92919061a3e9565b60405180910390f35b610bb56004803603810190610bb0919061b59d565b612da5565b604051610bc392919061b716565b60405180910390f35b610be66004803603810190610be1919061a908565b6130f8565b604051610bf59392919061afed565b60405180910390f35b610c066131ba565b604051610c13919061aa64565b60405180910390f35b610c366004803603810190610c31919061b746565b6131de565b005b610c406134a4565b604051610c4d919061a7e9565b60405180910390f35b610c706004803603810190610c6b919061a8c8565b6134a9565b604051610c7d919061a7e9565b60405180910390f35b610ca06004803603810190610c9b919061b83a565b6134ce565b604051610cad919061a3e9565b60405180910390f35b610cd06004803603810190610ccb919061b83a565b6135ba565b604051610cdd919061a7e9565b60405180910390f35b610cee61377e565b604051610cfb919061a7e9565b60405180910390f35b610d1e6004803603810190610d19919061a908565b613784565b604051610d31979695949392919061b896565b60405180910390f35b610d4261397e565b604051610d4f919061badf565b60405180910390f35b610d60613d0e565b604051610d6d919061a7e9565b60405180910390f35b610d906004803603810190610d8b919061a908565b613d14565b604051610da498979695949392919061aada565b60405180910390f35b610dc76004803603810190610dc2919061b15d565b613ec3565b604051610dd4919061a7e9565b60405180910390f35b610df76004803603810190610df2919061b15d565b613f0b565b005b610e136004803603810190610e0e919061a908565b6140ef565b005b610e2f6004803603810190610e2a919061bb01565b614446565b005b610e39614654565b604051610e46919061a7e9565b60405180910390f35b610e57614660565b604051610e64919061a7e9565b60405180910390f35b610e75614666565b604051610e82919061a7e9565b60405180910390f35b610ea56004803603810190610ea0919061a908565b614672565b604051610eb5949392919061aa7f565b60405180910390f35b610ed86004803603810190610ed3919061b503565b614737565b604051610ee5919061a3e9565b60405180910390f35b610f086004803603810190610f03919061bbb1565b6149d2565b604051610f15919061a3e9565b60405180910390f35b610f386004803603810190610f33919061a908565b614eb7565b005b610f546004803603810190610f4f919061abd5565b615221565b604051610f61919061a3e9565b60405180910390f35b610f7261528c565b604051610f7f919061a7e9565b60405180910390f35b610f90615298565b604051610f9d919061a84e565b60405180910390f35b610fc06004803603810190610fbb919061a8c8565b61532a565b604051610fcd919061a7e9565b60405180910390f35b610fde61535b565b604051610feb919061bd74565b60405180910390f35b61100e6004803603810190611009919061a908565b6154f6565b60405161101b919061a3e9565b60405180910390f35b61103e6004803603810190611039919061b503565b61593f565b60405161104b919061a3e9565b60405180910390f35b61105c615c74565b604051611069919061a7e9565b60405180910390f35b61108c6004803603810190611087919061b503565b615c7a565b604051611099919061a984565b60405180910390f35b6110aa615cc8565b6040516110b7919061aa64565b60405180910390f35b6110c8615ccf565b6040516110d5919061c057565b60405180910390f35b6110f860048036038101906110f3919061a908565b6160a7565b60405161110995949392919061b543565b60405180910390f35b61112c6004803603810190611127919061a908565b616172565b604051611139919061c0f6565b60405180910390f35b61115c6004803603810190611157919061a8c8565b6164d4565b604051611169919061a3e9565b60405180910390f35b61118c6004803603810190611187919061b503565b6164f7565b604051611199919061a84e565b60405180910390f35b6111bc60048036038101906111b7919061a908565b6165af565b6040516111c9919061bd74565b60405180910390f35b6111da6166ec565b6040516111e7919061a7e9565b60405180910390f35b61120a6004803603810190611205919061c173565b6166f1565b005b6112266004803603810190611221919061a908565b616ae3565b005b611242600480360381019061123d919061a908565b616de2565b6040516112549695949392919061ab66565b60405180910390f35b6112776004803603810190611272919061a935565b616f3b565b60405161128e9b9a9998979695949392919061c1e7565b60405180910390f35b6112b160048036038101906112ac919061a908565b616faf565b6040516112be919061c301565b60405180910390f35b6112e160048036038101906112dc919061b15d565b617050565b6040516112ee919061a3e9565b60405180910390f35b6112ff617070565b60405161130c919061a7e9565b60405180910390f35b61132f600480360381019061132a919061a908565b61707a565b60405161134095949392919061b543565b60405180910390f35b611363600480360381019061135e919061b15d565b617155565b005b61137f600480360381019061137a919061a935565b61743f565b60405161138c919061a3e9565b60405180910390f35b6113af60048036038101906113aa919061c323565b61746e565b6040516113bc919061a3e9565b60405180910390f35b6113df60048036038101906113da919061c51a565b6176f1565b6040516113ec919061a3e9565b60405180910390f35b61140f600480360381019061140a919061c5d1565b6179ea565b005b61142b6004803603810190611426919061abd5565b617de1565b005b611435617e03565b604051611442919061a7e9565b60405180910390f35b6114656004803603810190611460919061c670565b617e0f565b604051611472919061a7e9565b60405180910390f35b6114956004803603810190611490919061a908565b617e96565b6040516114a49392919061c6bf565b60405180910390f35b6114c760048036038101906114c2919061c704565b617fed565b6040516114d4919061a7e9565b60405180910390f35b6114e5618297565b6040516114f2919061a7e9565b60405180910390f35b6115156004803603810190611510919061b503565b6182a4565b604051611522919061a3e9565b60405180910390f35b611533618598565b604051611540919061a7e9565b60405180910390f35b611563600480360381019061155e919061b18a565b61859e565b604051611570919061a3e9565b60405180910390f35b611593600480360381019061158e919061b503565b61868c565b6040516115a0919061a3e9565b60405180910390f35b6115b1618972565b6040516115be919061a7e9565b60405180910390f35b6115e160048036038101906115dc919061a908565b618978565b6040516115ee919061a3e9565b60405180910390f35b611611600480360381019061160c919061b15d565b618cc0565b60405161161e919061a3e9565b60405180910390f35b611641600480360381019061163c919061a8c8565b618cf3565b60405161164e919061a3e9565b60405180910390f35b60007f7965db0b000000000000000000000000000000000000000000000000000000007bffffffffffffffffffffffffffffffffffffffffffffffffffffffff1916827bffffffffffffffffffffffffffffffffffffffffffffffffffffffff191614806116ca57506116c982618d22565b5b9050919050565b6060600060268054905067ffffffffffffffff8111156116f4576116f361ac1f565b5b60405190808252806020026020018201604052801561172d57816020015b61171a619d01565b8152602001906001900390816117125790505b50905060005b602680549050811015611aff57604051806101200160405280602683815481106117605761175f61c760565b5b90600052602060002090600802016000015481526020016026838154811061178b5761178a61c760565b5b906000526020600020906008020160010180546117a79061c7be565b80601f01602080910402602001604051908101604052809291908181526020018280546117d39061c7be565b80156118205780601f106117f557610100808354040283529160200191611820565b820191906000526020600020905b81548152906001019060200180831161180357829003601f168201915b505050505081526020016026838154811061183e5761183d61c760565b5b9060005260206000209060080201600201805461185a9061c7be565b80601f01602080910402602001604051908101604052809291908181526020018280546118869061c7be565b80156118d35780601f106118a8576101008083540402835291602001916118d3565b820191906000526020600020905b8154815290600101906020018083116118b657829003601f168201915b50505050508152602001602683815481106118f1576118f061c760565b5b906000526020600020906008020160030160009054906101000a900460ff16151581526020016026838154811061192b5761192a61c760565b5b9060005260206000209060080201600401548152602001602683815481106119565761195561c760565b5b906000526020600020906008020160050160009054906101000a900473ffffffffffffffffffffffffffffffffffffffff1673ffffffffffffffffffffffffffffffffffffffff168152602001602683815481106119b7576119b661c760565b5b906000526020600020906008020160050160149054906101000a900460ff1615158152602001602683815481106119f1576119f061c760565b5b9060005260206000209060080201600601805480602002602001604051908101604052809291908181526020018280548015611a8257602002820191906000526020600020905b8160009054906101000a900473ffffffffffffffffffffffffffffffffffffffff1673ffffffffffffffffffffffffffffffffffffffff1681526020019060010190808311611a38575b5050505050815260200160268381548110611aa057611a9f61c760565b5b906000526020600020906008020160070160009054906101000a900460ff166002811115611ad157611ad061a5d8565b5b815250828281518110611ae757611ae661c760565b5b60200260200101819052508080600101915050611733565b508091505090565b60145481565b606060038054611b1c9061c7be565b80601f0160208091040260200160405190810160405280929190818152602001828054611b489061c7be565b8015611b955780601f10611b6a57610100808354040283529160200191611b95565b820191906000526020600020905b815481529060010190602001808311611b7857829003601f168201915b5050505050905090565b600080611baa618d8c565b9050611bb7818585618d94565b600191505092915050565b60246020528060005260406000206000915054906101000a900460ff1681565b602c6020528160005260406000206020528060005260406000206000915091509054906101000a900460ff1681565b6000600254905090565b60068181548110611c2b57600080fd5b906000526020600020016000915054906101000a900473ffffffffffffffffffffffffffffffffffffffff1681565b6000611c64618da6565b6025600083815260200190815260200160002060003373ffffffffffffffffffffffffffffffffffffffff1673ffffffffffffffffffffffffffffffffffffffff16815260200190815260200160002060009054906101000a900460ff16611d01576040517f08c379a0000000000000000000000000000000000000000000000000000000008152600401611cf89061c83b565b60405180910390fd5b6000601960008481526020019081526020016000209050600060268481548110611d2e57611d2d61c760565b5b90600052602060002090600802019050611d4b8260060133618dec565b611d588160060133618dec565b60006025600086815260200190815260200160002060003373ffffffffffffffffffffffffffffffffffffffff1673ffffffffffffffffffffffffffffffffffffffff16815260200190815260200160002060006101000a81548160ff021916908315150217905550611dd333671bc16d674ec80000618f89565b3373ffffffffffffffffffffffffffffffffffffffff16847f9b244c565b926d7f4e915b69f3a5c6afc2231322d0d44e821076ad8879d0d68360405160405180910390a3600192505050611e25618fb0565b919050565b600080611e35618d8c565b9050611e42858285618fba565b611e4d85858561904f565b60019150509392505050565b600060056000838152602001908152602001600020600101549050919050565b6064600f6b204fce5e3e25026110000000611e94919061c88a565b611e9e919061c8fb565b81565b606481565b602a8181548110611eb657600080fd5b9060005260206000209060050201600091509050806000015490806001015490806002018054611ee59061c7be565b80601f0160208091040260200160405190810160405280929190818152602001828054611f119061c7be565b8015611f5e5780601f10611f3357610100808354040283529160200191611f5e565b820191906000526020600020905b815481529060010190602001808311611f4157829003601f168201915b5050505050908060040160009054906101000a900460ff16905084565b6019602052806000526040600020600091509050806000015490806001018054611fa49061c7be565b80601f0160208091040260200160405190810160405280929190818152602001828054611fd09061c7be565b801561201d5780601f10611ff25761010080835404028352916020019161201d565b820191906000526020600020905b81548152906001019060200180831161200057829003601f168201915b5050505050908060020180546120329061c7be565b80601f016020809104026020016040519081016040528092919081815260200182805461205e9061c7be565b80156120ab5780601f10612080576101008083540402835291602001916120ab565b820191906000526020600020905b81548152906001019060200180831161208e57829003601f168201915b5050505050908060030160009054906101000a900460ff16908060040154908060050160009054906101000a900473ffffffffffffffffffffffffffffffffffffffff16908060050160149054906101000a900460ff16908060070160009054906101000a900460ff16905088565b60155481565b6028818154811061213057600080fd5b906000526020600020906024020160009150905080600001549080600101549080600201805461215f9061c7be565b80601f016020809104026020016040519081016040528092919081815260200182805461218b9061c7be565b80156121d85780601f106121ad576101008083540402835291602001916121d8565b820191906000526020600020905b8154815290600101906020018083116121bb57829003601f168201915b5050505050908060030180546121ed9061c7be565b80601f01602080910402602001604051908101604052809291908181526020018280546122199061c7be565b80156122665780601f1061223b57610100808354040283529160200191612266565b820191906000526020600020905b81548152906001019060200180831161224957829003601f168201915b5050505050908060220154908060230160009054906101000a900460ff16905086565b61229282611e59565b61229b81619143565b6122a58383619157565b50505050565b60007fadb22091b155738d2e889eb96f509d2a7c93234236b30400927feb4a6a15ab006122d781619143565b6000601f60008881526020019081526020016000206001015403612330576040517f08c379a00000000000000000000000000000000000000000000000000000000081526004016123279061c978565b60405180910390fd5b84601f60008881526020019081526020016000206002019081612353919061cb44565b5083601f60008881526020019081526020016000206003019081612377919061cb44565b506000835111156124a457600a835111156123c7576040517f08c379a00000000000000000000000000000000000000000000000000000000081526004016123be9061cc88565b60405180910390fd5b60005b8351811015612486578381815181106123e6576123e561c760565b5b6020026020010151601f600089815260200190815260200160002060040182600a81106124165761241561c760565b5b6003020160008201518160000160006101000a81548160ff021916908360028111156124455761244461a5d8565b5b0217905550602082015181600101908161245f919061cb44565b506040820151816002019081612475919061cb44565b5090505080806001019150506123ca565b508251601f6000888152602001908152602001600020602201819055505b857f2a39a7cf20a19c3cd9811b72b89fab269dce3aa109f6d2a0631cd3e1f0457e5d866040516124d4919061a84e565b60405180910390a26001915050949350505050565b60006012905090565b60226020528060005260406000206000915090508060000154908060010154908060020180546125219061c7be565b80601f016020809104026020016040519081016040528092919081815260200182805461254d9061c7be565b801561259a5780601f1061256f5761010080835404028352916020019161259a565b820191906000526020600020905b81548152906001019060200180831161257d57829003601f168201915b5050505050905083565b6b204fce5e3e2502611000000081565b6060600080602e60003373ffffffffffffffffffffffffffffffffffffffff1673ffffffffffffffffffffffffffffffffffffffff168152602001908152602001600020600085815260200190815260200160002080548060200260200160405190810160405280929190818152602001828054801561265357602002820191906000526020600020905b81548152602001906001019080831161263f575b505050505090508081519250925050915091565b602e602052826000526040600020602052816000526040600020818154811061268f57600080fd5b9060005260206000200160009250925050505481565b60316020528160005260406000206020528060005260406000206000915091509054906101000a900460ff1681565b601b6020528060005260406000206000915090508060000154905081565b7fadb22091b155738d2e889eb96f509d2a7c93234236b30400927feb4a6a15ab0061271c81619143565b6000602160008581526020019081526020016000206001015403612775576040517f08c379a000000000000000000000000000000000000000000000000000000000815260040161276c9061ccf4565b60405180910390fd5b826021600085815260200190815260200160002060010154146127cd576040517f08c379a00000000000000000000000000000000000000000000000000000000081526004016127c49061cd60565b60405180910390fd5b816021600085815260200190815260200160002060020190816127f0919061cb44565b5082847fad5fab99ac4d99e1061fd121b36537d5213be564a3dc6cc383897dc355e89ff584604051612822919061a84e565b60405180910390a350505050565b612838618d8c565b73ffffffffffffffffffffffffffffffffffffffff168173ffffffffffffffffffffffffffffffffffffffff161461289c576040517f6697b23200000000000000000000000000000000000000000000000000000000815260040160405180910390fd5b6128a68282619249565b505050565b7fadb22091b155738d2e889eb96f509d2a7c93234236b30400927feb4a6a15ab0081565b7fc10c77be35aff266144ed64c26a1fa104bae2f284ae99ac4a34203454704a18581565b60096020528060005260406000206000915090508060000154908060010160009054906101000a900473ffffffffffffffffffffffffffffffffffffffff16908060020160009054906101000a900473ffffffffffffffffffffffffffffffffffffffff16908060030180546129689061c7be565b80601f01602080910402602001604051908101604052809291908181526020018280546129949061c7be565b80156129e15780601f106129b6576101008083540402835291602001916129e1565b820191906000526020600020905b8154815290600101906020018083116129c457829003601f168201915b5050505050908060040154908060050160009054906101000a900460ff16905086565b60606021600083815260200190815260200160002060040160009054906101000a900460ff16612a69576040517f08c379a0000000000000000000000000000000000000000000000000000000008152600401612a609061cdcc565b60405180910390fd5b60216000838152602001908152602001600020600301805480602002602001604051908101604052809291908181526020016000905b82821015612c8357838290600052602060002090600402016040518060800160405290816000820154815260200160018201548152602001600282018054612ae69061c7be565b80601f0160208091040260200160405190810160405280929190818152602001828054612b129061c7be565b8015612b5f5780601f10612b3457610100808354040283529160200191612b5f565b820191906000526020600020905b815481529060010190602001808311612b4257829003601f168201915b5050505050815260200160038201805480602002602001604051908101604052809291908181526020016000905b82821015612c6c5783829060005260206000209060020201604051806040016040529081600082018054612bc09061c7be565b80601f0160208091040260200160405190810160405280929190818152602001828054612bec9061c7be565b8015612c395780601f10612c0e57610100808354040283529160200191612c39565b820191906000526020600020905b815481529060010190602001808311612c1c57829003601f168201915b505050505081526020016001820160009054906101000a900460ff16151515158152505081526020019060010190612b8d565b505050508152505081526020019060010190612a9f565b505050509050919050565b601e6020528160005260406000208181548110612caa57600080fd5b906000526020600020906005020160009150915050806000015490806001015490806002018054612cda9061c7be565b80601f0160208091040260200160405190810160405280929190818152602001828054612d069061c7be565b8015612d535780601f10612d2857610100808354040283529160200191612d53565b820191906000526020600020905b815481529060010190602001808311612d3657829003601f168201915b5050505050908060030154908060040160009054906101000a900460ff16905085565b602f6020528160005260406000206020528060005260406000206000915091509054906101000a900460ff1681565b6000612daf619d79565b6025600088815260200190815260200160002060003373ffffffffffffffffffffffffffffffffffffffff1673ffffffffffffffffffffffffffffffffffffffff16815260200190815260200160002060009054906101000a900460ff16612e4c576040517f08c379a0000000000000000000000000000000000000000000000000000000008152600401612e439061ce5e565b60405180910390fd5b602f600088815260200190815260200160002060003373ffffffffffffffffffffffffffffffffffffffff1673ffffffffffffffffffffffffffffffffffffffff16815260200190815260200160002060009054906101000a900460ff1615612eea576040517f08c379a0000000000000000000000000000000000000000000000000000000008152600401612ee19061cef0565b60405180910390fd5b6001602f600089815260200190815260200160002060003373ffffffffffffffffffffffffffffffffffffffff1673ffffffffffffffffffffffffffffffffffffffff16815260200190815260200160002060006101000a81548160ff021916908315150217905550612f6533671bc16d674ec8000061933c565b506000878787878742604051602001612f839695949392919061cf6d565b6040516020818303038152906040528051906020012060001c905060006040518060e001604052808381526020018a81526020018981526020018781526020018681526020018881526020013373ffffffffffffffffffffffffffffffffffffffff168152509050806032600084815260200190815260200160002060008201518160000155602082015181600101556040820151816002019081613028919061cb44565b50606082015181600301908161303e919061cb44565b506080820151816004015560a082015181600501908161305e919061cb44565b5060c08201518160060160006101000a81548173ffffffffffffffffffffffffffffffffffffffff021916908373ffffffffffffffffffffffffffffffffffffffff1602179055509050507f95ad50d6596337460bdce4b8db70313463e0615be9266b573e781327aef44e098288888b6040516130de949392919061cfd1565b60405180910390a181819350935050509550959350505050565b602b818154811061310857600080fd5b90600052602060002090600402016000915090508060000154908060010154908060020180546131379061c7be565b80601f01602080910402602001604051908101604052809291908181526020018280546131639061c7be565b80156131b05780601f10613185576101008083540402835291602001916131b0565b820191906000526020600020905b81548152906001019060200180831161319357829003601f168201915b5050505050905083565b7fdf1425bae297c2f52b4f15d18a50b1fc8cb5b981a981b1d213ed3ff92681b64d81565b7fc10c77be35aff266144ed64c26a1fa104bae2f284ae99ac4a34203454704a18561320881619143565b6132128c33619429565b613251576040517f08c379a00000000000000000000000000000000000000000000000000000000081526004016132489061d09d565b60405180910390fd5b601a60008d815260200190815260200160002060003373ffffffffffffffffffffffffffffffffffffffff1673ffffffffffffffffffffffffffffffffffffffff168152602001908152602001600020600a0160009054906101000a900460ff16156132f2576040517f08c379a00000000000000000000000000000000000000000000000000000000081526004016132e99061d12f565b60405180910390fd5b6133048b8b8b8b8b8b8b8b8b8b6194f4565b6040518061016001604052808c81526020018b81526020018a815260200189815260200188815260200187815260200186815260200185815260200184815260200183815260200160011515815250601a60008e815260200190815260200160002060003373ffffffffffffffffffffffffffffffffffffffff1673ffffffffffffffffffffffffffffffffffffffff168152602001908152602001600020600082015181600001556020820151816001015560408201518160020155606082015181600301556080820151816004015560a0820151816005015560c0820151816006015560e082015181600701556101008201518160080155610120820151816009015561014082015181600a0160006101000a81548160ff0219169083151502179055509050506050613487601a60008f815260200190815260200160002060003373ffffffffffffffffffffffffffffffffffffffff1673ffffffffffffffffffffffffffffffffffffffff1681526020019081526020016000206195b9565b10613496576134958c6140ef565b5b505050505050505050505050565b600281565b6030602052816000526040600020602052806000526040600020600091509150505481565b60007fadb22091b155738d2e889eb96f509d2a7c93234236b30400927feb4a6a15ab006134fa81619143565b6000601960008681526020019081526020016000206000015403613553576040517f08c379a000000000000000000000000000000000000000000000000000000000815260040161354a9061d19b565b60405180910390fd5b82601960008681526020019081526020016000206001019081613576919061cb44565b50837f5c8c98b6b26236296c856fae8a5ca0c793bbb81c5f8b7c9a9ab99358f53fb0c0846040516135a7919061a84e565b60405180910390a2600191505092915050565b6000806016549050601f600085815260200190815260200160002060230160009054906101000a900460ff16613625576040517f08c379a000000000000000000000000000000000000000000000000000000000815260040161361c9061d207565b60405180910390fd5b60006021600083815260200190815260200160002090508481600001819055508181600101819055508381600201908161365f919061cb44565b5060018160040160006101000a81548160ff021916908315150217905550601660008154809291906136909061d227565b9190505550602a8190806001815401808255809150506001900390600052602060002090600502016000909190919091506000820154816000015560018201548160010155600282018160020190816136e9919061d285565b506003820181600301908054613700929190619dcc565b506004820160009054906101000a900460ff168160040160006101000a81548160ff02191690831515021790555050508360405161373e919061d36d565b6040518091039020827fbf27702cefbc4aea50d7c73cfee96f84f5b908f62aeafcd8b0aeae202c15050960405160405180910390a3819250505092915050565b60125481565b60326020528060005260406000206000915090508060000154908060010154908060020180546137b39061c7be565b80601f01602080910402602001604051908101604052809291908181526020018280546137df9061c7be565b801561382c5780601f106138015761010080835404028352916020019161382c565b820191906000526020600020905b81548152906001019060200180831161380f57829003601f168201915b5050505050908060030180546138419061c7be565b80601f016020809104026020016040519081016040528092919081815260200182805461386d9061c7be565b80156138ba5780601f1061388f576101008083540402835291602001916138ba565b820191906000526020600020905b81548152906001019060200180831161389d57829003601f168201915b5050505050908060040154908060050180546138d59061c7be565b80601f01602080910402602001604051908101604052809291908181526020018280546139019061c7be565b801561394e5780601f106139235761010080835404028352916020019161394e565b820191906000526020600020905b81548152906001019060200180831161393157829003601f168201915b5050505050908060060160009054906101000a900473ffffffffffffffffffffffffffffffffffffffff16905087565b60606000601654905060008167ffffffffffffffff8111156139a3576139a261ac1f565b5b6040519080825280602002602001820160405280156139dc57816020015b6139c9619e64565b8152602001906001900390816139c15790505b50905060005b82811015613d0557602160008281526020019081526020016000206040518060a00160405290816000820154815260200160018201548152602001600282018054613a2c9061c7be565b80601f0160208091040260200160405190810160405280929190818152602001828054613a589061c7be565b8015613aa55780601f10613a7a57610100808354040283529160200191613aa5565b820191906000526020600020905b815481529060010190602001808311613a8857829003601f168201915b5050505050815260200160038201805480602002602001604051908101604052809291908181526020016000905b82821015613cb757838290600052602060002090600402016040518060800160405290816000820154815260200160018201548152602001600282018054613b1a9061c7be565b80601f0160208091040260200160405190810160405280929190818152602001828054613b469061c7be565b8015613b935780601f10613b6857610100808354040283529160200191613b93565b820191906000526020600020905b815481529060010190602001808311613b7657829003601f168201915b5050505050815260200160038201805480602002602001604051908101604052809291908181526020016000905b82821015613ca05783829060005260206000209060020201604051806040016040529081600082018054613bf49061c7be565b80601f0160208091040260200160405190810160405280929190818152602001828054613c209061c7be565b8015613c6d5780601f10613c4257610100808354040283529160200191613c6d565b820191906000526020600020905b815481529060010190602001808311613c5057829003601f168201915b505050505081526020016001820160009054906101000a900460ff16151515158152505081526020019060010190613bc1565b505050508152505081526020019060010190613ad3565b5050505081526020016004820160009054906101000a900460ff161515151581525050828281518110613ced57613cec61c760565b5b602002602001018190525080806001019150506139e2565b50809250505090565b60185481565b60268181548110613d2457600080fd5b9060005260206000209060080201600091509050806000015490806001018054613d4d9061c7be565b80601f0160208091040260200160405190810160405280929190818152602001828054613d799061c7be565b8015613dc65780601f10613d9b57610100808354040283529160200191613dc6565b820191906000526020600020905b815481529060010190602001808311613da957829003601f168201915b505050505090806002018054613ddb9061c7be565b80601f0160208091040260200160405190810160405280929190818152602001828054613e079061c7be565b8015613e545780601f10613e2957610100808354040283529160200191613e54565b820191906000526020600020905b815481529060010190602001808311613e3757829003601f168201915b5050505050908060030160009054906101000a900460ff16908060040154908060050160009054906101000a900473ffffffffffffffffffffffffffffffffffffffff16908060050160149054906101000a900460ff16908060070160009054906101000a900460ff16905088565b60008060008373ffffffffffffffffffffffffffffffffffffffff1673ffffffffffffffffffffffffffffffffffffffff168152602001908152602001600020549050919050565b7fc10c77be35aff266144ed64c26a1fa104bae2f284ae99ac4a34203454704a185613f3581619143565b600860008373ffffffffffffffffffffffffffffffffffffffff1673ffffffffffffffffffffffffffffffffffffffff16815260200190815260200160002060009054906101000a900460ff1615613fc2576040517f08c379a0000000000000000000000000000000000000000000000000000000008152600401613fb99061d3d0565b60405180910390fd5b613fec7fc10c77be35aff266144ed64c26a1fa104bae2f284ae99ac4a34203454704a18583619157565b506006829080600181540180825580915050600190039060005260206000200160009091909190916101000a81548173ffffffffffffffffffffffffffffffffffffffff021916908373ffffffffffffffffffffffffffffffffffffffff1602179055506001600860008473ffffffffffffffffffffffffffffffffffffffff1673ffffffffffffffffffffffffffffffffffffffff16815260200190815260200160002060006101000a81548160ff0219169083151502179055508173ffffffffffffffffffffffffffffffffffffffff167fe1cb5e1230cc02e62c60b81c1aa5ade512f3eac296edb28628b4cf344f47f93160405160405180910390a25050565b7fc10c77be35aff266144ed64c26a1fa104bae2f284ae99ac4a34203454704a18561411981619143565b60006019600084815260200190815260200160002090508060030160009054906101000a900460ff1615614182576040517f08c379a00000000000000000000000000000000000000000000000000000000081526004016141799061d43c565b60405180910390fd5b601c60003373ffffffffffffffffffffffffffffffffffffffff1673ffffffffffffffffffffffffffffffffffffffff168152602001908152602001600020600084815260200190815260200160002060009054906101000a900460ff1615614220576040517f08c379a00000000000000000000000000000000000000000000000000000000081526004016142179061d4ce565b60405180910390fd5b6001601c60003373ffffffffffffffffffffffffffffffffffffffff1673ffffffffffffffffffffffffffffffffffffffff168152602001908152602001600020600085815260200190815260200160002060006101000a81548160ff02191690831515021790555080600401600081548092919061429e9061d227565b919050555060028160040154106143c35760018160030160006101000a81548160ff02191690831515021790555060005b6026805490508110156143865783602682815481106142f1576142f061c760565b5b906000526020600020906008020160000154036143795760016026828154811061431e5761431d61c760565b5b906000526020600020906008020160030160006101000a81548160ff02191690831515021790555081600401546026828154811061435f5761435e61c760565b5b906000526020600020906008020160040181905550614386565b80806001019150506142cf565b506143bd8160050160009054906101000a900473ffffffffffffffffffffffffffffffffffffffff16674563918244f4000061933c565b50614441565b60005b60268054905081101561443f5783602682815481106143e8576143e761c760565b5b90600052602060002090600802016000015403614432578160040154602682815481106144185761441761c760565b5b90600052602060002090600802016004018190555061443f565b80806001019150506143c6565b505b505050565b60006015549050601d600085815260200190815260200160002060040160009054906101000a900460ff166144b0576040517f08c379a00000000000000000000000000000000000000000000000000000000081526004016144a79061d53a565b60405180910390fd5b6000601f60008381526020019081526020016000209050848160000181905550818160010181905550838160020190816144ea919061cb44565b50828160030190816144fc919061cb44565b5060018160230160006101000a81548160ff021916908315150217905550600081602201819055506028601f6000848152602001908152602001600020908060018154018082558091505060019003906000526020600020906024020160009091909190915060008201548160000155600182015481600101556002820181600201908161458a919061d285565b506003820181600301908161459f919061d285565b50600482018160040190600a6145b6929190619e95565b50602282015481602201556023820160009054906101000a900460ff168160230160006101000a81548160ff0219169083151502179055505050601560008154809291906146039061d227565b9190505550600a84604051614618919061d36d565b6040518091039020837f3387c3a40ec1df95e34d25a0e5564b40d01c331b71ccbafccccc66d36c84ad8360405160405180910390a45050505050565b671bc16d674ec8000081565b60135481565b671bc16d674ec8000081565b60216020528060005260406000206000915090508060000154908060010154908060020180546146a19061c7be565b80601f01602080910402602001604051908101604052809291908181526020018280546146cd9061c7be565b801561471a5780601f106146ef5761010080835404028352916020019161471a565b820191906000526020600020905b8154815290600101906020018083116146fd57829003601f168201915b5050505050908060040160009054906101000a900460ff16905084565b60007fadb22091b155738d2e889eb96f509d2a7c93234236b30400927feb4a6a15ab0061476381619143565b60006021600086815260200190815260200160002060010154036147bc576040517f08c379a00000000000000000000000000000000000000000000000000000000081526004016147b39061cdcc565b60405180910390fd5b6000602260008581526020019081526020016000206001015403614815576040517f08c379a000000000000000000000000000000000000000000000000000000000815260040161480c9061d5a6565b60405180910390fd5b60005b602b805490508110156149525783602b828154811061483a5761483961c760565b5b9060005260206000209060040201600101540361494557602b6001602b80549050614865919061d5c6565b815481106148765761487561c760565b5b9060005260206000209060040201602b82815481106148985761489761c760565b5b90600052602060002090600402016000820154816000015560018201548160010155600282018160020190816148ce919061d285565b5060038201816003019080546148e5929190619f3f565b50905050602b8054806148fb576148fa61d5fa565b5b600190038181906000526020600020906004020160008082016000905560018201600090556002820160006149309190619fd9565b600382016000614940919061a019565b505090555b8080600101915050614818565b506022600084815260200190815260200160002060008082016000905560018201600090556002820160006149879190619fd9565b600382016000614997919061a019565b505082847ff084fa19916f58d56801346cc04ca2d2c28a5531dc7db17ebd2323685518b12660405160405180910390a3600191505092915050565b600060196000601354815260200190815260200160002060050160149054906101000a900460ff1615614a3a576040517f08c379a0000000000000000000000000000000000000000000000000000000008152600401614a319061d675565b60405180910390fd5b60006040518061012001604052806013548152602001868152602001858152602001600015158152602001600081526020013373ffffffffffffffffffffffffffffffffffffffff168152602001600115158152602001600067ffffffffffffffff811115614aac57614aab61ac1f565b5b604051908082528060200260200182016040528015614ada5781602001602082028036833780820191505090505b508152602001846002811115614af357614af261a5d8565b5b815250905080601960006013548152602001908152602001600020600082015181600001556020820151816001019081614b2d919061cb44565b506040820151816002019081614b43919061cb44565b5060608201518160030160006101000a81548160ff0219169083151502179055506080820151816004015560a08201518160050160006101000a81548173ffffffffffffffffffffffffffffffffffffffff021916908373ffffffffffffffffffffffffffffffffffffffff16021790555060c08201518160050160146101000a81548160ff02191690831515021790555060e0820151816006019080519060200190614bf192919061a03d565b506101008201518160070160006101000a81548160ff02191690836002811115614c1e57614c1d61a5d8565b5b02179055509050506026819080600181540180825580915050600190039060005260206000209060080201600090919091909150600082015181600001556020820151816001019081614c71919061cb44565b506040820151816002019081614c87919061cb44565b5060608201518160030160006101000a81548160ff0219169083151502179055506080820151816004015560a08201518160050160006101000a81548173ffffffffffffffffffffffffffffffffffffffff021916908373ffffffffffffffffffffffffffffffffffffffff16021790555060c08201518160050160146101000a81548160ff02191690831515021790555060e0820151816006019080519060200190614d3592919061a03d565b506101008201518160070160006101000a81548160ff02191690836002811115614d6257614d6161a5d8565b5b0217905550505060126000815480929190614d7c9061d227565b91905055506001601b60003373ffffffffffffffffffffffffffffffffffffffff1673ffffffffffffffffffffffffffffffffffffffff1681526020019081526020016000206000016000828254614dd4919061d695565b9250508190555060136000815480929190614dee9061d227565b9190505550614e1d7fadb22091b155738d2e889eb96f509d2a7c93234236b30400927feb4a6a15ab0033619157565b5084604051614e2c919061d36d565b60405180910390206001601354614e43919061d5c6565b7f9c93a42b217373d37e6c66ace0a67fe1fa1f78c93164b62417de69c48c0f67e2601960006001601354614e77919061d5c6565b815260200190815260200160002060030160009054906101000a900460ff16604051614ea3919061a3e9565b60405180910390a360019150509392505050565b7fadb22091b155738d2e889eb96f509d2a7c93234236b30400927feb4a6a15ab00614ee181619143565b6024600083815260200190815260200160002060009054906101000a900460ff1615614f42576040517f08c379a0000000000000000000000000000000000000000000000000000000008152600401614f399061d715565b60405180910390fd5b60036006805490501015614f8b576040517f08c379a0000000000000000000000000000000000000000000000000000000008152600401614f829061d781565b60405180910390fd5b602360008381526020019081526020016000206000614faa919061a0c7565b60005b6003811015615187576000600680549050424460068054905085604051602001614fda949392919061d7a1565b6040516020818303038152906040528051906020012060001c614ffd919061d7ef565b90506000600682815481106150155761501461c760565b5b9060005260206000200160009054906101000a900473ffffffffffffffffffffffffffffffffffffffff1690506000805b60236000888152602001908152602001600020805490508110156150fc578273ffffffffffffffffffffffffffffffffffffffff166023600089815260200190815260200160002082815481106150a05761509f61c760565b5b9060005260206000200160009054906101000a900473ffffffffffffffffffffffffffffffffffffffff1673ffffffffffffffffffffffffffffffffffffffff16036150ef57600191506150fc565b8080600101915050615046565b50806151775760236000878152602001908152602001600020829080600181540180825580915050600190039060005260206000200160009091909190916101000a81548173ffffffffffffffffffffffffffffffffffffffff021916908373ffffffffffffffffffffffffffffffffffffffff1602179055505b5050508080600101915050614fad565b5060036023600084815260200190815260200160002080549050036151d35760016024600084815260200190815260200160002060006101000a81548160ff0219169083151502179055505b817fe205dff861c570b8df17e26f893778853f94bb25d2de318755e48eab0b403ff760236000858152602001908152602001600020604051615215919061d90c565b60405180910390a25050565b60006005600084815260200190815260200160002060000160008373ffffffffffffffffffffffffffffffffffffffff1673ffffffffffffffffffffffffffffffffffffffff16815260200190815260200160002060009054906101000a900460ff16905092915050565b670de0b6b3a764000081565b6060600480546152a79061c7be565b80601f01602080910402602001604051908101604052809291908181526020018280546152d39061c7be565b80156153205780601f106152f557610100808354040283529160200191615320565b820191906000526020600020905b81548152906001019060200180831161530357829003601f168201915b5050505050905090565b602d602052816000526040600020818154811061534657600080fd5b90600052602060002001600091509150505481565b60606000602780549050905060008167ffffffffffffffff8111156153835761538261ac1f565b5b6040519080825280602002602001820160405280156153bc57816020015b6153a961a0e8565b8152602001906001900390816153a15790505b50905060005b828110156154ed57602781815481106153de576153dd61c760565b5b90600052602060002090600502016040518060a0016040529081600082015481526020016001820154815260200160028201805461541b9061c7be565b80601f01602080910402602001604051908101604052809291908181526020018280546154479061c7be565b80156154945780601f1061546957610100808354040283529160200191615494565b820191906000526020600020905b81548152906001019060200180831161547757829003601f168201915b50505050508152602001600382015481526020016004820160009054906101000a900460ff1615151515815250508282815181106154d5576154d461c760565b5b602002602001018190525080806001019150506153c2565b50809250505090565b60007fadb22091b155738d2e889eb96f509d2a7c93234236b30400927feb4a6a15ab0061552281619143565b600060196000858152602001908152602001600020600001540361557b576040517f08c379a00000000000000000000000000000000000000000000000000000000081526004016155729061d97a565b60405180910390fd5b60005b602680549050811161584357836026828154811061559f5761559e61c760565b5b9060005260206000209060080201600001540361583057602660016026805490506155ca919061d5c6565b815481106155db576155da61c760565b5b9060005260206000209060080201602682815481106155fd576155fc61c760565b5b90600052602060002090600802016000820154816000015560018201816001019081615629919061d285565b506002820181600201908161563e919061d285565b506003820160009054906101000a900460ff168160030160006101000a81548160ff021916908315150217905550600482015481600401556005820160009054906101000a900473ffffffffffffffffffffffffffffffffffffffff168160050160006101000a81548173ffffffffffffffffffffffffffffffffffffffff021916908373ffffffffffffffffffffffffffffffffffffffff1602179055506005820160149054906101000a900460ff168160050160146101000a81548160ff021916908315150217905550600682018160060190805461572092919061a119565b506007820160009054906101000a900460ff168160070160006101000a81548160ff021916908360028111156157595761575861a5d8565b5b021790555090505060268054806157735761577261d5fa565b5b60019003818190600052602060002090600802016000808201600090556001820160006157a09190619fd9565b6002820160006157b09190619fd9565b6003820160006101000a81549060ff021916905560048201600090556005820160006101000a81549073ffffffffffffffffffffffffffffffffffffffff02191690556005820160146101000a81549060ff0219169055600682016000615817919061a0c7565b6007820160006101000a81549060ff0219169055505090555b808061583b9061d227565b91505061557e565b50601960008481526020019081526020016000206000808201600090556001820160006158709190619fd9565b6002820160006158809190619fd9565b6003820160006101000a81549060ff021916905560048201600090556005820160006101000a81549073ffffffffffffffffffffffffffffffffffffffff02191690556005820160146101000a81549060ff02191690556006820160006158e7919061a0c7565b6007820160006101000a81549060ff02191690555050827f50d94198096be9c8aad282f822173f9212251c4d4dc2731fa944f3941749a78d3360405161592d919061a984565b60405180910390a26001915050919050565b60007fadb22091b155738d2e889eb96f509d2a7c93234236b30400927feb4a6a15ab0061596b81619143565b6000601d600086815260200190815260200160002060010154036159c4576040517f08c379a00000000000000000000000000000000000000000000000000000000081526004016159bb9061d9e6565b60405180910390fd5b6000601f60008581526020019081526020016000206001015403615a1d576040517f08c379a0000000000000000000000000000000000000000000000000000000008152600401615a149061da52565b60405180910390fd5b60005b6027805490508111615bc85783601f60008381526020019081526020016000206001015403615bb55760286001602880549050615a5d919061d5c6565b81548110615a6e57615a6d61c760565b5b906000526020600020906024020160288281548110615a9057615a8f61c760565b5b9060005260206000209060240201600082015481600001556001820154816001015560028201816002019081615ac6919061d285565b5060038201816003019081615adb919061d285565b50600482018160040190600a615af2929190619e95565b50602282015481602201556023820160009054906101000a900460ff168160230160006101000a81548160ff0219169083151502179055509050506028805480615b3f57615b3e61d5fa565b5b60019003818190600052602060002090602402016000808201600090556001820160009055600282016000615b749190619fd9565b600382016000615b849190619fd9565b600482016000615b94919061a16b565b60228201600090556023820160006101000a81549060ff0219169055505090555b8080615bc09061d227565b915050615a20565b50601f60008481526020019081526020016000206000808201600090556001820160009055600282016000615bfd9190619fd9565b600382016000615c0d9190619fd9565b600482016000615c1d919061a16b565b60228201600090556023820160006101000a81549060ff0219169055505082847f1cdc2ff39034471047dd6d36512a12b5c2e9a30137b2e45daecd05383221d97b60405160405180910390a3600191505092915050565b60115481565b60236020528160005260406000208181548110615c9657600080fd5b906000526020600020016000915091509054906101000a900473ffffffffffffffffffffffffffffffffffffffff1681565b6000801b81565b60606000602880549050905060008167ffffffffffffffff811115615cf757615cf661ac1f565b5b604051908082528060200260200182016040528015615d3057816020015b615d1d61a181565b815260200190600190039081615d155790505b50905060005b8281101561609e5760288181548110615d5257615d5161c760565b5b90600052602060002090602402016040518060e00160405290816000820154815260200160018201548152602001600282018054615d8f9061c7be565b80601f0160208091040260200160405190810160405280929190818152602001828054615dbb9061c7be565b8015615e085780601f10615ddd57610100808354040283529160200191615e08565b820191906000526020600020905b815481529060010190602001808311615deb57829003601f168201915b50505050508152602001600382018054615e219061c7be565b80601f0160208091040260200160405190810160405280929190818152602001828054615e4d9061c7be565b8015615e9a5780601f10615e6f57610100808354040283529160200191615e9a565b820191906000526020600020905b815481529060010190602001808311615e7d57829003601f168201915b5050505050815260200160048201600a80602002604051908101604052809291906000905b82821015616046578382600302016040518060600160405290816000820160009054906101000a900460ff166002811115615efd57615efc61a5d8565b5b6002811115615f0f57615f0e61a5d8565b5b8152602001600182018054615f239061c7be565b80601f0160208091040260200160405190810160405280929190818152602001828054615f4f9061c7be565b8015615f9c5780601f10615f7157610100808354040283529160200191615f9c565b820191906000526020600020905b815481529060010190602001808311615f7f57829003601f168201915b50505050508152602001600282018054615fb59061c7be565b80601f0160208091040260200160405190810160405280929190818152602001828054615fe19061c7be565b801561602e5780601f106160035761010080835404028352916020019161602e565b820191906000526020600020905b81548152906001019060200180831161601157829003601f168201915b50505050508152505081526020019060010190615ebf565b505050508152602001602282015481526020016023820160009054906101000a900460ff1615151515815250508282815181106160865761608561c760565b5b60200260200101819052508080600101915050615d36565b50809250505090565b601d6020528060005260406000206000915090508060000154908060010154908060020180546160d69061c7be565b80601f01602080910402602001604051908101604052809291908181526020018280546161029061c7be565b801561614f5780601f106161245761010080835404028352916020019161614f565b820191906000526020600020905b81548152906001019060200180831161613257829003601f168201915b5050505050908060030154908060040160009054906101000a900460ff16905085565b61617a619e64565b6021600083815260200190815260200160002060040160009054906101000a900460ff166161dd576040517f08c379a00000000000000000000000000000000000000000000000000000000081526004016161d49061cdcc565b60405180910390fd5b602160008381526020019081526020016000206040518060a0016040529081600082015481526020016001820154815260200160028201805461621f9061c7be565b80601f016020809104026020016040519081016040528092919081815260200182805461624b9061c7be565b80156162985780601f1061626d57610100808354040283529160200191616298565b820191906000526020600020905b81548152906001019060200180831161627b57829003601f168201915b5050505050815260200160038201805480602002602001604051908101604052809291908181526020016000905b828210156164aa5783829060005260206000209060040201604051806080016040529081600082015481526020016001820154815260200160028201805461630d9061c7be565b80601f01602080910402602001604051908101604052809291908181526020018280546163399061c7be565b80156163865780601f1061635b57610100808354040283529160200191616386565b820191906000526020600020905b81548152906001019060200180831161636957829003601f168201915b5050505050815260200160038201805480602002602001604051908101604052809291908181526020016000905b8282101561649357838290600052602060002090600202016040518060400160405290816000820180546163e79061c7be565b80601f01602080910402602001604051908101604052809291908181526020018280546164139061c7be565b80156164605780601f1061643557610100808354040283529160200191616460565b820191906000526020600020905b81548152906001019060200180831161644357829003601f168201915b505050505081526020016001820160009054906101000a900460ff161515151581525050815260200190600101906163b4565b5050505081525050815260200190600101906162c6565b5050505081526020016004820160009054906101000a900460ff1615151515815250509050919050565b6000806164df618d8c565b90506164ec81858561904f565b600191505092915050565b60208052816000526040600020818154811061651257600080fd5b9060005260206000200160009150915050805461652e9061c7be565b80601f016020809104026020016040519081016040528092919081815260200182805461655a9061c7be565b80156165a75780601f1061657c576101008083540402835291602001916165a7565b820191906000526020600020905b81548152906001019060200180831161658a57829003601f168201915b505050505081565b6060601e6000838152602001908152602001600020805480602002602001604051908101604052809291908181526020016000905b828210156166e157838290600052602060002090600502016040518060a0016040529081600082015481526020016001820154815260200160028201805461662b9061c7be565b80601f01602080910402602001604051908101604052809291908181526020018280546166579061c7be565b80156166a45780601f10616679576101008083540402835291602001916166a4565b820191906000526020600020905b81548152906001019060200180831161668757829003601f168201915b50505050508152602001600382015481526020016004820160009054906101000a900460ff161515151581525050815260200190600101906165e4565b505050509050919050565b605081565b7fadb22091b155738d2e889eb96f509d2a7c93234236b30400927feb4a6a15ab0061671b81619143565b6000601f600087815260200190815260200160002090508060230160009054906101000a900460ff16616783576040517f08c379a000000000000000000000000000000000000000000000000000000000815260040161677a9061dabe565b60405180910390fd5b600081602201549050600a858590508261679d919061d695565b11156167de576040517f08c379a00000000000000000000000000000000000000000000000000000000081526004016167d59061db2a565b60405180910390fd5b60005b858590508110156169cf57604051806060016040528087878481811061680a5761680961c760565b5b905060200281019061681c919061db59565b600001602081019061682e919061db81565b60028111156168405761683f61a5d8565b5b81526020018787848181106168585761685761c760565b5b905060200281019061686a919061db59565b8060200190616879919061dbae565b8080601f016020809104026020016040519081016040528093929190818152602001838380828437600081840152601f19601f8201169050808301925050505050505081526020018787848181106168d4576168d361c760565b5b90506020028101906168e6919061db59565b80604001906168f5919061dbae565b8080601f016020809104026020016040519081016040528093929190818152602001838380828437600081840152601f19601f820116905080830192505050505050508152508360040183600a81106169515761695061c760565b5b6003020160008201518160000160006101000a81548160ff021916908360028111156169805761697f61a5d8565b5b0217905550602082015181600101908161699a919061cb44565b5060408201518160020190816169b0919061cb44565b5090505081806169bf9061d227565b92505080806001019150506167e1565b5080826022018190555060005b602880549050811015616ad95787602882815481106169fe576169fd61c760565b5b90600052602060002090602402016001015403616acc578260288281548110616a2a57616a2961c760565b5b9060005260206000209060240201600082015481600001556001820154816001015560028201816002019081616a60919061d285565b5060038201816003019081616a75919061d285565b50600482018160040190600a616a8c929190619e95565b50602282015481602201556023820160009054906101000a900460ff168160230160006101000a81548160ff021916908315150217905550905050616ad9565b80806001019150506169dc565b5050505050505050565b7fdf1425bae297c2f52b4f15d18a50b1fc8cb5b981a981b1d213ed3ff92681b64d616b0d81619143565b60006009600084815260200190815260200160002090508060050160009054906101000a900460ff1615616b76576040517f08c379a0000000000000000000000000000000000000000000000000000000008152600401616b6d9061dc5d565b60405180910390fd5b8060060160003373ffffffffffffffffffffffffffffffffffffffff1673ffffffffffffffffffffffffffffffffffffffff16815260200190815260200160002060009054906101000a900460ff1615616c05576040517f08c379a0000000000000000000000000000000000000000000000000000000008152600401616bfc9061dcc9565b60405180910390fd5b60018160060160003373ffffffffffffffffffffffffffffffffffffffff1673ffffffffffffffffffffffffffffffffffffffff16815260200190815260200160002060006101000a81548160ff021916908315150217905550806004016000815480929190616c749061d227565b9190505550827f5d4ccf5f92566d140246f4ae3b9cb35dc06fff109a7748602ad77f6260fd9a6133604051616ca9919061a984565b60405180910390a26003816004015410616ddd5760008160020160009054906101000a900473ffffffffffffffffffffffffffffffffffffffff1673ffffffffffffffffffffffffffffffffffffffff1682600301604051616d0b919061dd8c565b6000604051808303816000865af19150503d8060008114616d48576040519150601f19603f3d011682016040523d82523d6000602084013e616d4d565b606091505b5050905080616d91576040517f08c379a0000000000000000000000000000000000000000000000000000000008152600401616d889061ddef565b60405180910390fd5b60018260050160006101000a81548160ff021916908315150217905550837f7770356c29230b95943aec59d47ead11eb426a728bf5b57f7fd8597f3c0e29ba60405160405180910390a2505b505050565b601f602052806000526040600020600091509050806000015490806001015490806002018054616e119061c7be565b80601f0160208091040260200160405190810160405280929190818152602001828054616e3d9061c7be565b8015616e8a5780601f10616e5f57610100808354040283529160200191616e8a565b820191906000526020600020905b815481529060010190602001808311616e6d57829003601f168201915b505050505090806003018054616e9f9061c7be565b80601f0160208091040260200160405190810160405280929190818152602001828054616ecb9061c7be565b8015616f185780601f10616eed57610100808354040283529160200191616f18565b820191906000526020600020905b815481529060010190602001808311616efb57829003601f168201915b5050505050908060220154908060230160009054906101000a900460ff16905086565b601a6020528160005260406000206020528060005260406000206000915091505080600001549080600101549080600201549080600301549080600401549080600501549080600601549080600701549080600801549080600901549080600a0160009054906101000a900460ff1690508b565b60606023600083815260200190815260200160002080548060200260200160405190810160405280929190818152602001828054801561704457602002820191906000526020600020905b8160009054906101000a900473ffffffffffffffffffffffffffffffffffffffff1673ffffffffffffffffffffffffffffffffffffffff1681526020019060010190808311616ffa575b50505050509050919050565b60086020528060005260406000206000915054906101000a900460ff1681565b6000601154905090565b6027818154811061708a57600080fd5b90600052602060002090600502016000915090508060000154908060010154908060020180546170b99061c7be565b80601f01602080910402602001604051908101604052809291908181526020018280546170e59061c7be565b80156171325780601f1061710757610100808354040283529160200191617132565b820191906000526020600020905b81548152906001019060200180831161711557829003601f168201915b5050505050908060030154908060040160009054906101000a900460ff16905085565b6000801b61716281619143565b600860008373ffffffffffffffffffffffffffffffffffffffff1673ffffffffffffffffffffffffffffffffffffffff16815260200190815260200160002060009054906101000a900460ff166171ee576040517f08c379a00000000000000000000000000000000000000000000000000000000081526004016171e59061de5b565b60405180910390fd5b60005b600680549050811015617374578273ffffffffffffffffffffffffffffffffffffffff16600682815481106172295761722861c760565b5b9060005260206000200160009054906101000a900473ffffffffffffffffffffffffffffffffffffffff1673ffffffffffffffffffffffffffffffffffffffff16036173675760066001600680549050617283919061d5c6565b815481106172945761729361c760565b5b9060005260206000200160009054906101000a900473ffffffffffffffffffffffffffffffffffffffff16600682815481106172d3576172d261c760565b5b9060005260206000200160006101000a81548173ffffffffffffffffffffffffffffffffffffffff021916908373ffffffffffffffffffffffffffffffffffffffff160217905550600680548061732d5761732c61d5fa565b5b6001900381819060005260206000200160006101000a81549073ffffffffffffffffffffffffffffffffffffffff02191690559055617374565b80806001019150506171f1565b506000600860008473ffffffffffffffffffffffffffffffffffffffff1673ffffffffffffffffffffffffffffffffffffffff16815260200190815260200160002060006101000a81548160ff0219169083151502179055506173f77fc10c77be35aff266144ed64c26a1fa104bae2f284ae99ac4a34203454704a18583619249565b508173ffffffffffffffffffffffffffffffffffffffff167f55dba9d79522b91b615629d5f3b10c2fad2d258f1768614f4a52e937ada0d0ba60405160405180910390a25050565b60256020528160005260406000206020528060005260406000206000915091509054906101000a900460ff1681565b6000602c600083815260200190815260200160002060003373ffffffffffffffffffffffffffffffffffffffff1673ffffffffffffffffffffffffffffffffffffffff16815260200190815260200160002060009054906101000a900460ff161561750e576040517f08c379a00000000000000000000000000000000000000000000000000000000081526004016175059061dec7565b60405180910390fd5b6000601f60008481526020019081526020016000206001015403617567576040517f08c379a000000000000000000000000000000000000000000000000000000000815260040161755e9061da52565b60405180910390fd5b6001602c600084815260200190815260200160002060003373ffffffffffffffffffffffffffffffffffffffff1673ffffffffffffffffffffffffffffffffffffffff16815260200190815260200160002060006101000a81548160ff021916908315150217905550602d60003373ffffffffffffffffffffffffffffffffffffffff1673ffffffffffffffffffffffffffffffffffffffff168152602001908152602001600020829080600181540180825580915050600190039060005260206000200160009091909190915055602e60003373ffffffffffffffffffffffffffffffffffffffff1673ffffffffffffffffffffffffffffffffffffffff168152602001908152602001600020600085815260200190815260200160002082908060018154018082558091505060019003906000526020600020016000909190919091505581837f2479aa0d18311382446edb0fa11d0dbd5bab1be78b1e60b343ffe4d2a5f798ad336040516176de919061a984565b60405180910390a3600190509392505050565b60008073ffffffffffffffffffffffffffffffffffffffff166019600086815260200190815260200160002060050160009054906101000a900473ffffffffffffffffffffffffffffffffffffffff1673ffffffffffffffffffffffffffffffffffffffff1603617797576040517f08c379a000000000000000000000000000000000000000000000000000000000815260040161778e9061df33565b60405180910390fd5b60005b83518110156179af5760006040518060a0016040528087815260200160145481526020018684815181106177d1576177d061c760565b5b602002602001015181526020018584815181106177f1576177f061c760565b5b6020026020010151815260200160011515815250905060278190806001815401808255809150506001900390600052602060002090600502016000909190919091506000820151816000015560208201518160010155604082015181600201908161785c919061cb44565b506060820151816003015560808201518160040160006101000a81548160ff021916908315150217905550505080601d60006014548152602001908152602001600020600082015181600001556020820151816001015560408201518160020190816178c8919061cb44565b506060820151816003015560808201518160040160006101000a81548160ff021916908315150217905550905050601e60008781526020019081526020016000208190806001815401808255809150506001900390600052602060002090600502016000909190919091506000820151816000015560208201518160010155604082015181600201908161795c919061cb44565b506060820151816003015560808201518160040160006101000a81548160ff02191690831515021790555050506014600081548092919061799c9061d227565b919050555050808060010191505061779a565b508251847f1eb97e969f52c132bb6c79817d1f9001078fff0cd328ce625628e1fb4cc0e7de60405160405180910390a3600190509392505050565b6021600085815260200190815260200160002060040160009054906101000a900460ff16617a4d576040517f08c379a0000000000000000000000000000000000000000000000000000000008152600401617a449061cdcc565b60405180910390fd5b60008251118015617a6057506004825111155b617a9f576040517f08c379a0000000000000000000000000000000000000000000000000000000008152600401617a969061df9f565b60405180910390fd5b81518160ff1610617ae5576040517f08c379a0000000000000000000000000000000000000000000000000000000008152600401617adc9061e00b565b60405180910390fd5b60006017549050600060226000838152602001908152602001600020905085816000018190555081816001018190555084816002019081617b26919061cb44565b5060005b84518160ff161015617bf05760006040518060400160405280878460ff1681518110617b5957617b5861c760565b5b602002602001015181526020018660ff168460ff161415158152509050826003018190806001815401808255809150506001900390600052602060002090600202016000909190919091506000820151816000019081617bb9919061cb44565b5060208201518160010160006101000a81548160ff0219169083151502179055505050508080617be89061e02b565b915050617b2a565b5060216000878152602001908152602001600020600301819080600181540180825580915050600190039060005260206000209060040201600090919091909150600082015481600001556001820154816001015560028201816002019081617c59919061d285565b506003820181600301908054617c70929190619f3f565b50505060176000815480929190617c869061d227565b9190505550602b819080600181540180825580915050600190039060005260206000209060040201600090919091909150600082015481600001556001820154816001015560028201816002019081617cdf919061d285565b506003820181600301908054617cf6929190619f3f565b5050507fa5bdacf4d1324fdd584bc65cf0315e4975d00b33a7ca0e6d0a73c88df8430b95868387604051617d2c9392919061afed565b60405180910390a160005b84518160ff161015617dbe577f06ef0ba2ad58c9f8eef2fc98c08fd18d801c4a971eeb45afd07f0fee3f9d60c4838260ff16601854617d76919061d695565b878460ff1681518110617d8c57617d8b61c760565b5b6020026020010151604051617da39392919061afed565b60405180910390a18080617db69061e02b565b915050617d37565b50835160186000828254617dd2919061d695565b92505081905550505050505050565b617dea82611e59565b617df381619143565b617dfd8383619249565b50505050565b674563918244f4000081565b6000600160008473ffffffffffffffffffffffffffffffffffffffff1673ffffffffffffffffffffffffffffffffffffffff16815260200190815260200160002060008373ffffffffffffffffffffffffffffffffffffffff1673ffffffffffffffffffffffffffffffffffffffff16815260200190815260200160002054905092915050565b60298181548110617ea657600080fd5b90600052602060002090600302016000915090508060000160009054906101000a900460ff1690806001018054617edc9061c7be565b80601f0160208091040260200160405190810160405280929190818152602001828054617f089061c7be565b8015617f555780601f10617f2a57610100808354040283529160200191617f55565b820191906000526020600020905b815481529060010190602001808311617f3857829003601f168201915b505050505090806002018054617f6a9061c7be565b80601f0160208091040260200160405190810160405280929190818152602001828054617f969061c7be565b8015617fe35780601f10617fb857610100808354040283529160200191617fe3565b820191906000526020600020905b815481529060010190602001808311617fc657829003601f168201915b5050505050905083565b600080602160008581526020019081526020016000209050600081600301805490509050600081855114618056576040517f08c379a000000000000000000000000000000000000000000000000000000000815260040161804d9061e0c6565b60405180910390fd5b60005b828110156181495760008460030182815481106180795761807861c760565b5b90600052602060002090600402019050600087838151811061809e5761809d61c760565b5b60200260200101519050816003018054905081106180f1576040517f08c379a00000000000000000000000000000000000000000000000000000000081526004016180e89061e132565b60405180910390fd5b8160030181815481106181075761810661c760565b5b906000526020600020906002020160010160009054906101000a900460ff161561813a5783806181369061d227565b9450505b50508080600101915050618059565b5081606482618158919061c88a565b618162919061c8fb565b9350604b841061823e5760016031600088815260200190815260200160002060003373ffffffffffffffffffffffffffffffffffffffff1673ffffffffffffffffffffffffffffffffffffffff16815260200190815260200160002060006101000a81548160ff02191690831515021790555083603060003373ffffffffffffffffffffffffffffffffffffffff1673ffffffffffffffffffffffffffffffffffffffff16815260200190815260200160002060008881526020019081526020016000208190555061823c33670de0b6b3a764000061933c565b505b3373ffffffffffffffffffffffffffffffffffffffff167fcce9b9ed7e05afc64f73f1ce3f6ff1011a740b718ae6277a14698a4ef2d62dbf878660405161828692919061e152565b60405180910390a250505092915050565b6000600b60000154905090565b60007fadb22091b155738d2e889eb96f509d2a7c93234236b30400927feb4a6a15ab006182d081619143565b7fadb22091b155738d2e889eb96f509d2a7c93234236b30400927feb4a6a15ab006182fa81619143565b6000601960008781526020019081526020016000206000015403618353576040517f08c379a000000000000000000000000000000000000000000000000000000000815260040161834a9061e1c7565b60405180910390fd5b6000601d600086815260200190815260200160002060010154036183ac576040517f08c379a00000000000000000000000000000000000000000000000000000000081526004016183a39061d9e6565b60405180910390fd5b60005b602780549050811161850b5784601d600083815260200190815260200160002060010154036184f857602760016027805490506183ec919061d5c6565b815481106183fd576183fc61c760565b5b90600052602060002090600502016027828154811061841f5761841e61c760565b5b9060005260206000209060050201600082015481600001556001820154816001015560028201816002019081618455919061d285565b50600382015481600301556004820160009054906101000a900460ff168160040160006101000a81548160ff02191690831515021790555090505060278054806184a2576184a161d5fa565b5b600190038181906000526020600020906005020160008082016000905560018201600090556002820160006184d79190619fd9565b60038201600090556004820160006101000a81549060ff0219169055505090555b80806185039061d227565b9150506183af565b50601d600085815260200190815260200160002060008082016000905560018201600090556002820160006185409190619fd9565b60038201600090556004820160006101000a81549060ff0219169055505083857fab6d08543726a41eac26ac96d0b4591127baed3bfb915d2603ccb9fb2440c42560405160405180910390a360019250505092915050565b60165481565b60007fadb22091b155738d2e889eb96f509d2a7c93234236b30400927feb4a6a15ab006185ca81619143565b6000601d60008681526020019081526020016000206001015403618623576040517f08c379a000000000000000000000000000000000000000000000000000000000815260040161861a9061e233565b60405180910390fd5b82601d60008681526020019081526020016000206002019081618646919061cb44565b5083857f7714a2fe2221824dfd5cd15f7cc29e38ffefcf9b6ad62c216321afcde79cbcfb85604051618678919061a84e565b60405180910390a360019150509392505050565b60007fadb22091b155738d2e889eb96f509d2a7c93234236b30400927feb4a6a15ab006186b881619143565b6000601f60008681526020019081526020016000206001015403618711576040517f08c379a00000000000000000000000000000000000000000000000000000000081526004016187089061da52565b60405180910390fd5b600060216000858152602001908152602001600020600101540361876a576040517f08c379a00000000000000000000000000000000000000000000000000000000081526004016187619061e29f565b60405180910390fd5b60005b60278054905081116188de57836021600086815260200190815260200160002060010154036188cb57602a6001602a805490506187aa919061d5c6565b815481106187bb576187ba61c760565b5b9060005260206000209060050201602a82815481106187dd576187dc61c760565b5b9060005260206000209060050201600082015481600001556001820154816001015560028201816002019081618813919061d285565b50600382018160030190805461882a929190619dcc565b506004820160009054906101000a900460ff168160040160006101000a81548160ff021916908315150217905550905050602a80548061886d5761886c61d5fa565b5b600190038181906000526020600020906005020160008082016000905560018201600090556002820160006188a29190619fd9565b6003820160006188b2919061a1c6565b6004820160006101000a81549060ff0219169055505090555b80806188d69061d227565b91505061876d565b506021600084815260200190815260200160002060008082016000905560018201600090556002820160006189139190619fd9565b600382016000618923919061a1c6565b6004820160006101000a81549060ff0219169055505082847f22a69f3183c2804ef4ff588b6321a6351c1863419286c584919ab8f923cbd5a460405160405180910390a3600191505092915050565b60175481565b6000618982618da6565b6019600083815260200190815260200160002060030160009054906101000a900460ff166189e5576040517f08c379a00000000000000000000000000000000000000000000000000000000081526004016189dc9061e30b565b60405180910390fd5b6025600083815260200190815260200160002060003373ffffffffffffffffffffffffffffffffffffffff1673ffffffffffffffffffffffffffffffffffffffff16815260200190815260200160002060009054906101000a900460ff1615618a83576040517f08c379a0000000000000000000000000000000000000000000000000000000008152600401618a7a9061e377565b60405180910390fd5b6019600083815260200190815260200160002060050160149054906101000a900460ff16618ae6576040517f08c379a0000000000000000000000000000000000000000000000000000000008152600401618add9061df33565b60405180910390fd5b6000601960008481526020019081526020016000209050600060268481548110618b1357618b1261c760565b5b9060005260206000209060080201905081600601339080600181540180825580915050600190039060005260206000200160009091909190916101000a81548173ffffffffffffffffffffffffffffffffffffffff021916908373ffffffffffffffffffffffffffffffffffffffff16021790555080600601339080600181540180825580915050600190039060005260206000200160009091909190916101000a81548173ffffffffffffffffffffffffffffffffffffffff021916908373ffffffffffffffffffffffffffffffffffffffff16021790555060016025600086815260200190815260200160002060003373ffffffffffffffffffffffffffffffffffffffff1673ffffffffffffffffffffffffffffffffffffffff16815260200190815260200160002060006101000a81548160ff021916908315150217905550618c6833671bc16d674ec8000061933c565b503373ffffffffffffffffffffffffffffffffffffffff16847f4bf249f6b0ca5630ea4816c04b928b864a2065cb51658fd6223d83b727fd326b60405160405180910390a3600192505050618cbb618fb0565b919050565b6000618cec7fc10c77be35aff266144ed64c26a1fa104bae2f284ae99ac4a34203454704a18583615221565b9050919050565b601c6020528160005260406000206020528060005260406000206000915091509054906101000a900460ff1681565b60007f01ffc9a7000000000000000000000000000000000000000000000000000000007bffffffffffffffffffffffffffffffffffffffffffffffffffffffff1916827bffffffffffffffffffffffffffffffffffffffffffffffffffffffff1916149050919050565b600033905090565b618da1838383600161964e565b505050565b6002600a5403618de2576040517f3ee5aeb500000000000000000000000000000000000000000000000000000000815260040160405180910390fd5b6002600a81905550565b60005b8280549050811015618f84578173ffffffffffffffffffffffffffffffffffffffff16838281548110618e2557618e2461c760565b5b9060005260206000200160009054906101000a900473ffffffffffffffffffffffffffffffffffffffff1673ffffffffffffffffffffffffffffffffffffffff1603618f775760018380549050618e7c919061d5c6565b8114618f2c578260018480549050618e94919061d5c6565b81548110618ea557618ea461c760565b5b9060005260206000200160009054906101000a900473ffffffffffffffffffffffffffffffffffffffff16838281548110618ee357618ee261c760565b5b9060005260206000200160006101000a81548173ffffffffffffffffffffffffffffffffffffffff021916908373ffffffffffffffffffffffffffffffffffffffff1602179055505b82805480618f3d57618f3c61d5fa565b5b6001900381819060005260206000200160006101000a81549073ffffffffffffffffffffffffffffffffffffffff02191690559055618f84565b8080600101915050618def565b505050565b618f938282619825565b8060116000828254618fa5919061d5c6565b925050819055505050565b6001600a81905550565b6000618fc68484617e0f565b90507fffffffffffffffffffffffffffffffffffffffffffffffffffffffffffffffff8110156190495781811015619039578281836040517ffb8f41b20000000000000000000000000000000000000000000000000000000081526004016190309392919061e397565b60405180910390fd5b6190488484848403600061964e565b5b50505050565b600073ffffffffffffffffffffffffffffffffffffffff168373ffffffffffffffffffffffffffffffffffffffff16036190c15760006040517f96c6fd1e0000000000000000000000000000000000000000000000000000000081526004016190b8919061a984565b60405180910390fd5b600073ffffffffffffffffffffffffffffffffffffffff168273ffffffffffffffffffffffffffffffffffffffff16036191335760006040517fec442f0500000000000000000000000000000000000000000000000000000000815260040161912a919061a984565b60405180910390fd5b61913e8383836198cc565b505050565b6191548161914f618d8c565b619af1565b50565b60006191638383615221565b61923e5760016005600085815260200190815260200160002060000160008473ffffffffffffffffffffffffffffffffffffffff1673ffffffffffffffffffffffffffffffffffffffff16815260200190815260200160002060006101000a81548160ff0219169083151502179055506191db618d8c565b73ffffffffffffffffffffffffffffffffffffffff168273ffffffffffffffffffffffffffffffffffffffff16847f2f8788117e7eff1d82e926ec794901d17c78024a50270940304540a733656f0d60405160405180910390a460019050619243565b600090505b92915050565b60006192558383615221565b156193315760006005600085815260200190815260200160002060000160008473ffffffffffffffffffffffffffffffffffffffff1673ffffffffffffffffffffffffffffffffffffffff16815260200190815260200160002060006101000a81548160ff0219169083151502179055506192ce618d8c565b73ffffffffffffffffffffffffffffffffffffffff168273ffffffffffffffffffffffffffffffffffffffff16847ff6391f5c32d9c69d2a47ea670b442974b53935d1edc7fd64eb21e047a839171b60405160405180910390a460019050619336565b600090505b92915050565b60006064600f6b204fce5e3e25026110000000619359919061c88a565b619363919061c8fb565b61936b617070565b83619376919061d695565b11156193b7576040517f08c379a00000000000000000000000000000000000000000000000000000000081526004016193ae9061e41a565b60405180910390fd5b6193c18383619b42565b5081601160008282546193d4919061d695565b92505081905550818373ffffffffffffffffffffffffffffffffffffffff167fad6ef58d5c294f81258965738e7ae511124139834a8d0b8f8f7327086c82052a60405160405180910390a36001905092915050565b600080600090505b60236000858152602001908152602001600020805490508110156194e8578273ffffffffffffffffffffffffffffffffffffffff1660236000868152602001908152602001600020828154811061948b5761948a61c760565b5b9060005260206000200160009054906101000a900473ffffffffffffffffffffffffffffffffffffffff1673ffffffffffffffffffffffffffffffffffffffff16036194db5760019150506194ee565b8080600101915050619431565b50600090505b92915050565b600a8a111580156195065750600a8911155b80156195135750600a8811155b80156195205750600a8711155b801561952d5750600a8611155b801561953a5750600a8511155b80156195475750600a8411155b80156195545750600a8311155b80156195615750600a8211155b801561956e5750600a8111155b6195ad576040517f08c379a00000000000000000000000000000000000000000000000000000000081526004016195a49061e486565b60405180910390fd5b50505050505050505050565b60008160090154826008015483600701548460060154856005015486600401548760030154886002015489600101548a600001546195f7919061d695565b619601919061d695565b61960b919061d695565b619615919061d695565b61961f919061d695565b619629919061d695565b619633919061d695565b61963d919061d695565b619647919061d695565b9050919050565b600073ffffffffffffffffffffffffffffffffffffffff168473ffffffffffffffffffffffffffffffffffffffff16036196c05760006040517fe602df050000000000000000000000000000000000000000000000000000000081526004016196b7919061a984565b60405180910390fd5b600073ffffffffffffffffffffffffffffffffffffffff168373ffffffffffffffffffffffffffffffffffffffff16036197325760006040517f94280d62000000000000000000000000000000000000000000000000000000008152600401619729919061a984565b60405180910390fd5b81600160008673ffffffffffffffffffffffffffffffffffffffff1673ffffffffffffffffffffffffffffffffffffffff16815260200190815260200160002060008573ffffffffffffffffffffffffffffffffffffffff1673ffffffffffffffffffffffffffffffffffffffff16815260200190815260200160002081905550801561981f578273ffffffffffffffffffffffffffffffffffffffff168473ffffffffffffffffffffffffffffffffffffffff167f8c5be1e5ebec7d5bd14f71427d1e84f3dd0314c0f7b2291e5b200ac8c7c3b92584604051619816919061a7e9565b60405180910390a35b50505050565b8061982f83613ec3565b1015619870576040517f08c379a00000000000000000000000000000000000000000000000000000000081526004016198679061e4f2565b60405180910390fd5b61987a8282619bfd565b8173ffffffffffffffffffffffffffffffffffffffff167f5b5d8478b570a79ab6b3bf13ff029fba19c02ab0d54d692d4ef0d9052d5cc850826040516198c0919061a7e9565b60405180910390a25050565b600073ffffffffffffffffffffffffffffffffffffffff168373ffffffffffffffffffffffffffffffffffffffff160361991e578060026000828254619912919061d695565b925050819055506199f1565b60008060008573ffffffffffffffffffffffffffffffffffffffff1673ffffffffffffffffffffffffffffffffffffffff168152602001908152602001600020549050818110156199aa578381836040517fe450d38c0000000000000000000000000000000000000000000000000000000081526004016199a19392919061e397565b60405180910390fd5b8181036000808673ffffffffffffffffffffffffffffffffffffffff1673ffffffffffffffffffffffffffffffffffffffff16815260200190815260200160002081905550505b600073ffffffffffffffffffffffffffffffffffffffff168273ffffffffffffffffffffffffffffffffffffffff1603619a3a5780600260008282540392505081905550619a87565b806000808473ffffffffffffffffffffffffffffffffffffffff1673ffffffffffffffffffffffffffffffffffffffff168152602001908152602001600020600082825401925050819055505b8173ffffffffffffffffffffffffffffffffffffffff168373ffffffffffffffffffffffffffffffffffffffff167fddf252ad1be2c89b69c2b068fc378daa952ba7f163c4a11628f55a4df523b3ef83604051619ae4919061a7e9565b60405180910390a3505050565b619afb8282615221565b619b3e5780826040517fe2517d3f000000000000000000000000000000000000000000000000000000008152600401619b3592919061e512565b60405180910390fd5b5050565b60006b204fce5e3e25026110000000619b59611c11565b83619b64919061d695565b1115619ba5576040517f08c379a0000000000000000000000000000000000000000000000000000000008152600401619b9c9061e41a565b60405180910390fd5b619baf8383619c7f565b818373ffffffffffffffffffffffffffffffffffffffff167fcda531bfd68624f13205c0a23cd4d5a7f09792cbb399603114f2b04aaa1bf5cf60405160405180910390a36001905092915050565b600073ffffffffffffffffffffffffffffffffffffffff168273ffffffffffffffffffffffffffffffffffffffff1603619c6f5760006040517f96c6fd1e000000000000000000000000000000000000000000000000000000008152600401619c66919061a984565b60405180910390fd5b619c7b826000836198cc565b5050565b600073ffffffffffffffffffffffffffffffffffffffff168273ffffffffffffffffffffffffffffffffffffffff1603619cf15760006040517fec442f05000000000000000000000000000000000000000000000000000000008152600401619ce8919061a984565b60405180910390fd5b619cfd600083836198cc565b5050565b60405180610120016040528060008152602001606081526020016060815260200160001515815260200160008152602001600073ffffffffffffffffffffffffffffffffffffffff1681526020016000151581526020016060815260200160006002811115619d7357619d7261a5d8565b5b81525090565b6040518060e00160405280600081526020016000815260200160608152602001606081526020016000815260200160608152602001600073ffffffffffffffffffffffffffffffffffffffff1681525090565b828054828255906000526020600020906004028101928215619e535760005260206000209160040282015b82811115619e52578282600082015481600001556001820154816001015560028201816002019081619e29919061d285565b506003820181600301908054619e40929190619f3f565b50505091600401919060040190619df7565b5b509050619e60919061a1ea565b5090565b6040518060a00160405280600081526020016000815260200160608152602001606081526020016000151581525090565b82600a6003028101928215619f2e579160030282015b82811115619f2d5782826000820160009054906101000a900460ff168160000160006101000a81548160ff02191690836002811115619eed57619eec61a5d8565b5b021790555060018201816001019081619f06919061d285565b5060028201816002019081619f1b919061d285565b50505091600301919060030190619eab565b5b509050619f3b919061a231565b5090565b828054828255906000526020600020906002028101928215619fc85760005260206000209160020282015b82811115619fc757828260008201816000019081619f88919061d285565b506001820160009054906101000a900460ff168160010160006101000a81548160ff021916908315150217905550505091600201919060020190619f6a565b5b509050619fd5919061a27c565b5090565b508054619fe59061c7be565b6000825580601f10619ff7575061a016565b601f01602090049060005260206000209081019061a015919061a2b7565b5b50565b508054600082556002029060005260206000209081019061a03a919061a27c565b50565b82805482825590600052602060002090810192821561a0b6579160200282015b8281111561a0b55782518260006101000a81548173ffffffffffffffffffffffffffffffffffffffff021916908373ffffffffffffffffffffffffffffffffffffffff1602179055509160200191906001019061a05d565b5b50905061a0c3919061a2b7565b5090565b508054600082559060005260206000209081019061a0e5919061a2b7565b50565b6040518060a00160405280600081526020016000815260200160608152602001600081526020016000151581525090565b82805482825590600052602060002090810192821561a15a5760005260206000209182015b8281111561a15957825482559160010191906001019061a13e565b5b50905061a167919061a2b7565b5090565b5080600a600302019061a17e919061a231565b50565b6040518060e001604052806000815260200160008152602001606081526020016060815260200161a1b061a2d4565b8152602001600081526020016000151581525090565b508054600082556004029060005260206000209081019061a1e7919061a1ea565b50565b5b8082111561a22d57600080820160009055600182016000905560028201600061a2149190619fd9565b60038201600061a224919061a019565b5060040161a1eb565b5090565b5b8082111561a27857600080820160006101000a81549060ff021916905560018201600061a25f9190619fd9565b60028201600061a26f9190619fd9565b5060030161a232565b5090565b5b8082111561a2b3576000808201600061a2969190619fd9565b6001820160006101000a81549060ff02191690555060020161a27d565b5090565b5b8082111561a2d057600081600090555060010161a2b8565b5090565b604051806101400160405280600a905b61a2ec61a302565b81526020019060019003908161a2e45790505090565b60405180606001604052806000600281111561a3215761a32061a5d8565b5b815260200160608152602001606081525090565b6000604051905090565b600080fd5b600080fd5b60007fffffffff0000000000000000000000000000000000000000000000000000000082169050919050565b61a37e8161a349565b811461a38957600080fd5b50565b60008135905061a39b8161a375565b92915050565b60006020828403121561a3b75761a3b661a33f565b5b600061a3c58482850161a38c565b91505092915050565b60008115159050919050565b61a3e38161a3ce565b82525050565b600060208201905061a3fe600083018461a3da565b92915050565b600081519050919050565b600082825260208201905092915050565b6000819050602082019050919050565b6000819050919050565b61a4438161a430565b82525050565b600081519050919050565b600082825260208201905092915050565b60005b8381101561a48357808201518184015260208101905061a468565b60008484015250505050565b6000601f19601f8301169050919050565b600061a4ab8261a449565b61a4b5818561a454565b935061a4c581856020860161a465565b61a4ce8161a48f565b840191505092915050565b61a4e28161a3ce565b82525050565b600073ffffffffffffffffffffffffffffffffffffffff82169050919050565b600061a5138261a4e8565b9050919050565b61a5238161a508565b82525050565b600081519050919050565b600082825260208201905092915050565b6000819050602082019050919050565b600061a561838361a51a565b60208301905092915050565b6000602082019050919050565b600061a5858261a529565b61a58f818561a534565b935061a59a8361a545565b8060005b8381101561a5cb57815161a5b2888261a555565b975061a5bd8361a56d565b92505060018101905061a59e565b5085935050505092915050565b7f4e487b7100000000000000000000000000000000000000000000000000000000600052602160045260246000fd5b6003811061a6185761a61761a5d8565b5b50565b600081905061a6298261a607565b919050565b600061a6398261a61b565b9050919050565b61a6498161a62e565b82525050565b60006101208301600083015161a668600086018261a43a565b506020830151848203602086015261a680828261a4a0565b9150506040830151848203604086015261a69a828261a4a0565b915050606083015161a6af606086018261a4d9565b50608083015161a6c2608086018261a43a565b5060a083015161a6d560a086018261a51a565b5060c083015161a6e860c086018261a4d9565b5060e083015184820360e086015261a700828261a57a565b91505061010083015161a71761010086018261a640565b508091505092915050565b600061a72e838361a64f565b905092915050565b6000602082019050919050565b600061a74e8261a404565b61a758818561a40f565b93508360208202850161a76a8561a420565b8060005b8581101561a7a6578484038952815161a787858261a722565b945061a7928361a736565b925060208a0199505060018101905061a76e565b50829750879550505050505092915050565b6000602082019050818103600083015261a7d2818461a743565b905092915050565b61a7e38161a430565b82525050565b600060208201905061a7fe600083018461a7da565b92915050565b600082825260208201905092915050565b600061a8208261a449565b61a82a818561a804565b935061a83a81856020860161a465565b61a8438161a48f565b840191505092915050565b6000602082019050818103600083015261a868818461a815565b905092915050565b61a8798161a508565b811461a88457600080fd5b50565b60008135905061a8968161a870565b92915050565b61a8a58161a430565b811461a8b057600080fd5b50565b60008135905061a8c28161a89c565b92915050565b6000806040838503121561a8df5761a8de61a33f565b5b600061a8ed8582860161a887565b925050602061a8fe8582860161a8b3565b9150509250929050565b60006020828403121561a91e5761a91d61a33f565b5b600061a92c8482850161a8b3565b91505092915050565b6000806040838503121561a94c5761a94b61a33f565b5b600061a95a8582860161a8b3565b925050602061a96b8582860161a887565b9150509250929050565b61a97e8161a508565b82525050565b600060208201905061a999600083018461a975565b92915050565b60008060006060848603121561a9b85761a9b761a33f565b5b600061a9c68682870161a887565b935050602061a9d78682870161a887565b925050604061a9e88682870161a8b3565b9150509250925092565b6000819050919050565b61aa058161a9f2565b811461aa1057600080fd5b50565b60008135905061aa228161a9fc565b92915050565b60006020828403121561aa3e5761aa3d61a33f565b5b600061aa4c8482850161aa13565b91505092915050565b61aa5e8161a9f2565b82525050565b600060208201905061aa79600083018461aa55565b92915050565b600060808201905061aa94600083018761a7da565b61aaa1602083018661a7da565b818103604083015261aab3818561a815565b905061aac2606083018461a3da565b95945050505050565b61aad48161a62e565b82525050565b60006101008201905061aaf0600083018b61a7da565b818103602083015261ab02818a61a815565b9050818103604083015261ab16818961a815565b905061ab25606083018861a3da565b61ab32608083018761a7da565b61ab3f60a083018661a975565b61ab4c60c083018561a3da565b61ab5960e083018461aacb565b9998505050505050505050565b600060c08201905061ab7b600083018961a7da565b61ab88602083018861a7da565b818103604083015261ab9a818761a815565b9050818103606083015261abae818661a815565b905061abbd608083018561a7da565b61abca60a083018461a3da565b979650505050505050565b6000806040838503121561abec5761abeb61a33f565b5b600061abfa8582860161aa13565b925050602061ac0b8582860161a887565b9150509250929050565b600080fd5b600080fd5b7f4e487b7100000000000000000000000000000000000000000000000000000000600052604160045260246000fd5b61ac578261a48f565b810181811067ffffffffffffffff8211171561ac765761ac7561ac1f565b5b80604052505050565b600061ac8961a335565b905061ac95828261ac4e565b919050565b600067ffffffffffffffff82111561acb55761acb461ac1f565b5b61acbe8261a48f565b9050602081019050919050565b82818337600083830152505050565b600061aced61ace88461ac9a565b61ac7f565b90508281526020810184848401111561ad095761ad0861ac1a565b5b61ad1484828561accb565b509392505050565b600082601f83011261ad315761ad3061ac15565b5b813561ad4184826020860161acda565b91505092915050565b600067ffffffffffffffff82111561ad655761ad6461ac1f565b5b602082029050602081019050919050565b600080fd5b600080fd5b600080fd5b6003811061ad9257600080fd5b50565b60008135905061ada48161ad85565b92915050565b60006060828403121561adc05761adbf61ad7b565b5b61adca606061ac7f565b9050600061adda8482850161ad95565b600083015250602082013567ffffffffffffffff81111561adfe5761adfd61ad80565b5b61ae0a8482850161ad1c565b602083015250604082013567ffffffffffffffff81111561ae2e5761ae2d61ad80565b5b61ae3a8482850161ad1c565b60408301525092915050565b600061ae5961ae548461ad4a565b61ac7f565b9050808382526020820190506020840283018581111561ae7c5761ae7b61ad76565b5b835b8181101561aec357803567ffffffffffffffff81111561aea15761aea061ac15565b5b80860161aeae898261adaa565b8552602085019450505060208101905061ae7e565b5050509392505050565b600082601f83011261aee25761aee161ac15565b5b813561aef284826020860161ae46565b91505092915050565b6000806000806080858703121561af155761af1461a33f565b5b600061af238782880161a8b3565b945050602085013567ffffffffffffffff81111561af445761af4361a344565b5b61af508782880161ad1c565b935050604085013567ffffffffffffffff81111561af715761af7061a344565b5b61af7d8782880161ad1c565b925050606085013567ffffffffffffffff81111561af9e5761af9d61a344565b5b61afaa8782880161aecd565b91505092959194509250565b600060ff82169050919050565b61afcc8161afb6565b82525050565b600060208201905061afe7600083018461afc3565b92915050565b600060608201905061b002600083018661a7da565b61b00f602083018561a7da565b818103604083015261b021818461a815565b9050949350505050565b600081519050919050565b600082825260208201905092915050565b6000819050602082019050919050565b600061b063838361a43a565b60208301905092915050565b6000602082019050919050565b600061b0878261b02b565b61b091818561b036565b935061b09c8361b047565b8060005b8381101561b0cd57815161b0b4888261b057565b975061b0bf8361b06f565b92505060018101905061b0a0565b5085935050505092915050565b6000604082019050818103600083015261b0f4818561b07c565b905061b103602083018461a7da565b9392505050565b60008060006060848603121561b1235761b12261a33f565b5b600061b1318682870161a887565b935050602061b1428682870161a8b3565b925050604061b1538682870161a8b3565b9150509250925092565b60006020828403121561b1735761b17261a33f565b5b600061b1818482850161a887565b91505092915050565b60008060006060848603121561b1a35761b1a261a33f565b5b600061b1b18682870161a8b3565b935050602061b1c28682870161a8b3565b925050604084013567ffffffffffffffff81111561b1e35761b1e261a344565b5b61b1ef8682870161ad1c565b9150509250925092565b600081519050919050565b600082825260208201905092915050565b600061b2208261b1f9565b61b22a818561b204565b935061b23a81856020860161a465565b61b2438161a48f565b840191505092915050565b600060c08201905061b263600083018961a7da565b61b270602083018861a975565b61b27d604083018761a975565b818103606083015261b28f818661b215565b905061b29e608083018561a7da565b61b2ab60a083018461a3da565b979650505050505050565b600081519050919050565b600082825260208201905092915050565b6000819050602082019050919050565b600081519050919050565b600082825260208201905092915050565b6000819050602082019050919050565b6000604083016000830151848203600086015261b32b828261a4a0565b915050602083015161b340602086018261a4d9565b508091505092915050565b600061b357838361b30e565b905092915050565b6000602082019050919050565b600061b3778261b2e2565b61b381818561b2ed565b93508360208202850161b3938561b2fe565b8060005b8581101561b3cf578484038952815161b3b0858261b34b565b945061b3bb8361b35f565b925060208a0199505060018101905061b397565b50829750879550505050505092915050565b600060808301600083015161b3f9600086018261a43a565b50602083015161b40c602086018261a43a565b506040830151848203604086015261b424828261a4a0565b9150506060830151848203606086015261b43e828261b36c565b9150508091505092915050565b600061b457838361b3e1565b905092915050565b6000602082019050919050565b600061b4778261b2b6565b61b481818561b2c1565b93508360208202850161b4938561b2d2565b8060005b8581101561b4cf578484038952815161b4b0858261b44b565b945061b4bb8361b45f565b925060208a0199505060018101905061b497565b50829750879550505050505092915050565b6000602082019050818103600083015261b4fb818461b46c565b905092915050565b6000806040838503121561b51a5761b51961a33f565b5b600061b5288582860161a8b3565b925050602061b5398582860161a8b3565b9150509250929050565b600060a08201905061b558600083018861a7da565b61b565602083018761a7da565b818103604083015261b577818661a815565b905061b586606083018561a7da565b61b593608083018461a3da565b9695505050505050565b600080600080600060a0868803121561b5b95761b5b861a33f565b5b600061b5c78882890161a8b3565b955050602086013567ffffffffffffffff81111561b5e85761b5e761a344565b5b61b5f48882890161ad1c565b945050604086013567ffffffffffffffff81111561b6155761b61461a344565b5b61b6218882890161ad1c565b935050606086013567ffffffffffffffff81111561b6425761b64161a344565b5b61b64e8882890161ad1c565b925050608061b65f8882890161a8b3565b9150509295509295909350565b600060e08301600083015161b684600086018261a43a565b50602083015161b697602086018261a43a565b506040830151848203604086015261b6af828261a4a0565b9150506060830151848203606086015261b6c9828261a4a0565b915050608083015161b6de608086018261a43a565b5060a083015184820360a086015261b6f6828261a4a0565b91505060c083015161b70b60c086018261a51a565b508091505092915050565b600060408201905061b72b600083018561a7da565b818103602083015261b73d818461b66c565b90509392505050565b60008060008060008060008060008060006101608c8e03121561b76c5761b76b61a33f565b5b600061b77a8e828f0161a8b3565b9b5050602061b78b8e828f0161a8b3565b9a5050604061b79c8e828f0161a8b3565b995050606061b7ad8e828f0161a8b3565b985050608061b7be8e828f0161a8b3565b97505060a061b7cf8e828f0161a8b3565b96505060c061b7e08e828f0161a8b3565b95505060e061b7f18e828f0161a8b3565b94505061010061b8038e828f0161a8b3565b93505061012061b8158e828f0161a8b3565b92505061014061b8278e828f0161a8b3565b9150509295989b509295989b9093969950565b6000806040838503121561b8515761b85061a33f565b5b600061b85f8582860161a8b3565b925050602083013567ffffffffffffffff81111561b8805761b87f61a344565b5b61b88c8582860161ad1c565b9150509250929050565b600060e08201905061b8ab600083018a61a7da565b61b8b8602083018961a7da565b818103604083015261b8ca818861a815565b9050818103606083015261b8de818761a815565b905061b8ed608083018661a7da565b81810360a083015261b8ff818561a815565b905061b90e60c083018461a975565b98975050505050505050565b600081519050919050565b600082825260208201905092915050565b6000819050602082019050919050565b600082825260208201905092915050565b600061b9628261b2b6565b61b96c818561b946565b93508360208202850161b97e8561b2d2565b8060005b8581101561b9ba578484038952815161b99b858261b44b565b945061b9a68361b45f565b925060208a0199505060018101905061b982565b50829750879550505050505092915050565b600060a08301600083015161b9e4600086018261a43a565b50602083015161b9f7602086018261a43a565b506040830151848203604086015261ba0f828261a4a0565b9150506060830151848203606086015261ba29828261b957565b915050608083015161ba3e608086018261a4d9565b508091505092915050565b600061ba55838361b9cc565b905092915050565b6000602082019050919050565b600061ba758261b91a565b61ba7f818561b925565b93508360208202850161ba918561b936565b8060005b8581101561bacd578484038952815161baae858261ba49565b945061bab98361ba5d565b925060208a0199505060018101905061ba95565b50829750879550505050505092915050565b6000602082019050818103600083015261baf9818461ba6a565b905092915050565b60008060006060848603121561bb1a5761bb1961a33f565b5b600061bb288682870161a8b3565b935050602084013567ffffffffffffffff81111561bb495761bb4861a344565b5b61bb558682870161ad1c565b925050604084013567ffffffffffffffff81111561bb765761bb7561a344565b5b61bb828682870161ad1c565b9150509250925092565b6003811061bb9957600080fd5b50565b60008135905061bbab8161bb8c565b92915050565b60008060006060848603121561bbca5761bbc961a33f565b5b600084013567ffffffffffffffff81111561bbe85761bbe761a344565b5b61bbf48682870161ad1c565b935050602084013567ffffffffffffffff81111561bc155761bc1461a344565b5b61bc218682870161ad1c565b925050604061bc328682870161bb9c565b9150509250925092565b600081519050919050565b600082825260208201905092915050565b6000819050602082019050919050565b600060a08301600083015161bc80600086018261a43a565b50602083015161bc93602086018261a43a565b506040830151848203604086015261bcab828261a4a0565b915050606083015161bcc0606086018261a43a565b50608083015161bcd3608086018261a4d9565b508091505092915050565b600061bcea838361bc68565b905092915050565b6000602082019050919050565b600061bd0a8261bc3c565b61bd14818561bc47565b93508360208202850161bd268561bc58565b8060005b8581101561bd62578484038952815161bd43858261bcde565b945061bd4e8361bcf2565b925060208a0199505060018101905061bd2a565b50829750879550505050505092915050565b6000602082019050818103600083015261bd8e818461bcff565b905092915050565b600081519050919050565b600082825260208201905092915050565b6000819050602082019050919050565b6000600a9050919050565b600081905092915050565b6000819050919050565b6003811061bdf35761bdf261a5d8565b5b50565b600081905061be048261bde2565b919050565b600061be148261bdf6565b9050919050565b61be248161be09565b82525050565b600060608301600083015161be42600086018261be1b565b506020830151848203602086015261be5a828261a4a0565b9150506040830151848203604086015261be74828261a4a0565b9150508091505092915050565b600061be8d838361be2a565b905092915050565b6000602082019050919050565b600061bead8261bdc2565b61beb7818561bdcd565b93508360208202850161bec98561bdd8565b8060005b8581101561bf05578484038952815161bee6858261be81565b945061bef18361be95565b925060208a0199505060018101905061becd565b50829750879550505050505092915050565b600060e08301600083015161bf2f600086018261a43a565b50602083015161bf42602086018261a43a565b506040830151848203604086015261bf5a828261a4a0565b9150506060830151848203606086015261bf74828261a4a0565b9150506080830151848203608086015261bf8e828261bea2565b91505060a083015161bfa360a086018261a43a565b5060c083015161bfb660c086018261a4d9565b508091505092915050565b600061bfcd838361bf17565b905092915050565b6000602082019050919050565b600061bfed8261bd96565b61bff7818561bda1565b93508360208202850161c0098561bdb2565b8060005b8581101561c045578484038952815161c026858261bfc1565b945061c0318361bfd5565b925060208a0199505060018101905061c00d565b50829750879550505050505092915050565b6000602082019050818103600083015261c071818461bfe2565b905092915050565b600060a08301600083015161c091600086018261a43a565b50602083015161c0a4602086018261a43a565b506040830151848203604086015261c0bc828261a4a0565b9150506060830151848203606086015261c0d6828261b957565b915050608083015161c0eb608086018261a4d9565b508091505092915050565b6000602082019050818103600083015261c110818461c079565b905092915050565b600080fd5b60008083601f84011261c1335761c13261ac15565b5b8235905067ffffffffffffffff81111561c1505761c14f61c118565b5b60208301915083602082028301111561c16c5761c16b61ad76565b5b9250929050565b6000806000806060858703121561c18d5761c18c61a33f565b5b600061c19b8782880161a8b3565b945050602061c1ac8782880161ad95565b935050604085013567ffffffffffffffff81111561c1cd5761c1cc61a344565b5b61c1d98782880161c11d565b925092505092959194509250565b60006101608201905061c1fd600083018e61a7da565b61c20a602083018d61a7da565b61c217604083018c61a7da565b61c224606083018b61a7da565b61c231608083018a61a7da565b61c23e60a083018961a7da565b61c24b60c083018861a7da565b61c25860e083018761a7da565b61c26661010083018661a7da565b61c27461012083018561a7da565b61c28261014083018461a3da565b9c9b505050505050505050505050565b600082825260208201905092915050565b600061c2ae8261a529565b61c2b8818561c292565b935061c2c38361a545565b8060005b8381101561c2f457815161c2db888261a555565b975061c2e68361a56d565b92505060018101905061c2c7565b5085935050505092915050565b6000602082019050818103600083015261c31b818461c2a3565b905092915050565b60008060006060848603121561c33c5761c33b61a33f565b5b600061c34a8682870161a8b3565b935050602061c35b8682870161a8b3565b925050604061c36c8682870161a8b3565b9150509250925092565b600067ffffffffffffffff82111561c3915761c39061ac1f565b5b602082029050602081019050919050565b600061c3b561c3b08461c376565b61ac7f565b9050808382526020820190506020840283018581111561c3d85761c3d761ad76565b5b835b8181101561c41f57803567ffffffffffffffff81111561c3fd5761c3fc61ac15565b5b80860161c40a898261ad1c565b8552602085019450505060208101905061c3da565b5050509392505050565b600082601f83011261c43e5761c43d61ac15565b5b813561c44e84826020860161c3a2565b91505092915050565b600067ffffffffffffffff82111561c4725761c47161ac1f565b5b602082029050602081019050919050565b600061c49661c4918461c457565b61ac7f565b9050808382526020820190506020840283018581111561c4b95761c4b861ad76565b5b835b8181101561c4e2578061c4ce888261a8b3565b84526020840193505060208101905061c4bb565b5050509392505050565b600082601f83011261c5015761c50061ac15565b5b813561c51184826020860161c483565b91505092915050565b60008060006060848603121561c5335761c53261a33f565b5b600061c5418682870161a8b3565b935050602084013567ffffffffffffffff81111561c5625761c56161a344565b5b61c56e8682870161c429565b925050604084013567ffffffffffffffff81111561c58f5761c58e61a344565b5b61c59b8682870161c4ec565b9150509250925092565b61c5ae8161afb6565b811461c5b957600080fd5b50565b60008135905061c5cb8161c5a5565b92915050565b6000806000806080858703121561c5eb5761c5ea61a33f565b5b600061c5f98782880161a8b3565b945050602085013567ffffffffffffffff81111561c61a5761c61961a344565b5b61c6268782880161ad1c565b935050604085013567ffffffffffffffff81111561c6475761c64661a344565b5b61c6538782880161c429565b925050606061c6648782880161c5bc565b91505092959194509250565b6000806040838503121561c6875761c68661a33f565b5b600061c6958582860161a887565b925050602061c6a68582860161a887565b9150509250929050565b61c6b98161be09565b82525050565b600060608201905061c6d4600083018661c6b0565b818103602083015261c6e6818561a815565b9050818103604083015261c6fa818461a815565b9050949350505050565b6000806040838503121561c71b5761c71a61a33f565b5b600061c7298582860161a8b3565b925050602083013567ffffffffffffffff81111561c74a5761c74961a344565b5b61c7568582860161c4ec565b9150509250929050565b7f4e487b7100000000000000000000000000000000000000000000000000000000600052603260045260246000fd5b7f4e487b7100000000000000000000000000000000000000000000000000000000600052602260045260246000fd5b6000600282049050600182168061c7d657607f821691505b60208210810361c7e95761c7e861c78f565b5b50919050565b7f4e6f7420656e726f6c6c65642100000000000000000000000000000000000000600082015250565b600061c825600d8361a804565b915061c8308261c7ef565b602082019050919050565b6000602082019050818103600083015261c8548161c818565b9050919050565b7f4e487b7100000000000000000000000000000000000000000000000000000000600052601160045260246000fd5b600061c8958261a430565b915061c8a08361a430565b925082820261c8ae8161a430565b9150828204841483151761c8c55761c8c461c85b565b5b5092915050565b7f4e487b7100000000000000000000000000000000000000000000000000000000600052601260045260246000fd5b600061c9068261a430565b915061c9118361a430565b92508261c9215761c92061c8cc565b5b828204905092915050565b7f4c6573736f6e20646f6573206e6f742065786973740000000000000000000000600082015250565b600061c96260158361a804565b915061c96d8261c92c565b602082019050919050565b6000602082019050818103600083015261c9918161c955565b9050919050565b60008190508160005260206000209050919050565b60006020601f8301049050919050565b600082821b905092915050565b60006008830261c9fa7fffffffffffffffffffffffffffffffffffffffffffffffffffffffffffffffff8261c9bd565b61ca04868361c9bd565b95508019841693508086168417925050509392505050565b6000819050919050565b600061ca4161ca3c61ca378461a430565b61ca1c565b61a430565b9050919050565b6000819050919050565b61ca5b8361ca26565b61ca6f61ca678261ca48565b84845461c9ca565b825550505050565b600090565b61ca8461ca77565b61ca8f81848461ca52565b505050565b5b8181101561cab35761caa860008261ca7c565b60018101905061ca95565b5050565b601f82111561caf85761cac98161c998565b61cad28461c9ad565b8101602085101561cae1578190505b61caf561caed8561c9ad565b83018261ca94565b50505b505050565b600082821c905092915050565b600061cb1b6000198460080261cafd565b1980831691505092915050565b600061cb34838361cb0a565b9150826002028217905092915050565b61cb4d8261a449565b67ffffffffffffffff81111561cb665761cb6561ac1f565b5b61cb70825461c7be565b61cb7b82828561cab7565b600060209050601f83116001811461cbae576000841561cb9c578287015190505b61cba6858261cb28565b86555061cc0e565b601f19841661cbbc8661c998565b60005b8281101561cbe45784890151825560018201915060208501945060208101905061cbbf565b8683101561cc01578489015161cbfd601f89168261cb0a565b8355505b6001600288020188555050505b505050505050565b7f5265736f7572636520636f756e742065786365656473206d6178696d756d206160008201527f6c6c6f7765640000000000000000000000000000000000000000000000000000602082015250565b600061cc7260268361a804565b915061cc7d8261cc16565b604082019050919050565b6000602082019050818103600083015261cca18161cc65565b9050919050565b7f5155697a20646f6573206e6f7420657869737400000000000000000000000000600082015250565b600061ccde60138361a804565b915061cce98261cca8565b602082019050919050565b6000602082019050818103600083015261cd0d8161ccd1565b9050919050565b7f4e6f74206578616374207175697a000000000000000000000000000000000000600082015250565b600061cd4a600e8361a804565b915061cd558261cd14565b602082019050919050565b6000602082019050818103600083015261cd798161cd3d565b9050919050565b7f5175697a20646f6573206e6f7420657869737400000000000000000000000000600082015250565b600061cdb660138361a804565b915061cdc18261cd80565b602082019050919050565b6000602082019050818103600083015261cde58161cda9565b9050919050565b7f596f75206d75737420626520656e726f6c6c656420696e2074686520636f757260008201527f736520746f20636f6d706c657465206974000000000000000000000000000000602082015250565b600061ce4860318361a804565b915061ce538261cdec565b604082019050919050565b6000602082019050818103600083015261ce778161ce3b565b9050919050565b7f596f75206861766520616c726561647920636f6d706c6574656420746869732060008201527f636f757273650000000000000000000000000000000000000000000000000000602082015250565b600061ceda60268361a804565b915061cee58261ce7e565b604082019050919050565b6000602082019050818103600083015261cf098161cecd565b9050919050565b6000819050919050565b61cf2b61cf268261a430565b61cf10565b82525050565b600081905092915050565b600061cf478261a449565b61cf51818561cf31565b935061cf6181856020860161a465565b80840191505092915050565b600061cf79828961cf1a565b60208201915061cf89828861cf3c565b915061cf95828761cf3c565b915061cfa1828661cf3c565b915061cfad828561cf1a565b60208201915061cfbd828461cf1a565b602082019150819050979650505050505050565b600060808201905061cfe6600083018761a7da565b818103602083015261cff8818661a815565b9050818103604083015261d00c818561a815565b9050818103606083015261d020818461a815565b905095945050505050565b7f4e6f742073656c6563746564206173206120726576696577657220666f72207460008201527f68697320636f7572736500000000000000000000000000000000000000000000602082015250565b600061d087602a8361a804565b915061d0928261d02b565b604082019050919050565b6000602082019050818103600083015261d0b68161d07a565b9050919050565b7f52657669657720616c7265616479207375626d6974746564206279207468697360008201527f2072657669657765722e00000000000000000000000000000000000000000000602082015250565b600061d119602a8361a804565b915061d1248261d0bd565b604082019050919050565b6000602082019050818103600083015261d1488161d10c565b9050919050565b7f436f7572736520646f6573206e6f742065786973740000000000000000000000600082015250565b600061d18560158361a804565b915061d1908261d14f565b602082019050919050565b6000602082019050818103600083015261d1b48161d178565b9050919050565b7f4c6573736f6e20446f6573206e6f742065786973742100000000000000000000600082015250565b600061d1f160168361a804565b915061d1fc8261d1bb565b602082019050919050565b6000602082019050818103600083015261d2208161d1e4565b9050919050565b600061d2328261a430565b91507fffffffffffffffffffffffffffffffffffffffffffffffffffffffffffffffff820361d2645761d26361c85b565b5b600182019050919050565b60008154905061d27e8161c7be565b9050919050565b81810361d29357505061d36b565b61d29c8261d26f565b67ffffffffffffffff81111561d2b55761d2b461ac1f565b5b61d2bf825461c7be565b61d2ca82828561cab7565b6000601f83116001811461d2f9576000841561d2e7578287015490505b61d2f1858261cb28565b86555061d364565b601f19841661d3078761c998565b965061d3128661c998565b60005b8281101561d33a5784890154825560018201915060018501945060208101905061d315565b8683101561d357578489015461d353601f89168261cb0a565b8355505b6001600288020188555050505b5050505050505b565b600061d379828461cf3c565b915081905092915050565b7f416c726561647920696e20726576696577657220706f6f6c0000000000000000600082015250565b600061d3ba60188361a804565b915061d3c58261d384565b602082019050919050565b6000602082019050818103600083015261d3e98161d3ad565b9050919050565b7f436f7572736520616c726561647920617070726f766564000000000000000000600082015250565b600061d42660178361a804565b915061d4318261d3f0565b602082019050919050565b6000602082019050818103600083015261d4558161d419565b9050919050565b7f596f75206861766520616c726561647920617070726f7665642074686973206360008201527f6f75727365000000000000000000000000000000000000000000000000000000602082015250565b600061d4b860258361a804565b915061d4c38261d45c565b604082019050919050565b6000602082019050818103600083015261d4e78161d4ab565b9050919050565b7f4368617074657220646f6573206e6f7420657869737421000000000000000000600082015250565b600061d52460178361a804565b915061d52f8261d4ee565b602082019050919050565b6000602082019050818103600083015261d5538161d517565b9050919050565b7f5175657374696f6e206e6f7420666f756e6420696e2074686973207175697a00600082015250565b600061d590601f8361a804565b915061d59b8261d55a565b602082019050919050565b6000602082019050818103600083015261d5bf8161d583565b9050919050565b600061d5d18261a430565b915061d5dc8361a430565b925082820390508181111561d5f45761d5f361c85b565b5b92915050565b7f4e487b7100000000000000000000000000000000000000000000000000000000600052603160045260246000fd5b7f436f7572736520616c7265616479206578697374730000000000000000000000600082015250565b600061d65f60158361a804565b915061d66a8261d629565b602082019050919050565b6000602082019050818103600083015261d68e8161d652565b9050919050565b600061d6a08261a430565b915061d6ab8361a430565b925082820190508082111561d6c35761d6c261c85b565b5b92915050565b7f52657669657765727320616c72656164792073656c6563746564000000000000600082015250565b600061d6ff601a8361a804565b915061d70a8261d6c9565b602082019050919050565b6000602082019050818103600083015261d72e8161d6f2565b9050919050565b7f4e6f7420656e6f7567682072657669657765727320696e2074686520706f6f6c600082015250565b600061d76b60208361a804565b915061d7768261d735565b602082019050919050565b6000602082019050818103600083015261d79a8161d75e565b9050919050565b600061d7ad828761cf1a565b60208201915061d7bd828661cf1a565b60208201915061d7cd828561cf1a565b60208201915061d7dd828461cf1a565b60208201915081905095945050505050565b600061d7fa8261a430565b915061d8058361a430565b92508261d8155761d81461c8cc565b5b828206905092915050565b600081549050919050565b60008190508160005260206000209050919050565b60008160001c9050919050565b600073ffffffffffffffffffffffffffffffffffffffff82169050919050565b600061d88061d87b8361d840565b61d84d565b9050919050565b600061d893825461d86d565b9050919050565b6000600182019050919050565b600061d8b28261d820565b61d8bc818561c292565b935061d8c78361d82b565b8060005b8381101561d8ff5761d8dc8261d887565b61d8e6888261a555565b975061d8f18361d89a565b92505060018101905061d8cb565b5085935050505092915050565b6000602082019050818103600083015261d926818461d8a7565b905092915050565b7f436f7572736520646f65736e2774206578697374210000000000000000000000600082015250565b600061d96460158361a804565b915061d96f8261d92e565b602082019050919050565b6000602082019050818103600083015261d9938161d957565b9050919050565b7f4368617074657220646f65736e27742065786973740000000000000000000000600082015250565b600061d9d060158361a804565b915061d9db8261d99a565b602082019050919050565b6000602082019050818103600083015261d9ff8161d9c3565b9050919050565b7f4c6573736f6e20646f65736e2774206578697374000000000000000000000000600082015250565b600061da3c60148361a804565b915061da478261da06565b602082019050919050565b6000602082019050818103600083015261da6b8161da2f565b9050919050565b7f4c6573736f6e20646f6573206e6f742065786973742100000000000000000000600082015250565b600061daa860168361a804565b915061dab38261da72565b602082019050919050565b6000602082019050818103600083015261dad78161da9b565b9050919050565b7f45786365656473206d6178696d756d207265736f757263657321000000000000600082015250565b600061db14601a8361a804565b915061db1f8261dade565b602082019050919050565b6000602082019050818103600083015261db438161db07565b9050919050565b600080fd5b600080fd5b600080fd5b60008235600160600383360303811261db755761db7461db4a565b5b80830191505092915050565b60006020828403121561db975761db9661a33f565b5b600061dba58482850161ad95565b91505092915050565b6000808335600160200384360303811261dbcb5761dbca61db4a565b5b80840192508235915067ffffffffffffffff82111561dbed5761dbec61db4f565b5b60208301925060018202360383131561dc095761dc0861db54565b5b509250929050565b7f50726f706f73616c20616c726561647920657865637574656400000000000000600082015250565b600061dc4760198361a804565b915061dc528261dc11565b602082019050919050565b6000602082019050818103600083015261dc768161dc3a565b9050919050565b7f416c726561647920617070726f76656400000000000000000000000000000000600082015250565b600061dcb360108361a804565b915061dcbe8261dc7d565b602082019050919050565b6000602082019050818103600083015261dce28161dca6565b9050919050565b600081905092915050565b60008190508160005260206000209050919050565b6000815461dd168161c7be565b61dd20818661dce9565b9450600182166000811461dd3b576001811461dd505761dd83565b60ff198316865281151582028601935061dd83565b61dd598561dcf4565b60005b8381101561dd7b5781548189015260018201915060208101905061dd5c565b838801955050505b50505092915050565b600061dd98828461dd09565b915081905092915050565b7f50726f706f73616c20657865637574696f6e206661696c656400000000000000600082015250565b600061ddd960198361a804565b915061dde48261dda3565b602082019050919050565b6000602082019050818103600083015261de088161ddcc565b9050919050565b7f4e6f7420696e20726576696577657220706f6f6c000000000000000000000000600082015250565b600061de4560148361a804565b915061de508261de0f565b602082019050919050565b6000602082019050818103600083015261de748161de38565b9050919050565b7f416c7265616479206d61726b6564000000000000000000000000000000000000600082015250565b600061deb1600e8361a804565b915061debc8261de7b565b602082019050919050565b6000602082019050818103600083015261dee08161dea4565b9050919050565b7f436f7572736520646f6573206e6f742065786973742100000000000000000000600082015250565b600061df1d60168361a804565b915061df288261dee7565b602082019050919050565b6000602082019050818103600083015261df4c8161df10565b9050919050565b7f496e76616c6964206e756d626572206f662063686f6963657300000000000000600082015250565b600061df8960198361a804565b915061df948261df53565b602082019050919050565b6000602082019050818103600083015261dfb88161df7c565b9050919050565b7f496e76616c696420636f72726563742063686f69636520696e64657800000000600082015250565b600061dff5601c8361a804565b915061e0008261dfbf565b602082019050919050565b6000602082019050818103600083015261e0248161dfe8565b9050919050565b600061e0368261afb6565b915060ff820361e0495761e04861c85b565b5b600182019050919050565b7f4e756d626572206f6620616e7377657273206d757374206d617463682074686560008201527f206e756d626572206f66207175657374696f6e73000000000000000000000000602082015250565b600061e0b060348361a804565b915061e0bb8261e054565b604082019050919050565b6000602082019050818103600083015261e0df8161e0a3565b9050919050565b7f496e76616c69642063686f6963652073656c6563746564000000000000000000600082015250565b600061e11c60178361a804565b915061e1278261e0e6565b602082019050919050565b6000602082019050818103600083015261e14b8161e10f565b9050919050565b600060408201905061e167600083018561a7da565b61e174602083018461a7da565b9392505050565b7f436f7572736520646f65736e2774206578697374000000000000000000000000600082015250565b600061e1b160148361a804565b915061e1bc8261e17b565b602082019050919050565b6000602082019050818103600083015261e1e08161e1a4565b9050919050565b7f4368617074657220646f65736e2774206e6f7420657869737400000000000000600082015250565b600061e21d60198361a804565b915061e2288261e1e7565b602082019050919050565b6000602082019050818103600083015261e24c8161e210565b9050919050565b7f5175697a20646f65736e27742065786973740000000000000000000000000000600082015250565b600061e28960128361a804565b915061e2948261e253565b602082019050919050565b6000602082019050818103600083015261e2b88161e27c565b9050919050565b7f436f75727365206e6f742079657420617070726f766564210000000000000000600082015250565b600061e2f560188361a804565b915061e3008261e2bf565b602082019050919050565b6000602082019050818103600083015261e3248161e2e8565b9050919050565b7f416c726561647920656e726f6c6c656400000000000000000000000000000000600082015250565b600061e36160108361a804565b915061e36c8261e32b565b602082019050919050565b6000602082019050818103600083015261e3908161e354565b9050919050565b600060608201905061e3ac600083018661a975565b61e3b9602083018561a7da565b61e3c6604083018461a7da565b949350505050565b7f4c696d6974204578636565646564210000000000000000000000000000000000600082015250565b600061e404600f8361a804565b915061e40f8261e3ce565b602082019050919050565b6000602082019050818103600083015261e4338161e3f7565b9050919050565b7f53636f726573206d757374206265206265747765656e203120616e642031302e600082015250565b600061e47060208361a804565b915061e47b8261e43a565b602082019050919050565b6000602082019050818103600083015261e49f8161e463565b9050919050565b7f496e73756666696369656e742062616c616e6365000000000000000000000000600082015250565b600061e4dc60148361a804565b915061e4e78261e4a6565b602082019050919050565b6000602082019050818103600083015261e50b8161e4cf565b9050919050565b600060408201905061e527600083018561a975565b61e534602083018461aa55565b939250505056fea2646970667358221220ad57c4ef7b49470a36614cf42cf5eead5325da9fe38b2bf62738c8da843620d364736f6c634300081b0033",
  "linkReferences": {},
  "deployedLinkReferences": {}
}