{
  "_format": "hh-sol-artifact-1",
  "contractName": "Ecosystem3",
  "sourceName": "contracts/Ecosystem Contracts/Ecosystem3.sol",
  "abi": [
    {
      "inputs": [
        {
          "internalType": "address[]",
          "name": "_reviewers",
          "type": "address[]"
        }
      ],
      "stateMutability": "nonpayable",
      "type": "constructor"
    },
    {
      "inputs": [],
      "name": "AccessControlBadConfirmation",
      "type": "error"
    },
    {
      "inputs": [
        {
          "internalType": "address",
          "name": "account",
          "type": "address"
        },
        {
          "internalType": "bytes32",
          "name": "neededRole",
          "type": "bytes32"
        }
      ],
      "name": "AccessControlUnauthorizedAccount",
      "type": "error"
    },
    {
      "inputs": [
        {
          "internalType": "address",
          "name": "spender",
          "type": "address"
        },
        {
          "internalType": "uint256",
          "name": "allowance",
          "type": "uint256"
        },
        {
          "internalType": "uint256",
          "name": "needed",
          "type": "uint256"
        }
      ],
      "name": "ERC20InsufficientAllowance",
      "type": "error"
    },
    {
      "inputs": [
        {
          "internalType": "address",
          "name": "sender",
          "type": "address"
        },
        {
          "internalType": "uint256",
          "name": "balance",
          "type": "uint256"
        },
        {
          "internalType": "uint256",
          "name": "needed",
          "type": "uint256"
        }
      ],
      "name": "ERC20InsufficientBalance",
      "type": "error"
    },
    {
      "inputs": [
        {
          "internalType": "address",
          "name": "approver",
          "type": "address"
        }
      ],
      "name": "ERC20InvalidApprover",
      "type": "error"
    },
    {
      "inputs": [
        {
          "internalType": "address",
          "name": "receiver",
          "type": "address"
        }
      ],
      "name": "ERC20InvalidReceiver",
      "type": "error"
    },
    {
      "inputs": [
        {
          "internalType": "address",
          "name": "sender",
          "type": "address"
        }
      ],
      "name": "ERC20InvalidSender",
      "type": "error"
    },
    {
      "inputs": [
        {
          "internalType": "address",
          "name": "spender",
          "type": "address"
        }
      ],
      "name": "ERC20InvalidSpender",
      "type": "error"
    },
    {
      "inputs": [],
      "name": "ReentrancyGuardReentrantCall",
      "type": "error"
    },
    {
      "anonymous": false,
      "inputs": [
        {
          "indexed": true,
          "internalType": "address",
          "name": "owner",
          "type": "address"
        },
        {
          "indexed": true,
          "internalType": "address",
          "name": "spender",
          "type": "address"
        },
        {
          "indexed": false,
          "internalType": "uint256",
          "name": "value",
          "type": "uint256"
        }
      ],
      "name": "Approval",
      "type": "event"
    },
    {
      "anonymous": false,
      "inputs": [
        {
          "indexed": true,
          "internalType": "address",
          "name": "_account",
          "type": "address"
        },
        {
          "indexed": false,
          "internalType": "uint256",
          "name": "_amount",
          "type": "uint256"
        }
      ],
      "name": "BurnSuccess",
      "type": "event"
    },
    {
      "anonymous": false,
      "inputs": [
        {
          "indexed": false,
          "internalType": "uint256",
          "name": "certificateId",
          "type": "uint256"
        },
        {
          "indexed": false,
          "internalType": "string",
          "name": "courseName",
          "type": "string"
        },
        {
          "indexed": false,
          "internalType": "string",
          "name": "cert_issuer",
          "type": "string"
        },
        {
          "indexed": false,
          "internalType": "string",
          "name": "learner",
          "type": "string"
        }
      ],
      "name": "CertificateIssued",
      "type": "event"
    },
    {
      "anonymous": false,
      "inputs": [
        {
          "indexed": true,
          "internalType": "uint256",
          "name": "_courseId",
          "type": "uint256"
        },
        {
          "indexed": true,
          "internalType": "uint256",
          "name": "_chaterId",
          "type": "uint256"
        }
      ],
      "name": "ChapterDeletedSuccess",
      "type": "event"
    },
    {
      "anonymous": false,
      "inputs": [
        {
          "indexed": true,
          "internalType": "uint256",
          "name": "_courseId",
          "type": "uint256"
        },
        {
          "indexed": true,
          "internalType": "uint256",
          "name": "_chapterId",
          "type": "uint256"
        },
        {
          "indexed": false,
          "internalType": "string",
          "name": "_chapterName",
          "type": "string"
        }
      ],
      "name": "ChapterEdited",
      "type": "event"
    },
    {
      "anonymous": false,
      "inputs": [
        {
          "indexed": true,
          "internalType": "uint256",
          "name": "_courseID",
          "type": "uint256"
        },
        {
          "indexed": true,
          "internalType": "string",
          "name": "_courseName",
          "type": "string"
        },
        {
          "indexed": false,
          "internalType": "bool",
          "name": "_approved",
          "type": "bool"
        }
      ],
      "name": "CourseCreationSuccess",
      "type": "event"
    },
    {
      "anonymous": false,
      "inputs": [
        {
          "indexed": true,
          "internalType": "uint256",
          "name": "_courseId",
          "type": "uint256"
        },
        {
          "indexed": false,
          "internalType": "address",
          "name": "owner",
          "type": "address"
        }
      ],
      "name": "CourseDeleteSuccess",
      "type": "event"
    },
    {
      "anonymous": false,
      "inputs": [
        {
          "indexed": true,
          "internalType": "uint256",
          "name": "_courseId",
          "type": "uint256"
        },
        {
          "indexed": false,
          "internalType": "string",
          "name": "_courseName",
          "type": "string"
        }
      ],
      "name": "CourseEdited",
      "type": "event"
    },
    {
      "anonymous": false,
      "inputs": [
        {
          "indexed": true,
          "internalType": "address",
          "name": "_to",
          "type": "address"
        },
        {
          "indexed": true,
          "internalType": "uint256",
          "name": "_amount",
          "type": "uint256"
        }
      ],
      "name": "EcosystemPoolUpdate",
      "type": "event"
    },
    {
      "anonymous": false,
      "inputs": [
        {
          "indexed": true,
          "internalType": "uint256",
          "name": "_chapterId",
          "type": "uint256"
        },
        {
          "indexed": true,
          "internalType": "uint256",
          "name": "_lessonId",
          "type": "uint256"
        }
      ],
      "name": "LessonDeleted",
      "type": "event"
    },
    {
      "anonymous": false,
      "inputs": [
        {
          "indexed": true,
          "internalType": "uint256",
          "name": "_lessonId",
          "type": "uint256"
        },
        {
          "indexed": false,
          "internalType": "string",
          "name": "_lessonName",
          "type": "string"
        }
      ],
      "name": "LessonEdited",
      "type": "event"
    },
    {
      "anonymous": false,
      "inputs": [
        {
          "indexed": true,
          "internalType": "uint256",
          "name": "_chapterId",
          "type": "uint256"
        },
        {
          "indexed": true,
          "internalType": "uint256",
          "name": "_lessonId",
          "type": "uint256"
        },
        {
          "indexed": false,
          "internalType": "address",
          "name": "learner",
          "type": "address"
        }
      ],
      "name": "LessonMarkedAsRead",
      "type": "event"
    },
    {
      "anonymous": false,
      "inputs": [
        {
          "indexed": true,
          "internalType": "address",
          "name": "_to",
          "type": "address"
        },
        {
          "indexed": true,
          "internalType": "uint256",
          "name": "_amount",
          "type": "uint256"
        }
      ],
      "name": "MintSuccess",
      "type": "event"
    },
    {
      "anonymous": false,
      "inputs": [
        {
          "indexed": true,
          "internalType": "uint256",
          "name": "proposalId",
          "type": "uint256"
        },
        {
          "indexed": false,
          "internalType": "address",
          "name": "approver",
          "type": "address"
        }
      ],
      "name": "MultiSigProposalApproved",
      "type": "event"
    },
    {
      "anonymous": false,
      "inputs": [
        {
          "indexed": true,
          "internalType": "uint256",
          "name": "proposalId",
          "type": "uint256"
        },
        {
          "indexed": false,
          "internalType": "address",
          "name": "proposer",
          "type": "address"
        }
      ],
      "name": "MultiSigProposalCreated",
      "type": "event"
    },
    {
      "anonymous": false,
      "inputs": [
        {
          "indexed": true,
          "internalType": "uint256",
          "name": "proposalId",
          "type": "uint256"
        }
      ],
      "name": "MultiSigProposalExecuted",
      "type": "event"
    },
    {
      "anonymous": false,
      "inputs": [
        {
          "indexed": true,
          "internalType": "uint256",
          "name": "_quizId",
          "type": "uint256"
        },
        {
          "indexed": true,
          "internalType": "uint256",
          "name": "_questionId",
          "type": "uint256"
        }
      ],
      "name": "QuestionDeleted",
      "type": "event"
    },
    {
      "anonymous": false,
      "inputs": [
        {
          "indexed": true,
          "internalType": "uint256",
          "name": "_lessonId",
          "type": "uint256"
        },
        {
          "indexed": true,
          "internalType": "uint256",
          "name": "_quizId",
          "type": "uint256"
        }
      ],
      "name": "QuizDeleted",
      "type": "event"
    },
    {
      "anonymous": false,
      "inputs": [
        {
          "indexed": true,
          "internalType": "uint256",
          "name": "_lessonId",
          "type": "uint256"
        },
        {
          "indexed": true,
          "internalType": "uint256",
          "name": "_quizId",
          "type": "uint256"
        },
        {
          "indexed": false,
          "internalType": "string",
          "name": "_quizTitle",
          "type": "string"
        }
      ],
      "name": "QuizEdited",
      "type": "event"
    },
    {
      "anonymous": false,
      "inputs": [
        {
          "indexed": true,
          "internalType": "address",
          "name": "learner",
          "type": "address"
        },
        {
          "indexed": false,
          "internalType": "uint256",
          "name": "quizId",
          "type": "uint256"
        },
        {
          "indexed": false,
          "internalType": "uint256",
          "name": "score",
          "type": "uint256"
        }
      ],
      "name": "QuizSubmitted",
      "type": "event"
    },
    {
      "anonymous": false,
      "inputs": [
        {
          "indexed": true,
          "internalType": "address",
          "name": "reviewer",
          "type": "address"
        }
      ],
      "name": "ReviewerAddedToPool",
      "type": "event"
    },
    {
      "anonymous": false,
      "inputs": [
        {
          "indexed": true,
          "internalType": "address",
          "name": "reviewer",
          "type": "address"
        }
      ],
      "name": "ReviewerRemovedFromPool",
      "type": "event"
    },
    {
      "anonymous": false,
      "inputs": [
        {
          "indexed": true,
          "internalType": "uint256",
          "name": "courseId",
          "type": "uint256"
        },
        {
          "indexed": false,
          "internalType": "address[]",
          "name": "reviewers",
          "type": "address[]"
        }
      ],
      "name": "ReviewersSelected",
      "type": "event"
    },
    {
      "anonymous": false,
      "inputs": [
        {
          "indexed": true,
          "internalType": "bytes32",
          "name": "role",
          "type": "bytes32"
        },
        {
          "indexed": true,
          "internalType": "bytes32",
          "name": "previousAdminRole",
          "type": "bytes32"
        },
        {
          "indexed": true,
          "internalType": "bytes32",
          "name": "newAdminRole",
          "type": "bytes32"
        }
      ],
      "name": "RoleAdminChanged",
      "type": "event"
    },
    {
      "anonymous": false,
      "inputs": [
        {
          "indexed": true,
          "internalType": "bytes32",
          "name": "role",
          "type": "bytes32"
        },
        {
          "indexed": true,
          "internalType": "address",
          "name": "account",
          "type": "address"
        },
        {
          "indexed": true,
          "internalType": "address",
          "name": "sender",
          "type": "address"
        }
      ],
      "name": "RoleGranted",
      "type": "event"
    },
    {
      "anonymous": false,
      "inputs": [
        {
          "indexed": true,
          "internalType": "bytes32",
          "name": "role",
          "type": "bytes32"
        },
        {
          "indexed": true,
          "internalType": "address",
          "name": "account",
          "type": "address"
        },
        {
          "indexed": true,
          "internalType": "address",
          "name": "sender",
          "type": "address"
        }
      ],
      "name": "RoleRevoked",
      "type": "event"
    },
    {
      "anonymous": false,
      "inputs": [
        {
          "indexed": true,
          "internalType": "address",
          "name": "from",
          "type": "address"
        },
        {
          "indexed": true,
          "internalType": "address",
          "name": "to",
          "type": "address"
        },
        {
          "indexed": false,
          "internalType": "uint256",
          "name": "value",
          "type": "uint256"
        }
      ],
      "name": "Transfer",
      "type": "event"
    },
    {
      "inputs": [],
      "name": "COURSE_COMPLETION_REWARD",
      "outputs": [
        {
          "internalType": "uint256",
          "name": "",
          "type": "uint256"
        }
      ],
      "stateMutability": "view",
      "type": "function"
    },
    {
      "inputs": [],
      "name": "COURSE_OWNER_ROLE",
      "outputs": [
        {
          "internalType": "bytes32",
          "name": "",
          "type": "bytes32"
        }
      ],
      "stateMutability": "view",
      "type": "function"
    },
    {
      "inputs": [],
      "name": "CREATE_COURSE_REWARD",
      "outputs": [
        {
          "internalType": "uint256",
          "name": "",
          "type": "uint256"
        }
      ],
      "stateMutability": "view",
      "type": "function"
    },
    {
      "inputs": [],
      "name": "DEFAULT_ADMIN_ROLE",
      "outputs": [
        {
          "internalType": "bytes32",
          "name": "",
          "type": "bytes32"
        }
      ],
      "stateMutability": "view",
      "type": "function"
    },
    {
      "inputs": [],
      "name": "ECOSYSTEM_POOL",
      "outputs": [
        {
          "internalType": "uint256",
          "name": "",
          "type": "uint256"
        }
      ],
      "stateMutability": "view",
      "type": "function"
    },
    {
      "inputs": [],
      "name": "ENROLLMENT_REWARD",
      "outputs": [
        {
          "internalType": "uint256",
          "name": "",
          "type": "uint256"
        }
      ],
      "stateMutability": "view",
      "type": "function"
    },
    {
      "inputs": [],
      "name": "MAX_SCORE",
      "outputs": [
        {
          "internalType": "uint256",
          "name": "",
          "type": "uint256"
        }
      ],
      "stateMutability": "view",
      "type": "function"
    },
    {
      "inputs": [],
      "name": "MAX_SUPPLY",
      "outputs": [
        {
          "internalType": "uint256",
          "name": "",
          "type": "uint256"
        }
      ],
      "stateMutability": "view",
      "type": "function"
    },
    {
      "inputs": [],
      "name": "MIN_APPROVAL_SCORE",
      "outputs": [
        {
          "internalType": "uint256",
          "name": "",
          "type": "uint256"
        }
      ],
      "stateMutability": "view",
      "type": "function"
    },
    {
      "inputs": [],
      "name": "MULTISIG_APPROVER",
      "outputs": [
        {
          "internalType": "bytes32",
          "name": "",
          "type": "bytes32"
        }
      ],
      "stateMutability": "view",
      "type": "function"
    },
    {
      "inputs": [],
      "name": "QUIZ_COMPLETION_REWARD",
      "outputs": [
        {
          "internalType": "uint256",
          "name": "",
          "type": "uint256"
        }
      ],
      "stateMutability": "view",
      "type": "function"
    },
    {
      "inputs": [],
      "name": "REQUIRED_APPROVALS",
      "outputs": [
        {
          "internalType": "uint256",
          "name": "",
          "type": "uint256"
        }
      ],
      "stateMutability": "view",
      "type": "function"
    },
    {
      "inputs": [],
      "name": "REVIEWER_ROLE",
      "outputs": [
        {
          "internalType": "bytes32",
          "name": "",
          "type": "bytes32"
        }
      ],
      "stateMutability": "view",
      "type": "function"
    },
    {
      "inputs": [
        {
          "internalType": "address",
          "name": "",
          "type": "address"
        }
      ],
      "name": "accountCourses",
      "outputs": [
        {
          "internalType": "uint256",
          "name": "courseCount",
          "type": "uint256"
        }
      ],
      "stateMutability": "view",
      "type": "function"
    },
    {
      "inputs": [
        {
          "internalType": "address",
          "name": "newReviewer",
          "type": "address"
        }
      ],
      "name": "addReviewer",
      "outputs": [],
      "stateMutability": "nonpayable",
      "type": "function"
    },
    {
      "inputs": [
        {
          "internalType": "address",
          "name": "owner",
          "type": "address"
        },
        {
          "internalType": "address",
          "name": "spender",
          "type": "address"
        }
      ],
      "name": "allowance",
      "outputs": [
        {
          "internalType": "uint256",
          "name": "",
          "type": "uint256"
        }
      ],
      "stateMutability": "view",
      "type": "function"
    },
    {
      "inputs": [
        {
          "internalType": "address",
          "name": "",
          "type": "address"
        },
        {
          "internalType": "uint256",
          "name": "",
          "type": "uint256"
        }
      ],
      "name": "approvals",
      "outputs": [
        {
          "internalType": "bool",
          "name": "",
          "type": "bool"
        }
      ],
      "stateMutability": "view",
      "type": "function"
    },
    {
      "inputs": [
        {
          "internalType": "address",
          "name": "spender",
          "type": "address"
        },
        {
          "internalType": "uint256",
          "name": "value",
          "type": "uint256"
        }
      ],
      "name": "approve",
      "outputs": [
        {
          "internalType": "bool",
          "name": "",
          "type": "bool"
        }
      ],
      "stateMutability": "nonpayable",
      "type": "function"
    },
    {
      "inputs": [
        {
          "internalType": "uint256",
          "name": "_courseId",
          "type": "uint256"
        }
      ],
      "name": "approveCourse",
      "outputs": [],
      "stateMutability": "nonpayable",
      "type": "function"
    },
    {
      "inputs": [
        {
          "internalType": "uint256",
          "name": "_proposalId",
          "type": "uint256"
        }
      ],
      "name": "approveMultiSigProposal",
      "outputs": [],
      "stateMutability": "nonpayable",
      "type": "function"
    },
    {
      "inputs": [
        {
          "internalType": "address",
          "name": "account",
          "type": "address"
        }
      ],
      "name": "balanceOf",
      "outputs": [
        {
          "internalType": "uint256",
          "name": "",
          "type": "uint256"
        }
      ],
      "stateMutability": "view",
      "type": "function"
    },
    {
      "inputs": [
        {
          "internalType": "uint256",
          "name": "",
          "type": "uint256"
        }
      ],
      "name": "certificates",
      "outputs": [
        {
          "internalType": "uint256",
          "name": "certId",
          "type": "uint256"
        },
        {
          "internalType": "uint256",
          "name": "courseId",
          "type": "uint256"
        },
        {
          "internalType": "string",
          "name": "learner",
          "type": "string"
        },
        {
          "internalType": "string",
          "name": "cert_issuer",
          "type": "string"
        },
        {
          "internalType": "uint256",
          "name": "issue_date",
          "type": "uint256"
        },
        {
          "internalType": "string",
          "name": "courseName",
          "type": "string"
        },
        {
          "internalType": "address",
          "name": "owner",
          "type": "address"
        }
      ],
      "stateMutability": "view",
      "type": "function"
    },
    {
      "inputs": [
        {
          "internalType": "uint256",
          "name": "",
          "type": "uint256"
        }
      ],
      "name": "chapter",
      "outputs": [
        {
          "internalType": "uint256",
          "name": "courseId",
          "type": "uint256"
        },
        {
          "internalType": "uint256",
          "name": "chapterId",
          "type": "uint256"
        },
        {
          "internalType": "string",
          "name": "chapterName",
          "type": "string"
        },
        {
          "internalType": "uint256",
          "name": "duration",
          "type": "uint256"
        },
        {
          "internalType": "bool",
          "name": "exists",
          "type": "bool"
        }
      ],
      "stateMutability": "view",
      "type": "function"
    },
    {
      "inputs": [
        {
          "internalType": "uint256",
          "name": "",
          "type": "uint256"
        },
        {
          "internalType": "uint256",
          "name": "",
          "type": "uint256"
        }
      ],
      "name": "chapterLessons",
      "outputs": [
        {
          "internalType": "string",
          "name": "",
          "type": "string"
        }
      ],
      "stateMutability": "view",
      "type": "function"
    },
    {
      "inputs": [
        {
          "internalType": "uint256",
          "name": "",
          "type": "uint256"
        },
        {
          "internalType": "address",
          "name": "",
          "type": "address"
        }
      ],
      "name": "completedQuizzes",
      "outputs": [
        {
          "internalType": "bool",
          "name": "",
          "type": "bool"
        }
      ],
      "stateMutability": "view",
      "type": "function"
    },
    {
      "inputs": [
        {
          "internalType": "uint256",
          "name": "",
          "type": "uint256"
        },
        {
          "internalType": "uint256",
          "name": "",
          "type": "uint256"
        }
      ],
      "name": "courseChapters",
      "outputs": [
        {
          "internalType": "uint256",
          "name": "courseId",
          "type": "uint256"
        },
        {
          "internalType": "uint256",
          "name": "chapterId",
          "type": "uint256"
        },
        {
          "internalType": "string",
          "name": "chapterName",
          "type": "string"
        },
        {
          "internalType": "uint256",
          "name": "duration",
          "type": "uint256"
        },
        {
          "internalType": "bool",
          "name": "exists",
          "type": "bool"
        }
      ],
      "stateMutability": "view",
      "type": "function"
    },
    {
      "inputs": [
        {
          "internalType": "uint256",
          "name": "",
          "type": "uint256"
        },
        {
          "internalType": "address",
          "name": "",
          "type": "address"
        }
      ],
      "name": "courseCompleted",
      "outputs": [
        {
          "internalType": "bool",
          "name": "",
          "type": "bool"
        }
      ],
      "stateMutability": "view",
      "type": "function"
    },
    {
      "inputs": [],
      "name": "courseCount",
      "outputs": [
        {
          "internalType": "uint256",
          "name": "",
          "type": "uint256"
        }
      ],
      "stateMutability": "view",
      "type": "function"
    },
    {
      "inputs": [
        {
          "internalType": "uint256",
          "name": "",
          "type": "uint256"
        }
      ],
      "name": "courseObject",
      "outputs": [
        {
          "internalType": "uint256",
          "name": "courseId",
          "type": "uint256"
        },
        {
          "internalType": "string",
          "name": "courseName",
          "type": "string"
        },
        {
          "internalType": "string",
          "name": "description",
          "type": "string"
        },
        {
          "internalType": "bool",
          "name": "approved",
          "type": "bool"
        },
        {
          "internalType": "uint256",
          "name": "approvalCount",
          "type": "uint256"
        },
        {
          "internalType": "address",
          "name": "creator",
          "type": "address"
        },
        {
          "internalType": "bool",
          "name": "exists",
          "type": "bool"
        },
        {
          "internalType": "enum Ecosystem.DifficultyLevel",
          "name": "difficultyLevel",
          "type": "uint8"
        }
      ],
      "stateMutability": "view",
      "type": "function"
    },
    {
      "inputs": [
        {
          "internalType": "uint256",
          "name": "",
          "type": "uint256"
        }
      ],
      "name": "courseReviewInitiated",
      "outputs": [
        {
          "internalType": "bool",
          "name": "",
          "type": "bool"
        }
      ],
      "stateMutability": "view",
      "type": "function"
    },
    {
      "inputs": [
        {
          "internalType": "uint256",
          "name": "",
          "type": "uint256"
        },
        {
          "internalType": "uint256",
          "name": "",
          "type": "uint256"
        }
      ],
      "name": "courseReviewers",
      "outputs": [
        {
          "internalType": "address",
          "name": "",
          "type": "address"
        }
      ],
      "stateMutability": "view",
      "type": "function"
    },
    {
      "inputs": [
        {
          "internalType": "string",
          "name": "_courseName",
          "type": "string"
        },
        {
          "internalType": "string",
          "name": "_description",
          "type": "string"
        },
        {
          "internalType": "enum Ecosystem.DifficultyLevel",
          "name": "_difficultyLevel",
          "type": "uint8"
        }
      ],
      "name": "createCourse",
      "outputs": [
        {
          "internalType": "bool",
          "name": "",
          "type": "bool"
        }
      ],
      "stateMutability": "nonpayable",
      "type": "function"
    },
    {
      "inputs": [],
      "name": "decimals",
      "outputs": [
        {
          "internalType": "uint8",
          "name": "",
          "type": "uint8"
        }
      ],
      "stateMutability": "view",
      "type": "function"
    },
    {
      "inputs": [
        {
          "internalType": "uint256",
          "name": "_courseId",
          "type": "uint256"
        },
        {
          "internalType": "uint256",
          "name": "_chapterId",
          "type": "uint256"
        }
      ],
      "name": "deleteChapter",
      "outputs": [
        {
          "internalType": "bool",
          "name": "",
          "type": "bool"
        }
      ],
      "stateMutability": "nonpayable",
      "type": "function"
    },
    {
      "inputs": [
        {
          "internalType": "uint256",
          "name": "_courseId",
          "type": "uint256"
        }
      ],
      "name": "deleteCourse",
      "outputs": [
        {
          "internalType": "bool",
          "name": "",
          "type": "bool"
        }
      ],
      "stateMutability": "nonpayable",
      "type": "function"
    },
    {
      "inputs": [
        {
          "internalType": "uint256",
          "name": "_chapterId",
          "type": "uint256"
        },
        {
          "internalType": "uint256",
          "name": "_lessonId",
          "type": "uint256"
        }
      ],
      "name": "deleteLesson",
      "outputs": [
        {
          "internalType": "bool",
          "name": "",
          "type": "bool"
        }
      ],
      "stateMutability": "nonpayable",
      "type": "function"
    },
    {
      "inputs": [
        {
          "internalType": "uint256",
          "name": "_quizId",
          "type": "uint256"
        },
        {
          "internalType": "uint256",
          "name": "_questionId",
          "type": "uint256"
        }
      ],
      "name": "deleteQuestion",
      "outputs": [
        {
          "internalType": "bool",
          "name": "",
          "type": "bool"
        }
      ],
      "stateMutability": "nonpayable",
      "type": "function"
    },
    {
      "inputs": [
        {
          "internalType": "uint256",
          "name": "_lessonId",
          "type": "uint256"
        },
        {
          "internalType": "uint256",
          "name": "_quizId",
          "type": "uint256"
        }
      ],
      "name": "deleteQuiz",
      "outputs": [
        {
          "internalType": "bool",
          "name": "",
          "type": "bool"
        }
      ],
      "stateMutability": "nonpayable",
      "type": "function"
    },
    {
      "inputs": [],
      "name": "ecosystemPoolSupply",
      "outputs": [
        {
          "internalType": "uint256",
          "name": "",
          "type": "uint256"
        }
      ],
      "stateMutability": "view",
      "type": "function"
    },
    {
      "inputs": [
        {
          "internalType": "uint256",
          "name": "_courseId",
          "type": "uint256"
        },
        {
          "internalType": "uint256",
          "name": "_chapterId",
          "type": "uint256"
        },
        {
          "internalType": "string",
          "name": "_chapterName",
          "type": "string"
        }
      ],
      "name": "editChapter",
      "outputs": [
        {
          "internalType": "bool",
          "name": "",
          "type": "bool"
        }
      ],
      "stateMutability": "nonpayable",
      "type": "function"
    },
    {
      "inputs": [
        {
          "internalType": "uint256",
          "name": "_courseId",
          "type": "uint256"
        },
        {
          "internalType": "string",
          "name": "_courseName",
          "type": "string"
        }
      ],
      "name": "editCourse",
      "outputs": [
        {
          "internalType": "bool",
          "name": "",
          "type": "bool"
        }
      ],
      "stateMutability": "nonpayable",
      "type": "function"
    },
    {
      "inputs": [
        {
          "internalType": "uint256",
          "name": "_lessonId",
          "type": "uint256"
        },
        {
          "internalType": "string",
          "name": "_lessonName",
          "type": "string"
        },
        {
          "internalType": "string",
          "name": "_lessonContent",
          "type": "string"
        },
        {
          "components": [
            {
              "internalType": "enum Ecosystem.ContentType",
              "name": "contentType",
              "type": "uint8"
            },
            {
              "internalType": "string",
              "name": "url",
              "type": "string"
            },
            {
              "internalType": "string",
              "name": "name",
              "type": "string"
            }
          ],
          "internalType": "struct Ecosystem.Resource[]",
          "name": "_additionalResources",
          "type": "tuple[]"
        }
      ],
      "name": "editLesson",
      "outputs": [
        {
          "internalType": "bool",
          "name": "",
          "type": "bool"
        }
      ],
      "stateMutability": "nonpayable",
      "type": "function"
    },
    {
      "inputs": [
        {
          "internalType": "uint256",
          "name": "_lessonId",
          "type": "uint256"
        },
        {
          "internalType": "uint256",
          "name": "_quizId",
          "type": "uint256"
        },
        {
          "internalType": "string",
          "name": "_quizTitle",
          "type": "string"
        }
      ],
      "name": "editQuiz",
      "outputs": [],
      "stateMutability": "nonpayable",
      "type": "function"
    },
    {
      "inputs": [],
      "name": "getAllCourses",
      "outputs": [
        {
          "components": [
            {
              "internalType": "uint256",
              "name": "courseId",
              "type": "uint256"
            },
            {
              "internalType": "string",
              "name": "courseName",
              "type": "string"
            },
            {
              "internalType": "string",
              "name": "description",
              "type": "string"
            },
            {
              "internalType": "bool",
              "name": "approved",
              "type": "bool"
            },
            {
              "internalType": "uint256",
              "name": "approvalCount",
              "type": "uint256"
            },
            {
              "internalType": "address",
              "name": "creator",
              "type": "address"
            },
            {
              "internalType": "bool",
              "name": "exists",
              "type": "bool"
            },
            {
              "internalType": "address[]",
              "name": "enrolledStudents",
              "type": "address[]"
            },
            {
              "internalType": "enum Ecosystem.DifficultyLevel",
              "name": "difficultyLevel",
              "type": "uint8"
            }
          ],
          "internalType": "struct Ecosystem.Course[]",
          "name": "",
          "type": "tuple[]"
        }
      ],
      "stateMutability": "view",
      "type": "function"
    },
    {
      "inputs": [
        {
          "internalType": "uint256",
          "name": "courseId",
          "type": "uint256"
        }
      ],
      "name": "getCourseReviewers",
      "outputs": [
        {
          "internalType": "address[]",
          "name": "",
          "type": "address[]"
        }
      ],
      "stateMutability": "view",
      "type": "function"
    },
    {
      "inputs": [],
      "name": "getCurrentEcosystemPoolSupply",
      "outputs": [
        {
          "internalType": "uint256",
          "name": "",
          "type": "uint256"
        }
      ],
      "stateMutability": "view",
      "type": "function"
    },
    {
      "inputs": [
        {
          "internalType": "bytes32",
          "name": "role",
          "type": "bytes32"
        }
      ],
      "name": "getRoleAdmin",
      "outputs": [
        {
          "internalType": "bytes32",
          "name": "",
          "type": "bytes32"
        }
      ],
      "stateMutability": "view",
      "type": "function"
    },
    {
      "inputs": [
        {
          "internalType": "bytes32",
          "name": "role",
          "type": "bytes32"
        },
        {
          "internalType": "address",
          "name": "account",
          "type": "address"
        }
      ],
      "name": "grantRole",
      "outputs": [],
      "stateMutability": "nonpayable",
      "type": "function"
    },
    {
      "inputs": [
        {
          "internalType": "bytes32",
          "name": "role",
          "type": "bytes32"
        },
        {
          "internalType": "address",
          "name": "account",
          "type": "address"
        }
      ],
      "name": "hasRole",
      "outputs": [
        {
          "internalType": "bool",
          "name": "",
          "type": "bool"
        }
      ],
      "stateMutability": "view",
      "type": "function"
    },
    {
      "inputs": [
        {
          "internalType": "uint256",
          "name": "",
          "type": "uint256"
        },
        {
          "internalType": "address",
          "name": "",
          "type": "address"
        }
      ],
      "name": "isEnrolled",
      "outputs": [
        {
          "internalType": "bool",
          "name": "",
          "type": "bool"
        }
      ],
      "stateMutability": "view",
      "type": "function"
    },
    {
      "inputs": [
        {
          "internalType": "address",
          "name": "",
          "type": "address"
        }
      ],
      "name": "isInReviewerPool",
      "outputs": [
        {
          "internalType": "bool",
          "name": "",
          "type": "bool"
        }
      ],
      "stateMutability": "view",
      "type": "function"
    },
    {
      "inputs": [
        {
          "internalType": "address",
          "name": "account",
          "type": "address"
        }
      ],
      "name": "isReviewer",
      "outputs": [
        {
          "internalType": "bool",
          "name": "",
          "type": "bool"
        }
      ],
      "stateMutability": "view",
      "type": "function"
    },
    {
      "inputs": [
        {
          "internalType": "uint256",
          "name": "_courseId",
          "type": "uint256"
        },
        {
          "internalType": "string",
          "name": "learner",
          "type": "string"
        },
        {
          "internalType": "string",
          "name": "courseName",
          "type": "string"
        },
        {
          "internalType": "string",
          "name": "cert_issuer",
          "type": "string"
        },
        {
          "internalType": "uint256",
          "name": "issue_date",
          "type": "uint256"
        }
      ],
      "name": "issueCertificate",
      "outputs": [
        {
          "internalType": "uint256",
          "name": "",
          "type": "uint256"
        },
        {
          "components": [
            {
              "internalType": "uint256",
              "name": "certId",
              "type": "uint256"
            },
            {
              "internalType": "uint256",
              "name": "courseId",
              "type": "uint256"
            },
            {
              "internalType": "string",
              "name": "learner",
              "type": "string"
            },
            {
              "internalType": "string",
              "name": "cert_issuer",
              "type": "string"
            },
            {
              "internalType": "uint256",
              "name": "issue_date",
              "type": "uint256"
            },
            {
              "internalType": "string",
              "name": "courseName",
              "type": "string"
            },
            {
              "internalType": "address",
              "name": "owner",
              "type": "address"
            }
          ],
          "internalType": "struct Ecosystem3.Certificate",
          "name": "",
          "type": "tuple"
        }
      ],
      "stateMutability": "nonpayable",
      "type": "function"
    },
    {
      "inputs": [
        {
          "internalType": "uint256",
          "name": "",
          "type": "uint256"
        }
      ],
      "name": "lesson",
      "outputs": [
        {
          "internalType": "uint256",
          "name": "chapterId",
          "type": "uint256"
        },
        {
          "internalType": "uint256",
          "name": "lessonId",
          "type": "uint256"
        },
        {
          "internalType": "string",
          "name": "lessonName",
          "type": "string"
        },
        {
          "internalType": "string",
          "name": "lessonContent",
          "type": "string"
        },
        {
          "internalType": "uint256",
          "name": "resourceCount",
          "type": "uint256"
        },
        {
          "internalType": "bool",
          "name": "exists",
          "type": "bool"
        }
      ],
      "stateMutability": "view",
      "type": "function"
    },
    {
      "inputs": [
        {
          "internalType": "uint256",
          "name": "",
          "type": "uint256"
        },
        {
          "internalType": "address",
          "name": "",
          "type": "address"
        }
      ],
      "name": "lessonRead",
      "outputs": [
        {
          "internalType": "bool",
          "name": "",
          "type": "bool"
        }
      ],
      "stateMutability": "view",
      "type": "function"
    },
    {
      "inputs": [
        {
          "internalType": "uint256",
          "name": "",
          "type": "uint256"
        }
      ],
      "name": "listOfChapters",
      "outputs": [
        {
          "internalType": "uint256",
          "name": "courseId",
          "type": "uint256"
        },
        {
          "internalType": "uint256",
          "name": "chapterId",
          "type": "uint256"
        },
        {
          "internalType": "string",
          "name": "chapterName",
          "type": "string"
        },
        {
          "internalType": "uint256",
          "name": "duration",
          "type": "uint256"
        },
        {
          "internalType": "bool",
          "name": "exists",
          "type": "bool"
        }
      ],
      "stateMutability": "view",
      "type": "function"
    },
    {
      "inputs": [
        {
          "internalType": "uint256",
          "name": "",
          "type": "uint256"
        }
      ],
      "name": "listOfCourses",
      "outputs": [
        {
          "internalType": "uint256",
          "name": "courseId",
          "type": "uint256"
        },
        {
          "internalType": "string",
          "name": "courseName",
          "type": "string"
        },
        {
          "internalType": "string",
          "name": "description",
          "type": "string"
        },
        {
          "internalType": "bool",
          "name": "approved",
          "type": "bool"
        },
        {
          "internalType": "uint256",
          "name": "approvalCount",
          "type": "uint256"
        },
        {
          "internalType": "address",
          "name": "creator",
          "type": "address"
        },
        {
          "internalType": "bool",
          "name": "exists",
          "type": "bool"
        },
        {
          "internalType": "enum Ecosystem.DifficultyLevel",
          "name": "difficultyLevel",
          "type": "uint8"
        }
      ],
      "stateMutability": "view",
      "type": "function"
    },
    {
      "inputs": [
        {
          "internalType": "uint256",
          "name": "",
          "type": "uint256"
        }
      ],
      "name": "listOfLessons",
      "outputs": [
        {
          "internalType": "uint256",
          "name": "chapterId",
          "type": "uint256"
        },
        {
          "internalType": "uint256",
          "name": "lessonId",
          "type": "uint256"
        },
        {
          "internalType": "string",
          "name": "lessonName",
          "type": "string"
        },
        {
          "internalType": "string",
          "name": "lessonContent",
          "type": "string"
        },
        {
          "internalType": "uint256",
          "name": "resourceCount",
          "type": "uint256"
        },
        {
          "internalType": "bool",
          "name": "exists",
          "type": "bool"
        }
      ],
      "stateMutability": "view",
      "type": "function"
    },
    {
      "inputs": [
        {
          "internalType": "uint256",
          "name": "",
          "type": "uint256"
        }
      ],
      "name": "listOfQuestions",
      "outputs": [
        {
          "internalType": "uint256",
          "name": "quizId",
          "type": "uint256"
        },
        {
          "internalType": "uint256",
          "name": "questionId",
          "type": "uint256"
        },
        {
          "internalType": "string",
          "name": "questionText",
          "type": "string"
        }
      ],
      "stateMutability": "view",
      "type": "function"
    },
    {
      "inputs": [
        {
          "internalType": "uint256",
          "name": "",
          "type": "uint256"
        }
      ],
      "name": "listOfQuizzes",
      "outputs": [
        {
          "internalType": "uint256",
          "name": "lessonId",
          "type": "uint256"
        },
        {
          "internalType": "uint256",
          "name": "quizId",
          "type": "uint256"
        },
        {
          "internalType": "string",
          "name": "quizTitle",
          "type": "string"
        },
        {
          "internalType": "bool",
          "name": "exists",
          "type": "bool"
        }
      ],
      "stateMutability": "view",
      "type": "function"
    },
    {
      "inputs": [
        {
          "internalType": "uint256",
          "name": "",
          "type": "uint256"
        }
      ],
      "name": "listOfResource",
      "outputs": [
        {
          "internalType": "enum Ecosystem.ContentType",
          "name": "contentType",
          "type": "uint8"
        },
        {
          "internalType": "string",
          "name": "url",
          "type": "string"
        },
        {
          "internalType": "string",
          "name": "name",
          "type": "string"
        }
      ],
      "stateMutability": "view",
      "type": "function"
    },
    {
      "inputs": [
        {
          "internalType": "uint256",
          "name": "_chapterId",
          "type": "uint256"
        },
        {
          "internalType": "uint256",
          "name": "_lessonId",
          "type": "uint256"
        }
      ],
      "name": "markAsRead",
      "outputs": [
        {
          "internalType": "bool",
          "name": "",
          "type": "bool"
        }
      ],
      "stateMutability": "nonpayable",
      "type": "function"
    },
    {
      "inputs": [
        {
          "internalType": "uint256",
          "name": "",
          "type": "uint256"
        }
      ],
      "name": "multiSigProposals",
      "outputs": [
        {
          "internalType": "uint256",
          "name": "id",
          "type": "uint256"
        },
        {
          "internalType": "address",
          "name": "proposer",
          "type": "address"
        },
        {
          "internalType": "address",
          "name": "targetContract",
          "type": "address"
        },
        {
          "internalType": "bytes",
          "name": "data",
          "type": "bytes"
        },
        {
          "internalType": "uint256",
          "name": "approvalCount",
          "type": "uint256"
        },
        {
          "internalType": "bool",
          "name": "executed",
          "type": "bool"
        }
      ],
      "stateMutability": "view",
      "type": "function"
    },
    {
      "inputs": [],
      "name": "name",
      "outputs": [
        {
          "internalType": "string",
          "name": "",
          "type": "string"
        }
      ],
      "stateMutability": "view",
      "type": "function"
    },
    {
      "inputs": [],
      "name": "nextChapterId",
      "outputs": [
        {
          "internalType": "uint256",
          "name": "",
          "type": "uint256"
        }
      ],
      "stateMutability": "view",
      "type": "function"
    },
    {
      "inputs": [],
      "name": "nextChoiceId",
      "outputs": [
        {
          "internalType": "uint256",
          "name": "",
          "type": "uint256"
        }
      ],
      "stateMutability": "view",
      "type": "function"
    },
    {
      "inputs": [],
      "name": "nextCourseId",
      "outputs": [
        {
          "internalType": "uint256",
          "name": "",
          "type": "uint256"
        }
      ],
      "stateMutability": "view",
      "type": "function"
    },
    {
      "inputs": [],
      "name": "nextCourseIdd",
      "outputs": [
        {
          "internalType": "uint256",
          "name": "",
          "type": "uint256"
        }
      ],
      "stateMutability": "view",
      "type": "function"
    },
    {
      "inputs": [],
      "name": "nextLessonId",
      "outputs": [
        {
          "internalType": "uint256",
          "name": "",
          "type": "uint256"
        }
      ],
      "stateMutability": "view",
      "type": "function"
    },
    {
      "inputs": [],
      "name": "nextQuestionId",
      "outputs": [
        {
          "internalType": "uint256",
          "name": "",
          "type": "uint256"
        }
      ],
      "stateMutability": "view",
      "type": "function"
    },
    {
      "inputs": [],
      "name": "nextQuizId",
      "outputs": [
        {
          "internalType": "uint256",
          "name": "",
          "type": "uint256"
        }
      ],
      "stateMutability": "view",
      "type": "function"
    },
    {
      "inputs": [
        {
          "internalType": "uint256",
          "name": "",
          "type": "uint256"
        }
      ],
      "name": "questions",
      "outputs": [
        {
          "internalType": "uint256",
          "name": "quizId",
          "type": "uint256"
        },
        {
          "internalType": "uint256",
          "name": "questionId",
          "type": "uint256"
        },
        {
          "internalType": "string",
          "name": "questionText",
          "type": "string"
        }
      ],
      "stateMutability": "view",
      "type": "function"
    },
    {
      "inputs": [
        {
          "internalType": "uint256",
          "name": "",
          "type": "uint256"
        }
      ],
      "name": "quizzes",
      "outputs": [
        {
          "internalType": "uint256",
          "name": "lessonId",
          "type": "uint256"
        },
        {
          "internalType": "uint256",
          "name": "quizId",
          "type": "uint256"
        },
        {
          "internalType": "string",
          "name": "quizTitle",
          "type": "string"
        },
        {
          "internalType": "bool",
          "name": "exists",
          "type": "bool"
        }
      ],
      "stateMutability": "view",
      "type": "function"
    },
    {
      "inputs": [
        {
          "internalType": "address",
          "name": "reviewer",
          "type": "address"
        }
      ],
      "name": "removeReviewer",
      "outputs": [],
      "stateMutability": "nonpayable",
      "type": "function"
    },
    {
      "inputs": [
        {
          "internalType": "bytes32",
          "name": "role",
          "type": "bytes32"
        },
        {
          "internalType": "address",
          "name": "callerConfirmation",
          "type": "address"
        }
      ],
      "name": "renounceRole",
      "outputs": [],
      "stateMutability": "nonpayable",
      "type": "function"
    },
    {
      "inputs": [
        {
          "internalType": "uint256",
          "name": "",
          "type": "uint256"
        }
      ],
      "name": "reviewerPool",
      "outputs": [
        {
          "internalType": "address",
          "name": "",
          "type": "address"
        }
      ],
      "stateMutability": "view",
      "type": "function"
    },
    {
      "inputs": [
        {
          "internalType": "uint256",
          "name": "",
          "type": "uint256"
        },
        {
          "internalType": "address",
          "name": "",
          "type": "address"
        }
      ],
      "name": "reviews",
      "outputs": [
        {
          "internalType": "uint256",
          "name": "learnerAgency",
          "type": "uint256"
        },
        {
          "internalType": "uint256",
          "name": "criticalThinking",
          "type": "uint256"
        },
        {
          "internalType": "uint256",
          "name": "collaborativeLearning",
          "type": "uint256"
        },
        {
          "internalType": "uint256",
          "name": "reflectivePractice",
          "type": "uint256"
        },
        {
          "internalType": "uint256",
          "name": "adaptiveLearning",
          "type": "uint256"
        },
        {
          "internalType": "uint256",
          "name": "authenticLearning",
          "type": "uint256"
        },
        {
          "internalType": "uint256",
          "name": "technologyIntegration",
          "type": "uint256"
        },
        {
          "internalType": "uint256",
          "name": "learnerSupport",
          "type": "uint256"
        },
        {
          "internalType": "uint256",
          "name": "assessmentForLearning",
          "type": "uint256"
        },
        {
          "internalType": "uint256",
          "name": "engagementAndMotivation",
          "type": "uint256"
        },
        {
          "internalType": "bool",
          "name": "isSubmitted",
          "type": "bool"
        }
      ],
      "stateMutability": "view",
      "type": "function"
    },
    {
      "inputs": [
        {
          "internalType": "bytes32",
          "name": "role",
          "type": "bytes32"
        },
        {
          "internalType": "address",
          "name": "account",
          "type": "address"
        }
      ],
      "name": "revokeRole",
      "outputs": [],
      "stateMutability": "nonpayable",
      "type": "function"
    },
    {
      "inputs": [
        {
          "internalType": "uint256",
          "name": "courseId",
          "type": "uint256"
        }
      ],
      "name": "selectCourseReviewers",
      "outputs": [],
      "stateMutability": "nonpayable",
      "type": "function"
    },
    {
      "inputs": [
        {
          "internalType": "uint256",
          "name": "_quizId",
          "type": "uint256"
        },
        {
          "internalType": "uint256[]",
          "name": "_answers",
          "type": "uint256[]"
        }
      ],
      "name": "submitQuiz",
      "outputs": [
        {
          "internalType": "uint256",
          "name": "score",
          "type": "uint256"
        }
      ],
      "stateMutability": "nonpayable",
      "type": "function"
    },
    {
      "inputs": [
        {
          "internalType": "uint256",
          "name": "courseId",
          "type": "uint256"
        },
        {
          "internalType": "uint256",
          "name": "learnerAgency",
          "type": "uint256"
        },
        {
          "internalType": "uint256",
          "name": "criticalThinking",
          "type": "uint256"
        },
        {
          "internalType": "uint256",
          "name": "collaborativeLearning",
          "type": "uint256"
        },
        {
          "internalType": "uint256",
          "name": "reflectivePractice",
          "type": "uint256"
        },
        {
          "internalType": "uint256",
          "name": "adaptiveLearning",
          "type": "uint256"
        },
        {
          "internalType": "uint256",
          "name": "authenticLearning",
          "type": "uint256"
        },
        {
          "internalType": "uint256",
          "name": "technologyIntegration",
          "type": "uint256"
        },
        {
          "internalType": "uint256",
          "name": "learnerSupport",
          "type": "uint256"
        },
        {
          "internalType": "uint256",
          "name": "assessmentForLearning",
          "type": "uint256"
        },
        {
          "internalType": "uint256",
          "name": "engagementAndMotivation",
          "type": "uint256"
        }
      ],
      "name": "submitReview",
      "outputs": [],
      "stateMutability": "nonpayable",
      "type": "function"
    },
    {
      "inputs": [
        {
          "internalType": "bytes4",
          "name": "interfaceId",
          "type": "bytes4"
        }
      ],
      "name": "supportsInterface",
      "outputs": [
        {
          "internalType": "bool",
          "name": "",
          "type": "bool"
        }
      ],
      "stateMutability": "view",
      "type": "function"
    },
    {
      "inputs": [],
      "name": "symbol",
      "outputs": [
        {
          "internalType": "string",
          "name": "",
          "type": "string"
        }
      ],
      "stateMutability": "view",
      "type": "function"
    },
    {
      "inputs": [],
      "name": "totalSupply",
      "outputs": [
        {
          "internalType": "uint256",
          "name": "",
          "type": "uint256"
        }
      ],
      "stateMutability": "view",
      "type": "function"
    },
    {
      "inputs": [
        {
          "internalType": "address",
          "name": "to",
          "type": "address"
        },
        {
          "internalType": "uint256",
          "name": "value",
          "type": "uint256"
        }
      ],
      "name": "transfer",
      "outputs": [
        {
          "internalType": "bool",
          "name": "",
          "type": "bool"
        }
      ],
      "stateMutability": "nonpayable",
      "type": "function"
    },
    {
      "inputs": [
        {
          "internalType": "address",
          "name": "from",
          "type": "address"
        },
        {
          "internalType": "address",
          "name": "to",
          "type": "address"
        },
        {
          "internalType": "uint256",
          "name": "value",
          "type": "uint256"
        }
      ],
      "name": "transferFrom",
      "outputs": [
        {
          "internalType": "bool",
          "name": "",
          "type": "bool"
        }
      ],
      "stateMutability": "nonpayable",
      "type": "function"
    },
    {
      "inputs": [
        {
          "internalType": "address",
          "name": "",
          "type": "address"
        },
        {
          "internalType": "uint256",
          "name": "",
          "type": "uint256"
        }
      ],
      "name": "userScores",
      "outputs": [
        {
          "internalType": "uint256",
          "name": "",
          "type": "uint256"
        }
      ],
      "stateMutability": "view",
      "type": "function"
    }
  ],
  "bytecode": "0x608060405234801561001057600080fd5b5060405161ae8138038061ae818339818101604052810190610032919061063b565b80806040518060400160405280600a81526020017f4142594120544f4b454e000000000000000000000000000000000000000000008152506040518060400160405280600681526020017f414259544b4e000000000000000000000000000000000000000000000000000081525081600390816100af91906108a5565b5080600490816100bf91906108a5565b505050600481511015610107576040517f08c379a00000000000000000000000000000000000000000000000000000000081526004016100fe906109fa565b60405180910390fd5b61011a6000801b336102c060201b60201c565b5061014b7fdf1425bae297c2f52b4f15d18a50b1fc8cb5b981a981b1d213ed3ff92681b64d336102c060201b60201c565b5060005b815181101561029f576101a27fc10c77be35aff266144ed64c26a1fa104bae2f284ae99ac4a34203454704a18583838151811061018f5761018e610a1a565b5b60200260200101516102c060201b60201c565b5060068282815181106101b8576101b7610a1a565b5b60200260200101519080600181540180825580915050600190039060005260206000200160009091909190916101000a81548173ffffffffffffffffffffffffffffffffffffffff021916908373ffffffffffffffffffffffffffffffffffffffff16021790555060016008600084848151811061023957610238610a1a565b5b602002602001015173ffffffffffffffffffffffffffffffffffffffff1673ffffffffffffffffffffffffffffffffffffffff16815260200190815260200160002060006101000a81548160ff021916908315150217905550808060010191505061014f565b50506001600a819055506102b9600b6103be60201b60201c565b5050610a49565b60006102d283836103fd60201b60201c565b6103b35760016005600085815260200190815260200160002060000160008473ffffffffffffffffffffffffffffffffffffffff1673ffffffffffffffffffffffffffffffffffffffff16815260200190815260200160002060006101000a81548160ff02191690831515021790555061035061046860201b60201c565b73ffffffffffffffffffffffffffffffffffffffff168273ffffffffffffffffffffffffffffffffffffffff16847f2f8788117e7eff1d82e926ec794901d17c78024a50270940304540a733656f0d60405160405180910390a4600190506103b8565b600090505b92915050565b60018160000181905550600181600101819055506001816002018190555060018160030181905550600181600401819055506001816005018190555050565b60006005600084815260200190815260200160002060000160008373ffffffffffffffffffffffffffffffffffffffff1673ffffffffffffffffffffffffffffffffffffffff16815260200190815260200160002060009054906101000a900460ff16905092915050565b600033905090565b6000604051905090565b600080fd5b600080fd5b600080fd5b6000601f19601f8301169050919050565b7f4e487b7100000000000000000000000000000000000000000000000000000000600052604160045260246000fd5b6104d282610489565b810181811067ffffffffffffffff821117156104f1576104f061049a565b5b80604052505050565b6000610504610470565b905061051082826104c9565b919050565b600067ffffffffffffffff8211156105305761052f61049a565b5b602082029050602081019050919050565b600080fd5b600073ffffffffffffffffffffffffffffffffffffffff82169050919050565b600061057182610546565b9050919050565b61058181610566565b811461058c57600080fd5b50565b60008151905061059e81610578565b92915050565b60006105b76105b284610515565b6104fa565b905080838252602082019050602084028301858111156105da576105d9610541565b5b835b8181101561060357806105ef888261058f565b8452602084019350506020810190506105dc565b5050509392505050565b600082601f83011261062257610621610484565b5b81516106328482602086016105a4565b91505092915050565b6000602082840312156106515761065061047a565b5b600082015167ffffffffffffffff81111561066f5761066e61047f565b5b61067b8482850161060d565b91505092915050565b600081519050919050565b7f4e487b7100000000000000000000000000000000000000000000000000000000600052602260045260246000fd5b600060028204905060018216806106d657607f821691505b6020821081036106e9576106e861068f565b5b50919050565b60008190508160005260206000209050919050565b60006020601f8301049050919050565b600082821b905092915050565b6000600883026107517fffffffffffffffffffffffffffffffffffffffffffffffffffffffffffffffff82610714565b61075b8683610714565b95508019841693508086168417925050509392505050565b6000819050919050565b6000819050919050565b60006107a261079d61079884610773565b61077d565b610773565b9050919050565b6000819050919050565b6107bc83610787565b6107d06107c8826107a9565b848454610721565b825550505050565b600090565b6107e56107d8565b6107f08184846107b3565b505050565b5b81811015610814576108096000826107dd565b6001810190506107f6565b5050565b601f8211156108595761082a816106ef565b61083384610704565b81016020851015610842578190505b61085661084e85610704565b8301826107f5565b50505b505050565b600082821c905092915050565b600061087c6000198460080261085e565b1980831691505092915050565b6000610895838361086b565b9150826002028217905092915050565b6108ae82610684565b67ffffffffffffffff8111156108c7576108c661049a565b5b6108d182546106be565b6108dc828285610818565b600060209050601f83116001811461090f57600084156108fd578287015190505b6109078582610889565b86555061096f565b601f19841661091d866106ef565b60005b8281101561094557848901518255600182019150602085019450602081019050610920565b86831015610962578489015161095e601f89168261086b565b8355505b6001600288020188555050505b505050505050565b600082825260208201905092915050565b7f4174206c6561737420342072657669657765727320617265207265717569726560008201527f6400000000000000000000000000000000000000000000000000000000000000602082015250565b60006109e4602183610977565b91506109ef82610988565b604082019050919050565b60006020820190508181036000830152610a13816109d7565b9050919050565b7f4e487b7100000000000000000000000000000000000000000000000000000000600052603260045260246000fd5b61a42980610a586000396000f3fe608060405234801561001057600080fd5b50600436106104cd5760003560e01c806370a0823111610283578063bad0dd651161015c578063dd62ed3e116100ce578063e503f10811610092578063e503f108146111ac578063e8639751146111ca578063ea0978ad146111fa578063eb264b9c1461122a578063fdc6258a14611248578063ffabc67314611278576104cd565b8063dd62ed3e146110cc578063ddfc79fb146110fc578063de5dc3a01461112e578063ded5c18d1461115e578063e09bcae31461117c576104cd565b8063c7954e4c11610120578063c7954e4c14610ff4578063c90c884d14611012578063c9442dac14611046578063c976831514611062578063d547741f14611092578063d93f2caa146110ae576104cd565b8063bad0dd6514610f09578063bfd2f4c514610f25578063c12804fb14610f5a578063c293bbbe14610f94578063c491b04c14610fc4576104cd565b80639560bc85116101f5578063a1cd05b1116101b9578063a1cd05b114610e09578063a217fddf14610e39578063a3ef204114610e57578063a9059cbb14610e8b578063aa95da3a14610ebb578063ac957c6314610eeb576104cd565b80639560bc8514610d4f57806395d89b4114610d6d5780639dad8d2214610d8b578063a1051dfe14610dbb578063a14ecbdf14610deb576104cd565b8063846f815211610247578063846f815214610c5257806388409afa14610c7057806388a8270f14610ca35780638a2492bb14610cd35780638ea6e2fd14610d0357806391d1485414610d1f576104cd565b806370a0823114610bae57806373a82b5f14610bde5780637528499814610bfa5780637ce1785214610c165780637d83daf214610c34576104cd565b806331b1b978116103b55780634fb95abd116103275780635b680a45116102eb5780635b680a4514610aa55780635cc2a14d14610ad55780636605515914610b05578063663b3e2214610b235780636b000fa714610b595780636fdb67f714610b77576104cd565b80634fb95abd146109ea57806351d93c8114610a1b57806352994e2f14610a4d57806358a3fa2514610a6b578063599c553314610a87576104cd565b806336568abe1161037957806336568abe146108f95780633693dcfa146109155780633b129a561461093357806340932bf8146109515780634d42ef48146109865780634dd84b3c146109ba576104cd565b806331b1b9781461082d57806332cb6b0c1461085f57806334b159dd1461087d57806334ed4bdb146108ad57806334f9b3fb146108dd576104cd565b8063248a9ca31161044e57806329a0be651161041257806329a0be65146107405780632aac61ae1461075e5780632ec63a0e146107935780632f2ff15d146107c357806330a3549a146107df578063313ce5671461080f576104cd565b8063248a9ca31461066a578063274202f01461069a57806327ff6223146106b8578063295b825a146106d65780632990db7c14610709576104cd565b806311ce15df1161049557806311ce15df1461058c57806313e85811146105bc57806318160ddd146105ec57806319f102ec1461060a57806323b872dd1461063a576104cd565b806301ffc9a7146104d257806304e48bd114610502578063057f46bb1461052057806306fdde031461053e578063095ea7b31461055c575b600080fd5b6104ec60048036038101906104e791906175b4565b6112a8565b6040516104f991906175fc565b60405180910390f35b61050a611322565b60405161051791906179cb565b60405180910390f35b610528611758565b60405161053591906179fc565b60405180910390f35b61054661175e565b6040516105539190617a61565b60405180910390f35b61057660048036038101906105719190617adb565b6117f0565b60405161058391906175fc565b60405180910390f35b6105a660048036038101906105a19190617b1b565b611813565b6040516105b391906175fc565b60405180910390f35b6105d660048036038101906105d19190617b48565b611833565b6040516105e391906175fc565b60405180910390f35b6105f4611862565b60405161060191906179fc565b60405180910390f35b610624600480360381019061061f9190617b1b565b61186c565b6040516106319190617b97565b60405180910390f35b610654600480360381019061064f9190617bb2565b6118ab565b60405161066191906175fc565b60405180910390f35b610684600480360381019061067f9190617c3b565b6118da565b6040516106919190617c77565b60405180910390f35b6106a26118fa565b6040516106af91906179fc565b60405180910390f35b6106c0611922565b6040516106cd91906179fc565b60405180910390f35b6106f060048036038101906106eb9190617b1b565b611927565b6040516107009493929190617c92565b60405180910390f35b610723600480360381019061071e9190617b1b565b6119fc565b604051610737989796959493929190617ced565b60405180910390f35b610748611b9b565b60405161075591906179fc565b60405180910390f35b61077860048036038101906107739190617b1b565b611ba1565b60405161078a96959493929190617d79565b60405180910390f35b6107ad60048036038101906107a89190617de8565b611d0a565b6040516107ba91906175fc565b60405180910390f35b6107dd60048036038101906107d89190617e28565b611eaf565b005b6107f960048036038101906107f4919061814e565b611ed1565b60405161080691906175fc565b60405180910390f35b61081761210f565b6040516108249190618225565b60405180910390f35b61084760048036038101906108429190617b1b565b612118565b60405161085693929190618240565b60405180910390f35b6108676121ca565b60405161087491906179fc565b60405180910390f35b61089760048036038101906108929190617b48565b6121da565b6040516108a491906175fc565b60405180910390f35b6108c760048036038101906108c2919061827e565b612209565b6040516108d491906179fc565b60405180910390f35b6108f760048036038101906108f291906182ab565b612227565b005b610913600480360381019061090e9190617e28565b612365565b005b61091d6123e0565b60405161092a9190617c77565b60405180910390f35b61093b612404565b6040516109489190617c77565b60405180910390f35b61096b60048036038101906109669190617b1b565b612428565b60405161097d9695949392919061836f565b60405180910390f35b6109a0600480360381019061099b9190617de8565b612539565b6040516109b19594939291906183d7565b60405180910390f35b6109d460048036038101906109cf9190617b48565b612621565b6040516109e191906175fc565b60405180910390f35b610a0460048036038101906109ff9190618431565b612650565b604051610a129291906185aa565b60405180910390f35b610a356004803603810190610a309190617b1b565b6129a3565b604051610a4493929190618240565b60405180910390f35b610a55612a65565b604051610a629190617c77565b60405180910390f35b610a856004803603810190610a8091906185da565b612a89565b005b610a8f612d4f565b604051610a9c91906179fc565b60405180910390f35b610abf6004803603810190610aba9190617adb565b612d54565b604051610acc91906179fc565b60405180910390f35b610aef6004803603810190610aea91906186ce565b612d79565b604051610afc91906175fc565b60405180910390f35b610b0d612e65565b604051610b1a91906179fc565b60405180910390f35b610b3d6004803603810190610b389190617b1b565b612e6b565b604051610b50979695949392919061872a565b60405180910390f35b610b61613065565b604051610b6e91906179fc565b60405180910390f35b610b916004803603810190610b8c9190617b1b565b61306b565b604051610ba5989796959493929190617ced565b60405180910390f35b610bc86004803603810190610bc3919061827e565b61321a565b604051610bd591906179fc565b60405180910390f35b610bf86004803603810190610bf3919061827e565b613262565b005b610c146004803603810190610c0f9190617b1b565b613446565b005b610c1e61379d565b604051610c2b91906179fc565b60405180910390f35b610c3c6137a9565b604051610c4991906179fc565b60405180910390f35b610c5a6137af565b604051610c6791906179fc565b60405180910390f35b610c8a6004803603810190610c859190617b1b565b6137bb565b604051610c9a9493929190617c92565b60405180910390f35b610cbd6004803603810190610cb89190617de8565b613880565b604051610cca91906175fc565b60405180910390f35b610ced6004803603810190610ce891906187d3565b613b1b565b604051610cfa91906175fc565b60405180910390f35b610d1d6004803603810190610d189190617b1b565b614000565b005b610d396004803603810190610d349190617e28565b61436a565b604051610d4691906175fc565b60405180910390f35b610d576143d5565b604051610d6491906179fc565b60405180910390f35b610d756143e1565b604051610d829190617a61565b60405180910390f35b610da56004803603810190610da09190617b1b565b614473565b604051610db291906175fc565b60405180910390f35b610dd56004803603810190610dd09190617de8565b6148bc565b604051610de291906175fc565b60405180910390f35b610df3614bf1565b604051610e0091906179fc565b60405180910390f35b610e236004803603810190610e1e9190617de8565b614bf7565b604051610e309190617b97565b60405180910390f35b610e41614c45565b604051610e4e9190617c77565b60405180910390f35b610e716004803603810190610e6c9190617b1b565b614c4c565b604051610e829594939291906183d7565b60405180910390f35b610ea56004803603810190610ea09190617adb565b614d17565b604051610eb291906175fc565b60405180910390f35b610ed56004803603810190610ed09190617de8565b614d3a565b604051610ee29190617a61565b60405180910390f35b610ef3614df2565b604051610f0091906179fc565b60405180910390f35b610f236004803603810190610f1e9190617b1b565b614df7565b005b610f3f6004803603810190610f3a9190617b1b565b6150f6565b604051610f5196959493929190617d79565b60405180910390f35b610f746004803603810190610f6f9190617b48565b61524f565b604051610f8b9b9a9998979695949392919061885e565b60405180910390f35b610fae6004803603810190610fa99190617b1b565b6152c3565b604051610fbb9190618978565b60405180910390f35b610fde6004803603810190610fd9919061827e565b615364565b604051610feb91906175fc565b60405180910390f35b610ffc615384565b60405161100991906179fc565b60405180910390f35b61102c60048036038101906110279190617b1b565b61538e565b60405161103d9594939291906183d7565b60405180910390f35b611060600480360381019061105b919061827e565b615469565b005b61107c60048036038101906110779190617b48565b615753565b60405161108991906175fc565b60405180910390f35b6110ac60048036038101906110a79190617e28565b615782565b005b6110b66157a4565b6040516110c391906179fc565b60405180910390f35b6110e660048036038101906110e1919061899a565b6157b0565b6040516110f391906179fc565b60405180910390f35b61111660048036038101906111119190617b1b565b615837565b60405161112593929190618a22565b60405180910390f35b61114860048036038101906111439190618b2a565b61598e565b60405161115591906179fc565b60405180910390f35b611166615c38565b60405161117391906179fc565b60405180910390f35b61119660048036038101906111919190617de8565b615c45565b6040516111a391906175fc565b60405180910390f35b6111b4615f39565b6040516111c191906179fc565b60405180910390f35b6111e460048036038101906111df91906182ab565b615f3f565b6040516111f191906175fc565b60405180910390f35b611214600480360381019061120f9190617de8565b61602d565b60405161122191906175fc565b60405180910390f35b611232616313565b60405161123f91906179fc565b60405180910390f35b611262600480360381019061125d919061827e565b616319565b60405161126f91906175fc565b60405180910390f35b611292600480360381019061128d9190617adb565b61634c565b60405161129f91906175fc565b60405180910390f35b60007f7965db0b000000000000000000000000000000000000000000000000000000007bffffffffffffffffffffffffffffffffffffffffffffffffffffffff1916827bffffffffffffffffffffffffffffffffffffffffffffffffffffffff1916148061131b575061131a8261637b565b5b9050919050565b6060600060268054905067ffffffffffffffff81111561134557611344617e72565b5b60405190808252806020026020018201604052801561137e57816020015b61136b61701c565b8152602001906001900390816113635790505b50905060005b60268054905081101561175057604051806101200160405280602683815481106113b1576113b0618b86565b5b9060005260206000209060080201600001548152602001602683815481106113dc576113db618b86565b5b906000526020600020906008020160010180546113f890618be4565b80601f016020809104026020016040519081016040528092919081815260200182805461142490618be4565b80156114715780601f1061144657610100808354040283529160200191611471565b820191906000526020600020905b81548152906001019060200180831161145457829003601f168201915b505050505081526020016026838154811061148f5761148e618b86565b5b906000526020600020906008020160020180546114ab90618be4565b80601f01602080910402602001604051908101604052809291908181526020018280546114d790618be4565b80156115245780601f106114f957610100808354040283529160200191611524565b820191906000526020600020905b81548152906001019060200180831161150757829003601f168201915b505050505081526020016026838154811061154257611541618b86565b5b906000526020600020906008020160030160009054906101000a900460ff16151581526020016026838154811061157c5761157b618b86565b5b9060005260206000209060080201600401548152602001602683815481106115a7576115a6618b86565b5b906000526020600020906008020160050160009054906101000a900473ffffffffffffffffffffffffffffffffffffffff1673ffffffffffffffffffffffffffffffffffffffff1681526020016026838154811061160857611607618b86565b5b906000526020600020906008020160050160149054906101000a900460ff16151581526020016026838154811061164257611641618b86565b5b90600052602060002090600802016006018054806020026020016040519081016040528092919081815260200182805480156116d357602002820191906000526020600020905b8160009054906101000a900473ffffffffffffffffffffffffffffffffffffffff1673ffffffffffffffffffffffffffffffffffffffff1681526020019060010190808311611689575b50505050508152602001602683815481106116f1576116f0618b86565b5b906000526020600020906008020160070160009054906101000a900460ff166002811115611722576117216177eb565b5b81525082828151811061173857611737618b86565b5b60200260200101819052508080600101915050611384565b508091505090565b60145481565b60606003805461176d90618be4565b80601f016020809104026020016040519081016040528092919081815260200182805461179990618be4565b80156117e65780601f106117bb576101008083540402835291602001916117e6565b820191906000526020600020905b8154815290600101906020018083116117c957829003601f168201915b5050505050905090565b6000806117fb6163e5565b90506118088185856163ed565b600191505092915050565b60246020528060005260406000206000915054906101000a900460ff1681565b602d6020528160005260406000206020528060005260406000206000915091509054906101000a900460ff1681565b6000600254905090565b6006818154811061187c57600080fd5b906000526020600020016000915054906101000a900473ffffffffffffffffffffffffffffffffffffffff1681565b6000806118b66163e5565b90506118c38582856163ff565b6118ce858585616493565b60019150509392505050565b600060056000838152602001908152602001600020600101549050919050565b6064600f6b204fce5e3e250261100000006119159190618c44565b61191f9190618cb5565b81565b606481565b602a818154811061193757600080fd5b906000526020600020906005020160009150905080600001549080600101549080600201805461196690618be4565b80601f016020809104026020016040519081016040528092919081815260200182805461199290618be4565b80156119df5780601f106119b4576101008083540402835291602001916119df565b820191906000526020600020905b8154815290600101906020018083116119c257829003601f168201915b5050505050908060040160009054906101000a900460ff16905084565b6019602052806000526040600020600091509050806000015490806001018054611a2590618be4565b80601f0160208091040260200160405190810160405280929190818152602001828054611a5190618be4565b8015611a9e5780601f10611a7357610100808354040283529160200191611a9e565b820191906000526020600020905b815481529060010190602001808311611a8157829003601f168201915b505050505090806002018054611ab390618be4565b80601f0160208091040260200160405190810160405280929190818152602001828054611adf90618be4565b8015611b2c5780601f10611b0157610100808354040283529160200191611b2c565b820191906000526020600020905b815481529060010190602001808311611b0f57829003601f168201915b5050505050908060030160009054906101000a900460ff16908060040154908060050160009054906101000a900473ffffffffffffffffffffffffffffffffffffffff16908060050160149054906101000a900460ff16908060070160009054906101000a900460ff16905088565b60155481565b60288181548110611bb157600080fd5b9060005260206000209060240201600091509050806000015490806001015490806002018054611be090618be4565b80601f0160208091040260200160405190810160405280929190818152602001828054611c0c90618be4565b8015611c595780601f10611c2e57610100808354040283529160200191611c59565b820191906000526020600020905b815481529060010190602001808311611c3c57829003601f168201915b505050505090806003018054611c6e90618be4565b80601f0160208091040260200160405190810160405280929190818152602001828054611c9a90618be4565b8015611ce75780601f10611cbc57610100808354040283529160200191611ce7565b820191906000526020600020905b815481529060010190602001808311611cca57829003601f168201915b5050505050908060220154908060230160009054906101000a900460ff16905086565b6000602d600083815260200190815260200160002060003373ffffffffffffffffffffffffffffffffffffffff1673ffffffffffffffffffffffffffffffffffffffff16815260200190815260200160002060009054906101000a900460ff1615611daa576040517f08c379a0000000000000000000000000000000000000000000000000000000008152600401611da190618d58565b60405180910390fd5b6000601f60008481526020019081526020016000206001015403611e03576040517f08c379a0000000000000000000000000000000000000000000000000000000008152600401611dfa90618dc4565b60405180910390fd5b6001602d600084815260200190815260200160002060003373ffffffffffffffffffffffffffffffffffffffff1673ffffffffffffffffffffffffffffffffffffffff16815260200190815260200160002060006101000a81548160ff02191690831515021790555081837f2479aa0d18311382446edb0fa11d0dbd5bab1be78b1e60b343ffe4d2a5f798ad33604051611e9d9190617b97565b60405180910390a36001905092915050565b611eb8826118da565b611ec181616587565b611ecb838361659b565b50505050565b60007fadb22091b155738d2e889eb96f509d2a7c93234236b30400927feb4a6a15ab00611efd81616587565b6000601f60008881526020019081526020016000206001015403611f56576040517f08c379a0000000000000000000000000000000000000000000000000000000008152600401611f4d90618e30565b60405180910390fd5b84601f60008881526020019081526020016000206002019081611f799190618ffc565b5083601f60008881526020019081526020016000206003019081611f9d9190618ffc565b506000835111156120ca57600a83511115611fed576040517f08c379a0000000000000000000000000000000000000000000000000000000008152600401611fe490619140565b60405180910390fd5b60005b83518110156120ac5783818151811061200c5761200b618b86565b5b6020026020010151601f600089815260200190815260200160002060040182600a811061203c5761203b618b86565b5b6003020160008201518160000160006101000a81548160ff0219169083600281111561206b5761206a6177eb565b5b021790555060208201518160010190816120859190618ffc565b50604082015181600201908161209b9190618ffc565b509050508080600101915050611ff0565b508251601f6000888152602001908152602001600020602201819055505b857f2a39a7cf20a19c3cd9811b72b89fab269dce3aa109f6d2a0631cd3e1f0457e5d866040516120fa9190617a61565b60405180910390a26001915050949350505050565b60006012905090565b602260205280600052604060002060009150905080600001549080600101549080600201805461214790618be4565b80601f016020809104026020016040519081016040528092919081815260200182805461217390618be4565b80156121c05780601f10612195576101008083540402835291602001916121c0565b820191906000526020600020905b8154815290600101906020018083116121a357829003601f168201915b5050505050905083565b6b204fce5e3e2502611000000081565b602f6020528160005260406000206020528060005260406000206000915091509054906101000a900460ff1681565b601b6020528060005260406000206000915090508060000154905081565b7fadb22091b155738d2e889eb96f509d2a7c93234236b30400927feb4a6a15ab0061225181616587565b60006021600085815260200190815260200160002060010154036122aa576040517f08c379a00000000000000000000000000000000000000000000000000000000081526004016122a1906191ac565b60405180910390fd5b82602160008581526020019081526020016000206001015414612302576040517f08c379a00000000000000000000000000000000000000000000000000000000081526004016122f990619218565b60405180910390fd5b816021600085815260200190815260200160002060020190816123259190618ffc565b5082847fad5fab99ac4d99e1061fd121b36537d5213be564a3dc6cc383897dc355e89ff5846040516123579190617a61565b60405180910390a350505050565b61236d6163e5565b73ffffffffffffffffffffffffffffffffffffffff168173ffffffffffffffffffffffffffffffffffffffff16146123d1576040517f6697b23200000000000000000000000000000000000000000000000000000000815260040160405180910390fd5b6123db828261668d565b505050565b7fadb22091b155738d2e889eb96f509d2a7c93234236b30400927feb4a6a15ab0081565b7fc10c77be35aff266144ed64c26a1fa104bae2f284ae99ac4a34203454704a18581565b60096020528060005260406000206000915090508060000154908060010160009054906101000a900473ffffffffffffffffffffffffffffffffffffffff16908060020160009054906101000a900473ffffffffffffffffffffffffffffffffffffffff169080600301805461249d90618be4565b80601f01602080910402602001604051908101604052809291908181526020018280546124c990618be4565b80156125165780601f106124eb57610100808354040283529160200191612516565b820191906000526020600020905b8154815290600101906020018083116124f957829003601f168201915b5050505050908060040154908060050160009054906101000a900460ff16905086565b601e602052816000526040600020818154811061255557600080fd5b90600052602060002090600502016000915091505080600001549080600101549080600201805461258590618be4565b80601f01602080910402602001604051908101604052809291908181526020018280546125b190618be4565b80156125fe5780601f106125d3576101008083540402835291602001916125fe565b820191906000526020600020905b8154815290600101906020018083116125e157829003601f168201915b5050505050908060030154908060040160009054906101000a900460ff16905085565b602c6020528160005260406000206020528060005260406000206000915091509054906101000a900460ff1681565b600061265a617094565b6025600088815260200190815260200160002060003373ffffffffffffffffffffffffffffffffffffffff1673ffffffffffffffffffffffffffffffffffffffff16815260200190815260200160002060009054906101000a900460ff166126f7576040517f08c379a00000000000000000000000000000000000000000000000000000000081526004016126ee906192aa565b60405180910390fd5b602c600088815260200190815260200160002060003373ffffffffffffffffffffffffffffffffffffffff1673ffffffffffffffffffffffffffffffffffffffff16815260200190815260200160002060009054906101000a900460ff1615612795576040517f08c379a000000000000000000000000000000000000000000000000000000000815260040161278c9061933c565b60405180910390fd5b6001602c600089815260200190815260200160002060003373ffffffffffffffffffffffffffffffffffffffff1673ffffffffffffffffffffffffffffffffffffffff16815260200190815260200160002060006101000a81548160ff02191690831515021790555061281033671bc16d674ec80000616780565b50600087878787874260405160200161282e969594939291906193b9565b6040516020818303038152906040528051906020012060001c905060006040518060e001604052808381526020018a81526020018981526020018781526020018681526020018881526020013373ffffffffffffffffffffffffffffffffffffffff1681525090508060306000848152602001908152602001600020600082015181600001556020820151816001015560408201518160020190816128d39190618ffc565b5060608201518160030190816128e99190618ffc565b506080820151816004015560a08201518160050190816129099190618ffc565b5060c08201518160060160006101000a81548173ffffffffffffffffffffffffffffffffffffffff021916908373ffffffffffffffffffffffffffffffffffffffff1602179055509050507f95ad50d6596337460bdce4b8db70313463e0615be9266b573e781327aef44e098288888b604051612989949392919061941d565b60405180910390a181819350935050509550959350505050565b602b81815481106129b357600080fd5b90600052602060002090600402016000915090508060000154908060010154908060020180546129e290618be4565b80601f0160208091040260200160405190810160405280929190818152602001828054612a0e90618be4565b8015612a5b5780601f10612a3057610100808354040283529160200191612a5b565b820191906000526020600020905b815481529060010190602001808311612a3e57829003601f168201915b5050505050905083565b7fdf1425bae297c2f52b4f15d18a50b1fc8cb5b981a981b1d213ed3ff92681b64d81565b7fc10c77be35aff266144ed64c26a1fa104bae2f284ae99ac4a34203454704a185612ab381616587565b612abd8c3361686d565b612afc576040517f08c379a0000000000000000000000000000000000000000000000000000000008152600401612af3906194e9565b60405180910390fd5b601a60008d815260200190815260200160002060003373ffffffffffffffffffffffffffffffffffffffff1673ffffffffffffffffffffffffffffffffffffffff168152602001908152602001600020600a0160009054906101000a900460ff1615612b9d576040517f08c379a0000000000000000000000000000000000000000000000000000000008152600401612b949061957b565b60405180910390fd5b612baf8b8b8b8b8b8b8b8b8b8b616938565b6040518061016001604052808c81526020018b81526020018a815260200189815260200188815260200187815260200186815260200185815260200184815260200183815260200160011515815250601a60008e815260200190815260200160002060003373ffffffffffffffffffffffffffffffffffffffff1673ffffffffffffffffffffffffffffffffffffffff168152602001908152602001600020600082015181600001556020820151816001015560408201518160020155606082015181600301556080820151816004015560a0820151816005015560c0820151816006015560e082015181600701556101008201518160080155610120820151816009015561014082015181600a0160006101000a81548160ff0219169083151502179055509050506050612d32601a60008f815260200190815260200160002060003373ffffffffffffffffffffffffffffffffffffffff1673ffffffffffffffffffffffffffffffffffffffff1681526020019081526020016000206169fd565b10612d4157612d408c613446565b5b505050505050505050505050565b600281565b602e602052816000526040600020602052806000526040600020600091509150505481565b60007fadb22091b155738d2e889eb96f509d2a7c93234236b30400927feb4a6a15ab00612da581616587565b6000601960008681526020019081526020016000206000015403612dfe576040517f08c379a0000000000000000000000000000000000000000000000000000000008152600401612df5906195e7565b60405180910390fd5b82601960008681526020019081526020016000206001019081612e219190618ffc565b50837f5c8c98b6b26236296c856fae8a5ca0c793bbb81c5f8b7c9a9ab99358f53fb0c084604051612e529190617a61565b60405180910390a2600191505092915050565b60125481565b6030602052806000526040600020600091509050806000015490806001015490806002018054612e9a90618be4565b80601f0160208091040260200160405190810160405280929190818152602001828054612ec690618be4565b8015612f135780601f10612ee857610100808354040283529160200191612f13565b820191906000526020600020905b815481529060010190602001808311612ef657829003601f168201915b505050505090806003018054612f2890618be4565b80601f0160208091040260200160405190810160405280929190818152602001828054612f5490618be4565b8015612fa15780601f10612f7657610100808354040283529160200191612fa1565b820191906000526020600020905b815481529060010190602001808311612f8457829003601f168201915b505050505090806004015490806005018054612fbc90618be4565b80601f0160208091040260200160405190810160405280929190818152602001828054612fe890618be4565b80156130355780601f1061300a57610100808354040283529160200191613035565b820191906000526020600020905b81548152906001019060200180831161301857829003601f168201915b5050505050908060060160009054906101000a900473ffffffffffffffffffffffffffffffffffffffff16905087565b60185481565b6026818154811061307b57600080fd5b90600052602060002090600802016000915090508060000154908060010180546130a490618be4565b80601f01602080910402602001604051908101604052809291908181526020018280546130d090618be4565b801561311d5780601f106130f25761010080835404028352916020019161311d565b820191906000526020600020905b81548152906001019060200180831161310057829003601f168201915b50505050509080600201805461313290618be4565b80601f016020809104026020016040519081016040528092919081815260200182805461315e90618be4565b80156131ab5780601f10613180576101008083540402835291602001916131ab565b820191906000526020600020905b81548152906001019060200180831161318e57829003601f168201915b5050505050908060030160009054906101000a900460ff16908060040154908060050160009054906101000a900473ffffffffffffffffffffffffffffffffffffffff16908060050160149054906101000a900460ff16908060070160009054906101000a900460ff16905088565b60008060008373ffffffffffffffffffffffffffffffffffffffff1673ffffffffffffffffffffffffffffffffffffffff168152602001908152602001600020549050919050565b7fc10c77be35aff266144ed64c26a1fa104bae2f284ae99ac4a34203454704a18561328c81616587565b600860008373ffffffffffffffffffffffffffffffffffffffff1673ffffffffffffffffffffffffffffffffffffffff16815260200190815260200160002060009054906101000a900460ff1615613319576040517f08c379a000000000000000000000000000000000000000000000000000000000815260040161331090619653565b60405180910390fd5b6133437fc10c77be35aff266144ed64c26a1fa104bae2f284ae99ac4a34203454704a1858361659b565b506006829080600181540180825580915050600190039060005260206000200160009091909190916101000a81548173ffffffffffffffffffffffffffffffffffffffff021916908373ffffffffffffffffffffffffffffffffffffffff1602179055506001600860008473ffffffffffffffffffffffffffffffffffffffff1673ffffffffffffffffffffffffffffffffffffffff16815260200190815260200160002060006101000a81548160ff0219169083151502179055508173ffffffffffffffffffffffffffffffffffffffff167fe1cb5e1230cc02e62c60b81c1aa5ade512f3eac296edb28628b4cf344f47f93160405160405180910390a25050565b7fc10c77be35aff266144ed64c26a1fa104bae2f284ae99ac4a34203454704a18561347081616587565b60006019600084815260200190815260200160002090508060030160009054906101000a900460ff16156134d9576040517f08c379a00000000000000000000000000000000000000000000000000000000081526004016134d0906196bf565b60405180910390fd5b601c60003373ffffffffffffffffffffffffffffffffffffffff1673ffffffffffffffffffffffffffffffffffffffff168152602001908152602001600020600084815260200190815260200160002060009054906101000a900460ff1615613577576040517f08c379a000000000000000000000000000000000000000000000000000000000815260040161356e90619751565b60405180910390fd5b6001601c60003373ffffffffffffffffffffffffffffffffffffffff1673ffffffffffffffffffffffffffffffffffffffff168152602001908152602001600020600085815260200190815260200160002060006101000a81548160ff0219169083151502179055508060040160008154809291906135f590619771565b9190505550600281600401541061371a5760018160030160006101000a81548160ff02191690831515021790555060005b6026805490508110156136dd57836026828154811061364857613647618b86565b5b906000526020600020906008020160000154036136d05760016026828154811061367557613674618b86565b5b906000526020600020906008020160030160006101000a81548160ff0219169083151502179055508160040154602682815481106136b6576136b5618b86565b5b9060005260206000209060080201600401819055506136dd565b8080600101915050613626565b506137148160050160009054906101000a900473ffffffffffffffffffffffffffffffffffffffff16674563918244f40000616780565b50613798565b60005b60268054905081101561379657836026828154811061373f5761373e618b86565b5b906000526020600020906008020160000154036137895781600401546026828154811061376f5761376e618b86565b5b906000526020600020906008020160040181905550613796565b808060010191505061371d565b505b505050565b671bc16d674ec8000081565b60135481565b671bc16d674ec8000081565b60216020528060005260406000206000915090508060000154908060010154908060020180546137ea90618be4565b80601f016020809104026020016040519081016040528092919081815260200182805461381690618be4565b80156138635780601f1061383857610100808354040283529160200191613863565b820191906000526020600020905b81548152906001019060200180831161384657829003601f168201915b5050505050908060040160009054906101000a900460ff16905084565b60007fadb22091b155738d2e889eb96f509d2a7c93234236b30400927feb4a6a15ab006138ac81616587565b6000602160008681526020019081526020016000206001015403613905576040517f08c379a00000000000000000000000000000000000000000000000000000000081526004016138fc90619805565b60405180910390fd5b600060226000858152602001908152602001600020600101540361395e576040517f08c379a000000000000000000000000000000000000000000000000000000000815260040161395590619871565b60405180910390fd5b60005b602b80549050811015613a9b5783602b828154811061398357613982618b86565b5b90600052602060002090600402016001015403613a8e57602b6001602b805490506139ae9190619891565b815481106139bf576139be618b86565b5b9060005260206000209060040201602b82815481106139e1576139e0618b86565b5b9060005260206000209060040201600082015481600001556001820154816001015560028201816002019081613a1791906198db565b506003820181600301908054613a2e9291906170e7565b50905050602b805480613a4457613a436199c3565b5b60019003818190600052602060002090600402016000808201600090556001820160009055600282016000613a799190617181565b600382016000613a8991906171c1565b505090555b8080600101915050613961565b50602260008481526020019081526020016000206000808201600090556001820160009055600282016000613ad09190617181565b600382016000613ae091906171c1565b505082847ff084fa19916f58d56801346cc04ca2d2c28a5531dc7db17ebd2323685518b12660405160405180910390a3600191505092915050565b600060196000601354815260200190815260200160002060050160149054906101000a900460ff1615613b83576040517f08c379a0000000000000000000000000000000000000000000000000000000008152600401613b7a90619a3e565b60405180910390fd5b60006040518061012001604052806013548152602001868152602001858152602001600015158152602001600081526020013373ffffffffffffffffffffffffffffffffffffffff168152602001600115158152602001600067ffffffffffffffff811115613bf557613bf4617e72565b5b604051908082528060200260200182016040528015613c235781602001602082028036833780820191505090505b508152602001846002811115613c3c57613c3b6177eb565b5b815250905080601960006013548152602001908152602001600020600082015181600001556020820151816001019081613c769190618ffc565b506040820151816002019081613c8c9190618ffc565b5060608201518160030160006101000a81548160ff0219169083151502179055506080820151816004015560a08201518160050160006101000a81548173ffffffffffffffffffffffffffffffffffffffff021916908373ffffffffffffffffffffffffffffffffffffffff16021790555060c08201518160050160146101000a81548160ff02191690831515021790555060e0820151816006019080519060200190613d3a9291906171e5565b506101008201518160070160006101000a81548160ff02191690836002811115613d6757613d666177eb565b5b02179055509050506026819080600181540180825580915050600190039060005260206000209060080201600090919091909150600082015181600001556020820151816001019081613dba9190618ffc565b506040820151816002019081613dd09190618ffc565b5060608201518160030160006101000a81548160ff0219169083151502179055506080820151816004015560a08201518160050160006101000a81548173ffffffffffffffffffffffffffffffffffffffff021916908373ffffffffffffffffffffffffffffffffffffffff16021790555060c08201518160050160146101000a81548160ff02191690831515021790555060e0820151816006019080519060200190613e7e9291906171e5565b506101008201518160070160006101000a81548160ff02191690836002811115613eab57613eaa6177eb565b5b0217905550505060126000815480929190613ec590619771565b91905055506001601b60003373ffffffffffffffffffffffffffffffffffffffff1673ffffffffffffffffffffffffffffffffffffffff1681526020019081526020016000206000016000828254613f1d9190619a5e565b9250508190555060136000815480929190613f3790619771565b9190505550613f667fadb22091b155738d2e889eb96f509d2a7c93234236b30400927feb4a6a15ab003361659b565b5084604051613f759190619a92565b60405180910390206001601354613f8c9190619891565b7f9c93a42b217373d37e6c66ace0a67fe1fa1f78c93164b62417de69c48c0f67e2601960006001601354613fc09190619891565b815260200190815260200160002060030160009054906101000a900460ff16604051613fec91906175fc565b60405180910390a360019150509392505050565b7fadb22091b155738d2e889eb96f509d2a7c93234236b30400927feb4a6a15ab0061402a81616587565b6024600083815260200190815260200160002060009054906101000a900460ff161561408b576040517f08c379a000000000000000000000000000000000000000000000000000000000815260040161408290619af5565b60405180910390fd5b600360068054905010156140d4576040517f08c379a00000000000000000000000000000000000000000000000000000000081526004016140cb90619b61565b60405180910390fd5b6023600083815260200190815260200160002060006140f3919061726f565b60005b60038110156142d05760006006805490504244600680549050856040516020016141239493929190619b81565b6040516020818303038152906040528051906020012060001c6141469190619bcf565b905060006006828154811061415e5761415d618b86565b5b9060005260206000200160009054906101000a900473ffffffffffffffffffffffffffffffffffffffff1690506000805b6023600088815260200190815260200160002080549050811015614245578273ffffffffffffffffffffffffffffffffffffffff166023600089815260200190815260200160002082815481106141e9576141e8618b86565b5b9060005260206000200160009054906101000a900473ffffffffffffffffffffffffffffffffffffffff1673ffffffffffffffffffffffffffffffffffffffff16036142385760019150614245565b808060010191505061418f565b50806142c05760236000878152602001908152602001600020829080600181540180825580915050600190039060005260206000200160009091909190916101000a81548173ffffffffffffffffffffffffffffffffffffffff021916908373ffffffffffffffffffffffffffffffffffffffff1602179055505b50505080806001019150506140f6565b50600360236000848152602001908152602001600020805490500361431c5760016024600084815260200190815260200160002060006101000a81548160ff0219169083151502179055505b817fe205dff861c570b8df17e26f893778853f94bb25d2de318755e48eab0b403ff76023600085815260200190815260200160002060405161435e9190619cec565b60405180910390a25050565b60006005600084815260200190815260200160002060000160008373ffffffffffffffffffffffffffffffffffffffff1673ffffffffffffffffffffffffffffffffffffffff16815260200190815260200160002060009054906101000a900460ff16905092915050565b670de0b6b3a764000081565b6060600480546143f090618be4565b80601f016020809104026020016040519081016040528092919081815260200182805461441c90618be4565b80156144695780601f1061443e57610100808354040283529160200191614469565b820191906000526020600020905b81548152906001019060200180831161444c57829003601f168201915b5050505050905090565b60007fadb22091b155738d2e889eb96f509d2a7c93234236b30400927feb4a6a15ab0061449f81616587565b60006019600085815260200190815260200160002060000154036144f8576040517f08c379a00000000000000000000000000000000000000000000000000000000081526004016144ef90619d5a565b60405180910390fd5b60005b60268054905081116147c057836026828154811061451c5761451b618b86565b5b906000526020600020906008020160000154036147ad57602660016026805490506145479190619891565b8154811061455857614557618b86565b5b90600052602060002090600802016026828154811061457a57614579618b86565b5b906000526020600020906008020160008201548160000155600182018160010190816145a691906198db565b50600282018160020190816145bb91906198db565b506003820160009054906101000a900460ff168160030160006101000a81548160ff021916908315150217905550600482015481600401556005820160009054906101000a900473ffffffffffffffffffffffffffffffffffffffff168160050160006101000a81548173ffffffffffffffffffffffffffffffffffffffff021916908373ffffffffffffffffffffffffffffffffffffffff1602179055506005820160149054906101000a900460ff168160050160146101000a81548160ff021916908315150217905550600682018160060190805461469d929190617290565b506007820160009054906101000a900460ff168160070160006101000a81548160ff021916908360028111156146d6576146d56177eb565b5b021790555090505060268054806146f0576146ef6199c3565b5b600190038181906000526020600020906008020160008082016000905560018201600061471d9190617181565b60028201600061472d9190617181565b6003820160006101000a81549060ff021916905560048201600090556005820160006101000a81549073ffffffffffffffffffffffffffffffffffffffff02191690556005820160146101000a81549060ff0219169055600682016000614794919061726f565b6007820160006101000a81549060ff0219169055505090555b80806147b890619771565b9150506144fb565b50601960008481526020019081526020016000206000808201600090556001820160006147ed9190617181565b6002820160006147fd9190617181565b6003820160006101000a81549060ff021916905560048201600090556005820160006101000a81549073ffffffffffffffffffffffffffffffffffffffff02191690556005820160146101000a81549060ff0219169055600682016000614864919061726f565b6007820160006101000a81549060ff02191690555050827f50d94198096be9c8aad282f822173f9212251c4d4dc2731fa944f3941749a78d336040516148aa9190617b97565b60405180910390a26001915050919050565b60007fadb22091b155738d2e889eb96f509d2a7c93234236b30400927feb4a6a15ab006148e881616587565b6000601d60008681526020019081526020016000206001015403614941576040517f08c379a000000000000000000000000000000000000000000000000000000000815260040161493890619dc6565b60405180910390fd5b6000601f6000858152602001908152602001600020600101540361499a576040517f08c379a000000000000000000000000000000000000000000000000000000000815260040161499190618dc4565b60405180910390fd5b60005b6027805490508111614b455783601f60008381526020019081526020016000206001015403614b3257602860016028805490506149da9190619891565b815481106149eb576149ea618b86565b5b906000526020600020906024020160288281548110614a0d57614a0c618b86565b5b9060005260206000209060240201600082015481600001556001820154816001015560028201816002019081614a4391906198db565b5060038201816003019081614a5891906198db565b50600482018160040190600a614a6f9291906172e2565b50602282015481602201556023820160009054906101000a900460ff168160230160006101000a81548160ff0219169083151502179055509050506028805480614abc57614abb6199c3565b5b60019003818190600052602060002090602402016000808201600090556001820160009055600282016000614af19190617181565b600382016000614b019190617181565b600482016000614b11919061738c565b60228201600090556023820160006101000a81549060ff0219169055505090555b8080614b3d90619771565b91505061499d565b50601f60008481526020019081526020016000206000808201600090556001820160009055600282016000614b7a9190617181565b600382016000614b8a9190617181565b600482016000614b9a919061738c565b60228201600090556023820160006101000a81549060ff0219169055505082847f1cdc2ff39034471047dd6d36512a12b5c2e9a30137b2e45daecd05383221d97b60405160405180910390a3600191505092915050565b60115481565b60236020528160005260406000208181548110614c1357600080fd5b906000526020600020016000915091509054906101000a900473ffffffffffffffffffffffffffffffffffffffff1681565b6000801b81565b601d602052806000526040600020600091509050806000015490806001015490806002018054614c7b90618be4565b80601f0160208091040260200160405190810160405280929190818152602001828054614ca790618be4565b8015614cf45780601f10614cc957610100808354040283529160200191614cf4565b820191906000526020600020905b815481529060010190602001808311614cd757829003601f168201915b5050505050908060030154908060040160009054906101000a900460ff16905085565b600080614d226163e5565b9050614d2f818585616493565b600191505092915050565b602080528160005260406000208181548110614d5557600080fd5b90600052602060002001600091509150508054614d7190618be4565b80601f0160208091040260200160405190810160405280929190818152602001828054614d9d90618be4565b8015614dea5780601f10614dbf57610100808354040283529160200191614dea565b820191906000526020600020905b815481529060010190602001808311614dcd57829003601f168201915b505050505081565b605081565b7fdf1425bae297c2f52b4f15d18a50b1fc8cb5b981a981b1d213ed3ff92681b64d614e2181616587565b60006009600084815260200190815260200160002090508060050160009054906101000a900460ff1615614e8a576040517f08c379a0000000000000000000000000000000000000000000000000000000008152600401614e8190619e32565b60405180910390fd5b8060060160003373ffffffffffffffffffffffffffffffffffffffff1673ffffffffffffffffffffffffffffffffffffffff16815260200190815260200160002060009054906101000a900460ff1615614f19576040517f08c379a0000000000000000000000000000000000000000000000000000000008152600401614f1090619e9e565b60405180910390fd5b60018160060160003373ffffffffffffffffffffffffffffffffffffffff1673ffffffffffffffffffffffffffffffffffffffff16815260200190815260200160002060006101000a81548160ff021916908315150217905550806004016000815480929190614f8890619771565b9190505550827f5d4ccf5f92566d140246f4ae3b9cb35dc06fff109a7748602ad77f6260fd9a6133604051614fbd9190617b97565b60405180910390a260038160040154106150f15760008160020160009054906101000a900473ffffffffffffffffffffffffffffffffffffffff1673ffffffffffffffffffffffffffffffffffffffff168260030160405161501f9190619f61565b6000604051808303816000865af19150503d806000811461505c576040519150601f19603f3d011682016040523d82523d6000602084013e615061565b606091505b50509050806150a5576040517f08c379a000000000000000000000000000000000000000000000000000000000815260040161509c90619fc4565b60405180910390fd5b60018260050160006101000a81548160ff021916908315150217905550837f7770356c29230b95943aec59d47ead11eb426a728bf5b57f7fd8597f3c0e29ba60405160405180910390a2505b505050565b601f60205280600052604060002060009150905080600001549080600101549080600201805461512590618be4565b80601f016020809104026020016040519081016040528092919081815260200182805461515190618be4565b801561519e5780601f106151735761010080835404028352916020019161519e565b820191906000526020600020905b81548152906001019060200180831161518157829003601f168201915b5050505050908060030180546151b390618be4565b80601f01602080910402602001604051908101604052809291908181526020018280546151df90618be4565b801561522c5780601f106152015761010080835404028352916020019161522c565b820191906000526020600020905b81548152906001019060200180831161520f57829003601f168201915b5050505050908060220154908060230160009054906101000a900460ff16905086565b601a6020528160005260406000206020528060005260406000206000915091505080600001549080600101549080600201549080600301549080600401549080600501549080600601549080600701549080600801549080600901549080600a0160009054906101000a900460ff1690508b565b60606023600083815260200190815260200160002080548060200260200160405190810160405280929190818152602001828054801561535857602002820191906000526020600020905b8160009054906101000a900473ffffffffffffffffffffffffffffffffffffffff1673ffffffffffffffffffffffffffffffffffffffff168152602001906001019080831161530e575b50505050509050919050565b60086020528060005260406000206000915054906101000a900460ff1681565b6000601154905090565b6027818154811061539e57600080fd5b90600052602060002090600502016000915090508060000154908060010154908060020180546153cd90618be4565b80601f01602080910402602001604051908101604052809291908181526020018280546153f990618be4565b80156154465780601f1061541b57610100808354040283529160200191615446565b820191906000526020600020905b81548152906001019060200180831161542957829003601f168201915b5050505050908060030154908060040160009054906101000a900460ff16905085565b6000801b61547681616587565b600860008373ffffffffffffffffffffffffffffffffffffffff1673ffffffffffffffffffffffffffffffffffffffff16815260200190815260200160002060009054906101000a900460ff16615502576040517f08c379a00000000000000000000000000000000000000000000000000000000081526004016154f99061a030565b60405180910390fd5b60005b600680549050811015615688578273ffffffffffffffffffffffffffffffffffffffff166006828154811061553d5761553c618b86565b5b9060005260206000200160009054906101000a900473ffffffffffffffffffffffffffffffffffffffff1673ffffffffffffffffffffffffffffffffffffffff160361567b57600660016006805490506155979190619891565b815481106155a8576155a7618b86565b5b9060005260206000200160009054906101000a900473ffffffffffffffffffffffffffffffffffffffff16600682815481106155e7576155e6618b86565b5b9060005260206000200160006101000a81548173ffffffffffffffffffffffffffffffffffffffff021916908373ffffffffffffffffffffffffffffffffffffffff1602179055506006805480615641576156406199c3565b5b6001900381819060005260206000200160006101000a81549073ffffffffffffffffffffffffffffffffffffffff02191690559055615688565b8080600101915050615505565b506000600860008473ffffffffffffffffffffffffffffffffffffffff1673ffffffffffffffffffffffffffffffffffffffff16815260200190815260200160002060006101000a81548160ff02191690831515021790555061570b7fc10c77be35aff266144ed64c26a1fa104bae2f284ae99ac4a34203454704a1858361668d565b508173ffffffffffffffffffffffffffffffffffffffff167f55dba9d79522b91b615629d5f3b10c2fad2d258f1768614f4a52e937ada0d0ba60405160405180910390a25050565b60256020528160005260406000206020528060005260406000206000915091509054906101000a900460ff1681565b61578b826118da565b61579481616587565b61579e838361668d565b50505050565b674563918244f4000081565b6000600160008473ffffffffffffffffffffffffffffffffffffffff1673ffffffffffffffffffffffffffffffffffffffff16815260200190815260200160002060008373ffffffffffffffffffffffffffffffffffffffff1673ffffffffffffffffffffffffffffffffffffffff16815260200190815260200160002054905092915050565b6029818154811061584757600080fd5b90600052602060002090600302016000915090508060000160009054906101000a900460ff169080600101805461587d90618be4565b80601f01602080910402602001604051908101604052809291908181526020018280546158a990618be4565b80156158f65780601f106158cb576101008083540402835291602001916158f6565b820191906000526020600020905b8154815290600101906020018083116158d957829003601f168201915b50505050509080600201805461590b90618be4565b80601f016020809104026020016040519081016040528092919081815260200182805461593790618be4565b80156159845780601f1061595957610100808354040283529160200191615984565b820191906000526020600020905b81548152906001019060200180831161596757829003601f168201915b5050505050905083565b6000806021600085815260200190815260200160002090506000816003018054905090506000818551146159f7576040517f08c379a00000000000000000000000000000000000000000000000000000000081526004016159ee9061a0c2565b60405180910390fd5b60005b82811015615aea576000846003018281548110615a1a57615a19618b86565b5b906000526020600020906004020190506000878381518110615a3f57615a3e618b86565b5b6020026020010151905081600301805490508110615a92576040517f08c379a0000000000000000000000000000000000000000000000000000000008152600401615a899061a12e565b60405180910390fd5b816003018181548110615aa857615aa7618b86565b5b906000526020600020906002020160010160009054906101000a900460ff1615615adb578380615ad790619771565b9450505b505080806001019150506159fa565b5081606482615af99190618c44565b615b039190618cb5565b9350604b8410615bdf576001602f600088815260200190815260200160002060003373ffffffffffffffffffffffffffffffffffffffff1673ffffffffffffffffffffffffffffffffffffffff16815260200190815260200160002060006101000a81548160ff02191690831515021790555083602e60003373ffffffffffffffffffffffffffffffffffffffff1673ffffffffffffffffffffffffffffffffffffffff168152602001908152602001600020600088815260200190815260200160002081905550615bdd33670de0b6b3a7640000616780565b505b3373ffffffffffffffffffffffffffffffffffffffff167fcce9b9ed7e05afc64f73f1ce3f6ff1011a740b718ae6277a14698a4ef2d62dbf8786604051615c2792919061a14e565b60405180910390a250505092915050565b6000600b60000154905090565b60007fadb22091b155738d2e889eb96f509d2a7c93234236b30400927feb4a6a15ab00615c7181616587565b7fadb22091b155738d2e889eb96f509d2a7c93234236b30400927feb4a6a15ab00615c9b81616587565b6000601960008781526020019081526020016000206000015403615cf4576040517f08c379a0000000000000000000000000000000000000000000000000000000008152600401615ceb9061a1c3565b60405180910390fd5b6000601d60008681526020019081526020016000206001015403615d4d576040517f08c379a0000000000000000000000000000000000000000000000000000000008152600401615d4490619dc6565b60405180910390fd5b60005b6027805490508111615eac5784601d60008381526020019081526020016000206001015403615e995760276001602780549050615d8d9190619891565b81548110615d9e57615d9d618b86565b5b906000526020600020906005020160278281548110615dc057615dbf618b86565b5b9060005260206000209060050201600082015481600001556001820154816001015560028201816002019081615df691906198db565b50600382015481600301556004820160009054906101000a900460ff168160040160006101000a81548160ff0219169083151502179055509050506027805480615e4357615e426199c3565b5b60019003818190600052602060002090600502016000808201600090556001820160009055600282016000615e789190617181565b60038201600090556004820160006101000a81549060ff0219169055505090555b8080615ea490619771565b915050615d50565b50601d60008581526020019081526020016000206000808201600090556001820160009055600282016000615ee19190617181565b60038201600090556004820160006101000a81549060ff0219169055505083857fab6d08543726a41eac26ac96d0b4591127baed3bfb915d2603ccb9fb2440c42560405160405180910390a360019250505092915050565b60165481565b60007fadb22091b155738d2e889eb96f509d2a7c93234236b30400927feb4a6a15ab00615f6b81616587565b6000601d60008681526020019081526020016000206001015403615fc4576040517f08c379a0000000000000000000000000000000000000000000000000000000008152600401615fbb9061a22f565b60405180910390fd5b82601d60008681526020019081526020016000206002019081615fe79190618ffc565b5083857f7714a2fe2221824dfd5cd15f7cc29e38ffefcf9b6ad62c216321afcde79cbcfb856040516160199190617a61565b60405180910390a360019150509392505050565b60007fadb22091b155738d2e889eb96f509d2a7c93234236b30400927feb4a6a15ab0061605981616587565b6000601f600086815260200190815260200160002060010154036160b2576040517f08c379a00000000000000000000000000000000000000000000000000000000081526004016160a990618dc4565b60405180910390fd5b600060216000858152602001908152602001600020600101540361610b576040517f08c379a00000000000000000000000000000000000000000000000000000000081526004016161029061a29b565b60405180910390fd5b60005b602780549050811161627f578360216000868152602001908152602001600020600101540361626c57602a6001602a8054905061614b9190619891565b8154811061615c5761615b618b86565b5b9060005260206000209060050201602a828154811061617e5761617d618b86565b5b90600052602060002090600502016000820154816000015560018201548160010155600282018160020190816161b491906198db565b5060038201816003019080546161cb9291906173a2565b506004820160009054906101000a900460ff168160040160006101000a81548160ff021916908315150217905550905050602a80548061620e5761620d6199c3565b5b600190038181906000526020600020906005020160008082016000905560018201600090556002820160006162439190617181565b600382016000616253919061743a565b6004820160006101000a81549060ff0219169055505090555b808061627790619771565b91505061610e565b506021600084815260200190815260200160002060008082016000905560018201600090556002820160006162b49190617181565b6003820160006162c4919061743a565b6004820160006101000a81549060ff0219169055505082847f22a69f3183c2804ef4ff588b6321a6351c1863419286c584919ab8f923cbd5a460405160405180910390a3600191505092915050565b60175481565b60006163457fc10c77be35aff266144ed64c26a1fa104bae2f284ae99ac4a34203454704a1858361436a565b9050919050565b601c6020528160005260406000206020528060005260406000206000915091509054906101000a900460ff1681565b60007f01ffc9a7000000000000000000000000000000000000000000000000000000007bffffffffffffffffffffffffffffffffffffffffffffffffffffffff1916827bffffffffffffffffffffffffffffffffffffffffffffffffffffffff1916149050919050565b600033905090565b6163fa8383836001616a92565b505050565b600061640b84846157b0565b90507fffffffffffffffffffffffffffffffffffffffffffffffffffffffffffffffff811461648d578181101561647d578281836040517ffb8f41b20000000000000000000000000000000000000000000000000000000081526004016164749392919061a2bb565b60405180910390fd5b61648c84848484036000616a92565b5b50505050565b600073ffffffffffffffffffffffffffffffffffffffff168373ffffffffffffffffffffffffffffffffffffffff16036165055760006040517f96c6fd1e0000000000000000000000000000000000000000000000000000000081526004016164fc9190617b97565b60405180910390fd5b600073ffffffffffffffffffffffffffffffffffffffff168273ffffffffffffffffffffffffffffffffffffffff16036165775760006040517fec442f0500000000000000000000000000000000000000000000000000000000815260040161656e9190617b97565b60405180910390fd5b616582838383616c69565b505050565b616598816165936163e5565b616e8e565b50565b60006165a7838361436a565b6166825760016005600085815260200190815260200160002060000160008473ffffffffffffffffffffffffffffffffffffffff1673ffffffffffffffffffffffffffffffffffffffff16815260200190815260200160002060006101000a81548160ff02191690831515021790555061661f6163e5565b73ffffffffffffffffffffffffffffffffffffffff168273ffffffffffffffffffffffffffffffffffffffff16847f2f8788117e7eff1d82e926ec794901d17c78024a50270940304540a733656f0d60405160405180910390a460019050616687565b600090505b92915050565b6000616699838361436a565b156167755760006005600085815260200190815260200160002060000160008473ffffffffffffffffffffffffffffffffffffffff1673ffffffffffffffffffffffffffffffffffffffff16815260200190815260200160002060006101000a81548160ff0219169083151502179055506167126163e5565b73ffffffffffffffffffffffffffffffffffffffff168273ffffffffffffffffffffffffffffffffffffffff16847ff6391f5c32d9c69d2a47ea670b442974b53935d1edc7fd64eb21e047a839171b60405160405180910390a46001905061677a565b600090505b92915050565b60006064600f6b204fce5e3e2502611000000061679d9190618c44565b6167a79190618cb5565b6167af615384565b836167ba9190619a5e565b11156167fb576040517f08c379a00000000000000000000000000000000000000000000000000000000081526004016167f29061a33e565b60405180910390fd5b6168058383616edf565b5081601160008282546168189190619a5e565b92505081905550818373ffffffffffffffffffffffffffffffffffffffff167fad6ef58d5c294f81258965738e7ae511124139834a8d0b8f8f7327086c82052a60405160405180910390a36001905092915050565b600080600090505b602360008581526020019081526020016000208054905081101561692c578273ffffffffffffffffffffffffffffffffffffffff166023600086815260200190815260200160002082815481106168cf576168ce618b86565b5b9060005260206000200160009054906101000a900473ffffffffffffffffffffffffffffffffffffffff1673ffffffffffffffffffffffffffffffffffffffff160361691f576001915050616932565b8080600101915050616875565b50600090505b92915050565b600a8a1115801561694a5750600a8911155b80156169575750600a8811155b80156169645750600a8711155b80156169715750600a8611155b801561697e5750600a8511155b801561698b5750600a8411155b80156169985750600a8311155b80156169a55750600a8211155b80156169b25750600a8111155b6169f1576040517f08c379a00000000000000000000000000000000000000000000000000000000081526004016169e89061a3aa565b60405180910390fd5b50505050505050505050565b60008160090154826008015483600701548460060154856005015486600401548760030154886002015489600101548a60000154616a3b9190619a5e565b616a459190619a5e565b616a4f9190619a5e565b616a599190619a5e565b616a639190619a5e565b616a6d9190619a5e565b616a779190619a5e565b616a819190619a5e565b616a8b9190619a5e565b9050919050565b600073ffffffffffffffffffffffffffffffffffffffff168473ffffffffffffffffffffffffffffffffffffffff1603616b045760006040517fe602df05000000000000000000000000000000000000000000000000000000008152600401616afb9190617b97565b60405180910390fd5b600073ffffffffffffffffffffffffffffffffffffffff168373ffffffffffffffffffffffffffffffffffffffff1603616b765760006040517f94280d62000000000000000000000000000000000000000000000000000000008152600401616b6d9190617b97565b60405180910390fd5b81600160008673ffffffffffffffffffffffffffffffffffffffff1673ffffffffffffffffffffffffffffffffffffffff16815260200190815260200160002060008573ffffffffffffffffffffffffffffffffffffffff1673ffffffffffffffffffffffffffffffffffffffff168152602001908152602001600020819055508015616c63578273ffffffffffffffffffffffffffffffffffffffff168473ffffffffffffffffffffffffffffffffffffffff167f8c5be1e5ebec7d5bd14f71427d1e84f3dd0314c0f7b2291e5b200ac8c7c3b92584604051616c5a91906179fc565b60405180910390a35b50505050565b600073ffffffffffffffffffffffffffffffffffffffff168373ffffffffffffffffffffffffffffffffffffffff1603616cbb578060026000828254616caf9190619a5e565b92505081905550616d8e565b60008060008573ffffffffffffffffffffffffffffffffffffffff1673ffffffffffffffffffffffffffffffffffffffff16815260200190815260200160002054905081811015616d47578381836040517fe450d38c000000000000000000000000000000000000000000000000000000008152600401616d3e9392919061a2bb565b60405180910390fd5b8181036000808673ffffffffffffffffffffffffffffffffffffffff1673ffffffffffffffffffffffffffffffffffffffff16815260200190815260200160002081905550505b600073ffffffffffffffffffffffffffffffffffffffff168273ffffffffffffffffffffffffffffffffffffffff1603616dd75780600260008282540392505081905550616e24565b806000808473ffffffffffffffffffffffffffffffffffffffff1673ffffffffffffffffffffffffffffffffffffffff168152602001908152602001600020600082825401925050819055505b8173ffffffffffffffffffffffffffffffffffffffff168373ffffffffffffffffffffffffffffffffffffffff167fddf252ad1be2c89b69c2b068fc378daa952ba7f163c4a11628f55a4df523b3ef83604051616e8191906179fc565b60405180910390a3505050565b616e98828261436a565b616edb5780826040517fe2517d3f000000000000000000000000000000000000000000000000000000008152600401616ed292919061a3ca565b60405180910390fd5b5050565b60006b204fce5e3e25026110000000616ef6611862565b83616f019190619a5e565b1115616f42576040517f08c379a0000000000000000000000000000000000000000000000000000000008152600401616f399061a33e565b60405180910390fd5b616f4c8383616f9a565b818373ffffffffffffffffffffffffffffffffffffffff167fcda531bfd68624f13205c0a23cd4d5a7f09792cbb399603114f2b04aaa1bf5cf60405160405180910390a36001905092915050565b600073ffffffffffffffffffffffffffffffffffffffff168273ffffffffffffffffffffffffffffffffffffffff160361700c5760006040517fec442f050000000000000000000000000000000000000000000000000000000081526004016170039190617b97565b60405180910390fd5b61701860008383616c69565b5050565b60405180610120016040528060008152602001606081526020016060815260200160001515815260200160008152602001600073ffffffffffffffffffffffffffffffffffffffff168152602001600015158152602001606081526020016000600281111561708e5761708d6177eb565b5b81525090565b6040518060e00160405280600081526020016000815260200160608152602001606081526020016000815260200160608152602001600073ffffffffffffffffffffffffffffffffffffffff1681525090565b8280548282559060005260206000209060020281019282156171705760005260206000209160020282015b8281111561716f5782826000820181600001908161713091906198db565b506001820160009054906101000a900460ff168160010160006101000a81548160ff021916908315150217905550505091600201919060020190617112565b5b50905061717d919061745e565b5090565b50805461718d90618be4565b6000825580601f1061719f57506171be565b601f0160209004906000526020600020908101906171bd9190617499565b5b50565b50805460008255600202906000526020600020908101906171e2919061745e565b50565b82805482825590600052602060002090810192821561725e579160200282015b8281111561725d5782518260006101000a81548173ffffffffffffffffffffffffffffffffffffffff021916908373ffffffffffffffffffffffffffffffffffffffff16021790555091602001919060010190617205565b5b50905061726b9190617499565b5090565b508054600082559060005260206000209081019061728d9190617499565b50565b8280548282559060005260206000209081019282156172d15760005260206000209182015b828111156172d05782548255916001019190600101906172b5565b5b5090506172de9190617499565b5090565b82600a600302810192821561737b579160030282015b8281111561737a5782826000820160009054906101000a900460ff168160000160006101000a81548160ff0219169083600281111561733a576173396177eb565b5b02179055506001820181600101908161735391906198db565b506002820181600201908161736891906198db565b505050916003019190600301906172f8565b5b50905061738891906174b6565b5090565b5080600a600302019061739f91906174b6565b50565b8280548282559060005260206000209060040281019282156174295760005260206000209160040282015b828111156174285782826000820154816000015560018201548160010155600282018160020190816173ff91906198db565b5060038201816003019080546174169291906170e7565b505050916004019190600401906173cd565b5b5090506174369190617501565b5090565b508054600082556004029060005260206000209081019061745b9190617501565b50565b5b8082111561749557600080820160006174789190617181565b6001820160006101000a81549060ff02191690555060020161745f565b5090565b5b808211156174b257600081600090555060010161749a565b5090565b5b808211156174fd57600080820160006101000a81549060ff02191690556001820160006174e49190617181565b6002820160006174f49190617181565b506003016174b7565b5090565b5b8082111561754457600080820160009055600182016000905560028201600061752b9190617181565b60038201600061753b91906171c1565b50600401617502565b5090565b6000604051905090565b600080fd5b600080fd5b60007fffffffff0000000000000000000000000000000000000000000000000000000082169050919050565b6175918161755c565b811461759c57600080fd5b50565b6000813590506175ae81617588565b92915050565b6000602082840312156175ca576175c9617552565b5b60006175d88482850161759f565b91505092915050565b60008115159050919050565b6175f6816175e1565b82525050565b600060208201905061761160008301846175ed565b92915050565b600081519050919050565b600082825260208201905092915050565b6000819050602082019050919050565b6000819050919050565b61765681617643565b82525050565b600081519050919050565b600082825260208201905092915050565b60005b8381101561769657808201518184015260208101905061767b565b60008484015250505050565b6000601f19601f8301169050919050565b60006176be8261765c565b6176c88185617667565b93506176d8818560208601617678565b6176e1816176a2565b840191505092915050565b6176f5816175e1565b82525050565b600073ffffffffffffffffffffffffffffffffffffffff82169050919050565b6000617726826176fb565b9050919050565b6177368161771b565b82525050565b600081519050919050565b600082825260208201905092915050565b6000819050602082019050919050565b6000617774838361772d565b60208301905092915050565b6000602082019050919050565b60006177988261773c565b6177a28185617747565b93506177ad83617758565b8060005b838110156177de5781516177c58882617768565b97506177d083617780565b9250506001810190506177b1565b5085935050505092915050565b7f4e487b7100000000000000000000000000000000000000000000000000000000600052602160045260246000fd5b6003811061782b5761782a6177eb565b5b50565b600081905061783c8261781a565b919050565b600061784c8261782e565b9050919050565b61785c81617841565b82525050565b60006101208301600083015161787b600086018261764d565b506020830151848203602086015261789382826176b3565b915050604083015184820360408601526178ad82826176b3565b91505060608301516178c260608601826176ec565b5060808301516178d5608086018261764d565b5060a08301516178e860a086018261772d565b5060c08301516178fb60c08601826176ec565b5060e083015184820360e0860152617913828261778d565b91505061010083015161792a610100860182617853565b508091505092915050565b60006179418383617862565b905092915050565b6000602082019050919050565b600061796182617617565b61796b8185617622565b93508360208202850161797d85617633565b8060005b858110156179b9578484038952815161799a8582617935565b94506179a583617949565b925060208a01995050600181019050617981565b50829750879550505050505092915050565b600060208201905081810360008301526179e58184617956565b905092915050565b6179f681617643565b82525050565b6000602082019050617a1160008301846179ed565b92915050565b600082825260208201905092915050565b6000617a338261765c565b617a3d8185617a17565b9350617a4d818560208601617678565b617a56816176a2565b840191505092915050565b60006020820190508181036000830152617a7b8184617a28565b905092915050565b617a8c8161771b565b8114617a9757600080fd5b50565b600081359050617aa981617a83565b92915050565b617ab881617643565b8114617ac357600080fd5b50565b600081359050617ad581617aaf565b92915050565b60008060408385031215617af257617af1617552565b5b6000617b0085828601617a9a565b9250506020617b1185828601617ac6565b9150509250929050565b600060208284031215617b3157617b30617552565b5b6000617b3f84828501617ac6565b91505092915050565b60008060408385031215617b5f57617b5e617552565b5b6000617b6d85828601617ac6565b9250506020617b7e85828601617a9a565b9150509250929050565b617b918161771b565b82525050565b6000602082019050617bac6000830184617b88565b92915050565b600080600060608486031215617bcb57617bca617552565b5b6000617bd986828701617a9a565b9350506020617bea86828701617a9a565b9250506040617bfb86828701617ac6565b9150509250925092565b6000819050919050565b617c1881617c05565b8114617c2357600080fd5b50565b600081359050617c3581617c0f565b92915050565b600060208284031215617c5157617c50617552565b5b6000617c5f84828501617c26565b91505092915050565b617c7181617c05565b82525050565b6000602082019050617c8c6000830184617c68565b92915050565b6000608082019050617ca760008301876179ed565b617cb460208301866179ed565b8181036040830152617cc68185617a28565b9050617cd560608301846175ed565b95945050505050565b617ce781617841565b82525050565b600061010082019050617d03600083018b6179ed565b8181036020830152617d15818a617a28565b90508181036040830152617d298189617a28565b9050617d3860608301886175ed565b617d4560808301876179ed565b617d5260a0830186617b88565b617d5f60c08301856175ed565b617d6c60e0830184617cde565b9998505050505050505050565b600060c082019050617d8e60008301896179ed565b617d9b60208301886179ed565b8181036040830152617dad8187617a28565b90508181036060830152617dc18186617a28565b9050617dd060808301856179ed565b617ddd60a08301846175ed565b979650505050505050565b60008060408385031215617dff57617dfe617552565b5b6000617e0d85828601617ac6565b9250506020617e1e85828601617ac6565b9150509250929050565b60008060408385031215617e3f57617e3e617552565b5b6000617e4d85828601617c26565b9250506020617e5e85828601617a9a565b9150509250929050565b600080fd5b600080fd5b7f4e487b7100000000000000000000000000000000000000000000000000000000600052604160045260246000fd5b617eaa826176a2565b810181811067ffffffffffffffff82111715617ec957617ec8617e72565b5b80604052505050565b6000617edc617548565b9050617ee88282617ea1565b919050565b600067ffffffffffffffff821115617f0857617f07617e72565b5b617f11826176a2565b9050602081019050919050565b82818337600083830152505050565b6000617f40617f3b84617eed565b617ed2565b905082815260208101848484011115617f5c57617f5b617e6d565b5b617f67848285617f1e565b509392505050565b600082601f830112617f8457617f83617e68565b5b8135617f94848260208601617f2d565b91505092915050565b600067ffffffffffffffff821115617fb857617fb7617e72565b5b602082029050602081019050919050565b600080fd5b600080fd5b600080fd5b60038110617fe557600080fd5b50565b600081359050617ff781617fd8565b92915050565b60006060828403121561801357618012617fce565b5b61801d6060617ed2565b9050600061802d84828501617fe8565b600083015250602082013567ffffffffffffffff81111561805157618050617fd3565b5b61805d84828501617f6f565b602083015250604082013567ffffffffffffffff81111561808157618080617fd3565b5b61808d84828501617f6f565b60408301525092915050565b60006180ac6180a784617f9d565b617ed2565b905080838252602082019050602084028301858111156180cf576180ce617fc9565b5b835b8181101561811657803567ffffffffffffffff8111156180f4576180f3617e68565b5b8086016181018982617ffd565b855260208501945050506020810190506180d1565b5050509392505050565b600082601f83011261813557618134617e68565b5b8135618145848260208601618099565b91505092915050565b6000806000806080858703121561816857618167617552565b5b600061817687828801617ac6565b945050602085013567ffffffffffffffff81111561819757618196617557565b5b6181a387828801617f6f565b935050604085013567ffffffffffffffff8111156181c4576181c3617557565b5b6181d087828801617f6f565b925050606085013567ffffffffffffffff8111156181f1576181f0617557565b5b6181fd87828801618120565b91505092959194509250565b600060ff82169050919050565b61821f81618209565b82525050565b600060208201905061823a6000830184618216565b92915050565b600060608201905061825560008301866179ed565b61826260208301856179ed565b81810360408301526182748184617a28565b9050949350505050565b60006020828403121561829457618293617552565b5b60006182a284828501617a9a565b91505092915050565b6000806000606084860312156182c4576182c3617552565b5b60006182d286828701617ac6565b93505060206182e386828701617ac6565b925050604084013567ffffffffffffffff81111561830457618303617557565b5b61831086828701617f6f565b9150509250925092565b600081519050919050565b600082825260208201905092915050565b60006183418261831a565b61834b8185618325565b935061835b818560208601617678565b618364816176a2565b840191505092915050565b600060c08201905061838460008301896179ed565b6183916020830188617b88565b61839e6040830187617b88565b81810360608301526183b08186618336565b90506183bf60808301856179ed565b6183cc60a08301846175ed565b979650505050505050565b600060a0820190506183ec60008301886179ed565b6183f960208301876179ed565b818103604083015261840b8186617a28565b905061841a60608301856179ed565b61842760808301846175ed565b9695505050505050565b600080600080600060a0868803121561844d5761844c617552565b5b600061845b88828901617ac6565b955050602086013567ffffffffffffffff81111561847c5761847b617557565b5b61848888828901617f6f565b945050604086013567ffffffffffffffff8111156184a9576184a8617557565b5b6184b588828901617f6f565b935050606086013567ffffffffffffffff8111156184d6576184d5617557565b5b6184e288828901617f6f565b92505060806184f388828901617ac6565b9150509295509295909350565b600060e083016000830151618518600086018261764d565b50602083015161852b602086018261764d565b506040830151848203604086015261854382826176b3565b9150506060830151848203606086015261855d82826176b3565b9150506080830151618572608086018261764d565b5060a083015184820360a086015261858a82826176b3565b91505060c083015161859f60c086018261772d565b508091505092915050565b60006040820190506185bf60008301856179ed565b81810360208301526185d18184618500565b90509392505050565b60008060008060008060008060008060006101608c8e031215618600576185ff617552565b5b600061860e8e828f01617ac6565b9b5050602061861f8e828f01617ac6565b9a505060406186308e828f01617ac6565b99505060606186418e828f01617ac6565b98505060806186528e828f01617ac6565b97505060a06186638e828f01617ac6565b96505060c06186748e828f01617ac6565b95505060e06186858e828f01617ac6565b9450506101006186978e828f01617ac6565b9350506101206186a98e828f01617ac6565b9250506101406186bb8e828f01617ac6565b9150509295989b509295989b9093969950565b600080604083850312156186e5576186e4617552565b5b60006186f385828601617ac6565b925050602083013567ffffffffffffffff81111561871457618713617557565b5b61872085828601617f6f565b9150509250929050565b600060e08201905061873f600083018a6179ed565b61874c60208301896179ed565b818103604083015261875e8188617a28565b905081810360608301526187728187617a28565b905061878160808301866179ed565b81810360a08301526187938185617a28565b90506187a260c0830184617b88565b98975050505050505050565b600381106187bb57600080fd5b50565b6000813590506187cd816187ae565b92915050565b6000806000606084860312156187ec576187eb617552565b5b600084013567ffffffffffffffff81111561880a57618809617557565b5b61881686828701617f6f565b935050602084013567ffffffffffffffff81111561883757618836617557565b5b61884386828701617f6f565b9250506040618854868287016187be565b9150509250925092565b600061016082019050618874600083018e6179ed565b618881602083018d6179ed565b61888e604083018c6179ed565b61889b606083018b6179ed565b6188a8608083018a6179ed565b6188b560a08301896179ed565b6188c260c08301886179ed565b6188cf60e08301876179ed565b6188dd6101008301866179ed565b6188eb6101208301856179ed565b6188f96101408301846175ed565b9c9b505050505050505050505050565b600082825260208201905092915050565b60006189258261773c565b61892f8185618909565b935061893a83617758565b8060005b8381101561896b5781516189528882617768565b975061895d83617780565b92505060018101905061893e565b5085935050505092915050565b60006020820190508181036000830152618992818461891a565b905092915050565b600080604083850312156189b1576189b0617552565b5b60006189bf85828601617a9a565b92505060206189d085828601617a9a565b9150509250929050565b600381106189eb576189ea6177eb565b5b50565b60008190506189fc826189da565b919050565b6000618a0c826189ee565b9050919050565b618a1c81618a01565b82525050565b6000606082019050618a376000830186618a13565b8181036020830152618a498185617a28565b90508181036040830152618a5d8184617a28565b9050949350505050565b600067ffffffffffffffff821115618a8257618a81617e72565b5b602082029050602081019050919050565b6000618aa6618aa184618a67565b617ed2565b90508083825260208201905060208402830185811115618ac957618ac8617fc9565b5b835b81811015618af25780618ade8882617ac6565b845260208401935050602081019050618acb565b5050509392505050565b600082601f830112618b1157618b10617e68565b5b8135618b21848260208601618a93565b91505092915050565b60008060408385031215618b4157618b40617552565b5b6000618b4f85828601617ac6565b925050602083013567ffffffffffffffff811115618b7057618b6f617557565b5b618b7c85828601618afc565b9150509250929050565b7f4e487b7100000000000000000000000000000000000000000000000000000000600052603260045260246000fd5b7f4e487b7100000000000000000000000000000000000000000000000000000000600052602260045260246000fd5b60006002820490506001821680618bfc57607f821691505b602082108103618c0f57618c0e618bb5565b5b50919050565b7f4e487b7100000000000000000000000000000000000000000000000000000000600052601160045260246000fd5b6000618c4f82617643565b9150618c5a83617643565b9250828202618c6881617643565b91508282048414831517618c7f57618c7e618c15565b5b5092915050565b7f4e487b7100000000000000000000000000000000000000000000000000000000600052601260045260246000fd5b6000618cc082617643565b9150618ccb83617643565b925082618cdb57618cda618c86565b5b828204905092915050565b7f596f75206861766520616c7265616479206d61726b65642074686973206c657360008201527f736f6e2061732072656164000000000000000000000000000000000000000000602082015250565b6000618d42602b83617a17565b9150618d4d82618ce6565b604082019050919050565b60006020820190508181036000830152618d7181618d35565b9050919050565b7f4c6573736f6e20646f65736e2774206578697374000000000000000000000000600082015250565b6000618dae601483617a17565b9150618db982618d78565b602082019050919050565b60006020820190508181036000830152618ddd81618da1565b9050919050565b7f4c6573736f6e20646f6573206e6f742065786973740000000000000000000000600082015250565b6000618e1a601583617a17565b9150618e2582618de4565b602082019050919050565b60006020820190508181036000830152618e4981618e0d565b9050919050565b60008190508160005260206000209050919050565b60006020601f8301049050919050565b600082821b905092915050565b600060088302618eb27fffffffffffffffffffffffffffffffffffffffffffffffffffffffffffffffff82618e75565b618ebc8683618e75565b95508019841693508086168417925050509392505050565b6000819050919050565b6000618ef9618ef4618eef84617643565b618ed4565b617643565b9050919050565b6000819050919050565b618f1383618ede565b618f27618f1f82618f00565b848454618e82565b825550505050565b600090565b618f3c618f2f565b618f47818484618f0a565b505050565b5b81811015618f6b57618f60600082618f34565b600181019050618f4d565b5050565b601f821115618fb057618f8181618e50565b618f8a84618e65565b81016020851015618f99578190505b618fad618fa585618e65565b830182618f4c565b50505b505050565b600082821c905092915050565b6000618fd360001984600802618fb5565b1980831691505092915050565b6000618fec8383618fc2565b9150826002028217905092915050565b6190058261765c565b67ffffffffffffffff81111561901e5761901d617e72565b5b6190288254618be4565b619033828285618f6f565b600060209050601f8311600181146190665760008415619054578287015190505b61905e8582618fe0565b8655506190c6565b601f19841661907486618e50565b60005b8281101561909c57848901518255600182019150602085019450602081019050619077565b868310156190b957848901516190b5601f891682618fc2565b8355505b6001600288020188555050505b505050505050565b7f5265736f7572636520636f756e742065786365656473206d6178696d756d206160008201527f6c6c6f7765640000000000000000000000000000000000000000000000000000602082015250565b600061912a602683617a17565b9150619135826190ce565b604082019050919050565b600060208201905081810360008301526191598161911d565b9050919050565b7f5155697a20646f6573206e6f7420657869737400000000000000000000000000600082015250565b6000619196601383617a17565b91506191a182619160565b602082019050919050565b600060208201905081810360008301526191c581619189565b9050919050565b7f4e6f74206578616374207175697a000000000000000000000000000000000000600082015250565b6000619202600e83617a17565b915061920d826191cc565b602082019050919050565b60006020820190508181036000830152619231816191f5565b9050919050565b7f596f75206d75737420626520656e726f6c6c656420696e2074686520636f757260008201527f736520746f20636f6d706c657465206974000000000000000000000000000000602082015250565b6000619294603183617a17565b915061929f82619238565b604082019050919050565b600060208201905081810360008301526192c381619287565b9050919050565b7f596f75206861766520616c726561647920636f6d706c6574656420746869732060008201527f636f757273650000000000000000000000000000000000000000000000000000602082015250565b6000619326602683617a17565b9150619331826192ca565b604082019050919050565b6000602082019050818103600083015261935581619319565b9050919050565b6000819050919050565b61937761937282617643565b61935c565b82525050565b600081905092915050565b60006193938261765c565b61939d818561937d565b93506193ad818560208601617678565b80840191505092915050565b60006193c58289619366565b6020820191506193d58288619388565b91506193e18287619388565b91506193ed8286619388565b91506193f98285619366565b6020820191506194098284619366565b602082019150819050979650505050505050565b600060808201905061943260008301876179ed565b81810360208301526194448186617a28565b905081810360408301526194588185617a28565b9050818103606083015261946c8184617a28565b905095945050505050565b7f4e6f742073656c6563746564206173206120726576696577657220666f72207460008201527f68697320636f7572736500000000000000000000000000000000000000000000602082015250565b60006194d3602a83617a17565b91506194de82619477565b604082019050919050565b60006020820190508181036000830152619502816194c6565b9050919050565b7f52657669657720616c7265616479207375626d6974746564206279207468697360008201527f2072657669657765722e00000000000000000000000000000000000000000000602082015250565b6000619565602a83617a17565b915061957082619509565b604082019050919050565b6000602082019050818103600083015261959481619558565b9050919050565b7f436f7572736520646f6573206e6f742065786973740000000000000000000000600082015250565b60006195d1601583617a17565b91506195dc8261959b565b602082019050919050565b60006020820190508181036000830152619600816195c4565b9050919050565b7f416c726561647920696e20726576696577657220706f6f6c0000000000000000600082015250565b600061963d601883617a17565b915061964882619607565b602082019050919050565b6000602082019050818103600083015261966c81619630565b9050919050565b7f436f7572736520616c726561647920617070726f766564000000000000000000600082015250565b60006196a9601783617a17565b91506196b482619673565b602082019050919050565b600060208201905081810360008301526196d88161969c565b9050919050565b7f596f75206861766520616c726561647920617070726f7665642074686973206360008201527f6f75727365000000000000000000000000000000000000000000000000000000602082015250565b600061973b602583617a17565b9150619746826196df565b604082019050919050565b6000602082019050818103600083015261976a8161972e565b9050919050565b600061977c82617643565b91507fffffffffffffffffffffffffffffffffffffffffffffffffffffffffffffffff82036197ae576197ad618c15565b5b600182019050919050565b7f5175697a20646f6573206e6f7420657869737400000000000000000000000000600082015250565b60006197ef601383617a17565b91506197fa826197b9565b602082019050919050565b6000602082019050818103600083015261981e816197e2565b9050919050565b7f5175657374696f6e206e6f7420666f756e6420696e2074686973207175697a00600082015250565b600061985b601f83617a17565b915061986682619825565b602082019050919050565b6000602082019050818103600083015261988a8161984e565b9050919050565b600061989c82617643565b91506198a783617643565b92508282039050818111156198bf576198be618c15565b5b92915050565b6000815490506198d481618be4565b9050919050565b8181036198e95750506199c1565b6198f2826198c5565b67ffffffffffffffff81111561990b5761990a617e72565b5b6199158254618be4565b619920828285618f6f565b6000601f83116001811461994f576000841561993d578287015490505b6199478582618fe0565b8655506199ba565b601f19841661995d87618e50565b965061996886618e50565b60005b828110156199905784890154825560018201915060018501945060208101905061996b565b868310156199ad57848901546199a9601f891682618fc2565b8355505b6001600288020188555050505b5050505050505b565b7f4e487b7100000000000000000000000000000000000000000000000000000000600052603160045260246000fd5b7f436f7572736520616c7265616479206578697374730000000000000000000000600082015250565b6000619a28601583617a17565b9150619a33826199f2565b602082019050919050565b60006020820190508181036000830152619a5781619a1b565b9050919050565b6000619a6982617643565b9150619a7483617643565b9250828201905080821115619a8c57619a8b618c15565b5b92915050565b6000619a9e8284619388565b915081905092915050565b7f52657669657765727320616c72656164792073656c6563746564000000000000600082015250565b6000619adf601a83617a17565b9150619aea82619aa9565b602082019050919050565b60006020820190508181036000830152619b0e81619ad2565b9050919050565b7f4e6f7420656e6f7567682072657669657765727320696e2074686520706f6f6c600082015250565b6000619b4b602083617a17565b9150619b5682619b15565b602082019050919050565b60006020820190508181036000830152619b7a81619b3e565b9050919050565b6000619b8d8287619366565b602082019150619b9d8286619366565b602082019150619bad8285619366565b602082019150619bbd8284619366565b60208201915081905095945050505050565b6000619bda82617643565b9150619be583617643565b925082619bf557619bf4618c86565b5b828206905092915050565b600081549050919050565b60008190508160005260206000209050919050565b60008160001c9050919050565b600073ffffffffffffffffffffffffffffffffffffffff82169050919050565b6000619c60619c5b83619c20565b619c2d565b9050919050565b6000619c738254619c4d565b9050919050565b6000600182019050919050565b6000619c9282619c00565b619c9c8185618909565b9350619ca783619c0b565b8060005b83811015619cdf57619cbc82619c67565b619cc68882617768565b9750619cd183619c7a565b925050600181019050619cab565b5085935050505092915050565b60006020820190508181036000830152619d068184619c87565b905092915050565b7f436f7572736520646f65736e2774206578697374210000000000000000000000600082015250565b6000619d44601583617a17565b9150619d4f82619d0e565b602082019050919050565b60006020820190508181036000830152619d7381619d37565b9050919050565b7f4368617074657220646f65736e27742065786973740000000000000000000000600082015250565b6000619db0601583617a17565b9150619dbb82619d7a565b602082019050919050565b60006020820190508181036000830152619ddf81619da3565b9050919050565b7f50726f706f73616c20616c726561647920657865637574656400000000000000600082015250565b6000619e1c601983617a17565b9150619e2782619de6565b602082019050919050565b60006020820190508181036000830152619e4b81619e0f565b9050919050565b7f416c726561647920617070726f76656400000000000000000000000000000000600082015250565b6000619e88601083617a17565b9150619e9382619e52565b602082019050919050565b60006020820190508181036000830152619eb781619e7b565b9050919050565b600081905092915050565b60008190508160005260206000209050919050565b60008154619eeb81618be4565b619ef58186619ebe565b94506001821660008114619f105760018114619f2557619f58565b60ff1983168652811515820286019350619f58565b619f2e85619ec9565b60005b83811015619f5057815481890152600182019150602081019050619f31565b838801955050505b50505092915050565b6000619f6d8284619ede565b915081905092915050565b7f50726f706f73616c20657865637574696f6e206661696c656400000000000000600082015250565b6000619fae601983617a17565b9150619fb982619f78565b602082019050919050565b60006020820190508181036000830152619fdd81619fa1565b9050919050565b7f4e6f7420696e20726576696577657220706f6f6c000000000000000000000000600082015250565b600061a01a601483617a17565b915061a02582619fe4565b602082019050919050565b6000602082019050818103600083015261a0498161a00d565b9050919050565b7f4e756d626572206f6620616e7377657273206d757374206d617463682074686560008201527f206e756d626572206f66207175657374696f6e73000000000000000000000000602082015250565b600061a0ac603483617a17565b915061a0b78261a050565b604082019050919050565b6000602082019050818103600083015261a0db8161a09f565b9050919050565b7f496e76616c69642063686f6963652073656c6563746564000000000000000000600082015250565b600061a118601783617a17565b915061a1238261a0e2565b602082019050919050565b6000602082019050818103600083015261a1478161a10b565b9050919050565b600060408201905061a16360008301856179ed565b61a17060208301846179ed565b9392505050565b7f436f7572736520646f65736e2774206578697374000000000000000000000000600082015250565b600061a1ad601483617a17565b915061a1b88261a177565b602082019050919050565b6000602082019050818103600083015261a1dc8161a1a0565b9050919050565b7f4368617074657220646f65736e2774206e6f7420657869737400000000000000600082015250565b600061a219601983617a17565b915061a2248261a1e3565b602082019050919050565b6000602082019050818103600083015261a2488161a20c565b9050919050565b7f5175697a20646f65736e27742065786973740000000000000000000000000000600082015250565b600061a285601283617a17565b915061a2908261a24f565b602082019050919050565b6000602082019050818103600083015261a2b48161a278565b9050919050565b600060608201905061a2d06000830186617b88565b61a2dd60208301856179ed565b61a2ea60408301846179ed565b949350505050565b7f4c696d6974204578636565646564210000000000000000000000000000000000600082015250565b600061a328600f83617a17565b915061a3338261a2f2565b602082019050919050565b6000602082019050818103600083015261a3578161a31b565b9050919050565b7f53636f726573206d757374206265206265747765656e203120616e642031302e600082015250565b600061a394602083617a17565b915061a39f8261a35e565b602082019050919050565b6000602082019050818103600083015261a3c38161a387565b9050919050565b600060408201905061a3df6000830185617b88565b61a3ec6020830184617c68565b939250505056fea2646970667358221220fcb774a8e150c889d1301d85e7cf8fbfd7d33155723873f76ab76d7a9b30e80b64736f6c634300081b0033",
  "linkReferences": {},
  "deployedLinkReferences": {}
}