{
  "_format": "hh-sol-artifact-1",
  "contractName": "Ecosystem3",
  "sourceName": "contracts/Ecosystem Contracts/Ecosystem3.sol",
  "abi": [
    {
      "inputs": [
        {
          "internalType": "address[]",
          "name": "_reviewers",
          "type": "address[]"
        }
      ],
      "stateMutability": "nonpayable",
      "type": "constructor"
    },
    {
      "inputs": [],
      "name": "AccessControlBadConfirmation",
      "type": "error"
    },
    {
      "inputs": [
        {
          "internalType": "address",
          "name": "account",
          "type": "address"
        },
        {
          "internalType": "bytes32",
          "name": "neededRole",
          "type": "bytes32"
        }
      ],
      "name": "AccessControlUnauthorizedAccount",
      "type": "error"
    },
    {
      "inputs": [
        {
          "internalType": "address",
          "name": "spender",
          "type": "address"
        },
        {
          "internalType": "uint256",
          "name": "allowance",
          "type": "uint256"
        },
        {
          "internalType": "uint256",
          "name": "needed",
          "type": "uint256"
        }
      ],
      "name": "ERC20InsufficientAllowance",
      "type": "error"
    },
    {
      "inputs": [
        {
          "internalType": "address",
          "name": "sender",
          "type": "address"
        },
        {
          "internalType": "uint256",
          "name": "balance",
          "type": "uint256"
        },
        {
          "internalType": "uint256",
          "name": "needed",
          "type": "uint256"
        }
      ],
      "name": "ERC20InsufficientBalance",
      "type": "error"
    },
    {
      "inputs": [
        {
          "internalType": "address",
          "name": "approver",
          "type": "address"
        }
      ],
      "name": "ERC20InvalidApprover",
      "type": "error"
    },
    {
      "inputs": [
        {
          "internalType": "address",
          "name": "receiver",
          "type": "address"
        }
      ],
      "name": "ERC20InvalidReceiver",
      "type": "error"
    },
    {
      "inputs": [
        {
          "internalType": "address",
          "name": "sender",
          "type": "address"
        }
      ],
      "name": "ERC20InvalidSender",
      "type": "error"
    },
    {
      "inputs": [
        {
          "internalType": "address",
          "name": "spender",
          "type": "address"
        }
      ],
      "name": "ERC20InvalidSpender",
      "type": "error"
    },
    {
      "inputs": [],
      "name": "ReentrancyGuardReentrantCall",
      "type": "error"
    },
    {
      "anonymous": false,
      "inputs": [
        {
          "indexed": true,
          "internalType": "address",
          "name": "owner",
          "type": "address"
        },
        {
          "indexed": true,
          "internalType": "address",
          "name": "spender",
          "type": "address"
        },
        {
          "indexed": false,
          "internalType": "uint256",
          "name": "value",
          "type": "uint256"
        }
      ],
      "name": "Approval",
      "type": "event"
    },
    {
      "anonymous": false,
      "inputs": [
        {
          "indexed": true,
          "internalType": "address",
          "name": "_account",
          "type": "address"
        },
        {
          "indexed": false,
          "internalType": "uint256",
          "name": "_amount",
          "type": "uint256"
        }
      ],
      "name": "BurnSuccess",
      "type": "event"
    },
    {
      "anonymous": false,
      "inputs": [
        {
          "indexed": false,
          "internalType": "uint256",
          "name": "certificateId",
          "type": "uint256"
        },
        {
          "indexed": false,
          "internalType": "string",
          "name": "courseName",
          "type": "string"
        },
        {
          "indexed": false,
          "internalType": "string",
          "name": "cert_issuer",
          "type": "string"
        },
        {
          "indexed": false,
          "internalType": "string",
          "name": "learner",
          "type": "string"
        }
      ],
      "name": "CertificateIssued",
      "type": "event"
    },
    {
      "anonymous": false,
      "inputs": [
        {
          "indexed": true,
          "internalType": "uint256",
          "name": "_courseId",
          "type": "uint256"
        },
        {
          "indexed": true,
          "internalType": "uint256",
          "name": "_chaterId",
          "type": "uint256"
        }
      ],
      "name": "ChapterDeletedSuccess",
      "type": "event"
    },
    {
      "anonymous": false,
      "inputs": [
        {
          "indexed": true,
          "internalType": "uint256",
          "name": "_courseId",
          "type": "uint256"
        },
        {
          "indexed": true,
          "internalType": "uint256",
          "name": "_chapterId",
          "type": "uint256"
        },
        {
          "indexed": false,
          "internalType": "string",
          "name": "_chapterName",
          "type": "string"
        }
      ],
      "name": "ChapterEdited",
      "type": "event"
    },
    {
      "anonymous": false,
      "inputs": [
        {
          "indexed": true,
          "internalType": "uint256",
          "name": "_courseID",
          "type": "uint256"
        },
        {
          "indexed": true,
          "internalType": "string",
          "name": "_courseName",
          "type": "string"
        },
        {
          "indexed": false,
          "internalType": "bool",
          "name": "_approved",
          "type": "bool"
        }
      ],
      "name": "CourseCreationSuccess",
      "type": "event"
    },
    {
      "anonymous": false,
      "inputs": [
        {
          "indexed": true,
          "internalType": "uint256",
          "name": "_courseId",
          "type": "uint256"
        },
        {
          "indexed": false,
          "internalType": "address",
          "name": "owner",
          "type": "address"
        }
      ],
      "name": "CourseDeleteSuccess",
      "type": "event"
    },
    {
      "anonymous": false,
      "inputs": [
        {
          "indexed": true,
          "internalType": "uint256",
          "name": "_courseId",
          "type": "uint256"
        },
        {
          "indexed": false,
          "internalType": "string",
          "name": "_courseName",
          "type": "string"
        }
      ],
      "name": "CourseEdited",
      "type": "event"
    },
    {
      "anonymous": false,
      "inputs": [
        {
          "indexed": true,
          "internalType": "address",
          "name": "_to",
          "type": "address"
        },
        {
          "indexed": true,
          "internalType": "uint256",
          "name": "_amount",
          "type": "uint256"
        }
      ],
      "name": "EcosystemPoolUpdate",
      "type": "event"
    },
    {
      "anonymous": false,
      "inputs": [
        {
          "indexed": true,
          "internalType": "uint256",
          "name": "_chapterId",
          "type": "uint256"
        },
        {
          "indexed": true,
          "internalType": "uint256",
          "name": "_lessonId",
          "type": "uint256"
        }
      ],
      "name": "LessonDeleted",
      "type": "event"
    },
    {
      "anonymous": false,
      "inputs": [
        {
          "indexed": true,
          "internalType": "uint256",
          "name": "_lessonId",
          "type": "uint256"
        },
        {
          "indexed": false,
          "internalType": "string",
          "name": "_lessonName",
          "type": "string"
        }
      ],
      "name": "LessonEdited",
      "type": "event"
    },
    {
      "anonymous": false,
      "inputs": [
        {
          "indexed": true,
          "internalType": "address",
          "name": "_to",
          "type": "address"
        },
        {
          "indexed": true,
          "internalType": "uint256",
          "name": "_amount",
          "type": "uint256"
        }
      ],
      "name": "MintSuccess",
      "type": "event"
    },
    {
      "anonymous": false,
      "inputs": [
        {
          "indexed": true,
          "internalType": "uint256",
          "name": "proposalId",
          "type": "uint256"
        },
        {
          "indexed": false,
          "internalType": "address",
          "name": "approver",
          "type": "address"
        }
      ],
      "name": "MultiSigProposalApproved",
      "type": "event"
    },
    {
      "anonymous": false,
      "inputs": [
        {
          "indexed": true,
          "internalType": "uint256",
          "name": "proposalId",
          "type": "uint256"
        },
        {
          "indexed": false,
          "internalType": "address",
          "name": "proposer",
          "type": "address"
        }
      ],
      "name": "MultiSigProposalCreated",
      "type": "event"
    },
    {
      "anonymous": false,
      "inputs": [
        {
          "indexed": true,
          "internalType": "uint256",
          "name": "proposalId",
          "type": "uint256"
        }
      ],
      "name": "MultiSigProposalExecuted",
      "type": "event"
    },
    {
      "anonymous": false,
      "inputs": [
        {
          "indexed": true,
          "internalType": "uint256",
          "name": "_quizId",
          "type": "uint256"
        },
        {
          "indexed": true,
          "internalType": "uint256",
          "name": "_questionId",
          "type": "uint256"
        }
      ],
      "name": "QuestionDeleted",
      "type": "event"
    },
    {
      "anonymous": false,
      "inputs": [
        {
          "indexed": true,
          "internalType": "uint256",
          "name": "_lessonId",
          "type": "uint256"
        },
        {
          "indexed": true,
          "internalType": "uint256",
          "name": "_quizId",
          "type": "uint256"
        }
      ],
      "name": "QuizDeleted",
      "type": "event"
    },
    {
      "anonymous": false,
      "inputs": [
        {
          "indexed": true,
          "internalType": "uint256",
          "name": "_lessonId",
          "type": "uint256"
        },
        {
          "indexed": true,
          "internalType": "uint256",
          "name": "_quizId",
          "type": "uint256"
        },
        {
          "indexed": false,
          "internalType": "string",
          "name": "_quizTitle",
          "type": "string"
        }
      ],
      "name": "QuizEdited",
      "type": "event"
    },
    {
      "anonymous": false,
      "inputs": [
        {
          "indexed": true,
          "internalType": "address",
          "name": "learner",
          "type": "address"
        },
        {
          "indexed": false,
          "internalType": "uint256",
          "name": "quizId",
          "type": "uint256"
        },
        {
          "indexed": false,
          "internalType": "uint256",
          "name": "score",
          "type": "uint256"
        }
      ],
      "name": "QuizSubmitted",
      "type": "event"
    },
    {
      "anonymous": false,
      "inputs": [
        {
          "indexed": true,
          "internalType": "address",
          "name": "reviewer",
          "type": "address"
        }
      ],
      "name": "ReviewerAddedToPool",
      "type": "event"
    },
    {
      "anonymous": false,
      "inputs": [
        {
          "indexed": true,
          "internalType": "address",
          "name": "reviewer",
          "type": "address"
        }
      ],
      "name": "ReviewerRemovedFromPool",
      "type": "event"
    },
    {
      "anonymous": false,
      "inputs": [
        {
          "indexed": true,
          "internalType": "uint256",
          "name": "courseId",
          "type": "uint256"
        },
        {
          "indexed": false,
          "internalType": "address[]",
          "name": "reviewers",
          "type": "address[]"
        }
      ],
      "name": "ReviewersSelected",
      "type": "event"
    },
    {
      "anonymous": false,
      "inputs": [
        {
          "indexed": true,
          "internalType": "bytes32",
          "name": "role",
          "type": "bytes32"
        },
        {
          "indexed": true,
          "internalType": "bytes32",
          "name": "previousAdminRole",
          "type": "bytes32"
        },
        {
          "indexed": true,
          "internalType": "bytes32",
          "name": "newAdminRole",
          "type": "bytes32"
        }
      ],
      "name": "RoleAdminChanged",
      "type": "event"
    },
    {
      "anonymous": false,
      "inputs": [
        {
          "indexed": true,
          "internalType": "bytes32",
          "name": "role",
          "type": "bytes32"
        },
        {
          "indexed": true,
          "internalType": "address",
          "name": "account",
          "type": "address"
        },
        {
          "indexed": true,
          "internalType": "address",
          "name": "sender",
          "type": "address"
        }
      ],
      "name": "RoleGranted",
      "type": "event"
    },
    {
      "anonymous": false,
      "inputs": [
        {
          "indexed": true,
          "internalType": "bytes32",
          "name": "role",
          "type": "bytes32"
        },
        {
          "indexed": true,
          "internalType": "address",
          "name": "account",
          "type": "address"
        },
        {
          "indexed": true,
          "internalType": "address",
          "name": "sender",
          "type": "address"
        }
      ],
      "name": "RoleRevoked",
      "type": "event"
    },
    {
      "anonymous": false,
      "inputs": [
        {
          "indexed": true,
          "internalType": "address",
          "name": "from",
          "type": "address"
        },
        {
          "indexed": true,
          "internalType": "address",
          "name": "to",
          "type": "address"
        },
        {
          "indexed": false,
          "internalType": "uint256",
          "name": "value",
          "type": "uint256"
        }
      ],
      "name": "Transfer",
      "type": "event"
    },
    {
      "inputs": [],
      "name": "COURSE_COMPLETION_REWARD",
      "outputs": [
        {
          "internalType": "uint256",
          "name": "",
          "type": "uint256"
        }
      ],
      "stateMutability": "view",
      "type": "function"
    },
    {
      "inputs": [],
      "name": "COURSE_OWNER_ROLE",
      "outputs": [
        {
          "internalType": "bytes32",
          "name": "",
          "type": "bytes32"
        }
      ],
      "stateMutability": "view",
      "type": "function"
    },
    {
      "inputs": [],
      "name": "CREATE_COURSE_REWARD",
      "outputs": [
        {
          "internalType": "uint256",
          "name": "",
          "type": "uint256"
        }
      ],
      "stateMutability": "view",
      "type": "function"
    },
    {
      "inputs": [],
      "name": "DEFAULT_ADMIN_ROLE",
      "outputs": [
        {
          "internalType": "bytes32",
          "name": "",
          "type": "bytes32"
        }
      ],
      "stateMutability": "view",
      "type": "function"
    },
    {
      "inputs": [],
      "name": "ECOSYSTEM_POOL",
      "outputs": [
        {
          "internalType": "uint256",
          "name": "",
          "type": "uint256"
        }
      ],
      "stateMutability": "view",
      "type": "function"
    },
    {
      "inputs": [],
      "name": "ENROLLMENT_REWARD",
      "outputs": [
        {
          "internalType": "uint256",
          "name": "",
          "type": "uint256"
        }
      ],
      "stateMutability": "view",
      "type": "function"
    },
    {
      "inputs": [],
      "name": "MAX_SCORE",
      "outputs": [
        {
          "internalType": "uint256",
          "name": "",
          "type": "uint256"
        }
      ],
      "stateMutability": "view",
      "type": "function"
    },
    {
      "inputs": [],
      "name": "MAX_SUPPLY",
      "outputs": [
        {
          "internalType": "uint256",
          "name": "",
          "type": "uint256"
        }
      ],
      "stateMutability": "view",
      "type": "function"
    },
    {
      "inputs": [],
      "name": "MIN_APPROVAL_SCORE",
      "outputs": [
        {
          "internalType": "uint256",
          "name": "",
          "type": "uint256"
        }
      ],
      "stateMutability": "view",
      "type": "function"
    },
    {
      "inputs": [],
      "name": "MULTISIG_APPROVER",
      "outputs": [
        {
          "internalType": "bytes32",
          "name": "",
          "type": "bytes32"
        }
      ],
      "stateMutability": "view",
      "type": "function"
    },
    {
      "inputs": [],
      "name": "QUIZ_COMPLETION_REWARD",
      "outputs": [
        {
          "internalType": "uint256",
          "name": "",
          "type": "uint256"
        }
      ],
      "stateMutability": "view",
      "type": "function"
    },
    {
      "inputs": [],
      "name": "REQUIRED_APPROVALS",
      "outputs": [
        {
          "internalType": "uint256",
          "name": "",
          "type": "uint256"
        }
      ],
      "stateMutability": "view",
      "type": "function"
    },
    {
      "inputs": [],
      "name": "REVIEWER_ROLE",
      "outputs": [
        {
          "internalType": "bytes32",
          "name": "",
          "type": "bytes32"
        }
      ],
      "stateMutability": "view",
      "type": "function"
    },
    {
      "inputs": [
        {
          "internalType": "address",
          "name": "",
          "type": "address"
        }
      ],
      "name": "accountCourses",
      "outputs": [
        {
          "internalType": "uint256",
          "name": "courseCount",
          "type": "uint256"
        }
      ],
      "stateMutability": "view",
      "type": "function"
    },
    {
      "inputs": [
        {
          "internalType": "address",
          "name": "newReviewer",
          "type": "address"
        }
      ],
      "name": "addReviewer",
      "outputs": [],
      "stateMutability": "nonpayable",
      "type": "function"
    },
    {
      "inputs": [
        {
          "internalType": "address",
          "name": "owner",
          "type": "address"
        },
        {
          "internalType": "address",
          "name": "spender",
          "type": "address"
        }
      ],
      "name": "allowance",
      "outputs": [
        {
          "internalType": "uint256",
          "name": "",
          "type": "uint256"
        }
      ],
      "stateMutability": "view",
      "type": "function"
    },
    {
      "inputs": [
        {
          "internalType": "address",
          "name": "",
          "type": "address"
        },
        {
          "internalType": "uint256",
          "name": "",
          "type": "uint256"
        }
      ],
      "name": "approvals",
      "outputs": [
        {
          "internalType": "bool",
          "name": "",
          "type": "bool"
        }
      ],
      "stateMutability": "view",
      "type": "function"
    },
    {
      "inputs": [
        {
          "internalType": "address",
          "name": "spender",
          "type": "address"
        },
        {
          "internalType": "uint256",
          "name": "value",
          "type": "uint256"
        }
      ],
      "name": "approve",
      "outputs": [
        {
          "internalType": "bool",
          "name": "",
          "type": "bool"
        }
      ],
      "stateMutability": "nonpayable",
      "type": "function"
    },
    {
      "inputs": [
        {
          "internalType": "uint256",
          "name": "_courseId",
          "type": "uint256"
        }
      ],
      "name": "approveCourse",
      "outputs": [],
      "stateMutability": "nonpayable",
      "type": "function"
    },
    {
      "inputs": [
        {
          "internalType": "uint256",
          "name": "_proposalId",
          "type": "uint256"
        }
      ],
      "name": "approveMultiSigProposal",
      "outputs": [],
      "stateMutability": "nonpayable",
      "type": "function"
    },
    {
      "inputs": [
        {
          "internalType": "address",
          "name": "account",
          "type": "address"
        }
      ],
      "name": "balanceOf",
      "outputs": [
        {
          "internalType": "uint256",
          "name": "",
          "type": "uint256"
        }
      ],
      "stateMutability": "view",
      "type": "function"
    },
    {
      "inputs": [
        {
          "internalType": "uint256",
          "name": "",
          "type": "uint256"
        }
      ],
      "name": "certificates",
      "outputs": [
        {
          "internalType": "uint256",
          "name": "certId",
          "type": "uint256"
        },
        {
          "internalType": "uint256",
          "name": "courseId",
          "type": "uint256"
        },
        {
          "internalType": "string",
          "name": "learner",
          "type": "string"
        },
        {
          "internalType": "string",
          "name": "cert_issuer",
          "type": "string"
        },
        {
          "internalType": "uint256",
          "name": "issue_date",
          "type": "uint256"
        },
        {
          "internalType": "string",
          "name": "courseName",
          "type": "string"
        },
        {
          "internalType": "address",
          "name": "owner",
          "type": "address"
        }
      ],
      "stateMutability": "view",
      "type": "function"
    },
    {
      "inputs": [
        {
          "internalType": "uint256",
          "name": "",
          "type": "uint256"
        }
      ],
      "name": "chapter",
      "outputs": [
        {
          "internalType": "uint256",
          "name": "courseId",
          "type": "uint256"
        },
        {
          "internalType": "uint256",
          "name": "chapterId",
          "type": "uint256"
        },
        {
          "internalType": "string",
          "name": "chapterName",
          "type": "string"
        },
        {
          "internalType": "uint256",
          "name": "duration",
          "type": "uint256"
        },
        {
          "internalType": "bool",
          "name": "exists",
          "type": "bool"
        }
      ],
      "stateMutability": "view",
      "type": "function"
    },
    {
      "inputs": [
        {
          "internalType": "uint256",
          "name": "",
          "type": "uint256"
        },
        {
          "internalType": "uint256",
          "name": "",
          "type": "uint256"
        }
      ],
      "name": "chapterLessons",
      "outputs": [
        {
          "internalType": "string",
          "name": "",
          "type": "string"
        }
      ],
      "stateMutability": "view",
      "type": "function"
    },
    {
      "inputs": [
        {
          "internalType": "uint256",
          "name": "",
          "type": "uint256"
        },
        {
          "internalType": "address",
          "name": "",
          "type": "address"
        }
      ],
      "name": "completedQuizzes",
      "outputs": [
        {
          "internalType": "bool",
          "name": "",
          "type": "bool"
        }
      ],
      "stateMutability": "view",
      "type": "function"
    },
    {
      "inputs": [
        {
          "internalType": "uint256",
          "name": "",
          "type": "uint256"
        },
        {
          "internalType": "uint256",
          "name": "",
          "type": "uint256"
        }
      ],
      "name": "courseChapters",
      "outputs": [
        {
          "internalType": "uint256",
          "name": "courseId",
          "type": "uint256"
        },
        {
          "internalType": "uint256",
          "name": "chapterId",
          "type": "uint256"
        },
        {
          "internalType": "string",
          "name": "chapterName",
          "type": "string"
        },
        {
          "internalType": "uint256",
          "name": "duration",
          "type": "uint256"
        },
        {
          "internalType": "bool",
          "name": "exists",
          "type": "bool"
        }
      ],
      "stateMutability": "view",
      "type": "function"
    },
    {
      "inputs": [
        {
          "internalType": "uint256",
          "name": "",
          "type": "uint256"
        },
        {
          "internalType": "address",
          "name": "",
          "type": "address"
        }
      ],
      "name": "courseCompleted",
      "outputs": [
        {
          "internalType": "bool",
          "name": "",
          "type": "bool"
        }
      ],
      "stateMutability": "view",
      "type": "function"
    },
    {
      "inputs": [],
      "name": "courseCount",
      "outputs": [
        {
          "internalType": "uint256",
          "name": "",
          "type": "uint256"
        }
      ],
      "stateMutability": "view",
      "type": "function"
    },
    {
      "inputs": [
        {
          "internalType": "uint256",
          "name": "",
          "type": "uint256"
        }
      ],
      "name": "courseObject",
      "outputs": [
        {
          "internalType": "uint256",
          "name": "courseId",
          "type": "uint256"
        },
        {
          "internalType": "string",
          "name": "courseName",
          "type": "string"
        },
        {
          "internalType": "string",
          "name": "description",
          "type": "string"
        },
        {
          "internalType": "bool",
          "name": "approved",
          "type": "bool"
        },
        {
          "internalType": "uint256",
          "name": "approvalCount",
          "type": "uint256"
        },
        {
          "internalType": "address",
          "name": "creator",
          "type": "address"
        },
        {
          "internalType": "bool",
          "name": "exists",
          "type": "bool"
        },
        {
          "internalType": "enum Ecosystem.DifficultyLevel",
          "name": "difficultyLevel",
          "type": "uint8"
        }
      ],
      "stateMutability": "view",
      "type": "function"
    },
    {
      "inputs": [
        {
          "internalType": "uint256",
          "name": "",
          "type": "uint256"
        }
      ],
      "name": "courseReviewInitiated",
      "outputs": [
        {
          "internalType": "bool",
          "name": "",
          "type": "bool"
        }
      ],
      "stateMutability": "view",
      "type": "function"
    },
    {
      "inputs": [
        {
          "internalType": "uint256",
          "name": "",
          "type": "uint256"
        },
        {
          "internalType": "uint256",
          "name": "",
          "type": "uint256"
        }
      ],
      "name": "courseReviewers",
      "outputs": [
        {
          "internalType": "address",
          "name": "",
          "type": "address"
        }
      ],
      "stateMutability": "view",
      "type": "function"
    },
    {
      "inputs": [
        {
          "internalType": "string",
          "name": "_courseName",
          "type": "string"
        },
        {
          "internalType": "string",
          "name": "_description",
          "type": "string"
        },
        {
          "internalType": "enum Ecosystem.DifficultyLevel",
          "name": "_difficultyLevel",
          "type": "uint8"
        }
      ],
      "name": "createCourse",
      "outputs": [
        {
          "internalType": "bool",
          "name": "",
          "type": "bool"
        }
      ],
      "stateMutability": "nonpayable",
      "type": "function"
    },
    {
      "inputs": [],
      "name": "decimals",
      "outputs": [
        {
          "internalType": "uint8",
          "name": "",
          "type": "uint8"
        }
      ],
      "stateMutability": "view",
      "type": "function"
    },
    {
      "inputs": [
        {
          "internalType": "uint256",
          "name": "_courseId",
          "type": "uint256"
        },
        {
          "internalType": "uint256",
          "name": "_chapterId",
          "type": "uint256"
        }
      ],
      "name": "deleteChapter",
      "outputs": [
        {
          "internalType": "bool",
          "name": "",
          "type": "bool"
        }
      ],
      "stateMutability": "nonpayable",
      "type": "function"
    },
    {
      "inputs": [
        {
          "internalType": "uint256",
          "name": "_courseId",
          "type": "uint256"
        }
      ],
      "name": "deleteCourse",
      "outputs": [
        {
          "internalType": "bool",
          "name": "",
          "type": "bool"
        }
      ],
      "stateMutability": "nonpayable",
      "type": "function"
    },
    {
      "inputs": [
        {
          "internalType": "uint256",
          "name": "_chapterId",
          "type": "uint256"
        },
        {
          "internalType": "uint256",
          "name": "_lessonId",
          "type": "uint256"
        }
      ],
      "name": "deleteLesson",
      "outputs": [
        {
          "internalType": "bool",
          "name": "",
          "type": "bool"
        }
      ],
      "stateMutability": "nonpayable",
      "type": "function"
    },
    {
      "inputs": [
        {
          "internalType": "uint256",
          "name": "_quizId",
          "type": "uint256"
        },
        {
          "internalType": "uint256",
          "name": "_questionId",
          "type": "uint256"
        }
      ],
      "name": "deleteQuestion",
      "outputs": [
        {
          "internalType": "bool",
          "name": "",
          "type": "bool"
        }
      ],
      "stateMutability": "nonpayable",
      "type": "function"
    },
    {
      "inputs": [
        {
          "internalType": "uint256",
          "name": "_lessonId",
          "type": "uint256"
        },
        {
          "internalType": "uint256",
          "name": "_quizId",
          "type": "uint256"
        }
      ],
      "name": "deleteQuiz",
      "outputs": [
        {
          "internalType": "bool",
          "name": "",
          "type": "bool"
        }
      ],
      "stateMutability": "nonpayable",
      "type": "function"
    },
    {
      "inputs": [],
      "name": "ecosystemPoolSupply",
      "outputs": [
        {
          "internalType": "uint256",
          "name": "",
          "type": "uint256"
        }
      ],
      "stateMutability": "view",
      "type": "function"
    },
    {
      "inputs": [
        {
          "internalType": "uint256",
          "name": "_courseId",
          "type": "uint256"
        },
        {
          "internalType": "uint256",
          "name": "_chapterId",
          "type": "uint256"
        },
        {
          "internalType": "string",
          "name": "_chapterName",
          "type": "string"
        }
      ],
      "name": "editChapter",
      "outputs": [
        {
          "internalType": "bool",
          "name": "",
          "type": "bool"
        }
      ],
      "stateMutability": "nonpayable",
      "type": "function"
    },
    {
      "inputs": [
        {
          "internalType": "uint256",
          "name": "_courseId",
          "type": "uint256"
        },
        {
          "internalType": "string",
          "name": "_courseName",
          "type": "string"
        }
      ],
      "name": "editCourse",
      "outputs": [
        {
          "internalType": "bool",
          "name": "",
          "type": "bool"
        }
      ],
      "stateMutability": "nonpayable",
      "type": "function"
    },
    {
      "inputs": [
        {
          "internalType": "uint256",
          "name": "_lessonId",
          "type": "uint256"
        },
        {
          "internalType": "string",
          "name": "_lessonName",
          "type": "string"
        },
        {
          "internalType": "string",
          "name": "_lessonContent",
          "type": "string"
        },
        {
          "components": [
            {
              "internalType": "enum Ecosystem.ContentType",
              "name": "contentType",
              "type": "uint8"
            },
            {
              "internalType": "string",
              "name": "url",
              "type": "string"
            },
            {
              "internalType": "string",
              "name": "name",
              "type": "string"
            }
          ],
          "internalType": "struct Ecosystem.Resource[]",
          "name": "_additionalResources",
          "type": "tuple[]"
        }
      ],
      "name": "editLesson",
      "outputs": [
        {
          "internalType": "bool",
          "name": "",
          "type": "bool"
        }
      ],
      "stateMutability": "nonpayable",
      "type": "function"
    },
    {
      "inputs": [
        {
          "internalType": "uint256",
          "name": "_lessonId",
          "type": "uint256"
        },
        {
          "internalType": "uint256",
          "name": "_quizId",
          "type": "uint256"
        },
        {
          "internalType": "string",
          "name": "_quizTitle",
          "type": "string"
        }
      ],
      "name": "editQuiz",
      "outputs": [],
      "stateMutability": "nonpayable",
      "type": "function"
    },
    {
      "inputs": [],
      "name": "getAllCourses",
      "outputs": [
        {
          "components": [
            {
              "internalType": "uint256",
              "name": "courseId",
              "type": "uint256"
            },
            {
              "internalType": "string",
              "name": "courseName",
              "type": "string"
            },
            {
              "internalType": "string",
              "name": "description",
              "type": "string"
            },
            {
              "internalType": "bool",
              "name": "approved",
              "type": "bool"
            },
            {
              "internalType": "uint256",
              "name": "approvalCount",
              "type": "uint256"
            },
            {
              "internalType": "address",
              "name": "creator",
              "type": "address"
            },
            {
              "internalType": "bool",
              "name": "exists",
              "type": "bool"
            },
            {
              "internalType": "address[]",
              "name": "enrolledStudents",
              "type": "address[]"
            },
            {
              "internalType": "enum Ecosystem.DifficultyLevel",
              "name": "difficultyLevel",
              "type": "uint8"
            }
          ],
          "internalType": "struct Ecosystem.Course[]",
          "name": "",
          "type": "tuple[]"
        }
      ],
      "stateMutability": "view",
      "type": "function"
    },
    {
      "inputs": [
        {
          "internalType": "uint256",
          "name": "courseId",
          "type": "uint256"
        }
      ],
      "name": "getCourseReviewers",
      "outputs": [
        {
          "internalType": "address[]",
          "name": "",
          "type": "address[]"
        }
      ],
      "stateMutability": "view",
      "type": "function"
    },
    {
      "inputs": [],
      "name": "getCurrentEcosystemPoolSupply",
      "outputs": [
        {
          "internalType": "uint256",
          "name": "",
          "type": "uint256"
        }
      ],
      "stateMutability": "view",
      "type": "function"
    },
    {
      "inputs": [
        {
          "internalType": "bytes32",
          "name": "role",
          "type": "bytes32"
        }
      ],
      "name": "getRoleAdmin",
      "outputs": [
        {
          "internalType": "bytes32",
          "name": "",
          "type": "bytes32"
        }
      ],
      "stateMutability": "view",
      "type": "function"
    },
    {
      "inputs": [
        {
          "internalType": "bytes32",
          "name": "role",
          "type": "bytes32"
        },
        {
          "internalType": "address",
          "name": "account",
          "type": "address"
        }
      ],
      "name": "grantRole",
      "outputs": [],
      "stateMutability": "nonpayable",
      "type": "function"
    },
    {
      "inputs": [
        {
          "internalType": "bytes32",
          "name": "role",
          "type": "bytes32"
        },
        {
          "internalType": "address",
          "name": "account",
          "type": "address"
        }
      ],
      "name": "hasRole",
      "outputs": [
        {
          "internalType": "bool",
          "name": "",
          "type": "bool"
        }
      ],
      "stateMutability": "view",
      "type": "function"
    },
    {
      "inputs": [
        {
          "internalType": "uint256",
          "name": "",
          "type": "uint256"
        },
        {
          "internalType": "address",
          "name": "",
          "type": "address"
        }
      ],
      "name": "isEnrolled",
      "outputs": [
        {
          "internalType": "bool",
          "name": "",
          "type": "bool"
        }
      ],
      "stateMutability": "view",
      "type": "function"
    },
    {
      "inputs": [
        {
          "internalType": "address",
          "name": "",
          "type": "address"
        }
      ],
      "name": "isInReviewerPool",
      "outputs": [
        {
          "internalType": "bool",
          "name": "",
          "type": "bool"
        }
      ],
      "stateMutability": "view",
      "type": "function"
    },
    {
      "inputs": [
        {
          "internalType": "address",
          "name": "account",
          "type": "address"
        }
      ],
      "name": "isReviewer",
      "outputs": [
        {
          "internalType": "bool",
          "name": "",
          "type": "bool"
        }
      ],
      "stateMutability": "view",
      "type": "function"
    },
    {
      "inputs": [
        {
          "internalType": "uint256",
          "name": "_courseId",
          "type": "uint256"
        },
        {
          "internalType": "string",
          "name": "learner",
          "type": "string"
        },
        {
          "internalType": "string",
          "name": "courseName",
          "type": "string"
        },
        {
          "internalType": "string",
          "name": "cert_issuer",
          "type": "string"
        },
        {
          "internalType": "uint256",
          "name": "issue_date",
          "type": "uint256"
        }
      ],
      "name": "issueCertificate",
      "outputs": [
        {
          "internalType": "uint256",
          "name": "",
          "type": "uint256"
        },
        {
          "components": [
            {
              "internalType": "uint256",
              "name": "certId",
              "type": "uint256"
            },
            {
              "internalType": "uint256",
              "name": "courseId",
              "type": "uint256"
            },
            {
              "internalType": "string",
              "name": "learner",
              "type": "string"
            },
            {
              "internalType": "string",
              "name": "cert_issuer",
              "type": "string"
            },
            {
              "internalType": "uint256",
              "name": "issue_date",
              "type": "uint256"
            },
            {
              "internalType": "string",
              "name": "courseName",
              "type": "string"
            },
            {
              "internalType": "address",
              "name": "owner",
              "type": "address"
            }
          ],
          "internalType": "struct Ecosystem3.Certificate",
          "name": "",
          "type": "tuple"
        }
      ],
      "stateMutability": "nonpayable",
      "type": "function"
    },
    {
      "inputs": [
        {
          "internalType": "uint256",
          "name": "",
          "type": "uint256"
        }
      ],
      "name": "lesson",
      "outputs": [
        {
          "internalType": "uint256",
          "name": "chapterId",
          "type": "uint256"
        },
        {
          "internalType": "uint256",
          "name": "lessonId",
          "type": "uint256"
        },
        {
          "internalType": "string",
          "name": "lessonName",
          "type": "string"
        },
        {
          "internalType": "string",
          "name": "lessonContent",
          "type": "string"
        },
        {
          "internalType": "uint256",
          "name": "resourceCount",
          "type": "uint256"
        },
        {
          "internalType": "bool",
          "name": "exists",
          "type": "bool"
        }
      ],
      "stateMutability": "view",
      "type": "function"
    },
    {
      "inputs": [
        {
          "internalType": "uint256",
          "name": "",
          "type": "uint256"
        }
      ],
      "name": "listOfChapters",
      "outputs": [
        {
          "internalType": "uint256",
          "name": "courseId",
          "type": "uint256"
        },
        {
          "internalType": "uint256",
          "name": "chapterId",
          "type": "uint256"
        },
        {
          "internalType": "string",
          "name": "chapterName",
          "type": "string"
        },
        {
          "internalType": "uint256",
          "name": "duration",
          "type": "uint256"
        },
        {
          "internalType": "bool",
          "name": "exists",
          "type": "bool"
        }
      ],
      "stateMutability": "view",
      "type": "function"
    },
    {
      "inputs": [
        {
          "internalType": "uint256",
          "name": "",
          "type": "uint256"
        }
      ],
      "name": "listOfCourses",
      "outputs": [
        {
          "internalType": "uint256",
          "name": "courseId",
          "type": "uint256"
        },
        {
          "internalType": "string",
          "name": "courseName",
          "type": "string"
        },
        {
          "internalType": "string",
          "name": "description",
          "type": "string"
        },
        {
          "internalType": "bool",
          "name": "approved",
          "type": "bool"
        },
        {
          "internalType": "uint256",
          "name": "approvalCount",
          "type": "uint256"
        },
        {
          "internalType": "address",
          "name": "creator",
          "type": "address"
        },
        {
          "internalType": "bool",
          "name": "exists",
          "type": "bool"
        },
        {
          "internalType": "enum Ecosystem.DifficultyLevel",
          "name": "difficultyLevel",
          "type": "uint8"
        }
      ],
      "stateMutability": "view",
      "type": "function"
    },
    {
      "inputs": [
        {
          "internalType": "uint256",
          "name": "",
          "type": "uint256"
        }
      ],
      "name": "listOfLessons",
      "outputs": [
        {
          "internalType": "uint256",
          "name": "chapterId",
          "type": "uint256"
        },
        {
          "internalType": "uint256",
          "name": "lessonId",
          "type": "uint256"
        },
        {
          "internalType": "string",
          "name": "lessonName",
          "type": "string"
        },
        {
          "internalType": "string",
          "name": "lessonContent",
          "type": "string"
        },
        {
          "internalType": "uint256",
          "name": "resourceCount",
          "type": "uint256"
        },
        {
          "internalType": "bool",
          "name": "exists",
          "type": "bool"
        }
      ],
      "stateMutability": "view",
      "type": "function"
    },
    {
      "inputs": [
        {
          "internalType": "uint256",
          "name": "",
          "type": "uint256"
        }
      ],
      "name": "listOfQuestions",
      "outputs": [
        {
          "internalType": "uint256",
          "name": "quizId",
          "type": "uint256"
        },
        {
          "internalType": "uint256",
          "name": "questionId",
          "type": "uint256"
        },
        {
          "internalType": "string",
          "name": "questionText",
          "type": "string"
        }
      ],
      "stateMutability": "view",
      "type": "function"
    },
    {
      "inputs": [
        {
          "internalType": "uint256",
          "name": "",
          "type": "uint256"
        }
      ],
      "name": "listOfQuizzes",
      "outputs": [
        {
          "internalType": "uint256",
          "name": "lessonId",
          "type": "uint256"
        },
        {
          "internalType": "uint256",
          "name": "quizId",
          "type": "uint256"
        },
        {
          "internalType": "string",
          "name": "quizTitle",
          "type": "string"
        },
        {
          "internalType": "bool",
          "name": "exists",
          "type": "bool"
        }
      ],
      "stateMutability": "view",
      "type": "function"
    },
    {
      "inputs": [
        {
          "internalType": "uint256",
          "name": "",
          "type": "uint256"
        }
      ],
      "name": "listOfResource",
      "outputs": [
        {
          "internalType": "enum Ecosystem.ContentType",
          "name": "contentType",
          "type": "uint8"
        },
        {
          "internalType": "string",
          "name": "url",
          "type": "string"
        },
        {
          "internalType": "string",
          "name": "name",
          "type": "string"
        }
      ],
      "stateMutability": "view",
      "type": "function"
    },
    {
      "inputs": [
        {
          "internalType": "uint256",
          "name": "",
          "type": "uint256"
        }
      ],
      "name": "multiSigProposals",
      "outputs": [
        {
          "internalType": "uint256",
          "name": "id",
          "type": "uint256"
        },
        {
          "internalType": "address",
          "name": "proposer",
          "type": "address"
        },
        {
          "internalType": "address",
          "name": "targetContract",
          "type": "address"
        },
        {
          "internalType": "bytes",
          "name": "data",
          "type": "bytes"
        },
        {
          "internalType": "uint256",
          "name": "approvalCount",
          "type": "uint256"
        },
        {
          "internalType": "bool",
          "name": "executed",
          "type": "bool"
        }
      ],
      "stateMutability": "view",
      "type": "function"
    },
    {
      "inputs": [],
      "name": "name",
      "outputs": [
        {
          "internalType": "string",
          "name": "",
          "type": "string"
        }
      ],
      "stateMutability": "view",
      "type": "function"
    },
    {
      "inputs": [],
      "name": "nextChapterId",
      "outputs": [
        {
          "internalType": "uint256",
          "name": "",
          "type": "uint256"
        }
      ],
      "stateMutability": "view",
      "type": "function"
    },
    {
      "inputs": [],
      "name": "nextChoiceId",
      "outputs": [
        {
          "internalType": "uint256",
          "name": "",
          "type": "uint256"
        }
      ],
      "stateMutability": "view",
      "type": "function"
    },
    {
      "inputs": [],
      "name": "nextCourseId",
      "outputs": [
        {
          "internalType": "uint256",
          "name": "",
          "type": "uint256"
        }
      ],
      "stateMutability": "view",
      "type": "function"
    },
    {
      "inputs": [],
      "name": "nextCourseIdd",
      "outputs": [
        {
          "internalType": "uint256",
          "name": "",
          "type": "uint256"
        }
      ],
      "stateMutability": "view",
      "type": "function"
    },
    {
      "inputs": [],
      "name": "nextLessonId",
      "outputs": [
        {
          "internalType": "uint256",
          "name": "",
          "type": "uint256"
        }
      ],
      "stateMutability": "view",
      "type": "function"
    },
    {
      "inputs": [],
      "name": "nextQuestionId",
      "outputs": [
        {
          "internalType": "uint256",
          "name": "",
          "type": "uint256"
        }
      ],
      "stateMutability": "view",
      "type": "function"
    },
    {
      "inputs": [],
      "name": "nextQuizId",
      "outputs": [
        {
          "internalType": "uint256",
          "name": "",
          "type": "uint256"
        }
      ],
      "stateMutability": "view",
      "type": "function"
    },
    {
      "inputs": [
        {
          "internalType": "uint256",
          "name": "",
          "type": "uint256"
        }
      ],
      "name": "questions",
      "outputs": [
        {
          "internalType": "uint256",
          "name": "quizId",
          "type": "uint256"
        },
        {
          "internalType": "uint256",
          "name": "questionId",
          "type": "uint256"
        },
        {
          "internalType": "string",
          "name": "questionText",
          "type": "string"
        }
      ],
      "stateMutability": "view",
      "type": "function"
    },
    {
      "inputs": [
        {
          "internalType": "uint256",
          "name": "",
          "type": "uint256"
        }
      ],
      "name": "quizzes",
      "outputs": [
        {
          "internalType": "uint256",
          "name": "lessonId",
          "type": "uint256"
        },
        {
          "internalType": "uint256",
          "name": "quizId",
          "type": "uint256"
        },
        {
          "internalType": "string",
          "name": "quizTitle",
          "type": "string"
        },
        {
          "internalType": "bool",
          "name": "exists",
          "type": "bool"
        }
      ],
      "stateMutability": "view",
      "type": "function"
    },
    {
      "inputs": [
        {
          "internalType": "address",
          "name": "reviewer",
          "type": "address"
        }
      ],
      "name": "removeReviewer",
      "outputs": [],
      "stateMutability": "nonpayable",
      "type": "function"
    },
    {
      "inputs": [
        {
          "internalType": "bytes32",
          "name": "role",
          "type": "bytes32"
        },
        {
          "internalType": "address",
          "name": "callerConfirmation",
          "type": "address"
        }
      ],
      "name": "renounceRole",
      "outputs": [],
      "stateMutability": "nonpayable",
      "type": "function"
    },
    {
      "inputs": [
        {
          "internalType": "uint256",
          "name": "",
          "type": "uint256"
        }
      ],
      "name": "reviewerPool",
      "outputs": [
        {
          "internalType": "address",
          "name": "",
          "type": "address"
        }
      ],
      "stateMutability": "view",
      "type": "function"
    },
    {
      "inputs": [
        {
          "internalType": "uint256",
          "name": "",
          "type": "uint256"
        },
        {
          "internalType": "address",
          "name": "",
          "type": "address"
        }
      ],
      "name": "reviews",
      "outputs": [
        {
          "internalType": "uint256",
          "name": "learnerAgency",
          "type": "uint256"
        },
        {
          "internalType": "uint256",
          "name": "criticalThinking",
          "type": "uint256"
        },
        {
          "internalType": "uint256",
          "name": "collaborativeLearning",
          "type": "uint256"
        },
        {
          "internalType": "uint256",
          "name": "reflectivePractice",
          "type": "uint256"
        },
        {
          "internalType": "uint256",
          "name": "adaptiveLearning",
          "type": "uint256"
        },
        {
          "internalType": "uint256",
          "name": "authenticLearning",
          "type": "uint256"
        },
        {
          "internalType": "uint256",
          "name": "technologyIntegration",
          "type": "uint256"
        },
        {
          "internalType": "uint256",
          "name": "learnerSupport",
          "type": "uint256"
        },
        {
          "internalType": "uint256",
          "name": "assessmentForLearning",
          "type": "uint256"
        },
        {
          "internalType": "uint256",
          "name": "engagementAndMotivation",
          "type": "uint256"
        },
        {
          "internalType": "bool",
          "name": "isSubmitted",
          "type": "bool"
        }
      ],
      "stateMutability": "view",
      "type": "function"
    },
    {
      "inputs": [
        {
          "internalType": "bytes32",
          "name": "role",
          "type": "bytes32"
        },
        {
          "internalType": "address",
          "name": "account",
          "type": "address"
        }
      ],
      "name": "revokeRole",
      "outputs": [],
      "stateMutability": "nonpayable",
      "type": "function"
    },
    {
      "inputs": [
        {
          "internalType": "uint256",
          "name": "courseId",
          "type": "uint256"
        }
      ],
      "name": "selectCourseReviewers",
      "outputs": [],
      "stateMutability": "nonpayable",
      "type": "function"
    },
    {
      "inputs": [
        {
          "internalType": "uint256",
          "name": "_quizId",
          "type": "uint256"
        },
        {
          "internalType": "uint256[]",
          "name": "_answers",
          "type": "uint256[]"
        }
      ],
      "name": "submitQuiz",
      "outputs": [
        {
          "internalType": "uint256",
          "name": "score",
          "type": "uint256"
        }
      ],
      "stateMutability": "nonpayable",
      "type": "function"
    },
    {
      "inputs": [
        {
          "internalType": "uint256",
          "name": "courseId",
          "type": "uint256"
        },
        {
          "internalType": "uint256",
          "name": "learnerAgency",
          "type": "uint256"
        },
        {
          "internalType": "uint256",
          "name": "criticalThinking",
          "type": "uint256"
        },
        {
          "internalType": "uint256",
          "name": "collaborativeLearning",
          "type": "uint256"
        },
        {
          "internalType": "uint256",
          "name": "reflectivePractice",
          "type": "uint256"
        },
        {
          "internalType": "uint256",
          "name": "adaptiveLearning",
          "type": "uint256"
        },
        {
          "internalType": "uint256",
          "name": "authenticLearning",
          "type": "uint256"
        },
        {
          "internalType": "uint256",
          "name": "technologyIntegration",
          "type": "uint256"
        },
        {
          "internalType": "uint256",
          "name": "learnerSupport",
          "type": "uint256"
        },
        {
          "internalType": "uint256",
          "name": "assessmentForLearning",
          "type": "uint256"
        },
        {
          "internalType": "uint256",
          "name": "engagementAndMotivation",
          "type": "uint256"
        }
      ],
      "name": "submitReview",
      "outputs": [],
      "stateMutability": "nonpayable",
      "type": "function"
    },
    {
      "inputs": [
        {
          "internalType": "bytes4",
          "name": "interfaceId",
          "type": "bytes4"
        }
      ],
      "name": "supportsInterface",
      "outputs": [
        {
          "internalType": "bool",
          "name": "",
          "type": "bool"
        }
      ],
      "stateMutability": "view",
      "type": "function"
    },
    {
      "inputs": [],
      "name": "symbol",
      "outputs": [
        {
          "internalType": "string",
          "name": "",
          "type": "string"
        }
      ],
      "stateMutability": "view",
      "type": "function"
    },
    {
      "inputs": [],
      "name": "totalSupply",
      "outputs": [
        {
          "internalType": "uint256",
          "name": "",
          "type": "uint256"
        }
      ],
      "stateMutability": "view",
      "type": "function"
    },
    {
      "inputs": [
        {
          "internalType": "address",
          "name": "to",
          "type": "address"
        },
        {
          "internalType": "uint256",
          "name": "value",
          "type": "uint256"
        }
      ],
      "name": "transfer",
      "outputs": [
        {
          "internalType": "bool",
          "name": "",
          "type": "bool"
        }
      ],
      "stateMutability": "nonpayable",
      "type": "function"
    },
    {
      "inputs": [
        {
          "internalType": "address",
          "name": "from",
          "type": "address"
        },
        {
          "internalType": "address",
          "name": "to",
          "type": "address"
        },
        {
          "internalType": "uint256",
          "name": "value",
          "type": "uint256"
        }
      ],
      "name": "transferFrom",
      "outputs": [
        {
          "internalType": "bool",
          "name": "",
          "type": "bool"
        }
      ],
      "stateMutability": "nonpayable",
      "type": "function"
    },
    {
      "inputs": [
        {
          "internalType": "address",
          "name": "",
          "type": "address"
        },
        {
          "internalType": "uint256",
          "name": "",
          "type": "uint256"
        }
      ],
      "name": "userScores",
      "outputs": [
        {
          "internalType": "uint256",
          "name": "",
          "type": "uint256"
        }
      ],
      "stateMutability": "view",
      "type": "function"
    }
  ],
  "bytecode": "0x608060405234801561001057600080fd5b5060405161aba538038061aba58339818101604052810190610032919061063b565b80806040518060400160405280600a81526020017f4142594120544f4b454e000000000000000000000000000000000000000000008152506040518060400160405280600681526020017f414259544b4e000000000000000000000000000000000000000000000000000081525081600390816100af91906108a5565b5080600490816100bf91906108a5565b505050600481511015610107576040517f08c379a00000000000000000000000000000000000000000000000000000000081526004016100fe906109fa565b60405180910390fd5b61011a6000801b336102c060201b60201c565b5061014b7fdf1425bae297c2f52b4f15d18a50b1fc8cb5b981a981b1d213ed3ff92681b64d336102c060201b60201c565b5060005b815181101561029f576101a27fc10c77be35aff266144ed64c26a1fa104bae2f284ae99ac4a34203454704a18583838151811061018f5761018e610a1a565b5b60200260200101516102c060201b60201c565b5060068282815181106101b8576101b7610a1a565b5b60200260200101519080600181540180825580915050600190039060005260206000200160009091909190916101000a81548173ffffffffffffffffffffffffffffffffffffffff021916908373ffffffffffffffffffffffffffffffffffffffff16021790555060016008600084848151811061023957610238610a1a565b5b602002602001015173ffffffffffffffffffffffffffffffffffffffff1673ffffffffffffffffffffffffffffffffffffffff16815260200190815260200160002060006101000a81548160ff021916908315150217905550808060010191505061014f565b50506001600a819055506102b9600b6103be60201b60201c565b5050610a49565b60006102d283836103fd60201b60201c565b6103b35760016005600085815260200190815260200160002060000160008473ffffffffffffffffffffffffffffffffffffffff1673ffffffffffffffffffffffffffffffffffffffff16815260200190815260200160002060006101000a81548160ff02191690831515021790555061035061046860201b60201c565b73ffffffffffffffffffffffffffffffffffffffff168273ffffffffffffffffffffffffffffffffffffffff16847f2f8788117e7eff1d82e926ec794901d17c78024a50270940304540a733656f0d60405160405180910390a4600190506103b8565b600090505b92915050565b60018160000181905550600181600101819055506001816002018190555060018160030181905550600181600401819055506001816005018190555050565b60006005600084815260200190815260200160002060000160008373ffffffffffffffffffffffffffffffffffffffff1673ffffffffffffffffffffffffffffffffffffffff16815260200190815260200160002060009054906101000a900460ff16905092915050565b600033905090565b6000604051905090565b600080fd5b600080fd5b600080fd5b6000601f19601f8301169050919050565b7f4e487b7100000000000000000000000000000000000000000000000000000000600052604160045260246000fd5b6104d282610489565b810181811067ffffffffffffffff821117156104f1576104f061049a565b5b80604052505050565b6000610504610470565b905061051082826104c9565b919050565b600067ffffffffffffffff8211156105305761052f61049a565b5b602082029050602081019050919050565b600080fd5b600073ffffffffffffffffffffffffffffffffffffffff82169050919050565b600061057182610546565b9050919050565b61058181610566565b811461058c57600080fd5b50565b60008151905061059e81610578565b92915050565b60006105b76105b284610515565b6104fa565b905080838252602082019050602084028301858111156105da576105d9610541565b5b835b8181101561060357806105ef888261058f565b8452602084019350506020810190506105dc565b5050509392505050565b600082601f83011261062257610621610484565b5b81516106328482602086016105a4565b91505092915050565b6000602082840312156106515761065061047a565b5b600082015167ffffffffffffffff81111561066f5761066e61047f565b5b61067b8482850161060d565b91505092915050565b600081519050919050565b7f4e487b7100000000000000000000000000000000000000000000000000000000600052602260045260246000fd5b600060028204905060018216806106d657607f821691505b6020821081036106e9576106e861068f565b5b50919050565b60008190508160005260206000209050919050565b60006020601f8301049050919050565b600082821b905092915050565b6000600883026107517fffffffffffffffffffffffffffffffffffffffffffffffffffffffffffffffff82610714565b61075b8683610714565b95508019841693508086168417925050509392505050565b6000819050919050565b6000819050919050565b60006107a261079d61079884610773565b61077d565b610773565b9050919050565b6000819050919050565b6107bc83610787565b6107d06107c8826107a9565b848454610721565b825550505050565b600090565b6107e56107d8565b6107f08184846107b3565b505050565b5b81811015610814576108096000826107dd565b6001810190506107f6565b5050565b601f8211156108595761082a816106ef565b61083384610704565b81016020851015610842578190505b61085661084e85610704565b8301826107f5565b50505b505050565b600082821c905092915050565b600061087c6000198460080261085e565b1980831691505092915050565b6000610895838361086b565b9150826002028217905092915050565b6108ae82610684565b67ffffffffffffffff8111156108c7576108c661049a565b5b6108d182546106be565b6108dc828285610818565b600060209050601f83116001811461090f57600084156108fd578287015190505b6109078582610889565b86555061096f565b601f19841661091d866106ef565b60005b8281101561094557848901518255600182019150602085019450602081019050610920565b86831015610962578489015161095e601f89168261086b565b8355505b6001600288020188555050505b505050505050565b600082825260208201905092915050565b7f4174206c6561737420342072657669657765727320617265207265717569726560008201527f6400000000000000000000000000000000000000000000000000000000000000602082015250565b60006109e4602183610977565b91506109ef82610988565b604082019050919050565b60006020820190508181036000830152610a13816109d7565b9050919050565b7f4e487b7100000000000000000000000000000000000000000000000000000000600052603260045260246000fd5b61a14d80610a586000396000f3fe608060405234801561001057600080fd5b50600436106104b75760003560e01c806373a82b5f11610278578063bad0dd651161015c578063dd62ed3e116100ce578063e503f10811610092578063e503f10814611136578063e863975114611154578063ea0978ad14611184578063eb264b9c146111b4578063fdc6258a146111d2578063ffabc67314611202576104b7565b8063dd62ed3e14611056578063ddfc79fb14611086578063de5dc3a0146110b8578063ded5c18d146110e8578063e09bcae314611106576104b7565b8063c7954e4c11610120578063c7954e4c14610f7e578063c90c884d14610f9c578063c9442dac14610fd0578063c976831514610fec578063d547741f1461101c578063d93f2caa14611038576104b7565b8063bad0dd6514610e93578063bfd2f4c514610eaf578063c12804fb14610ee4578063c293bbbe14610f1e578063c491b04c14610f4e576104b7565b80639560bc85116101f5578063a1cd05b1116101b9578063a1cd05b114610d93578063a217fddf14610dc3578063a3ef204114610de1578063a9059cbb14610e15578063aa95da3a14610e45578063ac957c6314610e75576104b7565b80639560bc8514610cd957806395d89b4114610cf75780639dad8d2214610d15578063a1051dfe14610d45578063a14ecbdf14610d75576104b7565b806388409afa1161023c57806388409afa14610bfa57806388a8270f14610c2d5780638a2492bb14610c5d5780638ea6e2fd14610c8d57806391d1485414610ca9576104b7565b806373a82b5f14610b685780637528499814610b845780637ce1785214610ba05780637d83daf214610bbe578063846f815214610bdc576104b7565b806334b159dd1161039f57806351d93c811161031c5780635cc2a14d116102e05780635cc2a14d14610a5f5780636605515914610a8f578063663b3e2214610aad5780636b000fa714610ae35780636fdb67f714610b0157806370a0823114610b38576104b7565b806351d93c81146109a557806352994e2f146109d757806358a3fa25146109f5578063599c553314610a115780635b680a4514610a2f576104b7565b80633b129a56116103635780633b129a56146108bd57806340932bf8146108db5780634d42ef48146109105780634dd84b3c146109445780634fb95abd14610974576104b7565b806334b159dd1461080757806334ed4bdb1461083757806334f9b3fb1461086757806336568abe146108835780633693dcfa1461089f576104b7565b8063274202f0116104385780632aac61ae116103fc5780632aac61ae146107185780632f2ff15d1461074d57806330a3549a14610769578063313ce5671461079957806331b1b978146107b757806332cb6b0c146107e9576104b7565b8063274202f01461065457806327ff622314610672578063295b825a146106905780632990db7c146106c357806329a0be65146106fa576104b7565b806311ce15df1161047f57806311ce15df1461057657806318160ddd146105a657806319f102ec146105c457806323b872dd146105f4578063248a9ca314610624576104b7565b806301ffc9a7146104bc57806304e48bd1146104ec578063057f46bb1461050a57806306fdde0314610528578063095ea7b314610546575b600080fd5b6104d660048036038101906104d1919061736a565b611232565b6040516104e391906173b2565b60405180910390f35b6104f46112ac565b6040516105019190617781565b60405180910390f35b6105126116e2565b60405161051f91906177b2565b60405180910390f35b6105306116e8565b60405161053d9190617817565b60405180910390f35b610560600480360381019061055b9190617891565b61177a565b60405161056d91906173b2565b60405180910390f35b610590600480360381019061058b91906178d1565b61179d565b60405161059d91906173b2565b60405180910390f35b6105ae6117bd565b6040516105bb91906177b2565b60405180910390f35b6105de60048036038101906105d991906178d1565b6117c7565b6040516105eb919061790d565b60405180910390f35b61060e60048036038101906106099190617928565b611806565b60405161061b91906173b2565b60405180910390f35b61063e600480360381019061063991906179b1565b611835565b60405161064b91906179ed565b60405180910390f35b61065c611855565b60405161066991906177b2565b60405180910390f35b61067a61187d565b60405161068791906177b2565b60405180910390f35b6106aa60048036038101906106a591906178d1565b611882565b6040516106ba9493929190617a08565b60405180910390f35b6106dd60048036038101906106d891906178d1565b611957565b6040516106f1989796959493929190617a63565b60405180910390f35b610702611af6565b60405161070f91906177b2565b60405180910390f35b610732600480360381019061072d91906178d1565b611afc565b60405161074496959493929190617aef565b60405180910390f35b61076760048036038101906107629190617b5e565b611c65565b005b610783600480360381019061077e9190617e84565b611c87565b60405161079091906173b2565b60405180910390f35b6107a1611ec5565b6040516107ae9190617f5b565b60405180910390f35b6107d160048036038101906107cc91906178d1565b611ece565b6040516107e093929190617f76565b60405180910390f35b6107f1611f80565b6040516107fe91906177b2565b60405180910390f35b610821600480360381019061081c9190617fb4565b611f90565b60405161082e91906173b2565b60405180910390f35b610851600480360381019061084c9190617ff4565b611fbf565b60405161085e91906177b2565b60405180910390f35b610881600480360381019061087c9190618021565b611fdd565b005b61089d60048036038101906108989190617b5e565b61211b565b005b6108a7612196565b6040516108b491906179ed565b60405180910390f35b6108c56121ba565b6040516108d291906179ed565b60405180910390f35b6108f560048036038101906108f091906178d1565b6121de565b604051610907969594939291906180e5565b60405180910390f35b61092a6004803603810190610925919061814d565b6122ef565b60405161093b95949392919061818d565b60405180910390f35b61095e60048036038101906109599190617fb4565b6123d7565b60405161096b91906173b2565b60405180910390f35b61098e600480360381019061098991906181e7565b612406565b60405161099c929190618360565b60405180910390f35b6109bf60048036038101906109ba91906178d1565b612759565b6040516109ce93929190617f76565b60405180910390f35b6109df61281b565b6040516109ec91906179ed565b60405180910390f35b610a0f6004803603810190610a0a9190618390565b61283f565b005b610a19612b05565b604051610a2691906177b2565b60405180910390f35b610a496004803603810190610a449190617891565b612b0a565b604051610a5691906177b2565b60405180910390f35b610a796004803603810190610a749190618484565b612b2f565b604051610a8691906173b2565b60405180910390f35b610a97612c1b565b604051610aa491906177b2565b60405180910390f35b610ac76004803603810190610ac291906178d1565b612c21565b604051610ada97969594939291906184e0565b60405180910390f35b610aeb612e1b565b604051610af891906177b2565b60405180910390f35b610b1b6004803603810190610b1691906178d1565b612e21565b604051610b2f989796959493929190617a63565b60405180910390f35b610b526004803603810190610b4d9190617ff4565b612fd0565b604051610b5f91906177b2565b60405180910390f35b610b826004803603810190610b7d9190617ff4565b613018565b005b610b9e6004803603810190610b9991906178d1565b6131fc565b005b610ba8613553565b604051610bb591906177b2565b60405180910390f35b610bc661355f565b604051610bd391906177b2565b60405180910390f35b610be4613565565b604051610bf191906177b2565b60405180910390f35b610c146004803603810190610c0f91906178d1565b613571565b604051610c249493929190617a08565b60405180910390f35b610c476004803603810190610c42919061814d565b613636565b604051610c5491906173b2565b60405180910390f35b610c776004803603810190610c729190618589565b6138d1565b604051610c8491906173b2565b60405180910390f35b610ca76004803603810190610ca291906178d1565b613db6565b005b610cc36004803603810190610cbe9190617b5e565b614120565b604051610cd091906173b2565b60405180910390f35b610ce161418b565b604051610cee91906177b2565b60405180910390f35b610cff614197565b604051610d0c9190617817565b60405180910390f35b610d2f6004803603810190610d2a91906178d1565b614229565b604051610d3c91906173b2565b60405180910390f35b610d5f6004803603810190610d5a919061814d565b614672565b604051610d6c91906173b2565b60405180910390f35b610d7d6149a7565b604051610d8a91906177b2565b60405180910390f35b610dad6004803603810190610da8919061814d565b6149ad565b604051610dba919061790d565b60405180910390f35b610dcb6149fb565b604051610dd891906179ed565b60405180910390f35b610dfb6004803603810190610df691906178d1565b614a02565b604051610e0c95949392919061818d565b60405180910390f35b610e2f6004803603810190610e2a9190617891565b614acd565b604051610e3c91906173b2565b60405180910390f35b610e5f6004803603810190610e5a919061814d565b614af0565b604051610e6c9190617817565b60405180910390f35b610e7d614ba8565b604051610e8a91906177b2565b60405180910390f35b610ead6004803603810190610ea891906178d1565b614bad565b005b610ec96004803603810190610ec491906178d1565b614eac565b604051610edb96959493929190617aef565b60405180910390f35b610efe6004803603810190610ef99190617fb4565b615005565b604051610f159b9a99989796959493929190618614565b60405180910390f35b610f386004803603810190610f3391906178d1565b615079565b604051610f45919061872e565b60405180910390f35b610f686004803603810190610f639190617ff4565b61511a565b604051610f7591906173b2565b60405180910390f35b610f8661513a565b604051610f9391906177b2565b60405180910390f35b610fb66004803603810190610fb191906178d1565b615144565b604051610fc795949392919061818d565b60405180910390f35b610fea6004803603810190610fe59190617ff4565b61521f565b005b61100660048036038101906110019190617fb4565b615509565b60405161101391906173b2565b60405180910390f35b61103660048036038101906110319190617b5e565b615538565b005b61104061555a565b60405161104d91906177b2565b60405180910390f35b611070600480360381019061106b9190618750565b615566565b60405161107d91906177b2565b60405180910390f35b6110a0600480360381019061109b91906178d1565b6155ed565b6040516110af939291906187d8565b60405180910390f35b6110d260048036038101906110cd91906188e0565b615744565b6040516110df91906177b2565b60405180910390f35b6110f06159ee565b6040516110fd91906177b2565b60405180910390f35b611120600480360381019061111b919061814d565b6159fb565b60405161112d91906173b2565b60405180910390f35b61113e615cef565b60405161114b91906177b2565b60405180910390f35b61116e60048036038101906111699190618021565b615cf5565b60405161117b91906173b2565b60405180910390f35b61119e6004803603810190611199919061814d565b615de3565b6040516111ab91906173b2565b60405180910390f35b6111bc6160c9565b6040516111c991906177b2565b60405180910390f35b6111ec60048036038101906111e79190617ff4565b6160cf565b6040516111f991906173b2565b60405180910390f35b61121c60048036038101906112179190617891565b616102565b60405161122991906173b2565b60405180910390f35b60007f7965db0b000000000000000000000000000000000000000000000000000000007bffffffffffffffffffffffffffffffffffffffffffffffffffffffff1916827bffffffffffffffffffffffffffffffffffffffffffffffffffffffff191614806112a557506112a482616131565b5b9050919050565b6060600060268054905067ffffffffffffffff8111156112cf576112ce617ba8565b5b60405190808252806020026020018201604052801561130857816020015b6112f5616dd2565b8152602001906001900390816112ed5790505b50905060005b6026805490508110156116da576040518061012001604052806026838154811061133b5761133a61893c565b5b9060005260206000209060080201600001548152602001602683815481106113665761136561893c565b5b906000526020600020906008020160010180546113829061899a565b80601f01602080910402602001604051908101604052809291908181526020018280546113ae9061899a565b80156113fb5780601f106113d0576101008083540402835291602001916113fb565b820191906000526020600020905b8154815290600101906020018083116113de57829003601f168201915b50505050508152602001602683815481106114195761141861893c565b5b906000526020600020906008020160020180546114359061899a565b80601f01602080910402602001604051908101604052809291908181526020018280546114619061899a565b80156114ae5780601f10611483576101008083540402835291602001916114ae565b820191906000526020600020905b81548152906001019060200180831161149157829003601f168201915b50505050508152602001602683815481106114cc576114cb61893c565b5b906000526020600020906008020160030160009054906101000a900460ff1615158152602001602683815481106115065761150561893c565b5b9060005260206000209060080201600401548152602001602683815481106115315761153061893c565b5b906000526020600020906008020160050160009054906101000a900473ffffffffffffffffffffffffffffffffffffffff1673ffffffffffffffffffffffffffffffffffffffff168152602001602683815481106115925761159161893c565b5b906000526020600020906008020160050160149054906101000a900460ff1615158152602001602683815481106115cc576115cb61893c565b5b906000526020600020906008020160060180548060200260200160405190810160405280929190818152602001828054801561165d57602002820191906000526020600020905b8160009054906101000a900473ffffffffffffffffffffffffffffffffffffffff1673ffffffffffffffffffffffffffffffffffffffff1681526020019060010190808311611613575b505050505081526020016026838154811061167b5761167a61893c565b5b906000526020600020906008020160070160009054906101000a900460ff1660028111156116ac576116ab6175a1565b5b8152508282815181106116c2576116c161893c565b5b6020026020010181905250808060010191505061130e565b508091505090565b60145481565b6060600380546116f79061899a565b80601f01602080910402602001604051908101604052809291908181526020018280546117239061899a565b80156117705780601f1061174557610100808354040283529160200191611770565b820191906000526020600020905b81548152906001019060200180831161175357829003601f168201915b5050505050905090565b60008061178561619b565b90506117928185856161a3565b600191505092915050565b60246020528060005260406000206000915054906101000a900460ff1681565b6000600254905090565b600681815481106117d757600080fd5b906000526020600020016000915054906101000a900473ffffffffffffffffffffffffffffffffffffffff1681565b60008061181161619b565b905061181e8582856161b5565b611829858585616249565b60019150509392505050565b600060056000838152602001908152602001600020600101549050919050565b6064600f6b204fce5e3e2502611000000061187091906189fa565b61187a9190618a6b565b81565b606481565b602a818154811061189257600080fd5b90600052602060002090600502016000915090508060000154908060010154908060020180546118c19061899a565b80601f01602080910402602001604051908101604052809291908181526020018280546118ed9061899a565b801561193a5780601f1061190f5761010080835404028352916020019161193a565b820191906000526020600020905b81548152906001019060200180831161191d57829003601f168201915b5050505050908060040160009054906101000a900460ff16905084565b60196020528060005260406000206000915090508060000154908060010180546119809061899a565b80601f01602080910402602001604051908101604052809291908181526020018280546119ac9061899a565b80156119f95780601f106119ce576101008083540402835291602001916119f9565b820191906000526020600020905b8154815290600101906020018083116119dc57829003601f168201915b505050505090806002018054611a0e9061899a565b80601f0160208091040260200160405190810160405280929190818152602001828054611a3a9061899a565b8015611a875780601f10611a5c57610100808354040283529160200191611a87565b820191906000526020600020905b815481529060010190602001808311611a6a57829003601f168201915b5050505050908060030160009054906101000a900460ff16908060040154908060050160009054906101000a900473ffffffffffffffffffffffffffffffffffffffff16908060050160149054906101000a900460ff16908060070160009054906101000a900460ff16905088565b60155481565b60288181548110611b0c57600080fd5b9060005260206000209060240201600091509050806000015490806001015490806002018054611b3b9061899a565b80601f0160208091040260200160405190810160405280929190818152602001828054611b679061899a565b8015611bb45780601f10611b8957610100808354040283529160200191611bb4565b820191906000526020600020905b815481529060010190602001808311611b9757829003601f168201915b505050505090806003018054611bc99061899a565b80601f0160208091040260200160405190810160405280929190818152602001828054611bf59061899a565b8015611c425780601f10611c1757610100808354040283529160200191611c42565b820191906000526020600020905b815481529060010190602001808311611c2557829003601f168201915b5050505050908060220154908060230160009054906101000a900460ff16905086565b611c6e82611835565b611c778161633d565b611c818383616351565b50505050565b60007fadb22091b155738d2e889eb96f509d2a7c93234236b30400927feb4a6a15ab00611cb38161633d565b6000601f60008881526020019081526020016000206001015403611d0c576040517f08c379a0000000000000000000000000000000000000000000000000000000008152600401611d0390618ae8565b60405180910390fd5b84601f60008881526020019081526020016000206002019081611d2f9190618cb4565b5083601f60008881526020019081526020016000206003019081611d539190618cb4565b50600083511115611e8057600a83511115611da3576040517f08c379a0000000000000000000000000000000000000000000000000000000008152600401611d9a90618df8565b60405180910390fd5b60005b8351811015611e6257838181518110611dc257611dc161893c565b5b6020026020010151601f600089815260200190815260200160002060040182600a8110611df257611df161893c565b5b6003020160008201518160000160006101000a81548160ff02191690836002811115611e2157611e206175a1565b5b02179055506020820151816001019081611e3b9190618cb4565b506040820151816002019081611e519190618cb4565b509050508080600101915050611da6565b508251601f6000888152602001908152602001600020602201819055505b857f2a39a7cf20a19c3cd9811b72b89fab269dce3aa109f6d2a0631cd3e1f0457e5d86604051611eb09190617817565b60405180910390a26001915050949350505050565b60006012905090565b6022602052806000526040600020600091509050806000015490806001015490806002018054611efd9061899a565b80601f0160208091040260200160405190810160405280929190818152602001828054611f299061899a565b8015611f765780601f10611f4b57610100808354040283529160200191611f76565b820191906000526020600020905b815481529060010190602001808311611f5957829003601f168201915b5050505050905083565b6b204fce5e3e2502611000000081565b602e6020528160005260406000206020528060005260406000206000915091509054906101000a900460ff1681565b601b6020528060005260406000206000915090508060000154905081565b7fadb22091b155738d2e889eb96f509d2a7c93234236b30400927feb4a6a15ab006120078161633d565b6000602160008581526020019081526020016000206001015403612060576040517f08c379a000000000000000000000000000000000000000000000000000000000815260040161205790618e64565b60405180910390fd5b826021600085815260200190815260200160002060010154146120b8576040517f08c379a00000000000000000000000000000000000000000000000000000000081526004016120af90618ed0565b60405180910390fd5b816021600085815260200190815260200160002060020190816120db9190618cb4565b5082847fad5fab99ac4d99e1061fd121b36537d5213be564a3dc6cc383897dc355e89ff58460405161210d9190617817565b60405180910390a350505050565b61212361619b565b73ffffffffffffffffffffffffffffffffffffffff168173ffffffffffffffffffffffffffffffffffffffff1614612187576040517f6697b23200000000000000000000000000000000000000000000000000000000815260040160405180910390fd5b6121918282616443565b505050565b7fadb22091b155738d2e889eb96f509d2a7c93234236b30400927feb4a6a15ab0081565b7fc10c77be35aff266144ed64c26a1fa104bae2f284ae99ac4a34203454704a18581565b60096020528060005260406000206000915090508060000154908060010160009054906101000a900473ffffffffffffffffffffffffffffffffffffffff16908060020160009054906101000a900473ffffffffffffffffffffffffffffffffffffffff16908060030180546122539061899a565b80601f016020809104026020016040519081016040528092919081815260200182805461227f9061899a565b80156122cc5780601f106122a1576101008083540402835291602001916122cc565b820191906000526020600020905b8154815290600101906020018083116122af57829003601f168201915b5050505050908060040154908060050160009054906101000a900460ff16905086565b601e602052816000526040600020818154811061230b57600080fd5b90600052602060002090600502016000915091505080600001549080600101549080600201805461233b9061899a565b80601f01602080910402602001604051908101604052809291908181526020018280546123679061899a565b80156123b45780601f10612389576101008083540402835291602001916123b4565b820191906000526020600020905b81548152906001019060200180831161239757829003601f168201915b5050505050908060030154908060040160009054906101000a900460ff16905085565b602c6020528160005260406000206020528060005260406000206000915091509054906101000a900460ff1681565b6000612410616e4a565b6025600088815260200190815260200160002060003373ffffffffffffffffffffffffffffffffffffffff1673ffffffffffffffffffffffffffffffffffffffff16815260200190815260200160002060009054906101000a900460ff166124ad576040517f08c379a00000000000000000000000000000000000000000000000000000000081526004016124a490618f62565b60405180910390fd5b602c600088815260200190815260200160002060003373ffffffffffffffffffffffffffffffffffffffff1673ffffffffffffffffffffffffffffffffffffffff16815260200190815260200160002060009054906101000a900460ff161561254b576040517f08c379a000000000000000000000000000000000000000000000000000000000815260040161254290618ff4565b60405180910390fd5b6001602c600089815260200190815260200160002060003373ffffffffffffffffffffffffffffffffffffffff1673ffffffffffffffffffffffffffffffffffffffff16815260200190815260200160002060006101000a81548160ff0219169083151502179055506125c633671bc16d674ec80000616536565b5060008787878787426040516020016125e496959493929190619071565b6040516020818303038152906040528051906020012060001c905060006040518060e001604052808381526020018a81526020018981526020018781526020018681526020018881526020013373ffffffffffffffffffffffffffffffffffffffff16815250905080602f6000848152602001908152602001600020600082015181600001556020820151816001015560408201518160020190816126899190618cb4565b50606082015181600301908161269f9190618cb4565b506080820151816004015560a08201518160050190816126bf9190618cb4565b5060c08201518160060160006101000a81548173ffffffffffffffffffffffffffffffffffffffff021916908373ffffffffffffffffffffffffffffffffffffffff1602179055509050507f95ad50d6596337460bdce4b8db70313463e0615be9266b573e781327aef44e098288888b60405161273f94939291906190d5565b60405180910390a181819350935050509550959350505050565b602b818154811061276957600080fd5b90600052602060002090600402016000915090508060000154908060010154908060020180546127989061899a565b80601f01602080910402602001604051908101604052809291908181526020018280546127c49061899a565b80156128115780601f106127e657610100808354040283529160200191612811565b820191906000526020600020905b8154815290600101906020018083116127f457829003601f168201915b5050505050905083565b7fdf1425bae297c2f52b4f15d18a50b1fc8cb5b981a981b1d213ed3ff92681b64d81565b7fc10c77be35aff266144ed64c26a1fa104bae2f284ae99ac4a34203454704a1856128698161633d565b6128738c33616623565b6128b2576040517f08c379a00000000000000000000000000000000000000000000000000000000081526004016128a9906191a1565b60405180910390fd5b601a60008d815260200190815260200160002060003373ffffffffffffffffffffffffffffffffffffffff1673ffffffffffffffffffffffffffffffffffffffff168152602001908152602001600020600a0160009054906101000a900460ff1615612953576040517f08c379a000000000000000000000000000000000000000000000000000000000815260040161294a90619233565b60405180910390fd5b6129658b8b8b8b8b8b8b8b8b8b6166ee565b6040518061016001604052808c81526020018b81526020018a815260200189815260200188815260200187815260200186815260200185815260200184815260200183815260200160011515815250601a60008e815260200190815260200160002060003373ffffffffffffffffffffffffffffffffffffffff1673ffffffffffffffffffffffffffffffffffffffff168152602001908152602001600020600082015181600001556020820151816001015560408201518160020155606082015181600301556080820151816004015560a0820151816005015560c0820151816006015560e082015181600701556101008201518160080155610120820151816009015561014082015181600a0160006101000a81548160ff0219169083151502179055509050506050612ae8601a60008f815260200190815260200160002060003373ffffffffffffffffffffffffffffffffffffffff1673ffffffffffffffffffffffffffffffffffffffff1681526020019081526020016000206167b3565b10612af757612af68c6131fc565b5b505050505050505050505050565b600281565b602d602052816000526040600020602052806000526040600020600091509150505481565b60007fadb22091b155738d2e889eb96f509d2a7c93234236b30400927feb4a6a15ab00612b5b8161633d565b6000601960008681526020019081526020016000206000015403612bb4576040517f08c379a0000000000000000000000000000000000000000000000000000000008152600401612bab9061929f565b60405180910390fd5b82601960008681526020019081526020016000206001019081612bd79190618cb4565b50837f5c8c98b6b26236296c856fae8a5ca0c793bbb81c5f8b7c9a9ab99358f53fb0c084604051612c089190617817565b60405180910390a2600191505092915050565b60125481565b602f602052806000526040600020600091509050806000015490806001015490806002018054612c509061899a565b80601f0160208091040260200160405190810160405280929190818152602001828054612c7c9061899a565b8015612cc95780601f10612c9e57610100808354040283529160200191612cc9565b820191906000526020600020905b815481529060010190602001808311612cac57829003601f168201915b505050505090806003018054612cde9061899a565b80601f0160208091040260200160405190810160405280929190818152602001828054612d0a9061899a565b8015612d575780601f10612d2c57610100808354040283529160200191612d57565b820191906000526020600020905b815481529060010190602001808311612d3a57829003601f168201915b505050505090806004015490806005018054612d729061899a565b80601f0160208091040260200160405190810160405280929190818152602001828054612d9e9061899a565b8015612deb5780601f10612dc057610100808354040283529160200191612deb565b820191906000526020600020905b815481529060010190602001808311612dce57829003601f168201915b5050505050908060060160009054906101000a900473ffffffffffffffffffffffffffffffffffffffff16905087565b60185481565b60268181548110612e3157600080fd5b9060005260206000209060080201600091509050806000015490806001018054612e5a9061899a565b80601f0160208091040260200160405190810160405280929190818152602001828054612e869061899a565b8015612ed35780601f10612ea857610100808354040283529160200191612ed3565b820191906000526020600020905b815481529060010190602001808311612eb657829003601f168201915b505050505090806002018054612ee89061899a565b80601f0160208091040260200160405190810160405280929190818152602001828054612f149061899a565b8015612f615780601f10612f3657610100808354040283529160200191612f61565b820191906000526020600020905b815481529060010190602001808311612f4457829003601f168201915b5050505050908060030160009054906101000a900460ff16908060040154908060050160009054906101000a900473ffffffffffffffffffffffffffffffffffffffff16908060050160149054906101000a900460ff16908060070160009054906101000a900460ff16905088565b60008060008373ffffffffffffffffffffffffffffffffffffffff1673ffffffffffffffffffffffffffffffffffffffff168152602001908152602001600020549050919050565b7fc10c77be35aff266144ed64c26a1fa104bae2f284ae99ac4a34203454704a1856130428161633d565b600860008373ffffffffffffffffffffffffffffffffffffffff1673ffffffffffffffffffffffffffffffffffffffff16815260200190815260200160002060009054906101000a900460ff16156130cf576040517f08c379a00000000000000000000000000000000000000000000000000000000081526004016130c69061930b565b60405180910390fd5b6130f97fc10c77be35aff266144ed64c26a1fa104bae2f284ae99ac4a34203454704a18583616351565b506006829080600181540180825580915050600190039060005260206000200160009091909190916101000a81548173ffffffffffffffffffffffffffffffffffffffff021916908373ffffffffffffffffffffffffffffffffffffffff1602179055506001600860008473ffffffffffffffffffffffffffffffffffffffff1673ffffffffffffffffffffffffffffffffffffffff16815260200190815260200160002060006101000a81548160ff0219169083151502179055508173ffffffffffffffffffffffffffffffffffffffff167fe1cb5e1230cc02e62c60b81c1aa5ade512f3eac296edb28628b4cf344f47f93160405160405180910390a25050565b7fc10c77be35aff266144ed64c26a1fa104bae2f284ae99ac4a34203454704a1856132268161633d565b60006019600084815260200190815260200160002090508060030160009054906101000a900460ff161561328f576040517f08c379a000000000000000000000000000000000000000000000000000000000815260040161328690619377565b60405180910390fd5b601c60003373ffffffffffffffffffffffffffffffffffffffff1673ffffffffffffffffffffffffffffffffffffffff168152602001908152602001600020600084815260200190815260200160002060009054906101000a900460ff161561332d576040517f08c379a000000000000000000000000000000000000000000000000000000000815260040161332490619409565b60405180910390fd5b6001601c60003373ffffffffffffffffffffffffffffffffffffffff1673ffffffffffffffffffffffffffffffffffffffff168152602001908152602001600020600085815260200190815260200160002060006101000a81548160ff0219169083151502179055508060040160008154809291906133ab90619429565b919050555060028160040154106134d05760018160030160006101000a81548160ff02191690831515021790555060005b6026805490508110156134935783602682815481106133fe576133fd61893c565b5b906000526020600020906008020160000154036134865760016026828154811061342b5761342a61893c565b5b906000526020600020906008020160030160006101000a81548160ff02191690831515021790555081600401546026828154811061346c5761346b61893c565b5b906000526020600020906008020160040181905550613493565b80806001019150506133dc565b506134ca8160050160009054906101000a900473ffffffffffffffffffffffffffffffffffffffff16674563918244f40000616536565b5061354e565b60005b60268054905081101561354c5783602682815481106134f5576134f461893c565b5b9060005260206000209060080201600001540361353f578160040154602682815481106135255761352461893c565b5b90600052602060002090600802016004018190555061354c565b80806001019150506134d3565b505b505050565b671bc16d674ec8000081565b60135481565b671bc16d674ec8000081565b60216020528060005260406000206000915090508060000154908060010154908060020180546135a09061899a565b80601f01602080910402602001604051908101604052809291908181526020018280546135cc9061899a565b80156136195780601f106135ee57610100808354040283529160200191613619565b820191906000526020600020905b8154815290600101906020018083116135fc57829003601f168201915b5050505050908060040160009054906101000a900460ff16905084565b60007fadb22091b155738d2e889eb96f509d2a7c93234236b30400927feb4a6a15ab006136628161633d565b60006021600086815260200190815260200160002060010154036136bb576040517f08c379a00000000000000000000000000000000000000000000000000000000081526004016136b2906194bd565b60405180910390fd5b6000602260008581526020019081526020016000206001015403613714576040517f08c379a000000000000000000000000000000000000000000000000000000000815260040161370b90619529565b60405180910390fd5b60005b602b805490508110156138515783602b82815481106137395761373861893c565b5b9060005260206000209060040201600101540361384457602b6001602b805490506137649190619549565b815481106137755761377461893c565b5b9060005260206000209060040201602b82815481106137975761379661893c565b5b90600052602060002090600402016000820154816000015560018201548160010155600282018160020190816137cd9190619593565b5060038201816003019080546137e4929190616e9d565b50905050602b8054806137fa576137f961967b565b5b6001900381819060005260206000209060040201600080820160009055600182016000905560028201600061382f9190616f37565b60038201600061383f9190616f77565b505090555b8080600101915050613717565b506022600084815260200190815260200160002060008082016000905560018201600090556002820160006138869190616f37565b6003820160006138969190616f77565b505082847ff084fa19916f58d56801346cc04ca2d2c28a5531dc7db17ebd2323685518b12660405160405180910390a3600191505092915050565b600060196000601354815260200190815260200160002060050160149054906101000a900460ff1615613939576040517f08c379a0000000000000000000000000000000000000000000000000000000008152600401613930906196f6565b60405180910390fd5b60006040518061012001604052806013548152602001868152602001858152602001600015158152602001600081526020013373ffffffffffffffffffffffffffffffffffffffff168152602001600115158152602001600067ffffffffffffffff8111156139ab576139aa617ba8565b5b6040519080825280602002602001820160405280156139d95781602001602082028036833780820191505090505b5081526020018460028111156139f2576139f16175a1565b5b815250905080601960006013548152602001908152602001600020600082015181600001556020820151816001019081613a2c9190618cb4565b506040820151816002019081613a429190618cb4565b5060608201518160030160006101000a81548160ff0219169083151502179055506080820151816004015560a08201518160050160006101000a81548173ffffffffffffffffffffffffffffffffffffffff021916908373ffffffffffffffffffffffffffffffffffffffff16021790555060c08201518160050160146101000a81548160ff02191690831515021790555060e0820151816006019080519060200190613af0929190616f9b565b506101008201518160070160006101000a81548160ff02191690836002811115613b1d57613b1c6175a1565b5b02179055509050506026819080600181540180825580915050600190039060005260206000209060080201600090919091909150600082015181600001556020820151816001019081613b709190618cb4565b506040820151816002019081613b869190618cb4565b5060608201518160030160006101000a81548160ff0219169083151502179055506080820151816004015560a08201518160050160006101000a81548173ffffffffffffffffffffffffffffffffffffffff021916908373ffffffffffffffffffffffffffffffffffffffff16021790555060c08201518160050160146101000a81548160ff02191690831515021790555060e0820151816006019080519060200190613c34929190616f9b565b506101008201518160070160006101000a81548160ff02191690836002811115613c6157613c606175a1565b5b0217905550505060126000815480929190613c7b90619429565b91905055506001601b60003373ffffffffffffffffffffffffffffffffffffffff1673ffffffffffffffffffffffffffffffffffffffff1681526020019081526020016000206000016000828254613cd39190619716565b9250508190555060136000815480929190613ced90619429565b9190505550613d1c7fadb22091b155738d2e889eb96f509d2a7c93234236b30400927feb4a6a15ab0033616351565b5084604051613d2b919061974a565b60405180910390206001601354613d429190619549565b7f9c93a42b217373d37e6c66ace0a67fe1fa1f78c93164b62417de69c48c0f67e2601960006001601354613d769190619549565b815260200190815260200160002060030160009054906101000a900460ff16604051613da291906173b2565b60405180910390a360019150509392505050565b7fadb22091b155738d2e889eb96f509d2a7c93234236b30400927feb4a6a15ab00613de08161633d565b6024600083815260200190815260200160002060009054906101000a900460ff1615613e41576040517f08c379a0000000000000000000000000000000000000000000000000000000008152600401613e38906197ad565b60405180910390fd5b60036006805490501015613e8a576040517f08c379a0000000000000000000000000000000000000000000000000000000008152600401613e8190619819565b60405180910390fd5b602360008381526020019081526020016000206000613ea99190617025565b60005b6003811015614086576000600680549050424460068054905085604051602001613ed99493929190619839565b6040516020818303038152906040528051906020012060001c613efc9190619887565b9050600060068281548110613f1457613f1361893c565b5b9060005260206000200160009054906101000a900473ffffffffffffffffffffffffffffffffffffffff1690506000805b6023600088815260200190815260200160002080549050811015613ffb578273ffffffffffffffffffffffffffffffffffffffff16602360008981526020019081526020016000208281548110613f9f57613f9e61893c565b5b9060005260206000200160009054906101000a900473ffffffffffffffffffffffffffffffffffffffff1673ffffffffffffffffffffffffffffffffffffffff1603613fee5760019150613ffb565b8080600101915050613f45565b50806140765760236000878152602001908152602001600020829080600181540180825580915050600190039060005260206000200160009091909190916101000a81548173ffffffffffffffffffffffffffffffffffffffff021916908373ffffffffffffffffffffffffffffffffffffffff1602179055505b5050508080600101915050613eac565b5060036023600084815260200190815260200160002080549050036140d25760016024600084815260200190815260200160002060006101000a81548160ff0219169083151502179055505b817fe205dff861c570b8df17e26f893778853f94bb25d2de318755e48eab0b403ff76023600085815260200190815260200160002060405161411491906199a4565b60405180910390a25050565b60006005600084815260200190815260200160002060000160008373ffffffffffffffffffffffffffffffffffffffff1673ffffffffffffffffffffffffffffffffffffffff16815260200190815260200160002060009054906101000a900460ff16905092915050565b670de0b6b3a764000081565b6060600480546141a69061899a565b80601f01602080910402602001604051908101604052809291908181526020018280546141d29061899a565b801561421f5780601f106141f45761010080835404028352916020019161421f565b820191906000526020600020905b81548152906001019060200180831161420257829003601f168201915b5050505050905090565b60007fadb22091b155738d2e889eb96f509d2a7c93234236b30400927feb4a6a15ab006142558161633d565b60006019600085815260200190815260200160002060000154036142ae576040517f08c379a00000000000000000000000000000000000000000000000000000000081526004016142a590619a12565b60405180910390fd5b60005b60268054905081116145765783602682815481106142d2576142d161893c565b5b9060005260206000209060080201600001540361456357602660016026805490506142fd9190619549565b8154811061430e5761430d61893c565b5b9060005260206000209060080201602682815481106143305761432f61893c565b5b9060005260206000209060080201600082015481600001556001820181600101908161435c9190619593565b50600282018160020190816143719190619593565b506003820160009054906101000a900460ff168160030160006101000a81548160ff021916908315150217905550600482015481600401556005820160009054906101000a900473ffffffffffffffffffffffffffffffffffffffff168160050160006101000a81548173ffffffffffffffffffffffffffffffffffffffff021916908373ffffffffffffffffffffffffffffffffffffffff1602179055506005820160149054906101000a900460ff168160050160146101000a81548160ff0219169083151502179055506006820181600601908054614453929190617046565b506007820160009054906101000a900460ff168160070160006101000a81548160ff0219169083600281111561448c5761448b6175a1565b5b021790555090505060268054806144a6576144a561967b565b5b60019003818190600052602060002090600802016000808201600090556001820160006144d39190616f37565b6002820160006144e39190616f37565b6003820160006101000a81549060ff021916905560048201600090556005820160006101000a81549073ffffffffffffffffffffffffffffffffffffffff02191690556005820160146101000a81549060ff021916905560068201600061454a9190617025565b6007820160006101000a81549060ff0219169055505090555b808061456e90619429565b9150506142b1565b50601960008481526020019081526020016000206000808201600090556001820160006145a39190616f37565b6002820160006145b39190616f37565b6003820160006101000a81549060ff021916905560048201600090556005820160006101000a81549073ffffffffffffffffffffffffffffffffffffffff02191690556005820160146101000a81549060ff021916905560068201600061461a9190617025565b6007820160006101000a81549060ff02191690555050827f50d94198096be9c8aad282f822173f9212251c4d4dc2731fa944f3941749a78d33604051614660919061790d565b60405180910390a26001915050919050565b60007fadb22091b155738d2e889eb96f509d2a7c93234236b30400927feb4a6a15ab0061469e8161633d565b6000601d600086815260200190815260200160002060010154036146f7576040517f08c379a00000000000000000000000000000000000000000000000000000000081526004016146ee90619a7e565b60405180910390fd5b6000601f60008581526020019081526020016000206001015403614750576040517f08c379a000000000000000000000000000000000000000000000000000000000815260040161474790619aea565b60405180910390fd5b60005b60278054905081116148fb5783601f600083815260200190815260200160002060010154036148e857602860016028805490506147909190619549565b815481106147a1576147a061893c565b5b9060005260206000209060240201602882815481106147c3576147c261893c565b5b90600052602060002090602402016000820154816000015560018201548160010155600282018160020190816147f99190619593565b506003820181600301908161480e9190619593565b50600482018160040190600a614825929190617098565b50602282015481602201556023820160009054906101000a900460ff168160230160006101000a81548160ff02191690831515021790555090505060288054806148725761487161967b565b5b600190038181906000526020600020906024020160008082016000905560018201600090556002820160006148a79190616f37565b6003820160006148b79190616f37565b6004820160006148c79190617142565b60228201600090556023820160006101000a81549060ff0219169055505090555b80806148f390619429565b915050614753565b50601f600084815260200190815260200160002060008082016000905560018201600090556002820160006149309190616f37565b6003820160006149409190616f37565b6004820160006149509190617142565b60228201600090556023820160006101000a81549060ff0219169055505082847f1cdc2ff39034471047dd6d36512a12b5c2e9a30137b2e45daecd05383221d97b60405160405180910390a3600191505092915050565b60115481565b602360205281600052604060002081815481106149c957600080fd5b906000526020600020016000915091509054906101000a900473ffffffffffffffffffffffffffffffffffffffff1681565b6000801b81565b601d602052806000526040600020600091509050806000015490806001015490806002018054614a319061899a565b80601f0160208091040260200160405190810160405280929190818152602001828054614a5d9061899a565b8015614aaa5780601f10614a7f57610100808354040283529160200191614aaa565b820191906000526020600020905b815481529060010190602001808311614a8d57829003601f168201915b5050505050908060030154908060040160009054906101000a900460ff16905085565b600080614ad861619b565b9050614ae5818585616249565b600191505092915050565b602080528160005260406000208181548110614b0b57600080fd5b90600052602060002001600091509150508054614b279061899a565b80601f0160208091040260200160405190810160405280929190818152602001828054614b539061899a565b8015614ba05780601f10614b7557610100808354040283529160200191614ba0565b820191906000526020600020905b815481529060010190602001808311614b8357829003601f168201915b505050505081565b605081565b7fdf1425bae297c2f52b4f15d18a50b1fc8cb5b981a981b1d213ed3ff92681b64d614bd78161633d565b60006009600084815260200190815260200160002090508060050160009054906101000a900460ff1615614c40576040517f08c379a0000000000000000000000000000000000000000000000000000000008152600401614c3790619b56565b60405180910390fd5b8060060160003373ffffffffffffffffffffffffffffffffffffffff1673ffffffffffffffffffffffffffffffffffffffff16815260200190815260200160002060009054906101000a900460ff1615614ccf576040517f08c379a0000000000000000000000000000000000000000000000000000000008152600401614cc690619bc2565b60405180910390fd5b60018160060160003373ffffffffffffffffffffffffffffffffffffffff1673ffffffffffffffffffffffffffffffffffffffff16815260200190815260200160002060006101000a81548160ff021916908315150217905550806004016000815480929190614d3e90619429565b9190505550827f5d4ccf5f92566d140246f4ae3b9cb35dc06fff109a7748602ad77f6260fd9a6133604051614d73919061790d565b60405180910390a26003816004015410614ea75760008160020160009054906101000a900473ffffffffffffffffffffffffffffffffffffffff1673ffffffffffffffffffffffffffffffffffffffff1682600301604051614dd59190619c85565b6000604051808303816000865af19150503d8060008114614e12576040519150601f19603f3d011682016040523d82523d6000602084013e614e17565b606091505b5050905080614e5b576040517f08c379a0000000000000000000000000000000000000000000000000000000008152600401614e5290619ce8565b60405180910390fd5b60018260050160006101000a81548160ff021916908315150217905550837f7770356c29230b95943aec59d47ead11eb426a728bf5b57f7fd8597f3c0e29ba60405160405180910390a2505b505050565b601f602052806000526040600020600091509050806000015490806001015490806002018054614edb9061899a565b80601f0160208091040260200160405190810160405280929190818152602001828054614f079061899a565b8015614f545780601f10614f2957610100808354040283529160200191614f54565b820191906000526020600020905b815481529060010190602001808311614f3757829003601f168201915b505050505090806003018054614f699061899a565b80601f0160208091040260200160405190810160405280929190818152602001828054614f959061899a565b8015614fe25780601f10614fb757610100808354040283529160200191614fe2565b820191906000526020600020905b815481529060010190602001808311614fc557829003601f168201915b5050505050908060220154908060230160009054906101000a900460ff16905086565b601a6020528160005260406000206020528060005260406000206000915091505080600001549080600101549080600201549080600301549080600401549080600501549080600601549080600701549080600801549080600901549080600a0160009054906101000a900460ff1690508b565b60606023600083815260200190815260200160002080548060200260200160405190810160405280929190818152602001828054801561510e57602002820191906000526020600020905b8160009054906101000a900473ffffffffffffffffffffffffffffffffffffffff1673ffffffffffffffffffffffffffffffffffffffff16815260200190600101908083116150c4575b50505050509050919050565b60086020528060005260406000206000915054906101000a900460ff1681565b6000601154905090565b6027818154811061515457600080fd5b90600052602060002090600502016000915090508060000154908060010154908060020180546151839061899a565b80601f01602080910402602001604051908101604052809291908181526020018280546151af9061899a565b80156151fc5780601f106151d1576101008083540402835291602001916151fc565b820191906000526020600020905b8154815290600101906020018083116151df57829003601f168201915b5050505050908060030154908060040160009054906101000a900460ff16905085565b6000801b61522c8161633d565b600860008373ffffffffffffffffffffffffffffffffffffffff1673ffffffffffffffffffffffffffffffffffffffff16815260200190815260200160002060009054906101000a900460ff166152b8576040517f08c379a00000000000000000000000000000000000000000000000000000000081526004016152af90619d54565b60405180910390fd5b60005b60068054905081101561543e578273ffffffffffffffffffffffffffffffffffffffff16600682815481106152f3576152f261893c565b5b9060005260206000200160009054906101000a900473ffffffffffffffffffffffffffffffffffffffff1673ffffffffffffffffffffffffffffffffffffffff1603615431576006600160068054905061534d9190619549565b8154811061535e5761535d61893c565b5b9060005260206000200160009054906101000a900473ffffffffffffffffffffffffffffffffffffffff166006828154811061539d5761539c61893c565b5b9060005260206000200160006101000a81548173ffffffffffffffffffffffffffffffffffffffff021916908373ffffffffffffffffffffffffffffffffffffffff16021790555060068054806153f7576153f661967b565b5b6001900381819060005260206000200160006101000a81549073ffffffffffffffffffffffffffffffffffffffff0219169055905561543e565b80806001019150506152bb565b506000600860008473ffffffffffffffffffffffffffffffffffffffff1673ffffffffffffffffffffffffffffffffffffffff16815260200190815260200160002060006101000a81548160ff0219169083151502179055506154c17fc10c77be35aff266144ed64c26a1fa104bae2f284ae99ac4a34203454704a18583616443565b508173ffffffffffffffffffffffffffffffffffffffff167f55dba9d79522b91b615629d5f3b10c2fad2d258f1768614f4a52e937ada0d0ba60405160405180910390a25050565b60256020528160005260406000206020528060005260406000206000915091509054906101000a900460ff1681565b61554182611835565b61554a8161633d565b6155548383616443565b50505050565b674563918244f4000081565b6000600160008473ffffffffffffffffffffffffffffffffffffffff1673ffffffffffffffffffffffffffffffffffffffff16815260200190815260200160002060008373ffffffffffffffffffffffffffffffffffffffff1673ffffffffffffffffffffffffffffffffffffffff16815260200190815260200160002054905092915050565b602981815481106155fd57600080fd5b90600052602060002090600302016000915090508060000160009054906101000a900460ff16908060010180546156339061899a565b80601f016020809104026020016040519081016040528092919081815260200182805461565f9061899a565b80156156ac5780601f10615681576101008083540402835291602001916156ac565b820191906000526020600020905b81548152906001019060200180831161568f57829003601f168201915b5050505050908060020180546156c19061899a565b80601f01602080910402602001604051908101604052809291908181526020018280546156ed9061899a565b801561573a5780601f1061570f5761010080835404028352916020019161573a565b820191906000526020600020905b81548152906001019060200180831161571d57829003601f168201915b5050505050905083565b6000806021600085815260200190815260200160002090506000816003018054905090506000818551146157ad576040517f08c379a00000000000000000000000000000000000000000000000000000000081526004016157a490619de6565b60405180910390fd5b60005b828110156158a05760008460030182815481106157d0576157cf61893c565b5b9060005260206000209060040201905060008783815181106157f5576157f461893c565b5b6020026020010151905081600301805490508110615848576040517f08c379a000000000000000000000000000000000000000000000000000000000815260040161583f90619e52565b60405180910390fd5b81600301818154811061585e5761585d61893c565b5b906000526020600020906002020160010160009054906101000a900460ff161561589157838061588d90619429565b9450505b505080806001019150506157b0565b50816064826158af91906189fa565b6158b99190618a6b565b9350604b8410615995576001602e600088815260200190815260200160002060003373ffffffffffffffffffffffffffffffffffffffff1673ffffffffffffffffffffffffffffffffffffffff16815260200190815260200160002060006101000a81548160ff02191690831515021790555083602d60003373ffffffffffffffffffffffffffffffffffffffff1673ffffffffffffffffffffffffffffffffffffffff16815260200190815260200160002060008881526020019081526020016000208190555061599333670de0b6b3a7640000616536565b505b3373ffffffffffffffffffffffffffffffffffffffff167fcce9b9ed7e05afc64f73f1ce3f6ff1011a740b718ae6277a14698a4ef2d62dbf87866040516159dd929190619e72565b60405180910390a250505092915050565b6000600b60000154905090565b60007fadb22091b155738d2e889eb96f509d2a7c93234236b30400927feb4a6a15ab00615a278161633d565b7fadb22091b155738d2e889eb96f509d2a7c93234236b30400927feb4a6a15ab00615a518161633d565b6000601960008781526020019081526020016000206000015403615aaa576040517f08c379a0000000000000000000000000000000000000000000000000000000008152600401615aa190619ee7565b60405180910390fd5b6000601d60008681526020019081526020016000206001015403615b03576040517f08c379a0000000000000000000000000000000000000000000000000000000008152600401615afa90619a7e565b60405180910390fd5b60005b6027805490508111615c625784601d60008381526020019081526020016000206001015403615c4f5760276001602780549050615b439190619549565b81548110615b5457615b5361893c565b5b906000526020600020906005020160278281548110615b7657615b7561893c565b5b9060005260206000209060050201600082015481600001556001820154816001015560028201816002019081615bac9190619593565b50600382015481600301556004820160009054906101000a900460ff168160040160006101000a81548160ff0219169083151502179055509050506027805480615bf957615bf861967b565b5b60019003818190600052602060002090600502016000808201600090556001820160009055600282016000615c2e9190616f37565b60038201600090556004820160006101000a81549060ff0219169055505090555b8080615c5a90619429565b915050615b06565b50601d60008581526020019081526020016000206000808201600090556001820160009055600282016000615c979190616f37565b60038201600090556004820160006101000a81549060ff0219169055505083857fab6d08543726a41eac26ac96d0b4591127baed3bfb915d2603ccb9fb2440c42560405160405180910390a360019250505092915050565b60165481565b60007fadb22091b155738d2e889eb96f509d2a7c93234236b30400927feb4a6a15ab00615d218161633d565b6000601d60008681526020019081526020016000206001015403615d7a576040517f08c379a0000000000000000000000000000000000000000000000000000000008152600401615d7190619f53565b60405180910390fd5b82601d60008681526020019081526020016000206002019081615d9d9190618cb4565b5083857f7714a2fe2221824dfd5cd15f7cc29e38ffefcf9b6ad62c216321afcde79cbcfb85604051615dcf9190617817565b60405180910390a360019150509392505050565b60007fadb22091b155738d2e889eb96f509d2a7c93234236b30400927feb4a6a15ab00615e0f8161633d565b6000601f60008681526020019081526020016000206001015403615e68576040517f08c379a0000000000000000000000000000000000000000000000000000000008152600401615e5f90619aea565b60405180910390fd5b6000602160008581526020019081526020016000206001015403615ec1576040517f08c379a0000000000000000000000000000000000000000000000000000000008152600401615eb890619fbf565b60405180910390fd5b60005b6027805490508111616035578360216000868152602001908152602001600020600101540361602257602a6001602a80549050615f019190619549565b81548110615f1257615f1161893c565b5b9060005260206000209060050201602a8281548110615f3457615f3361893c565b5b9060005260206000209060050201600082015481600001556001820154816001015560028201816002019081615f6a9190619593565b506003820181600301908054615f81929190617158565b506004820160009054906101000a900460ff168160040160006101000a81548160ff021916908315150217905550905050602a805480615fc457615fc361967b565b5b60019003818190600052602060002090600502016000808201600090556001820160009055600282016000615ff99190616f37565b60038201600061600991906171f0565b6004820160006101000a81549060ff0219169055505090555b808061602d90619429565b915050615ec4565b5060216000848152602001908152602001600020600080820160009055600182016000905560028201600061606a9190616f37565b60038201600061607a91906171f0565b6004820160006101000a81549060ff0219169055505082847f22a69f3183c2804ef4ff588b6321a6351c1863419286c584919ab8f923cbd5a460405160405180910390a3600191505092915050565b60175481565b60006160fb7fc10c77be35aff266144ed64c26a1fa104bae2f284ae99ac4a34203454704a18583614120565b9050919050565b601c6020528160005260406000206020528060005260406000206000915091509054906101000a900460ff1681565b60007f01ffc9a7000000000000000000000000000000000000000000000000000000007bffffffffffffffffffffffffffffffffffffffffffffffffffffffff1916827bffffffffffffffffffffffffffffffffffffffffffffffffffffffff1916149050919050565b600033905090565b6161b08383836001616848565b505050565b60006161c18484615566565b90507fffffffffffffffffffffffffffffffffffffffffffffffffffffffffffffffff81146162435781811015616233578281836040517ffb8f41b200000000000000000000000000000000000000000000000000000000815260040161622a93929190619fdf565b60405180910390fd5b61624284848484036000616848565b5b50505050565b600073ffffffffffffffffffffffffffffffffffffffff168373ffffffffffffffffffffffffffffffffffffffff16036162bb5760006040517f96c6fd1e0000000000000000000000000000000000000000000000000000000081526004016162b2919061790d565b60405180910390fd5b600073ffffffffffffffffffffffffffffffffffffffff168273ffffffffffffffffffffffffffffffffffffffff160361632d5760006040517fec442f05000000000000000000000000000000000000000000000000000000008152600401616324919061790d565b60405180910390fd5b616338838383616a1f565b505050565b61634e8161634961619b565b616c44565b50565b600061635d8383614120565b6164385760016005600085815260200190815260200160002060000160008473ffffffffffffffffffffffffffffffffffffffff1673ffffffffffffffffffffffffffffffffffffffff16815260200190815260200160002060006101000a81548160ff0219169083151502179055506163d561619b565b73ffffffffffffffffffffffffffffffffffffffff168273ffffffffffffffffffffffffffffffffffffffff16847f2f8788117e7eff1d82e926ec794901d17c78024a50270940304540a733656f0d60405160405180910390a46001905061643d565b600090505b92915050565b600061644f8383614120565b1561652b5760006005600085815260200190815260200160002060000160008473ffffffffffffffffffffffffffffffffffffffff1673ffffffffffffffffffffffffffffffffffffffff16815260200190815260200160002060006101000a81548160ff0219169083151502179055506164c861619b565b73ffffffffffffffffffffffffffffffffffffffff168273ffffffffffffffffffffffffffffffffffffffff16847ff6391f5c32d9c69d2a47ea670b442974b53935d1edc7fd64eb21e047a839171b60405160405180910390a460019050616530565b600090505b92915050565b60006064600f6b204fce5e3e2502611000000061655391906189fa565b61655d9190618a6b565b61656561513a565b836165709190619716565b11156165b1576040517f08c379a00000000000000000000000000000000000000000000000000000000081526004016165a89061a062565b60405180910390fd5b6165bb8383616c95565b5081601160008282546165ce9190619716565b92505081905550818373ffffffffffffffffffffffffffffffffffffffff167fad6ef58d5c294f81258965738e7ae511124139834a8d0b8f8f7327086c82052a60405160405180910390a36001905092915050565b600080600090505b60236000858152602001908152602001600020805490508110156166e2578273ffffffffffffffffffffffffffffffffffffffff166023600086815260200190815260200160002082815481106166855761668461893c565b5b9060005260206000200160009054906101000a900473ffffffffffffffffffffffffffffffffffffffff1673ffffffffffffffffffffffffffffffffffffffff16036166d55760019150506166e8565b808060010191505061662b565b50600090505b92915050565b600a8a111580156167005750600a8911155b801561670d5750600a8811155b801561671a5750600a8711155b80156167275750600a8611155b80156167345750600a8511155b80156167415750600a8411155b801561674e5750600a8311155b801561675b5750600a8211155b80156167685750600a8111155b6167a7576040517f08c379a000000000000000000000000000000000000000000000000000000000815260040161679e9061a0ce565b60405180910390fd5b50505050505050505050565b60008160090154826008015483600701548460060154856005015486600401548760030154886002015489600101548a600001546167f19190619716565b6167fb9190619716565b6168059190619716565b61680f9190619716565b6168199190619716565b6168239190619716565b61682d9190619716565b6168379190619716565b6168419190619716565b9050919050565b600073ffffffffffffffffffffffffffffffffffffffff168473ffffffffffffffffffffffffffffffffffffffff16036168ba5760006040517fe602df050000000000000000000000000000000000000000000000000000000081526004016168b1919061790d565b60405180910390fd5b600073ffffffffffffffffffffffffffffffffffffffff168373ffffffffffffffffffffffffffffffffffffffff160361692c5760006040517f94280d62000000000000000000000000000000000000000000000000000000008152600401616923919061790d565b60405180910390fd5b81600160008673ffffffffffffffffffffffffffffffffffffffff1673ffffffffffffffffffffffffffffffffffffffff16815260200190815260200160002060008573ffffffffffffffffffffffffffffffffffffffff1673ffffffffffffffffffffffffffffffffffffffff168152602001908152602001600020819055508015616a19578273ffffffffffffffffffffffffffffffffffffffff168473ffffffffffffffffffffffffffffffffffffffff167f8c5be1e5ebec7d5bd14f71427d1e84f3dd0314c0f7b2291e5b200ac8c7c3b92584604051616a1091906177b2565b60405180910390a35b50505050565b600073ffffffffffffffffffffffffffffffffffffffff168373ffffffffffffffffffffffffffffffffffffffff1603616a71578060026000828254616a659190619716565b92505081905550616b44565b60008060008573ffffffffffffffffffffffffffffffffffffffff1673ffffffffffffffffffffffffffffffffffffffff16815260200190815260200160002054905081811015616afd578381836040517fe450d38c000000000000000000000000000000000000000000000000000000008152600401616af493929190619fdf565b60405180910390fd5b8181036000808673ffffffffffffffffffffffffffffffffffffffff1673ffffffffffffffffffffffffffffffffffffffff16815260200190815260200160002081905550505b600073ffffffffffffffffffffffffffffffffffffffff168273ffffffffffffffffffffffffffffffffffffffff1603616b8d5780600260008282540392505081905550616bda565b806000808473ffffffffffffffffffffffffffffffffffffffff1673ffffffffffffffffffffffffffffffffffffffff168152602001908152602001600020600082825401925050819055505b8173ffffffffffffffffffffffffffffffffffffffff168373ffffffffffffffffffffffffffffffffffffffff167fddf252ad1be2c89b69c2b068fc378daa952ba7f163c4a11628f55a4df523b3ef83604051616c3791906177b2565b60405180910390a3505050565b616c4e8282614120565b616c915780826040517fe2517d3f000000000000000000000000000000000000000000000000000000008152600401616c8892919061a0ee565b60405180910390fd5b5050565b60006b204fce5e3e25026110000000616cac6117bd565b83616cb79190619716565b1115616cf8576040517f08c379a0000000000000000000000000000000000000000000000000000000008152600401616cef9061a062565b60405180910390fd5b616d028383616d50565b818373ffffffffffffffffffffffffffffffffffffffff167fcda531bfd68624f13205c0a23cd4d5a7f09792cbb399603114f2b04aaa1bf5cf60405160405180910390a36001905092915050565b600073ffffffffffffffffffffffffffffffffffffffff168273ffffffffffffffffffffffffffffffffffffffff1603616dc25760006040517fec442f05000000000000000000000000000000000000000000000000000000008152600401616db9919061790d565b60405180910390fd5b616dce60008383616a1f565b5050565b60405180610120016040528060008152602001606081526020016060815260200160001515815260200160008152602001600073ffffffffffffffffffffffffffffffffffffffff1681526020016000151581526020016060815260200160006002811115616e4457616e436175a1565b5b81525090565b6040518060e00160405280600081526020016000815260200160608152602001606081526020016000815260200160608152602001600073ffffffffffffffffffffffffffffffffffffffff1681525090565b828054828255906000526020600020906002028101928215616f265760005260206000209160020282015b82811115616f2557828260008201816000019081616ee69190619593565b506001820160009054906101000a900460ff168160010160006101000a81548160ff021916908315150217905550505091600201919060020190616ec8565b5b509050616f339190617214565b5090565b508054616f439061899a565b6000825580601f10616f555750616f74565b601f016020900490600052602060002090810190616f73919061724f565b5b50565b5080546000825560020290600052602060002090810190616f989190617214565b50565b828054828255906000526020600020908101928215617014579160200282015b828111156170135782518260006101000a81548173ffffffffffffffffffffffffffffffffffffffff021916908373ffffffffffffffffffffffffffffffffffffffff16021790555091602001919060010190616fbb565b5b509050617021919061724f565b5090565b5080546000825590600052602060002090810190617043919061724f565b50565b8280548282559060005260206000209081019282156170875760005260206000209182015b8281111561708657825482559160010191906001019061706b565b5b509050617094919061724f565b5090565b82600a6003028101928215617131579160030282015b828111156171305782826000820160009054906101000a900460ff168160000160006101000a81548160ff021916908360028111156170f0576170ef6175a1565b5b0217905550600182018160010190816171099190619593565b506002820181600201908161711e9190619593565b505050916003019190600301906170ae565b5b50905061713e919061726c565b5090565b5080600a6003020190617155919061726c565b50565b8280548282559060005260206000209060040281019282156171df5760005260206000209160040282015b828111156171de5782826000820154816000015560018201548160010155600282018160020190816171b59190619593565b5060038201816003019080546171cc929190616e9d565b50505091600401919060040190617183565b5b5090506171ec91906172b7565b5090565b508054600082556004029060005260206000209081019061721191906172b7565b50565b5b8082111561724b576000808201600061722e9190616f37565b6001820160006101000a81549060ff021916905550600201617215565b5090565b5b80821115617268576000816000905550600101617250565b5090565b5b808211156172b357600080820160006101000a81549060ff021916905560018201600061729a9190616f37565b6002820160006172aa9190616f37565b5060030161726d565b5090565b5b808211156172fa5760008082016000905560018201600090556002820160006172e19190616f37565b6003820160006172f19190616f77565b506004016172b8565b5090565b6000604051905090565b600080fd5b600080fd5b60007fffffffff0000000000000000000000000000000000000000000000000000000082169050919050565b61734781617312565b811461735257600080fd5b50565b6000813590506173648161733e565b92915050565b6000602082840312156173805761737f617308565b5b600061738e84828501617355565b91505092915050565b60008115159050919050565b6173ac81617397565b82525050565b60006020820190506173c760008301846173a3565b92915050565b600081519050919050565b600082825260208201905092915050565b6000819050602082019050919050565b6000819050919050565b61740c816173f9565b82525050565b600081519050919050565b600082825260208201905092915050565b60005b8381101561744c578082015181840152602081019050617431565b60008484015250505050565b6000601f19601f8301169050919050565b600061747482617412565b61747e818561741d565b935061748e81856020860161742e565b61749781617458565b840191505092915050565b6174ab81617397565b82525050565b600073ffffffffffffffffffffffffffffffffffffffff82169050919050565b60006174dc826174b1565b9050919050565b6174ec816174d1565b82525050565b600081519050919050565b600082825260208201905092915050565b6000819050602082019050919050565b600061752a83836174e3565b60208301905092915050565b6000602082019050919050565b600061754e826174f2565b61755881856174fd565b93506175638361750e565b8060005b8381101561759457815161757b888261751e565b975061758683617536565b925050600181019050617567565b5085935050505092915050565b7f4e487b7100000000000000000000000000000000000000000000000000000000600052602160045260246000fd5b600381106175e1576175e06175a1565b5b50565b60008190506175f2826175d0565b919050565b6000617602826175e4565b9050919050565b617612816175f7565b82525050565b6000610120830160008301516176316000860182617403565b50602083015184820360208601526176498282617469565b915050604083015184820360408601526176638282617469565b915050606083015161767860608601826174a2565b50608083015161768b6080860182617403565b5060a083015161769e60a08601826174e3565b5060c08301516176b160c08601826174a2565b5060e083015184820360e08601526176c98282617543565b9150506101008301516176e0610100860182617609565b508091505092915050565b60006176f78383617618565b905092915050565b6000602082019050919050565b6000617717826173cd565b61772181856173d8565b935083602082028501617733856173e9565b8060005b8581101561776f578484038952815161775085826176eb565b945061775b836176ff565b925060208a01995050600181019050617737565b50829750879550505050505092915050565b6000602082019050818103600083015261779b818461770c565b905092915050565b6177ac816173f9565b82525050565b60006020820190506177c760008301846177a3565b92915050565b600082825260208201905092915050565b60006177e982617412565b6177f381856177cd565b935061780381856020860161742e565b61780c81617458565b840191505092915050565b6000602082019050818103600083015261783181846177de565b905092915050565b617842816174d1565b811461784d57600080fd5b50565b60008135905061785f81617839565b92915050565b61786e816173f9565b811461787957600080fd5b50565b60008135905061788b81617865565b92915050565b600080604083850312156178a8576178a7617308565b5b60006178b685828601617850565b92505060206178c78582860161787c565b9150509250929050565b6000602082840312156178e7576178e6617308565b5b60006178f58482850161787c565b91505092915050565b617907816174d1565b82525050565b600060208201905061792260008301846178fe565b92915050565b60008060006060848603121561794157617940617308565b5b600061794f86828701617850565b935050602061796086828701617850565b92505060406179718682870161787c565b9150509250925092565b6000819050919050565b61798e8161797b565b811461799957600080fd5b50565b6000813590506179ab81617985565b92915050565b6000602082840312156179c7576179c6617308565b5b60006179d58482850161799c565b91505092915050565b6179e78161797b565b82525050565b6000602082019050617a0260008301846179de565b92915050565b6000608082019050617a1d60008301876177a3565b617a2a60208301866177a3565b8181036040830152617a3c81856177de565b9050617a4b60608301846173a3565b95945050505050565b617a5d816175f7565b82525050565b600061010082019050617a79600083018b6177a3565b8181036020830152617a8b818a6177de565b90508181036040830152617a9f81896177de565b9050617aae60608301886173a3565b617abb60808301876177a3565b617ac860a08301866178fe565b617ad560c08301856173a3565b617ae260e0830184617a54565b9998505050505050505050565b600060c082019050617b0460008301896177a3565b617b1160208301886177a3565b8181036040830152617b2381876177de565b90508181036060830152617b3781866177de565b9050617b4660808301856177a3565b617b5360a08301846173a3565b979650505050505050565b60008060408385031215617b7557617b74617308565b5b6000617b838582860161799c565b9250506020617b9485828601617850565b9150509250929050565b600080fd5b600080fd5b7f4e487b7100000000000000000000000000000000000000000000000000000000600052604160045260246000fd5b617be082617458565b810181811067ffffffffffffffff82111715617bff57617bfe617ba8565b5b80604052505050565b6000617c126172fe565b9050617c1e8282617bd7565b919050565b600067ffffffffffffffff821115617c3e57617c3d617ba8565b5b617c4782617458565b9050602081019050919050565b82818337600083830152505050565b6000617c76617c7184617c23565b617c08565b905082815260208101848484011115617c9257617c91617ba3565b5b617c9d848285617c54565b509392505050565b600082601f830112617cba57617cb9617b9e565b5b8135617cca848260208601617c63565b91505092915050565b600067ffffffffffffffff821115617cee57617ced617ba8565b5b602082029050602081019050919050565b600080fd5b600080fd5b600080fd5b60038110617d1b57600080fd5b50565b600081359050617d2d81617d0e565b92915050565b600060608284031215617d4957617d48617d04565b5b617d536060617c08565b90506000617d6384828501617d1e565b600083015250602082013567ffffffffffffffff811115617d8757617d86617d09565b5b617d9384828501617ca5565b602083015250604082013567ffffffffffffffff811115617db757617db6617d09565b5b617dc384828501617ca5565b60408301525092915050565b6000617de2617ddd84617cd3565b617c08565b90508083825260208201905060208402830185811115617e0557617e04617cff565b5b835b81811015617e4c57803567ffffffffffffffff811115617e2a57617e29617b9e565b5b808601617e378982617d33565b85526020850194505050602081019050617e07565b5050509392505050565b600082601f830112617e6b57617e6a617b9e565b5b8135617e7b848260208601617dcf565b91505092915050565b60008060008060808587031215617e9e57617e9d617308565b5b6000617eac8782880161787c565b945050602085013567ffffffffffffffff811115617ecd57617ecc61730d565b5b617ed987828801617ca5565b935050604085013567ffffffffffffffff811115617efa57617ef961730d565b5b617f0687828801617ca5565b925050606085013567ffffffffffffffff811115617f2757617f2661730d565b5b617f3387828801617e56565b91505092959194509250565b600060ff82169050919050565b617f5581617f3f565b82525050565b6000602082019050617f706000830184617f4c565b92915050565b6000606082019050617f8b60008301866177a3565b617f9860208301856177a3565b8181036040830152617faa81846177de565b9050949350505050565b60008060408385031215617fcb57617fca617308565b5b6000617fd98582860161787c565b9250506020617fea85828601617850565b9150509250929050565b60006020828403121561800a57618009617308565b5b600061801884828501617850565b91505092915050565b60008060006060848603121561803a57618039617308565b5b60006180488682870161787c565b93505060206180598682870161787c565b925050604084013567ffffffffffffffff81111561807a5761807961730d565b5b61808686828701617ca5565b9150509250925092565b600081519050919050565b600082825260208201905092915050565b60006180b782618090565b6180c1818561809b565b93506180d181856020860161742e565b6180da81617458565b840191505092915050565b600060c0820190506180fa60008301896177a3565b61810760208301886178fe565b61811460408301876178fe565b818103606083015261812681866180ac565b905061813560808301856177a3565b61814260a08301846173a3565b979650505050505050565b6000806040838503121561816457618163617308565b5b60006181728582860161787c565b92505060206181838582860161787c565b9150509250929050565b600060a0820190506181a260008301886177a3565b6181af60208301876177a3565b81810360408301526181c181866177de565b90506181d060608301856177a3565b6181dd60808301846173a3565b9695505050505050565b600080600080600060a0868803121561820357618202617308565b5b60006182118882890161787c565b955050602086013567ffffffffffffffff8111156182325761823161730d565b5b61823e88828901617ca5565b945050604086013567ffffffffffffffff81111561825f5761825e61730d565b5b61826b88828901617ca5565b935050606086013567ffffffffffffffff81111561828c5761828b61730d565b5b61829888828901617ca5565b92505060806182a98882890161787c565b9150509295509295909350565b600060e0830160008301516182ce6000860182617403565b5060208301516182e16020860182617403565b50604083015184820360408601526182f98282617469565b915050606083015184820360608601526183138282617469565b91505060808301516183286080860182617403565b5060a083015184820360a08601526183408282617469565b91505060c083015161835560c08601826174e3565b508091505092915050565b600060408201905061837560008301856177a3565b818103602083015261838781846182b6565b90509392505050565b60008060008060008060008060008060006101608c8e0312156183b6576183b5617308565b5b60006183c48e828f0161787c565b9b505060206183d58e828f0161787c565b9a505060406183e68e828f0161787c565b99505060606183f78e828f0161787c565b98505060806184088e828f0161787c565b97505060a06184198e828f0161787c565b96505060c061842a8e828f0161787c565b95505060e061843b8e828f0161787c565b94505061010061844d8e828f0161787c565b93505061012061845f8e828f0161787c565b9250506101406184718e828f0161787c565b9150509295989b509295989b9093969950565b6000806040838503121561849b5761849a617308565b5b60006184a98582860161787c565b925050602083013567ffffffffffffffff8111156184ca576184c961730d565b5b6184d685828601617ca5565b9150509250929050565b600060e0820190506184f5600083018a6177a3565b61850260208301896177a3565b818103604083015261851481886177de565b9050818103606083015261852881876177de565b905061853760808301866177a3565b81810360a083015261854981856177de565b905061855860c08301846178fe565b98975050505050505050565b6003811061857157600080fd5b50565b60008135905061858381618564565b92915050565b6000806000606084860312156185a2576185a1617308565b5b600084013567ffffffffffffffff8111156185c0576185bf61730d565b5b6185cc86828701617ca5565b935050602084013567ffffffffffffffff8111156185ed576185ec61730d565b5b6185f986828701617ca5565b925050604061860a86828701618574565b9150509250925092565b60006101608201905061862a600083018e6177a3565b618637602083018d6177a3565b618644604083018c6177a3565b618651606083018b6177a3565b61865e608083018a6177a3565b61866b60a08301896177a3565b61867860c08301886177a3565b61868560e08301876177a3565b6186936101008301866177a3565b6186a16101208301856177a3565b6186af6101408301846173a3565b9c9b505050505050505050505050565b600082825260208201905092915050565b60006186db826174f2565b6186e581856186bf565b93506186f08361750e565b8060005b83811015618721578151618708888261751e565b975061871383617536565b9250506001810190506186f4565b5085935050505092915050565b6000602082019050818103600083015261874881846186d0565b905092915050565b6000806040838503121561876757618766617308565b5b600061877585828601617850565b925050602061878685828601617850565b9150509250929050565b600381106187a1576187a06175a1565b5b50565b60008190506187b282618790565b919050565b60006187c2826187a4565b9050919050565b6187d2816187b7565b82525050565b60006060820190506187ed60008301866187c9565b81810360208301526187ff81856177de565b9050818103604083015261881381846177de565b9050949350505050565b600067ffffffffffffffff82111561883857618837617ba8565b5b602082029050602081019050919050565b600061885c6188578461881d565b617c08565b9050808382526020820190506020840283018581111561887f5761887e617cff565b5b835b818110156188a85780618894888261787c565b845260208401935050602081019050618881565b5050509392505050565b600082601f8301126188c7576188c6617b9e565b5b81356188d7848260208601618849565b91505092915050565b600080604083850312156188f7576188f6617308565b5b60006189058582860161787c565b925050602083013567ffffffffffffffff8111156189265761892561730d565b5b618932858286016188b2565b9150509250929050565b7f4e487b7100000000000000000000000000000000000000000000000000000000600052603260045260246000fd5b7f4e487b7100000000000000000000000000000000000000000000000000000000600052602260045260246000fd5b600060028204905060018216806189b257607f821691505b6020821081036189c5576189c461896b565b5b50919050565b7f4e487b7100000000000000000000000000000000000000000000000000000000600052601160045260246000fd5b6000618a05826173f9565b9150618a10836173f9565b9250828202618a1e816173f9565b91508282048414831517618a3557618a346189cb565b5b5092915050565b7f4e487b7100000000000000000000000000000000000000000000000000000000600052601260045260246000fd5b6000618a76826173f9565b9150618a81836173f9565b925082618a9157618a90618a3c565b5b828204905092915050565b7f4c6573736f6e20646f6573206e6f742065786973740000000000000000000000600082015250565b6000618ad26015836177cd565b9150618add82618a9c565b602082019050919050565b60006020820190508181036000830152618b0181618ac5565b9050919050565b60008190508160005260206000209050919050565b60006020601f8301049050919050565b600082821b905092915050565b600060088302618b6a7fffffffffffffffffffffffffffffffffffffffffffffffffffffffffffffffff82618b2d565b618b748683618b2d565b95508019841693508086168417925050509392505050565b6000819050919050565b6000618bb1618bac618ba7846173f9565b618b8c565b6173f9565b9050919050565b6000819050919050565b618bcb83618b96565b618bdf618bd782618bb8565b848454618b3a565b825550505050565b600090565b618bf4618be7565b618bff818484618bc2565b505050565b5b81811015618c2357618c18600082618bec565b600181019050618c05565b5050565b601f821115618c6857618c3981618b08565b618c4284618b1d565b81016020851015618c51578190505b618c65618c5d85618b1d565b830182618c04565b50505b505050565b600082821c905092915050565b6000618c8b60001984600802618c6d565b1980831691505092915050565b6000618ca48383618c7a565b9150826002028217905092915050565b618cbd82617412565b67ffffffffffffffff811115618cd657618cd5617ba8565b5b618ce0825461899a565b618ceb828285618c27565b600060209050601f831160018114618d1e5760008415618d0c578287015190505b618d168582618c98565b865550618d7e565b601f198416618d2c86618b08565b60005b82811015618d5457848901518255600182019150602085019450602081019050618d2f565b86831015618d715784890151618d6d601f891682618c7a565b8355505b6001600288020188555050505b505050505050565b7f5265736f7572636520636f756e742065786365656473206d6178696d756d206160008201527f6c6c6f7765640000000000000000000000000000000000000000000000000000602082015250565b6000618de26026836177cd565b9150618ded82618d86565b604082019050919050565b60006020820190508181036000830152618e1181618dd5565b9050919050565b7f5155697a20646f6573206e6f7420657869737400000000000000000000000000600082015250565b6000618e4e6013836177cd565b9150618e5982618e18565b602082019050919050565b60006020820190508181036000830152618e7d81618e41565b9050919050565b7f4e6f74206578616374207175697a000000000000000000000000000000000000600082015250565b6000618eba600e836177cd565b9150618ec582618e84565b602082019050919050565b60006020820190508181036000830152618ee981618ead565b9050919050565b7f596f75206d75737420626520656e726f6c6c656420696e2074686520636f757260008201527f736520746f20636f6d706c657465206974000000000000000000000000000000602082015250565b6000618f4c6031836177cd565b9150618f5782618ef0565b604082019050919050565b60006020820190508181036000830152618f7b81618f3f565b9050919050565b7f596f75206861766520616c726561647920636f6d706c6574656420746869732060008201527f636f757273650000000000000000000000000000000000000000000000000000602082015250565b6000618fde6026836177cd565b9150618fe982618f82565b604082019050919050565b6000602082019050818103600083015261900d81618fd1565b9050919050565b6000819050919050565b61902f61902a826173f9565b619014565b82525050565b600081905092915050565b600061904b82617412565b6190558185619035565b935061906581856020860161742e565b80840191505092915050565b600061907d828961901e565b60208201915061908d8288619040565b91506190998287619040565b91506190a58286619040565b91506190b1828561901e565b6020820191506190c1828461901e565b602082019150819050979650505050505050565b60006080820190506190ea60008301876177a3565b81810360208301526190fc81866177de565b9050818103604083015261911081856177de565b9050818103606083015261912481846177de565b905095945050505050565b7f4e6f742073656c6563746564206173206120726576696577657220666f72207460008201527f68697320636f7572736500000000000000000000000000000000000000000000602082015250565b600061918b602a836177cd565b91506191968261912f565b604082019050919050565b600060208201905081810360008301526191ba8161917e565b9050919050565b7f52657669657720616c7265616479207375626d6974746564206279207468697360008201527f2072657669657765722e00000000000000000000000000000000000000000000602082015250565b600061921d602a836177cd565b9150619228826191c1565b604082019050919050565b6000602082019050818103600083015261924c81619210565b9050919050565b7f436f7572736520646f6573206e6f742065786973740000000000000000000000600082015250565b60006192896015836177cd565b915061929482619253565b602082019050919050565b600060208201905081810360008301526192b88161927c565b9050919050565b7f416c726561647920696e20726576696577657220706f6f6c0000000000000000600082015250565b60006192f56018836177cd565b9150619300826192bf565b602082019050919050565b60006020820190508181036000830152619324816192e8565b9050919050565b7f436f7572736520616c726561647920617070726f766564000000000000000000600082015250565b60006193616017836177cd565b915061936c8261932b565b602082019050919050565b6000602082019050818103600083015261939081619354565b9050919050565b7f596f75206861766520616c726561647920617070726f7665642074686973206360008201527f6f75727365000000000000000000000000000000000000000000000000000000602082015250565b60006193f36025836177cd565b91506193fe82619397565b604082019050919050565b60006020820190508181036000830152619422816193e6565b9050919050565b6000619434826173f9565b91507fffffffffffffffffffffffffffffffffffffffffffffffffffffffffffffffff8203619466576194656189cb565b5b600182019050919050565b7f5175697a20646f6573206e6f7420657869737400000000000000000000000000600082015250565b60006194a76013836177cd565b91506194b282619471565b602082019050919050565b600060208201905081810360008301526194d68161949a565b9050919050565b7f5175657374696f6e206e6f7420666f756e6420696e2074686973207175697a00600082015250565b6000619513601f836177cd565b915061951e826194dd565b602082019050919050565b6000602082019050818103600083015261954281619506565b9050919050565b6000619554826173f9565b915061955f836173f9565b9250828203905081811115619577576195766189cb565b5b92915050565b60008154905061958c8161899a565b9050919050565b8181036195a1575050619679565b6195aa8261957d565b67ffffffffffffffff8111156195c3576195c2617ba8565b5b6195cd825461899a565b6195d8828285618c27565b6000601f83116001811461960757600084156195f5578287015490505b6195ff8582618c98565b865550619672565b601f19841661961587618b08565b965061962086618b08565b60005b8281101561964857848901548255600182019150600185019450602081019050619623565b868310156196655784890154619661601f891682618c7a565b8355505b6001600288020188555050505b5050505050505b565b7f4e487b7100000000000000000000000000000000000000000000000000000000600052603160045260246000fd5b7f436f7572736520616c7265616479206578697374730000000000000000000000600082015250565b60006196e06015836177cd565b91506196eb826196aa565b602082019050919050565b6000602082019050818103600083015261970f816196d3565b9050919050565b6000619721826173f9565b915061972c836173f9565b9250828201905080821115619744576197436189cb565b5b92915050565b60006197568284619040565b915081905092915050565b7f52657669657765727320616c72656164792073656c6563746564000000000000600082015250565b6000619797601a836177cd565b91506197a282619761565b602082019050919050565b600060208201905081810360008301526197c68161978a565b9050919050565b7f4e6f7420656e6f7567682072657669657765727320696e2074686520706f6f6c600082015250565b60006198036020836177cd565b915061980e826197cd565b602082019050919050565b60006020820190508181036000830152619832816197f6565b9050919050565b6000619845828761901e565b602082019150619855828661901e565b602082019150619865828561901e565b602082019150619875828461901e565b60208201915081905095945050505050565b6000619892826173f9565b915061989d836173f9565b9250826198ad576198ac618a3c565b5b828206905092915050565b600081549050919050565b60008190508160005260206000209050919050565b60008160001c9050919050565b600073ffffffffffffffffffffffffffffffffffffffff82169050919050565b6000619918619913836198d8565b6198e5565b9050919050565b600061992b8254619905565b9050919050565b6000600182019050919050565b600061994a826198b8565b61995481856186bf565b935061995f836198c3565b8060005b83811015619997576199748261991f565b61997e888261751e565b975061998983619932565b925050600181019050619963565b5085935050505092915050565b600060208201905081810360008301526199be818461993f565b905092915050565b7f436f7572736520646f65736e2774206578697374210000000000000000000000600082015250565b60006199fc6015836177cd565b9150619a07826199c6565b602082019050919050565b60006020820190508181036000830152619a2b816199ef565b9050919050565b7f4368617074657220646f65736e27742065786973740000000000000000000000600082015250565b6000619a686015836177cd565b9150619a7382619a32565b602082019050919050565b60006020820190508181036000830152619a9781619a5b565b9050919050565b7f4c6573736f6e20646f65736e2774206578697374000000000000000000000000600082015250565b6000619ad46014836177cd565b9150619adf82619a9e565b602082019050919050565b60006020820190508181036000830152619b0381619ac7565b9050919050565b7f50726f706f73616c20616c726561647920657865637574656400000000000000600082015250565b6000619b406019836177cd565b9150619b4b82619b0a565b602082019050919050565b60006020820190508181036000830152619b6f81619b33565b9050919050565b7f416c726561647920617070726f76656400000000000000000000000000000000600082015250565b6000619bac6010836177cd565b9150619bb782619b76565b602082019050919050565b60006020820190508181036000830152619bdb81619b9f565b9050919050565b600081905092915050565b60008190508160005260206000209050919050565b60008154619c0f8161899a565b619c198186619be2565b94506001821660008114619c345760018114619c4957619c7c565b60ff1983168652811515820286019350619c7c565b619c5285619bed565b60005b83811015619c7457815481890152600182019150602081019050619c55565b838801955050505b50505092915050565b6000619c918284619c02565b915081905092915050565b7f50726f706f73616c20657865637574696f6e206661696c656400000000000000600082015250565b6000619cd26019836177cd565b9150619cdd82619c9c565b602082019050919050565b60006020820190508181036000830152619d0181619cc5565b9050919050565b7f4e6f7420696e20726576696577657220706f6f6c000000000000000000000000600082015250565b6000619d3e6014836177cd565b9150619d4982619d08565b602082019050919050565b60006020820190508181036000830152619d6d81619d31565b9050919050565b7f4e756d626572206f6620616e7377657273206d757374206d617463682074686560008201527f206e756d626572206f66207175657374696f6e73000000000000000000000000602082015250565b6000619dd06034836177cd565b9150619ddb82619d74565b604082019050919050565b60006020820190508181036000830152619dff81619dc3565b9050919050565b7f496e76616c69642063686f6963652073656c6563746564000000000000000000600082015250565b6000619e3c6017836177cd565b9150619e4782619e06565b602082019050919050565b60006020820190508181036000830152619e6b81619e2f565b9050919050565b6000604082019050619e8760008301856177a3565b619e9460208301846177a3565b9392505050565b7f436f7572736520646f65736e2774206578697374000000000000000000000000600082015250565b6000619ed16014836177cd565b9150619edc82619e9b565b602082019050919050565b60006020820190508181036000830152619f0081619ec4565b9050919050565b7f4368617074657220646f65736e2774206e6f7420657869737400000000000000600082015250565b6000619f3d6019836177cd565b9150619f4882619f07565b602082019050919050565b60006020820190508181036000830152619f6c81619f30565b9050919050565b7f5175697a20646f65736e27742065786973740000000000000000000000000000600082015250565b6000619fa96012836177cd565b9150619fb482619f73565b602082019050919050565b60006020820190508181036000830152619fd881619f9c565b9050919050565b6000606082019050619ff460008301866178fe565b61a00160208301856177a3565b61a00e60408301846177a3565b949350505050565b7f4c696d6974204578636565646564210000000000000000000000000000000000600082015250565b600061a04c600f836177cd565b915061a0578261a016565b602082019050919050565b6000602082019050818103600083015261a07b8161a03f565b9050919050565b7f53636f726573206d757374206265206265747765656e203120616e642031302e600082015250565b600061a0b86020836177cd565b915061a0c38261a082565b602082019050919050565b6000602082019050818103600083015261a0e78161a0ab565b9050919050565b600060408201905061a10360008301856178fe565b61a11060208301846179de565b939250505056fea2646970667358221220efaf7dc1f0767ce8681b4459e16a8161f6066c30f80d8097c170e1da711af00c64736f6c634300081b0033",
  "linkReferences": {},
  "deployedLinkReferences": {}
}