{
  "_format": "hh-sol-artifact-1",
  "contractName": "Ecosystem3",
  "sourceName": "contracts/Ecosystem Contracts/Ecosystem3.sol",
  "abi": [
    {
      "inputs": [
        {
          "internalType": "address[]",
          "name": "_reviewers",
          "type": "address[]"
        }
      ],
      "stateMutability": "nonpayable",
      "type": "constructor"
    },
    {
      "inputs": [],
      "name": "AccessControlBadConfirmation",
      "type": "error"
    },
    {
      "inputs": [
        {
          "internalType": "address",
          "name": "account",
          "type": "address"
        },
        {
          "internalType": "bytes32",
          "name": "neededRole",
          "type": "bytes32"
        }
      ],
      "name": "AccessControlUnauthorizedAccount",
      "type": "error"
    },
    {
      "inputs": [
        {
          "internalType": "address",
          "name": "spender",
          "type": "address"
        },
        {
          "internalType": "uint256",
          "name": "allowance",
          "type": "uint256"
        },
        {
          "internalType": "uint256",
          "name": "needed",
          "type": "uint256"
        }
      ],
      "name": "ERC20InsufficientAllowance",
      "type": "error"
    },
    {
      "inputs": [
        {
          "internalType": "address",
          "name": "sender",
          "type": "address"
        },
        {
          "internalType": "uint256",
          "name": "balance",
          "type": "uint256"
        },
        {
          "internalType": "uint256",
          "name": "needed",
          "type": "uint256"
        }
      ],
      "name": "ERC20InsufficientBalance",
      "type": "error"
    },
    {
      "inputs": [
        {
          "internalType": "address",
          "name": "approver",
          "type": "address"
        }
      ],
      "name": "ERC20InvalidApprover",
      "type": "error"
    },
    {
      "inputs": [
        {
          "internalType": "address",
          "name": "receiver",
          "type": "address"
        }
      ],
      "name": "ERC20InvalidReceiver",
      "type": "error"
    },
    {
      "inputs": [
        {
          "internalType": "address",
          "name": "sender",
          "type": "address"
        }
      ],
      "name": "ERC20InvalidSender",
      "type": "error"
    },
    {
      "inputs": [
        {
          "internalType": "address",
          "name": "spender",
          "type": "address"
        }
      ],
      "name": "ERC20InvalidSpender",
      "type": "error"
    },
    {
      "inputs": [],
      "name": "ReentrancyGuardReentrantCall",
      "type": "error"
    },
    {
      "anonymous": false,
      "inputs": [
        {
          "indexed": true,
          "internalType": "address",
          "name": "owner",
          "type": "address"
        },
        {
          "indexed": true,
          "internalType": "address",
          "name": "spender",
          "type": "address"
        },
        {
          "indexed": false,
          "internalType": "uint256",
          "name": "value",
          "type": "uint256"
        }
      ],
      "name": "Approval",
      "type": "event"
    },
    {
      "anonymous": false,
      "inputs": [
        {
          "indexed": true,
          "internalType": "address",
          "name": "_account",
          "type": "address"
        },
        {
          "indexed": false,
          "internalType": "uint256",
          "name": "_amount",
          "type": "uint256"
        }
      ],
      "name": "BurnSuccess",
      "type": "event"
    },
    {
      "anonymous": false,
      "inputs": [
        {
          "indexed": false,
          "internalType": "uint256",
          "name": "certificateId",
          "type": "uint256"
        },
        {
          "indexed": false,
          "internalType": "string",
          "name": "courseName",
          "type": "string"
        },
        {
          "indexed": false,
          "internalType": "string",
          "name": "cert_issuer",
          "type": "string"
        },
        {
          "indexed": false,
          "internalType": "string",
          "name": "learner",
          "type": "string"
        }
      ],
      "name": "CertificateIssued",
      "type": "event"
    },
    {
      "anonymous": false,
      "inputs": [
        {
          "indexed": true,
          "internalType": "uint256",
          "name": "_courseId",
          "type": "uint256"
        },
        {
          "indexed": true,
          "internalType": "uint256",
          "name": "_chaterId",
          "type": "uint256"
        }
      ],
      "name": "ChapterDeletedSuccess",
      "type": "event"
    },
    {
      "anonymous": false,
      "inputs": [
        {
          "indexed": true,
          "internalType": "uint256",
          "name": "_courseId",
          "type": "uint256"
        },
        {
          "indexed": true,
          "internalType": "uint256",
          "name": "_chapterId",
          "type": "uint256"
        },
        {
          "indexed": false,
          "internalType": "string",
          "name": "_chapterName",
          "type": "string"
        }
      ],
      "name": "ChapterEdited",
      "type": "event"
    },
    {
      "anonymous": false,
      "inputs": [
        {
          "indexed": true,
          "internalType": "uint256",
          "name": "_courseID",
          "type": "uint256"
        },
        {
          "indexed": true,
          "internalType": "string",
          "name": "_courseName",
          "type": "string"
        },
        {
          "indexed": false,
          "internalType": "bool",
          "name": "_approved",
          "type": "bool"
        }
      ],
      "name": "CourseCreationSuccess",
      "type": "event"
    },
    {
      "anonymous": false,
      "inputs": [
        {
          "indexed": true,
          "internalType": "uint256",
          "name": "_courseId",
          "type": "uint256"
        },
        {
          "indexed": false,
          "internalType": "address",
          "name": "owner",
          "type": "address"
        }
      ],
      "name": "CourseDeleteSuccess",
      "type": "event"
    },
    {
      "anonymous": false,
      "inputs": [
        {
          "indexed": true,
          "internalType": "uint256",
          "name": "_courseId",
          "type": "uint256"
        },
        {
          "indexed": false,
          "internalType": "string",
          "name": "_courseName",
          "type": "string"
        }
      ],
      "name": "CourseEdited",
      "type": "event"
    },
    {
      "anonymous": false,
      "inputs": [
        {
          "indexed": true,
          "internalType": "address",
          "name": "_to",
          "type": "address"
        },
        {
          "indexed": true,
          "internalType": "uint256",
          "name": "_amount",
          "type": "uint256"
        }
      ],
      "name": "EcosystemPoolUpdate",
      "type": "event"
    },
    {
      "anonymous": false,
      "inputs": [
        {
          "indexed": true,
          "internalType": "uint256",
          "name": "_chapterId",
          "type": "uint256"
        },
        {
          "indexed": true,
          "internalType": "uint256",
          "name": "_lessonId",
          "type": "uint256"
        }
      ],
      "name": "LessonDeleted",
      "type": "event"
    },
    {
      "anonymous": false,
      "inputs": [
        {
          "indexed": true,
          "internalType": "uint256",
          "name": "_lessonId",
          "type": "uint256"
        },
        {
          "indexed": false,
          "internalType": "string",
          "name": "_lessonName",
          "type": "string"
        }
      ],
      "name": "LessonEdited",
      "type": "event"
    },
    {
      "anonymous": false,
      "inputs": [
        {
          "indexed": true,
          "internalType": "uint256",
          "name": "_chapterId",
          "type": "uint256"
        },
        {
          "indexed": true,
          "internalType": "uint256",
          "name": "_lessonId",
          "type": "uint256"
        },
        {
          "indexed": false,
          "internalType": "address",
          "name": "learner",
          "type": "address"
        }
      ],
      "name": "LessonMarkedAsRead",
      "type": "event"
    },
    {
      "anonymous": false,
      "inputs": [
        {
          "indexed": true,
          "internalType": "address",
          "name": "_to",
          "type": "address"
        },
        {
          "indexed": true,
          "internalType": "uint256",
          "name": "_amount",
          "type": "uint256"
        }
      ],
      "name": "MintSuccess",
      "type": "event"
    },
    {
      "anonymous": false,
      "inputs": [
        {
          "indexed": true,
          "internalType": "uint256",
          "name": "proposalId",
          "type": "uint256"
        },
        {
          "indexed": false,
          "internalType": "address",
          "name": "approver",
          "type": "address"
        }
      ],
      "name": "MultiSigProposalApproved",
      "type": "event"
    },
    {
      "anonymous": false,
      "inputs": [
        {
          "indexed": true,
          "internalType": "uint256",
          "name": "proposalId",
          "type": "uint256"
        },
        {
          "indexed": false,
          "internalType": "address",
          "name": "proposer",
          "type": "address"
        }
      ],
      "name": "MultiSigProposalCreated",
      "type": "event"
    },
    {
      "anonymous": false,
      "inputs": [
        {
          "indexed": true,
          "internalType": "uint256",
          "name": "proposalId",
          "type": "uint256"
        }
      ],
      "name": "MultiSigProposalExecuted",
      "type": "event"
    },
    {
      "anonymous": false,
      "inputs": [
        {
          "indexed": true,
          "internalType": "uint256",
          "name": "_quizId",
          "type": "uint256"
        },
        {
          "indexed": true,
          "internalType": "uint256",
          "name": "_questionId",
          "type": "uint256"
        }
      ],
      "name": "QuestionDeleted",
      "type": "event"
    },
    {
      "anonymous": false,
      "inputs": [
        {
          "indexed": true,
          "internalType": "uint256",
          "name": "_lessonId",
          "type": "uint256"
        },
        {
          "indexed": true,
          "internalType": "uint256",
          "name": "_quizId",
          "type": "uint256"
        }
      ],
      "name": "QuizDeleted",
      "type": "event"
    },
    {
      "anonymous": false,
      "inputs": [
        {
          "indexed": true,
          "internalType": "uint256",
          "name": "_lessonId",
          "type": "uint256"
        },
        {
          "indexed": true,
          "internalType": "uint256",
          "name": "_quizId",
          "type": "uint256"
        },
        {
          "indexed": false,
          "internalType": "string",
          "name": "_quizTitle",
          "type": "string"
        }
      ],
      "name": "QuizEdited",
      "type": "event"
    },
    {
      "anonymous": false,
      "inputs": [
        {
          "indexed": true,
          "internalType": "address",
          "name": "learner",
          "type": "address"
        },
        {
          "indexed": false,
          "internalType": "uint256",
          "name": "quizId",
          "type": "uint256"
        },
        {
          "indexed": false,
          "internalType": "uint256",
          "name": "score",
          "type": "uint256"
        }
      ],
      "name": "QuizSubmitted",
      "type": "event"
    },
    {
      "anonymous": false,
      "inputs": [
        {
          "indexed": true,
          "internalType": "address",
          "name": "reviewer",
          "type": "address"
        }
      ],
      "name": "ReviewerAddedToPool",
      "type": "event"
    },
    {
      "anonymous": false,
      "inputs": [
        {
          "indexed": true,
          "internalType": "address",
          "name": "reviewer",
          "type": "address"
        }
      ],
      "name": "ReviewerRemovedFromPool",
      "type": "event"
    },
    {
      "anonymous": false,
      "inputs": [
        {
          "indexed": true,
          "internalType": "uint256",
          "name": "courseId",
          "type": "uint256"
        },
        {
          "indexed": false,
          "internalType": "address[]",
          "name": "reviewers",
          "type": "address[]"
        }
      ],
      "name": "ReviewersSelected",
      "type": "event"
    },
    {
      "anonymous": false,
      "inputs": [
        {
          "indexed": true,
          "internalType": "bytes32",
          "name": "role",
          "type": "bytes32"
        },
        {
          "indexed": true,
          "internalType": "bytes32",
          "name": "previousAdminRole",
          "type": "bytes32"
        },
        {
          "indexed": true,
          "internalType": "bytes32",
          "name": "newAdminRole",
          "type": "bytes32"
        }
      ],
      "name": "RoleAdminChanged",
      "type": "event"
    },
    {
      "anonymous": false,
      "inputs": [
        {
          "indexed": true,
          "internalType": "bytes32",
          "name": "role",
          "type": "bytes32"
        },
        {
          "indexed": true,
          "internalType": "address",
          "name": "account",
          "type": "address"
        },
        {
          "indexed": true,
          "internalType": "address",
          "name": "sender",
          "type": "address"
        }
      ],
      "name": "RoleGranted",
      "type": "event"
    },
    {
      "anonymous": false,
      "inputs": [
        {
          "indexed": true,
          "internalType": "bytes32",
          "name": "role",
          "type": "bytes32"
        },
        {
          "indexed": true,
          "internalType": "address",
          "name": "account",
          "type": "address"
        },
        {
          "indexed": true,
          "internalType": "address",
          "name": "sender",
          "type": "address"
        }
      ],
      "name": "RoleRevoked",
      "type": "event"
    },
    {
      "anonymous": false,
      "inputs": [
        {
          "indexed": true,
          "internalType": "address",
          "name": "from",
          "type": "address"
        },
        {
          "indexed": true,
          "internalType": "address",
          "name": "to",
          "type": "address"
        },
        {
          "indexed": false,
          "internalType": "uint256",
          "name": "value",
          "type": "uint256"
        }
      ],
      "name": "Transfer",
      "type": "event"
    },
    {
      "inputs": [],
      "name": "COURSE_COMPLETION_REWARD",
      "outputs": [
        {
          "internalType": "uint256",
          "name": "",
          "type": "uint256"
        }
      ],
      "stateMutability": "view",
      "type": "function"
    },
    {
      "inputs": [],
      "name": "COURSE_OWNER_ROLE",
      "outputs": [
        {
          "internalType": "bytes32",
          "name": "",
          "type": "bytes32"
        }
      ],
      "stateMutability": "view",
      "type": "function"
    },
    {
      "inputs": [],
      "name": "CREATE_COURSE_REWARD",
      "outputs": [
        {
          "internalType": "uint256",
          "name": "",
          "type": "uint256"
        }
      ],
      "stateMutability": "view",
      "type": "function"
    },
    {
      "inputs": [],
      "name": "DEFAULT_ADMIN_ROLE",
      "outputs": [
        {
          "internalType": "bytes32",
          "name": "",
          "type": "bytes32"
        }
      ],
      "stateMutability": "view",
      "type": "function"
    },
    {
      "inputs": [],
      "name": "ECOSYSTEM_POOL",
      "outputs": [
        {
          "internalType": "uint256",
          "name": "",
          "type": "uint256"
        }
      ],
      "stateMutability": "view",
      "type": "function"
    },
    {
      "inputs": [],
      "name": "ENROLLMENT_REWARD",
      "outputs": [
        {
          "internalType": "uint256",
          "name": "",
          "type": "uint256"
        }
      ],
      "stateMutability": "view",
      "type": "function"
    },
    {
      "inputs": [],
      "name": "MAX_SCORE",
      "outputs": [
        {
          "internalType": "uint256",
          "name": "",
          "type": "uint256"
        }
      ],
      "stateMutability": "view",
      "type": "function"
    },
    {
      "inputs": [],
      "name": "MAX_SUPPLY",
      "outputs": [
        {
          "internalType": "uint256",
          "name": "",
          "type": "uint256"
        }
      ],
      "stateMutability": "view",
      "type": "function"
    },
    {
      "inputs": [],
      "name": "MIN_APPROVAL_SCORE",
      "outputs": [
        {
          "internalType": "uint256",
          "name": "",
          "type": "uint256"
        }
      ],
      "stateMutability": "view",
      "type": "function"
    },
    {
      "inputs": [],
      "name": "MULTISIG_APPROVER",
      "outputs": [
        {
          "internalType": "bytes32",
          "name": "",
          "type": "bytes32"
        }
      ],
      "stateMutability": "view",
      "type": "function"
    },
    {
      "inputs": [],
      "name": "QUIZ_COMPLETION_REWARD",
      "outputs": [
        {
          "internalType": "uint256",
          "name": "",
          "type": "uint256"
        }
      ],
      "stateMutability": "view",
      "type": "function"
    },
    {
      "inputs": [],
      "name": "REQUIRED_APPROVALS",
      "outputs": [
        {
          "internalType": "uint256",
          "name": "",
          "type": "uint256"
        }
      ],
      "stateMutability": "view",
      "type": "function"
    },
    {
      "inputs": [],
      "name": "REVIEWER_ROLE",
      "outputs": [
        {
          "internalType": "bytes32",
          "name": "",
          "type": "bytes32"
        }
      ],
      "stateMutability": "view",
      "type": "function"
    },
    {
      "inputs": [
        {
          "internalType": "address",
          "name": "",
          "type": "address"
        }
      ],
      "name": "accountCourses",
      "outputs": [
        {
          "internalType": "uint256",
          "name": "courseCount",
          "type": "uint256"
        }
      ],
      "stateMutability": "view",
      "type": "function"
    },
    {
      "inputs": [
        {
          "internalType": "address",
          "name": "newReviewer",
          "type": "address"
        }
      ],
      "name": "addReviewer",
      "outputs": [],
      "stateMutability": "nonpayable",
      "type": "function"
    },
    {
      "inputs": [
        {
          "internalType": "address",
          "name": "owner",
          "type": "address"
        },
        {
          "internalType": "address",
          "name": "spender",
          "type": "address"
        }
      ],
      "name": "allowance",
      "outputs": [
        {
          "internalType": "uint256",
          "name": "",
          "type": "uint256"
        }
      ],
      "stateMutability": "view",
      "type": "function"
    },
    {
      "inputs": [
        {
          "internalType": "address",
          "name": "",
          "type": "address"
        },
        {
          "internalType": "uint256",
          "name": "",
          "type": "uint256"
        }
      ],
      "name": "approvals",
      "outputs": [
        {
          "internalType": "bool",
          "name": "",
          "type": "bool"
        }
      ],
      "stateMutability": "view",
      "type": "function"
    },
    {
      "inputs": [
        {
          "internalType": "address",
          "name": "spender",
          "type": "address"
        },
        {
          "internalType": "uint256",
          "name": "value",
          "type": "uint256"
        }
      ],
      "name": "approve",
      "outputs": [
        {
          "internalType": "bool",
          "name": "",
          "type": "bool"
        }
      ],
      "stateMutability": "nonpayable",
      "type": "function"
    },
    {
      "inputs": [
        {
          "internalType": "uint256",
          "name": "_courseId",
          "type": "uint256"
        }
      ],
      "name": "approveCourse",
      "outputs": [],
      "stateMutability": "nonpayable",
      "type": "function"
    },
    {
      "inputs": [
        {
          "internalType": "uint256",
          "name": "_proposalId",
          "type": "uint256"
        }
      ],
      "name": "approveMultiSigProposal",
      "outputs": [],
      "stateMutability": "nonpayable",
      "type": "function"
    },
    {
      "inputs": [
        {
          "internalType": "address",
          "name": "account",
          "type": "address"
        }
      ],
      "name": "balanceOf",
      "outputs": [
        {
          "internalType": "uint256",
          "name": "",
          "type": "uint256"
        }
      ],
      "stateMutability": "view",
      "type": "function"
    },
    {
      "inputs": [
        {
          "internalType": "uint256",
          "name": "",
          "type": "uint256"
        }
      ],
      "name": "certificates",
      "outputs": [
        {
          "internalType": "uint256",
          "name": "certId",
          "type": "uint256"
        },
        {
          "internalType": "uint256",
          "name": "courseId",
          "type": "uint256"
        },
        {
          "internalType": "string",
          "name": "learner",
          "type": "string"
        },
        {
          "internalType": "string",
          "name": "cert_issuer",
          "type": "string"
        },
        {
          "internalType": "uint256",
          "name": "issue_date",
          "type": "uint256"
        },
        {
          "internalType": "string",
          "name": "courseName",
          "type": "string"
        },
        {
          "internalType": "address",
          "name": "owner",
          "type": "address"
        }
      ],
      "stateMutability": "view",
      "type": "function"
    },
    {
      "inputs": [
        {
          "internalType": "uint256",
          "name": "",
          "type": "uint256"
        }
      ],
      "name": "chapter",
      "outputs": [
        {
          "internalType": "uint256",
          "name": "chapterId",
          "type": "uint256"
        },
        {
          "internalType": "string",
          "name": "chapterName",
          "type": "string"
        },
        {
          "internalType": "bool",
          "name": "exists",
          "type": "bool"
        }
      ],
      "stateMutability": "view",
      "type": "function"
    },
    {
      "inputs": [
        {
          "internalType": "uint256",
          "name": "",
          "type": "uint256"
        },
        {
          "internalType": "uint256",
          "name": "",
          "type": "uint256"
        }
      ],
      "name": "chapterLessons",
      "outputs": [
        {
          "internalType": "string",
          "name": "",
          "type": "string"
        }
      ],
      "stateMutability": "view",
      "type": "function"
    },
    {
      "inputs": [
        {
          "internalType": "uint256",
          "name": "",
          "type": "uint256"
        },
        {
          "internalType": "address",
          "name": "",
          "type": "address"
        }
      ],
      "name": "completedQuizzes",
      "outputs": [
        {
          "internalType": "bool",
          "name": "",
          "type": "bool"
        }
      ],
      "stateMutability": "view",
      "type": "function"
    },
    {
      "inputs": [
        {
          "internalType": "uint256",
          "name": "",
          "type": "uint256"
        },
        {
          "internalType": "uint256",
          "name": "",
          "type": "uint256"
        }
      ],
      "name": "courseChapters",
      "outputs": [
        {
          "internalType": "uint256",
          "name": "chapterId",
          "type": "uint256"
        },
        {
          "internalType": "string",
          "name": "chapterName",
          "type": "string"
        },
        {
          "internalType": "bool",
          "name": "exists",
          "type": "bool"
        }
      ],
      "stateMutability": "view",
      "type": "function"
    },
    {
      "inputs": [
        {
          "internalType": "uint256",
          "name": "",
          "type": "uint256"
        },
        {
          "internalType": "address",
          "name": "",
          "type": "address"
        }
      ],
      "name": "courseCompleted",
      "outputs": [
        {
          "internalType": "bool",
          "name": "",
          "type": "bool"
        }
      ],
      "stateMutability": "view",
      "type": "function"
    },
    {
      "inputs": [],
      "name": "courseCount",
      "outputs": [
        {
          "internalType": "uint256",
          "name": "",
          "type": "uint256"
        }
      ],
      "stateMutability": "view",
      "type": "function"
    },
    {
      "inputs": [
        {
          "internalType": "uint256",
          "name": "",
          "type": "uint256"
        }
      ],
      "name": "courseObject",
      "outputs": [
        {
          "internalType": "uint256",
          "name": "courseId",
          "type": "uint256"
        },
        {
          "internalType": "string",
          "name": "courseName",
          "type": "string"
        },
        {
          "internalType": "string",
          "name": "description",
          "type": "string"
        },
        {
          "internalType": "bool",
          "name": "approved",
          "type": "bool"
        },
        {
          "internalType": "uint256",
          "name": "approvalCount",
          "type": "uint256"
        },
        {
          "internalType": "address",
          "name": "creator",
          "type": "address"
        }
      ],
      "stateMutability": "view",
      "type": "function"
    },
    {
      "inputs": [
        {
          "internalType": "uint256",
          "name": "",
          "type": "uint256"
        }
      ],
      "name": "courseReviewInitiated",
      "outputs": [
        {
          "internalType": "bool",
          "name": "",
          "type": "bool"
        }
      ],
      "stateMutability": "view",
      "type": "function"
    },
    {
      "inputs": [
        {
          "internalType": "uint256",
          "name": "",
          "type": "uint256"
        },
        {
          "internalType": "uint256",
          "name": "",
          "type": "uint256"
        }
      ],
      "name": "courseReviewers",
      "outputs": [
        {
          "internalType": "address",
          "name": "",
          "type": "address"
        }
      ],
      "stateMutability": "view",
      "type": "function"
    },
    {
      "inputs": [
        {
          "internalType": "string",
          "name": "_courseName",
          "type": "string"
        },
        {
          "internalType": "string",
          "name": "_description",
          "type": "string"
        }
      ],
      "name": "createCourse",
      "outputs": [
        {
          "internalType": "bool",
          "name": "",
          "type": "bool"
        }
      ],
      "stateMutability": "nonpayable",
      "type": "function"
    },
    {
      "inputs": [],
      "name": "decimals",
      "outputs": [
        {
          "internalType": "uint8",
          "name": "",
          "type": "uint8"
        }
      ],
      "stateMutability": "view",
      "type": "function"
    },
    {
      "inputs": [
        {
          "internalType": "uint256",
          "name": "_courseId",
          "type": "uint256"
        },
        {
          "internalType": "uint256",
          "name": "_chapterId",
          "type": "uint256"
        }
      ],
      "name": "deleteChapter",
      "outputs": [
        {
          "internalType": "bool",
          "name": "",
          "type": "bool"
        }
      ],
      "stateMutability": "nonpayable",
      "type": "function"
    },
    {
      "inputs": [
        {
          "internalType": "uint256",
          "name": "_courseId",
          "type": "uint256"
        }
      ],
      "name": "deleteCourse",
      "outputs": [
        {
          "internalType": "bool",
          "name": "",
          "type": "bool"
        }
      ],
      "stateMutability": "nonpayable",
      "type": "function"
    },
    {
      "inputs": [
        {
          "internalType": "uint256",
          "name": "_chapterId",
          "type": "uint256"
        },
        {
          "internalType": "uint256",
          "name": "_lessonId",
          "type": "uint256"
        }
      ],
      "name": "deleteLesson",
      "outputs": [
        {
          "internalType": "bool",
          "name": "",
          "type": "bool"
        }
      ],
      "stateMutability": "nonpayable",
      "type": "function"
    },
    {
      "inputs": [
        {
          "internalType": "uint256",
          "name": "_quizId",
          "type": "uint256"
        },
        {
          "internalType": "uint256",
          "name": "_questionId",
          "type": "uint256"
        }
      ],
      "name": "deleteQuestion",
      "outputs": [
        {
          "internalType": "bool",
          "name": "",
          "type": "bool"
        }
      ],
      "stateMutability": "nonpayable",
      "type": "function"
    },
    {
      "inputs": [
        {
          "internalType": "uint256",
          "name": "_lessonId",
          "type": "uint256"
        },
        {
          "internalType": "uint256",
          "name": "_quizId",
          "type": "uint256"
        }
      ],
      "name": "deleteQuiz",
      "outputs": [
        {
          "internalType": "bool",
          "name": "",
          "type": "bool"
        }
      ],
      "stateMutability": "nonpayable",
      "type": "function"
    },
    {
      "inputs": [],
      "name": "ecosystemPoolSupply",
      "outputs": [
        {
          "internalType": "uint256",
          "name": "",
          "type": "uint256"
        }
      ],
      "stateMutability": "view",
      "type": "function"
    },
    {
      "inputs": [
        {
          "internalType": "uint256",
          "name": "_courseId",
          "type": "uint256"
        },
        {
          "internalType": "uint256",
          "name": "_chapterId",
          "type": "uint256"
        },
        {
          "internalType": "string",
          "name": "_chapterName",
          "type": "string"
        }
      ],
      "name": "editChapter",
      "outputs": [
        {
          "internalType": "bool",
          "name": "",
          "type": "bool"
        }
      ],
      "stateMutability": "nonpayable",
      "type": "function"
    },
    {
      "inputs": [
        {
          "internalType": "uint256",
          "name": "_courseId",
          "type": "uint256"
        },
        {
          "internalType": "string",
          "name": "_courseName",
          "type": "string"
        }
      ],
      "name": "editCourse",
      "outputs": [
        {
          "internalType": "bool",
          "name": "",
          "type": "bool"
        }
      ],
      "stateMutability": "nonpayable",
      "type": "function"
    },
    {
      "inputs": [
        {
          "internalType": "uint256",
          "name": "_lessonId",
          "type": "uint256"
        },
        {
          "internalType": "string",
          "name": "_lessonName",
          "type": "string"
        },
        {
          "internalType": "string",
          "name": "_lessonContent",
          "type": "string"
        },
        {
          "components": [
            {
              "internalType": "string",
              "name": "contentType",
              "type": "string"
            },
            {
              "internalType": "string",
              "name": "url",
              "type": "string"
            },
            {
              "internalType": "string",
              "name": "description",
              "type": "string"
            }
          ],
          "internalType": "struct Ecosystem.Resource[]",
          "name": "_additionalResources",
          "type": "tuple[]"
        }
      ],
      "name": "editLesson",
      "outputs": [
        {
          "internalType": "bool",
          "name": "",
          "type": "bool"
        }
      ],
      "stateMutability": "nonpayable",
      "type": "function"
    },
    {
      "inputs": [
        {
          "internalType": "uint256",
          "name": "_lessonId",
          "type": "uint256"
        },
        {
          "internalType": "uint256",
          "name": "_quizId",
          "type": "uint256"
        },
        {
          "internalType": "string",
          "name": "_quizTitle",
          "type": "string"
        }
      ],
      "name": "editQuiz",
      "outputs": [],
      "stateMutability": "nonpayable",
      "type": "function"
    },
    {
      "inputs": [],
      "name": "getAllCourses",
      "outputs": [
        {
          "components": [
            {
              "internalType": "uint256",
              "name": "courseId",
              "type": "uint256"
            },
            {
              "internalType": "string",
              "name": "courseName",
              "type": "string"
            },
            {
              "internalType": "string",
              "name": "description",
              "type": "string"
            },
            {
              "internalType": "bool",
              "name": "approved",
              "type": "bool"
            },
            {
              "internalType": "uint256",
              "name": "approvalCount",
              "type": "uint256"
            },
            {
              "internalType": "address",
              "name": "creator",
              "type": "address"
            }
          ],
          "internalType": "struct Ecosystem.Course[]",
          "name": "",
          "type": "tuple[]"
        }
      ],
      "stateMutability": "view",
      "type": "function"
    },
    {
      "inputs": [
        {
          "internalType": "uint256",
          "name": "courseId",
          "type": "uint256"
        }
      ],
      "name": "getCourseReviewers",
      "outputs": [
        {
          "internalType": "address[]",
          "name": "",
          "type": "address[]"
        }
      ],
      "stateMutability": "view",
      "type": "function"
    },
    {
      "inputs": [],
      "name": "getCurrentEcosystemPoolSupply",
      "outputs": [
        {
          "internalType": "uint256",
          "name": "",
          "type": "uint256"
        }
      ],
      "stateMutability": "view",
      "type": "function"
    },
    {
      "inputs": [
        {
          "internalType": "bytes32",
          "name": "role",
          "type": "bytes32"
        }
      ],
      "name": "getRoleAdmin",
      "outputs": [
        {
          "internalType": "bytes32",
          "name": "",
          "type": "bytes32"
        }
      ],
      "stateMutability": "view",
      "type": "function"
    },
    {
      "inputs": [
        {
          "internalType": "bytes32",
          "name": "role",
          "type": "bytes32"
        },
        {
          "internalType": "address",
          "name": "account",
          "type": "address"
        }
      ],
      "name": "grantRole",
      "outputs": [],
      "stateMutability": "nonpayable",
      "type": "function"
    },
    {
      "inputs": [
        {
          "internalType": "bytes32",
          "name": "role",
          "type": "bytes32"
        },
        {
          "internalType": "address",
          "name": "account",
          "type": "address"
        }
      ],
      "name": "hasRole",
      "outputs": [
        {
          "internalType": "bool",
          "name": "",
          "type": "bool"
        }
      ],
      "stateMutability": "view",
      "type": "function"
    },
    {
      "inputs": [
        {
          "internalType": "uint256",
          "name": "",
          "type": "uint256"
        },
        {
          "internalType": "address",
          "name": "",
          "type": "address"
        }
      ],
      "name": "isEnrolled",
      "outputs": [
        {
          "internalType": "bool",
          "name": "",
          "type": "bool"
        }
      ],
      "stateMutability": "view",
      "type": "function"
    },
    {
      "inputs": [
        {
          "internalType": "address",
          "name": "",
          "type": "address"
        }
      ],
      "name": "isInReviewerPool",
      "outputs": [
        {
          "internalType": "bool",
          "name": "",
          "type": "bool"
        }
      ],
      "stateMutability": "view",
      "type": "function"
    },
    {
      "inputs": [
        {
          "internalType": "address",
          "name": "account",
          "type": "address"
        }
      ],
      "name": "isReviewer",
      "outputs": [
        {
          "internalType": "bool",
          "name": "",
          "type": "bool"
        }
      ],
      "stateMutability": "view",
      "type": "function"
    },
    {
      "inputs": [
        {
          "internalType": "uint256",
          "name": "_courseId",
          "type": "uint256"
        },
        {
          "internalType": "string",
          "name": "learner",
          "type": "string"
        },
        {
          "internalType": "string",
          "name": "courseName",
          "type": "string"
        },
        {
          "internalType": "string",
          "name": "cert_issuer",
          "type": "string"
        },
        {
          "internalType": "uint256",
          "name": "issue_date",
          "type": "uint256"
        }
      ],
      "name": "issueCertificate",
      "outputs": [
        {
          "internalType": "uint256",
          "name": "",
          "type": "uint256"
        },
        {
          "components": [
            {
              "internalType": "uint256",
              "name": "certId",
              "type": "uint256"
            },
            {
              "internalType": "uint256",
              "name": "courseId",
              "type": "uint256"
            },
            {
              "internalType": "string",
              "name": "learner",
              "type": "string"
            },
            {
              "internalType": "string",
              "name": "cert_issuer",
              "type": "string"
            },
            {
              "internalType": "uint256",
              "name": "issue_date",
              "type": "uint256"
            },
            {
              "internalType": "string",
              "name": "courseName",
              "type": "string"
            },
            {
              "internalType": "address",
              "name": "owner",
              "type": "address"
            }
          ],
          "internalType": "struct Ecosystem3.Certificate",
          "name": "",
          "type": "tuple"
        }
      ],
      "stateMutability": "nonpayable",
      "type": "function"
    },
    {
      "inputs": [
        {
          "internalType": "uint256",
          "name": "",
          "type": "uint256"
        }
      ],
      "name": "lesson",
      "outputs": [
        {
          "internalType": "uint256",
          "name": "lessonId",
          "type": "uint256"
        },
        {
          "internalType": "string",
          "name": "lessonName",
          "type": "string"
        },
        {
          "internalType": "string",
          "name": "lessonContent",
          "type": "string"
        },
        {
          "internalType": "uint256",
          "name": "resourceCount",
          "type": "uint256"
        },
        {
          "internalType": "bool",
          "name": "exists",
          "type": "bool"
        }
      ],
      "stateMutability": "view",
      "type": "function"
    },
    {
      "inputs": [
        {
          "internalType": "uint256",
          "name": "",
          "type": "uint256"
        },
        {
          "internalType": "address",
          "name": "",
          "type": "address"
        }
      ],
      "name": "lessonRead",
      "outputs": [
        {
          "internalType": "bool",
          "name": "",
          "type": "bool"
        }
      ],
      "stateMutability": "view",
      "type": "function"
    },
    {
      "inputs": [
        {
          "internalType": "uint256",
          "name": "",
          "type": "uint256"
        }
      ],
      "name": "listOfChapters",
      "outputs": [
        {
          "internalType": "uint256",
          "name": "chapterId",
          "type": "uint256"
        },
        {
          "internalType": "string",
          "name": "chapterName",
          "type": "string"
        },
        {
          "internalType": "bool",
          "name": "exists",
          "type": "bool"
        }
      ],
      "stateMutability": "view",
      "type": "function"
    },
    {
      "inputs": [
        {
          "internalType": "uint256",
          "name": "",
          "type": "uint256"
        }
      ],
      "name": "listOfCourses",
      "outputs": [
        {
          "internalType": "uint256",
          "name": "courseId",
          "type": "uint256"
        },
        {
          "internalType": "string",
          "name": "courseName",
          "type": "string"
        },
        {
          "internalType": "string",
          "name": "description",
          "type": "string"
        },
        {
          "internalType": "bool",
          "name": "approved",
          "type": "bool"
        },
        {
          "internalType": "uint256",
          "name": "approvalCount",
          "type": "uint256"
        },
        {
          "internalType": "address",
          "name": "creator",
          "type": "address"
        }
      ],
      "stateMutability": "view",
      "type": "function"
    },
    {
      "inputs": [
        {
          "internalType": "uint256",
          "name": "",
          "type": "uint256"
        }
      ],
      "name": "listOfLessons",
      "outputs": [
        {
          "internalType": "uint256",
          "name": "lessonId",
          "type": "uint256"
        },
        {
          "internalType": "string",
          "name": "lessonName",
          "type": "string"
        },
        {
          "internalType": "string",
          "name": "lessonContent",
          "type": "string"
        },
        {
          "internalType": "uint256",
          "name": "resourceCount",
          "type": "uint256"
        },
        {
          "internalType": "bool",
          "name": "exists",
          "type": "bool"
        }
      ],
      "stateMutability": "view",
      "type": "function"
    },
    {
      "inputs": [
        {
          "internalType": "uint256",
          "name": "",
          "type": "uint256"
        }
      ],
      "name": "listOfQuestions",
      "outputs": [
        {
          "internalType": "uint256",
          "name": "questionId",
          "type": "uint256"
        },
        {
          "internalType": "string",
          "name": "questionText",
          "type": "string"
        }
      ],
      "stateMutability": "view",
      "type": "function"
    },
    {
      "inputs": [
        {
          "internalType": "uint256",
          "name": "",
          "type": "uint256"
        }
      ],
      "name": "listOfQuizzes",
      "outputs": [
        {
          "internalType": "uint256",
          "name": "quizId",
          "type": "uint256"
        },
        {
          "internalType": "string",
          "name": "quizTitle",
          "type": "string"
        },
        {
          "internalType": "bool",
          "name": "exists",
          "type": "bool"
        }
      ],
      "stateMutability": "view",
      "type": "function"
    },
    {
      "inputs": [
        {
          "internalType": "uint256",
          "name": "",
          "type": "uint256"
        }
      ],
      "name": "listOfResource",
      "outputs": [
        {
          "internalType": "string",
          "name": "contentType",
          "type": "string"
        },
        {
          "internalType": "string",
          "name": "url",
          "type": "string"
        },
        {
          "internalType": "string",
          "name": "description",
          "type": "string"
        }
      ],
      "stateMutability": "view",
      "type": "function"
    },
    {
      "inputs": [
        {
          "internalType": "uint256",
          "name": "_chapterId",
          "type": "uint256"
        },
        {
          "internalType": "uint256",
          "name": "_lessonId",
          "type": "uint256"
        }
      ],
      "name": "markAsRead",
      "outputs": [
        {
          "internalType": "bool",
          "name": "",
          "type": "bool"
        }
      ],
      "stateMutability": "nonpayable",
      "type": "function"
    },
    {
      "inputs": [
        {
          "internalType": "uint256",
          "name": "",
          "type": "uint256"
        }
      ],
      "name": "multiSigProposals",
      "outputs": [
        {
          "internalType": "uint256",
          "name": "id",
          "type": "uint256"
        },
        {
          "internalType": "address",
          "name": "proposer",
          "type": "address"
        },
        {
          "internalType": "address",
          "name": "targetContract",
          "type": "address"
        },
        {
          "internalType": "bytes",
          "name": "data",
          "type": "bytes"
        },
        {
          "internalType": "uint256",
          "name": "approvalCount",
          "type": "uint256"
        },
        {
          "internalType": "bool",
          "name": "executed",
          "type": "bool"
        }
      ],
      "stateMutability": "view",
      "type": "function"
    },
    {
      "inputs": [],
      "name": "name",
      "outputs": [
        {
          "internalType": "string",
          "name": "",
          "type": "string"
        }
      ],
      "stateMutability": "view",
      "type": "function"
    },
    {
      "inputs": [],
      "name": "nextChapterId",
      "outputs": [
        {
          "internalType": "uint256",
          "name": "",
          "type": "uint256"
        }
      ],
      "stateMutability": "view",
      "type": "function"
    },
    {
      "inputs": [],
      "name": "nextChoiceId",
      "outputs": [
        {
          "internalType": "uint256",
          "name": "",
          "type": "uint256"
        }
      ],
      "stateMutability": "view",
      "type": "function"
    },
    {
      "inputs": [],
      "name": "nextCourseId",
      "outputs": [
        {
          "internalType": "uint256",
          "name": "",
          "type": "uint256"
        }
      ],
      "stateMutability": "view",
      "type": "function"
    },
    {
      "inputs": [],
      "name": "nextCourseIdd",
      "outputs": [
        {
          "internalType": "uint256",
          "name": "",
          "type": "uint256"
        }
      ],
      "stateMutability": "view",
      "type": "function"
    },
    {
      "inputs": [],
      "name": "nextLessonId",
      "outputs": [
        {
          "internalType": "uint256",
          "name": "",
          "type": "uint256"
        }
      ],
      "stateMutability": "view",
      "type": "function"
    },
    {
      "inputs": [],
      "name": "nextQuestionId",
      "outputs": [
        {
          "internalType": "uint256",
          "name": "",
          "type": "uint256"
        }
      ],
      "stateMutability": "view",
      "type": "function"
    },
    {
      "inputs": [],
      "name": "nextQuizId",
      "outputs": [
        {
          "internalType": "uint256",
          "name": "",
          "type": "uint256"
        }
      ],
      "stateMutability": "view",
      "type": "function"
    },
    {
      "inputs": [
        {
          "internalType": "uint256",
          "name": "",
          "type": "uint256"
        }
      ],
      "name": "questions",
      "outputs": [
        {
          "internalType": "uint256",
          "name": "questionId",
          "type": "uint256"
        },
        {
          "internalType": "string",
          "name": "questionText",
          "type": "string"
        }
      ],
      "stateMutability": "view",
      "type": "function"
    },
    {
      "inputs": [
        {
          "internalType": "uint256",
          "name": "",
          "type": "uint256"
        }
      ],
      "name": "quizzes",
      "outputs": [
        {
          "internalType": "uint256",
          "name": "quizId",
          "type": "uint256"
        },
        {
          "internalType": "string",
          "name": "quizTitle",
          "type": "string"
        },
        {
          "internalType": "bool",
          "name": "exists",
          "type": "bool"
        }
      ],
      "stateMutability": "view",
      "type": "function"
    },
    {
      "inputs": [
        {
          "internalType": "address",
          "name": "reviewer",
          "type": "address"
        }
      ],
      "name": "removeReviewer",
      "outputs": [],
      "stateMutability": "nonpayable",
      "type": "function"
    },
    {
      "inputs": [
        {
          "internalType": "bytes32",
          "name": "role",
          "type": "bytes32"
        },
        {
          "internalType": "address",
          "name": "callerConfirmation",
          "type": "address"
        }
      ],
      "name": "renounceRole",
      "outputs": [],
      "stateMutability": "nonpayable",
      "type": "function"
    },
    {
      "inputs": [
        {
          "internalType": "uint256",
          "name": "",
          "type": "uint256"
        }
      ],
      "name": "reviewerPool",
      "outputs": [
        {
          "internalType": "address",
          "name": "",
          "type": "address"
        }
      ],
      "stateMutability": "view",
      "type": "function"
    },
    {
      "inputs": [
        {
          "internalType": "uint256",
          "name": "",
          "type": "uint256"
        },
        {
          "internalType": "address",
          "name": "",
          "type": "address"
        }
      ],
      "name": "reviews",
      "outputs": [
        {
          "internalType": "uint256",
          "name": "learnerAgency",
          "type": "uint256"
        },
        {
          "internalType": "uint256",
          "name": "criticalThinking",
          "type": "uint256"
        },
        {
          "internalType": "uint256",
          "name": "collaborativeLearning",
          "type": "uint256"
        },
        {
          "internalType": "uint256",
          "name": "reflectivePractice",
          "type": "uint256"
        },
        {
          "internalType": "uint256",
          "name": "adaptiveLearning",
          "type": "uint256"
        },
        {
          "internalType": "uint256",
          "name": "authenticLearning",
          "type": "uint256"
        },
        {
          "internalType": "uint256",
          "name": "technologyIntegration",
          "type": "uint256"
        },
        {
          "internalType": "uint256",
          "name": "learnerSupport",
          "type": "uint256"
        },
        {
          "internalType": "uint256",
          "name": "assessmentForLearning",
          "type": "uint256"
        },
        {
          "internalType": "uint256",
          "name": "engagementAndMotivation",
          "type": "uint256"
        },
        {
          "internalType": "bool",
          "name": "isSubmitted",
          "type": "bool"
        }
      ],
      "stateMutability": "view",
      "type": "function"
    },
    {
      "inputs": [
        {
          "internalType": "bytes32",
          "name": "role",
          "type": "bytes32"
        },
        {
          "internalType": "address",
          "name": "account",
          "type": "address"
        }
      ],
      "name": "revokeRole",
      "outputs": [],
      "stateMutability": "nonpayable",
      "type": "function"
    },
    {
      "inputs": [
        {
          "internalType": "uint256",
          "name": "courseId",
          "type": "uint256"
        }
      ],
      "name": "selectCourseReviewers",
      "outputs": [],
      "stateMutability": "nonpayable",
      "type": "function"
    },
    {
      "inputs": [
        {
          "internalType": "uint256",
          "name": "_quizId",
          "type": "uint256"
        },
        {
          "internalType": "uint256[]",
          "name": "_answers",
          "type": "uint256[]"
        }
      ],
      "name": "submitQuiz",
      "outputs": [
        {
          "internalType": "uint256",
          "name": "score",
          "type": "uint256"
        }
      ],
      "stateMutability": "nonpayable",
      "type": "function"
    },
    {
      "inputs": [
        {
          "internalType": "uint256",
          "name": "courseId",
          "type": "uint256"
        },
        {
          "internalType": "uint256",
          "name": "learnerAgency",
          "type": "uint256"
        },
        {
          "internalType": "uint256",
          "name": "criticalThinking",
          "type": "uint256"
        },
        {
          "internalType": "uint256",
          "name": "collaborativeLearning",
          "type": "uint256"
        },
        {
          "internalType": "uint256",
          "name": "reflectivePractice",
          "type": "uint256"
        },
        {
          "internalType": "uint256",
          "name": "adaptiveLearning",
          "type": "uint256"
        },
        {
          "internalType": "uint256",
          "name": "authenticLearning",
          "type": "uint256"
        },
        {
          "internalType": "uint256",
          "name": "technologyIntegration",
          "type": "uint256"
        },
        {
          "internalType": "uint256",
          "name": "learnerSupport",
          "type": "uint256"
        },
        {
          "internalType": "uint256",
          "name": "assessmentForLearning",
          "type": "uint256"
        },
        {
          "internalType": "uint256",
          "name": "engagementAndMotivation",
          "type": "uint256"
        }
      ],
      "name": "submitReview",
      "outputs": [],
      "stateMutability": "nonpayable",
      "type": "function"
    },
    {
      "inputs": [
        {
          "internalType": "bytes4",
          "name": "interfaceId",
          "type": "bytes4"
        }
      ],
      "name": "supportsInterface",
      "outputs": [
        {
          "internalType": "bool",
          "name": "",
          "type": "bool"
        }
      ],
      "stateMutability": "view",
      "type": "function"
    },
    {
      "inputs": [],
      "name": "symbol",
      "outputs": [
        {
          "internalType": "string",
          "name": "",
          "type": "string"
        }
      ],
      "stateMutability": "view",
      "type": "function"
    },
    {
      "inputs": [],
      "name": "totalSupply",
      "outputs": [
        {
          "internalType": "uint256",
          "name": "",
          "type": "uint256"
        }
      ],
      "stateMutability": "view",
      "type": "function"
    },
    {
      "inputs": [
        {
          "internalType": "address",
          "name": "to",
          "type": "address"
        },
        {
          "internalType": "uint256",
          "name": "value",
          "type": "uint256"
        }
      ],
      "name": "transfer",
      "outputs": [
        {
          "internalType": "bool",
          "name": "",
          "type": "bool"
        }
      ],
      "stateMutability": "nonpayable",
      "type": "function"
    },
    {
      "inputs": [
        {
          "internalType": "address",
          "name": "from",
          "type": "address"
        },
        {
          "internalType": "address",
          "name": "to",
          "type": "address"
        },
        {
          "internalType": "uint256",
          "name": "value",
          "type": "uint256"
        }
      ],
      "name": "transferFrom",
      "outputs": [
        {
          "internalType": "bool",
          "name": "",
          "type": "bool"
        }
      ],
      "stateMutability": "nonpayable",
      "type": "function"
    },
    {
      "inputs": [
        {
          "internalType": "address",
          "name": "",
          "type": "address"
        },
        {
          "internalType": "uint256",
          "name": "",
          "type": "uint256"
        }
      ],
      "name": "userScores",
      "outputs": [
        {
          "internalType": "uint256",
          "name": "",
          "type": "uint256"
        }
      ],
      "stateMutability": "view",
      "type": "function"
    }
  ],
  "bytecode": "0x608060405234801561001057600080fd5b5060405161a5ad38038061a5ad8339818101604052810190610032919061063b565b80806040518060400160405280600a81526020017f4142594120544f4b454e000000000000000000000000000000000000000000008152506040518060400160405280600681526020017f414259544b4e000000000000000000000000000000000000000000000000000081525081600390816100af91906108a5565b5080600490816100bf91906108a5565b505050600481511015610107576040517f08c379a00000000000000000000000000000000000000000000000000000000081526004016100fe906109fa565b60405180910390fd5b61011a6000801b336102c060201b60201c565b5061014b7fdf1425bae297c2f52b4f15d18a50b1fc8cb5b981a981b1d213ed3ff92681b64d336102c060201b60201c565b5060005b815181101561029f576101a27fc10c77be35aff266144ed64c26a1fa104bae2f284ae99ac4a34203454704a18583838151811061018f5761018e610a1a565b5b60200260200101516102c060201b60201c565b5060068282815181106101b8576101b7610a1a565b5b60200260200101519080600181540180825580915050600190039060005260206000200160009091909190916101000a81548173ffffffffffffffffffffffffffffffffffffffff021916908373ffffffffffffffffffffffffffffffffffffffff16021790555060016008600084848151811061023957610238610a1a565b5b602002602001015173ffffffffffffffffffffffffffffffffffffffff1673ffffffffffffffffffffffffffffffffffffffff16815260200190815260200160002060006101000a81548160ff021916908315150217905550808060010191505061014f565b50506001600a819055506102b9600b6103be60201b60201c565b5050610a49565b60006102d283836103fd60201b60201c565b6103b35760016005600085815260200190815260200160002060000160008473ffffffffffffffffffffffffffffffffffffffff1673ffffffffffffffffffffffffffffffffffffffff16815260200190815260200160002060006101000a81548160ff02191690831515021790555061035061046860201b60201c565b73ffffffffffffffffffffffffffffffffffffffff168273ffffffffffffffffffffffffffffffffffffffff16847f2f8788117e7eff1d82e926ec794901d17c78024a50270940304540a733656f0d60405160405180910390a4600190506103b8565b600090505b92915050565b60018160000181905550600181600101819055506001816002018190555060018160030181905550600181600401819055506001816005018190555050565b60006005600084815260200190815260200160002060000160008373ffffffffffffffffffffffffffffffffffffffff1673ffffffffffffffffffffffffffffffffffffffff16815260200190815260200160002060009054906101000a900460ff16905092915050565b600033905090565b6000604051905090565b600080fd5b600080fd5b600080fd5b6000601f19601f8301169050919050565b7f4e487b7100000000000000000000000000000000000000000000000000000000600052604160045260246000fd5b6104d282610489565b810181811067ffffffffffffffff821117156104f1576104f061049a565b5b80604052505050565b6000610504610470565b905061051082826104c9565b919050565b600067ffffffffffffffff8211156105305761052f61049a565b5b602082029050602081019050919050565b600080fd5b600073ffffffffffffffffffffffffffffffffffffffff82169050919050565b600061057182610546565b9050919050565b61058181610566565b811461058c57600080fd5b50565b60008151905061059e81610578565b92915050565b60006105b76105b284610515565b6104fa565b905080838252602082019050602084028301858111156105da576105d9610541565b5b835b8181101561060357806105ef888261058f565b8452602084019350506020810190506105dc565b5050509392505050565b600082601f83011261062257610621610484565b5b81516106328482602086016105a4565b91505092915050565b6000602082840312156106515761065061047a565b5b600082015167ffffffffffffffff81111561066f5761066e61047f565b5b61067b8482850161060d565b91505092915050565b600081519050919050565b7f4e487b7100000000000000000000000000000000000000000000000000000000600052602260045260246000fd5b600060028204905060018216806106d657607f821691505b6020821081036106e9576106e861068f565b5b50919050565b60008190508160005260206000209050919050565b60006020601f8301049050919050565b600082821b905092915050565b6000600883026107517fffffffffffffffffffffffffffffffffffffffffffffffffffffffffffffffff82610714565b61075b8683610714565b95508019841693508086168417925050509392505050565b6000819050919050565b6000819050919050565b60006107a261079d61079884610773565b61077d565b610773565b9050919050565b6000819050919050565b6107bc83610787565b6107d06107c8826107a9565b848454610721565b825550505050565b600090565b6107e56107d8565b6107f08184846107b3565b505050565b5b81811015610814576108096000826107dd565b6001810190506107f6565b5050565b601f8211156108595761082a816106ef565b61083384610704565b81016020851015610842578190505b61085661084e85610704565b8301826107f5565b50505b505050565b600082821c905092915050565b600061087c6000198460080261085e565b1980831691505092915050565b6000610895838361086b565b9150826002028217905092915050565b6108ae82610684565b67ffffffffffffffff8111156108c7576108c661049a565b5b6108d182546106be565b6108dc828285610818565b600060209050601f83116001811461090f57600084156108fd578287015190505b6109078582610889565b86555061096f565b601f19841661091d866106ef565b60005b8281101561094557848901518255600182019150602085019450602081019050610920565b86831015610962578489015161095e601f89168261086b565b8355505b6001600288020188555050505b505050505050565b600082825260208201905092915050565b7f4174206c6561737420342072657669657765727320617265207265717569726560008201527f6400000000000000000000000000000000000000000000000000000000000000602082015250565b60006109e4602183610977565b91506109ef82610988565b604082019050919050565b60006020820190508181036000830152610a13816109d7565b9050919050565b7f4e487b7100000000000000000000000000000000000000000000000000000000600052603260045260246000fd5b619b5580610a586000396000f3fe608060405234801561001057600080fd5b50600436106104cd5760003560e01c806373a82b5f11610283578063bfd2f4c51161015c578063dd62ed3e116100ce578063e503f10811610092578063e503f1081461119c578063e8639751146111ba578063ea0978ad146111ea578063eb264b9c1461121a578063fdc6258a14611238578063ffabc67314611268576104cd565b8063dd62ed3e146110bc578063ddfc79fb146110ec578063de5dc3a01461111e578063ded5c18d1461114e578063e09bcae31461116c576104cd565b8063c90c884d11610120578063c90c884d14610fd4578063c9442dac14611006578063c976831514611022578063cc44e73714611052578063d547741f14611082578063d93f2caa1461109e576104cd565b8063bfd2f4c514610ee8578063c12804fb14610f1c578063c293bbbe14610f56578063c491b04c14610f86578063c7954e4c14610fb6576104cd565b80639dad8d22116101f5578063a26a7953116101b9578063a26a795314610dec578063a3ef204114610e1c578063a9059cbb14610e4e578063aa95da3a14610e7e578063ac957c6314610eae578063bad0dd6514610ecc576104cd565b80639dad8d2214610d20578063a1051dfe14610d50578063a14ecbdf14610d80578063a1cd05b114610d9e578063a217fddf14610dce576104cd565b806388409afa1161024757806388409afa14610c3657806388a8270f14610c685780638ea6e2fd14610c9857806391d1485414610cb45780639560bc8514610ce457806395d89b4114610d02576104cd565b806373a82b5f14610ba45780637528499814610bc05780637ce1785214610bdc5780637d83daf214610bfa578063846f815214610c18576104cd565b806332cb6b0c116103b557806351d93c81116103275780635cc2a14d116102eb5780635cc2a14d14610a9d5780636605515914610acd578063663b3e2214610aeb5780636b000fa714610b215780636fdb67f714610b3f57806370a0823114610b74576104cd565b806351d93c81146109e457806352994e2f14610a1557806358a3fa2514610a33578063599c553314610a4f5780635b680a4514610a6d576104cd565b80633693dcfa116103795780633693dcfa146108e05780633b129a56146108fe57806340932bf81461091c5780634d42ef48146109515780634dd84b3c146109835780634fb95abd146109b3576104cd565b806332cb6b0c1461082a57806334b159dd1461084857806334ed4bdb1461087857806334f9b3fb146108a857806336568abe146108c4576104cd565b8063248a9ca31161044e57806329a0be651161041257806329a0be651461073d5780632aac61ae1461075b5780632ec63a0e1461078f5780632f2ff15d146107bf578063313ce567146107db57806331b1b978146107f9576104cd565b8063248a9ca31461066a578063274202f01461069a57806327ff6223146106b8578063295b825a146106d65780632990db7c14610708576104cd565b806311ce15df1161049557806311ce15df1461058c57806313e85811146105bc57806318160ddd146105ec57806319f102ec1461060a57806323b872dd1461063a576104cd565b806301ffc9a7146104d257806304e48bd114610502578063057f46bb1461052057806306fdde031461053e578063095ea7b31461055c575b600080fd5b6104ec60048036038101906104e79190616f3b565b611298565b6040516104f99190616f83565b60405180910390f35b61050a611312565b60405161051791906171e9565b60405180910390f35b610528611614565b604051610535919061721a565b60405180910390f35b61054661161a565b604051610553919061727f565b60405180910390f35b610576600480360381019061057191906172f9565b6116ac565b6040516105839190616f83565b60405180910390f35b6105a660048036038101906105a19190617339565b6116cf565b6040516105b39190616f83565b60405180910390f35b6105d660048036038101906105d19190617366565b6116ef565b6040516105e39190616f83565b60405180910390f35b6105f461171e565b604051610601919061721a565b60405180910390f35b610624600480360381019061061f9190617339565b611728565b60405161063191906173b5565b60405180910390f35b610654600480360381019061064f91906173d0565b611767565b6040516106619190616f83565b60405180910390f35b610684600480360381019061067f9190617459565b611796565b6040516106919190617495565b60405180910390f35b6106a26117b6565b6040516106af919061721a565b60405180910390f35b6106c06117de565b6040516106cd919061721a565b60405180910390f35b6106f060048036038101906106eb9190617339565b6117e3565b6040516106ff939291906174b0565b60405180910390f35b610722600480360381019061071d9190617339565b6118b2565b604051610734969594939291906174ee565b60405180910390f35b610745611a2b565b604051610752919061721a565b60405180910390f35b61077560048036038101906107709190617339565b611a31565b60405161078695949392919061755d565b60405180910390f35b6107a960048036038101906107a491906175be565b611b94565b6040516107b69190616f83565b60405180910390f35b6107d960048036038101906107d491906175fe565b611d39565b005b6107e3611d5b565b6040516107f0919061765a565b60405180910390f35b610813600480360381019061080e9190617339565b611d64565b604051610821929190617675565b60405180910390f35b610832611e10565b60405161083f919061721a565b60405180910390f35b610862600480360381019061085d9190617366565b611e20565b60405161086f9190616f83565b60405180910390f35b610892600480360381019061088d91906176a5565b611e4f565b60405161089f919061721a565b60405180910390f35b6108c260048036038101906108bd9190617807565b611e6d565b005b6108de60048036038101906108d991906175fe565b611fab565b005b6108e8612026565b6040516108f59190617495565b60405180910390f35b61090661204a565b6040516109139190617495565b60405180910390f35b61093660048036038101906109319190617339565b61206e565b604051610948969594939291906178cb565b60405180910390f35b61096b600480360381019061096691906175be565b61217f565b60405161097a939291906174b0565b60405180910390f35b61099d60048036038101906109989190617366565b61225b565b6040516109aa9190616f83565b60405180910390f35b6109cd60048036038101906109c89190617933565b61228a565b6040516109db929190617aac565b60405180910390f35b6109fe60048036038101906109f99190617339565b6125dd565b604051610a0c929190617675565b60405180910390f35b610a1d612699565b604051610a2a9190617495565b60405180910390f35b610a4d6004803603810190610a489190617adc565b6126bd565b005b610a57612983565b604051610a64919061721a565b60405180910390f35b610a876004803603810190610a8291906172f9565b612988565b604051610a94919061721a565b60405180910390f35b610ab76004803603810190610ab29190617bd0565b6129ad565b604051610ac49190616f83565b60405180910390f35b610ad5612a99565b604051610ae2919061721a565b60405180910390f35b610b056004803603810190610b009190617339565b612a9f565b604051610b189796959493929190617c2c565b60405180910390f35b610b29612c99565b604051610b36919061721a565b60405180910390f35b610b596004803603810190610b549190617339565b612c9f565b604051610b6b969594939291906174ee565b60405180910390f35b610b8e6004803603810190610b8991906176a5565b612e28565b604051610b9b919061721a565b60405180910390f35b610bbe6004803603810190610bb991906176a5565b612e70565b005b610bda6004803603810190610bd59190617339565b613054565b005b610be461326e565b604051610bf1919061721a565b60405180910390f35b610c0261327a565b604051610c0f919061721a565b60405180910390f35b610c20613280565b604051610c2d919061721a565b60405180910390f35b610c506004803603810190610c4b9190617339565b61328c565b604051610c5f939291906174b0565b60405180910390f35b610c826004803603810190610c7d91906175be565b61334b565b604051610c8f9190616f83565b60405180910390f35b610cb26004803603810190610cad9190617339565b6135cc565b005b610cce6004803603810190610cc991906175fe565b613936565b604051610cdb9190616f83565b60405180910390f35b610cec6139a1565b604051610cf9919061721a565b60405180910390f35b610d0a6139ad565b604051610d17919061727f565b60405180910390f35b610d3a6004803603810190610d359190617339565b613a3f565b604051610d479190616f83565b60405180910390f35b610d6a6004803603810190610d6591906175be565b613d97565b604051610d779190616f83565b60405180910390f35b610d886140b2565b604051610d95919061721a565b60405180910390f35b610db86004803603810190610db391906175be565b6140b8565b604051610dc591906173b5565b60405180910390f35b610dd6614106565b604051610de39190617495565b60405180910390f35b610e066004803603810190610e019190617cb0565b61410d565b604051610e139190616f83565b60405180910390f35b610e366004803603810190610e319190617339565b6144e4565b604051610e45939291906174b0565b60405180910390f35b610e686004803603810190610e6391906172f9565b6145a3565b604051610e759190616f83565b60405180910390f35b610e986004803603810190610e9391906175be565b6145c6565b604051610ea5919061727f565b60405180910390f35b610eb661467e565b604051610ec3919061721a565b60405180910390f35b610ee66004803603810190610ee19190617339565b614683565b005b610f026004803603810190610efd9190617339565b614982565b604051610f1395949392919061755d565b60405180910390f35b610f366004803603810190610f319190617366565b614ad5565b604051610f4d9b9a99989796959493929190617d28565b60405180910390f35b610f706004803603810190610f6b9190617339565b614b49565b604051610f7d9190617e82565b60405180910390f35b610fa06004803603810190610f9b91906176a5565b614bea565b604051610fad9190616f83565b60405180910390f35b610fbe614c0a565b604051610fcb919061721a565b60405180910390f35b610fee6004803603810190610fe99190617339565b614c14565b604051610ffd939291906174b0565b60405180910390f35b611020600480360381019061101b91906176a5565b614ce3565b005b61103c60048036038101906110379190617366565b614fcd565b6040516110499190616f83565b60405180910390f35b61106c6004803603810190611067919061804c565b614ffc565b6040516110799190616f83565b60405180910390f35b61109c600480360381019061109791906175fe565b615220565b005b6110a6615242565b6040516110b3919061721a565b60405180910390f35b6110d660048036038101906110d19190618107565b61524e565b6040516110e3919061721a565b60405180910390f35b61110660048036038101906111019190617339565b6152d5565b60405161111593929190618147565b60405180910390f35b61113860048036038101906111339190618256565b6154a7565b604051611145919061721a565b60405180910390f35b611156615751565b604051611163919061721a565b60405180910390f35b611186600480360381019061118191906175be565b61575e565b6040516111939190616f83565b60405180910390f35b6111a4615a1e565b6040516111b1919061721a565b60405180910390f35b6111d460048036038101906111cf9190617807565b615a24565b6040516111e19190616f83565b60405180910390f35b61120460048036038101906111ff91906175be565b615b12565b6040516112119190616f83565b60405180910390f35b611222615dde565b60405161122f919061721a565b60405180910390f35b611252600480360381019061124d91906176a5565b615de4565b60405161125f9190616f83565b60405180910390f35b611282600480360381019061127d91906172f9565b615e17565b60405161128f9190616f83565b60405180910390f35b60007f7965db0b000000000000000000000000000000000000000000000000000000007bffffffffffffffffffffffffffffffffffffffffffffffffffffffff1916827bffffffffffffffffffffffffffffffffffffffffffffffffffffffff1916148061130b575061130a82615e46565b5b9050919050565b6060600060268054905067ffffffffffffffff811115611335576113346176dc565b5b60405190808252806020026020018201604052801561136e57816020015b61135b616ae7565b8152602001906001900390816113535790505b50905060005b60268054905081101561160c576040518060c00160405280602683815481106113a05761139f6182b2565b5b9060005260206000209060060201600001548152602001602683815481106113cb576113ca6182b2565b5b906000526020600020906006020160010180546113e790618310565b80601f016020809104026020016040519081016040528092919081815260200182805461141390618310565b80156114605780601f1061143557610100808354040283529160200191611460565b820191906000526020600020905b81548152906001019060200180831161144357829003601f168201915b505050505081526020016026838154811061147e5761147d6182b2565b5b9060005260206000209060060201600201805461149a90618310565b80601f01602080910402602001604051908101604052809291908181526020018280546114c690618310565b80156115135780601f106114e857610100808354040283529160200191611513565b820191906000526020600020905b8154815290600101906020018083116114f657829003601f168201915b5050505050815260200160268381548110611531576115306182b2565b5b906000526020600020906006020160030160009054906101000a900460ff16151581526020016026838154811061156b5761156a6182b2565b5b906000526020600020906006020160040154815260200160268381548110611596576115956182b2565b5b906000526020600020906006020160050160009054906101000a900473ffffffffffffffffffffffffffffffffffffffff1673ffffffffffffffffffffffffffffffffffffffff168152508282815181106115f4576115f36182b2565b5b60200260200101819052508080600101915050611374565b508091505090565b60145481565b60606003805461162990618310565b80601f016020809104026020016040519081016040528092919081815260200182805461165590618310565b80156116a25780601f10611677576101008083540402835291602001916116a2565b820191906000526020600020905b81548152906001019060200180831161168557829003601f168201915b5050505050905090565b6000806116b7615eb0565b90506116c4818585615eb8565b600191505092915050565b60246020528060005260406000206000915054906101000a900460ff1681565b602d6020528160005260406000206020528060005260406000206000915091509054906101000a900460ff1681565b6000600254905090565b6006818154811061173857600080fd5b906000526020600020016000915054906101000a900473ffffffffffffffffffffffffffffffffffffffff1681565b600080611772615eb0565b905061177f858285615eca565b61178a858585615f5e565b60019150509392505050565b600060056000838152602001908152602001600020600101549050919050565b6064600f6b204fce5e3e250261100000006117d19190618370565b6117db91906183e1565b81565b606481565b602a81815481106117f357600080fd5b906000526020600020906004020160009150905080600001549080600101805461181c90618310565b80601f016020809104026020016040519081016040528092919081815260200182805461184890618310565b80156118955780601f1061186a57610100808354040283529160200191611895565b820191906000526020600020905b81548152906001019060200180831161187857829003601f168201915b5050505050908060030160009054906101000a900460ff16905083565b60196020528060005260406000206000915090508060000154908060010180546118db90618310565b80601f016020809104026020016040519081016040528092919081815260200182805461190790618310565b80156119545780601f1061192957610100808354040283529160200191611954565b820191906000526020600020905b81548152906001019060200180831161193757829003601f168201915b50505050509080600201805461196990618310565b80601f016020809104026020016040519081016040528092919081815260200182805461199590618310565b80156119e25780601f106119b7576101008083540402835291602001916119e2565b820191906000526020600020905b8154815290600101906020018083116119c557829003601f168201915b5050505050908060030160009054906101000a900460ff16908060040154908060050160009054906101000a900473ffffffffffffffffffffffffffffffffffffffff16905086565b60155481565b60288181548110611a4157600080fd5b9060005260206000209060230201600091509050806000015490806001018054611a6a90618310565b80601f0160208091040260200160405190810160405280929190818152602001828054611a9690618310565b8015611ae35780601f10611ab857610100808354040283529160200191611ae3565b820191906000526020600020905b815481529060010190602001808311611ac657829003601f168201915b505050505090806002018054611af890618310565b80601f0160208091040260200160405190810160405280929190818152602001828054611b2490618310565b8015611b715780601f10611b4657610100808354040283529160200191611b71565b820191906000526020600020905b815481529060010190602001808311611b5457829003601f168201915b5050505050908060210154908060220160009054906101000a900460ff16905085565b6000602d600083815260200190815260200160002060003373ffffffffffffffffffffffffffffffffffffffff1673ffffffffffffffffffffffffffffffffffffffff16815260200190815260200160002060009054906101000a900460ff1615611c34576040517f08c379a0000000000000000000000000000000000000000000000000000000008152600401611c2b90618484565b60405180910390fd5b6000601f60008481526020019081526020016000206000015403611c8d576040517f08c379a0000000000000000000000000000000000000000000000000000000008152600401611c84906184f0565b60405180910390fd5b6001602d600084815260200190815260200160002060003373ffffffffffffffffffffffffffffffffffffffff1673ffffffffffffffffffffffffffffffffffffffff16815260200190815260200160002060006101000a81548160ff02191690831515021790555081837f2479aa0d18311382446edb0fa11d0dbd5bab1be78b1e60b343ffe4d2a5f798ad33604051611d2791906173b5565b60405180910390a36001905092915050565b611d4282611796565b611d4b81616052565b611d558383616066565b50505050565b60006012905090565b6022602052806000526040600020600091509050806000015490806001018054611d8d90618310565b80601f0160208091040260200160405190810160405280929190818152602001828054611db990618310565b8015611e065780601f10611ddb57610100808354040283529160200191611e06565b820191906000526020600020905b815481529060010190602001808311611de957829003601f168201915b5050505050905082565b6b204fce5e3e2502611000000081565b602f6020528160005260406000206020528060005260406000206000915091509054906101000a900460ff1681565b601b6020528060005260406000206000915090508060000154905081565b7fadb22091b155738d2e889eb96f509d2a7c93234236b30400927feb4a6a15ab00611e9781616052565b6000602160008581526020019081526020016000206000015403611ef0576040517f08c379a0000000000000000000000000000000000000000000000000000000008152600401611ee79061855c565b60405180910390fd5b82602160008581526020019081526020016000206000015414611f48576040517f08c379a0000000000000000000000000000000000000000000000000000000008152600401611f3f906185c8565b60405180910390fd5b81602160008581526020019081526020016000206001019081611f6b9190618794565b5082847fad5fab99ac4d99e1061fd121b36537d5213be564a3dc6cc383897dc355e89ff584604051611f9d919061727f565b60405180910390a350505050565b611fb3615eb0565b73ffffffffffffffffffffffffffffffffffffffff168173ffffffffffffffffffffffffffffffffffffffff1614612017576040517f6697b23200000000000000000000000000000000000000000000000000000000815260040160405180910390fd5b6120218282616158565b505050565b7fadb22091b155738d2e889eb96f509d2a7c93234236b30400927feb4a6a15ab0081565b7fc10c77be35aff266144ed64c26a1fa104bae2f284ae99ac4a34203454704a18581565b60096020528060005260406000206000915090508060000154908060010160009054906101000a900473ffffffffffffffffffffffffffffffffffffffff16908060020160009054906101000a900473ffffffffffffffffffffffffffffffffffffffff16908060030180546120e390618310565b80601f016020809104026020016040519081016040528092919081815260200182805461210f90618310565b801561215c5780601f106121315761010080835404028352916020019161215c565b820191906000526020600020905b81548152906001019060200180831161213f57829003601f168201915b5050505050908060040154908060050160009054906101000a900460ff16905086565b601e602052816000526040600020818154811061219b57600080fd5b9060005260206000209060030201600091509150508060000154908060010180546121c590618310565b80601f01602080910402602001604051908101604052809291908181526020018280546121f190618310565b801561223e5780601f106122135761010080835404028352916020019161223e565b820191906000526020600020905b81548152906001019060200180831161222157829003601f168201915b5050505050908060020160009054906101000a900460ff16905083565b602c6020528160005260406000206020528060005260406000206000915091509054906101000a900460ff1681565b6000612294616b35565b6025600088815260200190815260200160002060003373ffffffffffffffffffffffffffffffffffffffff1673ffffffffffffffffffffffffffffffffffffffff16815260200190815260200160002060009054906101000a900460ff16612331576040517f08c379a0000000000000000000000000000000000000000000000000000000008152600401612328906188d8565b60405180910390fd5b602c600088815260200190815260200160002060003373ffffffffffffffffffffffffffffffffffffffff1673ffffffffffffffffffffffffffffffffffffffff16815260200190815260200160002060009054906101000a900460ff16156123cf576040517f08c379a00000000000000000000000000000000000000000000000000000000081526004016123c69061896a565b60405180910390fd5b6001602c600089815260200190815260200160002060003373ffffffffffffffffffffffffffffffffffffffff1673ffffffffffffffffffffffffffffffffffffffff16815260200190815260200160002060006101000a81548160ff02191690831515021790555061244a33671bc16d674ec8000061624b565b506000878787878742604051602001612468969594939291906189e7565b6040516020818303038152906040528051906020012060001c905060006040518060e001604052808381526020018a81526020018981526020018781526020018681526020018881526020013373ffffffffffffffffffffffffffffffffffffffff16815250905080603060008481526020019081526020016000206000820151816000015560208201518160010155604082015181600201908161250d9190618794565b5060608201518160030190816125239190618794565b506080820151816004015560a08201518160050190816125439190618794565b5060c08201518160060160006101000a81548173ffffffffffffffffffffffffffffffffffffffff021916908373ffffffffffffffffffffffffffffffffffffffff1602179055509050507f95ad50d6596337460bdce4b8db70313463e0615be9266b573e781327aef44e098288888b6040516125c39493929190618a4b565b60405180910390a181819350935050509550959350505050565b602b81815481106125ed57600080fd5b906000526020600020906003020160009150905080600001549080600101805461261690618310565b80601f016020809104026020016040519081016040528092919081815260200182805461264290618310565b801561268f5780601f106126645761010080835404028352916020019161268f565b820191906000526020600020905b81548152906001019060200180831161267257829003601f168201915b5050505050905082565b7fdf1425bae297c2f52b4f15d18a50b1fc8cb5b981a981b1d213ed3ff92681b64d81565b7fc10c77be35aff266144ed64c26a1fa104bae2f284ae99ac4a34203454704a1856126e781616052565b6126f18c33616338565b612730576040517f08c379a000000000000000000000000000000000000000000000000000000000815260040161272790618b17565b60405180910390fd5b601a60008d815260200190815260200160002060003373ffffffffffffffffffffffffffffffffffffffff1673ffffffffffffffffffffffffffffffffffffffff168152602001908152602001600020600a0160009054906101000a900460ff16156127d1576040517f08c379a00000000000000000000000000000000000000000000000000000000081526004016127c890618ba9565b60405180910390fd5b6127e38b8b8b8b8b8b8b8b8b8b616403565b6040518061016001604052808c81526020018b81526020018a815260200189815260200188815260200187815260200186815260200185815260200184815260200183815260200160011515815250601a60008e815260200190815260200160002060003373ffffffffffffffffffffffffffffffffffffffff1673ffffffffffffffffffffffffffffffffffffffff168152602001908152602001600020600082015181600001556020820151816001015560408201518160020155606082015181600301556080820151816004015560a0820151816005015560c0820151816006015560e082015181600701556101008201518160080155610120820151816009015561014082015181600a0160006101000a81548160ff0219169083151502179055509050506050612966601a60008f815260200190815260200160002060003373ffffffffffffffffffffffffffffffffffffffff1673ffffffffffffffffffffffffffffffffffffffff1681526020019081526020016000206164c8565b10612975576129748c613054565b5b505050505050505050505050565b600281565b602e602052816000526040600020602052806000526040600020600091509150505481565b60007fadb22091b155738d2e889eb96f509d2a7c93234236b30400927feb4a6a15ab006129d981616052565b6000601960008681526020019081526020016000206000015403612a32576040517f08c379a0000000000000000000000000000000000000000000000000000000008152600401612a2990618c15565b60405180910390fd5b82601960008681526020019081526020016000206001019081612a559190618794565b50837f5c8c98b6b26236296c856fae8a5ca0c793bbb81c5f8b7c9a9ab99358f53fb0c084604051612a86919061727f565b60405180910390a2600191505092915050565b60125481565b6030602052806000526040600020600091509050806000015490806001015490806002018054612ace90618310565b80601f0160208091040260200160405190810160405280929190818152602001828054612afa90618310565b8015612b475780601f10612b1c57610100808354040283529160200191612b47565b820191906000526020600020905b815481529060010190602001808311612b2a57829003601f168201915b505050505090806003018054612b5c90618310565b80601f0160208091040260200160405190810160405280929190818152602001828054612b8890618310565b8015612bd55780601f10612baa57610100808354040283529160200191612bd5565b820191906000526020600020905b815481529060010190602001808311612bb857829003601f168201915b505050505090806004015490806005018054612bf090618310565b80601f0160208091040260200160405190810160405280929190818152602001828054612c1c90618310565b8015612c695780601f10612c3e57610100808354040283529160200191612c69565b820191906000526020600020905b815481529060010190602001808311612c4c57829003601f168201915b5050505050908060060160009054906101000a900473ffffffffffffffffffffffffffffffffffffffff16905087565b60185481565b60268181548110612caf57600080fd5b9060005260206000209060060201600091509050806000015490806001018054612cd890618310565b80601f0160208091040260200160405190810160405280929190818152602001828054612d0490618310565b8015612d515780601f10612d2657610100808354040283529160200191612d51565b820191906000526020600020905b815481529060010190602001808311612d3457829003601f168201915b505050505090806002018054612d6690618310565b80601f0160208091040260200160405190810160405280929190818152602001828054612d9290618310565b8015612ddf5780601f10612db457610100808354040283529160200191612ddf565b820191906000526020600020905b815481529060010190602001808311612dc257829003601f168201915b5050505050908060030160009054906101000a900460ff16908060040154908060050160009054906101000a900473ffffffffffffffffffffffffffffffffffffffff16905086565b60008060008373ffffffffffffffffffffffffffffffffffffffff1673ffffffffffffffffffffffffffffffffffffffff168152602001908152602001600020549050919050565b7fc10c77be35aff266144ed64c26a1fa104bae2f284ae99ac4a34203454704a185612e9a81616052565b600860008373ffffffffffffffffffffffffffffffffffffffff1673ffffffffffffffffffffffffffffffffffffffff16815260200190815260200160002060009054906101000a900460ff1615612f27576040517f08c379a0000000000000000000000000000000000000000000000000000000008152600401612f1e90618c81565b60405180910390fd5b612f517fc10c77be35aff266144ed64c26a1fa104bae2f284ae99ac4a34203454704a18583616066565b506006829080600181540180825580915050600190039060005260206000200160009091909190916101000a81548173ffffffffffffffffffffffffffffffffffffffff021916908373ffffffffffffffffffffffffffffffffffffffff1602179055506001600860008473ffffffffffffffffffffffffffffffffffffffff1673ffffffffffffffffffffffffffffffffffffffff16815260200190815260200160002060006101000a81548160ff0219169083151502179055508173ffffffffffffffffffffffffffffffffffffffff167fe1cb5e1230cc02e62c60b81c1aa5ade512f3eac296edb28628b4cf344f47f93160405160405180910390a25050565b7fc10c77be35aff266144ed64c26a1fa104bae2f284ae99ac4a34203454704a18561307e81616052565b60006019600084815260200190815260200160002090508060030160009054906101000a900460ff16156130e7576040517f08c379a00000000000000000000000000000000000000000000000000000000081526004016130de90618ced565b60405180910390fd5b601c60003373ffffffffffffffffffffffffffffffffffffffff1673ffffffffffffffffffffffffffffffffffffffff168152602001908152602001600020600084815260200190815260200160002060009054906101000a900460ff1615613185576040517f08c379a000000000000000000000000000000000000000000000000000000000815260040161317c90618d7f565b60405180910390fd5b6001601c60003373ffffffffffffffffffffffffffffffffffffffff1673ffffffffffffffffffffffffffffffffffffffff168152602001908152602001600020600085815260200190815260200160002060006101000a81548160ff02191690831515021790555080600401600081548092919061320390618d9f565b919050555060028160040154106132695760018160030160006101000a81548160ff0219169083151502179055506132678160050160009054906101000a900473ffffffffffffffffffffffffffffffffffffffff16674563918244f4000061624b565b505b505050565b671bc16d674ec8000081565b60135481565b671bc16d674ec8000081565b60216020528060005260406000206000915090508060000154908060010180546132b590618310565b80601f01602080910402602001604051908101604052809291908181526020018280546132e190618310565b801561332e5780601f106133035761010080835404028352916020019161332e565b820191906000526020600020905b81548152906001019060200180831161331157829003601f168201915b5050505050908060030160009054906101000a900460ff16905083565b60007fadb22091b155738d2e889eb96f509d2a7c93234236b30400927feb4a6a15ab0061337781616052565b60006021600086815260200190815260200160002060000154036133d0576040517f08c379a00000000000000000000000000000000000000000000000000000000081526004016133c790618e33565b60405180910390fd5b6000602260008581526020019081526020016000206000015403613429576040517f08c379a000000000000000000000000000000000000000000000000000000000815260040161342090618e9f565b60405180910390fd5b60005b602b805490508110156135545783602b828154811061344e5761344d6182b2565b5b9060005260206000209060030201600001540361354757602b6001602b805490506134799190618ebf565b8154811061348a576134896182b2565b5b9060005260206000209060030201602b82815481106134ac576134ab6182b2565b5b906000526020600020906003020160008201548160000155600182018160010190816134d89190618f09565b5060028201816002019080546134ef929190616b88565b50905050602b80548061350557613504618ff1565b5b60019003818190600052602060002090600302016000808201600090556001820160006135329190616c22565b6002820160006135429190616c62565b505090555b808060010191505061342c565b50602260008481526020019081526020016000206000808201600090556001820160006135819190616c22565b6002820160006135919190616c62565b505082847ff084fa19916f58d56801346cc04ca2d2c28a5531dc7db17ebd2323685518b12660405160405180910390a3600191505092915050565b7fc10c77be35aff266144ed64c26a1fa104bae2f284ae99ac4a34203454704a1856135f681616052565b6024600083815260200190815260200160002060009054906101000a900460ff1615613657576040517f08c379a000000000000000000000000000000000000000000000000000000000815260040161364e9061906c565b60405180910390fd5b600360068054905010156136a0576040517f08c379a0000000000000000000000000000000000000000000000000000000008152600401613697906190d8565b60405180910390fd5b6023600083815260200190815260200160002060006136bf9190616c86565b60005b600381101561389c5760006006805490504244600680549050856040516020016136ef94939291906190f8565b6040516020818303038152906040528051906020012060001c6137129190619146565b905060006006828154811061372a576137296182b2565b5b9060005260206000200160009054906101000a900473ffffffffffffffffffffffffffffffffffffffff1690506000805b6023600088815260200190815260200160002080549050811015613811578273ffffffffffffffffffffffffffffffffffffffff166023600089815260200190815260200160002082815481106137b5576137b46182b2565b5b9060005260206000200160009054906101000a900473ffffffffffffffffffffffffffffffffffffffff1673ffffffffffffffffffffffffffffffffffffffff16036138045760019150613811565b808060010191505061375b565b508061388c5760236000878152602001908152602001600020829080600181540180825580915050600190039060005260206000200160009091909190916101000a81548173ffffffffffffffffffffffffffffffffffffffff021916908373ffffffffffffffffffffffffffffffffffffffff1602179055505b50505080806001019150506136c2565b5060036023600084815260200190815260200160002080549050036138e85760016024600084815260200190815260200160002060006101000a81548160ff0219169083151502179055505b817fe205dff861c570b8df17e26f893778853f94bb25d2de318755e48eab0b403ff76023600085815260200190815260200160002060405161392a9190619263565b60405180910390a25050565b60006005600084815260200190815260200160002060000160008373ffffffffffffffffffffffffffffffffffffffff1673ffffffffffffffffffffffffffffffffffffffff16815260200190815260200160002060009054906101000a900460ff16905092915050565b670de0b6b3a764000081565b6060600480546139bc90618310565b80601f01602080910402602001604051908101604052809291908181526020018280546139e890618310565b8015613a355780601f10613a0a57610100808354040283529160200191613a35565b820191906000526020600020905b815481529060010190602001808311613a1857829003601f168201915b5050505050905090565b60007fadb22091b155738d2e889eb96f509d2a7c93234236b30400927feb4a6a15ab00613a6b81616052565b6000601960008581526020019081526020016000206000015403613ac4576040517f08c379a0000000000000000000000000000000000000000000000000000000008152600401613abb906192d1565b60405180910390fd5b60005b6026805490508111613cd3578360268281548110613ae857613ae76182b2565b5b90600052602060002090600602016000015403613cc05760266001602680549050613b139190618ebf565b81548110613b2457613b236182b2565b5b906000526020600020906006020160268281548110613b4657613b456182b2565b5b90600052602060002090600602016000820154816000015560018201816001019081613b729190618f09565b5060028201816002019081613b879190618f09565b506003820160009054906101000a900460ff168160030160006101000a81548160ff021916908315150217905550600482015481600401556005820160009054906101000a900473ffffffffffffffffffffffffffffffffffffffff168160050160006101000a81548173ffffffffffffffffffffffffffffffffffffffff021916908373ffffffffffffffffffffffffffffffffffffffff1602179055509050506026805480613c3b57613c3a618ff1565b5b6001900381819060005260206000209060060201600080820160009055600182016000613c689190616c22565b600282016000613c789190616c22565b6003820160006101000a81549060ff021916905560048201600090556005820160006101000a81549073ffffffffffffffffffffffffffffffffffffffff0219169055505090555b8080613ccb90618d9f565b915050613ac7565b5060196000848152602001908152602001600020600080820160009055600182016000613d009190616c22565b600282016000613d109190616c22565b6003820160006101000a81549060ff021916905560048201600090556005820160006101000a81549073ffffffffffffffffffffffffffffffffffffffff02191690555050827f50d94198096be9c8aad282f822173f9212251c4d4dc2731fa944f3941749a78d33604051613d8591906173b5565b60405180910390a26001915050919050565b60007fadb22091b155738d2e889eb96f509d2a7c93234236b30400927feb4a6a15ab00613dc381616052565b6000601d60008681526020019081526020016000206000015403613e1c576040517f08c379a0000000000000000000000000000000000000000000000000000000008152600401613e139061933d565b60405180910390fd5b6000601f60008581526020019081526020016000206000015403613e75576040517f08c379a0000000000000000000000000000000000000000000000000000000008152600401613e6c906184f0565b60405180910390fd5b60005b602780549050811161400e5783601f60008381526020019081526020016000206000015403613ffb5760286001602880549050613eb59190618ebf565b81548110613ec657613ec56182b2565b5b906000526020600020906023020160288281548110613ee857613ee76182b2565b5b90600052602060002090602302016000820154816000015560018201816001019081613f149190618f09565b5060028201816002019081613f299190618f09565b50600382018160030190600a613f40929190616ca7565b50602182015481602101556022820160009054906101000a900460ff168160220160006101000a81548160ff0219169083151502179055509050506028805480613f8d57613f8c618ff1565b5b6001900381819060005260206000209060230201600080820160009055600182016000613fba9190616c22565b600282016000613fca9190616c22565b600382016000613fda9190616d29565b60218201600090556022820160006101000a81549060ff0219169055505090555b808061400690618d9f565b915050613e78565b50601f600084815260200190815260200160002060008082016000905560018201600061403b9190616c22565b60028201600061404b9190616c22565b60038201600061405b9190616d29565b60218201600090556022820160006101000a81549060ff0219169055505082847f1cdc2ff39034471047dd6d36512a12b5c2e9a30137b2e45daecd05383221d97b60405160405180910390a3600191505092915050565b60115481565b602360205281600052604060002081815481106140d457600080fd5b906000526020600020016000915091509054906101000a900473ffffffffffffffffffffffffffffffffffffffff1681565b6000801b81565b60008073ffffffffffffffffffffffffffffffffffffffff1660196000601354815260200190815260200160002060050160009054906101000a900473ffffffffffffffffffffffffffffffffffffffff1673ffffffffffffffffffffffffffffffffffffffff16146141b5576040517f08c379a00000000000000000000000000000000000000000000000000000000081526004016141ac906193a9565b60405180910390fd5b60006040518060c001604052806013548152602001858152602001848152602001600015158152602001600081526020013373ffffffffffffffffffffffffffffffffffffffff168152509050806019600060135481526020019081526020016000206000820151816000015560208201518160010190816142379190618794565b50604082015181600201908161424d9190618794565b5060608201518160030160006101000a81548160ff0219169083151502179055506080820151816004015560a08201518160050160006101000a81548173ffffffffffffffffffffffffffffffffffffffff021916908373ffffffffffffffffffffffffffffffffffffffff160217905550905050602681908060018154018082558091505060019003906000526020600020906006020160009091909190915060008201518160000155602082015181600101908161430d9190618794565b5060408201518160020190816143239190618794565b5060608201518160030160006101000a81548160ff0219169083151502179055506080820151816004015560a08201518160050160006101000a81548173ffffffffffffffffffffffffffffffffffffffff021916908373ffffffffffffffffffffffffffffffffffffffff1602179055505050601260008154809291906143aa90618d9f565b91905055506001601b60003373ffffffffffffffffffffffffffffffffffffffff1673ffffffffffffffffffffffffffffffffffffffff168152602001908152602001600020600001600082825461440291906193c9565b925050819055506013600081548092919061441c90618d9f565b919050555061444b7fadb22091b155738d2e889eb96f509d2a7c93234236b30400927feb4a6a15ab0033616066565b508360405161445a91906193fd565b604051809103902060016013546144719190618ebf565b7f9c93a42b217373d37e6c66ace0a67fe1fa1f78c93164b62417de69c48c0f67e26019600060016013546144a59190618ebf565b815260200190815260200160002060030160009054906101000a900460ff166040516144d19190616f83565b60405180910390a3600191505092915050565b601d60205280600052604060002060009150905080600001549080600101805461450d90618310565b80601f016020809104026020016040519081016040528092919081815260200182805461453990618310565b80156145865780601f1061455b57610100808354040283529160200191614586565b820191906000526020600020905b81548152906001019060200180831161456957829003601f168201915b5050505050908060020160009054906101000a900460ff16905083565b6000806145ae615eb0565b90506145bb818585615f5e565b600191505092915050565b6020805281600052604060002081815481106145e157600080fd5b906000526020600020016000915091505080546145fd90618310565b80601f016020809104026020016040519081016040528092919081815260200182805461462990618310565b80156146765780601f1061464b57610100808354040283529160200191614676565b820191906000526020600020905b81548152906001019060200180831161465957829003601f168201915b505050505081565b605081565b7fdf1425bae297c2f52b4f15d18a50b1fc8cb5b981a981b1d213ed3ff92681b64d6146ad81616052565b60006009600084815260200190815260200160002090508060050160009054906101000a900460ff1615614716576040517f08c379a000000000000000000000000000000000000000000000000000000000815260040161470d90619460565b60405180910390fd5b8060060160003373ffffffffffffffffffffffffffffffffffffffff1673ffffffffffffffffffffffffffffffffffffffff16815260200190815260200160002060009054906101000a900460ff16156147a5576040517f08c379a000000000000000000000000000000000000000000000000000000000815260040161479c906194cc565b60405180910390fd5b60018160060160003373ffffffffffffffffffffffffffffffffffffffff1673ffffffffffffffffffffffffffffffffffffffff16815260200190815260200160002060006101000a81548160ff02191690831515021790555080600401600081548092919061481490618d9f565b9190505550827f5d4ccf5f92566d140246f4ae3b9cb35dc06fff109a7748602ad77f6260fd9a613360405161484991906173b5565b60405180910390a2600381600401541061497d5760008160020160009054906101000a900473ffffffffffffffffffffffffffffffffffffffff1673ffffffffffffffffffffffffffffffffffffffff16826003016040516148ab919061958f565b6000604051808303816000865af19150503d80600081146148e8576040519150601f19603f3d011682016040523d82523d6000602084013e6148ed565b606091505b5050905080614931576040517f08c379a0000000000000000000000000000000000000000000000000000000008152600401614928906195f2565b60405180910390fd5b60018260050160006101000a81548160ff021916908315150217905550837f7770356c29230b95943aec59d47ead11eb426a728bf5b57f7fd8597f3c0e29ba60405160405180910390a2505b505050565b601f6020528060005260406000206000915090508060000154908060010180546149ab90618310565b80601f01602080910402602001604051908101604052809291908181526020018280546149d790618310565b8015614a245780601f106149f957610100808354040283529160200191614a24565b820191906000526020600020905b815481529060010190602001808311614a0757829003601f168201915b505050505090806002018054614a3990618310565b80601f0160208091040260200160405190810160405280929190818152602001828054614a6590618310565b8015614ab25780601f10614a8757610100808354040283529160200191614ab2565b820191906000526020600020905b815481529060010190602001808311614a9557829003601f168201915b5050505050908060210154908060220160009054906101000a900460ff16905085565b601a6020528160005260406000206020528060005260406000206000915091505080600001549080600101549080600201549080600301549080600401549080600501549080600601549080600701549080600801549080600901549080600a0160009054906101000a900460ff1690508b565b606060236000838152602001908152602001600020805480602002602001604051908101604052809291908181526020018280548015614bde57602002820191906000526020600020905b8160009054906101000a900473ffffffffffffffffffffffffffffffffffffffff1673ffffffffffffffffffffffffffffffffffffffff1681526020019060010190808311614b94575b50505050509050919050565b60086020528060005260406000206000915054906101000a900460ff1681565b6000601154905090565b60278181548110614c2457600080fd5b9060005260206000209060030201600091509050806000015490806001018054614c4d90618310565b80601f0160208091040260200160405190810160405280929190818152602001828054614c7990618310565b8015614cc65780601f10614c9b57610100808354040283529160200191614cc6565b820191906000526020600020905b815481529060010190602001808311614ca957829003601f168201915b5050505050908060020160009054906101000a900460ff16905083565b6000801b614cf081616052565b600860008373ffffffffffffffffffffffffffffffffffffffff1673ffffffffffffffffffffffffffffffffffffffff16815260200190815260200160002060009054906101000a900460ff16614d7c576040517f08c379a0000000000000000000000000000000000000000000000000000000008152600401614d739061965e565b60405180910390fd5b60005b600680549050811015614f02578273ffffffffffffffffffffffffffffffffffffffff1660068281548110614db757614db66182b2565b5b9060005260206000200160009054906101000a900473ffffffffffffffffffffffffffffffffffffffff1673ffffffffffffffffffffffffffffffffffffffff1603614ef55760066001600680549050614e119190618ebf565b81548110614e2257614e216182b2565b5b9060005260206000200160009054906101000a900473ffffffffffffffffffffffffffffffffffffffff1660068281548110614e6157614e606182b2565b5b9060005260206000200160006101000a81548173ffffffffffffffffffffffffffffffffffffffff021916908373ffffffffffffffffffffffffffffffffffffffff1602179055506006805480614ebb57614eba618ff1565b5b6001900381819060005260206000200160006101000a81549073ffffffffffffffffffffffffffffffffffffffff02191690559055614f02565b8080600101915050614d7f565b506000600860008473ffffffffffffffffffffffffffffffffffffffff1673ffffffffffffffffffffffffffffffffffffffff16815260200190815260200160002060006101000a81548160ff021916908315150217905550614f857fc10c77be35aff266144ed64c26a1fa104bae2f284ae99ac4a34203454704a18583616158565b508173ffffffffffffffffffffffffffffffffffffffff167f55dba9d79522b91b615629d5f3b10c2fad2d258f1768614f4a52e937ada0d0ba60405160405180910390a25050565b60256020528160005260406000206020528060005260406000206000915091509054906101000a900460ff1681565b60007fadb22091b155738d2e889eb96f509d2a7c93234236b30400927feb4a6a15ab0061502881616052565b6000601f60008881526020019081526020016000206000015403615081576040517f08c379a0000000000000000000000000000000000000000000000000000000008152600401615078906196ca565b60405180910390fd5b84601f600088815260200190815260200160002060010190816150a49190618794565b5083601f600088815260200190815260200160002060020190816150c89190618794565b506000835111156151db57600a83511115615118576040517f08c379a000000000000000000000000000000000000000000000000000000000815260040161510f9061975c565b60405180910390fd5b60005b83518110156151bd57838181518110615137576151366182b2565b5b6020026020010151601f600089815260200190815260200160002060030182600a8110615167576151666182b2565b5b6003020160008201518160000190816151809190618794565b5060208201518160010190816151969190618794565b5060408201518160020190816151ac9190618794565b50905050808060010191505061511b565b508251601f6000888152602001908152602001600020602101819055505b857f2a39a7cf20a19c3cd9811b72b89fab269dce3aa109f6d2a0631cd3e1f0457e5d8660405161520b919061727f565b60405180910390a26001915050949350505050565b61522982611796565b61523281616052565b61523c8383616158565b50505050565b674563918244f4000081565b6000600160008473ffffffffffffffffffffffffffffffffffffffff1673ffffffffffffffffffffffffffffffffffffffff16815260200190815260200160002060008373ffffffffffffffffffffffffffffffffffffffff1673ffffffffffffffffffffffffffffffffffffffff16815260200190815260200160002054905092915050565b602981815481106152e557600080fd5b906000526020600020906003020160009150905080600001805461530890618310565b80601f016020809104026020016040519081016040528092919081815260200182805461533490618310565b80156153815780601f1061535657610100808354040283529160200191615381565b820191906000526020600020905b81548152906001019060200180831161536457829003601f168201915b50505050509080600101805461539690618310565b80601f01602080910402602001604051908101604052809291908181526020018280546153c290618310565b801561540f5780601f106153e45761010080835404028352916020019161540f565b820191906000526020600020905b8154815290600101906020018083116153f257829003601f168201915b50505050509080600201805461542490618310565b80601f016020809104026020016040519081016040528092919081815260200182805461545090618310565b801561549d5780601f106154725761010080835404028352916020019161549d565b820191906000526020600020905b81548152906001019060200180831161548057829003601f168201915b5050505050905083565b600080602160008581526020019081526020016000209050600081600201805490509050600081855114615510576040517f08c379a0000000000000000000000000000000000000000000000000000000008152600401615507906197ee565b60405180910390fd5b60005b82811015615603576000846002018281548110615533576155326182b2565b5b906000526020600020906003020190506000878381518110615558576155576182b2565b5b60200260200101519050816002018054905081106155ab576040517f08c379a00000000000000000000000000000000000000000000000000000000081526004016155a29061985a565b60405180910390fd5b8160020181815481106155c1576155c06182b2565b5b906000526020600020906002020160010160009054906101000a900460ff16156155f45783806155f090618d9f565b9450505b50508080600101915050615513565b50816064826156129190618370565b61561c91906183e1565b9350604b84106156f8576001602f600088815260200190815260200160002060003373ffffffffffffffffffffffffffffffffffffffff1673ffffffffffffffffffffffffffffffffffffffff16815260200190815260200160002060006101000a81548160ff02191690831515021790555083602e60003373ffffffffffffffffffffffffffffffffffffffff1673ffffffffffffffffffffffffffffffffffffffff1681526020019081526020016000206000888152602001908152602001600020819055506156f633670de0b6b3a764000061624b565b505b3373ffffffffffffffffffffffffffffffffffffffff167fcce9b9ed7e05afc64f73f1ce3f6ff1011a740b718ae6277a14698a4ef2d62dbf878660405161574092919061987a565b60405180910390a250505092915050565b6000600b60000154905090565b60007fadb22091b155738d2e889eb96f509d2a7c93234236b30400927feb4a6a15ab0061578a81616052565b7fadb22091b155738d2e889eb96f509d2a7c93234236b30400927feb4a6a15ab006157b481616052565b600060196000878152602001908152602001600020600001540361580d576040517f08c379a0000000000000000000000000000000000000000000000000000000008152600401615804906198ef565b60405180910390fd5b6000601d60008681526020019081526020016000206000015403615866576040517f08c379a000000000000000000000000000000000000000000000000000000000815260040161585d9061933d565b60405180910390fd5b60005b60278054905081116159a15784601d6000838152602001908152602001600020600001540361598e57602760016027805490506158a69190618ebf565b815481106158b7576158b66182b2565b5b9060005260206000209060030201602782815481106158d9576158d86182b2565b5b906000526020600020906003020160008201548160000155600182018160010190816159059190618f09565b506002820160009054906101000a900460ff168160020160006101000a81548160ff021916908315150217905550905050602780548061594857615947618ff1565b5b60019003818190600052602060002090600302016000808201600090556001820160006159759190616c22565b6002820160006101000a81549060ff0219169055505090555b808061599990618d9f565b915050615869565b50601d60008581526020019081526020016000206000808201600090556001820160006159ce9190616c22565b6002820160006101000a81549060ff0219169055505083857fab6d08543726a41eac26ac96d0b4591127baed3bfb915d2603ccb9fb2440c42560405160405180910390a360019250505092915050565b60165481565b60007fadb22091b155738d2e889eb96f509d2a7c93234236b30400927feb4a6a15ab00615a5081616052565b6000601d60008681526020019081526020016000206000015403615aa9576040517f08c379a0000000000000000000000000000000000000000000000000000000008152600401615aa09061995b565b60405180910390fd5b82601d60008681526020019081526020016000206001019081615acc9190618794565b5083857f7714a2fe2221824dfd5cd15f7cc29e38ffefcf9b6ad62c216321afcde79cbcfb85604051615afe919061727f565b60405180910390a360019150509392505050565b60007fadb22091b155738d2e889eb96f509d2a7c93234236b30400927feb4a6a15ab00615b3e81616052565b6000601f60008681526020019081526020016000206000015403615b97576040517f08c379a0000000000000000000000000000000000000000000000000000000008152600401615b8e906184f0565b60405180910390fd5b6000602160008581526020019081526020016000206000015403615bf0576040517f08c379a0000000000000000000000000000000000000000000000000000000008152600401615be7906199c7565b60405180910390fd5b60005b6027805490508111615d525783602160008681526020019081526020016000206000015403615d3f57602a6001602a80549050615c309190618ebf565b81548110615c4157615c406182b2565b5b9060005260206000209060040201602a8281548110615c6357615c626182b2565b5b90600052602060002090600402016000820154816000015560018201816001019081615c8f9190618f09565b506002820181600201908054615ca6929190616d3f565b506003820160009054906101000a900460ff168160030160006101000a81548160ff021916908315150217905550905050602a805480615ce957615ce8618ff1565b5b6001900381819060005260206000209060040201600080820160009055600182016000615d169190616c22565b600282016000615d269190616dcd565b6003820160006101000a81549060ff0219169055505090555b8080615d4a90618d9f565b915050615bf3565b5060216000848152602001908152602001600020600080820160009055600182016000615d7f9190616c22565b600282016000615d8f9190616dcd565b6003820160006101000a81549060ff0219169055505082847f22a69f3183c2804ef4ff588b6321a6351c1863419286c584919ab8f923cbd5a460405160405180910390a3600191505092915050565b60175481565b6000615e107fc10c77be35aff266144ed64c26a1fa104bae2f284ae99ac4a34203454704a18583613936565b9050919050565b601c6020528160005260406000206020528060005260406000206000915091509054906101000a900460ff1681565b60007f01ffc9a7000000000000000000000000000000000000000000000000000000007bffffffffffffffffffffffffffffffffffffffffffffffffffffffff1916827bffffffffffffffffffffffffffffffffffffffffffffffffffffffff1916149050919050565b600033905090565b615ec5838383600161655d565b505050565b6000615ed6848461524e565b90507fffffffffffffffffffffffffffffffffffffffffffffffffffffffffffffffff8114615f585781811015615f48578281836040517ffb8f41b2000000000000000000000000000000000000000000000000000000008152600401615f3f939291906199e7565b60405180910390fd5b615f578484848403600061655d565b5b50505050565b600073ffffffffffffffffffffffffffffffffffffffff168373ffffffffffffffffffffffffffffffffffffffff1603615fd05760006040517f96c6fd1e000000000000000000000000000000000000000000000000000000008152600401615fc791906173b5565b60405180910390fd5b600073ffffffffffffffffffffffffffffffffffffffff168273ffffffffffffffffffffffffffffffffffffffff16036160425760006040517fec442f0500000000000000000000000000000000000000000000000000000000815260040161603991906173b5565b60405180910390fd5b61604d838383616734565b505050565b6160638161605e615eb0565b616959565b50565b60006160728383613936565b61614d5760016005600085815260200190815260200160002060000160008473ffffffffffffffffffffffffffffffffffffffff1673ffffffffffffffffffffffffffffffffffffffff16815260200190815260200160002060006101000a81548160ff0219169083151502179055506160ea615eb0565b73ffffffffffffffffffffffffffffffffffffffff168273ffffffffffffffffffffffffffffffffffffffff16847f2f8788117e7eff1d82e926ec794901d17c78024a50270940304540a733656f0d60405160405180910390a460019050616152565b600090505b92915050565b60006161648383613936565b156162405760006005600085815260200190815260200160002060000160008473ffffffffffffffffffffffffffffffffffffffff1673ffffffffffffffffffffffffffffffffffffffff16815260200190815260200160002060006101000a81548160ff0219169083151502179055506161dd615eb0565b73ffffffffffffffffffffffffffffffffffffffff168273ffffffffffffffffffffffffffffffffffffffff16847ff6391f5c32d9c69d2a47ea670b442974b53935d1edc7fd64eb21e047a839171b60405160405180910390a460019050616245565b600090505b92915050565b60006064600f6b204fce5e3e250261100000006162689190618370565b61627291906183e1565b61627a614c0a565b8361628591906193c9565b11156162c6576040517f08c379a00000000000000000000000000000000000000000000000000000000081526004016162bd90619a6a565b60405180910390fd5b6162d083836169aa565b5081601160008282546162e391906193c9565b92505081905550818373ffffffffffffffffffffffffffffffffffffffff167fad6ef58d5c294f81258965738e7ae511124139834a8d0b8f8f7327086c82052a60405160405180910390a36001905092915050565b600080600090505b60236000858152602001908152602001600020805490508110156163f7578273ffffffffffffffffffffffffffffffffffffffff1660236000868152602001908152602001600020828154811061639a576163996182b2565b5b9060005260206000200160009054906101000a900473ffffffffffffffffffffffffffffffffffffffff1673ffffffffffffffffffffffffffffffffffffffff16036163ea5760019150506163fd565b8080600101915050616340565b50600090505b92915050565b600a8a111580156164155750600a8911155b80156164225750600a8811155b801561642f5750600a8711155b801561643c5750600a8611155b80156164495750600a8511155b80156164565750600a8411155b80156164635750600a8311155b80156164705750600a8211155b801561647d5750600a8111155b6164bc576040517f08c379a00000000000000000000000000000000000000000000000000000000081526004016164b390619ad6565b60405180910390fd5b50505050505050505050565b60008160090154826008015483600701548460060154856005015486600401548760030154886002015489600101548a6000015461650691906193c9565b61651091906193c9565b61651a91906193c9565b61652491906193c9565b61652e91906193c9565b61653891906193c9565b61654291906193c9565b61654c91906193c9565b61655691906193c9565b9050919050565b600073ffffffffffffffffffffffffffffffffffffffff168473ffffffffffffffffffffffffffffffffffffffff16036165cf5760006040517fe602df050000000000000000000000000000000000000000000000000000000081526004016165c691906173b5565b60405180910390fd5b600073ffffffffffffffffffffffffffffffffffffffff168373ffffffffffffffffffffffffffffffffffffffff16036166415760006040517f94280d6200000000000000000000000000000000000000000000000000000000815260040161663891906173b5565b60405180910390fd5b81600160008673ffffffffffffffffffffffffffffffffffffffff1673ffffffffffffffffffffffffffffffffffffffff16815260200190815260200160002060008573ffffffffffffffffffffffffffffffffffffffff1673ffffffffffffffffffffffffffffffffffffffff16815260200190815260200160002081905550801561672e578273ffffffffffffffffffffffffffffffffffffffff168473ffffffffffffffffffffffffffffffffffffffff167f8c5be1e5ebec7d5bd14f71427d1e84f3dd0314c0f7b2291e5b200ac8c7c3b92584604051616725919061721a565b60405180910390a35b50505050565b600073ffffffffffffffffffffffffffffffffffffffff168373ffffffffffffffffffffffffffffffffffffffff160361678657806002600082825461677a91906193c9565b92505081905550616859565b60008060008573ffffffffffffffffffffffffffffffffffffffff1673ffffffffffffffffffffffffffffffffffffffff16815260200190815260200160002054905081811015616812578381836040517fe450d38c000000000000000000000000000000000000000000000000000000008152600401616809939291906199e7565b60405180910390fd5b8181036000808673ffffffffffffffffffffffffffffffffffffffff1673ffffffffffffffffffffffffffffffffffffffff16815260200190815260200160002081905550505b600073ffffffffffffffffffffffffffffffffffffffff168273ffffffffffffffffffffffffffffffffffffffff16036168a257806002600082825403925050819055506168ef565b806000808473ffffffffffffffffffffffffffffffffffffffff1673ffffffffffffffffffffffffffffffffffffffff168152602001908152602001600020600082825401925050819055505b8173ffffffffffffffffffffffffffffffffffffffff168373ffffffffffffffffffffffffffffffffffffffff167fddf252ad1be2c89b69c2b068fc378daa952ba7f163c4a11628f55a4df523b3ef8360405161694c919061721a565b60405180910390a3505050565b6169638282613936565b6169a65780826040517fe2517d3f00000000000000000000000000000000000000000000000000000000815260040161699d929190619af6565b60405180910390fd5b5050565b60006b204fce5e3e250261100000006169c161171e565b836169cc91906193c9565b1115616a0d576040517f08c379a0000000000000000000000000000000000000000000000000000000008152600401616a0490619a6a565b60405180910390fd5b616a178383616a65565b818373ffffffffffffffffffffffffffffffffffffffff167fcda531bfd68624f13205c0a23cd4d5a7f09792cbb399603114f2b04aaa1bf5cf60405160405180910390a36001905092915050565b600073ffffffffffffffffffffffffffffffffffffffff168273ffffffffffffffffffffffffffffffffffffffff1603616ad75760006040517fec442f05000000000000000000000000000000000000000000000000000000008152600401616ace91906173b5565b60405180910390fd5b616ae360008383616734565b5050565b6040518060c0016040528060008152602001606081526020016060815260200160001515815260200160008152602001600073ffffffffffffffffffffffffffffffffffffffff1681525090565b6040518060e00160405280600081526020016000815260200160608152602001606081526020016000815260200160608152602001600073ffffffffffffffffffffffffffffffffffffffff1681525090565b828054828255906000526020600020906002028101928215616c115760005260206000209160020282015b82811115616c1057828260008201816000019081616bd19190618f09565b506001820160009054906101000a900460ff168160010160006101000a81548160ff021916908315150217905550505091600201919060020190616bb3565b5b509050616c1e9190616df1565b5090565b508054616c2e90618310565b6000825580601f10616c405750616c5f565b601f016020900490600052602060002090810190616c5e9190616e2c565b5b50565b5080546000825560020290600052602060002090810190616c839190616df1565b50565b5080546000825590600052602060002090810190616ca49190616e2c565b50565b82600a6003028101928215616d18579160030282015b82811115616d1757828260008201816000019081616cdb9190618f09565b5060018201816001019081616cf09190618f09565b5060028201816002019081616d059190618f09565b50505091600301919060030190616cbd565b5b509050616d259190616e49565b5090565b5080600a6003020190616d3c9190616e49565b50565b828054828255906000526020600020906003028101928215616dbc5760005260206000209160030282015b82811115616dbb5782826000820154816000015560018201816001019081616d929190618f09565b506002820181600201908054616da9929190616b88565b50505091600301919060030190616d6a565b5b509050616dc99190616e90565b5090565b5080546000825560030290600052602060002090810190616dee9190616e90565b50565b5b80821115616e285760008082016000616e0b9190616c22565b6001820160006101000a81549060ff021916905550600201616df2565b5090565b5b80821115616e45576000816000905550600101616e2d565b5090565b5b80821115616e8c5760008082016000616e639190616c22565b600182016000616e739190616c22565b600282016000616e839190616c22565b50600301616e4a565b5090565b5b80821115616ecb57600080820160009055600182016000616eb29190616c22565b600282016000616ec29190616c62565b50600301616e91565b5090565b6000604051905090565b600080fd5b600080fd5b60007fffffffff0000000000000000000000000000000000000000000000000000000082169050919050565b616f1881616ee3565b8114616f2357600080fd5b50565b600081359050616f3581616f0f565b92915050565b600060208284031215616f5157616f50616ed9565b5b6000616f5f84828501616f26565b91505092915050565b60008115159050919050565b616f7d81616f68565b82525050565b6000602082019050616f986000830184616f74565b92915050565b600081519050919050565b600082825260208201905092915050565b6000819050602082019050919050565b6000819050919050565b616fdd81616fca565b82525050565b600081519050919050565b600082825260208201905092915050565b60005b8381101561701d578082015181840152602081019050617002565b60008484015250505050565b6000601f19601f8301169050919050565b600061704582616fe3565b61704f8185616fee565b935061705f818560208601616fff565b61706881617029565b840191505092915050565b61707c81616f68565b82525050565b600073ffffffffffffffffffffffffffffffffffffffff82169050919050565b60006170ad82617082565b9050919050565b6170bd816170a2565b82525050565b600060c0830160008301516170db6000860182616fd4565b50602083015184820360208601526170f3828261703a565b9150506040830151848203604086015261710d828261703a565b91505060608301516171226060860182617073565b5060808301516171356080860182616fd4565b5060a083015161714860a08601826170b4565b508091505092915050565b600061715f83836170c3565b905092915050565b6000602082019050919050565b600061717f82616f9e565b6171898185616fa9565b93508360208202850161719b85616fba565b8060005b858110156171d757848403895281516171b88582617153565b94506171c383617167565b925060208a0199505060018101905061719f565b50829750879550505050505092915050565b600060208201905081810360008301526172038184617174565b905092915050565b61721481616fca565b82525050565b600060208201905061722f600083018461720b565b92915050565b600082825260208201905092915050565b600061725182616fe3565b61725b8185617235565b935061726b818560208601616fff565b61727481617029565b840191505092915050565b600060208201905081810360008301526172998184617246565b905092915050565b6172aa816170a2565b81146172b557600080fd5b50565b6000813590506172c7816172a1565b92915050565b6172d681616fca565b81146172e157600080fd5b50565b6000813590506172f3816172cd565b92915050565b600080604083850312156173105761730f616ed9565b5b600061731e858286016172b8565b925050602061732f858286016172e4565b9150509250929050565b60006020828403121561734f5761734e616ed9565b5b600061735d848285016172e4565b91505092915050565b6000806040838503121561737d5761737c616ed9565b5b600061738b858286016172e4565b925050602061739c858286016172b8565b9150509250929050565b6173af816170a2565b82525050565b60006020820190506173ca60008301846173a6565b92915050565b6000806000606084860312156173e9576173e8616ed9565b5b60006173f7868287016172b8565b9350506020617408868287016172b8565b9250506040617419868287016172e4565b9150509250925092565b6000819050919050565b61743681617423565b811461744157600080fd5b50565b6000813590506174538161742d565b92915050565b60006020828403121561746f5761746e616ed9565b5b600061747d84828501617444565b91505092915050565b61748f81617423565b82525050565b60006020820190506174aa6000830184617486565b92915050565b60006060820190506174c5600083018661720b565b81810360208301526174d78185617246565b90506174e66040830184616f74565b949350505050565b600060c082019050617503600083018961720b565b81810360208301526175158188617246565b905081810360408301526175298187617246565b90506175386060830186616f74565b617545608083018561720b565b61755260a08301846173a6565b979650505050505050565b600060a082019050617572600083018861720b565b81810360208301526175848187617246565b905081810360408301526175988186617246565b90506175a7606083018561720b565b6175b46080830184616f74565b9695505050505050565b600080604083850312156175d5576175d4616ed9565b5b60006175e3858286016172e4565b92505060206175f4858286016172e4565b9150509250929050565b6000806040838503121561761557617614616ed9565b5b600061762385828601617444565b9250506020617634858286016172b8565b9150509250929050565b600060ff82169050919050565b6176548161763e565b82525050565b600060208201905061766f600083018461764b565b92915050565b600060408201905061768a600083018561720b565b818103602083015261769c8184617246565b90509392505050565b6000602082840312156176bb576176ba616ed9565b5b60006176c9848285016172b8565b91505092915050565b600080fd5b600080fd5b7f4e487b7100000000000000000000000000000000000000000000000000000000600052604160045260246000fd5b61771482617029565b810181811067ffffffffffffffff82111715617733576177326176dc565b5b80604052505050565b6000617746616ecf565b9050617752828261770b565b919050565b600067ffffffffffffffff821115617772576177716176dc565b5b61777b82617029565b9050602081019050919050565b82818337600083830152505050565b60006177aa6177a584617757565b61773c565b9050828152602081018484840111156177c6576177c56176d7565b5b6177d1848285617788565b509392505050565b600082601f8301126177ee576177ed6176d2565b5b81356177fe848260208601617797565b91505092915050565b6000806000606084860312156178205761781f616ed9565b5b600061782e868287016172e4565b935050602061783f868287016172e4565b925050604084013567ffffffffffffffff8111156178605761785f616ede565b5b61786c868287016177d9565b9150509250925092565b600081519050919050565b600082825260208201905092915050565b600061789d82617876565b6178a78185617881565b93506178b7818560208601616fff565b6178c081617029565b840191505092915050565b600060c0820190506178e0600083018961720b565b6178ed60208301886173a6565b6178fa60408301876173a6565b818103606083015261790c8186617892565b905061791b608083018561720b565b61792860a0830184616f74565b979650505050505050565b600080600080600060a0868803121561794f5761794e616ed9565b5b600061795d888289016172e4565b955050602086013567ffffffffffffffff81111561797e5761797d616ede565b5b61798a888289016177d9565b945050604086013567ffffffffffffffff8111156179ab576179aa616ede565b5b6179b7888289016177d9565b935050606086013567ffffffffffffffff8111156179d8576179d7616ede565b5b6179e4888289016177d9565b92505060806179f5888289016172e4565b9150509295509295909350565b600060e083016000830151617a1a6000860182616fd4565b506020830151617a2d6020860182616fd4565b5060408301518482036040860152617a45828261703a565b91505060608301518482036060860152617a5f828261703a565b9150506080830151617a746080860182616fd4565b5060a083015184820360a0860152617a8c828261703a565b91505060c0830151617aa160c08601826170b4565b508091505092915050565b6000604082019050617ac1600083018561720b565b8181036020830152617ad38184617a02565b90509392505050565b60008060008060008060008060008060006101608c8e031215617b0257617b01616ed9565b5b6000617b108e828f016172e4565b9b50506020617b218e828f016172e4565b9a50506040617b328e828f016172e4565b9950506060617b438e828f016172e4565b9850506080617b548e828f016172e4565b97505060a0617b658e828f016172e4565b96505060c0617b768e828f016172e4565b95505060e0617b878e828f016172e4565b945050610100617b998e828f016172e4565b935050610120617bab8e828f016172e4565b925050610140617bbd8e828f016172e4565b9150509295989b509295989b9093969950565b60008060408385031215617be757617be6616ed9565b5b6000617bf5858286016172e4565b925050602083013567ffffffffffffffff811115617c1657617c15616ede565b5b617c22858286016177d9565b9150509250929050565b600060e082019050617c41600083018a61720b565b617c4e602083018961720b565b8181036040830152617c608188617246565b90508181036060830152617c748187617246565b9050617c83608083018661720b565b81810360a0830152617c958185617246565b9050617ca460c08301846173a6565b98975050505050505050565b60008060408385031215617cc757617cc6616ed9565b5b600083013567ffffffffffffffff811115617ce557617ce4616ede565b5b617cf1858286016177d9565b925050602083013567ffffffffffffffff811115617d1257617d11616ede565b5b617d1e858286016177d9565b9150509250929050565b600061016082019050617d3e600083018e61720b565b617d4b602083018d61720b565b617d58604083018c61720b565b617d65606083018b61720b565b617d72608083018a61720b565b617d7f60a083018961720b565b617d8c60c083018861720b565b617d9960e083018761720b565b617da761010083018661720b565b617db561012083018561720b565b617dc3610140830184616f74565b9c9b505050505050505050505050565b600081519050919050565b600082825260208201905092915050565b6000819050602082019050919050565b6000617e0b83836170b4565b60208301905092915050565b6000602082019050919050565b6000617e2f82617dd3565b617e398185617dde565b9350617e4483617def565b8060005b83811015617e75578151617e5c8882617dff565b9750617e6783617e17565b925050600181019050617e48565b5085935050505092915050565b60006020820190508181036000830152617e9c8184617e24565b905092915050565b600067ffffffffffffffff821115617ebf57617ebe6176dc565b5b602082029050602081019050919050565b600080fd5b600080fd5b600080fd5b600060608284031215617ef557617ef4617ed5565b5b617eff606061773c565b9050600082013567ffffffffffffffff811115617f1f57617f1e617eda565b5b617f2b848285016177d9565b600083015250602082013567ffffffffffffffff811115617f4f57617f4e617eda565b5b617f5b848285016177d9565b602083015250604082013567ffffffffffffffff811115617f7f57617f7e617eda565b5b617f8b848285016177d9565b60408301525092915050565b6000617faa617fa584617ea4565b61773c565b90508083825260208201905060208402830185811115617fcd57617fcc617ed0565b5b835b8181101561801457803567ffffffffffffffff811115617ff257617ff16176d2565b5b808601617fff8982617edf565b85526020850194505050602081019050617fcf565b5050509392505050565b600082601f830112618033576180326176d2565b5b8135618043848260208601617f97565b91505092915050565b6000806000806080858703121561806657618065616ed9565b5b6000618074878288016172e4565b945050602085013567ffffffffffffffff81111561809557618094616ede565b5b6180a1878288016177d9565b935050604085013567ffffffffffffffff8111156180c2576180c1616ede565b5b6180ce878288016177d9565b925050606085013567ffffffffffffffff8111156180ef576180ee616ede565b5b6180fb8782880161801e565b91505092959194509250565b6000806040838503121561811e5761811d616ed9565b5b600061812c858286016172b8565b925050602061813d858286016172b8565b9150509250929050565b600060608201905081810360008301526181618186617246565b905081810360208301526181758185617246565b905081810360408301526181898184617246565b9050949350505050565b600067ffffffffffffffff8211156181ae576181ad6176dc565b5b602082029050602081019050919050565b60006181d26181cd84618193565b61773c565b905080838252602082019050602084028301858111156181f5576181f4617ed0565b5b835b8181101561821e578061820a88826172e4565b8452602084019350506020810190506181f7565b5050509392505050565b600082601f83011261823d5761823c6176d2565b5b813561824d8482602086016181bf565b91505092915050565b6000806040838503121561826d5761826c616ed9565b5b600061827b858286016172e4565b925050602083013567ffffffffffffffff81111561829c5761829b616ede565b5b6182a885828601618228565b9150509250929050565b7f4e487b7100000000000000000000000000000000000000000000000000000000600052603260045260246000fd5b7f4e487b7100000000000000000000000000000000000000000000000000000000600052602260045260246000fd5b6000600282049050600182168061832857607f821691505b60208210810361833b5761833a6182e1565b5b50919050565b7f4e487b7100000000000000000000000000000000000000000000000000000000600052601160045260246000fd5b600061837b82616fca565b915061838683616fca565b925082820261839481616fca565b915082820484148315176183ab576183aa618341565b5b5092915050565b7f4e487b7100000000000000000000000000000000000000000000000000000000600052601260045260246000fd5b60006183ec82616fca565b91506183f783616fca565b925082618407576184066183b2565b5b828204905092915050565b7f596f75206861766520616c7265616479206d61726b65642074686973206c657360008201527f736f6e2061732072656164000000000000000000000000000000000000000000602082015250565b600061846e602b83617235565b915061847982618412565b604082019050919050565b6000602082019050818103600083015261849d81618461565b9050919050565b7f4c6573736f6e20646f65736e2774206578697374000000000000000000000000600082015250565b60006184da601483617235565b91506184e5826184a4565b602082019050919050565b60006020820190508181036000830152618509816184cd565b9050919050565b7f5155697a20646f6573206e6f7420657869737400000000000000000000000000600082015250565b6000618546601383617235565b915061855182618510565b602082019050919050565b6000602082019050818103600083015261857581618539565b9050919050565b7f4e6f74206578616374207175697a000000000000000000000000000000000000600082015250565b60006185b2600e83617235565b91506185bd8261857c565b602082019050919050565b600060208201905081810360008301526185e1816185a5565b9050919050565b60008190508160005260206000209050919050565b60006020601f8301049050919050565b600082821b905092915050565b60006008830261864a7fffffffffffffffffffffffffffffffffffffffffffffffffffffffffffffffff8261860d565b618654868361860d565b95508019841693508086168417925050509392505050565b6000819050919050565b600061869161868c61868784616fca565b61866c565b616fca565b9050919050565b6000819050919050565b6186ab83618676565b6186bf6186b782618698565b84845461861a565b825550505050565b600090565b6186d46186c7565b6186df8184846186a2565b505050565b5b81811015618703576186f86000826186cc565b6001810190506186e5565b5050565b601f82111561874857618719816185e8565b618722846185fd565b81016020851015618731578190505b61874561873d856185fd565b8301826186e4565b50505b505050565b600082821c905092915050565b600061876b6000198460080261874d565b1980831691505092915050565b6000618784838361875a565b9150826002028217905092915050565b61879d82616fe3565b67ffffffffffffffff8111156187b6576187b56176dc565b5b6187c08254618310565b6187cb828285618707565b600060209050601f8311600181146187fe57600084156187ec578287015190505b6187f68582618778565b86555061885e565b601f19841661880c866185e8565b60005b828110156188345784890151825560018201915060208501945060208101905061880f565b86831015618851578489015161884d601f89168261875a565b8355505b6001600288020188555050505b505050505050565b7f596f75206d75737420626520656e726f6c6c656420696e2074686520636f757260008201527f736520746f20636f6d706c657465206974000000000000000000000000000000602082015250565b60006188c2603183617235565b91506188cd82618866565b604082019050919050565b600060208201905081810360008301526188f1816188b5565b9050919050565b7f596f75206861766520616c726561647920636f6d706c6574656420746869732060008201527f636f757273650000000000000000000000000000000000000000000000000000602082015250565b6000618954602683617235565b915061895f826188f8565b604082019050919050565b6000602082019050818103600083015261898381618947565b9050919050565b6000819050919050565b6189a56189a082616fca565b61898a565b82525050565b600081905092915050565b60006189c182616fe3565b6189cb81856189ab565b93506189db818560208601616fff565b80840191505092915050565b60006189f38289618994565b602082019150618a0382886189b6565b9150618a0f82876189b6565b9150618a1b82866189b6565b9150618a278285618994565b602082019150618a378284618994565b602082019150819050979650505050505050565b6000608082019050618a60600083018761720b565b8181036020830152618a728186617246565b90508181036040830152618a868185617246565b90508181036060830152618a9a8184617246565b905095945050505050565b7f4e6f742073656c6563746564206173206120726576696577657220666f72207460008201527f68697320636f7572736500000000000000000000000000000000000000000000602082015250565b6000618b01602a83617235565b9150618b0c82618aa5565b604082019050919050565b60006020820190508181036000830152618b3081618af4565b9050919050565b7f52657669657720616c7265616479207375626d6974746564206279207468697360008201527f2072657669657765722e00000000000000000000000000000000000000000000602082015250565b6000618b93602a83617235565b9150618b9e82618b37565b604082019050919050565b60006020820190508181036000830152618bc281618b86565b9050919050565b7f436f7572736520646f6573206e6f742065786973740000000000000000000000600082015250565b6000618bff601583617235565b9150618c0a82618bc9565b602082019050919050565b60006020820190508181036000830152618c2e81618bf2565b9050919050565b7f416c726561647920696e20726576696577657220706f6f6c0000000000000000600082015250565b6000618c6b601883617235565b9150618c7682618c35565b602082019050919050565b60006020820190508181036000830152618c9a81618c5e565b9050919050565b7f436f7572736520616c726561647920617070726f766564000000000000000000600082015250565b6000618cd7601783617235565b9150618ce282618ca1565b602082019050919050565b60006020820190508181036000830152618d0681618cca565b9050919050565b7f596f75206861766520616c726561647920617070726f7665642074686973206360008201527f6f75727365000000000000000000000000000000000000000000000000000000602082015250565b6000618d69602583617235565b9150618d7482618d0d565b604082019050919050565b60006020820190508181036000830152618d9881618d5c565b9050919050565b6000618daa82616fca565b91507fffffffffffffffffffffffffffffffffffffffffffffffffffffffffffffffff8203618ddc57618ddb618341565b5b600182019050919050565b7f5175697a20646f6573206e6f7420657869737400000000000000000000000000600082015250565b6000618e1d601383617235565b9150618e2882618de7565b602082019050919050565b60006020820190508181036000830152618e4c81618e10565b9050919050565b7f5175657374696f6e206e6f7420666f756e6420696e2074686973207175697a00600082015250565b6000618e89601f83617235565b9150618e9482618e53565b602082019050919050565b60006020820190508181036000830152618eb881618e7c565b9050919050565b6000618eca82616fca565b9150618ed583616fca565b9250828203905081811115618eed57618eec618341565b5b92915050565b600081549050618f0281618310565b9050919050565b818103618f17575050618fef565b618f2082618ef3565b67ffffffffffffffff811115618f3957618f386176dc565b5b618f438254618310565b618f4e828285618707565b6000601f831160018114618f7d5760008415618f6b578287015490505b618f758582618778565b865550618fe8565b601f198416618f8b876185e8565b9650618f96866185e8565b60005b82811015618fbe57848901548255600182019150600185019450602081019050618f99565b86831015618fdb5784890154618fd7601f89168261875a565b8355505b6001600288020188555050505b5050505050505b565b7f4e487b7100000000000000000000000000000000000000000000000000000000600052603160045260246000fd5b7f52657669657765727320616c72656164792073656c6563746564000000000000600082015250565b6000619056601a83617235565b915061906182619020565b602082019050919050565b6000602082019050818103600083015261908581619049565b9050919050565b7f4e6f7420656e6f7567682072657669657765727320696e2074686520706f6f6c600082015250565b60006190c2602083617235565b91506190cd8261908c565b602082019050919050565b600060208201905081810360008301526190f1816190b5565b9050919050565b60006191048287618994565b6020820191506191148286618994565b6020820191506191248285618994565b6020820191506191348284618994565b60208201915081905095945050505050565b600061915182616fca565b915061915c83616fca565b92508261916c5761916b6183b2565b5b828206905092915050565b600081549050919050565b60008190508160005260206000209050919050565b60008160001c9050919050565b600073ffffffffffffffffffffffffffffffffffffffff82169050919050565b60006191d76191d283619197565b6191a4565b9050919050565b60006191ea82546191c4565b9050919050565b6000600182019050919050565b600061920982619177565b6192138185617dde565b935061921e83619182565b8060005b8381101561925657619233826191de565b61923d8882617dff565b9750619248836191f1565b925050600181019050619222565b5085935050505092915050565b6000602082019050818103600083015261927d81846191fe565b905092915050565b7f436f7572736520646f65736e2774206578697374210000000000000000000000600082015250565b60006192bb601583617235565b91506192c682619285565b602082019050919050565b600060208201905081810360008301526192ea816192ae565b9050919050565b7f4368617074657220646f65736e27742065786973740000000000000000000000600082015250565b6000619327601583617235565b9150619332826192f1565b602082019050919050565b600060208201905081810360008301526193568161931a565b9050919050565b7f436f7572736520494420616c7265616479206578697374730000000000000000600082015250565b6000619393601883617235565b915061939e8261935d565b602082019050919050565b600060208201905081810360008301526193c281619386565b9050919050565b60006193d482616fca565b91506193df83616fca565b92508282019050808211156193f7576193f6618341565b5b92915050565b600061940982846189b6565b915081905092915050565b7f50726f706f73616c20616c726561647920657865637574656400000000000000600082015250565b600061944a601983617235565b915061945582619414565b602082019050919050565b600060208201905081810360008301526194798161943d565b9050919050565b7f416c726561647920617070726f76656400000000000000000000000000000000600082015250565b60006194b6601083617235565b91506194c182619480565b602082019050919050565b600060208201905081810360008301526194e5816194a9565b9050919050565b600081905092915050565b60008190508160005260206000209050919050565b6000815461951981618310565b61952381866194ec565b9450600182166000811461953e576001811461955357619586565b60ff1983168652811515820286019350619586565b61955c856194f7565b60005b8381101561957e5781548189015260018201915060208101905061955f565b838801955050505b50505092915050565b600061959b828461950c565b915081905092915050565b7f50726f706f73616c20657865637574696f6e206661696c656400000000000000600082015250565b60006195dc601983617235565b91506195e7826195a6565b602082019050919050565b6000602082019050818103600083015261960b816195cf565b9050919050565b7f4e6f7420696e20726576696577657220706f6f6c000000000000000000000000600082015250565b6000619648601483617235565b915061965382619612565b602082019050919050565b600060208201905081810360008301526196778161963b565b9050919050565b7f4c6573736f6e20646f6573206e6f742065786973740000000000000000000000600082015250565b60006196b4601583617235565b91506196bf8261967e565b602082019050919050565b600060208201905081810360008301526196e3816196a7565b9050919050565b7f5265736f7572636520636f756e742065786365656473206d6178696d756d206160008201527f6c6c6f7765640000000000000000000000000000000000000000000000000000602082015250565b6000619746602683617235565b9150619751826196ea565b604082019050919050565b6000602082019050818103600083015261977581619739565b9050919050565b7f4e756d626572206f6620616e7377657273206d757374206d617463682074686560008201527f206e756d626572206f66207175657374696f6e73000000000000000000000000602082015250565b60006197d8603483617235565b91506197e38261977c565b604082019050919050565b60006020820190508181036000830152619807816197cb565b9050919050565b7f496e76616c69642063686f6963652073656c6563746564000000000000000000600082015250565b6000619844601783617235565b915061984f8261980e565b602082019050919050565b6000602082019050818103600083015261987381619837565b9050919050565b600060408201905061988f600083018561720b565b61989c602083018461720b565b9392505050565b7f436f7572736520646f65736e2774206578697374000000000000000000000000600082015250565b60006198d9601483617235565b91506198e4826198a3565b602082019050919050565b60006020820190508181036000830152619908816198cc565b9050919050565b7f4368617074657220646f65736e2774206e6f7420657869737400000000000000600082015250565b6000619945601983617235565b91506199508261990f565b602082019050919050565b6000602082019050818103600083015261997481619938565b9050919050565b7f5175697a20646f65736e27742065786973740000000000000000000000000000600082015250565b60006199b1601283617235565b91506199bc8261997b565b602082019050919050565b600060208201905081810360008301526199e0816199a4565b9050919050565b60006060820190506199fc60008301866173a6565b619a09602083018561720b565b619a16604083018461720b565b949350505050565b7f4c696d6974204578636565646564210000000000000000000000000000000000600082015250565b6000619a54600f83617235565b9150619a5f82619a1e565b602082019050919050565b60006020820190508181036000830152619a8381619a47565b9050919050565b7f53636f726573206d757374206265206265747765656e203120616e642031302e600082015250565b6000619ac0602083617235565b9150619acb82619a8a565b602082019050919050565b60006020820190508181036000830152619aef81619ab3565b9050919050565b6000604082019050619b0b60008301856173a6565b619b186020830184617486565b939250505056fea264697066735822122038745793e305b533dd8c6239d8c11951f5bec82d5439dee60bf27d40507b282c64736f6c634300081b0033",
  "linkReferences": {},
  "deployedLinkReferences": {}
}