{
  "_format": "hh-sol-artifact-1",
  "contractName": "Ecosystem3",
  "sourceName": "contracts/Ecosystem Contracts/Ecosystem3.sol",
  "abi": [
    {
      "inputs": [
        {
          "internalType": "address[]",
          "name": "_reviewers",
          "type": "address[]"
        }
      ],
      "stateMutability": "nonpayable",
      "type": "constructor"
    },
    {
      "inputs": [],
      "name": "AccessControlBadConfirmation",
      "type": "error"
    },
    {
      "inputs": [
        {
          "internalType": "address",
          "name": "account",
          "type": "address"
        },
        {
          "internalType": "bytes32",
          "name": "neededRole",
          "type": "bytes32"
        }
      ],
      "name": "AccessControlUnauthorizedAccount",
      "type": "error"
    },
    {
      "inputs": [
        {
          "internalType": "address",
          "name": "spender",
          "type": "address"
        },
        {
          "internalType": "uint256",
          "name": "allowance",
          "type": "uint256"
        },
        {
          "internalType": "uint256",
          "name": "needed",
          "type": "uint256"
        }
      ],
      "name": "ERC20InsufficientAllowance",
      "type": "error"
    },
    {
      "inputs": [
        {
          "internalType": "address",
          "name": "sender",
          "type": "address"
        },
        {
          "internalType": "uint256",
          "name": "balance",
          "type": "uint256"
        },
        {
          "internalType": "uint256",
          "name": "needed",
          "type": "uint256"
        }
      ],
      "name": "ERC20InsufficientBalance",
      "type": "error"
    },
    {
      "inputs": [
        {
          "internalType": "address",
          "name": "approver",
          "type": "address"
        }
      ],
      "name": "ERC20InvalidApprover",
      "type": "error"
    },
    {
      "inputs": [
        {
          "internalType": "address",
          "name": "receiver",
          "type": "address"
        }
      ],
      "name": "ERC20InvalidReceiver",
      "type": "error"
    },
    {
      "inputs": [
        {
          "internalType": "address",
          "name": "sender",
          "type": "address"
        }
      ],
      "name": "ERC20InvalidSender",
      "type": "error"
    },
    {
      "inputs": [
        {
          "internalType": "address",
          "name": "spender",
          "type": "address"
        }
      ],
      "name": "ERC20InvalidSpender",
      "type": "error"
    },
    {
      "inputs": [],
      "name": "ReentrancyGuardReentrantCall",
      "type": "error"
    },
    {
      "anonymous": false,
      "inputs": [
        {
          "indexed": true,
          "internalType": "address",
          "name": "owner",
          "type": "address"
        },
        {
          "indexed": true,
          "internalType": "address",
          "name": "spender",
          "type": "address"
        },
        {
          "indexed": false,
          "internalType": "uint256",
          "name": "value",
          "type": "uint256"
        }
      ],
      "name": "Approval",
      "type": "event"
    },
    {
      "anonymous": false,
      "inputs": [
        {
          "indexed": true,
          "internalType": "address",
          "name": "_account",
          "type": "address"
        },
        {
          "indexed": false,
          "internalType": "uint256",
          "name": "_amount",
          "type": "uint256"
        }
      ],
      "name": "BurnSuccess",
      "type": "event"
    },
    {
      "anonymous": false,
      "inputs": [
        {
          "indexed": false,
          "internalType": "uint256",
          "name": "certificateId",
          "type": "uint256"
        },
        {
          "indexed": false,
          "internalType": "string",
          "name": "courseName",
          "type": "string"
        },
        {
          "indexed": false,
          "internalType": "string",
          "name": "cert_issuer",
          "type": "string"
        },
        {
          "indexed": false,
          "internalType": "string",
          "name": "learner",
          "type": "string"
        }
      ],
      "name": "CertificateIssued",
      "type": "event"
    },
    {
      "anonymous": false,
      "inputs": [
        {
          "indexed": true,
          "internalType": "uint256",
          "name": "_courseId",
          "type": "uint256"
        },
        {
          "indexed": true,
          "internalType": "uint256",
          "name": "_chaterId",
          "type": "uint256"
        }
      ],
      "name": "ChapterDeletedSuccess",
      "type": "event"
    },
    {
      "anonymous": false,
      "inputs": [
        {
          "indexed": true,
          "internalType": "uint256",
          "name": "_courseId",
          "type": "uint256"
        },
        {
          "indexed": true,
          "internalType": "uint256",
          "name": "_chapterId",
          "type": "uint256"
        },
        {
          "indexed": false,
          "internalType": "string",
          "name": "_chapterName",
          "type": "string"
        }
      ],
      "name": "ChapterEdited",
      "type": "event"
    },
    {
      "anonymous": false,
      "inputs": [
        {
          "indexed": true,
          "internalType": "uint256",
          "name": "_courseId",
          "type": "uint256"
        },
        {
          "indexed": true,
          "internalType": "uint256",
          "name": "numberOfChapters",
          "type": "uint256"
        }
      ],
      "name": "ChaptersAddedSuccessfully",
      "type": "event"
    },
    {
      "anonymous": false,
      "inputs": [
        {
          "indexed": false,
          "internalType": "uint256",
          "name": "questionId",
          "type": "uint256"
        },
        {
          "indexed": false,
          "internalType": "uint256",
          "name": "choiceId",
          "type": "uint256"
        },
        {
          "indexed": false,
          "internalType": "string",
          "name": "option",
          "type": "string"
        }
      ],
      "name": "ChoiceAdded",
      "type": "event"
    },
    {
      "anonymous": false,
      "inputs": [
        {
          "indexed": true,
          "internalType": "uint256",
          "name": "_courseID",
          "type": "uint256"
        },
        {
          "indexed": true,
          "internalType": "string",
          "name": "_courseName",
          "type": "string"
        },
        {
          "indexed": false,
          "internalType": "bool",
          "name": "_approved",
          "type": "bool"
        }
      ],
      "name": "CourseCreationSuccess",
      "type": "event"
    },
    {
      "anonymous": false,
      "inputs": [
        {
          "indexed": true,
          "internalType": "uint256",
          "name": "_courseId",
          "type": "uint256"
        },
        {
          "indexed": false,
          "internalType": "address",
          "name": "owner",
          "type": "address"
        }
      ],
      "name": "CourseDeleteSuccess",
      "type": "event"
    },
    {
      "anonymous": false,
      "inputs": [
        {
          "indexed": true,
          "internalType": "uint256",
          "name": "_courseId",
          "type": "uint256"
        },
        {
          "indexed": false,
          "internalType": "string",
          "name": "_courseName",
          "type": "string"
        }
      ],
      "name": "CourseEdited",
      "type": "event"
    },
    {
      "anonymous": false,
      "inputs": [
        {
          "indexed": true,
          "internalType": "address",
          "name": "_to",
          "type": "address"
        },
        {
          "indexed": true,
          "internalType": "uint256",
          "name": "_amount",
          "type": "uint256"
        }
      ],
      "name": "EcosystemPoolUpdate",
      "type": "event"
    },
    {
      "anonymous": false,
      "inputs": [
        {
          "indexed": true,
          "internalType": "uint256",
          "name": "_courseId",
          "type": "uint256"
        },
        {
          "indexed": true,
          "internalType": "address",
          "name": "_by",
          "type": "address"
        }
      ],
      "name": "EnrollmentSuccess",
      "type": "event"
    },
    {
      "anonymous": false,
      "inputs": [
        {
          "indexed": true,
          "internalType": "uint256",
          "name": "_lessonId",
          "type": "uint256"
        },
        {
          "indexed": true,
          "internalType": "string",
          "name": "_lessonName",
          "type": "string"
        },
        {
          "indexed": true,
          "internalType": "uint256",
          "name": "_additonalResources",
          "type": "uint256"
        }
      ],
      "name": "LessonCreationSuccess",
      "type": "event"
    },
    {
      "anonymous": false,
      "inputs": [
        {
          "indexed": true,
          "internalType": "uint256",
          "name": "_chapterId",
          "type": "uint256"
        },
        {
          "indexed": true,
          "internalType": "uint256",
          "name": "_lessonId",
          "type": "uint256"
        }
      ],
      "name": "LessonDeleted",
      "type": "event"
    },
    {
      "anonymous": false,
      "inputs": [
        {
          "indexed": true,
          "internalType": "uint256",
          "name": "_lessonId",
          "type": "uint256"
        },
        {
          "indexed": false,
          "internalType": "string",
          "name": "_lessonName",
          "type": "string"
        }
      ],
      "name": "LessonEdited",
      "type": "event"
    },
    {
      "anonymous": false,
      "inputs": [
        {
          "indexed": true,
          "internalType": "uint256",
          "name": "_chapterId",
          "type": "uint256"
        },
        {
          "indexed": true,
          "internalType": "uint256",
          "name": "_lessonId",
          "type": "uint256"
        },
        {
          "indexed": false,
          "internalType": "address",
          "name": "learner",
          "type": "address"
        }
      ],
      "name": "LessonMarkedAsRead",
      "type": "event"
    },
    {
      "anonymous": false,
      "inputs": [
        {
          "indexed": true,
          "internalType": "address",
          "name": "_to",
          "type": "address"
        },
        {
          "indexed": true,
          "internalType": "uint256",
          "name": "_amount",
          "type": "uint256"
        }
      ],
      "name": "MintSuccess",
      "type": "event"
    },
    {
      "anonymous": false,
      "inputs": [
        {
          "indexed": true,
          "internalType": "uint256",
          "name": "proposalId",
          "type": "uint256"
        },
        {
          "indexed": false,
          "internalType": "address",
          "name": "approver",
          "type": "address"
        }
      ],
      "name": "MultiSigProposalApproved",
      "type": "event"
    },
    {
      "anonymous": false,
      "inputs": [
        {
          "indexed": true,
          "internalType": "uint256",
          "name": "proposalId",
          "type": "uint256"
        },
        {
          "indexed": false,
          "internalType": "address",
          "name": "proposer",
          "type": "address"
        }
      ],
      "name": "MultiSigProposalCreated",
      "type": "event"
    },
    {
      "anonymous": false,
      "inputs": [
        {
          "indexed": true,
          "internalType": "uint256",
          "name": "proposalId",
          "type": "uint256"
        }
      ],
      "name": "MultiSigProposalExecuted",
      "type": "event"
    },
    {
      "anonymous": false,
      "inputs": [
        {
          "indexed": false,
          "internalType": "uint256",
          "name": "quizId",
          "type": "uint256"
        },
        {
          "indexed": false,
          "internalType": "uint256",
          "name": "questionId",
          "type": "uint256"
        },
        {
          "indexed": false,
          "internalType": "string",
          "name": "questionText",
          "type": "string"
        }
      ],
      "name": "QuestionAdded",
      "type": "event"
    },
    {
      "anonymous": false,
      "inputs": [
        {
          "indexed": true,
          "internalType": "uint256",
          "name": "_quizId",
          "type": "uint256"
        },
        {
          "indexed": true,
          "internalType": "uint256",
          "name": "_questionId",
          "type": "uint256"
        }
      ],
      "name": "QuestionDeleted",
      "type": "event"
    },
    {
      "anonymous": false,
      "inputs": [
        {
          "indexed": true,
          "internalType": "uint256",
          "name": "_quizId",
          "type": "uint256"
        },
        {
          "indexed": true,
          "internalType": "string",
          "name": "_title",
          "type": "string"
        }
      ],
      "name": "QuizCreatedSuccess",
      "type": "event"
    },
    {
      "anonymous": false,
      "inputs": [
        {
          "indexed": true,
          "internalType": "uint256",
          "name": "_lessonId",
          "type": "uint256"
        },
        {
          "indexed": true,
          "internalType": "uint256",
          "name": "_quizId",
          "type": "uint256"
        }
      ],
      "name": "QuizDeleted",
      "type": "event"
    },
    {
      "anonymous": false,
      "inputs": [
        {
          "indexed": true,
          "internalType": "uint256",
          "name": "_lessonId",
          "type": "uint256"
        },
        {
          "indexed": true,
          "internalType": "uint256",
          "name": "_quizId",
          "type": "uint256"
        },
        {
          "indexed": false,
          "internalType": "string",
          "name": "_quizTitle",
          "type": "string"
        }
      ],
      "name": "QuizEdited",
      "type": "event"
    },
    {
      "anonymous": false,
      "inputs": [
        {
          "indexed": true,
          "internalType": "address",
          "name": "learner",
          "type": "address"
        },
        {
          "indexed": false,
          "internalType": "uint256",
          "name": "quizId",
          "type": "uint256"
        },
        {
          "indexed": false,
          "internalType": "uint256",
          "name": "score",
          "type": "uint256"
        }
      ],
      "name": "QuizSubmitted",
      "type": "event"
    },
    {
      "anonymous": false,
      "inputs": [
        {
          "indexed": true,
          "internalType": "uint256",
          "name": "_lessonId",
          "type": "uint256"
        },
        {
          "indexed": true,
          "internalType": "uint256",
          "name": "resourceCount",
          "type": "uint256"
        }
      ],
      "name": "ResourceAddSuccess",
      "type": "event"
    },
    {
      "anonymous": false,
      "inputs": [
        {
          "indexed": true,
          "internalType": "address",
          "name": "reviewer",
          "type": "address"
        }
      ],
      "name": "ReviewerAddedToPool",
      "type": "event"
    },
    {
      "anonymous": false,
      "inputs": [
        {
          "indexed": true,
          "internalType": "address",
          "name": "reviewer",
          "type": "address"
        }
      ],
      "name": "ReviewerRemovedFromPool",
      "type": "event"
    },
    {
      "anonymous": false,
      "inputs": [
        {
          "indexed": true,
          "internalType": "uint256",
          "name": "courseId",
          "type": "uint256"
        },
        {
          "indexed": false,
          "internalType": "address[]",
          "name": "reviewers",
          "type": "address[]"
        }
      ],
      "name": "ReviewersSelected",
      "type": "event"
    },
    {
      "anonymous": false,
      "inputs": [
        {
          "indexed": true,
          "internalType": "bytes32",
          "name": "role",
          "type": "bytes32"
        },
        {
          "indexed": true,
          "internalType": "bytes32",
          "name": "previousAdminRole",
          "type": "bytes32"
        },
        {
          "indexed": true,
          "internalType": "bytes32",
          "name": "newAdminRole",
          "type": "bytes32"
        }
      ],
      "name": "RoleAdminChanged",
      "type": "event"
    },
    {
      "anonymous": false,
      "inputs": [
        {
          "indexed": true,
          "internalType": "bytes32",
          "name": "role",
          "type": "bytes32"
        },
        {
          "indexed": true,
          "internalType": "address",
          "name": "account",
          "type": "address"
        },
        {
          "indexed": true,
          "internalType": "address",
          "name": "sender",
          "type": "address"
        }
      ],
      "name": "RoleGranted",
      "type": "event"
    },
    {
      "anonymous": false,
      "inputs": [
        {
          "indexed": true,
          "internalType": "bytes32",
          "name": "role",
          "type": "bytes32"
        },
        {
          "indexed": true,
          "internalType": "address",
          "name": "account",
          "type": "address"
        },
        {
          "indexed": true,
          "internalType": "address",
          "name": "sender",
          "type": "address"
        }
      ],
      "name": "RoleRevoked",
      "type": "event"
    },
    {
      "anonymous": false,
      "inputs": [
        {
          "indexed": true,
          "internalType": "address",
          "name": "from",
          "type": "address"
        },
        {
          "indexed": true,
          "internalType": "address",
          "name": "to",
          "type": "address"
        },
        {
          "indexed": false,
          "internalType": "uint256",
          "name": "value",
          "type": "uint256"
        }
      ],
      "name": "Transfer",
      "type": "event"
    },
    {
      "anonymous": false,
      "inputs": [
        {
          "indexed": true,
          "internalType": "uint256",
          "name": "_courseId",
          "type": "uint256"
        },
        {
          "indexed": true,
          "internalType": "address",
          "name": "_by",
          "type": "address"
        }
      ],
      "name": "unEnrollmentSuccess",
      "type": "event"
    },
    {
      "inputs": [],
      "name": "COURSE_COMPLETION_REWARD",
      "outputs": [
        {
          "internalType": "uint256",
          "name": "",
          "type": "uint256"
        }
      ],
      "stateMutability": "view",
      "type": "function"
    },
    {
      "inputs": [],
      "name": "COURSE_OWNER_ROLE",
      "outputs": [
        {
          "internalType": "bytes32",
          "name": "",
          "type": "bytes32"
        }
      ],
      "stateMutability": "view",
      "type": "function"
    },
    {
      "inputs": [],
      "name": "CREATE_COURSE_REWARD",
      "outputs": [
        {
          "internalType": "uint256",
          "name": "",
          "type": "uint256"
        }
      ],
      "stateMutability": "view",
      "type": "function"
    },
    {
      "inputs": [],
      "name": "DEFAULT_ADMIN_ROLE",
      "outputs": [
        {
          "internalType": "bytes32",
          "name": "",
          "type": "bytes32"
        }
      ],
      "stateMutability": "view",
      "type": "function"
    },
    {
      "inputs": [],
      "name": "ECOSYSTEM_POOL",
      "outputs": [
        {
          "internalType": "uint256",
          "name": "",
          "type": "uint256"
        }
      ],
      "stateMutability": "view",
      "type": "function"
    },
    {
      "inputs": [],
      "name": "ENROLLMENT_REWARD",
      "outputs": [
        {
          "internalType": "uint256",
          "name": "",
          "type": "uint256"
        }
      ],
      "stateMutability": "view",
      "type": "function"
    },
    {
      "inputs": [],
      "name": "MAX_SCORE",
      "outputs": [
        {
          "internalType": "uint256",
          "name": "",
          "type": "uint256"
        }
      ],
      "stateMutability": "view",
      "type": "function"
    },
    {
      "inputs": [],
      "name": "MAX_SUPPLY",
      "outputs": [
        {
          "internalType": "uint256",
          "name": "",
          "type": "uint256"
        }
      ],
      "stateMutability": "view",
      "type": "function"
    },
    {
      "inputs": [],
      "name": "MIN_APPROVAL_SCORE",
      "outputs": [
        {
          "internalType": "uint256",
          "name": "",
          "type": "uint256"
        }
      ],
      "stateMutability": "view",
      "type": "function"
    },
    {
      "inputs": [],
      "name": "MULTISIG_APPROVER",
      "outputs": [
        {
          "internalType": "bytes32",
          "name": "",
          "type": "bytes32"
        }
      ],
      "stateMutability": "view",
      "type": "function"
    },
    {
      "inputs": [],
      "name": "QUIZ_COMPLETION_REWARD",
      "outputs": [
        {
          "internalType": "uint256",
          "name": "",
          "type": "uint256"
        }
      ],
      "stateMutability": "view",
      "type": "function"
    },
    {
      "inputs": [],
      "name": "REQUIRED_APPROVALS",
      "outputs": [
        {
          "internalType": "uint256",
          "name": "",
          "type": "uint256"
        }
      ],
      "stateMutability": "view",
      "type": "function"
    },
    {
      "inputs": [],
      "name": "REVIEWER_ROLE",
      "outputs": [
        {
          "internalType": "bytes32",
          "name": "",
          "type": "bytes32"
        }
      ],
      "stateMutability": "view",
      "type": "function"
    },
    {
      "inputs": [
        {
          "internalType": "address",
          "name": "",
          "type": "address"
        }
      ],
      "name": "accountCourses",
      "outputs": [
        {
          "internalType": "uint256",
          "name": "courseCount",
          "type": "uint256"
        }
      ],
      "stateMutability": "view",
      "type": "function"
    },
    {
      "inputs": [
        {
          "internalType": "uint256",
          "name": "_courseId",
          "type": "uint256"
        },
        {
          "internalType": "string[]",
          "name": "_chapters",
          "type": "string[]"
        },
        {
          "internalType": "uint256[]",
          "name": "_durations",
          "type": "uint256[]"
        }
      ],
      "name": "addChapters",
      "outputs": [
        {
          "internalType": "bool",
          "name": "",
          "type": "bool"
        }
      ],
      "stateMutability": "nonpayable",
      "type": "function"
    },
    {
      "inputs": [
        {
          "internalType": "uint256",
          "name": "_chapterId",
          "type": "uint256"
        },
        {
          "internalType": "string",
          "name": "_lessonName",
          "type": "string"
        },
        {
          "internalType": "string",
          "name": "_lessonContent",
          "type": "string"
        }
      ],
      "name": "addLesson",
      "outputs": [],
      "stateMutability": "nonpayable",
      "type": "function"
    },
    {
      "inputs": [
        {
          "internalType": "address",
          "name": "newApprover",
          "type": "address"
        }
      ],
      "name": "addMultiSigApprover",
      "outputs": [],
      "stateMutability": "nonpayable",
      "type": "function"
    },
    {
      "inputs": [
        {
          "internalType": "uint256",
          "name": "_lessonId",
          "type": "uint256"
        },
        {
          "internalType": "enum Ecosystem.ContentType",
          "name": "contentType",
          "type": "uint8"
        },
        {
          "components": [
            {
              "internalType": "enum Ecosystem.ContentType",
              "name": "contentType",
              "type": "uint8"
            },
            {
              "internalType": "string",
              "name": "url",
              "type": "string"
            },
            {
              "internalType": "string",
              "name": "name",
              "type": "string"
            }
          ],
          "internalType": "struct Ecosystem.Resource[]",
          "name": "_resources",
          "type": "tuple[]"
        }
      ],
      "name": "addResourcesToLesson",
      "outputs": [],
      "stateMutability": "nonpayable",
      "type": "function"
    },
    {
      "inputs": [
        {
          "internalType": "address",
          "name": "newReviewer",
          "type": "address"
        }
      ],
      "name": "addReviewer",
      "outputs": [],
      "stateMutability": "nonpayable",
      "type": "function"
    },
    {
      "inputs": [
        {
          "internalType": "address",
          "name": "owner",
          "type": "address"
        },
        {
          "internalType": "address",
          "name": "spender",
          "type": "address"
        }
      ],
      "name": "allowance",
      "outputs": [
        {
          "internalType": "uint256",
          "name": "",
          "type": "uint256"
        }
      ],
      "stateMutability": "view",
      "type": "function"
    },
    {
      "inputs": [
        {
          "internalType": "address",
          "name": "",
          "type": "address"
        },
        {
          "internalType": "uint256",
          "name": "",
          "type": "uint256"
        }
      ],
      "name": "approvals",
      "outputs": [
        {
          "internalType": "bool",
          "name": "",
          "type": "bool"
        }
      ],
      "stateMutability": "view",
      "type": "function"
    },
    {
      "inputs": [
        {
          "internalType": "address",
          "name": "spender",
          "type": "address"
        },
        {
          "internalType": "uint256",
          "name": "value",
          "type": "uint256"
        }
      ],
      "name": "approve",
      "outputs": [
        {
          "internalType": "bool",
          "name": "",
          "type": "bool"
        }
      ],
      "stateMutability": "nonpayable",
      "type": "function"
    },
    {
      "inputs": [
        {
          "internalType": "uint256",
          "name": "_courseId",
          "type": "uint256"
        }
      ],
      "name": "approveCourse",
      "outputs": [],
      "stateMutability": "nonpayable",
      "type": "function"
    },
    {
      "inputs": [
        {
          "internalType": "uint256",
          "name": "_proposalId",
          "type": "uint256"
        }
      ],
      "name": "approveMultiSigProposal",
      "outputs": [],
      "stateMutability": "nonpayable",
      "type": "function"
    },
    {
      "inputs": [
        {
          "internalType": "address",
          "name": "account",
          "type": "address"
        }
      ],
      "name": "balanceOf",
      "outputs": [
        {
          "internalType": "uint256",
          "name": "",
          "type": "uint256"
        }
      ],
      "stateMutability": "view",
      "type": "function"
    },
    {
      "inputs": [
        {
          "internalType": "uint256",
          "name": "",
          "type": "uint256"
        }
      ],
      "name": "certificates",
      "outputs": [
        {
          "internalType": "uint256",
          "name": "certId",
          "type": "uint256"
        },
        {
          "internalType": "uint256",
          "name": "courseId",
          "type": "uint256"
        },
        {
          "internalType": "string",
          "name": "learner",
          "type": "string"
        },
        {
          "internalType": "string",
          "name": "cert_issuer",
          "type": "string"
        },
        {
          "internalType": "uint256",
          "name": "issue_date",
          "type": "uint256"
        },
        {
          "internalType": "string",
          "name": "courseName",
          "type": "string"
        },
        {
          "internalType": "address",
          "name": "owner",
          "type": "address"
        }
      ],
      "stateMutability": "view",
      "type": "function"
    },
    {
      "inputs": [
        {
          "internalType": "uint256",
          "name": "",
          "type": "uint256"
        }
      ],
      "name": "chapter",
      "outputs": [
        {
          "internalType": "uint256",
          "name": "courseId",
          "type": "uint256"
        },
        {
          "internalType": "uint256",
          "name": "chapterId",
          "type": "uint256"
        },
        {
          "internalType": "string",
          "name": "chapterName",
          "type": "string"
        },
        {
          "internalType": "uint256",
          "name": "duration",
          "type": "uint256"
        },
        {
          "internalType": "bool",
          "name": "exists",
          "type": "bool"
        }
      ],
      "stateMutability": "view",
      "type": "function"
    },
    {
      "inputs": [
        {
          "internalType": "uint256",
          "name": "",
          "type": "uint256"
        },
        {
          "internalType": "uint256",
          "name": "",
          "type": "uint256"
        }
      ],
      "name": "chapterLessons",
      "outputs": [
        {
          "internalType": "string",
          "name": "",
          "type": "string"
        }
      ],
      "stateMutability": "view",
      "type": "function"
    },
    {
      "inputs": [
        {
          "internalType": "uint256",
          "name": "",
          "type": "uint256"
        },
        {
          "internalType": "address",
          "name": "",
          "type": "address"
        }
      ],
      "name": "completedQuizzes",
      "outputs": [
        {
          "internalType": "bool",
          "name": "",
          "type": "bool"
        }
      ],
      "stateMutability": "view",
      "type": "function"
    },
    {
      "inputs": [
        {
          "internalType": "uint256",
          "name": "",
          "type": "uint256"
        },
        {
          "internalType": "uint256",
          "name": "",
          "type": "uint256"
        }
      ],
      "name": "courseChapters",
      "outputs": [
        {
          "internalType": "uint256",
          "name": "courseId",
          "type": "uint256"
        },
        {
          "internalType": "uint256",
          "name": "chapterId",
          "type": "uint256"
        },
        {
          "internalType": "string",
          "name": "chapterName",
          "type": "string"
        },
        {
          "internalType": "uint256",
          "name": "duration",
          "type": "uint256"
        },
        {
          "internalType": "bool",
          "name": "exists",
          "type": "bool"
        }
      ],
      "stateMutability": "view",
      "type": "function"
    },
    {
      "inputs": [
        {
          "internalType": "uint256",
          "name": "",
          "type": "uint256"
        },
        {
          "internalType": "address",
          "name": "",
          "type": "address"
        }
      ],
      "name": "courseCompleted",
      "outputs": [
        {
          "internalType": "bool",
          "name": "",
          "type": "bool"
        }
      ],
      "stateMutability": "view",
      "type": "function"
    },
    {
      "inputs": [],
      "name": "courseCount",
      "outputs": [
        {
          "internalType": "uint256",
          "name": "",
          "type": "uint256"
        }
      ],
      "stateMutability": "view",
      "type": "function"
    },
    {
      "inputs": [
        {
          "internalType": "uint256",
          "name": "",
          "type": "uint256"
        }
      ],
      "name": "courseObject",
      "outputs": [
        {
          "internalType": "uint256",
          "name": "courseId",
          "type": "uint256"
        },
        {
          "internalType": "string",
          "name": "courseName",
          "type": "string"
        },
        {
          "internalType": "string",
          "name": "description",
          "type": "string"
        },
        {
          "internalType": "bool",
          "name": "approved",
          "type": "bool"
        },
        {
          "internalType": "uint256",
          "name": "approvalCount",
          "type": "uint256"
        },
        {
          "internalType": "address",
          "name": "creator",
          "type": "address"
        },
        {
          "internalType": "bool",
          "name": "exists",
          "type": "bool"
        },
        {
          "internalType": "enum Ecosystem.DifficultyLevel",
          "name": "difficultyLevel",
          "type": "uint8"
        }
      ],
      "stateMutability": "view",
      "type": "function"
    },
    {
      "inputs": [
        {
          "internalType": "uint256",
          "name": "",
          "type": "uint256"
        }
      ],
      "name": "courseReviewInitiated",
      "outputs": [
        {
          "internalType": "bool",
          "name": "",
          "type": "bool"
        }
      ],
      "stateMutability": "view",
      "type": "function"
    },
    {
      "inputs": [
        {
          "internalType": "uint256",
          "name": "",
          "type": "uint256"
        },
        {
          "internalType": "uint256",
          "name": "",
          "type": "uint256"
        }
      ],
      "name": "courseReviewers",
      "outputs": [
        {
          "internalType": "address",
          "name": "",
          "type": "address"
        }
      ],
      "stateMutability": "view",
      "type": "function"
    },
    {
      "inputs": [
        {
          "internalType": "string",
          "name": "_courseName",
          "type": "string"
        },
        {
          "internalType": "string",
          "name": "_description",
          "type": "string"
        },
        {
          "internalType": "enum Ecosystem.DifficultyLevel",
          "name": "_difficultyLevel",
          "type": "uint8"
        }
      ],
      "name": "createCourse",
      "outputs": [
        {
          "internalType": "bool",
          "name": "",
          "type": "bool"
        }
      ],
      "stateMutability": "nonpayable",
      "type": "function"
    },
    {
      "inputs": [
        {
          "internalType": "uint256",
          "name": "_quizId",
          "type": "uint256"
        },
        {
          "internalType": "string",
          "name": "_questionText",
          "type": "string"
        },
        {
          "internalType": "string[]",
          "name": "_options",
          "type": "string[]"
        },
        {
          "internalType": "uint8",
          "name": "_correctChoiceIndex",
          "type": "uint8"
        }
      ],
      "name": "createQuestionWithChoices",
      "outputs": [],
      "stateMutability": "nonpayable",
      "type": "function"
    },
    {
      "inputs": [
        {
          "internalType": "uint256",
          "name": "_lessonId",
          "type": "uint256"
        },
        {
          "internalType": "string",
          "name": "_title",
          "type": "string"
        }
      ],
      "name": "createQuiz",
      "outputs": [
        {
          "internalType": "uint256",
          "name": "",
          "type": "uint256"
        }
      ],
      "stateMutability": "nonpayable",
      "type": "function"
    },
    {
      "inputs": [],
      "name": "decimals",
      "outputs": [
        {
          "internalType": "uint8",
          "name": "",
          "type": "uint8"
        }
      ],
      "stateMutability": "view",
      "type": "function"
    },
    {
      "inputs": [
        {
          "internalType": "uint256",
          "name": "_courseId",
          "type": "uint256"
        },
        {
          "internalType": "uint256",
          "name": "_chapterId",
          "type": "uint256"
        }
      ],
      "name": "deleteChapter",
      "outputs": [
        {
          "internalType": "bool",
          "name": "",
          "type": "bool"
        }
      ],
      "stateMutability": "nonpayable",
      "type": "function"
    },
    {
      "inputs": [
        {
          "internalType": "uint256",
          "name": "_courseId",
          "type": "uint256"
        }
      ],
      "name": "deleteCourse",
      "outputs": [
        {
          "internalType": "bool",
          "name": "",
          "type": "bool"
        }
      ],
      "stateMutability": "nonpayable",
      "type": "function"
    },
    {
      "inputs": [
        {
          "internalType": "uint256",
          "name": "_chapterId",
          "type": "uint256"
        },
        {
          "internalType": "uint256",
          "name": "_lessonId",
          "type": "uint256"
        }
      ],
      "name": "deleteLesson",
      "outputs": [
        {
          "internalType": "bool",
          "name": "",
          "type": "bool"
        }
      ],
      "stateMutability": "nonpayable",
      "type": "function"
    },
    {
      "inputs": [
        {
          "internalType": "uint256",
          "name": "_quizId",
          "type": "uint256"
        },
        {
          "internalType": "uint256",
          "name": "_questionId",
          "type": "uint256"
        }
      ],
      "name": "deleteQuestion",
      "outputs": [
        {
          "internalType": "bool",
          "name": "",
          "type": "bool"
        }
      ],
      "stateMutability": "nonpayable",
      "type": "function"
    },
    {
      "inputs": [
        {
          "internalType": "uint256",
          "name": "_lessonId",
          "type": "uint256"
        },
        {
          "internalType": "uint256",
          "name": "_quizId",
          "type": "uint256"
        }
      ],
      "name": "deleteQuiz",
      "outputs": [
        {
          "internalType": "bool",
          "name": "",
          "type": "bool"
        }
      ],
      "stateMutability": "nonpayable",
      "type": "function"
    },
    {
      "inputs": [],
      "name": "ecosystemPoolSupply",
      "outputs": [
        {
          "internalType": "uint256",
          "name": "",
          "type": "uint256"
        }
      ],
      "stateMutability": "view",
      "type": "function"
    },
    {
      "inputs": [
        {
          "internalType": "uint256",
          "name": "_courseId",
          "type": "uint256"
        },
        {
          "internalType": "uint256",
          "name": "_chapterId",
          "type": "uint256"
        },
        {
          "internalType": "string",
          "name": "_chapterName",
          "type": "string"
        }
      ],
      "name": "editChapter",
      "outputs": [
        {
          "internalType": "bool",
          "name": "",
          "type": "bool"
        }
      ],
      "stateMutability": "nonpayable",
      "type": "function"
    },
    {
      "inputs": [
        {
          "internalType": "uint256",
          "name": "_courseId",
          "type": "uint256"
        },
        {
          "internalType": "string",
          "name": "_courseName",
          "type": "string"
        }
      ],
      "name": "editCourse",
      "outputs": [
        {
          "internalType": "bool",
          "name": "",
          "type": "bool"
        }
      ],
      "stateMutability": "nonpayable",
      "type": "function"
    },
    {
      "inputs": [
        {
          "internalType": "uint256",
          "name": "_lessonId",
          "type": "uint256"
        },
        {
          "internalType": "string",
          "name": "_lessonName",
          "type": "string"
        },
        {
          "internalType": "string",
          "name": "_lessonContent",
          "type": "string"
        },
        {
          "components": [
            {
              "internalType": "enum Ecosystem.ContentType",
              "name": "contentType",
              "type": "uint8"
            },
            {
              "internalType": "string",
              "name": "url",
              "type": "string"
            },
            {
              "internalType": "string",
              "name": "name",
              "type": "string"
            }
          ],
          "internalType": "struct Ecosystem.Resource[]",
          "name": "_additionalResources",
          "type": "tuple[]"
        }
      ],
      "name": "editLesson",
      "outputs": [
        {
          "internalType": "bool",
          "name": "",
          "type": "bool"
        }
      ],
      "stateMutability": "nonpayable",
      "type": "function"
    },
    {
      "inputs": [
        {
          "internalType": "uint256",
          "name": "_lessonId",
          "type": "uint256"
        },
        {
          "internalType": "uint256",
          "name": "_quizId",
          "type": "uint256"
        },
        {
          "internalType": "string",
          "name": "_quizTitle",
          "type": "string"
        }
      ],
      "name": "editQuiz",
      "outputs": [],
      "stateMutability": "nonpayable",
      "type": "function"
    },
    {
      "inputs": [
        {
          "internalType": "uint256",
          "name": "_courseId",
          "type": "uint256"
        }
      ],
      "name": "enroll",
      "outputs": [
        {
          "internalType": "bool",
          "name": "",
          "type": "bool"
        }
      ],
      "stateMutability": "nonpayable",
      "type": "function"
    },
    {
      "inputs": [],
      "name": "getAllChapters",
      "outputs": [
        {
          "components": [
            {
              "internalType": "uint256",
              "name": "courseId",
              "type": "uint256"
            },
            {
              "internalType": "uint256",
              "name": "chapterId",
              "type": "uint256"
            },
            {
              "internalType": "string",
              "name": "chapterName",
              "type": "string"
            },
            {
              "internalType": "uint256",
              "name": "duration",
              "type": "uint256"
            },
            {
              "internalType": "bool",
              "name": "exists",
              "type": "bool"
            }
          ],
          "internalType": "struct Ecosystem.Chapter[]",
          "name": "",
          "type": "tuple[]"
        }
      ],
      "stateMutability": "view",
      "type": "function"
    },
    {
      "inputs": [],
      "name": "getAllCourses",
      "outputs": [
        {
          "components": [
            {
              "internalType": "uint256",
              "name": "courseId",
              "type": "uint256"
            },
            {
              "internalType": "string",
              "name": "courseName",
              "type": "string"
            },
            {
              "internalType": "string",
              "name": "description",
              "type": "string"
            },
            {
              "internalType": "bool",
              "name": "approved",
              "type": "bool"
            },
            {
              "internalType": "uint256",
              "name": "approvalCount",
              "type": "uint256"
            },
            {
              "internalType": "address",
              "name": "creator",
              "type": "address"
            },
            {
              "internalType": "bool",
              "name": "exists",
              "type": "bool"
            },
            {
              "internalType": "address[]",
              "name": "enrolledStudents",
              "type": "address[]"
            },
            {
              "internalType": "enum Ecosystem.DifficultyLevel",
              "name": "difficultyLevel",
              "type": "uint8"
            }
          ],
          "internalType": "struct Ecosystem.Course[]",
          "name": "",
          "type": "tuple[]"
        }
      ],
      "stateMutability": "view",
      "type": "function"
    },
    {
      "inputs": [],
      "name": "getAllLessons",
      "outputs": [
        {
          "components": [
            {
              "internalType": "uint256",
              "name": "chapterId",
              "type": "uint256"
            },
            {
              "internalType": "uint256",
              "name": "lessonId",
              "type": "uint256"
            },
            {
              "internalType": "string",
              "name": "lessonName",
              "type": "string"
            },
            {
              "internalType": "string",
              "name": "lessonContent",
              "type": "string"
            },
            {
              "components": [
                {
                  "internalType": "enum Ecosystem.ContentType",
                  "name": "contentType",
                  "type": "uint8"
                },
                {
                  "internalType": "string",
                  "name": "url",
                  "type": "string"
                },
                {
                  "internalType": "string",
                  "name": "name",
                  "type": "string"
                }
              ],
              "internalType": "struct Ecosystem.Resource[10]",
              "name": "additionalResources",
              "type": "tuple[10]"
            },
            {
              "internalType": "uint256",
              "name": "resourceCount",
              "type": "uint256"
            },
            {
              "internalType": "bool",
              "name": "exists",
              "type": "bool"
            }
          ],
          "internalType": "struct Ecosystem.Lesson[]",
          "name": "",
          "type": "tuple[]"
        }
      ],
      "stateMutability": "view",
      "type": "function"
    },
    {
      "inputs": [],
      "name": "getAllQuizzes",
      "outputs": [
        {
          "components": [
            {
              "internalType": "uint256",
              "name": "lessonId",
              "type": "uint256"
            },
            {
              "internalType": "uint256",
              "name": "quizId",
              "type": "uint256"
            },
            {
              "internalType": "string",
              "name": "quizTitle",
              "type": "string"
            },
            {
              "components": [
                {
                  "internalType": "uint256",
                  "name": "quizId",
                  "type": "uint256"
                },
                {
                  "internalType": "uint256",
                  "name": "questionId",
                  "type": "uint256"
                },
                {
                  "internalType": "string",
                  "name": "questionText",
                  "type": "string"
                },
                {
                  "components": [
                    {
                      "internalType": "string",
                      "name": "option",
                      "type": "string"
                    },
                    {
                      "internalType": "bool",
                      "name": "isCorrect",
                      "type": "bool"
                    }
                  ],
                  "internalType": "struct Ecosystem.Choice[]",
                  "name": "choices",
                  "type": "tuple[]"
                }
              ],
              "internalType": "struct Ecosystem.Question[]",
              "name": "questions",
              "type": "tuple[]"
            },
            {
              "internalType": "bool",
              "name": "exists",
              "type": "bool"
            }
          ],
          "internalType": "struct Ecosystem.Quiz[]",
          "name": "",
          "type": "tuple[]"
        }
      ],
      "stateMutability": "view",
      "type": "function"
    },
    {
      "inputs": [
        {
          "internalType": "uint256",
          "name": "_courseId",
          "type": "uint256"
        }
      ],
      "name": "getChapters",
      "outputs": [
        {
          "components": [
            {
              "internalType": "uint256",
              "name": "courseId",
              "type": "uint256"
            },
            {
              "internalType": "uint256",
              "name": "chapterId",
              "type": "uint256"
            },
            {
              "internalType": "string",
              "name": "chapterName",
              "type": "string"
            },
            {
              "internalType": "uint256",
              "name": "duration",
              "type": "uint256"
            },
            {
              "internalType": "bool",
              "name": "exists",
              "type": "bool"
            }
          ],
          "internalType": "struct Ecosystem.Chapter[]",
          "name": "",
          "type": "tuple[]"
        }
      ],
      "stateMutability": "view",
      "type": "function"
    },
    {
      "inputs": [
        {
          "internalType": "uint256",
          "name": "courseId",
          "type": "uint256"
        }
      ],
      "name": "getCourseReviewers",
      "outputs": [
        {
          "internalType": "address[]",
          "name": "",
          "type": "address[]"
        }
      ],
      "stateMutability": "view",
      "type": "function"
    },
    {
      "inputs": [],
      "name": "getCurrentEcosystemPoolSupply",
      "outputs": [
        {
          "internalType": "uint256",
          "name": "",
          "type": "uint256"
        }
      ],
      "stateMutability": "view",
      "type": "function"
    },
    {
      "inputs": [
        {
          "internalType": "uint256",
          "name": "_quizId",
          "type": "uint256"
        }
      ],
      "name": "getQuestionsForQuiz",
      "outputs": [
        {
          "components": [
            {
              "internalType": "uint256",
              "name": "quizId",
              "type": "uint256"
            },
            {
              "internalType": "uint256",
              "name": "questionId",
              "type": "uint256"
            },
            {
              "internalType": "string",
              "name": "questionText",
              "type": "string"
            },
            {
              "components": [
                {
                  "internalType": "string",
                  "name": "option",
                  "type": "string"
                },
                {
                  "internalType": "bool",
                  "name": "isCorrect",
                  "type": "bool"
                }
              ],
              "internalType": "struct Ecosystem.Choice[]",
              "name": "choices",
              "type": "tuple[]"
            }
          ],
          "internalType": "struct Ecosystem.Question[]",
          "name": "",
          "type": "tuple[]"
        }
      ],
      "stateMutability": "view",
      "type": "function"
    },
    {
      "inputs": [
        {
          "internalType": "uint256",
          "name": "_quizId",
          "type": "uint256"
        }
      ],
      "name": "getQuiz",
      "outputs": [
        {
          "components": [
            {
              "internalType": "uint256",
              "name": "lessonId",
              "type": "uint256"
            },
            {
              "internalType": "uint256",
              "name": "quizId",
              "type": "uint256"
            },
            {
              "internalType": "string",
              "name": "quizTitle",
              "type": "string"
            },
            {
              "components": [
                {
                  "internalType": "uint256",
                  "name": "quizId",
                  "type": "uint256"
                },
                {
                  "internalType": "uint256",
                  "name": "questionId",
                  "type": "uint256"
                },
                {
                  "internalType": "string",
                  "name": "questionText",
                  "type": "string"
                },
                {
                  "components": [
                    {
                      "internalType": "string",
                      "name": "option",
                      "type": "string"
                    },
                    {
                      "internalType": "bool",
                      "name": "isCorrect",
                      "type": "bool"
                    }
                  ],
                  "internalType": "struct Ecosystem.Choice[]",
                  "name": "choices",
                  "type": "tuple[]"
                }
              ],
              "internalType": "struct Ecosystem.Question[]",
              "name": "questions",
              "type": "tuple[]"
            },
            {
              "internalType": "bool",
              "name": "exists",
              "type": "bool"
            }
          ],
          "internalType": "struct Ecosystem.Quiz",
          "name": "",
          "type": "tuple"
        }
      ],
      "stateMutability": "view",
      "type": "function"
    },
    {
      "inputs": [
        {
          "internalType": "bytes32",
          "name": "role",
          "type": "bytes32"
        }
      ],
      "name": "getRoleAdmin",
      "outputs": [
        {
          "internalType": "bytes32",
          "name": "",
          "type": "bytes32"
        }
      ],
      "stateMutability": "view",
      "type": "function"
    },
    {
      "inputs": [
        {
          "internalType": "uint256",
          "name": "_courseId",
          "type": "uint256"
        }
      ],
      "name": "getUserCompletedLessonsByCourse",
      "outputs": [
        {
          "internalType": "uint256[]",
          "name": "",
          "type": "uint256[]"
        },
        {
          "internalType": "uint256",
          "name": "",
          "type": "uint256"
        }
      ],
      "stateMutability": "view",
      "type": "function"
    },
    {
      "inputs": [
        {
          "internalType": "bytes32",
          "name": "role",
          "type": "bytes32"
        },
        {
          "internalType": "address",
          "name": "account",
          "type": "address"
        }
      ],
      "name": "grantRole",
      "outputs": [],
      "stateMutability": "nonpayable",
      "type": "function"
    },
    {
      "inputs": [
        {
          "internalType": "bytes32",
          "name": "role",
          "type": "bytes32"
        },
        {
          "internalType": "address",
          "name": "account",
          "type": "address"
        }
      ],
      "name": "hasRole",
      "outputs": [
        {
          "internalType": "bool",
          "name": "",
          "type": "bool"
        }
      ],
      "stateMutability": "view",
      "type": "function"
    },
    {
      "inputs": [
        {
          "internalType": "uint256",
          "name": "",
          "type": "uint256"
        },
        {
          "internalType": "address",
          "name": "",
          "type": "address"
        }
      ],
      "name": "isEnrolled",
      "outputs": [
        {
          "internalType": "bool",
          "name": "",
          "type": "bool"
        }
      ],
      "stateMutability": "view",
      "type": "function"
    },
    {
      "inputs": [
        {
          "internalType": "address",
          "name": "",
          "type": "address"
        }
      ],
      "name": "isInReviewerPool",
      "outputs": [
        {
          "internalType": "bool",
          "name": "",
          "type": "bool"
        }
      ],
      "stateMutability": "view",
      "type": "function"
    },
    {
      "inputs": [
        {
          "internalType": "address",
          "name": "account",
          "type": "address"
        }
      ],
      "name": "isReviewer",
      "outputs": [
        {
          "internalType": "bool",
          "name": "",
          "type": "bool"
        }
      ],
      "stateMutability": "view",
      "type": "function"
    },
    {
      "inputs": [
        {
          "internalType": "uint256",
          "name": "_courseId",
          "type": "uint256"
        },
        {
          "internalType": "string",
          "name": "learner",
          "type": "string"
        },
        {
          "internalType": "string",
          "name": "courseName",
          "type": "string"
        },
        {
          "internalType": "string",
          "name": "cert_issuer",
          "type": "string"
        },
        {
          "internalType": "uint256",
          "name": "issue_date",
          "type": "uint256"
        }
      ],
      "name": "issueCertificate",
      "outputs": [
        {
          "internalType": "uint256",
          "name": "",
          "type": "uint256"
        },
        {
          "components": [
            {
              "internalType": "uint256",
              "name": "certId",
              "type": "uint256"
            },
            {
              "internalType": "uint256",
              "name": "courseId",
              "type": "uint256"
            },
            {
              "internalType": "string",
              "name": "learner",
              "type": "string"
            },
            {
              "internalType": "string",
              "name": "cert_issuer",
              "type": "string"
            },
            {
              "internalType": "uint256",
              "name": "issue_date",
              "type": "uint256"
            },
            {
              "internalType": "string",
              "name": "courseName",
              "type": "string"
            },
            {
              "internalType": "address",
              "name": "owner",
              "type": "address"
            }
          ],
          "internalType": "struct Ecosystem3.Certificate",
          "name": "",
          "type": "tuple"
        }
      ],
      "stateMutability": "nonpayable",
      "type": "function"
    },
    {
      "inputs": [
        {
          "internalType": "uint256",
          "name": "",
          "type": "uint256"
        }
      ],
      "name": "lesson",
      "outputs": [
        {
          "internalType": "uint256",
          "name": "chapterId",
          "type": "uint256"
        },
        {
          "internalType": "uint256",
          "name": "lessonId",
          "type": "uint256"
        },
        {
          "internalType": "string",
          "name": "lessonName",
          "type": "string"
        },
        {
          "internalType": "string",
          "name": "lessonContent",
          "type": "string"
        },
        {
          "internalType": "uint256",
          "name": "resourceCount",
          "type": "uint256"
        },
        {
          "internalType": "bool",
          "name": "exists",
          "type": "bool"
        }
      ],
      "stateMutability": "view",
      "type": "function"
    },
    {
      "inputs": [
        {
          "internalType": "uint256",
          "name": "",
          "type": "uint256"
        },
        {
          "internalType": "address",
          "name": "",
          "type": "address"
        }
      ],
      "name": "lessonRead",
      "outputs": [
        {
          "internalType": "bool",
          "name": "",
          "type": "bool"
        }
      ],
      "stateMutability": "view",
      "type": "function"
    },
    {
      "inputs": [
        {
          "internalType": "uint256",
          "name": "",
          "type": "uint256"
        }
      ],
      "name": "listOfChapters",
      "outputs": [
        {
          "internalType": "uint256",
          "name": "courseId",
          "type": "uint256"
        },
        {
          "internalType": "uint256",
          "name": "chapterId",
          "type": "uint256"
        },
        {
          "internalType": "string",
          "name": "chapterName",
          "type": "string"
        },
        {
          "internalType": "uint256",
          "name": "duration",
          "type": "uint256"
        },
        {
          "internalType": "bool",
          "name": "exists",
          "type": "bool"
        }
      ],
      "stateMutability": "view",
      "type": "function"
    },
    {
      "inputs": [
        {
          "internalType": "uint256",
          "name": "",
          "type": "uint256"
        }
      ],
      "name": "listOfCourses",
      "outputs": [
        {
          "internalType": "uint256",
          "name": "courseId",
          "type": "uint256"
        },
        {
          "internalType": "string",
          "name": "courseName",
          "type": "string"
        },
        {
          "internalType": "string",
          "name": "description",
          "type": "string"
        },
        {
          "internalType": "bool",
          "name": "approved",
          "type": "bool"
        },
        {
          "internalType": "uint256",
          "name": "approvalCount",
          "type": "uint256"
        },
        {
          "internalType": "address",
          "name": "creator",
          "type": "address"
        },
        {
          "internalType": "bool",
          "name": "exists",
          "type": "bool"
        },
        {
          "internalType": "enum Ecosystem.DifficultyLevel",
          "name": "difficultyLevel",
          "type": "uint8"
        }
      ],
      "stateMutability": "view",
      "type": "function"
    },
    {
      "inputs": [
        {
          "internalType": "uint256",
          "name": "",
          "type": "uint256"
        }
      ],
      "name": "listOfLessons",
      "outputs": [
        {
          "internalType": "uint256",
          "name": "chapterId",
          "type": "uint256"
        },
        {
          "internalType": "uint256",
          "name": "lessonId",
          "type": "uint256"
        },
        {
          "internalType": "string",
          "name": "lessonName",
          "type": "string"
        },
        {
          "internalType": "string",
          "name": "lessonContent",
          "type": "string"
        },
        {
          "internalType": "uint256",
          "name": "resourceCount",
          "type": "uint256"
        },
        {
          "internalType": "bool",
          "name": "exists",
          "type": "bool"
        }
      ],
      "stateMutability": "view",
      "type": "function"
    },
    {
      "inputs": [
        {
          "internalType": "uint256",
          "name": "",
          "type": "uint256"
        }
      ],
      "name": "listOfQuestions",
      "outputs": [
        {
          "internalType": "uint256",
          "name": "quizId",
          "type": "uint256"
        },
        {
          "internalType": "uint256",
          "name": "questionId",
          "type": "uint256"
        },
        {
          "internalType": "string",
          "name": "questionText",
          "type": "string"
        }
      ],
      "stateMutability": "view",
      "type": "function"
    },
    {
      "inputs": [
        {
          "internalType": "uint256",
          "name": "",
          "type": "uint256"
        }
      ],
      "name": "listOfQuizzes",
      "outputs": [
        {
          "internalType": "uint256",
          "name": "lessonId",
          "type": "uint256"
        },
        {
          "internalType": "uint256",
          "name": "quizId",
          "type": "uint256"
        },
        {
          "internalType": "string",
          "name": "quizTitle",
          "type": "string"
        },
        {
          "internalType": "bool",
          "name": "exists",
          "type": "bool"
        }
      ],
      "stateMutability": "view",
      "type": "function"
    },
    {
      "inputs": [
        {
          "internalType": "uint256",
          "name": "",
          "type": "uint256"
        }
      ],
      "name": "listOfResource",
      "outputs": [
        {
          "internalType": "enum Ecosystem.ContentType",
          "name": "contentType",
          "type": "uint8"
        },
        {
          "internalType": "string",
          "name": "url",
          "type": "string"
        },
        {
          "internalType": "string",
          "name": "name",
          "type": "string"
        }
      ],
      "stateMutability": "view",
      "type": "function"
    },
    {
      "inputs": [
        {
          "internalType": "uint256",
          "name": "_courseId",
          "type": "uint256"
        },
        {
          "internalType": "uint256",
          "name": "_chapterId",
          "type": "uint256"
        },
        {
          "internalType": "uint256",
          "name": "_lessonId",
          "type": "uint256"
        }
      ],
      "name": "markAsRead",
      "outputs": [
        {
          "internalType": "bool",
          "name": "",
          "type": "bool"
        }
      ],
      "stateMutability": "nonpayable",
      "type": "function"
    },
    {
      "inputs": [
        {
          "internalType": "uint256",
          "name": "",
          "type": "uint256"
        }
      ],
      "name": "multiSigProposals",
      "outputs": [
        {
          "internalType": "uint256",
          "name": "id",
          "type": "uint256"
        },
        {
          "internalType": "address",
          "name": "proposer",
          "type": "address"
        },
        {
          "internalType": "address",
          "name": "targetContract",
          "type": "address"
        },
        {
          "internalType": "bytes",
          "name": "data",
          "type": "bytes"
        },
        {
          "internalType": "uint256",
          "name": "approvalCount",
          "type": "uint256"
        },
        {
          "internalType": "bool",
          "name": "executed",
          "type": "bool"
        }
      ],
      "stateMutability": "view",
      "type": "function"
    },
    {
      "inputs": [],
      "name": "name",
      "outputs": [
        {
          "internalType": "string",
          "name": "",
          "type": "string"
        }
      ],
      "stateMutability": "view",
      "type": "function"
    },
    {
      "inputs": [],
      "name": "nextChapterId",
      "outputs": [
        {
          "internalType": "uint256",
          "name": "",
          "type": "uint256"
        }
      ],
      "stateMutability": "view",
      "type": "function"
    },
    {
      "inputs": [],
      "name": "nextChoiceId",
      "outputs": [
        {
          "internalType": "uint256",
          "name": "",
          "type": "uint256"
        }
      ],
      "stateMutability": "view",
      "type": "function"
    },
    {
      "inputs": [],
      "name": "nextCourseId",
      "outputs": [
        {
          "internalType": "uint256",
          "name": "",
          "type": "uint256"
        }
      ],
      "stateMutability": "view",
      "type": "function"
    },
    {
      "inputs": [],
      "name": "nextCourseIdd",
      "outputs": [
        {
          "internalType": "uint256",
          "name": "",
          "type": "uint256"
        }
      ],
      "stateMutability": "view",
      "type": "function"
    },
    {
      "inputs": [],
      "name": "nextLessonId",
      "outputs": [
        {
          "internalType": "uint256",
          "name": "",
          "type": "uint256"
        }
      ],
      "stateMutability": "view",
      "type": "function"
    },
    {
      "inputs": [],
      "name": "nextQuestionId",
      "outputs": [
        {
          "internalType": "uint256",
          "name": "",
          "type": "uint256"
        }
      ],
      "stateMutability": "view",
      "type": "function"
    },
    {
      "inputs": [],
      "name": "nextQuizId",
      "outputs": [
        {
          "internalType": "uint256",
          "name": "",
          "type": "uint256"
        }
      ],
      "stateMutability": "view",
      "type": "function"
    },
    {
      "inputs": [
        {
          "internalType": "uint256",
          "name": "",
          "type": "uint256"
        }
      ],
      "name": "questions",
      "outputs": [
        {
          "internalType": "uint256",
          "name": "quizId",
          "type": "uint256"
        },
        {
          "internalType": "uint256",
          "name": "questionId",
          "type": "uint256"
        },
        {
          "internalType": "string",
          "name": "questionText",
          "type": "string"
        }
      ],
      "stateMutability": "view",
      "type": "function"
    },
    {
      "inputs": [
        {
          "internalType": "uint256",
          "name": "",
          "type": "uint256"
        }
      ],
      "name": "quizzes",
      "outputs": [
        {
          "internalType": "uint256",
          "name": "lessonId",
          "type": "uint256"
        },
        {
          "internalType": "uint256",
          "name": "quizId",
          "type": "uint256"
        },
        {
          "internalType": "string",
          "name": "quizTitle",
          "type": "string"
        },
        {
          "internalType": "bool",
          "name": "exists",
          "type": "bool"
        }
      ],
      "stateMutability": "view",
      "type": "function"
    },
    {
      "inputs": [
        {
          "internalType": "address",
          "name": "approver",
          "type": "address"
        }
      ],
      "name": "removeMultiSigApprover",
      "outputs": [],
      "stateMutability": "nonpayable",
      "type": "function"
    },
    {
      "inputs": [
        {
          "internalType": "address",
          "name": "reviewer",
          "type": "address"
        }
      ],
      "name": "removeReviewer",
      "outputs": [],
      "stateMutability": "nonpayable",
      "type": "function"
    },
    {
      "inputs": [
        {
          "internalType": "bytes32",
          "name": "role",
          "type": "bytes32"
        },
        {
          "internalType": "address",
          "name": "callerConfirmation",
          "type": "address"
        }
      ],
      "name": "renounceRole",
      "outputs": [],
      "stateMutability": "nonpayable",
      "type": "function"
    },
    {
      "inputs": [
        {
          "internalType": "uint256",
          "name": "",
          "type": "uint256"
        }
      ],
      "name": "reviewerPool",
      "outputs": [
        {
          "internalType": "address",
          "name": "",
          "type": "address"
        }
      ],
      "stateMutability": "view",
      "type": "function"
    },
    {
      "inputs": [
        {
          "internalType": "uint256",
          "name": "",
          "type": "uint256"
        },
        {
          "internalType": "address",
          "name": "",
          "type": "address"
        }
      ],
      "name": "reviews",
      "outputs": [
        {
          "internalType": "uint256",
          "name": "learnerAgency",
          "type": "uint256"
        },
        {
          "internalType": "uint256",
          "name": "criticalThinking",
          "type": "uint256"
        },
        {
          "internalType": "uint256",
          "name": "collaborativeLearning",
          "type": "uint256"
        },
        {
          "internalType": "uint256",
          "name": "reflectivePractice",
          "type": "uint256"
        },
        {
          "internalType": "uint256",
          "name": "adaptiveLearning",
          "type": "uint256"
        },
        {
          "internalType": "uint256",
          "name": "authenticLearning",
          "type": "uint256"
        },
        {
          "internalType": "uint256",
          "name": "technologyIntegration",
          "type": "uint256"
        },
        {
          "internalType": "uint256",
          "name": "learnerSupport",
          "type": "uint256"
        },
        {
          "internalType": "uint256",
          "name": "assessmentForLearning",
          "type": "uint256"
        },
        {
          "internalType": "uint256",
          "name": "engagementAndMotivation",
          "type": "uint256"
        },
        {
          "internalType": "bool",
          "name": "isSubmitted",
          "type": "bool"
        }
      ],
      "stateMutability": "view",
      "type": "function"
    },
    {
      "inputs": [
        {
          "internalType": "bytes32",
          "name": "role",
          "type": "bytes32"
        },
        {
          "internalType": "address",
          "name": "account",
          "type": "address"
        }
      ],
      "name": "revokeRole",
      "outputs": [],
      "stateMutability": "nonpayable",
      "type": "function"
    },
    {
      "inputs": [
        {
          "internalType": "uint256",
          "name": "courseId",
          "type": "uint256"
        }
      ],
      "name": "selectCourseReviewers",
      "outputs": [],
      "stateMutability": "nonpayable",
      "type": "function"
    },
    {
      "inputs": [
        {
          "internalType": "uint256",
          "name": "_quizId",
          "type": "uint256"
        },
        {
          "internalType": "uint256[]",
          "name": "_answers",
          "type": "uint256[]"
        }
      ],
      "name": "submitQuiz",
      "outputs": [
        {
          "internalType": "uint256",
          "name": "score",
          "type": "uint256"
        }
      ],
      "stateMutability": "nonpayable",
      "type": "function"
    },
    {
      "inputs": [
        {
          "internalType": "uint256",
          "name": "courseId",
          "type": "uint256"
        },
        {
          "internalType": "uint256",
          "name": "learnerAgency",
          "type": "uint256"
        },
        {
          "internalType": "uint256",
          "name": "criticalThinking",
          "type": "uint256"
        },
        {
          "internalType": "uint256",
          "name": "collaborativeLearning",
          "type": "uint256"
        },
        {
          "internalType": "uint256",
          "name": "reflectivePractice",
          "type": "uint256"
        },
        {
          "internalType": "uint256",
          "name": "adaptiveLearning",
          "type": "uint256"
        },
        {
          "internalType": "uint256",
          "name": "authenticLearning",
          "type": "uint256"
        },
        {
          "internalType": "uint256",
          "name": "technologyIntegration",
          "type": "uint256"
        },
        {
          "internalType": "uint256",
          "name": "learnerSupport",
          "type": "uint256"
        },
        {
          "internalType": "uint256",
          "name": "assessmentForLearning",
          "type": "uint256"
        },
        {
          "internalType": "uint256",
          "name": "engagementAndMotivation",
          "type": "uint256"
        }
      ],
      "name": "submitReview",
      "outputs": [],
      "stateMutability": "nonpayable",
      "type": "function"
    },
    {
      "inputs": [
        {
          "internalType": "bytes4",
          "name": "interfaceId",
          "type": "bytes4"
        }
      ],
      "name": "supportsInterface",
      "outputs": [
        {
          "internalType": "bool",
          "name": "",
          "type": "bool"
        }
      ],
      "stateMutability": "view",
      "type": "function"
    },
    {
      "inputs": [],
      "name": "symbol",
      "outputs": [
        {
          "internalType": "string",
          "name": "",
          "type": "string"
        }
      ],
      "stateMutability": "view",
      "type": "function"
    },
    {
      "inputs": [],
      "name": "totalSupply",
      "outputs": [
        {
          "internalType": "uint256",
          "name": "",
          "type": "uint256"
        }
      ],
      "stateMutability": "view",
      "type": "function"
    },
    {
      "inputs": [
        {
          "internalType": "address",
          "name": "to",
          "type": "address"
        },
        {
          "internalType": "uint256",
          "name": "value",
          "type": "uint256"
        }
      ],
      "name": "transfer",
      "outputs": [
        {
          "internalType": "bool",
          "name": "",
          "type": "bool"
        }
      ],
      "stateMutability": "nonpayable",
      "type": "function"
    },
    {
      "inputs": [
        {
          "internalType": "address",
          "name": "from",
          "type": "address"
        },
        {
          "internalType": "address",
          "name": "to",
          "type": "address"
        },
        {
          "internalType": "uint256",
          "name": "value",
          "type": "uint256"
        }
      ],
      "name": "transferFrom",
      "outputs": [
        {
          "internalType": "bool",
          "name": "",
          "type": "bool"
        }
      ],
      "stateMutability": "nonpayable",
      "type": "function"
    },
    {
      "inputs": [
        {
          "internalType": "uint256",
          "name": "_courseId",
          "type": "uint256"
        }
      ],
      "name": "unEnroll",
      "outputs": [
        {
          "internalType": "bool",
          "name": "",
          "type": "bool"
        }
      ],
      "stateMutability": "nonpayable",
      "type": "function"
    },
    {
      "inputs": [
        {
          "internalType": "address",
          "name": "",
          "type": "address"
        },
        {
          "internalType": "uint256",
          "name": "",
          "type": "uint256"
        }
      ],
      "name": "userCompletedLessons",
      "outputs": [
        {
          "internalType": "uint256",
          "name": "",
          "type": "uint256"
        }
      ],
      "stateMutability": "view",
      "type": "function"
    },
    {
      "inputs": [
        {
          "internalType": "address",
          "name": "",
          "type": "address"
        },
        {
          "internalType": "uint256",
          "name": "",
          "type": "uint256"
        },
        {
          "internalType": "uint256",
          "name": "",
          "type": "uint256"
        }
      ],
      "name": "userCompletedLessonsByCourse",
      "outputs": [
        {
          "internalType": "uint256",
          "name": "",
          "type": "uint256"
        }
      ],
      "stateMutability": "view",
      "type": "function"
    },
    {
      "inputs": [
        {
          "internalType": "address",
          "name": "",
          "type": "address"
        },
        {
          "internalType": "uint256",
          "name": "",
          "type": "uint256"
        }
      ],
      "name": "userScores",
      "outputs": [
        {
          "internalType": "uint256",
          "name": "",
          "type": "uint256"
        }
      ],
      "stateMutability": "view",
      "type": "function"
    }
  ],
  "bytecode": "0x608060405234801561001057600080fd5b5060405161f0b138038061f0b18339818101604052810190610032919061063d565b8080806040518060400160405280600a81526020017f4142594120544f4b454e000000000000000000000000000000000000000000008152506040518060400160405280600681526020017f414259544b4e000000000000000000000000000000000000000000000000000081525081600390816100b091906108a7565b5080600490816100c091906108a7565b505050600481511015610108576040517f08c379a00000000000000000000000000000000000000000000000000000000081526004016100ff906109fc565b60405180910390fd5b61011b6000801b336102c260201b60201c565b5061014c7fdf1425bae297c2f52b4f15d18a50b1fc8cb5b981a981b1d213ed3ff92681b64d336102c260201b60201c565b5060005b81518110156102a0576101a37fc10c77be35aff266144ed64c26a1fa104bae2f284ae99ac4a34203454704a1858383815181106101905761018f610a1c565b5b60200260200101516102c260201b60201c565b5060068282815181106101b9576101b8610a1c565b5b60200260200101519080600181540180825580915050600190039060005260206000200160009091909190916101000a81548173ffffffffffffffffffffffffffffffffffffffff021916908373ffffffffffffffffffffffffffffffffffffffff16021790555060016008600084848151811061023a57610239610a1c565b5b602002602001015173ffffffffffffffffffffffffffffffffffffffff1673ffffffffffffffffffffffffffffffffffffffff16815260200190815260200160002060006101000a81548160ff0219169083151502179055508080600101915050610150565b50506001600a819055506102ba600b6103c060201b60201c565b505050610a4b565b60006102d483836103ff60201b60201c565b6103b55760016005600085815260200190815260200160002060000160008473ffffffffffffffffffffffffffffffffffffffff1673ffffffffffffffffffffffffffffffffffffffff16815260200190815260200160002060006101000a81548160ff02191690831515021790555061035261046a60201b60201c565b73ffffffffffffffffffffffffffffffffffffffff168273ffffffffffffffffffffffffffffffffffffffff16847f2f8788117e7eff1d82e926ec794901d17c78024a50270940304540a733656f0d60405160405180910390a4600190506103ba565b600090505b92915050565b60018160000181905550600181600101819055506001816002018190555060018160030181905550600181600401819055506001816005018190555050565b60006005600084815260200190815260200160002060000160008373ffffffffffffffffffffffffffffffffffffffff1673ffffffffffffffffffffffffffffffffffffffff16815260200190815260200160002060009054906101000a900460ff16905092915050565b600033905090565b6000604051905090565b600080fd5b600080fd5b600080fd5b6000601f19601f8301169050919050565b7f4e487b7100000000000000000000000000000000000000000000000000000000600052604160045260246000fd5b6104d48261048b565b810181811067ffffffffffffffff821117156104f3576104f261049c565b5b80604052505050565b6000610506610472565b905061051282826104cb565b919050565b600067ffffffffffffffff8211156105325761053161049c565b5b602082029050602081019050919050565b600080fd5b600073ffffffffffffffffffffffffffffffffffffffff82169050919050565b600061057382610548565b9050919050565b61058381610568565b811461058e57600080fd5b50565b6000815190506105a08161057a565b92915050565b60006105b96105b484610517565b6104fc565b905080838252602082019050602084028301858111156105dc576105db610543565b5b835b8181101561060557806105f18882610591565b8452602084019350506020810190506105de565b5050509392505050565b600082601f83011261062457610623610486565b5b81516106348482602086016105a6565b91505092915050565b6000602082840312156106535761065261047c565b5b600082015167ffffffffffffffff81111561067157610670610481565b5b61067d8482850161060f565b91505092915050565b600081519050919050565b7f4e487b7100000000000000000000000000000000000000000000000000000000600052602260045260246000fd5b600060028204905060018216806106d857607f821691505b6020821081036106eb576106ea610691565b5b50919050565b60008190508160005260206000209050919050565b60006020601f8301049050919050565b600082821b905092915050565b6000600883026107537fffffffffffffffffffffffffffffffffffffffffffffffffffffffffffffffff82610716565b61075d8683610716565b95508019841693508086168417925050509392505050565b6000819050919050565b6000819050919050565b60006107a461079f61079a84610775565b61077f565b610775565b9050919050565b6000819050919050565b6107be83610789565b6107d26107ca826107ab565b848454610723565b825550505050565b600090565b6107e76107da565b6107f28184846107b5565b505050565b5b818110156108165761080b6000826107df565b6001810190506107f8565b5050565b601f82111561085b5761082c816106f1565b61083584610706565b81016020851015610844578190505b61085861085085610706565b8301826107f7565b50505b505050565b600082821c905092915050565b600061087e60001984600802610860565b1980831691505092915050565b6000610897838361086d565b9150826002028217905092915050565b6108b082610686565b67ffffffffffffffff8111156108c9576108c861049c565b5b6108d382546106c0565b6108de82828561081a565b600060209050601f83116001811461091157600084156108ff578287015190505b610909858261088b565b865550610971565b601f19841661091f866106f1565b60005b8281101561094757848901518255600182019150602085019450602081019050610922565b868310156109645784890151610960601f89168261086d565b8355505b6001600288020188555050505b505050505050565b600082825260208201905092915050565b7f4174206c6561737420342072657669657765727320617265207265717569726560008201527f6400000000000000000000000000000000000000000000000000000000000000602082015250565b60006109e6602183610979565b91506109f18261098a565b604082019050919050565b60006020820190508181036000830152610a15816109d9565b9050919050565b7f4e487b7100000000000000000000000000000000000000000000000000000000600052603260045260246000fd5b61e65780610a5a6000396000f3fe608060405234801561001057600080fd5b50600436106106235760003560e01c80637528499811610336578063b31a4af3116101c3578063d547741f1161010f578063e503f108116100ad578063eb264b9c11610087578063eb264b9c14611617578063f57d585b14611635578063fdc6258a14611665578063ffabc6731461169557610623565b8063e503f10814611599578063e8639751146115b7578063ea0978ad146115e757610623565b8063ddfc79fb116100e9578063ddfc79fb146114e9578063de5dc3a01461151b578063ded5c18d1461154b578063e09bcae31461156957610623565b8063d547741f1461147f578063d93f2caa1461149b578063dd62ed3e146114b957610623565b8063c7954e4c1161017c578063c976831511610156578063c9768315146113d3578063d036469414611403578063d214ba7414611433578063d3751bfc1461146357610623565b8063c7954e4c14611365578063c90c884d14611383578063c9442dac146113b757610623565b8063b31a4af31461125e578063bad0dd651461127a578063bfd2f4c514611296578063c12804fb146112cb578063c293bbbe14611305578063c491b04c1461133557610623565b80639bce575111610282578063a296ea581161023b578063a9059cbb11610215578063a9059cbb146111b0578063aa95da3a146111e0578063ac678a9314611210578063ac957c631461124057610623565b8063a296ea581461112e578063a3ef20411461114c578063a3f7e0961461118057610623565b80639bce5751146110445780639dad8d2214611062578063a1051dfe14611092578063a14ecbdf146110c2578063a1cd05b1146110e0578063a217fddf1461111057610623565b806388a8270f116102ef57806391d14854116102c957806391d1485414610fa85780639560bc8514610fd857806395d89b4114610ff65780639ad011271461101457610623565b806388a8270f14610f2c5780638a2492bb14610f5c5780638ea6e2fd14610f8c57610623565b80637528499814610e6757806375b9d86914610e835780637ce1785214610e9f5780637d83daf214610ebd578063846f815214610edb57806388409afa14610ef957610623565b806334b159dd116104b457806352994e2f1161040057806366055159116103b95780636b000fa7116103935780636b000fa714610dc65780636fdb67f714610de457806370a0823114610e1b57806373a82b5f14610e4b57610623565b80636605515914610d54578063663b3e2214610d725780636a4af0fa14610da857610623565b806352994e2f14610c6c57806358a3fa2514610c8a578063599c553314610ca65780635b680a4514610cc45780635cc2a14d14610cf4578063632c224b14610d2457610623565b806340932bf81161046d5780634d6ca5d5116104475780634d6ca5d514610bbd5780634dd84b3c14610bd95780634fb95abd14610c0957806351d93c8114610c3a57610623565b806340932bf814610b245780634a474b9c14610b595780634d42ef4814610b8957610623565b806334b159dd14610a5057806334ed4bdb14610a8057806334f9b3fb14610ab057806336568abe14610acc5780633693dcfa14610ae85780633b129a5614610b0657610623565b8063274202f0116105735780632f2ff15d1161052c57806331b1b9781161050657806331b1b9781461099f57806332cb6b0c146109d157806334359da9146109ef5780633444589714610a2057610623565b80632f2ff15d1461093557806330a3549a14610951578063313ce5671461098157610623565b8063274202f01461083c57806327ff62231461085a578063295b825a146108785780632990db7c146108ab57806329a0be65146108e25780632aac61ae1461090057610623565b806313e85811116105e057806319f102ec116105ba57806319f102ec1461077c57806320bd0316146107ac57806323b872dd146107dc578063248a9ca31461080c57610623565b806313e858111461071257806318160ddd1461074257806319656f7b1461076057610623565b806301ffc9a71461062857806304e48bd114610658578063057f46bb1461067657806306fdde0314610694578063095ea7b3146106b257806311ce15df146106e2575b600080fd5b610642600480360381019061063d919061a487565b6116c5565b60405161064f919061a4cf565b60405180910390f35b61066061173f565b60405161066d919061a89e565b60405180910390f35b61067e611b75565b60405161068b919061a8cf565b60405180910390f35b61069c611b7b565b6040516106a9919061a934565b60405180910390f35b6106cc60048036038101906106c7919061a9ae565b611c0d565b6040516106d9919061a4cf565b60405180910390f35b6106fc60048036038101906106f7919061a9ee565b611c30565b604051610709919061a4cf565b60405180910390f35b61072c6004803603810190610727919061aa1b565b611c50565b604051610739919061a4cf565b60405180910390f35b61074a611c7f565b604051610757919061a8cf565b60405180910390f35b61077a6004803603810190610775919061aa5b565b611c89565b005b6107966004803603810190610791919061a9ee565b611cc5565b6040516107a3919061aa97565b60405180910390f35b6107c660048036038101906107c1919061a9ee565b611d04565b6040516107d3919061a4cf565b60405180910390f35b6107f660048036038101906107f1919061aab2565b611ed4565b604051610803919061a4cf565b60405180910390f35b6108266004803603810190610821919061ab3b565b611f03565b604051610833919061ab77565b60405180910390f35b610844611f23565b604051610851919061a8cf565b60405180910390f35b610862611f4b565b60405161086f919061a8cf565b60405180910390f35b610892600480360381019061088d919061a9ee565b611f50565b6040516108a2949392919061ab92565b60405180910390f35b6108c560048036038101906108c0919061a9ee565b612025565b6040516108d998979695949392919061abed565b60405180910390f35b6108ea6121c4565b6040516108f7919061a8cf565b60405180910390f35b61091a6004803603810190610915919061a9ee565b6121ca565b60405161092c9695949392919061ac79565b60405180910390f35b61094f600480360381019061094a919061ace8565b612333565b005b61096b6004803603810190610966919061b00e565b612355565b604051610978919061a4cf565b60405180910390f35b610989612593565b604051610996919061b0e5565b60405180910390f35b6109b960048036038101906109b4919061a9ee565b61259c565b6040516109c89392919061b100565b60405180910390f35b6109d961264e565b6040516109e6919061a8cf565b60405180910390f35b610a096004803603810190610a04919061a9ee565b61265e565b604051610a1792919061b1ed565b60405180910390f35b610a3a6004803603810190610a35919061b21d565b612711565b604051610a47919061a8cf565b60405180910390f35b610a6a6004803603810190610a65919061aa1b565b61274f565b604051610a77919061a4cf565b60405180910390f35b610a9a6004803603810190610a95919061aa5b565b61277e565b604051610aa7919061a8cf565b60405180910390f35b610aca6004803603810190610ac5919061b270565b61279c565b005b610ae66004803603810190610ae1919061ace8565b6128da565b005b610af0612955565b604051610afd919061ab77565b60405180910390f35b610b0e612979565b604051610b1b919061ab77565b60405180910390f35b610b3e6004803603810190610b39919061a9ee565b61299d565b604051610b509695949392919061b334565b60405180910390f35b610b736004803603810190610b6e919061a9ee565b612aae565b604051610b80919061b5c7565b60405180910390f35b610ba36004803603810190610b9e919061b5e9565b612d38565b604051610bb495949392919061b629565b60405180910390f35b610bd76004803603810190610bd2919061aa5b565b612e20565b005b610bf36004803603810190610bee919061aa1b565b612e5c565b604051610c00919061a4cf565b60405180910390f35b610c236004803603810190610c1e919061b683565b612e8b565b604051610c3192919061b7fc565b60405180910390f35b610c546004803603810190610c4f919061a9ee565b6131de565b604051610c639392919061b100565b60405180910390f35b610c746132a0565b604051610c81919061ab77565b60405180910390f35b610ca46004803603810190610c9f919061b82c565b6132c4565b005b610cae61358a565b604051610cbb919061a8cf565b60405180910390f35b610cde6004803603810190610cd9919061a9ae565b61358f565b604051610ceb919061a8cf565b60405180910390f35b610d0e6004803603810190610d09919061b920565b6135b4565b604051610d1b919061a4cf565b60405180910390f35b610d3e6004803603810190610d39919061b920565b6136a0565b604051610d4b919061a8cf565b60405180910390f35b610d5c613864565b604051610d69919061a8cf565b60405180910390f35b610d8c6004803603810190610d87919061a9ee565b61386a565b604051610d9f979695949392919061b97c565b60405180910390f35b610db0613a64565b604051610dbd919061bbc5565b60405180910390f35b610dce613df4565b604051610ddb919061a8cf565b60405180910390f35b610dfe6004803603810190610df9919061a9ee565b613dfa565b604051610e1298979695949392919061abed565b60405180910390f35b610e356004803603810190610e30919061aa5b565b613fa9565b604051610e42919061a8cf565b60405180910390f35b610e656004803603810190610e60919061aa5b565b613ff1565b005b610e816004803603810190610e7c919061a9ee565b6141d5565b005b610e9d6004803603810190610e98919061bbe7565b61452c565b005b610ea761473a565b604051610eb4919061a8cf565b60405180910390f35b610ec5614746565b604051610ed2919061a8cf565b60405180910390f35b610ee361474c565b604051610ef0919061a8cf565b60405180910390f35b610f136004803603810190610f0e919061a9ee565b614758565b604051610f23949392919061ab92565b60405180910390f35b610f466004803603810190610f41919061b5e9565b61481d565b604051610f53919061a4cf565b60405180910390f35b610f766004803603810190610f71919061bc97565b614ab8565b604051610f83919061a4cf565b60405180910390f35b610fa66004803603810190610fa1919061a9ee565b614f9d565b005b610fc26004803603810190610fbd919061ace8565b615307565b604051610fcf919061a4cf565b60405180910390f35b610fe0615372565b604051610fed919061a8cf565b60405180910390f35b610ffe61537e565b60405161100b919061a934565b60405180910390f35b61102e6004803603810190611029919061a9ae565b615410565b60405161103b919061a8cf565b60405180910390f35b61104c615441565b604051611059919061be5a565b60405180910390f35b61107c6004803603810190611077919061a9ee565b6155dc565b604051611089919061a4cf565b60405180910390f35b6110ac60048036038101906110a7919061b5e9565b615a25565b6040516110b9919061a4cf565b60405180910390f35b6110ca615d5a565b6040516110d7919061a8cf565b60405180910390f35b6110fa60048036038101906110f5919061b5e9565b615d60565b604051611107919061aa97565b60405180910390f35b611118615dae565b604051611125919061ab77565b60405180910390f35b611136615db5565b604051611143919061c13d565b60405180910390f35b6111666004803603810190611161919061a9ee565b61618d565b60405161117795949392919061b629565b60405180910390f35b61119a6004803603810190611195919061a9ee565b616258565b6040516111a7919061c1dc565b60405180910390f35b6111ca60048036038101906111c5919061a9ae565b6165ba565b6040516111d7919061a4cf565b60405180910390f35b6111fa60048036038101906111f5919061b5e9565b6165dd565b604051611207919061a934565b60405180910390f35b61122a6004803603810190611225919061a9ee565b616695565b604051611237919061be5a565b60405180910390f35b6112486167d2565b604051611255919061a8cf565b60405180910390f35b6112786004803603810190611273919061c259565b6167d7565b005b611294600480360381019061128f919061a9ee565b616bc9565b005b6112b060048036038101906112ab919061a9ee565b616ec8565b6040516112c29695949392919061ac79565b60405180910390f35b6112e560048036038101906112e0919061aa1b565b617021565b6040516112fc9b9a9998979695949392919061c2cd565b60405180910390f35b61131f600480360381019061131a919061a9ee565b617095565b60405161132c919061c3e7565b60405180910390f35b61134f600480360381019061134a919061aa5b565b617136565b60405161135c919061a4cf565b60405180910390f35b61136d617156565b60405161137a919061a8cf565b60405180910390f35b61139d6004803603810190611398919061a9ee565b617160565b6040516113ae95949392919061b629565b60405180910390f35b6113d160048036038101906113cc919061aa5b565b61723b565b005b6113ed60048036038101906113e8919061aa1b565b617525565b6040516113fa919061a4cf565b60405180910390f35b61141d6004803603810190611418919061c409565b617554565b60405161142a919061a4cf565b60405180910390f35b61144d6004803603810190611448919061c600565b6177d7565b60405161145a919061a4cf565b60405180910390f35b61147d6004803603810190611478919061c6b7565b617ad0565b005b6114996004803603810190611494919061ace8565b617ec7565b005b6114a3617ee9565b6040516114b0919061a8cf565b60405180910390f35b6114d360048036038101906114ce919061c756565b617ef5565b6040516114e0919061a8cf565b60405180910390f35b61150360048036038101906114fe919061a9ee565b617f7c565b6040516115129392919061c7a5565b60405180910390f35b6115356004803603810190611530919061c7ea565b6180d3565b604051611542919061a8cf565b60405180910390f35b61155361837d565b604051611560919061a8cf565b60405180910390f35b611583600480360381019061157e919061b5e9565b61838a565b604051611590919061a4cf565b60405180910390f35b6115a161867e565b6040516115ae919061a8cf565b60405180910390f35b6115d160048036038101906115cc919061b270565b618684565b6040516115de919061a4cf565b60405180910390f35b61160160048036038101906115fc919061b5e9565b618772565b60405161160e919061a4cf565b60405180910390f35b61161f618a58565b60405161162c919061a8cf565b60405180910390f35b61164f600480360381019061164a919061a9ee565b618a5e565b60405161165c919061a4cf565b60405180910390f35b61167f600480360381019061167a919061aa5b565b618da6565b60405161168c919061a4cf565b60405180910390f35b6116af60048036038101906116aa919061a9ae565b618dd9565b6040516116bc919061a4cf565b60405180910390f35b60007f7965db0b000000000000000000000000000000000000000000000000000000007bffffffffffffffffffffffffffffffffffffffffffffffffffffffff1916827bffffffffffffffffffffffffffffffffffffffffffffffffffffffff19161480611738575061173782618e08565b5b9050919050565b6060600060268054905067ffffffffffffffff8111156117625761176161ad32565b5b60405190808252806020026020018201604052801561179b57816020015b611788619de7565b8152602001906001900390816117805790505b50905060005b602680549050811015611b6d57604051806101200160405280602683815481106117ce576117cd61c846565b5b9060005260206000209060080201600001548152602001602683815481106117f9576117f861c846565b5b906000526020600020906008020160010180546118159061c8a4565b80601f01602080910402602001604051908101604052809291908181526020018280546118419061c8a4565b801561188e5780601f106118635761010080835404028352916020019161188e565b820191906000526020600020905b81548152906001019060200180831161187157829003601f168201915b50505050508152602001602683815481106118ac576118ab61c846565b5b906000526020600020906008020160020180546118c89061c8a4565b80601f01602080910402602001604051908101604052809291908181526020018280546118f49061c8a4565b80156119415780601f1061191657610100808354040283529160200191611941565b820191906000526020600020905b81548152906001019060200180831161192457829003601f168201915b505050505081526020016026838154811061195f5761195e61c846565b5b906000526020600020906008020160030160009054906101000a900460ff1615158152602001602683815481106119995761199861c846565b5b9060005260206000209060080201600401548152602001602683815481106119c4576119c361c846565b5b906000526020600020906008020160050160009054906101000a900473ffffffffffffffffffffffffffffffffffffffff1673ffffffffffffffffffffffffffffffffffffffff16815260200160268381548110611a2557611a2461c846565b5b906000526020600020906008020160050160149054906101000a900460ff161515815260200160268381548110611a5f57611a5e61c846565b5b9060005260206000209060080201600601805480602002602001604051908101604052809291908181526020018280548015611af057602002820191906000526020600020905b8160009054906101000a900473ffffffffffffffffffffffffffffffffffffffff1673ffffffffffffffffffffffffffffffffffffffff1681526020019060010190808311611aa6575b5050505050815260200160268381548110611b0e57611b0d61c846565b5b906000526020600020906008020160070160009054906101000a900460ff166002811115611b3f57611b3e61a6be565b5b815250828281518110611b5557611b5461c846565b5b602002602001018190525080806001019150506117a1565b508091505090565b60145481565b606060038054611b8a9061c8a4565b80601f0160208091040260200160405190810160405280929190818152602001828054611bb69061c8a4565b8015611c035780601f10611bd857610100808354040283529160200191611c03565b820191906000526020600020905b815481529060010190602001808311611be657829003601f168201915b5050505050905090565b600080611c18618e72565b9050611c25818585618e7a565b600191505092915050565b60246020528060005260406000206000915054906101000a900460ff1681565b602c6020528160005260406000206020528060005260406000206000915091509054906101000a900460ff1681565b6000600254905090565b6000801b611c9681618e8c565b611cc07fdf1425bae297c2f52b4f15d18a50b1fc8cb5b981a981b1d213ed3ff92681b64d83618ea0565b505050565b60068181548110611cd557600080fd5b906000526020600020016000915054906101000a900473ffffffffffffffffffffffffffffffffffffffff1681565b6000611d0e618f93565b6025600083815260200190815260200160002060003373ffffffffffffffffffffffffffffffffffffffff1673ffffffffffffffffffffffffffffffffffffffff16815260200190815260200160002060009054906101000a900460ff16611dab576040517f08c379a0000000000000000000000000000000000000000000000000000000008152600401611da29061c921565b60405180910390fd5b6000601960008481526020019081526020016000209050600060268481548110611dd857611dd761c846565b5b90600052602060002090600802019050611df58260060133618fd9565b611e028160060133618fd9565b60006025600086815260200190815260200160002060003373ffffffffffffffffffffffffffffffffffffffff1673ffffffffffffffffffffffffffffffffffffffff16815260200190815260200160002060006101000a81548160ff021916908315150217905550611e7d33671bc16d674ec80000619176565b3373ffffffffffffffffffffffffffffffffffffffff16847f9b244c565b926d7f4e915b69f3a5c6afc2231322d0d44e821076ad8879d0d68360405160405180910390a3600192505050611ecf61919d565b919050565b600080611edf618e72565b9050611eec8582856191a7565b611ef785858561923c565b60019150509392505050565b600060056000838152602001908152602001600020600101549050919050565b6064600f6b204fce5e3e25026110000000611f3e919061c970565b611f48919061c9e1565b81565b606481565b602a8181548110611f6057600080fd5b9060005260206000209060050201600091509050806000015490806001015490806002018054611f8f9061c8a4565b80601f0160208091040260200160405190810160405280929190818152602001828054611fbb9061c8a4565b80156120085780601f10611fdd57610100808354040283529160200191612008565b820191906000526020600020905b815481529060010190602001808311611feb57829003601f168201915b5050505050908060040160009054906101000a900460ff16905084565b601960205280600052604060002060009150905080600001549080600101805461204e9061c8a4565b80601f016020809104026020016040519081016040528092919081815260200182805461207a9061c8a4565b80156120c75780601f1061209c576101008083540402835291602001916120c7565b820191906000526020600020905b8154815290600101906020018083116120aa57829003601f168201915b5050505050908060020180546120dc9061c8a4565b80601f01602080910402602001604051908101604052809291908181526020018280546121089061c8a4565b80156121555780601f1061212a57610100808354040283529160200191612155565b820191906000526020600020905b81548152906001019060200180831161213857829003601f168201915b5050505050908060030160009054906101000a900460ff16908060040154908060050160009054906101000a900473ffffffffffffffffffffffffffffffffffffffff16908060050160149054906101000a900460ff16908060070160009054906101000a900460ff16905088565b60155481565b602881815481106121da57600080fd5b90600052602060002090602402016000915090508060000154908060010154908060020180546122099061c8a4565b80601f01602080910402602001604051908101604052809291908181526020018280546122359061c8a4565b80156122825780601f1061225757610100808354040283529160200191612282565b820191906000526020600020905b81548152906001019060200180831161226557829003601f168201915b5050505050908060030180546122979061c8a4565b80601f01602080910402602001604051908101604052809291908181526020018280546122c39061c8a4565b80156123105780601f106122e557610100808354040283529160200191612310565b820191906000526020600020905b8154815290600101906020018083116122f357829003601f168201915b5050505050908060220154908060230160009054906101000a900460ff16905086565b61233c82611f03565b61234581618e8c565b61234f8383619330565b50505050565b60007fadb22091b155738d2e889eb96f509d2a7c93234236b30400927feb4a6a15ab0061238181618e8c565b6000601f600088815260200190815260200160002060010154036123da576040517f08c379a00000000000000000000000000000000000000000000000000000000081526004016123d19061ca5e565b60405180910390fd5b84601f600088815260200190815260200160002060020190816123fd919061cc2a565b5083601f60008881526020019081526020016000206003019081612421919061cc2a565b5060008351111561254e57600a83511115612471576040517f08c379a00000000000000000000000000000000000000000000000000000000081526004016124689061cd6e565b60405180910390fd5b60005b8351811015612530578381815181106124905761248f61c846565b5b6020026020010151601f600089815260200190815260200160002060040182600a81106124c0576124bf61c846565b5b6003020160008201518160000160006101000a81548160ff021916908360028111156124ef576124ee61a6be565b5b02179055506020820151816001019081612509919061cc2a565b50604082015181600201908161251f919061cc2a565b509050508080600101915050612474565b508251601f6000888152602001908152602001600020602201819055505b857f2a39a7cf20a19c3cd9811b72b89fab269dce3aa109f6d2a0631cd3e1f0457e5d8660405161257e919061a934565b60405180910390a26001915050949350505050565b60006012905090565b60226020528060005260406000206000915090508060000154908060010154908060020180546125cb9061c8a4565b80601f01602080910402602001604051908101604052809291908181526020018280546125f79061c8a4565b80156126445780601f1061261957610100808354040283529160200191612644565b820191906000526020600020905b81548152906001019060200180831161262757829003601f168201915b5050505050905083565b6b204fce5e3e2502611000000081565b6060600080602e60003373ffffffffffffffffffffffffffffffffffffffff1673ffffffffffffffffffffffffffffffffffffffff16815260200190815260200160002060008581526020019081526020016000208054806020026020016040519081016040528092919081815260200182805480156126fd57602002820191906000526020600020905b8154815260200190600101908083116126e9575b505050505090508081519250925050915091565b602e602052826000526040600020602052816000526040600020818154811061273957600080fd5b9060005260206000200160009250925050505481565b60316020528160005260406000206020528060005260406000206000915091509054906101000a900460ff1681565b601b6020528060005260406000206000915090508060000154905081565b7fadb22091b155738d2e889eb96f509d2a7c93234236b30400927feb4a6a15ab006127c681618e8c565b600060216000858152602001908152602001600020600101540361281f576040517f08c379a00000000000000000000000000000000000000000000000000000000081526004016128169061cdda565b60405180910390fd5b82602160008581526020019081526020016000206001015414612877576040517f08c379a000000000000000000000000000000000000000000000000000000000815260040161286e9061ce46565b60405180910390fd5b8160216000858152602001908152602001600020600201908161289a919061cc2a565b5082847fad5fab99ac4d99e1061fd121b36537d5213be564a3dc6cc383897dc355e89ff5846040516128cc919061a934565b60405180910390a350505050565b6128e2618e72565b73ffffffffffffffffffffffffffffffffffffffff168173ffffffffffffffffffffffffffffffffffffffff1614612946576040517f6697b23200000000000000000000000000000000000000000000000000000000815260040160405180910390fd5b6129508282618ea0565b505050565b7fadb22091b155738d2e889eb96f509d2a7c93234236b30400927feb4a6a15ab0081565b7fc10c77be35aff266144ed64c26a1fa104bae2f284ae99ac4a34203454704a18581565b60096020528060005260406000206000915090508060000154908060010160009054906101000a900473ffffffffffffffffffffffffffffffffffffffff16908060020160009054906101000a900473ffffffffffffffffffffffffffffffffffffffff1690806003018054612a129061c8a4565b80601f0160208091040260200160405190810160405280929190818152602001828054612a3e9061c8a4565b8015612a8b5780601f10612a6057610100808354040283529160200191612a8b565b820191906000526020600020905b815481529060010190602001808311612a6e57829003601f168201915b5050505050908060040154908060050160009054906101000a900460ff16905086565b60606021600083815260200190815260200160002060040160009054906101000a900460ff16612b13576040517f08c379a0000000000000000000000000000000000000000000000000000000008152600401612b0a9061ceb2565b60405180910390fd5b60216000838152602001908152602001600020600301805480602002602001604051908101604052809291908181526020016000905b82821015612d2d57838290600052602060002090600402016040518060800160405290816000820154815260200160018201548152602001600282018054612b909061c8a4565b80601f0160208091040260200160405190810160405280929190818152602001828054612bbc9061c8a4565b8015612c095780601f10612bde57610100808354040283529160200191612c09565b820191906000526020600020905b815481529060010190602001808311612bec57829003601f168201915b5050505050815260200160038201805480602002602001604051908101604052809291908181526020016000905b82821015612d165783829060005260206000209060020201604051806040016040529081600082018054612c6a9061c8a4565b80601f0160208091040260200160405190810160405280929190818152602001828054612c969061c8a4565b8015612ce35780601f10612cb857610100808354040283529160200191612ce3565b820191906000526020600020905b815481529060010190602001808311612cc657829003601f168201915b505050505081526020016001820160009054906101000a900460ff16151515158152505081526020019060010190612c37565b505050508152505081526020019060010190612b49565b505050509050919050565b601e6020528160005260406000208181548110612d5457600080fd5b906000526020600020906005020160009150915050806000015490806001015490806002018054612d849061c8a4565b80601f0160208091040260200160405190810160405280929190818152602001828054612db09061c8a4565b8015612dfd5780601f10612dd257610100808354040283529160200191612dfd565b820191906000526020600020905b815481529060010190602001808311612de057829003601f168201915b5050505050908060030154908060040160009054906101000a900460ff16905085565b6000801b612e2d81618e8c565b612e577fdf1425bae297c2f52b4f15d18a50b1fc8cb5b981a981b1d213ed3ff92681b64d83619330565b505050565b602f6020528160005260406000206020528060005260406000206000915091509054906101000a900460ff1681565b6000612e95619e5f565b6025600088815260200190815260200160002060003373ffffffffffffffffffffffffffffffffffffffff1673ffffffffffffffffffffffffffffffffffffffff16815260200190815260200160002060009054906101000a900460ff16612f32576040517f08c379a0000000000000000000000000000000000000000000000000000000008152600401612f299061cf44565b60405180910390fd5b602f600088815260200190815260200160002060003373ffffffffffffffffffffffffffffffffffffffff1673ffffffffffffffffffffffffffffffffffffffff16815260200190815260200160002060009054906101000a900460ff1615612fd0576040517f08c379a0000000000000000000000000000000000000000000000000000000008152600401612fc79061cfd6565b60405180910390fd5b6001602f600089815260200190815260200160002060003373ffffffffffffffffffffffffffffffffffffffff1673ffffffffffffffffffffffffffffffffffffffff16815260200190815260200160002060006101000a81548160ff02191690831515021790555061304b33671bc16d674ec80000619422565b5060008787878787426040516020016130699695949392919061d053565b6040516020818303038152906040528051906020012060001c905060006040518060e001604052808381526020018a81526020018981526020018781526020018681526020018881526020013373ffffffffffffffffffffffffffffffffffffffff16815250905080603260008481526020019081526020016000206000820151816000015560208201518160010155604082015181600201908161310e919061cc2a565b506060820151816003019081613124919061cc2a565b506080820151816004015560a0820151816005019081613144919061cc2a565b5060c08201518160060160006101000a81548173ffffffffffffffffffffffffffffffffffffffff021916908373ffffffffffffffffffffffffffffffffffffffff1602179055509050507f95ad50d6596337460bdce4b8db70313463e0615be9266b573e781327aef44e098288888b6040516131c4949392919061d0b7565b60405180910390a181819350935050509550959350505050565b602b81815481106131ee57600080fd5b906000526020600020906004020160009150905080600001549080600101549080600201805461321d9061c8a4565b80601f01602080910402602001604051908101604052809291908181526020018280546132499061c8a4565b80156132965780601f1061326b57610100808354040283529160200191613296565b820191906000526020600020905b81548152906001019060200180831161327957829003601f168201915b5050505050905083565b7fdf1425bae297c2f52b4f15d18a50b1fc8cb5b981a981b1d213ed3ff92681b64d81565b7fc10c77be35aff266144ed64c26a1fa104bae2f284ae99ac4a34203454704a1856132ee81618e8c565b6132f88c3361950f565b613337576040517f08c379a000000000000000000000000000000000000000000000000000000000815260040161332e9061d183565b60405180910390fd5b601a60008d815260200190815260200160002060003373ffffffffffffffffffffffffffffffffffffffff1673ffffffffffffffffffffffffffffffffffffffff168152602001908152602001600020600a0160009054906101000a900460ff16156133d8576040517f08c379a00000000000000000000000000000000000000000000000000000000081526004016133cf9061d215565b60405180910390fd5b6133ea8b8b8b8b8b8b8b8b8b8b6195da565b6040518061016001604052808c81526020018b81526020018a815260200189815260200188815260200187815260200186815260200185815260200184815260200183815260200160011515815250601a60008e815260200190815260200160002060003373ffffffffffffffffffffffffffffffffffffffff1673ffffffffffffffffffffffffffffffffffffffff168152602001908152602001600020600082015181600001556020820151816001015560408201518160020155606082015181600301556080820151816004015560a0820151816005015560c0820151816006015560e082015181600701556101008201518160080155610120820151816009015561014082015181600a0160006101000a81548160ff021916908315150217905550905050605061356d601a60008f815260200190815260200160002060003373ffffffffffffffffffffffffffffffffffffffff1673ffffffffffffffffffffffffffffffffffffffff16815260200190815260200160002061969f565b1061357c5761357b8c6141d5565b5b505050505050505050505050565b600281565b6030602052816000526040600020602052806000526040600020600091509150505481565b60007fadb22091b155738d2e889eb96f509d2a7c93234236b30400927feb4a6a15ab006135e081618e8c565b6000601960008681526020019081526020016000206000015403613639576040517f08c379a00000000000000000000000000000000000000000000000000000000081526004016136309061d281565b60405180910390fd5b8260196000868152602001908152602001600020600101908161365c919061cc2a565b50837f5c8c98b6b26236296c856fae8a5ca0c793bbb81c5f8b7c9a9ab99358f53fb0c08460405161368d919061a934565b60405180910390a2600191505092915050565b6000806016549050601f600085815260200190815260200160002060230160009054906101000a900460ff1661370b576040517f08c379a00000000000000000000000000000000000000000000000000000000081526004016137029061d2ed565b60405180910390fd5b600060216000838152602001908152602001600020905084816000018190555081816001018190555083816002019081613745919061cc2a565b5060018160040160006101000a81548160ff021916908315150217905550601660008154809291906137769061d30d565b9190505550602a8190806001815401808255809150506001900390600052602060002090600502016000909190919091506000820154816000015560018201548160010155600282018160020190816137cf919061d36b565b5060038201816003019080546137e6929190619eb2565b506004820160009054906101000a900460ff168160040160006101000a81548160ff021916908315150217905550505083604051613824919061d453565b6040518091039020827fbf27702cefbc4aea50d7c73cfee96f84f5b908f62aeafcd8b0aeae202c15050960405160405180910390a3819250505092915050565b60125481565b60326020528060005260406000206000915090508060000154908060010154908060020180546138999061c8a4565b80601f01602080910402602001604051908101604052809291908181526020018280546138c59061c8a4565b80156139125780601f106138e757610100808354040283529160200191613912565b820191906000526020600020905b8154815290600101906020018083116138f557829003601f168201915b5050505050908060030180546139279061c8a4565b80601f01602080910402602001604051908101604052809291908181526020018280546139539061c8a4565b80156139a05780601f10613975576101008083540402835291602001916139a0565b820191906000526020600020905b81548152906001019060200180831161398357829003601f168201915b5050505050908060040154908060050180546139bb9061c8a4565b80601f01602080910402602001604051908101604052809291908181526020018280546139e79061c8a4565b8015613a345780601f10613a0957610100808354040283529160200191613a34565b820191906000526020600020905b815481529060010190602001808311613a1757829003601f168201915b5050505050908060060160009054906101000a900473ffffffffffffffffffffffffffffffffffffffff16905087565b60606000601654905060008167ffffffffffffffff811115613a8957613a8861ad32565b5b604051908082528060200260200182016040528015613ac257816020015b613aaf619f4a565b815260200190600190039081613aa75790505b50905060005b82811015613deb57602160008281526020019081526020016000206040518060a00160405290816000820154815260200160018201548152602001600282018054613b129061c8a4565b80601f0160208091040260200160405190810160405280929190818152602001828054613b3e9061c8a4565b8015613b8b5780601f10613b6057610100808354040283529160200191613b8b565b820191906000526020600020905b815481529060010190602001808311613b6e57829003601f168201915b5050505050815260200160038201805480602002602001604051908101604052809291908181526020016000905b82821015613d9d57838290600052602060002090600402016040518060800160405290816000820154815260200160018201548152602001600282018054613c009061c8a4565b80601f0160208091040260200160405190810160405280929190818152602001828054613c2c9061c8a4565b8015613c795780601f10613c4e57610100808354040283529160200191613c79565b820191906000526020600020905b815481529060010190602001808311613c5c57829003601f168201915b5050505050815260200160038201805480602002602001604051908101604052809291908181526020016000905b82821015613d865783829060005260206000209060020201604051806040016040529081600082018054613cda9061c8a4565b80601f0160208091040260200160405190810160405280929190818152602001828054613d069061c8a4565b8015613d535780601f10613d2857610100808354040283529160200191613d53565b820191906000526020600020905b815481529060010190602001808311613d3657829003601f168201915b505050505081526020016001820160009054906101000a900460ff16151515158152505081526020019060010190613ca7565b505050508152505081526020019060010190613bb9565b5050505081526020016004820160009054906101000a900460ff161515151581525050828281518110613dd357613dd261c846565b5b60200260200101819052508080600101915050613ac8565b50809250505090565b60185481565b60268181548110613e0a57600080fd5b9060005260206000209060080201600091509050806000015490806001018054613e339061c8a4565b80601f0160208091040260200160405190810160405280929190818152602001828054613e5f9061c8a4565b8015613eac5780601f10613e8157610100808354040283529160200191613eac565b820191906000526020600020905b815481529060010190602001808311613e8f57829003601f168201915b505050505090806002018054613ec19061c8a4565b80601f0160208091040260200160405190810160405280929190818152602001828054613eed9061c8a4565b8015613f3a5780601f10613f0f57610100808354040283529160200191613f3a565b820191906000526020600020905b815481529060010190602001808311613f1d57829003601f168201915b5050505050908060030160009054906101000a900460ff16908060040154908060050160009054906101000a900473ffffffffffffffffffffffffffffffffffffffff16908060050160149054906101000a900460ff16908060070160009054906101000a900460ff16905088565b60008060008373ffffffffffffffffffffffffffffffffffffffff1673ffffffffffffffffffffffffffffffffffffffff168152602001908152602001600020549050919050565b7fc10c77be35aff266144ed64c26a1fa104bae2f284ae99ac4a34203454704a18561401b81618e8c565b600860008373ffffffffffffffffffffffffffffffffffffffff1673ffffffffffffffffffffffffffffffffffffffff16815260200190815260200160002060009054906101000a900460ff16156140a8576040517f08c379a000000000000000000000000000000000000000000000000000000000815260040161409f9061d4b6565b60405180910390fd5b6140d27fc10c77be35aff266144ed64c26a1fa104bae2f284ae99ac4a34203454704a18583619330565b506006829080600181540180825580915050600190039060005260206000200160009091909190916101000a81548173ffffffffffffffffffffffffffffffffffffffff021916908373ffffffffffffffffffffffffffffffffffffffff1602179055506001600860008473ffffffffffffffffffffffffffffffffffffffff1673ffffffffffffffffffffffffffffffffffffffff16815260200190815260200160002060006101000a81548160ff0219169083151502179055508173ffffffffffffffffffffffffffffffffffffffff167fe1cb5e1230cc02e62c60b81c1aa5ade512f3eac296edb28628b4cf344f47f93160405160405180910390a25050565b7fc10c77be35aff266144ed64c26a1fa104bae2f284ae99ac4a34203454704a1856141ff81618e8c565b60006019600084815260200190815260200160002090508060030160009054906101000a900460ff1615614268576040517f08c379a000000000000000000000000000000000000000000000000000000000815260040161425f9061d522565b60405180910390fd5b601c60003373ffffffffffffffffffffffffffffffffffffffff1673ffffffffffffffffffffffffffffffffffffffff168152602001908152602001600020600084815260200190815260200160002060009054906101000a900460ff1615614306576040517f08c379a00000000000000000000000000000000000000000000000000000000081526004016142fd9061d5b4565b60405180910390fd5b6001601c60003373ffffffffffffffffffffffffffffffffffffffff1673ffffffffffffffffffffffffffffffffffffffff168152602001908152602001600020600085815260200190815260200160002060006101000a81548160ff0219169083151502179055508060040160008154809291906143849061d30d565b919050555060028160040154106144a95760018160030160006101000a81548160ff02191690831515021790555060005b60268054905081101561446c5783602682815481106143d7576143d661c846565b5b9060005260206000209060080201600001540361445f576001602682815481106144045761440361c846565b5b906000526020600020906008020160030160006101000a81548160ff0219169083151502179055508160040154602682815481106144455761444461c846565b5b90600052602060002090600802016004018190555061446c565b80806001019150506143b5565b506144a38160050160009054906101000a900473ffffffffffffffffffffffffffffffffffffffff16674563918244f40000619422565b50614527565b60005b6026805490508110156145255783602682815481106144ce576144cd61c846565b5b90600052602060002090600802016000015403614518578160040154602682815481106144fe576144fd61c846565b5b906000526020600020906008020160040181905550614525565b80806001019150506144ac565b505b505050565b60006015549050601d600085815260200190815260200160002060040160009054906101000a900460ff16614596576040517f08c379a000000000000000000000000000000000000000000000000000000000815260040161458d9061d620565b60405180910390fd5b6000601f60008381526020019081526020016000209050848160000181905550818160010181905550838160020190816145d0919061cc2a565b50828160030190816145e2919061cc2a565b5060018160230160006101000a81548160ff021916908315150217905550600081602201819055506028601f60008481526020019081526020016000209080600181540180825580915050600190039060005260206000209060240201600090919091909150600082015481600001556001820154816001015560028201816002019081614670919061d36b565b5060038201816003019081614685919061d36b565b50600482018160040190600a61469c929190619f7b565b50602282015481602201556023820160009054906101000a900460ff168160230160006101000a81548160ff0219169083151502179055505050601560008154809291906146e99061d30d565b9190505550600a846040516146fe919061d453565b6040518091039020837f3387c3a40ec1df95e34d25a0e5564b40d01c331b71ccbafccccc66d36c84ad8360405160405180910390a45050505050565b671bc16d674ec8000081565b60135481565b671bc16d674ec8000081565b60216020528060005260406000206000915090508060000154908060010154908060020180546147879061c8a4565b80601f01602080910402602001604051908101604052809291908181526020018280546147b39061c8a4565b80156148005780601f106147d557610100808354040283529160200191614800565b820191906000526020600020905b8154815290600101906020018083116147e357829003601f168201915b5050505050908060040160009054906101000a900460ff16905084565b60007fadb22091b155738d2e889eb96f509d2a7c93234236b30400927feb4a6a15ab0061484981618e8c565b60006021600086815260200190815260200160002060010154036148a2576040517f08c379a00000000000000000000000000000000000000000000000000000000081526004016148999061ceb2565b60405180910390fd5b60006022600085815260200190815260200160002060010154036148fb576040517f08c379a00000000000000000000000000000000000000000000000000000000081526004016148f29061d68c565b60405180910390fd5b60005b602b80549050811015614a385783602b82815481106149205761491f61c846565b5b90600052602060002090600402016001015403614a2b57602b6001602b8054905061494b919061d6ac565b8154811061495c5761495b61c846565b5b9060005260206000209060040201602b828154811061497e5761497d61c846565b5b90600052602060002090600402016000820154816000015560018201548160010155600282018160020190816149b4919061d36b565b5060038201816003019080546149cb92919061a025565b50905050602b8054806149e1576149e061d6e0565b5b60019003818190600052602060002090600402016000808201600090556001820160009055600282016000614a16919061a0bf565b600382016000614a26919061a0ff565b505090555b80806001019150506148fe565b50602260008481526020019081526020016000206000808201600090556001820160009055600282016000614a6d919061a0bf565b600382016000614a7d919061a0ff565b505082847ff084fa19916f58d56801346cc04ca2d2c28a5531dc7db17ebd2323685518b12660405160405180910390a3600191505092915050565b600060196000601354815260200190815260200160002060050160149054906101000a900460ff1615614b20576040517f08c379a0000000000000000000000000000000000000000000000000000000008152600401614b179061d75b565b60405180910390fd5b60006040518061012001604052806013548152602001868152602001858152602001600015158152602001600081526020013373ffffffffffffffffffffffffffffffffffffffff168152602001600115158152602001600067ffffffffffffffff811115614b9257614b9161ad32565b5b604051908082528060200260200182016040528015614bc05781602001602082028036833780820191505090505b508152602001846002811115614bd957614bd861a6be565b5b815250905080601960006013548152602001908152602001600020600082015181600001556020820151816001019081614c13919061cc2a565b506040820151816002019081614c29919061cc2a565b5060608201518160030160006101000a81548160ff0219169083151502179055506080820151816004015560a08201518160050160006101000a81548173ffffffffffffffffffffffffffffffffffffffff021916908373ffffffffffffffffffffffffffffffffffffffff16021790555060c08201518160050160146101000a81548160ff02191690831515021790555060e0820151816006019080519060200190614cd792919061a123565b506101008201518160070160006101000a81548160ff02191690836002811115614d0457614d0361a6be565b5b02179055509050506026819080600181540180825580915050600190039060005260206000209060080201600090919091909150600082015181600001556020820151816001019081614d57919061cc2a565b506040820151816002019081614d6d919061cc2a565b5060608201518160030160006101000a81548160ff0219169083151502179055506080820151816004015560a08201518160050160006101000a81548173ffffffffffffffffffffffffffffffffffffffff021916908373ffffffffffffffffffffffffffffffffffffffff16021790555060c08201518160050160146101000a81548160ff02191690831515021790555060e0820151816006019080519060200190614e1b92919061a123565b506101008201518160070160006101000a81548160ff02191690836002811115614e4857614e4761a6be565b5b0217905550505060126000815480929190614e629061d30d565b91905055506001601b60003373ffffffffffffffffffffffffffffffffffffffff1673ffffffffffffffffffffffffffffffffffffffff1681526020019081526020016000206000016000828254614eba919061d77b565b9250508190555060136000815480929190614ed49061d30d565b9190505550614f037fadb22091b155738d2e889eb96f509d2a7c93234236b30400927feb4a6a15ab0033619330565b5084604051614f12919061d453565b60405180910390206001601354614f29919061d6ac565b7f9c93a42b217373d37e6c66ace0a67fe1fa1f78c93164b62417de69c48c0f67e2601960006001601354614f5d919061d6ac565b815260200190815260200160002060030160009054906101000a900460ff16604051614f89919061a4cf565b60405180910390a360019150509392505050565b7fadb22091b155738d2e889eb96f509d2a7c93234236b30400927feb4a6a15ab00614fc781618e8c565b6024600083815260200190815260200160002060009054906101000a900460ff1615615028576040517f08c379a000000000000000000000000000000000000000000000000000000000815260040161501f9061d7fb565b60405180910390fd5b60036006805490501015615071576040517f08c379a00000000000000000000000000000000000000000000000000000000081526004016150689061d867565b60405180910390fd5b602360008381526020019081526020016000206000615090919061a1ad565b60005b600381101561526d5760006006805490504244600680549050856040516020016150c0949392919061d887565b6040516020818303038152906040528051906020012060001c6150e3919061d8d5565b90506000600682815481106150fb576150fa61c846565b5b9060005260206000200160009054906101000a900473ffffffffffffffffffffffffffffffffffffffff1690506000805b60236000888152602001908152602001600020805490508110156151e2578273ffffffffffffffffffffffffffffffffffffffff166023600089815260200190815260200160002082815481106151865761518561c846565b5b9060005260206000200160009054906101000a900473ffffffffffffffffffffffffffffffffffffffff1673ffffffffffffffffffffffffffffffffffffffff16036151d557600191506151e2565b808060010191505061512c565b508061525d5760236000878152602001908152602001600020829080600181540180825580915050600190039060005260206000200160009091909190916101000a81548173ffffffffffffffffffffffffffffffffffffffff021916908373ffffffffffffffffffffffffffffffffffffffff1602179055505b5050508080600101915050615093565b5060036023600084815260200190815260200160002080549050036152b95760016024600084815260200190815260200160002060006101000a81548160ff0219169083151502179055505b817fe205dff861c570b8df17e26f893778853f94bb25d2de318755e48eab0b403ff7602360008581526020019081526020016000206040516152fb919061d9f2565b60405180910390a25050565b60006005600084815260200190815260200160002060000160008373ffffffffffffffffffffffffffffffffffffffff1673ffffffffffffffffffffffffffffffffffffffff16815260200190815260200160002060009054906101000a900460ff16905092915050565b670de0b6b3a764000081565b60606004805461538d9061c8a4565b80601f01602080910402602001604051908101604052809291908181526020018280546153b99061c8a4565b80156154065780601f106153db57610100808354040283529160200191615406565b820191906000526020600020905b8154815290600101906020018083116153e957829003601f168201915b5050505050905090565b602d602052816000526040600020818154811061542c57600080fd5b90600052602060002001600091509150505481565b60606000602780549050905060008167ffffffffffffffff8111156154695761546861ad32565b5b6040519080825280602002602001820160405280156154a257816020015b61548f61a1ce565b8152602001906001900390816154875790505b50905060005b828110156155d357602781815481106154c4576154c361c846565b5b90600052602060002090600502016040518060a001604052908160008201548152602001600182015481526020016002820180546155019061c8a4565b80601f016020809104026020016040519081016040528092919081815260200182805461552d9061c8a4565b801561557a5780601f1061554f5761010080835404028352916020019161557a565b820191906000526020600020905b81548152906001019060200180831161555d57829003601f168201915b50505050508152602001600382015481526020016004820160009054906101000a900460ff1615151515815250508282815181106155bb576155ba61c846565b5b602002602001018190525080806001019150506154a8565b50809250505090565b60007fadb22091b155738d2e889eb96f509d2a7c93234236b30400927feb4a6a15ab0061560881618e8c565b6000601960008581526020019081526020016000206000015403615661576040517f08c379a00000000000000000000000000000000000000000000000000000000081526004016156589061da60565b60405180910390fd5b60005b60268054905081116159295783602682815481106156855761568461c846565b5b9060005260206000209060080201600001540361591657602660016026805490506156b0919061d6ac565b815481106156c1576156c061c846565b5b9060005260206000209060080201602682815481106156e3576156e261c846565b5b9060005260206000209060080201600082015481600001556001820181600101908161570f919061d36b565b5060028201816002019081615724919061d36b565b506003820160009054906101000a900460ff168160030160006101000a81548160ff021916908315150217905550600482015481600401556005820160009054906101000a900473ffffffffffffffffffffffffffffffffffffffff168160050160006101000a81548173ffffffffffffffffffffffffffffffffffffffff021916908373ffffffffffffffffffffffffffffffffffffffff1602179055506005820160149054906101000a900460ff168160050160146101000a81548160ff021916908315150217905550600682018160060190805461580692919061a1ff565b506007820160009054906101000a900460ff168160070160006101000a81548160ff0219169083600281111561583f5761583e61a6be565b5b021790555090505060268054806158595761585861d6e0565b5b6001900381819060005260206000209060080201600080820160009055600182016000615886919061a0bf565b600282016000615896919061a0bf565b6003820160006101000a81549060ff021916905560048201600090556005820160006101000a81549073ffffffffffffffffffffffffffffffffffffffff02191690556005820160146101000a81549060ff02191690556006820160006158fd919061a1ad565b6007820160006101000a81549060ff0219169055505090555b80806159219061d30d565b915050615664565b5060196000848152602001908152602001600020600080820160009055600182016000615956919061a0bf565b600282016000615966919061a0bf565b6003820160006101000a81549060ff021916905560048201600090556005820160006101000a81549073ffffffffffffffffffffffffffffffffffffffff02191690556005820160146101000a81549060ff02191690556006820160006159cd919061a1ad565b6007820160006101000a81549060ff02191690555050827f50d94198096be9c8aad282f822173f9212251c4d4dc2731fa944f3941749a78d33604051615a13919061aa97565b60405180910390a26001915050919050565b60007fadb22091b155738d2e889eb96f509d2a7c93234236b30400927feb4a6a15ab00615a5181618e8c565b6000601d60008681526020019081526020016000206001015403615aaa576040517f08c379a0000000000000000000000000000000000000000000000000000000008152600401615aa19061dacc565b60405180910390fd5b6000601f60008581526020019081526020016000206001015403615b03576040517f08c379a0000000000000000000000000000000000000000000000000000000008152600401615afa9061db38565b60405180910390fd5b60005b6027805490508111615cae5783601f60008381526020019081526020016000206001015403615c9b5760286001602880549050615b43919061d6ac565b81548110615b5457615b5361c846565b5b906000526020600020906024020160288281548110615b7657615b7561c846565b5b9060005260206000209060240201600082015481600001556001820154816001015560028201816002019081615bac919061d36b565b5060038201816003019081615bc1919061d36b565b50600482018160040190600a615bd8929190619f7b565b50602282015481602201556023820160009054906101000a900460ff168160230160006101000a81548160ff0219169083151502179055509050506028805480615c2557615c2461d6e0565b5b60019003818190600052602060002090602402016000808201600090556001820160009055600282016000615c5a919061a0bf565b600382016000615c6a919061a0bf565b600482016000615c7a919061a251565b60228201600090556023820160006101000a81549060ff0219169055505090555b8080615ca69061d30d565b915050615b06565b50601f60008481526020019081526020016000206000808201600090556001820160009055600282016000615ce3919061a0bf565b600382016000615cf3919061a0bf565b600482016000615d03919061a251565b60228201600090556023820160006101000a81549060ff0219169055505082847f1cdc2ff39034471047dd6d36512a12b5c2e9a30137b2e45daecd05383221d97b60405160405180910390a3600191505092915050565b60115481565b60236020528160005260406000208181548110615d7c57600080fd5b906000526020600020016000915091509054906101000a900473ffffffffffffffffffffffffffffffffffffffff1681565b6000801b81565b60606000602880549050905060008167ffffffffffffffff811115615ddd57615ddc61ad32565b5b604051908082528060200260200182016040528015615e1657816020015b615e0361a267565b815260200190600190039081615dfb5790505b50905060005b828110156161845760288181548110615e3857615e3761c846565b5b90600052602060002090602402016040518060e00160405290816000820154815260200160018201548152602001600282018054615e759061c8a4565b80601f0160208091040260200160405190810160405280929190818152602001828054615ea19061c8a4565b8015615eee5780601f10615ec357610100808354040283529160200191615eee565b820191906000526020600020905b815481529060010190602001808311615ed157829003601f168201915b50505050508152602001600382018054615f079061c8a4565b80601f0160208091040260200160405190810160405280929190818152602001828054615f339061c8a4565b8015615f805780601f10615f5557610100808354040283529160200191615f80565b820191906000526020600020905b815481529060010190602001808311615f6357829003601f168201915b5050505050815260200160048201600a80602002604051908101604052809291906000905b8282101561612c578382600302016040518060600160405290816000820160009054906101000a900460ff166002811115615fe357615fe261a6be565b5b6002811115615ff557615ff461a6be565b5b81526020016001820180546160099061c8a4565b80601f01602080910402602001604051908101604052809291908181526020018280546160359061c8a4565b80156160825780601f1061605757610100808354040283529160200191616082565b820191906000526020600020905b81548152906001019060200180831161606557829003601f168201915b5050505050815260200160028201805461609b9061c8a4565b80601f01602080910402602001604051908101604052809291908181526020018280546160c79061c8a4565b80156161145780601f106160e957610100808354040283529160200191616114565b820191906000526020600020905b8154815290600101906020018083116160f757829003601f168201915b50505050508152505081526020019060010190615fa5565b505050508152602001602282015481526020016023820160009054906101000a900460ff16151515158152505082828151811061616c5761616b61c846565b5b60200260200101819052508080600101915050615e1c565b50809250505090565b601d6020528060005260406000206000915090508060000154908060010154908060020180546161bc9061c8a4565b80601f01602080910402602001604051908101604052809291908181526020018280546161e89061c8a4565b80156162355780601f1061620a57610100808354040283529160200191616235565b820191906000526020600020905b81548152906001019060200180831161621857829003601f168201915b5050505050908060030154908060040160009054906101000a900460ff16905085565b616260619f4a565b6021600083815260200190815260200160002060040160009054906101000a900460ff166162c3576040517f08c379a00000000000000000000000000000000000000000000000000000000081526004016162ba9061ceb2565b60405180910390fd5b602160008381526020019081526020016000206040518060a001604052908160008201548152602001600182015481526020016002820180546163059061c8a4565b80601f01602080910402602001604051908101604052809291908181526020018280546163319061c8a4565b801561637e5780601f106163535761010080835404028352916020019161637e565b820191906000526020600020905b81548152906001019060200180831161636157829003601f168201915b5050505050815260200160038201805480602002602001604051908101604052809291908181526020016000905b82821015616590578382906000526020600020906004020160405180608001604052908160008201548152602001600182015481526020016002820180546163f39061c8a4565b80601f016020809104026020016040519081016040528092919081815260200182805461641f9061c8a4565b801561646c5780601f106164415761010080835404028352916020019161646c565b820191906000526020600020905b81548152906001019060200180831161644f57829003601f168201915b5050505050815260200160038201805480602002602001604051908101604052809291908181526020016000905b8282101561657957838290600052602060002090600202016040518060400160405290816000820180546164cd9061c8a4565b80601f01602080910402602001604051908101604052809291908181526020018280546164f99061c8a4565b80156165465780601f1061651b57610100808354040283529160200191616546565b820191906000526020600020905b81548152906001019060200180831161652957829003601f168201915b505050505081526020016001820160009054906101000a900460ff1615151515815250508152602001906001019061649a565b5050505081525050815260200190600101906163ac565b5050505081526020016004820160009054906101000a900460ff1615151515815250509050919050565b6000806165c5618e72565b90506165d281858561923c565b600191505092915050565b6020805281600052604060002081815481106165f857600080fd5b906000526020600020016000915091505080546166149061c8a4565b80601f01602080910402602001604051908101604052809291908181526020018280546166409061c8a4565b801561668d5780601f106166625761010080835404028352916020019161668d565b820191906000526020600020905b81548152906001019060200180831161667057829003601f168201915b505050505081565b6060601e6000838152602001908152602001600020805480602002602001604051908101604052809291908181526020016000905b828210156167c757838290600052602060002090600502016040518060a001604052908160008201548152602001600182015481526020016002820180546167119061c8a4565b80601f016020809104026020016040519081016040528092919081815260200182805461673d9061c8a4565b801561678a5780601f1061675f5761010080835404028352916020019161678a565b820191906000526020600020905b81548152906001019060200180831161676d57829003601f168201915b50505050508152602001600382015481526020016004820160009054906101000a900460ff161515151581525050815260200190600101906166ca565b505050509050919050565b605081565b7fadb22091b155738d2e889eb96f509d2a7c93234236b30400927feb4a6a15ab0061680181618e8c565b6000601f600087815260200190815260200160002090508060230160009054906101000a900460ff16616869576040517f08c379a00000000000000000000000000000000000000000000000000000000081526004016168609061dba4565b60405180910390fd5b600081602201549050600a8585905082616883919061d77b565b11156168c4576040517f08c379a00000000000000000000000000000000000000000000000000000000081526004016168bb9061dc10565b60405180910390fd5b60005b85859050811015616ab55760405180606001604052808787848181106168f0576168ef61c846565b5b9050602002810190616902919061dc3f565b6000016020810190616914919061dc67565b60028111156169265761692561a6be565b5b815260200187878481811061693e5761693d61c846565b5b9050602002810190616950919061dc3f565b806020019061695f919061dc94565b8080601f016020809104026020016040519081016040528093929190818152602001838380828437600081840152601f19601f8201169050808301925050505050505081526020018787848181106169ba576169b961c846565b5b90506020028101906169cc919061dc3f565b80604001906169db919061dc94565b8080601f016020809104026020016040519081016040528093929190818152602001838380828437600081840152601f19601f820116905080830192505050505050508152508360040183600a8110616a3757616a3661c846565b5b6003020160008201518160000160006101000a81548160ff02191690836002811115616a6657616a6561a6be565b5b02179055506020820151816001019081616a80919061cc2a565b506040820151816002019081616a96919061cc2a565b509050508180616aa59061d30d565b92505080806001019150506168c7565b5080826022018190555060005b602880549050811015616bbf578760288281548110616ae457616ae361c846565b5b90600052602060002090602402016001015403616bb2578260288281548110616b1057616b0f61c846565b5b9060005260206000209060240201600082015481600001556001820154816001015560028201816002019081616b46919061d36b565b5060038201816003019081616b5b919061d36b565b50600482018160040190600a616b72929190619f7b565b50602282015481602201556023820160009054906101000a900460ff168160230160006101000a81548160ff021916908315150217905550905050616bbf565b8080600101915050616ac2565b5050505050505050565b7fdf1425bae297c2f52b4f15d18a50b1fc8cb5b981a981b1d213ed3ff92681b64d616bf381618e8c565b60006009600084815260200190815260200160002090508060050160009054906101000a900460ff1615616c5c576040517f08c379a0000000000000000000000000000000000000000000000000000000008152600401616c539061dd43565b60405180910390fd5b8060060160003373ffffffffffffffffffffffffffffffffffffffff1673ffffffffffffffffffffffffffffffffffffffff16815260200190815260200160002060009054906101000a900460ff1615616ceb576040517f08c379a0000000000000000000000000000000000000000000000000000000008152600401616ce29061ddaf565b60405180910390fd5b60018160060160003373ffffffffffffffffffffffffffffffffffffffff1673ffffffffffffffffffffffffffffffffffffffff16815260200190815260200160002060006101000a81548160ff021916908315150217905550806004016000815480929190616d5a9061d30d565b9190505550827f5d4ccf5f92566d140246f4ae3b9cb35dc06fff109a7748602ad77f6260fd9a6133604051616d8f919061aa97565b60405180910390a26003816004015410616ec35760008160020160009054906101000a900473ffffffffffffffffffffffffffffffffffffffff1673ffffffffffffffffffffffffffffffffffffffff1682600301604051616df1919061de72565b6000604051808303816000865af19150503d8060008114616e2e576040519150601f19603f3d011682016040523d82523d6000602084013e616e33565b606091505b5050905080616e77576040517f08c379a0000000000000000000000000000000000000000000000000000000008152600401616e6e9061ded5565b60405180910390fd5b60018260050160006101000a81548160ff021916908315150217905550837f7770356c29230b95943aec59d47ead11eb426a728bf5b57f7fd8597f3c0e29ba60405160405180910390a2505b505050565b601f602052806000526040600020600091509050806000015490806001015490806002018054616ef79061c8a4565b80601f0160208091040260200160405190810160405280929190818152602001828054616f239061c8a4565b8015616f705780601f10616f4557610100808354040283529160200191616f70565b820191906000526020600020905b815481529060010190602001808311616f5357829003601f168201915b505050505090806003018054616f859061c8a4565b80601f0160208091040260200160405190810160405280929190818152602001828054616fb19061c8a4565b8015616ffe5780601f10616fd357610100808354040283529160200191616ffe565b820191906000526020600020905b815481529060010190602001808311616fe157829003601f168201915b5050505050908060220154908060230160009054906101000a900460ff16905086565b601a6020528160005260406000206020528060005260406000206000915091505080600001549080600101549080600201549080600301549080600401549080600501549080600601549080600701549080600801549080600901549080600a0160009054906101000a900460ff1690508b565b60606023600083815260200190815260200160002080548060200260200160405190810160405280929190818152602001828054801561712a57602002820191906000526020600020905b8160009054906101000a900473ffffffffffffffffffffffffffffffffffffffff1673ffffffffffffffffffffffffffffffffffffffff16815260200190600101908083116170e0575b50505050509050919050565b60086020528060005260406000206000915054906101000a900460ff1681565b6000601154905090565b6027818154811061717057600080fd5b906000526020600020906005020160009150905080600001549080600101549080600201805461719f9061c8a4565b80601f01602080910402602001604051908101604052809291908181526020018280546171cb9061c8a4565b80156172185780601f106171ed57610100808354040283529160200191617218565b820191906000526020600020905b8154815290600101906020018083116171fb57829003601f168201915b5050505050908060030154908060040160009054906101000a900460ff16905085565b6000801b61724881618e8c565b600860008373ffffffffffffffffffffffffffffffffffffffff1673ffffffffffffffffffffffffffffffffffffffff16815260200190815260200160002060009054906101000a900460ff166172d4576040517f08c379a00000000000000000000000000000000000000000000000000000000081526004016172cb9061df41565b60405180910390fd5b60005b60068054905081101561745a578273ffffffffffffffffffffffffffffffffffffffff166006828154811061730f5761730e61c846565b5b9060005260206000200160009054906101000a900473ffffffffffffffffffffffffffffffffffffffff1673ffffffffffffffffffffffffffffffffffffffff160361744d5760066001600680549050617369919061d6ac565b8154811061737a5761737961c846565b5b9060005260206000200160009054906101000a900473ffffffffffffffffffffffffffffffffffffffff16600682815481106173b9576173b861c846565b5b9060005260206000200160006101000a81548173ffffffffffffffffffffffffffffffffffffffff021916908373ffffffffffffffffffffffffffffffffffffffff16021790555060068054806174135761741261d6e0565b5b6001900381819060005260206000200160006101000a81549073ffffffffffffffffffffffffffffffffffffffff0219169055905561745a565b80806001019150506172d7565b506000600860008473ffffffffffffffffffffffffffffffffffffffff1673ffffffffffffffffffffffffffffffffffffffff16815260200190815260200160002060006101000a81548160ff0219169083151502179055506174dd7fc10c77be35aff266144ed64c26a1fa104bae2f284ae99ac4a34203454704a18583618ea0565b508173ffffffffffffffffffffffffffffffffffffffff167f55dba9d79522b91b615629d5f3b10c2fad2d258f1768614f4a52e937ada0d0ba60405160405180910390a25050565b60256020528160005260406000206020528060005260406000206000915091509054906101000a900460ff1681565b6000602c600083815260200190815260200160002060003373ffffffffffffffffffffffffffffffffffffffff1673ffffffffffffffffffffffffffffffffffffffff16815260200190815260200160002060009054906101000a900460ff16156175f4576040517f08c379a00000000000000000000000000000000000000000000000000000000081526004016175eb9061dfad565b60405180910390fd5b6000601f6000848152602001908152602001600020600101540361764d576040517f08c379a00000000000000000000000000000000000000000000000000000000081526004016176449061db38565b60405180910390fd5b6001602c600084815260200190815260200160002060003373ffffffffffffffffffffffffffffffffffffffff1673ffffffffffffffffffffffffffffffffffffffff16815260200190815260200160002060006101000a81548160ff021916908315150217905550602d60003373ffffffffffffffffffffffffffffffffffffffff1673ffffffffffffffffffffffffffffffffffffffff168152602001908152602001600020829080600181540180825580915050600190039060005260206000200160009091909190915055602e60003373ffffffffffffffffffffffffffffffffffffffff1673ffffffffffffffffffffffffffffffffffffffff168152602001908152602001600020600085815260200190815260200160002082908060018154018082558091505060019003906000526020600020016000909190919091505581837f2479aa0d18311382446edb0fa11d0dbd5bab1be78b1e60b343ffe4d2a5f798ad336040516177c4919061aa97565b60405180910390a3600190509392505050565b60008073ffffffffffffffffffffffffffffffffffffffff166019600086815260200190815260200160002060050160009054906101000a900473ffffffffffffffffffffffffffffffffffffffff1673ffffffffffffffffffffffffffffffffffffffff160361787d576040517f08c379a00000000000000000000000000000000000000000000000000000000081526004016178749061e019565b60405180910390fd5b60005b8351811015617a955760006040518060a0016040528087815260200160145481526020018684815181106178b7576178b661c846565b5b602002602001015181526020018584815181106178d7576178d661c846565b5b60200260200101518152602001600115158152509050602781908060018154018082558091505060019003906000526020600020906005020160009091909190915060008201518160000155602082015181600101556040820151816002019081617942919061cc2a565b506060820151816003015560808201518160040160006101000a81548160ff021916908315150217905550505080601d60006014548152602001908152602001600020600082015181600001556020820151816001015560408201518160020190816179ae919061cc2a565b506060820151816003015560808201518160040160006101000a81548160ff021916908315150217905550905050601e600087815260200190815260200160002081908060018154018082558091505060019003906000526020600020906005020160009091909190915060008201518160000155602082015181600101556040820151816002019081617a42919061cc2a565b506060820151816003015560808201518160040160006101000a81548160ff021916908315150217905550505060146000815480929190617a829061d30d565b9190505550508080600101915050617880565b508251847f1eb97e969f52c132bb6c79817d1f9001078fff0cd328ce625628e1fb4cc0e7de60405160405180910390a3600190509392505050565b6021600085815260200190815260200160002060040160009054906101000a900460ff16617b33576040517f08c379a0000000000000000000000000000000000000000000000000000000008152600401617b2a9061ceb2565b60405180910390fd5b60008251118015617b4657506004825111155b617b85576040517f08c379a0000000000000000000000000000000000000000000000000000000008152600401617b7c9061e085565b60405180910390fd5b81518160ff1610617bcb576040517f08c379a0000000000000000000000000000000000000000000000000000000008152600401617bc29061e0f1565b60405180910390fd5b60006017549050600060226000838152602001908152602001600020905085816000018190555081816001018190555084816002019081617c0c919061cc2a565b5060005b84518160ff161015617cd65760006040518060400160405280878460ff1681518110617c3f57617c3e61c846565b5b602002602001015181526020018660ff168460ff161415158152509050826003018190806001815401808255809150506001900390600052602060002090600202016000909190919091506000820151816000019081617c9f919061cc2a565b5060208201518160010160006101000a81548160ff0219169083151502179055505050508080617cce9061e111565b915050617c10565b5060216000878152602001908152602001600020600301819080600181540180825580915050600190039060005260206000209060040201600090919091909150600082015481600001556001820154816001015560028201816002019081617d3f919061d36b565b506003820181600301908054617d5692919061a025565b50505060176000815480929190617d6c9061d30d565b9190505550602b819080600181540180825580915050600190039060005260206000209060040201600090919091909150600082015481600001556001820154816001015560028201816002019081617dc5919061d36b565b506003820181600301908054617ddc92919061a025565b5050507fa5bdacf4d1324fdd584bc65cf0315e4975d00b33a7ca0e6d0a73c88df8430b95868387604051617e129392919061b100565b60405180910390a160005b84518160ff161015617ea4577f06ef0ba2ad58c9f8eef2fc98c08fd18d801c4a971eeb45afd07f0fee3f9d60c4838260ff16601854617e5c919061d77b565b878460ff1681518110617e7257617e7161c846565b5b6020026020010151604051617e899392919061b100565b60405180910390a18080617e9c9061e111565b915050617e1d565b50835160186000828254617eb8919061d77b565b92505081905550505050505050565b617ed082611f03565b617ed981618e8c565b617ee38383618ea0565b50505050565b674563918244f4000081565b6000600160008473ffffffffffffffffffffffffffffffffffffffff1673ffffffffffffffffffffffffffffffffffffffff16815260200190815260200160002060008373ffffffffffffffffffffffffffffffffffffffff1673ffffffffffffffffffffffffffffffffffffffff16815260200190815260200160002054905092915050565b60298181548110617f8c57600080fd5b90600052602060002090600302016000915090508060000160009054906101000a900460ff1690806001018054617fc29061c8a4565b80601f0160208091040260200160405190810160405280929190818152602001828054617fee9061c8a4565b801561803b5780601f106180105761010080835404028352916020019161803b565b820191906000526020600020905b81548152906001019060200180831161801e57829003601f168201915b5050505050908060020180546180509061c8a4565b80601f016020809104026020016040519081016040528092919081815260200182805461807c9061c8a4565b80156180c95780601f1061809e576101008083540402835291602001916180c9565b820191906000526020600020905b8154815290600101906020018083116180ac57829003601f168201915b5050505050905083565b60008060216000858152602001908152602001600020905060008160030180549050905060008185511461813c576040517f08c379a00000000000000000000000000000000000000000000000000000000081526004016181339061e1ac565b60405180910390fd5b60005b8281101561822f57600084600301828154811061815f5761815e61c846565b5b9060005260206000209060040201905060008783815181106181845761818361c846565b5b60200260200101519050816003018054905081106181d7576040517f08c379a00000000000000000000000000000000000000000000000000000000081526004016181ce9061e218565b60405180910390fd5b8160030181815481106181ed576181ec61c846565b5b906000526020600020906002020160010160009054906101000a900460ff161561822057838061821c9061d30d565b9450505b5050808060010191505061813f565b508160648261823e919061c970565b618248919061c9e1565b9350604b84106183245760016031600088815260200190815260200160002060003373ffffffffffffffffffffffffffffffffffffffff1673ffffffffffffffffffffffffffffffffffffffff16815260200190815260200160002060006101000a81548160ff02191690831515021790555083603060003373ffffffffffffffffffffffffffffffffffffffff1673ffffffffffffffffffffffffffffffffffffffff16815260200190815260200160002060008881526020019081526020016000208190555061832233670de0b6b3a7640000619422565b505b3373ffffffffffffffffffffffffffffffffffffffff167fcce9b9ed7e05afc64f73f1ce3f6ff1011a740b718ae6277a14698a4ef2d62dbf878660405161836c92919061e238565b60405180910390a250505092915050565b6000600b60000154905090565b60007fadb22091b155738d2e889eb96f509d2a7c93234236b30400927feb4a6a15ab006183b681618e8c565b7fadb22091b155738d2e889eb96f509d2a7c93234236b30400927feb4a6a15ab006183e081618e8c565b6000601960008781526020019081526020016000206000015403618439576040517f08c379a00000000000000000000000000000000000000000000000000000000081526004016184309061e2ad565b60405180910390fd5b6000601d60008681526020019081526020016000206001015403618492576040517f08c379a00000000000000000000000000000000000000000000000000000000081526004016184899061dacc565b60405180910390fd5b60005b60278054905081116185f15784601d600083815260200190815260200160002060010154036185de57602760016027805490506184d2919061d6ac565b815481106184e3576184e261c846565b5b9060005260206000209060050201602782815481106185055761850461c846565b5b906000526020600020906005020160008201548160000155600182015481600101556002820181600201908161853b919061d36b565b50600382015481600301556004820160009054906101000a900460ff168160040160006101000a81548160ff02191690831515021790555090505060278054806185885761858761d6e0565b5b600190038181906000526020600020906005020160008082016000905560018201600090556002820160006185bd919061a0bf565b60038201600090556004820160006101000a81549060ff0219169055505090555b80806185e99061d30d565b915050618495565b50601d60008581526020019081526020016000206000808201600090556001820160009055600282016000618626919061a0bf565b60038201600090556004820160006101000a81549060ff0219169055505083857fab6d08543726a41eac26ac96d0b4591127baed3bfb915d2603ccb9fb2440c42560405160405180910390a360019250505092915050565b60165481565b60007fadb22091b155738d2e889eb96f509d2a7c93234236b30400927feb4a6a15ab006186b081618e8c565b6000601d60008681526020019081526020016000206001015403618709576040517f08c379a00000000000000000000000000000000000000000000000000000000081526004016187009061e319565b60405180910390fd5b82601d6000868152602001908152602001600020600201908161872c919061cc2a565b5083857f7714a2fe2221824dfd5cd15f7cc29e38ffefcf9b6ad62c216321afcde79cbcfb8560405161875e919061a934565b60405180910390a360019150509392505050565b60007fadb22091b155738d2e889eb96f509d2a7c93234236b30400927feb4a6a15ab0061879e81618e8c565b6000601f600086815260200190815260200160002060010154036187f7576040517f08c379a00000000000000000000000000000000000000000000000000000000081526004016187ee9061db38565b60405180910390fd5b6000602160008581526020019081526020016000206001015403618850576040517f08c379a00000000000000000000000000000000000000000000000000000000081526004016188479061e385565b60405180910390fd5b60005b60278054905081116189c457836021600086815260200190815260200160002060010154036189b157602a6001602a80549050618890919061d6ac565b815481106188a1576188a061c846565b5b9060005260206000209060050201602a82815481106188c3576188c261c846565b5b90600052602060002090600502016000820154816000015560018201548160010155600282018160020190816188f9919061d36b565b506003820181600301908054618910929190619eb2565b506004820160009054906101000a900460ff168160040160006101000a81548160ff021916908315150217905550905050602a8054806189535761895261d6e0565b5b60019003818190600052602060002090600502016000808201600090556001820160009055600282016000618988919061a0bf565b600382016000618998919061a2ac565b6004820160006101000a81549060ff0219169055505090555b80806189bc9061d30d565b915050618853565b506021600084815260200190815260200160002060008082016000905560018201600090556002820160006189f9919061a0bf565b600382016000618a09919061a2ac565b6004820160006101000a81549060ff0219169055505082847f22a69f3183c2804ef4ff588b6321a6351c1863419286c584919ab8f923cbd5a460405160405180910390a3600191505092915050565b60175481565b6000618a68618f93565b6019600083815260200190815260200160002060030160009054906101000a900460ff16618acb576040517f08c379a0000000000000000000000000000000000000000000000000000000008152600401618ac29061e3f1565b60405180910390fd5b6025600083815260200190815260200160002060003373ffffffffffffffffffffffffffffffffffffffff1673ffffffffffffffffffffffffffffffffffffffff16815260200190815260200160002060009054906101000a900460ff1615618b69576040517f08c379a0000000000000000000000000000000000000000000000000000000008152600401618b609061e45d565b60405180910390fd5b6019600083815260200190815260200160002060050160149054906101000a900460ff16618bcc576040517f08c379a0000000000000000000000000000000000000000000000000000000008152600401618bc39061e019565b60405180910390fd5b6000601960008481526020019081526020016000209050600060268481548110618bf957618bf861c846565b5b9060005260206000209060080201905081600601339080600181540180825580915050600190039060005260206000200160009091909190916101000a81548173ffffffffffffffffffffffffffffffffffffffff021916908373ffffffffffffffffffffffffffffffffffffffff16021790555080600601339080600181540180825580915050600190039060005260206000200160009091909190916101000a81548173ffffffffffffffffffffffffffffffffffffffff021916908373ffffffffffffffffffffffffffffffffffffffff16021790555060016025600086815260200190815260200160002060003373ffffffffffffffffffffffffffffffffffffffff1673ffffffffffffffffffffffffffffffffffffffff16815260200190815260200160002060006101000a81548160ff021916908315150217905550618d4e33671bc16d674ec80000619422565b503373ffffffffffffffffffffffffffffffffffffffff16847f4bf249f6b0ca5630ea4816c04b928b864a2065cb51658fd6223d83b727fd326b60405160405180910390a3600192505050618da161919d565b919050565b6000618dd27fc10c77be35aff266144ed64c26a1fa104bae2f284ae99ac4a34203454704a18583615307565b9050919050565b601c6020528160005260406000206020528060005260406000206000915091509054906101000a900460ff1681565b60007f01ffc9a7000000000000000000000000000000000000000000000000000000007bffffffffffffffffffffffffffffffffffffffffffffffffffffffff1916827bffffffffffffffffffffffffffffffffffffffffffffffffffffffff1916149050919050565b600033905090565b618e878383836001619734565b505050565b618e9d81618e98618e72565b61990b565b50565b6000618eac8383615307565b15618f885760006005600085815260200190815260200160002060000160008473ffffffffffffffffffffffffffffffffffffffff1673ffffffffffffffffffffffffffffffffffffffff16815260200190815260200160002060006101000a81548160ff021916908315150217905550618f25618e72565b73ffffffffffffffffffffffffffffffffffffffff168273ffffffffffffffffffffffffffffffffffffffff16847ff6391f5c32d9c69d2a47ea670b442974b53935d1edc7fd64eb21e047a839171b60405160405180910390a460019050618f8d565b600090505b92915050565b6002600a5403618fcf576040517f3ee5aeb500000000000000000000000000000000000000000000000000000000815260040160405180910390fd5b6002600a81905550565b60005b8280549050811015619171578173ffffffffffffffffffffffffffffffffffffffff168382815481106190125761901161c846565b5b9060005260206000200160009054906101000a900473ffffffffffffffffffffffffffffffffffffffff1673ffffffffffffffffffffffffffffffffffffffff16036191645760018380549050619069919061d6ac565b8114619119578260018480549050619081919061d6ac565b815481106190925761909161c846565b5b9060005260206000200160009054906101000a900473ffffffffffffffffffffffffffffffffffffffff168382815481106190d0576190cf61c846565b5b9060005260206000200160006101000a81548173ffffffffffffffffffffffffffffffffffffffff021916908373ffffffffffffffffffffffffffffffffffffffff1602179055505b8280548061912a5761912961d6e0565b5b6001900381819060005260206000200160006101000a81549073ffffffffffffffffffffffffffffffffffffffff02191690559055619171565b8080600101915050618fdc565b505050565b619180828261995c565b8060116000828254619192919061d6ac565b925050819055505050565b6001600a81905550565b60006191b38484617ef5565b90507fffffffffffffffffffffffffffffffffffffffffffffffffffffffffffffffff8110156192365781811015619226578281836040517ffb8f41b200000000000000000000000000000000000000000000000000000000815260040161921d9392919061e47d565b60405180910390fd5b61923584848484036000619734565b5b50505050565b600073ffffffffffffffffffffffffffffffffffffffff168373ffffffffffffffffffffffffffffffffffffffff16036192ae5760006040517f96c6fd1e0000000000000000000000000000000000000000000000000000000081526004016192a5919061aa97565b60405180910390fd5b600073ffffffffffffffffffffffffffffffffffffffff168273ffffffffffffffffffffffffffffffffffffffff16036193205760006040517fec442f05000000000000000000000000000000000000000000000000000000008152600401619317919061aa97565b60405180910390fd5b61932b838383619a03565b505050565b600061933c8383615307565b6194175760016005600085815260200190815260200160002060000160008473ffffffffffffffffffffffffffffffffffffffff1673ffffffffffffffffffffffffffffffffffffffff16815260200190815260200160002060006101000a81548160ff0219169083151502179055506193b4618e72565b73ffffffffffffffffffffffffffffffffffffffff168273ffffffffffffffffffffffffffffffffffffffff16847f2f8788117e7eff1d82e926ec794901d17c78024a50270940304540a733656f0d60405160405180910390a46001905061941c565b600090505b92915050565b60006064600f6b204fce5e3e2502611000000061943f919061c970565b619449919061c9e1565b619451617156565b8361945c919061d77b565b111561949d576040517f08c379a00000000000000000000000000000000000000000000000000000000081526004016194949061e500565b60405180910390fd5b6194a78383619c28565b5081601160008282546194ba919061d77b565b92505081905550818373ffffffffffffffffffffffffffffffffffffffff167fad6ef58d5c294f81258965738e7ae511124139834a8d0b8f8f7327086c82052a60405160405180910390a36001905092915050565b600080600090505b60236000858152602001908152602001600020805490508110156195ce578273ffffffffffffffffffffffffffffffffffffffff166023600086815260200190815260200160002082815481106195715761957061c846565b5b9060005260206000200160009054906101000a900473ffffffffffffffffffffffffffffffffffffffff1673ffffffffffffffffffffffffffffffffffffffff16036195c15760019150506195d4565b8080600101915050619517565b50600090505b92915050565b600a8a111580156195ec5750600a8911155b80156195f95750600a8811155b80156196065750600a8711155b80156196135750600a8611155b80156196205750600a8511155b801561962d5750600a8411155b801561963a5750600a8311155b80156196475750600a8211155b80156196545750600a8111155b619693576040517f08c379a000000000000000000000000000000000000000000000000000000000815260040161968a9061e56c565b60405180910390fd5b50505050505050505050565b60008160090154826008015483600701548460060154856005015486600401548760030154886002015489600101548a600001546196dd919061d77b565b6196e7919061d77b565b6196f1919061d77b565b6196fb919061d77b565b619705919061d77b565b61970f919061d77b565b619719919061d77b565b619723919061d77b565b61972d919061d77b565b9050919050565b600073ffffffffffffffffffffffffffffffffffffffff168473ffffffffffffffffffffffffffffffffffffffff16036197a65760006040517fe602df0500000000000000000000000000000000000000000000000000000000815260040161979d919061aa97565b60405180910390fd5b600073ffffffffffffffffffffffffffffffffffffffff168373ffffffffffffffffffffffffffffffffffffffff16036198185760006040517f94280d6200000000000000000000000000000000000000000000000000000000815260040161980f919061aa97565b60405180910390fd5b81600160008673ffffffffffffffffffffffffffffffffffffffff1673ffffffffffffffffffffffffffffffffffffffff16815260200190815260200160002060008573ffffffffffffffffffffffffffffffffffffffff1673ffffffffffffffffffffffffffffffffffffffff168152602001908152602001600020819055508015619905578273ffffffffffffffffffffffffffffffffffffffff168473ffffffffffffffffffffffffffffffffffffffff167f8c5be1e5ebec7d5bd14f71427d1e84f3dd0314c0f7b2291e5b200ac8c7c3b925846040516198fc919061a8cf565b60405180910390a35b50505050565b6199158282615307565b6199585780826040517fe2517d3f00000000000000000000000000000000000000000000000000000000815260040161994f92919061e58c565b60405180910390fd5b5050565b8061996683613fa9565b10156199a7576040517f08c379a000000000000000000000000000000000000000000000000000000000815260040161999e9061e601565b60405180910390fd5b6199b18282619ce3565b8173ffffffffffffffffffffffffffffffffffffffff167f5b5d8478b570a79ab6b3bf13ff029fba19c02ab0d54d692d4ef0d9052d5cc850826040516199f7919061a8cf565b60405180910390a25050565b600073ffffffffffffffffffffffffffffffffffffffff168373ffffffffffffffffffffffffffffffffffffffff1603619a55578060026000828254619a49919061d77b565b92505081905550619b28565b60008060008573ffffffffffffffffffffffffffffffffffffffff1673ffffffffffffffffffffffffffffffffffffffff16815260200190815260200160002054905081811015619ae1578381836040517fe450d38c000000000000000000000000000000000000000000000000000000008152600401619ad89392919061e47d565b60405180910390fd5b8181036000808673ffffffffffffffffffffffffffffffffffffffff1673ffffffffffffffffffffffffffffffffffffffff16815260200190815260200160002081905550505b600073ffffffffffffffffffffffffffffffffffffffff168273ffffffffffffffffffffffffffffffffffffffff1603619b715780600260008282540392505081905550619bbe565b806000808473ffffffffffffffffffffffffffffffffffffffff1673ffffffffffffffffffffffffffffffffffffffff168152602001908152602001600020600082825401925050819055505b8173ffffffffffffffffffffffffffffffffffffffff168373ffffffffffffffffffffffffffffffffffffffff167fddf252ad1be2c89b69c2b068fc378daa952ba7f163c4a11628f55a4df523b3ef83604051619c1b919061a8cf565b60405180910390a3505050565b60006b204fce5e3e25026110000000619c3f611c7f565b83619c4a919061d77b565b1115619c8b576040517f08c379a0000000000000000000000000000000000000000000000000000000008152600401619c829061e500565b60405180910390fd5b619c958383619d65565b818373ffffffffffffffffffffffffffffffffffffffff167fcda531bfd68624f13205c0a23cd4d5a7f09792cbb399603114f2b04aaa1bf5cf60405160405180910390a36001905092915050565b600073ffffffffffffffffffffffffffffffffffffffff168273ffffffffffffffffffffffffffffffffffffffff1603619d555760006040517f96c6fd1e000000000000000000000000000000000000000000000000000000008152600401619d4c919061aa97565b60405180910390fd5b619d6182600083619a03565b5050565b600073ffffffffffffffffffffffffffffffffffffffff168273ffffffffffffffffffffffffffffffffffffffff1603619dd75760006040517fec442f05000000000000000000000000000000000000000000000000000000008152600401619dce919061aa97565b60405180910390fd5b619de360008383619a03565b5050565b60405180610120016040528060008152602001606081526020016060815260200160001515815260200160008152602001600073ffffffffffffffffffffffffffffffffffffffff1681526020016000151581526020016060815260200160006002811115619e5957619e5861a6be565b5b81525090565b6040518060e00160405280600081526020016000815260200160608152602001606081526020016000815260200160608152602001600073ffffffffffffffffffffffffffffffffffffffff1681525090565b828054828255906000526020600020906004028101928215619f395760005260206000209160040282015b82811115619f38578282600082015481600001556001820154816001015560028201816002019081619f0f919061d36b565b506003820181600301908054619f2692919061a025565b50505091600401919060040190619edd565b5b509050619f46919061a2d0565b5090565b6040518060a00160405280600081526020016000815260200160608152602001606081526020016000151581525090565b82600a600302810192821561a014579160030282015b8281111561a0135782826000820160009054906101000a900460ff168160000160006101000a81548160ff02191690836002811115619fd357619fd261a6be565b5b021790555060018201816001019081619fec919061d36b565b506002820181600201908161a001919061d36b565b50505091600301919060030190619f91565b5b50905061a021919061a317565b5090565b82805482825590600052602060002090600202810192821561a0ae5760005260206000209160020282015b8281111561a0ad5782826000820181600001908161a06e919061d36b565b506001820160009054906101000a900460ff168160010160006101000a81548160ff02191690831515021790555050509160020191906002019061a050565b5b50905061a0bb919061a362565b5090565b50805461a0cb9061c8a4565b6000825580601f1061a0dd575061a0fc565b601f01602090049060005260206000209081019061a0fb919061a39d565b5b50565b508054600082556002029060005260206000209081019061a120919061a362565b50565b82805482825590600052602060002090810192821561a19c579160200282015b8281111561a19b5782518260006101000a81548173ffffffffffffffffffffffffffffffffffffffff021916908373ffffffffffffffffffffffffffffffffffffffff1602179055509160200191906001019061a143565b5b50905061a1a9919061a39d565b5090565b508054600082559060005260206000209081019061a1cb919061a39d565b50565b6040518060a00160405280600081526020016000815260200160608152602001600081526020016000151581525090565b82805482825590600052602060002090810192821561a2405760005260206000209182015b8281111561a23f57825482559160010191906001019061a224565b5b50905061a24d919061a39d565b5090565b5080600a600302019061a264919061a317565b50565b6040518060e001604052806000815260200160008152602001606081526020016060815260200161a29661a3ba565b8152602001600081526020016000151581525090565b508054600082556004029060005260206000209081019061a2cd919061a2d0565b50565b5b8082111561a31357600080820160009055600182016000905560028201600061a2fa919061a0bf565b60038201600061a30a919061a0ff565b5060040161a2d1565b5090565b5b8082111561a35e57600080820160006101000a81549060ff021916905560018201600061a345919061a0bf565b60028201600061a355919061a0bf565b5060030161a318565b5090565b5b8082111561a399576000808201600061a37c919061a0bf565b6001820160006101000a81549060ff02191690555060020161a363565b5090565b5b8082111561a3b657600081600090555060010161a39e565b5090565b604051806101400160405280600a905b61a3d261a3e8565b81526020019060019003908161a3ca5790505090565b60405180606001604052806000600281111561a4075761a40661a6be565b5b815260200160608152602001606081525090565b6000604051905090565b600080fd5b600080fd5b60007fffffffff0000000000000000000000000000000000000000000000000000000082169050919050565b61a4648161a42f565b811461a46f57600080fd5b50565b60008135905061a4818161a45b565b92915050565b60006020828403121561a49d5761a49c61a425565b5b600061a4ab8482850161a472565b91505092915050565b60008115159050919050565b61a4c98161a4b4565b82525050565b600060208201905061a4e4600083018461a4c0565b92915050565b600081519050919050565b600082825260208201905092915050565b6000819050602082019050919050565b6000819050919050565b61a5298161a516565b82525050565b600081519050919050565b600082825260208201905092915050565b60005b8381101561a56957808201518184015260208101905061a54e565b60008484015250505050565b6000601f19601f8301169050919050565b600061a5918261a52f565b61a59b818561a53a565b935061a5ab81856020860161a54b565b61a5b48161a575565b840191505092915050565b61a5c88161a4b4565b82525050565b600073ffffffffffffffffffffffffffffffffffffffff82169050919050565b600061a5f98261a5ce565b9050919050565b61a6098161a5ee565b82525050565b600081519050919050565b600082825260208201905092915050565b6000819050602082019050919050565b600061a647838361a600565b60208301905092915050565b6000602082019050919050565b600061a66b8261a60f565b61a675818561a61a565b935061a6808361a62b565b8060005b8381101561a6b157815161a698888261a63b565b975061a6a38361a653565b92505060018101905061a684565b5085935050505092915050565b7f4e487b7100000000000000000000000000000000000000000000000000000000600052602160045260246000fd5b6003811061a6fe5761a6fd61a6be565b5b50565b600081905061a70f8261a6ed565b919050565b600061a71f8261a701565b9050919050565b61a72f8161a714565b82525050565b60006101208301600083015161a74e600086018261a520565b506020830151848203602086015261a766828261a586565b9150506040830151848203604086015261a780828261a586565b915050606083015161a795606086018261a5bf565b50608083015161a7a8608086018261a520565b5060a083015161a7bb60a086018261a600565b5060c083015161a7ce60c086018261a5bf565b5060e083015184820360e086015261a7e6828261a660565b91505061010083015161a7fd61010086018261a726565b508091505092915050565b600061a814838361a735565b905092915050565b6000602082019050919050565b600061a8348261a4ea565b61a83e818561a4f5565b93508360208202850161a8508561a506565b8060005b8581101561a88c578484038952815161a86d858261a808565b945061a8788361a81c565b925060208a0199505060018101905061a854565b50829750879550505050505092915050565b6000602082019050818103600083015261a8b8818461a829565b905092915050565b61a8c98161a516565b82525050565b600060208201905061a8e4600083018461a8c0565b92915050565b600082825260208201905092915050565b600061a9068261a52f565b61a910818561a8ea565b935061a92081856020860161a54b565b61a9298161a575565b840191505092915050565b6000602082019050818103600083015261a94e818461a8fb565b905092915050565b61a95f8161a5ee565b811461a96a57600080fd5b50565b60008135905061a97c8161a956565b92915050565b61a98b8161a516565b811461a99657600080fd5b50565b60008135905061a9a88161a982565b92915050565b6000806040838503121561a9c55761a9c461a425565b5b600061a9d38582860161a96d565b925050602061a9e48582860161a999565b9150509250929050565b60006020828403121561aa045761aa0361a425565b5b600061aa128482850161a999565b91505092915050565b6000806040838503121561aa325761aa3161a425565b5b600061aa408582860161a999565b925050602061aa518582860161a96d565b9150509250929050565b60006020828403121561aa715761aa7061a425565b5b600061aa7f8482850161a96d565b91505092915050565b61aa918161a5ee565b82525050565b600060208201905061aaac600083018461aa88565b92915050565b60008060006060848603121561aacb5761aaca61a425565b5b600061aad98682870161a96d565b935050602061aaea8682870161a96d565b925050604061aafb8682870161a999565b9150509250925092565b6000819050919050565b61ab188161ab05565b811461ab2357600080fd5b50565b60008135905061ab358161ab0f565b92915050565b60006020828403121561ab515761ab5061a425565b5b600061ab5f8482850161ab26565b91505092915050565b61ab718161ab05565b82525050565b600060208201905061ab8c600083018461ab68565b92915050565b600060808201905061aba7600083018761a8c0565b61abb4602083018661a8c0565b818103604083015261abc6818561a8fb565b905061abd5606083018461a4c0565b95945050505050565b61abe78161a714565b82525050565b60006101008201905061ac03600083018b61a8c0565b818103602083015261ac15818a61a8fb565b9050818103604083015261ac29818961a8fb565b905061ac38606083018861a4c0565b61ac45608083018761a8c0565b61ac5260a083018661aa88565b61ac5f60c083018561a4c0565b61ac6c60e083018461abde565b9998505050505050505050565b600060c08201905061ac8e600083018961a8c0565b61ac9b602083018861a8c0565b818103604083015261acad818761a8fb565b9050818103606083015261acc1818661a8fb565b905061acd0608083018561a8c0565b61acdd60a083018461a4c0565b979650505050505050565b6000806040838503121561acff5761acfe61a425565b5b600061ad0d8582860161ab26565b925050602061ad1e8582860161a96d565b9150509250929050565b600080fd5b600080fd5b7f4e487b7100000000000000000000000000000000000000000000000000000000600052604160045260246000fd5b61ad6a8261a575565b810181811067ffffffffffffffff8211171561ad895761ad8861ad32565b5b80604052505050565b600061ad9c61a41b565b905061ada8828261ad61565b919050565b600067ffffffffffffffff82111561adc85761adc761ad32565b5b61add18261a575565b9050602081019050919050565b82818337600083830152505050565b600061ae0061adfb8461adad565b61ad92565b90508281526020810184848401111561ae1c5761ae1b61ad2d565b5b61ae2784828561adde565b509392505050565b600082601f83011261ae445761ae4361ad28565b5b813561ae5484826020860161aded565b91505092915050565b600067ffffffffffffffff82111561ae785761ae7761ad32565b5b602082029050602081019050919050565b600080fd5b600080fd5b600080fd5b6003811061aea557600080fd5b50565b60008135905061aeb78161ae98565b92915050565b60006060828403121561aed35761aed261ae8e565b5b61aedd606061ad92565b9050600061aeed8482850161aea8565b600083015250602082013567ffffffffffffffff81111561af115761af1061ae93565b5b61af1d8482850161ae2f565b602083015250604082013567ffffffffffffffff81111561af415761af4061ae93565b5b61af4d8482850161ae2f565b60408301525092915050565b600061af6c61af678461ae5d565b61ad92565b9050808382526020820190506020840283018581111561af8f5761af8e61ae89565b5b835b8181101561afd657803567ffffffffffffffff81111561afb45761afb361ad28565b5b80860161afc1898261aebd565b8552602085019450505060208101905061af91565b5050509392505050565b600082601f83011261aff55761aff461ad28565b5b813561b00584826020860161af59565b91505092915050565b6000806000806080858703121561b0285761b02761a425565b5b600061b0368782880161a999565b945050602085013567ffffffffffffffff81111561b0575761b05661a42a565b5b61b0638782880161ae2f565b935050604085013567ffffffffffffffff81111561b0845761b08361a42a565b5b61b0908782880161ae2f565b925050606085013567ffffffffffffffff81111561b0b15761b0b061a42a565b5b61b0bd8782880161afe0565b91505092959194509250565b600060ff82169050919050565b61b0df8161b0c9565b82525050565b600060208201905061b0fa600083018461b0d6565b92915050565b600060608201905061b115600083018661a8c0565b61b122602083018561a8c0565b818103604083015261b134818461a8fb565b9050949350505050565b600081519050919050565b600082825260208201905092915050565b6000819050602082019050919050565b600061b176838361a520565b60208301905092915050565b6000602082019050919050565b600061b19a8261b13e565b61b1a4818561b149565b935061b1af8361b15a565b8060005b8381101561b1e057815161b1c7888261b16a565b975061b1d28361b182565b92505060018101905061b1b3565b5085935050505092915050565b6000604082019050818103600083015261b207818561b18f565b905061b216602083018461a8c0565b9392505050565b60008060006060848603121561b2365761b23561a425565b5b600061b2448682870161a96d565b935050602061b2558682870161a999565b925050604061b2668682870161a999565b9150509250925092565b60008060006060848603121561b2895761b28861a425565b5b600061b2978682870161a999565b935050602061b2a88682870161a999565b925050604084013567ffffffffffffffff81111561b2c95761b2c861a42a565b5b61b2d58682870161ae2f565b9150509250925092565b600081519050919050565b600082825260208201905092915050565b600061b3068261b2df565b61b310818561b2ea565b935061b32081856020860161a54b565b61b3298161a575565b840191505092915050565b600060c08201905061b349600083018961a8c0565b61b356602083018861aa88565b61b363604083018761aa88565b818103606083015261b375818661b2fb565b905061b384608083018561a8c0565b61b39160a083018461a4c0565b979650505050505050565b600081519050919050565b600082825260208201905092915050565b6000819050602082019050919050565b600081519050919050565b600082825260208201905092915050565b6000819050602082019050919050565b6000604083016000830151848203600086015261b411828261a586565b915050602083015161b426602086018261a5bf565b508091505092915050565b600061b43d838361b3f4565b905092915050565b6000602082019050919050565b600061b45d8261b3c8565b61b467818561b3d3565b93508360208202850161b4798561b3e4565b8060005b8581101561b4b5578484038952815161b496858261b431565b945061b4a18361b445565b925060208a0199505060018101905061b47d565b50829750879550505050505092915050565b600060808301600083015161b4df600086018261a520565b50602083015161b4f2602086018261a520565b506040830151848203604086015261b50a828261a586565b9150506060830151848203606086015261b524828261b452565b9150508091505092915050565b600061b53d838361b4c7565b905092915050565b6000602082019050919050565b600061b55d8261b39c565b61b567818561b3a7565b93508360208202850161b5798561b3b8565b8060005b8581101561b5b5578484038952815161b596858261b531565b945061b5a18361b545565b925060208a0199505060018101905061b57d565b50829750879550505050505092915050565b6000602082019050818103600083015261b5e1818461b552565b905092915050565b6000806040838503121561b6005761b5ff61a425565b5b600061b60e8582860161a999565b925050602061b61f8582860161a999565b9150509250929050565b600060a08201905061b63e600083018861a8c0565b61b64b602083018761a8c0565b818103604083015261b65d818661a8fb565b905061b66c606083018561a8c0565b61b679608083018461a4c0565b9695505050505050565b600080600080600060a0868803121561b69f5761b69e61a425565b5b600061b6ad8882890161a999565b955050602086013567ffffffffffffffff81111561b6ce5761b6cd61a42a565b5b61b6da8882890161ae2f565b945050604086013567ffffffffffffffff81111561b6fb5761b6fa61a42a565b5b61b7078882890161ae2f565b935050606086013567ffffffffffffffff81111561b7285761b72761a42a565b5b61b7348882890161ae2f565b925050608061b7458882890161a999565b9150509295509295909350565b600060e08301600083015161b76a600086018261a520565b50602083015161b77d602086018261a520565b506040830151848203604086015261b795828261a586565b9150506060830151848203606086015261b7af828261a586565b915050608083015161b7c4608086018261a520565b5060a083015184820360a086015261b7dc828261a586565b91505060c083015161b7f160c086018261a600565b508091505092915050565b600060408201905061b811600083018561a8c0565b818103602083015261b823818461b752565b90509392505050565b60008060008060008060008060008060006101608c8e03121561b8525761b85161a425565b5b600061b8608e828f0161a999565b9b5050602061b8718e828f0161a999565b9a5050604061b8828e828f0161a999565b995050606061b8938e828f0161a999565b985050608061b8a48e828f0161a999565b97505060a061b8b58e828f0161a999565b96505060c061b8c68e828f0161a999565b95505060e061b8d78e828f0161a999565b94505061010061b8e98e828f0161a999565b93505061012061b8fb8e828f0161a999565b92505061014061b90d8e828f0161a999565b9150509295989b509295989b9093969950565b6000806040838503121561b9375761b93661a425565b5b600061b9458582860161a999565b925050602083013567ffffffffffffffff81111561b9665761b96561a42a565b5b61b9728582860161ae2f565b9150509250929050565b600060e08201905061b991600083018a61a8c0565b61b99e602083018961a8c0565b818103604083015261b9b0818861a8fb565b9050818103606083015261b9c4818761a8fb565b905061b9d3608083018661a8c0565b81810360a083015261b9e5818561a8fb565b905061b9f460c083018461aa88565b98975050505050505050565b600081519050919050565b600082825260208201905092915050565b6000819050602082019050919050565b600082825260208201905092915050565b600061ba488261b39c565b61ba52818561ba2c565b93508360208202850161ba648561b3b8565b8060005b8581101561baa0578484038952815161ba81858261b531565b945061ba8c8361b545565b925060208a0199505060018101905061ba68565b50829750879550505050505092915050565b600060a08301600083015161baca600086018261a520565b50602083015161badd602086018261a520565b506040830151848203604086015261baf5828261a586565b9150506060830151848203606086015261bb0f828261ba3d565b915050608083015161bb24608086018261a5bf565b508091505092915050565b600061bb3b838361bab2565b905092915050565b6000602082019050919050565b600061bb5b8261ba00565b61bb65818561ba0b565b93508360208202850161bb778561ba1c565b8060005b8581101561bbb3578484038952815161bb94858261bb2f565b945061bb9f8361bb43565b925060208a0199505060018101905061bb7b565b50829750879550505050505092915050565b6000602082019050818103600083015261bbdf818461bb50565b905092915050565b60008060006060848603121561bc005761bbff61a425565b5b600061bc0e8682870161a999565b935050602084013567ffffffffffffffff81111561bc2f5761bc2e61a42a565b5b61bc3b8682870161ae2f565b925050604084013567ffffffffffffffff81111561bc5c5761bc5b61a42a565b5b61bc688682870161ae2f565b9150509250925092565b6003811061bc7f57600080fd5b50565b60008135905061bc918161bc72565b92915050565b60008060006060848603121561bcb05761bcaf61a425565b5b600084013567ffffffffffffffff81111561bcce5761bccd61a42a565b5b61bcda8682870161ae2f565b935050602084013567ffffffffffffffff81111561bcfb5761bcfa61a42a565b5b61bd078682870161ae2f565b925050604061bd188682870161bc82565b9150509250925092565b600081519050919050565b600082825260208201905092915050565b6000819050602082019050919050565b600060a08301600083015161bd66600086018261a520565b50602083015161bd79602086018261a520565b506040830151848203604086015261bd91828261a586565b915050606083015161bda6606086018261a520565b50608083015161bdb9608086018261a5bf565b508091505092915050565b600061bdd0838361bd4e565b905092915050565b6000602082019050919050565b600061bdf08261bd22565b61bdfa818561bd2d565b93508360208202850161be0c8561bd3e565b8060005b8581101561be48578484038952815161be29858261bdc4565b945061be348361bdd8565b925060208a0199505060018101905061be10565b50829750879550505050505092915050565b6000602082019050818103600083015261be74818461bde5565b905092915050565b600081519050919050565b600082825260208201905092915050565b6000819050602082019050919050565b6000600a9050919050565b600081905092915050565b6000819050919050565b6003811061bed95761bed861a6be565b5b50565b600081905061beea8261bec8565b919050565b600061befa8261bedc565b9050919050565b61bf0a8161beef565b82525050565b600060608301600083015161bf28600086018261bf01565b506020830151848203602086015261bf40828261a586565b9150506040830151848203604086015261bf5a828261a586565b9150508091505092915050565b600061bf73838361bf10565b905092915050565b6000602082019050919050565b600061bf938261bea8565b61bf9d818561beb3565b93508360208202850161bfaf8561bebe565b8060005b8581101561bfeb578484038952815161bfcc858261bf67565b945061bfd78361bf7b565b925060208a0199505060018101905061bfb3565b50829750879550505050505092915050565b600060e08301600083015161c015600086018261a520565b50602083015161c028602086018261a520565b506040830151848203604086015261c040828261a586565b9150506060830151848203606086015261c05a828261a586565b9150506080830151848203608086015261c074828261bf88565b91505060a083015161c08960a086018261a520565b5060c083015161c09c60c086018261a5bf565b508091505092915050565b600061c0b3838361bffd565b905092915050565b6000602082019050919050565b600061c0d38261be7c565b61c0dd818561be87565b93508360208202850161c0ef8561be98565b8060005b8581101561c12b578484038952815161c10c858261c0a7565b945061c1178361c0bb565b925060208a0199505060018101905061c0f3565b50829750879550505050505092915050565b6000602082019050818103600083015261c157818461c0c8565b905092915050565b600060a08301600083015161c177600086018261a520565b50602083015161c18a602086018261a520565b506040830151848203604086015261c1a2828261a586565b9150506060830151848203606086015261c1bc828261ba3d565b915050608083015161c1d1608086018261a5bf565b508091505092915050565b6000602082019050818103600083015261c1f6818461c15f565b905092915050565b600080fd5b60008083601f84011261c2195761c21861ad28565b5b8235905067ffffffffffffffff81111561c2365761c23561c1fe565b5b60208301915083602082028301111561c2525761c25161ae89565b5b9250929050565b6000806000806060858703121561c2735761c27261a425565b5b600061c2818782880161a999565b945050602061c2928782880161aea8565b935050604085013567ffffffffffffffff81111561c2b35761c2b261a42a565b5b61c2bf8782880161c203565b925092505092959194509250565b60006101608201905061c2e3600083018e61a8c0565b61c2f0602083018d61a8c0565b61c2fd604083018c61a8c0565b61c30a606083018b61a8c0565b61c317608083018a61a8c0565b61c32460a083018961a8c0565b61c33160c083018861a8c0565b61c33e60e083018761a8c0565b61c34c61010083018661a8c0565b61c35a61012083018561a8c0565b61c36861014083018461a4c0565b9c9b505050505050505050505050565b600082825260208201905092915050565b600061c3948261a60f565b61c39e818561c378565b935061c3a98361a62b565b8060005b8381101561c3da57815161c3c1888261a63b565b975061c3cc8361a653565b92505060018101905061c3ad565b5085935050505092915050565b6000602082019050818103600083015261c401818461c389565b905092915050565b60008060006060848603121561c4225761c42161a425565b5b600061c4308682870161a999565b935050602061c4418682870161a999565b925050604061c4528682870161a999565b9150509250925092565b600067ffffffffffffffff82111561c4775761c47661ad32565b5b602082029050602081019050919050565b600061c49b61c4968461c45c565b61ad92565b9050808382526020820190506020840283018581111561c4be5761c4bd61ae89565b5b835b8181101561c50557803567ffffffffffffffff81111561c4e35761c4e261ad28565b5b80860161c4f0898261ae2f565b8552602085019450505060208101905061c4c0565b5050509392505050565b600082601f83011261c5245761c52361ad28565b5b813561c53484826020860161c488565b91505092915050565b600067ffffffffffffffff82111561c5585761c55761ad32565b5b602082029050602081019050919050565b600061c57c61c5778461c53d565b61ad92565b9050808382526020820190506020840283018581111561c59f5761c59e61ae89565b5b835b8181101561c5c8578061c5b4888261a999565b84526020840193505060208101905061c5a1565b5050509392505050565b600082601f83011261c5e75761c5e661ad28565b5b813561c5f784826020860161c569565b91505092915050565b60008060006060848603121561c6195761c61861a425565b5b600061c6278682870161a999565b935050602084013567ffffffffffffffff81111561c6485761c64761a42a565b5b61c6548682870161c50f565b925050604084013567ffffffffffffffff81111561c6755761c67461a42a565b5b61c6818682870161c5d2565b9150509250925092565b61c6948161b0c9565b811461c69f57600080fd5b50565b60008135905061c6b18161c68b565b92915050565b6000806000806080858703121561c6d15761c6d061a425565b5b600061c6df8782880161a999565b945050602085013567ffffffffffffffff81111561c7005761c6ff61a42a565b5b61c70c8782880161ae2f565b935050604085013567ffffffffffffffff81111561c72d5761c72c61a42a565b5b61c7398782880161c50f565b925050606061c74a8782880161c6a2565b91505092959194509250565b6000806040838503121561c76d5761c76c61a425565b5b600061c77b8582860161a96d565b925050602061c78c8582860161a96d565b9150509250929050565b61c79f8161beef565b82525050565b600060608201905061c7ba600083018661c796565b818103602083015261c7cc818561a8fb565b9050818103604083015261c7e0818461a8fb565b9050949350505050565b6000806040838503121561c8015761c80061a425565b5b600061c80f8582860161a999565b925050602083013567ffffffffffffffff81111561c8305761c82f61a42a565b5b61c83c8582860161c5d2565b9150509250929050565b7f4e487b7100000000000000000000000000000000000000000000000000000000600052603260045260246000fd5b7f4e487b7100000000000000000000000000000000000000000000000000000000600052602260045260246000fd5b6000600282049050600182168061c8bc57607f821691505b60208210810361c8cf5761c8ce61c875565b5b50919050565b7f4e6f7420656e726f6c6c65642100000000000000000000000000000000000000600082015250565b600061c90b600d8361a8ea565b915061c9168261c8d5565b602082019050919050565b6000602082019050818103600083015261c93a8161c8fe565b9050919050565b7f4e487b7100000000000000000000000000000000000000000000000000000000600052601160045260246000fd5b600061c97b8261a516565b915061c9868361a516565b925082820261c9948161a516565b9150828204841483151761c9ab5761c9aa61c941565b5b5092915050565b7f4e487b7100000000000000000000000000000000000000000000000000000000600052601260045260246000fd5b600061c9ec8261a516565b915061c9f78361a516565b92508261ca075761ca0661c9b2565b5b828204905092915050565b7f4c6573736f6e20646f6573206e6f742065786973740000000000000000000000600082015250565b600061ca4860158361a8ea565b915061ca538261ca12565b602082019050919050565b6000602082019050818103600083015261ca778161ca3b565b9050919050565b60008190508160005260206000209050919050565b60006020601f8301049050919050565b600082821b905092915050565b60006008830261cae07fffffffffffffffffffffffffffffffffffffffffffffffffffffffffffffffff8261caa3565b61caea868361caa3565b95508019841693508086168417925050509392505050565b6000819050919050565b600061cb2761cb2261cb1d8461a516565b61cb02565b61a516565b9050919050565b6000819050919050565b61cb418361cb0c565b61cb5561cb4d8261cb2e565b84845461cab0565b825550505050565b600090565b61cb6a61cb5d565b61cb7581848461cb38565b505050565b5b8181101561cb995761cb8e60008261cb62565b60018101905061cb7b565b5050565b601f82111561cbde5761cbaf8161ca7e565b61cbb88461ca93565b8101602085101561cbc7578190505b61cbdb61cbd38561ca93565b83018261cb7a565b50505b505050565b600082821c905092915050565b600061cc016000198460080261cbe3565b1980831691505092915050565b600061cc1a838361cbf0565b9150826002028217905092915050565b61cc338261a52f565b67ffffffffffffffff81111561cc4c5761cc4b61ad32565b5b61cc56825461c8a4565b61cc6182828561cb9d565b600060209050601f83116001811461cc94576000841561cc82578287015190505b61cc8c858261cc0e565b86555061ccf4565b601f19841661cca28661ca7e565b60005b8281101561ccca5784890151825560018201915060208501945060208101905061cca5565b8683101561cce7578489015161cce3601f89168261cbf0565b8355505b6001600288020188555050505b505050505050565b7f5265736f7572636520636f756e742065786365656473206d6178696d756d206160008201527f6c6c6f7765640000000000000000000000000000000000000000000000000000602082015250565b600061cd5860268361a8ea565b915061cd638261ccfc565b604082019050919050565b6000602082019050818103600083015261cd878161cd4b565b9050919050565b7f5155697a20646f6573206e6f7420657869737400000000000000000000000000600082015250565b600061cdc460138361a8ea565b915061cdcf8261cd8e565b602082019050919050565b6000602082019050818103600083015261cdf38161cdb7565b9050919050565b7f4e6f74206578616374207175697a000000000000000000000000000000000000600082015250565b600061ce30600e8361a8ea565b915061ce3b8261cdfa565b602082019050919050565b6000602082019050818103600083015261ce5f8161ce23565b9050919050565b7f5175697a20646f6573206e6f7420657869737400000000000000000000000000600082015250565b600061ce9c60138361a8ea565b915061cea78261ce66565b602082019050919050565b6000602082019050818103600083015261cecb8161ce8f565b9050919050565b7f596f75206d75737420626520656e726f6c6c656420696e2074686520636f757260008201527f736520746f20636f6d706c657465206974000000000000000000000000000000602082015250565b600061cf2e60318361a8ea565b915061cf398261ced2565b604082019050919050565b6000602082019050818103600083015261cf5d8161cf21565b9050919050565b7f596f75206861766520616c726561647920636f6d706c6574656420746869732060008201527f636f757273650000000000000000000000000000000000000000000000000000602082015250565b600061cfc060268361a8ea565b915061cfcb8261cf64565b604082019050919050565b6000602082019050818103600083015261cfef8161cfb3565b9050919050565b6000819050919050565b61d01161d00c8261a516565b61cff6565b82525050565b600081905092915050565b600061d02d8261a52f565b61d037818561d017565b935061d04781856020860161a54b565b80840191505092915050565b600061d05f828961d000565b60208201915061d06f828861d022565b915061d07b828761d022565b915061d087828661d022565b915061d093828561d000565b60208201915061d0a3828461d000565b602082019150819050979650505050505050565b600060808201905061d0cc600083018761a8c0565b818103602083015261d0de818661a8fb565b9050818103604083015261d0f2818561a8fb565b9050818103606083015261d106818461a8fb565b905095945050505050565b7f4e6f742073656c6563746564206173206120726576696577657220666f72207460008201527f68697320636f7572736500000000000000000000000000000000000000000000602082015250565b600061d16d602a8361a8ea565b915061d1788261d111565b604082019050919050565b6000602082019050818103600083015261d19c8161d160565b9050919050565b7f52657669657720616c7265616479207375626d6974746564206279207468697360008201527f2072657669657765722e00000000000000000000000000000000000000000000602082015250565b600061d1ff602a8361a8ea565b915061d20a8261d1a3565b604082019050919050565b6000602082019050818103600083015261d22e8161d1f2565b9050919050565b7f436f7572736520646f6573206e6f742065786973740000000000000000000000600082015250565b600061d26b60158361a8ea565b915061d2768261d235565b602082019050919050565b6000602082019050818103600083015261d29a8161d25e565b9050919050565b7f4c6573736f6e20446f6573206e6f742065786973742100000000000000000000600082015250565b600061d2d760168361a8ea565b915061d2e28261d2a1565b602082019050919050565b6000602082019050818103600083015261d3068161d2ca565b9050919050565b600061d3188261a516565b91507fffffffffffffffffffffffffffffffffffffffffffffffffffffffffffffffff820361d34a5761d34961c941565b5b600182019050919050565b60008154905061d3648161c8a4565b9050919050565b81810361d37957505061d451565b61d3828261d355565b67ffffffffffffffff81111561d39b5761d39a61ad32565b5b61d3a5825461c8a4565b61d3b082828561cb9d565b6000601f83116001811461d3df576000841561d3cd578287015490505b61d3d7858261cc0e565b86555061d44a565b601f19841661d3ed8761ca7e565b965061d3f88661ca7e565b60005b8281101561d4205784890154825560018201915060018501945060208101905061d3fb565b8683101561d43d578489015461d439601f89168261cbf0565b8355505b6001600288020188555050505b5050505050505b565b600061d45f828461d022565b915081905092915050565b7f416c726561647920696e20726576696577657220706f6f6c0000000000000000600082015250565b600061d4a060188361a8ea565b915061d4ab8261d46a565b602082019050919050565b6000602082019050818103600083015261d4cf8161d493565b9050919050565b7f436f7572736520616c726561647920617070726f766564000000000000000000600082015250565b600061d50c60178361a8ea565b915061d5178261d4d6565b602082019050919050565b6000602082019050818103600083015261d53b8161d4ff565b9050919050565b7f596f75206861766520616c726561647920617070726f7665642074686973206360008201527f6f75727365000000000000000000000000000000000000000000000000000000602082015250565b600061d59e60258361a8ea565b915061d5a98261d542565b604082019050919050565b6000602082019050818103600083015261d5cd8161d591565b9050919050565b7f4368617074657220646f6573206e6f7420657869737421000000000000000000600082015250565b600061d60a60178361a8ea565b915061d6158261d5d4565b602082019050919050565b6000602082019050818103600083015261d6398161d5fd565b9050919050565b7f5175657374696f6e206e6f7420666f756e6420696e2074686973207175697a00600082015250565b600061d676601f8361a8ea565b915061d6818261d640565b602082019050919050565b6000602082019050818103600083015261d6a58161d669565b9050919050565b600061d6b78261a516565b915061d6c28361a516565b925082820390508181111561d6da5761d6d961c941565b5b92915050565b7f4e487b7100000000000000000000000000000000000000000000000000000000600052603160045260246000fd5b7f436f7572736520616c7265616479206578697374730000000000000000000000600082015250565b600061d74560158361a8ea565b915061d7508261d70f565b602082019050919050565b6000602082019050818103600083015261d7748161d738565b9050919050565b600061d7868261a516565b915061d7918361a516565b925082820190508082111561d7a95761d7a861c941565b5b92915050565b7f52657669657765727320616c72656164792073656c6563746564000000000000600082015250565b600061d7e5601a8361a8ea565b915061d7f08261d7af565b602082019050919050565b6000602082019050818103600083015261d8148161d7d8565b9050919050565b7f4e6f7420656e6f7567682072657669657765727320696e2074686520706f6f6c600082015250565b600061d85160208361a8ea565b915061d85c8261d81b565b602082019050919050565b6000602082019050818103600083015261d8808161d844565b9050919050565b600061d893828761d000565b60208201915061d8a3828661d000565b60208201915061d8b3828561d000565b60208201915061d8c3828461d000565b60208201915081905095945050505050565b600061d8e08261a516565b915061d8eb8361a516565b92508261d8fb5761d8fa61c9b2565b5b828206905092915050565b600081549050919050565b60008190508160005260206000209050919050565b60008160001c9050919050565b600073ffffffffffffffffffffffffffffffffffffffff82169050919050565b600061d96661d9618361d926565b61d933565b9050919050565b600061d979825461d953565b9050919050565b6000600182019050919050565b600061d9988261d906565b61d9a2818561c378565b935061d9ad8361d911565b8060005b8381101561d9e55761d9c28261d96d565b61d9cc888261a63b565b975061d9d78361d980565b92505060018101905061d9b1565b5085935050505092915050565b6000602082019050818103600083015261da0c818461d98d565b905092915050565b7f436f7572736520646f65736e2774206578697374210000000000000000000000600082015250565b600061da4a60158361a8ea565b915061da558261da14565b602082019050919050565b6000602082019050818103600083015261da798161da3d565b9050919050565b7f4368617074657220646f65736e27742065786973740000000000000000000000600082015250565b600061dab660158361a8ea565b915061dac18261da80565b602082019050919050565b6000602082019050818103600083015261dae58161daa9565b9050919050565b7f4c6573736f6e20646f65736e2774206578697374000000000000000000000000600082015250565b600061db2260148361a8ea565b915061db2d8261daec565b602082019050919050565b6000602082019050818103600083015261db518161db15565b9050919050565b7f4c6573736f6e20646f6573206e6f742065786973742100000000000000000000600082015250565b600061db8e60168361a8ea565b915061db998261db58565b602082019050919050565b6000602082019050818103600083015261dbbd8161db81565b9050919050565b7f45786365656473206d6178696d756d207265736f757263657321000000000000600082015250565b600061dbfa601a8361a8ea565b915061dc058261dbc4565b602082019050919050565b6000602082019050818103600083015261dc298161dbed565b9050919050565b600080fd5b600080fd5b600080fd5b60008235600160600383360303811261dc5b5761dc5a61dc30565b5b80830191505092915050565b60006020828403121561dc7d5761dc7c61a425565b5b600061dc8b8482850161aea8565b91505092915050565b6000808335600160200384360303811261dcb15761dcb061dc30565b5b80840192508235915067ffffffffffffffff82111561dcd35761dcd261dc35565b5b60208301925060018202360383131561dcef5761dcee61dc3a565b5b509250929050565b7f50726f706f73616c20616c726561647920657865637574656400000000000000600082015250565b600061dd2d60198361a8ea565b915061dd388261dcf7565b602082019050919050565b6000602082019050818103600083015261dd5c8161dd20565b9050919050565b7f416c726561647920617070726f76656400000000000000000000000000000000600082015250565b600061dd9960108361a8ea565b915061dda48261dd63565b602082019050919050565b6000602082019050818103600083015261ddc88161dd8c565b9050919050565b600081905092915050565b60008190508160005260206000209050919050565b6000815461ddfc8161c8a4565b61de06818661ddcf565b9450600182166000811461de21576001811461de365761de69565b60ff198316865281151582028601935061de69565b61de3f8561ddda565b60005b8381101561de615781548189015260018201915060208101905061de42565b838801955050505b50505092915050565b600061de7e828461ddef565b915081905092915050565b7f50726f706f73616c20657865637574696f6e206661696c656400000000000000600082015250565b600061debf60198361a8ea565b915061deca8261de89565b602082019050919050565b6000602082019050818103600083015261deee8161deb2565b9050919050565b7f4e6f7420696e20726576696577657220706f6f6c000000000000000000000000600082015250565b600061df2b60148361a8ea565b915061df368261def5565b602082019050919050565b6000602082019050818103600083015261df5a8161df1e565b9050919050565b7f416c7265616479206d61726b6564000000000000000000000000000000000000600082015250565b600061df97600e8361a8ea565b915061dfa28261df61565b602082019050919050565b6000602082019050818103600083015261dfc68161df8a565b9050919050565b7f436f7572736520646f6573206e6f742065786973742100000000000000000000600082015250565b600061e00360168361a8ea565b915061e00e8261dfcd565b602082019050919050565b6000602082019050818103600083015261e0328161dff6565b9050919050565b7f496e76616c6964206e756d626572206f662063686f6963657300000000000000600082015250565b600061e06f60198361a8ea565b915061e07a8261e039565b602082019050919050565b6000602082019050818103600083015261e09e8161e062565b9050919050565b7f496e76616c696420636f72726563742063686f69636520696e64657800000000600082015250565b600061e0db601c8361a8ea565b915061e0e68261e0a5565b602082019050919050565b6000602082019050818103600083015261e10a8161e0ce565b9050919050565b600061e11c8261b0c9565b915060ff820361e12f5761e12e61c941565b5b600182019050919050565b7f4e756d626572206f6620616e7377657273206d757374206d617463682074686560008201527f206e756d626572206f66207175657374696f6e73000000000000000000000000602082015250565b600061e19660348361a8ea565b915061e1a18261e13a565b604082019050919050565b6000602082019050818103600083015261e1c58161e189565b9050919050565b7f496e76616c69642063686f6963652073656c6563746564000000000000000000600082015250565b600061e20260178361a8ea565b915061e20d8261e1cc565b602082019050919050565b6000602082019050818103600083015261e2318161e1f5565b9050919050565b600060408201905061e24d600083018561a8c0565b61e25a602083018461a8c0565b9392505050565b7f436f7572736520646f65736e2774206578697374000000000000000000000000600082015250565b600061e29760148361a8ea565b915061e2a28261e261565b602082019050919050565b6000602082019050818103600083015261e2c68161e28a565b9050919050565b7f4368617074657220646f65736e2774206e6f7420657869737400000000000000600082015250565b600061e30360198361a8ea565b915061e30e8261e2cd565b602082019050919050565b6000602082019050818103600083015261e3328161e2f6565b9050919050565b7f5175697a20646f65736e27742065786973740000000000000000000000000000600082015250565b600061e36f60128361a8ea565b915061e37a8261e339565b602082019050919050565b6000602082019050818103600083015261e39e8161e362565b9050919050565b7f436f75727365206e6f742079657420617070726f766564210000000000000000600082015250565b600061e3db60188361a8ea565b915061e3e68261e3a5565b602082019050919050565b6000602082019050818103600083015261e40a8161e3ce565b9050919050565b7f416c726561647920656e726f6c6c656400000000000000000000000000000000600082015250565b600061e44760108361a8ea565b915061e4528261e411565b602082019050919050565b6000602082019050818103600083015261e4768161e43a565b9050919050565b600060608201905061e492600083018661aa88565b61e49f602083018561a8c0565b61e4ac604083018461a8c0565b949350505050565b7f4c696d6974204578636565646564210000000000000000000000000000000000600082015250565b600061e4ea600f8361a8ea565b915061e4f58261e4b4565b602082019050919050565b6000602082019050818103600083015261e5198161e4dd565b9050919050565b7f53636f726573206d757374206265206265747765656e203120616e642031302e600082015250565b600061e55660208361a8ea565b915061e5618261e520565b602082019050919050565b6000602082019050818103600083015261e5858161e549565b9050919050565b600060408201905061e5a1600083018561aa88565b61e5ae602083018461ab68565b9392505050565b7f496e73756666696369656e742062616c616e6365000000000000000000000000600082015250565b600061e5eb60148361a8ea565b915061e5f68261e5b5565b602082019050919050565b6000602082019050818103600083015261e61a8161e5de565b905091905056fea2646970667358221220f62309cfeaa30e7e3aea0ef1cde33bb06e124a55d36d5960c852ab60d8d9a00d64736f6c634300081b0033",
  "linkReferences": {},
  "deployedLinkReferences": {}
}