{
  "_format": "hh-sol-artifact-1",
  "contractName": "Ecosystem3",
  "sourceName": "contracts/Ecosystem Contracts/Ecosystem3.sol",
  "abi": [
    {
      "inputs": [
        {
          "internalType": "address[]",
          "name": "_reviewers",
          "type": "address[]"
        }
      ],
      "stateMutability": "nonpayable",
      "type": "constructor"
    },
    {
      "inputs": [],
      "name": "AccessControlBadConfirmation",
      "type": "error"
    },
    {
      "inputs": [
        {
          "internalType": "address",
          "name": "account",
          "type": "address"
        },
        {
          "internalType": "bytes32",
          "name": "neededRole",
          "type": "bytes32"
        }
      ],
      "name": "AccessControlUnauthorizedAccount",
      "type": "error"
    },
    {
      "inputs": [
        {
          "internalType": "address",
          "name": "spender",
          "type": "address"
        },
        {
          "internalType": "uint256",
          "name": "allowance",
          "type": "uint256"
        },
        {
          "internalType": "uint256",
          "name": "needed",
          "type": "uint256"
        }
      ],
      "name": "ERC20InsufficientAllowance",
      "type": "error"
    },
    {
      "inputs": [
        {
          "internalType": "address",
          "name": "sender",
          "type": "address"
        },
        {
          "internalType": "uint256",
          "name": "balance",
          "type": "uint256"
        },
        {
          "internalType": "uint256",
          "name": "needed",
          "type": "uint256"
        }
      ],
      "name": "ERC20InsufficientBalance",
      "type": "error"
    },
    {
      "inputs": [
        {
          "internalType": "address",
          "name": "approver",
          "type": "address"
        }
      ],
      "name": "ERC20InvalidApprover",
      "type": "error"
    },
    {
      "inputs": [
        {
          "internalType": "address",
          "name": "receiver",
          "type": "address"
        }
      ],
      "name": "ERC20InvalidReceiver",
      "type": "error"
    },
    {
      "inputs": [
        {
          "internalType": "address",
          "name": "sender",
          "type": "address"
        }
      ],
      "name": "ERC20InvalidSender",
      "type": "error"
    },
    {
      "inputs": [
        {
          "internalType": "address",
          "name": "spender",
          "type": "address"
        }
      ],
      "name": "ERC20InvalidSpender",
      "type": "error"
    },
    {
      "inputs": [],
      "name": "ReentrancyGuardReentrantCall",
      "type": "error"
    },
    {
      "anonymous": false,
      "inputs": [
        {
          "indexed": true,
          "internalType": "address",
          "name": "owner",
          "type": "address"
        },
        {
          "indexed": true,
          "internalType": "address",
          "name": "spender",
          "type": "address"
        },
        {
          "indexed": false,
          "internalType": "uint256",
          "name": "value",
          "type": "uint256"
        }
      ],
      "name": "Approval",
      "type": "event"
    },
    {
      "anonymous": false,
      "inputs": [
        {
          "indexed": true,
          "internalType": "address",
          "name": "_account",
          "type": "address"
        },
        {
          "indexed": false,
          "internalType": "uint256",
          "name": "_amount",
          "type": "uint256"
        }
      ],
      "name": "BurnSuccess",
      "type": "event"
    },
    {
      "anonymous": false,
      "inputs": [
        {
          "indexed": false,
          "internalType": "uint256",
          "name": "certificateId",
          "type": "uint256"
        },
        {
          "indexed": false,
          "internalType": "string",
          "name": "courseName",
          "type": "string"
        },
        {
          "indexed": false,
          "internalType": "string",
          "name": "cert_issuer",
          "type": "string"
        },
        {
          "indexed": false,
          "internalType": "string",
          "name": "learner",
          "type": "string"
        }
      ],
      "name": "CertificateIssued",
      "type": "event"
    },
    {
      "anonymous": false,
      "inputs": [
        {
          "indexed": true,
          "internalType": "uint256",
          "name": "_courseId",
          "type": "uint256"
        },
        {
          "indexed": true,
          "internalType": "uint256",
          "name": "_chaterId",
          "type": "uint256"
        }
      ],
      "name": "ChapterDeletedSuccess",
      "type": "event"
    },
    {
      "anonymous": false,
      "inputs": [
        {
          "indexed": true,
          "internalType": "uint256",
          "name": "_courseId",
          "type": "uint256"
        },
        {
          "indexed": true,
          "internalType": "uint256",
          "name": "_chapterId",
          "type": "uint256"
        },
        {
          "indexed": false,
          "internalType": "string",
          "name": "_chapterName",
          "type": "string"
        }
      ],
      "name": "ChapterEdited",
      "type": "event"
    },
    {
      "anonymous": false,
      "inputs": [
        {
          "indexed": true,
          "internalType": "uint256",
          "name": "_courseID",
          "type": "uint256"
        },
        {
          "indexed": true,
          "internalType": "string",
          "name": "_courseName",
          "type": "string"
        },
        {
          "indexed": false,
          "internalType": "bool",
          "name": "_approved",
          "type": "bool"
        }
      ],
      "name": "CourseCreationSuccess",
      "type": "event"
    },
    {
      "anonymous": false,
      "inputs": [
        {
          "indexed": true,
          "internalType": "uint256",
          "name": "_courseId",
          "type": "uint256"
        },
        {
          "indexed": false,
          "internalType": "address",
          "name": "owner",
          "type": "address"
        }
      ],
      "name": "CourseDeleteSuccess",
      "type": "event"
    },
    {
      "anonymous": false,
      "inputs": [
        {
          "indexed": true,
          "internalType": "uint256",
          "name": "_courseId",
          "type": "uint256"
        },
        {
          "indexed": false,
          "internalType": "string",
          "name": "_courseName",
          "type": "string"
        }
      ],
      "name": "CourseEdited",
      "type": "event"
    },
    {
      "anonymous": false,
      "inputs": [
        {
          "indexed": true,
          "internalType": "address",
          "name": "_to",
          "type": "address"
        },
        {
          "indexed": true,
          "internalType": "uint256",
          "name": "_amount",
          "type": "uint256"
        }
      ],
      "name": "EcosystemPoolUpdate",
      "type": "event"
    },
    {
      "anonymous": false,
      "inputs": [
        {
          "indexed": true,
          "internalType": "uint256",
          "name": "_chapterId",
          "type": "uint256"
        },
        {
          "indexed": true,
          "internalType": "uint256",
          "name": "_lessonId",
          "type": "uint256"
        }
      ],
      "name": "LessonDeleted",
      "type": "event"
    },
    {
      "anonymous": false,
      "inputs": [
        {
          "indexed": true,
          "internalType": "uint256",
          "name": "_lessonId",
          "type": "uint256"
        },
        {
          "indexed": false,
          "internalType": "string",
          "name": "_lessonName",
          "type": "string"
        }
      ],
      "name": "LessonEdited",
      "type": "event"
    },
    {
      "anonymous": false,
      "inputs": [
        {
          "indexed": true,
          "internalType": "uint256",
          "name": "_chapterId",
          "type": "uint256"
        },
        {
          "indexed": true,
          "internalType": "uint256",
          "name": "_lessonId",
          "type": "uint256"
        },
        {
          "indexed": false,
          "internalType": "address",
          "name": "learner",
          "type": "address"
        }
      ],
      "name": "LessonMarkedAsRead",
      "type": "event"
    },
    {
      "anonymous": false,
      "inputs": [
        {
          "indexed": true,
          "internalType": "address",
          "name": "_to",
          "type": "address"
        },
        {
          "indexed": true,
          "internalType": "uint256",
          "name": "_amount",
          "type": "uint256"
        }
      ],
      "name": "MintSuccess",
      "type": "event"
    },
    {
      "anonymous": false,
      "inputs": [
        {
          "indexed": true,
          "internalType": "uint256",
          "name": "proposalId",
          "type": "uint256"
        },
        {
          "indexed": false,
          "internalType": "address",
          "name": "approver",
          "type": "address"
        }
      ],
      "name": "MultiSigProposalApproved",
      "type": "event"
    },
    {
      "anonymous": false,
      "inputs": [
        {
          "indexed": true,
          "internalType": "uint256",
          "name": "proposalId",
          "type": "uint256"
        },
        {
          "indexed": false,
          "internalType": "address",
          "name": "proposer",
          "type": "address"
        }
      ],
      "name": "MultiSigProposalCreated",
      "type": "event"
    },
    {
      "anonymous": false,
      "inputs": [
        {
          "indexed": true,
          "internalType": "uint256",
          "name": "proposalId",
          "type": "uint256"
        }
      ],
      "name": "MultiSigProposalExecuted",
      "type": "event"
    },
    {
      "anonymous": false,
      "inputs": [
        {
          "indexed": true,
          "internalType": "uint256",
          "name": "_quizId",
          "type": "uint256"
        },
        {
          "indexed": true,
          "internalType": "uint256",
          "name": "_questionId",
          "type": "uint256"
        }
      ],
      "name": "QuestionDeleted",
      "type": "event"
    },
    {
      "anonymous": false,
      "inputs": [
        {
          "indexed": true,
          "internalType": "uint256",
          "name": "_lessonId",
          "type": "uint256"
        },
        {
          "indexed": true,
          "internalType": "uint256",
          "name": "_quizId",
          "type": "uint256"
        }
      ],
      "name": "QuizDeleted",
      "type": "event"
    },
    {
      "anonymous": false,
      "inputs": [
        {
          "indexed": true,
          "internalType": "uint256",
          "name": "_lessonId",
          "type": "uint256"
        },
        {
          "indexed": true,
          "internalType": "uint256",
          "name": "_quizId",
          "type": "uint256"
        },
        {
          "indexed": false,
          "internalType": "string",
          "name": "_quizTitle",
          "type": "string"
        }
      ],
      "name": "QuizEdited",
      "type": "event"
    },
    {
      "anonymous": false,
      "inputs": [
        {
          "indexed": true,
          "internalType": "address",
          "name": "learner",
          "type": "address"
        },
        {
          "indexed": false,
          "internalType": "uint256",
          "name": "quizId",
          "type": "uint256"
        },
        {
          "indexed": false,
          "internalType": "uint256",
          "name": "score",
          "type": "uint256"
        }
      ],
      "name": "QuizSubmitted",
      "type": "event"
    },
    {
      "anonymous": false,
      "inputs": [
        {
          "indexed": true,
          "internalType": "address",
          "name": "reviewer",
          "type": "address"
        }
      ],
      "name": "ReviewerAddedToPool",
      "type": "event"
    },
    {
      "anonymous": false,
      "inputs": [
        {
          "indexed": true,
          "internalType": "address",
          "name": "reviewer",
          "type": "address"
        }
      ],
      "name": "ReviewerRemovedFromPool",
      "type": "event"
    },
    {
      "anonymous": false,
      "inputs": [
        {
          "indexed": true,
          "internalType": "uint256",
          "name": "courseId",
          "type": "uint256"
        },
        {
          "indexed": false,
          "internalType": "address[]",
          "name": "reviewers",
          "type": "address[]"
        }
      ],
      "name": "ReviewersSelected",
      "type": "event"
    },
    {
      "anonymous": false,
      "inputs": [
        {
          "indexed": true,
          "internalType": "bytes32",
          "name": "role",
          "type": "bytes32"
        },
        {
          "indexed": true,
          "internalType": "bytes32",
          "name": "previousAdminRole",
          "type": "bytes32"
        },
        {
          "indexed": true,
          "internalType": "bytes32",
          "name": "newAdminRole",
          "type": "bytes32"
        }
      ],
      "name": "RoleAdminChanged",
      "type": "event"
    },
    {
      "anonymous": false,
      "inputs": [
        {
          "indexed": true,
          "internalType": "bytes32",
          "name": "role",
          "type": "bytes32"
        },
        {
          "indexed": true,
          "internalType": "address",
          "name": "account",
          "type": "address"
        },
        {
          "indexed": true,
          "internalType": "address",
          "name": "sender",
          "type": "address"
        }
      ],
      "name": "RoleGranted",
      "type": "event"
    },
    {
      "anonymous": false,
      "inputs": [
        {
          "indexed": true,
          "internalType": "bytes32",
          "name": "role",
          "type": "bytes32"
        },
        {
          "indexed": true,
          "internalType": "address",
          "name": "account",
          "type": "address"
        },
        {
          "indexed": true,
          "internalType": "address",
          "name": "sender",
          "type": "address"
        }
      ],
      "name": "RoleRevoked",
      "type": "event"
    },
    {
      "anonymous": false,
      "inputs": [
        {
          "indexed": true,
          "internalType": "address",
          "name": "from",
          "type": "address"
        },
        {
          "indexed": true,
          "internalType": "address",
          "name": "to",
          "type": "address"
        },
        {
          "indexed": false,
          "internalType": "uint256",
          "name": "value",
          "type": "uint256"
        }
      ],
      "name": "Transfer",
      "type": "event"
    },
    {
      "inputs": [],
      "name": "COURSE_COMPLETION_REWARD",
      "outputs": [
        {
          "internalType": "uint256",
          "name": "",
          "type": "uint256"
        }
      ],
      "stateMutability": "view",
      "type": "function"
    },
    {
      "inputs": [],
      "name": "COURSE_OWNER_ROLE",
      "outputs": [
        {
          "internalType": "bytes32",
          "name": "",
          "type": "bytes32"
        }
      ],
      "stateMutability": "view",
      "type": "function"
    },
    {
      "inputs": [],
      "name": "CREATE_COURSE_REWARD",
      "outputs": [
        {
          "internalType": "uint256",
          "name": "",
          "type": "uint256"
        }
      ],
      "stateMutability": "view",
      "type": "function"
    },
    {
      "inputs": [],
      "name": "DEFAULT_ADMIN_ROLE",
      "outputs": [
        {
          "internalType": "bytes32",
          "name": "",
          "type": "bytes32"
        }
      ],
      "stateMutability": "view",
      "type": "function"
    },
    {
      "inputs": [],
      "name": "ECOSYSTEM_POOL",
      "outputs": [
        {
          "internalType": "uint256",
          "name": "",
          "type": "uint256"
        }
      ],
      "stateMutability": "view",
      "type": "function"
    },
    {
      "inputs": [],
      "name": "ENROLLMENT_REWARD",
      "outputs": [
        {
          "internalType": "uint256",
          "name": "",
          "type": "uint256"
        }
      ],
      "stateMutability": "view",
      "type": "function"
    },
    {
      "inputs": [],
      "name": "MAX_SCORE",
      "outputs": [
        {
          "internalType": "uint256",
          "name": "",
          "type": "uint256"
        }
      ],
      "stateMutability": "view",
      "type": "function"
    },
    {
      "inputs": [],
      "name": "MAX_SUPPLY",
      "outputs": [
        {
          "internalType": "uint256",
          "name": "",
          "type": "uint256"
        }
      ],
      "stateMutability": "view",
      "type": "function"
    },
    {
      "inputs": [],
      "name": "MIN_APPROVAL_SCORE",
      "outputs": [
        {
          "internalType": "uint256",
          "name": "",
          "type": "uint256"
        }
      ],
      "stateMutability": "view",
      "type": "function"
    },
    {
      "inputs": [],
      "name": "MULTISIG_APPROVER",
      "outputs": [
        {
          "internalType": "bytes32",
          "name": "",
          "type": "bytes32"
        }
      ],
      "stateMutability": "view",
      "type": "function"
    },
    {
      "inputs": [],
      "name": "QUIZ_COMPLETION_REWARD",
      "outputs": [
        {
          "internalType": "uint256",
          "name": "",
          "type": "uint256"
        }
      ],
      "stateMutability": "view",
      "type": "function"
    },
    {
      "inputs": [],
      "name": "REQUIRED_APPROVALS",
      "outputs": [
        {
          "internalType": "uint256",
          "name": "",
          "type": "uint256"
        }
      ],
      "stateMutability": "view",
      "type": "function"
    },
    {
      "inputs": [],
      "name": "REVIEWER_ROLE",
      "outputs": [
        {
          "internalType": "bytes32",
          "name": "",
          "type": "bytes32"
        }
      ],
      "stateMutability": "view",
      "type": "function"
    },
    {
      "inputs": [
        {
          "internalType": "address",
          "name": "",
          "type": "address"
        }
      ],
      "name": "accountCourses",
      "outputs": [
        {
          "internalType": "uint256",
          "name": "courseCount",
          "type": "uint256"
        }
      ],
      "stateMutability": "view",
      "type": "function"
    },
    {
      "inputs": [
        {
          "internalType": "address",
          "name": "newReviewer",
          "type": "address"
        }
      ],
      "name": "addReviewer",
      "outputs": [],
      "stateMutability": "nonpayable",
      "type": "function"
    },
    {
      "inputs": [
        {
          "internalType": "address",
          "name": "owner",
          "type": "address"
        },
        {
          "internalType": "address",
          "name": "spender",
          "type": "address"
        }
      ],
      "name": "allowance",
      "outputs": [
        {
          "internalType": "uint256",
          "name": "",
          "type": "uint256"
        }
      ],
      "stateMutability": "view",
      "type": "function"
    },
    {
      "inputs": [
        {
          "internalType": "address",
          "name": "",
          "type": "address"
        },
        {
          "internalType": "uint256",
          "name": "",
          "type": "uint256"
        }
      ],
      "name": "approvals",
      "outputs": [
        {
          "internalType": "bool",
          "name": "",
          "type": "bool"
        }
      ],
      "stateMutability": "view",
      "type": "function"
    },
    {
      "inputs": [
        {
          "internalType": "address",
          "name": "spender",
          "type": "address"
        },
        {
          "internalType": "uint256",
          "name": "value",
          "type": "uint256"
        }
      ],
      "name": "approve",
      "outputs": [
        {
          "internalType": "bool",
          "name": "",
          "type": "bool"
        }
      ],
      "stateMutability": "nonpayable",
      "type": "function"
    },
    {
      "inputs": [
        {
          "internalType": "uint256",
          "name": "_courseId",
          "type": "uint256"
        }
      ],
      "name": "approveCourse",
      "outputs": [],
      "stateMutability": "nonpayable",
      "type": "function"
    },
    {
      "inputs": [
        {
          "internalType": "uint256",
          "name": "_proposalId",
          "type": "uint256"
        }
      ],
      "name": "approveMultiSigProposal",
      "outputs": [],
      "stateMutability": "nonpayable",
      "type": "function"
    },
    {
      "inputs": [
        {
          "internalType": "address",
          "name": "account",
          "type": "address"
        }
      ],
      "name": "balanceOf",
      "outputs": [
        {
          "internalType": "uint256",
          "name": "",
          "type": "uint256"
        }
      ],
      "stateMutability": "view",
      "type": "function"
    },
    {
      "inputs": [
        {
          "internalType": "uint256",
          "name": "",
          "type": "uint256"
        }
      ],
      "name": "certificates",
      "outputs": [
        {
          "internalType": "uint256",
          "name": "certId",
          "type": "uint256"
        },
        {
          "internalType": "uint256",
          "name": "courseId",
          "type": "uint256"
        },
        {
          "internalType": "string",
          "name": "learner",
          "type": "string"
        },
        {
          "internalType": "string",
          "name": "cert_issuer",
          "type": "string"
        },
        {
          "internalType": "uint256",
          "name": "issue_date",
          "type": "uint256"
        },
        {
          "internalType": "string",
          "name": "courseName",
          "type": "string"
        },
        {
          "internalType": "address",
          "name": "owner",
          "type": "address"
        }
      ],
      "stateMutability": "view",
      "type": "function"
    },
    {
      "inputs": [
        {
          "internalType": "uint256",
          "name": "",
          "type": "uint256"
        }
      ],
      "name": "chapter",
      "outputs": [
        {
          "internalType": "uint256",
          "name": "chapterId",
          "type": "uint256"
        },
        {
          "internalType": "string",
          "name": "chapterName",
          "type": "string"
        },
        {
          "internalType": "bool",
          "name": "exists",
          "type": "bool"
        }
      ],
      "stateMutability": "view",
      "type": "function"
    },
    {
      "inputs": [
        {
          "internalType": "uint256",
          "name": "",
          "type": "uint256"
        },
        {
          "internalType": "uint256",
          "name": "",
          "type": "uint256"
        }
      ],
      "name": "chapterLessons",
      "outputs": [
        {
          "internalType": "string",
          "name": "",
          "type": "string"
        }
      ],
      "stateMutability": "view",
      "type": "function"
    },
    {
      "inputs": [
        {
          "internalType": "uint256",
          "name": "",
          "type": "uint256"
        },
        {
          "internalType": "address",
          "name": "",
          "type": "address"
        }
      ],
      "name": "completedQuizzes",
      "outputs": [
        {
          "internalType": "bool",
          "name": "",
          "type": "bool"
        }
      ],
      "stateMutability": "view",
      "type": "function"
    },
    {
      "inputs": [
        {
          "internalType": "uint256",
          "name": "",
          "type": "uint256"
        },
        {
          "internalType": "uint256",
          "name": "",
          "type": "uint256"
        }
      ],
      "name": "courseChapters",
      "outputs": [
        {
          "internalType": "uint256",
          "name": "chapterId",
          "type": "uint256"
        },
        {
          "internalType": "string",
          "name": "chapterName",
          "type": "string"
        },
        {
          "internalType": "bool",
          "name": "exists",
          "type": "bool"
        }
      ],
      "stateMutability": "view",
      "type": "function"
    },
    {
      "inputs": [
        {
          "internalType": "uint256",
          "name": "",
          "type": "uint256"
        },
        {
          "internalType": "address",
          "name": "",
          "type": "address"
        }
      ],
      "name": "courseCompleted",
      "outputs": [
        {
          "internalType": "bool",
          "name": "",
          "type": "bool"
        }
      ],
      "stateMutability": "view",
      "type": "function"
    },
    {
      "inputs": [],
      "name": "courseCount",
      "outputs": [
        {
          "internalType": "uint256",
          "name": "",
          "type": "uint256"
        }
      ],
      "stateMutability": "view",
      "type": "function"
    },
    {
      "inputs": [
        {
          "internalType": "uint256",
          "name": "",
          "type": "uint256"
        }
      ],
      "name": "courseObject",
      "outputs": [
        {
          "internalType": "uint256",
          "name": "courseId",
          "type": "uint256"
        },
        {
          "internalType": "string",
          "name": "courseName",
          "type": "string"
        },
        {
          "internalType": "string",
          "name": "description",
          "type": "string"
        },
        {
          "internalType": "bool",
          "name": "approved",
          "type": "bool"
        },
        {
          "internalType": "uint256",
          "name": "approvalCount",
          "type": "uint256"
        },
        {
          "internalType": "address",
          "name": "creator",
          "type": "address"
        }
      ],
      "stateMutability": "view",
      "type": "function"
    },
    {
      "inputs": [
        {
          "internalType": "uint256",
          "name": "",
          "type": "uint256"
        }
      ],
      "name": "courseReviewInitiated",
      "outputs": [
        {
          "internalType": "bool",
          "name": "",
          "type": "bool"
        }
      ],
      "stateMutability": "view",
      "type": "function"
    },
    {
      "inputs": [
        {
          "internalType": "uint256",
          "name": "",
          "type": "uint256"
        },
        {
          "internalType": "uint256",
          "name": "",
          "type": "uint256"
        }
      ],
      "name": "courseReviewers",
      "outputs": [
        {
          "internalType": "address",
          "name": "",
          "type": "address"
        }
      ],
      "stateMutability": "view",
      "type": "function"
    },
    {
      "inputs": [
        {
          "internalType": "string",
          "name": "_courseName",
          "type": "string"
        },
        {
          "internalType": "string",
          "name": "_description",
          "type": "string"
        }
      ],
      "name": "createCourse",
      "outputs": [
        {
          "internalType": "bool",
          "name": "",
          "type": "bool"
        }
      ],
      "stateMutability": "nonpayable",
      "type": "function"
    },
    {
      "inputs": [],
      "name": "decimals",
      "outputs": [
        {
          "internalType": "uint8",
          "name": "",
          "type": "uint8"
        }
      ],
      "stateMutability": "view",
      "type": "function"
    },
    {
      "inputs": [
        {
          "internalType": "uint256",
          "name": "_courseId",
          "type": "uint256"
        },
        {
          "internalType": "uint256",
          "name": "_chapterId",
          "type": "uint256"
        }
      ],
      "name": "deleteChapter",
      "outputs": [
        {
          "internalType": "bool",
          "name": "",
          "type": "bool"
        }
      ],
      "stateMutability": "nonpayable",
      "type": "function"
    },
    {
      "inputs": [
        {
          "internalType": "uint256",
          "name": "_courseId",
          "type": "uint256"
        }
      ],
      "name": "deleteCourse",
      "outputs": [
        {
          "internalType": "bool",
          "name": "",
          "type": "bool"
        }
      ],
      "stateMutability": "nonpayable",
      "type": "function"
    },
    {
      "inputs": [
        {
          "internalType": "uint256",
          "name": "_chapterId",
          "type": "uint256"
        },
        {
          "internalType": "uint256",
          "name": "_lessonId",
          "type": "uint256"
        }
      ],
      "name": "deleteLesson",
      "outputs": [
        {
          "internalType": "bool",
          "name": "",
          "type": "bool"
        }
      ],
      "stateMutability": "nonpayable",
      "type": "function"
    },
    {
      "inputs": [
        {
          "internalType": "uint256",
          "name": "_quizId",
          "type": "uint256"
        },
        {
          "internalType": "uint256",
          "name": "_questionId",
          "type": "uint256"
        }
      ],
      "name": "deleteQuestion",
      "outputs": [
        {
          "internalType": "bool",
          "name": "",
          "type": "bool"
        }
      ],
      "stateMutability": "nonpayable",
      "type": "function"
    },
    {
      "inputs": [
        {
          "internalType": "uint256",
          "name": "_lessonId",
          "type": "uint256"
        },
        {
          "internalType": "uint256",
          "name": "_quizId",
          "type": "uint256"
        }
      ],
      "name": "deleteQuiz",
      "outputs": [
        {
          "internalType": "bool",
          "name": "",
          "type": "bool"
        }
      ],
      "stateMutability": "nonpayable",
      "type": "function"
    },
    {
      "inputs": [],
      "name": "ecosystemPoolSupply",
      "outputs": [
        {
          "internalType": "uint256",
          "name": "",
          "type": "uint256"
        }
      ],
      "stateMutability": "view",
      "type": "function"
    },
    {
      "inputs": [
        {
          "internalType": "uint256",
          "name": "_courseId",
          "type": "uint256"
        },
        {
          "internalType": "uint256",
          "name": "_chapterId",
          "type": "uint256"
        },
        {
          "internalType": "string",
          "name": "_chapterName",
          "type": "string"
        }
      ],
      "name": "editChapter",
      "outputs": [
        {
          "internalType": "bool",
          "name": "",
          "type": "bool"
        }
      ],
      "stateMutability": "nonpayable",
      "type": "function"
    },
    {
      "inputs": [
        {
          "internalType": "uint256",
          "name": "_courseId",
          "type": "uint256"
        },
        {
          "internalType": "string",
          "name": "_courseName",
          "type": "string"
        }
      ],
      "name": "editCourse",
      "outputs": [
        {
          "internalType": "bool",
          "name": "",
          "type": "bool"
        }
      ],
      "stateMutability": "nonpayable",
      "type": "function"
    },
    {
      "inputs": [
        {
          "internalType": "uint256",
          "name": "_lessonId",
          "type": "uint256"
        },
        {
          "internalType": "string",
          "name": "_lessonName",
          "type": "string"
        },
        {
          "internalType": "string",
          "name": "_lessonContent",
          "type": "string"
        },
        {
          "components": [
            {
              "internalType": "string",
              "name": "contentType",
              "type": "string"
            },
            {
              "internalType": "string",
              "name": "url",
              "type": "string"
            },
            {
              "internalType": "string",
              "name": "description",
              "type": "string"
            }
          ],
          "internalType": "struct Ecosystem.Resource[]",
          "name": "_additionalResources",
          "type": "tuple[]"
        }
      ],
      "name": "editLesson",
      "outputs": [
        {
          "internalType": "bool",
          "name": "",
          "type": "bool"
        }
      ],
      "stateMutability": "nonpayable",
      "type": "function"
    },
    {
      "inputs": [
        {
          "internalType": "uint256",
          "name": "_lessonId",
          "type": "uint256"
        },
        {
          "internalType": "uint256",
          "name": "_quizId",
          "type": "uint256"
        },
        {
          "internalType": "string",
          "name": "_quizTitle",
          "type": "string"
        }
      ],
      "name": "editQuiz",
      "outputs": [],
      "stateMutability": "nonpayable",
      "type": "function"
    },
    {
      "inputs": [],
      "name": "getAllCourses",
      "outputs": [
        {
          "components": [
            {
              "internalType": "uint256",
              "name": "courseId",
              "type": "uint256"
            },
            {
              "internalType": "string",
              "name": "courseName",
              "type": "string"
            },
            {
              "internalType": "string",
              "name": "description",
              "type": "string"
            },
            {
              "internalType": "bool",
              "name": "approved",
              "type": "bool"
            },
            {
              "internalType": "uint256",
              "name": "approvalCount",
              "type": "uint256"
            },
            {
              "internalType": "address",
              "name": "creator",
              "type": "address"
            }
          ],
          "internalType": "struct Ecosystem.Course[]",
          "name": "",
          "type": "tuple[]"
        }
      ],
      "stateMutability": "view",
      "type": "function"
    },
    {
      "inputs": [
        {
          "internalType": "uint256",
          "name": "courseId",
          "type": "uint256"
        }
      ],
      "name": "getCourseReviewers",
      "outputs": [
        {
          "internalType": "address[]",
          "name": "",
          "type": "address[]"
        }
      ],
      "stateMutability": "view",
      "type": "function"
    },
    {
      "inputs": [],
      "name": "getCurrentEcosystemPoolSupply",
      "outputs": [
        {
          "internalType": "uint256",
          "name": "",
          "type": "uint256"
        }
      ],
      "stateMutability": "view",
      "type": "function"
    },
    {
      "inputs": [
        {
          "internalType": "bytes32",
          "name": "role",
          "type": "bytes32"
        }
      ],
      "name": "getRoleAdmin",
      "outputs": [
        {
          "internalType": "bytes32",
          "name": "",
          "type": "bytes32"
        }
      ],
      "stateMutability": "view",
      "type": "function"
    },
    {
      "inputs": [
        {
          "internalType": "bytes32",
          "name": "role",
          "type": "bytes32"
        },
        {
          "internalType": "address",
          "name": "account",
          "type": "address"
        }
      ],
      "name": "grantRole",
      "outputs": [],
      "stateMutability": "nonpayable",
      "type": "function"
    },
    {
      "inputs": [
        {
          "internalType": "bytes32",
          "name": "role",
          "type": "bytes32"
        },
        {
          "internalType": "address",
          "name": "account",
          "type": "address"
        }
      ],
      "name": "hasRole",
      "outputs": [
        {
          "internalType": "bool",
          "name": "",
          "type": "bool"
        }
      ],
      "stateMutability": "view",
      "type": "function"
    },
    {
      "inputs": [
        {
          "internalType": "uint256",
          "name": "",
          "type": "uint256"
        },
        {
          "internalType": "address",
          "name": "",
          "type": "address"
        }
      ],
      "name": "isEnrolled",
      "outputs": [
        {
          "internalType": "bool",
          "name": "",
          "type": "bool"
        }
      ],
      "stateMutability": "view",
      "type": "function"
    },
    {
      "inputs": [
        {
          "internalType": "address",
          "name": "",
          "type": "address"
        }
      ],
      "name": "isInReviewerPool",
      "outputs": [
        {
          "internalType": "bool",
          "name": "",
          "type": "bool"
        }
      ],
      "stateMutability": "view",
      "type": "function"
    },
    {
      "inputs": [
        {
          "internalType": "address",
          "name": "account",
          "type": "address"
        }
      ],
      "name": "isReviewer",
      "outputs": [
        {
          "internalType": "bool",
          "name": "",
          "type": "bool"
        }
      ],
      "stateMutability": "view",
      "type": "function"
    },
    {
      "inputs": [
        {
          "internalType": "uint256",
          "name": "_courseId",
          "type": "uint256"
        },
        {
          "internalType": "string",
          "name": "learner",
          "type": "string"
        },
        {
          "internalType": "string",
          "name": "courseName",
          "type": "string"
        },
        {
          "internalType": "string",
          "name": "cert_issuer",
          "type": "string"
        },
        {
          "internalType": "uint256",
          "name": "issue_date",
          "type": "uint256"
        }
      ],
      "name": "issueCertificate",
      "outputs": [
        {
          "internalType": "uint256",
          "name": "",
          "type": "uint256"
        },
        {
          "components": [
            {
              "internalType": "uint256",
              "name": "certId",
              "type": "uint256"
            },
            {
              "internalType": "uint256",
              "name": "courseId",
              "type": "uint256"
            },
            {
              "internalType": "string",
              "name": "learner",
              "type": "string"
            },
            {
              "internalType": "string",
              "name": "cert_issuer",
              "type": "string"
            },
            {
              "internalType": "uint256",
              "name": "issue_date",
              "type": "uint256"
            },
            {
              "internalType": "string",
              "name": "courseName",
              "type": "string"
            },
            {
              "internalType": "address",
              "name": "owner",
              "type": "address"
            }
          ],
          "internalType": "struct Ecosystem3.Certificate",
          "name": "",
          "type": "tuple"
        }
      ],
      "stateMutability": "nonpayable",
      "type": "function"
    },
    {
      "inputs": [
        {
          "internalType": "uint256",
          "name": "",
          "type": "uint256"
        }
      ],
      "name": "lesson",
      "outputs": [
        {
          "internalType": "uint256",
          "name": "lessonId",
          "type": "uint256"
        },
        {
          "internalType": "string",
          "name": "lessonName",
          "type": "string"
        },
        {
          "internalType": "string",
          "name": "lessonContent",
          "type": "string"
        },
        {
          "internalType": "uint256",
          "name": "resourceCount",
          "type": "uint256"
        }
      ],
      "stateMutability": "view",
      "type": "function"
    },
    {
      "inputs": [
        {
          "internalType": "uint256",
          "name": "",
          "type": "uint256"
        },
        {
          "internalType": "address",
          "name": "",
          "type": "address"
        }
      ],
      "name": "lessonRead",
      "outputs": [
        {
          "internalType": "bool",
          "name": "",
          "type": "bool"
        }
      ],
      "stateMutability": "view",
      "type": "function"
    },
    {
      "inputs": [
        {
          "internalType": "uint256",
          "name": "",
          "type": "uint256"
        }
      ],
      "name": "listOfChapters",
      "outputs": [
        {
          "internalType": "uint256",
          "name": "chapterId",
          "type": "uint256"
        },
        {
          "internalType": "string",
          "name": "chapterName",
          "type": "string"
        },
        {
          "internalType": "bool",
          "name": "exists",
          "type": "bool"
        }
      ],
      "stateMutability": "view",
      "type": "function"
    },
    {
      "inputs": [
        {
          "internalType": "uint256",
          "name": "",
          "type": "uint256"
        }
      ],
      "name": "listOfCourses",
      "outputs": [
        {
          "internalType": "uint256",
          "name": "courseId",
          "type": "uint256"
        },
        {
          "internalType": "string",
          "name": "courseName",
          "type": "string"
        },
        {
          "internalType": "string",
          "name": "description",
          "type": "string"
        },
        {
          "internalType": "bool",
          "name": "approved",
          "type": "bool"
        },
        {
          "internalType": "uint256",
          "name": "approvalCount",
          "type": "uint256"
        },
        {
          "internalType": "address",
          "name": "creator",
          "type": "address"
        }
      ],
      "stateMutability": "view",
      "type": "function"
    },
    {
      "inputs": [
        {
          "internalType": "uint256",
          "name": "",
          "type": "uint256"
        }
      ],
      "name": "listOfLessons",
      "outputs": [
        {
          "internalType": "uint256",
          "name": "lessonId",
          "type": "uint256"
        },
        {
          "internalType": "string",
          "name": "lessonName",
          "type": "string"
        },
        {
          "internalType": "string",
          "name": "lessonContent",
          "type": "string"
        },
        {
          "internalType": "uint256",
          "name": "resourceCount",
          "type": "uint256"
        }
      ],
      "stateMutability": "view",
      "type": "function"
    },
    {
      "inputs": [
        {
          "internalType": "uint256",
          "name": "",
          "type": "uint256"
        }
      ],
      "name": "listOfQuestions",
      "outputs": [
        {
          "internalType": "uint256",
          "name": "questionId",
          "type": "uint256"
        },
        {
          "internalType": "string",
          "name": "questionText",
          "type": "string"
        }
      ],
      "stateMutability": "view",
      "type": "function"
    },
    {
      "inputs": [
        {
          "internalType": "uint256",
          "name": "",
          "type": "uint256"
        }
      ],
      "name": "listOfQuizzes",
      "outputs": [
        {
          "internalType": "uint256",
          "name": "quizId",
          "type": "uint256"
        },
        {
          "internalType": "string",
          "name": "quizTitle",
          "type": "string"
        }
      ],
      "stateMutability": "view",
      "type": "function"
    },
    {
      "inputs": [
        {
          "internalType": "uint256",
          "name": "",
          "type": "uint256"
        }
      ],
      "name": "listOfResource",
      "outputs": [
        {
          "internalType": "string",
          "name": "contentType",
          "type": "string"
        },
        {
          "internalType": "string",
          "name": "url",
          "type": "string"
        },
        {
          "internalType": "string",
          "name": "description",
          "type": "string"
        }
      ],
      "stateMutability": "view",
      "type": "function"
    },
    {
      "inputs": [
        {
          "internalType": "uint256",
          "name": "_chapterId",
          "type": "uint256"
        },
        {
          "internalType": "uint256",
          "name": "_lessonId",
          "type": "uint256"
        }
      ],
      "name": "markAsRead",
      "outputs": [
        {
          "internalType": "bool",
          "name": "",
          "type": "bool"
        }
      ],
      "stateMutability": "nonpayable",
      "type": "function"
    },
    {
      "inputs": [
        {
          "internalType": "uint256",
          "name": "",
          "type": "uint256"
        }
      ],
      "name": "multiSigProposals",
      "outputs": [
        {
          "internalType": "uint256",
          "name": "id",
          "type": "uint256"
        },
        {
          "internalType": "address",
          "name": "proposer",
          "type": "address"
        },
        {
          "internalType": "address",
          "name": "targetContract",
          "type": "address"
        },
        {
          "internalType": "bytes",
          "name": "data",
          "type": "bytes"
        },
        {
          "internalType": "uint256",
          "name": "approvalCount",
          "type": "uint256"
        },
        {
          "internalType": "bool",
          "name": "executed",
          "type": "bool"
        }
      ],
      "stateMutability": "view",
      "type": "function"
    },
    {
      "inputs": [],
      "name": "name",
      "outputs": [
        {
          "internalType": "string",
          "name": "",
          "type": "string"
        }
      ],
      "stateMutability": "view",
      "type": "function"
    },
    {
      "inputs": [],
      "name": "nextChapterId",
      "outputs": [
        {
          "internalType": "uint256",
          "name": "",
          "type": "uint256"
        }
      ],
      "stateMutability": "view",
      "type": "function"
    },
    {
      "inputs": [],
      "name": "nextChoiceId",
      "outputs": [
        {
          "internalType": "uint256",
          "name": "",
          "type": "uint256"
        }
      ],
      "stateMutability": "view",
      "type": "function"
    },
    {
      "inputs": [],
      "name": "nextCourseId",
      "outputs": [
        {
          "internalType": "uint256",
          "name": "",
          "type": "uint256"
        }
      ],
      "stateMutability": "view",
      "type": "function"
    },
    {
      "inputs": [],
      "name": "nextCourseIdd",
      "outputs": [
        {
          "internalType": "uint256",
          "name": "",
          "type": "uint256"
        }
      ],
      "stateMutability": "view",
      "type": "function"
    },
    {
      "inputs": [],
      "name": "nextLessonId",
      "outputs": [
        {
          "internalType": "uint256",
          "name": "",
          "type": "uint256"
        }
      ],
      "stateMutability": "view",
      "type": "function"
    },
    {
      "inputs": [],
      "name": "nextQuestionId",
      "outputs": [
        {
          "internalType": "uint256",
          "name": "",
          "type": "uint256"
        }
      ],
      "stateMutability": "view",
      "type": "function"
    },
    {
      "inputs": [],
      "name": "nextQuizId",
      "outputs": [
        {
          "internalType": "uint256",
          "name": "",
          "type": "uint256"
        }
      ],
      "stateMutability": "view",
      "type": "function"
    },
    {
      "inputs": [
        {
          "internalType": "uint256",
          "name": "",
          "type": "uint256"
        }
      ],
      "name": "questions",
      "outputs": [
        {
          "internalType": "uint256",
          "name": "questionId",
          "type": "uint256"
        },
        {
          "internalType": "string",
          "name": "questionText",
          "type": "string"
        }
      ],
      "stateMutability": "view",
      "type": "function"
    },
    {
      "inputs": [
        {
          "internalType": "uint256",
          "name": "",
          "type": "uint256"
        }
      ],
      "name": "quizzes",
      "outputs": [
        {
          "internalType": "uint256",
          "name": "quizId",
          "type": "uint256"
        },
        {
          "internalType": "string",
          "name": "quizTitle",
          "type": "string"
        }
      ],
      "stateMutability": "view",
      "type": "function"
    },
    {
      "inputs": [
        {
          "internalType": "address",
          "name": "reviewer",
          "type": "address"
        }
      ],
      "name": "removeReviewer",
      "outputs": [],
      "stateMutability": "nonpayable",
      "type": "function"
    },
    {
      "inputs": [
        {
          "internalType": "bytes32",
          "name": "role",
          "type": "bytes32"
        },
        {
          "internalType": "address",
          "name": "callerConfirmation",
          "type": "address"
        }
      ],
      "name": "renounceRole",
      "outputs": [],
      "stateMutability": "nonpayable",
      "type": "function"
    },
    {
      "inputs": [
        {
          "internalType": "uint256",
          "name": "",
          "type": "uint256"
        }
      ],
      "name": "reviewerPool",
      "outputs": [
        {
          "internalType": "address",
          "name": "",
          "type": "address"
        }
      ],
      "stateMutability": "view",
      "type": "function"
    },
    {
      "inputs": [
        {
          "internalType": "uint256",
          "name": "",
          "type": "uint256"
        },
        {
          "internalType": "address",
          "name": "",
          "type": "address"
        }
      ],
      "name": "reviews",
      "outputs": [
        {
          "internalType": "uint256",
          "name": "learnerAgency",
          "type": "uint256"
        },
        {
          "internalType": "uint256",
          "name": "criticalThinking",
          "type": "uint256"
        },
        {
          "internalType": "uint256",
          "name": "collaborativeLearning",
          "type": "uint256"
        },
        {
          "internalType": "uint256",
          "name": "reflectivePractice",
          "type": "uint256"
        },
        {
          "internalType": "uint256",
          "name": "adaptiveLearning",
          "type": "uint256"
        },
        {
          "internalType": "uint256",
          "name": "authenticLearning",
          "type": "uint256"
        },
        {
          "internalType": "uint256",
          "name": "technologyIntegration",
          "type": "uint256"
        },
        {
          "internalType": "uint256",
          "name": "learnerSupport",
          "type": "uint256"
        },
        {
          "internalType": "uint256",
          "name": "assessmentForLearning",
          "type": "uint256"
        },
        {
          "internalType": "uint256",
          "name": "engagementAndMotivation",
          "type": "uint256"
        },
        {
          "internalType": "bool",
          "name": "isSubmitted",
          "type": "bool"
        }
      ],
      "stateMutability": "view",
      "type": "function"
    },
    {
      "inputs": [
        {
          "internalType": "bytes32",
          "name": "role",
          "type": "bytes32"
        },
        {
          "internalType": "address",
          "name": "account",
          "type": "address"
        }
      ],
      "name": "revokeRole",
      "outputs": [],
      "stateMutability": "nonpayable",
      "type": "function"
    },
    {
      "inputs": [
        {
          "internalType": "uint256",
          "name": "courseId",
          "type": "uint256"
        }
      ],
      "name": "selectCourseReviewers",
      "outputs": [],
      "stateMutability": "nonpayable",
      "type": "function"
    },
    {
      "inputs": [
        {
          "internalType": "uint256",
          "name": "_quizId",
          "type": "uint256"
        },
        {
          "internalType": "uint256[]",
          "name": "_answers",
          "type": "uint256[]"
        }
      ],
      "name": "submitQuiz",
      "outputs": [
        {
          "internalType": "uint256",
          "name": "score",
          "type": "uint256"
        }
      ],
      "stateMutability": "nonpayable",
      "type": "function"
    },
    {
      "inputs": [
        {
          "internalType": "uint256",
          "name": "courseId",
          "type": "uint256"
        },
        {
          "internalType": "uint256",
          "name": "learnerAgency",
          "type": "uint256"
        },
        {
          "internalType": "uint256",
          "name": "criticalThinking",
          "type": "uint256"
        },
        {
          "internalType": "uint256",
          "name": "collaborativeLearning",
          "type": "uint256"
        },
        {
          "internalType": "uint256",
          "name": "reflectivePractice",
          "type": "uint256"
        },
        {
          "internalType": "uint256",
          "name": "adaptiveLearning",
          "type": "uint256"
        },
        {
          "internalType": "uint256",
          "name": "authenticLearning",
          "type": "uint256"
        },
        {
          "internalType": "uint256",
          "name": "technologyIntegration",
          "type": "uint256"
        },
        {
          "internalType": "uint256",
          "name": "learnerSupport",
          "type": "uint256"
        },
        {
          "internalType": "uint256",
          "name": "assessmentForLearning",
          "type": "uint256"
        },
        {
          "internalType": "uint256",
          "name": "engagementAndMotivation",
          "type": "uint256"
        }
      ],
      "name": "submitReview",
      "outputs": [],
      "stateMutability": "nonpayable",
      "type": "function"
    },
    {
      "inputs": [
        {
          "internalType": "bytes4",
          "name": "interfaceId",
          "type": "bytes4"
        }
      ],
      "name": "supportsInterface",
      "outputs": [
        {
          "internalType": "bool",
          "name": "",
          "type": "bool"
        }
      ],
      "stateMutability": "view",
      "type": "function"
    },
    {
      "inputs": [],
      "name": "symbol",
      "outputs": [
        {
          "internalType": "string",
          "name": "",
          "type": "string"
        }
      ],
      "stateMutability": "view",
      "type": "function"
    },
    {
      "inputs": [],
      "name": "totalSupply",
      "outputs": [
        {
          "internalType": "uint256",
          "name": "",
          "type": "uint256"
        }
      ],
      "stateMutability": "view",
      "type": "function"
    },
    {
      "inputs": [
        {
          "internalType": "address",
          "name": "to",
          "type": "address"
        },
        {
          "internalType": "uint256",
          "name": "value",
          "type": "uint256"
        }
      ],
      "name": "transfer",
      "outputs": [
        {
          "internalType": "bool",
          "name": "",
          "type": "bool"
        }
      ],
      "stateMutability": "nonpayable",
      "type": "function"
    },
    {
      "inputs": [
        {
          "internalType": "address",
          "name": "from",
          "type": "address"
        },
        {
          "internalType": "address",
          "name": "to",
          "type": "address"
        },
        {
          "internalType": "uint256",
          "name": "value",
          "type": "uint256"
        }
      ],
      "name": "transferFrom",
      "outputs": [
        {
          "internalType": "bool",
          "name": "",
          "type": "bool"
        }
      ],
      "stateMutability": "nonpayable",
      "type": "function"
    },
    {
      "inputs": [
        {
          "internalType": "address",
          "name": "",
          "type": "address"
        },
        {
          "internalType": "uint256",
          "name": "",
          "type": "uint256"
        }
      ],
      "name": "userScores",
      "outputs": [
        {
          "internalType": "uint256",
          "name": "",
          "type": "uint256"
        }
      ],
      "stateMutability": "view",
      "type": "function"
    }
  ],
  "bytecode": "0x608060405234801561001057600080fd5b5060405161a4a538038061a4a58339818101604052810190610032919061063b565b80806040518060400160405280600a81526020017f4142594120544f4b454e000000000000000000000000000000000000000000008152506040518060400160405280600681526020017f414259544b4e000000000000000000000000000000000000000000000000000081525081600390816100af91906108a5565b5080600490816100bf91906108a5565b505050600481511015610107576040517f08c379a00000000000000000000000000000000000000000000000000000000081526004016100fe906109fa565b60405180910390fd5b61011a6000801b336102c060201b60201c565b5061014b7fdf1425bae297c2f52b4f15d18a50b1fc8cb5b981a981b1d213ed3ff92681b64d336102c060201b60201c565b5060005b815181101561029f576101a27fc10c77be35aff266144ed64c26a1fa104bae2f284ae99ac4a34203454704a18583838151811061018f5761018e610a1a565b5b60200260200101516102c060201b60201c565b5060068282815181106101b8576101b7610a1a565b5b60200260200101519080600181540180825580915050600190039060005260206000200160009091909190916101000a81548173ffffffffffffffffffffffffffffffffffffffff021916908373ffffffffffffffffffffffffffffffffffffffff16021790555060016008600084848151811061023957610238610a1a565b5b602002602001015173ffffffffffffffffffffffffffffffffffffffff1673ffffffffffffffffffffffffffffffffffffffff16815260200190815260200160002060006101000a81548160ff021916908315150217905550808060010191505061014f565b50506001600a819055506102b9600b6103be60201b60201c565b5050610a49565b60006102d283836103fd60201b60201c565b6103b35760016005600085815260200190815260200160002060000160008473ffffffffffffffffffffffffffffffffffffffff1673ffffffffffffffffffffffffffffffffffffffff16815260200190815260200160002060006101000a81548160ff02191690831515021790555061035061046860201b60201c565b73ffffffffffffffffffffffffffffffffffffffff168273ffffffffffffffffffffffffffffffffffffffff16847f2f8788117e7eff1d82e926ec794901d17c78024a50270940304540a733656f0d60405160405180910390a4600190506103b8565b600090505b92915050565b60018160000181905550600181600101819055506001816002018190555060018160030181905550600181600401819055506001816005018190555050565b60006005600084815260200190815260200160002060000160008373ffffffffffffffffffffffffffffffffffffffff1673ffffffffffffffffffffffffffffffffffffffff16815260200190815260200160002060009054906101000a900460ff16905092915050565b600033905090565b6000604051905090565b600080fd5b600080fd5b600080fd5b6000601f19601f8301169050919050565b7f4e487b7100000000000000000000000000000000000000000000000000000000600052604160045260246000fd5b6104d282610489565b810181811067ffffffffffffffff821117156104f1576104f061049a565b5b80604052505050565b6000610504610470565b905061051082826104c9565b919050565b600067ffffffffffffffff8211156105305761052f61049a565b5b602082029050602081019050919050565b600080fd5b600073ffffffffffffffffffffffffffffffffffffffff82169050919050565b600061057182610546565b9050919050565b61058181610566565b811461058c57600080fd5b50565b60008151905061059e81610578565b92915050565b60006105b76105b284610515565b6104fa565b905080838252602082019050602084028301858111156105da576105d9610541565b5b835b8181101561060357806105ef888261058f565b8452602084019350506020810190506105dc565b5050509392505050565b600082601f83011261062257610621610484565b5b81516106328482602086016105a4565b91505092915050565b6000602082840312156106515761065061047a565b5b600082015167ffffffffffffffff81111561066f5761066e61047f565b5b61067b8482850161060d565b91505092915050565b600081519050919050565b7f4e487b7100000000000000000000000000000000000000000000000000000000600052602260045260246000fd5b600060028204905060018216806106d657607f821691505b6020821081036106e9576106e861068f565b5b50919050565b60008190508160005260206000209050919050565b60006020601f8301049050919050565b600082821b905092915050565b6000600883026107517fffffffffffffffffffffffffffffffffffffffffffffffffffffffffffffffff82610714565b61075b8683610714565b95508019841693508086168417925050509392505050565b6000819050919050565b6000819050919050565b60006107a261079d61079884610773565b61077d565b610773565b9050919050565b6000819050919050565b6107bc83610787565b6107d06107c8826107a9565b848454610721565b825550505050565b600090565b6107e56107d8565b6107f08184846107b3565b505050565b5b81811015610814576108096000826107dd565b6001810190506107f6565b5050565b601f8211156108595761082a816106ef565b61083384610704565b81016020851015610842578190505b61085661084e85610704565b8301826107f5565b50505b505050565b600082821c905092915050565b600061087c6000198460080261085e565b1980831691505092915050565b6000610895838361086b565b9150826002028217905092915050565b6108ae82610684565b67ffffffffffffffff8111156108c7576108c661049a565b5b6108d182546106be565b6108dc828285610818565b600060209050601f83116001811461090f57600084156108fd578287015190505b6109078582610889565b86555061096f565b601f19841661091d866106ef565b60005b8281101561094557848901518255600182019150602085019450602081019050610920565b86831015610962578489015161095e601f89168261086b565b8355505b6001600288020188555050505b505050505050565b600082825260208201905092915050565b7f4174206c6561737420342072657669657765727320617265207265717569726560008201527f6400000000000000000000000000000000000000000000000000000000000000602082015250565b60006109e4602183610977565b91506109ef82610988565b604082019050919050565b60006020820190508181036000830152610a13816109d7565b9050919050565b7f4e487b7100000000000000000000000000000000000000000000000000000000600052603260045260246000fd5b619a4d80610a586000396000f3fe608060405234801561001057600080fd5b50600436106104cd5760003560e01c806373a82b5f11610283578063bfd2f4c51161015c578063dd62ed3e116100ce578063e503f10811610092578063e503f10814611198578063e8639751146111b6578063ea0978ad146111e6578063eb264b9c14611216578063fdc6258a14611234578063ffabc67314611264576104cd565b8063dd62ed3e146110b8578063ddfc79fb146110e8578063de5dc3a01461111a578063ded5c18d1461114a578063e09bcae314611168576104cd565b8063c90c884d11610120578063c90c884d14610fd0578063c9442dac14611002578063c97683151461101e578063cc44e7371461104e578063d547741f1461107e578063d93f2caa1461109a576104cd565b8063bfd2f4c514610ee5578063c12804fb14610f18578063c293bbbe14610f52578063c491b04c14610f82578063c7954e4c14610fb2576104cd565b80639dad8d22116101f5578063a26a7953116101b9578063a26a795314610de9578063a3ef204114610e19578063a9059cbb14610e4b578063aa95da3a14610e7b578063ac957c6314610eab578063bad0dd6514610ec9576104cd565b80639dad8d2214610d1d578063a1051dfe14610d4d578063a14ecbdf14610d7d578063a1cd05b114610d9b578063a217fddf14610dcb576104cd565b806388409afa1161024757806388409afa14610c3457806388a8270f14610c655780638ea6e2fd14610c9557806391d1485414610cb15780639560bc8514610ce157806395d89b4114610cff576104cd565b806373a82b5f14610ba25780637528499814610bbe5780637ce1785214610bda5780637d83daf214610bf8578063846f815214610c16576104cd565b806332cb6b0c116103b557806351d93c81116103275780635cc2a14d116102eb5780635cc2a14d14610a9b5780636605515914610acb578063663b3e2214610ae95780636b000fa714610b1f5780636fdb67f714610b3d57806370a0823114610b72576104cd565b806351d93c81146109e257806352994e2f14610a1357806358a3fa2514610a31578063599c553314610a4d5780635b680a4514610a6b576104cd565b80633693dcfa116103795780633693dcfa146108de5780633b129a56146108fc57806340932bf81461091a5780634d42ef481461094f5780634dd84b3c146109815780634fb95abd146109b1576104cd565b806332cb6b0c1461082857806334b159dd1461084657806334ed4bdb1461087657806334f9b3fb146108a657806336568abe146108c2576104cd565b8063248a9ca31161044e57806329a0be651161041257806329a0be651461073c5780632aac61ae1461075a5780632ec63a0e1461078d5780632f2ff15d146107bd578063313ce567146107d957806331b1b978146107f7576104cd565b8063248a9ca31461066a578063274202f01461069a57806327ff6223146106b8578063295b825a146106d65780632990db7c14610707576104cd565b806311ce15df1161049557806311ce15df1461058c57806313e85811146105bc57806318160ddd146105ec57806319f102ec1461060a57806323b872dd1461063a576104cd565b806301ffc9a7146104d257806304e48bd114610502578063057f46bb1461052057806306fdde031461053e578063095ea7b31461055c575b600080fd5b6104ec60048036038101906104e79190616e41565b611294565b6040516104f99190616e89565b60405180910390f35b61050a61130e565b60405161051791906170ef565b60405180910390f35b610528611610565b6040516105359190617120565b60405180910390f35b610546611616565b6040516105539190617185565b60405180910390f35b610576600480360381019061057191906171ff565b6116a8565b6040516105839190616e89565b60405180910390f35b6105a660048036038101906105a1919061723f565b6116cb565b6040516105b39190616e89565b60405180910390f35b6105d660048036038101906105d1919061726c565b6116eb565b6040516105e39190616e89565b60405180910390f35b6105f461171a565b6040516106019190617120565b60405180910390f35b610624600480360381019061061f919061723f565b611724565b60405161063191906172bb565b60405180910390f35b610654600480360381019061064f91906172d6565b611763565b6040516106619190616e89565b60405180910390f35b610684600480360381019061067f919061735f565b611792565b604051610691919061739b565b60405180910390f35b6106a26117b2565b6040516106af9190617120565b60405180910390f35b6106c06117da565b6040516106cd9190617120565b60405180910390f35b6106f060048036038101906106eb919061723f565b6117df565b6040516106fe9291906173b6565b60405180910390f35b610721600480360381019061071c919061723f565b61189b565b604051610733969594939291906173e6565b60405180910390f35b610744611a14565b6040516107519190617120565b60405180910390f35b610774600480360381019061076f919061723f565b611a1a565b6040516107849493929190617455565b60405180910390f35b6107a760048036038101906107a291906174a8565b611b6a565b6040516107b49190616e89565b60405180910390f35b6107d760048036038101906107d291906174e8565b611d0f565b005b6107e1611d31565b6040516107ee9190617544565b60405180910390f35b610811600480360381019061080c919061723f565b611d3a565b60405161081f9291906173b6565b60405180910390f35b610830611de6565b60405161083d9190617120565b60405180910390f35b610860600480360381019061085b919061726c565b611df6565b60405161086d9190616e89565b60405180910390f35b610890600480360381019061088b919061755f565b611e25565b60405161089d9190617120565b60405180910390f35b6108c060048036038101906108bb91906176c1565b611e43565b005b6108dc60048036038101906108d791906174e8565b611f81565b005b6108e6611ffc565b6040516108f3919061739b565b60405180910390f35b610904612020565b604051610911919061739b565b60405180910390f35b610934600480360381019061092f919061723f565b612044565b60405161094696959493929190617785565b60405180910390f35b610969600480360381019061096491906174a8565b612155565b604051610978939291906177ed565b60405180910390f35b61099b6004803603810190610996919061726c565b612231565b6040516109a89190616e89565b60405180910390f35b6109cb60048036038101906109c6919061782b565b612260565b6040516109d99291906179a4565b60405180910390f35b6109fc60048036038101906109f7919061723f565b6125b3565b604051610a0a9291906173b6565b60405180910390f35b610a1b61266f565b604051610a28919061739b565b60405180910390f35b610a4b6004803603810190610a4691906179d4565b612693565b005b610a55612959565b604051610a629190617120565b60405180910390f35b610a856004803603810190610a8091906171ff565b61295e565b604051610a929190617120565b60405180910390f35b610ab56004803603810190610ab09190617ac8565b612983565b604051610ac29190616e89565b60405180910390f35b610ad3612a6f565b604051610ae09190617120565b60405180910390f35b610b036004803603810190610afe919061723f565b612a75565b604051610b169796959493929190617b24565b60405180910390f35b610b27612c6f565b604051610b349190617120565b60405180910390f35b610b576004803603810190610b52919061723f565b612c75565b604051610b69969594939291906173e6565b60405180910390f35b610b8c6004803603810190610b87919061755f565b612dfe565b604051610b999190617120565b60405180910390f35b610bbc6004803603810190610bb7919061755f565b612e46565b005b610bd86004803603810190610bd3919061723f565b61302a565b005b610be2613244565b604051610bef9190617120565b60405180910390f35b610c00613250565b604051610c0d9190617120565b60405180910390f35b610c1e613256565b604051610c2b9190617120565b60405180910390f35b610c4e6004803603810190610c49919061723f565b613262565b604051610c5c9291906173b6565b60405180910390f35b610c7f6004803603810190610c7a91906174a8565b61330e565b604051610c8c9190616e89565b60405180910390f35b610caf6004803603810190610caa919061723f565b61358f565b005b610ccb6004803603810190610cc691906174e8565b6138f9565b604051610cd89190616e89565b60405180910390f35b610ce9613964565b604051610cf69190617120565b60405180910390f35b610d07613970565b604051610d149190617185565b60405180910390f35b610d376004803603810190610d32919061723f565b613a02565b604051610d449190616e89565b60405180910390f35b610d676004803603810190610d6291906174a8565b613d5a565b604051610d749190616e89565b60405180910390f35b610d85614020565b604051610d929190617120565b60405180910390f35b610db56004803603810190610db091906174a8565b614026565b604051610dc291906172bb565b60405180910390f35b610dd3614074565b604051610de0919061739b565b60405180910390f35b610e036004803603810190610dfe9190617ba8565b61407b565b604051610e109190616e89565b60405180910390f35b610e336004803603810190610e2e919061723f565b614452565b604051610e42939291906177ed565b60405180910390f35b610e656004803603810190610e6091906171ff565b614511565b604051610e729190616e89565b60405180910390f35b610e956004803603810190610e9091906174a8565b614534565b604051610ea29190617185565b60405180910390f35b610eb36145ec565b604051610ec09190617120565b60405180910390f35b610ee36004803603810190610ede919061723f565b6145f1565b005b610eff6004803603810190610efa919061723f565b6148f0565b604051610f0f9493929190617455565b60405180910390f35b610f326004803603810190610f2d919061726c565b614a30565b604051610f499b9a99989796959493929190617c20565b60405180910390f35b610f6c6004803603810190610f67919061723f565b614aa4565b604051610f799190617d7a565b60405180910390f35b610f9c6004803603810190610f97919061755f565b614b45565b604051610fa99190616e89565b60405180910390f35b610fba614b65565b604051610fc79190617120565b60405180910390f35b610fea6004803603810190610fe5919061723f565b614b6f565b604051610ff9939291906177ed565b60405180910390f35b61101c6004803603810190611017919061755f565b614c3e565b005b6110386004803603810190611033919061726c565b614f28565b6040516110459190616e89565b60405180910390f35b61106860048036038101906110639190617f44565b614f57565b6040516110759190616e89565b60405180910390f35b611098600480360381019061109391906174e8565b61517b565b005b6110a261519d565b6040516110af9190617120565b60405180910390f35b6110d260048036038101906110cd9190617fff565b6151a9565b6040516110df9190617120565b60405180910390f35b61110260048036038101906110fd919061723f565b615230565b6040516111119392919061803f565b60405180910390f35b611134600480360381019061112f919061814e565b615402565b6040516111419190617120565b60405180910390f35b6111526156ac565b60405161115f9190617120565b60405180910390f35b611182600480360381019061117d91906174a8565b6156b9565b60405161118f9190616e89565b60405180910390f35b6111a0615979565b6040516111ad9190617120565b60405180910390f35b6111d060048036038101906111cb91906176c1565b61597f565b6040516111dd9190616e89565b60405180910390f35b61120060048036038101906111fb91906174a8565b615a6d565b60405161120d9190616e89565b60405180910390f35b61121e615ce4565b60405161122b9190617120565b60405180910390f35b61124e6004803603810190611249919061755f565b615cea565b60405161125b9190616e89565b60405180910390f35b61127e600480360381019061127991906171ff565b615d1d565b60405161128b9190616e89565b60405180910390f35b60007f7965db0b000000000000000000000000000000000000000000000000000000007bffffffffffffffffffffffffffffffffffffffffffffffffffffffff1916827bffffffffffffffffffffffffffffffffffffffffffffffffffffffff19161480611307575061130682615d4c565b5b9050919050565b6060600060268054905067ffffffffffffffff81111561133157611330617596565b5b60405190808252806020026020018201604052801561136a57816020015b6113576169ed565b81526020019060019003908161134f5790505b50905060005b602680549050811015611608576040518060c001604052806026838154811061139c5761139b6181aa565b5b9060005260206000209060060201600001548152602001602683815481106113c7576113c66181aa565b5b906000526020600020906006020160010180546113e390618208565b80601f016020809104026020016040519081016040528092919081815260200182805461140f90618208565b801561145c5780601f106114315761010080835404028352916020019161145c565b820191906000526020600020905b81548152906001019060200180831161143f57829003601f168201915b505050505081526020016026838154811061147a576114796181aa565b5b9060005260206000209060060201600201805461149690618208565b80601f01602080910402602001604051908101604052809291908181526020018280546114c290618208565b801561150f5780601f106114e45761010080835404028352916020019161150f565b820191906000526020600020905b8154815290600101906020018083116114f257829003601f168201915b505050505081526020016026838154811061152d5761152c6181aa565b5b906000526020600020906006020160030160009054906101000a900460ff161515815260200160268381548110611567576115666181aa565b5b906000526020600020906006020160040154815260200160268381548110611592576115916181aa565b5b906000526020600020906006020160050160009054906101000a900473ffffffffffffffffffffffffffffffffffffffff1673ffffffffffffffffffffffffffffffffffffffff168152508282815181106115f0576115ef6181aa565b5b60200260200101819052508080600101915050611370565b508091505090565b60145481565b60606003805461162590618208565b80601f016020809104026020016040519081016040528092919081815260200182805461165190618208565b801561169e5780601f106116735761010080835404028352916020019161169e565b820191906000526020600020905b81548152906001019060200180831161168157829003601f168201915b5050505050905090565b6000806116b3615db6565b90506116c0818585615dbe565b600191505092915050565b60246020528060005260406000206000915054906101000a900460ff1681565b602d6020528160005260406000206020528060005260406000206000915091509054906101000a900460ff1681565b6000600254905090565b6006818154811061173457600080fd5b906000526020600020016000915054906101000a900473ffffffffffffffffffffffffffffffffffffffff1681565b60008061176e615db6565b905061177b858285615dd0565b611786858585615e64565b60019150509392505050565b600060056000838152602001908152602001600020600101549050919050565b6064600f6b204fce5e3e250261100000006117cd9190618268565b6117d791906182d9565b81565b606481565b602a81815481106117ef57600080fd5b906000526020600020906003020160009150905080600001549080600101805461181890618208565b80601f016020809104026020016040519081016040528092919081815260200182805461184490618208565b80156118915780601f1061186657610100808354040283529160200191611891565b820191906000526020600020905b81548152906001019060200180831161187457829003601f168201915b5050505050905082565b60196020528060005260406000206000915090508060000154908060010180546118c490618208565b80601f01602080910402602001604051908101604052809291908181526020018280546118f090618208565b801561193d5780601f106119125761010080835404028352916020019161193d565b820191906000526020600020905b81548152906001019060200180831161192057829003601f168201915b50505050509080600201805461195290618208565b80601f016020809104026020016040519081016040528092919081815260200182805461197e90618208565b80156119cb5780601f106119a0576101008083540402835291602001916119cb565b820191906000526020600020905b8154815290600101906020018083116119ae57829003601f168201915b5050505050908060030160009054906101000a900460ff16908060040154908060050160009054906101000a900473ffffffffffffffffffffffffffffffffffffffff16905086565b60155481565b60288181548110611a2a57600080fd5b9060005260206000209060220201600091509050806000015490806001018054611a5390618208565b80601f0160208091040260200160405190810160405280929190818152602001828054611a7f90618208565b8015611acc5780601f10611aa157610100808354040283529160200191611acc565b820191906000526020600020905b815481529060010190602001808311611aaf57829003601f168201915b505050505090806002018054611ae190618208565b80601f0160208091040260200160405190810160405280929190818152602001828054611b0d90618208565b8015611b5a5780601f10611b2f57610100808354040283529160200191611b5a565b820191906000526020600020905b815481529060010190602001808311611b3d57829003601f168201915b5050505050908060210154905084565b6000602d600083815260200190815260200160002060003373ffffffffffffffffffffffffffffffffffffffff1673ffffffffffffffffffffffffffffffffffffffff16815260200190815260200160002060009054906101000a900460ff1615611c0a576040517f08c379a0000000000000000000000000000000000000000000000000000000008152600401611c019061837c565b60405180910390fd5b6000601f60008481526020019081526020016000206000015403611c63576040517f08c379a0000000000000000000000000000000000000000000000000000000008152600401611c5a906183e8565b60405180910390fd5b6001602d600084815260200190815260200160002060003373ffffffffffffffffffffffffffffffffffffffff1673ffffffffffffffffffffffffffffffffffffffff16815260200190815260200160002060006101000a81548160ff02191690831515021790555081837f2479aa0d18311382446edb0fa11d0dbd5bab1be78b1e60b343ffe4d2a5f798ad33604051611cfd91906172bb565b60405180910390a36001905092915050565b611d1882611792565b611d2181615f58565b611d2b8383615f6c565b50505050565b60006012905090565b6022602052806000526040600020600091509050806000015490806001018054611d6390618208565b80601f0160208091040260200160405190810160405280929190818152602001828054611d8f90618208565b8015611ddc5780601f10611db157610100808354040283529160200191611ddc565b820191906000526020600020905b815481529060010190602001808311611dbf57829003601f168201915b5050505050905082565b6b204fce5e3e2502611000000081565b602f6020528160005260406000206020528060005260406000206000915091509054906101000a900460ff1681565b601b6020528060005260406000206000915090508060000154905081565b7fadb22091b155738d2e889eb96f509d2a7c93234236b30400927feb4a6a15ab00611e6d81615f58565b6000602160008581526020019081526020016000206000015403611ec6576040517f08c379a0000000000000000000000000000000000000000000000000000000008152600401611ebd90618454565b60405180910390fd5b82602160008581526020019081526020016000206000015414611f1e576040517f08c379a0000000000000000000000000000000000000000000000000000000008152600401611f15906184c0565b60405180910390fd5b81602160008581526020019081526020016000206001019081611f41919061868c565b5082847fad5fab99ac4d99e1061fd121b36537d5213be564a3dc6cc383897dc355e89ff584604051611f739190617185565b60405180910390a350505050565b611f89615db6565b73ffffffffffffffffffffffffffffffffffffffff168173ffffffffffffffffffffffffffffffffffffffff1614611fed576040517f6697b23200000000000000000000000000000000000000000000000000000000815260040160405180910390fd5b611ff7828261605e565b505050565b7fadb22091b155738d2e889eb96f509d2a7c93234236b30400927feb4a6a15ab0081565b7fc10c77be35aff266144ed64c26a1fa104bae2f284ae99ac4a34203454704a18581565b60096020528060005260406000206000915090508060000154908060010160009054906101000a900473ffffffffffffffffffffffffffffffffffffffff16908060020160009054906101000a900473ffffffffffffffffffffffffffffffffffffffff16908060030180546120b990618208565b80601f01602080910402602001604051908101604052809291908181526020018280546120e590618208565b80156121325780601f1061210757610100808354040283529160200191612132565b820191906000526020600020905b81548152906001019060200180831161211557829003601f168201915b5050505050908060040154908060050160009054906101000a900460ff16905086565b601e602052816000526040600020818154811061217157600080fd5b90600052602060002090600302016000915091505080600001549080600101805461219b90618208565b80601f01602080910402602001604051908101604052809291908181526020018280546121c790618208565b80156122145780601f106121e957610100808354040283529160200191612214565b820191906000526020600020905b8154815290600101906020018083116121f757829003601f168201915b5050505050908060020160009054906101000a900460ff16905083565b602c6020528160005260406000206020528060005260406000206000915091509054906101000a900460ff1681565b600061226a616a3b565b6025600088815260200190815260200160002060003373ffffffffffffffffffffffffffffffffffffffff1673ffffffffffffffffffffffffffffffffffffffff16815260200190815260200160002060009054906101000a900460ff16612307576040517f08c379a00000000000000000000000000000000000000000000000000000000081526004016122fe906187d0565b60405180910390fd5b602c600088815260200190815260200160002060003373ffffffffffffffffffffffffffffffffffffffff1673ffffffffffffffffffffffffffffffffffffffff16815260200190815260200160002060009054906101000a900460ff16156123a5576040517f08c379a000000000000000000000000000000000000000000000000000000000815260040161239c90618862565b60405180910390fd5b6001602c600089815260200190815260200160002060003373ffffffffffffffffffffffffffffffffffffffff1673ffffffffffffffffffffffffffffffffffffffff16815260200190815260200160002060006101000a81548160ff02191690831515021790555061242033671bc16d674ec80000616151565b50600087878787874260405160200161243e969594939291906188df565b6040516020818303038152906040528051906020012060001c905060006040518060e001604052808381526020018a81526020018981526020018781526020018681526020018881526020013373ffffffffffffffffffffffffffffffffffffffff1681525090508060306000848152602001908152602001600020600082015181600001556020820151816001015560408201518160020190816124e3919061868c565b5060608201518160030190816124f9919061868c565b506080820151816004015560a0820151816005019081612519919061868c565b5060c08201518160060160006101000a81548173ffffffffffffffffffffffffffffffffffffffff021916908373ffffffffffffffffffffffffffffffffffffffff1602179055509050507f95ad50d6596337460bdce4b8db70313463e0615be9266b573e781327aef44e098288888b6040516125999493929190618943565b60405180910390a181819350935050509550959350505050565b602b81815481106125c357600080fd5b90600052602060002090600302016000915090508060000154908060010180546125ec90618208565b80601f016020809104026020016040519081016040528092919081815260200182805461261890618208565b80156126655780601f1061263a57610100808354040283529160200191612665565b820191906000526020600020905b81548152906001019060200180831161264857829003601f168201915b5050505050905082565b7fdf1425bae297c2f52b4f15d18a50b1fc8cb5b981a981b1d213ed3ff92681b64d81565b7fc10c77be35aff266144ed64c26a1fa104bae2f284ae99ac4a34203454704a1856126bd81615f58565b6126c78c3361623e565b612706576040517f08c379a00000000000000000000000000000000000000000000000000000000081526004016126fd90618a0f565b60405180910390fd5b601a60008d815260200190815260200160002060003373ffffffffffffffffffffffffffffffffffffffff1673ffffffffffffffffffffffffffffffffffffffff168152602001908152602001600020600a0160009054906101000a900460ff16156127a7576040517f08c379a000000000000000000000000000000000000000000000000000000000815260040161279e90618aa1565b60405180910390fd5b6127b98b8b8b8b8b8b8b8b8b8b616309565b6040518061016001604052808c81526020018b81526020018a815260200189815260200188815260200187815260200186815260200185815260200184815260200183815260200160011515815250601a60008e815260200190815260200160002060003373ffffffffffffffffffffffffffffffffffffffff1673ffffffffffffffffffffffffffffffffffffffff168152602001908152602001600020600082015181600001556020820151816001015560408201518160020155606082015181600301556080820151816004015560a0820151816005015560c0820151816006015560e082015181600701556101008201518160080155610120820151816009015561014082015181600a0160006101000a81548160ff021916908315150217905550905050605061293c601a60008f815260200190815260200160002060003373ffffffffffffffffffffffffffffffffffffffff1673ffffffffffffffffffffffffffffffffffffffff1681526020019081526020016000206163ce565b1061294b5761294a8c61302a565b5b505050505050505050505050565b600281565b602e602052816000526040600020602052806000526040600020600091509150505481565b60007fadb22091b155738d2e889eb96f509d2a7c93234236b30400927feb4a6a15ab006129af81615f58565b6000601960008681526020019081526020016000206000015403612a08576040517f08c379a00000000000000000000000000000000000000000000000000000000081526004016129ff90618b0d565b60405180910390fd5b82601960008681526020019081526020016000206001019081612a2b919061868c565b50837f5c8c98b6b26236296c856fae8a5ca0c793bbb81c5f8b7c9a9ab99358f53fb0c084604051612a5c9190617185565b60405180910390a2600191505092915050565b60125481565b6030602052806000526040600020600091509050806000015490806001015490806002018054612aa490618208565b80601f0160208091040260200160405190810160405280929190818152602001828054612ad090618208565b8015612b1d5780601f10612af257610100808354040283529160200191612b1d565b820191906000526020600020905b815481529060010190602001808311612b0057829003601f168201915b505050505090806003018054612b3290618208565b80601f0160208091040260200160405190810160405280929190818152602001828054612b5e90618208565b8015612bab5780601f10612b8057610100808354040283529160200191612bab565b820191906000526020600020905b815481529060010190602001808311612b8e57829003601f168201915b505050505090806004015490806005018054612bc690618208565b80601f0160208091040260200160405190810160405280929190818152602001828054612bf290618208565b8015612c3f5780601f10612c1457610100808354040283529160200191612c3f565b820191906000526020600020905b815481529060010190602001808311612c2257829003601f168201915b5050505050908060060160009054906101000a900473ffffffffffffffffffffffffffffffffffffffff16905087565b60185481565b60268181548110612c8557600080fd5b9060005260206000209060060201600091509050806000015490806001018054612cae90618208565b80601f0160208091040260200160405190810160405280929190818152602001828054612cda90618208565b8015612d275780601f10612cfc57610100808354040283529160200191612d27565b820191906000526020600020905b815481529060010190602001808311612d0a57829003601f168201915b505050505090806002018054612d3c90618208565b80601f0160208091040260200160405190810160405280929190818152602001828054612d6890618208565b8015612db55780601f10612d8a57610100808354040283529160200191612db5565b820191906000526020600020905b815481529060010190602001808311612d9857829003601f168201915b5050505050908060030160009054906101000a900460ff16908060040154908060050160009054906101000a900473ffffffffffffffffffffffffffffffffffffffff16905086565b60008060008373ffffffffffffffffffffffffffffffffffffffff1673ffffffffffffffffffffffffffffffffffffffff168152602001908152602001600020549050919050565b7fc10c77be35aff266144ed64c26a1fa104bae2f284ae99ac4a34203454704a185612e7081615f58565b600860008373ffffffffffffffffffffffffffffffffffffffff1673ffffffffffffffffffffffffffffffffffffffff16815260200190815260200160002060009054906101000a900460ff1615612efd576040517f08c379a0000000000000000000000000000000000000000000000000000000008152600401612ef490618b79565b60405180910390fd5b612f277fc10c77be35aff266144ed64c26a1fa104bae2f284ae99ac4a34203454704a18583615f6c565b506006829080600181540180825580915050600190039060005260206000200160009091909190916101000a81548173ffffffffffffffffffffffffffffffffffffffff021916908373ffffffffffffffffffffffffffffffffffffffff1602179055506001600860008473ffffffffffffffffffffffffffffffffffffffff1673ffffffffffffffffffffffffffffffffffffffff16815260200190815260200160002060006101000a81548160ff0219169083151502179055508173ffffffffffffffffffffffffffffffffffffffff167fe1cb5e1230cc02e62c60b81c1aa5ade512f3eac296edb28628b4cf344f47f93160405160405180910390a25050565b7fc10c77be35aff266144ed64c26a1fa104bae2f284ae99ac4a34203454704a18561305481615f58565b60006019600084815260200190815260200160002090508060030160009054906101000a900460ff16156130bd576040517f08c379a00000000000000000000000000000000000000000000000000000000081526004016130b490618be5565b60405180910390fd5b601c60003373ffffffffffffffffffffffffffffffffffffffff1673ffffffffffffffffffffffffffffffffffffffff168152602001908152602001600020600084815260200190815260200160002060009054906101000a900460ff161561315b576040517f08c379a000000000000000000000000000000000000000000000000000000000815260040161315290618c77565b60405180910390fd5b6001601c60003373ffffffffffffffffffffffffffffffffffffffff1673ffffffffffffffffffffffffffffffffffffffff168152602001908152602001600020600085815260200190815260200160002060006101000a81548160ff0219169083151502179055508060040160008154809291906131d990618c97565b9190505550600281600401541061323f5760018160030160006101000a81548160ff02191690831515021790555061323d8160050160009054906101000a900473ffffffffffffffffffffffffffffffffffffffff16674563918244f40000616151565b505b505050565b671bc16d674ec8000081565b60135481565b671bc16d674ec8000081565b602160205280600052604060002060009150905080600001549080600101805461328b90618208565b80601f01602080910402602001604051908101604052809291908181526020018280546132b790618208565b80156133045780601f106132d957610100808354040283529160200191613304565b820191906000526020600020905b8154815290600101906020018083116132e757829003601f168201915b5050505050905082565b60007fadb22091b155738d2e889eb96f509d2a7c93234236b30400927feb4a6a15ab0061333a81615f58565b6000602160008681526020019081526020016000206000015403613393576040517f08c379a000000000000000000000000000000000000000000000000000000000815260040161338a90618d2b565b60405180910390fd5b60006022600085815260200190815260200160002060000154036133ec576040517f08c379a00000000000000000000000000000000000000000000000000000000081526004016133e390618d97565b60405180910390fd5b60005b602b805490508110156135175783602b8281548110613411576134106181aa565b5b9060005260206000209060030201600001540361350a57602b6001602b8054905061343c9190618db7565b8154811061344d5761344c6181aa565b5b9060005260206000209060030201602b828154811061346f5761346e6181aa565b5b9060005260206000209060030201600082015481600001556001820181600101908161349b9190618e01565b5060028201816002019080546134b2929190616a8e565b50905050602b8054806134c8576134c7618ee9565b5b60019003818190600052602060002090600302016000808201600090556001820160006134f59190616b28565b6002820160006135059190616b68565b505090555b80806001019150506133ef565b50602260008481526020019081526020016000206000808201600090556001820160006135449190616b28565b6002820160006135549190616b68565b505082847ff084fa19916f58d56801346cc04ca2d2c28a5531dc7db17ebd2323685518b12660405160405180910390a3600191505092915050565b7fc10c77be35aff266144ed64c26a1fa104bae2f284ae99ac4a34203454704a1856135b981615f58565b6024600083815260200190815260200160002060009054906101000a900460ff161561361a576040517f08c379a000000000000000000000000000000000000000000000000000000000815260040161361190618f64565b60405180910390fd5b60036006805490501015613663576040517f08c379a000000000000000000000000000000000000000000000000000000000815260040161365a90618fd0565b60405180910390fd5b6023600083815260200190815260200160002060006136829190616b8c565b60005b600381101561385f5760006006805490504244600680549050856040516020016136b29493929190618ff0565b6040516020818303038152906040528051906020012060001c6136d5919061903e565b90506000600682815481106136ed576136ec6181aa565b5b9060005260206000200160009054906101000a900473ffffffffffffffffffffffffffffffffffffffff1690506000805b60236000888152602001908152602001600020805490508110156137d4578273ffffffffffffffffffffffffffffffffffffffff16602360008981526020019081526020016000208281548110613778576137776181aa565b5b9060005260206000200160009054906101000a900473ffffffffffffffffffffffffffffffffffffffff1673ffffffffffffffffffffffffffffffffffffffff16036137c757600191506137d4565b808060010191505061371e565b508061384f5760236000878152602001908152602001600020829080600181540180825580915050600190039060005260206000200160009091909190916101000a81548173ffffffffffffffffffffffffffffffffffffffff021916908373ffffffffffffffffffffffffffffffffffffffff1602179055505b5050508080600101915050613685565b5060036023600084815260200190815260200160002080549050036138ab5760016024600084815260200190815260200160002060006101000a81548160ff0219169083151502179055505b817fe205dff861c570b8df17e26f893778853f94bb25d2de318755e48eab0b403ff7602360008581526020019081526020016000206040516138ed919061915b565b60405180910390a25050565b60006005600084815260200190815260200160002060000160008373ffffffffffffffffffffffffffffffffffffffff1673ffffffffffffffffffffffffffffffffffffffff16815260200190815260200160002060009054906101000a900460ff16905092915050565b670de0b6b3a764000081565b60606004805461397f90618208565b80601f01602080910402602001604051908101604052809291908181526020018280546139ab90618208565b80156139f85780601f106139cd576101008083540402835291602001916139f8565b820191906000526020600020905b8154815290600101906020018083116139db57829003601f168201915b5050505050905090565b60007fadb22091b155738d2e889eb96f509d2a7c93234236b30400927feb4a6a15ab00613a2e81615f58565b6000601960008581526020019081526020016000206000015403613a87576040517f08c379a0000000000000000000000000000000000000000000000000000000008152600401613a7e906191c9565b60405180910390fd5b60005b6026805490508111613c96578360268281548110613aab57613aaa6181aa565b5b90600052602060002090600602016000015403613c835760266001602680549050613ad69190618db7565b81548110613ae757613ae66181aa565b5b906000526020600020906006020160268281548110613b0957613b086181aa565b5b90600052602060002090600602016000820154816000015560018201816001019081613b359190618e01565b5060028201816002019081613b4a9190618e01565b506003820160009054906101000a900460ff168160030160006101000a81548160ff021916908315150217905550600482015481600401556005820160009054906101000a900473ffffffffffffffffffffffffffffffffffffffff168160050160006101000a81548173ffffffffffffffffffffffffffffffffffffffff021916908373ffffffffffffffffffffffffffffffffffffffff1602179055509050506026805480613bfe57613bfd618ee9565b5b6001900381819060005260206000209060060201600080820160009055600182016000613c2b9190616b28565b600282016000613c3b9190616b28565b6003820160006101000a81549060ff021916905560048201600090556005820160006101000a81549073ffffffffffffffffffffffffffffffffffffffff0219169055505090555b8080613c8e90618c97565b915050613a8a565b5060196000848152602001908152602001600020600080820160009055600182016000613cc39190616b28565b600282016000613cd39190616b28565b6003820160006101000a81549060ff021916905560048201600090556005820160006101000a81549073ffffffffffffffffffffffffffffffffffffffff02191690555050827f50d94198096be9c8aad282f822173f9212251c4d4dc2731fa944f3941749a78d33604051613d4891906172bb565b60405180910390a26001915050919050565b60007fadb22091b155738d2e889eb96f509d2a7c93234236b30400927feb4a6a15ab00613d8681615f58565b6000601d60008681526020019081526020016000206000015403613ddf576040517f08c379a0000000000000000000000000000000000000000000000000000000008152600401613dd690619235565b60405180910390fd5b6000601f60008581526020019081526020016000206000015403613e38576040517f08c379a0000000000000000000000000000000000000000000000000000000008152600401613e2f906183e8565b60405180910390fd5b60005b6027805490508111613f905783601f60008381526020019081526020016000206000015403613f7d5760286001602880549050613e789190618db7565b81548110613e8957613e886181aa565b5b906000526020600020906022020160288281548110613eab57613eaa6181aa565b5b90600052602060002090602202016000820154816000015560018201816001019081613ed79190618e01565b5060028201816002019081613eec9190618e01565b50600382018160030190600a613f03929190616bad565b50602182015481602101559050506028805480613f2357613f22618ee9565b5b6001900381819060005260206000209060220201600080820160009055600182016000613f509190616b28565b600282016000613f609190616b28565b600382016000613f709190616c2f565b6021820160009055505090555b8080613f8890618c97565b915050613e3b565b50601f6000848152602001908152602001600020600080820160009055600182016000613fbd9190616b28565b600282016000613fcd9190616b28565b600382016000613fdd9190616c2f565b6021820160009055505082847f1cdc2ff39034471047dd6d36512a12b5c2e9a30137b2e45daecd05383221d97b60405160405180910390a3600191505092915050565b60115481565b6023602052816000526040600020818154811061404257600080fd5b906000526020600020016000915091509054906101000a900473ffffffffffffffffffffffffffffffffffffffff1681565b6000801b81565b60008073ffffffffffffffffffffffffffffffffffffffff1660196000601354815260200190815260200160002060050160009054906101000a900473ffffffffffffffffffffffffffffffffffffffff1673ffffffffffffffffffffffffffffffffffffffff1614614123576040517f08c379a000000000000000000000000000000000000000000000000000000000815260040161411a906192a1565b60405180910390fd5b60006040518060c001604052806013548152602001858152602001848152602001600015158152602001600081526020013373ffffffffffffffffffffffffffffffffffffffff168152509050806019600060135481526020019081526020016000206000820151816000015560208201518160010190816141a5919061868c565b5060408201518160020190816141bb919061868c565b5060608201518160030160006101000a81548160ff0219169083151502179055506080820151816004015560a08201518160050160006101000a81548173ffffffffffffffffffffffffffffffffffffffff021916908373ffffffffffffffffffffffffffffffffffffffff160217905550905050602681908060018154018082558091505060019003906000526020600020906006020160009091909190915060008201518160000155602082015181600101908161427b919061868c565b506040820151816002019081614291919061868c565b5060608201518160030160006101000a81548160ff0219169083151502179055506080820151816004015560a08201518160050160006101000a81548173ffffffffffffffffffffffffffffffffffffffff021916908373ffffffffffffffffffffffffffffffffffffffff16021790555050506012600081548092919061431890618c97565b91905055506001601b60003373ffffffffffffffffffffffffffffffffffffffff1673ffffffffffffffffffffffffffffffffffffffff168152602001908152602001600020600001600082825461437091906192c1565b925050819055506013600081548092919061438a90618c97565b91905055506143b97fadb22091b155738d2e889eb96f509d2a7c93234236b30400927feb4a6a15ab0033615f6c565b50836040516143c891906192f5565b604051809103902060016013546143df9190618db7565b7f9c93a42b217373d37e6c66ace0a67fe1fa1f78c93164b62417de69c48c0f67e26019600060016013546144139190618db7565b815260200190815260200160002060030160009054906101000a900460ff1660405161443f9190616e89565b60405180910390a3600191505092915050565b601d60205280600052604060002060009150905080600001549080600101805461447b90618208565b80601f01602080910402602001604051908101604052809291908181526020018280546144a790618208565b80156144f45780601f106144c9576101008083540402835291602001916144f4565b820191906000526020600020905b8154815290600101906020018083116144d757829003601f168201915b5050505050908060020160009054906101000a900460ff16905083565b60008061451c615db6565b9050614529818585615e64565b600191505092915050565b60208052816000526040600020818154811061454f57600080fd5b9060005260206000200160009150915050805461456b90618208565b80601f016020809104026020016040519081016040528092919081815260200182805461459790618208565b80156145e45780601f106145b9576101008083540402835291602001916145e4565b820191906000526020600020905b8154815290600101906020018083116145c757829003601f168201915b505050505081565b605081565b7fdf1425bae297c2f52b4f15d18a50b1fc8cb5b981a981b1d213ed3ff92681b64d61461b81615f58565b60006009600084815260200190815260200160002090508060050160009054906101000a900460ff1615614684576040517f08c379a000000000000000000000000000000000000000000000000000000000815260040161467b90619358565b60405180910390fd5b8060060160003373ffffffffffffffffffffffffffffffffffffffff1673ffffffffffffffffffffffffffffffffffffffff16815260200190815260200160002060009054906101000a900460ff1615614713576040517f08c379a000000000000000000000000000000000000000000000000000000000815260040161470a906193c4565b60405180910390fd5b60018160060160003373ffffffffffffffffffffffffffffffffffffffff1673ffffffffffffffffffffffffffffffffffffffff16815260200190815260200160002060006101000a81548160ff02191690831515021790555080600401600081548092919061478290618c97565b9190505550827f5d4ccf5f92566d140246f4ae3b9cb35dc06fff109a7748602ad77f6260fd9a61336040516147b791906172bb565b60405180910390a260038160040154106148eb5760008160020160009054906101000a900473ffffffffffffffffffffffffffffffffffffffff1673ffffffffffffffffffffffffffffffffffffffff16826003016040516148199190619487565b6000604051808303816000865af19150503d8060008114614856576040519150601f19603f3d011682016040523d82523d6000602084013e61485b565b606091505b505090508061489f576040517f08c379a0000000000000000000000000000000000000000000000000000000008152600401614896906194ea565b60405180910390fd5b60018260050160006101000a81548160ff021916908315150217905550837f7770356c29230b95943aec59d47ead11eb426a728bf5b57f7fd8597f3c0e29ba60405160405180910390a2505b505050565b601f60205280600052604060002060009150905080600001549080600101805461491990618208565b80601f016020809104026020016040519081016040528092919081815260200182805461494590618208565b80156149925780601f1061496757610100808354040283529160200191614992565b820191906000526020600020905b81548152906001019060200180831161497557829003601f168201915b5050505050908060020180546149a790618208565b80601f01602080910402602001604051908101604052809291908181526020018280546149d390618208565b8015614a205780601f106149f557610100808354040283529160200191614a20565b820191906000526020600020905b815481529060010190602001808311614a0357829003601f168201915b5050505050908060210154905084565b601a6020528160005260406000206020528060005260406000206000915091505080600001549080600101549080600201549080600301549080600401549080600501549080600601549080600701549080600801549080600901549080600a0160009054906101000a900460ff1690508b565b606060236000838152602001908152602001600020805480602002602001604051908101604052809291908181526020018280548015614b3957602002820191906000526020600020905b8160009054906101000a900473ffffffffffffffffffffffffffffffffffffffff1673ffffffffffffffffffffffffffffffffffffffff1681526020019060010190808311614aef575b50505050509050919050565b60086020528060005260406000206000915054906101000a900460ff1681565b6000601154905090565b60278181548110614b7f57600080fd5b9060005260206000209060030201600091509050806000015490806001018054614ba890618208565b80601f0160208091040260200160405190810160405280929190818152602001828054614bd490618208565b8015614c215780601f10614bf657610100808354040283529160200191614c21565b820191906000526020600020905b815481529060010190602001808311614c0457829003601f168201915b5050505050908060020160009054906101000a900460ff16905083565b6000801b614c4b81615f58565b600860008373ffffffffffffffffffffffffffffffffffffffff1673ffffffffffffffffffffffffffffffffffffffff16815260200190815260200160002060009054906101000a900460ff16614cd7576040517f08c379a0000000000000000000000000000000000000000000000000000000008152600401614cce90619556565b60405180910390fd5b60005b600680549050811015614e5d578273ffffffffffffffffffffffffffffffffffffffff1660068281548110614d1257614d116181aa565b5b9060005260206000200160009054906101000a900473ffffffffffffffffffffffffffffffffffffffff1673ffffffffffffffffffffffffffffffffffffffff1603614e505760066001600680549050614d6c9190618db7565b81548110614d7d57614d7c6181aa565b5b9060005260206000200160009054906101000a900473ffffffffffffffffffffffffffffffffffffffff1660068281548110614dbc57614dbb6181aa565b5b9060005260206000200160006101000a81548173ffffffffffffffffffffffffffffffffffffffff021916908373ffffffffffffffffffffffffffffffffffffffff1602179055506006805480614e1657614e15618ee9565b5b6001900381819060005260206000200160006101000a81549073ffffffffffffffffffffffffffffffffffffffff02191690559055614e5d565b8080600101915050614cda565b506000600860008473ffffffffffffffffffffffffffffffffffffffff1673ffffffffffffffffffffffffffffffffffffffff16815260200190815260200160002060006101000a81548160ff021916908315150217905550614ee07fc10c77be35aff266144ed64c26a1fa104bae2f284ae99ac4a34203454704a1858361605e565b508173ffffffffffffffffffffffffffffffffffffffff167f55dba9d79522b91b615629d5f3b10c2fad2d258f1768614f4a52e937ada0d0ba60405160405180910390a25050565b60256020528160005260406000206020528060005260406000206000915091509054906101000a900460ff1681565b60007fadb22091b155738d2e889eb96f509d2a7c93234236b30400927feb4a6a15ab00614f8381615f58565b6000601f60008881526020019081526020016000206000015403614fdc576040517f08c379a0000000000000000000000000000000000000000000000000000000008152600401614fd3906195c2565b60405180910390fd5b84601f60008881526020019081526020016000206001019081614fff919061868c565b5083601f60008881526020019081526020016000206002019081615023919061868c565b5060008351111561513657600a83511115615073576040517f08c379a000000000000000000000000000000000000000000000000000000000815260040161506a90619654565b60405180910390fd5b60005b835181101561511857838181518110615092576150916181aa565b5b6020026020010151601f600089815260200190815260200160002060030182600a81106150c2576150c16181aa565b5b6003020160008201518160000190816150db919061868c565b5060208201518160010190816150f1919061868c565b506040820151816002019081615107919061868c565b509050508080600101915050615076565b508251601f6000888152602001908152602001600020602101819055505b857f2a39a7cf20a19c3cd9811b72b89fab269dce3aa109f6d2a0631cd3e1f0457e5d866040516151669190617185565b60405180910390a26001915050949350505050565b61518482611792565b61518d81615f58565b615197838361605e565b50505050565b674563918244f4000081565b6000600160008473ffffffffffffffffffffffffffffffffffffffff1673ffffffffffffffffffffffffffffffffffffffff16815260200190815260200160002060008373ffffffffffffffffffffffffffffffffffffffff1673ffffffffffffffffffffffffffffffffffffffff16815260200190815260200160002054905092915050565b6029818154811061524057600080fd5b906000526020600020906003020160009150905080600001805461526390618208565b80601f016020809104026020016040519081016040528092919081815260200182805461528f90618208565b80156152dc5780601f106152b1576101008083540402835291602001916152dc565b820191906000526020600020905b8154815290600101906020018083116152bf57829003601f168201915b5050505050908060010180546152f190618208565b80601f016020809104026020016040519081016040528092919081815260200182805461531d90618208565b801561536a5780601f1061533f5761010080835404028352916020019161536a565b820191906000526020600020905b81548152906001019060200180831161534d57829003601f168201915b50505050509080600201805461537f90618208565b80601f01602080910402602001604051908101604052809291908181526020018280546153ab90618208565b80156153f85780601f106153cd576101008083540402835291602001916153f8565b820191906000526020600020905b8154815290600101906020018083116153db57829003601f168201915b5050505050905083565b60008060216000858152602001908152602001600020905060008160020180549050905060008185511461546b576040517f08c379a0000000000000000000000000000000000000000000000000000000008152600401615462906196e6565b60405180910390fd5b60005b8281101561555e57600084600201828154811061548e5761548d6181aa565b5b9060005260206000209060030201905060008783815181106154b3576154b26181aa565b5b6020026020010151905081600201805490508110615506576040517f08c379a00000000000000000000000000000000000000000000000000000000081526004016154fd90619752565b60405180910390fd5b81600201818154811061551c5761551b6181aa565b5b906000526020600020906002020160010160009054906101000a900460ff161561554f57838061554b90618c97565b9450505b5050808060010191505061546e565b508160648261556d9190618268565b61557791906182d9565b9350604b8410615653576001602f600088815260200190815260200160002060003373ffffffffffffffffffffffffffffffffffffffff1673ffffffffffffffffffffffffffffffffffffffff16815260200190815260200160002060006101000a81548160ff02191690831515021790555083602e60003373ffffffffffffffffffffffffffffffffffffffff1673ffffffffffffffffffffffffffffffffffffffff16815260200190815260200160002060008881526020019081526020016000208190555061565133670de0b6b3a7640000616151565b505b3373ffffffffffffffffffffffffffffffffffffffff167fcce9b9ed7e05afc64f73f1ce3f6ff1011a740b718ae6277a14698a4ef2d62dbf878660405161569b929190619772565b60405180910390a250505092915050565b6000600b60000154905090565b60007fadb22091b155738d2e889eb96f509d2a7c93234236b30400927feb4a6a15ab006156e581615f58565b7fadb22091b155738d2e889eb96f509d2a7c93234236b30400927feb4a6a15ab0061570f81615f58565b6000601960008781526020019081526020016000206000015403615768576040517f08c379a000000000000000000000000000000000000000000000000000000000815260040161575f906197e7565b60405180910390fd5b6000601d600086815260200190815260200160002060000154036157c1576040517f08c379a00000000000000000000000000000000000000000000000000000000081526004016157b890619235565b60405180910390fd5b60005b60278054905081116158fc5784601d600083815260200190815260200160002060000154036158e957602760016027805490506158019190618db7565b81548110615812576158116181aa565b5b906000526020600020906003020160278281548110615834576158336181aa565b5b906000526020600020906003020160008201548160000155600182018160010190816158609190618e01565b506002820160009054906101000a900460ff168160020160006101000a81548160ff02191690831515021790555090505060278054806158a3576158a2618ee9565b5b60019003818190600052602060002090600302016000808201600090556001820160006158d09190616b28565b6002820160006101000a81549060ff0219169055505090555b80806158f490618c97565b9150506157c4565b50601d60008581526020019081526020016000206000808201600090556001820160006159299190616b28565b6002820160006101000a81549060ff0219169055505083857fab6d08543726a41eac26ac96d0b4591127baed3bfb915d2603ccb9fb2440c42560405160405180910390a360019250505092915050565b60165481565b60007fadb22091b155738d2e889eb96f509d2a7c93234236b30400927feb4a6a15ab006159ab81615f58565b6000601d60008681526020019081526020016000206000015403615a04576040517f08c379a00000000000000000000000000000000000000000000000000000000081526004016159fb90619853565b60405180910390fd5b82601d60008681526020019081526020016000206001019081615a27919061868c565b5083857f7714a2fe2221824dfd5cd15f7cc29e38ffefcf9b6ad62c216321afcde79cbcfb85604051615a599190617185565b60405180910390a360019150509392505050565b60007fadb22091b155738d2e889eb96f509d2a7c93234236b30400927feb4a6a15ab00615a9981615f58565b6000601f60008681526020019081526020016000206000015403615af2576040517f08c379a0000000000000000000000000000000000000000000000000000000008152600401615ae9906183e8565b60405180910390fd5b6000602160008581526020019081526020016000206000015403615b4b576040517f08c379a0000000000000000000000000000000000000000000000000000000008152600401615b42906198bf565b60405180910390fd5b60005b6027805490508111615c6c5783602160008681526020019081526020016000206000015403615c5957602a6001602a80549050615b8b9190618db7565b81548110615b9c57615b9b6181aa565b5b9060005260206000209060030201602a8281548110615bbe57615bbd6181aa565b5b90600052602060002090600302016000820154816000015560018201816001019081615bea9190618e01565b506002820181600201908054615c01929190616c45565b50905050602a805480615c1757615c16618ee9565b5b6001900381819060005260206000209060030201600080820160009055600182016000615c449190616b28565b600282016000615c549190616cd3565b505090555b8080615c6490618c97565b915050615b4e565b5060216000848152602001908152602001600020600080820160009055600182016000615c999190616b28565b600282016000615ca99190616cd3565b505082847f22a69f3183c2804ef4ff588b6321a6351c1863419286c584919ab8f923cbd5a460405160405180910390a3600191505092915050565b60175481565b6000615d167fc10c77be35aff266144ed64c26a1fa104bae2f284ae99ac4a34203454704a185836138f9565b9050919050565b601c6020528160005260406000206020528060005260406000206000915091509054906101000a900460ff1681565b60007f01ffc9a7000000000000000000000000000000000000000000000000000000007bffffffffffffffffffffffffffffffffffffffffffffffffffffffff1916827bffffffffffffffffffffffffffffffffffffffffffffffffffffffff1916149050919050565b600033905090565b615dcb8383836001616463565b505050565b6000615ddc84846151a9565b90507fffffffffffffffffffffffffffffffffffffffffffffffffffffffffffffffff8114615e5e5781811015615e4e578281836040517ffb8f41b2000000000000000000000000000000000000000000000000000000008152600401615e45939291906198df565b60405180910390fd5b615e5d84848484036000616463565b5b50505050565b600073ffffffffffffffffffffffffffffffffffffffff168373ffffffffffffffffffffffffffffffffffffffff1603615ed65760006040517f96c6fd1e000000000000000000000000000000000000000000000000000000008152600401615ecd91906172bb565b60405180910390fd5b600073ffffffffffffffffffffffffffffffffffffffff168273ffffffffffffffffffffffffffffffffffffffff1603615f485760006040517fec442f05000000000000000000000000000000000000000000000000000000008152600401615f3f91906172bb565b60405180910390fd5b615f5383838361663a565b505050565b615f6981615f64615db6565b61685f565b50565b6000615f7883836138f9565b6160535760016005600085815260200190815260200160002060000160008473ffffffffffffffffffffffffffffffffffffffff1673ffffffffffffffffffffffffffffffffffffffff16815260200190815260200160002060006101000a81548160ff021916908315150217905550615ff0615db6565b73ffffffffffffffffffffffffffffffffffffffff168273ffffffffffffffffffffffffffffffffffffffff16847f2f8788117e7eff1d82e926ec794901d17c78024a50270940304540a733656f0d60405160405180910390a460019050616058565b600090505b92915050565b600061606a83836138f9565b156161465760006005600085815260200190815260200160002060000160008473ffffffffffffffffffffffffffffffffffffffff1673ffffffffffffffffffffffffffffffffffffffff16815260200190815260200160002060006101000a81548160ff0219169083151502179055506160e3615db6565b73ffffffffffffffffffffffffffffffffffffffff168273ffffffffffffffffffffffffffffffffffffffff16847ff6391f5c32d9c69d2a47ea670b442974b53935d1edc7fd64eb21e047a839171b60405160405180910390a46001905061614b565b600090505b92915050565b60006064600f6b204fce5e3e2502611000000061616e9190618268565b61617891906182d9565b616180614b65565b8361618b91906192c1565b11156161cc576040517f08c379a00000000000000000000000000000000000000000000000000000000081526004016161c390619962565b60405180910390fd5b6161d683836168b0565b5081601160008282546161e991906192c1565b92505081905550818373ffffffffffffffffffffffffffffffffffffffff167fad6ef58d5c294f81258965738e7ae511124139834a8d0b8f8f7327086c82052a60405160405180910390a36001905092915050565b600080600090505b60236000858152602001908152602001600020805490508110156162fd578273ffffffffffffffffffffffffffffffffffffffff166023600086815260200190815260200160002082815481106162a05761629f6181aa565b5b9060005260206000200160009054906101000a900473ffffffffffffffffffffffffffffffffffffffff1673ffffffffffffffffffffffffffffffffffffffff16036162f0576001915050616303565b8080600101915050616246565b50600090505b92915050565b600a8a1115801561631b5750600a8911155b80156163285750600a8811155b80156163355750600a8711155b80156163425750600a8611155b801561634f5750600a8511155b801561635c5750600a8411155b80156163695750600a8311155b80156163765750600a8211155b80156163835750600a8111155b6163c2576040517f08c379a00000000000000000000000000000000000000000000000000000000081526004016163b9906199ce565b60405180910390fd5b50505050505050505050565b60008160090154826008015483600701548460060154856005015486600401548760030154886002015489600101548a6000015461640c91906192c1565b61641691906192c1565b61642091906192c1565b61642a91906192c1565b61643491906192c1565b61643e91906192c1565b61644891906192c1565b61645291906192c1565b61645c91906192c1565b9050919050565b600073ffffffffffffffffffffffffffffffffffffffff168473ffffffffffffffffffffffffffffffffffffffff16036164d55760006040517fe602df050000000000000000000000000000000000000000000000000000000081526004016164cc91906172bb565b60405180910390fd5b600073ffffffffffffffffffffffffffffffffffffffff168373ffffffffffffffffffffffffffffffffffffffff16036165475760006040517f94280d6200000000000000000000000000000000000000000000000000000000815260040161653e91906172bb565b60405180910390fd5b81600160008673ffffffffffffffffffffffffffffffffffffffff1673ffffffffffffffffffffffffffffffffffffffff16815260200190815260200160002060008573ffffffffffffffffffffffffffffffffffffffff1673ffffffffffffffffffffffffffffffffffffffff168152602001908152602001600020819055508015616634578273ffffffffffffffffffffffffffffffffffffffff168473ffffffffffffffffffffffffffffffffffffffff167f8c5be1e5ebec7d5bd14f71427d1e84f3dd0314c0f7b2291e5b200ac8c7c3b9258460405161662b9190617120565b60405180910390a35b50505050565b600073ffffffffffffffffffffffffffffffffffffffff168373ffffffffffffffffffffffffffffffffffffffff160361668c57806002600082825461668091906192c1565b9250508190555061675f565b60008060008573ffffffffffffffffffffffffffffffffffffffff1673ffffffffffffffffffffffffffffffffffffffff16815260200190815260200160002054905081811015616718578381836040517fe450d38c00000000000000000000000000000000000000000000000000000000815260040161670f939291906198df565b60405180910390fd5b8181036000808673ffffffffffffffffffffffffffffffffffffffff1673ffffffffffffffffffffffffffffffffffffffff16815260200190815260200160002081905550505b600073ffffffffffffffffffffffffffffffffffffffff168273ffffffffffffffffffffffffffffffffffffffff16036167a857806002600082825403925050819055506167f5565b806000808473ffffffffffffffffffffffffffffffffffffffff1673ffffffffffffffffffffffffffffffffffffffff168152602001908152602001600020600082825401925050819055505b8173ffffffffffffffffffffffffffffffffffffffff168373ffffffffffffffffffffffffffffffffffffffff167fddf252ad1be2c89b69c2b068fc378daa952ba7f163c4a11628f55a4df523b3ef836040516168529190617120565b60405180910390a3505050565b61686982826138f9565b6168ac5780826040517fe2517d3f0000000000000000000000000000000000000000000000000000000081526004016168a39291906199ee565b60405180910390fd5b5050565b60006b204fce5e3e250261100000006168c761171a565b836168d291906192c1565b1115616913576040517f08c379a000000000000000000000000000000000000000000000000000000000815260040161690a90619962565b60405180910390fd5b61691d838361696b565b818373ffffffffffffffffffffffffffffffffffffffff167fcda531bfd68624f13205c0a23cd4d5a7f09792cbb399603114f2b04aaa1bf5cf60405160405180910390a36001905092915050565b600073ffffffffffffffffffffffffffffffffffffffff168273ffffffffffffffffffffffffffffffffffffffff16036169dd5760006040517fec442f050000000000000000000000000000000000000000000000000000000081526004016169d491906172bb565b60405180910390fd5b6169e96000838361663a565b5050565b6040518060c0016040528060008152602001606081526020016060815260200160001515815260200160008152602001600073ffffffffffffffffffffffffffffffffffffffff1681525090565b6040518060e00160405280600081526020016000815260200160608152602001606081526020016000815260200160608152602001600073ffffffffffffffffffffffffffffffffffffffff1681525090565b828054828255906000526020600020906002028101928215616b175760005260206000209160020282015b82811115616b1657828260008201816000019081616ad79190618e01565b506001820160009054906101000a900460ff168160010160006101000a81548160ff021916908315150217905550505091600201919060020190616ab9565b5b509050616b249190616cf7565b5090565b508054616b3490618208565b6000825580601f10616b465750616b65565b601f016020900490600052602060002090810190616b649190616d32565b5b50565b5080546000825560020290600052602060002090810190616b899190616cf7565b50565b5080546000825590600052602060002090810190616baa9190616d32565b50565b82600a6003028101928215616c1e579160030282015b82811115616c1d57828260008201816000019081616be19190618e01565b5060018201816001019081616bf69190618e01565b5060028201816002019081616c0b9190618e01565b50505091600301919060030190616bc3565b5b509050616c2b9190616d4f565b5090565b5080600a6003020190616c429190616d4f565b50565b828054828255906000526020600020906003028101928215616cc25760005260206000209160030282015b82811115616cc15782826000820154816000015560018201816001019081616c989190618e01565b506002820181600201908054616caf929190616a8e565b50505091600301919060030190616c70565b5b509050616ccf9190616d96565b5090565b5080546000825560030290600052602060002090810190616cf49190616d96565b50565b5b80821115616d2e5760008082016000616d119190616b28565b6001820160006101000a81549060ff021916905550600201616cf8565b5090565b5b80821115616d4b576000816000905550600101616d33565b5090565b5b80821115616d925760008082016000616d699190616b28565b600182016000616d799190616b28565b600282016000616d899190616b28565b50600301616d50565b5090565b5b80821115616dd157600080820160009055600182016000616db89190616b28565b600282016000616dc89190616b68565b50600301616d97565b5090565b6000604051905090565b600080fd5b600080fd5b60007fffffffff0000000000000000000000000000000000000000000000000000000082169050919050565b616e1e81616de9565b8114616e2957600080fd5b50565b600081359050616e3b81616e15565b92915050565b600060208284031215616e5757616e56616ddf565b5b6000616e6584828501616e2c565b91505092915050565b60008115159050919050565b616e8381616e6e565b82525050565b6000602082019050616e9e6000830184616e7a565b92915050565b600081519050919050565b600082825260208201905092915050565b6000819050602082019050919050565b6000819050919050565b616ee381616ed0565b82525050565b600081519050919050565b600082825260208201905092915050565b60005b83811015616f23578082015181840152602081019050616f08565b60008484015250505050565b6000601f19601f8301169050919050565b6000616f4b82616ee9565b616f558185616ef4565b9350616f65818560208601616f05565b616f6e81616f2f565b840191505092915050565b616f8281616e6e565b82525050565b600073ffffffffffffffffffffffffffffffffffffffff82169050919050565b6000616fb382616f88565b9050919050565b616fc381616fa8565b82525050565b600060c083016000830151616fe16000860182616eda565b5060208301518482036020860152616ff98282616f40565b915050604083015184820360408601526170138282616f40565b91505060608301516170286060860182616f79565b50608083015161703b6080860182616eda565b5060a083015161704e60a0860182616fba565b508091505092915050565b60006170658383616fc9565b905092915050565b6000602082019050919050565b600061708582616ea4565b61708f8185616eaf565b9350836020820285016170a185616ec0565b8060005b858110156170dd57848403895281516170be8582617059565b94506170c98361706d565b925060208a019950506001810190506170a5565b50829750879550505050505092915050565b60006020820190508181036000830152617109818461707a565b905092915050565b61711a81616ed0565b82525050565b60006020820190506171356000830184617111565b92915050565b600082825260208201905092915050565b600061715782616ee9565b617161818561713b565b9350617171818560208601616f05565b61717a81616f2f565b840191505092915050565b6000602082019050818103600083015261719f818461714c565b905092915050565b6171b081616fa8565b81146171bb57600080fd5b50565b6000813590506171cd816171a7565b92915050565b6171dc81616ed0565b81146171e757600080fd5b50565b6000813590506171f9816171d3565b92915050565b6000806040838503121561721657617215616ddf565b5b6000617224858286016171be565b9250506020617235858286016171ea565b9150509250929050565b60006020828403121561725557617254616ddf565b5b6000617263848285016171ea565b91505092915050565b6000806040838503121561728357617282616ddf565b5b6000617291858286016171ea565b92505060206172a2858286016171be565b9150509250929050565b6172b581616fa8565b82525050565b60006020820190506172d060008301846172ac565b92915050565b6000806000606084860312156172ef576172ee616ddf565b5b60006172fd868287016171be565b935050602061730e868287016171be565b925050604061731f868287016171ea565b9150509250925092565b6000819050919050565b61733c81617329565b811461734757600080fd5b50565b60008135905061735981617333565b92915050565b60006020828403121561737557617374616ddf565b5b60006173838482850161734a565b91505092915050565b61739581617329565b82525050565b60006020820190506173b0600083018461738c565b92915050565b60006040820190506173cb6000830185617111565b81810360208301526173dd818461714c565b90509392505050565b600060c0820190506173fb6000830189617111565b818103602083015261740d818861714c565b90508181036040830152617421818761714c565b90506174306060830186616e7a565b61743d6080830185617111565b61744a60a08301846172ac565b979650505050505050565b600060808201905061746a6000830187617111565b818103602083015261747c818661714c565b90508181036040830152617490818561714c565b905061749f6060830184617111565b95945050505050565b600080604083850312156174bf576174be616ddf565b5b60006174cd858286016171ea565b92505060206174de858286016171ea565b9150509250929050565b600080604083850312156174ff576174fe616ddf565b5b600061750d8582860161734a565b925050602061751e858286016171be565b9150509250929050565b600060ff82169050919050565b61753e81617528565b82525050565b60006020820190506175596000830184617535565b92915050565b60006020828403121561757557617574616ddf565b5b6000617583848285016171be565b91505092915050565b600080fd5b600080fd5b7f4e487b7100000000000000000000000000000000000000000000000000000000600052604160045260246000fd5b6175ce82616f2f565b810181811067ffffffffffffffff821117156175ed576175ec617596565b5b80604052505050565b6000617600616dd5565b905061760c82826175c5565b919050565b600067ffffffffffffffff82111561762c5761762b617596565b5b61763582616f2f565b9050602081019050919050565b82818337600083830152505050565b600061766461765f84617611565b6175f6565b9050828152602081018484840111156176805761767f617591565b5b61768b848285617642565b509392505050565b600082601f8301126176a8576176a761758c565b5b81356176b8848260208601617651565b91505092915050565b6000806000606084860312156176da576176d9616ddf565b5b60006176e8868287016171ea565b93505060206176f9868287016171ea565b925050604084013567ffffffffffffffff81111561771a57617719616de4565b5b61772686828701617693565b9150509250925092565b600081519050919050565b600082825260208201905092915050565b600061775782617730565b617761818561773b565b9350617771818560208601616f05565b61777a81616f2f565b840191505092915050565b600060c08201905061779a6000830189617111565b6177a760208301886172ac565b6177b460408301876172ac565b81810360608301526177c6818661774c565b90506177d56080830185617111565b6177e260a0830184616e7a565b979650505050505050565b60006060820190506178026000830186617111565b8181036020830152617814818561714c565b90506178236040830184616e7a565b949350505050565b600080600080600060a0868803121561784757617846616ddf565b5b6000617855888289016171ea565b955050602086013567ffffffffffffffff81111561787657617875616de4565b5b61788288828901617693565b945050604086013567ffffffffffffffff8111156178a3576178a2616de4565b5b6178af88828901617693565b935050606086013567ffffffffffffffff8111156178d0576178cf616de4565b5b6178dc88828901617693565b92505060806178ed888289016171ea565b9150509295509295909350565b600060e0830160008301516179126000860182616eda565b5060208301516179256020860182616eda565b506040830151848203604086015261793d8282616f40565b915050606083015184820360608601526179578282616f40565b915050608083015161796c6080860182616eda565b5060a083015184820360a08601526179848282616f40565b91505060c083015161799960c0860182616fba565b508091505092915050565b60006040820190506179b96000830185617111565b81810360208301526179cb81846178fa565b90509392505050565b60008060008060008060008060008060006101608c8e0312156179fa576179f9616ddf565b5b6000617a088e828f016171ea565b9b50506020617a198e828f016171ea565b9a50506040617a2a8e828f016171ea565b9950506060617a3b8e828f016171ea565b9850506080617a4c8e828f016171ea565b97505060a0617a5d8e828f016171ea565b96505060c0617a6e8e828f016171ea565b95505060e0617a7f8e828f016171ea565b945050610100617a918e828f016171ea565b935050610120617aa38e828f016171ea565b925050610140617ab58e828f016171ea565b9150509295989b509295989b9093969950565b60008060408385031215617adf57617ade616ddf565b5b6000617aed858286016171ea565b925050602083013567ffffffffffffffff811115617b0e57617b0d616de4565b5b617b1a85828601617693565b9150509250929050565b600060e082019050617b39600083018a617111565b617b466020830189617111565b8181036040830152617b58818861714c565b90508181036060830152617b6c818761714c565b9050617b7b6080830186617111565b81810360a0830152617b8d818561714c565b9050617b9c60c08301846172ac565b98975050505050505050565b60008060408385031215617bbf57617bbe616ddf565b5b600083013567ffffffffffffffff811115617bdd57617bdc616de4565b5b617be985828601617693565b925050602083013567ffffffffffffffff811115617c0a57617c09616de4565b5b617c1685828601617693565b9150509250929050565b600061016082019050617c36600083018e617111565b617c43602083018d617111565b617c50604083018c617111565b617c5d606083018b617111565b617c6a608083018a617111565b617c7760a0830189617111565b617c8460c0830188617111565b617c9160e0830187617111565b617c9f610100830186617111565b617cad610120830185617111565b617cbb610140830184616e7a565b9c9b505050505050505050505050565b600081519050919050565b600082825260208201905092915050565b6000819050602082019050919050565b6000617d038383616fba565b60208301905092915050565b6000602082019050919050565b6000617d2782617ccb565b617d318185617cd6565b9350617d3c83617ce7565b8060005b83811015617d6d578151617d548882617cf7565b9750617d5f83617d0f565b925050600181019050617d40565b5085935050505092915050565b60006020820190508181036000830152617d948184617d1c565b905092915050565b600067ffffffffffffffff821115617db757617db6617596565b5b602082029050602081019050919050565b600080fd5b600080fd5b600080fd5b600060608284031215617ded57617dec617dcd565b5b617df760606175f6565b9050600082013567ffffffffffffffff811115617e1757617e16617dd2565b5b617e2384828501617693565b600083015250602082013567ffffffffffffffff811115617e4757617e46617dd2565b5b617e5384828501617693565b602083015250604082013567ffffffffffffffff811115617e7757617e76617dd2565b5b617e8384828501617693565b60408301525092915050565b6000617ea2617e9d84617d9c565b6175f6565b90508083825260208201905060208402830185811115617ec557617ec4617dc8565b5b835b81811015617f0c57803567ffffffffffffffff811115617eea57617ee961758c565b5b808601617ef78982617dd7565b85526020850194505050602081019050617ec7565b5050509392505050565b600082601f830112617f2b57617f2a61758c565b5b8135617f3b848260208601617e8f565b91505092915050565b60008060008060808587031215617f5e57617f5d616ddf565b5b6000617f6c878288016171ea565b945050602085013567ffffffffffffffff811115617f8d57617f8c616de4565b5b617f9987828801617693565b935050604085013567ffffffffffffffff811115617fba57617fb9616de4565b5b617fc687828801617693565b925050606085013567ffffffffffffffff811115617fe757617fe6616de4565b5b617ff387828801617f16565b91505092959194509250565b6000806040838503121561801657618015616ddf565b5b6000618024858286016171be565b9250506020618035858286016171be565b9150509250929050565b60006060820190508181036000830152618059818661714c565b9050818103602083015261806d818561714c565b90508181036040830152618081818461714c565b9050949350505050565b600067ffffffffffffffff8211156180a6576180a5617596565b5b602082029050602081019050919050565b60006180ca6180c58461808b565b6175f6565b905080838252602082019050602084028301858111156180ed576180ec617dc8565b5b835b81811015618116578061810288826171ea565b8452602084019350506020810190506180ef565b5050509392505050565b600082601f8301126181355761813461758c565b5b81356181458482602086016180b7565b91505092915050565b6000806040838503121561816557618164616ddf565b5b6000618173858286016171ea565b925050602083013567ffffffffffffffff81111561819457618193616de4565b5b6181a085828601618120565b9150509250929050565b7f4e487b7100000000000000000000000000000000000000000000000000000000600052603260045260246000fd5b7f4e487b7100000000000000000000000000000000000000000000000000000000600052602260045260246000fd5b6000600282049050600182168061822057607f821691505b602082108103618233576182326181d9565b5b50919050565b7f4e487b7100000000000000000000000000000000000000000000000000000000600052601160045260246000fd5b600061827382616ed0565b915061827e83616ed0565b925082820261828c81616ed0565b915082820484148315176182a3576182a2618239565b5b5092915050565b7f4e487b7100000000000000000000000000000000000000000000000000000000600052601260045260246000fd5b60006182e482616ed0565b91506182ef83616ed0565b9250826182ff576182fe6182aa565b5b828204905092915050565b7f596f75206861766520616c7265616479206d61726b65642074686973206c657360008201527f736f6e2061732072656164000000000000000000000000000000000000000000602082015250565b6000618366602b8361713b565b91506183718261830a565b604082019050919050565b6000602082019050818103600083015261839581618359565b9050919050565b7f4c6573736f6e20646f65736e2774206578697374000000000000000000000000600082015250565b60006183d260148361713b565b91506183dd8261839c565b602082019050919050565b60006020820190508181036000830152618401816183c5565b9050919050565b7f5155697a20646f6573206e6f7420657869737400000000000000000000000000600082015250565b600061843e60138361713b565b915061844982618408565b602082019050919050565b6000602082019050818103600083015261846d81618431565b9050919050565b7f4e6f74206578616374207175697a000000000000000000000000000000000000600082015250565b60006184aa600e8361713b565b91506184b582618474565b602082019050919050565b600060208201905081810360008301526184d98161849d565b9050919050565b60008190508160005260206000209050919050565b60006020601f8301049050919050565b600082821b905092915050565b6000600883026185427fffffffffffffffffffffffffffffffffffffffffffffffffffffffffffffffff82618505565b61854c8683618505565b95508019841693508086168417925050509392505050565b6000819050919050565b600061858961858461857f84616ed0565b618564565b616ed0565b9050919050565b6000819050919050565b6185a38361856e565b6185b76185af82618590565b848454618512565b825550505050565b600090565b6185cc6185bf565b6185d781848461859a565b505050565b5b818110156185fb576185f06000826185c4565b6001810190506185dd565b5050565b601f82111561864057618611816184e0565b61861a846184f5565b81016020851015618629578190505b61863d618635856184f5565b8301826185dc565b50505b505050565b600082821c905092915050565b600061866360001984600802618645565b1980831691505092915050565b600061867c8383618652565b9150826002028217905092915050565b61869582616ee9565b67ffffffffffffffff8111156186ae576186ad617596565b5b6186b88254618208565b6186c38282856185ff565b600060209050601f8311600181146186f657600084156186e4578287015190505b6186ee8582618670565b865550618756565b601f198416618704866184e0565b60005b8281101561872c57848901518255600182019150602085019450602081019050618707565b868310156187495784890151618745601f891682618652565b8355505b6001600288020188555050505b505050505050565b7f596f75206d75737420626520656e726f6c6c656420696e2074686520636f757260008201527f736520746f20636f6d706c657465206974000000000000000000000000000000602082015250565b60006187ba60318361713b565b91506187c58261875e565b604082019050919050565b600060208201905081810360008301526187e9816187ad565b9050919050565b7f596f75206861766520616c726561647920636f6d706c6574656420746869732060008201527f636f757273650000000000000000000000000000000000000000000000000000602082015250565b600061884c60268361713b565b9150618857826187f0565b604082019050919050565b6000602082019050818103600083015261887b8161883f565b9050919050565b6000819050919050565b61889d61889882616ed0565b618882565b82525050565b600081905092915050565b60006188b982616ee9565b6188c381856188a3565b93506188d3818560208601616f05565b80840191505092915050565b60006188eb828961888c565b6020820191506188fb82886188ae565b915061890782876188ae565b915061891382866188ae565b915061891f828561888c565b60208201915061892f828461888c565b602082019150819050979650505050505050565b60006080820190506189586000830187617111565b818103602083015261896a818661714c565b9050818103604083015261897e818561714c565b90508181036060830152618992818461714c565b905095945050505050565b7f4e6f742073656c6563746564206173206120726576696577657220666f72207460008201527f68697320636f7572736500000000000000000000000000000000000000000000602082015250565b60006189f9602a8361713b565b9150618a048261899d565b604082019050919050565b60006020820190508181036000830152618a28816189ec565b9050919050565b7f52657669657720616c7265616479207375626d6974746564206279207468697360008201527f2072657669657765722e00000000000000000000000000000000000000000000602082015250565b6000618a8b602a8361713b565b9150618a9682618a2f565b604082019050919050565b60006020820190508181036000830152618aba81618a7e565b9050919050565b7f436f7572736520646f6573206e6f742065786973740000000000000000000000600082015250565b6000618af760158361713b565b9150618b0282618ac1565b602082019050919050565b60006020820190508181036000830152618b2681618aea565b9050919050565b7f416c726561647920696e20726576696577657220706f6f6c0000000000000000600082015250565b6000618b6360188361713b565b9150618b6e82618b2d565b602082019050919050565b60006020820190508181036000830152618b9281618b56565b9050919050565b7f436f7572736520616c726561647920617070726f766564000000000000000000600082015250565b6000618bcf60178361713b565b9150618bda82618b99565b602082019050919050565b60006020820190508181036000830152618bfe81618bc2565b9050919050565b7f596f75206861766520616c726561647920617070726f7665642074686973206360008201527f6f75727365000000000000000000000000000000000000000000000000000000602082015250565b6000618c6160258361713b565b9150618c6c82618c05565b604082019050919050565b60006020820190508181036000830152618c9081618c54565b9050919050565b6000618ca282616ed0565b91507fffffffffffffffffffffffffffffffffffffffffffffffffffffffffffffffff8203618cd457618cd3618239565b5b600182019050919050565b7f5175697a20646f6573206e6f7420657869737400000000000000000000000000600082015250565b6000618d1560138361713b565b9150618d2082618cdf565b602082019050919050565b60006020820190508181036000830152618d4481618d08565b9050919050565b7f5175657374696f6e206e6f7420666f756e6420696e2074686973207175697a00600082015250565b6000618d81601f8361713b565b9150618d8c82618d4b565b602082019050919050565b60006020820190508181036000830152618db081618d74565b9050919050565b6000618dc282616ed0565b9150618dcd83616ed0565b9250828203905081811115618de557618de4618239565b5b92915050565b600081549050618dfa81618208565b9050919050565b818103618e0f575050618ee7565b618e1882618deb565b67ffffffffffffffff811115618e3157618e30617596565b5b618e3b8254618208565b618e468282856185ff565b6000601f831160018114618e755760008415618e63578287015490505b618e6d8582618670565b865550618ee0565b601f198416618e83876184e0565b9650618e8e866184e0565b60005b82811015618eb657848901548255600182019150600185019450602081019050618e91565b86831015618ed35784890154618ecf601f891682618652565b8355505b6001600288020188555050505b5050505050505b565b7f4e487b7100000000000000000000000000000000000000000000000000000000600052603160045260246000fd5b7f52657669657765727320616c72656164792073656c6563746564000000000000600082015250565b6000618f4e601a8361713b565b9150618f5982618f18565b602082019050919050565b60006020820190508181036000830152618f7d81618f41565b9050919050565b7f4e6f7420656e6f7567682072657669657765727320696e2074686520706f6f6c600082015250565b6000618fba60208361713b565b9150618fc582618f84565b602082019050919050565b60006020820190508181036000830152618fe981618fad565b9050919050565b6000618ffc828761888c565b60208201915061900c828661888c565b60208201915061901c828561888c565b60208201915061902c828461888c565b60208201915081905095945050505050565b600061904982616ed0565b915061905483616ed0565b925082619064576190636182aa565b5b828206905092915050565b600081549050919050565b60008190508160005260206000209050919050565b60008160001c9050919050565b600073ffffffffffffffffffffffffffffffffffffffff82169050919050565b60006190cf6190ca8361908f565b61909c565b9050919050565b60006190e282546190bc565b9050919050565b6000600182019050919050565b60006191018261906f565b61910b8185617cd6565b93506191168361907a565b8060005b8381101561914e5761912b826190d6565b6191358882617cf7565b9750619140836190e9565b92505060018101905061911a565b5085935050505092915050565b6000602082019050818103600083015261917581846190f6565b905092915050565b7f436f7572736520646f65736e2774206578697374210000000000000000000000600082015250565b60006191b360158361713b565b91506191be8261917d565b602082019050919050565b600060208201905081810360008301526191e2816191a6565b9050919050565b7f4368617074657220646f65736e27742065786973740000000000000000000000600082015250565b600061921f60158361713b565b915061922a826191e9565b602082019050919050565b6000602082019050818103600083015261924e81619212565b9050919050565b7f436f7572736520494420616c7265616479206578697374730000000000000000600082015250565b600061928b60188361713b565b915061929682619255565b602082019050919050565b600060208201905081810360008301526192ba8161927e565b9050919050565b60006192cc82616ed0565b91506192d783616ed0565b92508282019050808211156192ef576192ee618239565b5b92915050565b600061930182846188ae565b915081905092915050565b7f50726f706f73616c20616c726561647920657865637574656400000000000000600082015250565b600061934260198361713b565b915061934d8261930c565b602082019050919050565b6000602082019050818103600083015261937181619335565b9050919050565b7f416c726561647920617070726f76656400000000000000000000000000000000600082015250565b60006193ae60108361713b565b91506193b982619378565b602082019050919050565b600060208201905081810360008301526193dd816193a1565b9050919050565b600081905092915050565b60008190508160005260206000209050919050565b6000815461941181618208565b61941b81866193e4565b94506001821660008114619436576001811461944b5761947e565b60ff198316865281151582028601935061947e565b619454856193ef565b60005b8381101561947657815481890152600182019150602081019050619457565b838801955050505b50505092915050565b60006194938284619404565b915081905092915050565b7f50726f706f73616c20657865637574696f6e206661696c656400000000000000600082015250565b60006194d460198361713b565b91506194df8261949e565b602082019050919050565b60006020820190508181036000830152619503816194c7565b9050919050565b7f4e6f7420696e20726576696577657220706f6f6c000000000000000000000000600082015250565b600061954060148361713b565b915061954b8261950a565b602082019050919050565b6000602082019050818103600083015261956f81619533565b9050919050565b7f4c6573736f6e20646f6573206e6f742065786973740000000000000000000000600082015250565b60006195ac60158361713b565b91506195b782619576565b602082019050919050565b600060208201905081810360008301526195db8161959f565b9050919050565b7f5265736f7572636520636f756e742065786365656473206d6178696d756d206160008201527f6c6c6f7765640000000000000000000000000000000000000000000000000000602082015250565b600061963e60268361713b565b9150619649826195e2565b604082019050919050565b6000602082019050818103600083015261966d81619631565b9050919050565b7f4e756d626572206f6620616e7377657273206d757374206d617463682074686560008201527f206e756d626572206f66207175657374696f6e73000000000000000000000000602082015250565b60006196d060348361713b565b91506196db82619674565b604082019050919050565b600060208201905081810360008301526196ff816196c3565b9050919050565b7f496e76616c69642063686f6963652073656c6563746564000000000000000000600082015250565b600061973c60178361713b565b915061974782619706565b602082019050919050565b6000602082019050818103600083015261976b8161972f565b9050919050565b60006040820190506197876000830185617111565b6197946020830184617111565b9392505050565b7f436f7572736520646f65736e2774206578697374000000000000000000000000600082015250565b60006197d160148361713b565b91506197dc8261979b565b602082019050919050565b60006020820190508181036000830152619800816197c4565b9050919050565b7f4368617074657220646f65736e2774206e6f7420657869737400000000000000600082015250565b600061983d60198361713b565b915061984882619807565b602082019050919050565b6000602082019050818103600083015261986c81619830565b9050919050565b7f5175697a20646f65736e27742065786973740000000000000000000000000000600082015250565b60006198a960128361713b565b91506198b482619873565b602082019050919050565b600060208201905081810360008301526198d88161989c565b9050919050565b60006060820190506198f460008301866172ac565b6199016020830185617111565b61990e6040830184617111565b949350505050565b7f4c696d6974204578636565646564210000000000000000000000000000000000600082015250565b600061994c600f8361713b565b915061995782619916565b602082019050919050565b6000602082019050818103600083015261997b8161993f565b9050919050565b7f53636f726573206d757374206265206265747765656e203120616e642031302e600082015250565b60006199b860208361713b565b91506199c382619982565b602082019050919050565b600060208201905081810360008301526199e7816199ab565b9050919050565b6000604082019050619a0360008301856172ac565b619a10602083018461738c565b939250505056fea264697066735822122024f1c301fa2d8a21fd903e1145ab3fdc20cb8d352deb2d11eb2e8971779aace264736f6c634300081b0033",
  "linkReferences": {},
  "deployedLinkReferences": {}
}