{
  "_format": "hh-sol-artifact-1",
  "contractName": "Treasury",
  "sourceName": "contracts/Treasury.sol",
  "abi": [
    {
      "inputs": [
        {
          "internalType": "address[]",
          "name": "_reviewers",
          "type": "address[]"
        }
      ],
      "stateMutability": "nonpayable",
      "type": "constructor"
    },
    {
      "inputs": [],
      "name": "AccessControlBadConfirmation",
      "type": "error"
    },
    {
      "inputs": [
        {
          "internalType": "address",
          "name": "account",
          "type": "address"
        },
        {
          "internalType": "bytes32",
          "name": "neededRole",
          "type": "bytes32"
        }
      ],
      "name": "AccessControlUnauthorizedAccount",
      "type": "error"
    },
    {
      "inputs": [
        {
          "internalType": "address",
          "name": "spender",
          "type": "address"
        },
        {
          "internalType": "uint256",
          "name": "allowance",
          "type": "uint256"
        },
        {
          "internalType": "uint256",
          "name": "needed",
          "type": "uint256"
        }
      ],
      "name": "ERC20InsufficientAllowance",
      "type": "error"
    },
    {
      "inputs": [
        {
          "internalType": "address",
          "name": "sender",
          "type": "address"
        },
        {
          "internalType": "uint256",
          "name": "balance",
          "type": "uint256"
        },
        {
          "internalType": "uint256",
          "name": "needed",
          "type": "uint256"
        }
      ],
      "name": "ERC20InsufficientBalance",
      "type": "error"
    },
    {
      "inputs": [
        {
          "internalType": "address",
          "name": "approver",
          "type": "address"
        }
      ],
      "name": "ERC20InvalidApprover",
      "type": "error"
    },
    {
      "inputs": [
        {
          "internalType": "address",
          "name": "receiver",
          "type": "address"
        }
      ],
      "name": "ERC20InvalidReceiver",
      "type": "error"
    },
    {
      "inputs": [
        {
          "internalType": "address",
          "name": "sender",
          "type": "address"
        }
      ],
      "name": "ERC20InvalidSender",
      "type": "error"
    },
    {
      "inputs": [
        {
          "internalType": "address",
          "name": "spender",
          "type": "address"
        }
      ],
      "name": "ERC20InvalidSpender",
      "type": "error"
    },
    {
      "inputs": [],
      "name": "ReentrancyGuardReentrantCall",
      "type": "error"
    },
    {
      "anonymous": false,
      "inputs": [
        {
          "indexed": true,
          "internalType": "address",
          "name": "owner",
          "type": "address"
        },
        {
          "indexed": true,
          "internalType": "address",
          "name": "spender",
          "type": "address"
        },
        {
          "indexed": false,
          "internalType": "uint256",
          "name": "value",
          "type": "uint256"
        }
      ],
      "name": "Approval",
      "type": "event"
    },
    {
      "anonymous": false,
      "inputs": [
        {
          "indexed": true,
          "internalType": "address",
          "name": "_account",
          "type": "address"
        },
        {
          "indexed": false,
          "internalType": "uint256",
          "name": "_amount",
          "type": "uint256"
        }
      ],
      "name": "BurnSuccess",
      "type": "event"
    },
    {
      "anonymous": false,
      "inputs": [
        {
          "indexed": true,
          "internalType": "address",
          "name": "_contract",
          "type": "address"
        },
        {
          "indexed": false,
          "internalType": "uint256",
          "name": "amount",
          "type": "uint256"
        }
      ],
      "name": "DepositSuccess",
      "type": "event"
    },
    {
      "anonymous": false,
      "inputs": [
        {
          "indexed": true,
          "internalType": "uint256",
          "name": "requestId",
          "type": "uint256"
        },
        {
          "indexed": true,
          "internalType": "address",
          "name": "trustee",
          "type": "address"
        }
      ],
      "name": "FundingRequestApproved",
      "type": "event"
    },
    {
      "anonymous": false,
      "inputs": [
        {
          "indexed": true,
          "internalType": "uint256",
          "name": "requestId",
          "type": "uint256"
        },
        {
          "indexed": true,
          "internalType": "address",
          "name": "requester",
          "type": "address"
        },
        {
          "indexed": false,
          "internalType": "uint256",
          "name": "amount",
          "type": "uint256"
        }
      ],
      "name": "FundingRequestCreated",
      "type": "event"
    },
    {
      "anonymous": false,
      "inputs": [
        {
          "indexed": true,
          "internalType": "uint256",
          "name": "requestId",
          "type": "uint256"
        },
        {
          "indexed": true,
          "internalType": "address",
          "name": "recipient",
          "type": "address"
        }
      ],
      "name": "FundingRequestExecuted",
      "type": "event"
    },
    {
      "anonymous": false,
      "inputs": [
        {
          "indexed": true,
          "internalType": "address",
          "name": "recipient",
          "type": "address"
        },
        {
          "indexed": false,
          "internalType": "uint256",
          "name": "amount",
          "type": "uint256"
        },
        {
          "indexed": false,
          "internalType": "string",
          "name": "purpose",
          "type": "string"
        }
      ],
      "name": "FundsAllocated",
      "type": "event"
    },
    {
      "anonymous": false,
      "inputs": [
        {
          "indexed": true,
          "internalType": "address",
          "name": "_to",
          "type": "address"
        },
        {
          "indexed": true,
          "internalType": "uint256",
          "name": "_amount",
          "type": "uint256"
        }
      ],
      "name": "MintSuccess",
      "type": "event"
    },
    {
      "anonymous": false,
      "inputs": [
        {
          "indexed": true,
          "internalType": "uint256",
          "name": "proposalId",
          "type": "uint256"
        },
        {
          "indexed": false,
          "internalType": "address",
          "name": "approver",
          "type": "address"
        }
      ],
      "name": "MultiSigProposalApproved",
      "type": "event"
    },
    {
      "anonymous": false,
      "inputs": [
        {
          "indexed": true,
          "internalType": "uint256",
          "name": "proposalId",
          "type": "uint256"
        },
        {
          "indexed": false,
          "internalType": "address",
          "name": "proposer",
          "type": "address"
        }
      ],
      "name": "MultiSigProposalCreated",
      "type": "event"
    },
    {
      "anonymous": false,
      "inputs": [
        {
          "indexed": true,
          "internalType": "uint256",
          "name": "proposalId",
          "type": "uint256"
        }
      ],
      "name": "MultiSigProposalExecuted",
      "type": "event"
    },
    {
      "anonymous": false,
      "inputs": [
        {
          "indexed": true,
          "internalType": "address",
          "name": "reviewer",
          "type": "address"
        }
      ],
      "name": "ReviewerAddedToPool",
      "type": "event"
    },
    {
      "anonymous": false,
      "inputs": [
        {
          "indexed": true,
          "internalType": "address",
          "name": "reviewer",
          "type": "address"
        }
      ],
      "name": "ReviewerRemovedFromPool",
      "type": "event"
    },
    {
      "anonymous": false,
      "inputs": [
        {
          "indexed": true,
          "internalType": "bytes32",
          "name": "role",
          "type": "bytes32"
        },
        {
          "indexed": true,
          "internalType": "bytes32",
          "name": "previousAdminRole",
          "type": "bytes32"
        },
        {
          "indexed": true,
          "internalType": "bytes32",
          "name": "newAdminRole",
          "type": "bytes32"
        }
      ],
      "name": "RoleAdminChanged",
      "type": "event"
    },
    {
      "anonymous": false,
      "inputs": [
        {
          "indexed": true,
          "internalType": "bytes32",
          "name": "role",
          "type": "bytes32"
        },
        {
          "indexed": true,
          "internalType": "address",
          "name": "account",
          "type": "address"
        },
        {
          "indexed": true,
          "internalType": "address",
          "name": "sender",
          "type": "address"
        }
      ],
      "name": "RoleGranted",
      "type": "event"
    },
    {
      "anonymous": false,
      "inputs": [
        {
          "indexed": true,
          "internalType": "bytes32",
          "name": "role",
          "type": "bytes32"
        },
        {
          "indexed": true,
          "internalType": "address",
          "name": "account",
          "type": "address"
        },
        {
          "indexed": true,
          "internalType": "address",
          "name": "sender",
          "type": "address"
        }
      ],
      "name": "RoleRevoked",
      "type": "event"
    },
    {
      "anonymous": false,
      "inputs": [
        {
          "indexed": true,
          "internalType": "address",
          "name": "from",
          "type": "address"
        },
        {
          "indexed": true,
          "internalType": "address",
          "name": "to",
          "type": "address"
        },
        {
          "indexed": false,
          "internalType": "uint256",
          "name": "value",
          "type": "uint256"
        }
      ],
      "name": "Transfer",
      "type": "event"
    },
    {
      "anonymous": false,
      "inputs": [
        {
          "indexed": true,
          "internalType": "address",
          "name": "_to",
          "type": "address"
        },
        {
          "indexed": true,
          "internalType": "uint256",
          "name": "_amount",
          "type": "uint256"
        }
      ],
      "name": "TreasuryPoolUpdate",
      "type": "event"
    },
    {
      "anonymous": false,
      "inputs": [
        {
          "indexed": true,
          "internalType": "address",
          "name": "recipient",
          "type": "address"
        },
        {
          "indexed": false,
          "internalType": "uint256",
          "name": "amount",
          "type": "uint256"
        }
      ],
      "name": "WithdrawalSuccess",
      "type": "event"
    },
    {
      "inputs": [],
      "name": "DEFAULT_ADMIN_ROLE",
      "outputs": [
        {
          "internalType": "bytes32",
          "name": "",
          "type": "bytes32"
        }
      ],
      "stateMutability": "view",
      "type": "function"
    },
    {
      "inputs": [],
      "name": "MAX_FUNDING_REQUEST_DURATION",
      "outputs": [
        {
          "internalType": "uint256",
          "name": "",
          "type": "uint256"
        }
      ],
      "stateMutability": "view",
      "type": "function"
    },
    {
      "inputs": [],
      "name": "MAX_SUPPLY",
      "outputs": [
        {
          "internalType": "uint256",
          "name": "",
          "type": "uint256"
        }
      ],
      "stateMutability": "view",
      "type": "function"
    },
    {
      "inputs": [],
      "name": "MULTISIG_APPROVER",
      "outputs": [
        {
          "internalType": "bytes32",
          "name": "",
          "type": "bytes32"
        }
      ],
      "stateMutability": "view",
      "type": "function"
    },
    {
      "inputs": [],
      "name": "REVIEWER_ROLE",
      "outputs": [
        {
          "internalType": "bytes32",
          "name": "",
          "type": "bytes32"
        }
      ],
      "stateMutability": "view",
      "type": "function"
    },
    {
      "inputs": [],
      "name": "TREASURER",
      "outputs": [
        {
          "internalType": "bytes32",
          "name": "",
          "type": "bytes32"
        }
      ],
      "stateMutability": "view",
      "type": "function"
    },
    {
      "inputs": [],
      "name": "TREASURY_POOL",
      "outputs": [
        {
          "internalType": "uint256",
          "name": "",
          "type": "uint256"
        }
      ],
      "stateMutability": "view",
      "type": "function"
    },
    {
      "inputs": [],
      "name": "TRUSTEE",
      "outputs": [
        {
          "internalType": "bytes32",
          "name": "",
          "type": "bytes32"
        }
      ],
      "stateMutability": "view",
      "type": "function"
    },
    {
      "inputs": [
        {
          "internalType": "address",
          "name": "newReviewer",
          "type": "address"
        }
      ],
      "name": "addReviewer",
      "outputs": [],
      "stateMutability": "nonpayable",
      "type": "function"
    },
    {
      "inputs": [
        {
          "internalType": "address",
          "name": "_trustee",
          "type": "address"
        }
      ],
      "name": "addTrustee",
      "outputs": [
        {
          "internalType": "bool",
          "name": "",
          "type": "bool"
        }
      ],
      "stateMutability": "nonpayable",
      "type": "function"
    },
    {
      "inputs": [
        {
          "internalType": "address",
          "name": "recipient",
          "type": "address"
        },
        {
          "internalType": "uint256",
          "name": "amount",
          "type": "uint256"
        },
        {
          "internalType": "string",
          "name": "purpose",
          "type": "string"
        }
      ],
      "name": "allocateFunds",
      "outputs": [],
      "stateMutability": "nonpayable",
      "type": "function"
    },
    {
      "inputs": [
        {
          "internalType": "address",
          "name": "",
          "type": "address"
        }
      ],
      "name": "allocations",
      "outputs": [
        {
          "internalType": "uint256",
          "name": "",
          "type": "uint256"
        }
      ],
      "stateMutability": "view",
      "type": "function"
    },
    {
      "inputs": [
        {
          "internalType": "address",
          "name": "owner",
          "type": "address"
        },
        {
          "internalType": "address",
          "name": "spender",
          "type": "address"
        }
      ],
      "name": "allowance",
      "outputs": [
        {
          "internalType": "uint256",
          "name": "",
          "type": "uint256"
        }
      ],
      "stateMutability": "view",
      "type": "function"
    },
    {
      "inputs": [
        {
          "internalType": "address",
          "name": "spender",
          "type": "address"
        },
        {
          "internalType": "uint256",
          "name": "value",
          "type": "uint256"
        }
      ],
      "name": "approve",
      "outputs": [
        {
          "internalType": "bool",
          "name": "",
          "type": "bool"
        }
      ],
      "stateMutability": "nonpayable",
      "type": "function"
    },
    {
      "inputs": [
        {
          "internalType": "uint256",
          "name": "requestId",
          "type": "uint256"
        }
      ],
      "name": "approveFundingRequest",
      "outputs": [],
      "stateMutability": "nonpayable",
      "type": "function"
    },
    {
      "inputs": [
        {
          "internalType": "uint256",
          "name": "_proposalId",
          "type": "uint256"
        }
      ],
      "name": "approveMultiSigProposal",
      "outputs": [],
      "stateMutability": "nonpayable",
      "type": "function"
    },
    {
      "inputs": [
        {
          "internalType": "address",
          "name": "account",
          "type": "address"
        }
      ],
      "name": "balanceOf",
      "outputs": [
        {
          "internalType": "uint256",
          "name": "",
          "type": "uint256"
        }
      ],
      "stateMutability": "view",
      "type": "function"
    },
    {
      "inputs": [],
      "name": "contractBalance",
      "outputs": [
        {
          "internalType": "uint256",
          "name": "",
          "type": "uint256"
        }
      ],
      "stateMutability": "view",
      "type": "function"
    },
    {
      "inputs": [],
      "name": "decimals",
      "outputs": [
        {
          "internalType": "uint8",
          "name": "",
          "type": "uint8"
        }
      ],
      "stateMutability": "view",
      "type": "function"
    },
    {
      "inputs": [
        {
          "internalType": "uint256",
          "name": "amount",
          "type": "uint256"
        }
      ],
      "name": "deposit",
      "outputs": [
        {
          "internalType": "bool",
          "name": "",
          "type": "bool"
        }
      ],
      "stateMutability": "payable",
      "type": "function"
    },
    {
      "inputs": [
        {
          "internalType": "uint256",
          "name": "",
          "type": "uint256"
        }
      ],
      "name": "fundingRequests",
      "outputs": [
        {
          "internalType": "address",
          "name": "requester",
          "type": "address"
        },
        {
          "internalType": "address",
          "name": "recipient",
          "type": "address"
        },
        {
          "internalType": "uint256",
          "name": "amount",
          "type": "uint256"
        },
        {
          "internalType": "string",
          "name": "purpose",
          "type": "string"
        },
        {
          "internalType": "uint256",
          "name": "createdAt",
          "type": "uint256"
        },
        {
          "internalType": "uint256",
          "name": "approvalCount",
          "type": "uint256"
        },
        {
          "internalType": "bool",
          "name": "executed",
          "type": "bool"
        }
      ],
      "stateMutability": "view",
      "type": "function"
    },
    {
      "inputs": [],
      "name": "getContractBalance",
      "outputs": [
        {
          "internalType": "uint256",
          "name": "",
          "type": "uint256"
        }
      ],
      "stateMutability": "view",
      "type": "function"
    },
    {
      "inputs": [
        {
          "internalType": "bytes32",
          "name": "role",
          "type": "bytes32"
        }
      ],
      "name": "getRoleAdmin",
      "outputs": [
        {
          "internalType": "bytes32",
          "name": "",
          "type": "bytes32"
        }
      ],
      "stateMutability": "view",
      "type": "function"
    },
    {
      "inputs": [],
      "name": "getTrusteesCount",
      "outputs": [
        {
          "internalType": "uint256",
          "name": "",
          "type": "uint256"
        }
      ],
      "stateMutability": "view",
      "type": "function"
    },
    {
      "inputs": [
        {
          "internalType": "bytes32",
          "name": "role",
          "type": "bytes32"
        },
        {
          "internalType": "address",
          "name": "account",
          "type": "address"
        }
      ],
      "name": "grantRole",
      "outputs": [],
      "stateMutability": "nonpayable",
      "type": "function"
    },
    {
      "inputs": [
        {
          "internalType": "bytes32",
          "name": "role",
          "type": "bytes32"
        },
        {
          "internalType": "address",
          "name": "account",
          "type": "address"
        }
      ],
      "name": "hasRole",
      "outputs": [
        {
          "internalType": "bool",
          "name": "",
          "type": "bool"
        }
      ],
      "stateMutability": "view",
      "type": "function"
    },
    {
      "inputs": [
        {
          "internalType": "address",
          "name": "",
          "type": "address"
        }
      ],
      "name": "isInReviewerPool",
      "outputs": [
        {
          "internalType": "bool",
          "name": "",
          "type": "bool"
        }
      ],
      "stateMutability": "view",
      "type": "function"
    },
    {
      "inputs": [
        {
          "internalType": "address",
          "name": "account",
          "type": "address"
        }
      ],
      "name": "isReviewer",
      "outputs": [
        {
          "internalType": "bool",
          "name": "",
          "type": "bool"
        }
      ],
      "stateMutability": "view",
      "type": "function"
    },
    {
      "inputs": [],
      "name": "marketingSpent",
      "outputs": [
        {
          "internalType": "uint256",
          "name": "",
          "type": "uint256"
        }
      ],
      "stateMutability": "view",
      "type": "function"
    },
    {
      "inputs": [
        {
          "internalType": "uint256",
          "name": "",
          "type": "uint256"
        }
      ],
      "name": "multiSigProposals",
      "outputs": [
        {
          "internalType": "uint256",
          "name": "id",
          "type": "uint256"
        },
        {
          "internalType": "address",
          "name": "proposer",
          "type": "address"
        },
        {
          "internalType": "address",
          "name": "targetContract",
          "type": "address"
        },
        {
          "internalType": "bytes",
          "name": "data",
          "type": "bytes"
        },
        {
          "internalType": "uint256",
          "name": "approvalCount",
          "type": "uint256"
        },
        {
          "internalType": "bool",
          "name": "executed",
          "type": "bool"
        }
      ],
      "stateMutability": "view",
      "type": "function"
    },
    {
      "inputs": [],
      "name": "name",
      "outputs": [
        {
          "internalType": "string",
          "name": "",
          "type": "string"
        }
      ],
      "stateMutability": "view",
      "type": "function"
    },
    {
      "inputs": [],
      "name": "nextRequestId",
      "outputs": [
        {
          "internalType": "uint256",
          "name": "",
          "type": "uint256"
        }
      ],
      "stateMutability": "view",
      "type": "function"
    },
    {
      "inputs": [
        {
          "internalType": "address",
          "name": "reviewer",
          "type": "address"
        }
      ],
      "name": "removeReviewer",
      "outputs": [],
      "stateMutability": "nonpayable",
      "type": "function"
    },
    {
      "inputs": [
        {
          "internalType": "bytes32",
          "name": "role",
          "type": "bytes32"
        },
        {
          "internalType": "address",
          "name": "callerConfirmation",
          "type": "address"
        }
      ],
      "name": "renounceRole",
      "outputs": [],
      "stateMutability": "nonpayable",
      "type": "function"
    },
    {
      "inputs": [
        {
          "internalType": "address",
          "name": "to",
          "type": "address"
        },
        {
          "internalType": "uint256",
          "name": "amount",
          "type": "uint256"
        },
        {
          "internalType": "string",
          "name": "purpose",
          "type": "string"
        }
      ],
      "name": "requestFunding",
      "outputs": [
        {
          "internalType": "uint256",
          "name": "",
          "type": "uint256"
        }
      ],
      "stateMutability": "nonpayable",
      "type": "function"
    },
    {
      "inputs": [],
      "name": "reserveFunds",
      "outputs": [
        {
          "internalType": "uint256",
          "name": "",
          "type": "uint256"
        }
      ],
      "stateMutability": "view",
      "type": "function"
    },
    {
      "inputs": [
        {
          "internalType": "uint256",
          "name": "",
          "type": "uint256"
        }
      ],
      "name": "reviewerPool",
      "outputs": [
        {
          "internalType": "address",
          "name": "",
          "type": "address"
        }
      ],
      "stateMutability": "view",
      "type": "function"
    },
    {
      "inputs": [
        {
          "internalType": "bytes32",
          "name": "role",
          "type": "bytes32"
        },
        {
          "internalType": "address",
          "name": "account",
          "type": "address"
        }
      ],
      "name": "revokeRole",
      "outputs": [],
      "stateMutability": "nonpayable",
      "type": "function"
    },
    {
      "inputs": [
        {
          "internalType": "address",
          "name": "_trustee",
          "type": "address"
        }
      ],
      "name": "revokeTrustee",
      "outputs": [
        {
          "internalType": "bool",
          "name": "",
          "type": "bool"
        }
      ],
      "stateMutability": "nonpayable",
      "type": "function"
    },
    {
      "inputs": [
        {
          "internalType": "bytes4",
          "name": "interfaceId",
          "type": "bytes4"
        }
      ],
      "name": "supportsInterface",
      "outputs": [
        {
          "internalType": "bool",
          "name": "",
          "type": "bool"
        }
      ],
      "stateMutability": "view",
      "type": "function"
    },
    {
      "inputs": [],
      "name": "symbol",
      "outputs": [
        {
          "internalType": "string",
          "name": "",
          "type": "string"
        }
      ],
      "stateMutability": "view",
      "type": "function"
    },
    {
      "inputs": [],
      "name": "totalSupply",
      "outputs": [
        {
          "internalType": "uint256",
          "name": "",
          "type": "uint256"
        }
      ],
      "stateMutability": "view",
      "type": "function"
    },
    {
      "inputs": [
        {
          "internalType": "address",
          "name": "to",
          "type": "address"
        },
        {
          "internalType": "uint256",
          "name": "value",
          "type": "uint256"
        }
      ],
      "name": "transfer",
      "outputs": [
        {
          "internalType": "bool",
          "name": "",
          "type": "bool"
        }
      ],
      "stateMutability": "nonpayable",
      "type": "function"
    },
    {
      "inputs": [
        {
          "internalType": "address",
          "name": "from",
          "type": "address"
        },
        {
          "internalType": "address",
          "name": "to",
          "type": "address"
        },
        {
          "internalType": "uint256",
          "name": "value",
          "type": "uint256"
        }
      ],
      "name": "transferFrom",
      "outputs": [
        {
          "internalType": "bool",
          "name": "",
          "type": "bool"
        }
      ],
      "stateMutability": "nonpayable",
      "type": "function"
    },
    {
      "inputs": [],
      "name": "treasuryPoolSupply",
      "outputs": [
        {
          "internalType": "uint256",
          "name": "",
          "type": "uint256"
        }
      ],
      "stateMutability": "view",
      "type": "function"
    },
    {
      "inputs": [],
      "name": "viewPoolDetails",
      "outputs": [
        {
          "internalType": "uint256",
          "name": "",
          "type": "uint256"
        },
        {
          "internalType": "uint256",
          "name": "",
          "type": "uint256"
        },
        {
          "internalType": "uint256",
          "name": "",
          "type": "uint256"
        }
      ],
      "stateMutability": "view",
      "type": "function"
    },
    {
      "inputs": [
        {
          "internalType": "uint256",
          "name": "amount",
          "type": "uint256"
        }
      ],
      "name": "withdraw",
      "outputs": [],
      "stateMutability": "nonpayable",
      "type": "function"
    }
  ],
  "bytecode": "0x608060405234801561001057600080fd5b50604051615b28380380615b2883398181016040528101906100329190610623565b806040518060400160405280600a81526020017f4142594120544f4b454e000000000000000000000000000000000000000000008152506040518060400160405280600681526020017f414259544b4e000000000000000000000000000000000000000000000000000081525081600390816100ae919061088d565b5080600490816100be919061088d565b505050600481511015610106576040517f08c379a00000000000000000000000000000000000000000000000000000000081526004016100fd906109e2565b60405180910390fd5b6101196000801b336102e760201b60201c565b5061014a7fdf1425bae297c2f52b4f15d18a50b1fc8cb5b981a981b1d213ed3ff92681b64d336102e760201b60201c565b5060005b815181101561029e576101a17fc10c77be35aff266144ed64c26a1fa104bae2f284ae99ac4a34203454704a18583838151811061018e5761018d610a02565b5b60200260200101516102e760201b60201c565b5060068282815181106101b7576101b6610a02565b5b60200260200101519080600181540180825580915050600190039060005260206000200160009091909190916101000a81548173ffffffffffffffffffffffffffffffffffffffff021916908373ffffffffffffffffffffffffffffffffffffffff16021790555060016008600084848151811061023857610237610a02565b5b602002602001015173ffffffffffffffffffffffffffffffffffffffff1673ffffffffffffffffffffffffffffffffffffffff16815260200190815260200160002060006101000a81548160ff021916908315150217905550808060010191505061014e565b50506001600a819055506102d87f8d9233e8f9e0681d692bebdd2fd8c8863336d587e831d84b9bff9f403d549b5f336102e760201b60201c565b506001600e8190555050610a31565b60006102f983836103e560201b60201c565b6103da5760016005600085815260200190815260200160002060000160008473ffffffffffffffffffffffffffffffffffffffff1673ffffffffffffffffffffffffffffffffffffffff16815260200190815260200160002060006101000a81548160ff02191690831515021790555061037761045060201b60201c565b73ffffffffffffffffffffffffffffffffffffffff168273ffffffffffffffffffffffffffffffffffffffff16847f2f8788117e7eff1d82e926ec794901d17c78024a50270940304540a733656f0d60405160405180910390a4600190506103df565b600090505b92915050565b60006005600084815260200190815260200160002060000160008373ffffffffffffffffffffffffffffffffffffffff1673ffffffffffffffffffffffffffffffffffffffff16815260200190815260200160002060009054906101000a900460ff16905092915050565b600033905090565b6000604051905090565b600080fd5b600080fd5b600080fd5b6000601f19601f8301169050919050565b7f4e487b7100000000000000000000000000000000000000000000000000000000600052604160045260246000fd5b6104ba82610471565b810181811067ffffffffffffffff821117156104d9576104d8610482565b5b80604052505050565b60006104ec610458565b90506104f882826104b1565b919050565b600067ffffffffffffffff82111561051857610517610482565b5b602082029050602081019050919050565b600080fd5b600073ffffffffffffffffffffffffffffffffffffffff82169050919050565b60006105598261052e565b9050919050565b6105698161054e565b811461057457600080fd5b50565b60008151905061058681610560565b92915050565b600061059f61059a846104fd565b6104e2565b905080838252602082019050602084028301858111156105c2576105c1610529565b5b835b818110156105eb57806105d78882610577565b8452602084019350506020810190506105c4565b5050509392505050565b600082601f83011261060a5761060961046c565b5b815161061a84826020860161058c565b91505092915050565b60006020828403121561063957610638610462565b5b600082015167ffffffffffffffff81111561065757610656610467565b5b610663848285016105f5565b91505092915050565b600081519050919050565b7f4e487b7100000000000000000000000000000000000000000000000000000000600052602260045260246000fd5b600060028204905060018216806106be57607f821691505b6020821081036106d1576106d0610677565b5b50919050565b60008190508160005260206000209050919050565b60006020601f8301049050919050565b600082821b905092915050565b6000600883026107397fffffffffffffffffffffffffffffffffffffffffffffffffffffffffffffffff826106fc565b61074386836106fc565b95508019841693508086168417925050509392505050565b6000819050919050565b6000819050919050565b600061078a6107856107808461075b565b610765565b61075b565b9050919050565b6000819050919050565b6107a48361076f565b6107b86107b082610791565b848454610709565b825550505050565b600090565b6107cd6107c0565b6107d881848461079b565b505050565b5b818110156107fc576107f16000826107c5565b6001810190506107de565b5050565b601f82111561084157610812816106d7565b61081b846106ec565b8101602085101561082a578190505b61083e610836856106ec565b8301826107dd565b50505b505050565b600082821c905092915050565b600061086460001984600802610846565b1980831691505092915050565b600061087d8383610853565b9150826002028217905092915050565b6108968261066c565b67ffffffffffffffff8111156108af576108ae610482565b5b6108b982546106a6565b6108c4828285610800565b600060209050601f8311600181146108f757600084156108e5578287015190505b6108ef8582610871565b865550610957565b601f198416610905866106d7565b60005b8281101561092d57848901518255600182019150602085019450602081019050610908565b8683101561094a5784890151610946601f891682610853565b8355505b6001600288020188555050505b505050505050565b600082825260208201905092915050565b7f4174206c6561737420342072657669657765727320617265207265717569726560008201527f6400000000000000000000000000000000000000000000000000000000000000602082015250565b60006109cc60218361095f565b91506109d782610970565b604082019050919050565b600060208201905081810360008301526109fb816109bf565b9050919050565b7f4e487b7100000000000000000000000000000000000000000000000000000000600052603260045260246000fd5b6150e880610a406000396000f3fe6080604052600436106102885760003560e01c80636f9fb98a1161015a578063a9059cbb116100c1578063d547741f1161007a578063d547741f14610a70578063dc78ac1c14610a99578063dd62ed3e14610ad6578063ec2becdc14610b13578063fb1849ee14610b3c578063fdc6258a14610b6757610288565b8063a9059cbb14610931578063b6b55f251461096e578063ba5614861461099e578063bad0dd65146109e1578063c491b04c14610a0a578063c9442dac14610a4757610288565b80638ada7007116101135780638ada70071461080d5780638b7afe2e1461083657806391d148541461086157806395d89b411461089e5780639aea9620146108c9578063a217fddf1461090657610288565b80636f9fb98a146106e957806370a082311461071457806372a9e2321461075157806373a82b5f1461077c5780638562c003146107a5578063881cf23b146107e257610288565b80632f2ff15d116101fe57806340932bf8116101b757806340932bf8146105be578063436e64111461060057806352994e2f1461062b57806352a9039c14610656578063642e6c92146106935780636a84a985146106be57610288565b80632f2ff15d146104c0578063313ce567146104e957806332cb6b0c1461051457806336568abe1461053f57806339ab4b7c146105685780633b129a561461059357610288565b806318160ddd1161025057806318160ddd1461038a57806319f102ec146103b55780631ee46f9c146103f257806323b872dd1461041d578063248a9ca31461045a5780632e1a7d4d1461049757610288565b806301ffc9a71461028d57806306fdde03146102ca578063095ea7b3146102f55780630a4ef5f5146103325780630f813ae11461035f575b600080fd5b34801561029957600080fd5b506102b460048036038101906102af91906137ea565b610ba4565b6040516102c19190613832565b60405180910390f35b3480156102d657600080fd5b506102df610c1e565b6040516102ec91906138dd565b60405180910390f35b34801561030157600080fd5b5061031c60048036038101906103179190613993565b610cb0565b6040516103299190613832565b60405180910390f35b34801561033e57600080fd5b50610347610cd3565b604051610356939291906139e2565b60405180910390f35b34801561036b57600080fd5b50610374610cec565b6040516103819190613a19565b60405180910390f35b34801561039657600080fd5b5061039f610cfd565b6040516103ac9190613a19565b60405180910390f35b3480156103c157600080fd5b506103dc60048036038101906103d79190613a34565b610d07565b6040516103e99190613a70565b60405180910390f35b3480156103fe57600080fd5b50610407610d46565b6040516104149190613a19565b60405180910390f35b34801561042957600080fd5b50610444600480360381019061043f9190613a8b565b610d4c565b6040516104519190613832565b60405180910390f35b34801561046657600080fd5b50610481600480360381019061047c9190613b14565b610d7b565b60405161048e9190613b50565b60405180910390f35b3480156104a357600080fd5b506104be60048036038101906104b99190613a34565b610d9b565b005b3480156104cc57600080fd5b506104e760048036038101906104e29190613b6b565b611056565b005b3480156104f557600080fd5b506104fe611078565b60405161050b9190613bc7565b60405180910390f35b34801561052057600080fd5b50610529611081565b6040516105369190613a19565b60405180910390f35b34801561054b57600080fd5b5061056660048036038101906105619190613b6b565b611091565b005b34801561057457600080fd5b5061057d61110c565b60405161058a9190613a19565b60405180910390f35b34801561059f57600080fd5b506105a8611112565b6040516105b59190613b50565b60405180910390f35b3480156105ca57600080fd5b506105e560048036038101906105e09190613a34565b611136565b6040516105f796959493929190613c37565b60405180910390f35b34801561060c57600080fd5b50610615611247565b6040516106229190613a19565b60405180910390f35b34801561063757600080fd5b5061064061126f565b60405161064d9190613b50565b60405180910390f35b34801561066257600080fd5b5061067d60048036038101906106789190613c9f565b611293565b60405161068a9190613a19565b60405180910390f35b34801561069f57600080fd5b506106a86112ab565b6040516106b59190613a19565b60405180910390f35b3480156106ca57600080fd5b506106d36112b2565b6040516106e09190613a19565b60405180910390f35b3480156106f557600080fd5b506106fe6112b8565b60405161070b9190613a19565b60405180910390f35b34801561072057600080fd5b5061073b60048036038101906107369190613c9f565b6112c2565b6040516107489190613a19565b60405180910390f35b34801561075d57600080fd5b5061076661130a565b6040516107739190613a19565b60405180910390f35b34801561078857600080fd5b506107a3600480360381019061079e9190613c9f565b611310565b005b3480156107b157600080fd5b506107cc60048036038101906107c79190613e01565b6114f4565b6040516107d99190613a19565b60405180910390f35b3480156107ee57600080fd5b506107f76116de565b6040516108049190613b50565b60405180910390f35b34801561081957600080fd5b50610834600480360381019061082f9190613e01565b611702565b005b34801561084257600080fd5b5061084b61190b565b6040516108589190613a19565b60405180910390f35b34801561086d57600080fd5b5061088860048036038101906108839190613b6b565b611911565b6040516108959190613832565b60405180910390f35b3480156108aa57600080fd5b506108b361197c565b6040516108c091906138dd565b60405180910390f35b3480156108d557600080fd5b506108f060048036038101906108eb9190613c9f565b611a0e565b6040516108fd9190613832565b60405180910390f35b34801561091257600080fd5b5061091b611ac2565b6040516109289190613b50565b60405180910390f35b34801561093d57600080fd5b5061095860048036038101906109539190613993565b611ac9565b6040516109659190613832565b60405180910390f35b61098860048036038101906109839190613a34565b611aec565b6040516109959190613832565b60405180910390f35b3480156109aa57600080fd5b506109c560048036038101906109c09190613a34565b611bbc565b6040516109d89796959493929190613e70565b60405180910390f35b3480156109ed57600080fd5b50610a086004803603810190610a039190613a34565b611cd3565b005b348015610a1657600080fd5b50610a316004803603810190610a2c9190613c9f565b611fd2565b604051610a3e9190613832565b60405180910390f35b348015610a5357600080fd5b50610a6e6004803603810190610a699190613c9f565b611ff2565b005b348015610a7c57600080fd5b50610a976004803603810190610a929190613b6b565b6122dc565b005b348015610aa557600080fd5b50610ac06004803603810190610abb9190613c9f565b6122fe565b604051610acd9190613832565b60405180910390f35b348015610ae257600080fd5b50610afd6004803603810190610af89190613ee6565b612421565b604051610b0a9190613a19565b60405180910390f35b348015610b1f57600080fd5b50610b3a6004803603810190610b359190613a34565b6124a8565b005b348015610b4857600080fd5b50610b516127c6565b604051610b5e9190613b50565b60405180910390f35b348015610b7357600080fd5b50610b8e6004803603810190610b899190613c9f565b6127ea565b604051610b9b9190613832565b60405180910390f35b60007f7965db0b000000000000000000000000000000000000000000000000000000007bffffffffffffffffffffffffffffffffffffffffffffffffffffffff1916827bffffffffffffffffffffffffffffffffffffffffffffffffffffffff19161480610c175750610c168261281d565b5b9050919050565b606060038054610c2d90613f55565b80601f0160208091040260200160405190810160405280929190818152602001828054610c5990613f55565b8015610ca65780601f10610c7b57610100808354040283529160200191610ca6565b820191906000526020600020905b815481529060010190602001808311610c8957829003601f168201915b5050505050905090565b600080610cbb612887565b9050610cc881858561288f565b600191505092915050565b6000806000600d54600b54600c54925092509250909192565b6000610cf860126128a1565b905090565b6000600254905090565b60068181548110610d1757600080fd5b906000526020600020016000915054906101000a900473ffffffffffffffffffffffffffffffffffffffff1681565b600b5481565b600080610d57612887565b9050610d648582856128b6565b610d6f85858561294a565b60019150509392505050565b600060056000838152602001908152602001600020600101549050919050565b7f8d9233e8f9e0681d692bebdd2fd8c8863336d587e831d84b9bff9f403d549b5f610dc581612a3e565b610dcd612a52565b60008211610e10576040517f08c379a0000000000000000000000000000000000000000000000000000000008152600401610e0790613ff8565b60405180910390fd5b47821115610e53576040517f08c379a0000000000000000000000000000000000000000000000000000000008152600401610e4a9061408a565b60405180910390fd5b600f54821115610e98576040517f08c379a0000000000000000000000000000000000000000000000000000000008152600401610e8f9061411c565b60405180910390fd5b600082604051602401610eab9190613a19565b6040516020818303038152906040527fff4d7128000000000000000000000000000000000000000000000000000000007bffffffffffffffffffffffffffffffffffffffffffffffffffffffff19166020820180517bffffffffffffffffffffffffffffffffffffffffffffffffffffffff83818316178352505050509050610f343082612a98565b5060003373ffffffffffffffffffffffffffffffffffffffff1684604051610f5b9061416d565b60006040518083038185875af1925050503d8060008114610f98576040519150601f19603f3d011682016040523d82523d6000602084013e610f9d565b606091505b5050905080610fe1576040517f08c379a0000000000000000000000000000000000000000000000000000000008152600401610fd8906141f4565b60405180910390fd5b83600f6000828254610ff39190614243565b925050819055503373ffffffffffffffffffffffffffffffffffffffff167fef37270ffd4697852e825c7f163a2505cfbd2d7849a69b6ad9c8829d7f90484a856040516110409190613a19565b60405180910390a25050611052612c87565b5050565b61105f82610d7b565b61106881612a3e565b6110728383612c91565b50505050565b60006012905090565b6b204fce5e3e2502611000000081565b611099612887565b73ffffffffffffffffffffffffffffffffffffffff168173ffffffffffffffffffffffffffffffffffffffff16146110fd576040517f6697b23200000000000000000000000000000000000000000000000000000000815260040160405180910390fd5b6111078282612d83565b505050565b600d5481565b7fc10c77be35aff266144ed64c26a1fa104bae2f284ae99ac4a34203454704a18581565b60096020528060005260406000206000915090508060000154908060010160009054906101000a900473ffffffffffffffffffffffffffffffffffffffff16908060020160009054906101000a900473ffffffffffffffffffffffffffffffffffffffff16908060030180546111ab90613f55565b80601f01602080910402602001604051908101604052809291908181526020018280546111d790613f55565b80156112245780601f106111f957610100808354040283529160200191611224565b820191906000526020600020905b81548152906001019060200180831161120757829003601f168201915b5050505050908060040154908060050160009054906101000a900460ff16905086565b606460146b204fce5e3e250261100000006112629190614277565b61126c91906142e8565b81565b7fdf1425bae297c2f52b4f15d18a50b1fc8cb5b981a981b1d213ed3ff92681b64d81565b60106020528060005260406000206000915090505481565b62278d0081565b600e5481565b6000600f54905090565b60008060008373ffffffffffffffffffffffffffffffffffffffff1673ffffffffffffffffffffffffffffffffffffffff168152602001908152602001600020549050919050565b600c5481565b7fc10c77be35aff266144ed64c26a1fa104bae2f284ae99ac4a34203454704a18561133a81612a3e565b600860008373ffffffffffffffffffffffffffffffffffffffff1673ffffffffffffffffffffffffffffffffffffffff16815260200190815260200160002060009054906101000a900460ff16156113c7576040517f08c379a00000000000000000000000000000000000000000000000000000000081526004016113be90614365565b60405180910390fd5b6113f17fc10c77be35aff266144ed64c26a1fa104bae2f284ae99ac4a34203454704a18583612c91565b506006829080600181540180825580915050600190039060005260206000200160009091909190916101000a81548173ffffffffffffffffffffffffffffffffffffffff021916908373ffffffffffffffffffffffffffffffffffffffff1602179055506001600860008473ffffffffffffffffffffffffffffffffffffffff1673ffffffffffffffffffffffffffffffffffffffff16815260200190815260200160002060006101000a81548160ff0219169083151502179055508173ffffffffffffffffffffffffffffffffffffffff167fe1cb5e1230cc02e62c60b81c1aa5ade512f3eac296edb28628b4cf344f47f93160405160405180910390a25050565b60008073ffffffffffffffffffffffffffffffffffffffff168473ffffffffffffffffffffffffffffffffffffffff1603611564576040517f08c379a000000000000000000000000000000000000000000000000000000000815260040161155b906143d1565b60405180910390fd5b600083116115a7576040517f08c379a000000000000000000000000000000000000000000000000000000000815260040161159e90614463565b60405180910390fd5b6000600e60008154809291906115bc90614483565b9190505590506000601160008381526020019081526020016000209050338160000160006101000a81548173ffffffffffffffffffffffffffffffffffffffff021916908373ffffffffffffffffffffffffffffffffffffffff160217905550858160010160006101000a81548173ffffffffffffffffffffffffffffffffffffffff021916908373ffffffffffffffffffffffffffffffffffffffff160217905550848160020181905550838160030190816116799190614677565b504281600401819055503373ffffffffffffffffffffffffffffffffffffffff16827f9d34c57b32992f32173fb0ab1d07b286ad0b0e0bc8c5e64de3045fa3f7f8187a876040516116ca9190613a19565b60405180910390a381925050509392505050565b7f2a725a6d9717b4c35d5874231ea45f47f1155516e23ff17bdd946ad79687853f81565b7f8d9233e8f9e0681d692bebdd2fd8c8863336d587e831d84b9bff9f403d549b5f61172c81612a3e565b611734612a52565b600073ffffffffffffffffffffffffffffffffffffffff168473ffffffffffffffffffffffffffffffffffffffff16036117a3576040517f08c379a000000000000000000000000000000000000000000000000000000000815260040161179a906143d1565b60405180910390fd5b600083116117e6576040517f08c379a00000000000000000000000000000000000000000000000000000000081526004016117dd90614463565b60405180910390fd5b6117f08484612e76565b5082601060008673ffffffffffffffffffffffffffffffffffffffff1673ffffffffffffffffffffffffffffffffffffffff16815260200190815260200160002060008282546118409190614749565b925050819055507f0af8a758e2e143977c734d5e012b22d6550bc58df51be42389db46d9fcb2e2e08280519060200120036118935782600b60008282546118879190614749565b925050819055506118ad565b82600c60008282546118a59190614749565b925050819055505b8373ffffffffffffffffffffffffffffffffffffffff167f375efe875f9cd6a664bdcb7c786b099b864a5ef3a60741abec505c92965932c684846040516118f592919061477d565b60405180910390a2611905612c87565b50505050565b600f5481565b60006005600084815260200190815260200160002060000160008373ffffffffffffffffffffffffffffffffffffffff1673ffffffffffffffffffffffffffffffffffffffff16815260200190815260200160002060009054906101000a900460ff16905092915050565b60606004805461198b90613f55565b80601f01602080910402602001604051908101604052809291908181526020018280546119b790613f55565b8015611a045780601f106119d957610100808354040283529160200191611a04565b820191906000526020600020905b8154815290600101906020018083116119e757829003601f168201915b5050505050905090565b60007f8d9233e8f9e0681d692bebdd2fd8c8863336d587e831d84b9bff9f403d549b5f611a3a81612a3e565b611a4e836012612fd290919063ffffffff16565b611a8d576040517f08c379a0000000000000000000000000000000000000000000000000000000008152600401611a84906147f9565b60405180910390fd5b611ab77f2a725a6d9717b4c35d5874231ea45f47f1155516e23ff17bdd946ad79687853f84612d83565b506001915050919050565b6000801b81565b600080611ad4612887565b9050611ae181858561294a565b600191505092915050565b6000611af6612a52565b600034118015611b0557508134145b611b44576040517f08c379a0000000000000000000000000000000000000000000000000000000008152600401611b3b90614865565b60405180910390fd5b34600f6000828254611b569190614749565b925050819055503073ffffffffffffffffffffffffffffffffffffffff167f60bbf3f279de4eb569cec9565dbd645a7d269bef7d4b20083d8da32ddd6e946083604051611ba39190613a19565b60405180910390a260019050611bb7612c87565b919050565b60116020528060005260406000206000915090508060000160009054906101000a900473ffffffffffffffffffffffffffffffffffffffff16908060010160009054906101000a900473ffffffffffffffffffffffffffffffffffffffff1690806002015490806003018054611c3190613f55565b80601f0160208091040260200160405190810160405280929190818152602001828054611c5d90613f55565b8015611caa5780601f10611c7f57610100808354040283529160200191611caa565b820191906000526020600020905b815481529060010190602001808311611c8d57829003601f168201915b5050505050908060040154908060050154908060060160009054906101000a900460ff16905087565b7fdf1425bae297c2f52b4f15d18a50b1fc8cb5b981a981b1d213ed3ff92681b64d611cfd81612a3e565b60006009600084815260200190815260200160002090508060050160009054906101000a900460ff1615611d66576040517f08c379a0000000000000000000000000000000000000000000000000000000008152600401611d5d906148d1565b60405180910390fd5b8060060160003373ffffffffffffffffffffffffffffffffffffffff1673ffffffffffffffffffffffffffffffffffffffff16815260200190815260200160002060009054906101000a900460ff1615611df5576040517f08c379a0000000000000000000000000000000000000000000000000000000008152600401611dec9061493d565b60405180910390fd5b60018160060160003373ffffffffffffffffffffffffffffffffffffffff1673ffffffffffffffffffffffffffffffffffffffff16815260200190815260200160002060006101000a81548160ff021916908315150217905550806004016000815480929190611e6490614483565b9190505550827f5d4ccf5f92566d140246f4ae3b9cb35dc06fff109a7748602ad77f6260fd9a6133604051611e999190613a70565b60405180910390a26003816004015410611fcd5760008160020160009054906101000a900473ffffffffffffffffffffffffffffffffffffffff1673ffffffffffffffffffffffffffffffffffffffff1682600301604051611efb91906149f5565b6000604051808303816000865af19150503d8060008114611f38576040519150601f19603f3d011682016040523d82523d6000602084013e611f3d565b606091505b5050905080611f81576040517f08c379a0000000000000000000000000000000000000000000000000000000008152600401611f7890614a58565b60405180910390fd5b60018260050160006101000a81548160ff021916908315150217905550837f7770356c29230b95943aec59d47ead11eb426a728bf5b57f7fd8597f3c0e29ba60405160405180910390a2505b505050565b60086020528060005260406000206000915054906101000a900460ff1681565b6000801b611fff81612a3e565b600860008373ffffffffffffffffffffffffffffffffffffffff1673ffffffffffffffffffffffffffffffffffffffff16815260200190815260200160002060009054906101000a900460ff1661208b576040517f08c379a000000000000000000000000000000000000000000000000000000000815260040161208290614ac4565b60405180910390fd5b60005b600680549050811015612211578273ffffffffffffffffffffffffffffffffffffffff16600682815481106120c6576120c5614ae4565b5b9060005260206000200160009054906101000a900473ffffffffffffffffffffffffffffffffffffffff1673ffffffffffffffffffffffffffffffffffffffff160361220457600660016006805490506121209190614243565b8154811061213157612130614ae4565b5b9060005260206000200160009054906101000a900473ffffffffffffffffffffffffffffffffffffffff16600682815481106121705761216f614ae4565b5b9060005260206000200160006101000a81548173ffffffffffffffffffffffffffffffffffffffff021916908373ffffffffffffffffffffffffffffffffffffffff16021790555060068054806121ca576121c9614b13565b5b6001900381819060005260206000200160006101000a81549073ffffffffffffffffffffffffffffffffffffffff02191690559055612211565b808060010191505061208e565b506000600860008473ffffffffffffffffffffffffffffffffffffffff1673ffffffffffffffffffffffffffffffffffffffff16815260200190815260200160002060006101000a81548160ff0219169083151502179055506122947fc10c77be35aff266144ed64c26a1fa104bae2f284ae99ac4a34203454704a18583612d83565b508173ffffffffffffffffffffffffffffffffffffffff167f55dba9d79522b91b615629d5f3b10c2fad2d258f1768614f4a52e937ada0d0ba60405160405180910390a25050565b6122e582610d7b565b6122ee81612a3e565b6122f88383612d83565b50505050565b60007f8d9233e8f9e0681d692bebdd2fd8c8863336d587e831d84b9bff9f403d549b5f61232a81612a3e565b600073ffffffffffffffffffffffffffffffffffffffff168373ffffffffffffffffffffffffffffffffffffffff1603612399576040517f08c379a000000000000000000000000000000000000000000000000000000000815260040161239090614bb4565b60405180910390fd5b6123ad83601261300290919063ffffffff16565b6123ec576040517f08c379a00000000000000000000000000000000000000000000000000000000081526004016123e390614c20565b60405180910390fd5b6124167f2a725a6d9717b4c35d5874231ea45f47f1155516e23ff17bdd946ad79687853f84612c91565b506001915050919050565b6000600160008473ffffffffffffffffffffffffffffffffffffffff1673ffffffffffffffffffffffffffffffffffffffff16815260200190815260200160002060008373ffffffffffffffffffffffffffffffffffffffff1673ffffffffffffffffffffffffffffffffffffffff16815260200190815260200160002054905092915050565b7f2a725a6d9717b4c35d5874231ea45f47f1155516e23ff17bdd946ad79687853f6124d281612a3e565b6124da612a52565b60006011600084815260200190815260200160002090508060060160009054906101000a900460ff1615612543576040517f08c379a000000000000000000000000000000000000000000000000000000000815260040161253a90614cb2565b60405180910390fd5b62278d0081600401546125569190614749565b421115612598576040517f08c379a000000000000000000000000000000000000000000000000000000000815260040161258f90614d44565b60405180910390fd5b8060070160003373ffffffffffffffffffffffffffffffffffffffff1673ffffffffffffffffffffffffffffffffffffffff16815260200190815260200160002060009054906101000a900460ff1615612627576040517f08c379a000000000000000000000000000000000000000000000000000000000815260040161261e90614db0565b60405180910390fd5b60018160070160003373ffffffffffffffffffffffffffffffffffffffff1673ffffffffffffffffffffffffffffffffffffffff16815260200190815260200160002060006101000a81548160ff02191690831515021790555080600501600081548092919061269690614483565b91905055503373ffffffffffffffffffffffffffffffffffffffff16837f41454604bd5a8e631d0b8698c50c1f6a4adc4852a17214e5f697bd57cd20414160405160405180910390a360026126eb60126128a1565b6126f591906142e8565b816005015411156127b9576127328160010160009054906101000a900473ffffffffffffffffffffffffffffffffffffffff168260020154612e76565b5060018160060160006101000a81548160ff0219169083151502179055508060010160009054906101000a900473ffffffffffffffffffffffffffffffffffffffff1673ffffffffffffffffffffffffffffffffffffffff16837fad7687aa3ebc66c074c5f5acb7bb3aac89eec1ee584373bae8346d56e7a5fa6060405160405180910390a35b506127c2612c87565b5050565b7f8d9233e8f9e0681d692bebdd2fd8c8863336d587e831d84b9bff9f403d549b5f81565b60006128167fc10c77be35aff266144ed64c26a1fa104bae2f284ae99ac4a34203454704a18583611911565b9050919050565b60007f01ffc9a7000000000000000000000000000000000000000000000000000000007bffffffffffffffffffffffffffffffffffffffffffffffffffffffff1916827bffffffffffffffffffffffffffffffffffffffffffffffffffffffff1916149050919050565b600033905090565b61289c8383836001613032565b505050565b60006128af82600001613209565b9050919050565b60006128c28484612421565b90507fffffffffffffffffffffffffffffffffffffffffffffffffffffffffffffffff81146129445781811015612934578281836040517ffb8f41b200000000000000000000000000000000000000000000000000000000815260040161292b93929190614dd0565b60405180910390fd5b61294384848484036000613032565b5b50505050565b600073ffffffffffffffffffffffffffffffffffffffff168373ffffffffffffffffffffffffffffffffffffffff16036129bc5760006040517f96c6fd1e0000000000000000000000000000000000000000000000000000000081526004016129b39190613a70565b60405180910390fd5b600073ffffffffffffffffffffffffffffffffffffffff168273ffffffffffffffffffffffffffffffffffffffff1603612a2e5760006040517fec442f05000000000000000000000000000000000000000000000000000000008152600401612a259190613a70565b60405180910390fd5b612a3983838361321a565b505050565b612a4f81612a4a612887565b61343f565b50565b6002600a5403612a8e576040517f3ee5aeb500000000000000000000000000000000000000000000000000000000815260040160405180910390fd5b6002600a81905550565b60007fdf1425bae297c2f52b4f15d18a50b1fc8cb5b981a981b1d213ed3ff92681b64d612ac481612a3e565b7fc10c77be35aff266144ed64c26a1fa104bae2f284ae99ac4a34203454704a185612aee81612a3e565b600060076000815480929190612b0390614483565b9190505590506000600960008381526020019081526020016000209050818160000181905550338160010160006101000a81548173ffffffffffffffffffffffffffffffffffffffff021916908373ffffffffffffffffffffffffffffffffffffffff160217905550868160020160006101000a81548173ffffffffffffffffffffffffffffffffffffffff021916908373ffffffffffffffffffffffffffffffffffffffff16021790555085816003019081612bc09190614e4d565b506001816004018190555060008160050160006101000a81548160ff02191690831515021790555060018160060160003373ffffffffffffffffffffffffffffffffffffffff1673ffffffffffffffffffffffffffffffffffffffff16815260200190815260200160002060006101000a81548160ff021916908315150217905550817fbcc43907be1d435f496e2233697a9a9fead2fb5639dac8459c53d7114829b8be33604051612c729190613a70565b60405180910390a28194505050505092915050565b6001600a81905550565b6000612c9d8383611911565b612d785760016005600085815260200190815260200160002060000160008473ffffffffffffffffffffffffffffffffffffffff1673ffffffffffffffffffffffffffffffffffffffff16815260200190815260200160002060006101000a81548160ff021916908315150217905550612d15612887565b73ffffffffffffffffffffffffffffffffffffffff168273ffffffffffffffffffffffffffffffffffffffff16847f2f8788117e7eff1d82e926ec794901d17c78024a50270940304540a733656f0d60405160405180910390a460019050612d7d565b600090505b92915050565b6000612d8f8383611911565b15612e6b5760006005600085815260200190815260200160002060000160008473ffffffffffffffffffffffffffffffffffffffff1673ffffffffffffffffffffffffffffffffffffffff16815260200190815260200160002060006101000a81548160ff021916908315150217905550612e08612887565b73ffffffffffffffffffffffffffffffffffffffff168273ffffffffffffffffffffffffffffffffffffffff16847ff6391f5c32d9c69d2a47ea670b442974b53935d1edc7fd64eb21e047a839171b60405160405180910390a460019050612e70565b600090505b92915050565b6000606460146b204fce5e3e25026110000000612e939190614277565b612e9d91906142e8565b612ea5613490565b83612eb09190614749565b1115612ef1576040517f08c379a0000000000000000000000000000000000000000000000000000000008152600401612ee890614f6b565b60405180910390fd5b600073ffffffffffffffffffffffffffffffffffffffff168373ffffffffffffffffffffffffffffffffffffffff1603612f60576040517f08c379a0000000000000000000000000000000000000000000000000000000008152600401612f5790614ffd565b60405180910390fd5b612f6a838361349a565b5081600d6000828254612f7d9190614749565b92505081905550818373ffffffffffffffffffffffffffffffffffffffff167f9c9f15b8cfaf118c4bcce18b04dded23a21adb13f07b271947f2341874c97a2d60405160405180910390a36001905092915050565b6000612ffa836000018373ffffffffffffffffffffffffffffffffffffffff1660001b613555565b905092915050565b600061302a836000018373ffffffffffffffffffffffffffffffffffffffff1660001b613669565b905092915050565b600073ffffffffffffffffffffffffffffffffffffffff168473ffffffffffffffffffffffffffffffffffffffff16036130a45760006040517fe602df0500000000000000000000000000000000000000000000000000000000815260040161309b9190613a70565b60405180910390fd5b600073ffffffffffffffffffffffffffffffffffffffff168373ffffffffffffffffffffffffffffffffffffffff16036131165760006040517f94280d6200000000000000000000000000000000000000000000000000000000815260040161310d9190613a70565b60405180910390fd5b81600160008673ffffffffffffffffffffffffffffffffffffffff1673ffffffffffffffffffffffffffffffffffffffff16815260200190815260200160002060008573ffffffffffffffffffffffffffffffffffffffff1673ffffffffffffffffffffffffffffffffffffffff168152602001908152602001600020819055508015613203578273ffffffffffffffffffffffffffffffffffffffff168473ffffffffffffffffffffffffffffffffffffffff167f8c5be1e5ebec7d5bd14f71427d1e84f3dd0314c0f7b2291e5b200ac8c7c3b925846040516131fa9190613a19565b60405180910390a35b50505050565b600081600001805490509050919050565b600073ffffffffffffffffffffffffffffffffffffffff168373ffffffffffffffffffffffffffffffffffffffff160361326c5780600260008282546132609190614749565b9250508190555061333f565b60008060008573ffffffffffffffffffffffffffffffffffffffff1673ffffffffffffffffffffffffffffffffffffffff168152602001908152602001600020549050818110156132f8578381836040517fe450d38c0000000000000000000000000000000000000000000000000000000081526004016132ef93929190614dd0565b60405180910390fd5b8181036000808673ffffffffffffffffffffffffffffffffffffffff1673ffffffffffffffffffffffffffffffffffffffff16815260200190815260200160002081905550505b600073ffffffffffffffffffffffffffffffffffffffff168273ffffffffffffffffffffffffffffffffffffffff160361338857806002600082825403925050819055506133d5565b806000808473ffffffffffffffffffffffffffffffffffffffff1673ffffffffffffffffffffffffffffffffffffffff168152602001908152602001600020600082825401925050819055505b8173ffffffffffffffffffffffffffffffffffffffff168373ffffffffffffffffffffffffffffffffffffffff167fddf252ad1be2c89b69c2b068fc378daa952ba7f163c4a11628f55a4df523b3ef836040516134329190613a19565b60405180910390a3505050565b6134498282611911565b61348c5780826040517fe2517d3f00000000000000000000000000000000000000000000000000000000815260040161348392919061501d565b60405180910390fd5b5050565b6000600d54905090565b60006b204fce5e3e250261100000006134b1610cfd565b836134bc9190614749565b11156134fd576040517f08c379a00000000000000000000000000000000000000000000000000000000081526004016134f490615092565b60405180910390fd5b61350783836136d9565b818373ffffffffffffffffffffffffffffffffffffffff167fcda531bfd68624f13205c0a23cd4d5a7f09792cbb399603114f2b04aaa1bf5cf60405160405180910390a36001905092915050565b6000808360010160008481526020019081526020016000205490506000811461365d5760006001826135879190614243565b905060006001866000018054905061359f9190614243565b905080821461360e5760008660000182815481106135c0576135bf614ae4565b5b90600052602060002001549050808760000184815481106135e4576135e3614ae4565b5b90600052602060002001819055508387600101600083815260200190815260200160002081905550505b8560000180548061362257613621614b13565b5b600190038181906000526020600020016000905590558560010160008681526020019081526020016000206000905560019350505050613663565b60009150505b92915050565b6000613675838361375b565b6136ce5782600001829080600181540180825580915050600190039060005260206000200160009091909190915055826000018054905083600101600084815260200190815260200160002081905550600190506136d3565b600090505b92915050565b600073ffffffffffffffffffffffffffffffffffffffff168273ffffffffffffffffffffffffffffffffffffffff160361374b5760006040517fec442f050000000000000000000000000000000000000000000000000000000081526004016137429190613a70565b60405180910390fd5b6137576000838361321a565b5050565b600080836001016000848152602001908152602001600020541415905092915050565b6000604051905090565b600080fd5b600080fd5b60007fffffffff0000000000000000000000000000000000000000000000000000000082169050919050565b6137c781613792565b81146137d257600080fd5b50565b6000813590506137e4816137be565b92915050565b600060208284031215613800576137ff613788565b5b600061380e848285016137d5565b91505092915050565b60008115159050919050565b61382c81613817565b82525050565b60006020820190506138476000830184613823565b92915050565b600081519050919050565b600082825260208201905092915050565b60005b8381101561388757808201518184015260208101905061386c565b60008484015250505050565b6000601f19601f8301169050919050565b60006138af8261384d565b6138b98185613858565b93506138c9818560208601613869565b6138d281613893565b840191505092915050565b600060208201905081810360008301526138f781846138a4565b905092915050565b600073ffffffffffffffffffffffffffffffffffffffff82169050919050565b600061392a826138ff565b9050919050565b61393a8161391f565b811461394557600080fd5b50565b60008135905061395781613931565b92915050565b6000819050919050565b6139708161395d565b811461397b57600080fd5b50565b60008135905061398d81613967565b92915050565b600080604083850312156139aa576139a9613788565b5b60006139b885828601613948565b92505060206139c98582860161397e565b9150509250929050565b6139dc8161395d565b82525050565b60006060820190506139f760008301866139d3565b613a0460208301856139d3565b613a1160408301846139d3565b949350505050565b6000602082019050613a2e60008301846139d3565b92915050565b600060208284031215613a4a57613a49613788565b5b6000613a588482850161397e565b91505092915050565b613a6a8161391f565b82525050565b6000602082019050613a856000830184613a61565b92915050565b600080600060608486031215613aa457613aa3613788565b5b6000613ab286828701613948565b9350506020613ac386828701613948565b9250506040613ad48682870161397e565b9150509250925092565b6000819050919050565b613af181613ade565b8114613afc57600080fd5b50565b600081359050613b0e81613ae8565b92915050565b600060208284031215613b2a57613b29613788565b5b6000613b3884828501613aff565b91505092915050565b613b4a81613ade565b82525050565b6000602082019050613b656000830184613b41565b92915050565b60008060408385031215613b8257613b81613788565b5b6000613b9085828601613aff565b9250506020613ba185828601613948565b9150509250929050565b600060ff82169050919050565b613bc181613bab565b82525050565b6000602082019050613bdc6000830184613bb8565b92915050565b600081519050919050565b600082825260208201905092915050565b6000613c0982613be2565b613c138185613bed565b9350613c23818560208601613869565b613c2c81613893565b840191505092915050565b600060c082019050613c4c60008301896139d3565b613c596020830188613a61565b613c666040830187613a61565b8181036060830152613c788186613bfe565b9050613c8760808301856139d3565b613c9460a0830184613823565b979650505050505050565b600060208284031215613cb557613cb4613788565b5b6000613cc384828501613948565b91505092915050565b600080fd5b600080fd5b7f4e487b7100000000000000000000000000000000000000000000000000000000600052604160045260246000fd5b613d0e82613893565b810181811067ffffffffffffffff82111715613d2d57613d2c613cd6565b5b80604052505050565b6000613d4061377e565b9050613d4c8282613d05565b919050565b600067ffffffffffffffff821115613d6c57613d6b613cd6565b5b613d7582613893565b9050602081019050919050565b82818337600083830152505050565b6000613da4613d9f84613d51565b613d36565b905082815260208101848484011115613dc057613dbf613cd1565b5b613dcb848285613d82565b509392505050565b600082601f830112613de857613de7613ccc565b5b8135613df8848260208601613d91565b91505092915050565b600080600060608486031215613e1a57613e19613788565b5b6000613e2886828701613948565b9350506020613e398682870161397e565b925050604084013567ffffffffffffffff811115613e5a57613e5961378d565b5b613e6686828701613dd3565b9150509250925092565b600060e082019050613e85600083018a613a61565b613e926020830189613a61565b613e9f60408301886139d3565b8181036060830152613eb181876138a4565b9050613ec060808301866139d3565b613ecd60a08301856139d3565b613eda60c0830184613823565b98975050505050505050565b60008060408385031215613efd57613efc613788565b5b6000613f0b85828601613948565b9250506020613f1c85828601613948565b9150509250929050565b7f4e487b7100000000000000000000000000000000000000000000000000000000600052602260045260246000fd5b60006002820490506001821680613f6d57607f821691505b602082108103613f8057613f7f613f26565b5b50919050565b7f54726561737572793a205769746864726177616c20616d6f756e74206d75737460008201527f2062652067726561746572207468616e20300000000000000000000000000000602082015250565b6000613fe2603283613858565b9150613fed82613f86565b604082019050919050565b6000602082019050818103600083015261401181613fd5565b9050919050565b7f54726561737572793a20496e73756666696369656e7420636f6e74726163742060008201527f62616c616e636500000000000000000000000000000000000000000000000000602082015250565b6000614074602783613858565b915061407f82614018565b604082019050919050565b600060208201905081810360008301526140a381614067565b9050919050565b7f54726561737572793a20496e73756666696369656e7420747261636b6564206260008201527f616c616e63650000000000000000000000000000000000000000000000000000602082015250565b6000614106602683613858565b9150614111826140aa565b604082019050919050565b60006020820190508181036000830152614135816140f9565b9050919050565b600081905092915050565b50565b600061415760008361413c565b915061416282614147565b600082019050919050565b60006141788261414a565b9150819050919050565b7f54726561737572793a205769746864726177616c207472616e7366657220666160008201527f696c656400000000000000000000000000000000000000000000000000000000602082015250565b60006141de602483613858565b91506141e982614182565b604082019050919050565b6000602082019050818103600083015261420d816141d1565b9050919050565b7f4e487b7100000000000000000000000000000000000000000000000000000000600052601160045260246000fd5b600061424e8261395d565b91506142598361395d565b925082820390508181111561427157614270614214565b5b92915050565b60006142828261395d565b915061428d8361395d565b925082820261429b8161395d565b915082820484148315176142b2576142b1614214565b5b5092915050565b7f4e487b7100000000000000000000000000000000000000000000000000000000600052601260045260246000fd5b60006142f38261395d565b91506142fe8361395d565b92508261430e5761430d6142b9565b5b828204905092915050565b7f416c726561647920696e20726576696577657220706f6f6c0000000000000000600082015250565b600061434f601883613858565b915061435a82614319565b602082019050919050565b6000602082019050818103600083015261437e81614342565b9050919050565b7f54726561737572793a20496e76616c696420726563697069656e740000000000600082015250565b60006143bb601b83613858565b91506143c682614385565b602082019050919050565b600060208201905081810360008301526143ea816143ae565b9050919050565b7f54726561737572793a20416d6f756e74206d757374206265206772656174657260008201527f207468616e203000000000000000000000000000000000000000000000000000602082015250565b600061444d602783613858565b9150614458826143f1565b604082019050919050565b6000602082019050818103600083015261447c81614440565b9050919050565b600061448e8261395d565b91507fffffffffffffffffffffffffffffffffffffffffffffffffffffffffffffffff82036144c0576144bf614214565b5b600182019050919050565b60008190508160005260206000209050919050565b60006020601f8301049050919050565b600082821b905092915050565b60006008830261452d7fffffffffffffffffffffffffffffffffffffffffffffffffffffffffffffffff826144f0565b61453786836144f0565b95508019841693508086168417925050509392505050565b6000819050919050565b600061457461456f61456a8461395d565b61454f565b61395d565b9050919050565b6000819050919050565b61458e83614559565b6145a261459a8261457b565b8484546144fd565b825550505050565b600090565b6145b76145aa565b6145c2818484614585565b505050565b5b818110156145e6576145db6000826145af565b6001810190506145c8565b5050565b601f82111561462b576145fc816144cb565b614605846144e0565b81016020851015614614578190505b614628614620856144e0565b8301826145c7565b50505b505050565b600082821c905092915050565b600061464e60001984600802614630565b1980831691505092915050565b6000614667838361463d565b9150826002028217905092915050565b6146808261384d565b67ffffffffffffffff81111561469957614698613cd6565b5b6146a38254613f55565b6146ae8282856145ea565b600060209050601f8311600181146146e157600084156146cf578287015190505b6146d9858261465b565b865550614741565b601f1984166146ef866144cb565b60005b82811015614717578489015182556001820191506020850194506020810190506146f2565b868310156147345784890151614730601f89168261463d565b8355505b6001600288020188555050505b505050505050565b60006147548261395d565b915061475f8361395d565b925082820190508082111561477757614776614214565b5b92915050565b600060408201905061479260008301856139d3565b81810360208301526147a481846138a4565b90509392505050565b7f54726561737572793a2054727573746565206e6f7420666f756e640000000000600082015250565b60006147e3601b83613858565b91506147ee826147ad565b602082019050919050565b60006020820190508181036000830152614812816147d6565b9050919050565b7f54726561737572793a20496e76616c6964206465706f73697420616d6f756e74600082015250565b600061484f602083613858565b915061485a82614819565b602082019050919050565b6000602082019050818103600083015261487e81614842565b9050919050565b7f50726f706f73616c20616c726561647920657865637574656400000000000000600082015250565b60006148bb601983613858565b91506148c682614885565b602082019050919050565b600060208201905081810360008301526148ea816148ae565b9050919050565b7f416c726561647920617070726f76656400000000000000000000000000000000600082015250565b6000614927601083613858565b9150614932826148f1565b602082019050919050565b600060208201905081810360008301526149568161491a565b9050919050565b60008190508160005260206000209050919050565b6000815461497f81613f55565b614989818661413c565b945060018216600081146149a457600181146149b9576149ec565b60ff19831686528115158202860193506149ec565b6149c28561495d565b60005b838110156149e4578154818901526001820191506020810190506149c5565b838801955050505b50505092915050565b6000614a018284614972565b915081905092915050565b7f50726f706f73616c20657865637574696f6e206661696c656400000000000000600082015250565b6000614a42601983613858565b9150614a4d82614a0c565b602082019050919050565b60006020820190508181036000830152614a7181614a35565b9050919050565b7f4e6f7420696e20726576696577657220706f6f6c000000000000000000000000600082015250565b6000614aae601483613858565b9150614ab982614a78565b602082019050919050565b60006020820190508181036000830152614add81614aa1565b9050919050565b7f4e487b7100000000000000000000000000000000000000000000000000000000600052603260045260246000fd5b7f4e487b7100000000000000000000000000000000000000000000000000000000600052603160045260246000fd5b7f54726561737572793a20496e76616c696420747275737465652061646472657360008201527f7300000000000000000000000000000000000000000000000000000000000000602082015250565b6000614b9e602183613858565b9150614ba982614b42565b604082019050919050565b60006020820190508181036000830152614bcd81614b91565b9050919050565b7f54726561737572793a205472757374656520616c726561647920657869737473600082015250565b6000614c0a602083613858565b9150614c1582614bd4565b602082019050919050565b60006020820190508181036000830152614c3981614bfd565b9050919050565b7f54726561737572793a205265717565737420616c72656164792065786563757460008201527f6564000000000000000000000000000000000000000000000000000000000000602082015250565b6000614c9c602283613858565b9150614ca782614c40565b604082019050919050565b60006020820190508181036000830152614ccb81614c8f565b9050919050565b7f54726561737572793a2046756e64696e6720726571756573742065787069726560008201527f6400000000000000000000000000000000000000000000000000000000000000602082015250565b6000614d2e602183613858565b9150614d3982614cd2565b604082019050919050565b60006020820190508181036000830152614d5d81614d21565b9050919050565b7f54726561737572793a20416c726561647920766f746564000000000000000000600082015250565b6000614d9a601783613858565b9150614da582614d64565b602082019050919050565b60006020820190508181036000830152614dc981614d8d565b9050919050565b6000606082019050614de56000830186613a61565b614df260208301856139d3565b614dff60408301846139d3565b949350505050565b601f821115614e4857614e198161495d565b614e22846144e0565b81016020851015614e31578190505b614e45614e3d856144e0565b8301826145c7565b50505b505050565b614e5682613be2565b67ffffffffffffffff811115614e6f57614e6e613cd6565b5b614e798254613f55565b614e84828285614e07565b600060209050601f831160018114614eb75760008415614ea5578287015190505b614eaf858261465b565b865550614f17565b601f198416614ec58661495d565b60005b82811015614eed57848901518255600182019150602085019450602081019050614ec8565b86831015614f0a5784890151614f06601f89168261463d565b8355505b6001600288020188555050505b505050505050565b7f54726561737572793a204d696e74696e67206c696d6974206578636565646564600082015250565b6000614f55602083613858565b9150614f6082614f1f565b602082019050919050565b60006020820190508181036000830152614f8481614f48565b9050919050565b7f54726561737572793a2043616e6e6f74206d696e7420746f207a65726f20616460008201527f6472657373000000000000000000000000000000000000000000000000000000602082015250565b6000614fe7602583613858565b9150614ff282614f8b565b604082019050919050565b6000602082019050818103600083015261501681614fda565b9050919050565b60006040820190506150326000830185613a61565b61503f6020830184613b41565b9392505050565b7f4c696d6974204578636565646564210000000000000000000000000000000000600082015250565b600061507c600f83613858565b915061508782615046565b602082019050919050565b600060208201905081810360008301526150ab8161506f565b905091905056fea2646970667358221220cfb4eb718f2b7d975809d346c6aee4d954ad8cac62247a5091f14c5d6cfd0b1164736f6c634300081b0033",
  "linkReferences": {},
  "deployedLinkReferences": {}
}