{
  "_format": "hh-sol-artifact-1",
  "contractName": "Treasury",
  "sourceName": "contracts/Treasury.sol",
  "abi": [
    {
      "inputs": [
        {
          "internalType": "address[]",
          "name": "_reviewers",
          "type": "address[]"
        }
      ],
      "stateMutability": "nonpayable",
      "type": "constructor"
    },
    {
      "inputs": [],
      "name": "AccessControlBadConfirmation",
      "type": "error"
    },
    {
      "inputs": [
        {
          "internalType": "address",
          "name": "account",
          "type": "address"
        },
        {
          "internalType": "bytes32",
          "name": "neededRole",
          "type": "bytes32"
        }
      ],
      "name": "AccessControlUnauthorizedAccount",
      "type": "error"
    },
    {
      "inputs": [
        {
          "internalType": "address",
          "name": "spender",
          "type": "address"
        },
        {
          "internalType": "uint256",
          "name": "allowance",
          "type": "uint256"
        },
        {
          "internalType": "uint256",
          "name": "needed",
          "type": "uint256"
        }
      ],
      "name": "ERC20InsufficientAllowance",
      "type": "error"
    },
    {
      "inputs": [
        {
          "internalType": "address",
          "name": "sender",
          "type": "address"
        },
        {
          "internalType": "uint256",
          "name": "balance",
          "type": "uint256"
        },
        {
          "internalType": "uint256",
          "name": "needed",
          "type": "uint256"
        }
      ],
      "name": "ERC20InsufficientBalance",
      "type": "error"
    },
    {
      "inputs": [
        {
          "internalType": "address",
          "name": "approver",
          "type": "address"
        }
      ],
      "name": "ERC20InvalidApprover",
      "type": "error"
    },
    {
      "inputs": [
        {
          "internalType": "address",
          "name": "receiver",
          "type": "address"
        }
      ],
      "name": "ERC20InvalidReceiver",
      "type": "error"
    },
    {
      "inputs": [
        {
          "internalType": "address",
          "name": "sender",
          "type": "address"
        }
      ],
      "name": "ERC20InvalidSender",
      "type": "error"
    },
    {
      "inputs": [
        {
          "internalType": "address",
          "name": "spender",
          "type": "address"
        }
      ],
      "name": "ERC20InvalidSpender",
      "type": "error"
    },
    {
      "inputs": [],
      "name": "ReentrancyGuardReentrantCall",
      "type": "error"
    },
    {
      "anonymous": false,
      "inputs": [
        {
          "indexed": true,
          "internalType": "address",
          "name": "owner",
          "type": "address"
        },
        {
          "indexed": true,
          "internalType": "address",
          "name": "spender",
          "type": "address"
        },
        {
          "indexed": false,
          "internalType": "uint256",
          "name": "value",
          "type": "uint256"
        }
      ],
      "name": "Approval",
      "type": "event"
    },
    {
      "anonymous": false,
      "inputs": [
        {
          "indexed": true,
          "internalType": "address",
          "name": "_account",
          "type": "address"
        },
        {
          "indexed": false,
          "internalType": "uint256",
          "name": "_amount",
          "type": "uint256"
        }
      ],
      "name": "BurnSuccess",
      "type": "event"
    },
    {
      "anonymous": false,
      "inputs": [
        {
          "indexed": true,
          "internalType": "address",
          "name": "_contract",
          "type": "address"
        },
        {
          "indexed": false,
          "internalType": "uint256",
          "name": "amount",
          "type": "uint256"
        }
      ],
      "name": "DepositSuccess",
      "type": "event"
    },
    {
      "anonymous": false,
      "inputs": [
        {
          "indexed": true,
          "internalType": "uint256",
          "name": "requestId",
          "type": "uint256"
        },
        {
          "indexed": true,
          "internalType": "address",
          "name": "trustee",
          "type": "address"
        }
      ],
      "name": "FundingRequestApproved",
      "type": "event"
    },
    {
      "anonymous": false,
      "inputs": [
        {
          "indexed": true,
          "internalType": "uint256",
          "name": "requestId",
          "type": "uint256"
        },
        {
          "indexed": true,
          "internalType": "address",
          "name": "requester",
          "type": "address"
        },
        {
          "indexed": false,
          "internalType": "uint256",
          "name": "amount",
          "type": "uint256"
        }
      ],
      "name": "FundingRequestCreated",
      "type": "event"
    },
    {
      "anonymous": false,
      "inputs": [
        {
          "indexed": true,
          "internalType": "uint256",
          "name": "requestId",
          "type": "uint256"
        },
        {
          "indexed": true,
          "internalType": "address",
          "name": "recipient",
          "type": "address"
        }
      ],
      "name": "FundingRequestExecuted",
      "type": "event"
    },
    {
      "anonymous": false,
      "inputs": [
        {
          "indexed": true,
          "internalType": "address",
          "name": "recipient",
          "type": "address"
        },
        {
          "indexed": false,
          "internalType": "uint256",
          "name": "amount",
          "type": "uint256"
        },
        {
          "indexed": false,
          "internalType": "string",
          "name": "purpose",
          "type": "string"
        }
      ],
      "name": "FundsAllocated",
      "type": "event"
    },
    {
      "anonymous": false,
      "inputs": [
        {
          "indexed": true,
          "internalType": "address",
          "name": "_to",
          "type": "address"
        },
        {
          "indexed": true,
          "internalType": "uint256",
          "name": "_amount",
          "type": "uint256"
        }
      ],
      "name": "MintSuccess",
      "type": "event"
    },
    {
      "anonymous": false,
      "inputs": [
        {
          "indexed": true,
          "internalType": "uint256",
          "name": "proposalId",
          "type": "uint256"
        },
        {
          "indexed": false,
          "internalType": "address",
          "name": "approver",
          "type": "address"
        }
      ],
      "name": "MultiSigProposalApproved",
      "type": "event"
    },
    {
      "anonymous": false,
      "inputs": [
        {
          "indexed": true,
          "internalType": "uint256",
          "name": "proposalId",
          "type": "uint256"
        },
        {
          "indexed": false,
          "internalType": "address",
          "name": "proposer",
          "type": "address"
        }
      ],
      "name": "MultiSigProposalCreated",
      "type": "event"
    },
    {
      "anonymous": false,
      "inputs": [
        {
          "indexed": true,
          "internalType": "uint256",
          "name": "proposalId",
          "type": "uint256"
        }
      ],
      "name": "MultiSigProposalExecuted",
      "type": "event"
    },
    {
      "anonymous": false,
      "inputs": [
        {
          "indexed": true,
          "internalType": "address",
          "name": "reviewer",
          "type": "address"
        }
      ],
      "name": "ReviewerAddedToPool",
      "type": "event"
    },
    {
      "anonymous": false,
      "inputs": [
        {
          "indexed": true,
          "internalType": "address",
          "name": "reviewer",
          "type": "address"
        }
      ],
      "name": "ReviewerRemovedFromPool",
      "type": "event"
    },
    {
      "anonymous": false,
      "inputs": [
        {
          "indexed": true,
          "internalType": "bytes32",
          "name": "role",
          "type": "bytes32"
        },
        {
          "indexed": true,
          "internalType": "bytes32",
          "name": "previousAdminRole",
          "type": "bytes32"
        },
        {
          "indexed": true,
          "internalType": "bytes32",
          "name": "newAdminRole",
          "type": "bytes32"
        }
      ],
      "name": "RoleAdminChanged",
      "type": "event"
    },
    {
      "anonymous": false,
      "inputs": [
        {
          "indexed": true,
          "internalType": "bytes32",
          "name": "role",
          "type": "bytes32"
        },
        {
          "indexed": true,
          "internalType": "address",
          "name": "account",
          "type": "address"
        },
        {
          "indexed": true,
          "internalType": "address",
          "name": "sender",
          "type": "address"
        }
      ],
      "name": "RoleGranted",
      "type": "event"
    },
    {
      "anonymous": false,
      "inputs": [
        {
          "indexed": true,
          "internalType": "bytes32",
          "name": "role",
          "type": "bytes32"
        },
        {
          "indexed": true,
          "internalType": "address",
          "name": "account",
          "type": "address"
        },
        {
          "indexed": true,
          "internalType": "address",
          "name": "sender",
          "type": "address"
        }
      ],
      "name": "RoleRevoked",
      "type": "event"
    },
    {
      "anonymous": false,
      "inputs": [
        {
          "indexed": true,
          "internalType": "address",
          "name": "from",
          "type": "address"
        },
        {
          "indexed": true,
          "internalType": "address",
          "name": "to",
          "type": "address"
        },
        {
          "indexed": false,
          "internalType": "uint256",
          "name": "value",
          "type": "uint256"
        }
      ],
      "name": "Transfer",
      "type": "event"
    },
    {
      "anonymous": false,
      "inputs": [
        {
          "indexed": true,
          "internalType": "address",
          "name": "_to",
          "type": "address"
        },
        {
          "indexed": true,
          "internalType": "uint256",
          "name": "_amount",
          "type": "uint256"
        }
      ],
      "name": "TreasuryPoolUpdate",
      "type": "event"
    },
    {
      "anonymous": false,
      "inputs": [
        {
          "indexed": true,
          "internalType": "address",
          "name": "recipient",
          "type": "address"
        },
        {
          "indexed": false,
          "internalType": "uint256",
          "name": "amount",
          "type": "uint256"
        }
      ],
      "name": "WithdrawalSuccess",
      "type": "event"
    },
    {
      "inputs": [],
      "name": "DEFAULT_ADMIN_ROLE",
      "outputs": [
        {
          "internalType": "bytes32",
          "name": "",
          "type": "bytes32"
        }
      ],
      "stateMutability": "view",
      "type": "function"
    },
    {
      "inputs": [],
      "name": "MAX_FUNDING_REQUEST_DURATION",
      "outputs": [
        {
          "internalType": "uint256",
          "name": "",
          "type": "uint256"
        }
      ],
      "stateMutability": "view",
      "type": "function"
    },
    {
      "inputs": [],
      "name": "MAX_SUPPLY",
      "outputs": [
        {
          "internalType": "uint256",
          "name": "",
          "type": "uint256"
        }
      ],
      "stateMutability": "view",
      "type": "function"
    },
    {
      "inputs": [],
      "name": "MULTISIG_APPROVER",
      "outputs": [
        {
          "internalType": "bytes32",
          "name": "",
          "type": "bytes32"
        }
      ],
      "stateMutability": "view",
      "type": "function"
    },
    {
      "inputs": [],
      "name": "REVIEWER_ROLE",
      "outputs": [
        {
          "internalType": "bytes32",
          "name": "",
          "type": "bytes32"
        }
      ],
      "stateMutability": "view",
      "type": "function"
    },
    {
      "inputs": [],
      "name": "TREASURER",
      "outputs": [
        {
          "internalType": "bytes32",
          "name": "",
          "type": "bytes32"
        }
      ],
      "stateMutability": "view",
      "type": "function"
    },
    {
      "inputs": [],
      "name": "TREASURY_POOL",
      "outputs": [
        {
          "internalType": "uint256",
          "name": "",
          "type": "uint256"
        }
      ],
      "stateMutability": "view",
      "type": "function"
    },
    {
      "inputs": [],
      "name": "TRUSTEE",
      "outputs": [
        {
          "internalType": "bytes32",
          "name": "",
          "type": "bytes32"
        }
      ],
      "stateMutability": "view",
      "type": "function"
    },
    {
      "inputs": [
        {
          "internalType": "address",
          "name": "newReviewer",
          "type": "address"
        }
      ],
      "name": "addReviewer",
      "outputs": [],
      "stateMutability": "nonpayable",
      "type": "function"
    },
    {
      "inputs": [
        {
          "internalType": "address",
          "name": "_trustee",
          "type": "address"
        }
      ],
      "name": "addTrustee",
      "outputs": [
        {
          "internalType": "bool",
          "name": "",
          "type": "bool"
        }
      ],
      "stateMutability": "nonpayable",
      "type": "function"
    },
    {
      "inputs": [
        {
          "internalType": "address",
          "name": "recipient",
          "type": "address"
        },
        {
          "internalType": "uint256",
          "name": "amount",
          "type": "uint256"
        },
        {
          "internalType": "string",
          "name": "purpose",
          "type": "string"
        }
      ],
      "name": "allocateFunds",
      "outputs": [],
      "stateMutability": "nonpayable",
      "type": "function"
    },
    {
      "inputs": [
        {
          "internalType": "address",
          "name": "",
          "type": "address"
        }
      ],
      "name": "allocations",
      "outputs": [
        {
          "internalType": "uint256",
          "name": "",
          "type": "uint256"
        }
      ],
      "stateMutability": "view",
      "type": "function"
    },
    {
      "inputs": [
        {
          "internalType": "address",
          "name": "owner",
          "type": "address"
        },
        {
          "internalType": "address",
          "name": "spender",
          "type": "address"
        }
      ],
      "name": "allowance",
      "outputs": [
        {
          "internalType": "uint256",
          "name": "",
          "type": "uint256"
        }
      ],
      "stateMutability": "view",
      "type": "function"
    },
    {
      "inputs": [
        {
          "internalType": "address",
          "name": "spender",
          "type": "address"
        },
        {
          "internalType": "uint256",
          "name": "value",
          "type": "uint256"
        }
      ],
      "name": "approve",
      "outputs": [
        {
          "internalType": "bool",
          "name": "",
          "type": "bool"
        }
      ],
      "stateMutability": "nonpayable",
      "type": "function"
    },
    {
      "inputs": [
        {
          "internalType": "uint256",
          "name": "requestId",
          "type": "uint256"
        }
      ],
      "name": "approveFundingRequest",
      "outputs": [],
      "stateMutability": "nonpayable",
      "type": "function"
    },
    {
      "inputs": [
        {
          "internalType": "uint256",
          "name": "_proposalId",
          "type": "uint256"
        }
      ],
      "name": "approveMultiSigProposal",
      "outputs": [],
      "stateMutability": "nonpayable",
      "type": "function"
    },
    {
      "inputs": [
        {
          "internalType": "address",
          "name": "account",
          "type": "address"
        }
      ],
      "name": "balanceOf",
      "outputs": [
        {
          "internalType": "uint256",
          "name": "",
          "type": "uint256"
        }
      ],
      "stateMutability": "view",
      "type": "function"
    },
    {
      "inputs": [],
      "name": "contractBalance",
      "outputs": [
        {
          "internalType": "uint256",
          "name": "",
          "type": "uint256"
        }
      ],
      "stateMutability": "view",
      "type": "function"
    },
    {
      "inputs": [],
      "name": "decimals",
      "outputs": [
        {
          "internalType": "uint8",
          "name": "",
          "type": "uint8"
        }
      ],
      "stateMutability": "view",
      "type": "function"
    },
    {
      "inputs": [
        {
          "internalType": "uint256",
          "name": "amount",
          "type": "uint256"
        }
      ],
      "name": "deposit",
      "outputs": [
        {
          "internalType": "bool",
          "name": "",
          "type": "bool"
        }
      ],
      "stateMutability": "payable",
      "type": "function"
    },
    {
      "inputs": [
        {
          "internalType": "uint256",
          "name": "",
          "type": "uint256"
        }
      ],
      "name": "fundingRequests",
      "outputs": [
        {
          "internalType": "address",
          "name": "requester",
          "type": "address"
        },
        {
          "internalType": "address",
          "name": "recipient",
          "type": "address"
        },
        {
          "internalType": "uint256",
          "name": "amount",
          "type": "uint256"
        },
        {
          "internalType": "string",
          "name": "purpose",
          "type": "string"
        },
        {
          "internalType": "uint256",
          "name": "createdAt",
          "type": "uint256"
        },
        {
          "internalType": "uint256",
          "name": "approvalCount",
          "type": "uint256"
        },
        {
          "internalType": "bool",
          "name": "executed",
          "type": "bool"
        }
      ],
      "stateMutability": "view",
      "type": "function"
    },
    {
      "inputs": [],
      "name": "getContractBalance",
      "outputs": [
        {
          "internalType": "uint256",
          "name": "",
          "type": "uint256"
        }
      ],
      "stateMutability": "view",
      "type": "function"
    },
    {
      "inputs": [
        {
          "internalType": "bytes32",
          "name": "role",
          "type": "bytes32"
        }
      ],
      "name": "getRoleAdmin",
      "outputs": [
        {
          "internalType": "bytes32",
          "name": "",
          "type": "bytes32"
        }
      ],
      "stateMutability": "view",
      "type": "function"
    },
    {
      "inputs": [],
      "name": "getTrusteesCount",
      "outputs": [
        {
          "internalType": "uint256",
          "name": "",
          "type": "uint256"
        }
      ],
      "stateMutability": "view",
      "type": "function"
    },
    {
      "inputs": [
        {
          "internalType": "bytes32",
          "name": "role",
          "type": "bytes32"
        },
        {
          "internalType": "address",
          "name": "account",
          "type": "address"
        }
      ],
      "name": "grantRole",
      "outputs": [],
      "stateMutability": "nonpayable",
      "type": "function"
    },
    {
      "inputs": [
        {
          "internalType": "bytes32",
          "name": "role",
          "type": "bytes32"
        },
        {
          "internalType": "address",
          "name": "account",
          "type": "address"
        }
      ],
      "name": "hasRole",
      "outputs": [
        {
          "internalType": "bool",
          "name": "",
          "type": "bool"
        }
      ],
      "stateMutability": "view",
      "type": "function"
    },
    {
      "inputs": [
        {
          "internalType": "address",
          "name": "",
          "type": "address"
        }
      ],
      "name": "isInReviewerPool",
      "outputs": [
        {
          "internalType": "bool",
          "name": "",
          "type": "bool"
        }
      ],
      "stateMutability": "view",
      "type": "function"
    },
    {
      "inputs": [
        {
          "internalType": "address",
          "name": "account",
          "type": "address"
        }
      ],
      "name": "isReviewer",
      "outputs": [
        {
          "internalType": "bool",
          "name": "",
          "type": "bool"
        }
      ],
      "stateMutability": "view",
      "type": "function"
    },
    {
      "inputs": [],
      "name": "marketingSpent",
      "outputs": [
        {
          "internalType": "uint256",
          "name": "",
          "type": "uint256"
        }
      ],
      "stateMutability": "view",
      "type": "function"
    },
    {
      "inputs": [
        {
          "internalType": "uint256",
          "name": "",
          "type": "uint256"
        }
      ],
      "name": "multiSigProposals",
      "outputs": [
        {
          "internalType": "uint256",
          "name": "id",
          "type": "uint256"
        },
        {
          "internalType": "address",
          "name": "proposer",
          "type": "address"
        },
        {
          "internalType": "address",
          "name": "targetContract",
          "type": "address"
        },
        {
          "internalType": "bytes",
          "name": "data",
          "type": "bytes"
        },
        {
          "internalType": "uint256",
          "name": "approvalCount",
          "type": "uint256"
        },
        {
          "internalType": "bool",
          "name": "executed",
          "type": "bool"
        }
      ],
      "stateMutability": "view",
      "type": "function"
    },
    {
      "inputs": [],
      "name": "name",
      "outputs": [
        {
          "internalType": "string",
          "name": "",
          "type": "string"
        }
      ],
      "stateMutability": "view",
      "type": "function"
    },
    {
      "inputs": [],
      "name": "nextRequestId",
      "outputs": [
        {
          "internalType": "uint256",
          "name": "",
          "type": "uint256"
        }
      ],
      "stateMutability": "view",
      "type": "function"
    },
    {
      "inputs": [
        {
          "internalType": "uint256",
          "name": "amount",
          "type": "uint256"
        },
        {
          "internalType": "address",
          "name": "recipient",
          "type": "address"
        }
      ],
      "name": "performWithdrawal",
      "outputs": [],
      "stateMutability": "nonpayable",
      "type": "function"
    },
    {
      "inputs": [
        {
          "internalType": "address",
          "name": "reviewer",
          "type": "address"
        }
      ],
      "name": "removeReviewer",
      "outputs": [],
      "stateMutability": "nonpayable",
      "type": "function"
    },
    {
      "inputs": [
        {
          "internalType": "bytes32",
          "name": "role",
          "type": "bytes32"
        },
        {
          "internalType": "address",
          "name": "callerConfirmation",
          "type": "address"
        }
      ],
      "name": "renounceRole",
      "outputs": [],
      "stateMutability": "nonpayable",
      "type": "function"
    },
    {
      "inputs": [
        {
          "internalType": "address",
          "name": "to",
          "type": "address"
        },
        {
          "internalType": "uint256",
          "name": "amount",
          "type": "uint256"
        },
        {
          "internalType": "string",
          "name": "purpose",
          "type": "string"
        }
      ],
      "name": "requestFunding",
      "outputs": [
        {
          "internalType": "uint256",
          "name": "",
          "type": "uint256"
        }
      ],
      "stateMutability": "nonpayable",
      "type": "function"
    },
    {
      "inputs": [],
      "name": "reserveFunds",
      "outputs": [
        {
          "internalType": "uint256",
          "name": "",
          "type": "uint256"
        }
      ],
      "stateMutability": "view",
      "type": "function"
    },
    {
      "inputs": [
        {
          "internalType": "uint256",
          "name": "",
          "type": "uint256"
        }
      ],
      "name": "reviewerPool",
      "outputs": [
        {
          "internalType": "address",
          "name": "",
          "type": "address"
        }
      ],
      "stateMutability": "view",
      "type": "function"
    },
    {
      "inputs": [
        {
          "internalType": "bytes32",
          "name": "role",
          "type": "bytes32"
        },
        {
          "internalType": "address",
          "name": "account",
          "type": "address"
        }
      ],
      "name": "revokeRole",
      "outputs": [],
      "stateMutability": "nonpayable",
      "type": "function"
    },
    {
      "inputs": [
        {
          "internalType": "address",
          "name": "_trustee",
          "type": "address"
        }
      ],
      "name": "revokeTrustee",
      "outputs": [
        {
          "internalType": "bool",
          "name": "",
          "type": "bool"
        }
      ],
      "stateMutability": "nonpayable",
      "type": "function"
    },
    {
      "inputs": [
        {
          "internalType": "bytes4",
          "name": "interfaceId",
          "type": "bytes4"
        }
      ],
      "name": "supportsInterface",
      "outputs": [
        {
          "internalType": "bool",
          "name": "",
          "type": "bool"
        }
      ],
      "stateMutability": "view",
      "type": "function"
    },
    {
      "inputs": [],
      "name": "symbol",
      "outputs": [
        {
          "internalType": "string",
          "name": "",
          "type": "string"
        }
      ],
      "stateMutability": "view",
      "type": "function"
    },
    {
      "inputs": [],
      "name": "totalSupply",
      "outputs": [
        {
          "internalType": "uint256",
          "name": "",
          "type": "uint256"
        }
      ],
      "stateMutability": "view",
      "type": "function"
    },
    {
      "inputs": [
        {
          "internalType": "address",
          "name": "to",
          "type": "address"
        },
        {
          "internalType": "uint256",
          "name": "value",
          "type": "uint256"
        }
      ],
      "name": "transfer",
      "outputs": [
        {
          "internalType": "bool",
          "name": "",
          "type": "bool"
        }
      ],
      "stateMutability": "nonpayable",
      "type": "function"
    },
    {
      "inputs": [
        {
          "internalType": "address",
          "name": "from",
          "type": "address"
        },
        {
          "internalType": "address",
          "name": "to",
          "type": "address"
        },
        {
          "internalType": "uint256",
          "name": "value",
          "type": "uint256"
        }
      ],
      "name": "transferFrom",
      "outputs": [
        {
          "internalType": "bool",
          "name": "",
          "type": "bool"
        }
      ],
      "stateMutability": "nonpayable",
      "type": "function"
    },
    {
      "inputs": [],
      "name": "treasuryPoolSupply",
      "outputs": [
        {
          "internalType": "uint256",
          "name": "",
          "type": "uint256"
        }
      ],
      "stateMutability": "view",
      "type": "function"
    },
    {
      "inputs": [],
      "name": "viewPoolDetails",
      "outputs": [
        {
          "internalType": "uint256",
          "name": "",
          "type": "uint256"
        },
        {
          "internalType": "uint256",
          "name": "",
          "type": "uint256"
        },
        {
          "internalType": "uint256",
          "name": "",
          "type": "uint256"
        }
      ],
      "stateMutability": "view",
      "type": "function"
    },
    {
      "inputs": [
        {
          "internalType": "uint256",
          "name": "amount",
          "type": "uint256"
        }
      ],
      "name": "withdraw",
      "outputs": [],
      "stateMutability": "nonpayable",
      "type": "function"
    }
  ],
  "bytecode": "0x608060405234801561001057600080fd5b50604051615ba5380380615ba583398181016040528101906100329190610623565b806040518060400160405280600a81526020017f4142594120544f4b454e000000000000000000000000000000000000000000008152506040518060400160405280600681526020017f414259544b4e000000000000000000000000000000000000000000000000000081525081600390816100ae919061088d565b5080600490816100be919061088d565b505050600481511015610106576040517f08c379a00000000000000000000000000000000000000000000000000000000081526004016100fd906109e2565b60405180910390fd5b6101196000801b336102e760201b60201c565b5061014a7fdf1425bae297c2f52b4f15d18a50b1fc8cb5b981a981b1d213ed3ff92681b64d336102e760201b60201c565b5060005b815181101561029e576101a17fc10c77be35aff266144ed64c26a1fa104bae2f284ae99ac4a34203454704a18583838151811061018e5761018d610a02565b5b60200260200101516102e760201b60201c565b5060068282815181106101b7576101b6610a02565b5b60200260200101519080600181540180825580915050600190039060005260206000200160009091909190916101000a81548173ffffffffffffffffffffffffffffffffffffffff021916908373ffffffffffffffffffffffffffffffffffffffff16021790555060016008600084848151811061023857610237610a02565b5b602002602001015173ffffffffffffffffffffffffffffffffffffffff1673ffffffffffffffffffffffffffffffffffffffff16815260200190815260200160002060006101000a81548160ff021916908315150217905550808060010191505061014e565b50506001600a819055506102d87f8d9233e8f9e0681d692bebdd2fd8c8863336d587e831d84b9bff9f403d549b5f336102e760201b60201c565b506001600e8190555050610a31565b60006102f983836103e560201b60201c565b6103da5760016005600085815260200190815260200160002060000160008473ffffffffffffffffffffffffffffffffffffffff1673ffffffffffffffffffffffffffffffffffffffff16815260200190815260200160002060006101000a81548160ff02191690831515021790555061037761045060201b60201c565b73ffffffffffffffffffffffffffffffffffffffff168273ffffffffffffffffffffffffffffffffffffffff16847f2f8788117e7eff1d82e926ec794901d17c78024a50270940304540a733656f0d60405160405180910390a4600190506103df565b600090505b92915050565b60006005600084815260200190815260200160002060000160008373ffffffffffffffffffffffffffffffffffffffff1673ffffffffffffffffffffffffffffffffffffffff16815260200190815260200160002060009054906101000a900460ff16905092915050565b600033905090565b6000604051905090565b600080fd5b600080fd5b600080fd5b6000601f19601f8301169050919050565b7f4e487b7100000000000000000000000000000000000000000000000000000000600052604160045260246000fd5b6104ba82610471565b810181811067ffffffffffffffff821117156104d9576104d8610482565b5b80604052505050565b60006104ec610458565b90506104f882826104b1565b919050565b600067ffffffffffffffff82111561051857610517610482565b5b602082029050602081019050919050565b600080fd5b600073ffffffffffffffffffffffffffffffffffffffff82169050919050565b60006105598261052e565b9050919050565b6105698161054e565b811461057457600080fd5b50565b60008151905061058681610560565b92915050565b600061059f61059a846104fd565b6104e2565b905080838252602082019050602084028301858111156105c2576105c1610529565b5b835b818110156105eb57806105d78882610577565b8452602084019350506020810190506105c4565b5050509392505050565b600082601f83011261060a5761060961046c565b5b815161061a84826020860161058c565b91505092915050565b60006020828403121561063957610638610462565b5b600082015167ffffffffffffffff81111561065757610656610467565b5b610663848285016105f5565b91505092915050565b600081519050919050565b7f4e487b7100000000000000000000000000000000000000000000000000000000600052602260045260246000fd5b600060028204905060018216806106be57607f821691505b6020821081036106d1576106d0610677565b5b50919050565b60008190508160005260206000209050919050565b60006020601f8301049050919050565b600082821b905092915050565b6000600883026107397fffffffffffffffffffffffffffffffffffffffffffffffffffffffffffffffff826106fc565b61074386836106fc565b95508019841693508086168417925050509392505050565b6000819050919050565b6000819050919050565b600061078a6107856107808461075b565b610765565b61075b565b9050919050565b6000819050919050565b6107a48361076f565b6107b86107b082610791565b848454610709565b825550505050565b600090565b6107cd6107c0565b6107d881848461079b565b505050565b5b818110156107fc576107f16000826107c5565b6001810190506107de565b5050565b601f82111561084157610812816106d7565b61081b846106ec565b8101602085101561082a578190505b61083e610836856106ec565b8301826107dd565b50505b505050565b600082821c905092915050565b600061086460001984600802610846565b1980831691505092915050565b600061087d8383610853565b9150826002028217905092915050565b6108968261066c565b67ffffffffffffffff8111156108af576108ae610482565b5b6108b982546106a6565b6108c4828285610800565b600060209050601f8311600181146108f757600084156108e5578287015190505b6108ef8582610871565b865550610957565b601f198416610905866106d7565b60005b8281101561092d57848901518255600182019150602085019450602081019050610908565b8683101561094a5784890151610946601f891682610853565b8355505b6001600288020188555050505b505050505050565b600082825260208201905092915050565b7f4174206c6561737420342072657669657765727320617265207265717569726560008201527f6400000000000000000000000000000000000000000000000000000000000000602082015250565b60006109cc60218361095f565b91506109d782610970565b604082019050919050565b600060208201905081810360008301526109fb816109bf565b9050919050565b7f4e487b7100000000000000000000000000000000000000000000000000000000600052603260045260246000fd5b61516580610a406000396000f3fe6080604052600436106102935760003560e01c80636f9fb98a1161015a578063a9059cbb116100c1578063d547741f1161007a578063d547741f14610aa4578063dc78ac1c14610acd578063dd62ed3e14610b0a578063ec2becdc14610b47578063fb1849ee14610b70578063fdc6258a14610b9b57610293565b8063a9059cbb14610965578063b6b55f25146109a2578063ba561486146109d2578063bad0dd6514610a15578063c491b04c14610a3e578063c9442dac14610a7b57610293565b80638ada7007116101135780638ada7007146108415780638b7afe2e1461086a57806391d148541461089557806395d89b41146108d25780639aea9620146108fd578063a217fddf1461093a57610293565b80636f9fb98a1461071d57806370a082311461074857806372a9e2321461078557806373a82b5f146107b05780638562c003146107d9578063881cf23b1461081657610293565b8063313ce567116101fe578063436e6411116101b7578063436e64111461060b57806352994e2f1461063657806352a9039c14610661578063642e6c921461069e5780636a84a985146106c95780636eedd736146106f457610293565b8063313ce567146104f457806332cb6b0c1461051f57806336568abe1461054a57806339ab4b7c146105735780633b129a561461059e57806340932bf8146105c957610293565b806319f102ec1161025057806319f102ec146103c05780631ee46f9c146103fd57806323b872dd14610428578063248a9ca3146104655780632e1a7d4d146104a25780632f2ff15d146104cb57610293565b806301ffc9a71461029857806306fdde03146102d5578063095ea7b3146103005780630a4ef5f51461033d5780630f813ae11461036a57806318160ddd14610395575b600080fd5b3480156102a457600080fd5b506102bf60048036038101906102ba9190613827565b610bd8565b6040516102cc919061386f565b60405180910390f35b3480156102e157600080fd5b506102ea610c52565b6040516102f7919061391a565b60405180910390f35b34801561030c57600080fd5b50610327600480360381019061032291906139d0565b610ce4565b604051610334919061386f565b60405180910390f35b34801561034957600080fd5b50610352610d07565b60405161036193929190613a1f565b60405180910390f35b34801561037657600080fd5b5061037f610d20565b60405161038c9190613a56565b60405180910390f35b3480156103a157600080fd5b506103aa610d31565b6040516103b79190613a56565b60405180910390f35b3480156103cc57600080fd5b506103e760048036038101906103e29190613a71565b610d3b565b6040516103f49190613aad565b60405180910390f35b34801561040957600080fd5b50610412610d7a565b60405161041f9190613a56565b60405180910390f35b34801561043457600080fd5b5061044f600480360381019061044a9190613ac8565b610d80565b60405161045c919061386f565b60405180910390f35b34801561047157600080fd5b5061048c60048036038101906104879190613b51565b610daf565b6040516104999190613b8d565b60405180910390f35b3480156104ae57600080fd5b506104c960048036038101906104c49190613a71565b610dcf565b005b3480156104d757600080fd5b506104f260048036038101906104ed9190613ba8565b610f7a565b005b34801561050057600080fd5b50610509610f9c565b6040516105169190613c04565b60405180910390f35b34801561052b57600080fd5b50610534610fa5565b6040516105419190613a56565b60405180910390f35b34801561055657600080fd5b50610571600480360381019061056c9190613ba8565b610fb5565b005b34801561057f57600080fd5b50610588611030565b6040516105959190613a56565b60405180910390f35b3480156105aa57600080fd5b506105b3611036565b6040516105c09190613b8d565b60405180910390f35b3480156105d557600080fd5b506105f060048036038101906105eb9190613a71565b61105a565b60405161060296959493929190613c74565b60405180910390f35b34801561061757600080fd5b5061062061116b565b60405161062d9190613a56565b60405180910390f35b34801561064257600080fd5b5061064b611193565b6040516106589190613b8d565b60405180910390f35b34801561066d57600080fd5b5061068860048036038101906106839190613cdc565b6111b7565b6040516106959190613a56565b60405180910390f35b3480156106aa57600080fd5b506106b36111cf565b6040516106c09190613a56565b60405180910390f35b3480156106d557600080fd5b506106de6111d6565b6040516106eb9190613a56565b60405180910390f35b34801561070057600080fd5b5061071b60048036038101906107169190613d09565b6111dc565b005b34801561072957600080fd5b506107326112f4565b60405161073f9190613a56565b60405180910390f35b34801561075457600080fd5b5061076f600480360381019061076a9190613cdc565b6112fe565b60405161077c9190613a56565b60405180910390f35b34801561079157600080fd5b5061079a611346565b6040516107a79190613a56565b60405180910390f35b3480156107bc57600080fd5b506107d760048036038101906107d29190613cdc565b61134c565b005b3480156107e557600080fd5b5061080060048036038101906107fb9190613e7e565b611530565b60405161080d9190613a56565b60405180910390f35b34801561082257600080fd5b5061082b61171a565b6040516108389190613b8d565b60405180910390f35b34801561084d57600080fd5b5061086860048036038101906108639190613e7e565b61173e565b005b34801561087657600080fd5b5061087f611947565b60405161088c9190613a56565b60405180910390f35b3480156108a157600080fd5b506108bc60048036038101906108b79190613ba8565b61194d565b6040516108c9919061386f565b60405180910390f35b3480156108de57600080fd5b506108e76119b8565b6040516108f4919061391a565b60405180910390f35b34801561090957600080fd5b50610924600480360381019061091f9190613cdc565b611a4a565b604051610931919061386f565b60405180910390f35b34801561094657600080fd5b5061094f611afe565b60405161095c9190613b8d565b60405180910390f35b34801561097157600080fd5b5061098c600480360381019061098791906139d0565b611b05565b604051610999919061386f565b60405180910390f35b6109bc60048036038101906109b79190613a71565b611b28565b6040516109c9919061386f565b60405180910390f35b3480156109de57600080fd5b506109f960048036038101906109f49190613a71565b611bf8565b604051610a0c9796959493929190613eed565b60405180910390f35b348015610a2157600080fd5b50610a3c6004803603810190610a379190613a71565b611d0f565b005b348015610a4a57600080fd5b50610a656004803603810190610a609190613cdc565b61200e565b604051610a72919061386f565b60405180910390f35b348015610a8757600080fd5b50610aa26004803603810190610a9d9190613cdc565b61202e565b005b348015610ab057600080fd5b50610acb6004803603810190610ac69190613ba8565b612318565b005b348015610ad957600080fd5b50610af46004803603810190610aef9190613cdc565b61233a565b604051610b01919061386f565b60405180910390f35b348015610b1657600080fd5b50610b316004803603810190610b2c9190613f63565b61245d565b604051610b3e9190613a56565b60405180910390f35b348015610b5357600080fd5b50610b6e6004803603810190610b699190613a71565b6124e4565b005b348015610b7c57600080fd5b50610b85612802565b604051610b929190613b8d565b60405180910390f35b348015610ba757600080fd5b50610bc26004803603810190610bbd9190613cdc565b612826565b604051610bcf919061386f565b60405180910390f35b60007f7965db0b000000000000000000000000000000000000000000000000000000007bffffffffffffffffffffffffffffffffffffffffffffffffffffffff1916827bffffffffffffffffffffffffffffffffffffffffffffffffffffffff19161480610c4b5750610c4a82612859565b5b9050919050565b606060038054610c6190613fd2565b80601f0160208091040260200160405190810160405280929190818152602001828054610c8d90613fd2565b8015610cda5780601f10610caf57610100808354040283529160200191610cda565b820191906000526020600020905b815481529060010190602001808311610cbd57829003601f168201915b5050505050905090565b600080610cef6128c3565b9050610cfc8185856128cb565b600191505092915050565b6000806000600d54600b54600c54925092509250909192565b6000610d2c60126128dd565b905090565b6000600254905090565b60068181548110610d4b57600080fd5b906000526020600020016000915054906101000a900473ffffffffffffffffffffffffffffffffffffffff1681565b600b5481565b600080610d8b6128c3565b9050610d988582856128f2565b610da3858585612987565b60019150509392505050565b600060056000838152602001908152602001600020600101549050919050565b7f8d9233e8f9e0681d692bebdd2fd8c8863336d587e831d84b9bff9f403d549b5f610df981612a7b565b610e01612a8f565b60008211610e44576040517f08c379a0000000000000000000000000000000000000000000000000000000008152600401610e3b90614075565b60405180910390fd5b47821115610e87576040517f08c379a0000000000000000000000000000000000000000000000000000000008152600401610e7e90614107565b60405180910390fd5b600f54821115610ecc576040517f08c379a0000000000000000000000000000000000000000000000000000000008152600401610ec390614199565b60405180910390fd5b600082604051602401610edf9190613a56565b6040516020818303038152906040527fff4d7128000000000000000000000000000000000000000000000000000000007bffffffffffffffffffffffffffffffffffffffffffffffffffffffff19166020820180517bffffffffffffffffffffffffffffffffffffffffffffffffffffffff838183161783525050505090506000610f6a3083612ad5565b90505050610f76612cc4565b5050565b610f8382610daf565b610f8c81612a7b565b610f968383612cce565b50505050565b60006012905090565b6b204fce5e3e2502611000000081565b610fbd6128c3565b73ffffffffffffffffffffffffffffffffffffffff168173ffffffffffffffffffffffffffffffffffffffff1614611021576040517f6697b23200000000000000000000000000000000000000000000000000000000815260040160405180910390fd5b61102b8282612dc0565b505050565b600d5481565b7fc10c77be35aff266144ed64c26a1fa104bae2f284ae99ac4a34203454704a18581565b60096020528060005260406000206000915090508060000154908060010160009054906101000a900473ffffffffffffffffffffffffffffffffffffffff16908060020160009054906101000a900473ffffffffffffffffffffffffffffffffffffffff16908060030180546110cf90613fd2565b80601f01602080910402602001604051908101604052809291908181526020018280546110fb90613fd2565b80156111485780601f1061111d57610100808354040283529160200191611148565b820191906000526020600020905b81548152906001019060200180831161112b57829003601f168201915b5050505050908060040154908060050160009054906101000a900460ff16905086565b606460146b204fce5e3e2502611000000061118691906141e8565b6111909190614259565b81565b7fdf1425bae297c2f52b4f15d18a50b1fc8cb5b981a981b1d213ed3ff92681b64d81565b60106020528060005260406000206000915090505481565b62278d0081565b600e5481565b60008173ffffffffffffffffffffffffffffffffffffffff1683604051611202906142bb565b60006040518083038185875af1925050503d806000811461123f576040519150601f19603f3d011682016040523d82523d6000602084013e611244565b606091505b5050905080611288576040517f08c379a000000000000000000000000000000000000000000000000000000000815260040161127f90614342565b60405180910390fd5b82600f600082825461129a9190614362565b925050819055508173ffffffffffffffffffffffffffffffffffffffff167fef37270ffd4697852e825c7f163a2505cfbd2d7849a69b6ad9c8829d7f90484a846040516112e79190613a56565b60405180910390a2505050565b6000600f54905090565b60008060008373ffffffffffffffffffffffffffffffffffffffff1673ffffffffffffffffffffffffffffffffffffffff168152602001908152602001600020549050919050565b600c5481565b7fc10c77be35aff266144ed64c26a1fa104bae2f284ae99ac4a34203454704a18561137681612a7b565b600860008373ffffffffffffffffffffffffffffffffffffffff1673ffffffffffffffffffffffffffffffffffffffff16815260200190815260200160002060009054906101000a900460ff1615611403576040517f08c379a00000000000000000000000000000000000000000000000000000000081526004016113fa906143e2565b60405180910390fd5b61142d7fc10c77be35aff266144ed64c26a1fa104bae2f284ae99ac4a34203454704a18583612cce565b506006829080600181540180825580915050600190039060005260206000200160009091909190916101000a81548173ffffffffffffffffffffffffffffffffffffffff021916908373ffffffffffffffffffffffffffffffffffffffff1602179055506001600860008473ffffffffffffffffffffffffffffffffffffffff1673ffffffffffffffffffffffffffffffffffffffff16815260200190815260200160002060006101000a81548160ff0219169083151502179055508173ffffffffffffffffffffffffffffffffffffffff167fe1cb5e1230cc02e62c60b81c1aa5ade512f3eac296edb28628b4cf344f47f93160405160405180910390a25050565b60008073ffffffffffffffffffffffffffffffffffffffff168473ffffffffffffffffffffffffffffffffffffffff16036115a0576040517f08c379a00000000000000000000000000000000000000000000000000000000081526004016115979061444e565b60405180910390fd5b600083116115e3576040517f08c379a00000000000000000000000000000000000000000000000000000000081526004016115da906144e0565b60405180910390fd5b6000600e60008154809291906115f890614500565b9190505590506000601160008381526020019081526020016000209050338160000160006101000a81548173ffffffffffffffffffffffffffffffffffffffff021916908373ffffffffffffffffffffffffffffffffffffffff160217905550858160010160006101000a81548173ffffffffffffffffffffffffffffffffffffffff021916908373ffffffffffffffffffffffffffffffffffffffff160217905550848160020181905550838160030190816116b591906146f4565b504281600401819055503373ffffffffffffffffffffffffffffffffffffffff16827f9d34c57b32992f32173fb0ab1d07b286ad0b0e0bc8c5e64de3045fa3f7f8187a876040516117069190613a56565b60405180910390a381925050509392505050565b7f2a725a6d9717b4c35d5874231ea45f47f1155516e23ff17bdd946ad79687853f81565b7f8d9233e8f9e0681d692bebdd2fd8c8863336d587e831d84b9bff9f403d549b5f61176881612a7b565b611770612a8f565b600073ffffffffffffffffffffffffffffffffffffffff168473ffffffffffffffffffffffffffffffffffffffff16036117df576040517f08c379a00000000000000000000000000000000000000000000000000000000081526004016117d69061444e565b60405180910390fd5b60008311611822576040517f08c379a0000000000000000000000000000000000000000000000000000000008152600401611819906144e0565b60405180910390fd5b61182c8484612eb3565b5082601060008673ffffffffffffffffffffffffffffffffffffffff1673ffffffffffffffffffffffffffffffffffffffff168152602001908152602001600020600082825461187c91906147c6565b925050819055507f0af8a758e2e143977c734d5e012b22d6550bc58df51be42389db46d9fcb2e2e08280519060200120036118cf5782600b60008282546118c391906147c6565b925050819055506118e9565b82600c60008282546118e191906147c6565b925050819055505b8373ffffffffffffffffffffffffffffffffffffffff167f375efe875f9cd6a664bdcb7c786b099b864a5ef3a60741abec505c92965932c684846040516119319291906147fa565b60405180910390a2611941612cc4565b50505050565b600f5481565b60006005600084815260200190815260200160002060000160008373ffffffffffffffffffffffffffffffffffffffff1673ffffffffffffffffffffffffffffffffffffffff16815260200190815260200160002060009054906101000a900460ff16905092915050565b6060600480546119c790613fd2565b80601f01602080910402602001604051908101604052809291908181526020018280546119f390613fd2565b8015611a405780601f10611a1557610100808354040283529160200191611a40565b820191906000526020600020905b815481529060010190602001808311611a2357829003601f168201915b5050505050905090565b60007f8d9233e8f9e0681d692bebdd2fd8c8863336d587e831d84b9bff9f403d549b5f611a7681612a7b565b611a8a83601261300f90919063ffffffff16565b611ac9576040517f08c379a0000000000000000000000000000000000000000000000000000000008152600401611ac090614876565b60405180910390fd5b611af37f2a725a6d9717b4c35d5874231ea45f47f1155516e23ff17bdd946ad79687853f84612dc0565b506001915050919050565b6000801b81565b600080611b106128c3565b9050611b1d818585612987565b600191505092915050565b6000611b32612a8f565b600034118015611b4157508134145b611b80576040517f08c379a0000000000000000000000000000000000000000000000000000000008152600401611b77906148e2565b60405180910390fd5b34600f6000828254611b9291906147c6565b925050819055503073ffffffffffffffffffffffffffffffffffffffff167f60bbf3f279de4eb569cec9565dbd645a7d269bef7d4b20083d8da32ddd6e946083604051611bdf9190613a56565b60405180910390a260019050611bf3612cc4565b919050565b60116020528060005260406000206000915090508060000160009054906101000a900473ffffffffffffffffffffffffffffffffffffffff16908060010160009054906101000a900473ffffffffffffffffffffffffffffffffffffffff1690806002015490806003018054611c6d90613fd2565b80601f0160208091040260200160405190810160405280929190818152602001828054611c9990613fd2565b8015611ce65780601f10611cbb57610100808354040283529160200191611ce6565b820191906000526020600020905b815481529060010190602001808311611cc957829003601f168201915b5050505050908060040154908060050154908060060160009054906101000a900460ff16905087565b7fdf1425bae297c2f52b4f15d18a50b1fc8cb5b981a981b1d213ed3ff92681b64d611d3981612a7b565b60006009600084815260200190815260200160002090508060050160009054906101000a900460ff1615611da2576040517f08c379a0000000000000000000000000000000000000000000000000000000008152600401611d999061494e565b60405180910390fd5b8060060160003373ffffffffffffffffffffffffffffffffffffffff1673ffffffffffffffffffffffffffffffffffffffff16815260200190815260200160002060009054906101000a900460ff1615611e31576040517f08c379a0000000000000000000000000000000000000000000000000000000008152600401611e28906149ba565b60405180910390fd5b60018160060160003373ffffffffffffffffffffffffffffffffffffffff1673ffffffffffffffffffffffffffffffffffffffff16815260200190815260200160002060006101000a81548160ff021916908315150217905550806004016000815480929190611ea090614500565b9190505550827f5d4ccf5f92566d140246f4ae3b9cb35dc06fff109a7748602ad77f6260fd9a6133604051611ed59190613aad565b60405180910390a260038160040154106120095760008160020160009054906101000a900473ffffffffffffffffffffffffffffffffffffffff1673ffffffffffffffffffffffffffffffffffffffff1682600301604051611f379190614a72565b6000604051808303816000865af19150503d8060008114611f74576040519150601f19603f3d011682016040523d82523d6000602084013e611f79565b606091505b5050905080611fbd576040517f08c379a0000000000000000000000000000000000000000000000000000000008152600401611fb490614ad5565b60405180910390fd5b60018260050160006101000a81548160ff021916908315150217905550837f7770356c29230b95943aec59d47ead11eb426a728bf5b57f7fd8597f3c0e29ba60405160405180910390a2505b505050565b60086020528060005260406000206000915054906101000a900460ff1681565b6000801b61203b81612a7b565b600860008373ffffffffffffffffffffffffffffffffffffffff1673ffffffffffffffffffffffffffffffffffffffff16815260200190815260200160002060009054906101000a900460ff166120c7576040517f08c379a00000000000000000000000000000000000000000000000000000000081526004016120be90614b41565b60405180910390fd5b60005b60068054905081101561224d578273ffffffffffffffffffffffffffffffffffffffff166006828154811061210257612101614b61565b5b9060005260206000200160009054906101000a900473ffffffffffffffffffffffffffffffffffffffff1673ffffffffffffffffffffffffffffffffffffffff1603612240576006600160068054905061215c9190614362565b8154811061216d5761216c614b61565b5b9060005260206000200160009054906101000a900473ffffffffffffffffffffffffffffffffffffffff16600682815481106121ac576121ab614b61565b5b9060005260206000200160006101000a81548173ffffffffffffffffffffffffffffffffffffffff021916908373ffffffffffffffffffffffffffffffffffffffff160217905550600680548061220657612205614b90565b5b6001900381819060005260206000200160006101000a81549073ffffffffffffffffffffffffffffffffffffffff0219169055905561224d565b80806001019150506120ca565b506000600860008473ffffffffffffffffffffffffffffffffffffffff1673ffffffffffffffffffffffffffffffffffffffff16815260200190815260200160002060006101000a81548160ff0219169083151502179055506122d07fc10c77be35aff266144ed64c26a1fa104bae2f284ae99ac4a34203454704a18583612dc0565b508173ffffffffffffffffffffffffffffffffffffffff167f55dba9d79522b91b615629d5f3b10c2fad2d258f1768614f4a52e937ada0d0ba60405160405180910390a25050565b61232182610daf565b61232a81612a7b565b6123348383612dc0565b50505050565b60007f8d9233e8f9e0681d692bebdd2fd8c8863336d587e831d84b9bff9f403d549b5f61236681612a7b565b600073ffffffffffffffffffffffffffffffffffffffff168373ffffffffffffffffffffffffffffffffffffffff16036123d5576040517f08c379a00000000000000000000000000000000000000000000000000000000081526004016123cc90614c31565b60405180910390fd5b6123e983601261303f90919063ffffffff16565b612428576040517f08c379a000000000000000000000000000000000000000000000000000000000815260040161241f90614c9d565b60405180910390fd5b6124527f2a725a6d9717b4c35d5874231ea45f47f1155516e23ff17bdd946ad79687853f84612cce565b506001915050919050565b6000600160008473ffffffffffffffffffffffffffffffffffffffff1673ffffffffffffffffffffffffffffffffffffffff16815260200190815260200160002060008373ffffffffffffffffffffffffffffffffffffffff1673ffffffffffffffffffffffffffffffffffffffff16815260200190815260200160002054905092915050565b7f2a725a6d9717b4c35d5874231ea45f47f1155516e23ff17bdd946ad79687853f61250e81612a7b565b612516612a8f565b60006011600084815260200190815260200160002090508060060160009054906101000a900460ff161561257f576040517f08c379a000000000000000000000000000000000000000000000000000000000815260040161257690614d2f565b60405180910390fd5b62278d00816004015461259291906147c6565b4211156125d4576040517f08c379a00000000000000000000000000000000000000000000000000000000081526004016125cb90614dc1565b60405180910390fd5b8060070160003373ffffffffffffffffffffffffffffffffffffffff1673ffffffffffffffffffffffffffffffffffffffff16815260200190815260200160002060009054906101000a900460ff1615612663576040517f08c379a000000000000000000000000000000000000000000000000000000000815260040161265a90614e2d565b60405180910390fd5b60018160070160003373ffffffffffffffffffffffffffffffffffffffff1673ffffffffffffffffffffffffffffffffffffffff16815260200190815260200160002060006101000a81548160ff0219169083151502179055508060050160008154809291906126d290614500565b91905055503373ffffffffffffffffffffffffffffffffffffffff16837f41454604bd5a8e631d0b8698c50c1f6a4adc4852a17214e5f697bd57cd20414160405160405180910390a3600261272760126128dd565b6127319190614259565b816005015411156127f55761276e8160010160009054906101000a900473ffffffffffffffffffffffffffffffffffffffff168260020154612eb3565b5060018160060160006101000a81548160ff0219169083151502179055508060010160009054906101000a900473ffffffffffffffffffffffffffffffffffffffff1673ffffffffffffffffffffffffffffffffffffffff16837fad7687aa3ebc66c074c5f5acb7bb3aac89eec1ee584373bae8346d56e7a5fa6060405160405180910390a35b506127fe612cc4565b5050565b7f8d9233e8f9e0681d692bebdd2fd8c8863336d587e831d84b9bff9f403d549b5f81565b60006128527fc10c77be35aff266144ed64c26a1fa104bae2f284ae99ac4a34203454704a1858361194d565b9050919050565b60007f01ffc9a7000000000000000000000000000000000000000000000000000000007bffffffffffffffffffffffffffffffffffffffffffffffffffffffff1916827bffffffffffffffffffffffffffffffffffffffffffffffffffffffff1916149050919050565b600033905090565b6128d8838383600161306f565b505050565b60006128eb82600001613246565b9050919050565b60006128fe848461245d565b90507fffffffffffffffffffffffffffffffffffffffffffffffffffffffffffffffff8110156129815781811015612971578281836040517ffb8f41b200000000000000000000000000000000000000000000000000000000815260040161296893929190614e4d565b60405180910390fd5b6129808484848403600061306f565b5b50505050565b600073ffffffffffffffffffffffffffffffffffffffff168373ffffffffffffffffffffffffffffffffffffffff16036129f95760006040517f96c6fd1e0000000000000000000000000000000000000000000000000000000081526004016129f09190613aad565b60405180910390fd5b600073ffffffffffffffffffffffffffffffffffffffff168273ffffffffffffffffffffffffffffffffffffffff1603612a6b5760006040517fec442f05000000000000000000000000000000000000000000000000000000008152600401612a629190613aad565b60405180910390fd5b612a76838383613257565b505050565b612a8c81612a876128c3565b61347c565b50565b6002600a5403612acb576040517f3ee5aeb500000000000000000000000000000000000000000000000000000000815260040160405180910390fd5b6002600a81905550565b60007fdf1425bae297c2f52b4f15d18a50b1fc8cb5b981a981b1d213ed3ff92681b64d612b0181612a7b565b7fc10c77be35aff266144ed64c26a1fa104bae2f284ae99ac4a34203454704a185612b2b81612a7b565b600060076000815480929190612b4090614500565b9190505590506000600960008381526020019081526020016000209050818160000181905550338160010160006101000a81548173ffffffffffffffffffffffffffffffffffffffff021916908373ffffffffffffffffffffffffffffffffffffffff160217905550868160020160006101000a81548173ffffffffffffffffffffffffffffffffffffffff021916908373ffffffffffffffffffffffffffffffffffffffff16021790555085816003019081612bfd9190614eca565b506001816004018190555060008160050160006101000a81548160ff02191690831515021790555060018160060160003373ffffffffffffffffffffffffffffffffffffffff1673ffffffffffffffffffffffffffffffffffffffff16815260200190815260200160002060006101000a81548160ff021916908315150217905550817fbcc43907be1d435f496e2233697a9a9fead2fb5639dac8459c53d7114829b8be33604051612caf9190613aad565b60405180910390a28194505050505092915050565b6001600a81905550565b6000612cda838361194d565b612db55760016005600085815260200190815260200160002060000160008473ffffffffffffffffffffffffffffffffffffffff1673ffffffffffffffffffffffffffffffffffffffff16815260200190815260200160002060006101000a81548160ff021916908315150217905550612d526128c3565b73ffffffffffffffffffffffffffffffffffffffff168273ffffffffffffffffffffffffffffffffffffffff16847f2f8788117e7eff1d82e926ec794901d17c78024a50270940304540a733656f0d60405160405180910390a460019050612dba565b600090505b92915050565b6000612dcc838361194d565b15612ea85760006005600085815260200190815260200160002060000160008473ffffffffffffffffffffffffffffffffffffffff1673ffffffffffffffffffffffffffffffffffffffff16815260200190815260200160002060006101000a81548160ff021916908315150217905550612e456128c3565b73ffffffffffffffffffffffffffffffffffffffff168273ffffffffffffffffffffffffffffffffffffffff16847ff6391f5c32d9c69d2a47ea670b442974b53935d1edc7fd64eb21e047a839171b60405160405180910390a460019050612ead565b600090505b92915050565b6000606460146b204fce5e3e25026110000000612ed091906141e8565b612eda9190614259565b612ee26134cd565b83612eed91906147c6565b1115612f2e576040517f08c379a0000000000000000000000000000000000000000000000000000000008152600401612f2590614fe8565b60405180910390fd5b600073ffffffffffffffffffffffffffffffffffffffff168373ffffffffffffffffffffffffffffffffffffffff1603612f9d576040517f08c379a0000000000000000000000000000000000000000000000000000000008152600401612f949061507a565b60405180910390fd5b612fa783836134d7565b5081600d6000828254612fba91906147c6565b92505081905550818373ffffffffffffffffffffffffffffffffffffffff167f9c9f15b8cfaf118c4bcce18b04dded23a21adb13f07b271947f2341874c97a2d60405160405180910390a36001905092915050565b6000613037836000018373ffffffffffffffffffffffffffffffffffffffff1660001b613592565b905092915050565b6000613067836000018373ffffffffffffffffffffffffffffffffffffffff1660001b6136a6565b905092915050565b600073ffffffffffffffffffffffffffffffffffffffff168473ffffffffffffffffffffffffffffffffffffffff16036130e15760006040517fe602df050000000000000000000000000000000000000000000000000000000081526004016130d89190613aad565b60405180910390fd5b600073ffffffffffffffffffffffffffffffffffffffff168373ffffffffffffffffffffffffffffffffffffffff16036131535760006040517f94280d6200000000000000000000000000000000000000000000000000000000815260040161314a9190613aad565b60405180910390fd5b81600160008673ffffffffffffffffffffffffffffffffffffffff1673ffffffffffffffffffffffffffffffffffffffff16815260200190815260200160002060008573ffffffffffffffffffffffffffffffffffffffff1673ffffffffffffffffffffffffffffffffffffffff168152602001908152602001600020819055508015613240578273ffffffffffffffffffffffffffffffffffffffff168473ffffffffffffffffffffffffffffffffffffffff167f8c5be1e5ebec7d5bd14f71427d1e84f3dd0314c0f7b2291e5b200ac8c7c3b925846040516132379190613a56565b60405180910390a35b50505050565b600081600001805490509050919050565b600073ffffffffffffffffffffffffffffffffffffffff168373ffffffffffffffffffffffffffffffffffffffff16036132a957806002600082825461329d91906147c6565b9250508190555061337c565b60008060008573ffffffffffffffffffffffffffffffffffffffff1673ffffffffffffffffffffffffffffffffffffffff16815260200190815260200160002054905081811015613335578381836040517fe450d38c00000000000000000000000000000000000000000000000000000000815260040161332c93929190614e4d565b60405180910390fd5b8181036000808673ffffffffffffffffffffffffffffffffffffffff1673ffffffffffffffffffffffffffffffffffffffff16815260200190815260200160002081905550505b600073ffffffffffffffffffffffffffffffffffffffff168273ffffffffffffffffffffffffffffffffffffffff16036133c55780600260008282540392505081905550613412565b806000808473ffffffffffffffffffffffffffffffffffffffff1673ffffffffffffffffffffffffffffffffffffffff168152602001908152602001600020600082825401925050819055505b8173ffffffffffffffffffffffffffffffffffffffff168373ffffffffffffffffffffffffffffffffffffffff167fddf252ad1be2c89b69c2b068fc378daa952ba7f163c4a11628f55a4df523b3ef8360405161346f9190613a56565b60405180910390a3505050565b613486828261194d565b6134c95780826040517fe2517d3f0000000000000000000000000000000000000000000000000000000081526004016134c092919061509a565b60405180910390fd5b5050565b6000600d54905090565b60006b204fce5e3e250261100000006134ee610d31565b836134f991906147c6565b111561353a576040517f08c379a00000000000000000000000000000000000000000000000000000000081526004016135319061510f565b60405180910390fd5b6135448383613716565b818373ffffffffffffffffffffffffffffffffffffffff167fcda531bfd68624f13205c0a23cd4d5a7f09792cbb399603114f2b04aaa1bf5cf60405160405180910390a36001905092915050565b6000808360010160008481526020019081526020016000205490506000811461369a5760006001826135c49190614362565b90506000600186600001805490506135dc9190614362565b905080821461364b5760008660000182815481106135fd576135fc614b61565b5b906000526020600020015490508087600001848154811061362157613620614b61565b5b90600052602060002001819055508387600101600083815260200190815260200160002081905550505b8560000180548061365f5761365e614b90565b5b6001900381819060005260206000200160009055905585600101600086815260200190815260200160002060009055600193505050506136a0565b60009150505b92915050565b60006136b28383613798565b61370b578260000182908060018154018082558091505060019003906000526020600020016000909190919091505582600001805490508360010160008481526020019081526020016000208190555060019050613710565b600090505b92915050565b600073ffffffffffffffffffffffffffffffffffffffff168273ffffffffffffffffffffffffffffffffffffffff16036137885760006040517fec442f0500000000000000000000000000000000000000000000000000000000815260040161377f9190613aad565b60405180910390fd5b61379460008383613257565b5050565b600080836001016000848152602001908152602001600020541415905092915050565b6000604051905090565b600080fd5b600080fd5b60007fffffffff0000000000000000000000000000000000000000000000000000000082169050919050565b613804816137cf565b811461380f57600080fd5b50565b600081359050613821816137fb565b92915050565b60006020828403121561383d5761383c6137c5565b5b600061384b84828501613812565b91505092915050565b60008115159050919050565b61386981613854565b82525050565b60006020820190506138846000830184613860565b92915050565b600081519050919050565b600082825260208201905092915050565b60005b838110156138c45780820151818401526020810190506138a9565b60008484015250505050565b6000601f19601f8301169050919050565b60006138ec8261388a565b6138f68185613895565b93506139068185602086016138a6565b61390f816138d0565b840191505092915050565b6000602082019050818103600083015261393481846138e1565b905092915050565b600073ffffffffffffffffffffffffffffffffffffffff82169050919050565b60006139678261393c565b9050919050565b6139778161395c565b811461398257600080fd5b50565b6000813590506139948161396e565b92915050565b6000819050919050565b6139ad8161399a565b81146139b857600080fd5b50565b6000813590506139ca816139a4565b92915050565b600080604083850312156139e7576139e66137c5565b5b60006139f585828601613985565b9250506020613a06858286016139bb565b9150509250929050565b613a198161399a565b82525050565b6000606082019050613a346000830186613a10565b613a416020830185613a10565b613a4e6040830184613a10565b949350505050565b6000602082019050613a6b6000830184613a10565b92915050565b600060208284031215613a8757613a866137c5565b5b6000613a95848285016139bb565b91505092915050565b613aa78161395c565b82525050565b6000602082019050613ac26000830184613a9e565b92915050565b600080600060608486031215613ae157613ae06137c5565b5b6000613aef86828701613985565b9350506020613b0086828701613985565b9250506040613b11868287016139bb565b9150509250925092565b6000819050919050565b613b2e81613b1b565b8114613b3957600080fd5b50565b600081359050613b4b81613b25565b92915050565b600060208284031215613b6757613b666137c5565b5b6000613b7584828501613b3c565b91505092915050565b613b8781613b1b565b82525050565b6000602082019050613ba26000830184613b7e565b92915050565b60008060408385031215613bbf57613bbe6137c5565b5b6000613bcd85828601613b3c565b9250506020613bde85828601613985565b9150509250929050565b600060ff82169050919050565b613bfe81613be8565b82525050565b6000602082019050613c196000830184613bf5565b92915050565b600081519050919050565b600082825260208201905092915050565b6000613c4682613c1f565b613c508185613c2a565b9350613c608185602086016138a6565b613c69816138d0565b840191505092915050565b600060c082019050613c896000830189613a10565b613c966020830188613a9e565b613ca36040830187613a9e565b8181036060830152613cb58186613c3b565b9050613cc46080830185613a10565b613cd160a0830184613860565b979650505050505050565b600060208284031215613cf257613cf16137c5565b5b6000613d0084828501613985565b91505092915050565b60008060408385031215613d2057613d1f6137c5565b5b6000613d2e858286016139bb565b9250506020613d3f85828601613985565b9150509250929050565b600080fd5b600080fd5b7f4e487b7100000000000000000000000000000000000000000000000000000000600052604160045260246000fd5b613d8b826138d0565b810181811067ffffffffffffffff82111715613daa57613da9613d53565b5b80604052505050565b6000613dbd6137bb565b9050613dc98282613d82565b919050565b600067ffffffffffffffff821115613de957613de8613d53565b5b613df2826138d0565b9050602081019050919050565b82818337600083830152505050565b6000613e21613e1c84613dce565b613db3565b905082815260208101848484011115613e3d57613e3c613d4e565b5b613e48848285613dff565b509392505050565b600082601f830112613e6557613e64613d49565b5b8135613e75848260208601613e0e565b91505092915050565b600080600060608486031215613e9757613e966137c5565b5b6000613ea586828701613985565b9350506020613eb6868287016139bb565b925050604084013567ffffffffffffffff811115613ed757613ed66137ca565b5b613ee386828701613e50565b9150509250925092565b600060e082019050613f02600083018a613a9e565b613f0f6020830189613a9e565b613f1c6040830188613a10565b8181036060830152613f2e81876138e1565b9050613f3d6080830186613a10565b613f4a60a0830185613a10565b613f5760c0830184613860565b98975050505050505050565b60008060408385031215613f7a57613f796137c5565b5b6000613f8885828601613985565b9250506020613f9985828601613985565b9150509250929050565b7f4e487b7100000000000000000000000000000000000000000000000000000000600052602260045260246000fd5b60006002820490506001821680613fea57607f821691505b602082108103613ffd57613ffc613fa3565b5b50919050565b7f54726561737572793a205769746864726177616c20616d6f756e74206d75737460008201527f2062652067726561746572207468616e20300000000000000000000000000000602082015250565b600061405f603283613895565b915061406a82614003565b604082019050919050565b6000602082019050818103600083015261408e81614052565b9050919050565b7f54726561737572793a20496e73756666696369656e7420636f6e74726163742060008201527f62616c616e636500000000000000000000000000000000000000000000000000602082015250565b60006140f1602783613895565b91506140fc82614095565b604082019050919050565b60006020820190508181036000830152614120816140e4565b9050919050565b7f54726561737572793a20496e73756666696369656e7420747261636b6564206260008201527f616c616e63650000000000000000000000000000000000000000000000000000602082015250565b6000614183602683613895565b915061418e82614127565b604082019050919050565b600060208201905081810360008301526141b281614176565b9050919050565b7f4e487b7100000000000000000000000000000000000000000000000000000000600052601160045260246000fd5b60006141f38261399a565b91506141fe8361399a565b925082820261420c8161399a565b91508282048414831517614223576142226141b9565b5b5092915050565b7f4e487b7100000000000000000000000000000000000000000000000000000000600052601260045260246000fd5b60006142648261399a565b915061426f8361399a565b92508261427f5761427e61422a565b5b828204905092915050565b600081905092915050565b50565b60006142a560008361428a565b91506142b082614295565b600082019050919050565b60006142c682614298565b9150819050919050565b7f54726561737572793a205769746864726177616c207472616e7366657220666160008201527f696c656400000000000000000000000000000000000000000000000000000000602082015250565b600061432c602483613895565b9150614337826142d0565b604082019050919050565b6000602082019050818103600083015261435b8161431f565b9050919050565b600061436d8261399a565b91506143788361399a565b92508282039050818111156143905761438f6141b9565b5b92915050565b7f416c726561647920696e20726576696577657220706f6f6c0000000000000000600082015250565b60006143cc601883613895565b91506143d782614396565b602082019050919050565b600060208201905081810360008301526143fb816143bf565b9050919050565b7f54726561737572793a20496e76616c696420726563697069656e740000000000600082015250565b6000614438601b83613895565b915061444382614402565b602082019050919050565b600060208201905081810360008301526144678161442b565b9050919050565b7f54726561737572793a20416d6f756e74206d757374206265206772656174657260008201527f207468616e203000000000000000000000000000000000000000000000000000602082015250565b60006144ca602783613895565b91506144d58261446e565b604082019050919050565b600060208201905081810360008301526144f9816144bd565b9050919050565b600061450b8261399a565b91507fffffffffffffffffffffffffffffffffffffffffffffffffffffffffffffffff820361453d5761453c6141b9565b5b600182019050919050565b60008190508160005260206000209050919050565b60006020601f8301049050919050565b600082821b905092915050565b6000600883026145aa7fffffffffffffffffffffffffffffffffffffffffffffffffffffffffffffffff8261456d565b6145b4868361456d565b95508019841693508086168417925050509392505050565b6000819050919050565b60006145f16145ec6145e78461399a565b6145cc565b61399a565b9050919050565b6000819050919050565b61460b836145d6565b61461f614617826145f8565b84845461457a565b825550505050565b600090565b614634614627565b61463f818484614602565b505050565b5b818110156146635761465860008261462c565b600181019050614645565b5050565b601f8211156146a85761467981614548565b6146828461455d565b81016020851015614691578190505b6146a561469d8561455d565b830182614644565b50505b505050565b600082821c905092915050565b60006146cb600019846008026146ad565b1980831691505092915050565b60006146e483836146ba565b9150826002028217905092915050565b6146fd8261388a565b67ffffffffffffffff81111561471657614715613d53565b5b6147208254613fd2565b61472b828285614667565b600060209050601f83116001811461475e576000841561474c578287015190505b61475685826146d8565b8655506147be565b601f19841661476c86614548565b60005b828110156147945784890151825560018201915060208501945060208101905061476f565b868310156147b157848901516147ad601f8916826146ba565b8355505b6001600288020188555050505b505050505050565b60006147d18261399a565b91506147dc8361399a565b92508282019050808211156147f4576147f36141b9565b5b92915050565b600060408201905061480f6000830185613a10565b818103602083015261482181846138e1565b90509392505050565b7f54726561737572793a2054727573746565206e6f7420666f756e640000000000600082015250565b6000614860601b83613895565b915061486b8261482a565b602082019050919050565b6000602082019050818103600083015261488f81614853565b9050919050565b7f54726561737572793a20496e76616c6964206465706f73697420616d6f756e74600082015250565b60006148cc602083613895565b91506148d782614896565b602082019050919050565b600060208201905081810360008301526148fb816148bf565b9050919050565b7f50726f706f73616c20616c726561647920657865637574656400000000000000600082015250565b6000614938601983613895565b915061494382614902565b602082019050919050565b600060208201905081810360008301526149678161492b565b9050919050565b7f416c726561647920617070726f76656400000000000000000000000000000000600082015250565b60006149a4601083613895565b91506149af8261496e565b602082019050919050565b600060208201905081810360008301526149d381614997565b9050919050565b60008190508160005260206000209050919050565b600081546149fc81613fd2565b614a06818661428a565b94506001821660008114614a215760018114614a3657614a69565b60ff1983168652811515820286019350614a69565b614a3f856149da565b60005b83811015614a6157815481890152600182019150602081019050614a42565b838801955050505b50505092915050565b6000614a7e82846149ef565b915081905092915050565b7f50726f706f73616c20657865637574696f6e206661696c656400000000000000600082015250565b6000614abf601983613895565b9150614aca82614a89565b602082019050919050565b60006020820190508181036000830152614aee81614ab2565b9050919050565b7f4e6f7420696e20726576696577657220706f6f6c000000000000000000000000600082015250565b6000614b2b601483613895565b9150614b3682614af5565b602082019050919050565b60006020820190508181036000830152614b5a81614b1e565b9050919050565b7f4e487b7100000000000000000000000000000000000000000000000000000000600052603260045260246000fd5b7f4e487b7100000000000000000000000000000000000000000000000000000000600052603160045260246000fd5b7f54726561737572793a20496e76616c696420747275737465652061646472657360008201527f7300000000000000000000000000000000000000000000000000000000000000602082015250565b6000614c1b602183613895565b9150614c2682614bbf565b604082019050919050565b60006020820190508181036000830152614c4a81614c0e565b9050919050565b7f54726561737572793a205472757374656520616c726561647920657869737473600082015250565b6000614c87602083613895565b9150614c9282614c51565b602082019050919050565b60006020820190508181036000830152614cb681614c7a565b9050919050565b7f54726561737572793a205265717565737420616c72656164792065786563757460008201527f6564000000000000000000000000000000000000000000000000000000000000602082015250565b6000614d19602283613895565b9150614d2482614cbd565b604082019050919050565b60006020820190508181036000830152614d4881614d0c565b9050919050565b7f54726561737572793a2046756e64696e6720726571756573742065787069726560008201527f6400000000000000000000000000000000000000000000000000000000000000602082015250565b6000614dab602183613895565b9150614db682614d4f565b604082019050919050565b60006020820190508181036000830152614dda81614d9e565b9050919050565b7f54726561737572793a20416c726561647920766f746564000000000000000000600082015250565b6000614e17601783613895565b9150614e2282614de1565b602082019050919050565b60006020820190508181036000830152614e4681614e0a565b9050919050565b6000606082019050614e626000830186613a9e565b614e6f6020830185613a10565b614e7c6040830184613a10565b949350505050565b601f821115614ec557614e96816149da565b614e9f8461455d565b81016020851015614eae578190505b614ec2614eba8561455d565b830182614644565b50505b505050565b614ed382613c1f565b67ffffffffffffffff811115614eec57614eeb613d53565b5b614ef68254613fd2565b614f01828285614e84565b600060209050601f831160018114614f345760008415614f22578287015190505b614f2c85826146d8565b865550614f94565b601f198416614f42866149da565b60005b82811015614f6a57848901518255600182019150602085019450602081019050614f45565b86831015614f875784890151614f83601f8916826146ba565b8355505b6001600288020188555050505b505050505050565b7f54726561737572793a204d696e74696e67206c696d6974206578636565646564600082015250565b6000614fd2602083613895565b9150614fdd82614f9c565b602082019050919050565b6000602082019050818103600083015261500181614fc5565b9050919050565b7f54726561737572793a2043616e6e6f74206d696e7420746f207a65726f20616460008201527f6472657373000000000000000000000000000000000000000000000000000000602082015250565b6000615064602583613895565b915061506f82615008565b604082019050919050565b6000602082019050818103600083015261509381615057565b9050919050565b60006040820190506150af6000830185613a9e565b6150bc6020830184613b7e565b9392505050565b7f4c696d6974204578636565646564210000000000000000000000000000000000600082015250565b60006150f9600f83613895565b9150615104826150c3565b602082019050919050565b60006020820190508181036000830152615128816150ec565b905091905056fea2646970667358221220c36eac56b09aa06c74cb9ce99f9a05d804048b8ce47a8e3da3e7a495d8e5610164736f6c634300081b0033",
  "linkReferences": {},
  "deployedLinkReferences": {}
}