{
  "_format": "hh-sol-artifact-1",
  "contractName": "Treasury",
  "sourceName": "contracts/Treasury.sol",
  "abi": [
    {
      "inputs": [
        {
          "internalType": "address[]",
          "name": "_reviewers",
          "type": "address[]"
        }
      ],
      "stateMutability": "nonpayable",
      "type": "constructor"
    },
    {
      "inputs": [],
      "name": "AccessControlBadConfirmation",
      "type": "error"
    },
    {
      "inputs": [
        {
          "internalType": "address",
          "name": "account",
          "type": "address"
        },
        {
          "internalType": "bytes32",
          "name": "neededRole",
          "type": "bytes32"
        }
      ],
      "name": "AccessControlUnauthorizedAccount",
      "type": "error"
    },
    {
      "inputs": [
        {
          "internalType": "address",
          "name": "spender",
          "type": "address"
        },
        {
          "internalType": "uint256",
          "name": "allowance",
          "type": "uint256"
        },
        {
          "internalType": "uint256",
          "name": "needed",
          "type": "uint256"
        }
      ],
      "name": "ERC20InsufficientAllowance",
      "type": "error"
    },
    {
      "inputs": [
        {
          "internalType": "address",
          "name": "sender",
          "type": "address"
        },
        {
          "internalType": "uint256",
          "name": "balance",
          "type": "uint256"
        },
        {
          "internalType": "uint256",
          "name": "needed",
          "type": "uint256"
        }
      ],
      "name": "ERC20InsufficientBalance",
      "type": "error"
    },
    {
      "inputs": [
        {
          "internalType": "address",
          "name": "approver",
          "type": "address"
        }
      ],
      "name": "ERC20InvalidApprover",
      "type": "error"
    },
    {
      "inputs": [
        {
          "internalType": "address",
          "name": "receiver",
          "type": "address"
        }
      ],
      "name": "ERC20InvalidReceiver",
      "type": "error"
    },
    {
      "inputs": [
        {
          "internalType": "address",
          "name": "sender",
          "type": "address"
        }
      ],
      "name": "ERC20InvalidSender",
      "type": "error"
    },
    {
      "inputs": [
        {
          "internalType": "address",
          "name": "spender",
          "type": "address"
        }
      ],
      "name": "ERC20InvalidSpender",
      "type": "error"
    },
    {
      "inputs": [],
      "name": "ReentrancyGuardReentrantCall",
      "type": "error"
    },
    {
      "anonymous": false,
      "inputs": [
        {
          "indexed": true,
          "internalType": "address",
          "name": "owner",
          "type": "address"
        },
        {
          "indexed": true,
          "internalType": "address",
          "name": "spender",
          "type": "address"
        },
        {
          "indexed": false,
          "internalType": "uint256",
          "name": "value",
          "type": "uint256"
        }
      ],
      "name": "Approval",
      "type": "event"
    },
    {
      "anonymous": false,
      "inputs": [
        {
          "indexed": true,
          "internalType": "address",
          "name": "_account",
          "type": "address"
        },
        {
          "indexed": false,
          "internalType": "uint256",
          "name": "_amount",
          "type": "uint256"
        }
      ],
      "name": "BurnSuccess",
      "type": "event"
    },
    {
      "anonymous": false,
      "inputs": [
        {
          "indexed": true,
          "internalType": "address",
          "name": "_contract",
          "type": "address"
        },
        {
          "indexed": false,
          "internalType": "uint256",
          "name": "amount",
          "type": "uint256"
        }
      ],
      "name": "DepositSuccess",
      "type": "event"
    },
    {
      "anonymous": false,
      "inputs": [
        {
          "indexed": true,
          "internalType": "uint256",
          "name": "requestId",
          "type": "uint256"
        },
        {
          "indexed": true,
          "internalType": "address",
          "name": "trustee",
          "type": "address"
        }
      ],
      "name": "FundingRequestApproved",
      "type": "event"
    },
    {
      "anonymous": false,
      "inputs": [
        {
          "indexed": true,
          "internalType": "uint256",
          "name": "requestId",
          "type": "uint256"
        },
        {
          "indexed": true,
          "internalType": "address",
          "name": "requester",
          "type": "address"
        },
        {
          "indexed": false,
          "internalType": "uint256",
          "name": "amount",
          "type": "uint256"
        }
      ],
      "name": "FundingRequestCreated",
      "type": "event"
    },
    {
      "anonymous": false,
      "inputs": [
        {
          "indexed": true,
          "internalType": "uint256",
          "name": "requestId",
          "type": "uint256"
        },
        {
          "indexed": true,
          "internalType": "address",
          "name": "recipient",
          "type": "address"
        }
      ],
      "name": "FundingRequestExecuted",
      "type": "event"
    },
    {
      "anonymous": false,
      "inputs": [
        {
          "indexed": true,
          "internalType": "address",
          "name": "recipient",
          "type": "address"
        },
        {
          "indexed": false,
          "internalType": "uint256",
          "name": "amount",
          "type": "uint256"
        },
        {
          "indexed": false,
          "internalType": "string",
          "name": "purpose",
          "type": "string"
        }
      ],
      "name": "FundsAllocated",
      "type": "event"
    },
    {
      "anonymous": false,
      "inputs": [
        {
          "indexed": true,
          "internalType": "address",
          "name": "_to",
          "type": "address"
        },
        {
          "indexed": true,
          "internalType": "uint256",
          "name": "_amount",
          "type": "uint256"
        }
      ],
      "name": "MintSuccess",
      "type": "event"
    },
    {
      "anonymous": false,
      "inputs": [
        {
          "indexed": true,
          "internalType": "address",
          "name": "reviewer",
          "type": "address"
        }
      ],
      "name": "ReviewerAddedToPool",
      "type": "event"
    },
    {
      "anonymous": false,
      "inputs": [
        {
          "indexed": true,
          "internalType": "address",
          "name": "reviewer",
          "type": "address"
        }
      ],
      "name": "ReviewerRemovedFromPool",
      "type": "event"
    },
    {
      "anonymous": false,
      "inputs": [
        {
          "indexed": true,
          "internalType": "bytes32",
          "name": "role",
          "type": "bytes32"
        },
        {
          "indexed": true,
          "internalType": "bytes32",
          "name": "previousAdminRole",
          "type": "bytes32"
        },
        {
          "indexed": true,
          "internalType": "bytes32",
          "name": "newAdminRole",
          "type": "bytes32"
        }
      ],
      "name": "RoleAdminChanged",
      "type": "event"
    },
    {
      "anonymous": false,
      "inputs": [
        {
          "indexed": true,
          "internalType": "bytes32",
          "name": "role",
          "type": "bytes32"
        },
        {
          "indexed": true,
          "internalType": "address",
          "name": "account",
          "type": "address"
        },
        {
          "indexed": true,
          "internalType": "address",
          "name": "sender",
          "type": "address"
        }
      ],
      "name": "RoleGranted",
      "type": "event"
    },
    {
      "anonymous": false,
      "inputs": [
        {
          "indexed": true,
          "internalType": "bytes32",
          "name": "role",
          "type": "bytes32"
        },
        {
          "indexed": true,
          "internalType": "address",
          "name": "account",
          "type": "address"
        },
        {
          "indexed": true,
          "internalType": "address",
          "name": "sender",
          "type": "address"
        }
      ],
      "name": "RoleRevoked",
      "type": "event"
    },
    {
      "anonymous": false,
      "inputs": [
        {
          "indexed": true,
          "internalType": "address",
          "name": "from",
          "type": "address"
        },
        {
          "indexed": true,
          "internalType": "address",
          "name": "to",
          "type": "address"
        },
        {
          "indexed": false,
          "internalType": "uint256",
          "name": "value",
          "type": "uint256"
        }
      ],
      "name": "Transfer",
      "type": "event"
    },
    {
      "anonymous": false,
      "inputs": [
        {
          "indexed": true,
          "internalType": "address",
          "name": "_to",
          "type": "address"
        },
        {
          "indexed": true,
          "internalType": "uint256",
          "name": "_amount",
          "type": "uint256"
        }
      ],
      "name": "TreasuryPoolUpdate",
      "type": "event"
    },
    {
      "anonymous": false,
      "inputs": [
        {
          "indexed": true,
          "internalType": "address",
          "name": "recipient",
          "type": "address"
        },
        {
          "indexed": false,
          "internalType": "uint256",
          "name": "amount",
          "type": "uint256"
        }
      ],
      "name": "WithdrawalSuccess",
      "type": "event"
    },
    {
      "inputs": [],
      "name": "DEFAULT_ADMIN_ROLE",
      "outputs": [
        {
          "internalType": "bytes32",
          "name": "",
          "type": "bytes32"
        }
      ],
      "stateMutability": "view",
      "type": "function"
    },
    {
      "inputs": [],
      "name": "MAX_FUNDING_REQUEST_DURATION",
      "outputs": [
        {
          "internalType": "uint256",
          "name": "",
          "type": "uint256"
        }
      ],
      "stateMutability": "view",
      "type": "function"
    },
    {
      "inputs": [],
      "name": "MAX_SUPPLY",
      "outputs": [
        {
          "internalType": "uint256",
          "name": "",
          "type": "uint256"
        }
      ],
      "stateMutability": "view",
      "type": "function"
    },
    {
      "inputs": [],
      "name": "REVIEWER_ROLE",
      "outputs": [
        {
          "internalType": "bytes32",
          "name": "",
          "type": "bytes32"
        }
      ],
      "stateMutability": "view",
      "type": "function"
    },
    {
      "inputs": [],
      "name": "TREASURER",
      "outputs": [
        {
          "internalType": "bytes32",
          "name": "",
          "type": "bytes32"
        }
      ],
      "stateMutability": "view",
      "type": "function"
    },
    {
      "inputs": [],
      "name": "TREASURY_POOL",
      "outputs": [
        {
          "internalType": "uint256",
          "name": "",
          "type": "uint256"
        }
      ],
      "stateMutability": "view",
      "type": "function"
    },
    {
      "inputs": [],
      "name": "TRUSTEE",
      "outputs": [
        {
          "internalType": "bytes32",
          "name": "",
          "type": "bytes32"
        }
      ],
      "stateMutability": "view",
      "type": "function"
    },
    {
      "inputs": [
        {
          "internalType": "address",
          "name": "newReviewer",
          "type": "address"
        }
      ],
      "name": "addReviewer",
      "outputs": [],
      "stateMutability": "nonpayable",
      "type": "function"
    },
    {
      "inputs": [
        {
          "internalType": "address",
          "name": "_trustee",
          "type": "address"
        }
      ],
      "name": "addTrustee",
      "outputs": [
        {
          "internalType": "bool",
          "name": "",
          "type": "bool"
        }
      ],
      "stateMutability": "nonpayable",
      "type": "function"
    },
    {
      "inputs": [
        {
          "internalType": "address",
          "name": "recipient",
          "type": "address"
        },
        {
          "internalType": "uint256",
          "name": "amount",
          "type": "uint256"
        },
        {
          "internalType": "string",
          "name": "purpose",
          "type": "string"
        }
      ],
      "name": "allocateFunds",
      "outputs": [],
      "stateMutability": "nonpayable",
      "type": "function"
    },
    {
      "inputs": [
        {
          "internalType": "address",
          "name": "",
          "type": "address"
        }
      ],
      "name": "allocations",
      "outputs": [
        {
          "internalType": "uint256",
          "name": "",
          "type": "uint256"
        }
      ],
      "stateMutability": "view",
      "type": "function"
    },
    {
      "inputs": [
        {
          "internalType": "address",
          "name": "owner",
          "type": "address"
        },
        {
          "internalType": "address",
          "name": "spender",
          "type": "address"
        }
      ],
      "name": "allowance",
      "outputs": [
        {
          "internalType": "uint256",
          "name": "",
          "type": "uint256"
        }
      ],
      "stateMutability": "view",
      "type": "function"
    },
    {
      "inputs": [
        {
          "internalType": "address",
          "name": "spender",
          "type": "address"
        },
        {
          "internalType": "uint256",
          "name": "value",
          "type": "uint256"
        }
      ],
      "name": "approve",
      "outputs": [
        {
          "internalType": "bool",
          "name": "",
          "type": "bool"
        }
      ],
      "stateMutability": "nonpayable",
      "type": "function"
    },
    {
      "inputs": [
        {
          "internalType": "uint256",
          "name": "requestId",
          "type": "uint256"
        }
      ],
      "name": "approveFundingRequest",
      "outputs": [],
      "stateMutability": "nonpayable",
      "type": "function"
    },
    {
      "inputs": [
        {
          "internalType": "address",
          "name": "account",
          "type": "address"
        }
      ],
      "name": "balanceOf",
      "outputs": [
        {
          "internalType": "uint256",
          "name": "",
          "type": "uint256"
        }
      ],
      "stateMutability": "view",
      "type": "function"
    },
    {
      "inputs": [],
      "name": "contractBalance",
      "outputs": [
        {
          "internalType": "uint256",
          "name": "",
          "type": "uint256"
        }
      ],
      "stateMutability": "view",
      "type": "function"
    },
    {
      "inputs": [],
      "name": "decimals",
      "outputs": [
        {
          "internalType": "uint8",
          "name": "",
          "type": "uint8"
        }
      ],
      "stateMutability": "view",
      "type": "function"
    },
    {
      "inputs": [
        {
          "internalType": "uint256",
          "name": "amount",
          "type": "uint256"
        }
      ],
      "name": "deposit",
      "outputs": [
        {
          "internalType": "bool",
          "name": "",
          "type": "bool"
        }
      ],
      "stateMutability": "payable",
      "type": "function"
    },
    {
      "inputs": [
        {
          "internalType": "uint256",
          "name": "",
          "type": "uint256"
        }
      ],
      "name": "fundingRequests",
      "outputs": [
        {
          "internalType": "address",
          "name": "requester",
          "type": "address"
        },
        {
          "internalType": "address",
          "name": "recipient",
          "type": "address"
        },
        {
          "internalType": "uint256",
          "name": "amount",
          "type": "uint256"
        },
        {
          "internalType": "string",
          "name": "purpose",
          "type": "string"
        },
        {
          "internalType": "uint256",
          "name": "createdAt",
          "type": "uint256"
        },
        {
          "internalType": "uint256",
          "name": "approvalCount",
          "type": "uint256"
        },
        {
          "internalType": "bool",
          "name": "executed",
          "type": "bool"
        }
      ],
      "stateMutability": "view",
      "type": "function"
    },
    {
      "inputs": [],
      "name": "getContractBalance",
      "outputs": [
        {
          "internalType": "uint256",
          "name": "",
          "type": "uint256"
        }
      ],
      "stateMutability": "view",
      "type": "function"
    },
    {
      "inputs": [
        {
          "internalType": "bytes32",
          "name": "role",
          "type": "bytes32"
        }
      ],
      "name": "getRoleAdmin",
      "outputs": [
        {
          "internalType": "bytes32",
          "name": "",
          "type": "bytes32"
        }
      ],
      "stateMutability": "view",
      "type": "function"
    },
    {
      "inputs": [],
      "name": "getTrusteesCount",
      "outputs": [
        {
          "internalType": "uint256",
          "name": "",
          "type": "uint256"
        }
      ],
      "stateMutability": "view",
      "type": "function"
    },
    {
      "inputs": [
        {
          "internalType": "bytes32",
          "name": "role",
          "type": "bytes32"
        },
        {
          "internalType": "address",
          "name": "account",
          "type": "address"
        }
      ],
      "name": "grantRole",
      "outputs": [],
      "stateMutability": "nonpayable",
      "type": "function"
    },
    {
      "inputs": [
        {
          "internalType": "bytes32",
          "name": "role",
          "type": "bytes32"
        },
        {
          "internalType": "address",
          "name": "account",
          "type": "address"
        }
      ],
      "name": "hasRole",
      "outputs": [
        {
          "internalType": "bool",
          "name": "",
          "type": "bool"
        }
      ],
      "stateMutability": "view",
      "type": "function"
    },
    {
      "inputs": [
        {
          "internalType": "address",
          "name": "",
          "type": "address"
        }
      ],
      "name": "isInReviewerPool",
      "outputs": [
        {
          "internalType": "bool",
          "name": "",
          "type": "bool"
        }
      ],
      "stateMutability": "view",
      "type": "function"
    },
    {
      "inputs": [
        {
          "internalType": "address",
          "name": "account",
          "type": "address"
        }
      ],
      "name": "isReviewer",
      "outputs": [
        {
          "internalType": "bool",
          "name": "",
          "type": "bool"
        }
      ],
      "stateMutability": "view",
      "type": "function"
    },
    {
      "inputs": [],
      "name": "marketingSpent",
      "outputs": [
        {
          "internalType": "uint256",
          "name": "",
          "type": "uint256"
        }
      ],
      "stateMutability": "view",
      "type": "function"
    },
    {
      "inputs": [],
      "name": "name",
      "outputs": [
        {
          "internalType": "string",
          "name": "",
          "type": "string"
        }
      ],
      "stateMutability": "view",
      "type": "function"
    },
    {
      "inputs": [],
      "name": "nextRequestId",
      "outputs": [
        {
          "internalType": "uint256",
          "name": "",
          "type": "uint256"
        }
      ],
      "stateMutability": "view",
      "type": "function"
    },
    {
      "inputs": [
        {
          "internalType": "address",
          "name": "reviewer",
          "type": "address"
        }
      ],
      "name": "removeReviewer",
      "outputs": [],
      "stateMutability": "nonpayable",
      "type": "function"
    },
    {
      "inputs": [
        {
          "internalType": "bytes32",
          "name": "role",
          "type": "bytes32"
        },
        {
          "internalType": "address",
          "name": "callerConfirmation",
          "type": "address"
        }
      ],
      "name": "renounceRole",
      "outputs": [],
      "stateMutability": "nonpayable",
      "type": "function"
    },
    {
      "inputs": [
        {
          "internalType": "address",
          "name": "to",
          "type": "address"
        },
        {
          "internalType": "uint256",
          "name": "amount",
          "type": "uint256"
        },
        {
          "internalType": "string",
          "name": "purpose",
          "type": "string"
        }
      ],
      "name": "requestFunding",
      "outputs": [
        {
          "internalType": "uint256",
          "name": "",
          "type": "uint256"
        }
      ],
      "stateMutability": "nonpayable",
      "type": "function"
    },
    {
      "inputs": [],
      "name": "reserveFunds",
      "outputs": [
        {
          "internalType": "uint256",
          "name": "",
          "type": "uint256"
        }
      ],
      "stateMutability": "view",
      "type": "function"
    },
    {
      "inputs": [
        {
          "internalType": "uint256",
          "name": "",
          "type": "uint256"
        }
      ],
      "name": "reviewerPool",
      "outputs": [
        {
          "internalType": "address",
          "name": "",
          "type": "address"
        }
      ],
      "stateMutability": "view",
      "type": "function"
    },
    {
      "inputs": [
        {
          "internalType": "bytes32",
          "name": "role",
          "type": "bytes32"
        },
        {
          "internalType": "address",
          "name": "account",
          "type": "address"
        }
      ],
      "name": "revokeRole",
      "outputs": [],
      "stateMutability": "nonpayable",
      "type": "function"
    },
    {
      "inputs": [
        {
          "internalType": "address",
          "name": "_trustee",
          "type": "address"
        }
      ],
      "name": "revokeTrustee",
      "outputs": [
        {
          "internalType": "bool",
          "name": "",
          "type": "bool"
        }
      ],
      "stateMutability": "nonpayable",
      "type": "function"
    },
    {
      "inputs": [
        {
          "internalType": "bytes4",
          "name": "interfaceId",
          "type": "bytes4"
        }
      ],
      "name": "supportsInterface",
      "outputs": [
        {
          "internalType": "bool",
          "name": "",
          "type": "bool"
        }
      ],
      "stateMutability": "view",
      "type": "function"
    },
    {
      "inputs": [],
      "name": "symbol",
      "outputs": [
        {
          "internalType": "string",
          "name": "",
          "type": "string"
        }
      ],
      "stateMutability": "view",
      "type": "function"
    },
    {
      "inputs": [],
      "name": "totalSupply",
      "outputs": [
        {
          "internalType": "uint256",
          "name": "",
          "type": "uint256"
        }
      ],
      "stateMutability": "view",
      "type": "function"
    },
    {
      "inputs": [
        {
          "internalType": "address",
          "name": "to",
          "type": "address"
        },
        {
          "internalType": "uint256",
          "name": "value",
          "type": "uint256"
        }
      ],
      "name": "transfer",
      "outputs": [
        {
          "internalType": "bool",
          "name": "",
          "type": "bool"
        }
      ],
      "stateMutability": "nonpayable",
      "type": "function"
    },
    {
      "inputs": [
        {
          "internalType": "address",
          "name": "from",
          "type": "address"
        },
        {
          "internalType": "address",
          "name": "to",
          "type": "address"
        },
        {
          "internalType": "uint256",
          "name": "value",
          "type": "uint256"
        }
      ],
      "name": "transferFrom",
      "outputs": [
        {
          "internalType": "bool",
          "name": "",
          "type": "bool"
        }
      ],
      "stateMutability": "nonpayable",
      "type": "function"
    },
    {
      "inputs": [],
      "name": "treasuryPoolSupply",
      "outputs": [
        {
          "internalType": "uint256",
          "name": "",
          "type": "uint256"
        }
      ],
      "stateMutability": "view",
      "type": "function"
    },
    {
      "inputs": [],
      "name": "viewPoolDetails",
      "outputs": [
        {
          "internalType": "uint256",
          "name": "",
          "type": "uint256"
        },
        {
          "internalType": "uint256",
          "name": "",
          "type": "uint256"
        },
        {
          "internalType": "uint256",
          "name": "",
          "type": "uint256"
        }
      ],
      "stateMutability": "view",
      "type": "function"
    },
    {
      "inputs": [
        {
          "internalType": "uint256",
          "name": "amount",
          "type": "uint256"
        }
      ],
      "name": "withdraw",
      "outputs": [],
      "stateMutability": "nonpayable",
      "type": "function"
    }
  ],
  "bytecode": "0x608060405234801561001057600080fd5b50604051614fb7380380614fb7833981810160405281019061003291906105f2565b806040518060400160405280600a81526020017f4142594120544f4b454e000000000000000000000000000000000000000000008152506040518060400160405280600681526020017f414259544b4e000000000000000000000000000000000000000000000000000081525081600390816100ae919061085c565b5080600490816100be919061085c565b505050600481511015610106576040517f08c379a00000000000000000000000000000000000000000000000000000000081526004016100fd906109b1565b60405180910390fd5b6101196000801b336102b660201b60201c565b5060005b815181101561026d576101707fc10c77be35aff266144ed64c26a1fa104bae2f284ae99ac4a34203454704a18583838151811061015d5761015c6109d1565b5b60200260200101516102b660201b60201c565b506006828281518110610186576101856109d1565b5b60200260200101519080600181540180825580915050600190039060005260206000200160009091909190916101000a81548173ffffffffffffffffffffffffffffffffffffffff021916908373ffffffffffffffffffffffffffffffffffffffff160217905550600160076000848481518110610207576102066109d1565b5b602002602001015173ffffffffffffffffffffffffffffffffffffffff1673ffffffffffffffffffffffffffffffffffffffff16815260200190815260200160002060006101000a81548160ff021916908315150217905550808060010191505061011d565b505060016008819055506102a77f8d9233e8f9e0681d692bebdd2fd8c8863336d587e831d84b9bff9f403d549b5f336102b660201b60201c565b506001600c8190555050610a00565b60006102c883836103b460201b60201c565b6103a95760016005600085815260200190815260200160002060000160008473ffffffffffffffffffffffffffffffffffffffff1673ffffffffffffffffffffffffffffffffffffffff16815260200190815260200160002060006101000a81548160ff02191690831515021790555061034661041f60201b60201c565b73ffffffffffffffffffffffffffffffffffffffff168273ffffffffffffffffffffffffffffffffffffffff16847f2f8788117e7eff1d82e926ec794901d17c78024a50270940304540a733656f0d60405160405180910390a4600190506103ae565b600090505b92915050565b60006005600084815260200190815260200160002060000160008373ffffffffffffffffffffffffffffffffffffffff1673ffffffffffffffffffffffffffffffffffffffff16815260200190815260200160002060009054906101000a900460ff16905092915050565b600033905090565b6000604051905090565b600080fd5b600080fd5b600080fd5b6000601f19601f8301169050919050565b7f4e487b7100000000000000000000000000000000000000000000000000000000600052604160045260246000fd5b61048982610440565b810181811067ffffffffffffffff821117156104a8576104a7610451565b5b80604052505050565b60006104bb610427565b90506104c78282610480565b919050565b600067ffffffffffffffff8211156104e7576104e6610451565b5b602082029050602081019050919050565b600080fd5b600073ffffffffffffffffffffffffffffffffffffffff82169050919050565b6000610528826104fd565b9050919050565b6105388161051d565b811461054357600080fd5b50565b6000815190506105558161052f565b92915050565b600061056e610569846104cc565b6104b1565b90508083825260208201905060208402830185811115610591576105906104f8565b5b835b818110156105ba57806105a68882610546565b845260208401935050602081019050610593565b5050509392505050565b600082601f8301126105d9576105d861043b565b5b81516105e984826020860161055b565b91505092915050565b60006020828403121561060857610607610431565b5b600082015167ffffffffffffffff81111561062657610625610436565b5b610632848285016105c4565b91505092915050565b600081519050919050565b7f4e487b7100000000000000000000000000000000000000000000000000000000600052602260045260246000fd5b6000600282049050600182168061068d57607f821691505b6020821081036106a05761069f610646565b5b50919050565b60008190508160005260206000209050919050565b60006020601f8301049050919050565b600082821b905092915050565b6000600883026107087fffffffffffffffffffffffffffffffffffffffffffffffffffffffffffffffff826106cb565b61071286836106cb565b95508019841693508086168417925050509392505050565b6000819050919050565b6000819050919050565b600061075961075461074f8461072a565b610734565b61072a565b9050919050565b6000819050919050565b6107738361073e565b61078761077f82610760565b8484546106d8565b825550505050565b600090565b61079c61078f565b6107a781848461076a565b505050565b5b818110156107cb576107c0600082610794565b6001810190506107ad565b5050565b601f821115610810576107e1816106a6565b6107ea846106bb565b810160208510156107f9578190505b61080d610805856106bb565b8301826107ac565b50505b505050565b600082821c905092915050565b600061083360001984600802610815565b1980831691505092915050565b600061084c8383610822565b9150826002028217905092915050565b6108658261063b565b67ffffffffffffffff81111561087e5761087d610451565b5b6108888254610675565b6108938282856107cf565b600060209050601f8311600181146108c657600084156108b4578287015190505b6108be8582610840565b865550610926565b601f1984166108d4866106a6565b60005b828110156108fc578489015182556001820191506020850194506020810190506108d7565b868310156109195784890151610915601f891682610822565b8355505b6001600288020188555050505b505050505050565b600082825260208201905092915050565b7f4174206c6561737420342072657669657765727320617265207265717569726560008201527f6400000000000000000000000000000000000000000000000000000000000000602082015250565b600061099b60218361092e565b91506109a68261093f565b604082019050919050565b600060208201905081810360008301526109ca8161098e565b9050919050565b7f4e487b7100000000000000000000000000000000000000000000000000000000600052603260045260246000fd5b6145a880610a0f6000396000f3fe6080604052600436106102675760003560e01c806370a0823111610144578063a9059cbb116100b6578063d547741f1161007a578063d547741f146109b9578063dc78ac1c146109e2578063dd62ed3e14610a1f578063ec2becdc14610a5c578063fb1849ee14610a85578063fdc6258a14610ab057610267565b8063a9059cbb146108a3578063b6b55f25146108e0578063ba56148614610910578063c491b04c14610953578063c9442dac1461099057610267565b80638ada7007116101085780638ada70071461077f5780638b7afe2e146107a857806391d14854146107d357806395d89b41146108105780639aea96201461083b578063a217fddf1461087857610267565b806370a082311461068657806372a9e232146106c357806373a82b5f146106ee5780638562c00314610717578063881cf23b1461075457610267565b80632f2ff15d116101dd5780633b129a56116101a15780633b129a5614610572578063436e64111461059d57806352a9039c146105c8578063642e6c92146106055780636a84a985146106305780636f9fb98a1461065b57610267565b80632f2ff15d1461049f578063313ce567146104c857806332cb6b0c146104f357806336568abe1461051e57806339ab4b7c1461054757610267565b806318160ddd1161022f57806318160ddd1461036957806319f102ec146103945780631ee46f9c146103d157806323b872dd146103fc578063248a9ca3146104395780632e1a7d4d1461047657610267565b806301ffc9a71461026c57806306fdde03146102a9578063095ea7b3146102d45780630a4ef5f5146103115780630f813ae11461033e575b600080fd5b34801561027857600080fd5b50610293600480360381019061028e9190613072565b610aed565b6040516102a091906130ba565b60405180910390f35b3480156102b557600080fd5b506102be610b67565b6040516102cb9190613165565b60405180910390f35b3480156102e057600080fd5b506102fb60048036038101906102f6919061321b565b610bf9565b60405161030891906130ba565b60405180910390f35b34801561031d57600080fd5b50610326610c1c565b6040516103359392919061326a565b60405180910390f35b34801561034a57600080fd5b50610353610c35565b60405161036091906132a1565b60405180910390f35b34801561037557600080fd5b5061037e610c46565b60405161038b91906132a1565b60405180910390f35b3480156103a057600080fd5b506103bb60048036038101906103b691906132bc565b610c50565b6040516103c891906132f8565b60405180910390f35b3480156103dd57600080fd5b506103e6610c8f565b6040516103f391906132a1565b60405180910390f35b34801561040857600080fd5b50610423600480360381019061041e9190613313565b610c95565b60405161043091906130ba565b60405180910390f35b34801561044557600080fd5b50610460600480360381019061045b919061339c565b610cc4565b60405161046d91906133d8565b60405180910390f35b34801561048257600080fd5b5061049d600480360381019061049891906132bc565b610ce4565b005b3480156104ab57600080fd5b506104c660048036038101906104c191906133f3565b610f01565b005b3480156104d457600080fd5b506104dd610f23565b6040516104ea919061344f565b60405180910390f35b3480156104ff57600080fd5b50610508610f2c565b60405161051591906132a1565b60405180910390f35b34801561052a57600080fd5b50610545600480360381019061054091906133f3565b610f3c565b005b34801561055357600080fd5b5061055c610fb7565b60405161056991906132a1565b60405180910390f35b34801561057e57600080fd5b50610587610fbd565b60405161059491906133d8565b60405180910390f35b3480156105a957600080fd5b506105b2610fe1565b6040516105bf91906132a1565b60405180910390f35b3480156105d457600080fd5b506105ef60048036038101906105ea919061346a565b611009565b6040516105fc91906132a1565b60405180910390f35b34801561061157600080fd5b5061061a611021565b60405161062791906132a1565b60405180910390f35b34801561063c57600080fd5b50610645611028565b60405161065291906132a1565b60405180910390f35b34801561066757600080fd5b5061067061102e565b60405161067d91906132a1565b60405180910390f35b34801561069257600080fd5b506106ad60048036038101906106a8919061346a565b611038565b6040516106ba91906132a1565b60405180910390f35b3480156106cf57600080fd5b506106d8611080565b6040516106e591906132a1565b60405180910390f35b3480156106fa57600080fd5b506107156004803603810190610710919061346a565b611086565b005b34801561072357600080fd5b5061073e600480360381019061073991906135cc565b61126a565b60405161074b91906132a1565b60405180910390f35b34801561076057600080fd5b50610769611454565b60405161077691906133d8565b60405180910390f35b34801561078b57600080fd5b506107a660048036038101906107a191906135cc565b611478565b005b3480156107b457600080fd5b506107bd611681565b6040516107ca91906132a1565b60405180910390f35b3480156107df57600080fd5b506107fa60048036038101906107f591906133f3565b611687565b60405161080791906130ba565b60405180910390f35b34801561081c57600080fd5b506108256116f2565b6040516108329190613165565b60405180910390f35b34801561084757600080fd5b50610862600480360381019061085d919061346a565b611784565b60405161086f91906130ba565b60405180910390f35b34801561088457600080fd5b5061088d611838565b60405161089a91906133d8565b60405180910390f35b3480156108af57600080fd5b506108ca60048036038101906108c5919061321b565b61183f565b6040516108d791906130ba565b60405180910390f35b6108fa60048036038101906108f591906132bc565b611862565b60405161090791906130ba565b60405180910390f35b34801561091c57600080fd5b50610937600480360381019061093291906132bc565b611932565b60405161094a979695949392919061363b565b60405180910390f35b34801561095f57600080fd5b5061097a6004803603810190610975919061346a565b611a49565b60405161098791906130ba565b60405180910390f35b34801561099c57600080fd5b506109b760048036038101906109b2919061346a565b611a69565b005b3480156109c557600080fd5b506109e060048036038101906109db91906133f3565b611d53565b005b3480156109ee57600080fd5b50610a096004803603810190610a04919061346a565b611d75565b604051610a1691906130ba565b60405180910390f35b348015610a2b57600080fd5b50610a466004803603810190610a4191906136b1565b611e98565b604051610a5391906132a1565b60405180910390f35b348015610a6857600080fd5b50610a836004803603810190610a7e91906132bc565b611f1f565b005b348015610a9157600080fd5b50610a9a61223d565b604051610aa791906133d8565b60405180910390f35b348015610abc57600080fd5b50610ad76004803603810190610ad2919061346a565b612261565b604051610ae491906130ba565b60405180910390f35b60007f7965db0b000000000000000000000000000000000000000000000000000000007bffffffffffffffffffffffffffffffffffffffffffffffffffffffff1916827bffffffffffffffffffffffffffffffffffffffffffffffffffffffff19161480610b605750610b5f82612294565b5b9050919050565b606060038054610b7690613720565b80601f0160208091040260200160405190810160405280929190818152602001828054610ba290613720565b8015610bef5780601f10610bc457610100808354040283529160200191610bef565b820191906000526020600020905b815481529060010190602001808311610bd257829003601f168201915b5050505050905090565b600080610c046122fe565b9050610c11818585612306565b600191505092915050565b6000806000600b54600954600a54925092509250909192565b6000610c416010612318565b905090565b6000600254905090565b60068181548110610c6057600080fd5b906000526020600020016000915054906101000a900473ffffffffffffffffffffffffffffffffffffffff1681565b60095481565b600080610ca06122fe565b9050610cad85828561232d565b610cb88585856123c1565b60019150509392505050565b600060056000838152602001908152602001600020600101549050919050565b7f8d9233e8f9e0681d692bebdd2fd8c8863336d587e831d84b9bff9f403d549b5f610d0e816124b5565b610d166124c9565b60008211610d59576040517f08c379a0000000000000000000000000000000000000000000000000000000008152600401610d50906137c3565b60405180910390fd5b47821115610d9c576040517f08c379a0000000000000000000000000000000000000000000000000000000008152600401610d9390613855565b60405180910390fd5b600d54821115610de1576040517f08c379a0000000000000000000000000000000000000000000000000000000008152600401610dd8906138e7565b60405180910390fd5b60003373ffffffffffffffffffffffffffffffffffffffff1683604051610e0790613938565b60006040518083038185875af1925050503d8060008114610e44576040519150601f19603f3d011682016040523d82523d6000602084013e610e49565b606091505b5050905080610e8d576040517f08c379a0000000000000000000000000000000000000000000000000000000008152600401610e84906139bf565b60405180910390fd5b82600d6000828254610e9f9190613a0e565b925050819055503373ffffffffffffffffffffffffffffffffffffffff167fef37270ffd4697852e825c7f163a2505cfbd2d7849a69b6ad9c8829d7f90484a84604051610eec91906132a1565b60405180910390a250610efd61250f565b5050565b610f0a82610cc4565b610f13816124b5565b610f1d8383612519565b50505050565b60006012905090565b6b204fce5e3e2502611000000081565b610f446122fe565b73ffffffffffffffffffffffffffffffffffffffff168173ffffffffffffffffffffffffffffffffffffffff1614610fa8576040517f6697b23200000000000000000000000000000000000000000000000000000000815260040160405180910390fd5b610fb2828261260b565b505050565b600b5481565b7fc10c77be35aff266144ed64c26a1fa104bae2f284ae99ac4a34203454704a18581565b606460146b204fce5e3e25026110000000610ffc9190613a42565b6110069190613ab3565b81565b600e6020528060005260406000206000915090505481565b62278d0081565b600c5481565b6000600d54905090565b60008060008373ffffffffffffffffffffffffffffffffffffffff1673ffffffffffffffffffffffffffffffffffffffff168152602001908152602001600020549050919050565b600a5481565b7fc10c77be35aff266144ed64c26a1fa104bae2f284ae99ac4a34203454704a1856110b0816124b5565b600760008373ffffffffffffffffffffffffffffffffffffffff1673ffffffffffffffffffffffffffffffffffffffff16815260200190815260200160002060009054906101000a900460ff161561113d576040517f08c379a000000000000000000000000000000000000000000000000000000000815260040161113490613b30565b60405180910390fd5b6111677fc10c77be35aff266144ed64c26a1fa104bae2f284ae99ac4a34203454704a18583612519565b506006829080600181540180825580915050600190039060005260206000200160009091909190916101000a81548173ffffffffffffffffffffffffffffffffffffffff021916908373ffffffffffffffffffffffffffffffffffffffff1602179055506001600760008473ffffffffffffffffffffffffffffffffffffffff1673ffffffffffffffffffffffffffffffffffffffff16815260200190815260200160002060006101000a81548160ff0219169083151502179055508173ffffffffffffffffffffffffffffffffffffffff167fe1cb5e1230cc02e62c60b81c1aa5ade512f3eac296edb28628b4cf344f47f93160405160405180910390a25050565b60008073ffffffffffffffffffffffffffffffffffffffff168473ffffffffffffffffffffffffffffffffffffffff16036112da576040517f08c379a00000000000000000000000000000000000000000000000000000000081526004016112d190613b9c565b60405180910390fd5b6000831161131d576040517f08c379a000000000000000000000000000000000000000000000000000000000815260040161131490613c2e565b60405180910390fd5b6000600c600081548092919061133290613c4e565b9190505590506000600f60008381526020019081526020016000209050338160000160006101000a81548173ffffffffffffffffffffffffffffffffffffffff021916908373ffffffffffffffffffffffffffffffffffffffff160217905550858160010160006101000a81548173ffffffffffffffffffffffffffffffffffffffff021916908373ffffffffffffffffffffffffffffffffffffffff160217905550848160020181905550838160030190816113ef9190613e42565b504281600401819055503373ffffffffffffffffffffffffffffffffffffffff16827f9d34c57b32992f32173fb0ab1d07b286ad0b0e0bc8c5e64de3045fa3f7f8187a8760405161144091906132a1565b60405180910390a381925050509392505050565b7f2a725a6d9717b4c35d5874231ea45f47f1155516e23ff17bdd946ad79687853f81565b7f8d9233e8f9e0681d692bebdd2fd8c8863336d587e831d84b9bff9f403d549b5f6114a2816124b5565b6114aa6124c9565b600073ffffffffffffffffffffffffffffffffffffffff168473ffffffffffffffffffffffffffffffffffffffff1603611519576040517f08c379a000000000000000000000000000000000000000000000000000000000815260040161151090613b9c565b60405180910390fd5b6000831161155c576040517f08c379a000000000000000000000000000000000000000000000000000000000815260040161155390613c2e565b60405180910390fd5b61156684846126fe565b5082600e60008673ffffffffffffffffffffffffffffffffffffffff1673ffffffffffffffffffffffffffffffffffffffff16815260200190815260200160002060008282546115b69190613f14565b925050819055507f0af8a758e2e143977c734d5e012b22d6550bc58df51be42389db46d9fcb2e2e08280519060200120036116095782600960008282546115fd9190613f14565b92505081905550611623565b82600a600082825461161b9190613f14565b925050819055505b8373ffffffffffffffffffffffffffffffffffffffff167f375efe875f9cd6a664bdcb7c786b099b864a5ef3a60741abec505c92965932c6848460405161166b929190613f48565b60405180910390a261167b61250f565b50505050565b600d5481565b60006005600084815260200190815260200160002060000160008373ffffffffffffffffffffffffffffffffffffffff1673ffffffffffffffffffffffffffffffffffffffff16815260200190815260200160002060009054906101000a900460ff16905092915050565b60606004805461170190613720565b80601f016020809104026020016040519081016040528092919081815260200182805461172d90613720565b801561177a5780601f1061174f5761010080835404028352916020019161177a565b820191906000526020600020905b81548152906001019060200180831161175d57829003601f168201915b5050505050905090565b60007f8d9233e8f9e0681d692bebdd2fd8c8863336d587e831d84b9bff9f403d549b5f6117b0816124b5565b6117c483601061285a90919063ffffffff16565b611803576040517f08c379a00000000000000000000000000000000000000000000000000000000081526004016117fa90613fc4565b60405180910390fd5b61182d7f2a725a6d9717b4c35d5874231ea45f47f1155516e23ff17bdd946ad79687853f8461260b565b506001915050919050565b6000801b81565b60008061184a6122fe565b90506118578185856123c1565b600191505092915050565b600061186c6124c9565b60003411801561187b57508134145b6118ba576040517f08c379a00000000000000000000000000000000000000000000000000000000081526004016118b190614030565b60405180910390fd5b34600d60008282546118cc9190613f14565b925050819055503073ffffffffffffffffffffffffffffffffffffffff167f60bbf3f279de4eb569cec9565dbd645a7d269bef7d4b20083d8da32ddd6e94608360405161191991906132a1565b60405180910390a26001905061192d61250f565b919050565b600f6020528060005260406000206000915090508060000160009054906101000a900473ffffffffffffffffffffffffffffffffffffffff16908060010160009054906101000a900473ffffffffffffffffffffffffffffffffffffffff16908060020154908060030180546119a790613720565b80601f01602080910402602001604051908101604052809291908181526020018280546119d390613720565b8015611a205780601f106119f557610100808354040283529160200191611a20565b820191906000526020600020905b815481529060010190602001808311611a0357829003601f168201915b5050505050908060040154908060050154908060060160009054906101000a900460ff16905087565b60076020528060005260406000206000915054906101000a900460ff1681565b6000801b611a76816124b5565b600760008373ffffffffffffffffffffffffffffffffffffffff1673ffffffffffffffffffffffffffffffffffffffff16815260200190815260200160002060009054906101000a900460ff16611b02576040517f08c379a0000000000000000000000000000000000000000000000000000000008152600401611af99061409c565b60405180910390fd5b60005b600680549050811015611c88578273ffffffffffffffffffffffffffffffffffffffff1660068281548110611b3d57611b3c6140bc565b5b9060005260206000200160009054906101000a900473ffffffffffffffffffffffffffffffffffffffff1673ffffffffffffffffffffffffffffffffffffffff1603611c7b5760066001600680549050611b979190613a0e565b81548110611ba857611ba76140bc565b5b9060005260206000200160009054906101000a900473ffffffffffffffffffffffffffffffffffffffff1660068281548110611be757611be66140bc565b5b9060005260206000200160006101000a81548173ffffffffffffffffffffffffffffffffffffffff021916908373ffffffffffffffffffffffffffffffffffffffff1602179055506006805480611c4157611c406140eb565b5b6001900381819060005260206000200160006101000a81549073ffffffffffffffffffffffffffffffffffffffff02191690559055611c88565b8080600101915050611b05565b506000600760008473ffffffffffffffffffffffffffffffffffffffff1673ffffffffffffffffffffffffffffffffffffffff16815260200190815260200160002060006101000a81548160ff021916908315150217905550611d0b7fc10c77be35aff266144ed64c26a1fa104bae2f284ae99ac4a34203454704a1858361260b565b508173ffffffffffffffffffffffffffffffffffffffff167f55dba9d79522b91b615629d5f3b10c2fad2d258f1768614f4a52e937ada0d0ba60405160405180910390a25050565b611d5c82610cc4565b611d65816124b5565b611d6f838361260b565b50505050565b60007f8d9233e8f9e0681d692bebdd2fd8c8863336d587e831d84b9bff9f403d549b5f611da1816124b5565b600073ffffffffffffffffffffffffffffffffffffffff168373ffffffffffffffffffffffffffffffffffffffff1603611e10576040517f08c379a0000000000000000000000000000000000000000000000000000000008152600401611e079061418c565b60405180910390fd5b611e2483601061288a90919063ffffffff16565b611e63576040517f08c379a0000000000000000000000000000000000000000000000000000000008152600401611e5a906141f8565b60405180910390fd5b611e8d7f2a725a6d9717b4c35d5874231ea45f47f1155516e23ff17bdd946ad79687853f84612519565b506001915050919050565b6000600160008473ffffffffffffffffffffffffffffffffffffffff1673ffffffffffffffffffffffffffffffffffffffff16815260200190815260200160002060008373ffffffffffffffffffffffffffffffffffffffff1673ffffffffffffffffffffffffffffffffffffffff16815260200190815260200160002054905092915050565b7f2a725a6d9717b4c35d5874231ea45f47f1155516e23ff17bdd946ad79687853f611f49816124b5565b611f516124c9565b6000600f600084815260200190815260200160002090508060060160009054906101000a900460ff1615611fba576040517f08c379a0000000000000000000000000000000000000000000000000000000008152600401611fb19061428a565b60405180910390fd5b62278d008160040154611fcd9190613f14565b42111561200f576040517f08c379a00000000000000000000000000000000000000000000000000000000081526004016120069061431c565b60405180910390fd5b8060070160003373ffffffffffffffffffffffffffffffffffffffff1673ffffffffffffffffffffffffffffffffffffffff16815260200190815260200160002060009054906101000a900460ff161561209e576040517f08c379a000000000000000000000000000000000000000000000000000000000815260040161209590614388565b60405180910390fd5b60018160070160003373ffffffffffffffffffffffffffffffffffffffff1673ffffffffffffffffffffffffffffffffffffffff16815260200190815260200160002060006101000a81548160ff02191690831515021790555080600501600081548092919061210d90613c4e565b91905055503373ffffffffffffffffffffffffffffffffffffffff16837f41454604bd5a8e631d0b8698c50c1f6a4adc4852a17214e5f697bd57cd20414160405160405180910390a360026121626010612318565b61216c9190613ab3565b81600501541115612230576121a98160010160009054906101000a900473ffffffffffffffffffffffffffffffffffffffff1682600201546126fe565b5060018160060160006101000a81548160ff0219169083151502179055508060010160009054906101000a900473ffffffffffffffffffffffffffffffffffffffff1673ffffffffffffffffffffffffffffffffffffffff16837fad7687aa3ebc66c074c5f5acb7bb3aac89eec1ee584373bae8346d56e7a5fa6060405160405180910390a35b5061223961250f565b5050565b7f8d9233e8f9e0681d692bebdd2fd8c8863336d587e831d84b9bff9f403d549b5f81565b600061228d7fc10c77be35aff266144ed64c26a1fa104bae2f284ae99ac4a34203454704a18583611687565b9050919050565b60007f01ffc9a7000000000000000000000000000000000000000000000000000000007bffffffffffffffffffffffffffffffffffffffffffffffffffffffff1916827bffffffffffffffffffffffffffffffffffffffffffffffffffffffff1916149050919050565b600033905090565b61231383838360016128ba565b505050565b600061232682600001612a91565b9050919050565b60006123398484611e98565b90507fffffffffffffffffffffffffffffffffffffffffffffffffffffffffffffffff81146123bb57818110156123ab578281836040517ffb8f41b20000000000000000000000000000000000000000000000000000000081526004016123a2939291906143a8565b60405180910390fd5b6123ba848484840360006128ba565b5b50505050565b600073ffffffffffffffffffffffffffffffffffffffff168373ffffffffffffffffffffffffffffffffffffffff16036124335760006040517f96c6fd1e00000000000000000000000000000000000000000000000000000000815260040161242a91906132f8565b60405180910390fd5b600073ffffffffffffffffffffffffffffffffffffffff168273ffffffffffffffffffffffffffffffffffffffff16036124a55760006040517fec442f0500000000000000000000000000000000000000000000000000000000815260040161249c91906132f8565b60405180910390fd5b6124b0838383612aa2565b505050565b6124c6816124c16122fe565b612cc7565b50565b600260085403612505576040517f3ee5aeb500000000000000000000000000000000000000000000000000000000815260040160405180910390fd5b6002600881905550565b6001600881905550565b60006125258383611687565b6126005760016005600085815260200190815260200160002060000160008473ffffffffffffffffffffffffffffffffffffffff1673ffffffffffffffffffffffffffffffffffffffff16815260200190815260200160002060006101000a81548160ff02191690831515021790555061259d6122fe565b73ffffffffffffffffffffffffffffffffffffffff168273ffffffffffffffffffffffffffffffffffffffff16847f2f8788117e7eff1d82e926ec794901d17c78024a50270940304540a733656f0d60405160405180910390a460019050612605565b600090505b92915050565b60006126178383611687565b156126f35760006005600085815260200190815260200160002060000160008473ffffffffffffffffffffffffffffffffffffffff1673ffffffffffffffffffffffffffffffffffffffff16815260200190815260200160002060006101000a81548160ff0219169083151502179055506126906122fe565b73ffffffffffffffffffffffffffffffffffffffff168273ffffffffffffffffffffffffffffffffffffffff16847ff6391f5c32d9c69d2a47ea670b442974b53935d1edc7fd64eb21e047a839171b60405160405180910390a4600190506126f8565b600090505b92915050565b6000606460146b204fce5e3e2502611000000061271b9190613a42565b6127259190613ab3565b61272d612d18565b836127389190613f14565b1115612779576040517f08c379a00000000000000000000000000000000000000000000000000000000081526004016127709061442b565b60405180910390fd5b600073ffffffffffffffffffffffffffffffffffffffff168373ffffffffffffffffffffffffffffffffffffffff16036127e8576040517f08c379a00000000000000000000000000000000000000000000000000000000081526004016127df906144bd565b60405180910390fd5b6127f28383612d22565b5081600b60008282546128059190613f14565b92505081905550818373ffffffffffffffffffffffffffffffffffffffff167f9c9f15b8cfaf118c4bcce18b04dded23a21adb13f07b271947f2341874c97a2d60405160405180910390a36001905092915050565b6000612882836000018373ffffffffffffffffffffffffffffffffffffffff1660001b612ddd565b905092915050565b60006128b2836000018373ffffffffffffffffffffffffffffffffffffffff1660001b612ef1565b905092915050565b600073ffffffffffffffffffffffffffffffffffffffff168473ffffffffffffffffffffffffffffffffffffffff160361292c5760006040517fe602df0500000000000000000000000000000000000000000000000000000000815260040161292391906132f8565b60405180910390fd5b600073ffffffffffffffffffffffffffffffffffffffff168373ffffffffffffffffffffffffffffffffffffffff160361299e5760006040517f94280d6200000000000000000000000000000000000000000000000000000000815260040161299591906132f8565b60405180910390fd5b81600160008673ffffffffffffffffffffffffffffffffffffffff1673ffffffffffffffffffffffffffffffffffffffff16815260200190815260200160002060008573ffffffffffffffffffffffffffffffffffffffff1673ffffffffffffffffffffffffffffffffffffffff168152602001908152602001600020819055508015612a8b578273ffffffffffffffffffffffffffffffffffffffff168473ffffffffffffffffffffffffffffffffffffffff167f8c5be1e5ebec7d5bd14f71427d1e84f3dd0314c0f7b2291e5b200ac8c7c3b92584604051612a8291906132a1565b60405180910390a35b50505050565b600081600001805490509050919050565b600073ffffffffffffffffffffffffffffffffffffffff168373ffffffffffffffffffffffffffffffffffffffff1603612af4578060026000828254612ae89190613f14565b92505081905550612bc7565b60008060008573ffffffffffffffffffffffffffffffffffffffff1673ffffffffffffffffffffffffffffffffffffffff16815260200190815260200160002054905081811015612b80578381836040517fe450d38c000000000000000000000000000000000000000000000000000000008152600401612b77939291906143a8565b60405180910390fd5b8181036000808673ffffffffffffffffffffffffffffffffffffffff1673ffffffffffffffffffffffffffffffffffffffff16815260200190815260200160002081905550505b600073ffffffffffffffffffffffffffffffffffffffff168273ffffffffffffffffffffffffffffffffffffffff1603612c105780600260008282540392505081905550612c5d565b806000808473ffffffffffffffffffffffffffffffffffffffff1673ffffffffffffffffffffffffffffffffffffffff168152602001908152602001600020600082825401925050819055505b8173ffffffffffffffffffffffffffffffffffffffff168373ffffffffffffffffffffffffffffffffffffffff167fddf252ad1be2c89b69c2b068fc378daa952ba7f163c4a11628f55a4df523b3ef83604051612cba91906132a1565b60405180910390a3505050565b612cd18282611687565b612d145780826040517fe2517d3f000000000000000000000000000000000000000000000000000000008152600401612d0b9291906144dd565b60405180910390fd5b5050565b6000600b54905090565b60006b204fce5e3e25026110000000612d39610c46565b83612d449190613f14565b1115612d85576040517f08c379a0000000000000000000000000000000000000000000000000000000008152600401612d7c90614552565b60405180910390fd5b612d8f8383612f61565b818373ffffffffffffffffffffffffffffffffffffffff167fcda531bfd68624f13205c0a23cd4d5a7f09792cbb399603114f2b04aaa1bf5cf60405160405180910390a36001905092915050565b60008083600101600084815260200190815260200160002054905060008114612ee5576000600182612e0f9190613a0e565b9050600060018660000180549050612e279190613a0e565b9050808214612e96576000866000018281548110612e4857612e476140bc565b5b9060005260206000200154905080876000018481548110612e6c57612e6b6140bc565b5b90600052602060002001819055508387600101600083815260200190815260200160002081905550505b85600001805480612eaa57612ea96140eb565b5b600190038181906000526020600020016000905590558560010160008681526020019081526020016000206000905560019350505050612eeb565b60009150505b92915050565b6000612efd8383612fe3565b612f56578260000182908060018154018082558091505060019003906000526020600020016000909190919091505582600001805490508360010160008481526020019081526020016000208190555060019050612f5b565b600090505b92915050565b600073ffffffffffffffffffffffffffffffffffffffff168273ffffffffffffffffffffffffffffffffffffffff1603612fd35760006040517fec442f05000000000000000000000000000000000000000000000000000000008152600401612fca91906132f8565b60405180910390fd5b612fdf60008383612aa2565b5050565b600080836001016000848152602001908152602001600020541415905092915050565b6000604051905090565b600080fd5b600080fd5b60007fffffffff0000000000000000000000000000000000000000000000000000000082169050919050565b61304f8161301a565b811461305a57600080fd5b50565b60008135905061306c81613046565b92915050565b60006020828403121561308857613087613010565b5b60006130968482850161305d565b91505092915050565b60008115159050919050565b6130b48161309f565b82525050565b60006020820190506130cf60008301846130ab565b92915050565b600081519050919050565b600082825260208201905092915050565b60005b8381101561310f5780820151818401526020810190506130f4565b60008484015250505050565b6000601f19601f8301169050919050565b6000613137826130d5565b61314181856130e0565b93506131518185602086016130f1565b61315a8161311b565b840191505092915050565b6000602082019050818103600083015261317f818461312c565b905092915050565b600073ffffffffffffffffffffffffffffffffffffffff82169050919050565b60006131b282613187565b9050919050565b6131c2816131a7565b81146131cd57600080fd5b50565b6000813590506131df816131b9565b92915050565b6000819050919050565b6131f8816131e5565b811461320357600080fd5b50565b600081359050613215816131ef565b92915050565b6000806040838503121561323257613231613010565b5b6000613240858286016131d0565b925050602061325185828601613206565b9150509250929050565b613264816131e5565b82525050565b600060608201905061327f600083018661325b565b61328c602083018561325b565b613299604083018461325b565b949350505050565b60006020820190506132b6600083018461325b565b92915050565b6000602082840312156132d2576132d1613010565b5b60006132e084828501613206565b91505092915050565b6132f2816131a7565b82525050565b600060208201905061330d60008301846132e9565b92915050565b60008060006060848603121561332c5761332b613010565b5b600061333a868287016131d0565b935050602061334b868287016131d0565b925050604061335c86828701613206565b9150509250925092565b6000819050919050565b61337981613366565b811461338457600080fd5b50565b60008135905061339681613370565b92915050565b6000602082840312156133b2576133b1613010565b5b60006133c084828501613387565b91505092915050565b6133d281613366565b82525050565b60006020820190506133ed60008301846133c9565b92915050565b6000806040838503121561340a57613409613010565b5b600061341885828601613387565b9250506020613429858286016131d0565b9150509250929050565b600060ff82169050919050565b61344981613433565b82525050565b60006020820190506134646000830184613440565b92915050565b6000602082840312156134805761347f613010565b5b600061348e848285016131d0565b91505092915050565b600080fd5b600080fd5b7f4e487b7100000000000000000000000000000000000000000000000000000000600052604160045260246000fd5b6134d98261311b565b810181811067ffffffffffffffff821117156134f8576134f76134a1565b5b80604052505050565b600061350b613006565b905061351782826134d0565b919050565b600067ffffffffffffffff821115613537576135366134a1565b5b6135408261311b565b9050602081019050919050565b82818337600083830152505050565b600061356f61356a8461351c565b613501565b90508281526020810184848401111561358b5761358a61349c565b5b61359684828561354d565b509392505050565b600082601f8301126135b3576135b2613497565b5b81356135c384826020860161355c565b91505092915050565b6000806000606084860312156135e5576135e4613010565b5b60006135f3868287016131d0565b935050602061360486828701613206565b925050604084013567ffffffffffffffff81111561362557613624613015565b5b6136318682870161359e565b9150509250925092565b600060e082019050613650600083018a6132e9565b61365d60208301896132e9565b61366a604083018861325b565b818103606083015261367c818761312c565b905061368b608083018661325b565b61369860a083018561325b565b6136a560c08301846130ab565b98975050505050505050565b600080604083850312156136c8576136c7613010565b5b60006136d6858286016131d0565b92505060206136e7858286016131d0565b9150509250929050565b7f4e487b7100000000000000000000000000000000000000000000000000000000600052602260045260246000fd5b6000600282049050600182168061373857607f821691505b60208210810361374b5761374a6136f1565b5b50919050565b7f54726561737572793a205769746864726177616c20616d6f756e74206d75737460008201527f2062652067726561746572207468616e20300000000000000000000000000000602082015250565b60006137ad6032836130e0565b91506137b882613751565b604082019050919050565b600060208201905081810360008301526137dc816137a0565b9050919050565b7f54726561737572793a20496e73756666696369656e7420636f6e74726163742060008201527f62616c616e636500000000000000000000000000000000000000000000000000602082015250565b600061383f6027836130e0565b915061384a826137e3565b604082019050919050565b6000602082019050818103600083015261386e81613832565b9050919050565b7f54726561737572793a20496e73756666696369656e7420747261636b6564206260008201527f616c616e63650000000000000000000000000000000000000000000000000000602082015250565b60006138d16026836130e0565b91506138dc82613875565b604082019050919050565b60006020820190508181036000830152613900816138c4565b9050919050565b600081905092915050565b50565b6000613922600083613907565b915061392d82613912565b600082019050919050565b600061394382613915565b9150819050919050565b7f54726561737572793a205769746864726177616c207472616e7366657220666160008201527f696c656400000000000000000000000000000000000000000000000000000000602082015250565b60006139a96024836130e0565b91506139b48261394d565b604082019050919050565b600060208201905081810360008301526139d88161399c565b9050919050565b7f4e487b7100000000000000000000000000000000000000000000000000000000600052601160045260246000fd5b6000613a19826131e5565b9150613a24836131e5565b9250828203905081811115613a3c57613a3b6139df565b5b92915050565b6000613a4d826131e5565b9150613a58836131e5565b9250828202613a66816131e5565b91508282048414831517613a7d57613a7c6139df565b5b5092915050565b7f4e487b7100000000000000000000000000000000000000000000000000000000600052601260045260246000fd5b6000613abe826131e5565b9150613ac9836131e5565b925082613ad957613ad8613a84565b5b828204905092915050565b7f416c726561647920696e20726576696577657220706f6f6c0000000000000000600082015250565b6000613b1a6018836130e0565b9150613b2582613ae4565b602082019050919050565b60006020820190508181036000830152613b4981613b0d565b9050919050565b7f54726561737572793a20496e76616c696420726563697069656e740000000000600082015250565b6000613b86601b836130e0565b9150613b9182613b50565b602082019050919050565b60006020820190508181036000830152613bb581613b79565b9050919050565b7f54726561737572793a20416d6f756e74206d757374206265206772656174657260008201527f207468616e203000000000000000000000000000000000000000000000000000602082015250565b6000613c186027836130e0565b9150613c2382613bbc565b604082019050919050565b60006020820190508181036000830152613c4781613c0b565b9050919050565b6000613c59826131e5565b91507fffffffffffffffffffffffffffffffffffffffffffffffffffffffffffffffff8203613c8b57613c8a6139df565b5b600182019050919050565b60008190508160005260206000209050919050565b60006020601f8301049050919050565b600082821b905092915050565b600060088302613cf87fffffffffffffffffffffffffffffffffffffffffffffffffffffffffffffffff82613cbb565b613d028683613cbb565b95508019841693508086168417925050509392505050565b6000819050919050565b6000613d3f613d3a613d35846131e5565b613d1a565b6131e5565b9050919050565b6000819050919050565b613d5983613d24565b613d6d613d6582613d46565b848454613cc8565b825550505050565b600090565b613d82613d75565b613d8d818484613d50565b505050565b5b81811015613db157613da6600082613d7a565b600181019050613d93565b5050565b601f821115613df657613dc781613c96565b613dd084613cab565b81016020851015613ddf578190505b613df3613deb85613cab565b830182613d92565b50505b505050565b600082821c905092915050565b6000613e1960001984600802613dfb565b1980831691505092915050565b6000613e328383613e08565b9150826002028217905092915050565b613e4b826130d5565b67ffffffffffffffff811115613e6457613e636134a1565b5b613e6e8254613720565b613e79828285613db5565b600060209050601f831160018114613eac5760008415613e9a578287015190505b613ea48582613e26565b865550613f0c565b601f198416613eba86613c96565b60005b82811015613ee257848901518255600182019150602085019450602081019050613ebd565b86831015613eff5784890151613efb601f891682613e08565b8355505b6001600288020188555050505b505050505050565b6000613f1f826131e5565b9150613f2a836131e5565b9250828201905080821115613f4257613f416139df565b5b92915050565b6000604082019050613f5d600083018561325b565b8181036020830152613f6f818461312c565b90509392505050565b7f54726561737572793a2054727573746565206e6f7420666f756e640000000000600082015250565b6000613fae601b836130e0565b9150613fb982613f78565b602082019050919050565b60006020820190508181036000830152613fdd81613fa1565b9050919050565b7f54726561737572793a20496e76616c6964206465706f73697420616d6f756e74600082015250565b600061401a6020836130e0565b915061402582613fe4565b602082019050919050565b600060208201905081810360008301526140498161400d565b9050919050565b7f4e6f7420696e20726576696577657220706f6f6c000000000000000000000000600082015250565b60006140866014836130e0565b915061409182614050565b602082019050919050565b600060208201905081810360008301526140b581614079565b9050919050565b7f4e487b7100000000000000000000000000000000000000000000000000000000600052603260045260246000fd5b7f4e487b7100000000000000000000000000000000000000000000000000000000600052603160045260246000fd5b7f54726561737572793a20496e76616c696420747275737465652061646472657360008201527f7300000000000000000000000000000000000000000000000000000000000000602082015250565b60006141766021836130e0565b91506141818261411a565b604082019050919050565b600060208201905081810360008301526141a581614169565b9050919050565b7f54726561737572793a205472757374656520616c726561647920657869737473600082015250565b60006141e26020836130e0565b91506141ed826141ac565b602082019050919050565b60006020820190508181036000830152614211816141d5565b9050919050565b7f54726561737572793a205265717565737420616c72656164792065786563757460008201527f6564000000000000000000000000000000000000000000000000000000000000602082015250565b60006142746022836130e0565b915061427f82614218565b604082019050919050565b600060208201905081810360008301526142a381614267565b9050919050565b7f54726561737572793a2046756e64696e6720726571756573742065787069726560008201527f6400000000000000000000000000000000000000000000000000000000000000602082015250565b60006143066021836130e0565b9150614311826142aa565b604082019050919050565b60006020820190508181036000830152614335816142f9565b9050919050565b7f54726561737572793a20416c726561647920766f746564000000000000000000600082015250565b60006143726017836130e0565b915061437d8261433c565b602082019050919050565b600060208201905081810360008301526143a181614365565b9050919050565b60006060820190506143bd60008301866132e9565b6143ca602083018561325b565b6143d7604083018461325b565b949350505050565b7f54726561737572793a204d696e74696e67206c696d6974206578636565646564600082015250565b60006144156020836130e0565b9150614420826143df565b602082019050919050565b6000602082019050818103600083015261444481614408565b9050919050565b7f54726561737572793a2043616e6e6f74206d696e7420746f207a65726f20616460008201527f6472657373000000000000000000000000000000000000000000000000000000602082015250565b60006144a76025836130e0565b91506144b28261444b565b604082019050919050565b600060208201905081810360008301526144d68161449a565b9050919050565b60006040820190506144f260008301856132e9565b6144ff60208301846133c9565b9392505050565b7f4c696d6974204578636565646564210000000000000000000000000000000000600082015250565b600061453c600f836130e0565b915061454782614506565b602082019050919050565b6000602082019050818103600083015261456b8161452f565b905091905056fea2646970667358221220b7d73ea64d3f9b7dd9d0d036c8a07e3419b7a4d780be48496b4e720acf64410764736f6c634300081b0033",
  "linkReferences": {},
  "deployedLinkReferences": {}
}