{
  "_format": "hh-sol-artifact-1",
  "contractName": "Treasury",
  "sourceName": "contracts/Treasury.sol",
  "abi": [
    {
      "inputs": [
        {
          "internalType": "address[]",
          "name": "_reviewers",
          "type": "address[]"
        }
      ],
      "stateMutability": "nonpayable",
      "type": "constructor"
    },
    {
      "inputs": [],
      "name": "AccessControlBadConfirmation",
      "type": "error"
    },
    {
      "inputs": [
        {
          "internalType": "address",
          "name": "account",
          "type": "address"
        },
        {
          "internalType": "bytes32",
          "name": "neededRole",
          "type": "bytes32"
        }
      ],
      "name": "AccessControlUnauthorizedAccount",
      "type": "error"
    },
    {
      "inputs": [
        {
          "internalType": "address",
          "name": "spender",
          "type": "address"
        },
        {
          "internalType": "uint256",
          "name": "allowance",
          "type": "uint256"
        },
        {
          "internalType": "uint256",
          "name": "needed",
          "type": "uint256"
        }
      ],
      "name": "ERC20InsufficientAllowance",
      "type": "error"
    },
    {
      "inputs": [
        {
          "internalType": "address",
          "name": "sender",
          "type": "address"
        },
        {
          "internalType": "uint256",
          "name": "balance",
          "type": "uint256"
        },
        {
          "internalType": "uint256",
          "name": "needed",
          "type": "uint256"
        }
      ],
      "name": "ERC20InsufficientBalance",
      "type": "error"
    },
    {
      "inputs": [
        {
          "internalType": "address",
          "name": "approver",
          "type": "address"
        }
      ],
      "name": "ERC20InvalidApprover",
      "type": "error"
    },
    {
      "inputs": [
        {
          "internalType": "address",
          "name": "receiver",
          "type": "address"
        }
      ],
      "name": "ERC20InvalidReceiver",
      "type": "error"
    },
    {
      "inputs": [
        {
          "internalType": "address",
          "name": "sender",
          "type": "address"
        }
      ],
      "name": "ERC20InvalidSender",
      "type": "error"
    },
    {
      "inputs": [
        {
          "internalType": "address",
          "name": "spender",
          "type": "address"
        }
      ],
      "name": "ERC20InvalidSpender",
      "type": "error"
    },
    {
      "inputs": [],
      "name": "ReentrancyGuardReentrantCall",
      "type": "error"
    },
    {
      "anonymous": false,
      "inputs": [
        {
          "indexed": true,
          "internalType": "address",
          "name": "owner",
          "type": "address"
        },
        {
          "indexed": true,
          "internalType": "address",
          "name": "spender",
          "type": "address"
        },
        {
          "indexed": false,
          "internalType": "uint256",
          "name": "value",
          "type": "uint256"
        }
      ],
      "name": "Approval",
      "type": "event"
    },
    {
      "anonymous": false,
      "inputs": [
        {
          "indexed": true,
          "internalType": "address",
          "name": "_account",
          "type": "address"
        },
        {
          "indexed": false,
          "internalType": "uint256",
          "name": "_amount",
          "type": "uint256"
        }
      ],
      "name": "BurnSuccess",
      "type": "event"
    },
    {
      "anonymous": false,
      "inputs": [
        {
          "indexed": true,
          "internalType": "address",
          "name": "_contract",
          "type": "address"
        },
        {
          "indexed": false,
          "internalType": "uint256",
          "name": "amount",
          "type": "uint256"
        }
      ],
      "name": "DepositSuccess",
      "type": "event"
    },
    {
      "anonymous": false,
      "inputs": [
        {
          "indexed": true,
          "internalType": "uint256",
          "name": "requestId",
          "type": "uint256"
        },
        {
          "indexed": true,
          "internalType": "address",
          "name": "trustee",
          "type": "address"
        }
      ],
      "name": "FundingRequestApproved",
      "type": "event"
    },
    {
      "anonymous": false,
      "inputs": [
        {
          "indexed": true,
          "internalType": "uint256",
          "name": "requestId",
          "type": "uint256"
        },
        {
          "indexed": true,
          "internalType": "address",
          "name": "requester",
          "type": "address"
        },
        {
          "indexed": false,
          "internalType": "uint256",
          "name": "amount",
          "type": "uint256"
        }
      ],
      "name": "FundingRequestCreated",
      "type": "event"
    },
    {
      "anonymous": false,
      "inputs": [
        {
          "indexed": true,
          "internalType": "uint256",
          "name": "requestId",
          "type": "uint256"
        },
        {
          "indexed": true,
          "internalType": "address",
          "name": "recipient",
          "type": "address"
        }
      ],
      "name": "FundingRequestExecuted",
      "type": "event"
    },
    {
      "anonymous": false,
      "inputs": [
        {
          "indexed": true,
          "internalType": "address",
          "name": "recipient",
          "type": "address"
        },
        {
          "indexed": false,
          "internalType": "uint256",
          "name": "amount",
          "type": "uint256"
        },
        {
          "indexed": false,
          "internalType": "string",
          "name": "purpose",
          "type": "string"
        }
      ],
      "name": "FundsAllocated",
      "type": "event"
    },
    {
      "anonymous": false,
      "inputs": [
        {
          "indexed": true,
          "internalType": "address",
          "name": "_to",
          "type": "address"
        },
        {
          "indexed": true,
          "internalType": "uint256",
          "name": "_amount",
          "type": "uint256"
        }
      ],
      "name": "MintSuccess",
      "type": "event"
    },
    {
      "anonymous": false,
      "inputs": [
        {
          "indexed": true,
          "internalType": "uint256",
          "name": "proposalId",
          "type": "uint256"
        },
        {
          "indexed": false,
          "internalType": "address",
          "name": "approver",
          "type": "address"
        }
      ],
      "name": "MultiSigProposalApproved",
      "type": "event"
    },
    {
      "anonymous": false,
      "inputs": [
        {
          "indexed": true,
          "internalType": "uint256",
          "name": "proposalId",
          "type": "uint256"
        },
        {
          "indexed": false,
          "internalType": "address",
          "name": "proposer",
          "type": "address"
        }
      ],
      "name": "MultiSigProposalCreated",
      "type": "event"
    },
    {
      "anonymous": false,
      "inputs": [
        {
          "indexed": true,
          "internalType": "uint256",
          "name": "proposalId",
          "type": "uint256"
        }
      ],
      "name": "MultiSigProposalExecuted",
      "type": "event"
    },
    {
      "anonymous": false,
      "inputs": [
        {
          "indexed": true,
          "internalType": "address",
          "name": "reviewer",
          "type": "address"
        }
      ],
      "name": "ReviewerAddedToPool",
      "type": "event"
    },
    {
      "anonymous": false,
      "inputs": [
        {
          "indexed": true,
          "internalType": "address",
          "name": "reviewer",
          "type": "address"
        }
      ],
      "name": "ReviewerRemovedFromPool",
      "type": "event"
    },
    {
      "anonymous": false,
      "inputs": [
        {
          "indexed": true,
          "internalType": "bytes32",
          "name": "role",
          "type": "bytes32"
        },
        {
          "indexed": true,
          "internalType": "bytes32",
          "name": "previousAdminRole",
          "type": "bytes32"
        },
        {
          "indexed": true,
          "internalType": "bytes32",
          "name": "newAdminRole",
          "type": "bytes32"
        }
      ],
      "name": "RoleAdminChanged",
      "type": "event"
    },
    {
      "anonymous": false,
      "inputs": [
        {
          "indexed": true,
          "internalType": "bytes32",
          "name": "role",
          "type": "bytes32"
        },
        {
          "indexed": true,
          "internalType": "address",
          "name": "account",
          "type": "address"
        },
        {
          "indexed": true,
          "internalType": "address",
          "name": "sender",
          "type": "address"
        }
      ],
      "name": "RoleGranted",
      "type": "event"
    },
    {
      "anonymous": false,
      "inputs": [
        {
          "indexed": true,
          "internalType": "bytes32",
          "name": "role",
          "type": "bytes32"
        },
        {
          "indexed": true,
          "internalType": "address",
          "name": "account",
          "type": "address"
        },
        {
          "indexed": true,
          "internalType": "address",
          "name": "sender",
          "type": "address"
        }
      ],
      "name": "RoleRevoked",
      "type": "event"
    },
    {
      "anonymous": false,
      "inputs": [
        {
          "indexed": true,
          "internalType": "address",
          "name": "from",
          "type": "address"
        },
        {
          "indexed": true,
          "internalType": "address",
          "name": "to",
          "type": "address"
        },
        {
          "indexed": false,
          "internalType": "uint256",
          "name": "value",
          "type": "uint256"
        }
      ],
      "name": "Transfer",
      "type": "event"
    },
    {
      "anonymous": false,
      "inputs": [
        {
          "indexed": true,
          "internalType": "address",
          "name": "_to",
          "type": "address"
        },
        {
          "indexed": true,
          "internalType": "uint256",
          "name": "_amount",
          "type": "uint256"
        }
      ],
      "name": "TreasuryPoolUpdate",
      "type": "event"
    },
    {
      "anonymous": false,
      "inputs": [
        {
          "indexed": true,
          "internalType": "address",
          "name": "recipient",
          "type": "address"
        },
        {
          "indexed": false,
          "internalType": "uint256",
          "name": "amount",
          "type": "uint256"
        }
      ],
      "name": "WithdrawalSuccess",
      "type": "event"
    },
    {
      "inputs": [],
      "name": "DEFAULT_ADMIN_ROLE",
      "outputs": [
        {
          "internalType": "bytes32",
          "name": "",
          "type": "bytes32"
        }
      ],
      "stateMutability": "view",
      "type": "function"
    },
    {
      "inputs": [],
      "name": "MAX_FUNDING_REQUEST_DURATION",
      "outputs": [
        {
          "internalType": "uint256",
          "name": "",
          "type": "uint256"
        }
      ],
      "stateMutability": "view",
      "type": "function"
    },
    {
      "inputs": [],
      "name": "MAX_SUPPLY",
      "outputs": [
        {
          "internalType": "uint256",
          "name": "",
          "type": "uint256"
        }
      ],
      "stateMutability": "view",
      "type": "function"
    },
    {
      "inputs": [],
      "name": "MULTISIG_APPROVER",
      "outputs": [
        {
          "internalType": "bytes32",
          "name": "",
          "type": "bytes32"
        }
      ],
      "stateMutability": "view",
      "type": "function"
    },
    {
      "inputs": [],
      "name": "REVIEWER_ROLE",
      "outputs": [
        {
          "internalType": "bytes32",
          "name": "",
          "type": "bytes32"
        }
      ],
      "stateMutability": "view",
      "type": "function"
    },
    {
      "inputs": [],
      "name": "TREASURER",
      "outputs": [
        {
          "internalType": "bytes32",
          "name": "",
          "type": "bytes32"
        }
      ],
      "stateMutability": "view",
      "type": "function"
    },
    {
      "inputs": [],
      "name": "TREASURY_POOL",
      "outputs": [
        {
          "internalType": "uint256",
          "name": "",
          "type": "uint256"
        }
      ],
      "stateMutability": "view",
      "type": "function"
    },
    {
      "inputs": [],
      "name": "TRUSTEE",
      "outputs": [
        {
          "internalType": "bytes32",
          "name": "",
          "type": "bytes32"
        }
      ],
      "stateMutability": "view",
      "type": "function"
    },
    {
      "inputs": [
        {
          "internalType": "address",
          "name": "newApprover",
          "type": "address"
        }
      ],
      "name": "addMultiSigApprover",
      "outputs": [],
      "stateMutability": "nonpayable",
      "type": "function"
    },
    {
      "inputs": [
        {
          "internalType": "address",
          "name": "newReviewer",
          "type": "address"
        }
      ],
      "name": "addReviewer",
      "outputs": [],
      "stateMutability": "nonpayable",
      "type": "function"
    },
    {
      "inputs": [
        {
          "internalType": "address",
          "name": "_trustee",
          "type": "address"
        }
      ],
      "name": "addTrustee",
      "outputs": [
        {
          "internalType": "bool",
          "name": "",
          "type": "bool"
        }
      ],
      "stateMutability": "nonpayable",
      "type": "function"
    },
    {
      "inputs": [
        {
          "internalType": "address",
          "name": "recipient",
          "type": "address"
        },
        {
          "internalType": "uint256",
          "name": "amount",
          "type": "uint256"
        },
        {
          "internalType": "string",
          "name": "purpose",
          "type": "string"
        }
      ],
      "name": "allocateFunds",
      "outputs": [],
      "stateMutability": "nonpayable",
      "type": "function"
    },
    {
      "inputs": [
        {
          "internalType": "address",
          "name": "",
          "type": "address"
        }
      ],
      "name": "allocations",
      "outputs": [
        {
          "internalType": "uint256",
          "name": "",
          "type": "uint256"
        }
      ],
      "stateMutability": "view",
      "type": "function"
    },
    {
      "inputs": [
        {
          "internalType": "address",
          "name": "owner",
          "type": "address"
        },
        {
          "internalType": "address",
          "name": "spender",
          "type": "address"
        }
      ],
      "name": "allowance",
      "outputs": [
        {
          "internalType": "uint256",
          "name": "",
          "type": "uint256"
        }
      ],
      "stateMutability": "view",
      "type": "function"
    },
    {
      "inputs": [
        {
          "internalType": "address",
          "name": "spender",
          "type": "address"
        },
        {
          "internalType": "uint256",
          "name": "value",
          "type": "uint256"
        }
      ],
      "name": "approve",
      "outputs": [
        {
          "internalType": "bool",
          "name": "",
          "type": "bool"
        }
      ],
      "stateMutability": "nonpayable",
      "type": "function"
    },
    {
      "inputs": [
        {
          "internalType": "uint256",
          "name": "requestId",
          "type": "uint256"
        }
      ],
      "name": "approveFundingRequest",
      "outputs": [],
      "stateMutability": "nonpayable",
      "type": "function"
    },
    {
      "inputs": [
        {
          "internalType": "uint256",
          "name": "_proposalId",
          "type": "uint256"
        }
      ],
      "name": "approveMultiSigProposal",
      "outputs": [],
      "stateMutability": "nonpayable",
      "type": "function"
    },
    {
      "inputs": [
        {
          "internalType": "address",
          "name": "account",
          "type": "address"
        }
      ],
      "name": "balanceOf",
      "outputs": [
        {
          "internalType": "uint256",
          "name": "",
          "type": "uint256"
        }
      ],
      "stateMutability": "view",
      "type": "function"
    },
    {
      "inputs": [],
      "name": "contractBalance",
      "outputs": [
        {
          "internalType": "uint256",
          "name": "",
          "type": "uint256"
        }
      ],
      "stateMutability": "view",
      "type": "function"
    },
    {
      "inputs": [],
      "name": "decimals",
      "outputs": [
        {
          "internalType": "uint8",
          "name": "",
          "type": "uint8"
        }
      ],
      "stateMutability": "view",
      "type": "function"
    },
    {
      "inputs": [
        {
          "internalType": "uint256",
          "name": "amount",
          "type": "uint256"
        }
      ],
      "name": "deposit",
      "outputs": [
        {
          "internalType": "bool",
          "name": "",
          "type": "bool"
        }
      ],
      "stateMutability": "payable",
      "type": "function"
    },
    {
      "inputs": [
        {
          "internalType": "uint256",
          "name": "",
          "type": "uint256"
        }
      ],
      "name": "fundingRequests",
      "outputs": [
        {
          "internalType": "address",
          "name": "requester",
          "type": "address"
        },
        {
          "internalType": "address",
          "name": "recipient",
          "type": "address"
        },
        {
          "internalType": "uint256",
          "name": "amount",
          "type": "uint256"
        },
        {
          "internalType": "string",
          "name": "purpose",
          "type": "string"
        },
        {
          "internalType": "uint256",
          "name": "createdAt",
          "type": "uint256"
        },
        {
          "internalType": "uint256",
          "name": "approvalCount",
          "type": "uint256"
        },
        {
          "internalType": "bool",
          "name": "executed",
          "type": "bool"
        }
      ],
      "stateMutability": "view",
      "type": "function"
    },
    {
      "inputs": [],
      "name": "getContractBalance",
      "outputs": [
        {
          "internalType": "uint256",
          "name": "",
          "type": "uint256"
        }
      ],
      "stateMutability": "view",
      "type": "function"
    },
    {
      "inputs": [
        {
          "internalType": "bytes32",
          "name": "role",
          "type": "bytes32"
        }
      ],
      "name": "getRoleAdmin",
      "outputs": [
        {
          "internalType": "bytes32",
          "name": "",
          "type": "bytes32"
        }
      ],
      "stateMutability": "view",
      "type": "function"
    },
    {
      "inputs": [],
      "name": "getTrusteesCount",
      "outputs": [
        {
          "internalType": "uint256",
          "name": "",
          "type": "uint256"
        }
      ],
      "stateMutability": "view",
      "type": "function"
    },
    {
      "inputs": [
        {
          "internalType": "bytes32",
          "name": "role",
          "type": "bytes32"
        },
        {
          "internalType": "address",
          "name": "account",
          "type": "address"
        }
      ],
      "name": "grantRole",
      "outputs": [],
      "stateMutability": "nonpayable",
      "type": "function"
    },
    {
      "inputs": [
        {
          "internalType": "bytes32",
          "name": "role",
          "type": "bytes32"
        },
        {
          "internalType": "address",
          "name": "account",
          "type": "address"
        }
      ],
      "name": "hasRole",
      "outputs": [
        {
          "internalType": "bool",
          "name": "",
          "type": "bool"
        }
      ],
      "stateMutability": "view",
      "type": "function"
    },
    {
      "inputs": [
        {
          "internalType": "address",
          "name": "",
          "type": "address"
        }
      ],
      "name": "isInReviewerPool",
      "outputs": [
        {
          "internalType": "bool",
          "name": "",
          "type": "bool"
        }
      ],
      "stateMutability": "view",
      "type": "function"
    },
    {
      "inputs": [
        {
          "internalType": "address",
          "name": "account",
          "type": "address"
        }
      ],
      "name": "isReviewer",
      "outputs": [
        {
          "internalType": "bool",
          "name": "",
          "type": "bool"
        }
      ],
      "stateMutability": "view",
      "type": "function"
    },
    {
      "inputs": [],
      "name": "marketingSpent",
      "outputs": [
        {
          "internalType": "uint256",
          "name": "",
          "type": "uint256"
        }
      ],
      "stateMutability": "view",
      "type": "function"
    },
    {
      "inputs": [
        {
          "internalType": "uint256",
          "name": "",
          "type": "uint256"
        }
      ],
      "name": "multiSigProposals",
      "outputs": [
        {
          "internalType": "uint256",
          "name": "id",
          "type": "uint256"
        },
        {
          "internalType": "address",
          "name": "proposer",
          "type": "address"
        },
        {
          "internalType": "address",
          "name": "targetContract",
          "type": "address"
        },
        {
          "internalType": "bytes",
          "name": "data",
          "type": "bytes"
        },
        {
          "internalType": "uint256",
          "name": "approvalCount",
          "type": "uint256"
        },
        {
          "internalType": "bool",
          "name": "executed",
          "type": "bool"
        }
      ],
      "stateMutability": "view",
      "type": "function"
    },
    {
      "inputs": [],
      "name": "name",
      "outputs": [
        {
          "internalType": "string",
          "name": "",
          "type": "string"
        }
      ],
      "stateMutability": "view",
      "type": "function"
    },
    {
      "inputs": [],
      "name": "nextRequestId",
      "outputs": [
        {
          "internalType": "uint256",
          "name": "",
          "type": "uint256"
        }
      ],
      "stateMutability": "view",
      "type": "function"
    },
    {
      "inputs": [
        {
          "internalType": "uint256",
          "name": "amount",
          "type": "uint256"
        },
        {
          "internalType": "address",
          "name": "recipient",
          "type": "address"
        }
      ],
      "name": "performWithdrawal",
      "outputs": [],
      "stateMutability": "nonpayable",
      "type": "function"
    },
    {
      "inputs": [
        {
          "internalType": "address",
          "name": "approver",
          "type": "address"
        }
      ],
      "name": "removeMultiSigApprover",
      "outputs": [],
      "stateMutability": "nonpayable",
      "type": "function"
    },
    {
      "inputs": [
        {
          "internalType": "address",
          "name": "reviewer",
          "type": "address"
        }
      ],
      "name": "removeReviewer",
      "outputs": [],
      "stateMutability": "nonpayable",
      "type": "function"
    },
    {
      "inputs": [
        {
          "internalType": "bytes32",
          "name": "role",
          "type": "bytes32"
        },
        {
          "internalType": "address",
          "name": "callerConfirmation",
          "type": "address"
        }
      ],
      "name": "renounceRole",
      "outputs": [],
      "stateMutability": "nonpayable",
      "type": "function"
    },
    {
      "inputs": [
        {
          "internalType": "address",
          "name": "to",
          "type": "address"
        },
        {
          "internalType": "uint256",
          "name": "amount",
          "type": "uint256"
        },
        {
          "internalType": "string",
          "name": "purpose",
          "type": "string"
        }
      ],
      "name": "requestFunding",
      "outputs": [
        {
          "internalType": "uint256",
          "name": "",
          "type": "uint256"
        }
      ],
      "stateMutability": "nonpayable",
      "type": "function"
    },
    {
      "inputs": [],
      "name": "reserveFunds",
      "outputs": [
        {
          "internalType": "uint256",
          "name": "",
          "type": "uint256"
        }
      ],
      "stateMutability": "view",
      "type": "function"
    },
    {
      "inputs": [
        {
          "internalType": "uint256",
          "name": "",
          "type": "uint256"
        }
      ],
      "name": "reviewerPool",
      "outputs": [
        {
          "internalType": "address",
          "name": "",
          "type": "address"
        }
      ],
      "stateMutability": "view",
      "type": "function"
    },
    {
      "inputs": [
        {
          "internalType": "bytes32",
          "name": "role",
          "type": "bytes32"
        },
        {
          "internalType": "address",
          "name": "account",
          "type": "address"
        }
      ],
      "name": "revokeRole",
      "outputs": [],
      "stateMutability": "nonpayable",
      "type": "function"
    },
    {
      "inputs": [
        {
          "internalType": "address",
          "name": "_trustee",
          "type": "address"
        }
      ],
      "name": "revokeTrustee",
      "outputs": [
        {
          "internalType": "bool",
          "name": "",
          "type": "bool"
        }
      ],
      "stateMutability": "nonpayable",
      "type": "function"
    },
    {
      "inputs": [
        {
          "internalType": "bytes4",
          "name": "interfaceId",
          "type": "bytes4"
        }
      ],
      "name": "supportsInterface",
      "outputs": [
        {
          "internalType": "bool",
          "name": "",
          "type": "bool"
        }
      ],
      "stateMutability": "view",
      "type": "function"
    },
    {
      "inputs": [],
      "name": "symbol",
      "outputs": [
        {
          "internalType": "string",
          "name": "",
          "type": "string"
        }
      ],
      "stateMutability": "view",
      "type": "function"
    },
    {
      "inputs": [],
      "name": "totalSupply",
      "outputs": [
        {
          "internalType": "uint256",
          "name": "",
          "type": "uint256"
        }
      ],
      "stateMutability": "view",
      "type": "function"
    },
    {
      "inputs": [
        {
          "internalType": "address",
          "name": "to",
          "type": "address"
        },
        {
          "internalType": "uint256",
          "name": "value",
          "type": "uint256"
        }
      ],
      "name": "transfer",
      "outputs": [
        {
          "internalType": "bool",
          "name": "",
          "type": "bool"
        }
      ],
      "stateMutability": "nonpayable",
      "type": "function"
    },
    {
      "inputs": [
        {
          "internalType": "address",
          "name": "from",
          "type": "address"
        },
        {
          "internalType": "address",
          "name": "to",
          "type": "address"
        },
        {
          "internalType": "uint256",
          "name": "value",
          "type": "uint256"
        }
      ],
      "name": "transferFrom",
      "outputs": [
        {
          "internalType": "bool",
          "name": "",
          "type": "bool"
        }
      ],
      "stateMutability": "nonpayable",
      "type": "function"
    },
    {
      "inputs": [],
      "name": "treasuryPoolSupply",
      "outputs": [
        {
          "internalType": "uint256",
          "name": "",
          "type": "uint256"
        }
      ],
      "stateMutability": "view",
      "type": "function"
    },
    {
      "inputs": [],
      "name": "viewPoolDetails",
      "outputs": [
        {
          "internalType": "uint256",
          "name": "",
          "type": "uint256"
        },
        {
          "internalType": "uint256",
          "name": "",
          "type": "uint256"
        },
        {
          "internalType": "uint256",
          "name": "",
          "type": "uint256"
        }
      ],
      "stateMutability": "view",
      "type": "function"
    },
    {
      "inputs": [
        {
          "internalType": "uint256",
          "name": "amount",
          "type": "uint256"
        }
      ],
      "name": "withdraw",
      "outputs": [],
      "stateMutability": "nonpayable",
      "type": "function"
    }
  ],
  "bytecode": "0x608060405234801561001057600080fd5b50604051615ca5380380615ca583398181016040528101906100329190610623565b806040518060400160405280600a81526020017f4142594120544f4b454e000000000000000000000000000000000000000000008152506040518060400160405280600681526020017f414259544b4e000000000000000000000000000000000000000000000000000081525081600390816100ae919061088d565b5080600490816100be919061088d565b505050600481511015610106576040517f08c379a00000000000000000000000000000000000000000000000000000000081526004016100fd906109e2565b60405180910390fd5b6101196000801b336102e760201b60201c565b5061014a7fdf1425bae297c2f52b4f15d18a50b1fc8cb5b981a981b1d213ed3ff92681b64d336102e760201b60201c565b5060005b815181101561029e576101a17fc10c77be35aff266144ed64c26a1fa104bae2f284ae99ac4a34203454704a18583838151811061018e5761018d610a02565b5b60200260200101516102e760201b60201c565b5060068282815181106101b7576101b6610a02565b5b60200260200101519080600181540180825580915050600190039060005260206000200160009091909190916101000a81548173ffffffffffffffffffffffffffffffffffffffff021916908373ffffffffffffffffffffffffffffffffffffffff16021790555060016008600084848151811061023857610237610a02565b5b602002602001015173ffffffffffffffffffffffffffffffffffffffff1673ffffffffffffffffffffffffffffffffffffffff16815260200190815260200160002060006101000a81548160ff021916908315150217905550808060010191505061014e565b50506001600a819055506102d87f8d9233e8f9e0681d692bebdd2fd8c8863336d587e831d84b9bff9f403d549b5f336102e760201b60201c565b506001600e8190555050610a31565b60006102f983836103e560201b60201c565b6103da5760016005600085815260200190815260200160002060000160008473ffffffffffffffffffffffffffffffffffffffff1673ffffffffffffffffffffffffffffffffffffffff16815260200190815260200160002060006101000a81548160ff02191690831515021790555061037761045060201b60201c565b73ffffffffffffffffffffffffffffffffffffffff168273ffffffffffffffffffffffffffffffffffffffff16847f2f8788117e7eff1d82e926ec794901d17c78024a50270940304540a733656f0d60405160405180910390a4600190506103df565b600090505b92915050565b60006005600084815260200190815260200160002060000160008373ffffffffffffffffffffffffffffffffffffffff1673ffffffffffffffffffffffffffffffffffffffff16815260200190815260200160002060009054906101000a900460ff16905092915050565b600033905090565b6000604051905090565b600080fd5b600080fd5b600080fd5b6000601f19601f8301169050919050565b7f4e487b7100000000000000000000000000000000000000000000000000000000600052604160045260246000fd5b6104ba82610471565b810181811067ffffffffffffffff821117156104d9576104d8610482565b5b80604052505050565b60006104ec610458565b90506104f882826104b1565b919050565b600067ffffffffffffffff82111561051857610517610482565b5b602082029050602081019050919050565b600080fd5b600073ffffffffffffffffffffffffffffffffffffffff82169050919050565b60006105598261052e565b9050919050565b6105698161054e565b811461057457600080fd5b50565b60008151905061058681610560565b92915050565b600061059f61059a846104fd565b6104e2565b905080838252602082019050602084028301858111156105c2576105c1610529565b5b835b818110156105eb57806105d78882610577565b8452602084019350506020810190506105c4565b5050509392505050565b600082601f83011261060a5761060961046c565b5b815161061a84826020860161058c565b91505092915050565b60006020828403121561063957610638610462565b5b600082015167ffffffffffffffff81111561065757610656610467565b5b610663848285016105f5565b91505092915050565b600081519050919050565b7f4e487b7100000000000000000000000000000000000000000000000000000000600052602260045260246000fd5b600060028204905060018216806106be57607f821691505b6020821081036106d1576106d0610677565b5b50919050565b60008190508160005260206000209050919050565b60006020601f8301049050919050565b600082821b905092915050565b6000600883026107397fffffffffffffffffffffffffffffffffffffffffffffffffffffffffffffffff826106fc565b61074386836106fc565b95508019841693508086168417925050509392505050565b6000819050919050565b6000819050919050565b600061078a6107856107808461075b565b610765565b61075b565b9050919050565b6000819050919050565b6107a48361076f565b6107b86107b082610791565b848454610709565b825550505050565b600090565b6107cd6107c0565b6107d881848461079b565b505050565b5b818110156107fc576107f16000826107c5565b6001810190506107de565b5050565b601f82111561084157610812816106d7565b61081b846106ec565b8101602085101561082a578190505b61083e610836856106ec565b8301826107dd565b50505b505050565b600082821c905092915050565b600061086460001984600802610846565b1980831691505092915050565b600061087d8383610853565b9150826002028217905092915050565b6108968261066c565b67ffffffffffffffff8111156108af576108ae610482565b5b6108b982546106a6565b6108c4828285610800565b600060209050601f8311600181146108f757600084156108e5578287015190505b6108ef8582610871565b865550610957565b601f198416610905866106d7565b60005b8281101561092d57848901518255600182019150602085019450602081019050610908565b8683101561094a5784890151610946601f891682610853565b8355505b6001600288020188555050505b505050505050565b600082825260208201905092915050565b7f4174206c6561737420342072657669657765727320617265207265717569726560008201527f6400000000000000000000000000000000000000000000000000000000000000602082015250565b60006109cc60218361095f565b91506109d782610970565b604082019050919050565b600060208201905081810360008301526109fb816109bf565b9050919050565b7f4e487b7100000000000000000000000000000000000000000000000000000000600052603260045260246000fd5b61526580610a406000396000f3fe6080604052600436106102c95760003560e01c80636eedd73611610175578063a217fddf116100dc578063c9442dac11610095578063dd62ed3e1161006f578063dd62ed3e14610b92578063ec2becdc14610bcf578063fb1849ee14610bf8578063fdc6258a14610c23576102c9565b8063c9442dac14610b03578063d547741f14610b2c578063dc78ac1c14610b55576102c9565b8063a217fddf146109c2578063a9059cbb146109ed578063b6b55f2514610a2a578063ba56148614610a5a578063bad0dd6514610a9d578063c491b04c14610ac6576102c9565b8063881cf23b1161012e578063881cf23b1461089e5780638ada7007146108c95780638b7afe2e146108f257806391d148541461091d57806395d89b411461095a5780639aea962014610985576102c9565b80636eedd7361461077c5780636f9fb98a146107a557806370a08231146107d057806372a9e2321461080d57806373a82b5f146108385780638562c00314610861576102c9565b80632f2ff15d1161023457806340932bf8116101ed57806352994e2f116101c757806352994e2f146106be57806352a9039c146106e9578063642e6c92146107265780636a84a98514610751576102c9565b806340932bf814610628578063436e64111461066a5780634d6ca5d514610695576102c9565b80632f2ff15d1461052a578063313ce5671461055357806332cb6b0c1461057e57806336568abe146105a957806339ab4b7c146105d25780633b129a56146105fd576102c9565b806319656f7b1161028657806319656f7b146103f657806319f102ec1461041f5780631ee46f9c1461045c57806323b872dd14610487578063248a9ca3146104c45780632e1a7d4d14610501576102c9565b806301ffc9a7146102ce57806306fdde031461030b578063095ea7b3146103365780630a4ef5f5146103735780630f813ae1146103a057806318160ddd146103cb575b600080fd5b3480156102da57600080fd5b506102f560048036038101906102f09190613927565b610c60565b604051610302919061396f565b60405180910390f35b34801561031757600080fd5b50610320610cda565b60405161032d9190613a1a565b60405180910390f35b34801561034257600080fd5b5061035d60048036038101906103589190613ad0565b610d6c565b60405161036a919061396f565b60405180910390f35b34801561037f57600080fd5b50610388610d8f565b60405161039793929190613b1f565b60405180910390f35b3480156103ac57600080fd5b506103b5610da8565b6040516103c29190613b56565b60405180910390f35b3480156103d757600080fd5b506103e0610db9565b6040516103ed9190613b56565b60405180910390f35b34801561040257600080fd5b5061041d60048036038101906104189190613b71565b610dc3565b005b34801561042b57600080fd5b5061044660048036038101906104419190613b9e565b610dff565b6040516104539190613bda565b60405180910390f35b34801561046857600080fd5b50610471610e3e565b60405161047e9190613b56565b60405180910390f35b34801561049357600080fd5b506104ae60048036038101906104a99190613bf5565b610e44565b6040516104bb919061396f565b60405180910390f35b3480156104d057600080fd5b506104eb60048036038101906104e69190613c7e565b610e73565b6040516104f89190613cba565b60405180910390f35b34801561050d57600080fd5b5061052860048036038101906105239190613b9e565b610e93565b005b34801561053657600080fd5b50610551600480360381019061054c9190613cd5565b61103e565b005b34801561055f57600080fd5b50610568611060565b6040516105759190613d31565b60405180910390f35b34801561058a57600080fd5b50610593611069565b6040516105a09190613b56565b60405180910390f35b3480156105b557600080fd5b506105d060048036038101906105cb9190613cd5565b611079565b005b3480156105de57600080fd5b506105e76110f4565b6040516105f49190613b56565b60405180910390f35b34801561060957600080fd5b506106126110fa565b60405161061f9190613cba565b60405180910390f35b34801561063457600080fd5b5061064f600480360381019061064a9190613b9e565b61111e565b60405161066196959493929190613da1565b60405180910390f35b34801561067657600080fd5b5061067f61122f565b60405161068c9190613b56565b60405180910390f35b3480156106a157600080fd5b506106bc60048036038101906106b79190613b71565b611257565b005b3480156106ca57600080fd5b506106d3611293565b6040516106e09190613cba565b60405180910390f35b3480156106f557600080fd5b50610710600480360381019061070b9190613b71565b6112b7565b60405161071d9190613b56565b60405180910390f35b34801561073257600080fd5b5061073b6112cf565b6040516107489190613b56565b60405180910390f35b34801561075d57600080fd5b506107666112d6565b6040516107739190613b56565b60405180910390f35b34801561078857600080fd5b506107a3600480360381019061079e9190613e09565b6112dc565b005b3480156107b157600080fd5b506107ba6113f4565b6040516107c79190613b56565b60405180910390f35b3480156107dc57600080fd5b506107f760048036038101906107f29190613b71565b6113fe565b6040516108049190613b56565b60405180910390f35b34801561081957600080fd5b50610822611446565b60405161082f9190613b56565b60405180910390f35b34801561084457600080fd5b5061085f600480360381019061085a9190613b71565b61144c565b005b34801561086d57600080fd5b5061088860048036038101906108839190613f7e565b611630565b6040516108959190613b56565b60405180910390f35b3480156108aa57600080fd5b506108b361181a565b6040516108c09190613cba565b60405180910390f35b3480156108d557600080fd5b506108f060048036038101906108eb9190613f7e565b61183e565b005b3480156108fe57600080fd5b50610907611a47565b6040516109149190613b56565b60405180910390f35b34801561092957600080fd5b50610944600480360381019061093f9190613cd5565b611a4d565b604051610951919061396f565b60405180910390f35b34801561096657600080fd5b5061096f611ab8565b60405161097c9190613a1a565b60405180910390f35b34801561099157600080fd5b506109ac60048036038101906109a79190613b71565b611b4a565b6040516109b9919061396f565b60405180910390f35b3480156109ce57600080fd5b506109d7611bfe565b6040516109e49190613cba565b60405180910390f35b3480156109f957600080fd5b50610a146004803603810190610a0f9190613ad0565b611c05565b604051610a21919061396f565b60405180910390f35b610a446004803603810190610a3f9190613b9e565b611c28565b604051610a51919061396f565b60405180910390f35b348015610a6657600080fd5b50610a816004803603810190610a7c9190613b9e565b611cf8565b604051610a949796959493929190613fed565b60405180910390f35b348015610aa957600080fd5b50610ac46004803603810190610abf9190613b9e565b611e0f565b005b348015610ad257600080fd5b50610aed6004803603810190610ae89190613b71565b61210e565b604051610afa919061396f565b60405180910390f35b348015610b0f57600080fd5b50610b2a6004803603810190610b259190613b71565b61212e565b005b348015610b3857600080fd5b50610b536004803603810190610b4e9190613cd5565b612418565b005b348015610b6157600080fd5b50610b7c6004803603810190610b779190613b71565b61243a565b604051610b89919061396f565b60405180910390f35b348015610b9e57600080fd5b50610bb96004803603810190610bb49190614063565b61255d565b604051610bc69190613b56565b60405180910390f35b348015610bdb57600080fd5b50610bf66004803603810190610bf19190613b9e565b6125e4565b005b348015610c0457600080fd5b50610c0d612902565b604051610c1a9190613cba565b60405180910390f35b348015610c2f57600080fd5b50610c4a6004803603810190610c459190613b71565b612926565b604051610c57919061396f565b60405180910390f35b60007f7965db0b000000000000000000000000000000000000000000000000000000007bffffffffffffffffffffffffffffffffffffffffffffffffffffffff1916827bffffffffffffffffffffffffffffffffffffffffffffffffffffffff19161480610cd35750610cd282612959565b5b9050919050565b606060038054610ce9906140d2565b80601f0160208091040260200160405190810160405280929190818152602001828054610d15906140d2565b8015610d625780601f10610d3757610100808354040283529160200191610d62565b820191906000526020600020905b815481529060010190602001808311610d4557829003601f168201915b5050505050905090565b600080610d776129c3565b9050610d848185856129cb565b600191505092915050565b6000806000600d54600b54600c54925092509250909192565b6000610db460126129dd565b905090565b6000600254905090565b6000801b610dd0816129f2565b610dfa7fdf1425bae297c2f52b4f15d18a50b1fc8cb5b981a981b1d213ed3ff92681b64d83612a06565b505050565b60068181548110610e0f57600080fd5b906000526020600020016000915054906101000a900473ffffffffffffffffffffffffffffffffffffffff1681565b600b5481565b600080610e4f6129c3565b9050610e5c858285612af9565b610e67858585612b8e565b60019150509392505050565b600060056000838152602001908152602001600020600101549050919050565b7f8d9233e8f9e0681d692bebdd2fd8c8863336d587e831d84b9bff9f403d549b5f610ebd816129f2565b610ec5612c82565b60008211610f08576040517f08c379a0000000000000000000000000000000000000000000000000000000008152600401610eff90614175565b60405180910390fd5b47821115610f4b576040517f08c379a0000000000000000000000000000000000000000000000000000000008152600401610f4290614207565b60405180910390fd5b600f54821115610f90576040517f08c379a0000000000000000000000000000000000000000000000000000000008152600401610f8790614299565b60405180910390fd5b600082604051602401610fa39190613b56565b6040516020818303038152906040527fff4d7128000000000000000000000000000000000000000000000000000000007bffffffffffffffffffffffffffffffffffffffffffffffffffffffff19166020820180517bffffffffffffffffffffffffffffffffffffffffffffffffffffffff83818316178352505050509050600061102e3083612cc8565b9050505061103a612eb7565b5050565b61104782610e73565b611050816129f2565b61105a8383612ec1565b50505050565b60006012905090565b6b204fce5e3e2502611000000081565b6110816129c3565b73ffffffffffffffffffffffffffffffffffffffff168173ffffffffffffffffffffffffffffffffffffffff16146110e5576040517f6697b23200000000000000000000000000000000000000000000000000000000815260040160405180910390fd5b6110ef8282612a06565b505050565b600d5481565b7fc10c77be35aff266144ed64c26a1fa104bae2f284ae99ac4a34203454704a18581565b60096020528060005260406000206000915090508060000154908060010160009054906101000a900473ffffffffffffffffffffffffffffffffffffffff16908060020160009054906101000a900473ffffffffffffffffffffffffffffffffffffffff1690806003018054611193906140d2565b80601f01602080910402602001604051908101604052809291908181526020018280546111bf906140d2565b801561120c5780601f106111e15761010080835404028352916020019161120c565b820191906000526020600020905b8154815290600101906020018083116111ef57829003601f168201915b5050505050908060040154908060050160009054906101000a900460ff16905086565b606460146b204fce5e3e2502611000000061124a91906142e8565b6112549190614359565b81565b6000801b611264816129f2565b61128e7fdf1425bae297c2f52b4f15d18a50b1fc8cb5b981a981b1d213ed3ff92681b64d83612ec1565b505050565b7fdf1425bae297c2f52b4f15d18a50b1fc8cb5b981a981b1d213ed3ff92681b64d81565b60106020528060005260406000206000915090505481565b62278d0081565b600e5481565b60008173ffffffffffffffffffffffffffffffffffffffff1683604051611302906143bb565b60006040518083038185875af1925050503d806000811461133f576040519150601f19603f3d011682016040523d82523d6000602084013e611344565b606091505b5050905080611388576040517f08c379a000000000000000000000000000000000000000000000000000000000815260040161137f90614442565b60405180910390fd5b82600f600082825461139a9190614462565b925050819055508173ffffffffffffffffffffffffffffffffffffffff167fef37270ffd4697852e825c7f163a2505cfbd2d7849a69b6ad9c8829d7f90484a846040516113e79190613b56565b60405180910390a2505050565b6000600f54905090565b60008060008373ffffffffffffffffffffffffffffffffffffffff1673ffffffffffffffffffffffffffffffffffffffff168152602001908152602001600020549050919050565b600c5481565b7fc10c77be35aff266144ed64c26a1fa104bae2f284ae99ac4a34203454704a185611476816129f2565b600860008373ffffffffffffffffffffffffffffffffffffffff1673ffffffffffffffffffffffffffffffffffffffff16815260200190815260200160002060009054906101000a900460ff1615611503576040517f08c379a00000000000000000000000000000000000000000000000000000000081526004016114fa906144e2565b60405180910390fd5b61152d7fc10c77be35aff266144ed64c26a1fa104bae2f284ae99ac4a34203454704a18583612ec1565b506006829080600181540180825580915050600190039060005260206000200160009091909190916101000a81548173ffffffffffffffffffffffffffffffffffffffff021916908373ffffffffffffffffffffffffffffffffffffffff1602179055506001600860008473ffffffffffffffffffffffffffffffffffffffff1673ffffffffffffffffffffffffffffffffffffffff16815260200190815260200160002060006101000a81548160ff0219169083151502179055508173ffffffffffffffffffffffffffffffffffffffff167fe1cb5e1230cc02e62c60b81c1aa5ade512f3eac296edb28628b4cf344f47f93160405160405180910390a25050565b60008073ffffffffffffffffffffffffffffffffffffffff168473ffffffffffffffffffffffffffffffffffffffff16036116a0576040517f08c379a00000000000000000000000000000000000000000000000000000000081526004016116979061454e565b60405180910390fd5b600083116116e3576040517f08c379a00000000000000000000000000000000000000000000000000000000081526004016116da906145e0565b60405180910390fd5b6000600e60008154809291906116f890614600565b9190505590506000601160008381526020019081526020016000209050338160000160006101000a81548173ffffffffffffffffffffffffffffffffffffffff021916908373ffffffffffffffffffffffffffffffffffffffff160217905550858160010160006101000a81548173ffffffffffffffffffffffffffffffffffffffff021916908373ffffffffffffffffffffffffffffffffffffffff160217905550848160020181905550838160030190816117b591906147f4565b504281600401819055503373ffffffffffffffffffffffffffffffffffffffff16827f9d34c57b32992f32173fb0ab1d07b286ad0b0e0bc8c5e64de3045fa3f7f8187a876040516118069190613b56565b60405180910390a381925050509392505050565b7f2a725a6d9717b4c35d5874231ea45f47f1155516e23ff17bdd946ad79687853f81565b7f8d9233e8f9e0681d692bebdd2fd8c8863336d587e831d84b9bff9f403d549b5f611868816129f2565b611870612c82565b600073ffffffffffffffffffffffffffffffffffffffff168473ffffffffffffffffffffffffffffffffffffffff16036118df576040517f08c379a00000000000000000000000000000000000000000000000000000000081526004016118d69061454e565b60405180910390fd5b60008311611922576040517f08c379a0000000000000000000000000000000000000000000000000000000008152600401611919906145e0565b60405180910390fd5b61192c8484612fb3565b5082601060008673ffffffffffffffffffffffffffffffffffffffff1673ffffffffffffffffffffffffffffffffffffffff168152602001908152602001600020600082825461197c91906148c6565b925050819055507f0af8a758e2e143977c734d5e012b22d6550bc58df51be42389db46d9fcb2e2e08280519060200120036119cf5782600b60008282546119c391906148c6565b925050819055506119e9565b82600c60008282546119e191906148c6565b925050819055505b8373ffffffffffffffffffffffffffffffffffffffff167f375efe875f9cd6a664bdcb7c786b099b864a5ef3a60741abec505c92965932c68484604051611a319291906148fa565b60405180910390a2611a41612eb7565b50505050565b600f5481565b60006005600084815260200190815260200160002060000160008373ffffffffffffffffffffffffffffffffffffffff1673ffffffffffffffffffffffffffffffffffffffff16815260200190815260200160002060009054906101000a900460ff16905092915050565b606060048054611ac7906140d2565b80601f0160208091040260200160405190810160405280929190818152602001828054611af3906140d2565b8015611b405780601f10611b1557610100808354040283529160200191611b40565b820191906000526020600020905b815481529060010190602001808311611b2357829003601f168201915b5050505050905090565b60007f8d9233e8f9e0681d692bebdd2fd8c8863336d587e831d84b9bff9f403d549b5f611b76816129f2565b611b8a83601261310f90919063ffffffff16565b611bc9576040517f08c379a0000000000000000000000000000000000000000000000000000000008152600401611bc090614976565b60405180910390fd5b611bf37f2a725a6d9717b4c35d5874231ea45f47f1155516e23ff17bdd946ad79687853f84612a06565b506001915050919050565b6000801b81565b600080611c106129c3565b9050611c1d818585612b8e565b600191505092915050565b6000611c32612c82565b600034118015611c4157508134145b611c80576040517f08c379a0000000000000000000000000000000000000000000000000000000008152600401611c77906149e2565b60405180910390fd5b34600f6000828254611c9291906148c6565b925050819055503073ffffffffffffffffffffffffffffffffffffffff167f60bbf3f279de4eb569cec9565dbd645a7d269bef7d4b20083d8da32ddd6e946083604051611cdf9190613b56565b60405180910390a260019050611cf3612eb7565b919050565b60116020528060005260406000206000915090508060000160009054906101000a900473ffffffffffffffffffffffffffffffffffffffff16908060010160009054906101000a900473ffffffffffffffffffffffffffffffffffffffff1690806002015490806003018054611d6d906140d2565b80601f0160208091040260200160405190810160405280929190818152602001828054611d99906140d2565b8015611de65780601f10611dbb57610100808354040283529160200191611de6565b820191906000526020600020905b815481529060010190602001808311611dc957829003601f168201915b5050505050908060040154908060050154908060060160009054906101000a900460ff16905087565b7fdf1425bae297c2f52b4f15d18a50b1fc8cb5b981a981b1d213ed3ff92681b64d611e39816129f2565b60006009600084815260200190815260200160002090508060050160009054906101000a900460ff1615611ea2576040517f08c379a0000000000000000000000000000000000000000000000000000000008152600401611e9990614a4e565b60405180910390fd5b8060060160003373ffffffffffffffffffffffffffffffffffffffff1673ffffffffffffffffffffffffffffffffffffffff16815260200190815260200160002060009054906101000a900460ff1615611f31576040517f08c379a0000000000000000000000000000000000000000000000000000000008152600401611f2890614aba565b60405180910390fd5b60018160060160003373ffffffffffffffffffffffffffffffffffffffff1673ffffffffffffffffffffffffffffffffffffffff16815260200190815260200160002060006101000a81548160ff021916908315150217905550806004016000815480929190611fa090614600565b9190505550827f5d4ccf5f92566d140246f4ae3b9cb35dc06fff109a7748602ad77f6260fd9a6133604051611fd59190613bda565b60405180910390a260038160040154106121095760008160020160009054906101000a900473ffffffffffffffffffffffffffffffffffffffff1673ffffffffffffffffffffffffffffffffffffffff16826003016040516120379190614b72565b6000604051808303816000865af19150503d8060008114612074576040519150601f19603f3d011682016040523d82523d6000602084013e612079565b606091505b50509050806120bd576040517f08c379a00000000000000000000000000000000000000000000000000000000081526004016120b490614bd5565b60405180910390fd5b60018260050160006101000a81548160ff021916908315150217905550837f7770356c29230b95943aec59d47ead11eb426a728bf5b57f7fd8597f3c0e29ba60405160405180910390a2505b505050565b60086020528060005260406000206000915054906101000a900460ff1681565b6000801b61213b816129f2565b600860008373ffffffffffffffffffffffffffffffffffffffff1673ffffffffffffffffffffffffffffffffffffffff16815260200190815260200160002060009054906101000a900460ff166121c7576040517f08c379a00000000000000000000000000000000000000000000000000000000081526004016121be90614c41565b60405180910390fd5b60005b60068054905081101561234d578273ffffffffffffffffffffffffffffffffffffffff166006828154811061220257612201614c61565b5b9060005260206000200160009054906101000a900473ffffffffffffffffffffffffffffffffffffffff1673ffffffffffffffffffffffffffffffffffffffff1603612340576006600160068054905061225c9190614462565b8154811061226d5761226c614c61565b5b9060005260206000200160009054906101000a900473ffffffffffffffffffffffffffffffffffffffff16600682815481106122ac576122ab614c61565b5b9060005260206000200160006101000a81548173ffffffffffffffffffffffffffffffffffffffff021916908373ffffffffffffffffffffffffffffffffffffffff160217905550600680548061230657612305614c90565b5b6001900381819060005260206000200160006101000a81549073ffffffffffffffffffffffffffffffffffffffff0219169055905561234d565b80806001019150506121ca565b506000600860008473ffffffffffffffffffffffffffffffffffffffff1673ffffffffffffffffffffffffffffffffffffffff16815260200190815260200160002060006101000a81548160ff0219169083151502179055506123d07fc10c77be35aff266144ed64c26a1fa104bae2f284ae99ac4a34203454704a18583612a06565b508173ffffffffffffffffffffffffffffffffffffffff167f55dba9d79522b91b615629d5f3b10c2fad2d258f1768614f4a52e937ada0d0ba60405160405180910390a25050565b61242182610e73565b61242a816129f2565b6124348383612a06565b50505050565b60007f8d9233e8f9e0681d692bebdd2fd8c8863336d587e831d84b9bff9f403d549b5f612466816129f2565b600073ffffffffffffffffffffffffffffffffffffffff168373ffffffffffffffffffffffffffffffffffffffff16036124d5576040517f08c379a00000000000000000000000000000000000000000000000000000000081526004016124cc90614d31565b60405180910390fd5b6124e983601261313f90919063ffffffff16565b612528576040517f08c379a000000000000000000000000000000000000000000000000000000000815260040161251f90614d9d565b60405180910390fd5b6125527f2a725a6d9717b4c35d5874231ea45f47f1155516e23ff17bdd946ad79687853f84612ec1565b506001915050919050565b6000600160008473ffffffffffffffffffffffffffffffffffffffff1673ffffffffffffffffffffffffffffffffffffffff16815260200190815260200160002060008373ffffffffffffffffffffffffffffffffffffffff1673ffffffffffffffffffffffffffffffffffffffff16815260200190815260200160002054905092915050565b7f2a725a6d9717b4c35d5874231ea45f47f1155516e23ff17bdd946ad79687853f61260e816129f2565b612616612c82565b60006011600084815260200190815260200160002090508060060160009054906101000a900460ff161561267f576040517f08c379a000000000000000000000000000000000000000000000000000000000815260040161267690614e2f565b60405180910390fd5b62278d00816004015461269291906148c6565b4211156126d4576040517f08c379a00000000000000000000000000000000000000000000000000000000081526004016126cb90614ec1565b60405180910390fd5b8060070160003373ffffffffffffffffffffffffffffffffffffffff1673ffffffffffffffffffffffffffffffffffffffff16815260200190815260200160002060009054906101000a900460ff1615612763576040517f08c379a000000000000000000000000000000000000000000000000000000000815260040161275a90614f2d565b60405180910390fd5b60018160070160003373ffffffffffffffffffffffffffffffffffffffff1673ffffffffffffffffffffffffffffffffffffffff16815260200190815260200160002060006101000a81548160ff0219169083151502179055508060050160008154809291906127d290614600565b91905055503373ffffffffffffffffffffffffffffffffffffffff16837f41454604bd5a8e631d0b8698c50c1f6a4adc4852a17214e5f697bd57cd20414160405160405180910390a3600261282760126129dd565b6128319190614359565b816005015411156128f55761286e8160010160009054906101000a900473ffffffffffffffffffffffffffffffffffffffff168260020154612fb3565b5060018160060160006101000a81548160ff0219169083151502179055508060010160009054906101000a900473ffffffffffffffffffffffffffffffffffffffff1673ffffffffffffffffffffffffffffffffffffffff16837fad7687aa3ebc66c074c5f5acb7bb3aac89eec1ee584373bae8346d56e7a5fa6060405160405180910390a35b506128fe612eb7565b5050565b7f8d9233e8f9e0681d692bebdd2fd8c8863336d587e831d84b9bff9f403d549b5f81565b60006129527fc10c77be35aff266144ed64c26a1fa104bae2f284ae99ac4a34203454704a18583611a4d565b9050919050565b60007f01ffc9a7000000000000000000000000000000000000000000000000000000007bffffffffffffffffffffffffffffffffffffffffffffffffffffffff1916827bffffffffffffffffffffffffffffffffffffffffffffffffffffffff1916149050919050565b600033905090565b6129d8838383600161316f565b505050565b60006129eb82600001613346565b9050919050565b612a03816129fe6129c3565b613357565b50565b6000612a128383611a4d565b15612aee5760006005600085815260200190815260200160002060000160008473ffffffffffffffffffffffffffffffffffffffff1673ffffffffffffffffffffffffffffffffffffffff16815260200190815260200160002060006101000a81548160ff021916908315150217905550612a8b6129c3565b73ffffffffffffffffffffffffffffffffffffffff168273ffffffffffffffffffffffffffffffffffffffff16847ff6391f5c32d9c69d2a47ea670b442974b53935d1edc7fd64eb21e047a839171b60405160405180910390a460019050612af3565b600090505b92915050565b6000612b05848461255d565b90507fffffffffffffffffffffffffffffffffffffffffffffffffffffffffffffffff811015612b885781811015612b78578281836040517ffb8f41b2000000000000000000000000000000000000000000000000000000008152600401612b6f93929190614f4d565b60405180910390fd5b612b878484848403600061316f565b5b50505050565b600073ffffffffffffffffffffffffffffffffffffffff168373ffffffffffffffffffffffffffffffffffffffff1603612c005760006040517f96c6fd1e000000000000000000000000000000000000000000000000000000008152600401612bf79190613bda565b60405180910390fd5b600073ffffffffffffffffffffffffffffffffffffffff168273ffffffffffffffffffffffffffffffffffffffff1603612c725760006040517fec442f05000000000000000000000000000000000000000000000000000000008152600401612c699190613bda565b60405180910390fd5b612c7d8383836133a8565b505050565b6002600a5403612cbe576040517f3ee5aeb500000000000000000000000000000000000000000000000000000000815260040160405180910390fd5b6002600a81905550565b60007fdf1425bae297c2f52b4f15d18a50b1fc8cb5b981a981b1d213ed3ff92681b64d612cf4816129f2565b7fc10c77be35aff266144ed64c26a1fa104bae2f284ae99ac4a34203454704a185612d1e816129f2565b600060076000815480929190612d3390614600565b9190505590506000600960008381526020019081526020016000209050818160000181905550338160010160006101000a81548173ffffffffffffffffffffffffffffffffffffffff021916908373ffffffffffffffffffffffffffffffffffffffff160217905550868160020160006101000a81548173ffffffffffffffffffffffffffffffffffffffff021916908373ffffffffffffffffffffffffffffffffffffffff16021790555085816003019081612df09190614fca565b506001816004018190555060008160050160006101000a81548160ff02191690831515021790555060018160060160003373ffffffffffffffffffffffffffffffffffffffff1673ffffffffffffffffffffffffffffffffffffffff16815260200190815260200160002060006101000a81548160ff021916908315150217905550817fbcc43907be1d435f496e2233697a9a9fead2fb5639dac8459c53d7114829b8be33604051612ea29190613bda565b60405180910390a28194505050505092915050565b6001600a81905550565b6000612ecd8383611a4d565b612fa85760016005600085815260200190815260200160002060000160008473ffffffffffffffffffffffffffffffffffffffff1673ffffffffffffffffffffffffffffffffffffffff16815260200190815260200160002060006101000a81548160ff021916908315150217905550612f456129c3565b73ffffffffffffffffffffffffffffffffffffffff168273ffffffffffffffffffffffffffffffffffffffff16847f2f8788117e7eff1d82e926ec794901d17c78024a50270940304540a733656f0d60405160405180910390a460019050612fad565b600090505b92915050565b6000606460146b204fce5e3e25026110000000612fd091906142e8565b612fda9190614359565b612fe26135cd565b83612fed91906148c6565b111561302e576040517f08c379a0000000000000000000000000000000000000000000000000000000008152600401613025906150e8565b60405180910390fd5b600073ffffffffffffffffffffffffffffffffffffffff168373ffffffffffffffffffffffffffffffffffffffff160361309d576040517f08c379a00000000000000000000000000000000000000000000000000000000081526004016130949061517a565b60405180910390fd5b6130a783836135d7565b5081600d60008282546130ba91906148c6565b92505081905550818373ffffffffffffffffffffffffffffffffffffffff167f9c9f15b8cfaf118c4bcce18b04dded23a21adb13f07b271947f2341874c97a2d60405160405180910390a36001905092915050565b6000613137836000018373ffffffffffffffffffffffffffffffffffffffff1660001b613692565b905092915050565b6000613167836000018373ffffffffffffffffffffffffffffffffffffffff1660001b6137a6565b905092915050565b600073ffffffffffffffffffffffffffffffffffffffff168473ffffffffffffffffffffffffffffffffffffffff16036131e15760006040517fe602df050000000000000000000000000000000000000000000000000000000081526004016131d89190613bda565b60405180910390fd5b600073ffffffffffffffffffffffffffffffffffffffff168373ffffffffffffffffffffffffffffffffffffffff16036132535760006040517f94280d6200000000000000000000000000000000000000000000000000000000815260040161324a9190613bda565b60405180910390fd5b81600160008673ffffffffffffffffffffffffffffffffffffffff1673ffffffffffffffffffffffffffffffffffffffff16815260200190815260200160002060008573ffffffffffffffffffffffffffffffffffffffff1673ffffffffffffffffffffffffffffffffffffffff168152602001908152602001600020819055508015613340578273ffffffffffffffffffffffffffffffffffffffff168473ffffffffffffffffffffffffffffffffffffffff167f8c5be1e5ebec7d5bd14f71427d1e84f3dd0314c0f7b2291e5b200ac8c7c3b925846040516133379190613b56565b60405180910390a35b50505050565b600081600001805490509050919050565b6133618282611a4d565b6133a45780826040517fe2517d3f00000000000000000000000000000000000000000000000000000000815260040161339b92919061519a565b60405180910390fd5b5050565b600073ffffffffffffffffffffffffffffffffffffffff168373ffffffffffffffffffffffffffffffffffffffff16036133fa5780600260008282546133ee91906148c6565b925050819055506134cd565b60008060008573ffffffffffffffffffffffffffffffffffffffff1673ffffffffffffffffffffffffffffffffffffffff16815260200190815260200160002054905081811015613486578381836040517fe450d38c00000000000000000000000000000000000000000000000000000000815260040161347d93929190614f4d565b60405180910390fd5b8181036000808673ffffffffffffffffffffffffffffffffffffffff1673ffffffffffffffffffffffffffffffffffffffff16815260200190815260200160002081905550505b600073ffffffffffffffffffffffffffffffffffffffff168273ffffffffffffffffffffffffffffffffffffffff16036135165780600260008282540392505081905550613563565b806000808473ffffffffffffffffffffffffffffffffffffffff1673ffffffffffffffffffffffffffffffffffffffff168152602001908152602001600020600082825401925050819055505b8173ffffffffffffffffffffffffffffffffffffffff168373ffffffffffffffffffffffffffffffffffffffff167fddf252ad1be2c89b69c2b068fc378daa952ba7f163c4a11628f55a4df523b3ef836040516135c09190613b56565b60405180910390a3505050565b6000600d54905090565b60006b204fce5e3e250261100000006135ee610db9565b836135f991906148c6565b111561363a576040517f08c379a00000000000000000000000000000000000000000000000000000000081526004016136319061520f565b60405180910390fd5b6136448383613816565b818373ffffffffffffffffffffffffffffffffffffffff167fcda531bfd68624f13205c0a23cd4d5a7f09792cbb399603114f2b04aaa1bf5cf60405160405180910390a36001905092915050565b6000808360010160008481526020019081526020016000205490506000811461379a5760006001826136c49190614462565b90506000600186600001805490506136dc9190614462565b905080821461374b5760008660000182815481106136fd576136fc614c61565b5b906000526020600020015490508087600001848154811061372157613720614c61565b5b90600052602060002001819055508387600101600083815260200190815260200160002081905550505b8560000180548061375f5761375e614c90565b5b6001900381819060005260206000200160009055905585600101600086815260200190815260200160002060009055600193505050506137a0565b60009150505b92915050565b60006137b28383613898565b61380b578260000182908060018154018082558091505060019003906000526020600020016000909190919091505582600001805490508360010160008481526020019081526020016000208190555060019050613810565b600090505b92915050565b600073ffffffffffffffffffffffffffffffffffffffff168273ffffffffffffffffffffffffffffffffffffffff16036138885760006040517fec442f0500000000000000000000000000000000000000000000000000000000815260040161387f9190613bda565b60405180910390fd5b613894600083836133a8565b5050565b600080836001016000848152602001908152602001600020541415905092915050565b6000604051905090565b600080fd5b600080fd5b60007fffffffff0000000000000000000000000000000000000000000000000000000082169050919050565b613904816138cf565b811461390f57600080fd5b50565b600081359050613921816138fb565b92915050565b60006020828403121561393d5761393c6138c5565b5b600061394b84828501613912565b91505092915050565b60008115159050919050565b61396981613954565b82525050565b60006020820190506139846000830184613960565b92915050565b600081519050919050565b600082825260208201905092915050565b60005b838110156139c45780820151818401526020810190506139a9565b60008484015250505050565b6000601f19601f8301169050919050565b60006139ec8261398a565b6139f68185613995565b9350613a068185602086016139a6565b613a0f816139d0565b840191505092915050565b60006020820190508181036000830152613a3481846139e1565b905092915050565b600073ffffffffffffffffffffffffffffffffffffffff82169050919050565b6000613a6782613a3c565b9050919050565b613a7781613a5c565b8114613a8257600080fd5b50565b600081359050613a9481613a6e565b92915050565b6000819050919050565b613aad81613a9a565b8114613ab857600080fd5b50565b600081359050613aca81613aa4565b92915050565b60008060408385031215613ae757613ae66138c5565b5b6000613af585828601613a85565b9250506020613b0685828601613abb565b9150509250929050565b613b1981613a9a565b82525050565b6000606082019050613b346000830186613b10565b613b416020830185613b10565b613b4e6040830184613b10565b949350505050565b6000602082019050613b6b6000830184613b10565b92915050565b600060208284031215613b8757613b866138c5565b5b6000613b9584828501613a85565b91505092915050565b600060208284031215613bb457613bb36138c5565b5b6000613bc284828501613abb565b91505092915050565b613bd481613a5c565b82525050565b6000602082019050613bef6000830184613bcb565b92915050565b600080600060608486031215613c0e57613c0d6138c5565b5b6000613c1c86828701613a85565b9350506020613c2d86828701613a85565b9250506040613c3e86828701613abb565b9150509250925092565b6000819050919050565b613c5b81613c48565b8114613c6657600080fd5b50565b600081359050613c7881613c52565b92915050565b600060208284031215613c9457613c936138c5565b5b6000613ca284828501613c69565b91505092915050565b613cb481613c48565b82525050565b6000602082019050613ccf6000830184613cab565b92915050565b60008060408385031215613cec57613ceb6138c5565b5b6000613cfa85828601613c69565b9250506020613d0b85828601613a85565b9150509250929050565b600060ff82169050919050565b613d2b81613d15565b82525050565b6000602082019050613d466000830184613d22565b92915050565b600081519050919050565b600082825260208201905092915050565b6000613d7382613d4c565b613d7d8185613d57565b9350613d8d8185602086016139a6565b613d96816139d0565b840191505092915050565b600060c082019050613db66000830189613b10565b613dc36020830188613bcb565b613dd06040830187613bcb565b8181036060830152613de28186613d68565b9050613df16080830185613b10565b613dfe60a0830184613960565b979650505050505050565b60008060408385031215613e2057613e1f6138c5565b5b6000613e2e85828601613abb565b9250506020613e3f85828601613a85565b9150509250929050565b600080fd5b600080fd5b7f4e487b7100000000000000000000000000000000000000000000000000000000600052604160045260246000fd5b613e8b826139d0565b810181811067ffffffffffffffff82111715613eaa57613ea9613e53565b5b80604052505050565b6000613ebd6138bb565b9050613ec98282613e82565b919050565b600067ffffffffffffffff821115613ee957613ee8613e53565b5b613ef2826139d0565b9050602081019050919050565b82818337600083830152505050565b6000613f21613f1c84613ece565b613eb3565b905082815260208101848484011115613f3d57613f3c613e4e565b5b613f48848285613eff565b509392505050565b600082601f830112613f6557613f64613e49565b5b8135613f75848260208601613f0e565b91505092915050565b600080600060608486031215613f9757613f966138c5565b5b6000613fa586828701613a85565b9350506020613fb686828701613abb565b925050604084013567ffffffffffffffff811115613fd757613fd66138ca565b5b613fe386828701613f50565b9150509250925092565b600060e082019050614002600083018a613bcb565b61400f6020830189613bcb565b61401c6040830188613b10565b818103606083015261402e81876139e1565b905061403d6080830186613b10565b61404a60a0830185613b10565b61405760c0830184613960565b98975050505050505050565b6000806040838503121561407a576140796138c5565b5b600061408885828601613a85565b925050602061409985828601613a85565b9150509250929050565b7f4e487b7100000000000000000000000000000000000000000000000000000000600052602260045260246000fd5b600060028204905060018216806140ea57607f821691505b6020821081036140fd576140fc6140a3565b5b50919050565b7f54726561737572793a205769746864726177616c20616d6f756e74206d75737460008201527f2062652067726561746572207468616e20300000000000000000000000000000602082015250565b600061415f603283613995565b915061416a82614103565b604082019050919050565b6000602082019050818103600083015261418e81614152565b9050919050565b7f54726561737572793a20496e73756666696369656e7420636f6e74726163742060008201527f62616c616e636500000000000000000000000000000000000000000000000000602082015250565b60006141f1602783613995565b91506141fc82614195565b604082019050919050565b60006020820190508181036000830152614220816141e4565b9050919050565b7f54726561737572793a20496e73756666696369656e7420747261636b6564206260008201527f616c616e63650000000000000000000000000000000000000000000000000000602082015250565b6000614283602683613995565b915061428e82614227565b604082019050919050565b600060208201905081810360008301526142b281614276565b9050919050565b7f4e487b7100000000000000000000000000000000000000000000000000000000600052601160045260246000fd5b60006142f382613a9a565b91506142fe83613a9a565b925082820261430c81613a9a565b91508282048414831517614323576143226142b9565b5b5092915050565b7f4e487b7100000000000000000000000000000000000000000000000000000000600052601260045260246000fd5b600061436482613a9a565b915061436f83613a9a565b92508261437f5761437e61432a565b5b828204905092915050565b600081905092915050565b50565b60006143a560008361438a565b91506143b082614395565b600082019050919050565b60006143c682614398565b9150819050919050565b7f54726561737572793a205769746864726177616c207472616e7366657220666160008201527f696c656400000000000000000000000000000000000000000000000000000000602082015250565b600061442c602483613995565b9150614437826143d0565b604082019050919050565b6000602082019050818103600083015261445b8161441f565b9050919050565b600061446d82613a9a565b915061447883613a9a565b92508282039050818111156144905761448f6142b9565b5b92915050565b7f416c726561647920696e20726576696577657220706f6f6c0000000000000000600082015250565b60006144cc601883613995565b91506144d782614496565b602082019050919050565b600060208201905081810360008301526144fb816144bf565b9050919050565b7f54726561737572793a20496e76616c696420726563697069656e740000000000600082015250565b6000614538601b83613995565b915061454382614502565b602082019050919050565b600060208201905081810360008301526145678161452b565b9050919050565b7f54726561737572793a20416d6f756e74206d757374206265206772656174657260008201527f207468616e203000000000000000000000000000000000000000000000000000602082015250565b60006145ca602783613995565b91506145d58261456e565b604082019050919050565b600060208201905081810360008301526145f9816145bd565b9050919050565b600061460b82613a9a565b91507fffffffffffffffffffffffffffffffffffffffffffffffffffffffffffffffff820361463d5761463c6142b9565b5b600182019050919050565b60008190508160005260206000209050919050565b60006020601f8301049050919050565b600082821b905092915050565b6000600883026146aa7fffffffffffffffffffffffffffffffffffffffffffffffffffffffffffffffff8261466d565b6146b4868361466d565b95508019841693508086168417925050509392505050565b6000819050919050565b60006146f16146ec6146e784613a9a565b6146cc565b613a9a565b9050919050565b6000819050919050565b61470b836146d6565b61471f614717826146f8565b84845461467a565b825550505050565b600090565b614734614727565b61473f818484614702565b505050565b5b818110156147635761475860008261472c565b600181019050614745565b5050565b601f8211156147a85761477981614648565b6147828461465d565b81016020851015614791578190505b6147a561479d8561465d565b830182614744565b50505b505050565b600082821c905092915050565b60006147cb600019846008026147ad565b1980831691505092915050565b60006147e483836147ba565b9150826002028217905092915050565b6147fd8261398a565b67ffffffffffffffff81111561481657614815613e53565b5b61482082546140d2565b61482b828285614767565b600060209050601f83116001811461485e576000841561484c578287015190505b61485685826147d8565b8655506148be565b601f19841661486c86614648565b60005b828110156148945784890151825560018201915060208501945060208101905061486f565b868310156148b157848901516148ad601f8916826147ba565b8355505b6001600288020188555050505b505050505050565b60006148d182613a9a565b91506148dc83613a9a565b92508282019050808211156148f4576148f36142b9565b5b92915050565b600060408201905061490f6000830185613b10565b818103602083015261492181846139e1565b90509392505050565b7f54726561737572793a2054727573746565206e6f7420666f756e640000000000600082015250565b6000614960601b83613995565b915061496b8261492a565b602082019050919050565b6000602082019050818103600083015261498f81614953565b9050919050565b7f54726561737572793a20496e76616c6964206465706f73697420616d6f756e74600082015250565b60006149cc602083613995565b91506149d782614996565b602082019050919050565b600060208201905081810360008301526149fb816149bf565b9050919050565b7f50726f706f73616c20616c726561647920657865637574656400000000000000600082015250565b6000614a38601983613995565b9150614a4382614a02565b602082019050919050565b60006020820190508181036000830152614a6781614a2b565b9050919050565b7f416c726561647920617070726f76656400000000000000000000000000000000600082015250565b6000614aa4601083613995565b9150614aaf82614a6e565b602082019050919050565b60006020820190508181036000830152614ad381614a97565b9050919050565b60008190508160005260206000209050919050565b60008154614afc816140d2565b614b06818661438a565b94506001821660008114614b215760018114614b3657614b69565b60ff1983168652811515820286019350614b69565b614b3f85614ada565b60005b83811015614b6157815481890152600182019150602081019050614b42565b838801955050505b50505092915050565b6000614b7e8284614aef565b915081905092915050565b7f50726f706f73616c20657865637574696f6e206661696c656400000000000000600082015250565b6000614bbf601983613995565b9150614bca82614b89565b602082019050919050565b60006020820190508181036000830152614bee81614bb2565b9050919050565b7f4e6f7420696e20726576696577657220706f6f6c000000000000000000000000600082015250565b6000614c2b601483613995565b9150614c3682614bf5565b602082019050919050565b60006020820190508181036000830152614c5a81614c1e565b9050919050565b7f4e487b7100000000000000000000000000000000000000000000000000000000600052603260045260246000fd5b7f4e487b7100000000000000000000000000000000000000000000000000000000600052603160045260246000fd5b7f54726561737572793a20496e76616c696420747275737465652061646472657360008201527f7300000000000000000000000000000000000000000000000000000000000000602082015250565b6000614d1b602183613995565b9150614d2682614cbf565b604082019050919050565b60006020820190508181036000830152614d4a81614d0e565b9050919050565b7f54726561737572793a205472757374656520616c726561647920657869737473600082015250565b6000614d87602083613995565b9150614d9282614d51565b602082019050919050565b60006020820190508181036000830152614db681614d7a565b9050919050565b7f54726561737572793a205265717565737420616c72656164792065786563757460008201527f6564000000000000000000000000000000000000000000000000000000000000602082015250565b6000614e19602283613995565b9150614e2482614dbd565b604082019050919050565b60006020820190508181036000830152614e4881614e0c565b9050919050565b7f54726561737572793a2046756e64696e6720726571756573742065787069726560008201527f6400000000000000000000000000000000000000000000000000000000000000602082015250565b6000614eab602183613995565b9150614eb682614e4f565b604082019050919050565b60006020820190508181036000830152614eda81614e9e565b9050919050565b7f54726561737572793a20416c726561647920766f746564000000000000000000600082015250565b6000614f17601783613995565b9150614f2282614ee1565b602082019050919050565b60006020820190508181036000830152614f4681614f0a565b9050919050565b6000606082019050614f626000830186613bcb565b614f6f6020830185613b10565b614f7c6040830184613b10565b949350505050565b601f821115614fc557614f9681614ada565b614f9f8461465d565b81016020851015614fae578190505b614fc2614fba8561465d565b830182614744565b50505b505050565b614fd382613d4c565b67ffffffffffffffff811115614fec57614feb613e53565b5b614ff682546140d2565b615001828285614f84565b600060209050601f8311600181146150345760008415615022578287015190505b61502c85826147d8565b865550615094565b601f19841661504286614ada565b60005b8281101561506a57848901518255600182019150602085019450602081019050615045565b868310156150875784890151615083601f8916826147ba565b8355505b6001600288020188555050505b505050505050565b7f54726561737572793a204d696e74696e67206c696d6974206578636565646564600082015250565b60006150d2602083613995565b91506150dd8261509c565b602082019050919050565b60006020820190508181036000830152615101816150c5565b9050919050565b7f54726561737572793a2043616e6e6f74206d696e7420746f207a65726f20616460008201527f6472657373000000000000000000000000000000000000000000000000000000602082015250565b6000615164602583613995565b915061516f82615108565b604082019050919050565b6000602082019050818103600083015261519381615157565b9050919050565b60006040820190506151af6000830185613bcb565b6151bc6020830184613cab565b9392505050565b7f4c696d6974204578636565646564210000000000000000000000000000000000600082015250565b60006151f9600f83613995565b9150615204826151c3565b602082019050919050565b60006020820190508181036000830152615228816151ec565b905091905056fea26469706673582212201ef150f98efdd9a679a6507f3231a9c175a01abab87e4bff3ac99425f0c338b564736f6c634300081b0033",
  "linkReferences": {},
  "deployedLinkReferences": {}
}