{
  "_format": "hh-sol-artifact-1",
  "contractName": "Treasury",
  "sourceName": "contracts/Treasury.sol",
  "abi": [
    {
      "inputs": [
        {
          "internalType": "address[]",
          "name": "_reviewers",
          "type": "address[]"
        }
      ],
      "stateMutability": "nonpayable",
      "type": "constructor"
    },
    {
      "inputs": [],
      "name": "AccessControlBadConfirmation",
      "type": "error"
    },
    {
      "inputs": [
        {
          "internalType": "address",
          "name": "account",
          "type": "address"
        },
        {
          "internalType": "bytes32",
          "name": "neededRole",
          "type": "bytes32"
        }
      ],
      "name": "AccessControlUnauthorizedAccount",
      "type": "error"
    },
    {
      "inputs": [
        {
          "internalType": "address",
          "name": "spender",
          "type": "address"
        },
        {
          "internalType": "uint256",
          "name": "allowance",
          "type": "uint256"
        },
        {
          "internalType": "uint256",
          "name": "needed",
          "type": "uint256"
        }
      ],
      "name": "ERC20InsufficientAllowance",
      "type": "error"
    },
    {
      "inputs": [
        {
          "internalType": "address",
          "name": "sender",
          "type": "address"
        },
        {
          "internalType": "uint256",
          "name": "balance",
          "type": "uint256"
        },
        {
          "internalType": "uint256",
          "name": "needed",
          "type": "uint256"
        }
      ],
      "name": "ERC20InsufficientBalance",
      "type": "error"
    },
    {
      "inputs": [
        {
          "internalType": "address",
          "name": "approver",
          "type": "address"
        }
      ],
      "name": "ERC20InvalidApprover",
      "type": "error"
    },
    {
      "inputs": [
        {
          "internalType": "address",
          "name": "receiver",
          "type": "address"
        }
      ],
      "name": "ERC20InvalidReceiver",
      "type": "error"
    },
    {
      "inputs": [
        {
          "internalType": "address",
          "name": "sender",
          "type": "address"
        }
      ],
      "name": "ERC20InvalidSender",
      "type": "error"
    },
    {
      "inputs": [
        {
          "internalType": "address",
          "name": "spender",
          "type": "address"
        }
      ],
      "name": "ERC20InvalidSpender",
      "type": "error"
    },
    {
      "inputs": [],
      "name": "ReentrancyGuardReentrantCall",
      "type": "error"
    },
    {
      "anonymous": false,
      "inputs": [
        {
          "indexed": true,
          "internalType": "address",
          "name": "owner",
          "type": "address"
        },
        {
          "indexed": true,
          "internalType": "address",
          "name": "spender",
          "type": "address"
        },
        {
          "indexed": false,
          "internalType": "uint256",
          "name": "value",
          "type": "uint256"
        }
      ],
      "name": "Approval",
      "type": "event"
    },
    {
      "anonymous": false,
      "inputs": [
        {
          "indexed": true,
          "internalType": "address",
          "name": "_account",
          "type": "address"
        },
        {
          "indexed": false,
          "internalType": "uint256",
          "name": "_amount",
          "type": "uint256"
        }
      ],
      "name": "BurnSuccess",
      "type": "event"
    },
    {
      "anonymous": false,
      "inputs": [
        {
          "indexed": true,
          "internalType": "address",
          "name": "_contract",
          "type": "address"
        },
        {
          "indexed": false,
          "internalType": "uint256",
          "name": "amount",
          "type": "uint256"
        }
      ],
      "name": "DepositSuccess",
      "type": "event"
    },
    {
      "anonymous": false,
      "inputs": [
        {
          "indexed": true,
          "internalType": "uint256",
          "name": "requestId",
          "type": "uint256"
        },
        {
          "indexed": true,
          "internalType": "address",
          "name": "trustee",
          "type": "address"
        }
      ],
      "name": "FundingRequestApproved",
      "type": "event"
    },
    {
      "anonymous": false,
      "inputs": [
        {
          "indexed": true,
          "internalType": "uint256",
          "name": "requestId",
          "type": "uint256"
        },
        {
          "indexed": true,
          "internalType": "address",
          "name": "requester",
          "type": "address"
        },
        {
          "indexed": false,
          "internalType": "uint256",
          "name": "amount",
          "type": "uint256"
        }
      ],
      "name": "FundingRequestCreated",
      "type": "event"
    },
    {
      "anonymous": false,
      "inputs": [
        {
          "indexed": true,
          "internalType": "uint256",
          "name": "requestId",
          "type": "uint256"
        },
        {
          "indexed": true,
          "internalType": "address",
          "name": "recipient",
          "type": "address"
        }
      ],
      "name": "FundingRequestExecuted",
      "type": "event"
    },
    {
      "anonymous": false,
      "inputs": [
        {
          "indexed": true,
          "internalType": "address",
          "name": "recipient",
          "type": "address"
        },
        {
          "indexed": false,
          "internalType": "uint256",
          "name": "amount",
          "type": "uint256"
        },
        {
          "indexed": false,
          "internalType": "string",
          "name": "purpose",
          "type": "string"
        }
      ],
      "name": "FundsAllocated",
      "type": "event"
    },
    {
      "anonymous": false,
      "inputs": [
        {
          "indexed": true,
          "internalType": "address",
          "name": "_to",
          "type": "address"
        },
        {
          "indexed": true,
          "internalType": "uint256",
          "name": "_amount",
          "type": "uint256"
        }
      ],
      "name": "MintSuccess",
      "type": "event"
    },
    {
      "anonymous": false,
      "inputs": [
        {
          "indexed": true,
          "internalType": "uint256",
          "name": "proposalId",
          "type": "uint256"
        },
        {
          "indexed": false,
          "internalType": "address",
          "name": "approver",
          "type": "address"
        }
      ],
      "name": "MultiSigProposalApproved",
      "type": "event"
    },
    {
      "anonymous": false,
      "inputs": [
        {
          "indexed": true,
          "internalType": "uint256",
          "name": "proposalId",
          "type": "uint256"
        },
        {
          "indexed": false,
          "internalType": "address",
          "name": "proposer",
          "type": "address"
        }
      ],
      "name": "MultiSigProposalCreated",
      "type": "event"
    },
    {
      "anonymous": false,
      "inputs": [
        {
          "indexed": true,
          "internalType": "uint256",
          "name": "proposalId",
          "type": "uint256"
        }
      ],
      "name": "MultiSigProposalExecuted",
      "type": "event"
    },
    {
      "anonymous": false,
      "inputs": [
        {
          "indexed": true,
          "internalType": "address",
          "name": "reviewer",
          "type": "address"
        }
      ],
      "name": "ReviewerAddedToPool",
      "type": "event"
    },
    {
      "anonymous": false,
      "inputs": [
        {
          "indexed": true,
          "internalType": "address",
          "name": "reviewer",
          "type": "address"
        }
      ],
      "name": "ReviewerRemovedFromPool",
      "type": "event"
    },
    {
      "anonymous": false,
      "inputs": [
        {
          "indexed": true,
          "internalType": "bytes32",
          "name": "role",
          "type": "bytes32"
        },
        {
          "indexed": true,
          "internalType": "bytes32",
          "name": "previousAdminRole",
          "type": "bytes32"
        },
        {
          "indexed": true,
          "internalType": "bytes32",
          "name": "newAdminRole",
          "type": "bytes32"
        }
      ],
      "name": "RoleAdminChanged",
      "type": "event"
    },
    {
      "anonymous": false,
      "inputs": [
        {
          "indexed": true,
          "internalType": "bytes32",
          "name": "role",
          "type": "bytes32"
        },
        {
          "indexed": true,
          "internalType": "address",
          "name": "account",
          "type": "address"
        },
        {
          "indexed": true,
          "internalType": "address",
          "name": "sender",
          "type": "address"
        }
      ],
      "name": "RoleGranted",
      "type": "event"
    },
    {
      "anonymous": false,
      "inputs": [
        {
          "indexed": true,
          "internalType": "bytes32",
          "name": "role",
          "type": "bytes32"
        },
        {
          "indexed": true,
          "internalType": "address",
          "name": "account",
          "type": "address"
        },
        {
          "indexed": true,
          "internalType": "address",
          "name": "sender",
          "type": "address"
        }
      ],
      "name": "RoleRevoked",
      "type": "event"
    },
    {
      "anonymous": false,
      "inputs": [
        {
          "indexed": true,
          "internalType": "address",
          "name": "from",
          "type": "address"
        },
        {
          "indexed": true,
          "internalType": "address",
          "name": "to",
          "type": "address"
        },
        {
          "indexed": false,
          "internalType": "uint256",
          "name": "value",
          "type": "uint256"
        }
      ],
      "name": "Transfer",
      "type": "event"
    },
    {
      "anonymous": false,
      "inputs": [
        {
          "indexed": true,
          "internalType": "address",
          "name": "_to",
          "type": "address"
        },
        {
          "indexed": true,
          "internalType": "uint256",
          "name": "_amount",
          "type": "uint256"
        }
      ],
      "name": "TreasuryPoolUpdate",
      "type": "event"
    },
    {
      "anonymous": false,
      "inputs": [
        {
          "indexed": true,
          "internalType": "address",
          "name": "recipient",
          "type": "address"
        },
        {
          "indexed": false,
          "internalType": "uint256",
          "name": "amount",
          "type": "uint256"
        }
      ],
      "name": "WithdrawalSuccess",
      "type": "event"
    },
    {
      "inputs": [],
      "name": "DEFAULT_ADMIN_ROLE",
      "outputs": [
        {
          "internalType": "bytes32",
          "name": "",
          "type": "bytes32"
        }
      ],
      "stateMutability": "view",
      "type": "function"
    },
    {
      "inputs": [],
      "name": "MAX_FUNDING_REQUEST_DURATION",
      "outputs": [
        {
          "internalType": "uint256",
          "name": "",
          "type": "uint256"
        }
      ],
      "stateMutability": "view",
      "type": "function"
    },
    {
      "inputs": [],
      "name": "MAX_SUPPLY",
      "outputs": [
        {
          "internalType": "uint256",
          "name": "",
          "type": "uint256"
        }
      ],
      "stateMutability": "view",
      "type": "function"
    },
    {
      "inputs": [],
      "name": "MULTISIG_APPROVER",
      "outputs": [
        {
          "internalType": "bytes32",
          "name": "",
          "type": "bytes32"
        }
      ],
      "stateMutability": "view",
      "type": "function"
    },
    {
      "inputs": [],
      "name": "REVIEWER_ROLE",
      "outputs": [
        {
          "internalType": "bytes32",
          "name": "",
          "type": "bytes32"
        }
      ],
      "stateMutability": "view",
      "type": "function"
    },
    {
      "inputs": [],
      "name": "TREASURER",
      "outputs": [
        {
          "internalType": "bytes32",
          "name": "",
          "type": "bytes32"
        }
      ],
      "stateMutability": "view",
      "type": "function"
    },
    {
      "inputs": [],
      "name": "TREASURY_POOL",
      "outputs": [
        {
          "internalType": "uint256",
          "name": "",
          "type": "uint256"
        }
      ],
      "stateMutability": "view",
      "type": "function"
    },
    {
      "inputs": [],
      "name": "TRUSTEE",
      "outputs": [
        {
          "internalType": "bytes32",
          "name": "",
          "type": "bytes32"
        }
      ],
      "stateMutability": "view",
      "type": "function"
    },
    {
      "inputs": [
        {
          "internalType": "address",
          "name": "newReviewer",
          "type": "address"
        }
      ],
      "name": "addReviewer",
      "outputs": [],
      "stateMutability": "nonpayable",
      "type": "function"
    },
    {
      "inputs": [
        {
          "internalType": "address",
          "name": "_trustee",
          "type": "address"
        }
      ],
      "name": "addTrustee",
      "outputs": [
        {
          "internalType": "bool",
          "name": "",
          "type": "bool"
        }
      ],
      "stateMutability": "nonpayable",
      "type": "function"
    },
    {
      "inputs": [
        {
          "internalType": "address",
          "name": "recipient",
          "type": "address"
        },
        {
          "internalType": "uint256",
          "name": "amount",
          "type": "uint256"
        },
        {
          "internalType": "string",
          "name": "purpose",
          "type": "string"
        }
      ],
      "name": "allocateFunds",
      "outputs": [],
      "stateMutability": "nonpayable",
      "type": "function"
    },
    {
      "inputs": [
        {
          "internalType": "address",
          "name": "",
          "type": "address"
        }
      ],
      "name": "allocations",
      "outputs": [
        {
          "internalType": "uint256",
          "name": "",
          "type": "uint256"
        }
      ],
      "stateMutability": "view",
      "type": "function"
    },
    {
      "inputs": [
        {
          "internalType": "address",
          "name": "owner",
          "type": "address"
        },
        {
          "internalType": "address",
          "name": "spender",
          "type": "address"
        }
      ],
      "name": "allowance",
      "outputs": [
        {
          "internalType": "uint256",
          "name": "",
          "type": "uint256"
        }
      ],
      "stateMutability": "view",
      "type": "function"
    },
    {
      "inputs": [
        {
          "internalType": "address",
          "name": "spender",
          "type": "address"
        },
        {
          "internalType": "uint256",
          "name": "value",
          "type": "uint256"
        }
      ],
      "name": "approve",
      "outputs": [
        {
          "internalType": "bool",
          "name": "",
          "type": "bool"
        }
      ],
      "stateMutability": "nonpayable",
      "type": "function"
    },
    {
      "inputs": [
        {
          "internalType": "uint256",
          "name": "requestId",
          "type": "uint256"
        }
      ],
      "name": "approveFundingRequest",
      "outputs": [],
      "stateMutability": "nonpayable",
      "type": "function"
    },
    {
      "inputs": [
        {
          "internalType": "uint256",
          "name": "_proposalId",
          "type": "uint256"
        }
      ],
      "name": "approveMultiSigProposal",
      "outputs": [],
      "stateMutability": "nonpayable",
      "type": "function"
    },
    {
      "inputs": [
        {
          "internalType": "address",
          "name": "account",
          "type": "address"
        }
      ],
      "name": "balanceOf",
      "outputs": [
        {
          "internalType": "uint256",
          "name": "",
          "type": "uint256"
        }
      ],
      "stateMutability": "view",
      "type": "function"
    },
    {
      "inputs": [],
      "name": "contractBalance",
      "outputs": [
        {
          "internalType": "uint256",
          "name": "",
          "type": "uint256"
        }
      ],
      "stateMutability": "view",
      "type": "function"
    },
    {
      "inputs": [],
      "name": "decimals",
      "outputs": [
        {
          "internalType": "uint8",
          "name": "",
          "type": "uint8"
        }
      ],
      "stateMutability": "view",
      "type": "function"
    },
    {
      "inputs": [
        {
          "internalType": "uint256",
          "name": "amount",
          "type": "uint256"
        }
      ],
      "name": "deposit",
      "outputs": [
        {
          "internalType": "bool",
          "name": "",
          "type": "bool"
        }
      ],
      "stateMutability": "payable",
      "type": "function"
    },
    {
      "inputs": [
        {
          "internalType": "uint256",
          "name": "",
          "type": "uint256"
        }
      ],
      "name": "fundingRequests",
      "outputs": [
        {
          "internalType": "address",
          "name": "requester",
          "type": "address"
        },
        {
          "internalType": "address",
          "name": "recipient",
          "type": "address"
        },
        {
          "internalType": "uint256",
          "name": "amount",
          "type": "uint256"
        },
        {
          "internalType": "string",
          "name": "purpose",
          "type": "string"
        },
        {
          "internalType": "uint256",
          "name": "createdAt",
          "type": "uint256"
        },
        {
          "internalType": "uint256",
          "name": "approvalCount",
          "type": "uint256"
        },
        {
          "internalType": "bool",
          "name": "executed",
          "type": "bool"
        }
      ],
      "stateMutability": "view",
      "type": "function"
    },
    {
      "inputs": [],
      "name": "getContractBalance",
      "outputs": [
        {
          "internalType": "uint256",
          "name": "",
          "type": "uint256"
        }
      ],
      "stateMutability": "view",
      "type": "function"
    },
    {
      "inputs": [
        {
          "internalType": "bytes32",
          "name": "role",
          "type": "bytes32"
        }
      ],
      "name": "getRoleAdmin",
      "outputs": [
        {
          "internalType": "bytes32",
          "name": "",
          "type": "bytes32"
        }
      ],
      "stateMutability": "view",
      "type": "function"
    },
    {
      "inputs": [],
      "name": "getTrusteesCount",
      "outputs": [
        {
          "internalType": "uint256",
          "name": "",
          "type": "uint256"
        }
      ],
      "stateMutability": "view",
      "type": "function"
    },
    {
      "inputs": [
        {
          "internalType": "bytes32",
          "name": "role",
          "type": "bytes32"
        },
        {
          "internalType": "address",
          "name": "account",
          "type": "address"
        }
      ],
      "name": "grantRole",
      "outputs": [],
      "stateMutability": "nonpayable",
      "type": "function"
    },
    {
      "inputs": [
        {
          "internalType": "bytes32",
          "name": "role",
          "type": "bytes32"
        },
        {
          "internalType": "address",
          "name": "account",
          "type": "address"
        }
      ],
      "name": "hasRole",
      "outputs": [
        {
          "internalType": "bool",
          "name": "",
          "type": "bool"
        }
      ],
      "stateMutability": "view",
      "type": "function"
    },
    {
      "inputs": [
        {
          "internalType": "address",
          "name": "",
          "type": "address"
        }
      ],
      "name": "isInReviewerPool",
      "outputs": [
        {
          "internalType": "bool",
          "name": "",
          "type": "bool"
        }
      ],
      "stateMutability": "view",
      "type": "function"
    },
    {
      "inputs": [
        {
          "internalType": "address",
          "name": "account",
          "type": "address"
        }
      ],
      "name": "isReviewer",
      "outputs": [
        {
          "internalType": "bool",
          "name": "",
          "type": "bool"
        }
      ],
      "stateMutability": "view",
      "type": "function"
    },
    {
      "inputs": [],
      "name": "marketingSpent",
      "outputs": [
        {
          "internalType": "uint256",
          "name": "",
          "type": "uint256"
        }
      ],
      "stateMutability": "view",
      "type": "function"
    },
    {
      "inputs": [
        {
          "internalType": "uint256",
          "name": "",
          "type": "uint256"
        }
      ],
      "name": "multiSigProposals",
      "outputs": [
        {
          "internalType": "uint256",
          "name": "id",
          "type": "uint256"
        },
        {
          "internalType": "address",
          "name": "proposer",
          "type": "address"
        },
        {
          "internalType": "address",
          "name": "targetContract",
          "type": "address"
        },
        {
          "internalType": "bytes",
          "name": "data",
          "type": "bytes"
        },
        {
          "internalType": "uint256",
          "name": "approvalCount",
          "type": "uint256"
        },
        {
          "internalType": "bool",
          "name": "executed",
          "type": "bool"
        }
      ],
      "stateMutability": "view",
      "type": "function"
    },
    {
      "inputs": [],
      "name": "name",
      "outputs": [
        {
          "internalType": "string",
          "name": "",
          "type": "string"
        }
      ],
      "stateMutability": "view",
      "type": "function"
    },
    {
      "inputs": [],
      "name": "nextRequestId",
      "outputs": [
        {
          "internalType": "uint256",
          "name": "",
          "type": "uint256"
        }
      ],
      "stateMutability": "view",
      "type": "function"
    },
    {
      "inputs": [
        {
          "internalType": "uint256",
          "name": "amount",
          "type": "uint256"
        },
        {
          "internalType": "address",
          "name": "recipient",
          "type": "address"
        }
      ],
      "name": "performWithdrawal",
      "outputs": [],
      "stateMutability": "nonpayable",
      "type": "function"
    },
    {
      "inputs": [
        {
          "internalType": "address",
          "name": "reviewer",
          "type": "address"
        }
      ],
      "name": "removeReviewer",
      "outputs": [],
      "stateMutability": "nonpayable",
      "type": "function"
    },
    {
      "inputs": [
        {
          "internalType": "bytes32",
          "name": "role",
          "type": "bytes32"
        },
        {
          "internalType": "address",
          "name": "callerConfirmation",
          "type": "address"
        }
      ],
      "name": "renounceRole",
      "outputs": [],
      "stateMutability": "nonpayable",
      "type": "function"
    },
    {
      "inputs": [
        {
          "internalType": "address",
          "name": "to",
          "type": "address"
        },
        {
          "internalType": "uint256",
          "name": "amount",
          "type": "uint256"
        },
        {
          "internalType": "string",
          "name": "purpose",
          "type": "string"
        }
      ],
      "name": "requestFunding",
      "outputs": [
        {
          "internalType": "uint256",
          "name": "",
          "type": "uint256"
        }
      ],
      "stateMutability": "nonpayable",
      "type": "function"
    },
    {
      "inputs": [],
      "name": "reserveFunds",
      "outputs": [
        {
          "internalType": "uint256",
          "name": "",
          "type": "uint256"
        }
      ],
      "stateMutability": "view",
      "type": "function"
    },
    {
      "inputs": [
        {
          "internalType": "uint256",
          "name": "",
          "type": "uint256"
        }
      ],
      "name": "reviewerPool",
      "outputs": [
        {
          "internalType": "address",
          "name": "",
          "type": "address"
        }
      ],
      "stateMutability": "view",
      "type": "function"
    },
    {
      "inputs": [
        {
          "internalType": "bytes32",
          "name": "role",
          "type": "bytes32"
        },
        {
          "internalType": "address",
          "name": "account",
          "type": "address"
        }
      ],
      "name": "revokeRole",
      "outputs": [],
      "stateMutability": "nonpayable",
      "type": "function"
    },
    {
      "inputs": [
        {
          "internalType": "address",
          "name": "_trustee",
          "type": "address"
        }
      ],
      "name": "revokeTrustee",
      "outputs": [
        {
          "internalType": "bool",
          "name": "",
          "type": "bool"
        }
      ],
      "stateMutability": "nonpayable",
      "type": "function"
    },
    {
      "inputs": [
        {
          "internalType": "bytes4",
          "name": "interfaceId",
          "type": "bytes4"
        }
      ],
      "name": "supportsInterface",
      "outputs": [
        {
          "internalType": "bool",
          "name": "",
          "type": "bool"
        }
      ],
      "stateMutability": "view",
      "type": "function"
    },
    {
      "inputs": [],
      "name": "symbol",
      "outputs": [
        {
          "internalType": "string",
          "name": "",
          "type": "string"
        }
      ],
      "stateMutability": "view",
      "type": "function"
    },
    {
      "inputs": [],
      "name": "totalSupply",
      "outputs": [
        {
          "internalType": "uint256",
          "name": "",
          "type": "uint256"
        }
      ],
      "stateMutability": "view",
      "type": "function"
    },
    {
      "inputs": [
        {
          "internalType": "address",
          "name": "to",
          "type": "address"
        },
        {
          "internalType": "uint256",
          "name": "value",
          "type": "uint256"
        }
      ],
      "name": "transfer",
      "outputs": [
        {
          "internalType": "bool",
          "name": "",
          "type": "bool"
        }
      ],
      "stateMutability": "nonpayable",
      "type": "function"
    },
    {
      "inputs": [
        {
          "internalType": "address",
          "name": "from",
          "type": "address"
        },
        {
          "internalType": "address",
          "name": "to",
          "type": "address"
        },
        {
          "internalType": "uint256",
          "name": "value",
          "type": "uint256"
        }
      ],
      "name": "transferFrom",
      "outputs": [
        {
          "internalType": "bool",
          "name": "",
          "type": "bool"
        }
      ],
      "stateMutability": "nonpayable",
      "type": "function"
    },
    {
      "inputs": [],
      "name": "treasuryPoolSupply",
      "outputs": [
        {
          "internalType": "uint256",
          "name": "",
          "type": "uint256"
        }
      ],
      "stateMutability": "view",
      "type": "function"
    },
    {
      "inputs": [],
      "name": "viewPoolDetails",
      "outputs": [
        {
          "internalType": "uint256",
          "name": "",
          "type": "uint256"
        },
        {
          "internalType": "uint256",
          "name": "",
          "type": "uint256"
        },
        {
          "internalType": "uint256",
          "name": "",
          "type": "uint256"
        }
      ],
      "stateMutability": "view",
      "type": "function"
    },
    {
      "inputs": [
        {
          "internalType": "uint256",
          "name": "amount",
          "type": "uint256"
        }
      ],
      "name": "withdraw",
      "outputs": [],
      "stateMutability": "nonpayable",
      "type": "function"
    }
  ],
  "bytecode": "0x608060405234801561001057600080fd5b50604051615ba4380380615ba483398181016040528101906100329190610623565b806040518060400160405280600a81526020017f4142594120544f4b454e000000000000000000000000000000000000000000008152506040518060400160405280600681526020017f414259544b4e000000000000000000000000000000000000000000000000000081525081600390816100ae919061088d565b5080600490816100be919061088d565b505050600481511015610106576040517f08c379a00000000000000000000000000000000000000000000000000000000081526004016100fd906109e2565b60405180910390fd5b6101196000801b336102e760201b60201c565b5061014a7fdf1425bae297c2f52b4f15d18a50b1fc8cb5b981a981b1d213ed3ff92681b64d336102e760201b60201c565b5060005b815181101561029e576101a17fc10c77be35aff266144ed64c26a1fa104bae2f284ae99ac4a34203454704a18583838151811061018e5761018d610a02565b5b60200260200101516102e760201b60201c565b5060068282815181106101b7576101b6610a02565b5b60200260200101519080600181540180825580915050600190039060005260206000200160009091909190916101000a81548173ffffffffffffffffffffffffffffffffffffffff021916908373ffffffffffffffffffffffffffffffffffffffff16021790555060016008600084848151811061023857610237610a02565b5b602002602001015173ffffffffffffffffffffffffffffffffffffffff1673ffffffffffffffffffffffffffffffffffffffff16815260200190815260200160002060006101000a81548160ff021916908315150217905550808060010191505061014e565b50506001600a819055506102d87f8d9233e8f9e0681d692bebdd2fd8c8863336d587e831d84b9bff9f403d549b5f336102e760201b60201c565b506001600e8190555050610a31565b60006102f983836103e560201b60201c565b6103da5760016005600085815260200190815260200160002060000160008473ffffffffffffffffffffffffffffffffffffffff1673ffffffffffffffffffffffffffffffffffffffff16815260200190815260200160002060006101000a81548160ff02191690831515021790555061037761045060201b60201c565b73ffffffffffffffffffffffffffffffffffffffff168273ffffffffffffffffffffffffffffffffffffffff16847f2f8788117e7eff1d82e926ec794901d17c78024a50270940304540a733656f0d60405160405180910390a4600190506103df565b600090505b92915050565b60006005600084815260200190815260200160002060000160008373ffffffffffffffffffffffffffffffffffffffff1673ffffffffffffffffffffffffffffffffffffffff16815260200190815260200160002060009054906101000a900460ff16905092915050565b600033905090565b6000604051905090565b600080fd5b600080fd5b600080fd5b6000601f19601f8301169050919050565b7f4e487b7100000000000000000000000000000000000000000000000000000000600052604160045260246000fd5b6104ba82610471565b810181811067ffffffffffffffff821117156104d9576104d8610482565b5b80604052505050565b60006104ec610458565b90506104f882826104b1565b919050565b600067ffffffffffffffff82111561051857610517610482565b5b602082029050602081019050919050565b600080fd5b600073ffffffffffffffffffffffffffffffffffffffff82169050919050565b60006105598261052e565b9050919050565b6105698161054e565b811461057457600080fd5b50565b60008151905061058681610560565b92915050565b600061059f61059a846104fd565b6104e2565b905080838252602082019050602084028301858111156105c2576105c1610529565b5b835b818110156105eb57806105d78882610577565b8452602084019350506020810190506105c4565b5050509392505050565b600082601f83011261060a5761060961046c565b5b815161061a84826020860161058c565b91505092915050565b60006020828403121561063957610638610462565b5b600082015167ffffffffffffffff81111561065757610656610467565b5b610663848285016105f5565b91505092915050565b600081519050919050565b7f4e487b7100000000000000000000000000000000000000000000000000000000600052602260045260246000fd5b600060028204905060018216806106be57607f821691505b6020821081036106d1576106d0610677565b5b50919050565b60008190508160005260206000209050919050565b60006020601f8301049050919050565b600082821b905092915050565b6000600883026107397fffffffffffffffffffffffffffffffffffffffffffffffffffffffffffffffff826106fc565b61074386836106fc565b95508019841693508086168417925050509392505050565b6000819050919050565b6000819050919050565b600061078a6107856107808461075b565b610765565b61075b565b9050919050565b6000819050919050565b6107a48361076f565b6107b86107b082610791565b848454610709565b825550505050565b600090565b6107cd6107c0565b6107d881848461079b565b505050565b5b818110156107fc576107f16000826107c5565b6001810190506107de565b5050565b601f82111561084157610812816106d7565b61081b846106ec565b8101602085101561082a578190505b61083e610836856106ec565b8301826107dd565b50505b505050565b600082821c905092915050565b600061086460001984600802610846565b1980831691505092915050565b600061087d8383610853565b9150826002028217905092915050565b6108968261066c565b67ffffffffffffffff8111156108af576108ae610482565b5b6108b982546106a6565b6108c4828285610800565b600060209050601f8311600181146108f757600084156108e5578287015190505b6108ef8582610871565b865550610957565b601f198416610905866106d7565b60005b8281101561092d57848901518255600182019150602085019450602081019050610908565b8683101561094a5784890151610946601f891682610853565b8355505b6001600288020188555050505b505050505050565b600082825260208201905092915050565b7f4174206c6561737420342072657669657765727320617265207265717569726560008201527f6400000000000000000000000000000000000000000000000000000000000000602082015250565b60006109cc60218361095f565b91506109d782610970565b604082019050919050565b600060208201905081810360008301526109fb816109bf565b9050919050565b7f4e487b7100000000000000000000000000000000000000000000000000000000600052603260045260246000fd5b61516480610a406000396000f3fe6080604052600436106102935760003560e01c80636f9fb98a1161015a578063a9059cbb116100c1578063d547741f1161007a578063d547741f14610aa4578063dc78ac1c14610acd578063dd62ed3e14610b0a578063ec2becdc14610b47578063fb1849ee14610b70578063fdc6258a14610b9b57610293565b8063a9059cbb14610965578063b6b55f25146109a2578063ba561486146109d2578063bad0dd6514610a15578063c491b04c14610a3e578063c9442dac14610a7b57610293565b80638ada7007116101135780638ada7007146108415780638b7afe2e1461086a57806391d148541461089557806395d89b41146108d25780639aea9620146108fd578063a217fddf1461093a57610293565b80636f9fb98a1461071d57806370a082311461074857806372a9e2321461078557806373a82b5f146107b05780638562c003146107d9578063881cf23b1461081657610293565b8063313ce567116101fe578063436e6411116101b7578063436e64111461060b57806352994e2f1461063657806352a9039c14610661578063642e6c921461069e5780636a84a985146106c95780636eedd736146106f457610293565b8063313ce567146104f457806332cb6b0c1461051f57806336568abe1461054a57806339ab4b7c146105735780633b129a561461059e57806340932bf8146105c957610293565b806319f102ec1161025057806319f102ec146103c05780631ee46f9c146103fd57806323b872dd14610428578063248a9ca3146104655780632e1a7d4d146104a25780632f2ff15d146104cb57610293565b806301ffc9a71461029857806306fdde03146102d5578063095ea7b3146103005780630a4ef5f51461033d5780630f813ae11461036a57806318160ddd14610395575b600080fd5b3480156102a457600080fd5b506102bf60048036038101906102ba9190613826565b610bd8565b6040516102cc919061386e565b60405180910390f35b3480156102e157600080fd5b506102ea610c52565b6040516102f79190613919565b60405180910390f35b34801561030c57600080fd5b50610327600480360381019061032291906139cf565b610ce4565b604051610334919061386e565b60405180910390f35b34801561034957600080fd5b50610352610d07565b60405161036193929190613a1e565b60405180910390f35b34801561037657600080fd5b5061037f610d20565b60405161038c9190613a55565b60405180910390f35b3480156103a157600080fd5b506103aa610d31565b6040516103b79190613a55565b60405180910390f35b3480156103cc57600080fd5b506103e760048036038101906103e29190613a70565b610d3b565b6040516103f49190613aac565b60405180910390f35b34801561040957600080fd5b50610412610d7a565b60405161041f9190613a55565b60405180910390f35b34801561043457600080fd5b5061044f600480360381019061044a9190613ac7565b610d80565b60405161045c919061386e565b60405180910390f35b34801561047157600080fd5b5061048c60048036038101906104879190613b50565b610daf565b6040516104999190613b8c565b60405180910390f35b3480156104ae57600080fd5b506104c960048036038101906104c49190613a70565b610dcf565b005b3480156104d757600080fd5b506104f260048036038101906104ed9190613ba7565b610f7a565b005b34801561050057600080fd5b50610509610f9c565b6040516105169190613c03565b60405180910390f35b34801561052b57600080fd5b50610534610fa5565b6040516105419190613a55565b60405180910390f35b34801561055657600080fd5b50610571600480360381019061056c9190613ba7565b610fb5565b005b34801561057f57600080fd5b50610588611030565b6040516105959190613a55565b60405180910390f35b3480156105aa57600080fd5b506105b3611036565b6040516105c09190613b8c565b60405180910390f35b3480156105d557600080fd5b506105f060048036038101906105eb9190613a70565b61105a565b60405161060296959493929190613c73565b60405180910390f35b34801561061757600080fd5b5061062061116b565b60405161062d9190613a55565b60405180910390f35b34801561064257600080fd5b5061064b611193565b6040516106589190613b8c565b60405180910390f35b34801561066d57600080fd5b5061068860048036038101906106839190613cdb565b6111b7565b6040516106959190613a55565b60405180910390f35b3480156106aa57600080fd5b506106b36111cf565b6040516106c09190613a55565b60405180910390f35b3480156106d557600080fd5b506106de6111d6565b6040516106eb9190613a55565b60405180910390f35b34801561070057600080fd5b5061071b60048036038101906107169190613d08565b6111dc565b005b34801561072957600080fd5b506107326112f4565b60405161073f9190613a55565b60405180910390f35b34801561075457600080fd5b5061076f600480360381019061076a9190613cdb565b6112fe565b60405161077c9190613a55565b60405180910390f35b34801561079157600080fd5b5061079a611346565b6040516107a79190613a55565b60405180910390f35b3480156107bc57600080fd5b506107d760048036038101906107d29190613cdb565b61134c565b005b3480156107e557600080fd5b5061080060048036038101906107fb9190613e7d565b611530565b60405161080d9190613a55565b60405180910390f35b34801561082257600080fd5b5061082b61171a565b6040516108389190613b8c565b60405180910390f35b34801561084d57600080fd5b5061086860048036038101906108639190613e7d565b61173e565b005b34801561087657600080fd5b5061087f611947565b60405161088c9190613a55565b60405180910390f35b3480156108a157600080fd5b506108bc60048036038101906108b79190613ba7565b61194d565b6040516108c9919061386e565b60405180910390f35b3480156108de57600080fd5b506108e76119b8565b6040516108f49190613919565b60405180910390f35b34801561090957600080fd5b50610924600480360381019061091f9190613cdb565b611a4a565b604051610931919061386e565b60405180910390f35b34801561094657600080fd5b5061094f611afe565b60405161095c9190613b8c565b60405180910390f35b34801561097157600080fd5b5061098c600480360381019061098791906139cf565b611b05565b604051610999919061386e565b60405180910390f35b6109bc60048036038101906109b79190613a70565b611b28565b6040516109c9919061386e565b60405180910390f35b3480156109de57600080fd5b506109f960048036038101906109f49190613a70565b611bf8565b604051610a0c9796959493929190613eec565b60405180910390f35b348015610a2157600080fd5b50610a3c6004803603810190610a379190613a70565b611d0f565b005b348015610a4a57600080fd5b50610a656004803603810190610a609190613cdb565b61200e565b604051610a72919061386e565b60405180910390f35b348015610a8757600080fd5b50610aa26004803603810190610a9d9190613cdb565b61202e565b005b348015610ab057600080fd5b50610acb6004803603810190610ac69190613ba7565b612318565b005b348015610ad957600080fd5b50610af46004803603810190610aef9190613cdb565b61233a565b604051610b01919061386e565b60405180910390f35b348015610b1657600080fd5b50610b316004803603810190610b2c9190613f62565b61245d565b604051610b3e9190613a55565b60405180910390f35b348015610b5357600080fd5b50610b6e6004803603810190610b699190613a70565b6124e4565b005b348015610b7c57600080fd5b50610b85612802565b604051610b929190613b8c565b60405180910390f35b348015610ba757600080fd5b50610bc26004803603810190610bbd9190613cdb565b612826565b604051610bcf919061386e565b60405180910390f35b60007f7965db0b000000000000000000000000000000000000000000000000000000007bffffffffffffffffffffffffffffffffffffffffffffffffffffffff1916827bffffffffffffffffffffffffffffffffffffffffffffffffffffffff19161480610c4b5750610c4a82612859565b5b9050919050565b606060038054610c6190613fd1565b80601f0160208091040260200160405190810160405280929190818152602001828054610c8d90613fd1565b8015610cda5780601f10610caf57610100808354040283529160200191610cda565b820191906000526020600020905b815481529060010190602001808311610cbd57829003601f168201915b5050505050905090565b600080610cef6128c3565b9050610cfc8185856128cb565b600191505092915050565b6000806000600d54600b54600c54925092509250909192565b6000610d2c60126128dd565b905090565b6000600254905090565b60068181548110610d4b57600080fd5b906000526020600020016000915054906101000a900473ffffffffffffffffffffffffffffffffffffffff1681565b600b5481565b600080610d8b6128c3565b9050610d988582856128f2565b610da3858585612986565b60019150509392505050565b600060056000838152602001908152602001600020600101549050919050565b7f8d9233e8f9e0681d692bebdd2fd8c8863336d587e831d84b9bff9f403d549b5f610df981612a7a565b610e01612a8e565b60008211610e44576040517f08c379a0000000000000000000000000000000000000000000000000000000008152600401610e3b90614074565b60405180910390fd5b47821115610e87576040517f08c379a0000000000000000000000000000000000000000000000000000000008152600401610e7e90614106565b60405180910390fd5b600f54821115610ecc576040517f08c379a0000000000000000000000000000000000000000000000000000000008152600401610ec390614198565b60405180910390fd5b600082604051602401610edf9190613a55565b6040516020818303038152906040527fff4d7128000000000000000000000000000000000000000000000000000000007bffffffffffffffffffffffffffffffffffffffffffffffffffffffff19166020820180517bffffffffffffffffffffffffffffffffffffffffffffffffffffffff838183161783525050505090506000610f6a3083612ad4565b90505050610f76612cc3565b5050565b610f8382610daf565b610f8c81612a7a565b610f968383612ccd565b50505050565b60006012905090565b6b204fce5e3e2502611000000081565b610fbd6128c3565b73ffffffffffffffffffffffffffffffffffffffff168173ffffffffffffffffffffffffffffffffffffffff1614611021576040517f6697b23200000000000000000000000000000000000000000000000000000000815260040160405180910390fd5b61102b8282612dbf565b505050565b600d5481565b7fc10c77be35aff266144ed64c26a1fa104bae2f284ae99ac4a34203454704a18581565b60096020528060005260406000206000915090508060000154908060010160009054906101000a900473ffffffffffffffffffffffffffffffffffffffff16908060020160009054906101000a900473ffffffffffffffffffffffffffffffffffffffff16908060030180546110cf90613fd1565b80601f01602080910402602001604051908101604052809291908181526020018280546110fb90613fd1565b80156111485780601f1061111d57610100808354040283529160200191611148565b820191906000526020600020905b81548152906001019060200180831161112b57829003601f168201915b5050505050908060040154908060050160009054906101000a900460ff16905086565b606460146b204fce5e3e2502611000000061118691906141e7565b6111909190614258565b81565b7fdf1425bae297c2f52b4f15d18a50b1fc8cb5b981a981b1d213ed3ff92681b64d81565b60106020528060005260406000206000915090505481565b62278d0081565b600e5481565b60008173ffffffffffffffffffffffffffffffffffffffff1683604051611202906142ba565b60006040518083038185875af1925050503d806000811461123f576040519150601f19603f3d011682016040523d82523d6000602084013e611244565b606091505b5050905080611288576040517f08c379a000000000000000000000000000000000000000000000000000000000815260040161127f90614341565b60405180910390fd5b82600f600082825461129a9190614361565b925050819055508173ffffffffffffffffffffffffffffffffffffffff167fef37270ffd4697852e825c7f163a2505cfbd2d7849a69b6ad9c8829d7f90484a846040516112e79190613a55565b60405180910390a2505050565b6000600f54905090565b60008060008373ffffffffffffffffffffffffffffffffffffffff1673ffffffffffffffffffffffffffffffffffffffff168152602001908152602001600020549050919050565b600c5481565b7fc10c77be35aff266144ed64c26a1fa104bae2f284ae99ac4a34203454704a18561137681612a7a565b600860008373ffffffffffffffffffffffffffffffffffffffff1673ffffffffffffffffffffffffffffffffffffffff16815260200190815260200160002060009054906101000a900460ff1615611403576040517f08c379a00000000000000000000000000000000000000000000000000000000081526004016113fa906143e1565b60405180910390fd5b61142d7fc10c77be35aff266144ed64c26a1fa104bae2f284ae99ac4a34203454704a18583612ccd565b506006829080600181540180825580915050600190039060005260206000200160009091909190916101000a81548173ffffffffffffffffffffffffffffffffffffffff021916908373ffffffffffffffffffffffffffffffffffffffff1602179055506001600860008473ffffffffffffffffffffffffffffffffffffffff1673ffffffffffffffffffffffffffffffffffffffff16815260200190815260200160002060006101000a81548160ff0219169083151502179055508173ffffffffffffffffffffffffffffffffffffffff167fe1cb5e1230cc02e62c60b81c1aa5ade512f3eac296edb28628b4cf344f47f93160405160405180910390a25050565b60008073ffffffffffffffffffffffffffffffffffffffff168473ffffffffffffffffffffffffffffffffffffffff16036115a0576040517f08c379a00000000000000000000000000000000000000000000000000000000081526004016115979061444d565b60405180910390fd5b600083116115e3576040517f08c379a00000000000000000000000000000000000000000000000000000000081526004016115da906144df565b60405180910390fd5b6000600e60008154809291906115f8906144ff565b9190505590506000601160008381526020019081526020016000209050338160000160006101000a81548173ffffffffffffffffffffffffffffffffffffffff021916908373ffffffffffffffffffffffffffffffffffffffff160217905550858160010160006101000a81548173ffffffffffffffffffffffffffffffffffffffff021916908373ffffffffffffffffffffffffffffffffffffffff160217905550848160020181905550838160030190816116b591906146f3565b504281600401819055503373ffffffffffffffffffffffffffffffffffffffff16827f9d34c57b32992f32173fb0ab1d07b286ad0b0e0bc8c5e64de3045fa3f7f8187a876040516117069190613a55565b60405180910390a381925050509392505050565b7f2a725a6d9717b4c35d5874231ea45f47f1155516e23ff17bdd946ad79687853f81565b7f8d9233e8f9e0681d692bebdd2fd8c8863336d587e831d84b9bff9f403d549b5f61176881612a7a565b611770612a8e565b600073ffffffffffffffffffffffffffffffffffffffff168473ffffffffffffffffffffffffffffffffffffffff16036117df576040517f08c379a00000000000000000000000000000000000000000000000000000000081526004016117d69061444d565b60405180910390fd5b60008311611822576040517f08c379a0000000000000000000000000000000000000000000000000000000008152600401611819906144df565b60405180910390fd5b61182c8484612eb2565b5082601060008673ffffffffffffffffffffffffffffffffffffffff1673ffffffffffffffffffffffffffffffffffffffff168152602001908152602001600020600082825461187c91906147c5565b925050819055507f0af8a758e2e143977c734d5e012b22d6550bc58df51be42389db46d9fcb2e2e08280519060200120036118cf5782600b60008282546118c391906147c5565b925050819055506118e9565b82600c60008282546118e191906147c5565b925050819055505b8373ffffffffffffffffffffffffffffffffffffffff167f375efe875f9cd6a664bdcb7c786b099b864a5ef3a60741abec505c92965932c684846040516119319291906147f9565b60405180910390a2611941612cc3565b50505050565b600f5481565b60006005600084815260200190815260200160002060000160008373ffffffffffffffffffffffffffffffffffffffff1673ffffffffffffffffffffffffffffffffffffffff16815260200190815260200160002060009054906101000a900460ff16905092915050565b6060600480546119c790613fd1565b80601f01602080910402602001604051908101604052809291908181526020018280546119f390613fd1565b8015611a405780601f10611a1557610100808354040283529160200191611a40565b820191906000526020600020905b815481529060010190602001808311611a2357829003601f168201915b5050505050905090565b60007f8d9233e8f9e0681d692bebdd2fd8c8863336d587e831d84b9bff9f403d549b5f611a7681612a7a565b611a8a83601261300e90919063ffffffff16565b611ac9576040517f08c379a0000000000000000000000000000000000000000000000000000000008152600401611ac090614875565b60405180910390fd5b611af37f2a725a6d9717b4c35d5874231ea45f47f1155516e23ff17bdd946ad79687853f84612dbf565b506001915050919050565b6000801b81565b600080611b106128c3565b9050611b1d818585612986565b600191505092915050565b6000611b32612a8e565b600034118015611b4157508134145b611b80576040517f08c379a0000000000000000000000000000000000000000000000000000000008152600401611b77906148e1565b60405180910390fd5b34600f6000828254611b9291906147c5565b925050819055503073ffffffffffffffffffffffffffffffffffffffff167f60bbf3f279de4eb569cec9565dbd645a7d269bef7d4b20083d8da32ddd6e946083604051611bdf9190613a55565b60405180910390a260019050611bf3612cc3565b919050565b60116020528060005260406000206000915090508060000160009054906101000a900473ffffffffffffffffffffffffffffffffffffffff16908060010160009054906101000a900473ffffffffffffffffffffffffffffffffffffffff1690806002015490806003018054611c6d90613fd1565b80601f0160208091040260200160405190810160405280929190818152602001828054611c9990613fd1565b8015611ce65780601f10611cbb57610100808354040283529160200191611ce6565b820191906000526020600020905b815481529060010190602001808311611cc957829003601f168201915b5050505050908060040154908060050154908060060160009054906101000a900460ff16905087565b7fdf1425bae297c2f52b4f15d18a50b1fc8cb5b981a981b1d213ed3ff92681b64d611d3981612a7a565b60006009600084815260200190815260200160002090508060050160009054906101000a900460ff1615611da2576040517f08c379a0000000000000000000000000000000000000000000000000000000008152600401611d999061494d565b60405180910390fd5b8060060160003373ffffffffffffffffffffffffffffffffffffffff1673ffffffffffffffffffffffffffffffffffffffff16815260200190815260200160002060009054906101000a900460ff1615611e31576040517f08c379a0000000000000000000000000000000000000000000000000000000008152600401611e28906149b9565b60405180910390fd5b60018160060160003373ffffffffffffffffffffffffffffffffffffffff1673ffffffffffffffffffffffffffffffffffffffff16815260200190815260200160002060006101000a81548160ff021916908315150217905550806004016000815480929190611ea0906144ff565b9190505550827f5d4ccf5f92566d140246f4ae3b9cb35dc06fff109a7748602ad77f6260fd9a6133604051611ed59190613aac565b60405180910390a260038160040154106120095760008160020160009054906101000a900473ffffffffffffffffffffffffffffffffffffffff1673ffffffffffffffffffffffffffffffffffffffff1682600301604051611f379190614a71565b6000604051808303816000865af19150503d8060008114611f74576040519150601f19603f3d011682016040523d82523d6000602084013e611f79565b606091505b5050905080611fbd576040517f08c379a0000000000000000000000000000000000000000000000000000000008152600401611fb490614ad4565b60405180910390fd5b60018260050160006101000a81548160ff021916908315150217905550837f7770356c29230b95943aec59d47ead11eb426a728bf5b57f7fd8597f3c0e29ba60405160405180910390a2505b505050565b60086020528060005260406000206000915054906101000a900460ff1681565b6000801b61203b81612a7a565b600860008373ffffffffffffffffffffffffffffffffffffffff1673ffffffffffffffffffffffffffffffffffffffff16815260200190815260200160002060009054906101000a900460ff166120c7576040517f08c379a00000000000000000000000000000000000000000000000000000000081526004016120be90614b40565b60405180910390fd5b60005b60068054905081101561224d578273ffffffffffffffffffffffffffffffffffffffff166006828154811061210257612101614b60565b5b9060005260206000200160009054906101000a900473ffffffffffffffffffffffffffffffffffffffff1673ffffffffffffffffffffffffffffffffffffffff1603612240576006600160068054905061215c9190614361565b8154811061216d5761216c614b60565b5b9060005260206000200160009054906101000a900473ffffffffffffffffffffffffffffffffffffffff16600682815481106121ac576121ab614b60565b5b9060005260206000200160006101000a81548173ffffffffffffffffffffffffffffffffffffffff021916908373ffffffffffffffffffffffffffffffffffffffff160217905550600680548061220657612205614b8f565b5b6001900381819060005260206000200160006101000a81549073ffffffffffffffffffffffffffffffffffffffff0219169055905561224d565b80806001019150506120ca565b506000600860008473ffffffffffffffffffffffffffffffffffffffff1673ffffffffffffffffffffffffffffffffffffffff16815260200190815260200160002060006101000a81548160ff0219169083151502179055506122d07fc10c77be35aff266144ed64c26a1fa104bae2f284ae99ac4a34203454704a18583612dbf565b508173ffffffffffffffffffffffffffffffffffffffff167f55dba9d79522b91b615629d5f3b10c2fad2d258f1768614f4a52e937ada0d0ba60405160405180910390a25050565b61232182610daf565b61232a81612a7a565b6123348383612dbf565b50505050565b60007f8d9233e8f9e0681d692bebdd2fd8c8863336d587e831d84b9bff9f403d549b5f61236681612a7a565b600073ffffffffffffffffffffffffffffffffffffffff168373ffffffffffffffffffffffffffffffffffffffff16036123d5576040517f08c379a00000000000000000000000000000000000000000000000000000000081526004016123cc90614c30565b60405180910390fd5b6123e983601261303e90919063ffffffff16565b612428576040517f08c379a000000000000000000000000000000000000000000000000000000000815260040161241f90614c9c565b60405180910390fd5b6124527f2a725a6d9717b4c35d5874231ea45f47f1155516e23ff17bdd946ad79687853f84612ccd565b506001915050919050565b6000600160008473ffffffffffffffffffffffffffffffffffffffff1673ffffffffffffffffffffffffffffffffffffffff16815260200190815260200160002060008373ffffffffffffffffffffffffffffffffffffffff1673ffffffffffffffffffffffffffffffffffffffff16815260200190815260200160002054905092915050565b7f2a725a6d9717b4c35d5874231ea45f47f1155516e23ff17bdd946ad79687853f61250e81612a7a565b612516612a8e565b60006011600084815260200190815260200160002090508060060160009054906101000a900460ff161561257f576040517f08c379a000000000000000000000000000000000000000000000000000000000815260040161257690614d2e565b60405180910390fd5b62278d00816004015461259291906147c5565b4211156125d4576040517f08c379a00000000000000000000000000000000000000000000000000000000081526004016125cb90614dc0565b60405180910390fd5b8060070160003373ffffffffffffffffffffffffffffffffffffffff1673ffffffffffffffffffffffffffffffffffffffff16815260200190815260200160002060009054906101000a900460ff1615612663576040517f08c379a000000000000000000000000000000000000000000000000000000000815260040161265a90614e2c565b60405180910390fd5b60018160070160003373ffffffffffffffffffffffffffffffffffffffff1673ffffffffffffffffffffffffffffffffffffffff16815260200190815260200160002060006101000a81548160ff0219169083151502179055508060050160008154809291906126d2906144ff565b91905055503373ffffffffffffffffffffffffffffffffffffffff16837f41454604bd5a8e631d0b8698c50c1f6a4adc4852a17214e5f697bd57cd20414160405160405180910390a3600261272760126128dd565b6127319190614258565b816005015411156127f55761276e8160010160009054906101000a900473ffffffffffffffffffffffffffffffffffffffff168260020154612eb2565b5060018160060160006101000a81548160ff0219169083151502179055508060010160009054906101000a900473ffffffffffffffffffffffffffffffffffffffff1673ffffffffffffffffffffffffffffffffffffffff16837fad7687aa3ebc66c074c5f5acb7bb3aac89eec1ee584373bae8346d56e7a5fa6060405160405180910390a35b506127fe612cc3565b5050565b7f8d9233e8f9e0681d692bebdd2fd8c8863336d587e831d84b9bff9f403d549b5f81565b60006128527fc10c77be35aff266144ed64c26a1fa104bae2f284ae99ac4a34203454704a1858361194d565b9050919050565b60007f01ffc9a7000000000000000000000000000000000000000000000000000000007bffffffffffffffffffffffffffffffffffffffffffffffffffffffff1916827bffffffffffffffffffffffffffffffffffffffffffffffffffffffff1916149050919050565b600033905090565b6128d8838383600161306e565b505050565b60006128eb82600001613245565b9050919050565b60006128fe848461245d565b90507fffffffffffffffffffffffffffffffffffffffffffffffffffffffffffffffff81146129805781811015612970578281836040517ffb8f41b200000000000000000000000000000000000000000000000000000000815260040161296793929190614e4c565b60405180910390fd5b61297f8484848403600061306e565b5b50505050565b600073ffffffffffffffffffffffffffffffffffffffff168373ffffffffffffffffffffffffffffffffffffffff16036129f85760006040517f96c6fd1e0000000000000000000000000000000000000000000000000000000081526004016129ef9190613aac565b60405180910390fd5b600073ffffffffffffffffffffffffffffffffffffffff168273ffffffffffffffffffffffffffffffffffffffff1603612a6a5760006040517fec442f05000000000000000000000000000000000000000000000000000000008152600401612a619190613aac565b60405180910390fd5b612a75838383613256565b505050565b612a8b81612a866128c3565b61347b565b50565b6002600a5403612aca576040517f3ee5aeb500000000000000000000000000000000000000000000000000000000815260040160405180910390fd5b6002600a81905550565b60007fdf1425bae297c2f52b4f15d18a50b1fc8cb5b981a981b1d213ed3ff92681b64d612b0081612a7a565b7fc10c77be35aff266144ed64c26a1fa104bae2f284ae99ac4a34203454704a185612b2a81612a7a565b600060076000815480929190612b3f906144ff565b9190505590506000600960008381526020019081526020016000209050818160000181905550338160010160006101000a81548173ffffffffffffffffffffffffffffffffffffffff021916908373ffffffffffffffffffffffffffffffffffffffff160217905550868160020160006101000a81548173ffffffffffffffffffffffffffffffffffffffff021916908373ffffffffffffffffffffffffffffffffffffffff16021790555085816003019081612bfc9190614ec9565b506001816004018190555060008160050160006101000a81548160ff02191690831515021790555060018160060160003373ffffffffffffffffffffffffffffffffffffffff1673ffffffffffffffffffffffffffffffffffffffff16815260200190815260200160002060006101000a81548160ff021916908315150217905550817fbcc43907be1d435f496e2233697a9a9fead2fb5639dac8459c53d7114829b8be33604051612cae9190613aac565b60405180910390a28194505050505092915050565b6001600a81905550565b6000612cd9838361194d565b612db45760016005600085815260200190815260200160002060000160008473ffffffffffffffffffffffffffffffffffffffff1673ffffffffffffffffffffffffffffffffffffffff16815260200190815260200160002060006101000a81548160ff021916908315150217905550612d516128c3565b73ffffffffffffffffffffffffffffffffffffffff168273ffffffffffffffffffffffffffffffffffffffff16847f2f8788117e7eff1d82e926ec794901d17c78024a50270940304540a733656f0d60405160405180910390a460019050612db9565b600090505b92915050565b6000612dcb838361194d565b15612ea75760006005600085815260200190815260200160002060000160008473ffffffffffffffffffffffffffffffffffffffff1673ffffffffffffffffffffffffffffffffffffffff16815260200190815260200160002060006101000a81548160ff021916908315150217905550612e446128c3565b73ffffffffffffffffffffffffffffffffffffffff168273ffffffffffffffffffffffffffffffffffffffff16847ff6391f5c32d9c69d2a47ea670b442974b53935d1edc7fd64eb21e047a839171b60405160405180910390a460019050612eac565b600090505b92915050565b6000606460146b204fce5e3e25026110000000612ecf91906141e7565b612ed99190614258565b612ee16134cc565b83612eec91906147c5565b1115612f2d576040517f08c379a0000000000000000000000000000000000000000000000000000000008152600401612f2490614fe7565b60405180910390fd5b600073ffffffffffffffffffffffffffffffffffffffff168373ffffffffffffffffffffffffffffffffffffffff1603612f9c576040517f08c379a0000000000000000000000000000000000000000000000000000000008152600401612f9390615079565b60405180910390fd5b612fa683836134d6565b5081600d6000828254612fb991906147c5565b92505081905550818373ffffffffffffffffffffffffffffffffffffffff167f9c9f15b8cfaf118c4bcce18b04dded23a21adb13f07b271947f2341874c97a2d60405160405180910390a36001905092915050565b6000613036836000018373ffffffffffffffffffffffffffffffffffffffff1660001b613591565b905092915050565b6000613066836000018373ffffffffffffffffffffffffffffffffffffffff1660001b6136a5565b905092915050565b600073ffffffffffffffffffffffffffffffffffffffff168473ffffffffffffffffffffffffffffffffffffffff16036130e05760006040517fe602df050000000000000000000000000000000000000000000000000000000081526004016130d79190613aac565b60405180910390fd5b600073ffffffffffffffffffffffffffffffffffffffff168373ffffffffffffffffffffffffffffffffffffffff16036131525760006040517f94280d620000000000000000000000000000000000000000000000000000000081526004016131499190613aac565b60405180910390fd5b81600160008673ffffffffffffffffffffffffffffffffffffffff1673ffffffffffffffffffffffffffffffffffffffff16815260200190815260200160002060008573ffffffffffffffffffffffffffffffffffffffff1673ffffffffffffffffffffffffffffffffffffffff16815260200190815260200160002081905550801561323f578273ffffffffffffffffffffffffffffffffffffffff168473ffffffffffffffffffffffffffffffffffffffff167f8c5be1e5ebec7d5bd14f71427d1e84f3dd0314c0f7b2291e5b200ac8c7c3b925846040516132369190613a55565b60405180910390a35b50505050565b600081600001805490509050919050565b600073ffffffffffffffffffffffffffffffffffffffff168373ffffffffffffffffffffffffffffffffffffffff16036132a857806002600082825461329c91906147c5565b9250508190555061337b565b60008060008573ffffffffffffffffffffffffffffffffffffffff1673ffffffffffffffffffffffffffffffffffffffff16815260200190815260200160002054905081811015613334578381836040517fe450d38c00000000000000000000000000000000000000000000000000000000815260040161332b93929190614e4c565b60405180910390fd5b8181036000808673ffffffffffffffffffffffffffffffffffffffff1673ffffffffffffffffffffffffffffffffffffffff16815260200190815260200160002081905550505b600073ffffffffffffffffffffffffffffffffffffffff168273ffffffffffffffffffffffffffffffffffffffff16036133c45780600260008282540392505081905550613411565b806000808473ffffffffffffffffffffffffffffffffffffffff1673ffffffffffffffffffffffffffffffffffffffff168152602001908152602001600020600082825401925050819055505b8173ffffffffffffffffffffffffffffffffffffffff168373ffffffffffffffffffffffffffffffffffffffff167fddf252ad1be2c89b69c2b068fc378daa952ba7f163c4a11628f55a4df523b3ef8360405161346e9190613a55565b60405180910390a3505050565b613485828261194d565b6134c85780826040517fe2517d3f0000000000000000000000000000000000000000000000000000000081526004016134bf929190615099565b60405180910390fd5b5050565b6000600d54905090565b60006b204fce5e3e250261100000006134ed610d31565b836134f891906147c5565b1115613539576040517f08c379a00000000000000000000000000000000000000000000000000000000081526004016135309061510e565b60405180910390fd5b6135438383613715565b818373ffffffffffffffffffffffffffffffffffffffff167fcda531bfd68624f13205c0a23cd4d5a7f09792cbb399603114f2b04aaa1bf5cf60405160405180910390a36001905092915050565b600080836001016000848152602001908152602001600020549050600081146136995760006001826135c39190614361565b90506000600186600001805490506135db9190614361565b905080821461364a5760008660000182815481106135fc576135fb614b60565b5b90600052602060002001549050808760000184815481106136205761361f614b60565b5b90600052602060002001819055508387600101600083815260200190815260200160002081905550505b8560000180548061365e5761365d614b8f565b5b60019003818190600052602060002001600090559055856001016000868152602001908152602001600020600090556001935050505061369f565b60009150505b92915050565b60006136b18383613797565b61370a57826000018290806001815401808255809150506001900390600052602060002001600090919091909150558260000180549050836001016000848152602001908152602001600020819055506001905061370f565b600090505b92915050565b600073ffffffffffffffffffffffffffffffffffffffff168273ffffffffffffffffffffffffffffffffffffffff16036137875760006040517fec442f0500000000000000000000000000000000000000000000000000000000815260040161377e9190613aac565b60405180910390fd5b61379360008383613256565b5050565b600080836001016000848152602001908152602001600020541415905092915050565b6000604051905090565b600080fd5b600080fd5b60007fffffffff0000000000000000000000000000000000000000000000000000000082169050919050565b613803816137ce565b811461380e57600080fd5b50565b600081359050613820816137fa565b92915050565b60006020828403121561383c5761383b6137c4565b5b600061384a84828501613811565b91505092915050565b60008115159050919050565b61386881613853565b82525050565b6000602082019050613883600083018461385f565b92915050565b600081519050919050565b600082825260208201905092915050565b60005b838110156138c35780820151818401526020810190506138a8565b60008484015250505050565b6000601f19601f8301169050919050565b60006138eb82613889565b6138f58185613894565b93506139058185602086016138a5565b61390e816138cf565b840191505092915050565b6000602082019050818103600083015261393381846138e0565b905092915050565b600073ffffffffffffffffffffffffffffffffffffffff82169050919050565b60006139668261393b565b9050919050565b6139768161395b565b811461398157600080fd5b50565b6000813590506139938161396d565b92915050565b6000819050919050565b6139ac81613999565b81146139b757600080fd5b50565b6000813590506139c9816139a3565b92915050565b600080604083850312156139e6576139e56137c4565b5b60006139f485828601613984565b9250506020613a05858286016139ba565b9150509250929050565b613a1881613999565b82525050565b6000606082019050613a336000830186613a0f565b613a406020830185613a0f565b613a4d6040830184613a0f565b949350505050565b6000602082019050613a6a6000830184613a0f565b92915050565b600060208284031215613a8657613a856137c4565b5b6000613a94848285016139ba565b91505092915050565b613aa68161395b565b82525050565b6000602082019050613ac16000830184613a9d565b92915050565b600080600060608486031215613ae057613adf6137c4565b5b6000613aee86828701613984565b9350506020613aff86828701613984565b9250506040613b10868287016139ba565b9150509250925092565b6000819050919050565b613b2d81613b1a565b8114613b3857600080fd5b50565b600081359050613b4a81613b24565b92915050565b600060208284031215613b6657613b656137c4565b5b6000613b7484828501613b3b565b91505092915050565b613b8681613b1a565b82525050565b6000602082019050613ba16000830184613b7d565b92915050565b60008060408385031215613bbe57613bbd6137c4565b5b6000613bcc85828601613b3b565b9250506020613bdd85828601613984565b9150509250929050565b600060ff82169050919050565b613bfd81613be7565b82525050565b6000602082019050613c186000830184613bf4565b92915050565b600081519050919050565b600082825260208201905092915050565b6000613c4582613c1e565b613c4f8185613c29565b9350613c5f8185602086016138a5565b613c68816138cf565b840191505092915050565b600060c082019050613c886000830189613a0f565b613c956020830188613a9d565b613ca26040830187613a9d565b8181036060830152613cb48186613c3a565b9050613cc36080830185613a0f565b613cd060a083018461385f565b979650505050505050565b600060208284031215613cf157613cf06137c4565b5b6000613cff84828501613984565b91505092915050565b60008060408385031215613d1f57613d1e6137c4565b5b6000613d2d858286016139ba565b9250506020613d3e85828601613984565b9150509250929050565b600080fd5b600080fd5b7f4e487b7100000000000000000000000000000000000000000000000000000000600052604160045260246000fd5b613d8a826138cf565b810181811067ffffffffffffffff82111715613da957613da8613d52565b5b80604052505050565b6000613dbc6137ba565b9050613dc88282613d81565b919050565b600067ffffffffffffffff821115613de857613de7613d52565b5b613df1826138cf565b9050602081019050919050565b82818337600083830152505050565b6000613e20613e1b84613dcd565b613db2565b905082815260208101848484011115613e3c57613e3b613d4d565b5b613e47848285613dfe565b509392505050565b600082601f830112613e6457613e63613d48565b5b8135613e74848260208601613e0d565b91505092915050565b600080600060608486031215613e9657613e956137c4565b5b6000613ea486828701613984565b9350506020613eb5868287016139ba565b925050604084013567ffffffffffffffff811115613ed657613ed56137c9565b5b613ee286828701613e4f565b9150509250925092565b600060e082019050613f01600083018a613a9d565b613f0e6020830189613a9d565b613f1b6040830188613a0f565b8181036060830152613f2d81876138e0565b9050613f3c6080830186613a0f565b613f4960a0830185613a0f565b613f5660c083018461385f565b98975050505050505050565b60008060408385031215613f7957613f786137c4565b5b6000613f8785828601613984565b9250506020613f9885828601613984565b9150509250929050565b7f4e487b7100000000000000000000000000000000000000000000000000000000600052602260045260246000fd5b60006002820490506001821680613fe957607f821691505b602082108103613ffc57613ffb613fa2565b5b50919050565b7f54726561737572793a205769746864726177616c20616d6f756e74206d75737460008201527f2062652067726561746572207468616e20300000000000000000000000000000602082015250565b600061405e603283613894565b915061406982614002565b604082019050919050565b6000602082019050818103600083015261408d81614051565b9050919050565b7f54726561737572793a20496e73756666696369656e7420636f6e74726163742060008201527f62616c616e636500000000000000000000000000000000000000000000000000602082015250565b60006140f0602783613894565b91506140fb82614094565b604082019050919050565b6000602082019050818103600083015261411f816140e3565b9050919050565b7f54726561737572793a20496e73756666696369656e7420747261636b6564206260008201527f616c616e63650000000000000000000000000000000000000000000000000000602082015250565b6000614182602683613894565b915061418d82614126565b604082019050919050565b600060208201905081810360008301526141b181614175565b9050919050565b7f4e487b7100000000000000000000000000000000000000000000000000000000600052601160045260246000fd5b60006141f282613999565b91506141fd83613999565b925082820261420b81613999565b91508282048414831517614222576142216141b8565b5b5092915050565b7f4e487b7100000000000000000000000000000000000000000000000000000000600052601260045260246000fd5b600061426382613999565b915061426e83613999565b92508261427e5761427d614229565b5b828204905092915050565b600081905092915050565b50565b60006142a4600083614289565b91506142af82614294565b600082019050919050565b60006142c582614297565b9150819050919050565b7f54726561737572793a205769746864726177616c207472616e7366657220666160008201527f696c656400000000000000000000000000000000000000000000000000000000602082015250565b600061432b602483613894565b9150614336826142cf565b604082019050919050565b6000602082019050818103600083015261435a8161431e565b9050919050565b600061436c82613999565b915061437783613999565b925082820390508181111561438f5761438e6141b8565b5b92915050565b7f416c726561647920696e20726576696577657220706f6f6c0000000000000000600082015250565b60006143cb601883613894565b91506143d682614395565b602082019050919050565b600060208201905081810360008301526143fa816143be565b9050919050565b7f54726561737572793a20496e76616c696420726563697069656e740000000000600082015250565b6000614437601b83613894565b915061444282614401565b602082019050919050565b600060208201905081810360008301526144668161442a565b9050919050565b7f54726561737572793a20416d6f756e74206d757374206265206772656174657260008201527f207468616e203000000000000000000000000000000000000000000000000000602082015250565b60006144c9602783613894565b91506144d48261446d565b604082019050919050565b600060208201905081810360008301526144f8816144bc565b9050919050565b600061450a82613999565b91507fffffffffffffffffffffffffffffffffffffffffffffffffffffffffffffffff820361453c5761453b6141b8565b5b600182019050919050565b60008190508160005260206000209050919050565b60006020601f8301049050919050565b600082821b905092915050565b6000600883026145a97fffffffffffffffffffffffffffffffffffffffffffffffffffffffffffffffff8261456c565b6145b3868361456c565b95508019841693508086168417925050509392505050565b6000819050919050565b60006145f06145eb6145e684613999565b6145cb565b613999565b9050919050565b6000819050919050565b61460a836145d5565b61461e614616826145f7565b848454614579565b825550505050565b600090565b614633614626565b61463e818484614601565b505050565b5b818110156146625761465760008261462b565b600181019050614644565b5050565b601f8211156146a75761467881614547565b6146818461455c565b81016020851015614690578190505b6146a461469c8561455c565b830182614643565b50505b505050565b600082821c905092915050565b60006146ca600019846008026146ac565b1980831691505092915050565b60006146e383836146b9565b9150826002028217905092915050565b6146fc82613889565b67ffffffffffffffff81111561471557614714613d52565b5b61471f8254613fd1565b61472a828285614666565b600060209050601f83116001811461475d576000841561474b578287015190505b61475585826146d7565b8655506147bd565b601f19841661476b86614547565b60005b828110156147935784890151825560018201915060208501945060208101905061476e565b868310156147b057848901516147ac601f8916826146b9565b8355505b6001600288020188555050505b505050505050565b60006147d082613999565b91506147db83613999565b92508282019050808211156147f3576147f26141b8565b5b92915050565b600060408201905061480e6000830185613a0f565b818103602083015261482081846138e0565b90509392505050565b7f54726561737572793a2054727573746565206e6f7420666f756e640000000000600082015250565b600061485f601b83613894565b915061486a82614829565b602082019050919050565b6000602082019050818103600083015261488e81614852565b9050919050565b7f54726561737572793a20496e76616c6964206465706f73697420616d6f756e74600082015250565b60006148cb602083613894565b91506148d682614895565b602082019050919050565b600060208201905081810360008301526148fa816148be565b9050919050565b7f50726f706f73616c20616c726561647920657865637574656400000000000000600082015250565b6000614937601983613894565b915061494282614901565b602082019050919050565b600060208201905081810360008301526149668161492a565b9050919050565b7f416c726561647920617070726f76656400000000000000000000000000000000600082015250565b60006149a3601083613894565b91506149ae8261496d565b602082019050919050565b600060208201905081810360008301526149d281614996565b9050919050565b60008190508160005260206000209050919050565b600081546149fb81613fd1565b614a058186614289565b94506001821660008114614a205760018114614a3557614a68565b60ff1983168652811515820286019350614a68565b614a3e856149d9565b60005b83811015614a6057815481890152600182019150602081019050614a41565b838801955050505b50505092915050565b6000614a7d82846149ee565b915081905092915050565b7f50726f706f73616c20657865637574696f6e206661696c656400000000000000600082015250565b6000614abe601983613894565b9150614ac982614a88565b602082019050919050565b60006020820190508181036000830152614aed81614ab1565b9050919050565b7f4e6f7420696e20726576696577657220706f6f6c000000000000000000000000600082015250565b6000614b2a601483613894565b9150614b3582614af4565b602082019050919050565b60006020820190508181036000830152614b5981614b1d565b9050919050565b7f4e487b7100000000000000000000000000000000000000000000000000000000600052603260045260246000fd5b7f4e487b7100000000000000000000000000000000000000000000000000000000600052603160045260246000fd5b7f54726561737572793a20496e76616c696420747275737465652061646472657360008201527f7300000000000000000000000000000000000000000000000000000000000000602082015250565b6000614c1a602183613894565b9150614c2582614bbe565b604082019050919050565b60006020820190508181036000830152614c4981614c0d565b9050919050565b7f54726561737572793a205472757374656520616c726561647920657869737473600082015250565b6000614c86602083613894565b9150614c9182614c50565b602082019050919050565b60006020820190508181036000830152614cb581614c79565b9050919050565b7f54726561737572793a205265717565737420616c72656164792065786563757460008201527f6564000000000000000000000000000000000000000000000000000000000000602082015250565b6000614d18602283613894565b9150614d2382614cbc565b604082019050919050565b60006020820190508181036000830152614d4781614d0b565b9050919050565b7f54726561737572793a2046756e64696e6720726571756573742065787069726560008201527f6400000000000000000000000000000000000000000000000000000000000000602082015250565b6000614daa602183613894565b9150614db582614d4e565b604082019050919050565b60006020820190508181036000830152614dd981614d9d565b9050919050565b7f54726561737572793a20416c726561647920766f746564000000000000000000600082015250565b6000614e16601783613894565b9150614e2182614de0565b602082019050919050565b60006020820190508181036000830152614e4581614e09565b9050919050565b6000606082019050614e616000830186613a9d565b614e6e6020830185613a0f565b614e7b6040830184613a0f565b949350505050565b601f821115614ec457614e95816149d9565b614e9e8461455c565b81016020851015614ead578190505b614ec1614eb98561455c565b830182614643565b50505b505050565b614ed282613c1e565b67ffffffffffffffff811115614eeb57614eea613d52565b5b614ef58254613fd1565b614f00828285614e83565b600060209050601f831160018114614f335760008415614f21578287015190505b614f2b85826146d7565b865550614f93565b601f198416614f41866149d9565b60005b82811015614f6957848901518255600182019150602085019450602081019050614f44565b86831015614f865784890151614f82601f8916826146b9565b8355505b6001600288020188555050505b505050505050565b7f54726561737572793a204d696e74696e67206c696d6974206578636565646564600082015250565b6000614fd1602083613894565b9150614fdc82614f9b565b602082019050919050565b6000602082019050818103600083015261500081614fc4565b9050919050565b7f54726561737572793a2043616e6e6f74206d696e7420746f207a65726f20616460008201527f6472657373000000000000000000000000000000000000000000000000000000602082015250565b6000615063602583613894565b915061506e82615007565b604082019050919050565b6000602082019050818103600083015261509281615056565b9050919050565b60006040820190506150ae6000830185613a9d565b6150bb6020830184613b7d565b9392505050565b7f4c696d6974204578636565646564210000000000000000000000000000000000600082015250565b60006150f8600f83613894565b9150615103826150c2565b602082019050919050565b60006020820190508181036000830152615127816150eb565b905091905056fea26469706673582212201b12518fa328899de1f54ed644f79f29ce2a3c34a8ffbc3129299f2e9b8c01bc64736f6c634300081b0033",
  "linkReferences": {},
  "deployedLinkReferences": {}
}