{
  "_format": "hh-sol-artifact-1",
  "contractName": "EcosystemDiamond",
  "sourceName": "contracts/EcosystemDiamond.sol",
  "abi": [
    {
      "inputs": [
        {
          "components": [
            {
              "internalType": "address",
              "name": "facetAddress",
              "type": "address"
            },
            {
              "internalType": "enum IDiamondCut.FacetCutAction",
              "name": "action",
              "type": "uint8"
            },
            {
              "internalType": "bytes4[]",
              "name": "functionSelectors",
              "type": "bytes4[]"
            }
          ],
          "internalType": "struct IDiamondCut.FacetCut[]",
          "name": "_diamondCut",
          "type": "tuple[]"
        },
        {
          "components": [
            {
              "internalType": "address",
              "name": "owner",
              "type": "address"
            },
            {
              "internalType": "address",
              "name": "init",
              "type": "address"
            },
            {
              "internalType": "bytes",
              "name": "initCalldata",
              "type": "bytes"
            }
          ],
          "internalType": "struct DiamondArgs",
          "name": "_args",
          "type": "tuple"
        },
        {
          "internalType": "address[]",
          "name": "_reviewers",
          "type": "address[]"
        },
        {
          "internalType": "address",
          "name": "_owner",
          "type": "address"
        }
      ],
      "stateMutability": "nonpayable",
      "type": "constructor"
    },
    {
      "inputs": [],
      "name": "AccessControlBadConfirmation",
      "type": "error"
    },
    {
      "inputs": [
        {
          "internalType": "address",
          "name": "account",
          "type": "address"
        },
        {
          "internalType": "bytes32",
          "name": "neededRole",
          "type": "bytes32"
        }
      ],
      "name": "AccessControlUnauthorizedAccount",
      "type": "error"
    },
    {
      "inputs": [
        {
          "internalType": "bytes4",
          "name": "_selector",
          "type": "bytes4"
        }
      ],
      "name": "CannotRemoveFunctionThatDoesNotExist",
      "type": "error"
    },
    {
      "inputs": [
        {
          "internalType": "bytes4",
          "name": "_selector",
          "type": "bytes4"
        }
      ],
      "name": "CannotRemoveImmutableFunction",
      "type": "error"
    },
    {
      "inputs": [
        {
          "internalType": "bytes4",
          "name": "_selector",
          "type": "bytes4"
        }
      ],
      "name": "CannotReplaceFunctionThatDoesNotExists",
      "type": "error"
    },
    {
      "inputs": [
        {
          "internalType": "bytes4",
          "name": "_selector",
          "type": "bytes4"
        }
      ],
      "name": "CannotReplaceFunctionWithTheSameFunctionFromTheSameFacet",
      "type": "error"
    },
    {
      "inputs": [
        {
          "internalType": "bytes4[]",
          "name": "_selectors",
          "type": "bytes4[]"
        }
      ],
      "name": "CannotReplaceFunctionsFromFacetWithZeroAddress",
      "type": "error"
    },
    {
      "inputs": [
        {
          "internalType": "bytes4",
          "name": "_selector",
          "type": "bytes4"
        }
      ],
      "name": "CannotReplaceImmutableFunction",
      "type": "error"
    },
    {
      "inputs": [
        {
          "internalType": "address",
          "name": "spender",
          "type": "address"
        },
        {
          "internalType": "uint256",
          "name": "allowance",
          "type": "uint256"
        },
        {
          "internalType": "uint256",
          "name": "needed",
          "type": "uint256"
        }
      ],
      "name": "ERC20InsufficientAllowance",
      "type": "error"
    },
    {
      "inputs": [
        {
          "internalType": "address",
          "name": "sender",
          "type": "address"
        },
        {
          "internalType": "uint256",
          "name": "balance",
          "type": "uint256"
        },
        {
          "internalType": "uint256",
          "name": "needed",
          "type": "uint256"
        }
      ],
      "name": "ERC20InsufficientBalance",
      "type": "error"
    },
    {
      "inputs": [
        {
          "internalType": "address",
          "name": "approver",
          "type": "address"
        }
      ],
      "name": "ERC20InvalidApprover",
      "type": "error"
    },
    {
      "inputs": [
        {
          "internalType": "address",
          "name": "receiver",
          "type": "address"
        }
      ],
      "name": "ERC20InvalidReceiver",
      "type": "error"
    },
    {
      "inputs": [
        {
          "internalType": "address",
          "name": "sender",
          "type": "address"
        }
      ],
      "name": "ERC20InvalidSender",
      "type": "error"
    },
    {
      "inputs": [
        {
          "internalType": "address",
          "name": "spender",
          "type": "address"
        }
      ],
      "name": "ERC20InvalidSpender",
      "type": "error"
    },
    {
      "inputs": [
        {
          "internalType": "bytes4",
          "name": "_functionSelector",
          "type": "bytes4"
        }
      ],
      "name": "FunctionNotFound",
      "type": "error"
    },
    {
      "inputs": [
        {
          "internalType": "uint8",
          "name": "_action",
          "type": "uint8"
        }
      ],
      "name": "IncorrectFacetCutAction",
      "type": "error"
    },
    {
      "inputs": [
        {
          "internalType": "address",
          "name": "_facetAddress",
          "type": "address"
        }
      ],
      "name": "NoSelectorsProvidedForFacetForCut",
      "type": "error"
    },
    {
      "inputs": [
        {
          "internalType": "address",
          "name": "_facetAddress",
          "type": "address"
        }
      ],
      "name": "RemoveFacetAddressMustBeZeroAddress",
      "type": "error"
    },
    {
      "anonymous": false,
      "inputs": [
        {
          "indexed": true,
          "internalType": "address",
          "name": "owner",
          "type": "address"
        },
        {
          "indexed": true,
          "internalType": "address",
          "name": "spender",
          "type": "address"
        },
        {
          "indexed": false,
          "internalType": "uint256",
          "name": "value",
          "type": "uint256"
        }
      ],
      "name": "Approval",
      "type": "event"
    },
    {
      "anonymous": false,
      "inputs": [
        {
          "indexed": true,
          "internalType": "address",
          "name": "_account",
          "type": "address"
        },
        {
          "indexed": false,
          "internalType": "uint256",
          "name": "_amount",
          "type": "uint256"
        }
      ],
      "name": "BurnSuccess",
      "type": "event"
    },
    {
      "anonymous": false,
      "inputs": [
        {
          "components": [
            {
              "internalType": "address",
              "name": "facetAddress",
              "type": "address"
            },
            {
              "internalType": "enum IDiamondCut.FacetCutAction",
              "name": "action",
              "type": "uint8"
            },
            {
              "internalType": "bytes4[]",
              "name": "functionSelectors",
              "type": "bytes4[]"
            }
          ],
          "indexed": false,
          "internalType": "struct IDiamondCut.FacetCut[]",
          "name": "_diamondCut",
          "type": "tuple[]"
        },
        {
          "indexed": false,
          "internalType": "address",
          "name": "_init",
          "type": "address"
        },
        {
          "indexed": false,
          "internalType": "bytes",
          "name": "_calldata",
          "type": "bytes"
        }
      ],
      "name": "DiamondCut",
      "type": "event"
    },
    {
      "anonymous": false,
      "inputs": [
        {
          "indexed": true,
          "internalType": "address",
          "name": "_to",
          "type": "address"
        },
        {
          "indexed": true,
          "internalType": "uint256",
          "name": "_amount",
          "type": "uint256"
        }
      ],
      "name": "MintSuccess",
      "type": "event"
    },
    {
      "anonymous": false,
      "inputs": [
        {
          "indexed": true,
          "internalType": "uint256",
          "name": "proposalId",
          "type": "uint256"
        },
        {
          "indexed": false,
          "internalType": "address",
          "name": "approver",
          "type": "address"
        }
      ],
      "name": "MultiSigProposalApproved",
      "type": "event"
    },
    {
      "anonymous": false,
      "inputs": [
        {
          "indexed": true,
          "internalType": "uint256",
          "name": "proposalId",
          "type": "uint256"
        },
        {
          "indexed": false,
          "internalType": "address",
          "name": "proposer",
          "type": "address"
        }
      ],
      "name": "MultiSigProposalCreated",
      "type": "event"
    },
    {
      "anonymous": false,
      "inputs": [
        {
          "indexed": true,
          "internalType": "uint256",
          "name": "proposalId",
          "type": "uint256"
        }
      ],
      "name": "MultiSigProposalExecuted",
      "type": "event"
    },
    {
      "anonymous": false,
      "inputs": [
        {
          "indexed": true,
          "internalType": "address",
          "name": "reviewer",
          "type": "address"
        }
      ],
      "name": "ReviewerAddedToPool",
      "type": "event"
    },
    {
      "anonymous": false,
      "inputs": [
        {
          "indexed": true,
          "internalType": "address",
          "name": "reviewer",
          "type": "address"
        }
      ],
      "name": "ReviewerRemovedFromPool",
      "type": "event"
    },
    {
      "anonymous": false,
      "inputs": [
        {
          "indexed": true,
          "internalType": "bytes32",
          "name": "role",
          "type": "bytes32"
        },
        {
          "indexed": true,
          "internalType": "bytes32",
          "name": "previousAdminRole",
          "type": "bytes32"
        },
        {
          "indexed": true,
          "internalType": "bytes32",
          "name": "newAdminRole",
          "type": "bytes32"
        }
      ],
      "name": "RoleAdminChanged",
      "type": "event"
    },
    {
      "anonymous": false,
      "inputs": [
        {
          "indexed": true,
          "internalType": "bytes32",
          "name": "role",
          "type": "bytes32"
        },
        {
          "indexed": true,
          "internalType": "address",
          "name": "account",
          "type": "address"
        },
        {
          "indexed": true,
          "internalType": "address",
          "name": "sender",
          "type": "address"
        }
      ],
      "name": "RoleGranted",
      "type": "event"
    },
    {
      "anonymous": false,
      "inputs": [
        {
          "indexed": true,
          "internalType": "bytes32",
          "name": "role",
          "type": "bytes32"
        },
        {
          "indexed": true,
          "internalType": "address",
          "name": "account",
          "type": "address"
        },
        {
          "indexed": true,
          "internalType": "address",
          "name": "sender",
          "type": "address"
        }
      ],
      "name": "RoleRevoked",
      "type": "event"
    },
    {
      "anonymous": false,
      "inputs": [
        {
          "indexed": true,
          "internalType": "address",
          "name": "from",
          "type": "address"
        },
        {
          "indexed": true,
          "internalType": "address",
          "name": "to",
          "type": "address"
        },
        {
          "indexed": false,
          "internalType": "uint256",
          "name": "value",
          "type": "uint256"
        }
      ],
      "name": "Transfer",
      "type": "event"
    },
    {
      "stateMutability": "payable",
      "type": "fallback"
    },
    {
      "inputs": [],
      "name": "DEFAULT_ADMIN_ROLE",
      "outputs": [
        {
          "internalType": "bytes32",
          "name": "",
          "type": "bytes32"
        }
      ],
      "stateMutability": "view",
      "type": "function"
    },
    {
      "inputs": [],
      "name": "MAX_SUPPLY",
      "outputs": [
        {
          "internalType": "uint256",
          "name": "",
          "type": "uint256"
        }
      ],
      "stateMutability": "view",
      "type": "function"
    },
    {
      "inputs": [],
      "name": "MULTISIG_APPROVER",
      "outputs": [
        {
          "internalType": "bytes32",
          "name": "",
          "type": "bytes32"
        }
      ],
      "stateMutability": "view",
      "type": "function"
    },
    {
      "inputs": [],
      "name": "REVIEWER_ROLE",
      "outputs": [
        {
          "internalType": "bytes32",
          "name": "",
          "type": "bytes32"
        }
      ],
      "stateMutability": "view",
      "type": "function"
    },
    {
      "inputs": [
        {
          "internalType": "address",
          "name": "newApprover",
          "type": "address"
        }
      ],
      "name": "addMultiSigApprover",
      "outputs": [],
      "stateMutability": "nonpayable",
      "type": "function"
    },
    {
      "inputs": [
        {
          "internalType": "address",
          "name": "newReviewer",
          "type": "address"
        }
      ],
      "name": "addReviewer",
      "outputs": [],
      "stateMutability": "nonpayable",
      "type": "function"
    },
    {
      "inputs": [
        {
          "internalType": "address",
          "name": "owner",
          "type": "address"
        },
        {
          "internalType": "address",
          "name": "spender",
          "type": "address"
        }
      ],
      "name": "allowance",
      "outputs": [
        {
          "internalType": "uint256",
          "name": "",
          "type": "uint256"
        }
      ],
      "stateMutability": "view",
      "type": "function"
    },
    {
      "inputs": [
        {
          "internalType": "address",
          "name": "spender",
          "type": "address"
        },
        {
          "internalType": "uint256",
          "name": "value",
          "type": "uint256"
        }
      ],
      "name": "approve",
      "outputs": [
        {
          "internalType": "bool",
          "name": "",
          "type": "bool"
        }
      ],
      "stateMutability": "nonpayable",
      "type": "function"
    },
    {
      "inputs": [
        {
          "internalType": "uint256",
          "name": "_proposalId",
          "type": "uint256"
        }
      ],
      "name": "approveMultiSigProposal",
      "outputs": [],
      "stateMutability": "nonpayable",
      "type": "function"
    },
    {
      "inputs": [
        {
          "internalType": "address",
          "name": "account",
          "type": "address"
        }
      ],
      "name": "balanceOf",
      "outputs": [
        {
          "internalType": "uint256",
          "name": "",
          "type": "uint256"
        }
      ],
      "stateMutability": "view",
      "type": "function"
    },
    {
      "inputs": [
        {
          "internalType": "address",
          "name": "account",
          "type": "address"
        },
        {
          "internalType": "uint256",
          "name": "amount",
          "type": "uint256"
        }
      ],
      "name": "burn",
      "outputs": [],
      "stateMutability": "nonpayable",
      "type": "function"
    },
    {
      "inputs": [],
      "name": "decimals",
      "outputs": [
        {
          "internalType": "uint8",
          "name": "",
          "type": "uint8"
        }
      ],
      "stateMutability": "view",
      "type": "function"
    },
    {
      "inputs": [
        {
          "internalType": "bytes32",
          "name": "role",
          "type": "bytes32"
        }
      ],
      "name": "getRoleAdmin",
      "outputs": [
        {
          "internalType": "bytes32",
          "name": "",
          "type": "bytes32"
        }
      ],
      "stateMutability": "view",
      "type": "function"
    },
    {
      "inputs": [
        {
          "internalType": "bytes32",
          "name": "role",
          "type": "bytes32"
        },
        {
          "internalType": "address",
          "name": "account",
          "type": "address"
        }
      ],
      "name": "grantRole",
      "outputs": [],
      "stateMutability": "nonpayable",
      "type": "function"
    },
    {
      "inputs": [
        {
          "internalType": "bytes32",
          "name": "role",
          "type": "bytes32"
        },
        {
          "internalType": "address",
          "name": "account",
          "type": "address"
        }
      ],
      "name": "hasRole",
      "outputs": [
        {
          "internalType": "bool",
          "name": "",
          "type": "bool"
        }
      ],
      "stateMutability": "view",
      "type": "function"
    },
    {
      "inputs": [
        {
          "internalType": "address",
          "name": "",
          "type": "address"
        }
      ],
      "name": "isInReviewerPool",
      "outputs": [
        {
          "internalType": "bool",
          "name": "",
          "type": "bool"
        }
      ],
      "stateMutability": "view",
      "type": "function"
    },
    {
      "inputs": [
        {
          "internalType": "address",
          "name": "account",
          "type": "address"
        }
      ],
      "name": "isReviewer",
      "outputs": [
        {
          "internalType": "bool",
          "name": "",
          "type": "bool"
        }
      ],
      "stateMutability": "view",
      "type": "function"
    },
    {
      "inputs": [
        {
          "internalType": "address",
          "name": "to",
          "type": "address"
        },
        {
          "internalType": "uint256",
          "name": "amount",
          "type": "uint256"
        }
      ],
      "name": "mintToken",
      "outputs": [
        {
          "internalType": "bool",
          "name": "",
          "type": "bool"
        }
      ],
      "stateMutability": "nonpayable",
      "type": "function"
    },
    {
      "inputs": [
        {
          "internalType": "uint256",
          "name": "",
          "type": "uint256"
        }
      ],
      "name": "multiSigProposals",
      "outputs": [
        {
          "internalType": "uint256",
          "name": "id",
          "type": "uint256"
        },
        {
          "internalType": "address",
          "name": "proposer",
          "type": "address"
        },
        {
          "internalType": "address",
          "name": "targetContract",
          "type": "address"
        },
        {
          "internalType": "bytes",
          "name": "data",
          "type": "bytes"
        },
        {
          "internalType": "uint256",
          "name": "approvalCount",
          "type": "uint256"
        },
        {
          "internalType": "bool",
          "name": "executed",
          "type": "bool"
        }
      ],
      "stateMutability": "view",
      "type": "function"
    },
    {
      "inputs": [],
      "name": "name",
      "outputs": [
        {
          "internalType": "string",
          "name": "",
          "type": "string"
        }
      ],
      "stateMutability": "view",
      "type": "function"
    },
    {
      "inputs": [
        {
          "internalType": "address",
          "name": "approver",
          "type": "address"
        }
      ],
      "name": "removeMultiSigApprover",
      "outputs": [],
      "stateMutability": "nonpayable",
      "type": "function"
    },
    {
      "inputs": [
        {
          "internalType": "address",
          "name": "reviewer",
          "type": "address"
        }
      ],
      "name": "removeReviewer",
      "outputs": [],
      "stateMutability": "nonpayable",
      "type": "function"
    },
    {
      "inputs": [
        {
          "internalType": "bytes32",
          "name": "role",
          "type": "bytes32"
        },
        {
          "internalType": "address",
          "name": "callerConfirmation",
          "type": "address"
        }
      ],
      "name": "renounceRole",
      "outputs": [],
      "stateMutability": "nonpayable",
      "type": "function"
    },
    {
      "inputs": [
        {
          "internalType": "uint256",
          "name": "",
          "type": "uint256"
        }
      ],
      "name": "reviewerPool",
      "outputs": [
        {
          "internalType": "address",
          "name": "",
          "type": "address"
        }
      ],
      "stateMutability": "view",
      "type": "function"
    },
    {
      "inputs": [
        {
          "internalType": "bytes32",
          "name": "role",
          "type": "bytes32"
        },
        {
          "internalType": "address",
          "name": "account",
          "type": "address"
        }
      ],
      "name": "revokeRole",
      "outputs": [],
      "stateMutability": "nonpayable",
      "type": "function"
    },
    {
      "inputs": [
        {
          "internalType": "bytes4",
          "name": "interfaceId",
          "type": "bytes4"
        }
      ],
      "name": "supportsInterface",
      "outputs": [
        {
          "internalType": "bool",
          "name": "",
          "type": "bool"
        }
      ],
      "stateMutability": "view",
      "type": "function"
    },
    {
      "inputs": [],
      "name": "symbol",
      "outputs": [
        {
          "internalType": "string",
          "name": "",
          "type": "string"
        }
      ],
      "stateMutability": "view",
      "type": "function"
    },
    {
      "inputs": [],
      "name": "totalSupply",
      "outputs": [
        {
          "internalType": "uint256",
          "name": "",
          "type": "uint256"
        }
      ],
      "stateMutability": "view",
      "type": "function"
    },
    {
      "inputs": [
        {
          "internalType": "address",
          "name": "to",
          "type": "address"
        },
        {
          "internalType": "uint256",
          "name": "value",
          "type": "uint256"
        }
      ],
      "name": "transfer",
      "outputs": [
        {
          "internalType": "bool",
          "name": "",
          "type": "bool"
        }
      ],
      "stateMutability": "nonpayable",
      "type": "function"
    },
    {
      "inputs": [
        {
          "internalType": "address",
          "name": "from",
          "type": "address"
        },
        {
          "internalType": "address",
          "name": "to",
          "type": "address"
        },
        {
          "internalType": "uint256",
          "name": "value",
          "type": "uint256"
        }
      ],
      "name": "transferFrom",
      "outputs": [
        {
          "internalType": "bool",
          "name": "",
          "type": "bool"
        }
      ],
      "stateMutability": "nonpayable",
      "type": "function"
    },
    {
      "stateMutability": "payable",
      "type": "receive"
    }
  ],
  "bytecode": "0x60406080815234620000f55762004db5803803806200001e816200023e565b928339810190608081830312620000f55780516001600160401b039190828111620000f55781019183601f84011215620000f5578251926020906200006d620000678662000264565b6200023e565b94828682815201908360059160051b84010192888411620000f557848101925b848410620000fa575050505050820151818111620000f55784620000b3918401620002d2565b9085830151908111620000f5576060620000d8620000e796620000e093860162000366565b93016200027c565b9262000670565b51611b8b908162001e6a8239f35b600080fd5b8351878111620000f5576060908301808c03601f19018213620000f55762000121620001f8565b916200012f8983016200027c565b83528d8201516003811015620000f5578984015281015190898211620000f557018b603f82011215620000f557808c898f9301519162000173620000678462000264565b938b858581520193891b820101918211620000f557918f959391868c969401915b818310620001b05750505083948201528152019301926200008d565b9193955091939550825163ffffffff60e01b81168103620000f557818c92918392520192018f9593918b959362000194565b634e487b7160e01b600052604160045260246000fd5b60405190606082016001600160401b038111838210176200021857604052565b620001e2565b60408051919082016001600160401b038111838210176200021857604052565b6040519190601f01601f191682016001600160401b038111838210176200021857604052565b6001600160401b038111620002185760051b60200190565b51906001600160a01b0382168203620000f557565b6001600160401b0381116200021857601f01601f191660200190565b60005b838110620002c15750506000910152565b8181015183820152602001620002b0565b9190606083820312620000f557620002e9620001f8565b92620002f5816200027c565b845262000305602082016200027c565b60208501526040810151906001600160401b038211620000f5570181601f82011215620000f55780516200033d620000678262000291565b9281845260208284010111620000f5576200035f9160208085019101620002ad565b6040830152565b9080601f83011215620000f55781519060209162000388620000678262000264565b9360208086848152019260051b820101928311620000f557602001905b828210620003b4575050505090565b838091620003c2846200027c565b815201910190620003a5565b6040513d6000823e3d90fd5b565b634e487b7160e01b600052603260045260246000fd5b8051821015620004075760209160051b010190565b620003dc565b7f5d9ab6191fe9d5041816fb24ec4281e2d3989236339577e7fbbaf91315a1bb748054906801000000000000000082101562000218576001820180825582101562000407576000908152602090200180546001600160a01b0319166001600160a01b03909216919091179055565b7fc8fcad8db84d3cc18b4c41d551ea0ee66dd599cde068d998e57d5e09332c13208054906801000000000000000082101562000218576001820180825582101562000407576000908152602090200180546001600160a01b0319166001600160a01b03909216919091179055565b6006546801000000000000000081101562000218576001810180600655811015620004075760066000527ff652222313e28459528d920b65115c16c04f3efc82aaedc97be59f3f377c0d3f0180546001600160a01b0319166001600160a01b03909216919091179055565b9060008051602062004d9583398151915280548310156200040757600052601c60206000208360031c019260021b1690565b91909180548310156200040757600052601c60206000208360031c019260021b1690565b8054680100000000000000008110156200021857620005cf9160018201815562000586565b81549060031b9063ffffffff631f931c1c831b921b1916179055565b60008051602062004d95833981519152908154916801000000000000000083101562000218578262000627916001620003da9501905562000554565b90919063ffffffff83549160031b9260e01c831b921b1916179055565b908154916801000000000000000083101562000218578262000627916001620003da9501815562000586565b90620006c7620006e29395946200068787620009f8565b7fc8fcad8db84d3cc18b4c41d551ea0ee66dd599cde068d998e57d5e09332c131d80546001600160a01b0319166001600160a01b03909216919091179055565b60208101516040906001600160a01b03169101519162000f5f565b6040516113008082016001600160401b0381118382101762000218578291620039f5833903906000f080156200099b576001600160a01b031690620007966200072a6200021e565b6001600160a01b038481168252600060208084018281526307e4c70760e21b90925260008051602062004d1583398151915290529151915160a01b6001600160a01b0319169116177fe2e1a8410c5dda870b591f2b6a97ebc340dfb9b29c2dc26dd8d3a74a6a782bcb55565b60005b8351811015620008325780620007cd620007c7620007ba60019488620003f2565b516001600160a01b031690565b6200040d565b6200082b6200081e620007e5620007ba8489620003f2565b6001600160a01b031660009081527f5d9ab6191fe9d5041816fb24ec4281e2d3989236339577e7fbbaf91315a1bb756020526040902090565b805460ff19166001179055565b0162000799565b50915062000871620008779162000849816200047b565b6001600160a01b0316600090815260008051602062004d758339815191526020526040902090565b620005aa565b6301ffc9a760e01b60005260008051602062004d35833981519152602052620008c07f0b34c73f6d9e37004179d7ea2afbe6bab6d72b52cb7f0e491b29e442f215e4296200081e565b6307e4c70760e21b60005260008051602062004d35833981519152602052620009097fe4b99ca0d5997de6e0f970b610a79fb84c2eee7e657fd1fb7cdae5b9a4c5abbf6200081e565b6348e2b09360e01b60005260008051602062004d35833981519152602052620009527f560ed3c07e31a104bbe274e86abe285caa83a0d2c860fd4718d6c33af0c9b0b06200081e565b6307f5828d60e41b60005260008051602062004d35833981519152602052620003da7fbbabeb60200e9cf953f0acb1e76ed47953c346a36a5defdbcf3f546dbd507b6b6200081e565b620003ce565b15620009a957565b60405162461bcd60e51b815260206004820152602160248201527f4174206c656173742034207265766965776572732061726520726571756972656044820152601960fa1b6064820152608490fd5b9062000a4262000a076200021e565b600a81526920a12ca0902a27a5a2a760b11b602082015262000a286200021e565b90600682526520a12caa25a760d11b602083015262000cdb565b62000a52600483511015620009a1565b62000a5d3362001104565b5062000a69336200119a565b5060005b825181101562000ae8578062000a9462000a8e620007ba60019487620003f2565b62001255565b5062000aaf62000aa9620007ba8387620003f2565b620004e9565b62000ae16200081e62000ac7620007ba8488620003f2565b6001600160a01b0316600090815260086020526040902090565b0162000a6d565b509050565b90600182811c9216801562000b1f575b602083101462000b0957565b634e487b7160e01b600052602260045260246000fd5b91607f169162000afd565b601f811162000b37575050565b60009060036000526020600020906020601f850160051c8301941062000b7a575b601f0160051c01915b82811062000b6e57505050565b81815560010162000b61565b909250829062000b58565b601f811162000b92575050565b60009060046000526020600020906020601f850160051c8301941062000bd5575b601f0160051c01915b82811062000bc957505050565b81815560010162000bbc565b909250829062000bb3565b80519091906001600160401b038111620002185762000c0c8162000c0660045462000aed565b62000b85565b602080601f831160011462000c535750819062000c42939460009262000c47575b50508160011b916000199060031b1c19161790565b600455565b01519050388062000c2d565b6004600052601f198316949091907f8a35acfbc15ff81a39ae7d344fd709f28e8600b4aa8c65c6b64bfe7fe36bd19b926000905b87821062000cc257505083600195961062000ca8575b505050811b01600455565b015160001960f88460031b161c1916905538808062000c9d565b8060018596829496860151815501950193019062000c87565b8051906001600160401b038211620002185762000d058262000cff60035462000aed565b62000b2a565b602090816001601f85111462000d495750918062000d4092620003da959460009262000c475750508160011b916000199060031b1c19161790565b60035562000be0565b60036000529190601f1984167fc2575a0e9e593c00f959f8c92f12db2869c3395a3b0502d05e2516446f71f85b936000905b82821062000dc2575050916001939185620003da9796941062000da8575b505050811b0160035562000be0565b015160001960f88460031b161c1916905538808062000d99565b8060018697829497870151815501960194019062000d7b565b90815180825260208080930193019160005b82811062000dfc575050505090565b83516001600160e01b0319168552938101939281019260010162000ded565b90602062000e2e92818152019062000ddb565b90565b6003111562000e3c57565b634e487b7160e01b600052602160045260246000fd5b51600381101562000e3c5790565b9060209162000e7b81518092818552858086019101620002ad565b601f01601f1916010190565b939290919360609260608201936060835281518095526080830160808660051b85010195602080940192600080915b83831062000eec5750505050505062000e2e949562000ede9183019060018060a01b03169052565b604081840391015262000e60565b909192939498607f1988820301865289519060018060a01b03825116815287820151600381101562000f4b5762000f3c60019385848c959486809601528160408094015193820152019062000ddb565b9b019601949301919062000eb6565b634e487b7160e01b85526021600452602485fd5b92909160005b8451811015620010be5760408062000f7e8388620003f2565b5101519062000fa062000f928489620003f2565b51516001600160a01b031690565b908251156200109c576001600160a01b03821615620010815762000fd3602062000fcb868b620003f2565b510162000e52565b9062000fdf8262000e31565b8162000ffd5750506001929162000ff69162001907565b0162000f65565b620010088262000e31565b6001820362001028575050600192916200102291620015e8565b62000ff6565b620010338262000e31565b600282036200104d5750506001929162001022916200135a565b6200107d92506200105e8262000e31565b51633ff4d20f60e11b815260ff90911660048201529081906024820190565b0390fd5b5163cd98a96f60e01b8152806200107d846004830162000e1b565b5163e767f91f60e01b81526001600160a01b0391909116600482015260249150fd5b509092917f8faa70878671ccd212d20771b795c50af8fd3ff6cf27f4bde57e5d4de0aeb67381620003da94620010fb856040519384938462000e87565b0390a162001cc7565b6001600160a01b03811660009081527f05b8ccbb9d4d8fb16ea74ce3c29a41f1b461fbdaff4714a0d9a8eb05499746bc602052604081205460ff1662001195578080526005602090815260408083206001600160a01b038516600090815292529020805460ff1916600117905533916001600160a01b03169060008051602062004cf58339815191528180a4600190565b905090565b6001600160a01b03811660009081527f25cef78f4cdd1cb7eb378f6b75bcbc545619fa71abee2fe98036142339b7afad602052604081207fdf1425bae297c2f52b4f15d18a50b1fc8cb5b981a981b1d213ed3ff92681b64d9060ff905b54166200124f578082526005602090815260408084206001600160a01b038616600090815292529020805460ff1916600117905533926001600160a01b03169160008051602062004cf58339815191529080a4600190565b50905090565b6001600160a01b03811660009081527fc7a22658daf1034e6b22f48b6d884944e40f27062ffbf977ecda3791db22c5eb602052604081207fc10c77be35aff266144ed64c26a1fa104bae2f284ae99ac4a34203454704a1859060ff90620011f7565b9061ffff620012c56200021e565b92546001600160a01b038116845260a01c166020830152565b634e487b7160e01b600052601160045260246000fd5b801562001302576000190190565b620012de565b60008051602062004d958339815191528054801562001344576000190190620013318262000554565b63ffffffff82549160031b1b1916905555565b634e487b7160e01b600052603160045260246000fd5b60008051602062004d95833981519152549291906001600160a01b0381166200157d575060009060005b81518110156200157657620013ac6200139e8284620003f2565b516001600160e01b03191690565b94620013e3620013dd8763ffffffff60e01b1660005260008051602062004d55833981519152602052604060002090565b620012b7565b805190919062001403906001600160a01b03165b6001600160a01b031690565b1562001554578151309062001421906001600160a01b0316620013f7565b1462001532576200148e602097600194936200143e8894620012f4565b998a91018161ffff62001453835161ffff1690565b160362001496575b50506200146762001308565b63ffffffff60e01b1660005260008051602062004d55833981519152602052604060002090565b550162001384565b6200150b620014e3620014be620014b16200152a9562000554565b90549060031b1c60e01b90565b92620014db8462000627620014d5845161ffff1690565b62000554565b5161ffff1690565b9163ffffffff60e01b1660005260008051602062004d55833981519152602052604060002090565b805461ffff60a01b191660a09290921b61ffff60a01b16919091179055565b88386200145b565b604051630df5fd6160e31b81526001600160e01b031988166004820152602490fd5b604051637a08a22d60e01b81526001600160e01b031988166004820152602490fd5b5050509050565b60405163d091bc8160e01b81526001600160a01b03919091166004820152602490fd5b620015aa620001f8565b906028825267206e6f20636f646560c01b6040837f4c69624469616d6f6e644375743a205265706c6163652066616365742068617360208201520152565b6001600160a01b0392918382169081156200179957620016126200160b620015a0565b8462001d9f565b60005b815181101562001791576200162f6200139e8284620003f2565b866200166d620016608363ffffffff60e01b1660005260008051602062004d15833981519152602052604060002090565b546001600160a01b031690565b818116156200175a575b163081146200173857848114620017165715620016f25790620016eb85620016cc846200146783620016cc60019863ffffffff60e01b1660005260008051602062004d15833981519152602052604060002090565b80546001600160a01b0319166001600160a01b03909216919091179055565b0162001615565b604051637479f93960e01b81526001600160e01b0319919091166004820152602490fd5b604051631ac6ce8d60e11b81526001600160e01b031983166004820152602490fd5b604051632901806d60e11b81526001600160e01b031983166004820152602490fd5b506200178b620016608363ffffffff60e01b1660005260008051602062004d55833981519152602052604060002090565b62001677565b505050509050565b60405163cd98a96f60e01b81529081906200107d906004830162000e1b565b15620017c057565b60405162461bcd60e51b815260206004820152602b60248201527f4c69624469616d6f6e644375743a204e6f2073656c6563746f727320696e206660448201526a1858d95d081d1bc818dd5d60aa1b6064820152608490fd5b156200182157565b60405162461bcd60e51b815260206004820152602c60248201527f4c69624469616d6f6e644375743a204164642066616365742063616e2774206260448201526b65206164647265737328302960a01b6064820152608490fd5b156200188357565b60405162461bcd60e51b815260206004820152603560248201527f4c69624469616d6f6e644375743a2043616e2774206164642066756e6374696f60448201527f6e207468617420616c72656164792065786973747300000000000000000000006064820152608490fd5b6001600160601b03908116908114620013025760010190565b9190916200191883511515620017b8565b6200192e6001600160a01b038216151562001819565b6001600160a01b038116600090815260008051602062004d7583398151915260205260409020546001600160601b031692831562001b5e575b6000935b8151851015620015765762001b5560019162001b4f620019906200139e8987620003f2565b620019cf620019c8620013f7620016608463ffffffff60e01b1660005260008051602062004d15833981519152602052604060002090565b156200187b565b62001a0087620016cc8363ffffffff60e01b1660005260008051602062004d15833981519152602052604060002090565b62001a548362001a318363ffffffff60e01b1660005260008051602062004d15833981519152602052604060002090565b80546001600160a01b031660a09290921b6001600160a01b031916919091179055565b6001600160a01b038716600090815260008051602062004d758339815191526020526040902062001a8790829062000644565b6001600160a01b03871660009081527fc8fcad8db84d3cc18b4c41d551ea0ee66dd599cde068d998e57d5e09332c13266020526040902062001acb90829062000644565b62001b4962001aeb60008051602062004d958339815191525461ffff1690565b62001b1c89620016cc8563ffffffff60e01b1660005260008051602062004d55833981519152602052604060002090565b6001600160e01b03198316600090815260008051602062004d55833981519152602052604090206200150b565b620005eb565b620018ee565b9401936200196b565b62001b698262001dcf565b62001967565b1562001b7757565b60405162461bcd60e51b815260206004820152603d60248201527f4c69624469616d6f6e644375743a205f63616c6c6461746120697320656d707460448201527f7920627574205f696e6974206973206e6f7420616464726573732830290000006064820152608490fd5b62001bec620001f8565b906028825267206e6f20636f646560c01b6040837f4c69624469616d6f6e644375743a205f696e697420616464726573732068617360208201520152565b3d1562001c4f573d9062001c42620000678362000291565b9182523d6000602084013e565b606090565b1562001c5c57565b60405162461bcd60e51b815260206004820152603c60248201527f4c69624469616d6f6e644375743a205f696e697420697320616464726573732860448201527f3029206275745f63616c6c64617461206973206e6f7420656d707479000000006064820152608490fd5b906001600160a01b0382168062001ce75750620003da9150511562001c54565b90600092839262001cfb8351151562001b6f565b300362001d84575b602082519201905af462001d1662001c2a565b901562001d205750565b80511562001d3057805190602001fd5b60405162461bcd60e51b815260206004820152602660248201527f4c69624469616d6f6e644375743a205f696e69742066756e6374696f6e2072656044820152651d995c9d195960d21b6064820152608490fd5b62001d9962001d9262001be2565b8262001d9f565b62001d03565b3b1562001da95750565b60405162461bcd60e51b8152602060048201529081906200107d90602483019062000e60565b62001e1b62001ddd620001f8565b602481527f4c69624469616d6f6e644375743a204e657720666163657420686173206e6f20602082015263636f646560e01b60408201528262001d9f565b62001e26816200047b565b6001600160a01b031660009081527fc8fcad8db84d3cc18b4c41d551ea0ee66dd599cde068d998e57d5e09332c132160205260409020805460ff1916600117905556fe60806040526004361015610015575b3661147557005b60003560e01c806301ffc9a7146101f557806306fdde03146101f0578063095ea7b3146101eb57806318160ddd146101e657806319656f7b146101e157806319f102ec146101dc57806323b872dd146101d7578063248a9ca3146101d25780632f2ff15d146101cd578063313ce567146101c857806332cb6b0c146101c357806336568abe146101be5780633b129a56146101b957806340932bf8146101b45780634d6ca5d5146101af57806352994e2f146101aa57806370a08231146101a557806373a82b5f146101a057806379c650681461019b57806391d148541461019657806395d89b41146101915780639dc29fac1461018c578063a217fddf14610187578063a9059cbb14610182578063bad0dd651461017d578063c491b04c14610178578063c9442dac14610173578063d547741f1461016e578063dd62ed3e146101695763fdc6258a0361000e576110a1565b611049565b61100a565b610ece565b610e8f565b610d3f565b610d0e565b610cf2565b610c44565b610b9c565b610b4a565b610a87565b610996565b61095c565b610933565b61090a565b610898565b61071e565b6106d7565b6106b0565b610694565b610655565b610626565b610579565b61051e565b6104a1565b610483565b6103b9565b6102a4565b3461024b57602036600319011261024b5760043563ffffffff60e01b811680910361024b57602090637965db0b60e01b811490811561023a575b506040519015158152f35b6301ffc9a760e01b1490503861022f565b600080fd5b919082519283825260005b84811061027c575050826000602080949584010152601f8019910116010190565b60208183018101518483018201520161025b565b9060206102a1928181520190610250565b90565b3461024b5760008060031936011261038a576040519080600354906102c882610747565b8085529160209160019182811690811561035d5750600114610305575b610301866102f58188038261082d565b60405191829182610290565b0390f35b9350600384527fc2575a0e9e593c00f959f8c92f12db2869c3395a3b0502d05e2516446f71f85b5b83851061034a575050505081016020016102f582610301386102e5565b805486860184015293820193810161032d565b9050869550610301969350602092506102f594915060ff191682840152151560051b8201019293386102e5565b80fd5b600435906001600160a01b038216820361024b57565b602435906001600160a01b038216820361024b57565b3461024b57604036600319011261024b576103d261038d565b602435331561046a576001600160a01b038216918215610451573360009081526001602052604090208291610419915b9060018060a01b0316600052602052604060002090565b556040519081527f8c5be1e5ebec7d5bd14f71427d1e84f3dd0314c0f7b2291e5b200ac8c7c3b92560203392a3602060405160018152f35b604051634a1406b160e11b815260006004820152602490fd5b60405163e602df0560e01b815260006004820152602490fd5b3461024b57600036600319011261024b576020600254604051908152f35b3461024b57602036600319011261024b576104ca6104bd61038d565b6104c56114f5565b61161e565b005b634e487b7160e01b600052603260045260246000fd5b6006548110156105195760066000527ff652222313e28459528d920b65115c16c04f3efc82aaedc97be59f3f377c0d3f0190600090565b6104cc565b3461024b57602036600319011261024b5760043560065481101561024b5760066000527ff652222313e28459528d920b65115c16c04f3efc82aaedc97be59f3f377c0d3f01546040516001600160a01b039091168152602090f35b3461024b57606036600319011261024b5761059261038d565b61059a6103a3565b6001600160a01b038216600090815260016020908152604080832033845290915290206044359190549260001984106105e4575b6105d89350611750565b60405160018152602090f35b828410610600576105fb836105d895033383611970565b6105ce565b604051637dc7a0d960e11b81523360048201526024810185905260448101849052606490fd5b3461024b57602036600319011261024b5760043560005260056020526020600160406000200154604051908152f35b3461024b57604036600319011261024b576104ca6004356106746103a3565b9080600052600560205261068f6001604060002001546115fd565b611944565b3461024b57600036600319011261024b57602060405160128152f35b3461024b57600036600319011261024b5760206040516b204fce5e3e250261100000008152f35b3461024b57604036600319011261024b576106f06103a3565b336001600160a01b0382160361070c576104ca90600435611724565b60405163334bd91960e11b8152600490fd5b3461024b57600036600319011261024b576020604051600080516020611af68339815191528152f35b90600182811c92168015610777575b602083101461076157565b634e487b7160e01b600052602260045260246000fd5b91607f1691610756565b80546000939261079082610747565b918282526020936001916001811690816000146107f857506001146107b7575b5050505050565b90939495506000929192528360002092846000945b8386106107e4575050505001019038808080806107b0565b8054858701830152940193859082016107cc565b60ff19168685015250505090151560051b0101915038808080806107b0565b634e487b7160e01b600052604160045260246000fd5b90601f8019910116810190811067ffffffffffffffff82111761084f57604052565b610817565b9081526001600160a01b0391821660208201529116604082015260c060608201819052929493909260a09261088b91850190610250565b9460808401521515910152565b3461024b57602036600319011261024b5760043560005260096020526040600020805461030160018060a01b03928360018201541693600282015416906040516108f0816108e98160038601610781565b038261082d565b60ff60056004840154930154169260405196879687610854565b3461024b57602036600319011261024b576104ca61092661038d565b61092e6114f5565b611842565b3461024b57600036600319011261024b576020604051600080516020611b368339815191528152f35b3461024b57602036600319011261024b576001600160a01b0361097d61038d565b1660005260006020526020604060002054604051908152f35b3461024b57602036600319011261024b576109af61038d565b6109b761154d565b6001600160a01b03811660008181526008602052604081205490929060ff16610a4257610a0e816109ea610a1b936118f5565b506109f4816110f3565b6001600160a01b0316600090815260086020526040902090565b805460ff19166001179055565b7fe1cb5e1230cc02e62c60b81c1aa5ade512f3eac296edb28628b4cf344f47f9318280a280f35b60405162461bcd60e51b815260206004820152601860248201527f416c726561647920696e20726576696577657220706f6f6c00000000000000006044820152606490fd5b3461024b57604036600319011261024b57610aa061038d565b60243560025481810190818111610b4557610aca6b204fce5e3e2502611000000080931115611172565b820190818311610b4557610adf911115611172565b6001600160a01b038216918215610b2c5781610afa916119aa565b604051917fcda531bfd68624f13205c0a23cd4d5a7f09792cbb399603114f2b04aaa1bf5cf600080a360018152602090f35b60405163ec442f0560e01b815260006004820152602490fd5b61115c565b3461024b57604036600319011261024b57602060ff610b90610b6a6103a3565b6004356000526005845260406000209060018060a01b0316600052602052604060002090565b54166040519015158152f35b3461024b5760008060031936011261038a57604051908060045490610bc082610747565b8085529160209160019182811690811561035d5750600114610bec57610301866102f58188038261082d565b9350600484527f8a35acfbc15ff81a39ae7d344fd709f28e8600b4aa8c65c6b64bfe7fe36bd19b5b838510610c31575050505081016020016102f582610301386102e5565b8054868601840152938201938101610c14565b3461024b57604036600319011261024b57610c5d61038d565b60243560018060a01b0382169060009282845283602052610c8482604086205410156111be565b82845283602052610c9b82604086205410156111be565b8215610cd95781610ccf7f5b5d8478b570a79ab6b3bf13ff029fba19c02ab0d54d692d4ef0d9052d5cc85093602093611a18565b604051908152a280f35b604051634b637e8f60e11b815260048101859052602490fd5b3461024b57600036600319011261024b57602060405160008152f35b3461024b57604036600319011261024b57610d34610d2a61038d565b6024359033611750565b602060405160018152f35b3461024b57602036600319011261024b57600435610d5b6115b7565b610d6f816000526009602052604060002090565b60058101610d8d610d88610d84835460ff1690565b1590565b61120a565b610ddb610a0e60068401610dc8610dc3610d84610dbc33859060018060a01b0316600052602052604060002090565b5460ff1690565b611256565b3360009081526020919091526040902090565b600360048301610deb8154611295565b9081905560405133815285907f5d4ccf5f92566d140246f4ae3b9cb35dc06fff109a7748602ad77f6260fd9a6190602090a21015610e2557005b610a0e60008084600382610e456002610e6899015460018060a01b031690565b92610e5660405180948193016112a4565b03925af1610e62611328565b50611368565b7f7770356c29230b95943aec59d47ead11eb426a728bf5b57f7fd8597f3c0e29ba600080a2005b3461024b57602036600319011261024b576001600160a01b03610eb061038d565b166000526008602052602060ff604060002054166040519015158152f35b3461024b57602036600319011261024b57610ee761038d565b610eef6114f5565b6001600160a01b0381166000908152600860205260409020610f1990610f1490610dbc565b6113b4565b6001600160a01b038082169160005b60065480821015610ffe578484610f56610f41856104e2565b905460039190911b1c6001600160a01b031690565b1614610f655750600101610f28565b610fd6935090610f8b610f85610f41610f80610fa9956113f7565b6104e2565b916104e2565b90919060018060a01b038084549260031b9316831b921b1916179055565b610fb1611406565b6001600160a01b0381166000908152600860205260409020805460ff191690556116d5565b507f55dba9d79522b91b615629d5f3b10c2fad2d258f1768614f4a52e937ada0d0ba600080a2005b5050610fd69150610fb1565b3461024b57604036600319011261024b576104ca6004356110296103a3565b908060005260056020526110446001604060002001546115fd565b611724565b3461024b57604036600319011261024b57602061109861106761038d565b61106f6103a3565b6001600160a01b0391821660009081526001855260408082209290931681526020919091522090565b54604051908152f35b3461024b57602036600319011261024b57602060ff610b906110c161038d565b600080516020611af68339815191526000526005845260406000209060018060a01b0316600052602052604060002090565b6006546801000000000000000081101561084f5760018101806006558110156105195760066000527ff652222313e28459528d920b65115c16c04f3efc82aaedc97be59f3f377c0d3f0180546001600160a01b0319166001600160a01b03909216919091179055565b634e487b7160e01b600052601160045260246000fd5b1561117957565b60405162461bcd60e51b815260206004820152601d60248201527f4c4d53546f6b656e3a204d617820737570706c792065786365656465640000006044820152606490fd5b156111c557565b60405162461bcd60e51b815260206004820152601e60248201527f4c4d53546f6b656e3a20496e73756666696369656e742062616c616e636500006044820152606490fd5b1561121157565b60405162461bcd60e51b815260206004820152601960248201527f50726f706f73616c20616c7265616479206578656375746564000000000000006044820152606490fd5b1561125d57565b60405162461bcd60e51b815260206004820152601060248201526f105b1c9958591e48185c1c1c9bdd995960821b6044820152606490fd5b6000198114610b455760010190565b6000929181546112b381610747565b9260019180831690811561130d57506001146112d0575b50505050565b9091929394506000526020906020600020906000915b8583106112fc57505050500190388080806112ca565b8054858401529183019181016112e6565b60ff19168452505050811515909102019150388080806112ca565b3d15611363573d9067ffffffffffffffff821161084f5760405191611357601f8201601f19166020018461082d565b82523d6000602084013e565b606090565b1561136f57565b60405162461bcd60e51b815260206004820152601960248201527f50726f706f73616c20657865637574696f6e206661696c6564000000000000006044820152606490fd5b156113bb57565b60405162461bcd60e51b8152602060048201526014602482015273139bdd081a5b881c995d9a595dd95c881c1bdbdb60621b6044820152606490fd5b600019810191908211610b4557565b600654801561145f5760001981019080821015610519577ff652222313e28459528d920b65115c16c04f3efc82aaedc97be59f3f377c0d3e906006600052016bffffffffffffffffffffffff60a01b8154169055600655565b634e487b7160e01b600052603160045260246000fd5b600080356001600160e01b0319168082527fc8fcad8db84d3cc18b4c41d551ea0ee66dd599cde068d998e57d5e09332c132460205260408220546001600160a01b03169081156114dd5750818091368280378136915af43d82803e156114d9573d90f35b3d90fd5b60249060405190630a82dd7360e31b82526004820152fd5b3360009081527f05b8ccbb9d4d8fb16ea74ce3c29a41f1b461fbdaff4714a0d9a8eb05499746bc602052604090205460ff161561152e57565b60405163e2517d3f60e01b815233600482015260006024820152604490fd5b3360009081527fc7a22658daf1034e6b22f48b6d884944e40f27062ffbf977ecda3791db22c5eb60205260409020600080516020611af68339815191529060ff905b5416156115995750565b6044906040519063e2517d3f60e01b82523360048301526024820152fd5b3360009081527f25cef78f4cdd1cb7eb378f6b75bcbc545619fa71abee2fe98036142339b7afad60205260409020600080516020611b368339815191529060ff9061158f565b6000818152600560209081526040808320338452909152902060ff9061158f565b6001600160a01b03811660009081527f25cef78f4cdd1cb7eb378f6b75bcbc545619fa71abee2fe98036142339b7afad60205260408120600080516020611b368339815191529060ff905b5416156116cf578082526005602090815260408084206001600160a01b038616600090815292529020805460ff1916905533926001600160a01b0316917ff6391f5c32d9c69d2a47ea670b442974b53935d1edc7fd64eb21e047a839171b9080a4600190565b50905090565b6001600160a01b03811660009081527fc7a22658daf1034e6b22f48b6d884944e40f27062ffbf977ecda3791db22c5eb60205260408120600080516020611af68339815191529060ff90611669565b600090808252600560205260ff61166984604085209060018060a01b0316600052602052604060002090565b916001600160a01b0380841692908315611829578116938415610b2c576001600160a01b0381166000908152602081905260409020548381106117fa576117f59284926117c4600080516020611b16833981519152966117df94039160018060a01b03166000526000602052604060002090565b556001600160a01b0316600090815260208190526040902090565b8054820190556040519081529081906020820190565b0390a3565b60405163391434e360e21b81526001600160a01b03929092166004830152602482015260448101839052606490fd5b604051634b637e8f60e11b815260006004820152602490fd5b6001600160a01b03811660009081527f25cef78f4cdd1cb7eb378f6b75bcbc545619fa71abee2fe98036142339b7afad60205260408120600080516020611b368339815191529060ff905b54166116cf578082526005602090815260408084206001600160a01b038616600090815292529020805460ff1916600117905533926001600160a01b0316917f2f8788117e7eff1d82e926ec794901d17c78024a50270940304540a733656f0d9080a4600190565b6001600160a01b03811660009081527fc7a22658daf1034e6b22f48b6d884944e40f27062ffbf977ecda3791db22c5eb60205260408120600080516020611af68339815191529060ff9061188d565b600090808252600560205260ff61188d84604085209060018060a01b0316600052602052604060002090565b906001600160a01b038083161561046a57811615610451576104026119a79260018060a01b03166000526001602052604060002090565b55565b9060025490808201809211610b45576020600080516020611b168339815191529160009360025560018060a01b03851694851585146119f6575080600254036002555b604051908152a3565b6001600160a01b031660009081526020819052604090208181540190556119ed565b6001600160a01b0381169081611a61575060025491808301809311610b45576020600080516020611b16833981519152916000946002555b8060025403600255604051908152a3565b9291611a7f8460018060a01b03166000526000602052604060002090565b5493818510611ac35781602091611abd600080516020611b168339815191529460009798039160018060a01b03166000526000602052604060002090565b55611a50565b60405163391434e360e21b81526001600160a01b03919091166004820152602481018590526044810191909152606490fdfec10c77be35aff266144ed64c26a1fa104bae2f284ae99ac4a34203454704a185ddf252ad1be2c89b69c2b068fc378daa952ba7f163c4a11628f55a4df523b3efdf1425bae297c2f52b4f15d18a50b1fc8cb5b981a981b1d213ed3ff92681b64da2646970667358221220345ffa9acb572d3e71ba91aa4ad6d69f457c96316b10f883f55869fb0fe9a5f864736f6c6343000818003360808060405234610016576112e4908161001c8239f35b600080fdfe6080604052600436101561001257600080fd5b6000803560e01c631f931c1c1461002857600080fd5b346100b15760603660031901126100b15760043567ffffffffffffffff8082116100ad57366023830112156100ad578160040135918183116100a9573660248460051b830101116100a95761007b6100b4565b6044359283116100a5576100a29361009960249436906004016100e3565b949093016101d7565b80f35b8480fd5b8380fd5b8280fd5b80fd5b602435906001600160a01b03821682036100ca57565b600080fd5b35906001600160a01b03821682036100ca57565b9181601f840112156100ca5782359167ffffffffffffffff83116100ca57602083818601950101116100ca57565b634e487b7160e01b600052604160045260246000fd5b604051906060820182811067ffffffffffffffff82111761014757604052565b610111565b6040519190601f01601f1916820167ffffffffffffffff81118382101761014757604052565b67ffffffffffffffff81116101475760051b60200190565b67ffffffffffffffff811161014757601f01601f191660200190565b9291926101ba6101b58361018a565b61014c565b93828552828201116100ca57816000926020928387013784010152565b7fc8fcad8db84d3cc18b4c41d551ea0ee66dd599cde068d998e57d5e09332c131d5493959491936001600160a01b03163303610335576102196101b585610172565b908194808352602080930160059160051b8301923684116100ca5780915b84831061025c5750505050505061025a93946102549136916101a6565b91610561565b565b67ffffffffffffffff83358181116100ca5783016060813603126100ca57610282610127565b9161028c826100cf565b83528882013560038110156100ca5789840152604091828101359182116100ca57019036601f830112156100ca5781356102c86101b582610172565b928a808584815201928a1b820101903682116100ca57908b809694929795939701905b808210610305575050849550820152815201920191610237565b91939550919395823563ffffffff60e01b811681036100ca57818d92918392520192018b959391969492966102eb565b60405162461bcd60e51b815260206004820152602260248201527f4c69624469616d6f6e643a204d75737420626520636f6e7472616374206f776e60448201526132b960f11b6064820152608490fd5b634e487b7160e01b600052603260045260246000fd5b80518210156103af5760209160051b010190565b610385565b602090602060408183019282815285518094520193019160005b8281106103dc575050505090565b83516001600160e01b031916855293810193928101926001016103ce565b6003111561040457565b634e487b7160e01b600052602160045260246000fd5b5160038110156104045790565b919082519283825260005b848110610453575050826000602080949584010152601f8019910116010190565b602081830181015184830182015201610432565b9392909360609260608201606083528651809152608094608084019160808160051b860101966020809a01936000915b8383106104cc575050505050506104bc906104c9959683019060018060a01b03169052565b6040818403910152610427565b90565b909192939498607f198882030183528951908681019060018060a01b0383511681528d830151600381101561040457848f9493928592838201528a604080960151958201528451809452019201906000905b80821061053d5750505090806001929b01930193019194939290610497565b82516001600160e01b03191684528f9493840193909201916001919091019061051e565b92909160005b845181101561069e5760408061057d838861039b565b5101519061059c61058e848961039b565b51516001600160a01b031690565b9082511561067c576001600160a01b03821615610663576105c960206105c2868b61039b565b510161041a565b906105d3826103fa565b816105ed575050600192916105e791610d8a565b01610567565b6105f6826103fa565b600182036106125750506001929161060d91610a6e565b6105e7565b61061b826103fa565b600282036106325750506001929161060d9161084c565b61065f9250610640826103fa565b51633ff4d20f60e11b815260ff90911660048201529081906024820190565b0390fd5b5163cd98a96f60e01b81528061065f84600483016103b4565b5163e767f91f60e01b81526001600160a01b0391909116600482015260249150fd5b509092917f8faa70878671ccd212d20771b795c50af8fd3ff6cf27f4bde57e5d4de0aeb6738161025a946106d88560405193849384610467565b0390a161109a565b63ffffffff60e01b166000527fc8fcad8db84d3cc18b4c41d551ea0ee66dd599cde068d998e57d5e09332c1323602052604060002090565b63ffffffff60e01b166000527fc8fcad8db84d3cc18b4c41d551ea0ee66dd599cde068d998e57d5e09332c1324602052604060002090565b906040516040810181811067ffffffffffffffff8211176101475760405291546001600160a01b038116835260a01c61ffff166020830152565b634e487b7160e01b600052601160045260246000fd5b80156107ad576000190190565b61078a565b9060008051602061128f83398151915280548310156103af57600052601c8260031c7fea73525db802253ed886ed3ccbe11a7ec2ce1b62d18a629b03b8329b76e3efe6019260021b1690565b60008051602061128f83398151915280548015610836576000190190610823826107b2565b63ffffffff82549160031b1b1916905555565b634e487b7160e01b600052603160045260246000fd5b60008051602061128f833981519152549291906001600160a01b038116610a05575060009060005b81518110156109fe5761089861088a828461039b565b516001600160e01b03191690565b946108aa6108a5876106e0565b610750565b80519091906108c9906001600160a01b03165b6001600160a01b031690565b156109dc57815130906108e4906001600160a01b03166108bd565b146109ba57610927602097600194936108fd88946107a0565b998a91018161ffff610911835161ffff1690565b160361092e575b50506109226107fe565b6106e0565b5501610874565b61099461098e6109506109436109b3956107b2565b90549060031b1c60e01b90565b9261098684610969610964845161ffff1690565b6107b2565b90919063ffffffff83549160031b9260e01c831b921b1916179055565b5161ffff1690565b916106e0565b805461ffff60a01b191660a09290921b61ffff60a01b16919091179055565b8838610918565b604051630df5fd6160e31b81526001600160e01b031988166004820152602490fd5b604051637a08a22d60e01b81526001600160e01b031988166004820152602490fd5b5050509050565b60405163d091bc8160e01b81526001600160a01b03919091166004820152602490fd5b610a30610127565b906028825267206e6f20636f646560c01b6040837f4c69624469616d6f6e644375743a205265706c6163652066616365742068617360208201520152565b6001600160a01b039291838216908115610ba257610a93610a8d610a28565b84611163565b60005b8151811015610b9a57610aac61088a828461039b565b86610ac6610ab983610718565b546001600160a01b031690565b81811615610b88575b16308114610b6657848114610b445715610b205790610b1a85610afb8461092283610afb600198610718565b80546001600160a01b0319166001600160a01b03909216919091179055565b01610a96565b604051637479f93960e01b81526001600160e01b0319919091166004820152602490fd5b604051631ac6ce8d60e11b81526001600160e01b031983166004820152602490fd5b604051632901806d60e11b81526001600160e01b031983166004820152602490fd5b50610b95610ab9836106e0565b610acf565b505050509050565b60405163cd98a96f60e01b815290819061065f90600483016103b4565b15610bc657565b60405162461bcd60e51b815260206004820152602b60248201527f4c69624469616d6f6e644375743a204e6f2073656c6563746f727320696e206660448201526a1858d95d081d1bc818dd5d60aa1b6064820152608490fd5b15610c2657565b60405162461bcd60e51b815260206004820152602c60248201527f4c69624469616d6f6e644375743a204164642066616365742063616e2774206260448201526b65206164647265737328302960a01b6064820152608490fd5b15610c8757565b60405162461bcd60e51b815260206004820152603560248201527f4c69624469616d6f6e644375743a2043616e2774206164642066756e6374696f6044820152746e207468617420616c72656164792065786973747360581b6064820152608490fd5b60008051602061128f83398151915290815491600160401b831015610147578261096991600161025a950190556107b2565b908154600160401b81101561014757600181018084558110156103af5761025a926000526020600020601c8260021b169160031c01919063ffffffff83549160031b9260e01c831b921b1916179055565b6bffffffffffffffffffffffff8091169081146107ad5760010190565b919091610d9983511515610bbf565b610dad6001600160a01b0382161515610c1f565b6001600160a01b03811660009081527fc8fcad8db84d3cc18b4c41d551ea0ee66dd599cde068d998e57d5e09332c132260205260409020546bffffffffffffffffffffffff16928315610f3c575b6000935b81518510156109fe57610f34600191610f2f610e1e61088a898761039b565b610e36610e306108bd610ab984610718565b15610c80565b610e4387610afb83610718565b610e7383610e5083610718565b80546001600160a01b031660a09290921b6001600160a01b031916919091179055565b6001600160a01b03871660009081527fc8fcad8db84d3cc18b4c41d551ea0ee66dd599cde068d998e57d5e09332c132260205260409020610eb5908290610d1c565b6001600160a01b03871660009081527fc8fcad8db84d3cc18b4c41d551ea0ee66dd599cde068d998e57d5e09332c132660205260409020610ef7908290610d1c565b610f2a610f1460008051602061128f8339815191525461ffff1690565b610f2189610afb856106e0565b610994836106e0565b610cea565b610d6d565b940193610dff565b610f4582611190565b610dfb565b15610f5157565b60405162461bcd60e51b815260206004820152603d60248201527f4c69624469616d6f6e644375743a205f63616c6c6461746120697320656d707460448201527f7920627574205f696e6974206973206e6f7420616464726573732830290000006064820152608490fd5b610fc4610127565b906028825267206e6f20636f646560c01b6040837f4c69624469616d6f6e644375743a205f696e697420616464726573732068617360208201520152565b3d15611023573d906110166101b58361018a565b9182523d6000602084013e565b606090565b1561102f57565b60405162461bcd60e51b815260206004820152603c60248201527f4c69624469616d6f6e644375743a205f696e697420697320616464726573732860448201527f3029206275745f63616c6c64617461206973206e6f7420656d707479000000006064820152608490fd5b906001600160a01b038216806110b7575061025a91505115611028565b9060009283926110c983511515610f4a565b300361114d575b602082519201905af46110e1611002565b90156110ea5750565b8051156110f957805190602001fd5b60405162461bcd60e51b815260206004820152602660248201527f4c69624469616d6f6e644375743a205f696e69742066756e6374696f6e2072656044820152651d995c9d195960d21b6064820152608490fd5b61115e611158610fbc565b82611163565b6110d0565b3b1561116c5750565b60405162461bcd60e51b81526020600482015290819061065f906024830190610427565b6111d861119b610127565b602481527f4c69624469616d6f6e644375743a204e657720666163657420686173206e6f20602082015263636f646560e01b604082015282611163565b7fc8fcad8db84d3cc18b4c41d551ea0ee66dd599cde068d998e57d5e09332c1320805490600160401b82101561014757600182018091558110156103af577fd646ee1b62e0fea50c1a2b7bc7c0350faac13271570c16251752f0cc1493634a0180546001600160a01b0319166001600160a01b03909216918217905560009081527fc8fcad8db84d3cc18b4c41d551ea0ee66dd599cde068d998e57d5e09332c132160205260409020805460ff1916600117905556fec8fcad8db84d3cc18b4c41d551ea0ee66dd599cde068d998e57d5e09332c131fa264697066735822122001171b4540a9a7c0d5dbc465d6e995fc6f233e4b53e519ad7104fae47e30f73664736f6c634300081800332f8788117e7eff1d82e926ec794901d17c78024a50270940304540a733656f0dc8fcad8db84d3cc18b4c41d551ea0ee66dd599cde068d998e57d5e09332c1324c8fcad8db84d3cc18b4c41d551ea0ee66dd599cde068d998e57d5e09332c1327c8fcad8db84d3cc18b4c41d551ea0ee66dd599cde068d998e57d5e09332c1323c8fcad8db84d3cc18b4c41d551ea0ee66dd599cde068d998e57d5e09332c1322c8fcad8db84d3cc18b4c41d551ea0ee66dd599cde068d998e57d5e09332c131f",
  "linkReferences": {},
  "deployedLinkReferences": {}
}