{
  "_format": "hh-sol-artifact-1",
  "contractName": "ProfileFacet",
  "sourceName": "contracts/ProfileFacet.sol",
  "abi": [
    {
      "anonymous": false,
      "inputs": [
        {
          "indexed": true,
          "internalType": "uint256",
          "name": "profileId",
          "type": "uint256"
        },
        {
          "indexed": true,
          "internalType": "string",
          "name": "email",
          "type": "string"
        },
        {
          "indexed": false,
          "internalType": "address",
          "name": "account",
          "type": "address"
        }
      ],
      "name": "ProfileCreated",
      "type": "event"
    },
    {
      "anonymous": false,
      "inputs": [
        {
          "indexed": true,
          "internalType": "uint256",
          "name": "profileId",
          "type": "uint256"
        }
      ],
      "name": "ProfileDeactivated",
      "type": "event"
    },
    {
      "anonymous": false,
      "inputs": [
        {
          "indexed": true,
          "internalType": "uint256",
          "name": "profileId",
          "type": "uint256"
        }
      ],
      "name": "ProfileReactivated",
      "type": "event"
    },
    {
      "anonymous": false,
      "inputs": [
        {
          "indexed": true,
          "internalType": "uint256",
          "name": "profileId",
          "type": "uint256"
        }
      ],
      "name": "ProfileUpdated",
      "type": "event"
    },
    {
      "inputs": [
        {
          "internalType": "string",
          "name": "_fname",
          "type": "string"
        },
        {
          "internalType": "string",
          "name": "_lname",
          "type": "string"
        },
        {
          "internalType": "string",
          "name": "_email",
          "type": "string"
        }
      ],
      "name": "createProfile",
      "outputs": [
        {
          "internalType": "uint256",
          "name": "",
          "type": "uint256"
        }
      ],
      "stateMutability": "nonpayable",
      "type": "function"
    },
    {
      "inputs": [
        {
          "internalType": "uint256",
          "name": "_profileId",
          "type": "uint256"
        }
      ],
      "name": "deactivateProfile",
      "outputs": [],
      "stateMutability": "nonpayable",
      "type": "function"
    },
    {
      "inputs": [],
      "name": "getAllProfiles",
      "outputs": [
        {
          "components": [
            {
              "internalType": "uint256",
              "name": "id",
              "type": "uint256"
            },
            {
              "internalType": "string",
              "name": "fname",
              "type": "string"
            },
            {
              "internalType": "string",
              "name": "lname",
              "type": "string"
            },
            {
              "internalType": "string",
              "name": "email",
              "type": "string"
            },
            {
              "internalType": "address",
              "name": "account",
              "type": "address"
            },
            {
              "internalType": "bool",
              "name": "active",
              "type": "bool"
            },
            {
              "internalType": "uint256",
              "name": "createdAt",
              "type": "uint256"
            },
            {
              "internalType": "uint256",
              "name": "updatedAt",
              "type": "uint256"
            }
          ],
          "internalType": "struct LibDiamond.Profile[]",
          "name": "",
          "type": "tuple[]"
        }
      ],
      "stateMutability": "view",
      "type": "function"
    },
    {
      "inputs": [
        {
          "internalType": "uint256",
          "name": "_profileId",
          "type": "uint256"
        }
      ],
      "name": "getProfile",
      "outputs": [
        {
          "components": [
            {
              "internalType": "uint256",
              "name": "id",
              "type": "uint256"
            },
            {
              "internalType": "string",
              "name": "fname",
              "type": "string"
            },
            {
              "internalType": "string",
              "name": "lname",
              "type": "string"
            },
            {
              "internalType": "string",
              "name": "email",
              "type": "string"
            },
            {
              "internalType": "address",
              "name": "account",
              "type": "address"
            },
            {
              "internalType": "bool",
              "name": "active",
              "type": "bool"
            },
            {
              "internalType": "uint256",
              "name": "createdAt",
              "type": "uint256"
            },
            {
              "internalType": "uint256",
              "name": "updatedAt",
              "type": "uint256"
            }
          ],
          "internalType": "struct LibDiamond.Profile",
          "name": "",
          "type": "tuple"
        }
      ],
      "stateMutability": "view",
      "type": "function"
    },
    {
      "inputs": [
        {
          "internalType": "address",
          "name": "_account",
          "type": "address"
        }
      ],
      "name": "getProfilesByAccount",
      "outputs": [
        {
          "components": [
            {
              "internalType": "uint256",
              "name": "id",
              "type": "uint256"
            },
            {
              "internalType": "string",
              "name": "fname",
              "type": "string"
            },
            {
              "internalType": "string",
              "name": "lname",
              "type": "string"
            },
            {
              "internalType": "string",
              "name": "email",
              "type": "string"
            },
            {
              "internalType": "address",
              "name": "account",
              "type": "address"
            },
            {
              "internalType": "bool",
              "name": "active",
              "type": "bool"
            },
            {
              "internalType": "uint256",
              "name": "createdAt",
              "type": "uint256"
            },
            {
              "internalType": "uint256",
              "name": "updatedAt",
              "type": "uint256"
            }
          ],
          "internalType": "struct LibDiamond.Profile[]",
          "name": "",
          "type": "tuple[]"
        }
      ],
      "stateMutability": "view",
      "type": "function"
    },
    {
      "inputs": [
        {
          "internalType": "uint256",
          "name": "_profileId",
          "type": "uint256"
        }
      ],
      "name": "reactivateProfile",
      "outputs": [],
      "stateMutability": "nonpayable",
      "type": "function"
    }
  ],
  "bytecode": "0x6080806040523461001657611022908161001c8239f35b600080fdfe6080604052600436101561001257600080fd5b60003560e01c80630b1fe78414610a9a57806381206e42146109885780639841c82c1461036557806398635074146101fb578063cb3044f51461010c5763f08f4f641461005e57600080fd5b34610107576020806003193601126101075760043561007b610d48565b5080600052600080516020610fcd83398151915290818352604060002054156100c95760005281526100b06040600020610eca565b906100c5604051928284938452830190610bb8565b0390f35b60405162461bcd60e51b8152600481018490526016602482015275141c9bd99a5b1948191bd95cc81b9bdd08195e1a5cdd60521b6044820152606490fd5b600080fd5b346101075760203660031901126101075760043580600052600080516020610fcd8339815191528060205261015260018060a01b03600460406000200154163314610f8c565b816000528060205260ff60046040600020015460a01c16156101b6578160005260205260406000206004810160ff60a01b1981541690556006429101557ffaccdb7b397916a1b9bb4922bfad1945779c79029c5605adbc7becae0d50689e600080a2005b60405162461bcd60e51b815260206004820152601860248201527f50726f66696c6520616c726561647920696e61637469766500000000000000006044820152606490fd5b3461010757602080600319360112610107576004359081600052600080516020610fcd8339815191529081815261024360018060a01b03600460406000200154163314610f8c565b8260005281815260ff60046040600020015460a01c16610328578260005281815260066040600020015462278d0081018091116103125742116102ce5760008381529190526040812060048101805460ff60a01b1916600160a01b179055426006909101557f06ac8ff5d7684497a6367fb56997b952097e886f1482a4fd4d80be22df06f8a69080a2005b6064906040519062461bcd60e51b82526004820152601960248201527f5265616374697661746520706572696f642065787069726564000000000000006044820152fd5b634e487b7160e01b600052601160045260246000fd5b6064906040519062461bcd60e51b82526004820152601660248201527550726f66696c6520616c72656164792061637469766560501b6044820152fd5b346101075760603660031901126101075760043567ffffffffffffffff811161010757610396903690600401610cd9565b60243567ffffffffffffffff8111610107576103b6903690600401610cd9565b60443567ffffffffffffffff8111610107576103d6903690600401610cd9565b916103e083610f47565b5461094c577f440ef9ceb52ec6cfa34eef6ce91771896aeeb2c2f42380c6e3692b2b53ce5d83548061094657506001915b6040519061041e82610c9a565b838252602082019283526040820152836060820152336080820152600160a08201524260c08201524260e082015282600052600080516020610fcd833981519152602052604060002091815183555180519067ffffffffffffffff82116106cb57819061048e6001860154610deb565b601f81116108f3575b50602090601f831160011461088157600092610876575b50508160011b916000199060031b1c19161760018301555b604081015180519067ffffffffffffffff82116106cb5781906104ec6002860154610deb565b601f8111610823575b50602090601f83116001146107b1576000926107a6575b50508160011b916000199060031b1c19161760028301555b606081015180519067ffffffffffffffff82116106cb576105486003850154610deb565b601f811161075f575b50602090601f83116001146106ec5791806006949260e0946000926106e1575b50508160011b916000199060031b1c19161760038501555b6004840160018060a01b0360808301511681549060ff60a01b60a0850151151560a01b16916affffffffffffffffffffff60a81b161717905560c081015160058501550151910155806105db83610f47565b553360009081527f440ef9ceb52ec6cfa34eef6ce91771896aeeb2c2f42380c6e3692b2b53ce5d82602052604090208054680100000000000000008110156106cb57600181018083558110156106b557829160005260206000200155600181018082116103125760209261067e917f440ef9ceb52ec6cfa34eef6ce91771896aeeb2c2f42380c6e3692b2b53ce5d83558360405192828480945193849201610b70565b8101039020817f3c98a8055fb1f0d721830447db4ec316d500c8d7a5d04c5371bef5fe8280a02684604051338152a3604051908152f35b634e487b7160e01b600052603260045260246000fd5b634e487b7160e01b600052604160045260246000fd5b015190508880610571565b90601f198316916003860160005260206000209260005b818110610747575092600192859260e096600698961061072e575b505050811b016003850155610589565b015160001960f88460031b161c1916905588808061071e565b92936020600181928786015181550195019301610703565b600385016000526020600020601f840160051c81016020851061079f575b601f830160051c82018110610793575050610551565b6000815560010161077d565b508061077d565b01519050868061050c565b9250600285016000526020600020906000935b601f1984168510610808576001945083601f198116106107ef575b505050811b016002830155610524565b015160001960f88460031b161c191690558680806107df565b818101518355602094850194600190930192909101906107c4565b909150600285016000526020600020601f840160051c81016020851061086f575b90849392915b601f830160051c820181106108605750506104f5565b6000815585945060010161084a565b5080610844565b0151905086806104ae565b9250600185016000526020600020906000935b601f19841685106108d8576001945083601f198116106108bf575b505050811b0160018301556104c6565b015160001960f88460031b161c191690558680806108af565b81810151835560209485019460019093019290910190610894565b909150600185016000526020600020601f840160051c81016020851061093f575b90849392915b601f830160051c82018110610930575050610497565b6000815585945060010161091a565b5080610914565b91610411565b60405162461bcd60e51b8152602060048201526014602482015273456d61696c20616c72656164792065786973747360601b6044820152606490fd5b3461010757602080600319360112610107576004356001600160a01b0381168103610107576001600160a01b031660009081527f440ef9ceb52ec6cfa34eef6ce91771896aeeb2c2f42380c6e3692b2b53ce5d82602052604090206040518082602082945493848152019060005260206000209260005b86828210610a845784610a1481860382610cb7565b610a1e8151610d87565b9160005b8251811015610a765780610a3860019285610dd7565b51600052600080516020610fcd8339815191528352610a5a6040600020610eca565b610a648287610dd7565b52610a6f8186610dd7565b5001610a22565b604051806100c58682610c36565b85548452600195860195879550930192016109ff565b34610107576000366003190112610107577f440ef9ceb52ec6cfa34eef6ce91771896aeeb2c2f42380c6e3692b2b53ce5d83548015610b68576000198101908111610312575b610ae981610d87565b60019160015b81811115610b0557604051806100c58582610c36565b80600052600080516020610fcd83398151915260205260406000208054610b38575b506000198114610312578301610aef565b600019820182811161031257610b50610b6192610eca565b610b5a8287610dd7565b5284610dd7565b5084610b27565b506000610ae0565b60005b838110610b835750506000910152565b8181015183820152602001610b73565b90602091610bac81518092818552858086019101610b70565b601f01601f1916010190565b9060e080610c04610bf2610be061010087518752602088015190806020890152870190610b93565b60408701518682036040880152610b93565b60608601518582036060870152610b93565b6080808601516001600160a01b03169085015260a08086015115159085015260c0808601519085015293015191015290565b6020808201906020835283518092526040830192602060408460051b8301019501936000915b848310610c6c5750505050505090565b9091929394958480610c8a600193603f198682030187528a51610bb8565b9801930193019194939290610c5c565b610100810190811067ffffffffffffffff8211176106cb57604052565b90601f8019910116810190811067ffffffffffffffff8211176106cb57604052565b81601f820112156101075780359067ffffffffffffffff82116106cb5760405192610d0e601f8401601f191660200185610cb7565b8284526020838301011161010757816000926020809301838601378301015290565b67ffffffffffffffff81116106cb5760051b60200190565b60405190610d5582610c9a565b600060e08382815260606020820152606060408201526060808201528260808201528260a08201528260c08201520152565b90610d9182610d30565b610d9e6040519182610cb7565b8281528092610daf601f1991610d30565b019060005b828110610dc057505050565b602090610dcb610d48565b82828501015201610db4565b80518210156106b55760209160051b010190565b90600182811c92168015610e1b575b6020831014610e0557565b634e487b7160e01b600052602260045260246000fd5b91607f1691610dfa565b90604051918260008254610e3881610deb565b90818452602094600191600181169081600014610ea85750600114610e69575b505050610e6792500383610cb7565b565b600090815285812095935091905b818310610e90575050610e679350820101388080610e58565b85548884018501529485019487945091830191610e77565b92505050610e6794925060ff191682840152151560051b820101388080610e58565b90604051610ed781610c9a565b60e06006829480548452610eed60018201610e25565b6020850152610efe60028201610e25565b6040850152610f0f60038201610e25565b606085015260048101546001600160a01b038116608086015260a090811c60ff16151590850152600581015460c08501520154910152565b6020610f60918160405193828580945193849201610b70565b81017f440ef9ceb52ec6cfa34eef6ce91771896aeeb2c2f42380c6e3692b2b53ce5d8181520301902090565b15610f9357565b60405162461bcd60e51b81526020600482015260116024820152702737ba10383937b334b6329037bbb732b960791b6044820152606490fdfe440ef9ceb52ec6cfa34eef6ce91771896aeeb2c2f42380c6e3692b2b53ce5d80a26469706673582212209171bea61006d4beb4e22a07f558bf5494afe8c0edb59fdc74e4c8632c4fd36a64736f6c63430008180033",
  "linkReferences": {},
  "deployedLinkReferences": {}
}